{
  "contractName": "Betting",
  "abi": [
    {
      "constant": true,
      "inputs": [
        {
          "name": "",
          "type": "uint256"
        },
        {
          "name": "",
          "type": "uint256"
        }
      ],
      "name": "fightMap",
      "outputs": [
        {
          "name": "hash",
          "type": "bytes32"
        },
        {
          "name": "attack",
          "type": "string"
        }
      ],
      "payable": false,
      "stateMutability": "view",
      "type": "function"
    },
    {
      "constant": true,
      "inputs": [
        {
          "name": "",
          "type": "uint256"
        },
        {
          "name": "",
          "type": "address"
        },
        {
          "name": "",
          "type": "uint256"
        }
      ],
      "name": "blockedAttacksScored",
      "outputs": [
        {
          "name": "",
          "type": "uint256"
        }
      ],
      "payable": false,
      "stateMutability": "view",
      "type": "function"
    },
    {
      "constant": true,
      "inputs": [
        {
          "name": "",
          "type": "uint256"
        },
        {
          "name": "",
          "type": "address"
        }
      ],
      "name": "defenseLevel",
      "outputs": [
        {
          "name": "",
          "type": "uint256"
        }
      ],
      "payable": false,
      "stateMutability": "view",
      "type": "function"
    },
    {
      "constant": true,
      "inputs": [
        {
          "name": "",
          "type": "uint256"
        },
        {
          "name": "",
          "type": "address"
        },
        {
          "name": "",
          "type": "uint256"
        }
      ],
      "name": "bets",
      "outputs": [
        {
          "name": "",
          "type": "uint256"
        }
      ],
      "payable": false,
      "stateMutability": "view",
      "type": "function"
    },
    {
      "constant": true,
      "inputs": [],
      "name": "owner",
      "outputs": [
        {
          "name": "",
          "type": "address"
        }
      ],
      "payable": false,
      "stateMutability": "view",
      "type": "function"
    },
    {
      "constant": false,
      "inputs": [
        {
          "name": "_proxy",
          "type": "address"
        }
      ],
      "name": "setProxy",
      "outputs": [],
      "payable": false,
      "stateMutability": "nonpayable",
      "type": "function"
    },
    {
      "constant": true,
      "inputs": [
        {
          "name": "",
          "type": "uint256"
        },
        {
          "name": "",
          "type": "address"
        },
        {
          "name": "",
          "type": "uint256"
        }
      ],
      "name": "directAttacksScored",
      "outputs": [
        {
          "name": "",
          "type": "uint256"
        }
      ],
      "payable": false,
      "stateMutability": "view",
      "type": "function"
    },
    {
      "constant": true,
      "inputs": [
        {
          "name": "",
          "type": "uint256"
        },
        {
          "name": "",
          "type": "address"
        }
      ],
      "name": "lastBetTimestamp",
      "outputs": [
        {
          "name": "",
          "type": "uint256"
        }
      ],
      "payable": false,
      "stateMutability": "view",
      "type": "function"
    },
    {
      "constant": true,
      "inputs": [],
      "name": "proxy",
      "outputs": [
        {
          "name": "",
          "type": "address"
        }
      ],
      "payable": false,
      "stateMutability": "view",
      "type": "function"
    },
    {
      "constant": false,
      "inputs": [
        {
          "name": "newOwner",
          "type": "address"
        }
      ],
      "name": "transferOwnership",
      "outputs": [],
      "payable": false,
      "stateMutability": "nonpayable",
      "type": "function"
    },
    {
      "anonymous": false,
      "inputs": [
        {
          "indexed": true,
          "name": "_gameId",
          "type": "uint256"
        }
      ],
      "name": "GameStarted",
      "type": "event"
    },
    {
      "anonymous": false,
      "inputs": [
        {
          "indexed": true,
          "name": "_gameId",
          "type": "uint256"
        }
      ],
      "name": "FightMapGenerated",
      "type": "event"
    },
    {
      "anonymous": false,
      "inputs": [
        {
          "indexed": true,
          "name": "_gameId",
          "type": "uint256"
        },
        {
          "indexed": true,
          "name": "_supportedPlyer",
          "type": "address"
        },
        {
          "indexed": false,
          "name": "_lastBetAmount",
          "type": "uint256"
        },
        {
          "indexed": false,
          "name": "attackHash",
          "type": "bytes32"
        },
        {
          "indexed": false,
          "name": "attackType",
          "type": "string"
        },
        {
          "indexed": false,
          "name": "defenseLevelSupportedPlayer",
          "type": "uint256"
        },
        {
          "indexed": false,
          "name": "defenseLevelOpponent",
          "type": "uint256"
        }
      ],
      "name": "BetPlaced",
      "type": "event"
    },
    {
      "constant": false,
      "inputs": [
        {
          "name": "_gameId",
          "type": "uint256"
        },
        {
          "name": "_randomRed",
          "type": "uint256"
        },
        {
          "name": "_randomBlack",
          "type": "uint256"
        }
      ],
      "name": "setFightMap",
      "outputs": [],
      "payable": false,
      "stateMutability": "nonpayable",
      "type": "function"
    },
    {
      "constant": false,
      "inputs": [
        {
          "name": "_gameId",
          "type": "uint256"
        },
        {
          "name": "_player",
          "type": "address"
        },
        {
          "name": "index",
          "type": "uint256"
        }
      ],
      "name": "setDirectAttacksScored",
      "outputs": [],
      "payable": false,
      "stateMutability": "nonpayable",
      "type": "function"
    },
    {
      "constant": false,
      "inputs": [
        {
          "name": "_gameId",
          "type": "uint256"
        },
        {
          "name": "_player",
          "type": "address"
        },
        {
          "name": "index",
          "type": "uint256"
        }
      ],
      "name": "setBlockedAttacksScored",
      "outputs": [],
      "payable": false,
      "stateMutability": "nonpayable",
      "type": "function"
    },
    {
      "constant": true,
      "inputs": [
        {
          "name": "_gameId",
          "type": "uint256"
        },
        {
          "name": "_player",
          "type": "address"
        }
      ],
      "name": "getDirectAttacksScored",
      "outputs": [
        {
          "name": "directAttacks",
          "type": "uint256[7]"
        }
      ],
      "payable": false,
      "stateMutability": "view",
      "type": "function"
    },
    {
      "constant": true,
      "inputs": [
        {
          "name": "_gameId",
          "type": "uint256"
        },
        {
          "name": "_player",
          "type": "address"
        }
      ],
      "name": "getBlockedAttacksScored",
      "outputs": [
        {
          "name": "blockedAttacks",
          "type": "uint256[7]"
        }
      ],
      "payable": false,
      "stateMutability": "view",
      "type": "function"
    },
    {
      "constant": false,
      "inputs": [
        {
          "name": "_gameId",
          "type": "uint256"
        },
        {
          "name": "_player",
          "type": "address"
        },
        {
          "name": "_betAmount",
          "type": "uint256"
        }
      ],
      "name": "fillBets",
      "outputs": [],
      "payable": false,
      "stateMutability": "nonpayable",
      "type": "function"
    },
    {
      "constant": true,
      "inputs": [
        {
          "name": "_gameId",
          "type": "uint256"
        },
        {
          "name": "_player",
          "type": "address"
        }
      ],
      "name": "getNumberOfBets",
      "outputs": [
        {
          "name": "num",
          "type": "uint256"
        }
      ],
      "payable": false,
      "stateMutability": "view",
      "type": "function"
    },
    {
      "constant": true,
      "inputs": [
        {
          "name": "_gameId",
          "type": "uint256"
        },
        {
          "name": "_player",
          "type": "address"
        }
      ],
      "name": "getLastFourBets",
      "outputs": [
        {
          "name": "lastBet4",
          "type": "uint256"
        },
        {
          "name": "lastBet3",
          "type": "uint256"
        },
        {
          "name": "lastBet2",
          "type": "uint256"
        },
        {
          "name": "lastBet1",
          "type": "uint256"
        }
      ],
      "payable": false,
      "stateMutability": "view",
      "type": "function"
    },
    {
      "constant": false,
      "inputs": [
        {
          "name": "_gameId",
          "type": "uint256"
        },
        {
          "name": "_player",
          "type": "address"
        },
        {
          "name": "_lastBetTimestamp",
          "type": "uint256"
        }
      ],
      "name": "setLastBetTimestamp",
      "outputs": [],
      "payable": false,
      "stateMutability": "nonpayable",
      "type": "function"
    },
    {
      "constant": false,
      "inputs": [
        {
          "name": "_gameId",
          "type": "uint256"
        },
        {
          "name": "_player",
          "type": "address"
        },
        {
          "name": "_defense",
          "type": "uint256"
        }
      ],
      "name": "setDefenseLevel",
      "outputs": [],
      "payable": false,
      "stateMutability": "nonpayable",
      "type": "function"
    },
    {
      "constant": false,
      "inputs": [
        {
          "name": "_gameId",
          "type": "uint256"
        },
        {
          "name": "_player",
          "type": "address"
        },
        {
          "name": "_originalDefenseLevel",
          "type": "uint256"
        }
      ],
      "name": "setOriginalDefenseLevel",
      "outputs": [],
      "payable": false,
      "stateMutability": "nonpayable",
      "type": "function"
    },
    {
      "constant": true,
      "inputs": [
        {
          "name": "_gameId",
          "type": "uint256"
        },
        {
          "name": "_supportedPlayer",
          "type": "address"
        },
        {
          "name": "_lastBetAmount",
          "type": "uint256"
        },
        {
          "name": "_randomNum",
          "type": "uint256"
        }
      ],
      "name": "getAttackType",
      "outputs": [
        {
          "name": "attackType",
          "type": "string"
        },
        {
          "name": "attackHash",
          "type": "bytes32"
        },
        {
          "name": "index",
          "type": "uint256"
        }
      ],
      "payable": false,
      "stateMutability": "view",
      "type": "function"
    },
    {
      "constant": true,
      "inputs": [
        {
          "name": "_gameId",
          "type": "uint256"
        },
        {
          "name": "_opponentPlayer",
          "type": "address"
        }
      ],
      "name": "isAttackBlocked",
      "outputs": [
        {
          "name": "",
          "type": "bool"
        }
      ],
      "payable": false,
      "stateMutability": "view",
      "type": "function"
    },
    {
      "constant": false,
      "inputs": [
        {
          "name": "_gameId",
          "type": "uint256"
        },
        {
          "name": "_lastBetAmount",
          "type": "uint256"
        },
        {
          "name": "_supportedPlayer",
          "type": "address"
        },
        {
          "name": "_opponentPlayer",
          "type": "address"
        }
      ],
      "name": "reduceDefenseLevel",
      "outputs": [
        {
          "name": "defenseLevelOpponent",
          "type": "uint256"
        }
      ],
      "payable": false,
      "stateMutability": "nonpayable",
      "type": "function"
    },
    {
      "constant": true,
      "inputs": [
        {
          "name": "seed",
          "type": "uint256"
        }
      ],
      "name": "randomGen",
      "outputs": [
        {
          "name": "randomNumber",
          "type": "uint256"
        }
      ],
      "payable": false,
      "stateMutability": "view",
      "type": "function"
    },
    {
      "constant": false,
      "inputs": [
        {
          "name": "_gameId",
          "type": "uint256"
        },
        {
          "name": "_randomRed",
          "type": "uint256"
        },
        {
          "name": "_randomBlack",
          "type": "uint256"
        }
      ],
      "name": "startGame",
      "outputs": [],
      "payable": false,
      "stateMutability": "nonpayable",
      "type": "function"
    },
    {
      "constant": false,
      "inputs": [
        {
          "name": "_gameId",
          "type": "uint256"
        },
        {
          "name": "_lastBetAmount",
          "type": "uint256"
        },
        {
          "name": "_supportedPlayer",
          "type": "address"
        },
        {
          "name": "_opponentPlayer",
          "type": "address"
        },
        {
          "name": "_randomNum",
          "type": "uint256"
        }
      ],
      "name": "bet",
      "outputs": [
        {
          "name": "attackType",
          "type": "string"
        },
        {
          "name": "attackHash",
          "type": "bytes32"
        },
        {
          "name": "defenseLevelSupportedPlayer",
          "type": "uint256"
        },
        {
          "name": "defenseLevelOpponent",
          "type": "uint256"
        }
      ],
      "payable": false,
      "stateMutability": "nonpayable",
      "type": "function"
    }
  ],
  "bytecode": "0x6080604052336000806101000a81548173ffffffffffffffffffffffffffffffffffffffff021916908373ffffffffffffffffffffffffffffffffffffffff1602179055506132bb806100536000396000f3fe608060405234801561001057600080fd5b50600436106101a95760003560e01c806397107d6d116100f9578063d7857e8711610097578063ec55688911610071578063ec55688914610b42578063ed1d740614610b8c578063f2fde38b14610be4578063fec3ac4a14610c28576101a9565b8063d7857e8714610a1e578063dce2d9b414610a60578063dea0642a14610aea576101a9565b8063c04768d0116100d3578063c04768d0146108a0578063c386ba9a1461090c578063c9aca57a14610964578063cbd1a916146109bc576101a9565b806397107d6d146106e7578063a57451401461072b578063a9c015c1146107b7576101a9565b8063434b14e7116101665780637f45dc3b116101405780637f45dc3b14610559578063851c4537146105b15780638c9f39b51461063b5780638da5cb5b1461069d576101a9565b8063434b14e71461043a57806348c52d551461047c5780636a95b5b0146104f3576101a9565b806303e78b31146101ae5780631363bb2614610266578063158fc35e146102d25780632579f9421461032a5780632c31d0851461038c578063308eba97146103ce575b600080fd5b6101e4600480360360408110156101c457600080fd5b810190808035906020019092919080359060200190929190505050610d38565b6040518083815260200180602001828103825283818151815260200191508051906020019080838360005b8381101561022a57808201518184015260208101905061020f565b50505050905090810190601f1680156102575780820380516001836020036101000a031916815260200191505b50935050505060405180910390f35b6102bc6004803603606081101561027c57600080fd5b8101908080359060200190929190803573ffffffffffffffffffffffffffffffffffffffff16906020019092919080359060200190929190505050610e0e565b6040518082815260200191505060405180910390f35b610328600480360360608110156102e857600080fd5b8101908080359060200190929190803573ffffffffffffffffffffffffffffffffffffffff16906020019092919080359060200190929190505050610e40565b005b6103766004803603604081101561034057600080fd5b8101908080359060200190929190803573ffffffffffffffffffffffffffffffffffffffff169060200190929190505050610f15565b6040518082815260200191505060405180910390f35b6103cc600480360360608110156103a257600080fd5b81019080803590602001909291908035906020019092919080359060200190929190505050610f3a565b005b610424600480360360608110156103e457600080fd5b8101908080359060200190929190803573ffffffffffffffffffffffffffffffffffffffff16906020019092919080359060200190929190505050610f77565b6040518082815260200191505060405180910390f35b6104666004803603602081101561045057600080fd5b8101908080359060200190929190505050610fb2565b6040518082815260200191505060405180910390f35b6104c86004803603604081101561049257600080fd5b8101908080359060200190929190803573ffffffffffffffffffffffffffffffffffffffff169060200190929190505050611031565b6040518085815260200184815260200183815260200182815260200194505050505060405180910390f35b61053f6004803603604081101561050957600080fd5b8101908080359060200190929190803573ffffffffffffffffffffffffffffffffffffffff169060200190929190505050611292565b604051808215151515815260200191505060405180910390f35b6105af6004803603606081101561056f57600080fd5b8101908080359060200190929190803573ffffffffffffffffffffffffffffffffffffffff16906020019092919080359060200190929190505050611318565b005b6105fd600480360360408110156105c757600080fd5b8101908080359060200190929190803573ffffffffffffffffffffffffffffffffffffffff1690602001909291905050506113ed565b6040518082600760200280838360005b8381101561062857808201518184015260208101905061060d565b5050505090500191505060405180910390f35b6106876004803603604081101561065157600080fd5b8101908080359060200190929190803573ffffffffffffffffffffffffffffffffffffffff169060200190929190505050611751565b6040518082815260200191505060405180910390f35b6106a56117af565b604051808273ffffffffffffffffffffffffffffffffffffffff1673ffffffffffffffffffffffffffffffffffffffff16815260200191505060405180910390f35b610729600480360360208110156106fd57600080fd5b81019080803573ffffffffffffffffffffffffffffffffffffffff1690602001909291905050506117d4565b005b6107a16004803603608081101561074157600080fd5b810190808035906020019092919080359060200190929190803573ffffffffffffffffffffffffffffffffffffffff169060200190929190803573ffffffffffffffffffffffffffffffffffffffff16906020019092919050505061186e565b6040518082815260200191505060405180910390f35b610817600480360360808110156107cd57600080fd5b8101908080359060200190929190803573ffffffffffffffffffffffffffffffffffffffff16906020019092919080359060200190929190803590602001909291905050506119f7565b6040518080602001848152602001838152602001828103825285818151815260200191508051906020019080838360005b83811015610863578082015181840152602081019050610848565b50505050905090810190601f1680156108905780820380516001836020036101000a031916815260200191505b5094505050505060405180910390f35b6108f6600480360360608110156108b657600080fd5b8101908080359060200190929190803573ffffffffffffffffffffffffffffffffffffffff169060200190929190803590602001909291905050506121e5565b6040518082815260200191505060405180910390f35b6109626004803603606081101561092257600080fd5b8101908080359060200190929190803573ffffffffffffffffffffffffffffffffffffffff16906020019092919080359060200190929190505050612217565b005b6109ba6004803603606081101561097a57600080fd5b8101908080359060200190929190803573ffffffffffffffffffffffffffffffffffffffff16906020019092919080359060200190929190505050612271565b005b610a08600480360360408110156109d257600080fd5b8101908080359060200190929190803573ffffffffffffffffffffffffffffffffffffffff1690602001909291905050506122f0565b6040518082815260200191505060405180910390f35b610a5e60048036036060811015610a3457600080fd5b81019080803590602001909291908035906020019092919080359060200190929190505050612315565b005b610aac60048036036040811015610a7657600080fd5b8101908080359060200190929190803573ffffffffffffffffffffffffffffffffffffffff169060200190929190505050612a89565b6040518082600760200280838360005b83811015610ad7578082015181840152602081019050610abc565b5050505090500191505060405180910390f35b610b4060048036036060811015610b0057600080fd5b8101908080359060200190929190803573ffffffffffffffffffffffffffffffffffffffff16906020019092919080359060200190929190505050612ded565b005b610b4a612e47565b604051808273ffffffffffffffffffffffffffffffffffffffff1673ffffffffffffffffffffffffffffffffffffffff16815260200191505060405180910390f35b610be260048036036060811015610ba257600080fd5b8101908080359060200190929190803573ffffffffffffffffffffffffffffffffffffffff16906020019092919080359060200190929190505050612e6d565b005b610c2660048036036020811015610bfa57600080fd5b81019080803573ffffffffffffffffffffffffffffffffffffffff169060200190929190505050612e7d565b005b610ca8600480360360a0811015610c3e57600080fd5b810190808035906020019092919080359060200190929190803573ffffffffffffffffffffffffffffffffffffffff169060200190929190803573ffffffffffffffffffffffffffffffffffffffff16906020019092919080359060200190929190505050612f4b565b6040518080602001858152602001848152602001838152602001828103825286818151815260200191508051906020019080838360005b83811015610cfa578082015181840152602081019050610cdf565b50505050905090810190601f168015610d275780820380516001836020036101000a031916815260200191505b509550505050505060405180910390f35b60026020528160005260406000208181548110610d5157fe5b906000526020600020906002020160009150915050806000015490806001018054600181600116156101000203166002900480601f016020809104026020016040519081016040528092919081815260200182805460018160011615610100020316600290048015610e045780601f10610dd957610100808354040283529160200191610e04565b820191906000526020600020905b815481529060010190602001808311610de757829003601f168201915b5050505050905082565b60046020528260005260406000206020528160005260406000208160078110610e3357fe5b0160009250925050505481565b610eb060016003600086815260200190815260200160002060008573ffffffffffffffffffffffffffffffffffffffff1673ffffffffffffffffffffffffffffffffffffffff1681526020019081526020016000208360078110610ea057fe5b015461318c90919063ffffffff16565b6003600085815260200190815260200160002060008473ffffffffffffffffffffffffffffffffffffffff1673ffffffffffffffffffffffffffffffffffffffff1681526020019081526020016000208260078110610f0b57fe5b0181905550505050565b6007602052816000526040600020602052806000526040600020600091509150505481565b610f45838383612315565b827f50ad08f58a27f2851d7e3a1b3a6a46b290f2ce677e99642d30ff639721e7779060405160405180910390a2505050565b60056020528260005260406000206020528160005260406000208181548110610f9c57fe5b9060005260206000200160009250925050505481565b6000610fc860018361318c90919063ffffffff16565b91506064610fe06001436131a890919063ffffffff16565b40424485604051602001808581526020018481526020018381526020018281526020019450505050506040516020818303038152906040528051906020012060001c8161102957fe5b069050919050565b60008060008060006005600088815260200190815260200160002060008773ffffffffffffffffffffffffffffffffffffffff1673ffffffffffffffffffffffffffffffffffffffff1681526020019081526020016000208054905090506003811161109c57600080fd5b6005600088815260200190815260200160002060008773ffffffffffffffffffffffffffffffffffffffff1673ffffffffffffffffffffffffffffffffffffffff1681526020019081526020016000206111006004836131a890919063ffffffff16565b8154811061110a57fe5b906000526020600020015494506005600088815260200190815260200160002060008773ffffffffffffffffffffffffffffffffffffffff1673ffffffffffffffffffffffffffffffffffffffff16815260200190815260200160002061117b6003836131a890919063ffffffff16565b8154811061118557fe5b906000526020600020015493506005600088815260200190815260200160002060008773ffffffffffffffffffffffffffffffffffffffff1673ffffffffffffffffffffffffffffffffffffffff1681526020019081526020016000206111f66002836131a890919063ffffffff16565b8154811061120057fe5b906000526020600020015492506005600088815260200190815260200160002060008773ffffffffffffffffffffffffffffffffffffffff1673ffffffffffffffffffffffffffffffffffffffff1681526020019081526020016000206112716001836131a890919063ffffffff16565b8154811061127b57fe5b906000526020600020015491505092959194509250565b6000806006600085815260200190815260200160002060008473ffffffffffffffffffffffffffffffffffffffff1673ffffffffffffffffffffffffffffffffffffffff1681526020019081526020016000205490506112fc6005426131a890919063ffffffff16565b811061130c576001915050611312565b60009150505b92915050565b61138860016004600086815260200190815260200160002060008573ffffffffffffffffffffffffffffffffffffffff1673ffffffffffffffffffffffffffffffffffffffff168152602001908152602001600020836007811061137857fe5b015461318c90919063ffffffff16565b6004600085815260200190815260200160002060008473ffffffffffffffffffffffffffffffffffffffff1673ffffffffffffffffffffffffffffffffffffffff16815260200190815260200160002082600781106113e357fe5b0181905550505050565b6113f56131bf565b60006003600085815260200190815260200160002060008473ffffffffffffffffffffffffffffffffffffffff1673ffffffffffffffffffffffffffffffffffffffff16815260200190815260200160002060006007811061145357fe5b0154905060006003600086815260200190815260200160002060008573ffffffffffffffffffffffffffffffffffffffff1673ffffffffffffffffffffffffffffffffffffffff1681526020019081526020016000206001600781106114b557fe5b0154905060006003600087815260200190815260200160002060008673ffffffffffffffffffffffffffffffffffffffff1673ffffffffffffffffffffffffffffffffffffffff16815260200190815260200160002060026007811061151757fe5b0154905060006003600088815260200190815260200160002060008773ffffffffffffffffffffffffffffffffffffffff1673ffffffffffffffffffffffffffffffffffffffff16815260200190815260200160002060036007811061157957fe5b0154905060006003600089815260200190815260200160002060008873ffffffffffffffffffffffffffffffffffffffff1673ffffffffffffffffffffffffffffffffffffffff1681526020019081526020016000206004600781106115db57fe5b015490506000600360008a815260200190815260200160002060008973ffffffffffffffffffffffffffffffffffffffff1673ffffffffffffffffffffffffffffffffffffffff16815260200190815260200160002060056007811061163d57fe5b015490506000600360008b815260200190815260200160002060008a73ffffffffffffffffffffffffffffffffffffffff1673ffffffffffffffffffffffffffffffffffffffff16815260200190815260200160002060066007811061169f57fe5b0154905086886000600781106116b157fe5b60200201818152505085886001600781106116c857fe5b60200201818152505084886002600781106116df57fe5b60200201818152505083886003600781106116f657fe5b602002018181525050828860046007811061170d57fe5b602002018181525050818860056007811061172457fe5b602002018181525050808860066007811061173b57fe5b6020020181815250505050505050505092915050565b60006005600084815260200190815260200160002060008373ffffffffffffffffffffffffffffffffffffffff1673ffffffffffffffffffffffffffffffffffffffff16815260200190815260200160002080549050905092915050565b6000809054906101000a900473ffffffffffffffffffffffffffffffffffffffff1681565b6000809054906101000a900473ffffffffffffffffffffffffffffffffffffffff1673ffffffffffffffffffffffffffffffffffffffff163373ffffffffffffffffffffffffffffffffffffffff161461182a57fe5b80600160006101000a81548173ffffffffffffffffffffffffffffffffffffffff021916908373ffffffffffffffffffffffffffffffffffffffff16021790555050565b6000806007600087815260200190815260200160002060008473ffffffffffffffffffffffffffffffffffffffff1673ffffffffffffffffffffffffffffffffffffffff1681526020019081526020016000205411611935576040517f08c379a000000000000000000000000000000000000000000000000000000000815260040180806020018281038252601d8152602001807f446566656e7365206c6576656c20697320616c7265616479207a65726f00000081525060200191505060405180910390fd5b6000806000806119458988611031565b9350935093509350808811801561195b57508181115b801561196657508282115b801561197157508383115b156119e8576119da6001600760008c815260200190815260200160002060008973ffffffffffffffffffffffffffffffffffffffff1673ffffffffffffffffffffffffffffffffffffffff168152602001908152602001600020546131a890919063ffffffff16565b94506119e7898787612ded565b5b84945050505050949350505050565b60606000806000611a088888611031565b9350505050808611611d61576000611a1f86610fb2565b905060218111611b3057600260008a8152602001908152602001600020600081548110611a4857fe5b90600052602060002090600202016001018054600181600116156101000203166002900480601f016020809104026020016040519081016040528092919081815260200182805460018160011615610100020316600290048015611aed5780601f10611ac257610100808354040283529160200191611aed565b820191906000526020600020905b815481529060010190602001808311611ad057829003601f168201915b50505050509450600260008a8152602001908152602001600020600081548110611b1357fe5b906000526020600020906002020160000154935060009250611d5b565b60428111158015611b415750602181115b15611c4d57600260008a8152602001908152602001600020600181548110611b6557fe5b90600052602060002090600202016001018054600181600116156101000203166002900480601f016020809104026020016040519081016040528092919081815260200182805460018160011615610100020316600290048015611c0a5780601f10611bdf57610100808354040283529160200191611c0a565b820191906000526020600020905b815481529060010190602001808311611bed57829003601f168201915b50505050509450600260008a8152602001908152602001600020600181548110611c3057fe5b906000526020600020906002020160000154935060019250611d5a565b6042811115611d5957600260008a8152602001908152602001600020600281548110611c7557fe5b90600052602060002090600202016001018054600181600116156101000203166002900480601f016020809104026020016040519081016040528092919081815260200182805460018160011615610100020316600290048015611d1a5780601f10611cef57610100808354040283529160200191611d1a565b820191906000526020600020905b815481529060010190602001808311611cfd57829003601f168201915b50505050509450600260008a8152602001908152602001600020600281548110611d4057fe5b9060005260206000209060020201600001549350600292505b5b5b506121d1565b808611156121d0576000611d7486610fb2565b905060198111611e8557600260008a8152602001908152602001600020600381548110611d9d57fe5b90600052602060002090600202016001018054600181600116156101000203166002900480601f016020809104026020016040519081016040528092919081815260200182805460018160011615610100020316600290048015611e425780601f10611e1757610100808354040283529160200191611e42565b820191906000526020600020905b815481529060010190602001808311611e2557829003601f168201915b50505050509450600260008a8152602001908152602001600020600381548110611e6857fe5b9060005260206000209060020201600001549350600392506121ce565b601981118015611e96575060328111155b15611fa257600260008a8152602001908152602001600020600481548110611eba57fe5b90600052602060002090600202016001018054600181600116156101000203166002900480601f016020809104026020016040519081016040528092919081815260200182805460018160011615610100020316600290048015611f5f5780601f10611f3457610100808354040283529160200191611f5f565b820191906000526020600020905b815481529060010190602001808311611f4257829003601f168201915b50505050509450600260008a8152602001908152602001600020600481548110611f8557fe5b9060005260206000209060020201600001549350600492506121cd565b603281118015611fb35750604b8111155b156120bf57600260008a8152602001908152602001600020600581548110611fd757fe5b90600052602060002090600202016001018054600181600116156101000203166002900480601f01602080910402602001604051908101604052809291908181526020018280546001816001161561010002031660029004801561207c5780601f106120515761010080835404028352916020019161207c565b820191906000526020600020905b81548152906001019060200180831161205f57829003601f168201915b50505050509450600260008a81526020019081526020016000206005815481106120a257fe5b9060005260206000209060020201600001549350600592506121cc565b604b8111156121cb57600260008a81526020019081526020016000206006815481106120e757fe5b90600052602060002090600202016001018054600181600116156101000203166002900480601f01602080910402602001604051908101604052809291908181526020018280546001816001161561010002031660029004801561218c5780601f106121615761010080835404028352916020019161218c565b820191906000526020600020905b81548152906001019060200180831161216f57829003601f168201915b50505050509450600260008a81526020019081526020016000206006815481106121b257fe5b9060005260206000209060020201600001549350600692505b5b5b5b505b5b838383935093509350509450945094915050565b6003602052826000526040600020602052816000526040600020816007811061220a57fe5b0160009250925050505481565b806006600085815260200190815260200160002060008473ffffffffffffffffffffffffffffffffffffffff1673ffffffffffffffffffffffffffffffffffffffff16815260200190815260200160002081905550505050565b6005600084815260200190815260200160002060008373ffffffffffffffffffffffffffffffffffffffff1673ffffffffffffffffffffffffffffffffffffffff168152602001908152602001600020819080600181540180825580915050906001820390600052602060002001600090919290919091505550505050565b6006602052816000526040600020602052806000526040600020600091509150505481565b600061232a828461318c90919063ffffffff16565b905060008160405160200180828152602001807f6c6f7750756e636800000000000000000000000000000000000000000000000081525060080191505060405160208183030381529060405280519060200120905060008260405160200180828152602001807f6c6f774b69636b0000000000000000000000000000000000000000000000000081525060070191505060405160208183030381529060405280519060200120905060008360405160200180828152602001807f6c6f775468756e64657200000000000000000000000000000000000000000000815250600a0191505060405160208183030381529060405280519060200120905060008460405160200180828152602001807f6861726450756e6368000000000000000000000000000000000000000000000081525060090191505060405160208183030381529060405280519060200120905060008560405160200180828152602001807f686172644b69636b00000000000000000000000000000000000000000000000081525060080191505060405160208183030381529060405280519060200120905060008660405160200180828152602001807f686172645468756e646572000000000000000000000000000000000000000000815250600b0191505060405160208183030381529060405280519060200120905060008760405160200180828152602001807f736c617368000000000000000000000000000000000000000000000000000000815250600501915050604051602081830303815290604052805190602001209050600260008c815260200190815260200160002060405180604001604052808981526020016040518060400160405280600881526020017f6c6f7750756e63680000000000000000000000000000000000000000000000008152508152509080600181540180825580915050906001820390600052602060002090600202016000909192909190915060008201518160000155602082015181600101908051906020019061261f9291906131e1565b50505050600260008c815260200190815260200160002060405180604001604052808881526020016040518060400160405280600781526020017f6c6f774b69636b00000000000000000000000000000000000000000000000000815250815250908060018154018082558091505090600182039060005260206000209060020201600090919290919091506000820151816000015560208201518160010190805190602001906126d19291906131e1565b50505050600260008c815260200190815260200160002060405180604001604052808781526020016040518060400160405280600a81526020017f6c6f775468756e64657200000000000000000000000000000000000000000000815250815250908060018154018082558091505090600182039060005260206000209060020201600090919290919091506000820151816000015560208201518160010190805190602001906127839291906131e1565b50505050600260008c815260200190815260200160002060405180604001604052808681526020016040518060400160405280600981526020017f6861726450756e63680000000000000000000000000000000000000000000000815250815250908060018154018082558091505090600182039060005260206000209060020201600090919290919091506000820151816000015560208201518160010190805190602001906128359291906131e1565b50505050600260008c815260200190815260200160002060405180604001604052808581526020016040518060400160405280600881526020017f686172644b69636b000000000000000000000000000000000000000000000000815250815250908060018154018082558091505090600182039060005260206000209060020201600090919290919091506000820151816000015560208201518160010190805190602001906128e79291906131e1565b50505050600260008c815260200190815260200160002060405180604001604052808481526020016040518060400160405280600b81526020017f686172645468756e646572000000000000000000000000000000000000000000815250815250908060018154018082558091505090600182039060005260206000209060020201600090919290919091506000820151816000015560208201518160010190805190602001906129999291906131e1565b50505050600260008c815260200190815260200160002060405180604001604052808381526020016040518060400160405280600581526020017f736c61736800000000000000000000000000000000000000000000000000000081525081525090806001815401808255809150509060018203906000526020600020906002020160009091929091909150600082015181600001556020820151816001019080519060200190612a4b9291906131e1565b505050508a7f3976b17a8e569af047875ed873c85d86496824421b9c29d2400e982c1254b37860405160405180910390a25050505050505050505050565b612a916131bf565b60006004600085815260200190815260200160002060008473ffffffffffffffffffffffffffffffffffffffff1673ffffffffffffffffffffffffffffffffffffffff168152602001908152602001600020600060078110612aef57fe5b0154905060006004600086815260200190815260200160002060008573ffffffffffffffffffffffffffffffffffffffff1673ffffffffffffffffffffffffffffffffffffffff168152602001908152602001600020600160078110612b5157fe5b0154905060006004600087815260200190815260200160002060008673ffffffffffffffffffffffffffffffffffffffff1673ffffffffffffffffffffffffffffffffffffffff168152602001908152602001600020600260078110612bb357fe5b0154905060006004600088815260200190815260200160002060008773ffffffffffffffffffffffffffffffffffffffff1673ffffffffffffffffffffffffffffffffffffffff168152602001908152602001600020600360078110612c1557fe5b0154905060006004600089815260200190815260200160002060008873ffffffffffffffffffffffffffffffffffffffff1673ffffffffffffffffffffffffffffffffffffffff168152602001908152602001600020600460078110612c7757fe5b015490506000600460008a815260200190815260200160002060008973ffffffffffffffffffffffffffffffffffffffff1673ffffffffffffffffffffffffffffffffffffffff168152602001908152602001600020600560078110612cd957fe5b015490506000600460008b815260200190815260200160002060008a73ffffffffffffffffffffffffffffffffffffffff1673ffffffffffffffffffffffffffffffffffffffff168152602001908152602001600020600660078110612d3b57fe5b015490508688600060078110612d4d57fe5b6020020181815250508588600160078110612d6457fe5b6020020181815250508488600260078110612d7b57fe5b6020020181815250508388600360078110612d9257fe5b6020020181815250508288600460078110612da957fe5b6020020181815250508188600560078110612dc057fe5b6020020181815250508088600660078110612dd757fe5b6020020181815250505050505050505092915050565b806007600085815260200190815260200160002060008473ffffffffffffffffffffffffffffffffffffffff1673ffffffffffffffffffffffffffffffffffffffff16815260200190815260200160002081905550505050565b600160009054906101000a900473ffffffffffffffffffffffffffffffffffffffff1681565b612e78838383612ded565b505050565b6000809054906101000a900473ffffffffffffffffffffffffffffffffffffffff1673ffffffffffffffffffffffffffffffffffffffff163373ffffffffffffffffffffffffffffffffffffffff1614612ed357fe5b600073ffffffffffffffffffffffffffffffffffffffff168173ffffffffffffffffffffffffffffffffffffffff1614612f4857806000806101000a81548173ffffffffffffffffffffffffffffffffffffffff021916908373ffffffffffffffffffffffffffffffffffffffff1602179055505b50565b6060600080600080612f5f8a898b896119f7565b809350819650829750505050600760008b815260200190815260200160002060008873ffffffffffffffffffffffffffffffffffffffff1673ffffffffffffffffffffffffffffffffffffffff1681526020019081526020016000205491506000612fca8b8a611751565b9050600083118015612fdc5750600381115b15612ff057612fed8b8b8b8b61186e565b92505b6000831415613009576130048b8a84610e40565b613041565b60008311801561301f575061301e8b89611292565b5b156130345761302f8b8a84611318565b613040565b61303f8b8a84610e40565b5b5b61304c8b8a42612217565b6130578b8a8c612271565b600760008c815260200190815260200160002060008a73ffffffffffffffffffffffffffffffffffffffff1673ffffffffffffffffffffffffffffffffffffffff1681526020019081526020016000205493508873ffffffffffffffffffffffffffffffffffffffff168b7f12d97ffa7e5fe111842d8ac49d1278dca75810f09aab79605c0eb3a8b248c0dc8c888a89896040518086815260200185815260200180602001848152602001838152602001828103825285818151815260200191508051906020019080838360005b83811015613140578082015181840152602081019050613125565b50505050905090810190601f16801561316d5780820380516001836020036101000a031916815260200191505b50965050505050505060405180910390a3505095509550955095915050565b60008082840190508381101561319e57fe5b8091505092915050565b6000828211156131b457fe5b818303905092915050565b6040518060e00160405280600790602082028038833980820191505090505090565b828054600181600116156101000203166002900490600052602060002090601f016020900481019282601f1061322257805160ff1916838001178555613250565b82800160010185558215613250579182015b8281111561324f578251825591602001919060010190613234565b5b50905061325d9190613261565b5090565b61328391905b8082111561327f576000816000905550600101613267565b5090565b9056fea265627a7a723058209bcf1b675eb4eba27dd7cf3884a7e0b7ba518d187bbbf1e364b05c10eede72db64736f6c634300050a0032",
  "source": "/**\n * @title Betting\n *\n * @author @kittieFIGHT @ola\n *\n */\n//modifier class (DSAuth )\n//Event class ( DSNote )\n//\n// This program is free software: you can redistribute it and/or modify\n// it under the terms of the GNU General Public License as published by\n// the Free Software Foundation, either version 3 of the License, or\n// (at your option) any later version.\n\n// This program is distributed in the hope that it will be useful,\n// but WITHOUT ANY WARRANTY; without even the implied warranty of\n// MERCHANTABILITY or FITNESS FOR A PARTICULAR PURPOSE.  See the\n// GNU General Public License for more details.\n\n// You should have received a copy of the GNU General Public License\n// along with this program.  If not, see <http://www.gnu.org/licenses/>.\npragma solidity ^0.5.5;\n\nimport \"../proxy/Proxied.sol\";\nimport \"../../authority/Guard.sol\";\nimport \"../../libs/SafeMath.sol\";\nimport \"./RarityCalculator.sol\";\n\n/**\n * @title This contract is responsible to carry out the betting module in a game\n * @author @ziweidream\n */\n\ncontract Betting is Proxied, Guard {\n    using SafeMath for uint256;\n\n    ///fight map for a game with a specific gameId\n     struct HitType {\n        bytes32 hash;\n        string attack;\n     }\n    mapping(uint256 => HitType[]) public fightMap;\n\n    /// total number of direct attacks of each hitType of the given corner in a game\n     mapping(uint256 => mapping(address => uint256[7])) public directAttacksScored;\n    /// total number of blocked attacks of each hitType of the given corner in a game\n    mapping(uint256 => mapping(address => uint256[7])) public blockedAttacksScored;\n    /// individual bets placed by the given corner in a game\n    mapping(uint256 => mapping(address => uint256[])) public bets;\n    /// timestamp of the last bet placed by the given corner in a game\n    mapping(uint256 => mapping(address => uint256)) public lastBetTimestamp;\n    /// current defense level of the given corner in a game\n    mapping(uint256 => mapping(address => uint256)) public defenseLevel;\n\n    // setFightMap() is internal. Temporarily set as public for truffle test purpose.\n    /**\n     * @author @ziweidream\n     * @notice set fight map for a game with a specific gameId\n     * @param _gameId the gameID of the game for which the fight map is generated\n     * @param _randomRed random number generated when the red corner presses Button start\n     * @param _randomBlack black number generated when the black corner presses Button start\n     */\n    function setFightMap(uint256 _gameId, uint256 _randomRed, uint256 _randomBlack)\n        public //temporarily set as public just for truffle test purpose\n        //internal\n    {\n        uint randomNum = _randomRed.add(_randomBlack);\n        bytes32 hashLowPunch = keccak256(abi.encodePacked(randomNum, \"lowPunch\"));\n        bytes32 hashLowKick = keccak256(abi.encodePacked(randomNum, \"lowKick\"));\n        bytes32 hashLowThunder = keccak256(abi.encodePacked(randomNum, \"lowThunder\"));\n        bytes32 hashHardPunch = keccak256(abi.encodePacked(randomNum, \"hardPunch\"));\n        bytes32 hashHardKick = keccak256(abi.encodePacked(randomNum, \"hardKick\"));\n        bytes32 hashHardThunder = keccak256(abi.encodePacked(randomNum, \"hardThunder\"));\n        bytes32 hashSlash = keccak256(abi.encodePacked(randomNum, \"slash\"));\n        fightMap[_gameId].push(HitType(hashLowPunch, \"lowPunch\"));\n        fightMap[_gameId].push(HitType(hashLowKick, \"lowKick\"));\n        fightMap[_gameId].push(HitType(hashLowThunder, \"lowThunder\"));\n        fightMap[_gameId].push(HitType(hashHardPunch, \"hardPunch\"));\n        fightMap[_gameId].push(HitType(hashHardKick, \"hardKick\"));\n        fightMap[_gameId].push(HitType(hashHardThunder, \"hardThunder\"));\n        fightMap[_gameId].push(HitType(hashSlash, \"slash\"));\n\n        emit FightMapGenerated(_gameId);\n    }\n\n    // setDirectAttacksScored() is internal. Temporarily set as public for truffle test purpose.\n    /**\n     * @author @ziweidream\n     * @notice record the total number of direct attacks of each hitType of the given corner in a game\n     * @param _gameId the gameID of the game\n     * @param _player the given corner in this game for whom the total number of the direct attacks are recorded\n     * @param index the index in the mapping directAttacksScored. The index is obtained in function getAttackType()\n     */\n    function setDirectAttacksScored(\n          uint256 _gameId,\n          address _player,\n          uint256 index\n          )\n          public //temporarily set as public just for truffle testing purpose\n          //internal\n          {\n            directAttacksScored[_gameId][_player][index] = directAttacksScored[_gameId][_player][index].add(1);\n          }\n\n    // setBlockedAttacksScored() is internal. Temporarily set as public for truffle test purpose.\n    /**\n     * @author @ziweidream\n     * @notice record the total number of blocked attacks of each hitType of the given corner in a game\n     * @param _gameId the gameID of the game\n     * @param _player the given corner in this game for whom the total number of the blocked attacks are recorded\n     * @param index the index in the mapping blockedAttacksScored. The index is obtained in function getAttackType()\n     */\n    function setBlockedAttacksScored(\n          uint256 _gameId,\n          address _player,\n          uint256 index\n          )\n          public // temporarily set as public just for truffle testing purpose\n          //internal\n          {\n            blockedAttacksScored[_gameId][_player][index] = blockedAttacksScored[_gameId][_player][index].add(1);\n          }\n\n    // get the total number of direct attacks of each hitType of the given corner in a game\n    /**\n     * @author @ziweidream\n     * @notice get the total number of direct attacks of each hitType of the given corner in a game\n     * @param _gameId the gameID of the game\n     * @param _player the given corner in this game for whom the total number of the direct attacks are obtained\n     * @return an array of fixed size 7 directAttacks, which contains the total number of direct attacks of each hitType\n     * of the given corner in this game\n     */\n    function getDirectAttacksScored(uint256 _gameId, address _player)\n        public\n        view\n        returns(\n            uint256[7] memory directAttacks\n            )\n        {\n            uint256 totalLowPunch = directAttacksScored[_gameId][_player][0];\n            uint256 totalLowKick = directAttacksScored[_gameId][_player][1];\n            uint256 totalLowThunder = directAttacksScored[_gameId][_player][2];\n            uint256 totalHardPunch = directAttacksScored[_gameId][_player][3];\n            uint256 totalHardKick = directAttacksScored[_gameId][_player][4];\n            uint256 totalHardThunder = directAttacksScored[_gameId][_player][5];\n            uint256 totalSlash = directAttacksScored[_gameId][_player][6];\n            directAttacks[0] = totalLowPunch;\n            directAttacks[1] = totalLowKick;\n            directAttacks[2] = totalLowThunder;\n            directAttacks[3] = totalHardPunch;\n            directAttacks[4] = totalHardKick;\n            directAttacks[5] = totalHardThunder;\n            directAttacks[6] = totalSlash;\n          }\n\n      // get the total number of blocked attacks of each hitType of the given corner in a game\n      /**\n       * @author @ziweidream\n       * @notice get the total number of blocked attacks of each hitType of the given corner in a game\n       * @param _gameId the gameID of the game\n       * @param _player the given corner in this game for whom the total number of the blocked attacks are obtained\n       * @return an array of fixed size 7 blockedAttacks, which contains the total number of blocked attacks of each hitType\n       * of the given corner in this game\n       */\n      function getBlockedAttacksScored(uint256 _gameId, address _player)\n          public\n          view\n          returns(\n              uint256[7] memory blockedAttacks\n              )\n          {\n              uint256 totalLowPunch = blockedAttacksScored[_gameId][_player][0];\n              uint256 totalLowKick = blockedAttacksScored[_gameId][_player][1];\n              uint256 totalLowThunder = blockedAttacksScored[_gameId][_player][2];\n              uint256 totalHardPunch = blockedAttacksScored[_gameId][_player][3];\n              uint256 totalHardKick = blockedAttacksScored[_gameId][_player][4];\n              uint256 totalHardThunder = blockedAttacksScored[_gameId][_player][5];\n              uint256 totalSlash = blockedAttacksScored[_gameId][_player][6];\n              blockedAttacks[0] = totalLowPunch;\n              blockedAttacks[1] = totalLowKick;\n              blockedAttacks[2] = totalLowThunder;\n              blockedAttacks[3] = totalHardPunch;\n              blockedAttacks[4] = totalHardKick;\n              blockedAttacks[5] = totalHardThunder;\n              blockedAttacks[6] = totalSlash;\n          }\n\n    // fillBets() is internal. Temporarily set as public for truffle test purpose.\n   /**\n    * @author @ziweidream\n    * @notice record the bet ether amount of each individual bet placed by the given corner\n    * in a game with a specific gameId\n    * @param _gameId the gameID of the game\n    * @param _player the given corner in this game for whom the individual bet ether amount is recorded\n    * @param _betAmount the ether amount of the bet placed by the given corner\n    */\n    function fillBets(uint256 _gameId, address _player, uint256 _betAmount)\n        public  // temporarily set as public just for truffle testing purpose\n        //internal\n    {\n      bets[_gameId][_player].push(_betAmount);\n    }\n\n   /**\n    * @author @ziweidream\n    * @notice get the number of total bets placed by the given corner in a game\n    * with a specific gameId\n    * @param _gameId the gameID of the game\n    * @param _player the given corner in this game whose individual bet ether amount is recorded\n    * @return the number of total bets placed by the given corner in a game\n    */\n    function getNumberOfBets(uint256 _gameId, address _player)\n       public\n       view\n       returns(uint256 num)\n    {\n        num = bets[_gameId][_player].length;\n    }\n\n    // get last 5 bet amount of the given corner\n   /**\n    * @author @ziweidream\n    * @notice get the ether amount of the last 5 bets placed by the given corner in a game\n    * with a specific gameId\n    * @dev lastBet1 is the last bet, lastBet2 is the second last bet, and so forth\n    * @param _gameId the gameID of the game\n    * @param _player the given corner in this game whose individual bet ether amount is recorded\n    * @return the last 5 bet ether amount by the given corner in a game\n    */\n    function getLastFourBets(uint256 _gameId, address _player)\n        public\n        view\n        returns(uint256 lastBet4, uint256 lastBet3, uint256 lastBet2, uint256 lastBet1)\n    {\n      uint256 arrLength = bets[_gameId][_player].length;\n      require(arrLength > 3);\n      lastBet4 = bets[_gameId][_player][arrLength.sub(4)];\n      lastBet3 = bets[_gameId][_player][arrLength.sub(3)];\n      lastBet2 = bets[_gameId][_player][arrLength.sub(2)];\n      lastBet1 = bets[_gameId][_player][arrLength.sub(1)];\n  }\n\n    // setLastBetTimestamp() is internal. Temporarily set as public for truffle test purpose.\n    /**\n    * @author @ziweidream\n    * @notice record the last bet timestamp for the given corner in a game with a specific gameId\n    * @param _gameId the gameID of the game\n    * @param _player the given corner in this game whose last bet timestamp is recorded\n    * @param _lastBetTimestamp the timestamp of the last bet placed by the given corner in the game\n    */\n    function setLastBetTimestamp(uint256 _gameId, address _player, uint256 _lastBetTimestamp)\n        public //temporarily set as public just for truffle testing purpose\n        //internal\n    {\n        lastBetTimestamp[_gameId][_player] = _lastBetTimestamp;\n    }\n\n   /**\n    * @author @ziweidream\n    * @notice record the current defense level of the given corner in a game with a specific gameId\n    * @param _gameId the gameID of the game\n    * @param _player the given corner in this game for whom the defense level is recorded\n    */\n    function setDefenseLevel(uint256 _gameId, address _player, uint _defense)\n        public   // temporarily set as public just for truffle testing purpose\n        //internal\n    {\n        defenseLevel[_gameId][_player] = _defense;\n    }\n\n    // temporarily comment out onlyContract(CONTRACT_NAME_GAMEMANAGER) until GameManager.sol is furhter defined/developed\n    /**\n    * @author @ziweidream\n    * @notice record the original defense level of the given corner in a game with a specific gameId\n    * @dev this function is only called by GameManager contract\n    * @param _gameId the gameID of the game\n    * @param _player the address of the given corner in this game for whom the defense level is recorded\n    * @param _originalDefenseLevel the original defense level of the given corner, which is calculated in\n    * the function startGame() in GameManager\n    */\n    function setOriginalDefenseLevel(uint256 _gameId, address _player, uint256 _originalDefenseLevel)\n        public\n        //onlyContract(CONTRACT_NAME_GAMEMANAGER)\n    {\n        setDefenseLevel(_gameId, _player, _originalDefenseLevel);\n    }\n\n   /**\n    * @author @ziweidream\n    * @notice randomly select attack types from low values column or high values column depending on\n    * the bet ether amount by the given corner in a game with a specific gameId\n    * @param _gameId the gameID of the game\n    * @param _supportedPlayer the given corner in this game for whom the attack type is randomly selected\n    * @param _lastBetAmount the last bet ether amount placed by the supported player in the game\n    * @param _randomNum the random number generated by the front end when Button bet is pressed by the given corner\n    * @return the attackType randomly selected for the given corner, the attackHash for the attackType selected,\n    * and the index of the attackHash returned in the fight map\n    */\n    function getAttackType(\n        uint256 _gameId,\n        address _supportedPlayer,\n        uint256 _lastBetAmount,\n        uint256 _randomNum)\n        public view\n        returns (\n            string memory attackType,\n            bytes32 attackHash,\n            uint256 index\n        ){\n        (,,,uint256 prevBetAmount) = getLastFourBets(_gameId, _supportedPlayer);\n        // lower ether than previous bet? one attack is chosen randomly from lowAttacksColumn\n        if (_lastBetAmount <= prevBetAmount) {\n            uint256 diceLowValues = randomGen(_randomNum);\n            if (diceLowValues <= 33) {\n                attackType = fightMap[_gameId][0].attack;\n                attackHash = fightMap[_gameId][0].hash;\n                index = 0;\n            } else if (diceLowValues <= 66 && diceLowValues > 33) {\n                attackType = fightMap[_gameId][1].attack;\n                attackHash = fightMap[_gameId][1].hash;\n                index = 1;\n            } else if (diceLowValues > 66) {\n                attackType = fightMap[_gameId][2].attack;\n                attackHash = fightMap[_gameId][2].hash;\n                index = 2;\n            }\n        } else if (_lastBetAmount > prevBetAmount) {\n             // higher ether than previous bet? one attack is chosen randomly from highAttacksColumn\n            uint256 diceHardValues = randomGen(_randomNum);\n            if (diceHardValues <= 25) {\n                attackType = fightMap[_gameId][3].attack;\n                attackHash = fightMap[_gameId][3].hash;\n                index = 3;\n            } else if (diceHardValues > 25 && diceHardValues <= 50) {\n                attackType = fightMap[_gameId][4].attack;\n                attackHash = fightMap[_gameId][4].hash;\n                index = 4;\n            } else if (diceHardValues > 50 && diceHardValues <= 75) {\n                attackType = fightMap[_gameId][5].attack;\n                attackHash = fightMap[_gameId][5].hash;\n                index = 5;\n            } else if (diceHardValues > 75) {\n                attackType = fightMap[_gameId][6].attack;\n                attackHash = fightMap[_gameId][6].hash;\n                index = 6;\n            }\n        }\n        return (attackType, attackHash, index);\n    }\n\n    // determine whether the attack type is blocked or direct\n    // if opponent's defence level = 0, all attacks are direct\n    // if opponent has been inactive for more than 5 seconds since last bet, attack is direct. Otherwise the attack is blocked.\n   /**\n    * @author @ziweidream\n    * @notice determine whether the attack type by the supported player is blocked or direct in a game with a specific gameId\n    * @param _gameId the gameID of the game\n    * @param _opponentPlayer the address of the opponent player in this game\n    * @return true if the attack type is blocked, false if it is direct\n    */\n    function isAttackBlocked(uint256 _gameId, address _opponentPlayer) public view returns(bool) {\n        uint256 _lastBetTimestamp = lastBetTimestamp[_gameId][_opponentPlayer];\n        // If opponent has been inactive for more than 5 seconds since last bet, attack is direct.\n        // Otherwise it is blocked.\n        if(_lastBetTimestamp >= now.sub(5)) {\n            return true;\n        }\n        return false;\n    }\n\n     // the defense level of an oppoent is reduced each time\n     // a bet is received from attacker and the last five bets are compared on the condition to see\n     // if each bet was bigger than the previous bet in progression.\n     // reduceDefenseLevel() is internal. Temporarily set as public for truffle test purpose.\n   /**\n    * @author @ziweidream\n    * @notice reduce the defense level of the opponent if each of the last 5 bets ether amount from\n    * the attacker was consecutively bigger than the previous one in a game with a specific gameId\n    * @param _gameId the gameID of the game\n    * @param _supportedPlayer the address of the supported player in this game\n    * whose last 5 bets ether amount are compared\n    * @param _opponentPlayer the address of the opponent player in this game\n    * whose defense level is reduced if contidions stated above are met\n    * @return the defense level of the opponent player in the game\n    */\n     function reduceDefenseLevel(\n        uint256 _gameId,\n        uint256 _lastBetAmount,\n        address _supportedPlayer,\n        address _opponentPlayer\n        )\n        public  // temporarily set as public just for truffle test purpose\n        //internal\n        returns (\n          uint256 defenseLevelOpponent\n        )\n        {\n        require(defenseLevel[_gameId][_opponentPlayer] > 0, \"Defense level is already zero\");\n        (uint256 lastBet4, uint256 lastBet3, uint256 lastBet2, uint256 lastBet1) = getLastFourBets(_gameId, _supportedPlayer);\n        if (_lastBetAmount > lastBet1 && lastBet1 > lastBet2 && lastBet2 > lastBet3 && lastBet3 > lastBet4) {\n            defenseLevelOpponent = defenseLevel[_gameId][_opponentPlayer].sub(1);\n            setDefenseLevel(_gameId, _opponentPlayer, defenseLevelOpponent);\n        }\n        return defenseLevelOpponent;\n    }\n\n    /**\n     * @author @ziweidream\n     * @notice generates a random number from 0 to 100 based on the last block hash, blocktime, block difficulty, and seed\n     * @return The random number generated\n     */\n    function randomGen(uint256 seed) public view returns (uint256 randomNumber) {\n        seed = seed.add(1);\n        randomNumber = uint256(keccak256(abi.encodePacked(blockhash(block.number.sub(1)), block.timestamp, block.difficulty, seed)))%100;\n    }\n\n    // temporarily comment out onlyContract(CONTRACT_NAME_GAMEMANAGER) \n   /**\n    * @author @ziweidream\n    * @notice generates a fight map for a game with a specific gameId, and calculates the original defense levels\n    * of both corners in this game\n    * @dev this function can only be called by the GameManager contract\n    * @param _gameId the gameID of the game\n    * @param _randomRed the random number generated when the Red corner presses the Button Bet\n    * @param _randomBlack the random number generated when the Black corner presses the Button Bet\n    */\n    function startGame(\n        uint256 _gameId,\n        uint256 _randomRed,\n        uint256 _randomBlack\n        )\n        public\n        //onlyContract(CONTRACT_NAME_GAMEMANAGER)\n    {\n        setFightMap(_gameId, _randomRed, _randomBlack);\n        emit GameStarted(_gameId);\n    }\n\n    // temporarily comment out onlyContract(CONTRACT_NAME_GAMEMANAGER)\n   /**\n    * @author @ziweidream\n    * @notice determines the attack type, attackHash, and current opponent defense level partially\n    * depending on the effect of each bet placed by the given corner in a game with a specific gameId\n    * @dev this function can only be called by the GameManager contract\n    * @param _gameId the gameID of the game\n    * @param _lastBetAmount the last bet ether amount placed by the supported player in the game\n    * @param _supportedPlayer the address of the supported player in the game\n    * @param _opponentPlayer the address of the opponent player in the game\n    * @param _randomNum the random number generated when the supported player presses Button Bet\n    * in the game\n    * @return the attack type and attackHash for the supported player,\n    * and current defense level of the supported and the opponent player\n    */\n    function bet(\n        uint256 _gameId,\n        uint256 _lastBetAmount,\n        address _supportedPlayer,\n        address _opponentPlayer,\n        uint256 _randomNum)\n        public\n        //onlyContract(CONTRACT_NAME_GAMEMANAGER)\n        returns (\n            string memory attackType,\n            bytes32 attackHash,\n            uint256 defenseLevelSupportedPlayer,\n            uint256 defenseLevelOpponent\n        )\n    {\n        uint256 index;\n\n        (attackType, attackHash, index) = getAttackType(_gameId, _supportedPlayer, _lastBetAmount, _randomNum);\n\n        defenseLevelOpponent = defenseLevel[_gameId][_opponentPlayer];\n\n        uint numberOfBets = getNumberOfBets(_gameId, _supportedPlayer);\n\n        if (defenseLevelOpponent > 0 && numberOfBets > 3) {\n           defenseLevelOpponent = reduceDefenseLevel(_gameId, _lastBetAmount, _supportedPlayer, _opponentPlayer);\n        }\n\n        if (defenseLevelOpponent == 0) {\n            setDirectAttacksScored(_gameId, _supportedPlayer, index);\n        } else if(defenseLevelOpponent > 0 && isAttackBlocked(_gameId, _opponentPlayer)) {\n            setBlockedAttacksScored(_gameId, _supportedPlayer, index);\n        } else {\n            setDirectAttacksScored(_gameId, _supportedPlayer, index);\n        }\n\n        setLastBetTimestamp(_gameId, _supportedPlayer, now);\n        fillBets(_gameId, _supportedPlayer, _lastBetAmount);\n\n        defenseLevelSupportedPlayer = defenseLevel[_gameId][_supportedPlayer];\n\n        emit BetPlaced(_gameId, _supportedPlayer, _lastBetAmount, attackHash, attackType, defenseLevelSupportedPlayer, defenseLevelOpponent);\n    }\n\n    event GameStarted(uint256 indexed _gameId);\n\n    event FightMapGenerated(uint256 indexed _gameId);\n\n    event BetPlaced(\n        uint256 indexed _gameId,\n        address indexed _supportedPlyer,\n        uint256 _lastBetAmount,\n        bytes32 attackHash,\n        string attackType,\n        uint256 defenseLevelSupportedPlayer,\n        uint256 defenseLevelOpponent);\n}\n",
  "sourcePath": "/home/ziwei/Documents/kittieFight-new/algorithm/alpha/contracts/modules/algorithm/Betting.sol",
  "compiler": {
    "name": "solc",
    "version": "0.5.10+commit.5a6ea5b1.Emscripten.clang"
  },
  "schemaVersion": "3.0.11",
  "updatedAt": "2019-08-03T21:08:52.055Z",
  "devdoc": {
    "author": "@ziweidream",
    "methods": {
      "bet(uint256,uint256,address,address,uint256)": {
        "author": "@ziweidream",
        "details": "this function can only be called by the GameManager contract",
        "params": {
          "_gameId": "the gameID of the game",
          "_lastBetAmount": "the last bet ether amount placed by the supported player in the game",
          "_opponentPlayer": "the address of the opponent player in the game",
          "_randomNum": "the random number generated when the supported player presses Button Bet in the game",
          "_supportedPlayer": "the address of the supported player in the game"
        },
        "return": "the attack type and attackHash for the supported player, and current defense level of the supported and the opponent player"
      },
      "fillBets(uint256,address,uint256)": {
        "author": "@ziweidream",
        "params": {
          "_betAmount": "the ether amount of the bet placed by the given corner",
          "_gameId": "the gameID of the game",
          "_player": "the given corner in this game for whom the individual bet ether amount is recorded"
        }
      },
      "getAttackType(uint256,address,uint256,uint256)": {
        "author": "@ziweidream",
        "params": {
          "_gameId": "the gameID of the game",
          "_lastBetAmount": "the last bet ether amount placed by the supported player in the game",
          "_randomNum": "the random number generated by the front end when Button bet is pressed by the given corner",
          "_supportedPlayer": "the given corner in this game for whom the attack type is randomly selected"
        },
        "return": "the attackType randomly selected for the given corner, the attackHash for the attackType selected, and the index of the attackHash returned in the fight map"
      },
      "getBlockedAttacksScored(uint256,address)": {
        "author": "@ziweidream",
        "params": {
          "_gameId": "the gameID of the game",
          "_player": "the given corner in this game for whom the total number of the blocked attacks are obtained"
        },
        "return": "an array of fixed size 7 blockedAttacks, which contains the total number of blocked attacks of each hitType of the given corner in this game"
      },
      "getDirectAttacksScored(uint256,address)": {
        "author": "@ziweidream",
        "params": {
          "_gameId": "the gameID of the game",
          "_player": "the given corner in this game for whom the total number of the direct attacks are obtained"
        },
        "return": "an array of fixed size 7 directAttacks, which contains the total number of direct attacks of each hitType of the given corner in this game"
      },
      "getLastFourBets(uint256,address)": {
        "author": "@ziweidream",
        "details": "lastBet1 is the last bet, lastBet2 is the second last bet, and so forth",
        "params": {
          "_gameId": "the gameID of the game",
          "_player": "the given corner in this game whose individual bet ether amount is recorded"
        },
        "return": "the last 5 bet ether amount by the given corner in a game"
      },
      "getNumberOfBets(uint256,address)": {
        "author": "@ziweidream",
        "params": {
          "_gameId": "the gameID of the game",
          "_player": "the given corner in this game whose individual bet ether amount is recorded"
        },
        "return": "the number of total bets placed by the given corner in a game"
      },
      "isAttackBlocked(uint256,address)": {
        "author": "@ziweidream",
        "params": {
          "_gameId": "the gameID of the game",
          "_opponentPlayer": "the address of the opponent player in this game"
        },
        "return": "true if the attack type is blocked, false if it is direct"
      },
      "randomGen(uint256)": {
        "author": "@ziweidream",
        "return": "The random number generated"
      },
      "reduceDefenseLevel(uint256,uint256,address,address)": {
        "author": "@ziweidream",
        "params": {
          "_gameId": "the gameID of the game",
          "_opponentPlayer": "the address of the opponent player in this game whose defense level is reduced if contidions stated above are met",
          "_supportedPlayer": "the address of the supported player in this game whose last 5 bets ether amount are compared"
        },
        "return": "the defense level of the opponent player in the game"
      },
      "setBlockedAttacksScored(uint256,address,uint256)": {
        "author": "@ziweidream",
        "params": {
          "_gameId": "the gameID of the game",
          "_player": "the given corner in this game for whom the total number of the blocked attacks are recorded",
          "index": "the index in the mapping blockedAttacksScored. The index is obtained in function getAttackType()"
        }
      },
      "setDefenseLevel(uint256,address,uint256)": {
        "author": "@ziweidream",
        "params": {
          "_gameId": "the gameID of the game",
          "_player": "the given corner in this game for whom the defense level is recorded"
        }
      },
      "setDirectAttacksScored(uint256,address,uint256)": {
        "author": "@ziweidream",
        "params": {
          "_gameId": "the gameID of the game",
          "_player": "the given corner in this game for whom the total number of the direct attacks are recorded",
          "index": "the index in the mapping directAttacksScored. The index is obtained in function getAttackType()"
        }
      },
      "setFightMap(uint256,uint256,uint256)": {
        "author": "@ziweidream",
        "params": {
          "_gameId": "the gameID of the game for which the fight map is generated",
          "_randomBlack": "black number generated when the black corner presses Button start",
          "_randomRed": "random number generated when the red corner presses Button start"
        }
      },
      "setLastBetTimestamp(uint256,address,uint256)": {
        "author": "@ziweidream",
        "params": {
          "_gameId": "the gameID of the game",
          "_lastBetTimestamp": "the timestamp of the last bet placed by the given corner in the game",
          "_player": "the given corner in this game whose last bet timestamp is recorded"
        }
      },
      "setOriginalDefenseLevel(uint256,address,uint256)": {
        "author": "@ziweidream",
        "details": "this function is only called by GameManager contract",
        "params": {
          "_gameId": "the gameID of the game",
          "_originalDefenseLevel": "the original defense level of the given corner, which is calculated in the function startGame() in GameManager",
          "_player": "the address of the given corner in this game for whom the defense level is recorded"
        }
      },
      "startGame(uint256,uint256,uint256)": {
        "author": "@ziweidream",
        "details": "this function can only be called by the GameManager contract",
        "params": {
          "_gameId": "the gameID of the game",
          "_randomBlack": "the random number generated when the Black corner presses the Button Bet",
          "_randomRed": "the random number generated when the Red corner presses the Button Bet"
        }
      }
    },
    "title": "This contract is responsible to carry out the betting module in a game"
  },
  "userdoc": {
    "methods": {
      "bet(uint256,uint256,address,address,uint256)": {
        "notice": "determines the attack type, attackHash, and current opponent defense level partially depending on the effect of each bet placed by the given corner in a game with a specific gameId"
      },
      "fillBets(uint256,address,uint256)": {
        "notice": "record the bet ether amount of each individual bet placed by the given corner in a game with a specific gameId"
      },
      "getAttackType(uint256,address,uint256,uint256)": {
        "notice": "randomly select attack types from low values column or high values column depending on the bet ether amount by the given corner in a game with a specific gameId"
      },
      "getBlockedAttacksScored(uint256,address)": {
        "notice": "get the total number of blocked attacks of each hitType of the given corner in a game"
      },
      "getDirectAttacksScored(uint256,address)": {
        "notice": "get the total number of direct attacks of each hitType of the given corner in a game"
      },
      "getLastFourBets(uint256,address)": {
        "notice": "get the ether amount of the last 5 bets placed by the given corner in a game with a specific gameId"
      },
      "getNumberOfBets(uint256,address)": {
        "notice": "get the number of total bets placed by the given corner in a game with a specific gameId"
      },
      "isAttackBlocked(uint256,address)": {
        "notice": "determine whether the attack type by the supported player is blocked or direct in a game with a specific gameId"
      },
      "randomGen(uint256)": {
        "notice": "generates a random number from 0 to 100 based on the last block hash, blocktime, block difficulty, and seed"
      },
      "reduceDefenseLevel(uint256,uint256,address,address)": {
        "notice": "reduce the defense level of the opponent if each of the last 5 bets ether amount from the attacker was consecutively bigger than the previous one in a game with a specific gameId"
      },
      "setBlockedAttacksScored(uint256,address,uint256)": {
        "notice": "record the total number of blocked attacks of each hitType of the given corner in a game"
      },
      "setDefenseLevel(uint256,address,uint256)": {
        "notice": "record the current defense level of the given corner in a game with a specific gameId"
      },
      "setDirectAttacksScored(uint256,address,uint256)": {
        "notice": "record the total number of direct attacks of each hitType of the given corner in a game"
      },
      "setFightMap(uint256,uint256,uint256)": {
        "notice": "set fight map for a game with a specific gameId"
      },
      "setLastBetTimestamp(uint256,address,uint256)": {
        "notice": "record the last bet timestamp for the given corner in a game with a specific gameId"
      },
      "setOriginalDefenseLevel(uint256,address,uint256)": {
        "notice": "record the original defense level of the given corner in a game with a specific gameId"
      },
      "setProxy(address)": {
        "notice": "Set/update address of Proxy contract"
      },
      "startGame(uint256,uint256,uint256)": {
        "notice": "generates a fight map for a game with a specific gameId, and calculates the original defense levels of both corners in this game"
      }
    }
  }
}