{
  "contractName": "Betting",
  "abi": [
    {
      "anonymous": false,
      "inputs": [
        {
          "indexed": true,
          "internalType": "uint256",
          "name": "_gameId",
          "type": "uint256"
        },
        {
          "indexed": true,
          "internalType": "address",
          "name": "_bettor",
          "type": "address"
        },
        {
          "indexed": false,
          "internalType": "uint256",
          "name": "_lastBetAmount",
          "type": "uint256"
        },
        {
          "indexed": true,
          "internalType": "address",
          "name": "_supportedPlyer",
          "type": "address"
        },
        {
          "indexed": false,
          "internalType": "bytes32",
          "name": "attackHash",
          "type": "bytes32"
        },
        {
          "indexed": false,
          "internalType": "bool",
          "name": "isBlocked",
          "type": "bool"
        },
        {
          "indexed": false,
          "internalType": "uint256",
          "name": "defenseLevelSupportedPlayer",
          "type": "uint256"
        },
        {
          "indexed": false,
          "internalType": "uint256",
          "name": "defenseLevelOpponent",
          "type": "uint256"
        }
      ],
      "name": "BetPlaced",
      "type": "event"
    },
    {
      "anonymous": false,
      "inputs": [
        {
          "indexed": true,
          "internalType": "uint256",
          "name": "_gameId",
          "type": "uint256"
        }
      ],
      "name": "FightMapGenerated",
      "type": "event"
    },
    {
      "anonymous": false,
      "inputs": [
        {
          "indexed": true,
          "internalType": "uint256",
          "name": "_gameId",
          "type": "uint256"
        }
      ],
      "name": "GameStarted",
      "type": "event"
    },
    {
      "constant": true,
      "inputs": [
        {
          "internalType": "uint256",
          "name": "",
          "type": "uint256"
        },
        {
          "internalType": "address",
          "name": "",
          "type": "address"
        },
        {
          "internalType": "uint256",
          "name": "",
          "type": "uint256"
        }
      ],
      "name": "bets",
      "outputs": [
        {
          "internalType": "uint256",
          "name": "",
          "type": "uint256"
        }
      ],
      "payable": false,
      "stateMutability": "view",
      "type": "function"
    },
    {
      "constant": true,
      "inputs": [
        {
          "internalType": "uint256",
          "name": "",
          "type": "uint256"
        },
        {
          "internalType": "address",
          "name": "",
          "type": "address"
        },
        {
          "internalType": "uint256",
          "name": "",
          "type": "uint256"
        }
      ],
      "name": "blockedAttacksScored",
      "outputs": [
        {
          "internalType": "uint256",
          "name": "",
          "type": "uint256"
        }
      ],
      "payable": false,
      "stateMutability": "view",
      "type": "function"
    },
    {
      "constant": true,
      "inputs": [
        {
          "internalType": "uint256",
          "name": "",
          "type": "uint256"
        },
        {
          "internalType": "address",
          "name": "",
          "type": "address"
        }
      ],
      "name": "defenseLevel",
      "outputs": [
        {
          "internalType": "uint256",
          "name": "",
          "type": "uint256"
        }
      ],
      "payable": false,
      "stateMutability": "view",
      "type": "function"
    },
    {
      "constant": true,
      "inputs": [
        {
          "internalType": "uint256",
          "name": "",
          "type": "uint256"
        },
        {
          "internalType": "address",
          "name": "",
          "type": "address"
        },
        {
          "internalType": "uint256",
          "name": "",
          "type": "uint256"
        }
      ],
      "name": "directAttacksScored",
      "outputs": [
        {
          "internalType": "uint256",
          "name": "",
          "type": "uint256"
        }
      ],
      "payable": false,
      "stateMutability": "view",
      "type": "function"
    },
    {
      "constant": true,
      "inputs": [
        {
          "internalType": "uint256",
          "name": "",
          "type": "uint256"
        },
        {
          "internalType": "uint256",
          "name": "",
          "type": "uint256"
        }
      ],
      "name": "fightMap",
      "outputs": [
        {
          "internalType": "bytes32",
          "name": "hash",
          "type": "bytes32"
        },
        {
          "internalType": "string",
          "name": "attack",
          "type": "string"
        }
      ],
      "payable": false,
      "stateMutability": "view",
      "type": "function"
    },
    {
      "constant": true,
      "inputs": [
        {
          "internalType": "uint256",
          "name": "",
          "type": "uint256"
        },
        {
          "internalType": "address",
          "name": "",
          "type": "address"
        }
      ],
      "name": "lastBetTimestamp",
      "outputs": [
        {
          "internalType": "uint256",
          "name": "",
          "type": "uint256"
        }
      ],
      "payable": false,
      "stateMutability": "view",
      "type": "function"
    },
    {
      "constant": true,
      "inputs": [],
      "name": "owner",
      "outputs": [
        {
          "internalType": "address payable",
          "name": "",
          "type": "address"
        }
      ],
      "payable": false,
      "stateMutability": "view",
      "type": "function"
    },
    {
      "constant": true,
      "inputs": [],
      "name": "proxy",
      "outputs": [
        {
          "internalType": "contract ProxyBase",
          "name": "",
          "type": "address"
        }
      ],
      "payable": false,
      "stateMutability": "view",
      "type": "function"
    },
    {
      "constant": false,
      "inputs": [
        {
          "internalType": "contract ProxyBase",
          "name": "_proxy",
          "type": "address"
        }
      ],
      "name": "setProxy",
      "outputs": [],
      "payable": false,
      "stateMutability": "nonpayable",
      "type": "function"
    },
    {
      "constant": false,
      "inputs": [
        {
          "internalType": "address payable",
          "name": "newOwner",
          "type": "address"
        }
      ],
      "name": "transferOwnership",
      "outputs": [],
      "payable": false,
      "stateMutability": "nonpayable",
      "type": "function"
    },
    {
      "constant": true,
      "inputs": [
        {
          "internalType": "uint256",
          "name": "_gameId",
          "type": "uint256"
        },
        {
          "internalType": "address",
          "name": "_player",
          "type": "address"
        }
      ],
      "name": "getDirectAttacksScored",
      "outputs": [
        {
          "internalType": "uint256[7]",
          "name": "directAttacks",
          "type": "uint256[7]"
        }
      ],
      "payable": false,
      "stateMutability": "view",
      "type": "function"
    },
    {
      "constant": true,
      "inputs": [
        {
          "internalType": "uint256",
          "name": "_gameId",
          "type": "uint256"
        },
        {
          "internalType": "address",
          "name": "_player",
          "type": "address"
        }
      ],
      "name": "getBlockedAttacksScored",
      "outputs": [
        {
          "internalType": "uint256[7]",
          "name": "blockedAttacks",
          "type": "uint256[7]"
        }
      ],
      "payable": false,
      "stateMutability": "view",
      "type": "function"
    },
    {
      "constant": true,
      "inputs": [
        {
          "internalType": "uint256",
          "name": "_gameId",
          "type": "uint256"
        },
        {
          "internalType": "address",
          "name": "_player",
          "type": "address"
        }
      ],
      "name": "getNumberOfBets",
      "outputs": [
        {
          "internalType": "uint256",
          "name": "num",
          "type": "uint256"
        }
      ],
      "payable": false,
      "stateMutability": "view",
      "type": "function"
    },
    {
      "constant": true,
      "inputs": [
        {
          "internalType": "uint256",
          "name": "_gameId",
          "type": "uint256"
        },
        {
          "internalType": "address",
          "name": "_player",
          "type": "address"
        }
      ],
      "name": "getLastFourBets",
      "outputs": [
        {
          "internalType": "uint256",
          "name": "lastBet4",
          "type": "uint256"
        },
        {
          "internalType": "uint256",
          "name": "lastBet3",
          "type": "uint256"
        },
        {
          "internalType": "uint256",
          "name": "lastBet2",
          "type": "uint256"
        },
        {
          "internalType": "uint256",
          "name": "lastBet1",
          "type": "uint256"
        }
      ],
      "payable": false,
      "stateMutability": "view",
      "type": "function"
    },
    {
      "constant": true,
      "inputs": [
        {
          "internalType": "uint256",
          "name": "_gameId",
          "type": "uint256"
        },
        {
          "internalType": "address",
          "name": "_player",
          "type": "address"
        }
      ],
      "name": "getLastBet",
      "outputs": [
        {
          "internalType": "uint256",
          "name": "lastBet",
          "type": "uint256"
        }
      ],
      "payable": false,
      "stateMutability": "view",
      "type": "function"
    },
    {
      "constant": false,
      "inputs": [
        {
          "internalType": "uint256",
          "name": "_gameId",
          "type": "uint256"
        },
        {
          "internalType": "address",
          "name": "_player",
          "type": "address"
        },
        {
          "internalType": "uint256",
          "name": "_originalDefenseLevel",
          "type": "uint256"
        }
      ],
      "name": "setOriginalDefenseLevel",
      "outputs": [],
      "payable": false,
      "stateMutability": "nonpayable",
      "type": "function"
    },
    {
      "constant": true,
      "inputs": [
        {
          "internalType": "uint256",
          "name": "_gameId",
          "type": "uint256"
        },
        {
          "internalType": "address",
          "name": "_supportedPlayer",
          "type": "address"
        },
        {
          "internalType": "uint256",
          "name": "_lastBetAmount",
          "type": "uint256"
        },
        {
          "internalType": "uint256",
          "name": "_randomNum",
          "type": "uint256"
        }
      ],
      "name": "getAttackType",
      "outputs": [
        {
          "internalType": "string",
          "name": "attackType",
          "type": "string"
        },
        {
          "internalType": "bytes32",
          "name": "attackHash",
          "type": "bytes32"
        },
        {
          "internalType": "uint256",
          "name": "index",
          "type": "uint256"
        }
      ],
      "payable": false,
      "stateMutability": "view",
      "type": "function"
    },
    {
      "constant": true,
      "inputs": [
        {
          "internalType": "uint256",
          "name": "_gameId",
          "type": "uint256"
        },
        {
          "internalType": "address",
          "name": "_opponentPlayer",
          "type": "address"
        }
      ],
      "name": "isAttackBlocked",
      "outputs": [
        {
          "internalType": "bool",
          "name": "",
          "type": "bool"
        }
      ],
      "payable": false,
      "stateMutability": "view",
      "type": "function"
    },
    {
      "constant": true,
      "inputs": [
        {
          "internalType": "uint256",
          "name": "seed",
          "type": "uint256"
        }
      ],
      "name": "randomGen",
      "outputs": [
        {
          "internalType": "uint256",
          "name": "randomNumber",
          "type": "uint256"
        }
      ],
      "payable": false,
      "stateMutability": "view",
      "type": "function"
    },
    {
      "constant": false,
      "inputs": [
        {
          "internalType": "uint256",
          "name": "_gameId",
          "type": "uint256"
        },
        {
          "internalType": "uint256",
          "name": "_randomRed",
          "type": "uint256"
        },
        {
          "internalType": "uint256",
          "name": "_randomBlack",
          "type": "uint256"
        }
      ],
      "name": "startGame",
      "outputs": [],
      "payable": false,
      "stateMutability": "nonpayable",
      "type": "function"
    },
    {
      "constant": false,
      "inputs": [
        {
          "internalType": "uint256",
          "name": "_gameId",
          "type": "uint256"
        },
        {
          "internalType": "address",
          "name": "_bettor",
          "type": "address"
        },
        {
          "internalType": "uint256",
          "name": "_lastBetAmount",
          "type": "uint256"
        },
        {
          "internalType": "address",
          "name": "_supportedPlayer",
          "type": "address"
        },
        {
          "internalType": "address",
          "name": "_opponentPlayer",
          "type": "address"
        },
        {
          "internalType": "uint256",
          "name": "_randomNum",
          "type": "uint256"
        }
      ],
      "name": "bet",
      "outputs": [],
      "payable": false,
      "stateMutability": "nonpayable",
      "type": "function"
    }
  ],
  "bytecode": "0x6080604052336000806101000a81548173ffffffffffffffffffffffffffffffffffffffff021916908373ffffffffffffffffffffffffffffffffffffffff1602179055506134eb806100536000396000f3fe608060405234801561001057600080fd5b50600436106101375760003560e01c80638c9f39b5116100b8578063c04768d01161007c578063c04768d0146107f6578063cbd1a91614610862578063dce2d9b4146108c4578063ec5568891461094e578063ed1d740614610998578063f2fde38b146109f057610137565b80638c9f39b5146105bb5780638da5cb5b1461061d578063945c34131461066757806397107d6d146106c9578063a9c015c11461070d57610137565b8063434b14e7116100ff578063434b14e71461037057806348c52d55146103b2578063592ba06b146104295780636a95b5b0146104cb578063851c45371461053157610137565b806303e78b311461013c5780631363bb26146101f45780632579f942146102605780632c31d085146102c2578063308eba9714610304575b600080fd5b6101726004803603604081101561015257600080fd5b810190808035906020019092919080359060200190929190505050610a34565b6040518083815260200180602001828103825283818151815260200191508051906020019080838360005b838110156101b857808201518184015260208101905061019d565b50505050905090810190601f1680156101e55780820380516001836020036101000a031916815260200191505b50935050505060405180910390f35b61024a6004803603606081101561020a57600080fd5b8101908080359060200190929190803573ffffffffffffffffffffffffffffffffffffffff16906020019092919080359060200190929190505050610b0a565b6040518082815260200191505060405180910390f35b6102ac6004803603604081101561027657600080fd5b8101908080359060200190929190803573ffffffffffffffffffffffffffffffffffffffff169060200190929190505050610b3c565b6040518082815260200191505060405180910390f35b610302600480360360608110156102d857600080fd5b81019080803590602001909291908035906020019092919080359060200190929190505050610b61565b005b61035a6004803603606081101561031a57600080fd5b8101908080359060200190929190803573ffffffffffffffffffffffffffffffffffffffff16906020019092919080359060200190929190505050610c33565b6040518082815260200191505060405180910390f35b61039c6004803603602081101561038657600080fd5b8101908080359060200190929190505050610c6e565b6040518082815260200191505060405180910390f35b6103fe600480360360408110156103c857600080fd5b8101908080359060200190929190803573ffffffffffffffffffffffffffffffffffffffff169060200190929190505050610ced565b6040518085815260200184815260200183815260200182815260200194505050505060405180910390f35b6104c9600480360360c081101561043f57600080fd5b8101908080359060200190929190803573ffffffffffffffffffffffffffffffffffffffff16906020019092919080359060200190929190803573ffffffffffffffffffffffffffffffffffffffff169060200190929190803573ffffffffffffffffffffffffffffffffffffffff16906020019092919080359060200190929190505050610f4e565b005b610517600480360360408110156104e157600080fd5b8101908080359060200190929190803573ffffffffffffffffffffffffffffffffffffffff169060200190929190505050611239565b604051808215151515815260200191505060405180910390f35b61057d6004803603604081101561054757600080fd5b8101908080359060200190929190803573ffffffffffffffffffffffffffffffffffffffff1690602001909291905050506112bf565b6040518082600760200280838360005b838110156105a857808201518184015260208101905061058d565b5050505090500191505060405180910390f35b610607600480360360408110156105d157600080fd5b8101908080359060200190929190803573ffffffffffffffffffffffffffffffffffffffff169060200190929190505050611623565b6040518082815260200191505060405180910390f35b610625611681565b604051808273ffffffffffffffffffffffffffffffffffffffff1673ffffffffffffffffffffffffffffffffffffffff16815260200191505060405180910390f35b6106b36004803603604081101561067d57600080fd5b8101908080359060200190929190803573ffffffffffffffffffffffffffffffffffffffff1690602001909291905050506116a6565b6040518082815260200191505060405180910390f35b61070b600480360360208110156106df57600080fd5b81019080803573ffffffffffffffffffffffffffffffffffffffff169060200190929190505050611794565b005b61076d6004803603608081101561072357600080fd5b8101908080359060200190929190803573ffffffffffffffffffffffffffffffffffffffff169060200190929190803590602001909291908035906020019092919050505061182e565b6040518080602001848152602001838152602001828103825285818151815260200191508051906020019080838360005b838110156107b957808201518184015260208101905061079e565b50505050905090810190601f1680156107e65780820380516001836020036101000a031916815260200191505b5094505050505060405180910390f35b61084c6004803603606081101561080c57600080fd5b8101908080359060200190929190803573ffffffffffffffffffffffffffffffffffffffff16906020019092919080359060200190929190505050612019565b6040518082815260200191505060405180910390f35b6108ae6004803603604081101561087857600080fd5b8101908080359060200190929190803573ffffffffffffffffffffffffffffffffffffffff16906020019092919050505061204b565b6040518082815260200191505060405180910390f35b610910600480360360408110156108da57600080fd5b8101908080359060200190929190803573ffffffffffffffffffffffffffffffffffffffff169060200190929190505050612070565b6040518082600760200280838360005b8381101561093b578082015181840152602081019050610920565b5050505090500191505060405180910390f35b6109566123d4565b604051808273ffffffffffffffffffffffffffffffffffffffff1673ffffffffffffffffffffffffffffffffffffffff16815260200191505060405180910390f35b6109ee600480360360608110156109ae57600080fd5b8101908080359060200190929190803573ffffffffffffffffffffffffffffffffffffffff169060200190929190803590602001909291905050506123fa565b005b610a3260048036036020811015610a0657600080fd5b81019080803573ffffffffffffffffffffffffffffffffffffffff16906020019092919050505061249f565b005b60026020528160005260406000208181548110610a4d57fe5b906000526020600020906002020160009150915050806000015490806001018054600181600116156101000203166002900480601f016020809104026020016040519081016040528092919081815260200182805460018160011615610100020316600290048015610b005780601f10610ad557610100808354040283529160200191610b00565b820191906000526020600020905b815481529060010190602001808311610ae357829003601f168201915b5050505050905082565b60046020528260005260406000206020528160005260406000208160078110610b2f57fe5b0160009250925050505481565b6007602052816000526040600020602052806000526040600020600091509150505481565b6040518060400160405280600b81526020017f47616d654d616e61676572000000000000000000000000000000000000000000815250610ba08161256d565b610bf5576040517f08c379a000000000000000000000000000000000000000000000000000000000815260040180806020018281038252602d81526020018061348a602d913960400191505060405180910390fd5b610c008484846127b8565b837f50ad08f58a27f2851d7e3a1b3a6a46b290f2ce677e99642d30ff639721e7779060405160405180910390a250505050565b60056020528260005260406000206020528160005260406000208181548110610c5857fe5b9060005260206000200160009250925050505481565b6000610c84600183612f2c90919063ffffffff16565b91506064610c9c600143612f4890919063ffffffff16565b40424485604051602001808581526020018481526020018381526020018281526020019450505050506040516020818303038152906040528051906020012060001c81610ce557fe5b069050919050565b60008060008060006005600088815260200190815260200160002060008773ffffffffffffffffffffffffffffffffffffffff1673ffffffffffffffffffffffffffffffffffffffff16815260200190815260200160002080549050905060038111610d5857600080fd5b6005600088815260200190815260200160002060008773ffffffffffffffffffffffffffffffffffffffff1673ffffffffffffffffffffffffffffffffffffffff168152602001908152602001600020610dbc600483612f4890919063ffffffff16565b81548110610dc657fe5b906000526020600020015494506005600088815260200190815260200160002060008773ffffffffffffffffffffffffffffffffffffffff1673ffffffffffffffffffffffffffffffffffffffff168152602001908152602001600020610e37600383612f4890919063ffffffff16565b81548110610e4157fe5b906000526020600020015493506005600088815260200190815260200160002060008773ffffffffffffffffffffffffffffffffffffffff1673ffffffffffffffffffffffffffffffffffffffff168152602001908152602001600020610eb2600283612f4890919063ffffffff16565b81548110610ebc57fe5b906000526020600020015492506005600088815260200190815260200160002060008773ffffffffffffffffffffffffffffffffffffffff1673ffffffffffffffffffffffffffffffffffffffff168152602001908152602001600020610f2d600183612f4890919063ffffffff16565b81548110610f3757fe5b906000526020600020015491505092959194509250565b6040518060400160405280600b81526020017f47616d654d616e61676572000000000000000000000000000000000000000000815250610f8d8161256d565b610fe2576040517f08c379a000000000000000000000000000000000000000000000000000000000815260040180806020018281038252602d81526020018061348a602d913960400191505060405180910390fd5b6060600080600080600080610ff98e8c8e8c61182e565b809750819850829950505050600760008f815260200190815260200160002060008b73ffffffffffffffffffffffffffffffffffffffff1673ffffffffffffffffffffffffffffffffffffffff1681526020019081526020016000205492506110628e8c611623565b91506000831180156110745750600382115b15611086576110858e8d8d8d612f5f565b5b60008314156110a3576000905061109e8e8c876130e5565b6110e3565b6000831180156110b957506110b88e8b611239565b5b156110d257600190506110cd8e8c876131ba565b6110e2565b600090506110e18e8c876130e5565b5b5b6110ee8e8c4261328f565b6110f98e8c8e6132e9565b600760008f815260200190815260200160002060008c73ffffffffffffffffffffffffffffffffffffffff1673ffffffffffffffffffffffffffffffffffffffff168152602001908152602001600020549350600760008f815260200190815260200160002060008b73ffffffffffffffffffffffffffffffffffffffff1673ffffffffffffffffffffffffffffffffffffffff1681526020019081526020016000205492508a73ffffffffffffffffffffffffffffffffffffffff168d73ffffffffffffffffffffffffffffffffffffffff168f7f547013095835a95f4f37fe5316801ecb45dae17da071b6c264c029a3dbfdda3e8f8a868a8a60405180868152602001858152602001841515151581526020018381526020018281526020019550505050505060405180910390a45050505050505050505050505050565b6000806006600085815260200190815260200160002060008473ffffffffffffffffffffffffffffffffffffffff1673ffffffffffffffffffffffffffffffffffffffff1681526020019081526020016000205490506112a3600542612f4890919063ffffffff16565b81106112b35760019150506112b9565b60009150505b92915050565b6112c76133c2565b60006003600085815260200190815260200160002060008473ffffffffffffffffffffffffffffffffffffffff1673ffffffffffffffffffffffffffffffffffffffff16815260200190815260200160002060006007811061132557fe5b0154905060006003600086815260200190815260200160002060008573ffffffffffffffffffffffffffffffffffffffff1673ffffffffffffffffffffffffffffffffffffffff16815260200190815260200160002060016007811061138757fe5b0154905060006003600087815260200190815260200160002060008673ffffffffffffffffffffffffffffffffffffffff1673ffffffffffffffffffffffffffffffffffffffff1681526020019081526020016000206002600781106113e957fe5b0154905060006003600088815260200190815260200160002060008773ffffffffffffffffffffffffffffffffffffffff1673ffffffffffffffffffffffffffffffffffffffff16815260200190815260200160002060036007811061144b57fe5b0154905060006003600089815260200190815260200160002060008873ffffffffffffffffffffffffffffffffffffffff1673ffffffffffffffffffffffffffffffffffffffff1681526020019081526020016000206004600781106114ad57fe5b015490506000600360008a815260200190815260200160002060008973ffffffffffffffffffffffffffffffffffffffff1673ffffffffffffffffffffffffffffffffffffffff16815260200190815260200160002060056007811061150f57fe5b015490506000600360008b815260200190815260200160002060008a73ffffffffffffffffffffffffffffffffffffffff1673ffffffffffffffffffffffffffffffffffffffff16815260200190815260200160002060066007811061157157fe5b01549050868860006007811061158357fe5b602002018181525050858860016007811061159a57fe5b60200201818152505084886002600781106115b157fe5b60200201818152505083886003600781106115c857fe5b60200201818152505082886004600781106115df57fe5b60200201818152505081886005600781106115f657fe5b602002018181525050808860066007811061160d57fe5b6020020181815250505050505050505092915050565b60006005600084815260200190815260200160002060008373ffffffffffffffffffffffffffffffffffffffff1673ffffffffffffffffffffffffffffffffffffffff16815260200190815260200160002080549050905092915050565b6000809054906101000a900473ffffffffffffffffffffffffffffffffffffffff1681565b6000806005600085815260200190815260200160002060008473ffffffffffffffffffffffffffffffffffffffff1673ffffffffffffffffffffffffffffffffffffffff1681526020019081526020016000208054905090506000811415611711576000915061178d565b6005600085815260200190815260200160002060008473ffffffffffffffffffffffffffffffffffffffff1673ffffffffffffffffffffffffffffffffffffffff168152602001908152602001600020611775600183612f4890919063ffffffff16565b8154811061177f57fe5b906000526020600020015491505b5092915050565b6000809054906101000a900473ffffffffffffffffffffffffffffffffffffffff1673ffffffffffffffffffffffffffffffffffffffff163373ffffffffffffffffffffffffffffffffffffffff16146117ea57fe5b80600160006101000a81548173ffffffffffffffffffffffffffffffffffffffff021916908373ffffffffffffffffffffffffffffffffffffffff16021790555050565b6060600080600061183f88886116a6565b9050808611611b9557600061185386610c6e565b90506021811161196457600260008a815260200190815260200160002060008154811061187c57fe5b90600052602060002090600202016001018054600181600116156101000203166002900480601f0160208091040260200160405190810160405280929190818152602001828054600181600116156101000203166002900480156119215780601f106118f657610100808354040283529160200191611921565b820191906000526020600020905b81548152906001019060200180831161190457829003601f168201915b50505050509450600260008a815260200190815260200160002060008154811061194757fe5b906000526020600020906002020160000154935060009250611b8f565b604281111580156119755750602181115b15611a8157600260008a815260200190815260200160002060018154811061199957fe5b90600052602060002090600202016001018054600181600116156101000203166002900480601f016020809104026020016040519081016040528092919081815260200182805460018160011615610100020316600290048015611a3e5780601f10611a1357610100808354040283529160200191611a3e565b820191906000526020600020905b815481529060010190602001808311611a2157829003601f168201915b50505050509450600260008a8152602001908152602001600020600181548110611a6457fe5b906000526020600020906002020160000154935060019250611b8e565b6042811115611b8d57600260008a8152602001908152602001600020600281548110611aa957fe5b90600052602060002090600202016001018054600181600116156101000203166002900480601f016020809104026020016040519081016040528092919081815260200182805460018160011615610100020316600290048015611b4e5780601f10611b2357610100808354040283529160200191611b4e565b820191906000526020600020905b815481529060010190602001808311611b3157829003601f168201915b50505050509450600260008a8152602001908152602001600020600281548110611b7457fe5b9060005260206000209060020201600001549350600292505b5b5b50612005565b80861115612004576000611ba886610c6e565b905060198111611cb957600260008a8152602001908152602001600020600381548110611bd157fe5b90600052602060002090600202016001018054600181600116156101000203166002900480601f016020809104026020016040519081016040528092919081815260200182805460018160011615610100020316600290048015611c765780601f10611c4b57610100808354040283529160200191611c76565b820191906000526020600020905b815481529060010190602001808311611c5957829003601f168201915b50505050509450600260008a8152602001908152602001600020600381548110611c9c57fe5b906000526020600020906002020160000154935060039250612002565b601981118015611cca575060328111155b15611dd657600260008a8152602001908152602001600020600481548110611cee57fe5b90600052602060002090600202016001018054600181600116156101000203166002900480601f016020809104026020016040519081016040528092919081815260200182805460018160011615610100020316600290048015611d935780601f10611d6857610100808354040283529160200191611d93565b820191906000526020600020905b815481529060010190602001808311611d7657829003601f168201915b50505050509450600260008a8152602001908152602001600020600481548110611db957fe5b906000526020600020906002020160000154935060049250612001565b603281118015611de75750604b8111155b15611ef357600260008a8152602001908152602001600020600581548110611e0b57fe5b90600052602060002090600202016001018054600181600116156101000203166002900480601f016020809104026020016040519081016040528092919081815260200182805460018160011615610100020316600290048015611eb05780601f10611e8557610100808354040283529160200191611eb0565b820191906000526020600020905b815481529060010190602001808311611e9357829003601f168201915b50505050509450600260008a8152602001908152602001600020600581548110611ed657fe5b906000526020600020906002020160000154935060059250612000565b604b811115611fff57600260008a8152602001908152602001600020600681548110611f1b57fe5b90600052602060002090600202016001018054600181600116156101000203166002900480601f016020809104026020016040519081016040528092919081815260200182805460018160011615610100020316600290048015611fc05780601f10611f9557610100808354040283529160200191611fc0565b820191906000526020600020905b815481529060010190602001808311611fa357829003601f168201915b50505050509450600260008a8152602001908152602001600020600681548110611fe657fe5b9060005260206000209060020201600001549350600692505b5b5b5b505b5b838383935093509350509450945094915050565b6003602052826000526040600020602052816000526040600020816007811061203e57fe5b0160009250925050505481565b6006602052816000526040600020602052806000526040600020600091509150505481565b6120786133c2565b60006004600085815260200190815260200160002060008473ffffffffffffffffffffffffffffffffffffffff1673ffffffffffffffffffffffffffffffffffffffff1681526020019081526020016000206000600781106120d657fe5b0154905060006004600086815260200190815260200160002060008573ffffffffffffffffffffffffffffffffffffffff1673ffffffffffffffffffffffffffffffffffffffff16815260200190815260200160002060016007811061213857fe5b0154905060006004600087815260200190815260200160002060008673ffffffffffffffffffffffffffffffffffffffff1673ffffffffffffffffffffffffffffffffffffffff16815260200190815260200160002060026007811061219a57fe5b0154905060006004600088815260200190815260200160002060008773ffffffffffffffffffffffffffffffffffffffff1673ffffffffffffffffffffffffffffffffffffffff1681526020019081526020016000206003600781106121fc57fe5b0154905060006004600089815260200190815260200160002060008873ffffffffffffffffffffffffffffffffffffffff1673ffffffffffffffffffffffffffffffffffffffff16815260200190815260200160002060046007811061225e57fe5b015490506000600460008a815260200190815260200160002060008973ffffffffffffffffffffffffffffffffffffffff1673ffffffffffffffffffffffffffffffffffffffff1681526020019081526020016000206005600781106122c057fe5b015490506000600460008b815260200190815260200160002060008a73ffffffffffffffffffffffffffffffffffffffff1673ffffffffffffffffffffffffffffffffffffffff16815260200190815260200160002060066007811061232257fe5b01549050868860006007811061233457fe5b602002018181525050858860016007811061234b57fe5b602002018181525050848860026007811061236257fe5b602002018181525050838860036007811061237957fe5b602002018181525050828860046007811061239057fe5b60200201818152505081886005600781106123a757fe5b60200201818152505080886006600781106123be57fe5b6020020181815250505050505050505092915050565b600160009054906101000a900473ffffffffffffffffffffffffffffffffffffffff1681565b6040518060400160405280600b81526020017f47616d654d616e616765720000000000000000000000000000000000000000008152506124398161256d565b61248e576040517f08c379a000000000000000000000000000000000000000000000000000000000815260040180806020018281038252602d81526020018061348a602d913960400191505060405180910390fd5b612499848484613368565b50505050565b6000809054906101000a900473ffffffffffffffffffffffffffffffffffffffff1673ffffffffffffffffffffffffffffffffffffffff163373ffffffffffffffffffffffffffffffffffffffff16146124f557fe5b600073ffffffffffffffffffffffffffffffffffffffff168173ffffffffffffffffffffffffffffffffffffffff161461256a57806000806101000a81548173ffffffffffffffffffffffffffffffffffffffff021916908373ffffffffffffffffffffffffffffffffffffffff1602179055505b50565b60008073ffffffffffffffffffffffffffffffffffffffff16600160009054906101000a900473ffffffffffffffffffffffffffffffffffffffff1673ffffffffffffffffffffffffffffffffffffffff161415612633576040517f08c379a00000000000000000000000000000000000000000000000000000000081526004018080602001828103825260088152602001807f4e6f2050726f787900000000000000000000000000000000000000000000000081525060200191505060405180910390fd5b6000600160009054906101000a900473ffffffffffffffffffffffffffffffffffffffff1673ffffffffffffffffffffffffffffffffffffffff166335817773846040518263ffffffff1660e01b81526004018080602001828103825283818151815260200191508051906020019080838360005b838110156126c35780820151818401526020810190506126a8565b50505050905090810190601f1680156126f05780820380516001836020036101000a031916815260200191505b509250505060206040518083038186803b15801561270d57600080fd5b505afa158015612721573d6000803e3d6000fd5b505050506040513d602081101561273757600080fd5b81019080805190602001909291905050509050600073ffffffffffffffffffffffffffffffffffffffff168173ffffffffffffffffffffffffffffffffffffffff16141561278157fe5b8073ffffffffffffffffffffffffffffffffffffffff163373ffffffffffffffffffffffffffffffffffffffff1614915050919050565b60006127cd8284612f2c90919063ffffffff16565b905060008160405160200180828152602001807f6c6f7750756e636800000000000000000000000000000000000000000000000081525060080191505060405160208183030381529060405280519060200120905060008260405160200180828152602001807f6c6f774b69636b0000000000000000000000000000000000000000000000000081525060070191505060405160208183030381529060405280519060200120905060008360405160200180828152602001807f6c6f775468756e64657200000000000000000000000000000000000000000000815250600a0191505060405160208183030381529060405280519060200120905060008460405160200180828152602001807f6861726450756e6368000000000000000000000000000000000000000000000081525060090191505060405160208183030381529060405280519060200120905060008560405160200180828152602001807f686172644b69636b00000000000000000000000000000000000000000000000081525060080191505060405160208183030381529060405280519060200120905060008660405160200180828152602001807f686172645468756e646572000000000000000000000000000000000000000000815250600b0191505060405160208183030381529060405280519060200120905060008760405160200180828152602001807f736c617368000000000000000000000000000000000000000000000000000000815250600501915050604051602081830303815290604052805190602001209050600260008c815260200190815260200160002060405180604001604052808981526020016040518060400160405280600881526020017f6c6f7750756e636800000000000000000000000000000000000000000000000081525081525090806001815401808255809150509060018203906000526020600020906002020160009091929091909150600082015181600001556020820151816001019080519060200190612ac29291906133e4565b50505050600260008c815260200190815260200160002060405180604001604052808881526020016040518060400160405280600781526020017f6c6f774b69636b0000000000000000000000000000000000000000000000000081525081525090806001815401808255809150509060018203906000526020600020906002020160009091929091909150600082015181600001556020820151816001019080519060200190612b749291906133e4565b50505050600260008c815260200190815260200160002060405180604001604052808781526020016040518060400160405280600a81526020017f6c6f775468756e6465720000000000000000000000000000000000000000000081525081525090806001815401808255809150509060018203906000526020600020906002020160009091929091909150600082015181600001556020820151816001019080519060200190612c269291906133e4565b50505050600260008c815260200190815260200160002060405180604001604052808681526020016040518060400160405280600981526020017f6861726450756e6368000000000000000000000000000000000000000000000081525081525090806001815401808255809150509060018203906000526020600020906002020160009091929091909150600082015181600001556020820151816001019080519060200190612cd89291906133e4565b50505050600260008c815260200190815260200160002060405180604001604052808581526020016040518060400160405280600881526020017f686172644b69636b00000000000000000000000000000000000000000000000081525081525090806001815401808255809150509060018203906000526020600020906002020160009091929091909150600082015181600001556020820151816001019080519060200190612d8a9291906133e4565b50505050600260008c815260200190815260200160002060405180604001604052808481526020016040518060400160405280600b81526020017f686172645468756e64657200000000000000000000000000000000000000000081525081525090806001815401808255809150509060018203906000526020600020906002020160009091929091909150600082015181600001556020820151816001019080519060200190612e3c9291906133e4565b50505050600260008c815260200190815260200160002060405180604001604052808381526020016040518060400160405280600581526020017f736c61736800000000000000000000000000000000000000000000000000000081525081525090806001815401808255809150509060018203906000526020600020906002020160009091929091909150600082015181600001556020820151816001019080519060200190612eee9291906133e4565b505050508a7f3976b17a8e569af047875ed873c85d86496824421b9c29d2400e982c1254b37860405160405180910390a25050505050505050505050565b600080828401905083811015612f3e57fe5b8091505092915050565b600082821115612f5457fe5b818303905092915050565b60006007600086815260200190815260200160002060008373ffffffffffffffffffffffffffffffffffffffff1673ffffffffffffffffffffffffffffffffffffffff1681526020019081526020016000205411613025576040517f08c379a000000000000000000000000000000000000000000000000000000000815260040180806020018281038252601d8152602001807f446566656e7365206c6576656c20697320616c7265616479207a65726f00000081525060200191505060405180910390fd5b60008060008060006130378988610ced565b9350935093509350808811801561304d57508181115b801561305857508282115b801561306357508383115b156130da576130cc6001600760008c815260200190815260200160002060008973ffffffffffffffffffffffffffffffffffffffff1673ffffffffffffffffffffffffffffffffffffffff16815260200190815260200160002054612f4890919063ffffffff16565b94506130d9898787613368565b5b505050505050505050565b61315560016003600086815260200190815260200160002060008573ffffffffffffffffffffffffffffffffffffffff1673ffffffffffffffffffffffffffffffffffffffff168152602001908152602001600020836007811061314557fe5b0154612f2c90919063ffffffff16565b6003600085815260200190815260200160002060008473ffffffffffffffffffffffffffffffffffffffff1673ffffffffffffffffffffffffffffffffffffffff16815260200190815260200160002082600781106131b057fe5b0181905550505050565b61322a60016004600086815260200190815260200160002060008573ffffffffffffffffffffffffffffffffffffffff1673ffffffffffffffffffffffffffffffffffffffff168152602001908152602001600020836007811061321a57fe5b0154612f2c90919063ffffffff16565b6004600085815260200190815260200160002060008473ffffffffffffffffffffffffffffffffffffffff1673ffffffffffffffffffffffffffffffffffffffff168152602001908152602001600020826007811061328557fe5b0181905550505050565b806006600085815260200190815260200160002060008473ffffffffffffffffffffffffffffffffffffffff1673ffffffffffffffffffffffffffffffffffffffff16815260200190815260200160002081905550505050565b6005600084815260200190815260200160002060008373ffffffffffffffffffffffffffffffffffffffff1673ffffffffffffffffffffffffffffffffffffffff168152602001908152602001600020819080600181540180825580915050906001820390600052602060002001600090919290919091505550505050565b806007600085815260200190815260200160002060008473ffffffffffffffffffffffffffffffffffffffff1673ffffffffffffffffffffffffffffffffffffffff16815260200190815260200160002081905550505050565b6040518060e00160405280600790602082028038833980820191505090505090565b828054600181600116156101000203166002900490600052602060002090601f016020900481019282601f1061342557805160ff1916838001178555613453565b82800160010185558215613453579182015b82811115613452578251825591602001919060010190613437565b5b5090506134609190613464565b5090565b61348691905b8082111561348257600081600090555060010161346a565b5090565b9056fe416363657373206973206f6e6c7920616c6c6f7765642066726f6d20737065636966696320636f6e7472616374a265627a7a72315820da29eae2eff240b9ec03187e2a48176a6269de5f8029b8355fad497cb8e0851664736f6c63430005110032",
  "source": "/**\n * @title Betting\n *\n * @author @kittieFIGHT @ola @Xalee @wafflemakr\n *\n */\n//modifier class (DSAuth )\n//Event class ( DSNote )\n//\n// This program is free software: you can redistribute it and/or modify\n// it under the terms of the GNU General Public License as published by\n// the Free Software Foundation, either version 3 of the License, or\n// (at your option) any later version.\n\n// This program is distributed in the hope that it will be useful,\n// but WITHOUT ANY WARRANTY; without even the implied warranty of\n// MERCHANTABILITY or FITNESS FOR A PARTICULAR PURPOSE.  See the\n// GNU General Public License for more details.\n\n// You should have received a copy of the GNU General Public License\n// along with this program.  If not, see <http://www.gnu.org/licenses/>.\npragma solidity ^0.5.5;\n\nimport \"../proxy/Proxied.sol\";\nimport \"../../authority/Guard.sol\";\nimport \"../../libs/SafeMath.sol\";\nimport \"./RarityCalculator.sol\";\n\n/**\n * @title This contract is responsible to carry out the betting module in a game\n * @author @ziweidream\n */\n\ncontract Betting is Proxied, Guard {\n    using SafeMath for uint256;\n\n    ///fight map for a game with a specific gameId\n     struct HitType {\n        bytes32 hash;\n        string attack;\n     }\n    mapping(uint256 => HitType[]) public fightMap;\n\n    /// total number of direct attacks of each hitType of the given corner in a game\n     mapping(uint256 => mapping(address => uint256[7])) public directAttacksScored;\n    /// total number of blocked attacks of each hitType of the given corner in a game\n    mapping(uint256 => mapping(address => uint256[7])) public blockedAttacksScored;\n    /// individual bets placed by the given corner in a game\n    mapping(uint256 => mapping(address => uint256[])) public bets;\n    /// timestamp of the last bet placed by the given corner in a game\n    mapping(uint256 => mapping(address => uint256)) public lastBetTimestamp;\n    /// current defense level of the given corner in a game\n    mapping(uint256 => mapping(address => uint256)) public defenseLevel;\n\n    // setFightMap() is internal. Temporarily set as public for truffle test purpose.\n    /**\n     * @author @ziweidream\n     * @notice set fight map for a game with a specific gameId\n     * @param _gameId the gameID of the game for which the fight map is generated\n     * @param _randomRed random number generated when the red corner presses Button start\n     * @param _randomBlack black number generated when the black corner presses Button start\n     */\n    function setFightMap(uint256 _gameId, uint256 _randomRed, uint256 _randomBlack)\n        internal\n    {\n        uint randomNum = _randomRed.add(_randomBlack);\n        bytes32 hashLowPunch = keccak256(abi.encodePacked(randomNum, \"lowPunch\"));\n        bytes32 hashLowKick = keccak256(abi.encodePacked(randomNum, \"lowKick\"));\n        bytes32 hashLowThunder = keccak256(abi.encodePacked(randomNum, \"lowThunder\"));\n        bytes32 hashHardPunch = keccak256(abi.encodePacked(randomNum, \"hardPunch\"));\n        bytes32 hashHardKick = keccak256(abi.encodePacked(randomNum, \"hardKick\"));\n        bytes32 hashHardThunder = keccak256(abi.encodePacked(randomNum, \"hardThunder\"));\n        bytes32 hashSlash = keccak256(abi.encodePacked(randomNum, \"slash\"));\n        fightMap[_gameId].push(HitType(hashLowPunch, \"lowPunch\"));\n        fightMap[_gameId].push(HitType(hashLowKick, \"lowKick\"));\n        fightMap[_gameId].push(HitType(hashLowThunder, \"lowThunder\"));\n        fightMap[_gameId].push(HitType(hashHardPunch, \"hardPunch\"));\n        fightMap[_gameId].push(HitType(hashHardKick, \"hardKick\"));\n        fightMap[_gameId].push(HitType(hashHardThunder, \"hardThunder\"));\n        fightMap[_gameId].push(HitType(hashSlash, \"slash\"));\n\n        emit FightMapGenerated(_gameId);\n    }\n\n    // setDirectAttacksScored() is internal. Temporarily set as public for truffle test purpose.\n    /**\n     * @author @ziweidream\n     * @notice record the total number of direct attacks of each hitType of the given corner in a game\n     * @param _gameId the gameID of the game\n     * @param _player the given corner in this game for whom the total number of the direct attacks are recorded\n     * @param index the index in the mapping directAttacksScored. The index is obtained in function getAttackType()\n     */\n    function setDirectAttacksScored(\n          uint256 _gameId,\n          address _player,\n          uint256 index\n          )\n          internal\n          {\n            directAttacksScored[_gameId][_player][index] = directAttacksScored[_gameId][_player][index].add(1);\n          }\n\n    // setBlockedAttacksScored() is internal. Temporarily set as public for truffle test purpose.\n    /**\n     * @author @ziweidream\n     * @notice record the total number of blocked attacks of each hitType of the given corner in a game\n     * @param _gameId the gameID of the game\n     * @param _player the given corner in this game for whom the total number of the blocked attacks are recorded\n     * @param index the index in the mapping blockedAttacksScored. The index is obtained in function getAttackType()\n     */\n    function setBlockedAttacksScored(\n          uint256 _gameId,\n          address _player,\n          uint256 index\n          )\n          internal\n          {\n            blockedAttacksScored[_gameId][_player][index] = blockedAttacksScored[_gameId][_player][index].add(1);\n          }\n\n    // get the total number of direct attacks of each hitType of the given corner in a game\n    /**\n     * @author @ziweidream\n     * @notice get the total number of direct attacks of each hitType of the given corner in a game\n     * @param _gameId the gameID of the game\n     * @param _player the given corner in this game for whom the total number of the direct attacks are obtained\n     * @return an array of fixed size 7 directAttacks, which contains the total number of direct attacks of each hitType\n     * of the given corner in this game\n     */\n    function getDirectAttacksScored(uint256 _gameId, address _player)\n        public\n        view\n        returns(\n            uint256[7] memory directAttacks\n            )\n        {\n            uint256 totalLowPunch = directAttacksScored[_gameId][_player][0];\n            uint256 totalLowKick = directAttacksScored[_gameId][_player][1];\n            uint256 totalLowThunder = directAttacksScored[_gameId][_player][2];\n            uint256 totalHardPunch = directAttacksScored[_gameId][_player][3];\n            uint256 totalHardKick = directAttacksScored[_gameId][_player][4];\n            uint256 totalHardThunder = directAttacksScored[_gameId][_player][5];\n            uint256 totalSlash = directAttacksScored[_gameId][_player][6];\n            directAttacks[0] = totalLowPunch;\n            directAttacks[1] = totalLowKick;\n            directAttacks[2] = totalLowThunder;\n            directAttacks[3] = totalHardPunch;\n            directAttacks[4] = totalHardKick;\n            directAttacks[5] = totalHardThunder;\n            directAttacks[6] = totalSlash;\n          }\n\n      // get the total number of blocked attacks of each hitType of the given corner in a game\n      /**\n       * @author @ziweidream\n       * @notice get the total number of blocked attacks of each hitType of the given corner in a game\n       * @param _gameId the gameID of the game\n       * @param _player the given corner in this game for whom the total number of the blocked attacks are obtained\n       * @return an array of fixed size 7 blockedAttacks, which contains the total number of blocked attacks of each hitType\n       * of the given corner in this game\n       */\n      function getBlockedAttacksScored(uint256 _gameId, address _player)\n          public\n          view\n          returns(\n              uint256[7] memory blockedAttacks\n              )\n          {\n              uint256 totalLowPunch = blockedAttacksScored[_gameId][_player][0];\n              uint256 totalLowKick = blockedAttacksScored[_gameId][_player][1];\n              uint256 totalLowThunder = blockedAttacksScored[_gameId][_player][2];\n              uint256 totalHardPunch = blockedAttacksScored[_gameId][_player][3];\n              uint256 totalHardKick = blockedAttacksScored[_gameId][_player][4];\n              uint256 totalHardThunder = blockedAttacksScored[_gameId][_player][5];\n              uint256 totalSlash = blockedAttacksScored[_gameId][_player][6];\n              blockedAttacks[0] = totalLowPunch;\n              blockedAttacks[1] = totalLowKick;\n              blockedAttacks[2] = totalLowThunder;\n              blockedAttacks[3] = totalHardPunch;\n              blockedAttacks[4] = totalHardKick;\n              blockedAttacks[5] = totalHardThunder;\n              blockedAttacks[6] = totalSlash;\n          }\n\n    // fillBets() is internal. Temporarily set as public for truffle test purpose.\n   /**\n    * @author @ziweidream\n    * @notice record the bet ether amount of each individual bet placed by the given corner\n    * in a game with a specific gameId\n    * @param _gameId the gameID of the game\n    * @param _player the given corner in this game for whom the individual bet ether amount is recorded\n    * @param _betAmount the ether amount of the bet placed by the given corner\n    */\n    function fillBets(uint256 _gameId, address _player, uint256 _betAmount)\n        internal\n    {\n      bets[_gameId][_player].push(_betAmount);\n    }\n\n   /**\n    * @author @ziweidream\n    * @notice get the number of total bets placed by the given corner in a game\n    * with a specific gameId\n    * @param _gameId the gameID of the game\n    * @param _player the given corner in this game whose individual bet ether amount is recorded\n    * @return the number of total bets placed by the given corner in a game\n    */\n    function getNumberOfBets(uint256 _gameId, address _player)\n       public\n       view\n       returns(uint256 num)\n    {\n        num = bets[_gameId][_player].length;\n    }\n\n   /**\n    * @author @ziweidream\n    * @notice get the ether amount of the last 5 bets placed by the given corner in a game\n    * with a specific gameId\n    * @dev lastBet1 is the last bet, lastBet2 is the second last bet, and so forth\n    * @param _gameId the gameID of the game\n    * @param _player the given corner in this game whose last 4 bets amount are displayed\n    * @return the last 5 bet ether amount by the given corner in a game\n    */\n    function getLastFourBets(uint256 _gameId, address _player)\n        public\n        view\n        returns(uint256 lastBet4, uint256 lastBet3, uint256 lastBet2, uint256 lastBet1)\n    {\n      uint256 arrLength = bets[_gameId][_player].length;\n      require(arrLength > 3);\n      lastBet4 = bets[_gameId][_player][arrLength.sub(4)];\n      lastBet3 = bets[_gameId][_player][arrLength.sub(3)];\n      lastBet2 = bets[_gameId][_player][arrLength.sub(2)];\n      lastBet1 = bets[_gameId][_player][arrLength.sub(1)];\n  }\n\n    /**\n    * @author @ziweidream\n    * @notice get the ether amount of the last bet placed by the given corner in a game\n    * with a specific gameId\n    * @dev if the given corner has never placed a bet in this game yet, the last bet amount is 0\n    * @param _gameId the gameID of the game\n    * @param _player the given corner in this game whose last bet ether amount is displayed\n    * @return the last bet ether amount by the given corner in a game\n    */\n    function getLastBet(uint256 _gameId, address _player)\n        public\n        view\n        returns(uint256 lastBet)\n    {\n        uint256 arrLen = bets[_gameId][_player].length;\n        if (arrLen == 0 ) {\n            lastBet = 0;\n        } else {\n            lastBet = bets[_gameId][_player][arrLen.sub(1)];\n        }\n    }\n\n    \n    /**\n    * @author @ziweidream\n    * @notice record the last bet timestamp for the given corner in a game with a specific gameId\n    * @param _gameId the gameID of the game\n    * @param _player the given corner in this game whose last bet timestamp is recorded\n    * @param _lastBetTimestamp the timestamp of the last bet placed by the given corner in the game\n    */\n    function setLastBetTimestamp(uint256 _gameId, address _player, uint256 _lastBetTimestamp)\n        internal\n    {\n        lastBetTimestamp[_gameId][_player] = _lastBetTimestamp;\n    }\n\n   /**\n    * @author @ziweidream\n    * @notice record the current defense level of the given corner in a game with a specific gameId\n    * @param _gameId the gameID of the game\n    * @param _player the given corner in this game for whom the defense level is recorded\n    */\n    function setDefenseLevel(uint256 _gameId, address _player, uint _defense)\n        internal\n    {\n        defenseLevel[_gameId][_player] = _defense;\n    }\n\n    /**\n    * @author @ziweidream\n    * @notice record the original defense level of the given corner in a game with a specific gameId\n    * @dev this function is only called by GameManager contract\n    * @param _gameId the gameID of the game\n    * @param _player the address of the given corner in this game for whom the defense level is recorded\n    * @param _originalDefenseLevel the original defense level of the given corner, which is calculated in\n    * the function startGame() in GameManager\n    */\n    function setOriginalDefenseLevel(uint256 _gameId, address _player, uint256 _originalDefenseLevel)\n        public\n        onlyContract(CONTRACT_NAME_GAMEMANAGER)\n    {\n        setDefenseLevel(_gameId, _player, _originalDefenseLevel);\n    }\n\n   /**\n    * @author @ziweidream\n    * @notice randomly select attack types from low values column or high values column depending on\n    * the bet ether amount by the given corner in a game with a specific gameId\n    * @param _gameId the gameID of the game\n    * @param _supportedPlayer the given corner in this game for whom the attack type is randomly selected\n    * @param _lastBetAmount the last bet ether amount placed by the supported player in the game\n    * @param _randomNum the random number generated by the front end when Button bet is pressed by the given corner\n    * @return the attackType randomly selected for the given corner, the attackHash for the attackType selected,\n    * and the index of the attackHash returned in the fight map\n    */\n    function getAttackType(\n        uint256 _gameId,\n        address _supportedPlayer,\n        uint256 _lastBetAmount,\n        uint256 _randomNum)\n        public view\n        returns (\n            string memory attackType,\n            bytes32 attackHash,\n            uint256 index\n        ){\n        uint256 prevBetAmount = getLastBet(_gameId, _supportedPlayer);\n        // lower ether than previous bet? one attack is chosen randomly from lowAttacksColumn\n        if (_lastBetAmount <= prevBetAmount) {\n            uint256 diceLowValues = randomGen(_randomNum);\n            if (diceLowValues <= 33) {\n                attackType = fightMap[_gameId][0].attack;\n                attackHash = fightMap[_gameId][0].hash;\n                index = 0;\n            } else if (diceLowValues <= 66 && diceLowValues > 33) {\n                attackType = fightMap[_gameId][1].attack;\n                attackHash = fightMap[_gameId][1].hash;\n                index = 1;\n            } else if (diceLowValues > 66) {\n                attackType = fightMap[_gameId][2].attack;\n                attackHash = fightMap[_gameId][2].hash;\n                index = 2;\n            }\n        } else if (_lastBetAmount > prevBetAmount) {\n             // higher ether than previous bet? one attack is chosen randomly from highAttacksColumn\n            uint256 diceHardValues = randomGen(_randomNum);\n            if (diceHardValues <= 25) {\n                attackType = fightMap[_gameId][3].attack;\n                attackHash = fightMap[_gameId][3].hash;\n                index = 3;\n            } else if (diceHardValues > 25 && diceHardValues <= 50) {\n                attackType = fightMap[_gameId][4].attack;\n                attackHash = fightMap[_gameId][4].hash;\n                index = 4;\n            } else if (diceHardValues > 50 && diceHardValues <= 75) {\n                attackType = fightMap[_gameId][5].attack;\n                attackHash = fightMap[_gameId][5].hash;\n                index = 5;\n            } else if (diceHardValues > 75) {\n                attackType = fightMap[_gameId][6].attack;\n                attackHash = fightMap[_gameId][6].hash;\n                index = 6;\n            }\n        }\n        return (attackType, attackHash, index);\n    }\n\n    // determine whether the attack type is blocked or direct\n    // if opponent's defence level = 0, all attacks are direct\n    // if opponent has been inactive for more than 5 seconds since last bet, attack is direct. Otherwise the attack is blocked.\n   /**\n    * @author @ziweidream\n    * @notice determine whether the attack type by the supported player is blocked or direct in a game with a specific gameId\n    * @param _gameId the gameID of the game\n    * @param _opponentPlayer the address of the opponent player in this game\n    * @return true if the attack type is blocked, false if it is direct\n    */\n    function isAttackBlocked(uint256 _gameId, address _opponentPlayer) public view returns(bool) {\n        uint256 _lastBetTimestamp = lastBetTimestamp[_gameId][_opponentPlayer];\n        // If opponent has been inactive for more than 5 seconds since last bet, attack is direct.\n        // Otherwise it is blocked.\n        if(_lastBetTimestamp >= now.sub(5)) {\n            return true;\n        }\n        return false;\n    }\n\n     // the defense level of an oppoent is reduced each time\n     // a bet is received from attacker and the last five bets are compared on the condition to see\n     // if each bet was bigger than the previous bet in progression.\n     // reduceDefenseLevel() is internal. Temporarily set as public for truffle test purpose.\n   /**\n    * @author @ziweidream\n    * @notice reduce the defense level of the opponent if each of the last 5 bets ether amount from\n    * the attacker was consecutively bigger than the previous one in a game with a specific gameId\n    * @param _gameId the gameID of the game\n    * @param _supportedPlayer the address of the supported player in this game\n    * whose last 5 bets ether amount are compared\n    * @param _opponentPlayer the address of the opponent player in this game\n    * whose defense level is reduced if contidions stated above are met\n    */\n     function reduceDefenseLevel(\n        uint256 _gameId,\n        uint256 _lastBetAmount,\n        address _supportedPlayer,\n        address _opponentPlayer\n        )\n        internal\n        {\n        require(defenseLevel[_gameId][_opponentPlayer] > 0, \"Defense level is already zero\");\n        uint256 defenseLevelOpponent;\n        (uint256 lastBet4, uint256 lastBet3, uint256 lastBet2, uint256 lastBet1) = getLastFourBets(_gameId, _supportedPlayer);\n        if (_lastBetAmount > lastBet1 && lastBet1 > lastBet2 && lastBet2 > lastBet3 && lastBet3 > lastBet4) {\n            defenseLevelOpponent = defenseLevel[_gameId][_opponentPlayer].sub(1);\n            setDefenseLevel(_gameId, _opponentPlayer, defenseLevelOpponent);\n        }\n    }\n\n    /**\n     * @author @ziweidream\n     * @notice generates a random number from 0 to 100 based on the last block hash, blocktime, block difficulty, and seed\n     * @return The random number generated\n     */\n    function randomGen(uint256 seed) public view returns (uint256 randomNumber) {\n        seed = seed.add(1);\n        randomNumber = uint256(keccak256(abi.encodePacked(blockhash(block.number.sub(1)), block.timestamp, block.difficulty, seed)))%100;\n    }\n\n    // temporarily comment out onlyContract(CONTRACT_NAME_GAMEMANAGER) \n   /**\n    * @author @ziweidream\n    * @notice generates a fight map for a game with a specific gameId, and calculates the original defense levels\n    * of both corners in this game\n    * @dev this function can only be called by the GameManager contract\n    * @param _gameId the gameID of the game\n    * @param _randomRed the random number generated when the Red corner presses the Button Bet\n    * @param _randomBlack the random number generated when the Black corner presses the Button Bet\n    */\n    function startGame(\n        uint256 _gameId,\n        uint256 _randomRed,\n        uint256 _randomBlack\n        )\n        public\n        onlyContract(CONTRACT_NAME_GAMEMANAGER)\n    {\n        setFightMap(_gameId, _randomRed, _randomBlack);\n        emit GameStarted(_gameId);\n    }\n\n    // temporarily comment out onlyContract(CONTRACT_NAME_GAMEMANAGER)\n   /**\n    * @author @ziweidream\n    * @notice determines the attack type, attackHash, and current opponent defense level partially\n    * depending on the effect of each bet placed by the given corner in a game with a specific gameId\n    * @dev this function can only be called by the GameManager contract\n    * @param _gameId the gameID of the game\n    * @param _bettor the address of the bettor who placed the bet\n    * @param _lastBetAmount the last bet ether amount placed by the supported player in the game\n    * @param _supportedPlayer the address of the supported player in the game\n    * @param _opponentPlayer the address of the opponent player in the game\n    * @param _randomNum the random number generated when the supported player presses Button Bet\n    * in the game\n    */\n    function bet(\n        uint256 _gameId,\n        address _bettor,\n        uint256 _lastBetAmount,\n        address _supportedPlayer,\n        address _opponentPlayer,\n        uint256 _randomNum)\n        public\n        onlyContract(CONTRACT_NAME_GAMEMANAGER)\n    {\n        string memory attackType;\n        bytes32 attackHash;\n        uint256 index;\n        uint256 defenseLevelSupportedPlayer;\n        uint256 defenseLevelOpponent;\n        uint256 numberOfBets;\n        bool isBlocked;\n\n        (attackType, attackHash, index) = getAttackType(_gameId, _supportedPlayer, _lastBetAmount, _randomNum);\n\n        defenseLevelOpponent = defenseLevel[_gameId][_opponentPlayer];\n\n        numberOfBets = getNumberOfBets(_gameId, _supportedPlayer);\n\n        if (defenseLevelOpponent > 0 && numberOfBets > 3) {\n           reduceDefenseLevel(_gameId, _lastBetAmount, _supportedPlayer, _opponentPlayer);\n        }\n\n        if (defenseLevelOpponent == 0) {\n            isBlocked = false;\n            setDirectAttacksScored(_gameId, _supportedPlayer, index);\n        } else if(defenseLevelOpponent > 0 && isAttackBlocked(_gameId, _opponentPlayer)) {\n            isBlocked = true;\n            setBlockedAttacksScored(_gameId, _supportedPlayer, index);\n        } else {\n            isBlocked = false;\n            setDirectAttacksScored(_gameId, _supportedPlayer, index);\n        }\n\n        setLastBetTimestamp(_gameId, _supportedPlayer, now);\n        fillBets(_gameId, _supportedPlayer, _lastBetAmount);\n\n        defenseLevelSupportedPlayer = defenseLevel[_gameId][_supportedPlayer];\n        defenseLevelOpponent = defenseLevel[_gameId][_opponentPlayer];\n\n        emit BetPlaced(\n            _gameId,\n            _bettor,\n            _lastBetAmount,\n            _supportedPlayer,\n            attackHash,\n            isBlocked,\n            defenseLevelSupportedPlayer,\n            defenseLevelOpponent\n            );\n    }\n\n    event GameStarted(uint256 indexed _gameId);\n\n    event FightMapGenerated(uint256 indexed _gameId);\n\n    event BetPlaced(\n        uint256 indexed _gameId,\n        address indexed _bettor,\n        uint256 _lastBetAmount,\n        address indexed _supportedPlyer,\n        bytes32 attackHash,\n        bool isBlocked,\n        uint256 defenseLevelSupportedPlayer,\n        uint256 defenseLevelOpponent);\n}\n",
  "sourcePath": "/Users/ziweizhang/Desktop/multi-sig/contracts/contracts/modules/algorithm/Betting.sol",
  "compiler": {
    "name": "solc",
    "version": "0.5.17+commit.d19bba13.Emscripten.clang"
  },
  "schemaVersion": "3.0.23",
  "updatedAt": "2020-07-17T20:44:03.388Z",
  "devdoc": {
    "author": "@ziweidream",
    "methods": {
      "bet(uint256,address,uint256,address,address,uint256)": {
        "author": "@ziweidream",
        "details": "this function can only be called by the GameManager contract",
        "params": {
          "_bettor": "the address of the bettor who placed the bet",
          "_gameId": "the gameID of the game",
          "_lastBetAmount": "the last bet ether amount placed by the supported player in the game",
          "_opponentPlayer": "the address of the opponent player in the game",
          "_randomNum": "the random number generated when the supported player presses Button Bet in the game",
          "_supportedPlayer": "the address of the supported player in the game"
        }
      },
      "getAttackType(uint256,address,uint256,uint256)": {
        "author": "@ziweidream",
        "params": {
          "_gameId": "the gameID of the game",
          "_lastBetAmount": "the last bet ether amount placed by the supported player in the game",
          "_randomNum": "the random number generated by the front end when Button bet is pressed by the given corner",
          "_supportedPlayer": "the given corner in this game for whom the attack type is randomly selected"
        },
        "return": "the attackType randomly selected for the given corner, the attackHash for the attackType selected, and the index of the attackHash returned in the fight map"
      },
      "getBlockedAttacksScored(uint256,address)": {
        "author": "@ziweidream",
        "params": {
          "_gameId": "the gameID of the game",
          "_player": "the given corner in this game for whom the total number of the blocked attacks are obtained"
        },
        "return": "an array of fixed size 7 blockedAttacks, which contains the total number of blocked attacks of each hitType of the given corner in this game"
      },
      "getDirectAttacksScored(uint256,address)": {
        "author": "@ziweidream",
        "params": {
          "_gameId": "the gameID of the game",
          "_player": "the given corner in this game for whom the total number of the direct attacks are obtained"
        },
        "return": "an array of fixed size 7 directAttacks, which contains the total number of direct attacks of each hitType of the given corner in this game"
      },
      "getLastBet(uint256,address)": {
        "author": "@ziweidream",
        "details": "if the given corner has never placed a bet in this game yet, the last bet amount is 0",
        "params": {
          "_gameId": "the gameID of the game",
          "_player": "the given corner in this game whose last bet ether amount is displayed"
        },
        "return": "the last bet ether amount by the given corner in a game"
      },
      "getLastFourBets(uint256,address)": {
        "author": "@ziweidream",
        "details": "lastBet1 is the last bet, lastBet2 is the second last bet, and so forth",
        "params": {
          "_gameId": "the gameID of the game",
          "_player": "the given corner in this game whose last 4 bets amount are displayed"
        },
        "return": "the last 5 bet ether amount by the given corner in a game"
      },
      "getNumberOfBets(uint256,address)": {
        "author": "@ziweidream",
        "params": {
          "_gameId": "the gameID of the game",
          "_player": "the given corner in this game whose individual bet ether amount is recorded"
        },
        "return": "the number of total bets placed by the given corner in a game"
      },
      "isAttackBlocked(uint256,address)": {
        "author": "@ziweidream",
        "params": {
          "_gameId": "the gameID of the game",
          "_opponentPlayer": "the address of the opponent player in this game"
        },
        "return": "true if the attack type is blocked, false if it is direct"
      },
      "randomGen(uint256)": {
        "author": "@ziweidream",
        "return": "The random number generated"
      },
      "setOriginalDefenseLevel(uint256,address,uint256)": {
        "author": "@ziweidream",
        "details": "this function is only called by GameManager contract",
        "params": {
          "_gameId": "the gameID of the game",
          "_originalDefenseLevel": "the original defense level of the given corner, which is calculated in the function startGame() in GameManager",
          "_player": "the address of the given corner in this game for whom the defense level is recorded"
        }
      },
      "startGame(uint256,uint256,uint256)": {
        "author": "@ziweidream",
        "details": "this function can only be called by the GameManager contract",
        "params": {
          "_gameId": "the gameID of the game",
          "_randomBlack": "the random number generated when the Black corner presses the Button Bet",
          "_randomRed": "the random number generated when the Red corner presses the Button Bet"
        }
      }
    },
    "title": "This contract is responsible to carry out the betting module in a game"
  },
  "userdoc": {
    "methods": {
      "bet(uint256,address,uint256,address,address,uint256)": {
        "notice": "determines the attack type, attackHash, and current opponent defense level partially depending on the effect of each bet placed by the given corner in a game with a specific gameId"
      },
      "getAttackType(uint256,address,uint256,uint256)": {
        "notice": "randomly select attack types from low values column or high values column depending on the bet ether amount by the given corner in a game with a specific gameId"
      },
      "getBlockedAttacksScored(uint256,address)": {
        "notice": "get the total number of blocked attacks of each hitType of the given corner in a game"
      },
      "getDirectAttacksScored(uint256,address)": {
        "notice": "get the total number of direct attacks of each hitType of the given corner in a game"
      },
      "getLastBet(uint256,address)": {
        "notice": "get the ether amount of the last bet placed by the given corner in a game with a specific gameId"
      },
      "getLastFourBets(uint256,address)": {
        "notice": "get the ether amount of the last 5 bets placed by the given corner in a game with a specific gameId"
      },
      "getNumberOfBets(uint256,address)": {
        "notice": "get the number of total bets placed by the given corner in a game with a specific gameId"
      },
      "isAttackBlocked(uint256,address)": {
        "notice": "determine whether the attack type by the supported player is blocked or direct in a game with a specific gameId"
      },
      "randomGen(uint256)": {
        "notice": "generates a random number from 0 to 100 based on the last block hash, blocktime, block difficulty, and seed"
      },
      "setOriginalDefenseLevel(uint256,address,uint256)": {
        "notice": "record the original defense level of the given corner in a game with a specific gameId"
      },
      "setProxy(address)": {
        "notice": "Set/update address of Proxy contract"
      },
      "startGame(uint256,uint256,uint256)": {
        "notice": "generates a fight map for a game with a specific gameId, and calculates the original defense levels of both corners in this game"
      }
    }
  }
}