{
  "contractName": "Betting",
  "abi": [
    {
      "anonymous": false,
      "inputs": [
        {
          "indexed": true,
          "internalType": "uint256",
          "name": "_gameId",
          "type": "uint256"
        },
        {
          "indexed": true,
          "internalType": "address",
          "name": "_bettor",
          "type": "address"
        },
        {
          "indexed": false,
          "internalType": "uint256",
          "name": "_lastBetAmount",
          "type": "uint256"
        },
        {
          "indexed": true,
          "internalType": "address",
          "name": "_supportedPlyer",
          "type": "address"
        },
        {
          "indexed": false,
          "internalType": "bytes32",
          "name": "attackHash",
          "type": "bytes32"
        },
        {
          "indexed": false,
          "internalType": "bool",
          "name": "isBlocked",
          "type": "bool"
        },
        {
          "indexed": false,
          "internalType": "uint256",
          "name": "defenseLevelSupportedPlayer",
          "type": "uint256"
        },
        {
          "indexed": false,
          "internalType": "uint256",
          "name": "defenseLevelOpponent",
          "type": "uint256"
        }
      ],
      "name": "BetPlaced",
      "type": "event"
    },
    {
      "anonymous": false,
      "inputs": [
        {
          "indexed": true,
          "internalType": "uint256",
          "name": "_gameId",
          "type": "uint256"
        }
      ],
      "name": "FightMapGenerated",
      "type": "event"
    },
    {
      "anonymous": false,
      "inputs": [
        {
          "indexed": true,
          "internalType": "uint256",
          "name": "_gameId",
          "type": "uint256"
        }
      ],
      "name": "GameStarted",
      "type": "event"
    },
    {
      "constant": true,
      "inputs": [
        {
          "internalType": "uint256",
          "name": "",
          "type": "uint256"
        },
        {
          "internalType": "address",
          "name": "",
          "type": "address"
        },
        {
          "internalType": "uint256",
          "name": "",
          "type": "uint256"
        }
      ],
      "name": "bets",
      "outputs": [
        {
          "internalType": "uint256",
          "name": "",
          "type": "uint256"
        }
      ],
      "payable": false,
      "stateMutability": "view",
      "type": "function"
    },
    {
      "constant": true,
      "inputs": [
        {
          "internalType": "uint256",
          "name": "",
          "type": "uint256"
        },
        {
          "internalType": "address",
          "name": "",
          "type": "address"
        },
        {
          "internalType": "uint256",
          "name": "",
          "type": "uint256"
        }
      ],
      "name": "blockedAttacksScored",
      "outputs": [
        {
          "internalType": "uint256",
          "name": "",
          "type": "uint256"
        }
      ],
      "payable": false,
      "stateMutability": "view",
      "type": "function"
    },
    {
      "constant": true,
      "inputs": [
        {
          "internalType": "uint256",
          "name": "",
          "type": "uint256"
        },
        {
          "internalType": "address",
          "name": "",
          "type": "address"
        }
      ],
      "name": "defenseLevel",
      "outputs": [
        {
          "internalType": "uint256",
          "name": "",
          "type": "uint256"
        }
      ],
      "payable": false,
      "stateMutability": "view",
      "type": "function"
    },
    {
      "constant": true,
      "inputs": [
        {
          "internalType": "uint256",
          "name": "",
          "type": "uint256"
        },
        {
          "internalType": "address",
          "name": "",
          "type": "address"
        },
        {
          "internalType": "uint256",
          "name": "",
          "type": "uint256"
        }
      ],
      "name": "directAttacksScored",
      "outputs": [
        {
          "internalType": "uint256",
          "name": "",
          "type": "uint256"
        }
      ],
      "payable": false,
      "stateMutability": "view",
      "type": "function"
    },
    {
      "constant": true,
      "inputs": [
        {
          "internalType": "uint256",
          "name": "",
          "type": "uint256"
        },
        {
          "internalType": "uint256",
          "name": "",
          "type": "uint256"
        }
      ],
      "name": "fightMap",
      "outputs": [
        {
          "internalType": "bytes32",
          "name": "hash",
          "type": "bytes32"
        },
        {
          "internalType": "string",
          "name": "attack",
          "type": "string"
        }
      ],
      "payable": false,
      "stateMutability": "view",
      "type": "function"
    },
    {
      "constant": true,
      "inputs": [
        {
          "internalType": "uint256",
          "name": "",
          "type": "uint256"
        },
        {
          "internalType": "address",
          "name": "",
          "type": "address"
        }
      ],
      "name": "lastBetTimestamp",
      "outputs": [
        {
          "internalType": "uint256",
          "name": "",
          "type": "uint256"
        }
      ],
      "payable": false,
      "stateMutability": "view",
      "type": "function"
    },
    {
      "constant": true,
      "inputs": [],
      "name": "owner",
      "outputs": [
        {
          "internalType": "address payable",
          "name": "",
          "type": "address"
        }
      ],
      "payable": false,
      "stateMutability": "view",
      "type": "function"
    },
    {
      "constant": true,
      "inputs": [],
      "name": "proxy",
      "outputs": [
        {
          "internalType": "contract ProxyBase",
          "name": "",
          "type": "address"
        }
      ],
      "payable": false,
      "stateMutability": "view",
      "type": "function"
    },
    {
      "constant": false,
      "inputs": [
        {
          "internalType": "contract ProxyBase",
          "name": "_proxy",
          "type": "address"
        }
      ],
      "name": "setProxy",
      "outputs": [],
      "payable": false,
      "stateMutability": "nonpayable",
      "type": "function"
    },
    {
      "constant": false,
      "inputs": [
        {
          "internalType": "address payable",
          "name": "newOwner",
          "type": "address"
        }
      ],
      "name": "transferOwnership",
      "outputs": [],
      "payable": false,
      "stateMutability": "nonpayable",
      "type": "function"
    },
    {
      "constant": true,
      "inputs": [
        {
          "internalType": "uint256",
          "name": "_gameId",
          "type": "uint256"
        },
        {
          "internalType": "address",
          "name": "_player",
          "type": "address"
        }
      ],
      "name": "getDirectAttacksScored",
      "outputs": [
        {
          "internalType": "uint256[7]",
          "name": "directAttacks",
          "type": "uint256[7]"
        }
      ],
      "payable": false,
      "stateMutability": "view",
      "type": "function"
    },
    {
      "constant": true,
      "inputs": [
        {
          "internalType": "uint256",
          "name": "_gameId",
          "type": "uint256"
        },
        {
          "internalType": "address",
          "name": "_player",
          "type": "address"
        }
      ],
      "name": "getBlockedAttacksScored",
      "outputs": [
        {
          "internalType": "uint256[7]",
          "name": "blockedAttacks",
          "type": "uint256[7]"
        }
      ],
      "payable": false,
      "stateMutability": "view",
      "type": "function"
    },
    {
      "constant": true,
      "inputs": [
        {
          "internalType": "uint256",
          "name": "_gameId",
          "type": "uint256"
        },
        {
          "internalType": "address",
          "name": "_player",
          "type": "address"
        }
      ],
      "name": "getNumberOfBets",
      "outputs": [
        {
          "internalType": "uint256",
          "name": "num",
          "type": "uint256"
        }
      ],
      "payable": false,
      "stateMutability": "view",
      "type": "function"
    },
    {
      "constant": true,
      "inputs": [
        {
          "internalType": "uint256",
          "name": "_gameId",
          "type": "uint256"
        },
        {
          "internalType": "address",
          "name": "_player",
          "type": "address"
        }
      ],
      "name": "getLastFourBets",
      "outputs": [
        {
          "internalType": "uint256",
          "name": "lastBet4",
          "type": "uint256"
        },
        {
          "internalType": "uint256",
          "name": "lastBet3",
          "type": "uint256"
        },
        {
          "internalType": "uint256",
          "name": "lastBet2",
          "type": "uint256"
        },
        {
          "internalType": "uint256",
          "name": "lastBet1",
          "type": "uint256"
        }
      ],
      "payable": false,
      "stateMutability": "view",
      "type": "function"
    },
    {
      "constant": true,
      "inputs": [
        {
          "internalType": "uint256",
          "name": "_gameId",
          "type": "uint256"
        },
        {
          "internalType": "address",
          "name": "_player",
          "type": "address"
        }
      ],
      "name": "getLastBet",
      "outputs": [
        {
          "internalType": "uint256",
          "name": "lastBet",
          "type": "uint256"
        }
      ],
      "payable": false,
      "stateMutability": "view",
      "type": "function"
    },
    {
      "constant": false,
      "inputs": [
        {
          "internalType": "uint256",
          "name": "_gameId",
          "type": "uint256"
        },
        {
          "internalType": "address",
          "name": "_player",
          "type": "address"
        },
        {
          "internalType": "uint256",
          "name": "_originalDefenseLevel",
          "type": "uint256"
        }
      ],
      "name": "setOriginalDefenseLevel",
      "outputs": [],
      "payable": false,
      "stateMutability": "nonpayable",
      "type": "function"
    },
    {
      "constant": true,
      "inputs": [
        {
          "internalType": "uint256",
          "name": "_gameId",
          "type": "uint256"
        },
        {
          "internalType": "address",
          "name": "_supportedPlayer",
          "type": "address"
        },
        {
          "internalType": "uint256",
          "name": "_lastBetAmount",
          "type": "uint256"
        },
        {
          "internalType": "uint256",
          "name": "_randomNum",
          "type": "uint256"
        }
      ],
      "name": "getAttackType",
      "outputs": [
        {
          "internalType": "string",
          "name": "attackType",
          "type": "string"
        },
        {
          "internalType": "bytes32",
          "name": "attackHash",
          "type": "bytes32"
        },
        {
          "internalType": "uint256",
          "name": "index",
          "type": "uint256"
        }
      ],
      "payable": false,
      "stateMutability": "view",
      "type": "function"
    },
    {
      "constant": true,
      "inputs": [
        {
          "internalType": "uint256",
          "name": "_gameId",
          "type": "uint256"
        },
        {
          "internalType": "address",
          "name": "_opponentPlayer",
          "type": "address"
        }
      ],
      "name": "isAttackBlocked",
      "outputs": [
        {
          "internalType": "bool",
          "name": "",
          "type": "bool"
        }
      ],
      "payable": false,
      "stateMutability": "view",
      "type": "function"
    },
    {
      "constant": true,
      "inputs": [
        {
          "internalType": "uint256",
          "name": "seed",
          "type": "uint256"
        }
      ],
      "name": "randomGen",
      "outputs": [
        {
          "internalType": "uint256",
          "name": "randomNumber",
          "type": "uint256"
        }
      ],
      "payable": false,
      "stateMutability": "view",
      "type": "function"
    },
    {
      "constant": false,
      "inputs": [
        {
          "internalType": "uint256",
          "name": "_gameId",
          "type": "uint256"
        },
        {
          "internalType": "uint256",
          "name": "_randomRed",
          "type": "uint256"
        },
        {
          "internalType": "uint256",
          "name": "_randomBlack",
          "type": "uint256"
        }
      ],
      "name": "startGame",
      "outputs": [],
      "payable": false,
      "stateMutability": "nonpayable",
      "type": "function"
    },
    {
      "constant": false,
      "inputs": [
        {
          "internalType": "uint256",
          "name": "_gameId",
          "type": "uint256"
        },
        {
          "internalType": "address",
          "name": "_bettor",
          "type": "address"
        },
        {
          "internalType": "uint256",
          "name": "_lastBetAmount",
          "type": "uint256"
        },
        {
          "internalType": "address",
          "name": "_supportedPlayer",
          "type": "address"
        },
        {
          "internalType": "address",
          "name": "_opponentPlayer",
          "type": "address"
        },
        {
          "internalType": "uint256",
          "name": "_randomNum",
          "type": "uint256"
        }
      ],
      "name": "bet",
      "outputs": [],
      "payable": false,
      "stateMutability": "nonpayable",
      "type": "function"
    }
  ],
  "bytecode": "0x6080604052336000806101000a81548173ffffffffffffffffffffffffffffffffffffffff021916908373ffffffffffffffffffffffffffffffffffffffff16021790555061343c806100536000396000f3fe608060405234801561001057600080fd5b50600436106101375760003560e01c80638c9f39b5116100b8578063c04768d01161007c578063c04768d0146107f6578063cbd1a91614610862578063dce2d9b4146108c4578063ec5568891461094e578063ed1d740614610998578063f2fde38b146109f057610137565b80638c9f39b5146105bb5780638da5cb5b1461061d578063945c34131461066757806397107d6d146106c9578063a9c015c11461070d57610137565b8063434b14e7116100ff578063434b14e71461037057806348c52d55146103b2578063592ba06b146104295780636a95b5b0146104cb578063851c45371461053157610137565b806303e78b311461013c5780631363bb26146101f45780632579f942146102605780632c31d085146102c2578063308eba9714610304575b600080fd5b6101726004803603604081101561015257600080fd5b810190808035906020019092919080359060200190929190505050610a34565b6040518083815260200180602001828103825283818151815260200191508051906020019080838360005b838110156101b857808201518184015260208101905061019d565b50505050905090810190601f1680156101e55780820380516001836020036101000a031916815260200191505b50935050505060405180910390f35b61024a6004803603606081101561020a57600080fd5b8101908080359060200190929190803573ffffffffffffffffffffffffffffffffffffffff16906020019092919080359060200190929190505050610b0a565b6040518082815260200191505060405180910390f35b6102ac6004803603604081101561027657600080fd5b8101908080359060200190929190803573ffffffffffffffffffffffffffffffffffffffff169060200190929190505050610b3c565b6040518082815260200191505060405180910390f35b610302600480360360608110156102d857600080fd5b81019080803590602001909291908035906020019092919080359060200190929190505050610b61565b005b61035a6004803603606081101561031a57600080fd5b8101908080359060200190929190803573ffffffffffffffffffffffffffffffffffffffff16906020019092919080359060200190929190505050610bde565b6040518082815260200191505060405180910390f35b61039c6004803603602081101561038657600080fd5b8101908080359060200190929190505050610c19565b6040518082815260200191505060405180910390f35b6103fe600480360360408110156103c857600080fd5b8101908080359060200190929190803573ffffffffffffffffffffffffffffffffffffffff169060200190929190505050610c98565b6040518085815260200184815260200183815260200182815260200194505050505060405180910390f35b6104c9600480360360c081101561043f57600080fd5b8101908080359060200190929190803573ffffffffffffffffffffffffffffffffffffffff16906020019092919080359060200190929190803573ffffffffffffffffffffffffffffffffffffffff169060200190929190803573ffffffffffffffffffffffffffffffffffffffff16906020019092919080359060200190929190505050610ef9565b005b610517600480360360408110156104e157600080fd5b8101908080359060200190929190803573ffffffffffffffffffffffffffffffffffffffff16906020019092919050505061118f565b604051808215151515815260200191505060405180910390f35b61057d6004803603604081101561054757600080fd5b8101908080359060200190929190803573ffffffffffffffffffffffffffffffffffffffff169060200190929190505050611215565b6040518082600760200280838360005b838110156105a857808201518184015260208101905061058d565b5050505090500191505060405180910390f35b610607600480360360408110156105d157600080fd5b8101908080359060200190929190803573ffffffffffffffffffffffffffffffffffffffff169060200190929190505050611579565b6040518082815260200191505060405180910390f35b6106256115d7565b604051808273ffffffffffffffffffffffffffffffffffffffff1673ffffffffffffffffffffffffffffffffffffffff16815260200191505060405180910390f35b6106b36004803603604081101561067d57600080fd5b8101908080359060200190929190803573ffffffffffffffffffffffffffffffffffffffff1690602001909291905050506115fc565b6040518082815260200191505060405180910390f35b61070b600480360360208110156106df57600080fd5b81019080803573ffffffffffffffffffffffffffffffffffffffff1690602001909291905050506116ea565b005b61076d6004803603608081101561072357600080fd5b8101908080359060200190929190803573ffffffffffffffffffffffffffffffffffffffff1690602001909291908035906020019092919080359060200190929190505050611784565b6040518080602001848152602001838152602001828103825285818151815260200191508051906020019080838360005b838110156107b957808201518184015260208101905061079e565b50505050905090810190601f1680156107e65780820380516001836020036101000a031916815260200191505b5094505050505060405180910390f35b61084c6004803603606081101561080c57600080fd5b8101908080359060200190929190803573ffffffffffffffffffffffffffffffffffffffff16906020019092919080359060200190929190505050611f6f565b6040518082815260200191505060405180910390f35b6108ae6004803603604081101561087857600080fd5b8101908080359060200190929190803573ffffffffffffffffffffffffffffffffffffffff169060200190929190505050611fa1565b6040518082815260200191505060405180910390f35b610910600480360360408110156108da57600080fd5b8101908080359060200190929190803573ffffffffffffffffffffffffffffffffffffffff169060200190929190505050611fc6565b6040518082600760200280838360005b8381101561093b578082015181840152602081019050610920565b5050505090500191505060405180910390f35b61095661232a565b604051808273ffffffffffffffffffffffffffffffffffffffff1673ffffffffffffffffffffffffffffffffffffffff16815260200191505060405180910390f35b6109ee600480360360608110156109ae57600080fd5b8101908080359060200190929190803573ffffffffffffffffffffffffffffffffffffffff16906020019092919080359060200190929190505050612350565b005b610a3260048036036020811015610a0657600080fd5b81019080803573ffffffffffffffffffffffffffffffffffffffff1690602001909291905050506123a0565b005b60026020528160005260406000208181548110610a4d57fe5b906000526020600020906002020160009150915050806000015490806001018054600181600116156101000203166002900480601f016020809104026020016040519081016040528092919081815260200182805460018160011615610100020316600290048015610b005780601f10610ad557610100808354040283529160200191610b00565b820191906000526020600020905b815481529060010190602001808311610ae357829003601f168201915b5050505050905082565b60046020528260005260406000206020528160005260406000208160078110610b2f57fe5b0160009250925050505481565b6007602052816000526040600020602052806000526040600020600091509150505481565b6040518060400160405280600b81526020017f47616d654d616e61676572000000000000000000000000000000000000000000815250610ba08161246e565b610bab848484612709565b837f50ad08f58a27f2851d7e3a1b3a6a46b290f2ce677e99642d30ff639721e7779060405160405180910390a250505050565b60056020528260005260406000206020528160005260406000208181548110610c0357fe5b9060005260206000200160009250925050505481565b6000610c2f600183612e7d90919063ffffffff16565b91506064610c47600143612e9990919063ffffffff16565b40424485604051602001808581526020018481526020018381526020018281526020019450505050506040516020818303038152906040528051906020012060001c81610c9057fe5b069050919050565b60008060008060006005600088815260200190815260200160002060008773ffffffffffffffffffffffffffffffffffffffff1673ffffffffffffffffffffffffffffffffffffffff16815260200190815260200160002080549050905060038111610d0357600080fd5b6005600088815260200190815260200160002060008773ffffffffffffffffffffffffffffffffffffffff1673ffffffffffffffffffffffffffffffffffffffff168152602001908152602001600020610d67600483612e9990919063ffffffff16565b81548110610d7157fe5b906000526020600020015494506005600088815260200190815260200160002060008773ffffffffffffffffffffffffffffffffffffffff1673ffffffffffffffffffffffffffffffffffffffff168152602001908152602001600020610de2600383612e9990919063ffffffff16565b81548110610dec57fe5b906000526020600020015493506005600088815260200190815260200160002060008773ffffffffffffffffffffffffffffffffffffffff1673ffffffffffffffffffffffffffffffffffffffff168152602001908152602001600020610e5d600283612e9990919063ffffffff16565b81548110610e6757fe5b906000526020600020015492506005600088815260200190815260200160002060008773ffffffffffffffffffffffffffffffffffffffff1673ffffffffffffffffffffffffffffffffffffffff168152602001908152602001600020610ed8600183612e9990919063ffffffff16565b81548110610ee257fe5b906000526020600020015491505092959194509250565b6040518060400160405280600b81526020017f47616d654d616e61676572000000000000000000000000000000000000000000815250610f388161246e565b6060600080600080600080610f4f8e8c8e8c611784565b809750819850829950505050600760008f815260200190815260200160002060008b73ffffffffffffffffffffffffffffffffffffffff1673ffffffffffffffffffffffffffffffffffffffff168152602001908152602001600020549250610fb88e8c611579565b9150600083118015610fca5750600382115b15610fdc57610fdb8e8d8d8d612eb0565b5b6000831415610ff95760009050610ff48e8c87613036565b611039565b60008311801561100f575061100e8e8b61118f565b5b1561102857600190506110238e8c8761310b565b611038565b600090506110378e8c87613036565b5b5b6110448e8c426131e0565b61104f8e8c8e61323a565b600760008f815260200190815260200160002060008c73ffffffffffffffffffffffffffffffffffffffff1673ffffffffffffffffffffffffffffffffffffffff168152602001908152602001600020549350600760008f815260200190815260200160002060008b73ffffffffffffffffffffffffffffffffffffffff1673ffffffffffffffffffffffffffffffffffffffff1681526020019081526020016000205492508a73ffffffffffffffffffffffffffffffffffffffff168d73ffffffffffffffffffffffffffffffffffffffff168f7f547013095835a95f4f37fe5316801ecb45dae17da071b6c264c029a3dbfdda3e8f8a868a8a60405180868152602001858152602001841515151581526020018381526020018281526020019550505050505060405180910390a45050505050505050505050505050565b6000806006600085815260200190815260200160002060008473ffffffffffffffffffffffffffffffffffffffff1673ffffffffffffffffffffffffffffffffffffffff1681526020019081526020016000205490506111f9600542612e9990919063ffffffff16565b811061120957600191505061120f565b60009150505b92915050565b61121d613313565b60006003600085815260200190815260200160002060008473ffffffffffffffffffffffffffffffffffffffff1673ffffffffffffffffffffffffffffffffffffffff16815260200190815260200160002060006007811061127b57fe5b0154905060006003600086815260200190815260200160002060008573ffffffffffffffffffffffffffffffffffffffff1673ffffffffffffffffffffffffffffffffffffffff1681526020019081526020016000206001600781106112dd57fe5b0154905060006003600087815260200190815260200160002060008673ffffffffffffffffffffffffffffffffffffffff1673ffffffffffffffffffffffffffffffffffffffff16815260200190815260200160002060026007811061133f57fe5b0154905060006003600088815260200190815260200160002060008773ffffffffffffffffffffffffffffffffffffffff1673ffffffffffffffffffffffffffffffffffffffff1681526020019081526020016000206003600781106113a157fe5b0154905060006003600089815260200190815260200160002060008873ffffffffffffffffffffffffffffffffffffffff1673ffffffffffffffffffffffffffffffffffffffff16815260200190815260200160002060046007811061140357fe5b015490506000600360008a815260200190815260200160002060008973ffffffffffffffffffffffffffffffffffffffff1673ffffffffffffffffffffffffffffffffffffffff16815260200190815260200160002060056007811061146557fe5b015490506000600360008b815260200190815260200160002060008a73ffffffffffffffffffffffffffffffffffffffff1673ffffffffffffffffffffffffffffffffffffffff1681526020019081526020016000206006600781106114c757fe5b0154905086886000600781106114d957fe5b60200201818152505085886001600781106114f057fe5b602002018181525050848860026007811061150757fe5b602002018181525050838860036007811061151e57fe5b602002018181525050828860046007811061153557fe5b602002018181525050818860056007811061154c57fe5b602002018181525050808860066007811061156357fe5b6020020181815250505050505050505092915050565b60006005600084815260200190815260200160002060008373ffffffffffffffffffffffffffffffffffffffff1673ffffffffffffffffffffffffffffffffffffffff16815260200190815260200160002080549050905092915050565b6000809054906101000a900473ffffffffffffffffffffffffffffffffffffffff1681565b6000806005600085815260200190815260200160002060008473ffffffffffffffffffffffffffffffffffffffff1673ffffffffffffffffffffffffffffffffffffffff168152602001908152602001600020805490509050600081141561166757600091506116e3565b6005600085815260200190815260200160002060008473ffffffffffffffffffffffffffffffffffffffff1673ffffffffffffffffffffffffffffffffffffffff1681526020019081526020016000206116cb600183612e9990919063ffffffff16565b815481106116d557fe5b906000526020600020015491505b5092915050565b6000809054906101000a900473ffffffffffffffffffffffffffffffffffffffff1673ffffffffffffffffffffffffffffffffffffffff163373ffffffffffffffffffffffffffffffffffffffff161461174057fe5b80600160006101000a81548173ffffffffffffffffffffffffffffffffffffffff021916908373ffffffffffffffffffffffffffffffffffffffff16021790555050565b6060600080600061179588886115fc565b9050808611611aeb5760006117a986610c19565b9050602181116118ba57600260008a81526020019081526020016000206000815481106117d257fe5b90600052602060002090600202016001018054600181600116156101000203166002900480601f0160208091040260200160405190810160405280929190818152602001828054600181600116156101000203166002900480156118775780601f1061184c57610100808354040283529160200191611877565b820191906000526020600020905b81548152906001019060200180831161185a57829003601f168201915b50505050509450600260008a815260200190815260200160002060008154811061189d57fe5b906000526020600020906002020160000154935060009250611ae5565b604281111580156118cb5750602181115b156119d757600260008a81526020019081526020016000206001815481106118ef57fe5b90600052602060002090600202016001018054600181600116156101000203166002900480601f0160208091040260200160405190810160405280929190818152602001828054600181600116156101000203166002900480156119945780601f1061196957610100808354040283529160200191611994565b820191906000526020600020905b81548152906001019060200180831161197757829003601f168201915b50505050509450600260008a81526020019081526020016000206001815481106119ba57fe5b906000526020600020906002020160000154935060019250611ae4565b6042811115611ae357600260008a81526020019081526020016000206002815481106119ff57fe5b90600052602060002090600202016001018054600181600116156101000203166002900480601f016020809104026020016040519081016040528092919081815260200182805460018160011615610100020316600290048015611aa45780601f10611a7957610100808354040283529160200191611aa4565b820191906000526020600020905b815481529060010190602001808311611a8757829003601f168201915b50505050509450600260008a8152602001908152602001600020600281548110611aca57fe5b9060005260206000209060020201600001549350600292505b5b5b50611f5b565b80861115611f5a576000611afe86610c19565b905060198111611c0f57600260008a8152602001908152602001600020600381548110611b2757fe5b90600052602060002090600202016001018054600181600116156101000203166002900480601f016020809104026020016040519081016040528092919081815260200182805460018160011615610100020316600290048015611bcc5780601f10611ba157610100808354040283529160200191611bcc565b820191906000526020600020905b815481529060010190602001808311611baf57829003601f168201915b50505050509450600260008a8152602001908152602001600020600381548110611bf257fe5b906000526020600020906002020160000154935060039250611f58565b601981118015611c20575060328111155b15611d2c57600260008a8152602001908152602001600020600481548110611c4457fe5b90600052602060002090600202016001018054600181600116156101000203166002900480601f016020809104026020016040519081016040528092919081815260200182805460018160011615610100020316600290048015611ce95780601f10611cbe57610100808354040283529160200191611ce9565b820191906000526020600020905b815481529060010190602001808311611ccc57829003601f168201915b50505050509450600260008a8152602001908152602001600020600481548110611d0f57fe5b906000526020600020906002020160000154935060049250611f57565b603281118015611d3d5750604b8111155b15611e4957600260008a8152602001908152602001600020600581548110611d6157fe5b90600052602060002090600202016001018054600181600116156101000203166002900480601f016020809104026020016040519081016040528092919081815260200182805460018160011615610100020316600290048015611e065780601f10611ddb57610100808354040283529160200191611e06565b820191906000526020600020905b815481529060010190602001808311611de957829003601f168201915b50505050509450600260008a8152602001908152602001600020600581548110611e2c57fe5b906000526020600020906002020160000154935060059250611f56565b604b811115611f5557600260008a8152602001908152602001600020600681548110611e7157fe5b90600052602060002090600202016001018054600181600116156101000203166002900480601f016020809104026020016040519081016040528092919081815260200182805460018160011615610100020316600290048015611f165780601f10611eeb57610100808354040283529160200191611f16565b820191906000526020600020905b815481529060010190602001808311611ef957829003601f168201915b50505050509450600260008a8152602001908152602001600020600681548110611f3c57fe5b9060005260206000209060020201600001549350600692505b5b5b5b505b5b838383935093509350509450945094915050565b60036020528260005260406000206020528160005260406000208160078110611f9457fe5b0160009250925050505481565b6006602052816000526040600020602052806000526040600020600091509150505481565b611fce613313565b60006004600085815260200190815260200160002060008473ffffffffffffffffffffffffffffffffffffffff1673ffffffffffffffffffffffffffffffffffffffff16815260200190815260200160002060006007811061202c57fe5b0154905060006004600086815260200190815260200160002060008573ffffffffffffffffffffffffffffffffffffffff1673ffffffffffffffffffffffffffffffffffffffff16815260200190815260200160002060016007811061208e57fe5b0154905060006004600087815260200190815260200160002060008673ffffffffffffffffffffffffffffffffffffffff1673ffffffffffffffffffffffffffffffffffffffff1681526020019081526020016000206002600781106120f057fe5b0154905060006004600088815260200190815260200160002060008773ffffffffffffffffffffffffffffffffffffffff1673ffffffffffffffffffffffffffffffffffffffff16815260200190815260200160002060036007811061215257fe5b0154905060006004600089815260200190815260200160002060008873ffffffffffffffffffffffffffffffffffffffff1673ffffffffffffffffffffffffffffffffffffffff1681526020019081526020016000206004600781106121b457fe5b015490506000600460008a815260200190815260200160002060008973ffffffffffffffffffffffffffffffffffffffff1673ffffffffffffffffffffffffffffffffffffffff16815260200190815260200160002060056007811061221657fe5b015490506000600460008b815260200190815260200160002060008a73ffffffffffffffffffffffffffffffffffffffff1673ffffffffffffffffffffffffffffffffffffffff16815260200190815260200160002060066007811061227857fe5b01549050868860006007811061228a57fe5b60200201818152505085886001600781106122a157fe5b60200201818152505084886002600781106122b857fe5b60200201818152505083886003600781106122cf57fe5b60200201818152505082886004600781106122e657fe5b60200201818152505081886005600781106122fd57fe5b602002018181525050808860066007811061231457fe5b6020020181815250505050505050505092915050565b600160009054906101000a900473ffffffffffffffffffffffffffffffffffffffff1681565b6040518060400160405280600b81526020017f47616d654d616e6167657200000000000000000000000000000000000000000081525061238f8161246e565b61239a8484846132b9565b50505050565b6000809054906101000a900473ffffffffffffffffffffffffffffffffffffffff1673ffffffffffffffffffffffffffffffffffffffff163373ffffffffffffffffffffffffffffffffffffffff16146123f657fe5b600073ffffffffffffffffffffffffffffffffffffffff168173ffffffffffffffffffffffffffffffffffffffff161461246b57806000806101000a81548173ffffffffffffffffffffffffffffffffffffffff021916908373ffffffffffffffffffffffffffffffffffffffff1602179055505b50565b600073ffffffffffffffffffffffffffffffffffffffff16600160009054906101000a900473ffffffffffffffffffffffffffffffffffffffff1673ffffffffffffffffffffffffffffffffffffffff161415612533576040517f08c379a00000000000000000000000000000000000000000000000000000000081526004018080602001828103825260088152602001807f4e6f2050726f787900000000000000000000000000000000000000000000000081525060200191505060405180910390fd5b6000600160009054906101000a900473ffffffffffffffffffffffffffffffffffffffff1673ffffffffffffffffffffffffffffffffffffffff166335817773836040518263ffffffff1660e01b81526004018080602001828103825283818151815260200191508051906020019080838360005b838110156125c35780820151818401526020810190506125a8565b50505050905090810190601f1680156125f05780820380516001836020036101000a031916815260200191505b509250505060206040518083038186803b15801561260d57600080fd5b505afa158015612621573d6000803e3d6000fd5b505050506040513d602081101561263757600080fd5b81019080805190602001909291905050509050600073ffffffffffffffffffffffffffffffffffffffff168173ffffffffffffffffffffffffffffffffffffffff16141561268157fe5b8073ffffffffffffffffffffffffffffffffffffffff163373ffffffffffffffffffffffffffffffffffffffff1614612705576040517f08c379a000000000000000000000000000000000000000000000000000000000815260040180806020018281038252602d8152602001806133db602d913960400191505060405180910390fd5b5050565b600061271e8284612e7d90919063ffffffff16565b905060008160405160200180828152602001807f6c6f7750756e636800000000000000000000000000000000000000000000000081525060080191505060405160208183030381529060405280519060200120905060008260405160200180828152602001807f6c6f774b69636b0000000000000000000000000000000000000000000000000081525060070191505060405160208183030381529060405280519060200120905060008360405160200180828152602001807f6c6f775468756e64657200000000000000000000000000000000000000000000815250600a0191505060405160208183030381529060405280519060200120905060008460405160200180828152602001807f6861726450756e6368000000000000000000000000000000000000000000000081525060090191505060405160208183030381529060405280519060200120905060008560405160200180828152602001807f686172644b69636b00000000000000000000000000000000000000000000000081525060080191505060405160208183030381529060405280519060200120905060008660405160200180828152602001807f686172645468756e646572000000000000000000000000000000000000000000815250600b0191505060405160208183030381529060405280519060200120905060008760405160200180828152602001807f736c617368000000000000000000000000000000000000000000000000000000815250600501915050604051602081830303815290604052805190602001209050600260008c815260200190815260200160002060405180604001604052808981526020016040518060400160405280600881526020017f6c6f7750756e636800000000000000000000000000000000000000000000000081525081525090806001815401808255809150509060018203906000526020600020906002020160009091929091909150600082015181600001556020820151816001019080519060200190612a13929190613335565b50505050600260008c815260200190815260200160002060405180604001604052808881526020016040518060400160405280600781526020017f6c6f774b69636b0000000000000000000000000000000000000000000000000081525081525090806001815401808255809150509060018203906000526020600020906002020160009091929091909150600082015181600001556020820151816001019080519060200190612ac5929190613335565b50505050600260008c815260200190815260200160002060405180604001604052808781526020016040518060400160405280600a81526020017f6c6f775468756e6465720000000000000000000000000000000000000000000081525081525090806001815401808255809150509060018203906000526020600020906002020160009091929091909150600082015181600001556020820151816001019080519060200190612b77929190613335565b50505050600260008c815260200190815260200160002060405180604001604052808681526020016040518060400160405280600981526020017f6861726450756e6368000000000000000000000000000000000000000000000081525081525090806001815401808255809150509060018203906000526020600020906002020160009091929091909150600082015181600001556020820151816001019080519060200190612c29929190613335565b50505050600260008c815260200190815260200160002060405180604001604052808581526020016040518060400160405280600881526020017f686172644b69636b00000000000000000000000000000000000000000000000081525081525090806001815401808255809150509060018203906000526020600020906002020160009091929091909150600082015181600001556020820151816001019080519060200190612cdb929190613335565b50505050600260008c815260200190815260200160002060405180604001604052808481526020016040518060400160405280600b81526020017f686172645468756e64657200000000000000000000000000000000000000000081525081525090806001815401808255809150509060018203906000526020600020906002020160009091929091909150600082015181600001556020820151816001019080519060200190612d8d929190613335565b50505050600260008c815260200190815260200160002060405180604001604052808381526020016040518060400160405280600581526020017f736c61736800000000000000000000000000000000000000000000000000000081525081525090806001815401808255809150509060018203906000526020600020906002020160009091929091909150600082015181600001556020820151816001019080519060200190612e3f929190613335565b505050508a7f3976b17a8e569af047875ed873c85d86496824421b9c29d2400e982c1254b37860405160405180910390a25050505050505050505050565b600080828401905083811015612e8f57fe5b8091505092915050565b600082821115612ea557fe5b818303905092915050565b60006007600086815260200190815260200160002060008373ffffffffffffffffffffffffffffffffffffffff1673ffffffffffffffffffffffffffffffffffffffff1681526020019081526020016000205411612f76576040517f08c379a000000000000000000000000000000000000000000000000000000000815260040180806020018281038252601d8152602001807f446566656e7365206c6576656c20697320616c7265616479207a65726f00000081525060200191505060405180910390fd5b6000806000806000612f888988610c98565b93509350935093508088118015612f9e57508181115b8015612fa957508282115b8015612fb457508383115b1561302b5761301d6001600760008c815260200190815260200160002060008973ffffffffffffffffffffffffffffffffffffffff1673ffffffffffffffffffffffffffffffffffffffff16815260200190815260200160002054612e9990919063ffffffff16565b945061302a8987876132b9565b5b505050505050505050565b6130a660016003600086815260200190815260200160002060008573ffffffffffffffffffffffffffffffffffffffff1673ffffffffffffffffffffffffffffffffffffffff168152602001908152602001600020836007811061309657fe5b0154612e7d90919063ffffffff16565b6003600085815260200190815260200160002060008473ffffffffffffffffffffffffffffffffffffffff1673ffffffffffffffffffffffffffffffffffffffff168152602001908152602001600020826007811061310157fe5b0181905550505050565b61317b60016004600086815260200190815260200160002060008573ffffffffffffffffffffffffffffffffffffffff1673ffffffffffffffffffffffffffffffffffffffff168152602001908152602001600020836007811061316b57fe5b0154612e7d90919063ffffffff16565b6004600085815260200190815260200160002060008473ffffffffffffffffffffffffffffffffffffffff1673ffffffffffffffffffffffffffffffffffffffff16815260200190815260200160002082600781106131d657fe5b0181905550505050565b806006600085815260200190815260200160002060008473ffffffffffffffffffffffffffffffffffffffff1673ffffffffffffffffffffffffffffffffffffffff16815260200190815260200160002081905550505050565b6005600084815260200190815260200160002060008373ffffffffffffffffffffffffffffffffffffffff1673ffffffffffffffffffffffffffffffffffffffff168152602001908152602001600020819080600181540180825580915050906001820390600052602060002001600090919290919091505550505050565b806007600085815260200190815260200160002060008473ffffffffffffffffffffffffffffffffffffffff1673ffffffffffffffffffffffffffffffffffffffff16815260200190815260200160002081905550505050565b6040518060e00160405280600790602082028038833980820191505090505090565b828054600181600116156101000203166002900490600052602060002090601f016020900481019282601f1061337657805160ff19168380011785556133a4565b828001600101855582156133a4579182015b828111156133a3578251825591602001919060010190613388565b5b5090506133b191906133b5565b5090565b6133d791905b808211156133d35760008160009055506001016133bb565b5090565b9056fe416363657373206973206f6e6c7920616c6c6f7765642066726f6d20737065636966696320636f6e7472616374a265627a7a723158200fc8a48d10647b854a48983ce3015eeaa9634a45573575d7a243884667a0ae7264736f6c63430005110032",
  "source": "/**\r\n * @title Betting\r\n *\r\n * @author @kittieFIGHT @ola @Xalee @wafflemakr\r\n *\r\n */\r\n//modifier class (DSAuth )\r\n//Event class ( DSNote )\r\n//\r\n// This program is free software: you can redistribute it and/or modify\r\n// it under the terms of the GNU General Public License as published by\r\n// the Free Software Foundation, either version 3 of the License, or\r\n// (at your option) any later version.\r\n\r\n// This program is distributed in the hope that it will be useful,\r\n// but WITHOUT ANY WARRANTY; without even the implied warranty of\r\n// MERCHANTABILITY or FITNESS FOR A PARTICULAR PURPOSE.  See the\r\n// GNU General Public License for more details.\r\n\r\n// You should have received a copy of the GNU General Public License\r\n// along with this program.  If not, see <http://www.gnu.org/licenses/>.\r\npragma solidity ^0.5.5;\r\n\r\nimport \"../proxy/Proxied.sol\";\r\nimport \"../../authority/Guard.sol\";\r\nimport \"../../libs/SafeMath.sol\";\r\nimport \"./RarityCalculator.sol\";\r\n\r\n/**\r\n * @title This contract is responsible to carry out the betting module in a game\r\n * @author @ziweidream\r\n */\r\n\r\ncontract Betting is Proxied, Guard {\r\n    using SafeMath for uint256;\r\n\r\n    ///fight map for a game with a specific gameId\r\n     struct HitType {\r\n        bytes32 hash;\r\n        string attack;\r\n     }\r\n    mapping(uint256 => HitType[]) public fightMap;\r\n\r\n    /// total number of direct attacks of each hitType of the given corner in a game\r\n     mapping(uint256 => mapping(address => uint256[7])) public directAttacksScored;\r\n    /// total number of blocked attacks of each hitType of the given corner in a game\r\n    mapping(uint256 => mapping(address => uint256[7])) public blockedAttacksScored;\r\n    /// individual bets placed by the given corner in a game\r\n    mapping(uint256 => mapping(address => uint256[])) public bets;\r\n    /// timestamp of the last bet placed by the given corner in a game\r\n    mapping(uint256 => mapping(address => uint256)) public lastBetTimestamp;\r\n    /// current defense level of the given corner in a game\r\n    mapping(uint256 => mapping(address => uint256)) public defenseLevel;\r\n\r\n    // setFightMap() is internal. Temporarily set as public for truffle test purpose.\r\n    /**\r\n     * @author @ziweidream\r\n     * @notice set fight map for a game with a specific gameId\r\n     * @param _gameId the gameID of the game for which the fight map is generated\r\n     * @param _randomRed random number generated when the red corner presses Button start\r\n     * @param _randomBlack black number generated when the black corner presses Button start\r\n     */\r\n    function setFightMap(uint256 _gameId, uint256 _randomRed, uint256 _randomBlack)\r\n        internal\r\n    {\r\n        uint randomNum = _randomRed.add(_randomBlack);\r\n        bytes32 hashLowPunch = keccak256(abi.encodePacked(randomNum, \"lowPunch\"));\r\n        bytes32 hashLowKick = keccak256(abi.encodePacked(randomNum, \"lowKick\"));\r\n        bytes32 hashLowThunder = keccak256(abi.encodePacked(randomNum, \"lowThunder\"));\r\n        bytes32 hashHardPunch = keccak256(abi.encodePacked(randomNum, \"hardPunch\"));\r\n        bytes32 hashHardKick = keccak256(abi.encodePacked(randomNum, \"hardKick\"));\r\n        bytes32 hashHardThunder = keccak256(abi.encodePacked(randomNum, \"hardThunder\"));\r\n        bytes32 hashSlash = keccak256(abi.encodePacked(randomNum, \"slash\"));\r\n        fightMap[_gameId].push(HitType(hashLowPunch, \"lowPunch\"));\r\n        fightMap[_gameId].push(HitType(hashLowKick, \"lowKick\"));\r\n        fightMap[_gameId].push(HitType(hashLowThunder, \"lowThunder\"));\r\n        fightMap[_gameId].push(HitType(hashHardPunch, \"hardPunch\"));\r\n        fightMap[_gameId].push(HitType(hashHardKick, \"hardKick\"));\r\n        fightMap[_gameId].push(HitType(hashHardThunder, \"hardThunder\"));\r\n        fightMap[_gameId].push(HitType(hashSlash, \"slash\"));\r\n\r\n        emit FightMapGenerated(_gameId);\r\n    }\r\n\r\n    // setDirectAttacksScored() is internal. Temporarily set as public for truffle test purpose.\r\n    /**\r\n     * @author @ziweidream\r\n     * @notice record the total number of direct attacks of each hitType of the given corner in a game\r\n     * @param _gameId the gameID of the game\r\n     * @param _player the given corner in this game for whom the total number of the direct attacks are recorded\r\n     * @param index the index in the mapping directAttacksScored. The index is obtained in function getAttackType()\r\n     */\r\n    function setDirectAttacksScored(\r\n          uint256 _gameId,\r\n          address _player,\r\n          uint256 index\r\n          )\r\n          internal\r\n          {\r\n            directAttacksScored[_gameId][_player][index] = directAttacksScored[_gameId][_player][index].add(1);\r\n          }\r\n\r\n    // setBlockedAttacksScored() is internal. Temporarily set as public for truffle test purpose.\r\n    /**\r\n     * @author @ziweidream\r\n     * @notice record the total number of blocked attacks of each hitType of the given corner in a game\r\n     * @param _gameId the gameID of the game\r\n     * @param _player the given corner in this game for whom the total number of the blocked attacks are recorded\r\n     * @param index the index in the mapping blockedAttacksScored. The index is obtained in function getAttackType()\r\n     */\r\n    function setBlockedAttacksScored(\r\n          uint256 _gameId,\r\n          address _player,\r\n          uint256 index\r\n          )\r\n          internal\r\n          {\r\n            blockedAttacksScored[_gameId][_player][index] = blockedAttacksScored[_gameId][_player][index].add(1);\r\n          }\r\n\r\n    // get the total number of direct attacks of each hitType of the given corner in a game\r\n    /**\r\n     * @author @ziweidream\r\n     * @notice get the total number of direct attacks of each hitType of the given corner in a game\r\n     * @param _gameId the gameID of the game\r\n     * @param _player the given corner in this game for whom the total number of the direct attacks are obtained\r\n     * @return an array of fixed size 7 directAttacks, which contains the total number of direct attacks of each hitType\r\n     * of the given corner in this game\r\n     */\r\n    function getDirectAttacksScored(uint256 _gameId, address _player)\r\n        public\r\n        view\r\n        returns(\r\n            uint256[7] memory directAttacks\r\n            )\r\n        {\r\n            uint256 totalLowPunch = directAttacksScored[_gameId][_player][0];\r\n            uint256 totalLowKick = directAttacksScored[_gameId][_player][1];\r\n            uint256 totalLowThunder = directAttacksScored[_gameId][_player][2];\r\n            uint256 totalHardPunch = directAttacksScored[_gameId][_player][3];\r\n            uint256 totalHardKick = directAttacksScored[_gameId][_player][4];\r\n            uint256 totalHardThunder = directAttacksScored[_gameId][_player][5];\r\n            uint256 totalSlash = directAttacksScored[_gameId][_player][6];\r\n            directAttacks[0] = totalLowPunch;\r\n            directAttacks[1] = totalLowKick;\r\n            directAttacks[2] = totalLowThunder;\r\n            directAttacks[3] = totalHardPunch;\r\n            directAttacks[4] = totalHardKick;\r\n            directAttacks[5] = totalHardThunder;\r\n            directAttacks[6] = totalSlash;\r\n          }\r\n\r\n      // get the total number of blocked attacks of each hitType of the given corner in a game\r\n      /**\r\n       * @author @ziweidream\r\n       * @notice get the total number of blocked attacks of each hitType of the given corner in a game\r\n       * @param _gameId the gameID of the game\r\n       * @param _player the given corner in this game for whom the total number of the blocked attacks are obtained\r\n       * @return an array of fixed size 7 blockedAttacks, which contains the total number of blocked attacks of each hitType\r\n       * of the given corner in this game\r\n       */\r\n      function getBlockedAttacksScored(uint256 _gameId, address _player)\r\n          public\r\n          view\r\n          returns(\r\n              uint256[7] memory blockedAttacks\r\n              )\r\n          {\r\n              uint256 totalLowPunch = blockedAttacksScored[_gameId][_player][0];\r\n              uint256 totalLowKick = blockedAttacksScored[_gameId][_player][1];\r\n              uint256 totalLowThunder = blockedAttacksScored[_gameId][_player][2];\r\n              uint256 totalHardPunch = blockedAttacksScored[_gameId][_player][3];\r\n              uint256 totalHardKick = blockedAttacksScored[_gameId][_player][4];\r\n              uint256 totalHardThunder = blockedAttacksScored[_gameId][_player][5];\r\n              uint256 totalSlash = blockedAttacksScored[_gameId][_player][6];\r\n              blockedAttacks[0] = totalLowPunch;\r\n              blockedAttacks[1] = totalLowKick;\r\n              blockedAttacks[2] = totalLowThunder;\r\n              blockedAttacks[3] = totalHardPunch;\r\n              blockedAttacks[4] = totalHardKick;\r\n              blockedAttacks[5] = totalHardThunder;\r\n              blockedAttacks[6] = totalSlash;\r\n          }\r\n\r\n    // fillBets() is internal. Temporarily set as public for truffle test purpose.\r\n   /**\r\n    * @author @ziweidream\r\n    * @notice record the bet ether amount of each individual bet placed by the given corner\r\n    * in a game with a specific gameId\r\n    * @param _gameId the gameID of the game\r\n    * @param _player the given corner in this game for whom the individual bet ether amount is recorded\r\n    * @param _betAmount the ether amount of the bet placed by the given corner\r\n    */\r\n    function fillBets(uint256 _gameId, address _player, uint256 _betAmount)\r\n        internal\r\n    {\r\n      bets[_gameId][_player].push(_betAmount);\r\n    }\r\n\r\n   /**\r\n    * @author @ziweidream\r\n    * @notice get the number of total bets placed by the given corner in a game\r\n    * with a specific gameId\r\n    * @param _gameId the gameID of the game\r\n    * @param _player the given corner in this game whose individual bet ether amount is recorded\r\n    * @return the number of total bets placed by the given corner in a game\r\n    */\r\n    function getNumberOfBets(uint256 _gameId, address _player)\r\n       public\r\n       view\r\n       returns(uint256 num)\r\n    {\r\n        num = bets[_gameId][_player].length;\r\n    }\r\n\r\n   /**\r\n    * @author @ziweidream\r\n    * @notice get the ether amount of the last 5 bets placed by the given corner in a game\r\n    * with a specific gameId\r\n    * @dev lastBet1 is the last bet, lastBet2 is the second last bet, and so forth\r\n    * @param _gameId the gameID of the game\r\n    * @param _player the given corner in this game whose last 4 bets amount are displayed\r\n    * @return the last 5 bet ether amount by the given corner in a game\r\n    */\r\n    function getLastFourBets(uint256 _gameId, address _player)\r\n        public\r\n        view\r\n        returns(uint256 lastBet4, uint256 lastBet3, uint256 lastBet2, uint256 lastBet1)\r\n    {\r\n      uint256 arrLength = bets[_gameId][_player].length;\r\n      require(arrLength > 3);\r\n      lastBet4 = bets[_gameId][_player][arrLength.sub(4)];\r\n      lastBet3 = bets[_gameId][_player][arrLength.sub(3)];\r\n      lastBet2 = bets[_gameId][_player][arrLength.sub(2)];\r\n      lastBet1 = bets[_gameId][_player][arrLength.sub(1)];\r\n  }\r\n\r\n    /**\r\n    * @author @ziweidream\r\n    * @notice get the ether amount of the last bet placed by the given corner in a game\r\n    * with a specific gameId\r\n    * @dev if the given corner has never placed a bet in this game yet, the last bet amount is 0\r\n    * @param _gameId the gameID of the game\r\n    * @param _player the given corner in this game whose last bet ether amount is displayed\r\n    * @return the last bet ether amount by the given corner in a game\r\n    */\r\n    function getLastBet(uint256 _gameId, address _player)\r\n        public\r\n        view\r\n        returns(uint256 lastBet)\r\n    {\r\n        uint256 arrLen = bets[_gameId][_player].length;\r\n        if (arrLen == 0 ) {\r\n            lastBet = 0;\r\n        } else {\r\n            lastBet = bets[_gameId][_player][arrLen.sub(1)];\r\n        }\r\n    }\r\n\r\n    \r\n    /**\r\n    * @author @ziweidream\r\n    * @notice record the last bet timestamp for the given corner in a game with a specific gameId\r\n    * @param _gameId the gameID of the game\r\n    * @param _player the given corner in this game whose last bet timestamp is recorded\r\n    * @param _lastBetTimestamp the timestamp of the last bet placed by the given corner in the game\r\n    */\r\n    function setLastBetTimestamp(uint256 _gameId, address _player, uint256 _lastBetTimestamp)\r\n        internal\r\n    {\r\n        lastBetTimestamp[_gameId][_player] = _lastBetTimestamp;\r\n    }\r\n\r\n   /**\r\n    * @author @ziweidream\r\n    * @notice record the current defense level of the given corner in a game with a specific gameId\r\n    * @param _gameId the gameID of the game\r\n    * @param _player the given corner in this game for whom the defense level is recorded\r\n    */\r\n    function setDefenseLevel(uint256 _gameId, address _player, uint _defense)\r\n        internal\r\n    {\r\n        defenseLevel[_gameId][_player] = _defense;\r\n    }\r\n\r\n    /**\r\n    * @author @ziweidream\r\n    * @notice record the original defense level of the given corner in a game with a specific gameId\r\n    * @dev this function is only called by GameManager contract\r\n    * @param _gameId the gameID of the game\r\n    * @param _player the address of the given corner in this game for whom the defense level is recorded\r\n    * @param _originalDefenseLevel the original defense level of the given corner, which is calculated in\r\n    * the function startGame() in GameManager\r\n    */\r\n    function setOriginalDefenseLevel(uint256 _gameId, address _player, uint256 _originalDefenseLevel)\r\n        public\r\n        onlyContract(CONTRACT_NAME_GAMEMANAGER)\r\n    {\r\n        setDefenseLevel(_gameId, _player, _originalDefenseLevel);\r\n    }\r\n\r\n   /**\r\n    * @author @ziweidream\r\n    * @notice randomly select attack types from low values column or high values column depending on\r\n    * the bet ether amount by the given corner in a game with a specific gameId\r\n    * @param _gameId the gameID of the game\r\n    * @param _supportedPlayer the given corner in this game for whom the attack type is randomly selected\r\n    * @param _lastBetAmount the last bet ether amount placed by the supported player in the game\r\n    * @param _randomNum the random number generated by the front end when Button bet is pressed by the given corner\r\n    * @return the attackType randomly selected for the given corner, the attackHash for the attackType selected,\r\n    * and the index of the attackHash returned in the fight map\r\n    */\r\n    function getAttackType(\r\n        uint256 _gameId,\r\n        address _supportedPlayer,\r\n        uint256 _lastBetAmount,\r\n        uint256 _randomNum)\r\n        public view\r\n        returns (\r\n            string memory attackType,\r\n            bytes32 attackHash,\r\n            uint256 index\r\n        ){\r\n        uint256 prevBetAmount = getLastBet(_gameId, _supportedPlayer);\r\n        // lower ether than previous bet? one attack is chosen randomly from lowAttacksColumn\r\n        if (_lastBetAmount <= prevBetAmount) {\r\n            uint256 diceLowValues = randomGen(_randomNum);\r\n            if (diceLowValues <= 33) {\r\n                attackType = fightMap[_gameId][0].attack;\r\n                attackHash = fightMap[_gameId][0].hash;\r\n                index = 0;\r\n            } else if (diceLowValues <= 66 && diceLowValues > 33) {\r\n                attackType = fightMap[_gameId][1].attack;\r\n                attackHash = fightMap[_gameId][1].hash;\r\n                index = 1;\r\n            } else if (diceLowValues > 66) {\r\n                attackType = fightMap[_gameId][2].attack;\r\n                attackHash = fightMap[_gameId][2].hash;\r\n                index = 2;\r\n            }\r\n        } else if (_lastBetAmount > prevBetAmount) {\r\n             // higher ether than previous bet? one attack is chosen randomly from highAttacksColumn\r\n            uint256 diceHardValues = randomGen(_randomNum);\r\n            if (diceHardValues <= 25) {\r\n                attackType = fightMap[_gameId][3].attack;\r\n                attackHash = fightMap[_gameId][3].hash;\r\n                index = 3;\r\n            } else if (diceHardValues > 25 && diceHardValues <= 50) {\r\n                attackType = fightMap[_gameId][4].attack;\r\n                attackHash = fightMap[_gameId][4].hash;\r\n                index = 4;\r\n            } else if (diceHardValues > 50 && diceHardValues <= 75) {\r\n                attackType = fightMap[_gameId][5].attack;\r\n                attackHash = fightMap[_gameId][5].hash;\r\n                index = 5;\r\n            } else if (diceHardValues > 75) {\r\n                attackType = fightMap[_gameId][6].attack;\r\n                attackHash = fightMap[_gameId][6].hash;\r\n                index = 6;\r\n            }\r\n        }\r\n        return (attackType, attackHash, index);\r\n    }\r\n\r\n    // determine whether the attack type is blocked or direct\r\n    // if opponent's defence level = 0, all attacks are direct\r\n    // if opponent has been inactive for more than 5 seconds since last bet, attack is direct. Otherwise the attack is blocked.\r\n   /**\r\n    * @author @ziweidream\r\n    * @notice determine whether the attack type by the supported player is blocked or direct in a game with a specific gameId\r\n    * @param _gameId the gameID of the game\r\n    * @param _opponentPlayer the address of the opponent player in this game\r\n    * @return true if the attack type is blocked, false if it is direct\r\n    */\r\n    function isAttackBlocked(uint256 _gameId, address _opponentPlayer) public view returns(bool) {\r\n        uint256 _lastBetTimestamp = lastBetTimestamp[_gameId][_opponentPlayer];\r\n        // If opponent has been inactive for more than 5 seconds since last bet, attack is direct.\r\n        // Otherwise it is blocked.\r\n        if(_lastBetTimestamp >= now.sub(5)) {\r\n            return true;\r\n        }\r\n        return false;\r\n    }\r\n\r\n     // the defense level of an oppoent is reduced each time\r\n     // a bet is received from attacker and the last five bets are compared on the condition to see\r\n     // if each bet was bigger than the previous bet in progression.\r\n     // reduceDefenseLevel() is internal. Temporarily set as public for truffle test purpose.\r\n   /**\r\n    * @author @ziweidream\r\n    * @notice reduce the defense level of the opponent if each of the last 5 bets ether amount from\r\n    * the attacker was consecutively bigger than the previous one in a game with a specific gameId\r\n    * @param _gameId the gameID of the game\r\n    * @param _supportedPlayer the address of the supported player in this game\r\n    * whose last 5 bets ether amount are compared\r\n    * @param _opponentPlayer the address of the opponent player in this game\r\n    * whose defense level is reduced if contidions stated above are met\r\n    */\r\n     function reduceDefenseLevel(\r\n        uint256 _gameId,\r\n        uint256 _lastBetAmount,\r\n        address _supportedPlayer,\r\n        address _opponentPlayer\r\n        )\r\n        internal\r\n        {\r\n        require(defenseLevel[_gameId][_opponentPlayer] > 0, \"Defense level is already zero\");\r\n        uint256 defenseLevelOpponent;\r\n        (uint256 lastBet4, uint256 lastBet3, uint256 lastBet2, uint256 lastBet1) = getLastFourBets(_gameId, _supportedPlayer);\r\n        if (_lastBetAmount > lastBet1 && lastBet1 > lastBet2 && lastBet2 > lastBet3 && lastBet3 > lastBet4) {\r\n            defenseLevelOpponent = defenseLevel[_gameId][_opponentPlayer].sub(1);\r\n            setDefenseLevel(_gameId, _opponentPlayer, defenseLevelOpponent);\r\n        }\r\n    }\r\n\r\n    /**\r\n     * @author @ziweidream\r\n     * @notice generates a random number from 0 to 100 based on the last block hash, blocktime, block difficulty, and seed\r\n     * @return The random number generated\r\n     */\r\n    function randomGen(uint256 seed) public view returns (uint256 randomNumber) {\r\n        seed = seed.add(1);\r\n        randomNumber = uint256(keccak256(abi.encodePacked(blockhash(block.number.sub(1)), block.timestamp, block.difficulty, seed)))%100;\r\n    }\r\n\r\n    // temporarily comment out onlyContract(CONTRACT_NAME_GAMEMANAGER) \r\n   /**\r\n    * @author @ziweidream\r\n    * @notice generates a fight map for a game with a specific gameId, and calculates the original defense levels\r\n    * of both corners in this game\r\n    * @dev this function can only be called by the GameManager contract\r\n    * @param _gameId the gameID of the game\r\n    * @param _randomRed the random number generated when the Red corner presses the Button Bet\r\n    * @param _randomBlack the random number generated when the Black corner presses the Button Bet\r\n    */\r\n    function startGame(\r\n        uint256 _gameId,\r\n        uint256 _randomRed,\r\n        uint256 _randomBlack\r\n        )\r\n        public\r\n        onlyContract(CONTRACT_NAME_GAMEMANAGER)\r\n    {\r\n        setFightMap(_gameId, _randomRed, _randomBlack);\r\n        emit GameStarted(_gameId);\r\n    }\r\n\r\n    // temporarily comment out onlyContract(CONTRACT_NAME_GAMEMANAGER)\r\n   /**\r\n    * @author @ziweidream\r\n    * @notice determines the attack type, attackHash, and current opponent defense level partially\r\n    * depending on the effect of each bet placed by the given corner in a game with a specific gameId\r\n    * @dev this function can only be called by the GameManager contract\r\n    * @param _gameId the gameID of the game\r\n    * @param _bettor the address of the bettor who placed the bet\r\n    * @param _lastBetAmount the last bet ether amount placed by the supported player in the game\r\n    * @param _supportedPlayer the address of the supported player in the game\r\n    * @param _opponentPlayer the address of the opponent player in the game\r\n    * @param _randomNum the random number generated when the supported player presses Button Bet\r\n    * in the game\r\n    */\r\n    function bet(\r\n        uint256 _gameId,\r\n        address _bettor,\r\n        uint256 _lastBetAmount,\r\n        address _supportedPlayer,\r\n        address _opponentPlayer,\r\n        uint256 _randomNum)\r\n        public\r\n        onlyContract(CONTRACT_NAME_GAMEMANAGER)\r\n    {\r\n        string memory attackType;\r\n        bytes32 attackHash;\r\n        uint256 index;\r\n        uint256 defenseLevelSupportedPlayer;\r\n        uint256 defenseLevelOpponent;\r\n        uint256 numberOfBets;\r\n        bool isBlocked;\r\n\r\n        (attackType, attackHash, index) = getAttackType(_gameId, _supportedPlayer, _lastBetAmount, _randomNum);\r\n\r\n        defenseLevelOpponent = defenseLevel[_gameId][_opponentPlayer];\r\n\r\n        numberOfBets = getNumberOfBets(_gameId, _supportedPlayer);\r\n\r\n        if (defenseLevelOpponent > 0 && numberOfBets > 3) {\r\n           reduceDefenseLevel(_gameId, _lastBetAmount, _supportedPlayer, _opponentPlayer);\r\n        }\r\n\r\n        if (defenseLevelOpponent == 0) {\r\n            isBlocked = false;\r\n            setDirectAttacksScored(_gameId, _supportedPlayer, index);\r\n        } else if(defenseLevelOpponent > 0 && isAttackBlocked(_gameId, _opponentPlayer)) {\r\n            isBlocked = true;\r\n            setBlockedAttacksScored(_gameId, _supportedPlayer, index);\r\n        } else {\r\n            isBlocked = false;\r\n            setDirectAttacksScored(_gameId, _supportedPlayer, index);\r\n        }\r\n\r\n        setLastBetTimestamp(_gameId, _supportedPlayer, now);\r\n        fillBets(_gameId, _supportedPlayer, _lastBetAmount);\r\n\r\n        defenseLevelSupportedPlayer = defenseLevel[_gameId][_supportedPlayer];\r\n        defenseLevelOpponent = defenseLevel[_gameId][_opponentPlayer];\r\n\r\n        emit BetPlaced(\r\n            _gameId,\r\n            _bettor,\r\n            _lastBetAmount,\r\n            _supportedPlayer,\r\n            attackHash,\r\n            isBlocked,\r\n            defenseLevelSupportedPlayer,\r\n            defenseLevelOpponent\r\n            );\r\n    }\r\n\r\n    event GameStarted(uint256 indexed _gameId);\r\n\r\n    event FightMapGenerated(uint256 indexed _gameId);\r\n\r\n    event BetPlaced(\r\n        uint256 indexed _gameId,\r\n        address indexed _bettor,\r\n        uint256 _lastBetAmount,\r\n        address indexed _supportedPlyer,\r\n        bytes32 attackHash,\r\n        bool isBlocked,\r\n        uint256 defenseLevelSupportedPlayer,\r\n        uint256 defenseLevelOpponent);\r\n}\r\n",
  "sourcePath": "C:\\Users\\Alex\\Desktop\\MyProjects\\contracts\\contracts\\modules\\algorithm\\Betting.sol",
  "compiler": {
    "name": "solc",
    "version": "0.5.17+commit.d19bba13.Emscripten.clang"
  },
  "schemaVersion": "3.0.11",
  "updatedAt": "2020-05-07T16:31:54.894Z",
  "devdoc": {
    "author": "@ziweidream",
    "methods": {
      "bet(uint256,address,uint256,address,address,uint256)": {
        "author": "@ziweidream",
        "details": "this function can only be called by the GameManager contract",
        "params": {
          "_bettor": "the address of the bettor who placed the bet",
          "_gameId": "the gameID of the game",
          "_lastBetAmount": "the last bet ether amount placed by the supported player in the game",
          "_opponentPlayer": "the address of the opponent player in the game",
          "_randomNum": "the random number generated when the supported player presses Button Bet in the game",
          "_supportedPlayer": "the address of the supported player in the game"
        }
      },
      "getAttackType(uint256,address,uint256,uint256)": {
        "author": "@ziweidream",
        "params": {
          "_gameId": "the gameID of the game",
          "_lastBetAmount": "the last bet ether amount placed by the supported player in the game",
          "_randomNum": "the random number generated by the front end when Button bet is pressed by the given corner",
          "_supportedPlayer": "the given corner in this game for whom the attack type is randomly selected"
        },
        "return": "the attackType randomly selected for the given corner, the attackHash for the attackType selected, and the index of the attackHash returned in the fight map"
      },
      "getBlockedAttacksScored(uint256,address)": {
        "author": "@ziweidream",
        "params": {
          "_gameId": "the gameID of the game",
          "_player": "the given corner in this game for whom the total number of the blocked attacks are obtained"
        },
        "return": "an array of fixed size 7 blockedAttacks, which contains the total number of blocked attacks of each hitType of the given corner in this game"
      },
      "getDirectAttacksScored(uint256,address)": {
        "author": "@ziweidream",
        "params": {
          "_gameId": "the gameID of the game",
          "_player": "the given corner in this game for whom the total number of the direct attacks are obtained"
        },
        "return": "an array of fixed size 7 directAttacks, which contains the total number of direct attacks of each hitType of the given corner in this game"
      },
      "getLastBet(uint256,address)": {
        "author": "@ziweidream",
        "details": "if the given corner has never placed a bet in this game yet, the last bet amount is 0",
        "params": {
          "_gameId": "the gameID of the game",
          "_player": "the given corner in this game whose last bet ether amount is displayed"
        },
        "return": "the last bet ether amount by the given corner in a game"
      },
      "getLastFourBets(uint256,address)": {
        "author": "@ziweidream",
        "details": "lastBet1 is the last bet, lastBet2 is the second last bet, and so forth",
        "params": {
          "_gameId": "the gameID of the game",
          "_player": "the given corner in this game whose last 4 bets amount are displayed"
        },
        "return": "the last 5 bet ether amount by the given corner in a game"
      },
      "getNumberOfBets(uint256,address)": {
        "author": "@ziweidream",
        "params": {
          "_gameId": "the gameID of the game",
          "_player": "the given corner in this game whose individual bet ether amount is recorded"
        },
        "return": "the number of total bets placed by the given corner in a game"
      },
      "isAttackBlocked(uint256,address)": {
        "author": "@ziweidream",
        "params": {
          "_gameId": "the gameID of the game",
          "_opponentPlayer": "the address of the opponent player in this game"
        },
        "return": "true if the attack type is blocked, false if it is direct"
      },
      "randomGen(uint256)": {
        "author": "@ziweidream",
        "return": "The random number generated"
      },
      "setOriginalDefenseLevel(uint256,address,uint256)": {
        "author": "@ziweidream",
        "details": "this function is only called by GameManager contract",
        "params": {
          "_gameId": "the gameID of the game",
          "_originalDefenseLevel": "the original defense level of the given corner, which is calculated in the function startGame() in GameManager",
          "_player": "the address of the given corner in this game for whom the defense level is recorded"
        }
      },
      "startGame(uint256,uint256,uint256)": {
        "author": "@ziweidream",
        "details": "this function can only be called by the GameManager contract",
        "params": {
          "_gameId": "the gameID of the game",
          "_randomBlack": "the random number generated when the Black corner presses the Button Bet",
          "_randomRed": "the random number generated when the Red corner presses the Button Bet"
        }
      }
    },
    "title": "This contract is responsible to carry out the betting module in a game"
  },
  "userdoc": {
    "methods": {
      "bet(uint256,address,uint256,address,address,uint256)": {
        "notice": "determines the attack type, attackHash, and current opponent defense level partially depending on the effect of each bet placed by the given corner in a game with a specific gameId"
      },
      "getAttackType(uint256,address,uint256,uint256)": {
        "notice": "randomly select attack types from low values column or high values column depending on the bet ether amount by the given corner in a game with a specific gameId"
      },
      "getBlockedAttacksScored(uint256,address)": {
        "notice": "get the total number of blocked attacks of each hitType of the given corner in a game"
      },
      "getDirectAttacksScored(uint256,address)": {
        "notice": "get the total number of direct attacks of each hitType of the given corner in a game"
      },
      "getLastBet(uint256,address)": {
        "notice": "get the ether amount of the last bet placed by the given corner in a game with a specific gameId"
      },
      "getLastFourBets(uint256,address)": {
        "notice": "get the ether amount of the last 5 bets placed by the given corner in a game with a specific gameId"
      },
      "getNumberOfBets(uint256,address)": {
        "notice": "get the number of total bets placed by the given corner in a game with a specific gameId"
      },
      "isAttackBlocked(uint256,address)": {
        "notice": "determine whether the attack type by the supported player is blocked or direct in a game with a specific gameId"
      },
      "randomGen(uint256)": {
        "notice": "generates a random number from 0 to 100 based on the last block hash, blocktime, block difficulty, and seed"
      },
      "setOriginalDefenseLevel(uint256,address,uint256)": {
        "notice": "record the original defense level of the given corner in a game with a specific gameId"
      },
      "setProxy(address)": {
        "notice": "Set/update address of Proxy contract"
      },
      "startGame(uint256,uint256,uint256)": {
        "notice": "generates a fight map for a game with a specific gameId, and calculates the original defense levels of both corners in this game"
      }
    }
  }
}