{
  "contractName": "BNum",
  "abi": [
    {
      "constant": true,
      "inputs": [],
      "name": "BONE",
      "outputs": [
        {
          "internalType": "uint256",
          "name": "",
          "type": "uint256"
        }
      ],
      "payable": false,
      "stateMutability": "view",
      "type": "function"
    },
    {
      "constant": true,
      "inputs": [],
      "name": "BPOW_PRECISION",
      "outputs": [
        {
          "internalType": "uint256",
          "name": "",
          "type": "uint256"
        }
      ],
      "payable": false,
      "stateMutability": "view",
      "type": "function"
    },
    {
      "constant": true,
      "inputs": [],
      "name": "EXIT_FEE",
      "outputs": [
        {
          "internalType": "uint256",
          "name": "",
          "type": "uint256"
        }
      ],
      "payable": false,
      "stateMutability": "view",
      "type": "function"
    },
    {
      "constant": true,
      "inputs": [],
      "name": "INIT_POOL_SUPPLY",
      "outputs": [
        {
          "internalType": "uint256",
          "name": "",
          "type": "uint256"
        }
      ],
      "payable": false,
      "stateMutability": "view",
      "type": "function"
    },
    {
      "constant": true,
      "inputs": [],
      "name": "MAX_BOUND_TOKENS",
      "outputs": [
        {
          "internalType": "uint256",
          "name": "",
          "type": "uint256"
        }
      ],
      "payable": false,
      "stateMutability": "view",
      "type": "function"
    },
    {
      "constant": true,
      "inputs": [],
      "name": "MAX_BPOW_BASE",
      "outputs": [
        {
          "internalType": "uint256",
          "name": "",
          "type": "uint256"
        }
      ],
      "payable": false,
      "stateMutability": "view",
      "type": "function"
    },
    {
      "constant": true,
      "inputs": [],
      "name": "MAX_FEE",
      "outputs": [
        {
          "internalType": "uint256",
          "name": "",
          "type": "uint256"
        }
      ],
      "payable": false,
      "stateMutability": "view",
      "type": "function"
    },
    {
      "constant": true,
      "inputs": [],
      "name": "MAX_IN_RATIO",
      "outputs": [
        {
          "internalType": "uint256",
          "name": "",
          "type": "uint256"
        }
      ],
      "payable": false,
      "stateMutability": "view",
      "type": "function"
    },
    {
      "constant": true,
      "inputs": [],
      "name": "MAX_OUT_RATIO",
      "outputs": [
        {
          "internalType": "uint256",
          "name": "",
          "type": "uint256"
        }
      ],
      "payable": false,
      "stateMutability": "view",
      "type": "function"
    },
    {
      "constant": true,
      "inputs": [],
      "name": "MAX_TOTAL_WEIGHT",
      "outputs": [
        {
          "internalType": "uint256",
          "name": "",
          "type": "uint256"
        }
      ],
      "payable": false,
      "stateMutability": "view",
      "type": "function"
    },
    {
      "constant": true,
      "inputs": [],
      "name": "MAX_WEIGHT",
      "outputs": [
        {
          "internalType": "uint256",
          "name": "",
          "type": "uint256"
        }
      ],
      "payable": false,
      "stateMutability": "view",
      "type": "function"
    },
    {
      "constant": true,
      "inputs": [],
      "name": "MIN_BALANCE",
      "outputs": [
        {
          "internalType": "uint256",
          "name": "",
          "type": "uint256"
        }
      ],
      "payable": false,
      "stateMutability": "view",
      "type": "function"
    },
    {
      "constant": true,
      "inputs": [],
      "name": "MIN_BOUND_TOKENS",
      "outputs": [
        {
          "internalType": "uint256",
          "name": "",
          "type": "uint256"
        }
      ],
      "payable": false,
      "stateMutability": "view",
      "type": "function"
    },
    {
      "constant": true,
      "inputs": [],
      "name": "MIN_BPOW_BASE",
      "outputs": [
        {
          "internalType": "uint256",
          "name": "",
          "type": "uint256"
        }
      ],
      "payable": false,
      "stateMutability": "view",
      "type": "function"
    },
    {
      "constant": true,
      "inputs": [],
      "name": "MIN_FEE",
      "outputs": [
        {
          "internalType": "uint256",
          "name": "",
          "type": "uint256"
        }
      ],
      "payable": false,
      "stateMutability": "view",
      "type": "function"
    },
    {
      "constant": true,
      "inputs": [],
      "name": "MIN_WEIGHT",
      "outputs": [
        {
          "internalType": "uint256",
          "name": "",
          "type": "uint256"
        }
      ],
      "payable": false,
      "stateMutability": "view",
      "type": "function"
    },
    {
      "constant": true,
      "inputs": [],
      "name": "getColor",
      "outputs": [
        {
          "internalType": "bytes32",
          "name": "",
          "type": "bytes32"
        }
      ],
      "payable": false,
      "stateMutability": "view",
      "type": "function"
    }
  ],
  "bytecode": "0x608060405234801561001057600080fd5b50610288806100206000396000f3fe608060405234801561001057600080fd5b506004361061010b5760003560e01c8063b0e0d136116100a2578063bc694ea211610071578063bc694ea214610182578063c36596a614610132578063c6580d121461018a578063e4a28a5214610110578063ec093021146101925761010b565b8063b0e0d13614610162578063b7b800a41461016a578063ba019dab14610172578063bc063e1a1461017a5761010b565b8063867378c5116100de578063867378c5146101425780639381cd2b1461014a578063992e2a92146101525780639a86139b1461015a5761010b565b806309a3bbe414610110578063189d00ca1461012a578063218b53821461013257806376c7a3c71461013a575b600080fd5b61011861019a565b60408051918252519081900360200190f35b6101186101a7565b6101186101bb565b6101186101c7565b6101186101d9565b6101186101ed565b6101186101fa565b610118610206565b610118610213565b610118610218565b61011861021d565b610118610222565b610118610232565b61011861023e565b610118610243565b6802b5e3af16b188000081565b6402540be400670de0b6b3a76400005b0481565b670de0b6b3a764000081565b620f4240670de0b6b3a76400006101b7565b64e8d4a51000670de0b6b3a76400006101b7565b68056bc75e2d6310000081565b6704a03ce68d21555681565b6542524f4e5a4560d01b90565b600881565b600281565b600181565b600a670de0b6b3a76400006101b7565b671bc16d674ec7ffff81565b600081565b6002670de0b6b3a76400006101b756fea265627a7a723158204a76306ed3cf89a8101e1cd9abcee3e44d206645a56b4b63b4c9294be854652b64736f6c63430005110032",
  "source": "// This program is free software: you can redistribute it and/or modify\n// it under the terms of the GNU General Public License as published by\n// the Free Software Foundation, either version 3 of the License, or\n// (at your option) any later version.\n\n// This program is distributed in the hope that it will be useful,\n// but WITHOUT ANY WARRANTY; without even the implied warranty of\n// MERCHANTABILITY or FITNESS FOR A PARTICULAR PURPOSE.  See the\n// GNU General Public License for more details.\n\n// You should have received a copy of the GNU General Public License\n// along with this program.  If not, see <http://www.gnu.org/licenses/>.\n\npragma solidity ^0.5.5;\n\nimport \"./BConst.sol\";\n\ncontract BNum is BConst {\n\n    function btoi(uint a)\n        internal pure \n        returns (uint)\n    {\n        return a / BONE;\n    }\n\n    function bfloor(uint a)\n        internal pure\n        returns (uint)\n    {\n        return btoi(a) * BONE;\n    }\n\n    function badd(uint a, uint b)\n        internal pure\n        returns (uint)\n    {\n        uint c = a + b;\n        require(c >= a, \"ERR_ADD_OVERFLOW\");\n        return c;\n    }\n\n    function bsub(uint a, uint b)\n        internal pure\n        returns (uint)\n    {\n        (uint c, bool flag) = bsubSign(a, b);\n        require(!flag, \"ERR_SUB_UNDERFLOW\");\n        return c;\n    }\n\n    function bsubSign(uint a, uint b)\n        internal pure\n        returns (uint, bool)\n    {\n        if (a >= b) {\n            return (a - b, false);\n        } else {\n            return (b - a, true);\n        }\n    }\n\n    function bmul(uint a, uint b)\n        internal pure\n        returns (uint)\n    {\n        uint c0 = a * b;\n        require(a == 0 || c0 / a == b, \"ERR_MUL_OVERFLOW\");\n        uint c1 = c0 + (BONE / 2);\n        require(c1 >= c0, \"ERR_MUL_OVERFLOW\");\n        uint c2 = c1 / BONE;\n        return c2;\n    }\n\n    function bdiv(uint a, uint b)\n        internal pure\n        returns (uint)\n    {\n        require(b != 0, \"ERR_DIV_ZERO\");\n        uint c0 = a * BONE;\n        require(a == 0 || c0 / a == BONE, \"ERR_DIV_INTERNAL\"); // bmul overflow\n        uint c1 = c0 + (b / 2);\n        require(c1 >= c0, \"ERR_DIV_INTERNAL\"); //  badd require\n        uint c2 = c1 / b;\n        return c2;\n    }\n\n    // DSMath.wpow\n    function bpowi(uint a, uint n)\n        internal pure\n        returns (uint)\n    {\n        uint z = n % 2 != 0 ? a : BONE;\n\n        for (n /= 2; n != 0; n /= 2) {\n            a = bmul(a, a);\n\n            if (n % 2 != 0) {\n                z = bmul(z, a);\n            }\n        }\n        return z;\n    }\n\n    // Compute b^(e.w) by splitting it into (b^e)*(b^0.w).\n    // Use `bpowi` for `b^e` and `bpowK` for k iterations\n    // of approximation of b^0.w\n    function bpow(uint base, uint exp)\n        internal pure\n        returns (uint)\n    {\n        require(base >= MIN_BPOW_BASE, \"ERR_BPOW_BASE_TOO_LOW\");\n        require(base <= MAX_BPOW_BASE, \"ERR_BPOW_BASE_TOO_HIGH\");\n\n        uint whole  = bfloor(exp);   \n        uint remain = bsub(exp, whole);\n\n        uint wholePow = bpowi(base, btoi(whole));\n\n        if (remain == 0) {\n            return wholePow;\n        }\n\n        uint partialResult = bpowApprox(base, remain, BPOW_PRECISION);\n        return bmul(wholePow, partialResult);\n    }\n\n    function bpowApprox(uint base, uint exp, uint precision)\n        internal pure\n        returns (uint)\n    {\n        // term 0:\n        uint a     = exp;\n        (uint x, bool xneg)  = bsubSign(base, BONE);\n        uint term = BONE;\n        uint sum   = term;\n        bool negative = false;\n\n\n        // term(k) = numer / denom \n        //         = (product(a - i - 1, i=1-->k) * x^k) / (k!)\n        // each iteration, multiply previous term by (a-(k-1)) * x / k\n        // continue until term is less than precision\n        for (uint i = 1; term >= precision; i++) {\n            uint bigK = i * BONE;\n            (uint c, bool cneg) = bsubSign(a, bsub(bigK, BONE));\n            term = bmul(term, bmul(c, x));\n            term = bdiv(term, bigK);\n            if (term == 0) break;\n\n            if (xneg) negative = !negative;\n            if (cneg) negative = !negative;\n            if (negative) {\n                sum = bsub(sum, term);\n            } else {\n                sum = badd(sum, term);\n            }\n        }\n\n        return sum;\n    }\n\n}\n",
  "sourcePath": "/Users/ziweizhang/Desktop/kittifight-balancer/contracts/contracts/balancer/core/BNum.sol",
  "compiler": {
    "name": "solc",
    "version": "0.5.17+commit.d19bba13.Emscripten.clang"
  },
  "schemaVersion": "3.0.23",
  "updatedAt": "2020-05-30T17:52:58.007Z",
  "devdoc": {
    "methods": {}
  },
  "userdoc": {
    "methods": {}
  }
}