{
  "contractName": "CattributesScoresDB",
  "abi": [
    {
      "constant": true,
      "inputs": [],
      "name": "owner",
      "outputs": [
        {
          "name": "",
          "type": "address"
        }
      ],
      "payable": false,
      "stateMutability": "view",
      "type": "function"
    },
    {
      "constant": false,
      "inputs": [
        {
          "name": "_proxy",
          "type": "address"
        }
      ],
      "name": "setProxy",
      "outputs": [],
      "payable": false,
      "stateMutability": "nonpayable",
      "type": "function"
    },
    {
      "constant": true,
      "inputs": [
        {
          "name": "",
          "type": "string"
        }
      ],
      "name": "CattributesScores",
      "outputs": [
        {
          "name": "",
          "type": "uint256"
        }
      ],
      "payable": false,
      "stateMutability": "view",
      "type": "function"
    },
    {
      "constant": true,
      "inputs": [],
      "name": "proxy",
      "outputs": [
        {
          "name": "",
          "type": "address"
        }
      ],
      "payable": false,
      "stateMutability": "view",
      "type": "function"
    },
    {
      "constant": false,
      "inputs": [
        {
          "name": "newOwner",
          "type": "address"
        }
      ],
      "name": "transferOwnership",
      "outputs": [],
      "payable": false,
      "stateMutability": "nonpayable",
      "type": "function"
    },
    {
      "constant": false,
      "inputs": [
        {
          "name": "_totalKitties",
          "type": "uint256"
        }
      ],
      "name": "updateTotalKitties",
      "outputs": [],
      "payable": false,
      "stateMutability": "nonpayable",
      "type": "function"
    },
    {
      "constant": false,
      "inputs": [
        {
          "name": "_name",
          "type": "string"
        },
        {
          "name": "_score",
          "type": "uint256"
        }
      ],
      "name": "updateCattributesScores",
      "outputs": [],
      "payable": false,
      "stateMutability": "nonpayable",
      "type": "function"
    }
  ],
  "bytecode": "0x6080604052336000806101000a81548173ffffffffffffffffffffffffffffffffffffffff021916908373ffffffffffffffffffffffffffffffffffffffff160217905550610af1806100536000396000f3fe608060405234801561001057600080fd5b506004361061007d5760003560e01c8063ec5568891161005b578063ec556889146101df578063f29a1b3714610229578063f2fde38b146102ee578063fb51a0ad146103325761007d565b80638da5cb5b1461008257806397107d6d146100cc578063d4c950c414610110575b600080fd5b61008a610360565b604051808273ffffffffffffffffffffffffffffffffffffffff1673ffffffffffffffffffffffffffffffffffffffff16815260200191505060405180910390f35b61010e600480360360208110156100e257600080fd5b81019080803573ffffffffffffffffffffffffffffffffffffffff169060200190929190505050610385565b005b6101c96004803603602081101561012657600080fd5b810190808035906020019064010000000081111561014357600080fd5b82018360208201111561015557600080fd5b8035906020019184600183028401116401000000008311171561017757600080fd5b91908080601f016020809104026020016040519081016040528093929190818152602001838380828437600081840152601f19601f82011690508083019250505050505050919291929050505061041f565b6040518082815260200191505060405180910390f35b6101e761044d565b604051808273ffffffffffffffffffffffffffffffffffffffff1673ffffffffffffffffffffffffffffffffffffffff16815260200191505060405180910390f35b6102ec6004803603604081101561023f57600080fd5b810190808035906020019064010000000081111561025c57600080fd5b82018360208201111561026e57600080fd5b8035906020019184600183028401116401000000008311171561029057600080fd5b91908080601f016020809104026020016040519081016040528093929190818152602001838380828437600081840152601f19601f82011690508083019250505050505050919291929080359060200190929190505050610473565b005b6103306004803603602081101561030457600080fd5b81019080803573ffffffffffffffffffffffffffffffffffffffff1690602001909291905050506105cc565b005b61035e6004803603602081101561034857600080fd5b810190808035906020019092919050505061069a565b005b6000809054906101000a900473ffffffffffffffffffffffffffffffffffffffff1681565b6000809054906101000a900473ffffffffffffffffffffffffffffffffffffffff1673ffffffffffffffffffffffffffffffffffffffff163373ffffffffffffffffffffffffffffffffffffffff16146103db57fe5b80600160006101000a81548173ffffffffffffffffffffffffffffffffffffffff021916908373ffffffffffffffffffffffffffffffffffffffff16021790555050565b6003818051602081018201805184825260208301602085012081835280955050505050506000915090505481565b600160009054906101000a900473ffffffffffffffffffffffffffffffffffffffff1681565b600073ffffffffffffffffffffffffffffffffffffffff163373ffffffffffffffffffffffffffffffffffffffff1614156104aa57fe5b6104e86040518060400160405280600b81526020017f73757065725f61646d696e00000000000000000000000000000000000000000081525061078b565b61055a576040517f08c379a00000000000000000000000000000000000000000000000000000000081526004018080602001828103825260108152602001807f4f6e6c792073757065722061646d696e0000000000000000000000000000000081525060200191505060405180910390fd5b806003836040518082805190602001908083835b60208310610591578051825260208201915060208101905060208303925061056e565b6001836020036101000a0380198251168184511680821785525050505050509050019150509081526020016040518091039020819055505050565b6000809054906101000a900473ffffffffffffffffffffffffffffffffffffffff1673ffffffffffffffffffffffffffffffffffffffff163373ffffffffffffffffffffffffffffffffffffffff161461062257fe5b600073ffffffffffffffffffffffffffffffffffffffff168173ffffffffffffffffffffffffffffffffffffffff161461069757806000806101000a81548173ffffffffffffffffffffffffffffffffffffffff021916908373ffffffffffffffffffffffffffffffffffffffff1602179055505b50565b600073ffffffffffffffffffffffffffffffffffffffff163373ffffffffffffffffffffffffffffffffffffffff1614156106d157fe5b61070f6040518060400160405280600b81526020017f73757065725f61646d696e00000000000000000000000000000000000000000081525061078b565b610781576040517f08c379a00000000000000000000000000000000000000000000000000000000081526004018080602001828103825260108152602001807f4f6e6c792073757065722061646d696e0000000000000000000000000000000081525060200191505060405180910390fd5b8060028190555050565b6000600160009054906101000a900473ffffffffffffffffffffffffffffffffffffffff1673ffffffffffffffffffffffffffffffffffffffff1663358177736040518060400160405280600681526020017f526f6c65444200000000000000000000000000000000000000000000000000008152506040518263ffffffff1660e01b81526004018080602001828103825283818151815260200191508051906020019080838360005b83811015610850578082015181840152602081019050610835565b50505050905090810190601f16801561087d5780820380516001836020036101000a031916815260200191505b509250505060206040518083038186803b15801561089a57600080fd5b505afa1580156108ae573d6000803e3d6000fd5b505050506040513d60208110156108c457600080fd5b810190808051906020019092919050505073ffffffffffffffffffffffffffffffffffffffff16636c9cd097836108f9610a07565b6040518363ffffffff1660e01b815260040180806020018373ffffffffffffffffffffffffffffffffffffffff1673ffffffffffffffffffffffffffffffffffffffff168152602001828103825284818151815260200191508051906020019080838360005b8381101561097a57808201518184015260208101905061095f565b50505050905090810190601f1680156109a75780820380516001836020036101000a031916815260200191505b50935050505060206040518083038186803b1580156109c557600080fd5b505afa1580156109d9573d6000803e3d6000fd5b505050506040513d60208110156109ef57600080fd5b81019080805190602001909291905050509050919050565b6000600160009054906101000a900473ffffffffffffffffffffffffffffffffffffffff1673ffffffffffffffffffffffffffffffffffffffff163373ffffffffffffffffffffffffffffffffffffffff1614610a6657339050610ab9565b6000601436036000602052601481602c37602051915050600073ffffffffffffffffffffffffffffffffffffffff168173ffffffffffffffffffffffffffffffffffffffff161415610ab457fe5b809150505b9056fea265627a7a72305820c146f78cbe56f06382e455f94ae0dd722bf46cf2e95e7d54b1f338078e8a90ed64736f6c634300050a0032",
  "source": "pragma solidity ^0.5.5;\n\nimport \"../../proxy/Proxied.sol\";\nimport \"../../../authority/Guard.sol\";\n\n/**\n * @title This contract is a database stroing cattributes and each cattribute's score\n * @author @ziweidream\n */\ncontract CattributesScoresDB is Proxied, Guard {\n    /* This is the totoal number of all the kitties on CryptoKitties */\n    uint256 totalKitties;\n\n    mapping(string => uint) public CattributesScores;\n\n    function updateTotalKitties(uint256 _totalKitties)\n        public\n        onlySuperAdmin\n    {\n        totalKitties = _totalKitties;\n    }\n\n    /**\n     * @author @ziweidream\n     * @notice mapping a cattribute with its score\n     * @dev this db needs to beupdated periodically.\n     * @dev https://api.cryptokitties.co/cattributes\n     * @param _name the cattribute's name\n     * @param _score the cattribute's score\n     */\n    function updateCattributesScores(string memory _name, uint _score)\n        public  // temporarily set as public just for truffle test purpose\n        // internal\n        onlySuperAdmin\n    {\n        CattributesScores[_name] = _score;\n    }\n}",
  "sourcePath": "/home/ziwei/Documents/kittieFight-new/algorithm/alpha/contracts/modules/algorithm/RarityCalculationDBs/CattributesScoresDB.sol",
  "compiler": {
    "name": "solc",
    "version": "0.5.10+commit.5a6ea5b1.Emscripten.clang"
  },
  "schemaVersion": "3.0.11",
  "updatedAt": "2019-08-03T21:08:52.099Z",
  "devdoc": {
    "author": "@ziweidream",
    "methods": {
      "updateCattributesScores(string,uint256)": {
        "author": "@ziweidream",
        "details": "this db needs to beupdated periodically.https://api.cryptokitties.co/cattributes",
        "params": {
          "_name": "the cattribute's name",
          "_score": "the cattribute's score"
        }
      }
    },
    "title": "This contract is a database stroing cattributes and each cattribute's score"
  },
  "userdoc": {
    "methods": {
      "setProxy(address)": {
        "notice": "Set/update address of Proxy contract"
      },
      "updateCattributesScores(string,uint256)": {
        "notice": "mapping a cattribute with its score"
      }
    }
  }
}