{
  "contractName": "CattributesScoresDB",
  "abi": [
    {
      "constant": true,
      "inputs": [
        {
          "name": "",
          "type": "string"
        }
      ],
      "name": "CattributesScores",
      "outputs": [
        {
          "name": "",
          "type": "uint256"
        }
      ],
      "payable": false,
      "stateMutability": "view",
      "type": "function"
    },
    {
      "constant": false,
      "inputs": [
        {
          "name": "_totalKitties",
          "type": "uint256"
        }
      ],
      "name": "updateTotalKitties",
      "outputs": [],
      "payable": false,
      "stateMutability": "nonpayable",
      "type": "function"
    },
    {
      "constant": false,
      "inputs": [
        {
          "name": "_name",
          "type": "string"
        },
        {
          "name": "_score",
          "type": "uint256"
        }
      ],
      "name": "updateCattributesScores",
      "outputs": [],
      "payable": false,
      "stateMutability": "nonpayable",
      "type": "function"
    }
  ],
  "bytecode": "0x608060405234801561001057600080fd5b506102e7806100206000396000f3fe608060405234801561001057600080fd5b50600436106100415760003560e01c8063d4c950c414610046578063f29a1b3714610115578063fb51a0ad146101da575b600080fd5b6100ff6004803603602081101561005c57600080fd5b810190808035906020019064010000000081111561007957600080fd5b82018360208201111561008b57600080fd5b803590602001918460018302840111640100000000831117156100ad57600080fd5b91908080601f016020809104026020016040519081016040528093929190818152602001838380828437600081840152601f19601f820116905080830192505050505050509192919290505050610208565b6040518082815260200191505060405180910390f35b6101d86004803603604081101561012b57600080fd5b810190808035906020019064010000000081111561014857600080fd5b82018360208201111561015a57600080fd5b8035906020019184600183028401116401000000008311171561017c57600080fd5b91908080601f016020809104026020016040519081016040528093929190818152602001838380828437600081840152601f19601f82011690508083019250505050505050919291929080359060200190929190505050610236565b005b610206600480360360208110156101f057600080fd5b81019080803590602001909291905050506102a8565b005b6001818051602081018201805184825260208301602085012081835280955050505050506000915090505481565b806001836040518082805190602001908083835b6020831061026d578051825260208201915060208101905060208303925061024a565b6001836020036101000a0380198251168184511680821785525050505050509050019150509081526020016040518091039020819055505050565b806000819055505056fea265627a7a72305820aed2d8fa77ba7a28fd5ef3ef34882dcc6a0d8293a889c26f4b33dca23e1daa7564736f6c634300050a0032",
  "source": "pragma solidity ^0.5.5;\n\n/**\n * @title This contract is a database stroing cattributes and each cattribute's score\n * @author @ziweidream\n */\ncontract CattributesScoresDB {\n    /* This is the totoal number of all the kitties on CryptoKitties */\n    uint256 totalKitties;\n\n    mapping(string => uint) public CattributesScores;\n\n    function updateTotalKitties(uint256 _totalKitties)\n        public\n        //onlySuperAdmin\n    {\n        totalKitties = _totalKitties;\n    }\n\n    /**\n     * @author @ziweidream\n     * @notice mapping a cattribute with its score\n     * @dev this db needs to beupdated periodically.\n     * @dev https://api.cryptokitties.co/cattributes\n     * @param _name the cattribute's name\n     * @param _score the cattribute's score\n     */\n    function updateCattributesScores(string memory _name, uint _score)\n        public  // temporarily set as public just for truffle test purpose\n        // internal\n        //onlySuperAdmin\n    {\n        CattributesScores[_name] = _score;\n    }\n}",
  "sourcePath": "/home/wafflemakr/Desktop/KittieFight/alpha/contracts/modules/algorithm/RarityCalculationDBs/CattributesScoresDB.sol",
  "compiler": {
    "name": "solc",
    "version": "0.5.10+commit.5a6ea5b1.Emscripten.clang"
  },
  "schemaVersion": "3.0.11",
  "updatedAt": "2019-08-02T23:07:11.154Z",
  "devdoc": {
    "author": "@ziweidream",
    "methods": {
      "updateCattributesScores(string,uint256)": {
        "author": "@ziweidream",
        "details": "this db needs to beupdated periodically.https://api.cryptokitties.co/cattributes",
        "params": {
          "_name": "the cattribute's name",
          "_score": "the cattribute's score"
        }
      }
    },
    "title": "This contract is a database stroing cattributes and each cattribute's score"
  },
  "userdoc": {
    "methods": {
      "updateCattributesScores(string,uint256)": {
        "notice": "mapping a cattribute with its score"
      }
    }
  }
}