{
  "contractName": "CronJobProxy",
  "abi": [
    {
      "anonymous": false,
      "inputs": [],
      "name": "CronJobExecutionFailed",
      "type": "event"
    },
    {
      "constant": false,
      "inputs": [
        {
          "internalType": "string",
          "name": "name",
          "type": "string"
        },
        {
          "internalType": "address",
          "name": "contractAddress",
          "type": "address"
        }
      ],
      "name": "addContract",
      "outputs": [],
      "payable": false,
      "stateMutability": "nonpayable",
      "type": "function"
    },
    {
      "constant": true,
      "inputs": [],
      "name": "addressOfBetting",
      "outputs": [
        {
          "internalType": "address",
          "name": "",
          "type": "address"
        }
      ],
      "payable": false,
      "stateMutability": "view",
      "type": "function"
    },
    {
      "constant": true,
      "inputs": [],
      "name": "addressOfCronJob",
      "outputs": [
        {
          "internalType": "address",
          "name": "",
          "type": "address"
        }
      ],
      "payable": false,
      "stateMutability": "view",
      "type": "function"
    },
    {
      "constant": true,
      "inputs": [],
      "name": "addressOfDAI",
      "outputs": [
        {
          "internalType": "address",
          "name": "",
          "type": "address"
        }
      ],
      "payable": false,
      "stateMutability": "view",
      "type": "function"
    },
    {
      "constant": true,
      "inputs": [],
      "name": "addressOfDaiWethOracle",
      "outputs": [
        {
          "internalType": "address",
          "name": "",
          "type": "address"
        }
      ],
      "payable": false,
      "stateMutability": "view",
      "type": "function"
    },
    {
      "constant": true,
      "inputs": [],
      "name": "addressOfDaiWethPair",
      "outputs": [
        {
          "internalType": "address",
          "name": "",
          "type": "address"
        }
      ],
      "payable": false,
      "stateMutability": "view",
      "type": "function"
    },
    {
      "constant": true,
      "inputs": [],
      "name": "addressOfDistribution",
      "outputs": [
        {
          "internalType": "address",
          "name": "",
          "type": "address"
        }
      ],
      "payable": false,
      "stateMutability": "view",
      "type": "function"
    },
    {
      "constant": true,
      "inputs": [],
      "name": "addressOfEarningsTracker",
      "outputs": [
        {
          "internalType": "address",
          "name": "",
          "type": "address"
        }
      ],
      "payable": false,
      "stateMutability": "view",
      "type": "function"
    },
    {
      "constant": true,
      "inputs": [],
      "name": "addressOfEndowmentDB",
      "outputs": [
        {
          "internalType": "address",
          "name": "",
          "type": "address"
        }
      ],
      "payable": false,
      "stateMutability": "view",
      "type": "function"
    },
    {
      "constant": true,
      "inputs": [],
      "name": "addressOfEndowmentFund",
      "outputs": [
        {
          "internalType": "address",
          "name": "",
          "type": "address"
        }
      ],
      "payable": false,
      "stateMutability": "view",
      "type": "function"
    },
    {
      "constant": true,
      "inputs": [],
      "name": "addressOfEthieToken",
      "outputs": [
        {
          "internalType": "address",
          "name": "",
          "type": "address"
        }
      ],
      "payable": false,
      "stateMutability": "view",
      "type": "function"
    },
    {
      "constant": true,
      "inputs": [],
      "name": "addressOfForfeiter",
      "outputs": [
        {
          "internalType": "address",
          "name": "",
          "type": "address"
        }
      ],
      "payable": false,
      "stateMutability": "view",
      "type": "function"
    },
    {
      "constant": true,
      "inputs": [],
      "name": "addressOfGMGetterDB",
      "outputs": [
        {
          "internalType": "address",
          "name": "",
          "type": "address"
        }
      ],
      "payable": false,
      "stateMutability": "view",
      "type": "function"
    },
    {
      "constant": true,
      "inputs": [],
      "name": "addressOfGMSetterDB",
      "outputs": [
        {
          "internalType": "address",
          "name": "",
          "type": "address"
        }
      ],
      "payable": false,
      "stateMutability": "view",
      "type": "function"
    },
    {
      "constant": true,
      "inputs": [],
      "name": "addressOfGameManager",
      "outputs": [
        {
          "internalType": "address",
          "name": "",
          "type": "address"
        }
      ],
      "payable": false,
      "stateMutability": "view",
      "type": "function"
    },
    {
      "constant": true,
      "inputs": [],
      "name": "addressOfGameVarAndFee",
      "outputs": [
        {
          "internalType": "address",
          "name": "",
          "type": "address"
        }
      ],
      "payable": false,
      "stateMutability": "view",
      "type": "function"
    },
    {
      "constant": true,
      "inputs": [],
      "name": "addressOfHitsResolve",
      "outputs": [
        {
          "internalType": "address",
          "name": "",
          "type": "address"
        }
      ],
      "payable": false,
      "stateMutability": "view",
      "type": "function"
    },
    {
      "constant": true,
      "inputs": [],
      "name": "addressOfHoneypotAllocationAlgo",
      "outputs": [
        {
          "internalType": "address",
          "name": "",
          "type": "address"
        }
      ],
      "payable": false,
      "stateMutability": "view",
      "type": "function"
    },
    {
      "constant": true,
      "inputs": [],
      "name": "addressOfKittieHell",
      "outputs": [
        {
          "internalType": "address",
          "name": "",
          "type": "address"
        }
      ],
      "payable": false,
      "stateMutability": "view",
      "type": "function"
    },
    {
      "constant": true,
      "inputs": [],
      "name": "addressOfKittieHellDB",
      "outputs": [
        {
          "internalType": "address",
          "name": "",
          "type": "address"
        }
      ],
      "payable": false,
      "stateMutability": "view",
      "type": "function"
    },
    {
      "constant": true,
      "inputs": [],
      "name": "addressOfKtyUniswap",
      "outputs": [
        {
          "internalType": "address",
          "name": "",
          "type": "address"
        }
      ],
      "payable": false,
      "stateMutability": "view",
      "type": "function"
    },
    {
      "constant": true,
      "inputs": [],
      "name": "addressOfKtyWethOracle",
      "outputs": [
        {
          "internalType": "address",
          "name": "",
          "type": "address"
        }
      ],
      "payable": false,
      "stateMutability": "view",
      "type": "function"
    },
    {
      "constant": true,
      "inputs": [],
      "name": "addressOfProfileDB",
      "outputs": [
        {
          "internalType": "address",
          "name": "",
          "type": "address"
        }
      ],
      "payable": false,
      "stateMutability": "view",
      "type": "function"
    },
    {
      "constant": true,
      "inputs": [],
      "name": "addressOfRarityCalculator",
      "outputs": [
        {
          "internalType": "address",
          "name": "",
          "type": "address"
        }
      ],
      "payable": false,
      "stateMutability": "view",
      "type": "function"
    },
    {
      "constant": true,
      "inputs": [],
      "name": "addressOfRegister",
      "outputs": [
        {
          "internalType": "address",
          "name": "",
          "type": "address"
        }
      ],
      "payable": false,
      "stateMutability": "view",
      "type": "function"
    },
    {
      "constant": true,
      "inputs": [],
      "name": "addressOfRoleDB",
      "outputs": [
        {
          "internalType": "address",
          "name": "",
          "type": "address"
        }
      ],
      "payable": false,
      "stateMutability": "view",
      "type": "function"
    },
    {
      "constant": true,
      "inputs": [],
      "name": "addressOfScheduler",
      "outputs": [
        {
          "internalType": "address",
          "name": "",
          "type": "address"
        }
      ],
      "payable": false,
      "stateMutability": "view",
      "type": "function"
    },
    {
      "constant": true,
      "inputs": [],
      "name": "addressOfTimeContract",
      "outputs": [
        {
          "internalType": "address",
          "name": "",
          "type": "address"
        }
      ],
      "payable": false,
      "stateMutability": "view",
      "type": "function"
    },
    {
      "constant": true,
      "inputs": [],
      "name": "addressOfTimeFrame",
      "outputs": [
        {
          "internalType": "address",
          "name": "",
          "type": "address"
        }
      ],
      "payable": false,
      "stateMutability": "view",
      "type": "function"
    },
    {
      "constant": true,
      "inputs": [],
      "name": "addressOfUniswapV2Pair",
      "outputs": [
        {
          "internalType": "address",
          "name": "",
          "type": "address"
        }
      ],
      "payable": false,
      "stateMutability": "view",
      "type": "function"
    },
    {
      "constant": true,
      "inputs": [],
      "name": "addressOfUniswapV2Router",
      "outputs": [
        {
          "internalType": "address",
          "name": "",
          "type": "address"
        }
      ],
      "payable": false,
      "stateMutability": "view",
      "type": "function"
    },
    {
      "constant": true,
      "inputs": [],
      "name": "addressOfWETH",
      "outputs": [
        {
          "internalType": "address",
          "name": "",
          "type": "address"
        }
      ],
      "payable": false,
      "stateMutability": "view",
      "type": "function"
    },
    {
      "constant": true,
      "inputs": [],
      "name": "addressOfWithdrawPool",
      "outputs": [
        {
          "internalType": "address",
          "name": "",
          "type": "address"
        }
      ],
      "payable": false,
      "stateMutability": "view",
      "type": "function"
    },
    {
      "constant": true,
      "inputs": [
        {
          "internalType": "string",
          "name": "name",
          "type": "string"
        }
      ],
      "name": "getContract",
      "outputs": [
        {
          "internalType": "address",
          "name": "",
          "type": "address"
        }
      ],
      "payable": false,
      "stateMutability": "view",
      "type": "function"
    },
    {
      "constant": true,
      "inputs": [
        {
          "internalType": "bytes32[]",
          "name": "nameHashes",
          "type": "bytes32[]"
        }
      ],
      "name": "getContracts",
      "outputs": [
        {
          "internalType": "address[]",
          "name": "",
          "type": "address[]"
        }
      ],
      "payable": false,
      "stateMutability": "view",
      "type": "function"
    },
    {
      "constant": true,
      "inputs": [],
      "name": "maxJobsForOneRun",
      "outputs": [
        {
          "internalType": "uint256",
          "name": "",
          "type": "uint256"
        }
      ],
      "payable": false,
      "stateMutability": "view",
      "type": "function"
    },
    {
      "constant": true,
      "inputs": [],
      "name": "owner",
      "outputs": [
        {
          "internalType": "address payable",
          "name": "",
          "type": "address"
        }
      ],
      "payable": false,
      "stateMutability": "view",
      "type": "function"
    },
    {
      "constant": false,
      "inputs": [
        {
          "internalType": "string",
          "name": "name",
          "type": "string"
        }
      ],
      "name": "removeContract",
      "outputs": [],
      "payable": false,
      "stateMutability": "nonpayable",
      "type": "function"
    },
    {
      "constant": false,
      "inputs": [
        {
          "internalType": "address payable",
          "name": "newOwner",
          "type": "address"
        }
      ],
      "name": "transferOwnership",
      "outputs": [],
      "payable": false,
      "stateMutability": "nonpayable",
      "type": "function"
    },
    {
      "constant": false,
      "inputs": [
        {
          "internalType": "string",
          "name": "name",
          "type": "string"
        },
        {
          "internalType": "address",
          "name": "contractAddress",
          "type": "address"
        }
      ],
      "name": "updateContract",
      "outputs": [],
      "payable": false,
      "stateMutability": "nonpayable",
      "type": "function"
    },
    {
      "constant": false,
      "inputs": [
        {
          "internalType": "uint256",
          "name": "_maxJobsForOneRun",
          "type": "uint256"
        }
      ],
      "name": "setMaxJobsForOneRun",
      "outputs": [],
      "payable": false,
      "stateMutability": "nonpayable",
      "type": "function"
    },
    {
      "constant": false,
      "inputs": [],
      "name": "executeScheduledJobs",
      "outputs": [],
      "payable": false,
      "stateMutability": "nonpayable",
      "type": "function"
    },
    {
      "constant": false,
      "inputs": [
        {
          "internalType": "uint256",
          "name": "jobId",
          "type": "uint256"
        }
      ],
      "name": "executeJob",
      "outputs": [
        {
          "internalType": "bytes",
          "name": "",
          "type": "bytes"
        }
      ],
      "payable": false,
      "stateMutability": "nonpayable",
      "type": "function"
    }
  ],
  "bytecode": "0x608060405260028055336000806101000a81548173ffffffffffffffffffffffffffffffffffffffff021916908373ffffffffffffffffffffffffffffffffffffffff160217905550612fd8806100576000396000f3fe608060405234801561001057600080fd5b50600436106102695760003560e01c806384d6761711610151578063c5ed75bb116100c3578063eed9c25b11610087578063eed9c25b14610fbd578063f27e209814611007578063f2fde38b14611051578063f6df25d514611095578063fcc47c4f146110df578063fcd073aa1461112957610269565b8063c5ed75bb14610e4b578063cb669caa14610e95578063d3b12c1514610edf578063d83be91714610f29578063ee71227f14610f7357610269565b8063968f141211610115578063968f141214610ba957806397623b5814610bd75780639a087b9714610c92578063a0d1170b14610cdc578063beb9eb0b14610d26578063bf5b601614610d7057610269565b806384d6761714610a375780638da5cb5b14610a815780638e771e7914610acb5780638ec82c8a14610b1557806393812d2014610b5f57610269565b806342febb69116101ea57806358838def116101ae57806358838def146107b95780635c757125146108605780635f9b5916146108aa578063658d7476146108f4578063697a60b3146109125780637388a991146109ed57610269565b806342febb69146105c3578063462d46f61461060d5780634880df0e14610657578063492e4692146107255780634e7f067b1461076f57610269565b8063297a344d11610231578063297a344d146103e0578063318504821461042a578063348c601914610434578063358177731461047e5780633bdc5a5d1461057957610269565b806319bddbe01461026e5780631d83b82b146102b85780631e662c401461030257806320331d0f1461034c57806320ba591014610396575b600080fd5b610276611173565b604051808273ffffffffffffffffffffffffffffffffffffffff1673ffffffffffffffffffffffffffffffffffffffff16815260200191505060405180910390f35b6102c06111b8565b604051808273ffffffffffffffffffffffffffffffffffffffff1673ffffffffffffffffffffffffffffffffffffffff16815260200191505060405180910390f35b61030a6111fd565b604051808273ffffffffffffffffffffffffffffffffffffffff1673ffffffffffffffffffffffffffffffffffffffff16815260200191505060405180910390f35b610354611242565b604051808273ffffffffffffffffffffffffffffffffffffffff1673ffffffffffffffffffffffffffffffffffffffff16815260200191505060405180910390f35b61039e611287565b604051808273ffffffffffffffffffffffffffffffffffffffff1673ffffffffffffffffffffffffffffffffffffffff16815260200191505060405180910390f35b6103e86112cc565b604051808273ffffffffffffffffffffffffffffffffffffffff1673ffffffffffffffffffffffffffffffffffffffff16815260200191505060405180910390f35b610432611311565b005b61043c6116d6565b604051808273ffffffffffffffffffffffffffffffffffffffff1673ffffffffffffffffffffffffffffffffffffffff16815260200191505060405180910390f35b6105376004803603602081101561049457600080fd5b81019080803590602001906401000000008111156104b157600080fd5b8201836020820111156104c357600080fd5b803590602001918460018302840111640100000000831117156104e557600080fd5b91908080601f016020809104026020016040519081016040528093929190818152602001838380828437600081840152601f19601f82011690508083019250505050505050919291929050505061171b565b604051808273ffffffffffffffffffffffffffffffffffffffff1673ffffffffffffffffffffffffffffffffffffffff16815260200191505060405180910390f35b61058161195c565b604051808273ffffffffffffffffffffffffffffffffffffffff1673ffffffffffffffffffffffffffffffffffffffff16815260200191505060405180910390f35b6105cb6119a1565b604051808273ffffffffffffffffffffffffffffffffffffffff1673ffffffffffffffffffffffffffffffffffffffff16815260200191505060405180910390f35b6106156119e6565b604051808273ffffffffffffffffffffffffffffffffffffffff1673ffffffffffffffffffffffffffffffffffffffff16815260200191505060405180910390f35b6106ce6004803603602081101561066d57600080fd5b810190808035906020019064010000000081111561068a57600080fd5b82018360208201111561069c57600080fd5b803590602001918460208302840111640100000000831117156106be57600080fd5b9091929391929390505050611a2b565b6040518080602001828103825283818151815260200191508051906020019060200280838360005b838110156107115780820151818401526020810190506106f6565b505050509050019250505060405180910390f35b61072d611b18565b604051808273ffffffffffffffffffffffffffffffffffffffff1673ffffffffffffffffffffffffffffffffffffffff16815260200191505060405180910390f35b610777611b5d565b604051808273ffffffffffffffffffffffffffffffffffffffff1673ffffffffffffffffffffffffffffffffffffffff16815260200191505060405180910390f35b6107e5600480360360208110156107cf57600080fd5b8101908080359060200190929190505050611ba2565b6040518080602001828103825283818151815260200191508051906020019080838360005b8381101561082557808201518184015260208101905061080a565b50505050905090810190601f1680156108525780820380516001836020036101000a031916815260200191505b509250505060405180910390f35b610868612165565b604051808273ffffffffffffffffffffffffffffffffffffffff1673ffffffffffffffffffffffffffffffffffffffff16815260200191505060405180910390f35b6108b26121aa565b604051808273ffffffffffffffffffffffffffffffffffffffff1673ffffffffffffffffffffffffffffffffffffffff16815260200191505060405180910390f35b6108fc6121ef565b6040518082815260200191505060405180910390f35b6109eb6004803603604081101561092857600080fd5b810190808035906020019064010000000081111561094557600080fd5b82018360208201111561095757600080fd5b8035906020019184600183028401116401000000008311171561097957600080fd5b91908080601f016020809104026020016040519081016040528093929190818152602001838380828437600081840152601f19601f820116905080830192505050505050509192919290803573ffffffffffffffffffffffffffffffffffffffff1690602001909291905050506121f5565b005b6109f5612384565b604051808273ffffffffffffffffffffffffffffffffffffffff1673ffffffffffffffffffffffffffffffffffffffff16815260200191505060405180910390f35b610a3f6123c9565b604051808273ffffffffffffffffffffffffffffffffffffffff1673ffffffffffffffffffffffffffffffffffffffff16815260200191505060405180910390f35b610a8961240e565b604051808273ffffffffffffffffffffffffffffffffffffffff1673ffffffffffffffffffffffffffffffffffffffff16815260200191505060405180910390f35b610ad3612433565b604051808273ffffffffffffffffffffffffffffffffffffffff1673ffffffffffffffffffffffffffffffffffffffff16815260200191505060405180910390f35b610b1d612478565b604051808273ffffffffffffffffffffffffffffffffffffffff1673ffffffffffffffffffffffffffffffffffffffff16815260200191505060405180910390f35b610b676124bd565b604051808273ffffffffffffffffffffffffffffffffffffffff1673ffffffffffffffffffffffffffffffffffffffff16815260200191505060405180910390f35b610bd560048036036020811015610bbf57600080fd5b8101908080359060200190929190505050612502565b005b610c9060048036036020811015610bed57600080fd5b8101908080359060200190640100000000811115610c0a57600080fd5b820183602082011115610c1c57600080fd5b80359060200191846001830284011164010000000083111715610c3e57600080fd5b91908080601f016020809104026020016040519081016040528093929190818152602001838380828437600081840152601f19601f82011690508083019250505050505050919291929050505061256f565b005b610c9a6126fe565b604051808273ffffffffffffffffffffffffffffffffffffffff1673ffffffffffffffffffffffffffffffffffffffff16815260200191505060405180910390f35b610ce4612743565b604051808273ffffffffffffffffffffffffffffffffffffffff1673ffffffffffffffffffffffffffffffffffffffff16815260200191505060405180910390f35b610d2e612788565b604051808273ffffffffffffffffffffffffffffffffffffffff1673ffffffffffffffffffffffffffffffffffffffff16815260200191505060405180910390f35b610e4960048036036040811015610d8657600080fd5b8101908080359060200190640100000000811115610da357600080fd5b820183602082011115610db557600080fd5b80359060200191846001830284011164010000000083111715610dd757600080fd5b91908080601f016020809104026020016040519081016040528093929190818152602001838380828437600081840152601f19601f820116905080830192505050505050509192919290803573ffffffffffffffffffffffffffffffffffffffff1690602001909291905050506127cd565b005b610e536129e1565b604051808273ffffffffffffffffffffffffffffffffffffffff1673ffffffffffffffffffffffffffffffffffffffff16815260200191505060405180910390f35b610e9d612a26565b604051808273ffffffffffffffffffffffffffffffffffffffff1673ffffffffffffffffffffffffffffffffffffffff16815260200191505060405180910390f35b610ee7612a6b565b604051808273ffffffffffffffffffffffffffffffffffffffff1673ffffffffffffffffffffffffffffffffffffffff16815260200191505060405180910390f35b610f31612ab0565b604051808273ffffffffffffffffffffffffffffffffffffffff1673ffffffffffffffffffffffffffffffffffffffff16815260200191505060405180910390f35b610f7b612af5565b604051808273ffffffffffffffffffffffffffffffffffffffff1673ffffffffffffffffffffffffffffffffffffffff16815260200191505060405180910390f35b610fc5612b3a565b604051808273ffffffffffffffffffffffffffffffffffffffff1673ffffffffffffffffffffffffffffffffffffffff16815260200191505060405180910390f35b61100f612b7f565b604051808273ffffffffffffffffffffffffffffffffffffffff1673ffffffffffffffffffffffffffffffffffffffff16815260200191505060405180910390f35b6110936004803603602081101561106757600080fd5b81019080803573ffffffffffffffffffffffffffffffffffffffff169060200190929190505050612bc4565b005b61109d612c92565b604051808273ffffffffffffffffffffffffffffffffffffffff1673ffffffffffffffffffffffffffffffffffffffff16815260200191505060405180910390f35b6110e7612cd7565b604051808273ffffffffffffffffffffffffffffffffffffffff1673ffffffffffffffffffffffffffffffffffffffff16815260200191505060405180910390f35b611131612d1c565b604051808273ffffffffffffffffffffffffffffffffffffffff1673ffffffffffffffffffffffffffffffffffffffff16815260200191505060405180910390f35b60006111b36040518060400160405280600581526020017f574554483900000000000000000000000000000000000000000000000000000081525061171b565b905090565b60006111f86040518060400160405280600381526020017f446169000000000000000000000000000000000000000000000000000000000081525061171b565b905090565b600061123d6040518060400160405280600d81526020017f556e69737761705632506169720000000000000000000000000000000000000081525061171b565b905090565b60006112826040518060400160405280600981526020017f54696d654672616d65000000000000000000000000000000000000000000000081525061171b565b905090565b60006112c76040518060400160405280600781526020017f42657474696e670000000000000000000000000000000000000000000000000081525061171b565b905090565b600061130c6040518060400160405280600d81526020017f4b7479576574684f7261636c650000000000000000000000000000000000000081525061171b565b905090565b60006113516040518060400160405280600981526020017f47656e657269634442000000000000000000000000000000000000000000000081525061171b565b9050600060608273ffffffffffffffffffffffffffffffffffffffff166040518060400160405280600681526020017f526f6c65444200000000000000000000000000000000000000000000000000008152503360405160200180807f61646d696e0000000000000000000000000000000000000000000000000000008152506005018273ffffffffffffffffffffffffffffffffffffffff1673ffffffffffffffffffffffffffffffffffffffff1660601b8152601401915050604051602081830303815290604052805190602001206040516024018080602001838152602001828103825284818151815260200191508051906020019080838360005b8381101561146b578082015181840152602081019050611450565b50505050905090810190601f1680156114985780820380516001836020036101000a031916815260200191505b5093505050506040516020818303038152906040527f1c58c8bb000000000000000000000000000000000000000000000000000000007bffffffffffffffffffffffffffffffffffffffffffffffffffffffff19166020820180517bffffffffffffffffffffffffffffffffffffffffffffffffffffffff83818316178352505050506040518082805190602001908083835b6020831061154e578051825260208201915060208101905060208303925061152b565b6001836020036101000a038019825116818451168082178552505050505050905001915050600060405180830381855afa9150503d80600081146115ae576040519150601f19603f3d011682016040523d82523d6000602084013e6115b3565b606091505b50915091508161162b576040517f08c379a00000000000000000000000000000000000000000000000000000000081526004018080602001828103825260138152602001807f4661696c656420746f206c6f616420726f6c650000000000000000000000000081525060200191505060405180910390fd5b600081806020019051602081101561164257600080fd5b81019080805190602001909291905050509050806116c8576040517f08c379a00000000000000000000000000000000000000000000000000000000081526004018080602001828103825260198152602001807f53656e6465722068617320746f20626520616e2061646d696e0000000000000081525060200191505060405180910390fd5b6116d0612d61565b50505050565b60006117166040518060400160405280601681526020017f486f6e6579706f74416c6c6f636174696f6e416c676f0000000000000000000081525061171b565b905090565b60008082805190602001209050600073ffffffffffffffffffffffffffffffffffffffff166001600083815260200190815260200160002060009054906101000a900473ffffffffffffffffffffffffffffffffffffffff1673ffffffffffffffffffffffffffffffffffffffff1614156119205760608360405160200180807f436f6e7472616374206e6f7420726567697374657265643a200000000000000081525060190182805190602001908083835b602083106117f157805182526020820191506020810190506020830392506117ce565b6001836020036101000a0380198251168184511680821785525050505050509050019150506040516020818303038152906040526040516024018080602001828103825283818151815260200191508051906020019080838360005b8381101561186857808201518184015260208101905061184d565b50505050905090810190601f1680156118955780820380516001836020036101000a031916815260200191505b50925050506040516020818303038152906040527f08c379a0000000000000000000000000000000000000000000000000000000007bffffffffffffffffffffffffffffffffffffffffffffffffffffffff19166020820180517bffffffffffffffffffffffffffffffffffffffffffffffffffffffff838183161783525050505090508060208201fd5b6001600082815260200190815260200160002060009054906101000a900473ffffffffffffffffffffffffffffffffffffffff16915050919050565b600061199c6040518060400160405280600f81526020017f4561726e696e6773547261636b6572000000000000000000000000000000000081525061171b565b905090565b60006119e16040518060400160405280600a81526020017f4b697474696548656c6c0000000000000000000000000000000000000000000081525061171b565b905090565b6000611a266040518060400160405280600d81526020017f47616d65566172416e644665650000000000000000000000000000000000000081525061171b565b905090565b60608083839050604051908082528060200260200182016040528015611a605781602001602082028038833980820191505090505b50905060008090505b84849050811015611b0d5760016000868684818110611a8457fe5b90506020020135815260200190815260200160002060009054906101000a900473ffffffffffffffffffffffffffffffffffffffff16828281518110611ac657fe5b602002602001019073ffffffffffffffffffffffffffffffffffffffff16908173ffffffffffffffffffffffffffffffffffffffff16815250508080600101915050611a69565b508091505092915050565b6000611b586040518060400160405280601081526020017f52617269747943616c63756c61746f720000000000000000000000000000000081525061171b565b905090565b6000611b9d6040518060400160405280600c81526020017f54696d65436f6e7472616374000000000000000000000000000000000000000081525061171b565b905090565b60606000611be46040518060400160405280600981526020017f47656e657269634442000000000000000000000000000000000000000000000081525061171b565b9050600060608273ffffffffffffffffffffffffffffffffffffffff166040518060400160405280600681526020017f526f6c65444200000000000000000000000000000000000000000000000000008152503360405160200180807f61646d696e0000000000000000000000000000000000000000000000000000008152506005018273ffffffffffffffffffffffffffffffffffffffff1673ffffffffffffffffffffffffffffffffffffffff1660601b8152601401915050604051602081830303815290604052805190602001206040516024018080602001838152602001828103825284818151815260200191508051906020019080838360005b83811015611cfe578082015181840152602081019050611ce3565b50505050905090810190601f168015611d2b5780820380516001836020036101000a031916815260200191505b5093505050506040516020818303038152906040527f1c58c8bb000000000000000000000000000000000000000000000000000000007bffffffffffffffffffffffffffffffffffffffffffffffffffffffff19166020820180517bffffffffffffffffffffffffffffffffffffffffffffffffffffffff83818316178352505050506040518082805190602001908083835b60208310611de15780518252602082019150602081019050602083039250611dbe565b6001836020036101000a038019825116818451168082178552505050505050905001915050600060405180830381855afa9150503d8060008114611e41576040519150601f19603f3d011682016040523d82523d6000602084013e611e46565b606091505b509150915081611ebe576040517f08c379a00000000000000000000000000000000000000000000000000000000081526004018080602001828103825260138152602001807f4661696c656420746f206c6f616420726f6c650000000000000000000000000081525060200191505060405180910390fd5b6000818060200190516020811015611ed557600080fd5b8101908080519060200190929190505050905080611f5b576040517f08c379a00000000000000000000000000000000000000000000000000000000081526004018080602001828103825260198152602001807f53656e6465722068617320746f20626520616e2061646d696e0000000000000081525060200191505060405180910390fd5b6000611f9b6040518060400160405280600781526020017f43726f6e4a6f620000000000000000000000000000000000000000000000000081525061171b565b90508073ffffffffffffffffffffffffffffffffffffffff1687604051602401808281526020019150506040516020818303038152906040527f58838def000000000000000000000000000000000000000000000000000000007bffffffffffffffffffffffffffffffffffffffffffffffffffffffff19166020820180517bffffffffffffffffffffffffffffffffffffffffffffffffffffffff83818316178352505050506040518082805190602001908083835b602083106120755780518252602082019150602081019050602083039250612052565b6001836020036101000a0380198251168184511680821785525050505050509050019150506000604051808303816000865af19150503d80600081146120d7576040519150601f19603f3d011682016040523d82523d6000602084013e6120dc565b606091505b50809450819550505083612158576040517f08c379a00000000000000000000000000000000000000000000000000000000081526004018080602001828103825260138152602001807f457865637574652063616c6c206661696c65640000000000000000000000000081525060200191505060405180910390fd5b8295505050505050919050565b60006121a56040518060400160405280600981526020017f50726f66696c654442000000000000000000000000000000000000000000000081525061171b565b905090565b60006121ea6040518060400160405280600a81526020017f4b7479556e69737761700000000000000000000000000000000000000000000081525061171b565b905090565b60025481565b6000809054906101000a900473ffffffffffffffffffffffffffffffffffffffff1673ffffffffffffffffffffffffffffffffffffffff163373ffffffffffffffffffffffffffffffffffffffff161461224b57fe5b600082805190602001209050600073ffffffffffffffffffffffffffffffffffffffff166001600083815260200190815260200160002060009054906101000a900473ffffffffffffffffffffffffffffffffffffffff1673ffffffffffffffffffffffffffffffffffffffff16141561232d576040517f08c379a00000000000000000000000000000000000000000000000000000000081526004018080602001828103825260208152602001807f4e6f20636f6e747261637420776974682074686973206e616d6520666f756e6481525060200191505060405180910390fd5b816001600083815260200190815260200160002060006101000a81548173ffffffffffffffffffffffffffffffffffffffff021916908373ffffffffffffffffffffffffffffffffffffffff160217905550505050565b60006123c46040518060400160405280600a81526020017f4574686965546f6b656e0000000000000000000000000000000000000000000081525061171b565b905090565b60006124096040518060400160405280600c81526020017f4b697474696548656c6c4442000000000000000000000000000000000000000081525061171b565b905090565b6000809054906101000a900473ffffffffffffffffffffffffffffffffffffffff1681565b60006124736040518060400160405280600681526020017f526f6c654442000000000000000000000000000000000000000000000000000081525061171b565b905090565b60006124b86040518060400160405280600b81526020017f486974735265736f6c766500000000000000000000000000000000000000000081525061171b565b905090565b60006124fd6040518060400160405280600981526020017f5363686564756c6572000000000000000000000000000000000000000000000081525061171b565b905090565b6000809054906101000a900473ffffffffffffffffffffffffffffffffffffffff1673ffffffffffffffffffffffffffffffffffffffff163373ffffffffffffffffffffffffffffffffffffffff161461255857fe5b6000811161256557600080fd5b8060028190555050565b6000809054906101000a900473ffffffffffffffffffffffffffffffffffffffff1673ffffffffffffffffffffffffffffffffffffffff163373ffffffffffffffffffffffffffffffffffffffff16146125c557fe5b600081805190602001209050600073ffffffffffffffffffffffffffffffffffffffff166001600083815260200190815260200160002060009054906101000a900473ffffffffffffffffffffffffffffffffffffffff1673ffffffffffffffffffffffffffffffffffffffff1614156126a7576040517f08c379a00000000000000000000000000000000000000000000000000000000081526004018080602001828103825260208152602001807f4e6f20636f6e747261637420776974682074686973206e616d6520666f756e6481525060200191505060405180910390fd5b60006001600083815260200190815260200160002060006101000a81548173ffffffffffffffffffffffffffffffffffffffff021916908373ffffffffffffffffffffffffffffffffffffffff1602179055505050565b600061273e6040518060400160405280600981526020017f466f72666569746572000000000000000000000000000000000000000000000081525061171b565b905090565b60006127836040518060400160405280600c81526020017f446973747269627574696f6e000000000000000000000000000000000000000081525061171b565b905090565b60006127c86040518060400160405280600a81526020017f474d53657474657244420000000000000000000000000000000000000000000081525061171b565b905090565b6000809054906101000a900473ffffffffffffffffffffffffffffffffffffffff1673ffffffffffffffffffffffffffffffffffffffff163373ffffffffffffffffffffffffffffffffffffffff161461282357fe5b600073ffffffffffffffffffffffffffffffffffffffff168173ffffffffffffffffffffffffffffffffffffffff1614156128c6576040517f08c379a00000000000000000000000000000000000000000000000000000000081526004018080602001828103825260208152602001807f436f6e747261637420616464726573732063616e206e6f74206265207a65726f81525060200191505060405180910390fd5b600082805190602001209050600073ffffffffffffffffffffffffffffffffffffffff166001600083815260200190815260200160002060009054906101000a900473ffffffffffffffffffffffffffffffffffffffff1673ffffffffffffffffffffffffffffffffffffffff161461298a576040517f08c379a0000000000000000000000000000000000000000000000000000000008152600401808060200182810382526025815260200180612f7f6025913960400191505060405180910390fd5b816001600083815260200190815260200160002060006101000a81548173ffffffffffffffffffffffffffffffffffffffff021916908373ffffffffffffffffffffffffffffffffffffffff160217905550505050565b6000612a216040518060400160405280600781526020017f43726f6e4a6f620000000000000000000000000000000000000000000000000081525061171b565b905090565b6000612a666040518060400160405280600c81526020017f494461695765746850616972000000000000000000000000000000000000000081525061171b565b905090565b6000612aab6040518060400160405280600a81526020017f474d47657474657244420000000000000000000000000000000000000000000081525061171b565b905090565b6000612af06040518060400160405280600c81526020017f5769746864726177506f6f6c000000000000000000000000000000000000000081525061171b565b905090565b6000612b356040518060400160405280600b81526020017f47616d654d616e6167657200000000000000000000000000000000000000000081525061171b565b905090565b6000612b7a6040518060400160405280600881526020017f526567697374657200000000000000000000000000000000000000000000000081525061171b565b905090565b6000612bbf6040518060400160405280600d81526020017f446169576574684f7261636c650000000000000000000000000000000000000081525061171b565b905090565b6000809054906101000a900473ffffffffffffffffffffffffffffffffffffffff1673ffffffffffffffffffffffffffffffffffffffff163373ffffffffffffffffffffffffffffffffffffffff1614612c1a57fe5b600073ffffffffffffffffffffffffffffffffffffffff168173ffffffffffffffffffffffffffffffffffffffff1614612c8f57806000806101000a81548173ffffffffffffffffffffffffffffffffffffffff021916908373ffffffffffffffffffffffffffffffffffffffff1602179055505b50565b6000612cd26040518060400160405280600b81526020017f456e646f776d656e74444200000000000000000000000000000000000000000081525061171b565b905090565b6000612d176040518060400160405280600d81526020017f456e646f776d656e7446756e640000000000000000000000000000000000000081525061171b565b905090565b6000612d5c6040518060400160405280601181526020017f556e69737761705632526f75746572303100000000000000000000000000000081525061171b565b905090565b6000612da16040518060400160405280600781526020017f43726f6e4a6f620000000000000000000000000000000000000000000000000081525061171b565b905060008090505b600254811015612f7a57600060608373ffffffffffffffffffffffffffffffffffffffff166040516024016040516020818303038152906040527f05044bac000000000000000000000000000000000000000000000000000000007bffffffffffffffffffffffffffffffffffffffffffffffffffffffff19166020820180517bffffffffffffffffffffffffffffffffffffffffffffffffffffffff83818316178352505050506040518082805190602001908083835b60208310612e845780518252602082019150602081019050602083039250612e61565b6001836020036101000a0380198251168184511680821785525050505050509050019150506000604051808303816000865af19150503d8060008114612ee6576040519150601f19603f3d011682016040523d82523d6000602084013e612eeb565b606091505b50915091508115612f3e576000818060200190516040811015612f0d57600080fd5b81019080805190602001909291908051906020019092919050505050905080612f3857505050612f7a565b50612f6b565b7fd0c39055083f1cd7e99672a54796862cd3b34c3db7964de3d92cfc9a9d47362060405160405180910390a15b50508080600101915050612da9565b505056fe436f6e747261637420776974682074686973206e616d6520616c7265616479206164646564a265627a7a72315820ed2532a326e7ab2e48c1d294bbc924a9442bf5d1cb502a83eab40ae7f98e66ab64736f6c63430005110032",
  "source": "/**\r\n * @title CronJob\r\n *\r\n * @author @kittieFIGHT @ola @pash7ka\r\n *\r\n */\r\n\r\n// This program is free software: you can redistribute it and/or modify\r\n// it under the terms of the GNU General Public License as published by\r\n// the Free Software Foundation, either version 3 of the License, or\r\n// (at your option) any later version.\r\n\r\n// This program is distributed in the hope that it will be useful,\r\n// but WITHOUT ANY WARRANTY; without even the implied warranty of\r\n// MERCHANTABILITY or FITNESS FOR A PARTICULAR PURPOSE.  See the\r\n// GNU General Public License for more details.\r\n\r\n// You should have received a copy of the GNU General Public License\r\n// along with this program.  If not, see <http://www.gnu.org/licenses/>.\r\npragma solidity ^0.5.5;\r\n\r\nimport \"../../authority/Owned.sol\";\r\nimport \"../../CronJob.sol\";\r\nimport \"./ProxyBase.sol\";\r\n\r\ncontract CronJobProxy is ProxyBase {\r\n    event CronJobExecutionFailed(); //This is used to signal about something really unexpected happened\r\n\r\n    uint256 public maxJobsForOneRun = 2;\r\n\r\n    function setMaxJobsForOneRun(uint256 _maxJobsForOneRun) onlyOwner public {\r\n        require(_maxJobsForOneRun > 0);\r\n        maxJobsForOneRun = _maxJobsForOneRun;\r\n    }\r\n\r\n    /**\r\n     * @notice Executes up to maxJobsForOneRun scheduled jobs, if available\r\n     * @dev This can be executed by admins, but since KFProxy can not use Guard, we need to do check manually\r\n     */\r\n    function executeScheduledJobs() external {\r\n        address genericDB = getContract(CONTRACT_NAME_GENERIC_DB);\r\n        (bool success, bytes memory result) = genericDB.staticcall(abi.encodeWithSignature(\r\n            \"getBoolStorage(string,bytes32)\",\r\n            CONTRACT_NAME_ROLE_DB,\r\n            keccak256(abi.encodePacked(\"admin\", msg.sender))\r\n        ));\r\n        require(success, 'Failed to load role');\r\n        bool hasRole = abi.decode(result, (bool));\r\n        require(hasRole, 'Sender has to be an admin');\r\n\r\n        _executeScheduledJobs();\r\n    }\r\n    function executeJob(uint256 jobId) external returns(bytes memory) {\r\n        address genericDB = getContract(CONTRACT_NAME_GENERIC_DB);\r\n        (bool success, bytes memory result) = genericDB.staticcall(abi.encodeWithSignature(\r\n            \"getBoolStorage(string,bytes32)\",\r\n            CONTRACT_NAME_ROLE_DB,\r\n            keccak256(abi.encodePacked(\"admin\", msg.sender))\r\n        ));\r\n        require(success, 'Failed to load role');\r\n        bool hasRole = abi.decode(result, (bool));\r\n        require(hasRole, 'Sender has to be an admin');\r\n\r\n        address cronJob = getContract(CONTRACT_NAME_CRONJOB);\r\n        (success, result) = cronJob.call(abi.encodeWithSignature('executeJob(uint256)', jobId));\r\n        require(success, 'Execute call failed');\r\n        return result;\r\n    }\r\n\r\n\r\n    /**\r\n     * @notice Executes up to maxJobsForOneRun scheduled jobs, if available\r\n     */\r\n    function _executeScheduledJobs() internal {\r\n        address cronJob = getContract(CONTRACT_NAME_CRONJOB);\r\n        //if(cronJob == address(0)) return; //this can not happen because of check in ContractManager\r\n        for(uint256 i=0; i < maxJobsForOneRun; i++){\r\n            //Use address.call() because we need to handle failures here\r\n            (bool success, bytes memory result) = cronJob.call(abi.encodeWithSignature('executeNextJobIfAvailable()'));\r\n            if(success){\r\n                (bool jobWasExecuted, /*uint256 jobId*/) = abi.decode(result, (bool, uint256));\r\n                if(!jobWasExecuted) break;  //There is no more jobs scheduled for now\r\n            }else{\r\n                emit CronJobExecutionFailed();\r\n            }\r\n        }\r\n    }\r\n\r\n\r\n}\r\n",
  "sourcePath": "C:\\Users\\Alex\\Desktop\\MyProjects\\contracts\\contracts\\modules\\proxy\\CronJobProxy.sol",
  "compiler": {
    "name": "solc",
    "version": "0.5.17+commit.d19bba13.Emscripten.clang"
  },
  "schemaVersion": "3.0.11",
  "updatedAt": "2020-06-16T23:34:19.108Z",
  "devdoc": {
    "methods": {
      "executeScheduledJobs()": {
        "details": "This can be executed by admins, but since KFProxy can not use Guard, we need to do check manually"
      }
    }
  },
  "userdoc": {
    "methods": {
      "addressOfRegister()": {
        "notice": "Getters for KittyFight system contracts"
      },
      "executeScheduledJobs()": {
        "notice": "Executes up to maxJobsForOneRun scheduled jobs, if available"
      }
    }
  }
}