{
  "contractName": "CronJobProxy",
  "abi": [
    {
      "anonymous": false,
      "inputs": [],
      "name": "CronJobExecutionFailed",
      "type": "event"
    },
    {
      "constant": false,
      "inputs": [
        {
          "internalType": "string",
          "name": "name",
          "type": "string"
        },
        {
          "internalType": "address",
          "name": "contractAddress",
          "type": "address"
        }
      ],
      "name": "addContract",
      "outputs": [],
      "payable": false,
      "stateMutability": "nonpayable",
      "type": "function"
    },
    {
      "constant": true,
      "inputs": [],
      "name": "addressOfBetting",
      "outputs": [
        {
          "internalType": "address",
          "name": "",
          "type": "address"
        }
      ],
      "payable": false,
      "stateMutability": "view",
      "type": "function"
    },
    {
      "constant": true,
      "inputs": [],
      "name": "addressOfCronJob",
      "outputs": [
        {
          "internalType": "address",
          "name": "",
          "type": "address"
        }
      ],
      "payable": false,
      "stateMutability": "view",
      "type": "function"
    },
    {
      "constant": true,
      "inputs": [],
      "name": "addressOfDistribution",
      "outputs": [
        {
          "internalType": "address",
          "name": "",
          "type": "address"
        }
      ],
      "payable": false,
      "stateMutability": "view",
      "type": "function"
    },
    {
      "constant": true,
      "inputs": [],
      "name": "addressOfEarningsTracker",
      "outputs": [
        {
          "internalType": "address",
          "name": "",
          "type": "address"
        }
      ],
      "payable": false,
      "stateMutability": "view",
      "type": "function"
    },
    {
      "constant": true,
      "inputs": [],
      "name": "addressOfEndowmentDB",
      "outputs": [
        {
          "internalType": "address",
          "name": "",
          "type": "address"
        }
      ],
      "payable": false,
      "stateMutability": "view",
      "type": "function"
    },
    {
      "constant": true,
      "inputs": [],
      "name": "addressOfEndowmentFund",
      "outputs": [
        {
          "internalType": "address",
          "name": "",
          "type": "address"
        }
      ],
      "payable": false,
      "stateMutability": "view",
      "type": "function"
    },
    {
      "constant": true,
      "inputs": [],
      "name": "addressOfForfeiter",
      "outputs": [
        {
          "internalType": "address",
          "name": "",
          "type": "address"
        }
      ],
      "payable": false,
      "stateMutability": "view",
      "type": "function"
    },
    {
      "constant": true,
      "inputs": [],
      "name": "addressOfGMGetterDB",
      "outputs": [
        {
          "internalType": "address",
          "name": "",
          "type": "address"
        }
      ],
      "payable": false,
      "stateMutability": "view",
      "type": "function"
    },
    {
      "constant": true,
      "inputs": [],
      "name": "addressOfGMSetterDB",
      "outputs": [
        {
          "internalType": "address",
          "name": "",
          "type": "address"
        }
      ],
      "payable": false,
      "stateMutability": "view",
      "type": "function"
    },
    {
      "constant": true,
      "inputs": [],
      "name": "addressOfGameManager",
      "outputs": [
        {
          "internalType": "address",
          "name": "",
          "type": "address"
        }
      ],
      "payable": false,
      "stateMutability": "view",
      "type": "function"
    },
    {
      "constant": true,
      "inputs": [],
      "name": "addressOfGameVarAndFee",
      "outputs": [
        {
          "internalType": "address",
          "name": "",
          "type": "address"
        }
      ],
      "payable": false,
      "stateMutability": "view",
      "type": "function"
    },
    {
      "constant": true,
      "inputs": [],
      "name": "addressOfHitsResolve",
      "outputs": [
        {
          "internalType": "address",
          "name": "",
          "type": "address"
        }
      ],
      "payable": false,
      "stateMutability": "view",
      "type": "function"
    },
    {
      "constant": true,
      "inputs": [],
      "name": "addressOfHoneypotAllocationAlgo",
      "outputs": [
        {
          "internalType": "address",
          "name": "",
          "type": "address"
        }
      ],
      "payable": false,
      "stateMutability": "view",
      "type": "function"
    },
    {
      "constant": true,
      "inputs": [],
      "name": "addressOfKittieHell",
      "outputs": [
        {
          "internalType": "address",
          "name": "",
          "type": "address"
        }
      ],
      "payable": false,
      "stateMutability": "view",
      "type": "function"
    },
    {
      "constant": true,
      "inputs": [],
      "name": "addressOfKittieHellDB",
      "outputs": [
        {
          "internalType": "address",
          "name": "",
          "type": "address"
        }
      ],
      "payable": false,
      "stateMutability": "view",
      "type": "function"
    },
    {
      "constant": true,
      "inputs": [],
      "name": "addressOfProfileDB",
      "outputs": [
        {
          "internalType": "address",
          "name": "",
          "type": "address"
        }
      ],
      "payable": false,
      "stateMutability": "view",
      "type": "function"
    },
    {
      "constant": true,
      "inputs": [],
      "name": "addressOfRarityCalculator",
      "outputs": [
        {
          "internalType": "address",
          "name": "",
          "type": "address"
        }
      ],
      "payable": false,
      "stateMutability": "view",
      "type": "function"
    },
    {
      "constant": true,
      "inputs": [],
      "name": "addressOfRegister",
      "outputs": [
        {
          "internalType": "address",
          "name": "",
          "type": "address"
        }
      ],
      "payable": false,
      "stateMutability": "view",
      "type": "function"
    },
    {
      "constant": true,
      "inputs": [],
      "name": "addressOfRoleDB",
      "outputs": [
        {
          "internalType": "address",
          "name": "",
          "type": "address"
        }
      ],
      "payable": false,
      "stateMutability": "view",
      "type": "function"
    },
    {
      "constant": true,
      "inputs": [],
      "name": "addressOfScheduler",
      "outputs": [
        {
          "internalType": "address",
          "name": "",
          "type": "address"
        }
      ],
      "payable": false,
      "stateMutability": "view",
      "type": "function"
    },
    {
      "constant": true,
      "inputs": [],
      "name": "addressOfTimeContract",
      "outputs": [
        {
          "internalType": "address",
          "name": "",
          "type": "address"
        }
      ],
      "payable": false,
      "stateMutability": "view",
      "type": "function"
    },
    {
      "constant": true,
      "inputs": [],
      "name": "addressOfTimeFrame",
      "outputs": [
        {
          "internalType": "address",
          "name": "",
          "type": "address"
        }
      ],
      "payable": false,
      "stateMutability": "view",
      "type": "function"
    },
    {
      "constant": true,
      "inputs": [],
      "name": "addressOfWithdrawPool",
      "outputs": [
        {
          "internalType": "address",
          "name": "",
          "type": "address"
        }
      ],
      "payable": false,
      "stateMutability": "view",
      "type": "function"
    },
    {
      "constant": true,
      "inputs": [
        {
          "internalType": "string",
          "name": "name",
          "type": "string"
        }
      ],
      "name": "getContract",
      "outputs": [
        {
          "internalType": "address",
          "name": "",
          "type": "address"
        }
      ],
      "payable": false,
      "stateMutability": "view",
      "type": "function"
    },
    {
      "constant": true,
      "inputs": [
        {
          "internalType": "bytes32[]",
          "name": "nameHashes",
          "type": "bytes32[]"
        }
      ],
      "name": "getContracts",
      "outputs": [
        {
          "internalType": "address[]",
          "name": "",
          "type": "address[]"
        }
      ],
      "payable": false,
      "stateMutability": "view",
      "type": "function"
    },
    {
      "constant": true,
      "inputs": [],
      "name": "maxJobsForOneRun",
      "outputs": [
        {
          "internalType": "uint256",
          "name": "",
          "type": "uint256"
        }
      ],
      "payable": false,
      "stateMutability": "view",
      "type": "function"
    },
    {
      "constant": true,
      "inputs": [],
      "name": "owner",
      "outputs": [
        {
          "internalType": "address payable",
          "name": "",
          "type": "address"
        }
      ],
      "payable": false,
      "stateMutability": "view",
      "type": "function"
    },
    {
      "constant": false,
      "inputs": [
        {
          "internalType": "string",
          "name": "name",
          "type": "string"
        }
      ],
      "name": "removeContract",
      "outputs": [],
      "payable": false,
      "stateMutability": "nonpayable",
      "type": "function"
    },
    {
      "constant": false,
      "inputs": [
        {
          "internalType": "address payable",
          "name": "newOwner",
          "type": "address"
        }
      ],
      "name": "transferOwnership",
      "outputs": [],
      "payable": false,
      "stateMutability": "nonpayable",
      "type": "function"
    },
    {
      "constant": false,
      "inputs": [
        {
          "internalType": "string",
          "name": "name",
          "type": "string"
        },
        {
          "internalType": "address",
          "name": "contractAddress",
          "type": "address"
        }
      ],
      "name": "updateContract",
      "outputs": [],
      "payable": false,
      "stateMutability": "nonpayable",
      "type": "function"
    },
    {
      "constant": false,
      "inputs": [
        {
          "internalType": "uint256",
          "name": "_maxJobsForOneRun",
          "type": "uint256"
        }
      ],
      "name": "setMaxJobsForOneRun",
      "outputs": [],
      "payable": false,
      "stateMutability": "nonpayable",
      "type": "function"
    },
    {
      "constant": false,
      "inputs": [],
      "name": "executeScheduledJobs",
      "outputs": [],
      "payable": false,
      "stateMutability": "nonpayable",
      "type": "function"
    },
    {
      "constant": false,
      "inputs": [
        {
          "internalType": "uint256",
          "name": "jobId",
          "type": "uint256"
        }
      ],
      "name": "executeJob",
      "outputs": [
        {
          "internalType": "bytes",
          "name": "",
          "type": "bytes"
        }
      ],
      "payable": false,
      "stateMutability": "nonpayable",
      "type": "function"
    }
  ],
  "bytecode": "0x608060405260028055336000806101000a81548173ffffffffffffffffffffffffffffffffffffffff021916908373ffffffffffffffffffffffffffffffffffffffff160217905550612a6e806100576000396000f3fe608060405234801561001057600080fd5b50600436106102065760003560e01c80638e771e791161011a578063bf5b6016116100ad578063ee71227f1161007c578063ee71227f14610d0a578063eed9c25b14610d54578063f2fde38b14610d9e578063f6df25d514610de2578063fcc47c4f14610e2c57610206565b8063bf5b601614610b51578063c5ed75bb14610c2c578063d3b12c1514610c76578063d83be91714610cc057610206565b806397623b58116100e957806397623b58146109b85780639a087b9714610a73578063a0d1170b14610abd578063beb9eb0b14610b0757610206565b80638e771e79146108ac5780638ec82c8a146108f657806393812d2014610940578063968f14121461098a57610206565b80634880df0e1161019d5780635c7571251161016c5780635c757125146106d5578063658d74761461071f578063697a60b31461073d57806384d67617146108185780638da5cb5b1461086257610206565b80634880df0e146104cc578063492e46921461059a5780634e7f067b146105e457806358838def1461062e57610206565b806335817773116101d957806335817773146102f35780633bdc5a5d146103ee57806342febb6914610438578063462d46f61461048257610206565b806320331d0f1461020b57806320ba591014610255578063318504821461029f578063348c6019146102a9575b600080fd5b610213610e76565b604051808273ffffffffffffffffffffffffffffffffffffffff1673ffffffffffffffffffffffffffffffffffffffff16815260200191505060405180910390f35b61025d610ebb565b604051808273ffffffffffffffffffffffffffffffffffffffff1673ffffffffffffffffffffffffffffffffffffffff16815260200191505060405180910390f35b6102a7610f00565b005b6102b16112c5565b604051808273ffffffffffffffffffffffffffffffffffffffff1673ffffffffffffffffffffffffffffffffffffffff16815260200191505060405180910390f35b6103ac6004803603602081101561030957600080fd5b810190808035906020019064010000000081111561032657600080fd5b82018360208201111561033857600080fd5b8035906020019184600183028401116401000000008311171561035a57600080fd5b91908080601f016020809104026020016040519081016040528093929190818152602001838380828437600081840152601f19601f82011690508083019250505050505050919291929050505061130a565b604051808273ffffffffffffffffffffffffffffffffffffffff1673ffffffffffffffffffffffffffffffffffffffff16815260200191505060405180910390f35b6103f661154b565b604051808273ffffffffffffffffffffffffffffffffffffffff1673ffffffffffffffffffffffffffffffffffffffff16815260200191505060405180910390f35b610440611590565b604051808273ffffffffffffffffffffffffffffffffffffffff1673ffffffffffffffffffffffffffffffffffffffff16815260200191505060405180910390f35b61048a6115d5565b604051808273ffffffffffffffffffffffffffffffffffffffff1673ffffffffffffffffffffffffffffffffffffffff16815260200191505060405180910390f35b610543600480360360208110156104e257600080fd5b81019080803590602001906401000000008111156104ff57600080fd5b82018360208201111561051157600080fd5b8035906020019184602083028401116401000000008311171561053357600080fd5b909192939192939050505061161a565b6040518080602001828103825283818151815260200191508051906020019060200280838360005b8381101561058657808201518184015260208101905061056b565b505050509050019250505060405180910390f35b6105a2611707565b604051808273ffffffffffffffffffffffffffffffffffffffff1673ffffffffffffffffffffffffffffffffffffffff16815260200191505060405180910390f35b6105ec61174c565b604051808273ffffffffffffffffffffffffffffffffffffffff1673ffffffffffffffffffffffffffffffffffffffff16815260200191505060405180910390f35b61065a6004803603602081101561064457600080fd5b8101908080359060200190929190505050611791565b6040518080602001828103825283818151815260200191508051906020019080838360005b8381101561069a57808201518184015260208101905061067f565b50505050905090810190601f1680156106c75780820380516001836020036101000a031916815260200191505b509250505060405180910390f35b6106dd611d54565b604051808273ffffffffffffffffffffffffffffffffffffffff1673ffffffffffffffffffffffffffffffffffffffff16815260200191505060405180910390f35b610727611d99565b6040518082815260200191505060405180910390f35b6108166004803603604081101561075357600080fd5b810190808035906020019064010000000081111561077057600080fd5b82018360208201111561078257600080fd5b803590602001918460018302840111640100000000831117156107a457600080fd5b91908080601f016020809104026020016040519081016040528093929190818152602001838380828437600081840152601f19601f820116905080830192505050505050509192919290803573ffffffffffffffffffffffffffffffffffffffff169060200190929190505050611d9f565b005b610820611f2e565b604051808273ffffffffffffffffffffffffffffffffffffffff1673ffffffffffffffffffffffffffffffffffffffff16815260200191505060405180910390f35b61086a611f73565b604051808273ffffffffffffffffffffffffffffffffffffffff1673ffffffffffffffffffffffffffffffffffffffff16815260200191505060405180910390f35b6108b4611f98565b604051808273ffffffffffffffffffffffffffffffffffffffff1673ffffffffffffffffffffffffffffffffffffffff16815260200191505060405180910390f35b6108fe611fdd565b604051808273ffffffffffffffffffffffffffffffffffffffff1673ffffffffffffffffffffffffffffffffffffffff16815260200191505060405180910390f35b610948612022565b604051808273ffffffffffffffffffffffffffffffffffffffff1673ffffffffffffffffffffffffffffffffffffffff16815260200191505060405180910390f35b6109b6600480360360208110156109a057600080fd5b8101908080359060200190929190505050612067565b005b610a71600480360360208110156109ce57600080fd5b81019080803590602001906401000000008111156109eb57600080fd5b8201836020820111156109fd57600080fd5b80359060200191846001830284011164010000000083111715610a1f57600080fd5b91908080601f016020809104026020016040519081016040528093929190818152602001838380828437600081840152601f19601f8201169050808301925050505050505091929192905050506120d4565b005b610a7b612263565b604051808273ffffffffffffffffffffffffffffffffffffffff1673ffffffffffffffffffffffffffffffffffffffff16815260200191505060405180910390f35b610ac56122a8565b604051808273ffffffffffffffffffffffffffffffffffffffff1673ffffffffffffffffffffffffffffffffffffffff16815260200191505060405180910390f35b610b0f6122ed565b604051808273ffffffffffffffffffffffffffffffffffffffff1673ffffffffffffffffffffffffffffffffffffffff16815260200191505060405180910390f35b610c2a60048036036040811015610b6757600080fd5b8101908080359060200190640100000000811115610b8457600080fd5b820183602082011115610b9657600080fd5b80359060200191846001830284011164010000000083111715610bb857600080fd5b91908080601f016020809104026020016040519081016040528093929190818152602001838380828437600081840152601f19601f820116905080830192505050505050509192919290803573ffffffffffffffffffffffffffffffffffffffff169060200190929190505050612332565b005b610c34612546565b604051808273ffffffffffffffffffffffffffffffffffffffff1673ffffffffffffffffffffffffffffffffffffffff16815260200191505060405180910390f35b610c7e61258b565b604051808273ffffffffffffffffffffffffffffffffffffffff1673ffffffffffffffffffffffffffffffffffffffff16815260200191505060405180910390f35b610cc86125d0565b604051808273ffffffffffffffffffffffffffffffffffffffff1673ffffffffffffffffffffffffffffffffffffffff16815260200191505060405180910390f35b610d12612615565b604051808273ffffffffffffffffffffffffffffffffffffffff1673ffffffffffffffffffffffffffffffffffffffff16815260200191505060405180910390f35b610d5c61265a565b604051808273ffffffffffffffffffffffffffffffffffffffff1673ffffffffffffffffffffffffffffffffffffffff16815260200191505060405180910390f35b610de060048036036020811015610db457600080fd5b81019080803573ffffffffffffffffffffffffffffffffffffffff16906020019092919050505061269f565b005b610dea61276d565b604051808273ffffffffffffffffffffffffffffffffffffffff1673ffffffffffffffffffffffffffffffffffffffff16815260200191505060405180910390f35b610e346127b2565b604051808273ffffffffffffffffffffffffffffffffffffffff1673ffffffffffffffffffffffffffffffffffffffff16815260200191505060405180910390f35b6000610eb66040518060400160405280600981526020017f54696d654672616d65000000000000000000000000000000000000000000000081525061130a565b905090565b6000610efb6040518060400160405280600781526020017f42657474696e670000000000000000000000000000000000000000000000000081525061130a565b905090565b6000610f406040518060400160405280600981526020017f47656e657269634442000000000000000000000000000000000000000000000081525061130a565b9050600060608273ffffffffffffffffffffffffffffffffffffffff166040518060400160405280600681526020017f526f6c65444200000000000000000000000000000000000000000000000000008152503360405160200180807f61646d696e0000000000000000000000000000000000000000000000000000008152506005018273ffffffffffffffffffffffffffffffffffffffff1673ffffffffffffffffffffffffffffffffffffffff1660601b8152601401915050604051602081830303815290604052805190602001206040516024018080602001838152602001828103825284818151815260200191508051906020019080838360005b8381101561105a57808201518184015260208101905061103f565b50505050905090810190601f1680156110875780820380516001836020036101000a031916815260200191505b5093505050506040516020818303038152906040527f1c58c8bb000000000000000000000000000000000000000000000000000000007bffffffffffffffffffffffffffffffffffffffffffffffffffffffff19166020820180517bffffffffffffffffffffffffffffffffffffffffffffffffffffffff83818316178352505050506040518082805190602001908083835b6020831061113d578051825260208201915060208101905060208303925061111a565b6001836020036101000a038019825116818451168082178552505050505050905001915050600060405180830381855afa9150503d806000811461119d576040519150601f19603f3d011682016040523d82523d6000602084013e6111a2565b606091505b50915091508161121a576040517f08c379a00000000000000000000000000000000000000000000000000000000081526004018080602001828103825260138152602001807f4661696c656420746f206c6f616420726f6c650000000000000000000000000081525060200191505060405180910390fd5b600081806020019051602081101561123157600080fd5b81019080805190602001909291905050509050806112b7576040517f08c379a00000000000000000000000000000000000000000000000000000000081526004018080602001828103825260198152602001807f53656e6465722068617320746f20626520616e2061646d696e0000000000000081525060200191505060405180910390fd5b6112bf6127f7565b50505050565b60006113056040518060400160405280601681526020017f486f6e6579706f74416c6c6f636174696f6e416c676f0000000000000000000081525061130a565b905090565b60008082805190602001209050600073ffffffffffffffffffffffffffffffffffffffff166001600083815260200190815260200160002060009054906101000a900473ffffffffffffffffffffffffffffffffffffffff1673ffffffffffffffffffffffffffffffffffffffff16141561150f5760608360405160200180807f436f6e7472616374206e6f7420726567697374657265643a200000000000000081525060190182805190602001908083835b602083106113e057805182526020820191506020810190506020830392506113bd565b6001836020036101000a0380198251168184511680821785525050505050509050019150506040516020818303038152906040526040516024018080602001828103825283818151815260200191508051906020019080838360005b8381101561145757808201518184015260208101905061143c565b50505050905090810190601f1680156114845780820380516001836020036101000a031916815260200191505b50925050506040516020818303038152906040527f08c379a0000000000000000000000000000000000000000000000000000000007bffffffffffffffffffffffffffffffffffffffffffffffffffffffff19166020820180517bffffffffffffffffffffffffffffffffffffffffffffffffffffffff838183161783525050505090508060208201fd5b6001600082815260200190815260200160002060009054906101000a900473ffffffffffffffffffffffffffffffffffffffff16915050919050565b600061158b6040518060400160405280600f81526020017f4561726e696e6773547261636b6572000000000000000000000000000000000081525061130a565b905090565b60006115d06040518060400160405280600a81526020017f4b697474696548656c6c0000000000000000000000000000000000000000000081525061130a565b905090565b60006116156040518060400160405280600d81526020017f47616d65566172416e644665650000000000000000000000000000000000000081525061130a565b905090565b6060808383905060405190808252806020026020018201604052801561164f5781602001602082028038833980820191505090505b50905060008090505b848490508110156116fc576001600086868481811061167357fe5b90506020020135815260200190815260200160002060009054906101000a900473ffffffffffffffffffffffffffffffffffffffff168282815181106116b557fe5b602002602001019073ffffffffffffffffffffffffffffffffffffffff16908173ffffffffffffffffffffffffffffffffffffffff16815250508080600101915050611658565b508091505092915050565b60006117476040518060400160405280601081526020017f52617269747943616c63756c61746f720000000000000000000000000000000081525061130a565b905090565b600061178c6040518060400160405280600c81526020017f54696d65436f6e7472616374000000000000000000000000000000000000000081525061130a565b905090565b606060006117d36040518060400160405280600981526020017f47656e657269634442000000000000000000000000000000000000000000000081525061130a565b9050600060608273ffffffffffffffffffffffffffffffffffffffff166040518060400160405280600681526020017f526f6c65444200000000000000000000000000000000000000000000000000008152503360405160200180807f61646d696e0000000000000000000000000000000000000000000000000000008152506005018273ffffffffffffffffffffffffffffffffffffffff1673ffffffffffffffffffffffffffffffffffffffff1660601b8152601401915050604051602081830303815290604052805190602001206040516024018080602001838152602001828103825284818151815260200191508051906020019080838360005b838110156118ed5780820151818401526020810190506118d2565b50505050905090810190601f16801561191a5780820380516001836020036101000a031916815260200191505b5093505050506040516020818303038152906040527f1c58c8bb000000000000000000000000000000000000000000000000000000007bffffffffffffffffffffffffffffffffffffffffffffffffffffffff19166020820180517bffffffffffffffffffffffffffffffffffffffffffffffffffffffff83818316178352505050506040518082805190602001908083835b602083106119d057805182526020820191506020810190506020830392506119ad565b6001836020036101000a038019825116818451168082178552505050505050905001915050600060405180830381855afa9150503d8060008114611a30576040519150601f19603f3d011682016040523d82523d6000602084013e611a35565b606091505b509150915081611aad576040517f08c379a00000000000000000000000000000000000000000000000000000000081526004018080602001828103825260138152602001807f4661696c656420746f206c6f616420726f6c650000000000000000000000000081525060200191505060405180910390fd5b6000818060200190516020811015611ac457600080fd5b8101908080519060200190929190505050905080611b4a576040517f08c379a00000000000000000000000000000000000000000000000000000000081526004018080602001828103825260198152602001807f53656e6465722068617320746f20626520616e2061646d696e0000000000000081525060200191505060405180910390fd5b6000611b8a6040518060400160405280600781526020017f43726f6e4a6f620000000000000000000000000000000000000000000000000081525061130a565b90508073ffffffffffffffffffffffffffffffffffffffff1687604051602401808281526020019150506040516020818303038152906040527f58838def000000000000000000000000000000000000000000000000000000007bffffffffffffffffffffffffffffffffffffffffffffffffffffffff19166020820180517bffffffffffffffffffffffffffffffffffffffffffffffffffffffff83818316178352505050506040518082805190602001908083835b60208310611c645780518252602082019150602081019050602083039250611c41565b6001836020036101000a0380198251168184511680821785525050505050509050019150506000604051808303816000865af19150503d8060008114611cc6576040519150601f19603f3d011682016040523d82523d6000602084013e611ccb565b606091505b50809450819550505083611d47576040517f08c379a00000000000000000000000000000000000000000000000000000000081526004018080602001828103825260138152602001807f457865637574652063616c6c206661696c65640000000000000000000000000081525060200191505060405180910390fd5b8295505050505050919050565b6000611d946040518060400160405280600981526020017f50726f66696c654442000000000000000000000000000000000000000000000081525061130a565b905090565b60025481565b6000809054906101000a900473ffffffffffffffffffffffffffffffffffffffff1673ffffffffffffffffffffffffffffffffffffffff163373ffffffffffffffffffffffffffffffffffffffff1614611df557fe5b600082805190602001209050600073ffffffffffffffffffffffffffffffffffffffff166001600083815260200190815260200160002060009054906101000a900473ffffffffffffffffffffffffffffffffffffffff1673ffffffffffffffffffffffffffffffffffffffff161415611ed7576040517f08c379a00000000000000000000000000000000000000000000000000000000081526004018080602001828103825260208152602001807f4e6f20636f6e747261637420776974682074686973206e616d6520666f756e6481525060200191505060405180910390fd5b816001600083815260200190815260200160002060006101000a81548173ffffffffffffffffffffffffffffffffffffffff021916908373ffffffffffffffffffffffffffffffffffffffff160217905550505050565b6000611f6e6040518060400160405280600c81526020017f4b697474696548656c6c4442000000000000000000000000000000000000000081525061130a565b905090565b6000809054906101000a900473ffffffffffffffffffffffffffffffffffffffff1681565b6000611fd86040518060400160405280600681526020017f526f6c654442000000000000000000000000000000000000000000000000000081525061130a565b905090565b600061201d6040518060400160405280600b81526020017f486974735265736f6c766500000000000000000000000000000000000000000081525061130a565b905090565b60006120626040518060400160405280600981526020017f5363686564756c6572000000000000000000000000000000000000000000000081525061130a565b905090565b6000809054906101000a900473ffffffffffffffffffffffffffffffffffffffff1673ffffffffffffffffffffffffffffffffffffffff163373ffffffffffffffffffffffffffffffffffffffff16146120bd57fe5b600081116120ca57600080fd5b8060028190555050565b6000809054906101000a900473ffffffffffffffffffffffffffffffffffffffff1673ffffffffffffffffffffffffffffffffffffffff163373ffffffffffffffffffffffffffffffffffffffff161461212a57fe5b600081805190602001209050600073ffffffffffffffffffffffffffffffffffffffff166001600083815260200190815260200160002060009054906101000a900473ffffffffffffffffffffffffffffffffffffffff1673ffffffffffffffffffffffffffffffffffffffff16141561220c576040517f08c379a00000000000000000000000000000000000000000000000000000000081526004018080602001828103825260208152602001807f4e6f20636f6e747261637420776974682074686973206e616d6520666f756e6481525060200191505060405180910390fd5b60006001600083815260200190815260200160002060006101000a81548173ffffffffffffffffffffffffffffffffffffffff021916908373ffffffffffffffffffffffffffffffffffffffff1602179055505050565b60006122a36040518060400160405280600981526020017f466f72666569746572000000000000000000000000000000000000000000000081525061130a565b905090565b60006122e86040518060400160405280600c81526020017f446973747269627574696f6e000000000000000000000000000000000000000081525061130a565b905090565b600061232d6040518060400160405280600a81526020017f474d53657474657244420000000000000000000000000000000000000000000081525061130a565b905090565b6000809054906101000a900473ffffffffffffffffffffffffffffffffffffffff1673ffffffffffffffffffffffffffffffffffffffff163373ffffffffffffffffffffffffffffffffffffffff161461238857fe5b600073ffffffffffffffffffffffffffffffffffffffff168173ffffffffffffffffffffffffffffffffffffffff16141561242b576040517f08c379a00000000000000000000000000000000000000000000000000000000081526004018080602001828103825260208152602001807f436f6e747261637420616464726573732063616e206e6f74206265207a65726f81525060200191505060405180910390fd5b600082805190602001209050600073ffffffffffffffffffffffffffffffffffffffff166001600083815260200190815260200160002060009054906101000a900473ffffffffffffffffffffffffffffffffffffffff1673ffffffffffffffffffffffffffffffffffffffff16146124ef576040517f08c379a0000000000000000000000000000000000000000000000000000000008152600401808060200182810382526025815260200180612a156025913960400191505060405180910390fd5b816001600083815260200190815260200160002060006101000a81548173ffffffffffffffffffffffffffffffffffffffff021916908373ffffffffffffffffffffffffffffffffffffffff160217905550505050565b60006125866040518060400160405280600781526020017f43726f6e4a6f620000000000000000000000000000000000000000000000000081525061130a565b905090565b60006125cb6040518060400160405280600a81526020017f474d47657474657244420000000000000000000000000000000000000000000081525061130a565b905090565b60006126106040518060400160405280600c81526020017f5769746864726177506f6f6c000000000000000000000000000000000000000081525061130a565b905090565b60006126556040518060400160405280600b81526020017f47616d654d616e6167657200000000000000000000000000000000000000000081525061130a565b905090565b600061269a6040518060400160405280600881526020017f526567697374657200000000000000000000000000000000000000000000000081525061130a565b905090565b6000809054906101000a900473ffffffffffffffffffffffffffffffffffffffff1673ffffffffffffffffffffffffffffffffffffffff163373ffffffffffffffffffffffffffffffffffffffff16146126f557fe5b600073ffffffffffffffffffffffffffffffffffffffff168173ffffffffffffffffffffffffffffffffffffffff161461276a57806000806101000a81548173ffffffffffffffffffffffffffffffffffffffff021916908373ffffffffffffffffffffffffffffffffffffffff1602179055505b50565b60006127ad6040518060400160405280600b81526020017f456e646f776d656e74444200000000000000000000000000000000000000000081525061130a565b905090565b60006127f26040518060400160405280600d81526020017f456e646f776d656e7446756e640000000000000000000000000000000000000081525061130a565b905090565b60006128376040518060400160405280600781526020017f43726f6e4a6f620000000000000000000000000000000000000000000000000081525061130a565b905060008090505b600254811015612a1057600060608373ffffffffffffffffffffffffffffffffffffffff166040516024016040516020818303038152906040527f05044bac000000000000000000000000000000000000000000000000000000007bffffffffffffffffffffffffffffffffffffffffffffffffffffffff19166020820180517bffffffffffffffffffffffffffffffffffffffffffffffffffffffff83818316178352505050506040518082805190602001908083835b6020831061291a57805182526020820191506020810190506020830392506128f7565b6001836020036101000a0380198251168184511680821785525050505050509050019150506000604051808303816000865af19150503d806000811461297c576040519150601f19603f3d011682016040523d82523d6000602084013e612981565b606091505b509150915081156129d45760008180602001905160408110156129a357600080fd5b810190808051906020019092919080519060200190929190505050509050806129ce57505050612a10565b50612a01565b7fd0c39055083f1cd7e99672a54796862cd3b34c3db7964de3d92cfc9a9d47362060405160405180910390a15b5050808060010191505061283f565b505056fe436f6e747261637420776974682074686973206e616d6520616c7265616479206164646564a265627a7a7231582066a682f7b2f0aaa483f36744d763aff5598b27e318c829e85ef765c473c42eb264736f6c63430005110032",
  "source": "/**\n * @title CronJob\n *\n * @author @kittieFIGHT @ola @pash7ka\n *\n */\n\n// This program is free software: you can redistribute it and/or modify\n// it under the terms of the GNU General Public License as published by\n// the Free Software Foundation, either version 3 of the License, or\n// (at your option) any later version.\n\n// This program is distributed in the hope that it will be useful,\n// but WITHOUT ANY WARRANTY; without even the implied warranty of\n// MERCHANTABILITY or FITNESS FOR A PARTICULAR PURPOSE.  See the\n// GNU General Public License for more details.\n\n// You should have received a copy of the GNU General Public License\n// along with this program.  If not, see <http://www.gnu.org/licenses/>.\npragma solidity ^0.5.5;\n\nimport \"../../authority/Owned.sol\";\nimport \"../../CronJob.sol\";\nimport \"./ProxyBase.sol\";\n\ncontract CronJobProxy is ProxyBase {\n    event CronJobExecutionFailed(); //This is used to signal about something really unexpected happened\n\n    uint256 public maxJobsForOneRun = 2;\n\n    function setMaxJobsForOneRun(uint256 _maxJobsForOneRun) onlyOwner public {\n        require(_maxJobsForOneRun > 0);\n        maxJobsForOneRun = _maxJobsForOneRun;\n    }\n\n    /**\n     * @notice Executes up to maxJobsForOneRun scheduled jobs, if available\n     * @dev This can be executed by admins, but since KFProxy can not use Guard, we need to do check manually\n     */\n    function executeScheduledJobs() external {\n        address genericDB = getContract(CONTRACT_NAME_GENERIC_DB);\n        (bool success, bytes memory result) = genericDB.staticcall(abi.encodeWithSignature(\n            \"getBoolStorage(string,bytes32)\",\n            CONTRACT_NAME_ROLE_DB,\n            keccak256(abi.encodePacked(\"admin\", msg.sender))\n        ));\n        require(success, 'Failed to load role');\n        bool hasRole = abi.decode(result, (bool));\n        require(hasRole, 'Sender has to be an admin');\n\n        _executeScheduledJobs();\n    }\n    function executeJob(uint256 jobId) external returns(bytes memory) {\n        address genericDB = getContract(CONTRACT_NAME_GENERIC_DB);\n        (bool success, bytes memory result) = genericDB.staticcall(abi.encodeWithSignature(\n            \"getBoolStorage(string,bytes32)\",\n            CONTRACT_NAME_ROLE_DB,\n            keccak256(abi.encodePacked(\"admin\", msg.sender))\n        ));\n        require(success, 'Failed to load role');\n        bool hasRole = abi.decode(result, (bool));\n        require(hasRole, 'Sender has to be an admin');\n\n        address cronJob = getContract(CONTRACT_NAME_CRONJOB);\n        (success, result) = cronJob.call(abi.encodeWithSignature('executeJob(uint256)', jobId));\n        require(success, 'Execute call failed');\n        return result;\n    }\n\n\n    /**\n     * @notice Executes up to maxJobsForOneRun scheduled jobs, if available\n     */\n    function _executeScheduledJobs() internal {\n        address cronJob = getContract(CONTRACT_NAME_CRONJOB);\n        //if(cronJob == address(0)) return; //this can not happen because of check in ContractManager\n        for(uint256 i=0; i < maxJobsForOneRun; i++){\n            //Use address.call() because we need to handle failures here\n            (bool success, bytes memory result) = cronJob.call(abi.encodeWithSignature('executeNextJobIfAvailable()'));\n            if(success){\n                (bool jobWasExecuted, /*uint256 jobId*/) = abi.decode(result, (bool, uint256));\n                if(!jobWasExecuted) break;  //There is no more jobs scheduled for now\n            }else{\n                emit CronJobExecutionFailed();\n            }\n        }\n    }\n\n\n}\n",
  "sourcePath": "/Users/ziweizhang/Desktop/rinkeby3/contracts/contracts/modules/proxy/CronJobProxy.sol",
  "compiler": {
    "name": "solc",
    "version": "0.5.17+commit.d19bba13.Emscripten.clang"
  },
  "schemaVersion": "3.0.23",
  "updatedAt": "2020-05-19T00:12:24.817Z",
  "devdoc": {
    "methods": {
      "executeScheduledJobs()": {
        "details": "This can be executed by admins, but since KFProxy can not use Guard, we need to do check manually"
      }
    }
  },
  "userdoc": {
    "methods": {
      "addressOfRegister()": {
        "notice": "Getters for KittyFight system contracts"
      },
      "executeScheduledJobs()": {
        "notice": "Executes up to maxJobsForOneRun scheduled jobs, if available"
      }
    }
  }
}