{
  "contractName": "CronJobDB",
  "abi": [
    {
      "constant": true,
      "inputs": [],
      "name": "genericDB",
      "outputs": [
        {
          "name": "",
          "type": "address"
        }
      ],
      "payable": false,
      "stateMutability": "view",
      "type": "function"
    },
    {
      "constant": true,
      "inputs": [],
      "name": "owner",
      "outputs": [
        {
          "name": "",
          "type": "address"
        }
      ],
      "payable": false,
      "stateMutability": "view",
      "type": "function"
    },
    {
      "constant": false,
      "inputs": [
        {
          "name": "_proxy",
          "type": "address"
        }
      ],
      "name": "setProxy",
      "outputs": [],
      "payable": false,
      "stateMutability": "nonpayable",
      "type": "function"
    },
    {
      "constant": true,
      "inputs": [],
      "name": "proxy",
      "outputs": [
        {
          "name": "",
          "type": "address"
        }
      ],
      "payable": false,
      "stateMutability": "view",
      "type": "function"
    },
    {
      "constant": false,
      "inputs": [
        {
          "name": "newOwner",
          "type": "address"
        }
      ],
      "name": "transferOwnership",
      "outputs": [],
      "payable": false,
      "stateMutability": "nonpayable",
      "type": "function"
    },
    {
      "inputs": [
        {
          "name": "_genericDB",
          "type": "address"
        }
      ],
      "payable": false,
      "stateMutability": "nonpayable",
      "type": "constructor"
    },
    {
      "constant": false,
      "inputs": [
        {
          "name": "_genericDB",
          "type": "address"
        }
      ],
      "name": "setGenericDB",
      "outputs": [],
      "payable": false,
      "stateMutability": "nonpayable",
      "type": "function"
    },
    {
      "constant": true,
      "inputs": [
        {
          "name": "time",
          "type": "uint256"
        },
        {
          "name": "nonce",
          "type": "uint16"
        }
      ],
      "name": "generateJobID",
      "outputs": [
        {
          "name": "",
          "type": "uint256"
        }
      ],
      "payable": false,
      "stateMutability": "pure",
      "type": "function"
    },
    {
      "constant": true,
      "inputs": [
        {
          "name": "jobId",
          "type": "uint256"
        }
      ],
      "name": "parseJobID",
      "outputs": [
        {
          "name": "",
          "type": "uint256"
        },
        {
          "name": "",
          "type": "uint16"
        }
      ],
      "payable": false,
      "stateMutability": "pure",
      "type": "function"
    },
    {
      "constant": true,
      "inputs": [
        {
          "name": "time",
          "type": "uint256"
        }
      ],
      "name": "getJobNonceForTimestamp",
      "outputs": [
        {
          "name": "",
          "type": "uint16"
        }
      ],
      "payable": false,
      "stateMutability": "view",
      "type": "function"
    },
    {
      "constant": true,
      "inputs": [
        {
          "name": "time",
          "type": "uint256"
        }
      ],
      "name": "findNextJob",
      "outputs": [
        {
          "name": "",
          "type": "uint256"
        }
      ],
      "payable": false,
      "stateMutability": "view",
      "type": "function"
    },
    {
      "constant": true,
      "inputs": [
        {
          "name": "jobId",
          "type": "uint256"
        }
      ],
      "name": "getJob",
      "outputs": [
        {
          "name": "",
          "type": "uint256"
        },
        {
          "name": "",
          "type": "string"
        },
        {
          "name": "",
          "type": "bytes"
        }
      ],
      "payable": false,
      "stateMutability": "view",
      "type": "function"
    },
    {
      "constant": true,
      "inputs": [],
      "name": "getLastScheduledJobTime",
      "outputs": [
        {
          "name": "",
          "type": "uint256"
        }
      ],
      "payable": false,
      "stateMutability": "view",
      "type": "function"
    }
  ],
  "bytecode": "0x608060405234801561001057600080fd5b506040516114b73803806114b78339818101604052602081101561003357600080fd5b8101908080519060200190929190505050336000806101000a81548173ffffffffffffffffffffffffffffffffffffffff021916908373ffffffffffffffffffffffffffffffffffffffff1602179055506100938161009960201b60201c565b50610133565b6000809054906101000a900473ffffffffffffffffffffffffffffffffffffffff1673ffffffffffffffffffffffffffffffffffffffff163373ffffffffffffffffffffffffffffffffffffffff16146100ef57fe5b80600260006101000a81548173ffffffffffffffffffffffffffffffffffffffff021916908373ffffffffffffffffffffffffffffffffffffffff16021790555050565b611375806101426000396000f3fe608060405234801561001057600080fd5b50600436106100b45760003560e01c806397107d6d1161007157806397107d6d14610250578063a98318d614610294578063bf22c457146102de578063ec556889146103f8578063f2fde38b14610442578063f5afe84714610486576100b4565b80631761de18146100b95780633411d94c146100d75780633564e78c146101275780633aaae560146101715780634afab815146101c25780638da5cb5b14610206575b600080fd5b6100c16104c8565b6040518082815260200191505060405180910390f35b610111600480360360408110156100ed57600080fd5b8101908080359060200190929190803561ffff1690602001909291905050506104e5565b6040518082815260200191505060405180910390f35b61012f6104fa565b604051808273ffffffffffffffffffffffffffffffffffffffff1673ffffffffffffffffffffffffffffffffffffffff16815260200191505060405180910390f35b61019d6004803603602081101561018757600080fd5b8101908080359060200190929190505050610520565b604051808381526020018261ffff1661ffff1681526020019250505060405180910390f35b610204600480360360208110156101d857600080fd5b81019080803573ffffffffffffffffffffffffffffffffffffffff169060200190929190505050610536565b005b61020e6105d0565b604051808273ffffffffffffffffffffffffffffffffffffffff1673ffffffffffffffffffffffffffffffffffffffff16815260200191505060405180910390f35b6102926004803603602081101561026657600080fd5b81019080803573ffffffffffffffffffffffffffffffffffffffff1690602001909291905050506105f5565b005b6102c0600480360360208110156102aa57600080fd5b810190808035906020019092919050505061068f565b604051808261ffff1661ffff16815260200191505060405180910390f35b61030a600480360360208110156102f457600080fd5b8101908080359060200190929190505050610835565b604051808481526020018060200180602001838103835285818151815260200191508051906020019080838360005b83811015610354578082015181840152602081019050610339565b50505050905090810190601f1680156103815780820380516001836020036101000a031916815260200191505b50838103825284818151815260200191508051906020019080838360005b838110156103ba57808201518184015260208101905061039f565b50505050905090810190601f1680156103e75780820380516001836020036101000a031916815260200191505b509550505050505060405180910390f35b610400610ecd565b604051808273ffffffffffffffffffffffffffffffffffffffff1673ffffffffffffffffffffffffffffffffffffffff16815260200191505060405180910390f35b6104846004803603602081101561045857600080fd5b81019080803573ffffffffffffffffffffffffffffffffffffffff169060200190929190505050610ef3565b005b6104b26004803603602081101561049c57600080fd5b8101908080359060200190929190505050610fc1565b6040518082815260200191505060405180910390f35b6000806104db6104d661117e565b610520565b5090508091505090565b60008161ffff16601084901b01905092915050565b600260009054906101000a900473ffffffffffffffffffffffffffffffffffffffff1681565b600080601083901c8361ffff1691509150915091565b6000809054906101000a900473ffffffffffffffffffffffffffffffffffffffff1673ffffffffffffffffffffffffffffffffffffffff163373ffffffffffffffffffffffffffffffffffffffff161461058c57fe5b80600260006101000a81548173ffffffffffffffffffffffffffffffffffffffff021916908373ffffffffffffffffffffffffffffffffffffffff16021790555050565b6000809054906101000a900473ffffffffffffffffffffffffffffffffffffffff1681565b6000809054906101000a900473ffffffffffffffffffffffffffffffffffffffff1673ffffffffffffffffffffffffffffffffffffffff163373ffffffffffffffffffffffffffffffffffffffff161461064b57fe5b80600160006101000a81548173ffffffffffffffffffffffffffffffffffffffff021916908373ffffffffffffffffffffffffffffffffffffffff16021790555050565b6000600260009054906101000a900473ffffffffffffffffffffffffffffffffffffffff1673ffffffffffffffffffffffffffffffffffffffff166308acb5566040518060400160405280600781526020017f43726f6e4a6f62000000000000000000000000000000000000000000000000008152508460405160200180828152602001807f6a6f624e6f6e6365000000000000000000000000000000000000000000000000815250600801915050604051602081830303815290604052805190602001206040518363ffffffff1660e01b81526004018080602001838152602001828103825284818151815260200191508051906020019080838360005b838110156107a957808201518184015260208101905061078e565b50505050905090810190601f1680156107d65780820380516001836020036101000a031916815260200191505b50935050505060206040518083038186803b1580156107f457600080fd5b505afa158015610808573d6000803e3d6000fd5b505050506040513d602081101561081e57600080fd5b810190808051906020019092919050505050919050565b6000606080600260009054906101000a900473ffffffffffffffffffffffffffffffffffffffff1673ffffffffffffffffffffffffffffffffffffffff166396edc0096040518060400160405280600781526020017f43726f6e4a6f620000000000000000000000000000000000000000000000000081525060405160200180807f43726f6e4a6f624c697374000000000000000000000000000000000000000000815250600b01905060405160208183030381529060405280519060200120876040518463ffffffff1660e01b81526004018080602001848152602001838152602001828103825285818151815260200191508051906020019080838360005b83811015610951578082015181840152602081019050610936565b50505050905090810190601f16801561097e5780820380516001836020036101000a031916815260200191505b5094505050505060206040518083038186803b15801561099d57600080fd5b505afa1580156109b1573d6000803e3d6000fd5b505050506040513d60208110156109c757600080fd5b81019080805190602001909291905050506040518060400160405280600e81526020017f4a6f62206e6f742065786973747300000000000000000000000000000000000081525090610ab4576040517f08c379a00000000000000000000000000000000000000000000000000000000081526004018080602001828103825283818151815260200191508051906020019080838360005b83811015610a79578082015181840152602081019050610a5e565b50505050905090810190601f168015610aa65780820380516001836020036101000a031916815260200191505b509250505060405180910390fd5b50600080610ac186610520565b80925081935050506060600260009054906101000a900473ffffffffffffffffffffffffffffffffffffffff1673ffffffffffffffffffffffffffffffffffffffff16631a84fbb86040518060400160405280600781526020017f43726f6e4a6f62000000000000000000000000000000000000000000000000008152508960405160200180828152602001807f63616c6c65650000000000000000000000000000000000000000000000000000815250600601915050604051602081830303815290604052805190602001206040518363ffffffff1660e01b81526004018080602001838152602001828103825284818151815260200191508051906020019080838360005b83811015610be3578082015181840152602081019050610bc8565b50505050905090810190601f168015610c105780820380516001836020036101000a031916815260200191505b50935050505060006040518083038186803b158015610c2e57600080fd5b505afa158015610c42573d6000803e3d6000fd5b505050506040513d6000823e3d601f19601f820116820180604052506020811015610c6c57600080fd5b810190808051640100000000811115610c8457600080fd5b82810190506020810184811115610c9a57600080fd5b8151856001820283011164010000000082111715610cb757600080fd5b505092919050505090506060600260009054906101000a900473ffffffffffffffffffffffffffffffffffffffff1673ffffffffffffffffffffffffffffffffffffffff1663773cdbd76040518060400160405280600781526020017f43726f6e4a6f62000000000000000000000000000000000000000000000000008152508a60405160200180828152602001807f6461746100000000000000000000000000000000000000000000000000000000815250600401915050604051602081830303815290604052805190602001206040518363ffffffff1660e01b81526004018080602001838152602001828103825284818151815260200191508051906020019080838360005b83811015610ddb578082015181840152602081019050610dc0565b50505050905090810190601f168015610e085780820380516001836020036101000a031916815260200191505b50935050505060006040518083038186803b158015610e2657600080fd5b505afa158015610e3a573d6000803e3d6000fd5b505050506040513d6000823e3d601f19601f820116820180604052506020811015610e6457600080fd5b810190808051640100000000811115610e7c57600080fd5b82810190506020810184811115610e9257600080fd5b8151856001820283011164010000000082111715610eaf57600080fd5b50509291905050509050838282965096509650505050509193909250565b600160009054906101000a900473ffffffffffffffffffffffffffffffffffffffff1681565b6000809054906101000a900473ffffffffffffffffffffffffffffffffffffffff1673ffffffffffffffffffffffffffffffffffffffff163373ffffffffffffffffffffffffffffffffffffffff1614610f4957fe5b600073ffffffffffffffffffffffffffffffffffffffff168173ffffffffffffffffffffffffffffffffffffffff1614610fbe57806000806101000a81548173ffffffffffffffffffffffffffffffffffffffff021916908373ffffffffffffffffffffffffffffffffffffffff1602179055505b50565b600080610fd683610fd18561068f565b6104e5565b9050600260009054906101000a900473ffffffffffffffffffffffffffffffffffffffff1673ffffffffffffffffffffffffffffffffffffffff1663757ba9a26040518060400160405280600781526020017f43726f6e4a6f620000000000000000000000000000000000000000000000000081525060405160200180807f43726f6e4a6f624c697374000000000000000000000000000000000000000000815250600b01905060405160208183030381529060405280519060200120846040518463ffffffff1660e01b81526004018080602001848152602001838152602001828103825285818151815260200191508051906020019080838360005b838110156110ef5780820151818401526020810190506110d4565b50505050905090810190601f16801561111c5780820380516001836020036101000a031916815260200191505b5094505050505060206040518083038186803b15801561113b57600080fd5b505afa15801561114f573d6000803e3d6000fd5b505050506040513d602081101561116557600080fd5b8101908080519060200190929190505050915050919050565b600080600260009054906101000a900473ffffffffffffffffffffffffffffffffffffffff1673ffffffffffffffffffffffffffffffffffffffff16639a481f4e6040518060400160405280600781526020017f43726f6e4a6f620000000000000000000000000000000000000000000000000081525060405160200180807f43726f6e4a6f624c697374000000000000000000000000000000000000000000815250600b01905060405160208183030381529060405280519060200120600060016040518563ffffffff1660e01b8152600401808060200185815260200184815260200183151515158152602001828103825286818151815260200191508051906020019080838360005b838110156112a557808201518184015260208101905061128a565b50505050905090810190601f1680156112d25780820380516001836020036101000a031916815260200191505b5095505050505050604080518083038186803b1580156112f157600080fd5b505afa158015611305573d6000803e3d6000fd5b505050506040513d604081101561131b57600080fd5b810190808051906020019092919080519060200190929190505050915050809150509056fea265627a7a72305820e5a413281680eeeee117a7977c296e7d9f4734ab8e0f31037990aa97240ab52864736f6c634300050a0032",
  "source": "// This program is free software: you can redistribute it and/or modify\n// it under the terms of the GNU General Public License as published by\n// the Free Software Foundation, either version 3 of the License, or\n// (at your option) any later version.\n\n// This program is distributed in the hope that it will be useful,\n// but WITHOUT ANY WARRANTY; without even the implied warranty of\n// MERCHANTABILITY or FITNESS FOR A PARTICULAR PURPOSE.  See the\n// GNU General Public License for more details.\n\n// You should have received a copy of the GNU General Public License\n// along with this program.  If not, see <http://www.gnu.org/licenses/>.\npragma solidity ^0.5.5;\n\nimport \"../proxy/Proxied.sol\";\nimport \"./GenericDB.sol\";\nimport \"../../libs/SafeMath.sol\";\n\n\n/**\n * @title CronJobDB\n * @author @psychoplasma @pash7ka\n *\n * Storage consists of a linked list of ids and data, stored in maps, wehre key is a job id.\n * Job id is created from timestamp and a nonce, which is current count of jobs for specific timestamp.\n * After adding a job, nonce for it's timestamp is incremented. When canceling a job, nonce is NOT decremented.\n *\n * This contract should not be used standalone, it is designed as a part of CronJob\n */\ncontract CronJobDB is Proxied {\n    using SafeMath for uint256;\n\n    GenericDB public genericDB;\n\n    bytes32 internal constant TABLE_KEY = keccak256(abi.encodePacked(\"CronJobList\"));\n    string internal constant ERROR_ALREADY_EXIST = \"Job already exists\";\n    string internal constant ERROR_DOES_NOT_EXIST = \"Job not exists\";\n    string internal constant ERROR_NOT_LAST = \"Job can not be added, because there is other jobs after it. Use nextJob parameter.\";\n    string internal constant ERROR_NOT_BEFORE = \"Job can not be added because it should be after specified job.\";\n    string internal constant ERROR_NOT_FIRST_BEFORE = \"Job can not be added because it is not directly before specified job.\";\n\n    constructor(GenericDB _genericDB) public {\n        setGenericDB(_genericDB);\n    }\n\n    function setGenericDB(GenericDB _genericDB) public onlyOwner {\n        genericDB = _genericDB;\n    }\n\n    /**\n     * @notice Generates id of the Job\n     * @param time When job has to be executed\n     * @param nonce Index of job scheduled to specified timestamp\n     */\n    function generateJobID(uint256 time, uint16 nonce) pure public returns(uint256) {\n        return (time << 16) + nonce;\n    }\n    function parseJobID(uint256 jobId) pure public returns(uint256, uint16) {\n        return (jobId >> 16, uint16(0xFFFF & jobId));\n    }\n\n    function getJobNonceForTimestamp(uint256 time) view public returns(uint16) {\n        uint16(genericDB.getUintStorage(CONTRACT_NAME_CRONJOB, keccak256(abi.encodePacked(time, \"jobNonce\"))));        \n    }\n    function incrementJobNonceForTimestamp(uint256 time) internal {\n        uint16 nonce = getJobNonceForTimestamp(time);\n        genericDB.setUintStorage(CONTRACT_NAME_CRONJOB, keccak256(abi.encodePacked(time, \"jobNonce\")), uint256(nonce+1));        \n    }\n\n    /**\n     * @notice Use this to find job next to specific time\n     * Should be used before calling addJob() if inserting job in the middle of the queue\n     */\n    function findNextJob(uint256 time) view public returns(uint256){\n        uint256 jobId = generateJobID(time, getJobNonceForTimestamp(time));\n        return genericDB.findNextNodeInSortedLinkedList(CONTRACT_NAME_CRONJOB, TABLE_KEY, jobId);\n    }\n\n    /**\n     * @notice Returns a job, with specified id\n     * @param jobId Job to view\n     */\n    function getJob(uint256 jobId) view public returns(uint256, string memory, bytes memory) {\n        require(genericDB.doesNodeExist(CONTRACT_NAME_CRONJOB, TABLE_KEY, jobId), ERROR_DOES_NOT_EXIST);\n        uint256 time; uint16 nonce;\n        (time,nonce) = parseJobID(jobId);\n        string memory callee = genericDB.getStringStorage(CONTRACT_NAME_CRONJOB, keccak256(abi.encodePacked(jobId, \"callee\")));\n        bytes memory data = genericDB.getBytesStorage(CONTRACT_NAME_CRONJOB, keccak256(abi.encodePacked(jobId, \"data\")));\n        return (time, callee, data);\n    }\n\n    /**\n     * @notice Adds Job to the list\n     * @param time Job should be executed at first oportunity after this time\n     * @param callee Name of a contract to call\n     * @param data Message to send to this contract. Use abi.encodeWithSignature() to create it\n     * @param nextJob If this job should be scheduled before some other Job, it has to be specified with this parameter, otherwise it should be 0\n     */\n    function addJob(\n        uint256 time,\n        string memory callee,\n        bytes memory data,\n        uint256 nextJob\n    ) \n        internal //external onlyContract(CONTRACT_NAME_CRONJOB)\n        returns(uint256)\n    {\n        uint256 jobId = generateJobID(time, getJobNonceForTimestamp(time));\n\n        validateNewJobPosition(jobId, nextJob);\n\n        if(nextJob == 0){\n            require(genericDB.pushNodeToLinkedList(CONTRACT_NAME_CRONJOB, TABLE_KEY, jobId), ERROR_ALREADY_EXIST);\n        }else{\n            require(genericDB.insertNodeToLinkedList(CONTRACT_NAME_CRONJOB, TABLE_KEY, jobId, nextJob, false), ERROR_ALREADY_EXIST); //false means \"prev\" direction - insert before nextJob\n        }\n        incrementJobNonceForTimestamp(time);\n\n        genericDB.setStringStorage(CONTRACT_NAME_CRONJOB, keccak256(abi.encodePacked(jobId, \"callee\")), callee);\n        genericDB.setBytesStorage(CONTRACT_NAME_CRONJOB, keccak256(abi.encodePacked(jobId, \"data\")), data);\n\n        return jobId;\n    }\n\n\n    /**\n     * @notice Remove Job\n     * @param jobId Job to remove\n     */\n    function removeJob(uint256 jobId) \n        internal //external onlyContract(CONTRACT_NAME_CRONJOB) \n    {\n        require(genericDB.removeNodeFromLinkedList(CONTRACT_NAME_CRONJOB, TABLE_KEY, jobId), ERROR_DOES_NOT_EXIST);\n        //TODO: Find out if we need to actually delete the job data from mappings. Test gas price for this.\n    }\n\n\n    function getFirstJobId() view internal returns(uint256){\n        (/*bool found*/, uint256 id) = genericDB.getAdjacent(CONTRACT_NAME_CRONJOB, TABLE_KEY, 0, false);    // 0 means HEAD, false means tail of the list (because GenericDB.pushNodeToLinkedList() uses true as direction)\n        return id;\n    }\n    function getLastJobId() view internal returns(uint256){\n        (/*bool found*/, uint256 id) = genericDB.getAdjacent(CONTRACT_NAME_CRONJOB, TABLE_KEY, 0, true);    // 0 means HEAD, true means head of the list (because GenericDB.pushNodeToLinkedList() uses true as direction)\n        return id;\n    }\n    function getLastScheduledJobTime() view public returns(uint256) {\n        (uint256 time, /*uint16 nonce*/) = parseJobID(getLastJobId());   //If no jobs, result will be 0, which is fine.\n        return time;\n    }\n\n    function validateNewJobPosition(uint256 newJobId, uint256 nextJobId) view internal {\n        if(nextJobId == 0) {\n            //Check that new Job is really last\n            uint256 lastJobId = getLastJobId();\n            require(newJobId > lastJobId, ERROR_NOT_LAST);\n        } else {\n            //Check that we can insert new job bebore nextJob\n            require(newJobId < nextJobId, ERROR_NOT_BEFORE);\n            (bool found, uint256 prevId) = genericDB.getAdjacent(CONTRACT_NAME_CRONJOB, TABLE_KEY, nextJobId, false);   // false means \"before\" (PREV)\n            require(!found || newJobId > prevId, ERROR_NOT_FIRST_BEFORE);\n        }\n    }\n\n}\n",
  "sourcePath": "/home/wafflemakr/Desktop/KittieFight/alpha/contracts/modules/databases/CronJobDB.sol",
  "compiler": {
    "name": "solc",
    "version": "0.5.10+commit.5a6ea5b1.Emscripten.clang"
  },
  "schemaVersion": "3.0.11",
  "updatedAt": "2019-08-02T23:07:11.202Z",
  "devdoc": {
    "author": "@psychoplasma @pash7ka * Storage consists of a linked list of ids and data, stored in maps, wehre key is a job id. Job id is created from timestamp and a nonce, which is current count of jobs for specific timestamp. After adding a job, nonce for it's timestamp is incremented. When canceling a job, nonce is NOT decremented. * This contract should not be used standalone, it is designed as a part of CronJob",
    "methods": {
      "generateJobID(uint256,uint16)": {
        "params": {
          "nonce": "Index of job scheduled to specified timestamp",
          "time": "When job has to be executed"
        }
      },
      "getJob(uint256)": {
        "params": {
          "jobId": "Job to view"
        }
      }
    },
    "title": "CronJobDB"
  },
  "userdoc": {
    "methods": {
      "findNextJob(uint256)": {
        "notice": "Use this to find job next to specific time Should be used before calling addJob() if inserting job in the middle of the queue"
      },
      "generateJobID(uint256,uint16)": {
        "notice": "Generates id of the Job"
      },
      "getJob(uint256)": {
        "notice": "Returns a job, with specified id"
      },
      "setProxy(address)": {
        "notice": "Set/update address of Proxy contract"
      }
    }
  }
}