{
  "contractName": "CronJobTarget",
  "abi": [
    {
      "constant": true,
      "inputs": [],
      "name": "value",
      "outputs": [
        {
          "name": "",
          "type": "uint256"
        }
      ],
      "payable": false,
      "stateMutability": "view",
      "type": "function"
    },
    {
      "constant": true,
      "inputs": [],
      "name": "owner",
      "outputs": [
        {
          "name": "",
          "type": "address"
        }
      ],
      "payable": false,
      "stateMutability": "view",
      "type": "function"
    },
    {
      "constant": false,
      "inputs": [
        {
          "name": "_proxy",
          "type": "address"
        }
      ],
      "name": "setProxy",
      "outputs": [],
      "payable": false,
      "stateMutability": "nonpayable",
      "type": "function"
    },
    {
      "constant": true,
      "inputs": [],
      "name": "scheduledJob",
      "outputs": [
        {
          "name": "",
          "type": "uint256"
        }
      ],
      "payable": false,
      "stateMutability": "view",
      "type": "function"
    },
    {
      "constant": true,
      "inputs": [],
      "name": "proxy",
      "outputs": [
        {
          "name": "",
          "type": "address"
        }
      ],
      "payable": false,
      "stateMutability": "view",
      "type": "function"
    },
    {
      "constant": false,
      "inputs": [
        {
          "name": "newOwner",
          "type": "address"
        }
      ],
      "name": "transferOwnership",
      "outputs": [],
      "payable": false,
      "stateMutability": "nonpayable",
      "type": "function"
    },
    {
      "anonymous": false,
      "inputs": [
        {
          "indexed": false,
          "name": "scheduledJob",
          "type": "uint256"
        },
        {
          "indexed": false,
          "name": "time",
          "type": "uint256"
        },
        {
          "indexed": false,
          "name": "value",
          "type": "uint256"
        }
      ],
      "name": "Scheduled",
      "type": "event"
    },
    {
      "anonymous": false,
      "inputs": [
        {
          "indexed": false,
          "name": "scheduledJob",
          "type": "uint256"
        },
        {
          "indexed": false,
          "name": "newDelay",
          "type": "uint256"
        }
      ],
      "name": "Rescheduled",
      "type": "event"
    },
    {
      "constant": false,
      "inputs": [
        {
          "name": "_value",
          "type": "uint256"
        },
        {
          "name": "_delay",
          "type": "uint256"
        }
      ],
      "name": "scheduleSetNonZeroValue",
      "outputs": [],
      "payable": false,
      "stateMutability": "nonpayable",
      "type": "function"
    },
    {
      "constant": false,
      "inputs": [
        {
          "name": "_value",
          "type": "uint256"
        }
      ],
      "name": "setNonZeroValue",
      "outputs": [],
      "payable": false,
      "stateMutability": "nonpayable",
      "type": "function"
    },
    {
      "constant": false,
      "inputs": [
        {
          "name": "_delay",
          "type": "uint256"
        }
      ],
      "name": "setZeroValueOrRechedule",
      "outputs": [],
      "payable": false,
      "stateMutability": "nonpayable",
      "type": "function"
    }
  ],
  "bytecode": "0x6080604052336000806101000a81548173ffffffffffffffffffffffffffffffffffffffff021916908373ffffffffffffffffffffffffffffffffffffffff160217905550611011806100536000396000f3fe608060405234801561001057600080fd5b50600436106100935760003560e01c80639e50f4fb116100665780639e50f4fb1461017c578063b49c5b421461019a578063c132da51146101c8578063ec556889146101f6578063f2fde38b1461024057610093565b80632f3efc28146100985780633fa4f245146100d05780638da5cb5b146100ee57806397107d6d14610138575b600080fd5b6100ce600480360360408110156100ae57600080fd5b810190808035906020019092919080359060200190929190505050610284565b005b6100d86106b5565b6040518082815260200191505060405180910390f35b6100f66106bb565b604051808273ffffffffffffffffffffffffffffffffffffffff1673ffffffffffffffffffffffffffffffffffffffff16815260200191505060405180910390f35b61017a6004803603602081101561014e57600080fd5b81019080803573ffffffffffffffffffffffffffffffffffffffff1690602001909291905050506106e0565b005b61018461077a565b6040518082815260200191505060405180910390f35b6101c6600480360360208110156101b057600080fd5b8101908080359060200190929190505050610780565b005b6101f4600480360360208110156101de57600080fd5b8101908080359060200190929190505050610b60565b005b6101fe610c20565b604051808273ffffffffffffffffffffffffffffffffffffffff1673ffffffffffffffffffffffffffffffffffffffff16815260200191505060405180910390f35b6102826004803603602081101561025657600080fd5b81019080803573ffffffffffffffffffffffffffffffffffffffff169060200190929190505050610c46565b005b6000809054906101000a900473ffffffffffffffffffffffffffffffffffffffff1673ffffffffffffffffffffffffffffffffffffffff163373ffffffffffffffffffffffffffffffffffffffff16146102da57fe5b60008211610350576040517f08c379a00000000000000000000000000000000000000000000000000000000081526004018080602001828103825260138152602001807f56616c75652073686f756c64206265203e20300000000000000000000000000081525060200191505060405180910390fd5b6000600160009054906101000a900473ffffffffffffffffffffffffffffffffffffffff1673ffffffffffffffffffffffffffffffffffffffff1663358177736040518060400160405280600781526020017f43726f6e4a6f62000000000000000000000000000000000000000000000000008152506040518263ffffffff1660e01b81526004018080602001828103825283818151815260200191508051906020019080838360005b838110156104155780820151818401526020810190506103fa565b50505050905090810190601f1680156104425780820380516001836020036101000a031916815260200191505b509250505060206040518083038186803b15801561045f57600080fd5b505afa158015610473573d6000803e3d6000fd5b505050506040513d602081101561048957600080fd5b810190808051906020019092919050505090508073ffffffffffffffffffffffffffffffffffffffff1663c193049683420185604051602401808281526020019150506040516020818303038152906040527fc132da51000000000000000000000000000000000000000000000000000000007bffffffffffffffffffffffffffffffffffffffffffffffffffffffff19166020820180517bffffffffffffffffffffffffffffffffffffffffffffffffffffffff83818316178352505050506040518363ffffffff1660e01b81526004018080602001848152602001806020018381038352600d8152602001807f43726f6e4a6f6254617267657400000000000000000000000000000000000000815250602001838103825284818151815260200191508051906020019080838360005b838110156105d65780820151818401526020810190506105bb565b50505050905090810190601f1680156106035780820380516001836020036101000a031916815260200191505b50945050505050602060405180830381600087803b15801561062457600080fd5b505af1158015610638573d6000803e3d6000fd5b505050506040513d602081101561064e57600080fd5b81019080805190602001909291905050506003819055507fbdb3fa1032c10362fcfd2e3a7214b0e681d1a19640cdc58a12397eb72eadf0e66003548342018560405180848152602001838152602001828152602001935050505060405180910390a1505050565b60025481565b6000809054906101000a900473ffffffffffffffffffffffffffffffffffffffff1681565b6000809054906101000a900473ffffffffffffffffffffffffffffffffffffffff1673ffffffffffffffffffffffffffffffffffffffff163373ffffffffffffffffffffffffffffffffffffffff161461073657fe5b80600160006101000a81548173ffffffffffffffffffffffffffffffffffffffff021916908373ffffffffffffffffffffffffffffffffffffffff16021790555050565b60035481565b6040518060400160405280600781526020017f43726f6e4a6f62000000000000000000000000000000000000000000000000008152506107bf81610d14565b60008214156107dd5760006002819055506000600381905550610b5c565b6000600160009054906101000a900473ffffffffffffffffffffffffffffffffffffffff1673ffffffffffffffffffffffffffffffffffffffff1663358177736040518060400160405280600781526020017f43726f6e4a6f62000000000000000000000000000000000000000000000000008152506040518263ffffffff1660e01b81526004018080602001828103825283818151815260200191508051906020019080838360005b838110156108a2578082015181840152602081019050610887565b50505050905090810190601f1680156108cf5780820380516001836020036101000a031916815260200191505b509250505060206040518083038186803b1580156108ec57600080fd5b505afa158015610900573d6000803e3d6000fd5b505050506040513d602081101561091657600080fd5b8101908080519060200190929190505050905060006002848161093557fe5b049050600581101561094657600090505b8173ffffffffffffffffffffffffffffffffffffffff1663f3ca9c5f85420183604051602401808281526020019150506040516020818303038152906040527fb49c5b42000000000000000000000000000000000000000000000000000000007bffffffffffffffffffffffffffffffffffffffffffffffffffffffff19166020820180517bffffffffffffffffffffffffffffffffffffffffffffffffffffffff838183161783525050505060006040518463ffffffff1660e01b81526004018080602001858152602001806020018481526020018381038352600d8152602001807f43726f6e4a6f6254617267657400000000000000000000000000000000000000815250602001838103825285818151815260200191508051906020019080838360005b83811015610a88578082015181840152602081019050610a6d565b50505050905090810190601f168015610ab55780820380516001836020036101000a031916815260200191505b5095505050505050602060405180830381600087803b158015610ad757600080fd5b505af1158015610aeb573d6000803e3d6000fd5b505050506040513d6020811015610b0157600080fd5b81019080805190602001909291905050506003819055507f792c28e246fb55711bd8131d3f6d0a1cc5c459ca56f85bbe9f12191d7efee7cf60035482604051808381526020018281526020019250505060405180910390a150505b5050565b6040518060400160405280600781526020017f43726f6e4a6f6200000000000000000000000000000000000000000000000000815250610b9f81610d14565b60008211610c15576040517f08c379a00000000000000000000000000000000000000000000000000000000081526004018080602001828103825260188152602001807f56616c75652073686f756c64206e6f74206265207a65726f000000000000000081525060200191505060405180910390fd5b816002819055505050565b600160009054906101000a900473ffffffffffffffffffffffffffffffffffffffff1681565b6000809054906101000a900473ffffffffffffffffffffffffffffffffffffffff1673ffffffffffffffffffffffffffffffffffffffff163373ffffffffffffffffffffffffffffffffffffffff1614610c9c57fe5b600073ffffffffffffffffffffffffffffffffffffffff168173ffffffffffffffffffffffffffffffffffffffff1614610d1157806000806101000a81548173ffffffffffffffffffffffffffffffffffffffff021916908373ffffffffffffffffffffffffffffffffffffffff1602179055505b50565b600073ffffffffffffffffffffffffffffffffffffffff16600160009054906101000a900473ffffffffffffffffffffffffffffffffffffffff1673ffffffffffffffffffffffffffffffffffffffff161415610dd9576040517f08c379a00000000000000000000000000000000000000000000000000000000081526004018080602001828103825260088152602001807f4e6f2050726f787900000000000000000000000000000000000000000000000081525060200191505060405180910390fd5b6000600160009054906101000a900473ffffffffffffffffffffffffffffffffffffffff1673ffffffffffffffffffffffffffffffffffffffff166335817773836040518263ffffffff1660e01b81526004018080602001828103825283818151815260200191508051906020019080838360005b83811015610e69578082015181840152602081019050610e4e565b50505050905090810190601f168015610e965780820380516001836020036101000a031916815260200191505b509250505060206040518083038186803b158015610eb357600080fd5b505afa158015610ec7573d6000803e3d6000fd5b505050506040513d6020811015610edd57600080fd5b81019080805190602001909291905050509050600073ffffffffffffffffffffffffffffffffffffffff168173ffffffffffffffffffffffffffffffffffffffff161415610f2757fe5b8073ffffffffffffffffffffffffffffffffffffffff163373ffffffffffffffffffffffffffffffffffffffff1614610fab576040517f08c379a000000000000000000000000000000000000000000000000000000000815260040180806020018281038252602d815260200180610fb0602d913960400191505060405180910390fd5b505056fe416363657373206973206f6e6c7920616c6c6f7765642066726f6d20737065636966696320636f6e7472616374a265627a7a72305820d28167d298f04b8d0065858fa227f24a735967b7d8f534fcfeb2c1adfff646a364736f6c634300050a0032",
  "source": "pragma solidity ^0.5.5;\n\nimport \"../modules/proxy/Proxied.sol\";\nimport \"../CronJob.sol\";\n\n/**\n * @title Contract for testing CronJob\n * @author pash7ka\n */\ncontract CronJobTarget is Proxied {\n\tuint256 public value;\n    uint256 public scheduledJob;\n    event Scheduled(uint256 scheduledJob, uint256 time, uint256 value);\n    event Rescheduled(uint256 scheduledJob, uint256 newDelay);\n\n    function scheduleSetNonZeroValue(uint256 _value, uint256 _delay) public onlyOwner() {\n        require(_value > 0, 'Value should be > 0');\n\n        CronJob cron = CronJob(proxy.getContract(CONTRACT_NAME_CRONJOB));\n        scheduledJob = cron.addCronJob(\"CronJobTarget\", now+_delay, abi.encodeWithSignature(\"setNonZeroValue(uint256)\", _value));\n        emit Scheduled(scheduledJob, now+_delay, _value);\n    }\n\n    function setNonZeroValue(uint256 _value) public onlyContract(CONTRACT_NAME_CRONJOB) {\n        require(_value > 0, \"Value should not be zero\");\n        value = _value;\n    }\n\n    function setZeroValueOrRechedule(uint256 _delay) public onlyContract(CONTRACT_NAME_CRONJOB) {\n        if(_delay == 0) {\n            value = 0;\n            scheduledJob = 0;\n            return;\n        }\n\n        CronJob cron = CronJob(proxy.getContract(CONTRACT_NAME_CRONJOB));\n        uint256 newDelay = _delay/2;\n        if(newDelay < 5) newDelay = 0;\n        scheduledJob = cron.addCronJob(\"CronJobTarget\", now+_delay, abi.encodeWithSignature(\"setZeroValueOrRechedule(uint256)\", newDelay), 0);\n        emit Rescheduled(scheduledJob, newDelay);\n    }\n\n\n}\n",
  "sourcePath": "/home/wafflemakr/Desktop/KittieFight/alpha/contracts/mocks/CronJobTarget.sol",
  "compiler": {
    "name": "solc",
    "version": "0.5.10+commit.5a6ea5b1.Emscripten.clang"
  },
  "schemaVersion": "3.0.11",
  "updatedAt": "2019-08-02T23:07:11.057Z",
  "devdoc": {
    "author": "pash7ka",
    "methods": {},
    "title": "Contract for testing CronJob"
  },
  "userdoc": {
    "methods": {
      "setProxy(address)": {
        "notice": "Set/update address of Proxy contract"
      }
    }
  }
}