{
  "contractName": "CronJobDB",
  "abi": [
    {
      "inputs": [
        {
          "internalType": "contract GenericDB",
          "name": "_genericDB",
          "type": "address"
        }
      ],
      "payable": false,
      "stateMutability": "nonpayable",
      "type": "constructor"
    },
    {
      "constant": true,
      "inputs": [],
      "name": "genericDB",
      "outputs": [
        {
          "internalType": "contract GenericDB",
          "name": "",
          "type": "address"
        }
      ],
      "payable": false,
      "stateMutability": "view",
      "type": "function"
    },
    {
      "constant": true,
      "inputs": [],
      "name": "owner",
      "outputs": [
        {
          "internalType": "address payable",
          "name": "",
          "type": "address"
        }
      ],
      "payable": false,
      "stateMutability": "view",
      "type": "function"
    },
    {
      "constant": true,
      "inputs": [],
      "name": "proxy",
      "outputs": [
        {
          "internalType": "contract ProxyBase",
          "name": "",
          "type": "address"
        }
      ],
      "payable": false,
      "stateMutability": "view",
      "type": "function"
    },
    {
      "constant": false,
      "inputs": [
        {
          "internalType": "contract ProxyBase",
          "name": "_proxy",
          "type": "address"
        }
      ],
      "name": "setProxy",
      "outputs": [],
      "payable": false,
      "stateMutability": "nonpayable",
      "type": "function"
    },
    {
      "constant": false,
      "inputs": [
        {
          "internalType": "address payable",
          "name": "newOwner",
          "type": "address"
        }
      ],
      "name": "transferOwnership",
      "outputs": [],
      "payable": false,
      "stateMutability": "nonpayable",
      "type": "function"
    },
    {
      "constant": false,
      "inputs": [
        {
          "internalType": "contract GenericDB",
          "name": "_genericDB",
          "type": "address"
        }
      ],
      "name": "setGenericDB",
      "outputs": [],
      "payable": false,
      "stateMutability": "nonpayable",
      "type": "function"
    },
    {
      "constant": true,
      "inputs": [
        {
          "internalType": "uint256",
          "name": "time",
          "type": "uint256"
        },
        {
          "internalType": "uint16",
          "name": "nonce",
          "type": "uint16"
        }
      ],
      "name": "generateJobID",
      "outputs": [
        {
          "internalType": "uint256",
          "name": "",
          "type": "uint256"
        }
      ],
      "payable": false,
      "stateMutability": "pure",
      "type": "function"
    },
    {
      "constant": true,
      "inputs": [
        {
          "internalType": "uint256",
          "name": "jobId",
          "type": "uint256"
        }
      ],
      "name": "parseJobID",
      "outputs": [
        {
          "internalType": "uint256",
          "name": "",
          "type": "uint256"
        },
        {
          "internalType": "uint16",
          "name": "",
          "type": "uint16"
        }
      ],
      "payable": false,
      "stateMutability": "pure",
      "type": "function"
    },
    {
      "constant": true,
      "inputs": [
        {
          "internalType": "uint256",
          "name": "time",
          "type": "uint256"
        }
      ],
      "name": "getJobNonceForTimestamp",
      "outputs": [
        {
          "internalType": "uint16",
          "name": "",
          "type": "uint16"
        }
      ],
      "payable": false,
      "stateMutability": "view",
      "type": "function"
    },
    {
      "constant": true,
      "inputs": [
        {
          "internalType": "uint256",
          "name": "time",
          "type": "uint256"
        }
      ],
      "name": "findNextJob",
      "outputs": [
        {
          "internalType": "uint256",
          "name": "",
          "type": "uint256"
        }
      ],
      "payable": false,
      "stateMutability": "view",
      "type": "function"
    },
    {
      "constant": true,
      "inputs": [
        {
          "internalType": "uint256",
          "name": "jobId",
          "type": "uint256"
        }
      ],
      "name": "getJob",
      "outputs": [
        {
          "internalType": "uint256",
          "name": "",
          "type": "uint256"
        },
        {
          "internalType": "string",
          "name": "",
          "type": "string"
        },
        {
          "internalType": "bytes",
          "name": "",
          "type": "bytes"
        }
      ],
      "payable": false,
      "stateMutability": "view",
      "type": "function"
    },
    {
      "constant": true,
      "inputs": [],
      "name": "getFirstJobId",
      "outputs": [
        {
          "internalType": "uint256",
          "name": "",
          "type": "uint256"
        }
      ],
      "payable": false,
      "stateMutability": "view",
      "type": "function"
    },
    {
      "constant": true,
      "inputs": [],
      "name": "getLastJobId",
      "outputs": [
        {
          "internalType": "uint256",
          "name": "",
          "type": "uint256"
        }
      ],
      "payable": false,
      "stateMutability": "view",
      "type": "function"
    },
    {
      "constant": true,
      "inputs": [],
      "name": "getLastScheduledJobTime",
      "outputs": [
        {
          "internalType": "uint256",
          "name": "",
          "type": "uint256"
        }
      ],
      "payable": false,
      "stateMutability": "view",
      "type": "function"
    },
    {
      "constant": true,
      "inputs": [],
      "name": "getAllJobs",
      "outputs": [
        {
          "internalType": "uint256[]",
          "name": "allJobs",
          "type": "uint256[]"
        }
      ],
      "payable": false,
      "stateMutability": "view",
      "type": "function"
    }
  ],
  "bytecode": "0x608060405234801561001057600080fd5b50604051611a5c380380611a5c8339818101604052602081101561003357600080fd5b8101908080519060200190929190505050336000806101000a81548173ffffffffffffffffffffffffffffffffffffffff021916908373ffffffffffffffffffffffffffffffffffffffff1602179055506100938161009960201b60201c565b50610133565b6000809054906101000a900473ffffffffffffffffffffffffffffffffffffffff1673ffffffffffffffffffffffffffffffffffffffff163373ffffffffffffffffffffffffffffffffffffffff16146100ef57fe5b80600260006101000a81548173ffffffffffffffffffffffffffffffffffffffff021916908373ffffffffffffffffffffffffffffffffffffffff16021790555050565b61191a806101426000396000f3fe608060405234801561001057600080fd5b50600436106100f55760003560e01c80638da5cb5b11610097578063bf22c45711610066578063bf22c457146103ba578063ec556889146104d4578063f2fde38b1461051e578063f5afe84714610562576100f5565b80638da5cb5b14610283578063965a79fb146102cd57806397107d6d1461032c578063a98318d614610370576100f5565b80633411d94c116100d35780633411d94c146101545780633564e78c146101a45780633aaae560146101ee5780634afab8151461023f576100f5565b806306c30bbc146100fa5780631761de181461011857806323d75d8a14610136575b600080fd5b6101026105a4565b6040518082815260200191505060405180910390f35b610120610766565b6040518082815260200191505060405180910390f35b61013e610783565b6040518082815260200191505060405180910390f35b61018e6004803603604081101561016a57600080fd5b8101908080359060200190929190803561ffff169060200190929190505050610944565b6040518082815260200191505060405180910390f35b6101ac610959565b604051808273ffffffffffffffffffffffffffffffffffffffff1673ffffffffffffffffffffffffffffffffffffffff16815260200191505060405180910390f35b61021a6004803603602081101561020457600080fd5b810190808035906020019092919050505061097f565b604051808381526020018261ffff1661ffff1681526020019250505060405180910390f35b6102816004803603602081101561025557600080fd5b81019080803573ffffffffffffffffffffffffffffffffffffffff169060200190929190505050610995565b005b61028b610a2f565b604051808273ffffffffffffffffffffffffffffffffffffffff1673ffffffffffffffffffffffffffffffffffffffff16815260200191505060405180910390f35b6102d5610a54565b6040518080602001828103825283818151815260200191508051906020019060200280838360005b838110156103185780820151818401526020810190506102fd565b505050509050019250505060405180910390f35b61036e6004803603602081101561034257600080fd5b81019080803573ffffffffffffffffffffffffffffffffffffffff169060200190929190505050610c8b565b005b61039c6004803603602081101561038657600080fd5b8101908080359060200190929190505050610d25565b604051808261ffff1661ffff16815260200191505060405180910390f35b6103e6600480360360208110156103d057600080fd5b8101908080359060200190929190505050610ecc565b604051808481526020018060200180602001838103835285818151815260200191508051906020019080838360005b83811015610430578082015181840152602081019050610415565b50505050905090810190601f16801561045d5780820380516001836020036101000a031916815260200191505b50838103825284818151815260200191508051906020019080838360005b8381101561049657808201518184015260208101905061047b565b50505050905090810190601f1680156104c35780820380516001836020036101000a031916815260200191505b509550505050505060405180910390f35b6104dc611634565b604051808273ffffffffffffffffffffffffffffffffffffffff1673ffffffffffffffffffffffffffffffffffffffff16815260200191505060405180910390f35b6105606004803603602081101561053457600080fd5b81019080803573ffffffffffffffffffffffffffffffffffffffff16906020019092919050505061165a565b005b61058e6004803603602081101561057857600080fd5b8101908080359060200190929190505050611728565b6040518082815260200191505060405180910390f35b600080600260009054906101000a900473ffffffffffffffffffffffffffffffffffffffff1673ffffffffffffffffffffffffffffffffffffffff16639a481f4e6040518060400160405280600781526020017f43726f6e4a6f620000000000000000000000000000000000000000000000000081525060405160200180807f43726f6e4a6f624c697374000000000000000000000000000000000000000000815250600b01905060405160208183030381529060405280519060200120600060016040518563ffffffff1660e01b8152600401808060200185815260200184815260200183151515158152602001828103825286818151815260200191508051906020019080838360005b838110156106cb5780820151818401526020810190506106b0565b50505050905090810190601f1680156106f85780820380516001836020036101000a031916815260200191505b5095505050505050604080518083038186803b15801561071757600080fd5b505afa15801561072b573d6000803e3d6000fd5b505050506040513d604081101561074157600080fd5b8101908080519060200190929190805190602001909291905050509150508091505090565b600080610779610774610783565b61097f565b5090508091505090565b600080600260009054906101000a900473ffffffffffffffffffffffffffffffffffffffff1673ffffffffffffffffffffffffffffffffffffffff16639a481f4e6040518060400160405280600781526020017f43726f6e4a6f620000000000000000000000000000000000000000000000000081525060405160200180807f43726f6e4a6f624c697374000000000000000000000000000000000000000000815250600b019050604051602081830303815290604052805190602001206000806040518563ffffffff1660e01b8152600401808060200185815260200184815260200183151515158152602001828103825286818151815260200191508051906020019080838360005b838110156108a957808201518184015260208101905061088e565b50505050905090810190601f1680156108d65780820380516001836020036101000a031916815260200191505b5095505050505050604080518083038186803b1580156108f557600080fd5b505afa158015610909573d6000803e3d6000fd5b505050506040513d604081101561091f57600080fd5b8101908080519060200190929190805190602001909291905050509150508091505090565b60008161ffff16601084901b01905092915050565b600260009054906101000a900473ffffffffffffffffffffffffffffffffffffffff1681565b600080601083901c8361ffff1691509150915091565b6000809054906101000a900473ffffffffffffffffffffffffffffffffffffffff1673ffffffffffffffffffffffffffffffffffffffff163373ffffffffffffffffffffffffffffffffffffffff16146109eb57fe5b80600260006101000a81548173ffffffffffffffffffffffffffffffffffffffff021916908373ffffffffffffffffffffffffffffffffffffffff16021790555050565b6000809054906101000a900473ffffffffffffffffffffffffffffffffffffffff1681565b6060600260009054906101000a900473ffffffffffffffffffffffffffffffffffffffff1673ffffffffffffffffffffffffffffffffffffffff166368923e166040518060400160405280600781526020017f43726f6e4a6f620000000000000000000000000000000000000000000000000081525060405160200180807f43726f6e4a6f624c697374000000000000000000000000000000000000000000815250600b019050604051602081830303815290604052805190602001206040518363ffffffff1660e01b81526004018080602001838152602001828103825284818151815260200191508051906020019080838360005b83811015610b66578082015181840152602081019050610b4b565b50505050905090810190601f168015610b935780820380516001836020036101000a031916815260200191505b50935050505060006040518083038186803b158015610bb157600080fd5b505afa158015610bc5573d6000803e3d6000fd5b505050506040513d6000823e3d601f19601f820116820180604052506020811015610bef57600080fd5b8101908080516040519392919084640100000000821115610c0f57600080fd5b83820191506020820185811115610c2557600080fd5b8251866020820283011164010000000082111715610c4257600080fd5b8083526020830192505050908051906020019060200280838360005b83811015610c79578082015181840152602081019050610c5e565b50505050905001604052505050905090565b6000809054906101000a900473ffffffffffffffffffffffffffffffffffffffff1673ffffffffffffffffffffffffffffffffffffffff163373ffffffffffffffffffffffffffffffffffffffff1614610ce157fe5b80600160006101000a81548173ffffffffffffffffffffffffffffffffffffffff021916908373ffffffffffffffffffffffffffffffffffffffff16021790555050565b6000600260009054906101000a900473ffffffffffffffffffffffffffffffffffffffff1673ffffffffffffffffffffffffffffffffffffffff166308acb5566040518060400160405280600781526020017f43726f6e4a6f62000000000000000000000000000000000000000000000000008152508460405160200180828152602001807f6a6f624e6f6e6365000000000000000000000000000000000000000000000000815250600801915050604051602081830303815290604052805190602001206040518363ffffffff1660e01b81526004018080602001838152602001828103825284818151815260200191508051906020019080838360005b83811015610e3f578082015181840152602081019050610e24565b50505050905090810190601f168015610e6c5780820380516001836020036101000a031916815260200191505b50935050505060206040518083038186803b158015610e8a57600080fd5b505afa158015610e9e573d6000803e3d6000fd5b505050506040513d6020811015610eb457600080fd5b81019080805190602001909291905050509050919050565b6000606080600260009054906101000a900473ffffffffffffffffffffffffffffffffffffffff1673ffffffffffffffffffffffffffffffffffffffff166396edc0096040518060400160405280600781526020017f43726f6e4a6f620000000000000000000000000000000000000000000000000081525060405160200180807f43726f6e4a6f624c697374000000000000000000000000000000000000000000815250600b01905060405160208183030381529060405280519060200120876040518463ffffffff1660e01b81526004018080602001848152602001838152602001828103825285818151815260200191508051906020019080838360005b83811015610fe8578082015181840152602081019050610fcd565b50505050905090810190601f1680156110155780820380516001836020036101000a031916815260200191505b5094505050505060206040518083038186803b15801561103457600080fd5b505afa158015611048573d6000803e3d6000fd5b505050506040513d602081101561105e57600080fd5b81019080805190602001909291905050506040518060400160405280600e81526020017f4a6f62206e6f74206578697374730000000000000000000000000000000000008152509061114b576040517f08c379a00000000000000000000000000000000000000000000000000000000081526004018080602001828103825283818151815260200191508051906020019080838360005b838110156111105780820151818401526020810190506110f5565b50505050905090810190601f16801561113d5780820380516001836020036101000a031916815260200191505b509250505060405180910390fd5b506000806111588661097f565b80925081935050506060600260009054906101000a900473ffffffffffffffffffffffffffffffffffffffff1673ffffffffffffffffffffffffffffffffffffffff16631a84fbb86040518060400160405280600781526020017f43726f6e4a6f62000000000000000000000000000000000000000000000000008152508960405160200180828152602001807f63616c6c65650000000000000000000000000000000000000000000000000000815250600601915050604051602081830303815290604052805190602001206040518363ffffffff1660e01b81526004018080602001838152602001828103825284818151815260200191508051906020019080838360005b8381101561127a57808201518184015260208101905061125f565b50505050905090810190601f1680156112a75780820380516001836020036101000a031916815260200191505b50935050505060006040518083038186803b1580156112c557600080fd5b505afa1580156112d9573d6000803e3d6000fd5b505050506040513d6000823e3d601f19601f82011682018060405250602081101561130357600080fd5b810190808051604051939291908464010000000082111561132357600080fd5b8382019150602082018581111561133957600080fd5b825186600182028301116401000000008211171561135657600080fd5b8083526020830192505050908051906020019080838360005b8381101561138a57808201518184015260208101905061136f565b50505050905090810190601f1680156113b75780820380516001836020036101000a031916815260200191505b5060405250505090506060600260009054906101000a900473ffffffffffffffffffffffffffffffffffffffff1673ffffffffffffffffffffffffffffffffffffffff1663773cdbd76040518060400160405280600781526020017f43726f6e4a6f62000000000000000000000000000000000000000000000000008152508a60405160200180828152602001807f6461746100000000000000000000000000000000000000000000000000000000815250600401915050604051602081830303815290604052805190602001206040518363ffffffff1660e01b81526004018080602001838152602001828103825284818151815260200191508051906020019080838360005b838110156114da5780820151818401526020810190506114bf565b50505050905090810190601f1680156115075780820380516001836020036101000a031916815260200191505b50935050505060006040518083038186803b15801561152557600080fd5b505afa158015611539573d6000803e3d6000fd5b505050506040513d6000823e3d601f19601f82011682018060405250602081101561156357600080fd5b810190808051604051939291908464010000000082111561158357600080fd5b8382019150602082018581111561159957600080fd5b82518660018202830111640100000000821117156115b657600080fd5b8083526020830192505050908051906020019080838360005b838110156115ea5780820151818401526020810190506115cf565b50505050905090810190601f1680156116175780820380516001836020036101000a031916815260200191505b506040525050509050838282965096509650505050509193909250565b600160009054906101000a900473ffffffffffffffffffffffffffffffffffffffff1681565b6000809054906101000a900473ffffffffffffffffffffffffffffffffffffffff1673ffffffffffffffffffffffffffffffffffffffff163373ffffffffffffffffffffffffffffffffffffffff16146116b057fe5b600073ffffffffffffffffffffffffffffffffffffffff168173ffffffffffffffffffffffffffffffffffffffff161461172557806000806101000a81548173ffffffffffffffffffffffffffffffffffffffff021916908373ffffffffffffffffffffffffffffffffffffffff1602179055505b50565b60008061173d8361173885610d25565b610944565b9050600260009054906101000a900473ffffffffffffffffffffffffffffffffffffffff1673ffffffffffffffffffffffffffffffffffffffff1663757ba9a26040518060400160405280600781526020017f43726f6e4a6f620000000000000000000000000000000000000000000000000081525060405160200180807f43726f6e4a6f624c697374000000000000000000000000000000000000000000815250600b01905060405160208183030381529060405280519060200120846040518463ffffffff1660e01b81526004018080602001848152602001838152602001828103825285818151815260200191508051906020019080838360005b8381101561185657808201518184015260208101905061183b565b50505050905090810190601f1680156118835780820380516001836020036101000a031916815260200191505b5094505050505060206040518083038186803b1580156118a257600080fd5b505afa1580156118b6573d6000803e3d6000fd5b505050506040513d60208110156118cc57600080fd5b810190808051906020019092919050505091505091905056fea265627a7a723158208857631c3e5e8bfb65d2685dc9c42f0f1a73b0a82d61849be71a2d8b635c9de264736f6c63430005110032",
  "source": "// This program is free software: you can redistribute it and/or modify\n// it under the terms of the GNU General Public License as published by\n// the Free Software Foundation, either version 3 of the License, or\n// (at your option) any later version.\n\n// This program is distributed in the hope that it will be useful,\n// but WITHOUT ANY WARRANTY; without even the implied warranty of\n// MERCHANTABILITY or FITNESS FOR A PARTICULAR PURPOSE.  See the\n// GNU General Public License for more details.\n\n// You should have received a copy of the GNU General Public License\n// along with this program.  If not, see <http://www.gnu.org/licenses/>.\npragma solidity ^0.5.5;\n\nimport \"../proxy/Proxied.sol\";\nimport \"./GenericDB.sol\";\nimport \"../../libs/SafeMath.sol\";\n\n\n/**\n * @title CronJobDB\n * @author @psychoplasma @pash7ka\n *\n * Storage consists of a linked list of ids and data, stored in maps, wehre key is a job id.\n * Job id is created from timestamp and a nonce, which is current count of jobs for specific timestamp.\n * After adding a job, nonce for it's timestamp is incremented. When canceling a job, nonce is NOT decremented.\n *\n * This contract should not be used standalone, it is designed as a part of CronJob\n *\n * CronJobDB uses a sorted linked list of job ids (tied to the time of execution), \n * so that nearest jobs are on the head, while latest jobs are on the tail of the list.\n */\ncontract CronJobDB is Proxied {\n    using SafeMath for uint256;\n\n    GenericDB public genericDB;\n\n    bytes32 internal constant TABLE_KEY = keccak256(abi.encodePacked(\"CronJobList\"));\n    string internal constant ERROR_ALREADY_EXIST = \"Job already exists\";\n    string internal constant ERROR_DOES_NOT_EXIST = \"Job not exists\";\n    string internal constant ERROR_NOT_LAST = \"Job can not be added, because there is other jobs after it. Use nextJob parameter.\";\n    string internal constant ERROR_NOT_BEFORE = \"Job can not be added because it should be after specified job.\";\n    string internal constant ERROR_NOT_FIRST_BEFORE = \"Job can not be added because it is not directly before specified job.\";\n\n    constructor(GenericDB _genericDB) public {\n        setGenericDB(_genericDB);\n    }\n\n    function setGenericDB(GenericDB _genericDB) public onlyOwner {\n        genericDB = _genericDB;\n    }\n\n    /**\n     * @notice Generates id of the Job\n     * @param time When job has to be executed\n     * @param nonce Index of job scheduled to specified timestamp\n     */\n    function generateJobID(uint256 time, uint16 nonce) pure public returns(uint256) {\n        return (time << 16) + nonce;\n    }\n    function parseJobID(uint256 jobId) pure public returns(uint256, uint16) {\n        return (jobId >> 16, uint16(0xFFFF & jobId));\n    }\n\n    function getJobNonceForTimestamp(uint256 time) view public returns(uint16) {\n        return uint16(genericDB.getUintStorage(CONTRACT_NAME_CRONJOB, keccak256(abi.encodePacked(time, \"jobNonce\"))));        \n    }\n    function incrementJobNonceForTimestamp(uint256 time) internal {\n        uint16 nonce = getJobNonceForTimestamp(time);\n        genericDB.setUintStorage(CONTRACT_NAME_CRONJOB, keccak256(abi.encodePacked(time, \"jobNonce\")), uint256(nonce+1));        \n    }\n\n    /**\n     * @notice Use this to find job next to specific time\n     * Should be used before calling addJob() if inserting job in the middle of the queue\n     */\n    function findNextJob(uint256 time) view public returns(uint256){\n        uint256 jobId = generateJobID(time, getJobNonceForTimestamp(time));\n        return genericDB.findNextNodeInSortedLinkedList(CONTRACT_NAME_CRONJOB, TABLE_KEY, jobId);\n    }\n\n    /**\n     * @notice Returns a job, with specified id\n     * @param jobId Job to view\n     * @return (time, callee, data) Time of the job, target contract, message to the contract\n     */\n    function getJob(uint256 jobId) view public returns(uint256, string memory, bytes memory) {\n        require(genericDB.doesNodeExist(CONTRACT_NAME_CRONJOB, TABLE_KEY, jobId), ERROR_DOES_NOT_EXIST);\n        uint256 time; uint16 nonce;\n        (time,nonce) = parseJobID(jobId);\n        string memory callee = genericDB.getStringStorage(CONTRACT_NAME_CRONJOB, keccak256(abi.encodePacked(jobId, \"callee\")));\n        bytes memory data = genericDB.getBytesStorage(CONTRACT_NAME_CRONJOB, keccak256(abi.encodePacked(jobId, \"data\")));\n        return (time, callee, data);\n    }\n\n    /**\n     * @notice Adds Job to the list\n     * @param time Job should be executed at first oportunity after this time\n     * @param callee Name of a contract to call\n     * @param data Message to send to this contract. Use abi.encodeWithSignature() to create it\n     * @param nextJob If this job should be scheduled before some other Job, it has to be specified with this parameter, otherwise it should be 0\n     */\n    function addJob(\n        uint256 time,\n        string memory callee,\n        bytes memory data,\n        uint256 nextJob\n    ) \n        internal //external onlyContract(CONTRACT_NAME_CRONJOB)\n        returns(uint256)\n    {\n        uint256 jobId = generateJobID(time, getJobNonceForTimestamp(time));\n\n        validateNewJobPosition(jobId, nextJob);\n\n        require(genericDB.insertNodeToLinkedList(CONTRACT_NAME_CRONJOB, TABLE_KEY, jobId, nextJob, false), ERROR_ALREADY_EXIST); //false means \"prev\" direction - insert before nextJob\n        incrementJobNonceForTimestamp(time);\n\n        genericDB.setStringStorage(CONTRACT_NAME_CRONJOB, keccak256(abi.encodePacked(jobId, \"callee\")), callee);\n        genericDB.setBytesStorage(CONTRACT_NAME_CRONJOB, keccak256(abi.encodePacked(jobId, \"data\")), data);\n\n        return jobId;\n    }\n\n\n    /**\n     * @notice Remove Job\n     * @param jobId Job to remove\n     */\n    function removeJob(uint256 jobId) \n        internal //external onlyContract(CONTRACT_NAME_CRONJOB) \n    {\n        //require(genericDB.removeNodeFromLinkedList(CONTRACT_NAME_CRONJOB, TABLE_KEY, jobId), ERROR_DOES_NOT_EXIST);\n        //Removed requirement for the job to exist, because job can delete itself while being executed.\n        //TODO: Maybe this should be prevented in some other way\n        // require(genericDB.removeNodeFromLinkedList(CONTRACT_NAME_CRONJOB, TABLE_KEY, jobId), ERROR_DOES_NOT_EXIST);\n        genericDB.removeNodeFromLinkedList(CONTRACT_NAME_CRONJOB, TABLE_KEY, jobId);\n        //TODO: Find out if we need to actually delete the job data from mappings. Test gas price for this.\n    }\n\n\n    function getFirstJobId() view public returns(uint256){\n        (/*bool found*/, uint256 id) = genericDB.getAdjacent(CONTRACT_NAME_CRONJOB, TABLE_KEY, 0, true);    // 0 means HEAD, false means tail of the list (because GenericDB.pushNodeToLinkedList() uses true as direction)\n        return id;\n    }\n    function getLastJobId() view public returns(uint256){\n        (/*bool found*/, uint256 id) = genericDB.getAdjacent(CONTRACT_NAME_CRONJOB, TABLE_KEY, 0, false);    // 0 means HEAD, true means head of the list (because GenericDB.pushNodeToLinkedList() uses true as direction)\n        return id;\n    }\n    function getLastScheduledJobTime() view public returns(uint256) {\n        (uint256 time, /*uint16 nonce*/) = parseJobID(getLastJobId());   //If no jobs, result will be 0, which is fine.\n        return time;\n    }\n\n    function validateNewJobPosition(uint256 newJobId, uint256 nextJobId) view internal {\n        if(nextJobId == 0) {\n            //Check that new Job is really last\n            uint256 lastJobId = getLastJobId();\n            require(newJobId > lastJobId, ERROR_NOT_LAST);\n        } else {\n            //Check that we can insert new job bebore nextJob\n            require(newJobId < nextJobId, ERROR_NOT_BEFORE);\n            (bool found, uint256 prevId) = genericDB.getAdjacent(CONTRACT_NAME_CRONJOB, TABLE_KEY, nextJobId, false);   // false means \"before\" (PREV)\n            require(!found || newJobId > prevId, ERROR_NOT_FIRST_BEFORE);\n        }\n    }\n\n    function getAllJobs() public view returns(uint[] memory allJobs){\n        allJobs = genericDB.getAll(CONTRACT_NAME_CRONJOB, TABLE_KEY);\n    }\n\n}\n",
  "sourcePath": "/Users/ziweizhang/Desktop/kittieFight-uniswap/contracts/contracts/modules/databases/CronJobDB.sol",
  "compiler": {
    "name": "solc",
    "version": "0.5.17+commit.d19bba13.Emscripten.clang"
  },
  "schemaVersion": "3.0.23",
  "updatedAt": "2020-06-11T16:09:06.749Z",
  "devdoc": {
    "author": "@psychoplasma @pash7ka * Storage consists of a linked list of ids and data, stored in maps, wehre key is a job id. Job id is created from timestamp and a nonce, which is current count of jobs for specific timestamp. After adding a job, nonce for it's timestamp is incremented. When canceling a job, nonce is NOT decremented. * This contract should not be used standalone, it is designed as a part of CronJob * CronJobDB uses a sorted linked list of job ids (tied to the time of execution),  so that nearest jobs are on the head, while latest jobs are on the tail of the list.",
    "methods": {
      "generateJobID(uint256,uint16)": {
        "params": {
          "nonce": "Index of job scheduled to specified timestamp",
          "time": "When job has to be executed"
        }
      },
      "getJob(uint256)": {
        "params": {
          "jobId": "Job to view"
        },
        "return": "(time, callee, data) Time of the job, target contract, message to the contract"
      }
    },
    "title": "CronJobDB"
  },
  "userdoc": {
    "methods": {
      "findNextJob(uint256)": {
        "notice": "Use this to find job next to specific time Should be used before calling addJob() if inserting job in the middle of the queue"
      },
      "generateJobID(uint256,uint16)": {
        "notice": "Generates id of the Job"
      },
      "getJob(uint256)": {
        "notice": "Returns a job, with specified id"
      },
      "setProxy(address)": {
        "notice": "Set/update address of Proxy contract"
      }
    }
  }
}