{
  "contractName": "CronJobProxy",
  "abi": [
    {
      "anonymous": false,
      "inputs": [],
      "name": "CronJobExecutionFailed",
      "type": "event"
    },
    {
      "constant": false,
      "inputs": [
        {
          "internalType": "string",
          "name": "name",
          "type": "string"
        },
        {
          "internalType": "address",
          "name": "contractAddress",
          "type": "address"
        }
      ],
      "name": "addContract",
      "outputs": [],
      "payable": false,
      "stateMutability": "nonpayable",
      "type": "function"
    },
    {
      "constant": true,
      "inputs": [],
      "name": "addressOfBetting",
      "outputs": [
        {
          "internalType": "address",
          "name": "",
          "type": "address"
        }
      ],
      "payable": false,
      "stateMutability": "view",
      "type": "function"
    },
    {
      "constant": true,
      "inputs": [],
      "name": "addressOfCronJob",
      "outputs": [
        {
          "internalType": "address",
          "name": "",
          "type": "address"
        }
      ],
      "payable": false,
      "stateMutability": "view",
      "type": "function"
    },
    {
      "constant": true,
      "inputs": [],
      "name": "addressOfDistribution",
      "outputs": [
        {
          "internalType": "address",
          "name": "",
          "type": "address"
        }
      ],
      "payable": false,
      "stateMutability": "view",
      "type": "function"
    },
    {
      "constant": true,
      "inputs": [],
      "name": "addressOfEndowmentDB",
      "outputs": [
        {
          "internalType": "address",
          "name": "",
          "type": "address"
        }
      ],
      "payable": false,
      "stateMutability": "view",
      "type": "function"
    },
    {
      "constant": true,
      "inputs": [],
      "name": "addressOfEndowmentFund",
      "outputs": [
        {
          "internalType": "address",
          "name": "",
          "type": "address"
        }
      ],
      "payable": false,
      "stateMutability": "view",
      "type": "function"
    },
    {
      "constant": true,
      "inputs": [],
      "name": "addressOfForfeiter",
      "outputs": [
        {
          "internalType": "address",
          "name": "",
          "type": "address"
        }
      ],
      "payable": false,
      "stateMutability": "view",
      "type": "function"
    },
    {
      "constant": true,
      "inputs": [],
      "name": "addressOfGMGetterDB",
      "outputs": [
        {
          "internalType": "address",
          "name": "",
          "type": "address"
        }
      ],
      "payable": false,
      "stateMutability": "view",
      "type": "function"
    },
    {
      "constant": true,
      "inputs": [],
      "name": "addressOfGMSetterDB",
      "outputs": [
        {
          "internalType": "address",
          "name": "",
          "type": "address"
        }
      ],
      "payable": false,
      "stateMutability": "view",
      "type": "function"
    },
    {
      "constant": true,
      "inputs": [],
      "name": "addressOfGameManager",
      "outputs": [
        {
          "internalType": "address",
          "name": "",
          "type": "address"
        }
      ],
      "payable": false,
      "stateMutability": "view",
      "type": "function"
    },
    {
      "constant": true,
      "inputs": [],
      "name": "addressOfGameVarAndFee",
      "outputs": [
        {
          "internalType": "address",
          "name": "",
          "type": "address"
        }
      ],
      "payable": false,
      "stateMutability": "view",
      "type": "function"
    },
    {
      "constant": true,
      "inputs": [],
      "name": "addressOfHitsResolve",
      "outputs": [
        {
          "internalType": "address",
          "name": "",
          "type": "address"
        }
      ],
      "payable": false,
      "stateMutability": "view",
      "type": "function"
    },
    {
      "constant": true,
      "inputs": [],
      "name": "addressOfKittieHell",
      "outputs": [
        {
          "internalType": "address",
          "name": "",
          "type": "address"
        }
      ],
      "payable": false,
      "stateMutability": "view",
      "type": "function"
    },
    {
      "constant": true,
      "inputs": [],
      "name": "addressOfKittieHellDB",
      "outputs": [
        {
          "internalType": "address",
          "name": "",
          "type": "address"
        }
      ],
      "payable": false,
      "stateMutability": "view",
      "type": "function"
    },
    {
      "constant": true,
      "inputs": [],
      "name": "addressOfProfileDB",
      "outputs": [
        {
          "internalType": "address",
          "name": "",
          "type": "address"
        }
      ],
      "payable": false,
      "stateMutability": "view",
      "type": "function"
    },
    {
      "constant": true,
      "inputs": [],
      "name": "addressOfRarityCalculator",
      "outputs": [
        {
          "internalType": "address",
          "name": "",
          "type": "address"
        }
      ],
      "payable": false,
      "stateMutability": "view",
      "type": "function"
    },
    {
      "constant": true,
      "inputs": [],
      "name": "addressOfRegister",
      "outputs": [
        {
          "internalType": "address",
          "name": "",
          "type": "address"
        }
      ],
      "payable": false,
      "stateMutability": "view",
      "type": "function"
    },
    {
      "constant": true,
      "inputs": [],
      "name": "addressOfRoleDB",
      "outputs": [
        {
          "internalType": "address",
          "name": "",
          "type": "address"
        }
      ],
      "payable": false,
      "stateMutability": "view",
      "type": "function"
    },
    {
      "constant": true,
      "inputs": [],
      "name": "addressOfScheduler",
      "outputs": [
        {
          "internalType": "address",
          "name": "",
          "type": "address"
        }
      ],
      "payable": false,
      "stateMutability": "view",
      "type": "function"
    },
    {
      "constant": true,
      "inputs": [],
      "name": "addressOfTimeContract",
      "outputs": [
        {
          "internalType": "address",
          "name": "",
          "type": "address"
        }
      ],
      "payable": false,
      "stateMutability": "view",
      "type": "function"
    },
    {
      "constant": true,
      "inputs": [
        {
          "internalType": "string",
          "name": "name",
          "type": "string"
        }
      ],
      "name": "getContract",
      "outputs": [
        {
          "internalType": "address",
          "name": "",
          "type": "address"
        }
      ],
      "payable": false,
      "stateMutability": "view",
      "type": "function"
    },
    {
      "constant": true,
      "inputs": [],
      "name": "maxJobsForOneRun",
      "outputs": [
        {
          "internalType": "uint256",
          "name": "",
          "type": "uint256"
        }
      ],
      "payable": false,
      "stateMutability": "view",
      "type": "function"
    },
    {
      "constant": true,
      "inputs": [],
      "name": "owner",
      "outputs": [
        {
          "internalType": "address payable",
          "name": "",
          "type": "address"
        }
      ],
      "payable": false,
      "stateMutability": "view",
      "type": "function"
    },
    {
      "constant": false,
      "inputs": [
        {
          "internalType": "string",
          "name": "name",
          "type": "string"
        }
      ],
      "name": "removeContract",
      "outputs": [],
      "payable": false,
      "stateMutability": "nonpayable",
      "type": "function"
    },
    {
      "constant": false,
      "inputs": [
        {
          "internalType": "address payable",
          "name": "newOwner",
          "type": "address"
        }
      ],
      "name": "transferOwnership",
      "outputs": [],
      "payable": false,
      "stateMutability": "nonpayable",
      "type": "function"
    },
    {
      "constant": false,
      "inputs": [
        {
          "internalType": "string",
          "name": "name",
          "type": "string"
        },
        {
          "internalType": "address",
          "name": "contractAddress",
          "type": "address"
        }
      ],
      "name": "updateContract",
      "outputs": [],
      "payable": false,
      "stateMutability": "nonpayable",
      "type": "function"
    },
    {
      "constant": false,
      "inputs": [
        {
          "internalType": "uint256",
          "name": "_maxJobsForOneRun",
          "type": "uint256"
        }
      ],
      "name": "setMaxJobsForOneRun",
      "outputs": [],
      "payable": false,
      "stateMutability": "nonpayable",
      "type": "function"
    },
    {
      "constant": false,
      "inputs": [],
      "name": "executeScheduledJobs",
      "outputs": [],
      "payable": false,
      "stateMutability": "nonpayable",
      "type": "function"
    },
    {
      "constant": false,
      "inputs": [
        {
          "internalType": "uint256",
          "name": "jobId",
          "type": "uint256"
        }
      ],
      "name": "executeJob",
      "outputs": [
        {
          "internalType": "bytes",
          "name": "",
          "type": "bytes"
        }
      ],
      "payable": false,
      "stateMutability": "nonpayable",
      "type": "function"
    }
  ],
  "bytecode": "0x608060405260028055336000806101000a81548173ffffffffffffffffffffffffffffffffffffffff021916908373ffffffffffffffffffffffffffffffffffffffff160217905550612748806100576000396000f3fe608060405234801561001057600080fd5b50600436106101cf5760003560e01c80638ec82c8a11610104578063bf5b6016116100a2578063eed9c25b11610071578063eed9c25b14610b27578063f2fde38b14610b71578063f6df25d514610bb5578063fcc47c4f14610bff576101cf565b8063bf5b60161461096e578063c5ed75bb14610a49578063d3b12c1514610a93578063ee71227f14610add576101cf565b806397623b58116100de57806397623b58146107d55780639a087b9714610890578063a0d1170b146108da578063beb9eb0b14610924576101cf565b80638ec82c8a1461071357806393812d201461075d578063968f1412146107a7576101cf565b806358838def11610171578063697a60b31161014b578063697a60b31461055a57806384d67617146106355780638da5cb5b1461067f5780638e771e79146106c9576101cf565b806358838def1461044b5780635c757125146104f2578063658d74761461053c576101cf565b806342febb69116101ad57806342febb6914610323578063462d46f61461036d578063492e4692146103b75780634e7f067b14610401576101cf565b806320ba5910146101d4578063318504821461021e5780633581777314610228575b600080fd5b6101dc610c49565b604051808273ffffffffffffffffffffffffffffffffffffffff1673ffffffffffffffffffffffffffffffffffffffff16815260200191505060405180910390f35b610226610c8e565b005b6102e16004803603602081101561023e57600080fd5b810190808035906020019064010000000081111561025b57600080fd5b82018360208201111561026d57600080fd5b8035906020019184600183028401116401000000008311171561028f57600080fd5b91908080601f016020809104026020016040519081016040528093929190818152602001838380828437600081840152601f19601f820116905080830192505050505050509192919290505050611053565b604051808273ffffffffffffffffffffffffffffffffffffffff1673ffffffffffffffffffffffffffffffffffffffff16815260200191505060405180910390f35b61032b611333565b604051808273ffffffffffffffffffffffffffffffffffffffff1673ffffffffffffffffffffffffffffffffffffffff16815260200191505060405180910390f35b610375611378565b604051808273ffffffffffffffffffffffffffffffffffffffff1673ffffffffffffffffffffffffffffffffffffffff16815260200191505060405180910390f35b6103bf6113bd565b604051808273ffffffffffffffffffffffffffffffffffffffff1673ffffffffffffffffffffffffffffffffffffffff16815260200191505060405180910390f35b610409611402565b604051808273ffffffffffffffffffffffffffffffffffffffff1673ffffffffffffffffffffffffffffffffffffffff16815260200191505060405180910390f35b6104776004803603602081101561046157600080fd5b8101908080359060200190929190505050611447565b6040518080602001828103825283818151815260200191508051906020019080838360005b838110156104b757808201518184015260208101905061049c565b50505050905090810190601f1680156104e45780820380516001836020036101000a031916815260200191505b509250505060405180910390f35b6104fa611a0a565b604051808273ffffffffffffffffffffffffffffffffffffffff1673ffffffffffffffffffffffffffffffffffffffff16815260200191505060405180910390f35b610544611a4f565b6040518082815260200191505060405180910390f35b6106336004803603604081101561057057600080fd5b810190808035906020019064010000000081111561058d57600080fd5b82018360208201111561059f57600080fd5b803590602001918460018302840111640100000000831117156105c157600080fd5b91908080601f016020809104026020016040519081016040528093929190818152602001838380828437600081840152601f19601f820116905080830192505050505050509192919290803573ffffffffffffffffffffffffffffffffffffffff169060200190929190505050611a55565b005b61063d611c1a565b604051808273ffffffffffffffffffffffffffffffffffffffff1673ffffffffffffffffffffffffffffffffffffffff16815260200191505060405180910390f35b610687611c5f565b604051808273ffffffffffffffffffffffffffffffffffffffff1673ffffffffffffffffffffffffffffffffffffffff16815260200191505060405180910390f35b6106d1611c84565b604051808273ffffffffffffffffffffffffffffffffffffffff1673ffffffffffffffffffffffffffffffffffffffff16815260200191505060405180910390f35b61071b611cc9565b604051808273ffffffffffffffffffffffffffffffffffffffff1673ffffffffffffffffffffffffffffffffffffffff16815260200191505060405180910390f35b610765611d0e565b604051808273ffffffffffffffffffffffffffffffffffffffff1673ffffffffffffffffffffffffffffffffffffffff16815260200191505060405180910390f35b6107d3600480360360208110156107bd57600080fd5b8101908080359060200190929190505050611d53565b005b61088e600480360360208110156107eb57600080fd5b810190808035906020019064010000000081111561080857600080fd5b82018360208201111561081a57600080fd5b8035906020019184600183028401116401000000008311171561083c57600080fd5b91908080601f016020809104026020016040519081016040528093929190818152602001838380828437600081840152601f19601f820116905080830192505050505050509192919290505050611dc0565b005b610898611f85565b604051808273ffffffffffffffffffffffffffffffffffffffff1673ffffffffffffffffffffffffffffffffffffffff16815260200191505060405180910390f35b6108e2611fca565b604051808273ffffffffffffffffffffffffffffffffffffffff1673ffffffffffffffffffffffffffffffffffffffff16815260200191505060405180910390f35b61092c61200f565b604051808273ffffffffffffffffffffffffffffffffffffffff1673ffffffffffffffffffffffffffffffffffffffff16815260200191505060405180910390f35b610a476004803603604081101561098457600080fd5b81019080803590602001906401000000008111156109a157600080fd5b8201836020820111156109b357600080fd5b803590602001918460018302840111640100000000831117156109d557600080fd5b91908080601f016020809104026020016040519081016040528093929190818152602001838380828437600081840152601f19601f820116905080830192505050505050509192919290803573ffffffffffffffffffffffffffffffffffffffff169060200190929190505050612054565b005b610a51612264565b604051808273ffffffffffffffffffffffffffffffffffffffff1673ffffffffffffffffffffffffffffffffffffffff16815260200191505060405180910390f35b610a9b6122a9565b604051808273ffffffffffffffffffffffffffffffffffffffff1673ffffffffffffffffffffffffffffffffffffffff16815260200191505060405180910390f35b610ae56122ee565b604051808273ffffffffffffffffffffffffffffffffffffffff1673ffffffffffffffffffffffffffffffffffffffff16815260200191505060405180910390f35b610b2f612333565b604051808273ffffffffffffffffffffffffffffffffffffffff1673ffffffffffffffffffffffffffffffffffffffff16815260200191505060405180910390f35b610bb360048036036020811015610b8757600080fd5b81019080803573ffffffffffffffffffffffffffffffffffffffff169060200190929190505050612378565b005b610bbd612446565b604051808273ffffffffffffffffffffffffffffffffffffffff1673ffffffffffffffffffffffffffffffffffffffff16815260200191505060405180910390f35b610c0761248b565b604051808273ffffffffffffffffffffffffffffffffffffffff1673ffffffffffffffffffffffffffffffffffffffff16815260200191505060405180910390f35b6000610c896040518060400160405280600781526020017f42657474696e6700000000000000000000000000000000000000000000000000815250611053565b905090565b6000610cce6040518060400160405280600981526020017f47656e6572696344420000000000000000000000000000000000000000000000815250611053565b9050600060608273ffffffffffffffffffffffffffffffffffffffff166040518060400160405280600681526020017f526f6c65444200000000000000000000000000000000000000000000000000008152503360405160200180807f61646d696e0000000000000000000000000000000000000000000000000000008152506005018273ffffffffffffffffffffffffffffffffffffffff1673ffffffffffffffffffffffffffffffffffffffff1660601b8152601401915050604051602081830303815290604052805190602001206040516024018080602001838152602001828103825284818151815260200191508051906020019080838360005b83811015610de8578082015181840152602081019050610dcd565b50505050905090810190601f168015610e155780820380516001836020036101000a031916815260200191505b5093505050506040516020818303038152906040527f1c58c8bb000000000000000000000000000000000000000000000000000000007bffffffffffffffffffffffffffffffffffffffffffffffffffffffff19166020820180517bffffffffffffffffffffffffffffffffffffffffffffffffffffffff83818316178352505050506040518082805190602001908083835b60208310610ecb5780518252602082019150602081019050602083039250610ea8565b6001836020036101000a038019825116818451168082178552505050505050905001915050600060405180830381855afa9150503d8060008114610f2b576040519150601f19603f3d011682016040523d82523d6000602084013e610f30565b606091505b509150915081610fa8576040517f08c379a00000000000000000000000000000000000000000000000000000000081526004018080602001828103825260138152602001807f4661696c656420746f206c6f616420726f6c650000000000000000000000000081525060200191505060405180910390fd5b6000818060200190516020811015610fbf57600080fd5b8101908080519060200190929190505050905080611045576040517f08c379a00000000000000000000000000000000000000000000000000000000081526004018080602001828103825260198152602001807f53656e6465722068617320746f20626520616e2061646d696e0000000000000081525060200191505060405180910390fd5b61104d6124d0565b50505050565b60008073ffffffffffffffffffffffffffffffffffffffff166001836040518082805190602001908083835b602083106110a2578051825260208201915060208101905060208303925061107f565b6001836020036101000a038019825116818451168082178552505050505050905001915050908152602001604051809103902060009054906101000a900473ffffffffffffffffffffffffffffffffffffffff1673ffffffffffffffffffffffffffffffffffffffff1614156112a25760608260405160200180807f436f6e7472616374206e6f7420726567697374657265643a200000000000000081525060190182805190602001908083835b602083106111735780518252602082019150602081019050602083039250611150565b6001836020036101000a0380198251168184511680821785525050505050509050019150506040516020818303038152906040526040516024018080602001828103825283818151815260200191508051906020019080838360005b838110156111ea5780820151818401526020810190506111cf565b50505050905090810190601f1680156112175780820380516001836020036101000a031916815260200191505b50925050506040516020818303038152906040527f08c379a0000000000000000000000000000000000000000000000000000000007bffffffffffffffffffffffffffffffffffffffffffffffffffffffff19166020820180517bffffffffffffffffffffffffffffffffffffffffffffffffffffffff838183161783525050505090508060208201fd5b6001826040518082805190602001908083835b602083106112d857805182526020820191506020810190506020830392506112b5565b6001836020036101000a038019825116818451168082178552505050505050905001915050908152602001604051809103902060009054906101000a900473ffffffffffffffffffffffffffffffffffffffff169050919050565b60006113736040518060400160405280600a81526020017f4b697474696548656c6c00000000000000000000000000000000000000000000815250611053565b905090565b60006113b86040518060400160405280600d81526020017f47616d65566172416e6446656500000000000000000000000000000000000000815250611053565b905090565b60006113fd6040518060400160405280601081526020017f52617269747943616c63756c61746f7200000000000000000000000000000000815250611053565b905090565b60006114426040518060400160405280600c81526020017f54696d65436f6e74726163740000000000000000000000000000000000000000815250611053565b905090565b606060006114896040518060400160405280600981526020017f47656e6572696344420000000000000000000000000000000000000000000000815250611053565b9050600060608273ffffffffffffffffffffffffffffffffffffffff166040518060400160405280600681526020017f526f6c65444200000000000000000000000000000000000000000000000000008152503360405160200180807f61646d696e0000000000000000000000000000000000000000000000000000008152506005018273ffffffffffffffffffffffffffffffffffffffff1673ffffffffffffffffffffffffffffffffffffffff1660601b8152601401915050604051602081830303815290604052805190602001206040516024018080602001838152602001828103825284818151815260200191508051906020019080838360005b838110156115a3578082015181840152602081019050611588565b50505050905090810190601f1680156115d05780820380516001836020036101000a031916815260200191505b5093505050506040516020818303038152906040527f1c58c8bb000000000000000000000000000000000000000000000000000000007bffffffffffffffffffffffffffffffffffffffffffffffffffffffff19166020820180517bffffffffffffffffffffffffffffffffffffffffffffffffffffffff83818316178352505050506040518082805190602001908083835b602083106116865780518252602082019150602081019050602083039250611663565b6001836020036101000a038019825116818451168082178552505050505050905001915050600060405180830381855afa9150503d80600081146116e6576040519150601f19603f3d011682016040523d82523d6000602084013e6116eb565b606091505b509150915081611763576040517f08c379a00000000000000000000000000000000000000000000000000000000081526004018080602001828103825260138152602001807f4661696c656420746f206c6f616420726f6c650000000000000000000000000081525060200191505060405180910390fd5b600081806020019051602081101561177a57600080fd5b8101908080519060200190929190505050905080611800576040517f08c379a00000000000000000000000000000000000000000000000000000000081526004018080602001828103825260198152602001807f53656e6465722068617320746f20626520616e2061646d696e0000000000000081525060200191505060405180910390fd5b60006118406040518060400160405280600781526020017f43726f6e4a6f6200000000000000000000000000000000000000000000000000815250611053565b90508073ffffffffffffffffffffffffffffffffffffffff1687604051602401808281526020019150506040516020818303038152906040527f58838def000000000000000000000000000000000000000000000000000000007bffffffffffffffffffffffffffffffffffffffffffffffffffffffff19166020820180517bffffffffffffffffffffffffffffffffffffffffffffffffffffffff83818316178352505050506040518082805190602001908083835b6020831061191a57805182526020820191506020810190506020830392506118f7565b6001836020036101000a0380198251168184511680821785525050505050509050019150506000604051808303816000865af19150503d806000811461197c576040519150601f19603f3d011682016040523d82523d6000602084013e611981565b606091505b508094508195505050836119fd576040517f08c379a00000000000000000000000000000000000000000000000000000000081526004018080602001828103825260138152602001807f457865637574652063616c6c206661696c65640000000000000000000000000081525060200191505060405180910390fd5b8295505050505050919050565b6000611a4a6040518060400160405280600981526020017f50726f66696c6544420000000000000000000000000000000000000000000000815250611053565b905090565b60025481565b6000809054906101000a900473ffffffffffffffffffffffffffffffffffffffff1673ffffffffffffffffffffffffffffffffffffffff163373ffffffffffffffffffffffffffffffffffffffff1614611aab57fe5b600073ffffffffffffffffffffffffffffffffffffffff166001836040518082805190602001908083835b60208310611af95780518252602082019150602081019050602083039250611ad6565b6001836020036101000a038019825116818451168082178552505050505050905001915050908152602001604051809103902060009054906101000a900473ffffffffffffffffffffffffffffffffffffffff1673ffffffffffffffffffffffffffffffffffffffff161415611b6e57600080fd5b806001836040518082805190602001908083835b60208310611ba55780518252602082019150602081019050602083039250611b82565b6001836020036101000a038019825116818451168082178552505050505050905001915050908152602001604051809103902060006101000a81548173ffffffffffffffffffffffffffffffffffffffff021916908373ffffffffffffffffffffffffffffffffffffffff1602179055505050565b6000611c5a6040518060400160405280600c81526020017f4b697474696548656c6c44420000000000000000000000000000000000000000815250611053565b905090565b6000809054906101000a900473ffffffffffffffffffffffffffffffffffffffff1681565b6000611cc46040518060400160405280600681526020017f526f6c6544420000000000000000000000000000000000000000000000000000815250611053565b905090565b6000611d096040518060400160405280600b81526020017f486974735265736f6c7665000000000000000000000000000000000000000000815250611053565b905090565b6000611d4e6040518060400160405280600981526020017f5363686564756c65720000000000000000000000000000000000000000000000815250611053565b905090565b6000809054906101000a900473ffffffffffffffffffffffffffffffffffffffff1673ffffffffffffffffffffffffffffffffffffffff163373ffffffffffffffffffffffffffffffffffffffff1614611da957fe5b60008111611db657600080fd5b8060028190555050565b6000809054906101000a900473ffffffffffffffffffffffffffffffffffffffff1673ffffffffffffffffffffffffffffffffffffffff163373ffffffffffffffffffffffffffffffffffffffff1614611e1657fe5b600073ffffffffffffffffffffffffffffffffffffffff166001826040518082805190602001908083835b60208310611e645780518252602082019150602081019050602083039250611e41565b6001836020036101000a038019825116818451168082178552505050505050905001915050908152602001604051809103902060009054906101000a900473ffffffffffffffffffffffffffffffffffffffff1673ffffffffffffffffffffffffffffffffffffffff161415611ed957600080fd5b60006001826040518082805190602001908083835b60208310611f115780518252602082019150602081019050602083039250611eee565b6001836020036101000a038019825116818451168082178552505050505050905001915050908152602001604051809103902060006101000a81548173ffffffffffffffffffffffffffffffffffffffff021916908373ffffffffffffffffffffffffffffffffffffffff16021790555050565b6000611fc56040518060400160405280600981526020017f466f726665697465720000000000000000000000000000000000000000000000815250611053565b905090565b600061200a6040518060400160405280600c81526020017f446973747269627574696f6e0000000000000000000000000000000000000000815250611053565b905090565b600061204f6040518060400160405280600a81526020017f474d536574746572444200000000000000000000000000000000000000000000815250611053565b905090565b6000809054906101000a900473ffffffffffffffffffffffffffffffffffffffff1673ffffffffffffffffffffffffffffffffffffffff163373ffffffffffffffffffffffffffffffffffffffff16146120aa57fe5b600073ffffffffffffffffffffffffffffffffffffffff166001836040518082805190602001908083835b602083106120f857805182526020820191506020810190506020830392506120d5565b6001836020036101000a038019825116818451168082178552505050505050905001915050908152602001604051809103902060009054906101000a900473ffffffffffffffffffffffffffffffffffffffff1673ffffffffffffffffffffffffffffffffffffffff16146121b8576040517f08c379a00000000000000000000000000000000000000000000000000000000081526004018080602001828103825260268152602001806126ee6026913960400191505060405180910390fd5b806001836040518082805190602001908083835b602083106121ef57805182526020820191506020810190506020830392506121cc565b6001836020036101000a038019825116818451168082178552505050505050905001915050908152602001604051809103902060006101000a81548173ffffffffffffffffffffffffffffffffffffffff021916908373ffffffffffffffffffffffffffffffffffffffff1602179055505050565b60006122a46040518060400160405280600781526020017f43726f6e4a6f6200000000000000000000000000000000000000000000000000815250611053565b905090565b60006122e96040518060400160405280600a81526020017f474d476574746572444200000000000000000000000000000000000000000000815250611053565b905090565b600061232e6040518060400160405280600b81526020017f47616d654d616e61676572000000000000000000000000000000000000000000815250611053565b905090565b60006123736040518060400160405280600881526020017f5265676973746572000000000000000000000000000000000000000000000000815250611053565b905090565b6000809054906101000a900473ffffffffffffffffffffffffffffffffffffffff1673ffffffffffffffffffffffffffffffffffffffff163373ffffffffffffffffffffffffffffffffffffffff16146123ce57fe5b600073ffffffffffffffffffffffffffffffffffffffff168173ffffffffffffffffffffffffffffffffffffffff161461244357806000806101000a81548173ffffffffffffffffffffffffffffffffffffffff021916908373ffffffffffffffffffffffffffffffffffffffff1602179055505b50565b60006124866040518060400160405280600b81526020017f456e646f776d656e744442000000000000000000000000000000000000000000815250611053565b905090565b60006124cb6040518060400160405280600d81526020017f456e646f776d656e7446756e6400000000000000000000000000000000000000815250611053565b905090565b60006125106040518060400160405280600781526020017f43726f6e4a6f6200000000000000000000000000000000000000000000000000815250611053565b905060008090505b6002548110156126e957600060608373ffffffffffffffffffffffffffffffffffffffff166040516024016040516020818303038152906040527f05044bac000000000000000000000000000000000000000000000000000000007bffffffffffffffffffffffffffffffffffffffffffffffffffffffff19166020820180517bffffffffffffffffffffffffffffffffffffffffffffffffffffffff83818316178352505050506040518082805190602001908083835b602083106125f357805182526020820191506020810190506020830392506125d0565b6001836020036101000a0380198251168184511680821785525050505050509050019150506000604051808303816000865af19150503d8060008114612655576040519150601f19603f3d011682016040523d82523d6000602084013e61265a565b606091505b509150915081156126ad57600081806020019051604081101561267c57600080fd5b810190808051906020019092919080519060200190929190505050509050806126a7575050506126e9565b506126da565b7fd0c39055083f1cd7e99672a54796862cd3b34c3db7964de3d92cfc9a9d47362060405160405180910390a15b50508080600101915050612518565b505056fe43616e206e6f742061646420636f6e74726163742077697468207a65726f2061646472657373a265627a7a72315820f919d54fec8fad67e8a73d365593b0ae7844ea9d3f6c18311e1efc4f221db53364736f6c634300050f0032",
  "source": "/**\r\n * @title CronJob\r\n *\r\n * @author @kittieFIGHT @ola @pash7ka\r\n *\r\n */\r\n\r\n// This program is free software: you can redistribute it and/or modify\r\n// it under the terms of the GNU General Public License as published by\r\n// the Free Software Foundation, either version 3 of the License, or\r\n// (at your option) any later version.\r\n\r\n// This program is distributed in the hope that it will be useful,\r\n// but WITHOUT ANY WARRANTY; without even the implied warranty of\r\n// MERCHANTABILITY or FITNESS FOR A PARTICULAR PURPOSE.  See the\r\n// GNU General Public License for more details.\r\n\r\n// You should have received a copy of the GNU General Public License\r\n// along with this program.  If not, see <http://www.gnu.org/licenses/>.\r\npragma solidity ^0.5.5;\r\n\r\nimport \"../../authority/Owned.sol\";\r\nimport \"../../CronJob.sol\";\r\nimport \"./ProxyBase.sol\";\r\n\r\ncontract CronJobProxy is ProxyBase {\r\n    event CronJobExecutionFailed(); //This is used to signal about something really unexpected happened\r\n\r\n    uint256 public maxJobsForOneRun = 2;\r\n\r\n    function setMaxJobsForOneRun(uint256 _maxJobsForOneRun) onlyOwner public {\r\n        require(_maxJobsForOneRun > 0);\r\n        maxJobsForOneRun = _maxJobsForOneRun;\r\n    }\r\n\r\n    /**\r\n     * @notice Executes up to maxJobsForOneRun scheduled jobs, if available\r\n     * @dev This can be executed by admins, but since KFProxy can not use Guard, we need to do check manually\r\n     */\r\n    function executeScheduledJobs() external {\r\n        address genericDB = getContract(CONTRACT_NAME_GENERIC_DB);\r\n        (bool success, bytes memory result) = genericDB.staticcall(abi.encodeWithSignature(\r\n            \"getBoolStorage(string,bytes32)\",\r\n            CONTRACT_NAME_ROLE_DB,\r\n            keccak256(abi.encodePacked(\"admin\", msg.sender))\r\n        ));\r\n        require(success, 'Failed to load role');\r\n        bool hasRole = abi.decode(result, (bool));\r\n        require(hasRole, 'Sender has to be an admin');\r\n\r\n        _executeScheduledJobs();\r\n    }\r\n    function executeJob(uint256 jobId) external returns(bytes memory) {\r\n        address genericDB = getContract(CONTRACT_NAME_GENERIC_DB);\r\n        (bool success, bytes memory result) = genericDB.staticcall(abi.encodeWithSignature(\r\n            \"getBoolStorage(string,bytes32)\",\r\n            CONTRACT_NAME_ROLE_DB,\r\n            keccak256(abi.encodePacked(\"admin\", msg.sender))\r\n        ));\r\n        require(success, 'Failed to load role');\r\n        bool hasRole = abi.decode(result, (bool));\r\n        require(hasRole, 'Sender has to be an admin');\r\n\r\n        address cronJob = getContract(CONTRACT_NAME_CRONJOB);\r\n        (success, result) = cronJob.call(abi.encodeWithSignature('executeJob(uint256)', jobId));\r\n        require(success, 'Execute call failed');\r\n        return result;\r\n    }\r\n\r\n\r\n    /**\r\n     * @notice Executes up to maxJobsForOneRun scheduled jobs, if available\r\n     */\r\n    function _executeScheduledJobs() internal {\r\n        address cronJob = getContract(CONTRACT_NAME_CRONJOB);\r\n        //if(cronJob == address(0)) return; //this can not happen because of check in ContractManager\r\n        for(uint256 i=0; i < maxJobsForOneRun; i++){\r\n            //Use address.call() because we need to handle failures here\r\n            (bool success, bytes memory result) = cronJob.call(abi.encodeWithSignature('executeNextJobIfAvailable()'));\r\n            if(success){\r\n                (bool jobWasExecuted, /*uint256 jobId*/) = abi.decode(result, (bool, uint256));\r\n                if(!jobWasExecuted) break;  //There is no more jobs scheduled for now\r\n            }else{\r\n                emit CronJobExecutionFailed();\r\n            }\r\n        }\r\n    }\r\n\r\n\r\n}\r\n",
  "sourcePath": "C:\\Users\\Alex\\Desktop\\MyProjects\\alpha\\contracts\\modules\\proxy\\CronJobProxy.sol",
  "compiler": {
    "name": "solc",
    "version": "0.5.15+commit.6a57276f.Emscripten.clang"
  },
  "schemaVersion": "3.0.11",
  "updatedAt": "2019-12-31T11:42:28.473Z",
  "devdoc": {
    "methods": {
      "executeScheduledJobs()": {
        "details": "This can be executed by admins, but since KFProxy can not use Guard, we need to do check manually"
      }
    }
  },
  "userdoc": {
    "methods": {
      "addressOfRegister()": {
        "notice": "Getters for KittyFight system contracts"
      },
      "executeScheduledJobs()": {
        "notice": "Executes up to maxJobsForOneRun scheduled jobs, if available"
      }
    }
  }
}