{
  "contractName": "CronJobProxy",
  "abi": [
    {
      "anonymous": false,
      "inputs": [],
      "name": "CronJobExecutionFailed",
      "type": "event"
    },
    {
      "constant": false,
      "inputs": [
        {
          "internalType": "string",
          "name": "name",
          "type": "string"
        },
        {
          "internalType": "address",
          "name": "contractAddress",
          "type": "address"
        }
      ],
      "name": "addContract",
      "outputs": [],
      "payable": false,
      "stateMutability": "nonpayable",
      "type": "function"
    },
    {
      "constant": true,
      "inputs": [],
      "name": "addressOfBetting",
      "outputs": [
        {
          "internalType": "address",
          "name": "",
          "type": "address"
        }
      ],
      "payable": false,
      "stateMutability": "view",
      "type": "function"
    },
    {
      "constant": true,
      "inputs": [],
      "name": "addressOfCronJob",
      "outputs": [
        {
          "internalType": "address",
          "name": "",
          "type": "address"
        }
      ],
      "payable": false,
      "stateMutability": "view",
      "type": "function"
    },
    {
      "constant": true,
      "inputs": [],
      "name": "addressOfDistribution",
      "outputs": [
        {
          "internalType": "address",
          "name": "",
          "type": "address"
        }
      ],
      "payable": false,
      "stateMutability": "view",
      "type": "function"
    },
    {
      "constant": true,
      "inputs": [],
      "name": "addressOfEarningsTracker",
      "outputs": [
        {
          "internalType": "address",
          "name": "",
          "type": "address"
        }
      ],
      "payable": false,
      "stateMutability": "view",
      "type": "function"
    },
    {
      "constant": true,
      "inputs": [],
      "name": "addressOfEndowmentDB",
      "outputs": [
        {
          "internalType": "address",
          "name": "",
          "type": "address"
        }
      ],
      "payable": false,
      "stateMutability": "view",
      "type": "function"
    },
    {
      "constant": true,
      "inputs": [],
      "name": "addressOfEndowmentFund",
      "outputs": [
        {
          "internalType": "address",
          "name": "",
          "type": "address"
        }
      ],
      "payable": false,
      "stateMutability": "view",
      "type": "function"
    },
    {
      "constant": true,
      "inputs": [],
      "name": "addressOfForfeiter",
      "outputs": [
        {
          "internalType": "address",
          "name": "",
          "type": "address"
        }
      ],
      "payable": false,
      "stateMutability": "view",
      "type": "function"
    },
    {
      "constant": true,
      "inputs": [],
      "name": "addressOfGMGetterDB",
      "outputs": [
        {
          "internalType": "address",
          "name": "",
          "type": "address"
        }
      ],
      "payable": false,
      "stateMutability": "view",
      "type": "function"
    },
    {
      "constant": true,
      "inputs": [],
      "name": "addressOfGMSetterDB",
      "outputs": [
        {
          "internalType": "address",
          "name": "",
          "type": "address"
        }
      ],
      "payable": false,
      "stateMutability": "view",
      "type": "function"
    },
    {
      "constant": true,
      "inputs": [],
      "name": "addressOfGameManager",
      "outputs": [
        {
          "internalType": "address",
          "name": "",
          "type": "address"
        }
      ],
      "payable": false,
      "stateMutability": "view",
      "type": "function"
    },
    {
      "constant": true,
      "inputs": [],
      "name": "addressOfGameVarAndFee",
      "outputs": [
        {
          "internalType": "address",
          "name": "",
          "type": "address"
        }
      ],
      "payable": false,
      "stateMutability": "view",
      "type": "function"
    },
    {
      "constant": true,
      "inputs": [],
      "name": "addressOfHitsResolve",
      "outputs": [
        {
          "internalType": "address",
          "name": "",
          "type": "address"
        }
      ],
      "payable": false,
      "stateMutability": "view",
      "type": "function"
    },
    {
      "constant": true,
      "inputs": [],
      "name": "addressOfHoneypotAllocationAlgo",
      "outputs": [
        {
          "internalType": "address",
          "name": "",
          "type": "address"
        }
      ],
      "payable": false,
      "stateMutability": "view",
      "type": "function"
    },
    {
      "constant": true,
      "inputs": [],
      "name": "addressOfKittieHell",
      "outputs": [
        {
          "internalType": "address",
          "name": "",
          "type": "address"
        }
      ],
      "payable": false,
      "stateMutability": "view",
      "type": "function"
    },
    {
      "constant": true,
      "inputs": [],
      "name": "addressOfKittieHellDB",
      "outputs": [
        {
          "internalType": "address",
          "name": "",
          "type": "address"
        }
      ],
      "payable": false,
      "stateMutability": "view",
      "type": "function"
    },
    {
      "constant": true,
      "inputs": [],
      "name": "addressOfProfileDB",
      "outputs": [
        {
          "internalType": "address",
          "name": "",
          "type": "address"
        }
      ],
      "payable": false,
      "stateMutability": "view",
      "type": "function"
    },
    {
      "constant": true,
      "inputs": [],
      "name": "addressOfRarityCalculator",
      "outputs": [
        {
          "internalType": "address",
          "name": "",
          "type": "address"
        }
      ],
      "payable": false,
      "stateMutability": "view",
      "type": "function"
    },
    {
      "constant": true,
      "inputs": [],
      "name": "addressOfRegister",
      "outputs": [
        {
          "internalType": "address",
          "name": "",
          "type": "address"
        }
      ],
      "payable": false,
      "stateMutability": "view",
      "type": "function"
    },
    {
      "constant": true,
      "inputs": [],
      "name": "addressOfRoleDB",
      "outputs": [
        {
          "internalType": "address",
          "name": "",
          "type": "address"
        }
      ],
      "payable": false,
      "stateMutability": "view",
      "type": "function"
    },
    {
      "constant": true,
      "inputs": [],
      "name": "addressOfScheduler",
      "outputs": [
        {
          "internalType": "address",
          "name": "",
          "type": "address"
        }
      ],
      "payable": false,
      "stateMutability": "view",
      "type": "function"
    },
    {
      "constant": true,
      "inputs": [],
      "name": "addressOfTimeContract",
      "outputs": [
        {
          "internalType": "address",
          "name": "",
          "type": "address"
        }
      ],
      "payable": false,
      "stateMutability": "view",
      "type": "function"
    },
    {
      "constant": true,
      "inputs": [],
      "name": "addressOfTimeFrame",
      "outputs": [
        {
          "internalType": "address",
          "name": "",
          "type": "address"
        }
      ],
      "payable": false,
      "stateMutability": "view",
      "type": "function"
    },
    {
      "constant": true,
      "inputs": [],
      "name": "addressOfWithdrawPool",
      "outputs": [
        {
          "internalType": "address",
          "name": "",
          "type": "address"
        }
      ],
      "payable": false,
      "stateMutability": "view",
      "type": "function"
    },
    {
      "constant": true,
      "inputs": [
        {
          "internalType": "string",
          "name": "name",
          "type": "string"
        }
      ],
      "name": "getContract",
      "outputs": [
        {
          "internalType": "address",
          "name": "",
          "type": "address"
        }
      ],
      "payable": false,
      "stateMutability": "view",
      "type": "function"
    },
    {
      "constant": true,
      "inputs": [
        {
          "internalType": "bytes32[]",
          "name": "nameHashes",
          "type": "bytes32[]"
        }
      ],
      "name": "getContracts",
      "outputs": [
        {
          "internalType": "address[]",
          "name": "",
          "type": "address[]"
        }
      ],
      "payable": false,
      "stateMutability": "view",
      "type": "function"
    },
    {
      "constant": true,
      "inputs": [],
      "name": "maxJobsForOneRun",
      "outputs": [
        {
          "internalType": "uint256",
          "name": "",
          "type": "uint256"
        }
      ],
      "payable": false,
      "stateMutability": "view",
      "type": "function"
    },
    {
      "constant": true,
      "inputs": [],
      "name": "owner",
      "outputs": [
        {
          "internalType": "address payable",
          "name": "",
          "type": "address"
        }
      ],
      "payable": false,
      "stateMutability": "view",
      "type": "function"
    },
    {
      "constant": false,
      "inputs": [
        {
          "internalType": "string",
          "name": "name",
          "type": "string"
        }
      ],
      "name": "removeContract",
      "outputs": [],
      "payable": false,
      "stateMutability": "nonpayable",
      "type": "function"
    },
    {
      "constant": false,
      "inputs": [
        {
          "internalType": "address payable",
          "name": "newOwner",
          "type": "address"
        }
      ],
      "name": "transferOwnership",
      "outputs": [],
      "payable": false,
      "stateMutability": "nonpayable",
      "type": "function"
    },
    {
      "constant": false,
      "inputs": [
        {
          "internalType": "string",
          "name": "name",
          "type": "string"
        },
        {
          "internalType": "address",
          "name": "contractAddress",
          "type": "address"
        }
      ],
      "name": "updateContract",
      "outputs": [],
      "payable": false,
      "stateMutability": "nonpayable",
      "type": "function"
    },
    {
      "constant": false,
      "inputs": [
        {
          "internalType": "uint256",
          "name": "_maxJobsForOneRun",
          "type": "uint256"
        }
      ],
      "name": "setMaxJobsForOneRun",
      "outputs": [],
      "payable": false,
      "stateMutability": "nonpayable",
      "type": "function"
    },
    {
      "constant": false,
      "inputs": [],
      "name": "executeScheduledJobs",
      "outputs": [],
      "payable": false,
      "stateMutability": "nonpayable",
      "type": "function"
    },
    {
      "constant": false,
      "inputs": [
        {
          "internalType": "uint256",
          "name": "jobId",
          "type": "uint256"
        }
      ],
      "name": "executeJob",
      "outputs": [
        {
          "internalType": "bytes",
          "name": "",
          "type": "bytes"
        }
      ],
      "payable": false,
      "stateMutability": "nonpayable",
      "type": "function"
    }
  ],
  "bytecode": "0x608060405260028055600080546001600160a01b03191633179055611857806100296000396000f3fe608060405234801561001057600080fd5b50600436106102065760003560e01c80638e771e791161011a578063bf5b6016116100ad578063ee71227f1161007c578063ee71227f146106fe578063eed9c25b14610706578063f2fde38b1461070e578063f6df25d514610734578063fcc47c4f1461073c57610206565b8063bf5b601614610637578063c5ed75bb146106e6578063d3b12c15146106ee578063d83be917146106f657610206565b806397623b58116100e957806397623b581461057b5780639a087b971461061f578063a0d1170b14610627578063beb9eb0b1461062f57610206565b80638e771e79146105465780638ec82c8a1461054e57806393812d2014610556578063968f14121461055e57610206565b80634880df0e1161019d5780635c7571251161016c5780635c75712514610465578063658d74761461046d578063697a60b31461048757806384d67617146105365780638da5cb5b1461053e57610206565b80634880df0e14610305578063492e4692146103c35780634e7f067b146103cb57806358838def146103d357610206565b806335817773116101d957806335817773146102495780633bdc5a5d146102ed57806342febb69146102f5578063462d46f6146102fd57610206565b806320331d0f1461020b57806320ba59101461022f5780633185048214610237578063348c601914610241575b600080fd5b610213610744565b604080516001600160a01b039092168252519081900360200190f35b610213610775565b61023f61079f565b005b610213610a22565b6102136004803603602081101561025f57600080fd5b810190602081018135600160201b81111561027957600080fd5b82018360208201111561028b57600080fd5b803590602001918460018302840111600160201b831117156102ac57600080fd5b91908080601f016020809104026020016040519081016040528093929190818152602001838380828437600092019190915250929550610a57945050505050565b610213610bc7565b610213610bf9565b610213610c26565b6103736004803603602081101561031b57600080fd5b810190602081018135600160201b81111561033557600080fd5b82018360208201111561034757600080fd5b803590602001918460208302840111600160201b8311171561036857600080fd5b509092509050610c56565b60408051602080825283518183015283519192839290830191858101910280838360005b838110156103af578181015183820152602001610397565b505050509050019250505060405180910390f35b610213610d01565b610213610d34565b6103f0600480360360208110156103e957600080fd5b5035610d63565b6040805160208082528351818301528351919283929083019185019080838360005b8381101561042a578181015183820152602001610412565b50505050905090810190601f1680156104575780820380516001836020036101000a031916815260200191505b509250505060405180910390f35b610213611137565b610475611163565b60408051918252519081900360200190f35b61023f6004803603604081101561049d57600080fd5b810190602081018135600160201b8111156104b757600080fd5b8201836020820111156104c957600080fd5b803590602001918460018302840111600160201b831117156104ea57600080fd5b91908080601f016020809104026020016040519081016040528093929190818152602001838380828437600092019190915250929550505090356001600160a01b031691506111699050565b610213611221565b610213611250565b61021361125f565b610213611288565b6102136112b6565b61023f6004803603602081101561057457600080fd5b50356112e2565b61023f6004803603602081101561059157600080fd5b810190602081018135600160201b8111156105ab57600080fd5b8201836020820111156105bd57600080fd5b803590602001918460018302840111600160201b831117156105de57600080fd5b91908080601f016020809104026020016040519081016040528093929190818152602001838380828437600092019190915250929550611308945050505050565b6102136113b0565b6102136113dc565b61021361140b565b61023f6004803603604081101561064d57600080fd5b810190602081018135600160201b81111561066757600080fd5b82018360208201111561067957600080fd5b803590602001918460018302840111600160201b8311171561069a57600080fd5b91908080601f016020809104026020016040519081016040528093929190818152602001838380828437600092019190915250929550505090356001600160a01b031691506114389050565b610213611507565b610213611531565b61021361155e565b61021361158d565b6102136115bb565b61023f6004803603602081101561072457600080fd5b50356001600160a01b03166115e6565b610213611628565b610213611656565b60006107706040518060400160405280600981526020016854696d654672616d6560b81b815250610a57565b905090565b60006107706040518060400160405280600781526020016642657474696e6760c81b815250610a57565b60006107cb6040518060400160405280600981526020016823b2b732b934b1a22160b91b815250610a57565b60408051808201825260068152652937b632a22160d11b602080830191825283516430b236b4b760d91b8183015233606090811b6025830152855160198184030181526039830187528051930192909220607d8201819052605d82019586528451609d830152845196975060009692956001600160a01b038916959491939092839260bd909101918083838c5b83811015610870578181015183820152602001610858565b50505050905090810190601f16801561089d5780820380516001836020036101000a031916815260200191505b5060408051601f198184030181529181526020820180516001600160e01b0316631c58c8bb60e01b17815290518251929650945084935091508083835b602083106108f95780518252601f1990920191602091820191016108da565b6001836020036101000a038019825116818451168082178552505050505050905001915050600060405180830381855afa9150503d8060008114610959576040519150601f19603f3d011682016040523d82523d6000602084013e61095e565b606091505b5091509150816109ab576040805162461bcd60e51b81526020600482015260136024820152724661696c656420746f206c6f616420726f6c6560681b604482015290519081900360640190fd5b60008180602001905160208110156109c257600080fd5b5051905080610a14576040805162461bcd60e51b815260206004820152601960248201527829b2b73232b9103430b9903a379031329030b71030b236b4b760391b604482015290519081900360640190fd5b610a1c611686565b50505050565b600061077060405180604001604052806016815260200175486f6e6579706f74416c6c6f636174696f6e416c676f60501b8152505b80516020808301919091206000818152600190925260408220546001600160a01b0316610ba95760608360405160200180807f436f6e7472616374206e6f7420726567697374657265643a200000000000000081525060190182805190602001908083835b60208310610adb5780518252601f199092019160209182019101610abc565b51815160209384036101000a60001901801990921691161790526040805192909401828103601f19018352938490526024840181815282516044860152825192965094508493606401925085019080838360005b83811015610b47578181015183820152602001610b2f565b50505050905090810190601f168015610b745780820380516001836020036101000a031916815260200191505b5060408051601f198184030181529190526020810180516001600160e01b031662461bcd60e51b178152909450849350915050fd5b6000908152600160205260409020546001600160a01b031692915050565b60006107706040518060400160405280600f81526020016e22b0b93734b733b9aa3930b1b5b2b960891b815250610a57565b60006107706040518060400160405280600a81526020016912da5d1d1a5952195b1b60b21b815250610a57565b60006107706040518060400160405280600d81526020016c47616d65566172416e6446656560981b815250610a57565b60608083839050604051908082528060200260200182016040528015610c86578160200160208202803883390190505b50905060005b83811015610cf95760016000868684818110610ca457fe5b90506020020135815260200190815260200160002060009054906101000a90046001600160a01b0316828281518110610cd957fe5b6001600160a01b0390921660209283029190910190910152600101610c8c565b509392505050565b60006107706040518060400160405280601081526020016f2930b934ba3ca1b0b631bab630ba37b960811b815250610a57565b60006107706040518060400160405280600c81526020016b151a5b5950dbdb9d1c9858dd60a21b815250610a57565b60606000610d916040518060400160405280600981526020016823b2b732b934b1a22160b91b815250610a57565b60408051808201825260068152652937b632a22160d11b602080830191825283516430b236b4b760d91b8183015233606090811b6025830152855160198184030181526039830187528051930192909220607d8201819052605d82019586528451609d830152845196975060009692956001600160a01b038916959491939092839260bd909101918083838c5b83811015610e36578181015183820152602001610e1e565b50505050905090810190601f168015610e635780820380516001836020036101000a031916815260200191505b5060408051601f198184030181529181526020820180516001600160e01b0316631c58c8bb60e01b17815290518251929650945084935091508083835b60208310610ebf5780518252601f199092019160209182019101610ea0565b6001836020036101000a038019825116818451168082178552505050505050905001915050600060405180830381855afa9150503d8060008114610f1f576040519150601f19603f3d011682016040523d82523d6000602084013e610f24565b606091505b509150915081610f71576040805162461bcd60e51b81526020600482015260136024820152724661696c656420746f206c6f616420726f6c6560681b604482015290519081900360640190fd5b6000818060200190516020811015610f8857600080fd5b5051905080610fda576040805162461bcd60e51b815260206004820152601960248201527829b2b73232b9103430b9903a379031329030b71030b236b4b760391b604482015290519081900360640190fd5b60006110046040518060400160405280600781526020016621b937b72537b160c91b815250610a57565b6040805160248082018b905282518083039091018152604490910182526020810180516001600160e01b03166358838def60e01b178152915181519394506001600160a01b03851693919290918291908083835b602083106110775780518252601f199092019160209182019101611058565b6001836020036101000a0380198251168184511680821785525050505050509050019150506000604051808303816000865af19150503d80600081146110d9576040519150601f19603f3d011682016040523d82523d6000602084013e6110de565b606091505b5090945092508361112c576040805162461bcd60e51b8152602060048201526013602482015272115e1958dd5d194818d85b1b0819985a5b1959606a1b604482015290519081900360640190fd5b509095945050505050565b600061077060405180604001604052806009815260200168283937b334b632a22160b91b815250610a57565b60025481565b6000546001600160a01b0316331461117d57fe5b8151602080840191909120600081815260019092526040909120546001600160a01b03166111f2576040805162461bcd60e51b815260206004820181905260248201527f4e6f20636f6e747261637420776974682074686973206e616d6520666f756e64604482015290519081900360640190fd5b600090815260016020526040902080546001600160a01b0319166001600160a01b039290921691909117905550565b60006107706040518060400160405280600c81526020016b25b4ba3a34b2a432b636222160a11b815250610a57565b6000546001600160a01b031681565b6000610770604051806040016040528060068152602001652937b632a22160d11b815250610a57565b60006107706040518060400160405280600b81526020016a486974735265736f6c766560a81b815250610a57565b60006107706040518060400160405280600981526020016829b1b432b23ab632b960b91b815250610a57565b6000546001600160a01b031633146112f657fe5b6000811161130357600080fd5b600255565b6000546001600160a01b0316331461131c57fe5b8051602080830191909120600081815260019092526040909120546001600160a01b0316611391576040805162461bcd60e51b815260206004820181905260248201527f4e6f20636f6e747261637420776974682074686973206e616d6520666f756e64604482015290519081900360640190fd5b600090815260016020526040902080546001600160a01b031916905550565b6000610770604051806040016040528060098152602001682337b93332b4ba32b960b91b815250610a57565b60006107706040518060400160405280600c81526020016b2234b9ba3934b13aba34b7b760a11b815250610a57565b60006107706040518060400160405280600a81526020016923a6a9b2ba3a32b9222160b11b815250610a57565b6000546001600160a01b0316331461144c57fe5b6001600160a01b0381166114a7576040805162461bcd60e51b815260206004820181905260248201527f436f6e747261637420616464726573732063616e206e6f74206265207a65726f604482015290519081900360640190fd5b8151602080840191909120600081815260019092526040909120546001600160a01b0316156111f25760405162461bcd60e51b81526004018080602001828103825260258152602001806117fe6025913960400191505060405180910390fd5b60006107706040518060400160405280600781526020016621b937b72537b160c91b815250610a57565b60006107706040518060400160405280600a81526020016923a6a3b2ba3a32b9222160b11b815250610a57565b60006107706040518060400160405280600c81526020016b15da5d1a191c985dd41bdbdb60a21b815250610a57565b60006107706040518060400160405280600b81526020016a23b0b6b2a6b0b730b3b2b960a91b815250610a57565b6000610770604051806040016040528060088152602001672932b3b4b9ba32b960c11b815250610a57565b6000546001600160a01b031633146115fa57fe5b6001600160a01b0381161561162557600080546001600160a01b0319166001600160a01b0383161790555b50565b60006107706040518060400160405280600b81526020016a22b73237bbb6b2b73a222160a91b815250610a57565b60006107706040518060400160405280600d81526020016c115b991bdddb595b9d119d5b99609a1b815250610a57565b60006116b06040518060400160405280600781526020016621b937b72537b160c91b815250610a57565b905060005b6002548110156117f95760408051600481526024810182526020810180516001600160e01b031663014112eb60e21b178152915181516000936060936001600160a01b038816939092909182918083835b602083106117255780518252601f199092019160209182019101611706565b6001836020036101000a0380198251168184511680821785525050505050509050019150506000604051808303816000865af19150503d8060008114611787576040519150601f19603f3d011682016040523d82523d6000602084013e61178c565b606091505b509150915081156117c55760008180602001905160408110156117ae57600080fd5b50519050806117bf575050506117f9565b506117ef565b6040517fd0c39055083f1cd7e99672a54796862cd3b34c3db7964de3d92cfc9a9d47362090600090a15b50506001016116b5565b505056fe436f6e747261637420776974682074686973206e616d6520616c7265616479206164646564a265627a7a723158208cc75f7f61372084214a5d162fcfe68b27a472015ef63f712f7ecd66dee2d05564736f6c63430005110032",
  "source": "/**\n * @title CronJob\n *\n * @author @kittieFIGHT @ola @pash7ka\n *\n */\n\n// This program is free software: you can redistribute it and/or modify\n// it under the terms of the GNU General Public License as published by\n// the Free Software Foundation, either version 3 of the License, or\n// (at your option) any later version.\n\n// This program is distributed in the hope that it will be useful,\n// but WITHOUT ANY WARRANTY; without even the implied warranty of\n// MERCHANTABILITY or FITNESS FOR A PARTICULAR PURPOSE.  See the\n// GNU General Public License for more details.\n\n// You should have received a copy of the GNU General Public License\n// along with this program.  If not, see <http://www.gnu.org/licenses/>.\npragma solidity ^0.5.5;\n\nimport \"../../authority/Owned.sol\";\nimport \"../../CronJob.sol\";\nimport \"./ProxyBase.sol\";\n\ncontract CronJobProxy is ProxyBase {\n    event CronJobExecutionFailed(); //This is used to signal about something really unexpected happened\n\n    uint256 public maxJobsForOneRun = 2;\n\n    function setMaxJobsForOneRun(uint256 _maxJobsForOneRun) onlyOwner public {\n        require(_maxJobsForOneRun > 0);\n        maxJobsForOneRun = _maxJobsForOneRun;\n    }\n\n    /**\n     * @notice Executes up to maxJobsForOneRun scheduled jobs, if available\n     * @dev This can be executed by admins, but since KFProxy can not use Guard, we need to do check manually\n     */\n    function executeScheduledJobs() external {\n        address genericDB = getContract(CONTRACT_NAME_GENERIC_DB);\n        (bool success, bytes memory result) = genericDB.staticcall(abi.encodeWithSignature(\n            \"getBoolStorage(string,bytes32)\",\n            CONTRACT_NAME_ROLE_DB,\n            keccak256(abi.encodePacked(\"admin\", msg.sender))\n        ));\n        require(success, 'Failed to load role');\n        bool hasRole = abi.decode(result, (bool));\n        require(hasRole, 'Sender has to be an admin');\n\n        _executeScheduledJobs();\n    }\n    function executeJob(uint256 jobId) external returns(bytes memory) {\n        address genericDB = getContract(CONTRACT_NAME_GENERIC_DB);\n        (bool success, bytes memory result) = genericDB.staticcall(abi.encodeWithSignature(\n            \"getBoolStorage(string,bytes32)\",\n            CONTRACT_NAME_ROLE_DB,\n            keccak256(abi.encodePacked(\"admin\", msg.sender))\n        ));\n        require(success, 'Failed to load role');\n        bool hasRole = abi.decode(result, (bool));\n        require(hasRole, 'Sender has to be an admin');\n\n        address cronJob = getContract(CONTRACT_NAME_CRONJOB);\n        (success, result) = cronJob.call(abi.encodeWithSignature('executeJob(uint256)', jobId));\n        require(success, 'Execute call failed');\n        return result;\n    }\n\n\n    /**\n     * @notice Executes up to maxJobsForOneRun scheduled jobs, if available\n     */\n    function _executeScheduledJobs() internal {\n        address cronJob = getContract(CONTRACT_NAME_CRONJOB);\n        //if(cronJob == address(0)) return; //this can not happen because of check in ContractManager\n        for(uint256 i=0; i < maxJobsForOneRun; i++){\n            //Use address.call() because we need to handle failures here\n            (bool success, bytes memory result) = cronJob.call(abi.encodeWithSignature('executeNextJobIfAvailable()'));\n            if(success){\n                (bool jobWasExecuted, /*uint256 jobId*/) = abi.decode(result, (bool, uint256));\n                if(!jobWasExecuted) break;  //There is no more jobs scheduled for now\n            }else{\n                emit CronJobExecutionFailed();\n            }\n        }\n    }\n\n\n}\n",
  "sourcePath": "/Users/ziweizhang/Desktop/kittifight-balancer/contracts/contracts/modules/proxy/CronJobProxy.sol",
  "compiler": {
    "name": "solc",
    "version": "0.5.17+commit.d19bba13.Emscripten.clang"
  },
  "schemaVersion": "3.0.23",
  "updatedAt": "2020-05-30T18:41:57.956Z",
  "devdoc": {
    "methods": {
      "executeScheduledJobs()": {
        "details": "This can be executed by admins, but since KFProxy can not use Guard, we need to do check manually"
      }
    }
  },
  "userdoc": {
    "methods": {
      "addressOfRegister()": {
        "notice": "Getters for KittyFight system contracts"
      },
      "executeScheduledJobs()": {
        "notice": "Executes up to maxJobsForOneRun scheduled jobs, if available"
      }
    }
  }
}