{
  "contractName": "CronJob",
  "abi": [
    {
      "constant": true,
      "inputs": [],
      "name": "getLastScheduledJobTime",
      "outputs": [
        {
          "name": "",
          "type": "uint256"
        }
      ],
      "payable": false,
      "stateMutability": "view",
      "type": "function"
    },
    {
      "constant": true,
      "inputs": [
        {
          "name": "time",
          "type": "uint256"
        },
        {
          "name": "nonce",
          "type": "uint16"
        }
      ],
      "name": "generateJobID",
      "outputs": [
        {
          "name": "",
          "type": "uint256"
        }
      ],
      "payable": false,
      "stateMutability": "pure",
      "type": "function"
    },
    {
      "constant": true,
      "inputs": [],
      "name": "genericDB",
      "outputs": [
        {
          "name": "",
          "type": "address"
        }
      ],
      "payable": false,
      "stateMutability": "view",
      "type": "function"
    },
    {
      "constant": true,
      "inputs": [
        {
          "name": "jobId",
          "type": "uint256"
        }
      ],
      "name": "parseJobID",
      "outputs": [
        {
          "name": "",
          "type": "uint256"
        },
        {
          "name": "",
          "type": "uint16"
        }
      ],
      "payable": false,
      "stateMutability": "pure",
      "type": "function"
    },
    {
      "constant": false,
      "inputs": [
        {
          "name": "_genericDB",
          "type": "address"
        }
      ],
      "name": "setGenericDB",
      "outputs": [],
      "payable": false,
      "stateMutability": "nonpayable",
      "type": "function"
    },
    {
      "constant": true,
      "inputs": [],
      "name": "owner",
      "outputs": [
        {
          "name": "",
          "type": "address"
        }
      ],
      "payable": false,
      "stateMutability": "view",
      "type": "function"
    },
    {
      "constant": false,
      "inputs": [
        {
          "name": "_proxy",
          "type": "address"
        }
      ],
      "name": "setProxy",
      "outputs": [],
      "payable": false,
      "stateMutability": "nonpayable",
      "type": "function"
    },
    {
      "constant": true,
      "inputs": [
        {
          "name": "time",
          "type": "uint256"
        }
      ],
      "name": "getJobNonceForTimestamp",
      "outputs": [
        {
          "name": "",
          "type": "uint16"
        }
      ],
      "payable": false,
      "stateMutability": "view",
      "type": "function"
    },
    {
      "constant": true,
      "inputs": [
        {
          "name": "jobId",
          "type": "uint256"
        }
      ],
      "name": "getJob",
      "outputs": [
        {
          "name": "",
          "type": "uint256"
        },
        {
          "name": "",
          "type": "string"
        },
        {
          "name": "",
          "type": "bytes"
        }
      ],
      "payable": false,
      "stateMutability": "view",
      "type": "function"
    },
    {
      "constant": true,
      "inputs": [],
      "name": "proxy",
      "outputs": [
        {
          "name": "",
          "type": "address"
        }
      ],
      "payable": false,
      "stateMutability": "view",
      "type": "function"
    },
    {
      "constant": false,
      "inputs": [
        {
          "name": "newOwner",
          "type": "address"
        }
      ],
      "name": "transferOwnership",
      "outputs": [],
      "payable": false,
      "stateMutability": "nonpayable",
      "type": "function"
    },
    {
      "constant": true,
      "inputs": [
        {
          "name": "time",
          "type": "uint256"
        }
      ],
      "name": "findNextJob",
      "outputs": [
        {
          "name": "",
          "type": "uint256"
        }
      ],
      "payable": false,
      "stateMutability": "view",
      "type": "function"
    },
    {
      "inputs": [
        {
          "name": "_genericDB",
          "type": "address"
        }
      ],
      "payable": false,
      "stateMutability": "nonpayable",
      "type": "constructor"
    },
    {
      "anonymous": false,
      "inputs": [
        {
          "indexed": false,
          "name": "jobId",
          "type": "uint256"
        },
        {
          "indexed": false,
          "name": "contractName",
          "type": "string"
        },
        {
          "indexed": false,
          "name": "data",
          "type": "bytes"
        }
      ],
      "name": "JobAdded",
      "type": "event"
    },
    {
      "anonymous": false,
      "inputs": [
        {
          "indexed": false,
          "name": "jobId",
          "type": "uint256"
        },
        {
          "indexed": false,
          "name": "contractAddress",
          "type": "address"
        },
        {
          "indexed": false,
          "name": "result",
          "type": "bytes"
        }
      ],
      "name": "JobExecuted",
      "type": "event"
    },
    {
      "anonymous": false,
      "inputs": [
        {
          "indexed": false,
          "name": "jobId",
          "type": "uint256"
        },
        {
          "indexed": false,
          "name": "contractAddress",
          "type": "address"
        }
      ],
      "name": "JobFailed",
      "type": "event"
    },
    {
      "constant": false,
      "inputs": [
        {
          "name": "contractName",
          "type": "string"
        },
        {
          "name": "time",
          "type": "uint256"
        },
        {
          "name": "data",
          "type": "bytes"
        }
      ],
      "name": "addCronJob",
      "outputs": [
        {
          "name": "",
          "type": "uint256"
        }
      ],
      "payable": false,
      "stateMutability": "nonpayable",
      "type": "function"
    },
    {
      "constant": false,
      "inputs": [
        {
          "name": "contractName",
          "type": "string"
        },
        {
          "name": "time",
          "type": "uint256"
        },
        {
          "name": "data",
          "type": "bytes"
        },
        {
          "name": "nextJob",
          "type": "uint256"
        }
      ],
      "name": "addCronJob",
      "outputs": [
        {
          "name": "",
          "type": "uint256"
        }
      ],
      "payable": false,
      "stateMutability": "nonpayable",
      "type": "function"
    },
    {
      "constant": false,
      "inputs": [
        {
          "name": "contractName",
          "type": "string"
        },
        {
          "name": "time",
          "type": "uint256"
        },
        {
          "name": "data",
          "type": "bytes"
        },
        {
          "name": "nextJob",
          "type": "uint256"
        }
      ],
      "name": "addCronJobManually",
      "outputs": [
        {
          "name": "",
          "type": "uint256"
        }
      ],
      "payable": false,
      "stateMutability": "nonpayable",
      "type": "function"
    },
    {
      "constant": false,
      "inputs": [],
      "name": "executeNextJobIfAvailable",
      "outputs": [
        {
          "name": "",
          "type": "bool"
        },
        {
          "name": "",
          "type": "uint256"
        }
      ],
      "payable": false,
      "stateMutability": "nonpayable",
      "type": "function"
    }
  ],
  "bytecode": "0x60806040523480156200001157600080fd5b506040516200391138038062003911833981810160405260208110156200003757600080fd5b810190808051906020019092919050505080336000806101000a81548173ffffffffffffffffffffffffffffffffffffffff021916908373ffffffffffffffffffffffffffffffffffffffff1602179055506200009a81620000a260201b60201c565b50506200013d565b6000809054906101000a900473ffffffffffffffffffffffffffffffffffffffff1673ffffffffffffffffffffffffffffffffffffffff163373ffffffffffffffffffffffffffffffffffffffff1614620000f957fe5b80600260006101000a81548173ffffffffffffffffffffffffffffffffffffffff021916908373ffffffffffffffffffffffffffffffffffffffff16021790555050565b6137c4806200014d6000396000f3fe608060405234801561001057600080fd5b50600436106101005760003560e01c806397107d6d11610097578063ec55688911610066578063ec5568891461064f578063f2fde38b14610699578063f3ca9c5f146106dd578063f5afe847146107d357610100565b806397107d6d146103bb578063a98318d6146103ff578063bf22c45714610449578063c19304961461056357610100565b80633aaae560116100d35780633aaae560146101e65780634afab81514610237578063607566901461027b5780638da5cb5b1461037157610100565b806305044bac146101055780631761de181461012e5780633411d94c1461014c5780633564e78c1461019c575b600080fd5b61010d610815565b60405180831515151581526020018281526020019250505060405180910390f35b610136610875565b6040518082815260200191505060405180910390f35b6101866004803603604081101561016257600080fd5b8101908080359060200190929190803561ffff169060200190929190505050610892565b6040518082815260200191505060405180910390f35b6101a46108a7565b604051808273ffffffffffffffffffffffffffffffffffffffff1673ffffffffffffffffffffffffffffffffffffffff16815260200191505060405180910390f35b610212600480360360208110156101fc57600080fd5b81019080803590602001909291905050506108cd565b604051808381526020018261ffff1661ffff1681526020019250505060405180910390f35b6102796004803603602081101561024d57600080fd5b81019080803573ffffffffffffffffffffffffffffffffffffffff1690602001909291905050506108e3565b005b61035b6004803603608081101561029157600080fd5b81019080803590602001906401000000008111156102ae57600080fd5b8201836020820111156102c057600080fd5b803590602001918460018302840111640100000000831117156102e257600080fd5b9091929391929390803590602001909291908035906020019064010000000081111561030d57600080fd5b82018360208201111561031f57600080fd5b8035906020019184600183028401116401000000008311171561034157600080fd5b90919293919293908035906020019092919050505061097d565b6040518082815260200191505060405180910390f35b610379610b1a565b604051808273ffffffffffffffffffffffffffffffffffffffff1673ffffffffffffffffffffffffffffffffffffffff16815260200191505060405180910390f35b6103fd600480360360208110156103d157600080fd5b81019080803573ffffffffffffffffffffffffffffffffffffffff169060200190929190505050610b3f565b005b61042b6004803603602081101561041557600080fd5b8101908080359060200190929190505050610bd9565b604051808261ffff1661ffff16815260200191505060405180910390f35b6104756004803603602081101561045f57600080fd5b8101908080359060200190929190505050610d7f565b604051808481526020018060200180602001838103835285818151815260200191508051906020019080838360005b838110156104bf5780820151818401526020810190506104a4565b50505050905090810190601f1680156104ec5780820380516001836020036101000a031916815260200191505b50838103825284818151815260200191508051906020019080838360005b8381101561052557808201518184015260208101905061050a565b50505050905090810190601f1680156105525780820380516001836020036101000a031916815260200191505b509550505050505060405180910390f35b6106396004803603606081101561057957600080fd5b810190808035906020019064010000000081111561059657600080fd5b8201836020820111156105a857600080fd5b803590602001918460018302840111640100000000831117156105ca57600080fd5b909192939192939080359060200190929190803590602001906401000000008111156105f557600080fd5b82018360208201111561060757600080fd5b8035906020019184600183028401116401000000008311171561062957600080fd5b9091929391929390505050611417565b6040518082815260200191505060405180910390f35b6106576115d1565b604051808273ffffffffffffffffffffffffffffffffffffffff1673ffffffffffffffffffffffffffffffffffffffff16815260200191505060405180910390f35b6106db600480360360208110156106af57600080fd5b81019080803573ffffffffffffffffffffffffffffffffffffffff1690602001909291905050506115f7565b005b6107bd600480360360808110156106f357600080fd5b810190808035906020019064010000000081111561071057600080fd5b82018360208201111561072257600080fd5b8035906020019184600183028401116401000000008311171561074457600080fd5b9091929391929390803590602001909291908035906020019064010000000081111561076f57600080fd5b82018360208201111561078157600080fd5b803590602001918460018302840111640100000000831117156107a357600080fd5b9091929391929390803590602001909291905050506116c5565b6040518082815260200191505060405180910390f35b6107ff600480360360208110156107e957600080fd5b810190808035906020019092919050505061185b565b6040518082815260200191505060405180910390f35b600080610820611a18565b600061082a611ba2565b90506000610837826108cd565b5090504281111561085357600080809050935093505050610871565b61085c82611d63565b5050610867826120bd565b6001829350935050505b9091565b60008061088861088361233d565b6108cd565b5090508091505090565b60008161ffff16601084901b01905092915050565b600260009054906101000a900473ffffffffffffffffffffffffffffffffffffffff1681565b600080601083901c8361ffff1691509150915091565b6000809054906101000a900473ffffffffffffffffffffffffffffffffffffffff1673ffffffffffffffffffffffffffffffffffffffff163373ffffffffffffffffffffffffffffffffffffffff161461093957fe5b80600260006101000a81548173ffffffffffffffffffffffffffffffffffffffff021916908373ffffffffffffffffffffffffffffffffffffffff16021790555050565b60008060009054906101000a900473ffffffffffffffffffffffffffffffffffffffff1673ffffffffffffffffffffffffffffffffffffffff163373ffffffffffffffffffffffffffffffffffffffff16146109d557fe5b6000610a6b8689898080601f016020809104026020016040519081016040528093929190818152602001838380828437600081840152601f19601f8201169050808301925050505050505087878080601f016020809104026020016040519081016040528093929190818152602001838380828437600081840152601f19601f82011690508083019250505050505050866124ff565b90507f80175d0e4e72dcfcce642194da235425f21c67a6bf78172659dd52b82c27431081898988886040518086815260200180602001806020018381038352878782818152602001925080828437600081840152601f19601f8201169050808301925050508381038252858582818152602001925080828437600081840152601f19601f82011690508083019250505097505050505050505060405180910390a1809150509695505050505050565b6000809054906101000a900473ffffffffffffffffffffffffffffffffffffffff1681565b6000809054906101000a900473ffffffffffffffffffffffffffffffffffffffff1673ffffffffffffffffffffffffffffffffffffffff163373ffffffffffffffffffffffffffffffffffffffff1614610b9557fe5b80600160006101000a81548173ffffffffffffffffffffffffffffffffffffffff021916908373ffffffffffffffffffffffffffffffffffffffff16021790555050565b6000600260009054906101000a900473ffffffffffffffffffffffffffffffffffffffff1673ffffffffffffffffffffffffffffffffffffffff166308acb5566040518060400160405280600781526020017f43726f6e4a6f62000000000000000000000000000000000000000000000000008152508460405160200180828152602001807f6a6f624e6f6e6365000000000000000000000000000000000000000000000000815250600801915050604051602081830303815290604052805190602001206040518363ffffffff1660e01b81526004018080602001838152602001828103825284818151815260200191508051906020019080838360005b83811015610cf3578082015181840152602081019050610cd8565b50505050905090810190601f168015610d205780820380516001836020036101000a031916815260200191505b50935050505060206040518083038186803b158015610d3e57600080fd5b505afa158015610d52573d6000803e3d6000fd5b505050506040513d6020811015610d6857600080fd5b810190808051906020019092919050505050919050565b6000606080600260009054906101000a900473ffffffffffffffffffffffffffffffffffffffff1673ffffffffffffffffffffffffffffffffffffffff166396edc0096040518060400160405280600781526020017f43726f6e4a6f620000000000000000000000000000000000000000000000000081525060405160200180807f43726f6e4a6f624c697374000000000000000000000000000000000000000000815250600b01905060405160208183030381529060405280519060200120876040518463ffffffff1660e01b81526004018080602001848152602001838152602001828103825285818151815260200191508051906020019080838360005b83811015610e9b578082015181840152602081019050610e80565b50505050905090810190601f168015610ec85780820380516001836020036101000a031916815260200191505b5094505050505060206040518083038186803b158015610ee757600080fd5b505afa158015610efb573d6000803e3d6000fd5b505050506040513d6020811015610f1157600080fd5b81019080805190602001909291905050506040518060400160405280600e81526020017f4a6f62206e6f742065786973747300000000000000000000000000000000000081525090610ffe576040517f08c379a00000000000000000000000000000000000000000000000000000000081526004018080602001828103825283818151815260200191508051906020019080838360005b83811015610fc3578082015181840152602081019050610fa8565b50505050905090810190601f168015610ff05780820380516001836020036101000a031916815260200191505b509250505060405180910390fd5b5060008061100b866108cd565b80925081935050506060600260009054906101000a900473ffffffffffffffffffffffffffffffffffffffff1673ffffffffffffffffffffffffffffffffffffffff16631a84fbb86040518060400160405280600781526020017f43726f6e4a6f62000000000000000000000000000000000000000000000000008152508960405160200180828152602001807f63616c6c65650000000000000000000000000000000000000000000000000000815250600601915050604051602081830303815290604052805190602001206040518363ffffffff1660e01b81526004018080602001838152602001828103825284818151815260200191508051906020019080838360005b8381101561112d578082015181840152602081019050611112565b50505050905090810190601f16801561115a5780820380516001836020036101000a031916815260200191505b50935050505060006040518083038186803b15801561117857600080fd5b505afa15801561118c573d6000803e3d6000fd5b505050506040513d6000823e3d601f19601f8201168201806040525060208110156111b657600080fd5b8101908080516401000000008111156111ce57600080fd5b828101905060208101848111156111e457600080fd5b815185600182028301116401000000008211171561120157600080fd5b505092919050505090506060600260009054906101000a900473ffffffffffffffffffffffffffffffffffffffff1673ffffffffffffffffffffffffffffffffffffffff1663773cdbd76040518060400160405280600781526020017f43726f6e4a6f62000000000000000000000000000000000000000000000000008152508a60405160200180828152602001807f6461746100000000000000000000000000000000000000000000000000000000815250600401915050604051602081830303815290604052805190602001206040518363ffffffff1660e01b81526004018080602001838152602001828103825284818151815260200191508051906020019080838360005b8381101561132557808201518184015260208101905061130a565b50505050905090810190601f1680156113525780820380516001836020036101000a031916815260200191505b50935050505060006040518083038186803b15801561137057600080fd5b505afa158015611384573d6000803e3d6000fd5b505050506040513d6000823e3d601f19601f8201168201806040525060208110156113ae57600080fd5b8101908080516401000000008111156113c657600080fd5b828101905060208101848111156113dc57600080fd5b81518560018202830111640100000000821117156113f957600080fd5b50509291905050509050838282965096509650505050509193909250565b600085858080601f016020809104026020016040519081016040528093929190818152602001838380828437600081840152601f19601f8201169050808301925050505050505061146781612e26565b600085611472610875565b1115611486576114818661185b565b611489565b60005b90506000611521878a8a8080601f016020809104026020016040519081016040528093929190818152602001838380828437600081840152601f19601f8201169050808301925050505050505088888080601f016020809104026020016040519081016040528093929190818152602001838380828437600081840152601f19601f82011690508083019250505050505050856124ff565b90507f80175d0e4e72dcfcce642194da235425f21c67a6bf78172659dd52b82c274310818a8a89896040518086815260200180602001806020018381038352878782818152602001925080828437600081840152601f19601f8201169050808301925050508381038252858582818152602001925080828437600081840152601f19601f82011690508083019250505097505050505050505060405180910390a180935050505095945050505050565b600160009054906101000a900473ffffffffffffffffffffffffffffffffffffffff1681565b6000809054906101000a900473ffffffffffffffffffffffffffffffffffffffff1673ffffffffffffffffffffffffffffffffffffffff163373ffffffffffffffffffffffffffffffffffffffff161461164d57fe5b600073ffffffffffffffffffffffffffffffffffffffff168173ffffffffffffffffffffffffffffffffffffffff16146116c257806000806101000a81548173ffffffffffffffffffffffffffffffffffffffff021916908373ffffffffffffffffffffffffffffffffffffffff1602179055505b50565b600086868080601f016020809104026020016040519081016040528093929190818152602001838380828437600081840152601f19601f8201169050808301925050505050505061171581612e26565b60006117ab878a8a8080601f016020809104026020016040519081016040528093929190818152602001838380828437600081840152601f19601f8201169050808301925050505050505088888080601f016020809104026020016040519081016040528093929190818152602001838380828437600081840152601f19601f82011690508083019250505050505050876124ff565b90507f80175d0e4e72dcfcce642194da235425f21c67a6bf78172659dd52b82c274310818a8a89896040518086815260200180602001806020018381038352878782818152602001925080828437600081840152601f19601f8201169050808301925050508381038252858582818152602001925080828437600081840152601f19601f82011690508083019250505097505050505050505060405180910390a180925050509695505050505050565b6000806118708361186b85610bd9565b610892565b9050600260009054906101000a900473ffffffffffffffffffffffffffffffffffffffff1673ffffffffffffffffffffffffffffffffffffffff1663757ba9a26040518060400160405280600781526020017f43726f6e4a6f620000000000000000000000000000000000000000000000000081525060405160200180807f43726f6e4a6f624c697374000000000000000000000000000000000000000000815250600b01905060405160208183030381529060405280519060200120846040518463ffffffff1660e01b81526004018080602001848152602001838152602001828103825285818151815260200191508051906020019080838360005b8381101561198957808201518184015260208101905061196e565b50505050905090810190601f1680156119b65780820380516001836020036101000a031916815260200191505b5094505050505060206040518083038186803b1580156119d557600080fd5b505afa1580156119e9573d6000803e3d6000fd5b505050506040513d60208110156119ff57600080fd5b8101908080519060200190929190505050915050919050565b600073ffffffffffffffffffffffffffffffffffffffff16600160009054906101000a900473ffffffffffffffffffffffffffffffffffffffff1673ffffffffffffffffffffffffffffffffffffffff161415611add576040517f08c379a00000000000000000000000000000000000000000000000000000000081526004018080602001828103825260088152602001807f4e6f2050726f787900000000000000000000000000000000000000000000000081525060200191505060405180910390fd5b600160009054906101000a900473ffffffffffffffffffffffffffffffffffffffff1673ffffffffffffffffffffffffffffffffffffffff163373ffffffffffffffffffffffffffffffffffffffff1614611ba0576040517f08c379a00000000000000000000000000000000000000000000000000000000081526004018080602001828103825260128152602001807f4f6e6c79207468726f7567682050726f7879000000000000000000000000000081525060200191505060405180910390fd5b565b600080600260009054906101000a900473ffffffffffffffffffffffffffffffffffffffff1673ffffffffffffffffffffffffffffffffffffffff16639a481f4e6040518060400160405280600781526020017f43726f6e4a6f620000000000000000000000000000000000000000000000000081525060405160200180807f43726f6e4a6f624c697374000000000000000000000000000000000000000000815250600b019050604051602081830303815290604052805190602001206000806040518563ffffffff1660e01b8152600401808060200185815260200184815260200183151515158152602001828103825286818151815260200191508051906020019080838360005b83811015611cc8578082015181840152602081019050611cad565b50505050905090810190601f168015611cf55780820380516001836020036101000a031916815260200191505b5095505050505050604080518083038186803b158015611d1457600080fd5b505afa158015611d28573d6000803e3d6000fd5b505050506040513d6040811015611d3e57600080fd5b8101908080519060200190929190805190602001909291905050509150508091505090565b600060606000606080611d7586610d7f565b80935081945082955050505042831115611d8b57fe5b6000600160009054906101000a900473ffffffffffffffffffffffffffffffffffffffff1673ffffffffffffffffffffffffffffffffffffffff166335817773846040518263ffffffff1660e01b81526004018080602001828103825283818151815260200191508051906020019080838360005b83811015611e1b578082015181840152602081019050611e00565b50505050905090810190601f168015611e485780820380516001836020036101000a031916815260200191505b509250505060206040518083038186803b158015611e6557600080fd5b505afa158015611e79573d6000803e3d6000fd5b505050506040513d6020811015611e8f57600080fd5b81019080805190602001909291905050509050600060608273ffffffffffffffffffffffffffffffffffffffff16846040518082805190602001908083835b60208310611ef15780518252602082019150602081019050602083039250611ece565b6001836020036101000a0380198251168184511680821785525050505050509050019150506000604051808303816000865af19150503d8060008114611f53576040519150601f19603f3d011682016040523d82523d6000602084013e611f58565b606091505b50915091508115612040577f05c5b7ca7d756545f559189eae5ad454044a1193536724dcd1fa320c391b6edc898483604051808481526020018373ffffffffffffffffffffffffffffffffffffffff1673ffffffffffffffffffffffffffffffffffffffff16815260200180602001828103825283818151815260200191508051906020019080838360005b83811015611fff578082015181840152602081019050611fe4565b50505050905090810190601f16801561202c5780820380516001836020036101000a031916815260200191505b5094505050505060405180910390a16120ac565b7fd58f2a4e069708a89a2a10de98f25ed4b483a239586791231948ef38a39c109c8984604051808381526020018273ffffffffffffffffffffffffffffffffffffffff1673ffffffffffffffffffffffffffffffffffffffff1681526020019250505060405180910390a15b818197509750505050505050915091565b600260009054906101000a900473ffffffffffffffffffffffffffffffffffffffff1673ffffffffffffffffffffffffffffffffffffffff1663ad52192f6040518060400160405280600781526020017f43726f6e4a6f620000000000000000000000000000000000000000000000000081525060405160200180807f43726f6e4a6f624c697374000000000000000000000000000000000000000000815250600b01905060405160208183030381529060405280519060200120846040518463ffffffff1660e01b81526004018080602001848152602001838152602001828103825285818151815260200191508051906020019080838360005b838110156121d45780820151818401526020810190506121b9565b50505050905090810190601f1680156122015780820380516001836020036101000a031916815260200191505b50945050505050602060405180830381600087803b15801561222257600080fd5b505af1158015612236573d6000803e3d6000fd5b505050506040513d602081101561224c57600080fd5b81019080805190602001909291905050506040518060400160405280600e81526020017f4a6f62206e6f742065786973747300000000000000000000000000000000000081525090612339576040517f08c379a00000000000000000000000000000000000000000000000000000000081526004018080602001828103825283818151815260200191508051906020019080838360005b838110156122fe5780820151818401526020810190506122e3565b50505050905090810190601f16801561232b5780820380516001836020036101000a031916815260200191505b509250505060405180910390fd5b5050565b600080600260009054906101000a900473ffffffffffffffffffffffffffffffffffffffff1673ffffffffffffffffffffffffffffffffffffffff16639a481f4e6040518060400160405280600781526020017f43726f6e4a6f620000000000000000000000000000000000000000000000000081525060405160200180807f43726f6e4a6f624c697374000000000000000000000000000000000000000000815250600b01905060405160208183030381529060405280519060200120600060016040518563ffffffff1660e01b8152600401808060200185815260200184815260200183151515158152602001828103825286818151815260200191508051906020019080838360005b83811015612464578082015181840152602081019050612449565b50505050905090810190601f1680156124915780820380516001836020036101000a031916815260200191505b5095505050505050604080518083038186803b1580156124b057600080fd5b505afa1580156124c4573d6000803e3d6000fd5b505050506040513d60408110156124da57600080fd5b8101908080519060200190929190805190602001909291905050509150508091505090565b6000806125148661250f88610bd9565b610892565b905061252081846130c1565b60008314156127ab57600260009054906101000a900473ffffffffffffffffffffffffffffffffffffffff1673ffffffffffffffffffffffffffffffffffffffff166387d533626040518060400160405280600781526020017f43726f6e4a6f620000000000000000000000000000000000000000000000000081525060405160200180807f43726f6e4a6f624c697374000000000000000000000000000000000000000000815250600b01905060405160208183030381529060405280519060200120846040518463ffffffff1660e01b81526004018080602001848152602001838152602001828103825285818151815260200191508051906020019080838360005b83811015612640578082015181840152602081019050612625565b50505050905090810190601f16801561266d5780820380516001836020036101000a031916815260200191505b50945050505050602060405180830381600087803b15801561268e57600080fd5b505af11580156126a2573d6000803e3d6000fd5b505050506040513d60208110156126b857600080fd5b81019080805190602001909291905050506040518060400160405280601281526020017f4a6f6220616c7265616479206578697374730000000000000000000000000000815250906127a5576040517f08c379a00000000000000000000000000000000000000000000000000000000081526004018080602001828103825283818151815260200191508051906020019080838360005b8381101561276a57808201518184015260208101905061274f565b50505050905090810190601f1680156127975780820380516001836020036101000a031916815260200191505b509250505060405180910390fd5b50612a3d565b600260009054906101000a900473ffffffffffffffffffffffffffffffffffffffff1673ffffffffffffffffffffffffffffffffffffffff166245584c6040518060400160405280600781526020017f43726f6e4a6f620000000000000000000000000000000000000000000000000081525060405160200180807f43726f6e4a6f624c697374000000000000000000000000000000000000000000815250600b01905060405160208183030381529060405280519060200120848760006040518663ffffffff1660e01b8152600401808060200186815260200185815260200184815260200183151515158152602001828103825287818151815260200191508051906020019080838360005b838110156128d45780820151818401526020810190506128b9565b50505050905090810190601f1680156129015780820380516001836020036101000a031916815260200191505b509650505050505050602060405180830381600087803b15801561292457600080fd5b505af1158015612938573d6000803e3d6000fd5b505050506040513d602081101561294e57600080fd5b81019080805190602001909291905050506040518060400160405280601281526020017f4a6f6220616c726561647920657869737473000000000000000000000000000081525090612a3b576040517f08c379a00000000000000000000000000000000000000000000000000000000081526004018080602001828103825283818151815260200191508051906020019080838360005b83811015612a005780820151818401526020810190506129e5565b50505050905090810190601f168015612a2d5780820380516001836020036101000a031916815260200191505b509250505060405180910390fd5b505b612a46866134f0565b600260009054906101000a900473ffffffffffffffffffffffffffffffffffffffff1673ffffffffffffffffffffffffffffffffffffffff1663ae2660106040518060400160405280600781526020017f43726f6e4a6f62000000000000000000000000000000000000000000000000008152508360405160200180828152602001807f63616c6c6565000000000000000000000000000000000000000000000000000081525060060191505060405160208183030381529060405280519060200120886040518463ffffffff1660e01b8152600401808060200184815260200180602001838103835286818151815260200191508051906020019080838360005b83811015612b63578082015181840152602081019050612b48565b50505050905090810190601f168015612b905780820380516001836020036101000a031916815260200191505b50838103825284818151815260200191508051906020019080838360005b83811015612bc9578082015181840152602081019050612bae565b50505050905090810190601f168015612bf65780820380516001836020036101000a031916815260200191505b5095505050505050600060405180830381600087803b158015612c1857600080fd5b505af1158015612c2c573d6000803e3d6000fd5b50505050600260009054906101000a900473ffffffffffffffffffffffffffffffffffffffff1673ffffffffffffffffffffffffffffffffffffffff1663a7ad3db56040518060400160405280600781526020017f43726f6e4a6f62000000000000000000000000000000000000000000000000008152508360405160200180828152602001807f646174610000000000000000000000000000000000000000000000000000000081525060040191505060405160208183030381529060405280519060200120876040518463ffffffff1660e01b8152600401808060200184815260200180602001838103835286818151815260200191508051906020019080838360005b83811015612d4d578082015181840152602081019050612d32565b50505050905090810190601f168015612d7a5780820380516001836020036101000a031916815260200191505b50838103825284818151815260200191508051906020019080838360005b83811015612db3578082015181840152602081019050612d98565b50505050905090810190601f168015612de05780820380516001836020036101000a031916815260200191505b5095505050505050600060405180830381600087803b158015612e0257600080fd5b505af1158015612e16573d6000803e3d6000fd5b5050505080915050949350505050565b600073ffffffffffffffffffffffffffffffffffffffff16600160009054906101000a900473ffffffffffffffffffffffffffffffffffffffff1673ffffffffffffffffffffffffffffffffffffffff161415612eeb576040517f08c379a00000000000000000000000000000000000000000000000000000000081526004018080602001828103825260088152602001807f4e6f2050726f787900000000000000000000000000000000000000000000000081525060200191505060405180910390fd5b6000600160009054906101000a900473ffffffffffffffffffffffffffffffffffffffff1673ffffffffffffffffffffffffffffffffffffffff166335817773836040518263ffffffff1660e01b81526004018080602001828103825283818151815260200191508051906020019080838360005b83811015612f7b578082015181840152602081019050612f60565b50505050905090810190601f168015612fa85780820380516001836020036101000a031916815260200191505b509250505060206040518083038186803b158015612fc557600080fd5b505afa158015612fd9573d6000803e3d6000fd5b505050506040513d6020811015612fef57600080fd5b81019080805190602001909291905050509050600073ffffffffffffffffffffffffffffffffffffffff168173ffffffffffffffffffffffffffffffffffffffff16141561303957fe5b8073ffffffffffffffffffffffffffffffffffffffff163373ffffffffffffffffffffffffffffffffffffffff16146130bd576040517f08c379a000000000000000000000000000000000000000000000000000000000815260040180806020018281038252602d815260200180613763602d913960400191505060405180910390fd5b5050565b600081141561319f5760006130d461233d565b905080831160405180608001604052806052815260200161368e6052913990613198576040517f08c379a00000000000000000000000000000000000000000000000000000000081526004018080602001828103825283818151815260200191508051906020019080838360005b8381101561315d578082015181840152602081019050613142565b50505050905090810190601f16801561318a5780820380516001836020036101000a031916815260200191505b509250505060405180910390fd5b50506134ec565b8082106040518060600160405280603e81526020016136e0603e913990613261576040517f08c379a00000000000000000000000000000000000000000000000000000000081526004018080602001828103825283818151815260200191508051906020019080838360005b8381101561322657808201518184015260208101905061320b565b50505050905090810190601f1680156132535780820380516001836020036101000a031916815260200191505b509250505060405180910390fd5b50600080600260009054906101000a900473ffffffffffffffffffffffffffffffffffffffff1673ffffffffffffffffffffffffffffffffffffffff16639a481f4e6040518060400160405280600781526020017f43726f6e4a6f620000000000000000000000000000000000000000000000000081525060405160200180807f43726f6e4a6f624c697374000000000000000000000000000000000000000000815250600b019050604051602081830303815290604052805190602001208660006040518563ffffffff1660e01b8152600401808060200185815260200184815260200183151515158152602001828103825286818151815260200191508051906020019080838360005b8381101561338857808201518184015260208101905061336d565b50505050905090810190601f1680156133b55780820380516001836020036101000a031916815260200191505b5095505050505050604080518083038186803b1580156133d457600080fd5b505afa1580156133e8573d6000803e3d6000fd5b505050506040513d60408110156133fe57600080fd5b8101908080519060200190929190805190602001909291905050509150915081158061342957508084115b60405180608001604052806045815260200161371e60459139906134e8576040517f08c379a00000000000000000000000000000000000000000000000000000000081526004018080602001828103825283818151815260200191508051906020019080838360005b838110156134ad578082015181840152602081019050613492565b50505050905090810190601f1680156134da5780820380516001836020036101000a031916815260200191505b509250505060405180910390fd5b5050505b5050565b60006134fb82610bd9565b9050600260009054906101000a900473ffffffffffffffffffffffffffffffffffffffff1673ffffffffffffffffffffffffffffffffffffffff16630214a37c6040518060400160405280600781526020017f43726f6e4a6f62000000000000000000000000000000000000000000000000008152508460405160200180828152602001807f6a6f624e6f6e6365000000000000000000000000000000000000000000000000815250600801915050604051602081830303815290604052805190602001206001850161ffff166040518463ffffffff1660e01b81526004018080602001848152602001838152602001828103825285818151815260200191508051906020019080838360005b83811015613623578082015181840152602081019050613608565b50505050905090810190601f1680156136505780820380516001836020036101000a031916815260200191505b50945050505050600060405180830381600087803b15801561367157600080fd5b505af1158015613685573d6000803e3d6000fd5b50505050505056fe4a6f622063616e206e6f742062652061646465642c2062656361757365207468657265206973206f74686572206a6f62732061667465722069742e20557365206e6578744a6f6220706172616d657465722e4a6f622063616e206e6f7420626520616464656420626563617573652069742073686f756c6420626520616674657220737065636966696564206a6f622e4a6f622063616e206e6f742062652061646465642062656361757365206974206973206e6f74206469726563746c79206265666f726520737065636966696564206a6f622e416363657373206973206f6e6c7920616c6c6f7765642066726f6d20737065636966696320636f6e7472616374a265627a7a723058201270159e2e30a9dbe8ae5ebdeb4f7162ee654221503471c69f44cae51a0b659064736f6c634300050a0032",
  "source": "/**\n * @title CronJob\n *\n * @author @kittieFIGHT @ola @pash7ka\n *\n */\n\n// This program is free software: you can redistribute it and/or modify\n// it under the terms of the GNU General Public License as published by\n// the Free Software Foundation, either version 3 of the License, or\n// (at your option) any later version.\n\n// This program is distributed in the hope that it will be useful,\n// but WITHOUT ANY WARRANTY; without even the implied warranty of\n// MERCHANTABILITY or FITNESS FOR A PARTICULAR PURPOSE.  See the\n// GNU General Public License for more details.\n\n// You should have received a copy of the GNU General Public License\n// along with this program.  If not, see <http://www.gnu.org/licenses/>.\npragma solidity ^0.5.5;\n\nimport \"./modules/databases/CronJobDB.sol\";\n\n\n\ncontract CronJob is CronJobDB {\n    event JobAdded(uint256 jobId, string contractName, bytes data);\n    event JobExecuted(uint256 jobId, address contractAddress, bytes result);\n    event JobFailed(uint256 jobId, address contractAddress);\n\n    constructor(GenericDB _genericDB) CronJobDB(_genericDB) public {\n    }\n    /**\n     * @notice Use this function to add Job\n     * \n     * @param contractName Name of the contract to execute. See /modules/proxy/ContractNames.sol\n     * @param time Timestamp when (or after this time) Job should be executed\n     * @param data message to the contract. Use abi.encodeWithSignature() to generate data\n     * @param nextJob id of next job, if you are adding job not on the end of the list, 0 otherwise\n     * \n     * @dev If you set nextJob to 0, time should be >= getLastScheduledJobTime()\n     * Use findNextJob() to find out nextJob\n     */\n    function addCronJob(\n        string calldata contractName,\n        uint256 time,\n        bytes calldata data,\n        uint256 nextJob\n    )\n        external onlyContract(contractName)\n        returns(uint256)\n    {\n        uint256 jobId = addJob(time, contractName, data, nextJob);\n        emit JobAdded(jobId, contractName, data);\n        return jobId;\n    }\n\n    /**\n     * @notice Use this function to add Job\n     * \n     * @param contractName Name of the contract to execute. See /modules/proxy/ContractNames.sol\n     * @param time Timestamp when (or after this time) Job should be executed\n     * @param data message to the contract. Use abi.encodeWithSignature() to generate data\n     *\n     * @dev Use this variant if you don't know if your new job will be the last one or not or do not want to search for nextJob youself.\n     * WARNING: This may use too much gas!\n     */\n    function addCronJob(\n        string calldata contractName,\n        uint256 time,\n        bytes calldata data\n    )\n        external onlyContract(contractName)\n        returns(uint256)\n    {\n        uint256 nextJob = (getLastScheduledJobTime() <= time)?0:findNextJob(time);\n        uint256 jobId = addJob(time, contractName, data, nextJob);\n        emit JobAdded(jobId, contractName, data);\n        return jobId;\n    }\n\n    /**\n     * This function same as addCronJob(), but can only be called by owner.\n     * It can be used to manualy re-schedule failed Job\n     */\n    function addCronJobManually(\n        string calldata contractName,\n        uint256 time,\n        bytes calldata data,\n        uint256 nextJob\n    )\n        external onlyOwner\n        returns(uint256)\n    {\n        uint256 jobId = addJob(time, contractName, data, nextJob);\n        emit JobAdded(jobId, contractName, data);\n        return jobId;\n    }\n\n    /**\n     * @notice Executes next available job\n     * returns (true, executed_job_id) if there was a job to execute,  (false, 0) if no job is scheduled for now\n     */\n    function executeNextJobIfAvailable() external onlyProxy returns(bool, uint256) {\n        uint256 nextJob = getFirstJobId();\n        (uint256 time, /*uint16 nonce*/) = parseJobID(nextJob);\n        if(time > now) return (false, 0);\n        /*(bool success, bytes memory result) = */ executeJob(nextJob);\n        removeJob(nextJob);\n        return (true, nextJob);\n    }\n\n    function executeJob(uint256 jobId) internal returns(bool, bytes memory){\n        uint256 time; string memory contractName; bytes memory data;\n        (time, contractName, data) = getJob(jobId);\n        assert(time <= now);\n        address contractAddress = proxy.getContract(contractName);\n        (bool success, bytes memory returnData) = contractAddress.call(data);\n        if(success){\n            emit JobExecuted(jobId, contractAddress, returnData);\n        }else{\n            emit JobFailed(jobId, contractAddress);\n            //If we stop on failed job, that will, probably, stop the whole cron system\n        }\n        return (success, returnData);\n    }\n\n\n}\n",
  "sourcePath": "/home/ziwei/Documents/kittieFight-new/algorithm/alpha/contracts/CronJob.sol",
  "compiler": {
    "name": "solc",
    "version": "0.5.10+commit.5a6ea5b1.Emscripten.clang"
  },
  "schemaVersion": "3.0.11",
  "updatedAt": "2019-08-03T20:39:44.984Z",
  "devdoc": {
    "methods": {
      "addCronJob(string,uint256,bytes)": {
        "details": "Use this variant if you don't know if your new job will be the last one or not or do not want to search for nextJob youself. WARNING: This may use too much gas!",
        "params": {
          "contractName": "Name of the contract to execute. See /modules/proxy/ContractNames.sol",
          "data": "message to the contract. Use abi.encodeWithSignature() to generate data",
          "time": "Timestamp when (or after this time) Job should be executed"
        }
      },
      "addCronJob(string,uint256,bytes,uint256)": {
        "details": "If you set nextJob to 0, time should be >= getLastScheduledJobTime() Use findNextJob() to find out nextJob",
        "params": {
          "contractName": "Name of the contract to execute. See /modules/proxy/ContractNames.sol",
          "data": "message to the contract. Use abi.encodeWithSignature() to generate data",
          "nextJob": "id of next job, if you are adding job not on the end of the list, 0 otherwise ",
          "time": "Timestamp when (or after this time) Job should be executed"
        }
      },
      "generateJobID(uint256,uint16)": {
        "params": {
          "nonce": "Index of job scheduled to specified timestamp",
          "time": "When job has to be executed"
        }
      },
      "getJob(uint256)": {
        "params": {
          "jobId": "Job to view"
        }
      }
    }
  },
  "userdoc": {
    "methods": {
      "addCronJob(string,uint256,bytes)": {
        "notice": "Use this function to add Job "
      },
      "addCronJob(string,uint256,bytes,uint256)": {
        "notice": "Use this function to add Job "
      },
      "addCronJobManually(string,uint256,bytes,uint256)": {
        "notice": "This function same as addCronJob(), but can only be called by owner. It can be used to manualy re-schedule failed Job"
      },
      "executeNextJobIfAvailable()": {
        "notice": "Executes next available job returns (true, executed_job_id) if there was a job to execute,  (false, 0) if no job is scheduled for now"
      },
      "findNextJob(uint256)": {
        "notice": "Use this to find job next to specific time Should be used before calling addJob() if inserting job in the middle of the queue"
      },
      "generateJobID(uint256,uint16)": {
        "notice": "Generates id of the Job"
      },
      "getJob(uint256)": {
        "notice": "Returns a job, with specified id"
      },
      "setProxy(address)": {
        "notice": "Set/update address of Proxy contract"
      }
    }
  }
}