{
  "contractName": "CronJob",
  "abi": [
    {
      "inputs": [
        {
          "internalType": "contract GenericDB",
          "name": "_genericDB",
          "type": "address"
        }
      ],
      "payable": false,
      "stateMutability": "nonpayable",
      "type": "constructor"
    },
    {
      "anonymous": false,
      "inputs": [
        {
          "indexed": false,
          "internalType": "uint256",
          "name": "jobId",
          "type": "uint256"
        },
        {
          "indexed": false,
          "internalType": "string",
          "name": "contractName",
          "type": "string"
        },
        {
          "indexed": false,
          "internalType": "bytes",
          "name": "data",
          "type": "bytes"
        }
      ],
      "name": "JobAdded",
      "type": "event"
    },
    {
      "anonymous": false,
      "inputs": [
        {
          "indexed": false,
          "internalType": "uint256",
          "name": "jobId",
          "type": "uint256"
        },
        {
          "indexed": false,
          "internalType": "address",
          "name": "contractAddress",
          "type": "address"
        }
      ],
      "name": "JobDeleted",
      "type": "event"
    },
    {
      "anonymous": false,
      "inputs": [
        {
          "indexed": false,
          "internalType": "uint256",
          "name": "jobId",
          "type": "uint256"
        },
        {
          "indexed": false,
          "internalType": "address",
          "name": "contractAddress",
          "type": "address"
        },
        {
          "indexed": false,
          "internalType": "bytes",
          "name": "result",
          "type": "bytes"
        }
      ],
      "name": "JobExecuted",
      "type": "event"
    },
    {
      "anonymous": false,
      "inputs": [
        {
          "indexed": false,
          "internalType": "uint256",
          "name": "jobId",
          "type": "uint256"
        },
        {
          "indexed": false,
          "internalType": "address",
          "name": "contractAddress",
          "type": "address"
        }
      ],
      "name": "JobFailed",
      "type": "event"
    },
    {
      "constant": true,
      "inputs": [
        {
          "internalType": "uint256",
          "name": "time",
          "type": "uint256"
        }
      ],
      "name": "findNextJob",
      "outputs": [
        {
          "internalType": "uint256",
          "name": "",
          "type": "uint256"
        }
      ],
      "payable": false,
      "stateMutability": "view",
      "type": "function"
    },
    {
      "constant": true,
      "inputs": [
        {
          "internalType": "uint256",
          "name": "time",
          "type": "uint256"
        },
        {
          "internalType": "uint16",
          "name": "nonce",
          "type": "uint16"
        }
      ],
      "name": "generateJobID",
      "outputs": [
        {
          "internalType": "uint256",
          "name": "",
          "type": "uint256"
        }
      ],
      "payable": false,
      "stateMutability": "pure",
      "type": "function"
    },
    {
      "constant": true,
      "inputs": [],
      "name": "genericDB",
      "outputs": [
        {
          "internalType": "contract GenericDB",
          "name": "",
          "type": "address"
        }
      ],
      "payable": false,
      "stateMutability": "view",
      "type": "function"
    },
    {
      "constant": true,
      "inputs": [],
      "name": "getAllJobs",
      "outputs": [
        {
          "internalType": "uint256[]",
          "name": "allJobs",
          "type": "uint256[]"
        }
      ],
      "payable": false,
      "stateMutability": "view",
      "type": "function"
    },
    {
      "constant": true,
      "inputs": [],
      "name": "getFirstJobId",
      "outputs": [
        {
          "internalType": "uint256",
          "name": "",
          "type": "uint256"
        }
      ],
      "payable": false,
      "stateMutability": "view",
      "type": "function"
    },
    {
      "constant": true,
      "inputs": [
        {
          "internalType": "uint256",
          "name": "jobId",
          "type": "uint256"
        }
      ],
      "name": "getJob",
      "outputs": [
        {
          "internalType": "uint256",
          "name": "",
          "type": "uint256"
        },
        {
          "internalType": "string",
          "name": "",
          "type": "string"
        },
        {
          "internalType": "bytes",
          "name": "",
          "type": "bytes"
        }
      ],
      "payable": false,
      "stateMutability": "view",
      "type": "function"
    },
    {
      "constant": true,
      "inputs": [
        {
          "internalType": "uint256",
          "name": "time",
          "type": "uint256"
        }
      ],
      "name": "getJobNonceForTimestamp",
      "outputs": [
        {
          "internalType": "uint16",
          "name": "",
          "type": "uint16"
        }
      ],
      "payable": false,
      "stateMutability": "view",
      "type": "function"
    },
    {
      "constant": true,
      "inputs": [],
      "name": "getLastJobId",
      "outputs": [
        {
          "internalType": "uint256",
          "name": "",
          "type": "uint256"
        }
      ],
      "payable": false,
      "stateMutability": "view",
      "type": "function"
    },
    {
      "constant": true,
      "inputs": [],
      "name": "getLastScheduledJobTime",
      "outputs": [
        {
          "internalType": "uint256",
          "name": "",
          "type": "uint256"
        }
      ],
      "payable": false,
      "stateMutability": "view",
      "type": "function"
    },
    {
      "constant": true,
      "inputs": [],
      "name": "owner",
      "outputs": [
        {
          "internalType": "address payable",
          "name": "",
          "type": "address"
        }
      ],
      "payable": false,
      "stateMutability": "view",
      "type": "function"
    },
    {
      "constant": true,
      "inputs": [
        {
          "internalType": "uint256",
          "name": "jobId",
          "type": "uint256"
        }
      ],
      "name": "parseJobID",
      "outputs": [
        {
          "internalType": "uint256",
          "name": "",
          "type": "uint256"
        },
        {
          "internalType": "uint16",
          "name": "",
          "type": "uint16"
        }
      ],
      "payable": false,
      "stateMutability": "pure",
      "type": "function"
    },
    {
      "constant": true,
      "inputs": [],
      "name": "proxy",
      "outputs": [
        {
          "internalType": "contract ProxyBase",
          "name": "",
          "type": "address"
        }
      ],
      "payable": false,
      "stateMutability": "view",
      "type": "function"
    },
    {
      "constant": false,
      "inputs": [
        {
          "internalType": "contract GenericDB",
          "name": "_genericDB",
          "type": "address"
        }
      ],
      "name": "setGenericDB",
      "outputs": [],
      "payable": false,
      "stateMutability": "nonpayable",
      "type": "function"
    },
    {
      "constant": false,
      "inputs": [
        {
          "internalType": "contract ProxyBase",
          "name": "_proxy",
          "type": "address"
        }
      ],
      "name": "setProxy",
      "outputs": [],
      "payable": false,
      "stateMutability": "nonpayable",
      "type": "function"
    },
    {
      "constant": false,
      "inputs": [
        {
          "internalType": "address payable",
          "name": "newOwner",
          "type": "address"
        }
      ],
      "name": "transferOwnership",
      "outputs": [],
      "payable": false,
      "stateMutability": "nonpayable",
      "type": "function"
    },
    {
      "constant": false,
      "inputs": [
        {
          "internalType": "string",
          "name": "contractName",
          "type": "string"
        },
        {
          "internalType": "uint256",
          "name": "time",
          "type": "uint256"
        },
        {
          "internalType": "bytes",
          "name": "data",
          "type": "bytes"
        }
      ],
      "name": "addCronJob",
      "outputs": [
        {
          "internalType": "uint256",
          "name": "",
          "type": "uint256"
        }
      ],
      "payable": false,
      "stateMutability": "nonpayable",
      "type": "function"
    },
    {
      "constant": false,
      "inputs": [
        {
          "internalType": "string",
          "name": "contractName",
          "type": "string"
        },
        {
          "internalType": "uint256",
          "name": "time",
          "type": "uint256"
        },
        {
          "internalType": "bytes",
          "name": "data",
          "type": "bytes"
        },
        {
          "internalType": "uint256",
          "name": "nextJob",
          "type": "uint256"
        }
      ],
      "name": "addCronJob",
      "outputs": [
        {
          "internalType": "uint256",
          "name": "",
          "type": "uint256"
        }
      ],
      "payable": false,
      "stateMutability": "nonpayable",
      "type": "function"
    },
    {
      "constant": false,
      "inputs": [
        {
          "internalType": "string",
          "name": "contractName",
          "type": "string"
        },
        {
          "internalType": "uint256",
          "name": "jobId",
          "type": "uint256"
        }
      ],
      "name": "deleteCronJob",
      "outputs": [],
      "payable": false,
      "stateMutability": "nonpayable",
      "type": "function"
    },
    {
      "constant": false,
      "inputs": [
        {
          "internalType": "string",
          "name": "contractName",
          "type": "string"
        },
        {
          "internalType": "uint256",
          "name": "jobId",
          "type": "uint256"
        },
        {
          "internalType": "uint256",
          "name": "newTime",
          "type": "uint256"
        }
      ],
      "name": "rescheduleCronJob",
      "outputs": [
        {
          "internalType": "uint256",
          "name": "",
          "type": "uint256"
        }
      ],
      "payable": false,
      "stateMutability": "nonpayable",
      "type": "function"
    },
    {
      "constant": false,
      "inputs": [
        {
          "internalType": "string",
          "name": "contractName",
          "type": "string"
        },
        {
          "internalType": "uint256",
          "name": "time",
          "type": "uint256"
        },
        {
          "internalType": "bytes",
          "name": "data",
          "type": "bytes"
        },
        {
          "internalType": "uint256",
          "name": "nextJob",
          "type": "uint256"
        }
      ],
      "name": "addCronJobManually",
      "outputs": [
        {
          "internalType": "uint256",
          "name": "",
          "type": "uint256"
        }
      ],
      "payable": false,
      "stateMutability": "nonpayable",
      "type": "function"
    },
    {
      "constant": false,
      "inputs": [],
      "name": "executeNextJobIfAvailable",
      "outputs": [
        {
          "internalType": "bool",
          "name": "",
          "type": "bool"
        },
        {
          "internalType": "uint256",
          "name": "",
          "type": "uint256"
        }
      ],
      "payable": false,
      "stateMutability": "nonpayable",
      "type": "function"
    },
    {
      "constant": false,
      "inputs": [
        {
          "internalType": "uint256",
          "name": "jobId",
          "type": "uint256"
        }
      ],
      "name": "executeJobManually",
      "outputs": [
        {
          "internalType": "bool",
          "name": "",
          "type": "bool"
        },
        {
          "internalType": "bytes",
          "name": "",
          "type": "bytes"
        }
      ],
      "payable": false,
      "stateMutability": "nonpayable",
      "type": "function"
    },
    {
      "constant": false,
      "inputs": [
        {
          "internalType": "uint256",
          "name": "jobId",
          "type": "uint256"
        }
      ],
      "name": "executeJob",
      "outputs": [
        {
          "internalType": "bool",
          "name": "",
          "type": "bool"
        },
        {
          "internalType": "bytes",
          "name": "",
          "type": "bytes"
        }
      ],
      "payable": false,
      "stateMutability": "nonpayable",
      "type": "function"
    }
  ],
  "bytecode": "0x60806040523480156200001157600080fd5b506040516200415738038062004157833981810160405260208110156200003757600080fd5b810190808051906020019092919050505080336000806101000a81548173ffffffffffffffffffffffffffffffffffffffff021916908373ffffffffffffffffffffffffffffffffffffffff1602179055506200009a81620000a260201b60201c565b50506200013d565b6000809054906101000a900473ffffffffffffffffffffffffffffffffffffffff1673ffffffffffffffffffffffffffffffffffffffff163373ffffffffffffffffffffffffffffffffffffffff1614620000f957fe5b80600260006101000a81548173ffffffffffffffffffffffffffffffffffffffff021916908373ffffffffffffffffffffffffffffffffffffffff16021790555050565b61400a806200014d6000396000f3fe608060405234801561001057600080fd5b506004361061014d5760003560e01c80638da5cb5b116100c3578063c19304961161007c578063c193049614610832578063ec5568891461091e578063ecb7035b14610968578063f2fde38b14610a09578063f3ca9c5f14610a4d578063f5afe84714610b435761014d565b80638da5cb5b1461055e578063965a79fb146105a857806397107d6d146106075780639d8f101f1461064b578063a98318d6146106ce578063bf22c457146107185761014d565b80633564e78c116101155780633564e78c146102255780633aaae5601461026f5780634afab815146102c057806358838def1461030457806360756690146103b657806372844e68146104ac5761014d565b806305044bac1461015257806306c30bbc1461017b5780631761de181461019957806323d75d8a146101b75780633411d94c146101d5575b600080fd5b61015a610b85565b60405180831515151581526020018281526020019250505060405180910390f35b610183610bfe565b6040518082815260200191505060405180910390f35b6101a1610dc0565b6040518082815260200191505060405180910390f35b6101bf610ddd565b6040518082815260200191505060405180910390f35b61020f600480360360408110156101eb57600080fd5b8101908080359060200190929190803561ffff169060200190929190505050610f9e565b6040518082815260200191505060405180910390f35b61022d610fb3565b604051808273ffffffffffffffffffffffffffffffffffffffff1673ffffffffffffffffffffffffffffffffffffffff16815260200191505060405180910390f35b61029b6004803603602081101561028557600080fd5b8101908080359060200190929190505050610fd9565b604051808381526020018261ffff1661ffff1681526020019250505060405180910390f35b610302600480360360208110156102d657600080fd5b81019080803573ffffffffffffffffffffffffffffffffffffffff169060200190929190505050610fef565b005b6103306004803603602081101561031a57600080fd5b8101908080359060200190929190505050611089565b604051808315151515815260200180602001828103825283818151815260200191508051906020019080838360005b8381101561037a57808201518184015260208101905061035f565b50505050905090810190601f1680156103a75780820380516001836020036101000a031916815260200191505b50935050505060405180910390f35b610496600480360360808110156103cc57600080fd5b81019080803590602001906401000000008111156103e957600080fd5b8201836020820111156103fb57600080fd5b8035906020019184600183028401116401000000008311171561041d57600080fd5b9091929391929390803590602001909291908035906020019064010000000081111561044857600080fd5b82018360208201111561045a57600080fd5b8035906020019184600183028401116401000000008311171561047c57600080fd5b9091929391929390803590602001909291905050506110a7565b6040518082815260200191505060405180910390f35b6104d8600480360360208110156104c257600080fd5b8101908080359060200190929190505050611244565b604051808315151515815260200180602001828103825283818151815260200191508051906020019080838360005b83811015610522578082015181840152602081019050610507565b50505050905090810190601f16801561054f5780820380516001836020036101000a031916815260200191505b50935050505060405180910390f35b6105666112b0565b604051808273ffffffffffffffffffffffffffffffffffffffff1673ffffffffffffffffffffffffffffffffffffffff16815260200191505060405180910390f35b6105b06112d5565b6040518080602001828103825283818151815260200191508051906020019060200280838360005b838110156105f35780820151818401526020810190506105d8565b505050509050019250505060405180910390f35b6106496004803603602081101561061d57600080fd5b81019080803573ffffffffffffffffffffffffffffffffffffffff16906020019092919050505061150c565b005b6106cc6004803603604081101561066157600080fd5b810190808035906020019064010000000081111561067e57600080fd5b82018360208201111561069057600080fd5b803590602001918460018302840111640100000000831117156106b257600080fd5b9091929391929390803590602001909291905050506115a6565b005b6106fa600480360360208110156106e457600080fd5b8101908080359060200190929190505050611659565b604051808261ffff1661ffff16815260200191505060405180910390f35b6107446004803603602081101561072e57600080fd5b8101908080359060200190929190505050611800565b604051808481526020018060200180602001838103835285818151815260200191508051906020019080838360005b8381101561078e578082015181840152602081019050610773565b50505050905090810190601f1680156107bb5780820380516001836020036101000a031916815260200191505b50838103825284818151815260200191508051906020019080838360005b838110156107f45780820151818401526020810190506107d9565b50505050905090810190601f1680156108215780820380516001836020036101000a031916815260200191505b509550505050505060405180910390f35b6109086004803603606081101561084857600080fd5b810190808035906020019064010000000081111561086557600080fd5b82018360208201111561087757600080fd5b8035906020019184600183028401116401000000008311171561089957600080fd5b909192939192939080359060200190929190803590602001906401000000008111156108c457600080fd5b8201836020820111156108d657600080fd5b803590602001918460018302840111640100000000831117156108f857600080fd5b9091929391929390505050611f68565b6040518082815260200191505060405180910390f35b610926612122565b604051808273ffffffffffffffffffffffffffffffffffffffff1673ffffffffffffffffffffffffffffffffffffffff16815260200191505060405180910390f35b6109f36004803603606081101561097e57600080fd5b810190808035906020019064010000000081111561099b57600080fd5b8201836020820111156109ad57600080fd5b803590602001918460018302840111640100000000831117156109cf57600080fd5b90919293919293908035906020019092919080359060200190929190505050612148565b6040518082815260200191505060405180910390f35b610a4b60048036036020811015610a1f57600080fd5b81019080803573ffffffffffffffffffffffffffffffffffffffff169060200190929190505050612358565b005b610b2d60048036036080811015610a6357600080fd5b8101908080359060200190640100000000811115610a8057600080fd5b820183602082011115610a9257600080fd5b80359060200191846001830284011164010000000083111715610ab457600080fd5b90919293919293908035906020019092919080359060200190640100000000811115610adf57600080fd5b820183602082011115610af157600080fd5b80359060200191846001830284011164010000000083111715610b1357600080fd5b909192939192939080359060200190929190505050612426565b6040518082815260200191505060405180910390f35b610b6f60048036036020811015610b5957600080fd5b81019080803590602001909291905050506125bc565b6040518082815260200191505060405180910390f35b600080610b90612779565b6000610b9a610bfe565b90506000811415610bb5576000808090509250925050610bfa565b6000610bc082610fd9565b50905042811115610bdc57600080809050935093505050610bfa565b610be582612903565b5050610bf082612c57565b6001829350935050505b9091565b600080600260009054906101000a900473ffffffffffffffffffffffffffffffffffffffff1673ffffffffffffffffffffffffffffffffffffffff16639a481f4e6040518060400160405280600781526020017f43726f6e4a6f620000000000000000000000000000000000000000000000000081525060405160200180807f43726f6e4a6f624c697374000000000000000000000000000000000000000000815250600b01905060405160208183030381529060405280519060200120600060016040518563ffffffff1660e01b8152600401808060200185815260200184815260200183151515158152602001828103825286818151815260200191508051906020019080838360005b83811015610d25578082015181840152602081019050610d0a565b50505050905090810190601f168015610d525780820380516001836020036101000a031916815260200191505b5095505050505050604080518083038186803b158015610d7157600080fd5b505afa158015610d85573d6000803e3d6000fd5b505050506040513d6040811015610d9b57600080fd5b8101908080519060200190929190805190602001909291905050509150508091505090565b600080610dd3610dce610ddd565b610fd9565b5090508091505090565b600080600260009054906101000a900473ffffffffffffffffffffffffffffffffffffffff1673ffffffffffffffffffffffffffffffffffffffff16639a481f4e6040518060400160405280600781526020017f43726f6e4a6f620000000000000000000000000000000000000000000000000081525060405160200180807f43726f6e4a6f624c697374000000000000000000000000000000000000000000815250600b019050604051602081830303815290604052805190602001206000806040518563ffffffff1660e01b8152600401808060200185815260200184815260200183151515158152602001828103825286818151815260200191508051906020019080838360005b83811015610f03578082015181840152602081019050610ee8565b50505050905090810190601f168015610f305780820380516001836020036101000a031916815260200191505b5095505050505050604080518083038186803b158015610f4f57600080fd5b505afa158015610f63573d6000803e3d6000fd5b505050506040513d6040811015610f7957600080fd5b8101908080519060200190929190805190602001909291905050509150508091505090565b60008161ffff16601084901b01905092915050565b600260009054906101000a900473ffffffffffffffffffffffffffffffffffffffff1681565b600080601083901c8361ffff1691509150915091565b6000809054906101000a900473ffffffffffffffffffffffffffffffffffffffff1673ffffffffffffffffffffffffffffffffffffffff163373ffffffffffffffffffffffffffffffffffffffff161461104557fe5b80600260006101000a81548173ffffffffffffffffffffffffffffffffffffffff021916908373ffffffffffffffffffffffffffffffffffffffff16021790555050565b60006060611095612779565b61109e83612903565b91509150915091565b60008060009054906101000a900473ffffffffffffffffffffffffffffffffffffffff1673ffffffffffffffffffffffffffffffffffffffff163373ffffffffffffffffffffffffffffffffffffffff16146110ff57fe5b60006111958689898080601f016020809104026020016040519081016040528093929190818152602001838380828437600081840152601f19601f8201169050808301925050505050505087878080601f016020809104026020016040519081016040528093929190818152602001838380828437600081840152601f19601f8201169050808301925050505050505086612dfb565b90507f80175d0e4e72dcfcce642194da235425f21c67a6bf78172659dd52b82c27431081898988886040518086815260200180602001806020018381038352878782818152602001925080828437600081840152601f19601f8201169050808301925050508381038252858582818152602001925080828437600081840152601f19601f82011690508083019250505097505050505050505060405180910390a1809150509695505050505050565b600060606000809054906101000a900473ffffffffffffffffffffffffffffffffffffffff1673ffffffffffffffffffffffffffffffffffffffff163373ffffffffffffffffffffffffffffffffffffffff161461129e57fe5b6112a783612903565b91509150915091565b6000809054906101000a900473ffffffffffffffffffffffffffffffffffffffff1681565b6060600260009054906101000a900473ffffffffffffffffffffffffffffffffffffffff1673ffffffffffffffffffffffffffffffffffffffff166368923e166040518060400160405280600781526020017f43726f6e4a6f620000000000000000000000000000000000000000000000000081525060405160200180807f43726f6e4a6f624c697374000000000000000000000000000000000000000000815250600b019050604051602081830303815290604052805190602001206040518363ffffffff1660e01b81526004018080602001838152602001828103825284818151815260200191508051906020019080838360005b838110156113e75780820151818401526020810190506113cc565b50505050905090810190601f1680156114145780820380516001836020036101000a031916815260200191505b50935050505060006040518083038186803b15801561143257600080fd5b505afa158015611446573d6000803e3d6000fd5b505050506040513d6000823e3d601f19601f82011682018060405250602081101561147057600080fd5b810190808051604051939291908464010000000082111561149057600080fd5b838201915060208201858111156114a657600080fd5b82518660208202830111640100000000821117156114c357600080fd5b8083526020830192505050908051906020019060200280838360005b838110156114fa5780820151818401526020810190506114df565b50505050905001604052505050905090565b6000809054906101000a900473ffffffffffffffffffffffffffffffffffffffff1673ffffffffffffffffffffffffffffffffffffffff163373ffffffffffffffffffffffffffffffffffffffff161461156257fe5b80600160006101000a81548173ffffffffffffffffffffffffffffffffffffffff021916908373ffffffffffffffffffffffffffffffffffffffff16021790555050565b82828080601f016020809104026020016040519081016040528093929190818152602001838380828437600081840152601f19601f820116905080830192505050505050506115f481613496565b60606115ff83611800565b509150506116528386868080601f016020809104026020016040519081016040528093929190818152602001838380828437600081840152601f19601f8201169050808301925050505050505083613731565b5050505050565b6000600260009054906101000a900473ffffffffffffffffffffffffffffffffffffffff1673ffffffffffffffffffffffffffffffffffffffff166308acb5566040518060400160405280600781526020017f43726f6e4a6f62000000000000000000000000000000000000000000000000008152508460405160200180828152602001807f6a6f624e6f6e6365000000000000000000000000000000000000000000000000815250600801915050604051602081830303815290604052805190602001206040518363ffffffff1660e01b81526004018080602001838152602001828103825284818151815260200191508051906020019080838360005b83811015611773578082015181840152602081019050611758565b50505050905090810190601f1680156117a05780820380516001836020036101000a031916815260200191505b50935050505060206040518083038186803b1580156117be57600080fd5b505afa1580156117d2573d6000803e3d6000fd5b505050506040513d60208110156117e857600080fd5b81019080805190602001909291905050509050919050565b6000606080600260009054906101000a900473ffffffffffffffffffffffffffffffffffffffff1673ffffffffffffffffffffffffffffffffffffffff166396edc0096040518060400160405280600781526020017f43726f6e4a6f620000000000000000000000000000000000000000000000000081525060405160200180807f43726f6e4a6f624c697374000000000000000000000000000000000000000000815250600b01905060405160208183030381529060405280519060200120876040518463ffffffff1660e01b81526004018080602001848152602001838152602001828103825285818151815260200191508051906020019080838360005b8381101561191c578082015181840152602081019050611901565b50505050905090810190601f1680156119495780820380516001836020036101000a031916815260200191505b5094505050505060206040518083038186803b15801561196857600080fd5b505afa15801561197c573d6000803e3d6000fd5b505050506040513d602081101561199257600080fd5b81019080805190602001909291905050506040518060400160405280600e81526020017f4a6f62206e6f742065786973747300000000000000000000000000000000000081525090611a7f576040517f08c379a00000000000000000000000000000000000000000000000000000000081526004018080602001828103825283818151815260200191508051906020019080838360005b83811015611a44578082015181840152602081019050611a29565b50505050905090810190601f168015611a715780820380516001836020036101000a031916815260200191505b509250505060405180910390fd5b50600080611a8c86610fd9565b80925081935050506060600260009054906101000a900473ffffffffffffffffffffffffffffffffffffffff1673ffffffffffffffffffffffffffffffffffffffff16631a84fbb86040518060400160405280600781526020017f43726f6e4a6f62000000000000000000000000000000000000000000000000008152508960405160200180828152602001807f63616c6c65650000000000000000000000000000000000000000000000000000815250600601915050604051602081830303815290604052805190602001206040518363ffffffff1660e01b81526004018080602001838152602001828103825284818151815260200191508051906020019080838360005b83811015611bae578082015181840152602081019050611b93565b50505050905090810190601f168015611bdb5780820380516001836020036101000a031916815260200191505b50935050505060006040518083038186803b158015611bf957600080fd5b505afa158015611c0d573d6000803e3d6000fd5b505050506040513d6000823e3d601f19601f820116820180604052506020811015611c3757600080fd5b8101908080516040519392919084640100000000821115611c5757600080fd5b83820191506020820185811115611c6d57600080fd5b8251866001820283011164010000000082111715611c8a57600080fd5b8083526020830192505050908051906020019080838360005b83811015611cbe578082015181840152602081019050611ca3565b50505050905090810190601f168015611ceb5780820380516001836020036101000a031916815260200191505b5060405250505090506060600260009054906101000a900473ffffffffffffffffffffffffffffffffffffffff1673ffffffffffffffffffffffffffffffffffffffff1663773cdbd76040518060400160405280600781526020017f43726f6e4a6f62000000000000000000000000000000000000000000000000008152508a60405160200180828152602001807f6461746100000000000000000000000000000000000000000000000000000000815250600401915050604051602081830303815290604052805190602001206040518363ffffffff1660e01b81526004018080602001838152602001828103825284818151815260200191508051906020019080838360005b83811015611e0e578082015181840152602081019050611df3565b50505050905090810190601f168015611e3b5780820380516001836020036101000a031916815260200191505b50935050505060006040518083038186803b158015611e5957600080fd5b505afa158015611e6d573d6000803e3d6000fd5b505050506040513d6000823e3d601f19601f820116820180604052506020811015611e9757600080fd5b8101908080516040519392919084640100000000821115611eb757600080fd5b83820191506020820185811115611ecd57600080fd5b8251866001820283011164010000000082111715611eea57600080fd5b8083526020830192505050908051906020019080838360005b83811015611f1e578082015181840152602081019050611f03565b50505050905090810190601f168015611f4b5780820380516001836020036101000a031916815260200191505b506040525050509050838282965096509650505050509193909250565b600085858080601f016020809104026020016040519081016040528093929190818152602001838380828437600081840152601f19601f82011690508083019250505050505050611fb881613496565b600085611fc3610dc0565b1115611fd757611fd2866125bc565b611fda565b60005b90506000612072878a8a8080601f016020809104026020016040519081016040528093929190818152602001838380828437600081840152601f19601f8201169050808301925050505050505088888080601f016020809104026020016040519081016040528093929190818152602001838380828437600081840152601f19601f8201169050808301925050505050505085612dfb565b90507f80175d0e4e72dcfcce642194da235425f21c67a6bf78172659dd52b82c274310818a8a89896040518086815260200180602001806020018381038352878782818152602001925080828437600081840152601f19601f8201169050808301925050508381038252858582818152602001925080828437600081840152601f19601f82011690508083019250505097505050505050505060405180910390a180935050505095945050505050565b600160009054906101000a900473ffffffffffffffffffffffffffffffffffffffff1681565b600084848080601f016020809104026020016040519081016040528093929190818152602001838380828437600081840152601f19601f8201169050808301925050505050505061219881613496565b6060806121a486611800565b92509250506121f88689898080601f016020809104026020016040519081016040528093929190818152602001838380828437600081840152601f19601f8201169050808301925050505050505084613731565b600085612203610dc0565b111561221757612212866125bc565b61221a565b60005b9050600061226e878b8b8080601f016020809104026020016040519081016040528093929190818152602001838380828437600081840152601f19601f820116905080830192505050505050508585612dfb565b90507f80175d0e4e72dcfcce642194da235425f21c67a6bf78172659dd52b82c274310818b8b866040518085815260200180602001806020018381038352868682818152602001925080828437600081840152601f19601f820116905080830192505050838103825284818151815260200191508051906020019080838360005b8381101561230a5780820151818401526020810190506122ef565b50505050905090810190601f1680156123375780820380516001836020036101000a031916815260200191505b50965050505050505060405180910390a18095505050505050949350505050565b6000809054906101000a900473ffffffffffffffffffffffffffffffffffffffff1673ffffffffffffffffffffffffffffffffffffffff163373ffffffffffffffffffffffffffffffffffffffff16146123ae57fe5b600073ffffffffffffffffffffffffffffffffffffffff168173ffffffffffffffffffffffffffffffffffffffff161461242357806000806101000a81548173ffffffffffffffffffffffffffffffffffffffff021916908373ffffffffffffffffffffffffffffffffffffffff1602179055505b50565b600086868080601f016020809104026020016040519081016040528093929190818152602001838380828437600081840152601f19601f8201169050808301925050505050505061247681613496565b600061250c878a8a8080601f016020809104026020016040519081016040528093929190818152602001838380828437600081840152601f19601f8201169050808301925050505050505088888080601f016020809104026020016040519081016040528093929190818152602001838380828437600081840152601f19601f8201169050808301925050505050505087612dfb565b90507f80175d0e4e72dcfcce642194da235425f21c67a6bf78172659dd52b82c274310818a8a89896040518086815260200180602001806020018381038352878782818152602001925080828437600081840152601f19601f8201169050808301925050508381038252858582818152602001925080828437600081840152601f19601f82011690508083019250505097505050505050505060405180910390a180925050509695505050505050565b6000806125d1836125cc85611659565b610f9e565b9050600260009054906101000a900473ffffffffffffffffffffffffffffffffffffffff1673ffffffffffffffffffffffffffffffffffffffff1663757ba9a26040518060400160405280600781526020017f43726f6e4a6f620000000000000000000000000000000000000000000000000081525060405160200180807f43726f6e4a6f624c697374000000000000000000000000000000000000000000815250600b01905060405160208183030381529060405280519060200120846040518463ffffffff1660e01b81526004018080602001848152602001838152602001828103825285818151815260200191508051906020019080838360005b838110156126ea5780820151818401526020810190506126cf565b50505050905090810190601f1680156127175780820380516001836020036101000a031916815260200191505b5094505050505060206040518083038186803b15801561273657600080fd5b505afa15801561274a573d6000803e3d6000fd5b505050506040513d602081101561276057600080fd5b8101908080519060200190929190505050915050919050565b600073ffffffffffffffffffffffffffffffffffffffff16600160009054906101000a900473ffffffffffffffffffffffffffffffffffffffff1673ffffffffffffffffffffffffffffffffffffffff16141561283e576040517f08c379a00000000000000000000000000000000000000000000000000000000081526004018080602001828103825260088152602001807f4e6f2050726f787900000000000000000000000000000000000000000000000081525060200191505060405180910390fd5b600160009054906101000a900473ffffffffffffffffffffffffffffffffffffffff1673ffffffffffffffffffffffffffffffffffffffff163373ffffffffffffffffffffffffffffffffffffffff1614612901576040517f08c379a00000000000000000000000000000000000000000000000000000000081526004018080602001828103825260128152602001807f4f6e6c79207468726f7567682050726f7879000000000000000000000000000081525060200191505060405180910390fd5b565b60006060600060608061291586611800565b9250925092504283111561292557fe5b6000600160009054906101000a900473ffffffffffffffffffffffffffffffffffffffff1673ffffffffffffffffffffffffffffffffffffffff166335817773846040518263ffffffff1660e01b81526004018080602001828103825283818151815260200191508051906020019080838360005b838110156129b557808201518184015260208101905061299a565b50505050905090810190601f1680156129e25780820380516001836020036101000a031916815260200191505b509250505060206040518083038186803b1580156129ff57600080fd5b505afa158015612a13573d6000803e3d6000fd5b505050506040513d6020811015612a2957600080fd5b81019080805190602001909291905050509050600060608273ffffffffffffffffffffffffffffffffffffffff16846040518082805190602001908083835b60208310612a8b5780518252602082019150602081019050602083039250612a68565b6001836020036101000a0380198251168184511680821785525050505050509050019150506000604051808303816000865af19150503d8060008114612aed576040519150601f19603f3d011682016040523d82523d6000602084013e612af2565b606091505b50915091508115612bda577f05c5b7ca7d756545f559189eae5ad454044a1193536724dcd1fa320c391b6edc898483604051808481526020018373ffffffffffffffffffffffffffffffffffffffff1673ffffffffffffffffffffffffffffffffffffffff16815260200180602001828103825283818151815260200191508051906020019080838360005b83811015612b99578082015181840152602081019050612b7e565b50505050905090810190601f168015612bc65780820380516001836020036101000a031916815260200191505b5094505050505060405180910390a1612c46565b7fd58f2a4e069708a89a2a10de98f25ed4b483a239586791231948ef38a39c109c8984604051808381526020018273ffffffffffffffffffffffffffffffffffffffff1673ffffffffffffffffffffffffffffffffffffffff1681526020019250505060405180910390a15b818197509750505050505050915091565b600260009054906101000a900473ffffffffffffffffffffffffffffffffffffffff1673ffffffffffffffffffffffffffffffffffffffff1663ad52192f6040518060400160405280600781526020017f43726f6e4a6f620000000000000000000000000000000000000000000000000081525060405160200180807f43726f6e4a6f624c697374000000000000000000000000000000000000000000815250600b01905060405160208183030381529060405280519060200120846040518463ffffffff1660e01b81526004018080602001848152602001838152602001828103825285818151815260200191508051906020019080838360005b83811015612d6e578082015181840152602081019050612d53565b50505050905090810190601f168015612d9b5780820380516001836020036101000a031916815260200191505b50945050505050602060405180830381600087803b158015612dbc57600080fd5b505af1158015612dd0573d6000803e3d6000fd5b505050506040513d6020811015612de657600080fd5b81019080805190602001909291905050505050565b600080612e1086612e0b88611659565b610f9e565b9050612e1c81846138e4565b600260009054906101000a900473ffffffffffffffffffffffffffffffffffffffff1673ffffffffffffffffffffffffffffffffffffffff166245584c6040518060400160405280600781526020017f43726f6e4a6f620000000000000000000000000000000000000000000000000081525060405160200180807f43726f6e4a6f624c697374000000000000000000000000000000000000000000815250600b01905060405160208183030381529060405280519060200120848760006040518663ffffffff1660e01b8152600401808060200186815260200185815260200184815260200183151515158152602001828103825287818151815260200191508051906020019080838360005b83811015612f45578082015181840152602081019050612f2a565b50505050905090810190601f168015612f725780820380516001836020036101000a031916815260200191505b509650505050505050602060405180830381600087803b158015612f9557600080fd5b505af1158015612fa9573d6000803e3d6000fd5b505050506040513d6020811015612fbf57600080fd5b81019080805190602001909291905050506040518060400160405280601281526020017f4a6f6220616c7265616479206578697374730000000000000000000000000000815250906130ac576040517f08c379a00000000000000000000000000000000000000000000000000000000081526004018080602001828103825283818151815260200191508051906020019080838360005b83811015613071578082015181840152602081019050613056565b50505050905090810190601f16801561309e5780820380516001836020036101000a031916815260200191505b509250505060405180910390fd5b506130b686613d13565b600260009054906101000a900473ffffffffffffffffffffffffffffffffffffffff1673ffffffffffffffffffffffffffffffffffffffff1663ae2660106040518060400160405280600781526020017f43726f6e4a6f62000000000000000000000000000000000000000000000000008152508360405160200180828152602001807f63616c6c6565000000000000000000000000000000000000000000000000000081525060060191505060405160208183030381529060405280519060200120886040518463ffffffff1660e01b8152600401808060200184815260200180602001838103835286818151815260200191508051906020019080838360005b838110156131d35780820151818401526020810190506131b8565b50505050905090810190601f1680156132005780820380516001836020036101000a031916815260200191505b50838103825284818151815260200191508051906020019080838360005b8381101561323957808201518184015260208101905061321e565b50505050905090810190601f1680156132665780820380516001836020036101000a031916815260200191505b5095505050505050600060405180830381600087803b15801561328857600080fd5b505af115801561329c573d6000803e3d6000fd5b50505050600260009054906101000a900473ffffffffffffffffffffffffffffffffffffffff1673ffffffffffffffffffffffffffffffffffffffff1663a7ad3db56040518060400160405280600781526020017f43726f6e4a6f62000000000000000000000000000000000000000000000000008152508360405160200180828152602001807f646174610000000000000000000000000000000000000000000000000000000081525060040191505060405160208183030381529060405280519060200120876040518463ffffffff1660e01b8152600401808060200184815260200180602001838103835286818151815260200191508051906020019080838360005b838110156133bd5780820151818401526020810190506133a2565b50505050905090810190601f1680156133ea5780820380516001836020036101000a031916815260200191505b50838103825284818151815260200191508051906020019080838360005b83811015613423578082015181840152602081019050613408565b50505050905090810190601f1680156134505780820380516001836020036101000a031916815260200191505b5095505050505050600060405180830381600087803b15801561347257600080fd5b505af1158015613486573d6000803e3d6000fd5b5050505080915050949350505050565b600073ffffffffffffffffffffffffffffffffffffffff16600160009054906101000a900473ffffffffffffffffffffffffffffffffffffffff1673ffffffffffffffffffffffffffffffffffffffff16141561355b576040517f08c379a00000000000000000000000000000000000000000000000000000000081526004018080602001828103825260088152602001807f4e6f2050726f787900000000000000000000000000000000000000000000000081525060200191505060405180910390fd5b6000600160009054906101000a900473ffffffffffffffffffffffffffffffffffffffff1673ffffffffffffffffffffffffffffffffffffffff166335817773836040518263ffffffff1660e01b81526004018080602001828103825283818151815260200191508051906020019080838360005b838110156135eb5780820151818401526020810190506135d0565b50505050905090810190601f1680156136185780820380516001836020036101000a031916815260200191505b509250505060206040518083038186803b15801561363557600080fd5b505afa158015613649573d6000803e3d6000fd5b505050506040513d602081101561365f57600080fd5b81019080805190602001909291905050509050600073ffffffffffffffffffffffffffffffffffffffff168173ffffffffffffffffffffffffffffffffffffffff1614156136a957fe5b8073ffffffffffffffffffffffffffffffffffffffff163373ffffffffffffffffffffffffffffffffffffffff161461372d576040517f08c379a000000000000000000000000000000000000000000000000000000000815260040180806020018281038252602d815260200180613fa9602d913960400191505060405180910390fd5b5050565b816040516020018082805190602001908083835b602083106137685780518252602082019150602081019050602083039250613745565b6001836020036101000a03801982511681845116808217855250505050505090500191505060405160208183030381529060405280519060200120816040516020018082805190602001908083835b602083106137da57805182526020820191506020810190506020830392506137b7565b6001836020036101000a038019825116818451168082178552505050505050905001915050604051602081830303815290604052805190602001201461386b576040517f08c379a0000000000000000000000000000000000000000000000000000000008152600401808060200182810382526023815260200180613f416023913960400191505060405180910390fd5b61387483612c57565b7f89f27608841804f17b8e014428ff9f1b09d1e415313170c8de783b0de71316ba8333604051808381526020018273ffffffffffffffffffffffffffffffffffffffff1673ffffffffffffffffffffffffffffffffffffffff1681526020019250505060405180910390a1505050565b60008114156139c25760006138f7610ddd565b9050808311604051806080016040528060528152602001613eb160529139906139bb576040517f08c379a00000000000000000000000000000000000000000000000000000000081526004018080602001828103825283818151815260200191508051906020019080838360005b83811015613980578082015181840152602081019050613965565b50505050905090810190601f1680156139ad5780820380516001836020036101000a031916815260200191505b509250505060405180910390fd5b5050613d0f565b8082106040518060600160405280603e8152602001613f03603e913990613a84576040517f08c379a00000000000000000000000000000000000000000000000000000000081526004018080602001828103825283818151815260200191508051906020019080838360005b83811015613a49578082015181840152602081019050613a2e565b50505050905090810190601f168015613a765780820380516001836020036101000a031916815260200191505b509250505060405180910390fd5b50600080600260009054906101000a900473ffffffffffffffffffffffffffffffffffffffff1673ffffffffffffffffffffffffffffffffffffffff16639a481f4e6040518060400160405280600781526020017f43726f6e4a6f620000000000000000000000000000000000000000000000000081525060405160200180807f43726f6e4a6f624c697374000000000000000000000000000000000000000000815250600b019050604051602081830303815290604052805190602001208660006040518563ffffffff1660e01b8152600401808060200185815260200184815260200183151515158152602001828103825286818151815260200191508051906020019080838360005b83811015613bab578082015181840152602081019050613b90565b50505050905090810190601f168015613bd85780820380516001836020036101000a031916815260200191505b5095505050505050604080518083038186803b158015613bf757600080fd5b505afa158015613c0b573d6000803e3d6000fd5b505050506040513d6040811015613c2157600080fd5b81019080805190602001909291908051906020019092919050505091509150811580613c4c57508084115b604051806080016040528060458152602001613f646045913990613d0b576040517f08c379a00000000000000000000000000000000000000000000000000000000081526004018080602001828103825283818151815260200191508051906020019080838360005b83811015613cd0578082015181840152602081019050613cb5565b50505050905090810190601f168015613cfd5780820380516001836020036101000a031916815260200191505b509250505060405180910390fd5b5050505b5050565b6000613d1e82611659565b9050600260009054906101000a900473ffffffffffffffffffffffffffffffffffffffff1673ffffffffffffffffffffffffffffffffffffffff16630214a37c6040518060400160405280600781526020017f43726f6e4a6f62000000000000000000000000000000000000000000000000008152508460405160200180828152602001807f6a6f624e6f6e6365000000000000000000000000000000000000000000000000815250600801915050604051602081830303815290604052805190602001206001850161ffff166040518463ffffffff1660e01b81526004018080602001848152602001838152602001828103825285818151815260200191508051906020019080838360005b83811015613e46578082015181840152602081019050613e2b565b50505050905090810190601f168015613e735780820380516001836020036101000a031916815260200191505b50945050505050600060405180830381600087803b158015613e9457600080fd5b505af1158015613ea8573d6000803e3d6000fd5b50505050505056fe4a6f622063616e206e6f742062652061646465642c2062656361757365207468657265206973206f74686572206a6f62732061667465722069742e20557365206e6578744a6f6220706172616d657465722e4a6f622063616e206e6f7420626520616464656420626563617573652069742073686f756c6420626520616674657220737065636966696564206a6f622e43616e206f6e6c792064656c65746520746865206a6f6220796f7520637265617465644a6f622063616e206e6f742062652061646465642062656361757365206974206973206e6f74206469726563746c79206265666f726520737065636966696564206a6f622e416363657373206973206f6e6c7920616c6c6f7765642066726f6d20737065636966696320636f6e7472616374a265627a7a72315820c132df6ca4aa80985f9ac6b26b7fa21a73db3e651942b801abb6d999503fd92364736f6c63430005110032",
  "source": "/**\n * @title CronJob\n *\n * @author @kittieFIGHT @ola @pash7ka\n *\n */\n\n// This program is free software: you can redistribute it and/or modify\n// it under the terms of the GNU General Public License as published by\n// the Free Software Foundation, either version 3 of the License, or\n// (at your option) any later version.\n\n// This program is distributed in the hope that it will be useful,\n// but WITHOUT ANY WARRANTY; without even the implied warranty of\n// MERCHANTABILITY or FITNESS FOR A PARTICULAR PURPOSE.  See the\n// GNU General Public License for more details.\n\n// You should have received a copy of the GNU General Public License\n// along with this program.  If not, see <http://www.gnu.org/licenses/>.\npragma solidity ^0.5.5;\n\nimport \"./modules/databases/CronJobDB.sol\";\n\n\n\ncontract CronJob is CronJobDB {\n    event JobAdded(uint256 jobId, string contractName, bytes data);\n    event JobDeleted(uint256 jobId, address contractAddress);\n    event JobExecuted(uint256 jobId, address contractAddress, bytes result);\n    event JobFailed(uint256 jobId, address contractAddress);\n\n    constructor(GenericDB _genericDB) CronJobDB(_genericDB) public {\n    }\n    /**\n     * @notice Use this function to add Job\n     * \n     * @param contractName Name of the contract to execute. See /modules/proxy/ContractNames.sol\n     * @param time Timestamp when (or after this time) Job should be executed\n     * @param data message to the contract. Use abi.encodeWithSignature() to generate data\n     * @param nextJob id of next job, if you are adding job not on the end of the list, 0 otherwise\n     * @return id of added Job\n     *\n     * @dev If you set nextJob to 0, time should be >= getLastScheduledJobTime()\n     * Use findNextJob() to find out nextJob\n     */\n    function addCronJob(\n        string calldata contractName,\n        uint256 time,\n        bytes calldata data,\n        uint256 nextJob\n    )\n        external onlyContract(contractName)\n        returns(uint256)\n    {\n        uint256 jobId = addJob(time, contractName, data, nextJob);\n        emit JobAdded(jobId, contractName, data);\n        return jobId;\n    }\n\n    /**\n     * @notice Use this function to add Job\n     * \n     * @param contractName Name of the contract to execute. See /modules/proxy/ContractNames.sol\n     * @param time Timestamp when (or after this time) Job should be executed\n     * @param data message to the contract. Use abi.encodeWithSignature() to generate data\n     * @return id of added Job\n     *\n     * @dev Use this variant if you don't know if your new job will be the last one or not or do not want to search for nextJob youself.\n     * WARNING: This may use too much gas!\n     */\n    function addCronJob(\n        string calldata contractName,\n        uint256 time,\n        bytes calldata data\n    )\n        external onlyContract(contractName)\n        returns(uint256)\n    {\n        uint256 nextJob = (getLastScheduledJobTime() <= time)?0:findNextJob(time);\n        uint256 jobId = addJob(time, contractName, data, nextJob);\n        emit JobAdded(jobId, contractName, data);\n        return jobId;\n    }\n    /**\n     * @notice Use this function to delete Job\n     * \n     * @param contractName Name of the contract which executes Job\n     * @param jobId Job to delete\n     */\n    function deleteCronJob(\n        string calldata contractName,\n        uint256 jobId\n    )\n        external onlyContract(contractName)\n    {\n        (/*uint256 time*/, string memory jobContractName, /*bytes memory data*/) = getJob(jobId);\n        _checkSenderAndDeleteJob(jobId, contractName, jobContractName);\n    }\n    /**\n     * @notice Use this function to reschedule Job\n     * \n     * @param contractName Name of the contract which executes Job\n     * @param jobId Original Job (which will be deleted)\n     * @param newTime Timestamp when (or after this time) Job should be executed\n     *\n     * @dev Original Job will be deleted, New Job created with same data\n     */\n    function rescheduleCronJob(\n        string calldata contractName,\n        uint256 jobId,\n        uint256 newTime\n    )\n        external onlyContract(contractName)\n        returns(uint256)\n    {\n        (/*uint256 time*/, string memory jobContractName, bytes memory data) = getJob(jobId);\n        _checkSenderAndDeleteJob(jobId, contractName, jobContractName);\n        uint256 nextJob = (getLastScheduledJobTime() <= newTime)?0:findNextJob(newTime);\n        uint256 newJobId = addJob(newTime, contractName, data, nextJob);\n        emit JobAdded(newJobId, contractName, data);\n        return newJobId;\n    }\n\n    /**\n     * This function same as addCronJob(), but can only be called by owner.\n     * It can be used to manualy re-schedule failed Job\n     */\n    function addCronJobManually(\n        string calldata contractName,\n        uint256 time,\n        bytes calldata data,\n        uint256 nextJob\n    )\n        external onlyOwner\n        returns(uint256)\n    {\n        uint256 jobId = addJob(time, contractName, data, nextJob);\n        emit JobAdded(jobId, contractName, data);\n        return jobId;\n    }\n\n    /**\n     * @notice Executes next available job\n     * returns (true, executed_job_id) if there was a job to execute,  (false, 0) if no job is scheduled for now\n     */\n    function executeNextJobIfAvailable() external onlyProxy returns(bool, uint256) {\n        uint256 nextJob = getFirstJobId();\n        if(nextJob == 0) return (false, 0);\n        (uint256 time, /*uint16 nonce*/) = parseJobID(nextJob);\n        if(time > now) return (false, 0);\n        /*(bool success, bytes memory result) = */ _executeJob(nextJob);\n        removeJob(nextJob);\n        return (true, nextJob);\n    }\n\n\n    function executeJobManually(uint256 jobId) external onlyOwner returns(bool, bytes memory){\n        return _executeJob(jobId);\n    }\n    function executeJob(uint256 jobId) external onlyProxy returns(bool, bytes memory){\n        return _executeJob(jobId);\n    }\n    function _executeJob(uint256 jobId) internal returns(bool, bytes memory){\n        (uint256 time, string memory contractName, bytes memory data) = getJob(jobId);\n        assert(time <= now);\n        address contractAddress = proxy.getContract(contractName);\n        (bool success, bytes memory returnData) = contractAddress.call(data);\n        if(success){\n            emit JobExecuted(jobId, contractAddress, returnData);\n        }else{\n            emit JobFailed(jobId, contractAddress);\n            //If we stop on failed job, that will, probably, stop the whole cron system\n        }\n        return (success, returnData);\n    }\n\n    function _checkSenderAndDeleteJob(uint256 jobId, string memory senderContractName, string memory jobContractName) private {\n        require(keccak256(abi.encodePacked(jobContractName)) == keccak256(abi.encodePacked(senderContractName)), 'Can only delete the job you created');\n        removeJob(jobId);\n        emit JobDeleted(jobId, msg.sender); //msg.sender should be the address of contractName, this is ensured by onlyContract() modifier on public function which calls this\n    }\n\n}\n",
  "sourcePath": "/Users/ziweizhang/Desktop/kittieFight-uniswap/contracts/contracts/CronJob.sol",
  "compiler": {
    "name": "solc",
    "version": "0.5.17+commit.d19bba13.Emscripten.clang"
  },
  "schemaVersion": "3.0.23",
  "updatedAt": "2020-06-09T20:36:22.001Z",
  "networkType": "ethereum",
  "devdoc": {
    "methods": {
      "addCronJob(string,uint256,bytes)": {
        "details": "Use this variant if you don't know if your new job will be the last one or not or do not want to search for nextJob youself. WARNING: This may use too much gas!",
        "params": {
          "contractName": "Name of the contract to execute. See /modules/proxy/ContractNames.sol",
          "data": "message to the contract. Use abi.encodeWithSignature() to generate data",
          "time": "Timestamp when (or after this time) Job should be executed"
        },
        "return": "id of added Job"
      },
      "addCronJob(string,uint256,bytes,uint256)": {
        "details": "If you set nextJob to 0, time should be >= getLastScheduledJobTime() Use findNextJob() to find out nextJob",
        "params": {
          "contractName": "Name of the contract to execute. See /modules/proxy/ContractNames.sol",
          "data": "message to the contract. Use abi.encodeWithSignature() to generate data",
          "nextJob": "id of next job, if you are adding job not on the end of the list, 0 otherwise",
          "time": "Timestamp when (or after this time) Job should be executed"
        },
        "return": "id of added Job"
      },
      "deleteCronJob(string,uint256)": {
        "params": {
          "contractName": "Name of the contract which executes Job",
          "jobId": "Job to delete"
        }
      },
      "generateJobID(uint256,uint16)": {
        "params": {
          "nonce": "Index of job scheduled to specified timestamp",
          "time": "When job has to be executed"
        }
      },
      "getJob(uint256)": {
        "params": {
          "jobId": "Job to view"
        },
        "return": "(time, callee, data) Time of the job, target contract, message to the contract"
      },
      "rescheduleCronJob(string,uint256,uint256)": {
        "details": "Original Job will be deleted, New Job created with same data",
        "params": {
          "contractName": "Name of the contract which executes Job",
          "jobId": "Original Job (which will be deleted)",
          "newTime": "Timestamp when (or after this time) Job should be executed"
        }
      }
    }
  },
  "userdoc": {
    "methods": {
      "addCronJob(string,uint256,bytes)": {
        "notice": "Use this function to add Job "
      },
      "addCronJob(string,uint256,bytes,uint256)": {
        "notice": "Use this function to add Job "
      },
      "addCronJobManually(string,uint256,bytes,uint256)": {
        "notice": "This function same as addCronJob(), but can only be called by owner. It can be used to manualy re-schedule failed Job"
      },
      "deleteCronJob(string,uint256)": {
        "notice": "Use this function to delete Job "
      },
      "executeNextJobIfAvailable()": {
        "notice": "Executes next available job returns (true, executed_job_id) if there was a job to execute,  (false, 0) if no job is scheduled for now"
      },
      "findNextJob(uint256)": {
        "notice": "Use this to find job next to specific time Should be used before calling addJob() if inserting job in the middle of the queue"
      },
      "generateJobID(uint256,uint16)": {
        "notice": "Generates id of the Job"
      },
      "getJob(uint256)": {
        "notice": "Returns a job, with specified id"
      },
      "rescheduleCronJob(string,uint256,uint256)": {
        "notice": "Use this function to reschedule Job "
      },
      "setProxy(address)": {
        "notice": "Set/update address of Proxy contract"
      }
    }
  }
}