{
  "contractName": "CronJobProxy",
  "abi": [
    {
      "anonymous": false,
      "inputs": [],
      "name": "CronJobExecutionFailed",
      "type": "event"
    },
    {
      "constant": false,
      "inputs": [
        {
          "internalType": "string",
          "name": "name",
          "type": "string"
        },
        {
          "internalType": "address",
          "name": "contractAddress",
          "type": "address"
        }
      ],
      "name": "addContract",
      "outputs": [],
      "payable": false,
      "stateMutability": "nonpayable",
      "type": "function"
    },
    {
      "constant": true,
      "inputs": [],
      "name": "addressOfBetting",
      "outputs": [
        {
          "internalType": "address",
          "name": "",
          "type": "address"
        }
      ],
      "payable": false,
      "stateMutability": "view",
      "type": "function"
    },
    {
      "constant": true,
      "inputs": [],
      "name": "addressOfCronJob",
      "outputs": [
        {
          "internalType": "address",
          "name": "",
          "type": "address"
        }
      ],
      "payable": false,
      "stateMutability": "view",
      "type": "function"
    },
    {
      "constant": true,
      "inputs": [],
      "name": "addressOfDistribution",
      "outputs": [
        {
          "internalType": "address",
          "name": "",
          "type": "address"
        }
      ],
      "payable": false,
      "stateMutability": "view",
      "type": "function"
    },
    {
      "constant": true,
      "inputs": [],
      "name": "addressOfEarningsTracker",
      "outputs": [
        {
          "internalType": "address",
          "name": "",
          "type": "address"
        }
      ],
      "payable": false,
      "stateMutability": "view",
      "type": "function"
    },
    {
      "constant": true,
      "inputs": [],
      "name": "addressOfEndowmentDB",
      "outputs": [
        {
          "internalType": "address",
          "name": "",
          "type": "address"
        }
      ],
      "payable": false,
      "stateMutability": "view",
      "type": "function"
    },
    {
      "constant": true,
      "inputs": [],
      "name": "addressOfEndowmentFund",
      "outputs": [
        {
          "internalType": "address",
          "name": "",
          "type": "address"
        }
      ],
      "payable": false,
      "stateMutability": "view",
      "type": "function"
    },
    {
      "constant": true,
      "inputs": [],
      "name": "addressOfForfeiter",
      "outputs": [
        {
          "internalType": "address",
          "name": "",
          "type": "address"
        }
      ],
      "payable": false,
      "stateMutability": "view",
      "type": "function"
    },
    {
      "constant": true,
      "inputs": [],
      "name": "addressOfGMGetterDB",
      "outputs": [
        {
          "internalType": "address",
          "name": "",
          "type": "address"
        }
      ],
      "payable": false,
      "stateMutability": "view",
      "type": "function"
    },
    {
      "constant": true,
      "inputs": [],
      "name": "addressOfGMSetterDB",
      "outputs": [
        {
          "internalType": "address",
          "name": "",
          "type": "address"
        }
      ],
      "payable": false,
      "stateMutability": "view",
      "type": "function"
    },
    {
      "constant": true,
      "inputs": [],
      "name": "addressOfGameManager",
      "outputs": [
        {
          "internalType": "address",
          "name": "",
          "type": "address"
        }
      ],
      "payable": false,
      "stateMutability": "view",
      "type": "function"
    },
    {
      "constant": true,
      "inputs": [],
      "name": "addressOfGameVarAndFee",
      "outputs": [
        {
          "internalType": "address",
          "name": "",
          "type": "address"
        }
      ],
      "payable": false,
      "stateMutability": "view",
      "type": "function"
    },
    {
      "constant": true,
      "inputs": [],
      "name": "addressOfHitsResolve",
      "outputs": [
        {
          "internalType": "address",
          "name": "",
          "type": "address"
        }
      ],
      "payable": false,
      "stateMutability": "view",
      "type": "function"
    },
    {
      "constant": true,
      "inputs": [],
      "name": "addressOfHoneypotAllocationAlgo",
      "outputs": [
        {
          "internalType": "address",
          "name": "",
          "type": "address"
        }
      ],
      "payable": false,
      "stateMutability": "view",
      "type": "function"
    },
    {
      "constant": true,
      "inputs": [],
      "name": "addressOfKittieHell",
      "outputs": [
        {
          "internalType": "address",
          "name": "",
          "type": "address"
        }
      ],
      "payable": false,
      "stateMutability": "view",
      "type": "function"
    },
    {
      "constant": true,
      "inputs": [],
      "name": "addressOfKittieHellDB",
      "outputs": [
        {
          "internalType": "address",
          "name": "",
          "type": "address"
        }
      ],
      "payable": false,
      "stateMutability": "view",
      "type": "function"
    },
    {
      "constant": true,
      "inputs": [],
      "name": "addressOfProfileDB",
      "outputs": [
        {
          "internalType": "address",
          "name": "",
          "type": "address"
        }
      ],
      "payable": false,
      "stateMutability": "view",
      "type": "function"
    },
    {
      "constant": true,
      "inputs": [],
      "name": "addressOfRarityCalculator",
      "outputs": [
        {
          "internalType": "address",
          "name": "",
          "type": "address"
        }
      ],
      "payable": false,
      "stateMutability": "view",
      "type": "function"
    },
    {
      "constant": true,
      "inputs": [],
      "name": "addressOfRegister",
      "outputs": [
        {
          "internalType": "address",
          "name": "",
          "type": "address"
        }
      ],
      "payable": false,
      "stateMutability": "view",
      "type": "function"
    },
    {
      "constant": true,
      "inputs": [],
      "name": "addressOfRoleDB",
      "outputs": [
        {
          "internalType": "address",
          "name": "",
          "type": "address"
        }
      ],
      "payable": false,
      "stateMutability": "view",
      "type": "function"
    },
    {
      "constant": true,
      "inputs": [],
      "name": "addressOfScheduler",
      "outputs": [
        {
          "internalType": "address",
          "name": "",
          "type": "address"
        }
      ],
      "payable": false,
      "stateMutability": "view",
      "type": "function"
    },
    {
      "constant": true,
      "inputs": [],
      "name": "addressOfTimeContract",
      "outputs": [
        {
          "internalType": "address",
          "name": "",
          "type": "address"
        }
      ],
      "payable": false,
      "stateMutability": "view",
      "type": "function"
    },
    {
      "constant": true,
      "inputs": [],
      "name": "addressOfTimeFrame",
      "outputs": [
        {
          "internalType": "address",
          "name": "",
          "type": "address"
        }
      ],
      "payable": false,
      "stateMutability": "view",
      "type": "function"
    },
    {
      "constant": true,
      "inputs": [],
      "name": "addressOfWithdrawaPool",
      "outputs": [
        {
          "internalType": "address",
          "name": "",
          "type": "address"
        }
      ],
      "payable": false,
      "stateMutability": "view",
      "type": "function"
    },
    {
      "constant": true,
      "inputs": [],
      "name": "addressOfWithdrawalPool",
      "outputs": [
        {
          "internalType": "address",
          "name": "",
          "type": "address"
        }
      ],
      "payable": false,
      "stateMutability": "view",
      "type": "function"
    },
    {
      "constant": true,
      "inputs": [
        {
          "internalType": "string",
          "name": "name",
          "type": "string"
        }
      ],
      "name": "getContract",
      "outputs": [
        {
          "internalType": "address",
          "name": "",
          "type": "address"
        }
      ],
      "payable": false,
      "stateMutability": "view",
      "type": "function"
    },
    {
      "constant": true,
      "inputs": [],
      "name": "maxJobsForOneRun",
      "outputs": [
        {
          "internalType": "uint256",
          "name": "",
          "type": "uint256"
        }
      ],
      "payable": false,
      "stateMutability": "view",
      "type": "function"
    },
    {
      "constant": true,
      "inputs": [],
      "name": "owner",
      "outputs": [
        {
          "internalType": "address payable",
          "name": "",
          "type": "address"
        }
      ],
      "payable": false,
      "stateMutability": "view",
      "type": "function"
    },
    {
      "constant": false,
      "inputs": [
        {
          "internalType": "string",
          "name": "name",
          "type": "string"
        }
      ],
      "name": "removeContract",
      "outputs": [],
      "payable": false,
      "stateMutability": "nonpayable",
      "type": "function"
    },
    {
      "constant": false,
      "inputs": [
        {
          "internalType": "address payable",
          "name": "newOwner",
          "type": "address"
        }
      ],
      "name": "transferOwnership",
      "outputs": [],
      "payable": false,
      "stateMutability": "nonpayable",
      "type": "function"
    },
    {
      "constant": false,
      "inputs": [
        {
          "internalType": "string",
          "name": "name",
          "type": "string"
        },
        {
          "internalType": "address",
          "name": "contractAddress",
          "type": "address"
        }
      ],
      "name": "updateContract",
      "outputs": [],
      "payable": false,
      "stateMutability": "nonpayable",
      "type": "function"
    },
    {
      "constant": false,
      "inputs": [
        {
          "internalType": "uint256",
          "name": "_maxJobsForOneRun",
          "type": "uint256"
        }
      ],
      "name": "setMaxJobsForOneRun",
      "outputs": [],
      "payable": false,
      "stateMutability": "nonpayable",
      "type": "function"
    },
    {
      "constant": false,
      "inputs": [],
      "name": "executeScheduledJobs",
      "outputs": [],
      "payable": false,
      "stateMutability": "nonpayable",
      "type": "function"
    },
    {
      "constant": false,
      "inputs": [
        {
          "internalType": "uint256",
          "name": "jobId",
          "type": "uint256"
        }
      ],
      "name": "executeJob",
      "outputs": [
        {
          "internalType": "bytes",
          "name": "",
          "type": "bytes"
        }
      ],
      "payable": false,
      "stateMutability": "nonpayable",
      "type": "function"
    }
  ],
  "bytecode": "0x608060405260028055336000806101000a81548173ffffffffffffffffffffffffffffffffffffffff021916908373ffffffffffffffffffffffffffffffffffffffff160217905550612a4a806100576000396000f3fe608060405234801561001057600080fd5b50600436106102065760003560e01c80638ec82c8a1161011a578063beb9eb0b116100ad578063ee71227f1161007c578063ee71227f14610c86578063eed9c25b14610cd0578063f2fde38b14610d1a578063f6df25d514610d5e578063fcc47c4f14610da857610206565b8063beb9eb0b14610acd578063bf5b601614610b17578063c5ed75bb14610bf2578063d3b12c1514610c3c57610206565b806398f16031116100e957806398f16031146109a55780639a087b97146109ef578063a0d1170b14610a39578063b86ee09714610a8357610206565b80638ec82c8a1461082857806393812d2014610872578063968f1412146108bc57806397623b58146108ea57610206565b8063492e46921161019d578063658d74761161016c578063658d747614610651578063697a60b31461066f57806384d676171461074a5780638da5cb5b146107945780638e771e79146107de57610206565b8063492e4692146104cc5780634e7f067b1461051657806358838def146105605780635c7571251461060757610206565b806335817773116101d957806335817773146102f35780633bdc5a5d146103ee57806342febb6914610438578063462d46f61461048257610206565b806320331d0f1461020b57806320ba591014610255578063318504821461029f578063348c6019146102a9575b600080fd5b610213610df2565b604051808273ffffffffffffffffffffffffffffffffffffffff1673ffffffffffffffffffffffffffffffffffffffff16815260200191505060405180910390f35b61025d610e37565b604051808273ffffffffffffffffffffffffffffffffffffffff1673ffffffffffffffffffffffffffffffffffffffff16815260200191505060405180910390f35b6102a7610e7c565b005b6102b1611241565b604051808273ffffffffffffffffffffffffffffffffffffffff1673ffffffffffffffffffffffffffffffffffffffff16815260200191505060405180910390f35b6103ac6004803603602081101561030957600080fd5b810190808035906020019064010000000081111561032657600080fd5b82018360208201111561033857600080fd5b8035906020019184600183028401116401000000008311171561035a57600080fd5b91908080601f016020809104026020016040519081016040528093929190818152602001838380828437600081840152601f19601f820116905080830192505050505050509192919290505050611286565b604051808273ffffffffffffffffffffffffffffffffffffffff1673ffffffffffffffffffffffffffffffffffffffff16815260200191505060405180910390f35b6103f6611566565b604051808273ffffffffffffffffffffffffffffffffffffffff1673ffffffffffffffffffffffffffffffffffffffff16815260200191505060405180910390f35b6104406115ab565b604051808273ffffffffffffffffffffffffffffffffffffffff1673ffffffffffffffffffffffffffffffffffffffff16815260200191505060405180910390f35b61048a6115f0565b604051808273ffffffffffffffffffffffffffffffffffffffff1673ffffffffffffffffffffffffffffffffffffffff16815260200191505060405180910390f35b6104d4611635565b604051808273ffffffffffffffffffffffffffffffffffffffff1673ffffffffffffffffffffffffffffffffffffffff16815260200191505060405180910390f35b61051e61167a565b604051808273ffffffffffffffffffffffffffffffffffffffff1673ffffffffffffffffffffffffffffffffffffffff16815260200191505060405180910390f35b61058c6004803603602081101561057657600080fd5b81019080803590602001909291905050506116bf565b6040518080602001828103825283818151815260200191508051906020019080838360005b838110156105cc5780820151818401526020810190506105b1565b50505050905090810190601f1680156105f95780820380516001836020036101000a031916815260200191505b509250505060405180910390f35b61060f611c82565b604051808273ffffffffffffffffffffffffffffffffffffffff1673ffffffffffffffffffffffffffffffffffffffff16815260200191505060405180910390f35b610659611cc7565b6040518082815260200191505060405180910390f35b6107486004803603604081101561068557600080fd5b81019080803590602001906401000000008111156106a257600080fd5b8201836020820111156106b457600080fd5b803590602001918460018302840111640100000000831117156106d657600080fd5b91908080601f016020809104026020016040519081016040528093929190818152602001838380828437600081840152601f19601f820116905080830192505050505050509192919290803573ffffffffffffffffffffffffffffffffffffffff169060200190929190505050611ccd565b005b610752611e92565b604051808273ffffffffffffffffffffffffffffffffffffffff1673ffffffffffffffffffffffffffffffffffffffff16815260200191505060405180910390f35b61079c611ed7565b604051808273ffffffffffffffffffffffffffffffffffffffff1673ffffffffffffffffffffffffffffffffffffffff16815260200191505060405180910390f35b6107e6611efc565b604051808273ffffffffffffffffffffffffffffffffffffffff1673ffffffffffffffffffffffffffffffffffffffff16815260200191505060405180910390f35b610830611f41565b604051808273ffffffffffffffffffffffffffffffffffffffff1673ffffffffffffffffffffffffffffffffffffffff16815260200191505060405180910390f35b61087a611f86565b604051808273ffffffffffffffffffffffffffffffffffffffff1673ffffffffffffffffffffffffffffffffffffffff16815260200191505060405180910390f35b6108e8600480360360208110156108d257600080fd5b8101908080359060200190929190505050611fcb565b005b6109a36004803603602081101561090057600080fd5b810190808035906020019064010000000081111561091d57600080fd5b82018360208201111561092f57600080fd5b8035906020019184600183028401116401000000008311171561095157600080fd5b91908080601f016020809104026020016040519081016040528093929190818152602001838380828437600081840152601f19601f820116905080830192505050505050509192919290505050612038565b005b6109ad6121fd565b604051808273ffffffffffffffffffffffffffffffffffffffff1673ffffffffffffffffffffffffffffffffffffffff16815260200191505060405180910390f35b6109f7612242565b604051808273ffffffffffffffffffffffffffffffffffffffff1673ffffffffffffffffffffffffffffffffffffffff16815260200191505060405180910390f35b610a41612287565b604051808273ffffffffffffffffffffffffffffffffffffffff1673ffffffffffffffffffffffffffffffffffffffff16815260200191505060405180910390f35b610a8b6122cc565b604051808273ffffffffffffffffffffffffffffffffffffffff1673ffffffffffffffffffffffffffffffffffffffff16815260200191505060405180910390f35b610ad5612311565b604051808273ffffffffffffffffffffffffffffffffffffffff1673ffffffffffffffffffffffffffffffffffffffff16815260200191505060405180910390f35b610bf060048036036040811015610b2d57600080fd5b8101908080359060200190640100000000811115610b4a57600080fd5b820183602082011115610b5c57600080fd5b80359060200191846001830284011164010000000083111715610b7e57600080fd5b91908080601f016020809104026020016040519081016040528093929190818152602001838380828437600081840152601f19601f820116905080830192505050505050509192919290803573ffffffffffffffffffffffffffffffffffffffff169060200190929190505050612356565b005b610bfa612566565b604051808273ffffffffffffffffffffffffffffffffffffffff1673ffffffffffffffffffffffffffffffffffffffff16815260200191505060405180910390f35b610c446125ab565b604051808273ffffffffffffffffffffffffffffffffffffffff1673ffffffffffffffffffffffffffffffffffffffff16815260200191505060405180910390f35b610c8e6125f0565b604051808273ffffffffffffffffffffffffffffffffffffffff1673ffffffffffffffffffffffffffffffffffffffff16815260200191505060405180910390f35b610cd8612635565b604051808273ffffffffffffffffffffffffffffffffffffffff1673ffffffffffffffffffffffffffffffffffffffff16815260200191505060405180910390f35b610d5c60048036036020811015610d3057600080fd5b81019080803573ffffffffffffffffffffffffffffffffffffffff16906020019092919050505061267a565b005b610d66612748565b604051808273ffffffffffffffffffffffffffffffffffffffff1673ffffffffffffffffffffffffffffffffffffffff16815260200191505060405180910390f35b610db061278d565b604051808273ffffffffffffffffffffffffffffffffffffffff1673ffffffffffffffffffffffffffffffffffffffff16815260200191505060405180910390f35b6000610e326040518060400160405280600981526020017f54696d654672616d650000000000000000000000000000000000000000000000815250611286565b905090565b6000610e776040518060400160405280600781526020017f42657474696e6700000000000000000000000000000000000000000000000000815250611286565b905090565b6000610ebc6040518060400160405280600981526020017f47656e6572696344420000000000000000000000000000000000000000000000815250611286565b9050600060608273ffffffffffffffffffffffffffffffffffffffff166040518060400160405280600681526020017f526f6c65444200000000000000000000000000000000000000000000000000008152503360405160200180807f61646d696e0000000000000000000000000000000000000000000000000000008152506005018273ffffffffffffffffffffffffffffffffffffffff1673ffffffffffffffffffffffffffffffffffffffff1660601b8152601401915050604051602081830303815290604052805190602001206040516024018080602001838152602001828103825284818151815260200191508051906020019080838360005b83811015610fd6578082015181840152602081019050610fbb565b50505050905090810190601f1680156110035780820380516001836020036101000a031916815260200191505b5093505050506040516020818303038152906040527f1c58c8bb000000000000000000000000000000000000000000000000000000007bffffffffffffffffffffffffffffffffffffffffffffffffffffffff19166020820180517bffffffffffffffffffffffffffffffffffffffffffffffffffffffff83818316178352505050506040518082805190602001908083835b602083106110b95780518252602082019150602081019050602083039250611096565b6001836020036101000a038019825116818451168082178552505050505050905001915050600060405180830381855afa9150503d8060008114611119576040519150601f19603f3d011682016040523d82523d6000602084013e61111e565b606091505b509150915081611196576040517f08c379a00000000000000000000000000000000000000000000000000000000081526004018080602001828103825260138152602001807f4661696c656420746f206c6f616420726f6c650000000000000000000000000081525060200191505060405180910390fd5b60008180602001905160208110156111ad57600080fd5b8101908080519060200190929190505050905080611233576040517f08c379a00000000000000000000000000000000000000000000000000000000081526004018080602001828103825260198152602001807f53656e6465722068617320746f20626520616e2061646d696e0000000000000081525060200191505060405180910390fd5b61123b6127d2565b50505050565b60006112816040518060400160405280601681526020017f486f6e6579706f74416c6c6f636174696f6e416c676f00000000000000000000815250611286565b905090565b60008073ffffffffffffffffffffffffffffffffffffffff166001836040518082805190602001908083835b602083106112d557805182526020820191506020810190506020830392506112b2565b6001836020036101000a038019825116818451168082178552505050505050905001915050908152602001604051809103902060009054906101000a900473ffffffffffffffffffffffffffffffffffffffff1673ffffffffffffffffffffffffffffffffffffffff1614156114d55760608260405160200180807f436f6e7472616374206e6f7420726567697374657265643a200000000000000081525060190182805190602001908083835b602083106113a65780518252602082019150602081019050602083039250611383565b6001836020036101000a0380198251168184511680821785525050505050509050019150506040516020818303038152906040526040516024018080602001828103825283818151815260200191508051906020019080838360005b8381101561141d578082015181840152602081019050611402565b50505050905090810190601f16801561144a5780820380516001836020036101000a031916815260200191505b50925050506040516020818303038152906040527f08c379a0000000000000000000000000000000000000000000000000000000007bffffffffffffffffffffffffffffffffffffffffffffffffffffffff19166020820180517bffffffffffffffffffffffffffffffffffffffffffffffffffffffff838183161783525050505090508060208201fd5b6001826040518082805190602001908083835b6020831061150b57805182526020820191506020810190506020830392506114e8565b6001836020036101000a038019825116818451168082178552505050505050905001915050908152602001604051809103902060009054906101000a900473ffffffffffffffffffffffffffffffffffffffff169050919050565b60006115a66040518060400160405280600f81526020017f4561726e696e6773547261636b65720000000000000000000000000000000000815250611286565b905090565b60006115eb6040518060400160405280600a81526020017f4b697474696548656c6c00000000000000000000000000000000000000000000815250611286565b905090565b60006116306040518060400160405280600d81526020017f47616d65566172416e6446656500000000000000000000000000000000000000815250611286565b905090565b60006116756040518060400160405280601081526020017f52617269747943616c63756c61746f7200000000000000000000000000000000815250611286565b905090565b60006116ba6040518060400160405280600c81526020017f54696d65436f6e74726163740000000000000000000000000000000000000000815250611286565b905090565b606060006117016040518060400160405280600981526020017f47656e6572696344420000000000000000000000000000000000000000000000815250611286565b9050600060608273ffffffffffffffffffffffffffffffffffffffff166040518060400160405280600681526020017f526f6c65444200000000000000000000000000000000000000000000000000008152503360405160200180807f61646d696e0000000000000000000000000000000000000000000000000000008152506005018273ffffffffffffffffffffffffffffffffffffffff1673ffffffffffffffffffffffffffffffffffffffff1660601b8152601401915050604051602081830303815290604052805190602001206040516024018080602001838152602001828103825284818151815260200191508051906020019080838360005b8381101561181b578082015181840152602081019050611800565b50505050905090810190601f1680156118485780820380516001836020036101000a031916815260200191505b5093505050506040516020818303038152906040527f1c58c8bb000000000000000000000000000000000000000000000000000000007bffffffffffffffffffffffffffffffffffffffffffffffffffffffff19166020820180517bffffffffffffffffffffffffffffffffffffffffffffffffffffffff83818316178352505050506040518082805190602001908083835b602083106118fe57805182526020820191506020810190506020830392506118db565b6001836020036101000a038019825116818451168082178552505050505050905001915050600060405180830381855afa9150503d806000811461195e576040519150601f19603f3d011682016040523d82523d6000602084013e611963565b606091505b5091509150816119db576040517f08c379a00000000000000000000000000000000000000000000000000000000081526004018080602001828103825260138152602001807f4661696c656420746f206c6f616420726f6c650000000000000000000000000081525060200191505060405180910390fd5b60008180602001905160208110156119f257600080fd5b8101908080519060200190929190505050905080611a78576040517f08c379a00000000000000000000000000000000000000000000000000000000081526004018080602001828103825260198152602001807f53656e6465722068617320746f20626520616e2061646d696e0000000000000081525060200191505060405180910390fd5b6000611ab86040518060400160405280600781526020017f43726f6e4a6f6200000000000000000000000000000000000000000000000000815250611286565b90508073ffffffffffffffffffffffffffffffffffffffff1687604051602401808281526020019150506040516020818303038152906040527f58838def000000000000000000000000000000000000000000000000000000007bffffffffffffffffffffffffffffffffffffffffffffffffffffffff19166020820180517bffffffffffffffffffffffffffffffffffffffffffffffffffffffff83818316178352505050506040518082805190602001908083835b60208310611b925780518252602082019150602081019050602083039250611b6f565b6001836020036101000a0380198251168184511680821785525050505050509050019150506000604051808303816000865af19150503d8060008114611bf4576040519150601f19603f3d011682016040523d82523d6000602084013e611bf9565b606091505b50809450819550505083611c75576040517f08c379a00000000000000000000000000000000000000000000000000000000081526004018080602001828103825260138152602001807f457865637574652063616c6c206661696c65640000000000000000000000000081525060200191505060405180910390fd5b8295505050505050919050565b6000611cc26040518060400160405280600981526020017f50726f66696c6544420000000000000000000000000000000000000000000000815250611286565b905090565b60025481565b6000809054906101000a900473ffffffffffffffffffffffffffffffffffffffff1673ffffffffffffffffffffffffffffffffffffffff163373ffffffffffffffffffffffffffffffffffffffff1614611d2357fe5b600073ffffffffffffffffffffffffffffffffffffffff166001836040518082805190602001908083835b60208310611d715780518252602082019150602081019050602083039250611d4e565b6001836020036101000a038019825116818451168082178552505050505050905001915050908152602001604051809103902060009054906101000a900473ffffffffffffffffffffffffffffffffffffffff1673ffffffffffffffffffffffffffffffffffffffff161415611de657600080fd5b806001836040518082805190602001908083835b60208310611e1d5780518252602082019150602081019050602083039250611dfa565b6001836020036101000a038019825116818451168082178552505050505050905001915050908152602001604051809103902060006101000a81548173ffffffffffffffffffffffffffffffffffffffff021916908373ffffffffffffffffffffffffffffffffffffffff1602179055505050565b6000611ed26040518060400160405280600c81526020017f4b697474696548656c6c44420000000000000000000000000000000000000000815250611286565b905090565b6000809054906101000a900473ffffffffffffffffffffffffffffffffffffffff1681565b6000611f3c6040518060400160405280600681526020017f526f6c6544420000000000000000000000000000000000000000000000000000815250611286565b905090565b6000611f816040518060400160405280600b81526020017f486974735265736f6c7665000000000000000000000000000000000000000000815250611286565b905090565b6000611fc66040518060400160405280600981526020017f5363686564756c65720000000000000000000000000000000000000000000000815250611286565b905090565b6000809054906101000a900473ffffffffffffffffffffffffffffffffffffffff1673ffffffffffffffffffffffffffffffffffffffff163373ffffffffffffffffffffffffffffffffffffffff161461202157fe5b6000811161202e57600080fd5b8060028190555050565b6000809054906101000a900473ffffffffffffffffffffffffffffffffffffffff1673ffffffffffffffffffffffffffffffffffffffff163373ffffffffffffffffffffffffffffffffffffffff161461208e57fe5b600073ffffffffffffffffffffffffffffffffffffffff166001826040518082805190602001908083835b602083106120dc57805182526020820191506020810190506020830392506120b9565b6001836020036101000a038019825116818451168082178552505050505050905001915050908152602001604051809103902060009054906101000a900473ffffffffffffffffffffffffffffffffffffffff1673ffffffffffffffffffffffffffffffffffffffff16141561215157600080fd5b60006001826040518082805190602001908083835b602083106121895780518252602082019150602081019050602083039250612166565b6001836020036101000a038019825116818451168082178552505050505050905001915050908152602001604051809103902060006101000a81548173ffffffffffffffffffffffffffffffffffffffff021916908373ffffffffffffffffffffffffffffffffffffffff16021790555050565b600061223d6040518060400160405280600c81526020017f5769746864726177506f6f6c0000000000000000000000000000000000000000815250611286565b905090565b60006122826040518060400160405280600981526020017f466f726665697465720000000000000000000000000000000000000000000000815250611286565b905090565b60006122c76040518060400160405280600c81526020017f446973747269627574696f6e0000000000000000000000000000000000000000815250611286565b905090565b600061230c6040518060400160405280600e81526020017f5769746864726177616c506f6f6c000000000000000000000000000000000000815250611286565b905090565b60006123516040518060400160405280600a81526020017f474d536574746572444200000000000000000000000000000000000000000000815250611286565b905090565b6000809054906101000a900473ffffffffffffffffffffffffffffffffffffffff1673ffffffffffffffffffffffffffffffffffffffff163373ffffffffffffffffffffffffffffffffffffffff16146123ac57fe5b600073ffffffffffffffffffffffffffffffffffffffff166001836040518082805190602001908083835b602083106123fa57805182526020820191506020810190506020830392506123d7565b6001836020036101000a038019825116818451168082178552505050505050905001915050908152602001604051809103902060009054906101000a900473ffffffffffffffffffffffffffffffffffffffff1673ffffffffffffffffffffffffffffffffffffffff16146124ba576040517f08c379a00000000000000000000000000000000000000000000000000000000081526004018080602001828103825260268152602001806129f06026913960400191505060405180910390fd5b806001836040518082805190602001908083835b602083106124f157805182526020820191506020810190506020830392506124ce565b6001836020036101000a038019825116818451168082178552505050505050905001915050908152602001604051809103902060006101000a81548173ffffffffffffffffffffffffffffffffffffffff021916908373ffffffffffffffffffffffffffffffffffffffff1602179055505050565b60006125a66040518060400160405280600781526020017f43726f6e4a6f6200000000000000000000000000000000000000000000000000815250611286565b905090565b60006125eb6040518060400160405280600a81526020017f474d476574746572444200000000000000000000000000000000000000000000815250611286565b905090565b60006126306040518060400160405280600b81526020017f47616d654d616e61676572000000000000000000000000000000000000000000815250611286565b905090565b60006126756040518060400160405280600881526020017f5265676973746572000000000000000000000000000000000000000000000000815250611286565b905090565b6000809054906101000a900473ffffffffffffffffffffffffffffffffffffffff1673ffffffffffffffffffffffffffffffffffffffff163373ffffffffffffffffffffffffffffffffffffffff16146126d057fe5b600073ffffffffffffffffffffffffffffffffffffffff168173ffffffffffffffffffffffffffffffffffffffff161461274557806000806101000a81548173ffffffffffffffffffffffffffffffffffffffff021916908373ffffffffffffffffffffffffffffffffffffffff1602179055505b50565b60006127886040518060400160405280600b81526020017f456e646f776d656e744442000000000000000000000000000000000000000000815250611286565b905090565b60006127cd6040518060400160405280600d81526020017f456e646f776d656e7446756e6400000000000000000000000000000000000000815250611286565b905090565b60006128126040518060400160405280600781526020017f43726f6e4a6f6200000000000000000000000000000000000000000000000000815250611286565b905060008090505b6002548110156129eb57600060608373ffffffffffffffffffffffffffffffffffffffff166040516024016040516020818303038152906040527f05044bac000000000000000000000000000000000000000000000000000000007bffffffffffffffffffffffffffffffffffffffffffffffffffffffff19166020820180517bffffffffffffffffffffffffffffffffffffffffffffffffffffffff83818316178352505050506040518082805190602001908083835b602083106128f557805182526020820191506020810190506020830392506128d2565b6001836020036101000a0380198251168184511680821785525050505050509050019150506000604051808303816000865af19150503d8060008114612957576040519150601f19603f3d011682016040523d82523d6000602084013e61295c565b606091505b509150915081156129af57600081806020019051604081101561297e57600080fd5b810190808051906020019092919080519060200190929190505050509050806129a9575050506129eb565b506129dc565b7fd0c39055083f1cd7e99672a54796862cd3b34c3db7964de3d92cfc9a9d47362060405160405180910390a15b5050808060010191505061281a565b505056fe43616e206e6f742061646420636f6e74726163742077697468207a65726f2061646472657373a265627a7a72315820918b5dd3759faa8ba7b7e8f264bbceaefb700abcd8e45fb846be3437b134fa6364736f6c63430005110032",
  "source": "/**\r\n * @title CronJob\r\n *\r\n * @author @kittieFIGHT @ola @pash7ka\r\n *\r\n */\r\n\r\n// This program is free software: you can redistribute it and/or modify\r\n// it under the terms of the GNU General Public License as published by\r\n// the Free Software Foundation, either version 3 of the License, or\r\n// (at your option) any later version.\r\n\r\n// This program is distributed in the hope that it will be useful,\r\n// but WITHOUT ANY WARRANTY; without even the implied warranty of\r\n// MERCHANTABILITY or FITNESS FOR A PARTICULAR PURPOSE.  See the\r\n// GNU General Public License for more details.\r\n\r\n// You should have received a copy of the GNU General Public License\r\n// along with this program.  If not, see <http://www.gnu.org/licenses/>.\r\npragma solidity ^0.5.5;\r\n\r\nimport \"../../authority/Owned.sol\";\r\nimport \"../../CronJob.sol\";\r\nimport \"./ProxyBase.sol\";\r\n\r\ncontract CronJobProxy is ProxyBase {\r\n    event CronJobExecutionFailed(); //This is used to signal about something really unexpected happened\r\n\r\n    uint256 public maxJobsForOneRun = 2;\r\n\r\n    function setMaxJobsForOneRun(uint256 _maxJobsForOneRun) onlyOwner public {\r\n        require(_maxJobsForOneRun > 0);\r\n        maxJobsForOneRun = _maxJobsForOneRun;\r\n    }\r\n\r\n    /**\r\n     * @notice Executes up to maxJobsForOneRun scheduled jobs, if available\r\n     * @dev This can be executed by admins, but since KFProxy can not use Guard, we need to do check manually\r\n     */\r\n    function executeScheduledJobs() external {\r\n        address genericDB = getContract(CONTRACT_NAME_GENERIC_DB);\r\n        (bool success, bytes memory result) = genericDB.staticcall(abi.encodeWithSignature(\r\n            \"getBoolStorage(string,bytes32)\",\r\n            CONTRACT_NAME_ROLE_DB,\r\n            keccak256(abi.encodePacked(\"admin\", msg.sender))\r\n        ));\r\n        require(success, 'Failed to load role');\r\n        bool hasRole = abi.decode(result, (bool));\r\n        require(hasRole, 'Sender has to be an admin');\r\n\r\n        _executeScheduledJobs();\r\n    }\r\n    function executeJob(uint256 jobId) external returns(bytes memory) {\r\n        address genericDB = getContract(CONTRACT_NAME_GENERIC_DB);\r\n        (bool success, bytes memory result) = genericDB.staticcall(abi.encodeWithSignature(\r\n            \"getBoolStorage(string,bytes32)\",\r\n            CONTRACT_NAME_ROLE_DB,\r\n            keccak256(abi.encodePacked(\"admin\", msg.sender))\r\n        ));\r\n        require(success, 'Failed to load role');\r\n        bool hasRole = abi.decode(result, (bool));\r\n        require(hasRole, 'Sender has to be an admin');\r\n\r\n        address cronJob = getContract(CONTRACT_NAME_CRONJOB);\r\n        (success, result) = cronJob.call(abi.encodeWithSignature('executeJob(uint256)', jobId));\r\n        require(success, 'Execute call failed');\r\n        return result;\r\n    }\r\n\r\n\r\n    /**\r\n     * @notice Executes up to maxJobsForOneRun scheduled jobs, if available\r\n     */\r\n    function _executeScheduledJobs() internal {\r\n        address cronJob = getContract(CONTRACT_NAME_CRONJOB);\r\n        //if(cronJob == address(0)) return; //this can not happen because of check in ContractManager\r\n        for(uint256 i=0; i < maxJobsForOneRun; i++){\r\n            //Use address.call() because we need to handle failures here\r\n            (bool success, bytes memory result) = cronJob.call(abi.encodeWithSignature('executeNextJobIfAvailable()'));\r\n            if(success){\r\n                (bool jobWasExecuted, /*uint256 jobId*/) = abi.decode(result, (bool, uint256));\r\n                if(!jobWasExecuted) break;  //There is no more jobs scheduled for now\r\n            }else{\r\n                emit CronJobExecutionFailed();\r\n            }\r\n        }\r\n    }\r\n\r\n\r\n}\r\n",
  "sourcePath": "C:\\Users\\Alex\\Desktop\\MyProjects\\contracts\\contracts\\modules\\proxy\\CronJobProxy.sol",
  "compiler": {
    "name": "solc",
    "version": "0.5.17+commit.d19bba13.Emscripten.clang"
  },
  "schemaVersion": "3.0.11",
  "updatedAt": "2020-05-09T18:07:17.878Z",
  "devdoc": {
    "methods": {
      "executeScheduledJobs()": {
        "details": "This can be executed by admins, but since KFProxy can not use Guard, we need to do check manually"
      }
    }
  },
  "userdoc": {
    "methods": {
      "addressOfRegister()": {
        "notice": "Getters for KittyFight system contracts"
      },
      "executeScheduledJobs()": {
        "notice": "Executes up to maxJobsForOneRun scheduled jobs, if available"
      }
    }
  }
}