{
  "contractName": "CronJobProxy",
  "abi": [
    {
      "anonymous": false,
      "inputs": [],
      "name": "CronJobExecutionFailed",
      "type": "event"
    },
    {
      "constant": false,
      "inputs": [
        {
          "internalType": "string",
          "name": "name",
          "type": "string"
        },
        {
          "internalType": "address",
          "name": "contractAddress",
          "type": "address"
        }
      ],
      "name": "addContract",
      "outputs": [],
      "payable": false,
      "stateMutability": "nonpayable",
      "type": "function"
    },
    {
      "constant": true,
      "inputs": [],
      "name": "addressOfBetting",
      "outputs": [
        {
          "internalType": "address",
          "name": "",
          "type": "address"
        }
      ],
      "payable": false,
      "stateMutability": "view",
      "type": "function"
    },
    {
      "constant": true,
      "inputs": [],
      "name": "addressOfCronJob",
      "outputs": [
        {
          "internalType": "address",
          "name": "",
          "type": "address"
        }
      ],
      "payable": false,
      "stateMutability": "view",
      "type": "function"
    },
    {
      "constant": true,
      "inputs": [],
      "name": "addressOfDistribution",
      "outputs": [
        {
          "internalType": "address",
          "name": "",
          "type": "address"
        }
      ],
      "payable": false,
      "stateMutability": "view",
      "type": "function"
    },
    {
      "constant": true,
      "inputs": [],
      "name": "addressOfEarningsTracker",
      "outputs": [
        {
          "internalType": "address",
          "name": "",
          "type": "address"
        }
      ],
      "payable": false,
      "stateMutability": "view",
      "type": "function"
    },
    {
      "constant": true,
      "inputs": [],
      "name": "addressOfEndowmentDB",
      "outputs": [
        {
          "internalType": "address",
          "name": "",
          "type": "address"
        }
      ],
      "payable": false,
      "stateMutability": "view",
      "type": "function"
    },
    {
      "constant": true,
      "inputs": [],
      "name": "addressOfEndowmentFund",
      "outputs": [
        {
          "internalType": "address",
          "name": "",
          "type": "address"
        }
      ],
      "payable": false,
      "stateMutability": "view",
      "type": "function"
    },
    {
      "constant": true,
      "inputs": [],
      "name": "addressOfForfeiter",
      "outputs": [
        {
          "internalType": "address",
          "name": "",
          "type": "address"
        }
      ],
      "payable": false,
      "stateMutability": "view",
      "type": "function"
    },
    {
      "constant": true,
      "inputs": [],
      "name": "addressOfGMGetterDB",
      "outputs": [
        {
          "internalType": "address",
          "name": "",
          "type": "address"
        }
      ],
      "payable": false,
      "stateMutability": "view",
      "type": "function"
    },
    {
      "constant": true,
      "inputs": [],
      "name": "addressOfGMSetterDB",
      "outputs": [
        {
          "internalType": "address",
          "name": "",
          "type": "address"
        }
      ],
      "payable": false,
      "stateMutability": "view",
      "type": "function"
    },
    {
      "constant": true,
      "inputs": [],
      "name": "addressOfGameManager",
      "outputs": [
        {
          "internalType": "address",
          "name": "",
          "type": "address"
        }
      ],
      "payable": false,
      "stateMutability": "view",
      "type": "function"
    },
    {
      "constant": true,
      "inputs": [],
      "name": "addressOfGameVarAndFee",
      "outputs": [
        {
          "internalType": "address",
          "name": "",
          "type": "address"
        }
      ],
      "payable": false,
      "stateMutability": "view",
      "type": "function"
    },
    {
      "constant": true,
      "inputs": [],
      "name": "addressOfHitsResolve",
      "outputs": [
        {
          "internalType": "address",
          "name": "",
          "type": "address"
        }
      ],
      "payable": false,
      "stateMutability": "view",
      "type": "function"
    },
    {
      "constant": true,
      "inputs": [],
      "name": "addressOfHoneypotAllocationAlgo",
      "outputs": [
        {
          "internalType": "address",
          "name": "",
          "type": "address"
        }
      ],
      "payable": false,
      "stateMutability": "view",
      "type": "function"
    },
    {
      "constant": true,
      "inputs": [],
      "name": "addressOfKittieHell",
      "outputs": [
        {
          "internalType": "address",
          "name": "",
          "type": "address"
        }
      ],
      "payable": false,
      "stateMutability": "view",
      "type": "function"
    },
    {
      "constant": true,
      "inputs": [],
      "name": "addressOfKittieHellDB",
      "outputs": [
        {
          "internalType": "address",
          "name": "",
          "type": "address"
        }
      ],
      "payable": false,
      "stateMutability": "view",
      "type": "function"
    },
    {
      "constant": true,
      "inputs": [],
      "name": "addressOfProfileDB",
      "outputs": [
        {
          "internalType": "address",
          "name": "",
          "type": "address"
        }
      ],
      "payable": false,
      "stateMutability": "view",
      "type": "function"
    },
    {
      "constant": true,
      "inputs": [],
      "name": "addressOfRarityCalculator",
      "outputs": [
        {
          "internalType": "address",
          "name": "",
          "type": "address"
        }
      ],
      "payable": false,
      "stateMutability": "view",
      "type": "function"
    },
    {
      "constant": true,
      "inputs": [],
      "name": "addressOfRegister",
      "outputs": [
        {
          "internalType": "address",
          "name": "",
          "type": "address"
        }
      ],
      "payable": false,
      "stateMutability": "view",
      "type": "function"
    },
    {
      "constant": true,
      "inputs": [],
      "name": "addressOfRoleDB",
      "outputs": [
        {
          "internalType": "address",
          "name": "",
          "type": "address"
        }
      ],
      "payable": false,
      "stateMutability": "view",
      "type": "function"
    },
    {
      "constant": true,
      "inputs": [],
      "name": "addressOfScheduler",
      "outputs": [
        {
          "internalType": "address",
          "name": "",
          "type": "address"
        }
      ],
      "payable": false,
      "stateMutability": "view",
      "type": "function"
    },
    {
      "constant": true,
      "inputs": [],
      "name": "addressOfTimeContract",
      "outputs": [
        {
          "internalType": "address",
          "name": "",
          "type": "address"
        }
      ],
      "payable": false,
      "stateMutability": "view",
      "type": "function"
    },
    {
      "constant": true,
      "inputs": [],
      "name": "addressOfTimeFrame",
      "outputs": [
        {
          "internalType": "address",
          "name": "",
          "type": "address"
        }
      ],
      "payable": false,
      "stateMutability": "view",
      "type": "function"
    },
    {
      "constant": true,
      "inputs": [],
      "name": "addressOfWithdrawaPool",
      "outputs": [
        {
          "internalType": "address",
          "name": "",
          "type": "address"
        }
      ],
      "payable": false,
      "stateMutability": "view",
      "type": "function"
    },
    {
      "constant": true,
      "inputs": [],
      "name": "addressOfWithdrawalPool",
      "outputs": [
        {
          "internalType": "address",
          "name": "",
          "type": "address"
        }
      ],
      "payable": false,
      "stateMutability": "view",
      "type": "function"
    },
    {
      "constant": true,
      "inputs": [
        {
          "internalType": "string",
          "name": "name",
          "type": "string"
        }
      ],
      "name": "getContract",
      "outputs": [
        {
          "internalType": "address",
          "name": "",
          "type": "address"
        }
      ],
      "payable": false,
      "stateMutability": "view",
      "type": "function"
    },
    {
      "constant": true,
      "inputs": [
        {
          "internalType": "bytes32[]",
          "name": "nameHashes",
          "type": "bytes32[]"
        }
      ],
      "name": "getContracts",
      "outputs": [
        {
          "internalType": "address[]",
          "name": "",
          "type": "address[]"
        }
      ],
      "payable": false,
      "stateMutability": "view",
      "type": "function"
    },
    {
      "constant": true,
      "inputs": [],
      "name": "maxJobsForOneRun",
      "outputs": [
        {
          "internalType": "uint256",
          "name": "",
          "type": "uint256"
        }
      ],
      "payable": false,
      "stateMutability": "view",
      "type": "function"
    },
    {
      "constant": true,
      "inputs": [],
      "name": "owner",
      "outputs": [
        {
          "internalType": "address payable",
          "name": "",
          "type": "address"
        }
      ],
      "payable": false,
      "stateMutability": "view",
      "type": "function"
    },
    {
      "constant": false,
      "inputs": [
        {
          "internalType": "string",
          "name": "name",
          "type": "string"
        }
      ],
      "name": "removeContract",
      "outputs": [],
      "payable": false,
      "stateMutability": "nonpayable",
      "type": "function"
    },
    {
      "constant": false,
      "inputs": [
        {
          "internalType": "address payable",
          "name": "newOwner",
          "type": "address"
        }
      ],
      "name": "transferOwnership",
      "outputs": [],
      "payable": false,
      "stateMutability": "nonpayable",
      "type": "function"
    },
    {
      "constant": false,
      "inputs": [
        {
          "internalType": "string",
          "name": "name",
          "type": "string"
        },
        {
          "internalType": "address",
          "name": "contractAddress",
          "type": "address"
        }
      ],
      "name": "updateContract",
      "outputs": [],
      "payable": false,
      "stateMutability": "nonpayable",
      "type": "function"
    },
    {
      "constant": false,
      "inputs": [
        {
          "internalType": "uint256",
          "name": "_maxJobsForOneRun",
          "type": "uint256"
        }
      ],
      "name": "setMaxJobsForOneRun",
      "outputs": [],
      "payable": false,
      "stateMutability": "nonpayable",
      "type": "function"
    },
    {
      "constant": false,
      "inputs": [],
      "name": "executeScheduledJobs",
      "outputs": [],
      "payable": false,
      "stateMutability": "nonpayable",
      "type": "function"
    },
    {
      "constant": false,
      "inputs": [
        {
          "internalType": "uint256",
          "name": "jobId",
          "type": "uint256"
        }
      ],
      "name": "executeJob",
      "outputs": [
        {
          "internalType": "bytes",
          "name": "",
          "type": "bytes"
        }
      ],
      "payable": false,
      "stateMutability": "nonpayable",
      "type": "function"
    }
  ],
  "bytecode": "0x608060405260028055336000806101000a81548173ffffffffffffffffffffffffffffffffffffffff021916908373ffffffffffffffffffffffffffffffffffffffff160217905550612b08806100576000396000f3fe608060405234801561001057600080fd5b50600436106102115760003560e01c80638e771e7911610125578063beb9eb0b116100ad578063ee71227f1161007c578063ee71227f14610d5f578063eed9c25b14610da9578063f2fde38b14610df3578063f6df25d514610e37578063fcc47c4f14610e8157610211565b8063beb9eb0b14610ba6578063bf5b601614610bf0578063c5ed75bb14610ccb578063d3b12c1514610d1557610211565b806397623b58116100f457806397623b58146109c357806398f1603114610a7e5780639a087b9714610ac8578063a0d1170b14610b12578063b86ee09714610b5c57610211565b80638e771e79146108b75780638ec82c8a1461090157806393812d201461094b578063968f14121461099557610211565b80634880df0e116101a85780635c757125116101775780635c757125146106e0578063658d74761461072a578063697a60b31461074857806384d67617146108235780638da5cb5b1461086d57610211565b80634880df0e146104d7578063492e4692146105a55780634e7f067b146105ef57806358838def1461063957610211565b806335817773116101e457806335817773146102fe5780633bdc5a5d146103f957806342febb6914610443578063462d46f61461048d57610211565b806320331d0f1461021657806320ba59101461026057806331850482146102aa578063348c6019146102b4575b600080fd5b61021e610ecb565b604051808273ffffffffffffffffffffffffffffffffffffffff1673ffffffffffffffffffffffffffffffffffffffff16815260200191505060405180910390f35b610268610f10565b604051808273ffffffffffffffffffffffffffffffffffffffff1673ffffffffffffffffffffffffffffffffffffffff16815260200191505060405180910390f35b6102b2610f55565b005b6102bc61131a565b604051808273ffffffffffffffffffffffffffffffffffffffff1673ffffffffffffffffffffffffffffffffffffffff16815260200191505060405180910390f35b6103b76004803603602081101561031457600080fd5b810190808035906020019064010000000081111561033157600080fd5b82018360208201111561034357600080fd5b8035906020019184600183028401116401000000008311171561036557600080fd5b91908080601f016020809104026020016040519081016040528093929190818152602001838380828437600081840152601f19601f82011690508083019250505050505050919291929050505061135f565b604051808273ffffffffffffffffffffffffffffffffffffffff1673ffffffffffffffffffffffffffffffffffffffff16815260200191505060405180910390f35b6104016115a0565b604051808273ffffffffffffffffffffffffffffffffffffffff1673ffffffffffffffffffffffffffffffffffffffff16815260200191505060405180910390f35b61044b6115e5565b604051808273ffffffffffffffffffffffffffffffffffffffff1673ffffffffffffffffffffffffffffffffffffffff16815260200191505060405180910390f35b61049561162a565b604051808273ffffffffffffffffffffffffffffffffffffffff1673ffffffffffffffffffffffffffffffffffffffff16815260200191505060405180910390f35b61054e600480360360208110156104ed57600080fd5b810190808035906020019064010000000081111561050a57600080fd5b82018360208201111561051c57600080fd5b8035906020019184602083028401116401000000008311171561053e57600080fd5b909192939192939050505061166f565b6040518080602001828103825283818151815260200191508051906020019060200280838360005b83811015610591578082015181840152602081019050610576565b505050509050019250505060405180910390f35b6105ad61175c565b604051808273ffffffffffffffffffffffffffffffffffffffff1673ffffffffffffffffffffffffffffffffffffffff16815260200191505060405180910390f35b6105f76117a1565b604051808273ffffffffffffffffffffffffffffffffffffffff1673ffffffffffffffffffffffffffffffffffffffff16815260200191505060405180910390f35b6106656004803603602081101561064f57600080fd5b81019080803590602001909291905050506117e6565b6040518080602001828103825283818151815260200191508051906020019080838360005b838110156106a557808201518184015260208101905061068a565b50505050905090810190601f1680156106d25780820380516001836020036101000a031916815260200191505b509250505060405180910390f35b6106e8611da9565b604051808273ffffffffffffffffffffffffffffffffffffffff1673ffffffffffffffffffffffffffffffffffffffff16815260200191505060405180910390f35b610732611dee565b6040518082815260200191505060405180910390f35b6108216004803603604081101561075e57600080fd5b810190808035906020019064010000000081111561077b57600080fd5b82018360208201111561078d57600080fd5b803590602001918460018302840111640100000000831117156107af57600080fd5b91908080601f016020809104026020016040519081016040528093929190818152602001838380828437600081840152601f19601f820116905080830192505050505050509192919290803573ffffffffffffffffffffffffffffffffffffffff169060200190929190505050611df4565b005b61082b611f83565b604051808273ffffffffffffffffffffffffffffffffffffffff1673ffffffffffffffffffffffffffffffffffffffff16815260200191505060405180910390f35b610875611fc8565b604051808273ffffffffffffffffffffffffffffffffffffffff1673ffffffffffffffffffffffffffffffffffffffff16815260200191505060405180910390f35b6108bf611fed565b604051808273ffffffffffffffffffffffffffffffffffffffff1673ffffffffffffffffffffffffffffffffffffffff16815260200191505060405180910390f35b610909612032565b604051808273ffffffffffffffffffffffffffffffffffffffff1673ffffffffffffffffffffffffffffffffffffffff16815260200191505060405180910390f35b610953612077565b604051808273ffffffffffffffffffffffffffffffffffffffff1673ffffffffffffffffffffffffffffffffffffffff16815260200191505060405180910390f35b6109c1600480360360208110156109ab57600080fd5b81019080803590602001909291905050506120bc565b005b610a7c600480360360208110156109d957600080fd5b81019080803590602001906401000000008111156109f657600080fd5b820183602082011115610a0857600080fd5b80359060200191846001830284011164010000000083111715610a2a57600080fd5b91908080601f016020809104026020016040519081016040528093929190818152602001838380828437600081840152601f19601f820116905080830192505050505050509192919290505050612129565b005b610a866122b8565b604051808273ffffffffffffffffffffffffffffffffffffffff1673ffffffffffffffffffffffffffffffffffffffff16815260200191505060405180910390f35b610ad06122fd565b604051808273ffffffffffffffffffffffffffffffffffffffff1673ffffffffffffffffffffffffffffffffffffffff16815260200191505060405180910390f35b610b1a612342565b604051808273ffffffffffffffffffffffffffffffffffffffff1673ffffffffffffffffffffffffffffffffffffffff16815260200191505060405180910390f35b610b64612387565b604051808273ffffffffffffffffffffffffffffffffffffffff1673ffffffffffffffffffffffffffffffffffffffff16815260200191505060405180910390f35b610bae6123cc565b604051808273ffffffffffffffffffffffffffffffffffffffff1673ffffffffffffffffffffffffffffffffffffffff16815260200191505060405180910390f35b610cc960048036036040811015610c0657600080fd5b8101908080359060200190640100000000811115610c2357600080fd5b820183602082011115610c3557600080fd5b80359060200191846001830284011164010000000083111715610c5757600080fd5b91908080601f016020809104026020016040519081016040528093929190818152602001838380828437600081840152601f19601f820116905080830192505050505050509192919290803573ffffffffffffffffffffffffffffffffffffffff169060200190929190505050612411565b005b610cd3612625565b604051808273ffffffffffffffffffffffffffffffffffffffff1673ffffffffffffffffffffffffffffffffffffffff16815260200191505060405180910390f35b610d1d61266a565b604051808273ffffffffffffffffffffffffffffffffffffffff1673ffffffffffffffffffffffffffffffffffffffff16815260200191505060405180910390f35b610d676126af565b604051808273ffffffffffffffffffffffffffffffffffffffff1673ffffffffffffffffffffffffffffffffffffffff16815260200191505060405180910390f35b610db16126f4565b604051808273ffffffffffffffffffffffffffffffffffffffff1673ffffffffffffffffffffffffffffffffffffffff16815260200191505060405180910390f35b610e3560048036036020811015610e0957600080fd5b81019080803573ffffffffffffffffffffffffffffffffffffffff169060200190929190505050612739565b005b610e3f612807565b604051808273ffffffffffffffffffffffffffffffffffffffff1673ffffffffffffffffffffffffffffffffffffffff16815260200191505060405180910390f35b610e8961284c565b604051808273ffffffffffffffffffffffffffffffffffffffff1673ffffffffffffffffffffffffffffffffffffffff16815260200191505060405180910390f35b6000610f0b6040518060400160405280600981526020017f54696d654672616d65000000000000000000000000000000000000000000000081525061135f565b905090565b6000610f506040518060400160405280600781526020017f42657474696e670000000000000000000000000000000000000000000000000081525061135f565b905090565b6000610f956040518060400160405280600981526020017f47656e657269634442000000000000000000000000000000000000000000000081525061135f565b9050600060608273ffffffffffffffffffffffffffffffffffffffff166040518060400160405280600681526020017f526f6c65444200000000000000000000000000000000000000000000000000008152503360405160200180807f61646d696e0000000000000000000000000000000000000000000000000000008152506005018273ffffffffffffffffffffffffffffffffffffffff1673ffffffffffffffffffffffffffffffffffffffff1660601b8152601401915050604051602081830303815290604052805190602001206040516024018080602001838152602001828103825284818151815260200191508051906020019080838360005b838110156110af578082015181840152602081019050611094565b50505050905090810190601f1680156110dc5780820380516001836020036101000a031916815260200191505b5093505050506040516020818303038152906040527f1c58c8bb000000000000000000000000000000000000000000000000000000007bffffffffffffffffffffffffffffffffffffffffffffffffffffffff19166020820180517bffffffffffffffffffffffffffffffffffffffffffffffffffffffff83818316178352505050506040518082805190602001908083835b60208310611192578051825260208201915060208101905060208303925061116f565b6001836020036101000a038019825116818451168082178552505050505050905001915050600060405180830381855afa9150503d80600081146111f2576040519150601f19603f3d011682016040523d82523d6000602084013e6111f7565b606091505b50915091508161126f576040517f08c379a00000000000000000000000000000000000000000000000000000000081526004018080602001828103825260138152602001807f4661696c656420746f206c6f616420726f6c650000000000000000000000000081525060200191505060405180910390fd5b600081806020019051602081101561128657600080fd5b810190808051906020019092919050505090508061130c576040517f08c379a00000000000000000000000000000000000000000000000000000000081526004018080602001828103825260198152602001807f53656e6465722068617320746f20626520616e2061646d696e0000000000000081525060200191505060405180910390fd5b611314612891565b50505050565b600061135a6040518060400160405280601681526020017f486f6e6579706f74416c6c6f636174696f6e416c676f0000000000000000000081525061135f565b905090565b60008082805190602001209050600073ffffffffffffffffffffffffffffffffffffffff166001600083815260200190815260200160002060009054906101000a900473ffffffffffffffffffffffffffffffffffffffff1673ffffffffffffffffffffffffffffffffffffffff1614156115645760608360405160200180807f436f6e7472616374206e6f7420726567697374657265643a200000000000000081525060190182805190602001908083835b602083106114355780518252602082019150602081019050602083039250611412565b6001836020036101000a0380198251168184511680821785525050505050509050019150506040516020818303038152906040526040516024018080602001828103825283818151815260200191508051906020019080838360005b838110156114ac578082015181840152602081019050611491565b50505050905090810190601f1680156114d95780820380516001836020036101000a031916815260200191505b50925050506040516020818303038152906040527f08c379a0000000000000000000000000000000000000000000000000000000007bffffffffffffffffffffffffffffffffffffffffffffffffffffffff19166020820180517bffffffffffffffffffffffffffffffffffffffffffffffffffffffff838183161783525050505090508060208201fd5b6001600082815260200190815260200160002060009054906101000a900473ffffffffffffffffffffffffffffffffffffffff16915050919050565b60006115e06040518060400160405280600f81526020017f4561726e696e6773547261636b6572000000000000000000000000000000000081525061135f565b905090565b60006116256040518060400160405280600a81526020017f4b697474696548656c6c0000000000000000000000000000000000000000000081525061135f565b905090565b600061166a6040518060400160405280600d81526020017f47616d65566172416e644665650000000000000000000000000000000000000081525061135f565b905090565b606080838390506040519080825280602002602001820160405280156116a45781602001602082028038833980820191505090505b50905060008090505b8484905081101561175157600160008686848181106116c857fe5b90506020020135815260200190815260200160002060009054906101000a900473ffffffffffffffffffffffffffffffffffffffff1682828151811061170a57fe5b602002602001019073ffffffffffffffffffffffffffffffffffffffff16908173ffffffffffffffffffffffffffffffffffffffff168152505080806001019150506116ad565b508091505092915050565b600061179c6040518060400160405280601081526020017f52617269747943616c63756c61746f720000000000000000000000000000000081525061135f565b905090565b60006117e16040518060400160405280600c81526020017f54696d65436f6e7472616374000000000000000000000000000000000000000081525061135f565b905090565b606060006118286040518060400160405280600981526020017f47656e657269634442000000000000000000000000000000000000000000000081525061135f565b9050600060608273ffffffffffffffffffffffffffffffffffffffff166040518060400160405280600681526020017f526f6c65444200000000000000000000000000000000000000000000000000008152503360405160200180807f61646d696e0000000000000000000000000000000000000000000000000000008152506005018273ffffffffffffffffffffffffffffffffffffffff1673ffffffffffffffffffffffffffffffffffffffff1660601b8152601401915050604051602081830303815290604052805190602001206040516024018080602001838152602001828103825284818151815260200191508051906020019080838360005b83811015611942578082015181840152602081019050611927565b50505050905090810190601f16801561196f5780820380516001836020036101000a031916815260200191505b5093505050506040516020818303038152906040527f1c58c8bb000000000000000000000000000000000000000000000000000000007bffffffffffffffffffffffffffffffffffffffffffffffffffffffff19166020820180517bffffffffffffffffffffffffffffffffffffffffffffffffffffffff83818316178352505050506040518082805190602001908083835b60208310611a255780518252602082019150602081019050602083039250611a02565b6001836020036101000a038019825116818451168082178552505050505050905001915050600060405180830381855afa9150503d8060008114611a85576040519150601f19603f3d011682016040523d82523d6000602084013e611a8a565b606091505b509150915081611b02576040517f08c379a00000000000000000000000000000000000000000000000000000000081526004018080602001828103825260138152602001807f4661696c656420746f206c6f616420726f6c650000000000000000000000000081525060200191505060405180910390fd5b6000818060200190516020811015611b1957600080fd5b8101908080519060200190929190505050905080611b9f576040517f08c379a00000000000000000000000000000000000000000000000000000000081526004018080602001828103825260198152602001807f53656e6465722068617320746f20626520616e2061646d696e0000000000000081525060200191505060405180910390fd5b6000611bdf6040518060400160405280600781526020017f43726f6e4a6f620000000000000000000000000000000000000000000000000081525061135f565b90508073ffffffffffffffffffffffffffffffffffffffff1687604051602401808281526020019150506040516020818303038152906040527f58838def000000000000000000000000000000000000000000000000000000007bffffffffffffffffffffffffffffffffffffffffffffffffffffffff19166020820180517bffffffffffffffffffffffffffffffffffffffffffffffffffffffff83818316178352505050506040518082805190602001908083835b60208310611cb95780518252602082019150602081019050602083039250611c96565b6001836020036101000a0380198251168184511680821785525050505050509050019150506000604051808303816000865af19150503d8060008114611d1b576040519150601f19603f3d011682016040523d82523d6000602084013e611d20565b606091505b50809450819550505083611d9c576040517f08c379a00000000000000000000000000000000000000000000000000000000081526004018080602001828103825260138152602001807f457865637574652063616c6c206661696c65640000000000000000000000000081525060200191505060405180910390fd5b8295505050505050919050565b6000611de96040518060400160405280600981526020017f50726f66696c654442000000000000000000000000000000000000000000000081525061135f565b905090565b60025481565b6000809054906101000a900473ffffffffffffffffffffffffffffffffffffffff1673ffffffffffffffffffffffffffffffffffffffff163373ffffffffffffffffffffffffffffffffffffffff1614611e4a57fe5b600082805190602001209050600073ffffffffffffffffffffffffffffffffffffffff166001600083815260200190815260200160002060009054906101000a900473ffffffffffffffffffffffffffffffffffffffff1673ffffffffffffffffffffffffffffffffffffffff161415611f2c576040517f08c379a00000000000000000000000000000000000000000000000000000000081526004018080602001828103825260208152602001807f4e6f20636f6e747261637420776974682074686973206e616d6520666f756e6481525060200191505060405180910390fd5b816001600083815260200190815260200160002060006101000a81548173ffffffffffffffffffffffffffffffffffffffff021916908373ffffffffffffffffffffffffffffffffffffffff160217905550505050565b6000611fc36040518060400160405280600c81526020017f4b697474696548656c6c4442000000000000000000000000000000000000000081525061135f565b905090565b6000809054906101000a900473ffffffffffffffffffffffffffffffffffffffff1681565b600061202d6040518060400160405280600681526020017f526f6c654442000000000000000000000000000000000000000000000000000081525061135f565b905090565b60006120726040518060400160405280600b81526020017f486974735265736f6c766500000000000000000000000000000000000000000081525061135f565b905090565b60006120b76040518060400160405280600981526020017f5363686564756c6572000000000000000000000000000000000000000000000081525061135f565b905090565b6000809054906101000a900473ffffffffffffffffffffffffffffffffffffffff1673ffffffffffffffffffffffffffffffffffffffff163373ffffffffffffffffffffffffffffffffffffffff161461211257fe5b6000811161211f57600080fd5b8060028190555050565b6000809054906101000a900473ffffffffffffffffffffffffffffffffffffffff1673ffffffffffffffffffffffffffffffffffffffff163373ffffffffffffffffffffffffffffffffffffffff161461217f57fe5b600081805190602001209050600073ffffffffffffffffffffffffffffffffffffffff166001600083815260200190815260200160002060009054906101000a900473ffffffffffffffffffffffffffffffffffffffff1673ffffffffffffffffffffffffffffffffffffffff161415612261576040517f08c379a00000000000000000000000000000000000000000000000000000000081526004018080602001828103825260208152602001807f4e6f20636f6e747261637420776974682074686973206e616d6520666f756e6481525060200191505060405180910390fd5b60006001600083815260200190815260200160002060006101000a81548173ffffffffffffffffffffffffffffffffffffffff021916908373ffffffffffffffffffffffffffffffffffffffff1602179055505050565b60006122f86040518060400160405280600c81526020017f5769746864726177506f6f6c000000000000000000000000000000000000000081525061135f565b905090565b600061233d6040518060400160405280600981526020017f466f72666569746572000000000000000000000000000000000000000000000081525061135f565b905090565b60006123826040518060400160405280600c81526020017f446973747269627574696f6e000000000000000000000000000000000000000081525061135f565b905090565b60006123c76040518060400160405280600e81526020017f5769746864726177616c506f6f6c00000000000000000000000000000000000081525061135f565b905090565b600061240c6040518060400160405280600a81526020017f474d53657474657244420000000000000000000000000000000000000000000081525061135f565b905090565b6000809054906101000a900473ffffffffffffffffffffffffffffffffffffffff1673ffffffffffffffffffffffffffffffffffffffff163373ffffffffffffffffffffffffffffffffffffffff161461246757fe5b600073ffffffffffffffffffffffffffffffffffffffff168173ffffffffffffffffffffffffffffffffffffffff16141561250a576040517f08c379a00000000000000000000000000000000000000000000000000000000081526004018080602001828103825260208152602001807f436f6e747261637420616464726573732063616e206e6f74206265207a65726f81525060200191505060405180910390fd5b600082805190602001209050600073ffffffffffffffffffffffffffffffffffffffff166001600083815260200190815260200160002060009054906101000a900473ffffffffffffffffffffffffffffffffffffffff1673ffffffffffffffffffffffffffffffffffffffff16146125ce576040517f08c379a0000000000000000000000000000000000000000000000000000000008152600401808060200182810382526025815260200180612aaf6025913960400191505060405180910390fd5b816001600083815260200190815260200160002060006101000a81548173ffffffffffffffffffffffffffffffffffffffff021916908373ffffffffffffffffffffffffffffffffffffffff160217905550505050565b60006126656040518060400160405280600781526020017f43726f6e4a6f620000000000000000000000000000000000000000000000000081525061135f565b905090565b60006126aa6040518060400160405280600a81526020017f474d47657474657244420000000000000000000000000000000000000000000081525061135f565b905090565b60006126ef6040518060400160405280600b81526020017f47616d654d616e6167657200000000000000000000000000000000000000000081525061135f565b905090565b60006127346040518060400160405280600881526020017f526567697374657200000000000000000000000000000000000000000000000081525061135f565b905090565b6000809054906101000a900473ffffffffffffffffffffffffffffffffffffffff1673ffffffffffffffffffffffffffffffffffffffff163373ffffffffffffffffffffffffffffffffffffffff161461278f57fe5b600073ffffffffffffffffffffffffffffffffffffffff168173ffffffffffffffffffffffffffffffffffffffff161461280457806000806101000a81548173ffffffffffffffffffffffffffffffffffffffff021916908373ffffffffffffffffffffffffffffffffffffffff1602179055505b50565b60006128476040518060400160405280600b81526020017f456e646f776d656e74444200000000000000000000000000000000000000000081525061135f565b905090565b600061288c6040518060400160405280600d81526020017f456e646f776d656e7446756e640000000000000000000000000000000000000081525061135f565b905090565b60006128d16040518060400160405280600781526020017f43726f6e4a6f620000000000000000000000000000000000000000000000000081525061135f565b905060008090505b600254811015612aaa57600060608373ffffffffffffffffffffffffffffffffffffffff166040516024016040516020818303038152906040527f05044bac000000000000000000000000000000000000000000000000000000007bffffffffffffffffffffffffffffffffffffffffffffffffffffffff19166020820180517bffffffffffffffffffffffffffffffffffffffffffffffffffffffff83818316178352505050506040518082805190602001908083835b602083106129b45780518252602082019150602081019050602083039250612991565b6001836020036101000a0380198251168184511680821785525050505050509050019150506000604051808303816000865af19150503d8060008114612a16576040519150601f19603f3d011682016040523d82523d6000602084013e612a1b565b606091505b50915091508115612a6e576000818060200190516040811015612a3d57600080fd5b81019080805190602001909291908051906020019092919050505050905080612a6857505050612aaa565b50612a9b565b7fd0c39055083f1cd7e99672a54796862cd3b34c3db7964de3d92cfc9a9d47362060405160405180910390a15b505080806001019150506128d9565b505056fe436f6e747261637420776974682074686973206e616d6520616c7265616479206164646564a265627a7a723158205780da3c1957596c20b8c2cd000ffc92ff279a4223faa0d4dd8026a3af7ff6e164736f6c63430005110032",
  "source": "/**\r\n * @title CronJob\r\n *\r\n * @author @kittieFIGHT @ola @pash7ka\r\n *\r\n */\r\n\r\n// This program is free software: you can redistribute it and/or modify\r\n// it under the terms of the GNU General Public License as published by\r\n// the Free Software Foundation, either version 3 of the License, or\r\n// (at your option) any later version.\r\n\r\n// This program is distributed in the hope that it will be useful,\r\n// but WITHOUT ANY WARRANTY; without even the implied warranty of\r\n// MERCHANTABILITY or FITNESS FOR A PARTICULAR PURPOSE.  See the\r\n// GNU General Public License for more details.\r\n\r\n// You should have received a copy of the GNU General Public License\r\n// along with this program.  If not, see <http://www.gnu.org/licenses/>.\r\npragma solidity ^0.5.5;\r\n\r\nimport \"../../authority/Owned.sol\";\r\nimport \"../../CronJob.sol\";\r\nimport \"./ProxyBase.sol\";\r\n\r\ncontract CronJobProxy is ProxyBase {\r\n    event CronJobExecutionFailed(); //This is used to signal about something really unexpected happened\r\n\r\n    uint256 public maxJobsForOneRun = 2;\r\n\r\n    function setMaxJobsForOneRun(uint256 _maxJobsForOneRun) onlyOwner public {\r\n        require(_maxJobsForOneRun > 0);\r\n        maxJobsForOneRun = _maxJobsForOneRun;\r\n    }\r\n\r\n    /**\r\n     * @notice Executes up to maxJobsForOneRun scheduled jobs, if available\r\n     * @dev This can be executed by admins, but since KFProxy can not use Guard, we need to do check manually\r\n     */\r\n    function executeScheduledJobs() external {\r\n        address genericDB = getContract(CONTRACT_NAME_GENERIC_DB);\r\n        (bool success, bytes memory result) = genericDB.staticcall(abi.encodeWithSignature(\r\n            \"getBoolStorage(string,bytes32)\",\r\n            CONTRACT_NAME_ROLE_DB,\r\n            keccak256(abi.encodePacked(\"admin\", msg.sender))\r\n        ));\r\n        require(success, 'Failed to load role');\r\n        bool hasRole = abi.decode(result, (bool));\r\n        require(hasRole, 'Sender has to be an admin');\r\n\r\n        _executeScheduledJobs();\r\n    }\r\n    function executeJob(uint256 jobId) external returns(bytes memory) {\r\n        address genericDB = getContract(CONTRACT_NAME_GENERIC_DB);\r\n        (bool success, bytes memory result) = genericDB.staticcall(abi.encodeWithSignature(\r\n            \"getBoolStorage(string,bytes32)\",\r\n            CONTRACT_NAME_ROLE_DB,\r\n            keccak256(abi.encodePacked(\"admin\", msg.sender))\r\n        ));\r\n        require(success, 'Failed to load role');\r\n        bool hasRole = abi.decode(result, (bool));\r\n        require(hasRole, 'Sender has to be an admin');\r\n\r\n        address cronJob = getContract(CONTRACT_NAME_CRONJOB);\r\n        (success, result) = cronJob.call(abi.encodeWithSignature('executeJob(uint256)', jobId));\r\n        require(success, 'Execute call failed');\r\n        return result;\r\n    }\r\n\r\n\r\n    /**\r\n     * @notice Executes up to maxJobsForOneRun scheduled jobs, if available\r\n     */\r\n    function _executeScheduledJobs() internal {\r\n        address cronJob = getContract(CONTRACT_NAME_CRONJOB);\r\n        //if(cronJob == address(0)) return; //this can not happen because of check in ContractManager\r\n        for(uint256 i=0; i < maxJobsForOneRun; i++){\r\n            //Use address.call() because we need to handle failures here\r\n            (bool success, bytes memory result) = cronJob.call(abi.encodeWithSignature('executeNextJobIfAvailable()'));\r\n            if(success){\r\n                (bool jobWasExecuted, /*uint256 jobId*/) = abi.decode(result, (bool, uint256));\r\n                if(!jobWasExecuted) break;  //There is no more jobs scheduled for now\r\n            }else{\r\n                emit CronJobExecutionFailed();\r\n            }\r\n        }\r\n    }\r\n\r\n\r\n}\r\n",
  "sourcePath": "C:\\Users\\Alex\\Desktop\\MyProjects\\contracts\\contracts\\modules\\proxy\\CronJobProxy.sol",
  "compiler": {
    "name": "solc",
    "version": "0.5.17+commit.d19bba13.Emscripten.clang"
  },
  "schemaVersion": "3.0.11",
  "updatedAt": "2020-05-15T21:45:20.649Z",
  "devdoc": {
    "methods": {
      "executeScheduledJobs()": {
        "details": "This can be executed by admins, but since KFProxy can not use Guard, we need to do check manually"
      }
    }
  },
  "userdoc": {
    "methods": {
      "addressOfRegister()": {
        "notice": "Getters for KittyFight system contracts"
      },
      "executeScheduledJobs()": {
        "notice": "Executes up to maxJobsForOneRun scheduled jobs, if available"
      }
    }
  }
}