{
  "contractName": "DaiWethOracle",
  "abi": [
    {
      "constant": true,
      "inputs": [],
      "name": "PERIOD",
      "outputs": [
        {
          "internalType": "uint256",
          "name": "",
          "type": "uint256"
        }
      ],
      "payable": false,
      "stateMutability": "view",
      "type": "function"
    },
    {
      "constant": true,
      "inputs": [],
      "name": "blockTimestampLast",
      "outputs": [
        {
          "internalType": "uint32",
          "name": "",
          "type": "uint32"
        }
      ],
      "payable": false,
      "stateMutability": "view",
      "type": "function"
    },
    {
      "constant": true,
      "inputs": [],
      "name": "daiWethPair",
      "outputs": [
        {
          "internalType": "contract IDaiWethPair",
          "name": "",
          "type": "address"
        }
      ],
      "payable": false,
      "stateMutability": "view",
      "type": "function"
    },
    {
      "constant": true,
      "inputs": [],
      "name": "owner",
      "outputs": [
        {
          "internalType": "address payable",
          "name": "",
          "type": "address"
        }
      ],
      "payable": false,
      "stateMutability": "view",
      "type": "function"
    },
    {
      "constant": true,
      "inputs": [],
      "name": "price0Average",
      "outputs": [
        {
          "internalType": "uint224",
          "name": "_x",
          "type": "uint224"
        }
      ],
      "payable": false,
      "stateMutability": "view",
      "type": "function"
    },
    {
      "constant": true,
      "inputs": [],
      "name": "price0CumulativeLast",
      "outputs": [
        {
          "internalType": "uint256",
          "name": "",
          "type": "uint256"
        }
      ],
      "payable": false,
      "stateMutability": "view",
      "type": "function"
    },
    {
      "constant": true,
      "inputs": [],
      "name": "price1Average",
      "outputs": [
        {
          "internalType": "uint224",
          "name": "_x",
          "type": "uint224"
        }
      ],
      "payable": false,
      "stateMutability": "view",
      "type": "function"
    },
    {
      "constant": true,
      "inputs": [],
      "name": "price1CumulativeLast",
      "outputs": [
        {
          "internalType": "uint256",
          "name": "",
          "type": "uint256"
        }
      ],
      "payable": false,
      "stateMutability": "view",
      "type": "function"
    },
    {
      "constant": true,
      "inputs": [],
      "name": "proxy",
      "outputs": [
        {
          "internalType": "contract ProxyBase",
          "name": "",
          "type": "address"
        }
      ],
      "payable": false,
      "stateMutability": "view",
      "type": "function"
    },
    {
      "constant": false,
      "inputs": [
        {
          "internalType": "contract ProxyBase",
          "name": "_proxy",
          "type": "address"
        }
      ],
      "name": "setProxy",
      "outputs": [],
      "payable": false,
      "stateMutability": "nonpayable",
      "type": "function"
    },
    {
      "constant": true,
      "inputs": [],
      "name": "token0",
      "outputs": [
        {
          "internalType": "address",
          "name": "",
          "type": "address"
        }
      ],
      "payable": false,
      "stateMutability": "view",
      "type": "function"
    },
    {
      "constant": true,
      "inputs": [],
      "name": "token1",
      "outputs": [
        {
          "internalType": "address",
          "name": "",
          "type": "address"
        }
      ],
      "payable": false,
      "stateMutability": "view",
      "type": "function"
    },
    {
      "constant": false,
      "inputs": [
        {
          "internalType": "address payable",
          "name": "newOwner",
          "type": "address"
        }
      ],
      "name": "transferOwnership",
      "outputs": [],
      "payable": false,
      "stateMutability": "nonpayable",
      "type": "function"
    },
    {
      "constant": false,
      "inputs": [],
      "name": "initialize",
      "outputs": [],
      "payable": false,
      "stateMutability": "nonpayable",
      "type": "function"
    },
    {
      "constant": false,
      "inputs": [],
      "name": "update",
      "outputs": [],
      "payable": false,
      "stateMutability": "nonpayable",
      "type": "function"
    },
    {
      "constant": true,
      "inputs": [
        {
          "internalType": "address",
          "name": "_tokenA",
          "type": "address"
        },
        {
          "internalType": "address",
          "name": "_tokenB",
          "type": "address"
        }
      ],
      "name": "sortTokens",
      "outputs": [
        {
          "internalType": "address",
          "name": "",
          "type": "address"
        },
        {
          "internalType": "address",
          "name": "",
          "type": "address"
        }
      ],
      "payable": false,
      "stateMutability": "pure",
      "type": "function"
    },
    {
      "constant": true,
      "inputs": [
        {
          "internalType": "uint256",
          "name": "_amountA",
          "type": "uint256"
        },
        {
          "internalType": "uint256",
          "name": "_reserveA",
          "type": "uint256"
        },
        {
          "internalType": "uint256",
          "name": "_reserveB",
          "type": "uint256"
        }
      ],
      "name": "quote",
      "outputs": [
        {
          "internalType": "uint256",
          "name": "",
          "type": "uint256"
        }
      ],
      "payable": false,
      "stateMutability": "pure",
      "type": "function"
    },
    {
      "constant": true,
      "inputs": [
        {
          "internalType": "uint256",
          "name": "_amountOut",
          "type": "uint256"
        },
        {
          "internalType": "uint256",
          "name": "_reserveIn",
          "type": "uint256"
        },
        {
          "internalType": "uint256",
          "name": "_reserveOut",
          "type": "uint256"
        }
      ],
      "name": "getAmountIn",
      "outputs": [
        {
          "internalType": "uint256",
          "name": "",
          "type": "uint256"
        }
      ],
      "payable": false,
      "stateMutability": "pure",
      "type": "function"
    }
  ],
  "bytecode": "0x6080604052336000806101000a81548173ffffffffffffffffffffffffffffffffffffffff021916908373ffffffffffffffffffffffffffffffffffffffff1602179055506117fb806100536000396000f3fe608060405234801561001057600080fd5b50600436106101165760003560e01c806397107d6d116100a2578063b4d1d79511610071578063b4d1d795146104c4578063c5700a02146104e2578063d21220a71461050c578063ec55688914610556578063f2fde38b146105a057610116565b806397107d6d146103c6578063a2e620451461040a578063a6bb453914610414578063ad615dec1461046e57610116565b80635e6aaf2c116100e95780635e6aaf2c146102785780638129fc1c146102d257806385f8c259146102dc578063882b7aae146103325780638da5cb5b1461037c57610116565b80630dfe16811461011b578063544caa56146101655780635909c0d51461023c5780635a3d54931461025a575b600080fd5b6101236105e4565b604051808273ffffffffffffffffffffffffffffffffffffffff1673ffffffffffffffffffffffffffffffffffffffff16815260200191505060405180910390f35b6101c76004803603604081101561017b57600080fd5b81019080803573ffffffffffffffffffffffffffffffffffffffff169060200190929190803573ffffffffffffffffffffffffffffffffffffffff16906020019092919050505061060a565b604051808373ffffffffffffffffffffffffffffffffffffffff1673ffffffffffffffffffffffffffffffffffffffff1681526020018273ffffffffffffffffffffffffffffffffffffffff1673ffffffffffffffffffffffffffffffffffffffff1681526020019250505060405180910390f35b610244610622565b6040518082815260200191505060405180910390f35b610262610628565b6040518082815260200191505060405180910390f35b61028061062e565b60405180827bffffffffffffffffffffffffffffffffffffffffffffffffffffffff167bffffffffffffffffffffffffffffffffffffffffffffffffffffffff16815260200191505060405180910390f35b6102da610662565b005b61031c600480360360608110156102f257600080fd5b81019080803590602001909291908035906020019092919080359060200190929190505050610a08565b6040518082815260200191505060405180910390f35b61033a610a1e565b604051808273ffffffffffffffffffffffffffffffffffffffff1673ffffffffffffffffffffffffffffffffffffffff16815260200191505060405180910390f35b610384610a44565b604051808273ffffffffffffffffffffffffffffffffffffffff1673ffffffffffffffffffffffffffffffffffffffff16815260200191505060405180910390f35b610408600480360360208110156103dc57600080fd5b81019080803573ffffffffffffffffffffffffffffffffffffffff169060200190929190505050610a69565b005b610412610b03565b005b61041c610de4565b60405180827bffffffffffffffffffffffffffffffffffffffffffffffffffffffff167bffffffffffffffffffffffffffffffffffffffffffffffffffffffff16815260200191505060405180910390f35b6104ae6004803603606081101561048457600080fd5b81019080803590602001909291908035906020019092919080359060200190929190505050610e18565b6040518082815260200191505060405180910390f35b6104cc610e2e565b6040518082815260200191505060405180910390f35b6104ea610e35565b604051808263ffffffff1663ffffffff16815260200191505060405180910390f35b610514610e4b565b604051808273ffffffffffffffffffffffffffffffffffffffff1673ffffffffffffffffffffffffffffffffffffffff16815260200191505060405180910390f35b61055e610e71565b604051808273ffffffffffffffffffffffffffffffffffffffff1673ffffffffffffffffffffffffffffffffffffffff16815260200191505060405180910390f35b6105e2600480360360208110156105b657600080fd5b81019080803573ffffffffffffffffffffffffffffffffffffffff169060200190929190505050610e97565b005b600360009054906101000a900473ffffffffffffffffffffffffffffffffffffffff1681565b6000806106178484610f65565b915091509250929050565b60055481565b60065481565b60098060000160009054906101000a90047bffffffffffffffffffffffffffffffffffffffffffffffffffffffff16905081565b6000809054906101000a900473ffffffffffffffffffffffffffffffffffffffff1673ffffffffffffffffffffffffffffffffffffffff163373ffffffffffffffffffffffffffffffffffffffff16146106b857fe5b600160009054906101000a900473ffffffffffffffffffffffffffffffffffffffff1673ffffffffffffffffffffffffffffffffffffffff1663358177736040518060400160405280600c81526020017f49446169576574685061697200000000000000000000000000000000000000008152506040518263ffffffff1660e01b81526004018080602001828103825283818151815260200191508051906020019080838360005b8381101561077b578082015181840152602081019050610760565b50505050905090810190601f1680156107a85780820380516001836020036101000a031916815260200191505b509250505060206040518083038186803b1580156107c557600080fd5b505afa1580156107d9573d6000803e3d6000fd5b505050506040513d60208110156107ef57600080fd5b8101908080519060200190929190505050600260006101000a81548173ffffffffffffffffffffffffffffffffffffffff021916908373ffffffffffffffffffffffffffffffffffffffff160217905550600260009054906101000a900473ffffffffffffffffffffffffffffffffffffffff1673ffffffffffffffffffffffffffffffffffffffff16630dfe16816040518163ffffffff1660e01b815260040160206040518083038186803b1580156108a857600080fd5b505afa1580156108bc573d6000803e3d6000fd5b505050506040513d60208110156108d257600080fd5b8101908080519060200190929190505050600360006101000a81548173ffffffffffffffffffffffffffffffffffffffff021916908373ffffffffffffffffffffffffffffffffffffffff160217905550600260009054906101000a900473ffffffffffffffffffffffffffffffffffffffff1673ffffffffffffffffffffffffffffffffffffffff1663d21220a76040518163ffffffff1660e01b815260040160206040518083038186803b15801561098b57600080fd5b505afa15801561099f573d6000803e3d6000fd5b505050506040513d60208110156109b557600080fd5b8101908080519060200190929190505050600460006101000a81548173ffffffffffffffffffffffffffffffffffffffff021916908373ffffffffffffffffffffffffffffffffffffffff160217905550565b6000610a158484846110dc565b90509392505050565b600260009054906101000a900473ffffffffffffffffffffffffffffffffffffffff1681565b6000809054906101000a900473ffffffffffffffffffffffffffffffffffffffff1681565b6000809054906101000a900473ffffffffffffffffffffffffffffffffffffffff1673ffffffffffffffffffffffffffffffffffffffff163373ffffffffffffffffffffffffffffffffffffffff1614610abf57fe5b80600160006101000a81548173ffffffffffffffffffffffffffffffffffffffff021916908373ffffffffffffffffffffffffffffffffffffffff16021790555050565b6000806000610c58600160009054906101000a900473ffffffffffffffffffffffffffffffffffffffff1673ffffffffffffffffffffffffffffffffffffffff1663358177736040518060400160405280600c81526020017f49446169576574685061697200000000000000000000000000000000000000008152506040518263ffffffff1660e01b81526004018080602001828103825283818151815260200191508051906020019080838360005b83811015610bce578082015181840152602081019050610bb3565b50505050905090810190601f168015610bfb5780820380516001836020036101000a031916815260200191505b509250505060206040518083038186803b158015610c1857600080fd5b505afa158015610c2c573d6000803e3d6000fd5b505050506040513d6020811015610c4257600080fd5b8101908080519060200190929190505050611219565b9250925092506000600760009054906101000a900463ffffffff168203905060405180602001604052808263ffffffff16600554870381610c9557fe5b047bffffffffffffffffffffffffffffffffffffffffffffffffffffffff16815250600860008201518160000160006101000a8154817bffffffffffffffffffffffffffffffffffffffffffffffffffffffff02191690837bffffffffffffffffffffffffffffffffffffffffffffffffffffffff16021790555090505060405180602001604052808263ffffffff16600654860381610d3157fe5b047bffffffffffffffffffffffffffffffffffffffffffffffffffffffff16815250600960008201518160000160006101000a8154817bffffffffffffffffffffffffffffffffffffffffffffffffffffffff02191690837bffffffffffffffffffffffffffffffffffffffffffffffffffffffff160217905550905050836005819055508260068190555081600760006101000a81548163ffffffff021916908363ffffffff16021790555050505050565b60088060000160009054906101000a90047bffffffffffffffffffffffffffffffffffffffffffffffffffffffff16905081565b6000610e25848484611464565b90509392505050565b6201518081565b600760009054906101000a900463ffffffff1681565b600460009054906101000a900473ffffffffffffffffffffffffffffffffffffffff1681565b600160009054906101000a900473ffffffffffffffffffffffffffffffffffffffff1681565b6000809054906101000a900473ffffffffffffffffffffffffffffffffffffffff1673ffffffffffffffffffffffffffffffffffffffff163373ffffffffffffffffffffffffffffffffffffffff1614610eed57fe5b600073ffffffffffffffffffffffffffffffffffffffff168173ffffffffffffffffffffffffffffffffffffffff1614610f6257806000806101000a81548173ffffffffffffffffffffffffffffffffffffffff021916908373ffffffffffffffffffffffffffffffffffffffff1602179055505b50565b6000808273ffffffffffffffffffffffffffffffffffffffff168473ffffffffffffffffffffffffffffffffffffffff161415610fed576040517f08c379a00000000000000000000000000000000000000000000000000000000081526004018080602001828103825260258152602001806117556025913960400191505060405180910390fd5b8273ffffffffffffffffffffffffffffffffffffffff168473ffffffffffffffffffffffffffffffffffffffff161061102757828461102a565b83835b8092508193505050600073ffffffffffffffffffffffffffffffffffffffff168273ffffffffffffffffffffffffffffffffffffffff1614156110d5576040517f08c379a000000000000000000000000000000000000000000000000000000000815260040180806020018281038252601e8152602001807f556e697377617056324c6962726172793a205a45524f5f41444452455353000081525060200191505060405180910390fd5b9250929050565b6000808411611136576040517f08c379a000000000000000000000000000000000000000000000000000000000815260040180806020018281038252602c815260200180611729602c913960400191505060405180910390fd5b6000831180156111465750600082115b61119b576040517f08c379a000000000000000000000000000000000000000000000000000000000815260040180806020018281038252602881526020018061177a6028913960400191505060405180910390fd5b60006111c46103e86111b6878761154890919063ffffffff16565b61154890919063ffffffff16565b905060006111ef6103e56111e1888761157f90919063ffffffff16565b61154890919063ffffffff16565b905061120e60018284816111ff57fe5b0461159690919063ffffffff16565b925050509392505050565b60008060006112266115b2565b90508373ffffffffffffffffffffffffffffffffffffffff16635909c0d56040518163ffffffff1660e01b815260040160206040518083038186803b15801561126e57600080fd5b505afa158015611282573d6000803e3d6000fd5b505050506040513d602081101561129857600080fd5b810190808051906020019092919050505092508373ffffffffffffffffffffffffffffffffffffffff16635a3d54936040518163ffffffff1660e01b815260040160206040518083038186803b1580156112f157600080fd5b505afa158015611305573d6000803e3d6000fd5b505050506040513d602081101561131b57600080fd5b8101908080519060200190929190505050915060008060008673ffffffffffffffffffffffffffffffffffffffff16630902f1ac6040518163ffffffff1660e01b815260040160606040518083038186803b15801561137957600080fd5b505afa15801561138d573d6000803e3d6000fd5b505050506040513d60608110156113a357600080fd5b810190808051906020019092919080519060200190929190805190602001909291905050509250925092508363ffffffff168163ffffffff161461145a57600081850390508063ffffffff166113f984866115c8565b600001517bffffffffffffffffffffffffffffffffffffffffffffffffffffffff1602870196508063ffffffff1661143185856115c8565b600001517bffffffffffffffffffffffffffffffffffffffffffffffffffffffff160286019550505b5050509193909250565b60008084116114be576040517f08c379a00000000000000000000000000000000000000000000000000000000081526004018080602001828103825260258152602001806117a26025913960400191505060405180910390fd5b6000831180156114ce5750600082115b611523576040517f08c379a000000000000000000000000000000000000000000000000000000000815260040180806020018281038252602881526020018061177a6028913960400191505060405180910390fd5b82611537838661154890919063ffffffff16565b8161153e57fe5b0490509392505050565b60008083141561155b5760009050611579565b600082840290508284828161156c57fe5b041461157457fe5b809150505b92915050565b60008282111561158b57fe5b818303905092915050565b6000808284019050838110156115a857fe5b8091505092915050565b600064010000000042816115c257fe5b06905090565b6115d06116f7565b6000826dffffffffffffffffffffffffffff1611611656576040517f08c379a00000000000000000000000000000000000000000000000000000000081526004018080602001828103825260178152602001807f4669786564506f696e743a204449565f42595f5a45524f00000000000000000081525060200191505060405180910390fd5b6040518060200160405280836dffffffffffffffffffffffffffff16607060ff16866dffffffffffffffffffffffffffff167bffffffffffffffffffffffffffffffffffffffffffffffffffffffff16901b7bffffffffffffffffffffffffffffffffffffffffffffffffffffffff16816116cd57fe5b047bffffffffffffffffffffffffffffffffffffffffffffffffffffffff16815250905092915050565b604051806020016040528060007bffffffffffffffffffffffffffffffffffffffffffffffffffffffff168152509056fe556e697377617056324c6962726172793a20494e53554646494349454e545f4f55545055545f414d4f554e54556e697377617056324c6962726172793a204944454e544943414c5f414444524553534553556e697377617056324c6962726172793a20494e53554646494349454e545f4c4951554944495459556e697377617056324c6962726172793a20494e53554646494349454e545f414d4f554e54a265627a7a72315820aa24f2976d68ddaea18a0d09366c66ef59bac10641a7a3432ace1d12821bf0f364736f6c63430005110032",
  "source": "pragma solidity ^0.5.5;\n\nimport '../../modules/proxy/Proxied.sol';\n\nimport '../uniswap-v2-core/interfaces/IUniswapV2Factory.sol';\nimport '../uniswap-v2-core/interfaces/IDaiWethPair.sol';\nimport '../uniswap-lib/FixedPoint.sol';\n\nimport './libraries/UniswapV2OracleLibrary.sol';\nimport './libraries/UniswapV2Library.sol';\n\n// fixed window oracle that recomputes the average price for the entire period once every period\n// note that the price average is only guaranteed to be over at least 1 period, but may be over a longer period\ncontract DaiWethOracle is Proxied {\n    using FixedPoint for *;\n\n    uint public constant PERIOD = 24 hours;\n\n    IDaiWethPair public daiWethPair;\n\n    address public token0;\n    address public token1;\n\n    uint    public price0CumulativeLast;\n    uint    public price1CumulativeLast;\n    uint32  public blockTimestampLast;\n    FixedPoint.uq112x112 public price0Average;\n    FixedPoint.uq112x112 public price1Average;\n\n    function initialize() public onlyOwner {\n        daiWethPair = IDaiWethPair(proxy.getContract(CONTRACT_NAME_DAI_WETH_PAIR));\n        token0 = daiWethPair.token0();\n        token1 = daiWethPair.token1();\n    }\n\n    function update() external {\n        (\n            uint price0Cumulative,\n            uint price1Cumulative,\n            uint32 blockTimestamp\n        ) = UniswapV2OracleLibrary.currentCumulativePrices(proxy.getContract(CONTRACT_NAME_DAI_WETH_PAIR));\n\n        uint32 timeElapsed = blockTimestamp - blockTimestampLast; // overflow is desired\n\n        // ensure that at least one full period has passed since the last update\n        //require(timeElapsed >= PERIOD, 'ExampleOracleSimple: PERIOD_NOT_ELAPSED');\n\n        // overflow is desired, casting never truncates\n        // cumulative price is in (uq112x112 price * seconds) units so we simply wrap it after division by time elapsed\n        price0Average = FixedPoint.uq112x112(uint224((price0Cumulative - price0CumulativeLast) / timeElapsed));\n        price1Average = FixedPoint.uq112x112(uint224((price1Cumulative - price1CumulativeLast) / timeElapsed));\n\n        price0CumulativeLast = price0Cumulative;\n        price1CumulativeLast = price1Cumulative;\n        blockTimestampLast = blockTimestamp;\n    }\n\n    function sortTokens(address _tokenA, address _tokenB)\n        public pure returns (address, address)\n    {\n        return UniswapV2Library.sortTokens(_tokenA, _tokenB);\n    }\n\n    function quote(uint _amountA, uint _reserveA, uint _reserveB)\n        public pure returns (uint)\n    {\n        return UniswapV2Library.quote(_amountA, _reserveA, _reserveB);\n    }\n\n    function getAmountIn(uint _amountOut, uint _reserveIn, uint _reserveOut)\n        public pure returns (uint)\n    {\n        return UniswapV2Library.getAmountIn(_amountOut, _reserveIn, _reserveOut);\n    }\n}\n",
  "sourcePath": "/Users/ziweizhang/Desktop/guards-and-freezes/contracts/contracts/uniswapKTY/uniswap-v2-periphery/DaiWethOracle.sol",
  "compiler": {
    "name": "solc",
    "version": "0.5.17+commit.d19bba13.Emscripten.clang"
  },
  "schemaVersion": "3.0.23",
  "updatedAt": "2020-07-02T04:28:45.391Z",
  "networkType": "ethereum",
  "devdoc": {
    "methods": {}
  },
  "userdoc": {
    "methods": {
      "setProxy(address)": {
        "notice": "Set/update address of Proxy contract"
      }
    }
  }
}