{
  "contractName": "DateTime",
  "abi": [
    {
      "constant": true,
      "inputs": [],
      "name": "getBlockchainTime",
      "outputs": [
        {
          "internalType": "uint256",
          "name": "_year",
          "type": "uint256"
        },
        {
          "internalType": "uint256",
          "name": "_month",
          "type": "uint256"
        },
        {
          "internalType": "uint256",
          "name": "_day",
          "type": "uint256"
        },
        {
          "internalType": "uint256",
          "name": "_hour",
          "type": "uint256"
        },
        {
          "internalType": "uint256",
          "name": "_minute",
          "type": "uint256"
        },
        {
          "internalType": "uint256",
          "name": "second",
          "type": "uint256"
        }
      ],
      "payable": false,
      "stateMutability": "view",
      "type": "function"
    },
    {
      "constant": true,
      "inputs": [],
      "name": "getBlockTimeStamp",
      "outputs": [
        {
          "internalType": "uint256",
          "name": "",
          "type": "uint256"
        }
      ],
      "payable": false,
      "stateMutability": "view",
      "type": "function"
    },
    {
      "constant": true,
      "inputs": [
        {
          "internalType": "uint256",
          "name": "timeStamp",
          "type": "uint256"
        }
      ],
      "name": "convertTimeStamp",
      "outputs": [
        {
          "internalType": "uint256",
          "name": "_year",
          "type": "uint256"
        },
        {
          "internalType": "uint256",
          "name": "_month",
          "type": "uint256"
        },
        {
          "internalType": "uint256",
          "name": "_day",
          "type": "uint256"
        },
        {
          "internalType": "uint256",
          "name": "_hour",
          "type": "uint256"
        },
        {
          "internalType": "uint256",
          "name": "_minute",
          "type": "uint256"
        },
        {
          "internalType": "uint256",
          "name": "second",
          "type": "uint256"
        }
      ],
      "payable": false,
      "stateMutability": "pure",
      "type": "function"
    }
  ],
  "bytecode": "0x608060405234801561001057600080fd5b506102ff806100206000396000f3fe608060405234801561001057600080fd5b50600436106100415760003560e01c806368f9e312146100465780639d6ef5fc14610087578063ca49a543146100ec575b600080fd5b61004e61010a565b60405180878152602001868152602001858152602001848152602001838152602001828152602001965050505050505060405180910390f35b6100b36004803603602081101561009d57600080fd5b810190808035906020019092919050505061013c565b60405180878152602001868152602001858152602001848152602001838152602001828152602001965050505050505060405180910390f35b6100f461016f565b6040518082815260200191505060405180910390f35b60008060008060008061011c42610177565b809650819750829850839950849a50859b50505050505050909192939495565b60008060008060008061014e87610177565b809650819750829850839950849a50859b5050505050505091939550919395565b600042905090565b60008060008060008061019562015180888161018f57fe5b046101f2565b80965081975082985050505060006201518088816101af57fe5b069050610e1081816101bd57fe5b049350610e1081816101cb57fe5b069050603c81816101d857fe5b049250603c81816101e557fe5b0691505091939550919395565b600080600080849050600062253d8c610e1062010bd9840101019050600062023ab1826004028161021f57fe5b059050600460038262023ab102018161023457fe5b0582039150600062164b0960018401610fa0028161024e57fe5b059050601f6004826105b5028161026157fe5b058403019250600061098f846050028161027757fe5b059050600060508261098f028161028a57fe5b0585039050600b828161029957fe5b05945084600c026002830103915084836031860360640201019250829850819750809650505050505050919390925056fea265627a7a72315820c7f9999acf93808e27d5c1df51a212bc5187bf0da1855a4e1b7cb97142cb7f8664736f6c634300050d0032",
  "source": "/**\r\n* @title DateTime\r\n*\r\n* @author @wafflemakr @hamaad\r\n*\r\n*/\r\n\r\n// Conventions:\r\n// Unit      | Range         | Notes\r\n// :-------- |:-------------:|:-----\r\n// timestamp | >= 0          | Unix timestamp, number of seconds since 1970/01/01 00:00:00 UTC\r\n// year      | 1970 ... 2345 |\r\n// month     | 1 ... 12      |\r\n// day       | 1 ... 31      |\r\n// hour      | 0 ... 23      |\r\n// minute    | 0 ... 59      |\r\n// second    | 0 ... 59      |\r\n// dayOfWeek | 1 ... 7       | 1 = Monday, ..., 7 = Sunday\r\n\r\npragma solidity ^0.5.5;\r\n\r\n/**\r\n * @title Contract to track minutes, hour, daily, the weekly and monthly schedule\r\n * for scheduling activities within the platform. Used by contract to for time tracking,\r\n * accurately scheduling game events within the kittiefight sytem .\r\n */\r\ncontract DateTime {\r\n\r\n    uint constant SECONDS_PER_DAY = 24 * 60 * 60;\r\n    uint constant SECONDS_PER_HOUR = 60 * 60;\r\n    uint constant SECONDS_PER_MINUTE = 60;\r\n    int constant OFFSET19700101 = 2440588;\r\n\r\n\r\n    function getBlockchainTime()\r\n        public view\r\n        returns(\r\n        uint _year, uint _month, uint _day, uint _hour,\r\n        uint _minute, uint second)\r\n    {\r\n        (_year, _month, _day, _hour, _minute, second) = timestampToDateTime(now);\r\n    }\r\n\r\n    function getBlockTimeStamp() public view returns(uint){\r\n        return now;\r\n    }\r\n\r\n    /**\r\n    * @notice generic timestamp parser\r\n    */\r\n    function convertTimeStamp(uint timeStamp)\r\n        public pure\r\n        returns(\r\n        uint _year, uint _month, uint _day, uint _hour,\r\n        uint _minute, uint second)\r\n    {\r\n        (_year, _month, _day, _hour, _minute, second) = timestampToDateTime(timeStamp);\r\n    }\r\n\r\n    // from BokkyPooBahsDateTimeLibrary\r\n    function timestampToDateTime(uint timestamp) internal pure returns (uint year, uint month, uint day, uint hour, uint minute, uint second) {\r\n        (year, month, day) = _daysToDate(timestamp / SECONDS_PER_DAY);\r\n        uint secs = timestamp % SECONDS_PER_DAY;\r\n        hour = secs / SECONDS_PER_HOUR;\r\n        secs = secs % SECONDS_PER_HOUR;\r\n        minute = secs / SECONDS_PER_MINUTE;\r\n        second = secs % SECONDS_PER_MINUTE;\r\n    }\r\n\r\n    function _daysToDate(uint _days) internal pure returns (uint year, uint month, uint day) {\r\n        int __days = int(_days);\r\n\r\n        int L = __days + 68569 + 3600 + OFFSET19700101;\r\n        int N = 4 * L / 146097;\r\n        L = L - (146097 * N + 3) / 4;\r\n        int _year = 4000 * (L + 1) / 1461001;\r\n        L = L - 1461 * _year / 4 + 31;\r\n        int _month = 80 * L / 2447;\r\n        int _day = L - 2447 * _month / 80;\r\n        L = _month / 11;\r\n        _month = _month + 2 - 12 * L;\r\n        _year = 100 * (N - 49) + _year + L;\r\n\r\n        year = uint(_year);\r\n        month = uint(_month);\r\n        day = uint(_day);\r\n    }\r\n}",
  "sourcePath": "C:/Users/Alex/Desktop/MyProjects/alpha/contracts/modules/datetime/DateTime.sol",
  "compiler": {
    "name": "solc",
    "version": "0.5.13+commit.5b0b510c.Emscripten.clang"
  },
  "schemaVersion": "3.0.11",
  "updatedAt": "2019-12-31T11:43:11.972Z",
  "devdoc": {
    "methods": {},
    "title": "Contract to track minutes, hour, daily, the weekly and monthly schedule for scheduling activities within the platform. Used by contract to for time tracking, accurately scheduling game events within the kittiefight sytem ."
  },
  "userdoc": {
    "methods": {
      "convertTimeStamp(uint256)": {
        "notice": "generic timestamp parser"
      }
    }
  }
}