{
  "contractName": "DefenseLevel",
  "abi": [
    {
      "constant": true,
      "inputs": [],
      "name": "owner",
      "outputs": [
        {
          "internalType": "address payable",
          "name": "",
          "type": "address"
        }
      ],
      "payable": false,
      "stateMutability": "view",
      "type": "function"
    },
    {
      "constant": true,
      "inputs": [],
      "name": "proxy",
      "outputs": [
        {
          "internalType": "contract ProxyBase",
          "name": "",
          "type": "address"
        }
      ],
      "payable": false,
      "stateMutability": "view",
      "type": "function"
    },
    {
      "constant": false,
      "inputs": [
        {
          "internalType": "contract ProxyBase",
          "name": "_proxy",
          "type": "address"
        }
      ],
      "name": "setProxy",
      "outputs": [],
      "payable": false,
      "stateMutability": "nonpayable",
      "type": "function"
    },
    {
      "constant": false,
      "inputs": [
        {
          "internalType": "address payable",
          "name": "newOwner",
          "type": "address"
        }
      ],
      "name": "transferOwnership",
      "outputs": [],
      "payable": false,
      "stateMutability": "nonpayable",
      "type": "function"
    },
    {
      "constant": false,
      "inputs": [
        {
          "internalType": "uint256",
          "name": "max",
          "type": "uint256"
        },
        {
          "internalType": "uint256",
          "name": "min",
          "type": "uint256"
        },
        {
          "internalType": "uint256",
          "name": "totalKitties",
          "type": "uint256"
        }
      ],
      "name": "setDefenseLevelLimit",
      "outputs": [],
      "payable": false,
      "stateMutability": "nonpayable",
      "type": "function"
    }
  ],
  "bytecode": "0x6080604052336000806101000a81548173ffffffffffffffffffffffffffffffffffffffff021916908373ffffffffffffffffffffffffffffffffffffffff160217905550610978806100536000396000f3fe608060405234801561001057600080fd5b50600436106100575760003560e01c8063157885631461005c5780638da5cb5b1461009e57806397107d6d146100e8578063ec5568891461012c578063f2fde38b14610176575b600080fd5b61009c6004803603606081101561007257600080fd5b810190808035906020019092919080359060200190929190803590602001909291905050506101ba565b005b6100a66103f8565b604051808273ffffffffffffffffffffffffffffffffffffffff1673ffffffffffffffffffffffffffffffffffffffff16815260200191505060405180910390f35b61012a600480360360208110156100fe57600080fd5b81019080803573ffffffffffffffffffffffffffffffffffffffff16906020019092919050505061041d565b005b6101346104b7565b604051808273ffffffffffffffffffffffffffffffffffffffff1673ffffffffffffffffffffffffffffffffffffffff16815260200191505060405180910390f35b6101b86004803603602081101561018c57600080fd5b81019080803573ffffffffffffffffffffffffffffffffffffffff1690602001909291905050506104dd565b005b600073ffffffffffffffffffffffffffffffffffffffff163373ffffffffffffffffffffffffffffffffffffffff1614156101f157fe5b61022f6040518060400160405280600b81526020017f73757065725f61646d696e0000000000000000000000000000000000000000008152506105ab565b6102a1576040517f08c379a00000000000000000000000000000000000000000000000000000000081526004018080602001828103825260108152602001807f4f6e6c792073757065722061646d696e0000000000000000000000000000000081525060200191505060405180910390fd5b6102db816102cd629896806102bf868861082790919063ffffffff16565b61083e90919063ffffffff16565b61087590919063ffffffff16565b60026004018190555061031f816103116301312d00610303868861082790919063ffffffff16565b61083e90919063ffffffff16565b61087590919063ffffffff16565b600260030181905550610363816103556302625a00610347868861082790919063ffffffff16565b61083e90919063ffffffff16565b61087590919063ffffffff16565b60028001819055506103a681610398630393870061038a868861082790919063ffffffff16565b61083e90919063ffffffff16565b61087590919063ffffffff16565b6002600101819055506103ea816103dc6304c4b4006103ce868861082790919063ffffffff16565b61083e90919063ffffffff16565b61087590919063ffffffff16565b600260000181905550505050565b6000809054906101000a900473ffffffffffffffffffffffffffffffffffffffff1681565b6000809054906101000a900473ffffffffffffffffffffffffffffffffffffffff1673ffffffffffffffffffffffffffffffffffffffff163373ffffffffffffffffffffffffffffffffffffffff161461047357fe5b80600160006101000a81548173ffffffffffffffffffffffffffffffffffffffff021916908373ffffffffffffffffffffffffffffffffffffffff16021790555050565b600160009054906101000a900473ffffffffffffffffffffffffffffffffffffffff1681565b6000809054906101000a900473ffffffffffffffffffffffffffffffffffffffff1673ffffffffffffffffffffffffffffffffffffffff163373ffffffffffffffffffffffffffffffffffffffff161461053357fe5b600073ffffffffffffffffffffffffffffffffffffffff168173ffffffffffffffffffffffffffffffffffffffff16146105a857806000806101000a81548173ffffffffffffffffffffffffffffffffffffffff021916908373ffffffffffffffffffffffffffffffffffffffff1602179055505b50565b6000600160009054906101000a900473ffffffffffffffffffffffffffffffffffffffff1673ffffffffffffffffffffffffffffffffffffffff1663358177736040518060400160405280600681526020017f526f6c65444200000000000000000000000000000000000000000000000000008152506040518263ffffffff1660e01b81526004018080602001828103825283818151815260200191508051906020019080838360005b83811015610670578082015181840152602081019050610655565b50505050905090810190601f16801561069d5780820380516001836020036101000a031916815260200191505b509250505060206040518083038186803b1580156106ba57600080fd5b505afa1580156106ce573d6000803e3d6000fd5b505050506040513d60208110156106e457600080fd5b810190808051906020019092919050505073ffffffffffffffffffffffffffffffffffffffff16636c9cd0978361071961088e565b6040518363ffffffff1660e01b815260040180806020018373ffffffffffffffffffffffffffffffffffffffff1673ffffffffffffffffffffffffffffffffffffffff168152602001828103825284818151815260200191508051906020019080838360005b8381101561079a57808201518184015260208101905061077f565b50505050905090810190601f1680156107c75780820380516001836020036101000a031916815260200191505b50935050505060206040518083038186803b1580156107e557600080fd5b505afa1580156107f9573d6000803e3d6000fd5b505050506040513d602081101561080f57600080fd5b81019080805190602001909291905050509050919050565b60008282111561083357fe5b818303905092915050565b600080831415610851576000905061086f565b600082840290508284828161086257fe5b041461086a57fe5b809150505b92915050565b60008082848161088157fe5b0490508091505092915050565b6000600160009054906101000a900473ffffffffffffffffffffffffffffffffffffffff1673ffffffffffffffffffffffffffffffffffffffff163373ffffffffffffffffffffffffffffffffffffffff16146108ed57339050610940565b6000601436036000602052601481602c37602051915050600073ffffffffffffffffffffffffffffffffffffffff168173ffffffffffffffffffffffffffffffffffffffff16141561093b57fe5b809150505b9056fea265627a7a7231582067963a111346592505d31581eb09cda33c4d179d7def8436c21ea6315a31b04164736f6c63430005110032",
  "source": "pragma solidity ^0.5.5;\r\n\r\nimport \"../../../libs/SafeMath.sol\";\r\nimport \"../../proxy/Proxied.sol\";\r\nimport \"../../../authority/Guard.sol\";\r\n\r\n/**\r\n * @title This contract is responsible to set lower and upper limit of each defense level\r\n * @author @ziweidream\r\n */\r\ncontract DefenseLevel is Proxied, Guard {\r\n    using SafeMath for uint256;\r\n\r\n    struct DefenseLevelLimit {\r\n        uint256 level1Limit;\r\n        uint256 level2Limit;\r\n        uint256 level3Limit;\r\n        uint256 level4Limit;\r\n        uint256 level5Limit;\r\n    }\r\n\r\n    DefenseLevelLimit internal defenseLevelLimit;\r\n\r\n    /**\r\n     * @author @ziweidream\r\n     * @notice set the lower and upper limit of each defense level of a kitty\r\n     * @param max the sum of the maximum score of all types of cattributes\r\n     * @param min the sum of the minimum score of all types of cattributes\r\n     * @param totalKitties the total number of cryptokitties on CryptoKitties\r\n     * @dev maximum and minimum scores of all types of cattributes are obtained from https://api.cryptokitties.co/cattributes\r\n     * @dev example of maximum and minimum scores of all types of cattributes\r\n     *        type\t  max\t   min\r\n            pattern\t357328\t1754\r\n              eyes\t261737\t1845\r\n              mouth\t239894\t961\r\n             color3\t231062\t758\r\n             color2\t208081\t832\r\n            color1\t197753\t1381\r\n               body\t178290\t904\r\n         coloreyes\t158208\t740\r\n               sum \t1832353\t9175\r\n     */\r\n    function setDefenseLevelLimit (uint256 max, uint256 min, uint256 totalKitties)\r\n        public // temporarily set as public just for truffle test purpose\r\n        // internal\r\n        onlySuperAdmin\r\n      {\r\n      defenseLevelLimit.level5Limit = (max.sub(min)).mul(10000000).div(totalKitties);\r\n      defenseLevelLimit.level4Limit = (max.sub(min)).mul(20000000).div(totalKitties);\r\n      defenseLevelLimit.level3Limit = (max.sub(min)).mul(40000000).div(totalKitties);\r\n      defenseLevelLimit.level2Limit = (max.sub(min)).mul(60000000).div(totalKitties);\r\n      defenseLevelLimit.level1Limit = (max.sub(min)).mul(80000000).div(totalKitties);\r\n    }\r\n}",
  "sourcePath": "C:\\Users\\Alex\\Desktop\\MyProjects\\alpha\\contracts\\modules\\algorithm\\RarityCalculationDBs\\DefenseLevel.sol",
  "compiler": {
    "name": "solc",
    "version": "0.5.17+commit.d19bba13.Emscripten.clang"
  },
  "schemaVersion": "3.0.11",
  "updatedAt": "2020-04-26T22:52:18.550Z",
  "devdoc": {
    "author": "@ziweidream",
    "methods": {
      "setDefenseLevelLimit(uint256,uint256,uint256)": {
        "author": "@ziweidream",
        "details": "maximum and minimum scores of all types of cattributes are obtained from https://api.cryptokitties.co/cattributesexample of maximum and minimum scores of all types of cattributes       type\t  max\t   min pattern\t357328\t1754 eyes\t261737\t1845 mouth\t239894\t961 color3\t231062\t758 color2\t208081\t832 color1\t197753\t1381 body\t178290\t904 coloreyes\t158208\t740 sum \t1832353\t9175",
        "params": {
          "max": "the sum of the maximum score of all types of cattributes",
          "min": "the sum of the minimum score of all types of cattributes",
          "totalKitties": "the total number of cryptokitties on CryptoKitties"
        }
      }
    },
    "title": "This contract is responsible to set lower and upper limit of each defense level"
  },
  "userdoc": {
    "methods": {
      "setDefenseLevelLimit(uint256,uint256,uint256)": {
        "notice": "set the lower and upper limit of each defense level of a kitty"
      },
      "setProxy(address)": {
        "notice": "Set/update address of Proxy contract"
      }
    }
  }
}