{
  "contractName": "DefenseLevel",
  "abi": [
    {
      "constant": false,
      "inputs": [
        {
          "name": "max",
          "type": "uint256"
        },
        {
          "name": "min",
          "type": "uint256"
        },
        {
          "name": "totalKitties",
          "type": "uint256"
        }
      ],
      "name": "setDefenseLevelLimit",
      "outputs": [],
      "payable": false,
      "stateMutability": "nonpayable",
      "type": "function"
    }
  ],
  "bytecode": "0x608060405234801561001057600080fd5b50610265806100206000396000f3fe608060405234801561001057600080fd5b506004361061002b5760003560e01c80631578856314610030575b600080fd5b6100706004803603606081101561004657600080fd5b81019080803590602001909291908035906020019092919080359060200190929190505050610072565b005b6100ac8161009e6298968061009086886101c990919063ffffffff16565b6101e090919063ffffffff16565b61021790919063ffffffff16565b6000600401819055506100f0816100e26301312d006100d486886101c990919063ffffffff16565b6101e090919063ffffffff16565b61021790919063ffffffff16565b600060030181905550610134816101266302625a0061011886886101c990919063ffffffff16565b6101e090919063ffffffff16565b61021790919063ffffffff16565b6000600201819055506101788161016a630393870061015c86886101c990919063ffffffff16565b6101e090919063ffffffff16565b61021790919063ffffffff16565b6000600101819055506101bc816101ae6304c4b4006101a086886101c990919063ffffffff16565b6101e090919063ffffffff16565b61021790919063ffffffff16565b6000800181905550505050565b6000828211156101d557fe5b818303905092915050565b6000808314156101f35760009050610211565b600082840290508284828161020457fe5b041461020c57fe5b809150505b92915050565b60008082848161022357fe5b049050809150509291505056fea265627a7a72305820423f034c864d4c9445c9f79bf74954ca95c57f2abe057ecaf06ff085f9043c0864736f6c634300050a0032",
  "source": "pragma solidity ^0.5.5;\n\nimport \"../../../libs/SafeMath.sol\";\n\n/**\n * @title This contract is responsible to set lower and upper limit of each defense level\n * @author @ziweidream\n */\ncontract DefenseLevel {\n    using SafeMath for uint256;\n  \n    struct DefenseLevelLimit {\n        uint256 level1Limit;\n        uint256 level2Limit;\n        uint256 level3Limit;\n        uint256 level4Limit;\n        uint256 level5Limit;\n    }\n\n    DefenseLevelLimit internal defenseLevelLimit;\n\n    /**\n     * @author @ziweidream\n     * @notice set the lower and upper limit of each defense level of a kitty\n     * @param max the sum of the maximum score of all types of cattributes\n     * @param min the sum of the minimum score of all types of cattributes\n     * @param totalKitties the total number of cryptokitties on CryptoKitties\n     * @dev maximum and minimum scores of all types of cattributes are obtained from https://api.cryptokitties.co/cattributes\n     * @dev example of maximum and minimum scores of all types of cattributes\n     *        type\t  max\t   min\n            pattern\t357328\t1754\n              eyes\t261737\t1845\n              mouth\t239894\t961\n             color3\t231062\t758\n             color2\t208081\t832\n            color1\t197753\t1381\n               body\t178290\t904\n         coloreyes\t158208\t740\n               sum \t1832353\t9175\n     */\n    function setDefenseLevelLimit (uint256 max, uint256 min, uint256 totalKitties)\n        public // temporarily set as public just for truffle test purpose\n        // internal\n        //onlySuperAdmin\n      {\n      defenseLevelLimit.level5Limit = (max.sub(min)).mul(10000000).div(totalKitties);\n      defenseLevelLimit.level4Limit = (max.sub(min)).mul(20000000).div(totalKitties);\n      defenseLevelLimit.level3Limit = (max.sub(min)).mul(40000000).div(totalKitties);\n      defenseLevelLimit.level2Limit = (max.sub(min)).mul(60000000).div(totalKitties);\n      defenseLevelLimit.level1Limit = (max.sub(min)).mul(80000000).div(totalKitties);\n    }\n}",
  "sourcePath": "/home/wafflemakr/Desktop/KittieFight/alpha/contracts/modules/algorithm/RarityCalculationDBs/DefenseLevel.sol",
  "compiler": {
    "name": "solc",
    "version": "0.5.10+commit.5a6ea5b1.Emscripten.clang"
  },
  "schemaVersion": "3.0.11",
  "updatedAt": "2019-08-02T23:07:11.155Z",
  "devdoc": {
    "author": "@ziweidream",
    "methods": {
      "setDefenseLevelLimit(uint256,uint256,uint256)": {
        "author": "@ziweidream",
        "details": "maximum and minimum scores of all types of cattributes are obtained from https://api.cryptokitties.co/cattributesexample of maximum and minimum scores of all types of cattributes       type\t  max\t   min pattern\t357328\t1754 eyes\t261737\t1845 mouth\t239894\t961 color3\t231062\t758 color2\t208081\t832 color1\t197753\t1381 body\t178290\t904 coloreyes\t158208\t740 sum \t1832353\t9175",
        "params": {
          "max": "the sum of the maximum score of all types of cattributes",
          "min": "the sum of the minimum score of all types of cattributes",
          "totalKitties": "the total number of cryptokitties on CryptoKitties"
        }
      }
    },
    "title": "This contract is responsible to set lower and upper limit of each defense level"
  },
  "userdoc": {
    "methods": {
      "setDefenseLevelLimit(uint256,uint256,uint256)": {
        "notice": "set the lower and upper limit of each defense level of a kitty"
      }
    }
  }
}