{
  "contractName": "Distribution",
  "abi": [
    {
      "constant": true,
      "inputs": [],
      "name": "gmGetterDB",
      "outputs": [
        {
          "name": "",
          "type": "address"
        }
      ],
      "payable": false,
      "stateMutability": "view",
      "type": "function"
    },
    {
      "constant": true,
      "inputs": [],
      "name": "endowmentDB",
      "outputs": [
        {
          "name": "",
          "type": "address"
        }
      ],
      "payable": false,
      "stateMutability": "view",
      "type": "function"
    },
    {
      "constant": true,
      "inputs": [],
      "name": "kittieFightToken",
      "outputs": [
        {
          "name": "",
          "type": "address"
        }
      ],
      "payable": false,
      "stateMutability": "view",
      "type": "function"
    },
    {
      "constant": true,
      "inputs": [],
      "name": "owner",
      "outputs": [
        {
          "name": "",
          "type": "address"
        }
      ],
      "payable": false,
      "stateMutability": "view",
      "type": "function"
    },
    {
      "constant": false,
      "inputs": [
        {
          "name": "_proxy",
          "type": "address"
        }
      ],
      "name": "setProxy",
      "outputs": [],
      "payable": false,
      "stateMutability": "nonpayable",
      "type": "function"
    },
    {
      "constant": true,
      "inputs": [],
      "name": "gameVarAndFee",
      "outputs": [
        {
          "name": "",
          "type": "address"
        }
      ],
      "payable": false,
      "stateMutability": "view",
      "type": "function"
    },
    {
      "constant": true,
      "inputs": [],
      "name": "gameStore",
      "outputs": [
        {
          "name": "",
          "type": "address"
        }
      ],
      "payable": false,
      "stateMutability": "view",
      "type": "function"
    },
    {
      "constant": true,
      "inputs": [],
      "name": "proxy",
      "outputs": [
        {
          "name": "",
          "type": "address"
        }
      ],
      "payable": false,
      "stateMutability": "view",
      "type": "function"
    },
    {
      "constant": false,
      "inputs": [
        {
          "name": "newOwner",
          "type": "address"
        }
      ],
      "name": "transferOwnership",
      "outputs": [],
      "payable": false,
      "stateMutability": "nonpayable",
      "type": "function"
    },
    {
      "constant": false,
      "inputs": [],
      "name": "initialize",
      "outputs": [],
      "payable": false,
      "stateMutability": "nonpayable",
      "type": "function"
    },
    {
      "constant": true,
      "inputs": [
        {
          "name": "gameId",
          "type": "uint256"
        },
        {
          "name": "claimer",
          "type": "address"
        }
      ],
      "name": "getWinnerShare",
      "outputs": [
        {
          "name": "winningsETH",
          "type": "uint256"
        },
        {
          "name": "winningsKTY",
          "type": "uint256"
        }
      ],
      "payable": false,
      "stateMutability": "view",
      "type": "function"
    },
    {
      "constant": true,
      "inputs": [
        {
          "name": "gameId",
          "type": "uint256"
        }
      ],
      "name": "getEndowmentShare",
      "outputs": [
        {
          "name": "winningsETH",
          "type": "uint256"
        },
        {
          "name": "winningsKTY",
          "type": "uint256"
        }
      ],
      "payable": false,
      "stateMutability": "view",
      "type": "function"
    },
    {
      "constant": true,
      "inputs": [
        {
          "name": "gameId",
          "type": "uint256"
        },
        {
          "name": "claimer",
          "type": "address"
        },
        {
          "name": "winner",
          "type": "address"
        }
      ],
      "name": "checkWinnerCategory",
      "outputs": [
        {
          "name": "winningGroup",
          "type": "uint256"
        }
      ],
      "payable": false,
      "stateMutability": "view",
      "type": "function"
    }
  ],
  "bytecode": "0x6080604052336000806101000a81548173ffffffffffffffffffffffffffffffffffffffff021916908373ffffffffffffffffffffffffffffffffffffffff160217905550611f75806100536000396000f3fe608060405234801561001057600080fd5b50600436106100cf5760003560e01c80638da5cb5b1161008c578063a3b3bd7b11610066578063a3b3bd7b1461037e578063b1be6469146103c8578063ec55688914610412578063f2fde38b1461045c576100cf565b80638da5cb5b1461028757806397107d6d146102d15780639ebf616a14610315576100cf565b80631fc75180146100d457806328d0ab581461011e5780635d06fc01146101675780635e37283b146101b157806363c0c46e146102335780638129fc1c1461027d575b600080fd5b6100dc6104a0565b604051808273ffffffffffffffffffffffffffffffffffffffff1673ffffffffffffffffffffffffffffffffffffffff16815260200191505060405180910390f35b61014a6004803603602081101561013457600080fd5b81019080803590602001909291905050506104c6565b604051808381526020018281526020019250505060405180910390f35b61016f610765565b604051808273ffffffffffffffffffffffffffffffffffffffff1673ffffffffffffffffffffffffffffffffffffffff16815260200191505060405180910390f35b61021d600480360360608110156101c757600080fd5b8101908080359060200190929190803573ffffffffffffffffffffffffffffffffffffffff169060200190929190803573ffffffffffffffffffffffffffffffffffffffff16906020019092919050505061078b565b6040518082815260200191505060405180910390f35b61023b610a12565b604051808273ffffffffffffffffffffffffffffffffffffffff1673ffffffffffffffffffffffffffffffffffffffff16815260200191505060405180910390f35b610285610a38565b005b61028f611238565b604051808273ffffffffffffffffffffffffffffffffffffffff1673ffffffffffffffffffffffffffffffffffffffff16815260200191505060405180910390f35b610313600480360360208110156102e757600080fd5b81019080803573ffffffffffffffffffffffffffffffffffffffff16906020019092919050505061125d565b005b6103616004803603604081101561032b57600080fd5b8101908080359060200190929190803573ffffffffffffffffffffffffffffffffffffffff1690602001909291905050506112f7565b604051808381526020018281526020019250505060405180910390f35b610386611d55565b604051808273ffffffffffffffffffffffffffffffffffffffff1673ffffffffffffffffffffffffffffffffffffffff16815260200191505060405180910390f35b6103d0611d7b565b604051808273ffffffffffffffffffffffffffffffffffffffff1673ffffffffffffffffffffffffffffffffffffffff16815260200191505060405180910390f35b61041a611da1565b604051808273ffffffffffffffffffffffffffffffffffffffff1673ffffffffffffffffffffffffffffffffffffffff16815260200191505060405180910390f35b61049e6004803603602081101561047257600080fd5b81019080803573ffffffffffffffffffffffffffffffffffffffff169060200190929190505050611dc7565b005b600360009054906101000a900473ffffffffffffffffffffffffffffffffffffffff1681565b6000806000600460009054906101000a900473ffffffffffffffffffffffffffffffffffffffff1673ffffffffffffffffffffffffffffffffffffffff166322e0ce13856040518263ffffffff1660e01b81526004018082815260200191505060206040518083038186803b15801561053e57600080fd5b505afa158015610552573d6000803e3d6000fd5b505050506040513d602081101561056857600080fd5b810190808051906020019092919050505090506000600460009054906101000a900473ffffffffffffffffffffffffffffffffffffffff1673ffffffffffffffffffffffffffffffffffffffff1663095020c6866040518263ffffffff1660e01b81526004018082815260200191505060206040518083038186803b1580156105f057600080fd5b505afa158015610604573d6000803e3d6000fd5b505050506040513d602081101561061a57600080fd5b81019080805190602001909291905050509050610635611efc565b600660009054906101000a900473ffffffffffffffffffffffffffffffffffffffff1673ffffffffffffffffffffffffffffffffffffffff16636991b5bf876040518263ffffffff1660e01b81526004018082815260200191505060a06040518083038186803b1580156106a857600080fd5b505afa1580156106bc573d6000803e3d6000fd5b505050506040513d601f19601f8201168201806040525060a08110156106e157600080fd5b8101908091905050905061072260646107148360046005811061070057fe5b602002015186611e9590919063ffffffff16565b611ecc90919063ffffffff16565b945061075b606461074d8360046005811061073957fe5b602002015185611e9590919063ffffffff16565b611ecc90919063ffffffff16565b9350505050915091565b600460009054906101000a900473ffffffffffffffffffffffffffffffffffffffff1681565b60008273ffffffffffffffffffffffffffffffffffffffff168273ffffffffffffffffffffffffffffffffffffffff1614156107ca5760009050610a0b565b8273ffffffffffffffffffffffffffffffffffffffff16600660009054906101000a900473ffffffffffffffffffffffffffffffffffffffff1673ffffffffffffffffffffffffffffffffffffffff166316805a2986856040518363ffffffff1660e01b8152600401808381526020018273ffffffffffffffffffffffffffffffffffffffff1673ffffffffffffffffffffffffffffffffffffffff1681526020019250505060206040518083038186803b15801561088857600080fd5b505afa15801561089c573d6000803e3d6000fd5b505050506040513d60208110156108b257600080fd5b810190808051906020019092919050505073ffffffffffffffffffffffffffffffffffffffff1614156108e85760019050610a0b565b8273ffffffffffffffffffffffffffffffffffffffff16600660009054906101000a900473ffffffffffffffffffffffffffffffffffffffff1673ffffffffffffffffffffffffffffffffffffffff16635f87206d86856040518363ffffffff1660e01b8152600401808381526020018273ffffffffffffffffffffffffffffffffffffffff1673ffffffffffffffffffffffffffffffffffffffff1681526020019250505060206040518083038186803b1580156109a657600080fd5b505afa1580156109ba573d6000803e3d6000fd5b505050506040513d60208110156109d057600080fd5b810190808051906020019092919050505073ffffffffffffffffffffffffffffffffffffffff161415610a065760029050610a0b565b600390505b9392505050565b600560009054906101000a900473ffffffffffffffffffffffffffffffffffffffff1681565b6000809054906101000a900473ffffffffffffffffffffffffffffffffffffffff1673ffffffffffffffffffffffffffffffffffffffff163373ffffffffffffffffffffffffffffffffffffffff1614610a8e57fe5b600160009054906101000a900473ffffffffffffffffffffffffffffffffffffffff1673ffffffffffffffffffffffffffffffffffffffff1663358177736040518060400160405280600b81526020017f456e646f776d656e7444420000000000000000000000000000000000000000008152506040518263ffffffff1660e01b81526004018080602001828103825283818151815260200191508051906020019080838360005b83811015610b51578082015181840152602081019050610b36565b50505050905090810190601f168015610b7e5780820380516001836020036101000a031916815260200191505b509250505060206040518083038186803b158015610b9b57600080fd5b505afa158015610baf573d6000803e3d6000fd5b505050506040513d6020811015610bc557600080fd5b8101908080519060200190929190505050600460006101000a81548173ffffffffffffffffffffffffffffffffffffffff021916908373ffffffffffffffffffffffffffffffffffffffff160217905550600160009054906101000a900473ffffffffffffffffffffffffffffffffffffffff1673ffffffffffffffffffffffffffffffffffffffff1663358177736040518060400160405280600d81526020017f47616d65566172416e64466565000000000000000000000000000000000000008152506040518263ffffffff1660e01b81526004018080602001828103825283818151815260200191508051906020019080838360005b83811015610cd9578082015181840152602081019050610cbe565b50505050905090810190601f168015610d065780820380516001836020036101000a031916815260200191505b509250505060206040518083038186803b158015610d2357600080fd5b505afa158015610d37573d6000803e3d6000fd5b505050506040513d6020811015610d4d57600080fd5b8101908080519060200190929190505050600260006101000a81548173ffffffffffffffffffffffffffffffffffffffff021916908373ffffffffffffffffffffffffffffffffffffffff160217905550600160009054906101000a900473ffffffffffffffffffffffffffffffffffffffff1673ffffffffffffffffffffffffffffffffffffffff1663358177736040518060400160405280601081526020017f4b69747469654669676874546f6b656e000000000000000000000000000000008152506040518263ffffffff1660e01b81526004018080602001828103825283818151815260200191508051906020019080838360005b83811015610e61578082015181840152602081019050610e46565b50505050905090810190601f168015610e8e5780820380516001836020036101000a031916815260200191505b509250505060206040518083038186803b158015610eab57600080fd5b505afa158015610ebf573d6000803e3d6000fd5b505050506040513d6020811015610ed557600080fd5b8101908080519060200190929190505050600560006101000a81548173ffffffffffffffffffffffffffffffffffffffff021916908373ffffffffffffffffffffffffffffffffffffffff160217905550600160009054906101000a900473ffffffffffffffffffffffffffffffffffffffff1673ffffffffffffffffffffffffffffffffffffffff1663358177736040518060400160405280600981526020017f47616d6553746f726500000000000000000000000000000000000000000000008152506040518263ffffffff1660e01b81526004018080602001828103825283818151815260200191508051906020019080838360005b83811015610fe9578082015181840152602081019050610fce565b50505050905090810190601f1680156110165780820380516001836020036101000a031916815260200191505b509250505060206040518083038186803b15801561103357600080fd5b505afa158015611047573d6000803e3d6000fd5b505050506040513d602081101561105d57600080fd5b8101908080519060200190929190505050600660006101000a81548173ffffffffffffffffffffffffffffffffffffffff021916908373ffffffffffffffffffffffffffffffffffffffff160217905550600160009054906101000a900473ffffffffffffffffffffffffffffffffffffffff1673ffffffffffffffffffffffffffffffffffffffff1663358177736040518060400160405280600a81526020017f474d4765747465724442000000000000000000000000000000000000000000008152506040518263ffffffff1660e01b81526004018080602001828103825283818151815260200191508051906020019080838360005b83811015611171578082015181840152602081019050611156565b50505050905090810190601f16801561119e5780820380516001836020036101000a031916815260200191505b509250505060206040518083038186803b1580156111bb57600080fd5b505afa1580156111cf573d6000803e3d6000fd5b505050506040513d60208110156111e557600080fd5b8101908080519060200190929190505050600360006101000a81548173ffffffffffffffffffffffffffffffffffffffff021916908373ffffffffffffffffffffffffffffffffffffffff160217905550565b6000809054906101000a900473ffffffffffffffffffffffffffffffffffffffff1681565b6000809054906101000a900473ffffffffffffffffffffffffffffffffffffffff1673ffffffffffffffffffffffffffffffffffffffff163373ffffffffffffffffffffffffffffffffffffffff16146112b357fe5b80600160006101000a81548173ffffffffffffffffffffffffffffffffffffffff021916908373ffffffffffffffffffffffffffffffffffffffff16021790555050565b600080611302611f1e565b600360009054906101000a900473ffffffffffffffffffffffffffffffffffffffff1673ffffffffffffffffffffffffffffffffffffffff16636b1426a4866040518263ffffffff1660e01b81526004018082815260200191505060606040518083038186803b15801561137557600080fd5b505afa158015611389573d6000803e3d6000fd5b505050506040513d606081101561139f57600080fd5b81019080805190602001909291908051906020019092919080519060200190929190505050836000600381106113d157fe5b60200201846001600381106113e257fe5b60200201856002600381106113f357fe5b602002018373ffffffffffffffffffffffffffffffffffffffff1673ffffffffffffffffffffffffffffffffffffffff168152508373ffffffffffffffffffffffffffffffffffffffff1673ffffffffffffffffffffffffffffffffffffffff168152508373ffffffffffffffffffffffffffffffffffffffff1673ffffffffffffffffffffffffffffffffffffffff16815250505050600073ffffffffffffffffffffffffffffffffffffffff16816000600381106114af57fe5b602002015173ffffffffffffffffffffffffffffffffffffffff16141561153e576040517f08c379a00000000000000000000000000000000000000000000000000000000081526004018080602001828103825260208152602001807f4e6f2077696e6e657220646574656374656420666f7220746869732067616d6581525060200191505060405180910390fd5b600080600360009054906101000a900473ffffffffffffffffffffffffffffffffffffffff1673ffffffffffffffffffffffffffffffffffffffff16630b154c9688886040518363ffffffff1660e01b8152600401808381526020018273ffffffffffffffffffffffffffffffffffffffff1673ffffffffffffffffffffffffffffffffffffffff1681526020019250505060806040518083038186803b1580156115e857600080fd5b505afa1580156115fc573d6000803e3d6000fd5b505050506040513d608081101561161257600080fd5b81019080805190602001909291908051906020019092919080519060200190929190805190602001909291905050505050915091508260006003811061165457fe5b602002015173ffffffffffffffffffffffffffffffffffffffff168673ffffffffffffffffffffffffffffffffffffffff16141580156116d157508260006003811061169c57fe5b602002015173ffffffffffffffffffffffffffffffffffffffff168173ffffffffffffffffffffffffffffffffffffffff1614155b156116eb5760008081915080905094509450505050611d4e565b6116f3611efc565b600660009054906101000a900473ffffffffffffffffffffffffffffffffffffffff1673ffffffffffffffffffffffffffffffffffffffff16636991b5bf896040518263ffffffff1660e01b81526004018082815260200191505060a06040518083038186803b15801561176657600080fd5b505afa15801561177a573d6000803e3d6000fd5b505050506040513d601f19601f8201168201806040525060a081101561179f57600080fd5b8101908091905050905060006117c78989876000600381106117bd57fe5b602002015161078b565b90506000600460009054906101000a900473ffffffffffffffffffffffffffffffffffffffff1673ffffffffffffffffffffffffffffffffffffffff166322e0ce138b6040518263ffffffff1660e01b81526004018082815260200191505060206040518083038186803b15801561183e57600080fd5b505afa158015611852573d6000803e3d6000fd5b505050506040513d602081101561186857600080fd5b810190808051906020019092919050505090506000600460009054906101000a900473ffffffffffffffffffffffffffffffffffffffff1673ffffffffffffffffffffffffffffffffffffffff1663095020c68c6040518263ffffffff1660e01b81526004018082815260200191505060206040518083038186803b1580156118f057600080fd5b505afa158015611904573d6000803e3d6000fd5b505050506040513d602081101561191a57600080fd5b81019080805190602001909291905050509050611963606461195586866005811061194157fe5b602002015185611e9590919063ffffffff16565b611ecc90919063ffffffff16565b985061199b606461198d86866005811061197957fe5b602002015184611e9590919063ffffffff16565b611ecc90919063ffffffff16565b97506003831415611d46576000600360009054906101000a900473ffffffffffffffffffffffffffffffffffffffff1673ffffffffffffffffffffffffffffffffffffffff16630b154c968d8a6001600381106119f457fe5b60200201516040518363ffffffff1660e01b8152600401808381526020018273ffffffffffffffffffffffffffffffffffffffff1673ffffffffffffffffffffffffffffffffffffffff1681526020019250505060806040518083038186803b158015611a6057600080fd5b505afa158015611a74573d6000803e3d6000fd5b505050506040513d6080811015611a8a57600080fd5b810190808051906020019092919080519060200190929190805190602001909291908051906020019092919050505050505090506000600360009054906101000a900473ffffffffffffffffffffffffffffffffffffffff1673ffffffffffffffffffffffffffffffffffffffff16630b154c968e8b600260038110611b0c57fe5b60200201516040518363ffffffff1660e01b8152600401808381526020018273ffffffffffffffffffffffffffffffffffffffff1673ffffffffffffffffffffffffffffffffffffffff1681526020019250505060806040518083038186803b158015611b7857600080fd5b505afa158015611b8c573d6000803e3d6000fd5b505050506040513d6080811015611ba257600080fd5b810190808051906020019092919080519060200190929190805190602001909291908051906020019092919050505050505090506000600360009054906101000a900473ffffffffffffffffffffffffffffffffffffffff1673ffffffffffffffffffffffffffffffffffffffff1663bacf524e8f8c600060038110611c2457fe5b60200201516040518363ffffffff1660e01b8152600401808381526020018273ffffffffffffffffffffffffffffffffffffffff1673ffffffffffffffffffffffffffffffffffffffff1681526020019250505060206040518083038186803b158015611c9057600080fd5b505afa158015611ca4573d6000803e3d6000fd5b505050506040513d6020811015611cba57600080fd5b81019080805190602001909291905050509050611cf282611ce48584611ee590919063ffffffff16565b611ee590919063ffffffff16565b9050611d1981611d0b8b8f611e9590919063ffffffff16565b611ecc90919063ffffffff16565b9b50611d4081611d328b8e611e9590919063ffffffff16565b611ecc90919063ffffffff16565b9a505050505b505050505050505b9250929050565b600260009054906101000a900473ffffffffffffffffffffffffffffffffffffffff1681565b600660009054906101000a900473ffffffffffffffffffffffffffffffffffffffff1681565b600160009054906101000a900473ffffffffffffffffffffffffffffffffffffffff1681565b6000809054906101000a900473ffffffffffffffffffffffffffffffffffffffff1673ffffffffffffffffffffffffffffffffffffffff163373ffffffffffffffffffffffffffffffffffffffff1614611e1d57fe5b600073ffffffffffffffffffffffffffffffffffffffff168173ffffffffffffffffffffffffffffffffffffffff1614611e9257806000806101000a81548173ffffffffffffffffffffffffffffffffffffffff021916908373ffffffffffffffffffffffffffffffffffffffff1602179055505b50565b600080831415611ea85760009050611ec6565b6000828402905082848281611eb957fe5b0414611ec157fe5b809150505b92915050565b600080828481611ed857fe5b0490508091505092915050565b600082821115611ef157fe5b818303905092915050565b6040518060a00160405280600590602082028038833980820191505090505090565b604051806060016040528060039060208202803883398082019150509050509056fea265627a7a723058206d1845fda2d4c3e814fe634e367b79003190367efbf4d2864b2dad9c9a415b5b64736f6c634300050a0032",
  "source": "\n// This program is free software: you can redistribute it and/or modify\n// it under the terms of the GNU General Public License as published by\n// the Free Software Foundation, either version 3 of the License, or\n// (at your option) any later version.\n\n// This program is distributed in the hope that it will be useful,\n// but WITHOUT ANY WARRANTY; without even the implied warranty of\n// MERCHANTABILITY or FITNESS FOR A PARTICULAR PURPOSE.  See the\n// GNU General Public License for more details.\n\n// You should have received a copy of the GNU General Public License\n// along with this program.  If not, see <http://www.gnu.org/licenses/>.\n\npragma solidity ^0.5.5;\n\n\nimport '../../GameVarAndFee.sol';\nimport '../proxy/Proxied.sol';\nimport '../../libs/SafeMath.sol';\nimport '../databases/GMGetterDB.sol';\nimport \"../databases/EndowmentDB.sol\";\nimport \"../../interfaces/ERC20Standard.sol\";\nimport \"./Escrow.sol\";\nimport \"../gamemanager/GameStore.sol\";\n\n/**\n * @title Distribution Contract\n * @dev The distribution contract allows the endowmentfund contract to properly distribute\n * Eth and KTY tokens funds, from each games honeypot to all winners in a game according\n * to the scheduled percentage.\n * @author @wafflemakr @hamaad\n */\ncontract Distribution is Proxied {\n\n    using SafeMath for uint256;\n\n    GameVarAndFee public gameVarAndFee;\n    GMGetterDB public gmGetterDB;\n    EndowmentDB public endowmentDB;\n    ERC20Standard public kittieFightToken;\n    GameStore public gameStore;\n\n    /**\n    * @dev Sets related contracts\n    * @dev Can be called only by the owner of this contract\n    */\n    function initialize() external onlyOwner {\n        endowmentDB = EndowmentDB(proxy.getContract(CONTRACT_NAME_ENDOWMENT_DB));\n        gameVarAndFee = GameVarAndFee(proxy.getContract(CONTRACT_NAME_GAMEVARANDFEE));\n        kittieFightToken = ERC20Standard(proxy.getContract(CONTRACT_NAME_KITTIEFIGHTOKEN));\n        gameStore = GameStore(proxy.getContract(CONTRACT_NAME_GAMESTORE));\n        gmGetterDB = GMGetterDB(proxy.getContract(CONTRACT_NAME_GM_GETTER_DB));\n    }\n\n    /**\n     * @notice Calculates amount of Eth the winner can claim\n     */\n    function getWinnerShare(uint256 gameId, address payable claimer)\n        public view\n        returns(uint256 winningsETH, uint256 winningsKTY)\n    {\n        address[3] memory winners;\n\n        (winners[0], winners[1], winners[2]) = gmGetterDB.getWinners(gameId);\n\n        require(winners[0] != address(0), 'No winner detected for this game');\n\n        (uint256 betAmount, address supportedPlayer,,) = gmGetterDB.getSupporterInfo(gameId, claimer);\n\n        // If its not the winning player or part of the bettors of the winning corner\n        if(claimer != winners[0] && supportedPlayer != winners[0]) return (0,0);\n\n        uint256[5] memory rates = gameStore.getDistributionRates(gameId);\n \n        uint256 winningCategory = checkWinnerCategory(gameId, claimer, winners[0]);\n\n        uint256 totalEthFunds = endowmentDB.getHoneypotTotalETH(gameId);\n        uint256 totalKTYFunds = endowmentDB.getHoneypotTotalKTY(gameId);\n        \n        winningsETH = (totalEthFunds.mul(rates[winningCategory])).div(100);\n        winningsKTY = (totalKTYFunds.mul(rates[winningCategory])).div(100);\n\n        //Other bettors winnings\n        if (winningCategory == 3){\n            (uint256 betAmountTop,,,) = gmGetterDB.getSupporterInfo(gameId, winners[1]);\n            (uint256 betAmountSecondTop,,,) = gmGetterDB.getSupporterInfo(gameId, winners[2]);\n\n            //get other supporters totalBets for winning side\n            uint256 totalBets = gmGetterDB.getTotalBet(gameId, winners[0]);\n\n            //Remove top and secondTop total bets\n            totalBets = totalBets.sub(betAmountTop).sub(betAmountSecondTop);\n\n            // Distribute the 20% of the jackpot according to amount that supporter bet in game\n            // This is to avoid a bettor for claiming winings if he/she did not bet\n            winningsETH = winningsETH.mul(betAmount).div(totalBets);\n            winningsKTY = winningsKTY.mul(betAmount).div(totalBets);\n        }\n    }\n\n    function getEndowmentShare(uint gameId) public view returns(uint256 winningsETH, uint256 winningsKTY){\n        uint256 totalEthFunds = endowmentDB.getHoneypotTotalETH(gameId);\n        uint256 totalKTYFunds = endowmentDB.getHoneypotTotalKTY(gameId);\n\n        uint256[5] memory rates = gameStore.getDistributionRates(gameId);\n        \n        winningsETH = (totalEthFunds.mul(rates[4])).div(100);\n        winningsKTY = (totalKTYFunds.mul(rates[4])).div(100);\n    }\n\n    function checkWinnerCategory\n    (\n        uint gameId, address payable claimer,\n        address winner\n    )\n        public view\n        returns(uint256 winningGroup)\n    {\n        // Winning Player\n        if (winner == claimer) return 0;\n\n        // Winning Top Bettor\n        if (gameStore.getTopBettor(gameId, winner) == claimer) return 1;\n\n        // Winning SecondTop Bettor\n        if (gameStore.getSecondTopBettor(gameId, winner) == claimer) return 2;\n\n        // Winning Other Bettors List\n        return 3;\n    }\n\n\n}",
  "sourcePath": "/home/wafflemakr/Desktop/KittieFight/alpha/contracts/modules/endowment/Distribution.sol",
  "compiler": {
    "name": "solc",
    "version": "0.5.10+commit.5a6ea5b1.Emscripten.clang"
  },
  "schemaVersion": "3.0.11",
  "updatedAt": "2019-08-01T22:46:13.373Z",
  "devdoc": {
    "author": "@wafflemakr @hamaad",
    "details": "The distribution contract allows the endowmentfund contract to properly distribute Eth and KTY tokens funds, from each games honeypot to all winners in a game according to the scheduled percentage.",
    "methods": {
      "initialize()": {
        "details": "Sets related contractsCan be called only by the owner of this contract"
      }
    },
    "title": "Distribution Contract"
  },
  "userdoc": {
    "methods": {
      "getWinnerShare(uint256,address)": {
        "notice": "Calculates amount of Eth the winner can claim"
      },
      "setProxy(address)": {
        "notice": "Set/update address of Proxy contract"
      }
    }
  }
}