{
  "contractName": "Distribution",
  "abi": [
    {
      "constant": true,
      "inputs": [],
      "name": "endowmentDB",
      "outputs": [
        {
          "internalType": "contract EndowmentDB",
          "name": "",
          "type": "address"
        }
      ],
      "payable": false,
      "stateMutability": "view",
      "type": "function"
    },
    {
      "constant": true,
      "inputs": [],
      "name": "gameStore",
      "outputs": [
        {
          "internalType": "contract GameStore",
          "name": "",
          "type": "address"
        }
      ],
      "payable": false,
      "stateMutability": "view",
      "type": "function"
    },
    {
      "constant": true,
      "inputs": [],
      "name": "gameVarAndFee",
      "outputs": [
        {
          "internalType": "contract GameVarAndFee",
          "name": "",
          "type": "address"
        }
      ],
      "payable": false,
      "stateMutability": "view",
      "type": "function"
    },
    {
      "constant": true,
      "inputs": [],
      "name": "gmGetterDB",
      "outputs": [
        {
          "internalType": "contract GMGetterDB",
          "name": "",
          "type": "address"
        }
      ],
      "payable": false,
      "stateMutability": "view",
      "type": "function"
    },
    {
      "constant": true,
      "inputs": [],
      "name": "kittieFightToken",
      "outputs": [
        {
          "internalType": "contract ERC20Standard",
          "name": "",
          "type": "address"
        }
      ],
      "payable": false,
      "stateMutability": "view",
      "type": "function"
    },
    {
      "constant": true,
      "inputs": [],
      "name": "owner",
      "outputs": [
        {
          "internalType": "address payable",
          "name": "",
          "type": "address"
        }
      ],
      "payable": false,
      "stateMutability": "view",
      "type": "function"
    },
    {
      "constant": true,
      "inputs": [],
      "name": "proxy",
      "outputs": [
        {
          "internalType": "contract ProxyBase",
          "name": "",
          "type": "address"
        }
      ],
      "payable": false,
      "stateMutability": "view",
      "type": "function"
    },
    {
      "constant": false,
      "inputs": [
        {
          "internalType": "contract ProxyBase",
          "name": "_proxy",
          "type": "address"
        }
      ],
      "name": "setProxy",
      "outputs": [],
      "payable": false,
      "stateMutability": "nonpayable",
      "type": "function"
    },
    {
      "constant": false,
      "inputs": [
        {
          "internalType": "address payable",
          "name": "newOwner",
          "type": "address"
        }
      ],
      "name": "transferOwnership",
      "outputs": [],
      "payable": false,
      "stateMutability": "nonpayable",
      "type": "function"
    },
    {
      "constant": false,
      "inputs": [],
      "name": "initialize",
      "outputs": [],
      "payable": false,
      "stateMutability": "nonpayable",
      "type": "function"
    },
    {
      "constant": true,
      "inputs": [
        {
          "internalType": "uint256",
          "name": "gameId",
          "type": "uint256"
        },
        {
          "internalType": "address payable",
          "name": "claimer",
          "type": "address"
        }
      ],
      "name": "getWinnerShare",
      "outputs": [
        {
          "internalType": "uint256",
          "name": "winningsETH",
          "type": "uint256"
        },
        {
          "internalType": "uint256",
          "name": "winningsKTY",
          "type": "uint256"
        }
      ],
      "payable": false,
      "stateMutability": "view",
      "type": "function"
    },
    {
      "constant": true,
      "inputs": [
        {
          "internalType": "uint256",
          "name": "gameId",
          "type": "uint256"
        }
      ],
      "name": "getEndowmentShare",
      "outputs": [
        {
          "internalType": "uint256",
          "name": "winningsETH",
          "type": "uint256"
        },
        {
          "internalType": "uint256",
          "name": "winningsKTY",
          "type": "uint256"
        }
      ],
      "payable": false,
      "stateMutability": "view",
      "type": "function"
    },
    {
      "constant": true,
      "inputs": [
        {
          "internalType": "uint256",
          "name": "gameId",
          "type": "uint256"
        },
        {
          "internalType": "address payable",
          "name": "claimer",
          "type": "address"
        },
        {
          "internalType": "address",
          "name": "winner",
          "type": "address"
        }
      ],
      "name": "checkWinnerCategory",
      "outputs": [
        {
          "internalType": "uint256",
          "name": "winningGroup",
          "type": "uint256"
        }
      ],
      "payable": false,
      "stateMutability": "view",
      "type": "function"
    },
    {
      "constant": true,
      "inputs": [
        {
          "internalType": "uint256",
          "name": "gameId",
          "type": "uint256"
        }
      ],
      "name": "getWinnerLoser",
      "outputs": [
        {
          "internalType": "address",
          "name": "winner",
          "type": "address"
        },
        {
          "internalType": "address",
          "name": "loser",
          "type": "address"
        },
        {
          "internalType": "uint256",
          "name": "totalBetsForLosingCorner",
          "type": "uint256"
        }
      ],
      "payable": false,
      "stateMutability": "view",
      "type": "function"
    }
  ],
  "bytecode": "0x6080604052336000806101000a81548173ffffffffffffffffffffffffffffffffffffffff021916908373ffffffffffffffffffffffffffffffffffffffff1602179055506124d0806100536000396000f3fe608060405234801561001057600080fd5b50600436106100ea5760003560e01c80638da5cb5b1161008c578063a3b3bd7b11610066578063a3b3bd7b14610441578063b1be64691461048b578063ec556889146104d5578063f2fde38b1461051f576100ea565b80638da5cb5b1461034a57806397107d6d146103945780639ebf616a146103d8576100ea565b80635d06fc01116100c85780635d06fc011461022a5780635e37283b1461027457806363c0c46e146102f65780638129fc1c14610340576100ea565b80631fc75180146100ef57806328d0ab5814610139578063400cbf6d14610182575b600080fd5b6100f7610563565b604051808273ffffffffffffffffffffffffffffffffffffffff1673ffffffffffffffffffffffffffffffffffffffff16815260200191505060405180910390f35b6101656004803603602081101561014f57600080fd5b8101908080359060200190929190505050610589565b604051808381526020018281526020019250505060405180910390f35b6101ae6004803603602081101561019857600080fd5b81019080803590602001909291905050506108a7565b604051808473ffffffffffffffffffffffffffffffffffffffff1673ffffffffffffffffffffffffffffffffffffffff1681526020018373ffffffffffffffffffffffffffffffffffffffff1673ffffffffffffffffffffffffffffffffffffffff168152602001828152602001935050505060405180910390f35b610232610b44565b604051808273ffffffffffffffffffffffffffffffffffffffff1673ffffffffffffffffffffffffffffffffffffffff16815260200191505060405180910390f35b6102e06004803603606081101561028a57600080fd5b8101908080359060200190929190803573ffffffffffffffffffffffffffffffffffffffff169060200190929190803573ffffffffffffffffffffffffffffffffffffffff169060200190929190505050610b6a565b6040518082815260200191505060405180910390f35b6102fe610df1565b604051808273ffffffffffffffffffffffffffffffffffffffff1673ffffffffffffffffffffffffffffffffffffffff16815260200191505060405180910390f35b610348610e17565b005b610352611617565b604051808273ffffffffffffffffffffffffffffffffffffffff1673ffffffffffffffffffffffffffffffffffffffff16815260200191505060405180910390f35b6103d6600480360360208110156103aa57600080fd5b81019080803573ffffffffffffffffffffffffffffffffffffffff16906020019092919050505061163c565b005b610424600480360360408110156103ee57600080fd5b8101908080359060200190929190803573ffffffffffffffffffffffffffffffffffffffff1690602001909291905050506116d6565b604051808381526020018281526020019250505060405180910390f35b6104496119f9565b604051808273ffffffffffffffffffffffffffffffffffffffff1673ffffffffffffffffffffffffffffffffffffffff16815260200191505060405180910390f35b610493611a1f565b604051808273ffffffffffffffffffffffffffffffffffffffff1673ffffffffffffffffffffffffffffffffffffffff16815260200191505060405180910390f35b6104dd611a45565b604051808273ffffffffffffffffffffffffffffffffffffffff1673ffffffffffffffffffffffffffffffffffffffff16815260200191505060405180910390f35b6105616004803603602081101561053557600080fd5b81019080803573ffffffffffffffffffffffffffffffffffffffff169060200190929190505050611a6b565b005b600360009054906101000a900473ffffffffffffffffffffffffffffffffffffffff1681565b6000806000600360009054906101000a900473ffffffffffffffffffffffffffffffffffffffff1673ffffffffffffffffffffffffffffffffffffffff1663525a8e4e856040518263ffffffff1660e01b815260040180828152602001915050604080518083038186803b15801561060057600080fd5b505afa158015610614573d6000803e3d6000fd5b505050506040513d604081101561062a57600080fd5b810190808051906020019092919080519060200190929190505050915050610650612457565b600660009054906101000a900473ffffffffffffffffffffffffffffffffffffffff1673ffffffffffffffffffffffffffffffffffffffff16636991b5bf866040518263ffffffff1660e01b81526004018082815260200191505060a06040518083038186803b1580156106c357600080fd5b505afa1580156106d7573d6000803e3d6000fd5b505050506040513d601f19601f8201168201806040525060a08110156106fc57600080fd5b810190809190505090506000600360009054906101000a900473ffffffffffffffffffffffffffffffffffffffff1673ffffffffffffffffffffffffffffffffffffffff1663589ac6a4876040518263ffffffff1660e01b8152600401808281526020019150506101006040518083038186803b15801561077c57600080fd5b505afa158015610790573d6000803e3d6000fd5b505050506040513d601f19601f820116820180604052506101008110156107b657600080fd5b8101908080519060200190929190805190602001909291908051906020019092919080519060200190929190919082604001805190602001909291908051906020019092919050505050505050925050506000610812876108a7565b92505050610861610852620f42406108448660046005811061083057fe5b602002015185611b3990919063ffffffff16565b611b7090919063ffffffff16565b83611b8990919063ffffffff16565b955061089c620f424061088e8560046005811061087a57fe5b602002015187611b3990919063ffffffff16565b611b7090919063ffffffff16565b945050505050915091565b6000806000600360009054906101000a900473ffffffffffffffffffffffffffffffffffffffff1673ffffffffffffffffffffffffffffffffffffffff16636b1426a4856040518263ffffffff1660e01b81526004018082815260200191505060606040518083038186803b15801561091f57600080fd5b505afa158015610933573d6000803e3d6000fd5b505050506040513d606081101561094957600080fd5b8101908080519060200190929190805190602001909291908051906020019092919050505090505080935050600660009054906101000a900473ffffffffffffffffffffffffffffffffffffffff1673ffffffffffffffffffffffffffffffffffffffff166331fa706785856040518363ffffffff1660e01b8152600401808381526020018273ffffffffffffffffffffffffffffffffffffffff1673ffffffffffffffffffffffffffffffffffffffff1681526020019250505060206040518083038186803b158015610a1c57600080fd5b505afa158015610a30573d6000803e3d6000fd5b505050506040513d6020811015610a4657600080fd5b81019080805190602001909291905050509150600360009054906101000a900473ffffffffffffffffffffffffffffffffffffffff1673ffffffffffffffffffffffffffffffffffffffff1663bacf524e85846040518363ffffffff1660e01b8152600401808381526020018273ffffffffffffffffffffffffffffffffffffffff1673ffffffffffffffffffffffffffffffffffffffff1681526020019250505060206040518083038186803b158015610b0057600080fd5b505afa158015610b14573d6000803e3d6000fd5b505050506040513d6020811015610b2a57600080fd5b810190808051906020019092919050505090509193909250565b600460009054906101000a900473ffffffffffffffffffffffffffffffffffffffff1681565b60008273ffffffffffffffffffffffffffffffffffffffff168273ffffffffffffffffffffffffffffffffffffffff161415610ba95760009050610dea565b8273ffffffffffffffffffffffffffffffffffffffff16600660009054906101000a900473ffffffffffffffffffffffffffffffffffffffff1673ffffffffffffffffffffffffffffffffffffffff166316805a2986856040518363ffffffff1660e01b8152600401808381526020018273ffffffffffffffffffffffffffffffffffffffff1673ffffffffffffffffffffffffffffffffffffffff1681526020019250505060206040518083038186803b158015610c6757600080fd5b505afa158015610c7b573d6000803e3d6000fd5b505050506040513d6020811015610c9157600080fd5b810190808051906020019092919050505073ffffffffffffffffffffffffffffffffffffffff161415610cc75760019050610dea565b8273ffffffffffffffffffffffffffffffffffffffff16600660009054906101000a900473ffffffffffffffffffffffffffffffffffffffff1673ffffffffffffffffffffffffffffffffffffffff16635f87206d86856040518363ffffffff1660e01b8152600401808381526020018273ffffffffffffffffffffffffffffffffffffffff1673ffffffffffffffffffffffffffffffffffffffff1681526020019250505060206040518083038186803b158015610d8557600080fd5b505afa158015610d99573d6000803e3d6000fd5b505050506040513d6020811015610daf57600080fd5b810190808051906020019092919050505073ffffffffffffffffffffffffffffffffffffffff161415610de55760029050610dea565b600390505b9392505050565b600560009054906101000a900473ffffffffffffffffffffffffffffffffffffffff1681565b6000809054906101000a900473ffffffffffffffffffffffffffffffffffffffff1673ffffffffffffffffffffffffffffffffffffffff163373ffffffffffffffffffffffffffffffffffffffff1614610e6d57fe5b600160009054906101000a900473ffffffffffffffffffffffffffffffffffffffff1673ffffffffffffffffffffffffffffffffffffffff1663358177736040518060400160405280600b81526020017f456e646f776d656e7444420000000000000000000000000000000000000000008152506040518263ffffffff1660e01b81526004018080602001828103825283818151815260200191508051906020019080838360005b83811015610f30578082015181840152602081019050610f15565b50505050905090810190601f168015610f5d5780820380516001836020036101000a031916815260200191505b509250505060206040518083038186803b158015610f7a57600080fd5b505afa158015610f8e573d6000803e3d6000fd5b505050506040513d6020811015610fa457600080fd5b8101908080519060200190929190505050600460006101000a81548173ffffffffffffffffffffffffffffffffffffffff021916908373ffffffffffffffffffffffffffffffffffffffff160217905550600160009054906101000a900473ffffffffffffffffffffffffffffffffffffffff1673ffffffffffffffffffffffffffffffffffffffff1663358177736040518060400160405280600d81526020017f47616d65566172416e64466565000000000000000000000000000000000000008152506040518263ffffffff1660e01b81526004018080602001828103825283818151815260200191508051906020019080838360005b838110156110b857808201518184015260208101905061109d565b50505050905090810190601f1680156110e55780820380516001836020036101000a031916815260200191505b509250505060206040518083038186803b15801561110257600080fd5b505afa158015611116573d6000803e3d6000fd5b505050506040513d602081101561112c57600080fd5b8101908080519060200190929190505050600260006101000a81548173ffffffffffffffffffffffffffffffffffffffff021916908373ffffffffffffffffffffffffffffffffffffffff160217905550600160009054906101000a900473ffffffffffffffffffffffffffffffffffffffff1673ffffffffffffffffffffffffffffffffffffffff1663358177736040518060400160405280601081526020017f4b69747469654669676874546f6b656e000000000000000000000000000000008152506040518263ffffffff1660e01b81526004018080602001828103825283818151815260200191508051906020019080838360005b83811015611240578082015181840152602081019050611225565b50505050905090810190601f16801561126d5780820380516001836020036101000a031916815260200191505b509250505060206040518083038186803b15801561128a57600080fd5b505afa15801561129e573d6000803e3d6000fd5b505050506040513d60208110156112b457600080fd5b8101908080519060200190929190505050600560006101000a81548173ffffffffffffffffffffffffffffffffffffffff021916908373ffffffffffffffffffffffffffffffffffffffff160217905550600160009054906101000a900473ffffffffffffffffffffffffffffffffffffffff1673ffffffffffffffffffffffffffffffffffffffff1663358177736040518060400160405280600981526020017f47616d6553746f726500000000000000000000000000000000000000000000008152506040518263ffffffff1660e01b81526004018080602001828103825283818151815260200191508051906020019080838360005b838110156113c85780820151818401526020810190506113ad565b50505050905090810190601f1680156113f55780820380516001836020036101000a031916815260200191505b509250505060206040518083038186803b15801561141257600080fd5b505afa158015611426573d6000803e3d6000fd5b505050506040513d602081101561143c57600080fd5b8101908080519060200190929190505050600660006101000a81548173ffffffffffffffffffffffffffffffffffffffff021916908373ffffffffffffffffffffffffffffffffffffffff160217905550600160009054906101000a900473ffffffffffffffffffffffffffffffffffffffff1673ffffffffffffffffffffffffffffffffffffffff1663358177736040518060400160405280600a81526020017f474d4765747465724442000000000000000000000000000000000000000000008152506040518263ffffffff1660e01b81526004018080602001828103825283818151815260200191508051906020019080838360005b83811015611550578082015181840152602081019050611535565b50505050905090810190601f16801561157d5780820380516001836020036101000a031916815260200191505b509250505060206040518083038186803b15801561159a57600080fd5b505afa1580156115ae573d6000803e3d6000fd5b505050506040513d60208110156115c457600080fd5b8101908080519060200190929190505050600360006101000a81548173ffffffffffffffffffffffffffffffffffffffff021916908373ffffffffffffffffffffffffffffffffffffffff160217905550565b6000809054906101000a900473ffffffffffffffffffffffffffffffffffffffff1681565b6000809054906101000a900473ffffffffffffffffffffffffffffffffffffffff1673ffffffffffffffffffffffffffffffffffffffff163373ffffffffffffffffffffffffffffffffffffffff161461169257fe5b80600160006101000a81548173ffffffffffffffffffffffffffffffffffffffff021916908373ffffffffffffffffffffffffffffffffffffffff16021790555050565b6000806000806116e5866108a7565b9250509150600073ffffffffffffffffffffffffffffffffffffffff168273ffffffffffffffffffffffffffffffffffffffff16141561172457600080fd5b600080600360009054906101000a900473ffffffffffffffffffffffffffffffffffffffff1673ffffffffffffffffffffffffffffffffffffffff16630b154c9689896040518363ffffffff1660e01b8152600401808381526020018273ffffffffffffffffffffffffffffffffffffffff1673ffffffffffffffffffffffffffffffffffffffff1681526020019250505060806040518083038186803b1580156117ce57600080fd5b505afa1580156117e2573d6000803e3d6000fd5b505050506040513d60808110156117f857600080fd5b81019080805190602001909291908051906020019092919080519060200190929190805190602001909291905050505050915091508373ffffffffffffffffffffffffffffffffffffffff168773ffffffffffffffffffffffffffffffffffffffff161415801561189557508373ffffffffffffffffffffffffffffffffffffffff168173ffffffffffffffffffffffffffffffffffffffff1614155b156118b05760008081915080905095509550505050506119f2565b60006118bd898987610b6a565b90508473ffffffffffffffffffffffffffffffffffffffff168873ffffffffffffffffffffffffffffffffffffffff1614156119d857600360009054906101000a900473ffffffffffffffffffffffffffffffffffffffff1673ffffffffffffffffffffffffffffffffffffffff1663dd99717d8a8a6040518363ffffffff1660e01b8152600401808381526020018273ffffffffffffffffffffffffffffffffffffffff1673ffffffffffffffffffffffffffffffffffffffff1681526020019250505060206040518083038186803b15801561199a57600080fd5b505afa1580156119ae573d6000803e3d6000fd5b505050506040513d60208110156119c457600080fd5b810190808051906020019092919050505092505b6119e48482858c611ba5565b809750819850505050505050505b9250929050565b600260009054906101000a900473ffffffffffffffffffffffffffffffffffffffff1681565b600660009054906101000a900473ffffffffffffffffffffffffffffffffffffffff1681565b600160009054906101000a900473ffffffffffffffffffffffffffffffffffffffff1681565b6000809054906101000a900473ffffffffffffffffffffffffffffffffffffffff1673ffffffffffffffffffffffffffffffffffffffff163373ffffffffffffffffffffffffffffffffffffffff1614611ac157fe5b600073ffffffffffffffffffffffffffffffffffffffff168173ffffffffffffffffffffffffffffffffffffffff1614611b3657806000806101000a81548173ffffffffffffffffffffffffffffffffffffffff021916908373ffffffffffffffffffffffffffffffffffffffff1602179055505b50565b600080831415611b4c5760009050611b6a565b6000828402905082848281611b5d57fe5b0414611b6557fe5b809150505b92915050565b600080828481611b7c57fe5b0490508091505092915050565b600080828401905083811015611b9b57fe5b8091505092915050565b600080611bb0612457565b600660009054906101000a900473ffffffffffffffffffffffffffffffffffffffff1673ffffffffffffffffffffffffffffffffffffffff16636991b5bf856040518263ffffffff1660e01b81526004018082815260200191505060a06040518083038186803b158015611c2357600080fd5b505afa158015611c37573d6000803e3d6000fd5b505050506040513d601f19601f8201168201806040525060a0811015611c5c57600080fd5b810190809190505090506000600360009054906101000a900473ffffffffffffffffffffffffffffffffffffffff1673ffffffffffffffffffffffffffffffffffffffff1663525a8e4e866040518263ffffffff1660e01b815260040180828152602001915050604080518083038186803b158015611cda57600080fd5b505afa158015611cee573d6000803e3d6000fd5b505050506040513d6040811015611d0457600080fd5b8101908080519060200190929190805190602001909291905050509150506000611d5c620f4240611d4e858b60058110611d3a57fe5b60200201518c611b3990919063ffffffff16565b611b7090919063ffffffff16565b90506000611d98620f4240611d8a868c60058110611d7657fe5b602002015186611b3990919063ffffffff16565b611b7090919063ffffffff16565b90506003891415611dbc57611daf81838a8a611de2565b9550955050505050611dd9565b611dcf8289611b8990919063ffffffff16565b8195509550505050505b94509492505050565b600080611ded612479565b600360009054906101000a900473ffffffffffffffffffffffffffffffffffffffff1673ffffffffffffffffffffffffffffffffffffffff16636b1426a4856040518263ffffffff1660e01b81526004018082815260200191505060606040518083038186803b158015611e6057600080fd5b505afa158015611e74573d6000803e3d6000fd5b505050506040513d6060811015611e8a57600080fd5b8101908080519060200190929190805190602001909291908051906020019092919050505083600060038110611ebc57fe5b6020020184600160038110611ecd57fe5b6020020185600260038110611ede57fe5b602002018373ffffffffffffffffffffffffffffffffffffffff1673ffffffffffffffffffffffffffffffffffffffff168152508373ffffffffffffffffffffffffffffffffffffffff1673ffffffffffffffffffffffffffffffffffffffff168152508373ffffffffffffffffffffffffffffffffffffffff1673ffffffffffffffffffffffffffffffffffffffff168152505050506000600360009054906101000a900473ffffffffffffffffffffffffffffffffffffffff1673ffffffffffffffffffffffffffffffffffffffff16630b154c968684600160038110611fc357fe5b60200201516040518363ffffffff1660e01b8152600401808381526020018273ffffffffffffffffffffffffffffffffffffffff1673ffffffffffffffffffffffffffffffffffffffff1681526020019250505060806040518083038186803b15801561202f57600080fd5b505afa158015612043573d6000803e3d6000fd5b505050506040513d608081101561205957600080fd5b810190808051906020019092919080519060200190929190805190602001909291908051906020019092919050505050505090506000600360009054906101000a900473ffffffffffffffffffffffffffffffffffffffff1673ffffffffffffffffffffffffffffffffffffffff16630b154c9687856002600381106120db57fe5b60200201516040518363ffffffff1660e01b8152600401808381526020018273ffffffffffffffffffffffffffffffffffffffff1673ffffffffffffffffffffffffffffffffffffffff1681526020019250505060806040518083038186803b15801561214757600080fd5b505afa15801561215b573d6000803e3d6000fd5b505050506040513d608081101561217157600080fd5b810190808051906020019092919080519060200190929190805190602001909291908051906020019092919050505050505090506000600360009054906101000a900473ffffffffffffffffffffffffffffffffffffffff1673ffffffffffffffffffffffffffffffffffffffff1663dd99717d88866000600381106121f357fe5b60200201516040518363ffffffff1660e01b8152600401808381526020018273ffffffffffffffffffffffffffffffffffffffff1673ffffffffffffffffffffffffffffffffffffffff1681526020019250505060206040518083038186803b15801561225f57600080fd5b505afa158015612273573d6000803e3d6000fd5b505050506040513d602081101561228957600080fd5b810190808051906020019092919050505090506000600360009054906101000a900473ffffffffffffffffffffffffffffffffffffffff1673ffffffffffffffffffffffffffffffffffffffff1663bacf524e89876000600381106122ea57fe5b60200201516040518363ffffffff1660e01b8152600401808381526020018273ffffffffffffffffffffffffffffffffffffffff1673ffffffffffffffffffffffffffffffffffffffff1681526020019250505060206040518083038186803b15801561235657600080fd5b505afa15801561236a573d6000803e3d6000fd5b505050506040513d602081101561238057600080fd5b810190808051906020019092919050505090506123ca826123bc856123ae888661244090919063ffffffff16565b61244090919063ffffffff16565b61244090919063ffffffff16565b90506123f1816123e38b8d611b3990919063ffffffff16565b611b7090919063ffffffff16565b99506124188161240a8b8e611b3990919063ffffffff16565b611b7090919063ffffffff16565b9a5061242d8a8a611b8990919063ffffffff16565b8b96509650505050505094509492505050565b60008282111561244c57fe5b818303905092915050565b6040518060a00160405280600590602082028038833980820191505090505090565b604051806060016040528060039060208202803883398082019150509050509056fea265627a7a723158201cb77929338a87335a377f38ae8ca51edc07ee1561941b2a47ff874742438b2664736f6c63430005110032",
  "source": "\n// This program is free software: you can redistribute it and/or modify\n// it under the terms of the GNU General Public License as published by\n// the Free Software Foundation, either version 3 of the License, or\n// (at your option) any later version.\n\n// This program is distributed in the hope that it will be useful,\n// but WITHOUT ANY WARRANTY; without even the implied warranty of\n// MERCHANTABILITY or FITNESS FOR A PARTICULAR PURPOSE.  See the\n// GNU General Public License for more details.\n\n// You should have received a copy of the GNU General Public License\n// along with this program.  If not, see <http://www.gnu.org/licenses/>.\n\npragma solidity ^0.5.5;\n\n\nimport '../../GameVarAndFee.sol';\nimport '../proxy/Proxied.sol';\nimport '../../libs/SafeMath.sol';\nimport '../databases/GMGetterDB.sol';\nimport \"../databases/EndowmentDB.sol\";\nimport \"../../interfaces/ERC20Standard.sol\";\nimport \"./Escrow.sol\";\nimport \"../gamemanager/GameStore.sol\";\nimport \"../../CronJob.sol\";\n\n/**\n * @title Distribution Contract\n * @dev The distribution contract allows the endowmentfund contract to properly distribute\n * Eth and KTY tokens funds, from each games honeypot to all winners in a game according\n * to the scheduled percentage.\n * @author @wafflemakr @hamaad\n */\ncontract Distribution is Proxied {\n\n    using SafeMath for uint256;\n\n    GameVarAndFee public gameVarAndFee;\n    GMGetterDB public gmGetterDB;\n    EndowmentDB public endowmentDB;\n    ERC20Standard public kittieFightToken;\n    GameStore public gameStore;\n\n    /**\n    * @dev Sets related contracts\n    * @dev Can be called only by the owner of this contract\n    */\n    function initialize() external onlyOwner {\n        endowmentDB = EndowmentDB(proxy.getContract(CONTRACT_NAME_ENDOWMENT_DB));\n        gameVarAndFee = GameVarAndFee(proxy.getContract(CONTRACT_NAME_GAMEVARANDFEE));\n        kittieFightToken = ERC20Standard(proxy.getContract(CONTRACT_NAME_KITTIEFIGHTOKEN));\n        gameStore = GameStore(proxy.getContract(CONTRACT_NAME_GAMESTORE));\n        gmGetterDB = GMGetterDB(proxy.getContract(CONTRACT_NAME_GM_GETTER_DB));\n    }\n\n    /**\n     * @notice Calculates amount of Eth the winner can claim\n     */\n    function getWinnerShare(uint256 gameId, address payable claimer)\n        public view\n        returns(uint256 winningsETH, uint256 winningsKTY)\n    {\n        (address winner, /*address loser*/, uint256 totalBetsForLosingCorner) = getWinnerLoser(gameId);\n\n        require(winner != address(0));\n\n        (uint256 bet, address supportedPlayer,,) = gmGetterDB.getSupporterInfo(gameId, claimer);\n\n        // If its not the winning player or part of the bettors of the winning corner\n        if(claimer != winner && supportedPlayer != winner) return (0,0);\n \n        uint256 winningCategory = checkWinnerCategory(gameId, claimer, winner);\n\n        if (claimer == winner)\n            bet = gmGetterDB.getPlayerBet(gameId, claimer);\n\n        (winningsETH, winningsKTY) = calculator(totalBetsForLosingCorner, winningCategory, bet, gameId);\n    }\n\n    function calculator(uint256 totalBetsForLosingCorner, uint256 winningCategory, uint256 bet, uint256 gameId)\n        internal view\n        returns(uint256, uint256)\n    {\n        uint256[5] memory rates = gameStore.getDistributionRates(gameId);\n        (, uint256 totalKTYFunds) = gmGetterDB.getFinalHoneypot(gameId);\n\n        uint256 winningsETH = (totalBetsForLosingCorner.mul(rates[winningCategory])).div(1000000); //1,000,000 is the percentage base\n        uint256 winningsKTY = (totalKTYFunds.mul(rates[winningCategory])).div(1000000); //1,000,000 is the percentage base\n\n        //Other bettors winnings\n        if (winningCategory == 3){\n            return getOtherWinnersShare(winningsKTY, winningsETH, bet, gameId);\n        }\n        else {\n            return (bet.add(winningsETH), winningsKTY);\n        }\n    }\n\n    function getOtherWinnersShare(uint256 winningsKTY, uint256 winningsETH, uint256 bet,\n        uint256 gameId)\n        internal view\n        returns(uint256, uint256)\n    {\n        address[3] memory winners;\n        (winners[0], winners[1], winners[2]) = gmGetterDB.getWinners(gameId);\n        (uint256 betAmountTop,,,) = gmGetterDB.getSupporterInfo(gameId, winners[1]);\n        (uint256 betAmountSecondTop,,,) = gmGetterDB.getSupporterInfo(gameId, winners[2]);\n\n        //getPlayerBet\n        uint256 playerBet = gmGetterDB.getPlayerBet(gameId, winners[0]);\n\n        //get other supporters totalBets for winning side\n        uint256 totalBets = gmGetterDB.getTotalBet(gameId, winners[0]);\n\n        //Remove top and secondTop total bets\n        totalBets = totalBets.sub(betAmountTop).sub(betAmountSecondTop).sub(playerBet);\n        winningsETH = winningsETH.mul(bet).div(totalBets);\n        winningsKTY = winningsKTY.mul(bet).div(totalBets);\n\n        // Distribute the 20% of the jackpot according to amount that supporter bet in game\n        // This is to avoid a bettor for claiming winings if he/she did not bet\n        return (bet.add(winningsETH), winningsKTY);\n    }\n\n\n    function getEndowmentShare(uint gameId) public view returns(uint256 winningsETH, uint256 winningsKTY){\n        (/*uint256 totalEthFunds*/, uint256 totalKTYFunds) = gmGetterDB.getFinalHoneypot(gameId);\n\n        uint256[5] memory rates = gameStore.getDistributionRates(gameId);\n        (,, uint initialEth,,,,) = gmGetterDB.getHoneypotInfo(gameId);\n\n        (/*address winner*/, /*address loser*/, uint256 totalBetsForLosingCorner) = getWinnerLoser(gameId);\n\n        winningsETH = initialEth.add(totalBetsForLosingCorner.mul(rates[4]).div(1000000)); //1,000,000 is the percentage base\n        winningsKTY = (totalKTYFunds.mul(rates[4])).div(1000000); //1,000,000 is the percentage base\n    }\n\n    function checkWinnerCategory\n    (\n        uint gameId, address payable claimer,\n        address winner\n    )\n        public view\n        returns(uint256 winningGroup)\n    {\n        // Winning Player\n        if (winner == claimer) return 0;\n\n        // Winning Top Bettor\n        if (gameStore.getTopBettor(gameId, winner) == claimer) return 1;\n\n        // Winning SecondTop Bettor\n        if (gameStore.getSecondTopBettor(gameId, winner) == claimer) return 2;\n\n        // Winning Other Bettors List\n        return 3;\n    }\n\n    function getWinnerLoser(uint256 gameId)\n        public view\n        returns(address winner, address loser, uint256 totalBetsForLosingCorner)\n    {\n        (winner,,) = gmGetterDB.getWinners(gameId);\n        loser = gameStore.getOpponent(gameId, winner);\n        totalBetsForLosingCorner = gmGetterDB.getTotalBet(gameId, loser);\n    }\n}",
  "sourcePath": "/Users/ziweizhang/Desktop/EarningsTracker/alpha/contracts/modules/endowment/Distribution.sol",
  "compiler": {
    "name": "solc",
    "version": "0.5.17+commit.d19bba13.Emscripten.clang"
  },
  "schemaVersion": "3.0.23",
  "updatedAt": "2020-04-15T16:40:47.554Z",
  "devdoc": {
    "author": "@wafflemakr @hamaad",
    "details": "The distribution contract allows the endowmentfund contract to properly distribute Eth and KTY tokens funds, from each games honeypot to all winners in a game according to the scheduled percentage.",
    "methods": {
      "initialize()": {
        "details": "Sets related contractsCan be called only by the owner of this contract"
      }
    },
    "title": "Distribution Contract"
  },
  "userdoc": {
    "methods": {
      "getWinnerShare(uint256,address)": {
        "notice": "Calculates amount of Eth the winner can claim"
      },
      "setProxy(address)": {
        "notice": "Set/update address of Proxy contract"
      }
    }
  }
}