{
  "contractName": "Distribution",
  "abi": [
    {
      "constant": true,
      "inputs": [],
      "name": "endowmentDB",
      "outputs": [
        {
          "internalType": "contract EndowmentDB",
          "name": "",
          "type": "address"
        }
      ],
      "payable": false,
      "stateMutability": "view",
      "type": "function"
    },
    {
      "constant": true,
      "inputs": [],
      "name": "gameStore",
      "outputs": [
        {
          "internalType": "contract GameStore",
          "name": "",
          "type": "address"
        }
      ],
      "payable": false,
      "stateMutability": "view",
      "type": "function"
    },
    {
      "constant": true,
      "inputs": [],
      "name": "gameVarAndFee",
      "outputs": [
        {
          "internalType": "contract GameVarAndFee",
          "name": "",
          "type": "address"
        }
      ],
      "payable": false,
      "stateMutability": "view",
      "type": "function"
    },
    {
      "constant": true,
      "inputs": [],
      "name": "gmGetterDB",
      "outputs": [
        {
          "internalType": "contract GMGetterDB",
          "name": "",
          "type": "address"
        }
      ],
      "payable": false,
      "stateMutability": "view",
      "type": "function"
    },
    {
      "constant": true,
      "inputs": [],
      "name": "kittieFightToken",
      "outputs": [
        {
          "internalType": "contract ERC20Standard",
          "name": "",
          "type": "address"
        }
      ],
      "payable": false,
      "stateMutability": "view",
      "type": "function"
    },
    {
      "constant": true,
      "inputs": [],
      "name": "multiSig",
      "outputs": [
        {
          "internalType": "contract Multisig5of12",
          "name": "",
          "type": "address"
        }
      ],
      "payable": false,
      "stateMutability": "view",
      "type": "function"
    },
    {
      "constant": true,
      "inputs": [],
      "name": "owner",
      "outputs": [
        {
          "internalType": "address payable",
          "name": "",
          "type": "address"
        }
      ],
      "payable": false,
      "stateMutability": "view",
      "type": "function"
    },
    {
      "constant": true,
      "inputs": [],
      "name": "proxy",
      "outputs": [
        {
          "internalType": "contract ProxyBase",
          "name": "",
          "type": "address"
        }
      ],
      "payable": false,
      "stateMutability": "view",
      "type": "function"
    },
    {
      "constant": false,
      "inputs": [
        {
          "internalType": "contract ProxyBase",
          "name": "_proxy",
          "type": "address"
        }
      ],
      "name": "setProxy",
      "outputs": [],
      "payable": false,
      "stateMutability": "nonpayable",
      "type": "function"
    },
    {
      "constant": false,
      "inputs": [
        {
          "internalType": "address payable",
          "name": "newOwner",
          "type": "address"
        }
      ],
      "name": "transferOwnership",
      "outputs": [],
      "payable": false,
      "stateMutability": "nonpayable",
      "type": "function"
    },
    {
      "constant": false,
      "inputs": [],
      "name": "initialize",
      "outputs": [],
      "payable": false,
      "stateMutability": "nonpayable",
      "type": "function"
    },
    {
      "constant": true,
      "inputs": [
        {
          "internalType": "uint256",
          "name": "gameId",
          "type": "uint256"
        },
        {
          "internalType": "address payable",
          "name": "claimer",
          "type": "address"
        }
      ],
      "name": "getWinnerShare",
      "outputs": [
        {
          "internalType": "uint256",
          "name": "winningsETH",
          "type": "uint256"
        },
        {
          "internalType": "uint256",
          "name": "winningsKTY",
          "type": "uint256"
        }
      ],
      "payable": false,
      "stateMutability": "view",
      "type": "function"
    },
    {
      "constant": true,
      "inputs": [
        {
          "internalType": "uint256",
          "name": "gameId",
          "type": "uint256"
        }
      ],
      "name": "getEndowmentShare",
      "outputs": [
        {
          "internalType": "uint256",
          "name": "winningsETH",
          "type": "uint256"
        },
        {
          "internalType": "uint256",
          "name": "winningsKTY",
          "type": "uint256"
        }
      ],
      "payable": false,
      "stateMutability": "view",
      "type": "function"
    },
    {
      "constant": true,
      "inputs": [
        {
          "internalType": "uint256",
          "name": "gameId",
          "type": "uint256"
        },
        {
          "internalType": "address payable",
          "name": "claimer",
          "type": "address"
        },
        {
          "internalType": "address",
          "name": "winner",
          "type": "address"
        }
      ],
      "name": "checkWinnerCategory",
      "outputs": [
        {
          "internalType": "uint256",
          "name": "winningGroup",
          "type": "uint256"
        }
      ],
      "payable": false,
      "stateMutability": "view",
      "type": "function"
    },
    {
      "constant": true,
      "inputs": [
        {
          "internalType": "uint256",
          "name": "gameId",
          "type": "uint256"
        }
      ],
      "name": "getWinnerLoser",
      "outputs": [
        {
          "internalType": "address",
          "name": "winner",
          "type": "address"
        },
        {
          "internalType": "address",
          "name": "loser",
          "type": "address"
        },
        {
          "internalType": "uint256",
          "name": "totalBetsForLosingCorner",
          "type": "uint256"
        }
      ],
      "payable": false,
      "stateMutability": "view",
      "type": "function"
    }
  ],
  "bytecode": "0x6080604052336000806101000a81548173ffffffffffffffffffffffffffffffffffffffff021916908373ffffffffffffffffffffffffffffffffffffffff16021790555061287a806100536000396000f3fe608060405234801561001057600080fd5b50600436106100f55760003560e01c80638129fc1c11610097578063a3b3bd7b11610066578063a3b3bd7b14610496578063b1be6469146104e0578063ec5568891461052a578063f2fde38b14610574576100f5565b80638129fc1c146103955780638da5cb5b1461039f57806397107d6d146103e95780639ebf616a1461042d576100f5565b8063400cbf6d116100d3578063400cbf6d146101d75780635d06fc011461027f5780635e37283b146102c957806363c0c46e1461034b576100f5565b80631fc75180146100fa57806328d0ab581461014457806336e0004a1461018d575b600080fd5b6101026105b8565b604051808273ffffffffffffffffffffffffffffffffffffffff1673ffffffffffffffffffffffffffffffffffffffff16815260200191505060405180910390f35b6101706004803603602081101561015a57600080fd5b81019080803590602001909291905050506105de565b604051808381526020018281526020019250505060405180910390f35b6101956108fc565b604051808273ffffffffffffffffffffffffffffffffffffffff1673ffffffffffffffffffffffffffffffffffffffff16815260200191505060405180910390f35b610203600480360360208110156101ed57600080fd5b8101908080359060200190929190505050610922565b604051808473ffffffffffffffffffffffffffffffffffffffff1673ffffffffffffffffffffffffffffffffffffffff1681526020018373ffffffffffffffffffffffffffffffffffffffff1673ffffffffffffffffffffffffffffffffffffffff168152602001828152602001935050505060405180910390f35b610287610bbf565b604051808273ffffffffffffffffffffffffffffffffffffffff1673ffffffffffffffffffffffffffffffffffffffff16815260200191505060405180910390f35b610335600480360360608110156102df57600080fd5b8101908080359060200190929190803573ffffffffffffffffffffffffffffffffffffffff169060200190929190803573ffffffffffffffffffffffffffffffffffffffff169060200190929190505050610be5565b6040518082815260200191505060405180910390f35b610353610e6c565b604051808273ffffffffffffffffffffffffffffffffffffffff1673ffffffffffffffffffffffffffffffffffffffff16815260200191505060405180910390f35b61039d610e92565b005b6103a76119c1565b604051808273ffffffffffffffffffffffffffffffffffffffff1673ffffffffffffffffffffffffffffffffffffffff16815260200191505060405180910390f35b61042b600480360360208110156103ff57600080fd5b81019080803573ffffffffffffffffffffffffffffffffffffffff1690602001909291905050506119e6565b005b6104796004803603604081101561044357600080fd5b8101908080359060200190929190803573ffffffffffffffffffffffffffffffffffffffff169060200190929190505050611a80565b604051808381526020018281526020019250505060405180910390f35b61049e611da3565b604051808273ffffffffffffffffffffffffffffffffffffffff1673ffffffffffffffffffffffffffffffffffffffff16815260200191505060405180910390f35b6104e8611dc9565b604051808273ffffffffffffffffffffffffffffffffffffffff1673ffffffffffffffffffffffffffffffffffffffff16815260200191505060405180910390f35b610532611def565b604051808273ffffffffffffffffffffffffffffffffffffffff1673ffffffffffffffffffffffffffffffffffffffff16815260200191505060405180910390f35b6105b66004803603602081101561058a57600080fd5b81019080803573ffffffffffffffffffffffffffffffffffffffff169060200190929190505050611e15565b005b600360009054906101000a900473ffffffffffffffffffffffffffffffffffffffff1681565b6000806000600360009054906101000a900473ffffffffffffffffffffffffffffffffffffffff1673ffffffffffffffffffffffffffffffffffffffff1663525a8e4e856040518263ffffffff1660e01b815260040180828152602001915050604080518083038186803b15801561065557600080fd5b505afa158015610669573d6000803e3d6000fd5b505050506040513d604081101561067f57600080fd5b8101908080519060200190929190805190602001909291905050509150506106a5612801565b600660009054906101000a900473ffffffffffffffffffffffffffffffffffffffff1673ffffffffffffffffffffffffffffffffffffffff16636991b5bf866040518263ffffffff1660e01b81526004018082815260200191505060a06040518083038186803b15801561071857600080fd5b505afa15801561072c573d6000803e3d6000fd5b505050506040513d601f19601f8201168201806040525060a081101561075157600080fd5b810190809190505090506000600360009054906101000a900473ffffffffffffffffffffffffffffffffffffffff1673ffffffffffffffffffffffffffffffffffffffff1663589ac6a4876040518263ffffffff1660e01b8152600401808281526020019150506101006040518083038186803b1580156107d157600080fd5b505afa1580156107e5573d6000803e3d6000fd5b505050506040513d601f19601f8201168201806040525061010081101561080b57600080fd5b810190808051906020019092919080519060200190929190805190602001909291908051906020019092919091908260400180519060200190929190805190602001909291905050505050505092505050600061086787610922565b925050506108b66108a7620f42406108998660046005811061088557fe5b602002015185611ee390919063ffffffff16565b611f1a90919063ffffffff16565b83611f3390919063ffffffff16565b95506108f1620f42406108e3856004600581106108cf57fe5b602002015187611ee390919063ffffffff16565b611f1a90919063ffffffff16565b945050505050915091565b600760009054906101000a900473ffffffffffffffffffffffffffffffffffffffff1681565b6000806000600360009054906101000a900473ffffffffffffffffffffffffffffffffffffffff1673ffffffffffffffffffffffffffffffffffffffff16636b1426a4856040518263ffffffff1660e01b81526004018082815260200191505060606040518083038186803b15801561099a57600080fd5b505afa1580156109ae573d6000803e3d6000fd5b505050506040513d60608110156109c457600080fd5b8101908080519060200190929190805190602001909291908051906020019092919050505090505080935050600660009054906101000a900473ffffffffffffffffffffffffffffffffffffffff1673ffffffffffffffffffffffffffffffffffffffff166331fa706785856040518363ffffffff1660e01b8152600401808381526020018273ffffffffffffffffffffffffffffffffffffffff1673ffffffffffffffffffffffffffffffffffffffff1681526020019250505060206040518083038186803b158015610a9757600080fd5b505afa158015610aab573d6000803e3d6000fd5b505050506040513d6020811015610ac157600080fd5b81019080805190602001909291905050509150600360009054906101000a900473ffffffffffffffffffffffffffffffffffffffff1673ffffffffffffffffffffffffffffffffffffffff1663bacf524e85846040518363ffffffff1660e01b8152600401808381526020018273ffffffffffffffffffffffffffffffffffffffff1673ffffffffffffffffffffffffffffffffffffffff1681526020019250505060206040518083038186803b158015610b7b57600080fd5b505afa158015610b8f573d6000803e3d6000fd5b505050506040513d6020811015610ba557600080fd5b810190808051906020019092919050505090509193909250565b600460009054906101000a900473ffffffffffffffffffffffffffffffffffffffff1681565b60008273ffffffffffffffffffffffffffffffffffffffff168273ffffffffffffffffffffffffffffffffffffffff161415610c245760009050610e65565b8273ffffffffffffffffffffffffffffffffffffffff16600660009054906101000a900473ffffffffffffffffffffffffffffffffffffffff1673ffffffffffffffffffffffffffffffffffffffff166316805a2986856040518363ffffffff1660e01b8152600401808381526020018273ffffffffffffffffffffffffffffffffffffffff1673ffffffffffffffffffffffffffffffffffffffff1681526020019250505060206040518083038186803b158015610ce257600080fd5b505afa158015610cf6573d6000803e3d6000fd5b505050506040513d6020811015610d0c57600080fd5b810190808051906020019092919050505073ffffffffffffffffffffffffffffffffffffffff161415610d425760019050610e65565b8273ffffffffffffffffffffffffffffffffffffffff16600660009054906101000a900473ffffffffffffffffffffffffffffffffffffffff1673ffffffffffffffffffffffffffffffffffffffff16635f87206d86856040518363ffffffff1660e01b8152600401808381526020018273ffffffffffffffffffffffffffffffffffffffff1673ffffffffffffffffffffffffffffffffffffffff1681526020019250505060206040518083038186803b158015610e0057600080fd5b505afa158015610e14573d6000803e3d6000fd5b505050506040513d6020811015610e2a57600080fd5b810190808051906020019092919050505073ffffffffffffffffffffffffffffffffffffffff161415610e605760029050610e65565b600390505b9392505050565b600560009054906101000a900473ffffffffffffffffffffffffffffffffffffffff1681565b6000809054906101000a900473ffffffffffffffffffffffffffffffffffffffff1673ffffffffffffffffffffffffffffffffffffffff163373ffffffffffffffffffffffffffffffffffffffff1614610ee857fe5b600160009054906101000a900473ffffffffffffffffffffffffffffffffffffffff1673ffffffffffffffffffffffffffffffffffffffff1663358177736040518060400160405280600b81526020017f456e646f776d656e7444420000000000000000000000000000000000000000008152506040518263ffffffff1660e01b81526004018080602001828103825283818151815260200191508051906020019080838360005b83811015610fab578082015181840152602081019050610f90565b50505050905090810190601f168015610fd85780820380516001836020036101000a031916815260200191505b509250505060206040518083038186803b158015610ff557600080fd5b505afa158015611009573d6000803e3d6000fd5b505050506040513d602081101561101f57600080fd5b8101908080519060200190929190505050600460006101000a81548173ffffffffffffffffffffffffffffffffffffffff021916908373ffffffffffffffffffffffffffffffffffffffff160217905550600160009054906101000a900473ffffffffffffffffffffffffffffffffffffffff1673ffffffffffffffffffffffffffffffffffffffff1663358177736040518060400160405280600d81526020017f47616d65566172416e64466565000000000000000000000000000000000000008152506040518263ffffffff1660e01b81526004018080602001828103825283818151815260200191508051906020019080838360005b83811015611133578082015181840152602081019050611118565b50505050905090810190601f1680156111605780820380516001836020036101000a031916815260200191505b509250505060206040518083038186803b15801561117d57600080fd5b505afa158015611191573d6000803e3d6000fd5b505050506040513d60208110156111a757600080fd5b8101908080519060200190929190505050600260006101000a81548173ffffffffffffffffffffffffffffffffffffffff021916908373ffffffffffffffffffffffffffffffffffffffff160217905550600160009054906101000a900473ffffffffffffffffffffffffffffffffffffffff1673ffffffffffffffffffffffffffffffffffffffff1663358177736040518060400160405280601081526020017f4b69747469654669676874546f6b656e000000000000000000000000000000008152506040518263ffffffff1660e01b81526004018080602001828103825283818151815260200191508051906020019080838360005b838110156112bb5780820151818401526020810190506112a0565b50505050905090810190601f1680156112e85780820380516001836020036101000a031916815260200191505b509250505060206040518083038186803b15801561130557600080fd5b505afa158015611319573d6000803e3d6000fd5b505050506040513d602081101561132f57600080fd5b8101908080519060200190929190505050600560006101000a81548173ffffffffffffffffffffffffffffffffffffffff021916908373ffffffffffffffffffffffffffffffffffffffff160217905550600160009054906101000a900473ffffffffffffffffffffffffffffffffffffffff1673ffffffffffffffffffffffffffffffffffffffff1663358177736040518060400160405280600981526020017f47616d6553746f726500000000000000000000000000000000000000000000008152506040518263ffffffff1660e01b81526004018080602001828103825283818151815260200191508051906020019080838360005b83811015611443578082015181840152602081019050611428565b50505050905090810190601f1680156114705780820380516001836020036101000a031916815260200191505b509250505060206040518083038186803b15801561148d57600080fd5b505afa1580156114a1573d6000803e3d6000fd5b505050506040513d60208110156114b757600080fd5b8101908080519060200190929190505050600660006101000a81548173ffffffffffffffffffffffffffffffffffffffff021916908373ffffffffffffffffffffffffffffffffffffffff160217905550600160009054906101000a900473ffffffffffffffffffffffffffffffffffffffff1673ffffffffffffffffffffffffffffffffffffffff1663358177736040518060400160405280600a81526020017f474d4765747465724442000000000000000000000000000000000000000000008152506040518263ffffffff1660e01b81526004018080602001828103825283818151815260200191508051906020019080838360005b838110156115cb5780820151818401526020810190506115b0565b50505050905090810190601f1680156115f85780820380516001836020036101000a031916815260200191505b509250505060206040518083038186803b15801561161557600080fd5b505afa158015611629573d6000803e3d6000fd5b505050506040513d602081101561163f57600080fd5b8101908080519060200190929190505050600360006101000a81548173ffffffffffffffffffffffffffffffffffffffff021916908373ffffffffffffffffffffffffffffffffffffffff160217905550600160009054906101000a900473ffffffffffffffffffffffffffffffffffffffff1673ffffffffffffffffffffffffffffffffffffffff1663358177736040518060400160405280600d81526020017f4d756c7469736967356f663132000000000000000000000000000000000000008152506040518263ffffffff1660e01b81526004018080602001828103825283818151815260200191508051906020019080838360005b83811015611753578082015181840152602081019050611738565b50505050905090810190601f1680156117805780820380516001836020036101000a031916815260200191505b509250505060206040518083038186803b15801561179d57600080fd5b505afa1580156117b1573d6000803e3d6000fd5b505050506040513d60208110156117c757600080fd5b8101908080519060200190929190505050600760006101000a81548173ffffffffffffffffffffffffffffffffffffffff021916908373ffffffffffffffffffffffffffffffffffffffff160217905550600160009054906101000a900473ffffffffffffffffffffffffffffffffffffffff1673ffffffffffffffffffffffffffffffffffffffff1663358177736040518060400160405280601681526020017f486f6e6579706f74416c6c6f636174696f6e416c676f000000000000000000008152506040518263ffffffff1660e01b81526004018080602001828103825283818151815260200191508051906020019080838360005b838110156118db5780820151818401526020810190506118c0565b50505050905090810190601f1680156119085780820380516001836020036101000a031916815260200191505b509250505060206040518083038186803b15801561192557600080fd5b505afa158015611939573d6000803e3d6000fd5b505050506040513d602081101561194f57600080fd5b810190808051906020019092919050505073ffffffffffffffffffffffffffffffffffffffff16638129fc1c6040518163ffffffff1660e01b8152600401600060405180830381600087803b1580156119a757600080fd5b505af11580156119bb573d6000803e3d6000fd5b50505050565b6000809054906101000a900473ffffffffffffffffffffffffffffffffffffffff1681565b6000809054906101000a900473ffffffffffffffffffffffffffffffffffffffff1673ffffffffffffffffffffffffffffffffffffffff163373ffffffffffffffffffffffffffffffffffffffff1614611a3c57fe5b80600160006101000a81548173ffffffffffffffffffffffffffffffffffffffff021916908373ffffffffffffffffffffffffffffffffffffffff16021790555050565b600080600080611a8f86610922565b9250509150600073ffffffffffffffffffffffffffffffffffffffff168273ffffffffffffffffffffffffffffffffffffffff161415611ace57600080fd5b600080600360009054906101000a900473ffffffffffffffffffffffffffffffffffffffff1673ffffffffffffffffffffffffffffffffffffffff16630b154c9689896040518363ffffffff1660e01b8152600401808381526020018273ffffffffffffffffffffffffffffffffffffffff1673ffffffffffffffffffffffffffffffffffffffff1681526020019250505060806040518083038186803b158015611b7857600080fd5b505afa158015611b8c573d6000803e3d6000fd5b505050506040513d6080811015611ba257600080fd5b81019080805190602001909291908051906020019092919080519060200190929190805190602001909291905050505050915091508373ffffffffffffffffffffffffffffffffffffffff168773ffffffffffffffffffffffffffffffffffffffff1614158015611c3f57508373ffffffffffffffffffffffffffffffffffffffff168173ffffffffffffffffffffffffffffffffffffffff1614155b15611c5a576000808191508090509550955050505050611d9c565b6000611c67898987610be5565b90508473ffffffffffffffffffffffffffffffffffffffff168873ffffffffffffffffffffffffffffffffffffffff161415611d8257600360009054906101000a900473ffffffffffffffffffffffffffffffffffffffff1673ffffffffffffffffffffffffffffffffffffffff1663dd99717d8a8a6040518363ffffffff1660e01b8152600401808381526020018273ffffffffffffffffffffffffffffffffffffffff1673ffffffffffffffffffffffffffffffffffffffff1681526020019250505060206040518083038186803b158015611d4457600080fd5b505afa158015611d58573d6000803e3d6000fd5b505050506040513d6020811015611d6e57600080fd5b810190808051906020019092919050505092505b611d8e8482858c611f4f565b809750819850505050505050505b9250929050565b600260009054906101000a900473ffffffffffffffffffffffffffffffffffffffff1681565b600660009054906101000a900473ffffffffffffffffffffffffffffffffffffffff1681565b600160009054906101000a900473ffffffffffffffffffffffffffffffffffffffff1681565b6000809054906101000a900473ffffffffffffffffffffffffffffffffffffffff1673ffffffffffffffffffffffffffffffffffffffff163373ffffffffffffffffffffffffffffffffffffffff1614611e6b57fe5b600073ffffffffffffffffffffffffffffffffffffffff168173ffffffffffffffffffffffffffffffffffffffff1614611ee057806000806101000a81548173ffffffffffffffffffffffffffffffffffffffff021916908373ffffffffffffffffffffffffffffffffffffffff1602179055505b50565b600080831415611ef65760009050611f14565b6000828402905082848281611f0757fe5b0414611f0f57fe5b809150505b92915050565b600080828481611f2657fe5b0490508091505092915050565b600080828401905083811015611f4557fe5b8091505092915050565b600080611f5a612801565b600660009054906101000a900473ffffffffffffffffffffffffffffffffffffffff1673ffffffffffffffffffffffffffffffffffffffff16636991b5bf856040518263ffffffff1660e01b81526004018082815260200191505060a06040518083038186803b158015611fcd57600080fd5b505afa158015611fe1573d6000803e3d6000fd5b505050506040513d601f19601f8201168201806040525060a081101561200657600080fd5b810190809190505090506000600360009054906101000a900473ffffffffffffffffffffffffffffffffffffffff1673ffffffffffffffffffffffffffffffffffffffff1663525a8e4e866040518263ffffffff1660e01b815260040180828152602001915050604080518083038186803b15801561208457600080fd5b505afa158015612098573d6000803e3d6000fd5b505050506040513d60408110156120ae57600080fd5b8101908080519060200190929190805190602001909291905050509150506000612106620f42406120f8858b600581106120e457fe5b60200201518c611ee390919063ffffffff16565b611f1a90919063ffffffff16565b90506000612142620f4240612134868c6005811061212057fe5b602002015186611ee390919063ffffffff16565b611f1a90919063ffffffff16565b905060038914156121665761215981838a8a61218c565b9550955050505050612183565b6121798289611f3390919063ffffffff16565b8195509550505050505b94509492505050565b600080612197612823565b600360009054906101000a900473ffffffffffffffffffffffffffffffffffffffff1673ffffffffffffffffffffffffffffffffffffffff16636b1426a4856040518263ffffffff1660e01b81526004018082815260200191505060606040518083038186803b15801561220a57600080fd5b505afa15801561221e573d6000803e3d6000fd5b505050506040513d606081101561223457600080fd5b810190808051906020019092919080519060200190929190805190602001909291905050508360006003811061226657fe5b602002018460016003811061227757fe5b602002018560026003811061228857fe5b602002018373ffffffffffffffffffffffffffffffffffffffff1673ffffffffffffffffffffffffffffffffffffffff168152508373ffffffffffffffffffffffffffffffffffffffff1673ffffffffffffffffffffffffffffffffffffffff168152508373ffffffffffffffffffffffffffffffffffffffff1673ffffffffffffffffffffffffffffffffffffffff168152505050506000600360009054906101000a900473ffffffffffffffffffffffffffffffffffffffff1673ffffffffffffffffffffffffffffffffffffffff16630b154c96868460016003811061236d57fe5b60200201516040518363ffffffff1660e01b8152600401808381526020018273ffffffffffffffffffffffffffffffffffffffff1673ffffffffffffffffffffffffffffffffffffffff1681526020019250505060806040518083038186803b1580156123d957600080fd5b505afa1580156123ed573d6000803e3d6000fd5b505050506040513d608081101561240357600080fd5b810190808051906020019092919080519060200190929190805190602001909291908051906020019092919050505050505090506000600360009054906101000a900473ffffffffffffffffffffffffffffffffffffffff1673ffffffffffffffffffffffffffffffffffffffff16630b154c96878560026003811061248557fe5b60200201516040518363ffffffff1660e01b8152600401808381526020018273ffffffffffffffffffffffffffffffffffffffff1673ffffffffffffffffffffffffffffffffffffffff1681526020019250505060806040518083038186803b1580156124f157600080fd5b505afa158015612505573d6000803e3d6000fd5b505050506040513d608081101561251b57600080fd5b810190808051906020019092919080519060200190929190805190602001909291908051906020019092919050505050505090506000600360009054906101000a900473ffffffffffffffffffffffffffffffffffffffff1673ffffffffffffffffffffffffffffffffffffffff1663dd99717d888660006003811061259d57fe5b60200201516040518363ffffffff1660e01b8152600401808381526020018273ffffffffffffffffffffffffffffffffffffffff1673ffffffffffffffffffffffffffffffffffffffff1681526020019250505060206040518083038186803b15801561260957600080fd5b505afa15801561261d573d6000803e3d6000fd5b505050506040513d602081101561263357600080fd5b810190808051906020019092919050505090506000600360009054906101000a900473ffffffffffffffffffffffffffffffffffffffff1673ffffffffffffffffffffffffffffffffffffffff1663bacf524e898760006003811061269457fe5b60200201516040518363ffffffff1660e01b8152600401808381526020018273ffffffffffffffffffffffffffffffffffffffff1673ffffffffffffffffffffffffffffffffffffffff1681526020019250505060206040518083038186803b15801561270057600080fd5b505afa158015612714573d6000803e3d6000fd5b505050506040513d602081101561272a57600080fd5b81019080805190602001909291905050509050612774826127668561275888866127ea90919063ffffffff16565b6127ea90919063ffffffff16565b6127ea90919063ffffffff16565b905061279b8161278d8b8d611ee390919063ffffffff16565b611f1a90919063ffffffff16565b99506127c2816127b48b8e611ee390919063ffffffff16565b611f1a90919063ffffffff16565b9a506127d78a8a611f3390919063ffffffff16565b8b96509650505050505094509492505050565b6000828211156127f657fe5b818303905092915050565b6040518060a00160405280600590602082028038833980820191505090505090565b604051806060016040528060039060208202803883398082019150509050509056fea265627a7a723158203a8776e2872373c8fd9c470aa7f67fb31ec0adc52959b8fefc8242f80f30020e64736f6c63430005110032",
  "source": "\n// This program is free software: you can redistribute it and/or modify\n// it under the terms of the GNU General Public License as published by\n// the Free Software Foundation, either version 3 of the License, or\n// (at your option) any later version.\n\n// This program is distributed in the hope that it will be useful,\n// but WITHOUT ANY WARRANTY; without even the implied warranty of\n// MERCHANTABILITY or FITNESS FOR A PARTICULAR PURPOSE.  See the\n// GNU General Public License for more details.\n\n// You should have received a copy of the GNU General Public License\n// along with this program.  If not, see <http://www.gnu.org/licenses/>.\n\npragma solidity ^0.5.5;\n\n\nimport '../../GameVarAndFee.sol';\nimport '../proxy/Proxied.sol';\nimport '../../libs/SafeMath.sol';\nimport '../databases/GMGetterDB.sol';\nimport \"../databases/EndowmentDB.sol\";\nimport \"../../interfaces/ERC20Standard.sol\";\nimport \"./Escrow.sol\";\nimport \"../gamemanager/GameStore.sol\";\nimport \"../endowment/HoneypotAllocationAlgo.sol\";\nimport \"./Multisig5of12.sol\";\n\n/**\n * @title Distribution Contract\n * @dev The distribution contract allows the endowmentfund contract to properly distribute\n * Eth and KTY tokens funds, from each games honeypot to all winners in a game according\n * to the scheduled percentage.\n * @author @wafflemakr @hamaad\n */\ncontract Distribution is Proxied {\n\n    using SafeMath for uint256;\n\n    GameVarAndFee public gameVarAndFee;\n    GMGetterDB public gmGetterDB;\n    EndowmentDB public endowmentDB;\n    ERC20Standard public kittieFightToken;\n    GameStore public gameStore;\n    Multisig5of12 public multiSig;\n\n    modifier multiSigFundsMovement(uint256 _transferNum, address _newEscrow) {\n        (uint256 _lastTransferNumber,) = multiSig.getLastTransfer();\n        require(multiSig.isTransferApproved(_transferNum, _newEscrow), \"Transfer is not approved\");\n        require(_transferNum >= _lastTransferNumber, \"Transer number should be bigger than previous transfer number\");\n        _;\n    }\n\n    /**\n    * @dev Sets related contracts\n    * @dev Can be called only by the owner of this contract\n    */\n    function initialize() external onlyOwner {\n        endowmentDB = EndowmentDB(proxy.getContract(CONTRACT_NAME_ENDOWMENT_DB));\n        gameVarAndFee = GameVarAndFee(proxy.getContract(CONTRACT_NAME_GAMEVARANDFEE));\n        kittieFightToken = ERC20Standard(proxy.getContract(CONTRACT_NAME_KITTIEFIGHTOKEN));\n        gameStore = GameStore(proxy.getContract(CONTRACT_NAME_GAMESTORE));\n        gmGetterDB = GMGetterDB(proxy.getContract(CONTRACT_NAME_GM_GETTER_DB));\n        multiSig = Multisig5of12(proxy.getContract(CONTRACT_NAME_MULTISIG));\n        HoneypotAllocationAlgo(proxy.getContract(CONTRACT_NAME_HONEYPOT_ALLOCATION_ALGO)).initialize();\n    }\n\n    /**\n     * @notice Calculates amount of Eth the winner can claim\n     */\n    function getWinnerShare(uint256 gameId, address payable claimer)\n        public view\n        returns(uint256 winningsETH, uint256 winningsKTY)\n    {\n        (address winner, /*address loser*/, uint256 totalBetsForLosingCorner) = getWinnerLoser(gameId);\n\n        require(winner != address(0));\n\n        (uint256 bet, address supportedPlayer,,) = gmGetterDB.getSupporterInfo(gameId, claimer);\n\n        // If its not the winning player or part of the bettors of the winning corner\n        if(claimer != winner && supportedPlayer != winner) return (0,0);\n \n        uint256 winningCategory = checkWinnerCategory(gameId, claimer, winner);\n\n        if (claimer == winner)\n            bet = gmGetterDB.getPlayerBet(gameId, claimer);\n\n        (winningsETH, winningsKTY) = calculator(totalBetsForLosingCorner, winningCategory, bet, gameId);\n    }\n\n    function calculator(uint256 totalBetsForLosingCorner, uint256 winningCategory, uint256 bet, uint256 gameId)\n        internal view\n        returns(uint256, uint256)\n    {\n        uint256[5] memory rates = gameStore.getDistributionRates(gameId);\n        (, uint256 totalKTYFunds) = gmGetterDB.getFinalHoneypot(gameId);\n\n        uint256 winningsETH = (totalBetsForLosingCorner.mul(rates[winningCategory])).div(1000000); //1,000,000 is the percentage base\n        uint256 winningsKTY = (totalKTYFunds.mul(rates[winningCategory])).div(1000000); //1,000,000 is the percentage base\n\n        //Other bettors winnings\n        if (winningCategory == 3){\n            return getOtherWinnersShare(winningsKTY, winningsETH, bet, gameId);\n        }\n        else {\n            return (bet.add(winningsETH), winningsKTY);\n        }\n    }\n\n    function getOtherWinnersShare(uint256 winningsKTY, uint256 winningsETH, uint256 bet,\n        uint256 gameId)\n        internal view\n        returns(uint256, uint256)\n    {\n        address[3] memory winners;\n        (winners[0], winners[1], winners[2]) = gmGetterDB.getWinners(gameId);\n        (uint256 betAmountTop,,,) = gmGetterDB.getSupporterInfo(gameId, winners[1]);\n        (uint256 betAmountSecondTop,,,) = gmGetterDB.getSupporterInfo(gameId, winners[2]);\n\n        //getPlayerBet\n        uint256 playerBet = gmGetterDB.getPlayerBet(gameId, winners[0]);\n\n        //get other supporters totalBets for winning side\n        uint256 totalBets = gmGetterDB.getTotalBet(gameId, winners[0]);\n\n        //Remove top and secondTop total bets\n        totalBets = totalBets.sub(betAmountTop).sub(betAmountSecondTop).sub(playerBet);\n        winningsETH = winningsETH.mul(bet).div(totalBets);\n        winningsKTY = winningsKTY.mul(bet).div(totalBets);\n\n        // Distribute the 20% of the jackpot according to amount that supporter bet in game\n        // This is to avoid a bettor for claiming winings if he/she did not bet\n        return (bet.add(winningsETH), winningsKTY);\n    }\n\n\n    function getEndowmentShare(uint gameId) public view returns(uint256 winningsETH, uint256 winningsKTY){\n        (/*uint256 totalEthFunds*/, uint256 totalKTYFunds) = gmGetterDB.getFinalHoneypot(gameId);\n\n        uint256[5] memory rates = gameStore.getDistributionRates(gameId);\n        (,, uint initialEth,,,,) = gmGetterDB.getHoneypotInfo(gameId);\n\n        (/*address winner*/, /*address loser*/, uint256 totalBetsForLosingCorner) = getWinnerLoser(gameId);\n\n        winningsETH = initialEth.add(totalBetsForLosingCorner.mul(rates[4]).div(1000000)); //1,000,000 is the percentage base\n        winningsKTY = (totalKTYFunds.mul(rates[4])).div(1000000); //1,000,000 is the percentage base\n    }\n\n    function checkWinnerCategory\n    (\n        uint gameId, address payable claimer,\n        address winner\n    )\n        public view\n        returns(uint256 winningGroup)\n    {\n        // Winning Player\n        if (winner == claimer) return 0;\n\n        // Winning Top Bettor\n        if (gameStore.getTopBettor(gameId, winner) == claimer) return 1;\n\n        // Winning SecondTop Bettor\n        if (gameStore.getSecondTopBettor(gameId, winner) == claimer) return 2;\n\n        // Winning Other Bettors List\n        return 3;\n    }\n\n    function getWinnerLoser(uint256 gameId)\n        public view\n        returns(address winner, address loser, uint256 totalBetsForLosingCorner)\n    {\n        (winner,,) = gmGetterDB.getWinners(gameId);\n        loser = gameStore.getOpponent(gameId, winner);\n        totalBetsForLosingCorner = gmGetterDB.getTotalBet(gameId, loser);\n    }\n}",
  "sourcePath": "/Users/ziweizhang/Desktop/multi-sig/contracts/contracts/modules/endowment/Distribution.sol",
  "compiler": {
    "name": "solc",
    "version": "0.5.17+commit.d19bba13.Emscripten.clang"
  },
  "schemaVersion": "3.0.23",
  "updatedAt": "2020-07-19T02:22:01.913Z",
  "devdoc": {
    "author": "@wafflemakr @hamaad",
    "details": "The distribution contract allows the endowmentfund contract to properly distribute Eth and KTY tokens funds, from each games honeypot to all winners in a game according to the scheduled percentage.",
    "methods": {
      "initialize()": {
        "details": "Sets related contractsCan be called only by the owner of this contract"
      }
    },
    "title": "Distribution Contract"
  },
  "userdoc": {
    "methods": {
      "getWinnerShare(uint256,address)": {
        "notice": "Calculates amount of Eth the winner can claim"
      },
      "setProxy(address)": {
        "notice": "Set/update address of Proxy contract"
      }
    }
  }
}