{
  "contractName": "Distribution",
  "abi": [
    {
      "constant": true,
      "inputs": [],
      "name": "endowmentDB",
      "outputs": [
        {
          "internalType": "contract EndowmentDB",
          "name": "",
          "type": "address"
        }
      ],
      "payable": false,
      "stateMutability": "view",
      "type": "function"
    },
    {
      "constant": true,
      "inputs": [],
      "name": "gameStore",
      "outputs": [
        {
          "internalType": "contract GameStore",
          "name": "",
          "type": "address"
        }
      ],
      "payable": false,
      "stateMutability": "view",
      "type": "function"
    },
    {
      "constant": true,
      "inputs": [],
      "name": "gameVarAndFee",
      "outputs": [
        {
          "internalType": "contract GameVarAndFee",
          "name": "",
          "type": "address"
        }
      ],
      "payable": false,
      "stateMutability": "view",
      "type": "function"
    },
    {
      "constant": true,
      "inputs": [],
      "name": "gmGetterDB",
      "outputs": [
        {
          "internalType": "contract GMGetterDB",
          "name": "",
          "type": "address"
        }
      ],
      "payable": false,
      "stateMutability": "view",
      "type": "function"
    },
    {
      "constant": true,
      "inputs": [],
      "name": "kittieFightToken",
      "outputs": [
        {
          "internalType": "contract ERC20Standard",
          "name": "",
          "type": "address"
        }
      ],
      "payable": false,
      "stateMutability": "view",
      "type": "function"
    },
    {
      "constant": true,
      "inputs": [],
      "name": "owner",
      "outputs": [
        {
          "internalType": "address payable",
          "name": "",
          "type": "address"
        }
      ],
      "payable": false,
      "stateMutability": "view",
      "type": "function"
    },
    {
      "constant": true,
      "inputs": [
        {
          "internalType": "uint256",
          "name": "",
          "type": "uint256"
        }
      ],
      "name": "path",
      "outputs": [
        {
          "internalType": "address",
          "name": "",
          "type": "address"
        }
      ],
      "payable": false,
      "stateMutability": "view",
      "type": "function"
    },
    {
      "constant": true,
      "inputs": [],
      "name": "proxy",
      "outputs": [
        {
          "internalType": "contract ProxyBase",
          "name": "",
          "type": "address"
        }
      ],
      "payable": false,
      "stateMutability": "view",
      "type": "function"
    },
    {
      "constant": false,
      "inputs": [
        {
          "internalType": "contract ProxyBase",
          "name": "_proxy",
          "type": "address"
        }
      ],
      "name": "setProxy",
      "outputs": [],
      "payable": false,
      "stateMutability": "nonpayable",
      "type": "function"
    },
    {
      "constant": false,
      "inputs": [
        {
          "internalType": "address payable",
          "name": "newOwner",
          "type": "address"
        }
      ],
      "name": "transferOwnership",
      "outputs": [],
      "payable": false,
      "stateMutability": "nonpayable",
      "type": "function"
    },
    {
      "constant": false,
      "inputs": [],
      "name": "initialize",
      "outputs": [],
      "payable": false,
      "stateMutability": "nonpayable",
      "type": "function"
    },
    {
      "constant": true,
      "inputs": [
        {
          "internalType": "uint256",
          "name": "gameId",
          "type": "uint256"
        },
        {
          "internalType": "address payable",
          "name": "claimer",
          "type": "address"
        }
      ],
      "name": "getWinnerShare",
      "outputs": [
        {
          "internalType": "uint256",
          "name": "winningsETH",
          "type": "uint256"
        },
        {
          "internalType": "uint256",
          "name": "winningsKTY",
          "type": "uint256"
        }
      ],
      "payable": false,
      "stateMutability": "view",
      "type": "function"
    },
    {
      "constant": true,
      "inputs": [
        {
          "internalType": "uint256",
          "name": "gameId",
          "type": "uint256"
        }
      ],
      "name": "getEndowmentShare",
      "outputs": [
        {
          "internalType": "uint256",
          "name": "winningsETH",
          "type": "uint256"
        },
        {
          "internalType": "uint256",
          "name": "winningsKTY",
          "type": "uint256"
        }
      ],
      "payable": false,
      "stateMutability": "view",
      "type": "function"
    },
    {
      "constant": true,
      "inputs": [
        {
          "internalType": "uint256",
          "name": "gameId",
          "type": "uint256"
        },
        {
          "internalType": "address payable",
          "name": "claimer",
          "type": "address"
        },
        {
          "internalType": "address",
          "name": "winner",
          "type": "address"
        }
      ],
      "name": "checkWinnerCategory",
      "outputs": [
        {
          "internalType": "uint256",
          "name": "winningGroup",
          "type": "uint256"
        }
      ],
      "payable": false,
      "stateMutability": "view",
      "type": "function"
    },
    {
      "constant": true,
      "inputs": [
        {
          "internalType": "uint256",
          "name": "gameId",
          "type": "uint256"
        }
      ],
      "name": "getWinnerLoser",
      "outputs": [
        {
          "internalType": "address",
          "name": "winner",
          "type": "address"
        },
        {
          "internalType": "address",
          "name": "loser",
          "type": "address"
        },
        {
          "internalType": "uint256",
          "name": "totalBetsForLosingCorner",
          "type": "uint256"
        }
      ],
      "payable": false,
      "stateMutability": "view",
      "type": "function"
    }
  ],
  "bytecode": "0x6080604052336000806101000a81548173ffffffffffffffffffffffffffffffffffffffff021916908373ffffffffffffffffffffffffffffffffffffffff1602179055506128eb806100536000396000f3fe608060405234801561001057600080fd5b50600436106100f55760003560e01c80638da5cb5b11610097578063af6d1fe411610066578063af6d1fe414610496578063b1be646914610504578063ec5568891461054e578063f2fde38b14610598576100f5565b80638da5cb5b1461035557806397107d6d1461039f5780639ebf616a146103e3578063a3b3bd7b1461044c576100f5565b80635d06fc01116100d35780635d06fc01146102355780635e37283b1461027f57806363c0c46e146103015780638129fc1c1461034b576100f5565b80631fc75180146100fa57806328d0ab5814610144578063400cbf6d1461018d575b600080fd5b6101026105dc565b604051808273ffffffffffffffffffffffffffffffffffffffff1673ffffffffffffffffffffffffffffffffffffffff16815260200191505060405180910390f35b6101706004803603602081101561015a57600080fd5b8101908080359060200190929190505050610602565b604051808381526020018281526020019250505060405180910390f35b6101b9600480360360208110156101a357600080fd5b8101908080359060200190929190505050610920565b604051808473ffffffffffffffffffffffffffffffffffffffff1673ffffffffffffffffffffffffffffffffffffffff1681526020018373ffffffffffffffffffffffffffffffffffffffff1673ffffffffffffffffffffffffffffffffffffffff168152602001828152602001935050505060405180910390f35b61023d610bbd565b604051808273ffffffffffffffffffffffffffffffffffffffff1673ffffffffffffffffffffffffffffffffffffffff16815260200191505060405180910390f35b6102eb6004803603606081101561029557600080fd5b8101908080359060200190929190803573ffffffffffffffffffffffffffffffffffffffff169060200190929190803573ffffffffffffffffffffffffffffffffffffffff169060200190929190505050610be3565b6040518082815260200191505060405180910390f35b610309610e6a565b604051808273ffffffffffffffffffffffffffffffffffffffff1673ffffffffffffffffffffffffffffffffffffffff16815260200191505060405180910390f35b610353610e90565b005b61035d6119f6565b604051808273ffffffffffffffffffffffffffffffffffffffff1673ffffffffffffffffffffffffffffffffffffffff16815260200191505060405180910390f35b6103e1600480360360208110156103b557600080fd5b81019080803573ffffffffffffffffffffffffffffffffffffffff169060200190929190505050611a1b565b005b61042f600480360360408110156103f957600080fd5b8101908080359060200190929190803573ffffffffffffffffffffffffffffffffffffffff169060200190929190505050611ab5565b604051808381526020018281526020019250505060405180910390f35b610454611dd8565b604051808273ffffffffffffffffffffffffffffffffffffffff1673ffffffffffffffffffffffffffffffffffffffff16815260200191505060405180910390f35b6104c2600480360360208110156104ac57600080fd5b8101908080359060200190929190505050611dfe565b604051808273ffffffffffffffffffffffffffffffffffffffff1673ffffffffffffffffffffffffffffffffffffffff16815260200191505060405180910390f35b61050c611e3a565b604051808273ffffffffffffffffffffffffffffffffffffffff1673ffffffffffffffffffffffffffffffffffffffff16815260200191505060405180910390f35b610556611e60565b604051808273ffffffffffffffffffffffffffffffffffffffff1673ffffffffffffffffffffffffffffffffffffffff16815260200191505060405180910390f35b6105da600480360360208110156105ae57600080fd5b81019080803573ffffffffffffffffffffffffffffffffffffffff169060200190929190505050611e86565b005b600360009054906101000a900473ffffffffffffffffffffffffffffffffffffffff1681565b6000806000600360009054906101000a900473ffffffffffffffffffffffffffffffffffffffff1673ffffffffffffffffffffffffffffffffffffffff1663525a8e4e856040518263ffffffff1660e01b815260040180828152602001915050604080518083038186803b15801561067957600080fd5b505afa15801561068d573d6000803e3d6000fd5b505050506040513d60408110156106a357600080fd5b8101908080519060200190929190805190602001909291905050509150506106c9612872565b600660009054906101000a900473ffffffffffffffffffffffffffffffffffffffff1673ffffffffffffffffffffffffffffffffffffffff16636991b5bf866040518263ffffffff1660e01b81526004018082815260200191505060a06040518083038186803b15801561073c57600080fd5b505afa158015610750573d6000803e3d6000fd5b505050506040513d601f19601f8201168201806040525060a081101561077557600080fd5b810190809190505090506000600360009054906101000a900473ffffffffffffffffffffffffffffffffffffffff1673ffffffffffffffffffffffffffffffffffffffff1663589ac6a4876040518263ffffffff1660e01b8152600401808281526020019150506101006040518083038186803b1580156107f557600080fd5b505afa158015610809573d6000803e3d6000fd5b505050506040513d601f19601f8201168201806040525061010081101561082f57600080fd5b810190808051906020019092919080519060200190929190805190602001909291908051906020019092919091908260400180519060200190929190805190602001909291905050505050505092505050600061088b87610920565b925050506108da6108cb620f42406108bd866004600581106108a957fe5b602002015185611f5490919063ffffffff16565b611f8b90919063ffffffff16565b83611fa490919063ffffffff16565b9550610915620f4240610907856004600581106108f357fe5b602002015187611f5490919063ffffffff16565b611f8b90919063ffffffff16565b945050505050915091565b6000806000600360009054906101000a900473ffffffffffffffffffffffffffffffffffffffff1673ffffffffffffffffffffffffffffffffffffffff16636b1426a4856040518263ffffffff1660e01b81526004018082815260200191505060606040518083038186803b15801561099857600080fd5b505afa1580156109ac573d6000803e3d6000fd5b505050506040513d60608110156109c257600080fd5b8101908080519060200190929190805190602001909291908051906020019092919050505090505080935050600660009054906101000a900473ffffffffffffffffffffffffffffffffffffffff1673ffffffffffffffffffffffffffffffffffffffff166331fa706785856040518363ffffffff1660e01b8152600401808381526020018273ffffffffffffffffffffffffffffffffffffffff1673ffffffffffffffffffffffffffffffffffffffff1681526020019250505060206040518083038186803b158015610a9557600080fd5b505afa158015610aa9573d6000803e3d6000fd5b505050506040513d6020811015610abf57600080fd5b81019080805190602001909291905050509150600360009054906101000a900473ffffffffffffffffffffffffffffffffffffffff1673ffffffffffffffffffffffffffffffffffffffff1663bacf524e85846040518363ffffffff1660e01b8152600401808381526020018273ffffffffffffffffffffffffffffffffffffffff1673ffffffffffffffffffffffffffffffffffffffff1681526020019250505060206040518083038186803b158015610b7957600080fd5b505afa158015610b8d573d6000803e3d6000fd5b505050506040513d6020811015610ba357600080fd5b810190808051906020019092919050505090509193909250565b600460009054906101000a900473ffffffffffffffffffffffffffffffffffffffff1681565b60008273ffffffffffffffffffffffffffffffffffffffff168273ffffffffffffffffffffffffffffffffffffffff161415610c225760009050610e63565b8273ffffffffffffffffffffffffffffffffffffffff16600660009054906101000a900473ffffffffffffffffffffffffffffffffffffffff1673ffffffffffffffffffffffffffffffffffffffff166316805a2986856040518363ffffffff1660e01b8152600401808381526020018273ffffffffffffffffffffffffffffffffffffffff1673ffffffffffffffffffffffffffffffffffffffff1681526020019250505060206040518083038186803b158015610ce057600080fd5b505afa158015610cf4573d6000803e3d6000fd5b505050506040513d6020811015610d0a57600080fd5b810190808051906020019092919050505073ffffffffffffffffffffffffffffffffffffffff161415610d405760019050610e63565b8273ffffffffffffffffffffffffffffffffffffffff16600660009054906101000a900473ffffffffffffffffffffffffffffffffffffffff1673ffffffffffffffffffffffffffffffffffffffff16635f87206d86856040518363ffffffff1660e01b8152600401808381526020018273ffffffffffffffffffffffffffffffffffffffff1673ffffffffffffffffffffffffffffffffffffffff1681526020019250505060206040518083038186803b158015610dfe57600080fd5b505afa158015610e12573d6000803e3d6000fd5b505050506040513d6020811015610e2857600080fd5b810190808051906020019092919050505073ffffffffffffffffffffffffffffffffffffffff161415610e5e5760029050610e63565b600390505b9392505050565b600560009054906101000a900473ffffffffffffffffffffffffffffffffffffffff1681565b6000809054906101000a900473ffffffffffffffffffffffffffffffffffffffff1673ffffffffffffffffffffffffffffffffffffffff163373ffffffffffffffffffffffffffffffffffffffff1614610ee657fe5b600160009054906101000a900473ffffffffffffffffffffffffffffffffffffffff1673ffffffffffffffffffffffffffffffffffffffff1663358177736040518060400160405280600b81526020017f456e646f776d656e7444420000000000000000000000000000000000000000008152506040518263ffffffff1660e01b81526004018080602001828103825283818151815260200191508051906020019080838360005b83811015610fa9578082015181840152602081019050610f8e565b50505050905090810190601f168015610fd65780820380516001836020036101000a031916815260200191505b509250505060206040518083038186803b158015610ff357600080fd5b505afa158015611007573d6000803e3d6000fd5b505050506040513d602081101561101d57600080fd5b8101908080519060200190929190505050600460006101000a81548173ffffffffffffffffffffffffffffffffffffffff021916908373ffffffffffffffffffffffffffffffffffffffff160217905550600160009054906101000a900473ffffffffffffffffffffffffffffffffffffffff1673ffffffffffffffffffffffffffffffffffffffff1663358177736040518060400160405280600d81526020017f47616d65566172416e64466565000000000000000000000000000000000000008152506040518263ffffffff1660e01b81526004018080602001828103825283818151815260200191508051906020019080838360005b83811015611131578082015181840152602081019050611116565b50505050905090810190601f16801561115e5780820380516001836020036101000a031916815260200191505b509250505060206040518083038186803b15801561117b57600080fd5b505afa15801561118f573d6000803e3d6000fd5b505050506040513d60208110156111a557600080fd5b8101908080519060200190929190505050600260006101000a81548173ffffffffffffffffffffffffffffffffffffffff021916908373ffffffffffffffffffffffffffffffffffffffff160217905550600160009054906101000a900473ffffffffffffffffffffffffffffffffffffffff1673ffffffffffffffffffffffffffffffffffffffff1663358177736040518060400160405280601081526020017f4b69747469654669676874546f6b656e000000000000000000000000000000008152506040518263ffffffff1660e01b81526004018080602001828103825283818151815260200191508051906020019080838360005b838110156112b957808201518184015260208101905061129e565b50505050905090810190601f1680156112e65780820380516001836020036101000a031916815260200191505b509250505060206040518083038186803b15801561130357600080fd5b505afa158015611317573d6000803e3d6000fd5b505050506040513d602081101561132d57600080fd5b8101908080519060200190929190505050600560006101000a81548173ffffffffffffffffffffffffffffffffffffffff021916908373ffffffffffffffffffffffffffffffffffffffff160217905550600160009054906101000a900473ffffffffffffffffffffffffffffffffffffffff1673ffffffffffffffffffffffffffffffffffffffff1663358177736040518060400160405280600981526020017f47616d6553746f726500000000000000000000000000000000000000000000008152506040518263ffffffff1660e01b81526004018080602001828103825283818151815260200191508051906020019080838360005b83811015611441578082015181840152602081019050611426565b50505050905090810190601f16801561146e5780820380516001836020036101000a031916815260200191505b509250505060206040518083038186803b15801561148b57600080fd5b505afa15801561149f573d6000803e3d6000fd5b505050506040513d60208110156114b557600080fd5b8101908080519060200190929190505050600660006101000a81548173ffffffffffffffffffffffffffffffffffffffff021916908373ffffffffffffffffffffffffffffffffffffffff160217905550600160009054906101000a900473ffffffffffffffffffffffffffffffffffffffff1673ffffffffffffffffffffffffffffffffffffffff1663358177736040518060400160405280600a81526020017f474d4765747465724442000000000000000000000000000000000000000000008152506040518263ffffffff1660e01b81526004018080602001828103825283818151815260200191508051906020019080838360005b838110156115c95780820151818401526020810190506115ae565b50505050905090810190601f1680156115f65780820380516001836020036101000a031916815260200191505b509250505060206040518083038186803b15801561161357600080fd5b505afa158015611627573d6000803e3d6000fd5b505050506040513d602081101561163d57600080fd5b8101908080519060200190929190505050600360006101000a81548173ffffffffffffffffffffffffffffffffffffffff021916908373ffffffffffffffffffffffffffffffffffffffff1602179055506000600160009054906101000a900473ffffffffffffffffffffffffffffffffffffffff1673ffffffffffffffffffffffffffffffffffffffff1663358177736040518060400160405280600581526020017f57455448390000000000000000000000000000000000000000000000000000008152506040518263ffffffff1660e01b81526004018080602001828103825283818151815260200191508051906020019080838360005b83811015611753578082015181840152602081019050611738565b50505050905090810190601f1680156117805780820380516001836020036101000a031916815260200191505b509250505060206040518083038186803b15801561179d57600080fd5b505afa1580156117b1573d6000803e3d6000fd5b505050506040513d60208110156117c757600080fd5b8101908080519060200190929190505050905060078190806001815401808255809150509060018203906000526020600020016000909192909190916101000a81548173ffffffffffffffffffffffffffffffffffffffff021916908373ffffffffffffffffffffffffffffffffffffffff160217905550506000600160009054906101000a900473ffffffffffffffffffffffffffffffffffffffff1673ffffffffffffffffffffffffffffffffffffffff1663358177736040518060400160405280601081526020017f4b69747469654669676874546f6b656e000000000000000000000000000000008152506040518263ffffffff1660e01b81526004018080602001828103825283818151815260200191508051906020019080838360005b838110156119055780820151818401526020810190506118ea565b50505050905090810190601f1680156119325780820380516001836020036101000a031916815260200191505b509250505060206040518083038186803b15801561194f57600080fd5b505afa158015611963573d6000803e3d6000fd5b505050506040513d602081101561197957600080fd5b8101908080519060200190929190505050905060078190806001815401808255809150509060018203906000526020600020016000909192909190916101000a81548173ffffffffffffffffffffffffffffffffffffffff021916908373ffffffffffffffffffffffffffffffffffffffff160217905550505050565b6000809054906101000a900473ffffffffffffffffffffffffffffffffffffffff1681565b6000809054906101000a900473ffffffffffffffffffffffffffffffffffffffff1673ffffffffffffffffffffffffffffffffffffffff163373ffffffffffffffffffffffffffffffffffffffff1614611a7157fe5b80600160006101000a81548173ffffffffffffffffffffffffffffffffffffffff021916908373ffffffffffffffffffffffffffffffffffffffff16021790555050565b600080600080611ac486610920565b9250509150600073ffffffffffffffffffffffffffffffffffffffff168273ffffffffffffffffffffffffffffffffffffffff161415611b0357600080fd5b600080600360009054906101000a900473ffffffffffffffffffffffffffffffffffffffff1673ffffffffffffffffffffffffffffffffffffffff16630b154c9689896040518363ffffffff1660e01b8152600401808381526020018273ffffffffffffffffffffffffffffffffffffffff1673ffffffffffffffffffffffffffffffffffffffff1681526020019250505060806040518083038186803b158015611bad57600080fd5b505afa158015611bc1573d6000803e3d6000fd5b505050506040513d6080811015611bd757600080fd5b81019080805190602001909291908051906020019092919080519060200190929190805190602001909291905050505050915091508373ffffffffffffffffffffffffffffffffffffffff168773ffffffffffffffffffffffffffffffffffffffff1614158015611c7457508373ffffffffffffffffffffffffffffffffffffffff168173ffffffffffffffffffffffffffffffffffffffff1614155b15611c8f576000808191508090509550955050505050611dd1565b6000611c9c898987610be3565b90508473ffffffffffffffffffffffffffffffffffffffff168873ffffffffffffffffffffffffffffffffffffffff161415611db757600360009054906101000a900473ffffffffffffffffffffffffffffffffffffffff1673ffffffffffffffffffffffffffffffffffffffff1663dd99717d8a8a6040518363ffffffff1660e01b8152600401808381526020018273ffffffffffffffffffffffffffffffffffffffff1673ffffffffffffffffffffffffffffffffffffffff1681526020019250505060206040518083038186803b158015611d7957600080fd5b505afa158015611d8d573d6000803e3d6000fd5b505050506040513d6020811015611da357600080fd5b810190808051906020019092919050505092505b611dc38482858c611fc0565b809750819850505050505050505b9250929050565b600260009054906101000a900473ffffffffffffffffffffffffffffffffffffffff1681565b60078181548110611e0b57fe5b906000526020600020016000915054906101000a900473ffffffffffffffffffffffffffffffffffffffff1681565b600660009054906101000a900473ffffffffffffffffffffffffffffffffffffffff1681565b600160009054906101000a900473ffffffffffffffffffffffffffffffffffffffff1681565b6000809054906101000a900473ffffffffffffffffffffffffffffffffffffffff1673ffffffffffffffffffffffffffffffffffffffff163373ffffffffffffffffffffffffffffffffffffffff1614611edc57fe5b600073ffffffffffffffffffffffffffffffffffffffff168173ffffffffffffffffffffffffffffffffffffffff1614611f5157806000806101000a81548173ffffffffffffffffffffffffffffffffffffffff021916908373ffffffffffffffffffffffffffffffffffffffff1602179055505b50565b600080831415611f675760009050611f85565b6000828402905082848281611f7857fe5b0414611f8057fe5b809150505b92915050565b600080828481611f9757fe5b0490508091505092915050565b600080828401905083811015611fb657fe5b8091505092915050565b600080611fcb612872565b600660009054906101000a900473ffffffffffffffffffffffffffffffffffffffff1673ffffffffffffffffffffffffffffffffffffffff16636991b5bf856040518263ffffffff1660e01b81526004018082815260200191505060a06040518083038186803b15801561203e57600080fd5b505afa158015612052573d6000803e3d6000fd5b505050506040513d601f19601f8201168201806040525060a081101561207757600080fd5b810190809190505090506000600360009054906101000a900473ffffffffffffffffffffffffffffffffffffffff1673ffffffffffffffffffffffffffffffffffffffff1663525a8e4e866040518263ffffffff1660e01b815260040180828152602001915050604080518083038186803b1580156120f557600080fd5b505afa158015612109573d6000803e3d6000fd5b505050506040513d604081101561211f57600080fd5b8101908080519060200190929190805190602001909291905050509150506000612177620f4240612169858b6005811061215557fe5b60200201518c611f5490919063ffffffff16565b611f8b90919063ffffffff16565b905060006121b3620f42406121a5868c6005811061219157fe5b602002015186611f5490919063ffffffff16565b611f8b90919063ffffffff16565b905060038914156121d7576121ca81838a8a6121fd565b95509550505050506121f4565b6121ea8289611fa490919063ffffffff16565b8195509550505050505b94509492505050565b600080612208612894565b600360009054906101000a900473ffffffffffffffffffffffffffffffffffffffff1673ffffffffffffffffffffffffffffffffffffffff16636b1426a4856040518263ffffffff1660e01b81526004018082815260200191505060606040518083038186803b15801561227b57600080fd5b505afa15801561228f573d6000803e3d6000fd5b505050506040513d60608110156122a557600080fd5b81019080805190602001909291908051906020019092919080519060200190929190505050836000600381106122d757fe5b60200201846001600381106122e857fe5b60200201856002600381106122f957fe5b602002018373ffffffffffffffffffffffffffffffffffffffff1673ffffffffffffffffffffffffffffffffffffffff168152508373ffffffffffffffffffffffffffffffffffffffff1673ffffffffffffffffffffffffffffffffffffffff168152508373ffffffffffffffffffffffffffffffffffffffff1673ffffffffffffffffffffffffffffffffffffffff168152505050506000600360009054906101000a900473ffffffffffffffffffffffffffffffffffffffff1673ffffffffffffffffffffffffffffffffffffffff16630b154c9686846001600381106123de57fe5b60200201516040518363ffffffff1660e01b8152600401808381526020018273ffffffffffffffffffffffffffffffffffffffff1673ffffffffffffffffffffffffffffffffffffffff1681526020019250505060806040518083038186803b15801561244a57600080fd5b505afa15801561245e573d6000803e3d6000fd5b505050506040513d608081101561247457600080fd5b810190808051906020019092919080519060200190929190805190602001909291908051906020019092919050505050505090506000600360009054906101000a900473ffffffffffffffffffffffffffffffffffffffff1673ffffffffffffffffffffffffffffffffffffffff16630b154c9687856002600381106124f657fe5b60200201516040518363ffffffff1660e01b8152600401808381526020018273ffffffffffffffffffffffffffffffffffffffff1673ffffffffffffffffffffffffffffffffffffffff1681526020019250505060806040518083038186803b15801561256257600080fd5b505afa158015612576573d6000803e3d6000fd5b505050506040513d608081101561258c57600080fd5b810190808051906020019092919080519060200190929190805190602001909291908051906020019092919050505050505090506000600360009054906101000a900473ffffffffffffffffffffffffffffffffffffffff1673ffffffffffffffffffffffffffffffffffffffff1663dd99717d888660006003811061260e57fe5b60200201516040518363ffffffff1660e01b8152600401808381526020018273ffffffffffffffffffffffffffffffffffffffff1673ffffffffffffffffffffffffffffffffffffffff1681526020019250505060206040518083038186803b15801561267a57600080fd5b505afa15801561268e573d6000803e3d6000fd5b505050506040513d60208110156126a457600080fd5b810190808051906020019092919050505090506000600360009054906101000a900473ffffffffffffffffffffffffffffffffffffffff1673ffffffffffffffffffffffffffffffffffffffff1663bacf524e898760006003811061270557fe5b60200201516040518363ffffffff1660e01b8152600401808381526020018273ffffffffffffffffffffffffffffffffffffffff1673ffffffffffffffffffffffffffffffffffffffff1681526020019250505060206040518083038186803b15801561277157600080fd5b505afa158015612785573d6000803e3d6000fd5b505050506040513d602081101561279b57600080fd5b810190808051906020019092919050505090506127e5826127d7856127c9888661285b90919063ffffffff16565b61285b90919063ffffffff16565b61285b90919063ffffffff16565b905061280c816127fe8b8d611f5490919063ffffffff16565b611f8b90919063ffffffff16565b9950612833816128258b8e611f5490919063ffffffff16565b611f8b90919063ffffffff16565b9a506128488a8a611fa490919063ffffffff16565b8b96509650505050505094509492505050565b60008282111561286757fe5b818303905092915050565b6040518060a00160405280600590602082028038833980820191505090505090565b604051806060016040528060039060208202803883398082019150509050509056fea265627a7a72315820b22d0b369e065d425911a36b72853a1c95ae0b7f0c5af5b56a4a2636388530f564736f6c63430005110032",
  "source": "\n// This program is free software: you can redistribute it and/or modify\n// it under the terms of the GNU General Public License as published by\n// the Free Software Foundation, either version 3 of the License, or\n// (at your option) any later version.\n\n// This program is distributed in the hope that it will be useful,\n// but WITHOUT ANY WARRANTY; without even the implied warranty of\n// MERCHANTABILITY or FITNESS FOR A PARTICULAR PURPOSE.  See the\n// GNU General Public License for more details.\n\n// You should have received a copy of the GNU General Public License\n// along with this program.  If not, see <http://www.gnu.org/licenses/>.\n\npragma solidity ^0.5.5;\n\n\nimport '../../GameVarAndFee.sol';\nimport '../proxy/Proxied.sol';\nimport '../../libs/SafeMath.sol';\nimport '../databases/GMGetterDB.sol';\nimport \"../databases/EndowmentDB.sol\";\nimport \"../../interfaces/ERC20Standard.sol\";\nimport \"./Escrow.sol\";\nimport \"../gamemanager/GameStore.sol\";\nimport \"../../uniswapKTY/uniswap-v2-periphery/interfaces/IUniswapV2Router01.sol\";\nimport \"./KtyUniswap.sol\";\n\n/**\n * @title Distribution Contract\n * @dev The distribution contract allows the endowmentfund contract to properly distribute\n * Eth and KTY tokens funds, from each games honeypot to all winners in a game according\n * to the scheduled percentage.\n * @author @wafflemakr @hamaad\n */\ncontract Distribution is Proxied {\n\n    using SafeMath for uint256;\n\n    GameVarAndFee public gameVarAndFee;\n    GMGetterDB public gmGetterDB;\n    EndowmentDB public endowmentDB;\n    ERC20Standard public kittieFightToken;\n    GameStore public gameStore;\n\n    address[] public path;\n\n    /**\n    * @dev Sets related contracts\n    * @dev Can be called only by the owner of this contract\n    */\n    function initialize() external onlyOwner {\n        endowmentDB = EndowmentDB(proxy.getContract(CONTRACT_NAME_ENDOWMENT_DB));\n        gameVarAndFee = GameVarAndFee(proxy.getContract(CONTRACT_NAME_GAMEVARANDFEE));\n        kittieFightToken = ERC20Standard(proxy.getContract(CONTRACT_NAME_KITTIEFIGHTOKEN));\n        gameStore = GameStore(proxy.getContract(CONTRACT_NAME_GAMESTORE));\n        gmGetterDB = GMGetterDB(proxy.getContract(CONTRACT_NAME_GM_GETTER_DB));\n\n        address _WETH = proxy.getContract(CONTRACT_NAME_WETH);\n        path.push(_WETH);\n        address _KTY = proxy.getContract(CONTRACT_NAME_KITTIEFIGHTOKEN);\n        path.push(_KTY);\n    }\n\n    /**\n     * @notice Calculates amount of Eth the winner can claim\n     */\n    function getWinnerShare(uint256 gameId, address payable claimer)\n        public view\n        returns(uint256 winningsETH, uint256 winningsKTY)\n    {\n        (address winner, /*address loser*/, uint256 totalBetsForLosingCorner) = getWinnerLoser(gameId);\n\n        require(winner != address(0));\n\n        (uint256 bet, address supportedPlayer,,) = gmGetterDB.getSupporterInfo(gameId, claimer);\n\n        // If its not the winning player or part of the bettors of the winning corner\n        if(claimer != winner && supportedPlayer != winner) return (0,0);\n \n        uint256 winningCategory = checkWinnerCategory(gameId, claimer, winner);\n\n        if (claimer == winner)\n            bet = gmGetterDB.getPlayerBet(gameId, claimer);\n\n        (winningsETH, winningsKTY) = calculator(totalBetsForLosingCorner, winningCategory, bet, gameId);\n    }\n\n    function calculator(uint256 totalBetsForLosingCorner, uint256 winningCategory, uint256 bet, uint256 gameId)\n        internal view\n        returns(uint256, uint256)\n    {\n        uint256[5] memory rates = gameStore.getDistributionRates(gameId);\n        (, uint256 totalKTYFunds) = gmGetterDB.getFinalHoneypot(gameId);\n\n        uint256 winningsETH = (totalBetsForLosingCorner.mul(rates[winningCategory])).div(1000000); //1,000,000 is the percentage base\n        uint256 winningsKTY = (totalKTYFunds.mul(rates[winningCategory])).div(1000000); //1,000,000 is the percentage base\n\n        //Other bettors winnings\n        if (winningCategory == 3){\n            return getOtherWinnersShare(winningsKTY, winningsETH, bet, gameId);\n        }\n        else {\n            return (bet.add(winningsETH), winningsKTY);\n        }\n    }\n\n    function getOtherWinnersShare(uint256 winningsKTY, uint256 winningsETH, uint256 bet,\n        uint256 gameId)\n        internal view\n        returns(uint256, uint256)\n    {\n        address[3] memory winners;\n        (winners[0], winners[1], winners[2]) = gmGetterDB.getWinners(gameId);\n        (uint256 betAmountTop,,,) = gmGetterDB.getSupporterInfo(gameId, winners[1]);\n        (uint256 betAmountSecondTop,,,) = gmGetterDB.getSupporterInfo(gameId, winners[2]);\n\n        //getPlayerBet\n        uint256 playerBet = gmGetterDB.getPlayerBet(gameId, winners[0]);\n\n        //get other supporters totalBets for winning side\n        uint256 totalBets = gmGetterDB.getTotalBet(gameId, winners[0]);\n\n        //Remove top and secondTop total bets\n        totalBets = totalBets.sub(betAmountTop).sub(betAmountSecondTop).sub(playerBet);\n        winningsETH = winningsETH.mul(bet).div(totalBets);\n        winningsKTY = winningsKTY.mul(bet).div(totalBets);\n\n        // Distribute the 20% of the jackpot according to amount that supporter bet in game\n        // This is to avoid a bettor for claiming winings if he/she did not bet\n        return (bet.add(winningsETH), winningsKTY);\n    }\n\n\n    function getEndowmentShare(uint gameId) public view returns(uint256 winningsETH, uint256 winningsKTY){\n        (/*uint256 totalEthFunds*/, uint256 totalKTYFunds) = gmGetterDB.getFinalHoneypot(gameId);\n\n        uint256[5] memory rates = gameStore.getDistributionRates(gameId);\n        (,, uint initialEth,,,,) = gmGetterDB.getHoneypotInfo(gameId);\n\n        (/*address winner*/, /*address loser*/, uint256 totalBetsForLosingCorner) = getWinnerLoser(gameId);\n\n        winningsETH = initialEth.add(totalBetsForLosingCorner.mul(rates[4]).div(1000000)); //1,000,000 is the percentage base\n        winningsKTY = (totalKTYFunds.mul(rates[4])).div(1000000); //1,000,000 is the percentage base\n    }\n\n    function checkWinnerCategory\n    (\n        uint gameId, address payable claimer,\n        address winner\n    )\n        public view\n        returns(uint256 winningGroup)\n    {\n        // Winning Player\n        if (winner == claimer) return 0;\n\n        // Winning Top Bettor\n        if (gameStore.getTopBettor(gameId, winner) == claimer) return 1;\n\n        // Winning SecondTop Bettor\n        if (gameStore.getSecondTopBettor(gameId, winner) == claimer) return 2;\n\n        // Winning Other Bettors List\n        return 3;\n    }\n\n    function getWinnerLoser(uint256 gameId)\n        public view\n        returns(address winner, address loser, uint256 totalBetsForLosingCorner)\n    {\n        (winner,,) = gmGetterDB.getWinners(gameId);\n        loser = gameStore.getOpponent(gameId, winner);\n        totalBetsForLosingCorner = gmGetterDB.getTotalBet(gameId, loser);\n    }\n}",
  "sourcePath": "/Users/ziweizhang/Desktop/kittieFight-uniswap/contracts/contracts/modules/endowment/Distribution.sol",
  "compiler": {
    "name": "solc",
    "version": "0.5.17+commit.d19bba13.Emscripten.clang"
  },
  "schemaVersion": "3.0.23",
  "updatedAt": "2020-06-11T16:09:06.974Z",
  "devdoc": {
    "author": "@wafflemakr @hamaad",
    "details": "The distribution contract allows the endowmentfund contract to properly distribute Eth and KTY tokens funds, from each games honeypot to all winners in a game according to the scheduled percentage.",
    "methods": {
      "initialize()": {
        "details": "Sets related contractsCan be called only by the owner of this contract"
      }
    },
    "title": "Distribution Contract"
  },
  "userdoc": {
    "methods": {
      "getWinnerShare(uint256,address)": {
        "notice": "Calculates amount of Eth the winner can claim"
      },
      "setProxy(address)": {
        "notice": "Set/update address of Proxy contract"
      }
    }
  }
}