{
  "contractName": "EarningsTracker",
  "abi": [
    {
      "anonymous": false,
      "inputs": [
        {
          "indexed": true,
          "internalType": "address",
          "name": "funder",
          "type": "address"
        },
        {
          "indexed": true,
          "internalType": "uint256",
          "name": "ethieTokenID",
          "type": "uint256"
        },
        {
          "indexed": true,
          "internalType": "uint256",
          "name": "generation",
          "type": "uint256"
        }
      ],
      "name": "EtherLocked",
      "type": "event"
    },
    {
      "anonymous": false,
      "inputs": [
        {
          "indexed": true,
          "internalType": "address",
          "name": "burner",
          "type": "address"
        },
        {
          "indexed": true,
          "internalType": "uint256",
          "name": "ethieTokenID",
          "type": "uint256"
        },
        {
          "indexed": true,
          "internalType": "uint256",
          "name": "generation",
          "type": "uint256"
        },
        {
          "indexed": false,
          "internalType": "uint256",
          "name": "principalEther",
          "type": "uint256"
        },
        {
          "indexed": false,
          "internalType": "uint256",
          "name": "interestPaid",
          "type": "uint256"
        }
      ],
      "name": "EthieTokenBurnt",
      "type": "event"
    },
    {
      "constant": true,
      "inputs": [
        {
          "internalType": "uint256",
          "name": "",
          "type": "uint256"
        }
      ],
      "name": "amountsPerEpoch",
      "outputs": [
        {
          "internalType": "uint256",
          "name": "investment",
          "type": "uint256"
        },
        {
          "internalType": "uint256",
          "name": "interest",
          "type": "uint256"
        }
      ],
      "payable": false,
      "stateMutability": "view",
      "type": "function"
    },
    {
      "constant": true,
      "inputs": [],
      "name": "currentFundingLimit",
      "outputs": [
        {
          "internalType": "uint256",
          "name": "",
          "type": "uint256"
        }
      ],
      "payable": false,
      "stateMutability": "view",
      "type": "function"
    },
    {
      "constant": true,
      "inputs": [],
      "name": "endowmentFund",
      "outputs": [
        {
          "internalType": "contract EndowmentFund",
          "name": "",
          "type": "address"
        }
      ],
      "payable": false,
      "stateMutability": "view",
      "type": "function"
    },
    {
      "constant": true,
      "inputs": [],
      "name": "ethieToken",
      "outputs": [
        {
          "internalType": "contract IEthieToken",
          "name": "",
          "type": "address"
        }
      ],
      "payable": false,
      "stateMutability": "view",
      "type": "function"
    },
    {
      "constant": true,
      "inputs": [
        {
          "internalType": "uint256",
          "name": "",
          "type": "uint256"
        }
      ],
      "name": "ethieTokens",
      "outputs": [
        {
          "internalType": "address",
          "name": "originalOwner",
          "type": "address"
        },
        {
          "internalType": "uint256",
          "name": "generation",
          "type": "uint256"
        },
        {
          "internalType": "uint256",
          "name": "ethValue",
          "type": "uint256"
        },
        {
          "internalType": "uint256",
          "name": "lockedAt",
          "type": "uint256"
        },
        {
          "internalType": "uint256",
          "name": "lockTime",
          "type": "uint256"
        },
        {
          "internalType": "bool",
          "name": "tokenBurnt",
          "type": "bool"
        },
        {
          "internalType": "uint256",
          "name": "tokenBurntAt",
          "type": "uint256"
        },
        {
          "internalType": "address",
          "name": "tokenBurntBy",
          "type": "address"
        },
        {
          "internalType": "uint256",
          "name": "interestPaid",
          "type": "uint256"
        },
        {
          "internalType": "uint256",
          "name": "startingEpochID",
          "type": "uint256"
        }
      ],
      "payable": false,
      "stateMutability": "view",
      "type": "function"
    },
    {
      "constant": true,
      "inputs": [
        {
          "internalType": "uint256",
          "name": "",
          "type": "uint256"
        }
      ],
      "name": "fundingLimit",
      "outputs": [
        {
          "internalType": "uint256",
          "name": "",
          "type": "uint256"
        }
      ],
      "payable": false,
      "stateMutability": "view",
      "type": "function"
    },
    {
      "constant": true,
      "inputs": [],
      "name": "gameVarAndFee",
      "outputs": [
        {
          "internalType": "contract GameVarAndFee",
          "name": "",
          "type": "address"
        }
      ],
      "payable": false,
      "stateMutability": "view",
      "type": "function"
    },
    {
      "constant": true,
      "inputs": [],
      "name": "owner",
      "outputs": [
        {
          "internalType": "address payable",
          "name": "",
          "type": "address"
        }
      ],
      "payable": false,
      "stateMutability": "view",
      "type": "function"
    },
    {
      "constant": true,
      "inputs": [],
      "name": "proxy",
      "outputs": [
        {
          "internalType": "contract ProxyBase",
          "name": "",
          "type": "address"
        }
      ],
      "payable": false,
      "stateMutability": "view",
      "type": "function"
    },
    {
      "constant": false,
      "inputs": [
        {
          "internalType": "contract ProxyBase",
          "name": "_proxy",
          "type": "address"
        }
      ],
      "name": "setProxy",
      "outputs": [],
      "payable": false,
      "stateMutability": "nonpayable",
      "type": "function"
    },
    {
      "constant": true,
      "inputs": [],
      "name": "timeFrame",
      "outputs": [
        {
          "internalType": "contract TimeFrame",
          "name": "",
          "type": "address"
        }
      ],
      "payable": false,
      "stateMutability": "view",
      "type": "function"
    },
    {
      "constant": false,
      "inputs": [
        {
          "internalType": "address payable",
          "name": "newOwner",
          "type": "address"
        }
      ],
      "name": "transferOwnership",
      "outputs": [],
      "payable": false,
      "stateMutability": "nonpayable",
      "type": "function"
    },
    {
      "constant": false,
      "inputs": [
        {
          "internalType": "address",
          "name": "_ethieToken",
          "type": "address"
        }
      ],
      "name": "initialize",
      "outputs": [],
      "payable": false,
      "stateMutability": "nonpayable",
      "type": "function"
    },
    {
      "constant": false,
      "inputs": [
        {
          "internalType": "uint256",
          "name": "epoch_id",
          "type": "uint256"
        },
        {
          "internalType": "uint256",
          "name": "_investment",
          "type": "uint256"
        }
      ],
      "name": "setInvestment",
      "outputs": [],
      "payable": false,
      "stateMutability": "nonpayable",
      "type": "function"
    },
    {
      "constant": false,
      "inputs": [
        {
          "internalType": "uint256",
          "name": "epoch_id",
          "type": "uint256"
        },
        {
          "internalType": "uint256",
          "name": "_total",
          "type": "uint256"
        }
      ],
      "name": "setInterest",
      "outputs": [],
      "payable": false,
      "stateMutability": "nonpayable",
      "type": "function"
    },
    {
      "constant": false,
      "inputs": [],
      "name": "lockETH",
      "outputs": [
        {
          "internalType": "uint256",
          "name": "",
          "type": "uint256"
        }
      ],
      "payable": true,
      "stateMutability": "payable",
      "type": "function"
    },
    {
      "constant": false,
      "inputs": [
        {
          "internalType": "uint256",
          "name": "_ethieTokenID",
          "type": "uint256"
        }
      ],
      "name": "burnNFT",
      "outputs": [
        {
          "internalType": "bool",
          "name": "",
          "type": "bool"
        }
      ],
      "payable": true,
      "stateMutability": "payable",
      "type": "function"
    },
    {
      "constant": false,
      "inputs": [],
      "name": "setCurrentFundingLimit",
      "outputs": [],
      "payable": false,
      "stateMutability": "nonpayable",
      "type": "function"
    },
    {
      "constant": false,
      "inputs": [
        {
          "internalType": "uint256",
          "name": "_generation",
          "type": "uint256"
        },
        {
          "internalType": "uint256",
          "name": "_fundingLimit",
          "type": "uint256"
        }
      ],
      "name": "modifyFundingLimit",
      "outputs": [],
      "payable": false,
      "stateMutability": "nonpayable",
      "type": "function"
    },
    {
      "constant": false,
      "inputs": [],
      "name": "stopDeposits",
      "outputs": [],
      "payable": false,
      "stateMutability": "nonpayable",
      "type": "function"
    },
    {
      "constant": false,
      "inputs": [],
      "name": "enableDeposits",
      "outputs": [],
      "payable": false,
      "stateMutability": "nonpayable",
      "type": "function"
    },
    {
      "constant": false,
      "inputs": [],
      "name": "incrementGenerationInEthieToken",
      "outputs": [],
      "payable": false,
      "stateMutability": "nonpayable",
      "type": "function"
    },
    {
      "constant": true,
      "inputs": [],
      "name": "getCurrentGeneration",
      "outputs": [
        {
          "internalType": "uint256",
          "name": "",
          "type": "uint256"
        }
      ],
      "payable": false,
      "stateMutability": "view",
      "type": "function"
    },
    {
      "constant": true,
      "inputs": [],
      "name": "getcurrentFundingLimit",
      "outputs": [
        {
          "internalType": "uint256",
          "name": "",
          "type": "uint256"
        }
      ],
      "payable": false,
      "stateMutability": "view",
      "type": "function"
    },
    {
      "constant": true,
      "inputs": [
        {
          "internalType": "uint256",
          "name": "_generation",
          "type": "uint256"
        }
      ],
      "name": "getFundingLimit",
      "outputs": [
        {
          "internalType": "uint256",
          "name": "",
          "type": "uint256"
        }
      ],
      "payable": false,
      "stateMutability": "view",
      "type": "function"
    },
    {
      "constant": true,
      "inputs": [
        {
          "internalType": "uint256",
          "name": "_generation",
          "type": "uint256"
        }
      ],
      "name": "hasReachedLimit",
      "outputs": [
        {
          "internalType": "bool",
          "name": "",
          "type": "bool"
        }
      ],
      "payable": false,
      "stateMutability": "view",
      "type": "function"
    },
    {
      "constant": true,
      "inputs": [],
      "name": "ethNeededToReachFundingLimit",
      "outputs": [
        {
          "internalType": "uint256",
          "name": "",
          "type": "uint256"
        }
      ],
      "payable": false,
      "stateMutability": "view",
      "type": "function"
    },
    {
      "constant": true,
      "inputs": [],
      "name": "viewTotalInterests",
      "outputs": [
        {
          "internalType": "uint256",
          "name": "",
          "type": "uint256"
        }
      ],
      "payable": false,
      "stateMutability": "view",
      "type": "function"
    },
    {
      "constant": true,
      "inputs": [
        {
          "internalType": "uint256",
          "name": "_eth_amount",
          "type": "uint256"
        },
        {
          "internalType": "uint256",
          "name": "_startingEpoch",
          "type": "uint256"
        }
      ],
      "name": "calculateTotal",
      "outputs": [
        {
          "internalType": "uint256",
          "name": "",
          "type": "uint256"
        }
      ],
      "payable": false,
      "stateMutability": "view",
      "type": "function"
    },
    {
      "constant": true,
      "inputs": [],
      "name": "getCurrentEpoch",
      "outputs": [
        {
          "internalType": "uint256",
          "name": "",
          "type": "uint256"
        }
      ],
      "payable": false,
      "stateMutability": "view",
      "type": "function"
    },
    {
      "constant": true,
      "inputs": [],
      "name": "isWorkingDay",
      "outputs": [
        {
          "internalType": "bool",
          "name": "",
          "type": "bool"
        }
      ],
      "payable": false,
      "stateMutability": "view",
      "type": "function"
    },
    {
      "constant": true,
      "inputs": [],
      "name": "canBurn",
      "outputs": [
        {
          "internalType": "bool",
          "name": "",
          "type": "bool"
        }
      ],
      "payable": false,
      "stateMutability": "view",
      "type": "function"
    },
    {
      "constant": true,
      "inputs": [],
      "name": "_viewEpochStage",
      "outputs": [
        {
          "internalType": "string",
          "name": "state",
          "type": "string"
        },
        {
          "internalType": "uint256",
          "name": "start",
          "type": "uint256"
        },
        {
          "internalType": "uint256",
          "name": "end",
          "type": "uint256"
        }
      ],
      "payable": false,
      "stateMutability": "view",
      "type": "function"
    },
    {
      "constant": true,
      "inputs": [],
      "name": "viewEpochStageStartTime",
      "outputs": [
        {
          "internalType": "string",
          "name": "state",
          "type": "string"
        },
        {
          "internalType": "uint256",
          "name": "startYear",
          "type": "uint256"
        },
        {
          "internalType": "uint256",
          "name": "startMonth",
          "type": "uint256"
        },
        {
          "internalType": "uint256",
          "name": "startDay",
          "type": "uint256"
        },
        {
          "internalType": "uint256",
          "name": "startHour",
          "type": "uint256"
        },
        {
          "internalType": "uint256",
          "name": "startMinute",
          "type": "uint256"
        },
        {
          "internalType": "uint256",
          "name": "startSecond",
          "type": "uint256"
        }
      ],
      "payable": false,
      "stateMutability": "view",
      "type": "function"
    },
    {
      "constant": true,
      "inputs": [],
      "name": "viewEpochStageEndTime",
      "outputs": [
        {
          "internalType": "string",
          "name": "state",
          "type": "string"
        },
        {
          "internalType": "uint256",
          "name": "endYear",
          "type": "uint256"
        },
        {
          "internalType": "uint256",
          "name": "endMonth",
          "type": "uint256"
        },
        {
          "internalType": "uint256",
          "name": "endDay",
          "type": "uint256"
        },
        {
          "internalType": "uint256",
          "name": "endHour",
          "type": "uint256"
        },
        {
          "internalType": "uint256",
          "name": "endMinute",
          "type": "uint256"
        },
        {
          "internalType": "uint256",
          "name": "endSecond",
          "type": "uint256"
        }
      ],
      "payable": false,
      "stateMutability": "view",
      "type": "function"
    },
    {
      "constant": true,
      "inputs": [
        {
          "internalType": "uint256",
          "name": "ethieTokenID",
          "type": "uint256"
        }
      ],
      "name": "_viewNextYieldClaimDate",
      "outputs": [
        {
          "internalType": "uint256",
          "name": "",
          "type": "uint256"
        }
      ],
      "payable": false,
      "stateMutability": "view",
      "type": "function"
    },
    {
      "constant": true,
      "inputs": [
        {
          "internalType": "uint256",
          "name": "ethieTokenID",
          "type": "uint256"
        }
      ],
      "name": "viewNextYieldClaimDate",
      "outputs": [
        {
          "internalType": "uint256",
          "name": "year",
          "type": "uint256"
        },
        {
          "internalType": "uint256",
          "name": "month",
          "type": "uint256"
        },
        {
          "internalType": "uint256",
          "name": "day",
          "type": "uint256"
        },
        {
          "internalType": "uint256",
          "name": "hour",
          "type": "uint256"
        },
        {
          "internalType": "uint256",
          "name": "minute",
          "type": "uint256"
        },
        {
          "internalType": "uint256",
          "name": "second",
          "type": "uint256"
        }
      ],
      "payable": false,
      "stateMutability": "view",
      "type": "function"
    },
    {
      "constant": true,
      "inputs": [
        {
          "internalType": "uint256",
          "name": "ethieTokenID",
          "type": "uint256"
        }
      ],
      "name": "_checkLockETHDate",
      "outputs": [
        {
          "internalType": "uint256",
          "name": "",
          "type": "uint256"
        }
      ],
      "payable": false,
      "stateMutability": "view",
      "type": "function"
    },
    {
      "constant": true,
      "inputs": [
        {
          "internalType": "uint256",
          "name": "ethieTokenID",
          "type": "uint256"
        }
      ],
      "name": "checkLockETHDate",
      "outputs": [
        {
          "internalType": "uint256",
          "name": "year",
          "type": "uint256"
        },
        {
          "internalType": "uint256",
          "name": "month",
          "type": "uint256"
        },
        {
          "internalType": "uint256",
          "name": "day",
          "type": "uint256"
        },
        {
          "internalType": "uint256",
          "name": "hour",
          "type": "uint256"
        },
        {
          "internalType": "uint256",
          "name": "minute",
          "type": "uint256"
        },
        {
          "internalType": "uint256",
          "name": "second",
          "type": "uint256"
        }
      ],
      "payable": false,
      "stateMutability": "view",
      "type": "function"
    },
    {
      "constant": true,
      "inputs": [
        {
          "internalType": "uint256",
          "name": "_eth_amount",
          "type": "uint256"
        }
      ],
      "name": "generateLockTime",
      "outputs": [
        {
          "internalType": "uint256",
          "name": "",
          "type": "uint256"
        }
      ],
      "payable": false,
      "stateMutability": "view",
      "type": "function"
    },
    {
      "constant": true,
      "inputs": [
        {
          "internalType": "uint256",
          "name": "ethieTokenID",
          "type": "uint256"
        }
      ],
      "name": "KTYforBurnEthie",
      "outputs": [
        {
          "internalType": "uint256",
          "name": "",
          "type": "uint256"
        },
        {
          "internalType": "uint256",
          "name": "",
          "type": "uint256"
        }
      ],
      "payable": false,
      "stateMutability": "view",
      "type": "function"
    }
  ],
  "bytecode": "0x6080604052336000806101000a81548173ffffffffffffffffffffffffffffffffffffffff021916908373ffffffffffffffffffffffffffffffffffffffff160217905550614ff2806100536000396000f3fe6080604052600436106102465760003560e01c806390d46bbe11610139578063c1eb1840116100b6578063e4525cf21161007a578063e4525cf214610ca4578063e4684cf014610ccf578063ec55688914610d41578063f2fde38b14610d98578063f98ac9bb14610de9578063fa39d22914610e4057610246565b8063c1eb184014610ac2578063c4d66de814610af1578063c6bac7c614610b42578063cb96286b14610b9b578063ccf1571414610c5557610246565b8063b4113b2e116100fd578063b4113b2e14610980578063b8ceeb7a146109ab578063b928704d14610a1d578063b97dd9e214610a48578063be8ba24c14610a7357610246565b806390d46bbe1461084357806391fe73cf1461087257806397107d6d146108895780639f0b8bd4146108da578063a3b3bd7b1461092957610246565b80635cbe86bc116101c75780638305aa341161018b5780638305aa341461063b5780638b13b64b146107255780638c89e55a1461077c5780638da5cb5b146107a75780638f21e921146107fe57610246565b80635cbe86bc146105145780635e4c57a41461052b578063664b53331461054257806369af70b3146105915780636ae82e14146105e857610246565b80632890e0d71161020e5780632890e0d71461036a5780632a5f8ffc146103b057806339fb2b571461044e5780633ba4fb201461047957806343201b71146104cf57610246565b8063070164fc1461024b5780631ee023a1146102a15780631ee116bf146102f05780631fab5af71461030e5780631fc6db8914610353575b600080fd5b34801561025757600080fd5b506102846004803603602081101561026e57600080fd5b8101908080359060200190929190505050610efa565b604051808381526020018281526020019250505060405180910390f35b3480156102ad57600080fd5b506102da600480360360208110156102c457600080fd5b8101908080359060200190929190505050610f1e565b6040518082815260200191505060405180910390f35b6102f8610f77565b6040518082815260200191505060405180910390f35b34801561031a57600080fd5b506103516004803603604081101561033157600080fd5b8101908080359060200190929190803590602001909291905050506113aa565b005b34801561035f57600080fd5b506103686114d4565b005b6103966004803603602081101561038057600080fd5b810190808035906020019092919050505061171f565b604051808215151515815260200191505060405180910390f35b3480156103bc57600080fd5b506103c5611de6565b6040518080602001848152602001838152602001828103825285818151815260200191508051906020019080838360005b838110156104115780820151818401526020810190506103f6565b50505050905090810190601f16801561043e5780820380516001836020036101000a031916815260200191505b5094505050505060405180910390f35b34801561045a57600080fd5b5061046361224e565b6040518082815260200191505060405180910390f35b34801561048557600080fd5b506104b26004803603602081101561049c57600080fd5b8101908080359060200190929190505050612363565b604051808381526020018281526020019250505060405180910390f35b3480156104db57600080fd5b50610512600480360360408110156104f257600080fd5b810190808035906020019092919080359060200190929190505050612718565b005b34801561052057600080fd5b506105296127f4565b005b34801561053757600080fd5b506105406128f8565b005b34801561054e57600080fd5b5061057b6004803603602081101561056557600080fd5b81019080803590602001909291905050506129fc565b6040518082815260200191505060405180910390f35b34801561059d57600080fd5b506105a6612a19565b604051808273ffffffffffffffffffffffffffffffffffffffff1673ffffffffffffffffffffffffffffffffffffffff16815260200191505060405180910390f35b3480156105f457600080fd5b506106216004803603602081101561060b57600080fd5b8101908080359060200190929190505050612a3f565b604051808215151515815260200191505060405180910390f35b34801561064757600080fd5b506106746004803603602081101561065e57600080fd5b8101908080359060200190929190505050612a6c565b604051808b73ffffffffffffffffffffffffffffffffffffffff1673ffffffffffffffffffffffffffffffffffffffff1681526020018a8152602001898152602001888152602001878152602001861515151581526020018581526020018473ffffffffffffffffffffffffffffffffffffffff1673ffffffffffffffffffffffffffffffffffffffff1681526020018381526020018281526020019a505050505050505050505060405180910390f35b34801561073157600080fd5b5061073a612b0d565b604051808273ffffffffffffffffffffffffffffffffffffffff1673ffffffffffffffffffffffffffffffffffffffff16815260200191505060405180910390f35b34801561078857600080fd5b50610791612b33565b6040518082815260200191505060405180910390f35b3480156107b357600080fd5b506107bc612b71565b604051808273ffffffffffffffffffffffffffffffffffffffff1673ffffffffffffffffffffffffffffffffffffffff16815260200191505060405180910390f35b34801561080a57600080fd5b506108416004803603604081101561082157600080fd5b810190808035906020019092919080359060200190929190505050612b96565b005b34801561084f57600080fd5b50610858612d4e565b604051808215151515815260200191505060405180910390f35b34801561087e57600080fd5b50610887612e0a565b005b34801561089557600080fd5b506108d8600480360360208110156108ac57600080fd5b81019080803573ffffffffffffffffffffffffffffffffffffffff169060200190929190505050612f75565b005b3480156108e657600080fd5b50610913600480360360208110156108fd57600080fd5b810190808035906020019092919050505061300f565b6040518082815260200191505060405180910390f35b34801561093557600080fd5b5061093e613034565b604051808273ffffffffffffffffffffffffffffffffffffffff1673ffffffffffffffffffffffffffffffffffffffff16815260200191505060405180910390f35b34801561098c57600080fd5b5061099561305a565b6040518082815260200191505060405180910390f35b3480156109b757600080fd5b506109e4600480360360208110156109ce57600080fd5b81019080803590602001909291905050506130a3565b60405180878152602001868152602001858152602001848152602001838152602001828152602001965050505050505060405180910390f35b348015610a2957600080fd5b50610a326131c9565b6040518082815260200191505060405180910390f35b348015610a5457600080fd5b50610a5d6131cf565b6040518082815260200191505060405180910390f35b348015610a7f57600080fd5b50610aac60048036036020811015610a9657600080fd5b8101908080359060200190929190505050613279565b6040518082815260200191505060405180910390f35b348015610ace57600080fd5b50610ad761341b565b604051808215151515815260200191505060405180910390f35b348015610afd57600080fd5b50610b4060048036036020811015610b1457600080fd5b81019080803573ffffffffffffffffffffffffffffffffffffffff1690602001909291905050506134d7565b005b348015610b4e57600080fd5b50610b8560048036036040811015610b6557600080fd5b810190808035906020019092919080359060200190929190505050613b0a565b6040518082815260200191505060405180910390f35b348015610ba757600080fd5b50610bb0613c6e565b6040518080602001888152602001878152602001868152602001858152602001848152602001838152602001828103825289818151815260200191508051906020019080838360005b83811015610c14578082015181840152602081019050610bf9565b50505050905090810190601f168015610c415780820380516001836020036101000a031916815260200191505b509850505050505050505060405180910390f35b348015610c6157600080fd5b50610c8e60048036036020811015610c7857600080fd5b8101908080359060200190929190505050613d8f565b6040518082815260200191505060405180910390f35b348015610cb057600080fd5b50610cb9613da7565b6040518082815260200191505060405180910390f35b348015610cdb57600080fd5b50610d0860048036036020811015610cf257600080fd5b8101908080359060200190929190505050613db1565b60405180878152602001868152602001858152602001848152602001838152602001828152602001965050505050505060405180910390f35b348015610d4d57600080fd5b50610d56613ec9565b604051808273ffffffffffffffffffffffffffffffffffffffff1673ffffffffffffffffffffffffffffffffffffffff16815260200191505060405180910390f35b348015610da457600080fd5b50610de760048036036020811015610dbb57600080fd5b81019080803573ffffffffffffffffffffffffffffffffffffffff169060200190929190505050613eef565b005b348015610df557600080fd5b50610dfe613fbd565b604051808273ffffffffffffffffffffffffffffffffffffffff1673ffffffffffffffffffffffffffffffffffffffff16815260200191505060405180910390f35b348015610e4c57600080fd5b50610e55613fe3565b6040518080602001888152602001878152602001868152602001858152602001848152602001838152602001828103825289818151815260200191508051906020019080838360005b83811015610eb9578082015181840152602081019050610e9e565b50505050905090810190601f168015610ee65780820380516001836020036101000a031916815260200191505b509850505050505050505060405180910390f35b60086020528060005260406000206000915090508060000154908060010154905082565b600080600a60008481526020019081526020016000206004015490506000600a60008581526020019081526020016000206003015490506000610f6a838361410390919063ffffffff16565b9050809350505050919050565b6000610f8161411f565b60001515600760009054906101000a900460ff16151514610fed576040517f08c379a0000000000000000000000000000000000000000000000000000000008152600401808060200182810382526025815260200180614f366025913960400191505060405180910390fd5b6000610ff761305a565b9050600015156009600083815260200190815260200160002060030160009054906101000a900460ff16151514611079576040517f08c379a000000000000000000000000000000000000000000000000000000000815260040180806020018281038252602e815260200180614e5c602e913960400191505060405180910390fd5b6000600960008381526020019081526020016000206001015490506000600654905060006110b0348461410390919063ffffffff16565b905060006110bc6142a9565b9050600560009054906101000a900473ffffffffffffffffffffffffffffffffffffffff1673ffffffffffffffffffffffffffffffffffffffff1663ff8baff5346040518263ffffffff1660e01b81526004016020604051808303818588803b15801561112857600080fd5b505af115801561113c573d6000803e3d6000fd5b50505050506040513d602081101561115357600080fd5b81019080805190602001909291905050506111d6576040517f08c379a00000000000000000000000000000000000000000000000000000000081526004018080602001828103825260148152602001807f46756e6473206465706f736974206661696c656400000000000000000000000081525060200191505060405180910390fd5b600080838510156112765760006111f6868661435e90919063ffffffff16565b9050600061120d823461435e90919063ffffffff16565b905061121881613279565b9350611225858286614375565b92506112338582868661446c565b61123c8161453a565b611248338360006145ec565b60011515600960008b815260200190815260200160002060030160009054906101000a9050505050506112dc565b61127f34613279565b915061128c833484614375565b905061129a8334848461446c565b6112a33461453a565b838514156112db5760016009600089815260200190815260200160002060030160006101000a81548160ff0219169083151502179055505b5b60006008600080815260200190815260200160002060000154141561131c576000600a600083815260200190815260200160002060090181905550611358565b6000611339600161132b6131cf565b61410390919063ffffffff16565b905080600a600084815260200190815260200160002060090181905550505b86818473ffffffffffffffffffffffffffffffffffffffff167f010dba25976dc5d04d71eeb429940be4c724e9cd33c018b77ce034e4d9200b1a60405160405180910390a48097505050505050505090565b6040518060400160405280600c81526020017f5769746864726177506f6f6c00000000000000000000000000000000000000008152506113e9816146e2565b61143e576040517f08c379a000000000000000000000000000000000000000000000000000000000815260040180806020018281038252602d815260200180614f09602d913960400191505060405180910390fd5b600082116114b4576040517f08c379a00000000000000000000000000000000000000000000000000000000081526004018080602001828103825260128152602001807f57616974696e6720496e766573746d656e74000000000000000000000000000081525060200191505060405180910390fd5b816008600085815260200190815260200160002060000181905550505050565b600073ffffffffffffffffffffffffffffffffffffffff163373ffffffffffffffffffffffffffffffffffffffff16141561150b57fe5b6115496040518060400160405280600581526020017f61646d696e00000000000000000000000000000000000000000000000000000081525061492d565b6115bb576040517f08c379a000000000000000000000000000000000000000000000000000000000815260040180806020018281038252600a8152602001807f4f6e6c792061646d696e0000000000000000000000000000000000000000000081525060200191505060405180910390fd5b600060065414156115e557600b60008081526020019081526020016000205460068190555061171d565b60006115ef61305a565b9050600115156009600083815260200190815260200160002060030160009054906101000a900460ff16151514611671576040517f08c379a000000000000000000000000000000000000000000000000000000000815260040180806020018281038252602a815260200180614f5b602a913960400191505060405180910390fd5b600061168760018361410390919063ffffffff16565b90506000600b60008481526020019081526020016000205490506000600b6000848152602001908152602001600020549050818111611711576040517f08c379a0000000000000000000000000000000000000000000000000000000008152600401808060200182810382526039815260200180614e236039913960400191505060405180910390fd5b80600681905550505050505b565b600061172961411f565b600360009054906101000a900473ffffffffffffffffffffffffffffffffffffffff1673ffffffffffffffffffffffffffffffffffffffff1663aff3a9666040518163ffffffff1660e01b815260040160206040518083038186803b15801561179157600080fd5b505afa1580156117a5573d6000803e3d6000fd5b505050506040513d60208110156117bb57600080fd5b810190808051906020019092919050505061183e576040517f08c379a00000000000000000000000000000000000000000000000000000000081526004018080602001828103825260198152602001807f43616e206f6e6c79206275726e206f6e2052657374204461790000000000000081525060200191505060405180910390fd5b60006118486142a9565b90506000600260009054906101000a900473ffffffffffffffffffffffffffffffffffffffff1673ffffffffffffffffffffffffffffffffffffffff16636352211e856040518263ffffffff1660e01b81526004018082815260200191505060206040518083038186803b1580156118bf57600080fd5b505afa1580156118d3573d6000803e3d6000fd5b505050506040513d60208110156118e957600080fd5b810190808051906020019092919050505090508173ffffffffffffffffffffffffffffffffffffffff168173ffffffffffffffffffffffffffffffffffffffff1614611980576040517f08c379a0000000000000000000000000000000000000000000000000000000008152600401808060200182810382526028815260200180614e8a6028913960400191505060405180910390fd5b60001515600a600086815260200190815260200160002060050160009054906101000a900460ff16151514611a00576040517f08c379a000000000000000000000000000000000000000000000000000000000815260040180806020018281038252602a815260200180614edf602a913960400191505060405180910390fd5b600080611a0c86612363565b91509150600560009054906101000a900473ffffffffffffffffffffffffffffffffffffffff1673ffffffffffffffffffffffffffffffffffffffff1663ecbedebc348685856040518563ffffffff1660e01b8152600401808473ffffffffffffffffffffffffffffffffffffffff1673ffffffffffffffffffffffffffffffffffffffff16815260200183815260200182815260200193505050506020604051808303818588803b158015611ac157600080fd5b505af1158015611ad5573d6000803e3d6000fd5b50505050506040513d6020811015611aec57600080fd5b8101908080519060200190929190505050611b52576040517f08c379a000000000000000000000000000000000000000000000000000000000815260040180806020018281038252602d815260200180614eb2602d913960400191505060405180910390fd5b600260009054906101000a900473ffffffffffffffffffffffffffffffffffffffff1673ffffffffffffffffffffffffffffffffffffffff166342966c68876040518263ffffffff1660e01b815260040180828152602001915050600060405180830381600087803b158015611bc757600080fd5b505af1158015611bdb573d6000803e3d6000fd5b505050506000600a60008881526020019081526020016000206003015490506000611c0f824261435e90919063ffffffff16565b90506000600a60008a81526020019081526020016000206002015490506000600a60008b81526020019081526020016000206001015490506000611c6983600a60008e815260200190815260200160002060090154613b0a565b90506000611c80848361435e90919063ffffffff16565b9050611c8c8385614ba9565b611c978a8d83614cbf565b6000600360009054906101000a900473ffffffffffffffffffffffffffffffffffffffff1673ffffffffffffffffffffffffffffffffffffffff16630b3fbd5f6040518163ffffffff1660e01b815260040160206040518083038186803b158015611d0157600080fd5b505afa158015611d15573d6000803e3d6000fd5b505050506040513d6020811015611d2b57600080fd5b8101908080519060200190929190505050905080600a60008f8152602001908152602001600020600901541115611d6d57611d688b8460006145ec565b611d7a565b611d798b8460016145ec565b5b838d8c73ffffffffffffffffffffffffffffffffffffffff167fa2415ada2bea5e79372e0862b875236e5c3aff91497683d3d1f7d12b64c41f0a8886604051808381526020018281526020019250505060405180910390a460019b505050505050505050505050919050565b6060600080600360009054906101000a900473ffffffffffffffffffffffffffffffffffffffff1673ffffffffffffffffffffffffffffffffffffffff1663ba43c3816040518163ffffffff1660e01b815260040160206040518083038186803b158015611e5357600080fd5b505afa158015611e67573d6000803e3d6000fd5b505050506040513d6020811015611e7d57600080fd5b8101908080519060200190929190505050421161201b576040518060400160405280600c81526020017f576f726b696e67204461797300000000000000000000000000000000000000008152509250600360009054906101000a900473ffffffffffffffffffffffffffffffffffffffff1673ffffffffffffffffffffffffffffffffffffffff1663ddfbc3006040518163ffffffff1660e01b815260040160206040518083038186803b158015611f3457600080fd5b505afa158015611f48573d6000803e3d6000fd5b505050506040513d6020811015611f5e57600080fd5b81019080805190602001909291905050509150600360009054906101000a900473ffffffffffffffffffffffffffffffffffffffff1673ffffffffffffffffffffffffffffffffffffffff1663ba43c3816040518163ffffffff1660e01b815260040160206040518083038186803b158015611fd957600080fd5b505afa158015611fed573d6000803e3d6000fd5b505050506040513d602081101561200357600080fd5b81019080805190602001909291905050509050612249565b600360009054906101000a900473ffffffffffffffffffffffffffffffffffffffff1673ffffffffffffffffffffffffffffffffffffffff1663ba43c3816040518163ffffffff1660e01b815260040160206040518083038186803b15801561208357600080fd5b505afa158015612097573d6000803e3d6000fd5b505050506040513d60208110156120ad57600080fd5b8101908080519060200190929190505050421115612248576040518060400160405280600881526020017f52657374204461790000000000000000000000000000000000000000000000008152509250600360009054906101000a900473ffffffffffffffffffffffffffffffffffffffff1673ffffffffffffffffffffffffffffffffffffffff1663bbbe61216040518163ffffffff1660e01b815260040160206040518083038186803b15801561216557600080fd5b505afa158015612179573d6000803e3d6000fd5b505050506040513d602081101561218f57600080fd5b81019080805190602001909291905050509150600360009054906101000a900473ffffffffffffffffffffffffffffffffffffffff1673ffffffffffffffffffffffffffffffffffffffff1663ed0c79ec6040518163ffffffff1660e01b815260040160206040518083038186803b15801561220a57600080fd5b505afa15801561221e573d6000803e3d6000fd5b505050506040513d602081101561223457600080fd5b810190808051906020019092919050505090505b5b909192565b600080600360009054906101000a900473ffffffffffffffffffffffffffffffffffffffff1673ffffffffffffffffffffffffffffffffffffffff16630b3fbd5f6040518163ffffffff1660e01b815260040160206040518083038186803b1580156122b957600080fd5b505afa1580156122cd573d6000803e3d6000fd5b505050506040513d60208110156122e357600080fd5b810190808051906020019092919050505090506000809050600060fa831061230e5760fa8303612311565b60005b905060008190505b838110156123595761234a60086000838152602001908152602001600020600101548461410390919063ffffffff16565b92508080600101915050612319565b5081935050505090565b6000806000600460009054906101000a900473ffffffffffffffffffffffffffffffffffffffff1673ffffffffffffffffffffffffffffffffffffffff1663f45d8e086040518163ffffffff1660e01b815260040160206040518083038186803b1580156123d057600080fd5b505afa1580156123e4573d6000803e3d6000fd5b505050506040513d60208110156123fa57600080fd5b810190808051906020019092919050505090506000600a60008681526020019081526020016000206002015490506000600a6000878152602001908152602001600020600901549050600061244f8383613b0a565b90506000600460009054906101000a900473ffffffffffffffffffffffffffffffffffffffff1673ffffffffffffffffffffffffffffffffffffffff1663fa16b2bd836040518263ffffffff1660e01b81526004018082815260200191505060206040518083038186803b1580156124c657600080fd5b505afa1580156124da573d6000803e3d6000fd5b505050506040513d60208110156124f057600080fd5b81019080805190602001909291905050509050600061252d620f424061251f8885614dd290919063ffffffff16565b614e0990919063ffffffff16565b90506000600160009054906101000a900473ffffffffffffffffffffffffffffffffffffffff1673ffffffffffffffffffffffffffffffffffffffff1663358177736040518060400160405280600a81526020017f4b7479556e6973776170000000000000000000000000000000000000000000008152506040518263ffffffff1660e01b81526004018080602001828103825283818151815260200191508051906020019080838360005b838110156125f45780820151818401526020810190506125d9565b50505050905090810190601f1680156126215780820380516001836020036101000a031916815260200191505b509250505060206040518083038186803b15801561263e57600080fd5b505afa158015612652573d6000803e3d6000fd5b505050506040513d602081101561266857600080fd5b810190808051906020019092919050505073ffffffffffffffffffffffffffffffffffffffff1663557b3400836040518263ffffffff1660e01b81526004018082815260200191505060206040518083038186803b1580156126c957600080fd5b505afa1580156126dd573d6000803e3d6000fd5b505050506040513d60208110156126f357600080fd5b8101908080519060200190929190505050905080829850985050505050505050915091565b6040518060400160405280600c81526020017f5769746864726177506f6f6c0000000000000000000000000000000000000000815250612757816146e2565b6127ac576040517f08c379a000000000000000000000000000000000000000000000000000000000815260040180806020018281038252602d815260200180614f09602d913960400191505060405180910390fd5b6127d560086000858152602001908152602001600020600001548361435e90919063ffffffff16565b6008600085815260200190815260200160002060010181905550505050565b600073ffffffffffffffffffffffffffffffffffffffff163373ffffffffffffffffffffffffffffffffffffffff16141561282b57fe5b6128696040518060400160405280600581526020017f61646d696e00000000000000000000000000000000000000000000000000000081525061492d565b6128db576040517f08c379a000000000000000000000000000000000000000000000000000000000815260040180806020018281038252600a8152602001807f4f6e6c792061646d696e0000000000000000000000000000000000000000000081525060200191505060405180910390fd5b6001600760006101000a81548160ff021916908315150217905550565b600073ffffffffffffffffffffffffffffffffffffffff163373ffffffffffffffffffffffffffffffffffffffff16141561292f57fe5b61296d6040518060400160405280600581526020017f61646d696e00000000000000000000000000000000000000000000000000000081525061492d565b6129df576040517f08c379a000000000000000000000000000000000000000000000000000000000815260040180806020018281038252600a8152602001807f4f6e6c792061646d696e0000000000000000000000000000000000000000000081525060200191505060405180910390fd5b6000600760006101000a81548160ff021916908315150217905550565b6000600b6000838152602001908152602001600020549050919050565b600560009054906101000a900473ffffffffffffffffffffffffffffffffffffffff1681565b60006009600083815260200190815260200160002060030160009054906101000a900460ff169050919050565b600a6020528060005260406000206000915090508060000160009054906101000a900473ffffffffffffffffffffffffffffffffffffffff16908060010154908060020154908060030154908060040154908060050160009054906101000a900460ff16908060060154908060070160009054906101000a900473ffffffffffffffffffffffffffffffffffffffff1690806008015490806009015490508a565b600360009054906101000a900473ffffffffffffffffffffffffffffffffffffffff1681565b600080612b3e61305a565b9050612b6b600960008381526020019081526020016000206001015460065461435e90919063ffffffff16565b91505090565b6000809054906101000a900473ffffffffffffffffffffffffffffffffffffffff1681565b600073ffffffffffffffffffffffffffffffffffffffff163373ffffffffffffffffffffffffffffffffffffffff161415612bcd57fe5b612c0b6040518060400160405280600581526020017f61646d696e00000000000000000000000000000000000000000000000000000081525061492d565b612c7d576040517f08c379a000000000000000000000000000000000000000000000000000000000815260040180806020018281038252600a8152602001807f4f6e6c792061646d696e0000000000000000000000000000000000000000000081525060200191505060405180910390fd5b6000821415612ca35780600b600084815260200190815260200160002081905550612d4a565b6000821115612d49576000612cc260018461435e90919063ffffffff16565b9050600b6000828152602001908152602001600020548211612d2f576040517f08c379a0000000000000000000000000000000000000000000000000000000008152600401808060200182810382526039815260200180614f856039913960400191505060405180910390fd5b81600b600085815260200190815260200160002081905550505b5b5050565b6000600360009054906101000a900473ffffffffffffffffffffffffffffffffffffffff1673ffffffffffffffffffffffffffffffffffffffff1663ba43c3816040518163ffffffff1660e01b815260040160206040518083038186803b158015612db857600080fd5b505afa158015612dcc573d6000803e3d6000fd5b505050506040513d6020811015612de257600080fd5b81019080805190602001909291905050504211612e025760019050612e07565b600090505b90565b600073ffffffffffffffffffffffffffffffffffffffff163373ffffffffffffffffffffffffffffffffffffffff161415612e4157fe5b612e7f6040518060400160405280600581526020017f61646d696e00000000000000000000000000000000000000000000000000000081525061492d565b612ef1576040517f08c379a000000000000000000000000000000000000000000000000000000000815260040180806020018281038252600a8152602001807f4f6e6c792061646d696e0000000000000000000000000000000000000000000081525060200191505060405180910390fd5b600260009054906101000a900473ffffffffffffffffffffffffffffffffffffffff1673ffffffffffffffffffffffffffffffffffffffff1663b917ade56040518163ffffffff1660e01b8152600401600060405180830381600087803b158015612f5b57600080fd5b505af1158015612f6f573d6000803e3d6000fd5b50505050565b6000809054906101000a900473ffffffffffffffffffffffffffffffffffffffff1673ffffffffffffffffffffffffffffffffffffffff163373ffffffffffffffffffffffffffffffffffffffff1614612fcb57fe5b80600160006101000a81548173ffffffffffffffffffffffffffffffffffffffff021916908373ffffffffffffffffffffffffffffffffffffffff16021790555050565b600080600a600084815260200190815260200160002060030154905080915050919050565b600460009054906101000a900473ffffffffffffffffffffffffffffffffffffffff1681565b600080600090505b600781101561309e57600654600b600083815260200190815260200160002054141561309157809150506130a0565b8080600101915050613062565b505b90565b6000806000806000806000600a6000898152602001908152602001600020600301549050600360009054906101000a900473ffffffffffffffffffffffffffffffffffffffff1673ffffffffffffffffffffffffffffffffffffffff1663ea1c1690826040518263ffffffff1660e01b81526004018082815260200191505060c06040518083038186803b15801561313a57600080fd5b505afa15801561314e573d6000803e3d6000fd5b505050506040513d60c081101561316457600080fd5b81019080805190602001909291908051906020019092919080519060200190929190805190602001909291908051906020019092919080519060200190929190505050809750819850829950839a50849b50859c505050505050505091939550919395565b60065481565b6000600360009054906101000a900473ffffffffffffffffffffffffffffffffffffffff1673ffffffffffffffffffffffffffffffffffffffff16630b3fbd5f6040518163ffffffff1660e01b815260040160206040518083038186803b15801561323957600080fd5b505afa15801561324d573d6000803e3d6000fd5b505050506040513d602081101561326357600080fd5b8101908080519060200190929190505050905090565b60008061328461305a565b90506000600654905060008214156132c7576132be846132b08362278d00614dd290919063ffffffff16565b614e0990919063ffffffff16565b92505050613416565b6001821415613301576132f8846132ea83624f1a00614dd290919063ffffffff16565b614e0990919063ffffffff16565b92505050613416565b600282141561333b5761333284613324836262e080614dd290919063ffffffff16565b614e0990919063ffffffff16565b92505050613416565b60038214156133755761336c8461335e836276a700614dd290919063ffffffff16565b614e0990919063ffffffff16565b92505050613416565b60048214156133af576133a68461339883628a6d80614dd290919063ffffffff16565b614e0990919063ffffffff16565b92505050613416565b60058214156133e9576133e0846133d283629e3400614dd290919063ffffffff16565b614e0990919063ffffffff16565b92505050613416565b613411846134038362b1fa80614dd290919063ffffffff16565b614e0990919063ffffffff16565b925050505b919050565b6000600360009054906101000a900473ffffffffffffffffffffffffffffffffffffffff1673ffffffffffffffffffffffffffffffffffffffff1663ba43c3816040518163ffffffff1660e01b815260040160206040518083038186803b15801561348557600080fd5b505afa158015613499573d6000803e3d6000fd5b505050506040513d60208110156134af57600080fd5b810190808051906020019092919050505042116134cf57600190506134d4565b600090505b90565b6000809054906101000a900473ffffffffffffffffffffffffffffffffffffffff1673ffffffffffffffffffffffffffffffffffffffff163373ffffffffffffffffffffffffffffffffffffffff161461352d57fe5b80600260006101000a81548173ffffffffffffffffffffffffffffffffffffffff021916908373ffffffffffffffffffffffffffffffffffffffff160217905550600160009054906101000a900473ffffffffffffffffffffffffffffffffffffffff1673ffffffffffffffffffffffffffffffffffffffff1663358177736040518060400160405280600981526020017f54696d654672616d6500000000000000000000000000000000000000000000008152506040518263ffffffff1660e01b81526004018080602001828103825283818151815260200191508051906020019080838360005b83811015613631578082015181840152602081019050613616565b50505050905090810190601f16801561365e5780820380516001836020036101000a031916815260200191505b509250505060206040518083038186803b15801561367b57600080fd5b505afa15801561368f573d6000803e3d6000fd5b505050506040513d60208110156136a557600080fd5b8101908080519060200190929190505050600360006101000a81548173ffffffffffffffffffffffffffffffffffffffff021916908373ffffffffffffffffffffffffffffffffffffffff160217905550600160009054906101000a900473ffffffffffffffffffffffffffffffffffffffff1673ffffffffffffffffffffffffffffffffffffffff1663358177736040518060400160405280600d81526020017f47616d65566172416e64466565000000000000000000000000000000000000008152506040518263ffffffff1660e01b81526004018080602001828103825283818151815260200191508051906020019080838360005b838110156137b957808201518184015260208101905061379e565b50505050905090810190601f1680156137e65780820380516001836020036101000a031916815260200191505b509250505060206040518083038186803b15801561380357600080fd5b505afa158015613817573d6000803e3d6000fd5b505050506040513d602081101561382d57600080fd5b8101908080519060200190929190505050600460006101000a81548173ffffffffffffffffffffffffffffffffffffffff021916908373ffffffffffffffffffffffffffffffffffffffff160217905550600160009054906101000a900473ffffffffffffffffffffffffffffffffffffffff1673ffffffffffffffffffffffffffffffffffffffff1663358177736040518060400160405280600d81526020017f456e646f776d656e7446756e64000000000000000000000000000000000000008152506040518263ffffffff1660e01b81526004018080602001828103825283818151815260200191508051906020019080838360005b83811015613941578082015181840152602081019050613926565b50505050905090810190601f16801561396e5780820380516001836020036101000a031916815260200191505b509250505060206040518083038186803b15801561398b57600080fd5b505afa15801561399f573d6000803e3d6000fd5b505050506040513d60208110156139b557600080fd5b8101908080519060200190929190505050600560006101000a81548173ffffffffffffffffffffffffffffffffffffffff021916908373ffffffffffffffffffffffffffffffffffffffff160217905550681b1ae4d6e2ef500000600b600080815260200190815260200160002081905550683635c9adc5dea00000600b60006001815260200190815260200160002081905550686c6b935b8bbd400000600b6000600281526020019081526020016000208190555069010f0cf064dd59200000600b6000600381526020019081526020016000208190555069021e19e0c9bab2400000600b60006004815260200190815260200160002081905550690a968163f0a57b400000600b60006005815260200190815260200160002081905550790100000000000000000000000000000000000000000000000000600b6000600681526020019081526020016000208190555050565b600080600360009054906101000a900473ffffffffffffffffffffffffffffffffffffffff1673ffffffffffffffffffffffffffffffffffffffff16630b3fbd5f6040518163ffffffff1660e01b815260040160206040518083038186803b158015613b7557600080fd5b505afa158015613b89573d6000803e3d6000fd5b505050506040513d6020811015613b9f57600080fd5b8101908080519060200190929190505050905080831115613bc35783915050613c68565b600084905060008490505b613be260018461410390919063ffffffff16565b811015613c61576000613c3c6008600084815260200190815260200160002060000154613c2e600860008681526020019081526020016000206001015486614dd290919063ffffffff16565b614e0990919063ffffffff16565b9050613c51818461410390919063ffffffff16565b9250508080600101915050613bce565b5080925050505b92915050565b60606000806000806000806000613c83611de6565b90508092508199505050600360009054906101000a900473ffffffffffffffffffffffffffffffffffffffff1673ffffffffffffffffffffffffffffffffffffffff1663ea1c1690826040518263ffffffff1660e01b81526004018082815260200191505060c06040518083038186803b158015613d0057600080fd5b505afa158015613d14573d6000803e3d6000fd5b505050506040513d60c0811015613d2a57600080fd5b81019080805190602001909291908051906020019092919080519060200190929190805190602001909291908051906020019092919080519060200190929190505050809750819850829950839a50849b50859c505050505050505090919293949596565b600b6020528060005260406000206000915090505481565b6000600654905090565b6000806000806000806000613dc588610f1e565b9050600360009054906101000a900473ffffffffffffffffffffffffffffffffffffffff1673ffffffffffffffffffffffffffffffffffffffff1663ea1c1690826040518263ffffffff1660e01b81526004018082815260200191505060c06040518083038186803b158015613e3a57600080fd5b505afa158015613e4e573d6000803e3d6000fd5b505050506040513d60c0811015613e6457600080fd5b81019080805190602001909291908051906020019092919080519060200190929190805190602001909291908051906020019092919080519060200190929190505050809750819850829950839a50849b50859c505050505050505091939550919395565b600160009054906101000a900473ffffffffffffffffffffffffffffffffffffffff1681565b6000809054906101000a900473ffffffffffffffffffffffffffffffffffffffff1673ffffffffffffffffffffffffffffffffffffffff163373ffffffffffffffffffffffffffffffffffffffff1614613f4557fe5b600073ffffffffffffffffffffffffffffffffffffffff168173ffffffffffffffffffffffffffffffffffffffff1614613fba57806000806101000a81548173ffffffffffffffffffffffffffffffffffffffff021916908373ffffffffffffffffffffffffffffffffffffffff1602179055505b50565b600260009054906101000a900473ffffffffffffffffffffffffffffffffffffffff1681565b60606000806000806000806000613ff8611de6565b508092508199505050600360009054906101000a900473ffffffffffffffffffffffffffffffffffffffff1673ffffffffffffffffffffffffffffffffffffffff1663ea1c1690826040518263ffffffff1660e01b81526004018082815260200191505060c06040518083038186803b15801561407457600080fd5b505afa158015614088573d6000803e3d6000fd5b505050506040513d60c081101561409e57600080fd5b81019080805190602001909291908051906020019092919080519060200190929190805190602001909291908051906020019092919080519060200190929190505050809750819850829950839a50849b50859c505050505050505090919293949596565b60008082840190508381101561411557fe5b8091505092915050565b600073ffffffffffffffffffffffffffffffffffffffff16600160009054906101000a900473ffffffffffffffffffffffffffffffffffffffff1673ffffffffffffffffffffffffffffffffffffffff1614156141e4576040517f08c379a00000000000000000000000000000000000000000000000000000000081526004018080602001828103825260088152602001807f4e6f2050726f787900000000000000000000000000000000000000000000000081525060200191505060405180910390fd5b600160009054906101000a900473ffffffffffffffffffffffffffffffffffffffff1673ffffffffffffffffffffffffffffffffffffffff163373ffffffffffffffffffffffffffffffffffffffff16146142a7576040517f08c379a00000000000000000000000000000000000000000000000000000000081526004018080602001828103825260128152602001807f4f6e6c79207468726f7567682050726f7879000000000000000000000000000081525060200191505060405180910390fd5b565b6000600160009054906101000a900473ffffffffffffffffffffffffffffffffffffffff1673ffffffffffffffffffffffffffffffffffffffff163373ffffffffffffffffffffffffffffffffffffffff16146143085733905061435b565b6000601436036000602052601481602c37602051915050600073ffffffffffffffffffffffffffffffffffffffff168173ffffffffffffffffffffffffffffffffffffffff16141561435657fe5b809150505b90565b60008282111561436a57fe5b818303905092915050565b6000600260009054906101000a900473ffffffffffffffffffffffffffffffffffffffff1673ffffffffffffffffffffffffffffffffffffffff1663156e29f68585856040518463ffffffff1660e01b8152600401808473ffffffffffffffffffffffffffffffffffffffff1673ffffffffffffffffffffffffffffffffffffffff1681526020018381526020018281526020019350505050602060405180830381600087803b15801561442857600080fd5b505af115801561443c573d6000803e3d6000fd5b505050506040513d602081101561445257600080fd5b810190808051906020019092919050505090509392505050565b61447461305a565b600a60008381526020019081526020016000206001018190555082600a60008381526020019081526020016000206002018190555042600a60008381526020019081526020016000206003018190555081600a60008381526020019081526020016000206004018190555083600a600083815260200190815260200160002060000160006101000a81548173ffffffffffffffffffffffffffffffffffffffff021916908373ffffffffffffffffffffffffffffffffffffffff16021790555050505050565b600061454461305a565b905061456f82600960008481526020019081526020016000206001015461410390919063ffffffff16565b60096000838152602001908152602001600020600101819055504260096000838152602001908152602001600020600201819055506145ce6001600960008481526020019081526020016000206004015461410390919063ffffffff16565b60096000838152602001908152602001600020600401819055505050565b600560009054906101000a900473ffffffffffffffffffffffffffffffffffffffff1673ffffffffffffffffffffffffffffffffffffffff16639f39c1778484846040518463ffffffff1660e01b8152600401808473ffffffffffffffffffffffffffffffffffffffff1673ffffffffffffffffffffffffffffffffffffffff168152602001838152602001821515151581526020019350505050602060405180830381600087803b1580156146a157600080fd5b505af11580156146b5573d6000803e3d6000fd5b505050506040513d60208110156146cb57600080fd5b810190808051906020019092919050505050505050565b60008073ffffffffffffffffffffffffffffffffffffffff16600160009054906101000a900473ffffffffffffffffffffffffffffffffffffffff1673ffffffffffffffffffffffffffffffffffffffff1614156147a8576040517f08c379a00000000000000000000000000000000000000000000000000000000081526004018080602001828103825260088152602001807f4e6f2050726f787900000000000000000000000000000000000000000000000081525060200191505060405180910390fd5b6000600160009054906101000a900473ffffffffffffffffffffffffffffffffffffffff1673ffffffffffffffffffffffffffffffffffffffff166335817773846040518263ffffffff1660e01b81526004018080602001828103825283818151815260200191508051906020019080838360005b8381101561483857808201518184015260208101905061481d565b50505050905090810190601f1680156148655780820380516001836020036101000a031916815260200191505b509250505060206040518083038186803b15801561488257600080fd5b505afa158015614896573d6000803e3d6000fd5b505050506040513d60208110156148ac57600080fd5b81019080805190602001909291905050509050600073ffffffffffffffffffffffffffffffffffffffff168173ffffffffffffffffffffffffffffffffffffffff1614156148f657fe5b8073ffffffffffffffffffffffffffffffffffffffff163373ffffffffffffffffffffffffffffffffffffffff1614915050919050565b6000600160009054906101000a900473ffffffffffffffffffffffffffffffffffffffff1673ffffffffffffffffffffffffffffffffffffffff1663358177736040518060400160405280600681526020017f526f6c65444200000000000000000000000000000000000000000000000000008152506040518263ffffffff1660e01b81526004018080602001828103825283818151815260200191508051906020019080838360005b838110156149f25780820151818401526020810190506149d7565b50505050905090810190601f168015614a1f5780820380516001836020036101000a031916815260200191505b509250505060206040518083038186803b158015614a3c57600080fd5b505afa158015614a50573d6000803e3d6000fd5b505050506040513d6020811015614a6657600080fd5b810190808051906020019092919050505073ffffffffffffffffffffffffffffffffffffffff16636c9cd09783614a9b6142a9565b6040518363ffffffff1660e01b815260040180806020018373ffffffffffffffffffffffffffffffffffffffff1673ffffffffffffffffffffffffffffffffffffffff168152602001828103825284818151815260200191508051906020019080838360005b83811015614b1c578082015181840152602081019050614b01565b50505050905090810190601f168015614b495780820380516001836020036101000a031916815260200191505b50935050505060206040518083038186803b158015614b6757600080fd5b505afa158015614b7b573d6000803e3d6000fd5b505050506040513d6020811015614b9157600080fd5b81019080805190602001909291905050509050919050565b614bd281600960008581526020019081526020016000206001015461435e90919063ffffffff16565b6009600084815260200190815260200160002060010181905550426009600084815260200190815260200160002060020181905550614c316001600960008581526020019081526020016000206004015461435e90919063ffffffff16565b60096000848152602001908152602001600020600401819055506000614c5561305a565b90508083148015614c8d5750600115156009600085815260200190815260200160002060030160009054906101000a900460ff161515145b15614cba57600015156009600085815260200190815260200160002060030160009054906101000a905050505b505050565b6000600a6000848152602001908152602001600020600201819055506000600a6000848152602001908152602001600020600301819055506000600a6000848152602001908152602001600020600401819055506001600a600084815260200190815260200160002060050160006101000a81548160ff02191690831515021790555042600a60008481526020019081526020016000206006018190555082600a600084815260200190815260200160002060070160006101000a81548173ffffffffffffffffffffffffffffffffffffffff021916908373ffffffffffffffffffffffffffffffffffffffff16021790555080600a600084815260200190815260200160002060080181905550505050565b600080831415614de55760009050614e03565b6000828402905082848281614df657fe5b0414614dfe57fe5b809150505b92915050565b600080828481614e1557fe5b049050809150509291505056fe46756e64696e67206c696d6974206d75737420626520626967676572207468616e207468652070726576696f75732067656e65726174696f6e43757272656e742066756e64696e67206c696d69742068617320616c7265616479206265656e20726561636865644f6e6c7920746865206f776e6572206f66207468697320746f6b656e2063616e206275726e2069744661696c656420746f20706179204b54592066656520666f72206275726e696e6720457468696520546f6b656e54686973204574686965546f6b656e204e46542068617320616c7265616479206265656e206275726e74416363657373206973206f6e6c7920616c6c6f7765642066726f6d20737065636966696320636f6e74726163744465706f7369747320617265206e6f7420616c6c6f77656420617420746869732074696d6550726576696f75732066756e64696e67206c696d6974206861736e2774206265656e207265616368656446756e64696e67206c696d6974206d75737420626520686967686572207468616e207468652070726576696f75732067656e65726174696f6ea265627a7a72315820505d017139c344eef2a65fb03cef49d11101c9cbc0a6ef34b3d5aabc0de96fba64736f6c63430005110032",
  "source": "/**\r\n* @title EarningsTracker\r\n*\r\n* @author @ziweidream\r\n*\r\n*/\r\npragma solidity ^0.5.5;\r\n\r\nimport '../proxy/Proxied.sol';\r\nimport '../../authority/Guard.sol';\r\nimport '../../libs/SafeMath.sol';\r\nimport '../datetime/TimeFrame.sol';\r\nimport '../../GameVarAndFee.sol';\r\nimport './EndowmentFund.sol';\r\nimport '../../interfaces/IEthieToken.sol';\r\n\r\n\r\ncontract EarningsTracker is Proxied, Guard {\r\n    using SafeMath for uint256;\r\n\r\n    // Contract variables\r\n    IEthieToken public ethieToken;\r\n    TimeFrame public timeFrame;\r\n    GameVarAndFee public gameVarAndFee;\r\n    EndowmentFund public endowmentFund;\r\n\r\n    /// @dev current funding limit\r\n    uint256 public currentFundingLimit;\r\n\r\n    /// @dev true if deposits are disabled\r\n    bool internal depositsDisabled;\r\n\r\n    uint256 constant WEEK                        = 7 * 24 * 60 * 60;\r\n    uint256 constant THIRTY_DAYS                 = 30 * 24 * 60 * 60;   // GEN 0\r\n    uint256 constant SIXTY_DAYS                  = 60 * 24 * 60 * 60;   // GEN 1\r\n    uint256 constant SEVENTY_FIVE_DAYS           = 75 * 24 * 60 * 60;   // GEN 2\r\n    uint256 constant NINETY_DAYS                 = 90 * 24 * 60 * 60;   // GEN 3\r\n    uint256 constant ONE_HUNDRED_AND_FIVE_DAYS   = 105 * 24 * 60 * 60;  // GEN 4\r\n    uint256 constant ONE_HUNDRED_AND_TWENTY_DAYS = 120 * 24 * 60 * 60;  // GEN 5\r\n    uint256 constant ONE_HUNDRED_AND_THIRTY_FIVE_DAYS = 135 * 24 * 60 * 60;  // GEN 6\r\n\r\n    /// @dev an EthieToken NFT's associated properties\r\n    struct NFT {\r\n        address originalOwner; // the owner of this token at the time of minting\r\n        uint256 generation;    // the generation of this funds, between number 0 and 6\r\n        uint256 ethValue;      // the funder's current funding balance (ether deposited - ether withdrawal)\r\n        uint256 lockedAt;      // the unix time at which this funds is locked\r\n        uint256 lockTime;      // lock duration\r\n        bool tokenBurnt;       // true if this token has been burnt\r\n        uint256 tokenBurntAt;  // the time when this token was burnt\r\n        address tokenBurntBy;  // who burnt this token (if this token was burnt)\r\n        uint256 interestPaid; // interest released to the burner when this token was burnt\r\n        uint256 startingEpochID; //The epochId this token started to contribute.\r\n    }\r\n\r\n    struct AmountsEpoch {\r\n        uint256 investment;\r\n        uint256 interest;\r\n    }\r\n\r\n    mapping(uint256 => AmountsEpoch) public amountsPerEpoch;\r\n\r\n    /// @dev a generation's associated properties\r\n    struct Generation {\r\n        uint256 start;           // time when this generation starts\r\n        uint256 ethBalance;      // the lastest ether balance associated with this generation\r\n        uint256 ethBalanceAt;    // the last time when the ethBlance is modified\r\n        bool limitReached;       // true if the funding limit of this generation is reached\r\n        uint256 numberOfNFTs;    // number of NFTs associated with this generation\r\n    }\r\n\r\n    /// @dev mapping generation ID to its properties\r\n    mapping (uint256 => Generation) generations;\r\n\r\n    /// @dev mapping ethieToken NFT to its properties\r\n    mapping(uint256 => NFT) public ethieTokens;\r\n\r\n    /// @dev funding limit for each generation, pre-set in initialization, can only be changed by admin\r\n    mapping (uint256 => uint256) public fundingLimit;\r\n\r\n    //============================ Initializer ============================\r\n    // pre-set funding limit for each generation during initialization\r\n    // No funding limit in generation 6. 2**256-1 is the maximum for uint256.\r\n    // But 2**200 is a number big enough to be used as the maximum here.\r\n    function initialize(address _ethieToken) external onlyOwner {\r\n        ethieToken = IEthieToken(_ethieToken);\r\n        timeFrame = TimeFrame(proxy.getContract(CONTRACT_NAME_TIMEFRAME));\r\n        gameVarAndFee = GameVarAndFee(proxy.getContract(CONTRACT_NAME_GAMEVARANDFEE));\r\n        endowmentFund = EndowmentFund(proxy.getContract(CONTRACT_NAME_ENDOWMENT_FUND));\r\n\r\n        fundingLimit[0] = 500 * 1e18;\r\n        fundingLimit[1] = 1000 * 1e18;\r\n        fundingLimit[2] = 2000 * 1e18;\r\n        fundingLimit[3] = 5000 * 1e18;\r\n        fundingLimit[4] = 10000 * 1e18;\r\n        fundingLimit[5] = 50000 * 1e18;\r\n        fundingLimit[6] = 2**200;\r\n    }\r\n\r\n    //============================ Events ============================\r\n    event EtherLocked(\r\n        address indexed funder,\r\n        uint256 indexed ethieTokenID,\r\n        uint256 indexed generation\r\n    );\r\n\r\n    event EthieTokenBurnt(\r\n        address indexed burner,\r\n        uint256 indexed ethieTokenID,\r\n        uint256 indexed generation,\r\n        uint256 principalEther,\r\n        uint256 interestPaid\r\n    );\r\n\r\n    //============================ Public Functions ============================\r\n\r\n    function setInvestment(uint256 epoch_id, uint256 _investment)\r\n    external\r\n    onlyContract(CONTRACT_NAME_WITHDRAW_POOL)\r\n    {\r\n        require(_investment > 0, \"Waiting Investment\");\r\n        amountsPerEpoch[epoch_id].investment = _investment;\r\n    }\r\n\r\n    function setInterest(uint256 epoch_id, uint256 _total)\r\n    external\r\n    onlyContract(CONTRACT_NAME_WITHDRAW_POOL)\r\n    {\r\n        amountsPerEpoch[epoch_id].interest = _total.sub(amountsPerEpoch[epoch_id].investment);\r\n    }\r\n\r\n    /**\r\n     * @dev deposit eth and receive an NFT token, which can be burned\r\n     * in order to retrieve locked eth and accumulated interest\r\n     * @return uint256 ID of the Ethie Token NFT minted to the funder\r\n     */\r\n    function lockETH()\r\n        external\r\n        payable\r\n        onlyProxy\r\n        returns (uint256)\r\n    {\r\n        require(depositsDisabled == false, \"Deposits are not allowed at this time\");\r\n        uint256 currentGeneration = getCurrentGeneration();\r\n        // if funding limit of current generation is reached, reject any deposit\r\n        require(generations[currentGeneration].limitReached == false,\r\n                \"Current funding limit has already been reached\");\r\n\r\n        uint256 _ethBalance = generations[currentGeneration].ethBalance;\r\n        uint256 _fundingLimit = currentFundingLimit;\r\n        uint256 _totalETH = _ethBalance.add(msg.value);\r\n        address _funder = getOriginalSender();\r\n\r\n        // transfer funds to endowmentFund\r\n        require(endowmentFund.contributeETH_Ethie.value(msg.value)(), \"Funds deposit failed\");\r\n\r\n        uint256 _lockTime;\r\n        uint256 _ethieTokenID;\r\n\r\n        if (_fundingLimit < _totalETH) {\r\n            uint256 _extra = _totalETH.sub(_fundingLimit);\r\n            uint256 _legitEthValue = msg.value.sub(_extra);\r\n            // calculate locktime\r\n            _lockTime = generateLockTime(_legitEthValue);\r\n            // receive an NFT token\r\n            _ethieTokenID = _mint(_funder, _legitEthValue, _lockTime);\r\n            // update funder profile\r\n            _updateFunder_mint(_funder, _legitEthValue, _lockTime, _ethieTokenID);\r\n            // update generation profile\r\n            _updateGeneration_mint(_legitEthValue);\r\n            // return extra ether back to the funder\r\n            _returnEther(msg.sender, _extra, false);\r\n\r\n            generations[currentGeneration].limitReached == true;\r\n\r\n        } else {\r\n            // calculate locktime\r\n            _lockTime = generateLockTime(msg.value);\r\n            // receive an NFT token\r\n            _ethieTokenID = _mint(_funder, msg.value, _lockTime);\r\n            // update funder profile\r\n            _updateFunder_mint(_funder, msg.value, _lockTime, _ethieTokenID);\r\n            // update generation profile\r\n            _updateGeneration_mint(msg.value);\r\n\r\n            if (_fundingLimit == _totalETH) {\r\n                generations[currentGeneration].limitReached = true;\r\n            }\r\n        }\r\n\r\n        if(amountsPerEpoch[0].investment == 0)\r\n            ethieTokens[_ethieTokenID].startingEpochID = 0;\r\n        else {\r\n            uint256 nextEpoch = getCurrentEpoch().add(1);\r\n            ethieTokens[_ethieTokenID].startingEpochID = nextEpoch;\r\n        }\r\n\r\n        emit EtherLocked(_funder, _ethieTokenID, currentGeneration);\r\n\r\n        return _ethieTokenID;\r\n    }\r\n\r\n    /**\r\n     * @dev Release ether and cumulative interest to investor by burning Ethie Token NFT\r\n     * Requires KTY token payment\r\n     * In the future, will give user lotto to redeem a high priced kitty from KittieHELL\r\n     * @param _ethieTokenID uint256 the ID of the Ethie Token NFT\r\n     * @return true if this NFT is burnt and locked ethers and cumulative interest\r\n     * are transferred to the token owner\r\n     */\r\n    function burnNFT\r\n    (\r\n        uint256 _ethieTokenID\r\n    )\r\n        external onlyProxy payable returns(bool)\r\n    {\r\n        // Ethie Tokens can only be burnt on a Rest Day in the current epoch\r\n        require(timeFrame.checkBurn(), \"Can only burn on Rest Day\");\r\n\r\n        // the token may be sold to another person, therefore,\r\n        // current owner may not be necessarily the original owner of\r\n        // this token when it was minted.\r\n\r\n        // get the current owner of the token\r\n        //EthieToken ethieToken = EthieToken(proxy.getContract(CONTRACT_NAME_ETHIE_TOKEN));\r\n        address payable msgSender = address(uint160(getOriginalSender()));\r\n        address currentOwner = ethieToken.ownerOf(_ethieTokenID);\r\n        require(currentOwner == msgSender, \"Only the owner of this token can burn it\");\r\n\r\n        // require this token had not been burnt already\r\n        require(ethieTokens[_ethieTokenID].tokenBurnt == false,\r\n                \"This EthieToken NFT has already been burnt\");\r\n        // requires KTY payment\r\n        (uint256 _eth_for_swap, uint256 _kty_fee) = KTYforBurnEthie(_ethieTokenID);\r\n        require(endowmentFund.contributeKTY.value(msg.value)(msgSender, _eth_for_swap, _kty_fee),\r\n                \"Failed to pay KTY fee for burning Ethie Token\");\r\n\r\n        // burn Ethie Token NFT\r\n        ethieToken.burn(_ethieTokenID);\r\n\r\n        uint256 tokenLockedAt = ethieTokens[_ethieTokenID].lockedAt;\r\n        uint256 lockTime = now.sub(tokenLockedAt);\r\n        // calculate interest\r\n        uint256 ethValue = ethieTokens[_ethieTokenID].ethValue;\r\n        uint256 generation = ethieTokens[_ethieTokenID].generation;\r\n        uint256 totalEth = calculateTotal(ethValue, ethieTokens[_ethieTokenID].startingEpochID);\r\n        uint256 interest = totalEth.sub(ethValue);\r\n        // update generations\r\n        _updateGeneration_burn(generation, ethValue);\r\n        // update funder\r\n        _updateFunder_burn(msgSender, _ethieTokenID, interest);\r\n        // update burntTokens\r\n        // release ETH and accumulative interest to the current owner\r\n        uint256 activeEpochID = timeFrame.getActiveEpochID();\r\n        if(ethieTokens[_ethieTokenID].startingEpochID > activeEpochID)\r\n            _returnEther(msgSender, totalEth, false);\r\n        else\r\n            _returnEther(msgSender, totalEth, true);\r\n\r\n        emit EthieTokenBurnt(msgSender, _ethieTokenID, generation, ethValue, interest);\r\n        return true;\r\n    }\r\n\r\n    //============================ Setters ============================\r\n    /**\r\n     * @dev moves the current funding to limit to next funding limit\r\n     * can only be called when current funding limit is already reached\r\n     * can only be called by admin\r\n     */\r\n    function setCurrentFundingLimit()\r\n        public\r\n        onlyAdmin\r\n    {\r\n        if (currentFundingLimit == 0) {\r\n            currentFundingLimit = fundingLimit[0];\r\n        } else {\r\n            uint256 currentGeneration = getCurrentGeneration();\r\n            require(generations[currentGeneration].limitReached == true, \"Previous funding limit hasn't been reached\");\r\n            uint256 nextGeneration = currentGeneration.add(1);\r\n            // get previous generation funding limit\r\n            uint256 _prevFundingLimit = fundingLimit[currentGeneration];\r\n            // get current generation funding limit (which is preset)\r\n            uint256 _currentFundingLimit = fundingLimit[nextGeneration];\r\n            require(_currentFundingLimit > _prevFundingLimit,\r\n                    \"Funding limit must be bigger than the previous generation\");\r\n            currentFundingLimit = _currentFundingLimit;\r\n        }\r\n    }\r\n\r\n    /**\r\n     * @dev modify pre-set funding limit for a generation\r\n     * can only be called by admin\r\n     * @param _generation the id of the generation of which the funding limit is modified\r\n     * @param _fundingLimit the new funding limit of _generation\r\n     */\r\n    function modifyFundingLimit(uint256 _generation, uint256 _fundingLimit)\r\n        public\r\n        onlyAdmin\r\n    {\r\n        if (_generation == 0) {\r\n            fundingLimit[_generation] = _fundingLimit;\r\n        } else if (_generation > 0) {\r\n            uint256 _prevGeneration = _generation.sub(1);\r\n            require(_fundingLimit > fundingLimit[_prevGeneration],\r\n                    \"Funding limit must be higher than the previous generation\");\r\n            fundingLimit[_generation] = _fundingLimit;\r\n        }\r\n    }\r\n\r\n    /**\r\n     * @dev stops any ability to continue to deposit funds\r\n     * can only be called by admin\r\n     */\r\n    function stopDeposits()\r\n        public\r\n        onlyAdmin\r\n    {\r\n        depositsDisabled = true;\r\n    }\r\n\r\n    /**\r\n     * @dev re-enables any ability to continue to deposit funds\r\n     * can only be called by admin\r\n     */\r\n    function enableDeposits()\r\n        public\r\n        onlyAdmin\r\n    {\r\n        depositsDisabled = false;\r\n    }\r\n\r\n    /**\r\n     * @dev set current generation in EthieToken contract\r\n     * can only be called by admin\r\n     */\r\n    function incrementGenerationInEthieToken() public onlyAdmin {\r\n        ethieToken.incrementGeneration();\r\n    }\r\n\r\n    //============================ Getters ============================\r\n    /**\r\n     * @dev gets the ID of the current generation\r\n     */\r\n    function getCurrentGeneration()\r\n        public view returns (uint256)\r\n    {\r\n       for (uint256 i = 0; i < 7; i++) {\r\n           if (fundingLimit[i] == currentFundingLimit) {\r\n               return i;\r\n           }\r\n       }\r\n    }\r\n\r\n    /**\r\n     * @dev gets the current funding limit of the current generation\r\n     */\r\n    function getcurrentFundingLimit() public view returns (uint256) {\r\n        return currentFundingLimit;\r\n    }\r\n\r\n    /**\r\n     * @dev gets the pre-set funding limit for the generation with id _generation\r\n     */\r\n    function getFundingLimit(uint256 _generation) public view returns (uint256) {\r\n        return fundingLimit[_generation];\r\n    }\r\n\r\n    /**\r\n     * @dev true if the funding limit of the generation is reached\r\n     */\r\n    function hasReachedLimit(uint256 _generation) public view returns (bool) {\r\n        return generations[_generation].limitReached;\r\n    }\r\n\r\n    /**\r\n     * @dev gets the difference between the funding limit and the actual funding in current generation\r\n     */\r\n    function ethNeededToReachFundingLimit() public view returns (uint256) {\r\n        uint256 currentGeneration = getCurrentGeneration();\r\n        return currentFundingLimit.sub(generations[currentGeneration].ethBalance);\r\n    }\r\n\r\n    /**\r\n     * @dev calculates the total interest accumulated for all Ethie Token NFTs in the latest 250 epochs\r\n     * @return uint256 total interest accumulated for all Ethie Token NFTs in the last 250 epochs\r\n     */\r\n    function viewTotalInterests() public view returns (uint256) {\r\n        uint256 activeEpochID = timeFrame.getActiveEpochID();\r\n        uint256 totalInterest = 0;\r\n        uint256 startID = activeEpochID < 250 ? 0 : activeEpochID - 250;\r\n        for (uint256 i = startID; i < activeEpochID; i++) {\r\n            totalInterest = totalInterest.add(amountsPerEpoch[i].interest);\r\n        }\r\n        return totalInterest;\r\n\r\n    }\r\n\r\n    /**\r\n     * @dev gets principal ethers locked plus the interest accumulated for an Ethie Token NFT\r\n     * @param _eth_amount uint256 the amount of ethers associated with this NFT\r\n     * with this NFT has been locked\r\n     * @return uint256 principal ethers locked and interest accumulated in the NFT\r\n     */\r\n    function calculateTotal(uint256 _eth_amount, uint256 _startingEpoch)\r\n        public view returns (uint256)\r\n    {\r\n        uint256 activeEpochID = timeFrame.getActiveEpochID();\r\n        if(_startingEpoch > activeEpochID) {\r\n            return _eth_amount;\r\n        }\r\n        else {\r\n            uint256 proportion = _eth_amount;\r\n            for(uint256 i = _startingEpoch; i < activeEpochID.add(1); i++) {\r\n                uint256 epochInterest = proportion.mul(amountsPerEpoch[i].interest).div(amountsPerEpoch[i].investment);\r\n                proportion = proportion.add(epochInterest);\r\n            }\r\n            return proportion;\r\n        }\r\n    }\r\n\r\n    /**\r\n     * @dev gets the current weekly epoch ID\r\n     */\r\n    function getCurrentEpoch() public view returns (uint256) {\r\n        return timeFrame.getActiveEpochID();\r\n    }\r\n\r\n    /**\r\n     * @dev ture if now is in the stage of Six-Working-Days in a current weekly epoch\r\n     */\r\n    function isWorkingDay() public view returns (bool) {\r\n        if (now <= timeFrame.workingDayEndTime()) {\r\n            return true;\r\n        }\r\n        return false;\r\n    }\r\n\r\n    function canBurn() public view returns (bool) {\r\n        if (now <= timeFrame.workingDayEndTime()) {\r\n            return true;\r\n        }\r\n        return false;\r\n    }\r\n\r\n    /**\r\n     * @dev gets state, stage date and time (in unix) in a current weekly epoch\r\n     * @return string state, uint256 start time, uint256 end time\r\n     */\r\n    function _viewEpochStage() public view returns (string memory state, uint256 start, uint256 end) {\r\n        if (now <= timeFrame.workingDayEndTime()) {\r\n            state = \"Working Days\";\r\n            start = timeFrame.workingDayStartTime();\r\n            end = timeFrame.workingDayEndTime();\r\n        } else if (now > timeFrame.workingDayEndTime()) {\r\n            state = \"Rest Day\";\r\n            start = timeFrame.restDayStartTime();\r\n            end = timeFrame.restDayEndTime();\r\n        }\r\n    }\r\n\r\n    /**\r\n     * @dev gets state, stage start date and time (human-readable) in a current weekly epoch\r\n     */\r\n    function viewEpochStageStartTime()\r\n        public view\r\n        returns (\r\n            string memory state,\r\n            uint256 startYear,\r\n            uint256 startMonth,\r\n            uint256 startDay,\r\n            uint256 startHour,\r\n            uint256 startMinute,\r\n            uint256 startSecond\r\n        )\r\n    {\r\n        uint256 startTime;\r\n        (state, startTime,) = _viewEpochStage();\r\n        (startYear, startMonth, startDay, startHour, startMinute, startSecond) = timeFrame.timestampToDateTime(startTime);\r\n    }\r\n\r\n    /**\r\n     * @dev gets state, stage end date and time (human-readable) in a current weekly epoch\r\n     */\r\n    function viewEpochStageEndTime()\r\n        public view\r\n        returns (\r\n            string memory state,\r\n            uint256 endYear,\r\n            uint256 endMonth,\r\n            uint256 endDay,\r\n            uint256 endHour,\r\n            uint256 endMinute,\r\n            uint256 endSecond\r\n        )\r\n    {\r\n        uint256 endTime;\r\n        (state,, endTime) = _viewEpochStage();\r\n        (endYear, endMonth, endDay, endHour, endMinute, endSecond) = timeFrame.timestampToDateTime(endTime);\r\n    }\r\n\r\n    /**\r\n     * @dev gets the next unix time in which an investor can withdraw locked ethers\r\n     * and earnings by burning an Ethie Token NFT and get future benefits like access to\r\n     * pricy kitties in KittiHELL and lottery benefits\r\n     * @param ethieTokenID uint256 the ID of the Ethie Token NFT to be burnt\r\n     */\r\n    function _viewNextYieldClaimDate(uint256 ethieTokenID)\r\n        public view\r\n        returns(uint256)\r\n    {\r\n        uint256 lockTime = ethieTokens[ethieTokenID].lockTime;\r\n        uint256 lockedAt = ethieTokens[ethieTokenID].lockedAt;\r\n        uint256 unLockAt = lockedAt.add(lockTime);\r\n        return unLockAt;\r\n    }\r\n\r\n    /**\r\n     * @dev gets the next date and time in which an investor can withdraw locked ethers\r\n     * and earnings by burning an Ethie Token NFT and get future benefits like access to\r\n     * pricy kitties in KittiHELL and lottery benefits\r\n     * @param ethieTokenID uint256 the ID of the Ethie Token NFT to be burnt\r\n     */\r\n    function viewNextYieldClaimDate(uint256 ethieTokenID)\r\n        public view\r\n        returns(uint256 year, uint256 month, uint256 day, uint256 hour, uint256 minute, uint256 second)\r\n    {\r\n        uint256 unLockAt = _viewNextYieldClaimDate(ethieTokenID);\r\n        (year, month, day, hour, minute, second) = timeFrame.timestampToDateTime(unLockAt);\r\n    }\r\n\r\n    /**\r\n     * @dev gets unix time at which ethers were locked for an Ethie Token NFT\r\n     * @param ethieTokenID uint256 the ID of the Ethie Token NFT to be burntT\r\n     */\r\n    function _checkLockETHDate(uint256 ethieTokenID)\r\n        public view\r\n        returns(uint256)\r\n    {\r\n        uint256 lockedAt = ethieTokens[ethieTokenID].lockedAt;\r\n        return lockedAt;\r\n    }\r\n\r\n    /**\r\n     * @dev gets the date and time at which ethers were locked for an Ethie Token NFT\r\n     * @param ethieTokenID uint256 the ID of the Ethie Token NFT to be burntT\r\n     */\r\n    function checkLockETHDate(uint256 ethieTokenID)\r\n        public view\r\n        returns(uint256 year, uint256 month, uint256 day, uint256 hour, uint256 minute, uint256 second)\r\n    {\r\n        uint256 lockedAt = ethieTokens[ethieTokenID].lockedAt;\r\n        (year, month, day, hour, minute, second) = timeFrame.timestampToDateTime(lockedAt);\r\n    }\r\n\r\n    /**\r\n     * @dev Generates locktime based on investment SIZE, generation and funding limit\r\n     * Max funding limit/Value * 30 days\r\n     * @param _eth_amount uint256 the amount of ethers to be locked\r\n     * @return uint256 locktime in seconds\r\n     */\r\n    function generateLockTime (uint256 _eth_amount)\r\n        public view returns (uint256)\r\n    {\r\n        uint256 _generation = getCurrentGeneration();\r\n        uint256 _fundingLimit = currentFundingLimit;\r\n        if (_generation == 0) {\r\n            return THIRTY_DAYS.mul(_fundingLimit).div(_eth_amount);\r\n        }\r\n        else if (_generation == 1) {\r\n            return SIXTY_DAYS.mul(_fundingLimit).div(_eth_amount);\r\n        }\r\n        else if (_generation == 2) {\r\n            return SEVENTY_FIVE_DAYS.mul(_fundingLimit).div(_eth_amount);\r\n        }\r\n        else if (_generation == 3) {\r\n            return NINETY_DAYS.mul(_fundingLimit).div(_eth_amount);\r\n        }\r\n        else if (_generation == 4) {\r\n            return ONE_HUNDRED_AND_FIVE_DAYS.mul(_fundingLimit).div(_eth_amount);\r\n        }\r\n        else if (_generation == 5) {\r\n            return ONE_HUNDRED_AND_TWENTY_DAYS.mul(_fundingLimit).div(_eth_amount);\r\n        }\r\n        else{\r\n            //TODO: how to factor in generation 6 the funding limit of which is extremely large\r\n            return ONE_HUNDRED_AND_THIRTY_FIVE_DAYS.mul(_fundingLimit).div(_eth_amount);\r\n        }\r\n    }\r\n\r\n    /**\r\n     * @dev gets the required KTY fee for burning an Ethie Token NFT\r\n     */\r\n    function KTYforBurnEthie(uint256 ethieTokenID) public view returns (uint256, uint256) {\r\n        uint256 percentageBurnEthie = gameVarAndFee.getPercentageforBurnEthie();\r\n        uint256 eth_amount = ethieTokens[ethieTokenID].ethValue;\r\n        uint256 startingEpoch = ethieTokens[ethieTokenID].startingEpochID;\r\n        uint256 withdrawAmountETH = calculateTotal(eth_amount, startingEpoch);\r\n        uint256 withdrawAmountKTY = gameVarAndFee.convertEthToKty(withdrawAmountETH);\r\n        uint256 burnEthieFeeKTY = withdrawAmountKTY.mul(percentageBurnEthie).div(1000000);\r\n        uint256 etherForSwap = KtyUniswap(proxy.getContract(CONTRACT_NAME_KTY_UNISWAP)).etherFor(burnEthieFeeKTY);\r\n        return (etherForSwap, burnEthieFeeKTY);\r\n    }\r\n\r\n    //============================ Internal Functions ============================\r\n    /**\r\n     * @dev transfers ethers to an investor\r\n     * @param _funder account address of the investor\r\n     * @param _eth_amount uint256 the amount of ethers to transfer to _funder\r\n     */\r\n    function _returnEther(address payable _funder, uint256 _eth_amount, bool invested)\r\n        internal\r\n    {\r\n        endowmentFund.transferETHfromEscrowEarningsTracker(_funder, _eth_amount, invested);\r\n    }\r\n\r\n    /**\r\n     * @dev Updates funder profile when minting a new token to a funder\r\n     */\r\n    function _updateFunder_mint\r\n    (\r\n        address _funder,\r\n        uint256 _eth_amount,\r\n        uint256 _lockTime,\r\n        uint256 _ethieTokenID\r\n    )\r\n        internal\r\n    {\r\n        ethieTokens[_ethieTokenID].generation = getCurrentGeneration();\r\n        ethieTokens[_ethieTokenID].ethValue = _eth_amount;\r\n        ethieTokens[_ethieTokenID].lockedAt = now;\r\n        ethieTokens[_ethieTokenID].lockTime = _lockTime;\r\n        ethieTokens[_ethieTokenID].originalOwner = _funder;\r\n    }\r\n\r\n    /**\r\n     * @dev Updates generation profile when minting a new Ethie Token NFT\r\n     * @param _eth_amount uint256 the amount of ethers locked for the new Ethie Token NFT\r\n     */\r\n    function _updateGeneration_mint(\r\n        uint256 _eth_amount\r\n    ) internal {\r\n        uint256 _generation = getCurrentGeneration();\r\n        generations[_generation].ethBalance = generations[_generation].ethBalance.add(_eth_amount);\r\n        generations[_generation].ethBalanceAt = now;\r\n        generations[_generation].numberOfNFTs = generations[_generation].numberOfNFTs.add(1);\r\n    }\r\n\r\n    /**\r\n     * @dev Updates generation profile when an existing Ethie Token NFT is burnt\r\n     * @param _generation generation ID associated with this Ethie Token NFT\r\n     * @param _eth_amount uint256 the amount of ethers released for burning the Ethie Token NFT\r\n     */\r\n    function _updateGeneration_burn(uint256 _generation, uint256 _eth_amount)\r\n        internal\r\n    {\r\n        generations[_generation].ethBalance = generations[_generation].ethBalance.sub(_eth_amount);\r\n        generations[_generation].ethBalanceAt = now;\r\n        generations[_generation].numberOfNFTs = generations[_generation].numberOfNFTs.sub(1);\r\n\r\n        // if _generation is current generation, then set limitReached as false if it is set true\r\n        uint256 currentGeneration = getCurrentGeneration();\r\n        if ((_generation == currentGeneration) && (generations[_generation].limitReached == true)) {\r\n            generations[_generation].limitReached == false;\r\n        }\r\n    }\r\n\r\n    /**\r\n     * @dev Updates funder profile when an existing Ethie Token NFT is burnt\r\n     * @param _burner address who burns this NFT\r\n     * @param _ethieTokenID uint256 the ID of the burnt Ethie Token NFT\r\n     */\r\n    function _updateFunder_burn\r\n    (\r\n        address _burner,\r\n        uint256 _ethieTokenID,\r\n        uint256 _interestPaid\r\n    )\r\n        internal\r\n    {\r\n        // set values to 0 can get gas refund\r\n        ethieTokens[_ethieTokenID].ethValue = 0;\r\n        ethieTokens[_ethieTokenID].lockedAt = 0;\r\n        ethieTokens[_ethieTokenID].lockTime = 0;\r\n        ethieTokens[_ethieTokenID].tokenBurnt = true;\r\n        ethieTokens[_ethieTokenID].tokenBurntAt = now;\r\n        ethieTokens[_ethieTokenID].tokenBurntBy = _burner;\r\n        ethieTokens[_ethieTokenID].interestPaid = _interestPaid;\r\n    }\r\n\r\n    /**\r\n     * @dev Called by LockETH(), pass values to generate Ethie Token NFT with all atrributes as listed in params\r\n     * @param _to address who this Ethie Token NFT is minted to\r\n     * @param _ethAmount uint256 the amount of ethers associated with this NFT\r\n     * @param _lockTime uint256 the time duration during which the ethers associated\r\n     * with this NFT has been locked\r\n     * @return uint256 ID of the Ethie Token NFT minted\r\n     */\r\n    function _mint\r\n    (\r\n        address _to,\r\n        uint256 _ethAmount,\r\n        uint256 _lockTime\r\n    )\r\n        internal\r\n        returns (uint256)\r\n    {\r\n        return ethieToken.mint(_to, _ethAmount, _lockTime);\r\n    }\r\n\r\n}\r\n",
  "sourcePath": "C:\\Users\\Alex\\Desktop\\MyProjects\\contracts\\contracts\\modules\\endowment\\EarningsTracker.sol",
  "compiler": {
    "name": "solc",
    "version": "0.5.17+commit.d19bba13.Emscripten.clang"
  },
  "schemaVersion": "3.0.11",
  "updatedAt": "2020-07-05T20:06:10.107Z",
  "devdoc": {
    "methods": {
      "KTYforBurnEthie(uint256)": {
        "details": "gets the required KTY fee for burning an Ethie Token NFT"
      },
      "_checkLockETHDate(uint256)": {
        "details": "gets unix time at which ethers were locked for an Ethie Token NFT",
        "params": {
          "ethieTokenID": "uint256 the ID of the Ethie Token NFT to be burntT"
        }
      },
      "_viewEpochStage()": {
        "details": "gets state, stage date and time (in unix) in a current weekly epoch",
        "return": "string state, uint256 start time, uint256 end time"
      },
      "_viewNextYieldClaimDate(uint256)": {
        "details": "gets the next unix time in which an investor can withdraw locked ethers and earnings by burning an Ethie Token NFT and get future benefits like access to pricy kitties in KittiHELL and lottery benefits",
        "params": {
          "ethieTokenID": "uint256 the ID of the Ethie Token NFT to be burnt"
        }
      },
      "burnNFT(uint256)": {
        "details": "Release ether and cumulative interest to investor by burning Ethie Token NFT Requires KTY token payment In the future, will give user lotto to redeem a high priced kitty from KittieHELL",
        "params": {
          "_ethieTokenID": "uint256 the ID of the Ethie Token NFT"
        },
        "return": "true if this NFT is burnt and locked ethers and cumulative interest are transferred to the token owner"
      },
      "calculateTotal(uint256,uint256)": {
        "details": "gets principal ethers locked plus the interest accumulated for an Ethie Token NFT",
        "params": {
          "_eth_amount": "uint256 the amount of ethers associated with this NFT with this NFT has been locked"
        },
        "return": "uint256 principal ethers locked and interest accumulated in the NFT"
      },
      "checkLockETHDate(uint256)": {
        "details": "gets the date and time at which ethers were locked for an Ethie Token NFT",
        "params": {
          "ethieTokenID": "uint256 the ID of the Ethie Token NFT to be burntT"
        }
      },
      "enableDeposits()": {
        "details": "re-enables any ability to continue to deposit funds can only be called by admin"
      },
      "ethNeededToReachFundingLimit()": {
        "details": "gets the difference between the funding limit and the actual funding in current generation"
      },
      "generateLockTime(uint256)": {
        "details": "Generates locktime based on investment SIZE, generation and funding limit Max funding limit/Value * 30 days",
        "params": {
          "_eth_amount": "uint256 the amount of ethers to be locked"
        },
        "return": "uint256 locktime in seconds"
      },
      "getCurrentEpoch()": {
        "details": "gets the current weekly epoch ID"
      },
      "getCurrentGeneration()": {
        "details": "gets the ID of the current generation"
      },
      "getFundingLimit(uint256)": {
        "details": "gets the pre-set funding limit for the generation with id _generation"
      },
      "getcurrentFundingLimit()": {
        "details": "gets the current funding limit of the current generation"
      },
      "hasReachedLimit(uint256)": {
        "details": "true if the funding limit of the generation is reached"
      },
      "incrementGenerationInEthieToken()": {
        "details": "set current generation in EthieToken contract can only be called by admin"
      },
      "isWorkingDay()": {
        "details": "ture if now is in the stage of Six-Working-Days in a current weekly epoch"
      },
      "lockETH()": {
        "details": "deposit eth and receive an NFT token, which can be burned in order to retrieve locked eth and accumulated interest",
        "return": "uint256 ID of the Ethie Token NFT minted to the funder"
      },
      "modifyFundingLimit(uint256,uint256)": {
        "details": "modify pre-set funding limit for a generation can only be called by admin",
        "params": {
          "_fundingLimit": "the new funding limit of _generation",
          "_generation": "the id of the generation of which the funding limit is modified"
        }
      },
      "setCurrentFundingLimit()": {
        "details": "moves the current funding to limit to next funding limit can only be called when current funding limit is already reached can only be called by admin"
      },
      "stopDeposits()": {
        "details": "stops any ability to continue to deposit funds can only be called by admin"
      },
      "viewEpochStageEndTime()": {
        "details": "gets state, stage end date and time (human-readable) in a current weekly epoch"
      },
      "viewEpochStageStartTime()": {
        "details": "gets state, stage start date and time (human-readable) in a current weekly epoch"
      },
      "viewNextYieldClaimDate(uint256)": {
        "details": "gets the next date and time in which an investor can withdraw locked ethers and earnings by burning an Ethie Token NFT and get future benefits like access to pricy kitties in KittiHELL and lottery benefits",
        "params": {
          "ethieTokenID": "uint256 the ID of the Ethie Token NFT to be burnt"
        }
      },
      "viewTotalInterests()": {
        "details": "calculates the total interest accumulated for all Ethie Token NFTs in the latest 250 epochs",
        "return": "uint256 total interest accumulated for all Ethie Token NFTs in the last 250 epochs"
      }
    }
  },
  "userdoc": {
    "methods": {
      "setProxy(address)": {
        "notice": "Set/update address of Proxy contract"
      }
    }
  }
}