{
  "contractName": "EndowmentDB",
  "abi": [
    {
      "inputs": [
        {
          "internalType": "contract GenericDB",
          "name": "_genericDB",
          "type": "address"
        }
      ],
      "payable": false,
      "stateMutability": "nonpayable",
      "type": "constructor"
    },
    {
      "constant": true,
      "inputs": [],
      "name": "genericDB",
      "outputs": [
        {
          "internalType": "contract GenericDB",
          "name": "",
          "type": "address"
        }
      ],
      "payable": false,
      "stateMutability": "view",
      "type": "function"
    },
    {
      "constant": true,
      "inputs": [],
      "name": "owner",
      "outputs": [
        {
          "internalType": "address payable",
          "name": "",
          "type": "address"
        }
      ],
      "payable": false,
      "stateMutability": "view",
      "type": "function"
    },
    {
      "constant": true,
      "inputs": [],
      "name": "proxy",
      "outputs": [
        {
          "internalType": "contract ProxyBase",
          "name": "",
          "type": "address"
        }
      ],
      "payable": false,
      "stateMutability": "view",
      "type": "function"
    },
    {
      "constant": false,
      "inputs": [
        {
          "internalType": "contract ProxyBase",
          "name": "_proxy",
          "type": "address"
        }
      ],
      "name": "setProxy",
      "outputs": [],
      "payable": false,
      "stateMutability": "nonpayable",
      "type": "function"
    },
    {
      "constant": false,
      "inputs": [
        {
          "internalType": "address payable",
          "name": "newOwner",
          "type": "address"
        }
      ],
      "name": "transferOwnership",
      "outputs": [],
      "payable": false,
      "stateMutability": "nonpayable",
      "type": "function"
    },
    {
      "constant": false,
      "inputs": [
        {
          "internalType": "contract GenericDB",
          "name": "_genericDB",
          "type": "address"
        }
      ],
      "name": "setGenericDB",
      "outputs": [],
      "payable": false,
      "stateMutability": "nonpayable",
      "type": "function"
    },
    {
      "constant": true,
      "inputs": [
        {
          "internalType": "uint256",
          "name": "_gameId",
          "type": "uint256"
        }
      ],
      "name": "getHoneyPotBalance",
      "outputs": [
        {
          "internalType": "uint256",
          "name": "honeyPotBalanceKTY",
          "type": "uint256"
        },
        {
          "internalType": "uint256",
          "name": "honeyPotBalanceETH",
          "type": "uint256"
        }
      ],
      "payable": false,
      "stateMutability": "view",
      "type": "function"
    },
    {
      "constant": false,
      "inputs": [
        {
          "internalType": "uint256",
          "name": "_gameId",
          "type": "uint256"
        },
        {
          "internalType": "uint256",
          "name": "_kty_amount",
          "type": "uint256"
        },
        {
          "internalType": "uint256",
          "name": "_eth_amount",
          "type": "uint256"
        },
        {
          "internalType": "bool",
          "name": "deductFunds",
          "type": "bool"
        }
      ],
      "name": "updateHoneyPotFund",
      "outputs": [
        {
          "internalType": "bool",
          "name": "",
          "type": "bool"
        }
      ],
      "payable": false,
      "stateMutability": "nonpayable",
      "type": "function"
    },
    {
      "constant": false,
      "inputs": [
        {
          "internalType": "uint256",
          "name": "_kty_amount",
          "type": "uint256"
        },
        {
          "internalType": "uint256",
          "name": "_eth_amount",
          "type": "uint256"
        },
        {
          "internalType": "bool",
          "name": "deductFunds",
          "type": "bool"
        }
      ],
      "name": "updateEndowmentFund",
      "outputs": [
        {
          "internalType": "bool",
          "name": "",
          "type": "bool"
        }
      ],
      "payable": false,
      "stateMutability": "nonpayable",
      "type": "function"
    },
    {
      "constant": true,
      "inputs": [],
      "name": "getEndowmentBalance",
      "outputs": [
        {
          "internalType": "uint256",
          "name": "endowmentBalanceKTY",
          "type": "uint256"
        },
        {
          "internalType": "uint256",
          "name": "endowmentBalanceETH",
          "type": "uint256"
        }
      ],
      "payable": false,
      "stateMutability": "view",
      "type": "function"
    },
    {
      "constant": true,
      "inputs": [
        {
          "internalType": "uint256",
          "name": "gameId",
          "type": "uint256"
        }
      ],
      "name": "getHoneypotState",
      "outputs": [
        {
          "internalType": "uint256",
          "name": "state",
          "type": "uint256"
        },
        {
          "internalType": "uint256",
          "name": "claimTime",
          "type": "uint256"
        }
      ],
      "payable": false,
      "stateMutability": "view",
      "type": "function"
    },
    {
      "constant": false,
      "inputs": [
        {
          "internalType": "uint256",
          "name": "_gameId",
          "type": "uint256"
        },
        {
          "internalType": "uint256",
          "name": "state",
          "type": "uint256"
        },
        {
          "internalType": "uint256",
          "name": "claimTime",
          "type": "uint256"
        }
      ],
      "name": "setHoneypotState",
      "outputs": [],
      "payable": false,
      "stateMutability": "nonpayable",
      "type": "function"
    },
    {
      "constant": true,
      "inputs": [
        {
          "internalType": "uint256",
          "name": "_gameId",
          "type": "uint256"
        }
      ],
      "name": "getHoneypotTotal",
      "outputs": [
        {
          "internalType": "uint256",
          "name": "totalEth",
          "type": "uint256"
        },
        {
          "internalType": "uint256",
          "name": "totalKty",
          "type": "uint256"
        }
      ],
      "payable": false,
      "stateMutability": "view",
      "type": "function"
    },
    {
      "constant": false,
      "inputs": [
        {
          "internalType": "uint256",
          "name": "gameId",
          "type": "uint256"
        },
        {
          "internalType": "uint256",
          "name": "state",
          "type": "uint256"
        }
      ],
      "name": "dissolveHoneypot",
      "outputs": [],
      "payable": false,
      "stateMutability": "nonpayable",
      "type": "function"
    },
    {
      "constant": false,
      "inputs": [
        {
          "internalType": "uint256",
          "name": "gameId",
          "type": "uint256"
        }
      ],
      "name": "generateHoneyPot",
      "outputs": [
        {
          "internalType": "uint256",
          "name": "",
          "type": "uint256"
        },
        {
          "internalType": "uint256",
          "name": "",
          "type": "uint256"
        }
      ],
      "payable": false,
      "stateMutability": "nonpayable",
      "type": "function"
    },
    {
      "constant": false,
      "inputs": [
        {
          "internalType": "uint256",
          "name": "_gameId",
          "type": "uint256"
        },
        {
          "internalType": "address",
          "name": "_account",
          "type": "address"
        },
        {
          "internalType": "uint256",
          "name": "_eth_amount",
          "type": "uint256"
        },
        {
          "internalType": "uint256",
          "name": "_kty_amount",
          "type": "uint256"
        }
      ],
      "name": "setTotalDebit",
      "outputs": [
        {
          "internalType": "bool",
          "name": "",
          "type": "bool"
        }
      ],
      "payable": false,
      "stateMutability": "nonpayable",
      "type": "function"
    },
    {
      "constant": true,
      "inputs": [
        {
          "internalType": "uint256",
          "name": "_gameId",
          "type": "uint256"
        },
        {
          "internalType": "address",
          "name": "_account",
          "type": "address"
        }
      ],
      "name": "getTotalDebit",
      "outputs": [
        {
          "internalType": "uint256",
          "name": "ethTotalDebit",
          "type": "uint256"
        },
        {
          "internalType": "uint256",
          "name": "ktyTotalDebit",
          "type": "uint256"
        }
      ],
      "payable": false,
      "stateMutability": "view",
      "type": "function"
    }
  ],
  "bytecode": "0x60806040523480156200001157600080fd5b5060405162005b0038038062005b00833981810160405260208110156200003757600080fd5b8101908080519060200190929190505050336000806101000a81548173ffffffffffffffffffffffffffffffffffffffff021916908373ffffffffffffffffffffffffffffffffffffffff1602179055506200009981620000a060201b60201c565b506200013b565b6000809054906101000a900473ffffffffffffffffffffffffffffffffffffffff1673ffffffffffffffffffffffffffffffffffffffff163373ffffffffffffffffffffffffffffffffffffffff1614620000f757fe5b80600260006101000a81548173ffffffffffffffffffffffffffffffffffffffff021916908373ffffffffffffffffffffffffffffffffffffffff16021790555050565b6159b5806200014b6000396000f3fe608060405234801561001057600080fd5b506004361061010b5760003560e01c80637cee0879116100a2578063d6f2030911610071578063d6f20309146104ca578063ec55688914610513578063f1d4be101461055d578063f2fde38b146105a6578063f89f07ce146105ea5761010b565b80637cee0879146103b15780638da5cb5b146103fa57806397107d6d14610444578063a297bbee146104885761010b565b80635acce36b116100de5780635acce36b1461026d5780636213fc6d146102925780636933bbd71461030c578063712153b3146103555761010b565b8063231eb691146101105780633564e78c146101795780634afab815146101c357806350b1a7cd14610207575b600080fd5b61015c6004803603604081101561012657600080fd5b8101908080359060200190929190803573ffffffffffffffffffffffffffffffffffffffff169060200190929190505050610622565b604051808381526020018281526020019250505060405180910390f35b610181610ca3565b604051808273ffffffffffffffffffffffffffffffffffffffff1673ffffffffffffffffffffffffffffffffffffffff16815260200191505060405180910390f35b610205600480360360208110156101d957600080fd5b81019080803573ffffffffffffffffffffffffffffffffffffffff169060200190929190505050610cc9565b005b6102536004803603608081101561021d57600080fd5b81019080803590602001909291908035906020019092919080359060200190929190803515159060200190929190505050610d63565b604051808215151515815260200191505060405180910390f35b6102756118cc565b604051808381526020018281526020019250505060405180910390f35b6102f2600480360360808110156102a857600080fd5b8101908080359060200190929190803573ffffffffffffffffffffffffffffffffffffffff1690602001909291908035906020019092919080359060200190929190505050611c03565b604051808215151515815260200191505060405180910390f35b6103386004803603602081101561032257600080fd5b8101908080359060200190929190505050612534565b604051808381526020018281526020019250505060405180910390f35b6103976004803603606081101561036b57600080fd5b81019080803590602001909291908035906020019092919080351515906020019092919050505061287c565b604051808215151515815260200191505060405180910390f35b6103dd600480360360208110156103c757600080fd5b81019080803590602001909291905050506128d2565b604051808381526020018281526020019250505060405180910390f35b610402612c1a565b604051808273ffffffffffffffffffffffffffffffffffffffff1673ffffffffffffffffffffffffffffffffffffffff16815260200191505060405180910390f35b6104866004803603602081101561045a57600080fd5b81019080803573ffffffffffffffffffffffffffffffffffffffff169060200190929190505050612c3f565b005b6104c86004803603606081101561049e57600080fd5b81019080803590602001909291908035906020019092919080359060200190929190505050612cd9565b005b6104f6600480360360208110156104e057600080fd5b810190808035906020019092919050505061317d565b604051808381526020018281526020019250505060405180910390f35b61051b6134c5565b604051808273ffffffffffffffffffffffffffffffffffffffff1673ffffffffffffffffffffffffffffffffffffffff16815260200191505060405180910390f35b6105896004803603602081101561057357600080fd5b81019080803590602001909291905050506134eb565b604051808381526020018281526020019250505060405180910390f35b6105e8600480360360208110156105bc57600080fd5b81019080803573ffffffffffffffffffffffffffffffffffffffff169060200190929190505050613805565b005b6106206004803603604081101561060057600080fd5b8101908080359060200190929190803590602001909291905050506138d3565b005b6000806040518060400160405280600d81526020017f456e646f776d656e7446756e6400000000000000000000000000000000000000815250610664816140de565b84600260009054906101000a900473ffffffffffffffffffffffffffffffffffffffff1673ffffffffffffffffffffffffffffffffffffffff166396edc0096040518060400160405280600b81526020017f456e646f776d656e74444200000000000000000000000000000000000000000081525060405160200180807f486f6e6579706f745461626c6500000000000000000000000000000000000000815250600d01905060405160208183030381529060405280519060200120846040518463ffffffff1660e01b81526004018080602001848152602001838152602001828103825285818151815260200191508051906020019080838360005b8381101561077c578082015181840152602081019050610761565b50505050905090810190601f1680156107a95780820380516001836020036101000a031916815260200191505b5094505050505060206040518083038186803b1580156107c857600080fd5b505afa1580156107dc573d6000803e3d6000fd5b505050506040513d60208110156107f257600080fd5b81019080805190602001909291905050506040518060400160405280600a81526020017f4e6f742065786973747300000000000000000000000000000000000000000000815250906108df576040517f08c379a00000000000000000000000000000000000000000000000000000000081526004018080602001828103825283818151815260200191508051906020019080838360005b838110156108a4578082015181840152602081019050610889565b50505050905090810190601f1680156108d15780820380516001836020036101000a031916815260200191505b509250505060405180910390fd5b5060008686604051602001808381526020018273ffffffffffffffffffffffffffffffffffffffff1673ffffffffffffffffffffffffffffffffffffffff1660601b8152601401807f65746844656269740000000000000000000000000000000000000000000000008152506008019250505060405160208183030381529060405280519060200120905060008787604051602001808381526020018273ffffffffffffffffffffffffffffffffffffffff1673ffffffffffffffffffffffffffffffffffffffff1660601b8152601401807f6b7479446562697400000000000000000000000000000000000000000000000081525060080192505050604051602081830303815290604052805190602001209050600260009054906101000a900473ffffffffffffffffffffffffffffffffffffffff1673ffffffffffffffffffffffffffffffffffffffff166308acb5566040518060400160405280600b81526020017f456e646f776d656e744442000000000000000000000000000000000000000000815250846040518363ffffffff1660e01b81526004018080602001838152602001828103825284818151815260200191508051906020019080838360005b83811015610abe578082015181840152602081019050610aa3565b50505050905090810190601f168015610aeb5780820380516001836020036101000a031916815260200191505b50935050505060206040518083038186803b158015610b0957600080fd5b505afa158015610b1d573d6000803e3d6000fd5b505050506040513d6020811015610b3357600080fd5b81019080805190602001909291905050509550600260009054906101000a900473ffffffffffffffffffffffffffffffffffffffff1673ffffffffffffffffffffffffffffffffffffffff166308acb5566040518060400160405280600b81526020017f456e646f776d656e744442000000000000000000000000000000000000000000815250836040518363ffffffff1660e01b81526004018080602001838152602001828103825284818151815260200191508051906020019080838360005b83811015610c10578082015181840152602081019050610bf5565b50505050905090810190601f168015610c3d5780820380516001836020036101000a031916815260200191505b50935050505060206040518083038186803b158015610c5b57600080fd5b505afa158015610c6f573d6000803e3d6000fd5b505050506040513d6020811015610c8557600080fd5b81019080805190602001909291905050509450505050509250929050565b600260009054906101000a900473ffffffffffffffffffffffffffffffffffffffff1681565b6000809054906101000a900473ffffffffffffffffffffffffffffffffffffffff1673ffffffffffffffffffffffffffffffffffffffff163373ffffffffffffffffffffffffffffffffffffffff1614610d1f57fe5b80600260006101000a81548173ffffffffffffffffffffffffffffffffffffffff021916908373ffffffffffffffffffffffffffffffffffffffff16021790555050565b60006040518060400160405280600d81526020017f456e646f776d656e7446756e6400000000000000000000000000000000000000815250610da4816140de565b600080600087111561124e5760008860405160200180828152602001807f6b7479546f74616c000000000000000000000000000000000000000000000000815250600801915050604051602081830303815290604052805190602001209050600260009054906101000a900473ffffffffffffffffffffffffffffffffffffffff1673ffffffffffffffffffffffffffffffffffffffff166308acb5566040518060400160405280600b81526020017f456e646f776d656e744442000000000000000000000000000000000000000000815250836040518363ffffffff1660e01b81526004018080602001838152602001828103825284818151815260200191508051906020019080838360005b83811015610ecd578082015181840152602081019050610eb2565b50505050905090810190601f168015610efa5780820380516001836020036101000a031916815260200191505b50935050505060206040518083038186803b158015610f1857600080fd5b505afa158015610f2c573d6000803e3d6000fd5b505050506040513d6020811015610f4257600080fd5b8101908080519060200190929190505050925085156111025787831015610fb4576040517f08c379a00000000000000000000000000000000000000000000000000000000081526004018080602001828103825260388152602001806158e46038913960400191505060405180910390fd5b600260009054906101000a900473ffffffffffffffffffffffffffffffffffffffff1673ffffffffffffffffffffffffffffffffffffffff16630214a37c6040518060400160405280600b81526020017f456e646f776d656e7444420000000000000000000000000000000000000000008152508361103c8c8861437990919063ffffffff16565b6040518463ffffffff1660e01b81526004018080602001848152602001838152602001828103825285818151815260200191508051906020019080838360005b8381101561109757808201518184015260208101905061107c565b50505050905090810190601f1680156110c45780820380516001836020036101000a031916815260200191505b50945050505050600060405180830381600087803b1580156110e557600080fd5b505af11580156110f9573d6000803e3d6000fd5b5050505061124c565b600260009054906101000a900473ffffffffffffffffffffffffffffffffffffffff1673ffffffffffffffffffffffffffffffffffffffff16630214a37c6040518060400160405280600b81526020017f456e646f776d656e7444420000000000000000000000000000000000000000008152508361118a8c8861439090919063ffffffff16565b6040518463ffffffff1660e01b81526004018080602001848152602001838152602001828103825285818151815260200191508051906020019080838360005b838110156111e55780820151818401526020810190506111ca565b50505050905090810190601f1680156112125780820380516001836020036101000a031916815260200191505b50945050505050600060405180830381600087803b15801561123357600080fd5b505af1158015611247573d6000803e3d6000fd5b505050505b505b60008611156118bd5760008860405160200180828152602001807f657468546f74616c000000000000000000000000000000000000000000000000815250600801915050604051602081830303815290604052805190602001209050600260009054906101000a900473ffffffffffffffffffffffffffffffffffffffff1673ffffffffffffffffffffffffffffffffffffffff166308acb5566040518060400160405280600b81526020017f456e646f776d656e744442000000000000000000000000000000000000000000815250836040518363ffffffff1660e01b81526004018080602001838152602001828103825284818151815260200191508051906020019080838360005b83811015611374578082015181840152602081019050611359565b50505050905090810190601f1680156113a15780820380516001836020036101000a031916815260200191505b50935050505060206040518083038186803b1580156113bf57600080fd5b505afa1580156113d3573d6000803e3d6000fd5b505050506040513d60208110156113e957600080fd5b8101908080519060200190929190505050915085156115a9578682101561145b576040517f08c379a00000000000000000000000000000000000000000000000000000000081526004018080602001828103825260388152602001806159496038913960400191505060405180910390fd5b600260009054906101000a900473ffffffffffffffffffffffffffffffffffffffff1673ffffffffffffffffffffffffffffffffffffffff16630214a37c6040518060400160405280600b81526020017f456e646f776d656e744442000000000000000000000000000000000000000000815250836114e38b8761437990919063ffffffff16565b6040518463ffffffff1660e01b81526004018080602001848152602001838152602001828103825285818151815260200191508051906020019080838360005b8381101561153e578082015181840152602081019050611523565b50505050905090810190601f16801561156b5780820380516001836020036101000a031916815260200191505b50945050505050600060405180830381600087803b15801561158c57600080fd5b505af11580156115a0573d6000803e3d6000fd5b505050506116f3565b600260009054906101000a900473ffffffffffffffffffffffffffffffffffffffff1673ffffffffffffffffffffffffffffffffffffffff16630214a37c6040518060400160405280600b81526020017f456e646f776d656e744442000000000000000000000000000000000000000000815250836116318b8761439090919063ffffffff16565b6040518463ffffffff1660e01b81526004018080602001848152602001838152602001828103825285818151815260200191508051906020019080838360005b8381101561168c578082015181840152602081019050611671565b50505050905090810190601f1680156116b95780820380516001836020036101000a031916815260200191505b50945050505050600060405180830381600087803b1580156116da57600080fd5b505af11580156116ee573d6000803e3d6000fd5b505050505b6000821480156117035750600083145b156118bb57600160009054906101000a900473ffffffffffffffffffffffffffffffffffffffff1673ffffffffffffffffffffffffffffffffffffffff1663358177736040518060400160405280600d81526020017f456e646f776d656e7446756e64000000000000000000000000000000000000008152506040518263ffffffff1660e01b81526004018080602001828103825283818151815260200191508051906020019080838360005b838110156117cb5780820151818401526020810190506117b0565b50505050905090810190601f1680156117f85780820380516001836020036101000a031916815260200191505b509250505060206040518083038186803b15801561181557600080fd5b505afa158015611829573d6000803e3d6000fd5b505050506040513d602081101561183f57600080fd5b810190808051906020019092919050505073ffffffffffffffffffffffffffffffffffffffff1663ea87605b8a6040518263ffffffff1660e01b815260040180828152602001915050600060405180830381600087803b1580156118a257600080fd5b505af11580156118b6573d6000803e3d6000fd5b505050505b505b60019350505050949350505050565b600080600260009054906101000a900473ffffffffffffffffffffffffffffffffffffffff1673ffffffffffffffffffffffffffffffffffffffff166308acb5566040518060400160405280600b81526020017f456e646f776d656e74444200000000000000000000000000000000000000000081525060405160200180807f61637475616c46756e64734b5459000000000000000000000000000000000000815250600e019050604051602081830303815290604052805190602001206040518363ffffffff1660e01b81526004018080602001838152602001828103825284818151815260200191508051906020019080838360005b838110156119df5780820151818401526020810190506119c4565b50505050905090810190601f168015611a0c5780820380516001836020036101000a031916815260200191505b50935050505060206040518083038186803b158015611a2a57600080fd5b505afa158015611a3e573d6000803e3d6000fd5b505050506040513d6020811015611a5457600080fd5b81019080805190602001909291905050509150600260009054906101000a900473ffffffffffffffffffffffffffffffffffffffff1673ffffffffffffffffffffffffffffffffffffffff166308acb5566040518060400160405280600b81526020017f456e646f776d656e74444200000000000000000000000000000000000000000081525060405160200180807f61637475616c46756e6473455448000000000000000000000000000000000000815250600e019050604051602081830303815290604052805190602001206040518363ffffffff1660e01b81526004018080602001838152602001828103825284818151815260200191508051906020019080838360005b83811015611b77578082015181840152602081019050611b5c565b50505050905090810190601f168015611ba45780820380516001836020036101000a031916815260200191505b50935050505060206040518083038186803b158015611bc257600080fd5b505afa158015611bd6573d6000803e3d6000fd5b505050506040513d6020811015611bec57600080fd5b810190808051906020019092919050505090509091565b60006040518060400160405280600d81526020017f456e646f776d656e7446756e6400000000000000000000000000000000000000815250611c44816140de565b85600260009054906101000a900473ffffffffffffffffffffffffffffffffffffffff1673ffffffffffffffffffffffffffffffffffffffff166396edc0096040518060400160405280600b81526020017f456e646f776d656e74444200000000000000000000000000000000000000000081525060405160200180807f486f6e6579706f745461626c6500000000000000000000000000000000000000815250600d01905060405160208183030381529060405280519060200120846040518463ffffffff1660e01b81526004018080602001848152602001838152602001828103825285818151815260200191508051906020019080838360005b83811015611d5c578082015181840152602081019050611d41565b50505050905090810190601f168015611d895780820380516001836020036101000a031916815260200191505b5094505050505060206040518083038186803b158015611da857600080fd5b505afa158015611dbc573d6000803e3d6000fd5b505050506040513d6020811015611dd257600080fd5b81019080805190602001909291905050506040518060400160405280600a81526020017f4e6f74206578697374730000000000000000000000000000000000000000000081525090611ebf576040517f08c379a00000000000000000000000000000000000000000000000000000000081526004018080602001828103825283818151815260200191508051906020019080838360005b83811015611e84578082015181840152602081019050611e69565b50505050905090810190601f168015611eb15780820380516001836020036101000a031916815260200191505b509250505060405180910390fd5b5060008511156121f35760008787604051602001808381526020018273ffffffffffffffffffffffffffffffffffffffff1673ffffffffffffffffffffffffffffffffffffffff1660601b8152601401807f6574684465626974000000000000000000000000000000000000000000000000815250600801925050506040516020818303038152906040528051906020012090506000600260009054906101000a900473ffffffffffffffffffffffffffffffffffffffff1673ffffffffffffffffffffffffffffffffffffffff166308acb5566040518060400160405280600b81526020017f456e646f776d656e744442000000000000000000000000000000000000000000815250846040518363ffffffff1660e01b81526004018080602001838152602001828103825284818151815260200191508051906020019080838360005b8381101561201f578082015181840152602081019050612004565b50505050905090810190601f16801561204c5780820380516001836020036101000a031916815260200191505b50935050505060206040518083038186803b15801561206a57600080fd5b505afa15801561207e573d6000803e3d6000fd5b505050506040513d602081101561209457600080fd5b81019080805190602001909291905050509050600260009054906101000a900473ffffffffffffffffffffffffffffffffffffffff1673ffffffffffffffffffffffffffffffffffffffff16630214a37c6040518060400160405280600b81526020017f456e646f776d656e7444420000000000000000000000000000000000000000008152508461212f8b8661439090919063ffffffff16565b6040518463ffffffff1660e01b81526004018080602001848152602001838152602001828103825285818151815260200191508051906020019080838360005b8381101561218a57808201518184015260208101905061216f565b50505050905090810190601f1680156121b75780820380516001836020036101000a031916815260200191505b50945050505050600060405180830381600087803b1580156121d857600080fd5b505af11580156121ec573d6000803e3d6000fd5b5050505050505b60008411156125265760008787604051602001808381526020018273ffffffffffffffffffffffffffffffffffffffff1673ffffffffffffffffffffffffffffffffffffffff1660601b8152601401807f6b74794465626974000000000000000000000000000000000000000000000000815250600801925050506040516020818303038152906040528051906020012090506000600260009054906101000a900473ffffffffffffffffffffffffffffffffffffffff1673ffffffffffffffffffffffffffffffffffffffff166308acb5566040518060400160405280600b81526020017f456e646f776d656e744442000000000000000000000000000000000000000000815250846040518363ffffffff1660e01b81526004018080602001838152602001828103825284818151815260200191508051906020019080838360005b83811015612352578082015181840152602081019050612337565b50505050905090810190601f16801561237f5780820380516001836020036101000a031916815260200191505b50935050505060206040518083038186803b15801561239d57600080fd5b505afa1580156123b1573d6000803e3d6000fd5b505050506040513d60208110156123c757600080fd5b81019080805190602001909291905050509050600260009054906101000a900473ffffffffffffffffffffffffffffffffffffffff1673ffffffffffffffffffffffffffffffffffffffff16630214a37c6040518060400160405280600b81526020017f456e646f776d656e744442000000000000000000000000000000000000000000815250846124628a8661439090919063ffffffff16565b6040518463ffffffff1660e01b81526004018080602001848152602001838152602001828103825285818151815260200191508051906020019080838360005b838110156124bd5780820151818401526020810190506124a2565b50505050905090810190601f1680156124ea5780820380516001836020036101000a031916815260200191505b50945050505050600060405180830381600087803b15801561250b57600080fd5b505af115801561251f573d6000803e3d6000fd5b5050505050505b600192505050949350505050565b600080600260009054906101000a900473ffffffffffffffffffffffffffffffffffffffff1673ffffffffffffffffffffffffffffffffffffffff166308acb5566040518060400160405280600b81526020017f456e646f776d656e7444420000000000000000000000000000000000000000008152508560405160200180828152602001807f7374617465000000000000000000000000000000000000000000000000000000815250600501915050604051602081830303815290604052805190602001206040518363ffffffff1660e01b81526004018080602001838152602001828103825284818151815260200191508051906020019080838360005b8381101561264f578082015181840152602081019050612634565b50505050905090810190601f16801561267c5780820380516001836020036101000a031916815260200191505b50935050505060206040518083038186803b15801561269a57600080fd5b505afa1580156126ae573d6000803e3d6000fd5b505050506040513d60208110156126c457600080fd5b8101908080519060200190929190505050600260009054906101000a900473ffffffffffffffffffffffffffffffffffffffff1673ffffffffffffffffffffffffffffffffffffffff166308acb5566040518060400160405280600b81526020017f456e646f776d656e7444420000000000000000000000000000000000000000008152508660405160200180828152602001807f636c61696d54696d650000000000000000000000000000000000000000000000815250600901915050604051602081830303815290604052805190602001206040518363ffffffff1660e01b81526004018080602001838152602001828103825284818151815260200191508051906020019080838360005b838110156127ed5780820151818401526020810190506127d2565b50505050905090810190601f16801561281a5780820380516001836020036101000a031916815260200191505b50935050505060206040518083038186803b15801561283857600080fd5b505afa15801561284c573d6000803e3d6000fd5b505050506040513d602081101561286257600080fd5b810190808051906020019092919050505091509150915091565b60006040518060400160405280600d81526020017f456e646f776d656e7446756e64000000000000000000000000000000000000008152506128bd816140de565b6128c88585856143ac565b9150509392505050565b600080600260009054906101000a900473ffffffffffffffffffffffffffffffffffffffff1673ffffffffffffffffffffffffffffffffffffffff166308acb5566040518060400160405280600b81526020017f456e646f776d656e7444420000000000000000000000000000000000000000008152508560405160200180828152602001807f657468546f74616c000000000000000000000000000000000000000000000000815250600801915050604051602081830303815290604052805190602001206040518363ffffffff1660e01b81526004018080602001838152602001828103825284818151815260200191508051906020019080838360005b838110156129ed5780820151818401526020810190506129d2565b50505050905090810190601f168015612a1a5780820380516001836020036101000a031916815260200191505b50935050505060206040518083038186803b158015612a3857600080fd5b505afa158015612a4c573d6000803e3d6000fd5b505050506040513d6020811015612a6257600080fd5b81019080805190602001909291905050509150600260009054906101000a900473ffffffffffffffffffffffffffffffffffffffff1673ffffffffffffffffffffffffffffffffffffffff166308acb5566040518060400160405280600b81526020017f456e646f776d656e7444420000000000000000000000000000000000000000008152508560405160200180828152602001807f6b7479546f74616c000000000000000000000000000000000000000000000000815250600801915050604051602081830303815290604052805190602001206040518363ffffffff1660e01b81526004018080602001838152602001828103825284818151815260200191508051906020019080838360005b83811015612b8d578082015181840152602081019050612b72565b50505050905090810190601f168015612bba5780820380516001836020036101000a031916815260200191505b50935050505060206040518083038186803b158015612bd857600080fd5b505afa158015612bec573d6000803e3d6000fd5b505050506040513d6020811015612c0257600080fd5b81019080805190602001909291905050509050915091565b6000809054906101000a900473ffffffffffffffffffffffffffffffffffffffff1681565b6000809054906101000a900473ffffffffffffffffffffffffffffffffffffffff1673ffffffffffffffffffffffffffffffffffffffff163373ffffffffffffffffffffffffffffffffffffffff1614612c9557fe5b80600160006101000a81548173ffffffffffffffffffffffffffffffffffffffff021916908373ffffffffffffffffffffffffffffffffffffffff16021790555050565b600260009054906101000a900473ffffffffffffffffffffffffffffffffffffffff1673ffffffffffffffffffffffffffffffffffffffff16630214a37c6040518060400160405280600b81526020017f456e646f776d656e7444420000000000000000000000000000000000000000008152508560405160200180828152602001807f737461746500000000000000000000000000000000000000000000000000000081525060050191505060405160208183030381529060405280519060200120856040518463ffffffff1660e01b81526004018080602001848152602001838152602001828103825285818151815260200191508051906020019080838360005b83811015612df8578082015181840152602081019050612ddd565b50505050905090810190601f168015612e255780820380516001836020036101000a031916815260200191505b50945050505050600060405180830381600087803b158015612e4657600080fd5b505af1158015612e5a573d6000803e3d6000fd5b505050506000811115612ff157600260009054906101000a900473ffffffffffffffffffffffffffffffffffffffff1673ffffffffffffffffffffffffffffffffffffffff16630214a37c6040518060400160405280600b81526020017f456e646f776d656e7444420000000000000000000000000000000000000000008152508560405160200180828152602001807f636c61696d54696d65000000000000000000000000000000000000000000000081525060090191505060405160208183030381529060405280519060200120846040518463ffffffff1660e01b81526004018080602001848152602001838152602001828103825285818151815260200191508051906020019080838360005b83811015612f86578082015181840152602081019050612f6b565b50505050905090810190601f168015612fb35780820380516001836020036101000a031916815260200191505b50945050505050600060405180830381600087803b158015612fd457600080fd5b505af1158015612fe8573d6000803e3d6000fd5b50505050613178565b600260009054906101000a900473ffffffffffffffffffffffffffffffffffffffff1673ffffffffffffffffffffffffffffffffffffffff16630214a37c6040518060400160405280600b81526020017f456e646f776d656e7444420000000000000000000000000000000000000000008152508560405160200180828152602001807f636c61696d54696d6500000000000000000000000000000000000000000000008152506009019150506040516020818303038152906040528051906020012060006040518463ffffffff1660e01b81526004018080602001848152602001838152602001828103825285818151815260200191508051906020019080838360005b838110156131115780820151818401526020810190506130f6565b50505050905090810190601f16801561313e5780820380516001836020036101000a031916815260200191505b50945050505050600060405180830381600087803b15801561315f57600080fd5b505af1158015613173573d6000803e3d6000fd5b505050505b505050565b600080600260009054906101000a900473ffffffffffffffffffffffffffffffffffffffff1673ffffffffffffffffffffffffffffffffffffffff166308acb5566040518060400160405280600b81526020017f456e646f776d656e7444420000000000000000000000000000000000000000008152508560405160200180828152602001807f6b7479546f74616c000000000000000000000000000000000000000000000000815250600801915050604051602081830303815290604052805190602001206040518363ffffffff1660e01b81526004018080602001838152602001828103825284818151815260200191508051906020019080838360005b8381101561329857808201518184015260208101905061327d565b50505050905090810190601f1680156132c55780820380516001836020036101000a031916815260200191505b50935050505060206040518083038186803b1580156132e357600080fd5b505afa1580156132f7573d6000803e3d6000fd5b505050506040513d602081101561330d57600080fd5b81019080805190602001909291905050509150600260009054906101000a900473ffffffffffffffffffffffffffffffffffffffff1673ffffffffffffffffffffffffffffffffffffffff166308acb5566040518060400160405280600b81526020017f456e646f776d656e7444420000000000000000000000000000000000000000008152508560405160200180828152602001807f657468546f74616c000000000000000000000000000000000000000000000000815250600801915050604051602081830303815290604052805190602001206040518363ffffffff1660e01b81526004018080602001838152602001828103825284818151815260200191508051906020019080838360005b8381101561343857808201518184015260208101905061341d565b50505050905090810190601f1680156134655780820380516001836020036101000a031916815260200191505b50935050505060206040518083038186803b15801561348357600080fd5b505afa158015613497573d6000803e3d6000fd5b505050506040513d60208110156134ad57600080fd5b81019080805190602001909291905050509050915091565b600160009054906101000a900473ffffffffffffffffffffffffffffffffffffffff1681565b6000806040518060400160405280600d81526020017f456e646f776d656e7446756e640000000000000000000000000000000000000081525061352d816140de565b6000806060600160009054906101000a900473ffffffffffffffffffffffffffffffffffffffff1673ffffffffffffffffffffffffffffffffffffffff1663358177736040518060400160405280601681526020017f486f6e6579706f74416c6c6f636174696f6e416c676f000000000000000000008152506040518263ffffffff1660e01b81526004018080602001828103825283818151815260200191508051906020019080838360005b838110156135f55780820151818401526020810190506135da565b50505050905090810190601f1680156136225780820380516001836020036101000a031916815260200191505b509250505060206040518083038186803b15801561363f57600080fd5b505afa158015613653573d6000803e3d6000fd5b505050506040513d602081101561366957600080fd5b810190808051906020019092919050505073ffffffffffffffffffffffffffffffffffffffff166356e5a2c96040518163ffffffff1660e01b815260040160006040518083038186803b1580156136bf57600080fd5b505afa1580156136d3573d6000803e3d6000fd5b505050506040513d6000823e3d601f19601f8201168201806040525060608110156136fd57600080fd5b8101908080519060200190929190805190602001909291908051604051939291908464010000000082111561373157600080fd5b8382019150602082018581111561374757600080fd5b825186600182028301116401000000008211171561376457600080fd5b8083526020830192505050908051906020019080838360005b8381101561379857808201518184015260208101905061377d565b50505050905090810190601f1680156137c55780820380516001836020036101000a031916815260200191505b506040525050509250925092506137e187600042868686614e08565b6137ed838360016143ac565b6137f657600080fd5b82829550955050505050915091565b6000809054906101000a900473ffffffffffffffffffffffffffffffffffffffff1673ffffffffffffffffffffffffffffffffffffffff163373ffffffffffffffffffffffffffffffffffffffff161461385b57fe5b600073ffffffffffffffffffffffffffffffffffffffff168173ffffffffffffffffffffffffffffffffffffffff16146138d057806000806101000a81548173ffffffffffffffffffffffffffffffffffffffff021916908373ffffffffffffffffffffffffffffffffffffffff1602179055505b50565b6040518060400160405280600d81526020017f456e646f776d656e7446756e6400000000000000000000000000000000000000815250613912816140de565b6000600260009054906101000a900473ffffffffffffffffffffffffffffffffffffffff1673ffffffffffffffffffffffffffffffffffffffff166308acb5566040518060400160405280600b81526020017f456e646f776d656e7444420000000000000000000000000000000000000000008152508660405160200180828152602001807f636c61696d54696d650000000000000000000000000000000000000000000000815250600901915050604051602081830303815290604052805190602001206040518363ffffffff1660e01b81526004018080602001838152602001828103825284818151815260200191508051906020019080838360005b83811015613a2c578082015181840152602081019050613a11565b50505050905090810190601f168015613a595780820380516001836020036101000a031916815260200191505b50935050505060206040518083038186803b158015613a7757600080fd5b505afa158015613a8b573d6000803e3d6000fd5b505050506040513d6020811015613aa157600080fd5b8101908080519060200190929190505050905060008111613ac157600080fd5b600260009054906101000a900473ffffffffffffffffffffffffffffffffffffffff1673ffffffffffffffffffffffffffffffffffffffff16630214a37c6040518060400160405280600b81526020017f456e646f776d656e7444420000000000000000000000000000000000000000008152508660405160200180828152602001807f737461746500000000000000000000000000000000000000000000000000000081525060050191505060405160208183030381529060405280519060200120866040518463ffffffff1660e01b81526004018080602001848152602001838152602001828103825285818151815260200191508051906020019080838360005b83811015613be0578082015181840152602081019050613bc5565b50505050905090810190601f168015613c0d5780820380516001836020036101000a031916815260200191505b50945050505050600060405180830381600087803b158015613c2e57600080fd5b505af1158015613c42573d6000803e3d6000fd5b50505050600260009054906101000a900473ffffffffffffffffffffffffffffffffffffffff1673ffffffffffffffffffffffffffffffffffffffff16630214a37c6040518060400160405280600b81526020017f456e646f776d656e7444420000000000000000000000000000000000000000008152508660405160200180828152602001807f636c61696d54696d6500000000000000000000000000000000000000000000008152506009019150506040516020818303038152906040528051906020012060006040518463ffffffff1660e01b81526004018080602001848152602001838152602001828103825285818151815260200191508051906020019080838360005b83811015613d66578082015181840152602081019050613d4b565b50505050905090810190601f168015613d935780820380516001836020036101000a031916815260200191505b50945050505050600060405180830381600087803b158015613db457600080fd5b505af1158015613dc8573d6000803e3d6000fd5b50505050600260009054906101000a900473ffffffffffffffffffffffffffffffffffffffff1673ffffffffffffffffffffffffffffffffffffffff16630214a37c6040518060400160405280600b81526020017f456e646f776d656e7444420000000000000000000000000000000000000000008152508660405160200180828152602001807f6b7479546f74616c0000000000000000000000000000000000000000000000008152506008019150506040516020818303038152906040528051906020012060006040518463ffffffff1660e01b81526004018080602001848152602001838152602001828103825285818151815260200191508051906020019080838360005b83811015613eec578082015181840152602081019050613ed1565b50505050905090810190601f168015613f195780820380516001836020036101000a031916815260200191505b50945050505050600060405180830381600087803b158015613f3a57600080fd5b505af1158015613f4e573d6000803e3d6000fd5b50505050600260009054906101000a900473ffffffffffffffffffffffffffffffffffffffff1673ffffffffffffffffffffffffffffffffffffffff16630214a37c6040518060400160405280600b81526020017f456e646f776d656e7444420000000000000000000000000000000000000000008152508660405160200180828152602001807f657468546f74616c0000000000000000000000000000000000000000000000008152506008019150506040516020818303038152906040528051906020012060006040518463ffffffff1660e01b81526004018080602001848152602001838152602001828103825285818151815260200191508051906020019080838360005b83811015614072578082015181840152602081019050614057565b50505050905090810190601f16801561409f5780820380516001836020036101000a031916815260200191505b50945050505050600060405180830381600087803b1580156140c057600080fd5b505af11580156140d4573d6000803e3d6000fd5b5050505050505050565b600073ffffffffffffffffffffffffffffffffffffffff16600160009054906101000a900473ffffffffffffffffffffffffffffffffffffffff1673ffffffffffffffffffffffffffffffffffffffff1614156141a3576040517f08c379a00000000000000000000000000000000000000000000000000000000081526004018080602001828103825260088152602001807f4e6f2050726f787900000000000000000000000000000000000000000000000081525060200191505060405180910390fd5b6000600160009054906101000a900473ffffffffffffffffffffffffffffffffffffffff1673ffffffffffffffffffffffffffffffffffffffff166335817773836040518263ffffffff1660e01b81526004018080602001828103825283818151815260200191508051906020019080838360005b83811015614233578082015181840152602081019050614218565b50505050905090810190601f1680156142605780820380516001836020036101000a031916815260200191505b509250505060206040518083038186803b15801561427d57600080fd5b505afa158015614291573d6000803e3d6000fd5b505050506040513d60208110156142a757600080fd5b81019080805190602001909291905050509050600073ffffffffffffffffffffffffffffffffffffffff168173ffffffffffffffffffffffffffffffffffffffff1614156142f157fe5b8073ffffffffffffffffffffffffffffffffffffffff163373ffffffffffffffffffffffffffffffffffffffff1614614375576040517f08c379a000000000000000000000000000000000000000000000000000000000815260040180806020018281038252602d81526020018061591c602d913960400191505060405180910390fd5b5050565b60008282111561438557fe5b818303905092915050565b6000808284019050838110156143a257fe5b8091505092915050565b6000808411156148d5576000600260009054906101000a900473ffffffffffffffffffffffffffffffffffffffff1673ffffffffffffffffffffffffffffffffffffffff166308acb5566040518060400160405280600b81526020017f456e646f776d656e74444200000000000000000000000000000000000000000081525060405160200180807f61637475616c46756e64734b5459000000000000000000000000000000000000815250600e019050604051602081830303815290604052805190602001206040518363ffffffff1660e01b81526004018080602001838152602001828103825284818151815260200191508051906020019080838360005b838110156144c85780820151818401526020810190506144ad565b50505050905090810190601f1680156144f55780820380516001836020036101000a031916815260200191505b50935050505060206040518083038186803b15801561451357600080fd5b505afa158015614527573d6000803e3d6000fd5b505050506040513d602081101561453d57600080fd5b81019080805190602001909291905050509050821561474357848110156145af576040517f08c379a000000000000000000000000000000000000000000000000000000000815260040180806020018281038252602c81526020018061588c602c913960400191505060405180910390fd5b600260009054906101000a900473ffffffffffffffffffffffffffffffffffffffff1673ffffffffffffffffffffffffffffffffffffffff16630214a37c6040518060400160405280600b81526020017f456e646f776d656e74444200000000000000000000000000000000000000000081525060405160200180807f61637475616c46756e64734b5459000000000000000000000000000000000000815250600e0190506040516020818303038152906040528051906020012061467d898661437990919063ffffffff16565b6040518463ffffffff1660e01b81526004018080602001848152602001838152602001828103825285818151815260200191508051906020019080838360005b838110156146d85780820151818401526020810190506146bd565b50505050905090810190601f1680156147055780820380516001836020036101000a031916815260200191505b50945050505050600060405180830381600087803b15801561472657600080fd5b505af115801561473a573d6000803e3d6000fd5b505050506148d3565b600260009054906101000a900473ffffffffffffffffffffffffffffffffffffffff1673ffffffffffffffffffffffffffffffffffffffff16630214a37c6040518060400160405280600b81526020017f456e646f776d656e74444200000000000000000000000000000000000000000081525060405160200180807f61637475616c46756e64734b5459000000000000000000000000000000000000815250600e01905060405160208183030381529060405280519060200120614811898661439090919063ffffffff16565b6040518463ffffffff1660e01b81526004018080602001848152602001838152602001828103825285818151815260200191508051906020019080838360005b8381101561486c578082015181840152602081019050614851565b50505050905090810190601f1680156148995780820380516001836020036101000a031916815260200191505b50945050505050600060405180830381600087803b1580156148ba57600080fd5b505af11580156148ce573d6000803e3d6000fd5b505050505b505b6000831115614dfd576000600260009054906101000a900473ffffffffffffffffffffffffffffffffffffffff1673ffffffffffffffffffffffffffffffffffffffff166308acb5566040518060400160405280600b81526020017f456e646f776d656e74444200000000000000000000000000000000000000000081525060405160200180807f61637475616c46756e6473455448000000000000000000000000000000000000815250600e019050604051602081830303815290604052805190602001206040518363ffffffff1660e01b81526004018080602001838152602001828103825284818151815260200191508051906020019080838360005b838110156149f05780820151818401526020810190506149d5565b50505050905090810190601f168015614a1d5780820380516001836020036101000a031916815260200191505b50935050505060206040518083038186803b158015614a3b57600080fd5b505afa158015614a4f573d6000803e3d6000fd5b505050506040513d6020811015614a6557600080fd5b810190808051906020019092919050505090508215614c6b5783811015614ad7576040517f08c379a000000000000000000000000000000000000000000000000000000000815260040180806020018281038252602c8152602001806158b8602c913960400191505060405180910390fd5b600260009054906101000a900473ffffffffffffffffffffffffffffffffffffffff1673ffffffffffffffffffffffffffffffffffffffff16630214a37c6040518060400160405280600b81526020017f456e646f776d656e74444200000000000000000000000000000000000000000081525060405160200180807f61637475616c46756e6473455448000000000000000000000000000000000000815250600e01905060405160208183030381529060405280519060200120614ba5888661437990919063ffffffff16565b6040518463ffffffff1660e01b81526004018080602001848152602001838152602001828103825285818151815260200191508051906020019080838360005b83811015614c00578082015181840152602081019050614be5565b50505050905090810190601f168015614c2d5780820380516001836020036101000a031916815260200191505b50945050505050600060405180830381600087803b158015614c4e57600080fd5b505af1158015614c62573d6000803e3d6000fd5b50505050614dfb565b600260009054906101000a900473ffffffffffffffffffffffffffffffffffffffff1673ffffffffffffffffffffffffffffffffffffffff16630214a37c6040518060400160405280600b81526020017f456e646f776d656e74444200000000000000000000000000000000000000000081525060405160200180807f61637475616c46756e6473455448000000000000000000000000000000000000815250600e01905060405160208183030381529060405280519060200120614d39888661439090919063ffffffff16565b6040518463ffffffff1660e01b81526004018080602001848152602001838152602001828103825285818151815260200191508051906020019080838360005b83811015614d94578082015181840152602081019050614d79565b50505050905090810190601f168015614dc15780820380516001836020036101000a031916815260200191505b50945050505050600060405180830381600087803b158015614de257600080fd5b505af1158015614df6573d6000803e3d6000fd5b505050505b505b600190509392505050565b600260009054906101000a900473ffffffffffffffffffffffffffffffffffffffff1673ffffffffffffffffffffffffffffffffffffffff166387d533626040518060400160405280600b81526020017f456e646f776d656e74444200000000000000000000000000000000000000000081525060405160200180807f486f6e6579706f745461626c6500000000000000000000000000000000000000815250600d01905060405160208183030381529060405280519060200120896040518463ffffffff1660e01b81526004018080602001848152602001838152602001828103825285818151815260200191508051906020019080838360005b83811015614f1f578082015181840152602081019050614f04565b50505050905090810190601f168015614f4c5780820380516001836020036101000a031916815260200191505b50945050505050602060405180830381600087803b158015614f6d57600080fd5b505af1158015614f81573d6000803e3d6000fd5b505050506040513d6020811015614f9757600080fd5b81019080805190602001909291905050506040518060400160405280600e81526020017f416c72656164792065786973747300000000000000000000000000000000000081525090615084576040517f08c379a00000000000000000000000000000000000000000000000000000000081526004018080602001828103825283818151815260200191508051906020019080838360005b8381101561504957808201518184015260208101905061502e565b50505050905090810190601f1680156150765780820380516001836020036101000a031916815260200191505b509250505060405180910390fd5b50600260009054906101000a900473ffffffffffffffffffffffffffffffffffffffff1673ffffffffffffffffffffffffffffffffffffffff16630214a37c6040518060400160405280600b81526020017f456e646f776d656e7444420000000000000000000000000000000000000000008152508860405160200180828152602001807f737461746500000000000000000000000000000000000000000000000000000081525060050191505060405160208183030381529060405280519060200120886040518463ffffffff1660e01b81526004018080602001848152602001838152602001828103825285818151815260200191508051906020019080838360005b838110156151a4578082015181840152602081019050615189565b50505050905090810190601f1680156151d15780820380516001836020036101000a031916815260200191505b50945050505050600060405180830381600087803b1580156151f257600080fd5b505af1158015615206573d6000803e3d6000fd5b50505050600260009054906101000a900473ffffffffffffffffffffffffffffffffffffffff1673ffffffffffffffffffffffffffffffffffffffff16630214a37c6040518060400160405280600b81526020017f456e646f776d656e7444420000000000000000000000000000000000000000008152508860405160200180828152602001807f6372656174656454696d65000000000000000000000000000000000000000000815250600b0191505060405160208183030381529060405280519060200120876040518463ffffffff1660e01b81526004018080602001848152602001838152602001828103825285818151815260200191508051906020019080838360005b8381101561532957808201518184015260208101905061530e565b50505050905090810190601f1680156153565780820380516001836020036101000a031916815260200191505b50945050505050600060405180830381600087803b15801561537757600080fd5b505af115801561538b573d6000803e3d6000fd5b50505050600260009054906101000a900473ffffffffffffffffffffffffffffffffffffffff1673ffffffffffffffffffffffffffffffffffffffff16630214a37c6040518060400160405280600b81526020017f456e646f776d656e7444420000000000000000000000000000000000000000008152508860405160200180828152602001807f6b7479546f74616c00000000000000000000000000000000000000000000000081525060080191505060405160208183030381529060405280519060200120866040518463ffffffff1660e01b81526004018080602001848152602001838152602001828103825285818151815260200191508051906020019080838360005b838110156154ae578082015181840152602081019050615493565b50505050905090810190601f1680156154db5780820380516001836020036101000a031916815260200191505b50945050505050600060405180830381600087803b1580156154fc57600080fd5b505af1158015615510573d6000803e3d6000fd5b50505050600260009054906101000a900473ffffffffffffffffffffffffffffffffffffffff1673ffffffffffffffffffffffffffffffffffffffff16630214a37c6040518060400160405280600b81526020017f456e646f776d656e7444420000000000000000000000000000000000000000008152508860405160200180828152602001807f657468546f74616c00000000000000000000000000000000000000000000000081525060080191505060405160208183030381529060405280519060200120856040518463ffffffff1660e01b81526004018080602001848152602001838152602001828103825285818151815260200191508051906020019080838360005b83811015615633578082015181840152602081019050615618565b50505050905090810190601f1680156156605780820380516001836020036101000a031916815260200191505b50945050505050600060405180830381600087803b15801561568157600080fd5b505af1158015615695573d6000803e3d6000fd5b50505050600260009054906101000a900473ffffffffffffffffffffffffffffffffffffffff1673ffffffffffffffffffffffffffffffffffffffff1663ae2660106040518060400160405280600b81526020017f456e646f776d656e7444420000000000000000000000000000000000000000008152508860405160200180828152602001807f686f6e6579706f74436c61737300000000000000000000000000000000000000815250600d0191505060405160208183030381529060405280519060200120846040518463ffffffff1660e01b8152600401808060200184815260200180602001838103835286818151815260200191508051906020019080838360005b838110156157b657808201518184015260208101905061579b565b50505050905090810190601f1680156157e35780820380516001836020036101000a031916815260200191505b50838103825284818151815260200191508051906020019080838360005b8381101561581c578082015181840152602081019050615801565b50505050905090810190601f1680156158495780820380516001836020036101000a031916815260200191505b5095505050505050600060405180830381600087803b15801561586b57600080fd5b505af115801561587f573d6000803e3d6000fd5b5050505050505050505056fe494e53554646494349454e54204b545920696e20456e646f776d656e742e2031353634363536383035303536494e53554646494349454e542045544820696e20456e646f776d656e742e20313536343635363538393933374572726f723a20757064617465486f6e6579506f7446756e64282920696e73756666696369656e74204b545920696e20486f6e6579506f74416363657373206973206f6e6c7920616c6c6f7765642066726f6d20737065636966696320636f6e74726163744572726f723a20757064617465486f6e6579506f7446756e64282920696e73756666696369656e742045544820696e20486f6e6579506f74a265627a7a723158206aa08ca8566a64832695533b6fbaf56bfb3d4d5be081b41da259d1ab3281d2f864736f6c63430005110032",
  "source": "pragma solidity ^0.5.5;\n\nimport \"./GenericDB.sol\";\nimport \"../proxy/Proxied.sol\";\nimport \"../../libs/SafeMath.sol\";\nimport \"../endowment/EndowmentFund.sol\";\nimport \"../endowment/HoneypotAllocationAlgo.sol\";\n\ncontract EndowmentDB is Proxied {\n  using SafeMath for uint256;\n\n  GenericDB public genericDB;\n\n  // TABLE_KEY_PROFILE for ProfileDB lookup (read-only).\n  bytes32 internal constant TABLE_KEY_PROFILE = keccak256(abi.encodePacked(\"ProfileTable\"));\n  // TABLE_KEY_HONEYPOT defines a set for active Honeypots of EndowmentFund.\n  bytes32 internal constant TABLE_KEY_HONEYPOT = keccak256(abi.encodePacked(\"HoneypotTable\"));\n  // TABLE_KEY_HONEYPOT_DISSOLVED defines a set for dissolved honeypots of EndowmentFund.\n  bytes32 internal constant TABLE_KEY_HONEYPOT_DISSOLVED = keccak256(abi.encodePacked(\"HoneypotDissolvedTable\"));\n  // TABLE_NAME_CONTRIBUTION_KTY defines a set of KTY contributors of a honeypot of EndowmentFund.\n  bytes32 internal constant TABLE_NAME_CONTRIBUTION_KTY = \"ContributionTableKTY\";\n  // TABLE_NAME_CONTRIBUTION_ETH defines a set of ETH contributors of a honeypot of EndowmentFund.\n  bytes32 internal constant TABLE_NAME_CONTRIBUTION_ETH = \"ContributionTableETH\";\n  // VAR_KEY_ACTUAL_FUNDS_KTY\n  bytes32 internal constant VAR_KEY_ACTUAL_FUNDS_KTY = keccak256(abi.encodePacked(\"actualFundsKTY\"));\n  // VAR_KEY_ACTUAL_FUNDS_ETH\n  bytes32 internal constant VAR_KEY_ACTUAL_FUNDS_ETH = keccak256(abi.encodePacked(\"actualFundsETH\"));\n  // VAR_KEY_INGAME_FUNDS_KTY\n  bytes32 internal constant VAR_KEY_INGAME_FUNDS_KTY = keccak256(abi.encodePacked(\"ingameFundsKTY\"));\n  // VAR_KEY_INGAME_FUNDS_ETH\n  bytes32 internal constant VAR_KEY_INGAME_FUNDS_ETH = keccak256(abi.encodePacked(\"ingameFundsETH\"));\n\n  string internal constant ERROR_DOES_NOT_EXIST = \"Not exists\";\n  string internal constant ERROR_NOT_REGISTERED = \"Not registered\";\n  string internal constant ERROR_ALREADY_EXIST = \"Already exists\";\n  string internal constant ERROR_INSUFFICIENT_FUNDS = \"Insufficient funds\";\n\n  constructor(GenericDB _genericDB) public {\n    setGenericDB(_genericDB);\n  }\n\n  function setGenericDB(GenericDB _genericDB) public onlyOwner {\n    genericDB = _genericDB;\n  }\n\n  function getHoneyPotBalance(uint256 _gameId) public view\n  returns (uint256 honeyPotBalanceKTY, uint256 honeyPotBalanceETH)  {\n    honeyPotBalanceKTY = genericDB.getUintStorage(CONTRACT_NAME_ENDOWMENT_DB, keccak256(abi.encodePacked(_gameId, \"ktyTotal\")));\n    honeyPotBalanceETH = genericDB.getUintStorage(CONTRACT_NAME_ENDOWMENT_DB, keccak256(abi.encodePacked(_gameId, \"ethTotal\")));\n\n  }\n\n  function updateHoneyPotFund(\n    uint256 _gameId, uint256 _kty_amount, uint256 _eth_amount, bool deductFunds\n  )\n    external\n    onlyContract(CONTRACT_NAME_ENDOWMENT_FUND)\n    returns (bool)\n  {\n    uint honeyPotKtyTotal;\n    uint honeyPotEthTotal;\n\n    if (_kty_amount > 0){\n\n      // get total Kty availabe in the HoneyPot\n      bytes32 honeyPotKtyTotalKey = keccak256(abi.encodePacked(_gameId, \"ktyTotal\"));\n      honeyPotKtyTotal = genericDB.getUintStorage(CONTRACT_NAME_ENDOWMENT_DB, honeyPotKtyTotalKey);\n\n      if (deductFunds){\n\n        require(honeyPotKtyTotal >= _kty_amount,\n          \"Error: updateHoneyPotFund() insufficient KTY in HoneyPot\");\n\n        genericDB.setUintStorage(CONTRACT_NAME_ENDOWMENT_DB, honeyPotKtyTotalKey, honeyPotKtyTotal.sub(_kty_amount));\n\n      }else{ // add\n\n        genericDB.setUintStorage(CONTRACT_NAME_ENDOWMENT_DB, honeyPotKtyTotalKey, honeyPotKtyTotal.add(_kty_amount));\n\n      }\n    }\n\n    if (_eth_amount > 0){\n      // get total Eth availabe in the HoneyPot\n      bytes32 honeyPotEthTotalKey = keccak256(abi.encodePacked(_gameId, \"ethTotal\"));\n      honeyPotEthTotal = genericDB.getUintStorage(CONTRACT_NAME_ENDOWMENT_DB, honeyPotEthTotalKey);\n\n      if (deductFunds){\n\n        require(honeyPotEthTotal >= _eth_amount,\n          \"Error: updateHoneyPotFund() insufficient ETH in HoneyPot\");\n\n        genericDB.setUintStorage(CONTRACT_NAME_ENDOWMENT_DB, honeyPotEthTotalKey, honeyPotEthTotal.sub(_eth_amount));\n\n      }else{ // add\n\n        genericDB.setUintStorage(CONTRACT_NAME_ENDOWMENT_DB, honeyPotEthTotalKey, honeyPotEthTotal.add(_eth_amount));\n\n      }\n\n      if(honeyPotEthTotal == 0 && honeyPotKtyTotal == 0)\n        EndowmentFund(proxy.getContract(CONTRACT_NAME_ENDOWMENT_FUND)).deleteCronJob(_gameId);\n    }\n\n    return true;\n  }\n\n  function updateEndowmentFund(\n    uint256 _kty_amount, uint256 _eth_amount, bool deductFunds\n  )\n    external\n    onlyContract(CONTRACT_NAME_ENDOWMENT_FUND)\n    returns (bool)\n  {\n    return (_updateEndowmentFund(_kty_amount, _eth_amount, deductFunds));\n  }\n\n  function _updateEndowmentFund(\n    uint256 _kty_amount, uint256 _eth_amount, bool deductFunds\n  )\n    internal\n    returns (bool)\n  {\n\n    if (_kty_amount > 0){\n\n      uint actualFundsKTY = genericDB.getUintStorage(CONTRACT_NAME_ENDOWMENT_DB, VAR_KEY_ACTUAL_FUNDS_KTY);\n      if (deductFunds){\n\n        require(actualFundsKTY >= _kty_amount,\n          'INSUFFICIENT KTY in Endowment. 1564656805056');\n\n        genericDB.setUintStorage(CONTRACT_NAME_ENDOWMENT_DB, VAR_KEY_ACTUAL_FUNDS_KTY, actualFundsKTY.sub(_kty_amount));\n\n      }else{ // add\n        genericDB.setUintStorage(CONTRACT_NAME_ENDOWMENT_DB, VAR_KEY_ACTUAL_FUNDS_KTY, actualFundsKTY.add(_kty_amount));\n\n      }\n    }\n\n    if (_eth_amount > 0){\n      uint actualFundsETH = genericDB.getUintStorage(CONTRACT_NAME_ENDOWMENT_DB, VAR_KEY_ACTUAL_FUNDS_ETH);\n\n      if (deductFunds){\n\n        require(actualFundsETH >= _eth_amount,\n          'INSUFFICIENT ETH in Endowment. 1564656589937');\n\n        genericDB.setUintStorage(CONTRACT_NAME_ENDOWMENT_DB, VAR_KEY_ACTUAL_FUNDS_ETH, actualFundsETH.sub(_eth_amount));\n\n      }else{ // add\n\n        genericDB.setUintStorage(CONTRACT_NAME_ENDOWMENT_DB, VAR_KEY_ACTUAL_FUNDS_ETH, actualFundsETH.add(_eth_amount));\n\n      }\n    }\n\n    return true;\n  }\n\n  function getEndowmentBalance() public view\n  returns (uint256 endowmentBalanceKTY, uint256 endowmentBalanceETH)  {\n    endowmentBalanceKTY = genericDB.getUintStorage(CONTRACT_NAME_ENDOWMENT_DB, VAR_KEY_ACTUAL_FUNDS_KTY);\n    endowmentBalanceETH = genericDB.getUintStorage(CONTRACT_NAME_ENDOWMENT_DB, VAR_KEY_ACTUAL_FUNDS_ETH);\n  }\n\n  function createHoneypot(\n    uint gameId,\n    uint state,\n    uint createdTime,\n    uint ktyTotal,\n    uint ethTotal,\n    string memory honeypotClass\n  )\n    internal\n  {\n    require(genericDB.pushNodeToLinkedList(CONTRACT_NAME_ENDOWMENT_DB, TABLE_KEY_HONEYPOT, gameId), ERROR_ALREADY_EXIST);\n    genericDB.setUintStorage(CONTRACT_NAME_ENDOWMENT_DB, keccak256(abi.encodePacked(gameId, \"state\")), state);\n    genericDB.setUintStorage(CONTRACT_NAME_ENDOWMENT_DB, keccak256(abi.encodePacked(gameId, \"createdTime\")), createdTime);\n    genericDB.setUintStorage(CONTRACT_NAME_ENDOWMENT_DB, keccak256(abi.encodePacked(gameId, \"ktyTotal\")), ktyTotal);\n    genericDB.setUintStorage(CONTRACT_NAME_ENDOWMENT_DB, keccak256(abi.encodePacked(gameId, \"ethTotal\")), ethTotal);\n    genericDB.setStringStorage(CONTRACT_NAME_ENDOWMENT_DB, keccak256(abi.encodePacked(gameId, \"honeypotClass\")), honeypotClass);\n  }\n\n  function getHoneypotState(\n    uint gameId\n  )\n    external\n    view returns (uint state, uint256 claimTime)\n  {\n    return(\n      genericDB.getUintStorage(CONTRACT_NAME_ENDOWMENT_DB, keccak256(abi.encodePacked(gameId, \"state\"))),\n      genericDB.getUintStorage(CONTRACT_NAME_ENDOWMENT_DB, keccak256(abi.encodePacked(gameId, \"claimTime\")))\n    );\n  }\n\n  function setHoneypotState( uint _gameId, uint state, uint256 claimTime) external {\n    genericDB.setUintStorage(CONTRACT_NAME_ENDOWMENT_DB, keccak256(abi.encodePacked(_gameId, \"state\")), state);\n    if (claimTime > 0){\n      genericDB.setUintStorage(CONTRACT_NAME_ENDOWMENT_DB, keccak256(abi.encodePacked(_gameId, \"claimTime\")), claimTime);\n    }\n    else{\n      genericDB.setUintStorage(CONTRACT_NAME_ENDOWMENT_DB, keccak256(abi.encodePacked(_gameId, \"claimTime\")), 0);\n    }\n  }\n\n\n  function getHoneypotTotal(uint _gameId) external view returns (uint256 totalEth, uint256 totalKty) {\n      totalEth = genericDB.getUintStorage(CONTRACT_NAME_ENDOWMENT_DB, keccak256(abi.encodePacked(_gameId, \"ethTotal\")));\n      totalKty = genericDB.getUintStorage(CONTRACT_NAME_ENDOWMENT_DB, keccak256(abi.encodePacked(_gameId, \"ktyTotal\")));\n  }\n\n  function dissolveHoneypot(\n    uint gameId,\n    uint state\n  )\n    external\n    onlyContract(CONTRACT_NAME_ENDOWMENT_FUND)\n    /*onlyExistingHoneypot(gameId)*/\n  {\n    uint256 claimTime = genericDB.getUintStorage(CONTRACT_NAME_ENDOWMENT_DB, keccak256(abi.encodePacked(gameId, \"claimTime\")));\n    require(claimTime > 0);\n    genericDB.setUintStorage(CONTRACT_NAME_ENDOWMENT_DB, keccak256(abi.encodePacked(gameId, \"state\")), state);\n    genericDB.setUintStorage(CONTRACT_NAME_ENDOWMENT_DB, keccak256(abi.encodePacked(gameId, \"claimTime\")), 0);\n    \n    genericDB.setUintStorage(CONTRACT_NAME_ENDOWMENT_DB, keccak256(abi.encodePacked(gameId, \"ktyTotal\")), 0);\n    genericDB.setUintStorage(CONTRACT_NAME_ENDOWMENT_DB, keccak256(abi.encodePacked(gameId, \"ethTotal\")), 0);\n\n  }\n\n  /**\n  * @dev check if enough funds present and maintains balance of tokens in DB\n  */\n  function generateHoneyPot(uint256 gameId)\n    external\n    onlyContract(CONTRACT_NAME_ENDOWMENT_FUND)\n    returns (uint, uint) {\n\n    (\n      uint ktyAllocated,\n      uint ethAllocated,\n      string memory honeypotClass\n    ) = HoneypotAllocationAlgo(proxy.getContract(CONTRACT_NAME_HONEYPOT_ALLOCATION_ALGO)).calculateAllocationToHoneypot();\n\n    // + adds amount to honeypot\n    createHoneypot(\n      gameId,\n      0,\n      now,\n      ktyAllocated,\n      ethAllocated,\n      honeypotClass\n    );\n\n    // deduct amount from endowment\n    require(_updateEndowmentFund(ktyAllocated, ethAllocated, true));\n\n    return (ktyAllocated, ethAllocated);\n  }\n\n/**\n * @dev store the total debit by an a/c per game\n */\n  function setTotalDebit(\n    uint _gameId, address _account, uint _eth_amount, uint _kty_amount\n  ) external\n    onlyContract(CONTRACT_NAME_ENDOWMENT_FUND)\n    onlyExistingHoneypot(_gameId)\n    returns (bool) {\n\n    if (_eth_amount > 0) {\n\n      bytes32 ethTotalDebitPerGamePerAcKey = keccak256(abi.encodePacked(_gameId, _account, \"ethDebit\"));\n      uint ethTotal = genericDB.getUintStorage(CONTRACT_NAME_ENDOWMENT_DB, ethTotalDebitPerGamePerAcKey);\n      genericDB.setUintStorage(CONTRACT_NAME_ENDOWMENT_DB, ethTotalDebitPerGamePerAcKey, ethTotal.add(_eth_amount));\n\n    }\n\n    if (_kty_amount > 0) {\n\n      bytes32 ktyTotalDebitPerGamePerAcKey = keccak256(abi.encodePacked(_gameId, _account, \"ktyDebit\"));\n      uint ktyTotal = genericDB.getUintStorage(CONTRACT_NAME_ENDOWMENT_DB, ktyTotalDebitPerGamePerAcKey);\n      genericDB.setUintStorage(CONTRACT_NAME_ENDOWMENT_DB, ktyTotalDebitPerGamePerAcKey, ktyTotal.add(_kty_amount));\n\n    }\n\n  return true;\n  }\n\n\n/**\n * @dev get total debit by an a/c per game\n */\n  function getTotalDebit(\n    uint _gameId, address _account\n  ) external view\n    onlyContract(CONTRACT_NAME_ENDOWMENT_FUND)\n    //onlyExistingProfile(_account)\n    onlyExistingHoneypot(_gameId)\n    returns (uint256 ethTotalDebit, uint256 ktyTotalDebit) {\n      bytes32 ethTotalDebitPerGamePerAcKey = keccak256(abi.encodePacked(_gameId, _account, \"ethDebit\"));\n      bytes32 ktyTotalDebitPerGamePerAcKey = keccak256(abi.encodePacked(_gameId, _account, \"ktyDebit\"));\n      ethTotalDebit = genericDB.getUintStorage(CONTRACT_NAME_ENDOWMENT_DB, ethTotalDebitPerGamePerAcKey);\n      ktyTotalDebit = genericDB.getUintStorage(CONTRACT_NAME_ENDOWMENT_DB, ktyTotalDebitPerGamePerAcKey);\n  }\n\n\n  modifier onlyExistingHoneypot(uint gameId) {\n    require(genericDB.doesNodeExist(CONTRACT_NAME_ENDOWMENT_DB, TABLE_KEY_HONEYPOT, gameId), ERROR_DOES_NOT_EXIST);\n    _;\n  }\n\n  modifier onlyExistingProfile(address account) {\n    require(genericDB.doesNodeAddrExist(CONTRACT_NAME_PROFILE_DB, TABLE_KEY_PROFILE, account), ERROR_NOT_REGISTERED);\n    _;\n  }\n}\n\n",
  "sourcePath": "/Users/ziweizhang/Desktop/EarningsTracker/alpha/contracts/modules/databases/EndowmentDB.sol",
  "compiler": {
    "name": "solc",
    "version": "0.5.17+commit.d19bba13.Emscripten.clang"
  },
  "schemaVersion": "3.0.23",
  "updatedAt": "2020-04-15T16:41:25.940Z",
  "networkType": "ethereum",
  "devdoc": {
    "methods": {
      "generateHoneyPot(uint256)": {
        "details": "check if enough funds present and maintains balance of tokens in DB"
      },
      "getTotalDebit(uint256,address)": {
        "details": "get total debit by an a/c per game"
      },
      "setTotalDebit(uint256,address,uint256,uint256)": {
        "details": "store the total debit by an a/c per game"
      }
    }
  },
  "userdoc": {
    "methods": {
      "setProxy(address)": {
        "notice": "Set/update address of Proxy contract"
      }
    }
  }
}