{
  "contractName": "EndowmentFund",
  "abi": [
    {
      "anonymous": false,
      "inputs": [
        {
          "indexed": false,
          "internalType": "address",
          "name": "sender",
          "type": "address"
        },
        {
          "indexed": false,
          "internalType": "uint256",
          "name": "ethAmount",
          "type": "uint256"
        },
        {
          "indexed": false,
          "internalType": "uint256",
          "name": "ktyAmount",
          "type": "uint256"
        },
        {
          "indexed": false,
          "internalType": "address",
          "name": "ktyReceiver",
          "type": "address"
        }
      ],
      "name": "EthSwappedforKTY",
      "type": "event"
    },
    {
      "anonymous": false,
      "inputs": [
        {
          "indexed": false,
          "internalType": "address",
          "name": "sender",
          "type": "address"
        },
        {
          "indexed": false,
          "internalType": "uint256",
          "name": "ethAmount",
          "type": "uint256"
        },
        {
          "indexed": false,
          "internalType": "address",
          "name": "receiver",
          "type": "address"
        }
      ],
      "name": "SentETHtoEscrow",
      "type": "event"
    },
    {
      "anonymous": false,
      "inputs": [
        {
          "indexed": false,
          "internalType": "address",
          "name": "sender",
          "type": "address"
        },
        {
          "indexed": false,
          "internalType": "uint256",
          "name": "ktyAmount",
          "type": "uint256"
        },
        {
          "indexed": false,
          "internalType": "address",
          "name": "receiver",
          "type": "address"
        }
      ],
      "name": "SentKTYtoEscrow",
      "type": "event"
    },
    {
      "anonymous": false,
      "inputs": [
        {
          "indexed": true,
          "internalType": "uint256",
          "name": "gameId",
          "type": "uint256"
        },
        {
          "indexed": true,
          "internalType": "address",
          "name": "winner",
          "type": "address"
        },
        {
          "indexed": false,
          "internalType": "uint256",
          "name": "ethAmount",
          "type": "uint256"
        },
        {
          "indexed": false,
          "internalType": "uint256",
          "name": "ktyAmount",
          "type": "uint256"
        },
        {
          "indexed": false,
          "internalType": "address",
          "name": "from",
          "type": "address"
        }
      ],
      "name": "WinnerClaimed",
      "type": "event"
    },
    {
      "constant": true,
      "inputs": [
        {
          "internalType": "uint256",
          "name": "gameId",
          "type": "uint256"
        },
        {
          "internalType": "address payable",
          "name": "claimer",
          "type": "address"
        },
        {
          "internalType": "address",
          "name": "winner",
          "type": "address"
        }
      ],
      "name": "checkWinnerCategory",
      "outputs": [
        {
          "internalType": "uint256",
          "name": "winningGroup",
          "type": "uint256"
        }
      ],
      "payable": false,
      "stateMutability": "view",
      "type": "function"
    },
    {
      "constant": true,
      "inputs": [],
      "name": "endowmentDB",
      "outputs": [
        {
          "internalType": "contract EndowmentDB",
          "name": "",
          "type": "address"
        }
      ],
      "payable": false,
      "stateMutability": "view",
      "type": "function"
    },
    {
      "constant": true,
      "inputs": [],
      "name": "escrow",
      "outputs": [
        {
          "internalType": "contract Escrow",
          "name": "",
          "type": "address"
        }
      ],
      "payable": false,
      "stateMutability": "view",
      "type": "function"
    },
    {
      "constant": true,
      "inputs": [],
      "name": "gameStore",
      "outputs": [
        {
          "internalType": "contract GameStore",
          "name": "",
          "type": "address"
        }
      ],
      "payable": false,
      "stateMutability": "view",
      "type": "function"
    },
    {
      "constant": true,
      "inputs": [],
      "name": "gameVarAndFee",
      "outputs": [
        {
          "internalType": "contract GameVarAndFee",
          "name": "",
          "type": "address"
        }
      ],
      "payable": false,
      "stateMutability": "view",
      "type": "function"
    },
    {
      "constant": true,
      "inputs": [
        {
          "internalType": "uint256",
          "name": "gameId",
          "type": "uint256"
        }
      ],
      "name": "getEndowmentShare",
      "outputs": [
        {
          "internalType": "uint256",
          "name": "winningsETH",
          "type": "uint256"
        },
        {
          "internalType": "uint256",
          "name": "winningsKTY",
          "type": "uint256"
        }
      ],
      "payable": false,
      "stateMutability": "view",
      "type": "function"
    },
    {
      "constant": true,
      "inputs": [
        {
          "internalType": "uint256",
          "name": "gameId",
          "type": "uint256"
        }
      ],
      "name": "getWinnerLoser",
      "outputs": [
        {
          "internalType": "address",
          "name": "winner",
          "type": "address"
        },
        {
          "internalType": "address",
          "name": "loser",
          "type": "address"
        },
        {
          "internalType": "uint256",
          "name": "totalBetsForLosingCorner",
          "type": "uint256"
        }
      ],
      "payable": false,
      "stateMutability": "view",
      "type": "function"
    },
    {
      "constant": true,
      "inputs": [
        {
          "internalType": "uint256",
          "name": "gameId",
          "type": "uint256"
        },
        {
          "internalType": "address payable",
          "name": "claimer",
          "type": "address"
        }
      ],
      "name": "getWinnerShare",
      "outputs": [
        {
          "internalType": "uint256",
          "name": "winningsETH",
          "type": "uint256"
        },
        {
          "internalType": "uint256",
          "name": "winningsKTY",
          "type": "uint256"
        }
      ],
      "payable": false,
      "stateMutability": "view",
      "type": "function"
    },
    {
      "constant": true,
      "inputs": [],
      "name": "gmGetterDB",
      "outputs": [
        {
          "internalType": "contract GMGetterDB",
          "name": "",
          "type": "address"
        }
      ],
      "payable": false,
      "stateMutability": "view",
      "type": "function"
    },
    {
      "constant": false,
      "inputs": [],
      "name": "initialize",
      "outputs": [],
      "payable": false,
      "stateMutability": "nonpayable",
      "type": "function"
    },
    {
      "constant": true,
      "inputs": [],
      "name": "kittieFightToken",
      "outputs": [
        {
          "internalType": "contract ERC20Standard",
          "name": "",
          "type": "address"
        }
      ],
      "payable": false,
      "stateMutability": "view",
      "type": "function"
    },
    {
      "constant": true,
      "inputs": [],
      "name": "owner",
      "outputs": [
        {
          "internalType": "address payable",
          "name": "",
          "type": "address"
        }
      ],
      "payable": false,
      "stateMutability": "view",
      "type": "function"
    },
    {
      "constant": true,
      "inputs": [],
      "name": "proxy",
      "outputs": [
        {
          "internalType": "contract ProxyBase",
          "name": "",
          "type": "address"
        }
      ],
      "payable": false,
      "stateMutability": "view",
      "type": "function"
    },
    {
      "constant": false,
      "inputs": [
        {
          "internalType": "contract ProxyBase",
          "name": "_proxy",
          "type": "address"
        }
      ],
      "name": "setProxy",
      "outputs": [],
      "payable": false,
      "stateMutability": "nonpayable",
      "type": "function"
    },
    {
      "constant": false,
      "inputs": [
        {
          "internalType": "address payable",
          "name": "newOwner",
          "type": "address"
        }
      ],
      "name": "transferOwnership",
      "outputs": [],
      "payable": false,
      "stateMutability": "nonpayable",
      "type": "function"
    },
    {
      "constant": false,
      "inputs": [
        {
          "internalType": "uint256",
          "name": "_gameId",
          "type": "uint256"
        }
      ],
      "name": "claim",
      "outputs": [],
      "payable": false,
      "stateMutability": "nonpayable",
      "type": "function"
    },
    {
      "constant": false,
      "inputs": [
        {
          "internalType": "address",
          "name": "user",
          "type": "address"
        }
      ],
      "name": "sendFinalizeRewards",
      "outputs": [
        {
          "internalType": "bool",
          "name": "",
          "type": "bool"
        }
      ],
      "payable": false,
      "stateMutability": "nonpayable",
      "type": "function"
    },
    {
      "constant": true,
      "inputs": [
        {
          "internalType": "uint256",
          "name": "_gameId",
          "type": "uint256"
        },
        {
          "internalType": "address",
          "name": "_account",
          "type": "address"
        }
      ],
      "name": "getWithdrawalState",
      "outputs": [
        {
          "internalType": "bool",
          "name": "",
          "type": "bool"
        }
      ],
      "payable": false,
      "stateMutability": "view",
      "type": "function"
    },
    {
      "constant": false,
      "inputs": [
        {
          "internalType": "uint256",
          "name": "_gameId",
          "type": "uint256"
        },
        {
          "internalType": "uint256",
          "name": "_state",
          "type": "uint256"
        }
      ],
      "name": "updateHoneyPotState",
      "outputs": [],
      "payable": false,
      "stateMutability": "nonpayable",
      "type": "function"
    },
    {
      "constant": false,
      "inputs": [
        {
          "internalType": "uint256",
          "name": "_kty_amount",
          "type": "uint256"
        }
      ],
      "name": "sendKTYtoEscrow",
      "outputs": [],
      "payable": false,
      "stateMutability": "nonpayable",
      "type": "function"
    },
    {
      "constant": false,
      "inputs": [],
      "name": "sendETHtoEscrow",
      "outputs": [],
      "payable": true,
      "stateMutability": "payable",
      "type": "function"
    },
    {
      "constant": false,
      "inputs": [
        {
          "internalType": "address",
          "name": "_sender",
          "type": "address"
        },
        {
          "internalType": "uint256",
          "name": "_ether_amount_swap",
          "type": "uint256"
        },
        {
          "internalType": "uint256",
          "name": "_kty_amount",
          "type": "uint256"
        }
      ],
      "name": "contributeKTY",
      "outputs": [
        {
          "internalType": "bool",
          "name": "",
          "type": "bool"
        }
      ],
      "payable": true,
      "stateMutability": "payable",
      "type": "function"
    },
    {
      "constant": false,
      "inputs": [
        {
          "internalType": "uint256",
          "name": "_gameId",
          "type": "uint256"
        }
      ],
      "name": "contributeETH",
      "outputs": [
        {
          "internalType": "bool",
          "name": "",
          "type": "bool"
        }
      ],
      "payable": true,
      "stateMutability": "payable",
      "type": "function"
    },
    {
      "constant": false,
      "inputs": [],
      "name": "contributeETH_Ethie",
      "outputs": [
        {
          "internalType": "bool",
          "name": "",
          "type": "bool"
        }
      ],
      "payable": true,
      "stateMutability": "payable",
      "type": "function"
    },
    {
      "constant": false,
      "inputs": [
        {
          "internalType": "address payable",
          "name": "_newOwner",
          "type": "address"
        }
      ],
      "name": "transferEscrowOwnership",
      "outputs": [],
      "payable": false,
      "stateMutability": "nonpayable",
      "type": "function"
    },
    {
      "constant": false,
      "inputs": [
        {
          "internalType": "address payable",
          "name": "_someAddress",
          "type": "address"
        },
        {
          "internalType": "uint256",
          "name": "_eth_amount",
          "type": "uint256"
        },
        {
          "internalType": "uint256",
          "name": "_pool_id",
          "type": "uint256"
        }
      ],
      "name": "transferETHfromEscrowWithdrawalPool",
      "outputs": [
        {
          "internalType": "bool",
          "name": "",
          "type": "bool"
        }
      ],
      "payable": false,
      "stateMutability": "nonpayable",
      "type": "function"
    },
    {
      "constant": false,
      "inputs": [
        {
          "internalType": "address payable",
          "name": "_someAddress",
          "type": "address"
        },
        {
          "internalType": "uint256",
          "name": "_eth_amount",
          "type": "uint256"
        },
        {
          "internalType": "bool",
          "name": "invested",
          "type": "bool"
        }
      ],
      "name": "transferETHfromEscrowEarningsTracker",
      "outputs": [
        {
          "internalType": "bool",
          "name": "",
          "type": "bool"
        }
      ],
      "payable": false,
      "stateMutability": "nonpayable",
      "type": "function"
    },
    {
      "constant": false,
      "inputs": [
        {
          "internalType": "uint256",
          "name": "gameId",
          "type": "uint256"
        },
        {
          "internalType": "address",
          "name": "loser",
          "type": "address"
        }
      ],
      "name": "addETHtoPool",
      "outputs": [],
      "payable": false,
      "stateMutability": "nonpayable",
      "type": "function"
    },
    {
      "constant": false,
      "inputs": [
        {
          "internalType": "contract Escrow",
          "name": "_newEscrow",
          "type": "address"
        }
      ],
      "name": "initUpgradeEscrow",
      "outputs": [],
      "payable": false,
      "stateMutability": "nonpayable",
      "type": "function"
    }
  ],
  "bytecode": "0x6080604052336000806101000a81548173ffffffffffffffffffffffffffffffffffffffff021916908373ffffffffffffffffffffffffffffffffffffffff16021790555061620c806100536000396000f3fe6080604052600436106101c25760003560e01c8063a3b3bd7b116100f7578063dd1ba84611610095578063ecbedebc11610064578063ecbedebc14610a86578063ed2f634314610af6578063f2fde38b14610b47578063ff8baff514610b98576101c2565b8063dd1ba8461461090a578063e0d8a1941461095b578063e2fdcc17146109d8578063ec55688914610a2f576101c2565b8063b3962bdc116100d1578063b3962bdc146107a3578063b49c0ebe146107e9578063ca2a188614610852578063d665a717146108c5576101c2565b8063a3b3bd7b1461069a578063adee6f2b146106f1578063b1be64691461074c576101c2565b80635e37283b116101645780638da5cb5b1161013e5780638da5cb5b146104fd57806397107d6d146105545780639ebf616a146105a55780639f39c1771461061b576101c2565b80635e37283b1461040057806363c0c46e1461048f5780638129fc1c146104e6576101c2565b806335dc0f5e116101a057806335dc0f5e146102af578063379607f5146102b9578063400cbf6d146102f45780635d06fc01146103a9576101c2565b8063168f1f57146101c75780631fc751801461020257806328d0ab5814610259575b600080fd5b3480156101d357600080fd5b50610200600480360360208110156101ea57600080fd5b8101908080359060200190929190505050610bba565b005b34801561020e57600080fd5b50610217610f3f565b604051808273ffffffffffffffffffffffffffffffffffffffff1673ffffffffffffffffffffffffffffffffffffffff16815260200191505060405180910390f35b34801561026557600080fd5b506102926004803603602081101561027c57600080fd5b8101908080359060200190929190505050610f65565b604051808381526020018281526020019250505060405180910390f35b6102b7611283565b005b3480156102c557600080fd5b506102f2600480360360208110156102dc57600080fd5b8101908080359060200190929190505050611525565b005b34801561030057600080fd5b5061032d6004803603602081101561031757600080fd5b8101908080359060200190929190505050611a7d565b604051808473ffffffffffffffffffffffffffffffffffffffff1673ffffffffffffffffffffffffffffffffffffffff1681526020018373ffffffffffffffffffffffffffffffffffffffff1673ffffffffffffffffffffffffffffffffffffffff168152602001828152602001935050505060405180910390f35b3480156103b557600080fd5b506103be611d1a565b604051808273ffffffffffffffffffffffffffffffffffffffff1673ffffffffffffffffffffffffffffffffffffffff16815260200191505060405180910390f35b34801561040c57600080fd5b506104796004803603606081101561042357600080fd5b8101908080359060200190929190803573ffffffffffffffffffffffffffffffffffffffff169060200190929190803573ffffffffffffffffffffffffffffffffffffffff169060200190929190505050611d40565b6040518082815260200191505060405180910390f35b34801561049b57600080fd5b506104a4611fc7565b604051808273ffffffffffffffffffffffffffffffffffffffff1673ffffffffffffffffffffffffffffffffffffffff16815260200191505060405180910390f35b3480156104f257600080fd5b506104fb611fed565b005b34801561050957600080fd5b50610512612994565b604051808273ffffffffffffffffffffffffffffffffffffffff1673ffffffffffffffffffffffffffffffffffffffff16815260200191505060405180910390f35b34801561056057600080fd5b506105a36004803603602081101561057757600080fd5b81019080803573ffffffffffffffffffffffffffffffffffffffff1690602001909291905050506129b9565b005b3480156105b157600080fd5b506105fe600480360360408110156105c857600080fd5b8101908080359060200190929190803573ffffffffffffffffffffffffffffffffffffffff169060200190929190505050612a53565b604051808381526020018281526020019250505060405180910390f35b34801561062757600080fd5b506106806004803603606081101561063e57600080fd5b81019080803573ffffffffffffffffffffffffffffffffffffffff16906020019092919080359060200190929190803515159060200190929190505050612d76565b604051808215151515815260200191505060405180910390f35b3480156106a657600080fd5b506106af612fa0565b604051808273ffffffffffffffffffffffffffffffffffffffff1673ffffffffffffffffffffffffffffffffffffffff16815260200191505060405180910390f35b3480156106fd57600080fd5b5061074a6004803603604081101561071457600080fd5b8101908080359060200190929190803573ffffffffffffffffffffffffffffffffffffffff169060200190929190505050612fc6565b005b34801561075857600080fd5b506107616132aa565b604051808273ffffffffffffffffffffffffffffffffffffffff1673ffffffffffffffffffffffffffffffffffffffff16815260200191505060405180910390f35b6107cf600480360360208110156107b957600080fd5b81019080803590602001909291905050506132d0565b604051808215151515815260200191505060405180910390f35b3480156107f557600080fd5b506108386004803603602081101561080c57600080fd5b81019080803573ffffffffffffffffffffffffffffffffffffffff169060200190929190505050613583565b604051808215151515815260200191505060405180910390f35b34801561085e57600080fd5b506108ab6004803603604081101561087557600080fd5b8101908080359060200190929190803573ffffffffffffffffffffffffffffffffffffffff1690602001909291905050506136d6565b604051808215151515815260200191505060405180910390f35b3480156108d157600080fd5b50610908600480360360408110156108e857600080fd5b8101908080359060200190929190803590602001909291905050506137e4565b005b34801561091657600080fd5b506109596004803603602081101561092d57600080fd5b81019080803573ffffffffffffffffffffffffffffffffffffffff169060200190929190505050613d39565b005b34801561096757600080fd5b506109be6004803603606081101561097e57600080fd5b81019080803573ffffffffffffffffffffffffffffffffffffffff1690602001909291908035906020019092919080359060200190929190505050614278565b604051808215151515815260200191505060405180910390f35b3480156109e457600080fd5b506109ed6143ba565b604051808273ffffffffffffffffffffffffffffffffffffffff1673ffffffffffffffffffffffffffffffffffffffff16815260200191505060405180910390f35b348015610a3b57600080fd5b50610a446143e0565b604051808273ffffffffffffffffffffffffffffffffffffffff1673ffffffffffffffffffffffffffffffffffffffff16815260200191505060405180910390f35b610adc60048036036060811015610a9c57600080fd5b81019080803573ffffffffffffffffffffffffffffffffffffffff1690602001909291908035906020019092919080359060200190929190505050614406565b604051808215151515815260200191505060405180910390f35b348015610b0257600080fd5b50610b4560048036036020811015610b1957600080fd5b81019080803573ffffffffffffffffffffffffffffffffffffffff1690602001909291905050506148f2565b005b348015610b5357600080fd5b50610b9660048036036020811015610b6a57600080fd5b81019080803573ffffffffffffffffffffffffffffffffffffffff169060200190929190505050614a95565b005b610ba0614b63565b604051808215151515815260200191505060405180910390f35b600073ffffffffffffffffffffffffffffffffffffffff163373ffffffffffffffffffffffffffffffffffffffff161415610bf157fe5b610c2f6040518060400160405280600b81526020017f73757065725f61646d696e000000000000000000000000000000000000000000815250614dd2565b610ca1576040517f08c379a00000000000000000000000000000000000000000000000000000000081526004018080602001828103825260108152602001807f4f6e6c792073757065722061646d696e0000000000000000000000000000000081525060200191505060405180910390fd5b60008111610cae57600080fd5b600560009054906101000a900473ffffffffffffffffffffffffffffffffffffffff1673ffffffffffffffffffffffffffffffffffffffff1663a9059cbb600760009054906101000a900473ffffffffffffffffffffffffffffffffffffffff16836040518363ffffffff1660e01b8152600401808373ffffffffffffffffffffffffffffffffffffffff1673ffffffffffffffffffffffffffffffffffffffff16815260200182815260200192505050602060405180830381600087803b158015610d7957600080fd5b505af1158015610d8d573d6000803e3d6000fd5b505050506040513d6020811015610da357600080fd5b810190808051906020019092919050505050600460009054906101000a900473ffffffffffffffffffffffffffffffffffffffff1673ffffffffffffffffffffffffffffffffffffffff1663712153b3826000806040518463ffffffff1660e01b815260040180848152602001838152602001821515151581526020019350505050602060405180830381600087803b158015610e3f57600080fd5b505af1158015610e53573d6000803e3d6000fd5b505050506040513d6020811015610e6957600080fd5b8101908080519060200190929190505050507f93f900af773d323023f0ecf99deb1a5466a3f2445cf9c74f969fe7734583392a3082600760009054906101000a900473ffffffffffffffffffffffffffffffffffffffff16604051808473ffffffffffffffffffffffffffffffffffffffff1673ffffffffffffffffffffffffffffffffffffffff1681526020018381526020018273ffffffffffffffffffffffffffffffffffffffff1673ffffffffffffffffffffffffffffffffffffffff168152602001935050505060405180910390a150565b600360009054906101000a900473ffffffffffffffffffffffffffffffffffffffff1681565b6000806000600360009054906101000a900473ffffffffffffffffffffffffffffffffffffffff1673ffffffffffffffffffffffffffffffffffffffff1663525a8e4e856040518263ffffffff1660e01b815260040180828152602001915050604080518083038186803b158015610fdc57600080fd5b505afa158015610ff0573d6000803e3d6000fd5b505050506040513d604081101561100657600080fd5b81019080805190602001909291908051906020019092919050505091505061102c616166565b600660009054906101000a900473ffffffffffffffffffffffffffffffffffffffff1673ffffffffffffffffffffffffffffffffffffffff16636991b5bf866040518263ffffffff1660e01b81526004018082815260200191505060a06040518083038186803b15801561109f57600080fd5b505afa1580156110b3573d6000803e3d6000fd5b505050506040513d601f19601f8201168201806040525060a08110156110d857600080fd5b810190809190505090506000600360009054906101000a900473ffffffffffffffffffffffffffffffffffffffff1673ffffffffffffffffffffffffffffffffffffffff1663589ac6a4876040518263ffffffff1660e01b8152600401808281526020019150506101006040518083038186803b15801561115857600080fd5b505afa15801561116c573d6000803e3d6000fd5b505050506040513d601f19601f8201168201806040525061010081101561119257600080fd5b81019080805190602001909291908051906020019092919080519060200190929190805190602001909291909190826040018051906020019092919080519060200190929190505050505050509250505060006111ee87611a7d565b9250505061123d61122e620f42406112208660046005811061120c57fe5b60200201518561504e90919063ffffffff16565b61508590919063ffffffff16565b8361509e90919063ffffffff16565b9550611278620f424061126a8560046005811061125657fe5b60200201518761504e90919063ffffffff16565b61508590919063ffffffff16565b945050505050915091565b6040518060400160405280600b81526020017f47616d654d616e616765720000000000000000000000000000000000000000008152506112c2816150ba565b611317576040517f08c379a000000000000000000000000000000000000000000000000000000000815260040180806020018281038252602d8152602001806161ab602d913960400191505060405180910390fd5b6000611321615305565b90506000341161133057600080fd5b600760009054906101000a900473ffffffffffffffffffffffffffffffffffffffff1673ffffffffffffffffffffffffffffffffffffffff166108fc349081150290604051600060405180830381858888f19350505050158015611398573d6000803e3d6000fd5b50600460009054906101000a900473ffffffffffffffffffffffffffffffffffffffff1673ffffffffffffffffffffffffffffffffffffffff1663712153b360003460006040518463ffffffff1660e01b815260040180848152602001838152602001821515151581526020019350505050602060405180830381600087803b15801561142457600080fd5b505af1158015611438573d6000803e3d6000fd5b505050506040513d602081101561144e57600080fd5b8101908080519060200190929190505050507f120bbc6058df2f75a9523df514b6e83e744fda1180dd8c135f2f5d0b1d15d2918134600760009054906101000a900473ffffffffffffffffffffffffffffffffffffffff16604051808473ffffffffffffffffffffffffffffffffffffffff1673ffffffffffffffffffffffffffffffffffffffff1681526020018381526020018273ffffffffffffffffffffffffffffffffffffffff1673ffffffffffffffffffffffffffffffffffffffff168152602001935050505060405180910390a15050565b61152d6153ba565b6000611537615305565b90506000600460009054906101000a900473ffffffffffffffffffffffffffffffffffffffff1673ffffffffffffffffffffffffffffffffffffffff16636933bbd7846040518263ffffffff1660e01b815260040180828152602001915050604080518083038186803b1580156115ad57600080fd5b505afa1580156115c1573d6000803e3d6000fd5b505050506040513d60408110156115d757600080fd5b810190808051906020019092919080519060200190929190505050509050806005600681111561160357fe5b1461160d57600080fd5b61161783836136d6565b1561162157600080fd5b60008061162e8585612a53565b91509150600460009054906101000a900473ffffffffffffffffffffffffffffffffffffffff1673ffffffffffffffffffffffffffffffffffffffff166350b1a7cd86838560016040518563ffffffff1660e01b81526004018085815260200184815260200183815260200182151515158152602001945050505050602060405180830381600087803b1580156116c457600080fd5b505af11580156116d8573d6000803e3d6000fd5b505050506040513d60208110156116ee57600080fd5b81019080805190602001909291905050505060008111156118d457600760009054906101000a900473ffffffffffffffffffffffffffffffffffffffff1673ffffffffffffffffffffffffffffffffffffffff1663430951bd85836040518363ffffffff1660e01b8152600401808373ffffffffffffffffffffffffffffffffffffffff1673ffffffffffffffffffffffffffffffffffffffff16815260200182815260200192505050602060405180830381600087803b1580156117b257600080fd5b505af11580156117c6573d6000803e3d6000fd5b505050506040513d60208110156117dc57600080fd5b810190808051906020019092919050505050600760009054906101000a900473ffffffffffffffffffffffffffffffffffffffff1673ffffffffffffffffffffffffffffffffffffffff16637b1a490985846040518363ffffffff1660e01b8152600401808373ffffffffffffffffffffffffffffffffffffffff1673ffffffffffffffffffffffffffffffffffffffff16815260200182815260200192505050602060405180830381600087803b15801561189757600080fd5b505af11580156118ab573d6000803e3d6000fd5b505050506040513d60208110156118c157600080fd5b8101908080519060200190929190505050505b600460009054906101000a900473ffffffffffffffffffffffffffffffffffffffff1673ffffffffffffffffffffffffffffffffffffffff16636213fc6d868685856040518563ffffffff1660e01b8152600401808581526020018473ffffffffffffffffffffffffffffffffffffffff1673ffffffffffffffffffffffffffffffffffffffff168152602001838152602001828152602001945050505050602060405180830381600087803b15801561198d57600080fd5b505af11580156119a1573d6000803e3d6000fd5b505050506040513d60208110156119b757600080fd5b8101908080519060200190929190505050508373ffffffffffffffffffffffffffffffffffffffff16857f7a334ae1c9e2881845e23ce092ac3f1ccf16297abd45c43af5b4e6d8520d1cc68484600760009054906101000a900473ffffffffffffffffffffffffffffffffffffffff16604051808481526020018381526020018273ffffffffffffffffffffffffffffffffffffffff1673ffffffffffffffffffffffffffffffffffffffff168152602001935050505060405180910390a35050505050565b6000806000600360009054906101000a900473ffffffffffffffffffffffffffffffffffffffff1673ffffffffffffffffffffffffffffffffffffffff16636b1426a4856040518263ffffffff1660e01b81526004018082815260200191505060606040518083038186803b158015611af557600080fd5b505afa158015611b09573d6000803e3d6000fd5b505050506040513d6060811015611b1f57600080fd5b8101908080519060200190929190805190602001909291908051906020019092919050505090505080935050600660009054906101000a900473ffffffffffffffffffffffffffffffffffffffff1673ffffffffffffffffffffffffffffffffffffffff166331fa706785856040518363ffffffff1660e01b8152600401808381526020018273ffffffffffffffffffffffffffffffffffffffff1673ffffffffffffffffffffffffffffffffffffffff1681526020019250505060206040518083038186803b158015611bf257600080fd5b505afa158015611c06573d6000803e3d6000fd5b505050506040513d6020811015611c1c57600080fd5b81019080805190602001909291905050509150600360009054906101000a900473ffffffffffffffffffffffffffffffffffffffff1673ffffffffffffffffffffffffffffffffffffffff1663bacf524e85846040518363ffffffff1660e01b8152600401808381526020018273ffffffffffffffffffffffffffffffffffffffff1673ffffffffffffffffffffffffffffffffffffffff1681526020019250505060206040518083038186803b158015611cd657600080fd5b505afa158015611cea573d6000803e3d6000fd5b505050506040513d6020811015611d0057600080fd5b810190808051906020019092919050505090509193909250565b600460009054906101000a900473ffffffffffffffffffffffffffffffffffffffff1681565b60008273ffffffffffffffffffffffffffffffffffffffff168273ffffffffffffffffffffffffffffffffffffffff161415611d7f5760009050611fc0565b8273ffffffffffffffffffffffffffffffffffffffff16600660009054906101000a900473ffffffffffffffffffffffffffffffffffffffff1673ffffffffffffffffffffffffffffffffffffffff166316805a2986856040518363ffffffff1660e01b8152600401808381526020018273ffffffffffffffffffffffffffffffffffffffff1673ffffffffffffffffffffffffffffffffffffffff1681526020019250505060206040518083038186803b158015611e3d57600080fd5b505afa158015611e51573d6000803e3d6000fd5b505050506040513d6020811015611e6757600080fd5b810190808051906020019092919050505073ffffffffffffffffffffffffffffffffffffffff161415611e9d5760019050611fc0565b8273ffffffffffffffffffffffffffffffffffffffff16600660009054906101000a900473ffffffffffffffffffffffffffffffffffffffff1673ffffffffffffffffffffffffffffffffffffffff16635f87206d86856040518363ffffffff1660e01b8152600401808381526020018273ffffffffffffffffffffffffffffffffffffffff1673ffffffffffffffffffffffffffffffffffffffff1681526020019250505060206040518083038186803b158015611f5b57600080fd5b505afa158015611f6f573d6000803e3d6000fd5b505050506040513d6020811015611f8557600080fd5b810190808051906020019092919050505073ffffffffffffffffffffffffffffffffffffffff161415611fbb5760029050611fc0565b600390505b9392505050565b600560009054906101000a900473ffffffffffffffffffffffffffffffffffffffff1681565b6000809054906101000a900473ffffffffffffffffffffffffffffffffffffffff1673ffffffffffffffffffffffffffffffffffffffff163373ffffffffffffffffffffffffffffffffffffffff161461204357fe5b600160009054906101000a900473ffffffffffffffffffffffffffffffffffffffff1673ffffffffffffffffffffffffffffffffffffffff1663358177736040518060400160405280600b81526020017f456e646f776d656e7444420000000000000000000000000000000000000000008152506040518263ffffffff1660e01b81526004018080602001828103825283818151815260200191508051906020019080838360005b838110156121065780820151818401526020810190506120eb565b50505050905090810190601f1680156121335780820380516001836020036101000a031916815260200191505b509250505060206040518083038186803b15801561215057600080fd5b505afa158015612164573d6000803e3d6000fd5b505050506040513d602081101561217a57600080fd5b8101908080519060200190929190505050600460006101000a81548173ffffffffffffffffffffffffffffffffffffffff021916908373ffffffffffffffffffffffffffffffffffffffff160217905550600160009054906101000a900473ffffffffffffffffffffffffffffffffffffffff1673ffffffffffffffffffffffffffffffffffffffff1663358177736040518060400160405280600d81526020017f47616d65566172416e64466565000000000000000000000000000000000000008152506040518263ffffffff1660e01b81526004018080602001828103825283818151815260200191508051906020019080838360005b8381101561228e578082015181840152602081019050612273565b50505050905090810190601f1680156122bb5780820380516001836020036101000a031916815260200191505b509250505060206040518083038186803b1580156122d857600080fd5b505afa1580156122ec573d6000803e3d6000fd5b505050506040513d602081101561230257600080fd5b8101908080519060200190929190505050600260006101000a81548173ffffffffffffffffffffffffffffffffffffffff021916908373ffffffffffffffffffffffffffffffffffffffff160217905550600160009054906101000a900473ffffffffffffffffffffffffffffffffffffffff1673ffffffffffffffffffffffffffffffffffffffff1663358177736040518060400160405280601081526020017f4b69747469654669676874546f6b656e000000000000000000000000000000008152506040518263ffffffff1660e01b81526004018080602001828103825283818151815260200191508051906020019080838360005b838110156124165780820151818401526020810190506123fb565b50505050905090810190601f1680156124435780820380516001836020036101000a031916815260200191505b509250505060206040518083038186803b15801561246057600080fd5b505afa158015612474573d6000803e3d6000fd5b505050506040513d602081101561248a57600080fd5b8101908080519060200190929190505050600560006101000a81548173ffffffffffffffffffffffffffffffffffffffff021916908373ffffffffffffffffffffffffffffffffffffffff160217905550600160009054906101000a900473ffffffffffffffffffffffffffffffffffffffff1673ffffffffffffffffffffffffffffffffffffffff1663358177736040518060400160405280600981526020017f47616d6553746f726500000000000000000000000000000000000000000000008152506040518263ffffffff1660e01b81526004018080602001828103825283818151815260200191508051906020019080838360005b8381101561259e578082015181840152602081019050612583565b50505050905090810190601f1680156125cb5780820380516001836020036101000a031916815260200191505b509250505060206040518083038186803b1580156125e857600080fd5b505afa1580156125fc573d6000803e3d6000fd5b505050506040513d602081101561261257600080fd5b8101908080519060200190929190505050600660006101000a81548173ffffffffffffffffffffffffffffffffffffffff021916908373ffffffffffffffffffffffffffffffffffffffff160217905550600160009054906101000a900473ffffffffffffffffffffffffffffffffffffffff1673ffffffffffffffffffffffffffffffffffffffff1663358177736040518060400160405280600a81526020017f474d4765747465724442000000000000000000000000000000000000000000008152506040518263ffffffff1660e01b81526004018080602001828103825283818151815260200191508051906020019080838360005b8381101561272657808201518184015260208101905061270b565b50505050905090810190601f1680156127535780820380516001836020036101000a031916815260200191505b509250505060206040518083038186803b15801561277057600080fd5b505afa158015612784573d6000803e3d6000fd5b505050506040513d602081101561279a57600080fd5b8101908080519060200190929190505050600360006101000a81548173ffffffffffffffffffffffffffffffffffffffff021916908373ffffffffffffffffffffffffffffffffffffffff160217905550600160009054906101000a900473ffffffffffffffffffffffffffffffffffffffff1673ffffffffffffffffffffffffffffffffffffffff1663358177736040518060400160405280601681526020017f486f6e6579706f74416c6c6f636174696f6e416c676f000000000000000000008152506040518263ffffffff1660e01b81526004018080602001828103825283818151815260200191508051906020019080838360005b838110156128ae578082015181840152602081019050612893565b50505050905090810190601f1680156128db5780820380516001836020036101000a031916815260200191505b509250505060206040518083038186803b1580156128f857600080fd5b505afa15801561290c573d6000803e3d6000fd5b505050506040513d602081101561292257600080fd5b810190808051906020019092919050505073ffffffffffffffffffffffffffffffffffffffff16638129fc1c6040518163ffffffff1660e01b8152600401600060405180830381600087803b15801561297a57600080fd5b505af115801561298e573d6000803e3d6000fd5b50505050565b6000809054906101000a900473ffffffffffffffffffffffffffffffffffffffff1681565b6000809054906101000a900473ffffffffffffffffffffffffffffffffffffffff1673ffffffffffffffffffffffffffffffffffffffff163373ffffffffffffffffffffffffffffffffffffffff1614612a0f57fe5b80600160006101000a81548173ffffffffffffffffffffffffffffffffffffffff021916908373ffffffffffffffffffffffffffffffffffffffff16021790555050565b600080600080612a6286611a7d565b9250509150600073ffffffffffffffffffffffffffffffffffffffff168273ffffffffffffffffffffffffffffffffffffffff161415612aa157600080fd5b600080600360009054906101000a900473ffffffffffffffffffffffffffffffffffffffff1673ffffffffffffffffffffffffffffffffffffffff16630b154c9689896040518363ffffffff1660e01b8152600401808381526020018273ffffffffffffffffffffffffffffffffffffffff1673ffffffffffffffffffffffffffffffffffffffff1681526020019250505060806040518083038186803b158015612b4b57600080fd5b505afa158015612b5f573d6000803e3d6000fd5b505050506040513d6080811015612b7557600080fd5b81019080805190602001909291908051906020019092919080519060200190929190805190602001909291905050505050915091508373ffffffffffffffffffffffffffffffffffffffff168773ffffffffffffffffffffffffffffffffffffffff1614158015612c1257508373ffffffffffffffffffffffffffffffffffffffff168173ffffffffffffffffffffffffffffffffffffffff1614155b15612c2d576000808191508090509550955050505050612d6f565b6000612c3a898987611d40565b90508473ffffffffffffffffffffffffffffffffffffffff168873ffffffffffffffffffffffffffffffffffffffff161415612d5557600360009054906101000a900473ffffffffffffffffffffffffffffffffffffffff1673ffffffffffffffffffffffffffffffffffffffff1663dd99717d8a8a6040518363ffffffff1660e01b8152600401808381526020018273ffffffffffffffffffffffffffffffffffffffff1673ffffffffffffffffffffffffffffffffffffffff1681526020019250505060206040518083038186803b158015612d1757600080fd5b505afa158015612d2b573d6000803e3d6000fd5b505050506040513d6020811015612d4157600080fd5b810190808051906020019092919050505092505b612d618482858c615544565b809750819850505050505050505b9250929050565b60006040518060400160405280600f81526020017f4561726e696e6773547261636b65720000000000000000000000000000000000815250612db7816150ba565b612e0c576040517f08c379a000000000000000000000000000000000000000000000000000000000815260040180806020018281038252602d8152602001806161ab602d913960400191505060405180910390fd5b82612f8857600460009054906101000a900473ffffffffffffffffffffffffffffffffffffffff1673ffffffffffffffffffffffffffffffffffffffff1663e7abb197856040518263ffffffff1660e01b815260040180828152602001915050600060405180830381600087803b158015612e8657600080fd5b505af1158015612e9a573d6000803e3d6000fd5b50505050600760009054906101000a900473ffffffffffffffffffffffffffffffffffffffff1673ffffffffffffffffffffffffffffffffffffffff16637b1a490986866040518363ffffffff1660e01b8152600401808373ffffffffffffffffffffffffffffffffffffffff1673ffffffffffffffffffffffffffffffffffffffff16815260200182815260200192505050602060405180830381600087803b158015612f4757600080fd5b505af1158015612f5b573d6000803e3d6000fd5b505050506040513d6020811015612f7157600080fd5b810190808051906020019092919050505050612f94565b612f928585615781565b505b60019150509392505050565b600260009054906101000a900473ffffffffffffffffffffffffffffffffffffffff1681565b6040518060400160405280600b81526020017f47616d654d616e61676572000000000000000000000000000000000000000000815250613005816150ba565b61305a576040517f08c379a000000000000000000000000000000000000000000000000000000000815260040180806020018281038252602d8152602001806161ab602d913960400191505060405180910390fd5b6000600360009054906101000a900473ffffffffffffffffffffffffffffffffffffffff1673ffffffffffffffffffffffffffffffffffffffff1663bacf524e85856040518363ffffffff1660e01b8152600401808381526020018273ffffffffffffffffffffffffffffffffffffffff1673ffffffffffffffffffffffffffffffffffffffff1681526020019250505060206040518083038186803b15801561310357600080fd5b505afa158015613117573d6000803e3d6000fd5b505050506040513d602081101561312d57600080fd5b81019080805190602001909291905050509050600061320c620f42406131fe600260009054906101000a900473ffffffffffffffffffffffffffffffffffffffff1673ffffffffffffffffffffffffffffffffffffffff1663aa7ed99b6040518163ffffffff1660e01b815260040160206040518083038186803b1580156131b457600080fd5b505afa1580156131c8573d6000803e3d6000fd5b505050506040513d60208110156131de57600080fd5b81019080805190602001909291905050508561504e90919063ffffffff16565b61508590919063ffffffff16565b9050600460009054906101000a900473ffffffffffffffffffffffffffffffffffffffff1673ffffffffffffffffffffffffffffffffffffffff1663fe4d076586836040518363ffffffff1660e01b81526004018083815260200182815260200192505050600060405180830381600087803b15801561328b57600080fd5b505af115801561329f573d6000803e3d6000fd5b505050505050505050565b600660009054906101000a900473ffffffffffffffffffffffffffffffffffffffff1681565b60006040518060400160405280600b81526020017f47616d654d616e61676572000000000000000000000000000000000000000000815250613311816150ba565b613366576040517f08c379a000000000000000000000000000000000000000000000000000000000815260040180806020018281038252602d8152602001806161ab602d913960400191505060405180910390fd5b6000613370615305565b90506000341161337f57600080fd5b600760009054906101000a900473ffffffffffffffffffffffffffffffffffffffff1673ffffffffffffffffffffffffffffffffffffffff166108fc349081150290604051600060405180830381858888f193505050501580156133e7573d6000803e3d6000fd5b50600460009054906101000a900473ffffffffffffffffffffffffffffffffffffffff1673ffffffffffffffffffffffffffffffffffffffff166350b1a7cd8560003460006040518563ffffffff1660e01b81526004018085815260200184815260200183815260200182151515158152602001945050505050602060405180830381600087803b15801561347b57600080fd5b505af115801561348f573d6000803e3d6000fd5b505050506040513d60208110156134a557600080fd5b8101908080519060200190929190505050507f120bbc6058df2f75a9523df514b6e83e744fda1180dd8c135f2f5d0b1d15d2918134600760009054906101000a900473ffffffffffffffffffffffffffffffffffffffff16604051808473ffffffffffffffffffffffffffffffffffffffff1673ffffffffffffffffffffffffffffffffffffffff1681526020018381526020018273ffffffffffffffffffffffffffffffffffffffff1673ffffffffffffffffffffffffffffffffffffffff168152602001935050505060405180910390a1600192505050919050565b60006040518060400160405280600b81526020017f47616d654d616e616765720000000000000000000000000000000000000000008152506135c4816150ba565b613619576040517f08c379a000000000000000000000000000000000000000000000000000000000815260040180806020018281038252602d8152602001806161ab602d913960400191505060405180910390fd5b6000600260009054906101000a900473ffffffffffffffffffffffffffffffffffffffff1673ffffffffffffffffffffffffffffffffffffffff1663d693a9896040518163ffffffff1660e01b815260040160206040518083038186803b15801561368357600080fd5b505afa158015613697573d6000803e3d6000fd5b505050506040513d60208110156136ad57600080fd5b810190808051906020019092919050505090506136ca8482615939565b50600192505050919050565b6000806000600460009054906101000a900473ffffffffffffffffffffffffffffffffffffffff1673ffffffffffffffffffffffffffffffffffffffff1663231eb69186866040518363ffffffff1660e01b8152600401808381526020018273ffffffffffffffffffffffffffffffffffffffff1673ffffffffffffffffffffffffffffffffffffffff16815260200192505050604080518083038186803b15801561378157600080fd5b505afa158015613795573d6000803e3d6000fd5b505050506040513d60408110156137ab57600080fd5b810190808051906020019092919080519060200190929190505050915091506000821180156137da5750600081115b9250505092915050565b6040518060400160405280600b81526020017f47616d654d616e61676572000000000000000000000000000000000000000000815250613823816150ba565b613878576040517f08c379a000000000000000000000000000000000000000000000000000000000815260040180806020018281038252602d8152602001806161ab602d913960400191505060405180910390fd5b60006005600681111561388757fe5b831415613a355760008061389a86610f65565b91509150600460009054906101000a900473ffffffffffffffffffffffffffffffffffffffff1673ffffffffffffffffffffffffffffffffffffffff1663712153b3828460006040518463ffffffff1660e01b815260040180848152602001838152602001821515151581526020019350505050602060405180830381600087803b15801561392857600080fd5b505af115801561393c573d6000803e3d6000fd5b505050506040513d602081101561395257600080fd5b810190808051906020019092919050505050600460009054906101000a900473ffffffffffffffffffffffffffffffffffffffff1673ffffffffffffffffffffffffffffffffffffffff166350b1a7cd87838560016040518563ffffffff1660e01b81526004018085815260200184815260200183815260200182151515158152602001945050505050602060405180830381600087803b1580156139f657600080fd5b505af1158015613a0a573d6000803e3d6000fd5b505050506040513d6020811015613a2057600080fd5b81019080805190602001909291905050505050505b60046006811115613a4257fe5b831415613c9e57600080600460009054906101000a900473ffffffffffffffffffffffffffffffffffffffff1673ffffffffffffffffffffffffffffffffffffffff16637cee0879876040518263ffffffff1660e01b815260040180828152602001915050604080518083038186803b158015613abe57600080fd5b505afa158015613ad2573d6000803e3d6000fd5b505050506040513d6040811015613ae857600080fd5b81019080805190602001909291908051906020019092919050505091509150600460009054906101000a900473ffffffffffffffffffffffffffffffffffffffff1673ffffffffffffffffffffffffffffffffffffffff1663712153b3828460006040518463ffffffff1660e01b815260040180848152602001838152602001821515151581526020019350505050602060405180830381600087803b158015613b9157600080fd5b505af1158015613ba5573d6000803e3d6000fd5b505050506040513d6020811015613bbb57600080fd5b810190808051906020019092919050505050600460009054906101000a900473ffffffffffffffffffffffffffffffffffffffff1673ffffffffffffffffffffffffffffffffffffffff166350b1a7cd87838560016040518563ffffffff1660e01b81526004018085815260200184815260200183815260200182151515158152602001945050505050602060405180830381600087803b158015613c5f57600080fd5b505af1158015613c73573d6000803e3d6000fd5b505050506040513d6020811015613c8957600080fd5b81019080805190602001909291905050505050505b600460009054906101000a900473ffffffffffffffffffffffffffffffffffffffff1673ffffffffffffffffffffffffffffffffffffffff1663996ab60a85856040518363ffffffff1660e01b81526004018083815260200182815260200192505050600060405180830381600087803b158015613d1b57600080fd5b505af1158015613d2f573d6000803e3d6000fd5b5050505050505050565b600073ffffffffffffffffffffffffffffffffffffffff163373ffffffffffffffffffffffffffffffffffffffff161415613d7057fe5b613dae6040518060400160405280600b81526020017f73757065725f61646d696e000000000000000000000000000000000000000000815250614dd2565b613e20576040517f08c379a00000000000000000000000000000000000000000000000000000000081526004018080602001828103825260108152602001807f4f6e6c792073757065722061646d696e0000000000000000000000000000000081525060200191505060405180910390fd5b8073ffffffffffffffffffffffffffffffffffffffff1663c4d66de8600560009054906101000a900473ffffffffffffffffffffffffffffffffffffffff166040518263ffffffff1660e01b8152600401808273ffffffffffffffffffffffffffffffffffffffff1673ffffffffffffffffffffffffffffffffffffffff168152602001915050600060405180830381600087803b158015613ec157600080fd5b505af1158015613ed5573d6000803e3d6000fd5b50505050600073ffffffffffffffffffffffffffffffffffffffff16600760009054906101000a900473ffffffffffffffffffffffffffffffffffffffff1673ffffffffffffffffffffffffffffffffffffffff161461423457600760009054906101000a900473ffffffffffffffffffffffffffffffffffffffff1673ffffffffffffffffffffffffffffffffffffffff16637b1a490982600760009054906101000a900473ffffffffffffffffffffffffffffffffffffffff1673ffffffffffffffffffffffffffffffffffffffff16316040518363ffffffff1660e01b8152600401808373ffffffffffffffffffffffffffffffffffffffff1673ffffffffffffffffffffffffffffffffffffffff16815260200182815260200192505050602060405180830381600087803b15801561401157600080fd5b505af1158015614025573d6000803e3d6000fd5b505050506040513d602081101561403b57600080fd5b8101908080519060200190929190505050506000600560009054906101000a900473ffffffffffffffffffffffffffffffffffffffff1673ffffffffffffffffffffffffffffffffffffffff166370a08231600760009054906101000a900473ffffffffffffffffffffffffffffffffffffffff166040518263ffffffff1660e01b8152600401808273ffffffffffffffffffffffffffffffffffffffff1673ffffffffffffffffffffffffffffffffffffffff16815260200191505060206040518083038186803b15801561411057600080fd5b505afa158015614124573d6000803e3d6000fd5b505050506040513d602081101561413a57600080fd5b81019080805190602001909291905050509050600760009054906101000a900473ffffffffffffffffffffffffffffffffffffffff1673ffffffffffffffffffffffffffffffffffffffff1663430951bd83836040518363ffffffff1660e01b8152600401808373ffffffffffffffffffffffffffffffffffffffff1673ffffffffffffffffffffffffffffffffffffffff16815260200182815260200192505050602060405180830381600087803b1580156141f657600080fd5b505af115801561420a573d6000803e3d6000fd5b505050506040513d602081101561422057600080fd5b810190808051906020019092919050505050505b80600760006101000a81548173ffffffffffffffffffffffffffffffffffffffff021916908373ffffffffffffffffffffffffffffffffffffffff16021790555050565b60006040518060400160405280600c81526020017f5769746864726177506f6f6c00000000000000000000000000000000000000008152506142b9816150ba565b61430e576040517f08c379a000000000000000000000000000000000000000000000000000000000815260040180806020018281038252602d8152602001806161ab602d913960400191505060405180910390fd5b600460009054906101000a900473ffffffffffffffffffffffffffffffffffffffff1673ffffffffffffffffffffffffffffffffffffffff1663292eff5b85856040518363ffffffff1660e01b81526004018083815260200182815260200192505050600060405180830381600087803b15801561438b57600080fd5b505af115801561439f573d6000803e3d6000fd5b505050506143ad8585615781565b5060019150509392505050565b600760009054906101000a900473ffffffffffffffffffffffffffffffffffffffff1681565b600160009054906101000a900473ffffffffffffffffffffffffffffffffffffffff1681565b60006040518060400160405280600c81526020017f47616d654372656174696f6e00000000000000000000000000000000000000008152506040518060400160405280600b81526020017f47616d654d616e616765720000000000000000000000000000000000000000008152506040518060400160405280600f81526020017f4561726e696e6773547261636b657200000000000000000000000000000000008152506144b3836150ba565b806144c357506144c2826150ba565b5b806144d357506144d2816150ba565b5b614528576040517f08c379a000000000000000000000000000000000000000000000000000000000815260040180806020018281038252602d8152602001806161ab602d913960400191505060405180910390fd5b600160009054906101000a900473ffffffffffffffffffffffffffffffffffffffff1673ffffffffffffffffffffffffffffffffffffffff1663358177736040518060400160405280601681526020017f486f6e6579706f74416c6c6f636174696f6e416c676f000000000000000000008152506040518263ffffffff1660e01b81526004018080602001828103825283818151815260200191508051906020019080838360005b838110156145eb5780820151818401526020810190506145d0565b50505050905090810190601f1680156146185780820380516001836020036101000a031916815260200191505b509250505060206040518083038186803b15801561463557600080fd5b505afa158015614649573d6000803e3d6000fd5b505050506040513d602081101561465f57600080fd5b810190808051906020019092919050505073ffffffffffffffffffffffffffffffffffffffff1663739e0e573488600760009054906101000a900473ffffffffffffffffffffffffffffffffffffffff166040518463ffffffff1660e01b8152600401808381526020018273ffffffffffffffffffffffffffffffffffffffff1673ffffffffffffffffffffffffffffffffffffffff168152602001925050506020604051808303818588803b15801561471857600080fd5b505af115801561472c573d6000803e3d6000fd5b50505050506040513d602081101561474357600080fd5b810190808051906020019092919050505050600460009054906101000a900473ffffffffffffffffffffffffffffffffffffffff1673ffffffffffffffffffffffffffffffffffffffff1663712153b3866000806040518463ffffffff1660e01b815260040180848152602001838152602001821515151581526020019350505050602060405180830381600087803b1580156147df57600080fd5b505af11580156147f3573d6000803e3d6000fd5b505050506040513d602081101561480957600080fd5b8101908080519060200190929190505050507fbb1e8c5849627b60cb1dd268ac7c3d00be637a7e49d0200e03dc746892294772873487600760009054906101000a900473ffffffffffffffffffffffffffffffffffffffff16604051808573ffffffffffffffffffffffffffffffffffffffff1673ffffffffffffffffffffffffffffffffffffffff1681526020018481526020018381526020018273ffffffffffffffffffffffffffffffffffffffff1673ffffffffffffffffffffffffffffffffffffffff16815260200194505050505060405180910390a1600193505050509392505050565b600073ffffffffffffffffffffffffffffffffffffffff163373ffffffffffffffffffffffffffffffffffffffff16141561492957fe5b6149676040518060400160405280600b81526020017f73757065725f61646d696e000000000000000000000000000000000000000000815250614dd2565b6149d9576040517f08c379a00000000000000000000000000000000000000000000000000000000081526004018080602001828103825260108152602001807f4f6e6c792073757065722061646d696e0000000000000000000000000000000081525060200191505060405180910390fd5b600760009054906101000a900473ffffffffffffffffffffffffffffffffffffffff1673ffffffffffffffffffffffffffffffffffffffff1663f2fde38b826040518263ffffffff1660e01b8152600401808273ffffffffffffffffffffffffffffffffffffffff1673ffffffffffffffffffffffffffffffffffffffff168152602001915050600060405180830381600087803b158015614a7a57600080fd5b505af1158015614a8e573d6000803e3d6000fd5b5050505050565b6000809054906101000a900473ffffffffffffffffffffffffffffffffffffffff1673ffffffffffffffffffffffffffffffffffffffff163373ffffffffffffffffffffffffffffffffffffffff1614614aeb57fe5b600073ffffffffffffffffffffffffffffffffffffffff168173ffffffffffffffffffffffffffffffffffffffff1614614b6057806000806101000a81548173ffffffffffffffffffffffffffffffffffffffff021916908373ffffffffffffffffffffffffffffffffffffffff1602179055505b50565b60006040518060400160405280600f81526020017f4561726e696e6773547261636b65720000000000000000000000000000000000815250614ba4816150ba565b614bf9576040517f08c379a000000000000000000000000000000000000000000000000000000000815260040180806020018281038252602d8152602001806161ab602d913960400191505060405180910390fd5b6000614c03615305565b905060003411614c1257600080fd5b600760009054906101000a900473ffffffffffffffffffffffffffffffffffffffff1673ffffffffffffffffffffffffffffffffffffffff166108fc349081150290604051600060405180830381858888f19350505050158015614c7a573d6000803e3d6000fd5b50600460009054906101000a900473ffffffffffffffffffffffffffffffffffffffff1673ffffffffffffffffffffffffffffffffffffffff1663ee700e78346040518263ffffffff1660e01b815260040180828152602001915050600060405180830381600087803b158015614cf057600080fd5b505af1158015614d04573d6000803e3d6000fd5b505050507f120bbc6058df2f75a9523df514b6e83e744fda1180dd8c135f2f5d0b1d15d2918134600760009054906101000a900473ffffffffffffffffffffffffffffffffffffffff16604051808473ffffffffffffffffffffffffffffffffffffffff1673ffffffffffffffffffffffffffffffffffffffff1681526020018381526020018273ffffffffffffffffffffffffffffffffffffffff1673ffffffffffffffffffffffffffffffffffffffff168152602001935050505060405180910390a160019250505090565b6000600160009054906101000a900473ffffffffffffffffffffffffffffffffffffffff1673ffffffffffffffffffffffffffffffffffffffff1663358177736040518060400160405280600681526020017f526f6c65444200000000000000000000000000000000000000000000000000008152506040518263ffffffff1660e01b81526004018080602001828103825283818151815260200191508051906020019080838360005b83811015614e97578082015181840152602081019050614e7c565b50505050905090810190601f168015614ec45780820380516001836020036101000a031916815260200191505b509250505060206040518083038186803b158015614ee157600080fd5b505afa158015614ef5573d6000803e3d6000fd5b505050506040513d6020811015614f0b57600080fd5b810190808051906020019092919050505073ffffffffffffffffffffffffffffffffffffffff16636c9cd09783614f40615305565b6040518363ffffffff1660e01b815260040180806020018373ffffffffffffffffffffffffffffffffffffffff1673ffffffffffffffffffffffffffffffffffffffff168152602001828103825284818151815260200191508051906020019080838360005b83811015614fc1578082015181840152602081019050614fa6565b50505050905090810190601f168015614fee5780820380516001836020036101000a031916815260200191505b50935050505060206040518083038186803b15801561500c57600080fd5b505afa158015615020573d6000803e3d6000fd5b505050506040513d602081101561503657600080fd5b81019080805190602001909291905050509050919050565b600080831415615061576000905061507f565b600082840290508284828161507257fe5b041461507a57fe5b809150505b92915050565b60008082848161509157fe5b0490508091505092915050565b6000808284019050838110156150b057fe5b8091505092915050565b60008073ffffffffffffffffffffffffffffffffffffffff16600160009054906101000a900473ffffffffffffffffffffffffffffffffffffffff1673ffffffffffffffffffffffffffffffffffffffff161415615180576040517f08c379a00000000000000000000000000000000000000000000000000000000081526004018080602001828103825260088152602001807f4e6f2050726f787900000000000000000000000000000000000000000000000081525060200191505060405180910390fd5b6000600160009054906101000a900473ffffffffffffffffffffffffffffffffffffffff1673ffffffffffffffffffffffffffffffffffffffff166335817773846040518263ffffffff1660e01b81526004018080602001828103825283818151815260200191508051906020019080838360005b838110156152105780820151818401526020810190506151f5565b50505050905090810190601f16801561523d5780820380516001836020036101000a031916815260200191505b509250505060206040518083038186803b15801561525a57600080fd5b505afa15801561526e573d6000803e3d6000fd5b505050506040513d602081101561528457600080fd5b81019080805190602001909291905050509050600073ffffffffffffffffffffffffffffffffffffffff168173ffffffffffffffffffffffffffffffffffffffff1614156152ce57fe5b8073ffffffffffffffffffffffffffffffffffffffff163373ffffffffffffffffffffffffffffffffffffffff1614915050919050565b6000600160009054906101000a900473ffffffffffffffffffffffffffffffffffffffff1673ffffffffffffffffffffffffffffffffffffffff163373ffffffffffffffffffffffffffffffffffffffff1614615364573390506153b7565b6000601436036000602052601481602c37602051915050600073ffffffffffffffffffffffffffffffffffffffff168173ffffffffffffffffffffffffffffffffffffffff1614156153b257fe5b809150505b90565b600073ffffffffffffffffffffffffffffffffffffffff16600160009054906101000a900473ffffffffffffffffffffffffffffffffffffffff1673ffffffffffffffffffffffffffffffffffffffff16141561547f576040517f08c379a00000000000000000000000000000000000000000000000000000000081526004018080602001828103825260088152602001807f4e6f2050726f787900000000000000000000000000000000000000000000000081525060200191505060405180910390fd5b600160009054906101000a900473ffffffffffffffffffffffffffffffffffffffff1673ffffffffffffffffffffffffffffffffffffffff163373ffffffffffffffffffffffffffffffffffffffff1614615542576040517f08c379a00000000000000000000000000000000000000000000000000000000081526004018080602001828103825260128152602001807f4f6e6c79207468726f7567682050726f7879000000000000000000000000000081525060200191505060405180910390fd5b565b60008061554f616166565b600660009054906101000a900473ffffffffffffffffffffffffffffffffffffffff1673ffffffffffffffffffffffffffffffffffffffff16636991b5bf856040518263ffffffff1660e01b81526004018082815260200191505060a06040518083038186803b1580156155c257600080fd5b505afa1580156155d6573d6000803e3d6000fd5b505050506040513d601f19601f8201168201806040525060a08110156155fb57600080fd5b810190809190505090506000600360009054906101000a900473ffffffffffffffffffffffffffffffffffffffff1673ffffffffffffffffffffffffffffffffffffffff1663525a8e4e866040518263ffffffff1660e01b815260040180828152602001915050604080518083038186803b15801561567957600080fd5b505afa15801561568d573d6000803e3d6000fd5b505050506040513d60408110156156a357600080fd5b81019080805190602001909291908051906020019092919050505091505060006156fb620f42406156ed858b600581106156d957fe5b60200201518c61504e90919063ffffffff16565b61508590919063ffffffff16565b90506000615737620f4240615729868c6005811061571557fe5b60200201518661504e90919063ffffffff16565b61508590919063ffffffff16565b9050600389141561575b5761574e81838a8a615af1565b9550955050505050615778565b61576e828961509e90919063ffffffff16565b8195509550505050505b94509492505050565b6000600760009054906101000a900473ffffffffffffffffffffffffffffffffffffffff1673ffffffffffffffffffffffffffffffffffffffff16637b1a490984846040518363ffffffff1660e01b8152600401808373ffffffffffffffffffffffffffffffffffffffff1673ffffffffffffffffffffffffffffffffffffffff16815260200182815260200192505050602060405180830381600087803b15801561582c57600080fd5b505af1158015615840573d6000803e3d6000fd5b505050506040513d602081101561585657600080fd5b810190808051906020019092919050505050600460009054906101000a900473ffffffffffffffffffffffffffffffffffffffff1673ffffffffffffffffffffffffffffffffffffffff1663712153b360008460016040518463ffffffff1660e01b815260040180848152602001838152602001821515151581526020019350505050602060405180830381600087803b1580156158f357600080fd5b505af1158015615907573d6000803e3d6000fd5b505050506040513d602081101561591d57600080fd5b8101908080519060200190929190505050506001905092915050565b6000600760009054906101000a900473ffffffffffffffffffffffffffffffffffffffff1673ffffffffffffffffffffffffffffffffffffffff1663430951bd84846040518363ffffffff1660e01b8152600401808373ffffffffffffffffffffffffffffffffffffffff1673ffffffffffffffffffffffffffffffffffffffff16815260200182815260200192505050602060405180830381600087803b1580156159e457600080fd5b505af11580156159f8573d6000803e3d6000fd5b505050506040513d6020811015615a0e57600080fd5b810190808051906020019092919050505050600460009054906101000a900473ffffffffffffffffffffffffffffffffffffffff1673ffffffffffffffffffffffffffffffffffffffff1663712153b383600060016040518463ffffffff1660e01b815260040180848152602001838152602001821515151581526020019350505050602060405180830381600087803b158015615aab57600080fd5b505af1158015615abf573d6000803e3d6000fd5b505050506040513d6020811015615ad557600080fd5b8101908080519060200190929190505050506001905092915050565b600080615afc616188565b600360009054906101000a900473ffffffffffffffffffffffffffffffffffffffff1673ffffffffffffffffffffffffffffffffffffffff16636b1426a4856040518263ffffffff1660e01b81526004018082815260200191505060606040518083038186803b158015615b6f57600080fd5b505afa158015615b83573d6000803e3d6000fd5b505050506040513d6060811015615b9957600080fd5b8101908080519060200190929190805190602001909291908051906020019092919050505083600060038110615bcb57fe5b6020020184600160038110615bdc57fe5b6020020185600260038110615bed57fe5b602002018373ffffffffffffffffffffffffffffffffffffffff1673ffffffffffffffffffffffffffffffffffffffff168152508373ffffffffffffffffffffffffffffffffffffffff1673ffffffffffffffffffffffffffffffffffffffff168152508373ffffffffffffffffffffffffffffffffffffffff1673ffffffffffffffffffffffffffffffffffffffff168152505050506000600360009054906101000a900473ffffffffffffffffffffffffffffffffffffffff1673ffffffffffffffffffffffffffffffffffffffff16630b154c968684600160038110615cd257fe5b60200201516040518363ffffffff1660e01b8152600401808381526020018273ffffffffffffffffffffffffffffffffffffffff1673ffffffffffffffffffffffffffffffffffffffff1681526020019250505060806040518083038186803b158015615d3e57600080fd5b505afa158015615d52573d6000803e3d6000fd5b505050506040513d6080811015615d6857600080fd5b810190808051906020019092919080519060200190929190805190602001909291908051906020019092919050505050505090506000600360009054906101000a900473ffffffffffffffffffffffffffffffffffffffff1673ffffffffffffffffffffffffffffffffffffffff16630b154c968785600260038110615dea57fe5b60200201516040518363ffffffff1660e01b8152600401808381526020018273ffffffffffffffffffffffffffffffffffffffff1673ffffffffffffffffffffffffffffffffffffffff1681526020019250505060806040518083038186803b158015615e5657600080fd5b505afa158015615e6a573d6000803e3d6000fd5b505050506040513d6080811015615e8057600080fd5b810190808051906020019092919080519060200190929190805190602001909291908051906020019092919050505050505090506000600360009054906101000a900473ffffffffffffffffffffffffffffffffffffffff1673ffffffffffffffffffffffffffffffffffffffff1663dd99717d8886600060038110615f0257fe5b60200201516040518363ffffffff1660e01b8152600401808381526020018273ffffffffffffffffffffffffffffffffffffffff1673ffffffffffffffffffffffffffffffffffffffff1681526020019250505060206040518083038186803b158015615f6e57600080fd5b505afa158015615f82573d6000803e3d6000fd5b505050506040513d6020811015615f9857600080fd5b810190808051906020019092919050505090506000600360009054906101000a900473ffffffffffffffffffffffffffffffffffffffff1673ffffffffffffffffffffffffffffffffffffffff1663bacf524e8987600060038110615ff957fe5b60200201516040518363ffffffff1660e01b8152600401808381526020018273ffffffffffffffffffffffffffffffffffffffff1673ffffffffffffffffffffffffffffffffffffffff1681526020019250505060206040518083038186803b15801561606557600080fd5b505afa158015616079573d6000803e3d6000fd5b505050506040513d602081101561608f57600080fd5b810190808051906020019092919050505090506160d9826160cb856160bd888661614f90919063ffffffff16565b61614f90919063ffffffff16565b61614f90919063ffffffff16565b9050616100816160f28b8d61504e90919063ffffffff16565b61508590919063ffffffff16565b9950616127816161198b8e61504e90919063ffffffff16565b61508590919063ffffffff16565b9a5061613c8a8a61509e90919063ffffffff16565b8b96509650505050505094509492505050565b60008282111561615b57fe5b818303905092915050565b6040518060a00160405280600590602082028038833980820191505090505090565b604051806060016040528060039060208202803883398082019150509050509056fe416363657373206973206f6e6c7920616c6c6f7765642066726f6d20737065636966696320636f6e7472616374a265627a7a7231582078705823086cf9edf0b8a57d0fb4e99db4b1ce3e919b65862079b1e808baeda864736f6c63430005110032",
  "source": "/**\r\n * @title EndowmentFund\r\n */\r\n//\r\n// This program is free software: you can redistribute it and/or modify\r\n// it under the terms of the GNU General Public License as published by\r\n// the Free Software Foundation, either version 3 of the License, or\r\n// (at your option) any later version.\r\n\r\n// This program is distributed in the hope that it will be useful,\r\n// but WITHOUT ANY WARRANTY; without even the implied warranty of\r\n// MERCHANTABILITY or FITNESS FOR A PARTICULAR PURPOSE.  See the\r\n// GNU General Public License for more details.\r\n\r\n// You should have received a copy of the GNU General Public License\r\n// along with this program.  If not, see <http://www.gnu.org/licenses/>.\r\n\r\npragma solidity ^0.5.5;\r\n\r\nimport \"../proxy/Proxied.sol\";\r\nimport \"../../authority/Guard.sol\";\r\nimport \"./Distribution.sol\";\r\n\r\n/**\r\n * @title EndowmentFund\r\n * @dev Responsible for : manage funds\r\n * @author @vikrammndal @wafflemakr @Xaleee @ziweidream\r\n */\r\n\r\ncontract EndowmentFund is Distribution, Guard {\r\n    using SafeMath for uint256;\r\n\r\n    Escrow public escrow;\r\n\r\n    event WinnerClaimed(uint indexed gameId, address indexed winner, uint256 ethAmount, uint256 ktyAmount, address from);\r\n    event SentKTYtoEscrow(address sender, uint256 ktyAmount, address receiver);\r\n    event SentETHtoEscrow(address sender, uint256 ethAmount, address receiver);\r\n    event EthSwappedforKTY(address sender, uint256 ethAmount, uint256 ktyAmount, address ktyReceiver);\r\n\r\n    enum HoneypotState {\r\n        created,\r\n        assigned,\r\n        gameScheduled,\r\n        gameStarted,\r\n        forefeited,\r\n        claiming,\r\n        dissolved\r\n    }\r\n\r\n    /**\r\n    * @dev winner claims\r\n    */\r\n    function claim(uint256 _gameId) external onlyProxy {\r\n        address payable msgSender = address(uint160(getOriginalSender()));\r\n\r\n        // Honeypot status\r\n        (uint status, /*uint256 claimTime*/) = endowmentDB.getHoneypotState(_gameId);\r\n\r\n        require(uint(HoneypotState.claiming) == status);\r\n\r\n        // require(now < claimTime, \"2\");\r\n\r\n        require(!getWithdrawalState(_gameId, msgSender));\r\n\r\n        (uint256 winningsETH, uint256 winningsKTY) = getWinnerShare(_gameId, msgSender);\r\n\r\n        // make sure enough funds in HoneyPot and update HoneyPot balance\r\n        endowmentDB.updateHoneyPotFund(_gameId, winningsKTY, winningsETH, true);\r\n\r\n        if (winningsKTY > 0){\r\n            // transfer the KTY\r\n            escrow.transferKTY(msgSender, winningsKTY);\r\n            // transfer the ETH\r\n            escrow.transferETH(msgSender, winningsETH);\r\n        }\r\n\r\n        // log tokens sent to an address\r\n        endowmentDB.setTotalDebit(_gameId, msgSender, winningsETH, winningsKTY);\r\n\r\n        emit WinnerClaimed(_gameId, msgSender, winningsETH, winningsKTY, address(escrow));\r\n    }\r\n\r\n    /**\r\n    * @dev send reward to the user that pressed finalize button\r\n    */\r\n    function sendFinalizeRewards(address user)\r\n        external\r\n        onlyContract(CONTRACT_NAME_GAMEMANAGER)\r\n        returns(bool)\r\n    {\r\n        uint256 reward = gameVarAndFee.getFinalizeRewards();\r\n        transferKTYfromEscrow(address(uint160(user)), reward);\r\n        return true;\r\n    }\r\n\r\n    function getWithdrawalState(uint _gameId, address _account) public view returns (bool) {\r\n        (uint256 totalETHdebited, uint256 totalKTYdebited) = endowmentDB.getTotalDebit(_gameId, _account);\r\n        return ((totalETHdebited > 0) && (totalKTYdebited > 0));\r\n    }\r\n\r\n    /**\r\n    * @dev updateHoneyPotState\r\n    */\r\n    function updateHoneyPotState(uint256 _gameId, uint _state) public onlyContract(CONTRACT_NAME_GAMEMANAGER) {\r\n        uint256 claimTime;\r\n        if (_state == uint(HoneypotState.claiming)){\r\n            //Send immediately initialEth+15%oflosing and 15%ofKTY to endowment\r\n            (uint256 winningsETH, uint256 winningsKTY) = getEndowmentShare(_gameId);\r\n            endowmentDB.updateEndowmentFund(winningsKTY, winningsETH, false);\r\n            endowmentDB.updateHoneyPotFund(_gameId, winningsKTY, winningsETH, true);\r\n        }\r\n        if(_state == uint(HoneypotState.forefeited)) {\r\n            (uint256 eth, uint256 kty) = endowmentDB.getHoneypotTotal(_gameId);\r\n            endowmentDB.updateEndowmentFund(kty, eth, false);\r\n            endowmentDB.updateHoneyPotFund(_gameId, kty, eth, true);\r\n        }\r\n        endowmentDB.setHoneypotState(_gameId, _state);\r\n    }\r\n\r\n    /**\r\n     * @dev Send KTY from EndowmentFund to Escrow\r\n     */\r\n    function sendKTYtoEscrow(uint256 _kty_amount)\r\n        external\r\n        onlySuperAdmin\r\n    {\r\n        require(_kty_amount > 0);\r\n\r\n        kittieFightToken.transfer(address(escrow), _kty_amount);\r\n\r\n        endowmentDB.updateEndowmentFund(_kty_amount, 0, false);\r\n\r\n        emit SentKTYtoEscrow(address(this), _kty_amount, address(escrow));\r\n    }\r\n\r\n    /**\r\n     * @dev Send eth to Escrow\r\n     */\r\n    function sendETHtoEscrow() external onlyContract(CONTRACT_NAME_GAMEMANAGER) payable {\r\n        address msgSender = getOriginalSender();\r\n\r\n        require(msg.value > 0);\r\n\r\n        address(escrow).transfer(msg.value);\r\n\r\n        endowmentDB.updateEndowmentFund(0, msg.value, false);\r\n\r\n        emit SentETHtoEscrow(msgSender, msg.value, address(escrow));\r\n    }\r\n\r\n    /**\r\n     * @dev accepts KTY. KTY is swapped in uniswap.\r\n     * @dev KTY is sent to escrow. Ether is sent to KTY-WETH pair contract by the user.\r\n     * @dev Escrow sends 2x of KTY received in swap to KTY-WETH pair contract to maintain the\r\n     *      original ether to KTY ratio.\r\n     */\r\n    function contributeKTY(address _sender, uint256 _ether_amount_swap, uint256 _kty_amount) external \r\n            only3Contracts(CONTRACT_NAME_GAMECREATION, CONTRACT_NAME_GAMEMANAGER, CONTRACT_NAME_EARNINGS_TRACKER) \r\n            payable returns(bool) {\r\n        HoneypotAllocationAlgo(proxy.getContract(CONTRACT_NAME_HONEYPOT_ALLOCATION_ALGO)).swapEtherForKTY.value(msg.value)(_ether_amount_swap, address(escrow));\r\n\r\n        endowmentDB.updateEndowmentFund(_kty_amount, 0, false);\r\n\r\n        emit EthSwappedforKTY(_sender, msg.value, _kty_amount, address(escrow));\r\n\r\n        return true;\r\n    }\r\n\r\n    /**\r\n     * @dev GM calls\r\n     */\r\n    function contributeETH(uint _gameId) external onlyContract(CONTRACT_NAME_GAMEMANAGER) payable returns(bool) {\r\n        // require(address(escrow) != address(0));\r\n        address msgSender = getOriginalSender();\r\n\r\n        require(msg.value > 0);\r\n\r\n        // transfer ETH to Escrow\r\n        address(escrow).transfer(msg.value);\r\n\r\n        endowmentDB.updateHoneyPotFund(_gameId, 0, msg.value, false);\r\n\r\n        emit SentETHtoEscrow(msgSender, msg.value, address(escrow));\r\n\r\n        return true;\r\n    }\r\n\r\n    function contributeETH_Ethie()\r\n    external\r\n    onlyContract(CONTRACT_NAME_EARNINGS_TRACKER)\r\n    payable\r\n    returns(bool)\r\n    {\r\n        // require(address(escrow) != address(0));\r\n        address msgSender = getOriginalSender();\r\n\r\n        require(msg.value > 0);\r\n\r\n        // transfer ETH to Escrow\r\n        address(escrow).transfer(msg.value);\r\n\r\n        endowmentDB.updateInvestment(msg.value);\r\n\r\n        emit SentETHtoEscrow(msgSender, msg.value, address(escrow));\r\n\r\n        return true;\r\n    }\r\n\r\n    /**\r\n    * @notice MUST BE DONE BEFORE UPGRADING ENDOWMENT AS IT IS THE OWNER\r\n    * @dev change Escrow contract owner before UPGRADING ENDOWMENT AS IT IS THE OWNER\r\n    */\r\n    function transferEscrowOwnership(address payable _newOwner) external onlySuperAdmin {\r\n        escrow.transferOwnership(_newOwner);\r\n    }\r\n\r\n    /**\r\n    * @dev transfer Escrow ETH funds\r\n    */\r\n    function transferETHfromEscrow(address payable _someAddress, uint256 _eth_amount)\r\n    private\r\n    returns(bool){\r\n        // require(address(_someAddress) != address(0));\r\n\r\n        // transfer the ETH\r\n        escrow.transferETH(_someAddress, _eth_amount);\r\n\r\n        // Update DB. true = deductFunds\r\n        endowmentDB.updateEndowmentFund(0, _eth_amount, true);\r\n\r\n        return true;\r\n    }\r\n\r\n    function transferETHfromEscrowWithdrawalPool(address payable _someAddress, uint256 _eth_amount, uint256 _pool_id)\r\n        public\r\n        onlyContract(CONTRACT_NAME_WITHDRAW_POOL)\r\n        returns(bool)\r\n    {\r\n        endowmentDB.subETHfromPool(_eth_amount, _pool_id);\r\n        transferETHfromEscrow(_someAddress, _eth_amount);\r\n        return true;\r\n    }\r\n\r\n    function transferETHfromEscrowEarningsTracker(address payable _someAddress, uint256 _eth_amount, bool invested)\r\n        public\r\n        onlyContract(CONTRACT_NAME_EARNINGS_TRACKER)\r\n        returns(bool)\r\n    {\r\n        if(!invested) {\r\n            endowmentDB.subInvestment(_eth_amount);\r\n            escrow.transferETH(_someAddress, _eth_amount);\r\n        }\r\n        else\r\n            transferETHfromEscrow(_someAddress, _eth_amount);\r\n        return true;\r\n    }\r\n\r\n    /**\r\n    * @dev transfer Escrow KFT funds\r\n    */\r\n    function transferKTYfromEscrow(address _someAddress, uint256 _kty_amount)\r\n    private\r\n    returns(bool){\r\n        // require(address(_someAddress) != address(0));\r\n\r\n        // transfer the KTY\r\n        escrow.transferKTY(_someAddress, _kty_amount);\r\n\r\n        // Update DB. true = deductFunds\r\n        endowmentDB.updateEndowmentFund(_kty_amount, 0, true);\r\n\r\n        return true;\r\n    }\r\n\r\n    function addETHtoPool(uint256 gameId, address loser)\r\n        external\r\n        onlyContract(CONTRACT_NAME_GAMEMANAGER)\r\n    {\r\n        uint256 totalEthForLoser = gmGetterDB.getTotalBet(gameId, loser);\r\n        uint256 ETHtoPool = totalEthForLoser.mul(gameVarAndFee.getPercentageForPool()).div(1000000);\r\n        endowmentDB.addETHtoPool(gameId, ETHtoPool);\r\n    }\r\n\r\n    /**\r\n    * @dev Initialize or Upgrade Escrow\r\n    * @notice BEFORE CALLING: Deploy escrow contract and set the owner as EndowmentFund contract\r\n    */\r\n    function initUpgradeEscrow(Escrow _newEscrow) external onlySuperAdmin{\r\n\r\n        // require(address(_newEscrow) != address(0));\r\n        _newEscrow.initialize(kittieFightToken);\r\n\r\n        // check ownership\r\n        // require(_newEscrow.owner() == address(this));\r\n\r\n        // KTY is set\r\n        // require(_newEscrow.getKTYaddress() != address(0));\r\n\r\n        if (address(escrow) != address(0)){ // Transfer if any funds\r\n\r\n            // transfer all the ETH\r\n            escrow.transferETH(address(_newEscrow), address(escrow).balance);\r\n\r\n            // transfer all the KTY\r\n            uint256 ktyBalance = kittieFightToken.balanceOf(address(escrow));\r\n            escrow.transferKTY(address(_newEscrow), ktyBalance);\r\n        }\r\n\r\n        escrow = _newEscrow;\r\n    }\r\n}\r\n",
  "sourcePath": "C:\\Users\\Alex\\Desktop\\MyProjects\\contracts\\contracts\\modules\\endowment\\EndowmentFund.sol",
  "compiler": {
    "name": "solc",
    "version": "0.5.17+commit.d19bba13.Emscripten.clang"
  },
  "schemaVersion": "3.0.11",
  "updatedAt": "2020-07-05T20:06:09.968Z",
  "devdoc": {
    "author": "@vikrammndal @wafflemakr @Xaleee @ziweidream",
    "details": "Responsible for : manage funds",
    "methods": {
      "claim(uint256)": {
        "details": "winner claims"
      },
      "contributeETH(uint256)": {
        "details": "GM calls"
      },
      "contributeKTY(address,uint256,uint256)": {
        "details": "accepts KTY. KTY is swapped in uniswap.KTY is sent to escrow. Ether is sent to KTY-WETH pair contract by the user.Escrow sends 2x of KTY received in swap to KTY-WETH pair contract to maintain the     original ether to KTY ratio."
      },
      "initUpgradeEscrow(address)": {
        "details": "Initialize or Upgrade Escrow"
      },
      "initialize()": {
        "details": "Sets related contractsCan be called only by the owner of this contract"
      },
      "sendETHtoEscrow()": {
        "details": "Send eth to Escrow"
      },
      "sendFinalizeRewards(address)": {
        "details": "send reward to the user that pressed finalize button"
      },
      "sendKTYtoEscrow(uint256)": {
        "details": "Send KTY from EndowmentFund to Escrow"
      },
      "transferEscrowOwnership(address)": {
        "details": "change Escrow contract owner before UPGRADING ENDOWMENT AS IT IS THE OWNER"
      },
      "updateHoneyPotState(uint256,uint256)": {
        "details": "updateHoneyPotState"
      }
    },
    "title": "EndowmentFund"
  },
  "userdoc": {
    "methods": {
      "getWinnerShare(uint256,address)": {
        "notice": "Calculates amount of Eth the winner can claim"
      },
      "initUpgradeEscrow(address)": {
        "notice": "BEFORE CALLING: Deploy escrow contract and set the owner as EndowmentFund contract"
      },
      "setProxy(address)": {
        "notice": "Set/update address of Proxy contract"
      },
      "transferEscrowOwnership(address)": {
        "notice": "MUST BE DONE BEFORE UPGRADING ENDOWMENT AS IT IS THE OWNER"
      }
    }
  }
}