{
  "contractName": "EndowmentFund",
  "abi": [
    {
      "anonymous": false,
      "inputs": [
        {
          "indexed": false,
          "internalType": "uint256",
          "name": "scheduledJob",
          "type": "uint256"
        },
        {
          "indexed": false,
          "internalType": "uint256",
          "name": "time",
          "type": "uint256"
        },
        {
          "indexed": false,
          "internalType": "uint256",
          "name": "gameId",
          "type": "uint256"
        }
      ],
      "name": "Scheduled",
      "type": "event"
    },
    {
      "anonymous": false,
      "inputs": [
        {
          "indexed": false,
          "internalType": "address",
          "name": "sender",
          "type": "address"
        },
        {
          "indexed": false,
          "internalType": "uint256",
          "name": "ethAmount",
          "type": "uint256"
        },
        {
          "indexed": false,
          "internalType": "address",
          "name": "receiver",
          "type": "address"
        }
      ],
      "name": "SentETHtoEscrow",
      "type": "event"
    },
    {
      "anonymous": false,
      "inputs": [
        {
          "indexed": false,
          "internalType": "address",
          "name": "sender",
          "type": "address"
        },
        {
          "indexed": false,
          "internalType": "uint256",
          "name": "ktyAmount",
          "type": "uint256"
        },
        {
          "indexed": false,
          "internalType": "address",
          "name": "receiver",
          "type": "address"
        }
      ],
      "name": "SentKTYtoEscrow",
      "type": "event"
    },
    {
      "anonymous": false,
      "inputs": [
        {
          "indexed": true,
          "internalType": "uint256",
          "name": "gameId",
          "type": "uint256"
        },
        {
          "indexed": true,
          "internalType": "address",
          "name": "winner",
          "type": "address"
        },
        {
          "indexed": false,
          "internalType": "uint256",
          "name": "ethAmount",
          "type": "uint256"
        },
        {
          "indexed": false,
          "internalType": "uint256",
          "name": "ktyAmount",
          "type": "uint256"
        },
        {
          "indexed": false,
          "internalType": "address",
          "name": "from",
          "type": "address"
        }
      ],
      "name": "WinnerClaimed",
      "type": "event"
    },
    {
      "constant": true,
      "inputs": [
        {
          "internalType": "uint256",
          "name": "gameId",
          "type": "uint256"
        },
        {
          "internalType": "address payable",
          "name": "claimer",
          "type": "address"
        },
        {
          "internalType": "address",
          "name": "winner",
          "type": "address"
        }
      ],
      "name": "checkWinnerCategory",
      "outputs": [
        {
          "internalType": "uint256",
          "name": "winningGroup",
          "type": "uint256"
        }
      ],
      "payable": false,
      "stateMutability": "view",
      "type": "function"
    },
    {
      "constant": true,
      "inputs": [],
      "name": "endowmentDB",
      "outputs": [
        {
          "internalType": "contract EndowmentDB",
          "name": "",
          "type": "address"
        }
      ],
      "payable": false,
      "stateMutability": "view",
      "type": "function"
    },
    {
      "constant": true,
      "inputs": [],
      "name": "escrow",
      "outputs": [
        {
          "internalType": "contract Escrow",
          "name": "",
          "type": "address"
        }
      ],
      "payable": false,
      "stateMutability": "view",
      "type": "function"
    },
    {
      "constant": true,
      "inputs": [],
      "name": "gameStore",
      "outputs": [
        {
          "internalType": "contract GameStore",
          "name": "",
          "type": "address"
        }
      ],
      "payable": false,
      "stateMutability": "view",
      "type": "function"
    },
    {
      "constant": true,
      "inputs": [],
      "name": "gameVarAndFee",
      "outputs": [
        {
          "internalType": "contract GameVarAndFee",
          "name": "",
          "type": "address"
        }
      ],
      "payable": false,
      "stateMutability": "view",
      "type": "function"
    },
    {
      "constant": true,
      "inputs": [
        {
          "internalType": "uint256",
          "name": "gameId",
          "type": "uint256"
        }
      ],
      "name": "getEndowmentShare",
      "outputs": [
        {
          "internalType": "uint256",
          "name": "winningsETH",
          "type": "uint256"
        },
        {
          "internalType": "uint256",
          "name": "winningsKTY",
          "type": "uint256"
        }
      ],
      "payable": false,
      "stateMutability": "view",
      "type": "function"
    },
    {
      "constant": true,
      "inputs": [
        {
          "internalType": "uint256",
          "name": "gameId",
          "type": "uint256"
        }
      ],
      "name": "getWinnerLoser",
      "outputs": [
        {
          "internalType": "address",
          "name": "winner",
          "type": "address"
        },
        {
          "internalType": "address",
          "name": "loser",
          "type": "address"
        },
        {
          "internalType": "uint256",
          "name": "totalBetsForLosingCorner",
          "type": "uint256"
        }
      ],
      "payable": false,
      "stateMutability": "view",
      "type": "function"
    },
    {
      "constant": true,
      "inputs": [
        {
          "internalType": "uint256",
          "name": "gameId",
          "type": "uint256"
        },
        {
          "internalType": "address payable",
          "name": "claimer",
          "type": "address"
        }
      ],
      "name": "getWinnerShare",
      "outputs": [
        {
          "internalType": "uint256",
          "name": "winningsETH",
          "type": "uint256"
        },
        {
          "internalType": "uint256",
          "name": "winningsKTY",
          "type": "uint256"
        }
      ],
      "payable": false,
      "stateMutability": "view",
      "type": "function"
    },
    {
      "constant": true,
      "inputs": [],
      "name": "gmGetterDB",
      "outputs": [
        {
          "internalType": "contract GMGetterDB",
          "name": "",
          "type": "address"
        }
      ],
      "payable": false,
      "stateMutability": "view",
      "type": "function"
    },
    {
      "constant": false,
      "inputs": [],
      "name": "initialize",
      "outputs": [],
      "payable": false,
      "stateMutability": "nonpayable",
      "type": "function"
    },
    {
      "constant": true,
      "inputs": [],
      "name": "kittieFightToken",
      "outputs": [
        {
          "internalType": "contract ERC20Standard",
          "name": "",
          "type": "address"
        }
      ],
      "payable": false,
      "stateMutability": "view",
      "type": "function"
    },
    {
      "constant": true,
      "inputs": [],
      "name": "owner",
      "outputs": [
        {
          "internalType": "address payable",
          "name": "",
          "type": "address"
        }
      ],
      "payable": false,
      "stateMutability": "view",
      "type": "function"
    },
    {
      "constant": true,
      "inputs": [],
      "name": "potRequestCount",
      "outputs": [
        {
          "internalType": "uint256",
          "name": "",
          "type": "uint256"
        }
      ],
      "payable": false,
      "stateMutability": "view",
      "type": "function"
    },
    {
      "constant": true,
      "inputs": [],
      "name": "proxy",
      "outputs": [
        {
          "internalType": "contract ProxyBase",
          "name": "",
          "type": "address"
        }
      ],
      "payable": false,
      "stateMutability": "view",
      "type": "function"
    },
    {
      "constant": true,
      "inputs": [
        {
          "internalType": "uint256",
          "name": "",
          "type": "uint256"
        }
      ],
      "name": "scheduledJobs",
      "outputs": [
        {
          "internalType": "uint256",
          "name": "",
          "type": "uint256"
        }
      ],
      "payable": false,
      "stateMutability": "view",
      "type": "function"
    },
    {
      "constant": false,
      "inputs": [
        {
          "internalType": "contract ProxyBase",
          "name": "_proxy",
          "type": "address"
        }
      ],
      "name": "setProxy",
      "outputs": [],
      "payable": false,
      "stateMutability": "nonpayable",
      "type": "function"
    },
    {
      "constant": false,
      "inputs": [
        {
          "internalType": "address payable",
          "name": "newOwner",
          "type": "address"
        }
      ],
      "name": "transferOwnership",
      "outputs": [],
      "payable": false,
      "stateMutability": "nonpayable",
      "type": "function"
    },
    {
      "constant": false,
      "inputs": [
        {
          "internalType": "uint256",
          "name": "gameId",
          "type": "uint256"
        }
      ],
      "name": "generateHoneyPot",
      "outputs": [
        {
          "internalType": "uint256",
          "name": "",
          "type": "uint256"
        },
        {
          "internalType": "uint256",
          "name": "",
          "type": "uint256"
        }
      ],
      "payable": false,
      "stateMutability": "nonpayable",
      "type": "function"
    },
    {
      "constant": false,
      "inputs": [
        {
          "internalType": "uint256",
          "name": "_gameId",
          "type": "uint256"
        }
      ],
      "name": "claim",
      "outputs": [],
      "payable": true,
      "stateMutability": "payable",
      "type": "function"
    },
    {
      "constant": false,
      "inputs": [
        {
          "internalType": "address",
          "name": "user",
          "type": "address"
        }
      ],
      "name": "sendFinalizeRewards",
      "outputs": [
        {
          "internalType": "bool",
          "name": "",
          "type": "bool"
        }
      ],
      "payable": false,
      "stateMutability": "nonpayable",
      "type": "function"
    },
    {
      "constant": true,
      "inputs": [
        {
          "internalType": "uint256",
          "name": "_gameId",
          "type": "uint256"
        },
        {
          "internalType": "address",
          "name": "_account",
          "type": "address"
        }
      ],
      "name": "getWithdrawalState",
      "outputs": [
        {
          "internalType": "bool",
          "name": "",
          "type": "bool"
        }
      ],
      "payable": false,
      "stateMutability": "view",
      "type": "function"
    },
    {
      "constant": false,
      "inputs": [
        {
          "internalType": "uint256",
          "name": "_gameId",
          "type": "uint256"
        },
        {
          "internalType": "uint256",
          "name": "_state",
          "type": "uint256"
        }
      ],
      "name": "updateHoneyPotState",
      "outputs": [],
      "payable": false,
      "stateMutability": "nonpayable",
      "type": "function"
    },
    {
      "constant": false,
      "inputs": [
        {
          "internalType": "uint256",
          "name": "_gameId",
          "type": "uint256"
        }
      ],
      "name": "deleteCronJob",
      "outputs": [],
      "payable": false,
      "stateMutability": "nonpayable",
      "type": "function"
    },
    {
      "constant": false,
      "inputs": [
        {
          "internalType": "uint256",
          "name": "_gameId",
          "type": "uint256"
        }
      ],
      "name": "scheduleDissolve",
      "outputs": [],
      "payable": false,
      "stateMutability": "nonpayable",
      "type": "function"
    },
    {
      "constant": false,
      "inputs": [
        {
          "internalType": "uint256",
          "name": "_kty_amount",
          "type": "uint256"
        }
      ],
      "name": "sendKTYtoEscrow",
      "outputs": [],
      "payable": false,
      "stateMutability": "nonpayable",
      "type": "function"
    },
    {
      "constant": false,
      "inputs": [],
      "name": "sendETHtoEscrow",
      "outputs": [],
      "payable": true,
      "stateMutability": "payable",
      "type": "function"
    },
    {
      "constant": false,
      "inputs": [
        {
          "internalType": "address",
          "name": "_sender",
          "type": "address"
        },
        {
          "internalType": "uint256",
          "name": "_kty_amount",
          "type": "uint256"
        }
      ],
      "name": "contributeKTY",
      "outputs": [
        {
          "internalType": "bool",
          "name": "",
          "type": "bool"
        }
      ],
      "payable": false,
      "stateMutability": "nonpayable",
      "type": "function"
    },
    {
      "constant": false,
      "inputs": [
        {
          "internalType": "uint256",
          "name": "_gameId",
          "type": "uint256"
        }
      ],
      "name": "contributeETH",
      "outputs": [
        {
          "internalType": "bool",
          "name": "",
          "type": "bool"
        }
      ],
      "payable": true,
      "stateMutability": "payable",
      "type": "function"
    },
    {
      "constant": false,
      "inputs": [],
      "name": "contributeETH_Ethie",
      "outputs": [
        {
          "internalType": "bool",
          "name": "",
          "type": "bool"
        }
      ],
      "payable": true,
      "stateMutability": "payable",
      "type": "function"
    },
    {
      "constant": false,
      "inputs": [
        {
          "internalType": "address payable",
          "name": "_newOwner",
          "type": "address"
        }
      ],
      "name": "transferEscrowOwnership",
      "outputs": [],
      "payable": false,
      "stateMutability": "nonpayable",
      "type": "function"
    },
    {
      "constant": false,
      "inputs": [
        {
          "internalType": "address payable",
          "name": "_someAddress",
          "type": "address"
        },
        {
          "internalType": "uint256",
          "name": "_eth_amount",
          "type": "uint256"
        }
      ],
      "name": "transferETHfromEscrowWithdrawalPool",
      "outputs": [
        {
          "internalType": "bool",
          "name": "",
          "type": "bool"
        }
      ],
      "payable": false,
      "stateMutability": "nonpayable",
      "type": "function"
    },
    {
      "constant": false,
      "inputs": [
        {
          "internalType": "address payable",
          "name": "_someAddress",
          "type": "address"
        },
        {
          "internalType": "uint256",
          "name": "_eth_amount",
          "type": "uint256"
        }
      ],
      "name": "transferETHfromEscrowEarningsTracker",
      "outputs": [
        {
          "internalType": "bool",
          "name": "",
          "type": "bool"
        }
      ],
      "payable": false,
      "stateMutability": "nonpayable",
      "type": "function"
    },
    {
      "constant": false,
      "inputs": [
        {
          "internalType": "contract Escrow",
          "name": "_newEscrow",
          "type": "address"
        }
      ],
      "name": "initUpgradeEscrow",
      "outputs": [
        {
          "internalType": "bool",
          "name": "",
          "type": "bool"
        }
      ],
      "payable": false,
      "stateMutability": "nonpayable",
      "type": "function"
    },
    {
      "constant": true,
      "inputs": [],
      "name": "isEndowmentUpgradabe",
      "outputs": [
        {
          "internalType": "bool",
          "name": "",
          "type": "bool"
        }
      ],
      "payable": false,
      "stateMutability": "view",
      "type": "function"
    }
  ],
  "bytecode": "0x6080604052336000806101000a81548173ffffffffffffffffffffffffffffffffffffffff021916908373ffffffffffffffffffffffffffffffffffffffff160217905550616167806100536000396000f3fe6080604052600436106101f95760003560e01c80639ebf616a1161010d578063dd1ba846116100a0578063ed2f63431161006f578063ed2f634314610b76578063f1d4be1014610bc7578063f2fde38b14610c1d578063ff622bda14610c6e578063ff8baff514610ce1576101f9565b8063dd1ba84614610a24578063e2fdcc1714610a8d578063ea87605b14610ae4578063ec55688914610b1f576101f9565b8063b3962bdc116100dc578063b3962bdc146108bd578063b49c0ebe14610903578063ca2a18861461096c578063d665a717146109df576101f9565b80639ebf616a1461076e5780639f2bba7e146107e4578063a3b3bd7b1461080f578063b1be646914610866576101f9565b806342db15891161019057806363c0c46e1161015f57806363c0c46e1461061d57806375899135146106745780638129fc1c146106af5780638da5cb5b146106c657806397107d6d1461071d576101f9565b806342db1589146104755780635d06fc01146104e85780635e37283b1461053f5780635fe4d4f6146105ce576101f9565b806335dc0f5e116101cc57806335dc0f5e14610359578063379607f514610363578063392d5a0014610391578063400cbf6d146103c0576101f9565b8063168f1f57146101fe57806318abc668146102395780631fc75180146102ac57806328d0ab5814610303575b600080fd5b34801561020a57600080fd5b506102376004803603602081101561022157600080fd5b8101908080359060200190929190505050610d03565b005b34801561024557600080fd5b506102926004803603604081101561025c57600080fd5b81019080803573ffffffffffffffffffffffffffffffffffffffff16906020019092919080359060200190929190505050611098565b604051808215151515815260200191505060405180910390f35b3480156102b857600080fd5b506102c16110ef565b604051808273ffffffffffffffffffffffffffffffffffffffff1673ffffffffffffffffffffffffffffffffffffffff16815260200191505060405180910390f35b34801561030f57600080fd5b5061033c6004803603602081101561032657600080fd5b8101908080359060200190929190505050611115565b604051808381526020018281526020019250505060405180910390f35b610361611433565b005b61038f6004803603602081101561037957600080fd5b8101908080359060200190929190505050611648565b005b34801561039d57600080fd5b506103a6611b40565b604051808215151515815260200191505060405180910390f35b3480156103cc57600080fd5b506103f9600480360360208110156103e357600080fd5b8101908080359060200190929190505050611baf565b604051808473ffffffffffffffffffffffffffffffffffffffff1673ffffffffffffffffffffffffffffffffffffffff1681526020018373ffffffffffffffffffffffffffffffffffffffff1673ffffffffffffffffffffffffffffffffffffffff168152602001828152602001935050505060405180910390f35b34801561048157600080fd5b506104ce6004803603604081101561049857600080fd5b81019080803573ffffffffffffffffffffffffffffffffffffffff16906020019092919080359060200190929190505050611e4c565b604051808215151515815260200191505060405180910390f35b3480156104f457600080fd5b506104fd612127565b604051808273ffffffffffffffffffffffffffffffffffffffff1673ffffffffffffffffffffffffffffffffffffffff16815260200191505060405180910390f35b34801561054b57600080fd5b506105b86004803603606081101561056257600080fd5b8101908080359060200190929190803573ffffffffffffffffffffffffffffffffffffffff169060200190929190803573ffffffffffffffffffffffffffffffffffffffff16906020019092919050505061214d565b6040518082815260200191505060405180910390f35b3480156105da57600080fd5b50610607600480360360208110156105f157600080fd5b81019080803590602001909291905050506123d4565b6040518082815260200191505060405180910390f35b34801561062957600080fd5b506106326123ec565b604051808273ffffffffffffffffffffffffffffffffffffffff1673ffffffffffffffffffffffffffffffffffffffff16815260200191505060405180910390f35b34801561068057600080fd5b506106ad6004803603602081101561069757600080fd5b8101908080359060200190929190505050612412565b005b3480156106bb57600080fd5b506106c4612683565b005b3480156106d257600080fd5b506106db612e83565b604051808273ffffffffffffffffffffffffffffffffffffffff1673ffffffffffffffffffffffffffffffffffffffff16815260200191505060405180910390f35b34801561072957600080fd5b5061076c6004803603602081101561074057600080fd5b81019080803573ffffffffffffffffffffffffffffffffffffffff169060200190929190505050612ea8565b005b34801561077a57600080fd5b506107c76004803603604081101561079157600080fd5b8101908080359060200190929190803573ffffffffffffffffffffffffffffffffffffffff169060200190929190505050612f42565b604051808381526020018281526020019250505060405180910390f35b3480156107f057600080fd5b506107f9613265565b6040518082815260200191505060405180910390f35b34801561081b57600080fd5b5061082461326b565b604051808273ffffffffffffffffffffffffffffffffffffffff1673ffffffffffffffffffffffffffffffffffffffff16815260200191505060405180910390f35b34801561087257600080fd5b5061087b613291565b604051808273ffffffffffffffffffffffffffffffffffffffff1673ffffffffffffffffffffffffffffffffffffffff16815260200191505060405180910390f35b6108e9600480360360208110156108d357600080fd5b81019080803590602001909291905050506132b7565b604051808215151515815260200191505060405180910390f35b34801561090f57600080fd5b506109526004803603602081101561092657600080fd5b81019080803573ffffffffffffffffffffffffffffffffffffffff1690602001909291905050506135f4565b604051808215151515815260200191505060405180910390f35b34801561097857600080fd5b506109c56004803603604081101561098f57600080fd5b8101908080359060200190929190803573ffffffffffffffffffffffffffffffffffffffff1690602001909291905050506136fa565b604051808215151515815260200191505060405180910390f35b3480156109eb57600080fd5b50610a2260048036036040811015610a0257600080fd5b810190808035906020019092919080359060200190929190505050613808565b005b348015610a3057600080fd5b50610a7360048036036020811015610a4757600080fd5b81019080803573ffffffffffffffffffffffffffffffffffffffff169060200190929190505050613d9e565b604051808215151515815260200191505060405180910390f35b348015610a9957600080fd5b50610aa26144a0565b604051808273ffffffffffffffffffffffffffffffffffffffff1673ffffffffffffffffffffffffffffffffffffffff16815260200191505060405180910390f35b348015610af057600080fd5b50610b1d60048036036020811015610b0757600080fd5b81019080803590602001909291905050506144c6565b005b348015610b2b57600080fd5b50610b34614776565b604051808273ffffffffffffffffffffffffffffffffffffffff1673ffffffffffffffffffffffffffffffffffffffff16815260200191505060405180910390f35b348015610b8257600080fd5b50610bc560048036036020811015610b9957600080fd5b81019080803573ffffffffffffffffffffffffffffffffffffffff16906020019092919050505061479c565b005b348015610bd357600080fd5b50610c0060048036036020811015610bea57600080fd5b810190808035906020019092919050505061493f565b604051808381526020018281526020019250505060405180910390f35b348015610c2957600080fd5b50610c6c60048036036020811015610c4057600080fd5b81019080803573ffffffffffffffffffffffffffffffffffffffff169060200190929190505050614a44565b005b348015610c7a57600080fd5b50610cc760048036036040811015610c9157600080fd5b81019080803573ffffffffffffffffffffffffffffffffffffffff16906020019092919080359060200190929190505050614b12565b604051808215151515815260200191505060405180910390f35b610ce9614b69565b604051808215151515815260200191505060405180910390f35b600073ffffffffffffffffffffffffffffffffffffffff163373ffffffffffffffffffffffffffffffffffffffff161415610d3a57fe5b610d786040518060400160405280600b81526020017f73757065725f61646d696e000000000000000000000000000000000000000000815250614dd5565b610dea576040517f08c379a00000000000000000000000000000000000000000000000000000000081526004018080602001828103825260108152602001807f4f6e6c792073757065722061646d696e0000000000000000000000000000000081525060200191505060405180910390fd5b60008111610df757600080fd5b600560009054906101000a900473ffffffffffffffffffffffffffffffffffffffff1673ffffffffffffffffffffffffffffffffffffffff1663a9059cbb600760009054906101000a900473ffffffffffffffffffffffffffffffffffffffff16836040518363ffffffff1660e01b8152600401808373ffffffffffffffffffffffffffffffffffffffff1673ffffffffffffffffffffffffffffffffffffffff16815260200182815260200192505050602060405180830381600087803b158015610ec257600080fd5b505af1158015610ed6573d6000803e3d6000fd5b505050506040513d6020811015610eec57600080fd5b8101908080519060200190929190505050610f0657600080fd5b600460009054906101000a900473ffffffffffffffffffffffffffffffffffffffff1673ffffffffffffffffffffffffffffffffffffffff1663712153b3826000806040518463ffffffff1660e01b815260040180848152602001838152602001821515151581526020019350505050602060405180830381600087803b158015610f9057600080fd5b505af1158015610fa4573d6000803e3d6000fd5b505050506040513d6020811015610fba57600080fd5b8101908080519060200190929190505050610fd457600080fd5b7f93f900af773d323023f0ecf99deb1a5466a3f2445cf9c74f969fe7734583392a3082600760009054906101000a900473ffffffffffffffffffffffffffffffffffffffff16604051808473ffffffffffffffffffffffffffffffffffffffff1673ffffffffffffffffffffffffffffffffffffffff1681526020018381526020018273ffffffffffffffffffffffffffffffffffffffff1673ffffffffffffffffffffffffffffffffffffffff168152602001935050505060405180910390a150565b60006040518060400160405280600e81526020017f5769746864726177616c506f6f6c0000000000000000000000000000000000008152506110d981615051565b6110e384846152ec565b50600191505092915050565b600360009054906101000a900473ffffffffffffffffffffffffffffffffffffffff1681565b6000806000600360009054906101000a900473ffffffffffffffffffffffffffffffffffffffff1673ffffffffffffffffffffffffffffffffffffffff1663525a8e4e856040518263ffffffff1660e01b815260040180828152602001915050604080518083038186803b15801561118c57600080fd5b505afa1580156111a0573d6000803e3d6000fd5b505050506040513d60408110156111b657600080fd5b8101908080519060200190929190805190602001909291905050509150506111dc6160c1565b600660009054906101000a900473ffffffffffffffffffffffffffffffffffffffff1673ffffffffffffffffffffffffffffffffffffffff16636991b5bf866040518263ffffffff1660e01b81526004018082815260200191505060a06040518083038186803b15801561124f57600080fd5b505afa158015611263573d6000803e3d6000fd5b505050506040513d601f19601f8201168201806040525060a081101561128857600080fd5b810190809190505090506000600360009054906101000a900473ffffffffffffffffffffffffffffffffffffffff1673ffffffffffffffffffffffffffffffffffffffff1663589ac6a4876040518263ffffffff1660e01b8152600401808281526020019150506101006040518083038186803b15801561130857600080fd5b505afa15801561131c573d6000803e3d6000fd5b505050506040513d601f19601f8201168201806040525061010081101561134257600080fd5b810190808051906020019092919080519060200190929190805190602001909291908051906020019092919091908260400180519060200190929190805190602001909291905050505050505092505050600061139e87611baf565b925050506113ed6113de620f42406113d0866004600581106113bc57fe5b6020020151856154ed90919063ffffffff16565b61552490919063ffffffff16565b8361553d90919063ffffffff16565b9550611428620f424061141a8560046005811061140657fe5b6020020151876154ed90919063ffffffff16565b61552490919063ffffffff16565b945050505050915091565b600061143d615559565b90506000341161144c57600080fd5b600760009054906101000a900473ffffffffffffffffffffffffffffffffffffffff1673ffffffffffffffffffffffffffffffffffffffff166108fc349081150290604051600060405180830381858888f193505050501580156114b4573d6000803e3d6000fd5b50600460009054906101000a900473ffffffffffffffffffffffffffffffffffffffff1673ffffffffffffffffffffffffffffffffffffffff1663712153b360003460006040518463ffffffff1660e01b815260040180848152602001838152602001821515151581526020019350505050602060405180830381600087803b15801561154057600080fd5b505af1158015611554573d6000803e3d6000fd5b505050506040513d602081101561156a57600080fd5b810190808051906020019092919050505061158457600080fd5b7f120bbc6058df2f75a9523df514b6e83e744fda1180dd8c135f2f5d0b1d15d2918134600760009054906101000a900473ffffffffffffffffffffffffffffffffffffffff16604051808473ffffffffffffffffffffffffffffffffffffffff1673ffffffffffffffffffffffffffffffffffffffff1681526020018381526020018273ffffffffffffffffffffffffffffffffffffffff1673ffffffffffffffffffffffffffffffffffffffff168152602001935050505060405180910390a150565b6000611652615559565b9050600080600460009054906101000a900473ffffffffffffffffffffffffffffffffffffffff1673ffffffffffffffffffffffffffffffffffffffff16636933bbd7856040518263ffffffff1660e01b815260040180828152602001915050604080518083038186803b1580156116c957600080fd5b505afa1580156116dd573d6000803e3d6000fd5b505050506040513d60408110156116f357600080fd5b81019080805190602001909291908051906020019092919050505091509150816005600681111561172057fe5b14611793576040517f08c379a00000000000000000000000000000000000000000000000000000000081526004018080602001828103825260018152602001807f310000000000000000000000000000000000000000000000000000000000000081525060200191505060405180910390fd5b804210611808576040517f08c379a00000000000000000000000000000000000000000000000000000000081526004018080602001828103825260018152602001807f320000000000000000000000000000000000000000000000000000000000000081525060200191505060405180910390fd5b61181284846136fa565b15611885576040517f08c379a00000000000000000000000000000000000000000000000000000000081526004018080602001828103825260018152602001807f330000000000000000000000000000000000000000000000000000000000000081525060200191505060405180910390fd5b6000806118928686612f42565b91509150600460009054906101000a900473ffffffffffffffffffffffffffffffffffffffff1673ffffffffffffffffffffffffffffffffffffffff166350b1a7cd87838560016040518563ffffffff1660e01b81526004018085815260200184815260200183815260200182151515158152602001945050505050602060405180830381600087803b15801561192857600080fd5b505af115801561193c573d6000803e3d6000fd5b505050506040513d602081101561195257600080fd5b810190808051906020019092919050505061196c57600080fd5b60008111156119815761197f858261560e565b505b60008211156119965761199485836152ec565b505b600460009054906101000a900473ffffffffffffffffffffffffffffffffffffffff1673ffffffffffffffffffffffffffffffffffffffff16636213fc6d878785856040518563ffffffff1660e01b8152600401808581526020018473ffffffffffffffffffffffffffffffffffffffff1673ffffffffffffffffffffffffffffffffffffffff168152602001838152602001828152602001945050505050602060405180830381600087803b158015611a4f57600080fd5b505af1158015611a63573d6000803e3d6000fd5b505050506040513d6020811015611a7957600080fd5b8101908080519060200190929190505050508473ffffffffffffffffffffffffffffffffffffffff16867f7a334ae1c9e2881845e23ce092ac3f1ccf16297abd45c43af5b4e6d8520d1cc68484600760009054906101000a900473ffffffffffffffffffffffffffffffffffffffff16604051808481526020018381526020018273ffffffffffffffffffffffffffffffffffffffff1673ffffffffffffffffffffffffffffffffffffffff168152602001935050505060405180910390a3505050505050565b60003073ffffffffffffffffffffffffffffffffffffffff16600760009054906101000a900473ffffffffffffffffffffffffffffffffffffffff1673ffffffffffffffffffffffffffffffffffffffff1673ffffffffffffffffffffffffffffffffffffffff161415905090565b6000806000600360009054906101000a900473ffffffffffffffffffffffffffffffffffffffff1673ffffffffffffffffffffffffffffffffffffffff16636b1426a4856040518263ffffffff1660e01b81526004018082815260200191505060606040518083038186803b158015611c2757600080fd5b505afa158015611c3b573d6000803e3d6000fd5b505050506040513d6060811015611c5157600080fd5b8101908080519060200190929190805190602001909291908051906020019092919050505090505080935050600660009054906101000a900473ffffffffffffffffffffffffffffffffffffffff1673ffffffffffffffffffffffffffffffffffffffff166331fa706785856040518363ffffffff1660e01b8152600401808381526020018273ffffffffffffffffffffffffffffffffffffffff1673ffffffffffffffffffffffffffffffffffffffff1681526020019250505060206040518083038186803b158015611d2457600080fd5b505afa158015611d38573d6000803e3d6000fd5b505050506040513d6020811015611d4e57600080fd5b81019080805190602001909291905050509150600360009054906101000a900473ffffffffffffffffffffffffffffffffffffffff1673ffffffffffffffffffffffffffffffffffffffff1663bacf524e85846040518363ffffffff1660e01b8152600401808381526020018273ffffffffffffffffffffffffffffffffffffffff1673ffffffffffffffffffffffffffffffffffffffff1681526020019250505060206040518083038186803b158015611e0857600080fd5b505afa158015611e1c573d6000803e3d6000fd5b505050506040513d6020811015611e3257600080fd5b810190808051906020019092919050505090509193909250565b6000600560009054906101000a900473ffffffffffffffffffffffffffffffffffffffff1673ffffffffffffffffffffffffffffffffffffffff166323b872dd84600760009054906101000a900473ffffffffffffffffffffffffffffffffffffffff16856040518463ffffffff1660e01b8152600401808473ffffffffffffffffffffffffffffffffffffffff1673ffffffffffffffffffffffffffffffffffffffff1681526020018373ffffffffffffffffffffffffffffffffffffffff1673ffffffffffffffffffffffffffffffffffffffff1681526020018281526020019350505050602060405180830381600087803b158015611f4d57600080fd5b505af1158015611f61573d6000803e3d6000fd5b505050506040513d6020811015611f7757600080fd5b8101908080519060200190929190505050611f955760009050612121565b600460009054906101000a900473ffffffffffffffffffffffffffffffffffffffff1673ffffffffffffffffffffffffffffffffffffffff1663712153b3836000806040518463ffffffff1660e01b815260040180848152602001838152602001821515151581526020019350505050602060405180830381600087803b15801561201f57600080fd5b505af1158015612033573d6000803e3d6000fd5b505050506040513d602081101561204957600080fd5b8101908080519060200190929190505050507f93f900af773d323023f0ecf99deb1a5466a3f2445cf9c74f969fe7734583392a8383600760009054906101000a900473ffffffffffffffffffffffffffffffffffffffff16604051808473ffffffffffffffffffffffffffffffffffffffff1673ffffffffffffffffffffffffffffffffffffffff1681526020018381526020018273ffffffffffffffffffffffffffffffffffffffff1673ffffffffffffffffffffffffffffffffffffffff168152602001935050505060405180910390a1600190505b92915050565b600460009054906101000a900473ffffffffffffffffffffffffffffffffffffffff1681565b60008273ffffffffffffffffffffffffffffffffffffffff168273ffffffffffffffffffffffffffffffffffffffff16141561218c57600090506123cd565b8273ffffffffffffffffffffffffffffffffffffffff16600660009054906101000a900473ffffffffffffffffffffffffffffffffffffffff1673ffffffffffffffffffffffffffffffffffffffff166316805a2986856040518363ffffffff1660e01b8152600401808381526020018273ffffffffffffffffffffffffffffffffffffffff1673ffffffffffffffffffffffffffffffffffffffff1681526020019250505060206040518083038186803b15801561224a57600080fd5b505afa15801561225e573d6000803e3d6000fd5b505050506040513d602081101561227457600080fd5b810190808051906020019092919050505073ffffffffffffffffffffffffffffffffffffffff1614156122aa57600190506123cd565b8273ffffffffffffffffffffffffffffffffffffffff16600660009054906101000a900473ffffffffffffffffffffffffffffffffffffffff1673ffffffffffffffffffffffffffffffffffffffff16635f87206d86856040518363ffffffff1660e01b8152600401808381526020018273ffffffffffffffffffffffffffffffffffffffff1673ffffffffffffffffffffffffffffffffffffffff1681526020019250505060206040518083038186803b15801561236857600080fd5b505afa15801561237c573d6000803e3d6000fd5b505050506040513d602081101561239257600080fd5b810190808051906020019092919050505073ffffffffffffffffffffffffffffffffffffffff1614156123c857600290506123cd565b600390505b9392505050565b60096020528060005260406000206000915090505481565b600560009054906101000a900473ffffffffffffffffffffffffffffffffffffffff1681565b6040518060400160405280600781526020017f43726f6e4a6f620000000000000000000000000000000000000000000000000081525061245181615051565b600080600460009054906101000a900473ffffffffffffffffffffffffffffffffffffffff1673ffffffffffffffffffffffffffffffffffffffff1663d6f20309856040518263ffffffff1660e01b815260040180828152602001915050604080518083038186803b1580156124c657600080fd5b505afa1580156124da573d6000803e3d6000fd5b505050506040513d60408110156124f057600080fd5b81019080805190602001909291908051906020019092919050505091509150600460009054906101000a900473ffffffffffffffffffffffffffffffffffffffff1673ffffffffffffffffffffffffffffffffffffffff1663712153b3838360006040518463ffffffff1660e01b815260040180848152602001838152602001821515151581526020019350505050602060405180830381600087803b15801561259957600080fd5b505af11580156125ad573d6000803e3d6000fd5b505050506040513d60208110156125c357600080fd5b81019080805190602001909291905050506125dd57600080fd5b600460009054906101000a900473ffffffffffffffffffffffffffffffffffffffff1673ffffffffffffffffffffffffffffffffffffffff1663f89f07ce8560068081111561262857fe5b6040518363ffffffff1660e01b81526004018083815260200182815260200192505050600060405180830381600087803b15801561266557600080fd5b505af1158015612679573d6000803e3d6000fd5b5050505050505050565b6000809054906101000a900473ffffffffffffffffffffffffffffffffffffffff1673ffffffffffffffffffffffffffffffffffffffff163373ffffffffffffffffffffffffffffffffffffffff16146126d957fe5b600160009054906101000a900473ffffffffffffffffffffffffffffffffffffffff1673ffffffffffffffffffffffffffffffffffffffff1663358177736040518060400160405280600b81526020017f456e646f776d656e7444420000000000000000000000000000000000000000008152506040518263ffffffff1660e01b81526004018080602001828103825283818151815260200191508051906020019080838360005b8381101561279c578082015181840152602081019050612781565b50505050905090810190601f1680156127c95780820380516001836020036101000a031916815260200191505b509250505060206040518083038186803b1580156127e657600080fd5b505afa1580156127fa573d6000803e3d6000fd5b505050506040513d602081101561281057600080fd5b8101908080519060200190929190505050600460006101000a81548173ffffffffffffffffffffffffffffffffffffffff021916908373ffffffffffffffffffffffffffffffffffffffff160217905550600160009054906101000a900473ffffffffffffffffffffffffffffffffffffffff1673ffffffffffffffffffffffffffffffffffffffff1663358177736040518060400160405280600d81526020017f47616d65566172416e64466565000000000000000000000000000000000000008152506040518263ffffffff1660e01b81526004018080602001828103825283818151815260200191508051906020019080838360005b83811015612924578082015181840152602081019050612909565b50505050905090810190601f1680156129515780820380516001836020036101000a031916815260200191505b509250505060206040518083038186803b15801561296e57600080fd5b505afa158015612982573d6000803e3d6000fd5b505050506040513d602081101561299857600080fd5b8101908080519060200190929190505050600260006101000a81548173ffffffffffffffffffffffffffffffffffffffff021916908373ffffffffffffffffffffffffffffffffffffffff160217905550600160009054906101000a900473ffffffffffffffffffffffffffffffffffffffff1673ffffffffffffffffffffffffffffffffffffffff1663358177736040518060400160405280601081526020017f4b69747469654669676874546f6b656e000000000000000000000000000000008152506040518263ffffffff1660e01b81526004018080602001828103825283818151815260200191508051906020019080838360005b83811015612aac578082015181840152602081019050612a91565b50505050905090810190601f168015612ad95780820380516001836020036101000a031916815260200191505b509250505060206040518083038186803b158015612af657600080fd5b505afa158015612b0a573d6000803e3d6000fd5b505050506040513d6020811015612b2057600080fd5b8101908080519060200190929190505050600560006101000a81548173ffffffffffffffffffffffffffffffffffffffff021916908373ffffffffffffffffffffffffffffffffffffffff160217905550600160009054906101000a900473ffffffffffffffffffffffffffffffffffffffff1673ffffffffffffffffffffffffffffffffffffffff1663358177736040518060400160405280600981526020017f47616d6553746f726500000000000000000000000000000000000000000000008152506040518263ffffffff1660e01b81526004018080602001828103825283818151815260200191508051906020019080838360005b83811015612c34578082015181840152602081019050612c19565b50505050905090810190601f168015612c615780820380516001836020036101000a031916815260200191505b509250505060206040518083038186803b158015612c7e57600080fd5b505afa158015612c92573d6000803e3d6000fd5b505050506040513d6020811015612ca857600080fd5b8101908080519060200190929190505050600660006101000a81548173ffffffffffffffffffffffffffffffffffffffff021916908373ffffffffffffffffffffffffffffffffffffffff160217905550600160009054906101000a900473ffffffffffffffffffffffffffffffffffffffff1673ffffffffffffffffffffffffffffffffffffffff1663358177736040518060400160405280600a81526020017f474d4765747465724442000000000000000000000000000000000000000000008152506040518263ffffffff1660e01b81526004018080602001828103825283818151815260200191508051906020019080838360005b83811015612dbc578082015181840152602081019050612da1565b50505050905090810190601f168015612de95780820380516001836020036101000a031916815260200191505b509250505060206040518083038186803b158015612e0657600080fd5b505afa158015612e1a573d6000803e3d6000fd5b505050506040513d6020811015612e3057600080fd5b8101908080519060200190929190505050600360006101000a81548173ffffffffffffffffffffffffffffffffffffffff021916908373ffffffffffffffffffffffffffffffffffffffff160217905550565b6000809054906101000a900473ffffffffffffffffffffffffffffffffffffffff1681565b6000809054906101000a900473ffffffffffffffffffffffffffffffffffffffff1673ffffffffffffffffffffffffffffffffffffffff163373ffffffffffffffffffffffffffffffffffffffff1614612efe57fe5b80600160006101000a81548173ffffffffffffffffffffffffffffffffffffffff021916908373ffffffffffffffffffffffffffffffffffffffff16021790555050565b600080600080612f5186611baf565b9250509150600073ffffffffffffffffffffffffffffffffffffffff168273ffffffffffffffffffffffffffffffffffffffff161415612f9057600080fd5b600080600360009054906101000a900473ffffffffffffffffffffffffffffffffffffffff1673ffffffffffffffffffffffffffffffffffffffff16630b154c9689896040518363ffffffff1660e01b8152600401808381526020018273ffffffffffffffffffffffffffffffffffffffff1673ffffffffffffffffffffffffffffffffffffffff1681526020019250505060806040518083038186803b15801561303a57600080fd5b505afa15801561304e573d6000803e3d6000fd5b505050506040513d608081101561306457600080fd5b81019080805190602001909291908051906020019092919080519060200190929190805190602001909291905050505050915091508373ffffffffffffffffffffffffffffffffffffffff168773ffffffffffffffffffffffffffffffffffffffff161415801561310157508373ffffffffffffffffffffffffffffffffffffffff168173ffffffffffffffffffffffffffffffffffffffff1614155b1561311c57600080819150809050955095505050505061325e565b600061312989898761214d565b90508473ffffffffffffffffffffffffffffffffffffffff168873ffffffffffffffffffffffffffffffffffffffff16141561324457600360009054906101000a900473ffffffffffffffffffffffffffffffffffffffff1673ffffffffffffffffffffffffffffffffffffffff1663dd99717d8a8a6040518363ffffffff1660e01b8152600401808381526020018273ffffffffffffffffffffffffffffffffffffffff1673ffffffffffffffffffffffffffffffffffffffff1681526020019250505060206040518083038186803b15801561320657600080fd5b505afa15801561321a573d6000803e3d6000fd5b505050506040513d602081101561323057600080fd5b810190808051906020019092919050505092505b6132508482858c61580f565b809750819850505050505050505b9250929050565b60085481565b600260009054906101000a900473ffffffffffffffffffffffffffffffffffffffff1681565b600660009054906101000a900473ffffffffffffffffffffffffffffffffffffffff1681565b60008073ffffffffffffffffffffffffffffffffffffffff16600760009054906101000a900473ffffffffffffffffffffffffffffffffffffffff1673ffffffffffffffffffffffffffffffffffffffff16141561331457600080fd5b600061331e615559565b90506000341161332d57600080fd5b600760009054906101000a900473ffffffffffffffffffffffffffffffffffffffff1673ffffffffffffffffffffffffffffffffffffffff166108fc349081150290604051600060405180830381858888f193505050506133925760009150506135ef565b600460009054906101000a900473ffffffffffffffffffffffffffffffffffffffff1673ffffffffffffffffffffffffffffffffffffffff166350b1a7cd8460003460006040518563ffffffff1660e01b81526004018085815260200184815260200183815260200182151515158152602001945050505050602060405180830381600087803b15801561342557600080fd5b505af1158015613439573d6000803e3d6000fd5b505050506040513d602081101561344f57600080fd5b810190808051906020019092919050505050600460009054906101000a900473ffffffffffffffffffffffffffffffffffffffff1673ffffffffffffffffffffffffffffffffffffffff1663712153b360003460006040518463ffffffff1660e01b815260040180848152602001838152602001821515151581526020019350505050602060405180830381600087803b1580156134ec57600080fd5b505af1158015613500573d6000803e3d6000fd5b505050506040513d602081101561351657600080fd5b8101908080519060200190929190505050507f120bbc6058df2f75a9523df514b6e83e744fda1180dd8c135f2f5d0b1d15d2918134600760009054906101000a900473ffffffffffffffffffffffffffffffffffffffff16604051808473ffffffffffffffffffffffffffffffffffffffff1673ffffffffffffffffffffffffffffffffffffffff1681526020018381526020018273ffffffffffffffffffffffffffffffffffffffff1673ffffffffffffffffffffffffffffffffffffffff168152602001935050505060405180910390a160019150505b919050565b60006040518060400160405280600b81526020017f47616d654d616e6167657200000000000000000000000000000000000000000081525061363581615051565b6000600260009054906101000a900473ffffffffffffffffffffffffffffffffffffffff1673ffffffffffffffffffffffffffffffffffffffff1663d693a9896040518163ffffffff1660e01b815260040160206040518083038186803b15801561369f57600080fd5b505afa1580156136b3573d6000803e3d6000fd5b505050506040513d60208110156136c957600080fd5b810190808051906020019092919050505090506136e6848261560e565b6136ef57600080fd5b600192505050919050565b6000806000600460009054906101000a900473ffffffffffffffffffffffffffffffffffffffff1673ffffffffffffffffffffffffffffffffffffffff1663231eb69186866040518363ffffffff1660e01b8152600401808381526020018273ffffffffffffffffffffffffffffffffffffffff1673ffffffffffffffffffffffffffffffffffffffff16815260200192505050604080518083038186803b1580156137a557600080fd5b505afa1580156137b9573d6000803e3d6000fd5b505050506040513d60408110156137cf57600080fd5b810190808051906020019092919080519060200190929190505050915091506000821180156137fe5750600081115b9250505092915050565b6040518060400160405280600b81526020017f47616d654d616e6167657200000000000000000000000000000000000000000081525061384781615051565b60006005600681111561385657fe5b831415613cfb5761391d600660009054906101000a900473ffffffffffffffffffffffffffffffffffffffff1673ffffffffffffffffffffffffffffffffffffffff16630d1fd67a866040518263ffffffff1660e01b81526004018082815260200191505060206040518083038186803b1580156138d357600080fd5b505afa1580156138e7573d6000803e3d6000fd5b505050506040513d60208110156138fd57600080fd5b81019080805190602001909291905050504261553d90919063ffffffff16565b90506000600160009054906101000a900473ffffffffffffffffffffffffffffffffffffffff1673ffffffffffffffffffffffffffffffffffffffff1663358177736040518060400160405280600781526020017f43726f6e4a6f62000000000000000000000000000000000000000000000000008152506040518263ffffffff1660e01b81526004018080602001828103825283818151815260200191508051906020019080838360005b838110156139e45780820151818401526020810190506139c9565b50505050905090810190601f168015613a115780820380516001836020036101000a031916815260200191505b509250505060206040518083038186803b158015613a2e57600080fd5b505afa158015613a42573d6000803e3d6000fd5b505050506040513d6020811015613a5857600080fd5b8101908080519060200190929190505050905060008173ffffffffffffffffffffffffffffffffffffffff1663c19304966040518060400160405280600d81526020017f456e646f776d656e7446756e64000000000000000000000000000000000000008152508589604051602401808281526020019150506040516020818303038152906040527f75899135000000000000000000000000000000000000000000000000000000007bffffffffffffffffffffffffffffffffffffffffffffffffffffffff19166020820180517bffffffffffffffffffffffffffffffffffffffffffffffffffffffff83818316178352505050506040518463ffffffff1660e01b8152600401808060200184815260200180602001838103835286818151815260200191508051906020019080838360005b83811015613ba7578082015181840152602081019050613b8c565b50505050905090810190601f168015613bd45780820380516001836020036101000a031916815260200191505b50838103825284818151815260200191508051906020019080838360005b83811015613c0d578082015181840152602081019050613bf2565b50505050905090810190601f168015613c3a5780820380516001836020036101000a031916815260200191505b5095505050505050602060405180830381600087803b158015613c5c57600080fd5b505af1158015613c70573d6000803e3d6000fd5b505050506040513d6020811015613c8657600080fd5b810190808051906020019092919050505090508060096000888152602001908152602001600020819055507fbdb3fa1032c10362fcfd2e3a7214b0e681d1a19640cdc58a12397eb72eadf0e681848860405180848152602001838152602001828152602001935050505060405180910390a150505b600460009054906101000a900473ffffffffffffffffffffffffffffffffffffffff1673ffffffffffffffffffffffffffffffffffffffff1663a297bbee8585846040518463ffffffff1660e01b8152600401808481526020018381526020018281526020019350505050600060405180830381600087803b158015613d8057600080fd5b505af1158015613d94573d6000803e3d6000fd5b5050505050505050565b60008073ffffffffffffffffffffffffffffffffffffffff163373ffffffffffffffffffffffffffffffffffffffff161415613dd657fe5b613e146040518060400160405280600b81526020017f73757065725f61646d696e000000000000000000000000000000000000000000815250614dd5565b613e86576040517f08c379a00000000000000000000000000000000000000000000000000000000081526004018080602001828103825260108152602001807f4f6e6c792073757065722061646d696e0000000000000000000000000000000081525060200191505060405180910390fd5b600073ffffffffffffffffffffffffffffffffffffffff168273ffffffffffffffffffffffffffffffffffffffff161415613ec057600080fd5b8173ffffffffffffffffffffffffffffffffffffffff1663c4d66de8600560009054906101000a900473ffffffffffffffffffffffffffffffffffffffff166040518263ffffffff1660e01b8152600401808273ffffffffffffffffffffffffffffffffffffffff1673ffffffffffffffffffffffffffffffffffffffff168152602001915050600060405180830381600087803b158015613f6157600080fd5b505af1158015613f75573d6000803e3d6000fd5b505050503073ffffffffffffffffffffffffffffffffffffffff168273ffffffffffffffffffffffffffffffffffffffff16638da5cb5b6040518163ffffffff1660e01b815260040160206040518083038186803b158015613fd657600080fd5b505afa158015613fea573d6000803e3d6000fd5b505050506040513d602081101561400057600080fd5b810190808051906020019092919050505073ffffffffffffffffffffffffffffffffffffffff161461403157600080fd5b600073ffffffffffffffffffffffffffffffffffffffff168273ffffffffffffffffffffffffffffffffffffffff166397d7ce0a6040518163ffffffff1660e01b815260040160206040518083038186803b15801561408f57600080fd5b505afa1580156140a3573d6000803e3d6000fd5b505050506040513d60208110156140b957600080fd5b810190808051906020019092919050505073ffffffffffffffffffffffffffffffffffffffff1614156140eb57600080fd5b600073ffffffffffffffffffffffffffffffffffffffff16600760009054906101000a900473ffffffffffffffffffffffffffffffffffffffff1673ffffffffffffffffffffffffffffffffffffffff161461445657600760009054906101000a900473ffffffffffffffffffffffffffffffffffffffff1673ffffffffffffffffffffffffffffffffffffffff16637b1a490983600760009054906101000a900473ffffffffffffffffffffffffffffffffffffffff1673ffffffffffffffffffffffffffffffffffffffff16316040518363ffffffff1660e01b8152600401808373ffffffffffffffffffffffffffffffffffffffff1673ffffffffffffffffffffffffffffffffffffffff16815260200182815260200192505050602060405180830381600087803b15801561422357600080fd5b505af1158015614237573d6000803e3d6000fd5b505050506040513d602081101561424d57600080fd5b810190808051906020019092919050505061426757600080fd5b6000600560009054906101000a900473ffffffffffffffffffffffffffffffffffffffff1673ffffffffffffffffffffffffffffffffffffffff166370a08231600760009054906101000a900473ffffffffffffffffffffffffffffffffffffffff166040518263ffffffff1660e01b8152600401808273ffffffffffffffffffffffffffffffffffffffff1673ffffffffffffffffffffffffffffffffffffffff16815260200191505060206040518083038186803b15801561432a57600080fd5b505afa15801561433e573d6000803e3d6000fd5b505050506040513d602081101561435457600080fd5b81019080805190602001909291905050509050600760009054906101000a900473ffffffffffffffffffffffffffffffffffffffff1673ffffffffffffffffffffffffffffffffffffffff1663430951bd84836040518363ffffffff1660e01b8152600401808373ffffffffffffffffffffffffffffffffffffffff1673ffffffffffffffffffffffffffffffffffffffff16815260200182815260200192505050602060405180830381600087803b15801561441057600080fd5b505af1158015614424573d6000803e3d6000fd5b505050506040513d602081101561443a57600080fd5b810190808051906020019092919050505061445457600080fd5b505b81600760006101000a81548173ffffffffffffffffffffffffffffffffffffffff021916908373ffffffffffffffffffffffffffffffffffffffff16021790555060019050919050565b600760009054906101000a900473ffffffffffffffffffffffffffffffffffffffff1681565b6040518060400160405280600b81526020017f456e646f776d656e74444200000000000000000000000000000000000000000081525061450581615051565b6000600160009054906101000a900473ffffffffffffffffffffffffffffffffffffffff1673ffffffffffffffffffffffffffffffffffffffff1663358177736040518060400160405280600781526020017f43726f6e4a6f62000000000000000000000000000000000000000000000000008152506040518263ffffffff1660e01b81526004018080602001828103825283818151815260200191508051906020019080838360005b838110156145ca5780820151818401526020810190506145af565b50505050905090810190601f1680156145f75780820380516001836020036101000a031916815260200191505b509250505060206040518083038186803b15801561461457600080fd5b505afa158015614628573d6000803e3d6000fd5b505050506040513d602081101561463e57600080fd5b810190808051906020019092919050505090508073ffffffffffffffffffffffffffffffffffffffff16639d8f101f6040518060400160405280600d81526020017f456e646f776d656e7446756e640000000000000000000000000000000000000081525060096000878152602001908152602001600020546040518363ffffffff1660e01b81526004018080602001838152602001828103825284818151815260200191508051906020019080838360005b8381101561470c5780820151818401526020810190506146f1565b50505050905090810190601f1680156147395780820380516001836020036101000a031916815260200191505b509350505050600060405180830381600087803b15801561475957600080fd5b505af115801561476d573d6000803e3d6000fd5b50505050505050565b600160009054906101000a900473ffffffffffffffffffffffffffffffffffffffff1681565b600073ffffffffffffffffffffffffffffffffffffffff163373ffffffffffffffffffffffffffffffffffffffff1614156147d357fe5b6148116040518060400160405280600b81526020017f73757065725f61646d696e000000000000000000000000000000000000000000815250614dd5565b614883576040517f08c379a00000000000000000000000000000000000000000000000000000000081526004018080602001828103825260108152602001807f4f6e6c792073757065722061646d696e0000000000000000000000000000000081525060200191505060405180910390fd5b600760009054906101000a900473ffffffffffffffffffffffffffffffffffffffff1673ffffffffffffffffffffffffffffffffffffffff1663f2fde38b826040518263ffffffff1660e01b8152600401808273ffffffffffffffffffffffffffffffffffffffff1673ffffffffffffffffffffffffffffffffffffffff168152602001915050600060405180830381600087803b15801561492457600080fd5b505af1158015614938573d6000803e3d6000fd5b5050505050565b6000806040518060400160405280600c81526020017f47616d654372656174696f6e000000000000000000000000000000000000000081525061498181615051565b600460009054906101000a900473ffffffffffffffffffffffffffffffffffffffff1673ffffffffffffffffffffffffffffffffffffffff1663f1d4be10856040518263ffffffff1660e01b8152600401808281526020019150506040805180830381600087803b1580156149f557600080fd5b505af1158015614a09573d6000803e3d6000fd5b505050506040513d6040811015614a1f57600080fd5b8101908080519060200190929190805190602001909291905050509250925050915091565b6000809054906101000a900473ffffffffffffffffffffffffffffffffffffffff1673ffffffffffffffffffffffffffffffffffffffff163373ffffffffffffffffffffffffffffffffffffffff1614614a9a57fe5b600073ffffffffffffffffffffffffffffffffffffffff168173ffffffffffffffffffffffffffffffffffffffff1614614b0f57806000806101000a81548173ffffffffffffffffffffffffffffffffffffffff021916908373ffffffffffffffffffffffffffffffffffffffff1602179055505b50565b60006040518060400160405280600f81526020017f4561726e696e6773547261636b65720000000000000000000000000000000000815250614b5381615051565b614b5d84846152ec565b50600191505092915050565b60008073ffffffffffffffffffffffffffffffffffffffff16600760009054906101000a900473ffffffffffffffffffffffffffffffffffffffff1673ffffffffffffffffffffffffffffffffffffffff161415614bc657600080fd5b6000614bd0615559565b905060003411614bdf57600080fd5b600760009054906101000a900473ffffffffffffffffffffffffffffffffffffffff1673ffffffffffffffffffffffffffffffffffffffff166108fc349081150290604051600060405180830381858888f19350505050614c44576000915050614dd2565b600460009054906101000a900473ffffffffffffffffffffffffffffffffffffffff1673ffffffffffffffffffffffffffffffffffffffff1663712153b360003460006040518463ffffffff1660e01b815260040180848152602001838152602001821515151581526020019350505050602060405180830381600087803b158015614ccf57600080fd5b505af1158015614ce3573d6000803e3d6000fd5b505050506040513d6020811015614cf957600080fd5b8101908080519060200190929190505050507f120bbc6058df2f75a9523df514b6e83e744fda1180dd8c135f2f5d0b1d15d2918134600760009054906101000a900473ffffffffffffffffffffffffffffffffffffffff16604051808473ffffffffffffffffffffffffffffffffffffffff1673ffffffffffffffffffffffffffffffffffffffff1681526020018381526020018273ffffffffffffffffffffffffffffffffffffffff1673ffffffffffffffffffffffffffffffffffffffff168152602001935050505060405180910390a160019150505b90565b6000600160009054906101000a900473ffffffffffffffffffffffffffffffffffffffff1673ffffffffffffffffffffffffffffffffffffffff1663358177736040518060400160405280600681526020017f526f6c65444200000000000000000000000000000000000000000000000000008152506040518263ffffffff1660e01b81526004018080602001828103825283818151815260200191508051906020019080838360005b83811015614e9a578082015181840152602081019050614e7f565b50505050905090810190601f168015614ec75780820380516001836020036101000a031916815260200191505b509250505060206040518083038186803b158015614ee457600080fd5b505afa158015614ef8573d6000803e3d6000fd5b505050506040513d6020811015614f0e57600080fd5b810190808051906020019092919050505073ffffffffffffffffffffffffffffffffffffffff16636c9cd09783614f43615559565b6040518363ffffffff1660e01b815260040180806020018373ffffffffffffffffffffffffffffffffffffffff1673ffffffffffffffffffffffffffffffffffffffff168152602001828103825284818151815260200191508051906020019080838360005b83811015614fc4578082015181840152602081019050614fa9565b50505050905090810190601f168015614ff15780820380516001836020036101000a031916815260200191505b50935050505060206040518083038186803b15801561500f57600080fd5b505afa158015615023573d6000803e3d6000fd5b505050506040513d602081101561503957600080fd5b81019080805190602001909291905050509050919050565b600073ffffffffffffffffffffffffffffffffffffffff16600160009054906101000a900473ffffffffffffffffffffffffffffffffffffffff1673ffffffffffffffffffffffffffffffffffffffff161415615116576040517f08c379a00000000000000000000000000000000000000000000000000000000081526004018080602001828103825260088152602001807f4e6f2050726f787900000000000000000000000000000000000000000000000081525060200191505060405180910390fd5b6000600160009054906101000a900473ffffffffffffffffffffffffffffffffffffffff1673ffffffffffffffffffffffffffffffffffffffff166335817773836040518263ffffffff1660e01b81526004018080602001828103825283818151815260200191508051906020019080838360005b838110156151a657808201518184015260208101905061518b565b50505050905090810190601f1680156151d35780820380516001836020036101000a031916815260200191505b509250505060206040518083038186803b1580156151f057600080fd5b505afa158015615204573d6000803e3d6000fd5b505050506040513d602081101561521a57600080fd5b81019080805190602001909291905050509050600073ffffffffffffffffffffffffffffffffffffffff168173ffffffffffffffffffffffffffffffffffffffff16141561526457fe5b8073ffffffffffffffffffffffffffffffffffffffff163373ffffffffffffffffffffffffffffffffffffffff16146152e8576040517f08c379a000000000000000000000000000000000000000000000000000000000815260040180806020018281038252602d815260200180616106602d913960400191505060405180910390fd5b5050565b60008073ffffffffffffffffffffffffffffffffffffffff168373ffffffffffffffffffffffffffffffffffffffff16141561532757600080fd5b600760009054906101000a900473ffffffffffffffffffffffffffffffffffffffff1673ffffffffffffffffffffffffffffffffffffffff16637b1a490984846040518363ffffffff1660e01b8152600401808373ffffffffffffffffffffffffffffffffffffffff1673ffffffffffffffffffffffffffffffffffffffff16815260200182815260200192505050602060405180830381600087803b1580156153d057600080fd5b505af11580156153e4573d6000803e3d6000fd5b505050506040513d60208110156153fa57600080fd5b810190808051906020019092919050505061541457600080fd5b600460009054906101000a900473ffffffffffffffffffffffffffffffffffffffff1673ffffffffffffffffffffffffffffffffffffffff1663712153b360008460016040518463ffffffff1660e01b815260040180848152602001838152602001821515151581526020019350505050602060405180830381600087803b15801561549f57600080fd5b505af11580156154b3573d6000803e3d6000fd5b505050506040513d60208110156154c957600080fd5b81019080805190602001909291905050506154e357600080fd5b6001905092915050565b600080831415615500576000905061551e565b600082840290508284828161551157fe5b041461551957fe5b809150505b92915050565b60008082848161553057fe5b0490508091505092915050565b60008082840190508381101561554f57fe5b8091505092915050565b6000600160009054906101000a900473ffffffffffffffffffffffffffffffffffffffff1673ffffffffffffffffffffffffffffffffffffffff163373ffffffffffffffffffffffffffffffffffffffff16146155b85733905061560b565b6000601436036000602052601481602c37602051915050600073ffffffffffffffffffffffffffffffffffffffff168173ffffffffffffffffffffffffffffffffffffffff16141561560657fe5b809150505b90565b60008073ffffffffffffffffffffffffffffffffffffffff168373ffffffffffffffffffffffffffffffffffffffff16141561564957600080fd5b600760009054906101000a900473ffffffffffffffffffffffffffffffffffffffff1673ffffffffffffffffffffffffffffffffffffffff1663430951bd84846040518363ffffffff1660e01b8152600401808373ffffffffffffffffffffffffffffffffffffffff1673ffffffffffffffffffffffffffffffffffffffff16815260200182815260200192505050602060405180830381600087803b1580156156f257600080fd5b505af1158015615706573d6000803e3d6000fd5b505050506040513d602081101561571c57600080fd5b810190808051906020019092919050505061573657600080fd5b600460009054906101000a900473ffffffffffffffffffffffffffffffffffffffff1673ffffffffffffffffffffffffffffffffffffffff1663712153b383600060016040518463ffffffff1660e01b815260040180848152602001838152602001821515151581526020019350505050602060405180830381600087803b1580156157c157600080fd5b505af11580156157d5573d6000803e3d6000fd5b505050506040513d60208110156157eb57600080fd5b810190808051906020019092919050505061580557600080fd5b6001905092915050565b60008061581a6160c1565b600660009054906101000a900473ffffffffffffffffffffffffffffffffffffffff1673ffffffffffffffffffffffffffffffffffffffff16636991b5bf856040518263ffffffff1660e01b81526004018082815260200191505060a06040518083038186803b15801561588d57600080fd5b505afa1580156158a1573d6000803e3d6000fd5b505050506040513d601f19601f8201168201806040525060a08110156158c657600080fd5b810190809190505090506000600360009054906101000a900473ffffffffffffffffffffffffffffffffffffffff1673ffffffffffffffffffffffffffffffffffffffff1663525a8e4e866040518263ffffffff1660e01b815260040180828152602001915050604080518083038186803b15801561594457600080fd5b505afa158015615958573d6000803e3d6000fd5b505050506040513d604081101561596e57600080fd5b81019080805190602001909291908051906020019092919050505091505060006159c6620f42406159b8858b600581106159a457fe5b60200201518c6154ed90919063ffffffff16565b61552490919063ffffffff16565b90506000615a02620f42406159f4868c600581106159e057fe5b6020020151866154ed90919063ffffffff16565b61552490919063ffffffff16565b90506003891415615a2657615a1981838a8a615a4c565b9550955050505050615a43565b615a39828961553d90919063ffffffff16565b8195509550505050505b94509492505050565b600080615a576160e3565b600360009054906101000a900473ffffffffffffffffffffffffffffffffffffffff1673ffffffffffffffffffffffffffffffffffffffff16636b1426a4856040518263ffffffff1660e01b81526004018082815260200191505060606040518083038186803b158015615aca57600080fd5b505afa158015615ade573d6000803e3d6000fd5b505050506040513d6060811015615af457600080fd5b8101908080519060200190929190805190602001909291908051906020019092919050505083600060038110615b2657fe5b6020020184600160038110615b3757fe5b6020020185600260038110615b4857fe5b602002018373ffffffffffffffffffffffffffffffffffffffff1673ffffffffffffffffffffffffffffffffffffffff168152508373ffffffffffffffffffffffffffffffffffffffff1673ffffffffffffffffffffffffffffffffffffffff168152508373ffffffffffffffffffffffffffffffffffffffff1673ffffffffffffffffffffffffffffffffffffffff168152505050506000600360009054906101000a900473ffffffffffffffffffffffffffffffffffffffff1673ffffffffffffffffffffffffffffffffffffffff16630b154c968684600160038110615c2d57fe5b60200201516040518363ffffffff1660e01b8152600401808381526020018273ffffffffffffffffffffffffffffffffffffffff1673ffffffffffffffffffffffffffffffffffffffff1681526020019250505060806040518083038186803b158015615c9957600080fd5b505afa158015615cad573d6000803e3d6000fd5b505050506040513d6080811015615cc357600080fd5b810190808051906020019092919080519060200190929190805190602001909291908051906020019092919050505050505090506000600360009054906101000a900473ffffffffffffffffffffffffffffffffffffffff1673ffffffffffffffffffffffffffffffffffffffff16630b154c968785600260038110615d4557fe5b60200201516040518363ffffffff1660e01b8152600401808381526020018273ffffffffffffffffffffffffffffffffffffffff1673ffffffffffffffffffffffffffffffffffffffff1681526020019250505060806040518083038186803b158015615db157600080fd5b505afa158015615dc5573d6000803e3d6000fd5b505050506040513d6080811015615ddb57600080fd5b810190808051906020019092919080519060200190929190805190602001909291908051906020019092919050505050505090506000600360009054906101000a900473ffffffffffffffffffffffffffffffffffffffff1673ffffffffffffffffffffffffffffffffffffffff1663dd99717d8886600060038110615e5d57fe5b60200201516040518363ffffffff1660e01b8152600401808381526020018273ffffffffffffffffffffffffffffffffffffffff1673ffffffffffffffffffffffffffffffffffffffff1681526020019250505060206040518083038186803b158015615ec957600080fd5b505afa158015615edd573d6000803e3d6000fd5b505050506040513d6020811015615ef357600080fd5b810190808051906020019092919050505090506000600360009054906101000a900473ffffffffffffffffffffffffffffffffffffffff1673ffffffffffffffffffffffffffffffffffffffff1663bacf524e8987600060038110615f5457fe5b60200201516040518363ffffffff1660e01b8152600401808381526020018273ffffffffffffffffffffffffffffffffffffffff1673ffffffffffffffffffffffffffffffffffffffff1681526020019250505060206040518083038186803b158015615fc057600080fd5b505afa158015615fd4573d6000803e3d6000fd5b505050506040513d6020811015615fea57600080fd5b81019080805190602001909291905050509050616034826160268561601888866160aa90919063ffffffff16565b6160aa90919063ffffffff16565b6160aa90919063ffffffff16565b905061605b8161604d8b8d6154ed90919063ffffffff16565b61552490919063ffffffff16565b9950616082816160748b8e6154ed90919063ffffffff16565b61552490919063ffffffff16565b9a506160978a8a61553d90919063ffffffff16565b8b96509650505050505094509492505050565b6000828211156160b657fe5b818303905092915050565b6040518060a00160405280600590602082028038833980820191505090505090565b604051806060016040528060039060208202803883398082019150509050509056fe416363657373206973206f6e6c7920616c6c6f7765642066726f6d20737065636966696320636f6e7472616374a265627a7a7231582025c221f9f51231610846907bafb139349af0531a316b2806f8a086ddd660ee6764736f6c63430005110032",
  "source": "/**\n * @title EndowmentFund\n */\n//\n// This program is free software: you can redistribute it and/or modify\n// it under the terms of the GNU General Public License as published by\n// the Free Software Foundation, either version 3 of the License, or\n// (at your option) any later version.\n\n// This program is distributed in the hope that it will be useful,\n// but WITHOUT ANY WARRANTY; without even the implied warranty of\n// MERCHANTABILITY or FITNESS FOR A PARTICULAR PURPOSE.  See the\n// GNU General Public License for more details.\n\n// You should have received a copy of the GNU General Public License\n// along with this program.  If not, see <http://www.gnu.org/licenses/>.\n\npragma solidity ^0.5.5;\n\nimport \"../proxy/Proxied.sol\";\nimport \"../../authority/Guard.sol\";\nimport \"./Distribution.sol\";\n\n/**\n * @title EndowmentFund\n * @dev Responsible for : manage funds\n * @author @vikrammndal @wafflemakr @Xaleee @ziweidream\n */\n\ncontract EndowmentFund is Distribution, Guard {\n    using SafeMath for uint256;\n\n    Escrow public escrow;\n\n    event WinnerClaimed(uint indexed gameId, address indexed winner, uint256 ethAmount, uint256 ktyAmount, address from);\n    event SentKTYtoEscrow(address sender, uint256 ktyAmount, address receiver);\n    event SentETHtoEscrow(address sender, uint256 ethAmount, address receiver);\n    event Scheduled(uint256 scheduledJob, uint256 time, uint256 gameId);\n\n    /// @notice  the count of all invocations of `generatePotId`.\n    uint256 public potRequestCount;\n    mapping (uint => uint) public scheduledJobs;\n\n    enum HoneypotState {\n        created,\n        assigned,\n        gameScheduled,\n        gameStarted,\n        forefeited,\n        claiming,\n        dissolved\n    }\n\n    /**\n  * @dev check if enough funds present and maintains balance of tokens in DB\n  */\n  function generateHoneyPot(uint256 gameId)\n    external\n    onlyContract(CONTRACT_NAME_GAMECREATION)\n    returns (uint, uint) {\n    return (endowmentDB.generateHoneyPot(gameId));\n  }\n\n    /**\n    * @dev winner claims\n    */\n    function claim(uint256 _gameId) external payable {\n        address payable msgSender = address(uint160(getOriginalSender()));\n\n        // Honeypot status\n        (uint status, uint256 claimTime) = endowmentDB.getHoneypotState(_gameId);\n\n        require(uint(HoneypotState.claiming) == status, \"1\");\n\n        require(now < claimTime, \"2\");\n\n        require(!getWithdrawalState(_gameId, msgSender), \"3\");\n\n        (uint256 winningsETH, uint256 winningsKTY) = getWinnerShare(_gameId, msgSender);\n\n        // make sure enough funds in HoneyPot and update HoneyPot balance\n        require(endowmentDB.updateHoneyPotFund(_gameId, winningsKTY, winningsETH, true));\n\n        if (winningsKTY > 0){\n            transferKTYfromEscrow(msgSender, winningsKTY);\n        }\n\n        if (winningsETH > 0){\n            transferETHfromEscrow(msgSender, winningsETH);\n        }\n\n        // log tokens sent to an address\n        endowmentDB.setTotalDebit(_gameId, msgSender, winningsETH, winningsKTY);\n\n        emit WinnerClaimed(_gameId, msgSender, winningsETH, winningsKTY, address(escrow));\n    }\n\n    /**\n    * @dev send reward to the user that pressed finalize button\n    */\n    function sendFinalizeRewards(address user)\n        external\n        onlyContract(CONTRACT_NAME_GAMEMANAGER)\n        returns(bool)\n    {\n        uint reward = gameVarAndFee.getFinalizeRewards();\n        require(transferKTYfromEscrow(address(uint160(user)), reward));\n        return true;\n    }\n\n    function getWithdrawalState(uint _gameId, address _account) public view returns (bool) {        \n        (uint256 totalETHdebited, uint256 totalKTYdebited) = endowmentDB.getTotalDebit(_gameId, _account);\n        return ((totalETHdebited > 0) && (totalKTYdebited > 0)); // since payout is in full not in parts\n    }\n\n    /**\n    * @dev updateHoneyPotState\n    */\n    function updateHoneyPotState(uint256 _gameId, uint _state) public onlyContract(CONTRACT_NAME_GAMEMANAGER) {\n        uint256 claimTime;\n        if (_state == uint(HoneypotState.claiming)){\n\n            claimTime = now.add(gameStore.getHoneypotExpiration(_gameId));\n\n            //add to cron: schedule desolve of HoneyPot\n            CronJob cron = CronJob(proxy.getContract(CONTRACT_NAME_CRONJOB));\n            uint256 scheduledJob = cron.addCronJob(\n                                            CONTRACT_NAME_ENDOWMENT_FUND,\n                                            claimTime,\n                                            abi.encodeWithSignature(\"scheduleDissolve(uint256)\", _gameId)\n                                            );\n            scheduledJobs[_gameId] = scheduledJob;\n            emit Scheduled(scheduledJob, claimTime, _gameId);\n        }\n        endowmentDB.setHoneypotState(_gameId, _state, claimTime);\n    }\n\n    function deleteCronJob(uint _gameId)\n        external\n        onlyContract(CONTRACT_NAME_ENDOWMENT_DB)\n    {\n       CronJob cron = CronJob(proxy.getContract(CONTRACT_NAME_CRONJOB));\n       cron.deleteCronJob(CONTRACT_NAME_ENDOWMENT_FUND, scheduledJobs[_gameId]);\n    }\n\n    /**\n    * @dev added to cronjob : schedule Honey pot dissolve\n    */\n    function scheduleDissolve(uint256 _gameId)\n        external\n        onlyContract(CONTRACT_NAME_CRONJOB)\n    {\n\n        // move left over funds from honey pot to endowment\n        (uint256 honeyPotBalanceKTY, uint256 honeyPotBalanceETH) = endowmentDB.getHoneyPotBalance(_gameId);\n\n        // update endowmentFund\n        require(endowmentDB.updateEndowmentFund(honeyPotBalanceKTY, honeyPotBalanceETH, false));\n\n        // change state to dissolved\n        endowmentDB.dissolveHoneypot(_gameId, uint(HoneypotState.dissolved));\n\n    }\n\n    /**\n     * @dev Send KTY from EndowmentFund to Escrow\n     */\n    function sendKTYtoEscrow(uint256 _kty_amount)\n        external\n        onlySuperAdmin\n    {\n        require(_kty_amount > 0);\n\n        require(kittieFightToken.transfer(address(escrow), _kty_amount));\n\n        require(endowmentDB.updateEndowmentFund(_kty_amount, 0, false));\n\n        emit SentKTYtoEscrow(address(this), _kty_amount, address(escrow));\n    }\n\n    /**\n     * @dev Send eth to Escrow\n     */\n    function sendETHtoEscrow() external payable {\n        address msgSender = getOriginalSender();\n\n         // not very essential\n        // require(address(escrow) != address(0),\n        //     \"Error: escrow not initialized\");\n        \n\n        require(msg.value > 0);\n\n        address(escrow).transfer(msg.value);\n\n        require(endowmentDB.updateEndowmentFund(0, msg.value, false));\n\n        emit SentETHtoEscrow(msgSender, msg.value, address(escrow));\n    }\n\n    /**\n     * @dev accepts KTY. KTY is transfered to in escrow\n     */\n     \n    function contributeKTY(address _sender, uint256 _kty_amount) external returns(bool) {\n\n        //require(address(escrow) != address(0), \"escrow not initialized\"); //  not very essential\n\n        // do transfer of KTY\n        if (!kittieFightToken.transferFrom(_sender, address(escrow), _kty_amount)){\n            return false;\n        }\n\n        endowmentDB.updateEndowmentFund(_kty_amount, 0, false);\n\n        emit SentKTYtoEscrow(_sender, _kty_amount, address(escrow));\n\n        return true;\n    }\n\n    /**\n     * @dev GM calls\n     */\n    function contributeETH(uint _gameId) external payable returns(bool) {\n        require(address(escrow) != address(0));\n        address msgSender = getOriginalSender();\n\n        require(msg.value > 0);\n\n        // transfer ETH to Escrow\n        if (!address(escrow).send(msg.value)){\n            return false;\n        }\n\n        endowmentDB.updateHoneyPotFund(_gameId, 0, msg.value, false);\n        endowmentDB.updateEndowmentFund(0, msg.value, false);\n\n        emit SentETHtoEscrow(msgSender, msg.value, address(escrow));\n\n        return true;\n    }\n\n    function contributeETH_Ethie() external payable returns(bool) {\n        require(address(escrow) != address(0));\n        address msgSender = getOriginalSender();\n\n        require(msg.value > 0);\n\n        // transfer ETH to Escrow\n        if (!address(escrow).send(msg.value)){\n            return false;\n        }\n\n        endowmentDB.updateEndowmentFund(0, msg.value, false);\n\n        emit SentETHtoEscrow(msgSender, msg.value, address(escrow));\n\n        return true;\n    }\n\n\n    /**\n    * @notice MUST BE DONE BEFORE UPGRADING ENDOWMENT AS IT IS THE OWNER\n    * @dev change Escrow contract owner before UPGRADING ENDOWMENT AS IT IS THE OWNER\n    */\n    function transferEscrowOwnership(address payable _newOwner) external onlySuperAdmin {\n        escrow.transferOwnership(_newOwner);\n    }\n\n    /**\n    * @dev transfer Escrow ETH funds\n    */\n    function transferETHfromEscrow(address payable _someAddress, uint256 _eth_amount)\n    private\n    returns(bool){\n        require(address(_someAddress) != address(0));\n\n        // transfer the ETH\n        require(escrow.transferETH(_someAddress, _eth_amount));\n\n        // Update DB. true = deductFunds\n        require(endowmentDB.updateEndowmentFund(0, _eth_amount, true));\n\n        return true;\n    }\n\n    function transferETHfromEscrowWithdrawalPool(address payable _someAddress, uint256 _eth_amount)\n        public\n        onlyContract(CONTRACT_NAME_WITHDRAWAL_POOL)\n        returns(bool)\n    {\n        transferETHfromEscrow(_someAddress, _eth_amount);\n        return true;\n    }\n\n    function transferETHfromEscrowEarningsTracker(address payable _someAddress, uint256 _eth_amount)\n        public\n        onlyContract(CONTRACT_NAME_EARNINGS_TRACKER)\n        returns(bool)\n    {\n        transferETHfromEscrow(_someAddress, _eth_amount);\n        return true;\n    }\n\n    /**\n    * @dev transfer Escrow KFT funds\n    */\n    function transferKTYfromEscrow(address payable _someAddress, uint256 _kty_amount)\n    private\n    returns(bool){\n        require(address(_someAddress) != address(0));\n\n        // transfer the KTY\n        require(escrow.transferKTY(_someAddress, _kty_amount));\n\n        // Update DB. true = deductFunds\n        require(endowmentDB.updateEndowmentFund(_kty_amount, 0, true));\n\n        return true;\n    }\n\n    /**\n    * @dev Initialize or Upgrade Escrow\n    * @notice BEFORE CALLING: Deploy escrow contract and set the owner as EndowmentFund contract\n    */\n    function initUpgradeEscrow(Escrow _newEscrow) external onlySuperAdmin returns(bool){\n\n        require(address(_newEscrow) != address(0));\n        _newEscrow.initialize(kittieFightToken);\n\n        // check ownership\n        require(_newEscrow.owner() == address(this));\n\n        // KTY is set\n        require(_newEscrow.getKTYaddress() != address(0));\n\n        if (address(escrow) != address(0)){ // Transfer if any funds\n\n            // transfer all the ETH\n            require(escrow.transferETH(address(_newEscrow), address(escrow).balance));\n\n            // transfer all the KTY\n            uint256 ktyBalance = kittieFightToken.balanceOf(address(escrow));\n            require(escrow.transferKTY(address(_newEscrow), ktyBalance));\n\n        }\n\n        escrow = _newEscrow;\n        return true;\n    }\n\n\n    /**\n     * @dev Do not upgrade Endowment if owner of escrow is still this contract's address\n     * Steps:\n     * deploy new Endowment\n     * set owner of escrow to new Endowment adrress using endowment.transferEscrowOwnership(new Endowment adrress)\n     * than set the new Endowment adrress in proxy\n     */\n    function isEndowmentUpgradabe() public view returns(bool){\n        return (address(escrow.owner) != address(this));\n    }\n}\n",
  "sourcePath": "/Users/ziweizhang/Desktop/EarningsTracker/alpha/contracts/modules/endowment/EndowmentFund.sol",
  "compiler": {
    "name": "solc",
    "version": "0.5.17+commit.d19bba13.Emscripten.clang"
  },
  "schemaVersion": "3.0.23",
  "updatedAt": "2020-04-14T13:48:02.109Z",
  "networkType": "ethereum",
  "devdoc": {
    "author": "@vikrammndal @wafflemakr @Xaleee @ziweidream",
    "details": "Responsible for : manage funds",
    "methods": {
      "claim(uint256)": {
        "details": "winner claims"
      },
      "contributeETH(uint256)": {
        "details": "GM calls"
      },
      "contributeKTY(address,uint256)": {
        "details": "accepts KTY. KTY is transfered to in escrow"
      },
      "generateHoneyPot(uint256)": {
        "details": "check if enough funds present and maintains balance of tokens in DB"
      },
      "initUpgradeEscrow(address)": {
        "details": "Initialize or Upgrade Escrow"
      },
      "initialize()": {
        "details": "Sets related contractsCan be called only by the owner of this contract"
      },
      "isEndowmentUpgradabe()": {
        "details": "Do not upgrade Endowment if owner of escrow is still this contract's address Steps: deploy new Endowment set owner of escrow to new Endowment adrress using endowment.transferEscrowOwnership(new Endowment adrress) than set the new Endowment adrress in proxy"
      },
      "scheduleDissolve(uint256)": {
        "details": "added to cronjob : schedule Honey pot dissolve"
      },
      "sendETHtoEscrow()": {
        "details": "Send eth to Escrow"
      },
      "sendFinalizeRewards(address)": {
        "details": "send reward to the user that pressed finalize button"
      },
      "sendKTYtoEscrow(uint256)": {
        "details": "Send KTY from EndowmentFund to Escrow"
      },
      "transferEscrowOwnership(address)": {
        "details": "change Escrow contract owner before UPGRADING ENDOWMENT AS IT IS THE OWNER"
      },
      "updateHoneyPotState(uint256,uint256)": {
        "details": "updateHoneyPotState"
      }
    },
    "title": "EndowmentFund"
  },
  "userdoc": {
    "methods": {
      "getWinnerShare(uint256,address)": {
        "notice": "Calculates amount of Eth the winner can claim"
      },
      "initUpgradeEscrow(address)": {
        "notice": "BEFORE CALLING: Deploy escrow contract and set the owner as EndowmentFund contract"
      },
      "setProxy(address)": {
        "notice": "Set/update address of Proxy contract"
      },
      "transferEscrowOwnership(address)": {
        "notice": "MUST BE DONE BEFORE UPGRADING ENDOWMENT AS IT IS THE OWNER"
      }
    }
  }
}