{
  "contractName": "EndowmentDB",
  "abi": [
    {
      "constant": true,
      "inputs": [],
      "name": "genericDB",
      "outputs": [
        {
          "internalType": "contract GenericDB",
          "name": "",
          "type": "address"
        }
      ],
      "payable": false,
      "stateMutability": "view",
      "type": "function"
    },
    {
      "constant": true,
      "inputs": [],
      "name": "owner",
      "outputs": [
        {
          "internalType": "address payable",
          "name": "",
          "type": "address"
        }
      ],
      "payable": false,
      "stateMutability": "view",
      "type": "function"
    },
    {
      "constant": false,
      "inputs": [
        {
          "internalType": "contract ProxyBase",
          "name": "_proxy",
          "type": "address"
        }
      ],
      "name": "setProxy",
      "outputs": [],
      "payable": false,
      "stateMutability": "nonpayable",
      "type": "function"
    },
    {
      "constant": true,
      "inputs": [],
      "name": "proxy",
      "outputs": [
        {
          "internalType": "contract ProxyBase",
          "name": "",
          "type": "address"
        }
      ],
      "payable": false,
      "stateMutability": "view",
      "type": "function"
    },
    {
      "constant": false,
      "inputs": [
        {
          "internalType": "address payable",
          "name": "newOwner",
          "type": "address"
        }
      ],
      "name": "transferOwnership",
      "outputs": [],
      "payable": false,
      "stateMutability": "nonpayable",
      "type": "function"
    },
    {
      "inputs": [
        {
          "internalType": "contract GenericDB",
          "name": "_genericDB",
          "type": "address"
        }
      ],
      "payable": false,
      "stateMutability": "nonpayable",
      "type": "constructor"
    },
    {
      "constant": false,
      "inputs": [
        {
          "internalType": "contract GenericDB",
          "name": "_genericDB",
          "type": "address"
        }
      ],
      "name": "setGenericDB",
      "outputs": [],
      "payable": false,
      "stateMutability": "nonpayable",
      "type": "function"
    },
    {
      "constant": true,
      "inputs": [
        {
          "internalType": "uint256",
          "name": "_gameId",
          "type": "uint256"
        }
      ],
      "name": "getHoneyPotBalance",
      "outputs": [
        {
          "internalType": "uint256",
          "name": "honeyPotBalanceKTY",
          "type": "uint256"
        },
        {
          "internalType": "uint256",
          "name": "honeyPotBalanceETH",
          "type": "uint256"
        }
      ],
      "payable": false,
      "stateMutability": "view",
      "type": "function"
    },
    {
      "constant": false,
      "inputs": [
        {
          "internalType": "uint256",
          "name": "_gameId",
          "type": "uint256"
        },
        {
          "internalType": "uint256",
          "name": "_kty_amount",
          "type": "uint256"
        },
        {
          "internalType": "uint256",
          "name": "_eth_amount",
          "type": "uint256"
        },
        {
          "internalType": "bool",
          "name": "deductFunds",
          "type": "bool"
        }
      ],
      "name": "updateHoneyPotFund",
      "outputs": [
        {
          "internalType": "bool",
          "name": "",
          "type": "bool"
        }
      ],
      "payable": false,
      "stateMutability": "nonpayable",
      "type": "function"
    },
    {
      "constant": false,
      "inputs": [
        {
          "internalType": "uint256",
          "name": "_kty_amount",
          "type": "uint256"
        },
        {
          "internalType": "uint256",
          "name": "_eth_amount",
          "type": "uint256"
        },
        {
          "internalType": "bool",
          "name": "deductFunds",
          "type": "bool"
        }
      ],
      "name": "updateEndowmentFund",
      "outputs": [
        {
          "internalType": "bool",
          "name": "",
          "type": "bool"
        }
      ],
      "payable": false,
      "stateMutability": "nonpayable",
      "type": "function"
    },
    {
      "constant": true,
      "inputs": [],
      "name": "getEndowmentBalance",
      "outputs": [
        {
          "internalType": "uint256",
          "name": "endowmentBalanceKTY",
          "type": "uint256"
        },
        {
          "internalType": "uint256",
          "name": "endowmentBalanceETH",
          "type": "uint256"
        }
      ],
      "payable": false,
      "stateMutability": "view",
      "type": "function"
    },
    {
      "constant": false,
      "inputs": [
        {
          "internalType": "uint256",
          "name": "gameId",
          "type": "uint256"
        },
        {
          "internalType": "uint256",
          "name": "state",
          "type": "uint256"
        },
        {
          "internalType": "uint256",
          "name": "createdTime",
          "type": "uint256"
        },
        {
          "internalType": "uint256",
          "name": "ktyTotal",
          "type": "uint256"
        },
        {
          "internalType": "uint256",
          "name": "ethTotal",
          "type": "uint256"
        }
      ],
      "name": "createHoneypot",
      "outputs": [],
      "payable": false,
      "stateMutability": "nonpayable",
      "type": "function"
    },
    {
      "constant": true,
      "inputs": [
        {
          "internalType": "uint256",
          "name": "gameId",
          "type": "uint256"
        }
      ],
      "name": "getHoneypotState",
      "outputs": [
        {
          "internalType": "uint256",
          "name": "state",
          "type": "uint256"
        },
        {
          "internalType": "uint256",
          "name": "claimTime",
          "type": "uint256"
        }
      ],
      "payable": false,
      "stateMutability": "view",
      "type": "function"
    },
    {
      "constant": false,
      "inputs": [
        {
          "internalType": "uint256",
          "name": "_gameId",
          "type": "uint256"
        },
        {
          "internalType": "uint256",
          "name": "state",
          "type": "uint256"
        },
        {
          "internalType": "uint256",
          "name": "claimTime",
          "type": "uint256"
        }
      ],
      "name": "setHoneypotState",
      "outputs": [],
      "payable": false,
      "stateMutability": "nonpayable",
      "type": "function"
    },
    {
      "constant": true,
      "inputs": [
        {
          "internalType": "uint256",
          "name": "_gameId",
          "type": "uint256"
        }
      ],
      "name": "getHoneypotTotal",
      "outputs": [
        {
          "internalType": "uint256",
          "name": "totalEth",
          "type": "uint256"
        },
        {
          "internalType": "uint256",
          "name": "totalKty",
          "type": "uint256"
        }
      ],
      "payable": false,
      "stateMutability": "view",
      "type": "function"
    },
    {
      "constant": false,
      "inputs": [
        {
          "internalType": "uint256",
          "name": "gameId",
          "type": "uint256"
        },
        {
          "internalType": "uint256",
          "name": "state",
          "type": "uint256"
        }
      ],
      "name": "dissolveHoneypot",
      "outputs": [],
      "payable": false,
      "stateMutability": "nonpayable",
      "type": "function"
    },
    {
      "constant": false,
      "inputs": [
        {
          "internalType": "uint256",
          "name": "_gameId",
          "type": "uint256"
        },
        {
          "internalType": "address",
          "name": "_account",
          "type": "address"
        },
        {
          "internalType": "uint256",
          "name": "_eth_amount",
          "type": "uint256"
        },
        {
          "internalType": "uint256",
          "name": "_kty_amount",
          "type": "uint256"
        }
      ],
      "name": "setTotalDebit",
      "outputs": [
        {
          "internalType": "bool",
          "name": "",
          "type": "bool"
        }
      ],
      "payable": false,
      "stateMutability": "nonpayable",
      "type": "function"
    },
    {
      "constant": true,
      "inputs": [
        {
          "internalType": "uint256",
          "name": "_gameId",
          "type": "uint256"
        },
        {
          "internalType": "address",
          "name": "_account",
          "type": "address"
        }
      ],
      "name": "getTotalDebit",
      "outputs": [
        {
          "internalType": "uint256",
          "name": "ethTotalDebit",
          "type": "uint256"
        },
        {
          "internalType": "uint256",
          "name": "ktyTotalDebit",
          "type": "uint256"
        }
      ],
      "payable": false,
      "stateMutability": "view",
      "type": "function"
    }
  ],
  "bytecode": "0x60806040523480156200001157600080fd5b506040516200532738038062005327833981810160405260208110156200003757600080fd5b8101908080519060200190929190505050336000806101000a81548173ffffffffffffffffffffffffffffffffffffffff021916908373ffffffffffffffffffffffffffffffffffffffff1602179055506200009981620000a060201b60201c565b506200013b565b6000809054906101000a900473ffffffffffffffffffffffffffffffffffffffff1673ffffffffffffffffffffffffffffffffffffffff163373ffffffffffffffffffffffffffffffffffffffff1614620000f757fe5b80600260006101000a81548173ffffffffffffffffffffffffffffffffffffffff021916908373ffffffffffffffffffffffffffffffffffffffff16021790555050565b6151dc806200014b6000396000f3fe608060405234801561001057600080fd5b506004361061010b5760003560e01c80637cee0879116100a2578063d6f2030911610071578063d6f20309146104ca578063ec55688914610513578063eeea322a1461055d578063f2fde38b146105b3578063f89f07ce146105f75761010b565b80637cee0879146103b15780638da5cb5b146103fa57806397107d6d14610444578063a297bbee146104885761010b565b80635acce36b116100de5780635acce36b1461026d5780636213fc6d146102925780636933bbd71461030c578063712153b3146103555761010b565b8063231eb691146101105780633564e78c146101795780634afab815146101c357806350b1a7cd14610207575b600080fd5b61015c6004803603604081101561012657600080fd5b8101908080359060200190929190803573ffffffffffffffffffffffffffffffffffffffff16906020019092919050505061062f565b604051808381526020018281526020019250505060405180910390f35b610181610cb0565b604051808273ffffffffffffffffffffffffffffffffffffffff1673ffffffffffffffffffffffffffffffffffffffff16815260200191505060405180910390f35b610205600480360360208110156101d957600080fd5b81019080803573ffffffffffffffffffffffffffffffffffffffff169060200190929190505050610cd6565b005b6102536004803603608081101561021d57600080fd5b81019080803590602001909291908035906020019092919080359060200190929190803515159060200190929190505050610d70565b604051808215151515815260200191505060405180910390f35b6102756118d9565b604051808381526020018281526020019250505060405180910390f35b6102f2600480360360808110156102a857600080fd5b8101908080359060200190929190803573ffffffffffffffffffffffffffffffffffffffff1690602001909291908035906020019092919080359060200190929190505050611c10565b604051808215151515815260200191505060405180910390f35b6103386004803603602081101561032257600080fd5b8101908080359060200190929190505050612541565b604051808381526020018281526020019250505060405180910390f35b6103976004803603606081101561036b57600080fd5b810190808035906020019092919080359060200190929190803515159060200190929190505050612889565b604051808215151515815260200191505060405180910390f35b6103dd600480360360208110156103c757600080fd5b8101908080359060200190929190505050613326565b604051808381526020018281526020019250505060405180910390f35b61040261366e565b604051808273ffffffffffffffffffffffffffffffffffffffff1673ffffffffffffffffffffffffffffffffffffffff16815260200191505060405180910390f35b6104866004803603602081101561045a57600080fd5b81019080803573ffffffffffffffffffffffffffffffffffffffff169060200190929190505050613693565b005b6104c86004803603606081101561049e57600080fd5b8101908080359060200190929190803590602001909291908035906020019092919050505061372d565b005b6104f6600480360360208110156104e057600080fd5b8101908080359060200190929190505050613bd1565b604051808381526020018281526020019250505060405180910390f35b61051b613f19565b604051808273ffffffffffffffffffffffffffffffffffffffff1673ffffffffffffffffffffffffffffffffffffffff16815260200191505060405180910390f35b6105b1600480360360a081101561057357600080fd5b810190808035906020019092919080359060200190929190803590602001909291908035906020019092919080359060200190929190505050613f3f565b005b6105f5600480360360208110156105c957600080fd5b81019080803573ffffffffffffffffffffffffffffffffffffffff169060200190929190505050614817565b005b61062d6004803603604081101561060d57600080fd5b8101908080359060200190929190803590602001909291905050506148e5565b005b6000806040518060400160405280600d81526020017f456e646f776d656e7446756e640000000000000000000000000000000000000081525061067181614de4565b84600260009054906101000a900473ffffffffffffffffffffffffffffffffffffffff1673ffffffffffffffffffffffffffffffffffffffff166396edc0096040518060400160405280600b81526020017f456e646f776d656e74444200000000000000000000000000000000000000000081525060405160200180807f486f6e6579706f745461626c6500000000000000000000000000000000000000815250600d01905060405160208183030381529060405280519060200120846040518463ffffffff1660e01b81526004018080602001848152602001838152602001828103825285818151815260200191508051906020019080838360005b8381101561078957808201518184015260208101905061076e565b50505050905090810190601f1680156107b65780820380516001836020036101000a031916815260200191505b5094505050505060206040518083038186803b1580156107d557600080fd5b505afa1580156107e9573d6000803e3d6000fd5b505050506040513d60208110156107ff57600080fd5b81019080805190602001909291905050506040518060400160405280600a81526020017f4e6f742065786973747300000000000000000000000000000000000000000000815250906108ec576040517f08c379a00000000000000000000000000000000000000000000000000000000081526004018080602001828103825283818151815260200191508051906020019080838360005b838110156108b1578082015181840152602081019050610896565b50505050905090810190601f1680156108de5780820380516001836020036101000a031916815260200191505b509250505060405180910390fd5b5060008686604051602001808381526020018273ffffffffffffffffffffffffffffffffffffffff1673ffffffffffffffffffffffffffffffffffffffff1660601b8152601401807f65746844656269740000000000000000000000000000000000000000000000008152506008019250505060405160208183030381529060405280519060200120905060008787604051602001808381526020018273ffffffffffffffffffffffffffffffffffffffff1673ffffffffffffffffffffffffffffffffffffffff1660601b8152601401807f6b7479446562697400000000000000000000000000000000000000000000000081525060080192505050604051602081830303815290604052805190602001209050600260009054906101000a900473ffffffffffffffffffffffffffffffffffffffff1673ffffffffffffffffffffffffffffffffffffffff166308acb5566040518060400160405280600b81526020017f456e646f776d656e744442000000000000000000000000000000000000000000815250846040518363ffffffff1660e01b81526004018080602001838152602001828103825284818151815260200191508051906020019080838360005b83811015610acb578082015181840152602081019050610ab0565b50505050905090810190601f168015610af85780820380516001836020036101000a031916815260200191505b50935050505060206040518083038186803b158015610b1657600080fd5b505afa158015610b2a573d6000803e3d6000fd5b505050506040513d6020811015610b4057600080fd5b81019080805190602001909291905050509550600260009054906101000a900473ffffffffffffffffffffffffffffffffffffffff1673ffffffffffffffffffffffffffffffffffffffff166308acb5566040518060400160405280600b81526020017f456e646f776d656e744442000000000000000000000000000000000000000000815250836040518363ffffffff1660e01b81526004018080602001838152602001828103825284818151815260200191508051906020019080838360005b83811015610c1d578082015181840152602081019050610c02565b50505050905090810190601f168015610c4a5780820380516001836020036101000a031916815260200191505b50935050505060206040518083038186803b158015610c6857600080fd5b505afa158015610c7c573d6000803e3d6000fd5b505050506040513d6020811015610c9257600080fd5b81019080805190602001909291905050509450505050509250929050565b600260009054906101000a900473ffffffffffffffffffffffffffffffffffffffff1681565b6000809054906101000a900473ffffffffffffffffffffffffffffffffffffffff1673ffffffffffffffffffffffffffffffffffffffff163373ffffffffffffffffffffffffffffffffffffffff1614610d2c57fe5b80600260006101000a81548173ffffffffffffffffffffffffffffffffffffffff021916908373ffffffffffffffffffffffffffffffffffffffff16021790555050565b60006040518060400160405280600d81526020017f456e646f776d656e7446756e6400000000000000000000000000000000000000815250610db181614de4565b600080600087111561125b5760008860405160200180828152602001807f6b7479546f74616c000000000000000000000000000000000000000000000000815250600801915050604051602081830303815290604052805190602001209050600260009054906101000a900473ffffffffffffffffffffffffffffffffffffffff1673ffffffffffffffffffffffffffffffffffffffff166308acb5566040518060400160405280600b81526020017f456e646f776d656e744442000000000000000000000000000000000000000000815250836040518363ffffffff1660e01b81526004018080602001838152602001828103825284818151815260200191508051906020019080838360005b83811015610eda578082015181840152602081019050610ebf565b50505050905090810190601f168015610f075780820380516001836020036101000a031916815260200191505b50935050505060206040518083038186803b158015610f2557600080fd5b505afa158015610f39573d6000803e3d6000fd5b505050506040513d6020811015610f4f57600080fd5b81019080805190602001909291905050509250851561110f5787831015610fc1576040517f08c379a000000000000000000000000000000000000000000000000000000000815260040180806020018281038252603881526020018061510b6038913960400191505060405180910390fd5b600260009054906101000a900473ffffffffffffffffffffffffffffffffffffffff1673ffffffffffffffffffffffffffffffffffffffff16630214a37c6040518060400160405280600b81526020017f456e646f776d656e744442000000000000000000000000000000000000000000815250836110498c8861507f90919063ffffffff16565b6040518463ffffffff1660e01b81526004018080602001848152602001838152602001828103825285818151815260200191508051906020019080838360005b838110156110a4578082015181840152602081019050611089565b50505050905090810190601f1680156110d15780820380516001836020036101000a031916815260200191505b50945050505050600060405180830381600087803b1580156110f257600080fd5b505af1158015611106573d6000803e3d6000fd5b50505050611259565b600260009054906101000a900473ffffffffffffffffffffffffffffffffffffffff1673ffffffffffffffffffffffffffffffffffffffff16630214a37c6040518060400160405280600b81526020017f456e646f776d656e744442000000000000000000000000000000000000000000815250836111978c8861509690919063ffffffff16565b6040518463ffffffff1660e01b81526004018080602001848152602001838152602001828103825285818151815260200191508051906020019080838360005b838110156111f25780820151818401526020810190506111d7565b50505050905090810190601f16801561121f5780820380516001836020036101000a031916815260200191505b50945050505050600060405180830381600087803b15801561124057600080fd5b505af1158015611254573d6000803e3d6000fd5b505050505b505b60008611156117025760008860405160200180828152602001807f657468546f74616c000000000000000000000000000000000000000000000000815250600801915050604051602081830303815290604052805190602001209050600260009054906101000a900473ffffffffffffffffffffffffffffffffffffffff1673ffffffffffffffffffffffffffffffffffffffff166308acb5566040518060400160405280600b81526020017f456e646f776d656e744442000000000000000000000000000000000000000000815250836040518363ffffffff1660e01b81526004018080602001838152602001828103825284818151815260200191508051906020019080838360005b83811015611381578082015181840152602081019050611366565b50505050905090810190601f1680156113ae5780820380516001836020036101000a031916815260200191505b50935050505060206040518083038186803b1580156113cc57600080fd5b505afa1580156113e0573d6000803e3d6000fd5b505050506040513d60208110156113f657600080fd5b8101908080519060200190929190505050915085156115b65786821015611468576040517f08c379a00000000000000000000000000000000000000000000000000000000081526004018080602001828103825260388152602001806151706038913960400191505060405180910390fd5b600260009054906101000a900473ffffffffffffffffffffffffffffffffffffffff1673ffffffffffffffffffffffffffffffffffffffff16630214a37c6040518060400160405280600b81526020017f456e646f776d656e744442000000000000000000000000000000000000000000815250836114f08b8761507f90919063ffffffff16565b6040518463ffffffff1660e01b81526004018080602001848152602001838152602001828103825285818151815260200191508051906020019080838360005b8381101561154b578082015181840152602081019050611530565b50505050905090810190601f1680156115785780820380516001836020036101000a031916815260200191505b50945050505050600060405180830381600087803b15801561159957600080fd5b505af11580156115ad573d6000803e3d6000fd5b50505050611700565b600260009054906101000a900473ffffffffffffffffffffffffffffffffffffffff1673ffffffffffffffffffffffffffffffffffffffff16630214a37c6040518060400160405280600b81526020017f456e646f776d656e7444420000000000000000000000000000000000000000008152508361163e8b8761509690919063ffffffff16565b6040518463ffffffff1660e01b81526004018080602001848152602001838152602001828103825285818151815260200191508051906020019080838360005b8381101561169957808201518184015260208101905061167e565b50505050905090810190601f1680156116c65780820380516001836020036101000a031916815260200191505b50945050505050600060405180830381600087803b1580156116e757600080fd5b505af11580156116fb573d6000803e3d6000fd5b505050505b505b6000811480156117125750600082145b156118ca57600160009054906101000a900473ffffffffffffffffffffffffffffffffffffffff1673ffffffffffffffffffffffffffffffffffffffff1663358177736040518060400160405280600d81526020017f456e646f776d656e7446756e64000000000000000000000000000000000000008152506040518263ffffffff1660e01b81526004018080602001828103825283818151815260200191508051906020019080838360005b838110156117da5780820151818401526020810190506117bf565b50505050905090810190601f1680156118075780820380516001836020036101000a031916815260200191505b509250505060206040518083038186803b15801561182457600080fd5b505afa158015611838573d6000803e3d6000fd5b505050506040513d602081101561184e57600080fd5b810190808051906020019092919050505073ffffffffffffffffffffffffffffffffffffffff1663ea87605b896040518263ffffffff1660e01b815260040180828152602001915050600060405180830381600087803b1580156118b157600080fd5b505af11580156118c5573d6000803e3d6000fd5b505050505b60019350505050949350505050565b600080600260009054906101000a900473ffffffffffffffffffffffffffffffffffffffff1673ffffffffffffffffffffffffffffffffffffffff166308acb5566040518060400160405280600b81526020017f456e646f776d656e74444200000000000000000000000000000000000000000081525060405160200180807f61637475616c46756e64734b5459000000000000000000000000000000000000815250600e019050604051602081830303815290604052805190602001206040518363ffffffff1660e01b81526004018080602001838152602001828103825284818151815260200191508051906020019080838360005b838110156119ec5780820151818401526020810190506119d1565b50505050905090810190601f168015611a195780820380516001836020036101000a031916815260200191505b50935050505060206040518083038186803b158015611a3757600080fd5b505afa158015611a4b573d6000803e3d6000fd5b505050506040513d6020811015611a6157600080fd5b81019080805190602001909291905050509150600260009054906101000a900473ffffffffffffffffffffffffffffffffffffffff1673ffffffffffffffffffffffffffffffffffffffff166308acb5566040518060400160405280600b81526020017f456e646f776d656e74444200000000000000000000000000000000000000000081525060405160200180807f61637475616c46756e6473455448000000000000000000000000000000000000815250600e019050604051602081830303815290604052805190602001206040518363ffffffff1660e01b81526004018080602001838152602001828103825284818151815260200191508051906020019080838360005b83811015611b84578082015181840152602081019050611b69565b50505050905090810190601f168015611bb15780820380516001836020036101000a031916815260200191505b50935050505060206040518083038186803b158015611bcf57600080fd5b505afa158015611be3573d6000803e3d6000fd5b505050506040513d6020811015611bf957600080fd5b810190808051906020019092919050505090509091565b60006040518060400160405280600d81526020017f456e646f776d656e7446756e6400000000000000000000000000000000000000815250611c5181614de4565b85600260009054906101000a900473ffffffffffffffffffffffffffffffffffffffff1673ffffffffffffffffffffffffffffffffffffffff166396edc0096040518060400160405280600b81526020017f456e646f776d656e74444200000000000000000000000000000000000000000081525060405160200180807f486f6e6579706f745461626c6500000000000000000000000000000000000000815250600d01905060405160208183030381529060405280519060200120846040518463ffffffff1660e01b81526004018080602001848152602001838152602001828103825285818151815260200191508051906020019080838360005b83811015611d69578082015181840152602081019050611d4e565b50505050905090810190601f168015611d965780820380516001836020036101000a031916815260200191505b5094505050505060206040518083038186803b158015611db557600080fd5b505afa158015611dc9573d6000803e3d6000fd5b505050506040513d6020811015611ddf57600080fd5b81019080805190602001909291905050506040518060400160405280600a81526020017f4e6f74206578697374730000000000000000000000000000000000000000000081525090611ecc576040517f08c379a00000000000000000000000000000000000000000000000000000000081526004018080602001828103825283818151815260200191508051906020019080838360005b83811015611e91578082015181840152602081019050611e76565b50505050905090810190601f168015611ebe5780820380516001836020036101000a031916815260200191505b509250505060405180910390fd5b5060008511156122005760008787604051602001808381526020018273ffffffffffffffffffffffffffffffffffffffff1673ffffffffffffffffffffffffffffffffffffffff1660601b8152601401807f6574684465626974000000000000000000000000000000000000000000000000815250600801925050506040516020818303038152906040528051906020012090506000600260009054906101000a900473ffffffffffffffffffffffffffffffffffffffff1673ffffffffffffffffffffffffffffffffffffffff166308acb5566040518060400160405280600b81526020017f456e646f776d656e744442000000000000000000000000000000000000000000815250846040518363ffffffff1660e01b81526004018080602001838152602001828103825284818151815260200191508051906020019080838360005b8381101561202c578082015181840152602081019050612011565b50505050905090810190601f1680156120595780820380516001836020036101000a031916815260200191505b50935050505060206040518083038186803b15801561207757600080fd5b505afa15801561208b573d6000803e3d6000fd5b505050506040513d60208110156120a157600080fd5b81019080805190602001909291905050509050600260009054906101000a900473ffffffffffffffffffffffffffffffffffffffff1673ffffffffffffffffffffffffffffffffffffffff16630214a37c6040518060400160405280600b81526020017f456e646f776d656e7444420000000000000000000000000000000000000000008152508461213c8b8661509690919063ffffffff16565b6040518463ffffffff1660e01b81526004018080602001848152602001838152602001828103825285818151815260200191508051906020019080838360005b8381101561219757808201518184015260208101905061217c565b50505050905090810190601f1680156121c45780820380516001836020036101000a031916815260200191505b50945050505050600060405180830381600087803b1580156121e557600080fd5b505af11580156121f9573d6000803e3d6000fd5b5050505050505b60008411156125335760008787604051602001808381526020018273ffffffffffffffffffffffffffffffffffffffff1673ffffffffffffffffffffffffffffffffffffffff1660601b8152601401807f6b74794465626974000000000000000000000000000000000000000000000000815250600801925050506040516020818303038152906040528051906020012090506000600260009054906101000a900473ffffffffffffffffffffffffffffffffffffffff1673ffffffffffffffffffffffffffffffffffffffff166308acb5566040518060400160405280600b81526020017f456e646f776d656e744442000000000000000000000000000000000000000000815250846040518363ffffffff1660e01b81526004018080602001838152602001828103825284818151815260200191508051906020019080838360005b8381101561235f578082015181840152602081019050612344565b50505050905090810190601f16801561238c5780820380516001836020036101000a031916815260200191505b50935050505060206040518083038186803b1580156123aa57600080fd5b505afa1580156123be573d6000803e3d6000fd5b505050506040513d60208110156123d457600080fd5b81019080805190602001909291905050509050600260009054906101000a900473ffffffffffffffffffffffffffffffffffffffff1673ffffffffffffffffffffffffffffffffffffffff16630214a37c6040518060400160405280600b81526020017f456e646f776d656e7444420000000000000000000000000000000000000000008152508461246f8a8661509690919063ffffffff16565b6040518463ffffffff1660e01b81526004018080602001848152602001838152602001828103825285818151815260200191508051906020019080838360005b838110156124ca5780820151818401526020810190506124af565b50505050905090810190601f1680156124f75780820380516001836020036101000a031916815260200191505b50945050505050600060405180830381600087803b15801561251857600080fd5b505af115801561252c573d6000803e3d6000fd5b5050505050505b600192505050949350505050565b600080600260009054906101000a900473ffffffffffffffffffffffffffffffffffffffff1673ffffffffffffffffffffffffffffffffffffffff166308acb5566040518060400160405280600b81526020017f456e646f776d656e7444420000000000000000000000000000000000000000008152508560405160200180828152602001807f7374617465000000000000000000000000000000000000000000000000000000815250600501915050604051602081830303815290604052805190602001206040518363ffffffff1660e01b81526004018080602001838152602001828103825284818151815260200191508051906020019080838360005b8381101561265c578082015181840152602081019050612641565b50505050905090810190601f1680156126895780820380516001836020036101000a031916815260200191505b50935050505060206040518083038186803b1580156126a757600080fd5b505afa1580156126bb573d6000803e3d6000fd5b505050506040513d60208110156126d157600080fd5b8101908080519060200190929190505050600260009054906101000a900473ffffffffffffffffffffffffffffffffffffffff1673ffffffffffffffffffffffffffffffffffffffff166308acb5566040518060400160405280600b81526020017f456e646f776d656e7444420000000000000000000000000000000000000000008152508660405160200180828152602001807f636c61696d54696d650000000000000000000000000000000000000000000000815250600901915050604051602081830303815290604052805190602001206040518363ffffffff1660e01b81526004018080602001838152602001828103825284818151815260200191508051906020019080838360005b838110156127fa5780820151818401526020810190506127df565b50505050905090810190601f1680156128275780820380516001836020036101000a031916815260200191505b50935050505060206040518083038186803b15801561284557600080fd5b505afa158015612859573d6000803e3d6000fd5b505050506040513d602081101561286f57600080fd5b810190808051906020019092919050505091509150915091565b60006040518060400160405280600d81526020017f456e646f776d656e7446756e64000000000000000000000000000000000000008152506128ca81614de4565b6000851115612df2576000600260009054906101000a900473ffffffffffffffffffffffffffffffffffffffff1673ffffffffffffffffffffffffffffffffffffffff166308acb5566040518060400160405280600b81526020017f456e646f776d656e74444200000000000000000000000000000000000000000081525060405160200180807f61637475616c46756e64734b5459000000000000000000000000000000000000815250600e019050604051602081830303815290604052805190602001206040518363ffffffff1660e01b81526004018080602001838152602001828103825284818151815260200191508051906020019080838360005b838110156129e55780820151818401526020810190506129ca565b50505050905090810190601f168015612a125780820380516001836020036101000a031916815260200191505b50935050505060206040518083038186803b158015612a3057600080fd5b505afa158015612a44573d6000803e3d6000fd5b505050506040513d6020811015612a5a57600080fd5b810190808051906020019092919050505090508315612c605785811015612acc576040517f08c379a000000000000000000000000000000000000000000000000000000000815260040180806020018281038252602c8152602001806150b3602c913960400191505060405180910390fd5b600260009054906101000a900473ffffffffffffffffffffffffffffffffffffffff1673ffffffffffffffffffffffffffffffffffffffff16630214a37c6040518060400160405280600b81526020017f456e646f776d656e74444200000000000000000000000000000000000000000081525060405160200180807f61637475616c46756e64734b5459000000000000000000000000000000000000815250600e01905060405160208183030381529060405280519060200120612b9a8a8661507f90919063ffffffff16565b6040518463ffffffff1660e01b81526004018080602001848152602001838152602001828103825285818151815260200191508051906020019080838360005b83811015612bf5578082015181840152602081019050612bda565b50505050905090810190601f168015612c225780820380516001836020036101000a031916815260200191505b50945050505050600060405180830381600087803b158015612c4357600080fd5b505af1158015612c57573d6000803e3d6000fd5b50505050612df0565b600260009054906101000a900473ffffffffffffffffffffffffffffffffffffffff1673ffffffffffffffffffffffffffffffffffffffff16630214a37c6040518060400160405280600b81526020017f456e646f776d656e74444200000000000000000000000000000000000000000081525060405160200180807f61637475616c46756e64734b5459000000000000000000000000000000000000815250600e01905060405160208183030381529060405280519060200120612d2e8a8661509690919063ffffffff16565b6040518463ffffffff1660e01b81526004018080602001848152602001838152602001828103825285818151815260200191508051906020019080838360005b83811015612d89578082015181840152602081019050612d6e565b50505050905090810190601f168015612db65780820380516001836020036101000a031916815260200191505b50945050505050600060405180830381600087803b158015612dd757600080fd5b505af1158015612deb573d6000803e3d6000fd5b505050505b505b600084111561331a576000600260009054906101000a900473ffffffffffffffffffffffffffffffffffffffff1673ffffffffffffffffffffffffffffffffffffffff166308acb5566040518060400160405280600b81526020017f456e646f776d656e74444200000000000000000000000000000000000000000081525060405160200180807f61637475616c46756e6473455448000000000000000000000000000000000000815250600e019050604051602081830303815290604052805190602001206040518363ffffffff1660e01b81526004018080602001838152602001828103825284818151815260200191508051906020019080838360005b83811015612f0d578082015181840152602081019050612ef2565b50505050905090810190601f168015612f3a5780820380516001836020036101000a031916815260200191505b50935050505060206040518083038186803b158015612f5857600080fd5b505afa158015612f6c573d6000803e3d6000fd5b505050506040513d6020811015612f8257600080fd5b8101908080519060200190929190505050905083156131885784811015612ff4576040517f08c379a000000000000000000000000000000000000000000000000000000000815260040180806020018281038252602c8152602001806150df602c913960400191505060405180910390fd5b600260009054906101000a900473ffffffffffffffffffffffffffffffffffffffff1673ffffffffffffffffffffffffffffffffffffffff16630214a37c6040518060400160405280600b81526020017f456e646f776d656e74444200000000000000000000000000000000000000000081525060405160200180807f61637475616c46756e6473455448000000000000000000000000000000000000815250600e019050604051602081830303815290604052805190602001206130c2898661507f90919063ffffffff16565b6040518463ffffffff1660e01b81526004018080602001848152602001838152602001828103825285818151815260200191508051906020019080838360005b8381101561311d578082015181840152602081019050613102565b50505050905090810190601f16801561314a5780820380516001836020036101000a031916815260200191505b50945050505050600060405180830381600087803b15801561316b57600080fd5b505af115801561317f573d6000803e3d6000fd5b50505050613318565b600260009054906101000a900473ffffffffffffffffffffffffffffffffffffffff1673ffffffffffffffffffffffffffffffffffffffff16630214a37c6040518060400160405280600b81526020017f456e646f776d656e74444200000000000000000000000000000000000000000081525060405160200180807f61637475616c46756e6473455448000000000000000000000000000000000000815250600e01905060405160208183030381529060405280519060200120613256898661509690919063ffffffff16565b6040518463ffffffff1660e01b81526004018080602001848152602001838152602001828103825285818151815260200191508051906020019080838360005b838110156132b1578082015181840152602081019050613296565b50505050905090810190601f1680156132de5780820380516001836020036101000a031916815260200191505b50945050505050600060405180830381600087803b1580156132ff57600080fd5b505af1158015613313573d6000803e3d6000fd5b505050505b505b60019150509392505050565b600080600260009054906101000a900473ffffffffffffffffffffffffffffffffffffffff1673ffffffffffffffffffffffffffffffffffffffff166308acb5566040518060400160405280600b81526020017f456e646f776d656e7444420000000000000000000000000000000000000000008152508560405160200180828152602001807f657468546f74616c000000000000000000000000000000000000000000000000815250600801915050604051602081830303815290604052805190602001206040518363ffffffff1660e01b81526004018080602001838152602001828103825284818151815260200191508051906020019080838360005b83811015613441578082015181840152602081019050613426565b50505050905090810190601f16801561346e5780820380516001836020036101000a031916815260200191505b50935050505060206040518083038186803b15801561348c57600080fd5b505afa1580156134a0573d6000803e3d6000fd5b505050506040513d60208110156134b657600080fd5b81019080805190602001909291905050509150600260009054906101000a900473ffffffffffffffffffffffffffffffffffffffff1673ffffffffffffffffffffffffffffffffffffffff166308acb5566040518060400160405280600b81526020017f456e646f776d656e7444420000000000000000000000000000000000000000008152508560405160200180828152602001807f6b7479546f74616c000000000000000000000000000000000000000000000000815250600801915050604051602081830303815290604052805190602001206040518363ffffffff1660e01b81526004018080602001838152602001828103825284818151815260200191508051906020019080838360005b838110156135e15780820151818401526020810190506135c6565b50505050905090810190601f16801561360e5780820380516001836020036101000a031916815260200191505b50935050505060206040518083038186803b15801561362c57600080fd5b505afa158015613640573d6000803e3d6000fd5b505050506040513d602081101561365657600080fd5b81019080805190602001909291905050509050915091565b6000809054906101000a900473ffffffffffffffffffffffffffffffffffffffff1681565b6000809054906101000a900473ffffffffffffffffffffffffffffffffffffffff1673ffffffffffffffffffffffffffffffffffffffff163373ffffffffffffffffffffffffffffffffffffffff16146136e957fe5b80600160006101000a81548173ffffffffffffffffffffffffffffffffffffffff021916908373ffffffffffffffffffffffffffffffffffffffff16021790555050565b600260009054906101000a900473ffffffffffffffffffffffffffffffffffffffff1673ffffffffffffffffffffffffffffffffffffffff16630214a37c6040518060400160405280600b81526020017f456e646f776d656e7444420000000000000000000000000000000000000000008152508560405160200180828152602001807f737461746500000000000000000000000000000000000000000000000000000081525060050191505060405160208183030381529060405280519060200120856040518463ffffffff1660e01b81526004018080602001848152602001838152602001828103825285818151815260200191508051906020019080838360005b8381101561384c578082015181840152602081019050613831565b50505050905090810190601f1680156138795780820380516001836020036101000a031916815260200191505b50945050505050600060405180830381600087803b15801561389a57600080fd5b505af11580156138ae573d6000803e3d6000fd5b505050506000811115613a4557600260009054906101000a900473ffffffffffffffffffffffffffffffffffffffff1673ffffffffffffffffffffffffffffffffffffffff16630214a37c6040518060400160405280600b81526020017f456e646f776d656e7444420000000000000000000000000000000000000000008152508560405160200180828152602001807f636c61696d54696d65000000000000000000000000000000000000000000000081525060090191505060405160208183030381529060405280519060200120846040518463ffffffff1660e01b81526004018080602001848152602001838152602001828103825285818151815260200191508051906020019080838360005b838110156139da5780820151818401526020810190506139bf565b50505050905090810190601f168015613a075780820380516001836020036101000a031916815260200191505b50945050505050600060405180830381600087803b158015613a2857600080fd5b505af1158015613a3c573d6000803e3d6000fd5b50505050613bcc565b600260009054906101000a900473ffffffffffffffffffffffffffffffffffffffff1673ffffffffffffffffffffffffffffffffffffffff16630214a37c6040518060400160405280600b81526020017f456e646f776d656e7444420000000000000000000000000000000000000000008152508560405160200180828152602001807f636c61696d54696d6500000000000000000000000000000000000000000000008152506009019150506040516020818303038152906040528051906020012060006040518463ffffffff1660e01b81526004018080602001848152602001838152602001828103825285818151815260200191508051906020019080838360005b83811015613b65578082015181840152602081019050613b4a565b50505050905090810190601f168015613b925780820380516001836020036101000a031916815260200191505b50945050505050600060405180830381600087803b158015613bb357600080fd5b505af1158015613bc7573d6000803e3d6000fd5b505050505b505050565b600080600260009054906101000a900473ffffffffffffffffffffffffffffffffffffffff1673ffffffffffffffffffffffffffffffffffffffff166308acb5566040518060400160405280600b81526020017f456e646f776d656e7444420000000000000000000000000000000000000000008152508560405160200180828152602001807f6b7479546f74616c000000000000000000000000000000000000000000000000815250600801915050604051602081830303815290604052805190602001206040518363ffffffff1660e01b81526004018080602001838152602001828103825284818151815260200191508051906020019080838360005b83811015613cec578082015181840152602081019050613cd1565b50505050905090810190601f168015613d195780820380516001836020036101000a031916815260200191505b50935050505060206040518083038186803b158015613d3757600080fd5b505afa158015613d4b573d6000803e3d6000fd5b505050506040513d6020811015613d6157600080fd5b81019080805190602001909291905050509150600260009054906101000a900473ffffffffffffffffffffffffffffffffffffffff1673ffffffffffffffffffffffffffffffffffffffff166308acb5566040518060400160405280600b81526020017f456e646f776d656e7444420000000000000000000000000000000000000000008152508560405160200180828152602001807f657468546f74616c000000000000000000000000000000000000000000000000815250600801915050604051602081830303815290604052805190602001206040518363ffffffff1660e01b81526004018080602001838152602001828103825284818151815260200191508051906020019080838360005b83811015613e8c578082015181840152602081019050613e71565b50505050905090810190601f168015613eb95780820380516001836020036101000a031916815260200191505b50935050505060206040518083038186803b158015613ed757600080fd5b505afa158015613eeb573d6000803e3d6000fd5b505050506040513d6020811015613f0157600080fd5b81019080805190602001909291905050509050915091565b600160009054906101000a900473ffffffffffffffffffffffffffffffffffffffff1681565b6040518060400160405280600d81526020017f456e646f776d656e7446756e6400000000000000000000000000000000000000815250613f7e81614de4565b600260009054906101000a900473ffffffffffffffffffffffffffffffffffffffff1673ffffffffffffffffffffffffffffffffffffffff166387d533626040518060400160405280600b81526020017f456e646f776d656e74444200000000000000000000000000000000000000000081525060405160200180807f486f6e6579706f745461626c6500000000000000000000000000000000000000815250600d01905060405160208183030381529060405280519060200120896040518463ffffffff1660e01b81526004018080602001848152602001838152602001828103825285818151815260200191508051906020019080838360005b8381101561409557808201518184015260208101905061407a565b50505050905090810190601f1680156140c25780820380516001836020036101000a031916815260200191505b50945050505050602060405180830381600087803b1580156140e357600080fd5b505af11580156140f7573d6000803e3d6000fd5b505050506040513d602081101561410d57600080fd5b81019080805190602001909291905050506040518060400160405280600e81526020017f416c726561647920657869737473000000000000000000000000000000000000815250906141fa576040517f08c379a00000000000000000000000000000000000000000000000000000000081526004018080602001828103825283818151815260200191508051906020019080838360005b838110156141bf5780820151818401526020810190506141a4565b50505050905090810190601f1680156141ec5780820380516001836020036101000a031916815260200191505b509250505060405180910390fd5b50600260009054906101000a900473ffffffffffffffffffffffffffffffffffffffff1673ffffffffffffffffffffffffffffffffffffffff16630214a37c6040518060400160405280600b81526020017f456e646f776d656e7444420000000000000000000000000000000000000000008152508860405160200180828152602001807f737461746500000000000000000000000000000000000000000000000000000081525060050191505060405160208183030381529060405280519060200120886040518463ffffffff1660e01b81526004018080602001848152602001838152602001828103825285818151815260200191508051906020019080838360005b8381101561431a5780820151818401526020810190506142ff565b50505050905090810190601f1680156143475780820380516001836020036101000a031916815260200191505b50945050505050600060405180830381600087803b15801561436857600080fd5b505af115801561437c573d6000803e3d6000fd5b50505050600260009054906101000a900473ffffffffffffffffffffffffffffffffffffffff1673ffffffffffffffffffffffffffffffffffffffff16630214a37c6040518060400160405280600b81526020017f456e646f776d656e7444420000000000000000000000000000000000000000008152508860405160200180828152602001807f6372656174656454696d65000000000000000000000000000000000000000000815250600b0191505060405160208183030381529060405280519060200120876040518463ffffffff1660e01b81526004018080602001848152602001838152602001828103825285818151815260200191508051906020019080838360005b8381101561449f578082015181840152602081019050614484565b50505050905090810190601f1680156144cc5780820380516001836020036101000a031916815260200191505b50945050505050600060405180830381600087803b1580156144ed57600080fd5b505af1158015614501573d6000803e3d6000fd5b50505050600260009054906101000a900473ffffffffffffffffffffffffffffffffffffffff1673ffffffffffffffffffffffffffffffffffffffff16630214a37c6040518060400160405280600b81526020017f456e646f776d656e7444420000000000000000000000000000000000000000008152508860405160200180828152602001807f6b7479546f74616c00000000000000000000000000000000000000000000000081525060080191505060405160208183030381529060405280519060200120866040518463ffffffff1660e01b81526004018080602001848152602001838152602001828103825285818151815260200191508051906020019080838360005b83811015614624578082015181840152602081019050614609565b50505050905090810190601f1680156146515780820380516001836020036101000a031916815260200191505b50945050505050600060405180830381600087803b15801561467257600080fd5b505af1158015614686573d6000803e3d6000fd5b50505050600260009054906101000a900473ffffffffffffffffffffffffffffffffffffffff1673ffffffffffffffffffffffffffffffffffffffff16630214a37c6040518060400160405280600b81526020017f456e646f776d656e7444420000000000000000000000000000000000000000008152508860405160200180828152602001807f657468546f74616c00000000000000000000000000000000000000000000000081525060080191505060405160208183030381529060405280519060200120856040518463ffffffff1660e01b81526004018080602001848152602001838152602001828103825285818151815260200191508051906020019080838360005b838110156147a957808201518184015260208101905061478e565b50505050905090810190601f1680156147d65780820380516001836020036101000a031916815260200191505b50945050505050600060405180830381600087803b1580156147f757600080fd5b505af115801561480b573d6000803e3d6000fd5b50505050505050505050565b6000809054906101000a900473ffffffffffffffffffffffffffffffffffffffff1673ffffffffffffffffffffffffffffffffffffffff163373ffffffffffffffffffffffffffffffffffffffff161461486d57fe5b600073ffffffffffffffffffffffffffffffffffffffff168173ffffffffffffffffffffffffffffffffffffffff16146148e257806000806101000a81548173ffffffffffffffffffffffffffffffffffffffff021916908373ffffffffffffffffffffffffffffffffffffffff1602179055505b50565b6040518060400160405280600d81526020017f456e646f776d656e7446756e640000000000000000000000000000000000000081525061492481614de4565b6000600260009054906101000a900473ffffffffffffffffffffffffffffffffffffffff1673ffffffffffffffffffffffffffffffffffffffff166308acb5566040518060400160405280600b81526020017f456e646f776d656e7444420000000000000000000000000000000000000000008152508660405160200180828152602001807f636c61696d54696d650000000000000000000000000000000000000000000000815250600901915050604051602081830303815290604052805190602001206040518363ffffffff1660e01b81526004018080602001838152602001828103825284818151815260200191508051906020019080838360005b83811015614a3e578082015181840152602081019050614a23565b50505050905090810190601f168015614a6b5780820380516001836020036101000a031916815260200191505b50935050505060206040518083038186803b158015614a8957600080fd5b505afa158015614a9d573d6000803e3d6000fd5b505050506040513d6020811015614ab357600080fd5b8101908080519060200190929190505050905060008111614ad357600080fd5b600260009054906101000a900473ffffffffffffffffffffffffffffffffffffffff1673ffffffffffffffffffffffffffffffffffffffff16630214a37c6040518060400160405280600b81526020017f456e646f776d656e7444420000000000000000000000000000000000000000008152508660405160200180828152602001807f737461746500000000000000000000000000000000000000000000000000000081525060050191505060405160208183030381529060405280519060200120866040518463ffffffff1660e01b81526004018080602001848152602001838152602001828103825285818151815260200191508051906020019080838360005b83811015614bf2578082015181840152602081019050614bd7565b50505050905090810190601f168015614c1f5780820380516001836020036101000a031916815260200191505b50945050505050600060405180830381600087803b158015614c4057600080fd5b505af1158015614c54573d6000803e3d6000fd5b50505050600260009054906101000a900473ffffffffffffffffffffffffffffffffffffffff1673ffffffffffffffffffffffffffffffffffffffff16630214a37c6040518060400160405280600b81526020017f456e646f776d656e7444420000000000000000000000000000000000000000008152508660405160200180828152602001807f636c61696d54696d6500000000000000000000000000000000000000000000008152506009019150506040516020818303038152906040528051906020012060006040518463ffffffff1660e01b81526004018080602001848152602001838152602001828103825285818151815260200191508051906020019080838360005b83811015614d78578082015181840152602081019050614d5d565b50505050905090810190601f168015614da55780820380516001836020036101000a031916815260200191505b50945050505050600060405180830381600087803b158015614dc657600080fd5b505af1158015614dda573d6000803e3d6000fd5b5050505050505050565b600073ffffffffffffffffffffffffffffffffffffffff16600160009054906101000a900473ffffffffffffffffffffffffffffffffffffffff1673ffffffffffffffffffffffffffffffffffffffff161415614ea9576040517f08c379a00000000000000000000000000000000000000000000000000000000081526004018080602001828103825260088152602001807f4e6f2050726f787900000000000000000000000000000000000000000000000081525060200191505060405180910390fd5b6000600160009054906101000a900473ffffffffffffffffffffffffffffffffffffffff1673ffffffffffffffffffffffffffffffffffffffff166335817773836040518263ffffffff1660e01b81526004018080602001828103825283818151815260200191508051906020019080838360005b83811015614f39578082015181840152602081019050614f1e565b50505050905090810190601f168015614f665780820380516001836020036101000a031916815260200191505b509250505060206040518083038186803b158015614f8357600080fd5b505afa158015614f97573d6000803e3d6000fd5b505050506040513d6020811015614fad57600080fd5b81019080805190602001909291905050509050600073ffffffffffffffffffffffffffffffffffffffff168173ffffffffffffffffffffffffffffffffffffffff161415614ff757fe5b8073ffffffffffffffffffffffffffffffffffffffff163373ffffffffffffffffffffffffffffffffffffffff161461507b576040517f08c379a000000000000000000000000000000000000000000000000000000000815260040180806020018281038252602d815260200180615143602d913960400191505060405180910390fd5b5050565b60008282111561508b57fe5b818303905092915050565b6000808284019050838110156150a857fe5b809150509291505056fe494e53554646494349454e54204b545920696e20456e646f776d656e742e2031353634363536383035303536494e53554646494349454e542045544820696e20456e646f776d656e742e20313536343635363538393933374572726f723a20757064617465486f6e6579506f7446756e64282920696e73756666696369656e74204b545920696e20486f6e6579506f74416363657373206973206f6e6c7920616c6c6f7765642066726f6d20737065636966696320636f6e74726163744572726f723a20757064617465486f6e6579506f7446756e64282920696e73756666696369656e742045544820696e20486f6e6579506f74a265627a7a72315820fad0566630070ba14786f32db8b46de1cbf6bf148f0c799a18b3fa10168fa5d864736f6c634300050b0032",
  "source": "pragma solidity ^0.5.5;\n\nimport \"./GenericDB.sol\";\nimport \"../proxy/Proxied.sol\";\nimport \"../../libs/SafeMath.sol\";\nimport \"../endowment/EndowmentFund.sol\";\n\ncontract EndowmentDB is Proxied {\n  using SafeMath for uint256;\n\n  GenericDB public genericDB;\n\n  // TABLE_KEY_PROFILE for ProfileDB lookup (read-only).\n  bytes32 internal constant TABLE_KEY_PROFILE = keccak256(abi.encodePacked(\"ProfileTable\"));\n  // TABLE_KEY_HONEYPOT defines a set for active Honeypots of EndowmentFund.\n  bytes32 internal constant TABLE_KEY_HONEYPOT = keccak256(abi.encodePacked(\"HoneypotTable\"));\n  // TABLE_KEY_HONEYPOT_DISSOLVED defines a set for dissolved honeypots of EndowmentFund.\n  bytes32 internal constant TABLE_KEY_HONEYPOT_DISSOLVED = keccak256(abi.encodePacked(\"HoneypotDissolvedTable\"));\n  // TABLE_NAME_CONTRIBUTION_KTY defines a set of KTY contributors of a honeypot of EndowmentFund.\n  bytes32 internal constant TABLE_NAME_CONTRIBUTION_KTY = \"ContributionTableKTY\";\n  // TABLE_NAME_CONTRIBUTION_ETH defines a set of ETH contributors of a honeypot of EndowmentFund.\n  bytes32 internal constant TABLE_NAME_CONTRIBUTION_ETH = \"ContributionTableETH\";\n  // VAR_KEY_ACTUAL_FUNDS_KTY\n  bytes32 internal constant VAR_KEY_ACTUAL_FUNDS_KTY = keccak256(abi.encodePacked(\"actualFundsKTY\"));\n  // VAR_KEY_ACTUAL_FUNDS_ETH\n  bytes32 internal constant VAR_KEY_ACTUAL_FUNDS_ETH = keccak256(abi.encodePacked(\"actualFundsETH\"));\n  // VAR_KEY_INGAME_FUNDS_KTY\n  bytes32 internal constant VAR_KEY_INGAME_FUNDS_KTY = keccak256(abi.encodePacked(\"ingameFundsKTY\"));\n  // VAR_KEY_INGAME_FUNDS_ETH\n  bytes32 internal constant VAR_KEY_INGAME_FUNDS_ETH = keccak256(abi.encodePacked(\"ingameFundsETH\"));\n\n  string internal constant ERROR_DOES_NOT_EXIST = \"Not exists\";\n  string internal constant ERROR_NOT_REGISTERED = \"Not registered\";\n  string internal constant ERROR_ALREADY_EXIST = \"Already exists\";\n  string internal constant ERROR_INSUFFICIENT_FUNDS = \"Insufficient funds\";\n\n  constructor(GenericDB _genericDB) public {\n    setGenericDB(_genericDB);\n  }\n\n  function setGenericDB(GenericDB _genericDB) public onlyOwner {\n    genericDB = _genericDB;\n  }\n\n  function getHoneyPotBalance(uint256 _gameId) public view\n  returns (uint256 honeyPotBalanceKTY, uint256 honeyPotBalanceETH)  {\n    honeyPotBalanceKTY = genericDB.getUintStorage(CONTRACT_NAME_ENDOWMENT_DB, keccak256(abi.encodePacked(_gameId, \"ktyTotal\")));\n    honeyPotBalanceETH = genericDB.getUintStorage(CONTRACT_NAME_ENDOWMENT_DB, keccak256(abi.encodePacked(_gameId, \"ethTotal\")));\n\n  }\n\n  function updateHoneyPotFund(\n    uint256 _gameId, uint256 _kty_amount, uint256 _eth_amount, bool deductFunds\n  )\n    external\n    onlyContract(CONTRACT_NAME_ENDOWMENT_FUND)\n    returns (bool)\n  {\n    uint honeyPotKtyTotal;\n    uint honeyPotEthTotal;\n\n    if (_kty_amount > 0){\n\n      // get total Kty availabe in the HoneyPot\n      bytes32 honeyPotKtyTotalKey = keccak256(abi.encodePacked(_gameId, \"ktyTotal\"));\n      honeyPotKtyTotal = genericDB.getUintStorage(CONTRACT_NAME_ENDOWMENT_DB, honeyPotKtyTotalKey);\n\n      if (deductFunds){\n\n        require(honeyPotKtyTotal >= _kty_amount,\n          \"Error: updateHoneyPotFund() insufficient KTY in HoneyPot\");\n\n        genericDB.setUintStorage(CONTRACT_NAME_ENDOWMENT_DB, honeyPotKtyTotalKey, honeyPotKtyTotal.sub(_kty_amount));\n\n      }else{ // add\n\n        genericDB.setUintStorage(CONTRACT_NAME_ENDOWMENT_DB, honeyPotKtyTotalKey, honeyPotKtyTotal.add(_kty_amount));\n\n      }\n    }\n\n    if (_eth_amount > 0){\n      // get total Eth availabe in the HoneyPot\n      bytes32 honeyPotEthTotalKey = keccak256(abi.encodePacked(_gameId, \"ethTotal\"));\n      honeyPotEthTotal = genericDB.getUintStorage(CONTRACT_NAME_ENDOWMENT_DB, honeyPotEthTotalKey);\n\n      if (deductFunds){\n\n        require(honeyPotEthTotal >= _eth_amount,\n          \"Error: updateHoneyPotFund() insufficient ETH in HoneyPot\");\n\n        genericDB.setUintStorage(CONTRACT_NAME_ENDOWMENT_DB, honeyPotEthTotalKey, honeyPotEthTotal.sub(_eth_amount));\n\n      }else{ // add\n\n        genericDB.setUintStorage(CONTRACT_NAME_ENDOWMENT_DB, honeyPotEthTotalKey, honeyPotEthTotal.add(_eth_amount));\n\n      }\n    }\n\n    if(honeyPotEthTotal == 0 && honeyPotKtyTotal == 0)\n      EndowmentFund(proxy.getContract(CONTRACT_NAME_ENDOWMENT_FUND)).deleteCronJob(_gameId);\n\n    return true;\n  }\n\n  function updateEndowmentFund(\n    uint256 _kty_amount, uint256 _eth_amount, bool deductFunds\n  )\n    external\n    onlyContract(CONTRACT_NAME_ENDOWMENT_FUND)\n    returns (bool)\n  {\n\n    if (_kty_amount > 0){\n\n      uint actualFundsKTY = genericDB.getUintStorage(CONTRACT_NAME_ENDOWMENT_DB, VAR_KEY_ACTUAL_FUNDS_KTY);\n      if (deductFunds){\n\n        require(actualFundsKTY >= _kty_amount,\n          'INSUFFICIENT KTY in Endowment. 1564656805056');\n\n        genericDB.setUintStorage(CONTRACT_NAME_ENDOWMENT_DB, VAR_KEY_ACTUAL_FUNDS_KTY, actualFundsKTY.sub(_kty_amount));\n\n      }else{ // add\n        genericDB.setUintStorage(CONTRACT_NAME_ENDOWMENT_DB, VAR_KEY_ACTUAL_FUNDS_KTY, actualFundsKTY.add(_kty_amount));\n\n      }\n    }\n\n    if (_eth_amount > 0){\n      uint actualFundsETH = genericDB.getUintStorage(CONTRACT_NAME_ENDOWMENT_DB, VAR_KEY_ACTUAL_FUNDS_ETH);\n\n      if (deductFunds){\n\n        require(actualFundsETH >= _eth_amount,\n          'INSUFFICIENT ETH in Endowment. 1564656589937');\n\n        genericDB.setUintStorage(CONTRACT_NAME_ENDOWMENT_DB, VAR_KEY_ACTUAL_FUNDS_ETH, actualFundsETH.sub(_eth_amount));\n\n      }else{ // add\n\n        genericDB.setUintStorage(CONTRACT_NAME_ENDOWMENT_DB, VAR_KEY_ACTUAL_FUNDS_ETH, actualFundsETH.add(_eth_amount));\n\n      }\n    }\n\n    return true;\n  }\n\n  function getEndowmentBalance() public view\n  returns (uint256 endowmentBalanceKTY, uint256 endowmentBalanceETH)  {\n    endowmentBalanceKTY = genericDB.getUintStorage(CONTRACT_NAME_ENDOWMENT_DB, VAR_KEY_ACTUAL_FUNDS_KTY);\n    endowmentBalanceETH = genericDB.getUintStorage(CONTRACT_NAME_ENDOWMENT_DB, VAR_KEY_ACTUAL_FUNDS_ETH);\n  }\n\n  function createHoneypot(\n    uint gameId,\n    uint state,\n    uint createdTime,\n    uint ktyTotal,\n    uint ethTotal\n  )\n    external\n    onlyContract(CONTRACT_NAME_ENDOWMENT_FUND)\n  {\n    require(genericDB.pushNodeToLinkedList(CONTRACT_NAME_ENDOWMENT_DB, TABLE_KEY_HONEYPOT, gameId), ERROR_ALREADY_EXIST);\n    genericDB.setUintStorage(CONTRACT_NAME_ENDOWMENT_DB, keccak256(abi.encodePacked(gameId, \"state\")), state);\n    genericDB.setUintStorage(CONTRACT_NAME_ENDOWMENT_DB, keccak256(abi.encodePacked(gameId, \"createdTime\")), createdTime);\n    genericDB.setUintStorage(CONTRACT_NAME_ENDOWMENT_DB, keccak256(abi.encodePacked(gameId, \"ktyTotal\")), ktyTotal);\n    genericDB.setUintStorage(CONTRACT_NAME_ENDOWMENT_DB, keccak256(abi.encodePacked(gameId, \"ethTotal\")), ethTotal);\n  }\n\n  function getHoneypotState(\n    uint gameId\n  )\n    external\n    view returns (uint state, uint256 claimTime)\n  {\n    return(\n      genericDB.getUintStorage(CONTRACT_NAME_ENDOWMENT_DB, keccak256(abi.encodePacked(gameId, \"state\"))),\n      genericDB.getUintStorage(CONTRACT_NAME_ENDOWMENT_DB, keccak256(abi.encodePacked(gameId, \"claimTime\")))\n    );\n  }\n\n  function setHoneypotState( uint _gameId, uint state, uint256 claimTime) external {\n    genericDB.setUintStorage(CONTRACT_NAME_ENDOWMENT_DB, keccak256(abi.encodePacked(_gameId, \"state\")), state);\n    if (claimTime > 0){\n      genericDB.setUintStorage(CONTRACT_NAME_ENDOWMENT_DB, keccak256(abi.encodePacked(_gameId, \"claimTime\")), claimTime);\n    }\n    else{\n      genericDB.setUintStorage(CONTRACT_NAME_ENDOWMENT_DB, keccak256(abi.encodePacked(_gameId, \"claimTime\")), 0);\n    }\n  }\n\n\n  function getHoneypotTotal(uint _gameId) external view returns (uint256 totalEth, uint256 totalKty) {\n      totalEth = genericDB.getUintStorage(CONTRACT_NAME_ENDOWMENT_DB, keccak256(abi.encodePacked(_gameId, \"ethTotal\")));\n      totalKty = genericDB.getUintStorage(CONTRACT_NAME_ENDOWMENT_DB, keccak256(abi.encodePacked(_gameId, \"ktyTotal\")));\n  }\n\n  function dissolveHoneypot(\n    uint gameId,\n    uint state\n  )\n    external\n    onlyContract(CONTRACT_NAME_ENDOWMENT_FUND)\n    /*onlyExistingHoneypot(gameId)*/\n  {\n    // require(genericDB.pushNodeToLinkedList(CONTRACT_NAME_ENDOWMENT_DB, TABLE_KEY_HONEYPOT_DISSOLVED, gameId));\n    // require(genericDB.removeNodeFromLinkedList(CONTRACT_NAME_ENDOWMENT_DB, TABLE_KEY_HONEYPOT, gameId));\n    uint256 claimTime = genericDB.getUintStorage(CONTRACT_NAME_ENDOWMENT_DB, keccak256(abi.encodePacked(gameId, \"claimTime\")));\n    require(claimTime > 0);\n    genericDB.setUintStorage(CONTRACT_NAME_ENDOWMENT_DB, keccak256(abi.encodePacked(gameId, \"state\")), state);\n    genericDB.setUintStorage(CONTRACT_NAME_ENDOWMENT_DB, keccak256(abi.encodePacked(gameId, \"claimTime\")), 0);\n\n  }\n\n/**\n * @dev store the total debit by an a/c per game\n */\n  function setTotalDebit(\n    uint _gameId, address _account, uint _eth_amount, uint _kty_amount\n  ) external\n    onlyContract(CONTRACT_NAME_ENDOWMENT_FUND)\n    //onlyExistingProfile(_account)\n    onlyExistingHoneypot(_gameId)\n    returns (bool) {\n\n    if (_eth_amount > 0) {\n\n      bytes32 ethTotalDebitPerGamePerAcKey = keccak256(abi.encodePacked(_gameId, _account, \"ethDebit\"));\n      uint ethTotal = genericDB.getUintStorage(CONTRACT_NAME_ENDOWMENT_DB, ethTotalDebitPerGamePerAcKey);\n      genericDB.setUintStorage(CONTRACT_NAME_ENDOWMENT_DB, ethTotalDebitPerGamePerAcKey, ethTotal.add(_eth_amount));\n\n    }\n\n    if (_kty_amount > 0) {\n\n      bytes32 ktyTotalDebitPerGamePerAcKey = keccak256(abi.encodePacked(_gameId, _account, \"ktyDebit\"));\n      uint ktyTotal = genericDB.getUintStorage(CONTRACT_NAME_ENDOWMENT_DB, ktyTotalDebitPerGamePerAcKey);\n      genericDB.setUintStorage(CONTRACT_NAME_ENDOWMENT_DB, ktyTotalDebitPerGamePerAcKey, ktyTotal.add(_kty_amount));\n\n    }\n\n  return true;\n  }\n\n\n/**\n * @dev get total debit by an a/c per game\n */\n  function getTotalDebit(\n    uint _gameId, address _account\n  ) external view\n    onlyContract(CONTRACT_NAME_ENDOWMENT_FUND)\n    //onlyExistingProfile(_account)\n    onlyExistingHoneypot(_gameId)\n    returns (uint256 ethTotalDebit, uint256 ktyTotalDebit) {\n      bytes32 ethTotalDebitPerGamePerAcKey = keccak256(abi.encodePacked(_gameId, _account, \"ethDebit\"));\n      bytes32 ktyTotalDebitPerGamePerAcKey = keccak256(abi.encodePacked(_gameId, _account, \"ktyDebit\"));\n      ethTotalDebit = genericDB.getUintStorage(CONTRACT_NAME_ENDOWMENT_DB, ethTotalDebitPerGamePerAcKey);\n      ktyTotalDebit = genericDB.getUintStorage(CONTRACT_NAME_ENDOWMENT_DB, ktyTotalDebitPerGamePerAcKey);\n  }\n\n\n  modifier onlyExistingHoneypot(uint gameId) {\n    require(genericDB.doesNodeExist(CONTRACT_NAME_ENDOWMENT_DB, TABLE_KEY_HONEYPOT, gameId), ERROR_DOES_NOT_EXIST);\n    _;\n  }\n\n  modifier onlyExistingProfile(address account) {\n    require(genericDB.doesNodeAddrExist(CONTRACT_NAME_PROFILE_DB, TABLE_KEY_PROFILE, account), ERROR_NOT_REGISTERED);\n    _;\n  }\n}\n\n",
  "sourcePath": "/home/wafflemakr/Desktop/KittieFight/alpha/contracts/modules/databases/EndowmentDB.sol",
  "compiler": {
    "name": "solc",
    "version": "0.5.11+commit.c082d0b4.Emscripten.clang"
  },
  "schemaVersion": "3.0.11",
  "updatedAt": "2019-08-18T18:46:02.799Z",
  "devdoc": {
    "methods": {
      "getTotalDebit(uint256,address)": {
        "details": "get total debit by an a/c per game"
      },
      "setTotalDebit(uint256,address,uint256,uint256)": {
        "details": "store the total debit by an a/c per game"
      }
    }
  },
  "userdoc": {
    "methods": {
      "setProxy(address)": {
        "notice": "Set/update address of Proxy contract"
      }
    }
  }
}