{
  "contractName": "EndowmentFund",
  "abi": [
    {
      "anonymous": false,
      "inputs": [
        {
          "indexed": false,
          "internalType": "uint256",
          "name": "scheduledJob",
          "type": "uint256"
        },
        {
          "indexed": false,
          "internalType": "uint256",
          "name": "time",
          "type": "uint256"
        },
        {
          "indexed": false,
          "internalType": "uint256",
          "name": "gameId",
          "type": "uint256"
        }
      ],
      "name": "Scheduled",
      "type": "event"
    },
    {
      "anonymous": false,
      "inputs": [
        {
          "indexed": false,
          "internalType": "address",
          "name": "sender",
          "type": "address"
        },
        {
          "indexed": false,
          "internalType": "uint256",
          "name": "ethAmount",
          "type": "uint256"
        },
        {
          "indexed": false,
          "internalType": "address",
          "name": "receiver",
          "type": "address"
        }
      ],
      "name": "SentETHtoEscrow",
      "type": "event"
    },
    {
      "anonymous": false,
      "inputs": [
        {
          "indexed": false,
          "internalType": "address",
          "name": "sender",
          "type": "address"
        },
        {
          "indexed": false,
          "internalType": "uint256",
          "name": "ktyAmount",
          "type": "uint256"
        },
        {
          "indexed": false,
          "internalType": "address",
          "name": "receiver",
          "type": "address"
        }
      ],
      "name": "SentKTYtoEscrow",
      "type": "event"
    },
    {
      "anonymous": false,
      "inputs": [
        {
          "indexed": true,
          "internalType": "uint256",
          "name": "gameId",
          "type": "uint256"
        },
        {
          "indexed": true,
          "internalType": "address",
          "name": "winner",
          "type": "address"
        },
        {
          "indexed": false,
          "internalType": "uint256",
          "name": "ethAmount",
          "type": "uint256"
        },
        {
          "indexed": false,
          "internalType": "uint256",
          "name": "ktyAmount",
          "type": "uint256"
        },
        {
          "indexed": false,
          "internalType": "address",
          "name": "from",
          "type": "address"
        }
      ],
      "name": "WinnerClaimed",
      "type": "event"
    },
    {
      "constant": true,
      "inputs": [
        {
          "internalType": "uint256",
          "name": "gameId",
          "type": "uint256"
        },
        {
          "internalType": "address payable",
          "name": "claimer",
          "type": "address"
        },
        {
          "internalType": "address",
          "name": "winner",
          "type": "address"
        }
      ],
      "name": "checkWinnerCategory",
      "outputs": [
        {
          "internalType": "uint256",
          "name": "winningGroup",
          "type": "uint256"
        }
      ],
      "payable": false,
      "stateMutability": "view",
      "type": "function"
    },
    {
      "constant": true,
      "inputs": [],
      "name": "endowmentDB",
      "outputs": [
        {
          "internalType": "contract EndowmentDB",
          "name": "",
          "type": "address"
        }
      ],
      "payable": false,
      "stateMutability": "view",
      "type": "function"
    },
    {
      "constant": true,
      "inputs": [],
      "name": "escrow",
      "outputs": [
        {
          "internalType": "contract Escrow",
          "name": "",
          "type": "address"
        }
      ],
      "payable": false,
      "stateMutability": "view",
      "type": "function"
    },
    {
      "constant": true,
      "inputs": [],
      "name": "gameStore",
      "outputs": [
        {
          "internalType": "contract GameStore",
          "name": "",
          "type": "address"
        }
      ],
      "payable": false,
      "stateMutability": "view",
      "type": "function"
    },
    {
      "constant": true,
      "inputs": [],
      "name": "gameVarAndFee",
      "outputs": [
        {
          "internalType": "contract GameVarAndFee",
          "name": "",
          "type": "address"
        }
      ],
      "payable": false,
      "stateMutability": "view",
      "type": "function"
    },
    {
      "constant": true,
      "inputs": [
        {
          "internalType": "uint256",
          "name": "gameId",
          "type": "uint256"
        }
      ],
      "name": "getEndowmentShare",
      "outputs": [
        {
          "internalType": "uint256",
          "name": "winningsETH",
          "type": "uint256"
        },
        {
          "internalType": "uint256",
          "name": "winningsKTY",
          "type": "uint256"
        }
      ],
      "payable": false,
      "stateMutability": "view",
      "type": "function"
    },
    {
      "constant": true,
      "inputs": [
        {
          "internalType": "uint256",
          "name": "gameId",
          "type": "uint256"
        }
      ],
      "name": "getWinnerLoser",
      "outputs": [
        {
          "internalType": "address",
          "name": "winner",
          "type": "address"
        },
        {
          "internalType": "address",
          "name": "loser",
          "type": "address"
        },
        {
          "internalType": "uint256",
          "name": "totalBetsForLosingCorner",
          "type": "uint256"
        }
      ],
      "payable": false,
      "stateMutability": "view",
      "type": "function"
    },
    {
      "constant": true,
      "inputs": [
        {
          "internalType": "uint256",
          "name": "gameId",
          "type": "uint256"
        },
        {
          "internalType": "address payable",
          "name": "claimer",
          "type": "address"
        }
      ],
      "name": "getWinnerShare",
      "outputs": [
        {
          "internalType": "uint256",
          "name": "winningsETH",
          "type": "uint256"
        },
        {
          "internalType": "uint256",
          "name": "winningsKTY",
          "type": "uint256"
        }
      ],
      "payable": false,
      "stateMutability": "view",
      "type": "function"
    },
    {
      "constant": true,
      "inputs": [],
      "name": "gmGetterDB",
      "outputs": [
        {
          "internalType": "contract GMGetterDB",
          "name": "",
          "type": "address"
        }
      ],
      "payable": false,
      "stateMutability": "view",
      "type": "function"
    },
    {
      "constant": false,
      "inputs": [],
      "name": "initialize",
      "outputs": [],
      "payable": false,
      "stateMutability": "nonpayable",
      "type": "function"
    },
    {
      "constant": true,
      "inputs": [],
      "name": "kittieFightToken",
      "outputs": [
        {
          "internalType": "contract ERC20Standard",
          "name": "",
          "type": "address"
        }
      ],
      "payable": false,
      "stateMutability": "view",
      "type": "function"
    },
    {
      "constant": true,
      "inputs": [],
      "name": "owner",
      "outputs": [
        {
          "internalType": "address payable",
          "name": "",
          "type": "address"
        }
      ],
      "payable": false,
      "stateMutability": "view",
      "type": "function"
    },
    {
      "constant": true,
      "inputs": [],
      "name": "potRequestCount",
      "outputs": [
        {
          "internalType": "uint256",
          "name": "",
          "type": "uint256"
        }
      ],
      "payable": false,
      "stateMutability": "view",
      "type": "function"
    },
    {
      "constant": true,
      "inputs": [],
      "name": "proxy",
      "outputs": [
        {
          "internalType": "contract ProxyBase",
          "name": "",
          "type": "address"
        }
      ],
      "payable": false,
      "stateMutability": "view",
      "type": "function"
    },
    {
      "constant": true,
      "inputs": [
        {
          "internalType": "uint256",
          "name": "",
          "type": "uint256"
        }
      ],
      "name": "scheduledJobs",
      "outputs": [
        {
          "internalType": "uint256",
          "name": "",
          "type": "uint256"
        }
      ],
      "payable": false,
      "stateMutability": "view",
      "type": "function"
    },
    {
      "constant": false,
      "inputs": [
        {
          "internalType": "contract ProxyBase",
          "name": "_proxy",
          "type": "address"
        }
      ],
      "name": "setProxy",
      "outputs": [],
      "payable": false,
      "stateMutability": "nonpayable",
      "type": "function"
    },
    {
      "constant": false,
      "inputs": [
        {
          "internalType": "address payable",
          "name": "newOwner",
          "type": "address"
        }
      ],
      "name": "transferOwnership",
      "outputs": [],
      "payable": false,
      "stateMutability": "nonpayable",
      "type": "function"
    },
    {
      "constant": false,
      "inputs": [
        {
          "internalType": "uint256",
          "name": "gameId",
          "type": "uint256"
        }
      ],
      "name": "generateHoneyPot",
      "outputs": [
        {
          "internalType": "uint256",
          "name": "",
          "type": "uint256"
        },
        {
          "internalType": "uint256",
          "name": "",
          "type": "uint256"
        }
      ],
      "payable": false,
      "stateMutability": "nonpayable",
      "type": "function"
    },
    {
      "constant": false,
      "inputs": [
        {
          "internalType": "uint256",
          "name": "_gameId",
          "type": "uint256"
        }
      ],
      "name": "claim",
      "outputs": [],
      "payable": true,
      "stateMutability": "payable",
      "type": "function"
    },
    {
      "constant": false,
      "inputs": [
        {
          "internalType": "address",
          "name": "user",
          "type": "address"
        }
      ],
      "name": "sendFinalizeRewards",
      "outputs": [
        {
          "internalType": "bool",
          "name": "",
          "type": "bool"
        }
      ],
      "payable": false,
      "stateMutability": "nonpayable",
      "type": "function"
    },
    {
      "constant": true,
      "inputs": [
        {
          "internalType": "uint256",
          "name": "_gameId",
          "type": "uint256"
        },
        {
          "internalType": "address",
          "name": "_account",
          "type": "address"
        }
      ],
      "name": "getWithdrawalState",
      "outputs": [
        {
          "internalType": "bool",
          "name": "",
          "type": "bool"
        }
      ],
      "payable": false,
      "stateMutability": "view",
      "type": "function"
    },
    {
      "constant": false,
      "inputs": [
        {
          "internalType": "uint256",
          "name": "_gameId",
          "type": "uint256"
        },
        {
          "internalType": "uint256",
          "name": "_state",
          "type": "uint256"
        }
      ],
      "name": "updateHoneyPotState",
      "outputs": [],
      "payable": false,
      "stateMutability": "nonpayable",
      "type": "function"
    },
    {
      "constant": false,
      "inputs": [
        {
          "internalType": "uint256",
          "name": "_gameId",
          "type": "uint256"
        }
      ],
      "name": "deleteCronJob",
      "outputs": [],
      "payable": false,
      "stateMutability": "nonpayable",
      "type": "function"
    },
    {
      "constant": false,
      "inputs": [
        {
          "internalType": "uint256",
          "name": "_gameId",
          "type": "uint256"
        }
      ],
      "name": "scheduleDissolve",
      "outputs": [],
      "payable": false,
      "stateMutability": "nonpayable",
      "type": "function"
    },
    {
      "constant": false,
      "inputs": [
        {
          "internalType": "uint256",
          "name": "_kty_amount",
          "type": "uint256"
        }
      ],
      "name": "sendKTYtoEscrow",
      "outputs": [],
      "payable": false,
      "stateMutability": "nonpayable",
      "type": "function"
    },
    {
      "constant": false,
      "inputs": [],
      "name": "sendETHtoEscrow",
      "outputs": [],
      "payable": true,
      "stateMutability": "payable",
      "type": "function"
    },
    {
      "constant": false,
      "inputs": [
        {
          "internalType": "address",
          "name": "_sender",
          "type": "address"
        },
        {
          "internalType": "uint256",
          "name": "_kty_amount",
          "type": "uint256"
        }
      ],
      "name": "contributeKTY",
      "outputs": [
        {
          "internalType": "bool",
          "name": "",
          "type": "bool"
        }
      ],
      "payable": false,
      "stateMutability": "nonpayable",
      "type": "function"
    },
    {
      "constant": false,
      "inputs": [
        {
          "internalType": "uint256",
          "name": "_gameId",
          "type": "uint256"
        }
      ],
      "name": "contributeETH",
      "outputs": [
        {
          "internalType": "bool",
          "name": "",
          "type": "bool"
        }
      ],
      "payable": true,
      "stateMutability": "payable",
      "type": "function"
    },
    {
      "constant": false,
      "inputs": [],
      "name": "contributeETH_Ethie",
      "outputs": [
        {
          "internalType": "bool",
          "name": "",
          "type": "bool"
        }
      ],
      "payable": true,
      "stateMutability": "payable",
      "type": "function"
    },
    {
      "constant": false,
      "inputs": [
        {
          "internalType": "address payable",
          "name": "_newOwner",
          "type": "address"
        }
      ],
      "name": "transferEscrowOwnership",
      "outputs": [],
      "payable": false,
      "stateMutability": "nonpayable",
      "type": "function"
    },
    {
      "constant": false,
      "inputs": [
        {
          "internalType": "address payable",
          "name": "_someAddress",
          "type": "address"
        },
        {
          "internalType": "uint256",
          "name": "_eth_amount",
          "type": "uint256"
        }
      ],
      "name": "transferETHfromEscrowWithdrawalPool",
      "outputs": [
        {
          "internalType": "bool",
          "name": "",
          "type": "bool"
        }
      ],
      "payable": false,
      "stateMutability": "nonpayable",
      "type": "function"
    },
    {
      "constant": false,
      "inputs": [
        {
          "internalType": "address payable",
          "name": "_someAddress",
          "type": "address"
        },
        {
          "internalType": "uint256",
          "name": "_eth_amount",
          "type": "uint256"
        }
      ],
      "name": "transferETHfromEscrowEarningsTracker",
      "outputs": [
        {
          "internalType": "bool",
          "name": "",
          "type": "bool"
        }
      ],
      "payable": false,
      "stateMutability": "nonpayable",
      "type": "function"
    },
    {
      "constant": false,
      "inputs": [
        {
          "internalType": "uint256",
          "name": "gameId",
          "type": "uint256"
        },
        {
          "internalType": "uint256",
          "name": "totalETHinHoneypot",
          "type": "uint256"
        }
      ],
      "name": "addETHtoPool",
      "outputs": [],
      "payable": false,
      "stateMutability": "nonpayable",
      "type": "function"
    },
    {
      "constant": false,
      "inputs": [
        {
          "internalType": "contract Escrow",
          "name": "_newEscrow",
          "type": "address"
        }
      ],
      "name": "initUpgradeEscrow",
      "outputs": [
        {
          "internalType": "bool",
          "name": "",
          "type": "bool"
        }
      ],
      "payable": false,
      "stateMutability": "nonpayable",
      "type": "function"
    },
    {
      "constant": true,
      "inputs": [],
      "name": "isEndowmentUpgradabe",
      "outputs": [
        {
          "internalType": "bool",
          "name": "",
          "type": "bool"
        }
      ],
      "payable": false,
      "stateMutability": "view",
      "type": "function"
    }
  ],
  "bytecode": "0x6080604052336000806101000a81548173ffffffffffffffffffffffffffffffffffffffff021916908373ffffffffffffffffffffffffffffffffffffffff160217905550616365806100536000396000f3fe6080604052600436106102045760003560e01c80639ebf616a11610118578063e2fdcc17116100a0578063f1d4be101161006f578063f1d4be1014610bd2578063f2fde38b14610c28578063fe4d076514610c79578063ff622bda14610cbe578063ff8baff514610d3157610204565b8063e2fdcc1714610a98578063ea87605b14610aef578063ec55688914610b2a578063ed2f634314610b8157610204565b8063b3962bdc116100e7578063b3962bdc146108c8578063b49c0ebe1461090e578063ca2a188614610977578063d665a717146109ea578063dd1ba84614610a2f57610204565b80639ebf616a146107795780639f2bba7e146107ef578063a3b3bd7b1461081a578063b1be64691461087157610204565b806342db15891161019b57806363c0c46e1161016a57806363c0c46e14610628578063758991351461067f5780638129fc1c146106ba5780638da5cb5b146106d157806397107d6d1461072857610204565b806342db1589146104805780635d06fc01146104f35780635e37283b1461054a5780635fe4d4f6146105d957610204565b806335dc0f5e116101d757806335dc0f5e14610364578063379607f51461036e578063392d5a001461039c578063400cbf6d146103cb57610204565b8063168f1f571461020957806318abc668146102445780631fc75180146102b757806328d0ab581461030e575b600080fd5b34801561021557600080fd5b506102426004803603602081101561022c57600080fd5b8101908080359060200190929190505050610d53565b005b34801561025057600080fd5b5061029d6004803603604081101561026757600080fd5b81019080803573ffffffffffffffffffffffffffffffffffffffff169060200190929190803590602001909291905050506110e8565b604051808215151515815260200191505060405180910390f35b3480156102c357600080fd5b506102cc61113f565b604051808273ffffffffffffffffffffffffffffffffffffffff1673ffffffffffffffffffffffffffffffffffffffff16815260200191505060405180910390f35b34801561031a57600080fd5b506103476004803603602081101561033157600080fd5b8101908080359060200190929190505050611165565b604051808381526020018281526020019250505060405180910390f35b61036c611483565b005b61039a6004803603602081101561038457600080fd5b8101908080359060200190929190505050611698565b005b3480156103a857600080fd5b506103b1611b90565b604051808215151515815260200191505060405180910390f35b3480156103d757600080fd5b50610404600480360360208110156103ee57600080fd5b8101908080359060200190929190505050611bff565b604051808473ffffffffffffffffffffffffffffffffffffffff1673ffffffffffffffffffffffffffffffffffffffff1681526020018373ffffffffffffffffffffffffffffffffffffffff1673ffffffffffffffffffffffffffffffffffffffff168152602001828152602001935050505060405180910390f35b34801561048c57600080fd5b506104d9600480360360408110156104a357600080fd5b81019080803573ffffffffffffffffffffffffffffffffffffffff16906020019092919080359060200190929190505050611e9c565b604051808215151515815260200191505060405180910390f35b3480156104ff57600080fd5b50610508612177565b604051808273ffffffffffffffffffffffffffffffffffffffff1673ffffffffffffffffffffffffffffffffffffffff16815260200191505060405180910390f35b34801561055657600080fd5b506105c36004803603606081101561056d57600080fd5b8101908080359060200190929190803573ffffffffffffffffffffffffffffffffffffffff169060200190929190803573ffffffffffffffffffffffffffffffffffffffff16906020019092919050505061219d565b6040518082815260200191505060405180910390f35b3480156105e557600080fd5b50610612600480360360208110156105fc57600080fd5b8101908080359060200190929190505050612424565b6040518082815260200191505060405180910390f35b34801561063457600080fd5b5061063d61243c565b604051808273ffffffffffffffffffffffffffffffffffffffff1673ffffffffffffffffffffffffffffffffffffffff16815260200191505060405180910390f35b34801561068b57600080fd5b506106b8600480360360208110156106a257600080fd5b8101908080359060200190929190505050612462565b005b3480156106c657600080fd5b506106cf6126d3565b005b3480156106dd57600080fd5b506106e6612ed3565b604051808273ffffffffffffffffffffffffffffffffffffffff1673ffffffffffffffffffffffffffffffffffffffff16815260200191505060405180910390f35b34801561073457600080fd5b506107776004803603602081101561074b57600080fd5b81019080803573ffffffffffffffffffffffffffffffffffffffff169060200190929190505050612ef8565b005b34801561078557600080fd5b506107d26004803603604081101561079c57600080fd5b8101908080359060200190929190803573ffffffffffffffffffffffffffffffffffffffff169060200190929190505050612f92565b604051808381526020018281526020019250505060405180910390f35b3480156107fb57600080fd5b506108046132b5565b6040518082815260200191505060405180910390f35b34801561082657600080fd5b5061082f6132bb565b604051808273ffffffffffffffffffffffffffffffffffffffff1673ffffffffffffffffffffffffffffffffffffffff16815260200191505060405180910390f35b34801561087d57600080fd5b506108866132e1565b604051808273ffffffffffffffffffffffffffffffffffffffff1673ffffffffffffffffffffffffffffffffffffffff16815260200191505060405180910390f35b6108f4600480360360208110156108de57600080fd5b8101908080359060200190929190505050613307565b604051808215151515815260200191505060405180910390f35b34801561091a57600080fd5b5061095d6004803603602081101561093157600080fd5b81019080803573ffffffffffffffffffffffffffffffffffffffff169060200190929190505050613644565b604051808215151515815260200191505060405180910390f35b34801561098357600080fd5b506109d06004803603604081101561099a57600080fd5b8101908080359060200190929190803573ffffffffffffffffffffffffffffffffffffffff16906020019092919050505061374a565b604051808215151515815260200191505060405180910390f35b3480156109f657600080fd5b50610a2d60048036036040811015610a0d57600080fd5b810190808035906020019092919080359060200190929190505050613858565b005b348015610a3b57600080fd5b50610a7e60048036036020811015610a5257600080fd5b81019080803573ffffffffffffffffffffffffffffffffffffffff169060200190929190505050613dee565b604051808215151515815260200191505060405180910390f35b348015610aa457600080fd5b50610aad6144f0565b604051808273ffffffffffffffffffffffffffffffffffffffff1673ffffffffffffffffffffffffffffffffffffffff16815260200191505060405180910390f35b348015610afb57600080fd5b50610b2860048036036020811015610b1257600080fd5b8101908080359060200190929190505050614516565b005b348015610b3657600080fd5b50610b3f6147c6565b604051808273ffffffffffffffffffffffffffffffffffffffff1673ffffffffffffffffffffffffffffffffffffffff16815260200191505060405180910390f35b348015610b8d57600080fd5b50610bd060048036036020811015610ba457600080fd5b81019080803573ffffffffffffffffffffffffffffffffffffffff1690602001909291905050506147ec565b005b348015610bde57600080fd5b50610c0b60048036036020811015610bf557600080fd5b810190808035906020019092919050505061498f565b604051808381526020018281526020019250505060405180910390f35b348015610c3457600080fd5b50610c7760048036036020811015610c4b57600080fd5b81019080803573ffffffffffffffffffffffffffffffffffffffff169060200190929190505050614a94565b005b348015610c8557600080fd5b50610cbc60048036036040811015610c9c57600080fd5b810190808035906020019092919080359060200190929190505050614b62565b005b348015610cca57600080fd5b50610d1760048036036040811015610ce157600080fd5b81019080803573ffffffffffffffffffffffffffffffffffffffff16906020019092919080359060200190929190505050614d10565b604051808215151515815260200191505060405180910390f35b610d39614d67565b604051808215151515815260200191505060405180910390f35b600073ffffffffffffffffffffffffffffffffffffffff163373ffffffffffffffffffffffffffffffffffffffff161415610d8a57fe5b610dc86040518060400160405280600b81526020017f73757065725f61646d696e000000000000000000000000000000000000000000815250614fd3565b610e3a576040517f08c379a00000000000000000000000000000000000000000000000000000000081526004018080602001828103825260108152602001807f4f6e6c792073757065722061646d696e0000000000000000000000000000000081525060200191505060405180910390fd5b60008111610e4757600080fd5b600560009054906101000a900473ffffffffffffffffffffffffffffffffffffffff1673ffffffffffffffffffffffffffffffffffffffff1663a9059cbb600760009054906101000a900473ffffffffffffffffffffffffffffffffffffffff16836040518363ffffffff1660e01b8152600401808373ffffffffffffffffffffffffffffffffffffffff1673ffffffffffffffffffffffffffffffffffffffff16815260200182815260200192505050602060405180830381600087803b158015610f1257600080fd5b505af1158015610f26573d6000803e3d6000fd5b505050506040513d6020811015610f3c57600080fd5b8101908080519060200190929190505050610f5657600080fd5b600460009054906101000a900473ffffffffffffffffffffffffffffffffffffffff1673ffffffffffffffffffffffffffffffffffffffff1663712153b3826000806040518463ffffffff1660e01b815260040180848152602001838152602001821515151581526020019350505050602060405180830381600087803b158015610fe057600080fd5b505af1158015610ff4573d6000803e3d6000fd5b505050506040513d602081101561100a57600080fd5b810190808051906020019092919050505061102457600080fd5b7f93f900af773d323023f0ecf99deb1a5466a3f2445cf9c74f969fe7734583392a3082600760009054906101000a900473ffffffffffffffffffffffffffffffffffffffff16604051808473ffffffffffffffffffffffffffffffffffffffff1673ffffffffffffffffffffffffffffffffffffffff1681526020018381526020018273ffffffffffffffffffffffffffffffffffffffff1673ffffffffffffffffffffffffffffffffffffffff168152602001935050505060405180910390a150565b60006040518060400160405280600c81526020017f5769746864726177506f6f6c00000000000000000000000000000000000000008152506111298161524f565b61113384846154ea565b50600191505092915050565b600360009054906101000a900473ffffffffffffffffffffffffffffffffffffffff1681565b6000806000600360009054906101000a900473ffffffffffffffffffffffffffffffffffffffff1673ffffffffffffffffffffffffffffffffffffffff1663525a8e4e856040518263ffffffff1660e01b815260040180828152602001915050604080518083038186803b1580156111dc57600080fd5b505afa1580156111f0573d6000803e3d6000fd5b505050506040513d604081101561120657600080fd5b81019080805190602001909291908051906020019092919050505091505061122c6162bf565b600660009054906101000a900473ffffffffffffffffffffffffffffffffffffffff1673ffffffffffffffffffffffffffffffffffffffff16636991b5bf866040518263ffffffff1660e01b81526004018082815260200191505060a06040518083038186803b15801561129f57600080fd5b505afa1580156112b3573d6000803e3d6000fd5b505050506040513d601f19601f8201168201806040525060a08110156112d857600080fd5b810190809190505090506000600360009054906101000a900473ffffffffffffffffffffffffffffffffffffffff1673ffffffffffffffffffffffffffffffffffffffff1663589ac6a4876040518263ffffffff1660e01b8152600401808281526020019150506101006040518083038186803b15801561135857600080fd5b505afa15801561136c573d6000803e3d6000fd5b505050506040513d601f19601f8201168201806040525061010081101561139257600080fd5b81019080805190602001909291908051906020019092919080519060200190929190805190602001909291909190826040018051906020019092919080519060200190929190505050505050509250505060006113ee87611bff565b9250505061143d61142e620f42406114208660046005811061140c57fe5b6020020151856156eb90919063ffffffff16565b61572290919063ffffffff16565b8361573b90919063ffffffff16565b9550611478620f424061146a8560046005811061145657fe5b6020020151876156eb90919063ffffffff16565b61572290919063ffffffff16565b945050505050915091565b600061148d615757565b90506000341161149c57600080fd5b600760009054906101000a900473ffffffffffffffffffffffffffffffffffffffff1673ffffffffffffffffffffffffffffffffffffffff166108fc349081150290604051600060405180830381858888f19350505050158015611504573d6000803e3d6000fd5b50600460009054906101000a900473ffffffffffffffffffffffffffffffffffffffff1673ffffffffffffffffffffffffffffffffffffffff1663712153b360003460006040518463ffffffff1660e01b815260040180848152602001838152602001821515151581526020019350505050602060405180830381600087803b15801561159057600080fd5b505af11580156115a4573d6000803e3d6000fd5b505050506040513d60208110156115ba57600080fd5b81019080805190602001909291905050506115d457600080fd5b7f120bbc6058df2f75a9523df514b6e83e744fda1180dd8c135f2f5d0b1d15d2918134600760009054906101000a900473ffffffffffffffffffffffffffffffffffffffff16604051808473ffffffffffffffffffffffffffffffffffffffff1673ffffffffffffffffffffffffffffffffffffffff1681526020018381526020018273ffffffffffffffffffffffffffffffffffffffff1673ffffffffffffffffffffffffffffffffffffffff168152602001935050505060405180910390a150565b60006116a2615757565b9050600080600460009054906101000a900473ffffffffffffffffffffffffffffffffffffffff1673ffffffffffffffffffffffffffffffffffffffff16636933bbd7856040518263ffffffff1660e01b815260040180828152602001915050604080518083038186803b15801561171957600080fd5b505afa15801561172d573d6000803e3d6000fd5b505050506040513d604081101561174357600080fd5b81019080805190602001909291908051906020019092919050505091509150816005600681111561177057fe5b146117e3576040517f08c379a00000000000000000000000000000000000000000000000000000000081526004018080602001828103825260018152602001807f310000000000000000000000000000000000000000000000000000000000000081525060200191505060405180910390fd5b804210611858576040517f08c379a00000000000000000000000000000000000000000000000000000000081526004018080602001828103825260018152602001807f320000000000000000000000000000000000000000000000000000000000000081525060200191505060405180910390fd5b611862848461374a565b156118d5576040517f08c379a00000000000000000000000000000000000000000000000000000000081526004018080602001828103825260018152602001807f330000000000000000000000000000000000000000000000000000000000000081525060200191505060405180910390fd5b6000806118e28686612f92565b91509150600460009054906101000a900473ffffffffffffffffffffffffffffffffffffffff1673ffffffffffffffffffffffffffffffffffffffff166350b1a7cd87838560016040518563ffffffff1660e01b81526004018085815260200184815260200183815260200182151515158152602001945050505050602060405180830381600087803b15801561197857600080fd5b505af115801561198c573d6000803e3d6000fd5b505050506040513d60208110156119a257600080fd5b81019080805190602001909291905050506119bc57600080fd5b60008111156119d1576119cf858261580c565b505b60008211156119e6576119e485836154ea565b505b600460009054906101000a900473ffffffffffffffffffffffffffffffffffffffff1673ffffffffffffffffffffffffffffffffffffffff16636213fc6d878785856040518563ffffffff1660e01b8152600401808581526020018473ffffffffffffffffffffffffffffffffffffffff1673ffffffffffffffffffffffffffffffffffffffff168152602001838152602001828152602001945050505050602060405180830381600087803b158015611a9f57600080fd5b505af1158015611ab3573d6000803e3d6000fd5b505050506040513d6020811015611ac957600080fd5b8101908080519060200190929190505050508473ffffffffffffffffffffffffffffffffffffffff16867f7a334ae1c9e2881845e23ce092ac3f1ccf16297abd45c43af5b4e6d8520d1cc68484600760009054906101000a900473ffffffffffffffffffffffffffffffffffffffff16604051808481526020018381526020018273ffffffffffffffffffffffffffffffffffffffff1673ffffffffffffffffffffffffffffffffffffffff168152602001935050505060405180910390a3505050505050565b60003073ffffffffffffffffffffffffffffffffffffffff16600760009054906101000a900473ffffffffffffffffffffffffffffffffffffffff1673ffffffffffffffffffffffffffffffffffffffff1673ffffffffffffffffffffffffffffffffffffffff161415905090565b6000806000600360009054906101000a900473ffffffffffffffffffffffffffffffffffffffff1673ffffffffffffffffffffffffffffffffffffffff16636b1426a4856040518263ffffffff1660e01b81526004018082815260200191505060606040518083038186803b158015611c7757600080fd5b505afa158015611c8b573d6000803e3d6000fd5b505050506040513d6060811015611ca157600080fd5b8101908080519060200190929190805190602001909291908051906020019092919050505090505080935050600660009054906101000a900473ffffffffffffffffffffffffffffffffffffffff1673ffffffffffffffffffffffffffffffffffffffff166331fa706785856040518363ffffffff1660e01b8152600401808381526020018273ffffffffffffffffffffffffffffffffffffffff1673ffffffffffffffffffffffffffffffffffffffff1681526020019250505060206040518083038186803b158015611d7457600080fd5b505afa158015611d88573d6000803e3d6000fd5b505050506040513d6020811015611d9e57600080fd5b81019080805190602001909291905050509150600360009054906101000a900473ffffffffffffffffffffffffffffffffffffffff1673ffffffffffffffffffffffffffffffffffffffff1663bacf524e85846040518363ffffffff1660e01b8152600401808381526020018273ffffffffffffffffffffffffffffffffffffffff1673ffffffffffffffffffffffffffffffffffffffff1681526020019250505060206040518083038186803b158015611e5857600080fd5b505afa158015611e6c573d6000803e3d6000fd5b505050506040513d6020811015611e8257600080fd5b810190808051906020019092919050505090509193909250565b6000600560009054906101000a900473ffffffffffffffffffffffffffffffffffffffff1673ffffffffffffffffffffffffffffffffffffffff166323b872dd84600760009054906101000a900473ffffffffffffffffffffffffffffffffffffffff16856040518463ffffffff1660e01b8152600401808473ffffffffffffffffffffffffffffffffffffffff1673ffffffffffffffffffffffffffffffffffffffff1681526020018373ffffffffffffffffffffffffffffffffffffffff1673ffffffffffffffffffffffffffffffffffffffff1681526020018281526020019350505050602060405180830381600087803b158015611f9d57600080fd5b505af1158015611fb1573d6000803e3d6000fd5b505050506040513d6020811015611fc757600080fd5b8101908080519060200190929190505050611fe55760009050612171565b600460009054906101000a900473ffffffffffffffffffffffffffffffffffffffff1673ffffffffffffffffffffffffffffffffffffffff1663712153b3836000806040518463ffffffff1660e01b815260040180848152602001838152602001821515151581526020019350505050602060405180830381600087803b15801561206f57600080fd5b505af1158015612083573d6000803e3d6000fd5b505050506040513d602081101561209957600080fd5b8101908080519060200190929190505050507f93f900af773d323023f0ecf99deb1a5466a3f2445cf9c74f969fe7734583392a8383600760009054906101000a900473ffffffffffffffffffffffffffffffffffffffff16604051808473ffffffffffffffffffffffffffffffffffffffff1673ffffffffffffffffffffffffffffffffffffffff1681526020018381526020018273ffffffffffffffffffffffffffffffffffffffff1673ffffffffffffffffffffffffffffffffffffffff168152602001935050505060405180910390a1600190505b92915050565b600460009054906101000a900473ffffffffffffffffffffffffffffffffffffffff1681565b60008273ffffffffffffffffffffffffffffffffffffffff168273ffffffffffffffffffffffffffffffffffffffff1614156121dc576000905061241d565b8273ffffffffffffffffffffffffffffffffffffffff16600660009054906101000a900473ffffffffffffffffffffffffffffffffffffffff1673ffffffffffffffffffffffffffffffffffffffff166316805a2986856040518363ffffffff1660e01b8152600401808381526020018273ffffffffffffffffffffffffffffffffffffffff1673ffffffffffffffffffffffffffffffffffffffff1681526020019250505060206040518083038186803b15801561229a57600080fd5b505afa1580156122ae573d6000803e3d6000fd5b505050506040513d60208110156122c457600080fd5b810190808051906020019092919050505073ffffffffffffffffffffffffffffffffffffffff1614156122fa576001905061241d565b8273ffffffffffffffffffffffffffffffffffffffff16600660009054906101000a900473ffffffffffffffffffffffffffffffffffffffff1673ffffffffffffffffffffffffffffffffffffffff16635f87206d86856040518363ffffffff1660e01b8152600401808381526020018273ffffffffffffffffffffffffffffffffffffffff1673ffffffffffffffffffffffffffffffffffffffff1681526020019250505060206040518083038186803b1580156123b857600080fd5b505afa1580156123cc573d6000803e3d6000fd5b505050506040513d60208110156123e257600080fd5b810190808051906020019092919050505073ffffffffffffffffffffffffffffffffffffffff161415612418576002905061241d565b600390505b9392505050565b60096020528060005260406000206000915090505481565b600560009054906101000a900473ffffffffffffffffffffffffffffffffffffffff1681565b6040518060400160405280600781526020017f43726f6e4a6f62000000000000000000000000000000000000000000000000008152506124a18161524f565b600080600460009054906101000a900473ffffffffffffffffffffffffffffffffffffffff1673ffffffffffffffffffffffffffffffffffffffff1663d6f20309856040518263ffffffff1660e01b815260040180828152602001915050604080518083038186803b15801561251657600080fd5b505afa15801561252a573d6000803e3d6000fd5b505050506040513d604081101561254057600080fd5b81019080805190602001909291908051906020019092919050505091509150600460009054906101000a900473ffffffffffffffffffffffffffffffffffffffff1673ffffffffffffffffffffffffffffffffffffffff1663712153b3838360006040518463ffffffff1660e01b815260040180848152602001838152602001821515151581526020019350505050602060405180830381600087803b1580156125e957600080fd5b505af11580156125fd573d6000803e3d6000fd5b505050506040513d602081101561261357600080fd5b810190808051906020019092919050505061262d57600080fd5b600460009054906101000a900473ffffffffffffffffffffffffffffffffffffffff1673ffffffffffffffffffffffffffffffffffffffff1663f89f07ce8560068081111561267857fe5b6040518363ffffffff1660e01b81526004018083815260200182815260200192505050600060405180830381600087803b1580156126b557600080fd5b505af11580156126c9573d6000803e3d6000fd5b5050505050505050565b6000809054906101000a900473ffffffffffffffffffffffffffffffffffffffff1673ffffffffffffffffffffffffffffffffffffffff163373ffffffffffffffffffffffffffffffffffffffff161461272957fe5b600160009054906101000a900473ffffffffffffffffffffffffffffffffffffffff1673ffffffffffffffffffffffffffffffffffffffff1663358177736040518060400160405280600b81526020017f456e646f776d656e7444420000000000000000000000000000000000000000008152506040518263ffffffff1660e01b81526004018080602001828103825283818151815260200191508051906020019080838360005b838110156127ec5780820151818401526020810190506127d1565b50505050905090810190601f1680156128195780820380516001836020036101000a031916815260200191505b509250505060206040518083038186803b15801561283657600080fd5b505afa15801561284a573d6000803e3d6000fd5b505050506040513d602081101561286057600080fd5b8101908080519060200190929190505050600460006101000a81548173ffffffffffffffffffffffffffffffffffffffff021916908373ffffffffffffffffffffffffffffffffffffffff160217905550600160009054906101000a900473ffffffffffffffffffffffffffffffffffffffff1673ffffffffffffffffffffffffffffffffffffffff1663358177736040518060400160405280600d81526020017f47616d65566172416e64466565000000000000000000000000000000000000008152506040518263ffffffff1660e01b81526004018080602001828103825283818151815260200191508051906020019080838360005b83811015612974578082015181840152602081019050612959565b50505050905090810190601f1680156129a15780820380516001836020036101000a031916815260200191505b509250505060206040518083038186803b1580156129be57600080fd5b505afa1580156129d2573d6000803e3d6000fd5b505050506040513d60208110156129e857600080fd5b8101908080519060200190929190505050600260006101000a81548173ffffffffffffffffffffffffffffffffffffffff021916908373ffffffffffffffffffffffffffffffffffffffff160217905550600160009054906101000a900473ffffffffffffffffffffffffffffffffffffffff1673ffffffffffffffffffffffffffffffffffffffff1663358177736040518060400160405280601081526020017f4b69747469654669676874546f6b656e000000000000000000000000000000008152506040518263ffffffff1660e01b81526004018080602001828103825283818151815260200191508051906020019080838360005b83811015612afc578082015181840152602081019050612ae1565b50505050905090810190601f168015612b295780820380516001836020036101000a031916815260200191505b509250505060206040518083038186803b158015612b4657600080fd5b505afa158015612b5a573d6000803e3d6000fd5b505050506040513d6020811015612b7057600080fd5b8101908080519060200190929190505050600560006101000a81548173ffffffffffffffffffffffffffffffffffffffff021916908373ffffffffffffffffffffffffffffffffffffffff160217905550600160009054906101000a900473ffffffffffffffffffffffffffffffffffffffff1673ffffffffffffffffffffffffffffffffffffffff1663358177736040518060400160405280600981526020017f47616d6553746f726500000000000000000000000000000000000000000000008152506040518263ffffffff1660e01b81526004018080602001828103825283818151815260200191508051906020019080838360005b83811015612c84578082015181840152602081019050612c69565b50505050905090810190601f168015612cb15780820380516001836020036101000a031916815260200191505b509250505060206040518083038186803b158015612cce57600080fd5b505afa158015612ce2573d6000803e3d6000fd5b505050506040513d6020811015612cf857600080fd5b8101908080519060200190929190505050600660006101000a81548173ffffffffffffffffffffffffffffffffffffffff021916908373ffffffffffffffffffffffffffffffffffffffff160217905550600160009054906101000a900473ffffffffffffffffffffffffffffffffffffffff1673ffffffffffffffffffffffffffffffffffffffff1663358177736040518060400160405280600a81526020017f474d4765747465724442000000000000000000000000000000000000000000008152506040518263ffffffff1660e01b81526004018080602001828103825283818151815260200191508051906020019080838360005b83811015612e0c578082015181840152602081019050612df1565b50505050905090810190601f168015612e395780820380516001836020036101000a031916815260200191505b509250505060206040518083038186803b158015612e5657600080fd5b505afa158015612e6a573d6000803e3d6000fd5b505050506040513d6020811015612e8057600080fd5b8101908080519060200190929190505050600360006101000a81548173ffffffffffffffffffffffffffffffffffffffff021916908373ffffffffffffffffffffffffffffffffffffffff160217905550565b6000809054906101000a900473ffffffffffffffffffffffffffffffffffffffff1681565b6000809054906101000a900473ffffffffffffffffffffffffffffffffffffffff1673ffffffffffffffffffffffffffffffffffffffff163373ffffffffffffffffffffffffffffffffffffffff1614612f4e57fe5b80600160006101000a81548173ffffffffffffffffffffffffffffffffffffffff021916908373ffffffffffffffffffffffffffffffffffffffff16021790555050565b600080600080612fa186611bff565b9250509150600073ffffffffffffffffffffffffffffffffffffffff168273ffffffffffffffffffffffffffffffffffffffff161415612fe057600080fd5b600080600360009054906101000a900473ffffffffffffffffffffffffffffffffffffffff1673ffffffffffffffffffffffffffffffffffffffff16630b154c9689896040518363ffffffff1660e01b8152600401808381526020018273ffffffffffffffffffffffffffffffffffffffff1673ffffffffffffffffffffffffffffffffffffffff1681526020019250505060806040518083038186803b15801561308a57600080fd5b505afa15801561309e573d6000803e3d6000fd5b505050506040513d60808110156130b457600080fd5b81019080805190602001909291908051906020019092919080519060200190929190805190602001909291905050505050915091508373ffffffffffffffffffffffffffffffffffffffff168773ffffffffffffffffffffffffffffffffffffffff161415801561315157508373ffffffffffffffffffffffffffffffffffffffff168173ffffffffffffffffffffffffffffffffffffffff1614155b1561316c5760008081915080905095509550505050506132ae565b600061317989898761219d565b90508473ffffffffffffffffffffffffffffffffffffffff168873ffffffffffffffffffffffffffffffffffffffff16141561329457600360009054906101000a900473ffffffffffffffffffffffffffffffffffffffff1673ffffffffffffffffffffffffffffffffffffffff1663dd99717d8a8a6040518363ffffffff1660e01b8152600401808381526020018273ffffffffffffffffffffffffffffffffffffffff1673ffffffffffffffffffffffffffffffffffffffff1681526020019250505060206040518083038186803b15801561325657600080fd5b505afa15801561326a573d6000803e3d6000fd5b505050506040513d602081101561328057600080fd5b810190808051906020019092919050505092505b6132a08482858c615a0d565b809750819850505050505050505b9250929050565b60085481565b600260009054906101000a900473ffffffffffffffffffffffffffffffffffffffff1681565b600660009054906101000a900473ffffffffffffffffffffffffffffffffffffffff1681565b60008073ffffffffffffffffffffffffffffffffffffffff16600760009054906101000a900473ffffffffffffffffffffffffffffffffffffffff1673ffffffffffffffffffffffffffffffffffffffff16141561336457600080fd5b600061336e615757565b90506000341161337d57600080fd5b600760009054906101000a900473ffffffffffffffffffffffffffffffffffffffff1673ffffffffffffffffffffffffffffffffffffffff166108fc349081150290604051600060405180830381858888f193505050506133e257600091505061363f565b600460009054906101000a900473ffffffffffffffffffffffffffffffffffffffff1673ffffffffffffffffffffffffffffffffffffffff166350b1a7cd8460003460006040518563ffffffff1660e01b81526004018085815260200184815260200183815260200182151515158152602001945050505050602060405180830381600087803b15801561347557600080fd5b505af1158015613489573d6000803e3d6000fd5b505050506040513d602081101561349f57600080fd5b810190808051906020019092919050505050600460009054906101000a900473ffffffffffffffffffffffffffffffffffffffff1673ffffffffffffffffffffffffffffffffffffffff1663712153b360003460006040518463ffffffff1660e01b815260040180848152602001838152602001821515151581526020019350505050602060405180830381600087803b15801561353c57600080fd5b505af1158015613550573d6000803e3d6000fd5b505050506040513d602081101561356657600080fd5b8101908080519060200190929190505050507f120bbc6058df2f75a9523df514b6e83e744fda1180dd8c135f2f5d0b1d15d2918134600760009054906101000a900473ffffffffffffffffffffffffffffffffffffffff16604051808473ffffffffffffffffffffffffffffffffffffffff1673ffffffffffffffffffffffffffffffffffffffff1681526020018381526020018273ffffffffffffffffffffffffffffffffffffffff1673ffffffffffffffffffffffffffffffffffffffff168152602001935050505060405180910390a160019150505b919050565b60006040518060400160405280600b81526020017f47616d654d616e616765720000000000000000000000000000000000000000008152506136858161524f565b6000600260009054906101000a900473ffffffffffffffffffffffffffffffffffffffff1673ffffffffffffffffffffffffffffffffffffffff1663d693a9896040518163ffffffff1660e01b815260040160206040518083038186803b1580156136ef57600080fd5b505afa158015613703573d6000803e3d6000fd5b505050506040513d602081101561371957600080fd5b81019080805190602001909291905050509050613736848261580c565b61373f57600080fd5b600192505050919050565b6000806000600460009054906101000a900473ffffffffffffffffffffffffffffffffffffffff1673ffffffffffffffffffffffffffffffffffffffff1663231eb69186866040518363ffffffff1660e01b8152600401808381526020018273ffffffffffffffffffffffffffffffffffffffff1673ffffffffffffffffffffffffffffffffffffffff16815260200192505050604080518083038186803b1580156137f557600080fd5b505afa158015613809573d6000803e3d6000fd5b505050506040513d604081101561381f57600080fd5b8101908080519060200190929190805190602001909291905050509150915060008211801561384e5750600081115b9250505092915050565b6040518060400160405280600b81526020017f47616d654d616e616765720000000000000000000000000000000000000000008152506138978161524f565b6000600560068111156138a657fe5b831415613d4b5761396d600660009054906101000a900473ffffffffffffffffffffffffffffffffffffffff1673ffffffffffffffffffffffffffffffffffffffff16630d1fd67a866040518263ffffffff1660e01b81526004018082815260200191505060206040518083038186803b15801561392357600080fd5b505afa158015613937573d6000803e3d6000fd5b505050506040513d602081101561394d57600080fd5b81019080805190602001909291905050504261573b90919063ffffffff16565b90506000600160009054906101000a900473ffffffffffffffffffffffffffffffffffffffff1673ffffffffffffffffffffffffffffffffffffffff1663358177736040518060400160405280600781526020017f43726f6e4a6f62000000000000000000000000000000000000000000000000008152506040518263ffffffff1660e01b81526004018080602001828103825283818151815260200191508051906020019080838360005b83811015613a34578082015181840152602081019050613a19565b50505050905090810190601f168015613a615780820380516001836020036101000a031916815260200191505b509250505060206040518083038186803b158015613a7e57600080fd5b505afa158015613a92573d6000803e3d6000fd5b505050506040513d6020811015613aa857600080fd5b8101908080519060200190929190505050905060008173ffffffffffffffffffffffffffffffffffffffff1663c19304966040518060400160405280600d81526020017f456e646f776d656e7446756e64000000000000000000000000000000000000008152508589604051602401808281526020019150506040516020818303038152906040527f75899135000000000000000000000000000000000000000000000000000000007bffffffffffffffffffffffffffffffffffffffffffffffffffffffff19166020820180517bffffffffffffffffffffffffffffffffffffffffffffffffffffffff83818316178352505050506040518463ffffffff1660e01b8152600401808060200184815260200180602001838103835286818151815260200191508051906020019080838360005b83811015613bf7578082015181840152602081019050613bdc565b50505050905090810190601f168015613c245780820380516001836020036101000a031916815260200191505b50838103825284818151815260200191508051906020019080838360005b83811015613c5d578082015181840152602081019050613c42565b50505050905090810190601f168015613c8a5780820380516001836020036101000a031916815260200191505b5095505050505050602060405180830381600087803b158015613cac57600080fd5b505af1158015613cc0573d6000803e3d6000fd5b505050506040513d6020811015613cd657600080fd5b810190808051906020019092919050505090508060096000888152602001908152602001600020819055507fbdb3fa1032c10362fcfd2e3a7214b0e681d1a19640cdc58a12397eb72eadf0e681848860405180848152602001838152602001828152602001935050505060405180910390a150505b600460009054906101000a900473ffffffffffffffffffffffffffffffffffffffff1673ffffffffffffffffffffffffffffffffffffffff1663a297bbee8585846040518463ffffffff1660e01b8152600401808481526020018381526020018281526020019350505050600060405180830381600087803b158015613dd057600080fd5b505af1158015613de4573d6000803e3d6000fd5b5050505050505050565b60008073ffffffffffffffffffffffffffffffffffffffff163373ffffffffffffffffffffffffffffffffffffffff161415613e2657fe5b613e646040518060400160405280600b81526020017f73757065725f61646d696e000000000000000000000000000000000000000000815250614fd3565b613ed6576040517f08c379a00000000000000000000000000000000000000000000000000000000081526004018080602001828103825260108152602001807f4f6e6c792073757065722061646d696e0000000000000000000000000000000081525060200191505060405180910390fd5b600073ffffffffffffffffffffffffffffffffffffffff168273ffffffffffffffffffffffffffffffffffffffff161415613f1057600080fd5b8173ffffffffffffffffffffffffffffffffffffffff1663c4d66de8600560009054906101000a900473ffffffffffffffffffffffffffffffffffffffff166040518263ffffffff1660e01b8152600401808273ffffffffffffffffffffffffffffffffffffffff1673ffffffffffffffffffffffffffffffffffffffff168152602001915050600060405180830381600087803b158015613fb157600080fd5b505af1158015613fc5573d6000803e3d6000fd5b505050503073ffffffffffffffffffffffffffffffffffffffff168273ffffffffffffffffffffffffffffffffffffffff16638da5cb5b6040518163ffffffff1660e01b815260040160206040518083038186803b15801561402657600080fd5b505afa15801561403a573d6000803e3d6000fd5b505050506040513d602081101561405057600080fd5b810190808051906020019092919050505073ffffffffffffffffffffffffffffffffffffffff161461408157600080fd5b600073ffffffffffffffffffffffffffffffffffffffff168273ffffffffffffffffffffffffffffffffffffffff166397d7ce0a6040518163ffffffff1660e01b815260040160206040518083038186803b1580156140df57600080fd5b505afa1580156140f3573d6000803e3d6000fd5b505050506040513d602081101561410957600080fd5b810190808051906020019092919050505073ffffffffffffffffffffffffffffffffffffffff16141561413b57600080fd5b600073ffffffffffffffffffffffffffffffffffffffff16600760009054906101000a900473ffffffffffffffffffffffffffffffffffffffff1673ffffffffffffffffffffffffffffffffffffffff16146144a657600760009054906101000a900473ffffffffffffffffffffffffffffffffffffffff1673ffffffffffffffffffffffffffffffffffffffff16637b1a490983600760009054906101000a900473ffffffffffffffffffffffffffffffffffffffff1673ffffffffffffffffffffffffffffffffffffffff16316040518363ffffffff1660e01b8152600401808373ffffffffffffffffffffffffffffffffffffffff1673ffffffffffffffffffffffffffffffffffffffff16815260200182815260200192505050602060405180830381600087803b15801561427357600080fd5b505af1158015614287573d6000803e3d6000fd5b505050506040513d602081101561429d57600080fd5b81019080805190602001909291905050506142b757600080fd5b6000600560009054906101000a900473ffffffffffffffffffffffffffffffffffffffff1673ffffffffffffffffffffffffffffffffffffffff166370a08231600760009054906101000a900473ffffffffffffffffffffffffffffffffffffffff166040518263ffffffff1660e01b8152600401808273ffffffffffffffffffffffffffffffffffffffff1673ffffffffffffffffffffffffffffffffffffffff16815260200191505060206040518083038186803b15801561437a57600080fd5b505afa15801561438e573d6000803e3d6000fd5b505050506040513d60208110156143a457600080fd5b81019080805190602001909291905050509050600760009054906101000a900473ffffffffffffffffffffffffffffffffffffffff1673ffffffffffffffffffffffffffffffffffffffff1663430951bd84836040518363ffffffff1660e01b8152600401808373ffffffffffffffffffffffffffffffffffffffff1673ffffffffffffffffffffffffffffffffffffffff16815260200182815260200192505050602060405180830381600087803b15801561446057600080fd5b505af1158015614474573d6000803e3d6000fd5b505050506040513d602081101561448a57600080fd5b81019080805190602001909291905050506144a457600080fd5b505b81600760006101000a81548173ffffffffffffffffffffffffffffffffffffffff021916908373ffffffffffffffffffffffffffffffffffffffff16021790555060019050919050565b600760009054906101000a900473ffffffffffffffffffffffffffffffffffffffff1681565b6040518060400160405280600b81526020017f456e646f776d656e7444420000000000000000000000000000000000000000008152506145558161524f565b6000600160009054906101000a900473ffffffffffffffffffffffffffffffffffffffff1673ffffffffffffffffffffffffffffffffffffffff1663358177736040518060400160405280600781526020017f43726f6e4a6f62000000000000000000000000000000000000000000000000008152506040518263ffffffff1660e01b81526004018080602001828103825283818151815260200191508051906020019080838360005b8381101561461a5780820151818401526020810190506145ff565b50505050905090810190601f1680156146475780820380516001836020036101000a031916815260200191505b509250505060206040518083038186803b15801561466457600080fd5b505afa158015614678573d6000803e3d6000fd5b505050506040513d602081101561468e57600080fd5b810190808051906020019092919050505090508073ffffffffffffffffffffffffffffffffffffffff16639d8f101f6040518060400160405280600d81526020017f456e646f776d656e7446756e640000000000000000000000000000000000000081525060096000878152602001908152602001600020546040518363ffffffff1660e01b81526004018080602001838152602001828103825284818151815260200191508051906020019080838360005b8381101561475c578082015181840152602081019050614741565b50505050905090810190601f1680156147895780820380516001836020036101000a031916815260200191505b509350505050600060405180830381600087803b1580156147a957600080fd5b505af11580156147bd573d6000803e3d6000fd5b50505050505050565b600160009054906101000a900473ffffffffffffffffffffffffffffffffffffffff1681565b600073ffffffffffffffffffffffffffffffffffffffff163373ffffffffffffffffffffffffffffffffffffffff16141561482357fe5b6148616040518060400160405280600b81526020017f73757065725f61646d696e000000000000000000000000000000000000000000815250614fd3565b6148d3576040517f08c379a00000000000000000000000000000000000000000000000000000000081526004018080602001828103825260108152602001807f4f6e6c792073757065722061646d696e0000000000000000000000000000000081525060200191505060405180910390fd5b600760009054906101000a900473ffffffffffffffffffffffffffffffffffffffff1673ffffffffffffffffffffffffffffffffffffffff1663f2fde38b826040518263ffffffff1660e01b8152600401808273ffffffffffffffffffffffffffffffffffffffff1673ffffffffffffffffffffffffffffffffffffffff168152602001915050600060405180830381600087803b15801561497457600080fd5b505af1158015614988573d6000803e3d6000fd5b5050505050565b6000806040518060400160405280600c81526020017f47616d654372656174696f6e00000000000000000000000000000000000000008152506149d18161524f565b600460009054906101000a900473ffffffffffffffffffffffffffffffffffffffff1673ffffffffffffffffffffffffffffffffffffffff1663f1d4be10856040518263ffffffff1660e01b8152600401808281526020019150506040805180830381600087803b158015614a4557600080fd5b505af1158015614a59573d6000803e3d6000fd5b505050506040513d6040811015614a6f57600080fd5b8101908080519060200190929190805190602001909291905050509250925050915091565b6000809054906101000a900473ffffffffffffffffffffffffffffffffffffffff1673ffffffffffffffffffffffffffffffffffffffff163373ffffffffffffffffffffffffffffffffffffffff1614614aea57fe5b600073ffffffffffffffffffffffffffffffffffffffff168173ffffffffffffffffffffffffffffffffffffffff1614614b5f57806000806101000a81548173ffffffffffffffffffffffffffffffffffffffff021916908373ffffffffffffffffffffffffffffffffffffffff1602179055505b50565b6040518060400160405280600b81526020017f47616d654d616e61676572000000000000000000000000000000000000000000815250614ba18161524f565b6000600260009054906101000a900473ffffffffffffffffffffffffffffffffffffffff1673ffffffffffffffffffffffffffffffffffffffff1663aa7ed99b6040518163ffffffff1660e01b815260040160206040518083038186803b158015614c0b57600080fd5b505afa158015614c1f573d6000803e3d6000fd5b505050506040513d6020811015614c3557600080fd5b810190808051906020019092919050505090506000614c72620f4240614c6484876156eb90919063ffffffff16565b61572290919063ffffffff16565b9050600460009054906101000a900473ffffffffffffffffffffffffffffffffffffffff1673ffffffffffffffffffffffffffffffffffffffff1663fe4d076586836040518363ffffffff1660e01b81526004018083815260200182815260200192505050600060405180830381600087803b158015614cf157600080fd5b505af1158015614d05573d6000803e3d6000fd5b505050505050505050565b60006040518060400160405280600f81526020017f4561726e696e6773547261636b65720000000000000000000000000000000000815250614d518161524f565b614d5b84846154ea565b50600191505092915050565b60008073ffffffffffffffffffffffffffffffffffffffff16600760009054906101000a900473ffffffffffffffffffffffffffffffffffffffff1673ffffffffffffffffffffffffffffffffffffffff161415614dc457600080fd5b6000614dce615757565b905060003411614ddd57600080fd5b600760009054906101000a900473ffffffffffffffffffffffffffffffffffffffff1673ffffffffffffffffffffffffffffffffffffffff166108fc349081150290604051600060405180830381858888f19350505050614e42576000915050614fd0565b600460009054906101000a900473ffffffffffffffffffffffffffffffffffffffff1673ffffffffffffffffffffffffffffffffffffffff1663712153b360003460006040518463ffffffff1660e01b815260040180848152602001838152602001821515151581526020019350505050602060405180830381600087803b158015614ecd57600080fd5b505af1158015614ee1573d6000803e3d6000fd5b505050506040513d6020811015614ef757600080fd5b8101908080519060200190929190505050507f120bbc6058df2f75a9523df514b6e83e744fda1180dd8c135f2f5d0b1d15d2918134600760009054906101000a900473ffffffffffffffffffffffffffffffffffffffff16604051808473ffffffffffffffffffffffffffffffffffffffff1673ffffffffffffffffffffffffffffffffffffffff1681526020018381526020018273ffffffffffffffffffffffffffffffffffffffff1673ffffffffffffffffffffffffffffffffffffffff168152602001935050505060405180910390a160019150505b90565b6000600160009054906101000a900473ffffffffffffffffffffffffffffffffffffffff1673ffffffffffffffffffffffffffffffffffffffff1663358177736040518060400160405280600681526020017f526f6c65444200000000000000000000000000000000000000000000000000008152506040518263ffffffff1660e01b81526004018080602001828103825283818151815260200191508051906020019080838360005b8381101561509857808201518184015260208101905061507d565b50505050905090810190601f1680156150c55780820380516001836020036101000a031916815260200191505b509250505060206040518083038186803b1580156150e257600080fd5b505afa1580156150f6573d6000803e3d6000fd5b505050506040513d602081101561510c57600080fd5b810190808051906020019092919050505073ffffffffffffffffffffffffffffffffffffffff16636c9cd09783615141615757565b6040518363ffffffff1660e01b815260040180806020018373ffffffffffffffffffffffffffffffffffffffff1673ffffffffffffffffffffffffffffffffffffffff168152602001828103825284818151815260200191508051906020019080838360005b838110156151c25780820151818401526020810190506151a7565b50505050905090810190601f1680156151ef5780820380516001836020036101000a031916815260200191505b50935050505060206040518083038186803b15801561520d57600080fd5b505afa158015615221573d6000803e3d6000fd5b505050506040513d602081101561523757600080fd5b81019080805190602001909291905050509050919050565b600073ffffffffffffffffffffffffffffffffffffffff16600160009054906101000a900473ffffffffffffffffffffffffffffffffffffffff1673ffffffffffffffffffffffffffffffffffffffff161415615314576040517f08c379a00000000000000000000000000000000000000000000000000000000081526004018080602001828103825260088152602001807f4e6f2050726f787900000000000000000000000000000000000000000000000081525060200191505060405180910390fd5b6000600160009054906101000a900473ffffffffffffffffffffffffffffffffffffffff1673ffffffffffffffffffffffffffffffffffffffff166335817773836040518263ffffffff1660e01b81526004018080602001828103825283818151815260200191508051906020019080838360005b838110156153a4578082015181840152602081019050615389565b50505050905090810190601f1680156153d15780820380516001836020036101000a031916815260200191505b509250505060206040518083038186803b1580156153ee57600080fd5b505afa158015615402573d6000803e3d6000fd5b505050506040513d602081101561541857600080fd5b81019080805190602001909291905050509050600073ffffffffffffffffffffffffffffffffffffffff168173ffffffffffffffffffffffffffffffffffffffff16141561546257fe5b8073ffffffffffffffffffffffffffffffffffffffff163373ffffffffffffffffffffffffffffffffffffffff16146154e6576040517f08c379a000000000000000000000000000000000000000000000000000000000815260040180806020018281038252602d815260200180616304602d913960400191505060405180910390fd5b5050565b60008073ffffffffffffffffffffffffffffffffffffffff168373ffffffffffffffffffffffffffffffffffffffff16141561552557600080fd5b600760009054906101000a900473ffffffffffffffffffffffffffffffffffffffff1673ffffffffffffffffffffffffffffffffffffffff16637b1a490984846040518363ffffffff1660e01b8152600401808373ffffffffffffffffffffffffffffffffffffffff1673ffffffffffffffffffffffffffffffffffffffff16815260200182815260200192505050602060405180830381600087803b1580156155ce57600080fd5b505af11580156155e2573d6000803e3d6000fd5b505050506040513d60208110156155f857600080fd5b810190808051906020019092919050505061561257600080fd5b600460009054906101000a900473ffffffffffffffffffffffffffffffffffffffff1673ffffffffffffffffffffffffffffffffffffffff1663712153b360008460016040518463ffffffff1660e01b815260040180848152602001838152602001821515151581526020019350505050602060405180830381600087803b15801561569d57600080fd5b505af11580156156b1573d6000803e3d6000fd5b505050506040513d60208110156156c757600080fd5b81019080805190602001909291905050506156e157600080fd5b6001905092915050565b6000808314156156fe576000905061571c565b600082840290508284828161570f57fe5b041461571757fe5b809150505b92915050565b60008082848161572e57fe5b0490508091505092915050565b60008082840190508381101561574d57fe5b8091505092915050565b6000600160009054906101000a900473ffffffffffffffffffffffffffffffffffffffff1673ffffffffffffffffffffffffffffffffffffffff163373ffffffffffffffffffffffffffffffffffffffff16146157b657339050615809565b6000601436036000602052601481602c37602051915050600073ffffffffffffffffffffffffffffffffffffffff168173ffffffffffffffffffffffffffffffffffffffff16141561580457fe5b809150505b90565b60008073ffffffffffffffffffffffffffffffffffffffff168373ffffffffffffffffffffffffffffffffffffffff16141561584757600080fd5b600760009054906101000a900473ffffffffffffffffffffffffffffffffffffffff1673ffffffffffffffffffffffffffffffffffffffff1663430951bd84846040518363ffffffff1660e01b8152600401808373ffffffffffffffffffffffffffffffffffffffff1673ffffffffffffffffffffffffffffffffffffffff16815260200182815260200192505050602060405180830381600087803b1580156158f057600080fd5b505af1158015615904573d6000803e3d6000fd5b505050506040513d602081101561591a57600080fd5b810190808051906020019092919050505061593457600080fd5b600460009054906101000a900473ffffffffffffffffffffffffffffffffffffffff1673ffffffffffffffffffffffffffffffffffffffff1663712153b383600060016040518463ffffffff1660e01b815260040180848152602001838152602001821515151581526020019350505050602060405180830381600087803b1580156159bf57600080fd5b505af11580156159d3573d6000803e3d6000fd5b505050506040513d60208110156159e957600080fd5b8101908080519060200190929190505050615a0357600080fd5b6001905092915050565b600080615a186162bf565b600660009054906101000a900473ffffffffffffffffffffffffffffffffffffffff1673ffffffffffffffffffffffffffffffffffffffff16636991b5bf856040518263ffffffff1660e01b81526004018082815260200191505060a06040518083038186803b158015615a8b57600080fd5b505afa158015615a9f573d6000803e3d6000fd5b505050506040513d601f19601f8201168201806040525060a0811015615ac457600080fd5b810190809190505090506000600360009054906101000a900473ffffffffffffffffffffffffffffffffffffffff1673ffffffffffffffffffffffffffffffffffffffff1663525a8e4e866040518263ffffffff1660e01b815260040180828152602001915050604080518083038186803b158015615b4257600080fd5b505afa158015615b56573d6000803e3d6000fd5b505050506040513d6040811015615b6c57600080fd5b8101908080519060200190929190805190602001909291905050509150506000615bc4620f4240615bb6858b60058110615ba257fe5b60200201518c6156eb90919063ffffffff16565b61572290919063ffffffff16565b90506000615c00620f4240615bf2868c60058110615bde57fe5b6020020151866156eb90919063ffffffff16565b61572290919063ffffffff16565b90506003891415615c2457615c1781838a8a615c4a565b9550955050505050615c41565b615c37828961573b90919063ffffffff16565b8195509550505050505b94509492505050565b600080615c556162e1565b600360009054906101000a900473ffffffffffffffffffffffffffffffffffffffff1673ffffffffffffffffffffffffffffffffffffffff16636b1426a4856040518263ffffffff1660e01b81526004018082815260200191505060606040518083038186803b158015615cc857600080fd5b505afa158015615cdc573d6000803e3d6000fd5b505050506040513d6060811015615cf257600080fd5b8101908080519060200190929190805190602001909291908051906020019092919050505083600060038110615d2457fe5b6020020184600160038110615d3557fe5b6020020185600260038110615d4657fe5b602002018373ffffffffffffffffffffffffffffffffffffffff1673ffffffffffffffffffffffffffffffffffffffff168152508373ffffffffffffffffffffffffffffffffffffffff1673ffffffffffffffffffffffffffffffffffffffff168152508373ffffffffffffffffffffffffffffffffffffffff1673ffffffffffffffffffffffffffffffffffffffff168152505050506000600360009054906101000a900473ffffffffffffffffffffffffffffffffffffffff1673ffffffffffffffffffffffffffffffffffffffff16630b154c968684600160038110615e2b57fe5b60200201516040518363ffffffff1660e01b8152600401808381526020018273ffffffffffffffffffffffffffffffffffffffff1673ffffffffffffffffffffffffffffffffffffffff1681526020019250505060806040518083038186803b158015615e9757600080fd5b505afa158015615eab573d6000803e3d6000fd5b505050506040513d6080811015615ec157600080fd5b810190808051906020019092919080519060200190929190805190602001909291908051906020019092919050505050505090506000600360009054906101000a900473ffffffffffffffffffffffffffffffffffffffff1673ffffffffffffffffffffffffffffffffffffffff16630b154c968785600260038110615f4357fe5b60200201516040518363ffffffff1660e01b8152600401808381526020018273ffffffffffffffffffffffffffffffffffffffff1673ffffffffffffffffffffffffffffffffffffffff1681526020019250505060806040518083038186803b158015615faf57600080fd5b505afa158015615fc3573d6000803e3d6000fd5b505050506040513d6080811015615fd957600080fd5b810190808051906020019092919080519060200190929190805190602001909291908051906020019092919050505050505090506000600360009054906101000a900473ffffffffffffffffffffffffffffffffffffffff1673ffffffffffffffffffffffffffffffffffffffff1663dd99717d888660006003811061605b57fe5b60200201516040518363ffffffff1660e01b8152600401808381526020018273ffffffffffffffffffffffffffffffffffffffff1673ffffffffffffffffffffffffffffffffffffffff1681526020019250505060206040518083038186803b1580156160c757600080fd5b505afa1580156160db573d6000803e3d6000fd5b505050506040513d60208110156160f157600080fd5b810190808051906020019092919050505090506000600360009054906101000a900473ffffffffffffffffffffffffffffffffffffffff1673ffffffffffffffffffffffffffffffffffffffff1663bacf524e898760006003811061615257fe5b60200201516040518363ffffffff1660e01b8152600401808381526020018273ffffffffffffffffffffffffffffffffffffffff1673ffffffffffffffffffffffffffffffffffffffff1681526020019250505060206040518083038186803b1580156161be57600080fd5b505afa1580156161d2573d6000803e3d6000fd5b505050506040513d60208110156161e857600080fd5b81019080805190602001909291905050509050616232826162248561621688866162a890919063ffffffff16565b6162a890919063ffffffff16565b6162a890919063ffffffff16565b90506162598161624b8b8d6156eb90919063ffffffff16565b61572290919063ffffffff16565b9950616280816162728b8e6156eb90919063ffffffff16565b61572290919063ffffffff16565b9a506162958a8a61573b90919063ffffffff16565b8b96509650505050505094509492505050565b6000828211156162b457fe5b818303905092915050565b6040518060a00160405280600590602082028038833980820191505090505090565b604051806060016040528060039060208202803883398082019150509050509056fe416363657373206973206f6e6c7920616c6c6f7765642066726f6d20737065636966696320636f6e7472616374a265627a7a72315820a0156efdeb7063f176f9e28ee540e597a47a3f5fee1674b0fcadcdd845767b5764736f6c63430005110032",
  "source": "/**\n * @title EndowmentFund\n */\n//\n// This program is free software: you can redistribute it and/or modify\n// it under the terms of the GNU General Public License as published by\n// the Free Software Foundation, either version 3 of the License, or\n// (at your option) any later version.\n\n// This program is distributed in the hope that it will be useful,\n// but WITHOUT ANY WARRANTY; without even the implied warranty of\n// MERCHANTABILITY or FITNESS FOR A PARTICULAR PURPOSE.  See the\n// GNU General Public License for more details.\n\n// You should have received a copy of the GNU General Public License\n// along with this program.  If not, see <http://www.gnu.org/licenses/>.\n\npragma solidity ^0.5.5;\n\nimport \"../proxy/Proxied.sol\";\nimport \"../../authority/Guard.sol\";\nimport \"./Distribution.sol\";\n\n/**\n * @title EndowmentFund\n * @dev Responsible for : manage funds\n * @author @vikrammndal @wafflemakr @Xaleee @ziweidream\n */\n\ncontract EndowmentFund is Distribution, Guard {\n    using SafeMath for uint256;\n\n    Escrow public escrow;\n\n    event WinnerClaimed(uint indexed gameId, address indexed winner, uint256 ethAmount, uint256 ktyAmount, address from);\n    event SentKTYtoEscrow(address sender, uint256 ktyAmount, address receiver);\n    event SentETHtoEscrow(address sender, uint256 ethAmount, address receiver);\n    event Scheduled(uint256 scheduledJob, uint256 time, uint256 gameId);\n\n    /// @notice  the count of all invocations of `generatePotId`.\n    uint256 public potRequestCount;\n    mapping (uint => uint) public scheduledJobs;\n\n    enum HoneypotState {\n        created,\n        assigned,\n        gameScheduled,\n        gameStarted,\n        forefeited,\n        claiming,\n        dissolved\n    }\n\n    /**\n  * @dev check if enough funds present and maintains balance of tokens in DB\n  */\n  function generateHoneyPot(uint256 gameId)\n    external\n    onlyContract(CONTRACT_NAME_GAMECREATION)\n    returns (uint, uint) {\n    return (endowmentDB.generateHoneyPot(gameId));\n  }\n\n    /**\n    * @dev winner claims\n    */\n    function claim(uint256 _gameId) external payable {\n        address payable msgSender = address(uint160(getOriginalSender()));\n\n        // Honeypot status\n        (uint status, uint256 claimTime) = endowmentDB.getHoneypotState(_gameId);\n\n        require(uint(HoneypotState.claiming) == status, \"1\");\n\n        require(now < claimTime, \"2\");\n\n        require(!getWithdrawalState(_gameId, msgSender), \"3\");\n\n        (uint256 winningsETH, uint256 winningsKTY) = getWinnerShare(_gameId, msgSender);\n\n        // make sure enough funds in HoneyPot and update HoneyPot balance\n        require(endowmentDB.updateHoneyPotFund(_gameId, winningsKTY, winningsETH, true));\n\n        if (winningsKTY > 0){\n            transferKTYfromEscrow(msgSender, winningsKTY);\n        }\n\n        if (winningsETH > 0){\n            transferETHfromEscrow(msgSender, winningsETH);\n        }\n\n        // log tokens sent to an address\n        endowmentDB.setTotalDebit(_gameId, msgSender, winningsETH, winningsKTY);\n\n        emit WinnerClaimed(_gameId, msgSender, winningsETH, winningsKTY, address(escrow));\n    }\n\n    /**\n    * @dev send reward to the user that pressed finalize button\n    */\n    function sendFinalizeRewards(address user)\n        external\n        onlyContract(CONTRACT_NAME_GAMEMANAGER)\n        returns(bool)\n    {\n        uint reward = gameVarAndFee.getFinalizeRewards();\n        require(transferKTYfromEscrow(address(uint160(user)), reward));\n        return true;\n    }\n\n    function getWithdrawalState(uint _gameId, address _account) public view returns (bool) {        \n        (uint256 totalETHdebited, uint256 totalKTYdebited) = endowmentDB.getTotalDebit(_gameId, _account);\n        return ((totalETHdebited > 0) && (totalKTYdebited > 0)); // since payout is in full not in parts\n    }\n\n    /**\n    * @dev updateHoneyPotState\n    */\n    function updateHoneyPotState(uint256 _gameId, uint _state) public onlyContract(CONTRACT_NAME_GAMEMANAGER) {\n        uint256 claimTime;\n        if (_state == uint(HoneypotState.claiming)){\n\n            claimTime = now.add(gameStore.getHoneypotExpiration(_gameId));\n\n            //add to cron: schedule desolve of HoneyPot\n            CronJob cron = CronJob(proxy.getContract(CONTRACT_NAME_CRONJOB));\n            uint256 scheduledJob = cron.addCronJob(\n                                            CONTRACT_NAME_ENDOWMENT_FUND,\n                                            claimTime,\n                                            abi.encodeWithSignature(\"scheduleDissolve(uint256)\", _gameId)\n                                            );\n            scheduledJobs[_gameId] = scheduledJob;\n            emit Scheduled(scheduledJob, claimTime, _gameId);\n        }\n        endowmentDB.setHoneypotState(_gameId, _state, claimTime);\n    }\n\n    function deleteCronJob(uint _gameId)\n        external\n        onlyContract(CONTRACT_NAME_ENDOWMENT_DB)\n    {\n       CronJob cron = CronJob(proxy.getContract(CONTRACT_NAME_CRONJOB));\n       cron.deleteCronJob(CONTRACT_NAME_ENDOWMENT_FUND, scheduledJobs[_gameId]);\n    }\n\n    /**\n    * @dev added to cronjob : schedule Honey pot dissolve\n    */\n    function scheduleDissolve(uint256 _gameId)\n        external\n        onlyContract(CONTRACT_NAME_CRONJOB)\n    {\n\n        // move left over funds from honey pot to endowment\n        (uint256 honeyPotBalanceKTY, uint256 honeyPotBalanceETH) = endowmentDB.getHoneyPotBalance(_gameId);\n\n        // update endowmentFund\n        require(endowmentDB.updateEndowmentFund(honeyPotBalanceKTY, honeyPotBalanceETH, false));\n\n        // change state to dissolved\n        endowmentDB.dissolveHoneypot(_gameId, uint(HoneypotState.dissolved));\n\n    }\n\n    /**\n     * @dev Send KTY from EndowmentFund to Escrow\n     */\n    function sendKTYtoEscrow(uint256 _kty_amount)\n        external\n        onlySuperAdmin\n    {\n        require(_kty_amount > 0);\n\n        require(kittieFightToken.transfer(address(escrow), _kty_amount));\n\n        require(endowmentDB.updateEndowmentFund(_kty_amount, 0, false));\n\n        emit SentKTYtoEscrow(address(this), _kty_amount, address(escrow));\n    }\n\n    /**\n     * @dev Send eth to Escrow\n     */\n    function sendETHtoEscrow() external payable {\n        address msgSender = getOriginalSender();\n\n         // not very essential\n        // require(address(escrow) != address(0),\n        //     \"Error: escrow not initialized\");\n        \n\n        require(msg.value > 0);\n\n        address(escrow).transfer(msg.value);\n\n        require(endowmentDB.updateEndowmentFund(0, msg.value, false));\n\n        emit SentETHtoEscrow(msgSender, msg.value, address(escrow));\n    }\n\n    /**\n     * @dev accepts KTY. KTY is transfered to in escrow\n     */\n     \n    function contributeKTY(address _sender, uint256 _kty_amount) external returns(bool) {\n\n        //require(address(escrow) != address(0), \"escrow not initialized\"); //  not very essential\n\n        // do transfer of KTY\n        if (!kittieFightToken.transferFrom(_sender, address(escrow), _kty_amount)){\n            return false;\n        }\n\n        endowmentDB.updateEndowmentFund(_kty_amount, 0, false);\n\n        emit SentKTYtoEscrow(_sender, _kty_amount, address(escrow));\n\n        return true;\n    }\n\n    /**\n     * @dev GM calls\n     */\n    function contributeETH(uint _gameId) external payable returns(bool) {\n        require(address(escrow) != address(0));\n        address msgSender = getOriginalSender();\n\n        require(msg.value > 0);\n\n        // transfer ETH to Escrow\n        if (!address(escrow).send(msg.value)){\n            return false;\n        }\n\n        endowmentDB.updateHoneyPotFund(_gameId, 0, msg.value, false);\n        endowmentDB.updateEndowmentFund(0, msg.value, false);\n\n        emit SentETHtoEscrow(msgSender, msg.value, address(escrow));\n\n        return true;\n    }\n\n    function contributeETH_Ethie() external payable returns(bool) {\n        require(address(escrow) != address(0));\n        address msgSender = getOriginalSender();\n\n        require(msg.value > 0);\n\n        // transfer ETH to Escrow\n        if (!address(escrow).send(msg.value)){\n            return false;\n        }\n\n        endowmentDB.updateEndowmentFund(0, msg.value, false);\n\n        emit SentETHtoEscrow(msgSender, msg.value, address(escrow));\n\n        return true;\n    }\n\n\n    /**\n    * @notice MUST BE DONE BEFORE UPGRADING ENDOWMENT AS IT IS THE OWNER\n    * @dev change Escrow contract owner before UPGRADING ENDOWMENT AS IT IS THE OWNER\n    */\n    function transferEscrowOwnership(address payable _newOwner) external onlySuperAdmin {\n        escrow.transferOwnership(_newOwner);\n    }\n\n    /**\n    * @dev transfer Escrow ETH funds\n    */\n    function transferETHfromEscrow(address payable _someAddress, uint256 _eth_amount)\n    private\n    returns(bool){\n        require(address(_someAddress) != address(0));\n\n        // transfer the ETH\n        require(escrow.transferETH(_someAddress, _eth_amount));\n\n        // Update DB. true = deductFunds\n        require(endowmentDB.updateEndowmentFund(0, _eth_amount, true));\n\n        return true;\n    }\n\n    function transferETHfromEscrowWithdrawalPool(address payable _someAddress, uint256 _eth_amount)\n        public\n        onlyContract(CONTRACT_NAME_WITHDRAW_POOL)\n        returns(bool)\n    {\n        transferETHfromEscrow(_someAddress, _eth_amount);\n        return true;\n    }\n\n    function transferETHfromEscrowEarningsTracker(address payable _someAddress, uint256 _eth_amount)\n        public\n        onlyContract(CONTRACT_NAME_EARNINGS_TRACKER)\n        returns(bool)\n    {\n        transferETHfromEscrow(_someAddress, _eth_amount);\n        return true;\n    }\n\n    /**\n    * @dev transfer Escrow KFT funds\n    */\n    function transferKTYfromEscrow(address payable _someAddress, uint256 _kty_amount)\n    private\n    returns(bool){\n        require(address(_someAddress) != address(0));\n\n        // transfer the KTY\n        require(escrow.transferKTY(_someAddress, _kty_amount));\n\n        // Update DB. true = deductFunds\n        require(endowmentDB.updateEndowmentFund(_kty_amount, 0, true));\n\n        return true;\n    }\n\n    function addETHtoPool(uint256 gameId, uint256 totalETHinHoneypot)\n        external\n        onlyContract(CONTRACT_NAME_GAMEMANAGER)\n    {\n        uint256 percentageETHtoPool = gameVarAndFee.getPercentageForPool();\n        uint256 ETHtoPool = totalETHinHoneypot.mul(percentageETHtoPool).div(1000000);\n        endowmentDB.addETHtoPool(gameId, ETHtoPool);\n    }\n\n    /**\n    * @dev Initialize or Upgrade Escrow\n    * @notice BEFORE CALLING: Deploy escrow contract and set the owner as EndowmentFund contract\n    */\n    function initUpgradeEscrow(Escrow _newEscrow) external onlySuperAdmin returns(bool){\n\n        require(address(_newEscrow) != address(0));\n        _newEscrow.initialize(kittieFightToken);\n\n        // check ownership\n        require(_newEscrow.owner() == address(this));\n\n        // KTY is set\n        require(_newEscrow.getKTYaddress() != address(0));\n\n        if (address(escrow) != address(0)){ // Transfer if any funds\n\n            // transfer all the ETH\n            require(escrow.transferETH(address(_newEscrow), address(escrow).balance));\n\n            // transfer all the KTY\n            uint256 ktyBalance = kittieFightToken.balanceOf(address(escrow));\n            require(escrow.transferKTY(address(_newEscrow), ktyBalance));\n\n        }\n\n        escrow = _newEscrow;\n        return true;\n    }\n\n\n    /**\n     * @dev Do not upgrade Endowment if owner of escrow is still this contract's address\n     * Steps:\n     * deploy new Endowment\n     * set owner of escrow to new Endowment adrress using endowment.transferEscrowOwnership(new Endowment adrress)\n     * than set the new Endowment adrress in proxy\n     */\n    function isEndowmentUpgradabe() public view returns(bool){\n        return (address(escrow.owner) != address(this));\n    }\n}\n",
  "sourcePath": "/Users/ziweizhang/Desktop/EarningsTracker/alpha/contracts/modules/endowment/EndowmentFund.sol",
  "compiler": {
    "name": "solc",
    "version": "0.5.17+commit.d19bba13.Emscripten.clang"
  },
  "schemaVersion": "3.0.23",
  "updatedAt": "2020-04-17T13:19:18.829Z",
  "networkType": "ethereum",
  "devdoc": {
    "author": "@vikrammndal @wafflemakr @Xaleee @ziweidream",
    "details": "Responsible for : manage funds",
    "methods": {
      "claim(uint256)": {
        "details": "winner claims"
      },
      "contributeETH(uint256)": {
        "details": "GM calls"
      },
      "contributeKTY(address,uint256)": {
        "details": "accepts KTY. KTY is transfered to in escrow"
      },
      "generateHoneyPot(uint256)": {
        "details": "check if enough funds present and maintains balance of tokens in DB"
      },
      "initUpgradeEscrow(address)": {
        "details": "Initialize or Upgrade Escrow"
      },
      "initialize()": {
        "details": "Sets related contractsCan be called only by the owner of this contract"
      },
      "isEndowmentUpgradabe()": {
        "details": "Do not upgrade Endowment if owner of escrow is still this contract's address Steps: deploy new Endowment set owner of escrow to new Endowment adrress using endowment.transferEscrowOwnership(new Endowment adrress) than set the new Endowment adrress in proxy"
      },
      "scheduleDissolve(uint256)": {
        "details": "added to cronjob : schedule Honey pot dissolve"
      },
      "sendETHtoEscrow()": {
        "details": "Send eth to Escrow"
      },
      "sendFinalizeRewards(address)": {
        "details": "send reward to the user that pressed finalize button"
      },
      "sendKTYtoEscrow(uint256)": {
        "details": "Send KTY from EndowmentFund to Escrow"
      },
      "transferEscrowOwnership(address)": {
        "details": "change Escrow contract owner before UPGRADING ENDOWMENT AS IT IS THE OWNER"
      },
      "updateHoneyPotState(uint256,uint256)": {
        "details": "updateHoneyPotState"
      }
    },
    "title": "EndowmentFund"
  },
  "userdoc": {
    "methods": {
      "getWinnerShare(uint256,address)": {
        "notice": "Calculates amount of Eth the winner can claim"
      },
      "initUpgradeEscrow(address)": {
        "notice": "BEFORE CALLING: Deploy escrow contract and set the owner as EndowmentFund contract"
      },
      "setProxy(address)": {
        "notice": "Set/update address of Proxy contract"
      },
      "transferEscrowOwnership(address)": {
        "notice": "MUST BE DONE BEFORE UPGRADING ENDOWMENT AS IT IS THE OWNER"
      }
    }
  }
}