{
  "contractName": "EndowmentDB",
  "abi": [
    {
      "inputs": [
        {
          "internalType": "contract GenericDB",
          "name": "_genericDB",
          "type": "address"
        }
      ],
      "payable": false,
      "stateMutability": "nonpayable",
      "type": "constructor"
    },
    {
      "constant": true,
      "inputs": [],
      "name": "genericDB",
      "outputs": [
        {
          "internalType": "contract GenericDB",
          "name": "",
          "type": "address"
        }
      ],
      "payable": false,
      "stateMutability": "view",
      "type": "function"
    },
    {
      "constant": true,
      "inputs": [],
      "name": "owner",
      "outputs": [
        {
          "internalType": "address payable",
          "name": "",
          "type": "address"
        }
      ],
      "payable": false,
      "stateMutability": "view",
      "type": "function"
    },
    {
      "constant": true,
      "inputs": [],
      "name": "proxy",
      "outputs": [
        {
          "internalType": "contract ProxyBase",
          "name": "",
          "type": "address"
        }
      ],
      "payable": false,
      "stateMutability": "view",
      "type": "function"
    },
    {
      "constant": false,
      "inputs": [
        {
          "internalType": "contract ProxyBase",
          "name": "_proxy",
          "type": "address"
        }
      ],
      "name": "setProxy",
      "outputs": [],
      "payable": false,
      "stateMutability": "nonpayable",
      "type": "function"
    },
    {
      "constant": false,
      "inputs": [
        {
          "internalType": "address payable",
          "name": "newOwner",
          "type": "address"
        }
      ],
      "name": "transferOwnership",
      "outputs": [],
      "payable": false,
      "stateMutability": "nonpayable",
      "type": "function"
    },
    {
      "constant": false,
      "inputs": [
        {
          "internalType": "contract GenericDB",
          "name": "_genericDB",
          "type": "address"
        }
      ],
      "name": "setGenericDB",
      "outputs": [],
      "payable": false,
      "stateMutability": "nonpayable",
      "type": "function"
    },
    {
      "constant": true,
      "inputs": [
        {
          "internalType": "uint256",
          "name": "_gameId",
          "type": "uint256"
        }
      ],
      "name": "getHoneyPotBalance",
      "outputs": [
        {
          "internalType": "uint256",
          "name": "honeyPotBalanceKTY",
          "type": "uint256"
        },
        {
          "internalType": "uint256",
          "name": "honeyPotBalanceETH",
          "type": "uint256"
        }
      ],
      "payable": false,
      "stateMutability": "view",
      "type": "function"
    },
    {
      "constant": false,
      "inputs": [
        {
          "internalType": "uint256",
          "name": "_gameId",
          "type": "uint256"
        },
        {
          "internalType": "uint256",
          "name": "_kty_amount",
          "type": "uint256"
        },
        {
          "internalType": "uint256",
          "name": "_eth_amount",
          "type": "uint256"
        },
        {
          "internalType": "bool",
          "name": "deductFunds",
          "type": "bool"
        }
      ],
      "name": "updateHoneyPotFund",
      "outputs": [
        {
          "internalType": "bool",
          "name": "",
          "type": "bool"
        }
      ],
      "payable": false,
      "stateMutability": "nonpayable",
      "type": "function"
    },
    {
      "constant": false,
      "inputs": [
        {
          "internalType": "uint256",
          "name": "_investment",
          "type": "uint256"
        }
      ],
      "name": "updateInvestment",
      "outputs": [],
      "payable": false,
      "stateMutability": "nonpayable",
      "type": "function"
    },
    {
      "constant": false,
      "inputs": [
        {
          "internalType": "uint256",
          "name": "_investment",
          "type": "uint256"
        }
      ],
      "name": "subInvestment",
      "outputs": [],
      "payable": false,
      "stateMutability": "nonpayable",
      "type": "function"
    },
    {
      "constant": false,
      "inputs": [
        {
          "internalType": "uint256",
          "name": "_kty_amount",
          "type": "uint256"
        },
        {
          "internalType": "uint256",
          "name": "_eth_amount",
          "type": "uint256"
        },
        {
          "internalType": "bool",
          "name": "deductFunds",
          "type": "bool"
        }
      ],
      "name": "updateEndowmentFund",
      "outputs": [
        {
          "internalType": "bool",
          "name": "",
          "type": "bool"
        }
      ],
      "payable": false,
      "stateMutability": "nonpayable",
      "type": "function"
    },
    {
      "constant": true,
      "inputs": [],
      "name": "getEndowmentBalance",
      "outputs": [
        {
          "internalType": "uint256",
          "name": "endowmentBalanceKTY",
          "type": "uint256"
        },
        {
          "internalType": "uint256",
          "name": "endowmentBalanceETH",
          "type": "uint256"
        }
      ],
      "payable": false,
      "stateMutability": "view",
      "type": "function"
    },
    {
      "constant": true,
      "inputs": [
        {
          "internalType": "uint256",
          "name": "gameId",
          "type": "uint256"
        }
      ],
      "name": "getHoneypotState",
      "outputs": [
        {
          "internalType": "uint256",
          "name": "state",
          "type": "uint256"
        },
        {
          "internalType": "uint256",
          "name": "claimTime",
          "type": "uint256"
        }
      ],
      "payable": false,
      "stateMutability": "view",
      "type": "function"
    },
    {
      "constant": false,
      "inputs": [
        {
          "internalType": "uint256",
          "name": "_gameId",
          "type": "uint256"
        },
        {
          "internalType": "uint256",
          "name": "state",
          "type": "uint256"
        }
      ],
      "name": "setHoneypotState",
      "outputs": [],
      "payable": false,
      "stateMutability": "nonpayable",
      "type": "function"
    },
    {
      "constant": true,
      "inputs": [
        {
          "internalType": "uint256",
          "name": "_gameId",
          "type": "uint256"
        }
      ],
      "name": "getHoneypotTotal",
      "outputs": [
        {
          "internalType": "uint256",
          "name": "totalEth",
          "type": "uint256"
        },
        {
          "internalType": "uint256",
          "name": "totalKty",
          "type": "uint256"
        }
      ],
      "payable": false,
      "stateMutability": "view",
      "type": "function"
    },
    {
      "constant": false,
      "inputs": [
        {
          "internalType": "uint256",
          "name": "gameId",
          "type": "uint256"
        },
        {
          "internalType": "uint256",
          "name": "ktyAllocated",
          "type": "uint256"
        },
        {
          "internalType": "uint256",
          "name": "ethAllocated",
          "type": "uint256"
        },
        {
          "internalType": "string",
          "name": "honeypotClass",
          "type": "string"
        }
      ],
      "name": "generateHoneyPot",
      "outputs": [
        {
          "internalType": "uint256",
          "name": "",
          "type": "uint256"
        },
        {
          "internalType": "uint256",
          "name": "",
          "type": "uint256"
        }
      ],
      "payable": false,
      "stateMutability": "nonpayable",
      "type": "function"
    },
    {
      "constant": false,
      "inputs": [
        {
          "internalType": "uint256",
          "name": "_gameId",
          "type": "uint256"
        },
        {
          "internalType": "address",
          "name": "_account",
          "type": "address"
        },
        {
          "internalType": "uint256",
          "name": "_eth_amount",
          "type": "uint256"
        },
        {
          "internalType": "uint256",
          "name": "_kty_amount",
          "type": "uint256"
        }
      ],
      "name": "setTotalDebit",
      "outputs": [
        {
          "internalType": "bool",
          "name": "",
          "type": "bool"
        }
      ],
      "payable": false,
      "stateMutability": "nonpayable",
      "type": "function"
    },
    {
      "constant": false,
      "inputs": [
        {
          "internalType": "uint256",
          "name": "_gameId",
          "type": "uint256"
        },
        {
          "internalType": "uint256",
          "name": "_poolId",
          "type": "uint256"
        }
      ],
      "name": "setPoolIDinGame",
      "outputs": [],
      "payable": false,
      "stateMutability": "nonpayable",
      "type": "function"
    },
    {
      "constant": false,
      "inputs": [
        {
          "internalType": "uint256",
          "name": "_gameId",
          "type": "uint256"
        },
        {
          "internalType": "uint256",
          "name": "_eth",
          "type": "uint256"
        }
      ],
      "name": "addETHtoPool",
      "outputs": [],
      "payable": false,
      "stateMutability": "nonpayable",
      "type": "function"
    },
    {
      "constant": false,
      "inputs": [
        {
          "internalType": "uint256",
          "name": "_eth",
          "type": "uint256"
        },
        {
          "internalType": "uint256",
          "name": "_pool_id",
          "type": "uint256"
        }
      ],
      "name": "subETHfromPool",
      "outputs": [],
      "payable": false,
      "stateMutability": "nonpayable",
      "type": "function"
    },
    {
      "constant": true,
      "inputs": [
        {
          "internalType": "uint256",
          "name": "_pool_id",
          "type": "uint256"
        }
      ],
      "name": "getETHinPool",
      "outputs": [
        {
          "internalType": "uint256",
          "name": "",
          "type": "uint256"
        }
      ],
      "payable": false,
      "stateMutability": "view",
      "type": "function"
    },
    {
      "constant": false,
      "inputs": [
        {
          "internalType": "uint256",
          "name": "pool_id",
          "type": "uint256"
        }
      ],
      "name": "checkInvestment",
      "outputs": [
        {
          "internalType": "uint256",
          "name": "",
          "type": "uint256"
        }
      ],
      "payable": false,
      "stateMutability": "nonpayable",
      "type": "function"
    },
    {
      "constant": true,
      "inputs": [
        {
          "internalType": "uint256",
          "name": "pool_id",
          "type": "uint256"
        }
      ],
      "name": "checkTotalForEpoch",
      "outputs": [
        {
          "internalType": "uint256",
          "name": "",
          "type": "uint256"
        }
      ],
      "payable": false,
      "stateMutability": "view",
      "type": "function"
    },
    {
      "constant": true,
      "inputs": [
        {
          "internalType": "uint256",
          "name": "_gameId",
          "type": "uint256"
        },
        {
          "internalType": "address",
          "name": "_account",
          "type": "address"
        }
      ],
      "name": "getTotalDebit",
      "outputs": [
        {
          "internalType": "uint256",
          "name": "ethTotalDebit",
          "type": "uint256"
        },
        {
          "internalType": "uint256",
          "name": "ktyTotalDebit",
          "type": "uint256"
        }
      ],
      "payable": false,
      "stateMutability": "view",
      "type": "function"
    },
    {
      "constant": true,
      "inputs": [
        {
          "internalType": "uint256",
          "name": "_gameId",
          "type": "uint256"
        }
      ],
      "name": "getPoolID",
      "outputs": [
        {
          "internalType": "uint256",
          "name": "poolID",
          "type": "uint256"
        }
      ],
      "payable": false,
      "stateMutability": "view",
      "type": "function"
    }
  ],
  "bytecode": "0x60806040523480156200001157600080fd5b50604051620064cc380380620064cc833981810160405260208110156200003757600080fd5b8101908080519060200190929190505050336000806101000a81548173ffffffffffffffffffffffffffffffffffffffff021916908373ffffffffffffffffffffffffffffffffffffffff1602179055506200009981620000a060201b60201c565b506200013b565b6000809054906101000a900473ffffffffffffffffffffffffffffffffffffffff1673ffffffffffffffffffffffffffffffffffffffff163373ffffffffffffffffffffffffffffffffffffffff1614620000f757fe5b80600260006101000a81548173ffffffffffffffffffffffffffffffffffffffff021916908373ffffffffffffffffffffffffffffffffffffffff16021790555050565b616381806200014b6000396000f3fe608060405234801561001057600080fd5b50600436106101735760003560e01c80638da5cb5b116100de578063d6f2030911610097578063ec55688911610071578063ec5568891461080b578063ee700e7814610855578063f2fde38b14610883578063fe4d0765146108c757610173565b8063d6f2030914610752578063d89140711461079b578063e7abb197146107dd57610173565b80638da5cb5b1461051e57806397107d6d14610568578063996ab60a146105ac5780639db1200b146105e4578063b0e2ac8c1461061c578063b4f4a1761461065e57610173565b806360dace5d1161013057806360dace5d146103325780636213fc6d146103745780636933bbd7146103ee5780636d71894b14610437578063712153b3146104795780637cee0879146104d557610173565b8063231eb69114610178578063292eff5b146101e15780633564e78c146102195780634afab8151461026357806350b1a7cd146102a75780635acce36b1461030d575b600080fd5b6101c46004803603604081101561018e57600080fd5b8101908080359060200190929190803573ffffffffffffffffffffffffffffffffffffffff1690602001909291905050506108ff565b604051808381526020018281526020019250505060405180910390f35b610217600480360360408110156101f757600080fd5b810190808035906020019092919080359060200190929190505050610fd5565b005b6102216113a8565b604051808273ffffffffffffffffffffffffffffffffffffffff1673ffffffffffffffffffffffffffffffffffffffff16815260200191505060405180910390f35b6102a56004803603602081101561027957600080fd5b81019080803573ffffffffffffffffffffffffffffffffffffffff1690602001909291905050506113ce565b005b6102f3600480360360808110156102bd57600080fd5b81019080803590602001909291908035906020019092919080359060200190929190803515159060200190929190505050611468565b604051808215151515815260200191505060405180910390f35b610315611dc6565b604051808381526020018281526020019250505060405180910390f35b61035e6004803603602081101561034857600080fd5b81019080803590602001909291905050506120fd565b6040518082815260200191505060405180910390f35b6103d46004803603608081101561038a57600080fd5b8101908080359060200190929190803573ffffffffffffffffffffffffffffffffffffffff16906020019092919080359060200190929190803590602001909291905050506122a4565b604051808215151515815260200191505060405180910390f35b61041a6004803603602081101561040457600080fd5b8101908080359060200190929190505050612c2a565b604051808381526020018281526020019250505060405180910390f35b6104636004803603602081101561044d57600080fd5b8101908080359060200190929190505050612f72565b6040518082815260200191505060405180910390f35b6104bb6004803603606081101561048f57600080fd5b8101908080359060200190929190803590602001909291908035151590602001909291905050506131cc565b604051808215151515815260200191505060405180910390f35b610501600480360360208110156104eb57600080fd5b8101908080359060200190929190505050613277565b604051808381526020018281526020019250505060405180910390f35b6105266135bf565b604051808273ffffffffffffffffffffffffffffffffffffffff1673ffffffffffffffffffffffffffffffffffffffff16815260200191505060405180910390f35b6105aa6004803603602081101561057e57600080fd5b81019080803573ffffffffffffffffffffffffffffffffffffffff1690602001909291905050506135e4565b005b6105e2600480360360408110156105c257600080fd5b81019080803590602001909291908035906020019092919050505061367e565b005b61061a600480360360408110156105fa57600080fd5b81019080803590602001909291908035906020019092919050505061389c565b005b6106486004803603602081101561063257600080fd5b8101908080359060200190929190505050613aba565b6040518082815260200191505060405180910390f35b6107356004803603608081101561067457600080fd5b81019080803590602001909291908035906020019092919080359060200190929190803590602001906401000000008111156106af57600080fd5b8201836020820111156106c157600080fd5b803590602001918460018302840111640100000000831117156106e357600080fd5b91908080601f016020809104026020016040519081016040528093929190818152602001838380828437600081840152601f19601f820116905080830192505050505050509192919290505050614065565b604051808381526020018281526020019250505060405180910390f35b61077e6004803603602081101561076857600080fd5b8101908080359060200190929190505050614130565b604051808381526020018281526020019250505060405180910390f35b6107c7600480360360208110156107b157600080fd5b8101908080359060200190929190505050614478565b6040518082815260200191505060405180910390f35b610809600480360360208110156107f357600080fd5b810190808035906020019092919050505061461f565b005b6108136146d2565b604051808273ffffffffffffffffffffffffffffffffffffffff1673ffffffffffffffffffffffffffffffffffffffff16815260200191505060405180910390f35b6108816004803603602081101561086b57600080fd5b81019080803590602001909291905050506146f8565b005b6108c56004803603602081101561089957600080fd5b81019080803573ffffffffffffffffffffffffffffffffffffffff1690602001909291905050506147ab565b005b6108fd600480360360408110156108dd57600080fd5b810190808035906020019092919080359060200190929190505050614879565b005b6000806040518060400160405280600d81526020017f456e646f776d656e7446756e640000000000000000000000000000000000000081525061094181614c5a565b610996576040517f08c379a000000000000000000000000000000000000000000000000000000000815260040180806020018281038252602d815260200180616320602d913960400191505060405180910390fd5b84600260009054906101000a900473ffffffffffffffffffffffffffffffffffffffff1673ffffffffffffffffffffffffffffffffffffffff166396edc0096040518060400160405280600b81526020017f456e646f776d656e74444200000000000000000000000000000000000000000081525060405160200180807f486f6e6579706f745461626c6500000000000000000000000000000000000000815250600d01905060405160208183030381529060405280519060200120846040518463ffffffff1660e01b81526004018080602001848152602001838152602001828103825285818151815260200191508051906020019080838360005b83811015610aae578082015181840152602081019050610a93565b50505050905090810190601f168015610adb5780820380516001836020036101000a031916815260200191505b5094505050505060206040518083038186803b158015610afa57600080fd5b505afa158015610b0e573d6000803e3d6000fd5b505050506040513d6020811015610b2457600080fd5b81019080805190602001909291905050506040518060400160405280600a81526020017f4e6f74206578697374730000000000000000000000000000000000000000000081525090610c11576040517f08c379a00000000000000000000000000000000000000000000000000000000081526004018080602001828103825283818151815260200191508051906020019080838360005b83811015610bd6578082015181840152602081019050610bbb565b50505050905090810190601f168015610c035780820380516001836020036101000a031916815260200191505b509250505060405180910390fd5b5060008686604051602001808381526020018273ffffffffffffffffffffffffffffffffffffffff1673ffffffffffffffffffffffffffffffffffffffff1660601b8152601401807f65746844656269740000000000000000000000000000000000000000000000008152506008019250505060405160208183030381529060405280519060200120905060008787604051602001808381526020018273ffffffffffffffffffffffffffffffffffffffff1673ffffffffffffffffffffffffffffffffffffffff1660601b8152601401807f6b7479446562697400000000000000000000000000000000000000000000000081525060080192505050604051602081830303815290604052805190602001209050600260009054906101000a900473ffffffffffffffffffffffffffffffffffffffff1673ffffffffffffffffffffffffffffffffffffffff166308acb5566040518060400160405280600b81526020017f456e646f776d656e744442000000000000000000000000000000000000000000815250846040518363ffffffff1660e01b81526004018080602001838152602001828103825284818151815260200191508051906020019080838360005b83811015610df0578082015181840152602081019050610dd5565b50505050905090810190601f168015610e1d5780820380516001836020036101000a031916815260200191505b50935050505060206040518083038186803b158015610e3b57600080fd5b505afa158015610e4f573d6000803e3d6000fd5b505050506040513d6020811015610e6557600080fd5b81019080805190602001909291905050509550600260009054906101000a900473ffffffffffffffffffffffffffffffffffffffff1673ffffffffffffffffffffffffffffffffffffffff166308acb5566040518060400160405280600b81526020017f456e646f776d656e744442000000000000000000000000000000000000000000815250836040518363ffffffff1660e01b81526004018080602001838152602001828103825284818151815260200191508051906020019080838360005b83811015610f42578082015181840152602081019050610f27565b50505050905090810190601f168015610f6f5780820380516001836020036101000a031916815260200191505b50935050505060206040518083038186803b158015610f8d57600080fd5b505afa158015610fa1573d6000803e3d6000fd5b505050506040513d6020811015610fb757600080fd5b81019080805190602001909291905050509450505050509250929050565b6040518060400160405280600d81526020017f456e646f776d656e7446756e640000000000000000000000000000000000000081525061101481614c5a565b611069576040517f08c379a000000000000000000000000000000000000000000000000000000000815260040180806020018281038252602d815260200180616320602d913960400191505060405180910390fd5b6000600260009054906101000a900473ffffffffffffffffffffffffffffffffffffffff1673ffffffffffffffffffffffffffffffffffffffff166308acb5566040518060400160405280600b81526020017f456e646f776d656e7444420000000000000000000000000000000000000000008152508560405160200180828152602001807f455448696e506f6f6c0000000000000000000000000000000000000000000000815250600901915050604051602081830303815290604052805190602001206040518363ffffffff1660e01b81526004018080602001838152602001828103825284818151815260200191508051906020019080838360005b83811015611183578082015181840152602081019050611168565b50505050905090810190601f1680156111b05780820380516001836020036101000a031916815260200191505b50935050505060206040518083038186803b1580156111ce57600080fd5b505afa1580156111e2573d6000803e3d6000fd5b505050506040513d60208110156111f857600080fd5b81019080805190602001909291905050509050600260009054906101000a900473ffffffffffffffffffffffffffffffffffffffff1673ffffffffffffffffffffffffffffffffffffffff16630214a37c6040518060400160405280600b81526020017f456e646f776d656e7444420000000000000000000000000000000000000000008152508560405160200180828152602001807f455448696e506f6f6c0000000000000000000000000000000000000000000000815250600901915050604051602081830303815290604052805190602001206112e18886614ea590919063ffffffff16565b6040518463ffffffff1660e01b81526004018080602001848152602001838152602001828103825285818151815260200191508051906020019080838360005b8381101561133c578082015181840152602081019050611321565b50505050905090810190601f1680156113695780820380516001836020036101000a031916815260200191505b50945050505050600060405180830381600087803b15801561138a57600080fd5b505af115801561139e573d6000803e3d6000fd5b5050505050505050565b600260009054906101000a900473ffffffffffffffffffffffffffffffffffffffff1681565b6000809054906101000a900473ffffffffffffffffffffffffffffffffffffffff1673ffffffffffffffffffffffffffffffffffffffff163373ffffffffffffffffffffffffffffffffffffffff161461142457fe5b80600260006101000a81548173ffffffffffffffffffffffffffffffffffffffff021916908373ffffffffffffffffffffffffffffffffffffffff16021790555050565b60006040518060400160405280600d81526020017f456e646f776d656e7446756e64000000000000000000000000000000000000008152506114a981614c5a565b6114fe576040517f08c379a000000000000000000000000000000000000000000000000000000000815260040180806020018281038252602d815260200180616320602d913960400191505060405180910390fd5b600080600087111561195c5760008860405160200180828152602001807f6b7479546f74616c000000000000000000000000000000000000000000000000815250600801915050604051602081830303815290604052805190602001209050600260009054906101000a900473ffffffffffffffffffffffffffffffffffffffff1673ffffffffffffffffffffffffffffffffffffffff166308acb5566040518060400160405280600b81526020017f456e646f776d656e744442000000000000000000000000000000000000000000815250836040518363ffffffff1660e01b81526004018080602001838152602001828103825284818151815260200191508051906020019080838360005b8381101561162757808201518184015260208101905061160c565b50505050905090810190601f1680156116545780820380516001836020036101000a031916815260200191505b50935050505060206040518083038186803b15801561167257600080fd5b505afa158015611686573d6000803e3d6000fd5b505050506040513d602081101561169c57600080fd5b81019080805190602001909291905050509250851561181057878310156116c257600080fd5b600260009054906101000a900473ffffffffffffffffffffffffffffffffffffffff1673ffffffffffffffffffffffffffffffffffffffff16630214a37c6040518060400160405280600b81526020017f456e646f776d656e7444420000000000000000000000000000000000000000008152508361174a8c88614ea590919063ffffffff16565b6040518463ffffffff1660e01b81526004018080602001848152602001838152602001828103825285818151815260200191508051906020019080838360005b838110156117a557808201518184015260208101905061178a565b50505050905090810190601f1680156117d25780820380516001836020036101000a031916815260200191505b50945050505050600060405180830381600087803b1580156117f357600080fd5b505af1158015611807573d6000803e3d6000fd5b5050505061195a565b600260009054906101000a900473ffffffffffffffffffffffffffffffffffffffff1673ffffffffffffffffffffffffffffffffffffffff16630214a37c6040518060400160405280600b81526020017f456e646f776d656e744442000000000000000000000000000000000000000000815250836118988c88614ebc90919063ffffffff16565b6040518463ffffffff1660e01b81526004018080602001848152602001838152602001828103825285818151815260200191508051906020019080838360005b838110156118f35780820151818401526020810190506118d8565b50505050905090810190601f1680156119205780820380516001836020036101000a031916815260200191505b50945050505050600060405180830381600087803b15801561194157600080fd5b505af1158015611955573d6000803e3d6000fd5b505050505b505b6000861115611db75760008860405160200180828152602001807f657468546f74616c000000000000000000000000000000000000000000000000815250600801915050604051602081830303815290604052805190602001209050600260009054906101000a900473ffffffffffffffffffffffffffffffffffffffff1673ffffffffffffffffffffffffffffffffffffffff166308acb5566040518060400160405280600b81526020017f456e646f776d656e744442000000000000000000000000000000000000000000815250836040518363ffffffff1660e01b81526004018080602001838152602001828103825284818151815260200191508051906020019080838360005b83811015611a82578082015181840152602081019050611a67565b50505050905090810190601f168015611aaf5780820380516001836020036101000a031916815260200191505b50935050505060206040518083038186803b158015611acd57600080fd5b505afa158015611ae1573d6000803e3d6000fd5b505050506040513d6020811015611af757600080fd5b810190808051906020019092919050505091508515611c6b5786821015611b1d57600080fd5b600260009054906101000a900473ffffffffffffffffffffffffffffffffffffffff1673ffffffffffffffffffffffffffffffffffffffff16630214a37c6040518060400160405280600b81526020017f456e646f776d656e74444200000000000000000000000000000000000000000081525083611ba58b87614ea590919063ffffffff16565b6040518463ffffffff1660e01b81526004018080602001848152602001838152602001828103825285818151815260200191508051906020019080838360005b83811015611c00578082015181840152602081019050611be5565b50505050905090810190601f168015611c2d5780820380516001836020036101000a031916815260200191505b50945050505050600060405180830381600087803b158015611c4e57600080fd5b505af1158015611c62573d6000803e3d6000fd5b50505050611db5565b600260009054906101000a900473ffffffffffffffffffffffffffffffffffffffff1673ffffffffffffffffffffffffffffffffffffffff16630214a37c6040518060400160405280600b81526020017f456e646f776d656e74444200000000000000000000000000000000000000000081525083611cf38b87614ebc90919063ffffffff16565b6040518463ffffffff1660e01b81526004018080602001848152602001838152602001828103825285818151815260200191508051906020019080838360005b83811015611d4e578082015181840152602081019050611d33565b50505050905090810190601f168015611d7b5780820380516001836020036101000a031916815260200191505b50945050505050600060405180830381600087803b158015611d9c57600080fd5b505af1158015611db0573d6000803e3d6000fd5b505050505b505b60019350505050949350505050565b600080600260009054906101000a900473ffffffffffffffffffffffffffffffffffffffff1673ffffffffffffffffffffffffffffffffffffffff166308acb5566040518060400160405280600b81526020017f456e646f776d656e74444200000000000000000000000000000000000000000081525060405160200180807f61637475616c46756e64734b5459000000000000000000000000000000000000815250600e019050604051602081830303815290604052805190602001206040518363ffffffff1660e01b81526004018080602001838152602001828103825284818151815260200191508051906020019080838360005b83811015611ed9578082015181840152602081019050611ebe565b50505050905090810190601f168015611f065780820380516001836020036101000a031916815260200191505b50935050505060206040518083038186803b158015611f2457600080fd5b505afa158015611f38573d6000803e3d6000fd5b505050506040513d6020811015611f4e57600080fd5b81019080805190602001909291905050509150600260009054906101000a900473ffffffffffffffffffffffffffffffffffffffff1673ffffffffffffffffffffffffffffffffffffffff166308acb5566040518060400160405280600b81526020017f456e646f776d656e74444200000000000000000000000000000000000000000081525060405160200180807f61637475616c46756e6473455448000000000000000000000000000000000000815250600e019050604051602081830303815290604052805190602001206040518363ffffffff1660e01b81526004018080602001838152602001828103825284818151815260200191508051906020019080838360005b83811015612071578082015181840152602081019050612056565b50505050905090810190601f16801561209e5780820380516001836020036101000a031916815260200191505b50935050505060206040518083038186803b1580156120bc57600080fd5b505afa1580156120d0573d6000803e3d6000fd5b505050506040513d60208110156120e657600080fd5b810190808051906020019092919050505090509091565b6000600260009054906101000a900473ffffffffffffffffffffffffffffffffffffffff1673ffffffffffffffffffffffffffffffffffffffff166308acb5566040518060400160405280600b81526020017f456e646f776d656e7444420000000000000000000000000000000000000000008152508460405160200180828152602001807f455448696e506f6f6c0000000000000000000000000000000000000000000000815250600901915050604051602081830303815290604052805190602001206040518363ffffffff1660e01b81526004018080602001838152602001828103825284818151815260200191508051906020019080838360005b838110156122175780820151818401526020810190506121fc565b50505050905090810190601f1680156122445780820380516001836020036101000a031916815260200191505b50935050505060206040518083038186803b15801561226257600080fd5b505afa158015612276573d6000803e3d6000fd5b505050506040513d602081101561228c57600080fd5b81019080805190602001909291905050509050919050565b60006040518060400160405280600d81526020017f456e646f776d656e7446756e64000000000000000000000000000000000000008152506122e581614c5a565b61233a576040517f08c379a000000000000000000000000000000000000000000000000000000000815260040180806020018281038252602d815260200180616320602d913960400191505060405180910390fd5b85600260009054906101000a900473ffffffffffffffffffffffffffffffffffffffff1673ffffffffffffffffffffffffffffffffffffffff166396edc0096040518060400160405280600b81526020017f456e646f776d656e74444200000000000000000000000000000000000000000081525060405160200180807f486f6e6579706f745461626c6500000000000000000000000000000000000000815250600d01905060405160208183030381529060405280519060200120846040518463ffffffff1660e01b81526004018080602001848152602001838152602001828103825285818151815260200191508051906020019080838360005b83811015612452578082015181840152602081019050612437565b50505050905090810190601f16801561247f5780820380516001836020036101000a031916815260200191505b5094505050505060206040518083038186803b15801561249e57600080fd5b505afa1580156124b2573d6000803e3d6000fd5b505050506040513d60208110156124c857600080fd5b81019080805190602001909291905050506040518060400160405280600a81526020017f4e6f742065786973747300000000000000000000000000000000000000000000815250906125b5576040517f08c379a00000000000000000000000000000000000000000000000000000000081526004018080602001828103825283818151815260200191508051906020019080838360005b8381101561257a57808201518184015260208101905061255f565b50505050905090810190601f1680156125a75780820380516001836020036101000a031916815260200191505b509250505060405180910390fd5b5060008511156128e95760008787604051602001808381526020018273ffffffffffffffffffffffffffffffffffffffff1673ffffffffffffffffffffffffffffffffffffffff1660601b8152601401807f6574684465626974000000000000000000000000000000000000000000000000815250600801925050506040516020818303038152906040528051906020012090506000600260009054906101000a900473ffffffffffffffffffffffffffffffffffffffff1673ffffffffffffffffffffffffffffffffffffffff166308acb5566040518060400160405280600b81526020017f456e646f776d656e744442000000000000000000000000000000000000000000815250846040518363ffffffff1660e01b81526004018080602001838152602001828103825284818151815260200191508051906020019080838360005b838110156127155780820151818401526020810190506126fa565b50505050905090810190601f1680156127425780820380516001836020036101000a031916815260200191505b50935050505060206040518083038186803b15801561276057600080fd5b505afa158015612774573d6000803e3d6000fd5b505050506040513d602081101561278a57600080fd5b81019080805190602001909291905050509050600260009054906101000a900473ffffffffffffffffffffffffffffffffffffffff1673ffffffffffffffffffffffffffffffffffffffff16630214a37c6040518060400160405280600b81526020017f456e646f776d656e744442000000000000000000000000000000000000000000815250846128258b86614ebc90919063ffffffff16565b6040518463ffffffff1660e01b81526004018080602001848152602001838152602001828103825285818151815260200191508051906020019080838360005b83811015612880578082015181840152602081019050612865565b50505050905090810190601f1680156128ad5780820380516001836020036101000a031916815260200191505b50945050505050600060405180830381600087803b1580156128ce57600080fd5b505af11580156128e2573d6000803e3d6000fd5b5050505050505b6000841115612c1c5760008787604051602001808381526020018273ffffffffffffffffffffffffffffffffffffffff1673ffffffffffffffffffffffffffffffffffffffff1660601b8152601401807f6b74794465626974000000000000000000000000000000000000000000000000815250600801925050506040516020818303038152906040528051906020012090506000600260009054906101000a900473ffffffffffffffffffffffffffffffffffffffff1673ffffffffffffffffffffffffffffffffffffffff166308acb5566040518060400160405280600b81526020017f456e646f776d656e744442000000000000000000000000000000000000000000815250846040518363ffffffff1660e01b81526004018080602001838152602001828103825284818151815260200191508051906020019080838360005b83811015612a48578082015181840152602081019050612a2d565b50505050905090810190601f168015612a755780820380516001836020036101000a031916815260200191505b50935050505060206040518083038186803b158015612a9357600080fd5b505afa158015612aa7573d6000803e3d6000fd5b505050506040513d6020811015612abd57600080fd5b81019080805190602001909291905050509050600260009054906101000a900473ffffffffffffffffffffffffffffffffffffffff1673ffffffffffffffffffffffffffffffffffffffff16630214a37c6040518060400160405280600b81526020017f456e646f776d656e74444200000000000000000000000000000000000000000081525084612b588a86614ebc90919063ffffffff16565b6040518463ffffffff1660e01b81526004018080602001848152602001838152602001828103825285818151815260200191508051906020019080838360005b83811015612bb3578082015181840152602081019050612b98565b50505050905090810190601f168015612be05780820380516001836020036101000a031916815260200191505b50945050505050600060405180830381600087803b158015612c0157600080fd5b505af1158015612c15573d6000803e3d6000fd5b5050505050505b600192505050949350505050565b600080600260009054906101000a900473ffffffffffffffffffffffffffffffffffffffff1673ffffffffffffffffffffffffffffffffffffffff166308acb5566040518060400160405280600b81526020017f456e646f776d656e7444420000000000000000000000000000000000000000008152508560405160200180828152602001807f7374617465000000000000000000000000000000000000000000000000000000815250600501915050604051602081830303815290604052805190602001206040518363ffffffff1660e01b81526004018080602001838152602001828103825284818151815260200191508051906020019080838360005b83811015612d45578082015181840152602081019050612d2a565b50505050905090810190601f168015612d725780820380516001836020036101000a031916815260200191505b50935050505060206040518083038186803b158015612d9057600080fd5b505afa158015612da4573d6000803e3d6000fd5b505050506040513d6020811015612dba57600080fd5b8101908080519060200190929190505050600260009054906101000a900473ffffffffffffffffffffffffffffffffffffffff1673ffffffffffffffffffffffffffffffffffffffff166308acb5566040518060400160405280600b81526020017f456e646f776d656e7444420000000000000000000000000000000000000000008152508660405160200180828152602001807f636c61696d54696d650000000000000000000000000000000000000000000000815250600901915050604051602081830303815290604052805190602001206040518363ffffffff1660e01b81526004018080602001838152602001828103825284818151815260200191508051906020019080838360005b83811015612ee3578082015181840152602081019050612ec8565b50505050905090810190601f168015612f105780820380516001836020036101000a031916815260200191505b50935050505060206040518083038186803b158015612f2e57600080fd5b505afa158015612f42573d6000803e3d6000fd5b505050506040513d6020811015612f5857600080fd5b810190808051906020019092919050505091509150915091565b60006040518060400160405280600981526020017f47616d6553746f72650000000000000000000000000000000000000000000000815250612fb381614c5a565b613008576040517f08c379a000000000000000000000000000000000000000000000000000000000815260040180806020018281038252602d815260200180616320602d913960400191505060405180910390fd5b6000613013846120fd565b90506000600260009054906101000a900473ffffffffffffffffffffffffffffffffffffffff1673ffffffffffffffffffffffffffffffffffffffff166308acb5566040518060400160405280600b81526020017f456e646f776d656e74444200000000000000000000000000000000000000000081525060405160200180807f61637475616c46756e6473455448000000000000000000000000000000000000815250600e019050604051602081830303815290604052805190602001206040518363ffffffff1660e01b81526004018080602001838152602001828103825284818151815260200191508051906020019080838360005b8381101561312757808201518184015260208101905061310c565b50505050905090810190601f1680156131545780820380516001836020036101000a031916815260200191505b50935050505060206040518083038186803b15801561317257600080fd5b505afa158015613186573d6000803e3d6000fd5b505050506040513d602081101561319c57600080fd5b810190808051906020019092919050505090506131c28282614ea590919063ffffffff16565b9350505050919050565b60006040518060400160405280600d81526020017f456e646f776d656e7446756e640000000000000000000000000000000000000081525061320d81614c5a565b613262576040517f08c379a000000000000000000000000000000000000000000000000000000000815260040180806020018281038252602d815260200180616320602d913960400191505060405180910390fd5b61326d858585614ed8565b9150509392505050565b600080600260009054906101000a900473ffffffffffffffffffffffffffffffffffffffff1673ffffffffffffffffffffffffffffffffffffffff166308acb5566040518060400160405280600b81526020017f456e646f776d656e7444420000000000000000000000000000000000000000008152508560405160200180828152602001807f657468546f74616c000000000000000000000000000000000000000000000000815250600801915050604051602081830303815290604052805190602001206040518363ffffffff1660e01b81526004018080602001838152602001828103825284818151815260200191508051906020019080838360005b83811015613392578082015181840152602081019050613377565b50505050905090810190601f1680156133bf5780820380516001836020036101000a031916815260200191505b50935050505060206040518083038186803b1580156133dd57600080fd5b505afa1580156133f1573d6000803e3d6000fd5b505050506040513d602081101561340757600080fd5b81019080805190602001909291905050509150600260009054906101000a900473ffffffffffffffffffffffffffffffffffffffff1673ffffffffffffffffffffffffffffffffffffffff166308acb5566040518060400160405280600b81526020017f456e646f776d656e7444420000000000000000000000000000000000000000008152508560405160200180828152602001807f6b7479546f74616c000000000000000000000000000000000000000000000000815250600801915050604051602081830303815290604052805190602001206040518363ffffffff1660e01b81526004018080602001838152602001828103825284818151815260200191508051906020019080838360005b83811015613532578082015181840152602081019050613517565b50505050905090810190601f16801561355f5780820380516001836020036101000a031916815260200191505b50935050505060206040518083038186803b15801561357d57600080fd5b505afa158015613591573d6000803e3d6000fd5b505050506040513d60208110156135a757600080fd5b81019080805190602001909291905050509050915091565b6000809054906101000a900473ffffffffffffffffffffffffffffffffffffffff1681565b6000809054906101000a900473ffffffffffffffffffffffffffffffffffffffff1673ffffffffffffffffffffffffffffffffffffffff163373ffffffffffffffffffffffffffffffffffffffff161461363a57fe5b80600160006101000a81548173ffffffffffffffffffffffffffffffffffffffff021916908373ffffffffffffffffffffffffffffffffffffffff16021790555050565b6040518060400160405280600d81526020017f456e646f776d656e7446756e64000000000000000000000000000000000000008152506136bd81614c5a565b613712576040517f08c379a000000000000000000000000000000000000000000000000000000000815260040180806020018281038252602d815260200180616320602d913960400191505060405180910390fd5b600260009054906101000a900473ffffffffffffffffffffffffffffffffffffffff1673ffffffffffffffffffffffffffffffffffffffff16630214a37c6040518060400160405280600b81526020017f456e646f776d656e7444420000000000000000000000000000000000000000008152508560405160200180828152602001807f737461746500000000000000000000000000000000000000000000000000000081525060050191505060405160208183030381529060405280519060200120856040518463ffffffff1660e01b81526004018080602001848152602001838152602001828103825285818151815260200191508051906020019080838360005b83811015613831578082015181840152602081019050613816565b50505050905090810190601f16801561385e5780820380516001836020036101000a031916815260200191505b50945050505050600060405180830381600087803b15801561387f57600080fd5b505af1158015613893573d6000803e3d6000fd5b50505050505050565b6040518060400160405280600c81526020017f47616d654372656174696f6e00000000000000000000000000000000000000008152506138db81614c5a565b613930576040517f08c379a000000000000000000000000000000000000000000000000000000000815260040180806020018281038252602d815260200180616320602d913960400191505060405180910390fd5b600260009054906101000a900473ffffffffffffffffffffffffffffffffffffffff1673ffffffffffffffffffffffffffffffffffffffff16630214a37c6040518060400160405280600b81526020017f456e646f776d656e7444420000000000000000000000000000000000000000008152508560405160200180828152602001807f706f6f6c4944000000000000000000000000000000000000000000000000000081525060060191505060405160208183030381529060405280519060200120856040518463ffffffff1660e01b81526004018080602001848152602001838152602001828103825285818151815260200191508051906020019080838360005b83811015613a4f578082015181840152602081019050613a34565b50505050905090810190601f168015613a7c5780820380516001836020036101000a031916815260200191505b50945050505050600060405180830381600087803b158015613a9d57600080fd5b505af1158015613ab1573d6000803e3d6000fd5b50505050505050565b60006040518060400160405280600c81526020017f5769746864726177506f6f6c0000000000000000000000000000000000000000815250613afb81614c5a565b613b50576040517f08c379a000000000000000000000000000000000000000000000000000000000815260040180806020018281038252602d815260200180616320602d913960400191505060405180910390fd5b6000808414613e9657613b75613b70600186614ea590919063ffffffff16565b6120fd565b9050600260009054906101000a900473ffffffffffffffffffffffffffffffffffffffff1673ffffffffffffffffffffffffffffffffffffffff16630214a37c6040518060400160405280600b81526020017f456e646f776d656e744442000000000000000000000000000000000000000000815250613bff600188614ea590919063ffffffff16565b60405160200180828152602001807f455448696e506f6f6c00000000000000000000000000000000000000000000008152506009019150506040516020818303038152906040528051906020012060006040518463ffffffff1660e01b81526004018080602001848152602001838152602001828103825285818151815260200191508051906020019080838360005b83811015613caa578082015181840152602081019050613c8f565b50505050905090810190601f168015613cd75780820380516001836020036101000a031916815260200191505b50945050505050600060405180830381600087803b158015613cf857600080fd5b505af1158015613d0c573d6000803e3d6000fd5b50505050600260009054906101000a900473ffffffffffffffffffffffffffffffffffffffff1673ffffffffffffffffffffffffffffffffffffffff16630214a37c6040518060400160405280600b81526020017f456e646f776d656e7444420000000000000000000000000000000000000000008152508660405160200180828152602001807f455448696e506f6f6c000000000000000000000000000000000000000000000081525060090191505060405160208183030381529060405280519060200120846040518463ffffffff1660e01b81526004018080602001848152602001838152602001828103825285818151815260200191508051906020019080838360005b83811015613e2f578082015181840152602081019050613e14565b50505050905090810190601f168015613e5c5780820380516001836020036101000a031916815260200191505b50945050505050600060405180830381600087803b158015613e7d57600080fd5b505af1158015613e91573d6000803e3d6000fd5b505050505b613ea560006003546000614ed8565b506000600260009054906101000a900473ffffffffffffffffffffffffffffffffffffffff1673ffffffffffffffffffffffffffffffffffffffff166308acb5566040518060400160405280600b81526020017f456e646f776d656e74444200000000000000000000000000000000000000000081525060405160200180807f61637475616c46756e6473455448000000000000000000000000000000000000815250600e019050604051602081830303815290604052805190602001206040518363ffffffff1660e01b81526004018080602001838152602001828103825284818151815260200191508051906020019080838360005b83811015613fb8578082015181840152602081019050613f9d565b50505050905090810190601f168015613fe55780820380516001836020036101000a031916815260200191505b50935050505060206040518083038186803b15801561400357600080fd5b505afa158015614017573d6000803e3d6000fd5b505050506040513d602081101561402d57600080fd5b81019080805190602001909291905050509050600060038190555061405b8282614ea590919063ffffffff16565b9350505050919050565b6000806040518060400160405280601681526020017f486f6e6579706f74416c6c6f636174696f6e416c676f000000000000000000008152506140a781614c5a565b6140fc576040517f08c379a000000000000000000000000000000000000000000000000000000000815260040180806020018281038252602d815260200180616320602d913960400191505060405180910390fd5b61410b8760004289898961589c565b61411786866001614ed8565b61412057600080fd5b8585925092505094509492505050565b600080600260009054906101000a900473ffffffffffffffffffffffffffffffffffffffff1673ffffffffffffffffffffffffffffffffffffffff166308acb5566040518060400160405280600b81526020017f456e646f776d656e7444420000000000000000000000000000000000000000008152508560405160200180828152602001807f6b7479546f74616c000000000000000000000000000000000000000000000000815250600801915050604051602081830303815290604052805190602001206040518363ffffffff1660e01b81526004018080602001838152602001828103825284818151815260200191508051906020019080838360005b8381101561424b578082015181840152602081019050614230565b50505050905090810190601f1680156142785780820380516001836020036101000a031916815260200191505b50935050505060206040518083038186803b15801561429657600080fd5b505afa1580156142aa573d6000803e3d6000fd5b505050506040513d60208110156142c057600080fd5b81019080805190602001909291905050509150600260009054906101000a900473ffffffffffffffffffffffffffffffffffffffff1673ffffffffffffffffffffffffffffffffffffffff166308acb5566040518060400160405280600b81526020017f456e646f776d656e7444420000000000000000000000000000000000000000008152508560405160200180828152602001807f657468546f74616c000000000000000000000000000000000000000000000000815250600801915050604051602081830303815290604052805190602001206040518363ffffffff1660e01b81526004018080602001838152602001828103825284818151815260200191508051906020019080838360005b838110156143eb5780820151818401526020810190506143d0565b50505050905090810190601f1680156144185780820380516001836020036101000a031916815260200191505b50935050505060206040518083038186803b15801561443657600080fd5b505afa15801561444a573d6000803e3d6000fd5b505050506040513d602081101561446057600080fd5b81019080805190602001909291905050509050915091565b6000600260009054906101000a900473ffffffffffffffffffffffffffffffffffffffff1673ffffffffffffffffffffffffffffffffffffffff166308acb5566040518060400160405280600b81526020017f456e646f776d656e7444420000000000000000000000000000000000000000008152508460405160200180828152602001807f706f6f6c49440000000000000000000000000000000000000000000000000000815250600601915050604051602081830303815290604052805190602001206040518363ffffffff1660e01b81526004018080602001838152602001828103825284818151815260200191508051906020019080838360005b83811015614592578082015181840152602081019050614577565b50505050905090810190601f1680156145bf5780820380516001836020036101000a031916815260200191505b50935050505060206040518083038186803b1580156145dd57600080fd5b505afa1580156145f1573d6000803e3d6000fd5b505050506040513d602081101561460757600080fd5b81019080805190602001909291905050509050919050565b6040518060400160405280600d81526020017f456e646f776d656e7446756e640000000000000000000000000000000000000081525061465e81614c5a565b6146b3576040517f08c379a000000000000000000000000000000000000000000000000000000000815260040180806020018281038252602d815260200180616320602d913960400191505060405180910390fd5b6146c882600354614ea590919063ffffffff16565b6003819055505050565b600160009054906101000a900473ffffffffffffffffffffffffffffffffffffffff1681565b6040518060400160405280600d81526020017f456e646f776d656e7446756e640000000000000000000000000000000000000081525061473781614c5a565b61478c576040517f08c379a000000000000000000000000000000000000000000000000000000000815260040180806020018281038252602d815260200180616320602d913960400191505060405180910390fd5b6147a182600354614ebc90919063ffffffff16565b6003819055505050565b6000809054906101000a900473ffffffffffffffffffffffffffffffffffffffff1673ffffffffffffffffffffffffffffffffffffffff163373ffffffffffffffffffffffffffffffffffffffff161461480157fe5b600073ffffffffffffffffffffffffffffffffffffffff168173ffffffffffffffffffffffffffffffffffffffff161461487657806000806101000a81548173ffffffffffffffffffffffffffffffffffffffff021916908373ffffffffffffffffffffffffffffffffffffffff1602179055505b50565b6040518060400160405280600d81526020017f456e646f776d656e7446756e64000000000000000000000000000000000000008152506148b881614c5a565b61490d576040517f08c379a000000000000000000000000000000000000000000000000000000000815260040180806020018281038252602d815260200180616320602d913960400191505060405180910390fd5b600061491884614478565b90506000600260009054906101000a900473ffffffffffffffffffffffffffffffffffffffff1673ffffffffffffffffffffffffffffffffffffffff166308acb5566040518060400160405280600b81526020017f456e646f776d656e7444420000000000000000000000000000000000000000008152508460405160200180828152602001807f455448696e506f6f6c0000000000000000000000000000000000000000000000815250600901915050604051602081830303815290604052805190602001206040518363ffffffff1660e01b81526004018080602001838152602001828103825284818151815260200191508051906020019080838360005b83811015614a34578082015181840152602081019050614a19565b50505050905090810190601f168015614a615780820380516001836020036101000a031916815260200191505b50935050505060206040518083038186803b158015614a7f57600080fd5b505afa158015614a93573d6000803e3d6000fd5b505050506040513d6020811015614aa957600080fd5b81019080805190602001909291905050509050600260009054906101000a900473ffffffffffffffffffffffffffffffffffffffff1673ffffffffffffffffffffffffffffffffffffffff16630214a37c6040518060400160405280600b81526020017f456e646f776d656e7444420000000000000000000000000000000000000000008152508460405160200180828152602001807f455448696e506f6f6c000000000000000000000000000000000000000000000081525060090191505060405160208183030381529060405280519060200120614b928886614ebc90919063ffffffff16565b6040518463ffffffff1660e01b81526004018080602001848152602001838152602001828103825285818151815260200191508051906020019080838360005b83811015614bed578082015181840152602081019050614bd2565b50505050905090810190601f168015614c1a5780820380516001836020036101000a031916815260200191505b50945050505050600060405180830381600087803b158015614c3b57600080fd5b505af1158015614c4f573d6000803e3d6000fd5b505050505050505050565b60008073ffffffffffffffffffffffffffffffffffffffff16600160009054906101000a900473ffffffffffffffffffffffffffffffffffffffff1673ffffffffffffffffffffffffffffffffffffffff161415614d20576040517f08c379a00000000000000000000000000000000000000000000000000000000081526004018080602001828103825260088152602001807f4e6f2050726f787900000000000000000000000000000000000000000000000081525060200191505060405180910390fd5b6000600160009054906101000a900473ffffffffffffffffffffffffffffffffffffffff1673ffffffffffffffffffffffffffffffffffffffff166335817773846040518263ffffffff1660e01b81526004018080602001828103825283818151815260200191508051906020019080838360005b83811015614db0578082015181840152602081019050614d95565b50505050905090810190601f168015614ddd5780820380516001836020036101000a031916815260200191505b509250505060206040518083038186803b158015614dfa57600080fd5b505afa158015614e0e573d6000803e3d6000fd5b505050506040513d6020811015614e2457600080fd5b81019080805190602001909291905050509050600073ffffffffffffffffffffffffffffffffffffffff168173ffffffffffffffffffffffffffffffffffffffff161415614e6e57fe5b8073ffffffffffffffffffffffffffffffffffffffff163373ffffffffffffffffffffffffffffffffffffffff1614915050919050565b600082821115614eb157fe5b818303905092915050565b600080828401905083811015614ece57fe5b8091505092915050565b6000808411156153b5576000600260009054906101000a900473ffffffffffffffffffffffffffffffffffffffff1673ffffffffffffffffffffffffffffffffffffffff166308acb5566040518060400160405280600b81526020017f456e646f776d656e74444200000000000000000000000000000000000000000081525060405160200180807f61637475616c46756e64734b5459000000000000000000000000000000000000815250600e019050604051602081830303815290604052805190602001206040518363ffffffff1660e01b81526004018080602001838152602001828103825284818151815260200191508051906020019080838360005b83811015614ff4578082015181840152602081019050614fd9565b50505050905090810190601f1680156150215780820380516001836020036101000a031916815260200191505b50935050505060206040518083038186803b15801561503f57600080fd5b505afa158015615053573d6000803e3d6000fd5b505050506040513d602081101561506957600080fd5b810190808051906020019092919050505090508215615223578481101561508f57600080fd5b600260009054906101000a900473ffffffffffffffffffffffffffffffffffffffff1673ffffffffffffffffffffffffffffffffffffffff16630214a37c6040518060400160405280600b81526020017f456e646f776d656e74444200000000000000000000000000000000000000000081525060405160200180807f61637475616c46756e64734b5459000000000000000000000000000000000000815250600e0190506040516020818303038152906040528051906020012061515d8986614ea590919063ffffffff16565b6040518463ffffffff1660e01b81526004018080602001848152602001838152602001828103825285818151815260200191508051906020019080838360005b838110156151b857808201518184015260208101905061519d565b50505050905090810190601f1680156151e55780820380516001836020036101000a031916815260200191505b50945050505050600060405180830381600087803b15801561520657600080fd5b505af115801561521a573d6000803e3d6000fd5b505050506153b3565b600260009054906101000a900473ffffffffffffffffffffffffffffffffffffffff1673ffffffffffffffffffffffffffffffffffffffff16630214a37c6040518060400160405280600b81526020017f456e646f776d656e74444200000000000000000000000000000000000000000081525060405160200180807f61637475616c46756e64734b5459000000000000000000000000000000000000815250600e019050604051602081830303815290604052805190602001206152f18986614ebc90919063ffffffff16565b6040518463ffffffff1660e01b81526004018080602001848152602001838152602001828103825285818151815260200191508051906020019080838360005b8381101561534c578082015181840152602081019050615331565b50505050905090810190601f1680156153795780820380516001836020036101000a031916815260200191505b50945050505050600060405180830381600087803b15801561539a57600080fd5b505af11580156153ae573d6000803e3d6000fd5b505050505b505b6000831115615891576000600260009054906101000a900473ffffffffffffffffffffffffffffffffffffffff1673ffffffffffffffffffffffffffffffffffffffff166308acb5566040518060400160405280600b81526020017f456e646f776d656e74444200000000000000000000000000000000000000000081525060405160200180807f61637475616c46756e6473455448000000000000000000000000000000000000815250600e019050604051602081830303815290604052805190602001206040518363ffffffff1660e01b81526004018080602001838152602001828103825284818151815260200191508051906020019080838360005b838110156154d05780820151818401526020810190506154b5565b50505050905090810190601f1680156154fd5780820380516001836020036101000a031916815260200191505b50935050505060206040518083038186803b15801561551b57600080fd5b505afa15801561552f573d6000803e3d6000fd5b505050506040513d602081101561554557600080fd5b8101908080519060200190929190505050905082156156ff578381101561556b57600080fd5b600260009054906101000a900473ffffffffffffffffffffffffffffffffffffffff1673ffffffffffffffffffffffffffffffffffffffff16630214a37c6040518060400160405280600b81526020017f456e646f776d656e74444200000000000000000000000000000000000000000081525060405160200180807f61637475616c46756e6473455448000000000000000000000000000000000000815250600e019050604051602081830303815290604052805190602001206156398886614ea590919063ffffffff16565b6040518463ffffffff1660e01b81526004018080602001848152602001838152602001828103825285818151815260200191508051906020019080838360005b83811015615694578082015181840152602081019050615679565b50505050905090810190601f1680156156c15780820380516001836020036101000a031916815260200191505b50945050505050600060405180830381600087803b1580156156e257600080fd5b505af11580156156f6573d6000803e3d6000fd5b5050505061588f565b600260009054906101000a900473ffffffffffffffffffffffffffffffffffffffff1673ffffffffffffffffffffffffffffffffffffffff16630214a37c6040518060400160405280600b81526020017f456e646f776d656e74444200000000000000000000000000000000000000000081525060405160200180807f61637475616c46756e6473455448000000000000000000000000000000000000815250600e019050604051602081830303815290604052805190602001206157cd8886614ebc90919063ffffffff16565b6040518463ffffffff1660e01b81526004018080602001848152602001838152602001828103825285818151815260200191508051906020019080838360005b8381101561582857808201518184015260208101905061580d565b50505050905090810190601f1680156158555780820380516001836020036101000a031916815260200191505b50945050505050600060405180830381600087803b15801561587657600080fd5b505af115801561588a573d6000803e3d6000fd5b505050505b505b600190509392505050565b600260009054906101000a900473ffffffffffffffffffffffffffffffffffffffff1673ffffffffffffffffffffffffffffffffffffffff166387d533626040518060400160405280600b81526020017f456e646f776d656e74444200000000000000000000000000000000000000000081525060405160200180807f486f6e6579706f745461626c6500000000000000000000000000000000000000815250600d01905060405160208183030381529060405280519060200120896040518463ffffffff1660e01b81526004018080602001848152602001838152602001828103825285818151815260200191508051906020019080838360005b838110156159b3578082015181840152602081019050615998565b50505050905090810190601f1680156159e05780820380516001836020036101000a031916815260200191505b50945050505050602060405180830381600087803b158015615a0157600080fd5b505af1158015615a15573d6000803e3d6000fd5b505050506040513d6020811015615a2b57600080fd5b81019080805190602001909291905050506040518060400160405280600e81526020017f416c72656164792065786973747300000000000000000000000000000000000081525090615b18576040517f08c379a00000000000000000000000000000000000000000000000000000000081526004018080602001828103825283818151815260200191508051906020019080838360005b83811015615add578082015181840152602081019050615ac2565b50505050905090810190601f168015615b0a5780820380516001836020036101000a031916815260200191505b509250505060405180910390fd5b50600260009054906101000a900473ffffffffffffffffffffffffffffffffffffffff1673ffffffffffffffffffffffffffffffffffffffff16630214a37c6040518060400160405280600b81526020017f456e646f776d656e7444420000000000000000000000000000000000000000008152508860405160200180828152602001807f737461746500000000000000000000000000000000000000000000000000000081525060050191505060405160208183030381529060405280519060200120886040518463ffffffff1660e01b81526004018080602001848152602001838152602001828103825285818151815260200191508051906020019080838360005b83811015615c38578082015181840152602081019050615c1d565b50505050905090810190601f168015615c655780820380516001836020036101000a031916815260200191505b50945050505050600060405180830381600087803b158015615c8657600080fd5b505af1158015615c9a573d6000803e3d6000fd5b50505050600260009054906101000a900473ffffffffffffffffffffffffffffffffffffffff1673ffffffffffffffffffffffffffffffffffffffff16630214a37c6040518060400160405280600b81526020017f456e646f776d656e7444420000000000000000000000000000000000000000008152508860405160200180828152602001807f6372656174656454696d65000000000000000000000000000000000000000000815250600b0191505060405160208183030381529060405280519060200120876040518463ffffffff1660e01b81526004018080602001848152602001838152602001828103825285818151815260200191508051906020019080838360005b83811015615dbd578082015181840152602081019050615da2565b50505050905090810190601f168015615dea5780820380516001836020036101000a031916815260200191505b50945050505050600060405180830381600087803b158015615e0b57600080fd5b505af1158015615e1f573d6000803e3d6000fd5b50505050600260009054906101000a900473ffffffffffffffffffffffffffffffffffffffff1673ffffffffffffffffffffffffffffffffffffffff16630214a37c6040518060400160405280600b81526020017f456e646f776d656e7444420000000000000000000000000000000000000000008152508860405160200180828152602001807f6b7479546f74616c00000000000000000000000000000000000000000000000081525060080191505060405160208183030381529060405280519060200120866040518463ffffffff1660e01b81526004018080602001848152602001838152602001828103825285818151815260200191508051906020019080838360005b83811015615f42578082015181840152602081019050615f27565b50505050905090810190601f168015615f6f5780820380516001836020036101000a031916815260200191505b50945050505050600060405180830381600087803b158015615f9057600080fd5b505af1158015615fa4573d6000803e3d6000fd5b50505050600260009054906101000a900473ffffffffffffffffffffffffffffffffffffffff1673ffffffffffffffffffffffffffffffffffffffff16630214a37c6040518060400160405280600b81526020017f456e646f776d656e7444420000000000000000000000000000000000000000008152508860405160200180828152602001807f657468546f74616c00000000000000000000000000000000000000000000000081525060080191505060405160208183030381529060405280519060200120856040518463ffffffff1660e01b81526004018080602001848152602001838152602001828103825285818151815260200191508051906020019080838360005b838110156160c75780820151818401526020810190506160ac565b50505050905090810190601f1680156160f45780820380516001836020036101000a031916815260200191505b50945050505050600060405180830381600087803b15801561611557600080fd5b505af1158015616129573d6000803e3d6000fd5b50505050600260009054906101000a900473ffffffffffffffffffffffffffffffffffffffff1673ffffffffffffffffffffffffffffffffffffffff1663ae2660106040518060400160405280600b81526020017f456e646f776d656e7444420000000000000000000000000000000000000000008152508860405160200180828152602001807f686f6e6579706f74436c61737300000000000000000000000000000000000000815250600d0191505060405160208183030381529060405280519060200120846040518463ffffffff1660e01b8152600401808060200184815260200180602001838103835286818151815260200191508051906020019080838360005b8381101561624a57808201518184015260208101905061622f565b50505050905090810190601f1680156162775780820380516001836020036101000a031916815260200191505b50838103825284818151815260200191508051906020019080838360005b838110156162b0578082015181840152602081019050616295565b50505050905090810190601f1680156162dd5780820380516001836020036101000a031916815260200191505b5095505050505050600060405180830381600087803b1580156162ff57600080fd5b505af1158015616313573d6000803e3d6000fd5b5050505050505050505056fe416363657373206973206f6e6c7920616c6c6f7765642066726f6d20737065636966696320636f6e7472616374a265627a7a723158204bf6125e4626e67ad00fb362365603fddbcbd4344d899cc36d4de704fc20046164736f6c63430005110032",
  "source": "pragma solidity ^0.5.5;\n\nimport \"./GenericDB.sol\";\nimport \"../proxy/Proxied.sol\";\nimport \"../../libs/SafeMath.sol\";\nimport \"../endowment/EndowmentFund.sol\";\n\ncontract EndowmentDB is Proxied {\n  using SafeMath for uint256;\n\n  GenericDB public genericDB;\n\n  // TABLE_KEY_PROFILE for ProfileDB lookup (read-only).\n  bytes32 internal constant TABLE_KEY_PROFILE = keccak256(abi.encodePacked(\"ProfileTable\"));\n  // TABLE_KEY_HONEYPOT defines a set for active Honeypots of EndowmentFund.\n  bytes32 internal constant TABLE_KEY_HONEYPOT = keccak256(abi.encodePacked(\"HoneypotTable\"));\n  // TABLE_KEY_HONEYPOT_DISSOLVED defines a set for dissolved honeypots of EndowmentFund.\n  bytes32 internal constant TABLE_KEY_HONEYPOT_DISSOLVED = keccak256(abi.encodePacked(\"HoneypotDissolvedTable\"));\n  // TABLE_NAME_CONTRIBUTION_KTY defines a set of KTY contributors of a honeypot of EndowmentFund.\n  bytes32 internal constant TABLE_NAME_CONTRIBUTION_KTY = \"ContributionTableKTY\";\n  // TABLE_NAME_CONTRIBUTION_ETH defines a set of ETH contributors of a honeypot of EndowmentFund.\n  bytes32 internal constant TABLE_NAME_CONTRIBUTION_ETH = \"ContributionTableETH\";\n  // VAR_KEY_ACTUAL_FUNDS_KTY\n  bytes32 internal constant VAR_KEY_ACTUAL_FUNDS_KTY = keccak256(abi.encodePacked(\"actualFundsKTY\"));\n  // VAR_KEY_ACTUAL_FUNDS_ETH\n  bytes32 internal constant VAR_KEY_ACTUAL_FUNDS_ETH = keccak256(abi.encodePacked(\"actualFundsETH\"));\n  // VAR_KEY_INGAME_FUNDS_KTY\n  bytes32 internal constant VAR_KEY_INGAME_FUNDS_KTY = keccak256(abi.encodePacked(\"ingameFundsKTY\"));\n  // VAR_KEY_INGAME_FUNDS_ETH\n  bytes32 internal constant VAR_KEY_INGAME_FUNDS_ETH = keccak256(abi.encodePacked(\"ingameFundsETH\"));\n\n  string internal constant ERROR_DOES_NOT_EXIST = \"Not exists\";\n  string internal constant ERROR_NOT_REGISTERED = \"Not registered\";\n  string internal constant ERROR_ALREADY_EXIST = \"Already exists\";\n  string internal constant ERROR_INSUFFICIENT_FUNDS = \"Insufficient funds\";\n\n  uint256 investmentForNext;\n\n  constructor(GenericDB _genericDB) public {\n    setGenericDB(_genericDB);\n  }\n\n  function setGenericDB(GenericDB _genericDB) public onlyOwner {\n    genericDB = _genericDB;\n  }\n\n  function getHoneyPotBalance(uint256 _gameId) public view\n  returns (uint256 honeyPotBalanceKTY, uint256 honeyPotBalanceETH)  {\n    honeyPotBalanceKTY = genericDB.getUintStorage(CONTRACT_NAME_ENDOWMENT_DB, keccak256(abi.encodePacked(_gameId, \"ktyTotal\")));\n    honeyPotBalanceETH = genericDB.getUintStorage(CONTRACT_NAME_ENDOWMENT_DB, keccak256(abi.encodePacked(_gameId, \"ethTotal\")));\n  }\n\n  function updateHoneyPotFund(\n    uint256 _gameId, uint256 _kty_amount, uint256 _eth_amount, bool deductFunds\n  )\n    external\n    onlyContract(CONTRACT_NAME_ENDOWMENT_FUND)\n    returns (bool)\n  {\n    uint honeyPotKtyTotal;\n    uint honeyPotEthTotal;\n\n    if (_kty_amount > 0){\n\n      // get total Kty availabe in the HoneyPot\n      bytes32 honeyPotKtyTotalKey = keccak256(abi.encodePacked(_gameId, \"ktyTotal\"));\n      honeyPotKtyTotal = genericDB.getUintStorage(CONTRACT_NAME_ENDOWMENT_DB, honeyPotKtyTotalKey);\n\n      if (deductFunds){\n\n        require(honeyPotKtyTotal >= _kty_amount);\n\n        genericDB.setUintStorage(CONTRACT_NAME_ENDOWMENT_DB, honeyPotKtyTotalKey, honeyPotKtyTotal.sub(_kty_amount));\n\n      }else{ // add\n\n        genericDB.setUintStorage(CONTRACT_NAME_ENDOWMENT_DB, honeyPotKtyTotalKey, honeyPotKtyTotal.add(_kty_amount));\n\n      }\n    }\n\n    if (_eth_amount > 0){\n      // get total Eth availabe in the HoneyPot\n      bytes32 honeyPotEthTotalKey = keccak256(abi.encodePacked(_gameId, \"ethTotal\"));\n      honeyPotEthTotal = genericDB.getUintStorage(CONTRACT_NAME_ENDOWMENT_DB, honeyPotEthTotalKey);\n\n      if (deductFunds){\n\n        require(honeyPotEthTotal >= _eth_amount);\n\n        genericDB.setUintStorage(CONTRACT_NAME_ENDOWMENT_DB, honeyPotEthTotalKey, honeyPotEthTotal.sub(_eth_amount));\n\n      }else{ // add\n\n        genericDB.setUintStorage(CONTRACT_NAME_ENDOWMENT_DB, honeyPotEthTotalKey, honeyPotEthTotal.add(_eth_amount));\n\n      }\n    }\n\n    return true;\n  }\n\n  function updateInvestment(uint256 _investment)\n  external\n  onlyContract(CONTRACT_NAME_ENDOWMENT_FUND)\n  {\n    investmentForNext = investmentForNext.add(_investment);\n  }\n\n  function subInvestment(uint256 _investment)\n  external\n  onlyContract(CONTRACT_NAME_ENDOWMENT_FUND)\n  {\n    investmentForNext = investmentForNext.sub(_investment);\n  }\n\n  function updateEndowmentFund(\n    uint256 _kty_amount, uint256 _eth_amount, bool deductFunds\n  )\n    external\n    onlyContract(CONTRACT_NAME_ENDOWMENT_FUND)\n    returns (bool)\n  {\n    return (_updateEndowmentFund(_kty_amount, _eth_amount, deductFunds));\n  }\n\n  function _updateEndowmentFund(\n    uint256 _kty_amount, uint256 _eth_amount, bool deductFunds\n  )\n    internal\n    returns (bool)\n  {\n\n    if (_kty_amount > 0){\n\n      uint actualFundsKTY = genericDB.getUintStorage(CONTRACT_NAME_ENDOWMENT_DB, VAR_KEY_ACTUAL_FUNDS_KTY);\n      if (deductFunds){\n\n        require(actualFundsKTY >= _kty_amount);\n\n        genericDB.setUintStorage(CONTRACT_NAME_ENDOWMENT_DB, VAR_KEY_ACTUAL_FUNDS_KTY, actualFundsKTY.sub(_kty_amount));\n\n      }else{ // add\n        genericDB.setUintStorage(CONTRACT_NAME_ENDOWMENT_DB, VAR_KEY_ACTUAL_FUNDS_KTY, actualFundsKTY.add(_kty_amount));\n\n      }\n    }\n\n    if (_eth_amount > 0){\n      uint actualFundsETH = genericDB.getUintStorage(CONTRACT_NAME_ENDOWMENT_DB, VAR_KEY_ACTUAL_FUNDS_ETH);\n\n      if (deductFunds){\n\n        require(actualFundsETH >= _eth_amount);\n\n        genericDB.setUintStorage(CONTRACT_NAME_ENDOWMENT_DB, VAR_KEY_ACTUAL_FUNDS_ETH, actualFundsETH.sub(_eth_amount));\n\n      }else{ // add\n\n        genericDB.setUintStorage(CONTRACT_NAME_ENDOWMENT_DB, VAR_KEY_ACTUAL_FUNDS_ETH, actualFundsETH.add(_eth_amount));\n\n      }\n    }\n\n    return true;\n  }\n\n  function getEndowmentBalance() public view\n  returns (uint256 endowmentBalanceKTY, uint256 endowmentBalanceETH)  {\n    endowmentBalanceKTY = genericDB.getUintStorage(CONTRACT_NAME_ENDOWMENT_DB, VAR_KEY_ACTUAL_FUNDS_KTY);\n    endowmentBalanceETH = genericDB.getUintStorage(CONTRACT_NAME_ENDOWMENT_DB, VAR_KEY_ACTUAL_FUNDS_ETH);\n  }\n\n  function createHoneypot(\n    uint gameId,\n    uint state,\n    uint createdTime,\n    uint ktyTotal,\n    uint ethTotal,\n    string memory honeypotClass\n  )\n    internal\n  {\n    require(genericDB.pushNodeToLinkedList(CONTRACT_NAME_ENDOWMENT_DB, TABLE_KEY_HONEYPOT, gameId), ERROR_ALREADY_EXIST);\n    genericDB.setUintStorage(CONTRACT_NAME_ENDOWMENT_DB, keccak256(abi.encodePacked(gameId, \"state\")), state);\n    genericDB.setUintStorage(CONTRACT_NAME_ENDOWMENT_DB, keccak256(abi.encodePacked(gameId, \"createdTime\")), createdTime);\n    genericDB.setUintStorage(CONTRACT_NAME_ENDOWMENT_DB, keccak256(abi.encodePacked(gameId, \"ktyTotal\")), ktyTotal);\n    genericDB.setUintStorage(CONTRACT_NAME_ENDOWMENT_DB, keccak256(abi.encodePacked(gameId, \"ethTotal\")), ethTotal);\n    genericDB.setStringStorage(CONTRACT_NAME_ENDOWMENT_DB, keccak256(abi.encodePacked(gameId, \"honeypotClass\")), honeypotClass);\n  }\n\n  function getHoneypotState(\n    uint gameId\n  )\n    external\n    view returns (uint state, uint256 claimTime)\n  {\n    return(\n      genericDB.getUintStorage(CONTRACT_NAME_ENDOWMENT_DB, keccak256(abi.encodePacked(gameId, \"state\"))),\n      genericDB.getUintStorage(CONTRACT_NAME_ENDOWMENT_DB, keccak256(abi.encodePacked(gameId, \"claimTime\")))\n    );\n  }\n\n  function setHoneypotState( uint _gameId, uint state)\n  external\n  onlyContract(CONTRACT_NAME_ENDOWMENT_FUND)\n  {\n    genericDB.setUintStorage(CONTRACT_NAME_ENDOWMENT_DB, keccak256(abi.encodePacked(_gameId, \"state\")), state);\n    // if (claimTime > 0){\n    //   genericDB.setUintStorage(CONTRACT_NAME_ENDOWMENT_DB, keccak256(abi.encodePacked(_gameId, \"claimTime\")), claimTime);\n    // }\n    // else{\n    //   genericDB.setUintStorage(CONTRACT_NAME_ENDOWMENT_DB, keccak256(abi.encodePacked(_gameId, \"claimTime\")), 0);\n    // }\n  }\n\n\n  function getHoneypotTotal(uint _gameId) external view returns (uint256 totalEth, uint256 totalKty) {\n      totalEth = genericDB.getUintStorage(CONTRACT_NAME_ENDOWMENT_DB, keccak256(abi.encodePacked(_gameId, \"ethTotal\")));\n      totalKty = genericDB.getUintStorage(CONTRACT_NAME_ENDOWMENT_DB, keccak256(abi.encodePacked(_gameId, \"ktyTotal\")));\n  }\n\n  /**\n  * @dev check if enough funds present and maintains balance of tokens in DB\n  */\n  function generateHoneyPot(uint256 gameId, uint256 ktyAllocated, uint256 ethAllocated, string memory honeypotClass)\n    public\n    onlyContract(CONTRACT_NAME_HONEYPOT_ALLOCATION_ALGO)\n    returns (uint, uint) {\n\n    // + adds amount to honeypot\n    createHoneypot(\n      gameId,\n      0,\n      now,\n      ktyAllocated,\n      ethAllocated,\n      honeypotClass\n    );\n\n    // deduct amount from endowment\n    require(_updateEndowmentFund(ktyAllocated, ethAllocated, true));\n\n    return (ktyAllocated, ethAllocated);\n  }\n\n/**\n * @dev store the total debit by an a/c per game\n */\n  function setTotalDebit(\n    uint _gameId, address _account, uint _eth_amount, uint _kty_amount\n  ) external\n    onlyContract(CONTRACT_NAME_ENDOWMENT_FUND)\n    onlyExistingHoneypot(_gameId)\n    returns (bool) {\n\n    if (_eth_amount > 0) {\n\n      bytes32 ethTotalDebitPerGamePerAcKey = keccak256(abi.encodePacked(_gameId, _account, \"ethDebit\"));\n      uint ethTotal = genericDB.getUintStorage(CONTRACT_NAME_ENDOWMENT_DB, ethTotalDebitPerGamePerAcKey);\n      genericDB.setUintStorage(CONTRACT_NAME_ENDOWMENT_DB, ethTotalDebitPerGamePerAcKey, ethTotal.add(_eth_amount));\n\n    }\n\n    if (_kty_amount > 0) {\n\n      bytes32 ktyTotalDebitPerGamePerAcKey = keccak256(abi.encodePacked(_gameId, _account, \"ktyDebit\"));\n      uint ktyTotal = genericDB.getUintStorage(CONTRACT_NAME_ENDOWMENT_DB, ktyTotalDebitPerGamePerAcKey);\n      genericDB.setUintStorage(CONTRACT_NAME_ENDOWMENT_DB, ktyTotalDebitPerGamePerAcKey, ktyTotal.add(_kty_amount));\n\n    }\n\n  return true;\n  }\n\n  function setPoolIDinGame(uint _gameId, uint _poolId)\n      external\n      onlyContract(CONTRACT_NAME_GAMECREATION)\n  {\n    genericDB.setUintStorage(\n      CONTRACT_NAME_ENDOWMENT_DB,\n      keccak256(abi.encodePacked(_gameId, \"poolID\")),\n      _poolId\n    );\n  }\n\n  function addETHtoPool(uint _gameId, uint _eth)\n      external\n      onlyContract(CONTRACT_NAME_ENDOWMENT_FUND)\n  {\n    // get _pool_id of the pool associated with the game with _gameId\n    uint _pool_id = getPoolID(_gameId);\n    // get previous amount of ether stored in this pool with _pool_id\n    uint prevETH = genericDB.getUintStorage(\n      CONTRACT_NAME_ENDOWMENT_DB,\n      keccak256(abi.encodePacked(_pool_id, \"ETHinPool\"))\n    );\n    // add _eth to the previous amount of ether in this pool\n    genericDB.setUintStorage(\n      CONTRACT_NAME_ENDOWMENT_DB,\n      keccak256(abi.encodePacked(_pool_id, \"ETHinPool\")),\n      prevETH.add(_eth)\n    );\n  }\n\n  function subETHfromPool(uint256 _eth, uint256 _pool_id)\n      external\n      onlyContract(CONTRACT_NAME_ENDOWMENT_FUND)\n  {\n    // get previous amount of ether stored in this pool with _pool_id\n    uint prevETH = genericDB.getUintStorage(\n      CONTRACT_NAME_ENDOWMENT_DB,\n      keccak256(abi.encodePacked(_pool_id, \"ETHinPool\"))\n    );\n    // add _eth to the previous amount of ether in this pool\n    genericDB.setUintStorage(\n      CONTRACT_NAME_ENDOWMENT_DB,\n      keccak256(abi.encodePacked(_pool_id, \"ETHinPool\")),\n      prevETH.sub(_eth)\n    );\n  }\n\n  function getETHinPool(uint _pool_id)\n      public\n      view\n      returns(uint)\n  {\n    return genericDB.getUintStorage(\n      CONTRACT_NAME_ENDOWMENT_DB,\n      keccak256(abi.encodePacked(_pool_id, \"ETHinPool\"))\n    );\n  }\n\n  function checkInvestment(uint256 pool_id)\n  external\n  onlyContract(CONTRACT_NAME_WITHDRAW_POOL)\n  returns(uint256)\n  {\n    uint256 remainingFundsPool;\n    if(pool_id != 0) {\n      remainingFundsPool = getETHinPool(pool_id.sub(1));\n\n      genericDB.setUintStorage(\n        CONTRACT_NAME_ENDOWMENT_DB,\n        keccak256(abi.encodePacked(pool_id.sub(1), \"ETHinPool\")),\n        0\n      );\n\n      genericDB.setUintStorage(\n        CONTRACT_NAME_ENDOWMENT_DB,\n        keccak256(abi.encodePacked(pool_id, \"ETHinPool\")),\n        remainingFundsPool\n      );\n    }\n\n    _updateEndowmentFund(0, investmentForNext, false);\n\n    uint256 actualFunds = genericDB.getUintStorage(CONTRACT_NAME_ENDOWMENT_DB, VAR_KEY_ACTUAL_FUNDS_ETH);\n    investmentForNext = 0;\n    return actualFunds.sub(remainingFundsPool);\n  }\n\n  function checkTotalForEpoch(uint256 pool_id)\n  external\n  view\n  onlyContract(CONTRACT_NAME_GAMESTORE)\n  returns(uint256)\n  {\n    uint256 fundsForPool = getETHinPool(pool_id);\n    uint256 actualFunds = genericDB.getUintStorage(CONTRACT_NAME_ENDOWMENT_DB, VAR_KEY_ACTUAL_FUNDS_ETH);\n    return actualFunds.sub(fundsForPool);\n  }\n\n/**\n * @dev get total debit by an a/c per game\n */\n  function getTotalDebit(\n    uint _gameId, address _account\n  ) external view\n    onlyContract(CONTRACT_NAME_ENDOWMENT_FUND)\n    //onlyExistingProfile(_account)\n    onlyExistingHoneypot(_gameId)\n    returns (uint256 ethTotalDebit, uint256 ktyTotalDebit) {\n      bytes32 ethTotalDebitPerGamePerAcKey = keccak256(abi.encodePacked(_gameId, _account, \"ethDebit\"));\n      bytes32 ktyTotalDebitPerGamePerAcKey = keccak256(abi.encodePacked(_gameId, _account, \"ktyDebit\"));\n      ethTotalDebit = genericDB.getUintStorage(CONTRACT_NAME_ENDOWMENT_DB, ethTotalDebitPerGamePerAcKey);\n      ktyTotalDebit = genericDB.getUintStorage(CONTRACT_NAME_ENDOWMENT_DB, ktyTotalDebitPerGamePerAcKey);\n  }\n\n  // get pool ID of the pool associated with a honey pot\n  function getPoolID(uint _gameId)\n      public view returns(uint poolID)\n  {\n    poolID = genericDB.getUintStorage(CONTRACT_NAME_ENDOWMENT_DB, keccak256(abi.encodePacked(_gameId, \"poolID\")));\n  }\n\n  modifier onlyExistingHoneypot(uint gameId) {\n    require(genericDB.doesNodeExist(CONTRACT_NAME_ENDOWMENT_DB, TABLE_KEY_HONEYPOT, gameId), ERROR_DOES_NOT_EXIST);\n    _;\n  }\n\n  modifier onlyExistingProfile(address account) {\n    require(genericDB.doesNodeAddrExist(CONTRACT_NAME_PROFILE_DB, TABLE_KEY_PROFILE, account), ERROR_NOT_REGISTERED);\n    _;\n  }\n}\n\n",
  "sourcePath": "/Users/ziweizhang/Desktop/Test/contracts/contracts/modules/databases/EndowmentDB.sol",
  "compiler": {
    "name": "solc",
    "version": "0.5.17+commit.d19bba13.Emscripten.clang"
  },
  "schemaVersion": "3.0.23",
  "updatedAt": "2020-07-09T17:23:29.279Z",
  "networkType": "ethereum",
  "devdoc": {
    "methods": {
      "generateHoneyPot(uint256,uint256,uint256,string)": {
        "details": "check if enough funds present and maintains balance of tokens in DB"
      },
      "getTotalDebit(uint256,address)": {
        "details": "get total debit by an a/c per game"
      },
      "setTotalDebit(uint256,address,uint256,uint256)": {
        "details": "store the total debit by an a/c per game"
      }
    }
  },
  "userdoc": {
    "methods": {
      "setProxy(address)": {
        "notice": "Set/update address of Proxy contract"
      }
    }
  }
}