{
  "contractName": "EndowmentFund",
  "abi": [
    {
      "anonymous": false,
      "inputs": [
        {
          "indexed": false,
          "internalType": "address",
          "name": "sender",
          "type": "address"
        },
        {
          "indexed": false,
          "internalType": "uint256",
          "name": "ethAmount",
          "type": "uint256"
        },
        {
          "indexed": false,
          "internalType": "uint256",
          "name": "ktyAmount",
          "type": "uint256"
        },
        {
          "indexed": false,
          "internalType": "address",
          "name": "ktyReceiver",
          "type": "address"
        }
      ],
      "name": "EthSwappedforKTY",
      "type": "event"
    },
    {
      "anonymous": false,
      "inputs": [
        {
          "indexed": false,
          "internalType": "address",
          "name": "sender",
          "type": "address"
        },
        {
          "indexed": false,
          "internalType": "uint256",
          "name": "ethAmount",
          "type": "uint256"
        },
        {
          "indexed": false,
          "internalType": "address",
          "name": "receiver",
          "type": "address"
        }
      ],
      "name": "SentETHtoEscrow",
      "type": "event"
    },
    {
      "anonymous": false,
      "inputs": [
        {
          "indexed": false,
          "internalType": "address",
          "name": "sender",
          "type": "address"
        },
        {
          "indexed": false,
          "internalType": "uint256",
          "name": "ktyAmount",
          "type": "uint256"
        },
        {
          "indexed": false,
          "internalType": "address",
          "name": "receiver",
          "type": "address"
        }
      ],
      "name": "SentKTYtoEscrow",
      "type": "event"
    },
    {
      "anonymous": false,
      "inputs": [
        {
          "indexed": true,
          "internalType": "uint256",
          "name": "gameId",
          "type": "uint256"
        },
        {
          "indexed": true,
          "internalType": "address",
          "name": "winner",
          "type": "address"
        },
        {
          "indexed": false,
          "internalType": "uint256",
          "name": "ethAmount",
          "type": "uint256"
        },
        {
          "indexed": false,
          "internalType": "uint256",
          "name": "ktyAmount",
          "type": "uint256"
        },
        {
          "indexed": false,
          "internalType": "address",
          "name": "from",
          "type": "address"
        }
      ],
      "name": "WinnerClaimed",
      "type": "event"
    },
    {
      "constant": true,
      "inputs": [
        {
          "internalType": "uint256",
          "name": "gameId",
          "type": "uint256"
        },
        {
          "internalType": "address payable",
          "name": "claimer",
          "type": "address"
        },
        {
          "internalType": "address",
          "name": "winner",
          "type": "address"
        }
      ],
      "name": "checkWinnerCategory",
      "outputs": [
        {
          "internalType": "uint256",
          "name": "winningGroup",
          "type": "uint256"
        }
      ],
      "payable": false,
      "stateMutability": "view",
      "type": "function"
    },
    {
      "constant": true,
      "inputs": [],
      "name": "endowmentDB",
      "outputs": [
        {
          "internalType": "contract EndowmentDB",
          "name": "",
          "type": "address"
        }
      ],
      "payable": false,
      "stateMutability": "view",
      "type": "function"
    },
    {
      "constant": true,
      "inputs": [],
      "name": "escrow",
      "outputs": [
        {
          "internalType": "contract Escrow",
          "name": "",
          "type": "address"
        }
      ],
      "payable": false,
      "stateMutability": "view",
      "type": "function"
    },
    {
      "constant": true,
      "inputs": [],
      "name": "gameStore",
      "outputs": [
        {
          "internalType": "contract GameStore",
          "name": "",
          "type": "address"
        }
      ],
      "payable": false,
      "stateMutability": "view",
      "type": "function"
    },
    {
      "constant": true,
      "inputs": [],
      "name": "gameVarAndFee",
      "outputs": [
        {
          "internalType": "contract GameVarAndFee",
          "name": "",
          "type": "address"
        }
      ],
      "payable": false,
      "stateMutability": "view",
      "type": "function"
    },
    {
      "constant": true,
      "inputs": [
        {
          "internalType": "uint256",
          "name": "gameId",
          "type": "uint256"
        }
      ],
      "name": "getEndowmentShare",
      "outputs": [
        {
          "internalType": "uint256",
          "name": "winningsETH",
          "type": "uint256"
        },
        {
          "internalType": "uint256",
          "name": "winningsKTY",
          "type": "uint256"
        }
      ],
      "payable": false,
      "stateMutability": "view",
      "type": "function"
    },
    {
      "constant": true,
      "inputs": [
        {
          "internalType": "uint256",
          "name": "gameId",
          "type": "uint256"
        }
      ],
      "name": "getWinnerLoser",
      "outputs": [
        {
          "internalType": "address",
          "name": "winner",
          "type": "address"
        },
        {
          "internalType": "address",
          "name": "loser",
          "type": "address"
        },
        {
          "internalType": "uint256",
          "name": "totalBetsForLosingCorner",
          "type": "uint256"
        }
      ],
      "payable": false,
      "stateMutability": "view",
      "type": "function"
    },
    {
      "constant": true,
      "inputs": [
        {
          "internalType": "uint256",
          "name": "gameId",
          "type": "uint256"
        },
        {
          "internalType": "address payable",
          "name": "claimer",
          "type": "address"
        }
      ],
      "name": "getWinnerShare",
      "outputs": [
        {
          "internalType": "uint256",
          "name": "winningsETH",
          "type": "uint256"
        },
        {
          "internalType": "uint256",
          "name": "winningsKTY",
          "type": "uint256"
        }
      ],
      "payable": false,
      "stateMutability": "view",
      "type": "function"
    },
    {
      "constant": true,
      "inputs": [],
      "name": "gmGetterDB",
      "outputs": [
        {
          "internalType": "contract GMGetterDB",
          "name": "",
          "type": "address"
        }
      ],
      "payable": false,
      "stateMutability": "view",
      "type": "function"
    },
    {
      "constant": false,
      "inputs": [],
      "name": "initialize",
      "outputs": [],
      "payable": false,
      "stateMutability": "nonpayable",
      "type": "function"
    },
    {
      "constant": true,
      "inputs": [],
      "name": "kittieFightToken",
      "outputs": [
        {
          "internalType": "contract ERC20Standard",
          "name": "",
          "type": "address"
        }
      ],
      "payable": false,
      "stateMutability": "view",
      "type": "function"
    },
    {
      "constant": true,
      "inputs": [],
      "name": "owner",
      "outputs": [
        {
          "internalType": "address payable",
          "name": "",
          "type": "address"
        }
      ],
      "payable": false,
      "stateMutability": "view",
      "type": "function"
    },
    {
      "constant": true,
      "inputs": [
        {
          "internalType": "uint256",
          "name": "",
          "type": "uint256"
        }
      ],
      "name": "path",
      "outputs": [
        {
          "internalType": "address",
          "name": "",
          "type": "address"
        }
      ],
      "payable": false,
      "stateMutability": "view",
      "type": "function"
    },
    {
      "constant": true,
      "inputs": [],
      "name": "proxy",
      "outputs": [
        {
          "internalType": "contract ProxyBase",
          "name": "",
          "type": "address"
        }
      ],
      "payable": false,
      "stateMutability": "view",
      "type": "function"
    },
    {
      "constant": false,
      "inputs": [
        {
          "internalType": "contract ProxyBase",
          "name": "_proxy",
          "type": "address"
        }
      ],
      "name": "setProxy",
      "outputs": [],
      "payable": false,
      "stateMutability": "nonpayable",
      "type": "function"
    },
    {
      "constant": false,
      "inputs": [
        {
          "internalType": "address payable",
          "name": "newOwner",
          "type": "address"
        }
      ],
      "name": "transferOwnership",
      "outputs": [],
      "payable": false,
      "stateMutability": "nonpayable",
      "type": "function"
    },
    {
      "constant": false,
      "inputs": [
        {
          "internalType": "uint256",
          "name": "gameId",
          "type": "uint256"
        }
      ],
      "name": "generateHoneyPot",
      "outputs": [
        {
          "internalType": "uint256",
          "name": "",
          "type": "uint256"
        },
        {
          "internalType": "uint256",
          "name": "",
          "type": "uint256"
        }
      ],
      "payable": false,
      "stateMutability": "nonpayable",
      "type": "function"
    },
    {
      "constant": false,
      "inputs": [
        {
          "internalType": "uint256",
          "name": "_gameId",
          "type": "uint256"
        }
      ],
      "name": "claim",
      "outputs": [],
      "payable": true,
      "stateMutability": "payable",
      "type": "function"
    },
    {
      "constant": false,
      "inputs": [
        {
          "internalType": "address",
          "name": "user",
          "type": "address"
        }
      ],
      "name": "sendFinalizeRewards",
      "outputs": [
        {
          "internalType": "bool",
          "name": "",
          "type": "bool"
        }
      ],
      "payable": false,
      "stateMutability": "nonpayable",
      "type": "function"
    },
    {
      "constant": true,
      "inputs": [
        {
          "internalType": "uint256",
          "name": "_gameId",
          "type": "uint256"
        },
        {
          "internalType": "address",
          "name": "_account",
          "type": "address"
        }
      ],
      "name": "getWithdrawalState",
      "outputs": [
        {
          "internalType": "bool",
          "name": "",
          "type": "bool"
        }
      ],
      "payable": false,
      "stateMutability": "view",
      "type": "function"
    },
    {
      "constant": false,
      "inputs": [
        {
          "internalType": "uint256",
          "name": "_gameId",
          "type": "uint256"
        },
        {
          "internalType": "uint256",
          "name": "_state",
          "type": "uint256"
        }
      ],
      "name": "updateHoneyPotState",
      "outputs": [],
      "payable": false,
      "stateMutability": "nonpayable",
      "type": "function"
    },
    {
      "constant": false,
      "inputs": [
        {
          "internalType": "uint256",
          "name": "_kty_amount",
          "type": "uint256"
        }
      ],
      "name": "sendKTYtoEscrow",
      "outputs": [],
      "payable": false,
      "stateMutability": "nonpayable",
      "type": "function"
    },
    {
      "constant": false,
      "inputs": [],
      "name": "sendETHtoEscrow",
      "outputs": [],
      "payable": true,
      "stateMutability": "payable",
      "type": "function"
    },
    {
      "constant": false,
      "inputs": [
        {
          "internalType": "address",
          "name": "_sender",
          "type": "address"
        },
        {
          "internalType": "uint256",
          "name": "_kty_amount",
          "type": "uint256"
        }
      ],
      "name": "contributeKTY",
      "outputs": [
        {
          "internalType": "bool",
          "name": "",
          "type": "bool"
        }
      ],
      "payable": true,
      "stateMutability": "payable",
      "type": "function"
    },
    {
      "constant": false,
      "inputs": [
        {
          "internalType": "uint256",
          "name": "_gameId",
          "type": "uint256"
        }
      ],
      "name": "contributeETH",
      "outputs": [
        {
          "internalType": "bool",
          "name": "",
          "type": "bool"
        }
      ],
      "payable": true,
      "stateMutability": "payable",
      "type": "function"
    },
    {
      "constant": false,
      "inputs": [],
      "name": "contributeETH_Ethie",
      "outputs": [
        {
          "internalType": "bool",
          "name": "",
          "type": "bool"
        }
      ],
      "payable": true,
      "stateMutability": "payable",
      "type": "function"
    },
    {
      "constant": false,
      "inputs": [
        {
          "internalType": "address payable",
          "name": "_newOwner",
          "type": "address"
        }
      ],
      "name": "transferEscrowOwnership",
      "outputs": [],
      "payable": false,
      "stateMutability": "nonpayable",
      "type": "function"
    },
    {
      "constant": false,
      "inputs": [
        {
          "internalType": "address payable",
          "name": "_someAddress",
          "type": "address"
        },
        {
          "internalType": "uint256",
          "name": "_eth_amount",
          "type": "uint256"
        },
        {
          "internalType": "uint256",
          "name": "_pool_id",
          "type": "uint256"
        }
      ],
      "name": "transferETHfromEscrowWithdrawalPool",
      "outputs": [
        {
          "internalType": "bool",
          "name": "",
          "type": "bool"
        }
      ],
      "payable": false,
      "stateMutability": "nonpayable",
      "type": "function"
    },
    {
      "constant": false,
      "inputs": [
        {
          "internalType": "address payable",
          "name": "_someAddress",
          "type": "address"
        },
        {
          "internalType": "uint256",
          "name": "_eth_amount",
          "type": "uint256"
        },
        {
          "internalType": "bool",
          "name": "invested",
          "type": "bool"
        }
      ],
      "name": "transferETHfromEscrowEarningsTracker",
      "outputs": [
        {
          "internalType": "bool",
          "name": "",
          "type": "bool"
        }
      ],
      "payable": false,
      "stateMutability": "nonpayable",
      "type": "function"
    },
    {
      "constant": false,
      "inputs": [
        {
          "internalType": "uint256",
          "name": "gameId",
          "type": "uint256"
        },
        {
          "internalType": "address",
          "name": "loser",
          "type": "address"
        }
      ],
      "name": "addETHtoPool",
      "outputs": [],
      "payable": false,
      "stateMutability": "nonpayable",
      "type": "function"
    },
    {
      "constant": false,
      "inputs": [
        {
          "internalType": "contract Escrow",
          "name": "_newEscrow",
          "type": "address"
        }
      ],
      "name": "initUpgradeEscrow",
      "outputs": [
        {
          "internalType": "bool",
          "name": "",
          "type": "bool"
        }
      ],
      "payable": false,
      "stateMutability": "nonpayable",
      "type": "function"
    },
    {
      "constant": true,
      "inputs": [],
      "name": "isEndowmentUpgradabe",
      "outputs": [
        {
          "internalType": "bool",
          "name": "",
          "type": "bool"
        }
      ],
      "payable": false,
      "stateMutability": "view",
      "type": "function"
    }
  ],
  "bytecode": "0x6080604052336000806101000a81548173ffffffffffffffffffffffffffffffffffffffff021916908373ffffffffffffffffffffffffffffffffffffffff1602179055506168af806100536000396000f3fe6080604052600436106101e35760003560e01c8063a3b3bd7b11610102578063dd1ba84611610095578063ed2f634311610064578063ed2f634314610bc2578063f1d4be1014610c13578063f2fde38b14610c69578063ff8baff514610cba576101e3565b8063dd1ba84614610a2e578063e0d8a19414610a97578063e2fdcc1714610b14578063ec55688914610b6b576101e3565b8063b3962bdc116100d1578063b3962bdc146108c7578063b49c0ebe1461090d578063ca2a188614610976578063d665a717146109e9576101e3565b8063a3b3bd7b14610743578063adee6f2b1461079a578063af6d1fe4146107f5578063b1be646914610870576101e3565b80635d06fc011161017a5780638da5cb5b116101495780638da5cb5b146105a657806397107d6d146105fd5780639ebf616a1461064e5780639f39c177146106c4576101e3565b80635d06fc01146104525780635e37283b146104a957806363c0c46e146105385780638129fc1c1461058f576101e3565b8063379607f5116101b6578063379607f5146102da578063392d5a0014610308578063400cbf6d1461033757806342db1589146103ec576101e3565b8063168f1f57146101e85780631fc751801461022357806328d0ab581461027a57806335dc0f5e146102d0575b600080fd5b3480156101f457600080fd5b506102216004803603602081101561020b57600080fd5b8101908080359060200190929190505050610cdc565b005b34801561022f57600080fd5b50610238611061565b604051808273ffffffffffffffffffffffffffffffffffffffff1673ffffffffffffffffffffffffffffffffffffffff16815260200191505060405180910390f35b34801561028657600080fd5b506102b36004803603602081101561029d57600080fd5b8101908080359060200190929190505050611087565b604051808381526020018281526020019250505060405180910390f35b6102d86113a5565b005b610306600480360360208110156102f057600080fd5b81019080803590602001909291905050506115b2565b005b34801561031457600080fd5b5061031d611b14565b604051808215151515815260200191505060405180910390f35b34801561034357600080fd5b506103706004803603602081101561035a57600080fd5b8101908080359060200190929190505050611b83565b604051808473ffffffffffffffffffffffffffffffffffffffff1673ffffffffffffffffffffffffffffffffffffffff1681526020018373ffffffffffffffffffffffffffffffffffffffff1673ffffffffffffffffffffffffffffffffffffffff168152602001828152602001935050505060405180910390f35b6104386004803603604081101561040257600080fd5b81019080803573ffffffffffffffffffffffffffffffffffffffff16906020019092919080359060200190929190505050611e20565b604051808215151515815260200191505060405180910390f35b34801561045e57600080fd5b506104676124c7565b604051808273ffffffffffffffffffffffffffffffffffffffff1673ffffffffffffffffffffffffffffffffffffffff16815260200191505060405180910390f35b3480156104b557600080fd5b50610522600480360360608110156104cc57600080fd5b8101908080359060200190929190803573ffffffffffffffffffffffffffffffffffffffff169060200190929190803573ffffffffffffffffffffffffffffffffffffffff1690602001909291905050506124ed565b6040518082815260200191505060405180910390f35b34801561054457600080fd5b5061054d612774565b604051808273ffffffffffffffffffffffffffffffffffffffff1673ffffffffffffffffffffffffffffffffffffffff16815260200191505060405180910390f35b34801561059b57600080fd5b506105a461279a565b005b3480156105b257600080fd5b506105bb613300565b604051808273ffffffffffffffffffffffffffffffffffffffff1673ffffffffffffffffffffffffffffffffffffffff16815260200191505060405180910390f35b34801561060957600080fd5b5061064c6004803603602081101561062057600080fd5b81019080803573ffffffffffffffffffffffffffffffffffffffff169060200190929190505050613325565b005b34801561065a57600080fd5b506106a76004803603604081101561067157600080fd5b8101908080359060200190929190803573ffffffffffffffffffffffffffffffffffffffff1690602001909291905050506133bf565b604051808381526020018281526020019250505060405180910390f35b3480156106d057600080fd5b50610729600480360360608110156106e757600080fd5b81019080803573ffffffffffffffffffffffffffffffffffffffff169060200190929190803590602001909291908035151590602001909291905050506136e2565b604051808215151515815260200191505060405180910390f35b34801561074f57600080fd5b506107586138b7565b604051808273ffffffffffffffffffffffffffffffffffffffff1673ffffffffffffffffffffffffffffffffffffffff16815260200191505060405180910390f35b3480156107a657600080fd5b506107f3600480360360408110156107bd57600080fd5b8101908080359060200190929190803573ffffffffffffffffffffffffffffffffffffffff1690602001909291905050506138dd565b005b34801561080157600080fd5b5061082e6004803603602081101561081857600080fd5b8101908080359060200190929190505050613b6c565b604051808273ffffffffffffffffffffffffffffffffffffffff1673ffffffffffffffffffffffffffffffffffffffff16815260200191505060405180910390f35b34801561087c57600080fd5b50610885613ba8565b604051808273ffffffffffffffffffffffffffffffffffffffff1673ffffffffffffffffffffffffffffffffffffffff16815260200191505060405180910390f35b6108f3600480360360208110156108dd57600080fd5b8101908080359060200190929190505050613bce565b604051808215151515815260200191505060405180910390f35b34801561091957600080fd5b5061095c6004803603602081101561093057600080fd5b81019080803573ffffffffffffffffffffffffffffffffffffffff169060200190929190505050613de8565b604051808215151515815260200191505060405180910390f35b34801561098257600080fd5b506109cf6004803603604081101561099957600080fd5b8101908080359060200190929190803573ffffffffffffffffffffffffffffffffffffffff169060200190929190505050613ee6565b604051808215151515815260200191505060405180910390f35b3480156109f557600080fd5b50610a2c60048036036040811015610a0c57600080fd5b810190808035906020019092919080359060200190929190505050613ff4565b005b348015610a3a57600080fd5b50610a7d60048036036020811015610a5157600080fd5b81019080803573ffffffffffffffffffffffffffffffffffffffff1690602001909291905050506144f4565b604051808215151515815260200191505060405180910390f35b348015610aa357600080fd5b50610afa60048036036060811015610aba57600080fd5b81019080803573ffffffffffffffffffffffffffffffffffffffff1690602001909291908035906020019092919080359060200190929190505050614a3a565b604051808215151515815260200191505060405180910390f35b348015610b2057600080fd5b50610b29614b27565b604051808273ffffffffffffffffffffffffffffffffffffffff1673ffffffffffffffffffffffffffffffffffffffff16815260200191505060405180910390f35b348015610b7757600080fd5b50610b80614b4d565b604051808273ffffffffffffffffffffffffffffffffffffffff1673ffffffffffffffffffffffffffffffffffffffff16815260200191505060405180910390f35b348015610bce57600080fd5b50610c1160048036036020811015610be557600080fd5b81019080803573ffffffffffffffffffffffffffffffffffffffff169060200190929190505050614b73565b005b348015610c1f57600080fd5b50610c4c60048036036020811015610c3657600080fd5b8101908080359060200190929190505050614d16565b604051808381526020018281526020019250505060405180910390f35b348015610c7557600080fd5b50610cb860048036036020811015610c8c57600080fd5b81019080803573ffffffffffffffffffffffffffffffffffffffff169060200190929190505050615140565b005b610cc261520e565b604051808215151515815260200191505060405180910390f35b600073ffffffffffffffffffffffffffffffffffffffff163373ffffffffffffffffffffffffffffffffffffffff161415610d1357fe5b610d516040518060400160405280600b81526020017f73757065725f61646d696e000000000000000000000000000000000000000000815250615425565b610dc3576040517f08c379a00000000000000000000000000000000000000000000000000000000081526004018080602001828103825260108152602001807f4f6e6c792073757065722061646d696e0000000000000000000000000000000081525060200191505060405180910390fd5b60008111610dd057600080fd5b600560009054906101000a900473ffffffffffffffffffffffffffffffffffffffff1673ffffffffffffffffffffffffffffffffffffffff1663a9059cbb600860009054906101000a900473ffffffffffffffffffffffffffffffffffffffff16836040518363ffffffff1660e01b8152600401808373ffffffffffffffffffffffffffffffffffffffff1673ffffffffffffffffffffffffffffffffffffffff16815260200182815260200192505050602060405180830381600087803b158015610e9b57600080fd5b505af1158015610eaf573d6000803e3d6000fd5b505050506040513d6020811015610ec557600080fd5b810190808051906020019092919050505050600460009054906101000a900473ffffffffffffffffffffffffffffffffffffffff1673ffffffffffffffffffffffffffffffffffffffff1663712153b3826000806040518463ffffffff1660e01b815260040180848152602001838152602001821515151581526020019350505050602060405180830381600087803b158015610f6157600080fd5b505af1158015610f75573d6000803e3d6000fd5b505050506040513d6020811015610f8b57600080fd5b8101908080519060200190929190505050507f93f900af773d323023f0ecf99deb1a5466a3f2445cf9c74f969fe7734583392a3082600860009054906101000a900473ffffffffffffffffffffffffffffffffffffffff16604051808473ffffffffffffffffffffffffffffffffffffffff1673ffffffffffffffffffffffffffffffffffffffff1681526020018381526020018273ffffffffffffffffffffffffffffffffffffffff1673ffffffffffffffffffffffffffffffffffffffff168152602001935050505060405180910390a150565b600360009054906101000a900473ffffffffffffffffffffffffffffffffffffffff1681565b6000806000600360009054906101000a900473ffffffffffffffffffffffffffffffffffffffff1673ffffffffffffffffffffffffffffffffffffffff1663525a8e4e856040518263ffffffff1660e01b815260040180828152602001915050604080518083038186803b1580156110fe57600080fd5b505afa158015611112573d6000803e3d6000fd5b505050506040513d604081101561112857600080fd5b81019080805190602001909291908051906020019092919050505091505061114e616809565b600660009054906101000a900473ffffffffffffffffffffffffffffffffffffffff1673ffffffffffffffffffffffffffffffffffffffff16636991b5bf866040518263ffffffff1660e01b81526004018082815260200191505060a06040518083038186803b1580156111c157600080fd5b505afa1580156111d5573d6000803e3d6000fd5b505050506040513d601f19601f8201168201806040525060a08110156111fa57600080fd5b810190809190505090506000600360009054906101000a900473ffffffffffffffffffffffffffffffffffffffff1673ffffffffffffffffffffffffffffffffffffffff1663589ac6a4876040518263ffffffff1660e01b8152600401808281526020019150506101006040518083038186803b15801561127a57600080fd5b505afa15801561128e573d6000803e3d6000fd5b505050506040513d601f19601f820116820180604052506101008110156112b457600080fd5b810190808051906020019092919080519060200190929190805190602001909291908051906020019092919091908260400180519060200190929190805190602001909291905050505050505092505050600061131087611b83565b9250505061135f611350620f42406113428660046005811061132e57fe5b6020020151856156a190919063ffffffff16565b6156d890919063ffffffff16565b836156f190919063ffffffff16565b955061139a620f424061138c8560046005811061137857fe5b6020020151876156a190919063ffffffff16565b6156d890919063ffffffff16565b945050505050915091565b60006113af61570d565b9050600034116113be57600080fd5b600860009054906101000a900473ffffffffffffffffffffffffffffffffffffffff1673ffffffffffffffffffffffffffffffffffffffff166108fc349081150290604051600060405180830381858888f19350505050158015611426573d6000803e3d6000fd5b50600460009054906101000a900473ffffffffffffffffffffffffffffffffffffffff1673ffffffffffffffffffffffffffffffffffffffff1663712153b360003460006040518463ffffffff1660e01b815260040180848152602001838152602001821515151581526020019350505050602060405180830381600087803b1580156114b257600080fd5b505af11580156114c6573d6000803e3d6000fd5b505050506040513d60208110156114dc57600080fd5b8101908080519060200190929190505050507f120bbc6058df2f75a9523df514b6e83e744fda1180dd8c135f2f5d0b1d15d2918134600860009054906101000a900473ffffffffffffffffffffffffffffffffffffffff16604051808473ffffffffffffffffffffffffffffffffffffffff1673ffffffffffffffffffffffffffffffffffffffff1681526020018381526020018273ffffffffffffffffffffffffffffffffffffffff1673ffffffffffffffffffffffffffffffffffffffff168152602001935050505060405180910390a150565b6115ba6157c2565b60006115c461570d565b90506000600460009054906101000a900473ffffffffffffffffffffffffffffffffffffffff1673ffffffffffffffffffffffffffffffffffffffff16636933bbd7846040518263ffffffff1660e01b815260040180828152602001915050604080518083038186803b15801561163a57600080fd5b505afa15801561164e573d6000803e3d6000fd5b505050506040513d604081101561166457600080fd5b810190808051906020019092919080519060200190929190505050509050806005600681111561169057fe5b1461169a57600080fd5b6116a48383613ee6565b156116ae57600080fd5b6000806116bb85856133bf565b91509150600460009054906101000a900473ffffffffffffffffffffffffffffffffffffffff1673ffffffffffffffffffffffffffffffffffffffff166350b1a7cd86838560016040518563ffffffff1660e01b81526004018085815260200184815260200183815260200182151515158152602001945050505050602060405180830381600087803b15801561175157600080fd5b505af1158015611765573d6000803e3d6000fd5b505050506040513d602081101561177b57600080fd5b810190808051906020019092919050505050600081111561187c57600860009054906101000a900473ffffffffffffffffffffffffffffffffffffffff1673ffffffffffffffffffffffffffffffffffffffff1663430951bd85836040518363ffffffff1660e01b8152600401808373ffffffffffffffffffffffffffffffffffffffff1673ffffffffffffffffffffffffffffffffffffffff16815260200182815260200192505050602060405180830381600087803b15801561183f57600080fd5b505af1158015611853573d6000803e3d6000fd5b505050506040513d602081101561186957600080fd5b8101908080519060200190929190505050505b600082111561196b57600860009054906101000a900473ffffffffffffffffffffffffffffffffffffffff1673ffffffffffffffffffffffffffffffffffffffff16637b1a490985846040518363ffffffff1660e01b8152600401808373ffffffffffffffffffffffffffffffffffffffff1673ffffffffffffffffffffffffffffffffffffffff16815260200182815260200192505050602060405180830381600087803b15801561192e57600080fd5b505af1158015611942573d6000803e3d6000fd5b505050506040513d602081101561195857600080fd5b8101908080519060200190929190505050505b600460009054906101000a900473ffffffffffffffffffffffffffffffffffffffff1673ffffffffffffffffffffffffffffffffffffffff16636213fc6d868685856040518563ffffffff1660e01b8152600401808581526020018473ffffffffffffffffffffffffffffffffffffffff1673ffffffffffffffffffffffffffffffffffffffff168152602001838152602001828152602001945050505050602060405180830381600087803b158015611a2457600080fd5b505af1158015611a38573d6000803e3d6000fd5b505050506040513d6020811015611a4e57600080fd5b8101908080519060200190929190505050508373ffffffffffffffffffffffffffffffffffffffff16857f7a334ae1c9e2881845e23ce092ac3f1ccf16297abd45c43af5b4e6d8520d1cc68484600860009054906101000a900473ffffffffffffffffffffffffffffffffffffffff16604051808481526020018381526020018273ffffffffffffffffffffffffffffffffffffffff1673ffffffffffffffffffffffffffffffffffffffff168152602001935050505060405180910390a35050505050565b60003073ffffffffffffffffffffffffffffffffffffffff16600860009054906101000a900473ffffffffffffffffffffffffffffffffffffffff1673ffffffffffffffffffffffffffffffffffffffff1673ffffffffffffffffffffffffffffffffffffffff161415905090565b6000806000600360009054906101000a900473ffffffffffffffffffffffffffffffffffffffff1673ffffffffffffffffffffffffffffffffffffffff16636b1426a4856040518263ffffffff1660e01b81526004018082815260200191505060606040518083038186803b158015611bfb57600080fd5b505afa158015611c0f573d6000803e3d6000fd5b505050506040513d6060811015611c2557600080fd5b8101908080519060200190929190805190602001909291908051906020019092919050505090505080935050600660009054906101000a900473ffffffffffffffffffffffffffffffffffffffff1673ffffffffffffffffffffffffffffffffffffffff166331fa706785856040518363ffffffff1660e01b8152600401808381526020018273ffffffffffffffffffffffffffffffffffffffff1673ffffffffffffffffffffffffffffffffffffffff1681526020019250505060206040518083038186803b158015611cf857600080fd5b505afa158015611d0c573d6000803e3d6000fd5b505050506040513d6020811015611d2257600080fd5b81019080805190602001909291905050509150600360009054906101000a900473ffffffffffffffffffffffffffffffffffffffff1673ffffffffffffffffffffffffffffffffffffffff1663bacf524e85846040518363ffffffff1660e01b8152600401808381526020018273ffffffffffffffffffffffffffffffffffffffff1673ffffffffffffffffffffffffffffffffffffffff1681526020019250505060206040518083038186803b158015611ddc57600080fd5b505afa158015611df0573d6000803e3d6000fd5b505050506040513d6020811015611e0657600080fd5b810190808051906020019092919050505090509193909250565b600080600160009054906101000a900473ffffffffffffffffffffffffffffffffffffffff1673ffffffffffffffffffffffffffffffffffffffff1663358177736040518060400160405280600a81526020017f4b7479556e6973776170000000000000000000000000000000000000000000008152506040518263ffffffff1660e01b81526004018080602001828103825283818151815260200191508051906020019080838360005b83811015611ee6578082015181840152602081019050611ecb565b50505050905090810190601f168015611f135780820380516001836020036101000a031916815260200191505b509250505060206040518083038186803b158015611f3057600080fd5b505afa158015611f44573d6000803e3d6000fd5b505050506040513d6020811015611f5a57600080fd5b810190808051906020019092919050505073ffffffffffffffffffffffffffffffffffffffff1663557b3400846040518263ffffffff1660e01b81526004018082815260200191505060206040518083038186803b158015611fbb57600080fd5b505afa158015611fcf573d6000803e3d6000fd5b505050506040513d6020811015611fe557600080fd5b810190808051906020019092919050505090506120116509184e72a0008261594c90919063ffffffff16565b341015612086576040517f08c379a000000000000000000000000000000000000000000000000000000000815260040180806020018281038252601f8152602001807f496e73756666696369656e7420657468657220666f722073776170204b54590081525060200191505060405180910390fd5b600160009054906101000a900473ffffffffffffffffffffffffffffffffffffffff1673ffffffffffffffffffffffffffffffffffffffff1663358177736040518060400160405280601181526020017f556e69737761705632526f7574657230310000000000000000000000000000008152506040518263ffffffff1660e01b81526004018080602001828103825283818151815260200191508051906020019080838360005b8381101561214957808201518184015260208101905061212e565b50505050905090810190601f1680156121765780820380516001836020036101000a031916815260200191505b509250505060206040518083038186803b15801561219357600080fd5b505afa1580156121a7573d6000803e3d6000fd5b505050506040513d60208110156121bd57600080fd5b810190808051906020019092919050505073ffffffffffffffffffffffffffffffffffffffff16637ff36ab53460006007600860009054906101000a900473ffffffffffffffffffffffffffffffffffffffff167f80000000000000000000000000000000000000000000000000000000000000006040518663ffffffff1660e01b815260040180858152602001806020018473ffffffffffffffffffffffffffffffffffffffff1673ffffffffffffffffffffffffffffffffffffffff16815260200183815260200182810382528581815481526020019150805480156122fa57602002820191906000526020600020905b8160009054906101000a900473ffffffffffffffffffffffffffffffffffffffff1673ffffffffffffffffffffffffffffffffffffffff16815260200190600101908083116122b0575b5050955050505050506000604051808303818588803b15801561231c57600080fd5b505af1158015612330573d6000803e3d6000fd5b50505050506040513d6000823e3d601f19601f82011682018060405250602081101561235b57600080fd5b810190808051604051939291908464010000000082111561237b57600080fd5b8382019150602082018581111561239157600080fd5b82518660208202830111640100000000821117156123ae57600080fd5b8083526020830192505050908051906020019060200280838360005b838110156123e55780820151818401526020810190506123ca565b50505050905001604052505050507fbb1e8c5849627b60cb1dd268ac7c3d00be637a7e49d0200e03dc746892294772843485600860009054906101000a900473ffffffffffffffffffffffffffffffffffffffff16604051808573ffffffffffffffffffffffffffffffffffffffff1673ffffffffffffffffffffffffffffffffffffffff1681526020018481526020018381526020018273ffffffffffffffffffffffffffffffffffffffff1673ffffffffffffffffffffffffffffffffffffffff16815260200194505050505060405180910390a1600191505092915050565b600460009054906101000a900473ffffffffffffffffffffffffffffffffffffffff1681565b60008273ffffffffffffffffffffffffffffffffffffffff168273ffffffffffffffffffffffffffffffffffffffff16141561252c576000905061276d565b8273ffffffffffffffffffffffffffffffffffffffff16600660009054906101000a900473ffffffffffffffffffffffffffffffffffffffff1673ffffffffffffffffffffffffffffffffffffffff166316805a2986856040518363ffffffff1660e01b8152600401808381526020018273ffffffffffffffffffffffffffffffffffffffff1673ffffffffffffffffffffffffffffffffffffffff1681526020019250505060206040518083038186803b1580156125ea57600080fd5b505afa1580156125fe573d6000803e3d6000fd5b505050506040513d602081101561261457600080fd5b810190808051906020019092919050505073ffffffffffffffffffffffffffffffffffffffff16141561264a576001905061276d565b8273ffffffffffffffffffffffffffffffffffffffff16600660009054906101000a900473ffffffffffffffffffffffffffffffffffffffff1673ffffffffffffffffffffffffffffffffffffffff16635f87206d86856040518363ffffffff1660e01b8152600401808381526020018273ffffffffffffffffffffffffffffffffffffffff1673ffffffffffffffffffffffffffffffffffffffff1681526020019250505060206040518083038186803b15801561270857600080fd5b505afa15801561271c573d6000803e3d6000fd5b505050506040513d602081101561273257600080fd5b810190808051906020019092919050505073ffffffffffffffffffffffffffffffffffffffff161415612768576002905061276d565b600390505b9392505050565b600560009054906101000a900473ffffffffffffffffffffffffffffffffffffffff1681565b6000809054906101000a900473ffffffffffffffffffffffffffffffffffffffff1673ffffffffffffffffffffffffffffffffffffffff163373ffffffffffffffffffffffffffffffffffffffff16146127f057fe5b600160009054906101000a900473ffffffffffffffffffffffffffffffffffffffff1673ffffffffffffffffffffffffffffffffffffffff1663358177736040518060400160405280600b81526020017f456e646f776d656e7444420000000000000000000000000000000000000000008152506040518263ffffffff1660e01b81526004018080602001828103825283818151815260200191508051906020019080838360005b838110156128b3578082015181840152602081019050612898565b50505050905090810190601f1680156128e05780820380516001836020036101000a031916815260200191505b509250505060206040518083038186803b1580156128fd57600080fd5b505afa158015612911573d6000803e3d6000fd5b505050506040513d602081101561292757600080fd5b8101908080519060200190929190505050600460006101000a81548173ffffffffffffffffffffffffffffffffffffffff021916908373ffffffffffffffffffffffffffffffffffffffff160217905550600160009054906101000a900473ffffffffffffffffffffffffffffffffffffffff1673ffffffffffffffffffffffffffffffffffffffff1663358177736040518060400160405280600d81526020017f47616d65566172416e64466565000000000000000000000000000000000000008152506040518263ffffffff1660e01b81526004018080602001828103825283818151815260200191508051906020019080838360005b83811015612a3b578082015181840152602081019050612a20565b50505050905090810190601f168015612a685780820380516001836020036101000a031916815260200191505b509250505060206040518083038186803b158015612a8557600080fd5b505afa158015612a99573d6000803e3d6000fd5b505050506040513d6020811015612aaf57600080fd5b8101908080519060200190929190505050600260006101000a81548173ffffffffffffffffffffffffffffffffffffffff021916908373ffffffffffffffffffffffffffffffffffffffff160217905550600160009054906101000a900473ffffffffffffffffffffffffffffffffffffffff1673ffffffffffffffffffffffffffffffffffffffff1663358177736040518060400160405280601081526020017f4b69747469654669676874546f6b656e000000000000000000000000000000008152506040518263ffffffff1660e01b81526004018080602001828103825283818151815260200191508051906020019080838360005b83811015612bc3578082015181840152602081019050612ba8565b50505050905090810190601f168015612bf05780820380516001836020036101000a031916815260200191505b509250505060206040518083038186803b158015612c0d57600080fd5b505afa158015612c21573d6000803e3d6000fd5b505050506040513d6020811015612c3757600080fd5b8101908080519060200190929190505050600560006101000a81548173ffffffffffffffffffffffffffffffffffffffff021916908373ffffffffffffffffffffffffffffffffffffffff160217905550600160009054906101000a900473ffffffffffffffffffffffffffffffffffffffff1673ffffffffffffffffffffffffffffffffffffffff1663358177736040518060400160405280600981526020017f47616d6553746f726500000000000000000000000000000000000000000000008152506040518263ffffffff1660e01b81526004018080602001828103825283818151815260200191508051906020019080838360005b83811015612d4b578082015181840152602081019050612d30565b50505050905090810190601f168015612d785780820380516001836020036101000a031916815260200191505b509250505060206040518083038186803b158015612d9557600080fd5b505afa158015612da9573d6000803e3d6000fd5b505050506040513d6020811015612dbf57600080fd5b8101908080519060200190929190505050600660006101000a81548173ffffffffffffffffffffffffffffffffffffffff021916908373ffffffffffffffffffffffffffffffffffffffff160217905550600160009054906101000a900473ffffffffffffffffffffffffffffffffffffffff1673ffffffffffffffffffffffffffffffffffffffff1663358177736040518060400160405280600a81526020017f474d4765747465724442000000000000000000000000000000000000000000008152506040518263ffffffff1660e01b81526004018080602001828103825283818151815260200191508051906020019080838360005b83811015612ed3578082015181840152602081019050612eb8565b50505050905090810190601f168015612f005780820380516001836020036101000a031916815260200191505b509250505060206040518083038186803b158015612f1d57600080fd5b505afa158015612f31573d6000803e3d6000fd5b505050506040513d6020811015612f4757600080fd5b8101908080519060200190929190505050600360006101000a81548173ffffffffffffffffffffffffffffffffffffffff021916908373ffffffffffffffffffffffffffffffffffffffff1602179055506000600160009054906101000a900473ffffffffffffffffffffffffffffffffffffffff1673ffffffffffffffffffffffffffffffffffffffff1663358177736040518060400160405280600581526020017f57455448390000000000000000000000000000000000000000000000000000008152506040518263ffffffff1660e01b81526004018080602001828103825283818151815260200191508051906020019080838360005b8381101561305d578082015181840152602081019050613042565b50505050905090810190601f16801561308a5780820380516001836020036101000a031916815260200191505b509250505060206040518083038186803b1580156130a757600080fd5b505afa1580156130bb573d6000803e3d6000fd5b505050506040513d60208110156130d157600080fd5b8101908080519060200190929190505050905060078190806001815401808255809150509060018203906000526020600020016000909192909190916101000a81548173ffffffffffffffffffffffffffffffffffffffff021916908373ffffffffffffffffffffffffffffffffffffffff160217905550506000600160009054906101000a900473ffffffffffffffffffffffffffffffffffffffff1673ffffffffffffffffffffffffffffffffffffffff1663358177736040518060400160405280601081526020017f4b69747469654669676874546f6b656e000000000000000000000000000000008152506040518263ffffffff1660e01b81526004018080602001828103825283818151815260200191508051906020019080838360005b8381101561320f5780820151818401526020810190506131f4565b50505050905090810190601f16801561323c5780820380516001836020036101000a031916815260200191505b509250505060206040518083038186803b15801561325957600080fd5b505afa15801561326d573d6000803e3d6000fd5b505050506040513d602081101561328357600080fd5b8101908080519060200190929190505050905060078190806001815401808255809150509060018203906000526020600020016000909192909190916101000a81548173ffffffffffffffffffffffffffffffffffffffff021916908373ffffffffffffffffffffffffffffffffffffffff160217905550505050565b6000809054906101000a900473ffffffffffffffffffffffffffffffffffffffff1681565b6000809054906101000a900473ffffffffffffffffffffffffffffffffffffffff1673ffffffffffffffffffffffffffffffffffffffff163373ffffffffffffffffffffffffffffffffffffffff161461337b57fe5b80600160006101000a81548173ffffffffffffffffffffffffffffffffffffffff021916908373ffffffffffffffffffffffffffffffffffffffff16021790555050565b6000806000806133ce86611b83565b9250509150600073ffffffffffffffffffffffffffffffffffffffff168273ffffffffffffffffffffffffffffffffffffffff16141561340d57600080fd5b600080600360009054906101000a900473ffffffffffffffffffffffffffffffffffffffff1673ffffffffffffffffffffffffffffffffffffffff16630b154c9689896040518363ffffffff1660e01b8152600401808381526020018273ffffffffffffffffffffffffffffffffffffffff1673ffffffffffffffffffffffffffffffffffffffff1681526020019250505060806040518083038186803b1580156134b757600080fd5b505afa1580156134cb573d6000803e3d6000fd5b505050506040513d60808110156134e157600080fd5b81019080805190602001909291908051906020019092919080519060200190929190805190602001909291905050505050915091508373ffffffffffffffffffffffffffffffffffffffff168773ffffffffffffffffffffffffffffffffffffffff161415801561357e57508373ffffffffffffffffffffffffffffffffffffffff168173ffffffffffffffffffffffffffffffffffffffff1614155b156135995760008081915080905095509550505050506136db565b60006135a68989876124ed565b90508473ffffffffffffffffffffffffffffffffffffffff168873ffffffffffffffffffffffffffffffffffffffff1614156136c157600360009054906101000a900473ffffffffffffffffffffffffffffffffffffffff1673ffffffffffffffffffffffffffffffffffffffff1663dd99717d8a8a6040518363ffffffff1660e01b8152600401808381526020018273ffffffffffffffffffffffffffffffffffffffff1673ffffffffffffffffffffffffffffffffffffffff1681526020019250505060206040518083038186803b15801561368357600080fd5b505afa158015613697573d6000803e3d6000fd5b505050506040513d60208110156136ad57600080fd5b810190808051906020019092919050505092505b6136cd8482858c615963565b809750819850505050505050505b9250929050565b60006040518060400160405280600f81526020017f4561726e696e6773547261636b6572000000000000000000000000000000000081525061372381615ba0565b8261389f57600460009054906101000a900473ffffffffffffffffffffffffffffffffffffffff1673ffffffffffffffffffffffffffffffffffffffff1663e7abb197856040518263ffffffff1660e01b815260040180828152602001915050600060405180830381600087803b15801561379d57600080fd5b505af11580156137b1573d6000803e3d6000fd5b50505050600860009054906101000a900473ffffffffffffffffffffffffffffffffffffffff1673ffffffffffffffffffffffffffffffffffffffff16637b1a490986866040518363ffffffff1660e01b8152600401808373ffffffffffffffffffffffffffffffffffffffff1673ffffffffffffffffffffffffffffffffffffffff16815260200182815260200192505050602060405180830381600087803b15801561385e57600080fd5b505af1158015613872573d6000803e3d6000fd5b505050506040513d602081101561388857600080fd5b8101908080519060200190929190505050506138ab565b6138a98585615e3b565b505b60019150509392505050565b600260009054906101000a900473ffffffffffffffffffffffffffffffffffffffff1681565b6040518060400160405280600b81526020017f47616d654d616e6167657200000000000000000000000000000000000000000081525061391c81615ba0565b6000600360009054906101000a900473ffffffffffffffffffffffffffffffffffffffff1673ffffffffffffffffffffffffffffffffffffffff1663bacf524e85856040518363ffffffff1660e01b8152600401808381526020018273ffffffffffffffffffffffffffffffffffffffff1673ffffffffffffffffffffffffffffffffffffffff1681526020019250505060206040518083038186803b1580156139c557600080fd5b505afa1580156139d9573d6000803e3d6000fd5b505050506040513d60208110156139ef57600080fd5b810190808051906020019092919050505090506000613ace620f4240613ac0600260009054906101000a900473ffffffffffffffffffffffffffffffffffffffff1673ffffffffffffffffffffffffffffffffffffffff1663aa7ed99b6040518163ffffffff1660e01b815260040160206040518083038186803b158015613a7657600080fd5b505afa158015613a8a573d6000803e3d6000fd5b505050506040513d6020811015613aa057600080fd5b8101908080519060200190929190505050856156a190919063ffffffff16565b6156d890919063ffffffff16565b9050600460009054906101000a900473ffffffffffffffffffffffffffffffffffffffff1673ffffffffffffffffffffffffffffffffffffffff1663fe4d076586836040518363ffffffff1660e01b81526004018083815260200182815260200192505050600060405180830381600087803b158015613b4d57600080fd5b505af1158015613b61573d6000803e3d6000fd5b505050505050505050565b60078181548110613b7957fe5b906000526020600020016000915054906101000a900473ffffffffffffffffffffffffffffffffffffffff1681565b600660009054906101000a900473ffffffffffffffffffffffffffffffffffffffff1681565b600080613bd961570d565b905060003411613be857600080fd5b600860009054906101000a900473ffffffffffffffffffffffffffffffffffffffff1673ffffffffffffffffffffffffffffffffffffffff166108fc349081150290604051600060405180830381858888f19350505050613c4d576000915050613de3565b600460009054906101000a900473ffffffffffffffffffffffffffffffffffffffff1673ffffffffffffffffffffffffffffffffffffffff166350b1a7cd8460003460006040518563ffffffff1660e01b81526004018085815260200184815260200183815260200182151515158152602001945050505050602060405180830381600087803b158015613ce057600080fd5b505af1158015613cf4573d6000803e3d6000fd5b505050506040513d6020811015613d0a57600080fd5b8101908080519060200190929190505050507f120bbc6058df2f75a9523df514b6e83e744fda1180dd8c135f2f5d0b1d15d2918134600860009054906101000a900473ffffffffffffffffffffffffffffffffffffffff16604051808473ffffffffffffffffffffffffffffffffffffffff1673ffffffffffffffffffffffffffffffffffffffff1681526020018381526020018273ffffffffffffffffffffffffffffffffffffffff1673ffffffffffffffffffffffffffffffffffffffff168152602001935050505060405180910390a160019150505b919050565b60006040518060400160405280600b81526020017f47616d654d616e61676572000000000000000000000000000000000000000000815250613e2981615ba0565b6000600260009054906101000a900473ffffffffffffffffffffffffffffffffffffffff1673ffffffffffffffffffffffffffffffffffffffff1663d693a9896040518163ffffffff1660e01b815260040160206040518083038186803b158015613e9357600080fd5b505afa158015613ea7573d6000803e3d6000fd5b505050506040513d6020811015613ebd57600080fd5b81019080805190602001909291905050509050613eda8482615ff3565b50600192505050919050565b6000806000600460009054906101000a900473ffffffffffffffffffffffffffffffffffffffff1673ffffffffffffffffffffffffffffffffffffffff1663231eb69186866040518363ffffffff1660e01b8152600401808381526020018273ffffffffffffffffffffffffffffffffffffffff1673ffffffffffffffffffffffffffffffffffffffff16815260200192505050604080518083038186803b158015613f9157600080fd5b505afa158015613fa5573d6000803e3d6000fd5b505050506040513d6040811015613fbb57600080fd5b81019080805190602001909291908051906020019092919050505091509150600082118015613fea5750600081115b9250505092915050565b6040518060400160405280600b81526020017f47616d654d616e6167657200000000000000000000000000000000000000000081525061403381615ba0565b60006005600681111561404257fe5b8314156141f05760008061405586611087565b91509150600460009054906101000a900473ffffffffffffffffffffffffffffffffffffffff1673ffffffffffffffffffffffffffffffffffffffff1663712153b3828460006040518463ffffffff1660e01b815260040180848152602001838152602001821515151581526020019350505050602060405180830381600087803b1580156140e357600080fd5b505af11580156140f7573d6000803e3d6000fd5b505050506040513d602081101561410d57600080fd5b810190808051906020019092919050505050600460009054906101000a900473ffffffffffffffffffffffffffffffffffffffff1673ffffffffffffffffffffffffffffffffffffffff166350b1a7cd87838560016040518563ffffffff1660e01b81526004018085815260200184815260200183815260200182151515158152602001945050505050602060405180830381600087803b1580156141b157600080fd5b505af11580156141c5573d6000803e3d6000fd5b505050506040513d60208110156141db57600080fd5b81019080805190602001909291905050505050505b600460068111156141fd57fe5b83141561445957600080600460009054906101000a900473ffffffffffffffffffffffffffffffffffffffff1673ffffffffffffffffffffffffffffffffffffffff16637cee0879876040518263ffffffff1660e01b815260040180828152602001915050604080518083038186803b15801561427957600080fd5b505afa15801561428d573d6000803e3d6000fd5b505050506040513d60408110156142a357600080fd5b81019080805190602001909291908051906020019092919050505091509150600460009054906101000a900473ffffffffffffffffffffffffffffffffffffffff1673ffffffffffffffffffffffffffffffffffffffff1663712153b3828460006040518463ffffffff1660e01b815260040180848152602001838152602001821515151581526020019350505050602060405180830381600087803b15801561434c57600080fd5b505af1158015614360573d6000803e3d6000fd5b505050506040513d602081101561437657600080fd5b810190808051906020019092919050505050600460009054906101000a900473ffffffffffffffffffffffffffffffffffffffff1673ffffffffffffffffffffffffffffffffffffffff166350b1a7cd87838560016040518563ffffffff1660e01b81526004018085815260200184815260200183815260200182151515158152602001945050505050602060405180830381600087803b15801561441a57600080fd5b505af115801561442e573d6000803e3d6000fd5b505050506040513d602081101561444457600080fd5b81019080805190602001909291905050505050505b600460009054906101000a900473ffffffffffffffffffffffffffffffffffffffff1673ffffffffffffffffffffffffffffffffffffffff1663996ab60a85856040518363ffffffff1660e01b81526004018083815260200182815260200192505050600060405180830381600087803b1580156144d657600080fd5b505af11580156144ea573d6000803e3d6000fd5b5050505050505050565b60008073ffffffffffffffffffffffffffffffffffffffff163373ffffffffffffffffffffffffffffffffffffffff16141561452c57fe5b61456a6040518060400160405280600b81526020017f73757065725f61646d696e000000000000000000000000000000000000000000815250615425565b6145dc576040517f08c379a00000000000000000000000000000000000000000000000000000000081526004018080602001828103825260108152602001807f4f6e6c792073757065722061646d696e0000000000000000000000000000000081525060200191505060405180910390fd5b8173ffffffffffffffffffffffffffffffffffffffff1663c4d66de8600560009054906101000a900473ffffffffffffffffffffffffffffffffffffffff166040518263ffffffff1660e01b8152600401808273ffffffffffffffffffffffffffffffffffffffff1673ffffffffffffffffffffffffffffffffffffffff168152602001915050600060405180830381600087803b15801561467d57600080fd5b505af1158015614691573d6000803e3d6000fd5b50505050600073ffffffffffffffffffffffffffffffffffffffff16600860009054906101000a900473ffffffffffffffffffffffffffffffffffffffff1673ffffffffffffffffffffffffffffffffffffffff16146149f057600860009054906101000a900473ffffffffffffffffffffffffffffffffffffffff1673ffffffffffffffffffffffffffffffffffffffff16637b1a490983600860009054906101000a900473ffffffffffffffffffffffffffffffffffffffff1673ffffffffffffffffffffffffffffffffffffffff16316040518363ffffffff1660e01b8152600401808373ffffffffffffffffffffffffffffffffffffffff1673ffffffffffffffffffffffffffffffffffffffff16815260200182815260200192505050602060405180830381600087803b1580156147cd57600080fd5b505af11580156147e1573d6000803e3d6000fd5b505050506040513d60208110156147f757600080fd5b8101908080519060200190929190505050506000600560009054906101000a900473ffffffffffffffffffffffffffffffffffffffff1673ffffffffffffffffffffffffffffffffffffffff166370a08231600860009054906101000a900473ffffffffffffffffffffffffffffffffffffffff166040518263ffffffff1660e01b8152600401808273ffffffffffffffffffffffffffffffffffffffff1673ffffffffffffffffffffffffffffffffffffffff16815260200191505060206040518083038186803b1580156148cc57600080fd5b505afa1580156148e0573d6000803e3d6000fd5b505050506040513d60208110156148f657600080fd5b81019080805190602001909291905050509050600860009054906101000a900473ffffffffffffffffffffffffffffffffffffffff1673ffffffffffffffffffffffffffffffffffffffff1663430951bd84836040518363ffffffff1660e01b8152600401808373ffffffffffffffffffffffffffffffffffffffff1673ffffffffffffffffffffffffffffffffffffffff16815260200182815260200192505050602060405180830381600087803b1580156149b257600080fd5b505af11580156149c6573d6000803e3d6000fd5b505050506040513d60208110156149dc57600080fd5b810190808051906020019092919050505050505b81600860006101000a81548173ffffffffffffffffffffffffffffffffffffffff021916908373ffffffffffffffffffffffffffffffffffffffff16021790555060019050919050565b60006040518060400160405280600c81526020017f5769746864726177506f6f6c0000000000000000000000000000000000000000815250614a7b81615ba0565b600460009054906101000a900473ffffffffffffffffffffffffffffffffffffffff1673ffffffffffffffffffffffffffffffffffffffff1663292eff5b85856040518363ffffffff1660e01b81526004018083815260200182815260200192505050600060405180830381600087803b158015614af857600080fd5b505af1158015614b0c573d6000803e3d6000fd5b50505050614b1a8585615e3b565b5060019150509392505050565b600860009054906101000a900473ffffffffffffffffffffffffffffffffffffffff1681565b600160009054906101000a900473ffffffffffffffffffffffffffffffffffffffff1681565b600073ffffffffffffffffffffffffffffffffffffffff163373ffffffffffffffffffffffffffffffffffffffff161415614baa57fe5b614be86040518060400160405280600b81526020017f73757065725f61646d696e000000000000000000000000000000000000000000815250615425565b614c5a576040517f08c379a00000000000000000000000000000000000000000000000000000000081526004018080602001828103825260108152602001807f4f6e6c792073757065722061646d696e0000000000000000000000000000000081525060200191505060405180910390fd5b600860009054906101000a900473ffffffffffffffffffffffffffffffffffffffff1673ffffffffffffffffffffffffffffffffffffffff1663f2fde38b826040518263ffffffff1660e01b8152600401808273ffffffffffffffffffffffffffffffffffffffff1673ffffffffffffffffffffffffffffffffffffffff168152602001915050600060405180830381600087803b158015614cfb57600080fd5b505af1158015614d0f573d6000803e3d6000fd5b5050505050565b6000806040518060400160405280600c81526020017f47616d654372656174696f6e0000000000000000000000000000000000000000815250614d5881615ba0565b6000806060600160009054906101000a900473ffffffffffffffffffffffffffffffffffffffff1673ffffffffffffffffffffffffffffffffffffffff1663358177736040518060400160405280601681526020017f486f6e6579706f74416c6c6f636174696f6e416c676f000000000000000000008152506040518263ffffffff1660e01b81526004018080602001828103825283818151815260200191508051906020019080838360005b83811015614e20578082015181840152602081019050614e05565b50505050905090810190601f168015614e4d5780820380516001836020036101000a031916815260200191505b509250505060206040518083038186803b158015614e6a57600080fd5b505afa158015614e7e573d6000803e3d6000fd5b505050506040513d6020811015614e9457600080fd5b810190808051906020019092919050505073ffffffffffffffffffffffffffffffffffffffff166356e5a2c96040518163ffffffff1660e01b815260040160006040518083038186803b158015614eea57600080fd5b505afa158015614efe573d6000803e3d6000fd5b505050506040513d6000823e3d601f19601f820116820180604052506060811015614f2857600080fd5b81019080805190602001909291908051906020019092919080516040519392919084640100000000821115614f5c57600080fd5b83820191506020820185811115614f7257600080fd5b8251866001820283011164010000000082111715614f8f57600080fd5b8083526020830192505050908051906020019080838360005b83811015614fc3578082015181840152602081019050614fa8565b50505050905090810190601f168015614ff05780820380516001836020036101000a031916815260200191505b50604052505050925092509250600460009054906101000a900473ffffffffffffffffffffffffffffffffffffffff1673ffffffffffffffffffffffffffffffffffffffff1663b4f4a176888585856040518563ffffffff1660e01b81526004018085815260200184815260200183815260200180602001828103825283818151815260200191508051906020019080838360005b838110156150a0578082015181840152602081019050615085565b50505050905090810190601f1680156150cd5780820380516001836020036101000a031916815260200191505b50955050505050506040805180830381600087803b1580156150ee57600080fd5b505af1158015615102573d6000803e3d6000fd5b505050506040513d604081101561511857600080fd5b8101908080519060200190929190805190602001909291905050509550955050505050915091565b6000809054906101000a900473ffffffffffffffffffffffffffffffffffffffff1673ffffffffffffffffffffffffffffffffffffffff163373ffffffffffffffffffffffffffffffffffffffff161461519657fe5b600073ffffffffffffffffffffffffffffffffffffffff168173ffffffffffffffffffffffffffffffffffffffff161461520b57806000806101000a81548173ffffffffffffffffffffffffffffffffffffffff021916908373ffffffffffffffffffffffffffffffffffffffff1602179055505b50565b60006040518060400160405280600f81526020017f4561726e696e6773547261636b6572000000000000000000000000000000000081525061524f81615ba0565b600061525961570d565b90506000341161526857600080fd5b600860009054906101000a900473ffffffffffffffffffffffffffffffffffffffff1673ffffffffffffffffffffffffffffffffffffffff166108fc349081150290604051600060405180830381858888f193505050506152cd576000925050615421565b600460009054906101000a900473ffffffffffffffffffffffffffffffffffffffff1673ffffffffffffffffffffffffffffffffffffffff1663ee700e78346040518263ffffffff1660e01b815260040180828152602001915050600060405180830381600087803b15801561534257600080fd5b505af1158015615356573d6000803e3d6000fd5b505050507f120bbc6058df2f75a9523df514b6e83e744fda1180dd8c135f2f5d0b1d15d2918134600860009054906101000a900473ffffffffffffffffffffffffffffffffffffffff16604051808473ffffffffffffffffffffffffffffffffffffffff1673ffffffffffffffffffffffffffffffffffffffff1681526020018381526020018273ffffffffffffffffffffffffffffffffffffffff1673ffffffffffffffffffffffffffffffffffffffff168152602001935050505060405180910390a160019250505b5090565b6000600160009054906101000a900473ffffffffffffffffffffffffffffffffffffffff1673ffffffffffffffffffffffffffffffffffffffff1663358177736040518060400160405280600681526020017f526f6c65444200000000000000000000000000000000000000000000000000008152506040518263ffffffff1660e01b81526004018080602001828103825283818151815260200191508051906020019080838360005b838110156154ea5780820151818401526020810190506154cf565b50505050905090810190601f1680156155175780820380516001836020036101000a031916815260200191505b509250505060206040518083038186803b15801561553457600080fd5b505afa158015615548573d6000803e3d6000fd5b505050506040513d602081101561555e57600080fd5b810190808051906020019092919050505073ffffffffffffffffffffffffffffffffffffffff16636c9cd0978361559361570d565b6040518363ffffffff1660e01b815260040180806020018373ffffffffffffffffffffffffffffffffffffffff1673ffffffffffffffffffffffffffffffffffffffff168152602001828103825284818151815260200191508051906020019080838360005b838110156156145780820151818401526020810190506155f9565b50505050905090810190601f1680156156415780820380516001836020036101000a031916815260200191505b50935050505060206040518083038186803b15801561565f57600080fd5b505afa158015615673573d6000803e3d6000fd5b505050506040513d602081101561568957600080fd5b81019080805190602001909291905050509050919050565b6000808314156156b457600090506156d2565b60008284029050828482816156c557fe5b04146156cd57fe5b809150505b92915050565b6000808284816156e457fe5b0490508091505092915050565b60008082840190508381101561570357fe5b8091505092915050565b6000600160009054906101000a900473ffffffffffffffffffffffffffffffffffffffff1673ffffffffffffffffffffffffffffffffffffffff163373ffffffffffffffffffffffffffffffffffffffff161461576c573390506157bf565b6000601436036000602052601481602c37602051915050600073ffffffffffffffffffffffffffffffffffffffff168173ffffffffffffffffffffffffffffffffffffffff1614156157ba57fe5b809150505b90565b600073ffffffffffffffffffffffffffffffffffffffff16600160009054906101000a900473ffffffffffffffffffffffffffffffffffffffff1673ffffffffffffffffffffffffffffffffffffffff161415615887576040517f08c379a00000000000000000000000000000000000000000000000000000000081526004018080602001828103825260088152602001807f4e6f2050726f787900000000000000000000000000000000000000000000000081525060200191505060405180910390fd5b600160009054906101000a900473ffffffffffffffffffffffffffffffffffffffff1673ffffffffffffffffffffffffffffffffffffffff163373ffffffffffffffffffffffffffffffffffffffff161461594a576040517f08c379a00000000000000000000000000000000000000000000000000000000081526004018080602001828103825260128152602001807f4f6e6c79207468726f7567682050726f7879000000000000000000000000000081525060200191505060405180910390fd5b565b60008282111561595857fe5b818303905092915050565b60008061596e616809565b600660009054906101000a900473ffffffffffffffffffffffffffffffffffffffff1673ffffffffffffffffffffffffffffffffffffffff16636991b5bf856040518263ffffffff1660e01b81526004018082815260200191505060a06040518083038186803b1580156159e157600080fd5b505afa1580156159f5573d6000803e3d6000fd5b505050506040513d601f19601f8201168201806040525060a0811015615a1a57600080fd5b810190809190505090506000600360009054906101000a900473ffffffffffffffffffffffffffffffffffffffff1673ffffffffffffffffffffffffffffffffffffffff1663525a8e4e866040518263ffffffff1660e01b815260040180828152602001915050604080518083038186803b158015615a9857600080fd5b505afa158015615aac573d6000803e3d6000fd5b505050506040513d6040811015615ac257600080fd5b8101908080519060200190929190805190602001909291905050509150506000615b1a620f4240615b0c858b60058110615af857fe5b60200201518c6156a190919063ffffffff16565b6156d890919063ffffffff16565b90506000615b56620f4240615b48868c60058110615b3457fe5b6020020151866156a190919063ffffffff16565b6156d890919063ffffffff16565b90506003891415615b7a57615b6d81838a8a6161ab565b9550955050505050615b97565b615b8d82896156f190919063ffffffff16565b8195509550505050505b94509492505050565b600073ffffffffffffffffffffffffffffffffffffffff16600160009054906101000a900473ffffffffffffffffffffffffffffffffffffffff1673ffffffffffffffffffffffffffffffffffffffff161415615c65576040517f08c379a00000000000000000000000000000000000000000000000000000000081526004018080602001828103825260088152602001807f4e6f2050726f787900000000000000000000000000000000000000000000000081525060200191505060405180910390fd5b6000600160009054906101000a900473ffffffffffffffffffffffffffffffffffffffff1673ffffffffffffffffffffffffffffffffffffffff166335817773836040518263ffffffff1660e01b81526004018080602001828103825283818151815260200191508051906020019080838360005b83811015615cf5578082015181840152602081019050615cda565b50505050905090810190601f168015615d225780820380516001836020036101000a031916815260200191505b509250505060206040518083038186803b158015615d3f57600080fd5b505afa158015615d53573d6000803e3d6000fd5b505050506040513d6020811015615d6957600080fd5b81019080805190602001909291905050509050600073ffffffffffffffffffffffffffffffffffffffff168173ffffffffffffffffffffffffffffffffffffffff161415615db357fe5b8073ffffffffffffffffffffffffffffffffffffffff163373ffffffffffffffffffffffffffffffffffffffff1614615e37576040517f08c379a000000000000000000000000000000000000000000000000000000000815260040180806020018281038252602d81526020018061684e602d913960400191505060405180910390fd5b5050565b6000600860009054906101000a900473ffffffffffffffffffffffffffffffffffffffff1673ffffffffffffffffffffffffffffffffffffffff16637b1a490984846040518363ffffffff1660e01b8152600401808373ffffffffffffffffffffffffffffffffffffffff1673ffffffffffffffffffffffffffffffffffffffff16815260200182815260200192505050602060405180830381600087803b158015615ee657600080fd5b505af1158015615efa573d6000803e3d6000fd5b505050506040513d6020811015615f1057600080fd5b810190808051906020019092919050505050600460009054906101000a900473ffffffffffffffffffffffffffffffffffffffff1673ffffffffffffffffffffffffffffffffffffffff1663712153b360008460016040518463ffffffff1660e01b815260040180848152602001838152602001821515151581526020019350505050602060405180830381600087803b158015615fad57600080fd5b505af1158015615fc1573d6000803e3d6000fd5b505050506040513d6020811015615fd757600080fd5b8101908080519060200190929190505050506001905092915050565b6000600860009054906101000a900473ffffffffffffffffffffffffffffffffffffffff1673ffffffffffffffffffffffffffffffffffffffff1663430951bd84846040518363ffffffff1660e01b8152600401808373ffffffffffffffffffffffffffffffffffffffff1673ffffffffffffffffffffffffffffffffffffffff16815260200182815260200192505050602060405180830381600087803b15801561609e57600080fd5b505af11580156160b2573d6000803e3d6000fd5b505050506040513d60208110156160c857600080fd5b810190808051906020019092919050505050600460009054906101000a900473ffffffffffffffffffffffffffffffffffffffff1673ffffffffffffffffffffffffffffffffffffffff1663712153b383600060016040518463ffffffff1660e01b815260040180848152602001838152602001821515151581526020019350505050602060405180830381600087803b15801561616557600080fd5b505af1158015616179573d6000803e3d6000fd5b505050506040513d602081101561618f57600080fd5b8101908080519060200190929190505050506001905092915050565b6000806161b661682b565b600360009054906101000a900473ffffffffffffffffffffffffffffffffffffffff1673ffffffffffffffffffffffffffffffffffffffff16636b1426a4856040518263ffffffff1660e01b81526004018082815260200191505060606040518083038186803b15801561622957600080fd5b505afa15801561623d573d6000803e3d6000fd5b505050506040513d606081101561625357600080fd5b810190808051906020019092919080519060200190929190805190602001909291905050508360006003811061628557fe5b602002018460016003811061629657fe5b60200201856002600381106162a757fe5b602002018373ffffffffffffffffffffffffffffffffffffffff1673ffffffffffffffffffffffffffffffffffffffff168152508373ffffffffffffffffffffffffffffffffffffffff1673ffffffffffffffffffffffffffffffffffffffff168152508373ffffffffffffffffffffffffffffffffffffffff1673ffffffffffffffffffffffffffffffffffffffff168152505050506000600360009054906101000a900473ffffffffffffffffffffffffffffffffffffffff1673ffffffffffffffffffffffffffffffffffffffff16630b154c96868460016003811061638c57fe5b60200201516040518363ffffffff1660e01b8152600401808381526020018273ffffffffffffffffffffffffffffffffffffffff1673ffffffffffffffffffffffffffffffffffffffff1681526020019250505060806040518083038186803b1580156163f857600080fd5b505afa15801561640c573d6000803e3d6000fd5b505050506040513d608081101561642257600080fd5b810190808051906020019092919080519060200190929190805190602001909291908051906020019092919050505050505090506000600360009054906101000a900473ffffffffffffffffffffffffffffffffffffffff1673ffffffffffffffffffffffffffffffffffffffff16630b154c9687856002600381106164a457fe5b60200201516040518363ffffffff1660e01b8152600401808381526020018273ffffffffffffffffffffffffffffffffffffffff1673ffffffffffffffffffffffffffffffffffffffff1681526020019250505060806040518083038186803b15801561651057600080fd5b505afa158015616524573d6000803e3d6000fd5b505050506040513d608081101561653a57600080fd5b810190808051906020019092919080519060200190929190805190602001909291908051906020019092919050505050505090506000600360009054906101000a900473ffffffffffffffffffffffffffffffffffffffff1673ffffffffffffffffffffffffffffffffffffffff1663dd99717d88866000600381106165bc57fe5b60200201516040518363ffffffff1660e01b8152600401808381526020018273ffffffffffffffffffffffffffffffffffffffff1673ffffffffffffffffffffffffffffffffffffffff1681526020019250505060206040518083038186803b15801561662857600080fd5b505afa15801561663c573d6000803e3d6000fd5b505050506040513d602081101561665257600080fd5b810190808051906020019092919050505090506000600360009054906101000a900473ffffffffffffffffffffffffffffffffffffffff1673ffffffffffffffffffffffffffffffffffffffff1663bacf524e89876000600381106166b357fe5b60200201516040518363ffffffff1660e01b8152600401808381526020018273ffffffffffffffffffffffffffffffffffffffff1673ffffffffffffffffffffffffffffffffffffffff1681526020019250505060206040518083038186803b15801561671f57600080fd5b505afa158015616733573d6000803e3d6000fd5b505050506040513d602081101561674957600080fd5b810190808051906020019092919050505090506167938261678585616777888661594c90919063ffffffff16565b61594c90919063ffffffff16565b61594c90919063ffffffff16565b90506167ba816167ac8b8d6156a190919063ffffffff16565b6156d890919063ffffffff16565b99506167e1816167d38b8e6156a190919063ffffffff16565b6156d890919063ffffffff16565b9a506167f68a8a6156f190919063ffffffff16565b8b96509650505050505094509492505050565b6040518060a00160405280600590602082028038833980820191505090505090565b604051806060016040528060039060208202803883398082019150509050509056fe416363657373206973206f6e6c7920616c6c6f7765642066726f6d20737065636966696320636f6e7472616374a265627a7a72315820c0563ef8658dfb695a267951da51d5aece35bbf9008b6edc6d43a7c55e87b28264736f6c63430005110032",
  "source": "/**\n * @title EndowmentFund\n */\n//\n// This program is free software: you can redistribute it and/or modify\n// it under the terms of the GNU General Public License as published by\n// the Free Software Foundation, either version 3 of the License, or\n// (at your option) any later version.\n\n// This program is distributed in the hope that it will be useful,\n// but WITHOUT ANY WARRANTY; without even the implied warranty of\n// MERCHANTABILITY or FITNESS FOR A PARTICULAR PURPOSE.  See the\n// GNU General Public License for more details.\n\n// You should have received a copy of the GNU General Public License\n// along with this program.  If not, see <http://www.gnu.org/licenses/>.\n\npragma solidity ^0.5.5;\n\nimport \"../proxy/Proxied.sol\";\nimport \"../../authority/Guard.sol\";\nimport \"./Distribution.sol\";\nimport \"../endowment/HoneypotAllocationAlgo.sol\";\n\n/**\n * @title EndowmentFund\n * @dev Responsible for : manage funds\n * @author @vikrammndal @wafflemakr @Xaleee @ziweidream\n */\n\ncontract EndowmentFund is Distribution, Guard {\n    using SafeMath for uint256;\n\n    Escrow public escrow;\n\n    event WinnerClaimed(uint indexed gameId, address indexed winner, uint256 ethAmount, uint256 ktyAmount, address from);\n    event SentKTYtoEscrow(address sender, uint256 ktyAmount, address receiver);\n    event SentETHtoEscrow(address sender, uint256 ethAmount, address receiver);\n    event EthSwappedforKTY(address sender, uint256 ethAmount, uint256 ktyAmount, address ktyReceiver);\n\n    enum HoneypotState {\n        created,\n        assigned,\n        gameScheduled,\n        gameStarted,\n        forefeited,\n        claiming,\n        dissolved\n    }\n\n    /**\n    * @dev check if enough funds present and maintains balance of tokens in DB\n    */\n    function generateHoneyPot(uint256 gameId)\n    external\n    onlyContract(CONTRACT_NAME_GAMECREATION)\n    returns (uint, uint) {\n        (\n          uint ktyAllocated,\n          uint ethAllocated,\n          string memory honeypotClass\n        ) = HoneypotAllocationAlgo(proxy.getContract(CONTRACT_NAME_HONEYPOT_ALLOCATION_ALGO)).calculateAllocationToHoneypot();\n        return (endowmentDB.generateHoneyPot(gameId, ktyAllocated, ethAllocated, honeypotClass));\n    }\n\n    /**\n    * @dev winner claims\n    */\n    function claim(uint256 _gameId) external onlyProxy payable {\n        address payable msgSender = address(uint160(getOriginalSender()));\n\n        // Honeypot status\n        (uint status, /*uint256 claimTime*/) = endowmentDB.getHoneypotState(_gameId);\n\n        require(uint(HoneypotState.claiming) == status);\n\n        // require(now < claimTime, \"2\");\n\n        require(!getWithdrawalState(_gameId, msgSender));\n\n        (uint256 winningsETH, uint256 winningsKTY) = getWinnerShare(_gameId, msgSender);\n\n        // make sure enough funds in HoneyPot and update HoneyPot balance\n        endowmentDB.updateHoneyPotFund(_gameId, winningsKTY, winningsETH, true);\n\n        if (winningsKTY > 0){\n            // transfer the KTY\n            escrow.transferKTY(msgSender, winningsKTY);\n        }\n\n        if (winningsETH > 0){\n            // transfer the ETH\n            escrow.transferETH(msgSender, winningsETH);\n            // transferETHfromEscrow(msgSender, winningsETH);\n        }\n\n        // log tokens sent to an address\n        endowmentDB.setTotalDebit(_gameId, msgSender, winningsETH, winningsKTY);\n\n        emit WinnerClaimed(_gameId, msgSender, winningsETH, winningsKTY, address(escrow));\n    }\n\n    /**\n    * @dev send reward to the user that pressed finalize button\n    */\n    function sendFinalizeRewards(address user)\n        external\n        onlyContract(CONTRACT_NAME_GAMEMANAGER)\n        returns(bool)\n    {\n        uint reward = gameVarAndFee.getFinalizeRewards();\n        transferKTYfromEscrow(address(uint160(user)), reward);\n        return true;\n    }\n\n    function getWithdrawalState(uint _gameId, address _account) public view returns (bool) {\n        (uint256 totalETHdebited, uint256 totalKTYdebited) = endowmentDB.getTotalDebit(_gameId, _account);\n        return ((totalETHdebited > 0) && (totalKTYdebited > 0));\n    }\n\n    /**\n    * @dev updateHoneyPotState\n    */\n    function updateHoneyPotState(uint256 _gameId, uint _state) public onlyContract(CONTRACT_NAME_GAMEMANAGER) {\n        uint256 claimTime;\n        if (_state == uint(HoneypotState.claiming)){\n            //Send immediately initialEth+15%oflosing and 15%ofKTY to endowment\n            (uint256 winningsETH, uint256 winningsKTY) = getEndowmentShare(_gameId);\n            endowmentDB.updateEndowmentFund(winningsKTY, winningsETH, false);\n            endowmentDB.updateHoneyPotFund(_gameId, winningsKTY, winningsETH, true);\n        }\n        if(_state == uint(HoneypotState.forefeited)) {\n            (uint256 eth, uint256 kty) = endowmentDB.getHoneypotTotal(_gameId);\n            endowmentDB.updateEndowmentFund(kty, eth, false);\n            endowmentDB.updateHoneyPotFund(_gameId, kty, eth, true);\n        }\n        endowmentDB.setHoneypotState(_gameId, _state);\n    }\n\n    /**\n     * @dev Send KTY from EndowmentFund to Escrow\n     */\n    function sendKTYtoEscrow(uint256 _kty_amount)\n        external\n        onlySuperAdmin\n    {\n        require(_kty_amount > 0);\n\n        kittieFightToken.transfer(address(escrow), _kty_amount);\n\n        endowmentDB.updateEndowmentFund(_kty_amount, 0, false);\n\n        emit SentKTYtoEscrow(address(this), _kty_amount, address(escrow));\n    }\n\n    /**\n     * @dev Send eth to Escrow\n     */\n    function sendETHtoEscrow() external payable {\n        address msgSender = getOriginalSender();\n\n        require(msg.value > 0);\n\n        address(escrow).transfer(msg.value);\n\n        endowmentDB.updateEndowmentFund(0, msg.value, false);\n\n        emit SentETHtoEscrow(msgSender, msg.value, address(escrow));\n    }\n\n    /**\n     * @dev accepts KTY. KTY is swapped in uniswap.\n     * @dev KTY is sent to escrow. Ether is sent to KTY-WETH pair contract by the user.\n     * @dev Escrow sends 2x of KTY received in swap to KTY-WETH pair contract to maintain the\n     *      original ether to KTY ratio.\n     */\n    function contributeKTY(address _sender, uint256 _kty_amount) external payable returns(bool) {\n        uint etherForSwap = KtyUniswap(proxy.getContract(CONTRACT_NAME_KTY_UNISWAP)).etherFor(_kty_amount);\n        // allow an error within 0.0001 ether range, which is around $0.002 USD, that is, 0.2 cents.\n        require(msg.value >= etherForSwap.sub(10000000000000), \"Insufficient ether for swap KTY\");\n        // exchange KTY on uniswap\n        IUniswapV2Router01(proxy.getContract(CONTRACT_NAME_UNISWAPV2_ROUTER)).swapExactETHForTokens.value(msg.value)(\n            0,\n            path,\n            address(escrow),\n            2**255\n        );\n\n        emit EthSwappedforKTY(_sender, msg.value, _kty_amount, address(escrow));\n\n        return true;\n    }\n\n    /**\n     * @dev GM calls\n     */\n    function contributeETH(uint _gameId) external payable returns(bool) {\n        // require(address(escrow) != address(0));\n        address msgSender = getOriginalSender();\n\n        require(msg.value > 0);\n\n        // transfer ETH to Escrow\n        if (!address(escrow).send(msg.value)){\n            return false;\n        }\n\n        endowmentDB.updateHoneyPotFund(_gameId, 0, msg.value, false);\n\n        emit SentETHtoEscrow(msgSender, msg.value, address(escrow));\n\n        return true;\n    }\n\n    function contributeETH_Ethie()\n    external\n    onlyContract(CONTRACT_NAME_EARNINGS_TRACKER)\n    payable\n    returns(bool)\n    {\n        // require(address(escrow) != address(0));\n        address msgSender = getOriginalSender();\n\n        require(msg.value > 0);\n\n        // transfer ETH to Escrow\n        if (!address(escrow).send(msg.value)){\n            return false;\n        }\n\n        endowmentDB.updateInvestment(msg.value);\n\n        emit SentETHtoEscrow(msgSender, msg.value, address(escrow));\n\n        return true;\n    }\n\n    /**\n    * @notice MUST BE DONE BEFORE UPGRADING ENDOWMENT AS IT IS THE OWNER\n    * @dev change Escrow contract owner before UPGRADING ENDOWMENT AS IT IS THE OWNER\n    */\n    function transferEscrowOwnership(address payable _newOwner) external onlySuperAdmin {\n        escrow.transferOwnership(_newOwner);\n    }\n\n    /**\n    * @dev transfer Escrow ETH funds\n    */\n    function transferETHfromEscrow(address payable _someAddress, uint256 _eth_amount)\n    private\n    returns(bool){\n        // require(address(_someAddress) != address(0));\n\n        // transfer the ETH\n        escrow.transferETH(_someAddress, _eth_amount);\n\n        // Update DB. true = deductFunds\n        endowmentDB.updateEndowmentFund(0, _eth_amount, true);\n\n        return true;\n    }\n\n    function transferETHfromEscrowWithdrawalPool(address payable _someAddress, uint256 _eth_amount, uint256 _pool_id)\n        public\n        onlyContract(CONTRACT_NAME_WITHDRAW_POOL)\n        returns(bool)\n    {\n        endowmentDB.subETHfromPool(_eth_amount, _pool_id);\n        transferETHfromEscrow(_someAddress, _eth_amount);\n        return true;\n    }\n\n    function transferETHfromEscrowEarningsTracker(address payable _someAddress, uint256 _eth_amount, bool invested)\n        public\n        onlyContract(CONTRACT_NAME_EARNINGS_TRACKER)\n        returns(bool)\n    {\n        if(!invested) {\n            endowmentDB.subInvestment(_eth_amount);\n            escrow.transferETH(_someAddress, _eth_amount);\n        }\n        else\n            transferETHfromEscrow(_someAddress, _eth_amount);\n        return true;\n    }\n\n    /**\n    * @dev transfer Escrow KFT funds\n    */\n    function transferKTYfromEscrow(address _someAddress, uint256 _kty_amount)\n    private\n    returns(bool){\n        // require(address(_someAddress) != address(0));\n\n        // transfer the KTY\n        escrow.transferKTY(_someAddress, _kty_amount);\n\n        // Update DB. true = deductFunds\n        endowmentDB.updateEndowmentFund(_kty_amount, 0, true);\n\n        return true;\n    }\n\n    function addETHtoPool(uint256 gameId, address loser)\n        external\n        onlyContract(CONTRACT_NAME_GAMEMANAGER)\n    {\n        uint256 totalEthForLoser = gmGetterDB.getTotalBet(gameId, loser);\n        uint256 ETHtoPool = totalEthForLoser.mul(gameVarAndFee.getPercentageForPool()).div(1000000);\n        endowmentDB.addETHtoPool(gameId, ETHtoPool);\n    }\n\n    /**\n    * @dev Initialize or Upgrade Escrow\n    * @notice BEFORE CALLING: Deploy escrow contract and set the owner as EndowmentFund contract\n    */\n    function initUpgradeEscrow(Escrow _newEscrow) external onlySuperAdmin returns(bool){\n\n        // require(address(_newEscrow) != address(0));\n        _newEscrow.initialize(kittieFightToken);\n\n        // check ownership\n        // require(_newEscrow.owner() == address(this));\n\n        // KTY is set\n        // require(_newEscrow.getKTYaddress() != address(0));\n\n        if (address(escrow) != address(0)){ // Transfer if any funds\n\n            // transfer all the ETH\n            escrow.transferETH(address(_newEscrow), address(escrow).balance);\n\n            // transfer all the KTY\n            uint256 ktyBalance = kittieFightToken.balanceOf(address(escrow));\n            escrow.transferKTY(address(_newEscrow), ktyBalance);\n\n        }\n\n        escrow = _newEscrow;\n        return true;\n    }\n\n\n    /**\n     * @dev Do not upgrade Endowment if owner of escrow is still this contract's address\n     * Steps:\n     * deploy new Endowment\n     * set owner of escrow to new Endowment adrress using endowment.transferEscrowOwnership(new Endowment adrress)\n     * than set the new Endowment adrress in proxy\n     */\n    function isEndowmentUpgradabe() public view returns(bool){\n        return (address(escrow.owner) != address(this));\n    }\n\n}\n",
  "sourcePath": "/Users/ziweizhang/Desktop/kittieFight-uniswap/contracts/contracts/modules/endowment/EndowmentFund.sol",
  "compiler": {
    "name": "solc",
    "version": "0.5.17+commit.d19bba13.Emscripten.clang"
  },
  "schemaVersion": "3.0.23",
  "updatedAt": "2020-06-10T10:43:32.799Z",
  "networkType": "ethereum",
  "devdoc": {
    "author": "@vikrammndal @wafflemakr @Xaleee @ziweidream",
    "details": "Responsible for : manage funds",
    "methods": {
      "claim(uint256)": {
        "details": "winner claims"
      },
      "contributeETH(uint256)": {
        "details": "GM calls"
      },
      "contributeKTY(address,uint256)": {
        "details": "accepts KTY. KTY is swapped in uniswap.KTY is sent to escrow. Ether is sent to KTY-WETH pair contract by the user.Escrow sends 2x of KTY received in swap to KTY-WETH pair contract to maintain the     original ether to KTY ratio."
      },
      "generateHoneyPot(uint256)": {
        "details": "check if enough funds present and maintains balance of tokens in DB"
      },
      "initUpgradeEscrow(address)": {
        "details": "Initialize or Upgrade Escrow"
      },
      "initialize()": {
        "details": "Sets related contractsCan be called only by the owner of this contract"
      },
      "isEndowmentUpgradabe()": {
        "details": "Do not upgrade Endowment if owner of escrow is still this contract's address Steps: deploy new Endowment set owner of escrow to new Endowment adrress using endowment.transferEscrowOwnership(new Endowment adrress) than set the new Endowment adrress in proxy"
      },
      "sendETHtoEscrow()": {
        "details": "Send eth to Escrow"
      },
      "sendFinalizeRewards(address)": {
        "details": "send reward to the user that pressed finalize button"
      },
      "sendKTYtoEscrow(uint256)": {
        "details": "Send KTY from EndowmentFund to Escrow"
      },
      "transferEscrowOwnership(address)": {
        "details": "change Escrow contract owner before UPGRADING ENDOWMENT AS IT IS THE OWNER"
      },
      "updateHoneyPotState(uint256,uint256)": {
        "details": "updateHoneyPotState"
      }
    },
    "title": "EndowmentFund"
  },
  "userdoc": {
    "methods": {
      "getWinnerShare(uint256,address)": {
        "notice": "Calculates amount of Eth the winner can claim"
      },
      "initUpgradeEscrow(address)": {
        "notice": "BEFORE CALLING: Deploy escrow contract and set the owner as EndowmentFund contract"
      },
      "setProxy(address)": {
        "notice": "Set/update address of Proxy contract"
      },
      "transferEscrowOwnership(address)": {
        "notice": "MUST BE DONE BEFORE UPGRADING ENDOWMENT AS IT IS THE OWNER"
      }
    }
  }
}