{
  "contractName": "EndowmentFund",
  "abi": [
    {
      "constant": true,
      "inputs": [],
      "name": "gmGetterDB",
      "outputs": [
        {
          "internalType": "contract GMGetterDB",
          "name": "",
          "type": "address"
        }
      ],
      "payable": false,
      "stateMutability": "view",
      "type": "function"
    },
    {
      "constant": true,
      "inputs": [
        {
          "internalType": "uint256",
          "name": "gameId",
          "type": "uint256"
        }
      ],
      "name": "getEndowmentShare",
      "outputs": [
        {
          "internalType": "uint256",
          "name": "winningsETH",
          "type": "uint256"
        },
        {
          "internalType": "uint256",
          "name": "winningsKTY",
          "type": "uint256"
        }
      ],
      "payable": false,
      "stateMutability": "view",
      "type": "function"
    },
    {
      "constant": true,
      "inputs": [],
      "name": "endowmentDB",
      "outputs": [
        {
          "internalType": "contract EndowmentDB",
          "name": "",
          "type": "address"
        }
      ],
      "payable": false,
      "stateMutability": "view",
      "type": "function"
    },
    {
      "constant": true,
      "inputs": [
        {
          "internalType": "uint256",
          "name": "gameId",
          "type": "uint256"
        },
        {
          "internalType": "address payable",
          "name": "claimer",
          "type": "address"
        },
        {
          "internalType": "address",
          "name": "winner",
          "type": "address"
        }
      ],
      "name": "checkWinnerCategory",
      "outputs": [
        {
          "internalType": "uint256",
          "name": "winningGroup",
          "type": "uint256"
        }
      ],
      "payable": false,
      "stateMutability": "view",
      "type": "function"
    },
    {
      "constant": true,
      "inputs": [
        {
          "internalType": "uint256",
          "name": "",
          "type": "uint256"
        }
      ],
      "name": "scheduledJobs",
      "outputs": [
        {
          "internalType": "uint256",
          "name": "",
          "type": "uint256"
        }
      ],
      "payable": false,
      "stateMutability": "view",
      "type": "function"
    },
    {
      "constant": true,
      "inputs": [],
      "name": "kittieFightToken",
      "outputs": [
        {
          "internalType": "contract ERC20Standard",
          "name": "",
          "type": "address"
        }
      ],
      "payable": false,
      "stateMutability": "view",
      "type": "function"
    },
    {
      "constant": false,
      "inputs": [],
      "name": "initialize",
      "outputs": [],
      "payable": false,
      "stateMutability": "nonpayable",
      "type": "function"
    },
    {
      "constant": true,
      "inputs": [],
      "name": "owner",
      "outputs": [
        {
          "internalType": "address payable",
          "name": "",
          "type": "address"
        }
      ],
      "payable": false,
      "stateMutability": "view",
      "type": "function"
    },
    {
      "constant": false,
      "inputs": [
        {
          "internalType": "contract ProxyBase",
          "name": "_proxy",
          "type": "address"
        }
      ],
      "name": "setProxy",
      "outputs": [],
      "payable": false,
      "stateMutability": "nonpayable",
      "type": "function"
    },
    {
      "constant": true,
      "inputs": [
        {
          "internalType": "uint256",
          "name": "gameId",
          "type": "uint256"
        },
        {
          "internalType": "address payable",
          "name": "claimer",
          "type": "address"
        }
      ],
      "name": "getWinnerShare",
      "outputs": [
        {
          "internalType": "uint256",
          "name": "winningsETH",
          "type": "uint256"
        },
        {
          "internalType": "uint256",
          "name": "winningsKTY",
          "type": "uint256"
        }
      ],
      "payable": false,
      "stateMutability": "view",
      "type": "function"
    },
    {
      "constant": true,
      "inputs": [],
      "name": "potRequestCount",
      "outputs": [
        {
          "internalType": "uint256",
          "name": "",
          "type": "uint256"
        }
      ],
      "payable": false,
      "stateMutability": "view",
      "type": "function"
    },
    {
      "constant": true,
      "inputs": [],
      "name": "gameVarAndFee",
      "outputs": [
        {
          "internalType": "contract GameVarAndFee",
          "name": "",
          "type": "address"
        }
      ],
      "payable": false,
      "stateMutability": "view",
      "type": "function"
    },
    {
      "constant": true,
      "inputs": [],
      "name": "gameStore",
      "outputs": [
        {
          "internalType": "contract GameStore",
          "name": "",
          "type": "address"
        }
      ],
      "payable": false,
      "stateMutability": "view",
      "type": "function"
    },
    {
      "constant": true,
      "inputs": [],
      "name": "escrow",
      "outputs": [
        {
          "internalType": "contract Escrow",
          "name": "",
          "type": "address"
        }
      ],
      "payable": false,
      "stateMutability": "view",
      "type": "function"
    },
    {
      "constant": true,
      "inputs": [],
      "name": "proxy",
      "outputs": [
        {
          "internalType": "contract ProxyBase",
          "name": "",
          "type": "address"
        }
      ],
      "payable": false,
      "stateMutability": "view",
      "type": "function"
    },
    {
      "constant": false,
      "inputs": [
        {
          "internalType": "address payable",
          "name": "newOwner",
          "type": "address"
        }
      ],
      "name": "transferOwnership",
      "outputs": [],
      "payable": false,
      "stateMutability": "nonpayable",
      "type": "function"
    },
    {
      "anonymous": false,
      "inputs": [
        {
          "indexed": true,
          "internalType": "uint256",
          "name": "gameId",
          "type": "uint256"
        },
        {
          "indexed": true,
          "internalType": "address",
          "name": "winner",
          "type": "address"
        },
        {
          "indexed": false,
          "internalType": "uint256",
          "name": "ethAmount",
          "type": "uint256"
        },
        {
          "indexed": false,
          "internalType": "uint256",
          "name": "ktyAmount",
          "type": "uint256"
        },
        {
          "indexed": false,
          "internalType": "address",
          "name": "from",
          "type": "address"
        }
      ],
      "name": "WinnerClaimed",
      "type": "event"
    },
    {
      "anonymous": false,
      "inputs": [
        {
          "indexed": false,
          "internalType": "address",
          "name": "sender",
          "type": "address"
        },
        {
          "indexed": false,
          "internalType": "uint256",
          "name": "ktyAmount",
          "type": "uint256"
        },
        {
          "indexed": false,
          "internalType": "address",
          "name": "receiver",
          "type": "address"
        }
      ],
      "name": "SentKTYtoEscrow",
      "type": "event"
    },
    {
      "anonymous": false,
      "inputs": [
        {
          "indexed": false,
          "internalType": "address",
          "name": "sender",
          "type": "address"
        },
        {
          "indexed": false,
          "internalType": "uint256",
          "name": "ethAmount",
          "type": "uint256"
        },
        {
          "indexed": false,
          "internalType": "address",
          "name": "receiver",
          "type": "address"
        }
      ],
      "name": "SentETHtoEscrow",
      "type": "event"
    },
    {
      "anonymous": false,
      "inputs": [
        {
          "indexed": false,
          "internalType": "uint256",
          "name": "scheduledJob",
          "type": "uint256"
        },
        {
          "indexed": false,
          "internalType": "uint256",
          "name": "time",
          "type": "uint256"
        },
        {
          "indexed": false,
          "internalType": "uint256",
          "name": "gameId",
          "type": "uint256"
        }
      ],
      "name": "Scheduled",
      "type": "event"
    },
    {
      "constant": false,
      "inputs": [
        {
          "internalType": "uint256",
          "name": "gameId",
          "type": "uint256"
        }
      ],
      "name": "generateHoneyPot",
      "outputs": [
        {
          "internalType": "uint256",
          "name": "",
          "type": "uint256"
        }
      ],
      "payable": false,
      "stateMutability": "nonpayable",
      "type": "function"
    },
    {
      "constant": false,
      "inputs": [
        {
          "internalType": "uint256",
          "name": "_gameId",
          "type": "uint256"
        }
      ],
      "name": "claim",
      "outputs": [],
      "payable": true,
      "stateMutability": "payable",
      "type": "function"
    },
    {
      "constant": false,
      "inputs": [
        {
          "internalType": "address",
          "name": "user",
          "type": "address"
        }
      ],
      "name": "sendFinalizeRewards",
      "outputs": [
        {
          "internalType": "bool",
          "name": "",
          "type": "bool"
        }
      ],
      "payable": false,
      "stateMutability": "nonpayable",
      "type": "function"
    },
    {
      "constant": true,
      "inputs": [
        {
          "internalType": "uint256",
          "name": "_gameId",
          "type": "uint256"
        },
        {
          "internalType": "address",
          "name": "_account",
          "type": "address"
        }
      ],
      "name": "getWithdrawalState",
      "outputs": [
        {
          "internalType": "bool",
          "name": "",
          "type": "bool"
        }
      ],
      "payable": false,
      "stateMutability": "view",
      "type": "function"
    },
    {
      "constant": false,
      "inputs": [
        {
          "internalType": "uint256",
          "name": "_gameId",
          "type": "uint256"
        },
        {
          "internalType": "uint256",
          "name": "_state",
          "type": "uint256"
        }
      ],
      "name": "updateHoneyPotState",
      "outputs": [],
      "payable": false,
      "stateMutability": "nonpayable",
      "type": "function"
    },
    {
      "constant": false,
      "inputs": [
        {
          "internalType": "uint256",
          "name": "_gameId",
          "type": "uint256"
        }
      ],
      "name": "deleteCronJob",
      "outputs": [],
      "payable": false,
      "stateMutability": "nonpayable",
      "type": "function"
    },
    {
      "constant": false,
      "inputs": [
        {
          "internalType": "uint256",
          "name": "_gameId",
          "type": "uint256"
        }
      ],
      "name": "scheduleDissolve",
      "outputs": [],
      "payable": false,
      "stateMutability": "nonpayable",
      "type": "function"
    },
    {
      "constant": false,
      "inputs": [
        {
          "internalType": "uint256",
          "name": "_gameId",
          "type": "uint256"
        }
      ],
      "name": "dissolveTest",
      "outputs": [],
      "payable": false,
      "stateMutability": "nonpayable",
      "type": "function"
    },
    {
      "constant": false,
      "inputs": [
        {
          "internalType": "uint256",
          "name": "_kty_amount",
          "type": "uint256"
        }
      ],
      "name": "sendKTYtoEscrow",
      "outputs": [],
      "payable": false,
      "stateMutability": "nonpayable",
      "type": "function"
    },
    {
      "constant": false,
      "inputs": [],
      "name": "sendETHtoEscrow",
      "outputs": [],
      "payable": true,
      "stateMutability": "payable",
      "type": "function"
    },
    {
      "constant": false,
      "inputs": [
        {
          "internalType": "address",
          "name": "_sender",
          "type": "address"
        },
        {
          "internalType": "uint256",
          "name": "_kty_amount",
          "type": "uint256"
        }
      ],
      "name": "contributeKTY",
      "outputs": [
        {
          "internalType": "bool",
          "name": "",
          "type": "bool"
        }
      ],
      "payable": false,
      "stateMutability": "nonpayable",
      "type": "function"
    },
    {
      "constant": false,
      "inputs": [
        {
          "internalType": "uint256",
          "name": "_gameId",
          "type": "uint256"
        }
      ],
      "name": "contributeETH",
      "outputs": [
        {
          "internalType": "bool",
          "name": "",
          "type": "bool"
        }
      ],
      "payable": true,
      "stateMutability": "payable",
      "type": "function"
    },
    {
      "constant": false,
      "inputs": [
        {
          "internalType": "address payable",
          "name": "_newOwner",
          "type": "address"
        }
      ],
      "name": "transferEscrowOwnership",
      "outputs": [],
      "payable": false,
      "stateMutability": "nonpayable",
      "type": "function"
    },
    {
      "constant": false,
      "inputs": [
        {
          "internalType": "contract Escrow",
          "name": "_newEscrow",
          "type": "address"
        }
      ],
      "name": "initUpgradeEscrow",
      "outputs": [
        {
          "internalType": "bool",
          "name": "",
          "type": "bool"
        }
      ],
      "payable": false,
      "stateMutability": "nonpayable",
      "type": "function"
    },
    {
      "constant": true,
      "inputs": [],
      "name": "isEndowmentUpgradabe",
      "outputs": [
        {
          "internalType": "bool",
          "name": "",
          "type": "bool"
        }
      ],
      "payable": false,
      "stateMutability": "view",
      "type": "function"
    }
  ],
  "bytecode": "0x6080604052336000806101000a81548173ffffffffffffffffffffffffffffffffffffffff021916908373ffffffffffffffffffffffffffffffffffffffff160217905550615eca806100536000396000f3fe6080604052600436106101d85760003560e01c806397107d6d11610102578063d665a71711610095578063ec55688911610064578063ec55688914610a11578063ed2f634314610a68578063f1d4be1014610ab9578063f2fde38b14610b08576101d8565b8063d665a717146108d1578063dd1ba84614610916578063e2fdcc171461097f578063ea87605b146109d6576101d8565b8063b1be6469116100d1578063b1be646914610758578063b3962bdc146107af578063b49c0ebe146107f5578063ca2a18861461085e576101d8565b806397107d6d1461060f5780639ebf616a146106605780639f2bba7e146106d6578063a3b3bd7b14610701576101d8565b80635d06fc011161017a5780636f982900116101495780636f9829001461052b57806375899135146105665780638129fc1c146105a15780638da5cb5b146105b8576101d8565b80635d06fc011461039f5780635e37283b146103f65780635fe4d4f61461048557806363c0c46e146104d4576101d8565b806335dc0f5e116101b657806335dc0f5e146102c5578063379607f5146102cf578063392d5a00146102fd57806342db15891461032c576101d8565b8063168f1f57146101dd5780631fc751801461021857806328d0ab581461026f575b600080fd5b3480156101e957600080fd5b506102166004803603602081101561020057600080fd5b8101908080359060200190929190505050610b59565b005b34801561022457600080fd5b5061022d610eee565b604051808273ffffffffffffffffffffffffffffffffffffffff1673ffffffffffffffffffffffffffffffffffffffff16815260200191505060405180910390f35b34801561027b57600080fd5b506102a86004803603602081101561029257600080fd5b8101908080359060200190929190505050610f14565b604051808381526020018281526020019250505060405180910390f35b6102cd61110d565b005b6102fb600480360360208110156102e557600080fd5b8101908080359060200190929190505050611322565b005b34801561030957600080fd5b5061031261181a565b604051808215151515815260200191505060405180910390f35b34801561033857600080fd5b506103856004803603604081101561034f57600080fd5b81019080803573ffffffffffffffffffffffffffffffffffffffff16906020019092919080359060200190929190505050611889565b604051808215151515815260200191505060405180910390f35b3480156103ab57600080fd5b506103b4611b64565b604051808273ffffffffffffffffffffffffffffffffffffffff1673ffffffffffffffffffffffffffffffffffffffff16815260200191505060405180910390f35b34801561040257600080fd5b5061046f6004803603606081101561041957600080fd5b8101908080359060200190929190803573ffffffffffffffffffffffffffffffffffffffff169060200190929190803573ffffffffffffffffffffffffffffffffffffffff169060200190929190505050611b8a565b6040518082815260200191505060405180910390f35b34801561049157600080fd5b506104be600480360360208110156104a857600080fd5b8101908080359060200190929190505050611e11565b6040518082815260200191505060405180910390f35b3480156104e057600080fd5b506104e9611e29565b604051808273ffffffffffffffffffffffffffffffffffffffff1673ffffffffffffffffffffffffffffffffffffffff16815260200191505060405180910390f35b34801561053757600080fd5b506105646004803603602081101561054e57600080fd5b8101908080359060200190929190505050611e4f565b005b34801561057257600080fd5b5061059f6004803603602081101561058957600080fd5b8101908080359060200190929190505050612167565b005b3480156105ad57600080fd5b506105b66123d8565b005b3480156105c457600080fd5b506105cd612bd8565b604051808273ffffffffffffffffffffffffffffffffffffffff1673ffffffffffffffffffffffffffffffffffffffff16815260200191505060405180910390f35b34801561061b57600080fd5b5061065e6004803603602081101561063257600080fd5b81019080803573ffffffffffffffffffffffffffffffffffffffff169060200190929190505050612bfd565b005b34801561066c57600080fd5b506106b96004803603604081101561068357600080fd5b8101908080359060200190929190803573ffffffffffffffffffffffffffffffffffffffff169060200190929190505050612c97565b604051808381526020018281526020019250505060405180910390f35b3480156106e257600080fd5b506106eb6132c4565b6040518082815260200191505060405180910390f35b34801561070d57600080fd5b506107166132ca565b604051808273ffffffffffffffffffffffffffffffffffffffff1673ffffffffffffffffffffffffffffffffffffffff16815260200191505060405180910390f35b34801561076457600080fd5b5061076d6132f0565b604051808273ffffffffffffffffffffffffffffffffffffffff1673ffffffffffffffffffffffffffffffffffffffff16815260200191505060405180910390f35b6107db600480360360208110156107c557600080fd5b8101908080359060200190929190505050613316565b604051808215151515815260200191505060405180910390f35b34801561080157600080fd5b506108446004803603602081101561081857600080fd5b81019080803573ffffffffffffffffffffffffffffffffffffffff169060200190929190505050613653565b604051808215151515815260200191505060405180910390f35b34801561086a57600080fd5b506108b76004803603604081101561088157600080fd5b8101908080359060200190929190803573ffffffffffffffffffffffffffffffffffffffff169060200190929190505050613759565b604051808215151515815260200191505060405180910390f35b3480156108dd57600080fd5b50610914600480360360408110156108f457600080fd5b810190808035906020019092919080359060200190929190505050613867565b005b34801561092257600080fd5b506109656004803603602081101561093957600080fd5b81019080803573ffffffffffffffffffffffffffffffffffffffff169060200190929190505050613dfd565b604051808215151515815260200191505060405180910390f35b34801561098b57600080fd5b506109946144ff565b604051808273ffffffffffffffffffffffffffffffffffffffff1673ffffffffffffffffffffffffffffffffffffffff16815260200191505060405180910390f35b3480156109e257600080fd5b50610a0f600480360360208110156109f957600080fd5b8101908080359060200190929190505050614525565b005b348015610a1d57600080fd5b50610a266147d5565b604051808273ffffffffffffffffffffffffffffffffffffffff1673ffffffffffffffffffffffffffffffffffffffff16815260200191505060405180910390f35b348015610a7457600080fd5b50610ab760048036036020811015610a8b57600080fd5b81019080803573ffffffffffffffffffffffffffffffffffffffff1690602001909291905050506147fb565b005b348015610ac557600080fd5b50610af260048036036020811015610adc57600080fd5b810190808035906020019092919050505061499e565b6040518082815260200191505060405180910390f35b348015610b1457600080fd5b50610b5760048036036020811015610b2b57600080fd5b81019080803573ffffffffffffffffffffffffffffffffffffffff169060200190929190505050614cbf565b005b600073ffffffffffffffffffffffffffffffffffffffff163373ffffffffffffffffffffffffffffffffffffffff161415610b9057fe5b610bce6040518060400160405280600b81526020017f73757065725f61646d696e000000000000000000000000000000000000000000815250614d8d565b610c40576040517f08c379a00000000000000000000000000000000000000000000000000000000081526004018080602001828103825260108152602001807f4f6e6c792073757065722061646d696e0000000000000000000000000000000081525060200191505060405180910390fd5b60008111610c4d57600080fd5b600560009054906101000a900473ffffffffffffffffffffffffffffffffffffffff1673ffffffffffffffffffffffffffffffffffffffff1663a9059cbb600760009054906101000a900473ffffffffffffffffffffffffffffffffffffffff16836040518363ffffffff1660e01b8152600401808373ffffffffffffffffffffffffffffffffffffffff1673ffffffffffffffffffffffffffffffffffffffff16815260200182815260200192505050602060405180830381600087803b158015610d1857600080fd5b505af1158015610d2c573d6000803e3d6000fd5b505050506040513d6020811015610d4257600080fd5b8101908080519060200190929190505050610d5c57600080fd5b600460009054906101000a900473ffffffffffffffffffffffffffffffffffffffff1673ffffffffffffffffffffffffffffffffffffffff1663712153b3826000806040518463ffffffff1660e01b815260040180848152602001838152602001821515151581526020019350505050602060405180830381600087803b158015610de657600080fd5b505af1158015610dfa573d6000803e3d6000fd5b505050506040513d6020811015610e1057600080fd5b8101908080519060200190929190505050610e2a57600080fd5b7f93f900af773d323023f0ecf99deb1a5466a3f2445cf9c74f969fe7734583392a3082600760009054906101000a900473ffffffffffffffffffffffffffffffffffffffff16604051808473ffffffffffffffffffffffffffffffffffffffff1673ffffffffffffffffffffffffffffffffffffffff1681526020018381526020018273ffffffffffffffffffffffffffffffffffffffff1673ffffffffffffffffffffffffffffffffffffffff168152602001935050505060405180910390a150565b600360009054906101000a900473ffffffffffffffffffffffffffffffffffffffff1681565b600080600080600360009054906101000a900473ffffffffffffffffffffffffffffffffffffffff1673ffffffffffffffffffffffffffffffffffffffff1663525a8e4e866040518263ffffffff1660e01b815260040180828152602001915050604080518083038186803b158015610f8c57600080fd5b505afa158015610fa0573d6000803e3d6000fd5b505050506040513d6040811015610fb657600080fd5b81019080805190602001909291908051906020019092919050505091509150610fdd615e24565b600660009054906101000a900473ffffffffffffffffffffffffffffffffffffffff1673ffffffffffffffffffffffffffffffffffffffff16636991b5bf876040518263ffffffff1660e01b81526004018082815260200191505060a06040518083038186803b15801561105057600080fd5b505afa158015611064573d6000803e3d6000fd5b505050506040513d601f19601f8201168201806040525060a081101561108957600080fd5b810190809190505090506110ca60646110bc836004600581106110a857fe5b60200201518661500990919063ffffffff16565b61504090919063ffffffff16565b945061110360646110f5836004600581106110e157fe5b60200201518561500990919063ffffffff16565b61504090919063ffffffff16565b9350505050915091565b6000611117615059565b90506000341161112657600080fd5b600760009054906101000a900473ffffffffffffffffffffffffffffffffffffffff1673ffffffffffffffffffffffffffffffffffffffff166108fc349081150290604051600060405180830381858888f1935050505015801561118e573d6000803e3d6000fd5b50600460009054906101000a900473ffffffffffffffffffffffffffffffffffffffff1673ffffffffffffffffffffffffffffffffffffffff1663712153b360003460006040518463ffffffff1660e01b815260040180848152602001838152602001821515151581526020019350505050602060405180830381600087803b15801561121a57600080fd5b505af115801561122e573d6000803e3d6000fd5b505050506040513d602081101561124457600080fd5b810190808051906020019092919050505061125e57600080fd5b7f120bbc6058df2f75a9523df514b6e83e744fda1180dd8c135f2f5d0b1d15d2918134600760009054906101000a900473ffffffffffffffffffffffffffffffffffffffff16604051808473ffffffffffffffffffffffffffffffffffffffff1673ffffffffffffffffffffffffffffffffffffffff1681526020018381526020018273ffffffffffffffffffffffffffffffffffffffff1673ffffffffffffffffffffffffffffffffffffffff168152602001935050505060405180910390a150565b600061132c615059565b9050600080600460009054906101000a900473ffffffffffffffffffffffffffffffffffffffff1673ffffffffffffffffffffffffffffffffffffffff16636933bbd7856040518263ffffffff1660e01b815260040180828152602001915050604080518083038186803b1580156113a357600080fd5b505afa1580156113b7573d6000803e3d6000fd5b505050506040513d60408110156113cd57600080fd5b8101908080519060200190929190805190602001909291905050509150915081600560068111156113fa57fe5b1461146d576040517f08c379a00000000000000000000000000000000000000000000000000000000081526004018080602001828103825260208152602001807f486f6e6579706f7453746174652063616e206e6f7420626520636c61696d656481525060200191505060405180910390fd5b8042106114e2576040517f08c379a00000000000000000000000000000000000000000000000000000000081526004018080602001828103825260158152602001807f54696d6520746f20636c61696d206973206f766572000000000000000000000081525060200191505060405180910390fd5b6114ec8484613759565b1561155f576040517f08c379a000000000000000000000000000000000000000000000000000000000815260040180806020018281038252600f8152602001807f616c726561647920636c61696d6564000000000000000000000000000000000081525060200191505060405180910390fd5b60008061156c8686612c97565b91509150600460009054906101000a900473ffffffffffffffffffffffffffffffffffffffff1673ffffffffffffffffffffffffffffffffffffffff166350b1a7cd87838560016040518563ffffffff1660e01b81526004018085815260200184815260200183815260200182151515158152602001945050505050602060405180830381600087803b15801561160257600080fd5b505af1158015611616573d6000803e3d6000fd5b505050506040513d602081101561162c57600080fd5b810190808051906020019092919050505061164657600080fd5b600081111561165b57611659858261510e565b505b60008211156116705761166e858361530f565b505b600460009054906101000a900473ffffffffffffffffffffffffffffffffffffffff1673ffffffffffffffffffffffffffffffffffffffff16636213fc6d878785856040518563ffffffff1660e01b8152600401808581526020018473ffffffffffffffffffffffffffffffffffffffff1673ffffffffffffffffffffffffffffffffffffffff168152602001838152602001828152602001945050505050602060405180830381600087803b15801561172957600080fd5b505af115801561173d573d6000803e3d6000fd5b505050506040513d602081101561175357600080fd5b8101908080519060200190929190505050508473ffffffffffffffffffffffffffffffffffffffff16867f7a334ae1c9e2881845e23ce092ac3f1ccf16297abd45c43af5b4e6d8520d1cc68484600760009054906101000a900473ffffffffffffffffffffffffffffffffffffffff16604051808481526020018381526020018273ffffffffffffffffffffffffffffffffffffffff1673ffffffffffffffffffffffffffffffffffffffff168152602001935050505060405180910390a3505050505050565b60003073ffffffffffffffffffffffffffffffffffffffff16600760009054906101000a900473ffffffffffffffffffffffffffffffffffffffff1673ffffffffffffffffffffffffffffffffffffffff1673ffffffffffffffffffffffffffffffffffffffff161415905090565b6000600560009054906101000a900473ffffffffffffffffffffffffffffffffffffffff1673ffffffffffffffffffffffffffffffffffffffff166323b872dd84600760009054906101000a900473ffffffffffffffffffffffffffffffffffffffff16856040518463ffffffff1660e01b8152600401808473ffffffffffffffffffffffffffffffffffffffff1673ffffffffffffffffffffffffffffffffffffffff1681526020018373ffffffffffffffffffffffffffffffffffffffff1673ffffffffffffffffffffffffffffffffffffffff1681526020018281526020019350505050602060405180830381600087803b15801561198a57600080fd5b505af115801561199e573d6000803e3d6000fd5b505050506040513d60208110156119b457600080fd5b81019080805190602001909291905050506119d25760009050611b5e565b600460009054906101000a900473ffffffffffffffffffffffffffffffffffffffff1673ffffffffffffffffffffffffffffffffffffffff1663712153b3836000806040518463ffffffff1660e01b815260040180848152602001838152602001821515151581526020019350505050602060405180830381600087803b158015611a5c57600080fd5b505af1158015611a70573d6000803e3d6000fd5b505050506040513d6020811015611a8657600080fd5b8101908080519060200190929190505050507f93f900af773d323023f0ecf99deb1a5466a3f2445cf9c74f969fe7734583392a8383600760009054906101000a900473ffffffffffffffffffffffffffffffffffffffff16604051808473ffffffffffffffffffffffffffffffffffffffff1673ffffffffffffffffffffffffffffffffffffffff1681526020018381526020018273ffffffffffffffffffffffffffffffffffffffff1673ffffffffffffffffffffffffffffffffffffffff168152602001935050505060405180910390a1600190505b92915050565b600460009054906101000a900473ffffffffffffffffffffffffffffffffffffffff1681565b60008273ffffffffffffffffffffffffffffffffffffffff168273ffffffffffffffffffffffffffffffffffffffff161415611bc95760009050611e0a565b8273ffffffffffffffffffffffffffffffffffffffff16600660009054906101000a900473ffffffffffffffffffffffffffffffffffffffff1673ffffffffffffffffffffffffffffffffffffffff166316805a2986856040518363ffffffff1660e01b8152600401808381526020018273ffffffffffffffffffffffffffffffffffffffff1673ffffffffffffffffffffffffffffffffffffffff1681526020019250505060206040518083038186803b158015611c8757600080fd5b505afa158015611c9b573d6000803e3d6000fd5b505050506040513d6020811015611cb157600080fd5b810190808051906020019092919050505073ffffffffffffffffffffffffffffffffffffffff161415611ce75760019050611e0a565b8273ffffffffffffffffffffffffffffffffffffffff16600660009054906101000a900473ffffffffffffffffffffffffffffffffffffffff1673ffffffffffffffffffffffffffffffffffffffff16635f87206d86856040518363ffffffff1660e01b8152600401808381526020018273ffffffffffffffffffffffffffffffffffffffff1673ffffffffffffffffffffffffffffffffffffffff1681526020019250505060206040518083038186803b158015611da557600080fd5b505afa158015611db9573d6000803e3d6000fd5b505050506040513d6020811015611dcf57600080fd5b810190808051906020019092919050505073ffffffffffffffffffffffffffffffffffffffff161415611e055760029050611e0a565b600390505b9392505050565b60096020528060005260406000206000915090505481565b600560009054906101000a900473ffffffffffffffffffffffffffffffffffffffff1681565b600073ffffffffffffffffffffffffffffffffffffffff163373ffffffffffffffffffffffffffffffffffffffff161415611e8657fe5b611ec46040518060400160405280600b81526020017f73757065725f61646d696e000000000000000000000000000000000000000000815250614d8d565b611f36576040517f08c379a00000000000000000000000000000000000000000000000000000000081526004018080602001828103825260108152602001807f4f6e6c792073757065722061646d696e0000000000000000000000000000000081525060200191505060405180910390fd5b600080600460009054906101000a900473ffffffffffffffffffffffffffffffffffffffff1673ffffffffffffffffffffffffffffffffffffffff1663d6f20309846040518263ffffffff1660e01b815260040180828152602001915050604080518083038186803b158015611fab57600080fd5b505afa158015611fbf573d6000803e3d6000fd5b505050506040513d6040811015611fd557600080fd5b81019080805190602001909291908051906020019092919050505091509150600460009054906101000a900473ffffffffffffffffffffffffffffffffffffffff1673ffffffffffffffffffffffffffffffffffffffff1663712153b3838360006040518463ffffffff1660e01b815260040180848152602001838152602001821515151581526020019350505050602060405180830381600087803b15801561207e57600080fd5b505af1158015612092573d6000803e3d6000fd5b505050506040513d60208110156120a857600080fd5b81019080805190602001909291905050506120c257600080fd5b600460009054906101000a900473ffffffffffffffffffffffffffffffffffffffff1673ffffffffffffffffffffffffffffffffffffffff1663f89f07ce8460068081111561210d57fe5b6040518363ffffffff1660e01b81526004018083815260200182815260200192505050600060405180830381600087803b15801561214a57600080fd5b505af115801561215e573d6000803e3d6000fd5b50505050505050565b6040518060400160405280600781526020017f43726f6e4a6f62000000000000000000000000000000000000000000000000008152506121a681615510565b600080600460009054906101000a900473ffffffffffffffffffffffffffffffffffffffff1673ffffffffffffffffffffffffffffffffffffffff1663d6f20309856040518263ffffffff1660e01b815260040180828152602001915050604080518083038186803b15801561221b57600080fd5b505afa15801561222f573d6000803e3d6000fd5b505050506040513d604081101561224557600080fd5b81019080805190602001909291908051906020019092919050505091509150600460009054906101000a900473ffffffffffffffffffffffffffffffffffffffff1673ffffffffffffffffffffffffffffffffffffffff1663712153b3838360006040518463ffffffff1660e01b815260040180848152602001838152602001821515151581526020019350505050602060405180830381600087803b1580156122ee57600080fd5b505af1158015612302573d6000803e3d6000fd5b505050506040513d602081101561231857600080fd5b810190808051906020019092919050505061233257600080fd5b600460009054906101000a900473ffffffffffffffffffffffffffffffffffffffff1673ffffffffffffffffffffffffffffffffffffffff1663f89f07ce8560068081111561237d57fe5b6040518363ffffffff1660e01b81526004018083815260200182815260200192505050600060405180830381600087803b1580156123ba57600080fd5b505af11580156123ce573d6000803e3d6000fd5b5050505050505050565b6000809054906101000a900473ffffffffffffffffffffffffffffffffffffffff1673ffffffffffffffffffffffffffffffffffffffff163373ffffffffffffffffffffffffffffffffffffffff161461242e57fe5b600160009054906101000a900473ffffffffffffffffffffffffffffffffffffffff1673ffffffffffffffffffffffffffffffffffffffff1663358177736040518060400160405280600b81526020017f456e646f776d656e7444420000000000000000000000000000000000000000008152506040518263ffffffff1660e01b81526004018080602001828103825283818151815260200191508051906020019080838360005b838110156124f15780820151818401526020810190506124d6565b50505050905090810190601f16801561251e5780820380516001836020036101000a031916815260200191505b509250505060206040518083038186803b15801561253b57600080fd5b505afa15801561254f573d6000803e3d6000fd5b505050506040513d602081101561256557600080fd5b8101908080519060200190929190505050600460006101000a81548173ffffffffffffffffffffffffffffffffffffffff021916908373ffffffffffffffffffffffffffffffffffffffff160217905550600160009054906101000a900473ffffffffffffffffffffffffffffffffffffffff1673ffffffffffffffffffffffffffffffffffffffff1663358177736040518060400160405280600d81526020017f47616d65566172416e64466565000000000000000000000000000000000000008152506040518263ffffffff1660e01b81526004018080602001828103825283818151815260200191508051906020019080838360005b8381101561267957808201518184015260208101905061265e565b50505050905090810190601f1680156126a65780820380516001836020036101000a031916815260200191505b509250505060206040518083038186803b1580156126c357600080fd5b505afa1580156126d7573d6000803e3d6000fd5b505050506040513d60208110156126ed57600080fd5b8101908080519060200190929190505050600260006101000a81548173ffffffffffffffffffffffffffffffffffffffff021916908373ffffffffffffffffffffffffffffffffffffffff160217905550600160009054906101000a900473ffffffffffffffffffffffffffffffffffffffff1673ffffffffffffffffffffffffffffffffffffffff1663358177736040518060400160405280601081526020017f4b69747469654669676874546f6b656e000000000000000000000000000000008152506040518263ffffffff1660e01b81526004018080602001828103825283818151815260200191508051906020019080838360005b838110156128015780820151818401526020810190506127e6565b50505050905090810190601f16801561282e5780820380516001836020036101000a031916815260200191505b509250505060206040518083038186803b15801561284b57600080fd5b505afa15801561285f573d6000803e3d6000fd5b505050506040513d602081101561287557600080fd5b8101908080519060200190929190505050600560006101000a81548173ffffffffffffffffffffffffffffffffffffffff021916908373ffffffffffffffffffffffffffffffffffffffff160217905550600160009054906101000a900473ffffffffffffffffffffffffffffffffffffffff1673ffffffffffffffffffffffffffffffffffffffff1663358177736040518060400160405280600981526020017f47616d6553746f726500000000000000000000000000000000000000000000008152506040518263ffffffff1660e01b81526004018080602001828103825283818151815260200191508051906020019080838360005b8381101561298957808201518184015260208101905061296e565b50505050905090810190601f1680156129b65780820380516001836020036101000a031916815260200191505b509250505060206040518083038186803b1580156129d357600080fd5b505afa1580156129e7573d6000803e3d6000fd5b505050506040513d60208110156129fd57600080fd5b8101908080519060200190929190505050600660006101000a81548173ffffffffffffffffffffffffffffffffffffffff021916908373ffffffffffffffffffffffffffffffffffffffff160217905550600160009054906101000a900473ffffffffffffffffffffffffffffffffffffffff1673ffffffffffffffffffffffffffffffffffffffff1663358177736040518060400160405280600a81526020017f474d4765747465724442000000000000000000000000000000000000000000008152506040518263ffffffff1660e01b81526004018080602001828103825283818151815260200191508051906020019080838360005b83811015612b11578082015181840152602081019050612af6565b50505050905090810190601f168015612b3e5780820380516001836020036101000a031916815260200191505b509250505060206040518083038186803b158015612b5b57600080fd5b505afa158015612b6f573d6000803e3d6000fd5b505050506040513d6020811015612b8557600080fd5b8101908080519060200190929190505050600360006101000a81548173ffffffffffffffffffffffffffffffffffffffff021916908373ffffffffffffffffffffffffffffffffffffffff160217905550565b6000809054906101000a900473ffffffffffffffffffffffffffffffffffffffff1681565b6000809054906101000a900473ffffffffffffffffffffffffffffffffffffffff1673ffffffffffffffffffffffffffffffffffffffff163373ffffffffffffffffffffffffffffffffffffffff1614612c5357fe5b80600160006101000a81548173ffffffffffffffffffffffffffffffffffffffff021916908373ffffffffffffffffffffffffffffffffffffffff16021790555050565b600080612ca2615e46565b600360009054906101000a900473ffffffffffffffffffffffffffffffffffffffff1673ffffffffffffffffffffffffffffffffffffffff16636b1426a4866040518263ffffffff1660e01b81526004018082815260200191505060606040518083038186803b158015612d1557600080fd5b505afa158015612d29573d6000803e3d6000fd5b505050506040513d6060811015612d3f57600080fd5b8101908080519060200190929190805190602001909291908051906020019092919050505083600060038110612d7157fe5b6020020184600160038110612d8257fe5b6020020185600260038110612d9357fe5b602002018373ffffffffffffffffffffffffffffffffffffffff1673ffffffffffffffffffffffffffffffffffffffff168152508373ffffffffffffffffffffffffffffffffffffffff1673ffffffffffffffffffffffffffffffffffffffff168152508373ffffffffffffffffffffffffffffffffffffffff1673ffffffffffffffffffffffffffffffffffffffff16815250505050600073ffffffffffffffffffffffffffffffffffffffff1681600060038110612e4f57fe5b602002015173ffffffffffffffffffffffffffffffffffffffff161415612ede576040517f08c379a00000000000000000000000000000000000000000000000000000000081526004018080602001828103825260208152602001807f4e6f2077696e6e657220646574656374656420666f7220746869732067616d6581525060200191505060405180910390fd5b600080600360009054906101000a900473ffffffffffffffffffffffffffffffffffffffff1673ffffffffffffffffffffffffffffffffffffffff16630b154c9688886040518363ffffffff1660e01b8152600401808381526020018273ffffffffffffffffffffffffffffffffffffffff1673ffffffffffffffffffffffffffffffffffffffff1681526020019250505060806040518083038186803b158015612f8857600080fd5b505afa158015612f9c573d6000803e3d6000fd5b505050506040513d6080811015612fb257600080fd5b810190808051906020019092919080519060200190929190805190602001909291908051906020019092919050505050509150915082600060038110612ff457fe5b602002015173ffffffffffffffffffffffffffffffffffffffff168673ffffffffffffffffffffffffffffffffffffffff161415801561307157508260006003811061303c57fe5b602002015173ffffffffffffffffffffffffffffffffffffffff168173ffffffffffffffffffffffffffffffffffffffff1614155b1561308b57600080819150809050945094505050506132bd565b613093615e24565b600660009054906101000a900473ffffffffffffffffffffffffffffffffffffffff1673ffffffffffffffffffffffffffffffffffffffff16636991b5bf896040518263ffffffff1660e01b81526004018082815260200191505060a06040518083038186803b15801561310657600080fd5b505afa15801561311a573d6000803e3d6000fd5b505050506040513d601f19601f8201168201806040525060a081101561313f57600080fd5b81019080919050509050600061316789898760006003811061315d57fe5b6020020151611b8a565b9050600080600360009054906101000a900473ffffffffffffffffffffffffffffffffffffffff1673ffffffffffffffffffffffffffffffffffffffff1663525a8e4e8c6040518263ffffffff1660e01b815260040180828152602001915050604080518083038186803b1580156131de57600080fd5b505afa1580156131f2573d6000803e3d6000fd5b505050506040513d604081101561320857600080fd5b8101908080519060200190929190805190602001909291905050509150915061325d606461324f86866005811061323b57fe5b60200201518561500990919063ffffffff16565b61504090919063ffffffff16565b9850613295606461328786866005811061327357fe5b60200201518461500990919063ffffffff16565b61504090919063ffffffff16565b975060038314156132b5576132ac8989888e6157ab565b809950819a5050505b505050505050505b9250929050565b60085481565b600260009054906101000a900473ffffffffffffffffffffffffffffffffffffffff1681565b600660009054906101000a900473ffffffffffffffffffffffffffffffffffffffff1681565b60008073ffffffffffffffffffffffffffffffffffffffff16600760009054906101000a900473ffffffffffffffffffffffffffffffffffffffff1673ffffffffffffffffffffffffffffffffffffffff16141561337357600080fd5b600061337d615059565b90506000341161338c57600080fd5b600760009054906101000a900473ffffffffffffffffffffffffffffffffffffffff1673ffffffffffffffffffffffffffffffffffffffff166108fc349081150290604051600060405180830381858888f193505050506133f157600091505061364e565b600460009054906101000a900473ffffffffffffffffffffffffffffffffffffffff1673ffffffffffffffffffffffffffffffffffffffff166350b1a7cd8460003460006040518563ffffffff1660e01b81526004018085815260200184815260200183815260200182151515158152602001945050505050602060405180830381600087803b15801561348457600080fd5b505af1158015613498573d6000803e3d6000fd5b505050506040513d60208110156134ae57600080fd5b810190808051906020019092919050505050600460009054906101000a900473ffffffffffffffffffffffffffffffffffffffff1673ffffffffffffffffffffffffffffffffffffffff1663712153b360003460006040518463ffffffff1660e01b815260040180848152602001838152602001821515151581526020019350505050602060405180830381600087803b15801561354b57600080fd5b505af115801561355f573d6000803e3d6000fd5b505050506040513d602081101561357557600080fd5b8101908080519060200190929190505050507f120bbc6058df2f75a9523df514b6e83e744fda1180dd8c135f2f5d0b1d15d2918134600760009054906101000a900473ffffffffffffffffffffffffffffffffffffffff16604051808473ffffffffffffffffffffffffffffffffffffffff1673ffffffffffffffffffffffffffffffffffffffff1681526020018381526020018273ffffffffffffffffffffffffffffffffffffffff1673ffffffffffffffffffffffffffffffffffffffff168152602001935050505060405180910390a160019150505b919050565b60006040518060400160405280600b81526020017f47616d654d616e6167657200000000000000000000000000000000000000000081525061369481615510565b6000600260009054906101000a900473ffffffffffffffffffffffffffffffffffffffff1673ffffffffffffffffffffffffffffffffffffffff1663d693a9896040518163ffffffff1660e01b815260040160206040518083038186803b1580156136fe57600080fd5b505afa158015613712573d6000803e3d6000fd5b505050506040513d602081101561372857600080fd5b81019080805190602001909291905050509050613745848261510e565b61374e57600080fd5b600192505050919050565b6000806000600460009054906101000a900473ffffffffffffffffffffffffffffffffffffffff1673ffffffffffffffffffffffffffffffffffffffff1663231eb69186866040518363ffffffff1660e01b8152600401808381526020018273ffffffffffffffffffffffffffffffffffffffff1673ffffffffffffffffffffffffffffffffffffffff16815260200192505050604080518083038186803b15801561380457600080fd5b505afa158015613818573d6000803e3d6000fd5b505050506040513d604081101561382e57600080fd5b8101908080519060200190929190805190602001909291905050509150915060008211801561385d5750600081115b9250505092915050565b6040518060400160405280600b81526020017f47616d654d616e616765720000000000000000000000000000000000000000008152506138a681615510565b6000600560068111156138b557fe5b831415613d5a5761397c600660009054906101000a900473ffffffffffffffffffffffffffffffffffffffff1673ffffffffffffffffffffffffffffffffffffffff16630d1fd67a866040518263ffffffff1660e01b81526004018082815260200191505060206040518083038186803b15801561393257600080fd5b505afa158015613946573d6000803e3d6000fd5b505050506040513d602081101561395c57600080fd5b810190808051906020019092919050505042615df190919063ffffffff16565b90506000600160009054906101000a900473ffffffffffffffffffffffffffffffffffffffff1673ffffffffffffffffffffffffffffffffffffffff1663358177736040518060400160405280600781526020017f43726f6e4a6f62000000000000000000000000000000000000000000000000008152506040518263ffffffff1660e01b81526004018080602001828103825283818151815260200191508051906020019080838360005b83811015613a43578082015181840152602081019050613a28565b50505050905090810190601f168015613a705780820380516001836020036101000a031916815260200191505b509250505060206040518083038186803b158015613a8d57600080fd5b505afa158015613aa1573d6000803e3d6000fd5b505050506040513d6020811015613ab757600080fd5b8101908080519060200190929190505050905060008173ffffffffffffffffffffffffffffffffffffffff1663c19304966040518060400160405280600d81526020017f456e646f776d656e7446756e64000000000000000000000000000000000000008152508589604051602401808281526020019150506040516020818303038152906040527f75899135000000000000000000000000000000000000000000000000000000007bffffffffffffffffffffffffffffffffffffffffffffffffffffffff19166020820180517bffffffffffffffffffffffffffffffffffffffffffffffffffffffff83818316178352505050506040518463ffffffff1660e01b8152600401808060200184815260200180602001838103835286818151815260200191508051906020019080838360005b83811015613c06578082015181840152602081019050613beb565b50505050905090810190601f168015613c335780820380516001836020036101000a031916815260200191505b50838103825284818151815260200191508051906020019080838360005b83811015613c6c578082015181840152602081019050613c51565b50505050905090810190601f168015613c995780820380516001836020036101000a031916815260200191505b5095505050505050602060405180830381600087803b158015613cbb57600080fd5b505af1158015613ccf573d6000803e3d6000fd5b505050506040513d6020811015613ce557600080fd5b810190808051906020019092919050505090508060096000888152602001908152602001600020819055507fbdb3fa1032c10362fcfd2e3a7214b0e681d1a19640cdc58a12397eb72eadf0e681848860405180848152602001838152602001828152602001935050505060405180910390a150505b600460009054906101000a900473ffffffffffffffffffffffffffffffffffffffff1673ffffffffffffffffffffffffffffffffffffffff1663a297bbee8585846040518463ffffffff1660e01b8152600401808481526020018381526020018281526020019350505050600060405180830381600087803b158015613ddf57600080fd5b505af1158015613df3573d6000803e3d6000fd5b5050505050505050565b60008073ffffffffffffffffffffffffffffffffffffffff163373ffffffffffffffffffffffffffffffffffffffff161415613e3557fe5b613e736040518060400160405280600b81526020017f73757065725f61646d696e000000000000000000000000000000000000000000815250614d8d565b613ee5576040517f08c379a00000000000000000000000000000000000000000000000000000000081526004018080602001828103825260108152602001807f4f6e6c792073757065722061646d696e0000000000000000000000000000000081525060200191505060405180910390fd5b600073ffffffffffffffffffffffffffffffffffffffff168273ffffffffffffffffffffffffffffffffffffffff161415613f1f57600080fd5b8173ffffffffffffffffffffffffffffffffffffffff1663c4d66de8600560009054906101000a900473ffffffffffffffffffffffffffffffffffffffff166040518263ffffffff1660e01b8152600401808273ffffffffffffffffffffffffffffffffffffffff1673ffffffffffffffffffffffffffffffffffffffff168152602001915050600060405180830381600087803b158015613fc057600080fd5b505af1158015613fd4573d6000803e3d6000fd5b505050503073ffffffffffffffffffffffffffffffffffffffff168273ffffffffffffffffffffffffffffffffffffffff16638da5cb5b6040518163ffffffff1660e01b815260040160206040518083038186803b15801561403557600080fd5b505afa158015614049573d6000803e3d6000fd5b505050506040513d602081101561405f57600080fd5b810190808051906020019092919050505073ffffffffffffffffffffffffffffffffffffffff161461409057600080fd5b600073ffffffffffffffffffffffffffffffffffffffff168273ffffffffffffffffffffffffffffffffffffffff166397d7ce0a6040518163ffffffff1660e01b815260040160206040518083038186803b1580156140ee57600080fd5b505afa158015614102573d6000803e3d6000fd5b505050506040513d602081101561411857600080fd5b810190808051906020019092919050505073ffffffffffffffffffffffffffffffffffffffff16141561414a57600080fd5b600073ffffffffffffffffffffffffffffffffffffffff16600760009054906101000a900473ffffffffffffffffffffffffffffffffffffffff1673ffffffffffffffffffffffffffffffffffffffff16146144b557600760009054906101000a900473ffffffffffffffffffffffffffffffffffffffff1673ffffffffffffffffffffffffffffffffffffffff16637b1a490983600760009054906101000a900473ffffffffffffffffffffffffffffffffffffffff1673ffffffffffffffffffffffffffffffffffffffff16316040518363ffffffff1660e01b8152600401808373ffffffffffffffffffffffffffffffffffffffff1673ffffffffffffffffffffffffffffffffffffffff16815260200182815260200192505050602060405180830381600087803b15801561428257600080fd5b505af1158015614296573d6000803e3d6000fd5b505050506040513d60208110156142ac57600080fd5b81019080805190602001909291905050506142c657600080fd5b6000600560009054906101000a900473ffffffffffffffffffffffffffffffffffffffff1673ffffffffffffffffffffffffffffffffffffffff166370a08231600760009054906101000a900473ffffffffffffffffffffffffffffffffffffffff166040518263ffffffff1660e01b8152600401808273ffffffffffffffffffffffffffffffffffffffff1673ffffffffffffffffffffffffffffffffffffffff16815260200191505060206040518083038186803b15801561438957600080fd5b505afa15801561439d573d6000803e3d6000fd5b505050506040513d60208110156143b357600080fd5b81019080805190602001909291905050509050600760009054906101000a900473ffffffffffffffffffffffffffffffffffffffff1673ffffffffffffffffffffffffffffffffffffffff1663430951bd84836040518363ffffffff1660e01b8152600401808373ffffffffffffffffffffffffffffffffffffffff1673ffffffffffffffffffffffffffffffffffffffff16815260200182815260200192505050602060405180830381600087803b15801561446f57600080fd5b505af1158015614483573d6000803e3d6000fd5b505050506040513d602081101561449957600080fd5b81019080805190602001909291905050506144b357600080fd5b505b81600760006101000a81548173ffffffffffffffffffffffffffffffffffffffff021916908373ffffffffffffffffffffffffffffffffffffffff16021790555060019050919050565b600760009054906101000a900473ffffffffffffffffffffffffffffffffffffffff1681565b6040518060400160405280600b81526020017f456e646f776d656e74444200000000000000000000000000000000000000000081525061456481615510565b6000600160009054906101000a900473ffffffffffffffffffffffffffffffffffffffff1673ffffffffffffffffffffffffffffffffffffffff1663358177736040518060400160405280600781526020017f43726f6e4a6f62000000000000000000000000000000000000000000000000008152506040518263ffffffff1660e01b81526004018080602001828103825283818151815260200191508051906020019080838360005b8381101561462957808201518184015260208101905061460e565b50505050905090810190601f1680156146565780820380516001836020036101000a031916815260200191505b509250505060206040518083038186803b15801561467357600080fd5b505afa158015614687573d6000803e3d6000fd5b505050506040513d602081101561469d57600080fd5b810190808051906020019092919050505090508073ffffffffffffffffffffffffffffffffffffffff16639d8f101f6040518060400160405280600d81526020017f456e646f776d656e7446756e640000000000000000000000000000000000000081525060096000878152602001908152602001600020546040518363ffffffff1660e01b81526004018080602001838152602001828103825284818151815260200191508051906020019080838360005b8381101561476b578082015181840152602081019050614750565b50505050905090810190601f1680156147985780820380516001836020036101000a031916815260200191505b509350505050600060405180830381600087803b1580156147b857600080fd5b505af11580156147cc573d6000803e3d6000fd5b50505050505050565b600160009054906101000a900473ffffffffffffffffffffffffffffffffffffffff1681565b600073ffffffffffffffffffffffffffffffffffffffff163373ffffffffffffffffffffffffffffffffffffffff16141561483257fe5b6148706040518060400160405280600b81526020017f73757065725f61646d696e000000000000000000000000000000000000000000815250614d8d565b6148e2576040517f08c379a00000000000000000000000000000000000000000000000000000000081526004018080602001828103825260108152602001807f4f6e6c792073757065722061646d696e0000000000000000000000000000000081525060200191505060405180910390fd5b600760009054906101000a900473ffffffffffffffffffffffffffffffffffffffff1673ffffffffffffffffffffffffffffffffffffffff1663f2fde38b826040518263ffffffff1660e01b8152600401808273ffffffffffffffffffffffffffffffffffffffff1673ffffffffffffffffffffffffffffffffffffffff168152602001915050600060405180830381600087803b15801561498357600080fd5b505af1158015614997573d6000803e3d6000fd5b5050505050565b60006040518060400160405280600c81526020017f47616d654372656174696f6e00000000000000000000000000000000000000008152506149df81615510565b6000600260009054906101000a900473ffffffffffffffffffffffffffffffffffffffff1673ffffffffffffffffffffffffffffffffffffffff16632341678a6040518163ffffffff1660e01b815260040160206040518083038186803b158015614a4957600080fd5b505afa158015614a5d573d6000803e3d6000fd5b505050506040513d6020811015614a7357600080fd5b810190808051906020019092919050505090506000600260009054906101000a900473ffffffffffffffffffffffffffffffffffffffff1673ffffffffffffffffffffffffffffffffffffffff166394ec12fd6040518163ffffffff1660e01b815260040160206040518083038186803b158015614af057600080fd5b505afa158015614b04573d6000803e3d6000fd5b505050506040513d6020811015614b1a57600080fd5b81019080805190602001909291905050509050600460009054906101000a900473ffffffffffffffffffffffffffffffffffffffff1673ffffffffffffffffffffffffffffffffffffffff1663eeea322a8660006006811115614b7957fe5b4286866040518663ffffffff1660e01b81526004018086815260200185815260200184815260200183815260200182815260200195505050505050600060405180830381600087803b158015614bce57600080fd5b505af1158015614be2573d6000803e3d6000fd5b50505050600460009054906101000a900473ffffffffffffffffffffffffffffffffffffffff1673ffffffffffffffffffffffffffffffffffffffff1663712153b3838360016040518463ffffffff1660e01b815260040180848152602001838152602001821515151581526020019350505050602060405180830381600087803b158015614c7057600080fd5b505af1158015614c84573d6000803e3d6000fd5b505050506040513d6020811015614c9a57600080fd5b8101908080519060200190929190505050614cb457600080fd5b809350505050919050565b6000809054906101000a900473ffffffffffffffffffffffffffffffffffffffff1673ffffffffffffffffffffffffffffffffffffffff163373ffffffffffffffffffffffffffffffffffffffff1614614d1557fe5b600073ffffffffffffffffffffffffffffffffffffffff168173ffffffffffffffffffffffffffffffffffffffff1614614d8a57806000806101000a81548173ffffffffffffffffffffffffffffffffffffffff021916908373ffffffffffffffffffffffffffffffffffffffff1602179055505b50565b6000600160009054906101000a900473ffffffffffffffffffffffffffffffffffffffff1673ffffffffffffffffffffffffffffffffffffffff1663358177736040518060400160405280600681526020017f526f6c65444200000000000000000000000000000000000000000000000000008152506040518263ffffffff1660e01b81526004018080602001828103825283818151815260200191508051906020019080838360005b83811015614e52578082015181840152602081019050614e37565b50505050905090810190601f168015614e7f5780820380516001836020036101000a031916815260200191505b509250505060206040518083038186803b158015614e9c57600080fd5b505afa158015614eb0573d6000803e3d6000fd5b505050506040513d6020811015614ec657600080fd5b810190808051906020019092919050505073ffffffffffffffffffffffffffffffffffffffff16636c9cd09783614efb615059565b6040518363ffffffff1660e01b815260040180806020018373ffffffffffffffffffffffffffffffffffffffff1673ffffffffffffffffffffffffffffffffffffffff168152602001828103825284818151815260200191508051906020019080838360005b83811015614f7c578082015181840152602081019050614f61565b50505050905090810190601f168015614fa95780820380516001836020036101000a031916815260200191505b50935050505060206040518083038186803b158015614fc757600080fd5b505afa158015614fdb573d6000803e3d6000fd5b505050506040513d6020811015614ff157600080fd5b81019080805190602001909291905050509050919050565b60008083141561501c576000905061503a565b600082840290508284828161502d57fe5b041461503557fe5b809150505b92915050565b60008082848161504c57fe5b0490508091505092915050565b6000600160009054906101000a900473ffffffffffffffffffffffffffffffffffffffff1673ffffffffffffffffffffffffffffffffffffffff163373ffffffffffffffffffffffffffffffffffffffff16146150b85733905061510b565b6000601436036000602052601481602c37602051915050600073ffffffffffffffffffffffffffffffffffffffff168173ffffffffffffffffffffffffffffffffffffffff16141561510657fe5b809150505b90565b60008073ffffffffffffffffffffffffffffffffffffffff168373ffffffffffffffffffffffffffffffffffffffff16141561514957600080fd5b600760009054906101000a900473ffffffffffffffffffffffffffffffffffffffff1673ffffffffffffffffffffffffffffffffffffffff1663430951bd84846040518363ffffffff1660e01b8152600401808373ffffffffffffffffffffffffffffffffffffffff1673ffffffffffffffffffffffffffffffffffffffff16815260200182815260200192505050602060405180830381600087803b1580156151f257600080fd5b505af1158015615206573d6000803e3d6000fd5b505050506040513d602081101561521c57600080fd5b810190808051906020019092919050505061523657600080fd5b600460009054906101000a900473ffffffffffffffffffffffffffffffffffffffff1673ffffffffffffffffffffffffffffffffffffffff1663712153b383600060016040518463ffffffff1660e01b815260040180848152602001838152602001821515151581526020019350505050602060405180830381600087803b1580156152c157600080fd5b505af11580156152d5573d6000803e3d6000fd5b505050506040513d60208110156152eb57600080fd5b810190808051906020019092919050505061530557600080fd5b6001905092915050565b60008073ffffffffffffffffffffffffffffffffffffffff168373ffffffffffffffffffffffffffffffffffffffff16141561534a57600080fd5b600760009054906101000a900473ffffffffffffffffffffffffffffffffffffffff1673ffffffffffffffffffffffffffffffffffffffff16637b1a490984846040518363ffffffff1660e01b8152600401808373ffffffffffffffffffffffffffffffffffffffff1673ffffffffffffffffffffffffffffffffffffffff16815260200182815260200192505050602060405180830381600087803b1580156153f357600080fd5b505af1158015615407573d6000803e3d6000fd5b505050506040513d602081101561541d57600080fd5b810190808051906020019092919050505061543757600080fd5b600460009054906101000a900473ffffffffffffffffffffffffffffffffffffffff1673ffffffffffffffffffffffffffffffffffffffff1663712153b360008460016040518463ffffffff1660e01b815260040180848152602001838152602001821515151581526020019350505050602060405180830381600087803b1580156154c257600080fd5b505af11580156154d6573d6000803e3d6000fd5b505050506040513d60208110156154ec57600080fd5b810190808051906020019092919050505061550657600080fd5b6001905092915050565b600073ffffffffffffffffffffffffffffffffffffffff16600160009054906101000a900473ffffffffffffffffffffffffffffffffffffffff1673ffffffffffffffffffffffffffffffffffffffff1614156155d5576040517f08c379a00000000000000000000000000000000000000000000000000000000081526004018080602001828103825260088152602001807f4e6f2050726f787900000000000000000000000000000000000000000000000081525060200191505060405180910390fd5b6000600160009054906101000a900473ffffffffffffffffffffffffffffffffffffffff1673ffffffffffffffffffffffffffffffffffffffff166335817773836040518263ffffffff1660e01b81526004018080602001828103825283818151815260200191508051906020019080838360005b8381101561566557808201518184015260208101905061564a565b50505050905090810190601f1680156156925780820380516001836020036101000a031916815260200191505b509250505060206040518083038186803b1580156156af57600080fd5b505afa1580156156c3573d6000803e3d6000fd5b505050506040513d60208110156156d957600080fd5b81019080805190602001909291905050509050600073ffffffffffffffffffffffffffffffffffffffff168173ffffffffffffffffffffffffffffffffffffffff16141561572357fe5b8073ffffffffffffffffffffffffffffffffffffffff163373ffffffffffffffffffffffffffffffffffffffff16146157a7576040517f08c379a000000000000000000000000000000000000000000000000000000000815260040180806020018281038252602d815260200180615e69602d913960400191505060405180910390fd5b5050565b6000806157b6615e46565b600360009054906101000a900473ffffffffffffffffffffffffffffffffffffffff1673ffffffffffffffffffffffffffffffffffffffff16636b1426a4856040518263ffffffff1660e01b81526004018082815260200191505060606040518083038186803b15801561582957600080fd5b505afa15801561583d573d6000803e3d6000fd5b505050506040513d606081101561585357600080fd5b810190808051906020019092919080519060200190929190805190602001909291905050508360006003811061588557fe5b602002018460016003811061589657fe5b60200201856002600381106158a757fe5b602002018373ffffffffffffffffffffffffffffffffffffffff1673ffffffffffffffffffffffffffffffffffffffff168152508373ffffffffffffffffffffffffffffffffffffffff1673ffffffffffffffffffffffffffffffffffffffff168152508373ffffffffffffffffffffffffffffffffffffffff1673ffffffffffffffffffffffffffffffffffffffff168152505050506000600360009054906101000a900473ffffffffffffffffffffffffffffffffffffffff1673ffffffffffffffffffffffffffffffffffffffff16630b154c96868460016003811061598c57fe5b60200201516040518363ffffffff1660e01b8152600401808381526020018273ffffffffffffffffffffffffffffffffffffffff1673ffffffffffffffffffffffffffffffffffffffff1681526020019250505060806040518083038186803b1580156159f857600080fd5b505afa158015615a0c573d6000803e3d6000fd5b505050506040513d6080811015615a2257600080fd5b810190808051906020019092919080519060200190929190805190602001909291908051906020019092919050505050505090506000600360009054906101000a900473ffffffffffffffffffffffffffffffffffffffff1673ffffffffffffffffffffffffffffffffffffffff16630b154c968785600260038110615aa457fe5b60200201516040518363ffffffff1660e01b8152600401808381526020018273ffffffffffffffffffffffffffffffffffffffff1673ffffffffffffffffffffffffffffffffffffffff1681526020019250505060806040518083038186803b158015615b1057600080fd5b505afa158015615b24573d6000803e3d6000fd5b505050506040513d6080811015615b3a57600080fd5b810190808051906020019092919080519060200190929190805190602001909291908051906020019092919050505050505090506000600360009054906101000a900473ffffffffffffffffffffffffffffffffffffffff1673ffffffffffffffffffffffffffffffffffffffff1663dd99717d8886600060038110615bbc57fe5b60200201516040518363ffffffff1660e01b8152600401808381526020018273ffffffffffffffffffffffffffffffffffffffff1673ffffffffffffffffffffffffffffffffffffffff1681526020019250505060206040518083038186803b158015615c2857600080fd5b505afa158015615c3c573d6000803e3d6000fd5b505050506040513d6020811015615c5257600080fd5b810190808051906020019092919050505090506000600360009054906101000a900473ffffffffffffffffffffffffffffffffffffffff1673ffffffffffffffffffffffffffffffffffffffff1663bacf524e8987600060038110615cb357fe5b60200201516040518363ffffffff1660e01b8152600401808381526020018273ffffffffffffffffffffffffffffffffffffffff1673ffffffffffffffffffffffffffffffffffffffff1681526020019250505060206040518083038186803b158015615d1f57600080fd5b505afa158015615d33573d6000803e3d6000fd5b505050506040513d6020811015615d4957600080fd5b81019080805190602001909291905050509050615d9382615d8585615d778886615e0d90919063ffffffff16565b615e0d90919063ffffffff16565b615e0d90919063ffffffff16565b9050615dba81615dac8b8e61500990919063ffffffff16565b61504090919063ffffffff16565b615ddf82615dd18c8e61500990919063ffffffff16565b61504090919063ffffffff16565b96509650505050505094509492505050565b600080828401905083811015615e0357fe5b8091505092915050565b600082821115615e1957fe5b818303905092915050565b6040518060a00160405280600590602082028038833980820191505090505090565b604051806060016040528060039060208202803883398082019150509050509056fe416363657373206973206f6e6c7920616c6c6f7765642066726f6d20737065636966696320636f6e7472616374a265627a7a72315820d6c59d2e157935c5b7c330c07bc6292ed76e1b76edbfed63cf68cfe8ae6a01e864736f6c634300050b0032",
  "source": "/**\r\n * @title EndowmentFund\r\n */\r\n//\r\n// This program is free software: you can redistribute it and/or modify\r\n// it under the terms of the GNU General Public License as published by\r\n// the Free Software Foundation, either version 3 of the License, or\r\n// (at your option) any later version.\r\n\r\n// This program is distributed in the hope that it will be useful,\r\n// but WITHOUT ANY WARRANTY; without even the implied warranty of\r\n// MERCHANTABILITY or FITNESS FOR A PARTICULAR PURPOSE.  See the\r\n// GNU General Public License for more details.\r\n\r\n// You should have received a copy of the GNU General Public License\r\n// along with this program.  If not, see <http://www.gnu.org/licenses/>.\r\n\r\npragma solidity ^0.5.5;\r\n\r\nimport \"../proxy/Proxied.sol\";\r\nimport \"../../authority/Guard.sol\";\r\nimport \"./Distribution.sol\";\r\n\r\n/**\r\n * @title EndowmentFund\r\n * @dev Responsible for : manage funds\r\n * @author @vikrammndal @wafflemakr @Xaleee\r\n */\r\n\r\ncontract EndowmentFund is Distribution, Guard {\r\n    using SafeMath for uint256;\r\n\r\n    Escrow public escrow;\r\n\r\n    event WinnerClaimed(uint indexed gameId, address indexed winner, uint256 ethAmount, uint256 ktyAmount, address from);\r\n    event SentKTYtoEscrow(address sender, uint256 ktyAmount, address receiver);\r\n    event SentETHtoEscrow(address sender, uint256 ethAmount, address receiver);\r\n    event Scheduled(uint256 scheduledJob, uint256 time, uint256 gameId);\r\n\r\n    /// @notice  the count of all invocations of `generatePotId`.\r\n    uint256 public potRequestCount;\r\n    mapping (uint => uint) public scheduledJobs;\r\n\r\n    enum HoneypotState {\r\n        created,\r\n        assigned,\r\n        gameScheduled,\r\n        gameStarted,\r\n        forefeited,\r\n        claiming,\r\n        dissolved\r\n    }\r\n\r\n    /**\r\n    * @dev check if enough funds present and maintains balance of tokens in DB\r\n    */\r\n    function generateHoneyPot(uint256 gameId)\r\n        external\r\n        onlyContract(CONTRACT_NAME_GAMECREATION)\r\n        returns (uint) {\r\n\r\n        uint ktyAllocated = gameVarAndFee.getTokensPerGame();\r\n        uint ethAllocated = gameVarAndFee.getEthPerGame();\r\n\r\n        // + adds amount to honeypot\r\n        endowmentDB.createHoneypot(\r\n            gameId,\r\n            uint(HoneypotState.created),\r\n            now,\r\n            ktyAllocated,\r\n            ethAllocated\r\n        );\r\n\r\n        // deduct amount from endowment\r\n        require(endowmentDB.updateEndowmentFund(ktyAllocated, ethAllocated, true));\r\n\r\n    return (ethAllocated);\r\n    }\r\n\r\n    /**\r\n    * @dev winner claims\r\n    */\r\n    function claim(uint256 _gameId) external payable {\r\n        address payable msgSender = address(uint160(getOriginalSender()));\r\n\r\n        // Honeypot status\r\n        (uint status, uint256 claimTime) = endowmentDB.getHoneypotState(_gameId);\r\n\r\n        require(uint(HoneypotState.claiming) == status, \"HoneypotState can not be claimed\");\r\n\r\n        require(now < claimTime, \"Time to claim is over\");\r\n\r\n        require(!getWithdrawalState(_gameId, msgSender), \"already claimed\");\r\n\r\n        (uint256 winningsETH, uint256 winningsKTY) = getWinnerShare(_gameId, msgSender);\r\n\r\n        // make sure enough funds in HoneyPot and update HoneyPot balance\r\n        require(endowmentDB.updateHoneyPotFund(_gameId, winningsKTY, winningsETH, true));\r\n\r\n        if (winningsKTY > 0){\r\n            transferKTYfromEscrow(msgSender, winningsKTY);\r\n        }\r\n\r\n        if (winningsETH > 0){\r\n            transferETHfromEscrow(msgSender, winningsETH);\r\n        }\r\n\r\n        // log tokens sent to an address\r\n        endowmentDB.setTotalDebit(_gameId, msgSender, winningsETH, winningsKTY);\r\n\r\n        emit WinnerClaimed(_gameId, msgSender, winningsETH, winningsKTY, address(escrow));\r\n    }\r\n\r\n    /**\r\n    * @dev send reward to the user that pressed finalize button\r\n    */\r\n    function sendFinalizeRewards(address user)\r\n        external\r\n        onlyContract(CONTRACT_NAME_GAMEMANAGER)\r\n        returns(bool)\r\n    {\r\n        uint reward = gameVarAndFee.getFinalizeRewards();\r\n        require(transferKTYfromEscrow(address(uint160(user)), reward));\r\n        return true;\r\n    }\r\n\r\n    function getWithdrawalState(uint _gameId, address _account) public view returns (bool) {        \r\n        (uint256 totalETHdebited, uint256 totalKTYdebited) = endowmentDB.getTotalDebit(_gameId, _account);\r\n        return ((totalETHdebited > 0) && (totalKTYdebited > 0)); // since payout is in full not in parts\r\n    }\r\n\r\n    /**\r\n    * @dev updateHoneyPotState\r\n    */\r\n    function updateHoneyPotState(uint256 _gameId, uint _state) public onlyContract(CONTRACT_NAME_GAMEMANAGER) {\r\n        uint256 claimTime;\r\n        if (_state == uint(HoneypotState.claiming)){\r\n\r\n            claimTime = now.add(gameStore.getHoneypotExpiration(_gameId));\r\n\r\n            //add to cron: schedule desolve of HoneyPot\r\n            CronJob cron = CronJob(proxy.getContract(CONTRACT_NAME_CRONJOB));\r\n            uint256 scheduledJob = cron.addCronJob(\r\n                                            CONTRACT_NAME_ENDOWMENT_FUND,\r\n                                            claimTime,\r\n                                            abi.encodeWithSignature(\"scheduleDissolve(uint256)\", _gameId)\r\n                                            );\r\n            scheduledJobs[_gameId] = scheduledJob;\r\n            emit Scheduled(scheduledJob, claimTime, _gameId);\r\n        }\r\n        endowmentDB.setHoneypotState(_gameId, _state, claimTime);\r\n    }\r\n\r\n    function deleteCronJob(uint _gameId)\r\n        external\r\n        onlyContract(CONTRACT_NAME_ENDOWMENT_DB)\r\n    {\r\n       CronJob cron = CronJob(proxy.getContract(CONTRACT_NAME_CRONJOB));\r\n       cron.deleteCronJob(CONTRACT_NAME_ENDOWMENT_FUND, scheduledJobs[_gameId]);\r\n    }\r\n\r\n    /**\r\n    * @dev added to cronjob : schedule Honey pot dissolve\r\n    */\r\n    function scheduleDissolve(uint256 _gameId)\r\n        external\r\n        onlyContract(CONTRACT_NAME_CRONJOB)\r\n    {\r\n\r\n        // move left over funds from honey pot to endowment\r\n        (uint256 honeyPotBalanceKTY, uint256 honeyPotBalanceETH) = endowmentDB.getHoneyPotBalance(_gameId);\r\n\r\n        // update endowmentFund\r\n        require(endowmentDB.updateEndowmentFund(honeyPotBalanceKTY, honeyPotBalanceETH, false));\r\n\r\n        // change state to dissolved\r\n        endowmentDB.dissolveHoneypot(_gameId, uint(HoneypotState.dissolved));\r\n\r\n    }\r\n\r\n    function dissolveTest(uint256 _gameId)\r\n        public\r\n        onlySuperAdmin\r\n    {\r\n\r\n        // move left over funds from honey pot to endowment\r\n        (uint256 honeyPotBalanceKTY, uint256 honeyPotBalanceETH) = endowmentDB.getHoneyPotBalance(_gameId);\r\n\r\n        // update endowmentFund\r\n        require(endowmentDB.updateEndowmentFund(honeyPotBalanceKTY, honeyPotBalanceETH, false));\r\n\r\n        // change state to dissolved\r\n        endowmentDB.dissolveHoneypot(_gameId, uint(HoneypotState.dissolved));\r\n\r\n    }\r\n\r\n\r\n    /**\r\n     * @dev Send KTY from EndowmentFund to Escrow\r\n     */\r\n    function sendKTYtoEscrow(uint256 _kty_amount)\r\n        external\r\n        onlySuperAdmin\r\n    {\r\n\r\n        require(_kty_amount > 0);\r\n\r\n        require(kittieFightToken.transfer(address(escrow), _kty_amount));\r\n\r\n        require(endowmentDB.updateEndowmentFund(_kty_amount, 0, false));\r\n\r\n        emit SentKTYtoEscrow(address(this), _kty_amount, address(escrow));\r\n    }\r\n\r\n    /**\r\n     * @dev Send eth to Escrow\r\n     */\r\n    function sendETHtoEscrow() external payable {\r\n        address msgSender = getOriginalSender();\r\n\r\n        /* not very essential\r\n        require(address(escrow) != address(0),\r\n            \"Error: escrow not initialized\");\r\n        */\r\n\r\n        require(msg.value > 0);\r\n\r\n        address(escrow).transfer(msg.value);\r\n\r\n        require(endowmentDB.updateEndowmentFund(0, msg.value, false));\r\n\r\n        emit SentETHtoEscrow(msgSender, msg.value, address(escrow));\r\n    }\r\n\r\n    /**\r\n     * @dev accepts KTY. KTY is transfered to in escrow\r\n     */\r\n    function contributeKTY(address _sender, uint256 _kty_amount) external returns(bool) {\r\n\r\n        //require(address(escrow) != address(0), \"escrow not initialized\"); //  not very essential\r\n\r\n        // do transfer of KTY\r\n        if (!kittieFightToken.transferFrom(_sender, address(escrow), _kty_amount)){\r\n            return false;\r\n        }\r\n\r\n        endowmentDB.updateEndowmentFund(_kty_amount, 0, false);\r\n\r\n        emit SentKTYtoEscrow(_sender, _kty_amount, address(escrow));\r\n\r\n        return true;\r\n    }\r\n\r\n    /**\r\n     * @dev GM calls\r\n     */\r\n    function contributeETH(uint _gameId) external payable returns(bool) {\r\n        require(address(escrow) != address(0));\r\n        address msgSender = getOriginalSender();\r\n\r\n        require(msg.value > 0);\r\n\r\n        // transfer ETH to Escrow\r\n        if (!address(escrow).send(msg.value)){\r\n            return false;\r\n        }\r\n\r\n        endowmentDB.updateHoneyPotFund(_gameId, 0, msg.value, false);\r\n        endowmentDB.updateEndowmentFund(0, msg.value, false);\r\n\r\n        emit SentETHtoEscrow(msgSender, msg.value, address(escrow));\r\n\r\n        return true;\r\n    }\r\n\r\n    /**\r\n    * @notice MUST BE DONE BEFORE UPGRADING ENDOWMENT AS IT IS THE OWNER\r\n    * @dev change Escrow contract owner before UPGRADING ENDOWMENT AS IT IS THE OWNER\r\n    */\r\n    function transferEscrowOwnership(address payable _newOwner) external onlySuperAdmin {\r\n        escrow.transferOwnership(_newOwner);\r\n    }\r\n\r\n    /**\r\n    * @dev transfer Escrow ETH funds\r\n    */\r\n    function transferETHfromEscrow(address payable _someAddress, uint256 _eth_amount)\r\n    private\r\n    returns(bool){\r\n        require(address(_someAddress) != address(0));\r\n\r\n        // transfer the ETH\r\n        require(escrow.transferETH(_someAddress, _eth_amount));\r\n\r\n        // Update DB. true = deductFunds\r\n        require(endowmentDB.updateEndowmentFund(0, _eth_amount, true));\r\n\r\n        return true;\r\n    }\r\n\r\n    /**\r\n    * @dev transfer Escrow KFT funds\r\n    */\r\n    function transferKTYfromEscrow(address payable _someAddress, uint256 _kty_amount)\r\n    private\r\n    returns(bool){\r\n        require(address(_someAddress) != address(0));\r\n\r\n        // transfer the KTY\r\n        require(escrow.transferKTY(_someAddress, _kty_amount));\r\n\r\n        // Update DB. true = deductFunds\r\n        require(endowmentDB.updateEndowmentFund(_kty_amount, 0, true));\r\n\r\n        return true;\r\n    }\r\n\r\n    /**\r\n    * @dev Initialize or Upgrade Escrow\r\n    * @notice BEFORE CALLING: Deploy escrow contract and set the owner as EndowmentFund contract\r\n    */\r\n    function initUpgradeEscrow(Escrow _newEscrow) external onlySuperAdmin returns(bool){\r\n\r\n        require(address(_newEscrow) != address(0));\r\n        _newEscrow.initialize(kittieFightToken);\r\n\r\n        // check ownership\r\n        require(_newEscrow.owner() == address(this));\r\n\r\n        // KTY is set\r\n        require(_newEscrow.getKTYaddress() != address(0));\r\n\r\n        if (address(escrow) != address(0)){ // Transfer if any funds\r\n\r\n            // transfer all the ETH\r\n            require(escrow.transferETH(address(_newEscrow), address(escrow).balance));\r\n\r\n            // transfer all the KTY\r\n            uint256 ktyBalance = kittieFightToken.balanceOf(address(escrow));\r\n            require(escrow.transferKTY(address(_newEscrow), ktyBalance));\r\n\r\n        }\r\n\r\n        escrow = _newEscrow;\r\n        return true;\r\n    }\r\n\r\n\r\n    /**\r\n     * @dev Do not upgrade Endowment if owner of escrow is still this contract's address\r\n     * Steps:\r\n     * deploy new Endowment\r\n     * set owner of escrow to new Endowment adrress using endowment.transferEscrowOwnership(new Endowment adrress)\r\n     * than set the new Endowment adrress in proxy\r\n     */\r\n    function isEndowmentUpgradabe() public view returns(bool){\r\n        return (address(escrow.owner) != address(this));\r\n    }\r\n    \r\n\r\n}\r\n\r\n",
  "sourcePath": "C:\\Users\\Alex\\Desktop\\Upwork\\alpha\\contracts\\modules\\endowment\\EndowmentFund.sol",
  "compiler": {
    "name": "solc",
    "version": "0.5.11+commit.c082d0b4.Emscripten.clang"
  },
  "schemaVersion": "3.0.11",
  "updatedAt": "2019-09-15T17:40:41.664Z",
  "devdoc": {
    "author": "@vikrammndal @wafflemakr @Xaleee\r",
    "details": "Responsible for : manage funds\r",
    "methods": {
      "claim(uint256)": {
        "details": "winner claims\r"
      },
      "contributeETH(uint256)": {
        "details": "GM calls\r"
      },
      "contributeKTY(address,uint256)": {
        "details": "accepts KTY. KTY is transfered to in escrow\r"
      },
      "generateHoneyPot(uint256)": {
        "details": "check if enough funds present and maintains balance of tokens in DB\r"
      },
      "initUpgradeEscrow(address)": {
        "details": "Initialize or Upgrade Escrow\r"
      },
      "initialize()": {
        "details": "Sets related contracts\rCan be called only by the owner of this contract\r"
      },
      "isEndowmentUpgradabe()": {
        "details": "Do not upgrade Endowment if owner of escrow is still this contract's address\r Steps:\r deploy new Endowment\r set owner of escrow to new Endowment adrress using endowment.transferEscrowOwnership(new Endowment adrress)\r than set the new Endowment adrress in proxy\r"
      },
      "scheduleDissolve(uint256)": {
        "details": "added to cronjob : schedule Honey pot dissolve\r"
      },
      "sendETHtoEscrow()": {
        "details": "Send eth to Escrow\r"
      },
      "sendFinalizeRewards(address)": {
        "details": "send reward to the user that pressed finalize button\r"
      },
      "sendKTYtoEscrow(uint256)": {
        "details": "Send KTY from EndowmentFund to Escrow\r"
      },
      "transferEscrowOwnership(address)": {
        "details": "change Escrow contract owner before UPGRADING ENDOWMENT AS IT IS THE OWNER\r"
      },
      "updateHoneyPotState(uint256,uint256)": {
        "details": "updateHoneyPotState\r"
      }
    },
    "title": "EndowmentFund\r"
  },
  "userdoc": {
    "methods": {
      "getWinnerShare(uint256,address)": {
        "notice": "Calculates amount of Eth the winner can claim\r"
      },
      "initUpgradeEscrow(address)": {
        "notice": "BEFORE CALLING: Deploy escrow contract and set the owner as EndowmentFund contract\r"
      },
      "setProxy(address)": {
        "notice": "Set/update address of Proxy contract\r"
      },
      "transferEscrowOwnership(address)": {
        "notice": "MUST BE DONE BEFORE UPGRADING ENDOWMENT AS IT IS THE OWNER\r"
      }
    }
  }
}