{
  "contractName": "EndowmentTestable",
  "abi": [
    {
      "constant": true,
      "inputs": [],
      "name": "counter",
      "outputs": [
        {
          "name": "",
          "type": "uint256"
        }
      ],
      "payable": false,
      "stateMutability": "view",
      "type": "function"
    },
    {
      "constant": false,
      "inputs": [],
      "name": "increment",
      "outputs": [
        {
          "name": "",
          "type": "bool"
        }
      ],
      "payable": false,
      "stateMutability": "nonpayable",
      "type": "function"
    }
  ],
  "bytecode": "0x608060405234801561001057600080fd5b5060c88061001f6000396000f3fe6080604052348015600f57600080fd5b506004361060325760003560e01c806361bc221a146037578063d09de08a146053575b600080fd5b603d6073565b6040518082815260200191505060405180910390f35b60596079565b604051808215151515815260200191505060405180910390f35b60005481565b60008060008154809291906001019190505550600190509056fea265627a7a723058202a20466fc6517f617005b33f0b80998bb3d24cc7b0183f886133ffb570265d6564736f6c634300050a0032",
  "source": "pragma solidity ^0.5.5;\n\ncontract EndowmentTestable {\n    uint public counter;\n\n    function increment() public returns(bool) {\n        counter++;\n        return true;\n    }\n}\n",
  "sourcePath": "/home/wafflemakr/Desktop/KittieFight/alpha/contracts/EndowmentTestable.sol",
  "compiler": {
    "name": "solc",
    "version": "0.5.10+commit.5a6ea5b1.Emscripten.clang"
  },
  "schemaVersion": "3.0.11",
  "updatedAt": "2019-08-11T04:27:28.449Z",
  "devdoc": {
    "methods": {}
  },
  "userdoc": {
    "methods": {}
  }
}