{
  "contractName": "EndowmentFund",
  "abi": [
    {
      "anonymous": false,
      "inputs": [
        {
          "indexed": false,
          "internalType": "uint256",
          "name": "scheduledJob",
          "type": "uint256"
        },
        {
          "indexed": false,
          "internalType": "uint256",
          "name": "time",
          "type": "uint256"
        },
        {
          "indexed": false,
          "internalType": "uint256",
          "name": "gameId",
          "type": "uint256"
        }
      ],
      "name": "Scheduled",
      "type": "event"
    },
    {
      "anonymous": false,
      "inputs": [
        {
          "indexed": false,
          "internalType": "address",
          "name": "sender",
          "type": "address"
        },
        {
          "indexed": false,
          "internalType": "uint256",
          "name": "ethAmount",
          "type": "uint256"
        },
        {
          "indexed": false,
          "internalType": "address",
          "name": "receiver",
          "type": "address"
        }
      ],
      "name": "SentETHtoEscrow",
      "type": "event"
    },
    {
      "anonymous": false,
      "inputs": [
        {
          "indexed": false,
          "internalType": "address",
          "name": "sender",
          "type": "address"
        },
        {
          "indexed": false,
          "internalType": "uint256",
          "name": "ktyAmount",
          "type": "uint256"
        },
        {
          "indexed": false,
          "internalType": "address",
          "name": "receiver",
          "type": "address"
        }
      ],
      "name": "SentKTYtoEscrow",
      "type": "event"
    },
    {
      "anonymous": false,
      "inputs": [
        {
          "indexed": true,
          "internalType": "uint256",
          "name": "gameId",
          "type": "uint256"
        },
        {
          "indexed": true,
          "internalType": "address",
          "name": "winner",
          "type": "address"
        },
        {
          "indexed": false,
          "internalType": "uint256",
          "name": "ethAmount",
          "type": "uint256"
        },
        {
          "indexed": false,
          "internalType": "uint256",
          "name": "ktyAmount",
          "type": "uint256"
        },
        {
          "indexed": false,
          "internalType": "address",
          "name": "from",
          "type": "address"
        }
      ],
      "name": "WinnerClaimed",
      "type": "event"
    },
    {
      "constant": true,
      "inputs": [
        {
          "internalType": "uint256",
          "name": "gameId",
          "type": "uint256"
        },
        {
          "internalType": "address payable",
          "name": "claimer",
          "type": "address"
        },
        {
          "internalType": "address",
          "name": "winner",
          "type": "address"
        }
      ],
      "name": "checkWinnerCategory",
      "outputs": [
        {
          "internalType": "uint256",
          "name": "winningGroup",
          "type": "uint256"
        }
      ],
      "payable": false,
      "stateMutability": "view",
      "type": "function"
    },
    {
      "constant": true,
      "inputs": [],
      "name": "endowmentDB",
      "outputs": [
        {
          "internalType": "contract EndowmentDB",
          "name": "",
          "type": "address"
        }
      ],
      "payable": false,
      "stateMutability": "view",
      "type": "function"
    },
    {
      "constant": true,
      "inputs": [],
      "name": "escrow",
      "outputs": [
        {
          "internalType": "contract Escrow",
          "name": "",
          "type": "address"
        }
      ],
      "payable": false,
      "stateMutability": "view",
      "type": "function"
    },
    {
      "constant": true,
      "inputs": [],
      "name": "gameStore",
      "outputs": [
        {
          "internalType": "contract GameStore",
          "name": "",
          "type": "address"
        }
      ],
      "payable": false,
      "stateMutability": "view",
      "type": "function"
    },
    {
      "constant": true,
      "inputs": [],
      "name": "gameVarAndFee",
      "outputs": [
        {
          "internalType": "contract GameVarAndFee",
          "name": "",
          "type": "address"
        }
      ],
      "payable": false,
      "stateMutability": "view",
      "type": "function"
    },
    {
      "constant": true,
      "inputs": [
        {
          "internalType": "uint256",
          "name": "gameId",
          "type": "uint256"
        }
      ],
      "name": "getEndowmentShare",
      "outputs": [
        {
          "internalType": "uint256",
          "name": "winningsETH",
          "type": "uint256"
        },
        {
          "internalType": "uint256",
          "name": "winningsKTY",
          "type": "uint256"
        }
      ],
      "payable": false,
      "stateMutability": "view",
      "type": "function"
    },
    {
      "constant": true,
      "inputs": [
        {
          "internalType": "uint256",
          "name": "gameId",
          "type": "uint256"
        }
      ],
      "name": "getWinnerLoser",
      "outputs": [
        {
          "internalType": "address",
          "name": "winner",
          "type": "address"
        },
        {
          "internalType": "address",
          "name": "loser",
          "type": "address"
        },
        {
          "internalType": "uint256",
          "name": "totalBetsForLosingCorner",
          "type": "uint256"
        }
      ],
      "payable": false,
      "stateMutability": "view",
      "type": "function"
    },
    {
      "constant": true,
      "inputs": [
        {
          "internalType": "uint256",
          "name": "gameId",
          "type": "uint256"
        },
        {
          "internalType": "address payable",
          "name": "claimer",
          "type": "address"
        }
      ],
      "name": "getWinnerShare",
      "outputs": [
        {
          "internalType": "uint256",
          "name": "winningsETH",
          "type": "uint256"
        },
        {
          "internalType": "uint256",
          "name": "winningsKTY",
          "type": "uint256"
        }
      ],
      "payable": false,
      "stateMutability": "view",
      "type": "function"
    },
    {
      "constant": true,
      "inputs": [],
      "name": "gmGetterDB",
      "outputs": [
        {
          "internalType": "contract GMGetterDB",
          "name": "",
          "type": "address"
        }
      ],
      "payable": false,
      "stateMutability": "view",
      "type": "function"
    },
    {
      "constant": false,
      "inputs": [],
      "name": "initialize",
      "outputs": [],
      "payable": false,
      "stateMutability": "nonpayable",
      "type": "function"
    },
    {
      "constant": true,
      "inputs": [],
      "name": "kittieFightToken",
      "outputs": [
        {
          "internalType": "contract ERC20Standard",
          "name": "",
          "type": "address"
        }
      ],
      "payable": false,
      "stateMutability": "view",
      "type": "function"
    },
    {
      "constant": true,
      "inputs": [],
      "name": "owner",
      "outputs": [
        {
          "internalType": "address payable",
          "name": "",
          "type": "address"
        }
      ],
      "payable": false,
      "stateMutability": "view",
      "type": "function"
    },
    {
      "constant": true,
      "inputs": [],
      "name": "potRequestCount",
      "outputs": [
        {
          "internalType": "uint256",
          "name": "",
          "type": "uint256"
        }
      ],
      "payable": false,
      "stateMutability": "view",
      "type": "function"
    },
    {
      "constant": true,
      "inputs": [],
      "name": "proxy",
      "outputs": [
        {
          "internalType": "contract ProxyBase",
          "name": "",
          "type": "address"
        }
      ],
      "payable": false,
      "stateMutability": "view",
      "type": "function"
    },
    {
      "constant": true,
      "inputs": [
        {
          "internalType": "uint256",
          "name": "",
          "type": "uint256"
        }
      ],
      "name": "scheduledJobs",
      "outputs": [
        {
          "internalType": "uint256",
          "name": "",
          "type": "uint256"
        }
      ],
      "payable": false,
      "stateMutability": "view",
      "type": "function"
    },
    {
      "constant": false,
      "inputs": [
        {
          "internalType": "contract ProxyBase",
          "name": "_proxy",
          "type": "address"
        }
      ],
      "name": "setProxy",
      "outputs": [],
      "payable": false,
      "stateMutability": "nonpayable",
      "type": "function"
    },
    {
      "constant": false,
      "inputs": [
        {
          "internalType": "address payable",
          "name": "newOwner",
          "type": "address"
        }
      ],
      "name": "transferOwnership",
      "outputs": [],
      "payable": false,
      "stateMutability": "nonpayable",
      "type": "function"
    },
    {
      "constant": false,
      "inputs": [
        {
          "internalType": "uint256",
          "name": "gameId",
          "type": "uint256"
        }
      ],
      "name": "generateHoneyPot",
      "outputs": [
        {
          "internalType": "uint256",
          "name": "",
          "type": "uint256"
        },
        {
          "internalType": "uint256",
          "name": "",
          "type": "uint256"
        }
      ],
      "payable": false,
      "stateMutability": "nonpayable",
      "type": "function"
    },
    {
      "constant": false,
      "inputs": [
        {
          "internalType": "uint256",
          "name": "_gameId",
          "type": "uint256"
        }
      ],
      "name": "claim",
      "outputs": [],
      "payable": true,
      "stateMutability": "payable",
      "type": "function"
    },
    {
      "constant": false,
      "inputs": [
        {
          "internalType": "address",
          "name": "user",
          "type": "address"
        }
      ],
      "name": "sendFinalizeRewards",
      "outputs": [
        {
          "internalType": "bool",
          "name": "",
          "type": "bool"
        }
      ],
      "payable": false,
      "stateMutability": "nonpayable",
      "type": "function"
    },
    {
      "constant": true,
      "inputs": [
        {
          "internalType": "uint256",
          "name": "_gameId",
          "type": "uint256"
        },
        {
          "internalType": "address",
          "name": "_account",
          "type": "address"
        }
      ],
      "name": "getWithdrawalState",
      "outputs": [
        {
          "internalType": "bool",
          "name": "",
          "type": "bool"
        }
      ],
      "payable": false,
      "stateMutability": "view",
      "type": "function"
    },
    {
      "constant": false,
      "inputs": [
        {
          "internalType": "uint256",
          "name": "_gameId",
          "type": "uint256"
        },
        {
          "internalType": "uint256",
          "name": "_state",
          "type": "uint256"
        }
      ],
      "name": "updateHoneyPotState",
      "outputs": [],
      "payable": false,
      "stateMutability": "nonpayable",
      "type": "function"
    },
    {
      "constant": false,
      "inputs": [
        {
          "internalType": "uint256",
          "name": "_gameId",
          "type": "uint256"
        }
      ],
      "name": "deleteCronJob",
      "outputs": [],
      "payable": false,
      "stateMutability": "nonpayable",
      "type": "function"
    },
    {
      "constant": false,
      "inputs": [
        {
          "internalType": "uint256",
          "name": "_gameId",
          "type": "uint256"
        }
      ],
      "name": "scheduleDissolve",
      "outputs": [],
      "payable": false,
      "stateMutability": "nonpayable",
      "type": "function"
    },
    {
      "constant": false,
      "inputs": [
        {
          "internalType": "uint256",
          "name": "_kty_amount",
          "type": "uint256"
        }
      ],
      "name": "sendKTYtoEscrow",
      "outputs": [],
      "payable": false,
      "stateMutability": "nonpayable",
      "type": "function"
    },
    {
      "constant": false,
      "inputs": [],
      "name": "sendETHtoEscrow",
      "outputs": [],
      "payable": true,
      "stateMutability": "payable",
      "type": "function"
    },
    {
      "constant": false,
      "inputs": [
        {
          "internalType": "address",
          "name": "_sender",
          "type": "address"
        },
        {
          "internalType": "uint256",
          "name": "_kty_amount",
          "type": "uint256"
        }
      ],
      "name": "contributeKTY",
      "outputs": [
        {
          "internalType": "bool",
          "name": "",
          "type": "bool"
        }
      ],
      "payable": false,
      "stateMutability": "nonpayable",
      "type": "function"
    },
    {
      "constant": false,
      "inputs": [
        {
          "internalType": "uint256",
          "name": "_gameId",
          "type": "uint256"
        }
      ],
      "name": "contributeETH",
      "outputs": [
        {
          "internalType": "bool",
          "name": "",
          "type": "bool"
        }
      ],
      "payable": true,
      "stateMutability": "payable",
      "type": "function"
    },
    {
      "constant": false,
      "inputs": [
        {
          "internalType": "address payable",
          "name": "_newOwner",
          "type": "address"
        }
      ],
      "name": "transferEscrowOwnership",
      "outputs": [],
      "payable": false,
      "stateMutability": "nonpayable",
      "type": "function"
    },
    {
      "constant": false,
      "inputs": [
        {
          "internalType": "address payable",
          "name": "_someAddress",
          "type": "address"
        },
        {
          "internalType": "uint256",
          "name": "_eth_amount",
          "type": "uint256"
        }
      ],
      "name": "transferETHfromEscrowWithdrawalPool",
      "outputs": [
        {
          "internalType": "bool",
          "name": "",
          "type": "bool"
        }
      ],
      "payable": false,
      "stateMutability": "nonpayable",
      "type": "function"
    },
    {
      "constant": false,
      "inputs": [
        {
          "internalType": "address payable",
          "name": "_someAddress",
          "type": "address"
        },
        {
          "internalType": "uint256",
          "name": "_eth_amount",
          "type": "uint256"
        }
      ],
      "name": "transferETHfromEscrowEarningsTracker",
      "outputs": [
        {
          "internalType": "bool",
          "name": "",
          "type": "bool"
        }
      ],
      "payable": false,
      "stateMutability": "nonpayable",
      "type": "function"
    },
    {
      "constant": false,
      "inputs": [
        {
          "internalType": "contract Escrow",
          "name": "_newEscrow",
          "type": "address"
        }
      ],
      "name": "initUpgradeEscrow",
      "outputs": [
        {
          "internalType": "bool",
          "name": "",
          "type": "bool"
        }
      ],
      "payable": false,
      "stateMutability": "nonpayable",
      "type": "function"
    },
    {
      "constant": true,
      "inputs": [],
      "name": "isEndowmentUpgradabe",
      "outputs": [
        {
          "internalType": "bool",
          "name": "",
          "type": "bool"
        }
      ],
      "payable": false,
      "stateMutability": "view",
      "type": "function"
    }
  ],
  "bytecode": "0x6080604052336000806101000a81548173ffffffffffffffffffffffffffffffffffffffff021916908373ffffffffffffffffffffffffffffffffffffffff160217905550615ece806100536000396000f3fe6080604052600436106101ee5760003560e01c806397107d6d1161010d578063d665a717116100a0578063ec5568891161006f578063ec55688914610b14578063ed2f634314610b6b578063f1d4be1014610bbc578063f2fde38b14610c12578063ff622bda14610c63576101ee565b8063d665a717146109d4578063dd1ba84614610a19578063e2fdcc1714610a82578063ea87605b14610ad9576101ee565b8063b1be6469116100dc578063b1be64691461085b578063b3962bdc146108b2578063b49c0ebe146108f8578063ca2a188614610961576101ee565b806397107d6d146107125780639ebf616a146107635780639f2bba7e146107d9578063a3b3bd7b14610804576101ee565b806342db15891161018557806363c0c46e1161015457806363c0c46e1461061257806375899135146106695780638129fc1c146106a45780638da5cb5b146106bb576101ee565b806342db15891461046a5780635d06fc01146104dd5780635e37283b146105345780635fe4d4f6146105c3576101ee565b806335dc0f5e116101c157806335dc0f5e1461034e578063379607f514610358578063392d5a0014610386578063400cbf6d146103b5576101ee565b8063168f1f57146101f357806318abc6681461022e5780631fc75180146102a157806328d0ab58146102f8575b600080fd5b3480156101ff57600080fd5b5061022c6004803603602081101561021657600080fd5b8101908080359060200190929190505050610cd6565b005b34801561023a57600080fd5b506102876004803603604081101561025157600080fd5b81019080803573ffffffffffffffffffffffffffffffffffffffff1690602001909291908035906020019092919050505061106b565b604051808215151515815260200191505060405180910390f35b3480156102ad57600080fd5b506102b66110c2565b604051808273ffffffffffffffffffffffffffffffffffffffff1673ffffffffffffffffffffffffffffffffffffffff16815260200191505060405180910390f35b34801561030457600080fd5b506103316004803603602081101561031b57600080fd5b81019080803590602001909291905050506110e8565b604051808381526020018281526020019250505060405180910390f35b610356611406565b005b6103846004803603602081101561036e57600080fd5b810190808035906020019092919050505061161b565b005b34801561039257600080fd5b5061039b611b13565b604051808215151515815260200191505060405180910390f35b3480156103c157600080fd5b506103ee600480360360208110156103d857600080fd5b8101908080359060200190929190505050611b82565b604051808473ffffffffffffffffffffffffffffffffffffffff1673ffffffffffffffffffffffffffffffffffffffff1681526020018373ffffffffffffffffffffffffffffffffffffffff1673ffffffffffffffffffffffffffffffffffffffff168152602001828152602001935050505060405180910390f35b34801561047657600080fd5b506104c36004803603604081101561048d57600080fd5b81019080803573ffffffffffffffffffffffffffffffffffffffff16906020019092919080359060200190929190505050611e1f565b604051808215151515815260200191505060405180910390f35b3480156104e957600080fd5b506104f26120fa565b604051808273ffffffffffffffffffffffffffffffffffffffff1673ffffffffffffffffffffffffffffffffffffffff16815260200191505060405180910390f35b34801561054057600080fd5b506105ad6004803603606081101561055757600080fd5b8101908080359060200190929190803573ffffffffffffffffffffffffffffffffffffffff169060200190929190803573ffffffffffffffffffffffffffffffffffffffff169060200190929190505050612120565b6040518082815260200191505060405180910390f35b3480156105cf57600080fd5b506105fc600480360360208110156105e657600080fd5b81019080803590602001909291905050506123a7565b6040518082815260200191505060405180910390f35b34801561061e57600080fd5b506106276123bf565b604051808273ffffffffffffffffffffffffffffffffffffffff1673ffffffffffffffffffffffffffffffffffffffff16815260200191505060405180910390f35b34801561067557600080fd5b506106a26004803603602081101561068c57600080fd5b81019080803590602001909291905050506123e5565b005b3480156106b057600080fd5b506106b9612656565b005b3480156106c757600080fd5b506106d0612e56565b604051808273ffffffffffffffffffffffffffffffffffffffff1673ffffffffffffffffffffffffffffffffffffffff16815260200191505060405180910390f35b34801561071e57600080fd5b506107616004803603602081101561073557600080fd5b81019080803573ffffffffffffffffffffffffffffffffffffffff169060200190929190505050612e7b565b005b34801561076f57600080fd5b506107bc6004803603604081101561078657600080fd5b8101908080359060200190929190803573ffffffffffffffffffffffffffffffffffffffff169060200190929190505050612f15565b604051808381526020018281526020019250505060405180910390f35b3480156107e557600080fd5b506107ee613238565b6040518082815260200191505060405180910390f35b34801561081057600080fd5b5061081961323e565b604051808273ffffffffffffffffffffffffffffffffffffffff1673ffffffffffffffffffffffffffffffffffffffff16815260200191505060405180910390f35b34801561086757600080fd5b50610870613264565b604051808273ffffffffffffffffffffffffffffffffffffffff1673ffffffffffffffffffffffffffffffffffffffff16815260200191505060405180910390f35b6108de600480360360208110156108c857600080fd5b810190808035906020019092919050505061328a565b604051808215151515815260200191505060405180910390f35b34801561090457600080fd5b506109476004803603602081101561091b57600080fd5b81019080803573ffffffffffffffffffffffffffffffffffffffff1690602001909291905050506135c7565b604051808215151515815260200191505060405180910390f35b34801561096d57600080fd5b506109ba6004803603604081101561098457600080fd5b8101908080359060200190929190803573ffffffffffffffffffffffffffffffffffffffff1690602001909291905050506136cd565b604051808215151515815260200191505060405180910390f35b3480156109e057600080fd5b50610a17600480360360408110156109f757600080fd5b8101908080359060200190929190803590602001909291905050506137db565b005b348015610a2557600080fd5b50610a6860048036036020811015610a3c57600080fd5b81019080803573ffffffffffffffffffffffffffffffffffffffff169060200190929190505050613d71565b604051808215151515815260200191505060405180910390f35b348015610a8e57600080fd5b50610a97614473565b604051808273ffffffffffffffffffffffffffffffffffffffff1673ffffffffffffffffffffffffffffffffffffffff16815260200191505060405180910390f35b348015610ae557600080fd5b50610b1260048036036020811015610afc57600080fd5b8101908080359060200190929190505050614499565b005b348015610b2057600080fd5b50610b29614749565b604051808273ffffffffffffffffffffffffffffffffffffffff1673ffffffffffffffffffffffffffffffffffffffff16815260200191505060405180910390f35b348015610b7757600080fd5b50610bba60048036036020811015610b8e57600080fd5b81019080803573ffffffffffffffffffffffffffffffffffffffff16906020019092919050505061476f565b005b348015610bc857600080fd5b50610bf560048036036020811015610bdf57600080fd5b8101908080359060200190929190505050614912565b604051808381526020018281526020019250505060405180910390f35b348015610c1e57600080fd5b50610c6160048036036020811015610c3557600080fd5b81019080803573ffffffffffffffffffffffffffffffffffffffff169060200190929190505050614a17565b005b348015610c6f57600080fd5b50610cbc60048036036040811015610c8657600080fd5b81019080803573ffffffffffffffffffffffffffffffffffffffff16906020019092919080359060200190929190505050614ae5565b604051808215151515815260200191505060405180910390f35b600073ffffffffffffffffffffffffffffffffffffffff163373ffffffffffffffffffffffffffffffffffffffff161415610d0d57fe5b610d4b6040518060400160405280600b81526020017f73757065725f61646d696e000000000000000000000000000000000000000000815250614b3c565b610dbd576040517f08c379a00000000000000000000000000000000000000000000000000000000081526004018080602001828103825260108152602001807f4f6e6c792073757065722061646d696e0000000000000000000000000000000081525060200191505060405180910390fd5b60008111610dca57600080fd5b600560009054906101000a900473ffffffffffffffffffffffffffffffffffffffff1673ffffffffffffffffffffffffffffffffffffffff1663a9059cbb600760009054906101000a900473ffffffffffffffffffffffffffffffffffffffff16836040518363ffffffff1660e01b8152600401808373ffffffffffffffffffffffffffffffffffffffff1673ffffffffffffffffffffffffffffffffffffffff16815260200182815260200192505050602060405180830381600087803b158015610e9557600080fd5b505af1158015610ea9573d6000803e3d6000fd5b505050506040513d6020811015610ebf57600080fd5b8101908080519060200190929190505050610ed957600080fd5b600460009054906101000a900473ffffffffffffffffffffffffffffffffffffffff1673ffffffffffffffffffffffffffffffffffffffff1663712153b3826000806040518463ffffffff1660e01b815260040180848152602001838152602001821515151581526020019350505050602060405180830381600087803b158015610f6357600080fd5b505af1158015610f77573d6000803e3d6000fd5b505050506040513d6020811015610f8d57600080fd5b8101908080519060200190929190505050610fa757600080fd5b7f93f900af773d323023f0ecf99deb1a5466a3f2445cf9c74f969fe7734583392a3082600760009054906101000a900473ffffffffffffffffffffffffffffffffffffffff16604051808473ffffffffffffffffffffffffffffffffffffffff1673ffffffffffffffffffffffffffffffffffffffff1681526020018381526020018273ffffffffffffffffffffffffffffffffffffffff1673ffffffffffffffffffffffffffffffffffffffff168152602001935050505060405180910390a150565b60006040518060400160405280600e81526020017f5769746864726177616c506f6f6c0000000000000000000000000000000000008152506110ac81614db8565b6110b68484615053565b50600191505092915050565b600360009054906101000a900473ffffffffffffffffffffffffffffffffffffffff1681565b6000806000600360009054906101000a900473ffffffffffffffffffffffffffffffffffffffff1673ffffffffffffffffffffffffffffffffffffffff1663525a8e4e856040518263ffffffff1660e01b815260040180828152602001915050604080518083038186803b15801561115f57600080fd5b505afa158015611173573d6000803e3d6000fd5b505050506040513d604081101561118957600080fd5b8101908080519060200190929190805190602001909291905050509150506111af615e28565b600660009054906101000a900473ffffffffffffffffffffffffffffffffffffffff1673ffffffffffffffffffffffffffffffffffffffff16636991b5bf866040518263ffffffff1660e01b81526004018082815260200191505060a06040518083038186803b15801561122257600080fd5b505afa158015611236573d6000803e3d6000fd5b505050506040513d601f19601f8201168201806040525060a081101561125b57600080fd5b810190809190505090506000600360009054906101000a900473ffffffffffffffffffffffffffffffffffffffff1673ffffffffffffffffffffffffffffffffffffffff1663589ac6a4876040518263ffffffff1660e01b8152600401808281526020019150506101006040518083038186803b1580156112db57600080fd5b505afa1580156112ef573d6000803e3d6000fd5b505050506040513d601f19601f8201168201806040525061010081101561131557600080fd5b810190808051906020019092919080519060200190929190805190602001909291908051906020019092919091908260400180519060200190929190805190602001909291905050505050505092505050600061137187611b82565b925050506113c06113b1620f42406113a38660046005811061138f57fe5b60200201518561525490919063ffffffff16565b61528b90919063ffffffff16565b836152a490919063ffffffff16565b95506113fb620f42406113ed856004600581106113d957fe5b60200201518761525490919063ffffffff16565b61528b90919063ffffffff16565b945050505050915091565b60006114106152c0565b90506000341161141f57600080fd5b600760009054906101000a900473ffffffffffffffffffffffffffffffffffffffff1673ffffffffffffffffffffffffffffffffffffffff166108fc349081150290604051600060405180830381858888f19350505050158015611487573d6000803e3d6000fd5b50600460009054906101000a900473ffffffffffffffffffffffffffffffffffffffff1673ffffffffffffffffffffffffffffffffffffffff1663712153b360003460006040518463ffffffff1660e01b815260040180848152602001838152602001821515151581526020019350505050602060405180830381600087803b15801561151357600080fd5b505af1158015611527573d6000803e3d6000fd5b505050506040513d602081101561153d57600080fd5b810190808051906020019092919050505061155757600080fd5b7f120bbc6058df2f75a9523df514b6e83e744fda1180dd8c135f2f5d0b1d15d2918134600760009054906101000a900473ffffffffffffffffffffffffffffffffffffffff16604051808473ffffffffffffffffffffffffffffffffffffffff1673ffffffffffffffffffffffffffffffffffffffff1681526020018381526020018273ffffffffffffffffffffffffffffffffffffffff1673ffffffffffffffffffffffffffffffffffffffff168152602001935050505060405180910390a150565b60006116256152c0565b9050600080600460009054906101000a900473ffffffffffffffffffffffffffffffffffffffff1673ffffffffffffffffffffffffffffffffffffffff16636933bbd7856040518263ffffffff1660e01b815260040180828152602001915050604080518083038186803b15801561169c57600080fd5b505afa1580156116b0573d6000803e3d6000fd5b505050506040513d60408110156116c657600080fd5b8101908080519060200190929190805190602001909291905050509150915081600560068111156116f357fe5b14611766576040517f08c379a00000000000000000000000000000000000000000000000000000000081526004018080602001828103825260018152602001807f310000000000000000000000000000000000000000000000000000000000000081525060200191505060405180910390fd5b8042106117db576040517f08c379a00000000000000000000000000000000000000000000000000000000081526004018080602001828103825260018152602001807f320000000000000000000000000000000000000000000000000000000000000081525060200191505060405180910390fd5b6117e584846136cd565b15611858576040517f08c379a00000000000000000000000000000000000000000000000000000000081526004018080602001828103825260018152602001807f330000000000000000000000000000000000000000000000000000000000000081525060200191505060405180910390fd5b6000806118658686612f15565b91509150600460009054906101000a900473ffffffffffffffffffffffffffffffffffffffff1673ffffffffffffffffffffffffffffffffffffffff166350b1a7cd87838560016040518563ffffffff1660e01b81526004018085815260200184815260200183815260200182151515158152602001945050505050602060405180830381600087803b1580156118fb57600080fd5b505af115801561190f573d6000803e3d6000fd5b505050506040513d602081101561192557600080fd5b810190808051906020019092919050505061193f57600080fd5b6000811115611954576119528582615375565b505b6000821115611969576119678583615053565b505b600460009054906101000a900473ffffffffffffffffffffffffffffffffffffffff1673ffffffffffffffffffffffffffffffffffffffff16636213fc6d878785856040518563ffffffff1660e01b8152600401808581526020018473ffffffffffffffffffffffffffffffffffffffff1673ffffffffffffffffffffffffffffffffffffffff168152602001838152602001828152602001945050505050602060405180830381600087803b158015611a2257600080fd5b505af1158015611a36573d6000803e3d6000fd5b505050506040513d6020811015611a4c57600080fd5b8101908080519060200190929190505050508473ffffffffffffffffffffffffffffffffffffffff16867f7a334ae1c9e2881845e23ce092ac3f1ccf16297abd45c43af5b4e6d8520d1cc68484600760009054906101000a900473ffffffffffffffffffffffffffffffffffffffff16604051808481526020018381526020018273ffffffffffffffffffffffffffffffffffffffff1673ffffffffffffffffffffffffffffffffffffffff168152602001935050505060405180910390a3505050505050565b60003073ffffffffffffffffffffffffffffffffffffffff16600760009054906101000a900473ffffffffffffffffffffffffffffffffffffffff1673ffffffffffffffffffffffffffffffffffffffff1673ffffffffffffffffffffffffffffffffffffffff161415905090565b6000806000600360009054906101000a900473ffffffffffffffffffffffffffffffffffffffff1673ffffffffffffffffffffffffffffffffffffffff16636b1426a4856040518263ffffffff1660e01b81526004018082815260200191505060606040518083038186803b158015611bfa57600080fd5b505afa158015611c0e573d6000803e3d6000fd5b505050506040513d6060811015611c2457600080fd5b8101908080519060200190929190805190602001909291908051906020019092919050505090505080935050600660009054906101000a900473ffffffffffffffffffffffffffffffffffffffff1673ffffffffffffffffffffffffffffffffffffffff166331fa706785856040518363ffffffff1660e01b8152600401808381526020018273ffffffffffffffffffffffffffffffffffffffff1673ffffffffffffffffffffffffffffffffffffffff1681526020019250505060206040518083038186803b158015611cf757600080fd5b505afa158015611d0b573d6000803e3d6000fd5b505050506040513d6020811015611d2157600080fd5b81019080805190602001909291905050509150600360009054906101000a900473ffffffffffffffffffffffffffffffffffffffff1673ffffffffffffffffffffffffffffffffffffffff1663bacf524e85846040518363ffffffff1660e01b8152600401808381526020018273ffffffffffffffffffffffffffffffffffffffff1673ffffffffffffffffffffffffffffffffffffffff1681526020019250505060206040518083038186803b158015611ddb57600080fd5b505afa158015611def573d6000803e3d6000fd5b505050506040513d6020811015611e0557600080fd5b810190808051906020019092919050505090509193909250565b6000600560009054906101000a900473ffffffffffffffffffffffffffffffffffffffff1673ffffffffffffffffffffffffffffffffffffffff166323b872dd84600760009054906101000a900473ffffffffffffffffffffffffffffffffffffffff16856040518463ffffffff1660e01b8152600401808473ffffffffffffffffffffffffffffffffffffffff1673ffffffffffffffffffffffffffffffffffffffff1681526020018373ffffffffffffffffffffffffffffffffffffffff1673ffffffffffffffffffffffffffffffffffffffff1681526020018281526020019350505050602060405180830381600087803b158015611f2057600080fd5b505af1158015611f34573d6000803e3d6000fd5b505050506040513d6020811015611f4a57600080fd5b8101908080519060200190929190505050611f6857600090506120f4565b600460009054906101000a900473ffffffffffffffffffffffffffffffffffffffff1673ffffffffffffffffffffffffffffffffffffffff1663712153b3836000806040518463ffffffff1660e01b815260040180848152602001838152602001821515151581526020019350505050602060405180830381600087803b158015611ff257600080fd5b505af1158015612006573d6000803e3d6000fd5b505050506040513d602081101561201c57600080fd5b8101908080519060200190929190505050507f93f900af773d323023f0ecf99deb1a5466a3f2445cf9c74f969fe7734583392a8383600760009054906101000a900473ffffffffffffffffffffffffffffffffffffffff16604051808473ffffffffffffffffffffffffffffffffffffffff1673ffffffffffffffffffffffffffffffffffffffff1681526020018381526020018273ffffffffffffffffffffffffffffffffffffffff1673ffffffffffffffffffffffffffffffffffffffff168152602001935050505060405180910390a1600190505b92915050565b600460009054906101000a900473ffffffffffffffffffffffffffffffffffffffff1681565b60008273ffffffffffffffffffffffffffffffffffffffff168273ffffffffffffffffffffffffffffffffffffffff16141561215f57600090506123a0565b8273ffffffffffffffffffffffffffffffffffffffff16600660009054906101000a900473ffffffffffffffffffffffffffffffffffffffff1673ffffffffffffffffffffffffffffffffffffffff166316805a2986856040518363ffffffff1660e01b8152600401808381526020018273ffffffffffffffffffffffffffffffffffffffff1673ffffffffffffffffffffffffffffffffffffffff1681526020019250505060206040518083038186803b15801561221d57600080fd5b505afa158015612231573d6000803e3d6000fd5b505050506040513d602081101561224757600080fd5b810190808051906020019092919050505073ffffffffffffffffffffffffffffffffffffffff16141561227d57600190506123a0565b8273ffffffffffffffffffffffffffffffffffffffff16600660009054906101000a900473ffffffffffffffffffffffffffffffffffffffff1673ffffffffffffffffffffffffffffffffffffffff16635f87206d86856040518363ffffffff1660e01b8152600401808381526020018273ffffffffffffffffffffffffffffffffffffffff1673ffffffffffffffffffffffffffffffffffffffff1681526020019250505060206040518083038186803b15801561233b57600080fd5b505afa15801561234f573d6000803e3d6000fd5b505050506040513d602081101561236557600080fd5b810190808051906020019092919050505073ffffffffffffffffffffffffffffffffffffffff16141561239b57600290506123a0565b600390505b9392505050565b60096020528060005260406000206000915090505481565b600560009054906101000a900473ffffffffffffffffffffffffffffffffffffffff1681565b6040518060400160405280600781526020017f43726f6e4a6f620000000000000000000000000000000000000000000000000081525061242481614db8565b600080600460009054906101000a900473ffffffffffffffffffffffffffffffffffffffff1673ffffffffffffffffffffffffffffffffffffffff1663d6f20309856040518263ffffffff1660e01b815260040180828152602001915050604080518083038186803b15801561249957600080fd5b505afa1580156124ad573d6000803e3d6000fd5b505050506040513d60408110156124c357600080fd5b81019080805190602001909291908051906020019092919050505091509150600460009054906101000a900473ffffffffffffffffffffffffffffffffffffffff1673ffffffffffffffffffffffffffffffffffffffff1663712153b3838360006040518463ffffffff1660e01b815260040180848152602001838152602001821515151581526020019350505050602060405180830381600087803b15801561256c57600080fd5b505af1158015612580573d6000803e3d6000fd5b505050506040513d602081101561259657600080fd5b81019080805190602001909291905050506125b057600080fd5b600460009054906101000a900473ffffffffffffffffffffffffffffffffffffffff1673ffffffffffffffffffffffffffffffffffffffff1663f89f07ce856006808111156125fb57fe5b6040518363ffffffff1660e01b81526004018083815260200182815260200192505050600060405180830381600087803b15801561263857600080fd5b505af115801561264c573d6000803e3d6000fd5b5050505050505050565b6000809054906101000a900473ffffffffffffffffffffffffffffffffffffffff1673ffffffffffffffffffffffffffffffffffffffff163373ffffffffffffffffffffffffffffffffffffffff16146126ac57fe5b600160009054906101000a900473ffffffffffffffffffffffffffffffffffffffff1673ffffffffffffffffffffffffffffffffffffffff1663358177736040518060400160405280600b81526020017f456e646f776d656e7444420000000000000000000000000000000000000000008152506040518263ffffffff1660e01b81526004018080602001828103825283818151815260200191508051906020019080838360005b8381101561276f578082015181840152602081019050612754565b50505050905090810190601f16801561279c5780820380516001836020036101000a031916815260200191505b509250505060206040518083038186803b1580156127b957600080fd5b505afa1580156127cd573d6000803e3d6000fd5b505050506040513d60208110156127e357600080fd5b8101908080519060200190929190505050600460006101000a81548173ffffffffffffffffffffffffffffffffffffffff021916908373ffffffffffffffffffffffffffffffffffffffff160217905550600160009054906101000a900473ffffffffffffffffffffffffffffffffffffffff1673ffffffffffffffffffffffffffffffffffffffff1663358177736040518060400160405280600d81526020017f47616d65566172416e64466565000000000000000000000000000000000000008152506040518263ffffffff1660e01b81526004018080602001828103825283818151815260200191508051906020019080838360005b838110156128f75780820151818401526020810190506128dc565b50505050905090810190601f1680156129245780820380516001836020036101000a031916815260200191505b509250505060206040518083038186803b15801561294157600080fd5b505afa158015612955573d6000803e3d6000fd5b505050506040513d602081101561296b57600080fd5b8101908080519060200190929190505050600260006101000a81548173ffffffffffffffffffffffffffffffffffffffff021916908373ffffffffffffffffffffffffffffffffffffffff160217905550600160009054906101000a900473ffffffffffffffffffffffffffffffffffffffff1673ffffffffffffffffffffffffffffffffffffffff1663358177736040518060400160405280601081526020017f4b69747469654669676874546f6b656e000000000000000000000000000000008152506040518263ffffffff1660e01b81526004018080602001828103825283818151815260200191508051906020019080838360005b83811015612a7f578082015181840152602081019050612a64565b50505050905090810190601f168015612aac5780820380516001836020036101000a031916815260200191505b509250505060206040518083038186803b158015612ac957600080fd5b505afa158015612add573d6000803e3d6000fd5b505050506040513d6020811015612af357600080fd5b8101908080519060200190929190505050600560006101000a81548173ffffffffffffffffffffffffffffffffffffffff021916908373ffffffffffffffffffffffffffffffffffffffff160217905550600160009054906101000a900473ffffffffffffffffffffffffffffffffffffffff1673ffffffffffffffffffffffffffffffffffffffff1663358177736040518060400160405280600981526020017f47616d6553746f726500000000000000000000000000000000000000000000008152506040518263ffffffff1660e01b81526004018080602001828103825283818151815260200191508051906020019080838360005b83811015612c07578082015181840152602081019050612bec565b50505050905090810190601f168015612c345780820380516001836020036101000a031916815260200191505b509250505060206040518083038186803b158015612c5157600080fd5b505afa158015612c65573d6000803e3d6000fd5b505050506040513d6020811015612c7b57600080fd5b8101908080519060200190929190505050600660006101000a81548173ffffffffffffffffffffffffffffffffffffffff021916908373ffffffffffffffffffffffffffffffffffffffff160217905550600160009054906101000a900473ffffffffffffffffffffffffffffffffffffffff1673ffffffffffffffffffffffffffffffffffffffff1663358177736040518060400160405280600a81526020017f474d4765747465724442000000000000000000000000000000000000000000008152506040518263ffffffff1660e01b81526004018080602001828103825283818151815260200191508051906020019080838360005b83811015612d8f578082015181840152602081019050612d74565b50505050905090810190601f168015612dbc5780820380516001836020036101000a031916815260200191505b509250505060206040518083038186803b158015612dd957600080fd5b505afa158015612ded573d6000803e3d6000fd5b505050506040513d6020811015612e0357600080fd5b8101908080519060200190929190505050600360006101000a81548173ffffffffffffffffffffffffffffffffffffffff021916908373ffffffffffffffffffffffffffffffffffffffff160217905550565b6000809054906101000a900473ffffffffffffffffffffffffffffffffffffffff1681565b6000809054906101000a900473ffffffffffffffffffffffffffffffffffffffff1673ffffffffffffffffffffffffffffffffffffffff163373ffffffffffffffffffffffffffffffffffffffff1614612ed157fe5b80600160006101000a81548173ffffffffffffffffffffffffffffffffffffffff021916908373ffffffffffffffffffffffffffffffffffffffff16021790555050565b600080600080612f2486611b82565b9250509150600073ffffffffffffffffffffffffffffffffffffffff168273ffffffffffffffffffffffffffffffffffffffff161415612f6357600080fd5b600080600360009054906101000a900473ffffffffffffffffffffffffffffffffffffffff1673ffffffffffffffffffffffffffffffffffffffff16630b154c9689896040518363ffffffff1660e01b8152600401808381526020018273ffffffffffffffffffffffffffffffffffffffff1673ffffffffffffffffffffffffffffffffffffffff1681526020019250505060806040518083038186803b15801561300d57600080fd5b505afa158015613021573d6000803e3d6000fd5b505050506040513d608081101561303757600080fd5b81019080805190602001909291908051906020019092919080519060200190929190805190602001909291905050505050915091508373ffffffffffffffffffffffffffffffffffffffff168773ffffffffffffffffffffffffffffffffffffffff16141580156130d457508373ffffffffffffffffffffffffffffffffffffffff168173ffffffffffffffffffffffffffffffffffffffff1614155b156130ef576000808191508090509550955050505050613231565b60006130fc898987612120565b90508473ffffffffffffffffffffffffffffffffffffffff168873ffffffffffffffffffffffffffffffffffffffff16141561321757600360009054906101000a900473ffffffffffffffffffffffffffffffffffffffff1673ffffffffffffffffffffffffffffffffffffffff1663dd99717d8a8a6040518363ffffffff1660e01b8152600401808381526020018273ffffffffffffffffffffffffffffffffffffffff1673ffffffffffffffffffffffffffffffffffffffff1681526020019250505060206040518083038186803b1580156131d957600080fd5b505afa1580156131ed573d6000803e3d6000fd5b505050506040513d602081101561320357600080fd5b810190808051906020019092919050505092505b6132238482858c615576565b809750819850505050505050505b9250929050565b60085481565b600260009054906101000a900473ffffffffffffffffffffffffffffffffffffffff1681565b600660009054906101000a900473ffffffffffffffffffffffffffffffffffffffff1681565b60008073ffffffffffffffffffffffffffffffffffffffff16600760009054906101000a900473ffffffffffffffffffffffffffffffffffffffff1673ffffffffffffffffffffffffffffffffffffffff1614156132e757600080fd5b60006132f16152c0565b90506000341161330057600080fd5b600760009054906101000a900473ffffffffffffffffffffffffffffffffffffffff1673ffffffffffffffffffffffffffffffffffffffff166108fc349081150290604051600060405180830381858888f193505050506133655760009150506135c2565b600460009054906101000a900473ffffffffffffffffffffffffffffffffffffffff1673ffffffffffffffffffffffffffffffffffffffff166350b1a7cd8460003460006040518563ffffffff1660e01b81526004018085815260200184815260200183815260200182151515158152602001945050505050602060405180830381600087803b1580156133f857600080fd5b505af115801561340c573d6000803e3d6000fd5b505050506040513d602081101561342257600080fd5b810190808051906020019092919050505050600460009054906101000a900473ffffffffffffffffffffffffffffffffffffffff1673ffffffffffffffffffffffffffffffffffffffff1663712153b360003460006040518463ffffffff1660e01b815260040180848152602001838152602001821515151581526020019350505050602060405180830381600087803b1580156134bf57600080fd5b505af11580156134d3573d6000803e3d6000fd5b505050506040513d60208110156134e957600080fd5b8101908080519060200190929190505050507f120bbc6058df2f75a9523df514b6e83e744fda1180dd8c135f2f5d0b1d15d2918134600760009054906101000a900473ffffffffffffffffffffffffffffffffffffffff16604051808473ffffffffffffffffffffffffffffffffffffffff1673ffffffffffffffffffffffffffffffffffffffff1681526020018381526020018273ffffffffffffffffffffffffffffffffffffffff1673ffffffffffffffffffffffffffffffffffffffff168152602001935050505060405180910390a160019150505b919050565b60006040518060400160405280600b81526020017f47616d654d616e6167657200000000000000000000000000000000000000000081525061360881614db8565b6000600260009054906101000a900473ffffffffffffffffffffffffffffffffffffffff1673ffffffffffffffffffffffffffffffffffffffff1663d693a9896040518163ffffffff1660e01b815260040160206040518083038186803b15801561367257600080fd5b505afa158015613686573d6000803e3d6000fd5b505050506040513d602081101561369c57600080fd5b810190808051906020019092919050505090506136b98482615375565b6136c257600080fd5b600192505050919050565b6000806000600460009054906101000a900473ffffffffffffffffffffffffffffffffffffffff1673ffffffffffffffffffffffffffffffffffffffff1663231eb69186866040518363ffffffff1660e01b8152600401808381526020018273ffffffffffffffffffffffffffffffffffffffff1673ffffffffffffffffffffffffffffffffffffffff16815260200192505050604080518083038186803b15801561377857600080fd5b505afa15801561378c573d6000803e3d6000fd5b505050506040513d60408110156137a257600080fd5b810190808051906020019092919080519060200190929190505050915091506000821180156137d15750600081115b9250505092915050565b6040518060400160405280600b81526020017f47616d654d616e6167657200000000000000000000000000000000000000000081525061381a81614db8565b60006005600681111561382957fe5b831415613cce576138f0600660009054906101000a900473ffffffffffffffffffffffffffffffffffffffff1673ffffffffffffffffffffffffffffffffffffffff16630d1fd67a866040518263ffffffff1660e01b81526004018082815260200191505060206040518083038186803b1580156138a657600080fd5b505afa1580156138ba573d6000803e3d6000fd5b505050506040513d60208110156138d057600080fd5b8101908080519060200190929190505050426152a490919063ffffffff16565b90506000600160009054906101000a900473ffffffffffffffffffffffffffffffffffffffff1673ffffffffffffffffffffffffffffffffffffffff1663358177736040518060400160405280600781526020017f43726f6e4a6f62000000000000000000000000000000000000000000000000008152506040518263ffffffff1660e01b81526004018080602001828103825283818151815260200191508051906020019080838360005b838110156139b757808201518184015260208101905061399c565b50505050905090810190601f1680156139e45780820380516001836020036101000a031916815260200191505b509250505060206040518083038186803b158015613a0157600080fd5b505afa158015613a15573d6000803e3d6000fd5b505050506040513d6020811015613a2b57600080fd5b8101908080519060200190929190505050905060008173ffffffffffffffffffffffffffffffffffffffff1663c19304966040518060400160405280600d81526020017f456e646f776d656e7446756e64000000000000000000000000000000000000008152508589604051602401808281526020019150506040516020818303038152906040527f75899135000000000000000000000000000000000000000000000000000000007bffffffffffffffffffffffffffffffffffffffffffffffffffffffff19166020820180517bffffffffffffffffffffffffffffffffffffffffffffffffffffffff83818316178352505050506040518463ffffffff1660e01b8152600401808060200184815260200180602001838103835286818151815260200191508051906020019080838360005b83811015613b7a578082015181840152602081019050613b5f565b50505050905090810190601f168015613ba75780820380516001836020036101000a031916815260200191505b50838103825284818151815260200191508051906020019080838360005b83811015613be0578082015181840152602081019050613bc5565b50505050905090810190601f168015613c0d5780820380516001836020036101000a031916815260200191505b5095505050505050602060405180830381600087803b158015613c2f57600080fd5b505af1158015613c43573d6000803e3d6000fd5b505050506040513d6020811015613c5957600080fd5b810190808051906020019092919050505090508060096000888152602001908152602001600020819055507fbdb3fa1032c10362fcfd2e3a7214b0e681d1a19640cdc58a12397eb72eadf0e681848860405180848152602001838152602001828152602001935050505060405180910390a150505b600460009054906101000a900473ffffffffffffffffffffffffffffffffffffffff1673ffffffffffffffffffffffffffffffffffffffff1663a297bbee8585846040518463ffffffff1660e01b8152600401808481526020018381526020018281526020019350505050600060405180830381600087803b158015613d5357600080fd5b505af1158015613d67573d6000803e3d6000fd5b5050505050505050565b60008073ffffffffffffffffffffffffffffffffffffffff163373ffffffffffffffffffffffffffffffffffffffff161415613da957fe5b613de76040518060400160405280600b81526020017f73757065725f61646d696e000000000000000000000000000000000000000000815250614b3c565b613e59576040517f08c379a00000000000000000000000000000000000000000000000000000000081526004018080602001828103825260108152602001807f4f6e6c792073757065722061646d696e0000000000000000000000000000000081525060200191505060405180910390fd5b600073ffffffffffffffffffffffffffffffffffffffff168273ffffffffffffffffffffffffffffffffffffffff161415613e9357600080fd5b8173ffffffffffffffffffffffffffffffffffffffff1663c4d66de8600560009054906101000a900473ffffffffffffffffffffffffffffffffffffffff166040518263ffffffff1660e01b8152600401808273ffffffffffffffffffffffffffffffffffffffff1673ffffffffffffffffffffffffffffffffffffffff168152602001915050600060405180830381600087803b158015613f3457600080fd5b505af1158015613f48573d6000803e3d6000fd5b505050503073ffffffffffffffffffffffffffffffffffffffff168273ffffffffffffffffffffffffffffffffffffffff16638da5cb5b6040518163ffffffff1660e01b815260040160206040518083038186803b158015613fa957600080fd5b505afa158015613fbd573d6000803e3d6000fd5b505050506040513d6020811015613fd357600080fd5b810190808051906020019092919050505073ffffffffffffffffffffffffffffffffffffffff161461400457600080fd5b600073ffffffffffffffffffffffffffffffffffffffff168273ffffffffffffffffffffffffffffffffffffffff166397d7ce0a6040518163ffffffff1660e01b815260040160206040518083038186803b15801561406257600080fd5b505afa158015614076573d6000803e3d6000fd5b505050506040513d602081101561408c57600080fd5b810190808051906020019092919050505073ffffffffffffffffffffffffffffffffffffffff1614156140be57600080fd5b600073ffffffffffffffffffffffffffffffffffffffff16600760009054906101000a900473ffffffffffffffffffffffffffffffffffffffff1673ffffffffffffffffffffffffffffffffffffffff161461442957600760009054906101000a900473ffffffffffffffffffffffffffffffffffffffff1673ffffffffffffffffffffffffffffffffffffffff16637b1a490983600760009054906101000a900473ffffffffffffffffffffffffffffffffffffffff1673ffffffffffffffffffffffffffffffffffffffff16316040518363ffffffff1660e01b8152600401808373ffffffffffffffffffffffffffffffffffffffff1673ffffffffffffffffffffffffffffffffffffffff16815260200182815260200192505050602060405180830381600087803b1580156141f657600080fd5b505af115801561420a573d6000803e3d6000fd5b505050506040513d602081101561422057600080fd5b810190808051906020019092919050505061423a57600080fd5b6000600560009054906101000a900473ffffffffffffffffffffffffffffffffffffffff1673ffffffffffffffffffffffffffffffffffffffff166370a08231600760009054906101000a900473ffffffffffffffffffffffffffffffffffffffff166040518263ffffffff1660e01b8152600401808273ffffffffffffffffffffffffffffffffffffffff1673ffffffffffffffffffffffffffffffffffffffff16815260200191505060206040518083038186803b1580156142fd57600080fd5b505afa158015614311573d6000803e3d6000fd5b505050506040513d602081101561432757600080fd5b81019080805190602001909291905050509050600760009054906101000a900473ffffffffffffffffffffffffffffffffffffffff1673ffffffffffffffffffffffffffffffffffffffff1663430951bd84836040518363ffffffff1660e01b8152600401808373ffffffffffffffffffffffffffffffffffffffff1673ffffffffffffffffffffffffffffffffffffffff16815260200182815260200192505050602060405180830381600087803b1580156143e357600080fd5b505af11580156143f7573d6000803e3d6000fd5b505050506040513d602081101561440d57600080fd5b810190808051906020019092919050505061442757600080fd5b505b81600760006101000a81548173ffffffffffffffffffffffffffffffffffffffff021916908373ffffffffffffffffffffffffffffffffffffffff16021790555060019050919050565b600760009054906101000a900473ffffffffffffffffffffffffffffffffffffffff1681565b6040518060400160405280600b81526020017f456e646f776d656e7444420000000000000000000000000000000000000000008152506144d881614db8565b6000600160009054906101000a900473ffffffffffffffffffffffffffffffffffffffff1673ffffffffffffffffffffffffffffffffffffffff1663358177736040518060400160405280600781526020017f43726f6e4a6f62000000000000000000000000000000000000000000000000008152506040518263ffffffff1660e01b81526004018080602001828103825283818151815260200191508051906020019080838360005b8381101561459d578082015181840152602081019050614582565b50505050905090810190601f1680156145ca5780820380516001836020036101000a031916815260200191505b509250505060206040518083038186803b1580156145e757600080fd5b505afa1580156145fb573d6000803e3d6000fd5b505050506040513d602081101561461157600080fd5b810190808051906020019092919050505090508073ffffffffffffffffffffffffffffffffffffffff16639d8f101f6040518060400160405280600d81526020017f456e646f776d656e7446756e640000000000000000000000000000000000000081525060096000878152602001908152602001600020546040518363ffffffff1660e01b81526004018080602001838152602001828103825284818151815260200191508051906020019080838360005b838110156146df5780820151818401526020810190506146c4565b50505050905090810190601f16801561470c5780820380516001836020036101000a031916815260200191505b509350505050600060405180830381600087803b15801561472c57600080fd5b505af1158015614740573d6000803e3d6000fd5b50505050505050565b600160009054906101000a900473ffffffffffffffffffffffffffffffffffffffff1681565b600073ffffffffffffffffffffffffffffffffffffffff163373ffffffffffffffffffffffffffffffffffffffff1614156147a657fe5b6147e46040518060400160405280600b81526020017f73757065725f61646d696e000000000000000000000000000000000000000000815250614b3c565b614856576040517f08c379a00000000000000000000000000000000000000000000000000000000081526004018080602001828103825260108152602001807f4f6e6c792073757065722061646d696e0000000000000000000000000000000081525060200191505060405180910390fd5b600760009054906101000a900473ffffffffffffffffffffffffffffffffffffffff1673ffffffffffffffffffffffffffffffffffffffff1663f2fde38b826040518263ffffffff1660e01b8152600401808273ffffffffffffffffffffffffffffffffffffffff1673ffffffffffffffffffffffffffffffffffffffff168152602001915050600060405180830381600087803b1580156148f757600080fd5b505af115801561490b573d6000803e3d6000fd5b5050505050565b6000806040518060400160405280600c81526020017f47616d654372656174696f6e000000000000000000000000000000000000000081525061495481614db8565b600460009054906101000a900473ffffffffffffffffffffffffffffffffffffffff1673ffffffffffffffffffffffffffffffffffffffff1663f1d4be10856040518263ffffffff1660e01b8152600401808281526020019150506040805180830381600087803b1580156149c857600080fd5b505af11580156149dc573d6000803e3d6000fd5b505050506040513d60408110156149f257600080fd5b8101908080519060200190929190805190602001909291905050509250925050915091565b6000809054906101000a900473ffffffffffffffffffffffffffffffffffffffff1673ffffffffffffffffffffffffffffffffffffffff163373ffffffffffffffffffffffffffffffffffffffff1614614a6d57fe5b600073ffffffffffffffffffffffffffffffffffffffff168173ffffffffffffffffffffffffffffffffffffffff1614614ae257806000806101000a81548173ffffffffffffffffffffffffffffffffffffffff021916908373ffffffffffffffffffffffffffffffffffffffff1602179055505b50565b60006040518060400160405280600f81526020017f4561726e696e6773547261636b65720000000000000000000000000000000000815250614b2681614db8565b614b308484615053565b50600191505092915050565b6000600160009054906101000a900473ffffffffffffffffffffffffffffffffffffffff1673ffffffffffffffffffffffffffffffffffffffff1663358177736040518060400160405280600681526020017f526f6c65444200000000000000000000000000000000000000000000000000008152506040518263ffffffff1660e01b81526004018080602001828103825283818151815260200191508051906020019080838360005b83811015614c01578082015181840152602081019050614be6565b50505050905090810190601f168015614c2e5780820380516001836020036101000a031916815260200191505b509250505060206040518083038186803b158015614c4b57600080fd5b505afa158015614c5f573d6000803e3d6000fd5b505050506040513d6020811015614c7557600080fd5b810190808051906020019092919050505073ffffffffffffffffffffffffffffffffffffffff16636c9cd09783614caa6152c0565b6040518363ffffffff1660e01b815260040180806020018373ffffffffffffffffffffffffffffffffffffffff1673ffffffffffffffffffffffffffffffffffffffff168152602001828103825284818151815260200191508051906020019080838360005b83811015614d2b578082015181840152602081019050614d10565b50505050905090810190601f168015614d585780820380516001836020036101000a031916815260200191505b50935050505060206040518083038186803b158015614d7657600080fd5b505afa158015614d8a573d6000803e3d6000fd5b505050506040513d6020811015614da057600080fd5b81019080805190602001909291905050509050919050565b600073ffffffffffffffffffffffffffffffffffffffff16600160009054906101000a900473ffffffffffffffffffffffffffffffffffffffff1673ffffffffffffffffffffffffffffffffffffffff161415614e7d576040517f08c379a00000000000000000000000000000000000000000000000000000000081526004018080602001828103825260088152602001807f4e6f2050726f787900000000000000000000000000000000000000000000000081525060200191505060405180910390fd5b6000600160009054906101000a900473ffffffffffffffffffffffffffffffffffffffff1673ffffffffffffffffffffffffffffffffffffffff166335817773836040518263ffffffff1660e01b81526004018080602001828103825283818151815260200191508051906020019080838360005b83811015614f0d578082015181840152602081019050614ef2565b50505050905090810190601f168015614f3a5780820380516001836020036101000a031916815260200191505b509250505060206040518083038186803b158015614f5757600080fd5b505afa158015614f6b573d6000803e3d6000fd5b505050506040513d6020811015614f8157600080fd5b81019080805190602001909291905050509050600073ffffffffffffffffffffffffffffffffffffffff168173ffffffffffffffffffffffffffffffffffffffff161415614fcb57fe5b8073ffffffffffffffffffffffffffffffffffffffff163373ffffffffffffffffffffffffffffffffffffffff161461504f576040517f08c379a000000000000000000000000000000000000000000000000000000000815260040180806020018281038252602d815260200180615e6d602d913960400191505060405180910390fd5b5050565b60008073ffffffffffffffffffffffffffffffffffffffff168373ffffffffffffffffffffffffffffffffffffffff16141561508e57600080fd5b600760009054906101000a900473ffffffffffffffffffffffffffffffffffffffff1673ffffffffffffffffffffffffffffffffffffffff16637b1a490984846040518363ffffffff1660e01b8152600401808373ffffffffffffffffffffffffffffffffffffffff1673ffffffffffffffffffffffffffffffffffffffff16815260200182815260200192505050602060405180830381600087803b15801561513757600080fd5b505af115801561514b573d6000803e3d6000fd5b505050506040513d602081101561516157600080fd5b810190808051906020019092919050505061517b57600080fd5b600460009054906101000a900473ffffffffffffffffffffffffffffffffffffffff1673ffffffffffffffffffffffffffffffffffffffff1663712153b360008460016040518463ffffffff1660e01b815260040180848152602001838152602001821515151581526020019350505050602060405180830381600087803b15801561520657600080fd5b505af115801561521a573d6000803e3d6000fd5b505050506040513d602081101561523057600080fd5b810190808051906020019092919050505061524a57600080fd5b6001905092915050565b6000808314156152675760009050615285565b600082840290508284828161527857fe5b041461528057fe5b809150505b92915050565b60008082848161529757fe5b0490508091505092915050565b6000808284019050838110156152b657fe5b8091505092915050565b6000600160009054906101000a900473ffffffffffffffffffffffffffffffffffffffff1673ffffffffffffffffffffffffffffffffffffffff163373ffffffffffffffffffffffffffffffffffffffff161461531f57339050615372565b6000601436036000602052601481602c37602051915050600073ffffffffffffffffffffffffffffffffffffffff168173ffffffffffffffffffffffffffffffffffffffff16141561536d57fe5b809150505b90565b60008073ffffffffffffffffffffffffffffffffffffffff168373ffffffffffffffffffffffffffffffffffffffff1614156153b057600080fd5b600760009054906101000a900473ffffffffffffffffffffffffffffffffffffffff1673ffffffffffffffffffffffffffffffffffffffff1663430951bd84846040518363ffffffff1660e01b8152600401808373ffffffffffffffffffffffffffffffffffffffff1673ffffffffffffffffffffffffffffffffffffffff16815260200182815260200192505050602060405180830381600087803b15801561545957600080fd5b505af115801561546d573d6000803e3d6000fd5b505050506040513d602081101561548357600080fd5b810190808051906020019092919050505061549d57600080fd5b600460009054906101000a900473ffffffffffffffffffffffffffffffffffffffff1673ffffffffffffffffffffffffffffffffffffffff1663712153b383600060016040518463ffffffff1660e01b815260040180848152602001838152602001821515151581526020019350505050602060405180830381600087803b15801561552857600080fd5b505af115801561553c573d6000803e3d6000fd5b505050506040513d602081101561555257600080fd5b810190808051906020019092919050505061556c57600080fd5b6001905092915050565b600080615581615e28565b600660009054906101000a900473ffffffffffffffffffffffffffffffffffffffff1673ffffffffffffffffffffffffffffffffffffffff16636991b5bf856040518263ffffffff1660e01b81526004018082815260200191505060a06040518083038186803b1580156155f457600080fd5b505afa158015615608573d6000803e3d6000fd5b505050506040513d601f19601f8201168201806040525060a081101561562d57600080fd5b810190809190505090506000600360009054906101000a900473ffffffffffffffffffffffffffffffffffffffff1673ffffffffffffffffffffffffffffffffffffffff1663525a8e4e866040518263ffffffff1660e01b815260040180828152602001915050604080518083038186803b1580156156ab57600080fd5b505afa1580156156bf573d6000803e3d6000fd5b505050506040513d60408110156156d557600080fd5b810190808051906020019092919080519060200190929190505050915050600061572d620f424061571f858b6005811061570b57fe5b60200201518c61525490919063ffffffff16565b61528b90919063ffffffff16565b90506000615769620f424061575b868c6005811061574757fe5b60200201518661525490919063ffffffff16565b61528b90919063ffffffff16565b9050600389141561578d5761578081838a8a6157b3565b95509550505050506157aa565b6157a082896152a490919063ffffffff16565b8195509550505050505b94509492505050565b6000806157be615e4a565b600360009054906101000a900473ffffffffffffffffffffffffffffffffffffffff1673ffffffffffffffffffffffffffffffffffffffff16636b1426a4856040518263ffffffff1660e01b81526004018082815260200191505060606040518083038186803b15801561583157600080fd5b505afa158015615845573d6000803e3d6000fd5b505050506040513d606081101561585b57600080fd5b810190808051906020019092919080519060200190929190805190602001909291905050508360006003811061588d57fe5b602002018460016003811061589e57fe5b60200201856002600381106158af57fe5b602002018373ffffffffffffffffffffffffffffffffffffffff1673ffffffffffffffffffffffffffffffffffffffff168152508373ffffffffffffffffffffffffffffffffffffffff1673ffffffffffffffffffffffffffffffffffffffff168152508373ffffffffffffffffffffffffffffffffffffffff1673ffffffffffffffffffffffffffffffffffffffff168152505050506000600360009054906101000a900473ffffffffffffffffffffffffffffffffffffffff1673ffffffffffffffffffffffffffffffffffffffff16630b154c96868460016003811061599457fe5b60200201516040518363ffffffff1660e01b8152600401808381526020018273ffffffffffffffffffffffffffffffffffffffff1673ffffffffffffffffffffffffffffffffffffffff1681526020019250505060806040518083038186803b158015615a0057600080fd5b505afa158015615a14573d6000803e3d6000fd5b505050506040513d6080811015615a2a57600080fd5b810190808051906020019092919080519060200190929190805190602001909291908051906020019092919050505050505090506000600360009054906101000a900473ffffffffffffffffffffffffffffffffffffffff1673ffffffffffffffffffffffffffffffffffffffff16630b154c968785600260038110615aac57fe5b60200201516040518363ffffffff1660e01b8152600401808381526020018273ffffffffffffffffffffffffffffffffffffffff1673ffffffffffffffffffffffffffffffffffffffff1681526020019250505060806040518083038186803b158015615b1857600080fd5b505afa158015615b2c573d6000803e3d6000fd5b505050506040513d6080811015615b4257600080fd5b810190808051906020019092919080519060200190929190805190602001909291908051906020019092919050505050505090506000600360009054906101000a900473ffffffffffffffffffffffffffffffffffffffff1673ffffffffffffffffffffffffffffffffffffffff1663dd99717d8886600060038110615bc457fe5b60200201516040518363ffffffff1660e01b8152600401808381526020018273ffffffffffffffffffffffffffffffffffffffff1673ffffffffffffffffffffffffffffffffffffffff1681526020019250505060206040518083038186803b158015615c3057600080fd5b505afa158015615c44573d6000803e3d6000fd5b505050506040513d6020811015615c5a57600080fd5b810190808051906020019092919050505090506000600360009054906101000a900473ffffffffffffffffffffffffffffffffffffffff1673ffffffffffffffffffffffffffffffffffffffff1663bacf524e8987600060038110615cbb57fe5b60200201516040518363ffffffff1660e01b8152600401808381526020018273ffffffffffffffffffffffffffffffffffffffff1673ffffffffffffffffffffffffffffffffffffffff1681526020019250505060206040518083038186803b158015615d2757600080fd5b505afa158015615d3b573d6000803e3d6000fd5b505050506040513d6020811015615d5157600080fd5b81019080805190602001909291905050509050615d9b82615d8d85615d7f8886615e1190919063ffffffff16565b615e1190919063ffffffff16565b615e1190919063ffffffff16565b9050615dc281615db48b8d61525490919063ffffffff16565b61528b90919063ffffffff16565b9950615de981615ddb8b8e61525490919063ffffffff16565b61528b90919063ffffffff16565b9a50615dfe8a8a6152a490919063ffffffff16565b8b96509650505050505094509492505050565b600082821115615e1d57fe5b818303905092915050565b6040518060a00160405280600590602082028038833980820191505090505090565b604051806060016040528060039060208202803883398082019150509050509056fe416363657373206973206f6e6c7920616c6c6f7765642066726f6d20737065636966696320636f6e7472616374a265627a7a72315820e8a65c0ed9d71a88b66ee4316605f6b05c8fca99cd38a9aa8eee638ab67e74f264736f6c63430005110032",
  "source": "/**\n * @title EndowmentFund\n */\n//\n// This program is free software: you can redistribute it and/or modify\n// it under the terms of the GNU General Public License as published by\n// the Free Software Foundation, either version 3 of the License, or\n// (at your option) any later version.\n\n// This program is distributed in the hope that it will be useful,\n// but WITHOUT ANY WARRANTY; without even the implied warranty of\n// MERCHANTABILITY or FITNESS FOR A PARTICULAR PURPOSE.  See the\n// GNU General Public License for more details.\n\n// You should have received a copy of the GNU General Public License\n// along with this program.  If not, see <http://www.gnu.org/licenses/>.\n\npragma solidity ^0.5.5;\n\nimport \"../proxy/Proxied.sol\";\nimport \"../../authority/Guard.sol\";\nimport \"./Distribution.sol\";\n\n/**\n * @title EndowmentFund\n * @dev Responsible for : manage funds\n * @author @vikrammndal @wafflemakr @Xaleee @ziweidream\n */\n\ncontract EndowmentFund is Distribution, Guard {\n    using SafeMath for uint256;\n\n    Escrow public escrow;\n\n    event WinnerClaimed(uint indexed gameId, address indexed winner, uint256 ethAmount, uint256 ktyAmount, address from);\n    event SentKTYtoEscrow(address sender, uint256 ktyAmount, address receiver);\n    event SentETHtoEscrow(address sender, uint256 ethAmount, address receiver);\n    event Scheduled(uint256 scheduledJob, uint256 time, uint256 gameId);\n\n    /// @notice  the count of all invocations of `generatePotId`.\n    uint256 public potRequestCount;\n    mapping (uint => uint) public scheduledJobs;\n\n    enum HoneypotState {\n        created,\n        assigned,\n        gameScheduled,\n        gameStarted,\n        forefeited,\n        claiming,\n        dissolved\n    }\n\n    /**\n  * @dev check if enough funds present and maintains balance of tokens in DB\n  */\n  function generateHoneyPot(uint256 gameId)\n    external\n    onlyContract(CONTRACT_NAME_GAMECREATION)\n    returns (uint, uint) {\n    return (endowmentDB.generateHoneyPot(gameId));\n  }\n\n    /**\n    * @dev winner claims\n    */\n    function claim(uint256 _gameId) external payable {\n        address payable msgSender = address(uint160(getOriginalSender()));\n\n        // Honeypot status\n        (uint status, uint256 claimTime) = endowmentDB.getHoneypotState(_gameId);\n\n        require(uint(HoneypotState.claiming) == status, \"1\");\n\n        require(now < claimTime, \"2\");\n\n        require(!getWithdrawalState(_gameId, msgSender), \"3\");\n\n        (uint256 winningsETH, uint256 winningsKTY) = getWinnerShare(_gameId, msgSender);\n\n        // make sure enough funds in HoneyPot and update HoneyPot balance\n        require(endowmentDB.updateHoneyPotFund(_gameId, winningsKTY, winningsETH, true));\n\n        if (winningsKTY > 0){\n            transferKTYfromEscrow(msgSender, winningsKTY);\n        }\n\n        if (winningsETH > 0){\n            transferETHfromEscrow(msgSender, winningsETH);\n        }\n\n        // log tokens sent to an address\n        endowmentDB.setTotalDebit(_gameId, msgSender, winningsETH, winningsKTY);\n\n        emit WinnerClaimed(_gameId, msgSender, winningsETH, winningsKTY, address(escrow));\n    }\n\n    /**\n    * @dev send reward to the user that pressed finalize button\n    */\n    function sendFinalizeRewards(address user)\n        external\n        onlyContract(CONTRACT_NAME_GAMEMANAGER)\n        returns(bool)\n    {\n        uint reward = gameVarAndFee.getFinalizeRewards();\n        require(transferKTYfromEscrow(address(uint160(user)), reward));\n        return true;\n    }\n\n    function getWithdrawalState(uint _gameId, address _account) public view returns (bool) {        \n        (uint256 totalETHdebited, uint256 totalKTYdebited) = endowmentDB.getTotalDebit(_gameId, _account);\n        return ((totalETHdebited > 0) && (totalKTYdebited > 0)); // since payout is in full not in parts\n    }\n\n    /**\n    * @dev updateHoneyPotState\n    */\n    function updateHoneyPotState(uint256 _gameId, uint _state) public onlyContract(CONTRACT_NAME_GAMEMANAGER) {\n        uint256 claimTime;\n        if (_state == uint(HoneypotState.claiming)){\n\n            claimTime = now.add(gameStore.getHoneypotExpiration(_gameId));\n\n            //add to cron: schedule desolve of HoneyPot\n            CronJob cron = CronJob(proxy.getContract(CONTRACT_NAME_CRONJOB));\n            uint256 scheduledJob = cron.addCronJob(\n                                            CONTRACT_NAME_ENDOWMENT_FUND,\n                                            claimTime,\n                                            abi.encodeWithSignature(\"scheduleDissolve(uint256)\", _gameId)\n                                            );\n            scheduledJobs[_gameId] = scheduledJob;\n            emit Scheduled(scheduledJob, claimTime, _gameId);\n        }\n        endowmentDB.setHoneypotState(_gameId, _state, claimTime);\n    }\n\n    function deleteCronJob(uint _gameId)\n        external\n        onlyContract(CONTRACT_NAME_ENDOWMENT_DB)\n    {\n       CronJob cron = CronJob(proxy.getContract(CONTRACT_NAME_CRONJOB));\n       cron.deleteCronJob(CONTRACT_NAME_ENDOWMENT_FUND, scheduledJobs[_gameId]);\n    }\n\n    /**\n    * @dev added to cronjob : schedule Honey pot dissolve\n    */\n    function scheduleDissolve(uint256 _gameId)\n        external\n        onlyContract(CONTRACT_NAME_CRONJOB)\n    {\n\n        // move left over funds from honey pot to endowment\n        (uint256 honeyPotBalanceKTY, uint256 honeyPotBalanceETH) = endowmentDB.getHoneyPotBalance(_gameId);\n\n        // update endowmentFund\n        require(endowmentDB.updateEndowmentFund(honeyPotBalanceKTY, honeyPotBalanceETH, false));\n\n        // change state to dissolved\n        endowmentDB.dissolveHoneypot(_gameId, uint(HoneypotState.dissolved));\n\n    }\n\n    /**\n     * @dev Send KTY from EndowmentFund to Escrow\n     */\n    function sendKTYtoEscrow(uint256 _kty_amount)\n        external\n        onlySuperAdmin\n    {\n        require(_kty_amount > 0);\n\n        require(kittieFightToken.transfer(address(escrow), _kty_amount));\n\n        require(endowmentDB.updateEndowmentFund(_kty_amount, 0, false));\n\n        emit SentKTYtoEscrow(address(this), _kty_amount, address(escrow));\n    }\n\n    /**\n     * @dev Send eth to Escrow\n     */\n    function sendETHtoEscrow() external payable {\n        address msgSender = getOriginalSender();\n\n         // not very essential\n        // require(address(escrow) != address(0),\n        //     \"Error: escrow not initialized\");\n        \n\n        require(msg.value > 0);\n\n        address(escrow).transfer(msg.value);\n\n        require(endowmentDB.updateEndowmentFund(0, msg.value, false));\n\n        emit SentETHtoEscrow(msgSender, msg.value, address(escrow));\n    }\n\n    /**\n     * @dev accepts KTY. KTY is transfered to in escrow\n     */\n     \n    function contributeKTY(address _sender, uint256 _kty_amount) external returns(bool) {\n\n        //require(address(escrow) != address(0), \"escrow not initialized\"); //  not very essential\n\n        // do transfer of KTY\n        if (!kittieFightToken.transferFrom(_sender, address(escrow), _kty_amount)){\n            return false;\n        }\n\n        endowmentDB.updateEndowmentFund(_kty_amount, 0, false);\n\n        emit SentKTYtoEscrow(_sender, _kty_amount, address(escrow));\n\n        return true;\n    }\n\n    /**\n     * @dev GM calls\n     */\n    function contributeETH(uint _gameId) external payable returns(bool) {\n        require(address(escrow) != address(0));\n        address msgSender = getOriginalSender();\n\n        require(msg.value > 0);\n\n        // transfer ETH to Escrow\n        if (!address(escrow).send(msg.value)){\n            return false;\n        }\n\n        endowmentDB.updateHoneyPotFund(_gameId, 0, msg.value, false);\n        endowmentDB.updateEndowmentFund(0, msg.value, false);\n\n        emit SentETHtoEscrow(msgSender, msg.value, address(escrow));\n\n        return true;\n    }\n\n    /**\n    * @notice MUST BE DONE BEFORE UPGRADING ENDOWMENT AS IT IS THE OWNER\n    * @dev change Escrow contract owner before UPGRADING ENDOWMENT AS IT IS THE OWNER\n    */\n    function transferEscrowOwnership(address payable _newOwner) external onlySuperAdmin {\n        escrow.transferOwnership(_newOwner);\n    }\n\n    /**\n    * @dev transfer Escrow ETH funds\n    */\n    function transferETHfromEscrow(address payable _someAddress, uint256 _eth_amount)\n    private\n    returns(bool){\n        require(address(_someAddress) != address(0));\n\n        // transfer the ETH\n        require(escrow.transferETH(_someAddress, _eth_amount));\n\n        // Update DB. true = deductFunds\n        require(endowmentDB.updateEndowmentFund(0, _eth_amount, true));\n\n        return true;\n    }\n\n    function transferETHfromEscrowWithdrawalPool(address payable _someAddress, uint256 _eth_amount)\n        public\n        onlyContract(CONTRACT_NAME_WITHDRAWAL_POOL)\n        returns(bool)\n    {\n        transferETHfromEscrow(_someAddress, _eth_amount);\n        return true;\n    }\n\n    function transferETHfromEscrowEarningsTracker(address payable _someAddress, uint256 _eth_amount)\n        public\n        onlyContract(CONTRACT_NAME_EARNINGS_TRACKER)\n        returns(bool)\n    {\n        transferETHfromEscrow(_someAddress, _eth_amount);\n        return true;\n    }\n\n    /**\n    * @dev transfer Escrow KFT funds\n    */\n    function transferKTYfromEscrow(address payable _someAddress, uint256 _kty_amount)\n    private\n    returns(bool){\n        require(address(_someAddress) != address(0));\n\n        // transfer the KTY\n        require(escrow.transferKTY(_someAddress, _kty_amount));\n\n        // Update DB. true = deductFunds\n        require(endowmentDB.updateEndowmentFund(_kty_amount, 0, true));\n\n        return true;\n    }\n\n    /**\n    * @dev Initialize or Upgrade Escrow\n    * @notice BEFORE CALLING: Deploy escrow contract and set the owner as EndowmentFund contract\n    */\n    function initUpgradeEscrow(Escrow _newEscrow) external onlySuperAdmin returns(bool){\n\n        require(address(_newEscrow) != address(0));\n        _newEscrow.initialize(kittieFightToken);\n\n        // check ownership\n        require(_newEscrow.owner() == address(this));\n\n        // KTY is set\n        require(_newEscrow.getKTYaddress() != address(0));\n\n        if (address(escrow) != address(0)){ // Transfer if any funds\n\n            // transfer all the ETH\n            require(escrow.transferETH(address(_newEscrow), address(escrow).balance));\n\n            // transfer all the KTY\n            uint256 ktyBalance = kittieFightToken.balanceOf(address(escrow));\n            require(escrow.transferKTY(address(_newEscrow), ktyBalance));\n\n        }\n\n        escrow = _newEscrow;\n        return true;\n    }\n\n\n    /**\n     * @dev Do not upgrade Endowment if owner of escrow is still this contract's address\n     * Steps:\n     * deploy new Endowment\n     * set owner of escrow to new Endowment adrress using endowment.transferEscrowOwnership(new Endowment adrress)\n     * than set the new Endowment adrress in proxy\n     */\n    function isEndowmentUpgradabe() public view returns(bool){\n        return (address(escrow.owner) != address(this));\n    }\n}\n",
  "sourcePath": "/Users/ziweizhang/Desktop/EarningsTracker/alpha/contracts/modules/endowment/EndowmentFund.sol",
  "compiler": {
    "name": "solc",
    "version": "0.5.17+commit.d19bba13.Emscripten.clang"
  },
  "schemaVersion": "3.0.23",
  "updatedAt": "2020-04-13T20:08:11.106Z",
  "devdoc": {
    "author": "@vikrammndal @wafflemakr @Xaleee @ziweidream",
    "details": "Responsible for : manage funds",
    "methods": {
      "claim(uint256)": {
        "details": "winner claims"
      },
      "contributeETH(uint256)": {
        "details": "GM calls"
      },
      "contributeKTY(address,uint256)": {
        "details": "accepts KTY. KTY is transfered to in escrow"
      },
      "generateHoneyPot(uint256)": {
        "details": "check if enough funds present and maintains balance of tokens in DB"
      },
      "initUpgradeEscrow(address)": {
        "details": "Initialize or Upgrade Escrow"
      },
      "initialize()": {
        "details": "Sets related contractsCan be called only by the owner of this contract"
      },
      "isEndowmentUpgradabe()": {
        "details": "Do not upgrade Endowment if owner of escrow is still this contract's address Steps: deploy new Endowment set owner of escrow to new Endowment adrress using endowment.transferEscrowOwnership(new Endowment adrress) than set the new Endowment adrress in proxy"
      },
      "scheduleDissolve(uint256)": {
        "details": "added to cronjob : schedule Honey pot dissolve"
      },
      "sendETHtoEscrow()": {
        "details": "Send eth to Escrow"
      },
      "sendFinalizeRewards(address)": {
        "details": "send reward to the user that pressed finalize button"
      },
      "sendKTYtoEscrow(uint256)": {
        "details": "Send KTY from EndowmentFund to Escrow"
      },
      "transferEscrowOwnership(address)": {
        "details": "change Escrow contract owner before UPGRADING ENDOWMENT AS IT IS THE OWNER"
      },
      "updateHoneyPotState(uint256,uint256)": {
        "details": "updateHoneyPotState"
      }
    },
    "title": "EndowmentFund"
  },
  "userdoc": {
    "methods": {
      "getWinnerShare(uint256,address)": {
        "notice": "Calculates amount of Eth the winner can claim"
      },
      "initUpgradeEscrow(address)": {
        "notice": "BEFORE CALLING: Deploy escrow contract and set the owner as EndowmentFund contract"
      },
      "setProxy(address)": {
        "notice": "Set/update address of Proxy contract"
      },
      "transferEscrowOwnership(address)": {
        "notice": "MUST BE DONE BEFORE UPGRADING ENDOWMENT AS IT IS THE OWNER"
      }
    }
  }
}