{
  "contractName": "EndowmentFund",
  "abi": [
    {
      "anonymous": false,
      "inputs": [
        {
          "indexed": false,
          "internalType": "address",
          "name": "sender",
          "type": "address"
        },
        {
          "indexed": false,
          "internalType": "uint256",
          "name": "ethAmount",
          "type": "uint256"
        },
        {
          "indexed": false,
          "internalType": "address",
          "name": "receiver",
          "type": "address"
        }
      ],
      "name": "SentETHtoEscrow",
      "type": "event"
    },
    {
      "anonymous": false,
      "inputs": [
        {
          "indexed": false,
          "internalType": "address",
          "name": "sender",
          "type": "address"
        },
        {
          "indexed": false,
          "internalType": "uint256",
          "name": "ktyAmount",
          "type": "uint256"
        },
        {
          "indexed": false,
          "internalType": "address",
          "name": "receiver",
          "type": "address"
        }
      ],
      "name": "SentKTYtoEscrow",
      "type": "event"
    },
    {
      "anonymous": false,
      "inputs": [
        {
          "indexed": true,
          "internalType": "uint256",
          "name": "gameId",
          "type": "uint256"
        },
        {
          "indexed": true,
          "internalType": "address",
          "name": "winner",
          "type": "address"
        },
        {
          "indexed": false,
          "internalType": "uint256",
          "name": "ethAmount",
          "type": "uint256"
        },
        {
          "indexed": false,
          "internalType": "uint256",
          "name": "ktyAmount",
          "type": "uint256"
        },
        {
          "indexed": false,
          "internalType": "address",
          "name": "from",
          "type": "address"
        }
      ],
      "name": "WinnerClaimed",
      "type": "event"
    },
    {
      "constant": true,
      "inputs": [
        {
          "internalType": "uint256",
          "name": "gameId",
          "type": "uint256"
        },
        {
          "internalType": "address payable",
          "name": "claimer",
          "type": "address"
        },
        {
          "internalType": "address",
          "name": "winner",
          "type": "address"
        }
      ],
      "name": "checkWinnerCategory",
      "outputs": [
        {
          "internalType": "uint256",
          "name": "winningGroup",
          "type": "uint256"
        }
      ],
      "payable": false,
      "stateMutability": "view",
      "type": "function"
    },
    {
      "constant": true,
      "inputs": [],
      "name": "endowmentDB",
      "outputs": [
        {
          "internalType": "contract EndowmentDB",
          "name": "",
          "type": "address"
        }
      ],
      "payable": false,
      "stateMutability": "view",
      "type": "function"
    },
    {
      "constant": true,
      "inputs": [],
      "name": "escrow",
      "outputs": [
        {
          "internalType": "contract Escrow",
          "name": "",
          "type": "address"
        }
      ],
      "payable": false,
      "stateMutability": "view",
      "type": "function"
    },
    {
      "constant": true,
      "inputs": [],
      "name": "gameStore",
      "outputs": [
        {
          "internalType": "contract GameStore",
          "name": "",
          "type": "address"
        }
      ],
      "payable": false,
      "stateMutability": "view",
      "type": "function"
    },
    {
      "constant": true,
      "inputs": [],
      "name": "gameVarAndFee",
      "outputs": [
        {
          "internalType": "contract GameVarAndFee",
          "name": "",
          "type": "address"
        }
      ],
      "payable": false,
      "stateMutability": "view",
      "type": "function"
    },
    {
      "constant": true,
      "inputs": [
        {
          "internalType": "uint256",
          "name": "gameId",
          "type": "uint256"
        }
      ],
      "name": "getEndowmentShare",
      "outputs": [
        {
          "internalType": "uint256",
          "name": "winningsETH",
          "type": "uint256"
        },
        {
          "internalType": "uint256",
          "name": "winningsKTY",
          "type": "uint256"
        }
      ],
      "payable": false,
      "stateMutability": "view",
      "type": "function"
    },
    {
      "constant": true,
      "inputs": [
        {
          "internalType": "uint256",
          "name": "gameId",
          "type": "uint256"
        }
      ],
      "name": "getWinnerLoser",
      "outputs": [
        {
          "internalType": "address",
          "name": "winner",
          "type": "address"
        },
        {
          "internalType": "address",
          "name": "loser",
          "type": "address"
        },
        {
          "internalType": "uint256",
          "name": "totalBetsForLosingCorner",
          "type": "uint256"
        }
      ],
      "payable": false,
      "stateMutability": "view",
      "type": "function"
    },
    {
      "constant": true,
      "inputs": [
        {
          "internalType": "uint256",
          "name": "gameId",
          "type": "uint256"
        },
        {
          "internalType": "address payable",
          "name": "claimer",
          "type": "address"
        }
      ],
      "name": "getWinnerShare",
      "outputs": [
        {
          "internalType": "uint256",
          "name": "winningsETH",
          "type": "uint256"
        },
        {
          "internalType": "uint256",
          "name": "winningsKTY",
          "type": "uint256"
        }
      ],
      "payable": false,
      "stateMutability": "view",
      "type": "function"
    },
    {
      "constant": true,
      "inputs": [],
      "name": "gmGetterDB",
      "outputs": [
        {
          "internalType": "contract GMGetterDB",
          "name": "",
          "type": "address"
        }
      ],
      "payable": false,
      "stateMutability": "view",
      "type": "function"
    },
    {
      "constant": false,
      "inputs": [],
      "name": "initialize",
      "outputs": [],
      "payable": false,
      "stateMutability": "nonpayable",
      "type": "function"
    },
    {
      "constant": true,
      "inputs": [],
      "name": "kittieFightToken",
      "outputs": [
        {
          "internalType": "contract ERC20Standard",
          "name": "",
          "type": "address"
        }
      ],
      "payable": false,
      "stateMutability": "view",
      "type": "function"
    },
    {
      "constant": true,
      "inputs": [],
      "name": "owner",
      "outputs": [
        {
          "internalType": "address payable",
          "name": "",
          "type": "address"
        }
      ],
      "payable": false,
      "stateMutability": "view",
      "type": "function"
    },
    {
      "constant": true,
      "inputs": [],
      "name": "proxy",
      "outputs": [
        {
          "internalType": "contract ProxyBase",
          "name": "",
          "type": "address"
        }
      ],
      "payable": false,
      "stateMutability": "view",
      "type": "function"
    },
    {
      "constant": false,
      "inputs": [
        {
          "internalType": "contract ProxyBase",
          "name": "_proxy",
          "type": "address"
        }
      ],
      "name": "setProxy",
      "outputs": [],
      "payable": false,
      "stateMutability": "nonpayable",
      "type": "function"
    },
    {
      "constant": false,
      "inputs": [
        {
          "internalType": "address payable",
          "name": "newOwner",
          "type": "address"
        }
      ],
      "name": "transferOwnership",
      "outputs": [],
      "payable": false,
      "stateMutability": "nonpayable",
      "type": "function"
    },
    {
      "constant": false,
      "inputs": [
        {
          "internalType": "uint256",
          "name": "gameId",
          "type": "uint256"
        }
      ],
      "name": "generateHoneyPot",
      "outputs": [
        {
          "internalType": "uint256",
          "name": "",
          "type": "uint256"
        },
        {
          "internalType": "uint256",
          "name": "",
          "type": "uint256"
        }
      ],
      "payable": false,
      "stateMutability": "nonpayable",
      "type": "function"
    },
    {
      "constant": false,
      "inputs": [
        {
          "internalType": "uint256",
          "name": "_gameId",
          "type": "uint256"
        }
      ],
      "name": "claim",
      "outputs": [],
      "payable": true,
      "stateMutability": "payable",
      "type": "function"
    },
    {
      "constant": false,
      "inputs": [
        {
          "internalType": "address",
          "name": "user",
          "type": "address"
        }
      ],
      "name": "sendFinalizeRewards",
      "outputs": [
        {
          "internalType": "bool",
          "name": "",
          "type": "bool"
        }
      ],
      "payable": false,
      "stateMutability": "nonpayable",
      "type": "function"
    },
    {
      "constant": true,
      "inputs": [
        {
          "internalType": "uint256",
          "name": "_gameId",
          "type": "uint256"
        },
        {
          "internalType": "address",
          "name": "_account",
          "type": "address"
        }
      ],
      "name": "getWithdrawalState",
      "outputs": [
        {
          "internalType": "bool",
          "name": "",
          "type": "bool"
        }
      ],
      "payable": false,
      "stateMutability": "view",
      "type": "function"
    },
    {
      "constant": false,
      "inputs": [
        {
          "internalType": "uint256",
          "name": "_gameId",
          "type": "uint256"
        },
        {
          "internalType": "uint256",
          "name": "_state",
          "type": "uint256"
        }
      ],
      "name": "updateHoneyPotState",
      "outputs": [],
      "payable": false,
      "stateMutability": "nonpayable",
      "type": "function"
    },
    {
      "constant": false,
      "inputs": [
        {
          "internalType": "uint256",
          "name": "_kty_amount",
          "type": "uint256"
        }
      ],
      "name": "sendKTYtoEscrow",
      "outputs": [],
      "payable": false,
      "stateMutability": "nonpayable",
      "type": "function"
    },
    {
      "constant": false,
      "inputs": [],
      "name": "sendETHtoEscrow",
      "outputs": [],
      "payable": true,
      "stateMutability": "payable",
      "type": "function"
    },
    {
      "constant": false,
      "inputs": [
        {
          "internalType": "address",
          "name": "_sender",
          "type": "address"
        },
        {
          "internalType": "uint256",
          "name": "_kty_amount",
          "type": "uint256"
        }
      ],
      "name": "contributeKTY",
      "outputs": [
        {
          "internalType": "bool",
          "name": "",
          "type": "bool"
        }
      ],
      "payable": false,
      "stateMutability": "nonpayable",
      "type": "function"
    },
    {
      "constant": false,
      "inputs": [
        {
          "internalType": "uint256",
          "name": "_gameId",
          "type": "uint256"
        }
      ],
      "name": "contributeETH",
      "outputs": [
        {
          "internalType": "bool",
          "name": "",
          "type": "bool"
        }
      ],
      "payable": true,
      "stateMutability": "payable",
      "type": "function"
    },
    {
      "constant": false,
      "inputs": [],
      "name": "contributeETH_Ethie",
      "outputs": [
        {
          "internalType": "bool",
          "name": "",
          "type": "bool"
        }
      ],
      "payable": true,
      "stateMutability": "payable",
      "type": "function"
    },
    {
      "constant": false,
      "inputs": [
        {
          "internalType": "address payable",
          "name": "_newOwner",
          "type": "address"
        }
      ],
      "name": "transferEscrowOwnership",
      "outputs": [],
      "payable": false,
      "stateMutability": "nonpayable",
      "type": "function"
    },
    {
      "constant": false,
      "inputs": [
        {
          "internalType": "address payable",
          "name": "_someAddress",
          "type": "address"
        },
        {
          "internalType": "uint256",
          "name": "_eth_amount",
          "type": "uint256"
        },
        {
          "internalType": "uint256",
          "name": "_pool_id",
          "type": "uint256"
        }
      ],
      "name": "transferETHfromEscrowWithdrawalPool",
      "outputs": [
        {
          "internalType": "bool",
          "name": "",
          "type": "bool"
        }
      ],
      "payable": false,
      "stateMutability": "nonpayable",
      "type": "function"
    },
    {
      "constant": false,
      "inputs": [
        {
          "internalType": "address payable",
          "name": "_someAddress",
          "type": "address"
        },
        {
          "internalType": "uint256",
          "name": "_eth_amount",
          "type": "uint256"
        },
        {
          "internalType": "bool",
          "name": "invested",
          "type": "bool"
        }
      ],
      "name": "transferETHfromEscrowEarningsTracker",
      "outputs": [
        {
          "internalType": "bool",
          "name": "",
          "type": "bool"
        }
      ],
      "payable": false,
      "stateMutability": "nonpayable",
      "type": "function"
    },
    {
      "constant": false,
      "inputs": [
        {
          "internalType": "uint256",
          "name": "gameId",
          "type": "uint256"
        },
        {
          "internalType": "address",
          "name": "loser",
          "type": "address"
        }
      ],
      "name": "addETHtoPool",
      "outputs": [],
      "payable": false,
      "stateMutability": "nonpayable",
      "type": "function"
    },
    {
      "constant": false,
      "inputs": [
        {
          "internalType": "contract Escrow",
          "name": "_newEscrow",
          "type": "address"
        }
      ],
      "name": "initUpgradeEscrow",
      "outputs": [
        {
          "internalType": "bool",
          "name": "",
          "type": "bool"
        }
      ],
      "payable": false,
      "stateMutability": "nonpayable",
      "type": "function"
    },
    {
      "constant": true,
      "inputs": [],
      "name": "isEndowmentUpgradabe",
      "outputs": [
        {
          "internalType": "bool",
          "name": "",
          "type": "bool"
        }
      ],
      "payable": false,
      "stateMutability": "view",
      "type": "function"
    }
  ],
  "bytecode": "0x6080604052600080546001600160a01b031916331790556139ca806100256000396000f3fe6080604052600436106101d85760003560e01c80639f39c17711610102578063dd1ba84611610095578063ed2f634311610064578063ed2f634314610664578063f1d4be1014610697578063f2fde38b146106c1578063ff8baff5146106f4576101d8565b8063dd1ba846146105c8578063e0d8a194146105fb578063e2fdcc171461063a578063ec5568891461064f576101d8565b8063b3962bdc116100d1578063b3962bdc1461050f578063b49c0ebe1461052c578063ca2a18861461055f578063d665a71714610598576101d8565b80639f39c1771461046b578063a3b3bd7b146104ac578063adee6f2b146104c1578063b1be6469146104fa576101d8565b806342db15891161017a5780638129fc1c116101495780638129fc1c146103d55780638da5cb5b146103ea57806397107d6d146103ff5780639ebf616a14610432576101d8565b806342db15891461031f5780635d06fc01146103585780635e37283b1461036d57806363c0c46e146103c0576101d8565b806335dc0f5e116101b657806335dc0f5e1461027d578063379607f514610285578063392d5a00146102a2578063400cbf6d146102cb576101d8565b8063168f1f57146101dd5780631fc751801461020957806328d0ab581461023a575b600080fd5b3480156101e957600080fd5b506102076004803603602081101561020057600080fd5b50356106fc565b005b34801561021557600080fd5b5061021e6108dc565b604080516001600160a01b039092168252519081900360200190f35b34801561024657600080fd5b506102646004803603602081101561025d57600080fd5b50356108eb565b6040805192835260208301919091528051918290030190f35b610207610b05565b6102076004803603602081101561029b57600080fd5b5035610c30565b3480156102ae57600080fd5b506102b7610f79565b604080519115158252519081900360200190f35b3480156102d757600080fd5b506102f5600480360360208110156102ee57600080fd5b5035610f8c565b604080516001600160a01b0394851681529290931660208301528183015290519081900360600190f35b34801561032b57600080fd5b506102b76004803603604081101561034257600080fd5b506001600160a01b038135169060200135611117565b34801561036457600080fd5b5061021e611293565b34801561037957600080fd5b506103ae6004803603606081101561039057600080fd5b508035906001600160a01b03602082013581169160400135166112a2565b60408051918252519081900360200190f35b3480156103cc57600080fd5b5061021e611407565b3480156103e157600080fd5b50610207611416565b3480156103f657600080fd5b5061021e611963565b34801561040b57600080fd5b506102076004803603602081101561042257600080fd5b50356001600160a01b0316611972565b34801561043e57600080fd5b506102646004803603604081101561045557600080fd5b50803590602001356001600160a01b03166119a8565b34801561047757600080fd5b506102b76004803603606081101561048e57600080fd5b506001600160a01b0381351690602081013590604001351515611b6d565b3480156104b857600080fd5b5061021e611ca7565b3480156104cd57600080fd5b50610207600480360360408110156104e457600080fd5b50803590602001356001600160a01b0316611cb6565b34801561050657600080fd5b5061021e611e6b565b6102b76004803603602081101561052557600080fd5b5035611e7a565b34801561053857600080fd5b506102b76004803603602081101561054f57600080fd5b50356001600160a01b0316611fb0565b34801561056b57600080fd5b506102b76004803603604081101561058257600080fd5b50803590602001356001600160a01b031661205c565b3480156105a457600080fd5b50610207600480360360408110156105bb57600080fd5b5080359060200135612100565b3480156105d457600080fd5b506102b7600480360360208110156105eb57600080fd5b50356001600160a01b0316612475565b34801561060757600080fd5b506102b76004803603606081101561061e57600080fd5b506001600160a01b038135169060208101359060400135612714565b34801561064657600080fd5b5061021e6127b8565b34801561065b57600080fd5b5061021e6127c7565b34801561067057600080fd5b506102076004803603602081101561068757600080fd5b50356001600160a01b03166127d6565b3480156106a357600080fd5b50610264600480360360208110156106ba57600080fd5b50356128b6565b3480156106cd57600080fd5b50610207600480360360208110156106e457600080fd5b50356001600160a01b0316612c44565b6102b7612c86565b3361070357fe5b61072f6040518060400160405280600b81526020016a39bab832b92fb0b236b4b760a91b815250612dc4565b610773576040805162461bcd60e51b815260206004820152601060248201526f27b7363c9039bab832b91030b236b4b760811b604482015290519081900360640190fd5b6000811161078057600080fd5b6005546007546040805163a9059cbb60e01b81526001600160a01b039283166004820152602481018590529051919092169163a9059cbb9160448083019260209291908290030181600087803b1580156107d957600080fd5b505af11580156107ed573d6000803e3d6000fd5b505050506040513d602081101561080357600080fd5b5050600480546040805163712153b360e01b81529283018490526000602484018190526044840181905290516001600160a01b039092169263712153b39260648083019360209383900390910190829087803b15801561086257600080fd5b505af1158015610876573d6000803e3d6000fd5b505050506040513d602081101561088c57600080fd5b505060075460408051308152602081018490526001600160a01b0390921682820152517f93f900af773d323023f0ecf99deb1a5466a3f2445cf9c74f969fe7734583392a9181900360600190a150565b6003546001600160a01b031681565b6003546040805163292d472760e11b8152600481018490528151600093849384936001600160a01b039092169263525a8e4e926024808201939291829003018186803b15801561093a57600080fd5b505afa15801561094e573d6000803e3d6000fd5b505050506040513d604081101561096457600080fd5b5060200151905061097361392c565b60065460408051636991b5bf60e01b81526004810188905290516001600160a01b0390921691636991b5bf9160248082019260a092909190829003018186803b1580156109bf57600080fd5b505afa1580156109d3573d6000803e3d6000fd5b505050506040513d601f19601f8201168201806040525060a08110156109f857600080fd5b5060035460408051631626b1a960e21b81526004810189905290519293506000926001600160a01b039092169163589ac6a49160248082019261010092909190829003018186803b158015610a4c57600080fd5b505afa158015610a60573d6000803e3d6000fd5b505050506040513d601f19601f82011682018060405250610100811015610a8657600080fd5b506040015190506000610a9887610f8c565b9250610ad99150610acc9050620f4240610ac08660046020020151859063ffffffff612fa516565b9063ffffffff612fc916565b839063ffffffff612fde16565b9550610afa620f4240610ac08560046020020151879063ffffffff612fa516565b945050505050915091565b6000610b0f612fed565b905060003411610b1e57600080fd5b6007546040516001600160a01b03909116903480156108fc02916000818181858888f19350505050158015610b57573d6000803e3d6000fd5b50600480546040805163712153b360e01b815260009381018490523460248201526044810184905290516001600160a01b039092169263712153b3926064808401936020939083900390910190829087803b158015610bb557600080fd5b505af1158015610bc9573d6000803e3d6000fd5b505050506040513d6020811015610bdf57600080fd5b5050600754604080516001600160a01b03808516825234602083015290921682820152517f120bbc6058df2f75a9523df514b6e83e744fda1180dd8c135f2f5d0b1d15d2919181900360600190a150565b610c38613034565b6000610c42612fed565b6004805460408051636933bbd760e01b815292830186905280519394506000936001600160a01b0390921692636933bbd79260248083019392829003018186803b158015610c8f57600080fd5b505afa158015610ca3573d6000803e3d6000fd5b505050506040513d6040811015610cb957600080fd5b5051905080600514610cca57600080fd5b610cd4838361205c565b15610cde57600080fd5b600080610ceb85856119a8565b60048054604080516350b1a7cd60e01b81529283018a9052602483018490526044830185905260016064840152519395509193506001600160a01b03909116916350b1a7cd916084808201926020929091908290030181600087803b158015610d5357600080fd5b505af1158015610d67573d6000803e3d6000fd5b505050506040513d6020811015610d7d57600080fd5b50508015610e08576007546040805163430951bd60e01b81526001600160a01b038781166004830152602482018590529151919092169163430951bd9160448083019260209291908290030181600087803b158015610ddb57600080fd5b505af1158015610def573d6000803e3d6000fd5b505050506040513d6020811015610e0557600080fd5b50505b8115610e915760075460408051637b1a490960e01b81526001600160a01b0387811660048301526024820186905291519190921691637b1a49099160448083019260209291908290030181600087803b158015610e6457600080fd5b505af1158015610e78573d6000803e3d6000fd5b505050506040513d6020811015610e8e57600080fd5b50505b6004805460408051636213fc6d60e01b81529283018890526001600160a01b03878116602485015260448401869052606484018590529051911691636213fc6d9160848083019260209291908290030181600087803b158015610ef357600080fd5b505af1158015610f07573d6000803e3d6000fd5b505050506040513d6020811015610f1d57600080fd5b505060075460408051848152602081018490526001600160a01b039283168183015290519186169187917f7a334ae1c9e2881845e23ce092ac3f1ccf16297abd45c43af5b4e6d8520d1cc6919081900360600190a35050505050565b6007546001600160a01b03163014155b90565b60035460408051631ac509a960e21b8152600481018490529051600092839283926001600160a01b0390921691636b1426a491602480820192606092909190829003018186803b158015610fdf57600080fd5b505afa158015610ff3573d6000803e3d6000fd5b505050506040513d606081101561100957600080fd5b5051600654604080516331fa706760e01b8152600481018890526001600160a01b03808516602483015291519396509116916331fa706791604480820192602092909190829003018186803b15801561106157600080fd5b505afa158015611075573d6000803e3d6000fd5b505050506040513d602081101561108b57600080fd5b505160035460408051635d67a92760e11b8152600481018890526001600160a01b038085166024830152915193955091169163bacf524e91604480820192602092909190829003018186803b1580156110e357600080fd5b505afa1580156110f7573d6000803e3d6000fd5b505050506040513d602081101561110d57600080fd5b5051929491935050565b600554600754604080516323b872dd60e01b81526001600160a01b038681166004830152928316602482015260448101859052905160009392909216916323b872dd9160648082019260209290919082900301818787803b15801561117b57600080fd5b505af115801561118f573d6000803e3d6000fd5b505050506040513d60208110156111a557600080fd5b50516111b35750600061128d565b600480546040805163712153b360e01b81529283018590526000602484018190526044840181905290516001600160a01b039092169263712153b39260648083019360209383900390910190829087803b15801561121057600080fd5b505af1158015611224573d6000803e3d6000fd5b505050506040513d602081101561123a57600080fd5b5050600754604080516001600160a01b0380871682526020820186905290921682820152517f93f900af773d323023f0ecf99deb1a5466a3f2445cf9c74f969fe7734583392a9181900360600190a15060015b92915050565b6004546001600160a01b031681565b6000826001600160a01b0316826001600160a01b031614156112c657506000611400565b600654604080516316805a2960e01b8152600481018790526001600160a01b038581166024830152915182871693909216916316805a2991604480820192602092909190829003018186803b15801561131e57600080fd5b505afa158015611332573d6000803e3d6000fd5b505050506040513d602081101561134857600080fd5b50516001600160a01b0316141561136157506001611400565b60065460408051635f87206d60e01b8152600481018790526001600160a01b03858116602483015291518287169390921691635f87206d91604480820192602092909190829003018186803b1580156113b957600080fd5b505afa1580156113cd573d6000803e3d6000fd5b505050506040513d60208110156113e357600080fd5b50516001600160a01b031614156113fc57506002611400565b5060035b9392505050565b6005546001600160a01b031681565b6000546001600160a01b0316331461142a57fe5b600154604080518082018252600b81526a22b73237bbb6b2b73a222160a91b60208083019182529251633581777360e01b8152600481019384528251602482015282516001600160a01b03909516946335817773949283926044019180838360005b838110156114a457818101518382015260200161148c565b50505050905090810190601f1680156114d15780820380516001836020036101000a031916815260200191505b509250505060206040518083038186803b1580156114ee57600080fd5b505afa158015611502573d6000803e3d6000fd5b505050506040513d602081101561151857600080fd5b5051600480546001600160a01b0319166001600160a01b03928316178155600154604080518082018252600d81526c47616d65566172416e6446656560981b60208083019182529251633581777360e01b8152948501928352815160248601528151939095169463358177739491938392604401919080838360005b838110156115ac578181015183820152602001611594565b50505050905090810190601f1680156115d95780820380516001836020036101000a031916815260200191505b509250505060206040518083038186803b1580156115f657600080fd5b505afa15801561160a573d6000803e3d6000fd5b505050506040513d602081101561162057600080fd5b5051600280546001600160a01b0319166001600160a01b03928316179055600154604080518082018252601081526f25b4ba3a34b2a334b3b43a2a37b5b2b760811b60208083019182529251633581777360e01b815260048101938452825160248201528251949095169463358177739492939283926044909201919080838360005b838110156116bb5781810151838201526020016116a3565b50505050905090810190601f1680156116e85780820380516001836020036101000a031916815260200191505b509250505060206040518083038186803b15801561170557600080fd5b505afa158015611719573d6000803e3d6000fd5b505050506040513d602081101561172f57600080fd5b5051600580546001600160a01b0319166001600160a01b03928316179055600154604080518082018252600981526847616d6553746f726560b81b60208083019182529251633581777360e01b815260048101938452825160248201528251949095169463358177739492939283926044909201919080838360005b838110156117c35781810151838201526020016117ab565b50505050905090810190601f1680156117f05780820380516001836020036101000a031916815260200191505b509250505060206040518083038186803b15801561180d57600080fd5b505afa158015611821573d6000803e3d6000fd5b505050506040513d602081101561183757600080fd5b5051600680546001600160a01b0319166001600160a01b03928316179055600154604080518082018252600a81526923a6a3b2ba3a32b9222160b11b60208083019182529251633581777360e01b815260048101938452825160248201528251949095169463358177739492939283926044909201919080838360005b838110156118cc5781810151838201526020016118b4565b50505050905090810190601f1680156118f95780820380516001836020036101000a031916815260200191505b509250505060206040518083038186803b15801561191657600080fd5b505afa15801561192a573d6000803e3d6000fd5b505050506040513d602081101561194057600080fd5b5051600380546001600160a01b0319166001600160a01b03909216919091179055565b6000546001600160a01b031681565b6000546001600160a01b0316331461198657fe5b600180546001600160a01b0319166001600160a01b0392909216919091179055565b6000806000806119b786610f8c565b919350909150506001600160a01b0382166119d157600080fd5b6003546040805163058aa64b60e11b8152600481018990526001600160a01b038881166024830152915160009384931691630b154c96916044808301926080929190829003018186803b158015611a2757600080fd5b505afa158015611a3b573d6000803e3d6000fd5b505050506040513d6080811015611a5157600080fd5b50805160209091015190925090506001600160a01b0387811690851614801590611a8d5750836001600160a01b0316816001600160a01b031614155b15611aa3575060009450849350611b6692505050565b6000611ab08989876112a2565b9050846001600160a01b0316886001600160a01b03161415611b4f576003546040805163dd99717d60e01b8152600481018c90526001600160a01b038b811660248301529151919092169163dd99717d916044808301926020929190829003018186803b158015611b2057600080fd5b505afa158015611b34573d6000803e3d6000fd5b505050506040513d6020811015611b4a57600080fd5b505192505b611b5b8482858c6130d2565b909750955050505050505b9250929050565b60006040518060400160405280600f81526020016e22b0b93734b733b9aa3930b1b5b2b960891b815250611ba081613283565b82611c9057600480546040805163e7abb19760e01b8152928301879052516001600160a01b039091169163e7abb19791602480830192600092919082900301818387803b158015611bf057600080fd5b505af1158015611c04573d6000803e3d6000fd5b505060075460408051637b1a490960e01b81526001600160a01b038a81166004830152602482018a90529151919092169350637b1a4909925060448083019260209291908290030181600087803b158015611c5e57600080fd5b505af1158015611c72573d6000803e3d6000fd5b505050506040513d6020811015611c8857600080fd5b50611c9c9050565b611c9a85856133fc565b505b506001949350505050565b6002546001600160a01b031681565b6040518060400160405280600b81526020016a23b0b6b2a6b0b730b3b2b960a91b815250611ce381613283565b60035460408051635d67a92760e11b8152600481018690526001600160a01b0385811660248301529151600093929092169163bacf524e91604480820192602092909190829003018186803b158015611d3b57600080fd5b505afa158015611d4f573d6000803e3d6000fd5b505050506040513d6020811015611d6557600080fd5b50516002546040805163aa7ed99b60e01b81529051929350600092611df892620f424092610ac0926001600160a01b039092169163aa7ed99b91600480820192602092909190829003018186803b158015611dbf57600080fd5b505afa158015611dd3573d6000803e3d6000fd5b505050506040513d6020811015611de957600080fd5b5051859063ffffffff612fa516565b600480546040805163fe4d076560e01b815292830189905260248301849052519293506001600160a01b03169163fe4d07659160448082019260009290919082900301818387803b158015611e4c57600080fd5b505af1158015611e60573d6000803e3d6000fd5b505050505050505050565b6006546001600160a01b031681565b600080611e85612fed565b905060003411611e9457600080fd5b6007546040516001600160a01b03909116903480156108fc02916000818181858888f19350505050611eca576000915050611fab565b60048054604080516350b1a7cd60e01b81529283018690526000602484018190523460448501526064840181905290516001600160a01b03909216926350b1a7cd9260848083019360209383900390910190829087803b158015611f2d57600080fd5b505af1158015611f41573d6000803e3d6000fd5b505050506040513d6020811015611f5757600080fd5b5050600754604080516001600160a01b03808516825234602083015290921682820152517f120bbc6058df2f75a9523df514b6e83e744fda1180dd8c135f2f5d0b1d15d2919181900360600190a160019150505b919050565b60006040518060400160405280600b81526020016a23b0b6b2a6b0b730b3b2b960a91b815250611fdf81613283565b6002546040805163d693a98960e01b815290516000926001600160a01b03169163d693a989916004808301926020929190829003018186803b15801561202457600080fd5b505afa158015612038573d6000803e3d6000fd5b505050506040513d602081101561204e57600080fd5b50519050611c9c8482613509565b600480546040805163231eb69160e01b81529283018590526001600160a01b03848116602485015281516000948594859493169263231eb69192604480840193829003018186803b1580156120b057600080fd5b505afa1580156120c4573d6000803e3d6000fd5b505050506040513d60408110156120da57600080fd5b508051602090910151909250905081158015906120f75750600081115b95945050505050565b6040518060400160405280600b81526020016a23b0b6b2a6b0b730b3b2b960a91b81525061212d81613283565b6000600583141561226357600080612144866108eb565b600480546040805163712153b360e01b81529283018490526024830185905260006044840181905290519496509294506001600160a01b03169263712153b392606480840193602093929083900390910190829087803b1580156121a757600080fd5b505af11580156121bb573d6000803e3d6000fd5b505050506040513d60208110156121d157600080fd5b505060048054604080516350b1a7cd60e01b8152928301899052602483018490526044830185905260016064840152516001600160a01b03909116916350b1a7cd9160848083019260209291908290030181600087803b15801561223457600080fd5b505af1158015612248573d6000803e3d6000fd5b505050506040513d602081101561225e57600080fd5b505050505b6004831415612405576004805460408051637cee087960e01b8152928301879052805160009384936001600160a01b031692637cee087992602480840193829003018186803b1580156122b557600080fd5b505afa1580156122c9573d6000803e3d6000fd5b505050506040513d60408110156122df57600080fd5b508051602091820151600480546040805163712153b360e01b81529283018490526024830185905260006044840181905290519497509295506001600160a01b03169363712153b39360648084019492939192918390030190829087803b15801561234957600080fd5b505af115801561235d573d6000803e3d6000fd5b505050506040513d602081101561237357600080fd5b505060048054604080516350b1a7cd60e01b8152928301899052602483018490526044830185905260016064840152516001600160a01b03909116916350b1a7cd9160848083019260209291908290030181600087803b1580156123d657600080fd5b505af11580156123ea573d6000803e3d6000fd5b505050506040513d602081101561240057600080fd5b505050505b6004805460408051634cb55b0560e11b815292830187905260248301869052516001600160a01b039091169163996ab60a91604480830192600092919082900301818387803b15801561245757600080fd5b505af115801561246b573d6000803e3d6000fd5b5050505050505050565b60003361247e57fe5b6124aa6040518060400160405280600b81526020016a39bab832b92fb0b236b4b760a91b815250612dc4565b6124ee576040805162461bcd60e51b815260206004820152601060248201526f27b7363c9039bab832b91030b236b4b760811b604482015290519081900360640190fd5b6005546040805163189acdbd60e31b81526001600160a01b03928316600482015290519184169163c4d66de89160248082019260009290919082900301818387803b15801561253c57600080fd5b505af1158015612550573d6000803e3d6000fd5b50506007546001600160a01b03161591506126ef90505760075460408051637b1a490960e01b81526001600160a01b0385811660048301529092168031602484015290519091637b1a49099160448083019260209291908290030181600087803b1580156125bd57600080fd5b505af11580156125d1573d6000803e3d6000fd5b505050506040513d60208110156125e757600080fd5b5050600554600754604080516370a0823160e01b81526001600160a01b039283166004820152905160009392909216916370a0823191602480820192602092909190829003018186803b15801561263d57600080fd5b505afa158015612651573d6000803e3d6000fd5b505050506040513d602081101561266757600080fd5b50516007546040805163430951bd60e01b81526001600160a01b03878116600483015260248201859052915193945091169163430951bd916044808201926020929091908290030181600087803b1580156126c157600080fd5b505af11580156126d5573d6000803e3d6000fd5b505050506040513d60208110156126eb57600080fd5b5050505b50600780546001600160a01b0383166001600160a01b03199091161790556001919050565b60006040518060400160405280600c81526020016b15da5d1a191c985dd41bdbdb60a21b81525061274481613283565b600480546040805163292eff5b60e01b815292830187905260248301869052516001600160a01b039091169163292eff5b91604480830192600092919082900301818387803b15801561279657600080fd5b505af11580156127aa573d6000803e3d6000fd5b50505050611c9a85856133fc565b6007546001600160a01b031681565b6001546001600160a01b031681565b336127dd57fe5b6128096040518060400160405280600b81526020016a39bab832b92fb0b236b4b760a91b815250612dc4565b61284d576040805162461bcd60e51b815260206004820152601060248201526f27b7363c9039bab832b91030b236b4b760811b604482015290519081900360640190fd5b6007546040805163f2fde38b60e01b81526001600160a01b0384811660048301529151919092169163f2fde38b91602480830192600092919082900301818387803b15801561289b57600080fd5b505af11580156128af573d6000803e3d6000fd5b5050505050565b6000806040518060400160405280600c81526020016b23b0b6b2a1b932b0ba34b7b760a11b8152506128e781613283565b6001546040805180820182526016815275486f6e6579706f74416c6c6f636174696f6e416c676f60501b60208083019182529251633581777360e01b81526004810193845282516024820152825160009586956060956001600160a01b0390921694633581777394929391928392604490910191908083838c5b83811015612979578181015183820152602001612961565b50505050905090810190601f1680156129a65780820380516001836020036101000a031916815260200191505b509250505060206040518083038186803b1580156129c357600080fd5b505afa1580156129d7573d6000803e3d6000fd5b505050506040513d60208110156129ed57600080fd5b5051604080516356e5a2c960e01b815290516001600160a01b03909216916356e5a2c991600480820192600092909190829003018186803b158015612a3157600080fd5b505afa158015612a45573d6000803e3d6000fd5b505050506040513d6000823e601f3d908101601f191682016040526060811015612a6e57600080fd5b81516020830151604080850180519151939592948301929184640100000000821115612a9957600080fd5b908301906020820185811115612aae57600080fd5b8251640100000000811182820188101715612ac857600080fd5b82525081516020918201929091019080838360005b83811015612af5578181015183820152602001612add565b50505050905090810190601f168015612b225780820380516001836020036101000a031916815260200191505b50604052505050925092509250600460009054906101000a90046001600160a01b03166001600160a01b031663b4f4a176888585856040518563ffffffff1660e01b81526004018085815260200184815260200183815260200180602001828103825283818151815260200191508051906020019080838360005b83811015612bb5578181015183820152602001612b9d565b50505050905090810190601f168015612be25780820380516001836020036101000a031916815260200191505b50955050505050506040805180830381600087803b158015612c0357600080fd5b505af1158015612c17573d6000803e3d6000fd5b505050506040513d6040811015612c2d57600080fd5b508051602090910151909650945050505050915091565b6000546001600160a01b03163314612c5857fe5b6001600160a01b03811615612c8357600080546001600160a01b0319166001600160a01b0383161790555b50565b60006040518060400160405280600f81526020016e22b0b93734b733b9aa3930b1b5b2b960891b815250612cb981613283565b6000612cc3612fed565b905060003411612cd257600080fd5b6007546040516001600160a01b03909116903480156108fc02916000818181858888f19350505050612d08576000925050612dc0565b6004805460408051631dce01cf60e31b81523493810193909352516001600160a01b039091169163ee700e7891602480830192600092919082900301818387803b158015612d5557600080fd5b505af1158015612d69573d6000803e3d6000fd5b5050600754604080516001600160a01b03808716825234602083015290921682820152517f120bbc6058df2f75a9523df514b6e83e744fda1180dd8c135f2f5d0b1d15d2919350908190036060019150a160019250505b5090565b60015460408051808201825260068152652937b632a22160d11b60208083019182529251633581777360e01b8152600481019384528251602482015282516000956001600160a01b0316946335817773949390928392604490910191908083838b5b83811015612e3e578181015183820152602001612e26565b50505050905090810190601f168015612e6b5780820380516001836020036101000a031916815260200191505b509250505060206040518083038186803b158015612e8857600080fd5b505afa158015612e9c573d6000803e3d6000fd5b505050506040513d6020811015612eb257600080fd5b50516001600160a01b0316636c9cd09783612ecb612fed565b604080516001600160e01b031960e086901b1681526001600160a01b038316602482015260048101918252835160448201528351829160640190602086019080838360005b83811015612f28578181015183820152602001612f10565b50505050905090810190601f168015612f555780820380516001836020036101000a031916815260200191505b50935050505060206040518083038186803b158015612f7357600080fd5b505afa158015612f87573d6000803e3d6000fd5b505050506040513d6020811015612f9d57600080fd5b505192915050565b600082612fb45750600061128d565b82820282848281612fc157fe5b041461140057fe5b600080828481612fd557fe5b04949350505050565b60008282018381101561140057fe5b6001546000906001600160a01b03163314613009575033610f89565b6000601436036000602052601481602c3750506020516001600160a01b03811661302f57fe5b905090565b6001546001600160a01b031661307c576040805162461bcd60e51b81526020600482015260086024820152674e6f2050726f787960c01b604482015290519081900360640190fd5b6001546001600160a01b031633146130d0576040805162461bcd60e51b81526020600482015260126024820152714f6e6c79207468726f7567682050726f787960701b604482015290519081900360640190fd5b565b6000806130dd61392c565b60065460408051636991b5bf60e01b81526004810187905290516001600160a01b0390921691636991b5bf9160248082019260a092909190829003018186803b15801561312957600080fd5b505afa15801561313d573d6000803e3d6000fd5b505050506040513d601f19601f8201168201806040525060a081101561316257600080fd5b506003546040805163292d472760e11b81526004810188905281519394506000936001600160a01b039093169263525a8e4e92602480840193919291829003018186803b1580156131b257600080fd5b505afa1580156131c6573d6000803e3d6000fd5b505050506040513d60408110156131dc57600080fd5b50602001519050600061320d620f4240610ac0858b600581106131fb57fe5b60200201518c9063ffffffff612fa516565b90506000613239620f4240610ac0868c6005811061322757fe5b6020020151869063ffffffff612fa516565b9050886003141561325d5761325081838a8a6135eb565b955095505050505061327a565b61326d888363ffffffff612fde16565b9550935061327a92505050565b94509492505050565b6001546001600160a01b03166132cb576040805162461bcd60e51b81526020600482015260086024820152674e6f2050726f787960c01b604482015290519081900360640190fd5b600154604051633581777360e01b81526020600482018181528451602484015284516000946001600160a01b0316936335817773938793928392604401918501908083838b5b83811015613329578181015183820152602001613311565b50505050905090810190601f1680156133565780820380516001836020036101000a031916815260200191505b509250505060206040518083038186803b15801561337357600080fd5b505afa158015613387573d6000803e3d6000fd5b505050506040513d602081101561339d57600080fd5b505190506001600160a01b0381166133b157fe5b336001600160a01b038216146133f85760405162461bcd60e51b815260040180806020018281038252602d815260200180613969602d913960400191505060405180910390fd5b5050565b60075460408051637b1a490960e01b81526001600160a01b0385811660048301526024820185905291516000939290921691637b1a49099160448082019260209290919082900301818787803b15801561345557600080fd5b505af1158015613469573d6000803e3d6000fd5b505050506040513d602081101561347f57600080fd5b5050600480546040805163712153b360e01b81526000938101849052602481018690526001604482015290516001600160a01b039092169263712153b3926064808401936020939083900390910190829087803b1580156134df57600080fd5b505af11580156134f3573d6000803e3d6000fd5b505050506040513d6020811015611c9c57600080fd5b6007546040805163430951bd60e01b81526001600160a01b038581166004830152602482018590529151600093929092169163430951bd9160448082019260209290919082900301818787803b15801561356257600080fd5b505af1158015613576573d6000803e3d6000fd5b505050506040513d602081101561358c57600080fd5b5050600480546040805163712153b360e01b81529283018590526000602484018190526001604485015290516001600160a01b039092169263712153b39260648083019360209383900390910190829087803b1580156134df57600080fd5b6000806135f661394a565b60035460408051631ac509a960e21b81526004810187905290516001600160a01b0390921691636b1426a491602480820192606092909190829003018186803b15801561364257600080fd5b505afa158015613656573d6000803e3d6000fd5b505050506040513d606081101561366c57600080fd5b5080516020808301516040938401516001600160a01b03908116868601529081169185018290529182168452600354835163058aa64b60e11b8152600481018990526024810192909252925160009390921691630b154c9691604480820192608092909190829003018186803b1580156136e557600080fd5b505afa1580156136f9573d6000803e3d6000fd5b505050506040513d608081101561370f57600080fd5b5051600354604080850151815163058aa64b60e11b8152600481018a90526001600160a01b0391821660248201529151939450600093921691630b154c9691604480820192608092909190829003018186803b15801561376e57600080fd5b505afa158015613782573d6000803e3d6000fd5b505050506040513d608081101561379857600080fd5b505160035484516040805163dd99717d60e01b8152600481018b90526001600160a01b0392831660248201529051939450600093919092169163dd99717d916044808301926020929190829003018186803b1580156137f657600080fd5b505afa15801561380a573d6000803e3d6000fd5b505050506040513d602081101561382057600080fd5b5051600354855160408051635d67a92760e11b8152600481018c90526001600160a01b0392831660248201529051939450600093919092169163bacf524e916044808301926020929190829003018186803b15801561387e57600080fd5b505afa158015613892573d6000803e3d6000fd5b505050506040513d60208110156138a857600080fd5b505190506138ce826138c28581858963ffffffff61391a16565b9063ffffffff61391a16565b90506138e481610ac08c8c63ffffffff612fa516565b99506138fa81610ac08d8c63ffffffff612fa516565b9a5061390c898b63ffffffff612fde16565b9b9950505050505050505050565b60008282111561392657fe5b50900390565b6040518060a001604052806005906020820280388339509192915050565b6040518060600160405280600390602082028038833950919291505056fe416363657373206973206f6e6c7920616c6c6f7765642066726f6d20737065636966696320636f6e7472616374a265627a7a72315820a547af29098b5c1563e13b02db5cd1326a2a1267cfbc3281add50b585bcd30e264736f6c63430005110032",
  "source": "/**\n * @title EndowmentFund\n */\n//\n// This program is free software: you can redistribute it and/or modify\n// it under the terms of the GNU General Public License as published by\n// the Free Software Foundation, either version 3 of the License, or\n// (at your option) any later version.\n\n// This program is distributed in the hope that it will be useful,\n// but WITHOUT ANY WARRANTY; without even the implied warranty of\n// MERCHANTABILITY or FITNESS FOR A PARTICULAR PURPOSE.  See the\n// GNU General Public License for more details.\n\n// You should have received a copy of the GNU General Public License\n// along with this program.  If not, see <http://www.gnu.org/licenses/>.\n\npragma solidity ^0.5.5;\n\nimport \"../proxy/Proxied.sol\";\nimport \"../../authority/Guard.sol\";\nimport \"./Distribution.sol\";\nimport \"../endowment/HoneypotAllocationAlgo.sol\";\n\n/**\n * @title EndowmentFund\n * @dev Responsible for : manage funds\n * @author @vikrammndal @wafflemakr @Xaleee @ziweidream\n */\n\ncontract EndowmentFund is Distribution, Guard {\n    using SafeMath for uint256;\n\n    Escrow public escrow;\n\n    event WinnerClaimed(uint indexed gameId, address indexed winner, uint256 ethAmount, uint256 ktyAmount, address from);\n    event SentKTYtoEscrow(address sender, uint256 ktyAmount, address receiver);\n    event SentETHtoEscrow(address sender, uint256 ethAmount, address receiver);\n\n    enum HoneypotState {\n        created,\n        assigned,\n        gameScheduled,\n        gameStarted,\n        forefeited,\n        claiming,\n        dissolved\n    }\n\n    /**\n    * @dev check if enough funds present and maintains balance of tokens in DB\n    */\n    function generateHoneyPot(uint256 gameId)\n    external\n    onlyContract(CONTRACT_NAME_GAMECREATION)\n    returns (uint, uint) {\n        (\n          uint ktyAllocated,\n          uint ethAllocated,\n          string memory honeypotClass\n        ) = HoneypotAllocationAlgo(proxy.getContract(CONTRACT_NAME_HONEYPOT_ALLOCATION_ALGO)).calculateAllocationToHoneypot();\n        return (endowmentDB.generateHoneyPot(gameId, ktyAllocated, ethAllocated, honeypotClass));\n    }\n\n    /**\n    * @dev winner claims\n    */\n    function claim(uint256 _gameId) external onlyProxy payable {\n        address payable msgSender = address(uint160(getOriginalSender()));\n\n        // Honeypot status\n        (uint status, /*uint256 claimTime*/) = endowmentDB.getHoneypotState(_gameId);\n\n        require(uint(HoneypotState.claiming) == status);\n\n        // require(now < claimTime, \"2\");\n\n        require(!getWithdrawalState(_gameId, msgSender));\n\n        (uint256 winningsETH, uint256 winningsKTY) = getWinnerShare(_gameId, msgSender);\n\n        // make sure enough funds in HoneyPot and update HoneyPot balance\n        endowmentDB.updateHoneyPotFund(_gameId, winningsKTY, winningsETH, true);\n\n        if (winningsKTY > 0){\n            // transfer the KTY\n            escrow.transferKTY(msgSender, winningsKTY);\n        }\n\n        if (winningsETH > 0){\n            // transfer the ETH\n            escrow.transferETH(msgSender, winningsETH);\n            // transferETHfromEscrow(msgSender, winningsETH);\n        }\n\n        // log tokens sent to an address\n        endowmentDB.setTotalDebit(_gameId, msgSender, winningsETH, winningsKTY);\n\n        emit WinnerClaimed(_gameId, msgSender, winningsETH, winningsKTY, address(escrow));\n    }\n\n    /**\n    * @dev send reward to the user that pressed finalize button\n    */\n    function sendFinalizeRewards(address user)\n        external\n        onlyContract(CONTRACT_NAME_GAMEMANAGER)\n        returns(bool)\n    {\n        uint reward = gameVarAndFee.getFinalizeRewards();\n        transferKTYfromEscrow(address(uint160(user)), reward);\n        return true;\n    }\n\n    function getWithdrawalState(uint _gameId, address _account) public view returns (bool) {\n        (uint256 totalETHdebited, uint256 totalKTYdebited) = endowmentDB.getTotalDebit(_gameId, _account);\n        return ((totalETHdebited > 0) && (totalKTYdebited > 0));\n    }\n\n    /**\n    * @dev updateHoneyPotState\n    */\n    function updateHoneyPotState(uint256 _gameId, uint _state) public onlyContract(CONTRACT_NAME_GAMEMANAGER) {\n        uint256 claimTime;\n        if (_state == uint(HoneypotState.claiming)){\n            //Send immediately initialEth+15%oflosing and 15%ofKTY to endowment\n            (uint256 winningsETH, uint256 winningsKTY) = getEndowmentShare(_gameId);\n            endowmentDB.updateEndowmentFund(winningsKTY, winningsETH, false);\n            endowmentDB.updateHoneyPotFund(_gameId, winningsKTY, winningsETH, true);\n        }\n        if(_state == uint(HoneypotState.forefeited)) {\n            (uint256 eth, uint256 kty) = endowmentDB.getHoneypotTotal(_gameId);\n            endowmentDB.updateEndowmentFund(kty, eth, false);\n            endowmentDB.updateHoneyPotFund(_gameId, kty, eth, true);\n        }\n        endowmentDB.setHoneypotState(_gameId, _state);\n    }\n\n    /**\n     * @dev Send KTY from EndowmentFund to Escrow\n     */\n    function sendKTYtoEscrow(uint256 _kty_amount)\n        external\n        onlySuperAdmin\n    {\n        require(_kty_amount > 0);\n\n        kittieFightToken.transfer(address(escrow), _kty_amount);\n\n        endowmentDB.updateEndowmentFund(_kty_amount, 0, false);\n\n        emit SentKTYtoEscrow(address(this), _kty_amount, address(escrow));\n    }\n\n    /**\n     * @dev Send eth to Escrow\n     */\n    function sendETHtoEscrow() external payable {\n        address msgSender = getOriginalSender();\n\n        require(msg.value > 0);\n\n        address(escrow).transfer(msg.value);\n\n        endowmentDB.updateEndowmentFund(0, msg.value, false);\n\n        emit SentETHtoEscrow(msgSender, msg.value, address(escrow));\n    }\n\n    /**\n     * @dev accepts KTY. KTY is transfered to in escrow\n     */\n     \n    function contributeKTY(address _sender, uint256 _kty_amount) external returns(bool) {\n        // do transfer of KTY\n        if (!kittieFightToken.transferFrom(_sender, address(escrow), _kty_amount)){\n            return false;\n        }\n\n        endowmentDB.updateEndowmentFund(_kty_amount, 0, false);\n\n        emit SentKTYtoEscrow(_sender, _kty_amount, address(escrow));\n\n        return true;\n    }\n\n    /**\n     * @dev GM calls\n     */\n    function contributeETH(uint _gameId) external payable returns(bool) {\n        // require(address(escrow) != address(0));\n        address msgSender = getOriginalSender();\n\n        require(msg.value > 0);\n\n        // transfer ETH to Escrow\n        if (!address(escrow).send(msg.value)){\n            return false;\n        }\n\n        endowmentDB.updateHoneyPotFund(_gameId, 0, msg.value, false);\n\n        emit SentETHtoEscrow(msgSender, msg.value, address(escrow));\n\n        return true;\n    }\n\n    function contributeETH_Ethie()\n    external\n    onlyContract(CONTRACT_NAME_EARNINGS_TRACKER)\n    payable\n    returns(bool)\n    {\n        // require(address(escrow) != address(0));\n        address msgSender = getOriginalSender();\n\n        require(msg.value > 0);\n\n        // transfer ETH to Escrow\n        if (!address(escrow).send(msg.value)){\n            return false;\n        }\n\n        endowmentDB.updateInvestment(msg.value);\n\n        emit SentETHtoEscrow(msgSender, msg.value, address(escrow));\n\n        return true;\n    }\n\n    /**\n    * @notice MUST BE DONE BEFORE UPGRADING ENDOWMENT AS IT IS THE OWNER\n    * @dev change Escrow contract owner before UPGRADING ENDOWMENT AS IT IS THE OWNER\n    */\n    function transferEscrowOwnership(address payable _newOwner) external onlySuperAdmin {\n        escrow.transferOwnership(_newOwner);\n    }\n\n    /**\n    * @dev transfer Escrow ETH funds\n    */\n    function transferETHfromEscrow(address payable _someAddress, uint256 _eth_amount)\n    private\n    returns(bool){\n        // require(address(_someAddress) != address(0));\n\n        // transfer the ETH\n        escrow.transferETH(_someAddress, _eth_amount);\n\n        // Update DB. true = deductFunds\n        endowmentDB.updateEndowmentFund(0, _eth_amount, true);\n\n        return true;\n    }\n\n    function transferETHfromEscrowWithdrawalPool(address payable _someAddress, uint256 _eth_amount, uint256 _pool_id)\n        public\n        onlyContract(CONTRACT_NAME_WITHDRAW_POOL)\n        returns(bool)\n    {\n        endowmentDB.subETHfromPool(_eth_amount, _pool_id);\n        transferETHfromEscrow(_someAddress, _eth_amount);\n        return true;\n    }\n\n    function transferETHfromEscrowEarningsTracker(address payable _someAddress, uint256 _eth_amount, bool invested)\n        public\n        onlyContract(CONTRACT_NAME_EARNINGS_TRACKER)\n        returns(bool)\n    {\n        if(!invested) {\n            endowmentDB.subInvestment(_eth_amount);\n            escrow.transferETH(_someAddress, _eth_amount);\n        }\n        else\n            transferETHfromEscrow(_someAddress, _eth_amount);\n        return true;\n    }\n\n    /**\n    * @dev transfer Escrow KFT funds\n    */\n    function transferKTYfromEscrow(address payable _someAddress, uint256 _kty_amount)\n    private\n    returns(bool){\n        // require(address(_someAddress) != address(0));\n\n        // transfer the KTY\n        escrow.transferKTY(_someAddress, _kty_amount);\n\n        // Update DB. true = deductFunds\n        endowmentDB.updateEndowmentFund(_kty_amount, 0, true);\n\n        return true;\n    }\n\n    function addETHtoPool(uint256 gameId, address loser)\n        external\n        onlyContract(CONTRACT_NAME_GAMEMANAGER)\n    {\n        uint256 totalEthForLoser = gmGetterDB.getTotalBet(gameId, loser);\n        uint256 ETHtoPool = totalEthForLoser.mul(gameVarAndFee.getPercentageForPool()).div(1000000);\n        endowmentDB.addETHtoPool(gameId, ETHtoPool);\n    }\n\n    /**\n    * @dev Initialize or Upgrade Escrow\n    * @notice BEFORE CALLING: Deploy escrow contract and set the owner as EndowmentFund contract\n    */\n    function initUpgradeEscrow(Escrow _newEscrow) external onlySuperAdmin returns(bool){\n\n        // require(address(_newEscrow) != address(0));\n        _newEscrow.initialize(kittieFightToken);\n\n        // check ownership\n        // require(_newEscrow.owner() == address(this));\n\n        // KTY is set\n        // require(_newEscrow.getKTYaddress() != address(0));\n\n        if (address(escrow) != address(0)){ // Transfer if any funds\n\n            // transfer all the ETH\n            escrow.transferETH(address(_newEscrow), address(escrow).balance);\n\n            // transfer all the KTY\n            uint256 ktyBalance = kittieFightToken.balanceOf(address(escrow));\n            escrow.transferKTY(address(_newEscrow), ktyBalance);\n\n        }\n\n        escrow = _newEscrow;\n        return true;\n    }\n\n\n    /**\n     * @dev Do not upgrade Endowment if owner of escrow is still this contract's address\n     * Steps:\n     * deploy new Endowment\n     * set owner of escrow to new Endowment adrress using endowment.transferEscrowOwnership(new Endowment adrress)\n     * than set the new Endowment adrress in proxy\n     */\n    function isEndowmentUpgradabe() public view returns(bool){\n        return (address(escrow.owner) != address(this));\n    }\n}\n",
  "sourcePath": "/Users/ziweizhang/Desktop/kittifight-balancer/contracts/contracts/modules/endowment/EndowmentFund.sol",
  "compiler": {
    "name": "solc",
    "version": "0.5.17+commit.d19bba13.Emscripten.clang"
  },
  "schemaVersion": "3.0.23",
  "updatedAt": "2020-05-30T18:43:01.297Z",
  "networkType": "ethereum",
  "devdoc": {
    "author": "@vikrammndal @wafflemakr @Xaleee @ziweidream",
    "details": "Responsible for : manage funds",
    "methods": {
      "claim(uint256)": {
        "details": "winner claims"
      },
      "contributeETH(uint256)": {
        "details": "GM calls"
      },
      "contributeKTY(address,uint256)": {
        "details": "accepts KTY. KTY is transfered to in escrow"
      },
      "generateHoneyPot(uint256)": {
        "details": "check if enough funds present and maintains balance of tokens in DB"
      },
      "initUpgradeEscrow(address)": {
        "details": "Initialize or Upgrade Escrow"
      },
      "initialize()": {
        "details": "Sets related contractsCan be called only by the owner of this contract"
      },
      "isEndowmentUpgradabe()": {
        "details": "Do not upgrade Endowment if owner of escrow is still this contract's address Steps: deploy new Endowment set owner of escrow to new Endowment adrress using endowment.transferEscrowOwnership(new Endowment adrress) than set the new Endowment adrress in proxy"
      },
      "sendETHtoEscrow()": {
        "details": "Send eth to Escrow"
      },
      "sendFinalizeRewards(address)": {
        "details": "send reward to the user that pressed finalize button"
      },
      "sendKTYtoEscrow(uint256)": {
        "details": "Send KTY from EndowmentFund to Escrow"
      },
      "transferEscrowOwnership(address)": {
        "details": "change Escrow contract owner before UPGRADING ENDOWMENT AS IT IS THE OWNER"
      },
      "updateHoneyPotState(uint256,uint256)": {
        "details": "updateHoneyPotState"
      }
    },
    "title": "EndowmentFund"
  },
  "userdoc": {
    "methods": {
      "getWinnerShare(uint256,address)": {
        "notice": "Calculates amount of Eth the winner can claim"
      },
      "initUpgradeEscrow(address)": {
        "notice": "BEFORE CALLING: Deploy escrow contract and set the owner as EndowmentFund contract"
      },
      "setProxy(address)": {
        "notice": "Set/update address of Proxy contract"
      },
      "transferEscrowOwnership(address)": {
        "notice": "MUST BE DONE BEFORE UPGRADING ENDOWMENT AS IT IS THE OWNER"
      }
    }
  }
}