{
  "contractName": "EndowmentFund",
  "abi": [
    {
      "anonymous": false,
      "inputs": [
        {
          "indexed": false,
          "internalType": "address",
          "name": "sender",
          "type": "address"
        },
        {
          "indexed": false,
          "internalType": "uint256",
          "name": "ethAmount",
          "type": "uint256"
        },
        {
          "indexed": false,
          "internalType": "uint256",
          "name": "ktyAmount",
          "type": "uint256"
        },
        {
          "indexed": false,
          "internalType": "address",
          "name": "ktyReceiver",
          "type": "address"
        }
      ],
      "name": "EthSwappedforKTY",
      "type": "event"
    },
    {
      "anonymous": false,
      "inputs": [
        {
          "indexed": false,
          "internalType": "address",
          "name": "sender",
          "type": "address"
        },
        {
          "indexed": false,
          "internalType": "uint256",
          "name": "ethAmount",
          "type": "uint256"
        },
        {
          "indexed": false,
          "internalType": "address",
          "name": "receiver",
          "type": "address"
        }
      ],
      "name": "SentETHtoEscrow",
      "type": "event"
    },
    {
      "anonymous": false,
      "inputs": [
        {
          "indexed": false,
          "internalType": "address",
          "name": "sender",
          "type": "address"
        },
        {
          "indexed": false,
          "internalType": "uint256",
          "name": "ktyAmount",
          "type": "uint256"
        },
        {
          "indexed": false,
          "internalType": "address",
          "name": "receiver",
          "type": "address"
        }
      ],
      "name": "SentKTYtoEscrow",
      "type": "event"
    },
    {
      "anonymous": false,
      "inputs": [
        {
          "indexed": true,
          "internalType": "uint256",
          "name": "gameId",
          "type": "uint256"
        },
        {
          "indexed": true,
          "internalType": "address",
          "name": "winner",
          "type": "address"
        },
        {
          "indexed": false,
          "internalType": "uint256",
          "name": "ethAmount",
          "type": "uint256"
        },
        {
          "indexed": false,
          "internalType": "uint256",
          "name": "ktyAmount",
          "type": "uint256"
        },
        {
          "indexed": false,
          "internalType": "address",
          "name": "from",
          "type": "address"
        }
      ],
      "name": "WinnerClaimed",
      "type": "event"
    },
    {
      "constant": true,
      "inputs": [
        {
          "internalType": "uint256",
          "name": "gameId",
          "type": "uint256"
        },
        {
          "internalType": "address payable",
          "name": "claimer",
          "type": "address"
        },
        {
          "internalType": "address",
          "name": "winner",
          "type": "address"
        }
      ],
      "name": "checkWinnerCategory",
      "outputs": [
        {
          "internalType": "uint256",
          "name": "winningGroup",
          "type": "uint256"
        }
      ],
      "payable": false,
      "stateMutability": "view",
      "type": "function"
    },
    {
      "constant": true,
      "inputs": [],
      "name": "endowmentDB",
      "outputs": [
        {
          "internalType": "contract EndowmentDB",
          "name": "",
          "type": "address"
        }
      ],
      "payable": false,
      "stateMutability": "view",
      "type": "function"
    },
    {
      "constant": true,
      "inputs": [],
      "name": "escrow",
      "outputs": [
        {
          "internalType": "contract Escrow",
          "name": "",
          "type": "address"
        }
      ],
      "payable": false,
      "stateMutability": "view",
      "type": "function"
    },
    {
      "constant": true,
      "inputs": [],
      "name": "gameStore",
      "outputs": [
        {
          "internalType": "contract GameStore",
          "name": "",
          "type": "address"
        }
      ],
      "payable": false,
      "stateMutability": "view",
      "type": "function"
    },
    {
      "constant": true,
      "inputs": [],
      "name": "gameVarAndFee",
      "outputs": [
        {
          "internalType": "contract GameVarAndFee",
          "name": "",
          "type": "address"
        }
      ],
      "payable": false,
      "stateMutability": "view",
      "type": "function"
    },
    {
      "constant": true,
      "inputs": [
        {
          "internalType": "uint256",
          "name": "gameId",
          "type": "uint256"
        }
      ],
      "name": "getEndowmentShare",
      "outputs": [
        {
          "internalType": "uint256",
          "name": "winningsETH",
          "type": "uint256"
        },
        {
          "internalType": "uint256",
          "name": "winningsKTY",
          "type": "uint256"
        }
      ],
      "payable": false,
      "stateMutability": "view",
      "type": "function"
    },
    {
      "constant": true,
      "inputs": [
        {
          "internalType": "uint256",
          "name": "gameId",
          "type": "uint256"
        }
      ],
      "name": "getWinnerLoser",
      "outputs": [
        {
          "internalType": "address",
          "name": "winner",
          "type": "address"
        },
        {
          "internalType": "address",
          "name": "loser",
          "type": "address"
        },
        {
          "internalType": "uint256",
          "name": "totalBetsForLosingCorner",
          "type": "uint256"
        }
      ],
      "payable": false,
      "stateMutability": "view",
      "type": "function"
    },
    {
      "constant": true,
      "inputs": [
        {
          "internalType": "uint256",
          "name": "gameId",
          "type": "uint256"
        },
        {
          "internalType": "address payable",
          "name": "claimer",
          "type": "address"
        }
      ],
      "name": "getWinnerShare",
      "outputs": [
        {
          "internalType": "uint256",
          "name": "winningsETH",
          "type": "uint256"
        },
        {
          "internalType": "uint256",
          "name": "winningsKTY",
          "type": "uint256"
        }
      ],
      "payable": false,
      "stateMutability": "view",
      "type": "function"
    },
    {
      "constant": true,
      "inputs": [],
      "name": "gmGetterDB",
      "outputs": [
        {
          "internalType": "contract GMGetterDB",
          "name": "",
          "type": "address"
        }
      ],
      "payable": false,
      "stateMutability": "view",
      "type": "function"
    },
    {
      "constant": false,
      "inputs": [],
      "name": "initialize",
      "outputs": [],
      "payable": false,
      "stateMutability": "nonpayable",
      "type": "function"
    },
    {
      "constant": true,
      "inputs": [],
      "name": "kittieFightToken",
      "outputs": [
        {
          "internalType": "contract ERC20Standard",
          "name": "",
          "type": "address"
        }
      ],
      "payable": false,
      "stateMutability": "view",
      "type": "function"
    },
    {
      "constant": true,
      "inputs": [],
      "name": "multiSig",
      "outputs": [
        {
          "internalType": "contract Multisig5of12",
          "name": "",
          "type": "address"
        }
      ],
      "payable": false,
      "stateMutability": "view",
      "type": "function"
    },
    {
      "constant": true,
      "inputs": [],
      "name": "owner",
      "outputs": [
        {
          "internalType": "address payable",
          "name": "",
          "type": "address"
        }
      ],
      "payable": false,
      "stateMutability": "view",
      "type": "function"
    },
    {
      "constant": true,
      "inputs": [],
      "name": "proxy",
      "outputs": [
        {
          "internalType": "contract ProxyBase",
          "name": "",
          "type": "address"
        }
      ],
      "payable": false,
      "stateMutability": "view",
      "type": "function"
    },
    {
      "constant": false,
      "inputs": [
        {
          "internalType": "contract ProxyBase",
          "name": "_proxy",
          "type": "address"
        }
      ],
      "name": "setProxy",
      "outputs": [],
      "payable": false,
      "stateMutability": "nonpayable",
      "type": "function"
    },
    {
      "constant": false,
      "inputs": [
        {
          "internalType": "address payable",
          "name": "newOwner",
          "type": "address"
        }
      ],
      "name": "transferOwnership",
      "outputs": [],
      "payable": false,
      "stateMutability": "nonpayable",
      "type": "function"
    },
    {
      "constant": false,
      "inputs": [
        {
          "internalType": "uint256",
          "name": "_gameId",
          "type": "uint256"
        }
      ],
      "name": "claim",
      "outputs": [],
      "payable": false,
      "stateMutability": "nonpayable",
      "type": "function"
    },
    {
      "constant": false,
      "inputs": [
        {
          "internalType": "address",
          "name": "user",
          "type": "address"
        }
      ],
      "name": "sendFinalizeRewards",
      "outputs": [
        {
          "internalType": "bool",
          "name": "",
          "type": "bool"
        }
      ],
      "payable": false,
      "stateMutability": "nonpayable",
      "type": "function"
    },
    {
      "constant": true,
      "inputs": [
        {
          "internalType": "uint256",
          "name": "_gameId",
          "type": "uint256"
        },
        {
          "internalType": "address",
          "name": "_account",
          "type": "address"
        }
      ],
      "name": "getWithdrawalState",
      "outputs": [
        {
          "internalType": "bool",
          "name": "",
          "type": "bool"
        }
      ],
      "payable": false,
      "stateMutability": "view",
      "type": "function"
    },
    {
      "constant": false,
      "inputs": [
        {
          "internalType": "uint256",
          "name": "_gameId",
          "type": "uint256"
        },
        {
          "internalType": "uint256",
          "name": "_state",
          "type": "uint256"
        }
      ],
      "name": "updateHoneyPotState",
      "outputs": [],
      "payable": false,
      "stateMutability": "nonpayable",
      "type": "function"
    },
    {
      "constant": false,
      "inputs": [
        {
          "internalType": "uint256",
          "name": "_kty_amount",
          "type": "uint256"
        }
      ],
      "name": "sendKTYtoEscrow",
      "outputs": [],
      "payable": false,
      "stateMutability": "nonpayable",
      "type": "function"
    },
    {
      "constant": false,
      "inputs": [],
      "name": "sendETHtoEscrow",
      "outputs": [],
      "payable": true,
      "stateMutability": "payable",
      "type": "function"
    },
    {
      "constant": false,
      "inputs": [
        {
          "internalType": "address",
          "name": "_sender",
          "type": "address"
        },
        {
          "internalType": "uint256",
          "name": "_ether_amount_swap",
          "type": "uint256"
        },
        {
          "internalType": "uint256",
          "name": "_kty_amount",
          "type": "uint256"
        }
      ],
      "name": "contributeKTY",
      "outputs": [
        {
          "internalType": "bool",
          "name": "",
          "type": "bool"
        }
      ],
      "payable": true,
      "stateMutability": "payable",
      "type": "function"
    },
    {
      "constant": false,
      "inputs": [
        {
          "internalType": "uint256",
          "name": "_gameId",
          "type": "uint256"
        }
      ],
      "name": "contributeETH",
      "outputs": [
        {
          "internalType": "bool",
          "name": "",
          "type": "bool"
        }
      ],
      "payable": true,
      "stateMutability": "payable",
      "type": "function"
    },
    {
      "constant": false,
      "inputs": [],
      "name": "contributeETH_Ethie",
      "outputs": [
        {
          "internalType": "bool",
          "name": "",
          "type": "bool"
        }
      ],
      "payable": true,
      "stateMutability": "payable",
      "type": "function"
    },
    {
      "constant": false,
      "inputs": [
        {
          "internalType": "address payable",
          "name": "_newOwner",
          "type": "address"
        }
      ],
      "name": "transferEscrowOwnership",
      "outputs": [],
      "payable": false,
      "stateMutability": "nonpayable",
      "type": "function"
    },
    {
      "constant": false,
      "inputs": [
        {
          "internalType": "address payable",
          "name": "_someAddress",
          "type": "address"
        },
        {
          "internalType": "uint256",
          "name": "_eth_amount",
          "type": "uint256"
        },
        {
          "internalType": "uint256",
          "name": "_pool_id",
          "type": "uint256"
        }
      ],
      "name": "transferETHfromEscrowWithdrawalPool",
      "outputs": [
        {
          "internalType": "bool",
          "name": "",
          "type": "bool"
        }
      ],
      "payable": false,
      "stateMutability": "nonpayable",
      "type": "function"
    },
    {
      "constant": false,
      "inputs": [
        {
          "internalType": "address payable",
          "name": "_someAddress",
          "type": "address"
        },
        {
          "internalType": "uint256",
          "name": "_eth_amount",
          "type": "uint256"
        },
        {
          "internalType": "bool",
          "name": "invested",
          "type": "bool"
        }
      ],
      "name": "transferETHfromEscrowEarningsTracker",
      "outputs": [
        {
          "internalType": "bool",
          "name": "",
          "type": "bool"
        }
      ],
      "payable": false,
      "stateMutability": "nonpayable",
      "type": "function"
    },
    {
      "constant": false,
      "inputs": [
        {
          "internalType": "uint256",
          "name": "gameId",
          "type": "uint256"
        },
        {
          "internalType": "address",
          "name": "loser",
          "type": "address"
        }
      ],
      "name": "addETHtoPool",
      "outputs": [],
      "payable": false,
      "stateMutability": "nonpayable",
      "type": "function"
    },
    {
      "constant": false,
      "inputs": [
        {
          "internalType": "contract Escrow",
          "name": "_newEscrow",
          "type": "address"
        },
        {
          "internalType": "uint256",
          "name": "_transferNum",
          "type": "uint256"
        }
      ],
      "name": "initUpgradeEscrow",
      "outputs": [],
      "payable": false,
      "stateMutability": "nonpayable",
      "type": "function"
    }
  ],
  "bytecode": "0x6080604052336000806101000a81548173ffffffffffffffffffffffffffffffffffffffff021916908373ffffffffffffffffffffffffffffffffffffffff1602179055506166c7806100536000396000f3fe6080604052600436106101cd5760003560e01c80639f39c177116100f7578063d665a71711610095578063ecbedebc11610064578063ecbedebc14610af2578063ed2f634314610b62578063f2fde38b14610bb3578063ff8baff514610c04576101cd565b8063d665a71714610982578063e0d8a194146109c7578063e2fdcc1714610a44578063ec55688914610a9b576101cd565b8063b1be6469116100d1578063b1be646914610809578063b3962bdc14610860578063b49c0ebe146108a6578063ca2a18861461090f576101cd565b80639f39c177146106d8578063a3b3bd7b14610757578063adee6f2b146107ae576101cd565b80635d06fc011161016f5780638129fc1c1161013e5780638129fc1c146105a35780638da5cb5b146105ba57806397107d6d146106115780639ebf616a14610662576101cd565b80635d06fc011461040b5780635e37283b1461046257806363c0c46e146104f15780637820035414610548576101cd565b806335dc0f5e116101ab57806335dc0f5e146102ba57806336e0004a146102c4578063379607f51461031b578063400cbf6d14610356576101cd565b8063168f1f57146101d25780631fc751801461020d57806328d0ab5814610264575b600080fd5b3480156101de57600080fd5b5061020b600480360360208110156101f557600080fd5b8101908080359060200190929190505050610c26565b005b34801561021957600080fd5b50610222610fab565b604051808273ffffffffffffffffffffffffffffffffffffffff1673ffffffffffffffffffffffffffffffffffffffff16815260200191505060405180910390f35b34801561027057600080fd5b5061029d6004803603602081101561028757600080fd5b8101908080359060200190929190505050610fd1565b604051808381526020018281526020019250505060405180910390f35b6102c26112ef565b005b3480156102d057600080fd5b506102d9611591565b604051808273ffffffffffffffffffffffffffffffffffffffff1673ffffffffffffffffffffffffffffffffffffffff16815260200191505060405180910390f35b34801561032757600080fd5b506103546004803603602081101561033e57600080fd5b81019080803590602001909291905050506115b7565b005b34801561036257600080fd5b5061038f6004803603602081101561037957600080fd5b8101908080359060200190929190505050611b0f565b604051808473ffffffffffffffffffffffffffffffffffffffff1673ffffffffffffffffffffffffffffffffffffffff1681526020018373ffffffffffffffffffffffffffffffffffffffff1673ffffffffffffffffffffffffffffffffffffffff168152602001828152602001935050505060405180910390f35b34801561041757600080fd5b50610420611dac565b604051808273ffffffffffffffffffffffffffffffffffffffff1673ffffffffffffffffffffffffffffffffffffffff16815260200191505060405180910390f35b34801561046e57600080fd5b506104db6004803603606081101561048557600080fd5b8101908080359060200190929190803573ffffffffffffffffffffffffffffffffffffffff169060200190929190803573ffffffffffffffffffffffffffffffffffffffff169060200190929190505050611dd2565b6040518082815260200191505060405180910390f35b3480156104fd57600080fd5b50610506612059565b604051808273ffffffffffffffffffffffffffffffffffffffff1673ffffffffffffffffffffffffffffffffffffffff16815260200191505060405180910390f35b34801561055457600080fd5b506105a16004803603604081101561056b57600080fd5b81019080803573ffffffffffffffffffffffffffffffffffffffff1690602001909291908035906020019092919050505061207f565b005b3480156105af57600080fd5b506105b8612822565b005b3480156105c657600080fd5b506105cf613351565b604051808273ffffffffffffffffffffffffffffffffffffffff1673ffffffffffffffffffffffffffffffffffffffff16815260200191505060405180910390f35b34801561061d57600080fd5b506106606004803603602081101561063457600080fd5b81019080803573ffffffffffffffffffffffffffffffffffffffff169060200190929190505050613376565b005b34801561066e57600080fd5b506106bb6004803603604081101561068557600080fd5b8101908080359060200190929190803573ffffffffffffffffffffffffffffffffffffffff169060200190929190505050613410565b604051808381526020018281526020019250505060405180910390f35b3480156106e457600080fd5b5061073d600480360360608110156106fb57600080fd5b81019080803573ffffffffffffffffffffffffffffffffffffffff16906020019092919080359060200190929190803515159060200190929190505050613733565b604051808215151515815260200191505060405180910390f35b34801561076357600080fd5b5061076c61395d565b604051808273ffffffffffffffffffffffffffffffffffffffff1673ffffffffffffffffffffffffffffffffffffffff16815260200191505060405180910390f35b3480156107ba57600080fd5b50610807600480360360408110156107d157600080fd5b8101908080359060200190929190803573ffffffffffffffffffffffffffffffffffffffff169060200190929190505050613983565b005b34801561081557600080fd5b5061081e613c67565b604051808273ffffffffffffffffffffffffffffffffffffffff1673ffffffffffffffffffffffffffffffffffffffff16815260200191505060405180910390f35b61088c6004803603602081101561087657600080fd5b8101908080359060200190929190505050613c8d565b604051808215151515815260200191505060405180910390f35b3480156108b257600080fd5b506108f5600480360360208110156108c957600080fd5b81019080803573ffffffffffffffffffffffffffffffffffffffff169060200190929190505050613f40565b604051808215151515815260200191505060405180910390f35b34801561091b57600080fd5b506109686004803603604081101561093257600080fd5b8101908080359060200190929190803573ffffffffffffffffffffffffffffffffffffffff169060200190929190505050614093565b604051808215151515815260200191505060405180910390f35b34801561098e57600080fd5b506109c5600480360360408110156109a557600080fd5b8101908080359060200190929190803590602001909291905050506141a1565b005b3480156109d357600080fd5b50610a2a600480360360608110156109ea57600080fd5b81019080803573ffffffffffffffffffffffffffffffffffffffff16906020019092919080359060200190929190803590602001909291905050506146f6565b604051808215151515815260200191505060405180910390f35b348015610a5057600080fd5b50610a59614838565b604051808273ffffffffffffffffffffffffffffffffffffffff1673ffffffffffffffffffffffffffffffffffffffff16815260200191505060405180910390f35b348015610aa757600080fd5b50610ab061485e565b604051808273ffffffffffffffffffffffffffffffffffffffff1673ffffffffffffffffffffffffffffffffffffffff16815260200191505060405180910390f35b610b4860048036036060811015610b0857600080fd5b81019080803573ffffffffffffffffffffffffffffffffffffffff1690602001909291908035906020019092919080359060200190929190505050614884565b604051808215151515815260200191505060405180910390f35b348015610b6e57600080fd5b50610bb160048036036020811015610b8557600080fd5b81019080803573ffffffffffffffffffffffffffffffffffffffff169060200190929190505050614d70565b005b348015610bbf57600080fd5b50610c0260048036036020811015610bd657600080fd5b81019080803573ffffffffffffffffffffffffffffffffffffffff169060200190929190505050614f13565b005b610c0c614fe1565b604051808215151515815260200191505060405180910390f35b600073ffffffffffffffffffffffffffffffffffffffff163373ffffffffffffffffffffffffffffffffffffffff161415610c5d57fe5b610c9b6040518060400160405280600b81526020017f73757065725f61646d696e000000000000000000000000000000000000000000815250615250565b610d0d576040517f08c379a00000000000000000000000000000000000000000000000000000000081526004018080602001828103825260108152602001807f4f6e6c792073757065722061646d696e0000000000000000000000000000000081525060200191505060405180910390fd5b60008111610d1a57600080fd5b600560009054906101000a900473ffffffffffffffffffffffffffffffffffffffff1673ffffffffffffffffffffffffffffffffffffffff1663a9059cbb600860009054906101000a900473ffffffffffffffffffffffffffffffffffffffff16836040518363ffffffff1660e01b8152600401808373ffffffffffffffffffffffffffffffffffffffff1673ffffffffffffffffffffffffffffffffffffffff16815260200182815260200192505050602060405180830381600087803b158015610de557600080fd5b505af1158015610df9573d6000803e3d6000fd5b505050506040513d6020811015610e0f57600080fd5b810190808051906020019092919050505050600460009054906101000a900473ffffffffffffffffffffffffffffffffffffffff1673ffffffffffffffffffffffffffffffffffffffff1663712153b3826000806040518463ffffffff1660e01b815260040180848152602001838152602001821515151581526020019350505050602060405180830381600087803b158015610eab57600080fd5b505af1158015610ebf573d6000803e3d6000fd5b505050506040513d6020811015610ed557600080fd5b8101908080519060200190929190505050507f93f900af773d323023f0ecf99deb1a5466a3f2445cf9c74f969fe7734583392a3082600860009054906101000a900473ffffffffffffffffffffffffffffffffffffffff16604051808473ffffffffffffffffffffffffffffffffffffffff1673ffffffffffffffffffffffffffffffffffffffff1681526020018381526020018273ffffffffffffffffffffffffffffffffffffffff1673ffffffffffffffffffffffffffffffffffffffff168152602001935050505060405180910390a150565b600360009054906101000a900473ffffffffffffffffffffffffffffffffffffffff1681565b6000806000600360009054906101000a900473ffffffffffffffffffffffffffffffffffffffff1673ffffffffffffffffffffffffffffffffffffffff1663525a8e4e856040518263ffffffff1660e01b815260040180828152602001915050604080518083038186803b15801561104857600080fd5b505afa15801561105c573d6000803e3d6000fd5b505050506040513d604081101561107257600080fd5b8101908080519060200190929190805190602001909291905050509150506110986165e4565b600660009054906101000a900473ffffffffffffffffffffffffffffffffffffffff1673ffffffffffffffffffffffffffffffffffffffff16636991b5bf866040518263ffffffff1660e01b81526004018082815260200191505060a06040518083038186803b15801561110b57600080fd5b505afa15801561111f573d6000803e3d6000fd5b505050506040513d601f19601f8201168201806040525060a081101561114457600080fd5b810190809190505090506000600360009054906101000a900473ffffffffffffffffffffffffffffffffffffffff1673ffffffffffffffffffffffffffffffffffffffff1663589ac6a4876040518263ffffffff1660e01b8152600401808281526020019150506101006040518083038186803b1580156111c457600080fd5b505afa1580156111d8573d6000803e3d6000fd5b505050506040513d601f19601f820116820180604052506101008110156111fe57600080fd5b810190808051906020019092919080519060200190929190805190602001909291908051906020019092919091908260400180519060200190929190805190602001909291905050505050505092505050600061125a87611b0f565b925050506112a961129a620f424061128c8660046005811061127857fe5b6020020151856154cc90919063ffffffff16565b61550390919063ffffffff16565b8361551c90919063ffffffff16565b95506112e4620f42406112d6856004600581106112c257fe5b6020020151876154cc90919063ffffffff16565b61550390919063ffffffff16565b945050505050915091565b6040518060400160405280600b81526020017f47616d654d616e6167657200000000000000000000000000000000000000000081525061132e81615538565b611383576040517f08c379a000000000000000000000000000000000000000000000000000000000815260040180806020018281038252602d815260200180616666602d913960400191505060405180910390fd5b600061138d615783565b90506000341161139c57600080fd5b600860009054906101000a900473ffffffffffffffffffffffffffffffffffffffff1673ffffffffffffffffffffffffffffffffffffffff166108fc349081150290604051600060405180830381858888f19350505050158015611404573d6000803e3d6000fd5b50600460009054906101000a900473ffffffffffffffffffffffffffffffffffffffff1673ffffffffffffffffffffffffffffffffffffffff1663712153b360003460006040518463ffffffff1660e01b815260040180848152602001838152602001821515151581526020019350505050602060405180830381600087803b15801561149057600080fd5b505af11580156114a4573d6000803e3d6000fd5b505050506040513d60208110156114ba57600080fd5b8101908080519060200190929190505050507f120bbc6058df2f75a9523df514b6e83e744fda1180dd8c135f2f5d0b1d15d2918134600860009054906101000a900473ffffffffffffffffffffffffffffffffffffffff16604051808473ffffffffffffffffffffffffffffffffffffffff1673ffffffffffffffffffffffffffffffffffffffff1681526020018381526020018273ffffffffffffffffffffffffffffffffffffffff1673ffffffffffffffffffffffffffffffffffffffff168152602001935050505060405180910390a15050565b600760009054906101000a900473ffffffffffffffffffffffffffffffffffffffff1681565b6115bf615838565b60006115c9615783565b90506000600460009054906101000a900473ffffffffffffffffffffffffffffffffffffffff1673ffffffffffffffffffffffffffffffffffffffff16636933bbd7846040518263ffffffff1660e01b815260040180828152602001915050604080518083038186803b15801561163f57600080fd5b505afa158015611653573d6000803e3d6000fd5b505050506040513d604081101561166957600080fd5b810190808051906020019092919080519060200190929190505050509050806005600681111561169557fe5b1461169f57600080fd5b6116a98383614093565b156116b357600080fd5b6000806116c08585613410565b91509150600460009054906101000a900473ffffffffffffffffffffffffffffffffffffffff1673ffffffffffffffffffffffffffffffffffffffff166350b1a7cd86838560016040518563ffffffff1660e01b81526004018085815260200184815260200183815260200182151515158152602001945050505050602060405180830381600087803b15801561175657600080fd5b505af115801561176a573d6000803e3d6000fd5b505050506040513d602081101561178057600080fd5b810190808051906020019092919050505050600081111561196657600860009054906101000a900473ffffffffffffffffffffffffffffffffffffffff1673ffffffffffffffffffffffffffffffffffffffff1663430951bd85836040518363ffffffff1660e01b8152600401808373ffffffffffffffffffffffffffffffffffffffff1673ffffffffffffffffffffffffffffffffffffffff16815260200182815260200192505050602060405180830381600087803b15801561184457600080fd5b505af1158015611858573d6000803e3d6000fd5b505050506040513d602081101561186e57600080fd5b810190808051906020019092919050505050600860009054906101000a900473ffffffffffffffffffffffffffffffffffffffff1673ffffffffffffffffffffffffffffffffffffffff16637b1a490985846040518363ffffffff1660e01b8152600401808373ffffffffffffffffffffffffffffffffffffffff1673ffffffffffffffffffffffffffffffffffffffff16815260200182815260200192505050602060405180830381600087803b15801561192957600080fd5b505af115801561193d573d6000803e3d6000fd5b505050506040513d602081101561195357600080fd5b8101908080519060200190929190505050505b600460009054906101000a900473ffffffffffffffffffffffffffffffffffffffff1673ffffffffffffffffffffffffffffffffffffffff16636213fc6d868685856040518563ffffffff1660e01b8152600401808581526020018473ffffffffffffffffffffffffffffffffffffffff1673ffffffffffffffffffffffffffffffffffffffff168152602001838152602001828152602001945050505050602060405180830381600087803b158015611a1f57600080fd5b505af1158015611a33573d6000803e3d6000fd5b505050506040513d6020811015611a4957600080fd5b8101908080519060200190929190505050508373ffffffffffffffffffffffffffffffffffffffff16857f7a334ae1c9e2881845e23ce092ac3f1ccf16297abd45c43af5b4e6d8520d1cc68484600860009054906101000a900473ffffffffffffffffffffffffffffffffffffffff16604051808481526020018381526020018273ffffffffffffffffffffffffffffffffffffffff1673ffffffffffffffffffffffffffffffffffffffff168152602001935050505060405180910390a35050505050565b6000806000600360009054906101000a900473ffffffffffffffffffffffffffffffffffffffff1673ffffffffffffffffffffffffffffffffffffffff16636b1426a4856040518263ffffffff1660e01b81526004018082815260200191505060606040518083038186803b158015611b8757600080fd5b505afa158015611b9b573d6000803e3d6000fd5b505050506040513d6060811015611bb157600080fd5b8101908080519060200190929190805190602001909291908051906020019092919050505090505080935050600660009054906101000a900473ffffffffffffffffffffffffffffffffffffffff1673ffffffffffffffffffffffffffffffffffffffff166331fa706785856040518363ffffffff1660e01b8152600401808381526020018273ffffffffffffffffffffffffffffffffffffffff1673ffffffffffffffffffffffffffffffffffffffff1681526020019250505060206040518083038186803b158015611c8457600080fd5b505afa158015611c98573d6000803e3d6000fd5b505050506040513d6020811015611cae57600080fd5b81019080805190602001909291905050509150600360009054906101000a900473ffffffffffffffffffffffffffffffffffffffff1673ffffffffffffffffffffffffffffffffffffffff1663bacf524e85846040518363ffffffff1660e01b8152600401808381526020018273ffffffffffffffffffffffffffffffffffffffff1673ffffffffffffffffffffffffffffffffffffffff1681526020019250505060206040518083038186803b158015611d6857600080fd5b505afa158015611d7c573d6000803e3d6000fd5b505050506040513d6020811015611d9257600080fd5b810190808051906020019092919050505090509193909250565b600460009054906101000a900473ffffffffffffffffffffffffffffffffffffffff1681565b60008273ffffffffffffffffffffffffffffffffffffffff168273ffffffffffffffffffffffffffffffffffffffff161415611e115760009050612052565b8273ffffffffffffffffffffffffffffffffffffffff16600660009054906101000a900473ffffffffffffffffffffffffffffffffffffffff1673ffffffffffffffffffffffffffffffffffffffff166316805a2986856040518363ffffffff1660e01b8152600401808381526020018273ffffffffffffffffffffffffffffffffffffffff1673ffffffffffffffffffffffffffffffffffffffff1681526020019250505060206040518083038186803b158015611ecf57600080fd5b505afa158015611ee3573d6000803e3d6000fd5b505050506040513d6020811015611ef957600080fd5b810190808051906020019092919050505073ffffffffffffffffffffffffffffffffffffffff161415611f2f5760019050612052565b8273ffffffffffffffffffffffffffffffffffffffff16600660009054906101000a900473ffffffffffffffffffffffffffffffffffffffff1673ffffffffffffffffffffffffffffffffffffffff16635f87206d86856040518363ffffffff1660e01b8152600401808381526020018273ffffffffffffffffffffffffffffffffffffffff1673ffffffffffffffffffffffffffffffffffffffff1681526020019250505060206040518083038186803b158015611fed57600080fd5b505afa158015612001573d6000803e3d6000fd5b505050506040513d602081101561201757600080fd5b810190808051906020019092919050505073ffffffffffffffffffffffffffffffffffffffff16141561204d5760029050612052565b600390505b9392505050565b600560009054906101000a900473ffffffffffffffffffffffffffffffffffffffff1681565b600073ffffffffffffffffffffffffffffffffffffffff163373ffffffffffffffffffffffffffffffffffffffff1614156120b657fe5b6120f46040518060400160405280600b81526020017f73757065725f61646d696e000000000000000000000000000000000000000000815250615250565b612166576040517f08c379a00000000000000000000000000000000000000000000000000000000081526004018080602001828103825260108152602001807f4f6e6c792073757065722061646d696e0000000000000000000000000000000081525060200191505060405180910390fd5b80826000600760009054906101000a900473ffffffffffffffffffffffffffffffffffffffff1673ffffffffffffffffffffffffffffffffffffffff1663d7fe8ab06040518163ffffffff1660e01b8152600401604080518083038186803b1580156121d157600080fd5b505afa1580156121e5573d6000803e3d6000fd5b505050506040513d60408110156121fb57600080fd5b810190808051906020019092919080519060200190929190505050509050600760009054906101000a900473ffffffffffffffffffffffffffffffffffffffff1673ffffffffffffffffffffffffffffffffffffffff1663058631c284846040518363ffffffff1660e01b8152600401808381526020018273ffffffffffffffffffffffffffffffffffffffff1673ffffffffffffffffffffffffffffffffffffffff1681526020019250505060206040518083038186803b1580156122c057600080fd5b505afa1580156122d4573d6000803e3d6000fd5b505050506040513d60208110156122ea57600080fd5b810190808051906020019092919050505061236d576040517f08c379a00000000000000000000000000000000000000000000000000000000081526004018080602001828103825260188152602001807f5472616e73666572206973206e6f7420617070726f766564000000000000000081525060200191505060405180910390fd5b808310156123c6576040517f08c379a000000000000000000000000000000000000000000000000000000000815260040180806020018281038252603d815260200180616629603d913960400191505060405180910390fd5b8473ffffffffffffffffffffffffffffffffffffffff1663c4d66de8600560009054906101000a900473ffffffffffffffffffffffffffffffffffffffff166040518263ffffffff1660e01b8152600401808273ffffffffffffffffffffffffffffffffffffffff1673ffffffffffffffffffffffffffffffffffffffff168152602001915050600060405180830381600087803b15801561246757600080fd5b505af115801561247b573d6000803e3d6000fd5b50505050600073ffffffffffffffffffffffffffffffffffffffff16600860009054906101000a900473ffffffffffffffffffffffffffffffffffffffff1673ffffffffffffffffffffffffffffffffffffffff16146127da57600860009054906101000a900473ffffffffffffffffffffffffffffffffffffffff1673ffffffffffffffffffffffffffffffffffffffff16637b1a490986600860009054906101000a900473ffffffffffffffffffffffffffffffffffffffff1673ffffffffffffffffffffffffffffffffffffffff16316040518363ffffffff1660e01b8152600401808373ffffffffffffffffffffffffffffffffffffffff1673ffffffffffffffffffffffffffffffffffffffff16815260200182815260200192505050602060405180830381600087803b1580156125b757600080fd5b505af11580156125cb573d6000803e3d6000fd5b505050506040513d60208110156125e157600080fd5b8101908080519060200190929190505050506000600560009054906101000a900473ffffffffffffffffffffffffffffffffffffffff1673ffffffffffffffffffffffffffffffffffffffff166370a08231600860009054906101000a900473ffffffffffffffffffffffffffffffffffffffff166040518263ffffffff1660e01b8152600401808273ffffffffffffffffffffffffffffffffffffffff1673ffffffffffffffffffffffffffffffffffffffff16815260200191505060206040518083038186803b1580156126b657600080fd5b505afa1580156126ca573d6000803e3d6000fd5b505050506040513d60208110156126e057600080fd5b81019080805190602001909291905050509050600860009054906101000a900473ffffffffffffffffffffffffffffffffffffffff1673ffffffffffffffffffffffffffffffffffffffff1663430951bd87836040518363ffffffff1660e01b8152600401808373ffffffffffffffffffffffffffffffffffffffff1673ffffffffffffffffffffffffffffffffffffffff16815260200182815260200192505050602060405180830381600087803b15801561279c57600080fd5b505af11580156127b0573d6000803e3d6000fd5b505050506040513d60208110156127c657600080fd5b810190808051906020019092919050505050505b84600860006101000a81548173ffffffffffffffffffffffffffffffffffffffff021916908373ffffffffffffffffffffffffffffffffffffffff1602179055505050505050565b6000809054906101000a900473ffffffffffffffffffffffffffffffffffffffff1673ffffffffffffffffffffffffffffffffffffffff163373ffffffffffffffffffffffffffffffffffffffff161461287857fe5b600160009054906101000a900473ffffffffffffffffffffffffffffffffffffffff1673ffffffffffffffffffffffffffffffffffffffff1663358177736040518060400160405280600b81526020017f456e646f776d656e7444420000000000000000000000000000000000000000008152506040518263ffffffff1660e01b81526004018080602001828103825283818151815260200191508051906020019080838360005b8381101561293b578082015181840152602081019050612920565b50505050905090810190601f1680156129685780820380516001836020036101000a031916815260200191505b509250505060206040518083038186803b15801561298557600080fd5b505afa158015612999573d6000803e3d6000fd5b505050506040513d60208110156129af57600080fd5b8101908080519060200190929190505050600460006101000a81548173ffffffffffffffffffffffffffffffffffffffff021916908373ffffffffffffffffffffffffffffffffffffffff160217905550600160009054906101000a900473ffffffffffffffffffffffffffffffffffffffff1673ffffffffffffffffffffffffffffffffffffffff1663358177736040518060400160405280600d81526020017f47616d65566172416e64466565000000000000000000000000000000000000008152506040518263ffffffff1660e01b81526004018080602001828103825283818151815260200191508051906020019080838360005b83811015612ac3578082015181840152602081019050612aa8565b50505050905090810190601f168015612af05780820380516001836020036101000a031916815260200191505b509250505060206040518083038186803b158015612b0d57600080fd5b505afa158015612b21573d6000803e3d6000fd5b505050506040513d6020811015612b3757600080fd5b8101908080519060200190929190505050600260006101000a81548173ffffffffffffffffffffffffffffffffffffffff021916908373ffffffffffffffffffffffffffffffffffffffff160217905550600160009054906101000a900473ffffffffffffffffffffffffffffffffffffffff1673ffffffffffffffffffffffffffffffffffffffff1663358177736040518060400160405280601081526020017f4b69747469654669676874546f6b656e000000000000000000000000000000008152506040518263ffffffff1660e01b81526004018080602001828103825283818151815260200191508051906020019080838360005b83811015612c4b578082015181840152602081019050612c30565b50505050905090810190601f168015612c785780820380516001836020036101000a031916815260200191505b509250505060206040518083038186803b158015612c9557600080fd5b505afa158015612ca9573d6000803e3d6000fd5b505050506040513d6020811015612cbf57600080fd5b8101908080519060200190929190505050600560006101000a81548173ffffffffffffffffffffffffffffffffffffffff021916908373ffffffffffffffffffffffffffffffffffffffff160217905550600160009054906101000a900473ffffffffffffffffffffffffffffffffffffffff1673ffffffffffffffffffffffffffffffffffffffff1663358177736040518060400160405280600981526020017f47616d6553746f726500000000000000000000000000000000000000000000008152506040518263ffffffff1660e01b81526004018080602001828103825283818151815260200191508051906020019080838360005b83811015612dd3578082015181840152602081019050612db8565b50505050905090810190601f168015612e005780820380516001836020036101000a031916815260200191505b509250505060206040518083038186803b158015612e1d57600080fd5b505afa158015612e31573d6000803e3d6000fd5b505050506040513d6020811015612e4757600080fd5b8101908080519060200190929190505050600660006101000a81548173ffffffffffffffffffffffffffffffffffffffff021916908373ffffffffffffffffffffffffffffffffffffffff160217905550600160009054906101000a900473ffffffffffffffffffffffffffffffffffffffff1673ffffffffffffffffffffffffffffffffffffffff1663358177736040518060400160405280600a81526020017f474d4765747465724442000000000000000000000000000000000000000000008152506040518263ffffffff1660e01b81526004018080602001828103825283818151815260200191508051906020019080838360005b83811015612f5b578082015181840152602081019050612f40565b50505050905090810190601f168015612f885780820380516001836020036101000a031916815260200191505b509250505060206040518083038186803b158015612fa557600080fd5b505afa158015612fb9573d6000803e3d6000fd5b505050506040513d6020811015612fcf57600080fd5b8101908080519060200190929190505050600360006101000a81548173ffffffffffffffffffffffffffffffffffffffff021916908373ffffffffffffffffffffffffffffffffffffffff160217905550600160009054906101000a900473ffffffffffffffffffffffffffffffffffffffff1673ffffffffffffffffffffffffffffffffffffffff1663358177736040518060400160405280600d81526020017f4d756c7469736967356f663132000000000000000000000000000000000000008152506040518263ffffffff1660e01b81526004018080602001828103825283818151815260200191508051906020019080838360005b838110156130e35780820151818401526020810190506130c8565b50505050905090810190601f1680156131105780820380516001836020036101000a031916815260200191505b509250505060206040518083038186803b15801561312d57600080fd5b505afa158015613141573d6000803e3d6000fd5b505050506040513d602081101561315757600080fd5b8101908080519060200190929190505050600760006101000a81548173ffffffffffffffffffffffffffffffffffffffff021916908373ffffffffffffffffffffffffffffffffffffffff160217905550600160009054906101000a900473ffffffffffffffffffffffffffffffffffffffff1673ffffffffffffffffffffffffffffffffffffffff1663358177736040518060400160405280601681526020017f486f6e6579706f74416c6c6f636174696f6e416c676f000000000000000000008152506040518263ffffffff1660e01b81526004018080602001828103825283818151815260200191508051906020019080838360005b8381101561326b578082015181840152602081019050613250565b50505050905090810190601f1680156132985780820380516001836020036101000a031916815260200191505b509250505060206040518083038186803b1580156132b557600080fd5b505afa1580156132c9573d6000803e3d6000fd5b505050506040513d60208110156132df57600080fd5b810190808051906020019092919050505073ffffffffffffffffffffffffffffffffffffffff16638129fc1c6040518163ffffffff1660e01b8152600401600060405180830381600087803b15801561333757600080fd5b505af115801561334b573d6000803e3d6000fd5b50505050565b6000809054906101000a900473ffffffffffffffffffffffffffffffffffffffff1681565b6000809054906101000a900473ffffffffffffffffffffffffffffffffffffffff1673ffffffffffffffffffffffffffffffffffffffff163373ffffffffffffffffffffffffffffffffffffffff16146133cc57fe5b80600160006101000a81548173ffffffffffffffffffffffffffffffffffffffff021916908373ffffffffffffffffffffffffffffffffffffffff16021790555050565b60008060008061341f86611b0f565b9250509150600073ffffffffffffffffffffffffffffffffffffffff168273ffffffffffffffffffffffffffffffffffffffff16141561345e57600080fd5b600080600360009054906101000a900473ffffffffffffffffffffffffffffffffffffffff1673ffffffffffffffffffffffffffffffffffffffff16630b154c9689896040518363ffffffff1660e01b8152600401808381526020018273ffffffffffffffffffffffffffffffffffffffff1673ffffffffffffffffffffffffffffffffffffffff1681526020019250505060806040518083038186803b15801561350857600080fd5b505afa15801561351c573d6000803e3d6000fd5b505050506040513d608081101561353257600080fd5b81019080805190602001909291908051906020019092919080519060200190929190805190602001909291905050505050915091508373ffffffffffffffffffffffffffffffffffffffff168773ffffffffffffffffffffffffffffffffffffffff16141580156135cf57508373ffffffffffffffffffffffffffffffffffffffff168173ffffffffffffffffffffffffffffffffffffffff1614155b156135ea57600080819150809050955095505050505061372c565b60006135f7898987611dd2565b90508473ffffffffffffffffffffffffffffffffffffffff168873ffffffffffffffffffffffffffffffffffffffff16141561371257600360009054906101000a900473ffffffffffffffffffffffffffffffffffffffff1673ffffffffffffffffffffffffffffffffffffffff1663dd99717d8a8a6040518363ffffffff1660e01b8152600401808381526020018273ffffffffffffffffffffffffffffffffffffffff1673ffffffffffffffffffffffffffffffffffffffff1681526020019250505060206040518083038186803b1580156136d457600080fd5b505afa1580156136e8573d6000803e3d6000fd5b505050506040513d60208110156136fe57600080fd5b810190808051906020019092919050505092505b61371e8482858c6159c2565b809750819850505050505050505b9250929050565b60006040518060400160405280600f81526020017f4561726e696e6773547261636b6572000000000000000000000000000000000081525061377481615538565b6137c9576040517f08c379a000000000000000000000000000000000000000000000000000000000815260040180806020018281038252602d815260200180616666602d913960400191505060405180910390fd5b8261394557600460009054906101000a900473ffffffffffffffffffffffffffffffffffffffff1673ffffffffffffffffffffffffffffffffffffffff1663e7abb197856040518263ffffffff1660e01b815260040180828152602001915050600060405180830381600087803b15801561384357600080fd5b505af1158015613857573d6000803e3d6000fd5b50505050600860009054906101000a900473ffffffffffffffffffffffffffffffffffffffff1673ffffffffffffffffffffffffffffffffffffffff16637b1a490986866040518363ffffffff1660e01b8152600401808373ffffffffffffffffffffffffffffffffffffffff1673ffffffffffffffffffffffffffffffffffffffff16815260200182815260200192505050602060405180830381600087803b15801561390457600080fd5b505af1158015613918573d6000803e3d6000fd5b505050506040513d602081101561392e57600080fd5b810190808051906020019092919050505050613951565b61394f8585615bff565b505b60019150509392505050565b600260009054906101000a900473ffffffffffffffffffffffffffffffffffffffff1681565b6040518060400160405280600b81526020017f47616d654d616e616765720000000000000000000000000000000000000000008152506139c281615538565b613a17576040517f08c379a000000000000000000000000000000000000000000000000000000000815260040180806020018281038252602d815260200180616666602d913960400191505060405180910390fd5b6000600360009054906101000a900473ffffffffffffffffffffffffffffffffffffffff1673ffffffffffffffffffffffffffffffffffffffff1663bacf524e85856040518363ffffffff1660e01b8152600401808381526020018273ffffffffffffffffffffffffffffffffffffffff1673ffffffffffffffffffffffffffffffffffffffff1681526020019250505060206040518083038186803b158015613ac057600080fd5b505afa158015613ad4573d6000803e3d6000fd5b505050506040513d6020811015613aea57600080fd5b810190808051906020019092919050505090506000613bc9620f4240613bbb600260009054906101000a900473ffffffffffffffffffffffffffffffffffffffff1673ffffffffffffffffffffffffffffffffffffffff1663aa7ed99b6040518163ffffffff1660e01b815260040160206040518083038186803b158015613b7157600080fd5b505afa158015613b85573d6000803e3d6000fd5b505050506040513d6020811015613b9b57600080fd5b8101908080519060200190929190505050856154cc90919063ffffffff16565b61550390919063ffffffff16565b9050600460009054906101000a900473ffffffffffffffffffffffffffffffffffffffff1673ffffffffffffffffffffffffffffffffffffffff1663fe4d076586836040518363ffffffff1660e01b81526004018083815260200182815260200192505050600060405180830381600087803b158015613c4857600080fd5b505af1158015613c5c573d6000803e3d6000fd5b505050505050505050565b600660009054906101000a900473ffffffffffffffffffffffffffffffffffffffff1681565b60006040518060400160405280600b81526020017f47616d654d616e61676572000000000000000000000000000000000000000000815250613cce81615538565b613d23576040517f08c379a000000000000000000000000000000000000000000000000000000000815260040180806020018281038252602d815260200180616666602d913960400191505060405180910390fd5b6000613d2d615783565b905060003411613d3c57600080fd5b600860009054906101000a900473ffffffffffffffffffffffffffffffffffffffff1673ffffffffffffffffffffffffffffffffffffffff166108fc349081150290604051600060405180830381858888f19350505050158015613da4573d6000803e3d6000fd5b50600460009054906101000a900473ffffffffffffffffffffffffffffffffffffffff1673ffffffffffffffffffffffffffffffffffffffff166350b1a7cd8560003460006040518563ffffffff1660e01b81526004018085815260200184815260200183815260200182151515158152602001945050505050602060405180830381600087803b158015613e3857600080fd5b505af1158015613e4c573d6000803e3d6000fd5b505050506040513d6020811015613e6257600080fd5b8101908080519060200190929190505050507f120bbc6058df2f75a9523df514b6e83e744fda1180dd8c135f2f5d0b1d15d2918134600860009054906101000a900473ffffffffffffffffffffffffffffffffffffffff16604051808473ffffffffffffffffffffffffffffffffffffffff1673ffffffffffffffffffffffffffffffffffffffff1681526020018381526020018273ffffffffffffffffffffffffffffffffffffffff1673ffffffffffffffffffffffffffffffffffffffff168152602001935050505060405180910390a1600192505050919050565b60006040518060400160405280600b81526020017f47616d654d616e61676572000000000000000000000000000000000000000000815250613f8181615538565b613fd6576040517f08c379a000000000000000000000000000000000000000000000000000000000815260040180806020018281038252602d815260200180616666602d913960400191505060405180910390fd5b6000600260009054906101000a900473ffffffffffffffffffffffffffffffffffffffff1673ffffffffffffffffffffffffffffffffffffffff1663d693a9896040518163ffffffff1660e01b815260040160206040518083038186803b15801561404057600080fd5b505afa158015614054573d6000803e3d6000fd5b505050506040513d602081101561406a57600080fd5b810190808051906020019092919050505090506140878482615db7565b50600192505050919050565b6000806000600460009054906101000a900473ffffffffffffffffffffffffffffffffffffffff1673ffffffffffffffffffffffffffffffffffffffff1663231eb69186866040518363ffffffff1660e01b8152600401808381526020018273ffffffffffffffffffffffffffffffffffffffff1673ffffffffffffffffffffffffffffffffffffffff16815260200192505050604080518083038186803b15801561413e57600080fd5b505afa158015614152573d6000803e3d6000fd5b505050506040513d604081101561416857600080fd5b810190808051906020019092919080519060200190929190505050915091506000821180156141975750600081115b9250505092915050565b6040518060400160405280600b81526020017f47616d654d616e616765720000000000000000000000000000000000000000008152506141e081615538565b614235576040517f08c379a000000000000000000000000000000000000000000000000000000000815260040180806020018281038252602d815260200180616666602d913960400191505060405180910390fd5b60006005600681111561424457fe5b8314156143f25760008061425786610fd1565b91509150600460009054906101000a900473ffffffffffffffffffffffffffffffffffffffff1673ffffffffffffffffffffffffffffffffffffffff1663712153b3828460006040518463ffffffff1660e01b815260040180848152602001838152602001821515151581526020019350505050602060405180830381600087803b1580156142e557600080fd5b505af11580156142f9573d6000803e3d6000fd5b505050506040513d602081101561430f57600080fd5b810190808051906020019092919050505050600460009054906101000a900473ffffffffffffffffffffffffffffffffffffffff1673ffffffffffffffffffffffffffffffffffffffff166350b1a7cd87838560016040518563ffffffff1660e01b81526004018085815260200184815260200183815260200182151515158152602001945050505050602060405180830381600087803b1580156143b357600080fd5b505af11580156143c7573d6000803e3d6000fd5b505050506040513d60208110156143dd57600080fd5b81019080805190602001909291905050505050505b600460068111156143ff57fe5b83141561465b57600080600460009054906101000a900473ffffffffffffffffffffffffffffffffffffffff1673ffffffffffffffffffffffffffffffffffffffff16637cee0879876040518263ffffffff1660e01b815260040180828152602001915050604080518083038186803b15801561447b57600080fd5b505afa15801561448f573d6000803e3d6000fd5b505050506040513d60408110156144a557600080fd5b81019080805190602001909291908051906020019092919050505091509150600460009054906101000a900473ffffffffffffffffffffffffffffffffffffffff1673ffffffffffffffffffffffffffffffffffffffff1663712153b3828460006040518463ffffffff1660e01b815260040180848152602001838152602001821515151581526020019350505050602060405180830381600087803b15801561454e57600080fd5b505af1158015614562573d6000803e3d6000fd5b505050506040513d602081101561457857600080fd5b810190808051906020019092919050505050600460009054906101000a900473ffffffffffffffffffffffffffffffffffffffff1673ffffffffffffffffffffffffffffffffffffffff166350b1a7cd87838560016040518563ffffffff1660e01b81526004018085815260200184815260200183815260200182151515158152602001945050505050602060405180830381600087803b15801561461c57600080fd5b505af1158015614630573d6000803e3d6000fd5b505050506040513d602081101561464657600080fd5b81019080805190602001909291905050505050505b600460009054906101000a900473ffffffffffffffffffffffffffffffffffffffff1673ffffffffffffffffffffffffffffffffffffffff1663996ab60a85856040518363ffffffff1660e01b81526004018083815260200182815260200192505050600060405180830381600087803b1580156146d857600080fd5b505af11580156146ec573d6000803e3d6000fd5b5050505050505050565b60006040518060400160405280600c81526020017f5769746864726177506f6f6c000000000000000000000000000000000000000081525061473781615538565b61478c576040517f08c379a000000000000000000000000000000000000000000000000000000000815260040180806020018281038252602d815260200180616666602d913960400191505060405180910390fd5b600460009054906101000a900473ffffffffffffffffffffffffffffffffffffffff1673ffffffffffffffffffffffffffffffffffffffff1663292eff5b85856040518363ffffffff1660e01b81526004018083815260200182815260200192505050600060405180830381600087803b15801561480957600080fd5b505af115801561481d573d6000803e3d6000fd5b5050505061482b8585615bff565b5060019150509392505050565b600860009054906101000a900473ffffffffffffffffffffffffffffffffffffffff1681565b600160009054906101000a900473ffffffffffffffffffffffffffffffffffffffff1681565b60006040518060400160405280600c81526020017f47616d654372656174696f6e00000000000000000000000000000000000000008152506040518060400160405280600b81526020017f47616d654d616e616765720000000000000000000000000000000000000000008152506040518060400160405280600f81526020017f4561726e696e6773547261636b6572000000000000000000000000000000000081525061493183615538565b80614941575061494082615538565b5b80614951575061495081615538565b5b6149a6576040517f08c379a000000000000000000000000000000000000000000000000000000000815260040180806020018281038252602d815260200180616666602d913960400191505060405180910390fd5b600160009054906101000a900473ffffffffffffffffffffffffffffffffffffffff1673ffffffffffffffffffffffffffffffffffffffff1663358177736040518060400160405280601681526020017f486f6e6579706f74416c6c6f636174696f6e416c676f000000000000000000008152506040518263ffffffff1660e01b81526004018080602001828103825283818151815260200191508051906020019080838360005b83811015614a69578082015181840152602081019050614a4e565b50505050905090810190601f168015614a965780820380516001836020036101000a031916815260200191505b509250505060206040518083038186803b158015614ab357600080fd5b505afa158015614ac7573d6000803e3d6000fd5b505050506040513d6020811015614add57600080fd5b810190808051906020019092919050505073ffffffffffffffffffffffffffffffffffffffff1663739e0e573488600860009054906101000a900473ffffffffffffffffffffffffffffffffffffffff166040518463ffffffff1660e01b8152600401808381526020018273ffffffffffffffffffffffffffffffffffffffff1673ffffffffffffffffffffffffffffffffffffffff168152602001925050506020604051808303818588803b158015614b9657600080fd5b505af1158015614baa573d6000803e3d6000fd5b50505050506040513d6020811015614bc157600080fd5b810190808051906020019092919050505050600460009054906101000a900473ffffffffffffffffffffffffffffffffffffffff1673ffffffffffffffffffffffffffffffffffffffff1663712153b3866000806040518463ffffffff1660e01b815260040180848152602001838152602001821515151581526020019350505050602060405180830381600087803b158015614c5d57600080fd5b505af1158015614c71573d6000803e3d6000fd5b505050506040513d6020811015614c8757600080fd5b8101908080519060200190929190505050507fbb1e8c5849627b60cb1dd268ac7c3d00be637a7e49d0200e03dc746892294772873487600860009054906101000a900473ffffffffffffffffffffffffffffffffffffffff16604051808573ffffffffffffffffffffffffffffffffffffffff1673ffffffffffffffffffffffffffffffffffffffff1681526020018481526020018381526020018273ffffffffffffffffffffffffffffffffffffffff1673ffffffffffffffffffffffffffffffffffffffff16815260200194505050505060405180910390a1600193505050509392505050565b600073ffffffffffffffffffffffffffffffffffffffff163373ffffffffffffffffffffffffffffffffffffffff161415614da757fe5b614de56040518060400160405280600b81526020017f73757065725f61646d696e000000000000000000000000000000000000000000815250615250565b614e57576040517f08c379a00000000000000000000000000000000000000000000000000000000081526004018080602001828103825260108152602001807f4f6e6c792073757065722061646d696e0000000000000000000000000000000081525060200191505060405180910390fd5b600860009054906101000a900473ffffffffffffffffffffffffffffffffffffffff1673ffffffffffffffffffffffffffffffffffffffff1663f2fde38b826040518263ffffffff1660e01b8152600401808273ffffffffffffffffffffffffffffffffffffffff1673ffffffffffffffffffffffffffffffffffffffff168152602001915050600060405180830381600087803b158015614ef857600080fd5b505af1158015614f0c573d6000803e3d6000fd5b5050505050565b6000809054906101000a900473ffffffffffffffffffffffffffffffffffffffff1673ffffffffffffffffffffffffffffffffffffffff163373ffffffffffffffffffffffffffffffffffffffff1614614f6957fe5b600073ffffffffffffffffffffffffffffffffffffffff168173ffffffffffffffffffffffffffffffffffffffff1614614fde57806000806101000a81548173ffffffffffffffffffffffffffffffffffffffff021916908373ffffffffffffffffffffffffffffffffffffffff1602179055505b50565b60006040518060400160405280600f81526020017f4561726e696e6773547261636b6572000000000000000000000000000000000081525061502281615538565b615077576040517f08c379a000000000000000000000000000000000000000000000000000000000815260040180806020018281038252602d815260200180616666602d913960400191505060405180910390fd5b6000615081615783565b90506000341161509057600080fd5b600860009054906101000a900473ffffffffffffffffffffffffffffffffffffffff1673ffffffffffffffffffffffffffffffffffffffff166108fc349081150290604051600060405180830381858888f193505050501580156150f8573d6000803e3d6000fd5b50600460009054906101000a900473ffffffffffffffffffffffffffffffffffffffff1673ffffffffffffffffffffffffffffffffffffffff1663ee700e78346040518263ffffffff1660e01b815260040180828152602001915050600060405180830381600087803b15801561516e57600080fd5b505af1158015615182573d6000803e3d6000fd5b505050507f120bbc6058df2f75a9523df514b6e83e744fda1180dd8c135f2f5d0b1d15d2918134600860009054906101000a900473ffffffffffffffffffffffffffffffffffffffff16604051808473ffffffffffffffffffffffffffffffffffffffff1673ffffffffffffffffffffffffffffffffffffffff1681526020018381526020018273ffffffffffffffffffffffffffffffffffffffff1673ffffffffffffffffffffffffffffffffffffffff168152602001935050505060405180910390a160019250505090565b6000600160009054906101000a900473ffffffffffffffffffffffffffffffffffffffff1673ffffffffffffffffffffffffffffffffffffffff1663358177736040518060400160405280600681526020017f526f6c65444200000000000000000000000000000000000000000000000000008152506040518263ffffffff1660e01b81526004018080602001828103825283818151815260200191508051906020019080838360005b838110156153155780820151818401526020810190506152fa565b50505050905090810190601f1680156153425780820380516001836020036101000a031916815260200191505b509250505060206040518083038186803b15801561535f57600080fd5b505afa158015615373573d6000803e3d6000fd5b505050506040513d602081101561538957600080fd5b810190808051906020019092919050505073ffffffffffffffffffffffffffffffffffffffff16636c9cd097836153be615783565b6040518363ffffffff1660e01b815260040180806020018373ffffffffffffffffffffffffffffffffffffffff1673ffffffffffffffffffffffffffffffffffffffff168152602001828103825284818151815260200191508051906020019080838360005b8381101561543f578082015181840152602081019050615424565b50505050905090810190601f16801561546c5780820380516001836020036101000a031916815260200191505b50935050505060206040518083038186803b15801561548a57600080fd5b505afa15801561549e573d6000803e3d6000fd5b505050506040513d60208110156154b457600080fd5b81019080805190602001909291905050509050919050565b6000808314156154df57600090506154fd565b60008284029050828482816154f057fe5b04146154f857fe5b809150505b92915050565b60008082848161550f57fe5b0490508091505092915050565b60008082840190508381101561552e57fe5b8091505092915050565b60008073ffffffffffffffffffffffffffffffffffffffff16600160009054906101000a900473ffffffffffffffffffffffffffffffffffffffff1673ffffffffffffffffffffffffffffffffffffffff1614156155fe576040517f08c379a00000000000000000000000000000000000000000000000000000000081526004018080602001828103825260088152602001807f4e6f2050726f787900000000000000000000000000000000000000000000000081525060200191505060405180910390fd5b6000600160009054906101000a900473ffffffffffffffffffffffffffffffffffffffff1673ffffffffffffffffffffffffffffffffffffffff166335817773846040518263ffffffff1660e01b81526004018080602001828103825283818151815260200191508051906020019080838360005b8381101561568e578082015181840152602081019050615673565b50505050905090810190601f1680156156bb5780820380516001836020036101000a031916815260200191505b509250505060206040518083038186803b1580156156d857600080fd5b505afa1580156156ec573d6000803e3d6000fd5b505050506040513d602081101561570257600080fd5b81019080805190602001909291905050509050600073ffffffffffffffffffffffffffffffffffffffff168173ffffffffffffffffffffffffffffffffffffffff16141561574c57fe5b8073ffffffffffffffffffffffffffffffffffffffff163373ffffffffffffffffffffffffffffffffffffffff1614915050919050565b6000600160009054906101000a900473ffffffffffffffffffffffffffffffffffffffff1673ffffffffffffffffffffffffffffffffffffffff163373ffffffffffffffffffffffffffffffffffffffff16146157e257339050615835565b6000601436036000602052601481602c37602051915050600073ffffffffffffffffffffffffffffffffffffffff168173ffffffffffffffffffffffffffffffffffffffff16141561583057fe5b809150505b90565b600073ffffffffffffffffffffffffffffffffffffffff16600160009054906101000a900473ffffffffffffffffffffffffffffffffffffffff1673ffffffffffffffffffffffffffffffffffffffff1614156158fd576040517f08c379a00000000000000000000000000000000000000000000000000000000081526004018080602001828103825260088152602001807f4e6f2050726f787900000000000000000000000000000000000000000000000081525060200191505060405180910390fd5b600160009054906101000a900473ffffffffffffffffffffffffffffffffffffffff1673ffffffffffffffffffffffffffffffffffffffff163373ffffffffffffffffffffffffffffffffffffffff16146159c0576040517f08c379a00000000000000000000000000000000000000000000000000000000081526004018080602001828103825260128152602001807f4f6e6c79207468726f7567682050726f7879000000000000000000000000000081525060200191505060405180910390fd5b565b6000806159cd6165e4565b600660009054906101000a900473ffffffffffffffffffffffffffffffffffffffff1673ffffffffffffffffffffffffffffffffffffffff16636991b5bf856040518263ffffffff1660e01b81526004018082815260200191505060a06040518083038186803b158015615a4057600080fd5b505afa158015615a54573d6000803e3d6000fd5b505050506040513d601f19601f8201168201806040525060a0811015615a7957600080fd5b810190809190505090506000600360009054906101000a900473ffffffffffffffffffffffffffffffffffffffff1673ffffffffffffffffffffffffffffffffffffffff1663525a8e4e866040518263ffffffff1660e01b815260040180828152602001915050604080518083038186803b158015615af757600080fd5b505afa158015615b0b573d6000803e3d6000fd5b505050506040513d6040811015615b2157600080fd5b8101908080519060200190929190805190602001909291905050509150506000615b79620f4240615b6b858b60058110615b5757fe5b60200201518c6154cc90919063ffffffff16565b61550390919063ffffffff16565b90506000615bb5620f4240615ba7868c60058110615b9357fe5b6020020151866154cc90919063ffffffff16565b61550390919063ffffffff16565b90506003891415615bd957615bcc81838a8a615f6f565b9550955050505050615bf6565b615bec828961551c90919063ffffffff16565b8195509550505050505b94509492505050565b6000600860009054906101000a900473ffffffffffffffffffffffffffffffffffffffff1673ffffffffffffffffffffffffffffffffffffffff16637b1a490984846040518363ffffffff1660e01b8152600401808373ffffffffffffffffffffffffffffffffffffffff1673ffffffffffffffffffffffffffffffffffffffff16815260200182815260200192505050602060405180830381600087803b158015615caa57600080fd5b505af1158015615cbe573d6000803e3d6000fd5b505050506040513d6020811015615cd457600080fd5b810190808051906020019092919050505050600460009054906101000a900473ffffffffffffffffffffffffffffffffffffffff1673ffffffffffffffffffffffffffffffffffffffff1663712153b360008460016040518463ffffffff1660e01b815260040180848152602001838152602001821515151581526020019350505050602060405180830381600087803b158015615d7157600080fd5b505af1158015615d85573d6000803e3d6000fd5b505050506040513d6020811015615d9b57600080fd5b8101908080519060200190929190505050506001905092915050565b6000600860009054906101000a900473ffffffffffffffffffffffffffffffffffffffff1673ffffffffffffffffffffffffffffffffffffffff1663430951bd84846040518363ffffffff1660e01b8152600401808373ffffffffffffffffffffffffffffffffffffffff1673ffffffffffffffffffffffffffffffffffffffff16815260200182815260200192505050602060405180830381600087803b158015615e6257600080fd5b505af1158015615e76573d6000803e3d6000fd5b505050506040513d6020811015615e8c57600080fd5b810190808051906020019092919050505050600460009054906101000a900473ffffffffffffffffffffffffffffffffffffffff1673ffffffffffffffffffffffffffffffffffffffff1663712153b383600060016040518463ffffffff1660e01b815260040180848152602001838152602001821515151581526020019350505050602060405180830381600087803b158015615f2957600080fd5b505af1158015615f3d573d6000803e3d6000fd5b505050506040513d6020811015615f5357600080fd5b8101908080519060200190929190505050506001905092915050565b600080615f7a616606565b600360009054906101000a900473ffffffffffffffffffffffffffffffffffffffff1673ffffffffffffffffffffffffffffffffffffffff16636b1426a4856040518263ffffffff1660e01b81526004018082815260200191505060606040518083038186803b158015615fed57600080fd5b505afa158015616001573d6000803e3d6000fd5b505050506040513d606081101561601757600080fd5b810190808051906020019092919080519060200190929190805190602001909291905050508360006003811061604957fe5b602002018460016003811061605a57fe5b602002018560026003811061606b57fe5b602002018373ffffffffffffffffffffffffffffffffffffffff1673ffffffffffffffffffffffffffffffffffffffff168152508373ffffffffffffffffffffffffffffffffffffffff1673ffffffffffffffffffffffffffffffffffffffff168152508373ffffffffffffffffffffffffffffffffffffffff1673ffffffffffffffffffffffffffffffffffffffff168152505050506000600360009054906101000a900473ffffffffffffffffffffffffffffffffffffffff1673ffffffffffffffffffffffffffffffffffffffff16630b154c96868460016003811061615057fe5b60200201516040518363ffffffff1660e01b8152600401808381526020018273ffffffffffffffffffffffffffffffffffffffff1673ffffffffffffffffffffffffffffffffffffffff1681526020019250505060806040518083038186803b1580156161bc57600080fd5b505afa1580156161d0573d6000803e3d6000fd5b505050506040513d60808110156161e657600080fd5b810190808051906020019092919080519060200190929190805190602001909291908051906020019092919050505050505090506000600360009054906101000a900473ffffffffffffffffffffffffffffffffffffffff1673ffffffffffffffffffffffffffffffffffffffff16630b154c96878560026003811061626857fe5b60200201516040518363ffffffff1660e01b8152600401808381526020018273ffffffffffffffffffffffffffffffffffffffff1673ffffffffffffffffffffffffffffffffffffffff1681526020019250505060806040518083038186803b1580156162d457600080fd5b505afa1580156162e8573d6000803e3d6000fd5b505050506040513d60808110156162fe57600080fd5b810190808051906020019092919080519060200190929190805190602001909291908051906020019092919050505050505090506000600360009054906101000a900473ffffffffffffffffffffffffffffffffffffffff1673ffffffffffffffffffffffffffffffffffffffff1663dd99717d888660006003811061638057fe5b60200201516040518363ffffffff1660e01b8152600401808381526020018273ffffffffffffffffffffffffffffffffffffffff1673ffffffffffffffffffffffffffffffffffffffff1681526020019250505060206040518083038186803b1580156163ec57600080fd5b505afa158015616400573d6000803e3d6000fd5b505050506040513d602081101561641657600080fd5b810190808051906020019092919050505090506000600360009054906101000a900473ffffffffffffffffffffffffffffffffffffffff1673ffffffffffffffffffffffffffffffffffffffff1663bacf524e898760006003811061647757fe5b60200201516040518363ffffffff1660e01b8152600401808381526020018273ffffffffffffffffffffffffffffffffffffffff1673ffffffffffffffffffffffffffffffffffffffff1681526020019250505060206040518083038186803b1580156164e357600080fd5b505afa1580156164f7573d6000803e3d6000fd5b505050506040513d602081101561650d57600080fd5b81019080805190602001909291905050509050616557826165498561653b88866165cd90919063ffffffff16565b6165cd90919063ffffffff16565b6165cd90919063ffffffff16565b905061657e816165708b8d6154cc90919063ffffffff16565b61550390919063ffffffff16565b99506165a5816165978b8e6154cc90919063ffffffff16565b61550390919063ffffffff16565b9a506165ba8a8a61551c90919063ffffffff16565b8b96509650505050505094509492505050565b6000828211156165d957fe5b818303905092915050565b6040518060a00160405280600590602082028038833980820191505090505090565b604051806060016040528060039060208202803883398082019150509050509056fe5472616e736572206e756d6265722073686f756c6420626520626967676572207468616e2070726576696f7573207472616e73666572206e756d626572416363657373206973206f6e6c7920616c6c6f7765642066726f6d20737065636966696320636f6e7472616374a265627a7a72315820f4afa87f57c6e0ce15c8cc18ef40419dbf3e689b33048d47d0d348b8d01dd82f64736f6c63430005110032",
  "source": "/**\n * @title EndowmentFund\n */\n//\n// This program is free software: you can redistribute it and/or modify\n// it under the terms of the GNU General Public License as published by\n// the Free Software Foundation, either version 3 of the License, or\n// (at your option) any later version.\n\n// This program is distributed in the hope that it will be useful,\n// but WITHOUT ANY WARRANTY; without even the implied warranty of\n// MERCHANTABILITY or FITNESS FOR A PARTICULAR PURPOSE.  See the\n// GNU General Public License for more details.\n\n// You should have received a copy of the GNU General Public License\n// along with this program.  If not, see <http://www.gnu.org/licenses/>.\n\npragma solidity ^0.5.5;\n\nimport \"../proxy/Proxied.sol\";\nimport \"../../authority/Guard.sol\";\nimport \"./Distribution.sol\";\n\n/**\n * @title EndowmentFund\n * @dev Responsible for : manage funds\n * @author @vikrammndal @wafflemakr @Xaleee @ziweidream\n */\n\ncontract EndowmentFund is Distribution, Guard {\n    using SafeMath for uint256;\n\n    Escrow public escrow;\n\n    event WinnerClaimed(uint indexed gameId, address indexed winner, uint256 ethAmount, uint256 ktyAmount, address from);\n    event SentKTYtoEscrow(address sender, uint256 ktyAmount, address receiver);\n    event SentETHtoEscrow(address sender, uint256 ethAmount, address receiver);\n    event EthSwappedforKTY(address sender, uint256 ethAmount, uint256 ktyAmount, address ktyReceiver);\n\n    enum HoneypotState {\n        created,\n        assigned,\n        gameScheduled,\n        gameStarted,\n        forefeited,\n        claiming,\n        dissolved\n    }\n\n    /**\n    * @dev winner claims\n    */\n    function claim(uint256 _gameId) external onlyProxy {\n        address payable msgSender = address(uint160(getOriginalSender()));\n\n        // Honeypot status\n        (uint status, /*uint256 claimTime*/) = endowmentDB.getHoneypotState(_gameId);\n\n        require(uint(HoneypotState.claiming) == status);\n\n        // require(now < claimTime, \"2\");\n\n        require(!getWithdrawalState(_gameId, msgSender));\n\n        (uint256 winningsETH, uint256 winningsKTY) = getWinnerShare(_gameId, msgSender);\n\n        // make sure enough funds in HoneyPot and update HoneyPot balance\n        endowmentDB.updateHoneyPotFund(_gameId, winningsKTY, winningsETH, true);\n\n        if (winningsKTY > 0){\n            // transfer the KTY\n            escrow.transferKTY(msgSender, winningsKTY);\n            // transfer the ETH\n            escrow.transferETH(msgSender, winningsETH);\n        }\n\n        // log tokens sent to an address\n        endowmentDB.setTotalDebit(_gameId, msgSender, winningsETH, winningsKTY);\n\n        emit WinnerClaimed(_gameId, msgSender, winningsETH, winningsKTY, address(escrow));\n    }\n\n    /**\n    * @dev send reward to the user that pressed finalize button\n    */\n    function sendFinalizeRewards(address user)\n        external\n        onlyContract(CONTRACT_NAME_GAMEMANAGER)\n        returns(bool)\n    {\n        uint256 reward = gameVarAndFee.getFinalizeRewards();\n        transferKTYfromEscrow(address(uint160(user)), reward);\n        return true;\n    }\n\n    function getWithdrawalState(uint _gameId, address _account) public view returns (bool) {\n        (uint256 totalETHdebited, uint256 totalKTYdebited) = endowmentDB.getTotalDebit(_gameId, _account);\n        return ((totalETHdebited > 0) && (totalKTYdebited > 0));\n    }\n\n    /**\n    * @dev updateHoneyPotState\n    */\n    function updateHoneyPotState(uint256 _gameId, uint _state) public onlyContract(CONTRACT_NAME_GAMEMANAGER) {\n        uint256 claimTime;\n        if (_state == uint(HoneypotState.claiming)){\n            //Send immediately initialEth+15%oflosing and 15%ofKTY to endowment\n            (uint256 winningsETH, uint256 winningsKTY) = getEndowmentShare(_gameId);\n            endowmentDB.updateEndowmentFund(winningsKTY, winningsETH, false);\n            endowmentDB.updateHoneyPotFund(_gameId, winningsKTY, winningsETH, true);\n        }\n        if(_state == uint(HoneypotState.forefeited)) {\n            (uint256 eth, uint256 kty) = endowmentDB.getHoneypotTotal(_gameId);\n            endowmentDB.updateEndowmentFund(kty, eth, false);\n            endowmentDB.updateHoneyPotFund(_gameId, kty, eth, true);\n        }\n        endowmentDB.setHoneypotState(_gameId, _state);\n    }\n\n    /**\n     * @dev Send KTY from EndowmentFund to Escrow\n     */\n    function sendKTYtoEscrow(uint256 _kty_amount)\n        external\n        onlySuperAdmin\n    {\n        require(_kty_amount > 0);\n\n        kittieFightToken.transfer(address(escrow), _kty_amount);\n\n        endowmentDB.updateEndowmentFund(_kty_amount, 0, false);\n\n        emit SentKTYtoEscrow(address(this), _kty_amount, address(escrow));\n    }\n\n    /**\n     * @dev Send eth to Escrow\n     */\n    function sendETHtoEscrow() external onlyContract(CONTRACT_NAME_GAMEMANAGER) payable {\n        address msgSender = getOriginalSender();\n\n        require(msg.value > 0);\n\n        address(escrow).transfer(msg.value);\n\n        endowmentDB.updateEndowmentFund(0, msg.value, false);\n\n        emit SentETHtoEscrow(msgSender, msg.value, address(escrow));\n    }\n\n    /**\n     * @dev accepts KTY. KTY is swapped in uniswap.\n     * @dev KTY is sent to escrow. Ether is sent to KTY-WETH pair contract by the user.\n     * @dev Escrow sends 2x of KTY received in swap to KTY-WETH pair contract to maintain the\n     *      original ether to KTY ratio.\n     */\n    function contributeKTY(address _sender, uint256 _ether_amount_swap, uint256 _kty_amount) external \n            only3Contracts(CONTRACT_NAME_GAMECREATION, CONTRACT_NAME_GAMEMANAGER, CONTRACT_NAME_EARNINGS_TRACKER) \n            payable returns(bool) {\n        HoneypotAllocationAlgo(proxy.getContract(CONTRACT_NAME_HONEYPOT_ALLOCATION_ALGO)).swapEtherForKTY.value(msg.value)(_ether_amount_swap, address(escrow));\n\n        endowmentDB.updateEndowmentFund(_kty_amount, 0, false);\n\n        emit EthSwappedforKTY(_sender, msg.value, _kty_amount, address(escrow));\n\n        return true;\n    }\n\n    /**\n     * @dev GM calls\n     */\n    function contributeETH(uint _gameId) external onlyContract(CONTRACT_NAME_GAMEMANAGER) payable returns(bool) {\n        // require(address(escrow) != address(0));\n        address msgSender = getOriginalSender();\n\n        require(msg.value > 0);\n\n        // transfer ETH to Escrow\n        address(escrow).transfer(msg.value);\n\n        endowmentDB.updateHoneyPotFund(_gameId, 0, msg.value, false);\n\n        emit SentETHtoEscrow(msgSender, msg.value, address(escrow));\n\n        return true;\n    }\n\n    function contributeETH_Ethie()\n    external\n    onlyContract(CONTRACT_NAME_EARNINGS_TRACKER)\n    payable\n    returns(bool)\n    {\n        // require(address(escrow) != address(0));\n        address msgSender = getOriginalSender();\n\n        require(msg.value > 0);\n\n        // transfer ETH to Escrow\n        address(escrow).transfer(msg.value);\n\n        endowmentDB.updateInvestment(msg.value);\n\n        emit SentETHtoEscrow(msgSender, msg.value, address(escrow));\n\n        return true;\n    }\n\n    /**\n    * @notice MUST BE DONE BEFORE UPGRADING ENDOWMENT AS IT IS THE OWNER\n    * @dev change Escrow contract owner before UPGRADING ENDOWMENT AS IT IS THE OWNER\n    */\n    function transferEscrowOwnership(address payable _newOwner) external onlySuperAdmin {\n        escrow.transferOwnership(_newOwner);\n    }\n\n    /**\n    * @dev transfer Escrow ETH funds\n    */\n    function transferETHfromEscrow(address payable _someAddress, uint256 _eth_amount)\n    private\n    returns(bool){\n        // require(address(_someAddress) != address(0));\n\n        // transfer the ETH\n        escrow.transferETH(_someAddress, _eth_amount);\n\n        // Update DB. true = deductFunds\n        endowmentDB.updateEndowmentFund(0, _eth_amount, true);\n\n        return true;\n    }\n\n    function transferETHfromEscrowWithdrawalPool(address payable _someAddress, uint256 _eth_amount, uint256 _pool_id)\n        public\n        onlyContract(CONTRACT_NAME_WITHDRAW_POOL)\n        returns(bool)\n    {\n        endowmentDB.subETHfromPool(_eth_amount, _pool_id);\n        transferETHfromEscrow(_someAddress, _eth_amount);\n        return true;\n    }\n\n    function transferETHfromEscrowEarningsTracker(address payable _someAddress, uint256 _eth_amount, bool invested)\n        public\n        onlyContract(CONTRACT_NAME_EARNINGS_TRACKER)\n        returns(bool)\n    {\n        if(!invested) {\n            endowmentDB.subInvestment(_eth_amount);\n            escrow.transferETH(_someAddress, _eth_amount);\n        }\n        else\n            transferETHfromEscrow(_someAddress, _eth_amount);\n        return true;\n    }\n\n    /**\n    * @dev transfer Escrow KFT funds\n    */\n    function transferKTYfromEscrow(address _someAddress, uint256 _kty_amount)\n    private\n    returns(bool){\n        // require(address(_someAddress) != address(0));\n\n        // transfer the KTY\n        escrow.transferKTY(_someAddress, _kty_amount);\n\n        // Update DB. true = deductFunds\n        endowmentDB.updateEndowmentFund(_kty_amount, 0, true);\n\n        return true;\n    }\n\n    function addETHtoPool(uint256 gameId, address loser)\n        external\n        onlyContract(CONTRACT_NAME_GAMEMANAGER)\n    {\n        uint256 totalEthForLoser = gmGetterDB.getTotalBet(gameId, loser);\n        uint256 ETHtoPool = totalEthForLoser.mul(gameVarAndFee.getPercentageForPool()).div(1000000);\n        endowmentDB.addETHtoPool(gameId, ETHtoPool);\n    }\n\n    /**\n    * @dev Initialize or Upgrade Escrow\n    * @notice BEFORE CALLING: Deploy escrow contract and set the owner as EndowmentFund contract\n    */\n    function initUpgradeEscrow(Escrow _newEscrow, uint256 _transferNum)\n        external\n        onlySuperAdmin\n        multiSigFundsMovement(_transferNum, address(_newEscrow))\n    {\n        // require(address(_newEscrow) != address(0));\n        _newEscrow.initialize(kittieFightToken);\n\n        // check ownership\n        // require(_newEscrow.owner() == address(this));\n\n        // KTY is set\n        // require(_newEscrow.getKTYaddress() != address(0));\n\n        if (address(escrow) != address(0)){ // Transfer if any funds\n\n            // transfer all the ETH\n            escrow.transferETH(address(_newEscrow), address(escrow).balance);\n\n            // transfer all the KTY\n            uint256 ktyBalance = kittieFightToken.balanceOf(address(escrow));\n            escrow.transferKTY(address(_newEscrow), ktyBalance);\n        }\n\n        escrow = _newEscrow;\n    }\n}\n",
  "sourcePath": "/Users/ziweizhang/Desktop/multi-sig/contracts/contracts/modules/endowment/EndowmentFund.sol",
  "compiler": {
    "name": "solc",
    "version": "0.5.17+commit.d19bba13.Emscripten.clang"
  },
  "schemaVersion": "3.0.23",
  "updatedAt": "2020-07-19T02:22:01.976Z",
  "devdoc": {
    "author": "@vikrammndal @wafflemakr @Xaleee @ziweidream",
    "details": "Responsible for : manage funds",
    "methods": {
      "claim(uint256)": {
        "details": "winner claims"
      },
      "contributeETH(uint256)": {
        "details": "GM calls"
      },
      "contributeKTY(address,uint256,uint256)": {
        "details": "accepts KTY. KTY is swapped in uniswap.KTY is sent to escrow. Ether is sent to KTY-WETH pair contract by the user.Escrow sends 2x of KTY received in swap to KTY-WETH pair contract to maintain the     original ether to KTY ratio."
      },
      "initUpgradeEscrow(address,uint256)": {
        "details": "Initialize or Upgrade Escrow"
      },
      "initialize()": {
        "details": "Sets related contractsCan be called only by the owner of this contract"
      },
      "sendETHtoEscrow()": {
        "details": "Send eth to Escrow"
      },
      "sendFinalizeRewards(address)": {
        "details": "send reward to the user that pressed finalize button"
      },
      "sendKTYtoEscrow(uint256)": {
        "details": "Send KTY from EndowmentFund to Escrow"
      },
      "transferEscrowOwnership(address)": {
        "details": "change Escrow contract owner before UPGRADING ENDOWMENT AS IT IS THE OWNER"
      },
      "updateHoneyPotState(uint256,uint256)": {
        "details": "updateHoneyPotState"
      }
    },
    "title": "EndowmentFund"
  },
  "userdoc": {
    "methods": {
      "getWinnerShare(uint256,address)": {
        "notice": "Calculates amount of Eth the winner can claim"
      },
      "initUpgradeEscrow(address,uint256)": {
        "notice": "BEFORE CALLING: Deploy escrow contract and set the owner as EndowmentFund contract"
      },
      "setProxy(address)": {
        "notice": "Set/update address of Proxy contract"
      },
      "transferEscrowOwnership(address)": {
        "notice": "MUST BE DONE BEFORE UPGRADING ENDOWMENT AS IT IS THE OWNER"
      }
    }
  }
}