{
  "contractName": "EndowmentDB",
  "abi": [
    {
      "inputs": [
        {
          "internalType": "contract GenericDB",
          "name": "_genericDB",
          "type": "address"
        }
      ],
      "payable": false,
      "stateMutability": "nonpayable",
      "type": "constructor"
    },
    {
      "constant": true,
      "inputs": [],
      "name": "genericDB",
      "outputs": [
        {
          "internalType": "contract GenericDB",
          "name": "",
          "type": "address"
        }
      ],
      "payable": false,
      "stateMutability": "view",
      "type": "function"
    },
    {
      "constant": true,
      "inputs": [],
      "name": "owner",
      "outputs": [
        {
          "internalType": "address payable",
          "name": "",
          "type": "address"
        }
      ],
      "payable": false,
      "stateMutability": "view",
      "type": "function"
    },
    {
      "constant": true,
      "inputs": [],
      "name": "proxy",
      "outputs": [
        {
          "internalType": "contract ProxyBase",
          "name": "",
          "type": "address"
        }
      ],
      "payable": false,
      "stateMutability": "view",
      "type": "function"
    },
    {
      "constant": false,
      "inputs": [
        {
          "internalType": "contract ProxyBase",
          "name": "_proxy",
          "type": "address"
        }
      ],
      "name": "setProxy",
      "outputs": [],
      "payable": false,
      "stateMutability": "nonpayable",
      "type": "function"
    },
    {
      "constant": false,
      "inputs": [
        {
          "internalType": "address payable",
          "name": "newOwner",
          "type": "address"
        }
      ],
      "name": "transferOwnership",
      "outputs": [],
      "payable": false,
      "stateMutability": "nonpayable",
      "type": "function"
    },
    {
      "constant": false,
      "inputs": [
        {
          "internalType": "contract GenericDB",
          "name": "_genericDB",
          "type": "address"
        }
      ],
      "name": "setGenericDB",
      "outputs": [],
      "payable": false,
      "stateMutability": "nonpayable",
      "type": "function"
    },
    {
      "constant": true,
      "inputs": [
        {
          "internalType": "uint256",
          "name": "_gameId",
          "type": "uint256"
        }
      ],
      "name": "getHoneyPotBalance",
      "outputs": [
        {
          "internalType": "uint256",
          "name": "honeyPotBalanceKTY",
          "type": "uint256"
        },
        {
          "internalType": "uint256",
          "name": "honeyPotBalanceETH",
          "type": "uint256"
        }
      ],
      "payable": false,
      "stateMutability": "view",
      "type": "function"
    },
    {
      "constant": false,
      "inputs": [
        {
          "internalType": "uint256",
          "name": "_gameId",
          "type": "uint256"
        },
        {
          "internalType": "uint256",
          "name": "_kty_amount",
          "type": "uint256"
        },
        {
          "internalType": "uint256",
          "name": "_eth_amount",
          "type": "uint256"
        },
        {
          "internalType": "bool",
          "name": "deductFunds",
          "type": "bool"
        }
      ],
      "name": "updateHoneyPotFund",
      "outputs": [
        {
          "internalType": "bool",
          "name": "",
          "type": "bool"
        }
      ],
      "payable": false,
      "stateMutability": "nonpayable",
      "type": "function"
    },
    {
      "constant": false,
      "inputs": [
        {
          "internalType": "uint256",
          "name": "_investment",
          "type": "uint256"
        }
      ],
      "name": "updateInvestment",
      "outputs": [],
      "payable": false,
      "stateMutability": "nonpayable",
      "type": "function"
    },
    {
      "constant": false,
      "inputs": [
        {
          "internalType": "uint256",
          "name": "_investment",
          "type": "uint256"
        }
      ],
      "name": "subInvestment",
      "outputs": [],
      "payable": false,
      "stateMutability": "nonpayable",
      "type": "function"
    },
    {
      "constant": false,
      "inputs": [
        {
          "internalType": "uint256",
          "name": "_kty_amount",
          "type": "uint256"
        },
        {
          "internalType": "uint256",
          "name": "_eth_amount",
          "type": "uint256"
        },
        {
          "internalType": "bool",
          "name": "deductFunds",
          "type": "bool"
        }
      ],
      "name": "updateEndowmentFund",
      "outputs": [
        {
          "internalType": "bool",
          "name": "",
          "type": "bool"
        }
      ],
      "payable": false,
      "stateMutability": "nonpayable",
      "type": "function"
    },
    {
      "constant": true,
      "inputs": [],
      "name": "getEndowmentBalance",
      "outputs": [
        {
          "internalType": "uint256",
          "name": "endowmentBalanceKTY",
          "type": "uint256"
        },
        {
          "internalType": "uint256",
          "name": "endowmentBalanceETH",
          "type": "uint256"
        }
      ],
      "payable": false,
      "stateMutability": "view",
      "type": "function"
    },
    {
      "constant": true,
      "inputs": [
        {
          "internalType": "uint256",
          "name": "gameId",
          "type": "uint256"
        }
      ],
      "name": "getHoneypotState",
      "outputs": [
        {
          "internalType": "uint256",
          "name": "state",
          "type": "uint256"
        },
        {
          "internalType": "uint256",
          "name": "claimTime",
          "type": "uint256"
        }
      ],
      "payable": false,
      "stateMutability": "view",
      "type": "function"
    },
    {
      "constant": false,
      "inputs": [
        {
          "internalType": "uint256",
          "name": "_gameId",
          "type": "uint256"
        },
        {
          "internalType": "uint256",
          "name": "state",
          "type": "uint256"
        }
      ],
      "name": "setHoneypotState",
      "outputs": [],
      "payable": false,
      "stateMutability": "nonpayable",
      "type": "function"
    },
    {
      "constant": true,
      "inputs": [
        {
          "internalType": "uint256",
          "name": "_gameId",
          "type": "uint256"
        }
      ],
      "name": "getHoneypotTotal",
      "outputs": [
        {
          "internalType": "uint256",
          "name": "totalEth",
          "type": "uint256"
        },
        {
          "internalType": "uint256",
          "name": "totalKty",
          "type": "uint256"
        }
      ],
      "payable": false,
      "stateMutability": "view",
      "type": "function"
    },
    {
      "constant": false,
      "inputs": [
        {
          "internalType": "uint256",
          "name": "gameId",
          "type": "uint256"
        },
        {
          "internalType": "uint256",
          "name": "ktyAllocated",
          "type": "uint256"
        },
        {
          "internalType": "uint256",
          "name": "ethAllocated",
          "type": "uint256"
        },
        {
          "internalType": "string",
          "name": "honeypotClass",
          "type": "string"
        }
      ],
      "name": "generateHoneyPot",
      "outputs": [
        {
          "internalType": "uint256",
          "name": "",
          "type": "uint256"
        },
        {
          "internalType": "uint256",
          "name": "",
          "type": "uint256"
        }
      ],
      "payable": false,
      "stateMutability": "nonpayable",
      "type": "function"
    },
    {
      "constant": false,
      "inputs": [
        {
          "internalType": "uint256",
          "name": "_gameId",
          "type": "uint256"
        },
        {
          "internalType": "address",
          "name": "_account",
          "type": "address"
        },
        {
          "internalType": "uint256",
          "name": "_eth_amount",
          "type": "uint256"
        },
        {
          "internalType": "uint256",
          "name": "_kty_amount",
          "type": "uint256"
        }
      ],
      "name": "setTotalDebit",
      "outputs": [
        {
          "internalType": "bool",
          "name": "",
          "type": "bool"
        }
      ],
      "payable": false,
      "stateMutability": "nonpayable",
      "type": "function"
    },
    {
      "constant": false,
      "inputs": [
        {
          "internalType": "uint256",
          "name": "_gameId",
          "type": "uint256"
        },
        {
          "internalType": "uint256",
          "name": "_poolId",
          "type": "uint256"
        }
      ],
      "name": "setPoolIDinGame",
      "outputs": [],
      "payable": false,
      "stateMutability": "nonpayable",
      "type": "function"
    },
    {
      "constant": false,
      "inputs": [
        {
          "internalType": "uint256",
          "name": "_gameId",
          "type": "uint256"
        },
        {
          "internalType": "uint256",
          "name": "_eth",
          "type": "uint256"
        }
      ],
      "name": "addETHtoPool",
      "outputs": [],
      "payable": false,
      "stateMutability": "nonpayable",
      "type": "function"
    },
    {
      "constant": false,
      "inputs": [
        {
          "internalType": "uint256",
          "name": "_eth",
          "type": "uint256"
        },
        {
          "internalType": "uint256",
          "name": "_pool_id",
          "type": "uint256"
        }
      ],
      "name": "subETHfromPool",
      "outputs": [],
      "payable": false,
      "stateMutability": "nonpayable",
      "type": "function"
    },
    {
      "constant": true,
      "inputs": [
        {
          "internalType": "uint256",
          "name": "_pool_id",
          "type": "uint256"
        }
      ],
      "name": "getETHinPool",
      "outputs": [
        {
          "internalType": "uint256",
          "name": "",
          "type": "uint256"
        }
      ],
      "payable": false,
      "stateMutability": "view",
      "type": "function"
    },
    {
      "constant": false,
      "inputs": [
        {
          "internalType": "uint256",
          "name": "pool_id",
          "type": "uint256"
        }
      ],
      "name": "checkInvestment",
      "outputs": [
        {
          "internalType": "uint256",
          "name": "",
          "type": "uint256"
        }
      ],
      "payable": false,
      "stateMutability": "nonpayable",
      "type": "function"
    },
    {
      "constant": true,
      "inputs": [
        {
          "internalType": "uint256",
          "name": "pool_id",
          "type": "uint256"
        }
      ],
      "name": "checkTotalForEpoch",
      "outputs": [
        {
          "internalType": "uint256",
          "name": "",
          "type": "uint256"
        }
      ],
      "payable": false,
      "stateMutability": "view",
      "type": "function"
    },
    {
      "constant": true,
      "inputs": [
        {
          "internalType": "uint256",
          "name": "_gameId",
          "type": "uint256"
        },
        {
          "internalType": "address",
          "name": "_account",
          "type": "address"
        }
      ],
      "name": "getTotalDebit",
      "outputs": [
        {
          "internalType": "uint256",
          "name": "ethTotalDebit",
          "type": "uint256"
        },
        {
          "internalType": "uint256",
          "name": "ktyTotalDebit",
          "type": "uint256"
        }
      ],
      "payable": false,
      "stateMutability": "view",
      "type": "function"
    },
    {
      "constant": true,
      "inputs": [
        {
          "internalType": "uint256",
          "name": "_gameId",
          "type": "uint256"
        }
      ],
      "name": "getPoolID",
      "outputs": [
        {
          "internalType": "uint256",
          "name": "poolID",
          "type": "uint256"
        }
      ],
      "payable": false,
      "stateMutability": "view",
      "type": "function"
    }
  ],
  "bytecode": "0x60806040523480156200001157600080fd5b50604051620060cb380380620060cb833981810160405260208110156200003757600080fd5b8101908080519060200190929190505050336000806101000a81548173ffffffffffffffffffffffffffffffffffffffff021916908373ffffffffffffffffffffffffffffffffffffffff1602179055506200009981620000a060201b60201c565b506200013b565b6000809054906101000a900473ffffffffffffffffffffffffffffffffffffffff1673ffffffffffffffffffffffffffffffffffffffff163373ffffffffffffffffffffffffffffffffffffffff1614620000f757fe5b80600260006101000a81548173ffffffffffffffffffffffffffffffffffffffff021916908373ffffffffffffffffffffffffffffffffffffffff16021790555050565b615f80806200014b6000396000f3fe608060405234801561001057600080fd5b50600436106101735760003560e01c80638da5cb5b116100de578063d6f2030911610097578063ec55688911610071578063ec5568891461080b578063ee700e7814610855578063f2fde38b14610883578063fe4d0765146108c757610173565b8063d6f2030914610752578063d89140711461079b578063e7abb197146107dd57610173565b80638da5cb5b1461051e57806397107d6d14610568578063996ab60a146105ac5780639db1200b146105e4578063b0e2ac8c1461061c578063b4f4a1761461065e57610173565b806360dace5d1161013057806360dace5d146103325780636213fc6d146103745780636933bbd7146103ee5780636d71894b14610437578063712153b3146104795780637cee0879146104d557610173565b8063231eb69114610178578063292eff5b146101e15780633564e78c146102195780634afab8151461026357806350b1a7cd146102a75780635acce36b1461030d575b600080fd5b6101c46004803603604081101561018e57600080fd5b8101908080359060200190929190803573ffffffffffffffffffffffffffffffffffffffff1690602001909291905050506108ff565b604051808381526020018281526020019250505060405180910390f35b610217600480360360408110156101f757600080fd5b810190808035906020019092919080359060200190929190505050610f80565b005b6102216112fe565b604051808273ffffffffffffffffffffffffffffffffffffffff1673ffffffffffffffffffffffffffffffffffffffff16815260200191505060405180910390f35b6102a56004803603602081101561027957600080fd5b81019080803573ffffffffffffffffffffffffffffffffffffffff169060200190929190505050611324565b005b6102f3600480360360808110156102bd57600080fd5b810190808035906020019092919080359060200190929190803590602001909291908035151590602001909291905050506113be565b604051808215151515815260200191505060405180910390f35b610315611cc7565b604051808381526020018281526020019250505060405180910390f35b61035e6004803603602081101561034857600080fd5b8101908080359060200190929190505050611ffe565b6040518082815260200191505060405180910390f35b6103d46004803603608081101561038a57600080fd5b8101908080359060200190929190803573ffffffffffffffffffffffffffffffffffffffff16906020019092919080359060200190929190803590602001909291905050506121a5565b604051808215151515815260200191505060405180910390f35b61041a6004803603602081101561040457600080fd5b8101908080359060200190929190505050612ad6565b604051808381526020018281526020019250505060405180910390f35b6104636004803603602081101561044d57600080fd5b8101908080359060200190929190505050612e1e565b6040518082815260200191505060405180910390f35b6104bb6004803603606081101561048f57600080fd5b810190808035906020019092919080359060200190929190803515159060200190929190505050613023565b604051808215151515815260200191505060405180910390f35b610501600480360360208110156104eb57600080fd5b8101908080359060200190929190505050613079565b604051808381526020018281526020019250505060405180910390f35b6105266133c1565b604051808273ffffffffffffffffffffffffffffffffffffffff1673ffffffffffffffffffffffffffffffffffffffff16815260200191505060405180910390f35b6105aa6004803603602081101561057e57600080fd5b81019080803573ffffffffffffffffffffffffffffffffffffffff1690602001909291905050506133e6565b005b6105e2600480360360408110156105c257600080fd5b810190808035906020019092919080359060200190929190505050613480565b005b61061a600480360360408110156105fa57600080fd5b810190808035906020019092919080359060200190929190505050613649565b005b6106486004803603602081101561063257600080fd5b8101908080359060200190929190505050613812565b6040518082815260200191505060405180910390f35b6107356004803603608081101561067457600080fd5b81019080803590602001909291908035906020019092919080359060200190929190803590602001906401000000008111156106af57600080fd5b8201836020820111156106c157600080fd5b803590602001918460018302840111640100000000831117156106e357600080fd5b91908080601f016020809104026020016040519081016040528093929190818152602001838380828437600081840152601f19601f820116905080830192505050505050509192919290505050613d68565b604051808381526020018281526020019250505060405180910390f35b61077e6004803603602081101561076857600080fd5b8101908080359060200190929190505050613dde565b604051808381526020018281526020019250505060405180910390f35b6107c7600480360360208110156107b157600080fd5b8101908080359060200190929190505050614126565b6040518082815260200191505060405180910390f35b610809600480360360208110156107f357600080fd5b81019080803590602001909291905050506142cd565b005b61081361432b565b604051808273ffffffffffffffffffffffffffffffffffffffff1673ffffffffffffffffffffffffffffffffffffffff16815260200191505060405180910390f35b6108816004803603602081101561086b57600080fd5b8101908080359060200190929190505050614351565b005b6108c56004803603602081101561089957600080fd5b81019080803573ffffffffffffffffffffffffffffffffffffffff1690602001909291905050506143af565b005b6108fd600480360360408110156108dd57600080fd5b81019080803590602001909291908035906020019092919050505061447d565b005b6000806040518060400160405280600d81526020017f456e646f776d656e7446756e640000000000000000000000000000000000000081525061094181614809565b84600260009054906101000a900473ffffffffffffffffffffffffffffffffffffffff1673ffffffffffffffffffffffffffffffffffffffff166396edc0096040518060400160405280600b81526020017f456e646f776d656e74444200000000000000000000000000000000000000000081525060405160200180807f486f6e6579706f745461626c6500000000000000000000000000000000000000815250600d01905060405160208183030381529060405280519060200120846040518463ffffffff1660e01b81526004018080602001848152602001838152602001828103825285818151815260200191508051906020019080838360005b83811015610a59578082015181840152602081019050610a3e565b50505050905090810190601f168015610a865780820380516001836020036101000a031916815260200191505b5094505050505060206040518083038186803b158015610aa557600080fd5b505afa158015610ab9573d6000803e3d6000fd5b505050506040513d6020811015610acf57600080fd5b81019080805190602001909291905050506040518060400160405280600a81526020017f4e6f74206578697374730000000000000000000000000000000000000000000081525090610bbc576040517f08c379a00000000000000000000000000000000000000000000000000000000081526004018080602001828103825283818151815260200191508051906020019080838360005b83811015610b81578082015181840152602081019050610b66565b50505050905090810190601f168015610bae5780820380516001836020036101000a031916815260200191505b509250505060405180910390fd5b5060008686604051602001808381526020018273ffffffffffffffffffffffffffffffffffffffff1673ffffffffffffffffffffffffffffffffffffffff1660601b8152601401807f65746844656269740000000000000000000000000000000000000000000000008152506008019250505060405160208183030381529060405280519060200120905060008787604051602001808381526020018273ffffffffffffffffffffffffffffffffffffffff1673ffffffffffffffffffffffffffffffffffffffff1660601b8152601401807f6b7479446562697400000000000000000000000000000000000000000000000081525060080192505050604051602081830303815290604052805190602001209050600260009054906101000a900473ffffffffffffffffffffffffffffffffffffffff1673ffffffffffffffffffffffffffffffffffffffff166308acb5566040518060400160405280600b81526020017f456e646f776d656e744442000000000000000000000000000000000000000000815250846040518363ffffffff1660e01b81526004018080602001838152602001828103825284818151815260200191508051906020019080838360005b83811015610d9b578082015181840152602081019050610d80565b50505050905090810190601f168015610dc85780820380516001836020036101000a031916815260200191505b50935050505060206040518083038186803b158015610de657600080fd5b505afa158015610dfa573d6000803e3d6000fd5b505050506040513d6020811015610e1057600080fd5b81019080805190602001909291905050509550600260009054906101000a900473ffffffffffffffffffffffffffffffffffffffff1673ffffffffffffffffffffffffffffffffffffffff166308acb5566040518060400160405280600b81526020017f456e646f776d656e744442000000000000000000000000000000000000000000815250836040518363ffffffff1660e01b81526004018080602001838152602001828103825284818151815260200191508051906020019080838360005b83811015610eed578082015181840152602081019050610ed2565b50505050905090810190601f168015610f1a5780820380516001836020036101000a031916815260200191505b50935050505060206040518083038186803b158015610f3857600080fd5b505afa158015610f4c573d6000803e3d6000fd5b505050506040513d6020811015610f6257600080fd5b81019080805190602001909291905050509450505050509250929050565b6040518060400160405280600d81526020017f456e646f776d656e7446756e6400000000000000000000000000000000000000815250610fbf81614809565b6000600260009054906101000a900473ffffffffffffffffffffffffffffffffffffffff1673ffffffffffffffffffffffffffffffffffffffff166308acb5566040518060400160405280600b81526020017f456e646f776d656e7444420000000000000000000000000000000000000000008152508560405160200180828152602001807f455448696e506f6f6c0000000000000000000000000000000000000000000000815250600901915050604051602081830303815290604052805190602001206040518363ffffffff1660e01b81526004018080602001838152602001828103825284818151815260200191508051906020019080838360005b838110156110d95780820151818401526020810190506110be565b50505050905090810190601f1680156111065780820380516001836020036101000a031916815260200191505b50935050505060206040518083038186803b15801561112457600080fd5b505afa158015611138573d6000803e3d6000fd5b505050506040513d602081101561114e57600080fd5b81019080805190602001909291905050509050600260009054906101000a900473ffffffffffffffffffffffffffffffffffffffff1673ffffffffffffffffffffffffffffffffffffffff16630214a37c6040518060400160405280600b81526020017f456e646f776d656e7444420000000000000000000000000000000000000000008152508560405160200180828152602001807f455448696e506f6f6c0000000000000000000000000000000000000000000000815250600901915050604051602081830303815290604052805190602001206112378886614aa490919063ffffffff16565b6040518463ffffffff1660e01b81526004018080602001848152602001838152602001828103825285818151815260200191508051906020019080838360005b83811015611292578082015181840152602081019050611277565b50505050905090810190601f1680156112bf5780820380516001836020036101000a031916815260200191505b50945050505050600060405180830381600087803b1580156112e057600080fd5b505af11580156112f4573d6000803e3d6000fd5b5050505050505050565b600260009054906101000a900473ffffffffffffffffffffffffffffffffffffffff1681565b6000809054906101000a900473ffffffffffffffffffffffffffffffffffffffff1673ffffffffffffffffffffffffffffffffffffffff163373ffffffffffffffffffffffffffffffffffffffff161461137a57fe5b80600260006101000a81548173ffffffffffffffffffffffffffffffffffffffff021916908373ffffffffffffffffffffffffffffffffffffffff16021790555050565b60006040518060400160405280600d81526020017f456e646f776d656e7446756e64000000000000000000000000000000000000008152506113ff81614809565b600080600087111561185d5760008860405160200180828152602001807f6b7479546f74616c000000000000000000000000000000000000000000000000815250600801915050604051602081830303815290604052805190602001209050600260009054906101000a900473ffffffffffffffffffffffffffffffffffffffff1673ffffffffffffffffffffffffffffffffffffffff166308acb5566040518060400160405280600b81526020017f456e646f776d656e744442000000000000000000000000000000000000000000815250836040518363ffffffff1660e01b81526004018080602001838152602001828103825284818151815260200191508051906020019080838360005b8381101561152857808201518184015260208101905061150d565b50505050905090810190601f1680156115555780820380516001836020036101000a031916815260200191505b50935050505060206040518083038186803b15801561157357600080fd5b505afa158015611587573d6000803e3d6000fd5b505050506040513d602081101561159d57600080fd5b81019080805190602001909291905050509250851561171157878310156115c357600080fd5b600260009054906101000a900473ffffffffffffffffffffffffffffffffffffffff1673ffffffffffffffffffffffffffffffffffffffff16630214a37c6040518060400160405280600b81526020017f456e646f776d656e7444420000000000000000000000000000000000000000008152508361164b8c88614aa490919063ffffffff16565b6040518463ffffffff1660e01b81526004018080602001848152602001838152602001828103825285818151815260200191508051906020019080838360005b838110156116a657808201518184015260208101905061168b565b50505050905090810190601f1680156116d35780820380516001836020036101000a031916815260200191505b50945050505050600060405180830381600087803b1580156116f457600080fd5b505af1158015611708573d6000803e3d6000fd5b5050505061185b565b600260009054906101000a900473ffffffffffffffffffffffffffffffffffffffff1673ffffffffffffffffffffffffffffffffffffffff16630214a37c6040518060400160405280600b81526020017f456e646f776d656e744442000000000000000000000000000000000000000000815250836117998c88614abb90919063ffffffff16565b6040518463ffffffff1660e01b81526004018080602001848152602001838152602001828103825285818151815260200191508051906020019080838360005b838110156117f45780820151818401526020810190506117d9565b50505050905090810190601f1680156118215780820380516001836020036101000a031916815260200191505b50945050505050600060405180830381600087803b15801561184257600080fd5b505af1158015611856573d6000803e3d6000fd5b505050505b505b6000861115611cb85760008860405160200180828152602001807f657468546f74616c000000000000000000000000000000000000000000000000815250600801915050604051602081830303815290604052805190602001209050600260009054906101000a900473ffffffffffffffffffffffffffffffffffffffff1673ffffffffffffffffffffffffffffffffffffffff166308acb5566040518060400160405280600b81526020017f456e646f776d656e744442000000000000000000000000000000000000000000815250836040518363ffffffff1660e01b81526004018080602001838152602001828103825284818151815260200191508051906020019080838360005b83811015611983578082015181840152602081019050611968565b50505050905090810190601f1680156119b05780820380516001836020036101000a031916815260200191505b50935050505060206040518083038186803b1580156119ce57600080fd5b505afa1580156119e2573d6000803e3d6000fd5b505050506040513d60208110156119f857600080fd5b810190808051906020019092919050505091508515611b6c5786821015611a1e57600080fd5b600260009054906101000a900473ffffffffffffffffffffffffffffffffffffffff1673ffffffffffffffffffffffffffffffffffffffff16630214a37c6040518060400160405280600b81526020017f456e646f776d656e74444200000000000000000000000000000000000000000081525083611aa68b87614aa490919063ffffffff16565b6040518463ffffffff1660e01b81526004018080602001848152602001838152602001828103825285818151815260200191508051906020019080838360005b83811015611b01578082015181840152602081019050611ae6565b50505050905090810190601f168015611b2e5780820380516001836020036101000a031916815260200191505b50945050505050600060405180830381600087803b158015611b4f57600080fd5b505af1158015611b63573d6000803e3d6000fd5b50505050611cb6565b600260009054906101000a900473ffffffffffffffffffffffffffffffffffffffff1673ffffffffffffffffffffffffffffffffffffffff16630214a37c6040518060400160405280600b81526020017f456e646f776d656e74444200000000000000000000000000000000000000000081525083611bf48b87614abb90919063ffffffff16565b6040518463ffffffff1660e01b81526004018080602001848152602001838152602001828103825285818151815260200191508051906020019080838360005b83811015611c4f578082015181840152602081019050611c34565b50505050905090810190601f168015611c7c5780820380516001836020036101000a031916815260200191505b50945050505050600060405180830381600087803b158015611c9d57600080fd5b505af1158015611cb1573d6000803e3d6000fd5b505050505b505b60019350505050949350505050565b600080600260009054906101000a900473ffffffffffffffffffffffffffffffffffffffff1673ffffffffffffffffffffffffffffffffffffffff166308acb5566040518060400160405280600b81526020017f456e646f776d656e74444200000000000000000000000000000000000000000081525060405160200180807f61637475616c46756e64734b5459000000000000000000000000000000000000815250600e019050604051602081830303815290604052805190602001206040518363ffffffff1660e01b81526004018080602001838152602001828103825284818151815260200191508051906020019080838360005b83811015611dda578082015181840152602081019050611dbf565b50505050905090810190601f168015611e075780820380516001836020036101000a031916815260200191505b50935050505060206040518083038186803b158015611e2557600080fd5b505afa158015611e39573d6000803e3d6000fd5b505050506040513d6020811015611e4f57600080fd5b81019080805190602001909291905050509150600260009054906101000a900473ffffffffffffffffffffffffffffffffffffffff1673ffffffffffffffffffffffffffffffffffffffff166308acb5566040518060400160405280600b81526020017f456e646f776d656e74444200000000000000000000000000000000000000000081525060405160200180807f61637475616c46756e6473455448000000000000000000000000000000000000815250600e019050604051602081830303815290604052805190602001206040518363ffffffff1660e01b81526004018080602001838152602001828103825284818151815260200191508051906020019080838360005b83811015611f72578082015181840152602081019050611f57565b50505050905090810190601f168015611f9f5780820380516001836020036101000a031916815260200191505b50935050505060206040518083038186803b158015611fbd57600080fd5b505afa158015611fd1573d6000803e3d6000fd5b505050506040513d6020811015611fe757600080fd5b810190808051906020019092919050505090509091565b6000600260009054906101000a900473ffffffffffffffffffffffffffffffffffffffff1673ffffffffffffffffffffffffffffffffffffffff166308acb5566040518060400160405280600b81526020017f456e646f776d656e7444420000000000000000000000000000000000000000008152508460405160200180828152602001807f455448696e506f6f6c0000000000000000000000000000000000000000000000815250600901915050604051602081830303815290604052805190602001206040518363ffffffff1660e01b81526004018080602001838152602001828103825284818151815260200191508051906020019080838360005b838110156121185780820151818401526020810190506120fd565b50505050905090810190601f1680156121455780820380516001836020036101000a031916815260200191505b50935050505060206040518083038186803b15801561216357600080fd5b505afa158015612177573d6000803e3d6000fd5b505050506040513d602081101561218d57600080fd5b81019080805190602001909291905050509050919050565b60006040518060400160405280600d81526020017f456e646f776d656e7446756e64000000000000000000000000000000000000008152506121e681614809565b85600260009054906101000a900473ffffffffffffffffffffffffffffffffffffffff1673ffffffffffffffffffffffffffffffffffffffff166396edc0096040518060400160405280600b81526020017f456e646f776d656e74444200000000000000000000000000000000000000000081525060405160200180807f486f6e6579706f745461626c6500000000000000000000000000000000000000815250600d01905060405160208183030381529060405280519060200120846040518463ffffffff1660e01b81526004018080602001848152602001838152602001828103825285818151815260200191508051906020019080838360005b838110156122fe5780820151818401526020810190506122e3565b50505050905090810190601f16801561232b5780820380516001836020036101000a031916815260200191505b5094505050505060206040518083038186803b15801561234a57600080fd5b505afa15801561235e573d6000803e3d6000fd5b505050506040513d602081101561237457600080fd5b81019080805190602001909291905050506040518060400160405280600a81526020017f4e6f74206578697374730000000000000000000000000000000000000000000081525090612461576040517f08c379a00000000000000000000000000000000000000000000000000000000081526004018080602001828103825283818151815260200191508051906020019080838360005b8381101561242657808201518184015260208101905061240b565b50505050905090810190601f1680156124535780820380516001836020036101000a031916815260200191505b509250505060405180910390fd5b5060008511156127955760008787604051602001808381526020018273ffffffffffffffffffffffffffffffffffffffff1673ffffffffffffffffffffffffffffffffffffffff1660601b8152601401807f6574684465626974000000000000000000000000000000000000000000000000815250600801925050506040516020818303038152906040528051906020012090506000600260009054906101000a900473ffffffffffffffffffffffffffffffffffffffff1673ffffffffffffffffffffffffffffffffffffffff166308acb5566040518060400160405280600b81526020017f456e646f776d656e744442000000000000000000000000000000000000000000815250846040518363ffffffff1660e01b81526004018080602001838152602001828103825284818151815260200191508051906020019080838360005b838110156125c15780820151818401526020810190506125a6565b50505050905090810190601f1680156125ee5780820380516001836020036101000a031916815260200191505b50935050505060206040518083038186803b15801561260c57600080fd5b505afa158015612620573d6000803e3d6000fd5b505050506040513d602081101561263657600080fd5b81019080805190602001909291905050509050600260009054906101000a900473ffffffffffffffffffffffffffffffffffffffff1673ffffffffffffffffffffffffffffffffffffffff16630214a37c6040518060400160405280600b81526020017f456e646f776d656e744442000000000000000000000000000000000000000000815250846126d18b86614abb90919063ffffffff16565b6040518463ffffffff1660e01b81526004018080602001848152602001838152602001828103825285818151815260200191508051906020019080838360005b8381101561272c578082015181840152602081019050612711565b50505050905090810190601f1680156127595780820380516001836020036101000a031916815260200191505b50945050505050600060405180830381600087803b15801561277a57600080fd5b505af115801561278e573d6000803e3d6000fd5b5050505050505b6000841115612ac85760008787604051602001808381526020018273ffffffffffffffffffffffffffffffffffffffff1673ffffffffffffffffffffffffffffffffffffffff1660601b8152601401807f6b74794465626974000000000000000000000000000000000000000000000000815250600801925050506040516020818303038152906040528051906020012090506000600260009054906101000a900473ffffffffffffffffffffffffffffffffffffffff1673ffffffffffffffffffffffffffffffffffffffff166308acb5566040518060400160405280600b81526020017f456e646f776d656e744442000000000000000000000000000000000000000000815250846040518363ffffffff1660e01b81526004018080602001838152602001828103825284818151815260200191508051906020019080838360005b838110156128f45780820151818401526020810190506128d9565b50505050905090810190601f1680156129215780820380516001836020036101000a031916815260200191505b50935050505060206040518083038186803b15801561293f57600080fd5b505afa158015612953573d6000803e3d6000fd5b505050506040513d602081101561296957600080fd5b81019080805190602001909291905050509050600260009054906101000a900473ffffffffffffffffffffffffffffffffffffffff1673ffffffffffffffffffffffffffffffffffffffff16630214a37c6040518060400160405280600b81526020017f456e646f776d656e74444200000000000000000000000000000000000000000081525084612a048a86614abb90919063ffffffff16565b6040518463ffffffff1660e01b81526004018080602001848152602001838152602001828103825285818151815260200191508051906020019080838360005b83811015612a5f578082015181840152602081019050612a44565b50505050905090810190601f168015612a8c5780820380516001836020036101000a031916815260200191505b50945050505050600060405180830381600087803b158015612aad57600080fd5b505af1158015612ac1573d6000803e3d6000fd5b5050505050505b600192505050949350505050565b600080600260009054906101000a900473ffffffffffffffffffffffffffffffffffffffff1673ffffffffffffffffffffffffffffffffffffffff166308acb5566040518060400160405280600b81526020017f456e646f776d656e7444420000000000000000000000000000000000000000008152508560405160200180828152602001807f7374617465000000000000000000000000000000000000000000000000000000815250600501915050604051602081830303815290604052805190602001206040518363ffffffff1660e01b81526004018080602001838152602001828103825284818151815260200191508051906020019080838360005b83811015612bf1578082015181840152602081019050612bd6565b50505050905090810190601f168015612c1e5780820380516001836020036101000a031916815260200191505b50935050505060206040518083038186803b158015612c3c57600080fd5b505afa158015612c50573d6000803e3d6000fd5b505050506040513d6020811015612c6657600080fd5b8101908080519060200190929190505050600260009054906101000a900473ffffffffffffffffffffffffffffffffffffffff1673ffffffffffffffffffffffffffffffffffffffff166308acb5566040518060400160405280600b81526020017f456e646f776d656e7444420000000000000000000000000000000000000000008152508660405160200180828152602001807f636c61696d54696d650000000000000000000000000000000000000000000000815250600901915050604051602081830303815290604052805190602001206040518363ffffffff1660e01b81526004018080602001838152602001828103825284818151815260200191508051906020019080838360005b83811015612d8f578082015181840152602081019050612d74565b50505050905090810190601f168015612dbc5780820380516001836020036101000a031916815260200191505b50935050505060206040518083038186803b158015612dda57600080fd5b505afa158015612dee573d6000803e3d6000fd5b505050506040513d6020811015612e0457600080fd5b810190808051906020019092919050505091509150915091565b60006040518060400160405280600981526020017f47616d6553746f72650000000000000000000000000000000000000000000000815250612e5f81614809565b6000612e6a84611ffe565b90506000600260009054906101000a900473ffffffffffffffffffffffffffffffffffffffff1673ffffffffffffffffffffffffffffffffffffffff166308acb5566040518060400160405280600b81526020017f456e646f776d656e74444200000000000000000000000000000000000000000081525060405160200180807f61637475616c46756e6473455448000000000000000000000000000000000000815250600e019050604051602081830303815290604052805190602001206040518363ffffffff1660e01b81526004018080602001838152602001828103825284818151815260200191508051906020019080838360005b83811015612f7e578082015181840152602081019050612f63565b50505050905090810190601f168015612fab5780820380516001836020036101000a031916815260200191505b50935050505060206040518083038186803b158015612fc957600080fd5b505afa158015612fdd573d6000803e3d6000fd5b505050506040513d6020811015612ff357600080fd5b810190808051906020019092919050505090506130198282614aa490919063ffffffff16565b9350505050919050565b60006040518060400160405280600d81526020017f456e646f776d656e7446756e640000000000000000000000000000000000000081525061306481614809565b61306f858585614ad7565b9150509392505050565b600080600260009054906101000a900473ffffffffffffffffffffffffffffffffffffffff1673ffffffffffffffffffffffffffffffffffffffff166308acb5566040518060400160405280600b81526020017f456e646f776d656e7444420000000000000000000000000000000000000000008152508560405160200180828152602001807f657468546f74616c000000000000000000000000000000000000000000000000815250600801915050604051602081830303815290604052805190602001206040518363ffffffff1660e01b81526004018080602001838152602001828103825284818151815260200191508051906020019080838360005b83811015613194578082015181840152602081019050613179565b50505050905090810190601f1680156131c15780820380516001836020036101000a031916815260200191505b50935050505060206040518083038186803b1580156131df57600080fd5b505afa1580156131f3573d6000803e3d6000fd5b505050506040513d602081101561320957600080fd5b81019080805190602001909291905050509150600260009054906101000a900473ffffffffffffffffffffffffffffffffffffffff1673ffffffffffffffffffffffffffffffffffffffff166308acb5566040518060400160405280600b81526020017f456e646f776d656e7444420000000000000000000000000000000000000000008152508560405160200180828152602001807f6b7479546f74616c000000000000000000000000000000000000000000000000815250600801915050604051602081830303815290604052805190602001206040518363ffffffff1660e01b81526004018080602001838152602001828103825284818151815260200191508051906020019080838360005b83811015613334578082015181840152602081019050613319565b50505050905090810190601f1680156133615780820380516001836020036101000a031916815260200191505b50935050505060206040518083038186803b15801561337f57600080fd5b505afa158015613393573d6000803e3d6000fd5b505050506040513d60208110156133a957600080fd5b81019080805190602001909291905050509050915091565b6000809054906101000a900473ffffffffffffffffffffffffffffffffffffffff1681565b6000809054906101000a900473ffffffffffffffffffffffffffffffffffffffff1673ffffffffffffffffffffffffffffffffffffffff163373ffffffffffffffffffffffffffffffffffffffff161461343c57fe5b80600160006101000a81548173ffffffffffffffffffffffffffffffffffffffff021916908373ffffffffffffffffffffffffffffffffffffffff16021790555050565b6040518060400160405280600d81526020017f456e646f776d656e7446756e64000000000000000000000000000000000000008152506134bf81614809565b600260009054906101000a900473ffffffffffffffffffffffffffffffffffffffff1673ffffffffffffffffffffffffffffffffffffffff16630214a37c6040518060400160405280600b81526020017f456e646f776d656e7444420000000000000000000000000000000000000000008152508560405160200180828152602001807f737461746500000000000000000000000000000000000000000000000000000081525060050191505060405160208183030381529060405280519060200120856040518463ffffffff1660e01b81526004018080602001848152602001838152602001828103825285818151815260200191508051906020019080838360005b838110156135de5780820151818401526020810190506135c3565b50505050905090810190601f16801561360b5780820380516001836020036101000a031916815260200191505b50945050505050600060405180830381600087803b15801561362c57600080fd5b505af1158015613640573d6000803e3d6000fd5b50505050505050565b6040518060400160405280600c81526020017f47616d654372656174696f6e000000000000000000000000000000000000000081525061368881614809565b600260009054906101000a900473ffffffffffffffffffffffffffffffffffffffff1673ffffffffffffffffffffffffffffffffffffffff16630214a37c6040518060400160405280600b81526020017f456e646f776d656e7444420000000000000000000000000000000000000000008152508560405160200180828152602001807f706f6f6c4944000000000000000000000000000000000000000000000000000081525060060191505060405160208183030381529060405280519060200120856040518463ffffffff1660e01b81526004018080602001848152602001838152602001828103825285818151815260200191508051906020019080838360005b838110156137a757808201518184015260208101905061378c565b50505050905090810190601f1680156137d45780820380516001836020036101000a031916815260200191505b50945050505050600060405180830381600087803b1580156137f557600080fd5b505af1158015613809573d6000803e3d6000fd5b50505050505050565b60006040518060400160405280600c81526020017f5769746864726177506f6f6c000000000000000000000000000000000000000081525061385381614809565b6000808414613b9957613878613873600186614aa490919063ffffffff16565b611ffe565b9050600260009054906101000a900473ffffffffffffffffffffffffffffffffffffffff1673ffffffffffffffffffffffffffffffffffffffff16630214a37c6040518060400160405280600b81526020017f456e646f776d656e744442000000000000000000000000000000000000000000815250613902600188614aa490919063ffffffff16565b60405160200180828152602001807f455448696e506f6f6c00000000000000000000000000000000000000000000008152506009019150506040516020818303038152906040528051906020012060006040518463ffffffff1660e01b81526004018080602001848152602001838152602001828103825285818151815260200191508051906020019080838360005b838110156139ad578082015181840152602081019050613992565b50505050905090810190601f1680156139da5780820380516001836020036101000a031916815260200191505b50945050505050600060405180830381600087803b1580156139fb57600080fd5b505af1158015613a0f573d6000803e3d6000fd5b50505050600260009054906101000a900473ffffffffffffffffffffffffffffffffffffffff1673ffffffffffffffffffffffffffffffffffffffff16630214a37c6040518060400160405280600b81526020017f456e646f776d656e7444420000000000000000000000000000000000000000008152508660405160200180828152602001807f455448696e506f6f6c000000000000000000000000000000000000000000000081525060090191505060405160208183030381529060405280519060200120846040518463ffffffff1660e01b81526004018080602001848152602001838152602001828103825285818151815260200191508051906020019080838360005b83811015613b32578082015181840152602081019050613b17565b50505050905090810190601f168015613b5f5780820380516001836020036101000a031916815260200191505b50945050505050600060405180830381600087803b158015613b8057600080fd5b505af1158015613b94573d6000803e3d6000fd5b505050505b613ba860006003546000614ad7565b506000600260009054906101000a900473ffffffffffffffffffffffffffffffffffffffff1673ffffffffffffffffffffffffffffffffffffffff166308acb5566040518060400160405280600b81526020017f456e646f776d656e74444200000000000000000000000000000000000000000081525060405160200180807f61637475616c46756e6473455448000000000000000000000000000000000000815250600e019050604051602081830303815290604052805190602001206040518363ffffffff1660e01b81526004018080602001838152602001828103825284818151815260200191508051906020019080838360005b83811015613cbb578082015181840152602081019050613ca0565b50505050905090810190601f168015613ce85780820380516001836020036101000a031916815260200191505b50935050505060206040518083038186803b158015613d0657600080fd5b505afa158015613d1a573d6000803e3d6000fd5b505050506040513d6020811015613d3057600080fd5b810190808051906020019092919050505090506000600381905550613d5e8282614aa490919063ffffffff16565b9350505050919050565b6000806040518060400160405280600d81526020017f456e646f776d656e7446756e6400000000000000000000000000000000000000815250613daa81614809565b613db98760004289898961549b565b613dc586866001614ad7565b613dce57600080fd5b8585925092505094509492505050565b600080600260009054906101000a900473ffffffffffffffffffffffffffffffffffffffff1673ffffffffffffffffffffffffffffffffffffffff166308acb5566040518060400160405280600b81526020017f456e646f776d656e7444420000000000000000000000000000000000000000008152508560405160200180828152602001807f6b7479546f74616c000000000000000000000000000000000000000000000000815250600801915050604051602081830303815290604052805190602001206040518363ffffffff1660e01b81526004018080602001838152602001828103825284818151815260200191508051906020019080838360005b83811015613ef9578082015181840152602081019050613ede565b50505050905090810190601f168015613f265780820380516001836020036101000a031916815260200191505b50935050505060206040518083038186803b158015613f4457600080fd5b505afa158015613f58573d6000803e3d6000fd5b505050506040513d6020811015613f6e57600080fd5b81019080805190602001909291905050509150600260009054906101000a900473ffffffffffffffffffffffffffffffffffffffff1673ffffffffffffffffffffffffffffffffffffffff166308acb5566040518060400160405280600b81526020017f456e646f776d656e7444420000000000000000000000000000000000000000008152508560405160200180828152602001807f657468546f74616c000000000000000000000000000000000000000000000000815250600801915050604051602081830303815290604052805190602001206040518363ffffffff1660e01b81526004018080602001838152602001828103825284818151815260200191508051906020019080838360005b8381101561409957808201518184015260208101905061407e565b50505050905090810190601f1680156140c65780820380516001836020036101000a031916815260200191505b50935050505060206040518083038186803b1580156140e457600080fd5b505afa1580156140f8573d6000803e3d6000fd5b505050506040513d602081101561410e57600080fd5b81019080805190602001909291905050509050915091565b6000600260009054906101000a900473ffffffffffffffffffffffffffffffffffffffff1673ffffffffffffffffffffffffffffffffffffffff166308acb5566040518060400160405280600b81526020017f456e646f776d656e7444420000000000000000000000000000000000000000008152508460405160200180828152602001807f706f6f6c49440000000000000000000000000000000000000000000000000000815250600601915050604051602081830303815290604052805190602001206040518363ffffffff1660e01b81526004018080602001838152602001828103825284818151815260200191508051906020019080838360005b83811015614240578082015181840152602081019050614225565b50505050905090810190601f16801561426d5780820380516001836020036101000a031916815260200191505b50935050505060206040518083038186803b15801561428b57600080fd5b505afa15801561429f573d6000803e3d6000fd5b505050506040513d60208110156142b557600080fd5b81019080805190602001909291905050509050919050565b6040518060400160405280600d81526020017f456e646f776d656e7446756e640000000000000000000000000000000000000081525061430c81614809565b61432182600354614aa490919063ffffffff16565b6003819055505050565b600160009054906101000a900473ffffffffffffffffffffffffffffffffffffffff1681565b6040518060400160405280600d81526020017f456e646f776d656e7446756e640000000000000000000000000000000000000081525061439081614809565b6143a582600354614abb90919063ffffffff16565b6003819055505050565b6000809054906101000a900473ffffffffffffffffffffffffffffffffffffffff1673ffffffffffffffffffffffffffffffffffffffff163373ffffffffffffffffffffffffffffffffffffffff161461440557fe5b600073ffffffffffffffffffffffffffffffffffffffff168173ffffffffffffffffffffffffffffffffffffffff161461447a57806000806101000a81548173ffffffffffffffffffffffffffffffffffffffff021916908373ffffffffffffffffffffffffffffffffffffffff1602179055505b50565b6040518060400160405280600d81526020017f456e646f776d656e7446756e64000000000000000000000000000000000000008152506144bc81614809565b60006144c784614126565b90506000600260009054906101000a900473ffffffffffffffffffffffffffffffffffffffff1673ffffffffffffffffffffffffffffffffffffffff166308acb5566040518060400160405280600b81526020017f456e646f776d656e7444420000000000000000000000000000000000000000008152508460405160200180828152602001807f455448696e506f6f6c0000000000000000000000000000000000000000000000815250600901915050604051602081830303815290604052805190602001206040518363ffffffff1660e01b81526004018080602001838152602001828103825284818151815260200191508051906020019080838360005b838110156145e35780820151818401526020810190506145c8565b50505050905090810190601f1680156146105780820380516001836020036101000a031916815260200191505b50935050505060206040518083038186803b15801561462e57600080fd5b505afa158015614642573d6000803e3d6000fd5b505050506040513d602081101561465857600080fd5b81019080805190602001909291905050509050600260009054906101000a900473ffffffffffffffffffffffffffffffffffffffff1673ffffffffffffffffffffffffffffffffffffffff16630214a37c6040518060400160405280600b81526020017f456e646f776d656e7444420000000000000000000000000000000000000000008152508460405160200180828152602001807f455448696e506f6f6c0000000000000000000000000000000000000000000000815250600901915050604051602081830303815290604052805190602001206147418886614abb90919063ffffffff16565b6040518463ffffffff1660e01b81526004018080602001848152602001838152602001828103825285818151815260200191508051906020019080838360005b8381101561479c578082015181840152602081019050614781565b50505050905090810190601f1680156147c95780820380516001836020036101000a031916815260200191505b50945050505050600060405180830381600087803b1580156147ea57600080fd5b505af11580156147fe573d6000803e3d6000fd5b505050505050505050565b600073ffffffffffffffffffffffffffffffffffffffff16600160009054906101000a900473ffffffffffffffffffffffffffffffffffffffff1673ffffffffffffffffffffffffffffffffffffffff1614156148ce576040517f08c379a00000000000000000000000000000000000000000000000000000000081526004018080602001828103825260088152602001807f4e6f2050726f787900000000000000000000000000000000000000000000000081525060200191505060405180910390fd5b6000600160009054906101000a900473ffffffffffffffffffffffffffffffffffffffff1673ffffffffffffffffffffffffffffffffffffffff166335817773836040518263ffffffff1660e01b81526004018080602001828103825283818151815260200191508051906020019080838360005b8381101561495e578082015181840152602081019050614943565b50505050905090810190601f16801561498b5780820380516001836020036101000a031916815260200191505b509250505060206040518083038186803b1580156149a857600080fd5b505afa1580156149bc573d6000803e3d6000fd5b505050506040513d60208110156149d257600080fd5b81019080805190602001909291905050509050600073ffffffffffffffffffffffffffffffffffffffff168173ffffffffffffffffffffffffffffffffffffffff161415614a1c57fe5b8073ffffffffffffffffffffffffffffffffffffffff163373ffffffffffffffffffffffffffffffffffffffff1614614aa0576040517f08c379a000000000000000000000000000000000000000000000000000000000815260040180806020018281038252602d815260200180615f1f602d913960400191505060405180910390fd5b5050565b600082821115614ab057fe5b818303905092915050565b600080828401905083811015614acd57fe5b8091505092915050565b600080841115614fb4576000600260009054906101000a900473ffffffffffffffffffffffffffffffffffffffff1673ffffffffffffffffffffffffffffffffffffffff166308acb5566040518060400160405280600b81526020017f456e646f776d656e74444200000000000000000000000000000000000000000081525060405160200180807f61637475616c46756e64734b5459000000000000000000000000000000000000815250600e019050604051602081830303815290604052805190602001206040518363ffffffff1660e01b81526004018080602001838152602001828103825284818151815260200191508051906020019080838360005b83811015614bf3578082015181840152602081019050614bd8565b50505050905090810190601f168015614c205780820380516001836020036101000a031916815260200191505b50935050505060206040518083038186803b158015614c3e57600080fd5b505afa158015614c52573d6000803e3d6000fd5b505050506040513d6020811015614c6857600080fd5b810190808051906020019092919050505090508215614e225784811015614c8e57600080fd5b600260009054906101000a900473ffffffffffffffffffffffffffffffffffffffff1673ffffffffffffffffffffffffffffffffffffffff16630214a37c6040518060400160405280600b81526020017f456e646f776d656e74444200000000000000000000000000000000000000000081525060405160200180807f61637475616c46756e64734b5459000000000000000000000000000000000000815250600e01905060405160208183030381529060405280519060200120614d5c8986614aa490919063ffffffff16565b6040518463ffffffff1660e01b81526004018080602001848152602001838152602001828103825285818151815260200191508051906020019080838360005b83811015614db7578082015181840152602081019050614d9c565b50505050905090810190601f168015614de45780820380516001836020036101000a031916815260200191505b50945050505050600060405180830381600087803b158015614e0557600080fd5b505af1158015614e19573d6000803e3d6000fd5b50505050614fb2565b600260009054906101000a900473ffffffffffffffffffffffffffffffffffffffff1673ffffffffffffffffffffffffffffffffffffffff16630214a37c6040518060400160405280600b81526020017f456e646f776d656e74444200000000000000000000000000000000000000000081525060405160200180807f61637475616c46756e64734b5459000000000000000000000000000000000000815250600e01905060405160208183030381529060405280519060200120614ef08986614abb90919063ffffffff16565b6040518463ffffffff1660e01b81526004018080602001848152602001838152602001828103825285818151815260200191508051906020019080838360005b83811015614f4b578082015181840152602081019050614f30565b50505050905090810190601f168015614f785780820380516001836020036101000a031916815260200191505b50945050505050600060405180830381600087803b158015614f9957600080fd5b505af1158015614fad573d6000803e3d6000fd5b505050505b505b6000831115615490576000600260009054906101000a900473ffffffffffffffffffffffffffffffffffffffff1673ffffffffffffffffffffffffffffffffffffffff166308acb5566040518060400160405280600b81526020017f456e646f776d656e74444200000000000000000000000000000000000000000081525060405160200180807f61637475616c46756e6473455448000000000000000000000000000000000000815250600e019050604051602081830303815290604052805190602001206040518363ffffffff1660e01b81526004018080602001838152602001828103825284818151815260200191508051906020019080838360005b838110156150cf5780820151818401526020810190506150b4565b50505050905090810190601f1680156150fc5780820380516001836020036101000a031916815260200191505b50935050505060206040518083038186803b15801561511a57600080fd5b505afa15801561512e573d6000803e3d6000fd5b505050506040513d602081101561514457600080fd5b8101908080519060200190929190505050905082156152fe578381101561516a57600080fd5b600260009054906101000a900473ffffffffffffffffffffffffffffffffffffffff1673ffffffffffffffffffffffffffffffffffffffff16630214a37c6040518060400160405280600b81526020017f456e646f776d656e74444200000000000000000000000000000000000000000081525060405160200180807f61637475616c46756e6473455448000000000000000000000000000000000000815250600e019050604051602081830303815290604052805190602001206152388886614aa490919063ffffffff16565b6040518463ffffffff1660e01b81526004018080602001848152602001838152602001828103825285818151815260200191508051906020019080838360005b83811015615293578082015181840152602081019050615278565b50505050905090810190601f1680156152c05780820380516001836020036101000a031916815260200191505b50945050505050600060405180830381600087803b1580156152e157600080fd5b505af11580156152f5573d6000803e3d6000fd5b5050505061548e565b600260009054906101000a900473ffffffffffffffffffffffffffffffffffffffff1673ffffffffffffffffffffffffffffffffffffffff16630214a37c6040518060400160405280600b81526020017f456e646f776d656e74444200000000000000000000000000000000000000000081525060405160200180807f61637475616c46756e6473455448000000000000000000000000000000000000815250600e019050604051602081830303815290604052805190602001206153cc8886614abb90919063ffffffff16565b6040518463ffffffff1660e01b81526004018080602001848152602001838152602001828103825285818151815260200191508051906020019080838360005b8381101561542757808201518184015260208101905061540c565b50505050905090810190601f1680156154545780820380516001836020036101000a031916815260200191505b50945050505050600060405180830381600087803b15801561547557600080fd5b505af1158015615489573d6000803e3d6000fd5b505050505b505b600190509392505050565b600260009054906101000a900473ffffffffffffffffffffffffffffffffffffffff1673ffffffffffffffffffffffffffffffffffffffff166387d533626040518060400160405280600b81526020017f456e646f776d656e74444200000000000000000000000000000000000000000081525060405160200180807f486f6e6579706f745461626c6500000000000000000000000000000000000000815250600d01905060405160208183030381529060405280519060200120896040518463ffffffff1660e01b81526004018080602001848152602001838152602001828103825285818151815260200191508051906020019080838360005b838110156155b2578082015181840152602081019050615597565b50505050905090810190601f1680156155df5780820380516001836020036101000a031916815260200191505b50945050505050602060405180830381600087803b15801561560057600080fd5b505af1158015615614573d6000803e3d6000fd5b505050506040513d602081101561562a57600080fd5b81019080805190602001909291905050506040518060400160405280600e81526020017f416c72656164792065786973747300000000000000000000000000000000000081525090615717576040517f08c379a00000000000000000000000000000000000000000000000000000000081526004018080602001828103825283818151815260200191508051906020019080838360005b838110156156dc5780820151818401526020810190506156c1565b50505050905090810190601f1680156157095780820380516001836020036101000a031916815260200191505b509250505060405180910390fd5b50600260009054906101000a900473ffffffffffffffffffffffffffffffffffffffff1673ffffffffffffffffffffffffffffffffffffffff16630214a37c6040518060400160405280600b81526020017f456e646f776d656e7444420000000000000000000000000000000000000000008152508860405160200180828152602001807f737461746500000000000000000000000000000000000000000000000000000081525060050191505060405160208183030381529060405280519060200120886040518463ffffffff1660e01b81526004018080602001848152602001838152602001828103825285818151815260200191508051906020019080838360005b8381101561583757808201518184015260208101905061581c565b50505050905090810190601f1680156158645780820380516001836020036101000a031916815260200191505b50945050505050600060405180830381600087803b15801561588557600080fd5b505af1158015615899573d6000803e3d6000fd5b50505050600260009054906101000a900473ffffffffffffffffffffffffffffffffffffffff1673ffffffffffffffffffffffffffffffffffffffff16630214a37c6040518060400160405280600b81526020017f456e646f776d656e7444420000000000000000000000000000000000000000008152508860405160200180828152602001807f6372656174656454696d65000000000000000000000000000000000000000000815250600b0191505060405160208183030381529060405280519060200120876040518463ffffffff1660e01b81526004018080602001848152602001838152602001828103825285818151815260200191508051906020019080838360005b838110156159bc5780820151818401526020810190506159a1565b50505050905090810190601f1680156159e95780820380516001836020036101000a031916815260200191505b50945050505050600060405180830381600087803b158015615a0a57600080fd5b505af1158015615a1e573d6000803e3d6000fd5b50505050600260009054906101000a900473ffffffffffffffffffffffffffffffffffffffff1673ffffffffffffffffffffffffffffffffffffffff16630214a37c6040518060400160405280600b81526020017f456e646f776d656e7444420000000000000000000000000000000000000000008152508860405160200180828152602001807f6b7479546f74616c00000000000000000000000000000000000000000000000081525060080191505060405160208183030381529060405280519060200120866040518463ffffffff1660e01b81526004018080602001848152602001838152602001828103825285818151815260200191508051906020019080838360005b83811015615b41578082015181840152602081019050615b26565b50505050905090810190601f168015615b6e5780820380516001836020036101000a031916815260200191505b50945050505050600060405180830381600087803b158015615b8f57600080fd5b505af1158015615ba3573d6000803e3d6000fd5b50505050600260009054906101000a900473ffffffffffffffffffffffffffffffffffffffff1673ffffffffffffffffffffffffffffffffffffffff16630214a37c6040518060400160405280600b81526020017f456e646f776d656e7444420000000000000000000000000000000000000000008152508860405160200180828152602001807f657468546f74616c00000000000000000000000000000000000000000000000081525060080191505060405160208183030381529060405280519060200120856040518463ffffffff1660e01b81526004018080602001848152602001838152602001828103825285818151815260200191508051906020019080838360005b83811015615cc6578082015181840152602081019050615cab565b50505050905090810190601f168015615cf35780820380516001836020036101000a031916815260200191505b50945050505050600060405180830381600087803b158015615d1457600080fd5b505af1158015615d28573d6000803e3d6000fd5b50505050600260009054906101000a900473ffffffffffffffffffffffffffffffffffffffff1673ffffffffffffffffffffffffffffffffffffffff1663ae2660106040518060400160405280600b81526020017f456e646f776d656e7444420000000000000000000000000000000000000000008152508860405160200180828152602001807f686f6e6579706f74436c61737300000000000000000000000000000000000000815250600d0191505060405160208183030381529060405280519060200120846040518463ffffffff1660e01b8152600401808060200184815260200180602001838103835286818151815260200191508051906020019080838360005b83811015615e49578082015181840152602081019050615e2e565b50505050905090810190601f168015615e765780820380516001836020036101000a031916815260200191505b50838103825284818151815260200191508051906020019080838360005b83811015615eaf578082015181840152602081019050615e94565b50505050905090810190601f168015615edc5780820380516001836020036101000a031916815260200191505b5095505050505050600060405180830381600087803b158015615efe57600080fd5b505af1158015615f12573d6000803e3d6000fd5b5050505050505050505056fe416363657373206973206f6e6c7920616c6c6f7765642066726f6d20737065636966696320636f6e7472616374a265627a7a723158203a55f70c830065a06dfcf667b9b7eca0e6874979defd54fec768bc0b33618efe64736f6c63430005110032",
  "source": "pragma solidity ^0.5.5;\n\nimport \"./GenericDB.sol\";\nimport \"../proxy/Proxied.sol\";\nimport \"../../libs/SafeMath.sol\";\nimport \"../endowment/EndowmentFund.sol\";\n\ncontract EndowmentDB is Proxied {\n  using SafeMath for uint256;\n\n  GenericDB public genericDB;\n\n  // TABLE_KEY_PROFILE for ProfileDB lookup (read-only).\n  bytes32 internal constant TABLE_KEY_PROFILE = keccak256(abi.encodePacked(\"ProfileTable\"));\n  // TABLE_KEY_HONEYPOT defines a set for active Honeypots of EndowmentFund.\n  bytes32 internal constant TABLE_KEY_HONEYPOT = keccak256(abi.encodePacked(\"HoneypotTable\"));\n  // TABLE_KEY_HONEYPOT_DISSOLVED defines a set for dissolved honeypots of EndowmentFund.\n  bytes32 internal constant TABLE_KEY_HONEYPOT_DISSOLVED = keccak256(abi.encodePacked(\"HoneypotDissolvedTable\"));\n  // TABLE_NAME_CONTRIBUTION_KTY defines a set of KTY contributors of a honeypot of EndowmentFund.\n  bytes32 internal constant TABLE_NAME_CONTRIBUTION_KTY = \"ContributionTableKTY\";\n  // TABLE_NAME_CONTRIBUTION_ETH defines a set of ETH contributors of a honeypot of EndowmentFund.\n  bytes32 internal constant TABLE_NAME_CONTRIBUTION_ETH = \"ContributionTableETH\";\n  // VAR_KEY_ACTUAL_FUNDS_KTY\n  bytes32 internal constant VAR_KEY_ACTUAL_FUNDS_KTY = keccak256(abi.encodePacked(\"actualFundsKTY\"));\n  // VAR_KEY_ACTUAL_FUNDS_ETH\n  bytes32 internal constant VAR_KEY_ACTUAL_FUNDS_ETH = keccak256(abi.encodePacked(\"actualFundsETH\"));\n  // VAR_KEY_INGAME_FUNDS_KTY\n  bytes32 internal constant VAR_KEY_INGAME_FUNDS_KTY = keccak256(abi.encodePacked(\"ingameFundsKTY\"));\n  // VAR_KEY_INGAME_FUNDS_ETH\n  bytes32 internal constant VAR_KEY_INGAME_FUNDS_ETH = keccak256(abi.encodePacked(\"ingameFundsETH\"));\n\n  string internal constant ERROR_DOES_NOT_EXIST = \"Not exists\";\n  string internal constant ERROR_NOT_REGISTERED = \"Not registered\";\n  string internal constant ERROR_ALREADY_EXIST = \"Already exists\";\n  string internal constant ERROR_INSUFFICIENT_FUNDS = \"Insufficient funds\";\n\n  uint256 investmentForNext;\n\n  constructor(GenericDB _genericDB) public {\n    setGenericDB(_genericDB);\n  }\n\n  function setGenericDB(GenericDB _genericDB) public onlyOwner {\n    genericDB = _genericDB;\n  }\n\n  function getHoneyPotBalance(uint256 _gameId) public view\n  returns (uint256 honeyPotBalanceKTY, uint256 honeyPotBalanceETH)  {\n    honeyPotBalanceKTY = genericDB.getUintStorage(CONTRACT_NAME_ENDOWMENT_DB, keccak256(abi.encodePacked(_gameId, \"ktyTotal\")));\n    honeyPotBalanceETH = genericDB.getUintStorage(CONTRACT_NAME_ENDOWMENT_DB, keccak256(abi.encodePacked(_gameId, \"ethTotal\")));\n  }\n\n  function updateHoneyPotFund(\n    uint256 _gameId, uint256 _kty_amount, uint256 _eth_amount, bool deductFunds\n  )\n    external\n    onlyContract(CONTRACT_NAME_ENDOWMENT_FUND)\n    returns (bool)\n  {\n    uint honeyPotKtyTotal;\n    uint honeyPotEthTotal;\n\n    if (_kty_amount > 0){\n\n      // get total Kty availabe in the HoneyPot\n      bytes32 honeyPotKtyTotalKey = keccak256(abi.encodePacked(_gameId, \"ktyTotal\"));\n      honeyPotKtyTotal = genericDB.getUintStorage(CONTRACT_NAME_ENDOWMENT_DB, honeyPotKtyTotalKey);\n\n      if (deductFunds){\n\n        require(honeyPotKtyTotal >= _kty_amount);\n\n        genericDB.setUintStorage(CONTRACT_NAME_ENDOWMENT_DB, honeyPotKtyTotalKey, honeyPotKtyTotal.sub(_kty_amount));\n\n      }else{ // add\n\n        genericDB.setUintStorage(CONTRACT_NAME_ENDOWMENT_DB, honeyPotKtyTotalKey, honeyPotKtyTotal.add(_kty_amount));\n\n      }\n    }\n\n    if (_eth_amount > 0){\n      // get total Eth availabe in the HoneyPot\n      bytes32 honeyPotEthTotalKey = keccak256(abi.encodePacked(_gameId, \"ethTotal\"));\n      honeyPotEthTotal = genericDB.getUintStorage(CONTRACT_NAME_ENDOWMENT_DB, honeyPotEthTotalKey);\n\n      if (deductFunds){\n\n        require(honeyPotEthTotal >= _eth_amount);\n\n        genericDB.setUintStorage(CONTRACT_NAME_ENDOWMENT_DB, honeyPotEthTotalKey, honeyPotEthTotal.sub(_eth_amount));\n\n      }else{ // add\n\n        genericDB.setUintStorage(CONTRACT_NAME_ENDOWMENT_DB, honeyPotEthTotalKey, honeyPotEthTotal.add(_eth_amount));\n\n      }\n    }\n\n    return true;\n  }\n\n  function updateInvestment(uint256 _investment)\n  external\n  onlyContract(CONTRACT_NAME_ENDOWMENT_FUND)\n  {\n    investmentForNext = investmentForNext.add(_investment);\n  }\n\n  function subInvestment(uint256 _investment)\n  external\n  onlyContract(CONTRACT_NAME_ENDOWMENT_FUND)\n  {\n    investmentForNext = investmentForNext.sub(_investment);\n  }\n\n  function updateEndowmentFund(\n    uint256 _kty_amount, uint256 _eth_amount, bool deductFunds\n  )\n    external\n    onlyContract(CONTRACT_NAME_ENDOWMENT_FUND)\n    returns (bool)\n  {\n    return (_updateEndowmentFund(_kty_amount, _eth_amount, deductFunds));\n  }\n\n  function _updateEndowmentFund(\n    uint256 _kty_amount, uint256 _eth_amount, bool deductFunds\n  )\n    internal\n    returns (bool)\n  {\n\n    if (_kty_amount > 0){\n\n      uint actualFundsKTY = genericDB.getUintStorage(CONTRACT_NAME_ENDOWMENT_DB, VAR_KEY_ACTUAL_FUNDS_KTY);\n      if (deductFunds){\n\n        require(actualFundsKTY >= _kty_amount);\n\n        genericDB.setUintStorage(CONTRACT_NAME_ENDOWMENT_DB, VAR_KEY_ACTUAL_FUNDS_KTY, actualFundsKTY.sub(_kty_amount));\n\n      }else{ // add\n        genericDB.setUintStorage(CONTRACT_NAME_ENDOWMENT_DB, VAR_KEY_ACTUAL_FUNDS_KTY, actualFundsKTY.add(_kty_amount));\n\n      }\n    }\n\n    if (_eth_amount > 0){\n      uint actualFundsETH = genericDB.getUintStorage(CONTRACT_NAME_ENDOWMENT_DB, VAR_KEY_ACTUAL_FUNDS_ETH);\n\n      if (deductFunds){\n\n        require(actualFundsETH >= _eth_amount);\n\n        genericDB.setUintStorage(CONTRACT_NAME_ENDOWMENT_DB, VAR_KEY_ACTUAL_FUNDS_ETH, actualFundsETH.sub(_eth_amount));\n\n      }else{ // add\n\n        genericDB.setUintStorage(CONTRACT_NAME_ENDOWMENT_DB, VAR_KEY_ACTUAL_FUNDS_ETH, actualFundsETH.add(_eth_amount));\n\n      }\n    }\n\n    return true;\n  }\n\n  function getEndowmentBalance() public view\n  returns (uint256 endowmentBalanceKTY, uint256 endowmentBalanceETH)  {\n    endowmentBalanceKTY = genericDB.getUintStorage(CONTRACT_NAME_ENDOWMENT_DB, VAR_KEY_ACTUAL_FUNDS_KTY);\n    endowmentBalanceETH = genericDB.getUintStorage(CONTRACT_NAME_ENDOWMENT_DB, VAR_KEY_ACTUAL_FUNDS_ETH);\n  }\n\n  function createHoneypot(\n    uint gameId,\n    uint state,\n    uint createdTime,\n    uint ktyTotal,\n    uint ethTotal,\n    string memory honeypotClass\n  )\n    internal\n  {\n    require(genericDB.pushNodeToLinkedList(CONTRACT_NAME_ENDOWMENT_DB, TABLE_KEY_HONEYPOT, gameId), ERROR_ALREADY_EXIST);\n    genericDB.setUintStorage(CONTRACT_NAME_ENDOWMENT_DB, keccak256(abi.encodePacked(gameId, \"state\")), state);\n    genericDB.setUintStorage(CONTRACT_NAME_ENDOWMENT_DB, keccak256(abi.encodePacked(gameId, \"createdTime\")), createdTime);\n    genericDB.setUintStorage(CONTRACT_NAME_ENDOWMENT_DB, keccak256(abi.encodePacked(gameId, \"ktyTotal\")), ktyTotal);\n    genericDB.setUintStorage(CONTRACT_NAME_ENDOWMENT_DB, keccak256(abi.encodePacked(gameId, \"ethTotal\")), ethTotal);\n    genericDB.setStringStorage(CONTRACT_NAME_ENDOWMENT_DB, keccak256(abi.encodePacked(gameId, \"honeypotClass\")), honeypotClass);\n  }\n\n  function getHoneypotState(\n    uint gameId\n  )\n    external\n    view returns (uint state, uint256 claimTime)\n  {\n    return(\n      genericDB.getUintStorage(CONTRACT_NAME_ENDOWMENT_DB, keccak256(abi.encodePacked(gameId, \"state\"))),\n      genericDB.getUintStorage(CONTRACT_NAME_ENDOWMENT_DB, keccak256(abi.encodePacked(gameId, \"claimTime\")))\n    );\n  }\n\n  function setHoneypotState( uint _gameId, uint state)\n  external\n  onlyContract(CONTRACT_NAME_ENDOWMENT_FUND)\n  {\n    genericDB.setUintStorage(CONTRACT_NAME_ENDOWMENT_DB, keccak256(abi.encodePacked(_gameId, \"state\")), state);\n    // if (claimTime > 0){\n    //   genericDB.setUintStorage(CONTRACT_NAME_ENDOWMENT_DB, keccak256(abi.encodePacked(_gameId, \"claimTime\")), claimTime);\n    // }\n    // else{\n    //   genericDB.setUintStorage(CONTRACT_NAME_ENDOWMENT_DB, keccak256(abi.encodePacked(_gameId, \"claimTime\")), 0);\n    // }\n  }\n\n\n  function getHoneypotTotal(uint _gameId) external view returns (uint256 totalEth, uint256 totalKty) {\n      totalEth = genericDB.getUintStorage(CONTRACT_NAME_ENDOWMENT_DB, keccak256(abi.encodePacked(_gameId, \"ethTotal\")));\n      totalKty = genericDB.getUintStorage(CONTRACT_NAME_ENDOWMENT_DB, keccak256(abi.encodePacked(_gameId, \"ktyTotal\")));\n  }\n\n  /**\n  * @dev check if enough funds present and maintains balance of tokens in DB\n  */\n  function generateHoneyPot(uint256 gameId, uint256 ktyAllocated, uint256 ethAllocated, string memory honeypotClass)\n    public\n    onlyContract(CONTRACT_NAME_ENDOWMENT_FUND)\n    returns (uint, uint) {\n\n    // + adds amount to honeypot\n    createHoneypot(\n      gameId,\n      0,\n      now,\n      ktyAllocated,\n      ethAllocated,\n      honeypotClass\n    );\n\n    // deduct amount from endowment\n    require(_updateEndowmentFund(ktyAllocated, ethAllocated, true));\n\n    return (ktyAllocated, ethAllocated);\n  }\n\n/**\n * @dev store the total debit by an a/c per game\n */\n  function setTotalDebit(\n    uint _gameId, address _account, uint _eth_amount, uint _kty_amount\n  ) external\n    onlyContract(CONTRACT_NAME_ENDOWMENT_FUND)\n    onlyExistingHoneypot(_gameId)\n    returns (bool) {\n\n    if (_eth_amount > 0) {\n\n      bytes32 ethTotalDebitPerGamePerAcKey = keccak256(abi.encodePacked(_gameId, _account, \"ethDebit\"));\n      uint ethTotal = genericDB.getUintStorage(CONTRACT_NAME_ENDOWMENT_DB, ethTotalDebitPerGamePerAcKey);\n      genericDB.setUintStorage(CONTRACT_NAME_ENDOWMENT_DB, ethTotalDebitPerGamePerAcKey, ethTotal.add(_eth_amount));\n\n    }\n\n    if (_kty_amount > 0) {\n\n      bytes32 ktyTotalDebitPerGamePerAcKey = keccak256(abi.encodePacked(_gameId, _account, \"ktyDebit\"));\n      uint ktyTotal = genericDB.getUintStorage(CONTRACT_NAME_ENDOWMENT_DB, ktyTotalDebitPerGamePerAcKey);\n      genericDB.setUintStorage(CONTRACT_NAME_ENDOWMENT_DB, ktyTotalDebitPerGamePerAcKey, ktyTotal.add(_kty_amount));\n\n    }\n\n  return true;\n  }\n\n  function setPoolIDinGame(uint _gameId, uint _poolId)\n      external\n      onlyContract(CONTRACT_NAME_GAMECREATION)\n  {\n    genericDB.setUintStorage(\n      CONTRACT_NAME_ENDOWMENT_DB,\n      keccak256(abi.encodePacked(_gameId, \"poolID\")),\n      _poolId\n    );\n  }\n\n  function addETHtoPool(uint _gameId, uint _eth)\n      external\n      onlyContract(CONTRACT_NAME_ENDOWMENT_FUND)\n  {\n    // get _pool_id of the pool associated with the game with _gameId\n    uint _pool_id = getPoolID(_gameId);\n    // get previous amount of ether stored in this pool with _pool_id\n    uint prevETH = genericDB.getUintStorage(\n      CONTRACT_NAME_ENDOWMENT_DB,\n      keccak256(abi.encodePacked(_pool_id, \"ETHinPool\"))\n    );\n    // add _eth to the previous amount of ether in this pool\n    genericDB.setUintStorage(\n      CONTRACT_NAME_ENDOWMENT_DB,\n      keccak256(abi.encodePacked(_pool_id, \"ETHinPool\")),\n      prevETH.add(_eth)\n    );\n  }\n\n  function subETHfromPool(uint256 _eth, uint256 _pool_id)\n      external\n      onlyContract(CONTRACT_NAME_ENDOWMENT_FUND)\n  {\n    // get previous amount of ether stored in this pool with _pool_id\n    uint prevETH = genericDB.getUintStorage(\n      CONTRACT_NAME_ENDOWMENT_DB,\n      keccak256(abi.encodePacked(_pool_id, \"ETHinPool\"))\n    );\n    // add _eth to the previous amount of ether in this pool\n    genericDB.setUintStorage(\n      CONTRACT_NAME_ENDOWMENT_DB,\n      keccak256(abi.encodePacked(_pool_id, \"ETHinPool\")),\n      prevETH.sub(_eth)\n    );\n  }\n\n  function getETHinPool(uint _pool_id)\n      public\n      view\n      returns(uint)\n  {\n    return genericDB.getUintStorage(\n      CONTRACT_NAME_ENDOWMENT_DB,\n      keccak256(abi.encodePacked(_pool_id, \"ETHinPool\"))\n    );\n  }\n\n  function checkInvestment(uint256 pool_id)\n  external\n  onlyContract(CONTRACT_NAME_WITHDRAW_POOL)\n  returns(uint256)\n  {\n    uint256 remainingFundsPool;\n    if(pool_id != 0) {\n      remainingFundsPool = getETHinPool(pool_id.sub(1));\n\n      genericDB.setUintStorage(\n        CONTRACT_NAME_ENDOWMENT_DB,\n        keccak256(abi.encodePacked(pool_id.sub(1), \"ETHinPool\")),\n        0\n      );\n\n      genericDB.setUintStorage(\n        CONTRACT_NAME_ENDOWMENT_DB,\n        keccak256(abi.encodePacked(pool_id, \"ETHinPool\")),\n        remainingFundsPool\n      );\n    }\n\n    _updateEndowmentFund(0, investmentForNext, false);\n\n    uint256 actualFunds = genericDB.getUintStorage(CONTRACT_NAME_ENDOWMENT_DB, VAR_KEY_ACTUAL_FUNDS_ETH);\n    investmentForNext = 0;\n    return actualFunds.sub(remainingFundsPool);\n  }\n\n  function checkTotalForEpoch(uint256 pool_id)\n  external\n  view\n  onlyContract(CONTRACT_NAME_GAMESTORE)\n  returns(uint256)\n  {\n    uint256 fundsForPool = getETHinPool(pool_id);\n    uint256 actualFunds = genericDB.getUintStorage(CONTRACT_NAME_ENDOWMENT_DB, VAR_KEY_ACTUAL_FUNDS_ETH);\n    return actualFunds.sub(fundsForPool);\n  }\n\n/**\n * @dev get total debit by an a/c per game\n */\n  function getTotalDebit(\n    uint _gameId, address _account\n  ) external view\n    onlyContract(CONTRACT_NAME_ENDOWMENT_FUND)\n    //onlyExistingProfile(_account)\n    onlyExistingHoneypot(_gameId)\n    returns (uint256 ethTotalDebit, uint256 ktyTotalDebit) {\n      bytes32 ethTotalDebitPerGamePerAcKey = keccak256(abi.encodePacked(_gameId, _account, \"ethDebit\"));\n      bytes32 ktyTotalDebitPerGamePerAcKey = keccak256(abi.encodePacked(_gameId, _account, \"ktyDebit\"));\n      ethTotalDebit = genericDB.getUintStorage(CONTRACT_NAME_ENDOWMENT_DB, ethTotalDebitPerGamePerAcKey);\n      ktyTotalDebit = genericDB.getUintStorage(CONTRACT_NAME_ENDOWMENT_DB, ktyTotalDebitPerGamePerAcKey);\n  }\n\n  // get pool ID of the pool associated with a honey pot\n  function getPoolID(uint _gameId)\n      public view returns(uint poolID)\n  {\n    poolID = genericDB.getUintStorage(CONTRACT_NAME_ENDOWMENT_DB, keccak256(abi.encodePacked(_gameId, \"poolID\")));\n  }\n\n  modifier onlyExistingHoneypot(uint gameId) {\n    require(genericDB.doesNodeExist(CONTRACT_NAME_ENDOWMENT_DB, TABLE_KEY_HONEYPOT, gameId), ERROR_DOES_NOT_EXIST);\n    _;\n  }\n\n  modifier onlyExistingProfile(address account) {\n    require(genericDB.doesNodeAddrExist(CONTRACT_NAME_PROFILE_DB, TABLE_KEY_PROFILE, account), ERROR_NOT_REGISTERED);\n    _;\n  }\n}\n\n",
  "sourcePath": "/Users/ziweizhang/Desktop/kittieFight-uniswap/contracts/contracts/modules/databases/EndowmentDB.sol",
  "compiler": {
    "name": "solc",
    "version": "0.5.17+commit.d19bba13.Emscripten.clang"
  },
  "schemaVersion": "3.0.23",
  "updatedAt": "2020-06-11T18:19:42.787Z",
  "networkType": "ethereum",
  "devdoc": {
    "methods": {
      "generateHoneyPot(uint256,uint256,uint256,string)": {
        "details": "check if enough funds present and maintains balance of tokens in DB"
      },
      "getTotalDebit(uint256,address)": {
        "details": "get total debit by an a/c per game"
      },
      "setTotalDebit(uint256,address,uint256,uint256)": {
        "details": "store the total debit by an a/c per game"
      }
    }
  },
  "userdoc": {
    "methods": {
      "setProxy(address)": {
        "notice": "Set/update address of Proxy contract"
      }
    }
  }
}