{
  "contractName": "EthieToken",
  "abi": [
    {
      "inputs": [],
      "payable": false,
      "stateMutability": "nonpayable",
      "type": "constructor"
    },
    {
      "anonymous": false,
      "inputs": [
        {
          "indexed": true,
          "internalType": "address",
          "name": "owner",
          "type": "address"
        },
        {
          "indexed": true,
          "internalType": "address",
          "name": "approved",
          "type": "address"
        },
        {
          "indexed": true,
          "internalType": "uint256",
          "name": "tokenId",
          "type": "uint256"
        }
      ],
      "name": "Approval",
      "type": "event"
    },
    {
      "anonymous": false,
      "inputs": [
        {
          "indexed": true,
          "internalType": "address",
          "name": "owner",
          "type": "address"
        },
        {
          "indexed": true,
          "internalType": "address",
          "name": "operator",
          "type": "address"
        },
        {
          "indexed": false,
          "internalType": "bool",
          "name": "approved",
          "type": "bool"
        }
      ],
      "name": "ApprovalForAll",
      "type": "event"
    },
    {
      "anonymous": false,
      "inputs": [
        {
          "indexed": true,
          "internalType": "address",
          "name": "account",
          "type": "address"
        }
      ],
      "name": "MinterAdded",
      "type": "event"
    },
    {
      "anonymous": false,
      "inputs": [
        {
          "indexed": true,
          "internalType": "address",
          "name": "account",
          "type": "address"
        }
      ],
      "name": "MinterRemoved",
      "type": "event"
    },
    {
      "anonymous": false,
      "inputs": [
        {
          "indexed": false,
          "internalType": "address",
          "name": "account",
          "type": "address"
        }
      ],
      "name": "Paused",
      "type": "event"
    },
    {
      "anonymous": false,
      "inputs": [
        {
          "indexed": true,
          "internalType": "address",
          "name": "account",
          "type": "address"
        }
      ],
      "name": "PauserAdded",
      "type": "event"
    },
    {
      "anonymous": false,
      "inputs": [
        {
          "indexed": true,
          "internalType": "address",
          "name": "account",
          "type": "address"
        }
      ],
      "name": "PauserRemoved",
      "type": "event"
    },
    {
      "anonymous": false,
      "inputs": [
        {
          "indexed": true,
          "internalType": "address",
          "name": "from",
          "type": "address"
        },
        {
          "indexed": true,
          "internalType": "address",
          "name": "to",
          "type": "address"
        },
        {
          "indexed": true,
          "internalType": "uint256",
          "name": "tokenId",
          "type": "uint256"
        }
      ],
      "name": "Transfer",
      "type": "event"
    },
    {
      "anonymous": false,
      "inputs": [
        {
          "indexed": false,
          "internalType": "address",
          "name": "account",
          "type": "address"
        }
      ],
      "name": "Unpaused",
      "type": "event"
    },
    {
      "constant": false,
      "inputs": [
        {
          "internalType": "address",
          "name": "account",
          "type": "address"
        }
      ],
      "name": "addMinter",
      "outputs": [],
      "payable": false,
      "stateMutability": "nonpayable",
      "type": "function"
    },
    {
      "constant": false,
      "inputs": [
        {
          "internalType": "address",
          "name": "account",
          "type": "address"
        }
      ],
      "name": "addPauser",
      "outputs": [],
      "payable": false,
      "stateMutability": "nonpayable",
      "type": "function"
    },
    {
      "constant": false,
      "inputs": [
        {
          "internalType": "address",
          "name": "to",
          "type": "address"
        },
        {
          "internalType": "uint256",
          "name": "tokenId",
          "type": "uint256"
        }
      ],
      "name": "approve",
      "outputs": [],
      "payable": false,
      "stateMutability": "nonpayable",
      "type": "function"
    },
    {
      "constant": true,
      "inputs": [
        {
          "internalType": "address",
          "name": "owner",
          "type": "address"
        }
      ],
      "name": "balanceOf",
      "outputs": [
        {
          "internalType": "uint256",
          "name": "",
          "type": "uint256"
        }
      ],
      "payable": false,
      "stateMutability": "view",
      "type": "function"
    },
    {
      "constant": true,
      "inputs": [],
      "name": "baseURI",
      "outputs": [
        {
          "internalType": "string",
          "name": "",
          "type": "string"
        }
      ],
      "payable": false,
      "stateMutability": "view",
      "type": "function"
    },
    {
      "constant": true,
      "inputs": [],
      "name": "contractURI",
      "outputs": [
        {
          "internalType": "string",
          "name": "",
          "type": "string"
        }
      ],
      "payable": false,
      "stateMutability": "view",
      "type": "function"
    },
    {
      "constant": true,
      "inputs": [
        {
          "internalType": "uint256",
          "name": "tokenId",
          "type": "uint256"
        }
      ],
      "name": "getApproved",
      "outputs": [
        {
          "internalType": "address",
          "name": "",
          "type": "address"
        }
      ],
      "payable": false,
      "stateMutability": "view",
      "type": "function"
    },
    {
      "constant": true,
      "inputs": [
        {
          "internalType": "address",
          "name": "owner",
          "type": "address"
        },
        {
          "internalType": "address",
          "name": "operator",
          "type": "address"
        }
      ],
      "name": "isApprovedForAll",
      "outputs": [
        {
          "internalType": "bool",
          "name": "",
          "type": "bool"
        }
      ],
      "payable": false,
      "stateMutability": "view",
      "type": "function"
    },
    {
      "constant": true,
      "inputs": [
        {
          "internalType": "address",
          "name": "account",
          "type": "address"
        }
      ],
      "name": "isMinter",
      "outputs": [
        {
          "internalType": "bool",
          "name": "",
          "type": "bool"
        }
      ],
      "payable": false,
      "stateMutability": "view",
      "type": "function"
    },
    {
      "constant": true,
      "inputs": [
        {
          "internalType": "address",
          "name": "account",
          "type": "address"
        }
      ],
      "name": "isPauser",
      "outputs": [
        {
          "internalType": "bool",
          "name": "",
          "type": "bool"
        }
      ],
      "payable": false,
      "stateMutability": "view",
      "type": "function"
    },
    {
      "constant": true,
      "inputs": [
        {
          "internalType": "uint256",
          "name": "tokenId",
          "type": "uint256"
        }
      ],
      "name": "ownerOf",
      "outputs": [
        {
          "internalType": "address",
          "name": "",
          "type": "address"
        }
      ],
      "payable": false,
      "stateMutability": "view",
      "type": "function"
    },
    {
      "constant": false,
      "inputs": [],
      "name": "pause",
      "outputs": [],
      "payable": false,
      "stateMutability": "nonpayable",
      "type": "function"
    },
    {
      "constant": true,
      "inputs": [],
      "name": "paused",
      "outputs": [
        {
          "internalType": "bool",
          "name": "",
          "type": "bool"
        }
      ],
      "payable": false,
      "stateMutability": "view",
      "type": "function"
    },
    {
      "constant": true,
      "inputs": [
        {
          "internalType": "uint256",
          "name": "",
          "type": "uint256"
        }
      ],
      "name": "properties",
      "outputs": [
        {
          "internalType": "uint256",
          "name": "ethAmount",
          "type": "uint256"
        },
        {
          "internalType": "uint256",
          "name": "generation",
          "type": "uint256"
        },
        {
          "internalType": "uint256",
          "name": "creationTime",
          "type": "uint256"
        },
        {
          "internalType": "uint256",
          "name": "lockPeriod",
          "type": "uint256"
        }
      ],
      "payable": false,
      "stateMutability": "view",
      "type": "function"
    },
    {
      "constant": false,
      "inputs": [],
      "name": "renounceMinter",
      "outputs": [],
      "payable": false,
      "stateMutability": "nonpayable",
      "type": "function"
    },
    {
      "constant": false,
      "inputs": [],
      "name": "renouncePauser",
      "outputs": [],
      "payable": false,
      "stateMutability": "nonpayable",
      "type": "function"
    },
    {
      "constant": false,
      "inputs": [
        {
          "internalType": "address",
          "name": "from",
          "type": "address"
        },
        {
          "internalType": "address",
          "name": "to",
          "type": "address"
        },
        {
          "internalType": "uint256",
          "name": "tokenId",
          "type": "uint256"
        }
      ],
      "name": "safeTransferFrom",
      "outputs": [],
      "payable": false,
      "stateMutability": "nonpayable",
      "type": "function"
    },
    {
      "constant": false,
      "inputs": [
        {
          "internalType": "address",
          "name": "from",
          "type": "address"
        },
        {
          "internalType": "address",
          "name": "to",
          "type": "address"
        },
        {
          "internalType": "uint256",
          "name": "tokenId",
          "type": "uint256"
        },
        {
          "internalType": "bytes",
          "name": "_data",
          "type": "bytes"
        }
      ],
      "name": "safeTransferFrom",
      "outputs": [],
      "payable": false,
      "stateMutability": "nonpayable",
      "type": "function"
    },
    {
      "constant": false,
      "inputs": [
        {
          "internalType": "address",
          "name": "to",
          "type": "address"
        },
        {
          "internalType": "bool",
          "name": "approved",
          "type": "bool"
        }
      ],
      "name": "setApprovalForAll",
      "outputs": [],
      "payable": false,
      "stateMutability": "nonpayable",
      "type": "function"
    },
    {
      "constant": true,
      "inputs": [
        {
          "internalType": "bytes4",
          "name": "interfaceId",
          "type": "bytes4"
        }
      ],
      "name": "supportsInterface",
      "outputs": [
        {
          "internalType": "bool",
          "name": "",
          "type": "bool"
        }
      ],
      "payable": false,
      "stateMutability": "view",
      "type": "function"
    },
    {
      "constant": true,
      "inputs": [],
      "name": "symbol",
      "outputs": [
        {
          "internalType": "string",
          "name": "",
          "type": "string"
        }
      ],
      "payable": false,
      "stateMutability": "view",
      "type": "function"
    },
    {
      "constant": true,
      "inputs": [
        {
          "internalType": "uint256",
          "name": "index",
          "type": "uint256"
        }
      ],
      "name": "tokenByIndex",
      "outputs": [
        {
          "internalType": "uint256",
          "name": "",
          "type": "uint256"
        }
      ],
      "payable": false,
      "stateMutability": "view",
      "type": "function"
    },
    {
      "constant": true,
      "inputs": [
        {
          "internalType": "address",
          "name": "owner",
          "type": "address"
        },
        {
          "internalType": "uint256",
          "name": "index",
          "type": "uint256"
        }
      ],
      "name": "tokenOfOwnerByIndex",
      "outputs": [
        {
          "internalType": "uint256",
          "name": "",
          "type": "uint256"
        }
      ],
      "payable": false,
      "stateMutability": "view",
      "type": "function"
    },
    {
      "constant": true,
      "inputs": [
        {
          "internalType": "uint256",
          "name": "tokenId",
          "type": "uint256"
        }
      ],
      "name": "tokenURI",
      "outputs": [
        {
          "internalType": "string",
          "name": "",
          "type": "string"
        }
      ],
      "payable": false,
      "stateMutability": "view",
      "type": "function"
    },
    {
      "constant": true,
      "inputs": [],
      "name": "totalSupply",
      "outputs": [
        {
          "internalType": "uint256",
          "name": "",
          "type": "uint256"
        }
      ],
      "payable": false,
      "stateMutability": "view",
      "type": "function"
    },
    {
      "constant": false,
      "inputs": [
        {
          "internalType": "address",
          "name": "from",
          "type": "address"
        },
        {
          "internalType": "address",
          "name": "to",
          "type": "address"
        },
        {
          "internalType": "uint256",
          "name": "tokenId",
          "type": "uint256"
        }
      ],
      "name": "transferFrom",
      "outputs": [],
      "payable": false,
      "stateMutability": "nonpayable",
      "type": "function"
    },
    {
      "constant": false,
      "inputs": [],
      "name": "unpause",
      "outputs": [],
      "payable": false,
      "stateMutability": "nonpayable",
      "type": "function"
    },
    {
      "constant": false,
      "inputs": [
        {
          "internalType": "address",
          "name": "to",
          "type": "address"
        },
        {
          "internalType": "uint256",
          "name": "ethAmount",
          "type": "uint256"
        },
        {
          "internalType": "uint256",
          "name": "lockPeriod",
          "type": "uint256"
        }
      ],
      "name": "mint",
      "outputs": [
        {
          "internalType": "uint256",
          "name": "",
          "type": "uint256"
        }
      ],
      "payable": false,
      "stateMutability": "nonpayable",
      "type": "function"
    },
    {
      "constant": false,
      "inputs": [
        {
          "internalType": "uint256",
          "name": "tokenId",
          "type": "uint256"
        }
      ],
      "name": "burn",
      "outputs": [],
      "payable": false,
      "stateMutability": "nonpayable",
      "type": "function"
    },
    {
      "constant": false,
      "inputs": [],
      "name": "incrementGeneration",
      "outputs": [],
      "payable": false,
      "stateMutability": "nonpayable",
      "type": "function"
    },
    {
      "constant": false,
      "inputs": [
        {
          "internalType": "string",
          "name": "baseURI",
          "type": "string"
        }
      ],
      "name": "setBaseURI",
      "outputs": [],
      "payable": false,
      "stateMutability": "nonpayable",
      "type": "function"
    },
    {
      "constant": true,
      "inputs": [
        {
          "internalType": "uint256",
          "name": "tokenId",
          "type": "uint256"
        }
      ],
      "name": "name",
      "outputs": [
        {
          "internalType": "string",
          "name": "",
          "type": "string"
        }
      ],
      "payable": false,
      "stateMutability": "view",
      "type": "function"
    },
    {
      "constant": true,
      "inputs": [],
      "name": "name",
      "outputs": [
        {
          "internalType": "string",
          "name": "",
          "type": "string"
        }
      ],
      "payable": false,
      "stateMutability": "view",
      "type": "function"
    },
    {
      "constant": true,
      "inputs": [
        {
          "internalType": "address",
          "name": "holder",
          "type": "address"
        }
      ],
      "name": "allTokenOf",
      "outputs": [
        {
          "internalType": "uint256[]",
          "name": "",
          "type": "uint256[]"
        },
        {
          "internalType": "uint256",
          "name": "",
          "type": "uint256"
        }
      ],
      "payable": false,
      "stateMutability": "view",
      "type": "function"
    },
    {
      "constant": true,
      "inputs": [
        {
          "internalType": "uint256",
          "name": "tokenId",
          "type": "uint256"
        },
        {
          "internalType": "uint256",
          "name": "ethAmount",
          "type": "uint256"
        },
        {
          "internalType": "uint256",
          "name": "tokenGeneration",
          "type": "uint256"
        },
        {
          "internalType": "uint256",
          "name": "lockPeriod",
          "type": "uint256"
        }
      ],
      "name": "generateName",
      "outputs": [
        {
          "internalType": "string",
          "name": "",
          "type": "string"
        }
      ],
      "payable": false,
      "stateMutability": "pure",
      "type": "function"
    }
  ],
  "bytecode": "0x60806040523480156200001157600080fd5b5060408051808201825260118152704b6974746965666967687420457468696560781b60208083019190915282518084019093526005835264457468696560d81b9083015290620000726301ffc9a760e01b6001600160e01b036200019216565b6200008d6380ac58cd60e01b6001600160e01b036200019216565b620000a863780e9d6360e01b6001600160e01b036200019216565b620000ce620000bf6001600160e01b036200021716565b6001600160e01b036200021c16565b600a805460ff191690558151620000ed90600b906020850190620003d8565b5080516200010390600c906020840190620003d8565b506200011f635b5e139f60e01b6001600160e01b036200019216565b50620001489050620001396001600160e01b036200021716565b6001600160e01b036200026e16565b620001756040518060600160405280602681526020016200332c602691396001600160e01b03620002c016565b6200018c600f620002d960201b620017771760201c565b6200047a565b6001600160e01b03198082161415620001f2576040805162461bcd60e51b815260206004820152601c60248201527f4552433136353a20696e76616c696420696e7465726661636520696400000000604482015290519081900360640190fd5b6001600160e01b0319166000908152602081905260409020805460ff19166001179055565b335b90565b62000237816009620002e260201b620022681790919060201c565b6040516001600160a01b038216907f6719d08c1888103bea251a4ed56406bd0c3e69723c8a1686e017e7bbe159b6f890600090a250565b6200028981600e620002e260201b620022681790919060201c565b6040516001600160a01b038216907f6ae172837ea30b801fbfcdd4108aa1d5bf8ff775444fd70256b44e6bf3dfc3f690600090a250565b8051620002d590600d906020840190620003d8565b5050565b80546001019055565b620002f782826001600160e01b036200036f16565b156200034a576040805162461bcd60e51b815260206004820152601f60248201527f526f6c65733a206163636f756e7420616c72656164792068617320726f6c6500604482015290519081900360640190fd5b6001600160a01b0316600090815260209190915260409020805460ff19166001179055565b60006001600160a01b038216620003b85760405162461bcd60e51b8152600401808060200182810382526022815260200180620033526022913960400191505060405180910390fd5b506001600160a01b03166000908152602091909152604090205460ff1690565b828054600181600116156101000203166002900490600052602060002090601f016020900481019282601f106200041b57805160ff19168380011785556200044b565b828001600101855582156200044b579182015b828111156200044b5782518255916020019190600101906200042e565b50620004599291506200045d565b5090565b6200021991905b8082111562000459576000815560010162000464565b612ea2806200048a6000396000f3fe608060405234801561001057600080fd5b50600436106102105760003560e01c80636352211e1161012557806398650275116100ad578063b917ade51161007c578063b917ade514610796578063c87b56dd1461079e578063e8a3d485146107bb578063e985e9c5146107c3578063f7b10808146107f157610210565b80639865027514610674578063a22cb4651461067c578063aa271e1a146106aa578063b88d4fde146106d057610210565b806370a08231116100f457806370a08231146105f257806382dc1ec4146106185780638456cb591461063e57806395d89b4114610646578063983b2d561461064e57610210565b80636352211e1461059657806363859b78146105b35780636c0360eb146105e25780636ef8d66d146105ea57610210565b80632f745c59116101a857806346fbf68e1161017757806346fbf68e1461045a5780634f6ccce71461048057806355f804b31461049d5780635c975abb1461050d578063603823741461051557610210565b80632f745c59146103d35780633f4ba83a146103ff57806342842e0e1461040757806342966c681461043d57610210565b8063095ea7b3116101e4578063095ea7b314610323578063156e29f61461035157806318160ddd1461039557806323b872dd1461039d57610210565b8062ad800c1461021557806301ffc9a7146102a757806306fdde03146102e2578063081812fc146102ea575b600080fd5b6102326004803603602081101561022b57600080fd5b5035610834565b6040805160208082528351818301528351919283929083019185019080838360005b8381101561026c578181015183820152602001610254565b50505050905090810190601f1680156102995780820380516001836020036101000a031916815260200191505b509250505060405180910390f35b6102ce600480360360208110156102bd57600080fd5b50356001600160e01b0319166108db565b604080519115158252519081900360200190f35b6102326108fa565b6103076004803603602081101561030057600080fd5b5035610991565b604080516001600160a01b039092168252519081900360200190f35b61034f6004803603604081101561033957600080fd5b506001600160a01b0381351690602001356109f3565b005b6103836004803603606081101561036757600080fd5b506001600160a01b038135169060208101359060400135610a4c565b60408051918252519081900360200190f35b610383610b22565b61034f600480360360608110156103b357600080fd5b506001600160a01b03813581169160208101359091169060400135610b28565b610383600480360360408110156103e957600080fd5b506001600160a01b038135169060200135610b84565b61034f610c03565b61034f6004803603606081101561041d57600080fd5b506001600160a01b03813581169160208101359091169060400135610cec565b61034f6004803603602081101561045357600080fd5b5035610d07565b6102ce6004803603602081101561047057600080fd5b50356001600160a01b0316610d59565b6103836004803603602081101561049657600080fd5b5035610d72565b61034f600480360360208110156104b357600080fd5b8101906020810181356401000000008111156104ce57600080fd5b8201836020820111156104e057600080fd5b8035906020019184600183028401116401000000008311171561050257600080fd5b509092509050610dd8565b6102ce610e5d565b61053b6004803603602081101561052b57600080fd5b50356001600160a01b0316610e66565b6040518080602001838152602001828103825284818151815260200191508051906020019060200280838360005b83811015610581578181015183820152602001610569565b50505050905001935050505060405180910390f35b610307600480360360208110156105ac57600080fd5b5035610f02565b610232600480360360808110156105c957600080fd5b5080359060208101359060408101359060600135610f56565b61023261103d565b61034f61109e565b6103836004803603602081101561060857600080fd5b50356001600160a01b03166110b0565b61034f6004803603602081101561062e57600080fd5b50356001600160a01b0316611118565b61034f611167565b61023261122e565b61034f6004803603602081101561066457600080fd5b50356001600160a01b031661128f565b61034f6112de565b61034f6004803603604081101561069257600080fd5b506001600160a01b03813516906020013515156112ee565b6102ce600480360360208110156106c057600080fd5b50356001600160a01b0316611343565b61034f600480360360808110156106e657600080fd5b6001600160a01b0382358116926020810135909116916040820135919081019060808101606082013564010000000081111561072157600080fd5b82018360208201111561073357600080fd5b8035906020019184600183028401116401000000008311171561075557600080fd5b91908080601f016020809104026020016040519081016040528093929190818152602001838380828437600092019190915250929550611356945050505050565b61034f6113b4565b610232600480360360208110156107b457600080fd5b5035611404565b61023261150d565b6102ce600480360360408110156107d957600080fd5b506001600160a01b03813581169160200135166115d5565b61080e6004803603602081101561080757600080fd5b5035611603565b604080519485526020850193909352838301919091526060830152519081900360800190f35b606061083e612a2f565b50600082815260116020908152604091829020825160808101845281548082526001830154938201939093526002820154938101939093526003015460608301526108ba5760405162461bcd60e51b815260040180806020018281038252602c815260200180612d28602c913960400191505060405180910390fd5b6108d283826000015183602001518460600151610f56565b9150505b919050565b6001600160e01b03191660009081526020819052604090205460ff1690565b600b8054604080516020601f60026000196101006001881615020190951694909404938401819004810282018101909252828152606093909290918301828280156109865780601f1061095b57610100808354040283529160200191610986565b820191906000526020600020905b81548152906001019060200180831161096957829003601f168201915b505050505090505b90565b600061099c8261162a565b6109d75760405162461bcd60e51b815260040180806020018281038252602c815260200180612d54602c913960400191505060405180910390fd5b506000908152600260205260409020546001600160a01b031690565b600a5460ff1615610a3e576040805162461bcd60e51b815260206004820152601060248201526f14185d5cd8589b194e881c185d5cd95960821b604482015290519081900360640190fd5b610a488282611647565b5050565b6000610a5e610a5961176f565b611343565b610a995760405162461bcd60e51b8152600401808060200182810382526030815260200180612cd76030913960400191505060405180910390fd5b6000610aa5600f611773565b9050610ab1600f611777565b6040518060800160405280858152602001610acc6010611773565b815242602080830191909152604091820186905260008481526011825282902083518155908301516001820155908201516002820155606090910151600390910155610b188582611780565b90505b9392505050565b60075490565b610b39610b3361176f565b8261179d565b610b745760405162461bcd60e51b8152600401808060200182810382526031815260200180612dec6031913960400191505060405180910390fd5b610b7f838383611839565b505050565b6000610b8f836110b0565b8210610bcc5760405162461bcd60e51b815260040180806020018281038252602b815260200180612b10602b913960400191505060405180910390fd5b6001600160a01b0383166000908152600560205260409020805483908110610bf057fe5b9060005260206000200154905092915050565b610c13610c0e61176f565b610d59565b610c4e5760405162461bcd60e51b8152600401808060200182810382526030815260200180612b6d6030913960400191505060405180910390fd5b600a5460ff16610c9c576040805162461bcd60e51b815260206004820152601460248201527314185d5cd8589b194e881b9bdd081c185d5cd95960621b604482015290519081900360640190fd5b600a805460ff191690557f5db9ee0a495bf2e6ff9c91a7834c1ba4fdd244a5e8aa4e537bd38aeae4b073aa610ccf61176f565b604080516001600160a01b039092168252519081900360200190a1565b610b7f83838360405180602001604052806000815250611356565b610d12610b3361176f565b610d4d5760405162461bcd60e51b815260040180806020018281038252602c815260200180612c20602c913960400191505060405180910390fd5b610d568161188f565b50565b6000610d6c60098363ffffffff6118a116565b92915050565b6000610d7c610b22565b8210610db95760405162461bcd60e51b815260040180806020018281038252602c815260200180612e1d602c913960400191505060405180910390fd5b60078281548110610dc657fe5b90600052602060002001549050919050565b610de3610a5961176f565b610e1e5760405162461bcd60e51b8152600401808060200182810382526030815260200180612cd76030913960400191505060405180910390fd5b610a4882828080601f01602080910402602001604051908101604052809392919081815260200183838082843760009201919091525061190892505050565b600a5460ff1690565b606060008080610e75856110b0565b9050606081604051908082528060200260200182016040528015610ea3578160200160208202803883390190505b50905060005b82811015610ef6576000610ebd8883610b84565b905080838381518110610ecc57fe5b60209081029190910181019190915260009182526011905260409020549390930192600101610ea9565b50935090915050915091565b6000818152600160205260408120546001600160a01b031680610d6c5760405162461bcd60e51b8152600401808060200182810382526029815260200180612cae6029913960400191505060405180910390fd5b606080610f628661191b565b90506060610f79866012600463ffffffff6119df16565b90506060610f868661191b565b90506060610f938661191b565b905061102e84611022604051806040016040528060018152602001605f60f81b81525061102285611022604051806040016040528060058152602001645f4c4f434b60d81b8152506110228a611022604051806040016040528060028152602001615f4760f01b8152506110228f6040518060400160405280600381526020016208aa8960eb1b815250611bcb565b9063ffffffff611bcb16565b9450505050505b949350505050565b600d8054604080516020601f60026000196101006001881615020190951694909404938401819004810282018101909252828152606093909290918301828280156109865780601f1061095b57610100808354040283529160200191610986565b6110ae6110a961176f565b611c86565b565b60006001600160a01b0382166110f75760405162461bcd60e51b815260040180806020018281038252602a815260200180612c84602a913960400191505060405180910390fd5b6001600160a01b0382166000908152600360205260409020610d6c90611773565b611123610c0e61176f565b61115e5760405162461bcd60e51b8152600401808060200182810382526030815260200180612b6d6030913960400191505060405180910390fd5b610d5681611cce565b611172610c0e61176f565b6111ad5760405162461bcd60e51b8152600401808060200182810382526030815260200180612b6d6030913960400191505060405180910390fd5b600a5460ff16156111f8576040805162461bcd60e51b815260206004820152601060248201526f14185d5cd8589b194e881c185d5cd95960821b604482015290519081900360640190fd5b600a805460ff191660011790557f62e78cea01bee320cd4e420270b5ea74000d11b0c9f74754ebdbfc544b05a258610ccf61176f565b600c8054604080516020601f60026000196101006001881615020190951694909404938401819004810282018101909252828152606093909290918301828280156109865780601f1061095b57610100808354040283529160200191610986565b61129a610a5961176f565b6112d55760405162461bcd60e51b8152600401808060200182810382526030815260200180612cd76030913960400191505060405180910390fd5b610d5681611d16565b6110ae6112e961176f565b611d5e565b600a5460ff1615611339576040805162461bcd60e51b815260206004820152601060248201526f14185d5cd8589b194e881c185d5cd95960821b604482015290519081900360640190fd5b610a488282611da6565b6000610d6c600e8363ffffffff6118a116565b61136761136161176f565b8361179d565b6113a25760405162461bcd60e51b8152600401808060200182810382526031815260200180612dec6031913960400191505060405180910390fd5b6113ae84848484611eab565b50505050565b6113bf610a5961176f565b6113fa5760405162461bcd60e51b8152600401808060200182810382526030815260200180612cd76030913960400191505060405180910390fd5b6110ae6010611777565b606061140f8261162a565b61144a5760405162461bcd60e51b8152600401808060200182810382526033815260200180612bed6033913960400191505060405180910390fd5b610d6c6114568361191b565b6040805180820182526005815264173539b7b760d91b602080830191909152600d8054845160026001831615610100026000190190921691909104601f8101849004840282018401909552848152929390918301828280156114f95780601f106114ce576101008083540402835291602001916114f9565b820191906000526020600020905b8154815290600101906020018083116114dc57829003601f168201915b5050505050611efd9092919063ffffffff16565b604080518082018252600d8082526c31b7b73a3930b1ba173539b7b760991b6020808401919091528154845160026001831615610100026000190190921691909104601f81018390048302820183019095528481526060946115d0949391928301828280156115bd5780601f10611592576101008083540402835291602001916115bd565b820191906000526020600020905b8154815290600101906020018083116115a057829003601f168201915b5050505050611bcb90919063ffffffff16565b905090565b6001600160a01b03918216600090815260046020908152604080832093909416825291909152205460ff1690565b60116020526000908152604090208054600182015460028301546003909301549192909184565b6000908152600160205260409020546001600160a01b0316151590565b600061165282610f02565b9050806001600160a01b0316836001600160a01b031614156116a55760405162461bcd60e51b8152600401808060200182810382526021815260200180612dcb6021913960400191505060405180910390fd5b806001600160a01b03166116b761176f565b6001600160a01b031614806116d857506116d8816116d361176f565b6115d5565b6117135760405162461bcd60e51b8152600401808060200182810382526038815260200180612c4c6038913960400191505060405180910390fd5b60008281526002602052604080822080546001600160a01b0319166001600160a01b0387811691821790925591518593918516917f8c5be1e5ebec7d5bd14f71427d1e84f3dd0314c0f7b2291e5b200ac8c7c3b92591a4505050565b3390565b5490565b80546001019055565b61178a8282612003565b6117948282612134565b610a4881612172565b60006117a88261162a565b6117e35760405162461bcd60e51b815260040180806020018281038252602c815260200180612bc1602c913960400191505060405180910390fd5b60006117ee83610f02565b9050806001600160a01b0316846001600160a01b031614806118295750836001600160a01b031661181e84610991565b6001600160a01b0316145b80611035575061103581856115d5565b600a5460ff1615611884576040805162461bcd60e51b815260206004820152601060248201526f14185d5cd8589b194e881c185d5cd95960821b604482015290519081900360640190fd5b610b7f8383836121b6565b610d5661189b82610f02565b826121d5565b60006001600160a01b0382166118e85760405162461bcd60e51b8152600401808060200182810382526022815260200180612d806022913960400191505060405180910390fd5b506001600160a01b03166000908152602091909152604090205460ff1690565b8051610a4890600d906020840190612a57565b60608161194057506040805180820190915260018152600360fc1b60208201526108d6565b8160005b811561195857600101600a82049150611944565b6060816040519080825280601f01601f191660200182016040528015611985576020820181803883390190505b50859350905060001982015b83156119d657600a840660300160f81b828280600190039350815181106119b457fe5b60200101906001600160f81b031916908160001a905350600a84049350611991565b50949350505050565b606082821115611a36576040805162461bcd60e51b815260206004820181905260248201527f537472696e675574696c733a20696e636f727265637420707265636973696f6e604482015290519081900360640190fd5b83611a5957506040805180820190915260018152600360fc1b6020820152610b1b565b8360005b8115611a7157600101600a82049150611a5d565b848111611a82575060028401611a86565b6001015b60408051858703808403808352601f19601f820116830160200190935291906000198783030190606090838015611ac4576020820181803883390190505b50905082600a85900a8b81611ad557fe5b0496505b8615611b50576000190182811415611b1857601760f91b828281518110611afc57fe5b60200101906001600160f81b031916908160001a905350600019015b600a870660300160f81b828281518110611b2e57fe5b60200101906001600160f81b031916908160001a905350600a87049650611ad9565b8015611bbd576000190182811415611b8f57601760f91b828281518110611b7357fe5b60200101906001600160f81b031916908160001a905350611bb8565b600360fc1b828281518110611ba057fe5b60200101906001600160f81b031916908160001a9053505b611b50565b509998505050505050505050565b606082826040516020018083805190602001908083835b60208310611c015780518252601f199092019160209182019101611be2565b51815160209384036101000a600019018019909216911617905285519190930192850191508083835b60208310611c495780518252601f199092019160209182019101611c2a565b6001836020036101000a03801982511681845116808217855250505050505090500192505050604051602081830303815290604052905092915050565b611c9760098263ffffffff61220116565b6040516001600160a01b038216907fcd265ebaf09df2871cc7bd4133404a235ba12eff2041bb89d9c714a2621c7c7e90600090a250565b611cdf60098263ffffffff61226816565b6040516001600160a01b038216907f6719d08c1888103bea251a4ed56406bd0c3e69723c8a1686e017e7bbe159b6f890600090a250565b611d27600e8263ffffffff61226816565b6040516001600160a01b038216907f6ae172837ea30b801fbfcdd4108aa1d5bf8ff775444fd70256b44e6bf3dfc3f690600090a250565b611d6f600e8263ffffffff61220116565b6040516001600160a01b038216907fe94479a9f7e1952cc78f2d6baab678adc1b772d936c6583def489e524cb6669290600090a250565b611dae61176f565b6001600160a01b0316826001600160a01b03161415611e14576040805162461bcd60e51b815260206004820152601960248201527f4552433732313a20617070726f766520746f2063616c6c657200000000000000604482015290519081900360640190fd5b8060046000611e2161176f565b6001600160a01b03908116825260208083019390935260409182016000908120918716808252919093529120805460ff191692151592909217909155611e6561176f565b60408051841515815290516001600160a01b0392909216917f17307eab39ab6107e8899845ad3d59bd9653f200f220920489ca2b5937696c319181900360200190a35050565b611eb6848484611839565b611ec2848484846122e9565b6113ae5760405162461bcd60e51b8152600401808060200182810382526032815260200180612b3b6032913960400191505060405180910390fd5b60608383836040516020018084805190602001908083835b60208310611f345780518252601f199092019160209182019101611f15565b51815160209384036101000a600019018019909216911617905286519190930192860191508083835b60208310611f7c5780518252601f199092019160209182019101611f5d565b51815160209384036101000a600019018019909216911617905285519190930192850191508083835b60208310611fc45780518252601f199092019160209182019101611fa5565b6001836020036101000a038019825116818451168082178552505050505050905001935050505060405160208183030381529060405290509392505050565b6001600160a01b03821661205e576040805162461bcd60e51b815260206004820181905260248201527f4552433732313a206d696e7420746f20746865207a65726f2061646472657373604482015290519081900360640190fd5b6120678161162a565b156120b9576040805162461bcd60e51b815260206004820152601c60248201527f4552433732313a20746f6b656e20616c7265616479206d696e74656400000000604482015290519081900360640190fd5b600081815260016020908152604080832080546001600160a01b0319166001600160a01b0387169081179091558352600390915290206120f890611777565b60405181906001600160a01b038416906000907fddf252ad1be2c89b69c2b068fc378daa952ba7f163c4a11628f55a4df523b3ef908290a45050565b6001600160a01b0390911660009081526005602081815260408084208054868652600684529185208290559282526001810183559183529091200155565b600780546000838152600860205260408120829055600182018355919091527fa66cc928b5edb82af9bd49922954155ab7b0942694bea4ce44661d9a8736c6880155565b6121c1838383612524565b6121cb8382612668565b610b7f8282612134565b6121df828261275d565b6121e98282612668565b600081815260066020526040812055610a4881612834565b61220b82826118a1565b6122465760405162461bcd60e51b8152600401808060200182810382526021815260200180612d076021913960400191505060405180910390fd5b6001600160a01b0316600090815260209190915260409020805460ff19169055565b61227282826118a1565b156122c4576040805162461bcd60e51b815260206004820152601f60248201527f526f6c65733a206163636f756e7420616c72656164792068617320726f6c6500604482015290519081900360640190fd5b6001600160a01b0316600090815260209190915260409020805460ff19166001179055565b60006122fd846001600160a01b03166128d0565b61230957506001611035565b600060606001600160a01b038616630a85bd0160e11b61232761176f565b89888860405160240180856001600160a01b03166001600160a01b03168152602001846001600160a01b03166001600160a01b0316815260200183815260200180602001828103825283818151815260200191508051906020019080838360005b838110156123a0578181015183820152602001612388565b50505050905090810190601f1680156123cd5780820380516001836020036101000a031916815260200191505b5060408051601f198184030181529181526020820180516001600160e01b03166001600160e01b0319909a16999099178952518151919890975087965094509250829150849050835b602083106124355780518252601f199092019160209182019101612416565b6001836020036101000a0380198251168184511680821785525050505050509050019150506000604051808303816000865af19150503d8060008114612497576040519150601f19603f3d011682016040523d82523d6000602084013e61249c565b606091505b5091509150816124ed578051156124b65780518082602001fd5b60405162461bcd60e51b8152600401808060200182810382526032815260200180612b3b6032913960400191505060405180910390fd5b600081806020019051602081101561250457600080fd5b50516001600160e01b031916630a85bd0160e11b14935061103592505050565b826001600160a01b031661253782610f02565b6001600160a01b03161461257c5760405162461bcd60e51b8152600401808060200182810382526029815260200180612da26029913960400191505060405180910390fd5b6001600160a01b0382166125c15760405162461bcd60e51b8152600401808060200182810382526024815260200180612b9d6024913960400191505060405180910390fd5b6125ca81612909565b6001600160a01b03831660009081526003602052604090206125eb90612944565b6001600160a01b038216600090815260036020526040902061260c90611777565b60008181526001602052604080822080546001600160a01b0319166001600160a01b0386811691821790925591518493918716917fddf252ad1be2c89b69c2b068fc378daa952ba7f163c4a11628f55a4df523b3ef91a4505050565b6001600160a01b03821660009081526005602052604081205461269290600163ffffffff61295b16565b60008381526006602052604090205490915080821461272d576001600160a01b03841660009081526005602052604081208054849081106126cf57fe5b906000526020600020015490508060056000876001600160a01b03166001600160a01b03168152602001908152602001600020838154811061270d57fe5b600091825260208083209091019290925591825260069052604090208190555b6001600160a01b0384166000908152600560205260409020805490612756906000198301612ad5565b5050505050565b816001600160a01b031661277082610f02565b6001600160a01b0316146127b55760405162461bcd60e51b8152600401808060200182810382526025815260200180612e496025913960400191505060405180910390fd5b6127be81612909565b6001600160a01b03821660009081526003602052604090206127df90612944565b60008181526001602052604080822080546001600160a01b0319169055518291906001600160a01b038516907fddf252ad1be2c89b69c2b068fc378daa952ba7f163c4a11628f55a4df523b3ef908390a45050565b60075460009061284b90600163ffffffff61295b16565b6000838152600860205260408120546007805493945090928490811061286d57fe5b90600052602060002001549050806007838154811061288857fe5b600091825260208083209091019290925582815260089091526040902082905560078054906128bb906000198301612ad5565b50505060009182525060086020526040812055565b6000813f7fc5d2460186f7233c927e7db2dcc703c0e500b653ca82273b7bfad8045d85a470818114801590611035575050151592915050565b6000818152600260205260409020546001600160a01b031615610d5657600090815260026020526040902080546001600160a01b0319169055565b805461295790600163ffffffff61295b16565b9055565b6000610b1b83836040518060400160405280601e81526020017f536166654d6174683a207375627472616374696f6e206f766572666c6f77000081525060008184841115612a275760405162461bcd60e51b81526004018080602001828103825283818151815260200191508051906020019080838360005b838110156129ec5781810151838201526020016129d4565b50505050905090810190601f168015612a195780820380516001836020036101000a031916815260200191505b509250505060405180910390fd5b505050900390565b6040518060800160405280600081526020016000815260200160008152602001600081525090565b828054600181600116156101000203166002900490600052602060002090601f016020900481019282601f10612a9857805160ff1916838001178555612ac5565b82800160010185558215612ac5579182015b82811115612ac5578251825591602001919060010190612aaa565b50612ad1929150612af5565b5090565b815481835581811115610b7f57600083815260209020610b7f9181019083015b61098e91905b80821115612ad15760008155600101612afb56fe455243373231456e756d657261626c653a206f776e657220696e646578206f7574206f6620626f756e64734552433732313a207472616e7366657220746f206e6f6e20455243373231526563656976657220696d706c656d656e746572506175736572526f6c653a2063616c6c657220646f6573206e6f742068617665207468652050617573657220726f6c654552433732313a207472616e7366657220746f20746865207a65726f20616464726573734552433732313a206f70657261746f7220717565727920666f72206e6f6e6578697374656e7420746f6b656e4574686965546f6b656e4d657461646174613a2055524920717565727920666f72206e6f6e6578697374656e7420746f6b656e4574686965546f6b656e3a2063616c6c6572206973206e6f74206f776e6572206e6f7220617070726f7665644552433732313a20617070726f76652063616c6c6572206973206e6f74206f776e6572206e6f7220617070726f76656420666f7220616c6c4552433732313a2062616c616e636520717565727920666f7220746865207a65726f20616464726573734552433732313a206f776e657220717565727920666f72206e6f6e6578697374656e7420746f6b656e4d696e746572526f6c653a2063616c6c657220646f6573206e6f74206861766520746865204d696e74657220726f6c65526f6c65733a206163636f756e7420646f6573206e6f74206861766520726f6c654574686965546f6b656e3a206e616d6520717565727920666f72206e6f6e6578697374656e7420746f6b656e4552433732313a20617070726f76656420717565727920666f72206e6f6e6578697374656e7420746f6b656e526f6c65733a206163636f756e7420697320746865207a65726f20616464726573734552433732313a207472616e73666572206f6620746f6b656e2074686174206973206e6f74206f776e4552433732313a20617070726f76616c20746f2063757272656e74206f776e65724552433732313a207472616e736665722063616c6c6572206973206e6f74206f776e6572206e6f7220617070726f766564455243373231456e756d657261626c653a20676c6f62616c20696e646578206f7574206f6620626f756e64734552433732313a206275726e206f6620746f6b656e2074686174206973206e6f74206f776ea265627a7a7231582098ce51372ee5c69bc0bff5bbac5834567dfc99c5c034e7fffdeb189a18bb6aa764736f6c6343000511003268747470733a2f2f65746869652e6b697474696566696768742e696f2f6d657461646174612f526f6c65733a206163636f756e7420697320746865207a65726f2061646472657373",
  "source": "pragma solidity ^0.5.5;\n\nimport \"../libs/openzeppelin_v2_5_0/token/ERC721/ERC721.sol\";\nimport \"../libs/openzeppelin_v2_5_0/token/ERC721/ERC721Enumerable.sol\";\nimport \"../libs/openzeppelin_v2_5_0/token/ERC721/ERC721Pausable.sol\";\nimport \"../libs/openzeppelin_v2_5_0/access/roles/MinterRole.sol\";\nimport \"../libs/openzeppelin_v2_5_0/math/SafeMath.sol\";\nimport \"../libs/openzeppelin_v2_5_0/drafts/Counters.sol\";\nimport \"../libs/StringUtils.sol\";\nimport \"./EthieTokenMetadata.sol\";\n\ncontract EthieToken is ERC721, ERC721Enumerable, ERC721Pausable, EthieTokenMetadata, MinterRole {\n    using SafeMath for uint256;\n    using Counters for Counters.Counter;\n    using StringUtils for string;\n    using StringUtils for uint256;\n\n    string constant NAME     = \"Kittiefight Ethie\";\n    string constant SYMBOL   = \"Ethie\";\n    string constant BASE_URI = \"https://ethie.kittiefight.io/metadata/\";\n\n    struct TokenProperties {\n        uint256 ethAmount;\n        uint256 generation;\n        uint256 creationTime;\n        uint256 lockPeriod;\n    }\n\n    Counters.Counter nextTokenId;       // Provides unique identifier for Ethie token. 0 value is invalid\n    Counters.Counter generation; // Stores current genereation of Ethie tokens\n\n    mapping (uint256 => TokenProperties) public properties;\n\n    constructor() EthieTokenMetadata(NAME, SYMBOL) public {\n        _setBaseURI(BASE_URI);\n        nextTokenId.increment();    // First token should have tokenId = 1;\n    }\n\n    /**\n     * @notice Mint a new Ethie token\n     * @param to Owner of a new token\n     * @param ethAmount Ether value of the new token\n     * @param lockPeriod Lock time\n     * @return id of the new token\n     */\n    function mint(address to, uint256 ethAmount, uint256 lockPeriod) public onlyMinter returns (uint256) {\n        uint256 tokenId = nextTokenId.current();\n        nextTokenId.increment();\n        properties[tokenId] = TokenProperties({\n            ethAmount: ethAmount,\n            generation: generation.current(),\n            creationTime: now,\n            lockPeriod: lockPeriod\n        });\n        _mint(to, tokenId);\n        return tokenId;\n    }\n\n    function burn(uint256 tokenId) public {\n        require(_isApprovedOrOwner(_msgSender(), tokenId), \"EthieToken: caller is not owner nor approved\");\n        //TODO return ETH\n        _burn(tokenId);\n    }\n\n    function incrementGeneration() public onlyMinter {\n        generation.increment();\n    }\n\n    function setBaseURI(string calldata baseURI) external onlyMinter {\n        _setBaseURI(baseURI);\n    }\n\n    function name(uint256 tokenId) public view returns(string memory) {\n        TokenProperties memory p = properties[tokenId];\n        require(p.ethAmount > 0, \"EthieToken: name query for nonexistent token\");\n        return generateName(tokenId, p.ethAmount, p.generation, p.lockPeriod);\n    }\n\n    function allTokenOf(address holder) public view returns(uint256[] memory, uint256) {\n        uint256 ethBalance = 0;\n        uint256 balance = balanceOf(holder);\n        uint256[] memory tokens = new uint256[](balance);\n        for(uint256 i = 0; i < balance; i++){\n            uint256 idx = tokenOfOwnerByIndex(holder, i);\n            tokens[i] = idx;\n            ethBalance += properties[idx].ethAmount;\n        }\n        return (tokens, ethBalance);\n    }\n\n\n    function generateName(uint256 tokenId, uint256 ethAmount, uint256 tokenGeneration, uint256 lockPeriod) public pure returns(string memory) {\n        string memory id  = tokenId.fromUint256();\n        string memory eth = ethAmount.fromUint256(18, 4);\n        string memory gen = tokenGeneration.fromUint256();\n        string memory lock = lockPeriod.fromUint256();\n        return StringUtils.concat(eth,\"ETH\").concat(\"_G\").concat(gen).concat(\"_LOCK\").concat(lock).concat(\"_\").concat(id);\n    }\n\n}\n",
  "sourcePath": "/Users/ziweizhang/Desktop/kittifight-balancer/contracts/contracts/ethie/EthieToken.sol",
  "compiler": {
    "name": "solc",
    "version": "0.5.17+commit.d19bba13.Emscripten.clang"
  },
  "schemaVersion": "3.0.23",
  "updatedAt": "2020-05-30T18:43:01.408Z",
  "networkType": "ethereum",
  "devdoc": {
    "methods": {
      "balanceOf(address)": {
        "details": "Gets the balance of the specified address.",
        "params": {
          "owner": "address to query the balance of"
        },
        "return": "uint256 representing the amount owned by the passed address"
      },
      "baseURI()": {
        "details": "Returns the base URI set via {_setBaseURI}. This will be automatically added as a preffix in {tokenURI} to each token's URI, when they are non-empty.    * _Available since v2.5.0._"
      },
      "getApproved(uint256)": {
        "details": "Gets the approved address for a token ID, or zero if no address set Reverts if the token ID does not exist.",
        "params": {
          "tokenId": "uint256 ID of the token to query the approval of"
        },
        "return": "address currently approved for the given token ID"
      },
      "isApprovedForAll(address,address)": {
        "details": "Tells whether an operator is approved by a given owner.",
        "params": {
          "operator": "operator address which you want to query the approval of",
          "owner": "owner address which you want to query the approval of"
        },
        "return": "bool whether the given operator is approved by the given owner"
      },
      "mint(address,uint256,uint256)": {
        "params": {
          "ethAmount": "Ether value of the new token",
          "lockPeriod": "Lock time",
          "to": "Owner of a new token"
        },
        "return": "id of the new token"
      },
      "name()": {
        "details": "Gets the token name.",
        "return": "string representing the token name"
      },
      "ownerOf(uint256)": {
        "details": "Gets the owner of the specified token ID.",
        "params": {
          "tokenId": "uint256 ID of the token to query the owner of"
        },
        "return": "address currently marked as the owner of the given token ID"
      },
      "pause()": {
        "details": "Called by a pauser to pause, triggers stopped state."
      },
      "paused()": {
        "details": "Returns true if the contract is paused, and false otherwise."
      },
      "safeTransferFrom(address,address,uint256)": {
        "details": "Safely transfers the ownership of a given token ID to another address If the target address is a contract, it must implement {IERC721Receiver-onERC721Received}, which is called upon a safe transfer, and return the magic value `bytes4(keccak256(\"onERC721Received(address,address,uint256,bytes)\"))`; otherwise, the transfer is reverted. Requires the msg.sender to be the owner, approved, or operator",
        "params": {
          "from": "current owner of the token",
          "to": "address to receive the ownership of the given token ID",
          "tokenId": "uint256 ID of the token to be transferred"
        }
      },
      "safeTransferFrom(address,address,uint256,bytes)": {
        "details": "Safely transfers the ownership of a given token ID to another address If the target address is a contract, it must implement {IERC721Receiver-onERC721Received}, which is called upon a safe transfer, and return the magic value `bytes4(keccak256(\"onERC721Received(address,address,uint256,bytes)\"))`; otherwise, the transfer is reverted. Requires the _msgSender() to be the owner, approved, or operator",
        "params": {
          "_data": "bytes data to send along with a safe transfer check",
          "from": "current owner of the token",
          "to": "address to receive the ownership of the given token ID",
          "tokenId": "uint256 ID of the token to be transferred"
        }
      },
      "supportsInterface(bytes4)": {
        "details": "See {IERC165-supportsInterface}.     * Time complexity O(1), guaranteed to always use less than 30 000 gas."
      },
      "symbol()": {
        "details": "Gets the token symbol.",
        "return": "string representing the token symbol"
      },
      "tokenByIndex(uint256)": {
        "details": "Gets the token ID at a given index of all the tokens in this contract Reverts if the index is greater or equal to the total number of tokens.",
        "params": {
          "index": "uint256 representing the index to be accessed of the tokens list"
        },
        "return": "uint256 token ID at the given index of the tokens list"
      },
      "tokenOfOwnerByIndex(address,uint256)": {
        "details": "Gets the token ID at a given index of the tokens list of the requested owner.",
        "params": {
          "index": "uint256 representing the index to be accessed of the requested tokens list",
          "owner": "address owning the tokens list to be accessed"
        },
        "return": "uint256 token ID at the given index of the tokens list owned by the requested address"
      },
      "tokenURI(uint256)": {
        "details": "Returns the URI for a given token ID. May return an empty string.     * Reverts if the token ID does not exist."
      },
      "totalSupply()": {
        "details": "Gets the total amount of tokens stored by the contract.",
        "return": "uint256 representing the total amount of tokens"
      },
      "transferFrom(address,address,uint256)": {
        "details": "Transfers the ownership of a given token ID to another address. Usage of this method is discouraged, use {safeTransferFrom} whenever possible. Requires the msg.sender to be the owner, approved, or operator.",
        "params": {
          "from": "current owner of the token",
          "to": "address to receive the ownership of the given token ID",
          "tokenId": "uint256 ID of the token to be transferred"
        }
      },
      "unpause()": {
        "details": "Called by a pauser to unpause, returns to normal state."
      }
    }
  },
  "userdoc": {
    "methods": {
      "mint(address,uint256,uint256)": {
        "notice": "Mint a new Ethie token"
      }
    }
  }
}