{
  "contractName": "EthieToken",
  "abi": [
    {
      "inputs": [],
      "payable": false,
      "stateMutability": "nonpayable",
      "type": "constructor"
    },
    {
      "anonymous": false,
      "inputs": [
        {
          "indexed": true,
          "internalType": "address",
          "name": "owner",
          "type": "address"
        },
        {
          "indexed": true,
          "internalType": "address",
          "name": "approved",
          "type": "address"
        },
        {
          "indexed": true,
          "internalType": "uint256",
          "name": "tokenId",
          "type": "uint256"
        }
      ],
      "name": "Approval",
      "type": "event"
    },
    {
      "anonymous": false,
      "inputs": [
        {
          "indexed": true,
          "internalType": "address",
          "name": "owner",
          "type": "address"
        },
        {
          "indexed": true,
          "internalType": "address",
          "name": "operator",
          "type": "address"
        },
        {
          "indexed": false,
          "internalType": "bool",
          "name": "approved",
          "type": "bool"
        }
      ],
      "name": "ApprovalForAll",
      "type": "event"
    },
    {
      "anonymous": false,
      "inputs": [
        {
          "indexed": true,
          "internalType": "address",
          "name": "account",
          "type": "address"
        }
      ],
      "name": "MinterAdded",
      "type": "event"
    },
    {
      "anonymous": false,
      "inputs": [
        {
          "indexed": true,
          "internalType": "address",
          "name": "account",
          "type": "address"
        }
      ],
      "name": "MinterRemoved",
      "type": "event"
    },
    {
      "anonymous": false,
      "inputs": [
        {
          "indexed": false,
          "internalType": "address",
          "name": "account",
          "type": "address"
        }
      ],
      "name": "Paused",
      "type": "event"
    },
    {
      "anonymous": false,
      "inputs": [
        {
          "indexed": true,
          "internalType": "address",
          "name": "account",
          "type": "address"
        }
      ],
      "name": "PauserAdded",
      "type": "event"
    },
    {
      "anonymous": false,
      "inputs": [
        {
          "indexed": true,
          "internalType": "address",
          "name": "account",
          "type": "address"
        }
      ],
      "name": "PauserRemoved",
      "type": "event"
    },
    {
      "anonymous": false,
      "inputs": [
        {
          "indexed": true,
          "internalType": "address",
          "name": "from",
          "type": "address"
        },
        {
          "indexed": true,
          "internalType": "address",
          "name": "to",
          "type": "address"
        },
        {
          "indexed": true,
          "internalType": "uint256",
          "name": "tokenId",
          "type": "uint256"
        }
      ],
      "name": "Transfer",
      "type": "event"
    },
    {
      "anonymous": false,
      "inputs": [
        {
          "indexed": false,
          "internalType": "address",
          "name": "account",
          "type": "address"
        }
      ],
      "name": "Unpaused",
      "type": "event"
    },
    {
      "constant": false,
      "inputs": [
        {
          "internalType": "address",
          "name": "account",
          "type": "address"
        }
      ],
      "name": "addMinter",
      "outputs": [],
      "payable": false,
      "stateMutability": "nonpayable",
      "type": "function"
    },
    {
      "constant": false,
      "inputs": [
        {
          "internalType": "address",
          "name": "account",
          "type": "address"
        }
      ],
      "name": "addPauser",
      "outputs": [],
      "payable": false,
      "stateMutability": "nonpayable",
      "type": "function"
    },
    {
      "constant": false,
      "inputs": [
        {
          "internalType": "address",
          "name": "to",
          "type": "address"
        },
        {
          "internalType": "uint256",
          "name": "tokenId",
          "type": "uint256"
        }
      ],
      "name": "approve",
      "outputs": [],
      "payable": false,
      "stateMutability": "nonpayable",
      "type": "function"
    },
    {
      "constant": true,
      "inputs": [
        {
          "internalType": "address",
          "name": "owner",
          "type": "address"
        }
      ],
      "name": "balanceOf",
      "outputs": [
        {
          "internalType": "uint256",
          "name": "",
          "type": "uint256"
        }
      ],
      "payable": false,
      "stateMutability": "view",
      "type": "function"
    },
    {
      "constant": true,
      "inputs": [],
      "name": "baseURI",
      "outputs": [
        {
          "internalType": "string",
          "name": "",
          "type": "string"
        }
      ],
      "payable": false,
      "stateMutability": "view",
      "type": "function"
    },
    {
      "constant": true,
      "inputs": [],
      "name": "contractURI",
      "outputs": [
        {
          "internalType": "string",
          "name": "",
          "type": "string"
        }
      ],
      "payable": false,
      "stateMutability": "view",
      "type": "function"
    },
    {
      "constant": true,
      "inputs": [
        {
          "internalType": "uint256",
          "name": "tokenId",
          "type": "uint256"
        }
      ],
      "name": "getApproved",
      "outputs": [
        {
          "internalType": "address",
          "name": "",
          "type": "address"
        }
      ],
      "payable": false,
      "stateMutability": "view",
      "type": "function"
    },
    {
      "constant": true,
      "inputs": [
        {
          "internalType": "address",
          "name": "owner",
          "type": "address"
        },
        {
          "internalType": "address",
          "name": "operator",
          "type": "address"
        }
      ],
      "name": "isApprovedForAll",
      "outputs": [
        {
          "internalType": "bool",
          "name": "",
          "type": "bool"
        }
      ],
      "payable": false,
      "stateMutability": "view",
      "type": "function"
    },
    {
      "constant": true,
      "inputs": [
        {
          "internalType": "address",
          "name": "account",
          "type": "address"
        }
      ],
      "name": "isMinter",
      "outputs": [
        {
          "internalType": "bool",
          "name": "",
          "type": "bool"
        }
      ],
      "payable": false,
      "stateMutability": "view",
      "type": "function"
    },
    {
      "constant": true,
      "inputs": [
        {
          "internalType": "address",
          "name": "account",
          "type": "address"
        }
      ],
      "name": "isPauser",
      "outputs": [
        {
          "internalType": "bool",
          "name": "",
          "type": "bool"
        }
      ],
      "payable": false,
      "stateMutability": "view",
      "type": "function"
    },
    {
      "constant": true,
      "inputs": [
        {
          "internalType": "uint256",
          "name": "tokenId",
          "type": "uint256"
        }
      ],
      "name": "ownerOf",
      "outputs": [
        {
          "internalType": "address",
          "name": "",
          "type": "address"
        }
      ],
      "payable": false,
      "stateMutability": "view",
      "type": "function"
    },
    {
      "constant": false,
      "inputs": [],
      "name": "pause",
      "outputs": [],
      "payable": false,
      "stateMutability": "nonpayable",
      "type": "function"
    },
    {
      "constant": true,
      "inputs": [],
      "name": "paused",
      "outputs": [
        {
          "internalType": "bool",
          "name": "",
          "type": "bool"
        }
      ],
      "payable": false,
      "stateMutability": "view",
      "type": "function"
    },
    {
      "constant": true,
      "inputs": [
        {
          "internalType": "uint256",
          "name": "",
          "type": "uint256"
        }
      ],
      "name": "properties",
      "outputs": [
        {
          "internalType": "uint256",
          "name": "ethAmount",
          "type": "uint256"
        },
        {
          "internalType": "uint256",
          "name": "generation",
          "type": "uint256"
        },
        {
          "internalType": "uint256",
          "name": "creationTime",
          "type": "uint256"
        },
        {
          "internalType": "uint256",
          "name": "lockPeriod",
          "type": "uint256"
        }
      ],
      "payable": false,
      "stateMutability": "view",
      "type": "function"
    },
    {
      "constant": false,
      "inputs": [],
      "name": "renounceMinter",
      "outputs": [],
      "payable": false,
      "stateMutability": "nonpayable",
      "type": "function"
    },
    {
      "constant": false,
      "inputs": [],
      "name": "renouncePauser",
      "outputs": [],
      "payable": false,
      "stateMutability": "nonpayable",
      "type": "function"
    },
    {
      "constant": false,
      "inputs": [
        {
          "internalType": "address",
          "name": "from",
          "type": "address"
        },
        {
          "internalType": "address",
          "name": "to",
          "type": "address"
        },
        {
          "internalType": "uint256",
          "name": "tokenId",
          "type": "uint256"
        }
      ],
      "name": "safeTransferFrom",
      "outputs": [],
      "payable": false,
      "stateMutability": "nonpayable",
      "type": "function"
    },
    {
      "constant": false,
      "inputs": [
        {
          "internalType": "address",
          "name": "from",
          "type": "address"
        },
        {
          "internalType": "address",
          "name": "to",
          "type": "address"
        },
        {
          "internalType": "uint256",
          "name": "tokenId",
          "type": "uint256"
        },
        {
          "internalType": "bytes",
          "name": "_data",
          "type": "bytes"
        }
      ],
      "name": "safeTransferFrom",
      "outputs": [],
      "payable": false,
      "stateMutability": "nonpayable",
      "type": "function"
    },
    {
      "constant": false,
      "inputs": [
        {
          "internalType": "address",
          "name": "to",
          "type": "address"
        },
        {
          "internalType": "bool",
          "name": "approved",
          "type": "bool"
        }
      ],
      "name": "setApprovalForAll",
      "outputs": [],
      "payable": false,
      "stateMutability": "nonpayable",
      "type": "function"
    },
    {
      "constant": true,
      "inputs": [
        {
          "internalType": "bytes4",
          "name": "interfaceId",
          "type": "bytes4"
        }
      ],
      "name": "supportsInterface",
      "outputs": [
        {
          "internalType": "bool",
          "name": "",
          "type": "bool"
        }
      ],
      "payable": false,
      "stateMutability": "view",
      "type": "function"
    },
    {
      "constant": true,
      "inputs": [],
      "name": "symbol",
      "outputs": [
        {
          "internalType": "string",
          "name": "",
          "type": "string"
        }
      ],
      "payable": false,
      "stateMutability": "view",
      "type": "function"
    },
    {
      "constant": true,
      "inputs": [
        {
          "internalType": "uint256",
          "name": "index",
          "type": "uint256"
        }
      ],
      "name": "tokenByIndex",
      "outputs": [
        {
          "internalType": "uint256",
          "name": "",
          "type": "uint256"
        }
      ],
      "payable": false,
      "stateMutability": "view",
      "type": "function"
    },
    {
      "constant": true,
      "inputs": [
        {
          "internalType": "address",
          "name": "owner",
          "type": "address"
        },
        {
          "internalType": "uint256",
          "name": "index",
          "type": "uint256"
        }
      ],
      "name": "tokenOfOwnerByIndex",
      "outputs": [
        {
          "internalType": "uint256",
          "name": "",
          "type": "uint256"
        }
      ],
      "payable": false,
      "stateMutability": "view",
      "type": "function"
    },
    {
      "constant": true,
      "inputs": [
        {
          "internalType": "uint256",
          "name": "tokenId",
          "type": "uint256"
        }
      ],
      "name": "tokenURI",
      "outputs": [
        {
          "internalType": "string",
          "name": "",
          "type": "string"
        }
      ],
      "payable": false,
      "stateMutability": "view",
      "type": "function"
    },
    {
      "constant": true,
      "inputs": [],
      "name": "totalSupply",
      "outputs": [
        {
          "internalType": "uint256",
          "name": "",
          "type": "uint256"
        }
      ],
      "payable": false,
      "stateMutability": "view",
      "type": "function"
    },
    {
      "constant": false,
      "inputs": [
        {
          "internalType": "address",
          "name": "from",
          "type": "address"
        },
        {
          "internalType": "address",
          "name": "to",
          "type": "address"
        },
        {
          "internalType": "uint256",
          "name": "tokenId",
          "type": "uint256"
        }
      ],
      "name": "transferFrom",
      "outputs": [],
      "payable": false,
      "stateMutability": "nonpayable",
      "type": "function"
    },
    {
      "constant": false,
      "inputs": [],
      "name": "unpause",
      "outputs": [],
      "payable": false,
      "stateMutability": "nonpayable",
      "type": "function"
    },
    {
      "constant": false,
      "inputs": [
        {
          "internalType": "address",
          "name": "to",
          "type": "address"
        },
        {
          "internalType": "uint256",
          "name": "ethAmount",
          "type": "uint256"
        },
        {
          "internalType": "uint256",
          "name": "lockPeriod",
          "type": "uint256"
        }
      ],
      "name": "mint",
      "outputs": [
        {
          "internalType": "uint256",
          "name": "",
          "type": "uint256"
        }
      ],
      "payable": false,
      "stateMutability": "nonpayable",
      "type": "function"
    },
    {
      "constant": false,
      "inputs": [
        {
          "internalType": "uint256",
          "name": "tokenId",
          "type": "uint256"
        }
      ],
      "name": "burn",
      "outputs": [],
      "payable": false,
      "stateMutability": "nonpayable",
      "type": "function"
    },
    {
      "constant": false,
      "inputs": [],
      "name": "incrementGeneration",
      "outputs": [],
      "payable": false,
      "stateMutability": "nonpayable",
      "type": "function"
    },
    {
      "constant": false,
      "inputs": [
        {
          "internalType": "string",
          "name": "baseURI",
          "type": "string"
        }
      ],
      "name": "setBaseURI",
      "outputs": [],
      "payable": false,
      "stateMutability": "nonpayable",
      "type": "function"
    },
    {
      "constant": true,
      "inputs": [
        {
          "internalType": "uint256",
          "name": "tokenId",
          "type": "uint256"
        }
      ],
      "name": "name",
      "outputs": [
        {
          "internalType": "string",
          "name": "",
          "type": "string"
        }
      ],
      "payable": false,
      "stateMutability": "view",
      "type": "function"
    },
    {
      "constant": true,
      "inputs": [],
      "name": "name",
      "outputs": [
        {
          "internalType": "string",
          "name": "",
          "type": "string"
        }
      ],
      "payable": false,
      "stateMutability": "view",
      "type": "function"
    },
    {
      "constant": true,
      "inputs": [
        {
          "internalType": "address",
          "name": "holder",
          "type": "address"
        }
      ],
      "name": "allTokenOf",
      "outputs": [
        {
          "internalType": "uint256[]",
          "name": "",
          "type": "uint256[]"
        },
        {
          "internalType": "uint256",
          "name": "",
          "type": "uint256"
        }
      ],
      "payable": false,
      "stateMutability": "view",
      "type": "function"
    },
    {
      "constant": true,
      "inputs": [
        {
          "internalType": "uint256",
          "name": "tokenId",
          "type": "uint256"
        },
        {
          "internalType": "uint256",
          "name": "ethAmount",
          "type": "uint256"
        },
        {
          "internalType": "uint256",
          "name": "tokenGeneration",
          "type": "uint256"
        },
        {
          "internalType": "uint256",
          "name": "lockPeriod",
          "type": "uint256"
        }
      ],
      "name": "generateName",
      "outputs": [
        {
          "internalType": "string",
          "name": "",
          "type": "string"
        }
      ],
      "payable": false,
      "stateMutability": "pure",
      "type": "function"
    }
  ],
  "bytecode": "0x60806040523480156200001157600080fd5b506040518060400160405280601181526020017f4b697474696566696768742045746869650000000000000000000000000000008152506040518060400160405280600581526020017f4574686965000000000000000000000000000000000000000000000000000000815250620000966301ffc9a760e01b620001b460201b60201c565b620000ae6380ac58cd60e01b620001b460201b60201c565b620000c663780e9d6360e01b620001b460201b60201c565b620000e6620000da620002bd60201b60201c565b620002c560201b60201c565b6000600a60006101000a81548160ff02191690831515021790555081600b9080519060200190620001199291906200057d565b5080600c9080519060200190620001329291906200057d565b506200014b635b5e139f60e01b620001b460201b60201c565b50506200016d62000161620002bd60201b60201c565b6200032660201b60201c565b6200019760405180606001604052806026815260200162004ec3602691396200038760201b60201c565b620001ae600f620003a360201b620026821760201c565b6200062c565b63ffffffff60e01b817bffffffffffffffffffffffffffffffffffffffffffffffffffffffff1916141562000251576040517f08c379a000000000000000000000000000000000000000000000000000000000815260040180806020018281038252601c8152602001807f4552433136353a20696e76616c696420696e746572666163652069640000000081525060200191505060405180910390fd5b6001600080837bffffffffffffffffffffffffffffffffffffffffffffffffffffffff19167bffffffffffffffffffffffffffffffffffffffffffffffffffffffff1916815260200190815260200160002060006101000a81548160ff02191690831515021790555050565b600033905090565b620002e0816009620003b960201b6200376c1790919060201c565b8073ffffffffffffffffffffffffffffffffffffffff167f6719d08c1888103bea251a4ed56406bd0c3e69723c8a1686e017e7bbe159b6f860405160405180910390a250565b6200034181600e620003b960201b6200376c1790919060201c565b8073ffffffffffffffffffffffffffffffffffffffff167f6ae172837ea30b801fbfcdd4108aa1d5bf8ff775444fd70256b44e6bf3dfc3f660405160405180910390a250565b80600d90805190602001906200039f9291906200057d565b5050565b6001816000016000828254019250508190555050565b620003cb82826200049d60201b60201c565b156200043f576040517f08c379a000000000000000000000000000000000000000000000000000000000815260040180806020018281038252601f8152602001807f526f6c65733a206163636f756e7420616c72656164792068617320726f6c650081525060200191505060405180910390fd5b60018260000160008373ffffffffffffffffffffffffffffffffffffffff1673ffffffffffffffffffffffffffffffffffffffff16815260200190815260200160002060006101000a81548160ff0219169083151502179055505050565b60008073ffffffffffffffffffffffffffffffffffffffff168273ffffffffffffffffffffffffffffffffffffffff16141562000526576040517f08c379a000000000000000000000000000000000000000000000000000000000815260040180806020018281038252602281526020018062004ee96022913960400191505060405180910390fd5b8260000160008373ffffffffffffffffffffffffffffffffffffffff1673ffffffffffffffffffffffffffffffffffffffff16815260200190815260200160002060009054906101000a900460ff16905092915050565b828054600181600116156101000203166002900490600052602060002090601f016020900481019282601f10620005c057805160ff1916838001178555620005f1565b82800160010185558215620005f1579182015b82811115620005f0578251825591602001919060010190620005d3565b5b50905062000600919062000604565b5090565b6200062991905b80821115620006255760008160009055506001016200060b565b5090565b90565b614887806200063c6000396000f3fe608060405234801561001057600080fd5b50600436106102105760003560e01c80636352211e1161012557806398650275116100ad578063b917ade51161007c578063b917ade514610d21578063c87b56dd14610d2b578063e8a3d48514610dd2578063e985e9c514610e55578063f7b1080814610ed157610210565b80639865027514610b66578063a22cb46514610b70578063aa271e1a14610bc0578063b88d4fde14610c1c57610210565b806370a08231116100f457806370a08231146109f957806382dc1ec414610a515780638456cb5914610a9557806395d89b4114610a9f578063983b2d5614610b2257610210565b80636352211e1461083957806363859b78146108a75780636c0360eb1461096c5780636ef8d66d146109ef57610210565b80632f745c59116101a857806346fbf68e1161017757806346fbf68e146106605780634f6ccce7146106bc57806355f804b3146106fe5780635c975abb14610777578063603823741461079957610210565b80632f745c59146105585780633f4ba83a146105ba57806342842e0e146105c457806342966c681461063257610210565b8063095ea7b3116101e4578063095ea7b314610412578063156e29f61461046057806318160ddd146104cc57806323b872dd146104ea57610210565b8062ad800c1461021557806301ffc9a7146102bc57806306fdde0314610321578063081812fc146103a4575b600080fd5b6102416004803603602081101561022b57600080fd5b8101908080359060200190929190505050610f28565b6040518080602001828103825283818151815260200191508051906020019080838360005b83811015610281578082015181840152602081019050610266565b50505050905090810190601f1680156102ae5780820380516001836020036101000a031916815260200191505b509250505060405180910390f35b610307600480360360208110156102d257600080fd5b8101908080357bffffffffffffffffffffffffffffffffffffffffffffffffffffffff19169060200190929190505050610ff7565b604051808215151515815260200191505060405180910390f35b61032961105e565b6040518080602001828103825283818151815260200191508051906020019080838360005b8381101561036957808201518184015260208101905061034e565b50505050905090810190601f1680156103965780820380516001836020036101000a031916815260200191505b509250505060405180910390f35b6103d0600480360360208110156103ba57600080fd5b8101908080359060200190929190505050611100565b604051808273ffffffffffffffffffffffffffffffffffffffff1673ffffffffffffffffffffffffffffffffffffffff16815260200191505060405180910390f35b61045e6004803603604081101561042857600080fd5b81019080803573ffffffffffffffffffffffffffffffffffffffff1690602001909291908035906020019092919050505061119b565b005b6104b66004803603606081101561047657600080fd5b81019080803573ffffffffffffffffffffffffffffffffffffffff169060200190929190803590602001909291908035906020019092919050505061122c565b6040518082815260200191505060405180910390f35b6104d4611328565b6040518082815260200191505060405180910390f35b6105566004803603606081101561050057600080fd5b81019080803573ffffffffffffffffffffffffffffffffffffffff169060200190929190803573ffffffffffffffffffffffffffffffffffffffff16906020019092919080359060200190929190505050611335565b005b6105a46004803603604081101561056e57600080fd5b81019080803573ffffffffffffffffffffffffffffffffffffffff169060200190929190803590602001909291905050506113ab565b6040518082815260200191505060405180910390f35b6105c261146a565b005b610630600480360360608110156105da57600080fd5b81019080803573ffffffffffffffffffffffffffffffffffffffff169060200190929190803573ffffffffffffffffffffffffffffffffffffffff169060200190929190803590602001909291905050506115d8565b005b61065e6004803603602081101561064857600080fd5b81019080803590602001909291905050506115f8565b005b6106a26004803603602081101561067657600080fd5b81019080803573ffffffffffffffffffffffffffffffffffffffff16906020019092919050505061166a565b604051808215151515815260200191505060405180910390f35b6106e8600480360360208110156106d257600080fd5b8101908080359060200190929190505050611687565b6040518082815260200191505060405180910390f35b6107756004803603602081101561071457600080fd5b810190808035906020019064010000000081111561073157600080fd5b82018360208201111561074357600080fd5b8035906020019184600183028401116401000000008311171561076557600080fd5b9091929391929390505050611707565b005b61077f6117bd565b604051808215151515815260200191505060405180910390f35b6107db600480360360208110156107af57600080fd5b81019080803573ffffffffffffffffffffffffffffffffffffffff1690602001909291905050506117d4565b6040518080602001838152602001828103825284818151815260200191508051906020019060200280838360005b83811015610824578082015181840152602081019050610809565b50505050905001935050505060405180910390f35b6108656004803603602081101561084f57600080fd5b810190808035906020019092919050505061188b565b604051808273ffffffffffffffffffffffffffffffffffffffff1673ffffffffffffffffffffffffffffffffffffffff16815260200191505060405180910390f35b6108f1600480360360808110156108bd57600080fd5b8101908080359060200190929190803590602001909291908035906020019092919080359060200190929190505050611953565b6040518080602001828103825283818151815260200191508051906020019080838360005b83811015610931578082015181840152602081019050610916565b50505050905090810190601f16801561095e5780820380516001836020036101000a031916815260200191505b509250505060405180910390f35b610974611aee565b6040518080602001828103825283818151815260200191508051906020019080838360005b838110156109b4578082015181840152602081019050610999565b50505050905090810190601f1680156109e15780820380516001836020036101000a031916815260200191505b509250505060405180910390f35b6109f7611b90565b005b610a3b60048036036020811015610a0f57600080fd5b81019080803573ffffffffffffffffffffffffffffffffffffffff169060200190929190505050611ba2565b6040518082815260200191505060405180910390f35b610a9360048036036020811015610a6757600080fd5b81019080803573ffffffffffffffffffffffffffffffffffffffff169060200190929190505050611c77565b005b610a9d611ce8565b005b610aa7611e57565b6040518080602001828103825283818151815260200191508051906020019080838360005b83811015610ae7578082015181840152602081019050610acc565b50505050905090810190601f168015610b145780820380516001836020036101000a031916815260200191505b509250505060405180910390f35b610b6460048036036020811015610b3857600080fd5b81019080803573ffffffffffffffffffffffffffffffffffffffff169060200190929190505050611ef9565b005b610b6e611f6a565b005b610bbe60048036036040811015610b8657600080fd5b81019080803573ffffffffffffffffffffffffffffffffffffffff169060200190929190803515159060200190929190505050611f7c565b005b610c0260048036036020811015610bd657600080fd5b81019080803573ffffffffffffffffffffffffffffffffffffffff16906020019092919050505061200d565b604051808215151515815260200191505060405180910390f35b610d1f60048036036080811015610c3257600080fd5b81019080803573ffffffffffffffffffffffffffffffffffffffff169060200190929190803573ffffffffffffffffffffffffffffffffffffffff1690602001909291908035906020019092919080359060200190640100000000811115610c9957600080fd5b820183602082011115610cab57600080fd5b80359060200191846001830284011164010000000083111715610ccd57600080fd5b91908080601f016020809104026020016040519081016040528093929190818152602001838380828437600081840152601f19601f82011690508083019250505050505050919291929050505061202a565b005b610d296120a2565b005b610d5760048036036020811015610d4157600080fd5b8101908080359060200190929190505050612113565b6040518080602001828103825283818151815260200191508051906020019080838360005b83811015610d97578082015181840152602081019050610d7c565b50505050905090810190601f168015610dc45780820380516001836020036101000a031916815260200191505b509250505060405180910390f35b610dda612266565b6040518080602001828103825283818151815260200191508051906020019080838360005b83811015610e1a578082015181840152602081019050610dff565b50505050905090810190601f168015610e475780820380516001836020036101000a031916815260200191505b509250505060405180910390f35b610eb760048036036040811015610e6b57600080fd5b81019080803573ffffffffffffffffffffffffffffffffffffffff169060200190929190803573ffffffffffffffffffffffffffffffffffffffff16906020019092919050505061234f565b604051808215151515815260200191505060405180910390f35b610efd60048036036020811015610ee757600080fd5b81019080803590602001909291905050506123e3565b6040518085815260200184815260200183815260200182815260200194505050505060405180910390f35b6060610f326143fb565b6011600084815260200190815260200160002060405180608001604052908160008201548152602001600182015481526020016002820154815260200160038201548152505090506000816000015111610fd7576040517f08c379a000000000000000000000000000000000000000000000000000000000815260040180806020018281038252602c81526020018061470d602c913960400191505060405180910390fd5b610fef83826000015183602001518460600151611953565b915050919050565b6000806000837bffffffffffffffffffffffffffffffffffffffffffffffffffffffff19167bffffffffffffffffffffffffffffffffffffffffffffffffffffffff1916815260200190815260200160002060009054906101000a900460ff169050919050565b6060600b8054600181600116156101000203166002900480601f0160208091040260200160405190810160405280929190818152602001828054600181600116156101000203166002900480156110f65780601f106110cb576101008083540402835291602001916110f6565b820191906000526020600020905b8154815290600101906020018083116110d957829003601f168201915b5050505050905090565b600061110b82612413565b611160576040517f08c379a000000000000000000000000000000000000000000000000000000000815260040180806020018281038252602c815260200180614739602c913960400191505060405180910390fd5b6002600083815260200190815260200160002060009054906101000a900473ffffffffffffffffffffffffffffffffffffffff169050919050565b600a60009054906101000a900460ff161561121e576040517f08c379a00000000000000000000000000000000000000000000000000000000081526004018080602001828103825260108152602001807f5061757361626c653a207061757365640000000000000000000000000000000081525060200191505060405180910390fd5b6112288282612485565b5050565b600061123e61123961266c565b61200d565b611293576040517f08c379a00000000000000000000000000000000000000000000000000000000081526004018080602001828103825260308152602001806146bc6030913960400191505060405180910390fd5b600061129f600f612674565b90506112ab600f612682565b60405180608001604052808581526020016112c66010612674565b815260200142815260200184815250601160008381526020019081526020016000206000820151816000015560208201518160010155604082015181600201556060820151816003015590505061131d8582612698565b809150509392505050565b6000600780549050905090565b61134661134061266c565b826126b9565b61139b576040517f08c379a00000000000000000000000000000000000000000000000000000000081526004018080602001828103825260318152602001806147d16031913960400191505060405180910390fd5b6113a68383836127ad565b505050565b60006113b683611ba2565b821061140d576040517f08c379a000000000000000000000000000000000000000000000000000000000815260040180806020018281038252602b8152602001806144f5602b913960400191505060405180910390fd5b600560008473ffffffffffffffffffffffffffffffffffffffff1673ffffffffffffffffffffffffffffffffffffffff168152602001908152602001600020828154811061145757fe5b9060005260206000200154905092915050565b61147a61147561266c565b61166a565b6114cf576040517f08c379a00000000000000000000000000000000000000000000000000000000081526004018080602001828103825260308152602001806145526030913960400191505060405180910390fd5b600a60009054906101000a900460ff16611551576040517f08c379a00000000000000000000000000000000000000000000000000000000081526004018080602001828103825260148152602001807f5061757361626c653a206e6f742070617573656400000000000000000000000081525060200191505060405180910390fd5b6000600a60006101000a81548160ff0219169083151502179055507f5db9ee0a495bf2e6ff9c91a7834c1ba4fdd244a5e8aa4e537bd38aeae4b073aa61159561266c565b604051808273ffffffffffffffffffffffffffffffffffffffff1673ffffffffffffffffffffffffffffffffffffffff16815260200191505060405180910390a1565b6115f38383836040518060200160405280600081525061202a565b505050565b61160961160361266c565b826126b9565b61165e576040517f08c379a000000000000000000000000000000000000000000000000000000000815260040180806020018281038252602c815260200180614605602c913960400191505060405180910390fd5b61166781612840565b50565b600061168082600961285590919063ffffffff16565b9050919050565b6000611691611328565b82106116e8576040517f08c379a000000000000000000000000000000000000000000000000000000000815260040180806020018281038252602c815260200180614802602c913960400191505060405180910390fd5b600782815481106116f557fe5b90600052602060002001549050919050565b61171761171261266c565b61200d565b61176c576040517f08c379a00000000000000000000000000000000000000000000000000000000081526004018080602001828103825260308152602001806146bc6030913960400191505060405180910390fd5b6117b982828080601f016020809104026020016040519081016040528093929190818152602001838380828437600081840152601f19601f82011690508083019250505050505050612933565b5050565b6000600a60009054906101000a900460ff16905090565b60606000806000905060006117e885611ba2565b905060608160405190808252806020026020018201604052801561181b5781602001602082028038833980820191505090505b50905060008090505b8281101561187c57600061183888836113ab565b90508083838151811061184757fe5b602002602001018181525050601160008281526020019081526020016000206000015485019450508080600101915050611824565b50808394509450505050915091565b6000806001600084815260200190815260200160002060009054906101000a900473ffffffffffffffffffffffffffffffffffffffff169050600073ffffffffffffffffffffffffffffffffffffffff168173ffffffffffffffffffffffffffffffffffffffff16141561194a576040517f08c379a00000000000000000000000000000000000000000000000000000000081526004018080602001828103825260298152602001806146936029913960400191505060405180910390fd5b80915050919050565b60608061195f8661294d565b9050606061197a6012600488612a7d9092919063ffffffff16565b905060606119878661294d565b905060606119948661294d565b9050611ae084611ad26040518060400160405280600181526020017f5f00000000000000000000000000000000000000000000000000000000000000815250611ac485611ab66040518060400160405280600581526020017f5f4c4f434b000000000000000000000000000000000000000000000000000000815250611aa88a611a9a6040518060400160405280600281526020017f5f47000000000000000000000000000000000000000000000000000000000000815250611a8c8f6040518060400160405280600381526020017f4554480000000000000000000000000000000000000000000000000000000000815250612db0565b612db090919063ffffffff16565b612db090919063ffffffff16565b612db090919063ffffffff16565b612db090919063ffffffff16565b612db090919063ffffffff16565b612db090919063ffffffff16565b945050505050949350505050565b6060600d8054600181600116156101000203166002900480601f016020809104026020016040519081016040528092919081815260200182805460018160011615610100020316600290048015611b865780601f10611b5b57610100808354040283529160200191611b86565b820191906000526020600020905b815481529060010190602001808311611b6957829003601f168201915b5050505050905090565b611ba0611b9b61266c565b612e78565b565b60008073ffffffffffffffffffffffffffffffffffffffff168273ffffffffffffffffffffffffffffffffffffffff161415611c29576040517f08c379a000000000000000000000000000000000000000000000000000000000815260040180806020018281038252602a815260200180614669602a913960400191505060405180910390fd5b611c70600360008473ffffffffffffffffffffffffffffffffffffffff1673ffffffffffffffffffffffffffffffffffffffff168152602001908152602001600020612674565b9050919050565b611c87611c8261266c565b61166a565b611cdc576040517f08c379a00000000000000000000000000000000000000000000000000000000081526004018080602001828103825260308152602001806145526030913960400191505060405180910390fd5b611ce581612ed2565b50565b611cf8611cf361266c565b61166a565b611d4d576040517f08c379a00000000000000000000000000000000000000000000000000000000081526004018080602001828103825260308152602001806145526030913960400191505060405180910390fd5b600a60009054906101000a900460ff1615611dd0576040517f08c379a00000000000000000000000000000000000000000000000000000000081526004018080602001828103825260108152602001807f5061757361626c653a207061757365640000000000000000000000000000000081525060200191505060405180910390fd5b6001600a60006101000a81548160ff0219169083151502179055507f62e78cea01bee320cd4e420270b5ea74000d11b0c9f74754ebdbfc544b05a258611e1461266c565b604051808273ffffffffffffffffffffffffffffffffffffffff1673ffffffffffffffffffffffffffffffffffffffff16815260200191505060405180910390a1565b6060600c8054600181600116156101000203166002900480601f016020809104026020016040519081016040528092919081815260200182805460018160011615610100020316600290048015611eef5780601f10611ec457610100808354040283529160200191611eef565b820191906000526020600020905b815481529060010190602001808311611ed257829003601f168201915b5050505050905090565b611f09611f0461266c565b61200d565b611f5e576040517f08c379a00000000000000000000000000000000000000000000000000000000081526004018080602001828103825260308152602001806146bc6030913960400191505060405180910390fd5b611f6781612f2c565b50565b611f7a611f7561266c565b612f86565b565b600a60009054906101000a900460ff1615611fff576040517f08c379a00000000000000000000000000000000000000000000000000000000081526004018080602001828103825260108152602001807f5061757361626c653a207061757365640000000000000000000000000000000081525060200191505060405180910390fd5b6120098282612fe0565b5050565b600061202382600e61285590919063ffffffff16565b9050919050565b61203b61203561266c565b836126b9565b612090576040517f08c379a00000000000000000000000000000000000000000000000000000000081526004018080602001828103825260318152602001806147d16031913960400191505060405180910390fd5b61209c84848484613198565b50505050565b6120b26120ad61266c565b61200d565b612107576040517f08c379a00000000000000000000000000000000000000000000000000000000081526004018080602001828103825260308152602001806146bc6030913960400191505060405180910390fd5b6121116010612682565b565b606061211e82612413565b612173576040517f08c379a00000000000000000000000000000000000000000000000000000000081526004018080602001828103825260338152602001806145d26033913960400191505060405180910390fd5b61225f61217f8361294d565b6040518060400160405280600581526020017f2e6a736f6e000000000000000000000000000000000000000000000000000000815250600d8054600181600116156101000203166002900480601f01602080910402602001604051908101604052809291908181526020018280546001816001161561010002031660029004801561224b5780601f106122205761010080835404028352916020019161224b565b820191906000526020600020905b81548152906001019060200180831161222e57829003601f168201915b505050505061320a9092919063ffffffff16565b9050919050565b606061234a6040518060400160405280600d81526020017f636f6e74726163742e6a736f6e00000000000000000000000000000000000000815250600d8054600181600116156101000203166002900480601f0160208091040260200160405190810160405280929190818152602001828054600181600116156101000203166002900480156123375780601f1061230c57610100808354040283529160200191612337565b820191906000526020600020905b81548152906001019060200180831161231a57829003601f168201915b5050505050612db090919063ffffffff16565b905090565b6000600460008473ffffffffffffffffffffffffffffffffffffffff1673ffffffffffffffffffffffffffffffffffffffff16815260200190815260200160002060008373ffffffffffffffffffffffffffffffffffffffff1673ffffffffffffffffffffffffffffffffffffffff16815260200190815260200160002060009054906101000a900460ff16905092915050565b60116020528060005260406000206000915090508060000154908060010154908060020154908060030154905084565b6000806001600084815260200190815260200160002060009054906101000a900473ffffffffffffffffffffffffffffffffffffffff169050600073ffffffffffffffffffffffffffffffffffffffff168173ffffffffffffffffffffffffffffffffffffffff161415915050919050565b60006124908261188b565b90508073ffffffffffffffffffffffffffffffffffffffff168373ffffffffffffffffffffffffffffffffffffffff161415612517576040517f08c379a00000000000000000000000000000000000000000000000000000000081526004018080602001828103825260218152602001806147b06021913960400191505060405180910390fd5b8073ffffffffffffffffffffffffffffffffffffffff1661253661266c565b73ffffffffffffffffffffffffffffffffffffffff16148061256557506125648161255f61266c565b61234f565b5b6125ba576040517f08c379a00000000000000000000000000000000000000000000000000000000081526004018080602001828103825260388152602001806146316038913960400191505060405180910390fd5b826002600084815260200190815260200160002060006101000a81548173ffffffffffffffffffffffffffffffffffffffff021916908373ffffffffffffffffffffffffffffffffffffffff160217905550818373ffffffffffffffffffffffffffffffffffffffff168273ffffffffffffffffffffffffffffffffffffffff167f8c5be1e5ebec7d5bd14f71427d1e84f3dd0314c0f7b2291e5b200ac8c7c3b92560405160405180910390a4505050565b600033905090565b600081600001549050919050565b6001816000016000828254019250508190555050565b6126a28282613326565b6126ac828261353e565b6126b581613605565b5050565b60006126c482612413565b612719576040517f08c379a000000000000000000000000000000000000000000000000000000000815260040180806020018281038252602c8152602001806145a6602c913960400191505060405180910390fd5b60006127248361188b565b90508073ffffffffffffffffffffffffffffffffffffffff168473ffffffffffffffffffffffffffffffffffffffff16148061279357508373ffffffffffffffffffffffffffffffffffffffff1661277b84611100565b73ffffffffffffffffffffffffffffffffffffffff16145b806127a457506127a3818561234f565b5b91505092915050565b600a60009054906101000a900460ff1615612830576040517f08c379a00000000000000000000000000000000000000000000000000000000081526004018080602001828103825260108152602001807f5061757361626c653a207061757365640000000000000000000000000000000081525060200191505060405180910390fd5b61283b838383613651565b505050565b61285261284c8261188b565b82613675565b50565b60008073ffffffffffffffffffffffffffffffffffffffff168273ffffffffffffffffffffffffffffffffffffffff1614156128dc576040517f08c379a00000000000000000000000000000000000000000000000000000000081526004018080602001828103825260228152602001806147656022913960400191505060405180910390fd5b8260000160008373ffffffffffffffffffffffffffffffffffffffff1673ffffffffffffffffffffffffffffffffffffffff16815260200190815260200160002060009054906101000a900460ff16905092915050565b80600d9080519060200190612949929190614423565b5050565b60606000821415612995576040518060400160405280600181526020017f30000000000000000000000000000000000000000000000000000000000000008152509050612a78565b600082905060005b600082146129bf578080600101915050600a82816129b757fe5b04915061299d565b6060816040519080825280601f01601f1916602001820160405280156129f45781602001600182028038833980820191505090505b50905060006001830390508593505b60008414612a7057600a8481612a1557fe5b0660300160f81b82828060019003935081518110612a2f57fe5b60200101907effffffffffffffffffffffffffffffffffffffffffffffffffffffffffffff1916908160001a905350600a8481612a6857fe5b049350612a03565b819450505050505b919050565b606082821115612af5576040517f08c379a00000000000000000000000000000000000000000000000000000000081526004018080602001828103825260208152602001807f537472696e675574696c733a20696e636f727265637420707265636973696f6e81525060200191505060405180910390fd5b6000841415612b3b576040518060400160405280600181526020017f30000000000000000000000000000000000000000000000000000000000000008152509050612da9565b600084905060005b60008214612b65578080600101915050600a8281612b5d57fe5b049150612b43565b848111612b7757600285019050612b7e565b6001810190505b6000848603905060008183039050600060018783030390506060826040519080825280601f01601f191660200182016040528015612bcb5781602001600182028038833980820191505090505b509050600083905084600a0a8b81612bdf57fe5b0496505b60008714612cc05780806001900391505082811415612c62577f2e00000000000000000000000000000000000000000000000000000000000000828281518110612c2957fe5b60200101907effffffffffffffffffffffffffffffffffffffffffffffffffffffffffffff1916908160001a9053508080600190039150505b600a8781612c6c57fe5b0660300160f81b828281518110612c7f57fe5b60200101907effffffffffffffffffffffffffffffffffffffffffffffffffffffffffffff1916908160001a905350600a8781612cb857fe5b049650612be3565b5b6000811115612d9e5780806001900391505082811415612d3c577f2e00000000000000000000000000000000000000000000000000000000000000828281518110612d0857fe5b60200101907effffffffffffffffffffffffffffffffffffffffffffffffffffffffffffff1916908160001a905350612d99565b7f3000000000000000000000000000000000000000000000000000000000000000828281518110612d6957fe5b60200101907effffffffffffffffffffffffffffffffffffffffffffffffffffffffffffff1916908160001a9053505b612cc1565b819750505050505050505b9392505050565b606082826040516020018083805190602001908083835b60208310612dea5780518252602082019150602081019050602083039250612dc7565b6001836020036101000a03801982511681845116808217855250505050505090500182805190602001908083835b60208310612e3b5780518252602082019150602081019050602083039250612e18565b6001836020036101000a03801982511681845116808217855250505050505090500192505050604051602081830303815290604052905092915050565b612e8c8160096136af90919063ffffffff16565b8073ffffffffffffffffffffffffffffffffffffffff167fcd265ebaf09df2871cc7bd4133404a235ba12eff2041bb89d9c714a2621c7c7e60405160405180910390a250565b612ee681600961376c90919063ffffffff16565b8073ffffffffffffffffffffffffffffffffffffffff167f6719d08c1888103bea251a4ed56406bd0c3e69723c8a1686e017e7bbe159b6f860405160405180910390a250565b612f4081600e61376c90919063ffffffff16565b8073ffffffffffffffffffffffffffffffffffffffff167f6ae172837ea30b801fbfcdd4108aa1d5bf8ff775444fd70256b44e6bf3dfc3f660405160405180910390a250565b612f9a81600e6136af90919063ffffffff16565b8073ffffffffffffffffffffffffffffffffffffffff167fe94479a9f7e1952cc78f2d6baab678adc1b772d936c6583def489e524cb6669260405160405180910390a250565b612fe861266c565b73ffffffffffffffffffffffffffffffffffffffff168273ffffffffffffffffffffffffffffffffffffffff161415613089576040517f08c379a00000000000000000000000000000000000000000000000000000000081526004018080602001828103825260198152602001807f4552433732313a20617070726f766520746f2063616c6c65720000000000000081525060200191505060405180910390fd5b806004600061309661266c565b73ffffffffffffffffffffffffffffffffffffffff1673ffffffffffffffffffffffffffffffffffffffff16815260200190815260200160002060008473ffffffffffffffffffffffffffffffffffffffff1673ffffffffffffffffffffffffffffffffffffffff16815260200190815260200160002060006101000a81548160ff0219169083151502179055508173ffffffffffffffffffffffffffffffffffffffff1661314361266c565b73ffffffffffffffffffffffffffffffffffffffff167f17307eab39ab6107e8899845ad3d59bd9653f200f220920489ca2b5937696c3183604051808215151515815260200191505060405180910390a35050565b6131a38484846127ad565b6131af84848484613847565b613204576040517f08c379a00000000000000000000000000000000000000000000000000000000081526004018080602001828103825260328152602001806145206032913960400191505060405180910390fd5b50505050565b60608383836040516020018084805190602001908083835b602083106132455780518252602082019150602081019050602083039250613222565b6001836020036101000a03801982511681845116808217855250505050505090500183805190602001908083835b602083106132965780518252602082019150602081019050602083039250613273565b6001836020036101000a03801982511681845116808217855250505050505090500182805190602001908083835b602083106132e757805182526020820191506020810190506020830392506132c4565b6001836020036101000a038019825116818451168082178552505050505050905001935050505060405160208183030381529060405290509392505050565b600073ffffffffffffffffffffffffffffffffffffffff168273ffffffffffffffffffffffffffffffffffffffff1614156133c9576040517f08c379a00000000000000000000000000000000000000000000000000000000081526004018080602001828103825260208152602001807f4552433732313a206d696e7420746f20746865207a65726f206164647265737381525060200191505060405180910390fd5b6133d281612413565b15613445576040517f08c379a000000000000000000000000000000000000000000000000000000000815260040180806020018281038252601c8152602001807f4552433732313a20746f6b656e20616c7265616479206d696e7465640000000081525060200191505060405180910390fd5b816001600083815260200190815260200160002060006101000a81548173ffffffffffffffffffffffffffffffffffffffff021916908373ffffffffffffffffffffffffffffffffffffffff1602179055506134de600360008473ffffffffffffffffffffffffffffffffffffffff1673ffffffffffffffffffffffffffffffffffffffff168152602001908152602001600020612682565b808273ffffffffffffffffffffffffffffffffffffffff16600073ffffffffffffffffffffffffffffffffffffffff167fddf252ad1be2c89b69c2b068fc378daa952ba7f163c4a11628f55a4df523b3ef60405160405180910390a45050565b600560008373ffffffffffffffffffffffffffffffffffffffff1673ffffffffffffffffffffffffffffffffffffffff168152602001908152602001600020805490506006600083815260200190815260200160002081905550600560008373ffffffffffffffffffffffffffffffffffffffff1673ffffffffffffffffffffffffffffffffffffffff1681526020019081526020016000208190806001815401808255809150509060018203906000526020600020016000909192909190915055505050565b6007805490506008600083815260200190815260200160002081905550600781908060018154018082558091505090600182039060005260206000200160009091929091909150555050565b61365c838383613b83565b6136668382613dde565b613670828261353e565b505050565b61367f8282613f7c565b6136898282613dde565b600060066000838152602001908152602001600020819055506136ab8161410b565b5050565b6136b98282612855565b61370e576040517f08c379a00000000000000000000000000000000000000000000000000000000081526004018080602001828103825260218152602001806146ec6021913960400191505060405180910390fd5b60008260000160008373ffffffffffffffffffffffffffffffffffffffff1673ffffffffffffffffffffffffffffffffffffffff16815260200190815260200160002060006101000a81548160ff0219169083151502179055505050565b6137768282612855565b156137e9576040517f08c379a000000000000000000000000000000000000000000000000000000000815260040180806020018281038252601f8152602001807f526f6c65733a206163636f756e7420616c72656164792068617320726f6c650081525060200191505060405180910390fd5b60018260000160008373ffffffffffffffffffffffffffffffffffffffff1673ffffffffffffffffffffffffffffffffffffffff16815260200190815260200160002060006101000a81548160ff0219169083151502179055505050565b60006138688473ffffffffffffffffffffffffffffffffffffffff166141c5565b6138755760019050613b7b565b600060608573ffffffffffffffffffffffffffffffffffffffff168673ffffffffffffffffffffffffffffffffffffffff1663150b7a02905060e01b6138b961266c565b898888604051602401808573ffffffffffffffffffffffffffffffffffffffff1673ffffffffffffffffffffffffffffffffffffffff1681526020018473ffffffffffffffffffffffffffffffffffffffff1673ffffffffffffffffffffffffffffffffffffffff16815260200183815260200180602001828103825283818151815260200191508051906020019080838360005b8381101561396957808201518184015260208101905061394e565b50505050905090810190601f1680156139965780820380516001836020036101000a031916815260200191505b5095505050505050604051602081830303815290604052907bffffffffffffffffffffffffffffffffffffffffffffffffffffffff19166020820180517bffffffffffffffffffffffffffffffffffffffffffffffffffffffff83818316178352505050506040518082805190602001908083835b60208310613a2e5780518252602082019150602081019050602083039250613a0b565b6001836020036101000a0380198251168184511680821785525050505050509050019150506000604051808303816000865af19150503d8060008114613a90576040519150601f19603f3d011682016040523d82523d6000602084013e613a95565b606091505b509150915081613b0357600081511115613ab25780518082602001fd5b6040517f08c379a00000000000000000000000000000000000000000000000000000000081526004018080602001828103825260328152602001806145206032913960400191505060405180910390fd5b6000818060200190516020811015613b1a57600080fd5b8101908080519060200190929190505050905063150b7a0260e01b7bffffffffffffffffffffffffffffffffffffffffffffffffffffffff1916817bffffffffffffffffffffffffffffffffffffffffffffffffffffffff19161493505050505b949350505050565b8273ffffffffffffffffffffffffffffffffffffffff16613ba38261188b565b73ffffffffffffffffffffffffffffffffffffffff1614613c0f576040517f08c379a00000000000000000000000000000000000000000000000000000000081526004018080602001828103825260298152602001806147876029913960400191505060405180910390fd5b600073ffffffffffffffffffffffffffffffffffffffff168273ffffffffffffffffffffffffffffffffffffffff161415613c95576040517f08c379a00000000000000000000000000000000000000000000000000000000081526004018080602001828103825260248152602001806145826024913960400191505060405180910390fd5b613c9e81614210565b613ce5600360008573ffffffffffffffffffffffffffffffffffffffff1673ffffffffffffffffffffffffffffffffffffffff1681526020019081526020016000206142ce565b613d2c600360008473ffffffffffffffffffffffffffffffffffffffff1673ffffffffffffffffffffffffffffffffffffffff168152602001908152602001600020612682565b816001600083815260200190815260200160002060006101000a81548173ffffffffffffffffffffffffffffffffffffffff021916908373ffffffffffffffffffffffffffffffffffffffff160217905550808273ffffffffffffffffffffffffffffffffffffffff168473ffffffffffffffffffffffffffffffffffffffff167fddf252ad1be2c89b69c2b068fc378daa952ba7f163c4a11628f55a4df523b3ef60405160405180910390a4505050565b6000613e366001600560008673ffffffffffffffffffffffffffffffffffffffff1673ffffffffffffffffffffffffffffffffffffffff168152602001908152602001600020805490506142f190919063ffffffff16565b9050600060066000848152602001908152602001600020549050818114613f23576000600560008673ffffffffffffffffffffffffffffffffffffffff1673ffffffffffffffffffffffffffffffffffffffff1681526020019081526020016000208381548110613ea357fe5b9060005260206000200154905080600560008773ffffffffffffffffffffffffffffffffffffffff1673ffffffffffffffffffffffffffffffffffffffff1681526020019081526020016000208381548110613efb57fe5b9060005260206000200181905550816006600083815260200190815260200160002081905550505b600560008573ffffffffffffffffffffffffffffffffffffffff1673ffffffffffffffffffffffffffffffffffffffff168152602001908152602001600020805480919060019003613f7591906144a3565b5050505050565b8173ffffffffffffffffffffffffffffffffffffffff16613f9c8261188b565b73ffffffffffffffffffffffffffffffffffffffff1614614008576040517f08c379a000000000000000000000000000000000000000000000000000000000815260040180806020018281038252602581526020018061482e6025913960400191505060405180910390fd5b61401181614210565b614058600360008473ffffffffffffffffffffffffffffffffffffffff1673ffffffffffffffffffffffffffffffffffffffff1681526020019081526020016000206142ce565b60006001600083815260200190815260200160002060006101000a81548173ffffffffffffffffffffffffffffffffffffffff021916908373ffffffffffffffffffffffffffffffffffffffff16021790555080600073ffffffffffffffffffffffffffffffffffffffff168373ffffffffffffffffffffffffffffffffffffffff167fddf252ad1be2c89b69c2b068fc378daa952ba7f163c4a11628f55a4df523b3ef60405160405180910390a45050565b600061412660016007805490506142f190919063ffffffff16565b905060006008600084815260200190815260200160002054905060006007838154811061414f57fe5b90600052602060002001549050806007838154811061416a57fe5b906000526020600020018190555081600860008381526020019081526020016000208190555060078054809190600190036141a591906144a3565b506000600860008681526020019081526020016000208190555050505050565b60008060007fc5d2460186f7233c927e7db2dcc703c0e500b653ca82273b7bfad8045d85a47060001b9050833f915080821415801561420757506000801b8214155b92505050919050565b600073ffffffffffffffffffffffffffffffffffffffff166002600083815260200190815260200160002060009054906101000a900473ffffffffffffffffffffffffffffffffffffffff1673ffffffffffffffffffffffffffffffffffffffff16146142cb5760006002600083815260200190815260200160002060006101000a81548173ffffffffffffffffffffffffffffffffffffffff021916908373ffffffffffffffffffffffffffffffffffffffff1602179055505b50565b6142e6600182600001546142f190919063ffffffff16565b816000018190555050565b600061433383836040518060400160405280601e81526020017f536166654d6174683a207375627472616374696f6e206f766572666c6f77000081525061433b565b905092915050565b60008383111582906143e8576040517f08c379a00000000000000000000000000000000000000000000000000000000081526004018080602001828103825283818151815260200191508051906020019080838360005b838110156143ad578082015181840152602081019050614392565b50505050905090810190601f1680156143da5780820380516001836020036101000a031916815260200191505b509250505060405180910390fd5b5060008385039050809150509392505050565b6040518060800160405280600081526020016000815260200160008152602001600081525090565b828054600181600116156101000203166002900490600052602060002090601f016020900481019282601f1061446457805160ff1916838001178555614492565b82800160010185558215614492579182015b82811115614491578251825591602001919060010190614476565b5b50905061449f91906144cf565b5090565b8154818355818111156144ca578183600052602060002091820191016144c991906144cf565b5b505050565b6144f191905b808211156144ed5760008160009055506001016144d5565b5090565b9056fe455243373231456e756d657261626c653a206f776e657220696e646578206f7574206f6620626f756e64734552433732313a207472616e7366657220746f206e6f6e20455243373231526563656976657220696d706c656d656e746572506175736572526f6c653a2063616c6c657220646f6573206e6f742068617665207468652050617573657220726f6c654552433732313a207472616e7366657220746f20746865207a65726f20616464726573734552433732313a206f70657261746f7220717565727920666f72206e6f6e6578697374656e7420746f6b656e4574686965546f6b656e4d657461646174613a2055524920717565727920666f72206e6f6e6578697374656e7420746f6b656e4574686965546f6b656e3a2063616c6c6572206973206e6f74206f776e6572206e6f7220617070726f7665644552433732313a20617070726f76652063616c6c6572206973206e6f74206f776e6572206e6f7220617070726f76656420666f7220616c6c4552433732313a2062616c616e636520717565727920666f7220746865207a65726f20616464726573734552433732313a206f776e657220717565727920666f72206e6f6e6578697374656e7420746f6b656e4d696e746572526f6c653a2063616c6c657220646f6573206e6f74206861766520746865204d696e74657220726f6c65526f6c65733a206163636f756e7420646f6573206e6f74206861766520726f6c654574686965546f6b656e3a206e616d6520717565727920666f72206e6f6e6578697374656e7420746f6b656e4552433732313a20617070726f76656420717565727920666f72206e6f6e6578697374656e7420746f6b656e526f6c65733a206163636f756e7420697320746865207a65726f20616464726573734552433732313a207472616e73666572206f6620746f6b656e2074686174206973206e6f74206f776e4552433732313a20617070726f76616c20746f2063757272656e74206f776e65724552433732313a207472616e736665722063616c6c6572206973206e6f74206f776e6572206e6f7220617070726f766564455243373231456e756d657261626c653a20676c6f62616c20696e646578206f7574206f6620626f756e64734552433732313a206275726e206f6620746f6b656e2074686174206973206e6f74206f776ea265627a7a72315820a84d8484b1af7642aa890059266175015f5654421c1392dd59317f38c79c9a4064736f6c6343000511003268747470733a2f2f65746869652e6b697474696566696768742e696f2f6d657461646174612f526f6c65733a206163636f756e7420697320746865207a65726f2061646472657373",
  "source": "pragma solidity ^0.5.5;\n\nimport \"../libs/openzeppelin_v2_5_0/token/ERC721/ERC721.sol\";\nimport \"../libs/openzeppelin_v2_5_0/token/ERC721/ERC721Enumerable.sol\";\nimport \"../libs/openzeppelin_v2_5_0/token/ERC721/ERC721Pausable.sol\";\nimport \"../libs/openzeppelin_v2_5_0/access/roles/MinterRole.sol\";\nimport \"../libs/openzeppelin_v2_5_0/math/SafeMath.sol\";\nimport \"../libs/openzeppelin_v2_5_0/drafts/Counters.sol\";\nimport \"../libs/StringUtils.sol\";\nimport \"./EthieTokenMetadata.sol\";\n\ncontract EthieToken is ERC721, ERC721Enumerable, ERC721Pausable, EthieTokenMetadata, MinterRole {\n    using SafeMath for uint256;\n    using Counters for Counters.Counter;\n    using StringUtils for string;\n    using StringUtils for uint256;\n\n    string constant NAME     = \"Kittiefight Ethie\";\n    string constant SYMBOL   = \"Ethie\";\n    string constant BASE_URI = \"https://ethie.kittiefight.io/metadata/\";\n\n    struct TokenProperties {\n        uint256 ethAmount;\n        uint256 generation;\n        uint256 creationTime;\n        uint256 lockPeriod;\n    }\n\n    Counters.Counter nextTokenId;       // Provides unique identifier for Ethie token. 0 value is invalid\n    Counters.Counter generation; // Stores current genereation of Ethie tokens\n\n    mapping (uint256 => TokenProperties) public properties;\n\n    constructor() EthieTokenMetadata(NAME, SYMBOL) public {\n        _setBaseURI(BASE_URI);\n        nextTokenId.increment();    // First token should have tokenId = 1;\n    }\n\n    /**\n     * @notice Mint a new Ethie token\n     * @param to Owner of a new token\n     * @param ethAmount Ether value of the new token\n     * @param lockPeriod Lock time\n     * @return id of the new token\n     */\n    function mint(address to, uint256 ethAmount, uint256 lockPeriod) public onlyMinter returns (uint256) {\n        uint256 tokenId = nextTokenId.current();\n        nextTokenId.increment();\n        properties[tokenId] = TokenProperties({\n            ethAmount: ethAmount,\n            generation: generation.current(),\n            creationTime: now,\n            lockPeriod: lockPeriod\n        });\n        _mint(to, tokenId);\n        return tokenId;\n    }\n\n    function burn(uint256 tokenId) public {\n        require(_isApprovedOrOwner(_msgSender(), tokenId), \"EthieToken: caller is not owner nor approved\");\n        //TODO return ETH\n        _burn(tokenId);\n    }\n\n    function incrementGeneration() public onlyMinter {\n        generation.increment();\n    }\n\n    function setBaseURI(string calldata baseURI) external onlyMinter {\n        _setBaseURI(baseURI);\n    }\n\n    function name(uint256 tokenId) public view returns(string memory) {\n        TokenProperties memory p = properties[tokenId];\n        require(p.ethAmount > 0, \"EthieToken: name query for nonexistent token\");\n        return generateName(tokenId, p.ethAmount, p.generation, p.lockPeriod);\n    }\n\n    function allTokenOf(address holder) public view returns(uint256[] memory, uint256) {\n        uint256 ethBalance = 0;\n        uint256 balance = balanceOf(holder);\n        uint256[] memory tokens = new uint256[](balance);\n        for(uint256 i = 0; i < balance; i++){\n            uint256 idx = tokenOfOwnerByIndex(holder, i);\n            tokens[i] = idx;\n            ethBalance += properties[idx].ethAmount;\n        }\n        return (tokens, ethBalance);\n    }\n\n\n    function generateName(uint256 tokenId, uint256 ethAmount, uint256 tokenGeneration, uint256 lockPeriod) public pure returns(string memory) {\n        string memory id  = tokenId.fromUint256();\n        string memory eth = ethAmount.fromUint256(18, 4);\n        string memory gen = tokenGeneration.fromUint256();\n        string memory lock = lockPeriod.fromUint256();\n        return StringUtils.concat(eth,\"ETH\").concat(\"_G\").concat(gen).concat(\"_LOCK\").concat(lock).concat(\"_\").concat(id);\n    }\n\n}\n",
  "sourcePath": "/Users/ziweizhang/Desktop/kittiefight-rinkeby4/contracts/contracts/ethie/EthieToken.sol",
  "compiler": {
    "name": "solc",
    "version": "0.5.17+commit.d19bba13.Emscripten.clang"
  },
  "schemaVersion": "3.0.23",
  "updatedAt": "2020-06-15T21:07:54.266Z",
  "networkType": "ethereum",
  "devdoc": {
    "methods": {
      "balanceOf(address)": {
        "details": "Gets the balance of the specified address.",
        "params": {
          "owner": "address to query the balance of"
        },
        "return": "uint256 representing the amount owned by the passed address"
      },
      "baseURI()": {
        "details": "Returns the base URI set via {_setBaseURI}. This will be automatically added as a preffix in {tokenURI} to each token's URI, when they are non-empty.    * _Available since v2.5.0._"
      },
      "getApproved(uint256)": {
        "details": "Gets the approved address for a token ID, or zero if no address set Reverts if the token ID does not exist.",
        "params": {
          "tokenId": "uint256 ID of the token to query the approval of"
        },
        "return": "address currently approved for the given token ID"
      },
      "isApprovedForAll(address,address)": {
        "details": "Tells whether an operator is approved by a given owner.",
        "params": {
          "operator": "operator address which you want to query the approval of",
          "owner": "owner address which you want to query the approval of"
        },
        "return": "bool whether the given operator is approved by the given owner"
      },
      "mint(address,uint256,uint256)": {
        "params": {
          "ethAmount": "Ether value of the new token",
          "lockPeriod": "Lock time",
          "to": "Owner of a new token"
        },
        "return": "id of the new token"
      },
      "name()": {
        "details": "Gets the token name.",
        "return": "string representing the token name"
      },
      "ownerOf(uint256)": {
        "details": "Gets the owner of the specified token ID.",
        "params": {
          "tokenId": "uint256 ID of the token to query the owner of"
        },
        "return": "address currently marked as the owner of the given token ID"
      },
      "pause()": {
        "details": "Called by a pauser to pause, triggers stopped state."
      },
      "paused()": {
        "details": "Returns true if the contract is paused, and false otherwise."
      },
      "safeTransferFrom(address,address,uint256)": {
        "details": "Safely transfers the ownership of a given token ID to another address If the target address is a contract, it must implement {IERC721Receiver-onERC721Received}, which is called upon a safe transfer, and return the magic value `bytes4(keccak256(\"onERC721Received(address,address,uint256,bytes)\"))`; otherwise, the transfer is reverted. Requires the msg.sender to be the owner, approved, or operator",
        "params": {
          "from": "current owner of the token",
          "to": "address to receive the ownership of the given token ID",
          "tokenId": "uint256 ID of the token to be transferred"
        }
      },
      "safeTransferFrom(address,address,uint256,bytes)": {
        "details": "Safely transfers the ownership of a given token ID to another address If the target address is a contract, it must implement {IERC721Receiver-onERC721Received}, which is called upon a safe transfer, and return the magic value `bytes4(keccak256(\"onERC721Received(address,address,uint256,bytes)\"))`; otherwise, the transfer is reverted. Requires the _msgSender() to be the owner, approved, or operator",
        "params": {
          "_data": "bytes data to send along with a safe transfer check",
          "from": "current owner of the token",
          "to": "address to receive the ownership of the given token ID",
          "tokenId": "uint256 ID of the token to be transferred"
        }
      },
      "supportsInterface(bytes4)": {
        "details": "See {IERC165-supportsInterface}.     * Time complexity O(1), guaranteed to always use less than 30 000 gas."
      },
      "symbol()": {
        "details": "Gets the token symbol.",
        "return": "string representing the token symbol"
      },
      "tokenByIndex(uint256)": {
        "details": "Gets the token ID at a given index of all the tokens in this contract Reverts if the index is greater or equal to the total number of tokens.",
        "params": {
          "index": "uint256 representing the index to be accessed of the tokens list"
        },
        "return": "uint256 token ID at the given index of the tokens list"
      },
      "tokenOfOwnerByIndex(address,uint256)": {
        "details": "Gets the token ID at a given index of the tokens list of the requested owner.",
        "params": {
          "index": "uint256 representing the index to be accessed of the requested tokens list",
          "owner": "address owning the tokens list to be accessed"
        },
        "return": "uint256 token ID at the given index of the tokens list owned by the requested address"
      },
      "tokenURI(uint256)": {
        "details": "Returns the URI for a given token ID. May return an empty string.     * Reverts if the token ID does not exist."
      },
      "totalSupply()": {
        "details": "Gets the total amount of tokens stored by the contract.",
        "return": "uint256 representing the total amount of tokens"
      },
      "transferFrom(address,address,uint256)": {
        "details": "Transfers the ownership of a given token ID to another address. Usage of this method is discouraged, use {safeTransferFrom} whenever possible. Requires the msg.sender to be the owner, approved, or operator.",
        "params": {
          "from": "current owner of the token",
          "to": "address to receive the ownership of the given token ID",
          "tokenId": "uint256 ID of the token to be transferred"
        }
      },
      "unpause()": {
        "details": "Called by a pauser to unpause, returns to normal state."
      }
    }
  },
  "userdoc": {
    "methods": {
      "mint(address,uint256,uint256)": {
        "notice": "Mint a new Ethie token"
      }
    }
  }
}