{
  "contractName": "FancyKitties",
  "abi": [
    {
      "constant": true,
      "inputs": [],
      "name": "owner",
      "outputs": [
        {
          "name": "",
          "type": "address"
        }
      ],
      "payable": false,
      "stateMutability": "view",
      "type": "function"
    },
    {
      "constant": false,
      "inputs": [
        {
          "name": "_proxy",
          "type": "address"
        }
      ],
      "name": "setProxy",
      "outputs": [],
      "payable": false,
      "stateMutability": "nonpayable",
      "type": "function"
    },
    {
      "constant": true,
      "inputs": [],
      "name": "proxy",
      "outputs": [
        {
          "name": "",
          "type": "address"
        }
      ],
      "payable": false,
      "stateMutability": "view",
      "type": "function"
    },
    {
      "constant": false,
      "inputs": [
        {
          "name": "newOwner",
          "type": "address"
        }
      ],
      "name": "transferOwnership",
      "outputs": [],
      "payable": false,
      "stateMutability": "nonpayable",
      "type": "function"
    },
    {
      "constant": false,
      "inputs": [
        {
          "name": "_kittieId",
          "type": "uint256"
        },
        {
          "name": "_name",
          "type": "string"
        }
      ],
      "name": "updateFancyKittiesList",
      "outputs": [],
      "payable": false,
      "stateMutability": "nonpayable",
      "type": "function"
    }
  ],
  "bytecode": "0x6080604052336000806101000a81548173ffffffffffffffffffffffffffffffffffffffff021916908373ffffffffffffffffffffffffffffffffffffffff16021790555061090e806100536000396000f3fe608060405234801561001057600080fd5b50600436106100575760003560e01c80638da5cb5b1461005c57806397107d6d146100a6578063ec556889146100ea578063f2fde38b14610134578063f7872e5a14610178575b600080fd5b61006461023d565b604051808273ffffffffffffffffffffffffffffffffffffffff1673ffffffffffffffffffffffffffffffffffffffff16815260200191505060405180910390f35b6100e8600480360360208110156100bc57600080fd5b81019080803573ffffffffffffffffffffffffffffffffffffffff169060200190929190505050610262565b005b6100f26102fc565b604051808273ffffffffffffffffffffffffffffffffffffffff1673ffffffffffffffffffffffffffffffffffffffff16815260200191505060405180910390f35b6101766004803603602081101561014a57600080fd5b81019080803573ffffffffffffffffffffffffffffffffffffffff169060200190929190505050610322565b005b61023b6004803603604081101561018e57600080fd5b8101908080359060200190929190803590602001906401000000008111156101b557600080fd5b8201836020820111156101c757600080fd5b803590602001918460018302840111640100000000831117156101e957600080fd5b91908080601f016020809104026020016040519081016040528093929190818152602001838380828437600081840152601f19601f8201169050808301925050505050505091929192905050506103f0565b005b6000809054906101000a900473ffffffffffffffffffffffffffffffffffffffff1681565b6000809054906101000a900473ffffffffffffffffffffffffffffffffffffffff1673ffffffffffffffffffffffffffffffffffffffff163373ffffffffffffffffffffffffffffffffffffffff16146102b857fe5b80600160006101000a81548173ffffffffffffffffffffffffffffffffffffffff021916908373ffffffffffffffffffffffffffffffffffffffff16021790555050565b600160009054906101000a900473ffffffffffffffffffffffffffffffffffffffff1681565b6000809054906101000a900473ffffffffffffffffffffffffffffffffffffffff1673ffffffffffffffffffffffffffffffffffffffff163373ffffffffffffffffffffffffffffffffffffffff161461037857fe5b600073ffffffffffffffffffffffffffffffffffffffff168173ffffffffffffffffffffffffffffffffffffffff16146103ed57806000806101000a81548173ffffffffffffffffffffffffffffffffffffffff021916908373ffffffffffffffffffffffffffffffffffffffff1602179055505b50565b600073ffffffffffffffffffffffffffffffffffffffff163373ffffffffffffffffffffffffffffffffffffffff16141561042757fe5b6104656040518060400160405280600b81526020017f73757065725f61646d696e000000000000000000000000000000000000000000815250610503565b6104d7576040517f08c379a00000000000000000000000000000000000000000000000000000000081526004018080602001828103825260108152602001807f4f6e6c792073757065722061646d696e0000000000000000000000000000000081525060200191505060405180910390fd5b806002600084815260200190815260200160002090805190602001906104fe929190610834565b505050565b6000600160009054906101000a900473ffffffffffffffffffffffffffffffffffffffff1673ffffffffffffffffffffffffffffffffffffffff1663358177736040518060400160405280600681526020017f526f6c65444200000000000000000000000000000000000000000000000000008152506040518263ffffffff1660e01b81526004018080602001828103825283818151815260200191508051906020019080838360005b838110156105c85780820151818401526020810190506105ad565b50505050905090810190601f1680156105f55780820380516001836020036101000a031916815260200191505b509250505060206040518083038186803b15801561061257600080fd5b505afa158015610626573d6000803e3d6000fd5b505050506040513d602081101561063c57600080fd5b810190808051906020019092919050505073ffffffffffffffffffffffffffffffffffffffff16636c9cd0978361067161077f565b6040518363ffffffff1660e01b815260040180806020018373ffffffffffffffffffffffffffffffffffffffff1673ffffffffffffffffffffffffffffffffffffffff168152602001828103825284818151815260200191508051906020019080838360005b838110156106f25780820151818401526020810190506106d7565b50505050905090810190601f16801561071f5780820380516001836020036101000a031916815260200191505b50935050505060206040518083038186803b15801561073d57600080fd5b505afa158015610751573d6000803e3d6000fd5b505050506040513d602081101561076757600080fd5b81019080805190602001909291905050509050919050565b6000600160009054906101000a900473ffffffffffffffffffffffffffffffffffffffff1673ffffffffffffffffffffffffffffffffffffffff163373ffffffffffffffffffffffffffffffffffffffff16146107de57339050610831565b6000601436036000602052601481602c37602051915050600073ffffffffffffffffffffffffffffffffffffffff168173ffffffffffffffffffffffffffffffffffffffff16141561082c57fe5b809150505b90565b828054600181600116156101000203166002900490600052602060002090601f016020900481019282601f1061087557805160ff19168380011785556108a3565b828001600101855582156108a3579182015b828111156108a2578251825591602001919060010190610887565b5b5090506108b091906108b4565b5090565b6108d691905b808211156108d25760008160009055506001016108ba565b5090565b9056fea265627a7a72305820b09fd534b4fa1a0cd784e29ba07e41f4e4579ccd8d31eb5fe5fb8c0430eaff6564736f6c634300050a0032",
  "source": "pragma solidity ^0.5.5;\n\nimport \"../../proxy/Proxied.sol\";\nimport \"../../../authority/Guard.sol\";\n\n/**\n * @title This contract is a database stroing the kittieId and name of valuable fancy cats\n * @author @ziweidream\n */\ncontract FancyKitties is Proxied, Guard {\n\n    mapping(uint256 => string) internal FancyKittiesList;\n\n    // the file /test/sourceData/FancyKitties.js contains complete data set to fill in this db\n    /**\n     * @author @ziweidream\n     * @notice mapping of a fancy kittie's kittieId to its fancy name\n     * @dev this db needs to beupdated periodically.\n     * @param _kittieId the kittieId of the fancy kittie\n     * @param _name the fancy name of the fancy kittie\n     */\n    function updateFancyKittiesList(uint256 _kittieId, string memory _name)\n        public\n        onlySuperAdmin\n    {\n        FancyKittiesList[_kittieId] = _name;\n    }\n}",
  "sourcePath": "/home/wafflemakr/Desktop/KittieFight/alpha/contracts/modules/algorithm/RarityCalculationDBs/FancyKitties.sol",
  "compiler": {
    "name": "solc",
    "version": "0.5.10+commit.5a6ea5b1.Emscripten.clang"
  },
  "schemaVersion": "3.0.11",
  "updatedAt": "2019-08-11T04:27:28.611Z",
  "devdoc": {
    "author": "@ziweidream",
    "methods": {
      "updateFancyKittiesList(uint256,string)": {
        "author": "@ziweidream",
        "details": "this db needs to beupdated periodically.",
        "params": {
          "_kittieId": "the kittieId of the fancy kittie",
          "_name": "the fancy name of the fancy kittie"
        }
      }
    },
    "title": "This contract is a database stroing the kittieId and name of valuable fancy cats"
  },
  "userdoc": {
    "methods": {
      "setProxy(address)": {
        "notice": "Set/update address of Proxy contract"
      },
      "updateFancyKittiesList(uint256,string)": {
        "notice": "mapping of a fancy kittie's kittieId to its fancy name"
      }
    }
  }
}