{
  "contractName": "FancyKitties",
  "abi": [
    {
      "constant": true,
      "inputs": [],
      "name": "owner",
      "outputs": [
        {
          "internalType": "address payable",
          "name": "",
          "type": "address"
        }
      ],
      "payable": false,
      "stateMutability": "view",
      "type": "function"
    },
    {
      "constant": true,
      "inputs": [],
      "name": "proxy",
      "outputs": [
        {
          "internalType": "contract ProxyBase",
          "name": "",
          "type": "address"
        }
      ],
      "payable": false,
      "stateMutability": "view",
      "type": "function"
    },
    {
      "constant": false,
      "inputs": [
        {
          "internalType": "contract ProxyBase",
          "name": "_proxy",
          "type": "address"
        }
      ],
      "name": "setProxy",
      "outputs": [],
      "payable": false,
      "stateMutability": "nonpayable",
      "type": "function"
    },
    {
      "constant": false,
      "inputs": [
        {
          "internalType": "address payable",
          "name": "newOwner",
          "type": "address"
        }
      ],
      "name": "transferOwnership",
      "outputs": [],
      "payable": false,
      "stateMutability": "nonpayable",
      "type": "function"
    },
    {
      "constant": false,
      "inputs": [
        {
          "internalType": "uint256[]",
          "name": "_kittieId",
          "type": "uint256[]"
        },
        {
          "internalType": "bytes32[]",
          "name": "_name",
          "type": "bytes32[]"
        },
        {
          "internalType": "uint256[]",
          "name": "_nameLength",
          "type": "uint256[]"
        }
      ],
      "name": "updateFancyKittiesList",
      "outputs": [],
      "payable": false,
      "stateMutability": "nonpayable",
      "type": "function"
    }
  ],
  "bytecode": "0x6080604052336000806101000a81548173ffffffffffffffffffffffffffffffffffffffff021916908373ffffffffffffffffffffffffffffffffffffffff160217905550610b68806100536000396000f3fe608060405234801561001057600080fd5b50600436106100575760003560e01c80638da5cb5b1461005c57806397107d6d146100a6578063c1f34acb146100ea578063ec556889146102ca578063f2fde38b14610314575b600080fd5b610064610358565b604051808273ffffffffffffffffffffffffffffffffffffffff1673ffffffffffffffffffffffffffffffffffffffff16815260200191505060405180910390f35b6100e8600480360360208110156100bc57600080fd5b81019080803573ffffffffffffffffffffffffffffffffffffffff16906020019092919050505061037d565b005b6102c86004803603606081101561010057600080fd5b810190808035906020019064010000000081111561011d57600080fd5b82018360208201111561012f57600080fd5b8035906020019184602083028401116401000000008311171561015157600080fd5b919080806020026020016040519081016040528093929190818152602001838360200280828437600081840152601f19601f820116905080830192505050505050509192919290803590602001906401000000008111156101b157600080fd5b8201836020820111156101c357600080fd5b803590602001918460208302840111640100000000831117156101e557600080fd5b919080806020026020016040519081016040528093929190818152602001838360200280828437600081840152601f19601f8201169050808301925050505050505091929192908035906020019064010000000081111561024557600080fd5b82018360208201111561025757600080fd5b8035906020019184602083028401116401000000008311171561027957600080fd5b919080806020026020016040519081016040528093929190818152602001838360200280828437600081840152601f19601f820116905080830192505050505050509192919290505050610417565b005b6102d26105c1565b604051808273ffffffffffffffffffffffffffffffffffffffff1673ffffffffffffffffffffffffffffffffffffffff16815260200191505060405180910390f35b6103566004803603602081101561032a57600080fd5b81019080803573ffffffffffffffffffffffffffffffffffffffff1690602001909291905050506105e7565b005b6000809054906101000a900473ffffffffffffffffffffffffffffffffffffffff1681565b6000809054906101000a900473ffffffffffffffffffffffffffffffffffffffff1673ffffffffffffffffffffffffffffffffffffffff163373ffffffffffffffffffffffffffffffffffffffff16146103d357fe5b80600160006101000a81548173ffffffffffffffffffffffffffffffffffffffff021916908373ffffffffffffffffffffffffffffffffffffffff16021790555050565b600073ffffffffffffffffffffffffffffffffffffffff163373ffffffffffffffffffffffffffffffffffffffff16141561044e57fe5b61048c6040518060400160405280600b81526020017f73757065725f61646d696e0000000000000000000000000000000000000000008152506106b5565b6104fe576040517f08c379a00000000000000000000000000000000000000000000000000000000081526004018080602001828103825260108152602001807f4f6e6c792073757065722061646d696e0000000000000000000000000000000081525060200191505060405180910390fd5b60008090505b81518110156105b35760008090505b82828151811061051f57fe5b60200260200101518110156105a55761054a84838151811061053d57fe5b6020026020010151610931565b60026000876003548151811061055c57fe5b602002602001015181526020019081526020016000209080519060200190610585929190610a8e565b506003600081548092919060010191905055508080600101915050610513565b508080600101915050610504565b506000600381905550505050565b600160009054906101000a900473ffffffffffffffffffffffffffffffffffffffff1681565b6000809054906101000a900473ffffffffffffffffffffffffffffffffffffffff1673ffffffffffffffffffffffffffffffffffffffff163373ffffffffffffffffffffffffffffffffffffffff161461063d57fe5b600073ffffffffffffffffffffffffffffffffffffffff168173ffffffffffffffffffffffffffffffffffffffff16146106b257806000806101000a81548173ffffffffffffffffffffffffffffffffffffffff021916908373ffffffffffffffffffffffffffffffffffffffff1602179055505b50565b6000600160009054906101000a900473ffffffffffffffffffffffffffffffffffffffff1673ffffffffffffffffffffffffffffffffffffffff1663358177736040518060400160405280600681526020017f526f6c65444200000000000000000000000000000000000000000000000000008152506040518263ffffffff1660e01b81526004018080602001828103825283818151815260200191508051906020019080838360005b8381101561077a57808201518184015260208101905061075f565b50505050905090810190601f1680156107a75780820380516001836020036101000a031916815260200191505b509250505060206040518083038186803b1580156107c457600080fd5b505afa1580156107d8573d6000803e3d6000fd5b505050506040513d60208110156107ee57600080fd5b810190808051906020019092919050505073ffffffffffffffffffffffffffffffffffffffff16636c9cd097836108236109d9565b6040518363ffffffff1660e01b815260040180806020018373ffffffffffffffffffffffffffffffffffffffff1673ffffffffffffffffffffffffffffffffffffffff168152602001828103825284818151815260200191508051906020019080838360005b838110156108a4578082015181840152602081019050610889565b50505050905090810190601f1680156108d15780820380516001836020036101000a031916815260200191505b50935050505060206040518083038186803b1580156108ef57600080fd5b505afa158015610903573d6000803e3d6000fd5b505050506040513d602081101561091957600080fd5b81019080805190602001909291905050509050919050565b60608060206040519080825280601f01601f1916602001820160405280156109685781602001600182028038833980820191505090505b50905060005b60208110156109cf5783816020811061098357fe5b1a60f81b82828151811061099357fe5b60200101907effffffffffffffffffffffffffffffffffffffffffffffffffffffffffffff1916908160001a905350808060010191505061096e565b5080915050919050565b6000600160009054906101000a900473ffffffffffffffffffffffffffffffffffffffff1673ffffffffffffffffffffffffffffffffffffffff163373ffffffffffffffffffffffffffffffffffffffff1614610a3857339050610a8b565b6000601436036000602052601481602c37602051915050600073ffffffffffffffffffffffffffffffffffffffff168173ffffffffffffffffffffffffffffffffffffffff161415610a8657fe5b809150505b90565b828054600181600116156101000203166002900490600052602060002090601f016020900481019282601f10610acf57805160ff1916838001178555610afd565b82800160010185558215610afd579182015b82811115610afc578251825591602001919060010190610ae1565b5b509050610b0a9190610b0e565b5090565b610b3091905b80821115610b2c576000816000905550600101610b14565b5090565b9056fea265627a7a72315820b535fe4517edaa97e05bb822d22c9b390999ea4bad61b3e42667173a76900ccd64736f6c63430005110032",
  "source": "pragma solidity ^0.5.5;\n\nimport \"../../proxy/Proxied.sol\";\nimport \"../../../authority/Guard.sol\";\n\n/**\n * @title This contract is a database stroing the kittieId and name of valuable fancy cats\n * @author @ziweidream @Xale\n */\ncontract FancyKitties is Proxied, Guard {\n\n    mapping(uint256 => string) internal FancyKittiesList;\n    uint counter;\n\n    // the file /test/sourceData/FancyKitties.js contains complete data set to fill in this db\n    /**\n     * @author @ziweidream @Xale\n     * @notice mapping of a fancy kittie's kittieId to its fancy name\n     * @dev this db needs to beupdated periodically.\n     * @param _kittieId the kittieId of the fancy kittie\n     * @param _name the fancy name of the fancy kittie\n     */\n    function updateFancyKittiesList(uint256[] memory _kittieId, bytes32[] memory _name, uint256[] memory _nameLength)\n        public\n        onlySuperAdmin\n    {   \n        for(uint i=0; i<_nameLength.length; i++){\n            for(uint j=0; j<_nameLength[i]; j++){\n                FancyKittiesList[_kittieId[counter]] = bytes32ToStr(_name[i]);\n                counter++;\n            }\n        }\n        counter=0;\n    }\n\n    function bytes32ToStr(bytes32 _bytes32)\n        internal \n        returns (string memory)\n    {\n        bytes memory bytesArray = new bytes(32);\n        for (uint256 i; i < 32; i++) {\n            bytesArray[i] = _bytes32[i];\n        }\n        return string(bytesArray);\n    }\n\n}",
  "sourcePath": "/Users/ziweizhang/Desktop/EarningsTracker/alpha/contracts/modules/algorithm/RarityCalculationDBs/FancyKitties.sol",
  "compiler": {
    "name": "solc",
    "version": "0.5.17+commit.d19bba13.Emscripten.clang"
  },
  "schemaVersion": "3.0.23",
  "updatedAt": "2020-04-14T18:58:00.029Z",
  "devdoc": {
    "author": "@ziweidream @Xale",
    "methods": {
      "updateFancyKittiesList(uint256[],bytes32[],uint256[])": {
        "author": "@ziweidream @Xale",
        "details": "this db needs to beupdated periodically.",
        "params": {
          "_kittieId": "the kittieId of the fancy kittie",
          "_name": "the fancy name of the fancy kittie"
        }
      }
    },
    "title": "This contract is a database stroing the kittieId and name of valuable fancy cats"
  },
  "userdoc": {
    "methods": {
      "setProxy(address)": {
        "notice": "Set/update address of Proxy contract"
      },
      "updateFancyKittiesList(uint256[],bytes32[],uint256[])": {
        "notice": "mapping of a fancy kittie's kittieId to its fancy name"
      }
    }
  }
}