{
  "contractName": "Forfeiter",
  "abi": [
    {
      "anonymous": false,
      "inputs": [
        {
          "indexed": false,
          "internalType": "uint256",
          "name": "gameId",
          "type": "uint256"
        },
        {
          "indexed": false,
          "internalType": "string",
          "name": "reason",
          "type": "string"
        }
      ],
      "name": "GameCancelled",
      "type": "event"
    },
    {
      "constant": true,
      "inputs": [],
      "name": "KITTIE_LEFT",
      "outputs": [
        {
          "internalType": "uint256",
          "name": "",
          "type": "uint256"
        }
      ],
      "payable": false,
      "stateMutability": "view",
      "type": "function"
    },
    {
      "constant": true,
      "inputs": [],
      "name": "NOT_HIT_START",
      "outputs": [
        {
          "internalType": "uint256",
          "name": "",
          "type": "uint256"
        }
      ],
      "payable": false,
      "stateMutability": "view",
      "type": "function"
    },
    {
      "constant": true,
      "inputs": [],
      "name": "UNDERSUPPORTED",
      "outputs": [
        {
          "internalType": "uint256",
          "name": "",
          "type": "uint256"
        }
      ],
      "payable": false,
      "stateMutability": "view",
      "type": "function"
    },
    {
      "constant": true,
      "inputs": [],
      "name": "ckc",
      "outputs": [
        {
          "internalType": "contract ERC721",
          "name": "",
          "type": "address"
        }
      ],
      "payable": false,
      "stateMutability": "view",
      "type": "function"
    },
    {
      "constant": true,
      "inputs": [],
      "name": "gameManager",
      "outputs": [
        {
          "internalType": "contract GameManager",
          "name": "",
          "type": "address"
        }
      ],
      "payable": false,
      "stateMutability": "view",
      "type": "function"
    },
    {
      "constant": true,
      "inputs": [],
      "name": "gameStore",
      "outputs": [
        {
          "internalType": "contract GameStore",
          "name": "",
          "type": "address"
        }
      ],
      "payable": false,
      "stateMutability": "view",
      "type": "function"
    },
    {
      "constant": true,
      "inputs": [],
      "name": "gameVarAndFee",
      "outputs": [
        {
          "internalType": "contract GameVarAndFee",
          "name": "",
          "type": "address"
        }
      ],
      "payable": false,
      "stateMutability": "view",
      "type": "function"
    },
    {
      "constant": true,
      "inputs": [],
      "name": "gmGetterDB",
      "outputs": [
        {
          "internalType": "contract GMGetterDB",
          "name": "",
          "type": "address"
        }
      ],
      "payable": false,
      "stateMutability": "view",
      "type": "function"
    },
    {
      "constant": true,
      "inputs": [],
      "name": "kittieHELL",
      "outputs": [
        {
          "internalType": "contract KittieHell",
          "name": "",
          "type": "address"
        }
      ],
      "payable": false,
      "stateMutability": "view",
      "type": "function"
    },
    {
      "constant": true,
      "inputs": [],
      "name": "owner",
      "outputs": [
        {
          "internalType": "address payable",
          "name": "",
          "type": "address"
        }
      ],
      "payable": false,
      "stateMutability": "view",
      "type": "function"
    },
    {
      "constant": true,
      "inputs": [],
      "name": "proxy",
      "outputs": [
        {
          "internalType": "contract ProxyBase",
          "name": "",
          "type": "address"
        }
      ],
      "payable": false,
      "stateMutability": "view",
      "type": "function"
    },
    {
      "constant": false,
      "inputs": [
        {
          "internalType": "contract ProxyBase",
          "name": "_proxy",
          "type": "address"
        }
      ],
      "name": "setProxy",
      "outputs": [],
      "payable": false,
      "stateMutability": "nonpayable",
      "type": "function"
    },
    {
      "constant": false,
      "inputs": [
        {
          "internalType": "address payable",
          "name": "newOwner",
          "type": "address"
        }
      ],
      "name": "transferOwnership",
      "outputs": [],
      "payable": false,
      "stateMutability": "nonpayable",
      "type": "function"
    },
    {
      "constant": false,
      "inputs": [],
      "name": "initialize",
      "outputs": [],
      "payable": false,
      "stateMutability": "nonpayable",
      "type": "function"
    },
    {
      "constant": false,
      "inputs": [
        {
          "internalType": "uint256",
          "name": "gameId",
          "type": "uint256"
        },
        {
          "internalType": "string",
          "name": "reason",
          "type": "string"
        }
      ],
      "name": "forfeitCron",
      "outputs": [],
      "payable": false,
      "stateMutability": "nonpayable",
      "type": "function"
    },
    {
      "constant": false,
      "inputs": [
        {
          "internalType": "uint256",
          "name": "gameId",
          "type": "uint256"
        },
        {
          "internalType": "uint256",
          "name": "state",
          "type": "uint256"
        }
      ],
      "name": "checkGameStatusCron",
      "outputs": [],
      "payable": false,
      "stateMutability": "nonpayable",
      "type": "function"
    },
    {
      "constant": false,
      "inputs": [
        {
          "internalType": "uint256",
          "name": "gameId",
          "type": "uint256"
        },
        {
          "internalType": "uint256",
          "name": "state",
          "type": "uint256"
        }
      ],
      "name": "checkGameStatus",
      "outputs": [],
      "payable": false,
      "stateMutability": "nonpayable",
      "type": "function"
    }
  ],
  "bytecode": "0x6080604052336000806101000a81548173ffffffffffffffffffffffffffffffffffffffff021916908373ffffffffffffffffffffffffffffffffffffffff160217905550612766806100536000396000f3fe608060405234801561001057600080fd5b506004361061010b5760003560e01c8063a3b3bd7b116100a2578063cfafbde711610071578063cfafbde71461042b578063ec55688914610475578063ee8c4b6f146104bf578063f0620402146104dd578063f2fde38b146104fb5761010b565b8063a3b3bd7b146102ca578063b0c5831e14610314578063b1be646914610397578063c6b05266146103e15761010b565b80638129fc1c116100de5780638129fc1c146101e85780638da5cb5b146101f257806397107d6d1461023c57806397764f89146102805761010b565b80631fc7518014610110578063304b95031461015a57806333c0c10d146101925780635aaccebf146101b0575b600080fd5b61011861053f565b604051808273ffffffffffffffffffffffffffffffffffffffff1673ffffffffffffffffffffffffffffffffffffffff16815260200191505060405180910390f35b6101906004803603604081101561017057600080fd5b810190808035906020019092919080359060200190929190505050610565565b005b61019a6105b3565b6040518082815260200191505060405180910390f35b6101e6600480360360408110156101c657600080fd5b8101908080359060200190929190803590602001909291905050506105b8565b005b6101f0610606565b005b6101fa610f8e565b604051808273ffffffffffffffffffffffffffffffffffffffff1673ffffffffffffffffffffffffffffffffffffffff16815260200191505060405180910390f35b61027e6004803603602081101561025257600080fd5b81019080803573ffffffffffffffffffffffffffffffffffffffff169060200190929190505050610fb3565b005b61028861104d565b604051808273ffffffffffffffffffffffffffffffffffffffff1673ffffffffffffffffffffffffffffffffffffffff16815260200191505060405180910390f35b6102d2611073565b604051808273ffffffffffffffffffffffffffffffffffffffff1673ffffffffffffffffffffffffffffffffffffffff16815260200191505060405180910390f35b6103956004803603604081101561032a57600080fd5b81019080803590602001909291908035906020019064010000000081111561035157600080fd5b82018360208201111561036357600080fd5b8035906020019184600183028401116401000000008311171561038557600080fd5b9091929391929390505050611099565b005b61039f61112c565b604051808273ffffffffffffffffffffffffffffffffffffffff1673ffffffffffffffffffffffffffffffffffffffff16815260200191505060405180910390f35b6103e9611152565b604051808273ffffffffffffffffffffffffffffffffffffffff1673ffffffffffffffffffffffffffffffffffffffff16815260200191505060405180910390f35b610433611178565b604051808273ffffffffffffffffffffffffffffffffffffffff1673ffffffffffffffffffffffffffffffffffffffff16815260200191505060405180910390f35b61047d61119e565b604051808273ffffffffffffffffffffffffffffffffffffffff1673ffffffffffffffffffffffffffffffffffffffff16815260200191505060405180910390f35b6104c76111c4565b6040518082815260200191505060405180910390f35b6104e56111c9565b6040518082815260200191505060405180910390f35b61053d6004803603602081101561051157600080fd5b81019080803573ffffffffffffffffffffffffffffffffffffffff1690602001909291905050506111ce565b005b600460009054906101000a900473ffffffffffffffffffffffffffffffffffffffff1681565b6040518060400160405280600c81526020017f47616d654372656174696f6e00000000000000000000000000000000000000008152506105a48161129c565b6105ae8383611537565b505050565b600281565b6040518060400160405280600b81526020017f47616d654d616e616765720000000000000000000000000000000000000000008152506105f78161129c565b6106018383611537565b505050565b6000809054906101000a900473ffffffffffffffffffffffffffffffffffffffff1673ffffffffffffffffffffffffffffffffffffffff163373ffffffffffffffffffffffffffffffffffffffff161461065c57fe5b600160009054906101000a900473ffffffffffffffffffffffffffffffffffffffff1673ffffffffffffffffffffffffffffffffffffffff1663358177736040518060400160405280600b81526020017f47616d654d616e616765720000000000000000000000000000000000000000008152506040518263ffffffff1660e01b81526004018080602001828103825283818151815260200191508051906020019080838360005b8381101561071f578082015181840152602081019050610704565b50505050905090810190601f16801561074c5780820380516001836020036101000a031916815260200191505b509250505060206040518083038186803b15801561076957600080fd5b505afa15801561077d573d6000803e3d6000fd5b505050506040513d602081101561079357600080fd5b8101908080519060200190929190505050600360006101000a81548173ffffffffffffffffffffffffffffffffffffffff021916908373ffffffffffffffffffffffffffffffffffffffff160217905550600160009054906101000a900473ffffffffffffffffffffffffffffffffffffffff1673ffffffffffffffffffffffffffffffffffffffff1663358177736040518060400160405280600981526020017f47616d6553746f726500000000000000000000000000000000000000000000008152506040518263ffffffff1660e01b81526004018080602001828103825283818151815260200191508051906020019080838360005b838110156108a757808201518184015260208101905061088c565b50505050905090810190601f1680156108d45780820380516001836020036101000a031916815260200191505b509250505060206040518083038186803b1580156108f157600080fd5b505afa158015610905573d6000803e3d6000fd5b505050506040513d602081101561091b57600080fd5b8101908080519060200190929190505050600260006101000a81548173ffffffffffffffffffffffffffffffffffffffff021916908373ffffffffffffffffffffffffffffffffffffffff160217905550600160009054906101000a900473ffffffffffffffffffffffffffffffffffffffff1673ffffffffffffffffffffffffffffffffffffffff1663358177736040518060400160405280600a81526020017f474d4765747465724442000000000000000000000000000000000000000000008152506040518263ffffffff1660e01b81526004018080602001828103825283818151815260200191508051906020019080838360005b83811015610a2f578082015181840152602081019050610a14565b50505050905090810190601f168015610a5c5780820380516001836020036101000a031916815260200191505b509250505060206040518083038186803b158015610a7957600080fd5b505afa158015610a8d573d6000803e3d6000fd5b505050506040513d6020811015610aa357600080fd5b8101908080519060200190929190505050600460006101000a81548173ffffffffffffffffffffffffffffffffffffffff021916908373ffffffffffffffffffffffffffffffffffffffff160217905550600160009054906101000a900473ffffffffffffffffffffffffffffffffffffffff1673ffffffffffffffffffffffffffffffffffffffff1663358177736040518060400160405280600d81526020017f47616d65566172416e64466565000000000000000000000000000000000000008152506040518263ffffffff1660e01b81526004018080602001828103825283818151815260200191508051906020019080838360005b83811015610bb7578082015181840152602081019050610b9c565b50505050905090810190601f168015610be45780820380516001836020036101000a031916815260200191505b509250505060206040518083038186803b158015610c0157600080fd5b505afa158015610c15573d6000803e3d6000fd5b505050506040513d6020811015610c2b57600080fd5b8101908080519060200190929190505050600560006101000a81548173ffffffffffffffffffffffffffffffffffffffff021916908373ffffffffffffffffffffffffffffffffffffffff160217905550600160009054906101000a900473ffffffffffffffffffffffffffffffffffffffff1673ffffffffffffffffffffffffffffffffffffffff1663358177736040518060400160405280600d81526020017f43727970746f4b697474696573000000000000000000000000000000000000008152506040518263ffffffff1660e01b81526004018080602001828103825283818151815260200191508051906020019080838360005b83811015610d3f578082015181840152602081019050610d24565b50505050905090810190601f168015610d6c5780820380516001836020036101000a031916815260200191505b509250505060206040518083038186803b158015610d8957600080fd5b505afa158015610d9d573d6000803e3d6000fd5b505050506040513d6020811015610db357600080fd5b8101908080519060200190929190505050600660006101000a81548173ffffffffffffffffffffffffffffffffffffffff021916908373ffffffffffffffffffffffffffffffffffffffff160217905550600160009054906101000a900473ffffffffffffffffffffffffffffffffffffffff1673ffffffffffffffffffffffffffffffffffffffff1663358177736040518060400160405280600a81526020017f4b697474696548656c6c000000000000000000000000000000000000000000008152506040518263ffffffff1660e01b81526004018080602001828103825283818151815260200191508051906020019080838360005b83811015610ec7578082015181840152602081019050610eac565b50505050905090810190601f168015610ef45780820380516001836020036101000a031916815260200191505b509250505060206040518083038186803b158015610f1157600080fd5b505afa158015610f25573d6000803e3d6000fd5b505050506040513d6020811015610f3b57600080fd5b8101908080519060200190929190505050600760006101000a81548173ffffffffffffffffffffffffffffffffffffffff021916908373ffffffffffffffffffffffffffffffffffffffff160217905550565b6000809054906101000a900473ffffffffffffffffffffffffffffffffffffffff1681565b6000809054906101000a900473ffffffffffffffffffffffffffffffffffffffff1673ffffffffffffffffffffffffffffffffffffffff163373ffffffffffffffffffffffffffffffffffffffff161461100957fe5b80600160006101000a81548173ffffffffffffffffffffffffffffffffffffffff021916908373ffffffffffffffffffffffffffffffffffffffff16021790555050565b600660009054906101000a900473ffffffffffffffffffffffffffffffffffffffff1681565b600560009054906101000a900473ffffffffffffffffffffffffffffffffffffffff1681565b6040518060400160405280600c81526020017f47616d654372656174696f6e00000000000000000000000000000000000000008152506110d88161129c565b6111268484848080601f016020809104026020016040519081016040528093929190818152602001838380828437600081840152601f19601f82011690508083019250505050505050611ba6565b50505050565b600260009054906101000a900473ffffffffffffffffffffffffffffffffffffffff1681565b600360009054906101000a900473ffffffffffffffffffffffffffffffffffffffff1681565b600760009054906101000a900473ffffffffffffffffffffffffffffffffffffffff1681565b600160009054906101000a900473ffffffffffffffffffffffffffffffffffffffff1681565b600181565b600081565b6000809054906101000a900473ffffffffffffffffffffffffffffffffffffffff1673ffffffffffffffffffffffffffffffffffffffff163373ffffffffffffffffffffffffffffffffffffffff161461122457fe5b600073ffffffffffffffffffffffffffffffffffffffff168173ffffffffffffffffffffffffffffffffffffffff161461129957806000806101000a81548173ffffffffffffffffffffffffffffffffffffffff021916908373ffffffffffffffffffffffffffffffffffffffff1602179055505b50565b600073ffffffffffffffffffffffffffffffffffffffff16600160009054906101000a900473ffffffffffffffffffffffffffffffffffffffff1673ffffffffffffffffffffffffffffffffffffffff161415611361576040517f08c379a00000000000000000000000000000000000000000000000000000000081526004018080602001828103825260088152602001807f4e6f2050726f787900000000000000000000000000000000000000000000000081525060200191505060405180910390fd5b6000600160009054906101000a900473ffffffffffffffffffffffffffffffffffffffff1673ffffffffffffffffffffffffffffffffffffffff166335817773836040518263ffffffff1660e01b81526004018080602001828103825283818151815260200191508051906020019080838360005b838110156113f15780820151818401526020810190506113d6565b50505050905090810190601f16801561141e5780820380516001836020036101000a031916815260200191505b509250505060206040518083038186803b15801561143b57600080fd5b505afa15801561144f573d6000803e3d6000fd5b505050506040513d602081101561146557600080fd5b81019080805190602001909291905050509050600073ffffffffffffffffffffffffffffffffffffffff168173ffffffffffffffffffffffffffffffffffffffff1614156114af57fe5b8073ffffffffffffffffffffffffffffffffffffffff163373ffffffffffffffffffffffffffffffffffffffff1614611533576040517f08c379a000000000000000000000000000000000000000000000000000000000815260040180806020018281038252602d815260200180612705602d913960400191505060405180910390fd5b5050565b600080600080600460009054906101000a900473ffffffffffffffffffffffffffffffffffffffff1673ffffffffffffffffffffffffffffffffffffffff166315a40f49876040518263ffffffff1660e01b81526004018082815260200191505060806040518083038186803b1580156115b057600080fd5b505afa1580156115c4573d6000803e3d6000fd5b505050506040513d60808110156115da57600080fd5b8101908080519060200190929190805190602001909291908051906020019092919080519060200190929190505050935093509350935060008514156118d8576000600460009054906101000a900473ffffffffffffffffffffffffffffffffffffffff1673ffffffffffffffffffffffffffffffffffffffff16638851470d886040518263ffffffff1660e01b81526004018082815260200191505060606040518083038186803b15801561168f57600080fd5b505afa1580156116a3573d6000803e3d6000fd5b505050506040513d60608110156116b957600080fd5b81019080805190602001909291908051906020019092919080519060200190929190505050509150506000600460009054906101000a900473ffffffffffffffffffffffffffffffffffffffff1673ffffffffffffffffffffffffffffffffffffffff1663de4128de89886040518363ffffffff1660e01b8152600401808381526020018273ffffffffffffffffffffffffffffffffffffffff1673ffffffffffffffffffffffffffffffffffffffff1681526020019250505060206040518083038186803b15801561178b57600080fd5b505afa15801561179f573d6000803e3d6000fd5b505050506040513d60208110156117b557600080fd5b810190808051906020019092919050505090506000600460009054906101000a900473ffffffffffffffffffffffffffffffffffffffff1673ffffffffffffffffffffffffffffffffffffffff1663de4128de8a886040518363ffffffff1660e01b8152600401808381526020018273ffffffffffffffffffffffffffffffffffffffff1673ffffffffffffffffffffffffffffffffffffffff1681526020019250505060206040518083038186803b15801561187157600080fd5b505afa158015611885573d6000803e3d6000fd5b505050506040513d602081101561189b57600080fd5b8101908080519060200190929190505050905060006118bd8a87878b8b61211c565b905080156118d3576118d18a848487612581565b505b505050505b6001851415611b9e576000600460009054906101000a900473ffffffffffffffffffffffffffffffffffffffff1673ffffffffffffffffffffffffffffffffffffffff16638851470d886040518263ffffffff1660e01b81526004018082815260200191505060606040518083038186803b15801561195657600080fd5b505afa15801561196a573d6000803e3d6000fd5b505050506040513d606081101561198057600080fd5b81019080805190602001909291908051906020019092919080519060200190929190505050505090506000600260009054906101000a900473ffffffffffffffffffffffffffffffffffffffff1673ffffffffffffffffffffffffffffffffffffffff1663ebff754a89876040518363ffffffff1660e01b8152600401808381526020018273ffffffffffffffffffffffffffffffffffffffff1673ffffffffffffffffffffffffffffffffffffffff1681526020019250505060206040518083038186803b158015611a5257600080fd5b505afa158015611a66573d6000803e3d6000fd5b505050506040513d6020811015611a7c57600080fd5b810190808051906020019092919050505090506000600260009054906101000a900473ffffffffffffffffffffffffffffffffffffffff1673ffffffffffffffffffffffffffffffffffffffff1663ebff754a8a896040518363ffffffff1660e01b8152600401808381526020018273ffffffffffffffffffffffffffffffffffffffff1673ffffffffffffffffffffffffffffffffffffffff1681526020019250505060206040518083038186803b158015611b3857600080fd5b505afa158015611b4c573d6000803e3d6000fd5b505050506040513d6020811015611b6257600080fd5b810190808051906020019092919050505090506000611b848a87878b8b61211c565b90508015611b9957611b988a8385876126a6565b5b505050505b505050505050565b600080600460009054906101000a900473ffffffffffffffffffffffffffffffffffffffff1673ffffffffffffffffffffffffffffffffffffffff166315a40f49856040518263ffffffff1660e01b81526004018082815260200191505060806040518083038186803b158015611c1c57600080fd5b505afa158015611c30573d6000803e3d6000fd5b505050506040513d6080811015611c4657600080fd5b8101908080519060200190929190805190602001909291908051906020019092919080519060200190929190505050935093505050600760009054906101000a900473ffffffffffffffffffffffffffffffffffffffff1673ffffffffffffffffffffffffffffffffffffffff16600660009054906101000a900473ffffffffffffffffffffffffffffffffffffffff1673ffffffffffffffffffffffffffffffffffffffff16636352211e846040518263ffffffff1660e01b81526004018082815260200191505060206040518083038186803b158015611d2757600080fd5b505afa158015611d3b573d6000803e3d6000fd5b505050506040513d6020811015611d5157600080fd5b810190808051906020019092919050505073ffffffffffffffffffffffffffffffffffffffff161415611e3057600760009054906101000a900473ffffffffffffffffffffffffffffffffffffffff1673ffffffffffffffffffffffffffffffffffffffff1663f4b50fae836040518263ffffffff1660e01b815260040180828152602001915050602060405180830381600087803b158015611df357600080fd5b505af1158015611e07573d6000803e3d6000fd5b505050506040513d6020811015611e1d57600080fd5b8101908080519060200190929190505050505b600760009054906101000a900473ffffffffffffffffffffffffffffffffffffffff1673ffffffffffffffffffffffffffffffffffffffff16600660009054906101000a900473ffffffffffffffffffffffffffffffffffffffff1673ffffffffffffffffffffffffffffffffffffffff16636352211e836040518263ffffffff1660e01b81526004018082815260200191505060206040518083038186803b158015611edc57600080fd5b505afa158015611ef0573d6000803e3d6000fd5b505050506040513d6020811015611f0657600080fd5b810190808051906020019092919050505073ffffffffffffffffffffffffffffffffffffffff161415611fe557600760009054906101000a900473ffffffffffffffffffffffffffffffffffffffff1673ffffffffffffffffffffffffffffffffffffffff1663f4b50fae826040518263ffffffff1660e01b815260040180828152602001915050602060405180830381600087803b158015611fa857600080fd5b505af1158015611fbc573d6000803e3d6000fd5b505050506040513d6020811015611fd257600080fd5b8101908080519060200190929190505050505b600360009054906101000a900473ffffffffffffffffffffffffffffffffffffffff1673ffffffffffffffffffffffffffffffffffffffff166369958ab9856040518263ffffffff1660e01b815260040180828152602001915050600060405180830381600087803b15801561205a57600080fd5b505af115801561206e573d6000803e3d6000fd5b505050507f0f023b047be6c305859504186f8b03ee5a634f9ab472ff386d3b1de9387c083e84846040518083815260200180602001828103825283818151815260200191508051906020019080838360005b838110156120db5780820151818401526020810190506120c0565b50505050905090810190601f1680156121085780820380516001836020036101000a031916815260200191505b50935050505060405180910390a150505050565b6000806000600760009054906101000a900473ffffffffffffffffffffffffffffffffffffffff1673ffffffffffffffffffffffffffffffffffffffff16600660009054906101000a900473ffffffffffffffffffffffffffffffffffffffff1673ffffffffffffffffffffffffffffffffffffffff16636352211e896040518263ffffffff1660e01b81526004018082815260200191505060206040518083038186803b1580156121cd57600080fd5b505afa1580156121e1573d6000803e3d6000fd5b505050506040513d60208110156121f757600080fd5b810190808051906020019092919050505073ffffffffffffffffffffffffffffffffffffffff16141561222d576001915061231d565b8473ffffffffffffffffffffffffffffffffffffffff16600660009054906101000a900473ffffffffffffffffffffffffffffffffffffffff1673ffffffffffffffffffffffffffffffffffffffff16636352211e896040518263ffffffff1660e01b81526004018082815260200191505060206040518083038186803b1580156122b757600080fd5b505afa1580156122cb573d6000803e3d6000fd5b505050506040513d60208110156122e157600080fd5b810190808051906020019092919050505073ffffffffffffffffffffffffffffffffffffffff161415612317576001915061231c565b600091505b5b600760009054906101000a900473ffffffffffffffffffffffffffffffffffffffff1673ffffffffffffffffffffffffffffffffffffffff16600660009054906101000a900473ffffffffffffffffffffffffffffffffffffffff1673ffffffffffffffffffffffffffffffffffffffff16636352211e886040518263ffffffff1660e01b81526004018082815260200191505060206040518083038186803b1580156123c957600080fd5b505afa1580156123dd573d6000803e3d6000fd5b505050506040513d60208110156123f357600080fd5b810190808051906020019092919050505073ffffffffffffffffffffffffffffffffffffffff1614156124295760019050612519565b8373ffffffffffffffffffffffffffffffffffffffff16600660009054906101000a900473ffffffffffffffffffffffffffffffffffffffff1673ffffffffffffffffffffffffffffffffffffffff16636352211e886040518263ffffffff1660e01b81526004018082815260200191505060206040518083038186803b1580156124b357600080fd5b505afa1580156124c7573d6000803e3d6000fd5b505050506040513d60208110156124dd57600080fd5b810190808051906020019092919050505073ffffffffffffffffffffffffffffffffffffffff1614156125135760019050612518565b600090505b5b8180156125235750805b61257157612566886040518060400160405280600b81526020017f4b6974746965204c656674000000000000000000000000000000000000000000815250611ba6565b600092505050612578565b6001925050505b95945050505050565b6000428211612699576000600260009054906101000a900473ffffffffffffffffffffffffffffffffffffffff1673ffffffffffffffffffffffffffffffffffffffff166331856c71876040518263ffffffff1660e01b81526004018082815260200191505060206040518083038186803b1580156125ff57600080fd5b505afa158015612613573d6000803e3d6000fd5b505050506040513d602081101561262957600080fd5b810190808051906020019092919050505090508085108061264957508084105b156126975761268d866040518060400160405280600e81526020017f556e646572737570706f72746564000000000000000000000000000000000000815250611ba6565b600091505061269e565b505b600190505b949350505050565b4281116126fe578215806126b8575081155b156126fd576126fc846040518060400160405280601181526020017f446964206e6f7420686974207374617274000000000000000000000000000000815250611ba6565b5b5b5050505056fe416363657373206973206f6e6c7920616c6c6f7765642066726f6d20737065636966696320636f6e7472616374a265627a7a723158209b5e2cf62a608be709304eeaaab7d34aaa377a71001b1a0d98eda01e51c22b5364736f6c63430005110032",
  "source": "// This program is free software: you can redistribute it and/or modify\n// it under the terms of the GNU General Public License as published by\n// the Free Software Foundation, either version 3 of the License, or\n// (at your option) any later version.\n\n// This program is distributed in the hope that it will be useful,\n// but WITHOUT ANY WARRANTY; without even the implied warranty of\n// MERCHANTABILITY or FITNESS FOR A PARTICULAR PURPOSE.  See the\n// GNU General Public License for more details.\n\n// You should have received a copy of the GNU General Public License\n// along with this program.  If not, see <http://www.gnu.org/licenses/>.\npragma solidity ^0.5.5;\n\nimport \"../proxy/Proxied.sol\";\nimport \"../databases/GMGetterDB.sol\";\nimport \"./GameStore.sol\";\nimport \"./GameManager.sol\";\nimport \"../../GameVarAndFee.sol\";\nimport \"../../interfaces/ERC721.sol\";\nimport '../kittieHELL/KittieHell.sol';\n\n\n/**\n * @title Forfeiter\n * @notice This contracts safeguards any game instances against any unintended outcomes\n * @author wafflemakr\n */\ncontract Forfeiter is Proxied {\n\n  GameStore public gameStore;\n  GameManager public gameManager;\n  GMGetterDB public gmGetterDB;\n  GameVarAndFee public gameVarAndFee;\n  ERC721 public ckc;\n  KittieHell public kittieHELL;\n\n  uint256 public constant UNDERSUPPORTED = 0;\n  uint256 public constant KITTIE_LEFT = 1;\n  uint256 public constant NOT_HIT_START = 2;\n\n  event GameCancelled(uint gameId, string reason);\n\n  /**\n   * @notice Owner can call this function to update the needed contracts for checking conditions\n   * @dev contract addresses are stored in proxy\n   */\n  function initialize() external onlyOwner {\n    gameManager = GameManager(proxy.getContract(CONTRACT_NAME_GAMEMANAGER));\n    gameStore = GameStore(proxy.getContract(CONTRACT_NAME_GAMESTORE));\n    gmGetterDB = GMGetterDB(proxy.getContract(CONTRACT_NAME_GM_GETTER_DB));\n    gameVarAndFee = GameVarAndFee(proxy.getContract(CONTRACT_NAME_GAMEVARANDFEE));\n    ckc = ERC721(proxy.getContract(CONTRACT_NAME_CRYPTOKITTIES));\n    kittieHELL = KittieHell(proxy.getContract(CONTRACT_NAME_KITTIEHELL));\n  }\n\n  /**\n   * @notice Called each time there is ANY interaction with a game instance within the gameManager\n   * @dev function called only by the Game Manager contract\n   * @param gameId uint256 game or fight id\n   */\n  function checkStatus(uint256 gameId, uint gameState)\n    internal\n  {\n    (address playerBlack, address playerRed, uint256 kittyBlack,\n      uint256 kittyRed) = gmGetterDB.getGamePlayers(gameId);\n\n    // GAME_CREATED\n    if (gameState == 0) {\n      (,uint256 gamePreStartTime,) = gmGetterDB.getGameTimes(gameId);\n      uint supportersBlack = gmGetterDB.getSupporters(gameId, playerBlack);\n      uint supportersRed = gmGetterDB.getSupporters(gameId, playerRed);\n\n      bool check = checkPlayersKitties(gameId, kittyBlack, kittyRed, playerBlack, playerRed);\n      //if previous check passes, check players start\n       if(check) checkAmountSupporters(gameId, supportersBlack, supportersRed, gamePreStartTime);\n    }\n\n    // GAME_PRESTART\n    if (gameState == 1) {\n      (uint256 gameStartTime,,) = gmGetterDB.getGameTimes(gameId);\n      bool redStarted = gameStore.didHitStart(gameId, playerRed);\n      bool blackStarted = gameStore.didHitStart(gameId, playerBlack);\n\n      bool check = checkPlayersKitties(gameId, kittyBlack, kittyRed, playerBlack, playerRed); // TODO check why it fails here\n      //if previous check passes, check players start\n      if(check) didPlayersStartGame(gameId, blackStarted, redStarted, gameStartTime);\n    }\n  }\n\n  /**\n   * @notice calls cancelGame on a game instance within the GamesManager\n   * @dev called by \"CheckStatus\" if any of the required conditions are false\n   *  (Not called in case of underPerformed returning true )\n   * @param gameId uint256\n   */\n  function forfeitGame(uint256 gameId, string memory reason) internal {\n    (/*address playerBlack*/, /*address playerRed*/, uint256 kittyBlack,\n      uint256 kittyRed) = gmGetterDB.getGamePlayers(gameId);\n    if(ckc.ownerOf(kittyBlack) == address(kittieHELL)) kittieHELL.releaseKittyForfeiter(kittyBlack);\n    if(ckc.ownerOf(kittyRed) == address(kittieHELL)) kittieHELL.releaseKittyForfeiter(kittyRed);\n    gameManager.cancelGame(gameId);\n    emit GameCancelled(gameId, reason);\n  }\n\n  function forfeitCron(uint256 gameId, string calldata reason)\n    external\n    onlyContract(CONTRACT_NAME_GAMECREATION)\n  {\n    forfeitGame(gameId, reason);\n  }\n\n  function checkGameStatusCron(uint256 gameId, uint state)\n    external\n    onlyContract(CONTRACT_NAME_GAMECREATION)\n  {\n    checkStatus(gameId, state);\n  }\n\n  function checkGameStatus(uint256 gameId, uint state)\n    external\n    onlyContract(CONTRACT_NAME_GAMEMANAGER)\n  {\n    checkStatus(gameId, state);\n  }\n\n  /**\n   * @notice checks that the each player still own listed kittie\n   * @dev it can also be owned by kittie hell\n   * @param kittieIdBlack uint256 kittieId of Black Corner\n   * @param kittieIdRed uint256 kittieId of Red Corner\n   * @param playerBlack address of Black Player\n   * @param playerRed address of Red Player\n   */\n  function checkPlayersKitties\n  (\n    uint gameId, uint kittieIdBlack, uint kittieIdRed,\n    address playerBlack, address playerRed\n  )\n    internal\n    returns(bool)\n  {\n    bool checkBlack;\n    bool checkRed;\n\n    //When one player hits start, that kittie is owned by kittieHELL\n    if (ckc.ownerOf(kittieIdBlack) == address(kittieHELL)) checkBlack = true;\n    else if(ckc.ownerOf(kittieIdBlack) == playerBlack) checkBlack = true;\n    else checkBlack = false;\n\n    if(ckc.ownerOf(kittieIdRed) == address(kittieHELL)) checkRed = true;\n    else if(ckc.ownerOf(kittieIdRed) == playerRed) checkRed = true;\n    else checkRed = false;\n\n    if (!(checkBlack && checkRed)) {\n      forfeitGame(gameId, 'Kittie Left');\n      return false;\n    }\n\n    return true;\n  }\n\n  /**\n   * @notice checks for correct amount of supporters in each side when prestart time is reached\n   * @param supportersBlack uint256 amount of supporters in black corner\n   * @param supportersRed uint256 amount of supporters in red corner\n   * @param gamePreStartTime uint256 time when game starts 2 min countdown\n   */\n  function checkAmountSupporters(uint gameId, uint supportersBlack, uint supportersRed, uint gamePreStartTime)\n    internal\n    returns(bool)\n  {\n    if (gamePreStartTime <= now) {\n      uint minSupporters = gameStore.getMinimumContributors(gameId); //TODO: should call getterDB as vars and fees are locked\n      if(supportersBlack < minSupporters || supportersRed < minSupporters){\n        forfeitGame(gameId, \"Undersupported\");\n        return false;\n      }\n    }\n\n    return true;\n  }\n\n  /**\n   * @notice Check if any of players did not hit start when game start time is reached\n   * @param blackStarted bool if black player hit start\n   * @param redStarted bool if red player hit start\n   * @param gameStartTime uint256 time when 2 min countdown ends\n   */\n  function didPlayersStartGame(uint gameId, bool blackStarted, bool redStarted, uint gameStartTime)\n    internal\n  {\n    if (gameStartTime <= now){\n      if(!blackStarted || !redStarted) forfeitGame(gameId, \"Did not hit start\");\n    }\n  }\n}",
  "sourcePath": "/Users/ziweizhang/Desktop/kittieFight-uniswap/contracts/contracts/modules/gamemanager/Forfeiter.sol",
  "compiler": {
    "name": "solc",
    "version": "0.5.17+commit.d19bba13.Emscripten.clang"
  },
  "schemaVersion": "3.0.23",
  "updatedAt": "2020-06-11T18:19:42.599Z",
  "networkType": "ethereum",
  "devdoc": {
    "author": "wafflemakr",
    "methods": {
      "initialize()": {
        "details": "contract addresses are stored in proxy"
      }
    },
    "title": "Forfeiter"
  },
  "userdoc": {
    "methods": {
      "initialize()": {
        "notice": "Owner can call this function to update the needed contracts for checking conditions"
      },
      "setProxy(address)": {
        "notice": "Set/update address of Proxy contract"
      }
    },
    "notice": "This contracts safeguards any game instances against any unintended outcomes"
  }
}