{
  "contractName": "Forfeiter",
  "abi": [
    {
      "constant": true,
      "inputs": [],
      "name": "gmGetterDB",
      "outputs": [
        {
          "internalType": "contract GMGetterDB",
          "name": "",
          "type": "address"
        }
      ],
      "payable": false,
      "stateMutability": "view",
      "type": "function"
    },
    {
      "constant": true,
      "inputs": [],
      "name": "NOT_HIT_START",
      "outputs": [
        {
          "internalType": "uint256",
          "name": "",
          "type": "uint256"
        }
      ],
      "payable": false,
      "stateMutability": "view",
      "type": "function"
    },
    {
      "constant": true,
      "inputs": [],
      "name": "owner",
      "outputs": [
        {
          "internalType": "address payable",
          "name": "",
          "type": "address"
        }
      ],
      "payable": false,
      "stateMutability": "view",
      "type": "function"
    },
    {
      "constant": false,
      "inputs": [
        {
          "internalType": "contract ProxyBase",
          "name": "_proxy",
          "type": "address"
        }
      ],
      "name": "setProxy",
      "outputs": [],
      "payable": false,
      "stateMutability": "nonpayable",
      "type": "function"
    },
    {
      "constant": true,
      "inputs": [],
      "name": "ckc",
      "outputs": [
        {
          "internalType": "contract MockERC721Token",
          "name": "",
          "type": "address"
        }
      ],
      "payable": false,
      "stateMutability": "view",
      "type": "function"
    },
    {
      "constant": true,
      "inputs": [],
      "name": "gameVarAndFee",
      "outputs": [
        {
          "internalType": "contract GameVarAndFee",
          "name": "",
          "type": "address"
        }
      ],
      "payable": false,
      "stateMutability": "view",
      "type": "function"
    },
    {
      "constant": true,
      "inputs": [],
      "name": "gameStore",
      "outputs": [
        {
          "internalType": "contract GameStore",
          "name": "",
          "type": "address"
        }
      ],
      "payable": false,
      "stateMutability": "view",
      "type": "function"
    },
    {
      "constant": true,
      "inputs": [],
      "name": "gameManager",
      "outputs": [
        {
          "internalType": "contract GameManager",
          "name": "",
          "type": "address"
        }
      ],
      "payable": false,
      "stateMutability": "view",
      "type": "function"
    },
    {
      "constant": true,
      "inputs": [],
      "name": "kittieHELL",
      "outputs": [
        {
          "internalType": "contract KittieHell",
          "name": "",
          "type": "address"
        }
      ],
      "payable": false,
      "stateMutability": "view",
      "type": "function"
    },
    {
      "constant": true,
      "inputs": [],
      "name": "proxy",
      "outputs": [
        {
          "internalType": "contract ProxyBase",
          "name": "",
          "type": "address"
        }
      ],
      "payable": false,
      "stateMutability": "view",
      "type": "function"
    },
    {
      "constant": true,
      "inputs": [],
      "name": "KITTIE_LEFT",
      "outputs": [
        {
          "internalType": "uint256",
          "name": "",
          "type": "uint256"
        }
      ],
      "payable": false,
      "stateMutability": "view",
      "type": "function"
    },
    {
      "constant": true,
      "inputs": [],
      "name": "UNDERSUPPORTED",
      "outputs": [
        {
          "internalType": "uint256",
          "name": "",
          "type": "uint256"
        }
      ],
      "payable": false,
      "stateMutability": "view",
      "type": "function"
    },
    {
      "constant": false,
      "inputs": [
        {
          "internalType": "address payable",
          "name": "newOwner",
          "type": "address"
        }
      ],
      "name": "transferOwnership",
      "outputs": [],
      "payable": false,
      "stateMutability": "nonpayable",
      "type": "function"
    },
    {
      "anonymous": false,
      "inputs": [
        {
          "indexed": false,
          "internalType": "uint256",
          "name": "gameId",
          "type": "uint256"
        },
        {
          "indexed": false,
          "internalType": "string",
          "name": "reason",
          "type": "string"
        }
      ],
      "name": "GameCancelled",
      "type": "event"
    },
    {
      "constant": false,
      "inputs": [],
      "name": "initialize",
      "outputs": [],
      "payable": false,
      "stateMutability": "nonpayable",
      "type": "function"
    },
    {
      "constant": false,
      "inputs": [
        {
          "internalType": "uint256",
          "name": "gameId",
          "type": "uint256"
        },
        {
          "internalType": "string",
          "name": "reason",
          "type": "string"
        }
      ],
      "name": "forfeitCron",
      "outputs": [],
      "payable": false,
      "stateMutability": "nonpayable",
      "type": "function"
    },
    {
      "constant": false,
      "inputs": [
        {
          "internalType": "uint256",
          "name": "gameId",
          "type": "uint256"
        },
        {
          "internalType": "uint256",
          "name": "state",
          "type": "uint256"
        }
      ],
      "name": "checkGameStatusCron",
      "outputs": [],
      "payable": false,
      "stateMutability": "nonpayable",
      "type": "function"
    },
    {
      "constant": false,
      "inputs": [
        {
          "internalType": "uint256",
          "name": "gameId",
          "type": "uint256"
        },
        {
          "internalType": "uint256",
          "name": "state",
          "type": "uint256"
        }
      ],
      "name": "checkGameStatus",
      "outputs": [],
      "payable": false,
      "stateMutability": "nonpayable",
      "type": "function"
    },
    {
      "constant": false,
      "inputs": [
        {
          "internalType": "uint256",
          "name": "gameId",
          "type": "uint256"
        },
        {
          "internalType": "uint256",
          "name": "kittieIdBlack",
          "type": "uint256"
        },
        {
          "internalType": "uint256",
          "name": "kittieIdRed",
          "type": "uint256"
        },
        {
          "internalType": "address",
          "name": "playerBlack",
          "type": "address"
        },
        {
          "internalType": "address",
          "name": "playerRed",
          "type": "address"
        }
      ],
      "name": "checkPlayersKitties",
      "outputs": [
        {
          "internalType": "bool",
          "name": "",
          "type": "bool"
        }
      ],
      "payable": false,
      "stateMutability": "nonpayable",
      "type": "function"
    },
    {
      "constant": false,
      "inputs": [
        {
          "internalType": "uint256",
          "name": "gameId",
          "type": "uint256"
        },
        {
          "internalType": "uint256",
          "name": "supportersBlack",
          "type": "uint256"
        },
        {
          "internalType": "uint256",
          "name": "supportersRed",
          "type": "uint256"
        },
        {
          "internalType": "uint256",
          "name": "gamePreStartTime",
          "type": "uint256"
        }
      ],
      "name": "checkAmountSupporters",
      "outputs": [
        {
          "internalType": "bool",
          "name": "",
          "type": "bool"
        }
      ],
      "payable": false,
      "stateMutability": "nonpayable",
      "type": "function"
    },
    {
      "constant": false,
      "inputs": [
        {
          "internalType": "uint256",
          "name": "gameId",
          "type": "uint256"
        },
        {
          "internalType": "bool",
          "name": "blackStarted",
          "type": "bool"
        },
        {
          "internalType": "bool",
          "name": "redStarted",
          "type": "bool"
        },
        {
          "internalType": "uint256",
          "name": "gameStartTime",
          "type": "uint256"
        }
      ],
      "name": "didPlayersStartGame",
      "outputs": [],
      "payable": false,
      "stateMutability": "nonpayable",
      "type": "function"
    }
  ],
  "bytecode": "0x6080604052336000806101000a81548173ffffffffffffffffffffffffffffffffffffffff021916908373ffffffffffffffffffffffffffffffffffffffff1602179055506128e1806100536000396000f3fe608060405234801561001057600080fd5b506004361061012c5760003560e01c80639cb4bb27116100ad578063cfafbde711610071578063cfafbde71461059a578063ec556889146105e4578063ee8c4b6f1461062e578063f06204021461064c578063f2fde38b1461066a5761012c565b80639cb4bb27146103e9578063a3b3bd7b14610439578063b0c5831e14610483578063b1be646914610506578063c6b05266146105505761012c565b8063690b5f46116100f4578063690b5f461461026d5780638129fc1c146103075780638da5cb5b1461031157806397107d6d1461035b57806397764f891461039f5761012c565b806313cfe12d146101315780631fc7518014610195578063304b9503146101df57806333c0c10d146102175780635aaccebf14610235575b600080fd5b61017b6004803603608081101561014757600080fd5b81019080803590602001909291908035906020019092919080359060200190929190803590602001909291905050506106ae565b604051808215151515815260200191505060405180910390f35b61019d6107d3565b604051808273ffffffffffffffffffffffffffffffffffffffff1673ffffffffffffffffffffffffffffffffffffffff16815260200191505060405180910390f35b610215600480360360408110156101f557600080fd5b8101908080359060200190929190803590602001909291905050506107f9565b005b61021f610847565b6040518082815260200191505060405180910390f35b61026b6004803603604081101561024b57600080fd5b81019080803590602001909291908035906020019092919050505061084c565b005b6102ed600480360360a081101561028357600080fd5b81019080803590602001909291908035906020019092919080359060200190929190803573ffffffffffffffffffffffffffffffffffffffff169060200190929190803573ffffffffffffffffffffffffffffffffffffffff16906020019092919050505061089a565b604051808215151515815260200191505060405180910390f35b61030f610cff565b005b610319611687565b604051808273ffffffffffffffffffffffffffffffffffffffff1673ffffffffffffffffffffffffffffffffffffffff16815260200191505060405180910390f35b61039d6004803603602081101561037157600080fd5b81019080803573ffffffffffffffffffffffffffffffffffffffff1690602001909291905050506116ac565b005b6103a7611746565b604051808273ffffffffffffffffffffffffffffffffffffffff1673ffffffffffffffffffffffffffffffffffffffff16815260200191505060405180910390f35b610437600480360360808110156103ff57600080fd5b81019080803590602001909291908035151590602001909291908035151590602001909291908035906020019092919050505061176c565b005b6104416117d6565b604051808273ffffffffffffffffffffffffffffffffffffffff1673ffffffffffffffffffffffffffffffffffffffff16815260200191505060405180910390f35b6105046004803603604081101561049957600080fd5b8101908080359060200190929190803590602001906401000000008111156104c057600080fd5b8201836020820111156104d257600080fd5b803590602001918460018302840111640100000000831117156104f457600080fd5b90919293919293905050506117fc565b005b61050e61188f565b604051808273ffffffffffffffffffffffffffffffffffffffff1673ffffffffffffffffffffffffffffffffffffffff16815260200191505060405180910390f35b6105586118b5565b604051808273ffffffffffffffffffffffffffffffffffffffff1673ffffffffffffffffffffffffffffffffffffffff16815260200191505060405180910390f35b6105a26118db565b604051808273ffffffffffffffffffffffffffffffffffffffff1673ffffffffffffffffffffffffffffffffffffffff16815260200191505060405180910390f35b6105ec611901565b604051808273ffffffffffffffffffffffffffffffffffffffff1673ffffffffffffffffffffffffffffffffffffffff16815260200191505060405180910390f35b610636611927565b6040518082815260200191505060405180910390f35b61065461192c565b6040518082815260200191505060405180910390f35b6106ac6004803603602081101561068057600080fd5b81019080803573ffffffffffffffffffffffffffffffffffffffff169060200190929190505050611931565b005b60004282116107c6576000600260009054906101000a900473ffffffffffffffffffffffffffffffffffffffff1673ffffffffffffffffffffffffffffffffffffffff166331856c71876040518263ffffffff1660e01b81526004018082815260200191505060206040518083038186803b15801561072c57600080fd5b505afa158015610740573d6000803e3d6000fd5b505050506040513d602081101561075657600080fd5b810190808051906020019092919050505090508085108061077657508084105b156107c4576107ba866040518060400160405280600e81526020017f556e646572737570706f727465640000000000000000000000000000000000008152506119ff565b60009150506107cb565b505b600190505b949350505050565b600460009054906101000a900473ffffffffffffffffffffffffffffffffffffffff1681565b6040518060400160405280600c81526020017f47616d654372656174696f6e000000000000000000000000000000000000000081525061083881611f7c565b6108428383612217565b505050565b600281565b6040518060400160405280600b81526020017f47616d654d616e6167657200000000000000000000000000000000000000000081525061088b81611f7c565b6108958383612217565b505050565b6000806000600760009054906101000a900473ffffffffffffffffffffffffffffffffffffffff1673ffffffffffffffffffffffffffffffffffffffff16600660009054906101000a900473ffffffffffffffffffffffffffffffffffffffff1673ffffffffffffffffffffffffffffffffffffffff16636352211e896040518263ffffffff1660e01b81526004018082815260200191505060206040518083038186803b15801561094b57600080fd5b505afa15801561095f573d6000803e3d6000fd5b505050506040513d602081101561097557600080fd5b810190808051906020019092919050505073ffffffffffffffffffffffffffffffffffffffff1614156109ab5760019150610a9b565b8473ffffffffffffffffffffffffffffffffffffffff16600660009054906101000a900473ffffffffffffffffffffffffffffffffffffffff1673ffffffffffffffffffffffffffffffffffffffff16636352211e896040518263ffffffff1660e01b81526004018082815260200191505060206040518083038186803b158015610a3557600080fd5b505afa158015610a49573d6000803e3d6000fd5b505050506040513d6020811015610a5f57600080fd5b810190808051906020019092919050505073ffffffffffffffffffffffffffffffffffffffff161415610a955760019150610a9a565b600091505b5b600760009054906101000a900473ffffffffffffffffffffffffffffffffffffffff1673ffffffffffffffffffffffffffffffffffffffff16600660009054906101000a900473ffffffffffffffffffffffffffffffffffffffff1673ffffffffffffffffffffffffffffffffffffffff16636352211e886040518263ffffffff1660e01b81526004018082815260200191505060206040518083038186803b158015610b4757600080fd5b505afa158015610b5b573d6000803e3d6000fd5b505050506040513d6020811015610b7157600080fd5b810190808051906020019092919050505073ffffffffffffffffffffffffffffffffffffffff161415610ba75760019050610c97565b8373ffffffffffffffffffffffffffffffffffffffff16600660009054906101000a900473ffffffffffffffffffffffffffffffffffffffff1673ffffffffffffffffffffffffffffffffffffffff16636352211e886040518263ffffffff1660e01b81526004018082815260200191505060206040518083038186803b158015610c3157600080fd5b505afa158015610c45573d6000803e3d6000fd5b505050506040513d6020811015610c5b57600080fd5b810190808051906020019092919050505073ffffffffffffffffffffffffffffffffffffffff161415610c915760019050610c96565b600090505b5b818015610ca15750805b610cef57610ce4886040518060400160405280600b81526020017f4b6974746965204c6566740000000000000000000000000000000000000000008152506119ff565b600092505050610cf6565b6001925050505b95945050505050565b6000809054906101000a900473ffffffffffffffffffffffffffffffffffffffff1673ffffffffffffffffffffffffffffffffffffffff163373ffffffffffffffffffffffffffffffffffffffff1614610d5557fe5b600160009054906101000a900473ffffffffffffffffffffffffffffffffffffffff1673ffffffffffffffffffffffffffffffffffffffff1663358177736040518060400160405280600b81526020017f47616d654d616e616765720000000000000000000000000000000000000000008152506040518263ffffffff1660e01b81526004018080602001828103825283818151815260200191508051906020019080838360005b83811015610e18578082015181840152602081019050610dfd565b50505050905090810190601f168015610e455780820380516001836020036101000a031916815260200191505b509250505060206040518083038186803b158015610e6257600080fd5b505afa158015610e76573d6000803e3d6000fd5b505050506040513d6020811015610e8c57600080fd5b8101908080519060200190929190505050600360006101000a81548173ffffffffffffffffffffffffffffffffffffffff021916908373ffffffffffffffffffffffffffffffffffffffff160217905550600160009054906101000a900473ffffffffffffffffffffffffffffffffffffffff1673ffffffffffffffffffffffffffffffffffffffff1663358177736040518060400160405280600981526020017f47616d6553746f726500000000000000000000000000000000000000000000008152506040518263ffffffff1660e01b81526004018080602001828103825283818151815260200191508051906020019080838360005b83811015610fa0578082015181840152602081019050610f85565b50505050905090810190601f168015610fcd5780820380516001836020036101000a031916815260200191505b509250505060206040518083038186803b158015610fea57600080fd5b505afa158015610ffe573d6000803e3d6000fd5b505050506040513d602081101561101457600080fd5b8101908080519060200190929190505050600260006101000a81548173ffffffffffffffffffffffffffffffffffffffff021916908373ffffffffffffffffffffffffffffffffffffffff160217905550600160009054906101000a900473ffffffffffffffffffffffffffffffffffffffff1673ffffffffffffffffffffffffffffffffffffffff1663358177736040518060400160405280600a81526020017f474d4765747465724442000000000000000000000000000000000000000000008152506040518263ffffffff1660e01b81526004018080602001828103825283818151815260200191508051906020019080838360005b8381101561112857808201518184015260208101905061110d565b50505050905090810190601f1680156111555780820380516001836020036101000a031916815260200191505b509250505060206040518083038186803b15801561117257600080fd5b505afa158015611186573d6000803e3d6000fd5b505050506040513d602081101561119c57600080fd5b8101908080519060200190929190505050600460006101000a81548173ffffffffffffffffffffffffffffffffffffffff021916908373ffffffffffffffffffffffffffffffffffffffff160217905550600160009054906101000a900473ffffffffffffffffffffffffffffffffffffffff1673ffffffffffffffffffffffffffffffffffffffff1663358177736040518060400160405280600d81526020017f47616d65566172416e64466565000000000000000000000000000000000000008152506040518263ffffffff1660e01b81526004018080602001828103825283818151815260200191508051906020019080838360005b838110156112b0578082015181840152602081019050611295565b50505050905090810190601f1680156112dd5780820380516001836020036101000a031916815260200191505b509250505060206040518083038186803b1580156112fa57600080fd5b505afa15801561130e573d6000803e3d6000fd5b505050506040513d602081101561132457600080fd5b8101908080519060200190929190505050600560006101000a81548173ffffffffffffffffffffffffffffffffffffffff021916908373ffffffffffffffffffffffffffffffffffffffff160217905550600160009054906101000a900473ffffffffffffffffffffffffffffffffffffffff1673ffffffffffffffffffffffffffffffffffffffff1663358177736040518060400160405280600d81526020017f43727970746f4b697474696573000000000000000000000000000000000000008152506040518263ffffffff1660e01b81526004018080602001828103825283818151815260200191508051906020019080838360005b8381101561143857808201518184015260208101905061141d565b50505050905090810190601f1680156114655780820380516001836020036101000a031916815260200191505b509250505060206040518083038186803b15801561148257600080fd5b505afa158015611496573d6000803e3d6000fd5b505050506040513d60208110156114ac57600080fd5b8101908080519060200190929190505050600660006101000a81548173ffffffffffffffffffffffffffffffffffffffff021916908373ffffffffffffffffffffffffffffffffffffffff160217905550600160009054906101000a900473ffffffffffffffffffffffffffffffffffffffff1673ffffffffffffffffffffffffffffffffffffffff1663358177736040518060400160405280600a81526020017f4b697474696548656c6c000000000000000000000000000000000000000000008152506040518263ffffffff1660e01b81526004018080602001828103825283818151815260200191508051906020019080838360005b838110156115c05780820151818401526020810190506115a5565b50505050905090810190601f1680156115ed5780820380516001836020036101000a031916815260200191505b509250505060206040518083038186803b15801561160a57600080fd5b505afa15801561161e573d6000803e3d6000fd5b505050506040513d602081101561163457600080fd5b8101908080519060200190929190505050600760006101000a81548173ffffffffffffffffffffffffffffffffffffffff021916908373ffffffffffffffffffffffffffffffffffffffff160217905550565b6000809054906101000a900473ffffffffffffffffffffffffffffffffffffffff1681565b6000809054906101000a900473ffffffffffffffffffffffffffffffffffffffff1673ffffffffffffffffffffffffffffffffffffffff163373ffffffffffffffffffffffffffffffffffffffff161461170257fe5b80600160006101000a81548173ffffffffffffffffffffffffffffffffffffffff021916908373ffffffffffffffffffffffffffffffffffffffff16021790555050565b600660009054906101000a900473ffffffffffffffffffffffffffffffffffffffff1681565b4281116117d05760001515831515148061178a575060001515821515145b156117cf576117ce846040518060400160405280601181526020017f446964206e6f74206869742073746172740000000000000000000000000000008152506119ff565b5b5b50505050565b600560009054906101000a900473ffffffffffffffffffffffffffffffffffffffff1681565b6040518060400160405280600c81526020017f47616d654372656174696f6e000000000000000000000000000000000000000081525061183b81611f7c565b6118898484848080601f016020809104026020016040519081016040528093929190818152602001838380828437600081840152601f19601f820116905080830192505050505050506119ff565b50505050565b600260009054906101000a900473ffffffffffffffffffffffffffffffffffffffff1681565b600360009054906101000a900473ffffffffffffffffffffffffffffffffffffffff1681565b600760009054906101000a900473ffffffffffffffffffffffffffffffffffffffff1681565b600160009054906101000a900473ffffffffffffffffffffffffffffffffffffffff1681565b600181565b600081565b6000809054906101000a900473ffffffffffffffffffffffffffffffffffffffff1673ffffffffffffffffffffffffffffffffffffffff163373ffffffffffffffffffffffffffffffffffffffff161461198757fe5b600073ffffffffffffffffffffffffffffffffffffffff168173ffffffffffffffffffffffffffffffffffffffff16146119fc57806000806101000a81548173ffffffffffffffffffffffffffffffffffffffff021916908373ffffffffffffffffffffffffffffffffffffffff1602179055505b50565b600080600080600460009054906101000a900473ffffffffffffffffffffffffffffffffffffffff1673ffffffffffffffffffffffffffffffffffffffff166315a40f49876040518263ffffffff1660e01b81526004018082815260200191505060806040518083038186803b158015611a7857600080fd5b505afa158015611a8c573d6000803e3d6000fd5b505050506040513d6080811015611aa257600080fd5b81019080805190602001909291908051906020019092919080519060200190929190805190602001909291905050509350935093509350600760009054906101000a900473ffffffffffffffffffffffffffffffffffffffff1673ffffffffffffffffffffffffffffffffffffffff16600660009054906101000a900473ffffffffffffffffffffffffffffffffffffffff1673ffffffffffffffffffffffffffffffffffffffff16636352211e846040518263ffffffff1660e01b81526004018082815260200191505060206040518083038186803b158015611b8557600080fd5b505afa158015611b99573d6000803e3d6000fd5b505050506040513d6020811015611baf57600080fd5b810190808051906020019092919050505073ffffffffffffffffffffffffffffffffffffffff161415611c8e57600760009054906101000a900473ffffffffffffffffffffffffffffffffffffffff1673ffffffffffffffffffffffffffffffffffffffff1663f4b50fae836040518263ffffffff1660e01b815260040180828152602001915050602060405180830381600087803b158015611c5157600080fd5b505af1158015611c65573d6000803e3d6000fd5b505050506040513d6020811015611c7b57600080fd5b8101908080519060200190929190505050505b600760009054906101000a900473ffffffffffffffffffffffffffffffffffffffff1673ffffffffffffffffffffffffffffffffffffffff16600660009054906101000a900473ffffffffffffffffffffffffffffffffffffffff1673ffffffffffffffffffffffffffffffffffffffff16636352211e836040518263ffffffff1660e01b81526004018082815260200191505060206040518083038186803b158015611d3a57600080fd5b505afa158015611d4e573d6000803e3d6000fd5b505050506040513d6020811015611d6457600080fd5b810190808051906020019092919050505073ffffffffffffffffffffffffffffffffffffffff161415611e4357600760009054906101000a900473ffffffffffffffffffffffffffffffffffffffff1673ffffffffffffffffffffffffffffffffffffffff1663f4b50fae826040518263ffffffff1660e01b815260040180828152602001915050602060405180830381600087803b158015611e0657600080fd5b505af1158015611e1a573d6000803e3d6000fd5b505050506040513d6020811015611e3057600080fd5b8101908080519060200190929190505050505b600360009054906101000a900473ffffffffffffffffffffffffffffffffffffffff1673ffffffffffffffffffffffffffffffffffffffff166369958ab9876040518263ffffffff1660e01b815260040180828152602001915050600060405180830381600087803b158015611eb857600080fd5b505af1158015611ecc573d6000803e3d6000fd5b505050507f0f023b047be6c305859504186f8b03ee5a634f9ab472ff386d3b1de9387c083e86866040518083815260200180602001828103825283818151815260200191508051906020019080838360005b83811015611f39578082015181840152602081019050611f1e565b50505050905090810190601f168015611f665780820380516001836020036101000a031916815260200191505b50935050505060405180910390a1505050505050565b600073ffffffffffffffffffffffffffffffffffffffff16600160009054906101000a900473ffffffffffffffffffffffffffffffffffffffff1673ffffffffffffffffffffffffffffffffffffffff161415612041576040517f08c379a00000000000000000000000000000000000000000000000000000000081526004018080602001828103825260088152602001807f4e6f2050726f787900000000000000000000000000000000000000000000000081525060200191505060405180910390fd5b6000600160009054906101000a900473ffffffffffffffffffffffffffffffffffffffff1673ffffffffffffffffffffffffffffffffffffffff166335817773836040518263ffffffff1660e01b81526004018080602001828103825283818151815260200191508051906020019080838360005b838110156120d15780820151818401526020810190506120b6565b50505050905090810190601f1680156120fe5780820380516001836020036101000a031916815260200191505b509250505060206040518083038186803b15801561211b57600080fd5b505afa15801561212f573d6000803e3d6000fd5b505050506040513d602081101561214557600080fd5b81019080805190602001909291905050509050600073ffffffffffffffffffffffffffffffffffffffff168173ffffffffffffffffffffffffffffffffffffffff16141561218f57fe5b8073ffffffffffffffffffffffffffffffffffffffff163373ffffffffffffffffffffffffffffffffffffffff1614612213576040517f08c379a000000000000000000000000000000000000000000000000000000000815260040180806020018281038252602d815260200180612880602d913960400191505060405180910390fd5b5050565b600080600080600460009054906101000a900473ffffffffffffffffffffffffffffffffffffffff1673ffffffffffffffffffffffffffffffffffffffff166315a40f49876040518263ffffffff1660e01b81526004018082815260200191505060806040518083038186803b15801561229057600080fd5b505afa1580156122a4573d6000803e3d6000fd5b505050506040513d60808110156122ba57600080fd5b8101908080519060200190929190805190602001909291908051906020019092919080519060200190929190505050935093509350935060008514156125b8576000600460009054906101000a900473ffffffffffffffffffffffffffffffffffffffff1673ffffffffffffffffffffffffffffffffffffffff16638851470d886040518263ffffffff1660e01b81526004018082815260200191505060606040518083038186803b15801561236f57600080fd5b505afa158015612383573d6000803e3d6000fd5b505050506040513d606081101561239957600080fd5b81019080805190602001909291908051906020019092919080519060200190929190505050509150506000600460009054906101000a900473ffffffffffffffffffffffffffffffffffffffff1673ffffffffffffffffffffffffffffffffffffffff1663de4128de89886040518363ffffffff1660e01b8152600401808381526020018273ffffffffffffffffffffffffffffffffffffffff1673ffffffffffffffffffffffffffffffffffffffff1681526020019250505060206040518083038186803b15801561246b57600080fd5b505afa15801561247f573d6000803e3d6000fd5b505050506040513d602081101561249557600080fd5b810190808051906020019092919050505090506000600460009054906101000a900473ffffffffffffffffffffffffffffffffffffffff1673ffffffffffffffffffffffffffffffffffffffff1663de4128de8a886040518363ffffffff1660e01b8152600401808381526020018273ffffffffffffffffffffffffffffffffffffffff1673ffffffffffffffffffffffffffffffffffffffff1681526020019250505060206040518083038186803b15801561255157600080fd5b505afa158015612565573d6000803e3d6000fd5b505050506040513d602081101561257b57600080fd5b81019080805190602001909291905050509050600061259d8a87878b8b61089a565b905080156125b3576125b18a8484876106ae565b505b505050505b6001851415612877576000600460009054906101000a900473ffffffffffffffffffffffffffffffffffffffff1673ffffffffffffffffffffffffffffffffffffffff16638851470d886040518263ffffffff1660e01b81526004018082815260200191505060606040518083038186803b15801561263657600080fd5b505afa15801561264a573d6000803e3d6000fd5b505050506040513d606081101561266057600080fd5b81019080805190602001909291908051906020019092919080519060200190929190505050505090506000600260009054906101000a900473ffffffffffffffffffffffffffffffffffffffff1673ffffffffffffffffffffffffffffffffffffffff1663ebff754a89876040518363ffffffff1660e01b8152600401808381526020018273ffffffffffffffffffffffffffffffffffffffff1673ffffffffffffffffffffffffffffffffffffffff1681526020019250505060206040518083038186803b15801561273257600080fd5b505afa158015612746573d6000803e3d6000fd5b505050506040513d602081101561275c57600080fd5b810190808051906020019092919050505090506000600260009054906101000a900473ffffffffffffffffffffffffffffffffffffffff1673ffffffffffffffffffffffffffffffffffffffff1663ebff754a8a896040518363ffffffff1660e01b8152600401808381526020018273ffffffffffffffffffffffffffffffffffffffff1673ffffffffffffffffffffffffffffffffffffffff1681526020019250505060206040518083038186803b15801561281857600080fd5b505afa15801561282c573d6000803e3d6000fd5b505050506040513d602081101561284257600080fd5b8101908080519060200190929190505050905060006128648a87878b8b61089a565b90506128728a83858761176c565b505050505b50505050505056fe416363657373206973206f6e6c7920616c6c6f7765642066726f6d20737065636966696320636f6e7472616374a265627a7a723158204754a424f6a8be05a19256618d5a5572865937715680e8710ffb1b04ffe89c0c64736f6c634300050b0032",
  "source": "// This program is free software: you can redistribute it and/or modify\n// it under the terms of the GNU General Public License as published by\n// the Free Software Foundation, either version 3 of the License, or\n// (at your option) any later version.\n\n// This program is distributed in the hope that it will be useful,\n// but WITHOUT ANY WARRANTY; without even the implied warranty of\n// MERCHANTABILITY or FITNESS FOR A PARTICULAR PURPOSE.  See the\n// GNU General Public License for more details.\n\n// You should have received a copy of the GNU General Public License\n// along with this program.  If not, see <http://www.gnu.org/licenses/>.\npragma solidity ^0.5.5;\n\nimport \"../proxy/Proxied.sol\";\nimport \"../databases/GMGetterDB.sol\";\nimport \"./GameStore.sol\";\nimport \"./GameManager.sol\";\nimport \"../../GameVarAndFee.sol\";\n//ADDED\nimport \"../../mocks/MockERC721Token.sol\";\nimport '../kittieHELL/KittieHell.sol';\n\n\n/**\n * @title Forfeiter\n * @notice This contracts safeguards any game instances against any unintended outcomes\n * @author wafflemakr\n */\ncontract Forfeiter is Proxied {\n\n  GameStore public gameStore;\n  GameManager public gameManager;\n  GMGetterDB public gmGetterDB;\n  GameVarAndFee public gameVarAndFee;\n  MockERC721Token public ckc;\n  KittieHell public kittieHELL;\n\n  uint256 public constant UNDERSUPPORTED = 0;\n  uint256 public constant KITTIE_LEFT = 1;\n  uint256 public constant NOT_HIT_START = 2;\n\n  event GameCancelled(uint gameId, string reason);\n\n  /**\n   * @notice Owner can call this function to update the needed contracts for checking conditions\n   * @dev contract addresses are stored in proxy\n   */\n  function initialize() external onlyOwner {\n    gameManager = GameManager(proxy.getContract(CONTRACT_NAME_GAMEMANAGER));\n    gameStore = GameStore(proxy.getContract(CONTRACT_NAME_GAMESTORE));\n    gmGetterDB = GMGetterDB(proxy.getContract(CONTRACT_NAME_GM_GETTER_DB));\n    gameVarAndFee = GameVarAndFee(proxy.getContract(CONTRACT_NAME_GAMEVARANDFEE));\n    ckc = MockERC721Token(proxy.getContract(CONTRACT_NAME_CRYPTOKITTIES));\n    kittieHELL = KittieHell(proxy.getContract(CONTRACT_NAME_KITTIEHELL));\n  }\n\n  /**\n   * @notice Called each time there is ANY interaction with a game instance within the gameManager\n   * @dev function called only by the Game Manager contract\n   * @param gameId uint256 game or fight id\n   */\n  function checkStatus(uint256 gameId, uint gameState)\n    internal\n  {\n    (address playerBlack, address playerRed, uint256 kittyBlack,\n      uint256 kittyRed) = gmGetterDB.getGamePlayers(gameId);\n\n    // GAME_CREATED\n    if (gameState == 0) {\n      (,uint256 gamePreStartTime,) = gmGetterDB.getGameTimes(gameId);\n      uint supportersBlack = gmGetterDB.getSupporters(gameId, playerBlack);\n      uint supportersRed = gmGetterDB.getSupporters(gameId, playerRed);\n\n      bool check = checkPlayersKitties(gameId, kittyBlack, kittyRed, playerBlack, playerRed);\n      //if previous check passes, check players start\n       if(check) checkAmountSupporters(gameId, supportersBlack, supportersRed, gamePreStartTime);\n    }\n\n    // GAME_PRESTART\n    if (gameState == 1) {\n      (uint256 gameStartTime,,) = gmGetterDB.getGameTimes(gameId);\n      bool redStarted = gameStore.didHitStart(gameId, playerRed);\n      //*FIXED*\n      bool blackStarted = gameStore.didHitStart(gameId, playerBlack);\n\n      bool check = checkPlayersKitties(gameId, kittyBlack, kittyRed, playerBlack, playerRed); // TODO check why it fails here\n      //if previous check passes, check players start\n      /*if(check)*/ didPlayersStartGame(gameId, blackStarted, redStarted, gameStartTime);\n    }\n  }\n\n  /**\n   * @notice calls cancelGame on a game instance within the GamesManager\n   * @dev called by \"CheckStatus\" if any of the required conditions are false\n   *  (Not called in case of underPerformed returning true )\n   * @param gameId uint256\n   */\n  function forfeitGame(uint256 gameId, string memory reason) internal {\n    (address playerBlack, address playerRed, uint256 kittyBlack,\n      uint256 kittyRed) = gmGetterDB.getGamePlayers(gameId);\n    //If owner KittieHell, otherwise maybe change owner\n    if(ckc.ownerOf(kittyBlack) == address(kittieHELL)) kittieHELL.releaseKittyForfeiter(kittyBlack);\n    if(ckc.ownerOf(kittyRed) == address(kittieHELL)) kittieHELL.releaseKittyForfeiter(kittyRed);\n    gameManager.cancelGame(gameId);\n    emit GameCancelled(gameId, reason);\n  }\n\n  function forfeitCron(uint256 gameId, string calldata reason)\n    external\n    onlyContract(CONTRACT_NAME_GAMECREATION)\n  {\n    forfeitGame(gameId, reason);\n  }\n\n  function checkGameStatusCron(uint256 gameId, uint state)\n    external\n    onlyContract(CONTRACT_NAME_GAMECREATION)\n  {\n    checkStatus(gameId, state);\n  }\n\n  function checkGameStatus(uint256 gameId, uint state)\n    external\n    onlyContract(CONTRACT_NAME_GAMEMANAGER)\n  {\n    checkStatus(gameId, state);\n  }\n\n  /**\n   * @notice checks that the each player still own listed kittie\n   * @dev it can also be owned by kittie hell\n   * @param kittieIdBlack uint256 kittieId of Black Corner\n   * @param kittieIdRed uint256 kittieId of Red Corner\n   * @param playerBlack address of Black Player\n   * @param playerRed address of Red Player\n   */\n  function checkPlayersKitties\n  (\n    uint gameId, uint kittieIdBlack, uint kittieIdRed,\n    address playerBlack, address playerRed\n  )\n    public returns(bool)\n  {\n    bool checkBlack;\n    bool checkRed;\n\n    //When one player hits start, that kittie is owned by kittieHELL\n    if (ckc.ownerOf(kittieIdBlack) == address(kittieHELL)) checkBlack = true;\n    else if(ckc.ownerOf(kittieIdBlack) == playerBlack) checkBlack = true;\n    else checkBlack = false;\n\n    if(ckc.ownerOf(kittieIdRed) == address(kittieHELL)) checkRed = true;\n    else if(ckc.ownerOf(kittieIdRed) == playerRed) checkRed = true;\n    else checkRed = false;\n\n    if (!(checkBlack && checkRed)) {\n      forfeitGame(gameId, 'Kittie Left');\n      return false;\n    }\n\n    return true;\n  }\n\n  /**\n   * @notice checks for correct amount of supporters in each side when prestart time is reached\n   * @param supportersBlack uint256 amount of supporters in black corner\n   * @param supportersRed uint256 amount of supporters in red corner\n   * @param gamePreStartTime uint256 time when game starts 2 min countdown\n   */\n  function checkAmountSupporters(uint gameId, uint supportersBlack, uint supportersRed, uint gamePreStartTime)\n    public  returns(bool)\n  {\n    if (gamePreStartTime <= now) {\n      uint minSupporters = gameStore.getMinimumContributors(gameId); //TODO: should call getterDB as vars and fees are locked\n      if(supportersBlack < minSupporters || supportersRed < minSupporters){\n        forfeitGame(gameId, \"Undersupported\");\n        return false;\n      }\n    }\n\n    return true;\n  }\n\n  /**\n   * @notice Check if any of players did not hit start when game start time is reached\n   * @param blackStarted bool if black player hit start\n   * @param redStarted bool if red player hit start\n   * @param gameStartTime uint256 time when 2 min countdown ends\n   */\n  function didPlayersStartGame(uint gameId, bool blackStarted, bool redStarted, uint gameStartTime)\n    public \n  {\n    if (gameStartTime <= now){\n      //Changed\n      if((blackStarted == false) || (redStarted == false)){\n        forfeitGame(gameId, \"Did not hit start\");\n      }\n    }\n  }\n}",
  "sourcePath": "/home/wafflemakr/Desktop/KittieFight/alpha/contracts/modules/gamemanager/Forfeiter.sol",
  "compiler": {
    "name": "solc",
    "version": "0.5.11+commit.c082d0b4.Emscripten.clang"
  },
  "schemaVersion": "3.0.11",
  "updatedAt": "2019-08-15T01:42:44.334Z",
  "devdoc": {
    "author": "wafflemakr",
    "methods": {
      "checkAmountSupporters(uint256,uint256,uint256,uint256)": {
        "params": {
          "gamePreStartTime": "uint256 time when game starts 2 min countdown",
          "supportersBlack": "uint256 amount of supporters in black corner",
          "supportersRed": "uint256 amount of supporters in red corner"
        }
      },
      "checkPlayersKitties(uint256,uint256,uint256,address,address)": {
        "details": "it can also be owned by kittie hell",
        "params": {
          "kittieIdBlack": "uint256 kittieId of Black Corner",
          "kittieIdRed": "uint256 kittieId of Red Corner",
          "playerBlack": "address of Black Player",
          "playerRed": "address of Red Player"
        }
      },
      "didPlayersStartGame(uint256,bool,bool,uint256)": {
        "params": {
          "blackStarted": "bool if black player hit start",
          "gameStartTime": "uint256 time when 2 min countdown ends",
          "redStarted": "bool if red player hit start"
        }
      },
      "initialize()": {
        "details": "contract addresses are stored in proxy"
      }
    },
    "title": "Forfeiter"
  },
  "userdoc": {
    "methods": {
      "checkAmountSupporters(uint256,uint256,uint256,uint256)": {
        "notice": "checks for correct amount of supporters in each side when prestart time is reached"
      },
      "checkPlayersKitties(uint256,uint256,uint256,address,address)": {
        "notice": "checks that the each player still own listed kittie"
      },
      "didPlayersStartGame(uint256,bool,bool,uint256)": {
        "notice": "Check if any of players did not hit start when game start time is reached"
      },
      "initialize()": {
        "notice": "Owner can call this function to update the needed contracts for checking conditions"
      },
      "setProxy(address)": {
        "notice": "Set/update address of Proxy contract"
      }
    },
    "notice": "This contracts safeguards any game instances against any unintended outcomes"
  }
}