{
  "contractName": "Forfeiter",
  "abi": [
    {
      "constant": true,
      "inputs": [],
      "name": "gmGetterDB",
      "outputs": [
        {
          "name": "",
          "type": "address"
        }
      ],
      "payable": false,
      "stateMutability": "view",
      "type": "function"
    },
    {
      "constant": true,
      "inputs": [],
      "name": "NOT_HIT_START",
      "outputs": [
        {
          "name": "",
          "type": "uint256"
        }
      ],
      "payable": false,
      "stateMutability": "view",
      "type": "function"
    },
    {
      "constant": true,
      "inputs": [],
      "name": "owner",
      "outputs": [
        {
          "name": "",
          "type": "address"
        }
      ],
      "payable": false,
      "stateMutability": "view",
      "type": "function"
    },
    {
      "constant": false,
      "inputs": [
        {
          "name": "_proxy",
          "type": "address"
        }
      ],
      "name": "setProxy",
      "outputs": [],
      "payable": false,
      "stateMutability": "nonpayable",
      "type": "function"
    },
    {
      "constant": true,
      "inputs": [],
      "name": "ckc",
      "outputs": [
        {
          "name": "",
          "type": "address"
        }
      ],
      "payable": false,
      "stateMutability": "view",
      "type": "function"
    },
    {
      "constant": true,
      "inputs": [],
      "name": "gameVarAndFee",
      "outputs": [
        {
          "name": "",
          "type": "address"
        }
      ],
      "payable": false,
      "stateMutability": "view",
      "type": "function"
    },
    {
      "constant": true,
      "inputs": [],
      "name": "gameStore",
      "outputs": [
        {
          "name": "",
          "type": "address"
        }
      ],
      "payable": false,
      "stateMutability": "view",
      "type": "function"
    },
    {
      "constant": true,
      "inputs": [],
      "name": "gameManager",
      "outputs": [
        {
          "name": "",
          "type": "address"
        }
      ],
      "payable": false,
      "stateMutability": "view",
      "type": "function"
    },
    {
      "constant": true,
      "inputs": [],
      "name": "kittieHELL",
      "outputs": [
        {
          "name": "",
          "type": "address"
        }
      ],
      "payable": false,
      "stateMutability": "view",
      "type": "function"
    },
    {
      "constant": true,
      "inputs": [],
      "name": "proxy",
      "outputs": [
        {
          "name": "",
          "type": "address"
        }
      ],
      "payable": false,
      "stateMutability": "view",
      "type": "function"
    },
    {
      "constant": true,
      "inputs": [],
      "name": "KITTIE_LEFT",
      "outputs": [
        {
          "name": "",
          "type": "uint256"
        }
      ],
      "payable": false,
      "stateMutability": "view",
      "type": "function"
    },
    {
      "constant": true,
      "inputs": [],
      "name": "UNDERSUPPORTED",
      "outputs": [
        {
          "name": "",
          "type": "uint256"
        }
      ],
      "payable": false,
      "stateMutability": "view",
      "type": "function"
    },
    {
      "constant": false,
      "inputs": [
        {
          "name": "newOwner",
          "type": "address"
        }
      ],
      "name": "transferOwnership",
      "outputs": [],
      "payable": false,
      "stateMutability": "nonpayable",
      "type": "function"
    },
    {
      "anonymous": false,
      "inputs": [
        {
          "indexed": false,
          "name": "gameId",
          "type": "uint256"
        },
        {
          "indexed": false,
          "name": "reason",
          "type": "string"
        }
      ],
      "name": "GameCancelled",
      "type": "event"
    },
    {
      "constant": false,
      "inputs": [],
      "name": "initialize",
      "outputs": [],
      "payable": false,
      "stateMutability": "nonpayable",
      "type": "function"
    },
    {
      "constant": false,
      "inputs": [
        {
          "name": "gameId",
          "type": "uint256"
        },
        {
          "name": "gameState",
          "type": "uint256"
        }
      ],
      "name": "checkGameStatus",
      "outputs": [],
      "payable": false,
      "stateMutability": "nonpayable",
      "type": "function"
    },
    {
      "constant": false,
      "inputs": [
        {
          "name": "gameId",
          "type": "uint256"
        },
        {
          "name": "kittieIdBlack",
          "type": "uint256"
        },
        {
          "name": "kittieIdRed",
          "type": "uint256"
        },
        {
          "name": "playerBlack",
          "type": "address"
        },
        {
          "name": "playerRed",
          "type": "address"
        }
      ],
      "name": "checkPlayersKitties",
      "outputs": [
        {
          "name": "",
          "type": "bool"
        }
      ],
      "payable": false,
      "stateMutability": "nonpayable",
      "type": "function"
    },
    {
      "constant": false,
      "inputs": [
        {
          "name": "gameId",
          "type": "uint256"
        },
        {
          "name": "supportersBlack",
          "type": "uint256"
        },
        {
          "name": "supportersRed",
          "type": "uint256"
        },
        {
          "name": "gamePreStartTime",
          "type": "uint256"
        }
      ],
      "name": "checkAmountSupporters",
      "outputs": [
        {
          "name": "",
          "type": "bool"
        }
      ],
      "payable": false,
      "stateMutability": "nonpayable",
      "type": "function"
    },
    {
      "constant": false,
      "inputs": [
        {
          "name": "gameId",
          "type": "uint256"
        },
        {
          "name": "blackStarted",
          "type": "bool"
        },
        {
          "name": "redStarted",
          "type": "bool"
        },
        {
          "name": "gameStartTime",
          "type": "uint256"
        }
      ],
      "name": "didPlayersStartGame",
      "outputs": [
        {
          "name": "",
          "type": "bool"
        }
      ],
      "payable": false,
      "stateMutability": "nonpayable",
      "type": "function"
    }
  ],
  "bytecode": "0x6080604052336000806101000a81548173ffffffffffffffffffffffffffffffffffffffff021916908373ffffffffffffffffffffffffffffffffffffffff1602179055506124fc806100536000396000f3fe608060405234801561001057600080fd5b50600436106101165760003560e01c80639cb4bb27116100a2578063cfafbde711610071578063cfafbde7146104e1578063ec5568891461052b578063ee8c4b6f14610575578063f062040214610593578063f2fde38b146105b157610116565b80639cb4bb271461039b578063a3b3bd7b14610403578063b1be64691461044d578063c6b052661461049757610116565b8063690b5f46116100e9578063690b5f461461021f5780638129fc1c146102b95780638da5cb5b146102c357806397107d6d1461030d57806397764f891461035157610116565b806313cfe12d1461011b5780631fc751801461017f57806333c0c10d146101c95780635aaccebf146101e7575b600080fd5b6101656004803603608081101561013157600080fd5b81019080803590602001909291908035906020019092919080359060200190929190803590602001909291905050506105f5565b604051808215151515815260200191505060405180910390f35b610187610705565b604051808273ffffffffffffffffffffffffffffffffffffffff1673ffffffffffffffffffffffffffffffffffffffff16815260200191505060405180910390f35b6101d161072b565b6040518082815260200191505060405180910390f35b61021d600480360360408110156101fd57600080fd5b810190808035906020019092919080359060200190929190505050610730565b005b61029f600480360360a081101561023557600080fd5b81019080803590602001909291908035906020019092919080359060200190929190803573ffffffffffffffffffffffffffffffffffffffff169060200190929190803573ffffffffffffffffffffffffffffffffffffffff169060200190929190505050610de0565b604051808215151515815260200191505060405180910390f35b6102c1611223565b005b6102cb611bab565b604051808273ffffffffffffffffffffffffffffffffffffffff1673ffffffffffffffffffffffffffffffffffffffff16815260200191505060405180910390f35b61034f6004803603602081101561032357600080fd5b81019080803573ffffffffffffffffffffffffffffffffffffffff169060200190929190505050611bd0565b005b610359611c6a565b604051808273ffffffffffffffffffffffffffffffffffffffff1673ffffffffffffffffffffffffffffffffffffffff16815260200191505060405180910390f35b6103e9600480360360808110156103b157600080fd5b810190808035906020019092919080351515906020019092919080351515906020019092919080359060200190929190505050611c90565b604051808215151515815260200191505060405180910390f35b61040b611cfb565b604051808273ffffffffffffffffffffffffffffffffffffffff1673ffffffffffffffffffffffffffffffffffffffff16815260200191505060405180910390f35b610455611d21565b604051808273ffffffffffffffffffffffffffffffffffffffff1673ffffffffffffffffffffffffffffffffffffffff16815260200191505060405180910390f35b61049f611d47565b604051808273ffffffffffffffffffffffffffffffffffffffff1673ffffffffffffffffffffffffffffffffffffffff16815260200191505060405180910390f35b6104e9611d6d565b604051808273ffffffffffffffffffffffffffffffffffffffff1673ffffffffffffffffffffffffffffffffffffffff16815260200191505060405180910390f35b610533611d93565b604051808273ffffffffffffffffffffffffffffffffffffffff1673ffffffffffffffffffffffffffffffffffffffff16815260200191505060405180910390f35b61057d611db9565b6040518082815260200191505060405180910390f35b61059b611dbe565b6040518082815260200191505060405180910390f35b6105f3600480360360208110156105c757600080fd5b81019080803573ffffffffffffffffffffffffffffffffffffffff169060200190929190505050611dc3565b005b60004282116106fd576000600560009054906101000a900473ffffffffffffffffffffffffffffffffffffffff1673ffffffffffffffffffffffffffffffffffffffff166368afa5416040518163ffffffff1660e01b815260040160206040518083038186803b15801561066857600080fd5b505afa15801561067c573d6000803e3d6000fd5b505050506040513d602081101561069257600080fd5b810190808051906020019092919050505090508085101515806106b6575080841015155b156106fb576106fa866040518060400160405280600e81526020017f556e646572737570706f72746564000000000000000000000000000000000000815250611e91565b5b505b949350505050565b600460009054906101000a900473ffffffffffffffffffffffffffffffffffffffff1681565b600281565b6040518060400160405280600b81526020017f47616d654d616e6167657200000000000000000000000000000000000000000081525061076f816121ff565b600080600080600460009054906101000a900473ffffffffffffffffffffffffffffffffffffffff1673ffffffffffffffffffffffffffffffffffffffff166315a40f49886040518263ffffffff1660e01b81526004018082815260200191505060806040518083038186803b1580156107e857600080fd5b505afa1580156107fc573d6000803e3d6000fd5b505050506040513d608081101561081257600080fd5b810190808051906020019092919080519060200190929190805190602001909291908051906020019092919050505093509350935093506000861415610b10576000600460009054906101000a900473ffffffffffffffffffffffffffffffffffffffff1673ffffffffffffffffffffffffffffffffffffffff16638851470d896040518263ffffffff1660e01b81526004018082815260200191505060606040518083038186803b1580156108c757600080fd5b505afa1580156108db573d6000803e3d6000fd5b505050506040513d60608110156108f157600080fd5b81019080805190602001909291908051906020019092919080519060200190929190505050509150506000600460009054906101000a900473ffffffffffffffffffffffffffffffffffffffff1673ffffffffffffffffffffffffffffffffffffffff1663de4128de8a886040518363ffffffff1660e01b8152600401808381526020018273ffffffffffffffffffffffffffffffffffffffff1673ffffffffffffffffffffffffffffffffffffffff1681526020019250505060206040518083038186803b1580156109c357600080fd5b505afa1580156109d7573d6000803e3d6000fd5b505050506040513d60208110156109ed57600080fd5b810190808051906020019092919050505090506000600460009054906101000a900473ffffffffffffffffffffffffffffffffffffffff1673ffffffffffffffffffffffffffffffffffffffff1663de4128de8b886040518363ffffffff1660e01b8152600401808381526020018273ffffffffffffffffffffffffffffffffffffffff1673ffffffffffffffffffffffffffffffffffffffff1681526020019250505060206040518083038186803b158015610aa957600080fd5b505afa158015610abd573d6000803e3d6000fd5b505050506040513d6020811015610ad357600080fd5b810190808051906020019092919050505090506000610af58b87878b8b610de0565b90508015610b0b57610b098b8484876105f5565b505b505050505b6001861415610dd7576000600460009054906101000a900473ffffffffffffffffffffffffffffffffffffffff1673ffffffffffffffffffffffffffffffffffffffff16638851470d896040518263ffffffff1660e01b81526004018082815260200191505060606040518083038186803b158015610b8e57600080fd5b505afa158015610ba2573d6000803e3d6000fd5b505050506040513d6060811015610bb857600080fd5b81019080805190602001909291908051906020019092919080519060200190929190505050505090506000600260009054906101000a900473ffffffffffffffffffffffffffffffffffffffff1673ffffffffffffffffffffffffffffffffffffffff1663ebff754a8a876040518363ffffffff1660e01b8152600401808381526020018273ffffffffffffffffffffffffffffffffffffffff1673ffffffffffffffffffffffffffffffffffffffff1681526020019250505060206040518083038186803b158015610c8a57600080fd5b505afa158015610c9e573d6000803e3d6000fd5b505050506040513d6020811015610cb457600080fd5b810190808051906020019092919050505090506000600260009054906101000a900473ffffffffffffffffffffffffffffffffffffffff1673ffffffffffffffffffffffffffffffffffffffff1663ebff754a8b886040518363ffffffff1660e01b8152600401808381526020018273ffffffffffffffffffffffffffffffffffffffff1673ffffffffffffffffffffffffffffffffffffffff1681526020019250505060206040518083038186803b158015610d7057600080fd5b505afa158015610d84573d6000803e3d6000fd5b505050506040513d6020811015610d9a57600080fd5b810190808051906020019092919050505090506000610dbc8b87878b8b610de0565b90508015610dd257610dd08b838587611c90565b505b505050505b50505050505050565b6000806000600760009054906101000a900473ffffffffffffffffffffffffffffffffffffffff1673ffffffffffffffffffffffffffffffffffffffff16600660009054906101000a900473ffffffffffffffffffffffffffffffffffffffff1673ffffffffffffffffffffffffffffffffffffffff16636352211e896040518263ffffffff1660e01b81526004018082815260200191505060206040518083038186803b158015610e9157600080fd5b505afa158015610ea5573d6000803e3d6000fd5b505050506040513d6020811015610ebb57600080fd5b810190808051906020019092919050505073ffffffffffffffffffffffffffffffffffffffff161415610ef15760019150610fd0565b8473ffffffffffffffffffffffffffffffffffffffff16600660009054906101000a900473ffffffffffffffffffffffffffffffffffffffff1673ffffffffffffffffffffffffffffffffffffffff16636352211e896040518263ffffffff1660e01b81526004018082815260200191505060206040518083038186803b158015610f7b57600080fd5b505afa158015610f8f573d6000803e3d6000fd5b505050506040513d6020811015610fa557600080fd5b810190808051906020019092919050505073ffffffffffffffffffffffffffffffffffffffff161491505b600760009054906101000a900473ffffffffffffffffffffffffffffffffffffffff1673ffffffffffffffffffffffffffffffffffffffff16600660009054906101000a900473ffffffffffffffffffffffffffffffffffffffff1673ffffffffffffffffffffffffffffffffffffffff16636352211e886040518263ffffffff1660e01b81526004018082815260200191505060206040518083038186803b15801561107c57600080fd5b505afa158015611090573d6000803e3d6000fd5b505050506040513d60208110156110a657600080fd5b810190808051906020019092919050505073ffffffffffffffffffffffffffffffffffffffff1614156110dc57600190506111bb565b8373ffffffffffffffffffffffffffffffffffffffff16600660009054906101000a900473ffffffffffffffffffffffffffffffffffffffff1673ffffffffffffffffffffffffffffffffffffffff16636352211e886040518263ffffffff1660e01b81526004018082815260200191505060206040518083038186803b15801561116657600080fd5b505afa15801561117a573d6000803e3d6000fd5b505050506040513d602081101561119057600080fd5b810190808051906020019092919050505073ffffffffffffffffffffffffffffffffffffffff161490505b8180156111c55750805b61121357611208886040518060400160405280600b81526020017f4b6974746965204c656674000000000000000000000000000000000000000000815250611e91565b60009250505061121a565b6001925050505b95945050505050565b6000809054906101000a900473ffffffffffffffffffffffffffffffffffffffff1673ffffffffffffffffffffffffffffffffffffffff163373ffffffffffffffffffffffffffffffffffffffff161461127957fe5b600160009054906101000a900473ffffffffffffffffffffffffffffffffffffffff1673ffffffffffffffffffffffffffffffffffffffff1663358177736040518060400160405280600b81526020017f47616d654d616e616765720000000000000000000000000000000000000000008152506040518263ffffffff1660e01b81526004018080602001828103825283818151815260200191508051906020019080838360005b8381101561133c578082015181840152602081019050611321565b50505050905090810190601f1680156113695780820380516001836020036101000a031916815260200191505b509250505060206040518083038186803b15801561138657600080fd5b505afa15801561139a573d6000803e3d6000fd5b505050506040513d60208110156113b057600080fd5b8101908080519060200190929190505050600360006101000a81548173ffffffffffffffffffffffffffffffffffffffff021916908373ffffffffffffffffffffffffffffffffffffffff160217905550600160009054906101000a900473ffffffffffffffffffffffffffffffffffffffff1673ffffffffffffffffffffffffffffffffffffffff1663358177736040518060400160405280600981526020017f47616d6553746f726500000000000000000000000000000000000000000000008152506040518263ffffffff1660e01b81526004018080602001828103825283818151815260200191508051906020019080838360005b838110156114c45780820151818401526020810190506114a9565b50505050905090810190601f1680156114f15780820380516001836020036101000a031916815260200191505b509250505060206040518083038186803b15801561150e57600080fd5b505afa158015611522573d6000803e3d6000fd5b505050506040513d602081101561153857600080fd5b8101908080519060200190929190505050600260006101000a81548173ffffffffffffffffffffffffffffffffffffffff021916908373ffffffffffffffffffffffffffffffffffffffff160217905550600160009054906101000a900473ffffffffffffffffffffffffffffffffffffffff1673ffffffffffffffffffffffffffffffffffffffff1663358177736040518060400160405280600a81526020017f474d4765747465724442000000000000000000000000000000000000000000008152506040518263ffffffff1660e01b81526004018080602001828103825283818151815260200191508051906020019080838360005b8381101561164c578082015181840152602081019050611631565b50505050905090810190601f1680156116795780820380516001836020036101000a031916815260200191505b509250505060206040518083038186803b15801561169657600080fd5b505afa1580156116aa573d6000803e3d6000fd5b505050506040513d60208110156116c057600080fd5b8101908080519060200190929190505050600460006101000a81548173ffffffffffffffffffffffffffffffffffffffff021916908373ffffffffffffffffffffffffffffffffffffffff160217905550600160009054906101000a900473ffffffffffffffffffffffffffffffffffffffff1673ffffffffffffffffffffffffffffffffffffffff1663358177736040518060400160405280600d81526020017f47616d65566172416e64466565000000000000000000000000000000000000008152506040518263ffffffff1660e01b81526004018080602001828103825283818151815260200191508051906020019080838360005b838110156117d45780820151818401526020810190506117b9565b50505050905090810190601f1680156118015780820380516001836020036101000a031916815260200191505b509250505060206040518083038186803b15801561181e57600080fd5b505afa158015611832573d6000803e3d6000fd5b505050506040513d602081101561184857600080fd5b8101908080519060200190929190505050600560006101000a81548173ffffffffffffffffffffffffffffffffffffffff021916908373ffffffffffffffffffffffffffffffffffffffff160217905550600160009054906101000a900473ffffffffffffffffffffffffffffffffffffffff1673ffffffffffffffffffffffffffffffffffffffff1663358177736040518060400160405280600d81526020017f43727970746f4b697474696573000000000000000000000000000000000000008152506040518263ffffffff1660e01b81526004018080602001828103825283818151815260200191508051906020019080838360005b8381101561195c578082015181840152602081019050611941565b50505050905090810190601f1680156119895780820380516001836020036101000a031916815260200191505b509250505060206040518083038186803b1580156119a657600080fd5b505afa1580156119ba573d6000803e3d6000fd5b505050506040513d60208110156119d057600080fd5b8101908080519060200190929190505050600660006101000a81548173ffffffffffffffffffffffffffffffffffffffff021916908373ffffffffffffffffffffffffffffffffffffffff160217905550600160009054906101000a900473ffffffffffffffffffffffffffffffffffffffff1673ffffffffffffffffffffffffffffffffffffffff1663358177736040518060400160405280600a81526020017f4b697474696548656c6c000000000000000000000000000000000000000000008152506040518263ffffffff1660e01b81526004018080602001828103825283818151815260200191508051906020019080838360005b83811015611ae4578082015181840152602081019050611ac9565b50505050905090810190601f168015611b115780820380516001836020036101000a031916815260200191505b509250505060206040518083038186803b158015611b2e57600080fd5b505afa158015611b42573d6000803e3d6000fd5b505050506040513d6020811015611b5857600080fd5b8101908080519060200190929190505050600760006101000a81548173ffffffffffffffffffffffffffffffffffffffff021916908373ffffffffffffffffffffffffffffffffffffffff160217905550565b6000809054906101000a900473ffffffffffffffffffffffffffffffffffffffff1681565b6000809054906101000a900473ffffffffffffffffffffffffffffffffffffffff1673ffffffffffffffffffffffffffffffffffffffff163373ffffffffffffffffffffffffffffffffffffffff1614611c2657fe5b80600160006101000a81548173ffffffffffffffffffffffffffffffffffffffff021916908373ffffffffffffffffffffffffffffffffffffffff16021790555050565b600660009054906101000a900473ffffffffffffffffffffffffffffffffffffffff1681565b6000428211611cf257831580611ca4575082155b15611cf157611ce8856040518060400160405280601181526020017f446964206e6f7420686974207374617274000000000000000000000000000000815250611e91565b60019050611cf3565b5b5b949350505050565b600560009054906101000a900473ffffffffffffffffffffffffffffffffffffffff1681565b600260009054906101000a900473ffffffffffffffffffffffffffffffffffffffff1681565b600360009054906101000a900473ffffffffffffffffffffffffffffffffffffffff1681565b600760009054906101000a900473ffffffffffffffffffffffffffffffffffffffff1681565b600160009054906101000a900473ffffffffffffffffffffffffffffffffffffffff1681565b600181565b600081565b6000809054906101000a900473ffffffffffffffffffffffffffffffffffffffff1673ffffffffffffffffffffffffffffffffffffffff163373ffffffffffffffffffffffffffffffffffffffff1614611e1957fe5b600073ffffffffffffffffffffffffffffffffffffffff168173ffffffffffffffffffffffffffffffffffffffff1614611e8e57806000806101000a81548173ffffffffffffffffffffffffffffffffffffffff021916908373ffffffffffffffffffffffffffffffffffffffff1602179055505b50565b600080600460009054906101000a900473ffffffffffffffffffffffffffffffffffffffff1673ffffffffffffffffffffffffffffffffffffffff166315a40f49856040518263ffffffff1660e01b81526004018082815260200191505060806040518083038186803b158015611f0757600080fd5b505afa158015611f1b573d6000803e3d6000fd5b505050506040513d6080811015611f3157600080fd5b8101908080519060200190929190805190602001909291908051906020019092919080519060200190929190505050935093505050600760009054906101000a900473ffffffffffffffffffffffffffffffffffffffff1673ffffffffffffffffffffffffffffffffffffffff1663f4b50fae826040518263ffffffff1660e01b815260040180828152602001915050602060405180830381600087803b158015611fdb57600080fd5b505af1158015611fef573d6000803e3d6000fd5b505050506040513d602081101561200557600080fd5b810190808051906020019092919050505050600760009054906101000a900473ffffffffffffffffffffffffffffffffffffffff1673ffffffffffffffffffffffffffffffffffffffff1663f4b50fae836040518263ffffffff1660e01b815260040180828152602001915050602060405180830381600087803b15801561208c57600080fd5b505af11580156120a0573d6000803e3d6000fd5b505050506040513d60208110156120b657600080fd5b810190808051906020019092919050505050600360009054906101000a900473ffffffffffffffffffffffffffffffffffffffff1673ffffffffffffffffffffffffffffffffffffffff166369958ab9856040518263ffffffff1660e01b815260040180828152602001915050600060405180830381600087803b15801561213d57600080fd5b505af1158015612151573d6000803e3d6000fd5b505050507f0f023b047be6c305859504186f8b03ee5a634f9ab472ff386d3b1de9387c083e84846040518083815260200180602001828103825283818151815260200191508051906020019080838360005b838110156121be5780820151818401526020810190506121a3565b50505050905090810190601f1680156121eb5780820380516001836020036101000a031916815260200191505b50935050505060405180910390a150505050565b600073ffffffffffffffffffffffffffffffffffffffff16600160009054906101000a900473ffffffffffffffffffffffffffffffffffffffff1673ffffffffffffffffffffffffffffffffffffffff1614156122c4576040517f08c379a00000000000000000000000000000000000000000000000000000000081526004018080602001828103825260088152602001807f4e6f2050726f787900000000000000000000000000000000000000000000000081525060200191505060405180910390fd5b6000600160009054906101000a900473ffffffffffffffffffffffffffffffffffffffff1673ffffffffffffffffffffffffffffffffffffffff166335817773836040518263ffffffff1660e01b81526004018080602001828103825283818151815260200191508051906020019080838360005b83811015612354578082015181840152602081019050612339565b50505050905090810190601f1680156123815780820380516001836020036101000a031916815260200191505b509250505060206040518083038186803b15801561239e57600080fd5b505afa1580156123b2573d6000803e3d6000fd5b505050506040513d60208110156123c857600080fd5b81019080805190602001909291905050509050600073ffffffffffffffffffffffffffffffffffffffff168173ffffffffffffffffffffffffffffffffffffffff16141561241257fe5b8073ffffffffffffffffffffffffffffffffffffffff163373ffffffffffffffffffffffffffffffffffffffff1614612496576040517f08c379a000000000000000000000000000000000000000000000000000000000815260040180806020018281038252602d81526020018061249b602d913960400191505060405180910390fd5b505056fe416363657373206973206f6e6c7920616c6c6f7765642066726f6d20737065636966696320636f6e7472616374a265627a7a72305820d12c1e3328518e60b30ec14177bfcaf014d931d158ca582e026111540e07013964736f6c634300050a0032",
  "source": "// This program is free software: you can redistribute it and/or modify\n// it under the terms of the GNU General Public License as published by\n// the Free Software Foundation, either version 3 of the License, or\n// (at your option) any later version.\n\n// This program is distributed in the hope that it will be useful,\n// but WITHOUT ANY WARRANTY; without even the implied warranty of\n// MERCHANTABILITY or FITNESS FOR A PARTICULAR PURPOSE.  See the\n// GNU General Public License for more details.\n\n// You should have received a copy of the GNU General Public License\n// along with this program.  If not, see <http://www.gnu.org/licenses/>.\npragma solidity ^0.5.5;\n\nimport \"../proxy/Proxied.sol\";\nimport \"../databases/GMGetterDB.sol\";\nimport \"./GameStore.sol\";\nimport \"./GameManager.sol\";\nimport \"../../GameVarAndFee.sol\";\nimport \"../../interfaces/ERC721.sol\";\nimport '../kittieHELL/KittieHell.sol';\n\n\n/**\n * @title Forfeiter\n * @notice This contracts safeguards any game instances against any unintended outcomes\n * @author wafflemakr\n */\ncontract Forfeiter is Proxied {\n\n  GameStore public gameStore;\n  GameManager public gameManager;\n  GMGetterDB public gmGetterDB;\n  GameVarAndFee public gameVarAndFee;\n  ERC721 public ckc;\n  KittieHell public kittieHELL;\n\n  uint256 public constant UNDERSUPPORTED = 0;\n  uint256 public constant KITTIE_LEFT = 1;\n  uint256 public constant NOT_HIT_START = 2;\n\n  event GameCancelled(uint gameId, string reason);\n\n  /**\n   * @notice Owner can call this function to update the needed contracts for checking conditions\n   * @dev contract addresses are stored in proxy\n   */\n  function initialize() external onlyOwner {\n    gameManager = GameManager(proxy.getContract(CONTRACT_NAME_GAMEMANAGER));\n    gameStore = GameStore(proxy.getContract(CONTRACT_NAME_GAMESTORE));\n    gmGetterDB = GMGetterDB(proxy.getContract(CONTRACT_NAME_GM_GETTER_DB));\n    gameVarAndFee = GameVarAndFee(proxy.getContract(CONTRACT_NAME_GAMEVARANDFEE));\n    ckc = ERC721(proxy.getContract(CONTRACT_NAME_CRYPTOKITTIES));\n    kittieHELL = KittieHell(proxy.getContract(CONTRACT_NAME_KITTIEHELL));\n  }\n\n  /**\n   * @notice Called each time there is ANY interaction with a game instance within the gameManager\n   * @dev function called only by the Game Manager contract\n   * @param gameId uint256 game or fight id\n   */\n  function checkGameStatus(uint256 gameId, uint gameState)\n    external\n    onlyContract(CONTRACT_NAME_GAMEMANAGER)\n  {\n    (address playerBlack, address playerRed, uint256 kittyBlack,\n      uint256 kittyRed) = gmGetterDB.getGamePlayers(gameId);\n\n    // GAME_CREATED\n    if (gameState == 0) {\n      (,uint256 gamePreStartTime,) = gmGetterDB.getGameTimes(gameId);\n      uint supportersBlack = gmGetterDB.getSupporters(gameId, playerBlack);\n      uint supportersRed = gmGetterDB.getSupporters(gameId, playerRed);\n\n      bool check = checkPlayersKitties(gameId, kittyBlack, kittyRed, playerBlack, playerRed);\n      //if previous check passes, check players start\n       if(check) checkAmountSupporters(gameId, supportersBlack, supportersRed, gamePreStartTime);\n    }\n\n    // GAME_PRESTART\n    if (gameState == 1) {\n      (uint256 gameStartTime,,) = gmGetterDB.getGameTimes(gameId);\n      bool redStarted = gameStore.didHitStart(gameId, playerRed);\n      bool blackStarted = gameStore.didHitStart(gameId, playerRed);\n\n      bool check = checkPlayersKitties(gameId, kittyBlack, kittyRed, playerBlack, playerRed); // TODO check why it fails here\n      //if previous check passes, check players start\n      if(check) didPlayersStartGame(gameId, blackStarted, redStarted, gameStartTime);\n    }\n  }\n\n  /**\n   * @notice calls cancelGame on a game instance within the GamesManager\n   * @dev called by \"CheckStatus\" if any of the required conditions are false\n   *  (Not called in case of underPerformed returning true )\n   * @param gameId uint256\n   */\n  function forfeitGame(uint256 gameId, string memory reason) internal {\n    (,,uint256 kittyBlack,\n      uint256 kittyRed) = gmGetterDB.getGamePlayers(gameId);\n    kittieHELL.releaseKittyForfeiter(kittyRed);\n    kittieHELL.releaseKittyForfeiter(kittyBlack);\n    gameManager.cancelGame(gameId);\n    emit GameCancelled(gameId, reason);\n  }\n\n  /**\n   * @notice checks that the each player still own listed kittie\n   * @dev it can also be owned by kittie hell\n   * @param kittieIdBlack uint256 kittieId of Black Corner\n   * @param kittieIdRed uint256 kittieId of Red Corner\n   * @param playerBlack address of Black Player\n   * @param playerRed address of Red Player\n   */\n  function checkPlayersKitties\n  (\n    uint gameId, uint kittieIdBlack, uint kittieIdRed,\n    address playerBlack, address playerRed\n  )\n    public returns(bool)\n  {\n    bool checkBlack;\n    bool checkRed;\n\n    //When one player hits start, that kittie is owned by kittieHELL\n    if (ckc.ownerOf(kittieIdBlack) == address(kittieHELL)) checkBlack = true;\n    else checkBlack = ckc.ownerOf(kittieIdBlack) == playerBlack;\n\n    if(ckc.ownerOf(kittieIdRed) == address(kittieHELL)) checkRed = true;\n    else checkRed = ckc.ownerOf(kittieIdRed) == playerRed;\n\n    if (!(checkBlack && checkRed)) {\n      forfeitGame(gameId, 'Kittie Left');\n      return false;\n    }\n\n    return true;\n  }\n\n  /**\n   * @notice checks for correct amount of supporters in each side when prestart time is reached\n   * @param supportersBlack uint256 amount of supporters in black corner\n   * @param supportersRed uint256 amount of supporters in red corner\n   * @param gamePreStartTime uint256 time when game starts 2 min countdown\n   */\n  function checkAmountSupporters(uint gameId, uint supportersBlack, uint supportersRed, uint gamePreStartTime)\n    public  returns(bool)\n  {\n    if (gamePreStartTime <= now) {\n      uint minSupporters = gameVarAndFee.getMinimumContributors(); //TODO: should call getterDB as vars and fees are locked\n      if(!(supportersBlack >= minSupporters) || !(supportersRed >= minSupporters))\n        forfeitGame(gameId, \"Undersupported\");\n    }\n  }\n\n  /**\n   * @notice Check if any of players did not hit start when game start time is reached\n   * @param blackStarted bool if black player hit start\n   * @param redStarted bool if red player hit start\n   * @param gameStartTime uint256 time when 2 min countdown ends\n   */\n  function didPlayersStartGame(uint gameId, bool blackStarted, bool redStarted, uint gameStartTime)\n    public  returns(bool)\n  {\n    if (gameStartTime <= now){\n      if(!blackStarted || !redStarted){\n        forfeitGame(gameId, \"Did not hit start\");\n        return true;\n      }\n    }\n  }\n}",
  "sourcePath": "/home/wafflemakr/Desktop/KittieFight/alpha/contracts/modules/gamemanager/Forfeiter.sol",
  "compiler": {
    "name": "solc",
    "version": "0.5.10+commit.5a6ea5b1.Emscripten.clang"
  },
  "schemaVersion": "3.0.11",
  "updatedAt": "2019-08-02T23:07:11.384Z",
  "devdoc": {
    "author": "wafflemakr",
    "methods": {
      "checkAmountSupporters(uint256,uint256,uint256,uint256)": {
        "params": {
          "gamePreStartTime": "uint256 time when game starts 2 min countdown",
          "supportersBlack": "uint256 amount of supporters in black corner",
          "supportersRed": "uint256 amount of supporters in red corner"
        }
      },
      "checkGameStatus(uint256,uint256)": {
        "details": "function called only by the Game Manager contract",
        "params": {
          "gameId": "uint256 game or fight id"
        }
      },
      "checkPlayersKitties(uint256,uint256,uint256,address,address)": {
        "details": "it can also be owned by kittie hell",
        "params": {
          "kittieIdBlack": "uint256 kittieId of Black Corner",
          "kittieIdRed": "uint256 kittieId of Red Corner",
          "playerBlack": "address of Black Player",
          "playerRed": "address of Red Player"
        }
      },
      "didPlayersStartGame(uint256,bool,bool,uint256)": {
        "params": {
          "blackStarted": "bool if black player hit start",
          "gameStartTime": "uint256 time when 2 min countdown ends",
          "redStarted": "bool if red player hit start"
        }
      },
      "initialize()": {
        "details": "contract addresses are stored in proxy"
      }
    },
    "title": "Forfeiter"
  },
  "userdoc": {
    "methods": {
      "checkAmountSupporters(uint256,uint256,uint256,uint256)": {
        "notice": "checks for correct amount of supporters in each side when prestart time is reached"
      },
      "checkGameStatus(uint256,uint256)": {
        "notice": "Called each time there is ANY interaction with a game instance within the gameManager"
      },
      "checkPlayersKitties(uint256,uint256,uint256,address,address)": {
        "notice": "checks that the each player still own listed kittie"
      },
      "didPlayersStartGame(uint256,bool,bool,uint256)": {
        "notice": "Check if any of players did not hit start when game start time is reached"
      },
      "initialize()": {
        "notice": "Owner can call this function to update the needed contracts for checking conditions"
      },
      "setProxy(address)": {
        "notice": "Set/update address of Proxy contract"
      }
    },
    "notice": "This contracts safeguards any game instances against any unintended outcomes"
  }
}