{
  "contractName": "Forfeiter",
  "abi": [
    {
      "anonymous": false,
      "inputs": [
        {
          "indexed": false,
          "internalType": "uint256",
          "name": "gameId",
          "type": "uint256"
        },
        {
          "indexed": false,
          "internalType": "string",
          "name": "reason",
          "type": "string"
        }
      ],
      "name": "GameCancelled",
      "type": "event"
    },
    {
      "constant": true,
      "inputs": [],
      "name": "KITTIE_LEFT",
      "outputs": [
        {
          "internalType": "uint256",
          "name": "",
          "type": "uint256"
        }
      ],
      "payable": false,
      "stateMutability": "view",
      "type": "function"
    },
    {
      "constant": true,
      "inputs": [],
      "name": "NOT_HIT_START",
      "outputs": [
        {
          "internalType": "uint256",
          "name": "",
          "type": "uint256"
        }
      ],
      "payable": false,
      "stateMutability": "view",
      "type": "function"
    },
    {
      "constant": true,
      "inputs": [],
      "name": "UNDERSUPPORTED",
      "outputs": [
        {
          "internalType": "uint256",
          "name": "",
          "type": "uint256"
        }
      ],
      "payable": false,
      "stateMutability": "view",
      "type": "function"
    },
    {
      "constant": true,
      "inputs": [],
      "name": "ckc",
      "outputs": [
        {
          "internalType": "contract ERC721",
          "name": "",
          "type": "address"
        }
      ],
      "payable": false,
      "stateMutability": "view",
      "type": "function"
    },
    {
      "constant": true,
      "inputs": [],
      "name": "gameManager",
      "outputs": [
        {
          "internalType": "contract GameManager",
          "name": "",
          "type": "address"
        }
      ],
      "payable": false,
      "stateMutability": "view",
      "type": "function"
    },
    {
      "constant": true,
      "inputs": [],
      "name": "gameStore",
      "outputs": [
        {
          "internalType": "contract GameStore",
          "name": "",
          "type": "address"
        }
      ],
      "payable": false,
      "stateMutability": "view",
      "type": "function"
    },
    {
      "constant": true,
      "inputs": [],
      "name": "gameVarAndFee",
      "outputs": [
        {
          "internalType": "contract GameVarAndFee",
          "name": "",
          "type": "address"
        }
      ],
      "payable": false,
      "stateMutability": "view",
      "type": "function"
    },
    {
      "constant": true,
      "inputs": [],
      "name": "gmGetterDB",
      "outputs": [
        {
          "internalType": "contract GMGetterDB",
          "name": "",
          "type": "address"
        }
      ],
      "payable": false,
      "stateMutability": "view",
      "type": "function"
    },
    {
      "constant": true,
      "inputs": [],
      "name": "kittieHELL",
      "outputs": [
        {
          "internalType": "contract KittieHell",
          "name": "",
          "type": "address"
        }
      ],
      "payable": false,
      "stateMutability": "view",
      "type": "function"
    },
    {
      "constant": true,
      "inputs": [],
      "name": "owner",
      "outputs": [
        {
          "internalType": "address payable",
          "name": "",
          "type": "address"
        }
      ],
      "payable": false,
      "stateMutability": "view",
      "type": "function"
    },
    {
      "constant": true,
      "inputs": [],
      "name": "proxy",
      "outputs": [
        {
          "internalType": "contract ProxyBase",
          "name": "",
          "type": "address"
        }
      ],
      "payable": false,
      "stateMutability": "view",
      "type": "function"
    },
    {
      "constant": false,
      "inputs": [
        {
          "internalType": "contract ProxyBase",
          "name": "_proxy",
          "type": "address"
        }
      ],
      "name": "setProxy",
      "outputs": [],
      "payable": false,
      "stateMutability": "nonpayable",
      "type": "function"
    },
    {
      "constant": false,
      "inputs": [
        {
          "internalType": "address payable",
          "name": "newOwner",
          "type": "address"
        }
      ],
      "name": "transferOwnership",
      "outputs": [],
      "payable": false,
      "stateMutability": "nonpayable",
      "type": "function"
    },
    {
      "constant": false,
      "inputs": [],
      "name": "initialize",
      "outputs": [],
      "payable": false,
      "stateMutability": "nonpayable",
      "type": "function"
    },
    {
      "constant": false,
      "inputs": [
        {
          "internalType": "uint256",
          "name": "gameId",
          "type": "uint256"
        },
        {
          "internalType": "string",
          "name": "reason",
          "type": "string"
        }
      ],
      "name": "forfeitCron",
      "outputs": [],
      "payable": false,
      "stateMutability": "nonpayable",
      "type": "function"
    },
    {
      "constant": false,
      "inputs": [
        {
          "internalType": "uint256",
          "name": "gameId",
          "type": "uint256"
        },
        {
          "internalType": "uint256",
          "name": "state",
          "type": "uint256"
        }
      ],
      "name": "checkGameStatusCron",
      "outputs": [],
      "payable": false,
      "stateMutability": "nonpayable",
      "type": "function"
    },
    {
      "constant": false,
      "inputs": [
        {
          "internalType": "uint256",
          "name": "gameId",
          "type": "uint256"
        },
        {
          "internalType": "uint256",
          "name": "state",
          "type": "uint256"
        }
      ],
      "name": "checkGameStatus",
      "outputs": [],
      "payable": false,
      "stateMutability": "nonpayable",
      "type": "function"
    },
    {
      "constant": false,
      "inputs": [
        {
          "internalType": "uint256",
          "name": "gameId",
          "type": "uint256"
        },
        {
          "internalType": "uint256",
          "name": "kittieIdBlack",
          "type": "uint256"
        },
        {
          "internalType": "uint256",
          "name": "kittieIdRed",
          "type": "uint256"
        },
        {
          "internalType": "address",
          "name": "playerBlack",
          "type": "address"
        },
        {
          "internalType": "address",
          "name": "playerRed",
          "type": "address"
        }
      ],
      "name": "checkPlayersKitties",
      "outputs": [
        {
          "internalType": "bool",
          "name": "",
          "type": "bool"
        }
      ],
      "payable": false,
      "stateMutability": "nonpayable",
      "type": "function"
    },
    {
      "constant": false,
      "inputs": [
        {
          "internalType": "uint256",
          "name": "gameId",
          "type": "uint256"
        },
        {
          "internalType": "uint256",
          "name": "supportersBlack",
          "type": "uint256"
        },
        {
          "internalType": "uint256",
          "name": "supportersRed",
          "type": "uint256"
        },
        {
          "internalType": "uint256",
          "name": "gamePreStartTime",
          "type": "uint256"
        }
      ],
      "name": "checkAmountSupporters",
      "outputs": [
        {
          "internalType": "bool",
          "name": "",
          "type": "bool"
        }
      ],
      "payable": false,
      "stateMutability": "nonpayable",
      "type": "function"
    }
  ],
  "bytecode": "0x6080604052336000806101000a81548173ffffffffffffffffffffffffffffffffffffffff021916908373ffffffffffffffffffffffffffffffffffffffff16021790555061287a806100536000396000f3fe608060405234801561001057600080fd5b50600436106101215760003560e01c806397764f89116100ad578063cfafbde711610071578063cfafbde71461053f578063ec55688914610589578063ee8c4b6f146105d3578063f0620402146105f1578063f2fde38b1461060f57610121565b806397764f8914610394578063a3b3bd7b146103de578063b0c5831e14610428578063b1be6469146104ab578063c6b05266146104f557610121565b80635aaccebf116100f45780635aaccebf1461022a578063690b5f46146102625780638129fc1c146102fc5780638da5cb5b1461030657806397107d6d1461035057610121565b806313cfe12d146101265780631fc751801461018a578063304b9503146101d457806333c0c10d1461020c575b600080fd5b6101706004803603608081101561013c57600080fd5b8101908080359060200190929190803590602001909291908035906020019092919080359060200190929190505050610653565b604051808215151515815260200191505060405180910390f35b610192610778565b604051808273ffffffffffffffffffffffffffffffffffffffff1673ffffffffffffffffffffffffffffffffffffffff16815260200191505060405180910390f35b61020a600480360360408110156101ea57600080fd5b81019080803590602001909291908035906020019092919050505061079e565b005b6102146107ec565b6040518082815260200191505060405180910390f35b6102606004803603604081101561024057600080fd5b8101908080359060200190929190803590602001909291905050506107f1565b005b6102e2600480360360a081101561027857600080fd5b81019080803590602001909291908035906020019092919080359060200190929190803573ffffffffffffffffffffffffffffffffffffffff169060200190929190803573ffffffffffffffffffffffffffffffffffffffff16906020019092919050505061083f565b604051808215151515815260200191505060405180910390f35b610304610ca4565b005b61030e61162c565b604051808273ffffffffffffffffffffffffffffffffffffffff1673ffffffffffffffffffffffffffffffffffffffff16815260200191505060405180910390f35b6103926004803603602081101561036657600080fd5b81019080803573ffffffffffffffffffffffffffffffffffffffff169060200190929190505050611651565b005b61039c6116eb565b604051808273ffffffffffffffffffffffffffffffffffffffff1673ffffffffffffffffffffffffffffffffffffffff16815260200191505060405180910390f35b6103e6611711565b604051808273ffffffffffffffffffffffffffffffffffffffff1673ffffffffffffffffffffffffffffffffffffffff16815260200191505060405180910390f35b6104a96004803603604081101561043e57600080fd5b81019080803590602001909291908035906020019064010000000081111561046557600080fd5b82018360208201111561047757600080fd5b8035906020019184600183028401116401000000008311171561049957600080fd5b9091929391929390505050611737565b005b6104b36117ca565b604051808273ffffffffffffffffffffffffffffffffffffffff1673ffffffffffffffffffffffffffffffffffffffff16815260200191505060405180910390f35b6104fd6117f0565b604051808273ffffffffffffffffffffffffffffffffffffffff1673ffffffffffffffffffffffffffffffffffffffff16815260200191505060405180910390f35b610547611816565b604051808273ffffffffffffffffffffffffffffffffffffffff1673ffffffffffffffffffffffffffffffffffffffff16815260200191505060405180910390f35b61059161183c565b604051808273ffffffffffffffffffffffffffffffffffffffff1673ffffffffffffffffffffffffffffffffffffffff16815260200191505060405180910390f35b6105db611862565b6040518082815260200191505060405180910390f35b6105f9611867565b6040518082815260200191505060405180910390f35b6106516004803603602081101561062557600080fd5b81019080803573ffffffffffffffffffffffffffffffffffffffff16906020019092919050505061186c565b005b600042821161076b576000600260009054906101000a900473ffffffffffffffffffffffffffffffffffffffff1673ffffffffffffffffffffffffffffffffffffffff166331856c71876040518263ffffffff1660e01b81526004018082815260200191505060206040518083038186803b1580156106d157600080fd5b505afa1580156106e5573d6000803e3d6000fd5b505050506040513d60208110156106fb57600080fd5b810190808051906020019092919050505090508085108061071b57508084105b156107695761075f866040518060400160405280600e81526020017f556e646572737570706f7274656400000000000000000000000000000000000081525061193a565b6000915050610770565b505b600190505b949350505050565b600460009054906101000a900473ffffffffffffffffffffffffffffffffffffffff1681565b6040518060400160405280600c81526020017f47616d654372656174696f6e00000000000000000000000000000000000000008152506107dd81611eb0565b6107e7838361214b565b505050565b600281565b6040518060400160405280600b81526020017f47616d654d616e6167657200000000000000000000000000000000000000000081525061083081611eb0565b61083a838361214b565b505050565b6000806000600760009054906101000a900473ffffffffffffffffffffffffffffffffffffffff1673ffffffffffffffffffffffffffffffffffffffff16600660009054906101000a900473ffffffffffffffffffffffffffffffffffffffff1673ffffffffffffffffffffffffffffffffffffffff16636352211e896040518263ffffffff1660e01b81526004018082815260200191505060206040518083038186803b1580156108f057600080fd5b505afa158015610904573d6000803e3d6000fd5b505050506040513d602081101561091a57600080fd5b810190808051906020019092919050505073ffffffffffffffffffffffffffffffffffffffff1614156109505760019150610a40565b8473ffffffffffffffffffffffffffffffffffffffff16600660009054906101000a900473ffffffffffffffffffffffffffffffffffffffff1673ffffffffffffffffffffffffffffffffffffffff16636352211e896040518263ffffffff1660e01b81526004018082815260200191505060206040518083038186803b1580156109da57600080fd5b505afa1580156109ee573d6000803e3d6000fd5b505050506040513d6020811015610a0457600080fd5b810190808051906020019092919050505073ffffffffffffffffffffffffffffffffffffffff161415610a3a5760019150610a3f565b600091505b5b600760009054906101000a900473ffffffffffffffffffffffffffffffffffffffff1673ffffffffffffffffffffffffffffffffffffffff16600660009054906101000a900473ffffffffffffffffffffffffffffffffffffffff1673ffffffffffffffffffffffffffffffffffffffff16636352211e886040518263ffffffff1660e01b81526004018082815260200191505060206040518083038186803b158015610aec57600080fd5b505afa158015610b00573d6000803e3d6000fd5b505050506040513d6020811015610b1657600080fd5b810190808051906020019092919050505073ffffffffffffffffffffffffffffffffffffffff161415610b4c5760019050610c3c565b8373ffffffffffffffffffffffffffffffffffffffff16600660009054906101000a900473ffffffffffffffffffffffffffffffffffffffff1673ffffffffffffffffffffffffffffffffffffffff16636352211e886040518263ffffffff1660e01b81526004018082815260200191505060206040518083038186803b158015610bd657600080fd5b505afa158015610bea573d6000803e3d6000fd5b505050506040513d6020811015610c0057600080fd5b810190808051906020019092919050505073ffffffffffffffffffffffffffffffffffffffff161415610c365760019050610c3b565b600090505b5b818015610c465750805b610c9457610c89886040518060400160405280600b81526020017f4b6974746965204c65667400000000000000000000000000000000000000000081525061193a565b600092505050610c9b565b6001925050505b95945050505050565b6000809054906101000a900473ffffffffffffffffffffffffffffffffffffffff1673ffffffffffffffffffffffffffffffffffffffff163373ffffffffffffffffffffffffffffffffffffffff1614610cfa57fe5b600160009054906101000a900473ffffffffffffffffffffffffffffffffffffffff1673ffffffffffffffffffffffffffffffffffffffff1663358177736040518060400160405280600b81526020017f47616d654d616e616765720000000000000000000000000000000000000000008152506040518263ffffffff1660e01b81526004018080602001828103825283818151815260200191508051906020019080838360005b83811015610dbd578082015181840152602081019050610da2565b50505050905090810190601f168015610dea5780820380516001836020036101000a031916815260200191505b509250505060206040518083038186803b158015610e0757600080fd5b505afa158015610e1b573d6000803e3d6000fd5b505050506040513d6020811015610e3157600080fd5b8101908080519060200190929190505050600360006101000a81548173ffffffffffffffffffffffffffffffffffffffff021916908373ffffffffffffffffffffffffffffffffffffffff160217905550600160009054906101000a900473ffffffffffffffffffffffffffffffffffffffff1673ffffffffffffffffffffffffffffffffffffffff1663358177736040518060400160405280600981526020017f47616d6553746f726500000000000000000000000000000000000000000000008152506040518263ffffffff1660e01b81526004018080602001828103825283818151815260200191508051906020019080838360005b83811015610f45578082015181840152602081019050610f2a565b50505050905090810190601f168015610f725780820380516001836020036101000a031916815260200191505b509250505060206040518083038186803b158015610f8f57600080fd5b505afa158015610fa3573d6000803e3d6000fd5b505050506040513d6020811015610fb957600080fd5b8101908080519060200190929190505050600260006101000a81548173ffffffffffffffffffffffffffffffffffffffff021916908373ffffffffffffffffffffffffffffffffffffffff160217905550600160009054906101000a900473ffffffffffffffffffffffffffffffffffffffff1673ffffffffffffffffffffffffffffffffffffffff1663358177736040518060400160405280600a81526020017f474d4765747465724442000000000000000000000000000000000000000000008152506040518263ffffffff1660e01b81526004018080602001828103825283818151815260200191508051906020019080838360005b838110156110cd5780820151818401526020810190506110b2565b50505050905090810190601f1680156110fa5780820380516001836020036101000a031916815260200191505b509250505060206040518083038186803b15801561111757600080fd5b505afa15801561112b573d6000803e3d6000fd5b505050506040513d602081101561114157600080fd5b8101908080519060200190929190505050600460006101000a81548173ffffffffffffffffffffffffffffffffffffffff021916908373ffffffffffffffffffffffffffffffffffffffff160217905550600160009054906101000a900473ffffffffffffffffffffffffffffffffffffffff1673ffffffffffffffffffffffffffffffffffffffff1663358177736040518060400160405280600d81526020017f47616d65566172416e64466565000000000000000000000000000000000000008152506040518263ffffffff1660e01b81526004018080602001828103825283818151815260200191508051906020019080838360005b8381101561125557808201518184015260208101905061123a565b50505050905090810190601f1680156112825780820380516001836020036101000a031916815260200191505b509250505060206040518083038186803b15801561129f57600080fd5b505afa1580156112b3573d6000803e3d6000fd5b505050506040513d60208110156112c957600080fd5b8101908080519060200190929190505050600560006101000a81548173ffffffffffffffffffffffffffffffffffffffff021916908373ffffffffffffffffffffffffffffffffffffffff160217905550600160009054906101000a900473ffffffffffffffffffffffffffffffffffffffff1673ffffffffffffffffffffffffffffffffffffffff1663358177736040518060400160405280600d81526020017f43727970746f4b697474696573000000000000000000000000000000000000008152506040518263ffffffff1660e01b81526004018080602001828103825283818151815260200191508051906020019080838360005b838110156113dd5780820151818401526020810190506113c2565b50505050905090810190601f16801561140a5780820380516001836020036101000a031916815260200191505b509250505060206040518083038186803b15801561142757600080fd5b505afa15801561143b573d6000803e3d6000fd5b505050506040513d602081101561145157600080fd5b8101908080519060200190929190505050600660006101000a81548173ffffffffffffffffffffffffffffffffffffffff021916908373ffffffffffffffffffffffffffffffffffffffff160217905550600160009054906101000a900473ffffffffffffffffffffffffffffffffffffffff1673ffffffffffffffffffffffffffffffffffffffff1663358177736040518060400160405280600a81526020017f4b697474696548656c6c000000000000000000000000000000000000000000008152506040518263ffffffff1660e01b81526004018080602001828103825283818151815260200191508051906020019080838360005b8381101561156557808201518184015260208101905061154a565b50505050905090810190601f1680156115925780820380516001836020036101000a031916815260200191505b509250505060206040518083038186803b1580156115af57600080fd5b505afa1580156115c3573d6000803e3d6000fd5b505050506040513d60208110156115d957600080fd5b8101908080519060200190929190505050600760006101000a81548173ffffffffffffffffffffffffffffffffffffffff021916908373ffffffffffffffffffffffffffffffffffffffff160217905550565b6000809054906101000a900473ffffffffffffffffffffffffffffffffffffffff1681565b6000809054906101000a900473ffffffffffffffffffffffffffffffffffffffff1673ffffffffffffffffffffffffffffffffffffffff163373ffffffffffffffffffffffffffffffffffffffff16146116a757fe5b80600160006101000a81548173ffffffffffffffffffffffffffffffffffffffff021916908373ffffffffffffffffffffffffffffffffffffffff16021790555050565b600660009054906101000a900473ffffffffffffffffffffffffffffffffffffffff1681565b600560009054906101000a900473ffffffffffffffffffffffffffffffffffffffff1681565b6040518060400160405280600c81526020017f47616d654372656174696f6e000000000000000000000000000000000000000081525061177681611eb0565b6117c48484848080601f016020809104026020016040519081016040528093929190818152602001838380828437600081840152601f19601f8201169050808301925050505050505061193a565b50505050565b600260009054906101000a900473ffffffffffffffffffffffffffffffffffffffff1681565b600360009054906101000a900473ffffffffffffffffffffffffffffffffffffffff1681565b600760009054906101000a900473ffffffffffffffffffffffffffffffffffffffff1681565b600160009054906101000a900473ffffffffffffffffffffffffffffffffffffffff1681565b600181565b600081565b6000809054906101000a900473ffffffffffffffffffffffffffffffffffffffff1673ffffffffffffffffffffffffffffffffffffffff163373ffffffffffffffffffffffffffffffffffffffff16146118c257fe5b600073ffffffffffffffffffffffffffffffffffffffff168173ffffffffffffffffffffffffffffffffffffffff161461193757806000806101000a81548173ffffffffffffffffffffffffffffffffffffffff021916908373ffffffffffffffffffffffffffffffffffffffff1602179055505b50565b600080600460009054906101000a900473ffffffffffffffffffffffffffffffffffffffff1673ffffffffffffffffffffffffffffffffffffffff166315a40f49856040518263ffffffff1660e01b81526004018082815260200191505060806040518083038186803b1580156119b057600080fd5b505afa1580156119c4573d6000803e3d6000fd5b505050506040513d60808110156119da57600080fd5b8101908080519060200190929190805190602001909291908051906020019092919080519060200190929190505050935093505050600760009054906101000a900473ffffffffffffffffffffffffffffffffffffffff1673ffffffffffffffffffffffffffffffffffffffff16600660009054906101000a900473ffffffffffffffffffffffffffffffffffffffff1673ffffffffffffffffffffffffffffffffffffffff16636352211e846040518263ffffffff1660e01b81526004018082815260200191505060206040518083038186803b158015611abb57600080fd5b505afa158015611acf573d6000803e3d6000fd5b505050506040513d6020811015611ae557600080fd5b810190808051906020019092919050505073ffffffffffffffffffffffffffffffffffffffff161415611bc457600760009054906101000a900473ffffffffffffffffffffffffffffffffffffffff1673ffffffffffffffffffffffffffffffffffffffff1663f4b50fae836040518263ffffffff1660e01b815260040180828152602001915050602060405180830381600087803b158015611b8757600080fd5b505af1158015611b9b573d6000803e3d6000fd5b505050506040513d6020811015611bb157600080fd5b8101908080519060200190929190505050505b600760009054906101000a900473ffffffffffffffffffffffffffffffffffffffff1673ffffffffffffffffffffffffffffffffffffffff16600660009054906101000a900473ffffffffffffffffffffffffffffffffffffffff1673ffffffffffffffffffffffffffffffffffffffff16636352211e836040518263ffffffff1660e01b81526004018082815260200191505060206040518083038186803b158015611c7057600080fd5b505afa158015611c84573d6000803e3d6000fd5b505050506040513d6020811015611c9a57600080fd5b810190808051906020019092919050505073ffffffffffffffffffffffffffffffffffffffff161415611d7957600760009054906101000a900473ffffffffffffffffffffffffffffffffffffffff1673ffffffffffffffffffffffffffffffffffffffff1663f4b50fae826040518263ffffffff1660e01b815260040180828152602001915050602060405180830381600087803b158015611d3c57600080fd5b505af1158015611d50573d6000803e3d6000fd5b505050506040513d6020811015611d6657600080fd5b8101908080519060200190929190505050505b600360009054906101000a900473ffffffffffffffffffffffffffffffffffffffff1673ffffffffffffffffffffffffffffffffffffffff166369958ab9856040518263ffffffff1660e01b815260040180828152602001915050600060405180830381600087803b158015611dee57600080fd5b505af1158015611e02573d6000803e3d6000fd5b505050507f0f023b047be6c305859504186f8b03ee5a634f9ab472ff386d3b1de9387c083e84846040518083815260200180602001828103825283818151815260200191508051906020019080838360005b83811015611e6f578082015181840152602081019050611e54565b50505050905090810190601f168015611e9c5780820380516001836020036101000a031916815260200191505b50935050505060405180910390a150505050565b600073ffffffffffffffffffffffffffffffffffffffff16600160009054906101000a900473ffffffffffffffffffffffffffffffffffffffff1673ffffffffffffffffffffffffffffffffffffffff161415611f75576040517f08c379a00000000000000000000000000000000000000000000000000000000081526004018080602001828103825260088152602001807f4e6f2050726f787900000000000000000000000000000000000000000000000081525060200191505060405180910390fd5b6000600160009054906101000a900473ffffffffffffffffffffffffffffffffffffffff1673ffffffffffffffffffffffffffffffffffffffff166335817773836040518263ffffffff1660e01b81526004018080602001828103825283818151815260200191508051906020019080838360005b83811015612005578082015181840152602081019050611fea565b50505050905090810190601f1680156120325780820380516001836020036101000a031916815260200191505b509250505060206040518083038186803b15801561204f57600080fd5b505afa158015612063573d6000803e3d6000fd5b505050506040513d602081101561207957600080fd5b81019080805190602001909291905050509050600073ffffffffffffffffffffffffffffffffffffffff168173ffffffffffffffffffffffffffffffffffffffff1614156120c357fe5b8073ffffffffffffffffffffffffffffffffffffffff163373ffffffffffffffffffffffffffffffffffffffff1614612147576040517f08c379a000000000000000000000000000000000000000000000000000000000815260040180806020018281038252602d815260200180612819602d913960400191505060405180910390fd5b5050565b600080600080600460009054906101000a900473ffffffffffffffffffffffffffffffffffffffff1673ffffffffffffffffffffffffffffffffffffffff166315a40f49876040518263ffffffff1660e01b81526004018082815260200191505060806040518083038186803b1580156121c457600080fd5b505afa1580156121d8573d6000803e3d6000fd5b505050506040513d60808110156121ee57600080fd5b8101908080519060200190929190805190602001909291908051906020019092919080519060200190929190505050935093509350935060008514156124ec576000600460009054906101000a900473ffffffffffffffffffffffffffffffffffffffff1673ffffffffffffffffffffffffffffffffffffffff16638851470d886040518263ffffffff1660e01b81526004018082815260200191505060606040518083038186803b1580156122a357600080fd5b505afa1580156122b7573d6000803e3d6000fd5b505050506040513d60608110156122cd57600080fd5b81019080805190602001909291908051906020019092919080519060200190929190505050509150506000600460009054906101000a900473ffffffffffffffffffffffffffffffffffffffff1673ffffffffffffffffffffffffffffffffffffffff1663de4128de89886040518363ffffffff1660e01b8152600401808381526020018273ffffffffffffffffffffffffffffffffffffffff1673ffffffffffffffffffffffffffffffffffffffff1681526020019250505060206040518083038186803b15801561239f57600080fd5b505afa1580156123b3573d6000803e3d6000fd5b505050506040513d60208110156123c957600080fd5b810190808051906020019092919050505090506000600460009054906101000a900473ffffffffffffffffffffffffffffffffffffffff1673ffffffffffffffffffffffffffffffffffffffff1663de4128de8a886040518363ffffffff1660e01b8152600401808381526020018273ffffffffffffffffffffffffffffffffffffffff1673ffffffffffffffffffffffffffffffffffffffff1681526020019250505060206040518083038186803b15801561248557600080fd5b505afa158015612499573d6000803e3d6000fd5b505050506040513d60208110156124af57600080fd5b8101908080519060200190929190505050905060006124d18a87878b8b61083f565b905080156124e7576124e58a848487610653565b505b505050505b60018514156127b2576000600460009054906101000a900473ffffffffffffffffffffffffffffffffffffffff1673ffffffffffffffffffffffffffffffffffffffff16638851470d886040518263ffffffff1660e01b81526004018082815260200191505060606040518083038186803b15801561256a57600080fd5b505afa15801561257e573d6000803e3d6000fd5b505050506040513d606081101561259457600080fd5b81019080805190602001909291908051906020019092919080519060200190929190505050505090506000600260009054906101000a900473ffffffffffffffffffffffffffffffffffffffff1673ffffffffffffffffffffffffffffffffffffffff1663ebff754a89876040518363ffffffff1660e01b8152600401808381526020018273ffffffffffffffffffffffffffffffffffffffff1673ffffffffffffffffffffffffffffffffffffffff1681526020019250505060206040518083038186803b15801561266657600080fd5b505afa15801561267a573d6000803e3d6000fd5b505050506040513d602081101561269057600080fd5b810190808051906020019092919050505090506000600260009054906101000a900473ffffffffffffffffffffffffffffffffffffffff1673ffffffffffffffffffffffffffffffffffffffff1663ebff754a8a896040518363ffffffff1660e01b8152600401808381526020018273ffffffffffffffffffffffffffffffffffffffff1673ffffffffffffffffffffffffffffffffffffffff1681526020019250505060206040518083038186803b15801561274c57600080fd5b505afa158015612760573d6000803e3d6000fd5b505050506040513d602081101561277657600080fd5b8101908080519060200190929190505050905060006127988a87878b8b61083f565b905080156127ad576127ac8a8385876127ba565b5b505050505b505050505050565b428111612812578215806127cc575081155b1561281157612810846040518060400160405280601181526020017f446964206e6f742068697420737461727400000000000000000000000000000081525061193a565b5b5b5050505056fe416363657373206973206f6e6c7920616c6c6f7765642066726f6d20737065636966696320636f6e7472616374a265627a7a72315820d22fe33ce47994fc34849f75724b5773e57529e8498253f1e72b7f05d23ed12e64736f6c63430005110032",
  "source": "// This program is free software: you can redistribute it and/or modify\n// it under the terms of the GNU General Public License as published by\n// the Free Software Foundation, either version 3 of the License, or\n// (at your option) any later version.\n\n// This program is distributed in the hope that it will be useful,\n// but WITHOUT ANY WARRANTY; without even the implied warranty of\n// MERCHANTABILITY or FITNESS FOR A PARTICULAR PURPOSE.  See the\n// GNU General Public License for more details.\n\n// You should have received a copy of the GNU General Public License\n// along with this program.  If not, see <http://www.gnu.org/licenses/>.\npragma solidity ^0.5.5;\n\nimport \"../proxy/Proxied.sol\";\nimport \"../databases/GMGetterDB.sol\";\nimport \"./GameStore.sol\";\nimport \"./GameManager.sol\";\nimport \"../../GameVarAndFee.sol\";\nimport \"../../interfaces/ERC721.sol\";\nimport '../kittieHELL/KittieHell.sol';\n\n\n/**\n * @title Forfeiter\n * @notice This contracts safeguards any game instances against any unintended outcomes\n * @author wafflemakr\n */\ncontract Forfeiter is Proxied {\n\n  GameStore public gameStore;\n  GameManager public gameManager;\n  GMGetterDB public gmGetterDB;\n  GameVarAndFee public gameVarAndFee;\n  ERC721 public ckc;\n  KittieHell public kittieHELL;\n\n  uint256 public constant UNDERSUPPORTED = 0;\n  uint256 public constant KITTIE_LEFT = 1;\n  uint256 public constant NOT_HIT_START = 2;\n\n  event GameCancelled(uint gameId, string reason);\n\n  /**\n   * @notice Owner can call this function to update the needed contracts for checking conditions\n   * @dev contract addresses are stored in proxy\n   */\n  function initialize() external onlyOwner {\n    gameManager = GameManager(proxy.getContract(CONTRACT_NAME_GAMEMANAGER));\n    gameStore = GameStore(proxy.getContract(CONTRACT_NAME_GAMESTORE));\n    gmGetterDB = GMGetterDB(proxy.getContract(CONTRACT_NAME_GM_GETTER_DB));\n    gameVarAndFee = GameVarAndFee(proxy.getContract(CONTRACT_NAME_GAMEVARANDFEE));\n    ckc = ERC721(proxy.getContract(CONTRACT_NAME_CRYPTOKITTIES));\n    kittieHELL = KittieHell(proxy.getContract(CONTRACT_NAME_KITTIEHELL));\n  }\n\n  /**\n   * @notice Called each time there is ANY interaction with a game instance within the gameManager\n   * @dev function called only by the Game Manager contract\n   * @param gameId uint256 game or fight id\n   */\n  function checkStatus(uint256 gameId, uint gameState)\n    internal\n  {\n    (address playerBlack, address playerRed, uint256 kittyBlack,\n      uint256 kittyRed) = gmGetterDB.getGamePlayers(gameId);\n\n    // GAME_CREATED\n    if (gameState == 0) {\n      (,uint256 gamePreStartTime,) = gmGetterDB.getGameTimes(gameId);\n      uint supportersBlack = gmGetterDB.getSupporters(gameId, playerBlack);\n      uint supportersRed = gmGetterDB.getSupporters(gameId, playerRed);\n\n      bool check = checkPlayersKitties(gameId, kittyBlack, kittyRed, playerBlack, playerRed);\n      //if previous check passes, check players start\n       if(check) checkAmountSupporters(gameId, supportersBlack, supportersRed, gamePreStartTime);\n    }\n\n    // GAME_PRESTART\n    if (gameState == 1) {\n      (uint256 gameStartTime,,) = gmGetterDB.getGameTimes(gameId);\n      bool redStarted = gameStore.didHitStart(gameId, playerRed);\n      bool blackStarted = gameStore.didHitStart(gameId, playerBlack);\n\n      bool check = checkPlayersKitties(gameId, kittyBlack, kittyRed, playerBlack, playerRed); // TODO check why it fails here\n      //if previous check passes, check players start\n      if(check) didPlayersStartGame(gameId, blackStarted, redStarted, gameStartTime);\n    }\n  }\n\n  /**\n   * @notice calls cancelGame on a game instance within the GamesManager\n   * @dev called by \"CheckStatus\" if any of the required conditions are false\n   *  (Not called in case of underPerformed returning true )\n   * @param gameId uint256\n   */\n  function forfeitGame(uint256 gameId, string memory reason) internal {\n    (/*address playerBlack*/, /*address playerRed*/, uint256 kittyBlack,\n      uint256 kittyRed) = gmGetterDB.getGamePlayers(gameId);\n    if(ckc.ownerOf(kittyBlack) == address(kittieHELL)) kittieHELL.releaseKittyForfeiter(kittyBlack);\n    if(ckc.ownerOf(kittyRed) == address(kittieHELL)) kittieHELL.releaseKittyForfeiter(kittyRed);\n    gameManager.cancelGame(gameId);\n    emit GameCancelled(gameId, reason);\n  }\n\n  function forfeitCron(uint256 gameId, string calldata reason)\n    external\n    onlyContract(CONTRACT_NAME_GAMECREATION)\n  {\n    forfeitGame(gameId, reason);\n  }\n\n  function checkGameStatusCron(uint256 gameId, uint state)\n    external\n    onlyContract(CONTRACT_NAME_GAMECREATION)\n  {\n    checkStatus(gameId, state);\n  }\n\n  function checkGameStatus(uint256 gameId, uint state)\n    external\n    onlyContract(CONTRACT_NAME_GAMEMANAGER)\n  {\n    checkStatus(gameId, state);\n  }\n\n  /**\n   * @notice checks that the each player still own listed kittie\n   * @dev it can also be owned by kittie hell\n   * @param kittieIdBlack uint256 kittieId of Black Corner\n   * @param kittieIdRed uint256 kittieId of Red Corner\n   * @param playerBlack address of Black Player\n   * @param playerRed address of Red Player\n   */\n  function checkPlayersKitties\n  (\n    uint gameId, uint kittieIdBlack, uint kittieIdRed,\n    address playerBlack, address playerRed\n  )\n    public returns(bool)\n  {\n    bool checkBlack;\n    bool checkRed;\n\n    //When one player hits start, that kittie is owned by kittieHELL\n    if (ckc.ownerOf(kittieIdBlack) == address(kittieHELL)) checkBlack = true;\n    else if(ckc.ownerOf(kittieIdBlack) == playerBlack) checkBlack = true;\n    else checkBlack = false;\n\n    if(ckc.ownerOf(kittieIdRed) == address(kittieHELL)) checkRed = true;\n    else if(ckc.ownerOf(kittieIdRed) == playerRed) checkRed = true;\n    else checkRed = false;\n\n    if (!(checkBlack && checkRed)) {\n      forfeitGame(gameId, 'Kittie Left');\n      return false;\n    }\n\n    return true;\n  }\n\n  /**\n   * @notice checks for correct amount of supporters in each side when prestart time is reached\n   * @param supportersBlack uint256 amount of supporters in black corner\n   * @param supportersRed uint256 amount of supporters in red corner\n   * @param gamePreStartTime uint256 time when game starts 2 min countdown\n   */\n  function checkAmountSupporters(uint gameId, uint supportersBlack, uint supportersRed, uint gamePreStartTime)\n    public  returns(bool)\n  {\n    if (gamePreStartTime <= now) {\n      uint minSupporters = gameStore.getMinimumContributors(gameId); //TODO: should call getterDB as vars and fees are locked\n      if(supportersBlack < minSupporters || supportersRed < minSupporters){\n        forfeitGame(gameId, \"Undersupported\");\n        return false;\n      }\n    }\n\n    return true;\n  }\n\n  /**\n   * @notice Check if any of players did not hit start when game start time is reached\n   * @param blackStarted bool if black player hit start\n   * @param redStarted bool if red player hit start\n   * @param gameStartTime uint256 time when 2 min countdown ends\n   */\n  function didPlayersStartGame(uint gameId, bool blackStarted, bool redStarted, uint gameStartTime)\n    internal\n  {\n    if (gameStartTime <= now){\n      if(!blackStarted || !redStarted) forfeitGame(gameId, \"Did not hit start\");\n    }\n  }\n}",
  "sourcePath": "/Users/ziweizhang/Desktop/rinkeby3/contracts/contracts/modules/gamemanager/Forfeiter.sol",
  "compiler": {
    "name": "solc",
    "version": "0.5.17+commit.d19bba13.Emscripten.clang"
  },
  "schemaVersion": "3.0.23",
  "updatedAt": "2020-05-17T12:28:03.893Z",
  "devdoc": {
    "author": "wafflemakr",
    "methods": {
      "checkAmountSupporters(uint256,uint256,uint256,uint256)": {
        "params": {
          "gamePreStartTime": "uint256 time when game starts 2 min countdown",
          "supportersBlack": "uint256 amount of supporters in black corner",
          "supportersRed": "uint256 amount of supporters in red corner"
        }
      },
      "checkPlayersKitties(uint256,uint256,uint256,address,address)": {
        "details": "it can also be owned by kittie hell",
        "params": {
          "kittieIdBlack": "uint256 kittieId of Black Corner",
          "kittieIdRed": "uint256 kittieId of Red Corner",
          "playerBlack": "address of Black Player",
          "playerRed": "address of Red Player"
        }
      },
      "initialize()": {
        "details": "contract addresses are stored in proxy"
      }
    },
    "title": "Forfeiter"
  },
  "userdoc": {
    "methods": {
      "checkAmountSupporters(uint256,uint256,uint256,uint256)": {
        "notice": "checks for correct amount of supporters in each side when prestart time is reached"
      },
      "checkPlayersKitties(uint256,uint256,uint256,address,address)": {
        "notice": "checks that the each player still own listed kittie"
      },
      "initialize()": {
        "notice": "Owner can call this function to update the needed contracts for checking conditions"
      },
      "setProxy(address)": {
        "notice": "Set/update address of Proxy contract"
      }
    },
    "notice": "This contracts safeguards any game instances against any unintended outcomes"
  }
}