{
  "contractName": "Forfeiter",
  "abi": [
    {
      "constant": true,
      "inputs": [],
      "name": "gmGetterDB",
      "outputs": [
        {
          "internalType": "contract GMGetterDB",
          "name": "",
          "type": "address"
        }
      ],
      "payable": false,
      "stateMutability": "view",
      "type": "function"
    },
    {
      "constant": true,
      "inputs": [],
      "name": "NOT_HIT_START",
      "outputs": [
        {
          "internalType": "uint256",
          "name": "",
          "type": "uint256"
        }
      ],
      "payable": false,
      "stateMutability": "view",
      "type": "function"
    },
    {
      "constant": true,
      "inputs": [],
      "name": "owner",
      "outputs": [
        {
          "internalType": "address payable",
          "name": "",
          "type": "address"
        }
      ],
      "payable": false,
      "stateMutability": "view",
      "type": "function"
    },
    {
      "constant": false,
      "inputs": [
        {
          "internalType": "contract ProxyBase",
          "name": "_proxy",
          "type": "address"
        }
      ],
      "name": "setProxy",
      "outputs": [],
      "payable": false,
      "stateMutability": "nonpayable",
      "type": "function"
    },
    {
      "constant": true,
      "inputs": [],
      "name": "ckc",
      "outputs": [
        {
          "internalType": "contract ERC721",
          "name": "",
          "type": "address"
        }
      ],
      "payable": false,
      "stateMutability": "view",
      "type": "function"
    },
    {
      "constant": true,
      "inputs": [],
      "name": "gameVarAndFee",
      "outputs": [
        {
          "internalType": "contract GameVarAndFee",
          "name": "",
          "type": "address"
        }
      ],
      "payable": false,
      "stateMutability": "view",
      "type": "function"
    },
    {
      "constant": true,
      "inputs": [],
      "name": "gameStore",
      "outputs": [
        {
          "internalType": "contract GameStore",
          "name": "",
          "type": "address"
        }
      ],
      "payable": false,
      "stateMutability": "view",
      "type": "function"
    },
    {
      "constant": true,
      "inputs": [],
      "name": "gameManager",
      "outputs": [
        {
          "internalType": "contract GameManager",
          "name": "",
          "type": "address"
        }
      ],
      "payable": false,
      "stateMutability": "view",
      "type": "function"
    },
    {
      "constant": true,
      "inputs": [],
      "name": "kittieHELL",
      "outputs": [
        {
          "internalType": "contract KittieHell",
          "name": "",
          "type": "address"
        }
      ],
      "payable": false,
      "stateMutability": "view",
      "type": "function"
    },
    {
      "constant": true,
      "inputs": [],
      "name": "proxy",
      "outputs": [
        {
          "internalType": "contract ProxyBase",
          "name": "",
          "type": "address"
        }
      ],
      "payable": false,
      "stateMutability": "view",
      "type": "function"
    },
    {
      "constant": true,
      "inputs": [],
      "name": "KITTIE_LEFT",
      "outputs": [
        {
          "internalType": "uint256",
          "name": "",
          "type": "uint256"
        }
      ],
      "payable": false,
      "stateMutability": "view",
      "type": "function"
    },
    {
      "constant": true,
      "inputs": [],
      "name": "UNDERSUPPORTED",
      "outputs": [
        {
          "internalType": "uint256",
          "name": "",
          "type": "uint256"
        }
      ],
      "payable": false,
      "stateMutability": "view",
      "type": "function"
    },
    {
      "constant": false,
      "inputs": [
        {
          "internalType": "address payable",
          "name": "newOwner",
          "type": "address"
        }
      ],
      "name": "transferOwnership",
      "outputs": [],
      "payable": false,
      "stateMutability": "nonpayable",
      "type": "function"
    },
    {
      "anonymous": false,
      "inputs": [
        {
          "indexed": false,
          "internalType": "uint256",
          "name": "gameId",
          "type": "uint256"
        },
        {
          "indexed": false,
          "internalType": "string",
          "name": "reason",
          "type": "string"
        }
      ],
      "name": "GameCancelled",
      "type": "event"
    },
    {
      "constant": false,
      "inputs": [],
      "name": "initialize",
      "outputs": [],
      "payable": false,
      "stateMutability": "nonpayable",
      "type": "function"
    },
    {
      "constant": false,
      "inputs": [
        {
          "internalType": "uint256",
          "name": "gameId",
          "type": "uint256"
        },
        {
          "internalType": "string",
          "name": "reason",
          "type": "string"
        }
      ],
      "name": "forfeitCron",
      "outputs": [],
      "payable": false,
      "stateMutability": "nonpayable",
      "type": "function"
    },
    {
      "constant": false,
      "inputs": [
        {
          "internalType": "uint256",
          "name": "gameId",
          "type": "uint256"
        },
        {
          "internalType": "uint256",
          "name": "state",
          "type": "uint256"
        }
      ],
      "name": "checkGameStatusCron",
      "outputs": [],
      "payable": false,
      "stateMutability": "nonpayable",
      "type": "function"
    },
    {
      "constant": false,
      "inputs": [
        {
          "internalType": "uint256",
          "name": "gameId",
          "type": "uint256"
        },
        {
          "internalType": "uint256",
          "name": "state",
          "type": "uint256"
        }
      ],
      "name": "checkGameStatus",
      "outputs": [],
      "payable": false,
      "stateMutability": "nonpayable",
      "type": "function"
    },
    {
      "constant": false,
      "inputs": [
        {
          "internalType": "uint256",
          "name": "gameId",
          "type": "uint256"
        },
        {
          "internalType": "uint256",
          "name": "kittieIdBlack",
          "type": "uint256"
        },
        {
          "internalType": "uint256",
          "name": "kittieIdRed",
          "type": "uint256"
        },
        {
          "internalType": "address",
          "name": "playerBlack",
          "type": "address"
        },
        {
          "internalType": "address",
          "name": "playerRed",
          "type": "address"
        }
      ],
      "name": "checkPlayersKitties",
      "outputs": [
        {
          "internalType": "bool",
          "name": "",
          "type": "bool"
        }
      ],
      "payable": false,
      "stateMutability": "nonpayable",
      "type": "function"
    },
    {
      "constant": false,
      "inputs": [
        {
          "internalType": "uint256",
          "name": "gameId",
          "type": "uint256"
        },
        {
          "internalType": "uint256",
          "name": "supportersBlack",
          "type": "uint256"
        },
        {
          "internalType": "uint256",
          "name": "supportersRed",
          "type": "uint256"
        },
        {
          "internalType": "uint256",
          "name": "gamePreStartTime",
          "type": "uint256"
        }
      ],
      "name": "checkAmountSupporters",
      "outputs": [
        {
          "internalType": "bool",
          "name": "",
          "type": "bool"
        }
      ],
      "payable": false,
      "stateMutability": "nonpayable",
      "type": "function"
    },
    {
      "constant": false,
      "inputs": [
        {
          "internalType": "uint256",
          "name": "gameId",
          "type": "uint256"
        },
        {
          "internalType": "bool",
          "name": "blackStarted",
          "type": "bool"
        },
        {
          "internalType": "bool",
          "name": "redStarted",
          "type": "bool"
        },
        {
          "internalType": "uint256",
          "name": "gameStartTime",
          "type": "uint256"
        }
      ],
      "name": "didPlayersStartGame",
      "outputs": [
        {
          "internalType": "bool",
          "name": "",
          "type": "bool"
        }
      ],
      "payable": false,
      "stateMutability": "nonpayable",
      "type": "function"
    }
  ],
  "bytecode": "0x6080604052336000806101000a81548173ffffffffffffffffffffffffffffffffffffffff021916908373ffffffffffffffffffffffffffffffffffffffff16021790555061289a806100536000396000f3fe608060405234801561001057600080fd5b506004361061012c5760003560e01c80639cb4bb27116100ad578063cfafbde711610071578063cfafbde7146105b2578063ec556889146105fc578063ee8c4b6f14610646578063f062040214610664578063f2fde38b146106825761012c565b80639cb4bb27146103e9578063a3b3bd7b14610451578063b0c5831e1461049b578063b1be64691461051e578063c6b05266146105685761012c565b8063690b5f46116100f4578063690b5f461461026d5780638129fc1c146103075780638da5cb5b1461031157806397107d6d1461035b57806397764f891461039f5761012c565b806313cfe12d146101315780631fc7518014610195578063304b9503146101df57806333c0c10d146102175780635aaccebf14610235575b600080fd5b61017b6004803603608081101561014757600080fd5b81019080803590602001909291908035906020019092919080359060200190929190803590602001909291905050506106c6565b604051808215151515815260200191505060405180910390f35b61019d6107eb565b604051808273ffffffffffffffffffffffffffffffffffffffff1673ffffffffffffffffffffffffffffffffffffffff16815260200191505060405180910390f35b610215600480360360408110156101f557600080fd5b810190808035906020019092919080359060200190929190505050610811565b005b61021f61085f565b6040518082815260200191505060405180910390f35b61026b6004803603604081101561024b57600080fd5b810190808035906020019092919080359060200190929190505050610864565b005b6102ed600480360360a081101561028357600080fd5b81019080803590602001909291908035906020019092919080359060200190929190803573ffffffffffffffffffffffffffffffffffffffff169060200190929190803573ffffffffffffffffffffffffffffffffffffffff1690602001909291905050506108b2565b604051808215151515815260200191505060405180910390f35b61030f610cf5565b005b61031961167d565b604051808273ffffffffffffffffffffffffffffffffffffffff1673ffffffffffffffffffffffffffffffffffffffff16815260200191505060405180910390f35b61039d6004803603602081101561037157600080fd5b81019080803573ffffffffffffffffffffffffffffffffffffffff1690602001909291905050506116a2565b005b6103a761173c565b604051808273ffffffffffffffffffffffffffffffffffffffff1673ffffffffffffffffffffffffffffffffffffffff16815260200191505060405180910390f35b610437600480360360808110156103ff57600080fd5b810190808035906020019092919080351515906020019092919080351515906020019092919080359060200190929190505050611762565b604051808215151515815260200191505060405180910390f35b6104596117cd565b604051808273ffffffffffffffffffffffffffffffffffffffff1673ffffffffffffffffffffffffffffffffffffffff16815260200191505060405180910390f35b61051c600480360360408110156104b157600080fd5b8101908080359060200190929190803590602001906401000000008111156104d857600080fd5b8201836020820111156104ea57600080fd5b8035906020019184600183028401116401000000008311171561050c57600080fd5b90919293919293905050506117f3565b005b610526611886565b604051808273ffffffffffffffffffffffffffffffffffffffff1673ffffffffffffffffffffffffffffffffffffffff16815260200191505060405180910390f35b6105706118ac565b604051808273ffffffffffffffffffffffffffffffffffffffff1673ffffffffffffffffffffffffffffffffffffffff16815260200191505060405180910390f35b6105ba6118d2565b604051808273ffffffffffffffffffffffffffffffffffffffff1673ffffffffffffffffffffffffffffffffffffffff16815260200191505060405180910390f35b6106046118f8565b604051808273ffffffffffffffffffffffffffffffffffffffff1673ffffffffffffffffffffffffffffffffffffffff16815260200191505060405180910390f35b61064e61191e565b6040518082815260200191505060405180910390f35b61066c611923565b6040518082815260200191505060405180910390f35b6106c46004803603602081101561069857600080fd5b81019080803573ffffffffffffffffffffffffffffffffffffffff169060200190929190505050611928565b005b60004282116107de576000600260009054906101000a900473ffffffffffffffffffffffffffffffffffffffff1673ffffffffffffffffffffffffffffffffffffffff166331856c71876040518263ffffffff1660e01b81526004018082815260200191505060206040518083038186803b15801561074457600080fd5b505afa158015610758573d6000803e3d6000fd5b505050506040513d602081101561076e57600080fd5b810190808051906020019092919050505090508085108061078e57508084105b156107dc576107d2866040518060400160405280600e81526020017f556e646572737570706f727465640000000000000000000000000000000000008152506119f6565b60009150506107e3565b505b600190505b949350505050565b600460009054906101000a900473ffffffffffffffffffffffffffffffffffffffff1681565b6040518060400160405280600c81526020017f47616d654372656174696f6e000000000000000000000000000000000000000081525061085081611f2d565b61085a83836121c8565b505050565b600281565b6040518060400160405280600b81526020017f47616d654d616e616765720000000000000000000000000000000000000000008152506108a381611f2d565b6108ad83836121c8565b505050565b6000806000600760009054906101000a900473ffffffffffffffffffffffffffffffffffffffff1673ffffffffffffffffffffffffffffffffffffffff16600660009054906101000a900473ffffffffffffffffffffffffffffffffffffffff1673ffffffffffffffffffffffffffffffffffffffff16636352211e896040518263ffffffff1660e01b81526004018082815260200191505060206040518083038186803b15801561096357600080fd5b505afa158015610977573d6000803e3d6000fd5b505050506040513d602081101561098d57600080fd5b810190808051906020019092919050505073ffffffffffffffffffffffffffffffffffffffff1614156109c35760019150610aa2565b8473ffffffffffffffffffffffffffffffffffffffff16600660009054906101000a900473ffffffffffffffffffffffffffffffffffffffff1673ffffffffffffffffffffffffffffffffffffffff16636352211e896040518263ffffffff1660e01b81526004018082815260200191505060206040518083038186803b158015610a4d57600080fd5b505afa158015610a61573d6000803e3d6000fd5b505050506040513d6020811015610a7757600080fd5b810190808051906020019092919050505073ffffffffffffffffffffffffffffffffffffffff161491505b600760009054906101000a900473ffffffffffffffffffffffffffffffffffffffff1673ffffffffffffffffffffffffffffffffffffffff16600660009054906101000a900473ffffffffffffffffffffffffffffffffffffffff1673ffffffffffffffffffffffffffffffffffffffff16636352211e886040518263ffffffff1660e01b81526004018082815260200191505060206040518083038186803b158015610b4e57600080fd5b505afa158015610b62573d6000803e3d6000fd5b505050506040513d6020811015610b7857600080fd5b810190808051906020019092919050505073ffffffffffffffffffffffffffffffffffffffff161415610bae5760019050610c8d565b8373ffffffffffffffffffffffffffffffffffffffff16600660009054906101000a900473ffffffffffffffffffffffffffffffffffffffff1673ffffffffffffffffffffffffffffffffffffffff16636352211e886040518263ffffffff1660e01b81526004018082815260200191505060206040518083038186803b158015610c3857600080fd5b505afa158015610c4c573d6000803e3d6000fd5b505050506040513d6020811015610c6257600080fd5b810190808051906020019092919050505073ffffffffffffffffffffffffffffffffffffffff161490505b818015610c975750805b610ce557610cda886040518060400160405280600b81526020017f4b6974746965204c6566740000000000000000000000000000000000000000008152506119f6565b600092505050610cec565b6001925050505b95945050505050565b6000809054906101000a900473ffffffffffffffffffffffffffffffffffffffff1673ffffffffffffffffffffffffffffffffffffffff163373ffffffffffffffffffffffffffffffffffffffff1614610d4b57fe5b600160009054906101000a900473ffffffffffffffffffffffffffffffffffffffff1673ffffffffffffffffffffffffffffffffffffffff1663358177736040518060400160405280600b81526020017f47616d654d616e616765720000000000000000000000000000000000000000008152506040518263ffffffff1660e01b81526004018080602001828103825283818151815260200191508051906020019080838360005b83811015610e0e578082015181840152602081019050610df3565b50505050905090810190601f168015610e3b5780820380516001836020036101000a031916815260200191505b509250505060206040518083038186803b158015610e5857600080fd5b505afa158015610e6c573d6000803e3d6000fd5b505050506040513d6020811015610e8257600080fd5b8101908080519060200190929190505050600360006101000a81548173ffffffffffffffffffffffffffffffffffffffff021916908373ffffffffffffffffffffffffffffffffffffffff160217905550600160009054906101000a900473ffffffffffffffffffffffffffffffffffffffff1673ffffffffffffffffffffffffffffffffffffffff1663358177736040518060400160405280600981526020017f47616d6553746f726500000000000000000000000000000000000000000000008152506040518263ffffffff1660e01b81526004018080602001828103825283818151815260200191508051906020019080838360005b83811015610f96578082015181840152602081019050610f7b565b50505050905090810190601f168015610fc35780820380516001836020036101000a031916815260200191505b509250505060206040518083038186803b158015610fe057600080fd5b505afa158015610ff4573d6000803e3d6000fd5b505050506040513d602081101561100a57600080fd5b8101908080519060200190929190505050600260006101000a81548173ffffffffffffffffffffffffffffffffffffffff021916908373ffffffffffffffffffffffffffffffffffffffff160217905550600160009054906101000a900473ffffffffffffffffffffffffffffffffffffffff1673ffffffffffffffffffffffffffffffffffffffff1663358177736040518060400160405280600a81526020017f474d4765747465724442000000000000000000000000000000000000000000008152506040518263ffffffff1660e01b81526004018080602001828103825283818151815260200191508051906020019080838360005b8381101561111e578082015181840152602081019050611103565b50505050905090810190601f16801561114b5780820380516001836020036101000a031916815260200191505b509250505060206040518083038186803b15801561116857600080fd5b505afa15801561117c573d6000803e3d6000fd5b505050506040513d602081101561119257600080fd5b8101908080519060200190929190505050600460006101000a81548173ffffffffffffffffffffffffffffffffffffffff021916908373ffffffffffffffffffffffffffffffffffffffff160217905550600160009054906101000a900473ffffffffffffffffffffffffffffffffffffffff1673ffffffffffffffffffffffffffffffffffffffff1663358177736040518060400160405280600d81526020017f47616d65566172416e64466565000000000000000000000000000000000000008152506040518263ffffffff1660e01b81526004018080602001828103825283818151815260200191508051906020019080838360005b838110156112a657808201518184015260208101905061128b565b50505050905090810190601f1680156112d35780820380516001836020036101000a031916815260200191505b509250505060206040518083038186803b1580156112f057600080fd5b505afa158015611304573d6000803e3d6000fd5b505050506040513d602081101561131a57600080fd5b8101908080519060200190929190505050600560006101000a81548173ffffffffffffffffffffffffffffffffffffffff021916908373ffffffffffffffffffffffffffffffffffffffff160217905550600160009054906101000a900473ffffffffffffffffffffffffffffffffffffffff1673ffffffffffffffffffffffffffffffffffffffff1663358177736040518060400160405280600d81526020017f43727970746f4b697474696573000000000000000000000000000000000000008152506040518263ffffffff1660e01b81526004018080602001828103825283818151815260200191508051906020019080838360005b8381101561142e578082015181840152602081019050611413565b50505050905090810190601f16801561145b5780820380516001836020036101000a031916815260200191505b509250505060206040518083038186803b15801561147857600080fd5b505afa15801561148c573d6000803e3d6000fd5b505050506040513d60208110156114a257600080fd5b8101908080519060200190929190505050600660006101000a81548173ffffffffffffffffffffffffffffffffffffffff021916908373ffffffffffffffffffffffffffffffffffffffff160217905550600160009054906101000a900473ffffffffffffffffffffffffffffffffffffffff1673ffffffffffffffffffffffffffffffffffffffff1663358177736040518060400160405280600a81526020017f4b697474696548656c6c000000000000000000000000000000000000000000008152506040518263ffffffff1660e01b81526004018080602001828103825283818151815260200191508051906020019080838360005b838110156115b657808201518184015260208101905061159b565b50505050905090810190601f1680156115e35780820380516001836020036101000a031916815260200191505b509250505060206040518083038186803b15801561160057600080fd5b505afa158015611614573d6000803e3d6000fd5b505050506040513d602081101561162a57600080fd5b8101908080519060200190929190505050600760006101000a81548173ffffffffffffffffffffffffffffffffffffffff021916908373ffffffffffffffffffffffffffffffffffffffff160217905550565b6000809054906101000a900473ffffffffffffffffffffffffffffffffffffffff1681565b6000809054906101000a900473ffffffffffffffffffffffffffffffffffffffff1673ffffffffffffffffffffffffffffffffffffffff163373ffffffffffffffffffffffffffffffffffffffff16146116f857fe5b80600160006101000a81548173ffffffffffffffffffffffffffffffffffffffff021916908373ffffffffffffffffffffffffffffffffffffffff16021790555050565b600660009054906101000a900473ffffffffffffffffffffffffffffffffffffffff1681565b60004282116117c457831580611776575082155b156117c3576117ba856040518060400160405280601181526020017f446964206e6f74206869742073746172740000000000000000000000000000008152506119f6565b600190506117c5565b5b5b949350505050565b600560009054906101000a900473ffffffffffffffffffffffffffffffffffffffff1681565b6040518060400160405280600c81526020017f47616d654372656174696f6e000000000000000000000000000000000000000081525061183281611f2d565b6118808484848080601f016020809104026020016040519081016040528093929190818152602001838380828437600081840152601f19601f820116905080830192505050505050506119f6565b50505050565b600260009054906101000a900473ffffffffffffffffffffffffffffffffffffffff1681565b600360009054906101000a900473ffffffffffffffffffffffffffffffffffffffff1681565b600760009054906101000a900473ffffffffffffffffffffffffffffffffffffffff1681565b600160009054906101000a900473ffffffffffffffffffffffffffffffffffffffff1681565b600181565b600081565b6000809054906101000a900473ffffffffffffffffffffffffffffffffffffffff1673ffffffffffffffffffffffffffffffffffffffff163373ffffffffffffffffffffffffffffffffffffffff161461197e57fe5b600073ffffffffffffffffffffffffffffffffffffffff168173ffffffffffffffffffffffffffffffffffffffff16146119f357806000806101000a81548173ffffffffffffffffffffffffffffffffffffffff021916908373ffffffffffffffffffffffffffffffffffffffff1602179055505b50565b600080600080600460009054906101000a900473ffffffffffffffffffffffffffffffffffffffff1673ffffffffffffffffffffffffffffffffffffffff166315a40f49876040518263ffffffff1660e01b81526004018082815260200191505060806040518083038186803b158015611a6f57600080fd5b505afa158015611a83573d6000803e3d6000fd5b505050506040513d6080811015611a9957600080fd5b810190808051906020019092919080519060200190929190805190602001909291908051906020019092919050505093509350935093508373ffffffffffffffffffffffffffffffffffffffff16600660009054906101000a900473ffffffffffffffffffffffffffffffffffffffff1673ffffffffffffffffffffffffffffffffffffffff16636352211e846040518263ffffffff1660e01b81526004018082815260200191505060206040518083038186803b158015611b5a57600080fd5b505afa158015611b6e573d6000803e3d6000fd5b505050506040513d6020811015611b8457600080fd5b810190808051906020019092919050505073ffffffffffffffffffffffffffffffffffffffff1614611c6257600760009054906101000a900473ffffffffffffffffffffffffffffffffffffffff1673ffffffffffffffffffffffffffffffffffffffff1663f4b50fae836040518263ffffffff1660e01b815260040180828152602001915050602060405180830381600087803b158015611c2557600080fd5b505af1158015611c39573d6000803e3d6000fd5b505050506040513d6020811015611c4f57600080fd5b8101908080519060200190929190505050505b8273ffffffffffffffffffffffffffffffffffffffff16600660009054906101000a900473ffffffffffffffffffffffffffffffffffffffff1673ffffffffffffffffffffffffffffffffffffffff16636352211e836040518263ffffffff1660e01b81526004018082815260200191505060206040518083038186803b158015611cec57600080fd5b505afa158015611d00573d6000803e3d6000fd5b505050506040513d6020811015611d1657600080fd5b810190808051906020019092919050505073ffffffffffffffffffffffffffffffffffffffff1614611df457600760009054906101000a900473ffffffffffffffffffffffffffffffffffffffff1673ffffffffffffffffffffffffffffffffffffffff1663f4b50fae826040518263ffffffff1660e01b815260040180828152602001915050602060405180830381600087803b158015611db757600080fd5b505af1158015611dcb573d6000803e3d6000fd5b505050506040513d6020811015611de157600080fd5b8101908080519060200190929190505050505b600360009054906101000a900473ffffffffffffffffffffffffffffffffffffffff1673ffffffffffffffffffffffffffffffffffffffff166369958ab9876040518263ffffffff1660e01b815260040180828152602001915050600060405180830381600087803b158015611e6957600080fd5b505af1158015611e7d573d6000803e3d6000fd5b505050507f0f023b047be6c305859504186f8b03ee5a634f9ab472ff386d3b1de9387c083e86866040518083815260200180602001828103825283818151815260200191508051906020019080838360005b83811015611eea578082015181840152602081019050611ecf565b50505050905090810190601f168015611f175780820380516001836020036101000a031916815260200191505b50935050505060405180910390a1505050505050565b600073ffffffffffffffffffffffffffffffffffffffff16600160009054906101000a900473ffffffffffffffffffffffffffffffffffffffff1673ffffffffffffffffffffffffffffffffffffffff161415611ff2576040517f08c379a00000000000000000000000000000000000000000000000000000000081526004018080602001828103825260088152602001807f4e6f2050726f787900000000000000000000000000000000000000000000000081525060200191505060405180910390fd5b6000600160009054906101000a900473ffffffffffffffffffffffffffffffffffffffff1673ffffffffffffffffffffffffffffffffffffffff166335817773836040518263ffffffff1660e01b81526004018080602001828103825283818151815260200191508051906020019080838360005b83811015612082578082015181840152602081019050612067565b50505050905090810190601f1680156120af5780820380516001836020036101000a031916815260200191505b509250505060206040518083038186803b1580156120cc57600080fd5b505afa1580156120e0573d6000803e3d6000fd5b505050506040513d60208110156120f657600080fd5b81019080805190602001909291905050509050600073ffffffffffffffffffffffffffffffffffffffff168173ffffffffffffffffffffffffffffffffffffffff16141561214057fe5b8073ffffffffffffffffffffffffffffffffffffffff163373ffffffffffffffffffffffffffffffffffffffff16146121c4576040517f08c379a000000000000000000000000000000000000000000000000000000000815260040180806020018281038252602d815260200180612839602d913960400191505060405180910390fd5b5050565b600080600080600460009054906101000a900473ffffffffffffffffffffffffffffffffffffffff1673ffffffffffffffffffffffffffffffffffffffff166315a40f49876040518263ffffffff1660e01b81526004018082815260200191505060806040518083038186803b15801561224157600080fd5b505afa158015612255573d6000803e3d6000fd5b505050506040513d608081101561226b57600080fd5b810190808051906020019092919080519060200190929190805190602001909291908051906020019092919050505093509350935093506000851415612569576000600460009054906101000a900473ffffffffffffffffffffffffffffffffffffffff1673ffffffffffffffffffffffffffffffffffffffff16638851470d886040518263ffffffff1660e01b81526004018082815260200191505060606040518083038186803b15801561232057600080fd5b505afa158015612334573d6000803e3d6000fd5b505050506040513d606081101561234a57600080fd5b81019080805190602001909291908051906020019092919080519060200190929190505050509150506000600460009054906101000a900473ffffffffffffffffffffffffffffffffffffffff1673ffffffffffffffffffffffffffffffffffffffff1663de4128de89886040518363ffffffff1660e01b8152600401808381526020018273ffffffffffffffffffffffffffffffffffffffff1673ffffffffffffffffffffffffffffffffffffffff1681526020019250505060206040518083038186803b15801561241c57600080fd5b505afa158015612430573d6000803e3d6000fd5b505050506040513d602081101561244657600080fd5b810190808051906020019092919050505090506000600460009054906101000a900473ffffffffffffffffffffffffffffffffffffffff1673ffffffffffffffffffffffffffffffffffffffff1663de4128de8a886040518363ffffffff1660e01b8152600401808381526020018273ffffffffffffffffffffffffffffffffffffffff1673ffffffffffffffffffffffffffffffffffffffff1681526020019250505060206040518083038186803b15801561250257600080fd5b505afa158015612516573d6000803e3d6000fd5b505050506040513d602081101561252c57600080fd5b81019080805190602001909291905050509050600061254e8a87878b8b6108b2565b90508015612564576125628a8484876106c6565b505b505050505b6001851415612830576000600460009054906101000a900473ffffffffffffffffffffffffffffffffffffffff1673ffffffffffffffffffffffffffffffffffffffff16638851470d886040518263ffffffff1660e01b81526004018082815260200191505060606040518083038186803b1580156125e757600080fd5b505afa1580156125fb573d6000803e3d6000fd5b505050506040513d606081101561261157600080fd5b81019080805190602001909291908051906020019092919080519060200190929190505050505090506000600260009054906101000a900473ffffffffffffffffffffffffffffffffffffffff1673ffffffffffffffffffffffffffffffffffffffff1663ebff754a89876040518363ffffffff1660e01b8152600401808381526020018273ffffffffffffffffffffffffffffffffffffffff1673ffffffffffffffffffffffffffffffffffffffff1681526020019250505060206040518083038186803b1580156126e357600080fd5b505afa1580156126f7573d6000803e3d6000fd5b505050506040513d602081101561270d57600080fd5b810190808051906020019092919050505090506000600260009054906101000a900473ffffffffffffffffffffffffffffffffffffffff1673ffffffffffffffffffffffffffffffffffffffff1663ebff754a8a886040518363ffffffff1660e01b8152600401808381526020018273ffffffffffffffffffffffffffffffffffffffff1673ffffffffffffffffffffffffffffffffffffffff1681526020019250505060206040518083038186803b1580156127c957600080fd5b505afa1580156127dd573d6000803e3d6000fd5b505050506040513d60208110156127f357600080fd5b8101908080519060200190929190505050905060006128158a87878b8b6108b2565b9050801561282b576128298a838587611762565b505b505050505b50505050505056fe416363657373206973206f6e6c7920616c6c6f7765642066726f6d20737065636966696320636f6e7472616374a265627a7a723158201d2833cf07492590d14b31b57326047a75d46413b2b0c8d10ca1da2a31dd156f64736f6c634300050b0032",
  "source": "// This program is free software: you can redistribute it and/or modify\n// it under the terms of the GNU General Public License as published by\n// the Free Software Foundation, either version 3 of the License, or\n// (at your option) any later version.\n\n// This program is distributed in the hope that it will be useful,\n// but WITHOUT ANY WARRANTY; without even the implied warranty of\n// MERCHANTABILITY or FITNESS FOR A PARTICULAR PURPOSE.  See the\n// GNU General Public License for more details.\n\n// You should have received a copy of the GNU General Public License\n// along with this program.  If not, see <http://www.gnu.org/licenses/>.\npragma solidity ^0.5.5;\n\nimport \"../proxy/Proxied.sol\";\nimport \"../databases/GMGetterDB.sol\";\nimport \"./GameStore.sol\";\nimport \"./GameManager.sol\";\nimport \"../../GameVarAndFee.sol\";\nimport \"../../interfaces/ERC721.sol\";\nimport '../kittieHELL/KittieHell.sol';\n\n\n/**\n * @title Forfeiter\n * @notice This contracts safeguards any game instances against any unintended outcomes\n * @author wafflemakr\n */\ncontract Forfeiter is Proxied {\n\n  GameStore public gameStore;\n  GameManager public gameManager;\n  GMGetterDB public gmGetterDB;\n  GameVarAndFee public gameVarAndFee;\n  ERC721 public ckc;\n  KittieHell public kittieHELL;\n\n  uint256 public constant UNDERSUPPORTED = 0;\n  uint256 public constant KITTIE_LEFT = 1;\n  uint256 public constant NOT_HIT_START = 2;\n\n  event GameCancelled(uint gameId, string reason);\n\n  /**\n   * @notice Owner can call this function to update the needed contracts for checking conditions\n   * @dev contract addresses are stored in proxy\n   */\n  function initialize() external onlyOwner {\n    gameManager = GameManager(proxy.getContract(CONTRACT_NAME_GAMEMANAGER));\n    gameStore = GameStore(proxy.getContract(CONTRACT_NAME_GAMESTORE));\n    gmGetterDB = GMGetterDB(proxy.getContract(CONTRACT_NAME_GM_GETTER_DB));\n    gameVarAndFee = GameVarAndFee(proxy.getContract(CONTRACT_NAME_GAMEVARANDFEE));\n    ckc = ERC721(proxy.getContract(CONTRACT_NAME_CRYPTOKITTIES));\n    kittieHELL = KittieHell(proxy.getContract(CONTRACT_NAME_KITTIEHELL));\n  }\n\n  /**\n   * @notice Called each time there is ANY interaction with a game instance within the gameManager\n   * @dev function called only by the Game Manager contract\n   * @param gameId uint256 game or fight id\n   */\n  function checkStatus(uint256 gameId, uint gameState)\n    internal\n  {\n    (address playerBlack, address playerRed, uint256 kittyBlack,\n      uint256 kittyRed) = gmGetterDB.getGamePlayers(gameId);\n\n    // GAME_CREATED\n    if (gameState == 0) {\n      (,uint256 gamePreStartTime,) = gmGetterDB.getGameTimes(gameId);\n      uint supportersBlack = gmGetterDB.getSupporters(gameId, playerBlack);\n      uint supportersRed = gmGetterDB.getSupporters(gameId, playerRed);\n\n      bool check = checkPlayersKitties(gameId, kittyBlack, kittyRed, playerBlack, playerRed);\n      //if previous check passes, check players start\n       if(check) checkAmountSupporters(gameId, supportersBlack, supportersRed, gamePreStartTime);\n    }\n\n    // GAME_PRESTART\n    if (gameState == 1) {\n      (uint256 gameStartTime,,) = gmGetterDB.getGameTimes(gameId);\n      bool redStarted = gameStore.didHitStart(gameId, playerRed);\n      bool blackStarted = gameStore.didHitStart(gameId, playerRed);\n\n      bool check = checkPlayersKitties(gameId, kittyBlack, kittyRed, playerBlack, playerRed); // TODO check why it fails here\n      //if previous check passes, check players start\n      if(check) didPlayersStartGame(gameId, blackStarted, redStarted, gameStartTime);\n    }\n  }\n\n  /**\n   * @notice calls cancelGame on a game instance within the GamesManager\n   * @dev called by \"CheckStatus\" if any of the required conditions are false\n   *  (Not called in case of underPerformed returning true )\n   * @param gameId uint256\n   */\n  function forfeitGame(uint256 gameId, string memory reason) internal {\n    (address playerBlack, address playerRed, uint256 kittyBlack,\n      uint256 kittyRed) = gmGetterDB.getGamePlayers(gameId);\n    if (ckc.ownerOf(kittyBlack) != playerBlack) kittieHELL.releaseKittyForfeiter(kittyBlack);\n    if (ckc.ownerOf(kittyRed) != playerRed) kittieHELL.releaseKittyForfeiter(kittyRed);\n    gameManager.cancelGame(gameId);\n    emit GameCancelled(gameId, reason);\n  }\n\n  function forfeitCron(uint256 gameId, string calldata reason)\n    external\n    onlyContract(CONTRACT_NAME_GAMECREATION)\n  {\n    forfeitGame(gameId, reason);\n  }\n\n  function checkGameStatusCron(uint256 gameId, uint state)\n    external\n    onlyContract(CONTRACT_NAME_GAMECREATION)\n  {\n    checkStatus(gameId, state);\n  }\n\n  function checkGameStatus(uint256 gameId, uint state)\n    external\n    onlyContract(CONTRACT_NAME_GAMEMANAGER)\n  {\n    checkStatus(gameId, state);\n  }\n\n  /**\n   * @notice checks that the each player still own listed kittie\n   * @dev it can also be owned by kittie hell\n   * @param kittieIdBlack uint256 kittieId of Black Corner\n   * @param kittieIdRed uint256 kittieId of Red Corner\n   * @param playerBlack address of Black Player\n   * @param playerRed address of Red Player\n   */\n  function checkPlayersKitties\n  (\n    uint gameId, uint kittieIdBlack, uint kittieIdRed,\n    address playerBlack, address playerRed\n  )\n    public returns(bool)\n  {\n    bool checkBlack;\n    bool checkRed;\n\n    //When one player hits start, that kittie is owned by kittieHELL\n    if (ckc.ownerOf(kittieIdBlack) == address(kittieHELL)) checkBlack = true;\n    else checkBlack = ckc.ownerOf(kittieIdBlack) == playerBlack;\n\n    if(ckc.ownerOf(kittieIdRed) == address(kittieHELL)) checkRed = true;\n    else checkRed = ckc.ownerOf(kittieIdRed) == playerRed;\n\n    if (!(checkBlack && checkRed)) {\n      forfeitGame(gameId, 'Kittie Left');\n      return false;\n    }\n\n    return true;\n  }\n\n  /**\n   * @notice checks for correct amount of supporters in each side when prestart time is reached\n   * @param supportersBlack uint256 amount of supporters in black corner\n   * @param supportersRed uint256 amount of supporters in red corner\n   * @param gamePreStartTime uint256 time when game starts 2 min countdown\n   */\n  function checkAmountSupporters(uint gameId, uint supportersBlack, uint supportersRed, uint gamePreStartTime)\n    public  returns(bool)\n  {\n    if (gamePreStartTime <= now) {\n      uint minSupporters = gameStore.getMinimumContributors(gameId); //TODO: should call getterDB as vars and fees are locked\n      if(supportersBlack < minSupporters || supportersRed < minSupporters){\n        forfeitGame(gameId, \"Undersupported\");\n        return false;\n      }\n    }\n\n    return true;\n  }\n\n  /**\n   * @notice Check if any of players did not hit start when game start time is reached\n   * @param blackStarted bool if black player hit start\n   * @param redStarted bool if red player hit start\n   * @param gameStartTime uint256 time when 2 min countdown ends\n   */\n  function didPlayersStartGame(uint gameId, bool blackStarted, bool redStarted, uint gameStartTime)\n    public  returns(bool)\n  {\n    if (gameStartTime <= now){\n      if(!blackStarted || !redStarted){\n        forfeitGame(gameId, \"Did not hit start\");\n        return true;\n      }\n    }\n  }\n}",
  "sourcePath": "/home/wafflemakr/Desktop/KittieFight/alpha/contracts/modules/gamemanager/Forfeiter.sol",
  "compiler": {
    "name": "solc",
    "version": "0.5.11+commit.c082d0b4.Emscripten.clang"
  },
  "schemaVersion": "3.0.11",
  "updatedAt": "2019-08-13T15:12:07.279Z",
  "devdoc": {
    "author": "wafflemakr",
    "methods": {
      "checkAmountSupporters(uint256,uint256,uint256,uint256)": {
        "params": {
          "gamePreStartTime": "uint256 time when game starts 2 min countdown",
          "supportersBlack": "uint256 amount of supporters in black corner",
          "supportersRed": "uint256 amount of supporters in red corner"
        }
      },
      "checkPlayersKitties(uint256,uint256,uint256,address,address)": {
        "details": "it can also be owned by kittie hell",
        "params": {
          "kittieIdBlack": "uint256 kittieId of Black Corner",
          "kittieIdRed": "uint256 kittieId of Red Corner",
          "playerBlack": "address of Black Player",
          "playerRed": "address of Red Player"
        }
      },
      "didPlayersStartGame(uint256,bool,bool,uint256)": {
        "params": {
          "blackStarted": "bool if black player hit start",
          "gameStartTime": "uint256 time when 2 min countdown ends",
          "redStarted": "bool if red player hit start"
        }
      },
      "initialize()": {
        "details": "contract addresses are stored in proxy"
      }
    },
    "title": "Forfeiter"
  },
  "userdoc": {
    "methods": {
      "checkAmountSupporters(uint256,uint256,uint256,uint256)": {
        "notice": "checks for correct amount of supporters in each side when prestart time is reached"
      },
      "checkPlayersKitties(uint256,uint256,uint256,address,address)": {
        "notice": "checks that the each player still own listed kittie"
      },
      "didPlayersStartGame(uint256,bool,bool,uint256)": {
        "notice": "Check if any of players did not hit start when game start time is reached"
      },
      "initialize()": {
        "notice": "Owner can call this function to update the needed contracts for checking conditions"
      },
      "setProxy(address)": {
        "notice": "Set/update address of Proxy contract"
      }
    },
    "notice": "This contracts safeguards any game instances against any unintended outcomes"
  }
}