{
  "contractName": "FreezeInfo",
  "abi": [
    {
      "constant": true,
      "inputs": [],
      "name": "frozen",
      "outputs": [
        {
          "internalType": "bool",
          "name": "",
          "type": "bool"
        }
      ],
      "payable": false,
      "stateMutability": "view",
      "type": "function"
    },
    {
      "constant": true,
      "inputs": [],
      "name": "lastFreezeEnd",
      "outputs": [
        {
          "internalType": "uint256",
          "name": "",
          "type": "uint256"
        }
      ],
      "payable": false,
      "stateMutability": "view",
      "type": "function"
    },
    {
      "constant": true,
      "inputs": [
        {
          "internalType": "uint256",
          "name": "",
          "type": "uint256"
        }
      ],
      "name": "freezes",
      "outputs": [
        {
          "internalType": "uint256",
          "name": "start",
          "type": "uint256"
        },
        {
          "internalType": "uint256",
          "name": "end",
          "type": "uint256"
        }
      ],
      "payable": false,
      "stateMutability": "view",
      "type": "function"
    },
    {
      "constant": true,
      "inputs": [],
      "name": "owner",
      "outputs": [
        {
          "internalType": "address payable",
          "name": "",
          "type": "address"
        }
      ],
      "payable": false,
      "stateMutability": "view",
      "type": "function"
    },
    {
      "constant": false,
      "inputs": [
        {
          "internalType": "contract ProxyBase",
          "name": "_proxy",
          "type": "address"
        }
      ],
      "name": "setProxy",
      "outputs": [],
      "payable": false,
      "stateMutability": "nonpayable",
      "type": "function"
    },
    {
      "constant": true,
      "inputs": [],
      "name": "proxy",
      "outputs": [
        {
          "internalType": "contract ProxyBase",
          "name": "",
          "type": "address"
        }
      ],
      "payable": false,
      "stateMutability": "view",
      "type": "function"
    },
    {
      "constant": false,
      "inputs": [
        {
          "internalType": "address payable",
          "name": "newOwner",
          "type": "address"
        }
      ],
      "name": "transferOwnership",
      "outputs": [],
      "payable": false,
      "stateMutability": "nonpayable",
      "type": "function"
    },
    {
      "anonymous": false,
      "inputs": [],
      "name": "SystemFrozen",
      "type": "event"
    },
    {
      "anonymous": false,
      "inputs": [],
      "name": "SystemUnfrozen",
      "type": "event"
    },
    {
      "constant": false,
      "inputs": [
        {
          "internalType": "bool",
          "name": "_frozen",
          "type": "bool"
        }
      ],
      "name": "setFrozen",
      "outputs": [],
      "payable": false,
      "stateMutability": "nonpayable",
      "type": "function"
    },
    {
      "constant": false,
      "inputs": [
        {
          "internalType": "uint256[]",
          "name": "starts",
          "type": "uint256[]"
        },
        {
          "internalType": "uint256[]",
          "name": "ends",
          "type": "uint256[]"
        }
      ],
      "name": "importFreezes",
      "outputs": [],
      "payable": false,
      "stateMutability": "nonpayable",
      "type": "function"
    },
    {
      "constant": true,
      "inputs": [
        {
          "internalType": "uint256",
          "name": "since",
          "type": "uint256"
        }
      ],
      "name": "getFrozenTime",
      "outputs": [
        {
          "internalType": "uint256",
          "name": "",
          "type": "uint256"
        }
      ],
      "payable": false,
      "stateMutability": "view",
      "type": "function"
    }
  ],
  "bytecode": "0x60806040526000600455336000806101000a81548173ffffffffffffffffffffffffffffffffffffffff021916908373ffffffffffffffffffffffffffffffffffffffff160217905550611014806100586000396000f3fe608060405234801561001057600080fd5b506004361061009e5760003560e01c80638da5cb5b116100665780638da5cb5b1461019e57806397107d6d146101e8578063bd9ef4ab1461022c578063ec556889146102fa578063f2fde38b146103445761009e565b8063054f7d9c146100a357806307a32c39146100c557806332eab460146100e35780635645eb73146101255780637e932d321461016e575b600080fd5b6100ab610388565b604051808215151515815260200191505060405180910390f35b6100cd61039b565b6040518082815260200191505060405180910390f35b61010f600480360360208110156100f957600080fd5b81019080803590602001909291905050506103a1565b6040518082815260200191505060405180910390f35b6101516004803603602081101561013b57600080fd5b8101908080359060200190929190505050610561565b604051808381526020018281526020019250505060405180910390f35b61019c6004803603602081101561018457600080fd5b81019080803515159060200190929190505050610592565b005b6101a66107b5565b604051808273ffffffffffffffffffffffffffffffffffffffff1673ffffffffffffffffffffffffffffffffffffffff16815260200191505060405180910390f35b61022a600480360360208110156101fe57600080fd5b81019080803573ffffffffffffffffffffffffffffffffffffffff1690602001909291905050506107da565b005b6102f86004803603604081101561024257600080fd5b810190808035906020019064010000000081111561025f57600080fd5b82018360208201111561027157600080fd5b8035906020019184602083028401116401000000008311171561029357600080fd5b9091929391929390803590602001906401000000008111156102b457600080fd5b8201836020820111156102c657600080fd5b803590602001918460208302840111640100000000831117156102e857600080fd5b9091929391929390505050610874565b005b610302610b97565b604051808273ffffffffffffffffffffffffffffffffffffffff1673ffffffffffffffffffffffffffffffffffffffff16815260200191505060405180910390f35b6103866004803603602081101561035a57600080fd5b81019080803573ffffffffffffffffffffffffffffffffffffffff169060200190929190505050610bbd565b005b600360009054906101000a900460ff1681565b60045481565b600060045482106103b5576000905061055c565b6000809050600360009054906101000a900460ff1615610401576002600160028054905003815481106103e457fe5b906000526020600020906002020160000154420381019050610462565b6000600280549050111561046157600060016002805490500390506002818154811061042957fe5b9060005260206000209060020201600001546002828154811061044857fe5b9060005260206000209060020201600101540382019150505b5b60016002805490501115610557576000600280805490500390505b6000811061055557836002828154811061049357fe5b906000526020600020906002020160010154116104af57610555565b83600282815481106104bd57fe5b906000526020600020906002020160000154111561051d57600281815481106104e257fe5b9060005260206000209060020201600001546002828154811061050157fe5b9060005260206000209060020201600101540382019150610547565b836002828154811061052b57fe5b9060005260206000209060020201600101540382019150610555565b80806001900391505061047d565b505b809150505b919050565b6002818154811061056e57fe5b90600052602060002090600202016000915090508060000154908060010154905082565b600073ffffffffffffffffffffffffffffffffffffffff163373ffffffffffffffffffffffffffffffffffffffff1614156105c957fe5b6106076040518060400160405280600b81526020017f73757065725f61646d696e000000000000000000000000000000000000000000815250610c8b565b610679576040517f08c379a00000000000000000000000000000000000000000000000000000000081526004018080602001828103825260108152602001807f4f6e6c792073757065722061646d696e0000000000000000000000000000000081525060200191505060405180910390fd5b801515600360009054906101000a900460ff161515141561069957600080fd5b80600360006101000a81548160ff021916908315150217905550600360009054906101000a900460ff1615610753576002604051806040016040528042815260200160008152509080600181540180825580915050906001820390600052602060002090600202016000909192909190915060008201518160000155602082015181600101555050507f2ba22c6dcddc9875a8ff550aa766a83db140d1741049df8daa1823f134bd5ba760405160405180910390a16107b2565b426004819055504260026001600280549050038154811061077057fe5b9060005260206000209060020201600101819055507fa0757d904238ef1cb9610053173d82030253c8006758123153ca3286bba9bc8a60405160405180910390a15b50565b6000809054906101000a900473ffffffffffffffffffffffffffffffffffffffff1681565b6000809054906101000a900473ffffffffffffffffffffffffffffffffffffffff1673ffffffffffffffffffffffffffffffffffffffff163373ffffffffffffffffffffffffffffffffffffffff161461083057fe5b80600160006101000a81548173ffffffffffffffffffffffffffffffffffffffff021916908373ffffffffffffffffffffffffffffffffffffffff16021790555050565b600073ffffffffffffffffffffffffffffffffffffffff163373ffffffffffffffffffffffffffffffffffffffff1614156108ab57fe5b6108e96040518060400160405280600b81526020017f73757065725f61646d696e000000000000000000000000000000000000000000815250610c8b565b61095b576040517f08c379a00000000000000000000000000000000000000000000000000000000081526004018080602001828103825260108152602001807f4f6e6c792073757065722061646d696e0000000000000000000000000000000081525060200191505060405180910390fd5b6000600280549050146109d6576040517f08c379a000000000000000000000000000000000000000000000000000000000815260040180806020018281038252601f8152602001807f4f6e6c7920616c6c6f7720696d706f727420746f20656d707479206c6973740081525060200191505060405180910390fd5b818190508484905014610a34576040517f08c379a0000000000000000000000000000000000000000000000000000000008152600401808060200182810382526023815260200180610fbd6023913960400191505060405180910390fd5b6000600360006101000a81548160ff02191690831515021790555060008090505b84849050811015610b905742838383818110610a6d57fe5b905060200201351115610b065760026040518060400160405280878785818110610a9357fe5b90506020020135815260200160008152509080600181540180825580915050906001820390600052602060002090600202016000909192909190915060008201518160000155602082015181600101555050506001600360006101000a81548160ff021916908315150217905550610b90565b60026040518060400160405280878785818110610b1f57fe5b905060200201358152602001858585818110610b3757fe5b905060200201358152509080600181540180825580915050906001820390600052602060002090600202016000909192909190915060008201518160000155602082015181600101555050508080600101915050610a55565b5050505050565b600160009054906101000a900473ffffffffffffffffffffffffffffffffffffffff1681565b6000809054906101000a900473ffffffffffffffffffffffffffffffffffffffff1673ffffffffffffffffffffffffffffffffffffffff163373ffffffffffffffffffffffffffffffffffffffff1614610c1357fe5b600073ffffffffffffffffffffffffffffffffffffffff168173ffffffffffffffffffffffffffffffffffffffff1614610c8857806000806101000a81548173ffffffffffffffffffffffffffffffffffffffff021916908373ffffffffffffffffffffffffffffffffffffffff1602179055505b50565b6000600160009054906101000a900473ffffffffffffffffffffffffffffffffffffffff1673ffffffffffffffffffffffffffffffffffffffff1663358177736040518060400160405280600681526020017f526f6c65444200000000000000000000000000000000000000000000000000008152506040518263ffffffff1660e01b81526004018080602001828103825283818151815260200191508051906020019080838360005b83811015610d50578082015181840152602081019050610d35565b50505050905090810190601f168015610d7d5780820380516001836020036101000a031916815260200191505b509250505060206040518083038186803b158015610d9a57600080fd5b505afa158015610dae573d6000803e3d6000fd5b505050506040513d6020811015610dc457600080fd5b810190808051906020019092919050505073ffffffffffffffffffffffffffffffffffffffff16636c9cd09783610df9610f07565b6040518363ffffffff1660e01b815260040180806020018373ffffffffffffffffffffffffffffffffffffffff1673ffffffffffffffffffffffffffffffffffffffff168152602001828103825284818151815260200191508051906020019080838360005b83811015610e7a578082015181840152602081019050610e5f565b50505050905090810190601f168015610ea75780820380516001836020036101000a031916815260200191505b50935050505060206040518083038186803b158015610ec557600080fd5b505afa158015610ed9573d6000803e3d6000fd5b505050506040513d6020811015610eef57600080fd5b81019080805190602001909291905050509050919050565b6000600160009054906101000a900473ffffffffffffffffffffffffffffffffffffffff1673ffffffffffffffffffffffffffffffffffffffff163373ffffffffffffffffffffffffffffffffffffffff1614610f6657339050610fb9565b6000601436036000602052601481602c37602051915050600073ffffffffffffffffffffffffffffffffffffffff168173ffffffffffffffffffffffffffffffffffffffff161415610fb457fe5b809150505b9056fe456163682073746172742073686f756c642068617665206d61746368696e6720656e64a265627a7a7231582060dcb521e73b825c3470a2c5adaec3f5c8a1bf394a17963c31ef9bf23a91dd6564736f6c634300050b0032",
  "source": "/**\r\n * @title CronJob\r\n *\r\n * @author @kittieFIGHT @ola @pash7ka\r\n *\r\n */\r\n\r\n// This program is free software: you can redistribute it and/or modify\r\n// it under the terms of the GNU General Public License as published by\r\n// the Free Software Foundation, either version 3 of the License, or\r\n// (at your option) any later version.\r\n\r\n// This program is distributed in the hope that it will be useful,\r\n// but WITHOUT ANY WARRANTY; without even the implied warranty of\r\n// MERCHANTABILITY or FITNESS FOR A PARTICULAR PURPOSE.  See the\r\n// GNU General Public License for more details.\r\n\r\n// You should have received a copy of the GNU General Public License\r\n// along with this program.  If not, see <http://www.gnu.org/licenses/>.\r\npragma solidity ^0.5.5;\r\n\r\nimport \"../../authority/Guard.sol\";\r\nimport \"./Proxied.sol\";\r\n\r\ncontract FreezeInfo is Proxied, Guard {\r\n    event SystemFrozen();\r\n    event SystemUnfrozen();\r\n\r\n    struct Freeze {\r\n        uint256 start;\r\n        uint256 end;\r\n    }\r\n\r\n    Freeze[] public freezes;\r\n    bool public frozen;\r\n    uint256 public lastFreezeEnd = 0;   //Used to optimize getFrozenTime() for most common scenario: no freezes during interesting period\r\n\r\n    /**\r\n     * @notice Used to prevent KFProxy to handle new user requests in case of emergency\r\n     * @param _frozen set new state: true -frozen (KFProxy will revert new requests), false - unfrozen\r\n     */\r\n    function setFrozen(bool _frozen) external onlySuperAdmin {\r\n        require(frozen != _frozen);\r\n        frozen = _frozen;\r\n        if(frozen){\r\n            freezes.push(Freeze({\r\n                start: now,\r\n                end: 0\r\n            }));\r\n            emit SystemFrozen();\r\n        }else{\r\n            lastFreezeEnd = now;\r\n            freezes[freezes.length-1].end = now;\r\n            emit SystemUnfrozen();\r\n        }\r\n    }\r\n    /**\r\n     * @notice May be used to import freezes from previous version of the contract\r\n     * @param starts Array of Freezes starts\r\n     * @param ends Array of Freezes ends\r\n     * @dev end time may be > now, in this case Freeze is considered as not finished\r\n     */\r\n    function importFreezes(uint256[] calldata starts, uint256[] calldata ends) external onlySuperAdmin {\r\n        require(freezes.length == 0, 'Only allow import to empty list');\r\n        require(starts.length == ends.length, 'Each start should have matching end');\r\n        frozen = false;\r\n        for(uint256 i=0; i < starts.length; i++){\r\n            if(ends[i] > now){\r\n                freezes.push(Freeze({\r\n                    start: starts[i],\r\n                    end: 0\r\n                }));\r\n                frozen = true;\r\n                break;\r\n            }else{\r\n                freezes.push(Freeze({\r\n                    start: starts[i],\r\n                    end: ends[i]\r\n                }));\r\n            }\r\n        }\r\n    }\r\n    /**\r\n     * @notice Calculates how much time system was frozen since requested time\r\n     * @param since timestmap which limits search of frozen periods\r\n     */\r\n    function getFrozenTime(uint256 since) view public returns(uint256){\r\n        if(since >= lastFreezeEnd) return 0;\r\n        uint256 frozenTime = 0;\r\n        //Special handling for last freeze\r\n        if(frozen) {\r\n            frozenTime += now - freezes[freezes.length-1].start;\r\n        }else if(freezes.length > 0){\r\n            uint256 lastFreeze = freezes.length - 1;\r\n            frozenTime += freezes[lastFreeze].end - freezes[lastFreeze].start;\r\n        }\r\n        //If there is more than 1 freeze, cycle through them\r\n        if(freezes.length > 1) for(uint256 i = freezes.length-2; i >=0; i--){\r\n            if(freezes[i].end <= since) break;\r\n            if(freezes[i].start > since) {\r\n                frozenTime += freezes[i].end - freezes[i].start;\r\n            }else{\r\n                frozenTime += freezes[i].end - since;\r\n                break;\r\n            }\r\n        }\r\n        return frozenTime;\r\n    }\r\n\r\n}\r\n",
  "sourcePath": "C:\\Users\\Alex\\Desktop\\Upwork\\alpha\\contracts\\modules\\proxy\\FreezeInfo.sol",
  "compiler": {
    "name": "solc",
    "version": "0.5.11+commit.c082d0b4.Emscripten.clang"
  },
  "schemaVersion": "3.0.11",
  "updatedAt": "2019-09-15T17:40:41.754Z",
  "devdoc": {
    "methods": {
      "getFrozenTime(uint256)": {
        "params": {
          "since": "timestmap which limits search of frozen periods\r"
        }
      },
      "importFreezes(uint256[],uint256[])": {
        "details": "end time may be > now, in this case Freeze is considered as not finished\r",
        "params": {
          "ends": "Array of Freezes ends\r",
          "starts": "Array of Freezes starts\r"
        }
      },
      "setFrozen(bool)": {
        "params": {
          "_frozen": "set new state: true -frozen (KFProxy will revert new requests), false - unfrozen\r"
        }
      }
    }
  },
  "userdoc": {
    "methods": {
      "getFrozenTime(uint256)": {
        "notice": "Calculates how much time system was frozen since requested time\r"
      },
      "importFreezes(uint256[],uint256[])": {
        "notice": "May be used to import freezes from previous version of the contract\r"
      },
      "setFrozen(bool)": {
        "notice": "Used to prevent KFProxy to handle new user requests in case of emergency\r"
      },
      "setProxy(address)": {
        "notice": "Set/update address of Proxy contract\r"
      }
    }
  }
}