{
  "contractName": "GameManager",
  "abi": [
    {
      "constant": true,
      "inputs": [],
      "name": "gmGetterDB",
      "outputs": [
        {
          "name": "",
          "type": "address"
        }
      ],
      "payable": false,
      "stateMutability": "view",
      "type": "function"
    },
    {
      "constant": true,
      "inputs": [],
      "name": "betting",
      "outputs": [
        {
          "name": "",
          "type": "address"
        }
      ],
      "payable": false,
      "stateMutability": "view",
      "type": "function"
    },
    {
      "constant": true,
      "inputs": [],
      "name": "endowmentDB",
      "outputs": [
        {
          "name": "",
          "type": "address"
        }
      ],
      "payable": false,
      "stateMutability": "view",
      "type": "function"
    },
    {
      "constant": true,
      "inputs": [],
      "name": "endowmentFund",
      "outputs": [
        {
          "name": "",
          "type": "address"
        }
      ],
      "payable": false,
      "stateMutability": "view",
      "type": "function"
    },
    {
      "constant": true,
      "inputs": [],
      "name": "hitsResolve",
      "outputs": [
        {
          "name": "",
          "type": "address"
        }
      ],
      "payable": false,
      "stateMutability": "view",
      "type": "function"
    },
    {
      "constant": true,
      "inputs": [],
      "name": "owner",
      "outputs": [
        {
          "name": "",
          "type": "address"
        }
      ],
      "payable": false,
      "stateMutability": "view",
      "type": "function"
    },
    {
      "constant": false,
      "inputs": [
        {
          "name": "_proxy",
          "type": "address"
        }
      ],
      "name": "setProxy",
      "outputs": [],
      "payable": false,
      "stateMutability": "nonpayable",
      "type": "function"
    },
    {
      "constant": true,
      "inputs": [],
      "name": "forfeiter",
      "outputs": [
        {
          "name": "",
          "type": "address"
        }
      ],
      "payable": false,
      "stateMutability": "view",
      "type": "function"
    },
    {
      "constant": true,
      "inputs": [],
      "name": "gameStore",
      "outputs": [
        {
          "name": "",
          "type": "address"
        }
      ],
      "payable": false,
      "stateMutability": "view",
      "type": "function"
    },
    {
      "constant": true,
      "inputs": [],
      "name": "kittieHELL",
      "outputs": [
        {
          "name": "",
          "type": "address"
        }
      ],
      "payable": false,
      "stateMutability": "view",
      "type": "function"
    },
    {
      "constant": true,
      "inputs": [],
      "name": "proxy",
      "outputs": [
        {
          "name": "",
          "type": "address"
        }
      ],
      "payable": false,
      "stateMutability": "view",
      "type": "function"
    },
    {
      "constant": true,
      "inputs": [],
      "name": "gmSetterDB",
      "outputs": [
        {
          "name": "",
          "type": "address"
        }
      ],
      "payable": false,
      "stateMutability": "view",
      "type": "function"
    },
    {
      "constant": false,
      "inputs": [
        {
          "name": "newOwner",
          "type": "address"
        }
      ],
      "name": "transferOwnership",
      "outputs": [],
      "payable": false,
      "stateMutability": "nonpayable",
      "type": "function"
    },
    {
      "anonymous": false,
      "inputs": [
        {
          "indexed": true,
          "name": "gameId",
          "type": "uint256"
        },
        {
          "indexed": false,
          "name": "supporter",
          "type": "address"
        },
        {
          "indexed": true,
          "name": "playerSupported",
          "type": "address"
        }
      ],
      "name": "NewSupporter",
      "type": "event"
    },
    {
      "anonymous": false,
      "inputs": [
        {
          "indexed": true,
          "name": "gameId",
          "type": "uint256"
        },
        {
          "indexed": false,
          "name": "player",
          "type": "address"
        }
      ],
      "name": "PressStart",
      "type": "event"
    },
    {
      "anonymous": false,
      "inputs": [
        {
          "indexed": true,
          "name": "gameId",
          "type": "uint256"
        },
        {
          "indexed": false,
          "name": "old_state",
          "type": "uint8"
        },
        {
          "indexed": false,
          "name": "new_state",
          "type": "uint8"
        }
      ],
      "name": "GameStateChanged",
      "type": "event"
    },
    {
      "anonymous": false,
      "inputs": [
        {
          "indexed": true,
          "name": "gameId",
          "type": "uint256"
        },
        {
          "indexed": true,
          "name": "winner",
          "type": "address"
        },
        {
          "indexed": true,
          "name": "loser",
          "type": "address"
        },
        {
          "indexed": false,
          "name": "pointsBlack",
          "type": "uint256"
        },
        {
          "indexed": false,
          "name": "pointsRed",
          "type": "uint256"
        }
      ],
      "name": "GameEnded",
      "type": "event"
    },
    {
      "constant": false,
      "inputs": [],
      "name": "initialize",
      "outputs": [],
      "payable": false,
      "stateMutability": "nonpayable",
      "type": "function"
    },
    {
      "constant": false,
      "inputs": [
        {
          "name": "gameId",
          "type": "uint256"
        },
        {
          "name": "playerToSupport",
          "type": "address"
        }
      ],
      "name": "participate",
      "outputs": [
        {
          "name": "",
          "type": "bool"
        }
      ],
      "payable": false,
      "stateMutability": "nonpayable",
      "type": "function"
    },
    {
      "constant": false,
      "inputs": [
        {
          "name": "gameId",
          "type": "uint256"
        },
        {
          "name": "randomNum",
          "type": "uint256"
        }
      ],
      "name": "startGame",
      "outputs": [
        {
          "name": "",
          "type": "bool"
        }
      ],
      "payable": false,
      "stateMutability": "nonpayable",
      "type": "function"
    },
    {
      "constant": false,
      "inputs": [
        {
          "name": "gameId",
          "type": "uint256"
        },
        {
          "name": "randomNum",
          "type": "uint256"
        }
      ],
      "name": "bet",
      "outputs": [],
      "payable": true,
      "stateMutability": "payable",
      "type": "function"
    },
    {
      "constant": false,
      "inputs": [
        {
          "name": "gameId",
          "type": "uint256"
        },
        {
          "name": "randomNum",
          "type": "uint256"
        }
      ],
      "name": "finalize",
      "outputs": [],
      "payable": false,
      "stateMutability": "nonpayable",
      "type": "function"
    },
    {
      "constant": false,
      "inputs": [
        {
          "name": "gameId",
          "type": "uint256"
        }
      ],
      "name": "cancelGame",
      "outputs": [],
      "payable": false,
      "stateMutability": "nonpayable",
      "type": "function"
    }
  ],
  "bytecode": "0x6080604052336000806101000a81548173ffffffffffffffffffffffffffffffffffffffff021916908373ffffffffffffffffffffffffffffffffffffffff160217905550615d78806100536000396000f3fe6080604052600436106101145760003560e01c80638ad7877a116100a0578063b6013cef11610064578063b6013cef1461057c578063cfafbde7146105c1578063ec55688914610618578063f26dee8e1461066f578063f2fde38b146106c657610114565b80638ad7877a146103cf5780638da5cb5b1461042657806397107d6d1461047d578063a0b06a69146104ce578063b1be64691461052557610114565b806369958ab9116100e757806369958ab91461029157806369af70b3146102cc5780636ffcc71914610323578063730b83811461035b5780638129fc1c146103b857610114565b806313b18640146101195780631fc751801461018c57806339b4b0d6146101e35780635d06fc011461023a575b600080fd5b34801561012557600080fd5b506101726004803603604081101561013c57600080fd5b8101908080359060200190929190803573ffffffffffffffffffffffffffffffffffffffff169060200190929190505050610717565b604051808215151515815260200191505060405180910390f35b34801561019857600080fd5b506101a1611198565b604051808273ffffffffffffffffffffffffffffffffffffffff1673ffffffffffffffffffffffffffffffffffffffff16815260200191505060405180910390f35b3480156101ef57600080fd5b506101f86111be565b604051808273ffffffffffffffffffffffffffffffffffffffff1673ffffffffffffffffffffffffffffffffffffffff16815260200191505060405180910390f35b34801561024657600080fd5b5061024f6111e4565b604051808273ffffffffffffffffffffffffffffffffffffffff1673ffffffffffffffffffffffffffffffffffffffff16815260200191505060405180910390f35b34801561029d57600080fd5b506102ca600480360360208110156102b457600080fd5b810190808035906020019092919050505061120a565b005b3480156102d857600080fd5b506102e16114f1565b604051808273ffffffffffffffffffffffffffffffffffffffff1673ffffffffffffffffffffffffffffffffffffffff16815260200191505060405180910390f35b6103596004803603604081101561033957600080fd5b810190808035906020019092919080359060200190929190505050611517565b005b34801561036757600080fd5b5061039e6004803603604081101561037e57600080fd5b810190808035906020019092919080359060200190929190505050611fd3565b604051808215151515815260200191505060405180910390f35b3480156103c457600080fd5b506103cd6131aa565b005b3480156103db57600080fd5b506103e4613fca565b604051808273ffffffffffffffffffffffffffffffffffffffff1673ffffffffffffffffffffffffffffffffffffffff16815260200191505060405180910390f35b34801561043257600080fd5b5061043b613ff0565b604051808273ffffffffffffffffffffffffffffffffffffffff1673ffffffffffffffffffffffffffffffffffffffff16815260200191505060405180910390f35b34801561048957600080fd5b506104cc600480360360208110156104a057600080fd5b81019080803573ffffffffffffffffffffffffffffffffffffffff169060200190929190505050614015565b005b3480156104da57600080fd5b506104e36140af565b604051808273ffffffffffffffffffffffffffffffffffffffff1673ffffffffffffffffffffffffffffffffffffffff16815260200191505060405180910390f35b34801561053157600080fd5b5061053a6140d5565b604051808273ffffffffffffffffffffffffffffffffffffffff1673ffffffffffffffffffffffffffffffffffffffff16815260200191505060405180910390f35b34801561058857600080fd5b506105bf6004803603604081101561059f57600080fd5b8101908080359060200190929190803590602001909291905050506140fb565b005b3480156105cd57600080fd5b506105d6614dfc565b604051808273ffffffffffffffffffffffffffffffffffffffff1673ffffffffffffffffffffffffffffffffffffffff16815260200191505060405180910390f35b34801561062457600080fd5b5061062d614e22565b604051808273ffffffffffffffffffffffffffffffffffffffff1673ffffffffffffffffffffffffffffffffffffffff16815260200191505060405180910390f35b34801561067b57600080fd5b50610684614e48565b604051808273ffffffffffffffffffffffffffffffffffffffff1673ffffffffffffffffffffffffffffffffffffffff16815260200191505060405180910390f35b3480156106d257600080fd5b50610715600480360360208110156106e957600080fd5b81019080803573ffffffffffffffffffffffffffffffffffffffff169060200190929190505050614e6e565b005b6000610721614f3c565b600073ffffffffffffffffffffffffffffffffffffffff163373ffffffffffffffffffffffffffffffffffffffff16141561075857fe5b6107966040518060400160405280600681526020017f626574746f7200000000000000000000000000000000000000000000000000008152506150c6565b610808576040517f08c379a000000000000000000000000000000000000000000000000000000000815260040180806020018281038252600b8152602001807f4f6e6c7920626574746f7200000000000000000000000000000000000000000081525060200191505060405180910390fd5b82826000600160009054906101000a900473ffffffffffffffffffffffffffffffffffffffff1673ffffffffffffffffffffffffffffffffffffffff1663358177736040518060400160405280600981526020017f50726f66696c65444200000000000000000000000000000000000000000000008152506040518263ffffffff1660e01b81526004018080602001828103825283818151815260200191508051906020019080838360005b838110156108cf5780820151818401526020810190506108b4565b50505050905090810190601f1680156108fc5780820380516001836020036101000a031916815260200191505b509250505060206040518083038186803b15801561091957600080fd5b505afa15801561092d573d6000803e3d6000fd5b505050506040513d602081101561094357600080fd5b810190808051906020019092919050505073ffffffffffffffffffffffffffffffffffffffff1663a984d640836040518263ffffffff1660e01b8152600401808273ffffffffffffffffffffffffffffffffffffffff1673ffffffffffffffffffffffffffffffffffffffff16815260200191505060206040518083038186803b1580156109d057600080fd5b505afa1580156109e4573d6000803e3d6000fd5b505050506040513d60208110156109fa57600080fd5b810190808051906020019092919050505011610a1557600080fd5b600360009054906101000a900473ffffffffffffffffffffffffffffffffffffffff1673ffffffffffffffffffffffffffffffffffffffff1663e6d3538d83836040518363ffffffff1660e01b8152600401808381526020018273ffffffffffffffffffffffffffffffffffffffff1673ffffffffffffffffffffffffffffffffffffffff1681526020019250505060206040518083038186803b158015610abc57600080fd5b505afa158015610ad0573d6000803e3d6000fd5b505050506040513d6020811015610ae657600080fd5b8101908080519060200190929190505050610b0057600080fd5b6000600360009054906101000a900473ffffffffffffffffffffffffffffffffffffffff1673ffffffffffffffffffffffffffffffffffffffff1663ffde0c74876040518263ffffffff1660e01b81526004018082815260200191505060206040518083038186803b158015610b7557600080fd5b505afa158015610b89573d6000803e3d6000fd5b505050506040513d6020811015610b9f57600080fd5b810190808051906020019092919050505090506000610bbc615342565b90506002821115610bcc57600080fd5b600460009054906101000a900473ffffffffffffffffffffffffffffffffffffffff1673ffffffffffffffffffffffffffffffffffffffff166342db158982600a60009054906101000a900473ffffffffffffffffffffffffffffffffffffffff1673ffffffffffffffffffffffffffffffffffffffff1663aa84869f8b6040518263ffffffff1660e01b81526004018082815260200191505060206040518083038186803b158015610c7e57600080fd5b505afa158015610c92573d6000803e3d6000fd5b505050506040513d6020811015610ca857600080fd5b81019080805190602001909291905050506040518363ffffffff1660e01b8152600401808373ffffffffffffffffffffffffffffffffffffffff1673ffffffffffffffffffffffffffffffffffffffff16815260200182815260200192505050602060405180830381600087803b158015610d2257600080fd5b505af1158015610d36573d6000803e3d6000fd5b505050506040513d6020811015610d4c57600080fd5b8101908080519060200190929190505050610d6657600080fd5b600260009054906101000a900473ffffffffffffffffffffffffffffffffffffffff1673ffffffffffffffffffffffffffffffffffffffff1663409299808883896040518463ffffffff1660e01b8152600401808481526020018373ffffffffffffffffffffffffffffffffffffffff1673ffffffffffffffffffffffffffffffffffffffff1681526020018273ffffffffffffffffffffffffffffffffffffffff1673ffffffffffffffffffffffffffffffffffffffff1681526020019350505050602060405180830381600087803b158015610e4357600080fd5b505af1158015610e57573d6000803e3d6000fd5b505050506040513d6020811015610e6d57600080fd5b8101908080519060200190929190505050610e8757600080fd5b6001821415610f2657600660009054906101000a900473ffffffffffffffffffffffffffffffffffffffff1673ffffffffffffffffffffffffffffffffffffffff16635aaccebf88846040518363ffffffff1660e01b81526004018083815260200182815260200192505050600060405180830381600087803b158015610f0d57600080fd5b505af1158015610f21573d6000803e3d6000fd5b505050505b6000600360009054906101000a900473ffffffffffffffffffffffffffffffffffffffff1673ffffffffffffffffffffffffffffffffffffffff16638851470d896040518263ffffffff1660e01b81526004018082815260200191505060606040518083038186803b158015610f9b57600080fd5b505afa158015610faf573d6000803e3d6000fd5b505050506040513d6060811015610fc557600080fd5b810190808051906020019092919080519060200190929190805190602001909291905050505091505060006005811115610ffb57fe5b831480156110095750428111155b1561110e57600260009054906101000a900473ffffffffffffffffffffffffffffffffffffffff1673ffffffffffffffffffffffffffffffffffffffff1663f5de8397896001600581111561105a57fe5b6040518363ffffffff1660e01b81526004018083815260200182815260200192505050600060405180830381600087803b15801561109757600080fd5b505af11580156110ab573d6000803e3d6000fd5b50505050877f44eba4bcf780a2012259962cf19bf1777051e027304e22dd8e324b0cefb4be2660006001604051808360058111156110e557fe5b60ff1681526020018260058111156110f957fe5b60ff1681526020019250505060405180910390a25b8673ffffffffffffffffffffffffffffffffffffffff16887f10be9d2d97e8101e37a757b0203bef24d9237498343bfeeba88885b950ef756384604051808273ffffffffffffffffffffffffffffffffffffffff1673ffffffffffffffffffffffffffffffffffffffff16815260200191505060405180910390a360019550505050505092915050565b600360009054906101000a900473ffffffffffffffffffffffffffffffffffffffff1681565b600760009054906101000a900473ffffffffffffffffffffffffffffffffffffffff1681565b600560009054906101000a900473ffffffffffffffffffffffffffffffffffffffff1681565b6040518060400160405280600981526020017f466f726665697465720000000000000000000000000000000000000000000000815250611249816153f7565b6000600360009054906101000a900473ffffffffffffffffffffffffffffffffffffffff1673ffffffffffffffffffffffffffffffffffffffff1663ffde0c74846040518263ffffffff1660e01b81526004018082815260200191505060206040518083038186803b1580156112be57600080fd5b505afa1580156112d2573d6000803e3d6000fd5b505050506040513d60208110156112e857600080fd5b810190808051906020019092919050505090506000600581111561130857fe5b81148061132057506001600581111561131d57fe5b81145b61132957600080fd5b600260009054906101000a900473ffffffffffffffffffffffffffffffffffffffff1673ffffffffffffffffffffffffffffffffffffffff1663f5de83978460058081111561137457fe5b6040518363ffffffff1660e01b81526004018083815260200182815260200192505050600060405180830381600087803b1580156113b157600080fd5b505af11580156113c5573d6000803e3d6000fd5b50505050600460009054906101000a900473ffffffffffffffffffffffffffffffffffffffff1673ffffffffffffffffffffffffffffffffffffffff1663d665a7178460046040518363ffffffff1660e01b81526004018083815260200182815260200192505050600060405180830381600087803b15801561144757600080fd5b505af115801561145b573d6000803e3d6000fd5b50505050600260009054906101000a900473ffffffffffffffffffffffffffffffffffffffff1673ffffffffffffffffffffffffffffffffffffffff16638d5a7fe4846040518263ffffffff1660e01b815260040180828152602001915050600060405180830381600087803b1580156114d457600080fd5b505af11580156114e8573d6000803e3d6000fd5b50505050505050565b600460009054906101000a900473ffffffffffffffffffffffffffffffffffffffff1681565b61151f614f3c565b600073ffffffffffffffffffffffffffffffffffffffff163373ffffffffffffffffffffffffffffffffffffffff16141561155657fe5b6115946040518060400160405280600681526020017f626574746f7200000000000000000000000000000000000000000000000000008152506150c6565b611606576040517f08c379a000000000000000000000000000000000000000000000000000000000815260040180806020018281038252600b8152602001807f4f6e6c7920626574746f7200000000000000000000000000000000000000000081525060200191505060405180910390fd5b6000341161161357600080fd5b6000600360009054906101000a900473ffffffffffffffffffffffffffffffffffffffff1673ffffffffffffffffffffffffffffffffffffffff1663ffde0c74846040518263ffffffff1660e01b81526004018082815260200191505060206040518083038186803b15801561168857600080fd5b505afa15801561169c573d6000803e3d6000fd5b505050506040513d60208110156116b257600080fd5b81019080805190602001909291905050509050600260058111156116d257fe5b81146116dd57600080fd5b60006116e7615342565b9050600080600360009054906101000a900473ffffffffffffffffffffffffffffffffffffffff1673ffffffffffffffffffffffffffffffffffffffff16630b154c9687856040518363ffffffff1660e01b8152600401808381526020018273ffffffffffffffffffffffffffffffffffffffff1673ffffffffffffffffffffffffffffffffffffffff1681526020019250505060806040518083038186803b15801561179357600080fd5b505afa1580156117a7573d6000803e3d6000fd5b505050506040513d60808110156117bd57600080fd5b8101908080519060200190929190805190602001909291908051906020019092919080519060200190929190505050509250925050806117fc57600080fd5b600460009054906101000a900473ffffffffffffffffffffffffffffffffffffffff1673ffffffffffffffffffffffffffffffffffffffff1663b3962bdc34886040518363ffffffff1660e01b8152600401808281526020019150506020604051808303818588803b15801561187157600080fd5b505af1158015611885573d6000803e3d6000fd5b50505050506040513d602081101561189c57600080fd5b81019080805190602001909291905050506118b657600080fd5b600460009054906101000a900473ffffffffffffffffffffffffffffffffffffffff1673ffffffffffffffffffffffffffffffffffffffff166342db158984600a60009054906101000a900473ffffffffffffffffffffffffffffffffffffffff1673ffffffffffffffffffffffffffffffffffffffff1663f58f32cf8a6040518263ffffffff1660e01b81526004018082815260200191505060206040518083038186803b15801561196857600080fd5b505afa15801561197c573d6000803e3d6000fd5b505050506040513d602081101561199257600080fd5b81019080805190602001909291905050506040518363ffffffff1660e01b8152600401808373ffffffffffffffffffffffffffffffffffffffff1673ffffffffffffffffffffffffffffffffffffffff16815260200182815260200192505050602060405180830381600087803b158015611a0c57600080fd5b505af1158015611a20573d6000803e3d6000fd5b505050506040513d6020811015611a3657600080fd5b8101908080519060200190929190505050611a5057600080fd5b8173ffffffffffffffffffffffffffffffffffffffff168373ffffffffffffffffffffffffffffffffffffffff1614611b8157600260009054906101000a900473ffffffffffffffffffffffffffffffffffffffff1673ffffffffffffffffffffffffffffffffffffffff1663026ab2c5878534866040518563ffffffff1660e01b8152600401808581526020018473ffffffffffffffffffffffffffffffffffffffff1673ffffffffffffffffffffffffffffffffffffffff1681526020018381526020018273ffffffffffffffffffffffffffffffffffffffff1673ffffffffffffffffffffffffffffffffffffffff168152602001945050505050600060405180830381600087803b158015611b6857600080fd5b505af1158015611b7c573d6000803e3d6000fd5b505050505b600860009054906101000a900473ffffffffffffffffffffffffffffffffffffffff1673ffffffffffffffffffffffffffffffffffffffff166381d96a1f87876040518363ffffffff1660e01b81526004018083815260200182815260200192505050602060405180830381600087803b158015611bfe57600080fd5b505af1158015611c12573d6000803e3d6000fd5b505050506040513d6020811015611c2857600080fd5b8101908080519060200190929190505050506000600360009054906101000a900473ffffffffffffffffffffffffffffffffffffffff1673ffffffffffffffffffffffffffffffffffffffff166331fa706788856040518363ffffffff1660e01b8152600401808381526020018273ffffffffffffffffffffffffffffffffffffffff1673ffffffffffffffffffffffffffffffffffffffff1681526020019250505060206040518083038186803b158015611ce357600080fd5b505afa158015611cf7573d6000803e3d6000fd5b505050506040513d6020811015611d0d57600080fd5b81019080805190602001909291905050509050600760009054906101000a900473ffffffffffffffffffffffffffffffffffffffff1673ffffffffffffffffffffffffffffffffffffffff1663fec3ac4a883486858b6040518663ffffffff1660e01b8152600401808681526020018581526020018473ffffffffffffffffffffffffffffffffffffffff1673ffffffffffffffffffffffffffffffffffffffff1681526020018373ffffffffffffffffffffffffffffffffffffffff1673ffffffffffffffffffffffffffffffffffffffff16815260200182815260200195505050505050600060405180830381600087803b158015611e0d57600080fd5b505af1158015611e21573d6000803e3d6000fd5b505050506040513d6000823e3d601f19601f820116820180604052506080811015611e4b57600080fd5b810190808051640100000000811115611e6357600080fd5b82810190506020810184811115611e7957600080fd5b8151856001820283011164010000000082111715611e9657600080fd5b505092919060200180519060200190929190805190602001909291908051906020019092919050505050505050600260009054906101000a900473ffffffffffffffffffffffffffffffffffffffff1673ffffffffffffffffffffffffffffffffffffffff16630bc644f58886866040518463ffffffff1660e01b8152600401808481526020018373ffffffffffffffffffffffffffffffffffffffff1673ffffffffffffffffffffffffffffffffffffffff1681526020018273ffffffffffffffffffffffffffffffffffffffff1673ffffffffffffffffffffffffffffffffffffffff1681526020019350505050600060405180830381600087803b158015611fa057600080fd5b505af1158015611fb4573d6000803e3d6000fd5b50505050611fc187615692565b611fca876159f2565b50505050505050565b6000611fdd614f3c565b600073ffffffffffffffffffffffffffffffffffffffff163373ffffffffffffffffffffffffffffffffffffffff16141561201457fe5b6120526040518060400160405280600681526020017f706c6179657200000000000000000000000000000000000000000000000000008152506150c6565b6120c4576040517f08c379a000000000000000000000000000000000000000000000000000000000815260040180806020018281038252600b8152602001807f4f6e6c7920706c6179657200000000000000000000000000000000000000000081525060200191505060405180910390fd5b826120cd615342565b6000600160009054906101000a900473ffffffffffffffffffffffffffffffffffffffff1673ffffffffffffffffffffffffffffffffffffffff1663358177736040518060400160405280600981526020017f50726f66696c65444200000000000000000000000000000000000000000000008152506040518263ffffffff1660e01b81526004018080602001828103825283818151815260200191508051906020019080838360005b83811015612192578082015181840152602081019050612177565b50505050905090810190601f1680156121bf5780820380516001836020036101000a031916815260200191505b509250505060206040518083038186803b1580156121dc57600080fd5b505afa1580156121f0573d6000803e3d6000fd5b505050506040513d602081101561220657600080fd5b810190808051906020019092919050505073ffffffffffffffffffffffffffffffffffffffff1663a984d640836040518263ffffffff1660e01b8152600401808273ffffffffffffffffffffffffffffffffffffffff1673ffffffffffffffffffffffffffffffffffffffff16815260200191505060206040518083038186803b15801561229357600080fd5b505afa1580156122a7573d6000803e3d6000fd5b505050506040513d60208110156122bd57600080fd5b8101908080519060200190929190505050116122d857600080fd5b600360009054906101000a900473ffffffffffffffffffffffffffffffffffffffff1673ffffffffffffffffffffffffffffffffffffffff1663e6d3538d83836040518363ffffffff1660e01b8152600401808381526020018273ffffffffffffffffffffffffffffffffffffffff1673ffffffffffffffffffffffffffffffffffffffff1681526020019250505060206040518083038186803b15801561237f57600080fd5b505afa158015612393573d6000803e3d6000fd5b505050506040513d60208110156123a957600080fd5b81019080805190602001909291905050506123c357600080fd5b6000600360009054906101000a900473ffffffffffffffffffffffffffffffffffffffff1673ffffffffffffffffffffffffffffffffffffffff1663ffde0c74876040518263ffffffff1660e01b81526004018082815260200191505060206040518083038186803b15801561243857600080fd5b505afa15801561244c573d6000803e3d6000fd5b505050506040513d602081101561246257600080fd5b81019080805190602001909291905050509050600660009054906101000a900473ffffffffffffffffffffffffffffffffffffffff1673ffffffffffffffffffffffffffffffffffffffff16635aaccebf87836040518363ffffffff1660e01b81526004018083815260200182815260200192505050600060405180830381600087803b1580156124f257600080fd5b505af1158015612506573d6000803e3d6000fd5b505050506001600581111561251757fe5b811461252257600080fd5b600061252c615342565b90506000600360009054906101000a900473ffffffffffffffffffffffffffffffffffffffff1673ffffffffffffffffffffffffffffffffffffffff1663e441dcbf89846040518363ffffffff1660e01b8152600401808381526020018273ffffffffffffffffffffffffffffffffffffffff1673ffffffffffffffffffffffffffffffffffffffff1681526020019250505060206040518083038186803b1580156125d757600080fd5b505afa1580156125eb573d6000803e3d6000fd5b505050506040513d602081101561260157600080fd5b81019080805190602001909291905050509050600a60009054906101000a900473ffffffffffffffffffffffffffffffffffffffff1673ffffffffffffffffffffffffffffffffffffffff1663158d39cb89848a6040518463ffffffff1660e01b8152600401808481526020018373ffffffffffffffffffffffffffffffffffffffff1673ffffffffffffffffffffffffffffffffffffffff1681526020018281526020019350505050600060405180830381600087803b1580156126c557600080fd5b505af11580156126d9573d6000803e3d6000fd5b505050506000600160009054906101000a900473ffffffffffffffffffffffffffffffffffffffff1673ffffffffffffffffffffffffffffffffffffffff1663358177736040518060400160405280600d81526020017f43727970746f4b697474696573000000000000000000000000000000000000008152506040518263ffffffff1660e01b81526004018080602001828103825283818151815260200191508051906020019080838360005b838110156127a2578082015181840152602081019050612787565b50505050905090810190601f1680156127cf5780820380516001836020036101000a031916815260200191505b509250505060206040518083038186803b1580156127ec57600080fd5b505afa158015612800573d6000803e3d6000fd5b505050506040513d602081101561281657600080fd5b810190808051906020019092919050505073ffffffffffffffffffffffffffffffffffffffff1663e98b7f4d836040518263ffffffff1660e01b81526004018082815260200191505060206040518083038186803b15801561287757600080fd5b505afa15801561288b573d6000803e3d6000fd5b505050506040513d60208110156128a157600080fd5b81019080805190602001909291905050509050600760009054906101000a900473ffffffffffffffffffffffffffffffffffffffff1673ffffffffffffffffffffffffffffffffffffffff1663dea0642a8a85600160009054906101000a900473ffffffffffffffffffffffffffffffffffffffff1673ffffffffffffffffffffffffffffffffffffffff1663358177736040518060400160405280601081526020017f52617269747943616c63756c61746f72000000000000000000000000000000008152506040518263ffffffff1660e01b81526004018080602001828103825283818151815260200191508051906020019080838360005b838110156129b757808201518184015260208101905061299c565b50505050905090810190601f1680156129e45780820380516001836020036101000a031916815260200191505b509250505060206040518083038186803b158015612a0157600080fd5b505afa158015612a15573d6000803e3d6000fd5b505050506040513d6020811015612a2b57600080fd5b810190808051906020019092919050505073ffffffffffffffffffffffffffffffffffffffff16633af9bbac87876040518363ffffffff1660e01b81526004018083815260200182815260200192505050602060405180830381600087803b158015612a9657600080fd5b505af1158015612aaa573d6000803e3d6000fd5b505050506040513d6020811015612ac057600080fd5b81019080805190602001909291905050506040518463ffffffff1660e01b8152600401808481526020018373ffffffffffffffffffffffffffffffffffffffff1673ffffffffffffffffffffffffffffffffffffffff1681526020018281526020019350505050600060405180830381600087803b158015612b4157600080fd5b505af1158015612b55573d6000803e3d6000fd5b50505050600960009054906101000a900473ffffffffffffffffffffffffffffffffffffffff1673ffffffffffffffffffffffffffffffffffffffff16635fd8cc1083856040518363ffffffff1660e01b8152600401808381526020018273ffffffffffffffffffffffffffffffffffffffff1673ffffffffffffffffffffffffffffffffffffffff16815260200192505050602060405180830381600087803b158015612c0257600080fd5b505af1158015612c16573d6000803e3d6000fd5b505050506040513d6020811015612c2c57600080fd5b8101908080519060200190929190505050612c4657600080fd5b6000600360009054906101000a900473ffffffffffffffffffffffffffffffffffffffff1673ffffffffffffffffffffffffffffffffffffffff166331fa70678b866040518363ffffffff1660e01b8152600401808381526020018273ffffffffffffffffffffffffffffffffffffffff1673ffffffffffffffffffffffffffffffffffffffff1681526020019250505060206040518083038186803b158015612cef57600080fd5b505afa158015612d03573d6000803e3d6000fd5b505050506040513d6020811015612d1957600080fd5b81019080805190602001909291905050509050897f3777d3009964e625c7ec7b3b7a815deec68108671053ae856ae638556472a49a85604051808273ffffffffffffffffffffffffffffffffffffffff1673ffffffffffffffffffffffffffffffffffffffff16815260200191505060405180910390a2600a60009054906101000a900473ffffffffffffffffffffffffffffffffffffffff1673ffffffffffffffffffffffffffffffffffffffff1663ebff754a8b836040518363ffffffff1660e01b8152600401808381526020018273ffffffffffffffffffffffffffffffffffffffff1673ffffffffffffffffffffffffffffffffffffffff1681526020019250505060206040518083038186803b158015612e3757600080fd5b505afa158015612e4b573d6000803e3d6000fd5b505050506040513d6020811015612e6157600080fd5b81019080805190602001909291905050501561319857600760009054906101000a900473ffffffffffffffffffffffffffffffffffffffff1673ffffffffffffffffffffffffffffffffffffffff16632c31d0858b8b600a60009054906101000a900473ffffffffffffffffffffffffffffffffffffffff1673ffffffffffffffffffffffffffffffffffffffff16636e47c6358f876040518363ffffffff1660e01b8152600401808381526020018273ffffffffffffffffffffffffffffffffffffffff1673ffffffffffffffffffffffffffffffffffffffff1681526020019250505060206040518083038186803b158015612f5e57600080fd5b505afa158015612f72573d6000803e3d6000fd5b505050506040513d6020811015612f8857600080fd5b81019080805190602001909291905050506040518463ffffffff1660e01b8152600401808481526020018381526020018281526020019350505050600060405180830381600087803b158015612fdd57600080fd5b505af1158015612ff1573d6000803e3d6000fd5b50505050600260009054906101000a900473ffffffffffffffffffffffffffffffffffffffff1673ffffffffffffffffffffffffffffffffffffffff1663f5de83978b6002600581111561304157fe5b6040518363ffffffff1660e01b81526004018083815260200182815260200192505050600060405180830381600087803b15801561307e57600080fd5b505af1158015613092573d6000803e3d6000fd5b50505050600460009054906101000a900473ffffffffffffffffffffffffffffffffffffffff1673ffffffffffffffffffffffffffffffffffffffff1663d665a7178b60036040518363ffffffff1660e01b81526004018083815260200182815260200192505050600060405180830381600087803b15801561311457600080fd5b505af1158015613128573d6000803e3d6000fd5b50505050897f44eba4bcf780a2012259962cf19bf1777051e027304e22dd8e324b0cefb4be26600160026040518083600581111561316257fe5b60ff16815260200182600581111561317657fe5b60ff1681526020019250505060405180910390a26001975050505050506131a2565b6000975050505050505b505092915050565b6000809054906101000a900473ffffffffffffffffffffffffffffffffffffffff1673ffffffffffffffffffffffffffffffffffffffff163373ffffffffffffffffffffffffffffffffffffffff161461320057fe5b600160009054906101000a900473ffffffffffffffffffffffffffffffffffffffff1673ffffffffffffffffffffffffffffffffffffffff1663358177736040518060400160405280600a81526020017f474d5365747465724442000000000000000000000000000000000000000000008152506040518263ffffffff1660e01b81526004018080602001828103825283818151815260200191508051906020019080838360005b838110156132c35780820151818401526020810190506132a8565b50505050905090810190601f1680156132f05780820380516001836020036101000a031916815260200191505b509250505060206040518083038186803b15801561330d57600080fd5b505afa158015613321573d6000803e3d6000fd5b505050506040513d602081101561333757600080fd5b8101908080519060200190929190505050600260006101000a81548173ffffffffffffffffffffffffffffffffffffffff021916908373ffffffffffffffffffffffffffffffffffffffff160217905550600160009054906101000a900473ffffffffffffffffffffffffffffffffffffffff1673ffffffffffffffffffffffffffffffffffffffff1663358177736040518060400160405280600a81526020017f474d4765747465724442000000000000000000000000000000000000000000008152506040518263ffffffff1660e01b81526004018080602001828103825283818151815260200191508051906020019080838360005b8381101561344b578082015181840152602081019050613430565b50505050905090810190601f1680156134785780820380516001836020036101000a031916815260200191505b509250505060206040518083038186803b15801561349557600080fd5b505afa1580156134a9573d6000803e3d6000fd5b505050506040513d60208110156134bf57600080fd5b8101908080519060200190929190505050600360006101000a81548173ffffffffffffffffffffffffffffffffffffffff021916908373ffffffffffffffffffffffffffffffffffffffff160217905550600160009054906101000a900473ffffffffffffffffffffffffffffffffffffffff1673ffffffffffffffffffffffffffffffffffffffff1663358177736040518060400160405280600d81526020017f456e646f776d656e7446756e64000000000000000000000000000000000000008152506040518263ffffffff1660e01b81526004018080602001828103825283818151815260200191508051906020019080838360005b838110156135d35780820151818401526020810190506135b8565b50505050905090810190601f1680156136005780820380516001836020036101000a031916815260200191505b509250505060206040518083038186803b15801561361d57600080fd5b505afa158015613631573d6000803e3d6000fd5b505050506040513d602081101561364757600080fd5b8101908080519060200190929190505050600460006101000a81548173ffffffffffffffffffffffffffffffffffffffff021916908373ffffffffffffffffffffffffffffffffffffffff160217905550600160009054906101000a900473ffffffffffffffffffffffffffffffffffffffff1673ffffffffffffffffffffffffffffffffffffffff1663358177736040518060400160405280600b81526020017f456e646f776d656e7444420000000000000000000000000000000000000000008152506040518263ffffffff1660e01b81526004018080602001828103825283818151815260200191508051906020019080838360005b8381101561375b578082015181840152602081019050613740565b50505050905090810190601f1680156137885780820380516001836020036101000a031916815260200191505b509250505060206040518083038186803b1580156137a557600080fd5b505afa1580156137b9573d6000803e3d6000fd5b505050506040513d60208110156137cf57600080fd5b8101908080519060200190929190505050600560006101000a81548173ffffffffffffffffffffffffffffffffffffffff021916908373ffffffffffffffffffffffffffffffffffffffff160217905550600160009054906101000a900473ffffffffffffffffffffffffffffffffffffffff1673ffffffffffffffffffffffffffffffffffffffff1663358177736040518060400160405280600981526020017f466f7266656974657200000000000000000000000000000000000000000000008152506040518263ffffffff1660e01b81526004018080602001828103825283818151815260200191508051906020019080838360005b838110156138e35780820151818401526020810190506138c8565b50505050905090810190601f1680156139105780820380516001836020036101000a031916815260200191505b509250505060206040518083038186803b15801561392d57600080fd5b505afa158015613941573d6000803e3d6000fd5b505050506040513d602081101561395757600080fd5b8101908080519060200190929190505050600660006101000a81548173ffffffffffffffffffffffffffffffffffffffff021916908373ffffffffffffffffffffffffffffffffffffffff160217905550600160009054906101000a900473ffffffffffffffffffffffffffffffffffffffff1673ffffffffffffffffffffffffffffffffffffffff1663358177736040518060400160405280600781526020017f42657474696e67000000000000000000000000000000000000000000000000008152506040518263ffffffff1660e01b81526004018080602001828103825283818151815260200191508051906020019080838360005b83811015613a6b578082015181840152602081019050613a50565b50505050905090810190601f168015613a985780820380516001836020036101000a031916815260200191505b509250505060206040518083038186803b158015613ab557600080fd5b505afa158015613ac9573d6000803e3d6000fd5b505050506040513d6020811015613adf57600080fd5b8101908080519060200190929190505050600760006101000a81548173ffffffffffffffffffffffffffffffffffffffff021916908373ffffffffffffffffffffffffffffffffffffffff160217905550600160009054906101000a900473ffffffffffffffffffffffffffffffffffffffff1673ffffffffffffffffffffffffffffffffffffffff1663358177736040518060400160405280600b81526020017f486974735265736f6c76650000000000000000000000000000000000000000008152506040518263ffffffff1660e01b81526004018080602001828103825283818151815260200191508051906020019080838360005b83811015613bf3578082015181840152602081019050613bd8565b50505050905090810190601f168015613c205780820380516001836020036101000a031916815260200191505b509250505060206040518083038186803b158015613c3d57600080fd5b505afa158015613c51573d6000803e3d6000fd5b505050506040513d6020811015613c6757600080fd5b8101908080519060200190929190505050600860006101000a81548173ffffffffffffffffffffffffffffffffffffffff021916908373ffffffffffffffffffffffffffffffffffffffff160217905550600160009054906101000a900473ffffffffffffffffffffffffffffffffffffffff1673ffffffffffffffffffffffffffffffffffffffff1663358177736040518060400160405280600a81526020017f4b697474696548656c6c000000000000000000000000000000000000000000008152506040518263ffffffff1660e01b81526004018080602001828103825283818151815260200191508051906020019080838360005b83811015613d7b578082015181840152602081019050613d60565b50505050905090810190601f168015613da85780820380516001836020036101000a031916815260200191505b509250505060206040518083038186803b158015613dc557600080fd5b505afa158015613dd9573d6000803e3d6000fd5b505050506040513d6020811015613def57600080fd5b8101908080519060200190929190505050600960006101000a81548173ffffffffffffffffffffffffffffffffffffffff021916908373ffffffffffffffffffffffffffffffffffffffff160217905550600160009054906101000a900473ffffffffffffffffffffffffffffffffffffffff1673ffffffffffffffffffffffffffffffffffffffff1663358177736040518060400160405280600981526020017f47616d6553746f726500000000000000000000000000000000000000000000008152506040518263ffffffff1660e01b81526004018080602001828103825283818151815260200191508051906020019080838360005b83811015613f03578082015181840152602081019050613ee8565b50505050905090810190601f168015613f305780820380516001836020036101000a031916815260200191505b509250505060206040518083038186803b158015613f4d57600080fd5b505afa158015613f61573d6000803e3d6000fd5b505050506040513d6020811015613f7757600080fd5b8101908080519060200190929190505050600a60006101000a81548173ffffffffffffffffffffffffffffffffffffffff021916908373ffffffffffffffffffffffffffffffffffffffff160217905550565b600860009054906101000a900473ffffffffffffffffffffffffffffffffffffffff1681565b6000809054906101000a900473ffffffffffffffffffffffffffffffffffffffff1681565b6000809054906101000a900473ffffffffffffffffffffffffffffffffffffffff1673ffffffffffffffffffffffffffffffffffffffff163373ffffffffffffffffffffffffffffffffffffffff161461406b57fe5b80600160006101000a81548173ffffffffffffffffffffffffffffffffffffffff021916908373ffffffffffffffffffffffffffffffffffffffff16021790555050565b600660009054906101000a900473ffffffffffffffffffffffffffffffffffffffff1681565b600a60009054906101000a900473ffffffffffffffffffffffffffffffffffffffff1681565b6003600581111561410857fe5b600360009054906101000a900473ffffffffffffffffffffffffffffffffffffffff1673ffffffffffffffffffffffffffffffffffffffff1663ffde0c74846040518263ffffffff1660e01b81526004018082815260200191505060206040518083038186803b15801561417b57600080fd5b505afa15801561418f573d6000803e3d6000fd5b505050506040513d60208110156141a557600080fd5b8101908080519060200190929190505050146141c057600080fd5b600080600360009054906101000a900473ffffffffffffffffffffffffffffffffffffffff1673ffffffffffffffffffffffffffffffffffffffff166315a40f49856040518263ffffffff1660e01b81526004018082815260200191505060806040518083038186803b15801561423657600080fd5b505afa15801561424a573d6000803e3d6000fd5b505050506040513d608081101561426057600080fd5b81019080805190602001909291908051906020019092919080519060200190929190805190602001909291905050505050915091506000600860009054906101000a900473ffffffffffffffffffffffffffffffffffffffff1673ffffffffffffffffffffffffffffffffffffffff1663c0eef7188685876040518463ffffffff1660e01b8152600401808481526020018373ffffffffffffffffffffffffffffffffffffffff1673ffffffffffffffffffffffffffffffffffffffff168152602001828152602001935050505060206040518083038186803b15801561434657600080fd5b505afa15801561435a573d6000803e3d6000fd5b505050506040513d602081101561437057600080fd5b810190808051906020019092919050505090506000600860009054906101000a900473ffffffffffffffffffffffffffffffffffffffff1673ffffffffffffffffffffffffffffffffffffffff1663c0eef7188785886040518463ffffffff1660e01b8152600401808481526020018373ffffffffffffffffffffffffffffffffffffffff1673ffffffffffffffffffffffffffffffffffffffff168152602001828152602001935050505060206040518083038186803b15801561443457600080fd5b505afa158015614448573d6000803e3d6000fd5b505050506040513d602081101561445e57600080fd5b8101908080519060200190929190505050905060008082841115614487578591508490506145e0565b8383111561449a578491508590506145df565b6144a2615cf4565b600360009054906101000a900473ffffffffffffffffffffffffffffffffffffffff1673ffffffffffffffffffffffffffffffffffffffff1663589ac6a48a6040518263ffffffff1660e01b8152600401808281526020019150506101006040518083038186803b15801561451657600080fd5b505afa15801561452a573d6000803e3d6000fd5b505050506040513d601f19601f8201168201806040525061010081101561455057600080fd5b810190808051906020019092919080519060200190929190805190602001909291908051906020019092919091908260400180519060200190929190805190602001909291905050505050945050505050806000600281106145ae57fe5b6020020151816000600281106145c057fe5b602002015111156145d6578692508591506145dd565b8592508691505b505b5b600260009054906101000a900473ffffffffffffffffffffffffffffffffffffffff1673ffffffffffffffffffffffffffffffffffffffff1663f1c9d63a8984600a60009054906101000a900473ffffffffffffffffffffffffffffffffffffffff1673ffffffffffffffffffffffffffffffffffffffff166316805a298d886040518363ffffffff1660e01b8152600401808381526020018273ffffffffffffffffffffffffffffffffffffffff1673ffffffffffffffffffffffffffffffffffffffff1681526020019250505060206040518083038186803b1580156146c757600080fd5b505afa1580156146db573d6000803e3d6000fd5b505050506040513d60208110156146f157600080fd5b8101908080519060200190929190505050600a60009054906101000a900473ffffffffffffffffffffffffffffffffffffffff1673ffffffffffffffffffffffffffffffffffffffff16635f87206d8e896040518363ffffffff1660e01b8152600401808381526020018273ffffffffffffffffffffffffffffffffffffffff1673ffffffffffffffffffffffffffffffffffffffff1681526020019250505060206040518083038186803b1580156147a957600080fd5b505afa1580156147bd573d6000803e3d6000fd5b505050506040513d60208110156147d357600080fd5b81019080805190602001909291905050506040518563ffffffff1660e01b8152600401808581526020018473ffffffffffffffffffffffffffffffffffffffff1673ffffffffffffffffffffffffffffffffffffffff1681526020018373ffffffffffffffffffffffffffffffffffffffff1673ffffffffffffffffffffffffffffffffffffffff1681526020018273ffffffffffffffffffffffffffffffffffffffff1673ffffffffffffffffffffffffffffffffffffffff168152602001945050505050600060405180830381600087803b1580156148b357600080fd5b505af11580156148c7573d6000803e3d6000fd5b50505050600960009054906101000a900473ffffffffffffffffffffffffffffffffffffffff1673ffffffffffffffffffffffffffffffffffffffff166329af207c600360009054906101000a900473ffffffffffffffffffffffffffffffffffffffff1673ffffffffffffffffffffffffffffffffffffffff1663e441dcbf8b866040518363ffffffff1660e01b8152600401808381526020018273ffffffffffffffffffffffffffffffffffffffff1673ffffffffffffffffffffffffffffffffffffffff1681526020019250505060206040518083038186803b1580156149b057600080fd5b505afa1580156149c4573d6000803e3d6000fd5b505050506040513d60208110156149da57600080fd5b81019080805190602001909291905050506040518263ffffffff1660e01b815260040180828152602001915050602060405180830381600087803b158015614a2157600080fd5b505af1158015614a35573d6000803e3d6000fd5b505050506040513d6020811015614a4b57600080fd5b810190808051906020019092919050505050600960009054906101000a900473ffffffffffffffffffffffffffffffffffffffff1673ffffffffffffffffffffffffffffffffffffffff16630afdbaed600360009054906101000a900473ffffffffffffffffffffffffffffffffffffffff1673ffffffffffffffffffffffffffffffffffffffff1663e441dcbf8b856040518363ffffffff1660e01b8152600401808381526020018273ffffffffffffffffffffffffffffffffffffffff1673ffffffffffffffffffffffffffffffffffffffff1681526020019250505060206040518083038186803b158015614b4257600080fd5b505afa158015614b56573d6000803e3d6000fd5b505050506040513d6020811015614b6c57600080fd5b81019080805190602001909291905050506040518263ffffffff1660e01b815260040180828152602001915050602060405180830381600087803b158015614bb357600080fd5b505af1158015614bc7573d6000803e3d6000fd5b505050506040513d6020811015614bdd57600080fd5b810190808051906020019092919050505050600460009054906101000a900473ffffffffffffffffffffffffffffffffffffffff1673ffffffffffffffffffffffffffffffffffffffff1663d665a7178960056040518363ffffffff1660e01b81526004018083815260200182815260200192505050600060405180830381600087803b158015614c6d57600080fd5b505af1158015614c81573d6000803e3d6000fd5b50505050600260009054906101000a900473ffffffffffffffffffffffffffffffffffffffff1673ffffffffffffffffffffffffffffffffffffffff1663f5de83978960046005811115614cd157fe5b6040518363ffffffff1660e01b81526004018083815260200182815260200192505050600060405180830381600087803b158015614d0e57600080fd5b505af1158015614d22573d6000803e3d6000fd5b50505050877f44eba4bcf780a2012259962cf19bf1777051e027304e22dd8e324b0cefb4be266002600460405180836005811115614d5c57fe5b60ff168152602001826005811115614d7057fe5b60ff1681526020019250505060405180910390a28073ffffffffffffffffffffffffffffffffffffffff168273ffffffffffffffffffffffffffffffffffffffff16897ff1ef0c82644b061a588c809f1271ad223bd37fbed3b6b4a80e23b549fa80d8e58787604051808381526020018281526020019250505060405180910390a45050505050505050565b600960009054906101000a900473ffffffffffffffffffffffffffffffffffffffff1681565b600160009054906101000a900473ffffffffffffffffffffffffffffffffffffffff1681565b600260009054906101000a900473ffffffffffffffffffffffffffffffffffffffff1681565b6000809054906101000a900473ffffffffffffffffffffffffffffffffffffffff1673ffffffffffffffffffffffffffffffffffffffff163373ffffffffffffffffffffffffffffffffffffffff1614614ec457fe5b600073ffffffffffffffffffffffffffffffffffffffff168173ffffffffffffffffffffffffffffffffffffffff1614614f3957806000806101000a81548173ffffffffffffffffffffffffffffffffffffffff021916908373ffffffffffffffffffffffffffffffffffffffff1602179055505b50565b600073ffffffffffffffffffffffffffffffffffffffff16600160009054906101000a900473ffffffffffffffffffffffffffffffffffffffff1673ffffffffffffffffffffffffffffffffffffffff161415615001576040517f08c379a00000000000000000000000000000000000000000000000000000000081526004018080602001828103825260088152602001807f4e6f2050726f787900000000000000000000000000000000000000000000000081525060200191505060405180910390fd5b600160009054906101000a900473ffffffffffffffffffffffffffffffffffffffff1673ffffffffffffffffffffffffffffffffffffffff163373ffffffffffffffffffffffffffffffffffffffff16146150c4576040517f08c379a00000000000000000000000000000000000000000000000000000000081526004018080602001828103825260128152602001807f4f6e6c79207468726f7567682050726f7879000000000000000000000000000081525060200191505060405180910390fd5b565b6000600160009054906101000a900473ffffffffffffffffffffffffffffffffffffffff1673ffffffffffffffffffffffffffffffffffffffff1663358177736040518060400160405280600681526020017f526f6c65444200000000000000000000000000000000000000000000000000008152506040518263ffffffff1660e01b81526004018080602001828103825283818151815260200191508051906020019080838360005b8381101561518b578082015181840152602081019050615170565b50505050905090810190601f1680156151b85780820380516001836020036101000a031916815260200191505b509250505060206040518083038186803b1580156151d557600080fd5b505afa1580156151e9573d6000803e3d6000fd5b505050506040513d60208110156151ff57600080fd5b810190808051906020019092919050505073ffffffffffffffffffffffffffffffffffffffff16636c9cd09783615234615342565b6040518363ffffffff1660e01b815260040180806020018373ffffffffffffffffffffffffffffffffffffffff1673ffffffffffffffffffffffffffffffffffffffff168152602001828103825284818151815260200191508051906020019080838360005b838110156152b557808201518184015260208101905061529a565b50505050905090810190601f1680156152e25780820380516001836020036101000a031916815260200191505b50935050505060206040518083038186803b15801561530057600080fd5b505afa158015615314573d6000803e3d6000fd5b505050506040513d602081101561532a57600080fd5b81019080805190602001909291905050509050919050565b6000600160009054906101000a900473ffffffffffffffffffffffffffffffffffffffff1673ffffffffffffffffffffffffffffffffffffffff163373ffffffffffffffffffffffffffffffffffffffff16146153a1573390506153f4565b6000601436036000602052601481602c37602051915050600073ffffffffffffffffffffffffffffffffffffffff168173ffffffffffffffffffffffffffffffffffffffff1614156153ef57fe5b809150505b90565b600073ffffffffffffffffffffffffffffffffffffffff16600160009054906101000a900473ffffffffffffffffffffffffffffffffffffffff1673ffffffffffffffffffffffffffffffffffffffff1614156154bc576040517f08c379a00000000000000000000000000000000000000000000000000000000081526004018080602001828103825260088152602001807f4e6f2050726f787900000000000000000000000000000000000000000000000081525060200191505060405180910390fd5b6000600160009054906101000a900473ffffffffffffffffffffffffffffffffffffffff1673ffffffffffffffffffffffffffffffffffffffff166335817773836040518263ffffffff1660e01b81526004018080602001828103825283818151815260200191508051906020019080838360005b8381101561554c578082015181840152602081019050615531565b50505050905090810190601f1680156155795780820380516001836020036101000a031916815260200191505b509250505060206040518083038186803b15801561559657600080fd5b505afa1580156155aa573d6000803e3d6000fd5b505050506040513d60208110156155c057600080fd5b81019080805190602001909291905050509050600073ffffffffffffffffffffffffffffffffffffffff168173ffffffffffffffffffffffffffffffffffffffff16141561560a57fe5b8073ffffffffffffffffffffffffffffffffffffffff163373ffffffffffffffffffffffffffffffffffffffff161461568e576040517f08c379a000000000000000000000000000000000000000000000000000000000815260040180806020018281038252602d815260200180615d17602d913960400191505060405180910390fd5b5050565b6000600360009054906101000a900473ffffffffffffffffffffffffffffffffffffffff1673ffffffffffffffffffffffffffffffffffffffff16638851470d836040518263ffffffff1660e01b81526004018082815260200191505060606040518083038186803b15801561570757600080fd5b505afa15801561571b573d6000803e3d6000fd5b505050506040513d606081101561573157600080fd5b8101908080519060200190929190805190602001909291908051906020019092919050505092505050600561576f4283615c8a90919063ffffffff16565b116159ee576000600360009054906101000a900473ffffffffffffffffffffffffffffffffffffffff1673ffffffffffffffffffffffffffffffffffffffff1663589ac6a4846040518263ffffffff1660e01b8152600401808281526020019150506101006040518083038186803b1580156157ea57600080fd5b505afa1580156157fe573d6000803e3d6000fd5b505050506040513d601f19601f8201168201806040525061010081101561582457600080fd5b8101908080519060200190929190805190602001909291908051906020019092919080519060200190929190919082604001805190602001909291908051906020019092919050505050505050925050506000600560009054906101000a900473ffffffffffffffffffffffffffffffffffffffff1673ffffffffffffffffffffffffffffffffffffffff166322e0ce13856040518263ffffffff1660e01b81526004018082815260200191505060206040518083038186803b1580156158ea57600080fd5b505afa1580156158fe573d6000803e3d6000fd5b505050506040513d602081101561591457600080fd5b8101908080519060200190929190505050905061593b600a83615ca190919063ffffffff16565b8110156159eb57600260009054906101000a900473ffffffffffffffffffffffffffffffffffffffff1673ffffffffffffffffffffffffffffffffffffffff1663e44542df85615995603c87615cd890919063ffffffff16565b6040518363ffffffff1660e01b81526004018083815260200182815260200192505050600060405180830381600087803b1580156159d257600080fd5b505af11580156159e6573d6000803e3d6000fd5b505050505b50505b5050565b600260058111156159ff57fe5b600360009054906101000a900473ffffffffffffffffffffffffffffffffffffffff1673ffffffffffffffffffffffffffffffffffffffff1663ffde0c74836040518263ffffffff1660e01b81526004018082815260200191505060206040518083038186803b158015615a7257600080fd5b505afa158015615a86573d6000803e3d6000fd5b505050506040513d6020811015615a9c57600080fd5b810190808051906020019092919050505014615ab757600080fd5b6000600360009054906101000a900473ffffffffffffffffffffffffffffffffffffffff1673ffffffffffffffffffffffffffffffffffffffff16638851470d836040518263ffffffff1660e01b81526004018082815260200191505060606040518083038186803b158015615b2c57600080fd5b505afa158015615b40573d6000803e3d6000fd5b505050506040513d6060811015615b5657600080fd5b8101908080519060200190929190805190602001909291908051906020019092919050505092505050428111615c8657600260009054906101000a900473ffffffffffffffffffffffffffffffffffffffff1673ffffffffffffffffffffffffffffffffffffffff1663f5de83978360036005811115615bd257fe5b6040518363ffffffff1660e01b81526004018083815260200182815260200192505050600060405180830381600087803b158015615c0f57600080fd5b505af1158015615c23573d6000803e3d6000fd5b50505050817f44eba4bcf780a2012259962cf19bf1777051e027304e22dd8e324b0cefb4be266002600360405180836005811115615c5d57fe5b60ff168152602001826005811115615c7157fe5b60ff1681526020019250505060405180910390a25b5050565b600082821115615c9657fe5b818303905092915050565b600080831415615cb45760009050615cd2565b6000828402905082848281615cc557fe5b0414615ccd57fe5b809150505b92915050565b600080828401905083811015615cea57fe5b8091505092915050565b604051806040016040528060029060208202803883398082019150509050509056fe416363657373206973206f6e6c7920616c6c6f7765642066726f6d20737065636966696320636f6e7472616374a265627a7a723058200f41a462df5ac5412fa7c4f35b9fd8e35dc3e0f19627b62a5fa4b81c368c943d64736f6c634300050a0032",
  "source": "/**\n * @title GamesManager\n *\n * @author @wafflemakr @karl @vikrammandal\n\n *\n */\n//modifier class (DSAuth )\n//Event class ( DSNote )\n//\n// This program is free software: you can redistribute it and/or modify\n// it under the terms of the GNU General Public License as published by\n// the Free Software Foundation, either version 3 of the License, or\n// (at your option) any later version.\n\n// This program is distributed in the hope that it will be useful,\n// but WITHOUT ANY WARRANTY; without even the implied warranty of\n// MERCHANTABILITY or FITNESS FOR A PARTICULAR PURPOSE.  See the\n// GNU General Public License for more details.\n\n// You should have received a copy of the GNU General Public License\n// along with this program.  If not, see <http://www.gnu.org/licenses/>.\n\npragma solidity ^0.5.5;\n\nimport '../proxy/Proxied.sol';\nimport \"../databases/GMSetterDB.sol\";\nimport \"../databases/GMGetterDB.sol\";\nimport \"../databases/EndowmentDB.sol\";\nimport \"../endowment/EndowmentFund.sol\";\nimport \"./Forfeiter.sol\";\nimport \"../algorithm/Betting.sol\";\nimport \"../algorithm/HitsResolveAlgo.sol\";\nimport \"../algorithm/RarityCalculator.sol\";\nimport \"../databases/ProfileDB.sol\";\nimport \"../../libs/SafeMath.sol\";\nimport '../kittieHELL/KittieHell.sol';\nimport '../../authority/Guard.sol';\nimport '../../mocks/MockERC721Token.sol';\nimport \"./GameStore.sol\";\n\ncontract GameManager is Proxied, Guard {\n    using SafeMath for uint256;\n\n    //Contract Variables\n    GMSetterDB public gmSetterDB;\n    GMGetterDB public gmGetterDB;\n    EndowmentFund public endowmentFund;\n    EndowmentDB public endowmentDB;\n    Forfeiter public forfeiter;\n    Betting public betting;\n    HitsResolve public hitsResolve;\n    KittieHell public kittieHELL;\n    GameStore public gameStore;\n \n    enum eGameState {WAITING, PRE_GAME, MAIN_GAME, GAME_OVER, CLAIMING, CANCELLED}\n\n    //EVENTS\n    event NewSupporter(uint indexed gameId, address supporter, address indexed playerSupported);\n    event PressStart(uint indexed gameId, address player);\n    event GameStateChanged(uint indexed gameId, eGameState old_state, eGameState new_state);\n    event GameEnded(uint indexed gameId, address indexed winner, address indexed loser, uint pointsBlack, uint pointsRed);\n\n    modifier onlyGamePlayer(uint gameId, address player) {\n        require(ProfileDB(proxy.getContract(CONTRACT_NAME_PROFILE_DB)).getCivicId(player) > 0);\n        require(gmGetterDB.isPlayer(gameId, player));\n        _;\n    }\n\n    /**\n    * @dev Sets related contracts\n    * @dev Can be called only by the owner of this contract\n    */\n    function initialize() external onlyOwner {\n\n        gmSetterDB = GMSetterDB(proxy.getContract(CONTRACT_NAME_GM_SETTER_DB));\n        gmGetterDB = GMGetterDB(proxy.getContract(CONTRACT_NAME_GM_GETTER_DB));\n        endowmentFund = EndowmentFund(proxy.getContract(CONTRACT_NAME_ENDOWMENT_FUND));\n        endowmentDB = EndowmentDB(proxy.getContract(CONTRACT_NAME_ENDOWMENT_DB));\n        forfeiter = Forfeiter(proxy.getContract(CONTRACT_NAME_FORFEITER));\n        betting = Betting(proxy.getContract(CONTRACT_NAME_BETTING));\n        hitsResolve = HitsResolve(proxy.getContract(CONTRACT_NAME_HITSRESOLVE));\n        kittieHELL = KittieHell(proxy.getContract(CONTRACT_NAME_KITTIEHELL));\n        gameStore = GameStore(proxy.getContract(CONTRACT_NAME_GAMESTORE));\n    }\n\n    /**\n     * @dev Betters pay a ticket fee to participate in betting .\n     *      Betters can join before and even a live game.\n     */\n    function participate\n    (\n        uint gameId,\n        address playerToSupport\n    )\n        public\n        onlyProxy onlyBettor\n        onlyGamePlayer(gameId, playerToSupport)\n        returns(bool)\n    {\n        uint gameState = gmGetterDB.getGameState(gameId);\n\n        address supporter = getOriginalSender();\n\n        //Before GAME_OVER\n        require(gameState <= 2);\n\n        //pay ticket fee\n        require(endowmentFund.contributeKTY(supporter, gameStore.getTicketFee(gameId)));\n        \n        require(gmSetterDB.addBettor(gameId, supporter, playerToSupport));\n\n        if (gameState == 1) forfeiter.checkGameStatus(gameId, gameState);\n\n        (,uint preStartTime,) = gmGetterDB.getGameTimes(gameId);\n\n        //Update state if reached prestart time\n        //Include check game state because it can be called from the bet function\n        if (gameState == uint(eGameState.WAITING) && preStartTime <= now){\n            gmSetterDB.updateGameState(gameId, uint(eGameState.PRE_GAME));\n            emit GameStateChanged(gameId, eGameState.WAITING, eGameState.PRE_GAME);\n        }\n            \n        \n        emit NewSupporter(gameId, supporter, playerToSupport);\n        \n        return true;\n    }\n\n    /**\n     * @dev only both Actual players can call\n     */\n    function startGame\n    (\n        uint gameId,\n        uint randomNum\n    )\n        external\n        onlyProxy onlyPlayer\n        onlyGamePlayer(gameId, getOriginalSender())\n        returns(bool)\n    {\n        uint gameState = gmGetterDB.getGameState(gameId);\n        forfeiter.checkGameStatus(gameId, gameState);\n\n        require(gameState == uint(eGameState.PRE_GAME));\n\n        address player = getOriginalSender();\n        uint kittieId = gmGetterDB.getKittieInGame(gameId, player);\n        \n        gameStore.start(gameId, player,randomNum);\n\n        // (,,,,,,,,,uint genes) = MockERC721Token(proxy.getContract(CONTRACT_NAME_CRYPTOKITTIES)).getKitty(kittieId);\n        uint genes = MockERC721Token(proxy.getContract(CONTRACT_NAME_CRYPTOKITTIES)).getKitty(kittieId);\n        betting.setDefenseLevel(gameId, player, RarityCalculator(proxy.getContract(CONTRACT_NAME_RARITYCALCULATOR)).getDefenseLevel(kittieId, genes));\n\n        require(kittieHELL.acquireKitty(kittieId, player));\n\n        address opponentPlayer = gmGetterDB.getOpponent(gameId, player);\n\n        emit PressStart(gameId, player);\n\n        //Both Players Hit start\n        if (gameStore.didHitStart(gameId, opponentPlayer)){\n            //Call betting to set fight map\n            betting.startGame(gameId, randomNum, gameStore.getRandom(gameId, opponentPlayer));\n\n            //GameStarts\n            gmSetterDB.updateGameState(gameId, uint(eGameState.MAIN_GAME));\n            endowmentFund.updateHoneyPotState(gameId, 3);\n            emit GameStateChanged(gameId, eGameState.PRE_GAME, eGameState.MAIN_GAME);\n            return true; //Game Started\n        }\n\n        return false; //Game is not starting yet\n    }\n\n    /**\n     * @dev checks to see if current jackpot is at least 10 times (10x)\n     *  the amount of funds originally placed in jackpot\n     */\n    function checkPerformance(uint gameId) internal {\n        (,,uint gameEndTime) = gmGetterDB.getGameTimes(gameId);\n\n        //each time 1 minute before game ends\n        if(gameEndTime.sub(now) <= 5) {\n            //get initial jackpot, need endowment to send this when creating honeypot\n            (,,uint initialEth,,,,) = gmGetterDB.getHoneypotInfo(gameId);\n            uint currentJackpotEth = endowmentDB.getHoneypotTotalETH(gameId);\n\n            if(currentJackpotEth < initialEth.mul(10)){\n                gmSetterDB.updateEndTime(gameId, gameEndTime.add(60));\n            }\n        }\n    }\n\n    /**\n     * @dev KTY tokens are sent to endowment balance, Eth gets added to ongoing game honeypot\n     * @author Felipe\n     * @author Karl\n     * @author Vikrammandal\n     */\n    function bet\n    (\n        uint gameId, uint randomNum\n    )\n        external payable\n        onlyProxy onlyBettor\n    {\n        require(msg.value > 0);\n\n        uint gameState = gmGetterDB.getGameState(gameId);\n        \n        require(gameState == uint(eGameState.MAIN_GAME));\n        \n        address sender = getOriginalSender();\n        (, address supportedPlayer, bool payedFee,) = gmGetterDB.getSupporterInfo(gameId, sender);\n\n        require(payedFee); //Needs to call participate first if false\n        \n        //Transfer Funds to endowment\n        require(endowmentFund.contributeETH.value(msg.value)(gameId));\n        require(endowmentFund.contributeKTY(sender, gameStore.getBettingFee(gameId)));\n\n        //Update bettor's total bet\n        if (sender != supportedPlayer) gmSetterDB.updateBettor(gameId, sender, msg.value, supportedPlayer);\n\n        // Update Random\n        hitsResolve.calculateCurrentRandom(gameId, randomNum);\n        \n        address opponentPlayer = gmGetterDB.getOpponent(gameId, supportedPlayer);\n        \n        //Send bet to betting algo, to decide attacks\n        betting.bet(gameId, msg.value, supportedPlayer, opponentPlayer, randomNum);\n\n        // update game variables\n        gmSetterDB.updateTopbettors(gameId, sender, supportedPlayer);\n\n        // check underperforming game if one minut\n        checkPerformance(gameId);\n\n        //Check if game has ended\n        gameEnd(gameId);\n    }\n\n    /**\n     * @dev game comes to an end at time duration,continously check game time end\n     */\n    function gameEnd(uint gameId) internal {\n        require(gmGetterDB.getGameState(gameId) == uint(eGameState.MAIN_GAME));\n\n        (,,uint endTime) = gmGetterDB.getGameTimes(gameId);\n\n        if ( endTime <= now){\n            gmSetterDB.updateGameState(gameId, uint(eGameState.GAME_OVER));\n                 \n            // gmSetterDB.removeKittyStatus(gameId);\n            emit GameStateChanged(gameId, eGameState.MAIN_GAME, eGameState.GAME_OVER);\n        }\n    }\n\n    /**\n     * @dev Determine winner of game based on  **HitResolver **\n     */\n    function finalize(uint gameId, uint randomNum) external {\n        require(gmGetterDB.getGameState(gameId) == uint(eGameState.GAME_OVER));\n\n        (address playerBlack, address playerRed,,) = gmGetterDB.getGamePlayers(gameId);\n\n        uint256 playerBlackPoints = hitsResolve.calculateFinalPoints(gameId, playerBlack, randomNum);\n        uint256 playerRedPoints = hitsResolve.calculateFinalPoints(gameId, playerRed, randomNum);\n\n        address winner;\n        address loser;\n\n        if (playerBlackPoints > playerRedPoints)\n        {\n            winner = playerBlack;\n            loser = playerRed;\n        }\n        else if(playerRedPoints > playerBlackPoints)\n        {\n            winner = playerRed;\n            loser = playerBlack;\n        }\n        //If there is a tie in point, define by total eth bet\n        else\n        {\n            (,,,,uint[2] memory ethByCorner,,) = gmGetterDB.getHoneypotInfo(gameId);\n            if(ethByCorner[0] > ethByCorner[0] ){\n               winner = playerBlack;\n                loser = playerRed;\n            }\n            else{\n                winner = playerRed;\n                loser = playerBlack;\n            }\n        }\n\n        //Store Winners in DB\n        gmSetterDB.setWinners(gameId, winner, gameStore.getTopBettor(gameId, winner),\n            gameStore.getSecondTopBettor(gameId, winner));\n\n        //Release winner's Kittie\n        kittieHELL.releaseKittyGameManager(gmGetterDB.getKittieInGame(gameId, winner));\n\n        //Kill losers's Kittie\n        kittieHELL.killKitty(gmGetterDB.getKittieInGame(gameId, loser));\n\n        //Set to claiming\n        endowmentFund.updateHoneyPotState(gameId, 5);\n\n        gmSetterDB.updateGameState(gameId, uint(eGameState.CLAIMING));\n        emit GameStateChanged(gameId, eGameState.MAIN_GAME, eGameState.CLAIMING);\n\n        emit GameEnded(gameId, winner, loser, playerBlackPoints, playerRedPoints);\n    }\n    \n\n    /**\n     * @dev Cancels the game before the game starts\n     */\n    function cancelGame(uint gameId) external onlyContract(CONTRACT_NAME_FORFEITER) {\n        uint gameState = gmGetterDB.getGameState(gameId);\n        require(gameState == uint(eGameState.WAITING) ||\n                gameState == uint(eGameState.PRE_GAME));\n\n        gmSetterDB.updateGameState(gameId, uint(eGameState.CANCELLED));\n\n        //Set to forfeited\n        endowmentFund.updateHoneyPotState(gameId, 4);\n        gmSetterDB.removeKittiesInGame(gameId);\n\n    }\n}\n",
  "sourcePath": "/home/ziwei/Documents/kittieFight-new/algorithm/alpha/contracts/modules/gamemanager/GameManager.sol",
  "compiler": {
    "name": "solc",
    "version": "0.5.10+commit.5a6ea5b1.Emscripten.clang"
  },
  "schemaVersion": "3.0.11",
  "updatedAt": "2019-08-03T18:50:23.157Z",
  "devdoc": {
    "methods": {
      "bet(uint256,uint256)": {
        "author": "FelipeKarlVikrammandal",
        "details": "KTY tokens are sent to endowment balance, Eth gets added to ongoing game honeypot"
      },
      "cancelGame(uint256)": {
        "details": "Cancels the game before the game starts"
      },
      "finalize(uint256,uint256)": {
        "details": "Determine winner of game based on  **HitResolver **"
      },
      "initialize()": {
        "details": "Sets related contractsCan be called only by the owner of this contract"
      },
      "participate(uint256,address)": {
        "details": "Betters pay a ticket fee to participate in betting .     Betters can join before and even a live game."
      },
      "startGame(uint256,uint256)": {
        "details": "only both Actual players can call"
      }
    }
  },
  "userdoc": {
    "methods": {
      "setProxy(address)": {
        "notice": "Set/update address of Proxy contract"
      }
    }
  }
}