{
  "contractName": "GameVarAndFee",
  "abi": [
    {
      "inputs": [
        {
          "internalType": "contract GenericDB",
          "name": "_genericDB",
          "type": "address"
        },
        {
          "internalType": "contract Medianizer",
          "name": "_medianizer",
          "type": "address"
        }
      ],
      "payable": false,
      "stateMutability": "nonpayable",
      "type": "constructor"
    },
    {
      "constant": true,
      "inputs": [],
      "name": "genericDB",
      "outputs": [
        {
          "internalType": "contract GenericDB",
          "name": "",
          "type": "address"
        }
      ],
      "payable": false,
      "stateMutability": "view",
      "type": "function"
    },
    {
      "constant": true,
      "inputs": [],
      "name": "owner",
      "outputs": [
        {
          "internalType": "address payable",
          "name": "",
          "type": "address"
        }
      ],
      "payable": false,
      "stateMutability": "view",
      "type": "function"
    },
    {
      "constant": true,
      "inputs": [],
      "name": "proxy",
      "outputs": [
        {
          "internalType": "contract ProxyBase",
          "name": "",
          "type": "address"
        }
      ],
      "payable": false,
      "stateMutability": "view",
      "type": "function"
    },
    {
      "constant": false,
      "inputs": [
        {
          "internalType": "contract ProxyBase",
          "name": "_proxy",
          "type": "address"
        }
      ],
      "name": "setProxy",
      "outputs": [],
      "payable": false,
      "stateMutability": "nonpayable",
      "type": "function"
    },
    {
      "constant": false,
      "inputs": [
        {
          "internalType": "address payable",
          "name": "newOwner",
          "type": "address"
        }
      ],
      "name": "transferOwnership",
      "outputs": [],
      "payable": false,
      "stateMutability": "nonpayable",
      "type": "function"
    },
    {
      "constant": false,
      "inputs": [
        {
          "internalType": "contract Medianizer",
          "name": "_medianizer",
          "type": "address"
        }
      ],
      "name": "setMedianizer",
      "outputs": [],
      "payable": false,
      "stateMutability": "nonpayable",
      "type": "function"
    },
    {
      "constant": false,
      "inputs": [
        {
          "internalType": "contract GenericDB",
          "name": "_genericDB",
          "type": "address"
        }
      ],
      "name": "setGenericDB",
      "outputs": [],
      "payable": false,
      "stateMutability": "nonpayable",
      "type": "function"
    },
    {
      "constant": false,
      "inputs": [
        {
          "internalType": "string",
          "name": "varName",
          "type": "string"
        },
        {
          "internalType": "uint256",
          "name": "value",
          "type": "uint256"
        }
      ],
      "name": "setVarAndFee",
      "outputs": [],
      "payable": false,
      "stateMutability": "nonpayable",
      "type": "function"
    },
    {
      "constant": false,
      "inputs": [
        {
          "internalType": "bytes32[]",
          "name": "names",
          "type": "bytes32[]"
        },
        {
          "internalType": "uint256[]",
          "name": "values",
          "type": "uint256[]"
        }
      ],
      "name": "setMultipleValues",
      "outputs": [],
      "payable": false,
      "stateMutability": "nonpayable",
      "type": "function"
    },
    {
      "constant": false,
      "inputs": [
        {
          "internalType": "string",
          "name": "feeName",
          "type": "string"
        }
      ],
      "name": "setPlatformFeeInDai",
      "outputs": [],
      "payable": false,
      "stateMutability": "nonpayable",
      "type": "function"
    },
    {
      "constant": true,
      "inputs": [],
      "name": "getEthUsdPrice",
      "outputs": [
        {
          "internalType": "uint256",
          "name": "",
          "type": "uint256"
        }
      ],
      "payable": false,
      "stateMutability": "view",
      "type": "function"
    },
    {
      "constant": true,
      "inputs": [],
      "name": "getKtyEthPrice",
      "outputs": [
        {
          "internalType": "uint256",
          "name": "",
          "type": "uint256"
        }
      ],
      "payable": false,
      "stateMutability": "view",
      "type": "function"
    },
    {
      "constant": true,
      "inputs": [],
      "name": "getEthKtyPrice",
      "outputs": [
        {
          "internalType": "uint256",
          "name": "",
          "type": "uint256"
        }
      ],
      "payable": false,
      "stateMutability": "view",
      "type": "function"
    },
    {
      "constant": true,
      "inputs": [],
      "name": "getDaiEthPrice",
      "outputs": [
        {
          "internalType": "uint256",
          "name": "",
          "type": "uint256"
        }
      ],
      "payable": false,
      "stateMutability": "view",
      "type": "function"
    },
    {
      "constant": true,
      "inputs": [],
      "name": "getEthDaiPrice",
      "outputs": [
        {
          "internalType": "uint256",
          "name": "",
          "type": "uint256"
        }
      ],
      "payable": false,
      "stateMutability": "view",
      "type": "function"
    },
    {
      "constant": true,
      "inputs": [
        {
          "internalType": "uint256",
          "name": "_ethAmount",
          "type": "uint256"
        }
      ],
      "name": "convertEthToDai",
      "outputs": [
        {
          "internalType": "uint256",
          "name": "",
          "type": "uint256"
        }
      ],
      "payable": false,
      "stateMutability": "view",
      "type": "function"
    },
    {
      "constant": true,
      "inputs": [
        {
          "internalType": "uint256",
          "name": "_daiAmount",
          "type": "uint256"
        }
      ],
      "name": "convertDaiToEth",
      "outputs": [
        {
          "internalType": "uint256",
          "name": "",
          "type": "uint256"
        }
      ],
      "payable": false,
      "stateMutability": "view",
      "type": "function"
    },
    {
      "constant": true,
      "inputs": [
        {
          "internalType": "uint256",
          "name": "_ktyAmount",
          "type": "uint256"
        }
      ],
      "name": "convertKtyToEth",
      "outputs": [
        {
          "internalType": "uint256",
          "name": "",
          "type": "uint256"
        }
      ],
      "payable": false,
      "stateMutability": "view",
      "type": "function"
    },
    {
      "constant": true,
      "inputs": [
        {
          "internalType": "uint256",
          "name": "_ethAmount",
          "type": "uint256"
        }
      ],
      "name": "convertEthToKty",
      "outputs": [
        {
          "internalType": "uint256",
          "name": "",
          "type": "uint256"
        }
      ],
      "payable": false,
      "stateMutability": "view",
      "type": "function"
    },
    {
      "constant": true,
      "inputs": [],
      "name": "getRequiredNumberMatches",
      "outputs": [
        {
          "internalType": "uint256",
          "name": "",
          "type": "uint256"
        }
      ],
      "payable": false,
      "stateMutability": "view",
      "type": "function"
    },
    {
      "constant": true,
      "inputs": [],
      "name": "getGamePrestart",
      "outputs": [
        {
          "internalType": "uint256",
          "name": "",
          "type": "uint256"
        }
      ],
      "payable": false,
      "stateMutability": "view",
      "type": "function"
    },
    {
      "constant": true,
      "inputs": [],
      "name": "getGameDuration",
      "outputs": [
        {
          "internalType": "uint256",
          "name": "",
          "type": "uint256"
        }
      ],
      "payable": false,
      "stateMutability": "view",
      "type": "function"
    },
    {
      "constant": true,
      "inputs": [],
      "name": "getKittieExpiry",
      "outputs": [
        {
          "internalType": "uint256",
          "name": "",
          "type": "uint256"
        }
      ],
      "payable": false,
      "stateMutability": "view",
      "type": "function"
    },
    {
      "constant": true,
      "inputs": [],
      "name": "getHoneypotExpiration",
      "outputs": [
        {
          "internalType": "uint256",
          "name": "",
          "type": "uint256"
        }
      ],
      "payable": false,
      "stateMutability": "view",
      "type": "function"
    },
    {
      "constant": true,
      "inputs": [],
      "name": "getPercentageHoneypotAllocationKTY",
      "outputs": [
        {
          "internalType": "uint256",
          "name": "",
          "type": "uint256"
        }
      ],
      "payable": false,
      "stateMutability": "view",
      "type": "function"
    },
    {
      "constant": true,
      "inputs": [],
      "name": "getEthPerGame",
      "outputs": [
        {
          "internalType": "uint256",
          "name": "",
          "type": "uint256"
        }
      ],
      "payable": false,
      "stateMutability": "view",
      "type": "function"
    },
    {
      "constant": true,
      "inputs": [],
      "name": "getGameTimes",
      "outputs": [
        {
          "internalType": "uint256",
          "name": "",
          "type": "uint256"
        }
      ],
      "payable": false,
      "stateMutability": "view",
      "type": "function"
    },
    {
      "constant": true,
      "inputs": [],
      "name": "getDistributionRates",
      "outputs": [
        {
          "internalType": "uint256[5]",
          "name": "rates",
          "type": "uint256[5]"
        }
      ],
      "payable": false,
      "stateMutability": "view",
      "type": "function"
    },
    {
      "constant": true,
      "inputs": [],
      "name": "getPercentageForPool",
      "outputs": [
        {
          "internalType": "uint256",
          "name": "",
          "type": "uint256"
        }
      ],
      "payable": false,
      "stateMutability": "view",
      "type": "function"
    },
    {
      "constant": true,
      "inputs": [],
      "name": "getPercentageForListingFee",
      "outputs": [
        {
          "internalType": "uint256",
          "name": "",
          "type": "uint256"
        }
      ],
      "payable": false,
      "stateMutability": "view",
      "type": "function"
    },
    {
      "constant": true,
      "inputs": [],
      "name": "getPercentageForTicketFee",
      "outputs": [
        {
          "internalType": "uint256",
          "name": "",
          "type": "uint256"
        }
      ],
      "payable": false,
      "stateMutability": "view",
      "type": "function"
    },
    {
      "constant": true,
      "inputs": [],
      "name": "getPercentageForBettingFee",
      "outputs": [
        {
          "internalType": "uint256",
          "name": "",
          "type": "uint256"
        }
      ],
      "payable": false,
      "stateMutability": "view",
      "type": "function"
    },
    {
      "constant": true,
      "inputs": [],
      "name": "getPercentageForKittieRedemptionFee",
      "outputs": [
        {
          "internalType": "uint256",
          "name": "",
          "type": "uint256"
        }
      ],
      "payable": false,
      "stateMutability": "view",
      "type": "function"
    },
    {
      "constant": true,
      "inputs": [],
      "name": "getUsdKTYPrice",
      "outputs": [
        {
          "internalType": "uint256",
          "name": "",
          "type": "uint256"
        }
      ],
      "payable": false,
      "stateMutability": "view",
      "type": "function"
    },
    {
      "constant": true,
      "inputs": [],
      "name": "getListingFee",
      "outputs": [
        {
          "internalType": "uint256",
          "name": "",
          "type": "uint256"
        },
        {
          "internalType": "uint256",
          "name": "",
          "type": "uint256"
        }
      ],
      "payable": false,
      "stateMutability": "view",
      "type": "function"
    },
    {
      "constant": true,
      "inputs": [],
      "name": "getMinimumContributors",
      "outputs": [
        {
          "internalType": "uint256",
          "name": "",
          "type": "uint256"
        }
      ],
      "payable": false,
      "stateMutability": "view",
      "type": "function"
    },
    {
      "constant": true,
      "inputs": [],
      "name": "getFinalizeRewards",
      "outputs": [
        {
          "internalType": "uint256",
          "name": "",
          "type": "uint256"
        },
        {
          "internalType": "uint256",
          "name": "",
          "type": "uint256"
        }
      ],
      "payable": false,
      "stateMutability": "view",
      "type": "function"
    },
    {
      "constant": true,
      "inputs": [],
      "name": "getPerformanceTimeCheck",
      "outputs": [
        {
          "internalType": "uint256",
          "name": "",
          "type": "uint256"
        }
      ],
      "payable": false,
      "stateMutability": "view",
      "type": "function"
    },
    {
      "constant": true,
      "inputs": [],
      "name": "getTimeExtension",
      "outputs": [
        {
          "internalType": "uint256",
          "name": "",
          "type": "uint256"
        }
      ],
      "payable": false,
      "stateMutability": "view",
      "type": "function"
    },
    {
      "constant": true,
      "inputs": [],
      "name": "getRequiredKittieSacrificeNum",
      "outputs": [
        {
          "internalType": "uint256",
          "name": "",
          "type": "uint256"
        }
      ],
      "payable": false,
      "stateMutability": "view",
      "type": "function"
    },
    {
      "constant": true,
      "inputs": [],
      "name": "getPercentageforBurnEthie",
      "outputs": [
        {
          "internalType": "uint256",
          "name": "",
          "type": "uint256"
        }
      ],
      "payable": false,
      "stateMutability": "view",
      "type": "function"
    },
    {
      "constant": true,
      "inputs": [],
      "name": "getInterestEthie",
      "outputs": [
        {
          "internalType": "uint256",
          "name": "",
          "type": "uint256"
        }
      ],
      "payable": false,
      "stateMutability": "view",
      "type": "function"
    }
  ],
  "bytecode": "0x60806040523480156200001157600080fd5b506040516200643938038062006439833981810160405260408110156200003757600080fd5b810190808051906020019092919080519060200190929190505050336000806101000a81548173ffffffffffffffffffffffffffffffffffffffff021916908373ffffffffffffffffffffffffffffffffffffffff160217905550620000a382620000bc60201b60201c565b620000b4816200015760201b60201c565b5050620001f2565b6000809054906101000a900473ffffffffffffffffffffffffffffffffffffffff1673ffffffffffffffffffffffffffffffffffffffff163373ffffffffffffffffffffffffffffffffffffffff16146200011357fe5b80600260006101000a81548173ffffffffffffffffffffffffffffffffffffffff021916908373ffffffffffffffffffffffffffffffffffffffff16021790555050565b6000809054906101000a900473ffffffffffffffffffffffffffffffffffffffff1673ffffffffffffffffffffffffffffffffffffffff163373ffffffffffffffffffffffffffffffffffffffff1614620001ae57fe5b80600360006101000a81548173ffffffffffffffffffffffffffffffffffffffff021916908373ffffffffffffffffffffffffffffffffffffffff16021790555050565b61623780620002026000396000f3fe608060405234801561001057600080fd5b506004361061025e5760003560e01c80639840060f11610146578063b8fe6abe116100c3578063ec55688911610087578063ec55688914610953578063f0e52c421461099d578063f2fde38b146109bb578063f45d8e08146109ff578063fa16b2bd14610a1d578063ff22723a14610a5f5761025e565b8063b8fe6abe14610889578063c09ab510146108ae578063c09d32af146108cc578063d693a989146108ea578063e7baf8dd1461090f5761025e565b8063aa7ed99b1161010a578063aa7ed99b146107f3578063adeaa04414610811578063ae1d48a81461082f578063ae74de4f1461084d578063b0513c761461086b5761025e565b80639840060f146107395780639c04b9cd14610757578063a0a8045e14610775578063a2209a1414610793578063a38bcf20146107d55761025e565b80633e4c883f116101df57806378e9ae60116101a357806378e9ae60146105ce5780637a10546d146105ec5780637ba7c3e81461060a5780638da5cb5b1461068d57806394ec12fd146106d757806397107d6d146106f55761025e565b80633e4c883f1461043a5780634734571c146104805780634afab8151461049e57806368afa541146104e25780636baca86a146105005761025e565b80632c8558a8116102265780632c8558a8146103785780632e3c59711461039657806333140e27146103b457806333dbee17146103d25780633564e78c146103f05761025e565b8063115807231461026357806311eec7cd146102815780631697e4b6146102c35780631b3f4cfc146102e1578063271bf40f1461035a575b600080fd5b61026b610aa1565b6040518082815260200191505060405180910390f35b6102ad6004803603602081101561029757600080fd5b8101908080359060200190929190505050610cc6565b6040518082815260200191505060405180910390f35b6102cb610d03565b6040518082815260200191505060405180910390f35b610358600480360360208110156102f757600080fd5b810190808035906020019064010000000081111561031457600080fd5b82018360208201111561032657600080fd5b8035906020019184600183028401116401000000008311171561034857600080fd5b9091929391929390505050610f28565b005b610362611380565b6040518082815260200191505060405180910390f35b6103806115a5565b6040518082815260200191505060405180910390f35b61039e6117ca565b6040518082815260200191505060405180910390f35b6103bc6119ef565b6040518082815260200191505060405180910390f35b6103da611bbe565b6040518082815260200191505060405180910390f35b6103f8611de3565b604051808273ffffffffffffffffffffffffffffffffffffffff1673ffffffffffffffffffffffffffffffffffffffff16815260200191505060405180910390f35b610442611e09565b6040518082600560200280838360005b8381101561046d578082015181840152602081019050610452565b5050505090500191505060405180910390f35b610488612918565b6040518082815260200191505060405180910390f35b6104e0600480360360208110156104b457600080fd5b81019080803573ffffffffffffffffffffffffffffffffffffffff169060200190929190505050612ae7565b005b6104ea612b81565b6040518082815260200191505060405180910390f35b6105cc6004803603604081101561051657600080fd5b810190808035906020019064010000000081111561053357600080fd5b82018360208201111561054557600080fd5b8035906020019184602083028401116401000000008311171561056757600080fd5b90919293919293908035906020019064010000000081111561058857600080fd5b82018360208201111561059a57600080fd5b803590602001918460208302840111640100000000831117156105bc57600080fd5b9091929391929390505050612da6565b005b6105d661312e565b6040518082815260200191505060405180910390f35b6105f4613353565b6040518082815260200191505060405180910390f35b61068b6004803603604081101561062057600080fd5b810190808035906020019064010000000081111561063d57600080fd5b82018360208201111561064f57600080fd5b8035906020019184600183028401116401000000008311171561067157600080fd5b909192939192939080359060200190929190505050613578565b005b610695613860565b604051808273ffffffffffffffffffffffffffffffffffffffff1673ffffffffffffffffffffffffffffffffffffffff16815260200191505060405180910390f35b6106df613885565b6040518082815260200191505060405180910390f35b6107376004803603602081101561070b57600080fd5b81019080803573ffffffffffffffffffffffffffffffffffffffff169060200190929190505050613aaa565b005b610741613b44565b6040518082815260200191505060405180910390f35b61075f613d69565b6040518082815260200191505060405180910390f35b61077d613f8e565b6040518082815260200191505060405180910390f35b6107bf600480360360208110156107a957600080fd5b8101908080359060200190929190505050613f9f565b6040518082815260200191505060405180910390f35b6107dd613fdc565b6040518082815260200191505060405180910390f35b6107fb614201565b6040518082815260200191505060405180910390f35b610819614426565b6040518082815260200191505060405180910390f35b61083761464b565b6040518082815260200191505060405180910390f35b610855614870565b6040518082815260200191505060405180910390f35b610873614a3f565b6040518082815260200191505060405180910390f35b610891614c0e565b604051808381526020018281526020019250505060405180910390f35b6108b6614e5a565b6040518082815260200191505060405180910390f35b6108d461507f565b6040518082815260200191505060405180910390f35b6108f26152a4565b604051808381526020018281526020019250505060405180910390f35b6109516004803603602081101561092557600080fd5b81019080803573ffffffffffffffffffffffffffffffffffffffff1690602001909291905050506154f0565b005b61095b61558a565b604051808273ffffffffffffffffffffffffffffffffffffffff1673ffffffffffffffffffffffffffffffffffffffff16815260200191505060405180910390f35b6109a56155b0565b6040518082815260200191505060405180910390f35b6109fd600480360360208110156109d157600080fd5b81019080803573ffffffffffffffffffffffffffffffffffffffff1690602001909291905050506157d5565b005b610a076158a3565b6040518082815260200191505060405180910390f35b610a4960048036036020811015610a3357600080fd5b8101908080359060200190929190505050615ac8565b6040518082815260200191505060405180910390f35b610a8b60048036036020811015610a7557600080fd5b8101908080359060200190929190505050615b05565b6040518082815260200191505060405180910390f35b6000600260009054906101000a900473ffffffffffffffffffffffffffffffffffffffff1673ffffffffffffffffffffffffffffffffffffffff166308acb5566040518060400160405280600d81526020017f47616d65566172416e64466565000000000000000000000000000000000000008152506040518060400160405280601281526020017f47616d65566172416e644665655461626c6500000000000000000000000000008152506040516020018082805190602001908083835b60208310610b835780518252602082019150602081019050602083039250610b60565b6001836020036101000a038019825116818451168082178552505050505050905001807f70657263656e74616765466f724c697374696e67466565000000000000000000815250601701915050604051602081830303815290604052805190602001206040518363ffffffff1660e01b81526004018080602001838152602001828103825284818151815260200191508051906020019080838360005b83811015610c3b578082015181840152602081019050610c20565b50505050905090810190601f168015610c685780820380516001836020036101000a031916815260200191505b50935050505060206040518083038186803b158015610c8657600080fd5b505afa158015610c9a573d6000803e3d6000fd5b505050506040513d6020811015610cb057600080fd5b8101908080519060200190929190505050905090565b6000610cfc670de0b6b3a7640000610cee610cdf614870565b85615b4290919063ffffffff16565b615b7990919063ffffffff16565b9050919050565b6000600260009054906101000a900473ffffffffffffffffffffffffffffffffffffffff1673ffffffffffffffffffffffffffffffffffffffff166308acb5566040518060400160405280600d81526020017f47616d65566172416e64466565000000000000000000000000000000000000008152506040518060400160405280601281526020017f47616d65566172416e644665655461626c6500000000000000000000000000008152506040516020018082805190602001908083835b60208310610de55780518252602082019150602081019050602083039250610dc2565b6001836020036101000a038019825116818451168082178552505050505050905001807f706572666f726d616e636554696d650000000000000000000000000000000000815250600f01915050604051602081830303815290604052805190602001206040518363ffffffff1660e01b81526004018080602001838152602001828103825284818151815260200191508051906020019080838360005b83811015610e9d578082015181840152602081019050610e82565b50505050905090810190601f168015610eca5780820380516001836020036101000a031916815260200191505b50935050505060206040518083038186803b158015610ee857600080fd5b505afa158015610efc573d6000803e3d6000fd5b505050506040513d6020811015610f1257600080fd5b8101908080519060200190929190505050905090565b610f30615b92565b600073ffffffffffffffffffffffffffffffffffffffff163373ffffffffffffffffffffffffffffffffffffffff161415610f6757fe5b610fa56040518060400160405280600b81526020017f73757065725f61646d696e000000000000000000000000000000000000000000815250615d1c565b611017576040517f08c379a00000000000000000000000000000000000000000000000000000000081526004018080602001828103825260108152602001807f4f6e6c792073757065722061646d696e0000000000000000000000000000000081525060200191505060405180910390fd5b60006040518060400160405280601281526020017f47616d65566172416e644665655461626c65000000000000000000000000000081525083836040516020018084805190602001908083835b602083106110875780518252602082019150602081019050602083039250611064565b6001836020036101000a0380198251168184511680821785525050505050509050018383808284378083019250505093505050506040516020818303038152906040528051906020012090506000600260009054906101000a900473ffffffffffffffffffffffffffffffffffffffff1673ffffffffffffffffffffffffffffffffffffffff166308acb5566040518060400160405280600d81526020017f47616d65566172416e6446656500000000000000000000000000000000000000815250846040518363ffffffff1660e01b81526004018080602001838152602001828103825284818151815260200191508051906020019080838360005b8381101561119f578082015181840152602081019050611184565b50505050905090810190601f1680156111cc5780820380516001836020036101000a031916815260200191505b50935050505060206040518083038186803b1580156111ea57600080fd5b505afa1580156111fe573d6000803e3d6000fd5b505050506040513d602081101561121457600080fd5b81019080805190602001909291905050509050600061123282610cc6565b9050600061123f82615b05565b9050600260009054906101000a900473ffffffffffffffffffffffffffffffffffffffff1673ffffffffffffffffffffffffffffffffffffffff16630214a37c6040518060400160405280600d81526020017f47616d65566172416e644665650000000000000000000000000000000000000081525086846040518463ffffffff1660e01b81526004018080602001848152602001838152602001828103825285818151815260200191508051906020019080838360005b838110156113125780820151818401526020810190506112f7565b50505050905090810190601f16801561133f5780820380516001836020036101000a031916815260200191505b50945050505050600060405180830381600087803b15801561136057600080fd5b505af1158015611374573d6000803e3d6000fd5b50505050505050505050565b6000600260009054906101000a900473ffffffffffffffffffffffffffffffffffffffff1673ffffffffffffffffffffffffffffffffffffffff166308acb5566040518060400160405280600d81526020017f47616d65566172416e64466565000000000000000000000000000000000000008152506040518060400160405280601281526020017f47616d65566172416e644665655461626c6500000000000000000000000000008152506040516020018082805190602001908083835b60208310611462578051825260208201915060208101905060208303925061143f565b6001836020036101000a038019825116818451168082178552505050505050905001807f7573644b54595072696365000000000000000000000000000000000000000000815250600b01915050604051602081830303815290604052805190602001206040518363ffffffff1660e01b81526004018080602001838152602001828103825284818151815260200191508051906020019080838360005b8381101561151a5780820151818401526020810190506114ff565b50505050905090810190601f1680156115475780820380516001836020036101000a031916815260200191505b50935050505060206040518083038186803b15801561156557600080fd5b505afa158015611579573d6000803e3d6000fd5b505050506040513d602081101561158f57600080fd5b8101908080519060200190929190505050905090565b6000600260009054906101000a900473ffffffffffffffffffffffffffffffffffffffff1673ffffffffffffffffffffffffffffffffffffffff166308acb5566040518060400160405280600d81526020017f47616d65566172416e64466565000000000000000000000000000000000000008152506040518060400160405280601281526020017f47616d65566172416e644665655461626c6500000000000000000000000000008152506040516020018082805190602001908083835b602083106116875780518252602082019150602081019050602083039250611664565b6001836020036101000a038019825116818451168082178552505050505050905001807f72657175697265644e756d6265724d6174636865730000000000000000000000815250601501915050604051602081830303815290604052805190602001206040518363ffffffff1660e01b81526004018080602001838152602001828103825284818151815260200191508051906020019080838360005b8381101561173f578082015181840152602081019050611724565b50505050905090810190601f16801561176c5780820380516001836020036101000a031916815260200191505b50935050505060206040518083038186803b15801561178a57600080fd5b505afa15801561179e573d6000803e3d6000fd5b505050506040513d60208110156117b457600080fd5b8101908080519060200190929190505050905090565b6000600260009054906101000a900473ffffffffffffffffffffffffffffffffffffffff1673ffffffffffffffffffffffffffffffffffffffff166308acb5566040518060400160405280600d81526020017f47616d65566172416e64466565000000000000000000000000000000000000008152506040518060400160405280601281526020017f47616d65566172416e644665655461626c6500000000000000000000000000008152506040516020018082805190602001908083835b602083106118ac5780518252602082019150602081019050602083039250611889565b6001836020036101000a038019825116818451168082178552505050505050905001807f72657175697265644b69747469655361637269666963654e756d000000000000815250601a01915050604051602081830303815290604052805190602001206040518363ffffffff1660e01b81526004018080602001838152602001828103825284818151815260200191508051906020019080838360005b83811015611964578082015181840152602081019050611949565b50505050905090810190601f1680156119915780820380516001836020036101000a031916815260200191505b50935050505060206040518083038186803b1580156119af57600080fd5b505afa1580156119c3573d6000803e3d6000fd5b505050506040513d60208110156119d957600080fd5b8101908080519060200190929190505050905090565b6000600160009054906101000a900473ffffffffffffffffffffffffffffffffffffffff1673ffffffffffffffffffffffffffffffffffffffff1663358177736040518060400160405280600a81526020017f4b7479556e6973776170000000000000000000000000000000000000000000008152506040518263ffffffff1660e01b81526004018080602001828103825283818151815260200191508051906020019080838360005b83811015611ab4578082015181840152602081019050611a99565b50505050905090810190601f168015611ae15780820380516001836020036101000a031916815260200191505b509250505060206040518083038186803b158015611afe57600080fd5b505afa158015611b12573d6000803e3d6000fd5b505050506040513d6020811015611b2857600080fd5b810190808051906020019092919050505073ffffffffffffffffffffffffffffffffffffffff16632377cc9c6040518163ffffffff1660e01b815260040160206040518083038186803b158015611b7e57600080fd5b505afa158015611b92573d6000803e3d6000fd5b505050506040513d6020811015611ba857600080fd5b8101908080519060200190929190505050905090565b6000600260009054906101000a900473ffffffffffffffffffffffffffffffffffffffff1673ffffffffffffffffffffffffffffffffffffffff166308acb5566040518060400160405280600d81526020017f47616d65566172416e64466565000000000000000000000000000000000000008152506040518060400160405280601281526020017f47616d65566172416e644665655461626c6500000000000000000000000000008152506040516020018082805190602001908083835b60208310611ca05780518252602082019150602081019050602083039250611c7d565b6001836020036101000a038019825116818451168082178552505050505050905001807f686f6e6579706f7445787069726174696f6e0000000000000000000000000000815250601201915050604051602081830303815290604052805190602001206040518363ffffffff1660e01b81526004018080602001838152602001828103825284818151815260200191508051906020019080838360005b83811015611d58578082015181840152602081019050611d3d565b50505050905090810190601f168015611d855780820380516001836020036101000a031916815260200191505b50935050505060206040518083038186803b158015611da357600080fd5b505afa158015611db7573d6000803e3d6000fd5b505050506040513d6020811015611dcd57600080fd5b8101908080519060200190929190505050905090565b600260009054906101000a900473ffffffffffffffffffffffffffffffffffffffff1681565b611e116161e0565b600260009054906101000a900473ffffffffffffffffffffffffffffffffffffffff1673ffffffffffffffffffffffffffffffffffffffff166308acb5566040518060400160405280600d81526020017f47616d65566172416e64466565000000000000000000000000000000000000008152506040518060400160405280601281526020017f47616d65566172416e644665655461626c6500000000000000000000000000008152506040516020018082805190602001908083835b60208310611ef15780518252602082019150602081019050602083039250611ece565b6001836020036101000a038019825116818451168082178552505050505050905001807f77696e6e696e674b697474696500000000000000000000000000000000000000815250600d01915050604051602081830303815290604052805190602001206040518363ffffffff1660e01b81526004018080602001838152602001828103825284818151815260200191508051906020019080838360005b83811015611fa9578082015181840152602081019050611f8e565b50505050905090810190601f168015611fd65780820380516001836020036101000a031916815260200191505b50935050505060206040518083038186803b158015611ff457600080fd5b505afa158015612008573d6000803e3d6000fd5b505050506040513d602081101561201e57600080fd5b81019080805190602001909291905050508160006005811061203c57fe5b602002018181525050600260009054906101000a900473ffffffffffffffffffffffffffffffffffffffff1673ffffffffffffffffffffffffffffffffffffffff166308acb5566040518060400160405280600d81526020017f47616d65566172416e64466565000000000000000000000000000000000000008152506040518060400160405280601281526020017f47616d65566172416e644665655461626c6500000000000000000000000000008152506040516020018082805190602001908083835b602083106121255780518252602082019150602081019050602083039250612102565b6001836020036101000a038019825116818451168082178552505050505050905001807f746f70426574746f720000000000000000000000000000000000000000000000815250600901915050604051602081830303815290604052805190602001206040518363ffffffff1660e01b81526004018080602001838152602001828103825284818151815260200191508051906020019080838360005b838110156121dd5780820151818401526020810190506121c2565b50505050905090810190601f16801561220a5780820380516001836020036101000a031916815260200191505b50935050505060206040518083038186803b15801561222857600080fd5b505afa15801561223c573d6000803e3d6000fd5b505050506040513d602081101561225257600080fd5b81019080805190602001909291905050508160016005811061227057fe5b602002018181525050600260009054906101000a900473ffffffffffffffffffffffffffffffffffffffff1673ffffffffffffffffffffffffffffffffffffffff166308acb5566040518060400160405280600d81526020017f47616d65566172416e64466565000000000000000000000000000000000000008152506040518060400160405280601281526020017f47616d65566172416e644665655461626c6500000000000000000000000000008152506040516020018082805190602001908083835b602083106123595780518252602082019150602081019050602083039250612336565b6001836020036101000a038019825116818451168082178552505050505050905001807f7365636f6e6452756e6e65725570000000000000000000000000000000000000815250600e01915050604051602081830303815290604052805190602001206040518363ffffffff1660e01b81526004018080602001838152602001828103825284818151815260200191508051906020019080838360005b838110156124115780820151818401526020810190506123f6565b50505050905090810190601f16801561243e5780820380516001836020036101000a031916815260200191505b50935050505060206040518083038186803b15801561245c57600080fd5b505afa158015612470573d6000803e3d6000fd5b505050506040513d602081101561248657600080fd5b8101908080519060200190929190505050816002600581106124a457fe5b602002018181525050600260009054906101000a900473ffffffffffffffffffffffffffffffffffffffff1673ffffffffffffffffffffffffffffffffffffffff166308acb5566040518060400160405280600d81526020017f47616d65566172416e64466565000000000000000000000000000000000000008152506040518060400160405280601281526020017f47616d65566172416e644665655461626c6500000000000000000000000000008152506040516020018082805190602001908083835b6020831061258d578051825260208201915060208101905060208303925061256a565b6001836020036101000a038019825116818451168082178552505050505050905001807f6f74686572426574746f72730000000000000000000000000000000000000000815250600c01915050604051602081830303815290604052805190602001206040518363ffffffff1660e01b81526004018080602001838152602001828103825284818151815260200191508051906020019080838360005b8381101561264557808201518184015260208101905061262a565b50505050905090810190601f1680156126725780820380516001836020036101000a031916815260200191505b50935050505060206040518083038186803b15801561269057600080fd5b505afa1580156126a4573d6000803e3d6000fd5b505050506040513d60208110156126ba57600080fd5b8101908080519060200190929190505050816003600581106126d857fe5b602002018181525050600260009054906101000a900473ffffffffffffffffffffffffffffffffffffffff1673ffffffffffffffffffffffffffffffffffffffff166308acb5566040518060400160405280600d81526020017f47616d65566172416e64466565000000000000000000000000000000000000008152506040518060400160405280601281526020017f47616d65566172416e644665655461626c6500000000000000000000000000008152506040516020018082805190602001908083835b602083106127c1578051825260208201915060208101905060208303925061279e565b6001836020036101000a038019825116818451168082178552505050505050905001807f656e646f776e6d656e7400000000000000000000000000000000000000000000815250600a01915050604051602081830303815290604052805190602001206040518363ffffffff1660e01b81526004018080602001838152602001828103825284818151815260200191508051906020019080838360005b8381101561287957808201518184015260208101905061285e565b50505050905090810190601f1680156128a65780820380516001836020036101000a031916815260200191505b50935050505060206040518083038186803b1580156128c457600080fd5b505afa1580156128d8573d6000803e3d6000fd5b505050506040513d60208110156128ee57600080fd5b81019080805190602001909291905050508160046005811061290c57fe5b60200201818152505090565b6000600160009054906101000a900473ffffffffffffffffffffffffffffffffffffffff1673ffffffffffffffffffffffffffffffffffffffff1663358177736040518060400160405280600a81526020017f4b7479556e6973776170000000000000000000000000000000000000000000008152506040518263ffffffff1660e01b81526004018080602001828103825283818151815260200191508051906020019080838360005b838110156129dd5780820151818401526020810190506129c2565b50505050905090810190601f168015612a0a5780820380516001836020036101000a031916815260200191505b509250505060206040518083038186803b158015612a2757600080fd5b505afa158015612a3b573d6000803e3d6000fd5b505050506040513d6020811015612a5157600080fd5b810190808051906020019092919050505073ffffffffffffffffffffffffffffffffffffffff1663fed1d17f6040518163ffffffff1660e01b815260040160206040518083038186803b158015612aa757600080fd5b505afa158015612abb573d6000803e3d6000fd5b505050506040513d6020811015612ad157600080fd5b8101908080519060200190929190505050905090565b6000809054906101000a900473ffffffffffffffffffffffffffffffffffffffff1673ffffffffffffffffffffffffffffffffffffffff163373ffffffffffffffffffffffffffffffffffffffff1614612b3d57fe5b80600260006101000a81548173ffffffffffffffffffffffffffffffffffffffff021916908373ffffffffffffffffffffffffffffffffffffffff16021790555050565b6000600260009054906101000a900473ffffffffffffffffffffffffffffffffffffffff1673ffffffffffffffffffffffffffffffffffffffff166308acb5566040518060400160405280600d81526020017f47616d65566172416e64466565000000000000000000000000000000000000008152506040518060400160405280601281526020017f47616d65566172416e644665655461626c6500000000000000000000000000008152506040516020018082805190602001908083835b60208310612c635780518252602082019150602081019050602083039250612c40565b6001836020036101000a038019825116818451168082178552505050505050905001807f6d696e696d756d436f6e7472696275746f727300000000000000000000000000815250601301915050604051602081830303815290604052805190602001206040518363ffffffff1660e01b81526004018080602001838152602001828103825284818151815260200191508051906020019080838360005b83811015612d1b578082015181840152602081019050612d00565b50505050905090810190601f168015612d485780820380516001836020036101000a031916815260200191505b50935050505060206040518083038186803b158015612d6657600080fd5b505afa158015612d7a573d6000803e3d6000fd5b505050506040513d6020811015612d9057600080fd5b8101908080519060200190929190505050905090565b612dae615b92565b600073ffffffffffffffffffffffffffffffffffffffff163373ffffffffffffffffffffffffffffffffffffffff161415612de557fe5b612e236040518060400160405280600b81526020017f73757065725f61646d696e000000000000000000000000000000000000000000815250615d1c565b612e95576040517f08c379a00000000000000000000000000000000000000000000000000000000081526004018080602001828103825260108152602001807f4f6e6c792073757065722061646d696e0000000000000000000000000000000081525060200191505060405180910390fd5b818190508484905014612ea757600080fd5b600080600090505b85859050811015613126576040518060400160405280601281526020017f47616d65566172416e644665655461626c650000000000000000000000000000815250612f0b878784818110612eff57fe5b90506020020135615f98565b6040516020018083805190602001908083835b60208310612f415780518252602082019150602081019050602083039250612f1e565b6001836020036101000a03801982511681845116808217855250505050505090500182805190602001908083835b60208310612f925780518252602082019150602081019050602083039250612f6f565b6001836020036101000a03801982511681845116808217855250505050505090500192505050604051602081830303815290604052805190602001209150600260009054906101000a900473ffffffffffffffffffffffffffffffffffffffff1673ffffffffffffffffffffffffffffffffffffffff16630214a37c6040518060400160405280600d81526020017f47616d65566172416e64466565000000000000000000000000000000000000008152508487878681811061305157fe5b905060200201356040518463ffffffff1660e01b81526004018080602001848152602001838152602001828103825285818151815260200191508051906020019080838360005b838110156130b3578082015181840152602081019050613098565b50505050905090810190601f1680156130e05780820380516001836020036101000a031916815260200191505b50945050505050600060405180830381600087803b15801561310157600080fd5b505af1158015613115573d6000803e3d6000fd5b505050508080600101915050612eaf565b505050505050565b6000600260009054906101000a900473ffffffffffffffffffffffffffffffffffffffff1673ffffffffffffffffffffffffffffffffffffffff166308acb5566040518060400160405280600d81526020017f47616d65566172416e64466565000000000000000000000000000000000000008152506040518060400160405280601281526020017f47616d65566172416e644665655461626c6500000000000000000000000000008152506040516020018082805190602001908083835b6020831061321057805182526020820191506020810190506020830392506131ed565b6001836020036101000a038019825116818451168082178552505050505050905001807f67616d654475726174696f6e0000000000000000000000000000000000000000815250600c01915050604051602081830303815290604052805190602001206040518363ffffffff1660e01b81526004018080602001838152602001828103825284818151815260200191508051906020019080838360005b838110156132c85780820151818401526020810190506132ad565b50505050905090810190601f1680156132f55780820380516001836020036101000a031916815260200191505b50935050505060206040518083038186803b15801561331357600080fd5b505afa158015613327573d6000803e3d6000fd5b505050506040513d602081101561333d57600080fd5b8101908080519060200190929190505050905090565b6000600260009054906101000a900473ffffffffffffffffffffffffffffffffffffffff1673ffffffffffffffffffffffffffffffffffffffff166308acb5566040518060400160405280600d81526020017f47616d65566172416e64466565000000000000000000000000000000000000008152506040518060400160405280601281526020017f47616d65566172416e644665655461626c6500000000000000000000000000008152506040516020018082805190602001908083835b602083106134355780518252602082019150602081019050602083039250613412565b6001836020036101000a038019825116818451168082178552505050505050905001807f70657263656e74616765466f724b6974746965526564656d7074696f6e466565815250602001915050604051602081830303815290604052805190602001206040518363ffffffff1660e01b81526004018080602001838152602001828103825284818151815260200191508051906020019080838360005b838110156134ed5780820151818401526020810190506134d2565b50505050905090810190601f16801561351a5780820380516001836020036101000a031916815260200191505b50935050505060206040518083038186803b15801561353857600080fd5b505afa15801561354c573d6000803e3d6000fd5b505050506040513d602081101561356257600080fd5b8101908080519060200190929190505050905090565b613580615b92565b600073ffffffffffffffffffffffffffffffffffffffff163373ffffffffffffffffffffffffffffffffffffffff1614156135b757fe5b6135f56040518060400160405280600b81526020017f73757065725f61646d696e000000000000000000000000000000000000000000815250615d1c565b613667576040517f08c379a00000000000000000000000000000000000000000000000000000000081526004018080602001828103825260108152602001807f4f6e6c792073757065722061646d696e0000000000000000000000000000000081525060200191505060405180910390fd5b60006040518060400160405280601281526020017f47616d65566172416e644665655461626c65000000000000000000000000000081525084846040516020018084805190602001908083835b602083106136d757805182526020820191506020810190506020830392506136b4565b6001836020036101000a038019825116818451168082178552505050505050905001838380828437808301925050509350505050604051602081830303815290604052805190602001209050600260009054906101000a900473ffffffffffffffffffffffffffffffffffffffff1673ffffffffffffffffffffffffffffffffffffffff16630214a37c6040518060400160405280600d81526020017f47616d65566172416e644665650000000000000000000000000000000000000081525083856040518463ffffffff1660e01b81526004018080602001848152602001838152602001828103825285818151815260200191508051906020019080838360005b838110156137f45780820151818401526020810190506137d9565b50505050905090810190601f1680156138215780820380516001836020036101000a031916815260200191505b50945050505050600060405180830381600087803b15801561384257600080fd5b505af1158015613856573d6000803e3d6000fd5b5050505050505050565b6000809054906101000a900473ffffffffffffffffffffffffffffffffffffffff1681565b6000600260009054906101000a900473ffffffffffffffffffffffffffffffffffffffff1673ffffffffffffffffffffffffffffffffffffffff166308acb5566040518060400160405280600d81526020017f47616d65566172416e64466565000000000000000000000000000000000000008152506040518060400160405280601281526020017f47616d65566172416e644665655461626c6500000000000000000000000000008152506040516020018082805190602001908083835b602083106139675780518252602082019150602081019050602083039250613944565b6001836020036101000a038019825116818451168082178552505050505050905001807f65746850657247616d6500000000000000000000000000000000000000000000815250600a01915050604051602081830303815290604052805190602001206040518363ffffffff1660e01b81526004018080602001838152602001828103825284818151815260200191508051906020019080838360005b83811015613a1f578082015181840152602081019050613a04565b50505050905090810190601f168015613a4c5780820380516001836020036101000a031916815260200191505b50935050505060206040518083038186803b158015613a6a57600080fd5b505afa158015613a7e573d6000803e3d6000fd5b505050506040513d6020811015613a9457600080fd5b8101908080519060200190929190505050905090565b6000809054906101000a900473ffffffffffffffffffffffffffffffffffffffff1673ffffffffffffffffffffffffffffffffffffffff163373ffffffffffffffffffffffffffffffffffffffff1614613b0057fe5b80600160006101000a81548173ffffffffffffffffffffffffffffffffffffffff021916908373ffffffffffffffffffffffffffffffffffffffff16021790555050565b6000600260009054906101000a900473ffffffffffffffffffffffffffffffffffffffff1673ffffffffffffffffffffffffffffffffffffffff166308acb5566040518060400160405280600d81526020017f47616d65566172416e64466565000000000000000000000000000000000000008152506040518060400160405280601281526020017f47616d65566172416e644665655461626c6500000000000000000000000000008152506040516020018082805190602001908083835b60208310613c265780518252602082019150602081019050602083039250613c03565b6001836020036101000a038019825116818451168082178552505050505050905001807f6b697474696548656c6c45787069726174696f6e000000000000000000000000815250601401915050604051602081830303815290604052805190602001206040518363ffffffff1660e01b81526004018080602001838152602001828103825284818151815260200191508051906020019080838360005b83811015613cde578082015181840152602081019050613cc3565b50505050905090810190601f168015613d0b5780820380516001836020036101000a031916815260200191505b50935050505060206040518083038186803b158015613d2957600080fd5b505afa158015613d3d573d6000803e3d6000fd5b505050506040513d6020811015613d5357600080fd5b8101908080519060200190929190505050905090565b6000600260009054906101000a900473ffffffffffffffffffffffffffffffffffffffff1673ffffffffffffffffffffffffffffffffffffffff166308acb5566040518060400160405280600d81526020017f47616d65566172416e64466565000000000000000000000000000000000000008152506040518060400160405280601281526020017f47616d65566172416e644665655461626c6500000000000000000000000000008152506040516020018082805190602001908083835b60208310613e4b5780518252602082019150602081019050602083039250613e28565b6001836020036101000a038019825116818451168082178552505050505050905001807f70657263656e74616765466f725469636b657446656500000000000000000000815250601601915050604051602081830303815290604052805190602001206040518363ffffffff1660e01b81526004018080602001838152602001828103825284818151815260200191508051906020019080838360005b83811015613f03578082015181840152602081019050613ee8565b50505050905090810190601f168015613f305780820380516001836020036101000a031916815260200191505b50935050505060206040518083038186803b158015613f4e57600080fd5b505afa158015613f62573d6000803e3d6000fd5b505050506040513d6020811015613f7857600080fd5b8101908080519060200190929190505050905090565b6000680b49bcb0036fa6c000905090565b6000613fd5670de0b6b3a7640000613fc7613fb8612918565b85615b4290919063ffffffff16565b615b7990919063ffffffff16565b9050919050565b6000600260009054906101000a900473ffffffffffffffffffffffffffffffffffffffff1673ffffffffffffffffffffffffffffffffffffffff166308acb5566040518060400160405280600d81526020017f47616d65566172416e64466565000000000000000000000000000000000000008152506040518060400160405280601281526020017f47616d65566172416e644665655461626c6500000000000000000000000000008152506040516020018082805190602001908083835b602083106140be578051825260208201915060208101905060208303925061409b565b6001836020036101000a038019825116818451168082178552505050505050905001807f67616d6554696d65730000000000000000000000000000000000000000000000815250600901915050604051602081830303815290604052805190602001206040518363ffffffff1660e01b81526004018080602001838152602001828103825284818151815260200191508051906020019080838360005b8381101561417657808201518184015260208101905061415b565b50505050905090810190601f1680156141a35780820380516001836020036101000a031916815260200191505b50935050505060206040518083038186803b1580156141c157600080fd5b505afa1580156141d5573d6000803e3d6000fd5b505050506040513d60208110156141eb57600080fd5b8101908080519060200190929190505050905090565b6000600260009054906101000a900473ffffffffffffffffffffffffffffffffffffffff1673ffffffffffffffffffffffffffffffffffffffff166308acb5566040518060400160405280600d81526020017f47616d65566172416e64466565000000000000000000000000000000000000008152506040518060400160405280601281526020017f47616d65566172416e644665655461626c6500000000000000000000000000008152506040516020018082805190602001908083835b602083106142e357805182526020820191506020810190506020830392506142c0565b6001836020036101000a038019825116818451168082178552505050505050905001807f70657263656e74616765466f72506f6f6c000000000000000000000000000000815250601101915050604051602081830303815290604052805190602001206040518363ffffffff1660e01b81526004018080602001838152602001828103825284818151815260200191508051906020019080838360005b8381101561439b578082015181840152602081019050614380565b50505050905090810190601f1680156143c85780820380516001836020036101000a031916815260200191505b50935050505060206040518083038186803b1580156143e657600080fd5b505afa1580156143fa573d6000803e3d6000fd5b505050506040513d602081101561441057600080fd5b8101908080519060200190929190505050905090565b6000600260009054906101000a900473ffffffffffffffffffffffffffffffffffffffff1673ffffffffffffffffffffffffffffffffffffffff166308acb5566040518060400160405280600d81526020017f47616d65566172416e64466565000000000000000000000000000000000000008152506040518060400160405280601281526020017f47616d65566172416e644665655461626c6500000000000000000000000000008152506040516020018082805190602001908083835b6020831061450857805182526020820191506020810190506020830392506144e5565b6001836020036101000a038019825116818451168082178552505050505050905001807f696e746572657374457468696500000000000000000000000000000000000000815250600d01915050604051602081830303815290604052805190602001206040518363ffffffff1660e01b81526004018080602001838152602001828103825284818151815260200191508051906020019080838360005b838110156145c05780820151818401526020810190506145a5565b50505050905090810190601f1680156145ed5780820380516001836020036101000a031916815260200191505b50935050505060206040518083038186803b15801561460b57600080fd5b505afa15801561461f573d6000803e3d6000fd5b505050506040513d602081101561463557600080fd5b8101908080519060200190929190505050905090565b6000600260009054906101000a900473ffffffffffffffffffffffffffffffffffffffff1673ffffffffffffffffffffffffffffffffffffffff166308acb5566040518060400160405280600d81526020017f47616d65566172416e64466565000000000000000000000000000000000000008152506040518060400160405280601281526020017f47616d65566172416e644665655461626c6500000000000000000000000000008152506040516020018082805190602001908083835b6020831061472d578051825260208201915060208101905060208303925061470a565b6001836020036101000a038019825116818451168082178552505050505050905001807f74696d65457874656e73696f6e00000000000000000000000000000000000000815250600d01915050604051602081830303815290604052805190602001206040518363ffffffff1660e01b81526004018080602001838152602001828103825284818151815260200191508051906020019080838360005b838110156147e55780820151818401526020810190506147ca565b50505050905090810190601f1680156148125780820380516001836020036101000a031916815260200191505b50935050505060206040518083038186803b15801561483057600080fd5b505afa158015614844573d6000803e3d6000fd5b505050506040513d602081101561485a57600080fd5b8101908080519060200190929190505050905090565b6000600160009054906101000a900473ffffffffffffffffffffffffffffffffffffffff1673ffffffffffffffffffffffffffffffffffffffff1663358177736040518060400160405280600a81526020017f4b7479556e6973776170000000000000000000000000000000000000000000008152506040518263ffffffff1660e01b81526004018080602001828103825283818151815260200191508051906020019080838360005b8381101561493557808201518184015260208101905061491a565b50505050905090810190601f1680156149625780820380516001836020036101000a031916815260200191505b509250505060206040518083038186803b15801561497f57600080fd5b505afa158015614993573d6000803e3d6000fd5b505050506040513d60208110156149a957600080fd5b810190808051906020019092919050505073ffffffffffffffffffffffffffffffffffffffff1663bca05cd86040518163ffffffff1660e01b815260040160206040518083038186803b1580156149ff57600080fd5b505afa158015614a13573d6000803e3d6000fd5b505050506040513d6020811015614a2957600080fd5b8101908080519060200190929190505050905090565b6000600160009054906101000a900473ffffffffffffffffffffffffffffffffffffffff1673ffffffffffffffffffffffffffffffffffffffff1663358177736040518060400160405280600a81526020017f4b7479556e6973776170000000000000000000000000000000000000000000008152506040518263ffffffff1660e01b81526004018080602001828103825283818151815260200191508051906020019080838360005b83811015614b04578082015181840152602081019050614ae9565b50505050905090810190601f168015614b315780820380516001836020036101000a031916815260200191505b509250505060206040518083038186803b158015614b4e57600080fd5b505afa158015614b62573d6000803e3d6000fd5b505050506040513d6020811015614b7857600080fd5b810190808051906020019092919050505073ffffffffffffffffffffffffffffffffffffffff1663481574496040518163ffffffff1660e01b815260040160206040518083038186803b158015614bce57600080fd5b505afa158015614be2573d6000803e3d6000fd5b505050506040513d6020811015614bf857600080fd5b8101908080519060200190929190505050905090565b6000806000600260009054906101000a900473ffffffffffffffffffffffffffffffffffffffff1673ffffffffffffffffffffffffffffffffffffffff166308acb5566040518060400160405280600d81526020017f47616d65566172416e64466565000000000000000000000000000000000000008152506040518060400160405280601281526020017f47616d65566172416e644665655461626c6500000000000000000000000000008152506040516020018082805190602001908083835b60208310614cf35780518252602082019150602081019050602083039250614cd0565b6001836020036101000a038019825116818451168082178552505050505050905001807f6c697374696e6746656500000000000000000000000000000000000000000000815250600a01915050604051602081830303815290604052805190602001206040518363ffffffff1660e01b81526004018080602001838152602001828103825284818151815260200191508051906020019080838360005b83811015614dab578082015181840152602081019050614d90565b50505050905090810190601f168015614dd85780820380516001836020036101000a031916815260200191505b50935050505060206040518083038186803b158015614df657600080fd5b505afa158015614e0a573d6000803e3d6000fd5b505050506040513d6020811015614e2057600080fd5b810190808051906020019092919050505090506000614e3e82613f9f565b90506000614e4b82615ac8565b90508281945094505050509091565b6000600260009054906101000a900473ffffffffffffffffffffffffffffffffffffffff1673ffffffffffffffffffffffffffffffffffffffff166308acb5566040518060400160405280600d81526020017f47616d65566172416e64466565000000000000000000000000000000000000008152506040518060400160405280601281526020017f47616d65566172416e644665655461626c6500000000000000000000000000008152506040516020018082805190602001908083835b60208310614f3c5780518252602082019150602081019050602083039250614f19565b6001836020036101000a038019825116818451168082178552505050505050905001807f67616d6550726573746172740000000000000000000000000000000000000000815250600c01915050604051602081830303815290604052805190602001206040518363ffffffff1660e01b81526004018080602001838152602001828103825284818151815260200191508051906020019080838360005b83811015614ff4578082015181840152602081019050614fd9565b50505050905090810190601f1680156150215780820380516001836020036101000a031916815260200191505b50935050505060206040518083038186803b15801561503f57600080fd5b505afa158015615053573d6000803e3d6000fd5b505050506040513d602081101561506957600080fd5b8101908080519060200190929190505050905090565b6000600260009054906101000a900473ffffffffffffffffffffffffffffffffffffffff1673ffffffffffffffffffffffffffffffffffffffff166308acb5566040518060400160405280600d81526020017f47616d65566172416e64466565000000000000000000000000000000000000008152506040518060400160405280601281526020017f47616d65566172416e644665655461626c6500000000000000000000000000008152506040516020018082805190602001908083835b60208310615161578051825260208201915060208101905060208303925061513e565b6001836020036101000a038019825116818451168082178552505050505050905001807f70657263656e74616765486f6e6579706f74416c6c6f636174696f6e4b545900815250601f01915050604051602081830303815290604052805190602001206040518363ffffffff1660e01b81526004018080602001838152602001828103825284818151815260200191508051906020019080838360005b838110156152195780820151818401526020810190506151fe565b50505050905090810190601f1680156152465780820380516001836020036101000a031916815260200191505b50935050505060206040518083038186803b15801561526457600080fd5b505afa158015615278573d6000803e3d6000fd5b505050506040513d602081101561528e57600080fd5b8101908080519060200190929190505050905090565b6000806000600260009054906101000a900473ffffffffffffffffffffffffffffffffffffffff1673ffffffffffffffffffffffffffffffffffffffff166308acb5566040518060400160405280600d81526020017f47616d65566172416e64466565000000000000000000000000000000000000008152506040518060400160405280601281526020017f47616d65566172416e644665655461626c6500000000000000000000000000008152506040516020018082805190602001908083835b602083106153895780518252602082019150602081019050602083039250615366565b6001836020036101000a038019825116818451168082178552505050505050905001807f66696e616c697a65526577617264730000000000000000000000000000000000815250600f01915050604051602081830303815290604052805190602001206040518363ffffffff1660e01b81526004018080602001838152602001828103825284818151815260200191508051906020019080838360005b83811015615441578082015181840152602081019050615426565b50505050905090810190601f16801561546e5780820380516001836020036101000a031916815260200191505b50935050505060206040518083038186803b15801561548c57600080fd5b505afa1580156154a0573d6000803e3d6000fd5b505050506040513d60208110156154b657600080fd5b8101908080519060200190929190505050905060006154d482613f9f565b905060006154e182615ac8565b90508281945094505050509091565b6000809054906101000a900473ffffffffffffffffffffffffffffffffffffffff1673ffffffffffffffffffffffffffffffffffffffff163373ffffffffffffffffffffffffffffffffffffffff161461554657fe5b80600360006101000a81548173ffffffffffffffffffffffffffffffffffffffff021916908373ffffffffffffffffffffffffffffffffffffffff16021790555050565b600160009054906101000a900473ffffffffffffffffffffffffffffffffffffffff1681565b6000600260009054906101000a900473ffffffffffffffffffffffffffffffffffffffff1673ffffffffffffffffffffffffffffffffffffffff166308acb5566040518060400160405280600d81526020017f47616d65566172416e64466565000000000000000000000000000000000000008152506040518060400160405280601281526020017f47616d65566172416e644665655461626c6500000000000000000000000000008152506040516020018082805190602001908083835b60208310615692578051825260208201915060208101905060208303925061566f565b6001836020036101000a038019825116818451168082178552505050505050905001807f70657263656e74616765466f7242657474696e67466565000000000000000000815250601701915050604051602081830303815290604052805190602001206040518363ffffffff1660e01b81526004018080602001838152602001828103825284818151815260200191508051906020019080838360005b8381101561574a57808201518184015260208101905061572f565b50505050905090810190601f1680156157775780820380516001836020036101000a031916815260200191505b50935050505060206040518083038186803b15801561579557600080fd5b505afa1580156157a9573d6000803e3d6000fd5b505050506040513d60208110156157bf57600080fd5b8101908080519060200190929190505050905090565b6000809054906101000a900473ffffffffffffffffffffffffffffffffffffffff1673ffffffffffffffffffffffffffffffffffffffff163373ffffffffffffffffffffffffffffffffffffffff161461582b57fe5b600073ffffffffffffffffffffffffffffffffffffffff168173ffffffffffffffffffffffffffffffffffffffff16146158a057806000806101000a81548173ffffffffffffffffffffffffffffffffffffffff021916908373ffffffffffffffffffffffffffffffffffffffff1602179055505b50565b6000600260009054906101000a900473ffffffffffffffffffffffffffffffffffffffff1673ffffffffffffffffffffffffffffffffffffffff166308acb5566040518060400160405280600d81526020017f47616d65566172416e64466565000000000000000000000000000000000000008152506040518060400160405280601281526020017f47616d65566172416e644665655461626c6500000000000000000000000000008152506040516020018082805190602001908083835b602083106159855780518252602082019150602081019050602083039250615962565b6001836020036101000a038019825116818451168082178552505050505050905001807f70657263656e74616765466f724275726e457468696500000000000000000000815250601601915050604051602081830303815290604052805190602001206040518363ffffffff1660e01b81526004018080602001838152602001828103825284818151815260200191508051906020019080838360005b83811015615a3d578082015181840152602081019050615a22565b50505050905090810190601f168015615a6a5780820380516001836020036101000a031916815260200191505b50935050505060206040518083038186803b158015615a8857600080fd5b505afa158015615a9c573d6000803e3d6000fd5b505050506040513d6020811015615ab257600080fd5b8101908080519060200190929190505050905090565b6000615afe670de0b6b3a7640000615af0615ae16119ef565b85615b4290919063ffffffff16565b615b7990919063ffffffff16565b9050919050565b6000615b3b670de0b6b3a7640000615b2d615b1e614a3f565b85615b4290919063ffffffff16565b615b7990919063ffffffff16565b9050919050565b600080831415615b555760009050615b73565b6000828402905082848281615b6657fe5b0414615b6e57fe5b809150505b92915050565b600080828481615b8557fe5b0490508091505092915050565b600073ffffffffffffffffffffffffffffffffffffffff16600160009054906101000a900473ffffffffffffffffffffffffffffffffffffffff1673ffffffffffffffffffffffffffffffffffffffff161415615c57576040517f08c379a00000000000000000000000000000000000000000000000000000000081526004018080602001828103825260088152602001807f4e6f2050726f787900000000000000000000000000000000000000000000000081525060200191505060405180910390fd5b600160009054906101000a900473ffffffffffffffffffffffffffffffffffffffff1673ffffffffffffffffffffffffffffffffffffffff163373ffffffffffffffffffffffffffffffffffffffff1614615d1a576040517f08c379a00000000000000000000000000000000000000000000000000000000081526004018080602001828103825260128152602001807f4f6e6c79207468726f7567682050726f7879000000000000000000000000000081525060200191505060405180910390fd5b565b6000600160009054906101000a900473ffffffffffffffffffffffffffffffffffffffff1673ffffffffffffffffffffffffffffffffffffffff1663358177736040518060400160405280600681526020017f526f6c65444200000000000000000000000000000000000000000000000000008152506040518263ffffffff1660e01b81526004018080602001828103825283818151815260200191508051906020019080838360005b83811015615de1578082015181840152602081019050615dc6565b50505050905090810190601f168015615e0e5780820380516001836020036101000a031916815260200191505b509250505060206040518083038186803b158015615e2b57600080fd5b505afa158015615e3f573d6000803e3d6000fd5b505050506040513d6020811015615e5557600080fd5b810190808051906020019092919050505073ffffffffffffffffffffffffffffffffffffffff16636c9cd09783615e8a61612b565b6040518363ffffffff1660e01b815260040180806020018373ffffffffffffffffffffffffffffffffffffffff1673ffffffffffffffffffffffffffffffffffffffff168152602001828103825284818151815260200191508051906020019080838360005b83811015615f0b578082015181840152602081019050615ef0565b50505050905090810190601f168015615f385780820380516001836020036101000a031916815260200191505b50935050505060206040518083038186803b158015615f5657600080fd5b505afa158015615f6a573d6000803e3d6000fd5b505050506040513d6020811015615f8057600080fd5b81019080805190602001909291905050509050919050565b60608060206040519080825280601f01601f191660200182016040528015615fcf5781602001600182028038833980820191505090505b509050600080905060008090505b60208110156160795760008160080260020a8660001c0260001b9050600060f81b817effffffffffffffffffffffffffffffffffffffffffffffffffffffffffffff19161461606b578084848151811061603357fe5b60200101907effffffffffffffffffffffffffffffffffffffffffffffffffffffffffffff1916908160001a90535082806001019350505b508080600101915050615fdd565b506060816040519080825280601f01601f1916602001820160405280156160af5781602001600182028038833980820191505090505b50905060008090505b8281101561611f578381815181106160cc57fe5b602001015160f81c60f81b8282815181106160e357fe5b60200101907effffffffffffffffffffffffffffffffffffffffffffffffffffffffffffff1916908160001a90535080806001019150506160b8565b50809350505050919050565b6000600160009054906101000a900473ffffffffffffffffffffffffffffffffffffffff1673ffffffffffffffffffffffffffffffffffffffff163373ffffffffffffffffffffffffffffffffffffffff161461618a573390506161dd565b6000601436036000602052601481602c37602051915050600073ffffffffffffffffffffffffffffffffffffffff168173ffffffffffffffffffffffffffffffffffffffff1614156161d857fe5b809150505b90565b6040518060a0016040528060059060208202803883398082019150509050509056fea265627a7a72315820bcd25b25e24e379a9aed766ccdfaa679d75cffb84f108cadc80ed5a572d862cd64736f6c63430005110032",
  "source": "/**\n * @title GameVarAndFee\n *\n * @author @wafflemakr @hamaad\n *\n */\n//modifier class (DSAuth )\n//Event class ( DSNote )\n//\n// This program is free software: you can redistribute it and/or modify\n// it under the terms of the GNU General Public License as published by\n// the Free Software Foundation, either version 3 of the License, or\n// (at your option) any later version.\n\n// This program is distributed in the hope that it will be useful,\n// but WITHOUT ANY WARRANTY; without even the implied warranty of\n// MERCHANTABILITY or FITNESS FOR A PARTICULAR PURPOSE.  See the\n// GNU General Public License for more details.\n\n// You should have received a copy of the GNU General Public License\n// along with this program.  If not, see <http://www.gnu.org/licenses/>.\n\npragma solidity ^0.5.5;\n// pragma experimental ABIEncoderV2;\n\nimport './modules/databases/RoleDB.sol';\nimport './modules/databases/GenericDB.sol';\nimport \"./modules/proxy/Proxied.sol\";\nimport \"./authority/Guard.sol\";\nimport './misc/VarAndFeeNames.sol';\nimport './modules/endowment/KtyUniswap.sol';\nimport './libs/SafeMath.sol';\n\n/// @dev MakerDao eth-usd price medianizer\ncontract Medianizer {\n    function read() external view returns (bytes32);\n}\n\n/**\n * @title Contract that moderates the various fees, timing limits, expiry date/time,\n * schedules, eth allocation per game, token allocation per game, kittiehell\n * kittie expiration, time durations, distribution percentages e.t.c.\n * The note modifier will log event for each function call.\n * @dev One setter that is called from GameVarAndFeeProxy contract setters\n */\ncontract GameVarAndFee is Proxied, Guard, VarAndFeeNames {\n    using SafeMath for uint256;\n\n    string constant TABLE_NAME = \"GameVarAndFeeTable\";\n\n    // Declare DB type variable\n    GenericDB public genericDB;\n    Medianizer medianizer;\n\n    /// @notice Function called when deployed\n    /// @param _genericDB Address of deployed GeneriDB contract\n    constructor (GenericDB _genericDB, Medianizer _medianizer) public {\n        setGenericDB(_genericDB);\n        setMedianizer(_medianizer);\n    }\n\n    // kovanMedianizer = 0xA944bd4b25C9F186A846fd5668941AA3d3B8425F\n    // mainnetMedianizer = 0x729D19f657BD0614b4985Cf1D82531c67569197B\n    function setMedianizer(Medianizer _medianizer) public onlyOwner{\n       medianizer = Medianizer(_medianizer);\n    }\n\n    /// @notice Set genericDB variable to store data in contract\n    function setGenericDB(GenericDB _genericDB) public onlyOwner {\n        genericDB = _genericDB;\n    }\n\n    // ----- SETTERS ------\n\n    /// @dev set one variable at a time\n    function setVarAndFee(string calldata varName, uint value)\n        external onlyProxy onlySuperAdmin\n    {\n        bytes32 key = keccak256(abi.encodePacked(TABLE_NAME, varName));\n        genericDB.setUintStorage(CONTRACT_NAME_GAMEVARANDFEE, key, value);\n    }\n\n    /// @dev set multiple variables\n    function setMultipleValues(bytes32[] calldata names, uint[] calldata values)\n        external onlyProxy onlySuperAdmin\n    {\n        require(names.length == values.length);\n        bytes32 key;\n        for(uint i = 0; i < names.length; i++){\n            key = keccak256(abi.encodePacked(TABLE_NAME, bytes32ToString(names[i])));\n            genericDB.setUintStorage(CONTRACT_NAME_GAMEVARANDFEE, key, values[i]);\n        }\n    }\n\n    function setPlatformFeeInDai(string calldata feeName) external onlyProxy onlySuperAdmin {\n        bytes32 key = keccak256(abi.encodePacked(TABLE_NAME, feeName));\n        uint valKTY = genericDB.getUintStorage(CONTRACT_NAME_GAMEVARANDFEE, key);\n        // convert from kty to dai\n        uint valETH = convertKtyToEth(valKTY);\n        uint valDAI = convertEthToDai(valETH);\n        genericDB.setUintStorage(CONTRACT_NAME_GAMEVARANDFEE, key, valDAI);\n    }\n\n    function bytes32ToString(bytes32 x) internal pure returns (string memory) {\n        bytes memory bytesString = new bytes(32);\n        uint charCount = 0;\n        for (uint j = 0; j < 32; j++) {\n            byte char = byte(bytes32(uint(x) * 2 ** (8 * j)));\n            if (char != 0) {\n                bytesString[charCount] = char;\n                charCount++;\n            }\n        }\n        bytes memory bytesStringTrimmed = new bytes(charCount);\n        for (uint j = 0; j < charCount; j++) {\n            bytesStringTrimmed[j] = bytesString[j];\n        }\n        return string(bytesStringTrimmed);\n    }\n\n\n    // ----- GETTERS ------\n\n    // Stale function - what is this getter for and where is it used?\n    /// @notice FrontEnd Global Getter\n   // function getGlobalSettings() public view    \n     //   returns(uint[5] memory, uint, uint, uint, uint, uint, uint, uint)\n    //{\n      //  return(getDistributionRates(),getListingFee(),getTicketFee(), getBettingFee(),\n        //    getKittieRedemptionFee(), getGamePrestart(), getGameDuration(), getKittieExpiry());\n    //}\n\n    /// @notice get eth/usd current price\n    // temporarily hard code EthUsdPrice for truffle testing of BurnTokens.test.js\n    // Please remove hardcoding and uncomment line 124 once testing is done\n    function getEthUsdPrice() public view returns(uint){\n        //return uint256(medianizer.read());\n        return uint256(0x00000000000000000000000000000000000000000000000b49bcb0036fa6c000);\n    }\n\n    /// @notice get KTY/eth current price\n    function getKtyEthPrice() public view returns(uint){\n        return KtyUniswap(proxy.getContract(CONTRACT_NAME_KTY_UNISWAP)).KTY_ETH_price();\n    }\n\n    /// @notice get eth/KTY current price\n    function getEthKtyPrice() public view returns(uint){\n        return KtyUniswap(proxy.getContract(CONTRACT_NAME_KTY_UNISWAP)).ETH_KTY_price();\n    }\n\n    /// @notice get dai/eth current price\n    function getDaiEthPrice() public view returns(uint){\n        return KtyUniswap(proxy.getContract(CONTRACT_NAME_KTY_UNISWAP)).DAI_ETH_price();\n    }\n\n    /// @notice get eth/dai current price\n    function getEthDaiPrice() public view returns(uint){\n        return KtyUniswap(proxy.getContract(CONTRACT_NAME_KTY_UNISWAP)).ETH_DAI_price();\n    }\n\n    function convertEthToDai(uint _ethAmount) public view returns(uint) {\n        return _ethAmount.mul(getEthDaiPrice()).div(1000000000000000000);\n    }\n\n    function convertDaiToEth(uint _daiAmount) public view returns(uint) {\n        return _daiAmount.mul(getDaiEthPrice()).div(1000000000000000000);\n    }\n\n    function convertKtyToEth(uint _ktyAmount) public view returns(uint) {\n        return _ktyAmount.mul(getKtyEthPrice()).div(1000000000000000000);\n    }\n\n    function convertEthToKty(uint _ethAmount) public view returns(uint) {\n        return _ethAmount.mul(getEthKtyPrice()).div(1000000000000000000);\n    }\n        \n    /// @notice Gets the number of matches that are set by Scheduler every time (i.e. 20 kitties, 10 matches)\n    function getRequiredNumberMatches() \n    public view returns(uint) { \n        return genericDB.getUintStorage(CONTRACT_NAME_GAMEVARANDFEE, REQUIRED_NUMBER_MATCHES);\n    }\n    \n    /// @notice Gets countdown time for players to start game (i.e. 120).\n    function getGamePrestart() \n    public view returns(uint) {\n        return genericDB.getUintStorage(CONTRACT_NAME_GAMEVARANDFEE, GAME_PRESTART);\n    }\n    \n    /// @notice Gets Game duration, how long a game lasts\n    function getGameDuration() \n    public view returns(uint) {\n        return genericDB.getUintStorage(CONTRACT_NAME_GAMEVARANDFEE, GAME_DURATION);\n    }\n    \n    /// @notice Gets how long to wait for payment for kittie in kittiehell before kittie is lost forever \n    function getKittieExpiry() \n    public view returns(uint) {\n        return genericDB.getUintStorage(CONTRACT_NAME_GAMEVARANDFEE, KITTIE_HELL_EXPIRATION);\n    }\n    \n    /// @notice Gets the time at which honey pot will be dissolved,after a game is over, used by time contract at end of gameduration\n    function getHoneypotExpiration() \n    public view returns(uint) {\n        return genericDB.getUintStorage(CONTRACT_NAME_GAMEVARANDFEE, HONEY_POT_EXPIRATION);\n    }\n    \n    /// @notice Gets the percentage of jackpot size for allocating KTY tokens to the jackpot\n    function getPercentageHoneypotAllocationKTY()\n        public view returns(uint)\n    {\n            return genericDB.getUintStorage(CONTRACT_NAME_GAMEVARANDFEE, PERCENTAGE_HONEYPOT_ALLOCATION_KTY);\n    }\n\n    // stale function\n    /// @notice Gets Amount of initial ETH allowed to be drawn from EndowmentFund to be allocated to game\n    function getEthPerGame() \n    public view returns(uint) {\n        return genericDB.getUintStorage(CONTRACT_NAME_GAMEVARANDFEE, ETH_PER_GAME);\n    }\n\n    /// @notice Gets Times duration between each game per day\n    function getGameTimes() \n    public view returns(uint) {\n        return genericDB.getUintStorage(CONTRACT_NAME_GAMEVARANDFEE, GAME_TIMES);\n    }\n    \n    /// @notice Gets Distribution Rates\n    function getDistributionRates() \n    public view returns(uint[5] memory rates) {\n                \n        rates[0] = genericDB.getUintStorage(CONTRACT_NAME_GAMEVARANDFEE, WINNING_KITTIE);\n        \n        rates[1] = genericDB.getUintStorage(CONTRACT_NAME_GAMEVARANDFEE, TOP_BETTOR);\n        \n        rates[2] = genericDB.getUintStorage(CONTRACT_NAME_GAMEVARANDFEE, SECOND_RUNNER_UP);\n        \n        rates[3] = genericDB.getUintStorage(CONTRACT_NAME_GAMEVARANDFEE, OTHER_BETTORS);\n        \n        rates[4] = genericDB.getUintStorage(CONTRACT_NAME_GAMEVARANDFEE, ENDOWNMENT);\n    }\n\n    /// @notice Gets percentage of final honeypot that is set as pool initial ether allocation\n    function getPercentageForPool() public view returns (uint256) {\n        return genericDB.getUintStorage(CONTRACT_NAME_GAMEVARANDFEE, PERCENTAGE_FOR_POOL);\n    }\n\n    /// @notice Gets percentage of initial honeypot that is set as kittie listing fee\n    function getPercentageForListingFee() public view returns(uint256) {\n        return genericDB.getUintStorage(CONTRACT_NAME_GAMEVARANDFEE, PERCENTAGE_FOR_LISTING_FEE);\n    }\n\n    /// @notice Gets percentage of initial honeypot that is set as Ticket fee\n    function getPercentageForTicketFee() public view returns(uint256) {\n        return genericDB.getUintStorage(CONTRACT_NAME_GAMEVARANDFEE, PERCENTAGE_FOR_TICKET_FEE);\n    }\n\n    /// @notice Gets percentage of initial honeypot that is set as Betting fee\n    function getPercentageForBettingFee() public view returns(uint256) {\n        return genericDB.getUintStorage(CONTRACT_NAME_GAMEVARANDFEE, PERCENTAGE_FOR_BETTING_FEE);\n    }\n\n    /// @notice Gets percentage of final honeypot that is set as kittieRedemptionFee\n    function getPercentageForKittieRedemptionFee()\n    public view returns(uint) {\n        return genericDB.getUintStorage(CONTRACT_NAME_GAMEVARANDFEE, PERCENTAGE_FOR_KITTIE_REDEMPTION_FEE);\n    }\n\n    // stale function\n    /// @notice Gets USD to KTY ratio\n    function getUsdKTYPrice()\n    public view returns(uint) {\n        return genericDB.getUintStorage(CONTRACT_NAME_GAMEVARANDFEE, USD_KTY_PRICE);\n    }\n\n    /// @notice Gets fee in Dai for players to list kitties for matching in fights\n    function getListingFee() public view returns(uint, uint) {\n        uint listingFeeDAI = genericDB.getUintStorage(CONTRACT_NAME_GAMEVARANDFEE, LISTING_FEE);\n        uint listingFeeETH = convertDaiToEth(listingFeeDAI);\n        uint listingFeeKTY = convertEthToKty(listingFeeETH);\n        return (listingFeeDAI, listingFeeKTY);\n    }\n\n    /// @notice Gets minimum contributors needed for the game to continue\n    function getMinimumContributors() \n    public view returns(uint) {\n        return genericDB.getUintStorage(CONTRACT_NAME_GAMEVARANDFEE, MINIMUM_CONTRIBUTORS);\n    }\n\n    /// @notice Gets the amount of KTY rewarded to the user that hits finalize button. Return amount in Dai.\n    function getFinalizeRewards()\n    public view returns(uint, uint) {\n        uint rewardsDAI = genericDB.getUintStorage(CONTRACT_NAME_GAMEVARANDFEE, FINALIZE_REWARDS);\n        uint rewardsETH = convertDaiToEth(rewardsDAI);\n        uint rewardsKTY = convertEthToKty(rewardsETH);\n        return (rewardsDAI, rewardsKTY);\n    }\n\n    /// @notice Gets the time before a game ends that the check performance should act\n    function getPerformanceTimeCheck() \n    public view returns(uint) {\n        return genericDB.getUintStorage(CONTRACT_NAME_GAMEVARANDFEE, PERFORMANCE_TIME_CHECK);\n    }\n\n    /// @notice Gets the amount of time to add when game is underperformant\n    function getTimeExtension() \n    public view returns(uint) {\n        return genericDB.getUintStorage(CONTRACT_NAME_GAMEVARANDFEE, TIME_EXTENSION);\n    }\n\n    /// @notice Gets the required number of kitties NFTs as replacement for redeemed kittie in kittieHELL\n    function getRequiredKittieSacrificeNum()\n        public view returns(uint)\n    {\n        return genericDB.getUintStorage(CONTRACT_NAME_GAMEVARANDFEE, REQUIRED_KITTIE_SACRIFICE_NUM);\n    }\n\n    function getPercentageforBurnEthie()\n        public view returns(uint)\n    {\n        return genericDB.getUintStorage(CONTRACT_NAME_GAMEVARANDFEE, PERCENTAGE_FOR_BURN_ETHIE);\n       \n    }\n\n    /// @notice Gets the weekly interest rate for EthieToken NFT\n    function getInterestEthie()\n        public view returns(uint)\n    {\n        return genericDB.getUintStorage(CONTRACT_NAME_GAMEVARANDFEE, INTEREST_ETHIE);\n    }\n\n}\n",
  "sourcePath": "/Users/ziweizhang/Desktop/kittiefight-rinkeby4/contracts/contracts/GameVarAndFee.sol",
  "compiler": {
    "name": "solc",
    "version": "0.5.17+commit.d19bba13.Emscripten.clang"
  },
  "schemaVersion": "3.0.23",
  "updatedAt": "2020-06-15T21:07:53.855Z",
  "networkType": "ethereum",
  "devdoc": {
    "details": "One setter that is called from GameVarAndFeeProxy contract setters",
    "methods": {
      "constructor": {
        "params": {
          "_genericDB": "Address of deployed GeneriDB contract"
        }
      },
      "setMultipleValues(bytes32[],uint256[])": {
        "details": "set multiple variables"
      },
      "setVarAndFee(string,uint256)": {
        "details": "set one variable at a time"
      }
    },
    "title": "Contract that moderates the various fees, timing limits, expiry date/time, schedules, eth allocation per game, token allocation per game, kittiehell kittie expiration, time durations, distribution percentages e.t.c. The note modifier will log event for each function call."
  },
  "userdoc": {
    "methods": {
      "constructor": "Function called when deployed",
      "getDaiEthPrice()": {
        "notice": "get dai/eth current price"
      },
      "getDistributionRates()": {
        "notice": "Gets Distribution Rates"
      },
      "getEthDaiPrice()": {
        "notice": "get eth/dai current price"
      },
      "getEthKtyPrice()": {
        "notice": "get eth/KTY current price"
      },
      "getEthPerGame()": {
        "notice": "Gets Amount of initial ETH allowed to be drawn from EndowmentFund to be allocated to game"
      },
      "getEthUsdPrice()": {
        "notice": "get eth/usd current price"
      },
      "getFinalizeRewards()": {
        "notice": "Gets the amount of KTY rewarded to the user that hits finalize button. Return amount in Dai."
      },
      "getGameDuration()": {
        "notice": "Gets Game duration, how long a game lasts"
      },
      "getGamePrestart()": {
        "notice": "Gets countdown time for players to start game (i.e. 120)."
      },
      "getGameTimes()": {
        "notice": "Gets Times duration between each game per day"
      },
      "getHoneypotExpiration()": {
        "notice": "Gets the time at which honey pot will be dissolved,after a game is over, used by time contract at end of gameduration"
      },
      "getInterestEthie()": {
        "notice": "Gets the weekly interest rate for EthieToken NFT"
      },
      "getKittieExpiry()": {
        "notice": "Gets how long to wait for payment for kittie in kittiehell before kittie is lost forever "
      },
      "getKtyEthPrice()": {
        "notice": "get KTY/eth current price"
      },
      "getListingFee()": {
        "notice": "Gets fee in Dai for players to list kitties for matching in fights"
      },
      "getMinimumContributors()": {
        "notice": "Gets minimum contributors needed for the game to continue"
      },
      "getPercentageForBettingFee()": {
        "notice": "Gets percentage of initial honeypot that is set as Betting fee"
      },
      "getPercentageForKittieRedemptionFee()": {
        "notice": "Gets percentage of final honeypot that is set as kittieRedemptionFee"
      },
      "getPercentageForListingFee()": {
        "notice": "Gets percentage of initial honeypot that is set as kittie listing fee"
      },
      "getPercentageForPool()": {
        "notice": "Gets percentage of final honeypot that is set as pool initial ether allocation"
      },
      "getPercentageForTicketFee()": {
        "notice": "Gets percentage of initial honeypot that is set as Ticket fee"
      },
      "getPercentageHoneypotAllocationKTY()": {
        "notice": "Gets the percentage of jackpot size for allocating KTY tokens to the jackpot"
      },
      "getPerformanceTimeCheck()": {
        "notice": "Gets the time before a game ends that the check performance should act"
      },
      "getRequiredKittieSacrificeNum()": {
        "notice": "Gets the required number of kitties NFTs as replacement for redeemed kittie in kittieHELL"
      },
      "getRequiredNumberMatches()": {
        "notice": "Gets the number of matches that are set by Scheduler every time (i.e. 20 kitties, 10 matches)"
      },
      "getTimeExtension()": {
        "notice": "Gets the amount of time to add when game is underperformant"
      },
      "getUsdKTYPrice()": {
        "notice": "Gets USD to KTY ratio"
      },
      "setGenericDB(address)": {
        "notice": "Set genericDB variable to store data in contract"
      },
      "setProxy(address)": {
        "notice": "Set/update address of Proxy contract"
      }
    }
  }
}