{
  "contractName": "GameStore",
  "abi": [
    {
      "constant": true,
      "inputs": [
        {
          "internalType": "uint256",
          "name": "",
          "type": "uint256"
        },
        {
          "internalType": "address",
          "name": "",
          "type": "address"
        }
      ],
      "name": "gameByPlayer",
      "outputs": [
        {
          "internalType": "uint256",
          "name": "randomNum",
          "type": "uint256"
        },
        {
          "internalType": "bool",
          "name": "pressedStart",
          "type": "bool"
        },
        {
          "internalType": "address",
          "name": "topBettor",
          "type": "address"
        },
        {
          "internalType": "address",
          "name": "secondTopBettor",
          "type": "address"
        }
      ],
      "payable": false,
      "stateMutability": "view",
      "type": "function"
    },
    {
      "constant": true,
      "inputs": [
        {
          "internalType": "uint256",
          "name": "",
          "type": "uint256"
        }
      ],
      "name": "gameSettings",
      "outputs": [
        {
          "internalType": "uint256",
          "name": "bettingFee",
          "type": "uint256"
        },
        {
          "internalType": "uint256",
          "name": "ticketFee",
          "type": "uint256"
        },
        {
          "internalType": "uint256",
          "name": "redemptionFee",
          "type": "uint256"
        },
        {
          "internalType": "uint256",
          "name": "kittieHellExpirationTime",
          "type": "uint256"
        },
        {
          "internalType": "uint256",
          "name": "honeypotExpirationTime",
          "type": "uint256"
        },
        {
          "internalType": "uint256",
          "name": "minimumContributors",
          "type": "uint256"
        },
        {
          "internalType": "uint256",
          "name": "finalizeRewards",
          "type": "uint256"
        },
        {
          "internalType": "uint256",
          "name": "timeExtension",
          "type": "uint256"
        },
        {
          "internalType": "uint256",
          "name": "performanceTime",
          "type": "uint256"
        }
      ],
      "payable": false,
      "stateMutability": "view",
      "type": "function"
    },
    {
      "constant": true,
      "inputs": [],
      "name": "gameVarAndFee",
      "outputs": [
        {
          "internalType": "contract GameVarAndFee",
          "name": "",
          "type": "address"
        }
      ],
      "payable": false,
      "stateMutability": "view",
      "type": "function"
    },
    {
      "constant": true,
      "inputs": [],
      "name": "gmGetterDB",
      "outputs": [
        {
          "internalType": "contract GMGetterDB",
          "name": "",
          "type": "address"
        }
      ],
      "payable": false,
      "stateMutability": "view",
      "type": "function"
    },
    {
      "constant": true,
      "inputs": [],
      "name": "hitsResolve",
      "outputs": [
        {
          "internalType": "contract HitsResolve",
          "name": "",
          "type": "address"
        }
      ],
      "payable": false,
      "stateMutability": "view",
      "type": "function"
    },
    {
      "constant": true,
      "inputs": [],
      "name": "owner",
      "outputs": [
        {
          "internalType": "address payable",
          "name": "",
          "type": "address"
        }
      ],
      "payable": false,
      "stateMutability": "view",
      "type": "function"
    },
    {
      "constant": true,
      "inputs": [],
      "name": "proxy",
      "outputs": [
        {
          "internalType": "contract ProxyBase",
          "name": "",
          "type": "address"
        }
      ],
      "payable": false,
      "stateMutability": "view",
      "type": "function"
    },
    {
      "constant": false,
      "inputs": [
        {
          "internalType": "contract ProxyBase",
          "name": "_proxy",
          "type": "address"
        }
      ],
      "name": "setProxy",
      "outputs": [],
      "payable": false,
      "stateMutability": "nonpayable",
      "type": "function"
    },
    {
      "constant": false,
      "inputs": [
        {
          "internalType": "address payable",
          "name": "newOwner",
          "type": "address"
        }
      ],
      "name": "transferOwnership",
      "outputs": [],
      "payable": false,
      "stateMutability": "nonpayable",
      "type": "function"
    },
    {
      "constant": false,
      "inputs": [],
      "name": "initialize",
      "outputs": [],
      "payable": false,
      "stateMutability": "nonpayable",
      "type": "function"
    },
    {
      "constant": false,
      "inputs": [
        {
          "internalType": "uint256",
          "name": "gameId",
          "type": "uint256"
        }
      ],
      "name": "lockVars",
      "outputs": [],
      "payable": false,
      "stateMutability": "nonpayable",
      "type": "function"
    },
    {
      "constant": false,
      "inputs": [
        {
          "internalType": "uint256",
          "name": "gameId",
          "type": "uint256"
        }
      ],
      "name": "lockVarsAdmin",
      "outputs": [],
      "payable": false,
      "stateMutability": "nonpayable",
      "type": "function"
    },
    {
      "constant": true,
      "inputs": [
        {
          "internalType": "uint256",
          "name": "gameId",
          "type": "uint256"
        }
      ],
      "name": "getDistributionRates",
      "outputs": [
        {
          "internalType": "uint256[5]",
          "name": "",
          "type": "uint256[5]"
        }
      ],
      "payable": false,
      "stateMutability": "view",
      "type": "function"
    },
    {
      "constant": false,
      "inputs": [
        {
          "internalType": "uint256",
          "name": "gameId",
          "type": "uint256"
        }
      ],
      "name": "updateKittieRedemptionFee",
      "outputs": [],
      "payable": false,
      "stateMutability": "nonpayable",
      "type": "function"
    },
    {
      "constant": true,
      "inputs": [
        {
          "internalType": "uint256",
          "name": "gameId",
          "type": "uint256"
        }
      ],
      "name": "getKittieExpirationTime",
      "outputs": [
        {
          "internalType": "uint256",
          "name": "",
          "type": "uint256"
        }
      ],
      "payable": false,
      "stateMutability": "view",
      "type": "function"
    },
    {
      "constant": true,
      "inputs": [
        {
          "internalType": "uint256",
          "name": "gameId",
          "type": "uint256"
        }
      ],
      "name": "getKittieRedemptionFee",
      "outputs": [
        {
          "internalType": "uint256",
          "name": "",
          "type": "uint256"
        }
      ],
      "payable": false,
      "stateMutability": "view",
      "type": "function"
    },
    {
      "constant": true,
      "inputs": [
        {
          "internalType": "uint256",
          "name": "gameId",
          "type": "uint256"
        }
      ],
      "name": "getHoneypotExpiration",
      "outputs": [
        {
          "internalType": "uint256",
          "name": "",
          "type": "uint256"
        }
      ],
      "payable": false,
      "stateMutability": "view",
      "type": "function"
    },
    {
      "constant": false,
      "inputs": [
        {
          "internalType": "uint256",
          "name": "gameId",
          "type": "uint256"
        },
        {
          "internalType": "address",
          "name": "player",
          "type": "address"
        },
        {
          "internalType": "uint256",
          "name": "randomNum",
          "type": "uint256"
        }
      ],
      "name": "start",
      "outputs": [],
      "payable": false,
      "stateMutability": "nonpayable",
      "type": "function"
    },
    {
      "constant": true,
      "inputs": [
        {
          "internalType": "uint256",
          "name": "gameId",
          "type": "uint256"
        },
        {
          "internalType": "address",
          "name": "player",
          "type": "address"
        }
      ],
      "name": "didHitStart",
      "outputs": [
        {
          "internalType": "bool",
          "name": "",
          "type": "bool"
        }
      ],
      "payable": false,
      "stateMutability": "view",
      "type": "function"
    },
    {
      "constant": true,
      "inputs": [
        {
          "internalType": "uint256",
          "name": "gameId",
          "type": "uint256"
        },
        {
          "internalType": "address",
          "name": "player",
          "type": "address"
        }
      ],
      "name": "getRandom",
      "outputs": [
        {
          "internalType": "uint256",
          "name": "",
          "type": "uint256"
        }
      ],
      "payable": false,
      "stateMutability": "view",
      "type": "function"
    },
    {
      "constant": false,
      "inputs": [
        {
          "internalType": "uint256",
          "name": "gameId",
          "type": "uint256"
        },
        {
          "internalType": "address",
          "name": "player",
          "type": "address"
        },
        {
          "internalType": "address",
          "name": "newTopBettor",
          "type": "address"
        }
      ],
      "name": "updateTopBettor",
      "outputs": [],
      "payable": false,
      "stateMutability": "nonpayable",
      "type": "function"
    },
    {
      "constant": true,
      "inputs": [
        {
          "internalType": "uint256",
          "name": "gameId",
          "type": "uint256"
        },
        {
          "internalType": "address",
          "name": "player",
          "type": "address"
        }
      ],
      "name": "getTopBettor",
      "outputs": [
        {
          "internalType": "address",
          "name": "",
          "type": "address"
        }
      ],
      "payable": false,
      "stateMutability": "view",
      "type": "function"
    },
    {
      "constant": false,
      "inputs": [
        {
          "internalType": "uint256",
          "name": "gameId",
          "type": "uint256"
        },
        {
          "internalType": "address",
          "name": "player",
          "type": "address"
        },
        {
          "internalType": "address",
          "name": "newSecondTopBettor",
          "type": "address"
        }
      ],
      "name": "updateSecondTopBettor",
      "outputs": [],
      "payable": false,
      "stateMutability": "nonpayable",
      "type": "function"
    },
    {
      "constant": true,
      "inputs": [
        {
          "internalType": "uint256",
          "name": "gameId",
          "type": "uint256"
        },
        {
          "internalType": "address",
          "name": "player",
          "type": "address"
        }
      ],
      "name": "getSecondTopBettor",
      "outputs": [
        {
          "internalType": "address",
          "name": "",
          "type": "address"
        }
      ],
      "payable": false,
      "stateMutability": "view",
      "type": "function"
    },
    {
      "constant": true,
      "inputs": [
        {
          "internalType": "uint256",
          "name": "gameId",
          "type": "uint256"
        }
      ],
      "name": "getTicketFee",
      "outputs": [
        {
          "internalType": "uint256",
          "name": "",
          "type": "uint256"
        }
      ],
      "payable": false,
      "stateMutability": "view",
      "type": "function"
    },
    {
      "constant": true,
      "inputs": [
        {
          "internalType": "uint256",
          "name": "gameId",
          "type": "uint256"
        }
      ],
      "name": "getBettingFee",
      "outputs": [
        {
          "internalType": "uint256",
          "name": "",
          "type": "uint256"
        }
      ],
      "payable": false,
      "stateMutability": "view",
      "type": "function"
    },
    {
      "constant": true,
      "inputs": [
        {
          "internalType": "uint256",
          "name": "gameId",
          "type": "uint256"
        }
      ],
      "name": "getMinimumContributors",
      "outputs": [
        {
          "internalType": "uint256",
          "name": "",
          "type": "uint256"
        }
      ],
      "payable": false,
      "stateMutability": "view",
      "type": "function"
    },
    {
      "constant": true,
      "inputs": [
        {
          "internalType": "uint256",
          "name": "gameId",
          "type": "uint256"
        }
      ],
      "name": "getFinalizeRewards",
      "outputs": [
        {
          "internalType": "uint256",
          "name": "",
          "type": "uint256"
        }
      ],
      "payable": false,
      "stateMutability": "view",
      "type": "function"
    },
    {
      "constant": true,
      "inputs": [
        {
          "internalType": "uint256",
          "name": "gameId",
          "type": "uint256"
        }
      ],
      "name": "getPerformanceTimeCheck",
      "outputs": [
        {
          "internalType": "uint256",
          "name": "",
          "type": "uint256"
        }
      ],
      "payable": false,
      "stateMutability": "view",
      "type": "function"
    },
    {
      "constant": true,
      "inputs": [
        {
          "internalType": "uint256",
          "name": "gameId",
          "type": "uint256"
        }
      ],
      "name": "getTimeExtension",
      "outputs": [
        {
          "internalType": "uint256",
          "name": "",
          "type": "uint256"
        }
      ],
      "payable": false,
      "stateMutability": "view",
      "type": "function"
    },
    {
      "constant": false,
      "inputs": [
        {
          "internalType": "uint256",
          "name": "_gameId",
          "type": "uint256"
        },
        {
          "internalType": "address",
          "name": "_account",
          "type": "address"
        },
        {
          "internalType": "address",
          "name": "_supportedPlayer",
          "type": "address"
        }
      ],
      "name": "updateTopbettors",
      "outputs": [],
      "payable": false,
      "stateMutability": "nonpayable",
      "type": "function"
    },
    {
      "constant": true,
      "inputs": [
        {
          "internalType": "uint256",
          "name": "gameId",
          "type": "uint256"
        },
        {
          "internalType": "address",
          "name": "player",
          "type": "address"
        }
      ],
      "name": "getOpponent",
      "outputs": [
        {
          "internalType": "address",
          "name": "",
          "type": "address"
        }
      ],
      "payable": false,
      "stateMutability": "view",
      "type": "function"
    },
    {
      "constant": true,
      "inputs": [
        {
          "internalType": "uint256",
          "name": "gameId",
          "type": "uint256"
        },
        {
          "internalType": "address",
          "name": "player",
          "type": "address"
        }
      ],
      "name": "getCorner",
      "outputs": [
        {
          "internalType": "uint256",
          "name": "",
          "type": "uint256"
        }
      ],
      "payable": false,
      "stateMutability": "view",
      "type": "function"
    },
    {
      "constant": true,
      "inputs": [
        {
          "internalType": "uint256",
          "name": "gameId",
          "type": "uint256"
        },
        {
          "internalType": "address",
          "name": "playerBlack",
          "type": "address"
        },
        {
          "internalType": "address",
          "name": "playerRed",
          "type": "address"
        },
        {
          "internalType": "uint256",
          "name": "random",
          "type": "uint256"
        }
      ],
      "name": "calculateWinner",
      "outputs": [
        {
          "internalType": "address",
          "name": "winner",
          "type": "address"
        },
        {
          "internalType": "address",
          "name": "loser",
          "type": "address"
        },
        {
          "internalType": "uint256",
          "name": "pointsBlack",
          "type": "uint256"
        },
        {
          "internalType": "uint256",
          "name": "pointsRed",
          "type": "uint256"
        }
      ],
      "payable": false,
      "stateMutability": "view",
      "type": "function"
    },
    {
      "constant": false,
      "inputs": [
        {
          "internalType": "uint256",
          "name": "gameId",
          "type": "uint256"
        },
        {
          "internalType": "uint256",
          "name": "gameEndTime",
          "type": "uint256"
        }
      ],
      "name": "checkPerformanceHelper",
      "outputs": [
        {
          "internalType": "bool",
          "name": "",
          "type": "bool"
        }
      ],
      "payable": false,
      "stateMutability": "nonpayable",
      "type": "function"
    }
  ],
  "bytecode": "0x6080604052336000806101000a81548173ffffffffffffffffffffffffffffffffffffffff021916908373ffffffffffffffffffffffffffffffffffffffff160217905550613f51806100536000396000f3fe608060405234801561001057600080fd5b50600436106102115760003560e01c80636e47c63511610125578063c02c8ed7116100ad578063ec5568891161007c578063ec55688914610cf8578063f2fde38b14610d42578063f3ef7d2c14610d86578063f58f32cf14610dc8578063f9ccbdf214610e0a57610211565b8063c02c8ed714610ae9578063c97d996914610b2b578063cefc482614610b99578063ebff754a14610c9257610211565b806397107d6d116100f457806397107d6d146109185780639dac052e1461095c578063a3b3bd7b1461098a578063aa84869f146109d4578063b83d8c5214610a1657610211565b80636e47c635146108185780638129fc1c1461087a5780638ad7877a146108845780638da5cb5b146108ce57610211565b80632fab9fd3116101a85780633c38d0a9116101775780633c38d0a91461064257806353d820f9146106845780635daaf798146106f25780635f87206d146107205780636991b5bf146107ae57610211565b80632fab9fd3146104f457806331856c711461054457806331fa7067146105865780633422476d1461061457610211565b8063158d39cb116101e4578063158d39cb1461038257806316805a29146103da5780631fc751801461046857806329920299146104b257610211565b806305931a3c146102165780630bc644f5146102905780630d1fd67a146102fe5780630d8d7aba14610340575b600080fd5b6102426004803603602081101561022c57600080fd5b8101908080359060200190929190505050610e6c565b604051808a8152602001898152602001888152602001878152602001868152602001858152602001848152602001838152602001828152602001995050505050505050505060405180910390f35b6102fc600480360360608110156102a657600080fd5b8101908080359060200190929190803573ffffffffffffffffffffffffffffffffffffffff169060200190929190803573ffffffffffffffffffffffffffffffffffffffff169060200190929190505050610eba565b005b61032a6004803603602081101561031457600080fd5b810190808035906020019092919050505061146e565b6040518082815260200191505060405180910390f35b61036c6004803603602081101561035657600080fd5b810190808035906020019092919050505061148e565b6040518082815260200191505060405180910390f35b6103d86004803603606081101561039857600080fd5b8101908080359060200190929190803573ffffffffffffffffffffffffffffffffffffffff169060200190929190803590602001909291905050506114ae565b005b610426600480360360408110156103f057600080fd5b8101908080359060200190929190803573ffffffffffffffffffffffffffffffffffffffff1690602001909291905050506115b7565b604051808273ffffffffffffffffffffffffffffffffffffffff1673ffffffffffffffffffffffffffffffffffffffff16815260200191505060405180910390f35b610470611635565b604051808273ffffffffffffffffffffffffffffffffffffffff1673ffffffffffffffffffffffffffffffffffffffff16815260200191505060405180910390f35b6104de600480360360208110156104c857600080fd5b810190808035906020019092919050505061165b565b6040518082815260200191505060405180910390f35b61052a6004803603604081101561050a57600080fd5b81019080803590602001909291908035906020019092919050505061167b565b604051808215151515815260200191505060405180910390f35b6105706004803603602081101561055a57600080fd5b810190808035906020019092919050505061187a565b6040518082815260200191505060405180910390f35b6105d26004803603604081101561059c57600080fd5b8101908080359060200190929190803573ffffffffffffffffffffffffffffffffffffffff16906020019092919050505061189a565b604051808273ffffffffffffffffffffffffffffffffffffffff1673ffffffffffffffffffffffffffffffffffffffff16815260200191505060405180910390f35b6106406004803603602081101561062a57600080fd5b81019080803590602001909291905050506119bb565b005b61066e6004803603602081101561065857600080fd5b8101908080359060200190929190505050611a07565b6040518082815260200191505060405180910390f35b6106f06004803603606081101561069a57600080fd5b8101908080359060200190929190803573ffffffffffffffffffffffffffffffffffffffff169060200190929190803573ffffffffffffffffffffffffffffffffffffffff169060200190929190505050611a27565b005b61071e6004803603602081101561070857600080fd5b8101908080359060200190929190505050611afe565b005b61076c6004803603604081101561073657600080fd5b8101908080359060200190929190803573ffffffffffffffffffffffffffffffffffffffff169060200190929190505050611e79565b604051808273ffffffffffffffffffffffffffffffffffffffff1673ffffffffffffffffffffffffffffffffffffffff16815260200191505060405180910390f35b6107da600480360360208110156107c457600080fd5b8101908080359060200190929190505050611ef7565b6040518082600560200280838360005b838110156108055780820151818401526020810190506107ea565b5050505090500191505060405180910390f35b6108646004803603604081101561082e57600080fd5b8101908080359060200190929190803573ffffffffffffffffffffffffffffffffffffffff169060200190929190505050611f58565b6040518082815260200191505060405180910390f35b610882611fb6565b005b61088c6124a6565b604051808273ffffffffffffffffffffffffffffffffffffffff1673ffffffffffffffffffffffffffffffffffffffff16815260200191505060405180910390f35b6108d66124cc565b604051808273ffffffffffffffffffffffffffffffffffffffff1673ffffffffffffffffffffffffffffffffffffffff16815260200191505060405180910390f35b61095a6004803603602081101561092e57600080fd5b81019080803573ffffffffffffffffffffffffffffffffffffffff1690602001909291905050506124f1565b005b6109886004803603602081101561097257600080fd5b810190808035906020019092919050505061258b565b005b61099261267e565b604051808273ffffffffffffffffffffffffffffffffffffffff1673ffffffffffffffffffffffffffffffffffffffff16815260200191505060405180910390f35b610a00600480360360208110156109ea57600080fd5b81019080803590602001909291905050506126a4565b6040518082815260200191505060405180910390f35b610a6260048036036040811015610a2c57600080fd5b8101908080359060200190929190803573ffffffffffffffffffffffffffffffffffffffff1690602001909291905050506126c4565b60405180858152602001841515151581526020018373ffffffffffffffffffffffffffffffffffffffff1673ffffffffffffffffffffffffffffffffffffffff1681526020018273ffffffffffffffffffffffffffffffffffffffff1673ffffffffffffffffffffffffffffffffffffffff16815260200194505050505060405180910390f35b610b1560048036036020811015610aff57600080fd5b810190808035906020019092919050505061274e565b6040518082815260200191505060405180910390f35b610b9760048036036060811015610b4157600080fd5b8101908080359060200190929190803573ffffffffffffffffffffffffffffffffffffffff169060200190929190803573ffffffffffffffffffffffffffffffffffffffff16906020019092919050505061276e565b005b610c0f60048036036080811015610baf57600080fd5b8101908080359060200190929190803573ffffffffffffffffffffffffffffffffffffffff169060200190929190803573ffffffffffffffffffffffffffffffffffffffff16906020019092919080359060200190929190505050612845565b604051808573ffffffffffffffffffffffffffffffffffffffff1673ffffffffffffffffffffffffffffffffffffffff1681526020018473ffffffffffffffffffffffffffffffffffffffff1673ffffffffffffffffffffffffffffffffffffffff16815260200183815260200182815260200194505050505060405180910390f35b610cde60048036036040811015610ca857600080fd5b8101908080359060200190929190803573ffffffffffffffffffffffffffffffffffffffff169060200190929190505050612dc6565b604051808215151515815260200191505060405180910390f35b610d00612e31565b604051808273ffffffffffffffffffffffffffffffffffffffff1673ffffffffffffffffffffffffffffffffffffffff16815260200191505060405180910390f35b610d8460048036036020811015610d5857600080fd5b81019080803573ffffffffffffffffffffffffffffffffffffffff169060200190929190505050612e57565b005b610db260048036036020811015610d9c57600080fd5b8101908080359060200190929190505050612f25565b6040518082815260200191505060405180910390f35b610df460048036036020811015610dde57600080fd5b8101908080359060200190929190505050612f45565b6040518082815260200191505060405180910390f35b610e5660048036036040811015610e2057600080fd5b8101908080359060200190929190803573ffffffffffffffffffffffffffffffffffffffff169060200190929190505050612f65565b6040518082815260200191505060405180910390f35b60066020528060005260406000206000915090508060000154908060010154908060020154908060030154908060040154908060050154908060060154908060070154908060080154905089565b6040518060400160405280600b81526020017f47616d654d616e61676572000000000000000000000000000000000000000000815250610ef9816130c7565b6000610f0585846115b7565b90506000600360009054906101000a900473ffffffffffffffffffffffffffffffffffffffff1673ffffffffffffffffffffffffffffffffffffffff16630b154c9687876040518363ffffffff1660e01b8152600401808381526020018273ffffffffffffffffffffffffffffffffffffffff1673ffffffffffffffffffffffffffffffffffffffff1681526020019250505060806040518083038186803b158015610fb057600080fd5b505afa158015610fc4573d6000803e3d6000fd5b505050506040513d6080811015610fda57600080fd5b810190808051906020019092919080519060200190929190805190602001909291908051906020019092919050505050505090506000600360009054906101000a900473ffffffffffffffffffffffffffffffffffffffff1673ffffffffffffffffffffffffffffffffffffffff16630b154c9688856040518363ffffffff1660e01b8152600401808381526020018273ffffffffffffffffffffffffffffffffffffffff1673ffffffffffffffffffffffffffffffffffffffff1681526020019250505060806040518083038186803b1580156110b757600080fd5b505afa1580156110cb573d6000803e3d6000fd5b505050506040513d60808110156110e157600080fd5b810190808051906020019092919080519060200190929190805190602001909291908051906020019092919050505050505090508573ffffffffffffffffffffffffffffffffffffffff168373ffffffffffffffffffffffffffffffffffffffff1614611465578082111561127957856005600089815260200190815260200160002060008773ffffffffffffffffffffffffffffffffffffffff1673ffffffffffffffffffffffffffffffffffffffff16815260200190815260200160002060010160016101000a81548173ffffffffffffffffffffffffffffffffffffffff021916908373ffffffffffffffffffffffffffffffffffffffff160217905550826005600089815260200190815260200160002060008773ffffffffffffffffffffffffffffffffffffffff1673ffffffffffffffffffffffffffffffffffffffff16815260200190815260200160002060020160006101000a81548173ffffffffffffffffffffffffffffffffffffffff021916908373ffffffffffffffffffffffffffffffffffffffff160217905550611464565b60006112858887611e79565b90506000600360009054906101000a900473ffffffffffffffffffffffffffffffffffffffff1673ffffffffffffffffffffffffffffffffffffffff16630b154c968a846040518363ffffffff1660e01b8152600401808381526020018273ffffffffffffffffffffffffffffffffffffffff1673ffffffffffffffffffffffffffffffffffffffff1681526020019250505060806040518083038186803b15801561133057600080fd5b505afa158015611344573d6000803e3d6000fd5b505050506040513d608081101561135a57600080fd5b8101908080519060200190929190805190602001909291908051906020019092919080519060200190929190505050505050905080841180156113c957508773ffffffffffffffffffffffffffffffffffffffff168273ffffffffffffffffffffffffffffffffffffffff1614155b156114615787600560008b815260200190815260200160002060008973ffffffffffffffffffffffffffffffffffffffff1673ffffffffffffffffffffffffffffffffffffffff16815260200190815260200160002060020160006101000a81548173ffffffffffffffffffffffffffffffffffffffff021916908373ffffffffffffffffffffffffffffffffffffffff1602179055505b50505b5b50505050505050565b600060066000838152602001908152602001600020600401549050919050565b600060066000838152602001908152602001600020600701549050919050565b6040518060400160405280600b81526020017f47616d654d616e616765720000000000000000000000000000000000000000008152506114ed816130c7565b60016005600086815260200190815260200160002060008573ffffffffffffffffffffffffffffffffffffffff1673ffffffffffffffffffffffffffffffffffffffff16815260200190815260200160002060010160006101000a81548160ff021916908315150217905550816005600086815260200190815260200160002060008573ffffffffffffffffffffffffffffffffffffffff1673ffffffffffffffffffffffffffffffffffffffff1681526020019081526020016000206000018190555050505050565b60006005600084815260200190815260200160002060008373ffffffffffffffffffffffffffffffffffffffff1673ffffffffffffffffffffffffffffffffffffffff16815260200190815260200160002060010160019054906101000a900473ffffffffffffffffffffffffffffffffffffffff16905092915050565b600360009054906101000a900473ffffffffffffffffffffffffffffffffffffffff1681565b600060066000838152602001908152602001600020600201549050919050565b600080600260009054906101000a900473ffffffffffffffffffffffffffffffffffffffff1673ffffffffffffffffffffffffffffffffffffffff16631697e4b66040518163ffffffff1660e01b815260040160206040518083038186803b1580156116e657600080fd5b505afa1580156116fa573d6000803e3d6000fd5b505050506040513d602081101561171057600080fd5b8101908080519060200190929190505050905042611737828561336290919063ffffffff16565b1161187257600080600360009054906101000a900473ffffffffffffffffffffffffffffffffffffffff1673ffffffffffffffffffffffffffffffffffffffff1663589ac6a4876040518263ffffffff1660e01b8152600401808281526020019150506101006040518083038186803b1580156117b357600080fd5b505afa1580156117c7573d6000803e3d6000fd5b505050506040513d601f19601f820116820180604052506101008110156117ed57600080fd5b81019080805190602001909291908051906020019092919080519060200190929190805190602001909291909190826040018051906020019092919080519060200190929190505050505050935093505050611853600a8361337990919063ffffffff16565b8110156118665760019350505050611874565b60009350505050611874565b505b92915050565b600060066000838152602001908152602001600020600501549050919050565b6000806000600360009054906101000a900473ffffffffffffffffffffffffffffffffffffffff1673ffffffffffffffffffffffffffffffffffffffff166315a40f49866040518263ffffffff1660e01b81526004018082815260200191505060806040518083038186803b15801561191257600080fd5b505afa158015611926573d6000803e3d6000fd5b505050506040513d608081101561193c57600080fd5b81019080805190602001909291908051906020019092919080519060200190929190805190602001909291905050505050915091508373ffffffffffffffffffffffffffffffffffffffff168273ffffffffffffffffffffffffffffffffffffffff1614156119af5780925050506119b5565b81925050505b92915050565b6040518060400160405280600c81526020017f47616d654372656174696f6e00000000000000000000000000000000000000008152506119fa816130c7565b611a03826133b0565b5050565b600060066000838152602001908152602001600020600301549050919050565b6040518060400160405280600a81526020017f474d536574746572444200000000000000000000000000000000000000000000815250611a66816130c7565b816005600086815260200190815260200160002060008573ffffffffffffffffffffffffffffffffffffffff1673ffffffffffffffffffffffffffffffffffffffff16815260200190815260200160002060020160006101000a81548173ffffffffffffffffffffffffffffffffffffffff021916908373ffffffffffffffffffffffffffffffffffffffff16021790555050505050565b6000600260009054906101000a900473ffffffffffffffffffffffffffffffffffffffff1673ffffffffffffffffffffffffffffffffffffffff16637a10546d6040518163ffffffff1660e01b815260040160206040518083038186803b158015611b6857600080fd5b505afa158015611b7c573d6000803e3d6000fd5b505050506040513d6020811015611b9257600080fd5b81019080805190602001909291905050509050600080600360009054906101000a900473ffffffffffffffffffffffffffffffffffffffff1673ffffffffffffffffffffffffffffffffffffffff1663525a8e4e856040518263ffffffff1660e01b815260040180828152602001915050604080518083038186803b158015611c1a57600080fd5b505afa158015611c2e573d6000803e3d6000fd5b505050506040513d6040811015611c4457600080fd5b81019080805190602001909291908051906020019092919050505091509150600083118015611c735750600081115b8015611c7f5750600082115b611c8857600080fd5b6000600260009054906101000a900473ffffffffffffffffffffffffffffffffffffffff1673ffffffffffffffffffffffffffffffffffffffff1663a0a8045e6040518163ffffffff1660e01b815260040160206040518083038186803b158015611cf257600080fd5b505afa158015611d06573d6000803e3d6000fd5b505050506040513d6020811015611d1c57600080fd5b810190808051906020019092919050505090506000600260009054906101000a900473ffffffffffffffffffffffffffffffffffffffff1673ffffffffffffffffffffffffffffffffffffffff1663271bf40f6040518163ffffffff1660e01b815260040160206040518083038186803b158015611d9957600080fd5b505afa158015611dad573d6000803e3d6000fd5b505050506040513d6020811015611dc357600080fd5b81019080805190602001909291905050509050611e57611dff6064611df1888761337990919063ffffffff16565b613a6590919063ffffffff16565b611e496064611e3b85611e2d8b611e1f8a8d61337990919063ffffffff16565b61337990919063ffffffff16565b613a6590919063ffffffff16565b613a6590919063ffffffff16565b613a7e90919063ffffffff16565b6006600088815260200190815260200160002060020181905550505050505050565b60006005600084815260200190815260200160002060008373ffffffffffffffffffffffffffffffffffffffff1673ffffffffffffffffffffffffffffffffffffffff16815260200190815260200160002060020160009054906101000a900473ffffffffffffffffffffffffffffffffffffffff16905092915050565b611eff613dcb565b60066000838152602001908152602001600020600901600580602002604051908101604052809291908260058015611f4c576020028201915b815481526020019060010190808311611f38575b50505050509050919050565b60006005600084815260200190815260200160002060008373ffffffffffffffffffffffffffffffffffffffff1673ffffffffffffffffffffffffffffffffffffffff16815260200190815260200160002060000154905092915050565b6000809054906101000a900473ffffffffffffffffffffffffffffffffffffffff1673ffffffffffffffffffffffffffffffffffffffff163373ffffffffffffffffffffffffffffffffffffffff161461200c57fe5b600160009054906101000a900473ffffffffffffffffffffffffffffffffffffffff1673ffffffffffffffffffffffffffffffffffffffff1663358177736040518060400160405280600d81526020017f47616d65566172416e64466565000000000000000000000000000000000000008152506040518263ffffffff1660e01b81526004018080602001828103825283818151815260200191508051906020019080838360005b838110156120cf5780820151818401526020810190506120b4565b50505050905090810190601f1680156120fc5780820380516001836020036101000a031916815260200191505b509250505060206040518083038186803b15801561211957600080fd5b505afa15801561212d573d6000803e3d6000fd5b505050506040513d602081101561214357600080fd5b8101908080519060200190929190505050600260006101000a81548173ffffffffffffffffffffffffffffffffffffffff021916908373ffffffffffffffffffffffffffffffffffffffff160217905550600160009054906101000a900473ffffffffffffffffffffffffffffffffffffffff1673ffffffffffffffffffffffffffffffffffffffff1663358177736040518060400160405280600a81526020017f474d4765747465724442000000000000000000000000000000000000000000008152506040518263ffffffff1660e01b81526004018080602001828103825283818151815260200191508051906020019080838360005b8381101561225757808201518184015260208101905061223c565b50505050905090810190601f1680156122845780820380516001836020036101000a031916815260200191505b509250505060206040518083038186803b1580156122a157600080fd5b505afa1580156122b5573d6000803e3d6000fd5b505050506040513d60208110156122cb57600080fd5b8101908080519060200190929190505050600360006101000a81548173ffffffffffffffffffffffffffffffffffffffff021916908373ffffffffffffffffffffffffffffffffffffffff160217905550600160009054906101000a900473ffffffffffffffffffffffffffffffffffffffff1673ffffffffffffffffffffffffffffffffffffffff1663358177736040518060400160405280600b81526020017f486974735265736f6c76650000000000000000000000000000000000000000008152506040518263ffffffff1660e01b81526004018080602001828103825283818151815260200191508051906020019080838360005b838110156123df5780820151818401526020810190506123c4565b50505050905090810190601f16801561240c5780820380516001836020036101000a031916815260200191505b509250505060206040518083038186803b15801561242957600080fd5b505afa15801561243d573d6000803e3d6000fd5b505050506040513d602081101561245357600080fd5b8101908080519060200190929190505050600460006101000a81548173ffffffffffffffffffffffffffffffffffffffff021916908373ffffffffffffffffffffffffffffffffffffffff160217905550565b600460009054906101000a900473ffffffffffffffffffffffffffffffffffffffff1681565b6000809054906101000a900473ffffffffffffffffffffffffffffffffffffffff1681565b6000809054906101000a900473ffffffffffffffffffffffffffffffffffffffff1673ffffffffffffffffffffffffffffffffffffffff163373ffffffffffffffffffffffffffffffffffffffff161461254757fe5b80600160006101000a81548173ffffffffffffffffffffffffffffffffffffffff021916908373ffffffffffffffffffffffffffffffffffffffff16021790555050565b600073ffffffffffffffffffffffffffffffffffffffff163373ffffffffffffffffffffffffffffffffffffffff1614156125c257fe5b6126006040518060400160405280600b81526020017f73757065725f61646d696e000000000000000000000000000000000000000000815250613a9a565b612672576040517f08c379a00000000000000000000000000000000000000000000000000000000081526004018080602001828103825260108152602001807f4f6e6c792073757065722061646d696e0000000000000000000000000000000081525060200191505060405180910390fd5b61267b816133b0565b50565b600260009054906101000a900473ffffffffffffffffffffffffffffffffffffffff1681565b600060066000838152602001908152602001600020600101549050919050565b6005602052816000526040600020602052806000526040600020600091509150508060000154908060010160009054906101000a900460ff16908060010160019054906101000a900473ffffffffffffffffffffffffffffffffffffffff16908060020160009054906101000a900473ffffffffffffffffffffffffffffffffffffffff16905084565b600060066000838152602001908152602001600020600601549050919050565b6040518060400160405280600a81526020017f474d5365747465724442000000000000000000000000000000000000000000008152506127ad816130c7565b816005600086815260200190815260200160002060008573ffffffffffffffffffffffffffffffffffffffff1673ffffffffffffffffffffffffffffffffffffffff16815260200190815260200160002060010160016101000a81548173ffffffffffffffffffffffffffffffffffffffff021916908373ffffffffffffffffffffffffffffffffffffffff16021790555050505050565b6000806000806040518060400160405280600b81526020017f47616d654d616e6167657200000000000000000000000000000000000000000081525061288a816130c7565b600460009054906101000a900473ffffffffffffffffffffffffffffffffffffffff1673ffffffffffffffffffffffffffffffffffffffff1663c0eef7188a8a896040518463ffffffff1660e01b8152600401808481526020018373ffffffffffffffffffffffffffffffffffffffff1673ffffffffffffffffffffffffffffffffffffffff168152602001828152602001935050505060206040518083038186803b15801561293957600080fd5b505afa15801561294d573d6000803e3d6000fd5b505050506040513d602081101561296357600080fd5b81019080805190602001909291905050509250600460009054906101000a900473ffffffffffffffffffffffffffffffffffffffff1673ffffffffffffffffffffffffffffffffffffffff1663c0eef7188a89896040518463ffffffff1660e01b8152600401808481526020018373ffffffffffffffffffffffffffffffffffffffff1673ffffffffffffffffffffffffffffffffffffffff168152602001828152602001935050505060206040518083038186803b158015612a2557600080fd5b505afa158015612a39573d6000803e3d6000fd5b505050506040513d6020811015612a4f57600080fd5b81019080805190602001909291905050509150612b5683600360009054906101000a900473ffffffffffffffffffffffffffffffffffffffff1673ffffffffffffffffffffffffffffffffffffffff1663bacf524e8c8c6040518363ffffffff1660e01b8152600401808381526020018273ffffffffffffffffffffffffffffffffffffffff1673ffffffffffffffffffffffffffffffffffffffff1681526020019250505060206040518083038186803b158015612b0d57600080fd5b505afa158015612b21573d6000803e3d6000fd5b505050506040513d6020811015612b3757600080fd5b810190808051906020019092919050505061337990919063ffffffff16565b9250612c4c82600360009054906101000a900473ffffffffffffffffffffffffffffffffffffffff1673ffffffffffffffffffffffffffffffffffffffff1663bacf524e8c8b6040518363ffffffff1660e01b8152600401808381526020018273ffffffffffffffffffffffffffffffffffffffff1673ffffffffffffffffffffffffffffffffffffffff1681526020019250505060206040518083038186803b158015612c0357600080fd5b505afa158015612c17573d6000803e3d6000fd5b505050506040513d6020811015612c2d57600080fd5b810190808051906020019092919050505061337990919063ffffffff16565b915081831115612c6157879450869350612dba565b82821115612c7457869450879350612db9565b612c7c613ded565b600360009054906101000a900473ffffffffffffffffffffffffffffffffffffffff1673ffffffffffffffffffffffffffffffffffffffff1663589ac6a48b6040518263ffffffff1660e01b8152600401808281526020019150506101006040518083038186803b158015612cf057600080fd5b505afa158015612d04573d6000803e3d6000fd5b505050506040513d601f19601f82011682018060405250610100811015612d2a57600080fd5b81019080805190602001909291908051906020019092919080519060200190929190805190602001909291909190826040018051906020019092919080519060200190929190505050505094505050505080600160028110612d8857fe5b602002015181600060028110612d9a57fe5b60200201511115612db057889550879450612db7565b8795508894505b505b5b50945094509450949050565b60006005600084815260200190815260200160002060008373ffffffffffffffffffffffffffffffffffffffff1673ffffffffffffffffffffffffffffffffffffffff16815260200190815260200160002060010160009054906101000a900460ff16905092915050565b600160009054906101000a900473ffffffffffffffffffffffffffffffffffffffff1681565b6000809054906101000a900473ffffffffffffffffffffffffffffffffffffffff1673ffffffffffffffffffffffffffffffffffffffff163373ffffffffffffffffffffffffffffffffffffffff1614612ead57fe5b600073ffffffffffffffffffffffffffffffffffffffff168173ffffffffffffffffffffffffffffffffffffffff1614612f2257806000806101000a81548173ffffffffffffffffffffffffffffffffffffffff021916908373ffffffffffffffffffffffffffffffffffffffff1602179055505b50565b600060066000838152602001908152602001600020600801549050919050565b600060066000838152602001908152602001600020600001549050919050565b6000806000600360009054906101000a900473ffffffffffffffffffffffffffffffffffffffff1673ffffffffffffffffffffffffffffffffffffffff166315a40f49866040518263ffffffff1660e01b81526004018082815260200191505060806040518083038186803b158015612fdd57600080fd5b505afa158015612ff1573d6000803e3d6000fd5b505050506040513d608081101561300757600080fd5b81019080805190602001909291908051906020019092919080519060200190929190805190602001909291905050505050915091508373ffffffffffffffffffffffffffffffffffffffff168273ffffffffffffffffffffffffffffffffffffffff16141561307b576000925050506130c1565b8373ffffffffffffffffffffffffffffffffffffffff168173ffffffffffffffffffffffffffffffffffffffff1614156130ba576001925050506130c1565b6002925050505b92915050565b600073ffffffffffffffffffffffffffffffffffffffff16600160009054906101000a900473ffffffffffffffffffffffffffffffffffffffff1673ffffffffffffffffffffffffffffffffffffffff16141561318c576040517f08c379a00000000000000000000000000000000000000000000000000000000081526004018080602001828103825260088152602001807f4e6f2050726f787900000000000000000000000000000000000000000000000081525060200191505060405180910390fd5b6000600160009054906101000a900473ffffffffffffffffffffffffffffffffffffffff1673ffffffffffffffffffffffffffffffffffffffff166335817773836040518263ffffffff1660e01b81526004018080602001828103825283818151815260200191508051906020019080838360005b8381101561321c578082015181840152602081019050613201565b50505050905090810190601f1680156132495780820380516001836020036101000a031916815260200191505b509250505060206040518083038186803b15801561326657600080fd5b505afa15801561327a573d6000803e3d6000fd5b505050506040513d602081101561329057600080fd5b81019080805190602001909291905050509050600073ffffffffffffffffffffffffffffffffffffffff168173ffffffffffffffffffffffffffffffffffffffff1614156132da57fe5b8073ffffffffffffffffffffffffffffffffffffffff163373ffffffffffffffffffffffffffffffffffffffff161461335e576040517f08c379a000000000000000000000000000000000000000000000000000000000815260040180806020018281038252602d815260200180613ef0602d913960400191505060405180910390fd5b5050565b60008282111561336e57fe5b818303905092915050565b60008083141561338c57600090506133aa565b600082840290508284828161339d57fe5b04146133a557fe5b809150505b92915050565b6133b8613e0f565b600260009054906101000a900473ffffffffffffffffffffffffffffffffffffffff1673ffffffffffffffffffffffffffffffffffffffff1663aedcaed26040518163ffffffff1660e01b815260040160206040518083038186803b15801561342057600080fd5b505afa158015613434573d6000803e3d6000fd5b505050506040513d602081101561344a57600080fd5b8101908080519060200190929190505050816000018181525050600260009054906101000a900473ffffffffffffffffffffffffffffffffffffffff1673ffffffffffffffffffffffffffffffffffffffff1663b1c195156040518163ffffffff1660e01b815260040160206040518083038186803b1580156134cc57600080fd5b505afa1580156134e0573d6000803e3d6000fd5b505050506040513d60208110156134f657600080fd5b81019080805190602001909291905050508160200181815250506000816040018181525050600260009054906101000a900473ffffffffffffffffffffffffffffffffffffffff1673ffffffffffffffffffffffffffffffffffffffff16639840060f6040518163ffffffff1660e01b815260040160206040518083038186803b15801561358357600080fd5b505afa158015613597573d6000803e3d6000fd5b505050506040513d60208110156135ad57600080fd5b8101908080519060200190929190505050816060018181525050600260009054906101000a900473ffffffffffffffffffffffffffffffffffffffff1673ffffffffffffffffffffffffffffffffffffffff166333dbee176040518163ffffffff1660e01b815260040160206040518083038186803b15801561362f57600080fd5b505afa158015613643573d6000803e3d6000fd5b505050506040513d602081101561365957600080fd5b8101908080519060200190929190505050816080018181525050600260009054906101000a900473ffffffffffffffffffffffffffffffffffffffff1673ffffffffffffffffffffffffffffffffffffffff166368afa5416040518163ffffffff1660e01b815260040160206040518083038186803b1580156136db57600080fd5b505afa1580156136ef573d6000803e3d6000fd5b505050506040513d602081101561370557600080fd5b81019080805190602001909291905050508160a0018181525050600260009054906101000a900473ffffffffffffffffffffffffffffffffffffffff1673ffffffffffffffffffffffffffffffffffffffff16633e4c883f6040518163ffffffff1660e01b815260040160a06040518083038186803b15801561378757600080fd5b505afa15801561379b573d6000803e3d6000fd5b505050506040513d601f19601f8201168201806040525060a08110156137c057600080fd5b8101908091905050816101200181905250600260009054906101000a900473ffffffffffffffffffffffffffffffffffffffff1673ffffffffffffffffffffffffffffffffffffffff1663d693a9896040518163ffffffff1660e01b815260040160206040518083038186803b15801561383957600080fd5b505afa15801561384d573d6000803e3d6000fd5b505050506040513d602081101561386357600080fd5b81019080805190602001909291905050508160c0018181525050600260009054906101000a900473ffffffffffffffffffffffffffffffffffffffff1673ffffffffffffffffffffffffffffffffffffffff1663ae1d48a86040518163ffffffff1660e01b815260040160206040518083038186803b1580156138e557600080fd5b505afa1580156138f9573d6000803e3d6000fd5b505050506040513d602081101561390f57600080fd5b81019080805190602001909291905050508160e0018181525050600260009054906101000a900473ffffffffffffffffffffffffffffffffffffffff1673ffffffffffffffffffffffffffffffffffffffff16631697e4b66040518163ffffffff1660e01b815260040160206040518083038186803b15801561399157600080fd5b505afa1580156139a5573d6000803e3d6000fd5b505050506040513d60208110156139bb57600080fd5b8101908080519060200190929190505050816101000181815250508060066000848152602001908152602001600020600082015181600001556020820151816001015560408201518160020155606082015181600301556080820151816004015560a0820151816005015560c0820151816006015560e08201518160070155610100820151816008015561012082015181600901906005613a5d929190613e68565b509050505050565b600080828481613a7157fe5b0490508091505092915050565b600080828401905083811015613a9057fe5b8091505092915050565b6000600160009054906101000a900473ffffffffffffffffffffffffffffffffffffffff1673ffffffffffffffffffffffffffffffffffffffff1663358177736040518060400160405280600681526020017f526f6c65444200000000000000000000000000000000000000000000000000008152506040518263ffffffff1660e01b81526004018080602001828103825283818151815260200191508051906020019080838360005b83811015613b5f578082015181840152602081019050613b44565b50505050905090810190601f168015613b8c5780820380516001836020036101000a031916815260200191505b509250505060206040518083038186803b158015613ba957600080fd5b505afa158015613bbd573d6000803e3d6000fd5b505050506040513d6020811015613bd357600080fd5b810190808051906020019092919050505073ffffffffffffffffffffffffffffffffffffffff16636c9cd09783613c08613d16565b6040518363ffffffff1660e01b815260040180806020018373ffffffffffffffffffffffffffffffffffffffff1673ffffffffffffffffffffffffffffffffffffffff168152602001828103825284818151815260200191508051906020019080838360005b83811015613c89578082015181840152602081019050613c6e565b50505050905090810190601f168015613cb65780820380516001836020036101000a031916815260200191505b50935050505060206040518083038186803b158015613cd457600080fd5b505afa158015613ce8573d6000803e3d6000fd5b505050506040513d6020811015613cfe57600080fd5b81019080805190602001909291905050509050919050565b6000600160009054906101000a900473ffffffffffffffffffffffffffffffffffffffff1673ffffffffffffffffffffffffffffffffffffffff163373ffffffffffffffffffffffffffffffffffffffff1614613d7557339050613dc8565b6000601436036000602052601481602c37602051915050600073ffffffffffffffffffffffffffffffffffffffff168173ffffffffffffffffffffffffffffffffffffffff161415613dc357fe5b809150505b90565b6040518060a00160405280600590602082028038833980820191505090505090565b6040518060400160405280600290602082028038833980820191505090505090565b604051806101400160405280600081526020016000815260200160008152602001600081526020016000815260200160008152602001600081526020016000815260200160008152602001613e62613ea8565b81525090565b8260058101928215613e97579160200282015b82811115613e96578251825591602001919060010190613e7b565b5b509050613ea49190613eca565b5090565b6040518060a00160405280600590602082028038833980820191505090505090565b613eec91905b80821115613ee8576000816000905550600101613ed0565b5090565b9056fe416363657373206973206f6e6c7920616c6c6f7765642066726f6d20737065636966696320636f6e7472616374a265627a7a72315820d41eba66b9032883b49d3e1fa1722e7f80ce7c2b58d7eb7931d654295b18b17064736f6c634300050d0032",
  "source": "pragma solidity ^0.5.5;\r\n\r\nimport '../proxy/Proxied.sol';\r\nimport \"../../GameVarAndFee.sol\";\r\nimport \"../databases/GMGetterDB.sol\";\r\nimport \"../../libs/SafeMath.sol\";\r\nimport \"../algorithm/HitsResolveAlgo.sol\";\r\nimport '../../authority/Guard.sol';\r\n\r\ncontract GameStore is Proxied, Guard {\r\n\r\n    using SafeMath for uint256;\r\n\r\n    GameVarAndFee public gameVarAndFee;\r\n    GMGetterDB public gmGetterDB;\r\n    HitsResolve public hitsResolve;\r\n\r\n    struct Game {\r\n        uint randomNum; //when pressing start\r\n        bool pressedStart;\r\n        address topBettor;\r\n        address secondTopBettor;\r\n    }\r\n\r\n    struct GlobalSettings {\r\n        uint bettingFee;\r\n        uint ticketFee;\r\n        uint redemptionFee;\r\n        uint kittieHellExpirationTime;\r\n        uint honeypotExpirationTime;\r\n        uint minimumContributors;\r\n        uint finalizeRewards;\r\n        uint timeExtension;\r\n        uint performanceTime;\r\n        uint[5] distributionRates;\r\n    }\r\n\r\n    //Players info in a game\r\n    mapping(uint => mapping(address => Game)) public gameByPlayer;\r\n    mapping(uint => GlobalSettings) public gameSettings;\r\n\r\n    function initialize() external onlyOwner {\r\n        gameVarAndFee = GameVarAndFee(proxy.getContract(CONTRACT_NAME_GAMEVARANDFEE));\r\n        gmGetterDB = GMGetterDB(proxy.getContract(CONTRACT_NAME_GM_GETTER_DB));\r\n        hitsResolve = HitsResolve(proxy.getContract(CONTRACT_NAME_HITSRESOLVE));\r\n    }\r\n\r\n    function lock(uint gameId) internal{\r\n        GlobalSettings memory globalSettings;\r\n\r\n        globalSettings.bettingFee = gameVarAndFee.getBettingFee();\r\n        globalSettings.ticketFee = gameVarAndFee.getTicketFee();\r\n        globalSettings.redemptionFee = 0;  // initialize as 0, updating is done when game ends in function finaliz() in gameManager\r\n        globalSettings.kittieHellExpirationTime = gameVarAndFee.getKittieExpiry();\r\n        globalSettings.honeypotExpirationTime = gameVarAndFee.getHoneypotExpiration();\r\n        globalSettings.minimumContributors = gameVarAndFee.getMinimumContributors();\r\n        globalSettings.distributionRates = gameVarAndFee.getDistributionRates();\r\n        globalSettings.finalizeRewards = gameVarAndFee.getFinalizeRewards();\r\n        globalSettings.timeExtension = gameVarAndFee.getTimeExtension();\r\n        globalSettings.performanceTime = gameVarAndFee.getPerformanceTimeCheck();\r\n\r\n        gameSettings[gameId] = globalSettings;\r\n    }\r\n\r\n    function lockVars(uint gameId) external onlyContract(CONTRACT_NAME_GAMECREATION){\r\n        lock(gameId);\r\n    }\r\n\r\n    function lockVarsAdmin(uint gameId) external onlySuperAdmin{\r\n        lock(gameId);\r\n    }\r\n\r\n\r\n    function getDistributionRates(uint gameId) public view returns(uint[5] memory){\r\n        return gameSettings[gameId].distributionRates;\r\n    }\r\n\r\n    function updateKittieRedemptionFee\r\n    (\r\n        uint256 gameId\r\n    )\r\n        public\r\n        // temporarily comment out onlyContract(CONTRACT_NAME_GAMEMANAGER) for truffle testing GameStore-kittieRedemptionFee.test.js\r\n        // please uncomment line 71 once testing is done\r\n        //onlyContract(CONTRACT_NAME_GAMEMANAGER)\r\n    {\r\n        uint256 percentageHoneyPot = gameVarAndFee.getPercentageForKittieRedemptionFee();\r\n        (uint256 totalEthFunds, uint256 totalKTYFunds) = gmGetterDB.getFinalHoneypot(gameId);\r\n        require(percentageHoneyPot > 0 && totalKTYFunds > 0 && totalEthFunds > 0);\r\n\r\n        uint256 ethUsdPrice = gameVarAndFee.getEthUsdPrice();\r\n        uint256 usdKTYPrice = gameVarAndFee.getUsdKTYPrice();\r\n\r\n        gameSettings[gameId].redemptionFee = (totalEthFunds.mul(ethUsdPrice).mul(percentageHoneyPot).div(usdKTYPrice).div(100))\r\n                                       .add((totalKTYFunds.mul(percentageHoneyPot).div(100)));\r\n    }\r\n\r\n    function getKittieExpirationTime(uint gameId) public view returns(uint){\r\n        return  gameSettings[gameId].kittieHellExpirationTime;\r\n    }\r\n\r\n    function getKittieRedemptionFee(uint gameId) public view returns(uint){\r\n        return  gameSettings[gameId].redemptionFee;\r\n    }\r\n    \r\n    function getHoneypotExpiration(uint gameId) public view returns(uint){\r\n        return  gameSettings[gameId].honeypotExpirationTime;\r\n    }\r\n\r\n\r\n    function start(uint gameId, address player, uint randomNum) external onlyContract(CONTRACT_NAME_GAMEMANAGER){\r\n        gameByPlayer[gameId][player].pressedStart = true;\r\n        gameByPlayer[gameId][player].randomNum = randomNum;\r\n    }\r\n\r\n    function didHitStart(uint gameId, address player) public view returns(bool){\r\n        return gameByPlayer[gameId][player].pressedStart;\r\n    }\r\n\r\n    function getRandom(uint gameId, address player) public view returns(uint){\r\n        return gameByPlayer[gameId][player].randomNum;\r\n    }\r\n\r\n    function updateTopBettor(uint gameId, address player, address newTopBettor) external onlyContract(CONTRACT_NAME_GM_SETTER_DB){\r\n        gameByPlayer[gameId][player].topBettor = newTopBettor;\r\n    }\r\n\r\n    function getTopBettor(uint gameId, address player) public view returns(address){\r\n        return gameByPlayer[gameId][player].topBettor;\r\n    }\r\n\r\n    function updateSecondTopBettor(uint gameId, address player, address newSecondTopBettor) external onlyContract(CONTRACT_NAME_GM_SETTER_DB){\r\n        gameByPlayer[gameId][player].secondTopBettor = newSecondTopBettor;\r\n    }\r\n\r\n    function getSecondTopBettor(uint gameId, address player) public view returns(address){\r\n        return gameByPlayer[gameId][player].secondTopBettor;\r\n    }\r\n\r\n    function getTicketFee(uint gameId) public view returns(uint){\r\n        return gameSettings[gameId].ticketFee;\r\n    }\r\n\r\n    function getBettingFee(uint gameId) public view returns(uint){\r\n        return gameSettings[gameId].bettingFee;\r\n    }\r\n\r\n    function getMinimumContributors(uint gameId) public view returns(uint){\r\n        return gameSettings[gameId].minimumContributors;\r\n    }\r\n\r\n    function getFinalizeRewards(uint gameId) public view returns(uint){\r\n        return gameSettings[gameId].finalizeRewards;\r\n    }\r\n\r\n    function getPerformanceTimeCheck(uint gameId) public view returns(uint){\r\n        return gameSettings[gameId].performanceTime;\r\n    }\r\n\r\n    function getTimeExtension(uint gameId) public view returns(uint){\r\n        return gameSettings[gameId].timeExtension;\r\n    }\r\n\r\n    function updateTopbettors(uint256 _gameId, address _account, address _supportedPlayer)\r\n        external\r\n        onlyContract(CONTRACT_NAME_GAMEMANAGER)\r\n        // onlyExistentGame(_gameId)\r\n    {\r\n\r\n        address topBettor = getTopBettor(_gameId, _supportedPlayer);\r\n        (uint256 bettorTotal,,,) = gmGetterDB.getSupporterInfo(_gameId, _account);\r\n        (uint256 topBettorEth,,,) = gmGetterDB.getSupporterInfo(_gameId, topBettor);\r\n        \r\n        if(topBettor != _account){\r\n            if (bettorTotal > topBettorEth){\r\n                //If topBettor is already the account, dont update\r\n                gameByPlayer[_gameId][_supportedPlayer].topBettor = _account;\r\n                gameByPlayer[_gameId][_supportedPlayer].secondTopBettor = topBettor;\r\n            }\r\n            else {\r\n                address secondTopBettor = getSecondTopBettor(_gameId, _supportedPlayer);\r\n                (uint256 secondTopBettorEth,,,) = gmGetterDB.getSupporterInfo(_gameId, secondTopBettor);\r\n                if (bettorTotal > secondTopBettorEth && secondTopBettor != _account){\r\n                    gameByPlayer[_gameId][_supportedPlayer].secondTopBettor = _account;\r\n                }\r\n            }\r\n        }\r\n    }\r\n\r\n    function getOpponent(uint gameId, address player) public view returns(address){\r\n        (address playerBlack, address playerRed,,) = gmGetterDB.getGamePlayers(gameId);\r\n        if(playerBlack == player) return playerRed;\r\n        return playerBlack;\r\n    }\r\n\r\n    function getCorner(uint gameId, address player) public view returns(uint){\r\n        (address playerBlack, address playerRed,,) = gmGetterDB.getGamePlayers(gameId);\r\n        if(playerBlack == player) return 0;\r\n        if(playerRed == player) return 1;\r\n        return 2;\r\n    }\r\n\r\n    function calculateWinner\r\n    (\r\n        uint gameId, address playerBlack, address playerRed, uint random\r\n    )\r\n        external view\r\n        onlyContract(CONTRACT_NAME_GAMEMANAGER)\r\n        returns(address winner, address loser, uint pointsBlack, uint pointsRed)\r\n    {\r\n        pointsBlack = hitsResolve.calculateFinalPoints(gameId, playerBlack, random);\r\n        pointsRed = hitsResolve.calculateFinalPoints(gameId, playerRed, random);\r\n\r\n        //Added to make game more balanced\r\n        pointsBlack = (gmGetterDB.getTotalBet(gameId, playerBlack)).mul(pointsBlack);\r\n        pointsRed = (gmGetterDB.getTotalBet(gameId, playerRed)).mul(pointsRed);\r\n\r\n        if (pointsBlack > pointsRed)\r\n        {\r\n            winner = playerBlack;\r\n            loser = playerRed;\r\n        }\r\n        else if(pointsRed > pointsBlack)\r\n        {\r\n            winner = playerRed;\r\n            loser = playerBlack;\r\n        }\r\n        //If there is a tie in point, define by total eth bet\r\n        else\r\n        {\r\n            (,,,,uint[2] memory ethByCorner,,) = gmGetterDB.getHoneypotInfo(gameId);\r\n            if(ethByCorner[0] > ethByCorner[1] ){\r\n               winner = playerBlack;\r\n                loser = playerRed;\r\n            }\r\n            else{\r\n                winner = playerRed;\r\n                loser = playerBlack;\r\n            }\r\n        }\r\n    }\r\n\r\n    function checkPerformanceHelper(uint gameId, uint gameEndTime) external returns(bool){\r\n        //each time 1 minute before game ends\r\n        uint performanceTimeCheck = gameVarAndFee.getPerformanceTimeCheck();\r\n        \r\n        if(gameEndTime.sub(performanceTimeCheck) <= now) {\r\n            //get initial jackpot, need endowment to send this when creating honeypot\r\n            (,,uint initialEth, uint currentJackpotEth,,,) = gmGetterDB.getHoneypotInfo(gameId);\r\n\r\n            if(currentJackpotEth < initialEth.mul(10)) return true;\r\n            return false;\r\n        }\r\n    }\r\n\r\n    \r\n}",
  "sourcePath": "C:\\Users\\Alex\\Desktop\\MyProjects\\alpha\\contracts\\modules\\gamemanager\\GameStore.sol",
  "compiler": {
    "name": "solc",
    "version": "0.5.13+commit.5b0b510c.Emscripten.clang"
  },
  "schemaVersion": "3.0.19",
  "updatedAt": "2019-11-21T00:15:07.010Z",
  "networkType": "ethereum",
  "devdoc": {
    "methods": {}
  },
  "userdoc": {
    "methods": {
      "setProxy(address)": {
        "notice": "Set/update address of Proxy contract"
      }
    }
  }
}