{
  "contractName": "GameStore",
  "abi": [
    {
      "constant": true,
      "inputs": [
        {
          "internalType": "uint256",
          "name": "",
          "type": "uint256"
        },
        {
          "internalType": "address",
          "name": "",
          "type": "address"
        }
      ],
      "name": "gameByPlayer",
      "outputs": [
        {
          "internalType": "uint256",
          "name": "randomNum",
          "type": "uint256"
        },
        {
          "internalType": "bool",
          "name": "pressedStart",
          "type": "bool"
        },
        {
          "internalType": "address",
          "name": "topBettor",
          "type": "address"
        },
        {
          "internalType": "address",
          "name": "secondTopBettor",
          "type": "address"
        }
      ],
      "payable": false,
      "stateMutability": "view",
      "type": "function"
    },
    {
      "constant": true,
      "inputs": [
        {
          "internalType": "uint256",
          "name": "",
          "type": "uint256"
        }
      ],
      "name": "gameSettings",
      "outputs": [
        {
          "internalType": "uint256",
          "name": "bettingFee",
          "type": "uint256"
        },
        {
          "internalType": "uint256",
          "name": "ticketFee",
          "type": "uint256"
        },
        {
          "internalType": "uint256",
          "name": "redemptionFee",
          "type": "uint256"
        },
        {
          "internalType": "uint256",
          "name": "kittieHellExpirationTime",
          "type": "uint256"
        },
        {
          "internalType": "uint256",
          "name": "honeypotExpirationTime",
          "type": "uint256"
        },
        {
          "internalType": "uint256",
          "name": "minimumContributors",
          "type": "uint256"
        },
        {
          "internalType": "uint256",
          "name": "timeExtension",
          "type": "uint256"
        },
        {
          "internalType": "uint256",
          "name": "performanceTime",
          "type": "uint256"
        }
      ],
      "payable": false,
      "stateMutability": "view",
      "type": "function"
    },
    {
      "constant": true,
      "inputs": [],
      "name": "gameVarAndFee",
      "outputs": [
        {
          "internalType": "contract GameVarAndFee",
          "name": "",
          "type": "address"
        }
      ],
      "payable": false,
      "stateMutability": "view",
      "type": "function"
    },
    {
      "constant": true,
      "inputs": [],
      "name": "gmGetterDB",
      "outputs": [
        {
          "internalType": "contract GMGetterDB",
          "name": "",
          "type": "address"
        }
      ],
      "payable": false,
      "stateMutability": "view",
      "type": "function"
    },
    {
      "constant": true,
      "inputs": [],
      "name": "hitsResolve",
      "outputs": [
        {
          "internalType": "contract HitsResolve",
          "name": "",
          "type": "address"
        }
      ],
      "payable": false,
      "stateMutability": "view",
      "type": "function"
    },
    {
      "constant": true,
      "inputs": [],
      "name": "owner",
      "outputs": [
        {
          "internalType": "address payable",
          "name": "",
          "type": "address"
        }
      ],
      "payable": false,
      "stateMutability": "view",
      "type": "function"
    },
    {
      "constant": true,
      "inputs": [],
      "name": "proxy",
      "outputs": [
        {
          "internalType": "contract ProxyBase",
          "name": "",
          "type": "address"
        }
      ],
      "payable": false,
      "stateMutability": "view",
      "type": "function"
    },
    {
      "constant": true,
      "inputs": [],
      "name": "scheduler",
      "outputs": [
        {
          "internalType": "contract Scheduler",
          "name": "",
          "type": "address"
        }
      ],
      "payable": false,
      "stateMutability": "view",
      "type": "function"
    },
    {
      "constant": false,
      "inputs": [
        {
          "internalType": "contract ProxyBase",
          "name": "_proxy",
          "type": "address"
        }
      ],
      "name": "setProxy",
      "outputs": [],
      "payable": false,
      "stateMutability": "nonpayable",
      "type": "function"
    },
    {
      "constant": true,
      "inputs": [],
      "name": "timeFrame",
      "outputs": [
        {
          "internalType": "contract TimeFrame",
          "name": "",
          "type": "address"
        }
      ],
      "payable": false,
      "stateMutability": "view",
      "type": "function"
    },
    {
      "constant": false,
      "inputs": [
        {
          "internalType": "address payable",
          "name": "newOwner",
          "type": "address"
        }
      ],
      "name": "transferOwnership",
      "outputs": [],
      "payable": false,
      "stateMutability": "nonpayable",
      "type": "function"
    },
    {
      "constant": false,
      "inputs": [],
      "name": "initialize",
      "outputs": [],
      "payable": false,
      "stateMutability": "nonpayable",
      "type": "function"
    },
    {
      "constant": false,
      "inputs": [
        {
          "internalType": "uint256",
          "name": "gameId",
          "type": "uint256"
        }
      ],
      "name": "lockVars",
      "outputs": [],
      "payable": false,
      "stateMutability": "nonpayable",
      "type": "function"
    },
    {
      "constant": false,
      "inputs": [
        {
          "internalType": "uint256",
          "name": "gameId",
          "type": "uint256"
        }
      ],
      "name": "lockVarsAdmin",
      "outputs": [],
      "payable": false,
      "stateMutability": "nonpayable",
      "type": "function"
    },
    {
      "constant": true,
      "inputs": [
        {
          "internalType": "uint256",
          "name": "gameId",
          "type": "uint256"
        }
      ],
      "name": "getDistributionRates",
      "outputs": [
        {
          "internalType": "uint256[5]",
          "name": "",
          "type": "uint256[5]"
        }
      ],
      "payable": false,
      "stateMutability": "view",
      "type": "function"
    },
    {
      "constant": false,
      "inputs": [
        {
          "internalType": "uint256",
          "name": "gameId",
          "type": "uint256"
        }
      ],
      "name": "updateKittieRedemptionFee",
      "outputs": [],
      "payable": false,
      "stateMutability": "nonpayable",
      "type": "function"
    },
    {
      "constant": false,
      "inputs": [
        {
          "internalType": "uint256",
          "name": "gameId",
          "type": "uint256"
        }
      ],
      "name": "updateTicketFee",
      "outputs": [],
      "payable": false,
      "stateMutability": "nonpayable",
      "type": "function"
    },
    {
      "constant": false,
      "inputs": [
        {
          "internalType": "uint256",
          "name": "gameId",
          "type": "uint256"
        }
      ],
      "name": "updateBettingFee",
      "outputs": [],
      "payable": false,
      "stateMutability": "nonpayable",
      "type": "function"
    },
    {
      "constant": true,
      "inputs": [
        {
          "internalType": "uint256",
          "name": "gameId",
          "type": "uint256"
        }
      ],
      "name": "getKittieExpirationTime",
      "outputs": [
        {
          "internalType": "uint256",
          "name": "",
          "type": "uint256"
        }
      ],
      "payable": false,
      "stateMutability": "view",
      "type": "function"
    },
    {
      "constant": true,
      "inputs": [
        {
          "internalType": "uint256",
          "name": "gameId",
          "type": "uint256"
        }
      ],
      "name": "getKittieRedemptionFee",
      "outputs": [
        {
          "internalType": "uint256",
          "name": "",
          "type": "uint256"
        },
        {
          "internalType": "uint256",
          "name": "",
          "type": "uint256"
        }
      ],
      "payable": false,
      "stateMutability": "view",
      "type": "function"
    },
    {
      "constant": true,
      "inputs": [
        {
          "internalType": "uint256",
          "name": "gameId",
          "type": "uint256"
        }
      ],
      "name": "getHoneypotExpiration",
      "outputs": [
        {
          "internalType": "uint256",
          "name": "",
          "type": "uint256"
        }
      ],
      "payable": false,
      "stateMutability": "view",
      "type": "function"
    },
    {
      "constant": false,
      "inputs": [
        {
          "internalType": "uint256",
          "name": "gameId",
          "type": "uint256"
        },
        {
          "internalType": "address",
          "name": "player",
          "type": "address"
        },
        {
          "internalType": "uint256",
          "name": "randomNum",
          "type": "uint256"
        }
      ],
      "name": "start",
      "outputs": [],
      "payable": false,
      "stateMutability": "nonpayable",
      "type": "function"
    },
    {
      "constant": true,
      "inputs": [
        {
          "internalType": "uint256",
          "name": "gameId",
          "type": "uint256"
        },
        {
          "internalType": "address",
          "name": "player",
          "type": "address"
        }
      ],
      "name": "didHitStart",
      "outputs": [
        {
          "internalType": "bool",
          "name": "",
          "type": "bool"
        }
      ],
      "payable": false,
      "stateMutability": "view",
      "type": "function"
    },
    {
      "constant": true,
      "inputs": [
        {
          "internalType": "uint256",
          "name": "gameId",
          "type": "uint256"
        },
        {
          "internalType": "address",
          "name": "player",
          "type": "address"
        }
      ],
      "name": "getRandom",
      "outputs": [
        {
          "internalType": "uint256",
          "name": "",
          "type": "uint256"
        }
      ],
      "payable": false,
      "stateMutability": "view",
      "type": "function"
    },
    {
      "constant": false,
      "inputs": [
        {
          "internalType": "uint256",
          "name": "gameId",
          "type": "uint256"
        },
        {
          "internalType": "address",
          "name": "player",
          "type": "address"
        },
        {
          "internalType": "address",
          "name": "newTopBettor",
          "type": "address"
        }
      ],
      "name": "updateTopBettor",
      "outputs": [],
      "payable": false,
      "stateMutability": "nonpayable",
      "type": "function"
    },
    {
      "constant": true,
      "inputs": [
        {
          "internalType": "uint256",
          "name": "gameId",
          "type": "uint256"
        },
        {
          "internalType": "address",
          "name": "player",
          "type": "address"
        }
      ],
      "name": "getTopBettor",
      "outputs": [
        {
          "internalType": "address",
          "name": "",
          "type": "address"
        }
      ],
      "payable": false,
      "stateMutability": "view",
      "type": "function"
    },
    {
      "constant": false,
      "inputs": [
        {
          "internalType": "uint256",
          "name": "gameId",
          "type": "uint256"
        },
        {
          "internalType": "address",
          "name": "player",
          "type": "address"
        },
        {
          "internalType": "address",
          "name": "newSecondTopBettor",
          "type": "address"
        }
      ],
      "name": "updateSecondTopBettor",
      "outputs": [],
      "payable": false,
      "stateMutability": "nonpayable",
      "type": "function"
    },
    {
      "constant": true,
      "inputs": [
        {
          "internalType": "uint256",
          "name": "gameId",
          "type": "uint256"
        },
        {
          "internalType": "address",
          "name": "player",
          "type": "address"
        }
      ],
      "name": "getSecondTopBettor",
      "outputs": [
        {
          "internalType": "address",
          "name": "",
          "type": "address"
        }
      ],
      "payable": false,
      "stateMutability": "view",
      "type": "function"
    },
    {
      "constant": true,
      "inputs": [
        {
          "internalType": "uint256",
          "name": "gameId",
          "type": "uint256"
        }
      ],
      "name": "getTicketFee",
      "outputs": [
        {
          "internalType": "uint256",
          "name": "",
          "type": "uint256"
        },
        {
          "internalType": "uint256",
          "name": "",
          "type": "uint256"
        }
      ],
      "payable": false,
      "stateMutability": "view",
      "type": "function"
    },
    {
      "constant": true,
      "inputs": [
        {
          "internalType": "uint256",
          "name": "gameId",
          "type": "uint256"
        }
      ],
      "name": "getBettingFee",
      "outputs": [
        {
          "internalType": "uint256",
          "name": "",
          "type": "uint256"
        },
        {
          "internalType": "uint256",
          "name": "",
          "type": "uint256"
        }
      ],
      "payable": false,
      "stateMutability": "view",
      "type": "function"
    },
    {
      "constant": true,
      "inputs": [
        {
          "internalType": "uint256",
          "name": "gameId",
          "type": "uint256"
        }
      ],
      "name": "getMinimumContributors",
      "outputs": [
        {
          "internalType": "uint256",
          "name": "",
          "type": "uint256"
        }
      ],
      "payable": false,
      "stateMutability": "view",
      "type": "function"
    },
    {
      "constant": true,
      "inputs": [
        {
          "internalType": "uint256",
          "name": "gameId",
          "type": "uint256"
        }
      ],
      "name": "getPerformanceTimeCheck",
      "outputs": [
        {
          "internalType": "uint256",
          "name": "",
          "type": "uint256"
        }
      ],
      "payable": false,
      "stateMutability": "view",
      "type": "function"
    },
    {
      "constant": true,
      "inputs": [
        {
          "internalType": "uint256",
          "name": "gameId",
          "type": "uint256"
        }
      ],
      "name": "getTimeExtension",
      "outputs": [
        {
          "internalType": "uint256",
          "name": "",
          "type": "uint256"
        }
      ],
      "payable": false,
      "stateMutability": "view",
      "type": "function"
    },
    {
      "constant": false,
      "inputs": [
        {
          "internalType": "uint256",
          "name": "_gameId",
          "type": "uint256"
        },
        {
          "internalType": "address",
          "name": "_account",
          "type": "address"
        },
        {
          "internalType": "address",
          "name": "_supportedPlayer",
          "type": "address"
        }
      ],
      "name": "updateTopbettors",
      "outputs": [],
      "payable": false,
      "stateMutability": "nonpayable",
      "type": "function"
    },
    {
      "constant": true,
      "inputs": [
        {
          "internalType": "uint256",
          "name": "gameId",
          "type": "uint256"
        },
        {
          "internalType": "address",
          "name": "player",
          "type": "address"
        }
      ],
      "name": "getOpponent",
      "outputs": [
        {
          "internalType": "address",
          "name": "",
          "type": "address"
        }
      ],
      "payable": false,
      "stateMutability": "view",
      "type": "function"
    },
    {
      "constant": true,
      "inputs": [
        {
          "internalType": "uint256",
          "name": "gameId",
          "type": "uint256"
        },
        {
          "internalType": "address",
          "name": "player",
          "type": "address"
        }
      ],
      "name": "getCorner",
      "outputs": [
        {
          "internalType": "uint256",
          "name": "",
          "type": "uint256"
        }
      ],
      "payable": false,
      "stateMutability": "view",
      "type": "function"
    },
    {
      "constant": true,
      "inputs": [
        {
          "internalType": "uint256",
          "name": "gameId",
          "type": "uint256"
        },
        {
          "internalType": "address",
          "name": "playerBlack",
          "type": "address"
        },
        {
          "internalType": "address",
          "name": "playerRed",
          "type": "address"
        },
        {
          "internalType": "uint256",
          "name": "random",
          "type": "uint256"
        }
      ],
      "name": "calculateWinner",
      "outputs": [
        {
          "internalType": "address",
          "name": "winner",
          "type": "address"
        },
        {
          "internalType": "address",
          "name": "loser",
          "type": "address"
        },
        {
          "internalType": "uint256",
          "name": "pointsBlack",
          "type": "uint256"
        },
        {
          "internalType": "uint256",
          "name": "pointsRed",
          "type": "uint256"
        }
      ],
      "payable": false,
      "stateMutability": "view",
      "type": "function"
    },
    {
      "constant": false,
      "inputs": [],
      "name": "startAfterCancel",
      "outputs": [],
      "payable": false,
      "stateMutability": "nonpayable",
      "type": "function"
    },
    {
      "constant": false,
      "inputs": [
        {
          "internalType": "uint256",
          "name": "gameStartTime",
          "type": "uint256"
        }
      ],
      "name": "startManually",
      "outputs": [
        {
          "internalType": "bool",
          "name": "",
          "type": "bool"
        }
      ],
      "payable": false,
      "stateMutability": "nonpayable",
      "type": "function"
    },
    {
      "constant": false,
      "inputs": [],
      "name": "checkGame",
      "outputs": [
        {
          "internalType": "bool",
          "name": "",
          "type": "bool"
        }
      ],
      "payable": false,
      "stateMutability": "nonpayable",
      "type": "function"
    },
    {
      "constant": false,
      "inputs": [],
      "name": "createGameAndEpoch",
      "outputs": [],
      "payable": false,
      "stateMutability": "nonpayable",
      "type": "function"
    }
  ],
  "bytecode": "0x6080604052336000806101000a81548173ffffffffffffffffffffffffffffffffffffffff021916908373ffffffffffffffffffffffffffffffffffffffff160217905550615f4d806100536000396000f3fe608060405234801561001057600080fd5b50600436106102535760003560e01c80637b17998811610146578063b83d8c52116100c3578063ebff754a11610087578063ebff754a14610db5578063ec55688914610e1b578063f2fde38b14610e65578063f3ef7d2c14610ea9578063f58f32cf14610eeb578063f9ccbdf214610f3457610253565b8063b83d8c5214610b27578063c1dc2ddc14610bfa578063c97d996914610c04578063cefc482614610c72578063d1ad17bf14610d6b57610253565b806397107d6d1161010a57806397107d6d14610a005780639dac052e14610a44578063a3b3bd7b14610a72578063aa84869f14610abc578063b35a194e14610b0557610253565b80637b179988146108ea5780638129fc1c146109185780638ad7877a146109225780638b13b64b1461096c5780638da5cb5b146109b657610253565b806331856c71116101d457806353d820f91161019857806353d820f9146106f45780635daaf798146107625780635f87206d146107905780636991b5bf1461081e5780636e47c6351461088857610253565b806331856c711461056e57806331fa7067146105b05780633422476d1461063e5780633c38d0a91461066c578063477d2e03146106ae57610253565b8063158d39cb1161021b578063158d39cb146103eb57806316805a29146104435780631fc75180146104d1578063228d8dcb1461051b578063299202991461052557610253565b806305931a3c146102585780630bc644f5146102cb5780630c03955f146103395780630d1fd67a146103675780630d8d7aba146103a9575b600080fd5b6102846004803603602081101561026e57600080fd5b8101908080359060200190929190505050610f96565b604051808981526020018881526020018781526020018681526020018581526020018481526020018381526020018281526020019850505050505050505060405180910390f35b610337600480360360608110156102e157600080fd5b8101908080359060200190929190803573ffffffffffffffffffffffffffffffffffffffff169060200190929190803573ffffffffffffffffffffffffffffffffffffffff169060200190929190505050610fde565b005b6103656004803603602081101561034f57600080fd5b8101908080359060200190929190505050611592565b005b6103936004803603602081101561037d57600080fd5b8101908080359060200190929190505050611815565b6040518082815260200191505060405180910390f35b6103d5600480360360208110156103bf57600080fd5b8101908080359060200190929190505050611835565b6040518082815260200191505060405180910390f35b6104416004803603606081101561040157600080fd5b8101908080359060200190929190803573ffffffffffffffffffffffffffffffffffffffff16906020019092919080359060200190929190505050611855565b005b61048f6004803603604081101561045957600080fd5b8101908080359060200190929190803573ffffffffffffffffffffffffffffffffffffffff16906020019092919050505061195e565b604051808273ffffffffffffffffffffffffffffffffffffffff1673ffffffffffffffffffffffffffffffffffffffff16815260200191505060405180910390f35b6104d96119dc565b604051808273ffffffffffffffffffffffffffffffffffffffff1673ffffffffffffffffffffffffffffffffffffffff16815260200191505060405180910390f35b610523611a02565b005b6105516004803603602081101561053b57600080fd5b8101908080359060200190929190505050611d2b565b604051808381526020018281526020019250505060405180910390f35b61059a6004803603602081101561058457600080fd5b8101908080359060200190929190505050611f3b565b6040518082815260200191505060405180910390f35b6105fc600480360360408110156105c657600080fd5b8101908080359060200190929190803573ffffffffffffffffffffffffffffffffffffffff169060200190929190505050611f5b565b604051808273ffffffffffffffffffffffffffffffffffffffff1673ffffffffffffffffffffffffffffffffffffffff16815260200191505060405180910390f35b61066a6004803603602081101561065457600080fd5b810190808035906020019092919050505061207c565b005b6106986004803603602081101561068257600080fd5b81019080803590602001909291905050506120c8565b6040518082815260200191505060405180910390f35b6106da600480360360208110156106c457600080fd5b81019080803590602001909291905050506120e8565b604051808215151515815260200191505060405180910390f35b6107606004803603606081101561070a57600080fd5b8101908080359060200190929190803573ffffffffffffffffffffffffffffffffffffffff169060200190929190803573ffffffffffffffffffffffffffffffffffffffff169060200190929190505050612296565b005b61078e6004803603602081101561077857600080fd5b810190808035906020019092919050505061236d565b005b6107dc600480360360408110156107a657600080fd5b8101908080359060200190929190803573ffffffffffffffffffffffffffffffffffffffff1690602001909291905050506126ad565b604051808273ffffffffffffffffffffffffffffffffffffffff1673ffffffffffffffffffffffffffffffffffffffff16815260200191505060405180910390f35b61084a6004803603602081101561083457600080fd5b810190808035906020019092919050505061272b565b6040518082600560200280838360005b8381101561087557808201518184015260208101905061085a565b5050505090500191505060405180910390f35b6108d46004803603604081101561089e57600080fd5b8101908080359060200190929190803573ffffffffffffffffffffffffffffffffffffffff16906020019092919050505061278c565b6040518082815260200191505060405180910390f35b6109166004803603602081101561090057600080fd5b81019080803590602001909291905050506127ea565b005b610920612a6d565b005b61092a61326d565b604051808273ffffffffffffffffffffffffffffffffffffffff1673ffffffffffffffffffffffffffffffffffffffff16815260200191505060405180910390f35b610974613293565b604051808273ffffffffffffffffffffffffffffffffffffffff1673ffffffffffffffffffffffffffffffffffffffff16815260200191505060405180910390f35b6109be6132b9565b604051808273ffffffffffffffffffffffffffffffffffffffff1673ffffffffffffffffffffffffffffffffffffffff16815260200191505060405180910390f35b610a4260048036036020811015610a1657600080fd5b81019080803573ffffffffffffffffffffffffffffffffffffffff1690602001909291905050506132de565b005b610a7060048036036020811015610a5a57600080fd5b8101908080359060200190929190505050613378565b005b610a7a61346b565b604051808273ffffffffffffffffffffffffffffffffffffffff1673ffffffffffffffffffffffffffffffffffffffff16815260200191505060405180910390f35b610ae860048036036020811015610ad257600080fd5b8101908080359060200190929190505050613491565b604051808381526020018281526020019250505060405180910390f35b610b0d6134cf565b604051808215151515815260200191505060405180910390f35b610b7360048036036040811015610b3d57600080fd5b8101908080359060200190929190803573ffffffffffffffffffffffffffffffffffffffff16906020019092919050505061372f565b60405180858152602001841515151581526020018373ffffffffffffffffffffffffffffffffffffffff1673ffffffffffffffffffffffffffffffffffffffff1681526020018273ffffffffffffffffffffffffffffffffffffffff1673ffffffffffffffffffffffffffffffffffffffff16815260200194505050505060405180910390f35b610c026137b9565b005b610c7060048036036060811015610c1a57600080fd5b8101908080359060200190929190803573ffffffffffffffffffffffffffffffffffffffff169060200190929190803573ffffffffffffffffffffffffffffffffffffffff1690602001909291905050506138b8565b005b610ce860048036036080811015610c8857600080fd5b8101908080359060200190929190803573ffffffffffffffffffffffffffffffffffffffff169060200190929190803573ffffffffffffffffffffffffffffffffffffffff1690602001909291908035906020019092919050505061398f565b604051808573ffffffffffffffffffffffffffffffffffffffff1673ffffffffffffffffffffffffffffffffffffffff1681526020018473ffffffffffffffffffffffffffffffffffffffff1673ffffffffffffffffffffffffffffffffffffffff16815260200183815260200182815260200194505050505060405180910390f35b610d73613f10565b604051808273ffffffffffffffffffffffffffffffffffffffff1673ffffffffffffffffffffffffffffffffffffffff16815260200191505060405180910390f35b610e0160048036036040811015610dcb57600080fd5b8101908080359060200190929190803573ffffffffffffffffffffffffffffffffffffffff169060200190929190505050613f36565b604051808215151515815260200191505060405180910390f35b610e23613fa1565b604051808273ffffffffffffffffffffffffffffffffffffffff1673ffffffffffffffffffffffffffffffffffffffff16815260200191505060405180910390f35b610ea760048036036020811015610e7b57600080fd5b81019080803573ffffffffffffffffffffffffffffffffffffffff169060200190929190505050613fc7565b005b610ed560048036036020811015610ebf57600080fd5b8101908080359060200190929190505050614095565b6040518082815260200191505060405180910390f35b610f1760048036036020811015610f0157600080fd5b81019080803590602001909291905050506140b5565b604051808381526020018281526020019250505060405180910390f35b610f8060048036036040811015610f4a57600080fd5b8101908080359060200190929190803573ffffffffffffffffffffffffffffffffffffffff1690602001909291905050506142c5565b6040518082815260200191505060405180910390f35b60086020528060005260406000206000915090508060000154908060010154908060020154908060030154908060040154908060050154908060060154908060070154905088565b6040518060400160405280600b81526020017f47616d654d616e6167657200000000000000000000000000000000000000000081525061101d81614427565b6000611029858461195e565b90506000600360009054906101000a900473ffffffffffffffffffffffffffffffffffffffff1673ffffffffffffffffffffffffffffffffffffffff16630b154c9687876040518363ffffffff1660e01b8152600401808381526020018273ffffffffffffffffffffffffffffffffffffffff1673ffffffffffffffffffffffffffffffffffffffff1681526020019250505060806040518083038186803b1580156110d457600080fd5b505afa1580156110e8573d6000803e3d6000fd5b505050506040513d60808110156110fe57600080fd5b810190808051906020019092919080519060200190929190805190602001909291908051906020019092919050505050505090506000600360009054906101000a900473ffffffffffffffffffffffffffffffffffffffff1673ffffffffffffffffffffffffffffffffffffffff16630b154c9688856040518363ffffffff1660e01b8152600401808381526020018273ffffffffffffffffffffffffffffffffffffffff1673ffffffffffffffffffffffffffffffffffffffff1681526020019250505060806040518083038186803b1580156111db57600080fd5b505afa1580156111ef573d6000803e3d6000fd5b505050506040513d608081101561120557600080fd5b810190808051906020019092919080519060200190929190805190602001909291908051906020019092919050505050505090508573ffffffffffffffffffffffffffffffffffffffff168373ffffffffffffffffffffffffffffffffffffffff1614611589578082111561139d57856007600089815260200190815260200160002060008773ffffffffffffffffffffffffffffffffffffffff1673ffffffffffffffffffffffffffffffffffffffff16815260200190815260200160002060010160016101000a81548173ffffffffffffffffffffffffffffffffffffffff021916908373ffffffffffffffffffffffffffffffffffffffff160217905550826007600089815260200190815260200160002060008773ffffffffffffffffffffffffffffffffffffffff1673ffffffffffffffffffffffffffffffffffffffff16815260200190815260200160002060020160006101000a81548173ffffffffffffffffffffffffffffffffffffffff021916908373ffffffffffffffffffffffffffffffffffffffff160217905550611588565b60006113a988876126ad565b90506000600360009054906101000a900473ffffffffffffffffffffffffffffffffffffffff1673ffffffffffffffffffffffffffffffffffffffff16630b154c968a846040518363ffffffff1660e01b8152600401808381526020018273ffffffffffffffffffffffffffffffffffffffff1673ffffffffffffffffffffffffffffffffffffffff1681526020019250505060806040518083038186803b15801561145457600080fd5b505afa158015611468573d6000803e3d6000fd5b505050506040513d608081101561147e57600080fd5b8101908080519060200190929190805190602001909291908051906020019092919080519060200190929190505050505050905080841180156114ed57508773ffffffffffffffffffffffffffffffffffffffff168273ffffffffffffffffffffffffffffffffffffffff1614155b156115855787600760008b815260200190815260200160002060008973ffffffffffffffffffffffffffffffffffffffff1673ffffffffffffffffffffffffffffffffffffffff16815260200190815260200160002060020160006101000a81548173ffffffffffffffffffffffffffffffffffffffff021916908373ffffffffffffffffffffffffffffffffffffffff1602179055505b50505b5b50505050505050565b6040518060400160405280600c81526020017f47616d654372656174696f6e00000000000000000000000000000000000000008152506115d181614427565b6000600260009054906101000a900473ffffffffffffffffffffffffffffffffffffffff1673ffffffffffffffffffffffffffffffffffffffff1663f0e52c426040518163ffffffff1660e01b815260040160206040518083038186803b15801561163b57600080fd5b505afa15801561164f573d6000803e3d6000fd5b505050506040513d602081101561166557600080fd5b81019080805190602001909291905050509050600080600360009054906101000a900473ffffffffffffffffffffffffffffffffffffffff1673ffffffffffffffffffffffffffffffffffffffff1663bd4f6d1e866040518263ffffffff1660e01b815260040180828152602001915050604080518083038186803b1580156116ed57600080fd5b505afa158015611701573d6000803e3d6000fd5b505050506040513d604081101561171757600080fd5b81019080805190602001909291908051906020019092919050505091509150600560009054906101000a900473ffffffffffffffffffffffffffffffffffffffff1673ffffffffffffffffffffffffffffffffffffffff1663c9fe0cef8484846040518463ffffffff1660e01b815260040180848152602001838152602001828152602001935050505060206040518083038186803b1580156117b957600080fd5b505afa1580156117cd573d6000803e3d6000fd5b505050506040513d60208110156117e357600080fd5b810190808051906020019092919050505060086000878152602001908152602001600020600001819055505050505050565b600060086000838152602001908152602001600020600401549050919050565b600060086000838152602001908152602001600020600601549050919050565b6040518060400160405280600b81526020017f47616d654d616e6167657200000000000000000000000000000000000000000081525061189481614427565b60016007600086815260200190815260200160002060008573ffffffffffffffffffffffffffffffffffffffff1673ffffffffffffffffffffffffffffffffffffffff16815260200190815260200160002060010160006101000a81548160ff021916908315150217905550816007600086815260200190815260200160002060008573ffffffffffffffffffffffffffffffffffffffff1673ffffffffffffffffffffffffffffffffffffffff1681526020019081526020016000206000018190555050505050565b60006007600084815260200190815260200160002060008373ffffffffffffffffffffffffffffffffffffffff1673ffffffffffffffffffffffffffffffffffffffff16815260200190815260200160002060010160019054906101000a900473ffffffffffffffffffffffffffffffffffffffff16905092915050565b600360009054906101000a900473ffffffffffffffffffffffffffffffffffffffff1681565b6040518060400160405280600781526020017f43726f6e4a6f6200000000000000000000000000000000000000000000000000815250611a4181614427565b600660009054906101000a900473ffffffffffffffffffffffffffffffffffffffff1673ffffffffffffffffffffffffffffffffffffffff16639b42e5476040518163ffffffff1660e01b8152600401600060405180830381600087803b158015611aab57600080fd5b505af1158015611abf573d6000803e3d6000fd5b50505050600560009054906101000a900473ffffffffffffffffffffffffffffffffffffffff1673ffffffffffffffffffffffffffffffffffffffff1663d65ab5f26040518163ffffffff1660e01b8152600401602060405180830381600087803b158015611b2d57600080fd5b505af1158015611b41573d6000803e3d6000fd5b505050506040513d6020811015611b5757600080fd5b8101908080519060200190929190505050600960006101000a81548160ff021916908315150217905550600160009054906101000a900473ffffffffffffffffffffffffffffffffffffffff1673ffffffffffffffffffffffffffffffffffffffff1663358177736040518060400160405280600c81526020017f5769746864726177506f6f6c00000000000000000000000000000000000000008152506040518263ffffffff1660e01b81526004018080602001828103825283818151815260200191508051906020019080838360005b83811015611c44578082015181840152602081019050611c29565b50505050905090810190601f168015611c715780820380516001836020036101000a031916815260200191505b509250505060206040518083038186803b158015611c8e57600080fd5b505afa158015611ca2573d6000803e3d6000fd5b505050506040513d6020811015611cb857600080fd5b810190808051906020019092919050505073ffffffffffffffffffffffffffffffffffffffff166333d8cd8e6040518163ffffffff1660e01b8152600401600060405180830381600087803b158015611d1057600080fd5b505af1158015611d24573d6000803e3d6000fd5b5050505050565b6000806000600860008581526020019081526020016000206002015490506000611d54826146c2565b90506000600160009054906101000a900473ffffffffffffffffffffffffffffffffffffffff1673ffffffffffffffffffffffffffffffffffffffff1663358177736040518060400160405280600a81526020017f4b7479556e6973776170000000000000000000000000000000000000000000008152506040518263ffffffff1660e01b81526004018080602001828103825283818151815260200191508051906020019080838360005b83811015611e1b578082015181840152602081019050611e00565b50505050905090810190601f168015611e485780820380516001836020036101000a031916815260200191505b509250505060206040518083038186803b158015611e6557600080fd5b505afa158015611e79573d6000803e3d6000fd5b505050506040513d6020811015611e8f57600080fd5b810190808051906020019092919050505073ffffffffffffffffffffffffffffffffffffffff1663557b3400836040518263ffffffff1660e01b81526004018082815260200191505060206040518083038186803b158015611ef057600080fd5b505afa158015611f04573d6000803e3d6000fd5b505050506040513d6020811015611f1a57600080fd5b81019080805190602001909291905050509050808294509450505050915091565b600060086000838152602001908152602001600020600501549050919050565b6000806000600360009054906101000a900473ffffffffffffffffffffffffffffffffffffffff1673ffffffffffffffffffffffffffffffffffffffff166315a40f49866040518263ffffffff1660e01b81526004018082815260200191505060806040518083038186803b158015611fd357600080fd5b505afa158015611fe7573d6000803e3d6000fd5b505050506040513d6080811015611ffd57600080fd5b81019080805190602001909291908051906020019092919080519060200190929190805190602001909291905050505050915091508373ffffffffffffffffffffffffffffffffffffffff168273ffffffffffffffffffffffffffffffffffffffff161415612070578092505050612076565b81925050505b92915050565b6040518060400160405280600c81526020017f47616d654372656174696f6e00000000000000000000000000000000000000008152506120bb81614427565b6120c48261482b565b5050565b600060086000838152602001908152602001600020600301549050919050565b60006040518060400160405280600c81526020017f47616d654372656174696f6e000000000000000000000000000000000000000081525061212981614427565b6000600660009054906101000a900473ffffffffffffffffffffffffffffffffffffffff1673ffffffffffffffffffffffffffffffffffffffff16630b3fbd5f6040518163ffffffff1660e01b815260040160206040518083038186803b15801561219357600080fd5b505afa1580156121a7573d6000803e3d6000fd5b505050506040513d60208110156121bd57600080fd5b810190808051906020019092919050505090506000600660009054906101000a900473ffffffffffffffffffffffffffffffffffffffff1673ffffffffffffffffffffffffffffffffffffffff16632ca12ad0836040518263ffffffff1660e01b81526004018082815260200191505060206040518083038186803b15801561224557600080fd5b505afa158015612259573d6000803e3d6000fd5b505050506040513d602081101561226f57600080fd5b8101908080519060200190929190505050905061228c8582614ce6565b9350505050919050565b6040518060400160405280600a81526020017f474d5365747465724442000000000000000000000000000000000000000000008152506122d581614427565b816007600086815260200190815260200160002060008573ffffffffffffffffffffffffffffffffffffffff1673ffffffffffffffffffffffffffffffffffffffff16815260200190815260200160002060020160006101000a81548173ffffffffffffffffffffffffffffffffffffffff021916908373ffffffffffffffffffffffffffffffffffffffff16021790555050505050565b6040518060400160405280600b81526020017f47616d654d616e616765720000000000000000000000000000000000000000008152506123ac81614427565b6000600260009054906101000a900473ffffffffffffffffffffffffffffffffffffffff1673ffffffffffffffffffffffffffffffffffffffff16637a10546d6040518163ffffffff1660e01b815260040160206040518083038186803b15801561241657600080fd5b505afa15801561242a573d6000803e3d6000fd5b505050506040513d602081101561244057600080fd5b81019080805190602001909291905050509050600080600360009054906101000a900473ffffffffffffffffffffffffffffffffffffffff1673ffffffffffffffffffffffffffffffffffffffff1663525a8e4e866040518263ffffffff1660e01b815260040180828152602001915050604080518083038186803b1580156124c857600080fd5b505afa1580156124dc573d6000803e3d6000fd5b505050506040513d60408110156124f257600080fd5b81019080805190602001909291908051906020019092919050505091509150600560009054906101000a900473ffffffffffffffffffffffffffffffffffffffff1673ffffffffffffffffffffffffffffffffffffffff1663c9fe0cef8484846040518463ffffffff1660e01b815260040180848152602001838152602001828152602001935050505060206040518083038186803b15801561259457600080fd5b505afa1580156125a8573d6000803e3d6000fd5b505050506040513d60208110156125be57600080fd5b810190808051906020019092919050505060086000878152602001908152602001600020600201819055506126a66126a142600260009054906101000a900473ffffffffffffffffffffffffffffffffffffffff1673ffffffffffffffffffffffffffffffffffffffff1663a38bcf206040518163ffffffff1660e01b815260040160206040518083038186803b15801561265857600080fd5b505afa15801561266c573d6000803e3d6000fd5b505050506040513d602081101561268257600080fd5b8101908080519060200190929190505050614e9f90919063ffffffff16565b614ebb565b5050505050565b60006007600084815260200190815260200160002060008373ffffffffffffffffffffffffffffffffffffffff1673ffffffffffffffffffffffffffffffffffffffff16815260200190815260200160002060020160009054906101000a900473ffffffffffffffffffffffffffffffffffffffff16905092915050565b612733615dce565b60086000838152602001908152602001600020600801600580602002604051908101604052809291908260058015612780576020028201915b81548152602001906001019080831161276c575b50505050509050919050565b60006007600084815260200190815260200160002060008373ffffffffffffffffffffffffffffffffffffffff1673ffffffffffffffffffffffffffffffffffffffff16815260200190815260200160002060000154905092915050565b6040518060400160405280600c81526020017f47616d654372656174696f6e000000000000000000000000000000000000000081525061282981614427565b6000600260009054906101000a900473ffffffffffffffffffffffffffffffffffffffff1673ffffffffffffffffffffffffffffffffffffffff16639c04b9cd6040518163ffffffff1660e01b815260040160206040518083038186803b15801561289357600080fd5b505afa1580156128a7573d6000803e3d6000fd5b505050506040513d60208110156128bd57600080fd5b81019080805190602001909291905050509050600080600360009054906101000a900473ffffffffffffffffffffffffffffffffffffffff1673ffffffffffffffffffffffffffffffffffffffff1663bd4f6d1e866040518263ffffffff1660e01b815260040180828152602001915050604080518083038186803b15801561294557600080fd5b505afa158015612959573d6000803e3d6000fd5b505050506040513d604081101561296f57600080fd5b81019080805190602001909291908051906020019092919050505091509150600560009054906101000a900473ffffffffffffffffffffffffffffffffffffffff1673ffffffffffffffffffffffffffffffffffffffff1663c9fe0cef8484846040518463ffffffff1660e01b815260040180848152602001838152602001828152602001935050505060206040518083038186803b158015612a1157600080fd5b505afa158015612a25573d6000803e3d6000fd5b505050506040513d6020811015612a3b57600080fd5b810190808051906020019092919050505060086000878152602001908152602001600020600101819055505050505050565b6000809054906101000a900473ffffffffffffffffffffffffffffffffffffffff1673ffffffffffffffffffffffffffffffffffffffff163373ffffffffffffffffffffffffffffffffffffffff1614612ac357fe5b600160009054906101000a900473ffffffffffffffffffffffffffffffffffffffff1673ffffffffffffffffffffffffffffffffffffffff1663358177736040518060400160405280600d81526020017f47616d65566172416e64466565000000000000000000000000000000000000008152506040518263ffffffff1660e01b81526004018080602001828103825283818151815260200191508051906020019080838360005b83811015612b86578082015181840152602081019050612b6b565b50505050905090810190601f168015612bb35780820380516001836020036101000a031916815260200191505b509250505060206040518083038186803b158015612bd057600080fd5b505afa158015612be4573d6000803e3d6000fd5b505050506040513d6020811015612bfa57600080fd5b8101908080519060200190929190505050600260006101000a81548173ffffffffffffffffffffffffffffffffffffffff021916908373ffffffffffffffffffffffffffffffffffffffff160217905550600160009054906101000a900473ffffffffffffffffffffffffffffffffffffffff1673ffffffffffffffffffffffffffffffffffffffff1663358177736040518060400160405280600a81526020017f474d4765747465724442000000000000000000000000000000000000000000008152506040518263ffffffff1660e01b81526004018080602001828103825283818151815260200191508051906020019080838360005b83811015612d0e578082015181840152602081019050612cf3565b50505050905090810190601f168015612d3b5780820380516001836020036101000a031916815260200191505b509250505060206040518083038186803b158015612d5857600080fd5b505afa158015612d6c573d6000803e3d6000fd5b505050506040513d6020811015612d8257600080fd5b8101908080519060200190929190505050600360006101000a81548173ffffffffffffffffffffffffffffffffffffffff021916908373ffffffffffffffffffffffffffffffffffffffff160217905550600160009054906101000a900473ffffffffffffffffffffffffffffffffffffffff1673ffffffffffffffffffffffffffffffffffffffff1663358177736040518060400160405280600b81526020017f486974735265736f6c76650000000000000000000000000000000000000000008152506040518263ffffffff1660e01b81526004018080602001828103825283818151815260200191508051906020019080838360005b83811015612e96578082015181840152602081019050612e7b565b50505050905090810190601f168015612ec35780820380516001836020036101000a031916815260200191505b509250505060206040518083038186803b158015612ee057600080fd5b505afa158015612ef4573d6000803e3d6000fd5b505050506040513d6020811015612f0a57600080fd5b8101908080519060200190929190505050600460006101000a81548173ffffffffffffffffffffffffffffffffffffffff021916908373ffffffffffffffffffffffffffffffffffffffff160217905550600160009054906101000a900473ffffffffffffffffffffffffffffffffffffffff1673ffffffffffffffffffffffffffffffffffffffff1663358177736040518060400160405280600981526020017f5363686564756c657200000000000000000000000000000000000000000000008152506040518263ffffffff1660e01b81526004018080602001828103825283818151815260200191508051906020019080838360005b8381101561301e578082015181840152602081019050613003565b50505050905090810190601f16801561304b5780820380516001836020036101000a031916815260200191505b509250505060206040518083038186803b15801561306857600080fd5b505afa15801561307c573d6000803e3d6000fd5b505050506040513d602081101561309257600080fd5b8101908080519060200190929190505050600560006101000a81548173ffffffffffffffffffffffffffffffffffffffff021916908373ffffffffffffffffffffffffffffffffffffffff160217905550600160009054906101000a900473ffffffffffffffffffffffffffffffffffffffff1673ffffffffffffffffffffffffffffffffffffffff1663358177736040518060400160405280600981526020017f54696d654672616d6500000000000000000000000000000000000000000000008152506040518263ffffffff1660e01b81526004018080602001828103825283818151815260200191508051906020019080838360005b838110156131a657808201518184015260208101905061318b565b50505050905090810190601f1680156131d35780820380516001836020036101000a031916815260200191505b509250505060206040518083038186803b1580156131f057600080fd5b505afa158015613204573d6000803e3d6000fd5b505050506040513d602081101561321a57600080fd5b8101908080519060200190929190505050600660006101000a81548173ffffffffffffffffffffffffffffffffffffffff021916908373ffffffffffffffffffffffffffffffffffffffff160217905550565b600460009054906101000a900473ffffffffffffffffffffffffffffffffffffffff1681565b600660009054906101000a900473ffffffffffffffffffffffffffffffffffffffff1681565b6000809054906101000a900473ffffffffffffffffffffffffffffffffffffffff1681565b6000809054906101000a900473ffffffffffffffffffffffffffffffffffffffff1673ffffffffffffffffffffffffffffffffffffffff163373ffffffffffffffffffffffffffffffffffffffff161461333457fe5b80600160006101000a81548173ffffffffffffffffffffffffffffffffffffffff021916908373ffffffffffffffffffffffffffffffffffffffff16021790555050565b600073ffffffffffffffffffffffffffffffffffffffff163373ffffffffffffffffffffffffffffffffffffffff1614156133af57fe5b6133ed6040518060400160405280600b81526020017f73757065725f61646d696e000000000000000000000000000000000000000000815250615a4f565b61345f576040517f08c379a00000000000000000000000000000000000000000000000000000000081526004018080602001828103825260108152602001807f4f6e6c792073757065722061646d696e0000000000000000000000000000000081525060200191505060405180910390fd5b6134688161482b565b50565b600260009054906101000a900473ffffffffffffffffffffffffffffffffffffffff1681565b60008060006008600085815260200190815260200160002060010154905060006134ba826146c2565b90506000809050808294509450505050915091565b60006040518060400160405280600981526020017f5363686564756c6572000000000000000000000000000000000000000000000081525061351081614427565b6000600660009054906101000a900473ffffffffffffffffffffffffffffffffffffffff1673ffffffffffffffffffffffffffffffffffffffff16630b3fbd5f6040518163ffffffff1660e01b815260040160206040518083038186803b15801561357a57600080fd5b505afa15801561358e573d6000803e3d6000fd5b505050506040513d60208110156135a457600080fd5b810190808051906020019092919050505090506000600660009054906101000a900473ffffffffffffffffffffffffffffffffffffffff1673ffffffffffffffffffffffffffffffffffffffff16632ca12ad0836040518263ffffffff1660e01b81526004018082815260200191505060206040518083038186803b15801561362c57600080fd5b505afa158015613640573d6000803e3d6000fd5b505050506040513d602081101561365657600080fd5b8101908080519060200190929190505050905061372761372142600260009054906101000a900473ffffffffffffffffffffffffffffffffffffffff1673ffffffffffffffffffffffffffffffffffffffff1663a38bcf206040518163ffffffff1660e01b815260040160206040518083038186803b1580156136d857600080fd5b505afa1580156136ec573d6000803e3d6000fd5b505050506040513d602081101561370257600080fd5b8101908080519060200190929190505050614e9f90919063ffffffff16565b82614ce6565b935050505090565b6007602052816000526040600020602052806000526040600020600091509150508060000154908060010160009054906101000a900460ff16908060010160019054906101000a900473ffffffffffffffffffffffffffffffffffffffff16908060020160009054906101000a900473ffffffffffffffffffffffffffffffffffffffff16905084565b6040518060400160405280600b81526020017f47616d654d616e616765720000000000000000000000000000000000000000008152506137f881614427565b6138b56138b042600260009054906101000a900473ffffffffffffffffffffffffffffffffffffffff1673ffffffffffffffffffffffffffffffffffffffff1663a38bcf206040518163ffffffff1660e01b815260040160206040518083038186803b15801561386757600080fd5b505afa15801561387b573d6000803e3d6000fd5b505050506040513d602081101561389157600080fd5b8101908080519060200190929190505050614e9f90919063ffffffff16565b614ebb565b50565b6040518060400160405280600a81526020017f474d5365747465724442000000000000000000000000000000000000000000008152506138f781614427565b816007600086815260200190815260200160002060008573ffffffffffffffffffffffffffffffffffffffff1673ffffffffffffffffffffffffffffffffffffffff16815260200190815260200160002060010160016101000a81548173ffffffffffffffffffffffffffffffffffffffff021916908373ffffffffffffffffffffffffffffffffffffffff16021790555050505050565b6000806000806040518060400160405280600b81526020017f47616d654d616e616765720000000000000000000000000000000000000000008152506139d481614427565b600460009054906101000a900473ffffffffffffffffffffffffffffffffffffffff1673ffffffffffffffffffffffffffffffffffffffff1663c0eef7188a8a896040518463ffffffff1660e01b8152600401808481526020018373ffffffffffffffffffffffffffffffffffffffff1673ffffffffffffffffffffffffffffffffffffffff168152602001828152602001935050505060206040518083038186803b158015613a8357600080fd5b505afa158015613a97573d6000803e3d6000fd5b505050506040513d6020811015613aad57600080fd5b81019080805190602001909291905050509250600460009054906101000a900473ffffffffffffffffffffffffffffffffffffffff1673ffffffffffffffffffffffffffffffffffffffff1663c0eef7188a89896040518463ffffffff1660e01b8152600401808481526020018373ffffffffffffffffffffffffffffffffffffffff1673ffffffffffffffffffffffffffffffffffffffff168152602001828152602001935050505060206040518083038186803b158015613b6f57600080fd5b505afa158015613b83573d6000803e3d6000fd5b505050506040513d6020811015613b9957600080fd5b81019080805190602001909291905050509150613ca083600360009054906101000a900473ffffffffffffffffffffffffffffffffffffffff1673ffffffffffffffffffffffffffffffffffffffff1663bacf524e8c8c6040518363ffffffff1660e01b8152600401808381526020018273ffffffffffffffffffffffffffffffffffffffff1673ffffffffffffffffffffffffffffffffffffffff1681526020019250505060206040518083038186803b158015613c5757600080fd5b505afa158015613c6b573d6000803e3d6000fd5b505050506040513d6020811015613c8157600080fd5b8101908080519060200190929190505050615ccb90919063ffffffff16565b9250613d9682600360009054906101000a900473ffffffffffffffffffffffffffffffffffffffff1673ffffffffffffffffffffffffffffffffffffffff1663bacf524e8c8b6040518363ffffffff1660e01b8152600401808381526020018273ffffffffffffffffffffffffffffffffffffffff1673ffffffffffffffffffffffffffffffffffffffff1681526020019250505060206040518083038186803b158015613d4d57600080fd5b505afa158015613d61573d6000803e3d6000fd5b505050506040513d6020811015613d7757600080fd5b8101908080519060200190929190505050615ccb90919063ffffffff16565b915081831115613dab57879450869350613f04565b82821115613dbe57869450879350613f03565b613dc6615df0565b600360009054906101000a900473ffffffffffffffffffffffffffffffffffffffff1673ffffffffffffffffffffffffffffffffffffffff1663589ac6a48b6040518263ffffffff1660e01b8152600401808281526020019150506101006040518083038186803b158015613e3a57600080fd5b505afa158015613e4e573d6000803e3d6000fd5b505050506040513d601f19601f82011682018060405250610100811015613e7457600080fd5b81019080805190602001909291908051906020019092919080519060200190929190805190602001909291909190826040018051906020019092919080519060200190929190505050505094505050505080600160028110613ed257fe5b602002015181600060028110613ee457fe5b60200201511115613efa57889550879450613f01565b8795508894505b505b5b50945094509450949050565b600560009054906101000a900473ffffffffffffffffffffffffffffffffffffffff1681565b60006007600084815260200190815260200160002060008373ffffffffffffffffffffffffffffffffffffffff1673ffffffffffffffffffffffffffffffffffffffff16815260200190815260200160002060010160009054906101000a900460ff16905092915050565b600160009054906101000a900473ffffffffffffffffffffffffffffffffffffffff1681565b6000809054906101000a900473ffffffffffffffffffffffffffffffffffffffff1673ffffffffffffffffffffffffffffffffffffffff163373ffffffffffffffffffffffffffffffffffffffff161461401d57fe5b600073ffffffffffffffffffffffffffffffffffffffff168173ffffffffffffffffffffffffffffffffffffffff161461409257806000806101000a81548173ffffffffffffffffffffffffffffffffffffffff021916908373ffffffffffffffffffffffffffffffffffffffff1602179055505b50565b600060086000838152602001908152602001600020600701549050919050565b60008060006008600085815260200190815260200160002060000154905060006140de826146c2565b90506000600160009054906101000a900473ffffffffffffffffffffffffffffffffffffffff1673ffffffffffffffffffffffffffffffffffffffff1663358177736040518060400160405280600a81526020017f4b7479556e6973776170000000000000000000000000000000000000000000008152506040518263ffffffff1660e01b81526004018080602001828103825283818151815260200191508051906020019080838360005b838110156141a557808201518184015260208101905061418a565b50505050905090810190601f1680156141d25780820380516001836020036101000a031916815260200191505b509250505060206040518083038186803b1580156141ef57600080fd5b505afa158015614203573d6000803e3d6000fd5b505050506040513d602081101561421957600080fd5b810190808051906020019092919050505073ffffffffffffffffffffffffffffffffffffffff1663557b3400836040518263ffffffff1660e01b81526004018082815260200191505060206040518083038186803b15801561427a57600080fd5b505afa15801561428e573d6000803e3d6000fd5b505050506040513d60208110156142a457600080fd5b81019080805190602001909291905050509050808294509450505050915091565b6000806000600360009054906101000a900473ffffffffffffffffffffffffffffffffffffffff1673ffffffffffffffffffffffffffffffffffffffff166315a40f49866040518263ffffffff1660e01b81526004018082815260200191505060806040518083038186803b15801561433d57600080fd5b505afa158015614351573d6000803e3d6000fd5b505050506040513d608081101561436757600080fd5b81019080805190602001909291908051906020019092919080519060200190929190805190602001909291905050505050915091508373ffffffffffffffffffffffffffffffffffffffff168273ffffffffffffffffffffffffffffffffffffffff1614156143db57600092505050614421565b8373ffffffffffffffffffffffffffffffffffffffff168173ffffffffffffffffffffffffffffffffffffffff16141561441a57600192505050614421565b6002925050505b92915050565b600073ffffffffffffffffffffffffffffffffffffffff16600160009054906101000a900473ffffffffffffffffffffffffffffffffffffffff1673ffffffffffffffffffffffffffffffffffffffff1614156144ec576040517f08c379a00000000000000000000000000000000000000000000000000000000081526004018080602001828103825260088152602001807f4e6f2050726f787900000000000000000000000000000000000000000000000081525060200191505060405180910390fd5b6000600160009054906101000a900473ffffffffffffffffffffffffffffffffffffffff1673ffffffffffffffffffffffffffffffffffffffff166335817773836040518263ffffffff1660e01b81526004018080602001828103825283818151815260200191508051906020019080838360005b8381101561457c578082015181840152602081019050614561565b50505050905090810190601f1680156145a95780820380516001836020036101000a031916815260200191505b509250505060206040518083038186803b1580156145c657600080fd5b505afa1580156145da573d6000803e3d6000fd5b505050506040513d60208110156145f057600080fd5b81019080805190602001909291905050509050600073ffffffffffffffffffffffffffffffffffffffff168173ffffffffffffffffffffffffffffffffffffffff16141561463a57fe5b8073ffffffffffffffffffffffffffffffffffffffff163373ffffffffffffffffffffffffffffffffffffffff16146146be576040517f08c379a000000000000000000000000000000000000000000000000000000000815260040180806020018281038252602d815260200180615eec602d913960400191505060405180910390fd5b5050565b600080600260009054906101000a900473ffffffffffffffffffffffffffffffffffffffff1673ffffffffffffffffffffffffffffffffffffffff1663a2209a14846040518263ffffffff1660e01b81526004018082815260200191505060206040518083038186803b15801561473857600080fd5b505afa15801561474c573d6000803e3d6000fd5b505050506040513d602081101561476257600080fd5b81019080805190602001909291905050509050600260009054906101000a900473ffffffffffffffffffffffffffffffffffffffff1673ffffffffffffffffffffffffffffffffffffffff1663fa16b2bd826040518263ffffffff1660e01b81526004018082815260200191505060206040518083038186803b1580156147e857600080fd5b505afa1580156147fc573d6000803e3d6000fd5b505050506040513d602081101561481257600080fd5b8101908080519060200190929190505050915050919050565b614833615e12565b600081600001818152505060008160200181815250506000816040018181525050600260009054906101000a900473ffffffffffffffffffffffffffffffffffffffff1673ffffffffffffffffffffffffffffffffffffffff16639840060f6040518163ffffffff1660e01b815260040160206040518083038186803b1580156148bc57600080fd5b505afa1580156148d0573d6000803e3d6000fd5b505050506040513d60208110156148e657600080fd5b8101908080519060200190929190505050816060018181525050600260009054906101000a900473ffffffffffffffffffffffffffffffffffffffff1673ffffffffffffffffffffffffffffffffffffffff166333dbee176040518163ffffffff1660e01b815260040160206040518083038186803b15801561496857600080fd5b505afa15801561497c573d6000803e3d6000fd5b505050506040513d602081101561499257600080fd5b8101908080519060200190929190505050816080018181525050600260009054906101000a900473ffffffffffffffffffffffffffffffffffffffff1673ffffffffffffffffffffffffffffffffffffffff166368afa5416040518163ffffffff1660e01b815260040160206040518083038186803b158015614a1457600080fd5b505afa158015614a28573d6000803e3d6000fd5b505050506040513d6020811015614a3e57600080fd5b81019080805190602001909291905050508160a0018181525050600260009054906101000a900473ffffffffffffffffffffffffffffffffffffffff1673ffffffffffffffffffffffffffffffffffffffff16633e4c883f6040518163ffffffff1660e01b815260040160a06040518083038186803b158015614ac057600080fd5b505afa158015614ad4573d6000803e3d6000fd5b505050506040513d601f19601f8201168201806040525060a0811015614af957600080fd5b8101908091905050816101000181905250600260009054906101000a900473ffffffffffffffffffffffffffffffffffffffff1673ffffffffffffffffffffffffffffffffffffffff1663ae1d48a86040518163ffffffff1660e01b815260040160206040518083038186803b158015614b7257600080fd5b505afa158015614b86573d6000803e3d6000fd5b505050506040513d6020811015614b9c57600080fd5b81019080805190602001909291905050508160c0018181525050600260009054906101000a900473ffffffffffffffffffffffffffffffffffffffff1673ffffffffffffffffffffffffffffffffffffffff16631697e4b66040518163ffffffff1660e01b815260040160206040518083038186803b158015614c1e57600080fd5b505afa158015614c32573d6000803e3d6000fd5b505050506040513d6020811015614c4857600080fd5b81019080805190602001909291905050508160e00181815250508060086000848152602001908152602001600020600082015181600001556020820151816001015560408201518160020155606082015181600301556080820151816004015560a0820151816005015560c0820151816006015560e0820151816007015561010082015181600801906005614cde929190615e64565b509050505050565b600082614e52614e43600660009054906101000a900473ffffffffffffffffffffffffffffffffffffffff1673ffffffffffffffffffffffffffffffffffffffff1663a0559ae46040518163ffffffff1660e01b815260040160206040518083038186803b158015614d5757600080fd5b505afa158015614d6b573d6000803e3d6000fd5b505050506040513d6020811015614d8157600080fd5b8101908080519060200190929190505050600660009054906101000a900473ffffffffffffffffffffffffffffffffffffffff1673ffffffffffffffffffffffffffffffffffffffff1663504a38dd6040518163ffffffff1660e01b815260040160206040518083038186803b158015614dfa57600080fd5b505afa158015614e0e573d6000803e3d6000fd5b505050506040513d6020811015614e2457600080fd5b8101908080519060200190929190505050614e9f90919063ffffffff16565b84615d0290919063ffffffff16565b111580614e6b5750600960009054906101000a900460ff165b15614e795760009050614e99565b6001600960006101000a81548160ff021916908315150217905550600190505b92915050565b600080828401905083811015614eb157fe5b8091505092915050565b6000600660009054906101000a900473ffffffffffffffffffffffffffffffffffffffff1673ffffffffffffffffffffffffffffffffffffffff16630b3fbd5f6040518163ffffffff1660e01b815260040160206040518083038186803b158015614f2557600080fd5b505afa158015614f39573d6000803e3d6000fd5b505050506040513d6020811015614f4f57600080fd5b810190808051906020019092919050505090506000600660009054906101000a900473ffffffffffffffffffffffffffffffffffffffff1673ffffffffffffffffffffffffffffffffffffffff16632ca12ad0836040518263ffffffff1660e01b81526004018082815260200191505060206040518083038186803b158015614fd757600080fd5b505afa158015614feb573d6000803e3d6000fd5b505050506040513d602081101561500157600080fd5b810190808051906020019092919050505090506000600960006101000a81548160ff0219169083151502179055506150ed6150e742600260009054906101000a900473ffffffffffffffffffffffffffffffffffffffff1673ffffffffffffffffffffffffffffffffffffffff1663a38bcf206040518163ffffffff1660e01b815260040160206040518083038186803b15801561509e57600080fd5b505afa1580156150b2573d6000803e3d6000fd5b505050506040513d60208110156150c857600080fd5b8101908080519060200190929190505050614e9f90919063ffffffff16565b82614ce6565b156151b557600560009054906101000a900473ffffffffffffffffffffffffffffffffffffffff1673ffffffffffffffffffffffffffffffffffffffff1663d65ab5f26040518163ffffffff1660e01b8152600401602060405180830381600087803b15801561515c57600080fd5b505af1158015615170573d6000803e3d6000fd5b505050506040513d602081101561518657600080fd5b8101908080519060200190929190505050600960006101000a81548160ff021916908315150217905550615a4a565b600061526c600660009054906101000a900473ffffffffffffffffffffffffffffffffffffffff1673ffffffffffffffffffffffffffffffffffffffff1663504a38dd6040518163ffffffff1660e01b815260040160206040518083038186803b15801561522257600080fd5b505afa158015615236573d6000803e3d6000fd5b505050506040513d602081101561524c57600080fd5b810190808051906020019092919050505083615d0290919063ffffffff16565b42111561533d5761533a61532b600660009054906101000a900473ffffffffffffffffffffffffffffffffffffffff1673ffffffffffffffffffffffffffffffffffffffff1663504a38dd6040518163ffffffff1660e01b815260040160206040518083038186803b1580156152e157600080fd5b505afa1580156152f5573d6000803e3d6000fd5b505050506040513d602081101561530b57600080fd5b810190808051906020019092919050505084615d0290919063ffffffff16565b42615d0290919063ffffffff16565b90505b6000600160009054906101000a900473ffffffffffffffffffffffffffffffffffffffff1673ffffffffffffffffffffffffffffffffffffffff1663358177736040518060400160405280600781526020017f43726f6e4a6f62000000000000000000000000000000000000000000000000008152506040518263ffffffff1660e01b81526004018080602001828103825283818151815260200191508051906020019080838360005b838110156154025780820151818401526020810190506153e7565b50505050905090810190601f16801561542f5780820380516001836020036101000a031916815260200191505b509250505060206040518083038186803b15801561544c57600080fd5b505afa158015615460573d6000803e3d6000fd5b505050506040513d602081101561547657600080fd5b810190808051906020019092919050505090508073ffffffffffffffffffffffffffffffffffffffff1663c19304966040518060400160405280600981526020017f47616d6553746f726500000000000000000000000000000000000000000000008152506154ee8587614e9f90919063ffffffff16565b6040516024016040516020818303038152906040527f228d8dcb000000000000000000000000000000000000000000000000000000007bffffffffffffffffffffffffffffffffffffffffffffffffffffffff19166020820180517bffffffffffffffffffffffffffffffffffffffffffffffffffffffff83818316178352505050506040518463ffffffff1660e01b8152600401808060200184815260200180602001838103835286818151815260200191508051906020019080838360005b838110156155ca5780820151818401526020810190506155af565b50505050905090810190601f1680156155f75780820380516001836020036101000a031916815260200191505b50838103825284818151815260200191508051906020019080838360005b83811015615630578082015181840152602081019050615615565b50505050905090810190601f16801561565d5780820380516001836020036101000a031916815260200191505b5095505050505050602060405180830381600087803b15801561567f57600080fd5b505af1158015615693573d6000803e3d6000fd5b505050506040513d60208110156156a957600080fd5b810190808051906020019092919050505050600160009054906101000a900473ffffffffffffffffffffffffffffffffffffffff1673ffffffffffffffffffffffffffffffffffffffff1663358177736040518060400160405280600c81526020017f5769746864726177506f6f6c00000000000000000000000000000000000000008152506040518263ffffffff1660e01b81526004018080602001828103825283818151815260200191508051906020019080838360005b8381101561577e578082015181840152602081019050615763565b50505050905090810190601f1680156157ab5780820380516001836020036101000a031916815260200191505b509250505060206040518083038186803b1580156157c857600080fd5b505afa1580156157dc573d6000803e3d6000fd5b505050506040513d60208110156157f257600080fd5b810190808051906020019092919050505073ffffffffffffffffffffffffffffffffffffffff16632e964e7e85600160009054906101000a900473ffffffffffffffffffffffffffffffffffffffff1673ffffffffffffffffffffffffffffffffffffffff1663358177736040518060400160405280600b81526020017f456e646f776d656e7444420000000000000000000000000000000000000000008152506040518263ffffffff1660e01b81526004018080602001828103825283818151815260200191508051906020019080838360005b838110156158e25780820151818401526020810190506158c7565b50505050905090810190601f16801561590f5780820380516001836020036101000a031916815260200191505b509250505060206040518083038186803b15801561592c57600080fd5b505afa158015615940573d6000803e3d6000fd5b505050506040513d602081101561595657600080fd5b810190808051906020019092919050505073ffffffffffffffffffffffffffffffffffffffff16636d71894b886040518263ffffffff1660e01b81526004018082815260200191505060206040518083038186803b1580156159b757600080fd5b505afa1580156159cb573d6000803e3d6000fd5b505050506040513d60208110156159e157600080fd5b81019080805190602001909291905050506040518363ffffffff1660e01b81526004018083815260200182815260200192505050600060405180830381600087803b158015615a2f57600080fd5b505af1158015615a43573d6000803e3d6000fd5b5050505050505b505050565b6000600160009054906101000a900473ffffffffffffffffffffffffffffffffffffffff1673ffffffffffffffffffffffffffffffffffffffff1663358177736040518060400160405280600681526020017f526f6c65444200000000000000000000000000000000000000000000000000008152506040518263ffffffff1660e01b81526004018080602001828103825283818151815260200191508051906020019080838360005b83811015615b14578082015181840152602081019050615af9565b50505050905090810190601f168015615b415780820380516001836020036101000a031916815260200191505b509250505060206040518083038186803b158015615b5e57600080fd5b505afa158015615b72573d6000803e3d6000fd5b505050506040513d6020811015615b8857600080fd5b810190808051906020019092919050505073ffffffffffffffffffffffffffffffffffffffff16636c9cd09783615bbd615d19565b6040518363ffffffff1660e01b815260040180806020018373ffffffffffffffffffffffffffffffffffffffff1673ffffffffffffffffffffffffffffffffffffffff168152602001828103825284818151815260200191508051906020019080838360005b83811015615c3e578082015181840152602081019050615c23565b50505050905090810190601f168015615c6b5780820380516001836020036101000a031916815260200191505b50935050505060206040518083038186803b158015615c8957600080fd5b505afa158015615c9d573d6000803e3d6000fd5b505050506040513d6020811015615cb357600080fd5b81019080805190602001909291905050509050919050565b600080831415615cde5760009050615cfc565b6000828402905082848281615cef57fe5b0414615cf757fe5b809150505b92915050565b600082821115615d0e57fe5b818303905092915050565b6000600160009054906101000a900473ffffffffffffffffffffffffffffffffffffffff1673ffffffffffffffffffffffffffffffffffffffff163373ffffffffffffffffffffffffffffffffffffffff1614615d7857339050615dcb565b6000601436036000602052601481602c37602051915050600073ffffffffffffffffffffffffffffffffffffffff168173ffffffffffffffffffffffffffffffffffffffff161415615dc657fe5b809150505b90565b6040518060a00160405280600590602082028038833980820191505090505090565b6040518060400160405280600290602082028038833980820191505090505090565b6040518061012001604052806000815260200160008152602001600081526020016000815260200160008152602001600081526020016000815260200160008152602001615e5e615ea4565b81525090565b8260058101928215615e93579160200282015b82811115615e92578251825591602001919060010190615e77565b5b509050615ea09190615ec6565b5090565b6040518060a00160405280600590602082028038833980820191505090505090565b615ee891905b80821115615ee4576000816000905550600101615ecc565b5090565b9056fe416363657373206973206f6e6c7920616c6c6f7765642066726f6d20737065636966696320636f6e7472616374a265627a7a72315820094d65be49f7a492d7671c8591ecb9973da2fb1a37f0240bf7185e93f4b9e7e264736f6c63430005110032",
  "source": "pragma solidity ^0.5.5;\r\n\r\nimport '../proxy/Proxied.sol';\r\nimport \"../../GameVarAndFee.sol\";\r\nimport \"../databases/GMGetterDB.sol\";\r\nimport \"../../libs/SafeMath.sol\";\r\nimport \"../algorithm/HitsResolveAlgo.sol\";\r\nimport '../../authority/Guard.sol';\r\nimport \"../datetime/TimeFrame.sol\";\r\nimport \"../../withdrawPool/WithdrawPool.sol\";\r\nimport \"../gamemanager/Scheduler.sol\";\r\nimport \"../../CronJob.sol\";\r\nimport \"../databases/EndowmentDB.sol\";\r\n\r\ncontract GameStore is Proxied, Guard {\r\n\r\n    using SafeMath for uint256;\r\n\r\n    GameVarAndFee public gameVarAndFee;\r\n    GMGetterDB public gmGetterDB;\r\n    HitsResolve public hitsResolve;\r\n    Scheduler public scheduler;\r\n    TimeFrame public timeFrame;\r\n\r\n    struct Game {\r\n        uint randomNum; //when pressing start\r\n        bool pressedStart;\r\n        address topBettor;\r\n        address secondTopBettor;\r\n    }\r\n\r\n    struct GlobalSettings {\r\n        uint bettingFee;\r\n        uint ticketFee;\r\n        uint redemptionFee;\r\n        uint kittieHellExpirationTime;\r\n        uint honeypotExpirationTime;\r\n        uint minimumContributors;\r\n        //uint finalizeRewards;\r\n        uint timeExtension;\r\n        uint performanceTime;\r\n        uint[5] distributionRates;\r\n    }\r\n\r\n    //Players info in a game\r\n    mapping(uint => mapping(address => Game)) public gameByPlayer;\r\n    mapping(uint => GlobalSettings) public gameSettings;\r\n\r\n    bool gameScheduled;\r\n\r\n    function initialize() external onlyOwner {\r\n        gameVarAndFee = GameVarAndFee(proxy.getContract(CONTRACT_NAME_GAMEVARANDFEE));\r\n        gmGetterDB = GMGetterDB(proxy.getContract(CONTRACT_NAME_GM_GETTER_DB));\r\n        hitsResolve = HitsResolve(proxy.getContract(CONTRACT_NAME_HITSRESOLVE));\r\n        scheduler = Scheduler(proxy.getContract(CONTRACT_NAME_SCHEDULER));\r\n        timeFrame = TimeFrame(proxy.getContract(CONTRACT_NAME_TIMEFRAME));\r\n    }\r\n\r\n    function lock(uint gameId) internal{\r\n        GlobalSettings memory globalSettings;\r\n\r\n        globalSettings.bettingFee = 0;\r\n        globalSettings.ticketFee = 0;\r\n        globalSettings.redemptionFee = 0;\r\n        globalSettings.kittieHellExpirationTime = gameVarAndFee.getKittieExpiry();\r\n        globalSettings.honeypotExpirationTime = gameVarAndFee.getHoneypotExpiration();\r\n        globalSettings.minimumContributors = gameVarAndFee.getMinimumContributors();\r\n        globalSettings.distributionRates = gameVarAndFee.getDistributionRates();\r\n        //globalSettings.finalizeRewards = gameVarAndFee.getFinalizeRewards();\r\n        globalSettings.timeExtension = gameVarAndFee.getTimeExtension();\r\n        globalSettings.performanceTime = gameVarAndFee.getPerformanceTimeCheck();\r\n\r\n        gameSettings[gameId] = globalSettings;\r\n    }\r\n\r\n    function lockVars(uint gameId) external onlyContract(CONTRACT_NAME_GAMECREATION){\r\n        lock(gameId);\r\n    }\r\n\r\n    function lockVarsAdmin(uint gameId) external onlySuperAdmin{\r\n        lock(gameId);\r\n    }\r\n\r\n    function getDistributionRates(uint gameId) public view returns(uint[5] memory){\r\n        return gameSettings[gameId].distributionRates;\r\n    }\r\n\r\n    // update kittieRedemptionFee and store in Dai\r\n    function updateKittieRedemptionFee(uint256 gameId)\r\n        public\r\n        onlyContract(CONTRACT_NAME_GAMEMANAGER)\r\n    {\r\n        uint256 percentageHoneyPot = gameVarAndFee.getPercentageForKittieRedemptionFee();\r\n        (uint256 totalEthFunds, uint256 totalKTYFunds) = gmGetterDB.getFinalHoneypot(gameId);\r\n\r\n        gameSettings[gameId].redemptionFee = scheduler.calculateDynamicFee(percentageHoneyPot, totalEthFunds, totalKTYFunds);        \r\n\r\n        startGameAndCalculateEpoch(gameVarAndFee.getGameTimes().add(now));\r\n    }\r\n\r\n    // update Ticket Fee and store in Dai\r\n    function updateTicketFee(uint256 gameId)\r\n        public\r\n        onlyContract(CONTRACT_NAME_GAMECREATION)\r\n    {\r\n        uint256 percentageHoneyPot = gameVarAndFee.getPercentageForTicketFee();\r\n        (uint256 initialHoneypotEth, uint256 initialHoneypotKTY) = gmGetterDB.getInitialHoneypot(gameId);\r\n        gameSettings[gameId].ticketFee = scheduler.calculateDynamicFee(percentageHoneyPot, initialHoneypotEth, initialHoneypotKTY);\r\n    }\r\n\r\n    // update Betting Fee and store in Dai\r\n    function updateBettingFee(uint256 gameId)\r\n        public\r\n        onlyContract(CONTRACT_NAME_GAMECREATION)\r\n    {\r\n        uint256 percentageHoneyPot = gameVarAndFee.getPercentageForBettingFee();\r\n        (uint256 initialHoneypotEth, uint256 initialHoneypotKTY) = gmGetterDB.getInitialHoneypot(gameId);\r\n        gameSettings[gameId].bettingFee = scheduler.calculateDynamicFee(percentageHoneyPot, initialHoneypotEth, initialHoneypotKTY);\r\n    }\r\n\r\n    function getKittieExpirationTime(uint gameId) public view returns(uint){\r\n        return  gameSettings[gameId].kittieHellExpirationTime;\r\n    }\r\n\r\n    function getKittieRedemptionFee(uint256 gameId) public view returns(uint256, uint256) {\r\n        uint256 redemptionFeeDAI = gameSettings[gameId].redemptionFee;\r\n        uint256 redemptionFeeKTY = getKTY(redemptionFeeDAI);\r\n        uint256 etherForSwap = KtyUniswap(proxy.getContract(CONTRACT_NAME_KTY_UNISWAP)).etherFor(redemptionFeeKTY);\r\n        return (etherForSwap, redemptionFeeKTY);\r\n    }\r\n    \r\n    function getHoneypotExpiration(uint gameId) public view returns(uint){\r\n        return  gameSettings[gameId].honeypotExpirationTime;\r\n    }\r\n\r\n    function start(uint gameId, address player, uint randomNum) external onlyContract(CONTRACT_NAME_GAMEMANAGER){\r\n        gameByPlayer[gameId][player].pressedStart = true;\r\n        gameByPlayer[gameId][player].randomNum = randomNum;\r\n    }\r\n\r\n    function didHitStart(uint gameId, address player) public view returns(bool){\r\n        return gameByPlayer[gameId][player].pressedStart;\r\n    }\r\n\r\n    function getRandom(uint gameId, address player) public view returns(uint){\r\n        return gameByPlayer[gameId][player].randomNum;\r\n    }\r\n\r\n    function updateTopBettor(uint gameId, address player, address newTopBettor) external onlyContract(CONTRACT_NAME_GM_SETTER_DB){\r\n        gameByPlayer[gameId][player].topBettor = newTopBettor;\r\n    }\r\n\r\n    function getTopBettor(uint gameId, address player) public view returns(address){\r\n        return gameByPlayer[gameId][player].topBettor;\r\n    }\r\n\r\n    function updateSecondTopBettor(uint gameId, address player, address newSecondTopBettor) external onlyContract(CONTRACT_NAME_GM_SETTER_DB){\r\n        gameByPlayer[gameId][player].secondTopBettor = newSecondTopBettor;\r\n    }\r\n\r\n    function getSecondTopBettor(uint gameId, address player) public view returns(address){\r\n        return gameByPlayer[gameId][player].secondTopBettor;\r\n    }\r\n\r\n    function getTicketFee(uint256 gameId) public view returns(uint256, uint256){\r\n        uint256 ticketFeeDAI = gameSettings[gameId].ticketFee;\r\n        uint256 ticketFeeKTY = getKTY(ticketFeeDAI);\r\n        uint256 ethForSwap = 0;//KtyUniswap(proxy.getContract(CONTRACT_NAME_KTY_UNISWAP)).etherFor(ticketFeeKTY);\r\n        return (ethForSwap, ticketFeeKTY);\r\n    }\r\n\r\n    function getBettingFee(uint256 gameId) public view returns(uint256, uint256){\r\n        uint256 bettingFeeDAI = gameSettings[gameId].bettingFee;\r\n        uint256 bettingFeeKTY = getKTY(bettingFeeDAI);\r\n        uint256 ethForFeeSwap = KtyUniswap(proxy.getContract(CONTRACT_NAME_KTY_UNISWAP)).etherFor(bettingFeeKTY);\r\n        return (ethForFeeSwap, bettingFeeKTY);\r\n    }\r\n\r\n    function getMinimumContributors(uint gameId) public view returns(uint){\r\n        return gameSettings[gameId].minimumContributors;\r\n    }\r\n    \r\n    // stale function\r\n    // function getFinalizeRewards(uint gameId) public view returns(uint){\r\n    //     // get finalize rewards in dai\r\n    //     uint256 rewardsDAI = gameSettings[gameId].finalizeRewards;\r\n\r\n    //     return getKTY(rewardsDAI);\r\n    // }\r\n\r\n    function getKTY(uint256 _DAI) internal view returns(uint256) {\r\n        uint256 _ETH = gameVarAndFee.convertDaiToEth(_DAI);\r\n        return gameVarAndFee.convertEthToKty(_ETH);\r\n    }\r\n\r\n    function getPerformanceTimeCheck(uint gameId) public view returns(uint){\r\n        return gameSettings[gameId].performanceTime;\r\n    }\r\n\r\n    function getTimeExtension(uint gameId) public view returns(uint){\r\n        return gameSettings[gameId].timeExtension;\r\n    }\r\n\r\n    function updateTopbettors(uint256 _gameId, address _account, address _supportedPlayer)\r\n        external\r\n        onlyContract(CONTRACT_NAME_GAMEMANAGER)\r\n        // onlyExistentGame(_gameId)\r\n    {\r\n\r\n        address topBettor = getTopBettor(_gameId, _supportedPlayer);\r\n        (uint256 bettorTotal,,,) = gmGetterDB.getSupporterInfo(_gameId, _account);\r\n        (uint256 topBettorEth,,,) = gmGetterDB.getSupporterInfo(_gameId, topBettor);\r\n        \r\n        if(topBettor != _account){\r\n            if (bettorTotal > topBettorEth){\r\n                //If topBettor is already the account, dont update\r\n                gameByPlayer[_gameId][_supportedPlayer].topBettor = _account;\r\n                gameByPlayer[_gameId][_supportedPlayer].secondTopBettor = topBettor;\r\n            }\r\n            else {\r\n                address secondTopBettor = getSecondTopBettor(_gameId, _supportedPlayer);\r\n                (uint256 secondTopBettorEth,,,) = gmGetterDB.getSupporterInfo(_gameId, secondTopBettor);\r\n                if (bettorTotal > secondTopBettorEth && secondTopBettor != _account){\r\n                    gameByPlayer[_gameId][_supportedPlayer].secondTopBettor = _account;\r\n                }\r\n            }\r\n        }\r\n    }\r\n\r\n    function getOpponent(uint gameId, address player) public view returns(address){\r\n        (address playerBlack, address playerRed,,) = gmGetterDB.getGamePlayers(gameId);\r\n        if(playerBlack == player) return playerRed;\r\n        return playerBlack;\r\n    }\r\n\r\n    function getCorner(uint gameId, address player) public view returns(uint){\r\n        (address playerBlack, address playerRed,,) = gmGetterDB.getGamePlayers(gameId);\r\n        if(playerBlack == player) return 0;\r\n        if(playerRed == player) return 1;\r\n        return 2;\r\n    }\r\n\r\n    function calculateWinner\r\n    (\r\n        uint gameId, address playerBlack, address playerRed, uint random\r\n    )\r\n        external view\r\n        onlyContract(CONTRACT_NAME_GAMEMANAGER)\r\n        returns(address winner, address loser, uint pointsBlack, uint pointsRed)\r\n    {\r\n        pointsBlack = hitsResolve.calculateFinalPoints(gameId, playerBlack, random);\r\n        pointsRed = hitsResolve.calculateFinalPoints(gameId, playerRed, random);\r\n\r\n        //Added to make game more balanced\r\n        pointsBlack = (gmGetterDB.getTotalBet(gameId, playerBlack)).mul(pointsBlack);\r\n        pointsRed = (gmGetterDB.getTotalBet(gameId, playerRed)).mul(pointsRed);\r\n\r\n        if (pointsBlack > pointsRed)\r\n        {\r\n            winner = playerBlack;\r\n            loser = playerRed;\r\n        }\r\n        else if(pointsRed > pointsBlack)\r\n        {\r\n            winner = playerRed;\r\n            loser = playerBlack;\r\n        }\r\n        //If there is a tie in point, define by total eth bet\r\n        else\r\n        {\r\n            (,,,,uint[2] memory ethByCorner,,) = gmGetterDB.getHoneypotInfo(gameId);\r\n            if(ethByCorner[0] > ethByCorner[1] ){\r\n                winner = playerBlack;\r\n                loser = playerRed;\r\n            }\r\n            else{\r\n                winner = playerRed;\r\n                loser = playerBlack;\r\n            }\r\n        }\r\n    }\r\n\r\n    /**\r\n    * @dev This function is called if a game gets cancelled, so as to start a new game.\r\n    */\r\n    function startAfterCancel()\r\n    external\r\n    onlyContract(CONTRACT_NAME_GAMEMANAGER)\r\n    {\r\n        startGameAndCalculateEpoch(gameVarAndFee.getGameTimes().add(now));\r\n    }\r\n\r\n    /**\r\n    * @dev This function is called from manualMatching, to check if game can be scheduled.\r\n    */\r\n    function startManually(uint256 gameStartTime)\r\n    external\r\n    onlyContract(CONTRACT_NAME_GAMECREATION)\r\n    returns(bool)\r\n    {\r\n        uint256 activeEpochId = timeFrame.getActiveEpochID();\r\n        uint256 currentEpochEndTime = timeFrame._epochEndTime(activeEpochId);\r\n        return checkIfGameCanStart(gameStartTime, currentEpochEndTime);\r\n    }\r\n\r\n    function checkGame()\r\n    external\r\n    onlyContract(CONTRACT_NAME_SCHEDULER)\r\n    returns(bool)\r\n    {\r\n        uint256 activeEpochId = timeFrame.getActiveEpochID();\r\n        uint256 currentEpochEndTime = timeFrame._epochEndTime(activeEpochId);\r\n        return checkIfGameCanStart(gameVarAndFee.getGameTimes().add(now), currentEpochEndTime);\r\n    }\r\n\r\n    function checkIfGameCanStart(uint256 gameStartTime, uint256 currentEpochEndTime)\r\n    internal\r\n    returns(bool)\r\n    {\r\n        //If less than \"some time\" from epoch's ending or anotherGame is scheduled, cannot create.\r\n        if(currentEpochEndTime.sub(timeFrame.REST_DAY().add(timeFrame.SIX_HOURS())) <= gameStartTime || gameScheduled)\r\n            return false;\r\n\r\n        gameScheduled = true;\r\n        return true;\r\n    }\r\n\r\n    function startGameAndCalculateEpoch(uint256 gameStartTime)\r\n    internal\r\n    {\r\n        uint256 activeEpochId = timeFrame.getActiveEpochID();\r\n        uint256 currentEpochEndTime = timeFrame._epochEndTime(activeEpochId);\r\n        gameScheduled = false;\r\n\r\n        if(checkIfGameCanStart(gameVarAndFee.getGameTimes().add(now), currentEpochEndTime))\r\n            gameScheduled = scheduler.startGame();\r\n        else {\r\n            uint256 delay;\r\n            if(now > currentEpochEndTime.sub(timeFrame.REST_DAY()))\r\n                delay = now.sub(currentEpochEndTime.sub(timeFrame.REST_DAY()));\r\n\r\n            CronJob cron = CronJob(proxy.getContract(CONTRACT_NAME_CRONJOB));\r\n            cron.addCronJob(\r\n                CONTRACT_NAME_GAMESTORE,\r\n                currentEpochEndTime.add(delay),\r\n                abi.encodeWithSignature(\"createGameAndEpoch()\")\r\n            );\r\n\r\n            WithdrawPool(proxy.getContract(CONTRACT_NAME_WITHDRAW_POOL)).setInterestToEarningsTracker(\r\n                activeEpochId,\r\n                EndowmentDB(proxy.getContract(CONTRACT_NAME_ENDOWMENT_DB)).checkTotalForEpoch(activeEpochId)\r\n            );\r\n        }\r\n    }\r\n\r\n    /**\r\n    * @dev added to cronjob : Creates new Game and New Epoch\r\n    */\r\n    function createGameAndEpoch()\r\n    external\r\n    onlyContract(CONTRACT_NAME_CRONJOB)\r\n    {\r\n        timeFrame.setNewEpoch();\r\n        gameScheduled = scheduler.startGame();\r\n        WithdrawPool(proxy.getContract(CONTRACT_NAME_WITHDRAW_POOL)).dissolveOldCreateNew();\r\n    }\r\n}",
  "sourcePath": "C:\\Users\\Alex\\Desktop\\MyProjects\\contracts\\contracts\\modules\\gamemanager\\GameStore.sol",
  "compiler": {
    "name": "solc",
    "version": "0.5.17+commit.d19bba13.Emscripten.clang"
  },
  "schemaVersion": "3.0.11",
  "updatedAt": "2020-06-16T22:34:06.188Z",
  "devdoc": {
    "methods": {
      "createGameAndEpoch()": {
        "details": "added to cronjob : Creates new Game and New Epoch"
      },
      "startAfterCancel()": {
        "details": "This function is called if a game gets cancelled, so as to start a new game."
      },
      "startManually(uint256)": {
        "details": "This function is called from manualMatching, to check if game can be scheduled."
      }
    }
  },
  "userdoc": {
    "methods": {
      "setProxy(address)": {
        "notice": "Set/update address of Proxy contract"
      }
    }
  }
}