{
  "contractName": "GameCreation",
  "abi": [
    {
      "constant": true,
      "inputs": [],
      "name": "gmGetterDB",
      "outputs": [
        {
          "internalType": "contract GMGetterDB",
          "name": "",
          "type": "address"
        }
      ],
      "payable": false,
      "stateMutability": "view",
      "type": "function"
    },
    {
      "constant": true,
      "inputs": [
        {
          "internalType": "uint256",
          "name": "",
          "type": "uint256"
        }
      ],
      "name": "cronJobsForGames",
      "outputs": [
        {
          "internalType": "uint256",
          "name": "",
          "type": "uint256"
        }
      ],
      "payable": false,
      "stateMutability": "view",
      "type": "function"
    },
    {
      "constant": true,
      "inputs": [],
      "name": "endowmentFund",
      "outputs": [
        {
          "internalType": "contract EndowmentFund",
          "name": "",
          "type": "address"
        }
      ],
      "payable": false,
      "stateMutability": "view",
      "type": "function"
    },
    {
      "constant": true,
      "inputs": [],
      "name": "owner",
      "outputs": [
        {
          "internalType": "address payable",
          "name": "",
          "type": "address"
        }
      ],
      "payable": false,
      "stateMutability": "view",
      "type": "function"
    },
    {
      "constant": false,
      "inputs": [
        {
          "internalType": "contract ProxyBase",
          "name": "_proxy",
          "type": "address"
        }
      ],
      "name": "setProxy",
      "outputs": [],
      "payable": false,
      "stateMutability": "nonpayable",
      "type": "function"
    },
    {
      "constant": true,
      "inputs": [],
      "name": "gameVarAndFee",
      "outputs": [
        {
          "internalType": "contract GameVarAndFee",
          "name": "",
          "type": "address"
        }
      ],
      "payable": false,
      "stateMutability": "view",
      "type": "function"
    },
    {
      "constant": true,
      "inputs": [],
      "name": "gameStore",
      "outputs": [
        {
          "internalType": "contract GameStore",
          "name": "",
          "type": "address"
        }
      ],
      "payable": false,
      "stateMutability": "view",
      "type": "function"
    },
    {
      "constant": true,
      "inputs": [],
      "name": "scheduler",
      "outputs": [
        {
          "internalType": "contract Scheduler",
          "name": "",
          "type": "address"
        }
      ],
      "payable": false,
      "stateMutability": "view",
      "type": "function"
    },
    {
      "constant": true,
      "inputs": [],
      "name": "cronJob",
      "outputs": [
        {
          "internalType": "contract CronJob",
          "name": "",
          "type": "address"
        }
      ],
      "payable": false,
      "stateMutability": "view",
      "type": "function"
    },
    {
      "constant": true,
      "inputs": [],
      "name": "proxy",
      "outputs": [
        {
          "internalType": "contract ProxyBase",
          "name": "",
          "type": "address"
        }
      ],
      "payable": false,
      "stateMutability": "view",
      "type": "function"
    },
    {
      "constant": true,
      "inputs": [],
      "name": "cryptoKitties",
      "outputs": [
        {
          "internalType": "contract IKittyCore",
          "name": "",
          "type": "address"
        }
      ],
      "payable": false,
      "stateMutability": "view",
      "type": "function"
    },
    {
      "constant": true,
      "inputs": [],
      "name": "gmSetterDB",
      "outputs": [
        {
          "internalType": "contract GMSetterDB",
          "name": "",
          "type": "address"
        }
      ],
      "payable": false,
      "stateMutability": "view",
      "type": "function"
    },
    {
      "constant": false,
      "inputs": [
        {
          "internalType": "address payable",
          "name": "newOwner",
          "type": "address"
        }
      ],
      "name": "transferOwnership",
      "outputs": [],
      "payable": false,
      "stateMutability": "nonpayable",
      "type": "function"
    },
    {
      "anonymous": false,
      "inputs": [
        {
          "indexed": true,
          "internalType": "uint256",
          "name": "gameId",
          "type": "uint256"
        },
        {
          "indexed": false,
          "internalType": "address",
          "name": "playerBlack",
          "type": "address"
        },
        {
          "indexed": false,
          "internalType": "uint256",
          "name": "kittieBlack",
          "type": "uint256"
        },
        {
          "indexed": false,
          "internalType": "address",
          "name": "playerRed",
          "type": "address"
        },
        {
          "indexed": false,
          "internalType": "uint256",
          "name": "kittieRed",
          "type": "uint256"
        },
        {
          "indexed": false,
          "internalType": "uint256",
          "name": "gameStartTime",
          "type": "uint256"
        }
      ],
      "name": "NewGame",
      "type": "event"
    },
    {
      "anonymous": false,
      "inputs": [
        {
          "indexed": true,
          "internalType": "uint256",
          "name": "kittieId",
          "type": "uint256"
        },
        {
          "indexed": true,
          "internalType": "address",
          "name": "owner",
          "type": "address"
        },
        {
          "indexed": false,
          "internalType": "uint256",
          "name": "timeListed",
          "type": "uint256"
        }
      ],
      "name": "NewListing",
      "type": "event"
    },
    {
      "anonymous": false,
      "inputs": [
        {
          "indexed": true,
          "internalType": "uint256",
          "name": "jobId",
          "type": "uint256"
        },
        {
          "indexed": false,
          "internalType": "uint256",
          "name": "jobTime",
          "type": "uint256"
        },
        {
          "indexed": true,
          "internalType": "uint256",
          "name": "gameId",
          "type": "uint256"
        },
        {
          "indexed": false,
          "internalType": "string",
          "name": "job",
          "type": "string"
        }
      ],
      "name": "Scheduled",
      "type": "event"
    },
    {
      "constant": false,
      "inputs": [],
      "name": "initialize",
      "outputs": [],
      "payable": false,
      "stateMutability": "nonpayable",
      "type": "function"
    },
    {
      "constant": false,
      "inputs": [
        {
          "internalType": "uint256",
          "name": "kittieId",
          "type": "uint256"
        }
      ],
      "name": "listKittie",
      "outputs": [],
      "payable": false,
      "stateMutability": "nonpayable",
      "type": "function"
    },
    {
      "constant": false,
      "inputs": [
        {
          "internalType": "address",
          "name": "playerRed",
          "type": "address"
        },
        {
          "internalType": "address",
          "name": "playerBlack",
          "type": "address"
        },
        {
          "internalType": "uint256",
          "name": "kittyRed",
          "type": "uint256"
        },
        {
          "internalType": "uint256",
          "name": "kittyBlack",
          "type": "uint256"
        },
        {
          "internalType": "uint256",
          "name": "gameStartTime",
          "type": "uint256"
        }
      ],
      "name": "manualMatchKitties",
      "outputs": [],
      "payable": false,
      "stateMutability": "nonpayable",
      "type": "function"
    },
    {
      "constant": false,
      "inputs": [
        {
          "internalType": "address",
          "name": "playerRed",
          "type": "address"
        },
        {
          "internalType": "address",
          "name": "playerBlack",
          "type": "address"
        },
        {
          "internalType": "uint256",
          "name": "kittyRed",
          "type": "uint256"
        },
        {
          "internalType": "uint256",
          "name": "kittyBlack",
          "type": "uint256"
        },
        {
          "internalType": "uint256",
          "name": "gameStartTime",
          "type": "uint256"
        }
      ],
      "name": "createFight",
      "outputs": [],
      "payable": false,
      "stateMutability": "nonpayable",
      "type": "function"
    },
    {
      "constant": false,
      "inputs": [
        {
          "internalType": "uint256",
          "name": "gameId",
          "type": "uint256"
        }
      ],
      "name": "removeKitties",
      "outputs": [],
      "payable": false,
      "stateMutability": "nonpayable",
      "type": "function"
    },
    {
      "constant": false,
      "inputs": [
        {
          "internalType": "uint256",
          "name": "gameId",
          "type": "uint256"
        },
        {
          "internalType": "uint256",
          "name": "state",
          "type": "uint256"
        }
      ],
      "name": "scheduleJobs",
      "outputs": [],
      "payable": false,
      "stateMutability": "nonpayable",
      "type": "function"
    },
    {
      "constant": false,
      "inputs": [
        {
          "internalType": "uint256",
          "name": "gameId",
          "type": "uint256"
        }
      ],
      "name": "updateGameStateCron",
      "outputs": [],
      "payable": false,
      "stateMutability": "nonpayable",
      "type": "function"
    },
    {
      "constant": false,
      "inputs": [
        {
          "internalType": "uint256",
          "name": "gameId",
          "type": "uint256"
        },
        {
          "internalType": "string",
          "name": "reason",
          "type": "string"
        }
      ],
      "name": "callForfeiterCron",
      "outputs": [],
      "payable": false,
      "stateMutability": "nonpayable",
      "type": "function"
    },
    {
      "constant": false,
      "inputs": [
        {
          "internalType": "uint256",
          "name": "gameId",
          "type": "uint256"
        }
      ],
      "name": "callGameEndCron",
      "outputs": [],
      "payable": false,
      "stateMutability": "nonpayable",
      "type": "function"
    },
    {
      "constant": false,
      "inputs": [
        {
          "internalType": "uint256",
          "name": "gameId",
          "type": "uint256"
        }
      ],
      "name": "rescheduleCronJob",
      "outputs": [],
      "payable": false,
      "stateMutability": "nonpayable",
      "type": "function"
    },
    {
      "constant": false,
      "inputs": [
        {
          "internalType": "uint256",
          "name": "gameId",
          "type": "uint256"
        }
      ],
      "name": "deleteCronjob",
      "outputs": [],
      "payable": false,
      "stateMutability": "nonpayable",
      "type": "function"
    }
  ],
  "bytecode": "0x6080604052336000806101000a81548173ffffffffffffffffffffffffffffffffffffffff021916908373ffffffffffffffffffffffffffffffffffffffff1602179055506149b1806100536000396000f3fe608060405234801561001057600080fd5b50600436106101585760003560e01c8063a3b3bd7b116100c3578063ef410f451161007c578063ef410f4514610632578063f26dee8e1461067c578063f2fde38b146106c6578063f4dc834a1461070a578063f60ac4b714610738578063fbf33cfb1461076657610158565b8063a3b3bd7b14610492578063b1be6469146104dc578063c2b6690414610526578063d1ad17bf14610554578063da7f76d41461059e578063ec556889146105e857610158565b80636fee856a116101155780636fee856a146103665780638129fc1c146103945780638da5cb5b1461039e57806397107d6d146103e85780639d60d53e1461042c578063a13995401461045a57610158565b8063014415411461015d5780631fc75180146101df5780632b3720b11461022957806360cf7689146102ac57806369af70b3146102ee57806369ea0ea714610338575b600080fd5b6101dd600480360360a081101561017357600080fd5b81019080803573ffffffffffffffffffffffffffffffffffffffff169060200190929190803573ffffffffffffffffffffffffffffffffffffffff1690602001909291908035906020019092919080359060200190929190803590602001909291905050506107e8565b005b6101e761083c565b604051808273ffffffffffffffffffffffffffffffffffffffff1673ffffffffffffffffffffffffffffffffffffffff16815260200191505060405180910390f35b6102aa6004803603604081101561023f57600080fd5b81019080803590602001909291908035906020019064010000000081111561026657600080fd5b82018360208201111561027857600080fd5b8035906020019184600183028401116401000000008311171561029a57600080fd5b9091929391929390505050610862565b005b6102d8600480360360208110156102c257600080fd5b8101908080359060200190929190505050610a8d565b6040518082815260200191505060405180910390f35b6102f6610aa5565b604051808273ffffffffffffffffffffffffffffffffffffffff1673ffffffffffffffffffffffffffffffffffffffff16815260200191505060405180910390f35b6103646004803603602081101561034e57600080fd5b8101908080359060200190929190505050610acb565b005b6103926004803603602081101561037c57600080fd5b8101908080359060200190929190505050610d7d565b005b61039c610f35565b005b6103a6611bcd565b604051808273ffffffffffffffffffffffffffffffffffffffff1673ffffffffffffffffffffffffffffffffffffffff16815260200191505060405180910390f35b61042a600480360360208110156103fe57600080fd5b81019080803573ffffffffffffffffffffffffffffffffffffffff169060200190929190505050611bf2565b005b6104586004803603602081101561044257600080fd5b8101908080359060200190929190505050611c8c565b005b6104906004803603604081101561047057600080fd5b810190808035906020019092919080359060200190929190505050611e17565b005b61049a61299e565b604051808273ffffffffffffffffffffffffffffffffffffffff1673ffffffffffffffffffffffffffffffffffffffff16815260200191505060405180910390f35b6104e46129c4565b604051808273ffffffffffffffffffffffffffffffffffffffff1673ffffffffffffffffffffffffffffffffffffffff16815260200191505060405180910390f35b6105526004803603602081101561053c57600080fd5b81019080803590602001909291905050506129ea565b005b61055c612c6a565b604051808273ffffffffffffffffffffffffffffffffffffffff1673ffffffffffffffffffffffffffffffffffffffff16815260200191505060405180910390f35b6105a6612c90565b604051808273ffffffffffffffffffffffffffffffffffffffff1673ffffffffffffffffffffffffffffffffffffffff16815260200191505060405180910390f35b6105f0612cb6565b604051808273ffffffffffffffffffffffffffffffffffffffff1673ffffffffffffffffffffffffffffffffffffffff16815260200191505060405180910390f35b61063a612cdc565b604051808273ffffffffffffffffffffffffffffffffffffffff1673ffffffffffffffffffffffffffffffffffffffff16815260200191505060405180910390f35b610684612d02565b604051808273ffffffffffffffffffffffffffffffffffffffff1673ffffffffffffffffffffffffffffffffffffffff16815260200191505060405180910390f35b610708600480360360208110156106dc57600080fd5b81019080803573ffffffffffffffffffffffffffffffffffffffff169060200190929190505050612d28565b005b6107366004803603602081101561072057600080fd5b8101908080359060200190929190505050612df6565b005b6107646004803603602081101561074e57600080fd5b81019080803590602001909291905050506131ed565b005b6107e6600480360360a081101561077c57600080fd5b81019080803573ffffffffffffffffffffffffffffffffffffffff169060200190929190803573ffffffffffffffffffffffffffffffffffffffff1690602001909291908035906020019092919080359060200190929190803590602001909291905050506137e2565b005b6040518060400160405280600981526020017f5363686564756c6572000000000000000000000000000000000000000000000081525061082781613d57565b6108348686868686613ff2565b505050505050565b600360009054906101000a900473ffffffffffffffffffffffffffffffffffffffff1681565b6040518060400160405280600781526020017f43726f6e4a6f62000000000000000000000000000000000000000000000000008152506108a181613d57565b600160009054906101000a900473ffffffffffffffffffffffffffffffffffffffff1673ffffffffffffffffffffffffffffffffffffffff1663358177736040518060400160405280600981526020017f466f7266656974657200000000000000000000000000000000000000000000008152506040518263ffffffff1660e01b81526004018080602001828103825283818151815260200191508051906020019080838360005b83811015610964578082015181840152602081019050610949565b50505050905090810190601f1680156109915780820380516001836020036101000a031916815260200191505b509250505060206040518083038186803b1580156109ae57600080fd5b505afa1580156109c2573d6000803e3d6000fd5b505050506040513d60208110156109d857600080fd5b810190808051906020019092919050505073ffffffffffffffffffffffffffffffffffffffff1663b0c5831e8585856040518463ffffffff1660e01b815260040180848152602001806020018281038252848482818152602001925080828437600081840152601f19601f820116905080830192505050945050505050600060405180830381600087803b158015610a6f57600080fd5b505af1158015610a83573d6000803e3d6000fd5b5050505050505050565b600a6020528060005260406000206000915090505481565b600560009054906101000a900473ffffffffffffffffffffffffffffffffffffffff1681565b6040518060400160405280600781526020017f43726f6e4a6f6200000000000000000000000000000000000000000000000000815250610b0a81613d57565b6000600360009054906101000a900473ffffffffffffffffffffffffffffffffffffffff1673ffffffffffffffffffffffffffffffffffffffff1663ffde0c74846040518263ffffffff1660e01b81526004018082815260200191505060206040518083038186803b158015610b7f57600080fd5b505afa158015610b93573d6000803e3d6000fd5b505050506040513d6020811015610ba957600080fd5b810190808051906020019092919050505090506002811415610d7857600160009054906101000a900473ffffffffffffffffffffffffffffffffffffffff1673ffffffffffffffffffffffffffffffffffffffff1663358177736040518060400160405280600b81526020017f47616d654d616e616765720000000000000000000000000000000000000000008152506040518263ffffffff1660e01b81526004018080602001828103825283818151815260200191508051906020019080838360005b83811015610c88578082015181840152602081019050610c6d565b50505050905090810190601f168015610cb55780820380516001836020036101000a031916815260200191505b509250505060206040518083038186803b158015610cd257600080fd5b505afa158015610ce6573d6000803e3d6000fd5b505050506040513d6020811015610cfc57600080fd5b810190808051906020019092919050505073ffffffffffffffffffffffffffffffffffffffff1663ddda0719846040518263ffffffff1660e01b815260040180828152602001915050600060405180830381600087803b158015610d5f57600080fd5b505af1158015610d73573d6000803e3d6000fd5b505050505b505050565b6040518060400160405280600b81526020017f47616d654d616e61676572000000000000000000000000000000000000000000815250610dbc81613d57565b600080600360009054906101000a900473ffffffffffffffffffffffffffffffffffffffff1673ffffffffffffffffffffffffffffffffffffffff166315a40f49856040518263ffffffff1660e01b81526004018082815260200191505060806040518083038186803b158015610e3257600080fd5b505afa158015610e46573d6000803e3d6000fd5b505050506040513d6080811015610e5c57600080fd5b8101908080519060200190929190805190602001909291908051906020019092919080519060200190929190505050935093505050600260009054906101000a900473ffffffffffffffffffffffffffffffffffffffff1673ffffffffffffffffffffffffffffffffffffffff1663fd3d1c24838360006040518463ffffffff1660e01b8152600401808481526020018381526020018281526020019350505050600060405180830381600087803b158015610f1757600080fd5b505af1158015610f2b573d6000803e3d6000fd5b5050505050505050565b6000809054906101000a900473ffffffffffffffffffffffffffffffffffffffff1673ffffffffffffffffffffffffffffffffffffffff163373ffffffffffffffffffffffffffffffffffffffff1614610f8b57fe5b600160009054906101000a900473ffffffffffffffffffffffffffffffffffffffff1673ffffffffffffffffffffffffffffffffffffffff1663358177736040518060400160405280600a81526020017f474d5365747465724442000000000000000000000000000000000000000000008152506040518263ffffffff1660e01b81526004018080602001828103825283818151815260200191508051906020019080838360005b8381101561104e578082015181840152602081019050611033565b50505050905090810190601f16801561107b5780820380516001836020036101000a031916815260200191505b509250505060206040518083038186803b15801561109857600080fd5b505afa1580156110ac573d6000803e3d6000fd5b505050506040513d60208110156110c257600080fd5b8101908080519060200190929190505050600260006101000a81548173ffffffffffffffffffffffffffffffffffffffff021916908373ffffffffffffffffffffffffffffffffffffffff160217905550600160009054906101000a900473ffffffffffffffffffffffffffffffffffffffff1673ffffffffffffffffffffffffffffffffffffffff1663358177736040518060400160405280600a81526020017f474d4765747465724442000000000000000000000000000000000000000000008152506040518263ffffffff1660e01b81526004018080602001828103825283818151815260200191508051906020019080838360005b838110156111d65780820151818401526020810190506111bb565b50505050905090810190601f1680156112035780820380516001836020036101000a031916815260200191505b509250505060206040518083038186803b15801561122057600080fd5b505afa158015611234573d6000803e3d6000fd5b505050506040513d602081101561124a57600080fd5b8101908080519060200190929190505050600360006101000a81548173ffffffffffffffffffffffffffffffffffffffff021916908373ffffffffffffffffffffffffffffffffffffffff160217905550600160009054906101000a900473ffffffffffffffffffffffffffffffffffffffff1673ffffffffffffffffffffffffffffffffffffffff1663358177736040518060400160405280600d81526020017f456e646f776d656e7446756e64000000000000000000000000000000000000008152506040518263ffffffff1660e01b81526004018080602001828103825283818151815260200191508051906020019080838360005b8381101561135e578082015181840152602081019050611343565b50505050905090810190601f16801561138b5780820380516001836020036101000a031916815260200191505b509250505060206040518083038186803b1580156113a857600080fd5b505afa1580156113bc573d6000803e3d6000fd5b505050506040513d60208110156113d257600080fd5b8101908080519060200190929190505050600560006101000a81548173ffffffffffffffffffffffffffffffffffffffff021916908373ffffffffffffffffffffffffffffffffffffffff160217905550600160009054906101000a900473ffffffffffffffffffffffffffffffffffffffff1673ffffffffffffffffffffffffffffffffffffffff1663358177736040518060400160405280600d81526020017f47616d65566172416e64466565000000000000000000000000000000000000008152506040518263ffffffff1660e01b81526004018080602001828103825283818151815260200191508051906020019080838360005b838110156114e65780820151818401526020810190506114cb565b50505050905090810190601f1680156115135780820380516001836020036101000a031916815260200191505b509250505060206040518083038186803b15801561153057600080fd5b505afa158015611544573d6000803e3d6000fd5b505050506040513d602081101561155a57600080fd5b8101908080519060200190929190505050600460006101000a81548173ffffffffffffffffffffffffffffffffffffffff021916908373ffffffffffffffffffffffffffffffffffffffff160217905550600160009054906101000a900473ffffffffffffffffffffffffffffffffffffffff1673ffffffffffffffffffffffffffffffffffffffff1663358177736040518060400160405280600981526020017f5363686564756c657200000000000000000000000000000000000000000000008152506040518263ffffffff1660e01b81526004018080602001828103825283818151815260200191508051906020019080838360005b8381101561166e578082015181840152602081019050611653565b50505050905090810190601f16801561169b5780820380516001836020036101000a031916815260200191505b509250505060206040518083038186803b1580156116b857600080fd5b505afa1580156116cc573d6000803e3d6000fd5b505050506040513d60208110156116e257600080fd5b8101908080519060200190929190505050600660006101000a81548173ffffffffffffffffffffffffffffffffffffffff021916908373ffffffffffffffffffffffffffffffffffffffff160217905550600160009054906101000a900473ffffffffffffffffffffffffffffffffffffffff1673ffffffffffffffffffffffffffffffffffffffff1663358177736040518060400160405280600d81526020017f43727970746f4b697474696573000000000000000000000000000000000000008152506040518263ffffffff1660e01b81526004018080602001828103825283818151815260200191508051906020019080838360005b838110156117f65780820151818401526020810190506117db565b50505050905090810190601f1680156118235780820380516001836020036101000a031916815260200191505b509250505060206040518083038186803b15801561184057600080fd5b505afa158015611854573d6000803e3d6000fd5b505050506040513d602081101561186a57600080fd5b8101908080519060200190929190505050600760006101000a81548173ffffffffffffffffffffffffffffffffffffffff021916908373ffffffffffffffffffffffffffffffffffffffff160217905550600160009054906101000a900473ffffffffffffffffffffffffffffffffffffffff1673ffffffffffffffffffffffffffffffffffffffff1663358177736040518060400160405280600981526020017f47616d6553746f726500000000000000000000000000000000000000000000008152506040518263ffffffff1660e01b81526004018080602001828103825283818151815260200191508051906020019080838360005b8381101561197e578082015181840152602081019050611963565b50505050905090810190601f1680156119ab5780820380516001836020036101000a031916815260200191505b509250505060206040518083038186803b1580156119c857600080fd5b505afa1580156119dc573d6000803e3d6000fd5b505050506040513d60208110156119f257600080fd5b8101908080519060200190929190505050600860006101000a81548173ffffffffffffffffffffffffffffffffffffffff021916908373ffffffffffffffffffffffffffffffffffffffff160217905550600160009054906101000a900473ffffffffffffffffffffffffffffffffffffffff1673ffffffffffffffffffffffffffffffffffffffff1663358177736040518060400160405280600781526020017f43726f6e4a6f62000000000000000000000000000000000000000000000000008152506040518263ffffffff1660e01b81526004018080602001828103825283818151815260200191508051906020019080838360005b83811015611b06578082015181840152602081019050611aeb565b50505050905090810190601f168015611b335780820380516001836020036101000a031916815260200191505b509250505060206040518083038186803b158015611b5057600080fd5b505afa158015611b64573d6000803e3d6000fd5b505050506040513d6020811015611b7a57600080fd5b8101908080519060200190929190505050600960006101000a81548173ffffffffffffffffffffffffffffffffffffffff021916908373ffffffffffffffffffffffffffffffffffffffff160217905550565b6000809054906101000a900473ffffffffffffffffffffffffffffffffffffffff1681565b6000809054906101000a900473ffffffffffffffffffffffffffffffffffffffff1673ffffffffffffffffffffffffffffffffffffffff163373ffffffffffffffffffffffffffffffffffffffff1614611c4857fe5b80600160006101000a81548173ffffffffffffffffffffffffffffffffffffffff021916908373ffffffffffffffffffffffffffffffffffffffff16021790555050565b6040518060400160405280600b81526020017f47616d654d616e61676572000000000000000000000000000000000000000000815250611ccb81613d57565b6000600a6000848152602001908152602001600020549050600960009054906101000a900473ffffffffffffffffffffffffffffffffffffffff1673ffffffffffffffffffffffffffffffffffffffff16639d8f101f6040518060400160405280600c81526020017f47616d654372656174696f6e0000000000000000000000000000000000000000815250836040518363ffffffff1660e01b81526004018080602001838152602001828103825284818151815260200191508051906020019080838360005b83811015611dad578082015181840152602081019050611d92565b50505050905090810190601f168015611dda5780820380516001836020036101000a031916815260200191505b509350505050600060405180830381600087803b158015611dfa57600080fd5b505af1158015611e0e573d6000803e3d6000fd5b50505050505050565b6040518060400160405280600a81526020017f474d536574746572444200000000000000000000000000000000000000000000815250611e5681613d57565b6000821415612204576000600360009054906101000a900473ffffffffffffffffffffffffffffffffffffffff1673ffffffffffffffffffffffffffffffffffffffff16638851470d856040518263ffffffff1660e01b81526004018082815260200191505060606040518083038186803b158015611ed457600080fd5b505afa158015611ee8573d6000803e3d6000fd5b505050506040513d6060811015611efe57600080fd5b81019080805190602001909291908051906020019092919080519060200190929190505050509150506000600960009054906101000a900473ffffffffffffffffffffffffffffffffffffffff1673ffffffffffffffffffffffffffffffffffffffff1663c19304966040518060400160405280600c81526020017f47616d654372656174696f6e00000000000000000000000000000000000000008152508488604051602401808281526020019150506040516020818303038152906040527ff4dc834a000000000000000000000000000000000000000000000000000000007bffffffffffffffffffffffffffffffffffffffffffffffffffffffff19166020820180517bffffffffffffffffffffffffffffffffffffffffffffffffffffffff83818316178352505050506040518463ffffffff1660e01b8152600401808060200184815260200180602001838103835286818151815260200191508051906020019080838360005b8381101561208557808201518184015260208101905061206a565b50505050905090810190601f1680156120b25780820380516001836020036101000a031916815260200191505b50838103825284818151815260200191508051906020019080838360005b838110156120eb5780820151818401526020810190506120d0565b50505050905090810190601f1680156121185780820380516001836020036101000a031916815260200191505b5095505050505050602060405180830381600087803b15801561213a57600080fd5b505af115801561214e573d6000803e3d6000fd5b505050506040513d602081101561216457600080fd5b8101908080519060200190929190505050905084817fa3cd382277b18d8b5a2ffe52afc5a1405eee5818fa12b7f0678f40e4dc4f2054846040518082815260200180602001828103825260118152602001807f4368616e676520737461746520746f20310000000000000000000000000000008152506020019250505060405180910390a380600a60008781526020019081526020016000208190555050505b60018214156125eb576000600360009054906101000a900473ffffffffffffffffffffffffffffffffffffffff1673ffffffffffffffffffffffffffffffffffffffff16638851470d856040518263ffffffff1660e01b81526004018082815260200191505060606040518083038186803b15801561228257600080fd5b505afa158015612296573d6000803e3d6000fd5b505050506040513d60608110156122ac57600080fd5b81019080805190602001909291908051906020019092919080519060200190929190505050505090506000600960009054906101000a900473ffffffffffffffffffffffffffffffffffffffff1673ffffffffffffffffffffffffffffffffffffffff1663c19304966040518060400160405280600c81526020017f47616d654372656174696f6e000000000000000000000000000000000000000081525084886040516024018082815260200180602001828103825260118152602001807f446964206e6f7420686974207374617274000000000000000000000000000000815250602001925050506040516020818303038152906040527f5fecc819000000000000000000000000000000000000000000000000000000007bffffffffffffffffffffffffffffffffffffffffffffffffffffffff19166020820180517bffffffffffffffffffffffffffffffffffffffffffffffffffffffff83818316178352505050506040518463ffffffff1660e01b8152600401808060200184815260200180602001838103835286818151815260200191508051906020019080838360005b8381101561246c578082015181840152602081019050612451565b50505050905090810190601f1680156124995780820380516001836020036101000a031916815260200191505b50838103825284818151815260200191508051906020019080838360005b838110156124d25780820151818401526020810190506124b7565b50505050905090810190601f1680156124ff5780820380516001836020036101000a031916815260200191505b5095505050505050602060405180830381600087803b15801561252157600080fd5b505af1158015612535573d6000803e3d6000fd5b505050506040513d602081101561254b57600080fd5b8101908080519060200190929190505050905084817fa3cd382277b18d8b5a2ffe52afc5a1405eee5818fa12b7f0678f40e4dc4f2054846040518082815260200180602001828103825260118152602001807f4368616e676520737461746520746f20320000000000000000000000000000008152506020019250505060405180910390a380600a60008781526020019081526020016000208190555050505b6002821415612999576000600360009054906101000a900473ffffffffffffffffffffffffffffffffffffffff1673ffffffffffffffffffffffffffffffffffffffff16638851470d856040518263ffffffff1660e01b81526004018082815260200191505060606040518083038186803b15801561266957600080fd5b505afa15801561267d573d6000803e3d6000fd5b505050506040513d606081101561269357600080fd5b81019080805190602001909291908051906020019092919080519060200190929190505050925050506000600960009054906101000a900473ffffffffffffffffffffffffffffffffffffffff1673ffffffffffffffffffffffffffffffffffffffff1663c19304966040518060400160405280600c81526020017f47616d654372656174696f6e00000000000000000000000000000000000000008152508488604051602401808281526020019150506040516020818303038152906040527f69ea0ea7000000000000000000000000000000000000000000000000000000007bffffffffffffffffffffffffffffffffffffffffffffffffffffffff19166020820180517bffffffffffffffffffffffffffffffffffffffffffffffffffffffff83818316178352505050506040518463ffffffff1660e01b8152600401808060200184815260200180602001838103835286818151815260200191508051906020019080838360005b8381101561281a5780820151818401526020810190506127ff565b50505050905090810190601f1680156128475780820380516001836020036101000a031916815260200191505b50838103825284818151815260200191508051906020019080838360005b83811015612880578082015181840152602081019050612865565b50505050905090810190601f1680156128ad5780820380516001836020036101000a031916815260200191505b5095505050505050602060405180830381600087803b1580156128cf57600080fd5b505af11580156128e3573d6000803e3d6000fd5b505050506040513d60208110156128f957600080fd5b8101908080519060200190929190505050905084817fa3cd382277b18d8b5a2ffe52afc5a1405eee5818fa12b7f0678f40e4dc4f2054846040518082815260200180602001828103825260118152602001807f4368616e676520737461746520746f20330000000000000000000000000000008152506020019250505060405180910390a380600a60008781526020019081526020016000208190555050505b505050565b600460009054906101000a900473ffffffffffffffffffffffffffffffffffffffff1681565b600860009054906101000a900473ffffffffffffffffffffffffffffffffffffffff1681565b6040518060400160405280600b81526020017f47616d654d616e61676572000000000000000000000000000000000000000000815250612a2981613d57565b6000600a60008481526020019081526020016000205490506000600360009054906101000a900473ffffffffffffffffffffffffffffffffffffffff1673ffffffffffffffffffffffffffffffffffffffff16638851470d856040518263ffffffff1660e01b81526004018082815260200191505060606040518083038186803b158015612ab657600080fd5b505afa158015612aca573d6000803e3d6000fd5b505050506040513d6060811015612ae057600080fd5b8101908080519060200190929190805190602001909291908051906020019092919050505092505050600960009054906101000a900473ffffffffffffffffffffffffffffffffffffffff1673ffffffffffffffffffffffffffffffffffffffff1663ecb7035b6040518060400160405280600c81526020017f47616d654372656174696f6e000000000000000000000000000000000000000081525084846040518463ffffffff1660e01b81526004018080602001848152602001838152602001828103825285818151815260200191508051906020019080838360005b83811015612bda578082015181840152602081019050612bbf565b50505050905090810190601f168015612c075780820380516001836020036101000a031916815260200191505b50945050505050602060405180830381600087803b158015612c2857600080fd5b505af1158015612c3c573d6000803e3d6000fd5b505050506040513d6020811015612c5257600080fd5b81019080805190602001909291905050505050505050565b600660009054906101000a900473ffffffffffffffffffffffffffffffffffffffff1681565b600960009054906101000a900473ffffffffffffffffffffffffffffffffffffffff1681565b600160009054906101000a900473ffffffffffffffffffffffffffffffffffffffff1681565b600760009054906101000a900473ffffffffffffffffffffffffffffffffffffffff1681565b600260009054906101000a900473ffffffffffffffffffffffffffffffffffffffff1681565b6000809054906101000a900473ffffffffffffffffffffffffffffffffffffffff1673ffffffffffffffffffffffffffffffffffffffff163373ffffffffffffffffffffffffffffffffffffffff1614612d7e57fe5b600073ffffffffffffffffffffffffffffffffffffffff168173ffffffffffffffffffffffffffffffffffffffff1614612df357806000806101000a81548173ffffffffffffffffffffffffffffffffffffffff021916908373ffffffffffffffffffffffffffffffffffffffff1602179055505b50565b6040518060400160405280600781526020017f43726f6e4a6f6200000000000000000000000000000000000000000000000000815250612e3581613d57565b6000600360009054906101000a900473ffffffffffffffffffffffffffffffffffffffff1673ffffffffffffffffffffffffffffffffffffffff1663ffde0c74846040518263ffffffff1660e01b81526004018082815260200191505060206040518083038186803b158015612eaa57600080fd5b505afa158015612ebe573d6000803e3d6000fd5b505050506040513d6020811015612ed457600080fd5b81019080805190602001909291905050509050600160009054906101000a900473ffffffffffffffffffffffffffffffffffffffff1673ffffffffffffffffffffffffffffffffffffffff1663358177736040518060400160405280600981526020017f466f7266656974657200000000000000000000000000000000000000000000008152506040518263ffffffff1660e01b81526004018080602001828103825283818151815260200191508051906020019080838360005b83811015612faa578082015181840152602081019050612f8f565b50505050905090810190601f168015612fd75780820380516001836020036101000a031916815260200191505b509250505060206040518083038186803b158015612ff457600080fd5b505afa158015613008573d6000803e3d6000fd5b505050506040513d602081101561301e57600080fd5b810190808051906020019092919050505073ffffffffffffffffffffffffffffffffffffffff1663304b950384836040518363ffffffff1660e01b81526004018083815260200182815260200192505050600060405180830381600087803b15801561308957600080fd5b505af115801561309d573d6000803e3d6000fd5b50505050600360009054906101000a900473ffffffffffffffffffffffffffffffffffffffff1673ffffffffffffffffffffffffffffffffffffffff1663ffde0c74846040518263ffffffff1660e01b81526004018082815260200191505060206040518083038186803b15801561311457600080fd5b505afa158015613128573d6000803e3d6000fd5b505050506040513d602081101561313e57600080fd5b8101908080519060200190929190505050905060008114156131e857600260009054906101000a900473ffffffffffffffffffffffffffffffffffffffff1673ffffffffffffffffffffffffffffffffffffffff1663f4dc834a846040518263ffffffff1660e01b815260040180828152602001915050600060405180830381600087803b1580156131cf57600080fd5b505af11580156131e3573d6000803e3d6000fd5b505050505b505050565b6131f561444a565b600073ffffffffffffffffffffffffffffffffffffffff163373ffffffffffffffffffffffffffffffffffffffff16141561322c57fe5b61326a6040518060400160405280600681526020017f706c6179657200000000000000000000000000000000000000000000000000008152506145d4565b6132dc576040517f08c379a000000000000000000000000000000000000000000000000000000000815260040180806020018281038252600b8152602001807f4f6e6c7920706c6179657200000000000000000000000000000000000000000081525060200191505060405180910390fd5b6132e4614850565b818173ffffffffffffffffffffffffffffffffffffffff16600760009054906101000a900473ffffffffffffffffffffffffffffffffffffffff1673ffffffffffffffffffffffffffffffffffffffff16636352211e836040518263ffffffff1660e01b81526004018082815260200191505060206040518083038186803b15801561336f57600080fd5b505afa158015613383573d6000803e3d6000fd5b505050506040513d602081101561339957600080fd5b810190808051906020019092919050505073ffffffffffffffffffffffffffffffffffffffff1614613416576040517f08c379a00000000000000000000000000000000000000000000000000000000081526004018080602001828103825260248152602001806149066024913960400191505060405180910390fd5b6000613420614850565b9050600560009054906101000a900473ffffffffffffffffffffffffffffffffffffffff1673ffffffffffffffffffffffffffffffffffffffff166342db158982600460009054906101000a900473ffffffffffffffffffffffffffffffffffffffff1673ffffffffffffffffffffffffffffffffffffffff1663b8fe6abe6040518163ffffffff1660e01b815260040160206040518083038186803b1580156134c957600080fd5b505afa1580156134dd573d6000803e3d6000fd5b505050506040513d60208110156134f357600080fd5b81019080805190602001909291905050506040518363ffffffff1660e01b8152600401808373ffffffffffffffffffffffffffffffffffffffff1673ffffffffffffffffffffffffffffffffffffffff16815260200182815260200192505050602060405180830381600087803b15801561356d57600080fd5b505af1158015613581573d6000803e3d6000fd5b505050506040513d602081101561359757600080fd5b8101908080519060200190929190505050506000600360009054906101000a900473ffffffffffffffffffffffffffffffffffffffff1673ffffffffffffffffffffffffffffffffffffffff166337507a0c866040518263ffffffff1660e01b81526004018082815260200191505060206040518083038186803b15801561361e57600080fd5b505afa158015613632573d6000803e3d6000fd5b505050506040513d602081101561364857600080fd5b8101908080519060200190929190505050146136cc576040517f08c379a00000000000000000000000000000000000000000000000000000000081526004018080602001828103825260208152602001807f4b697474696520697320616c726561647920706c6179696e6720612067616d6581525060200191505060405180910390fd5b600660009054906101000a900473ffffffffffffffffffffffffffffffffffffffff1673ffffffffffffffffffffffffffffffffffffffff16636df970c585836040518363ffffffff1660e01b8152600401808381526020018273ffffffffffffffffffffffffffffffffffffffff1673ffffffffffffffffffffffffffffffffffffffff16815260200192505050600060405180830381600087803b15801561377557600080fd5b505af1158015613789573d6000803e3d6000fd5b505050508073ffffffffffffffffffffffffffffffffffffffff16847fda5118e11956b6ccec7a349074d6efada2b70b987d2eabba029de60d8f67b1aa426040518082815260200191505060405180910390a350505050565b6137ea61444a565b600073ffffffffffffffffffffffffffffffffffffffff163373ffffffffffffffffffffffffffffffffffffffff16141561382157fe5b61385f6040518060400160405280600b81526020017f73757065725f61646d696e0000000000000000000000000000000000000000008152506145d4565b6138d1576040517f08c379a00000000000000000000000000000000000000000000000000000000081526004018080602001828103825260108152602001807f4f6e6c792073757065722061646d696e0000000000000000000000000000000081525060200191505060405180910390fd5b84838173ffffffffffffffffffffffffffffffffffffffff16600760009054906101000a900473ffffffffffffffffffffffffffffffffffffffff1673ffffffffffffffffffffffffffffffffffffffff16636352211e836040518263ffffffff1660e01b81526004018082815260200191505060206040518083038186803b15801561395d57600080fd5b505afa158015613971573d6000803e3d6000fd5b505050506040513d602081101561398757600080fd5b810190808051906020019092919050505073ffffffffffffffffffffffffffffffffffffffff1614613a04576040517f08c379a00000000000000000000000000000000000000000000000000000000081526004018080602001828103825260248152602001806149066024913960400191505060405180910390fd5b85848173ffffffffffffffffffffffffffffffffffffffff16600760009054906101000a900473ffffffffffffffffffffffffffffffffffffffff1673ffffffffffffffffffffffffffffffffffffffff16636352211e836040518263ffffffff1660e01b81526004018082815260200191505060206040518083038186803b158015613a9057600080fd5b505afa158015613aa4573d6000803e3d6000fd5b505050506040513d6020811015613aba57600080fd5b810190808051906020019092919050505073ffffffffffffffffffffffffffffffffffffffff1614613b37576040517f08c379a00000000000000000000000000000000000000000000000000000000081526004018080602001828103825260248152602001806149066024913960400191505060405180910390fd5b600660009054906101000a900473ffffffffffffffffffffffffffffffffffffffff1673ffffffffffffffffffffffffffffffffffffffff1663c484819d886040518263ffffffff1660e01b81526004018082815260200191505060206040518083038186803b158015613baa57600080fd5b505afa158015613bbe573d6000803e3d6000fd5b505050506040513d6020811015613bd457600080fd5b810190808051906020019092919050505015613c3b576040517f08c379a000000000000000000000000000000000000000000000000000000000815260040180806020018281038252602681526020018061492a6026913960400191505060405180910390fd5b600660009054906101000a900473ffffffffffffffffffffffffffffffffffffffff1673ffffffffffffffffffffffffffffffffffffffff1663c484819d876040518263ffffffff1660e01b81526004018082815260200191505060206040518083038186803b158015613cae57600080fd5b505afa158015613cc2573d6000803e3d6000fd5b505050506040513d6020811015613cd857600080fd5b810190808051906020019092919050505015613d3f576040517f08c379a000000000000000000000000000000000000000000000000000000000815260040180806020018281038252602681526020018061492a6026913960400191505060405180910390fd5b613d4c8989898989613ff2565b505050505050505050565b600073ffffffffffffffffffffffffffffffffffffffff16600160009054906101000a900473ffffffffffffffffffffffffffffffffffffffff1673ffffffffffffffffffffffffffffffffffffffff161415613e1c576040517f08c379a00000000000000000000000000000000000000000000000000000000081526004018080602001828103825260088152602001807f4e6f2050726f787900000000000000000000000000000000000000000000000081525060200191505060405180910390fd5b6000600160009054906101000a900473ffffffffffffffffffffffffffffffffffffffff1673ffffffffffffffffffffffffffffffffffffffff166335817773836040518263ffffffff1660e01b81526004018080602001828103825283818151815260200191508051906020019080838360005b83811015613eac578082015181840152602081019050613e91565b50505050905090810190601f168015613ed95780820380516001836020036101000a031916815260200191505b509250505060206040518083038186803b158015613ef657600080fd5b505afa158015613f0a573d6000803e3d6000fd5b505050506040513d6020811015613f2057600080fd5b81019080805190602001909291905050509050600073ffffffffffffffffffffffffffffffffffffffff168173ffffffffffffffffffffffffffffffffffffffff161415613f6a57fe5b8073ffffffffffffffffffffffffffffffffffffffff163373ffffffffffffffffffffffffffffffffffffffff1614613fee576040517f08c379a000000000000000000000000000000000000000000000000000000000815260040180806020018281038252602d815260200180614950602d913960400191505060405180910390fd5b5050565b6000600260009054906101000a900473ffffffffffffffffffffffffffffffffffffffff1673ffffffffffffffffffffffffffffffffffffffff1663a4a0aa5587878787876040518663ffffffff1660e01b8152600401808673ffffffffffffffffffffffffffffffffffffffff1673ffffffffffffffffffffffffffffffffffffffff1681526020018573ffffffffffffffffffffffffffffffffffffffff1673ffffffffffffffffffffffffffffffffffffffff16815260200184815260200183815260200182815260200195505050505050602060405180830381600087803b1580156140e157600080fd5b505af11580156140f5573d6000803e3d6000fd5b505050506040513d602081101561410b57600080fd5b81019080805190602001909291905050509050600860009054906101000a900473ffffffffffffffffffffffffffffffffffffffff1673ffffffffffffffffffffffffffffffffffffffff16633422476d826040518263ffffffff1660e01b815260040180828152602001915050600060405180830381600087803b15801561419357600080fd5b505af11580156141a7573d6000803e3d6000fd5b505050506000600560009054906101000a900473ffffffffffffffffffffffffffffffffffffffff1673ffffffffffffffffffffffffffffffffffffffff1663f1d4be10836040518263ffffffff1660e01b815260040180828152602001915050602060405180830381600087803b15801561422257600080fd5b505af1158015614236573d6000803e3d6000fd5b505050506040513d602081101561424c57600080fd5b81019080805190602001909291905050509050600260009054906101000a900473ffffffffffffffffffffffffffffffffffffffff1673ffffffffffffffffffffffffffffffffffffffff1663ddf8ae1983836040518363ffffffff1660e01b81526004018083815260200182815260200192505050600060405180830381600087803b1580156142dc57600080fd5b505af11580156142f0573d6000803e3d6000fd5b50505050600260009054906101000a900473ffffffffffffffffffffffffffffffffffffffff1673ffffffffffffffffffffffffffffffffffffffff1663fd3d1c248587856040518463ffffffff1660e01b8152600401808481526020018381526020018281526020019350505050600060405180830381600087803b15801561437957600080fd5b505af115801561438d573d6000803e3d6000fd5b50505050817fc15da047551ef562c7c09ead43c6e8ffd313e0337fa024eba1d156410212a43987868a8988604051808673ffffffffffffffffffffffffffffffffffffffff1673ffffffffffffffffffffffffffffffffffffffff1681526020018581526020018473ffffffffffffffffffffffffffffffffffffffff1673ffffffffffffffffffffffffffffffffffffffff1681526020018381526020018281526020019550505050505060405180910390a250505050505050565b600073ffffffffffffffffffffffffffffffffffffffff16600160009054906101000a900473ffffffffffffffffffffffffffffffffffffffff1673ffffffffffffffffffffffffffffffffffffffff16141561450f576040517f08c379a00000000000000000000000000000000000000000000000000000000081526004018080602001828103825260088152602001807f4e6f2050726f787900000000000000000000000000000000000000000000000081525060200191505060405180910390fd5b600160009054906101000a900473ffffffffffffffffffffffffffffffffffffffff1673ffffffffffffffffffffffffffffffffffffffff163373ffffffffffffffffffffffffffffffffffffffff16146145d2576040517f08c379a00000000000000000000000000000000000000000000000000000000081526004018080602001828103825260128152602001807f4f6e6c79207468726f7567682050726f7879000000000000000000000000000081525060200191505060405180910390fd5b565b6000600160009054906101000a900473ffffffffffffffffffffffffffffffffffffffff1673ffffffffffffffffffffffffffffffffffffffff1663358177736040518060400160405280600681526020017f526f6c65444200000000000000000000000000000000000000000000000000008152506040518263ffffffff1660e01b81526004018080602001828103825283818151815260200191508051906020019080838360005b8381101561469957808201518184015260208101905061467e565b50505050905090810190601f1680156146c65780820380516001836020036101000a031916815260200191505b509250505060206040518083038186803b1580156146e357600080fd5b505afa1580156146f7573d6000803e3d6000fd5b505050506040513d602081101561470d57600080fd5b810190808051906020019092919050505073ffffffffffffffffffffffffffffffffffffffff16636c9cd09783614742614850565b6040518363ffffffff1660e01b815260040180806020018373ffffffffffffffffffffffffffffffffffffffff1673ffffffffffffffffffffffffffffffffffffffff168152602001828103825284818151815260200191508051906020019080838360005b838110156147c35780820151818401526020810190506147a8565b50505050905090810190601f1680156147f05780820380516001836020036101000a031916815260200191505b50935050505060206040518083038186803b15801561480e57600080fd5b505afa158015614822573d6000803e3d6000fd5b505050506040513d602081101561483857600080fd5b81019080805190602001909291905050509050919050565b6000600160009054906101000a900473ffffffffffffffffffffffffffffffffffffffff1673ffffffffffffffffffffffffffffffffffffffff163373ffffffffffffffffffffffffffffffffffffffff16146148af57339050614902565b6000601436036000602052601481602c37602051915050600073ffffffffffffffffffffffffffffffffffffffff168173ffffffffffffffffffffffffffffffffffffffff1614156148fd57fe5b809150505b9056fe596f7520617265206e6f7420746865206f776e6572206f662074686973206b69747469656669676874657220697320616c7265616479206c697374656420666f72206d61746368696e67416363657373206973206f6e6c7920616c6c6f7765642066726f6d20737065636966696320636f6e7472616374a265627a7a723158205ba5ad795e769b7d8d4f9c28de1fcb5819193c10ab041f81194ad5ef056685ad64736f6c634300050b0032",
  "source": "/**\n * @title GamesManager\n *\n * @author @wafflemakr @karl @vikrammandal\n\n *\n */\n//modifier class (DSAuth )\n//Event class ( DSNote )\n//\n// This program is free software: you can redistribute it and/or modify\n// it under the terms of the GNU General Public License as published by\n// the Free Software Foundation, either version 3 of the License, or\n// (at your option) any later version.\n\n// This program is distributed in the hope that it will be useful,\n// but WITHOUT ANY WARRANTY; without even the implied warranty of\n// MERCHANTABILITY or FITNESS FOR A PARTICULAR PURPOSE.  See the\n// GNU General Public License for more details.\n\n// You should have received a copy of the GNU General Public License\n// along with this program.  If not, see <http://www.gnu.org/licenses/>.\n\npragma solidity ^0.5.5;\n\nimport '../proxy/Proxied.sol';\nimport \"../databases/GMSetterDB.sol\";\nimport \"../databases/GMGetterDB.sol\";\nimport \"../../GameVarAndFee.sol\";\nimport \"../endowment/EndowmentFund.sol\";\nimport \"./Scheduler.sol\";\nimport \"../../libs/SafeMath.sol\";\nimport '../../authority/Guard.sol';\nimport \"../../interfaces/IKittyCore.sol\";\nimport \"./GameStore.sol\";\nimport \"../../CronJob.sol\";\nimport \"./Forfeiter.sol\";\nimport '../kittieHELL/KittieHell.sol';\n\ncontract GameCreation is Proxied, Guard {\n    using SafeMath for uint256;\n\n    //Contract Variables\n    GMSetterDB public gmSetterDB;\n    GMGetterDB public gmGetterDB;\n    GameVarAndFee public gameVarAndFee;\n    EndowmentFund public endowmentFund;\n    Scheduler public scheduler;\n    IKittyCore public cryptoKitties;\n    GameStore public gameStore;\n    CronJob public cronJob;\n\n    //EVENTS\n    event NewGame(uint indexed gameId, address playerBlack, uint kittieBlack, address playerRed, uint kittieRed, uint gameStartTime);\n    event NewListing(uint indexed kittieId, address indexed owner, uint timeListed);\n    event Scheduled(uint indexed jobId, uint jobTime, uint indexed gameId, string job);\n\n    mapping(uint256 => uint256) public cronJobsForGames;\n\n    modifier onlyKittyOwner(address player, uint kittieId) {\n        require(cryptoKitties.ownerOf(kittieId) == player, \"You are not the owner of this kittie\");\n        _;\n    }\n\n    /**\n    * @dev Sets related contracts\n    * @dev Can be called only by the owner of this contract\n    */\n    function initialize() external onlyOwner {\n\n        gmSetterDB = GMSetterDB(proxy.getContract(CONTRACT_NAME_GM_SETTER_DB));\n        gmGetterDB = GMGetterDB(proxy.getContract(CONTRACT_NAME_GM_GETTER_DB));\n        endowmentFund = EndowmentFund(proxy.getContract(CONTRACT_NAME_ENDOWMENT_FUND));\n        gameVarAndFee = GameVarAndFee(proxy.getContract(CONTRACT_NAME_GAMEVARANDFEE));\n        scheduler = Scheduler(proxy.getContract(CONTRACT_NAME_SCHEDULER));\n        cryptoKitties = IKittyCore(proxy.getContract(CONTRACT_NAME_CRYPTOKITTIES));\n        gameStore = GameStore(proxy.getContract(CONTRACT_NAME_GAMESTORE));\n        cronJob = CronJob(proxy.getContract(CONTRACT_NAME_CRONJOB));\n    }\n\n    /**\n     * @dev Checks and prevents unverified accounts, only accounts with available kitties can list\n     */\n    function listKittie\n    (\n        uint kittieId\n    )\n        external\n        onlyProxy onlyPlayer\n        onlyKittyOwner(getOriginalSender(), kittieId) //currently doesKittieBelong is not used, better\n    {\n        address player = getOriginalSender();\n\n        //Pay Listing Fee\n        endowmentFund.contributeKTY(player, gameVarAndFee.getListingFee());\n\n        require((gmGetterDB.getGameOfKittie(kittieId) == 0), \"Kittie is already playing a game\");\n\n        scheduler.addKittyToList(kittieId, player);\n\n        emit NewListing(kittieId, player, now);\n    }\n\n    /**\n     * @dev Check to make sure the only superADmin can list, Takes in two kittieID's and accounts as well as the jackpot ether and token number.\n     */\n    function manualMatchKitties\n    (\n        address playerRed, address playerBlack,\n        uint256 kittyRed, uint256 kittyBlack,\n        uint gameStartTime\n    )\n        external\n        onlyProxy onlySuperAdmin\n        onlyKittyOwner(playerRed, kittyRed)\n        onlyKittyOwner(playerBlack, kittyBlack)\n    {\n        require(!scheduler.isKittyListedForMatching(kittyRed), \"fighter is already listed for matching\");\n        require(!scheduler.isKittyListedForMatching(kittyBlack), \"fighter is already listed for matching\");\n\n        generateFight(playerRed, playerBlack, kittyRed, kittyBlack, gameStartTime);\n    }\n\n    /**\n     * @dev Creates game and generates gameId\n     * @return gameId\n     */\n    function generateFight\n    (\n        address playerRed, address playerBlack,\n        uint256 kittyRed, uint256 kittyBlack,\n        uint gameStartTime\n    )\n        internal\n    {\n        uint256 gameId = gmSetterDB.createGame(\n            playerRed, playerBlack, kittyRed, kittyBlack, gameStartTime);\n        \n        gameStore.lockVars(gameId);\n\n        uint initialEth = endowmentFund.generateHoneyPot(gameId);\n        gmSetterDB.setHoneypotInfo(gameId, initialEth);\n\n        gmSetterDB.updateKittiesGame(kittyBlack, kittyRed, gameId);\n        \n        emit NewGame(gameId, playerBlack, kittyBlack, playerRed, kittyRed, gameStartTime);\n    }\n\n    /**\n     * @dev External function for Scheduler to call\n     * @return gameId\n     */\n    function createFight\n    (\n        address playerRed, address playerBlack,\n        uint256 kittyRed, uint256 kittyBlack,\n        uint gameStartTime\n    )\n        external\n        onlyContract(CONTRACT_NAME_SCHEDULER)\n    {\n        generateFight(playerRed, playerBlack, kittyRed, kittyBlack, gameStartTime);\n    }\n\n    function removeKitties(uint256 gameId)\n        external\n        onlyContract(CONTRACT_NAME_GAMEMANAGER)\n    {\n        ( , ,uint256 kittyBlack, uint256 kittyRed) = gmGetterDB.getGamePlayers(gameId);\n        //Set gameId to 0 to both kitties (not playing any game)\n        gmSetterDB.updateKittiesGame(kittyBlack, kittyRed, 0);   \n    }\n\n\n    // ==== CRONJOBS FUNCTIONS\n\n    function scheduleJobs(uint256 gameId, uint256 state)\n    external\n    onlyContract(CONTRACT_NAME_GM_SETTER_DB)\n    {\n        if(state == 0){\n            (,uint preStartTime,) = gmGetterDB.getGameTimes(gameId);\n            uint scheduledJob = cronJob.addCronJob(CONTRACT_NAME_GAMECREATION, preStartTime, abi.encodeWithSignature(\"updateGameStateCron(uint256)\", gameId));\n            emit Scheduled(scheduledJob, preStartTime, gameId, \"Change state to 1\");\n            cronJobsForGames[gameId] = scheduledJob;\n        }\n\n        if(state == 1){\n            //If it is PRE_GAME STATE, again, when the job is scheduled (startTime), it should start, as both players press start\n            //So if state did not change we must cancelGame\n            //If they both press start this job is cancelled (In start function of GameManager)\n            (uint startTime,,) = gmGetterDB.getGameTimes(gameId);\n            uint scheduledJob = cronJob.addCronJob(CONTRACT_NAME_GAMECREATION, startTime, abi.encodeWithSignature(\"callForfeiterCron(uint256, string memory)\", gameId, \"Did not hit start\"));\n            emit Scheduled(scheduledJob, startTime, gameId, \"Change state to 2\");\n            cronJobsForGames[gameId] = scheduledJob;\n        }\n        if(state == 2){\n            //If it is MAIN_GAME we endgame immediately\n            //We reschedule this Job if game extends (In checkPerformance of GameManager)\n            (,,uint endTime) = gmGetterDB.getGameTimes(gameId);\n            uint scheduledJob = cronJob.addCronJob(CONTRACT_NAME_GAMECREATION, endTime, abi.encodeWithSignature(\"callGameEndCron(uint256)\", gameId));\n            emit Scheduled(scheduledJob, endTime, gameId, \"Change state to 3\");\n            cronJobsForGames[gameId] = scheduledJob;\n        }\n    }\n\n    \n    function updateGameStateCron(uint256 gameId)\n        external\n        onlyContract(CONTRACT_NAME_CRONJOB)\n    {\n        uint state = gmGetterDB.getGameState(gameId);\n        //Check forfeiter before updating game state\n        Forfeiter(proxy.getContract(CONTRACT_NAME_FORFEITER)).checkGameStatusCron(gameId, state);\n        state = gmGetterDB.getGameState(gameId);\n        if (state == 0) gmSetterDB.updateGameStateCron(gameId);\n    }\n\n    function callForfeiterCron(uint gameId, string calldata reason)\n        external\n        onlyContract(CONTRACT_NAME_CRONJOB)\n    {\n        Forfeiter(proxy.getContract(CONTRACT_NAME_FORFEITER)).forfeitCron(gameId, reason);\n    }\n\n    function callGameEndCron(uint gameId)\n        external\n        onlyContract(CONTRACT_NAME_CRONJOB)\n    {\n        uint state = gmGetterDB.getGameState(gameId);\n        if (state == 2) GameManager(proxy.getContract(CONTRACT_NAME_GAMEMANAGER)).gameEndCron(gameId);\n    }\n\n    function rescheduleCronJob(uint gameId)\n        external\n        onlyContract(CONTRACT_NAME_GAMEMANAGER)\n    {\n        //Reschedule CronJob when more time added\n        uint256 jobId = cronJobsForGames[gameId];\n        (,,uint endTime) = gmGetterDB.getGameTimes(gameId);\n        cronJob.rescheduleCronJob(CONTRACT_NAME_GAMECREATION, jobId, endTime);\n    }\n\n    function deleteCronjob(uint gameId)\n        external\n        onlyContract(CONTRACT_NAME_GAMEMANAGER)\n    {\n        uint256 jobId = cronJobsForGames[gameId];\n        cronJob.deleteCronJob(CONTRACT_NAME_GAMECREATION, jobId);\n    }\n\n\n\n}\n",
  "sourcePath": "/home/wafflemakr/Desktop/KittieFight/alpha/contracts/modules/gamemanager/GameCreation.sol",
  "compiler": {
    "name": "solc",
    "version": "0.5.11+commit.c082d0b4.Emscripten.clang"
  },
  "schemaVersion": "3.0.11",
  "updatedAt": "2019-08-15T00:23:51.170Z",
  "devdoc": {
    "methods": {
      "createFight(address,address,uint256,uint256,uint256)": {
        "details": "External function for Scheduler to call",
        "return": "gameId"
      },
      "initialize()": {
        "details": "Sets related contractsCan be called only by the owner of this contract"
      },
      "listKittie(uint256)": {
        "details": "Checks and prevents unverified accounts, only accounts with available kitties can list"
      },
      "manualMatchKitties(address,address,uint256,uint256,uint256)": {
        "details": "Check to make sure the only superADmin can list, Takes in two kittieID's and accounts as well as the jackpot ether and token number."
      }
    }
  },
  "userdoc": {
    "methods": {
      "setProxy(address)": {
        "notice": "Set/update address of Proxy contract"
      }
    }
  }
}