{
  "contractName": "GameStore",
  "abi": [
    {
      "constant": true,
      "inputs": [
        {
          "internalType": "uint256",
          "name": "",
          "type": "uint256"
        },
        {
          "internalType": "address",
          "name": "",
          "type": "address"
        }
      ],
      "name": "gameByPlayer",
      "outputs": [
        {
          "internalType": "uint256",
          "name": "randomNum",
          "type": "uint256"
        },
        {
          "internalType": "bool",
          "name": "pressedStart",
          "type": "bool"
        },
        {
          "internalType": "address",
          "name": "topBettor",
          "type": "address"
        },
        {
          "internalType": "address",
          "name": "secondTopBettor",
          "type": "address"
        }
      ],
      "payable": false,
      "stateMutability": "view",
      "type": "function"
    },
    {
      "constant": true,
      "inputs": [
        {
          "internalType": "uint256",
          "name": "",
          "type": "uint256"
        }
      ],
      "name": "gameSettings",
      "outputs": [
        {
          "internalType": "uint256",
          "name": "bettingFee",
          "type": "uint256"
        },
        {
          "internalType": "uint256",
          "name": "ticketFee",
          "type": "uint256"
        },
        {
          "internalType": "uint256",
          "name": "redemptionFee",
          "type": "uint256"
        },
        {
          "internalType": "uint256",
          "name": "kittieHellExpirationTime",
          "type": "uint256"
        },
        {
          "internalType": "uint256",
          "name": "honeypotExpirationTime",
          "type": "uint256"
        },
        {
          "internalType": "uint256",
          "name": "minimumContributors",
          "type": "uint256"
        },
        {
          "internalType": "uint256",
          "name": "finalizeRewards",
          "type": "uint256"
        },
        {
          "internalType": "uint256",
          "name": "timeExtension",
          "type": "uint256"
        },
        {
          "internalType": "uint256",
          "name": "performanceTime",
          "type": "uint256"
        }
      ],
      "payable": false,
      "stateMutability": "view",
      "type": "function"
    },
    {
      "constant": true,
      "inputs": [],
      "name": "gameVarAndFee",
      "outputs": [
        {
          "internalType": "contract GameVarAndFee",
          "name": "",
          "type": "address"
        }
      ],
      "payable": false,
      "stateMutability": "view",
      "type": "function"
    },
    {
      "constant": true,
      "inputs": [],
      "name": "gmGetterDB",
      "outputs": [
        {
          "internalType": "contract GMGetterDB",
          "name": "",
          "type": "address"
        }
      ],
      "payable": false,
      "stateMutability": "view",
      "type": "function"
    },
    {
      "constant": true,
      "inputs": [],
      "name": "hitsResolve",
      "outputs": [
        {
          "internalType": "contract HitsResolve",
          "name": "",
          "type": "address"
        }
      ],
      "payable": false,
      "stateMutability": "view",
      "type": "function"
    },
    {
      "constant": true,
      "inputs": [],
      "name": "owner",
      "outputs": [
        {
          "internalType": "address payable",
          "name": "",
          "type": "address"
        }
      ],
      "payable": false,
      "stateMutability": "view",
      "type": "function"
    },
    {
      "constant": true,
      "inputs": [],
      "name": "proxy",
      "outputs": [
        {
          "internalType": "contract ProxyBase",
          "name": "",
          "type": "address"
        }
      ],
      "payable": false,
      "stateMutability": "view",
      "type": "function"
    },
    {
      "constant": true,
      "inputs": [],
      "name": "scheduler",
      "outputs": [
        {
          "internalType": "contract Scheduler",
          "name": "",
          "type": "address"
        }
      ],
      "payable": false,
      "stateMutability": "view",
      "type": "function"
    },
    {
      "constant": false,
      "inputs": [
        {
          "internalType": "contract ProxyBase",
          "name": "_proxy",
          "type": "address"
        }
      ],
      "name": "setProxy",
      "outputs": [],
      "payable": false,
      "stateMutability": "nonpayable",
      "type": "function"
    },
    {
      "constant": true,
      "inputs": [],
      "name": "timeFrame",
      "outputs": [
        {
          "internalType": "contract TimeFrame",
          "name": "",
          "type": "address"
        }
      ],
      "payable": false,
      "stateMutability": "view",
      "type": "function"
    },
    {
      "constant": false,
      "inputs": [
        {
          "internalType": "address payable",
          "name": "newOwner",
          "type": "address"
        }
      ],
      "name": "transferOwnership",
      "outputs": [],
      "payable": false,
      "stateMutability": "nonpayable",
      "type": "function"
    },
    {
      "constant": false,
      "inputs": [],
      "name": "initialize",
      "outputs": [],
      "payable": false,
      "stateMutability": "nonpayable",
      "type": "function"
    },
    {
      "constant": false,
      "inputs": [
        {
          "internalType": "uint256",
          "name": "gameId",
          "type": "uint256"
        }
      ],
      "name": "lockVars",
      "outputs": [],
      "payable": false,
      "stateMutability": "nonpayable",
      "type": "function"
    },
    {
      "constant": false,
      "inputs": [
        {
          "internalType": "uint256",
          "name": "gameId",
          "type": "uint256"
        }
      ],
      "name": "lockVarsAdmin",
      "outputs": [],
      "payable": false,
      "stateMutability": "nonpayable",
      "type": "function"
    },
    {
      "constant": true,
      "inputs": [
        {
          "internalType": "uint256",
          "name": "gameId",
          "type": "uint256"
        }
      ],
      "name": "getDistributionRates",
      "outputs": [
        {
          "internalType": "uint256[5]",
          "name": "",
          "type": "uint256[5]"
        }
      ],
      "payable": false,
      "stateMutability": "view",
      "type": "function"
    },
    {
      "constant": true,
      "inputs": [
        {
          "internalType": "uint256",
          "name": "percentageHoneyPot",
          "type": "uint256"
        },
        {
          "internalType": "uint256",
          "name": "_eth_amount",
          "type": "uint256"
        },
        {
          "internalType": "uint256",
          "name": "_kty_amount",
          "type": "uint256"
        }
      ],
      "name": "calculateDynamicFee",
      "outputs": [
        {
          "internalType": "uint256",
          "name": "",
          "type": "uint256"
        }
      ],
      "payable": false,
      "stateMutability": "view",
      "type": "function"
    },
    {
      "constant": false,
      "inputs": [
        {
          "internalType": "uint256",
          "name": "gameId",
          "type": "uint256"
        }
      ],
      "name": "updateKittieRedemptionFee",
      "outputs": [],
      "payable": false,
      "stateMutability": "nonpayable",
      "type": "function"
    },
    {
      "constant": false,
      "inputs": [
        {
          "internalType": "uint256",
          "name": "gameId",
          "type": "uint256"
        }
      ],
      "name": "updateTicketFee",
      "outputs": [],
      "payable": false,
      "stateMutability": "nonpayable",
      "type": "function"
    },
    {
      "constant": false,
      "inputs": [
        {
          "internalType": "uint256",
          "name": "gameId",
          "type": "uint256"
        }
      ],
      "name": "updateBettingFee",
      "outputs": [],
      "payable": false,
      "stateMutability": "nonpayable",
      "type": "function"
    },
    {
      "constant": true,
      "inputs": [
        {
          "internalType": "uint256",
          "name": "gameId",
          "type": "uint256"
        }
      ],
      "name": "getKittieExpirationTime",
      "outputs": [
        {
          "internalType": "uint256",
          "name": "",
          "type": "uint256"
        }
      ],
      "payable": false,
      "stateMutability": "view",
      "type": "function"
    },
    {
      "constant": true,
      "inputs": [
        {
          "internalType": "uint256",
          "name": "gameId",
          "type": "uint256"
        }
      ],
      "name": "getKittieRedemptionFee",
      "outputs": [
        {
          "internalType": "uint256",
          "name": "",
          "type": "uint256"
        }
      ],
      "payable": false,
      "stateMutability": "view",
      "type": "function"
    },
    {
      "constant": true,
      "inputs": [
        {
          "internalType": "uint256",
          "name": "gameId",
          "type": "uint256"
        }
      ],
      "name": "getHoneypotExpiration",
      "outputs": [
        {
          "internalType": "uint256",
          "name": "",
          "type": "uint256"
        }
      ],
      "payable": false,
      "stateMutability": "view",
      "type": "function"
    },
    {
      "constant": false,
      "inputs": [
        {
          "internalType": "uint256",
          "name": "gameId",
          "type": "uint256"
        },
        {
          "internalType": "address",
          "name": "player",
          "type": "address"
        },
        {
          "internalType": "uint256",
          "name": "randomNum",
          "type": "uint256"
        }
      ],
      "name": "start",
      "outputs": [],
      "payable": false,
      "stateMutability": "nonpayable",
      "type": "function"
    },
    {
      "constant": true,
      "inputs": [
        {
          "internalType": "uint256",
          "name": "gameId",
          "type": "uint256"
        },
        {
          "internalType": "address",
          "name": "player",
          "type": "address"
        }
      ],
      "name": "didHitStart",
      "outputs": [
        {
          "internalType": "bool",
          "name": "",
          "type": "bool"
        }
      ],
      "payable": false,
      "stateMutability": "view",
      "type": "function"
    },
    {
      "constant": true,
      "inputs": [
        {
          "internalType": "uint256",
          "name": "gameId",
          "type": "uint256"
        },
        {
          "internalType": "address",
          "name": "player",
          "type": "address"
        }
      ],
      "name": "getRandom",
      "outputs": [
        {
          "internalType": "uint256",
          "name": "",
          "type": "uint256"
        }
      ],
      "payable": false,
      "stateMutability": "view",
      "type": "function"
    },
    {
      "constant": false,
      "inputs": [
        {
          "internalType": "uint256",
          "name": "gameId",
          "type": "uint256"
        },
        {
          "internalType": "address",
          "name": "player",
          "type": "address"
        },
        {
          "internalType": "address",
          "name": "newTopBettor",
          "type": "address"
        }
      ],
      "name": "updateTopBettor",
      "outputs": [],
      "payable": false,
      "stateMutability": "nonpayable",
      "type": "function"
    },
    {
      "constant": true,
      "inputs": [
        {
          "internalType": "uint256",
          "name": "gameId",
          "type": "uint256"
        },
        {
          "internalType": "address",
          "name": "player",
          "type": "address"
        }
      ],
      "name": "getTopBettor",
      "outputs": [
        {
          "internalType": "address",
          "name": "",
          "type": "address"
        }
      ],
      "payable": false,
      "stateMutability": "view",
      "type": "function"
    },
    {
      "constant": false,
      "inputs": [
        {
          "internalType": "uint256",
          "name": "gameId",
          "type": "uint256"
        },
        {
          "internalType": "address",
          "name": "player",
          "type": "address"
        },
        {
          "internalType": "address",
          "name": "newSecondTopBettor",
          "type": "address"
        }
      ],
      "name": "updateSecondTopBettor",
      "outputs": [],
      "payable": false,
      "stateMutability": "nonpayable",
      "type": "function"
    },
    {
      "constant": true,
      "inputs": [
        {
          "internalType": "uint256",
          "name": "gameId",
          "type": "uint256"
        },
        {
          "internalType": "address",
          "name": "player",
          "type": "address"
        }
      ],
      "name": "getSecondTopBettor",
      "outputs": [
        {
          "internalType": "address",
          "name": "",
          "type": "address"
        }
      ],
      "payable": false,
      "stateMutability": "view",
      "type": "function"
    },
    {
      "constant": true,
      "inputs": [
        {
          "internalType": "uint256",
          "name": "gameId",
          "type": "uint256"
        }
      ],
      "name": "getTicketFee",
      "outputs": [
        {
          "internalType": "uint256",
          "name": "",
          "type": "uint256"
        }
      ],
      "payable": false,
      "stateMutability": "view",
      "type": "function"
    },
    {
      "constant": true,
      "inputs": [
        {
          "internalType": "uint256",
          "name": "gameId",
          "type": "uint256"
        }
      ],
      "name": "getBettingFee",
      "outputs": [
        {
          "internalType": "uint256",
          "name": "",
          "type": "uint256"
        }
      ],
      "payable": false,
      "stateMutability": "view",
      "type": "function"
    },
    {
      "constant": true,
      "inputs": [
        {
          "internalType": "uint256",
          "name": "gameId",
          "type": "uint256"
        }
      ],
      "name": "getMinimumContributors",
      "outputs": [
        {
          "internalType": "uint256",
          "name": "",
          "type": "uint256"
        }
      ],
      "payable": false,
      "stateMutability": "view",
      "type": "function"
    },
    {
      "constant": true,
      "inputs": [
        {
          "internalType": "uint256",
          "name": "gameId",
          "type": "uint256"
        }
      ],
      "name": "getFinalizeRewards",
      "outputs": [
        {
          "internalType": "uint256",
          "name": "",
          "type": "uint256"
        }
      ],
      "payable": false,
      "stateMutability": "view",
      "type": "function"
    },
    {
      "constant": true,
      "inputs": [
        {
          "internalType": "uint256",
          "name": "gameId",
          "type": "uint256"
        }
      ],
      "name": "getPerformanceTimeCheck",
      "outputs": [
        {
          "internalType": "uint256",
          "name": "",
          "type": "uint256"
        }
      ],
      "payable": false,
      "stateMutability": "view",
      "type": "function"
    },
    {
      "constant": true,
      "inputs": [
        {
          "internalType": "uint256",
          "name": "gameId",
          "type": "uint256"
        }
      ],
      "name": "getTimeExtension",
      "outputs": [
        {
          "internalType": "uint256",
          "name": "",
          "type": "uint256"
        }
      ],
      "payable": false,
      "stateMutability": "view",
      "type": "function"
    },
    {
      "constant": false,
      "inputs": [
        {
          "internalType": "uint256",
          "name": "_gameId",
          "type": "uint256"
        },
        {
          "internalType": "address",
          "name": "_account",
          "type": "address"
        },
        {
          "internalType": "address",
          "name": "_supportedPlayer",
          "type": "address"
        }
      ],
      "name": "updateTopbettors",
      "outputs": [],
      "payable": false,
      "stateMutability": "nonpayable",
      "type": "function"
    },
    {
      "constant": true,
      "inputs": [
        {
          "internalType": "uint256",
          "name": "gameId",
          "type": "uint256"
        },
        {
          "internalType": "address",
          "name": "player",
          "type": "address"
        }
      ],
      "name": "getOpponent",
      "outputs": [
        {
          "internalType": "address",
          "name": "",
          "type": "address"
        }
      ],
      "payable": false,
      "stateMutability": "view",
      "type": "function"
    },
    {
      "constant": true,
      "inputs": [
        {
          "internalType": "uint256",
          "name": "gameId",
          "type": "uint256"
        },
        {
          "internalType": "address",
          "name": "player",
          "type": "address"
        }
      ],
      "name": "getCorner",
      "outputs": [
        {
          "internalType": "uint256",
          "name": "",
          "type": "uint256"
        }
      ],
      "payable": false,
      "stateMutability": "view",
      "type": "function"
    },
    {
      "constant": true,
      "inputs": [
        {
          "internalType": "uint256",
          "name": "gameId",
          "type": "uint256"
        },
        {
          "internalType": "address",
          "name": "playerBlack",
          "type": "address"
        },
        {
          "internalType": "address",
          "name": "playerRed",
          "type": "address"
        },
        {
          "internalType": "uint256",
          "name": "random",
          "type": "uint256"
        }
      ],
      "name": "calculateWinner",
      "outputs": [
        {
          "internalType": "address",
          "name": "winner",
          "type": "address"
        },
        {
          "internalType": "address",
          "name": "loser",
          "type": "address"
        },
        {
          "internalType": "uint256",
          "name": "pointsBlack",
          "type": "uint256"
        },
        {
          "internalType": "uint256",
          "name": "pointsRed",
          "type": "uint256"
        }
      ],
      "payable": false,
      "stateMutability": "view",
      "type": "function"
    },
    {
      "constant": false,
      "inputs": [],
      "name": "startAfterCancel",
      "outputs": [],
      "payable": false,
      "stateMutability": "nonpayable",
      "type": "function"
    },
    {
      "constant": false,
      "inputs": [
        {
          "internalType": "uint256",
          "name": "gameStartTime",
          "type": "uint256"
        }
      ],
      "name": "startManually",
      "outputs": [
        {
          "internalType": "bool",
          "name": "",
          "type": "bool"
        }
      ],
      "payable": false,
      "stateMutability": "nonpayable",
      "type": "function"
    },
    {
      "constant": false,
      "inputs": [],
      "name": "checkGame",
      "outputs": [
        {
          "internalType": "bool",
          "name": "",
          "type": "bool"
        }
      ],
      "payable": false,
      "stateMutability": "nonpayable",
      "type": "function"
    },
    {
      "constant": false,
      "inputs": [],
      "name": "createGameAndEpoch",
      "outputs": [],
      "payable": false,
      "stateMutability": "nonpayable",
      "type": "function"
    },
    {
      "constant": true,
      "inputs": [
        {
          "internalType": "uint256",
          "name": "gameId",
          "type": "uint256"
        },
        {
          "internalType": "uint256",
          "name": "gameEndTime",
          "type": "uint256"
        }
      ],
      "name": "checkPerformanceHelper",
      "outputs": [
        {
          "internalType": "bool",
          "name": "",
          "type": "bool"
        }
      ],
      "payable": false,
      "stateMutability": "view",
      "type": "function"
    }
  ],
  "bytecode": "0x6080604052336000806101000a81548173ffffffffffffffffffffffffffffffffffffffff021916908373ffffffffffffffffffffffffffffffffffffffff160217905550615e1d806100536000396000f3fe608060405234801561001057600080fd5b50600436106102745760003560e01c80638129fc1c11610151578063c1dc2ddc116100c3578063ebff754a11610087578063ebff754a14610eb7578063ec55688914610f1d578063f2fde38b14610f67578063f3ef7d2c14610fab578063f58f32cf14610fed578063f9ccbdf21461102f57610274565b8063c1dc2ddc14610ca6578063c97d996914610cb0578063c9fe0cef14610d1e578063cefc482614610d74578063d1ad17bf14610e6d57610274565b80639dac052e116101155780639dac052e14610ab5578063a3b3bd7b14610ae3578063aa84869f14610b2d578063b35a194e14610b6f578063b83d8c5214610b91578063c02c8ed714610c6457610274565b80638129fc1c146109895780638ad7877a146109935780638b13b64b146109dd5780638da5cb5b14610a2757806397107d6d14610a7157610274565b806331856c71116101ea57806353d820f9116101ae57806353d820f9146107655780635daaf798146107d35780635f87206d146108015780636991b5bf1461088f5780636e47c635146108f95780637b1799881461095b57610274565b806331856c71146105df57806331fa7067146106215780633422476d146106af5780633c38d0a9146106dd578063477d2e031461071f57610274565b8063158d39cb1161023c578063158d39cb1461041357806316805a291461046b5780631fc75180146104f9578063228d8dcb14610543578063299202991461054d5780632fab9fd31461058f57610274565b806305931a3c146102795780630bc644f5146102f35780630c03955f146103615780630d1fd67a1461038f5780630d8d7aba146103d1575b600080fd5b6102a56004803603602081101561028f57600080fd5b8101908080359060200190929190505050611091565b604051808a8152602001898152602001888152602001878152602001868152602001858152602001848152602001838152602001828152602001995050505050505050505060405180910390f35b61035f6004803603606081101561030957600080fd5b8101908080359060200190929190803573ffffffffffffffffffffffffffffffffffffffff169060200190929190803573ffffffffffffffffffffffffffffffffffffffff1690602001909291905050506110df565b005b61038d6004803603602081101561037757600080fd5b8101908080359060200190929190505050611693565b005b6103bb600480360360208110156103a557600080fd5b8101908080359060200190929190505050611863565b6040518082815260200191505060405180910390f35b6103fd600480360360208110156103e757600080fd5b8101908080359060200190929190505050611883565b6040518082815260200191505060405180910390f35b6104696004803603606081101561042957600080fd5b8101908080359060200190929190803573ffffffffffffffffffffffffffffffffffffffff169060200190929190803590602001909291905050506118a3565b005b6104b76004803603604081101561048157600080fd5b8101908080359060200190929190803573ffffffffffffffffffffffffffffffffffffffff1690602001909291905050506119ac565b604051808273ffffffffffffffffffffffffffffffffffffffff1673ffffffffffffffffffffffffffffffffffffffff16815260200191505060405180910390f35b610501611a2a565b604051808273ffffffffffffffffffffffffffffffffffffffff1673ffffffffffffffffffffffffffffffffffffffff16815260200191505060405180910390f35b61054b611a50565b005b6105796004803603602081101561056357600080fd5b8101908080359060200190929190505050611d79565b6040518082815260200191505060405180910390f35b6105c5600480360360408110156105a557600080fd5b810190808035906020019092919080359060200190929190505050611d99565b604051808215151515815260200191505060405180910390f35b61060b600480360360208110156105f557600080fd5b8101908080359060200190929190505050611f98565b6040518082815260200191505060405180910390f35b61066d6004803603604081101561063757600080fd5b8101908080359060200190929190803573ffffffffffffffffffffffffffffffffffffffff169060200190929190505050611fb8565b604051808273ffffffffffffffffffffffffffffffffffffffff1673ffffffffffffffffffffffffffffffffffffffff16815260200191505060405180910390f35b6106db600480360360208110156106c557600080fd5b81019080803590602001909291905050506120d9565b005b610709600480360360208110156106f357600080fd5b8101908080359060200190929190505050612125565b6040518082815260200191505060405180910390f35b61074b6004803603602081101561073557600080fd5b8101908080359060200190929190505050612145565b604051808215151515815260200191505060405180910390f35b6107d16004803603606081101561077b57600080fd5b8101908080359060200190929190803573ffffffffffffffffffffffffffffffffffffffff169060200190929190803573ffffffffffffffffffffffffffffffffffffffff1690602001909291905050506122f3565b005b6107ff600480360360208110156107e957600080fd5b81019080803590602001909291905050506123ca565b005b61084d6004803603604081101561081757600080fd5b8101908080359060200190929190803573ffffffffffffffffffffffffffffffffffffffff169060200190929190505050612657565b604051808273ffffffffffffffffffffffffffffffffffffffff1673ffffffffffffffffffffffffffffffffffffffff16815260200191505060405180910390f35b6108bb600480360360208110156108a557600080fd5b81019080803590602001909291905050506126d5565b6040518082600560200280838360005b838110156108e65780820151818401526020810190506108cb565b5050505090500191505060405180910390f35b6109456004803603604081101561090f57600080fd5b8101908080359060200190929190803573ffffffffffffffffffffffffffffffffffffffff169060200190929190505050612736565b6040518082815260200191505060405180910390f35b6109876004803603602081101561097157600080fd5b8101908080359060200190929190505050612794565b005b610991612964565b005b61099b613164565b604051808273ffffffffffffffffffffffffffffffffffffffff1673ffffffffffffffffffffffffffffffffffffffff16815260200191505060405180910390f35b6109e561318a565b604051808273ffffffffffffffffffffffffffffffffffffffff1673ffffffffffffffffffffffffffffffffffffffff16815260200191505060405180910390f35b610a2f6131b0565b604051808273ffffffffffffffffffffffffffffffffffffffff1673ffffffffffffffffffffffffffffffffffffffff16815260200191505060405180910390f35b610ab360048036036020811015610a8757600080fd5b81019080803573ffffffffffffffffffffffffffffffffffffffff1690602001909291905050506131d5565b005b610ae160048036036020811015610acb57600080fd5b810190808035906020019092919050505061326f565b005b610aeb613362565b604051808273ffffffffffffffffffffffffffffffffffffffff1673ffffffffffffffffffffffffffffffffffffffff16815260200191505060405180910390f35b610b5960048036036020811015610b4357600080fd5b8101908080359060200190929190505050613388565b6040518082815260200191505060405180910390f35b610b776133a8565b604051808215151515815260200191505060405180910390f35b610bdd60048036036040811015610ba757600080fd5b8101908080359060200190929190803573ffffffffffffffffffffffffffffffffffffffff169060200190929190505050613608565b60405180858152602001841515151581526020018373ffffffffffffffffffffffffffffffffffffffff1673ffffffffffffffffffffffffffffffffffffffff1681526020018273ffffffffffffffffffffffffffffffffffffffff1673ffffffffffffffffffffffffffffffffffffffff16815260200194505050505060405180910390f35b610c9060048036036020811015610c7a57600080fd5b8101908080359060200190929190505050613692565b6040518082815260200191505060405180910390f35b610cae6136b2565b005b610d1c60048036036060811015610cc657600080fd5b8101908080359060200190929190803573ffffffffffffffffffffffffffffffffffffffff169060200190929190803573ffffffffffffffffffffffffffffffffffffffff1690602001909291905050506137b1565b005b610d5e60048036036060811015610d3457600080fd5b81019080803590602001909291908035906020019092919080359060200190929190505050613888565b6040518082815260200191505060405180910390f35b610dea60048036036080811015610d8a57600080fd5b8101908080359060200190929190803573ffffffffffffffffffffffffffffffffffffffff169060200190929190803573ffffffffffffffffffffffffffffffffffffffff16906020019092919080359060200190929190505050613ae0565b604051808573ffffffffffffffffffffffffffffffffffffffff1673ffffffffffffffffffffffffffffffffffffffff1681526020018473ffffffffffffffffffffffffffffffffffffffff1673ffffffffffffffffffffffffffffffffffffffff16815260200183815260200182815260200194505050505060405180910390f35b610e75614061565b604051808273ffffffffffffffffffffffffffffffffffffffff1673ffffffffffffffffffffffffffffffffffffffff16815260200191505060405180910390f35b610f0360048036036040811015610ecd57600080fd5b8101908080359060200190929190803573ffffffffffffffffffffffffffffffffffffffff169060200190929190505050614087565b604051808215151515815260200191505060405180910390f35b610f256140f2565b604051808273ffffffffffffffffffffffffffffffffffffffff1673ffffffffffffffffffffffffffffffffffffffff16815260200191505060405180910390f35b610fa960048036036020811015610f7d57600080fd5b81019080803573ffffffffffffffffffffffffffffffffffffffff169060200190929190505050614118565b005b610fd760048036036020811015610fc157600080fd5b81019080803590602001909291905050506141e6565b6040518082815260200191505060405180910390f35b6110196004803603602081101561100357600080fd5b8101908080359060200190929190505050614206565b6040518082815260200191505060405180910390f35b61107b6004803603604081101561104557600080fd5b8101908080359060200190929190803573ffffffffffffffffffffffffffffffffffffffff169060200190929190505050614226565b6040518082815260200191505060405180910390f35b60086020528060005260406000206000915090508060000154908060010154908060020154908060030154908060040154908060050154908060060154908060070154908060080154905089565b6040518060400160405280600b81526020017f47616d654d616e6167657200000000000000000000000000000000000000000081525061111e81614388565b600061112a85846119ac565b90506000600360009054906101000a900473ffffffffffffffffffffffffffffffffffffffff1673ffffffffffffffffffffffffffffffffffffffff16630b154c9687876040518363ffffffff1660e01b8152600401808381526020018273ffffffffffffffffffffffffffffffffffffffff1673ffffffffffffffffffffffffffffffffffffffff1681526020019250505060806040518083038186803b1580156111d557600080fd5b505afa1580156111e9573d6000803e3d6000fd5b505050506040513d60808110156111ff57600080fd5b810190808051906020019092919080519060200190929190805190602001909291908051906020019092919050505050505090506000600360009054906101000a900473ffffffffffffffffffffffffffffffffffffffff1673ffffffffffffffffffffffffffffffffffffffff16630b154c9688856040518363ffffffff1660e01b8152600401808381526020018273ffffffffffffffffffffffffffffffffffffffff1673ffffffffffffffffffffffffffffffffffffffff1681526020019250505060806040518083038186803b1580156112dc57600080fd5b505afa1580156112f0573d6000803e3d6000fd5b505050506040513d608081101561130657600080fd5b810190808051906020019092919080519060200190929190805190602001909291908051906020019092919050505050505090508573ffffffffffffffffffffffffffffffffffffffff168373ffffffffffffffffffffffffffffffffffffffff161461168a578082111561149e57856007600089815260200190815260200160002060008773ffffffffffffffffffffffffffffffffffffffff1673ffffffffffffffffffffffffffffffffffffffff16815260200190815260200160002060010160016101000a81548173ffffffffffffffffffffffffffffffffffffffff021916908373ffffffffffffffffffffffffffffffffffffffff160217905550826007600089815260200190815260200160002060008773ffffffffffffffffffffffffffffffffffffffff1673ffffffffffffffffffffffffffffffffffffffff16815260200190815260200160002060020160006101000a81548173ffffffffffffffffffffffffffffffffffffffff021916908373ffffffffffffffffffffffffffffffffffffffff160217905550611689565b60006114aa8887612657565b90506000600360009054906101000a900473ffffffffffffffffffffffffffffffffffffffff1673ffffffffffffffffffffffffffffffffffffffff16630b154c968a846040518363ffffffff1660e01b8152600401808381526020018273ffffffffffffffffffffffffffffffffffffffff1673ffffffffffffffffffffffffffffffffffffffff1681526020019250505060806040518083038186803b15801561155557600080fd5b505afa158015611569573d6000803e3d6000fd5b505050506040513d608081101561157f57600080fd5b8101908080519060200190929190805190602001909291908051906020019092919080519060200190929190505050505050905080841180156115ee57508773ffffffffffffffffffffffffffffffffffffffff168273ffffffffffffffffffffffffffffffffffffffff1614155b156116865787600760008b815260200190815260200160002060008973ffffffffffffffffffffffffffffffffffffffff1673ffffffffffffffffffffffffffffffffffffffff16815260200190815260200160002060020160006101000a81548173ffffffffffffffffffffffffffffffffffffffff021916908373ffffffffffffffffffffffffffffffffffffffff1602179055505b50505b5b50505050505050565b6040518060400160405280600c81526020017f47616d654372656174696f6e00000000000000000000000000000000000000008152506116d281614388565b6000600260009054906101000a900473ffffffffffffffffffffffffffffffffffffffff1673ffffffffffffffffffffffffffffffffffffffff1663f0e52c426040518163ffffffff1660e01b815260040160206040518083038186803b15801561173c57600080fd5b505afa158015611750573d6000803e3d6000fd5b505050506040513d602081101561176657600080fd5b81019080805190602001909291905050509050600080600360009054906101000a900473ffffffffffffffffffffffffffffffffffffffff1673ffffffffffffffffffffffffffffffffffffffff1663bd4f6d1e866040518263ffffffff1660e01b815260040180828152602001915050604080518083038186803b1580156117ee57600080fd5b505afa158015611802573d6000803e3d6000fd5b505050506040513d604081101561181857600080fd5b81019080805190602001909291908051906020019092919050505091509150611842838383613888565b60086000878152602001908152602001600020600001819055505050505050565b600060086000838152602001908152602001600020600401549050919050565b600060086000838152602001908152602001600020600701549050919050565b6040518060400160405280600b81526020017f47616d654d616e616765720000000000000000000000000000000000000000008152506118e281614388565b60016007600086815260200190815260200160002060008573ffffffffffffffffffffffffffffffffffffffff1673ffffffffffffffffffffffffffffffffffffffff16815260200190815260200160002060010160006101000a81548160ff021916908315150217905550816007600086815260200190815260200160002060008573ffffffffffffffffffffffffffffffffffffffff1673ffffffffffffffffffffffffffffffffffffffff1681526020019081526020016000206000018190555050505050565b60006007600084815260200190815260200160002060008373ffffffffffffffffffffffffffffffffffffffff1673ffffffffffffffffffffffffffffffffffffffff16815260200190815260200160002060010160019054906101000a900473ffffffffffffffffffffffffffffffffffffffff16905092915050565b600360009054906101000a900473ffffffffffffffffffffffffffffffffffffffff1681565b6040518060400160405280600781526020017f43726f6e4a6f6200000000000000000000000000000000000000000000000000815250611a8f81614388565b600660009054906101000a900473ffffffffffffffffffffffffffffffffffffffff1673ffffffffffffffffffffffffffffffffffffffff16639b42e5476040518163ffffffff1660e01b8152600401600060405180830381600087803b158015611af957600080fd5b505af1158015611b0d573d6000803e3d6000fd5b50505050600560009054906101000a900473ffffffffffffffffffffffffffffffffffffffff1673ffffffffffffffffffffffffffffffffffffffff1663d65ab5f26040518163ffffffff1660e01b8152600401602060405180830381600087803b158015611b7b57600080fd5b505af1158015611b8f573d6000803e3d6000fd5b505050506040513d6020811015611ba557600080fd5b8101908080519060200190929190505050600960006101000a81548160ff021916908315150217905550600160009054906101000a900473ffffffffffffffffffffffffffffffffffffffff1673ffffffffffffffffffffffffffffffffffffffff1663358177736040518060400160405280600c81526020017f5769746864726177506f6f6c00000000000000000000000000000000000000008152506040518263ffffffff1660e01b81526004018080602001828103825283818151815260200191508051906020019080838360005b83811015611c92578082015181840152602081019050611c77565b50505050905090810190601f168015611cbf5780820380516001836020036101000a031916815260200191505b509250505060206040518083038186803b158015611cdc57600080fd5b505afa158015611cf0573d6000803e3d6000fd5b505050506040513d6020811015611d0657600080fd5b810190808051906020019092919050505073ffffffffffffffffffffffffffffffffffffffff166333d8cd8e6040518163ffffffff1660e01b8152600401600060405180830381600087803b158015611d5e57600080fd5b505af1158015611d72573d6000803e3d6000fd5b5050505050565b600060086000838152602001908152602001600020600201549050919050565b600080600260009054906101000a900473ffffffffffffffffffffffffffffffffffffffff1673ffffffffffffffffffffffffffffffffffffffff16631697e4b66040518163ffffffff1660e01b815260040160206040518083038186803b158015611e0457600080fd5b505afa158015611e18573d6000803e3d6000fd5b505050506040513d6020811015611e2e57600080fd5b8101908080519060200190929190505050905042611e55828561462390919063ffffffff16565b11611f9057600080600360009054906101000a900473ffffffffffffffffffffffffffffffffffffffff1673ffffffffffffffffffffffffffffffffffffffff1663589ac6a4876040518263ffffffff1660e01b8152600401808281526020019150506101006040518083038186803b158015611ed157600080fd5b505afa158015611ee5573d6000803e3d6000fd5b505050506040513d601f19601f82011682018060405250610100811015611f0b57600080fd5b81019080805190602001909291908051906020019092919080519060200190929190805190602001909291909190826040018051906020019092919080519060200190929190505050505050935093505050611f71600a8361463a90919063ffffffff16565b811015611f845760019350505050611f92565b60009350505050611f92565b505b92915050565b600060086000838152602001908152602001600020600501549050919050565b6000806000600360009054906101000a900473ffffffffffffffffffffffffffffffffffffffff1673ffffffffffffffffffffffffffffffffffffffff166315a40f49866040518263ffffffff1660e01b81526004018082815260200191505060806040518083038186803b15801561203057600080fd5b505afa158015612044573d6000803e3d6000fd5b505050506040513d608081101561205a57600080fd5b81019080805190602001909291908051906020019092919080519060200190929190805190602001909291905050505050915091508373ffffffffffffffffffffffffffffffffffffffff168273ffffffffffffffffffffffffffffffffffffffff1614156120cd5780925050506120d3565b81925050505b92915050565b6040518060400160405280600c81526020017f47616d654372656174696f6e000000000000000000000000000000000000000081525061211881614388565b61212182614671565b5050565b600060086000838152602001908152602001600020600301549050919050565b60006040518060400160405280600c81526020017f47616d654372656174696f6e000000000000000000000000000000000000000081525061218681614388565b6000600660009054906101000a900473ffffffffffffffffffffffffffffffffffffffff1673ffffffffffffffffffffffffffffffffffffffff16630b3fbd5f6040518163ffffffff1660e01b815260040160206040518083038186803b1580156121f057600080fd5b505afa158015612204573d6000803e3d6000fd5b505050506040513d602081101561221a57600080fd5b810190808051906020019092919050505090506000600660009054906101000a900473ffffffffffffffffffffffffffffffffffffffff1673ffffffffffffffffffffffffffffffffffffffff16632ca12ad0836040518263ffffffff1660e01b81526004018082815260200191505060206040518083038186803b1580156122a257600080fd5b505afa1580156122b6573d6000803e3d6000fd5b505050506040513d60208110156122cc57600080fd5b810190808051906020019092919050505090506122e98582614be4565b9350505050919050565b6040518060400160405280600a81526020017f474d53657474657244420000000000000000000000000000000000000000000081525061233281614388565b816007600086815260200190815260200160002060008573ffffffffffffffffffffffffffffffffffffffff1673ffffffffffffffffffffffffffffffffffffffff16815260200190815260200160002060020160006101000a81548173ffffffffffffffffffffffffffffffffffffffff021916908373ffffffffffffffffffffffffffffffffffffffff16021790555050505050565b6040518060400160405280600b81526020017f47616d654d616e6167657200000000000000000000000000000000000000000081525061240981614388565b6000600260009054906101000a900473ffffffffffffffffffffffffffffffffffffffff1673ffffffffffffffffffffffffffffffffffffffff16637a10546d6040518163ffffffff1660e01b815260040160206040518083038186803b15801561247357600080fd5b505afa158015612487573d6000803e3d6000fd5b505050506040513d602081101561249d57600080fd5b81019080805190602001909291905050509050600080600360009054906101000a900473ffffffffffffffffffffffffffffffffffffffff1673ffffffffffffffffffffffffffffffffffffffff1663525a8e4e866040518263ffffffff1660e01b815260040180828152602001915050604080518083038186803b15801561252557600080fd5b505afa158015612539573d6000803e3d6000fd5b505050506040513d604081101561254f57600080fd5b81019080805190602001909291908051906020019092919050505091509150612579838383613888565b600860008781526020019081526020016000206002018190555061265061264b42600260009054906101000a900473ffffffffffffffffffffffffffffffffffffffff1673ffffffffffffffffffffffffffffffffffffffff1663a38bcf206040518163ffffffff1660e01b815260040160206040518083038186803b15801561260257600080fd5b505afa158015612616573d6000803e3d6000fd5b505050506040513d602081101561262c57600080fd5b8101908080519060200190929190505050614d9d90919063ffffffff16565b614db9565b5050505050565b60006007600084815260200190815260200160002060008373ffffffffffffffffffffffffffffffffffffffff1673ffffffffffffffffffffffffffffffffffffffff16815260200190815260200160002060020160009054906101000a900473ffffffffffffffffffffffffffffffffffffffff16905092915050565b6126dd615c97565b6008600083815260200190815260200160002060090160058060200260405190810160405280929190826005801561272a576020028201915b815481526020019060010190808311612716575b50505050509050919050565b60006007600084815260200190815260200160002060008373ffffffffffffffffffffffffffffffffffffffff1673ffffffffffffffffffffffffffffffffffffffff16815260200190815260200160002060000154905092915050565b6040518060400160405280600c81526020017f47616d654372656174696f6e00000000000000000000000000000000000000008152506127d381614388565b6000600260009054906101000a900473ffffffffffffffffffffffffffffffffffffffff1673ffffffffffffffffffffffffffffffffffffffff16639c04b9cd6040518163ffffffff1660e01b815260040160206040518083038186803b15801561283d57600080fd5b505afa158015612851573d6000803e3d6000fd5b505050506040513d602081101561286757600080fd5b81019080805190602001909291905050509050600080600360009054906101000a900473ffffffffffffffffffffffffffffffffffffffff1673ffffffffffffffffffffffffffffffffffffffff1663bd4f6d1e866040518263ffffffff1660e01b815260040180828152602001915050604080518083038186803b1580156128ef57600080fd5b505afa158015612903573d6000803e3d6000fd5b505050506040513d604081101561291957600080fd5b81019080805190602001909291908051906020019092919050505091509150612943838383613888565b60086000878152602001908152602001600020600101819055505050505050565b6000809054906101000a900473ffffffffffffffffffffffffffffffffffffffff1673ffffffffffffffffffffffffffffffffffffffff163373ffffffffffffffffffffffffffffffffffffffff16146129ba57fe5b600160009054906101000a900473ffffffffffffffffffffffffffffffffffffffff1673ffffffffffffffffffffffffffffffffffffffff1663358177736040518060400160405280600d81526020017f47616d65566172416e64466565000000000000000000000000000000000000008152506040518263ffffffff1660e01b81526004018080602001828103825283818151815260200191508051906020019080838360005b83811015612a7d578082015181840152602081019050612a62565b50505050905090810190601f168015612aaa5780820380516001836020036101000a031916815260200191505b509250505060206040518083038186803b158015612ac757600080fd5b505afa158015612adb573d6000803e3d6000fd5b505050506040513d6020811015612af157600080fd5b8101908080519060200190929190505050600260006101000a81548173ffffffffffffffffffffffffffffffffffffffff021916908373ffffffffffffffffffffffffffffffffffffffff160217905550600160009054906101000a900473ffffffffffffffffffffffffffffffffffffffff1673ffffffffffffffffffffffffffffffffffffffff1663358177736040518060400160405280600a81526020017f474d4765747465724442000000000000000000000000000000000000000000008152506040518263ffffffff1660e01b81526004018080602001828103825283818151815260200191508051906020019080838360005b83811015612c05578082015181840152602081019050612bea565b50505050905090810190601f168015612c325780820380516001836020036101000a031916815260200191505b509250505060206040518083038186803b158015612c4f57600080fd5b505afa158015612c63573d6000803e3d6000fd5b505050506040513d6020811015612c7957600080fd5b8101908080519060200190929190505050600360006101000a81548173ffffffffffffffffffffffffffffffffffffffff021916908373ffffffffffffffffffffffffffffffffffffffff160217905550600160009054906101000a900473ffffffffffffffffffffffffffffffffffffffff1673ffffffffffffffffffffffffffffffffffffffff1663358177736040518060400160405280600b81526020017f486974735265736f6c76650000000000000000000000000000000000000000008152506040518263ffffffff1660e01b81526004018080602001828103825283818151815260200191508051906020019080838360005b83811015612d8d578082015181840152602081019050612d72565b50505050905090810190601f168015612dba5780820380516001836020036101000a031916815260200191505b509250505060206040518083038186803b158015612dd757600080fd5b505afa158015612deb573d6000803e3d6000fd5b505050506040513d6020811015612e0157600080fd5b8101908080519060200190929190505050600460006101000a81548173ffffffffffffffffffffffffffffffffffffffff021916908373ffffffffffffffffffffffffffffffffffffffff160217905550600160009054906101000a900473ffffffffffffffffffffffffffffffffffffffff1673ffffffffffffffffffffffffffffffffffffffff1663358177736040518060400160405280600981526020017f5363686564756c657200000000000000000000000000000000000000000000008152506040518263ffffffff1660e01b81526004018080602001828103825283818151815260200191508051906020019080838360005b83811015612f15578082015181840152602081019050612efa565b50505050905090810190601f168015612f425780820380516001836020036101000a031916815260200191505b509250505060206040518083038186803b158015612f5f57600080fd5b505afa158015612f73573d6000803e3d6000fd5b505050506040513d6020811015612f8957600080fd5b8101908080519060200190929190505050600560006101000a81548173ffffffffffffffffffffffffffffffffffffffff021916908373ffffffffffffffffffffffffffffffffffffffff160217905550600160009054906101000a900473ffffffffffffffffffffffffffffffffffffffff1673ffffffffffffffffffffffffffffffffffffffff1663358177736040518060400160405280600981526020017f54696d654672616d6500000000000000000000000000000000000000000000008152506040518263ffffffff1660e01b81526004018080602001828103825283818151815260200191508051906020019080838360005b8381101561309d578082015181840152602081019050613082565b50505050905090810190601f1680156130ca5780820380516001836020036101000a031916815260200191505b509250505060206040518083038186803b1580156130e757600080fd5b505afa1580156130fb573d6000803e3d6000fd5b505050506040513d602081101561311157600080fd5b8101908080519060200190929190505050600660006101000a81548173ffffffffffffffffffffffffffffffffffffffff021916908373ffffffffffffffffffffffffffffffffffffffff160217905550565b600460009054906101000a900473ffffffffffffffffffffffffffffffffffffffff1681565b600660009054906101000a900473ffffffffffffffffffffffffffffffffffffffff1681565b6000809054906101000a900473ffffffffffffffffffffffffffffffffffffffff1681565b6000809054906101000a900473ffffffffffffffffffffffffffffffffffffffff1673ffffffffffffffffffffffffffffffffffffffff163373ffffffffffffffffffffffffffffffffffffffff161461322b57fe5b80600160006101000a81548173ffffffffffffffffffffffffffffffffffffffff021916908373ffffffffffffffffffffffffffffffffffffffff16021790555050565b600073ffffffffffffffffffffffffffffffffffffffff163373ffffffffffffffffffffffffffffffffffffffff1614156132a657fe5b6132e46040518060400160405280600b81526020017f73757065725f61646d696e00000000000000000000000000000000000000000081525061594d565b613356576040517f08c379a00000000000000000000000000000000000000000000000000000000081526004018080602001828103825260108152602001807f4f6e6c792073757065722061646d696e0000000000000000000000000000000081525060200191505060405180910390fd5b61335f81614671565b50565b600260009054906101000a900473ffffffffffffffffffffffffffffffffffffffff1681565b600060086000838152602001908152602001600020600101549050919050565b60006040518060400160405280600981526020017f5363686564756c657200000000000000000000000000000000000000000000008152506133e981614388565b6000600660009054906101000a900473ffffffffffffffffffffffffffffffffffffffff1673ffffffffffffffffffffffffffffffffffffffff16630b3fbd5f6040518163ffffffff1660e01b815260040160206040518083038186803b15801561345357600080fd5b505afa158015613467573d6000803e3d6000fd5b505050506040513d602081101561347d57600080fd5b810190808051906020019092919050505090506000600660009054906101000a900473ffffffffffffffffffffffffffffffffffffffff1673ffffffffffffffffffffffffffffffffffffffff16632ca12ad0836040518263ffffffff1660e01b81526004018082815260200191505060206040518083038186803b15801561350557600080fd5b505afa158015613519573d6000803e3d6000fd5b505050506040513d602081101561352f57600080fd5b810190808051906020019092919050505090506136006135fa42600260009054906101000a900473ffffffffffffffffffffffffffffffffffffffff1673ffffffffffffffffffffffffffffffffffffffff1663a38bcf206040518163ffffffff1660e01b815260040160206040518083038186803b1580156135b157600080fd5b505afa1580156135c5573d6000803e3d6000fd5b505050506040513d60208110156135db57600080fd5b8101908080519060200190929190505050614d9d90919063ffffffff16565b82614be4565b935050505090565b6007602052816000526040600020602052806000526040600020600091509150508060000154908060010160009054906101000a900460ff16908060010160019054906101000a900473ffffffffffffffffffffffffffffffffffffffff16908060020160009054906101000a900473ffffffffffffffffffffffffffffffffffffffff16905084565b600060086000838152602001908152602001600020600601549050919050565b6040518060400160405280600b81526020017f47616d654d616e616765720000000000000000000000000000000000000000008152506136f181614388565b6137ae6137a942600260009054906101000a900473ffffffffffffffffffffffffffffffffffffffff1673ffffffffffffffffffffffffffffffffffffffff1663a38bcf206040518163ffffffff1660e01b815260040160206040518083038186803b15801561376057600080fd5b505afa158015613774573d6000803e3d6000fd5b505050506040513d602081101561378a57600080fd5b8101908080519060200190929190505050614d9d90919063ffffffff16565b614db9565b50565b6040518060400160405280600a81526020017f474d5365747465724442000000000000000000000000000000000000000000008152506137f081614388565b816007600086815260200190815260200160002060008573ffffffffffffffffffffffffffffffffffffffff1673ffffffffffffffffffffffffffffffffffffffff16815260200190815260200160002060010160016101000a81548173ffffffffffffffffffffffffffffffffffffffff021916908373ffffffffffffffffffffffffffffffffffffffff16021790555050505050565b600080841180156138995750600083115b80156138a55750600082115b613917576040517f08c379a00000000000000000000000000000000000000000000000000000000081526004018080602001828103825260098152602001807f44657374726f796564000000000000000000000000000000000000000000000081525060200191505060405180910390fd5b6000600260009054906101000a900473ffffffffffffffffffffffffffffffffffffffff1673ffffffffffffffffffffffffffffffffffffffff1663a0a8045e6040518163ffffffff1660e01b815260040160206040518083038186803b15801561398157600080fd5b505afa158015613995573d6000803e3d6000fd5b505050506040513d60208110156139ab57600080fd5b810190808051906020019092919050505090506000600260009054906101000a900473ffffffffffffffffffffffffffffffffffffffff1673ffffffffffffffffffffffffffffffffffffffff1663271bf40f6040518163ffffffff1660e01b815260040160206040518083038186803b158015613a2857600080fd5b505afa158015613a3c573d6000803e3d6000fd5b505050506040513d6020811015613a5257600080fd5b81019080805190602001909291905050509050613ad5620f4240613ac7613a82898861463a90919063ffffffff16565b613ab985613aab8c613a9d8a8e61463a90919063ffffffff16565b61463a90919063ffffffff16565b615bc990919063ffffffff16565b614d9d90919063ffffffff16565b615bc990919063ffffffff16565b925050509392505050565b6000806000806040518060400160405280600b81526020017f47616d654d616e61676572000000000000000000000000000000000000000000815250613b2581614388565b600460009054906101000a900473ffffffffffffffffffffffffffffffffffffffff1673ffffffffffffffffffffffffffffffffffffffff1663c0eef7188a8a896040518463ffffffff1660e01b8152600401808481526020018373ffffffffffffffffffffffffffffffffffffffff1673ffffffffffffffffffffffffffffffffffffffff168152602001828152602001935050505060206040518083038186803b158015613bd457600080fd5b505afa158015613be8573d6000803e3d6000fd5b505050506040513d6020811015613bfe57600080fd5b81019080805190602001909291905050509250600460009054906101000a900473ffffffffffffffffffffffffffffffffffffffff1673ffffffffffffffffffffffffffffffffffffffff1663c0eef7188a89896040518463ffffffff1660e01b8152600401808481526020018373ffffffffffffffffffffffffffffffffffffffff1673ffffffffffffffffffffffffffffffffffffffff168152602001828152602001935050505060206040518083038186803b158015613cc057600080fd5b505afa158015613cd4573d6000803e3d6000fd5b505050506040513d6020811015613cea57600080fd5b81019080805190602001909291905050509150613df183600360009054906101000a900473ffffffffffffffffffffffffffffffffffffffff1673ffffffffffffffffffffffffffffffffffffffff1663bacf524e8c8c6040518363ffffffff1660e01b8152600401808381526020018273ffffffffffffffffffffffffffffffffffffffff1673ffffffffffffffffffffffffffffffffffffffff1681526020019250505060206040518083038186803b158015613da857600080fd5b505afa158015613dbc573d6000803e3d6000fd5b505050506040513d6020811015613dd257600080fd5b810190808051906020019092919050505061463a90919063ffffffff16565b9250613ee782600360009054906101000a900473ffffffffffffffffffffffffffffffffffffffff1673ffffffffffffffffffffffffffffffffffffffff1663bacf524e8c8b6040518363ffffffff1660e01b8152600401808381526020018273ffffffffffffffffffffffffffffffffffffffff1673ffffffffffffffffffffffffffffffffffffffff1681526020019250505060206040518083038186803b158015613e9e57600080fd5b505afa158015613eb2573d6000803e3d6000fd5b505050506040513d6020811015613ec857600080fd5b810190808051906020019092919050505061463a90919063ffffffff16565b915081831115613efc57879450869350614055565b82821115613f0f57869450879350614054565b613f17615cb9565b600360009054906101000a900473ffffffffffffffffffffffffffffffffffffffff1673ffffffffffffffffffffffffffffffffffffffff1663589ac6a48b6040518263ffffffff1660e01b8152600401808281526020019150506101006040518083038186803b158015613f8b57600080fd5b505afa158015613f9f573d6000803e3d6000fd5b505050506040513d601f19601f82011682018060405250610100811015613fc557600080fd5b8101908080519060200190929190805190602001909291908051906020019092919080519060200190929190919082604001805190602001909291908051906020019092919050505050509450505050508060016002811061402357fe5b60200201518160006002811061403557fe5b6020020151111561404b57889550879450614052565b8795508894505b505b5b50945094509450949050565b600560009054906101000a900473ffffffffffffffffffffffffffffffffffffffff1681565b60006007600084815260200190815260200160002060008373ffffffffffffffffffffffffffffffffffffffff1673ffffffffffffffffffffffffffffffffffffffff16815260200190815260200160002060010160009054906101000a900460ff16905092915050565b600160009054906101000a900473ffffffffffffffffffffffffffffffffffffffff1681565b6000809054906101000a900473ffffffffffffffffffffffffffffffffffffffff1673ffffffffffffffffffffffffffffffffffffffff163373ffffffffffffffffffffffffffffffffffffffff161461416e57fe5b600073ffffffffffffffffffffffffffffffffffffffff168173ffffffffffffffffffffffffffffffffffffffff16146141e357806000806101000a81548173ffffffffffffffffffffffffffffffffffffffff021916908373ffffffffffffffffffffffffffffffffffffffff1602179055505b50565b600060086000838152602001908152602001600020600801549050919050565b600060086000838152602001908152602001600020600001549050919050565b6000806000600360009054906101000a900473ffffffffffffffffffffffffffffffffffffffff1673ffffffffffffffffffffffffffffffffffffffff166315a40f49866040518263ffffffff1660e01b81526004018082815260200191505060806040518083038186803b15801561429e57600080fd5b505afa1580156142b2573d6000803e3d6000fd5b505050506040513d60808110156142c857600080fd5b81019080805190602001909291908051906020019092919080519060200190929190805190602001909291905050505050915091508373ffffffffffffffffffffffffffffffffffffffff168273ffffffffffffffffffffffffffffffffffffffff16141561433c57600092505050614382565b8373ffffffffffffffffffffffffffffffffffffffff168173ffffffffffffffffffffffffffffffffffffffff16141561437b57600192505050614382565b6002925050505b92915050565b600073ffffffffffffffffffffffffffffffffffffffff16600160009054906101000a900473ffffffffffffffffffffffffffffffffffffffff1673ffffffffffffffffffffffffffffffffffffffff16141561444d576040517f08c379a00000000000000000000000000000000000000000000000000000000081526004018080602001828103825260088152602001807f4e6f2050726f787900000000000000000000000000000000000000000000000081525060200191505060405180910390fd5b6000600160009054906101000a900473ffffffffffffffffffffffffffffffffffffffff1673ffffffffffffffffffffffffffffffffffffffff166335817773836040518263ffffffff1660e01b81526004018080602001828103825283818151815260200191508051906020019080838360005b838110156144dd5780820151818401526020810190506144c2565b50505050905090810190601f16801561450a5780820380516001836020036101000a031916815260200191505b509250505060206040518083038186803b15801561452757600080fd5b505afa15801561453b573d6000803e3d6000fd5b505050506040513d602081101561455157600080fd5b81019080805190602001909291905050509050600073ffffffffffffffffffffffffffffffffffffffff168173ffffffffffffffffffffffffffffffffffffffff16141561459b57fe5b8073ffffffffffffffffffffffffffffffffffffffff163373ffffffffffffffffffffffffffffffffffffffff161461461f576040517f08c379a000000000000000000000000000000000000000000000000000000000815260040180806020018281038252602d815260200180615dbc602d913960400191505060405180910390fd5b5050565b60008282111561462f57fe5b818303905092915050565b60008083141561464d576000905061466b565b600082840290508284828161465e57fe5b041461466657fe5b809150505b92915050565b614679615cdb565b600081600001818152505060008160200181815250506000816040018181525050600260009054906101000a900473ffffffffffffffffffffffffffffffffffffffff1673ffffffffffffffffffffffffffffffffffffffff16639840060f6040518163ffffffff1660e01b815260040160206040518083038186803b15801561470257600080fd5b505afa158015614716573d6000803e3d6000fd5b505050506040513d602081101561472c57600080fd5b8101908080519060200190929190505050816060018181525050600260009054906101000a900473ffffffffffffffffffffffffffffffffffffffff1673ffffffffffffffffffffffffffffffffffffffff166333dbee176040518163ffffffff1660e01b815260040160206040518083038186803b1580156147ae57600080fd5b505afa1580156147c2573d6000803e3d6000fd5b505050506040513d60208110156147d857600080fd5b8101908080519060200190929190505050816080018181525050600260009054906101000a900473ffffffffffffffffffffffffffffffffffffffff1673ffffffffffffffffffffffffffffffffffffffff166368afa5416040518163ffffffff1660e01b815260040160206040518083038186803b15801561485a57600080fd5b505afa15801561486e573d6000803e3d6000fd5b505050506040513d602081101561488457600080fd5b81019080805190602001909291905050508160a0018181525050600260009054906101000a900473ffffffffffffffffffffffffffffffffffffffff1673ffffffffffffffffffffffffffffffffffffffff16633e4c883f6040518163ffffffff1660e01b815260040160a06040518083038186803b15801561490657600080fd5b505afa15801561491a573d6000803e3d6000fd5b505050506040513d601f19601f8201168201806040525060a081101561493f57600080fd5b8101908091905050816101200181905250600260009054906101000a900473ffffffffffffffffffffffffffffffffffffffff1673ffffffffffffffffffffffffffffffffffffffff1663d693a9896040518163ffffffff1660e01b815260040160206040518083038186803b1580156149b857600080fd5b505afa1580156149cc573d6000803e3d6000fd5b505050506040513d60208110156149e257600080fd5b81019080805190602001909291905050508160c0018181525050600260009054906101000a900473ffffffffffffffffffffffffffffffffffffffff1673ffffffffffffffffffffffffffffffffffffffff1663ae1d48a86040518163ffffffff1660e01b815260040160206040518083038186803b158015614a6457600080fd5b505afa158015614a78573d6000803e3d6000fd5b505050506040513d6020811015614a8e57600080fd5b81019080805190602001909291905050508160e0018181525050600260009054906101000a900473ffffffffffffffffffffffffffffffffffffffff1673ffffffffffffffffffffffffffffffffffffffff16631697e4b66040518163ffffffff1660e01b815260040160206040518083038186803b158015614b1057600080fd5b505afa158015614b24573d6000803e3d6000fd5b505050506040513d6020811015614b3a57600080fd5b8101908080519060200190929190505050816101000181815250508060086000848152602001908152602001600020600082015181600001556020820151816001015560408201518160020155606082015181600301556080820151816004015560a0820151816005015560c0820151816006015560e08201518160070155610100820151816008015561012082015181600901906005614bdc929190615d34565b509050505050565b600082614d50614d41600660009054906101000a900473ffffffffffffffffffffffffffffffffffffffff1673ffffffffffffffffffffffffffffffffffffffff1663a0559ae46040518163ffffffff1660e01b815260040160206040518083038186803b158015614c5557600080fd5b505afa158015614c69573d6000803e3d6000fd5b505050506040513d6020811015614c7f57600080fd5b8101908080519060200190929190505050600660009054906101000a900473ffffffffffffffffffffffffffffffffffffffff1673ffffffffffffffffffffffffffffffffffffffff1663504a38dd6040518163ffffffff1660e01b815260040160206040518083038186803b158015614cf857600080fd5b505afa158015614d0c573d6000803e3d6000fd5b505050506040513d6020811015614d2257600080fd5b8101908080519060200190929190505050614d9d90919063ffffffff16565b8461462390919063ffffffff16565b111580614d695750600960009054906101000a900460ff165b15614d775760009050614d97565b6001600960006101000a81548160ff021916908315150217905550600190505b92915050565b600080828401905083811015614daf57fe5b8091505092915050565b6000600660009054906101000a900473ffffffffffffffffffffffffffffffffffffffff1673ffffffffffffffffffffffffffffffffffffffff16630b3fbd5f6040518163ffffffff1660e01b815260040160206040518083038186803b158015614e2357600080fd5b505afa158015614e37573d6000803e3d6000fd5b505050506040513d6020811015614e4d57600080fd5b810190808051906020019092919050505090506000600660009054906101000a900473ffffffffffffffffffffffffffffffffffffffff1673ffffffffffffffffffffffffffffffffffffffff16632ca12ad0836040518263ffffffff1660e01b81526004018082815260200191505060206040518083038186803b158015614ed557600080fd5b505afa158015614ee9573d6000803e3d6000fd5b505050506040513d6020811015614eff57600080fd5b810190808051906020019092919050505090506000600960006101000a81548160ff021916908315150217905550614feb614fe542600260009054906101000a900473ffffffffffffffffffffffffffffffffffffffff1673ffffffffffffffffffffffffffffffffffffffff1663a38bcf206040518163ffffffff1660e01b815260040160206040518083038186803b158015614f9c57600080fd5b505afa158015614fb0573d6000803e3d6000fd5b505050506040513d6020811015614fc657600080fd5b8101908080519060200190929190505050614d9d90919063ffffffff16565b82614be4565b156150b357600560009054906101000a900473ffffffffffffffffffffffffffffffffffffffff1673ffffffffffffffffffffffffffffffffffffffff1663d65ab5f26040518163ffffffff1660e01b8152600401602060405180830381600087803b15801561505a57600080fd5b505af115801561506e573d6000803e3d6000fd5b505050506040513d602081101561508457600080fd5b8101908080519060200190929190505050600960006101000a81548160ff021916908315150217905550615948565b600061516a600660009054906101000a900473ffffffffffffffffffffffffffffffffffffffff1673ffffffffffffffffffffffffffffffffffffffff1663504a38dd6040518163ffffffff1660e01b815260040160206040518083038186803b15801561512057600080fd5b505afa158015615134573d6000803e3d6000fd5b505050506040513d602081101561514a57600080fd5b81019080805190602001909291905050508361462390919063ffffffff16565b42111561523b57615238615229600660009054906101000a900473ffffffffffffffffffffffffffffffffffffffff1673ffffffffffffffffffffffffffffffffffffffff1663504a38dd6040518163ffffffff1660e01b815260040160206040518083038186803b1580156151df57600080fd5b505afa1580156151f3573d6000803e3d6000fd5b505050506040513d602081101561520957600080fd5b81019080805190602001909291905050508461462390919063ffffffff16565b4261462390919063ffffffff16565b90505b6000600160009054906101000a900473ffffffffffffffffffffffffffffffffffffffff1673ffffffffffffffffffffffffffffffffffffffff1663358177736040518060400160405280600781526020017f43726f6e4a6f62000000000000000000000000000000000000000000000000008152506040518263ffffffff1660e01b81526004018080602001828103825283818151815260200191508051906020019080838360005b838110156153005780820151818401526020810190506152e5565b50505050905090810190601f16801561532d5780820380516001836020036101000a031916815260200191505b509250505060206040518083038186803b15801561534a57600080fd5b505afa15801561535e573d6000803e3d6000fd5b505050506040513d602081101561537457600080fd5b810190808051906020019092919050505090508073ffffffffffffffffffffffffffffffffffffffff1663c19304966040518060400160405280600981526020017f47616d6553746f726500000000000000000000000000000000000000000000008152506153ec8587614d9d90919063ffffffff16565b6040516024016040516020818303038152906040527f228d8dcb000000000000000000000000000000000000000000000000000000007bffffffffffffffffffffffffffffffffffffffffffffffffffffffff19166020820180517bffffffffffffffffffffffffffffffffffffffffffffffffffffffff83818316178352505050506040518463ffffffff1660e01b8152600401808060200184815260200180602001838103835286818151815260200191508051906020019080838360005b838110156154c85780820151818401526020810190506154ad565b50505050905090810190601f1680156154f55780820380516001836020036101000a031916815260200191505b50838103825284818151815260200191508051906020019080838360005b8381101561552e578082015181840152602081019050615513565b50505050905090810190601f16801561555b5780820380516001836020036101000a031916815260200191505b5095505050505050602060405180830381600087803b15801561557d57600080fd5b505af1158015615591573d6000803e3d6000fd5b505050506040513d60208110156155a757600080fd5b810190808051906020019092919050505050600160009054906101000a900473ffffffffffffffffffffffffffffffffffffffff1673ffffffffffffffffffffffffffffffffffffffff1663358177736040518060400160405280600c81526020017f5769746864726177506f6f6c00000000000000000000000000000000000000008152506040518263ffffffff1660e01b81526004018080602001828103825283818151815260200191508051906020019080838360005b8381101561567c578082015181840152602081019050615661565b50505050905090810190601f1680156156a95780820380516001836020036101000a031916815260200191505b509250505060206040518083038186803b1580156156c657600080fd5b505afa1580156156da573d6000803e3d6000fd5b505050506040513d60208110156156f057600080fd5b810190808051906020019092919050505073ffffffffffffffffffffffffffffffffffffffff16632e964e7e85600160009054906101000a900473ffffffffffffffffffffffffffffffffffffffff1673ffffffffffffffffffffffffffffffffffffffff1663358177736040518060400160405280600b81526020017f456e646f776d656e7444420000000000000000000000000000000000000000008152506040518263ffffffff1660e01b81526004018080602001828103825283818151815260200191508051906020019080838360005b838110156157e05780820151818401526020810190506157c5565b50505050905090810190601f16801561580d5780820380516001836020036101000a031916815260200191505b509250505060206040518083038186803b15801561582a57600080fd5b505afa15801561583e573d6000803e3d6000fd5b505050506040513d602081101561585457600080fd5b810190808051906020019092919050505073ffffffffffffffffffffffffffffffffffffffff16636d71894b886040518263ffffffff1660e01b81526004018082815260200191505060206040518083038186803b1580156158b557600080fd5b505afa1580156158c9573d6000803e3d6000fd5b505050506040513d60208110156158df57600080fd5b81019080805190602001909291905050506040518363ffffffff1660e01b81526004018083815260200182815260200192505050600060405180830381600087803b15801561592d57600080fd5b505af1158015615941573d6000803e3d6000fd5b5050505050505b505050565b6000600160009054906101000a900473ffffffffffffffffffffffffffffffffffffffff1673ffffffffffffffffffffffffffffffffffffffff1663358177736040518060400160405280600681526020017f526f6c65444200000000000000000000000000000000000000000000000000008152506040518263ffffffff1660e01b81526004018080602001828103825283818151815260200191508051906020019080838360005b83811015615a125780820151818401526020810190506159f7565b50505050905090810190601f168015615a3f5780820380516001836020036101000a031916815260200191505b509250505060206040518083038186803b158015615a5c57600080fd5b505afa158015615a70573d6000803e3d6000fd5b505050506040513d6020811015615a8657600080fd5b810190808051906020019092919050505073ffffffffffffffffffffffffffffffffffffffff16636c9cd09783615abb615be2565b6040518363ffffffff1660e01b815260040180806020018373ffffffffffffffffffffffffffffffffffffffff1673ffffffffffffffffffffffffffffffffffffffff168152602001828103825284818151815260200191508051906020019080838360005b83811015615b3c578082015181840152602081019050615b21565b50505050905090810190601f168015615b695780820380516001836020036101000a031916815260200191505b50935050505060206040518083038186803b158015615b8757600080fd5b505afa158015615b9b573d6000803e3d6000fd5b505050506040513d6020811015615bb157600080fd5b81019080805190602001909291905050509050919050565b600080828481615bd557fe5b0490508091505092915050565b6000600160009054906101000a900473ffffffffffffffffffffffffffffffffffffffff1673ffffffffffffffffffffffffffffffffffffffff163373ffffffffffffffffffffffffffffffffffffffff1614615c4157339050615c94565b6000601436036000602052601481602c37602051915050600073ffffffffffffffffffffffffffffffffffffffff168173ffffffffffffffffffffffffffffffffffffffff161415615c8f57fe5b809150505b90565b6040518060a00160405280600590602082028038833980820191505090505090565b6040518060400160405280600290602082028038833980820191505090505090565b604051806101400160405280600081526020016000815260200160008152602001600081526020016000815260200160008152602001600081526020016000815260200160008152602001615d2e615d74565b81525090565b8260058101928215615d63579160200282015b82811115615d62578251825591602001919060010190615d47565b5b509050615d709190615d96565b5090565b6040518060a00160405280600590602082028038833980820191505090505090565b615db891905b80821115615db4576000816000905550600101615d9c565b5090565b9056fe416363657373206973206f6e6c7920616c6c6f7765642066726f6d20737065636966696320636f6e7472616374a265627a7a72315820ef254ebf892f3bd8df6a6bf788d6ed891475ed9b43439c62c3d7c2871413111664736f6c63430005110032",
  "source": "pragma solidity ^0.5.5;\n\nimport '../proxy/Proxied.sol';\nimport \"../../GameVarAndFee.sol\";\nimport \"../databases/GMGetterDB.sol\";\nimport \"../../libs/SafeMath.sol\";\nimport \"../algorithm/HitsResolveAlgo.sol\";\nimport '../../authority/Guard.sol';\nimport \"../datetime/TimeFrame.sol\";\nimport \"../../withdrawPool/WithdrawPool.sol\";\nimport \"../gamemanager/Scheduler.sol\";\nimport \"../../CronJob.sol\";\nimport \"../databases/EndowmentDB.sol\";\n\ncontract GameStore is Proxied, Guard {\n\n    using SafeMath for uint256;\n\n    GameVarAndFee public gameVarAndFee;\n    GMGetterDB public gmGetterDB;\n    HitsResolve public hitsResolve;\n    Scheduler public scheduler;\n    TimeFrame public timeFrame;\n\n    struct Game {\n        uint randomNum; //when pressing start\n        bool pressedStart;\n        address topBettor;\n        address secondTopBettor;\n    }\n\n    struct GlobalSettings {\n        uint bettingFee;\n        uint ticketFee;\n        uint redemptionFee;\n        uint kittieHellExpirationTime;\n        uint honeypotExpirationTime;\n        uint minimumContributors;\n        uint finalizeRewards;\n        uint timeExtension;\n        uint performanceTime;\n        uint[5] distributionRates;\n    }\n\n    //Players info in a game\n    mapping(uint => mapping(address => Game)) public gameByPlayer;\n    mapping(uint => GlobalSettings) public gameSettings;\n\n    bool gameScheduled;\n\n    function initialize() external onlyOwner {\n        gameVarAndFee = GameVarAndFee(proxy.getContract(CONTRACT_NAME_GAMEVARANDFEE));\n        gmGetterDB = GMGetterDB(proxy.getContract(CONTRACT_NAME_GM_GETTER_DB));\n        hitsResolve = HitsResolve(proxy.getContract(CONTRACT_NAME_HITSRESOLVE));\n        scheduler = Scheduler(proxy.getContract(CONTRACT_NAME_SCHEDULER));\n        timeFrame = TimeFrame(proxy.getContract(CONTRACT_NAME_TIMEFRAME));\n    }\n\n    function lock(uint gameId) internal{\n        GlobalSettings memory globalSettings;\n\n        globalSettings.bettingFee = 0;\n        globalSettings.ticketFee = 0;\n        globalSettings.redemptionFee = 0;\n        globalSettings.kittieHellExpirationTime = gameVarAndFee.getKittieExpiry();\n        globalSettings.honeypotExpirationTime = gameVarAndFee.getHoneypotExpiration();\n        globalSettings.minimumContributors = gameVarAndFee.getMinimumContributors();\n        globalSettings.distributionRates = gameVarAndFee.getDistributionRates();\n        globalSettings.finalizeRewards = gameVarAndFee.getFinalizeRewards();\n        globalSettings.timeExtension = gameVarAndFee.getTimeExtension();\n        globalSettings.performanceTime = gameVarAndFee.getPerformanceTimeCheck();\n\n        gameSettings[gameId] = globalSettings;\n    }\n\n    function lockVars(uint gameId) external onlyContract(CONTRACT_NAME_GAMECREATION){\n        lock(gameId);\n    }\n\n    function lockVarsAdmin(uint gameId) external onlySuperAdmin{\n        lock(gameId);\n    }\n\n    function getDistributionRates(uint gameId) public view returns(uint[5] memory){\n        return gameSettings[gameId].distributionRates;\n    }\n\n    function calculateDynamicFee\n    (\n        uint256 percentageHoneyPot,\n        uint256 _eth_amount,\n        uint256 _kty_amount\n    )\n        public view returns(uint256)\n    {\n        require(percentageHoneyPot > 0 && _eth_amount > 0 && _kty_amount > 0, \"Destroyed\");\n\n        uint256 ethUsdPrice = gameVarAndFee.getEthUsdPrice();\n        uint256 usdKTYPrice = gameVarAndFee.getUsdKTYPrice();\n\n        // 1,000,000 is the base used for percentage setting in kittieFight\n        // for example, if percentageHoneyPot is 0.03% in real world, inside this function\n        // percentageHoneyPot = 0.03% * 1,000,1000 which is 300, thus for the need of div(1000000)\n        return ((_eth_amount.mul(ethUsdPrice).mul(percentageHoneyPot).div(usdKTYPrice)).add((_kty_amount.mul(percentageHoneyPot)))).div(1000000);\n    }\n\n    function updateKittieRedemptionFee(uint256 gameId)\n        public\n        onlyContract(CONTRACT_NAME_GAMEMANAGER)\n    {\n        uint256 percentageHoneyPot = gameVarAndFee.getPercentageForKittieRedemptionFee();\n        (uint256 totalEthFunds, uint256 totalKTYFunds) = gmGetterDB.getFinalHoneypot(gameId);\n\n        gameSettings[gameId].redemptionFee = calculateDynamicFee(percentageHoneyPot, totalEthFunds, totalKTYFunds);        \n\n        startGameAndCalculateEpoch(gameVarAndFee.getGameTimes().add(now));\n    }\n\n    function updateTicketFee(uint256 gameId)\n        public\n        onlyContract(CONTRACT_NAME_GAMECREATION)\n    {\n        uint256 percentageHoneyPot = gameVarAndFee.getPercentageForTicketFee();\n        (uint256 initialHoneypotEth, uint256 initialHoneypotKTY) = gmGetterDB.getInitialHoneypot(gameId);\n        gameSettings[gameId].ticketFee = calculateDynamicFee(percentageHoneyPot, initialHoneypotEth, initialHoneypotKTY);\n    }\n\n    function updateBettingFee(uint256 gameId)\n        public\n        onlyContract(CONTRACT_NAME_GAMECREATION)\n    {\n        uint256 percentageHoneyPot = gameVarAndFee.getPercentageForBettingFee();\n        (uint256 initialHoneypotEth, uint256 initialHoneypotKTY) = gmGetterDB.getInitialHoneypot(gameId);\n        gameSettings[gameId].bettingFee = calculateDynamicFee(percentageHoneyPot, initialHoneypotEth, initialHoneypotKTY);\n    }\n\n    function getKittieExpirationTime(uint gameId) public view returns(uint){\n        return  gameSettings[gameId].kittieHellExpirationTime;\n    }\n\n    function getKittieRedemptionFee(uint gameId) public view returns(uint){\n        return  gameSettings[gameId].redemptionFee;\n    }\n    \n    function getHoneypotExpiration(uint gameId) public view returns(uint){\n        return  gameSettings[gameId].honeypotExpirationTime;\n    }\n\n    function start(uint gameId, address player, uint randomNum) external onlyContract(CONTRACT_NAME_GAMEMANAGER){\n        gameByPlayer[gameId][player].pressedStart = true;\n        gameByPlayer[gameId][player].randomNum = randomNum;\n    }\n\n    function didHitStart(uint gameId, address player) public view returns(bool){\n        return gameByPlayer[gameId][player].pressedStart;\n    }\n\n    function getRandom(uint gameId, address player) public view returns(uint){\n        return gameByPlayer[gameId][player].randomNum;\n    }\n\n    function updateTopBettor(uint gameId, address player, address newTopBettor) external onlyContract(CONTRACT_NAME_GM_SETTER_DB){\n        gameByPlayer[gameId][player].topBettor = newTopBettor;\n    }\n\n    function getTopBettor(uint gameId, address player) public view returns(address){\n        return gameByPlayer[gameId][player].topBettor;\n    }\n\n    function updateSecondTopBettor(uint gameId, address player, address newSecondTopBettor) external onlyContract(CONTRACT_NAME_GM_SETTER_DB){\n        gameByPlayer[gameId][player].secondTopBettor = newSecondTopBettor;\n    }\n\n    function getSecondTopBettor(uint gameId, address player) public view returns(address){\n        return gameByPlayer[gameId][player].secondTopBettor;\n    }\n\n    function getTicketFee(uint gameId) public view returns(uint){\n        return gameSettings[gameId].ticketFee;\n    }\n\n    function getBettingFee(uint gameId) public view returns(uint){\n        return gameSettings[gameId].bettingFee;\n    }\n\n    function getMinimumContributors(uint gameId) public view returns(uint){\n        return gameSettings[gameId].minimumContributors;\n    }\n\n    function getFinalizeRewards(uint gameId) public view returns(uint){\n        return gameSettings[gameId].finalizeRewards;\n    }\n\n    function getPerformanceTimeCheck(uint gameId) public view returns(uint){\n        return gameSettings[gameId].performanceTime;\n    }\n\n    function getTimeExtension(uint gameId) public view returns(uint){\n        return gameSettings[gameId].timeExtension;\n    }\n\n    function updateTopbettors(uint256 _gameId, address _account, address _supportedPlayer)\n        external\n        onlyContract(CONTRACT_NAME_GAMEMANAGER)\n        // onlyExistentGame(_gameId)\n    {\n\n        address topBettor = getTopBettor(_gameId, _supportedPlayer);\n        (uint256 bettorTotal,,,) = gmGetterDB.getSupporterInfo(_gameId, _account);\n        (uint256 topBettorEth,,,) = gmGetterDB.getSupporterInfo(_gameId, topBettor);\n        \n        if(topBettor != _account){\n            if (bettorTotal > topBettorEth){\n                //If topBettor is already the account, dont update\n                gameByPlayer[_gameId][_supportedPlayer].topBettor = _account;\n                gameByPlayer[_gameId][_supportedPlayer].secondTopBettor = topBettor;\n            }\n            else {\n                address secondTopBettor = getSecondTopBettor(_gameId, _supportedPlayer);\n                (uint256 secondTopBettorEth,,,) = gmGetterDB.getSupporterInfo(_gameId, secondTopBettor);\n                if (bettorTotal > secondTopBettorEth && secondTopBettor != _account){\n                    gameByPlayer[_gameId][_supportedPlayer].secondTopBettor = _account;\n                }\n            }\n        }\n    }\n\n    function getOpponent(uint gameId, address player) public view returns(address){\n        (address playerBlack, address playerRed,,) = gmGetterDB.getGamePlayers(gameId);\n        if(playerBlack == player) return playerRed;\n        return playerBlack;\n    }\n\n    function getCorner(uint gameId, address player) public view returns(uint){\n        (address playerBlack, address playerRed,,) = gmGetterDB.getGamePlayers(gameId);\n        if(playerBlack == player) return 0;\n        if(playerRed == player) return 1;\n        return 2;\n    }\n\n    function calculateWinner\n    (\n        uint gameId, address playerBlack, address playerRed, uint random\n    )\n        external view\n        onlyContract(CONTRACT_NAME_GAMEMANAGER)\n        returns(address winner, address loser, uint pointsBlack, uint pointsRed)\n    {\n        pointsBlack = hitsResolve.calculateFinalPoints(gameId, playerBlack, random);\n        pointsRed = hitsResolve.calculateFinalPoints(gameId, playerRed, random);\n\n        //Added to make game more balanced\n        pointsBlack = (gmGetterDB.getTotalBet(gameId, playerBlack)).mul(pointsBlack);\n        pointsRed = (gmGetterDB.getTotalBet(gameId, playerRed)).mul(pointsRed);\n\n        if (pointsBlack > pointsRed)\n        {\n            winner = playerBlack;\n            loser = playerRed;\n        }\n        else if(pointsRed > pointsBlack)\n        {\n            winner = playerRed;\n            loser = playerBlack;\n        }\n        //If there is a tie in point, define by total eth bet\n        else\n        {\n            (,,,,uint[2] memory ethByCorner,,) = gmGetterDB.getHoneypotInfo(gameId);\n            if(ethByCorner[0] > ethByCorner[1] ){\n                winner = playerBlack;\n                loser = playerRed;\n            }\n            else{\n                winner = playerRed;\n                loser = playerBlack;\n            }\n        }\n    }\n\n    /**\n    * @dev This function is called if a game gets cancelled, so as to start a new game.\n    */\n    function startAfterCancel()\n    external\n    onlyContract(CONTRACT_NAME_GAMEMANAGER)\n    {\n        startGameAndCalculateEpoch(gameVarAndFee.getGameTimes().add(now));\n    }\n\n    /**\n    * @dev This function is called from manualMatching, to check if game can be scheduled.\n    */\n    function startManually(uint256 gameStartTime)\n    external\n    onlyContract(CONTRACT_NAME_GAMECREATION)\n    returns(bool)\n    {\n        uint256 activeEpochId = timeFrame.getActiveEpochID();\n        uint256 currentEpochEndTime = timeFrame._epochEndTime(activeEpochId);\n        return checkIfGameCanStart(gameStartTime, currentEpochEndTime);\n    }\n\n    function checkGame()\n    external\n    onlyContract(CONTRACT_NAME_SCHEDULER)\n    returns(bool)\n    {\n        uint256 activeEpochId = timeFrame.getActiveEpochID();\n        uint256 currentEpochEndTime = timeFrame._epochEndTime(activeEpochId);\n        return checkIfGameCanStart(gameVarAndFee.getGameTimes().add(now), currentEpochEndTime);\n    }\n\n    function checkIfGameCanStart(uint256 gameStartTime, uint256 currentEpochEndTime)\n    internal\n    returns(bool)\n    {\n        //If less than \"some time\" from epoch's ending or anotherGame is scheduled, cannot create.\n        if(currentEpochEndTime.sub(timeFrame.REST_DAY().add(timeFrame.SIX_HOURS())) <= gameStartTime || gameScheduled)\n            return false;\n\n        gameScheduled = true;\n        return true;\n    }\n\n    function startGameAndCalculateEpoch(uint256 gameStartTime)\n    internal\n    {\n        uint256 activeEpochId = timeFrame.getActiveEpochID();\n        uint256 currentEpochEndTime = timeFrame._epochEndTime(activeEpochId);\n        gameScheduled = false;\n\n        if(checkIfGameCanStart(gameVarAndFee.getGameTimes().add(now), currentEpochEndTime))\n            gameScheduled = scheduler.startGame();\n        else {\n            uint256 delay;\n            if(now > currentEpochEndTime.sub(timeFrame.REST_DAY()))\n                delay = now.sub(currentEpochEndTime.sub(timeFrame.REST_DAY()));\n\n            CronJob cron = CronJob(proxy.getContract(CONTRACT_NAME_CRONJOB));\n            cron.addCronJob(\n                CONTRACT_NAME_GAMESTORE,\n                currentEpochEndTime.add(delay),\n                abi.encodeWithSignature(\"createGameAndEpoch()\")\n            );\n\n            WithdrawPool(proxy.getContract(CONTRACT_NAME_WITHDRAW_POOL)).setInterestToEarningsTracker(\n                activeEpochId,\n                EndowmentDB(proxy.getContract(CONTRACT_NAME_ENDOWMENT_DB)).checkTotalForEpoch(activeEpochId)\n            );\n        }\n    }\n\n    /**\n    * @dev added to cronjob : Creates new Game and New Epoch\n    */\n    function createGameAndEpoch()\n    external\n    onlyContract(CONTRACT_NAME_CRONJOB)\n    {\n        timeFrame.setNewEpoch();\n        gameScheduled = scheduler.startGame();\n        WithdrawPool(proxy.getContract(CONTRACT_NAME_WITHDRAW_POOL)).dissolveOldCreateNew();\n    }\n\n    function checkPerformanceHelper(uint gameId, uint gameEndTime) external view returns(bool){\n        //each time 1 minute before game ends\n        uint performanceTimeCheck = gameVarAndFee.getPerformanceTimeCheck();\n        \n        if(gameEndTime.sub(performanceTimeCheck) <= now) {\n            //get initial jackpot, need endowment to send this when creating honeypot\n            (,,uint initialEth, uint currentJackpotEth,,,) = gmGetterDB.getHoneypotInfo(gameId);\n\n            if(currentJackpotEth < initialEth.mul(10)) return true;\n            return false;\n        }\n    }\n}",
  "sourcePath": "/Users/ziweizhang/Desktop/rinkeby3/contracts/contracts/modules/gamemanager/GameStore.sol",
  "compiler": {
    "name": "solc",
    "version": "0.5.17+commit.d19bba13.Emscripten.clang"
  },
  "schemaVersion": "3.0.23",
  "updatedAt": "2020-05-19T00:12:24.746Z",
  "devdoc": {
    "methods": {
      "createGameAndEpoch()": {
        "details": "added to cronjob : Creates new Game and New Epoch"
      },
      "startAfterCancel()": {
        "details": "This function is called if a game gets cancelled, so as to start a new game."
      },
      "startManually(uint256)": {
        "details": "This function is called from manualMatching, to check if game can be scheduled."
      }
    }
  },
  "userdoc": {
    "methods": {
      "setProxy(address)": {
        "notice": "Set/update address of Proxy contract"
      }
    }
  }
}