{
  "contractName": "GameVarAndFee",
  "abi": [
    {
      "inputs": [
        {
          "internalType": "contract GenericDB",
          "name": "_genericDB",
          "type": "address"
        },
        {
          "internalType": "contract Medianizer",
          "name": "_medianizer",
          "type": "address"
        }
      ],
      "payable": false,
      "stateMutability": "nonpayable",
      "type": "constructor"
    },
    {
      "constant": true,
      "inputs": [],
      "name": "genericDB",
      "outputs": [
        {
          "internalType": "contract GenericDB",
          "name": "",
          "type": "address"
        }
      ],
      "payable": false,
      "stateMutability": "view",
      "type": "function"
    },
    {
      "constant": true,
      "inputs": [],
      "name": "owner",
      "outputs": [
        {
          "internalType": "address payable",
          "name": "",
          "type": "address"
        }
      ],
      "payable": false,
      "stateMutability": "view",
      "type": "function"
    },
    {
      "constant": true,
      "inputs": [],
      "name": "proxy",
      "outputs": [
        {
          "internalType": "contract ProxyBase",
          "name": "",
          "type": "address"
        }
      ],
      "payable": false,
      "stateMutability": "view",
      "type": "function"
    },
    {
      "constant": false,
      "inputs": [
        {
          "internalType": "contract ProxyBase",
          "name": "_proxy",
          "type": "address"
        }
      ],
      "name": "setProxy",
      "outputs": [],
      "payable": false,
      "stateMutability": "nonpayable",
      "type": "function"
    },
    {
      "constant": false,
      "inputs": [
        {
          "internalType": "address payable",
          "name": "newOwner",
          "type": "address"
        }
      ],
      "name": "transferOwnership",
      "outputs": [],
      "payable": false,
      "stateMutability": "nonpayable",
      "type": "function"
    },
    {
      "constant": false,
      "inputs": [
        {
          "internalType": "contract Medianizer",
          "name": "_medianizer",
          "type": "address"
        }
      ],
      "name": "setMedianizer",
      "outputs": [],
      "payable": false,
      "stateMutability": "nonpayable",
      "type": "function"
    },
    {
      "constant": false,
      "inputs": [
        {
          "internalType": "contract GenericDB",
          "name": "_genericDB",
          "type": "address"
        }
      ],
      "name": "setGenericDB",
      "outputs": [],
      "payable": false,
      "stateMutability": "nonpayable",
      "type": "function"
    },
    {
      "constant": false,
      "inputs": [
        {
          "internalType": "bytes32[]",
          "name": "names",
          "type": "bytes32[]"
        },
        {
          "internalType": "uint256[]",
          "name": "values",
          "type": "uint256[]"
        }
      ],
      "name": "setMultipleValues",
      "outputs": [],
      "payable": false,
      "stateMutability": "nonpayable",
      "type": "function"
    },
    {
      "constant": false,
      "inputs": [
        {
          "internalType": "string",
          "name": "feeName",
          "type": "string"
        }
      ],
      "name": "setPlatformFeeInDai",
      "outputs": [],
      "payable": false,
      "stateMutability": "nonpayable",
      "type": "function"
    },
    {
      "constant": true,
      "inputs": [],
      "name": "getEthUsdPrice",
      "outputs": [
        {
          "internalType": "uint256",
          "name": "",
          "type": "uint256"
        }
      ],
      "payable": false,
      "stateMutability": "view",
      "type": "function"
    },
    {
      "constant": true,
      "inputs": [
        {
          "internalType": "uint256",
          "name": "_ethAmount",
          "type": "uint256"
        }
      ],
      "name": "convertEthToDai",
      "outputs": [
        {
          "internalType": "uint256",
          "name": "",
          "type": "uint256"
        }
      ],
      "payable": false,
      "stateMutability": "view",
      "type": "function"
    },
    {
      "constant": true,
      "inputs": [
        {
          "internalType": "uint256",
          "name": "_daiAmount",
          "type": "uint256"
        }
      ],
      "name": "convertDaiToEth",
      "outputs": [
        {
          "internalType": "uint256",
          "name": "",
          "type": "uint256"
        }
      ],
      "payable": false,
      "stateMutability": "view",
      "type": "function"
    },
    {
      "constant": true,
      "inputs": [
        {
          "internalType": "uint256",
          "name": "_ktyAmount",
          "type": "uint256"
        }
      ],
      "name": "convertKtyToEth",
      "outputs": [
        {
          "internalType": "uint256",
          "name": "",
          "type": "uint256"
        }
      ],
      "payable": false,
      "stateMutability": "view",
      "type": "function"
    },
    {
      "constant": true,
      "inputs": [
        {
          "internalType": "uint256",
          "name": "_ethAmount",
          "type": "uint256"
        }
      ],
      "name": "convertEthToKty",
      "outputs": [
        {
          "internalType": "uint256",
          "name": "",
          "type": "uint256"
        }
      ],
      "payable": false,
      "stateMutability": "view",
      "type": "function"
    },
    {
      "constant": true,
      "inputs": [],
      "name": "getRequiredNumberMatches",
      "outputs": [
        {
          "internalType": "uint256",
          "name": "",
          "type": "uint256"
        }
      ],
      "payable": false,
      "stateMutability": "view",
      "type": "function"
    },
    {
      "constant": true,
      "inputs": [],
      "name": "getGamePrestart",
      "outputs": [
        {
          "internalType": "uint256",
          "name": "",
          "type": "uint256"
        }
      ],
      "payable": false,
      "stateMutability": "view",
      "type": "function"
    },
    {
      "constant": true,
      "inputs": [],
      "name": "getGameDuration",
      "outputs": [
        {
          "internalType": "uint256",
          "name": "",
          "type": "uint256"
        }
      ],
      "payable": false,
      "stateMutability": "view",
      "type": "function"
    },
    {
      "constant": true,
      "inputs": [],
      "name": "getKittieExpiry",
      "outputs": [
        {
          "internalType": "uint256",
          "name": "",
          "type": "uint256"
        }
      ],
      "payable": false,
      "stateMutability": "view",
      "type": "function"
    },
    {
      "constant": true,
      "inputs": [],
      "name": "getHoneypotExpiration",
      "outputs": [
        {
          "internalType": "uint256",
          "name": "",
          "type": "uint256"
        }
      ],
      "payable": false,
      "stateMutability": "view",
      "type": "function"
    },
    {
      "constant": true,
      "inputs": [],
      "name": "getPercentageHoneypotAllocationKTY",
      "outputs": [
        {
          "internalType": "uint256",
          "name": "",
          "type": "uint256"
        }
      ],
      "payable": false,
      "stateMutability": "view",
      "type": "function"
    },
    {
      "constant": true,
      "inputs": [],
      "name": "getEthPerGame",
      "outputs": [
        {
          "internalType": "uint256",
          "name": "",
          "type": "uint256"
        }
      ],
      "payable": false,
      "stateMutability": "view",
      "type": "function"
    },
    {
      "constant": true,
      "inputs": [],
      "name": "getGameTimes",
      "outputs": [
        {
          "internalType": "uint256",
          "name": "",
          "type": "uint256"
        }
      ],
      "payable": false,
      "stateMutability": "view",
      "type": "function"
    },
    {
      "constant": true,
      "inputs": [],
      "name": "getDistributionRates",
      "outputs": [
        {
          "internalType": "uint256[5]",
          "name": "rates",
          "type": "uint256[5]"
        }
      ],
      "payable": false,
      "stateMutability": "view",
      "type": "function"
    },
    {
      "constant": true,
      "inputs": [],
      "name": "getPercentageForPool",
      "outputs": [
        {
          "internalType": "uint256",
          "name": "",
          "type": "uint256"
        }
      ],
      "payable": false,
      "stateMutability": "view",
      "type": "function"
    },
    {
      "constant": true,
      "inputs": [],
      "name": "getPercentageForListingFee",
      "outputs": [
        {
          "internalType": "uint256",
          "name": "",
          "type": "uint256"
        }
      ],
      "payable": false,
      "stateMutability": "view",
      "type": "function"
    },
    {
      "constant": true,
      "inputs": [],
      "name": "getPercentageForTicketFee",
      "outputs": [
        {
          "internalType": "uint256",
          "name": "",
          "type": "uint256"
        }
      ],
      "payable": false,
      "stateMutability": "view",
      "type": "function"
    },
    {
      "constant": true,
      "inputs": [],
      "name": "getPercentageForBettingFee",
      "outputs": [
        {
          "internalType": "uint256",
          "name": "",
          "type": "uint256"
        }
      ],
      "payable": false,
      "stateMutability": "view",
      "type": "function"
    },
    {
      "constant": true,
      "inputs": [],
      "name": "getPercentageForKittieRedemptionFee",
      "outputs": [
        {
          "internalType": "uint256",
          "name": "",
          "type": "uint256"
        }
      ],
      "payable": false,
      "stateMutability": "view",
      "type": "function"
    },
    {
      "constant": true,
      "inputs": [],
      "name": "getUsdKTYPrice",
      "outputs": [
        {
          "internalType": "uint256",
          "name": "",
          "type": "uint256"
        }
      ],
      "payable": false,
      "stateMutability": "view",
      "type": "function"
    },
    {
      "constant": true,
      "inputs": [],
      "name": "getListingFee",
      "outputs": [
        {
          "internalType": "uint256",
          "name": "",
          "type": "uint256"
        },
        {
          "internalType": "uint256",
          "name": "",
          "type": "uint256"
        }
      ],
      "payable": false,
      "stateMutability": "view",
      "type": "function"
    },
    {
      "constant": true,
      "inputs": [],
      "name": "getMinimumContributors",
      "outputs": [
        {
          "internalType": "uint256",
          "name": "",
          "type": "uint256"
        }
      ],
      "payable": false,
      "stateMutability": "view",
      "type": "function"
    },
    {
      "constant": true,
      "inputs": [],
      "name": "getFinalizeRewards",
      "outputs": [
        {
          "internalType": "uint256",
          "name": "",
          "type": "uint256"
        }
      ],
      "payable": false,
      "stateMutability": "view",
      "type": "function"
    },
    {
      "constant": true,
      "inputs": [],
      "name": "getPerformanceTimeCheck",
      "outputs": [
        {
          "internalType": "uint256",
          "name": "",
          "type": "uint256"
        }
      ],
      "payable": false,
      "stateMutability": "view",
      "type": "function"
    },
    {
      "constant": true,
      "inputs": [],
      "name": "getTimeExtension",
      "outputs": [
        {
          "internalType": "uint256",
          "name": "",
          "type": "uint256"
        }
      ],
      "payable": false,
      "stateMutability": "view",
      "type": "function"
    },
    {
      "constant": true,
      "inputs": [],
      "name": "getRequiredKittieSacrificeNum",
      "outputs": [
        {
          "internalType": "uint256",
          "name": "",
          "type": "uint256"
        }
      ],
      "payable": false,
      "stateMutability": "view",
      "type": "function"
    },
    {
      "constant": true,
      "inputs": [],
      "name": "getPercentageforBurnEthie",
      "outputs": [
        {
          "internalType": "uint256",
          "name": "",
          "type": "uint256"
        }
      ],
      "payable": false,
      "stateMutability": "view",
      "type": "function"
    },
    {
      "constant": true,
      "inputs": [],
      "name": "getInterestEthie",
      "outputs": [
        {
          "internalType": "uint256",
          "name": "",
          "type": "uint256"
        }
      ],
      "payable": false,
      "stateMutability": "view",
      "type": "function"
    }
  ],
  "bytecode": "0x60806040523480156200001157600080fd5b50604051620061ae380380620061ae833981810160405260408110156200003757600080fd5b810190808051906020019092919080519060200190929190505050336000806101000a81548173ffffffffffffffffffffffffffffffffffffffff021916908373ffffffffffffffffffffffffffffffffffffffff160217905550620000a382620000bc60201b60201c565b620000b4816200015760201b60201c565b5050620001f2565b6000809054906101000a900473ffffffffffffffffffffffffffffffffffffffff1673ffffffffffffffffffffffffffffffffffffffff163373ffffffffffffffffffffffffffffffffffffffff16146200011357fe5b80600260006101000a81548173ffffffffffffffffffffffffffffffffffffffff021916908373ffffffffffffffffffffffffffffffffffffffff16021790555050565b6000809054906101000a900473ffffffffffffffffffffffffffffffffffffffff1673ffffffffffffffffffffffffffffffffffffffff163373ffffffffffffffffffffffffffffffffffffffff1614620001ae57fe5b80600360006101000a81548173ffffffffffffffffffffffffffffffffffffffff021916908373ffffffffffffffffffffffffffffffffffffffff16021790555050565b615fac80620002026000396000f3fe608060405234801561001057600080fd5b50600436106102275760003560e01c80639840060f11610130578063c09ab510116100b8578063f0e52c421161007c578063f0e52c4214610864578063f2fde38b14610882578063f45d8e08146108c6578063fa16b2bd146108e4578063ff22723a1461092657610227565b8063c09ab5101461077c578063c09d32af1461079a578063d693a989146107b8578063e7baf8dd146107d6578063ec5568891461081a57610227565b8063a38bcf20116100ff578063a38bcf20146106df578063aa7ed99b146106fd578063adeaa0441461071b578063ae1d48a814610739578063b8fe6abe1461075757610227565b80639840060f146106435780639c04b9cd14610661578063a0a8045e1461067f578063a2209a141461069d57610227565b80633e4c883f116101b357806378e9ae601161018257806378e9ae601461055b5780637a10546d146105795780638da5cb5b1461059757806394ec12fd146105e157806397107d6d146105ff57610227565b80633e4c883f146103e55780634afab8151461042b57806368afa5411461046f5780636baca86a1461048d57610227565b8063271bf40f116101fa578063271bf40f146103235780632c8558a8146103415780632e3c59711461035f57806333dbee171461037d5780633564e78c1461039b57610227565b8063115807231461022c57806311eec7cd1461024a5780631697e4b61461028c5780631b3f4cfc146102aa575b600080fd5b610234610968565b6040518082815260200191505060405180910390f35b6102766004803603602081101561026057600080fd5b8101908080359060200190929190505050610b8d565b6040518082815260200191505060405180910390f35b610294610d8a565b6040518082815260200191505060405180910390f35b610321600480360360208110156102c057600080fd5b81019080803590602001906401000000008111156102dd57600080fd5b8201836020820111156102ef57600080fd5b8035906020019184600183028401116401000000008311171561031157600080fd5b9091929391929390505050610faf565b005b61032b611407565b6040518082815260200191505060405180910390f35b61034961162c565b6040518082815260200191505060405180910390f35b610367611851565b6040518082815260200191505060405180910390f35b610385611a76565b6040518082815260200191505060405180910390f35b6103a3611c9b565b604051808273ffffffffffffffffffffffffffffffffffffffff1673ffffffffffffffffffffffffffffffffffffffff16815260200191505060405180910390f35b6103ed611cc1565b6040518082600560200280838360005b838110156104185780820151818401526020810190506103fd565b5050505090500191505060405180910390f35b61046d6004803603602081101561044157600080fd5b81019080803573ffffffffffffffffffffffffffffffffffffffff1690602001909291905050506127d0565b005b61047761286a565b6040518082815260200191505060405180910390f35b610559600480360360408110156104a357600080fd5b81019080803590602001906401000000008111156104c057600080fd5b8201836020820111156104d257600080fd5b803590602001918460208302840111640100000000831117156104f457600080fd5b90919293919293908035906020019064010000000081111561051557600080fd5b82018360208201111561052757600080fd5b8035906020019184602083028401116401000000008311171561054957600080fd5b9091929391929390505050612a8f565b005b610563612e17565b6040518082815260200191505060405180910390f35b61058161303c565b6040518082815260200191505060405180910390f35b61059f613261565b604051808273ffffffffffffffffffffffffffffffffffffffff1673ffffffffffffffffffffffffffffffffffffffff16815260200191505060405180910390f35b6105e9613286565b6040518082815260200191505060405180910390f35b6106416004803603602081101561061557600080fd5b81019080803573ffffffffffffffffffffffffffffffffffffffff1690602001909291905050506134ab565b005b61064b613545565b6040518082815260200191505060405180910390f35b61066961376a565b6040518082815260200191505060405180910390f35b61068761398f565b6040518082815260200191505060405180910390f35b6106c9600480360360208110156106b357600080fd5b81019080803590602001909291905050506139a0565b6040518082815260200191505060405180910390f35b6106e7613b9d565b6040518082815260200191505060405180910390f35b610705613dc2565b6040518082815260200191505060405180910390f35b610723613fe7565b6040518082815260200191505060405180910390f35b61074161420c565b6040518082815260200191505060405180910390f35b61075f614431565b604051808381526020018281526020019250505060405180910390f35b610784614855565b6040518082815260200191505060405180910390f35b6107a2614a7a565b6040518082815260200191505060405180910390f35b6107c0614c9f565b6040518082815260200191505060405180910390f35b610818600480360360208110156107ec57600080fd5b81019080803573ffffffffffffffffffffffffffffffffffffffff169060200190929190505050614ee5565b005b610822614f7f565b604051808273ffffffffffffffffffffffffffffffffffffffff1673ffffffffffffffffffffffffffffffffffffffff16815260200191505060405180910390f35b61086c614fa5565b6040518082815260200191505060405180910390f35b6108c46004803603602081101561089857600080fd5b81019080803573ffffffffffffffffffffffffffffffffffffffff1690602001909291905050506151ca565b005b6108ce615298565b6040518082815260200191505060405180910390f35b610910600480360360208110156108fa57600080fd5b81019080803590602001909291905050506154bd565b6040518082815260200191505060405180910390f35b6109526004803603602081101561093c57600080fd5b81019080803590602001909291905050506156ba565b6040518082815260200191505060405180910390f35b6000600260009054906101000a900473ffffffffffffffffffffffffffffffffffffffff1673ffffffffffffffffffffffffffffffffffffffff166308acb5566040518060400160405280600d81526020017f47616d65566172416e64466565000000000000000000000000000000000000008152506040518060400160405280601281526020017f47616d65566172416e644665655461626c6500000000000000000000000000008152506040516020018082805190602001908083835b60208310610a4a5780518252602082019150602081019050602083039250610a27565b6001836020036101000a038019825116818451168082178552505050505050905001807f70657263656e74616765466f724c697374696e67466565000000000000000000815250601701915050604051602081830303815290604052805190602001206040518363ffffffff1660e01b81526004018080602001838152602001828103825284818151815260200191508051906020019080838360005b83811015610b02578082015181840152602081019050610ae7565b50505050905090810190601f168015610b2f5780820380516001836020036101000a031916815260200191505b50935050505060206040518083038186803b158015610b4d57600080fd5b505afa158015610b61573d6000803e3d6000fd5b505050506040513d6020811015610b7757600080fd5b8101908080519060200190929190505050905090565b6000610d83670de0b6b3a7640000610d75600160009054906101000a900473ffffffffffffffffffffffffffffffffffffffff1673ffffffffffffffffffffffffffffffffffffffff1663358177736040518060400160405280600a81526020017f4b7479556e6973776170000000000000000000000000000000000000000000008152506040518263ffffffff1660e01b81526004018080602001828103825283818151815260200191508051906020019080838360005b83811015610c61578082015181840152602081019050610c46565b50505050905090810190601f168015610c8e5780820380516001836020036101000a031916815260200191505b509250505060206040518083038186803b158015610cab57600080fd5b505afa158015610cbf573d6000803e3d6000fd5b505050506040513d6020811015610cd557600080fd5b810190808051906020019092919050505073ffffffffffffffffffffffffffffffffffffffff1663bca05cd86040518163ffffffff1660e01b815260040160206040518083038186803b158015610d2b57600080fd5b505afa158015610d3f573d6000803e3d6000fd5b505050506040513d6020811015610d5557600080fd5b8101908080519060200190929190505050856158b790919063ffffffff16565b6158ee90919063ffffffff16565b9050919050565b6000600260009054906101000a900473ffffffffffffffffffffffffffffffffffffffff1673ffffffffffffffffffffffffffffffffffffffff166308acb5566040518060400160405280600d81526020017f47616d65566172416e64466565000000000000000000000000000000000000008152506040518060400160405280601281526020017f47616d65566172416e644665655461626c6500000000000000000000000000008152506040516020018082805190602001908083835b60208310610e6c5780518252602082019150602081019050602083039250610e49565b6001836020036101000a038019825116818451168082178552505050505050905001807f706572666f726d616e636554696d650000000000000000000000000000000000815250600f01915050604051602081830303815290604052805190602001206040518363ffffffff1660e01b81526004018080602001838152602001828103825284818151815260200191508051906020019080838360005b83811015610f24578082015181840152602081019050610f09565b50505050905090810190601f168015610f515780820380516001836020036101000a031916815260200191505b50935050505060206040518083038186803b158015610f6f57600080fd5b505afa158015610f83573d6000803e3d6000fd5b505050506040513d6020811015610f9957600080fd5b8101908080519060200190929190505050905090565b610fb7615907565b600073ffffffffffffffffffffffffffffffffffffffff163373ffffffffffffffffffffffffffffffffffffffff161415610fee57fe5b61102c6040518060400160405280600b81526020017f73757065725f61646d696e000000000000000000000000000000000000000000815250615a91565b61109e576040517f08c379a00000000000000000000000000000000000000000000000000000000081526004018080602001828103825260108152602001807f4f6e6c792073757065722061646d696e0000000000000000000000000000000081525060200191505060405180910390fd5b60006040518060400160405280601281526020017f47616d65566172416e644665655461626c65000000000000000000000000000081525083836040516020018084805190602001908083835b6020831061110e57805182526020820191506020810190506020830392506110eb565b6001836020036101000a0380198251168184511680821785525050505050509050018383808284378083019250505093505050506040516020818303038152906040528051906020012090506000600260009054906101000a900473ffffffffffffffffffffffffffffffffffffffff1673ffffffffffffffffffffffffffffffffffffffff166308acb5566040518060400160405280600d81526020017f47616d65566172416e6446656500000000000000000000000000000000000000815250846040518363ffffffff1660e01b81526004018080602001838152602001828103825284818151815260200191508051906020019080838360005b8381101561122657808201518184015260208101905061120b565b50505050905090810190601f1680156112535780820380516001836020036101000a031916815260200191505b50935050505060206040518083038186803b15801561127157600080fd5b505afa158015611285573d6000803e3d6000fd5b505050506040513d602081101561129b57600080fd5b8101908080519060200190929190505050905060006112b982610b8d565b905060006112c6826156ba565b9050600260009054906101000a900473ffffffffffffffffffffffffffffffffffffffff1673ffffffffffffffffffffffffffffffffffffffff16630214a37c6040518060400160405280600d81526020017f47616d65566172416e644665650000000000000000000000000000000000000081525086846040518463ffffffff1660e01b81526004018080602001848152602001838152602001828103825285818151815260200191508051906020019080838360005b8381101561139957808201518184015260208101905061137e565b50505050905090810190601f1680156113c65780820380516001836020036101000a031916815260200191505b50945050505050600060405180830381600087803b1580156113e757600080fd5b505af11580156113fb573d6000803e3d6000fd5b50505050505050505050565b6000600260009054906101000a900473ffffffffffffffffffffffffffffffffffffffff1673ffffffffffffffffffffffffffffffffffffffff166308acb5566040518060400160405280600d81526020017f47616d65566172416e64466565000000000000000000000000000000000000008152506040518060400160405280601281526020017f47616d65566172416e644665655461626c6500000000000000000000000000008152506040516020018082805190602001908083835b602083106114e957805182526020820191506020810190506020830392506114c6565b6001836020036101000a038019825116818451168082178552505050505050905001807f7573644b54595072696365000000000000000000000000000000000000000000815250600b01915050604051602081830303815290604052805190602001206040518363ffffffff1660e01b81526004018080602001838152602001828103825284818151815260200191508051906020019080838360005b838110156115a1578082015181840152602081019050611586565b50505050905090810190601f1680156115ce5780820380516001836020036101000a031916815260200191505b50935050505060206040518083038186803b1580156115ec57600080fd5b505afa158015611600573d6000803e3d6000fd5b505050506040513d602081101561161657600080fd5b8101908080519060200190929190505050905090565b6000600260009054906101000a900473ffffffffffffffffffffffffffffffffffffffff1673ffffffffffffffffffffffffffffffffffffffff166308acb5566040518060400160405280600d81526020017f47616d65566172416e64466565000000000000000000000000000000000000008152506040518060400160405280601281526020017f47616d65566172416e644665655461626c6500000000000000000000000000008152506040516020018082805190602001908083835b6020831061170e57805182526020820191506020810190506020830392506116eb565b6001836020036101000a038019825116818451168082178552505050505050905001807f72657175697265644e756d6265724d6174636865730000000000000000000000815250601501915050604051602081830303815290604052805190602001206040518363ffffffff1660e01b81526004018080602001838152602001828103825284818151815260200191508051906020019080838360005b838110156117c65780820151818401526020810190506117ab565b50505050905090810190601f1680156117f35780820380516001836020036101000a031916815260200191505b50935050505060206040518083038186803b15801561181157600080fd5b505afa158015611825573d6000803e3d6000fd5b505050506040513d602081101561183b57600080fd5b8101908080519060200190929190505050905090565b6000600260009054906101000a900473ffffffffffffffffffffffffffffffffffffffff1673ffffffffffffffffffffffffffffffffffffffff166308acb5566040518060400160405280600d81526020017f47616d65566172416e64466565000000000000000000000000000000000000008152506040518060400160405280601281526020017f47616d65566172416e644665655461626c6500000000000000000000000000008152506040516020018082805190602001908083835b602083106119335780518252602082019150602081019050602083039250611910565b6001836020036101000a038019825116818451168082178552505050505050905001807f72657175697265644b69747469655361637269666963654e756d000000000000815250601a01915050604051602081830303815290604052805190602001206040518363ffffffff1660e01b81526004018080602001838152602001828103825284818151815260200191508051906020019080838360005b838110156119eb5780820151818401526020810190506119d0565b50505050905090810190601f168015611a185780820380516001836020036101000a031916815260200191505b50935050505060206040518083038186803b158015611a3657600080fd5b505afa158015611a4a573d6000803e3d6000fd5b505050506040513d6020811015611a6057600080fd5b8101908080519060200190929190505050905090565b6000600260009054906101000a900473ffffffffffffffffffffffffffffffffffffffff1673ffffffffffffffffffffffffffffffffffffffff166308acb5566040518060400160405280600d81526020017f47616d65566172416e64466565000000000000000000000000000000000000008152506040518060400160405280601281526020017f47616d65566172416e644665655461626c6500000000000000000000000000008152506040516020018082805190602001908083835b60208310611b585780518252602082019150602081019050602083039250611b35565b6001836020036101000a038019825116818451168082178552505050505050905001807f686f6e6579706f7445787069726174696f6e0000000000000000000000000000815250601201915050604051602081830303815290604052805190602001206040518363ffffffff1660e01b81526004018080602001838152602001828103825284818151815260200191508051906020019080838360005b83811015611c10578082015181840152602081019050611bf5565b50505050905090810190601f168015611c3d5780820380516001836020036101000a031916815260200191505b50935050505060206040518083038186803b158015611c5b57600080fd5b505afa158015611c6f573d6000803e3d6000fd5b505050506040513d6020811015611c8557600080fd5b8101908080519060200190929190505050905090565b600260009054906101000a900473ffffffffffffffffffffffffffffffffffffffff1681565b611cc9615f55565b600260009054906101000a900473ffffffffffffffffffffffffffffffffffffffff1673ffffffffffffffffffffffffffffffffffffffff166308acb5566040518060400160405280600d81526020017f47616d65566172416e64466565000000000000000000000000000000000000008152506040518060400160405280601281526020017f47616d65566172416e644665655461626c6500000000000000000000000000008152506040516020018082805190602001908083835b60208310611da95780518252602082019150602081019050602083039250611d86565b6001836020036101000a038019825116818451168082178552505050505050905001807f77696e6e696e674b697474696500000000000000000000000000000000000000815250600d01915050604051602081830303815290604052805190602001206040518363ffffffff1660e01b81526004018080602001838152602001828103825284818151815260200191508051906020019080838360005b83811015611e61578082015181840152602081019050611e46565b50505050905090810190601f168015611e8e5780820380516001836020036101000a031916815260200191505b50935050505060206040518083038186803b158015611eac57600080fd5b505afa158015611ec0573d6000803e3d6000fd5b505050506040513d6020811015611ed657600080fd5b810190808051906020019092919050505081600060058110611ef457fe5b602002018181525050600260009054906101000a900473ffffffffffffffffffffffffffffffffffffffff1673ffffffffffffffffffffffffffffffffffffffff166308acb5566040518060400160405280600d81526020017f47616d65566172416e64466565000000000000000000000000000000000000008152506040518060400160405280601281526020017f47616d65566172416e644665655461626c6500000000000000000000000000008152506040516020018082805190602001908083835b60208310611fdd5780518252602082019150602081019050602083039250611fba565b6001836020036101000a038019825116818451168082178552505050505050905001807f746f70426574746f720000000000000000000000000000000000000000000000815250600901915050604051602081830303815290604052805190602001206040518363ffffffff1660e01b81526004018080602001838152602001828103825284818151815260200191508051906020019080838360005b8381101561209557808201518184015260208101905061207a565b50505050905090810190601f1680156120c25780820380516001836020036101000a031916815260200191505b50935050505060206040518083038186803b1580156120e057600080fd5b505afa1580156120f4573d6000803e3d6000fd5b505050506040513d602081101561210a57600080fd5b81019080805190602001909291905050508160016005811061212857fe5b602002018181525050600260009054906101000a900473ffffffffffffffffffffffffffffffffffffffff1673ffffffffffffffffffffffffffffffffffffffff166308acb5566040518060400160405280600d81526020017f47616d65566172416e64466565000000000000000000000000000000000000008152506040518060400160405280601281526020017f47616d65566172416e644665655461626c6500000000000000000000000000008152506040516020018082805190602001908083835b6020831061221157805182526020820191506020810190506020830392506121ee565b6001836020036101000a038019825116818451168082178552505050505050905001807f7365636f6e6452756e6e65725570000000000000000000000000000000000000815250600e01915050604051602081830303815290604052805190602001206040518363ffffffff1660e01b81526004018080602001838152602001828103825284818151815260200191508051906020019080838360005b838110156122c95780820151818401526020810190506122ae565b50505050905090810190601f1680156122f65780820380516001836020036101000a031916815260200191505b50935050505060206040518083038186803b15801561231457600080fd5b505afa158015612328573d6000803e3d6000fd5b505050506040513d602081101561233e57600080fd5b81019080805190602001909291905050508160026005811061235c57fe5b602002018181525050600260009054906101000a900473ffffffffffffffffffffffffffffffffffffffff1673ffffffffffffffffffffffffffffffffffffffff166308acb5566040518060400160405280600d81526020017f47616d65566172416e64466565000000000000000000000000000000000000008152506040518060400160405280601281526020017f47616d65566172416e644665655461626c6500000000000000000000000000008152506040516020018082805190602001908083835b602083106124455780518252602082019150602081019050602083039250612422565b6001836020036101000a038019825116818451168082178552505050505050905001807f6f74686572426574746f72730000000000000000000000000000000000000000815250600c01915050604051602081830303815290604052805190602001206040518363ffffffff1660e01b81526004018080602001838152602001828103825284818151815260200191508051906020019080838360005b838110156124fd5780820151818401526020810190506124e2565b50505050905090810190601f16801561252a5780820380516001836020036101000a031916815260200191505b50935050505060206040518083038186803b15801561254857600080fd5b505afa15801561255c573d6000803e3d6000fd5b505050506040513d602081101561257257600080fd5b81019080805190602001909291905050508160036005811061259057fe5b602002018181525050600260009054906101000a900473ffffffffffffffffffffffffffffffffffffffff1673ffffffffffffffffffffffffffffffffffffffff166308acb5566040518060400160405280600d81526020017f47616d65566172416e64466565000000000000000000000000000000000000008152506040518060400160405280601281526020017f47616d65566172416e644665655461626c6500000000000000000000000000008152506040516020018082805190602001908083835b602083106126795780518252602082019150602081019050602083039250612656565b6001836020036101000a038019825116818451168082178552505050505050905001807f656e646f776e6d656e7400000000000000000000000000000000000000000000815250600a01915050604051602081830303815290604052805190602001206040518363ffffffff1660e01b81526004018080602001838152602001828103825284818151815260200191508051906020019080838360005b83811015612731578082015181840152602081019050612716565b50505050905090810190601f16801561275e5780820380516001836020036101000a031916815260200191505b50935050505060206040518083038186803b15801561277c57600080fd5b505afa158015612790573d6000803e3d6000fd5b505050506040513d60208110156127a657600080fd5b8101908080519060200190929190505050816004600581106127c457fe5b60200201818152505090565b6000809054906101000a900473ffffffffffffffffffffffffffffffffffffffff1673ffffffffffffffffffffffffffffffffffffffff163373ffffffffffffffffffffffffffffffffffffffff161461282657fe5b80600260006101000a81548173ffffffffffffffffffffffffffffffffffffffff021916908373ffffffffffffffffffffffffffffffffffffffff16021790555050565b6000600260009054906101000a900473ffffffffffffffffffffffffffffffffffffffff1673ffffffffffffffffffffffffffffffffffffffff166308acb5566040518060400160405280600d81526020017f47616d65566172416e64466565000000000000000000000000000000000000008152506040518060400160405280601281526020017f47616d65566172416e644665655461626c6500000000000000000000000000008152506040516020018082805190602001908083835b6020831061294c5780518252602082019150602081019050602083039250612929565b6001836020036101000a038019825116818451168082178552505050505050905001807f6d696e696d756d436f6e7472696275746f727300000000000000000000000000815250601301915050604051602081830303815290604052805190602001206040518363ffffffff1660e01b81526004018080602001838152602001828103825284818151815260200191508051906020019080838360005b83811015612a045780820151818401526020810190506129e9565b50505050905090810190601f168015612a315780820380516001836020036101000a031916815260200191505b50935050505060206040518083038186803b158015612a4f57600080fd5b505afa158015612a63573d6000803e3d6000fd5b505050506040513d6020811015612a7957600080fd5b8101908080519060200190929190505050905090565b612a97615907565b600073ffffffffffffffffffffffffffffffffffffffff163373ffffffffffffffffffffffffffffffffffffffff161415612ace57fe5b612b0c6040518060400160405280600b81526020017f73757065725f61646d696e000000000000000000000000000000000000000000815250615a91565b612b7e576040517f08c379a00000000000000000000000000000000000000000000000000000000081526004018080602001828103825260108152602001807f4f6e6c792073757065722061646d696e0000000000000000000000000000000081525060200191505060405180910390fd5b818190508484905014612b9057600080fd5b600080600090505b85859050811015612e0f576040518060400160405280601281526020017f47616d65566172416e644665655461626c650000000000000000000000000000815250612bf4878784818110612be857fe5b90506020020135615d0d565b6040516020018083805190602001908083835b60208310612c2a5780518252602082019150602081019050602083039250612c07565b6001836020036101000a03801982511681845116808217855250505050505090500182805190602001908083835b60208310612c7b5780518252602082019150602081019050602083039250612c58565b6001836020036101000a03801982511681845116808217855250505050505090500192505050604051602081830303815290604052805190602001209150600260009054906101000a900473ffffffffffffffffffffffffffffffffffffffff1673ffffffffffffffffffffffffffffffffffffffff16630214a37c6040518060400160405280600d81526020017f47616d65566172416e644665650000000000000000000000000000000000000081525084878786818110612d3a57fe5b905060200201356040518463ffffffff1660e01b81526004018080602001848152602001838152602001828103825285818151815260200191508051906020019080838360005b83811015612d9c578082015181840152602081019050612d81565b50505050905090810190601f168015612dc95780820380516001836020036101000a031916815260200191505b50945050505050600060405180830381600087803b158015612dea57600080fd5b505af1158015612dfe573d6000803e3d6000fd5b505050508080600101915050612b98565b505050505050565b6000600260009054906101000a900473ffffffffffffffffffffffffffffffffffffffff1673ffffffffffffffffffffffffffffffffffffffff166308acb5566040518060400160405280600d81526020017f47616d65566172416e64466565000000000000000000000000000000000000008152506040518060400160405280601281526020017f47616d65566172416e644665655461626c6500000000000000000000000000008152506040516020018082805190602001908083835b60208310612ef95780518252602082019150602081019050602083039250612ed6565b6001836020036101000a038019825116818451168082178552505050505050905001807f67616d654475726174696f6e0000000000000000000000000000000000000000815250600c01915050604051602081830303815290604052805190602001206040518363ffffffff1660e01b81526004018080602001838152602001828103825284818151815260200191508051906020019080838360005b83811015612fb1578082015181840152602081019050612f96565b50505050905090810190601f168015612fde5780820380516001836020036101000a031916815260200191505b50935050505060206040518083038186803b158015612ffc57600080fd5b505afa158015613010573d6000803e3d6000fd5b505050506040513d602081101561302657600080fd5b8101908080519060200190929190505050905090565b6000600260009054906101000a900473ffffffffffffffffffffffffffffffffffffffff1673ffffffffffffffffffffffffffffffffffffffff166308acb5566040518060400160405280600d81526020017f47616d65566172416e64466565000000000000000000000000000000000000008152506040518060400160405280601281526020017f47616d65566172416e644665655461626c6500000000000000000000000000008152506040516020018082805190602001908083835b6020831061311e57805182526020820191506020810190506020830392506130fb565b6001836020036101000a038019825116818451168082178552505050505050905001807f70657263656e74616765466f724b6974746965526564656d7074696f6e466565815250602001915050604051602081830303815290604052805190602001206040518363ffffffff1660e01b81526004018080602001838152602001828103825284818151815260200191508051906020019080838360005b838110156131d65780820151818401526020810190506131bb565b50505050905090810190601f1680156132035780820380516001836020036101000a031916815260200191505b50935050505060206040518083038186803b15801561322157600080fd5b505afa158015613235573d6000803e3d6000fd5b505050506040513d602081101561324b57600080fd5b8101908080519060200190929190505050905090565b6000809054906101000a900473ffffffffffffffffffffffffffffffffffffffff1681565b6000600260009054906101000a900473ffffffffffffffffffffffffffffffffffffffff1673ffffffffffffffffffffffffffffffffffffffff166308acb5566040518060400160405280600d81526020017f47616d65566172416e64466565000000000000000000000000000000000000008152506040518060400160405280601281526020017f47616d65566172416e644665655461626c6500000000000000000000000000008152506040516020018082805190602001908083835b602083106133685780518252602082019150602081019050602083039250613345565b6001836020036101000a038019825116818451168082178552505050505050905001807f65746850657247616d6500000000000000000000000000000000000000000000815250600a01915050604051602081830303815290604052805190602001206040518363ffffffff1660e01b81526004018080602001838152602001828103825284818151815260200191508051906020019080838360005b83811015613420578082015181840152602081019050613405565b50505050905090810190601f16801561344d5780820380516001836020036101000a031916815260200191505b50935050505060206040518083038186803b15801561346b57600080fd5b505afa15801561347f573d6000803e3d6000fd5b505050506040513d602081101561349557600080fd5b8101908080519060200190929190505050905090565b6000809054906101000a900473ffffffffffffffffffffffffffffffffffffffff1673ffffffffffffffffffffffffffffffffffffffff163373ffffffffffffffffffffffffffffffffffffffff161461350157fe5b80600160006101000a81548173ffffffffffffffffffffffffffffffffffffffff021916908373ffffffffffffffffffffffffffffffffffffffff16021790555050565b6000600260009054906101000a900473ffffffffffffffffffffffffffffffffffffffff1673ffffffffffffffffffffffffffffffffffffffff166308acb5566040518060400160405280600d81526020017f47616d65566172416e64466565000000000000000000000000000000000000008152506040518060400160405280601281526020017f47616d65566172416e644665655461626c6500000000000000000000000000008152506040516020018082805190602001908083835b602083106136275780518252602082019150602081019050602083039250613604565b6001836020036101000a038019825116818451168082178552505050505050905001807f6b697474696548656c6c45787069726174696f6e000000000000000000000000815250601401915050604051602081830303815290604052805190602001206040518363ffffffff1660e01b81526004018080602001838152602001828103825284818151815260200191508051906020019080838360005b838110156136df5780820151818401526020810190506136c4565b50505050905090810190601f16801561370c5780820380516001836020036101000a031916815260200191505b50935050505060206040518083038186803b15801561372a57600080fd5b505afa15801561373e573d6000803e3d6000fd5b505050506040513d602081101561375457600080fd5b8101908080519060200190929190505050905090565b6000600260009054906101000a900473ffffffffffffffffffffffffffffffffffffffff1673ffffffffffffffffffffffffffffffffffffffff166308acb5566040518060400160405280600d81526020017f47616d65566172416e64466565000000000000000000000000000000000000008152506040518060400160405280601281526020017f47616d65566172416e644665655461626c6500000000000000000000000000008152506040516020018082805190602001908083835b6020831061384c5780518252602082019150602081019050602083039250613829565b6001836020036101000a038019825116818451168082178552505050505050905001807f70657263656e74616765466f725469636b657446656500000000000000000000815250601601915050604051602081830303815290604052805190602001206040518363ffffffff1660e01b81526004018080602001838152602001828103825284818151815260200191508051906020019080838360005b838110156139045780820151818401526020810190506138e9565b50505050905090810190601f1680156139315780820380516001836020036101000a031916815260200191505b50935050505060206040518083038186803b15801561394f57600080fd5b505afa158015613963573d6000803e3d6000fd5b505050506040513d602081101561397957600080fd5b8101908080519060200190929190505050905090565b6000680b49bcb0036fa6c000905090565b6000613b96670de0b6b3a7640000613b88600160009054906101000a900473ffffffffffffffffffffffffffffffffffffffff1673ffffffffffffffffffffffffffffffffffffffff1663358177736040518060400160405280600a81526020017f4b7479556e6973776170000000000000000000000000000000000000000000008152506040518263ffffffff1660e01b81526004018080602001828103825283818151815260200191508051906020019080838360005b83811015613a74578082015181840152602081019050613a59565b50505050905090810190601f168015613aa15780820380516001836020036101000a031916815260200191505b509250505060206040518083038186803b158015613abe57600080fd5b505afa158015613ad2573d6000803e3d6000fd5b505050506040513d6020811015613ae857600080fd5b810190808051906020019092919050505073ffffffffffffffffffffffffffffffffffffffff1663fed1d17f6040518163ffffffff1660e01b815260040160206040518083038186803b158015613b3e57600080fd5b505afa158015613b52573d6000803e3d6000fd5b505050506040513d6020811015613b6857600080fd5b8101908080519060200190929190505050856158b790919063ffffffff16565b6158ee90919063ffffffff16565b9050919050565b6000600260009054906101000a900473ffffffffffffffffffffffffffffffffffffffff1673ffffffffffffffffffffffffffffffffffffffff166308acb5566040518060400160405280600d81526020017f47616d65566172416e64466565000000000000000000000000000000000000008152506040518060400160405280601281526020017f47616d65566172416e644665655461626c6500000000000000000000000000008152506040516020018082805190602001908083835b60208310613c7f5780518252602082019150602081019050602083039250613c5c565b6001836020036101000a038019825116818451168082178552505050505050905001807f67616d6554696d65730000000000000000000000000000000000000000000000815250600901915050604051602081830303815290604052805190602001206040518363ffffffff1660e01b81526004018080602001838152602001828103825284818151815260200191508051906020019080838360005b83811015613d37578082015181840152602081019050613d1c565b50505050905090810190601f168015613d645780820380516001836020036101000a031916815260200191505b50935050505060206040518083038186803b158015613d8257600080fd5b505afa158015613d96573d6000803e3d6000fd5b505050506040513d6020811015613dac57600080fd5b8101908080519060200190929190505050905090565b6000600260009054906101000a900473ffffffffffffffffffffffffffffffffffffffff1673ffffffffffffffffffffffffffffffffffffffff166308acb5566040518060400160405280600d81526020017f47616d65566172416e64466565000000000000000000000000000000000000008152506040518060400160405280601281526020017f47616d65566172416e644665655461626c6500000000000000000000000000008152506040516020018082805190602001908083835b60208310613ea45780518252602082019150602081019050602083039250613e81565b6001836020036101000a038019825116818451168082178552505050505050905001807f70657263656e74616765466f72506f6f6c000000000000000000000000000000815250601101915050604051602081830303815290604052805190602001206040518363ffffffff1660e01b81526004018080602001838152602001828103825284818151815260200191508051906020019080838360005b83811015613f5c578082015181840152602081019050613f41565b50505050905090810190601f168015613f895780820380516001836020036101000a031916815260200191505b50935050505060206040518083038186803b158015613fa757600080fd5b505afa158015613fbb573d6000803e3d6000fd5b505050506040513d6020811015613fd157600080fd5b8101908080519060200190929190505050905090565b6000600260009054906101000a900473ffffffffffffffffffffffffffffffffffffffff1673ffffffffffffffffffffffffffffffffffffffff166308acb5566040518060400160405280600d81526020017f47616d65566172416e64466565000000000000000000000000000000000000008152506040518060400160405280601281526020017f47616d65566172416e644665655461626c6500000000000000000000000000008152506040516020018082805190602001908083835b602083106140c957805182526020820191506020810190506020830392506140a6565b6001836020036101000a038019825116818451168082178552505050505050905001807f696e746572657374457468696500000000000000000000000000000000000000815250600d01915050604051602081830303815290604052805190602001206040518363ffffffff1660e01b81526004018080602001838152602001828103825284818151815260200191508051906020019080838360005b83811015614181578082015181840152602081019050614166565b50505050905090810190601f1680156141ae5780820380516001836020036101000a031916815260200191505b50935050505060206040518083038186803b1580156141cc57600080fd5b505afa1580156141e0573d6000803e3d6000fd5b505050506040513d60208110156141f657600080fd5b8101908080519060200190929190505050905090565b6000600260009054906101000a900473ffffffffffffffffffffffffffffffffffffffff1673ffffffffffffffffffffffffffffffffffffffff166308acb5566040518060400160405280600d81526020017f47616d65566172416e64466565000000000000000000000000000000000000008152506040518060400160405280601281526020017f47616d65566172416e644665655461626c6500000000000000000000000000008152506040516020018082805190602001908083835b602083106142ee57805182526020820191506020810190506020830392506142cb565b6001836020036101000a038019825116818451168082178552505050505050905001807f74696d65457874656e73696f6e00000000000000000000000000000000000000815250600d01915050604051602081830303815290604052805190602001206040518363ffffffff1660e01b81526004018080602001838152602001828103825284818151815260200191508051906020019080838360005b838110156143a657808201518184015260208101905061438b565b50505050905090810190601f1680156143d35780820380516001836020036101000a031916815260200191505b50935050505060206040518083038186803b1580156143f157600080fd5b505afa158015614405573d6000803e3d6000fd5b505050506040513d602081101561441b57600080fd5b8101908080519060200190929190505050905090565b6000806000600260009054906101000a900473ffffffffffffffffffffffffffffffffffffffff1673ffffffffffffffffffffffffffffffffffffffff166308acb5566040518060400160405280600d81526020017f47616d65566172416e64466565000000000000000000000000000000000000008152506040518060400160405280601281526020017f47616d65566172416e644665655461626c6500000000000000000000000000008152506040516020018082805190602001908083835b6020831061451657805182526020820191506020810190506020830392506144f3565b6001836020036101000a038019825116818451168082178552505050505050905001807f6c697374696e6746656500000000000000000000000000000000000000000000815250600a01915050604051602081830303815290604052805190602001206040518363ffffffff1660e01b81526004018080602001838152602001828103825284818151815260200191508051906020019080838360005b838110156145ce5780820151818401526020810190506145b3565b50505050905090810190601f1680156145fb5780820380516001836020036101000a031916815260200191505b50935050505060206040518083038186803b15801561461957600080fd5b505afa15801561462d573d6000803e3d6000fd5b505050506040513d602081101561464357600080fd5b810190808051906020019092919050505090506000614661826139a0565b9050600061466e826154bd565b90506000600160009054906101000a900473ffffffffffffffffffffffffffffffffffffffff1673ffffffffffffffffffffffffffffffffffffffff1663358177736040518060400160405280600a81526020017f4b7479556e6973776170000000000000000000000000000000000000000000008152506040518263ffffffff1660e01b81526004018080602001828103825283818151815260200191508051906020019080838360005b8381101561473557808201518184015260208101905061471a565b50505050905090810190601f1680156147625780820380516001836020036101000a031916815260200191505b509250505060206040518083038186803b15801561477f57600080fd5b505afa158015614793573d6000803e3d6000fd5b505050506040513d60208110156147a957600080fd5b810190808051906020019092919050505073ffffffffffffffffffffffffffffffffffffffff1663557b3400836040518263ffffffff1660e01b81526004018082815260200191505060206040518083038186803b15801561480a57600080fd5b505afa15801561481e573d6000803e3d6000fd5b505050506040513d602081101561483457600080fd5b81019080805190602001909291905050509050808295509550505050509091565b6000600260009054906101000a900473ffffffffffffffffffffffffffffffffffffffff1673ffffffffffffffffffffffffffffffffffffffff166308acb5566040518060400160405280600d81526020017f47616d65566172416e64466565000000000000000000000000000000000000008152506040518060400160405280601281526020017f47616d65566172416e644665655461626c6500000000000000000000000000008152506040516020018082805190602001908083835b602083106149375780518252602082019150602081019050602083039250614914565b6001836020036101000a038019825116818451168082178552505050505050905001807f67616d6550726573746172740000000000000000000000000000000000000000815250600c01915050604051602081830303815290604052805190602001206040518363ffffffff1660e01b81526004018080602001838152602001828103825284818151815260200191508051906020019080838360005b838110156149ef5780820151818401526020810190506149d4565b50505050905090810190601f168015614a1c5780820380516001836020036101000a031916815260200191505b50935050505060206040518083038186803b158015614a3a57600080fd5b505afa158015614a4e573d6000803e3d6000fd5b505050506040513d6020811015614a6457600080fd5b8101908080519060200190929190505050905090565b6000600260009054906101000a900473ffffffffffffffffffffffffffffffffffffffff1673ffffffffffffffffffffffffffffffffffffffff166308acb5566040518060400160405280600d81526020017f47616d65566172416e64466565000000000000000000000000000000000000008152506040518060400160405280601281526020017f47616d65566172416e644665655461626c6500000000000000000000000000008152506040516020018082805190602001908083835b60208310614b5c5780518252602082019150602081019050602083039250614b39565b6001836020036101000a038019825116818451168082178552505050505050905001807f70657263656e74616765486f6e6579706f74416c6c6f636174696f6e4b545900815250601f01915050604051602081830303815290604052805190602001206040518363ffffffff1660e01b81526004018080602001838152602001828103825284818151815260200191508051906020019080838360005b83811015614c14578082015181840152602081019050614bf9565b50505050905090810190601f168015614c415780820380516001836020036101000a031916815260200191505b50935050505060206040518083038186803b158015614c5f57600080fd5b505afa158015614c73573d6000803e3d6000fd5b505050506040513d6020811015614c8957600080fd5b8101908080519060200190929190505050905090565b600080600260009054906101000a900473ffffffffffffffffffffffffffffffffffffffff1673ffffffffffffffffffffffffffffffffffffffff166308acb5566040518060400160405280600d81526020017f47616d65566172416e64466565000000000000000000000000000000000000008152506040518060400160405280601281526020017f47616d65566172416e644665655461626c6500000000000000000000000000008152506040516020018082805190602001908083835b60208310614d825780518252602082019150602081019050602083039250614d5f565b6001836020036101000a038019825116818451168082178552505050505050905001807f66696e616c697a65526577617264730000000000000000000000000000000000815250600f01915050604051602081830303815290604052805190602001206040518363ffffffff1660e01b81526004018080602001838152602001828103825284818151815260200191508051906020019080838360005b83811015614e3a578082015181840152602081019050614e1f565b50505050905090810190601f168015614e675780820380516001836020036101000a031916815260200191505b50935050505060206040518083038186803b158015614e8557600080fd5b505afa158015614e99573d6000803e3d6000fd5b505050506040513d6020811015614eaf57600080fd5b810190808051906020019092919050505090506000614ecd826139a0565b90506000614eda826154bd565b905080935050505090565b6000809054906101000a900473ffffffffffffffffffffffffffffffffffffffff1673ffffffffffffffffffffffffffffffffffffffff163373ffffffffffffffffffffffffffffffffffffffff1614614f3b57fe5b80600360006101000a81548173ffffffffffffffffffffffffffffffffffffffff021916908373ffffffffffffffffffffffffffffffffffffffff16021790555050565b600160009054906101000a900473ffffffffffffffffffffffffffffffffffffffff1681565b6000600260009054906101000a900473ffffffffffffffffffffffffffffffffffffffff1673ffffffffffffffffffffffffffffffffffffffff166308acb5566040518060400160405280600d81526020017f47616d65566172416e64466565000000000000000000000000000000000000008152506040518060400160405280601281526020017f47616d65566172416e644665655461626c6500000000000000000000000000008152506040516020018082805190602001908083835b602083106150875780518252602082019150602081019050602083039250615064565b6001836020036101000a038019825116818451168082178552505050505050905001807f70657263656e74616765466f7242657474696e67466565000000000000000000815250601701915050604051602081830303815290604052805190602001206040518363ffffffff1660e01b81526004018080602001838152602001828103825284818151815260200191508051906020019080838360005b8381101561513f578082015181840152602081019050615124565b50505050905090810190601f16801561516c5780820380516001836020036101000a031916815260200191505b50935050505060206040518083038186803b15801561518a57600080fd5b505afa15801561519e573d6000803e3d6000fd5b505050506040513d60208110156151b457600080fd5b8101908080519060200190929190505050905090565b6000809054906101000a900473ffffffffffffffffffffffffffffffffffffffff1673ffffffffffffffffffffffffffffffffffffffff163373ffffffffffffffffffffffffffffffffffffffff161461522057fe5b600073ffffffffffffffffffffffffffffffffffffffff168173ffffffffffffffffffffffffffffffffffffffff161461529557806000806101000a81548173ffffffffffffffffffffffffffffffffffffffff021916908373ffffffffffffffffffffffffffffffffffffffff1602179055505b50565b6000600260009054906101000a900473ffffffffffffffffffffffffffffffffffffffff1673ffffffffffffffffffffffffffffffffffffffff166308acb5566040518060400160405280600d81526020017f47616d65566172416e64466565000000000000000000000000000000000000008152506040518060400160405280601281526020017f47616d65566172416e644665655461626c6500000000000000000000000000008152506040516020018082805190602001908083835b6020831061537a5780518252602082019150602081019050602083039250615357565b6001836020036101000a038019825116818451168082178552505050505050905001807f70657263656e74616765466f724275726e457468696500000000000000000000815250601601915050604051602081830303815290604052805190602001206040518363ffffffff1660e01b81526004018080602001838152602001828103825284818151815260200191508051906020019080838360005b83811015615432578082015181840152602081019050615417565b50505050905090810190601f16801561545f5780820380516001836020036101000a031916815260200191505b50935050505060206040518083038186803b15801561547d57600080fd5b505afa158015615491573d6000803e3d6000fd5b505050506040513d60208110156154a757600080fd5b8101908080519060200190929190505050905090565b60006156b3670de0b6b3a76400006156a5600160009054906101000a900473ffffffffffffffffffffffffffffffffffffffff1673ffffffffffffffffffffffffffffffffffffffff1663358177736040518060400160405280600a81526020017f4b7479556e6973776170000000000000000000000000000000000000000000008152506040518263ffffffff1660e01b81526004018080602001828103825283818151815260200191508051906020019080838360005b83811015615591578082015181840152602081019050615576565b50505050905090810190601f1680156155be5780820380516001836020036101000a031916815260200191505b509250505060206040518083038186803b1580156155db57600080fd5b505afa1580156155ef573d6000803e3d6000fd5b505050506040513d602081101561560557600080fd5b810190808051906020019092919050505073ffffffffffffffffffffffffffffffffffffffff16632377cc9c6040518163ffffffff1660e01b815260040160206040518083038186803b15801561565b57600080fd5b505afa15801561566f573d6000803e3d6000fd5b505050506040513d602081101561568557600080fd5b8101908080519060200190929190505050856158b790919063ffffffff16565b6158ee90919063ffffffff16565b9050919050565b60006158b0670de0b6b3a76400006158a2600160009054906101000a900473ffffffffffffffffffffffffffffffffffffffff1673ffffffffffffffffffffffffffffffffffffffff1663358177736040518060400160405280600a81526020017f4b7479556e6973776170000000000000000000000000000000000000000000008152506040518263ffffffff1660e01b81526004018080602001828103825283818151815260200191508051906020019080838360005b8381101561578e578082015181840152602081019050615773565b50505050905090810190601f1680156157bb5780820380516001836020036101000a031916815260200191505b509250505060206040518083038186803b1580156157d857600080fd5b505afa1580156157ec573d6000803e3d6000fd5b505050506040513d602081101561580257600080fd5b810190808051906020019092919050505073ffffffffffffffffffffffffffffffffffffffff1663481574496040518163ffffffff1660e01b815260040160206040518083038186803b15801561585857600080fd5b505afa15801561586c573d6000803e3d6000fd5b505050506040513d602081101561588257600080fd5b8101908080519060200190929190505050856158b790919063ffffffff16565b6158ee90919063ffffffff16565b9050919050565b6000808314156158ca57600090506158e8565b60008284029050828482816158db57fe5b04146158e357fe5b809150505b92915050565b6000808284816158fa57fe5b0490508091505092915050565b600073ffffffffffffffffffffffffffffffffffffffff16600160009054906101000a900473ffffffffffffffffffffffffffffffffffffffff1673ffffffffffffffffffffffffffffffffffffffff1614156159cc576040517f08c379a00000000000000000000000000000000000000000000000000000000081526004018080602001828103825260088152602001807f4e6f2050726f787900000000000000000000000000000000000000000000000081525060200191505060405180910390fd5b600160009054906101000a900473ffffffffffffffffffffffffffffffffffffffff1673ffffffffffffffffffffffffffffffffffffffff163373ffffffffffffffffffffffffffffffffffffffff1614615a8f576040517f08c379a00000000000000000000000000000000000000000000000000000000081526004018080602001828103825260128152602001807f4f6e6c79207468726f7567682050726f7879000000000000000000000000000081525060200191505060405180910390fd5b565b6000600160009054906101000a900473ffffffffffffffffffffffffffffffffffffffff1673ffffffffffffffffffffffffffffffffffffffff1663358177736040518060400160405280600681526020017f526f6c65444200000000000000000000000000000000000000000000000000008152506040518263ffffffff1660e01b81526004018080602001828103825283818151815260200191508051906020019080838360005b83811015615b56578082015181840152602081019050615b3b565b50505050905090810190601f168015615b835780820380516001836020036101000a031916815260200191505b509250505060206040518083038186803b158015615ba057600080fd5b505afa158015615bb4573d6000803e3d6000fd5b505050506040513d6020811015615bca57600080fd5b810190808051906020019092919050505073ffffffffffffffffffffffffffffffffffffffff16636c9cd09783615bff615ea0565b6040518363ffffffff1660e01b815260040180806020018373ffffffffffffffffffffffffffffffffffffffff1673ffffffffffffffffffffffffffffffffffffffff168152602001828103825284818151815260200191508051906020019080838360005b83811015615c80578082015181840152602081019050615c65565b50505050905090810190601f168015615cad5780820380516001836020036101000a031916815260200191505b50935050505060206040518083038186803b158015615ccb57600080fd5b505afa158015615cdf573d6000803e3d6000fd5b505050506040513d6020811015615cf557600080fd5b81019080805190602001909291905050509050919050565b60608060206040519080825280601f01601f191660200182016040528015615d445781602001600182028038833980820191505090505b509050600080905060008090505b6020811015615dee5760008160080260020a8660001c0260001b9050600060f81b817effffffffffffffffffffffffffffffffffffffffffffffffffffffffffffff191614615de05780848481518110615da857fe5b60200101907effffffffffffffffffffffffffffffffffffffffffffffffffffffffffffff1916908160001a90535082806001019350505b508080600101915050615d52565b506060816040519080825280601f01601f191660200182016040528015615e245781602001600182028038833980820191505090505b50905060008090505b82811015615e9457838181518110615e4157fe5b602001015160f81c60f81b828281518110615e5857fe5b60200101907effffffffffffffffffffffffffffffffffffffffffffffffffffffffffffff1916908160001a9053508080600101915050615e2d565b50809350505050919050565b6000600160009054906101000a900473ffffffffffffffffffffffffffffffffffffffff1673ffffffffffffffffffffffffffffffffffffffff163373ffffffffffffffffffffffffffffffffffffffff1614615eff57339050615f52565b6000601436036000602052601481602c37602051915050600073ffffffffffffffffffffffffffffffffffffffff168173ffffffffffffffffffffffffffffffffffffffff161415615f4d57fe5b809150505b90565b6040518060a0016040528060059060208202803883398082019150509050509056fea265627a7a723158206db826b9ec6cb1e3a93308f427b391e3d29250b437dae531d225f094a73d8d9564736f6c63430005110032",
  "source": "/**\r\n * @title GameVarAndFee\r\n *\r\n * @author @wafflemakr @hamaad\r\n *\r\n */\r\n//modifier class (DSAuth )\r\n//Event class ( DSNote )\r\n//\r\n// This program is free software: you can redistribute it and/or modify\r\n// it under the terms of the GNU General Public License as published by\r\n// the Free Software Foundation, either version 3 of the License, or\r\n// (at your option) any later version.\r\n\r\n// This program is distributed in the hope that it will be useful,\r\n// but WITHOUT ANY WARRANTY; without even the implied warranty of\r\n// MERCHANTABILITY or FITNESS FOR A PARTICULAR PURPOSE.  See the\r\n// GNU General Public License for more details.\r\n\r\n// You should have received a copy of the GNU General Public License\r\n// along with this program.  If not, see <http://www.gnu.org/licenses/>.\r\n\r\npragma solidity ^0.5.5;\r\n// pragma experimental ABIEncoderV2;\r\n\r\nimport './modules/databases/RoleDB.sol';\r\nimport './modules/databases/GenericDB.sol';\r\nimport \"./modules/proxy/Proxied.sol\";\r\nimport \"./authority/Guard.sol\";\r\nimport './misc/VarAndFeeNames.sol';\r\nimport './modules/endowment/KtyUniswap.sol';\r\nimport './libs/SafeMath.sol';\r\n\r\n/// @dev MakerDao eth-usd price medianizer\r\ncontract Medianizer {\r\n    function read() external view returns (bytes32);\r\n}\r\n\r\n/**\r\n * @title Contract that moderates the various fees, timing limits, expiry date/time,\r\n * schedules, eth allocation per game, token allocation per game, kittiehell\r\n * kittie expiration, time durations, distribution percentages e.t.c.\r\n * The note modifier will log event for each function call.\r\n * @dev One setter that is called from GameVarAndFeeProxy contract setters\r\n */\r\ncontract GameVarAndFee is Proxied, Guard, VarAndFeeNames {\r\n    using SafeMath for uint256;\r\n\r\n    string constant TABLE_NAME = \"GameVarAndFeeTable\";\r\n\r\n    // Declare DB type variable\r\n    GenericDB public genericDB;\r\n    Medianizer medianizer;\r\n\r\n    /// @notice Function called when deployed\r\n    /// @param _genericDB Address of deployed GeneriDB contract\r\n    constructor (GenericDB _genericDB, Medianizer _medianizer) public {\r\n        setGenericDB(_genericDB);\r\n        setMedianizer(_medianizer);\r\n    }\r\n\r\n    // kovanMedianizer = 0xA944bd4b25C9F186A846fd5668941AA3d3B8425F\r\n    // mainnetMedianizer = 0x729D19f657BD0614b4985Cf1D82531c67569197B\r\n    function setMedianizer(Medianizer _medianizer) public onlyOwner{\r\n       medianizer = Medianizer(_medianizer);\r\n    }\r\n\r\n    /// @notice Set genericDB variable to store data in contract\r\n    function setGenericDB(GenericDB _genericDB) public onlyOwner {\r\n        genericDB = _genericDB;\r\n    }\r\n\r\n    // ----- SETTERS ------\r\n\r\n    /// @dev set multiple variables\r\n    function setMultipleValues(bytes32[] calldata names, uint[] calldata values)\r\n        external onlyProxy onlySuperAdmin\r\n    {\r\n        require(names.length == values.length);\r\n        bytes32 key;\r\n        for(uint i = 0; i < names.length; i++){\r\n            key = keccak256(abi.encodePacked(TABLE_NAME, bytes32ToString(names[i])));\r\n            genericDB.setUintStorage(CONTRACT_NAME_GAMEVARANDFEE, key, values[i]);\r\n        }\r\n    }\r\n\r\n    function setPlatformFeeInDai(string calldata feeName) external onlyProxy onlySuperAdmin {\r\n        bytes32 key = keccak256(abi.encodePacked(TABLE_NAME, feeName));\r\n        uint valKTY = genericDB.getUintStorage(CONTRACT_NAME_GAMEVARANDFEE, key);\r\n        // convert from kty to dai\r\n        uint valETH = convertKtyToEth(valKTY);\r\n        uint valDAI = convertEthToDai(valETH);\r\n        genericDB.setUintStorage(CONTRACT_NAME_GAMEVARANDFEE, key, valDAI);\r\n    }\r\n\r\n    function bytes32ToString(bytes32 x) internal pure returns (string memory) {\r\n        bytes memory bytesString = new bytes(32);\r\n        uint charCount = 0;\r\n        for (uint j = 0; j < 32; j++) {\r\n            byte char = byte(bytes32(uint(x) * 2 ** (8 * j)));\r\n            if (char != 0) {\r\n                bytesString[charCount] = char;\r\n                charCount++;\r\n            }\r\n        }\r\n        bytes memory bytesStringTrimmed = new bytes(charCount);\r\n        for (uint j = 0; j < charCount; j++) {\r\n            bytesStringTrimmed[j] = bytesString[j];\r\n        }\r\n        return string(bytesStringTrimmed);\r\n    }\r\n\r\n\r\n    // ----- GETTERS ------\r\n\r\n    // Stale function - what is this getter for and where is it used?\r\n    /// @notice FrontEnd Global Getter\r\n   // function getGlobalSettings() public view    \r\n     //   returns(uint[5] memory, uint, uint, uint, uint, uint, uint, uint)\r\n    //{\r\n      //  return(getDistributionRates(),getListingFee(),getTicketFee(), getBettingFee(),\r\n        //    getKittieRedemptionFee(), getGamePrestart(), getGameDuration(), getKittieExpiry());\r\n    //}\r\n\r\n    /// @notice get eth/usd current price\r\n    // temporarily hard code EthUsdPrice for truffle testing of BurnTokens.test.js\r\n    // Please remove hardcoding and uncomment line 124 once testing is done\r\n    function getEthUsdPrice() public view returns(uint){\r\n        //return uint256(medianizer.read());\r\n        return uint256(0x00000000000000000000000000000000000000000000000b49bcb0036fa6c000);\r\n    }\r\n\r\n    function convertEthToDai(uint _ethAmount) public view returns(uint) {\r\n        return _ethAmount.mul(KtyUniswap(proxy.getContract(CONTRACT_NAME_KTY_UNISWAP)).ETH_DAI_price()).div(1000000000000000000);\r\n    }\r\n\r\n    function convertDaiToEth(uint _daiAmount) public view returns(uint) {\r\n        return _daiAmount.mul(KtyUniswap(proxy.getContract(CONTRACT_NAME_KTY_UNISWAP)).DAI_ETH_price()).div(1000000000000000000);\r\n    }\r\n\r\n    function convertKtyToEth(uint _ktyAmount) public view returns(uint) {\r\n        return _ktyAmount.mul(KtyUniswap(proxy.getContract(CONTRACT_NAME_KTY_UNISWAP)).KTY_ETH_price()).div(1000000000000000000);\r\n    }\r\n\r\n    function convertEthToKty(uint _ethAmount) public view returns(uint) {\r\n        return _ethAmount.mul(KtyUniswap(proxy.getContract(CONTRACT_NAME_KTY_UNISWAP)).ETH_KTY_price()).div(1000000000000000000);\r\n    }\r\n        \r\n    /// @notice Gets the number of matches that are set by Scheduler every time (i.e. 20 kitties, 10 matches)\r\n    function getRequiredNumberMatches() \r\n    public view returns(uint) { \r\n        return genericDB.getUintStorage(CONTRACT_NAME_GAMEVARANDFEE, REQUIRED_NUMBER_MATCHES);\r\n    }\r\n    \r\n    /// @notice Gets countdown time for players to start game (i.e. 120).\r\n    function getGamePrestart() \r\n    public view returns(uint) {\r\n        return genericDB.getUintStorage(CONTRACT_NAME_GAMEVARANDFEE, GAME_PRESTART);\r\n    }\r\n    \r\n    /// @notice Gets Game duration, how long a game lasts\r\n    function getGameDuration() \r\n    public view returns(uint) {\r\n        return genericDB.getUintStorage(CONTRACT_NAME_GAMEVARANDFEE, GAME_DURATION);\r\n    }\r\n    \r\n    /// @notice Gets how long to wait for payment for kittie in kittiehell before kittie is lost forever \r\n    function getKittieExpiry() \r\n    public view returns(uint) {\r\n        return genericDB.getUintStorage(CONTRACT_NAME_GAMEVARANDFEE, KITTIE_HELL_EXPIRATION);\r\n    }\r\n    \r\n    /// @notice Gets the time at which honey pot will be dissolved,after a game is over, used by time contract at end of gameduration\r\n    function getHoneypotExpiration() \r\n    public view returns(uint) {\r\n        return genericDB.getUintStorage(CONTRACT_NAME_GAMEVARANDFEE, HONEY_POT_EXPIRATION);\r\n    }\r\n    \r\n    /// @notice Gets the percentage of jackpot size for allocating KTY tokens to the jackpot\r\n    function getPercentageHoneypotAllocationKTY()\r\n        public view returns(uint)\r\n    {\r\n            return genericDB.getUintStorage(CONTRACT_NAME_GAMEVARANDFEE, PERCENTAGE_HONEYPOT_ALLOCATION_KTY);\r\n    }\r\n\r\n    // stale function\r\n    /// @notice Gets Amount of initial ETH allowed to be drawn from EndowmentFund to be allocated to game\r\n    function getEthPerGame() \r\n    public view returns(uint) {\r\n        return genericDB.getUintStorage(CONTRACT_NAME_GAMEVARANDFEE, ETH_PER_GAME);\r\n    }\r\n\r\n    /// @notice Gets Times duration between each game per day\r\n    function getGameTimes() \r\n    public view returns(uint) {\r\n        return genericDB.getUintStorage(CONTRACT_NAME_GAMEVARANDFEE, GAME_TIMES);\r\n    }\r\n    \r\n    /// @notice Gets Distribution Rates\r\n    function getDistributionRates() \r\n    public view returns(uint[5] memory rates) {\r\n                \r\n        rates[0] = genericDB.getUintStorage(CONTRACT_NAME_GAMEVARANDFEE, WINNING_KITTIE);\r\n        \r\n        rates[1] = genericDB.getUintStorage(CONTRACT_NAME_GAMEVARANDFEE, TOP_BETTOR);\r\n        \r\n        rates[2] = genericDB.getUintStorage(CONTRACT_NAME_GAMEVARANDFEE, SECOND_RUNNER_UP);\r\n        \r\n        rates[3] = genericDB.getUintStorage(CONTRACT_NAME_GAMEVARANDFEE, OTHER_BETTORS);\r\n        \r\n        rates[4] = genericDB.getUintStorage(CONTRACT_NAME_GAMEVARANDFEE, ENDOWNMENT);\r\n    }\r\n\r\n    /// @notice Gets percentage of final honeypot that is set as pool initial ether allocation\r\n    function getPercentageForPool() public view returns (uint256) {\r\n        return genericDB.getUintStorage(CONTRACT_NAME_GAMEVARANDFEE, PERCENTAGE_FOR_POOL);\r\n    }\r\n\r\n    /// @notice Gets percentage of initial honeypot that is set as kittie listing fee\r\n    function getPercentageForListingFee() public view returns(uint256) {\r\n        return genericDB.getUintStorage(CONTRACT_NAME_GAMEVARANDFEE, PERCENTAGE_FOR_LISTING_FEE);\r\n    }\r\n\r\n    /// @notice Gets percentage of initial honeypot that is set as Ticket fee\r\n    function getPercentageForTicketFee() public view returns(uint256) {\r\n        return genericDB.getUintStorage(CONTRACT_NAME_GAMEVARANDFEE, PERCENTAGE_FOR_TICKET_FEE);\r\n    }\r\n\r\n    /// @notice Gets percentage of initial honeypot that is set as Betting fee\r\n    function getPercentageForBettingFee() public view returns(uint256) {\r\n        return genericDB.getUintStorage(CONTRACT_NAME_GAMEVARANDFEE, PERCENTAGE_FOR_BETTING_FEE);\r\n    }\r\n\r\n    /// @notice Gets percentage of final honeypot that is set as kittieRedemptionFee\r\n    function getPercentageForKittieRedemptionFee()\r\n    public view returns(uint) {\r\n        return genericDB.getUintStorage(CONTRACT_NAME_GAMEVARANDFEE, PERCENTAGE_FOR_KITTIE_REDEMPTION_FEE);\r\n    }\r\n\r\n    // stale function\r\n    /// @notice Gets USD to KTY ratio\r\n    function getUsdKTYPrice()\r\n    public view returns(uint) {\r\n        return genericDB.getUintStorage(CONTRACT_NAME_GAMEVARANDFEE, USD_KTY_PRICE);\r\n    }\r\n\r\n    /// @notice Gets fee in Ether for players to list kitties for matching in fights\r\n    function getListingFee() public view returns(uint, uint) {\r\n        uint listingFeeDAI = genericDB.getUintStorage(CONTRACT_NAME_GAMEVARANDFEE, LISTING_FEE);\r\n        uint listingFeeETH = convertDaiToEth(listingFeeDAI);\r\n        uint listingFeeKTY = convertEthToKty(listingFeeETH);\r\n        uint etherForListingFeeSwap = KtyUniswap(proxy.getContract(CONTRACT_NAME_KTY_UNISWAP)).etherFor(listingFeeKTY);\r\n        return (etherForListingFeeSwap, listingFeeKTY);\r\n    }\r\n\r\n    /// @notice Gets minimum contributors needed for the game to continue\r\n    function getMinimumContributors() \r\n    public view returns(uint) {\r\n        return genericDB.getUintStorage(CONTRACT_NAME_GAMEVARANDFEE, MINIMUM_CONTRIBUTORS);\r\n    }\r\n\r\n    /// @notice Gets the amount of KTY rewarded to the user that hits finalize button. Return amount in Dai.\r\n    function getFinalizeRewards()\r\n    public view returns(uint) {\r\n        uint rewardsDAI = genericDB.getUintStorage(CONTRACT_NAME_GAMEVARANDFEE, FINALIZE_REWARDS);\r\n        uint rewardsETH = convertDaiToEth(rewardsDAI);\r\n        uint rewardsKTY = convertEthToKty(rewardsETH);\r\n        return rewardsKTY;\r\n    }\r\n\r\n    /// @notice Gets the time before a game ends that the check performance should act\r\n    function getPerformanceTimeCheck() \r\n    public view returns(uint) {\r\n        return genericDB.getUintStorage(CONTRACT_NAME_GAMEVARANDFEE, PERFORMANCE_TIME_CHECK);\r\n    }\r\n\r\n    /// @notice Gets the amount of time to add when game is underperformant\r\n    function getTimeExtension() \r\n    public view returns(uint) {\r\n        return genericDB.getUintStorage(CONTRACT_NAME_GAMEVARANDFEE, TIME_EXTENSION);\r\n    }\r\n\r\n    /// @notice Gets the required number of kitties NFTs as replacement for redeemed kittie in kittieHELL\r\n    function getRequiredKittieSacrificeNum()\r\n        public view returns(uint)\r\n    {\r\n        return genericDB.getUintStorage(CONTRACT_NAME_GAMEVARANDFEE, REQUIRED_KITTIE_SACRIFICE_NUM);\r\n    }\r\n\r\n    function getPercentageforBurnEthie()\r\n        public view returns(uint)\r\n    {\r\n        return genericDB.getUintStorage(CONTRACT_NAME_GAMEVARANDFEE, PERCENTAGE_FOR_BURN_ETHIE);\r\n       \r\n    }\r\n\r\n    /// @notice Gets the weekly interest rate for EthieToken NFT\r\n    function getInterestEthie()\r\n        public view returns(uint)\r\n    {\r\n        return genericDB.getUintStorage(CONTRACT_NAME_GAMEVARANDFEE, INTEREST_ETHIE);\r\n    }\r\n\r\n}\r\n",
  "sourcePath": "C:\\Users\\Alex\\Desktop\\MyProjects\\contracts\\contracts\\GameVarAndFee.sol",
  "compiler": {
    "name": "solc",
    "version": "0.5.17+commit.d19bba13.Emscripten.clang"
  },
  "schemaVersion": "3.0.11",
  "updatedAt": "2020-06-20T15:23:08.108Z",
  "devdoc": {
    "details": "One setter that is called from GameVarAndFeeProxy contract setters",
    "methods": {
      "constructor": {
        "params": {
          "_genericDB": "Address of deployed GeneriDB contract"
        }
      },
      "setMultipleValues(bytes32[],uint256[])": {
        "details": "set multiple variables"
      }
    },
    "title": "Contract that moderates the various fees, timing limits, expiry date/time, schedules, eth allocation per game, token allocation per game, kittiehell kittie expiration, time durations, distribution percentages e.t.c. The note modifier will log event for each function call."
  },
  "userdoc": {
    "methods": {
      "constructor": "Function called when deployed",
      "getDistributionRates()": {
        "notice": "Gets Distribution Rates"
      },
      "getEthPerGame()": {
        "notice": "Gets Amount of initial ETH allowed to be drawn from EndowmentFund to be allocated to game"
      },
      "getEthUsdPrice()": {
        "notice": "get eth/usd current price"
      },
      "getFinalizeRewards()": {
        "notice": "Gets the amount of KTY rewarded to the user that hits finalize button. Return amount in Dai."
      },
      "getGameDuration()": {
        "notice": "Gets Game duration, how long a game lasts"
      },
      "getGamePrestart()": {
        "notice": "Gets countdown time for players to start game (i.e. 120)."
      },
      "getGameTimes()": {
        "notice": "Gets Times duration between each game per day"
      },
      "getHoneypotExpiration()": {
        "notice": "Gets the time at which honey pot will be dissolved,after a game is over, used by time contract at end of gameduration"
      },
      "getInterestEthie()": {
        "notice": "Gets the weekly interest rate for EthieToken NFT"
      },
      "getKittieExpiry()": {
        "notice": "Gets how long to wait for payment for kittie in kittiehell before kittie is lost forever "
      },
      "getListingFee()": {
        "notice": "Gets fee in Ether for players to list kitties for matching in fights"
      },
      "getMinimumContributors()": {
        "notice": "Gets minimum contributors needed for the game to continue"
      },
      "getPercentageForBettingFee()": {
        "notice": "Gets percentage of initial honeypot that is set as Betting fee"
      },
      "getPercentageForKittieRedemptionFee()": {
        "notice": "Gets percentage of final honeypot that is set as kittieRedemptionFee"
      },
      "getPercentageForListingFee()": {
        "notice": "Gets percentage of initial honeypot that is set as kittie listing fee"
      },
      "getPercentageForPool()": {
        "notice": "Gets percentage of final honeypot that is set as pool initial ether allocation"
      },
      "getPercentageForTicketFee()": {
        "notice": "Gets percentage of initial honeypot that is set as Ticket fee"
      },
      "getPercentageHoneypotAllocationKTY()": {
        "notice": "Gets the percentage of jackpot size for allocating KTY tokens to the jackpot"
      },
      "getPerformanceTimeCheck()": {
        "notice": "Gets the time before a game ends that the check performance should act"
      },
      "getRequiredKittieSacrificeNum()": {
        "notice": "Gets the required number of kitties NFTs as replacement for redeemed kittie in kittieHELL"
      },
      "getRequiredNumberMatches()": {
        "notice": "Gets the number of matches that are set by Scheduler every time (i.e. 20 kitties, 10 matches)"
      },
      "getTimeExtension()": {
        "notice": "Gets the amount of time to add when game is underperformant"
      },
      "getUsdKTYPrice()": {
        "notice": "Gets USD to KTY ratio"
      },
      "setGenericDB(address)": {
        "notice": "Set genericDB variable to store data in contract"
      },
      "setProxy(address)": {
        "notice": "Set/update address of Proxy contract"
      }
    }
  }
}