{
  "contractName": "GameCreation",
  "abi": [
    {
      "anonymous": false,
      "inputs": [
        {
          "indexed": true,
          "internalType": "uint256",
          "name": "gameId",
          "type": "uint256"
        },
        {
          "indexed": false,
          "internalType": "address",
          "name": "playerBlack",
          "type": "address"
        },
        {
          "indexed": false,
          "internalType": "uint256",
          "name": "kittieBlack",
          "type": "uint256"
        },
        {
          "indexed": false,
          "internalType": "address",
          "name": "playerRed",
          "type": "address"
        },
        {
          "indexed": false,
          "internalType": "uint256",
          "name": "kittieRed",
          "type": "uint256"
        },
        {
          "indexed": false,
          "internalType": "uint256",
          "name": "gameStartTime",
          "type": "uint256"
        }
      ],
      "name": "NewGame",
      "type": "event"
    },
    {
      "anonymous": false,
      "inputs": [
        {
          "indexed": true,
          "internalType": "uint256",
          "name": "kittieId",
          "type": "uint256"
        },
        {
          "indexed": true,
          "internalType": "address",
          "name": "owner",
          "type": "address"
        },
        {
          "indexed": false,
          "internalType": "uint256",
          "name": "timeListed",
          "type": "uint256"
        }
      ],
      "name": "NewListing",
      "type": "event"
    },
    {
      "anonymous": false,
      "inputs": [
        {
          "indexed": true,
          "internalType": "uint256",
          "name": "jobId",
          "type": "uint256"
        },
        {
          "indexed": false,
          "internalType": "uint256",
          "name": "jobTime",
          "type": "uint256"
        },
        {
          "indexed": true,
          "internalType": "uint256",
          "name": "gameId",
          "type": "uint256"
        },
        {
          "indexed": false,
          "internalType": "string",
          "name": "job",
          "type": "string"
        }
      ],
      "name": "Scheduled",
      "type": "event"
    },
    {
      "constant": true,
      "inputs": [],
      "name": "cronJob",
      "outputs": [
        {
          "internalType": "contract CronJob",
          "name": "",
          "type": "address"
        }
      ],
      "payable": false,
      "stateMutability": "view",
      "type": "function"
    },
    {
      "constant": true,
      "inputs": [
        {
          "internalType": "uint256",
          "name": "",
          "type": "uint256"
        }
      ],
      "name": "cronJobsForGames",
      "outputs": [
        {
          "internalType": "uint256",
          "name": "",
          "type": "uint256"
        }
      ],
      "payable": false,
      "stateMutability": "view",
      "type": "function"
    },
    {
      "constant": true,
      "inputs": [],
      "name": "cryptoKitties",
      "outputs": [
        {
          "internalType": "contract IKittyCore",
          "name": "",
          "type": "address"
        }
      ],
      "payable": false,
      "stateMutability": "view",
      "type": "function"
    },
    {
      "constant": true,
      "inputs": [],
      "name": "endowmentFund",
      "outputs": [
        {
          "internalType": "contract EndowmentFund",
          "name": "",
          "type": "address"
        }
      ],
      "payable": false,
      "stateMutability": "view",
      "type": "function"
    },
    {
      "constant": true,
      "inputs": [],
      "name": "gameStore",
      "outputs": [
        {
          "internalType": "contract GameStore",
          "name": "",
          "type": "address"
        }
      ],
      "payable": false,
      "stateMutability": "view",
      "type": "function"
    },
    {
      "constant": true,
      "inputs": [],
      "name": "gameVarAndFee",
      "outputs": [
        {
          "internalType": "contract GameVarAndFee",
          "name": "",
          "type": "address"
        }
      ],
      "payable": false,
      "stateMutability": "view",
      "type": "function"
    },
    {
      "constant": true,
      "inputs": [],
      "name": "gmGetterDB",
      "outputs": [
        {
          "internalType": "contract GMGetterDB",
          "name": "",
          "type": "address"
        }
      ],
      "payable": false,
      "stateMutability": "view",
      "type": "function"
    },
    {
      "constant": true,
      "inputs": [],
      "name": "gmSetterDB",
      "outputs": [
        {
          "internalType": "contract GMSetterDB",
          "name": "",
          "type": "address"
        }
      ],
      "payable": false,
      "stateMutability": "view",
      "type": "function"
    },
    {
      "constant": true,
      "inputs": [],
      "name": "kittieHELL",
      "outputs": [
        {
          "internalType": "contract KittieHell",
          "name": "",
          "type": "address"
        }
      ],
      "payable": false,
      "stateMutability": "view",
      "type": "function"
    },
    {
      "constant": true,
      "inputs": [],
      "name": "owner",
      "outputs": [
        {
          "internalType": "address payable",
          "name": "",
          "type": "address"
        }
      ],
      "payable": false,
      "stateMutability": "view",
      "type": "function"
    },
    {
      "constant": true,
      "inputs": [],
      "name": "proxy",
      "outputs": [
        {
          "internalType": "contract ProxyBase",
          "name": "",
          "type": "address"
        }
      ],
      "payable": false,
      "stateMutability": "view",
      "type": "function"
    },
    {
      "constant": true,
      "inputs": [],
      "name": "scheduler",
      "outputs": [
        {
          "internalType": "contract Scheduler",
          "name": "",
          "type": "address"
        }
      ],
      "payable": false,
      "stateMutability": "view",
      "type": "function"
    },
    {
      "constant": false,
      "inputs": [
        {
          "internalType": "contract ProxyBase",
          "name": "_proxy",
          "type": "address"
        }
      ],
      "name": "setProxy",
      "outputs": [],
      "payable": false,
      "stateMutability": "nonpayable",
      "type": "function"
    },
    {
      "constant": false,
      "inputs": [
        {
          "internalType": "address payable",
          "name": "newOwner",
          "type": "address"
        }
      ],
      "name": "transferOwnership",
      "outputs": [],
      "payable": false,
      "stateMutability": "nonpayable",
      "type": "function"
    },
    {
      "constant": false,
      "inputs": [],
      "name": "initialize",
      "outputs": [],
      "payable": false,
      "stateMutability": "nonpayable",
      "type": "function"
    },
    {
      "constant": true,
      "inputs": [],
      "name": "calculateListingFee",
      "outputs": [
        {
          "internalType": "uint256",
          "name": "",
          "type": "uint256"
        }
      ],
      "payable": false,
      "stateMutability": "view",
      "type": "function"
    },
    {
      "constant": false,
      "inputs": [
        {
          "internalType": "uint256",
          "name": "kittieId",
          "type": "uint256"
        }
      ],
      "name": "listKittie",
      "outputs": [],
      "payable": false,
      "stateMutability": "nonpayable",
      "type": "function"
    },
    {
      "constant": false,
      "inputs": [
        {
          "internalType": "address",
          "name": "playerRed",
          "type": "address"
        },
        {
          "internalType": "address",
          "name": "playerBlack",
          "type": "address"
        },
        {
          "internalType": "uint256",
          "name": "kittyRed",
          "type": "uint256"
        },
        {
          "internalType": "uint256",
          "name": "kittyBlack",
          "type": "uint256"
        },
        {
          "internalType": "uint256",
          "name": "gameStartTime",
          "type": "uint256"
        }
      ],
      "name": "manualMatchKitties",
      "outputs": [],
      "payable": false,
      "stateMutability": "nonpayable",
      "type": "function"
    },
    {
      "constant": false,
      "inputs": [
        {
          "internalType": "address",
          "name": "playerRed",
          "type": "address"
        },
        {
          "internalType": "address",
          "name": "playerBlack",
          "type": "address"
        },
        {
          "internalType": "uint256",
          "name": "kittyRed",
          "type": "uint256"
        },
        {
          "internalType": "uint256",
          "name": "kittyBlack",
          "type": "uint256"
        },
        {
          "internalType": "uint256",
          "name": "gameStartTime",
          "type": "uint256"
        }
      ],
      "name": "createFight",
      "outputs": [],
      "payable": false,
      "stateMutability": "nonpayable",
      "type": "function"
    },
    {
      "constant": false,
      "inputs": [
        {
          "internalType": "uint256",
          "name": "gameId",
          "type": "uint256"
        }
      ],
      "name": "removeKitties",
      "outputs": [],
      "payable": false,
      "stateMutability": "nonpayable",
      "type": "function"
    },
    {
      "constant": false,
      "inputs": [
        {
          "internalType": "uint256",
          "name": "gameId",
          "type": "uint256"
        },
        {
          "internalType": "uint256",
          "name": "state",
          "type": "uint256"
        }
      ],
      "name": "scheduleJobs",
      "outputs": [],
      "payable": false,
      "stateMutability": "nonpayable",
      "type": "function"
    },
    {
      "constant": false,
      "inputs": [
        {
          "internalType": "uint256",
          "name": "gameId",
          "type": "uint256"
        }
      ],
      "name": "updateGameStateCron",
      "outputs": [],
      "payable": false,
      "stateMutability": "nonpayable",
      "type": "function"
    },
    {
      "constant": false,
      "inputs": [
        {
          "internalType": "uint256",
          "name": "gameId",
          "type": "uint256"
        }
      ],
      "name": "callForfeiterCron",
      "outputs": [],
      "payable": false,
      "stateMutability": "nonpayable",
      "type": "function"
    },
    {
      "constant": false,
      "inputs": [
        {
          "internalType": "uint256",
          "name": "gameId",
          "type": "uint256"
        }
      ],
      "name": "callGameEndCron",
      "outputs": [],
      "payable": false,
      "stateMutability": "nonpayable",
      "type": "function"
    },
    {
      "constant": false,
      "inputs": [
        {
          "internalType": "uint256",
          "name": "gameId",
          "type": "uint256"
        }
      ],
      "name": "rescheduleCronJob",
      "outputs": [],
      "payable": false,
      "stateMutability": "nonpayable",
      "type": "function"
    },
    {
      "constant": false,
      "inputs": [
        {
          "internalType": "uint256",
          "name": "gameId",
          "type": "uint256"
        }
      ],
      "name": "deleteCronjob",
      "outputs": [],
      "payable": false,
      "stateMutability": "nonpayable",
      "type": "function"
    }
  ],
  "bytecode": "0x6080604052336000806101000a81548173ffffffffffffffffffffffffffffffffffffffff021916908373ffffffffffffffffffffffffffffffffffffffff1602179055506150eb806100536000396000f3fe608060405234801561001057600080fd5b506004361061018e5760003560e01c8063b1be6469116100de578063ec55688911610097578063f2fde38b11610071578063f2fde38b1461070f578063f4dc834a14610753578063f60ac4b714610781578063fbf33cfb146107af5761018e565b8063ec55688914610631578063ef410f451461067b578063f26dee8e146106c55761018e565b8063b1be6469146104ad578063c2b66904146104f7578063cfafbde714610525578063d1ad17bf1461056f578063da7f76d4146105b9578063daff832f146106035761018e565b80638129fc1c1161014b57806397107d6d1161012557806397107d6d146103b95780639d60d53e146103fd578063a13995401461042b578063a3b3bd7b146104635761018e565b80638129fc1c146103475780638da5cb5b1461035157806390f612831461039b5761018e565b806301441541146101935780631fc751801461021557806360cf76891461025f57806369af70b3146102a157806369ea0ea7146102eb5780636fee856a14610319575b600080fd5b610213600480360360a08110156101a957600080fd5b81019080803573ffffffffffffffffffffffffffffffffffffffff169060200190929190803573ffffffffffffffffffffffffffffffffffffffff169060200190929190803590602001909291908035906020019092919080359060200190929190505050610831565b005b61021d610885565b604051808273ffffffffffffffffffffffffffffffffffffffff1673ffffffffffffffffffffffffffffffffffffffff16815260200191505060405180910390f35b61028b6004803603602081101561027557600080fd5b81019080803590602001909291905050506108ab565b6040518082815260200191505060405180910390f35b6102a96108c3565b604051808273ffffffffffffffffffffffffffffffffffffffff1673ffffffffffffffffffffffffffffffffffffffff16815260200191505060405180910390f35b6103176004803603602081101561030157600080fd5b81019080803590602001909291905050506108e9565b005b6103456004803603602081101561032f57600080fd5b8101908080359060200190929190505050610b9b565b005b61034f610d53565b005b610359611b73565b604051808273ffffffffffffffffffffffffffffffffffffffff1673ffffffffffffffffffffffffffffffffffffffff16815260200191505060405180910390f35b6103a3611b98565b6040518082815260200191505060405180910390f35b6103fb600480360360208110156103cf57600080fd5b81019080803573ffffffffffffffffffffffffffffffffffffffff169060200190929190505050611e54565b005b6104296004803603602081101561041357600080fd5b8101908080359060200190929190505050611eee565b005b6104616004803603604081101561044157600080fd5b810190808035906020019092919080359060200190929190505050612079565b005b61046b612bc7565b604051808273ffffffffffffffffffffffffffffffffffffffff1673ffffffffffffffffffffffffffffffffffffffff16815260200191505060405180910390f35b6104b5612bed565b604051808273ffffffffffffffffffffffffffffffffffffffff1673ffffffffffffffffffffffffffffffffffffffff16815260200191505060405180910390f35b6105236004803603602081101561050d57600080fd5b8101908080359060200190929190505050612c13565b005b61052d612f21565b604051808273ffffffffffffffffffffffffffffffffffffffff1673ffffffffffffffffffffffffffffffffffffffff16815260200191505060405180910390f35b610577612f47565b604051808273ffffffffffffffffffffffffffffffffffffffff1673ffffffffffffffffffffffffffffffffffffffff16815260200191505060405180910390f35b6105c1612f6d565b604051808273ffffffffffffffffffffffffffffffffffffffff1673ffffffffffffffffffffffffffffffffffffffff16815260200191505060405180910390f35b61062f6004803603602081101561061957600080fd5b8101908080359060200190929190505050612f93565b005b6106396131c1565b604051808273ffffffffffffffffffffffffffffffffffffffff1673ffffffffffffffffffffffffffffffffffffffff16815260200191505060405180910390f35b6106836131e7565b604051808273ffffffffffffffffffffffffffffffffffffffff1673ffffffffffffffffffffffffffffffffffffffff16815260200191505060405180910390f35b6106cd61320d565b604051808273ffffffffffffffffffffffffffffffffffffffff1673ffffffffffffffffffffffffffffffffffffffff16815260200191505060405180910390f35b6107516004803603602081101561072557600080fd5b81019080803573ffffffffffffffffffffffffffffffffffffffff169060200190929190505050613233565b005b61077f6004803603602081101561076957600080fd5b8101908080359060200190929190505050613301565b005b6107ad6004803603602081101561079757600080fd5b81019080803590602001909291905050506136f8565b005b61082f600480360360a08110156107c557600080fd5b81019080803573ffffffffffffffffffffffffffffffffffffffff169060200190929190803573ffffffffffffffffffffffffffffffffffffffff169060200190929190803590602001909291908035906020019092919080359060200190929190505050613c52565b005b6040518060400160405280600981526020017f5363686564756c6572000000000000000000000000000000000000000000000081525061087081614383565b61087d868686868661461e565b505050505050565b600360009054906101000a900473ffffffffffffffffffffffffffffffffffffffff1681565b600b6020528060005260406000206000915090505481565b600560009054906101000a900473ffffffffffffffffffffffffffffffffffffffff1681565b6040518060400160405280600781526020017f43726f6e4a6f620000000000000000000000000000000000000000000000000081525061092881614383565b6000600360009054906101000a900473ffffffffffffffffffffffffffffffffffffffff1673ffffffffffffffffffffffffffffffffffffffff1663ffde0c74846040518263ffffffff1660e01b81526004018082815260200191505060206040518083038186803b15801561099d57600080fd5b505afa1580156109b1573d6000803e3d6000fd5b505050506040513d60208110156109c757600080fd5b810190808051906020019092919050505090506002811415610b9657600160009054906101000a900473ffffffffffffffffffffffffffffffffffffffff1673ffffffffffffffffffffffffffffffffffffffff1663358177736040518060400160405280600b81526020017f47616d654d616e616765720000000000000000000000000000000000000000008152506040518263ffffffff1660e01b81526004018080602001828103825283818151815260200191508051906020019080838360005b83811015610aa6578082015181840152602081019050610a8b565b50505050905090810190601f168015610ad35780820380516001836020036101000a031916815260200191505b509250505060206040518083038186803b158015610af057600080fd5b505afa158015610b04573d6000803e3d6000fd5b505050506040513d6020811015610b1a57600080fd5b810190808051906020019092919050505073ffffffffffffffffffffffffffffffffffffffff1663ddda0719846040518263ffffffff1660e01b815260040180828152602001915050600060405180830381600087803b158015610b7d57600080fd5b505af1158015610b91573d6000803e3d6000fd5b505050505b505050565b6040518060400160405280600b81526020017f47616d654d616e61676572000000000000000000000000000000000000000000815250610bda81614383565b600080600360009054906101000a900473ffffffffffffffffffffffffffffffffffffffff1673ffffffffffffffffffffffffffffffffffffffff166315a40f49856040518263ffffffff1660e01b81526004018082815260200191505060806040518083038186803b158015610c5057600080fd5b505afa158015610c64573d6000803e3d6000fd5b505050506040513d6080811015610c7a57600080fd5b8101908080519060200190929190805190602001909291908051906020019092919080519060200190929190505050935093505050600260009054906101000a900473ffffffffffffffffffffffffffffffffffffffff1673ffffffffffffffffffffffffffffffffffffffff1663fd3d1c24838360006040518463ffffffff1660e01b8152600401808481526020018381526020018281526020019350505050600060405180830381600087803b158015610d3557600080fd5b505af1158015610d49573d6000803e3d6000fd5b5050505050505050565b6000809054906101000a900473ffffffffffffffffffffffffffffffffffffffff1673ffffffffffffffffffffffffffffffffffffffff163373ffffffffffffffffffffffffffffffffffffffff1614610da957fe5b600160009054906101000a900473ffffffffffffffffffffffffffffffffffffffff1673ffffffffffffffffffffffffffffffffffffffff1663358177736040518060400160405280600a81526020017f474d5365747465724442000000000000000000000000000000000000000000008152506040518263ffffffff1660e01b81526004018080602001828103825283818151815260200191508051906020019080838360005b83811015610e6c578082015181840152602081019050610e51565b50505050905090810190601f168015610e995780820380516001836020036101000a031916815260200191505b509250505060206040518083038186803b158015610eb657600080fd5b505afa158015610eca573d6000803e3d6000fd5b505050506040513d6020811015610ee057600080fd5b8101908080519060200190929190505050600260006101000a81548173ffffffffffffffffffffffffffffffffffffffff021916908373ffffffffffffffffffffffffffffffffffffffff160217905550600160009054906101000a900473ffffffffffffffffffffffffffffffffffffffff1673ffffffffffffffffffffffffffffffffffffffff1663358177736040518060400160405280600a81526020017f474d4765747465724442000000000000000000000000000000000000000000008152506040518263ffffffff1660e01b81526004018080602001828103825283818151815260200191508051906020019080838360005b83811015610ff4578082015181840152602081019050610fd9565b50505050905090810190601f1680156110215780820380516001836020036101000a031916815260200191505b509250505060206040518083038186803b15801561103e57600080fd5b505afa158015611052573d6000803e3d6000fd5b505050506040513d602081101561106857600080fd5b8101908080519060200190929190505050600360006101000a81548173ffffffffffffffffffffffffffffffffffffffff021916908373ffffffffffffffffffffffffffffffffffffffff160217905550600160009054906101000a900473ffffffffffffffffffffffffffffffffffffffff1673ffffffffffffffffffffffffffffffffffffffff1663358177736040518060400160405280600d81526020017f456e646f776d656e7446756e64000000000000000000000000000000000000008152506040518263ffffffff1660e01b81526004018080602001828103825283818151815260200191508051906020019080838360005b8381101561117c578082015181840152602081019050611161565b50505050905090810190601f1680156111a95780820380516001836020036101000a031916815260200191505b509250505060206040518083038186803b1580156111c657600080fd5b505afa1580156111da573d6000803e3d6000fd5b505050506040513d60208110156111f057600080fd5b8101908080519060200190929190505050600560006101000a81548173ffffffffffffffffffffffffffffffffffffffff021916908373ffffffffffffffffffffffffffffffffffffffff160217905550600160009054906101000a900473ffffffffffffffffffffffffffffffffffffffff1673ffffffffffffffffffffffffffffffffffffffff1663358177736040518060400160405280600d81526020017f47616d65566172416e64466565000000000000000000000000000000000000008152506040518263ffffffff1660e01b81526004018080602001828103825283818151815260200191508051906020019080838360005b838110156113045780820151818401526020810190506112e9565b50505050905090810190601f1680156113315780820380516001836020036101000a031916815260200191505b509250505060206040518083038186803b15801561134e57600080fd5b505afa158015611362573d6000803e3d6000fd5b505050506040513d602081101561137857600080fd5b8101908080519060200190929190505050600460006101000a81548173ffffffffffffffffffffffffffffffffffffffff021916908373ffffffffffffffffffffffffffffffffffffffff160217905550600160009054906101000a900473ffffffffffffffffffffffffffffffffffffffff1673ffffffffffffffffffffffffffffffffffffffff1663358177736040518060400160405280600981526020017f5363686564756c657200000000000000000000000000000000000000000000008152506040518263ffffffff1660e01b81526004018080602001828103825283818151815260200191508051906020019080838360005b8381101561148c578082015181840152602081019050611471565b50505050905090810190601f1680156114b95780820380516001836020036101000a031916815260200191505b509250505060206040518083038186803b1580156114d657600080fd5b505afa1580156114ea573d6000803e3d6000fd5b505050506040513d602081101561150057600080fd5b8101908080519060200190929190505050600660006101000a81548173ffffffffffffffffffffffffffffffffffffffff021916908373ffffffffffffffffffffffffffffffffffffffff160217905550600160009054906101000a900473ffffffffffffffffffffffffffffffffffffffff1673ffffffffffffffffffffffffffffffffffffffff1663358177736040518060400160405280600d81526020017f43727970746f4b697474696573000000000000000000000000000000000000008152506040518263ffffffff1660e01b81526004018080602001828103825283818151815260200191508051906020019080838360005b838110156116145780820151818401526020810190506115f9565b50505050905090810190601f1680156116415780820380516001836020036101000a031916815260200191505b509250505060206040518083038186803b15801561165e57600080fd5b505afa158015611672573d6000803e3d6000fd5b505050506040513d602081101561168857600080fd5b8101908080519060200190929190505050600760006101000a81548173ffffffffffffffffffffffffffffffffffffffff021916908373ffffffffffffffffffffffffffffffffffffffff160217905550600160009054906101000a900473ffffffffffffffffffffffffffffffffffffffff1673ffffffffffffffffffffffffffffffffffffffff1663358177736040518060400160405280600981526020017f47616d6553746f726500000000000000000000000000000000000000000000008152506040518263ffffffff1660e01b81526004018080602001828103825283818151815260200191508051906020019080838360005b8381101561179c578082015181840152602081019050611781565b50505050905090810190601f1680156117c95780820380516001836020036101000a031916815260200191505b509250505060206040518083038186803b1580156117e657600080fd5b505afa1580156117fa573d6000803e3d6000fd5b505050506040513d602081101561181057600080fd5b8101908080519060200190929190505050600860006101000a81548173ffffffffffffffffffffffffffffffffffffffff021916908373ffffffffffffffffffffffffffffffffffffffff160217905550600160009054906101000a900473ffffffffffffffffffffffffffffffffffffffff1673ffffffffffffffffffffffffffffffffffffffff1663358177736040518060400160405280600781526020017f43726f6e4a6f62000000000000000000000000000000000000000000000000008152506040518263ffffffff1660e01b81526004018080602001828103825283818151815260200191508051906020019080838360005b83811015611924578082015181840152602081019050611909565b50505050905090810190601f1680156119515780820380516001836020036101000a031916815260200191505b509250505060206040518083038186803b15801561196e57600080fd5b505afa158015611982573d6000803e3d6000fd5b505050506040513d602081101561199857600080fd5b8101908080519060200190929190505050600960006101000a81548173ffffffffffffffffffffffffffffffffffffffff021916908373ffffffffffffffffffffffffffffffffffffffff160217905550600160009054906101000a900473ffffffffffffffffffffffffffffffffffffffff1673ffffffffffffffffffffffffffffffffffffffff1663358177736040518060400160405280600a81526020017f4b697474696548656c6c000000000000000000000000000000000000000000008152506040518263ffffffff1660e01b81526004018080602001828103825283818151815260200191508051906020019080838360005b83811015611aac578082015181840152602081019050611a91565b50505050905090810190601f168015611ad95780820380516001836020036101000a031916815260200191505b509250505060206040518083038186803b158015611af657600080fd5b505afa158015611b0a573d6000803e3d6000fd5b505050506040513d6020811015611b2057600080fd5b8101908080519060200190929190505050600a60006101000a81548173ffffffffffffffffffffffffffffffffffffffff021916908373ffffffffffffffffffffffffffffffffffffffff160217905550565b6000809054906101000a900473ffffffffffffffffffffffffffffffffffffffff1681565b600080600460009054906101000a900473ffffffffffffffffffffffffffffffffffffffff1673ffffffffffffffffffffffffffffffffffffffff1663115807236040518163ffffffff1660e01b815260040160206040518083038186803b158015611c0357600080fd5b505afa158015611c17573d6000803e3d6000fd5b505050506040513d6020811015611c2d57600080fd5b810190808051906020019092919050505090506000600460009054906101000a900473ffffffffffffffffffffffffffffffffffffffff1673ffffffffffffffffffffffffffffffffffffffff166394ec12fd6040518163ffffffff1660e01b815260040160206040518083038186803b158015611caa57600080fd5b505afa158015611cbe573d6000803e3d6000fd5b505050506040513d6020811015611cd457600080fd5b810190808051906020019092919050505090506000600460009054906101000a900473ffffffffffffffffffffffffffffffffffffffff1673ffffffffffffffffffffffffffffffffffffffff16632341678a6040518163ffffffff1660e01b815260040160206040518083038186803b158015611d5157600080fd5b505afa158015611d65573d6000803e3d6000fd5b505050506040513d6020811015611d7b57600080fd5b81019080805190602001909291905050509050600860009054906101000a900473ffffffffffffffffffffffffffffffffffffffff1673ffffffffffffffffffffffffffffffffffffffff1663c9fe0cef8484846040518463ffffffff1660e01b815260040180848152602001838152602001828152602001935050505060206040518083038186803b158015611e1157600080fd5b505afa158015611e25573d6000803e3d6000fd5b505050506040513d6020811015611e3b57600080fd5b8101908080519060200190929190505050935050505090565b6000809054906101000a900473ffffffffffffffffffffffffffffffffffffffff1673ffffffffffffffffffffffffffffffffffffffff163373ffffffffffffffffffffffffffffffffffffffff1614611eaa57fe5b80600160006101000a81548173ffffffffffffffffffffffffffffffffffffffff021916908373ffffffffffffffffffffffffffffffffffffffff16021790555050565b6040518060400160405280600b81526020017f47616d654d616e61676572000000000000000000000000000000000000000000815250611f2d81614383565b6000600b6000848152602001908152602001600020549050600960009054906101000a900473ffffffffffffffffffffffffffffffffffffffff1673ffffffffffffffffffffffffffffffffffffffff16639d8f101f6040518060400160405280600c81526020017f47616d654372656174696f6e0000000000000000000000000000000000000000815250836040518363ffffffff1660e01b81526004018080602001838152602001828103825284818151815260200191508051906020019080838360005b8381101561200f578082015181840152602081019050611ff4565b50505050905090810190601f16801561203c5780820380516001836020036101000a031916815260200191505b509350505050600060405180830381600087803b15801561205c57600080fd5b505af1158015612070573d6000803e3d6000fd5b50505050505050565b6040518060400160405280600a81526020017f474d5365747465724442000000000000000000000000000000000000000000008152506120b881614383565b6000821415612466576000600360009054906101000a900473ffffffffffffffffffffffffffffffffffffffff1673ffffffffffffffffffffffffffffffffffffffff16638851470d856040518263ffffffff1660e01b81526004018082815260200191505060606040518083038186803b15801561213657600080fd5b505afa15801561214a573d6000803e3d6000fd5b505050506040513d606081101561216057600080fd5b81019080805190602001909291908051906020019092919080519060200190929190505050509150506000600960009054906101000a900473ffffffffffffffffffffffffffffffffffffffff1673ffffffffffffffffffffffffffffffffffffffff1663c19304966040518060400160405280600c81526020017f47616d654372656174696f6e00000000000000000000000000000000000000008152508488604051602401808281526020019150506040516020818303038152906040527ff4dc834a000000000000000000000000000000000000000000000000000000007bffffffffffffffffffffffffffffffffffffffffffffffffffffffff19166020820180517bffffffffffffffffffffffffffffffffffffffffffffffffffffffff83818316178352505050506040518463ffffffff1660e01b8152600401808060200184815260200180602001838103835286818151815260200191508051906020019080838360005b838110156122e75780820151818401526020810190506122cc565b50505050905090810190601f1680156123145780820380516001836020036101000a031916815260200191505b50838103825284818151815260200191508051906020019080838360005b8381101561234d578082015181840152602081019050612332565b50505050905090810190601f16801561237a5780820380516001836020036101000a031916815260200191505b5095505050505050602060405180830381600087803b15801561239c57600080fd5b505af11580156123b0573d6000803e3d6000fd5b505050506040513d60208110156123c657600080fd5b8101908080519060200190929190505050905084817fa3cd382277b18d8b5a2ffe52afc5a1405eee5818fa12b7f0678f40e4dc4f2054846040518082815260200180602001828103825260118152602001807f4368616e676520737461746520746f20310000000000000000000000000000008152506020019250505060405180910390a380600b60008781526020019081526020016000208190555050505b6001821415612814576000600360009054906101000a900473ffffffffffffffffffffffffffffffffffffffff1673ffffffffffffffffffffffffffffffffffffffff16638851470d856040518263ffffffff1660e01b81526004018082815260200191505060606040518083038186803b1580156124e457600080fd5b505afa1580156124f8573d6000803e3d6000fd5b505050506040513d606081101561250e57600080fd5b81019080805190602001909291908051906020019092919080519060200190929190505050505090506000600960009054906101000a900473ffffffffffffffffffffffffffffffffffffffff1673ffffffffffffffffffffffffffffffffffffffff1663c19304966040518060400160405280600c81526020017f47616d654372656174696f6e00000000000000000000000000000000000000008152508488604051602401808281526020019150506040516020818303038152906040527fdaff832f000000000000000000000000000000000000000000000000000000007bffffffffffffffffffffffffffffffffffffffffffffffffffffffff19166020820180517bffffffffffffffffffffffffffffffffffffffffffffffffffffffff83818316178352505050506040518463ffffffff1660e01b8152600401808060200184815260200180602001838103835286818151815260200191508051906020019080838360005b8381101561269557808201518184015260208101905061267a565b50505050905090810190601f1680156126c25780820380516001836020036101000a031916815260200191505b50838103825284818151815260200191508051906020019080838360005b838110156126fb5780820151818401526020810190506126e0565b50505050905090810190601f1680156127285780820380516001836020036101000a031916815260200191505b5095505050505050602060405180830381600087803b15801561274a57600080fd5b505af115801561275e573d6000803e3d6000fd5b505050506040513d602081101561277457600080fd5b8101908080519060200190929190505050905084817fa3cd382277b18d8b5a2ffe52afc5a1405eee5818fa12b7f0678f40e4dc4f2054846040518082815260200180602001828103825260118152602001807f4368616e676520737461746520746f20320000000000000000000000000000008152506020019250505060405180910390a380600b60008781526020019081526020016000208190555050505b6002821415612bc2576000600360009054906101000a900473ffffffffffffffffffffffffffffffffffffffff1673ffffffffffffffffffffffffffffffffffffffff16638851470d856040518263ffffffff1660e01b81526004018082815260200191505060606040518083038186803b15801561289257600080fd5b505afa1580156128a6573d6000803e3d6000fd5b505050506040513d60608110156128bc57600080fd5b81019080805190602001909291908051906020019092919080519060200190929190505050925050506000600960009054906101000a900473ffffffffffffffffffffffffffffffffffffffff1673ffffffffffffffffffffffffffffffffffffffff1663c19304966040518060400160405280600c81526020017f47616d654372656174696f6e00000000000000000000000000000000000000008152508488604051602401808281526020019150506040516020818303038152906040527f69ea0ea7000000000000000000000000000000000000000000000000000000007bffffffffffffffffffffffffffffffffffffffffffffffffffffffff19166020820180517bffffffffffffffffffffffffffffffffffffffffffffffffffffffff83818316178352505050506040518463ffffffff1660e01b8152600401808060200184815260200180602001838103835286818151815260200191508051906020019080838360005b83811015612a43578082015181840152602081019050612a28565b50505050905090810190601f168015612a705780820380516001836020036101000a031916815260200191505b50838103825284818151815260200191508051906020019080838360005b83811015612aa9578082015181840152602081019050612a8e565b50505050905090810190601f168015612ad65780820380516001836020036101000a031916815260200191505b5095505050505050602060405180830381600087803b158015612af857600080fd5b505af1158015612b0c573d6000803e3d6000fd5b505050506040513d6020811015612b2257600080fd5b8101908080519060200190929190505050905084817fa3cd382277b18d8b5a2ffe52afc5a1405eee5818fa12b7f0678f40e4dc4f2054846040518082815260200180602001828103825260118152602001807f4368616e676520737461746520746f20330000000000000000000000000000008152506020019250505060405180910390a380600b60008781526020019081526020016000208190555050505b505050565b600460009054906101000a900473ffffffffffffffffffffffffffffffffffffffff1681565b600860009054906101000a900473ffffffffffffffffffffffffffffffffffffffff1681565b6040518060400160405280600b81526020017f47616d654d616e61676572000000000000000000000000000000000000000000815250612c5281614383565b6000600b60008481526020019081526020016000205490506000600360009054906101000a900473ffffffffffffffffffffffffffffffffffffffff1673ffffffffffffffffffffffffffffffffffffffff16638851470d856040518263ffffffff1660e01b81526004018082815260200191505060606040518083038186803b158015612cdf57600080fd5b505afa158015612cf3573d6000803e3d6000fd5b505050506040513d6060811015612d0957600080fd5b81019080805190602001909291908051906020019092919080519060200190929190505050925050506000600960009054906101000a900473ffffffffffffffffffffffffffffffffffffffff1673ffffffffffffffffffffffffffffffffffffffff1663ecb7035b6040518060400160405280600c81526020017f47616d654372656174696f6e000000000000000000000000000000000000000081525085856040518463ffffffff1660e01b81526004018080602001848152602001838152602001828103825285818151815260200191508051906020019080838360005b83811015612e05578082015181840152602081019050612dea565b50505050905090810190601f168015612e325780820380516001836020036101000a031916815260200191505b50945050505050602060405180830381600087803b158015612e5357600080fd5b505af1158015612e67573d6000803e3d6000fd5b505050506040513d6020811015612e7d57600080fd5b8101908080519060200190929190505050905084817fa3cd382277b18d8b5a2ffe52afc5a1405eee5818fa12b7f0678f40e4dc4f2054846040518082815260200180602001828103825260118152602001807f4368616e676520737461746520746f20330000000000000000000000000000008152506020019250505060405180910390a380600b6000878152602001908152602001600020819055505050505050565b600a60009054906101000a900473ffffffffffffffffffffffffffffffffffffffff1681565b600660009054906101000a900473ffffffffffffffffffffffffffffffffffffffff1681565b600960009054906101000a900473ffffffffffffffffffffffffffffffffffffffff1681565b6040518060400160405280600781526020017f43726f6e4a6f6200000000000000000000000000000000000000000000000000815250612fd281614383565b600160009054906101000a900473ffffffffffffffffffffffffffffffffffffffff1673ffffffffffffffffffffffffffffffffffffffff1663358177736040518060400160405280600981526020017f466f7266656974657200000000000000000000000000000000000000000000008152506040518263ffffffff1660e01b81526004018080602001828103825283818151815260200191508051906020019080838360005b8381101561309557808201518184015260208101905061307a565b50505050905090810190601f1680156130c25780820380516001836020036101000a031916815260200191505b509250505060206040518083038186803b1580156130df57600080fd5b505afa1580156130f3573d6000803e3d6000fd5b505050506040513d602081101561310957600080fd5b810190808051906020019092919050505073ffffffffffffffffffffffffffffffffffffffff1663b0c5831e836040518263ffffffff1660e01b81526004018082815260200180602001828103825260118152602001807f446964206e6f742068697420737461727400000000000000000000000000000081525060200192505050600060405180830381600087803b1580156131a557600080fd5b505af11580156131b9573d6000803e3d6000fd5b505050505050565b600160009054906101000a900473ffffffffffffffffffffffffffffffffffffffff1681565b600760009054906101000a900473ffffffffffffffffffffffffffffffffffffffff1681565b600260009054906101000a900473ffffffffffffffffffffffffffffffffffffffff1681565b6000809054906101000a900473ffffffffffffffffffffffffffffffffffffffff1673ffffffffffffffffffffffffffffffffffffffff163373ffffffffffffffffffffffffffffffffffffffff161461328957fe5b600073ffffffffffffffffffffffffffffffffffffffff168173ffffffffffffffffffffffffffffffffffffffff16146132fe57806000806101000a81548173ffffffffffffffffffffffffffffffffffffffff021916908373ffffffffffffffffffffffffffffffffffffffff1602179055505b50565b6040518060400160405280600781526020017f43726f6e4a6f620000000000000000000000000000000000000000000000000081525061334081614383565b6000600360009054906101000a900473ffffffffffffffffffffffffffffffffffffffff1673ffffffffffffffffffffffffffffffffffffffff1663ffde0c74846040518263ffffffff1660e01b81526004018082815260200191505060206040518083038186803b1580156133b557600080fd5b505afa1580156133c9573d6000803e3d6000fd5b505050506040513d60208110156133df57600080fd5b81019080805190602001909291905050509050600160009054906101000a900473ffffffffffffffffffffffffffffffffffffffff1673ffffffffffffffffffffffffffffffffffffffff1663358177736040518060400160405280600981526020017f466f7266656974657200000000000000000000000000000000000000000000008152506040518263ffffffff1660e01b81526004018080602001828103825283818151815260200191508051906020019080838360005b838110156134b557808201518184015260208101905061349a565b50505050905090810190601f1680156134e25780820380516001836020036101000a031916815260200191505b509250505060206040518083038186803b1580156134ff57600080fd5b505afa158015613513573d6000803e3d6000fd5b505050506040513d602081101561352957600080fd5b810190808051906020019092919050505073ffffffffffffffffffffffffffffffffffffffff1663304b950384836040518363ffffffff1660e01b81526004018083815260200182815260200192505050600060405180830381600087803b15801561359457600080fd5b505af11580156135a8573d6000803e3d6000fd5b50505050600360009054906101000a900473ffffffffffffffffffffffffffffffffffffffff1673ffffffffffffffffffffffffffffffffffffffff1663ffde0c74846040518263ffffffff1660e01b81526004018082815260200191505060206040518083038186803b15801561361f57600080fd5b505afa158015613633573d6000803e3d6000fd5b505050506040513d602081101561364957600080fd5b8101908080519060200190929190505050905060008114156136f357600260009054906101000a900473ffffffffffffffffffffffffffffffffffffffff1673ffffffffffffffffffffffffffffffffffffffff1663f4dc834a846040518263ffffffff1660e01b815260040180828152602001915050600060405180830381600087803b1580156136da57600080fd5b505af11580156136ee573d6000803e3d6000fd5b505050505b505050565b613700614b84565b600073ffffffffffffffffffffffffffffffffffffffff163373ffffffffffffffffffffffffffffffffffffffff16141561373757fe5b6137756040518060400160405280600681526020017f706c617965720000000000000000000000000000000000000000000000000000815250614d0e565b6137e7576040517f08c379a000000000000000000000000000000000000000000000000000000000815260040180806020018281038252600b8152602001807f4f6e6c7920706c6179657200000000000000000000000000000000000000000081525060200191505060405180910390fd5b6137ef614f8a565b818173ffffffffffffffffffffffffffffffffffffffff16600760009054906101000a900473ffffffffffffffffffffffffffffffffffffffff1673ffffffffffffffffffffffffffffffffffffffff16636352211e836040518263ffffffff1660e01b81526004018082815260200191505060206040518083038186803b15801561387a57600080fd5b505afa15801561388e573d6000803e3d6000fd5b505050506040513d60208110156138a457600080fd5b810190808051906020019092919050505073ffffffffffffffffffffffffffffffffffffffff1614613921576040517f08c379a00000000000000000000000000000000000000000000000000000000081526004018080602001828103825260248152602001806150406024913960400191505060405180910390fd5b600061392b614f8a565b9050600560009054906101000a900473ffffffffffffffffffffffffffffffffffffffff1673ffffffffffffffffffffffffffffffffffffffff166342db158982613974611b98565b6040518363ffffffff1660e01b8152600401808373ffffffffffffffffffffffffffffffffffffffff1673ffffffffffffffffffffffffffffffffffffffff16815260200182815260200192505050602060405180830381600087803b1580156139dd57600080fd5b505af11580156139f1573d6000803e3d6000fd5b505050506040513d6020811015613a0757600080fd5b8101908080519060200190929190505050506000600360009054906101000a900473ffffffffffffffffffffffffffffffffffffffff1673ffffffffffffffffffffffffffffffffffffffff166337507a0c866040518263ffffffff1660e01b81526004018082815260200191505060206040518083038186803b158015613a8e57600080fd5b505afa158015613aa2573d6000803e3d6000fd5b505050506040513d6020811015613ab857600080fd5b810190808051906020019092919050505014613b3c576040517f08c379a00000000000000000000000000000000000000000000000000000000081526004018080602001828103825260208152602001807f4b697474696520697320616c726561647920706c6179696e6720612067616d6581525060200191505060405180910390fd5b600660009054906101000a900473ffffffffffffffffffffffffffffffffffffffff1673ffffffffffffffffffffffffffffffffffffffff16636df970c585836040518363ffffffff1660e01b8152600401808381526020018273ffffffffffffffffffffffffffffffffffffffff1673ffffffffffffffffffffffffffffffffffffffff16815260200192505050600060405180830381600087803b158015613be557600080fd5b505af1158015613bf9573d6000803e3d6000fd5b505050508073ffffffffffffffffffffffffffffffffffffffff16847fda5118e11956b6ccec7a349074d6efada2b70b987d2eabba029de60d8f67b1aa426040518082815260200191505060405180910390a350505050565b613c5a614b84565b600073ffffffffffffffffffffffffffffffffffffffff163373ffffffffffffffffffffffffffffffffffffffff161415613c9157fe5b613ccf6040518060400160405280600b81526020017f73757065725f61646d696e000000000000000000000000000000000000000000815250614d0e565b613d41576040517f08c379a00000000000000000000000000000000000000000000000000000000081526004018080602001828103825260108152602001807f4f6e6c792073757065722061646d696e0000000000000000000000000000000081525060200191505060405180910390fd5b84838173ffffffffffffffffffffffffffffffffffffffff16600760009054906101000a900473ffffffffffffffffffffffffffffffffffffffff1673ffffffffffffffffffffffffffffffffffffffff16636352211e836040518263ffffffff1660e01b81526004018082815260200191505060206040518083038186803b158015613dcd57600080fd5b505afa158015613de1573d6000803e3d6000fd5b505050506040513d6020811015613df757600080fd5b810190808051906020019092919050505073ffffffffffffffffffffffffffffffffffffffff1614613e74576040517f08c379a00000000000000000000000000000000000000000000000000000000081526004018080602001828103825260248152602001806150406024913960400191505060405180910390fd5b85848173ffffffffffffffffffffffffffffffffffffffff16600760009054906101000a900473ffffffffffffffffffffffffffffffffffffffff1673ffffffffffffffffffffffffffffffffffffffff16636352211e836040518263ffffffff1660e01b81526004018082815260200191505060206040518083038186803b158015613f0057600080fd5b505afa158015613f14573d6000803e3d6000fd5b505050506040513d6020811015613f2a57600080fd5b810190808051906020019092919050505073ffffffffffffffffffffffffffffffffffffffff1614613fa7576040517f08c379a00000000000000000000000000000000000000000000000000000000081526004018080602001828103825260248152602001806150406024913960400191505060405180910390fd5b600660009054906101000a900473ffffffffffffffffffffffffffffffffffffffff1673ffffffffffffffffffffffffffffffffffffffff1663c484819d886040518263ffffffff1660e01b81526004018082815260200191505060206040518083038186803b15801561401a57600080fd5b505afa15801561402e573d6000803e3d6000fd5b505050506040513d602081101561404457600080fd5b8101908080519060200190929190505050156140ab576040517f08c379a00000000000000000000000000000000000000000000000000000000081526004018080602001828103825260268152602001806150646026913960400191505060405180910390fd5b600660009054906101000a900473ffffffffffffffffffffffffffffffffffffffff1673ffffffffffffffffffffffffffffffffffffffff1663c484819d876040518263ffffffff1660e01b81526004018082815260200191505060206040518083038186803b15801561411e57600080fd5b505afa158015614132573d6000803e3d6000fd5b505050506040513d602081101561414857600080fd5b8101908080519060200190929190505050156141af576040517f08c379a00000000000000000000000000000000000000000000000000000000081526004018080602001828103825260268152602001806150646026913960400191505060405180910390fd5b600a60009054906101000a900473ffffffffffffffffffffffffffffffffffffffff1673ffffffffffffffffffffffffffffffffffffffff168973ffffffffffffffffffffffffffffffffffffffff161415801561425b5750600a60009054906101000a900473ffffffffffffffffffffffffffffffffffffffff1673ffffffffffffffffffffffffffffffffffffffff168873ffffffffffffffffffffffffffffffffffffffff1614155b6142cd576040517f08c379a00000000000000000000000000000000000000000000000000000000081526004018080602001828103825260178152602001807f4b697474696548656c6c206f776e73204b69747469657300000000000000000081525060200191505060405180910390fd5b8873ffffffffffffffffffffffffffffffffffffffff16877fda5118e11956b6ccec7a349074d6efada2b70b987d2eabba029de60d8f67b1aa426040518082815260200191505060405180910390a38773ffffffffffffffffffffffffffffffffffffffff16867fda5118e11956b6ccec7a349074d6efada2b70b987d2eabba029de60d8f67b1aa426040518082815260200191505060405180910390a3614378898989898961461e565b505050505050505050565b600073ffffffffffffffffffffffffffffffffffffffff16600160009054906101000a900473ffffffffffffffffffffffffffffffffffffffff1673ffffffffffffffffffffffffffffffffffffffff161415614448576040517f08c379a00000000000000000000000000000000000000000000000000000000081526004018080602001828103825260088152602001807f4e6f2050726f787900000000000000000000000000000000000000000000000081525060200191505060405180910390fd5b6000600160009054906101000a900473ffffffffffffffffffffffffffffffffffffffff1673ffffffffffffffffffffffffffffffffffffffff166335817773836040518263ffffffff1660e01b81526004018080602001828103825283818151815260200191508051906020019080838360005b838110156144d85780820151818401526020810190506144bd565b50505050905090810190601f1680156145055780820380516001836020036101000a031916815260200191505b509250505060206040518083038186803b15801561452257600080fd5b505afa158015614536573d6000803e3d6000fd5b505050506040513d602081101561454c57600080fd5b81019080805190602001909291905050509050600073ffffffffffffffffffffffffffffffffffffffff168173ffffffffffffffffffffffffffffffffffffffff16141561459657fe5b8073ffffffffffffffffffffffffffffffffffffffff163373ffffffffffffffffffffffffffffffffffffffff161461461a576040517f08c379a000000000000000000000000000000000000000000000000000000000815260040180806020018281038252602d81526020018061508a602d913960400191505060405180910390fd5b5050565b6000600260009054906101000a900473ffffffffffffffffffffffffffffffffffffffff1673ffffffffffffffffffffffffffffffffffffffff1663a4a0aa5587878787876040518663ffffffff1660e01b8152600401808673ffffffffffffffffffffffffffffffffffffffff1673ffffffffffffffffffffffffffffffffffffffff1681526020018573ffffffffffffffffffffffffffffffffffffffff1673ffffffffffffffffffffffffffffffffffffffff16815260200184815260200183815260200182815260200195505050505050602060405180830381600087803b15801561470d57600080fd5b505af1158015614721573d6000803e3d6000fd5b505050506040513d602081101561473757600080fd5b81019080805190602001909291905050509050600860009054906101000a900473ffffffffffffffffffffffffffffffffffffffff1673ffffffffffffffffffffffffffffffffffffffff16633422476d826040518263ffffffff1660e01b815260040180828152602001915050600060405180830381600087803b1580156147bf57600080fd5b505af11580156147d3573d6000803e3d6000fd5b50505050600560009054906101000a900473ffffffffffffffffffffffffffffffffffffffff1673ffffffffffffffffffffffffffffffffffffffff1663f1d4be10826040518263ffffffff1660e01b815260040180828152602001915050602060405180830381600087803b15801561484c57600080fd5b505af1158015614860573d6000803e3d6000fd5b505050506040513d602081101561487657600080fd5b810190808051906020019092919050505050600260009054906101000a900473ffffffffffffffffffffffffffffffffffffffff1673ffffffffffffffffffffffffffffffffffffffff16638825546b826040518263ffffffff1660e01b815260040180828152602001915050600060405180830381600087803b1580156148fd57600080fd5b505af1158015614911573d6000803e3d6000fd5b50505050600260009054906101000a900473ffffffffffffffffffffffffffffffffffffffff1673ffffffffffffffffffffffffffffffffffffffff1663fd3d1c248486846040518463ffffffff1660e01b8152600401808481526020018381526020018281526020019350505050600060405180830381600087803b15801561499a57600080fd5b505af11580156149ae573d6000803e3d6000fd5b50505050600860009054906101000a900473ffffffffffffffffffffffffffffffffffffffff1673ffffffffffffffffffffffffffffffffffffffff16637b179988826040518263ffffffff1660e01b815260040180828152602001915050600060405180830381600087803b158015614a2757600080fd5b505af1158015614a3b573d6000803e3d6000fd5b50505050600860009054906101000a900473ffffffffffffffffffffffffffffffffffffffff1673ffffffffffffffffffffffffffffffffffffffff16630c03955f826040518263ffffffff1660e01b815260040180828152602001915050600060405180830381600087803b158015614ab457600080fd5b505af1158015614ac8573d6000803e3d6000fd5b50505050807fc15da047551ef562c7c09ead43c6e8ffd313e0337fa024eba1d156410212a4398685898887604051808673ffffffffffffffffffffffffffffffffffffffff1673ffffffffffffffffffffffffffffffffffffffff1681526020018581526020018473ffffffffffffffffffffffffffffffffffffffff1673ffffffffffffffffffffffffffffffffffffffff1681526020018381526020018281526020019550505050505060405180910390a2505050505050565b600073ffffffffffffffffffffffffffffffffffffffff16600160009054906101000a900473ffffffffffffffffffffffffffffffffffffffff1673ffffffffffffffffffffffffffffffffffffffff161415614c49576040517f08c379a00000000000000000000000000000000000000000000000000000000081526004018080602001828103825260088152602001807f4e6f2050726f787900000000000000000000000000000000000000000000000081525060200191505060405180910390fd5b600160009054906101000a900473ffffffffffffffffffffffffffffffffffffffff1673ffffffffffffffffffffffffffffffffffffffff163373ffffffffffffffffffffffffffffffffffffffff1614614d0c576040517f08c379a00000000000000000000000000000000000000000000000000000000081526004018080602001828103825260128152602001807f4f6e6c79207468726f7567682050726f7879000000000000000000000000000081525060200191505060405180910390fd5b565b6000600160009054906101000a900473ffffffffffffffffffffffffffffffffffffffff1673ffffffffffffffffffffffffffffffffffffffff1663358177736040518060400160405280600681526020017f526f6c65444200000000000000000000000000000000000000000000000000008152506040518263ffffffff1660e01b81526004018080602001828103825283818151815260200191508051906020019080838360005b83811015614dd3578082015181840152602081019050614db8565b50505050905090810190601f168015614e005780820380516001836020036101000a031916815260200191505b509250505060206040518083038186803b158015614e1d57600080fd5b505afa158015614e31573d6000803e3d6000fd5b505050506040513d6020811015614e4757600080fd5b810190808051906020019092919050505073ffffffffffffffffffffffffffffffffffffffff16636c9cd09783614e7c614f8a565b6040518363ffffffff1660e01b815260040180806020018373ffffffffffffffffffffffffffffffffffffffff1673ffffffffffffffffffffffffffffffffffffffff168152602001828103825284818151815260200191508051906020019080838360005b83811015614efd578082015181840152602081019050614ee2565b50505050905090810190601f168015614f2a5780820380516001836020036101000a031916815260200191505b50935050505060206040518083038186803b158015614f4857600080fd5b505afa158015614f5c573d6000803e3d6000fd5b505050506040513d6020811015614f7257600080fd5b81019080805190602001909291905050509050919050565b6000600160009054906101000a900473ffffffffffffffffffffffffffffffffffffffff1673ffffffffffffffffffffffffffffffffffffffff163373ffffffffffffffffffffffffffffffffffffffff1614614fe95733905061503c565b6000601436036000602052601481602c37602051915050600073ffffffffffffffffffffffffffffffffffffffff168173ffffffffffffffffffffffffffffffffffffffff16141561503757fe5b809150505b9056fe596f7520617265206e6f7420746865206f776e6572206f662074686973206b69747469656669676874657220697320616c7265616479206c697374656420666f72206d61746368696e67416363657373206973206f6e6c7920616c6c6f7765642066726f6d20737065636966696320636f6e7472616374a265627a7a72315820386451e07a73d0ecd816f815d2e2a98c3f990642a1ebe0fa223d98a2d6e2dc6c64736f6c63430005110032",
  "source": "/**\n * @title GamesManager\n *\n * @author @wafflemakr @karl @vikrammandal\n\n *\n */\n//modifier class (DSAuth )\n//Event class ( DSNote )\n//\n// This program is free software: you can redistribute it and/or modify\n// it under the terms of the GNU General Public License as published by\n// the Free Software Foundation, either version 3 of the License, or\n// (at your option) any later version.\n\n// This program is distributed in the hope that it will be useful,\n// but WITHOUT ANY WARRANTY; without even the implied warranty of\n// MERCHANTABILITY or FITNESS FOR A PARTICULAR PURPOSE.  See the\n// GNU General Public License for more details.\n\n// You should have received a copy of the GNU General Public License\n// along with this program.  If not, see <http://www.gnu.org/licenses/>.\n\npragma solidity ^0.5.5;\n\nimport '../proxy/Proxied.sol';\nimport \"../databases/GMSetterDB.sol\";\nimport \"../databases/GMGetterDB.sol\";\nimport \"../../GameVarAndFee.sol\";\nimport \"../endowment/EndowmentFund.sol\";\nimport \"./Scheduler.sol\";\nimport \"../../libs/SafeMath.sol\";\nimport '../../authority/Guard.sol';\nimport \"../../interfaces/IKittyCore.sol\";\nimport \"./GameStore.sol\";\nimport \"../../CronJob.sol\";\nimport \"./Forfeiter.sol\";\nimport '../kittieHELL/KittieHell.sol';\n\ncontract GameCreation is Proxied, Guard {\n    using SafeMath for uint256;\n\n    //Contract Variables\n    GMSetterDB public gmSetterDB;\n    GMGetterDB public gmGetterDB;\n    GameVarAndFee public gameVarAndFee;\n    EndowmentFund public endowmentFund;\n    Scheduler public scheduler;\n    IKittyCore public cryptoKitties;\n    GameStore public gameStore;\n    CronJob public cronJob;\n    KittieHell public kittieHELL;\n\n    //EVENTS\n    event NewGame(uint indexed gameId, address playerBlack, uint kittieBlack, address playerRed, uint kittieRed, uint gameStartTime);\n    event NewListing(uint indexed kittieId, address indexed owner, uint timeListed);\n    event Scheduled(uint indexed jobId, uint jobTime, uint indexed gameId, string job);\n\n    mapping(uint256 => uint256) public cronJobsForGames;\n\n    modifier onlyKittyOwner(address player, uint kittieId) {\n        require(cryptoKitties.ownerOf(kittieId) == player, \"You are not the owner of this kittie\");\n        _;\n    }\n\n    /**\n    * @dev Sets related contracts\n    * @dev Can be called only by the owner of this contract\n    */\n    function initialize() external onlyOwner {\n\n        gmSetterDB = GMSetterDB(proxy.getContract(CONTRACT_NAME_GM_SETTER_DB));\n        gmGetterDB = GMGetterDB(proxy.getContract(CONTRACT_NAME_GM_GETTER_DB));\n        endowmentFund = EndowmentFund(proxy.getContract(CONTRACT_NAME_ENDOWMENT_FUND));\n        gameVarAndFee = GameVarAndFee(proxy.getContract(CONTRACT_NAME_GAMEVARANDFEE));\n        scheduler = Scheduler(proxy.getContract(CONTRACT_NAME_SCHEDULER));\n        cryptoKitties = IKittyCore(proxy.getContract(CONTRACT_NAME_CRYPTOKITTIES));\n        gameStore = GameStore(proxy.getContract(CONTRACT_NAME_GAMESTORE));\n        cronJob = CronJob(proxy.getContract(CONTRACT_NAME_CRONJOB));\n        kittieHELL = KittieHell(proxy.getContract(CONTRACT_NAME_KITTIEHELL));\n    }\n\n    /**\n     * @dev calculate listing fee dynamically as a percentage of initial honey pot\n     */\n    function calculateListingFee() public view returns(uint256)\n    {\n        uint256 percentageHoneyPot = gameVarAndFee.getPercentageForListingFee();\n        uint256 initialHoneypotEth = gameVarAndFee.getEthPerGame();\n        uint256 initialHoneypotKTY = gameVarAndFee.getTokensPerGame();\n        return gameStore.calculateDynamicFee(percentageHoneyPot, initialHoneypotEth, initialHoneypotKTY);\n    }\n\n    /**\n     * @dev Checks and prevents unverified accounts, only accounts with available kitties can list\n     */\n    function listKittie\n    (\n        uint kittieId\n    )\n        external\n        onlyProxy onlyPlayer\n        onlyKittyOwner(getOriginalSender(), kittieId) //currently doesKittieBelong is not used, better\n    {\n        address player = getOriginalSender();\n\n        //Pay Listing Fee\n        endowmentFund.contributeKTY(player, calculateListingFee());\n\n        require((gmGetterDB.getGameOfKittie(kittieId) == 0), \"Kittie is already playing a game\");\n\n        scheduler.addKittyToList(kittieId, player);\n\n        emit NewListing(kittieId, player, now);\n    }\n\n    /**\n     * @dev Check to make sure the only superADmin can list, Takes in two kittieID's and accounts as well as the jackpot ether and token number.\n     */\n    function manualMatchKitties\n    (\n        address playerRed, address playerBlack,\n        uint256 kittyRed, uint256 kittyBlack,\n        uint gameStartTime\n    )\n        external\n        onlyProxy onlySuperAdmin\n        onlyKittyOwner(playerRed, kittyRed)\n        onlyKittyOwner(playerBlack, kittyBlack)\n    {\n        require(!scheduler.isKittyListedForMatching(kittyRed), \"fighter is already listed for matching\");\n        require(!scheduler.isKittyListedForMatching(kittyBlack), \"fighter is already listed for matching\");\n        \n        require(playerRed != address(kittieHELL) && playerBlack != address(kittieHELL), 'KittieHell owns Kitties');\n\n        emit NewListing(kittyRed, playerRed, now);\n        emit NewListing(kittyBlack, playerBlack, now);\n\n        generateFight(playerRed, playerBlack, kittyRed, kittyBlack, gameStartTime);\n    }\n\n    /**\n     * @dev Creates game and generates gameId\n     * @return gameId\n     */\n    function generateFight\n    (\n        address playerRed, address playerBlack,\n        uint256 kittyRed, uint256 kittyBlack,\n        uint gameStartTime\n    )\n        internal\n    {\n        uint256 gameId = gmSetterDB.createGame(\n            playerRed, playerBlack, kittyRed, kittyBlack, gameStartTime);\n        \n        gameStore.lockVars(gameId);\n\n        /*uint initialEth = */endowmentFund.generateHoneyPot(gameId);\n        gmSetterDB.setHoneypotInfo(gameId);\n\n        gmSetterDB.updateKittiesGame(kittyBlack, kittyRed, gameId);\n\n        // update ticket fee dynamically as a percentage of initial honeypot size\n        gameStore.updateTicketFee(gameId);\n\n        // update betting fee dynamically as a percentage of initial honeypot size\n        gameStore.updateBettingFee(gameId);\n\n        emit NewGame(gameId, playerBlack, kittyBlack, playerRed, kittyRed, gameStartTime);\n    }\n\n    /**\n     * @dev External function for Scheduler to call\n     * @return gameId\n     */\n    function createFight\n    (\n        address playerRed, address playerBlack,\n        uint256 kittyRed, uint256 kittyBlack,\n        uint gameStartTime\n    )\n        external\n        onlyContract(CONTRACT_NAME_SCHEDULER)\n    {\n        generateFight(playerRed, playerBlack, kittyRed, kittyBlack, gameStartTime);\n    }\n\n    function removeKitties(uint256 gameId)\n        external\n        onlyContract(CONTRACT_NAME_GAMEMANAGER)\n    {\n        ( , ,uint256 kittyBlack, uint256 kittyRed) = gmGetterDB.getGamePlayers(gameId);\n        //Set gameId to 0 to both kitties (not playing any game)\n        gmSetterDB.updateKittiesGame(kittyBlack, kittyRed, 0);   \n    }\n\n\n    // ==== CRONJOBS FUNCTIONS\n\n    function scheduleJobs(uint256 gameId, uint256 state)\n    external\n    onlyContract(CONTRACT_NAME_GM_SETTER_DB)\n    {\n        if(state == 0){\n            (,uint preStartTime,) = gmGetterDB.getGameTimes(gameId);\n            uint scheduledJob = cronJob.addCronJob(CONTRACT_NAME_GAMECREATION, preStartTime, abi.encodeWithSignature(\"updateGameStateCron(uint256)\", gameId));\n            emit Scheduled(scheduledJob, preStartTime, gameId, \"Change state to 1\");\n            cronJobsForGames[gameId] = scheduledJob;\n        }\n\n        if(state == 1){\n            //If it is PRE_GAME STATE, again, when the job is scheduled (startTime), it should start, as both players press start\n            //So if state did not change we must cancelGame\n            //If they both press start this job is cancelled (In start function of GameManager)\n            (uint startTime,,) = gmGetterDB.getGameTimes(gameId);\n            uint scheduledJob = cronJob.addCronJob(CONTRACT_NAME_GAMECREATION, startTime, abi.encodeWithSignature(\"callForfeiterCron(uint256)\", gameId));\n            emit Scheduled(scheduledJob, startTime, gameId, \"Change state to 2\");\n            cronJobsForGames[gameId] = scheduledJob;\n        }\n        if(state == 2){\n            //If it is MAIN_GAME we endgame immediately\n            //We reschedule this Job if game extends (In checkPerformance of GameManager)\n            (,,uint endTime) = gmGetterDB.getGameTimes(gameId);\n            uint scheduledJob = cronJob.addCronJob(CONTRACT_NAME_GAMECREATION, endTime, abi.encodeWithSignature(\"callGameEndCron(uint256)\", gameId));\n            emit Scheduled(scheduledJob, endTime, gameId, \"Change state to 3\");\n            cronJobsForGames[gameId] = scheduledJob;\n        }\n    }\n\n    \n    function updateGameStateCron(uint256 gameId)\n        external\n        onlyContract(CONTRACT_NAME_CRONJOB)\n    {\n        uint state = gmGetterDB.getGameState(gameId);\n        //Check forfeiter before updating game state\n        Forfeiter(proxy.getContract(CONTRACT_NAME_FORFEITER)).checkGameStatusCron(gameId, state);\n        state = gmGetterDB.getGameState(gameId);\n        if (state == 0) gmSetterDB.updateGameStateCron(gameId);\n    }\n\n    function callForfeiterCron(uint gameId)\n        external\n        onlyContract(CONTRACT_NAME_CRONJOB)\n    {\n        Forfeiter(proxy.getContract(CONTRACT_NAME_FORFEITER)).forfeitCron(gameId, \"Did not hit start\");\n    }\n\n    function callGameEndCron(uint gameId)\n        external\n        onlyContract(CONTRACT_NAME_CRONJOB)\n    {\n        uint state = gmGetterDB.getGameState(gameId);\n        if (state == 2) GameManager(proxy.getContract(CONTRACT_NAME_GAMEMANAGER)).gameEndCron(gameId);\n    }\n\n    function rescheduleCronJob(uint gameId)\n        external\n        onlyContract(CONTRACT_NAME_GAMEMANAGER)\n    {\n        //Reschedule CronJob when more time added\n        uint256 jobId = cronJobsForGames[gameId];\n        (,,uint endTime) = gmGetterDB.getGameTimes(gameId);\n        uint newJobId = cronJob.rescheduleCronJob(CONTRACT_NAME_GAMECREATION, jobId, endTime);\n        emit Scheduled(newJobId, endTime, gameId, \"Change state to 3\");\n        cronJobsForGames[gameId] = newJobId;\n    }\n\n    function deleteCronjob(uint gameId)\n        external\n        onlyContract(CONTRACT_NAME_GAMEMANAGER)\n    {\n        uint256 jobId = cronJobsForGames[gameId];\n        cronJob.deleteCronJob(CONTRACT_NAME_GAMECREATION, jobId);\n    }\n\n\n\n}\n",
  "sourcePath": "/Users/ziweizhang/Desktop/staking/alpha/contracts/modules/gamemanager/GameCreation.sol",
  "compiler": {
    "name": "solc",
    "version": "0.5.17+commit.d19bba13.Emscripten.clang"
  },
  "schemaVersion": "3.0.23",
  "updatedAt": "2020-03-28T15:04:53.593Z",
  "networkType": "ethereum",
  "devdoc": {
    "methods": {
      "calculateListingFee()": {
        "details": "calculate listing fee dynamically as a percentage of initial honey pot"
      },
      "createFight(address,address,uint256,uint256,uint256)": {
        "details": "External function for Scheduler to call",
        "return": "gameId"
      },
      "initialize()": {
        "details": "Sets related contractsCan be called only by the owner of this contract"
      },
      "listKittie(uint256)": {
        "details": "Checks and prevents unverified accounts, only accounts with available kitties can list"
      },
      "manualMatchKitties(address,address,uint256,uint256,uint256)": {
        "details": "Check to make sure the only superADmin can list, Takes in two kittieID's and accounts as well as the jackpot ether and token number."
      }
    }
  },
  "userdoc": {
    "methods": {
      "setProxy(address)": {
        "notice": "Set/update address of Proxy contract"
      }
    }
  }
}