{
  "contractName": "GameManager",
  "abi": [
    {
      "anonymous": false,
      "inputs": [
        {
          "indexed": true,
          "internalType": "uint256",
          "name": "gameId",
          "type": "uint256"
        },
        {
          "indexed": true,
          "internalType": "address",
          "name": "winner",
          "type": "address"
        },
        {
          "indexed": true,
          "internalType": "address",
          "name": "loser",
          "type": "address"
        },
        {
          "indexed": false,
          "internalType": "uint256",
          "name": "pointsBlack",
          "type": "uint256"
        },
        {
          "indexed": false,
          "internalType": "uint256",
          "name": "pointsRed",
          "type": "uint256"
        }
      ],
      "name": "GameEnded",
      "type": "event"
    },
    {
      "anonymous": false,
      "inputs": [
        {
          "indexed": true,
          "internalType": "uint256",
          "name": "gameId",
          "type": "uint256"
        },
        {
          "indexed": false,
          "internalType": "uint256",
          "name": "newEndTime",
          "type": "uint256"
        }
      ],
      "name": "GameExtended",
      "type": "event"
    },
    {
      "anonymous": false,
      "inputs": [
        {
          "indexed": true,
          "internalType": "uint256",
          "name": "gameId",
          "type": "uint256"
        },
        {
          "indexed": false,
          "internalType": "enum GameManager.eGameState",
          "name": "old_state",
          "type": "uint8"
        },
        {
          "indexed": false,
          "internalType": "enum GameManager.eGameState",
          "name": "new_state",
          "type": "uint8"
        }
      ],
      "name": "GameStateChanged",
      "type": "event"
    },
    {
      "anonymous": false,
      "inputs": [
        {
          "indexed": true,
          "internalType": "uint256",
          "name": "gameId",
          "type": "uint256"
        },
        {
          "indexed": false,
          "internalType": "address",
          "name": "supporter",
          "type": "address"
        },
        {
          "indexed": true,
          "internalType": "address",
          "name": "playerSupported",
          "type": "address"
        }
      ],
      "name": "NewSupporter",
      "type": "event"
    },
    {
      "anonymous": false,
      "inputs": [
        {
          "indexed": true,
          "internalType": "uint256",
          "name": "gameId",
          "type": "uint256"
        },
        {
          "indexed": false,
          "internalType": "address",
          "name": "player",
          "type": "address"
        }
      ],
      "name": "PressStart",
      "type": "event"
    },
    {
      "constant": true,
      "inputs": [],
      "name": "betting",
      "outputs": [
        {
          "internalType": "contract Betting",
          "name": "",
          "type": "address"
        }
      ],
      "payable": false,
      "stateMutability": "view",
      "type": "function"
    },
    {
      "constant": true,
      "inputs": [],
      "name": "endowmentFund",
      "outputs": [
        {
          "internalType": "contract EndowmentFund",
          "name": "",
          "type": "address"
        }
      ],
      "payable": false,
      "stateMutability": "view",
      "type": "function"
    },
    {
      "constant": true,
      "inputs": [],
      "name": "forfeiter",
      "outputs": [
        {
          "internalType": "contract Forfeiter",
          "name": "",
          "type": "address"
        }
      ],
      "payable": false,
      "stateMutability": "view",
      "type": "function"
    },
    {
      "constant": true,
      "inputs": [],
      "name": "gameCreation",
      "outputs": [
        {
          "internalType": "contract GameCreation",
          "name": "",
          "type": "address"
        }
      ],
      "payable": false,
      "stateMutability": "view",
      "type": "function"
    },
    {
      "constant": true,
      "inputs": [],
      "name": "gameStore",
      "outputs": [
        {
          "internalType": "contract GameStore",
          "name": "",
          "type": "address"
        }
      ],
      "payable": false,
      "stateMutability": "view",
      "type": "function"
    },
    {
      "constant": true,
      "inputs": [],
      "name": "gmGetterDB",
      "outputs": [
        {
          "internalType": "contract GMGetterDB",
          "name": "",
          "type": "address"
        }
      ],
      "payable": false,
      "stateMutability": "view",
      "type": "function"
    },
    {
      "constant": true,
      "inputs": [],
      "name": "gmSetterDB",
      "outputs": [
        {
          "internalType": "contract GMSetterDB",
          "name": "",
          "type": "address"
        }
      ],
      "payable": false,
      "stateMutability": "view",
      "type": "function"
    },
    {
      "constant": true,
      "inputs": [],
      "name": "owner",
      "outputs": [
        {
          "internalType": "address payable",
          "name": "",
          "type": "address"
        }
      ],
      "payable": false,
      "stateMutability": "view",
      "type": "function"
    },
    {
      "constant": true,
      "inputs": [],
      "name": "proxy",
      "outputs": [
        {
          "internalType": "contract ProxyBase",
          "name": "",
          "type": "address"
        }
      ],
      "payable": false,
      "stateMutability": "view",
      "type": "function"
    },
    {
      "constant": false,
      "inputs": [
        {
          "internalType": "contract ProxyBase",
          "name": "_proxy",
          "type": "address"
        }
      ],
      "name": "setProxy",
      "outputs": [],
      "payable": false,
      "stateMutability": "nonpayable",
      "type": "function"
    },
    {
      "constant": false,
      "inputs": [
        {
          "internalType": "address payable",
          "name": "newOwner",
          "type": "address"
        }
      ],
      "name": "transferOwnership",
      "outputs": [],
      "payable": false,
      "stateMutability": "nonpayable",
      "type": "function"
    },
    {
      "constant": false,
      "inputs": [],
      "name": "initialize",
      "outputs": [],
      "payable": false,
      "stateMutability": "nonpayable",
      "type": "function"
    },
    {
      "constant": false,
      "inputs": [
        {
          "internalType": "uint256",
          "name": "gameId",
          "type": "uint256"
        },
        {
          "internalType": "address",
          "name": "playerToSupport",
          "type": "address"
        }
      ],
      "name": "participate",
      "outputs": [],
      "payable": true,
      "stateMutability": "payable",
      "type": "function"
    },
    {
      "constant": false,
      "inputs": [
        {
          "internalType": "uint256",
          "name": "gameId",
          "type": "uint256"
        },
        {
          "internalType": "uint256",
          "name": "randomNum",
          "type": "uint256"
        },
        {
          "internalType": "uint256",
          "name": "genes",
          "type": "uint256"
        }
      ],
      "name": "startGame",
      "outputs": [],
      "payable": false,
      "stateMutability": "nonpayable",
      "type": "function"
    },
    {
      "constant": false,
      "inputs": [
        {
          "internalType": "uint256",
          "name": "gameId",
          "type": "uint256"
        },
        {
          "internalType": "uint256",
          "name": "randomNum",
          "type": "uint256"
        }
      ],
      "name": "bet",
      "outputs": [],
      "payable": true,
      "stateMutability": "payable",
      "type": "function"
    },
    {
      "constant": false,
      "inputs": [
        {
          "internalType": "uint256",
          "name": "gameId",
          "type": "uint256"
        }
      ],
      "name": "gameEndCron",
      "outputs": [],
      "payable": false,
      "stateMutability": "nonpayable",
      "type": "function"
    },
    {
      "constant": false,
      "inputs": [
        {
          "internalType": "uint256",
          "name": "gameId",
          "type": "uint256"
        },
        {
          "internalType": "uint256",
          "name": "randomNum",
          "type": "uint256"
        }
      ],
      "name": "finalize",
      "outputs": [],
      "payable": false,
      "stateMutability": "nonpayable",
      "type": "function"
    },
    {
      "constant": false,
      "inputs": [
        {
          "internalType": "uint256",
          "name": "gameId",
          "type": "uint256"
        }
      ],
      "name": "cancelGame",
      "outputs": [],
      "payable": false,
      "stateMutability": "nonpayable",
      "type": "function"
    }
  ],
  "bytecode": "0x6080604052336000806101000a81548173ffffffffffffffffffffffffffffffffffffffff021916908373ffffffffffffffffffffffffffffffffffffffff160217905550615e50806100536000396000f3fe6080604052600436106101095760003560e01c80638da5cb5b11610095578063b6013cef11610064578063b6013cef146104e7578063ddda07191461052c578063ec55688914610567578063f26dee8e146105be578063f2fde38b1461061557610109565b80638da5cb5b1461039157806397107d6d146103e8578063a0b06a6914610439578063b1be64691461049057610109565b806339b4b0d6116100dc57806339b4b0d61461025957806369958ab9146102b057806369af70b3146102eb5780636ffcc719146103425780638129fc1c1461037a57610109565b806313b186401461010e57806315a194ec1461015c5780631fc75180146101b35780632c31d0851461020a575b600080fd5b61015a6004803603604081101561012457600080fd5b8101908080359060200190929190803573ffffffffffffffffffffffffffffffffffffffff169060200190929190505050610666565b005b34801561016857600080fd5b50610171611289565b604051808273ffffffffffffffffffffffffffffffffffffffff1673ffffffffffffffffffffffffffffffffffffffff16815260200191505060405180910390f35b3480156101bf57600080fd5b506101c86112af565b604051808273ffffffffffffffffffffffffffffffffffffffff1673ffffffffffffffffffffffffffffffffffffffff16815260200191505060405180910390f35b34801561021657600080fd5b506102576004803603606081101561022d57600080fd5b810190808035906020019092919080359060200190929190803590602001909291905050506112d5565b005b34801561026557600080fd5b5061026e61230c565b604051808273ffffffffffffffffffffffffffffffffffffffff1673ffffffffffffffffffffffffffffffffffffffff16815260200191505060405180910390f35b3480156102bc57600080fd5b506102e9600480360360208110156102d357600080fd5b8101908080359060200190929190505050612332565b005b3480156102f757600080fd5b5061030061277d565b604051808273ffffffffffffffffffffffffffffffffffffffff1673ffffffffffffffffffffffffffffffffffffffff16815260200191505060405180910390f35b6103786004803603604081101561035857600080fd5b8101908080359060200190929190803590602001909291905050506127a3565b005b34801561038657600080fd5b5061038f613462565b005b34801561039d57600080fd5b506103a6613f72565b604051808273ffffffffffffffffffffffffffffffffffffffff1673ffffffffffffffffffffffffffffffffffffffff16815260200191505060405180910390f35b3480156103f457600080fd5b506104376004803603602081101561040b57600080fd5b81019080803573ffffffffffffffffffffffffffffffffffffffff169060200190929190505050613f97565b005b34801561044557600080fd5b5061044e614031565b604051808273ffffffffffffffffffffffffffffffffffffffff1673ffffffffffffffffffffffffffffffffffffffff16815260200191505060405180910390f35b34801561049c57600080fd5b506104a5614057565b604051808273ffffffffffffffffffffffffffffffffffffffff1673ffffffffffffffffffffffffffffffffffffffff16815260200191505060405180910390f35b3480156104f357600080fd5b5061052a6004803603604081101561050a57600080fd5b81019080803590602001909291908035906020019092919050505061407d565b005b34801561053857600080fd5b506105656004803603602081101561054f57600080fd5b8101908080359060200190929190505050614cd2565b005b34801561057357600080fd5b5061057c614d7c565b604051808273ffffffffffffffffffffffffffffffffffffffff1673ffffffffffffffffffffffffffffffffffffffff16815260200191505060405180910390f35b3480156105ca57600080fd5b506105d3614da2565b604051808273ffffffffffffffffffffffffffffffffffffffff1673ffffffffffffffffffffffffffffffffffffffff16815260200191505060405180910390f35b34801561062157600080fd5b506106646004803603602081101561063857600080fd5b81019080803573ffffffffffffffffffffffffffffffffffffffff169060200190929190505050614dc8565b005b61066e614e96565b600073ffffffffffffffffffffffffffffffffffffffff163373ffffffffffffffffffffffffffffffffffffffff1614156106a557fe5b6106e36040518060400160405280600681526020017f626574746f720000000000000000000000000000000000000000000000000000815250615020565b610755576040517f08c379a000000000000000000000000000000000000000000000000000000000815260040180806020018281038252600b8152602001807f4f6e6c7920626574746f7200000000000000000000000000000000000000000081525060200191505060405180910390fd5b81816000600160009054906101000a900473ffffffffffffffffffffffffffffffffffffffff1673ffffffffffffffffffffffffffffffffffffffff1663358177736040518060400160405280600981526020017f50726f66696c65444200000000000000000000000000000000000000000000008152506040518263ffffffff1660e01b81526004018080602001828103825283818151815260200191508051906020019080838360005b8381101561081c578082015181840152602081019050610801565b50505050905090810190601f1680156108495780820380516001836020036101000a031916815260200191505b509250505060206040518083038186803b15801561086657600080fd5b505afa15801561087a573d6000803e3d6000fd5b505050506040513d602081101561089057600080fd5b810190808051906020019092919050505073ffffffffffffffffffffffffffffffffffffffff1663a984d640836040518263ffffffff1660e01b8152600401808273ffffffffffffffffffffffffffffffffffffffff1673ffffffffffffffffffffffffffffffffffffffff16815260200191505060206040518083038186803b15801561091d57600080fd5b505afa158015610931573d6000803e3d6000fd5b505050506040513d602081101561094757600080fd5b81019080805190602001909291905050501161096257600080fd5b600360009054906101000a900473ffffffffffffffffffffffffffffffffffffffff1673ffffffffffffffffffffffffffffffffffffffff1663e6d3538d83836040518363ffffffff1660e01b8152600401808381526020018273ffffffffffffffffffffffffffffffffffffffff1673ffffffffffffffffffffffffffffffffffffffff1681526020019250505060206040518083038186803b158015610a0957600080fd5b505afa158015610a1d573d6000803e3d6000fd5b505050506040513d6020811015610a3357600080fd5b8101908080519060200190929190505050610a4d57600080fd5b60003411610a5a57600080fd5b6000600360009054906101000a900473ffffffffffffffffffffffffffffffffffffffff1673ffffffffffffffffffffffffffffffffffffffff1663ffde0c74866040518263ffffffff1660e01b81526004018082815260200191505060206040518083038186803b158015610acf57600080fd5b505afa158015610ae3573d6000803e3d6000fd5b505050506040513d6020811015610af957600080fd5b810190808051906020019092919050505090506000610b1661529c565b90508473ffffffffffffffffffffffffffffffffffffffff168173ffffffffffffffffffffffffffffffffffffffff161415610b5157600080fd5b6002821115610b5f57600080fd5b600080600760009054906101000a900473ffffffffffffffffffffffffffffffffffffffff1673ffffffffffffffffffffffffffffffffffffffff1663aa84869f896040518263ffffffff1660e01b815260040180828152602001915050604080518083038186803b158015610bd457600080fd5b505afa158015610be8573d6000803e3d6000fd5b505050506040513d6040811015610bfe57600080fd5b81019080805190602001909291908051906020019092919050505091509150600460009054906101000a900473ffffffffffffffffffffffffffffffffffffffff1673ffffffffffffffffffffffffffffffffffffffff1663ecbedebc348585856040518563ffffffff1660e01b8152600401808473ffffffffffffffffffffffffffffffffffffffff1673ffffffffffffffffffffffffffffffffffffffff16815260200183815260200182815260200193505050506020604051808303818588803b158015610cce57600080fd5b505af1158015610ce2573d6000803e3d6000fd5b50505050506040513d6020811015610cf957600080fd5b8101908080519060200190929190505050610d1357600080fd5b600260009054906101000a900473ffffffffffffffffffffffffffffffffffffffff1673ffffffffffffffffffffffffffffffffffffffff16634092998089858a6040518463ffffffff1660e01b8152600401808481526020018373ffffffffffffffffffffffffffffffffffffffff1673ffffffffffffffffffffffffffffffffffffffff1681526020018273ffffffffffffffffffffffffffffffffffffffff1673ffffffffffffffffffffffffffffffffffffffff1681526020019350505050602060405180830381600087803b158015610df057600080fd5b505af1158015610e04573d6000803e3d6000fd5b505050506040513d6020811015610e1a57600080fd5b8101908080519060200190929190505050610e3457600080fd5b6000600360009054906101000a900473ffffffffffffffffffffffffffffffffffffffff1673ffffffffffffffffffffffffffffffffffffffff16638851470d8a6040518263ffffffff1660e01b81526004018082815260200191505060606040518083038186803b158015610ea957600080fd5b505afa158015610ebd573d6000803e3d6000fd5b505050506040513d6060811015610ed357600080fd5b81019080805190602001909291908051906020019092919080519060200190929190505050509150506000851480610f0b5750600185145b15610fa657600560009054906101000a900473ffffffffffffffffffffffffffffffffffffffff1673ffffffffffffffffffffffffffffffffffffffff16635aaccebf8a876040518363ffffffff1660e01b81526004018083815260200182815260200192505050600060405180830381600087803b158015610f8d57600080fd5b505af1158015610fa1573d6000803e3d6000fd5b505050505b600360009054906101000a900473ffffffffffffffffffffffffffffffffffffffff1673ffffffffffffffffffffffffffffffffffffffff1663ffde0c748a6040518263ffffffff1660e01b81526004018082815260200191505060206040518083038186803b15801561101957600080fd5b505afa15801561102d573d6000803e3d6000fd5b505050506040513d602081101561104357600080fd5b810190808051906020019092919050505094506000600581111561106357fe5b851480156110715750428111155b1561120357600860009054906101000a900473ffffffffffffffffffffffffffffffffffffffff1673ffffffffffffffffffffffffffffffffffffffff16639d60d53e8a6040518263ffffffff1660e01b815260040180828152602001915050600060405180830381600087803b1580156110eb57600080fd5b505af11580156110ff573d6000803e3d6000fd5b50505050600260009054906101000a900473ffffffffffffffffffffffffffffffffffffffff1673ffffffffffffffffffffffffffffffffffffffff1663f5de83978a6001600581111561114f57fe5b6040518363ffffffff1660e01b81526004018083815260200182815260200192505050600060405180830381600087803b15801561118c57600080fd5b505af11580156111a0573d6000803e3d6000fd5b50505050887f44eba4bcf780a2012259962cf19bf1777051e027304e22dd8e324b0cefb4be2660006001604051808360058111156111da57fe5b60ff1681526020018260058111156111ee57fe5b60ff1681526020019250505060405180910390a25b8773ffffffffffffffffffffffffffffffffffffffff16897f10be9d2d97e8101e37a757b0203bef24d9237498343bfeeba88885b950ef756386604051808273ffffffffffffffffffffffffffffffffffffffff1673ffffffffffffffffffffffffffffffffffffffff16815260200191505060405180910390a3505050505050505050565b600860009054906101000a900473ffffffffffffffffffffffffffffffffffffffff1681565b600360009054906101000a900473ffffffffffffffffffffffffffffffffffffffff1681565b6112dd614e96565b600073ffffffffffffffffffffffffffffffffffffffff163373ffffffffffffffffffffffffffffffffffffffff16141561131457fe5b6113526040518060400160405280600681526020017f706c617965720000000000000000000000000000000000000000000000000000815250615020565b6113c4576040517f08c379a000000000000000000000000000000000000000000000000000000000815260040180806020018281038252600b8152602001807f4f6e6c7920706c6179657200000000000000000000000000000000000000000081525060200191505060405180910390fd5b826113cd61529c565b6000600160009054906101000a900473ffffffffffffffffffffffffffffffffffffffff1673ffffffffffffffffffffffffffffffffffffffff1663358177736040518060400160405280600981526020017f50726f66696c65444200000000000000000000000000000000000000000000008152506040518263ffffffff1660e01b81526004018080602001828103825283818151815260200191508051906020019080838360005b83811015611492578082015181840152602081019050611477565b50505050905090810190601f1680156114bf5780820380516001836020036101000a031916815260200191505b509250505060206040518083038186803b1580156114dc57600080fd5b505afa1580156114f0573d6000803e3d6000fd5b505050506040513d602081101561150657600080fd5b810190808051906020019092919050505073ffffffffffffffffffffffffffffffffffffffff1663a984d640836040518263ffffffff1660e01b8152600401808273ffffffffffffffffffffffffffffffffffffffff1673ffffffffffffffffffffffffffffffffffffffff16815260200191505060206040518083038186803b15801561159357600080fd5b505afa1580156115a7573d6000803e3d6000fd5b505050506040513d60208110156115bd57600080fd5b8101908080519060200190929190505050116115d857600080fd5b600360009054906101000a900473ffffffffffffffffffffffffffffffffffffffff1673ffffffffffffffffffffffffffffffffffffffff1663e6d3538d83836040518363ffffffff1660e01b8152600401808381526020018273ffffffffffffffffffffffffffffffffffffffff1673ffffffffffffffffffffffffffffffffffffffff1681526020019250505060206040518083038186803b15801561167f57600080fd5b505afa158015611693573d6000803e3d6000fd5b505050506040513d60208110156116a957600080fd5b81019080805190602001909291905050506116c357600080fd5b6000600360009054906101000a900473ffffffffffffffffffffffffffffffffffffffff1673ffffffffffffffffffffffffffffffffffffffff1663ffde0c74876040518263ffffffff1660e01b81526004018082815260200191505060206040518083038186803b15801561173857600080fd5b505afa15801561174c573d6000803e3d6000fd5b505050506040513d602081101561176257600080fd5b81019080805190602001909291905050509050600560009054906101000a900473ffffffffffffffffffffffffffffffffffffffff1673ffffffffffffffffffffffffffffffffffffffff16635aaccebf87836040518363ffffffff1660e01b81526004018083815260200182815260200192505050600060405180830381600087803b1580156117f257600080fd5b505af1158015611806573d6000803e3d6000fd5b50505050600360009054906101000a900473ffffffffffffffffffffffffffffffffffffffff1673ffffffffffffffffffffffffffffffffffffffff1663ffde0c74876040518263ffffffff1660e01b81526004018082815260200191505060206040518083038186803b15801561187d57600080fd5b505afa158015611891573d6000803e3d6000fd5b505050506040513d60208110156118a757600080fd5b81019080805190602001909291905050509050600160058111156118c757fe5b8114156123045760006118d861529c565b90506000600360009054906101000a900473ffffffffffffffffffffffffffffffffffffffff1673ffffffffffffffffffffffffffffffffffffffff1663e441dcbf89846040518363ffffffff1660e01b8152600401808381526020018273ffffffffffffffffffffffffffffffffffffffff1673ffffffffffffffffffffffffffffffffffffffff1681526020019250505060206040518083038186803b15801561198357600080fd5b505afa158015611997573d6000803e3d6000fd5b505050506040513d60208110156119ad57600080fd5b81019080805190602001909291905050509050600760009054906101000a900473ffffffffffffffffffffffffffffffffffffffff1673ffffffffffffffffffffffffffffffffffffffff1663158d39cb89848a6040518463ffffffff1660e01b8152600401808481526020018373ffffffffffffffffffffffffffffffffffffffff1673ffffffffffffffffffffffffffffffffffffffff1681526020018281526020019350505050600060405180830381600087803b158015611a7157600080fd5b505af1158015611a85573d6000803e3d6000fd5b50505050600660009054906101000a900473ffffffffffffffffffffffffffffffffffffffff1673ffffffffffffffffffffffffffffffffffffffff1663ed1d74068984600160009054906101000a900473ffffffffffffffffffffffffffffffffffffffff1673ffffffffffffffffffffffffffffffffffffffff1663358177736040518060400160405280601081526020017f52617269747943616c63756c61746f72000000000000000000000000000000008152506040518263ffffffff1660e01b81526004018080602001828103825283818151815260200191508051906020019080838360005b83811015611b8c578082015181840152602081019050611b71565b50505050905090810190601f168015611bb95780820380516001836020036101000a031916815260200191505b509250505060206040518083038186803b158015611bd657600080fd5b505afa158015611bea573d6000803e3d6000fd5b505050506040513d6020811015611c0057600080fd5b810190808051906020019092919050505073ffffffffffffffffffffffffffffffffffffffff16633af9bbac868c6040518363ffffffff1660e01b81526004018083815260200182815260200192505050602060405180830381600087803b158015611c6b57600080fd5b505af1158015611c7f573d6000803e3d6000fd5b505050506040513d6020811015611c9557600080fd5b81019080805190602001909291905050506040518463ffffffff1660e01b8152600401808481526020018373ffffffffffffffffffffffffffffffffffffffff1673ffffffffffffffffffffffffffffffffffffffff1681526020018281526020019350505050600060405180830381600087803b158015611d1657600080fd5b505af1158015611d2a573d6000803e3d6000fd5b505050506000600760009054906101000a900473ffffffffffffffffffffffffffffffffffffffff1673ffffffffffffffffffffffffffffffffffffffff166331fa70678a856040518363ffffffff1660e01b8152600401808381526020018273ffffffffffffffffffffffffffffffffffffffff1673ffffffffffffffffffffffffffffffffffffffff1681526020019250505060206040518083038186803b158015611dd757600080fd5b505afa158015611deb573d6000803e3d6000fd5b505050506040513d6020811015611e0157600080fd5b81019080805190602001909291905050509050887f3777d3009964e625c7ec7b3b7a815deec68108671053ae856ae638556472a49a84604051808273ffffffffffffffffffffffffffffffffffffffff1673ffffffffffffffffffffffffffffffffffffffff16815260200191505060405180910390a2600760009054906101000a900473ffffffffffffffffffffffffffffffffffffffff1673ffffffffffffffffffffffffffffffffffffffff1663ebff754a8a836040518363ffffffff1660e01b8152600401808381526020018273ffffffffffffffffffffffffffffffffffffffff1673ffffffffffffffffffffffffffffffffffffffff1681526020019250505060206040518083038186803b158015611f1f57600080fd5b505afa158015611f33573d6000803e3d6000fd5b505050506040513d6020811015611f4957600080fd5b81019080805190602001909291905050501561230057600660009054906101000a900473ffffffffffffffffffffffffffffffffffffffff1673ffffffffffffffffffffffffffffffffffffffff16632c31d0858a8a600760009054906101000a900473ffffffffffffffffffffffffffffffffffffffff1673ffffffffffffffffffffffffffffffffffffffff16636e47c6358e876040518363ffffffff1660e01b8152600401808381526020018273ffffffffffffffffffffffffffffffffffffffff1673ffffffffffffffffffffffffffffffffffffffff1681526020019250505060206040518083038186803b15801561204657600080fd5b505afa15801561205a573d6000803e3d6000fd5b505050506040513d602081101561207057600080fd5b81019080805190602001909291905050506040518463ffffffff1660e01b8152600401808481526020018381526020018281526020019350505050600060405180830381600087803b1580156120c557600080fd5b505af11580156120d9573d6000803e3d6000fd5b50505050600860009054906101000a900473ffffffffffffffffffffffffffffffffffffffff1673ffffffffffffffffffffffffffffffffffffffff16639d60d53e8a6040518263ffffffff1660e01b815260040180828152602001915050600060405180830381600087803b15801561215257600080fd5b505af1158015612166573d6000803e3d6000fd5b50505050600260009054906101000a900473ffffffffffffffffffffffffffffffffffffffff1673ffffffffffffffffffffffffffffffffffffffff1663f5de83978a600260058111156121b657fe5b6040518363ffffffff1660e01b81526004018083815260200182815260200192505050600060405180830381600087803b1580156121f357600080fd5b505af1158015612207573d6000803e3d6000fd5b50505050600460009054906101000a900473ffffffffffffffffffffffffffffffffffffffff1673ffffffffffffffffffffffffffffffffffffffff1663d665a7178a60036040518363ffffffff1660e01b81526004018083815260200182815260200192505050600060405180830381600087803b15801561228957600080fd5b505af115801561229d573d6000803e3d6000fd5b50505050887f44eba4bcf780a2012259962cf19bf1777051e027304e22dd8e324b0cefb4be2660016002604051808360058111156122d757fe5b60ff1681526020018260058111156122eb57fe5b60ff1681526020019250505060405180910390a25b5050505b505050505050565b600660009054906101000a900473ffffffffffffffffffffffffffffffffffffffff1681565b6040518060400160405280600981526020017f466f72666569746572000000000000000000000000000000000000000000000081525061237181615351565b6123c6576040517f08c379a000000000000000000000000000000000000000000000000000000000815260040180806020018281038252602d815260200180615def602d913960400191505060405180910390fd5b6000600360009054906101000a900473ffffffffffffffffffffffffffffffffffffffff1673ffffffffffffffffffffffffffffffffffffffff1663ffde0c74846040518263ffffffff1660e01b81526004018082815260200191505060206040518083038186803b15801561243b57600080fd5b505afa15801561244f573d6000803e3d6000fd5b505050506040513d602081101561246557600080fd5b810190808051906020019092919050505090506000600581111561248557fe5b81148061249d57506001600581111561249a57fe5b81145b6124a657600080fd5b600260009054906101000a900473ffffffffffffffffffffffffffffffffffffffff1673ffffffffffffffffffffffffffffffffffffffff1663f5de8397846005808111156124f157fe5b6040518363ffffffff1660e01b81526004018083815260200182815260200192505050600060405180830381600087803b15801561252e57600080fd5b505af1158015612542573d6000803e3d6000fd5b50505050600460009054906101000a900473ffffffffffffffffffffffffffffffffffffffff1673ffffffffffffffffffffffffffffffffffffffff1663d665a7178460046040518363ffffffff1660e01b81526004018083815260200182815260200192505050600060405180830381600087803b1580156125c457600080fd5b505af11580156125d8573d6000803e3d6000fd5b50505050600860009054906101000a900473ffffffffffffffffffffffffffffffffffffffff1673ffffffffffffffffffffffffffffffffffffffff16636fee856a846040518263ffffffff1660e01b815260040180828152602001915050600060405180830381600087803b15801561265157600080fd5b505af1158015612665573d6000803e3d6000fd5b50505050600860009054906101000a900473ffffffffffffffffffffffffffffffffffffffff1673ffffffffffffffffffffffffffffffffffffffff16639d60d53e846040518263ffffffff1660e01b815260040180828152602001915050600060405180830381600087803b1580156126de57600080fd5b505af11580156126f2573d6000803e3d6000fd5b50505050600760009054906101000a900473ffffffffffffffffffffffffffffffffffffffff1673ffffffffffffffffffffffffffffffffffffffff1663c1dc2ddc6040518163ffffffff1660e01b8152600401600060405180830381600087803b15801561276057600080fd5b505af1158015612774573d6000803e3d6000fd5b50505050505050565b600460009054906101000a900473ffffffffffffffffffffffffffffffffffffffff1681565b6127ab614e96565b600073ffffffffffffffffffffffffffffffffffffffff163373ffffffffffffffffffffffffffffffffffffffff1614156127e257fe5b6128206040518060400160405280600681526020017f626574746f720000000000000000000000000000000000000000000000000000815250615020565b612892576040517f08c379a000000000000000000000000000000000000000000000000000000000815260040180806020018281038252600b8152602001807f4f6e6c7920626574746f7200000000000000000000000000000000000000000081525060200191505060405180910390fd5b6000341161289f57600080fd5b6000600360009054906101000a900473ffffffffffffffffffffffffffffffffffffffff1673ffffffffffffffffffffffffffffffffffffffff1663ffde0c74846040518263ffffffff1660e01b81526004018082815260200191505060206040518083038186803b15801561291457600080fd5b505afa158015612928573d6000803e3d6000fd5b505050506040513d602081101561293e57600080fd5b810190808051906020019092919050505090506000806002600581111561296157fe5b831461296c57600080fd5b600061297661529c565b9050600360009054906101000a900473ffffffffffffffffffffffffffffffffffffffff1673ffffffffffffffffffffffffffffffffffffffff1663e6d3538d87836040518363ffffffff1660e01b8152600401808381526020018273ffffffffffffffffffffffffffffffffffffffff1673ffffffffffffffffffffffffffffffffffffffff1681526020019250505060206040518083038186803b158015612a1f57600080fd5b505afa158015612a33573d6000803e3d6000fd5b505050506040513d6020811015612a4957600080fd5b8101908080519060200190929190505050612b7a57600360009054906101000a900473ffffffffffffffffffffffffffffffffffffffff1673ffffffffffffffffffffffffffffffffffffffff16630b154c9687836040518363ffffffff1660e01b8152600401808381526020018273ffffffffffffffffffffffffffffffffffffffff1673ffffffffffffffffffffffffffffffffffffffff1681526020019250505060806040518083038186803b158015612b0557600080fd5b505afa158015612b19573d6000803e3d6000fd5b505050506040513d6080811015612b2f57600080fd5b81019080805190602001909291908051906020019092919080519060200190929190805190602001909291905050509091925050809350819450505081612b7557600080fd5b612b7e565b8092505b600080600760009054906101000a900473ffffffffffffffffffffffffffffffffffffffff1673ffffffffffffffffffffffffffffffffffffffff1663f58f32cf896040518263ffffffff1660e01b815260040180828152602001915050604080518083038186803b158015612bf357600080fd5b505afa158015612c07573d6000803e3d6000fd5b505050506040513d6040811015612c1d57600080fd5b81019080805190602001909291908051906020019092919050505091509150600460009054906101000a900473ffffffffffffffffffffffffffffffffffffffff1673ffffffffffffffffffffffffffffffffffffffff1663b3962bdc612c8d843461559c90919063ffffffff16565b8a6040518363ffffffff1660e01b8152600401808281526020019150506020604051808303818588803b158015612cc357600080fd5b505af1158015612cd7573d6000803e3d6000fd5b50505050506040513d6020811015612cee57600080fd5b8101908080519060200190929190505050612d0857600080fd5b600460009054906101000a900473ffffffffffffffffffffffffffffffffffffffff1673ffffffffffffffffffffffffffffffffffffffff1663ecbedebc838585856040518563ffffffff1660e01b8152600401808473ffffffffffffffffffffffffffffffffffffffff1673ffffffffffffffffffffffffffffffffffffffff16815260200183815260200182815260200193505050506020604051808303818588803b158015612db957600080fd5b505af1158015612dcd573d6000803e3d6000fd5b50505050506040513d6020811015612de457600080fd5b8101908080519060200190929190505050612dfe57600080fd5b600160009054906101000a900473ffffffffffffffffffffffffffffffffffffffff1673ffffffffffffffffffffffffffffffffffffffff1663358177736040518060400160405280600b81526020017f486974735265736f6c76650000000000000000000000000000000000000000008152506040518263ffffffff1660e01b81526004018080602001828103825283818151815260200191508051906020019080838360005b83811015612ec1578082015181840152602081019050612ea6565b50505050905090810190601f168015612eee5780820380516001836020036101000a031916815260200191505b509250505060206040518083038186803b158015612f0b57600080fd5b505afa158015612f1f573d6000803e3d6000fd5b505050506040513d6020811015612f3557600080fd5b810190808051906020019092919050505073ffffffffffffffffffffffffffffffffffffffff166381d96a1f89896040518363ffffffff1660e01b81526004018083815260200182815260200192505050602060405180830381600087803b158015612fa057600080fd5b505af1158015612fb4573d6000803e3d6000fd5b505050506040513d6020811015612fca57600080fd5b8101908080519060200190929190505050506000600760009054906101000a900473ffffffffffffffffffffffffffffffffffffffff1673ffffffffffffffffffffffffffffffffffffffff166331fa70678a886040518363ffffffff1660e01b8152600401808381526020018273ffffffffffffffffffffffffffffffffffffffff1673ffffffffffffffffffffffffffffffffffffffff1681526020019250505060206040518083038186803b15801561308557600080fd5b505afa158015613099573d6000803e3d6000fd5b505050506040513d60208110156130af57600080fd5b81019080805190602001909291905050509050600660009054906101000a900473ffffffffffffffffffffffffffffffffffffffff1673ffffffffffffffffffffffffffffffffffffffff1663592ba06b8a86613115873461559c90919063ffffffff16565b8a868e6040518763ffffffff1660e01b8152600401808781526020018673ffffffffffffffffffffffffffffffffffffffff1673ffffffffffffffffffffffffffffffffffffffff1681526020018581526020018473ffffffffffffffffffffffffffffffffffffffff1673ffffffffffffffffffffffffffffffffffffffff1681526020018373ffffffffffffffffffffffffffffffffffffffff1673ffffffffffffffffffffffffffffffffffffffff1681526020018281526020019650505050505050600060405180830381600087803b1580156131f557600080fd5b505af1158015613209573d6000803e3d6000fd5b50505050600260009054906101000a900473ffffffffffffffffffffffffffffffffffffffff1673ffffffffffffffffffffffffffffffffffffffff1663026ab2c58a86613260873461559c90919063ffffffff16565b8a6040518563ffffffff1660e01b8152600401808581526020018473ffffffffffffffffffffffffffffffffffffffff1673ffffffffffffffffffffffffffffffffffffffff1681526020018381526020018273ffffffffffffffffffffffffffffffffffffffff1673ffffffffffffffffffffffffffffffffffffffff168152602001945050505050600060405180830381600087803b15801561330457600080fd5b505af1158015613318573d6000803e3d6000fd5b505050508573ffffffffffffffffffffffffffffffffffffffff168473ffffffffffffffffffffffffffffffffffffffff161461344557600760009054906101000a900473ffffffffffffffffffffffffffffffffffffffff1673ffffffffffffffffffffffffffffffffffffffff16630bc644f58a86896040518463ffffffff1660e01b8152600401808481526020018373ffffffffffffffffffffffffffffffffffffffff1673ffffffffffffffffffffffffffffffffffffffff1681526020018273ffffffffffffffffffffffffffffffffffffffff1673ffffffffffffffffffffffffffffffffffffffff1681526020019350505050600060405180830381600087803b15801561342c57600080fd5b505af1158015613440573d6000803e3d6000fd5b505050505b61344e896155b3565b61345789615a20565b505050505050505050565b6000809054906101000a900473ffffffffffffffffffffffffffffffffffffffff1673ffffffffffffffffffffffffffffffffffffffff163373ffffffffffffffffffffffffffffffffffffffff16146134b857fe5b600160009054906101000a900473ffffffffffffffffffffffffffffffffffffffff1673ffffffffffffffffffffffffffffffffffffffff1663358177736040518060400160405280600a81526020017f474d5365747465724442000000000000000000000000000000000000000000008152506040518263ffffffff1660e01b81526004018080602001828103825283818151815260200191508051906020019080838360005b8381101561357b578082015181840152602081019050613560565b50505050905090810190601f1680156135a85780820380516001836020036101000a031916815260200191505b509250505060206040518083038186803b1580156135c557600080fd5b505afa1580156135d9573d6000803e3d6000fd5b505050506040513d60208110156135ef57600080fd5b8101908080519060200190929190505050600260006101000a81548173ffffffffffffffffffffffffffffffffffffffff021916908373ffffffffffffffffffffffffffffffffffffffff160217905550600160009054906101000a900473ffffffffffffffffffffffffffffffffffffffff1673ffffffffffffffffffffffffffffffffffffffff1663358177736040518060400160405280600a81526020017f474d4765747465724442000000000000000000000000000000000000000000008152506040518263ffffffff1660e01b81526004018080602001828103825283818151815260200191508051906020019080838360005b838110156137035780820151818401526020810190506136e8565b50505050905090810190601f1680156137305780820380516001836020036101000a031916815260200191505b509250505060206040518083038186803b15801561374d57600080fd5b505afa158015613761573d6000803e3d6000fd5b505050506040513d602081101561377757600080fd5b8101908080519060200190929190505050600360006101000a81548173ffffffffffffffffffffffffffffffffffffffff021916908373ffffffffffffffffffffffffffffffffffffffff160217905550600160009054906101000a900473ffffffffffffffffffffffffffffffffffffffff1673ffffffffffffffffffffffffffffffffffffffff1663358177736040518060400160405280600d81526020017f456e646f776d656e7446756e64000000000000000000000000000000000000008152506040518263ffffffff1660e01b81526004018080602001828103825283818151815260200191508051906020019080838360005b8381101561388b578082015181840152602081019050613870565b50505050905090810190601f1680156138b85780820380516001836020036101000a031916815260200191505b509250505060206040518083038186803b1580156138d557600080fd5b505afa1580156138e9573d6000803e3d6000fd5b505050506040513d60208110156138ff57600080fd5b8101908080519060200190929190505050600460006101000a81548173ffffffffffffffffffffffffffffffffffffffff021916908373ffffffffffffffffffffffffffffffffffffffff160217905550600160009054906101000a900473ffffffffffffffffffffffffffffffffffffffff1673ffffffffffffffffffffffffffffffffffffffff1663358177736040518060400160405280600981526020017f466f7266656974657200000000000000000000000000000000000000000000008152506040518263ffffffff1660e01b81526004018080602001828103825283818151815260200191508051906020019080838360005b83811015613a135780820151818401526020810190506139f8565b50505050905090810190601f168015613a405780820380516001836020036101000a031916815260200191505b509250505060206040518083038186803b158015613a5d57600080fd5b505afa158015613a71573d6000803e3d6000fd5b505050506040513d6020811015613a8757600080fd5b8101908080519060200190929190505050600560006101000a81548173ffffffffffffffffffffffffffffffffffffffff021916908373ffffffffffffffffffffffffffffffffffffffff160217905550600160009054906101000a900473ffffffffffffffffffffffffffffffffffffffff1673ffffffffffffffffffffffffffffffffffffffff1663358177736040518060400160405280600781526020017f42657474696e67000000000000000000000000000000000000000000000000008152506040518263ffffffff1660e01b81526004018080602001828103825283818151815260200191508051906020019080838360005b83811015613b9b578082015181840152602081019050613b80565b50505050905090810190601f168015613bc85780820380516001836020036101000a031916815260200191505b509250505060206040518083038186803b158015613be557600080fd5b505afa158015613bf9573d6000803e3d6000fd5b505050506040513d6020811015613c0f57600080fd5b8101908080519060200190929190505050600660006101000a81548173ffffffffffffffffffffffffffffffffffffffff021916908373ffffffffffffffffffffffffffffffffffffffff160217905550600160009054906101000a900473ffffffffffffffffffffffffffffffffffffffff1673ffffffffffffffffffffffffffffffffffffffff1663358177736040518060400160405280600981526020017f47616d6553746f726500000000000000000000000000000000000000000000008152506040518263ffffffff1660e01b81526004018080602001828103825283818151815260200191508051906020019080838360005b83811015613d23578082015181840152602081019050613d08565b50505050905090810190601f168015613d505780820380516001836020036101000a031916815260200191505b509250505060206040518083038186803b158015613d6d57600080fd5b505afa158015613d81573d6000803e3d6000fd5b505050506040513d6020811015613d9757600080fd5b8101908080519060200190929190505050600760006101000a81548173ffffffffffffffffffffffffffffffffffffffff021916908373ffffffffffffffffffffffffffffffffffffffff160217905550600160009054906101000a900473ffffffffffffffffffffffffffffffffffffffff1673ffffffffffffffffffffffffffffffffffffffff1663358177736040518060400160405280600c81526020017f47616d654372656174696f6e00000000000000000000000000000000000000008152506040518263ffffffff1660e01b81526004018080602001828103825283818151815260200191508051906020019080838360005b83811015613eab578082015181840152602081019050613e90565b50505050905090810190601f168015613ed85780820380516001836020036101000a031916815260200191505b509250505060206040518083038186803b158015613ef557600080fd5b505afa158015613f09573d6000803e3d6000fd5b505050506040513d6020811015613f1f57600080fd5b8101908080519060200190929190505050600860006101000a81548173ffffffffffffffffffffffffffffffffffffffff021916908373ffffffffffffffffffffffffffffffffffffffff160217905550565b6000809054906101000a900473ffffffffffffffffffffffffffffffffffffffff1681565b6000809054906101000a900473ffffffffffffffffffffffffffffffffffffffff1673ffffffffffffffffffffffffffffffffffffffff163373ffffffffffffffffffffffffffffffffffffffff1614613fed57fe5b80600160006101000a81548173ffffffffffffffffffffffffffffffffffffffff021916908373ffffffffffffffffffffffffffffffffffffffff16021790555050565b600560009054906101000a900473ffffffffffffffffffffffffffffffffffffffff1681565b600760009054906101000a900473ffffffffffffffffffffffffffffffffffffffff1681565b614085614e96565b6003600581111561409257fe5b600360009054906101000a900473ffffffffffffffffffffffffffffffffffffffff1673ffffffffffffffffffffffffffffffffffffffff1663ffde0c74846040518263ffffffff1660e01b81526004018082815260200191505060206040518083038186803b15801561410557600080fd5b505afa158015614119573d6000803e3d6000fd5b505050506040513d602081101561412f57600080fd5b81019080805190602001909291905050501461414a57600080fd5b600080600360009054906101000a900473ffffffffffffffffffffffffffffffffffffffff1673ffffffffffffffffffffffffffffffffffffffff166315a40f49856040518263ffffffff1660e01b81526004018082815260200191505060806040518083038186803b1580156141c057600080fd5b505afa1580156141d4573d6000803e3d6000fd5b505050506040513d60808110156141ea57600080fd5b8101908080519060200190929190805190602001909291908051906020019092919080519060200190929190505050505091509150600080600080600760009054906101000a900473ffffffffffffffffffffffffffffffffffffffff1673ffffffffffffffffffffffffffffffffffffffff1663cefc48268988888b6040518563ffffffff1660e01b8152600401808581526020018473ffffffffffffffffffffffffffffffffffffffff1673ffffffffffffffffffffffffffffffffffffffff1681526020018373ffffffffffffffffffffffffffffffffffffffff1673ffffffffffffffffffffffffffffffffffffffff16815260200182815260200194505050505060806040518083038186803b15801561430857600080fd5b505afa15801561431c573d6000803e3d6000fd5b505050506040513d608081101561433257600080fd5b81019080805190602001909291908051906020019092919080519060200190929190805190602001909291905050509350935093509350600260009054906101000a900473ffffffffffffffffffffffffffffffffffffffff1673ffffffffffffffffffffffffffffffffffffffff1663f1c9d63a8986600760009054906101000a900473ffffffffffffffffffffffffffffffffffffffff1673ffffffffffffffffffffffffffffffffffffffff166316805a298d8a6040518363ffffffff1660e01b8152600401808381526020018273ffffffffffffffffffffffffffffffffffffffff1673ffffffffffffffffffffffffffffffffffffffff1681526020019250505060206040518083038186803b15801561445057600080fd5b505afa158015614464573d6000803e3d6000fd5b505050506040513d602081101561447a57600080fd5b8101908080519060200190929190505050600760009054906101000a900473ffffffffffffffffffffffffffffffffffffffff1673ffffffffffffffffffffffffffffffffffffffff16635f87206d8e8b6040518363ffffffff1660e01b8152600401808381526020018273ffffffffffffffffffffffffffffffffffffffff1673ffffffffffffffffffffffffffffffffffffffff1681526020019250505060206040518083038186803b15801561453257600080fd5b505afa158015614546573d6000803e3d6000fd5b505050506040513d602081101561455c57600080fd5b81019080805190602001909291905050506040518563ffffffff1660e01b8152600401808581526020018473ffffffffffffffffffffffffffffffffffffffff1673ffffffffffffffffffffffffffffffffffffffff1681526020018373ffffffffffffffffffffffffffffffffffffffff1673ffffffffffffffffffffffffffffffffffffffff1681526020018273ffffffffffffffffffffffffffffffffffffffff1673ffffffffffffffffffffffffffffffffffffffff168152602001945050505050600060405180830381600087803b15801561463c57600080fd5b505af1158015614650573d6000803e3d6000fd5b50505050600260009054906101000a900473ffffffffffffffffffffffffffffffffffffffff1673ffffffffffffffffffffffffffffffffffffffff16639ecd537a896040518263ffffffff1660e01b815260040180828152602001915050600060405180830381600087803b1580156146c957600080fd5b505af11580156146dd573d6000803e3d6000fd5b50505050600860009054906101000a900473ffffffffffffffffffffffffffffffffffffffff1673ffffffffffffffffffffffffffffffffffffffff16631174497185858b6040518463ffffffff1660e01b8152600401808473ffffffffffffffffffffffffffffffffffffffff1673ffffffffffffffffffffffffffffffffffffffff1681526020018373ffffffffffffffffffffffffffffffffffffffff1673ffffffffffffffffffffffffffffffffffffffff1681526020018281526020019350505050600060405180830381600087803b1580156147be57600080fd5b505af11580156147d2573d6000803e3d6000fd5b505050506000600360009054906101000a900473ffffffffffffffffffffffffffffffffffffffff1673ffffffffffffffffffffffffffffffffffffffff1663525a8e4e8a6040518263ffffffff1660e01b815260040180828152602001915050604080518083038186803b15801561484a57600080fd5b505afa15801561485e573d6000803e3d6000fd5b505050506040513d604081101561487457600080fd5b810190808051906020019092919080519060200190929190505050509050600460009054906101000a900473ffffffffffffffffffffffffffffffffffffffff1673ffffffffffffffffffffffffffffffffffffffff1663adee6f2b8a866040518363ffffffff1660e01b8152600401808381526020018273ffffffffffffffffffffffffffffffffffffffff1673ffffffffffffffffffffffffffffffffffffffff16815260200192505050600060405180830381600087803b15801561493b57600080fd5b505af115801561494f573d6000803e3d6000fd5b50505050600460009054906101000a900473ffffffffffffffffffffffffffffffffffffffff1673ffffffffffffffffffffffffffffffffffffffff1663d665a7178a60056040518363ffffffff1660e01b81526004018083815260200182815260200192505050600060405180830381600087803b1580156149d157600080fd5b505af11580156149e5573d6000803e3d6000fd5b50505050600760009054906101000a900473ffffffffffffffffffffffffffffffffffffffff1673ffffffffffffffffffffffffffffffffffffffff16635daaf7988a6040518263ffffffff1660e01b815260040180828152602001915050600060405180830381600087803b158015614a5e57600080fd5b505af1158015614a72573d6000803e3d6000fd5b50505050600460009054906101000a900473ffffffffffffffffffffffffffffffffffffffff1673ffffffffffffffffffffffffffffffffffffffff1663b49c0ebe614abc61529c565b6040518263ffffffff1660e01b8152600401808273ffffffffffffffffffffffffffffffffffffffff1673ffffffffffffffffffffffffffffffffffffffff168152602001915050602060405180830381600087803b158015614b1e57600080fd5b505af1158015614b32573d6000803e3d6000fd5b505050506040513d6020811015614b4857600080fd5b810190808051906020019092919050505050600260009054906101000a900473ffffffffffffffffffffffffffffffffffffffff1673ffffffffffffffffffffffffffffffffffffffff1663f5de83978a60046005811115614ba657fe5b6040518363ffffffff1660e01b81526004018083815260200182815260200192505050600060405180830381600087803b158015614be357600080fd5b505af1158015614bf7573d6000803e3d6000fd5b50505050887f44eba4bcf780a2012259962cf19bf1777051e027304e22dd8e324b0cefb4be266002600460405180836005811115614c3157fe5b60ff168152602001826005811115614c4557fe5b60ff1681526020019250505060405180910390a28373ffffffffffffffffffffffffffffffffffffffff168573ffffffffffffffffffffffffffffffffffffffff168a7ff1ef0c82644b061a588c809f1271ad223bd37fbed3b6b4a80e23b549fa80d8e58686604051808381526020018281526020019250505060405180910390a4505050505050505050565b6040518060400160405280600c81526020017f47616d654372656174696f6e0000000000000000000000000000000000000000815250614d1181615351565b614d66576040517f08c379a000000000000000000000000000000000000000000000000000000000815260040180806020018281038252602d815260200180615def602d913960400191505060405180910390fd5b614d6f826155b3565b614d7882615a20565b5050565b600160009054906101000a900473ffffffffffffffffffffffffffffffffffffffff1681565b600260009054906101000a900473ffffffffffffffffffffffffffffffffffffffff1681565b6000809054906101000a900473ffffffffffffffffffffffffffffffffffffffff1673ffffffffffffffffffffffffffffffffffffffff163373ffffffffffffffffffffffffffffffffffffffff1614614e1e57fe5b600073ffffffffffffffffffffffffffffffffffffffff168173ffffffffffffffffffffffffffffffffffffffff1614614e9357806000806101000a81548173ffffffffffffffffffffffffffffffffffffffff021916908373ffffffffffffffffffffffffffffffffffffffff1602179055505b50565b600073ffffffffffffffffffffffffffffffffffffffff16600160009054906101000a900473ffffffffffffffffffffffffffffffffffffffff1673ffffffffffffffffffffffffffffffffffffffff161415614f5b576040517f08c379a00000000000000000000000000000000000000000000000000000000081526004018080602001828103825260088152602001807f4e6f2050726f787900000000000000000000000000000000000000000000000081525060200191505060405180910390fd5b600160009054906101000a900473ffffffffffffffffffffffffffffffffffffffff1673ffffffffffffffffffffffffffffffffffffffff163373ffffffffffffffffffffffffffffffffffffffff161461501e576040517f08c379a00000000000000000000000000000000000000000000000000000000081526004018080602001828103825260128152602001807f4f6e6c79207468726f7567682050726f7879000000000000000000000000000081525060200191505060405180910390fd5b565b6000600160009054906101000a900473ffffffffffffffffffffffffffffffffffffffff1673ffffffffffffffffffffffffffffffffffffffff1663358177736040518060400160405280600681526020017f526f6c65444200000000000000000000000000000000000000000000000000008152506040518263ffffffff1660e01b81526004018080602001828103825283818151815260200191508051906020019080838360005b838110156150e55780820151818401526020810190506150ca565b50505050905090810190601f1680156151125780820380516001836020036101000a031916815260200191505b509250505060206040518083038186803b15801561512f57600080fd5b505afa158015615143573d6000803e3d6000fd5b505050506040513d602081101561515957600080fd5b810190808051906020019092919050505073ffffffffffffffffffffffffffffffffffffffff16636c9cd0978361518e61529c565b6040518363ffffffff1660e01b815260040180806020018373ffffffffffffffffffffffffffffffffffffffff1673ffffffffffffffffffffffffffffffffffffffff168152602001828103825284818151815260200191508051906020019080838360005b8381101561520f5780820151818401526020810190506151f4565b50505050905090810190601f16801561523c5780820380516001836020036101000a031916815260200191505b50935050505060206040518083038186803b15801561525a57600080fd5b505afa15801561526e573d6000803e3d6000fd5b505050506040513d602081101561528457600080fd5b81019080805190602001909291905050509050919050565b6000600160009054906101000a900473ffffffffffffffffffffffffffffffffffffffff1673ffffffffffffffffffffffffffffffffffffffff163373ffffffffffffffffffffffffffffffffffffffff16146152fb5733905061534e565b6000601436036000602052601481602c37602051915050600073ffffffffffffffffffffffffffffffffffffffff168173ffffffffffffffffffffffffffffffffffffffff16141561534957fe5b809150505b90565b60008073ffffffffffffffffffffffffffffffffffffffff16600160009054906101000a900473ffffffffffffffffffffffffffffffffffffffff1673ffffffffffffffffffffffffffffffffffffffff161415615417576040517f08c379a00000000000000000000000000000000000000000000000000000000081526004018080602001828103825260088152602001807f4e6f2050726f787900000000000000000000000000000000000000000000000081525060200191505060405180910390fd5b6000600160009054906101000a900473ffffffffffffffffffffffffffffffffffffffff1673ffffffffffffffffffffffffffffffffffffffff166335817773846040518263ffffffff1660e01b81526004018080602001828103825283818151815260200191508051906020019080838360005b838110156154a757808201518184015260208101905061548c565b50505050905090810190601f1680156154d45780820380516001836020036101000a031916815260200191505b509250505060206040518083038186803b1580156154f157600080fd5b505afa158015615505573d6000803e3d6000fd5b505050506040513d602081101561551b57600080fd5b81019080805190602001909291905050509050600073ffffffffffffffffffffffffffffffffffffffff168173ffffffffffffffffffffffffffffffffffffffff16141561556557fe5b8073ffffffffffffffffffffffffffffffffffffffff163373ffffffffffffffffffffffffffffffffffffffff1614915050919050565b6000828211156155a857fe5b818303905092915050565b6000600360009054906101000a900473ffffffffffffffffffffffffffffffffffffffff1673ffffffffffffffffffffffffffffffffffffffff16638851470d836040518263ffffffff1660e01b81526004018082815260200191505060606040518083038186803b15801561562857600080fd5b505afa15801561563c573d6000803e3d6000fd5b505050506040513d606081101561565257600080fd5b81019080805190602001909291908051906020019092919080519060200190929190505050925050506000600760009054906101000a900473ffffffffffffffffffffffffffffffffffffffff1673ffffffffffffffffffffffffffffffffffffffff16630d8d7aba846040518263ffffffff1660e01b81526004018082815260200191505060206040518083038186803b1580156156f057600080fd5b505afa158015615704573d6000803e3d6000fd5b505050506040513d602081101561571a57600080fd5b81019080805190602001909291905050509050600860009054906101000a900473ffffffffffffffffffffffffffffffffffffffff1673ffffffffffffffffffffffffffffffffffffffff16632fab9fd384846040518363ffffffff1660e01b8152600401808381526020018281526020019250505060206040518083038186803b1580156157a857600080fd5b505afa1580156157bc573d6000803e3d6000fd5b505050506040513d60208110156157d257600080fd5b810190808051906020019092919050505015615a1b5781421161589b57600260009054906101000a900473ffffffffffffffffffffffffffffffffffffffff1673ffffffffffffffffffffffffffffffffffffffff1663e44542df846158418486615dd290919063ffffffff16565b6040518363ffffffff1660e01b81526004018083815260200182815260200192505050600060405180830381600087803b15801561587e57600080fd5b505af1158015615892573d6000803e3d6000fd5b50505050615943565b600260009054906101000a900473ffffffffffffffffffffffffffffffffffffffff1673ffffffffffffffffffffffffffffffffffffffff1663e44542df846158ed8442615dd290919063ffffffff16565b6040518363ffffffff1660e01b81526004018083815260200182815260200192505050600060405180830381600087803b15801561592a57600080fd5b505af115801561593e573d6000803e3d6000fd5b505050505b600860009054906101000a900473ffffffffffffffffffffffffffffffffffffffff1673ffffffffffffffffffffffffffffffffffffffff1663c2b66904846040518263ffffffff1660e01b815260040180828152602001915050600060405180830381600087803b1580156159b857600080fd5b505af11580156159cc573d6000803e3d6000fd5b50505050827ff42bff50b2d4e041c7d3bdb0a7934ee7210c0c43a7c82e269c259d4af2448283615a058385615dd290919063ffffffff16565b6040518082815260200191505060405180910390a25b505050565b60026005811115615a2d57fe5b600360009054906101000a900473ffffffffffffffffffffffffffffffffffffffff1673ffffffffffffffffffffffffffffffffffffffff1663ffde0c74836040518263ffffffff1660e01b81526004018082815260200191505060206040518083038186803b158015615aa057600080fd5b505afa158015615ab4573d6000803e3d6000fd5b505050506040513d6020811015615aca57600080fd5b810190808051906020019092919050505014615ae557600080fd5b6000600360009054906101000a900473ffffffffffffffffffffffffffffffffffffffff1673ffffffffffffffffffffffffffffffffffffffff16638851470d836040518263ffffffff1660e01b81526004018082815260200191505060606040518083038186803b158015615b5a57600080fd5b505afa158015615b6e573d6000803e3d6000fd5b505050506040513d6060811015615b8457600080fd5b8101908080519060200190929190805190602001909291908051906020019092919050505092505050428111615dce57600860009054906101000a900473ffffffffffffffffffffffffffffffffffffffff1673ffffffffffffffffffffffffffffffffffffffff16639d60d53e836040518263ffffffff1660e01b815260040180828152602001915050600060405180830381600087803b158015615c2957600080fd5b505af1158015615c3d573d6000803e3d6000fd5b50505050600260009054906101000a900473ffffffffffffffffffffffffffffffffffffffff1673ffffffffffffffffffffffffffffffffffffffff1663f5de83978360036005811115615c8d57fe5b6040518363ffffffff1660e01b81526004018083815260200182815260200192505050600060405180830381600087803b158015615cca57600080fd5b505af1158015615cde573d6000803e3d6000fd5b50505050600860009054906101000a900473ffffffffffffffffffffffffffffffffffffffff1673ffffffffffffffffffffffffffffffffffffffff16636fee856a836040518263ffffffff1660e01b815260040180828152602001915050600060405180830381600087803b158015615d5757600080fd5b505af1158015615d6b573d6000803e3d6000fd5b50505050817f44eba4bcf780a2012259962cf19bf1777051e027304e22dd8e324b0cefb4be266002600360405180836005811115615da557fe5b60ff168152602001826005811115615db957fe5b60ff1681526020019250505060405180910390a25b5050565b600080828401905083811015615de457fe5b809150509291505056fe416363657373206973206f6e6c7920616c6c6f7765642066726f6d20737065636966696320636f6e7472616374a265627a7a723158203183fff0a1618356ab5d49fcef3c68c1146eca0a59f915ab053c88afaa0d11f864736f6c63430005110032",
  "source": "/**\n * @title GamesManager\n *\n * @author @wafflemakr @karl @vikrammandal @Xaleee\n\n *\n */\n//modifier class (DSAuth )\n//Event class ( DSNote )\n//\n// This program is free software: you can redistribute it and/or modify\n// it under the terms of the GNU General Public License as published by\n// the Free Software Foundation, either version 3 of the License, or\n// (at your option) any later version.\n\n// This program is distributed in the hope that it will be useful,\n// but WITHOUT ANY WARRANTY; without even the implied warranty of\n// MERCHANTABILITY or FITNESS FOR A PARTICULAR PURPOSE.  See the\n// GNU General Public License for more details.\n\n// You should have received a copy of the GNU General Public License\n// along with this program.  If not, see <http://www.gnu.org/licenses/>.\n\npragma solidity ^0.5.5;\n\nimport '../proxy/Proxied.sol';\nimport \"../databases/GMSetterDB.sol\";\nimport \"../databases/GMGetterDB.sol\";\nimport \"../endowment/EndowmentFund.sol\";\nimport \"./Forfeiter.sol\";\nimport \"../algorithm/Betting.sol\";\nimport \"../algorithm/HitsResolveAlgo.sol\";\nimport \"../algorithm/RarityCalculator.sol\";\nimport \"../databases/ProfileDB.sol\";\nimport \"../../libs/SafeMath.sol\";\nimport '../../authority/Guard.sol';\nimport '../../mocks/MockERC721Token.sol';\nimport \"./GameStore.sol\";\nimport \"./GameCreation.sol\";\nimport \"../endowment/KtyUniswap.sol\";\n\ncontract GameManager is Proxied, Guard {\n    using SafeMath for uint256;\n\n    //Contract Variables\n    GMSetterDB public gmSetterDB;\n    GMGetterDB public gmGetterDB;\n    EndowmentFund public endowmentFund;\n    Forfeiter public forfeiter;\n    Betting public betting;\n    GameStore public gameStore;\n    GameCreation public gameCreation;\n\n    enum eGameState {WAITING, PRE_GAME, MAIN_GAME, GAME_OVER, CLAIMING, CANCELLED}\n\n    //EVENTS\n    event NewSupporter(uint indexed gameId, address supporter, address indexed playerSupported);\n    event PressStart(uint indexed gameId, address player);\n    event GameStateChanged(uint indexed gameId, eGameState old_state, eGameState new_state);\n    event GameEnded(uint indexed gameId, address indexed winner, address indexed loser, uint pointsBlack, uint pointsRed);\n    event GameExtended(uint indexed gameId, uint newEndTime);\n\n    modifier onlyGamePlayer(uint gameId, address player) {\n        require(ProfileDB(proxy.getContract(CONTRACT_NAME_PROFILE_DB)).getCivicId(player) > 0);\n        require(gmGetterDB.isPlayer(gameId, player));\n        _;\n    }\n\n    /**\n    * @dev Sets related contracts\n    * @dev Can be called only by the owner of this contract\n    */\n    function initialize() external onlyOwner {\n\n        gmSetterDB = GMSetterDB(proxy.getContract(CONTRACT_NAME_GM_SETTER_DB));\n        gmGetterDB = GMGetterDB(proxy.getContract(CONTRACT_NAME_GM_GETTER_DB));\n        endowmentFund = EndowmentFund(proxy.getContract(CONTRACT_NAME_ENDOWMENT_FUND));\n        forfeiter = Forfeiter(proxy.getContract(CONTRACT_NAME_FORFEITER));\n        betting = Betting(proxy.getContract(CONTRACT_NAME_BETTING));\n        gameStore = GameStore(proxy.getContract(CONTRACT_NAME_GAMESTORE));\n        gameCreation = GameCreation(proxy.getContract(CONTRACT_NAME_GAMECREATION));\n    }\n\n    /**\n     * @dev Betters pay a ticket fee to participate in betting .\n     *      Betters can join before and even a live game.\n     */\n    function participate\n    (\n        uint gameId,\n        address playerToSupport\n    )\n        public\n        payable\n        onlyProxy onlyBettor\n        onlyGamePlayer(gameId, playerToSupport)\n    {\n        require(msg.value > 0);\n\n        uint gameState = gmGetterDB.getGameState(gameId);\n\n        address supporter = getOriginalSender();\n\n        require(supporter != playerToSupport);\n\n        //Before GAME_OVER\n        require(gameState <= 2);\n\n        //pay ticket fee\n        (uint etherForSwap, uint ticketFeeKTY) = gameStore.getTicketFee(gameId);\n        require(endowmentFund.contributeKTY.value(msg.value)(supporter, etherForSwap, ticketFeeKTY));\n\n        require(gmSetterDB.addBettor(gameId, supporter, playerToSupport));\n\n        (,uint preStartTime,) = gmGetterDB.getGameTimes(gameId);\n\n        if (gameState == 0 || gameState == 1) forfeiter.checkGameStatus(gameId, gameState);\n        //Check again to see if forfeited\n        gameState = gmGetterDB.getGameState(gameId);\n\n        //Update state if reached prestart time\n        //Include check game state because it can be called from the bet function\n        if ((gameState == uint(eGameState.WAITING)) && (preStartTime <= now)){\n            gameCreation.deleteCronjob(gameId);\n            gmSetterDB.updateGameState(gameId, uint(eGameState.PRE_GAME));\n            emit GameStateChanged(gameId, eGameState.WAITING, eGameState.PRE_GAME);\n        }\n\n        emit NewSupporter(gameId, supporter, playerToSupport);\n    }\n\n    /**\n     * @dev only both Actual players can call\n     */\n    function startGame\n    (\n        uint gameId,\n        uint randomNum,\n        uint genes\n    )\n        external\n        onlyProxy onlyPlayer\n        onlyGamePlayer(gameId, getOriginalSender())\n    {\n        uint gameState = gmGetterDB.getGameState(gameId);\n        forfeiter.checkGameStatus(gameId, gameState);\n\n        gameState = gmGetterDB.getGameState(gameId);\n\n        if(gameState == uint(eGameState.PRE_GAME)){\n\n            address player = getOriginalSender();\n            uint kittieId = gmGetterDB.getKittieInGame(gameId, player);\n            \n            gameStore.start(gameId, player, randomNum);\n\n            // (,,,,,,,,,uint genes) = MockERC721Token(proxy.getContract(CONTRACT_NAME_CRYPTOKITTIES)).getKitty(kittieId);\n            // uint genes = MockERC721Token(proxy.getContract(CONTRACT_NAME_CRYPTOKITTIES)).getKitty(kittieId);\n            betting.setOriginalDefenseLevel(gameId, player, RarityCalculator(proxy.getContract(CONTRACT_NAME_RARITYCALCULATOR)).getDefenseLevel(kittieId, genes));\n\n            address opponentPlayer = gameStore.getOpponent(gameId, player);\n\n            emit PressStart(gameId, player);\n\n            //Both Players Hit start\n            if (gameStore.didHitStart(gameId, opponentPlayer)){\n                //Call betting to set fight map\n                betting.startGame(gameId, randomNum, gameStore.getRandom(gameId, opponentPlayer));\n                \n                gameCreation.deleteCronjob(gameId);\n\n                //GameStarts\n                gmSetterDB.updateGameState(gameId, uint(eGameState.MAIN_GAME));\n                endowmentFund.updateHoneyPotState(gameId, 3);\n                emit GameStateChanged(gameId, eGameState.PRE_GAME, eGameState.MAIN_GAME);\n            }\n        }\n    }\n\n    /**\n     * @dev checks to see if current jackpot is at least 10 times (10x)\n     *  the amount of funds originally placed in jackpot\n     */\n    function checkPerformance(uint gameId) internal {\n        (,,uint gameEndTime) = gmGetterDB.getGameTimes(gameId);\n        uint timeExtension = gameStore.getTimeExtension(gameId);\n\n        if(gameCreation.checkPerformanceHelper(gameId, gameEndTime)){\n            if(now <= gameEndTime)\n                gmSetterDB.updateEndTime(gameId, gameEndTime.add(timeExtension));\n            else\n                gmSetterDB.updateEndTime(gameId, now.add(timeExtension));\n            gameCreation.rescheduleCronJob(gameId);\n            emit GameExtended(gameId, gameEndTime.add(timeExtension));\n        }\n    }\n\n    /**\n     * @dev KTY tokens are sent to endowment balance, Eth gets added to ongoing game honeypot\n     * @author Felipe\n     * @author Karl\n     * @author Vikrammandal\n     */\n    function bet\n    (\n        uint gameId, uint randomNum\n    )\n        external payable\n        onlyProxy onlyBettor\n    {\n        require(msg.value > 0);\n\n        uint gameState = gmGetterDB.getGameState(gameId);\n\n        address supportedPlayer;\n        bool payedFee;\n        \n        require(gameState == uint(eGameState.MAIN_GAME));\n        \n        address sender = getOriginalSender();\n        \n        if(!(gmGetterDB.isPlayer(gameId, sender))){\n            (, supportedPlayer, payedFee,) = gmGetterDB.getSupporterInfo(gameId, sender);\n            require(payedFee); //Needs to call participate first if false\n        }\n        else{\n            supportedPlayer = sender;\n        }\n\n        (uint etherForSwap, uint bettingFeeKTY) = gameStore.getBettingFee(gameId);\n\n        //Transfer Funds to endowment\n        require(endowmentFund.contributeETH.value(msg.value.sub(etherForSwap))(gameId));\n        //pay ticket fee\n        require(endowmentFund.contributeKTY.value(etherForSwap)(sender, etherForSwap, bettingFeeKTY));\n        //require(endowmentFund.contributeKTY(sender, gameStore.getBettingFee(gameId)));\n\n        // Update Random\n        HitsResolve(proxy.getContract(CONTRACT_NAME_HITSRESOLVE)).calculateCurrentRandom(gameId, randomNum);\n        \n        address opponentPlayer = gameStore.getOpponent(gameId, supportedPlayer);\n        \n        //Send bet to betting algo, to decide attacks\n        betting.bet(gameId, sender, msg.value.sub(etherForSwap), supportedPlayer, opponentPlayer, randomNum);\n\n        //Update bettor's total bet\n        gmSetterDB.updateBettor(gameId, sender, msg.value.sub(etherForSwap), supportedPlayer);\n\n        if (sender != supportedPlayer) gameStore.updateTopbettors(gameId, sender, supportedPlayer);\n\n        // check underperforming game if one minut\n        checkPerformance(gameId);\n\n        //Check if game has ended\n        gameEnd(gameId);\n    }\n\n    /**\n     * @dev game comes to an end at time duration,continously check game time end\n     */\n    function gameEnd(uint gameId) internal {\n        require(gmGetterDB.getGameState(gameId) == uint(eGameState.MAIN_GAME));\n\n        (,,uint endTime) = gmGetterDB.getGameTimes(gameId);\n\n        if ( endTime <= now){\n            gameCreation.deleteCronjob(gameId);\n            gmSetterDB.updateGameState(gameId, uint(eGameState.GAME_OVER));\n            gameCreation.removeKitties(gameId);\n            emit GameStateChanged(gameId, eGameState.MAIN_GAME, eGameState.GAME_OVER);\n        }\n    }\n\n    //Function to call gameEnd from Cronjob\n    function gameEndCron(uint gameId) \n        external\n        onlyContract(CONTRACT_NAME_GAMECREATION)\n    {\n        checkPerformance(gameId);\n        gameEnd(gameId);\n    }\n\n    /**\n     * @dev Determine winner of game based on  **HitResolver **\n     */\n    function finalize(uint gameId, uint randomNum) external onlyProxy {\n        require(gmGetterDB.getGameState(gameId) == uint(eGameState.GAME_OVER));\n\n        (address playerBlack, address playerRed,,) = gmGetterDB.getGamePlayers(gameId);\n\n        (address winner, address loser, uint256 pointsBlack, uint256 pointsRed) = gameStore.calculateWinner(\n            gameId, playerBlack, playerRed, randomNum\n        );\n\n        //Store Winners in DB\n        gmSetterDB.setWinners(gameId, winner, gameStore.getTopBettor(gameId, winner),\n            gameStore.getSecondTopBettor(gameId, winner));\n\n        //Lock Honeypot Final Details\n        gmSetterDB.storeHoneypotDetails(gameId);\n\n        gameCreation.updateKitties(winner, loser, gameId);\n\n        (uint256 totalETHinHoneypot,) = gmGetterDB.getFinalHoneypot(gameId);\n        endowmentFund.addETHtoPool(gameId, loser);\n\n        //Set to claiming\n        endowmentFund.updateHoneyPotState(gameId, 5);\n\n        // update kittie redemption fee dynamically to a percentage of the final honey pot\n        gameStore.updateKittieRedemptionFee(gameId); \n\n        //Send Finalize reward\n        endowmentFund.sendFinalizeRewards(getOriginalSender());\n\n        gmSetterDB.updateGameState(gameId, uint(eGameState.CLAIMING));\n\n        emit GameStateChanged(gameId, eGameState.MAIN_GAME, eGameState.CLAIMING);\n\n        emit GameEnded(gameId, winner, loser, pointsBlack, pointsRed);\n    }\n    \n\n    /**\n     * @dev Cancels the game before the game starts\n     */\n    function cancelGame(uint gameId) external onlyContract(CONTRACT_NAME_FORFEITER) {\n        uint gameState = gmGetterDB.getGameState(gameId);\n        require(gameState == uint(eGameState.WAITING) ||\n                gameState == uint(eGameState.PRE_GAME));\n\n        gmSetterDB.updateGameState(gameId, uint(eGameState.CANCELLED));\n\n        //Set to forfeited\n        endowmentFund.updateHoneyPotState(gameId, 4);\n        gameCreation.removeKitties(gameId);\n\n        gameCreation.deleteCronjob(gameId);\n        gameStore.startAfterCancel();\n\n    }\n}\n",
  "sourcePath": "/Users/ziweizhang/Desktop/Test/contracts/contracts/modules/gamemanager/GameManager.sol",
  "compiler": {
    "name": "solc",
    "version": "0.5.17+commit.d19bba13.Emscripten.clang"
  },
  "schemaVersion": "3.0.23",
  "updatedAt": "2020-07-08T15:51:35.783Z",
  "networkType": "ethereum",
  "devdoc": {
    "methods": {
      "bet(uint256,uint256)": {
        "author": "FelipeKarlVikrammandal",
        "details": "KTY tokens are sent to endowment balance, Eth gets added to ongoing game honeypot"
      },
      "cancelGame(uint256)": {
        "details": "Cancels the game before the game starts"
      },
      "finalize(uint256,uint256)": {
        "details": "Determine winner of game based on  **HitResolver **"
      },
      "initialize()": {
        "details": "Sets related contractsCan be called only by the owner of this contract"
      },
      "participate(uint256,address)": {
        "details": "Betters pay a ticket fee to participate in betting .     Betters can join before and even a live game."
      },
      "startGame(uint256,uint256,uint256)": {
        "details": "only both Actual players can call"
      }
    }
  },
  "userdoc": {
    "methods": {
      "setProxy(address)": {
        "notice": "Set/update address of Proxy contract"
      }
    }
  }
}