{
  "contractName": "GameManager",
  "abi": [
    {
      "anonymous": false,
      "inputs": [
        {
          "indexed": true,
          "internalType": "uint256",
          "name": "gameId",
          "type": "uint256"
        },
        {
          "indexed": true,
          "internalType": "address",
          "name": "winner",
          "type": "address"
        },
        {
          "indexed": true,
          "internalType": "address",
          "name": "loser",
          "type": "address"
        },
        {
          "indexed": false,
          "internalType": "uint256",
          "name": "pointsBlack",
          "type": "uint256"
        },
        {
          "indexed": false,
          "internalType": "uint256",
          "name": "pointsRed",
          "type": "uint256"
        }
      ],
      "name": "GameEnded",
      "type": "event"
    },
    {
      "anonymous": false,
      "inputs": [
        {
          "indexed": true,
          "internalType": "uint256",
          "name": "gameId",
          "type": "uint256"
        },
        {
          "indexed": false,
          "internalType": "uint256",
          "name": "newEndTime",
          "type": "uint256"
        }
      ],
      "name": "GameExtended",
      "type": "event"
    },
    {
      "anonymous": false,
      "inputs": [
        {
          "indexed": true,
          "internalType": "uint256",
          "name": "gameId",
          "type": "uint256"
        },
        {
          "indexed": false,
          "internalType": "enum GameManager.eGameState",
          "name": "old_state",
          "type": "uint8"
        },
        {
          "indexed": false,
          "internalType": "enum GameManager.eGameState",
          "name": "new_state",
          "type": "uint8"
        }
      ],
      "name": "GameStateChanged",
      "type": "event"
    },
    {
      "anonymous": false,
      "inputs": [
        {
          "indexed": true,
          "internalType": "uint256",
          "name": "gameId",
          "type": "uint256"
        },
        {
          "indexed": false,
          "internalType": "address",
          "name": "supporter",
          "type": "address"
        },
        {
          "indexed": true,
          "internalType": "address",
          "name": "playerSupported",
          "type": "address"
        }
      ],
      "name": "NewSupporter",
      "type": "event"
    },
    {
      "anonymous": false,
      "inputs": [
        {
          "indexed": true,
          "internalType": "uint256",
          "name": "gameId",
          "type": "uint256"
        },
        {
          "indexed": false,
          "internalType": "address",
          "name": "player",
          "type": "address"
        }
      ],
      "name": "PressStart",
      "type": "event"
    },
    {
      "constant": true,
      "inputs": [],
      "name": "betting",
      "outputs": [
        {
          "internalType": "contract Betting",
          "name": "",
          "type": "address"
        }
      ],
      "payable": false,
      "stateMutability": "view",
      "type": "function"
    },
    {
      "constant": true,
      "inputs": [],
      "name": "endowmentFund",
      "outputs": [
        {
          "internalType": "contract EndowmentFund",
          "name": "",
          "type": "address"
        }
      ],
      "payable": false,
      "stateMutability": "view",
      "type": "function"
    },
    {
      "constant": true,
      "inputs": [],
      "name": "forfeiter",
      "outputs": [
        {
          "internalType": "contract Forfeiter",
          "name": "",
          "type": "address"
        }
      ],
      "payable": false,
      "stateMutability": "view",
      "type": "function"
    },
    {
      "constant": true,
      "inputs": [],
      "name": "gameCreation",
      "outputs": [
        {
          "internalType": "contract GameCreation",
          "name": "",
          "type": "address"
        }
      ],
      "payable": false,
      "stateMutability": "view",
      "type": "function"
    },
    {
      "constant": true,
      "inputs": [],
      "name": "gameStore",
      "outputs": [
        {
          "internalType": "contract GameStore",
          "name": "",
          "type": "address"
        }
      ],
      "payable": false,
      "stateMutability": "view",
      "type": "function"
    },
    {
      "constant": true,
      "inputs": [],
      "name": "gmGetterDB",
      "outputs": [
        {
          "internalType": "contract GMGetterDB",
          "name": "",
          "type": "address"
        }
      ],
      "payable": false,
      "stateMutability": "view",
      "type": "function"
    },
    {
      "constant": true,
      "inputs": [],
      "name": "gmSetterDB",
      "outputs": [
        {
          "internalType": "contract GMSetterDB",
          "name": "",
          "type": "address"
        }
      ],
      "payable": false,
      "stateMutability": "view",
      "type": "function"
    },
    {
      "constant": true,
      "inputs": [],
      "name": "kittieHELL",
      "outputs": [
        {
          "internalType": "contract KittieHell",
          "name": "",
          "type": "address"
        }
      ],
      "payable": false,
      "stateMutability": "view",
      "type": "function"
    },
    {
      "constant": true,
      "inputs": [],
      "name": "owner",
      "outputs": [
        {
          "internalType": "address payable",
          "name": "",
          "type": "address"
        }
      ],
      "payable": false,
      "stateMutability": "view",
      "type": "function"
    },
    {
      "constant": true,
      "inputs": [],
      "name": "proxy",
      "outputs": [
        {
          "internalType": "contract ProxyBase",
          "name": "",
          "type": "address"
        }
      ],
      "payable": false,
      "stateMutability": "view",
      "type": "function"
    },
    {
      "constant": false,
      "inputs": [
        {
          "internalType": "contract ProxyBase",
          "name": "_proxy",
          "type": "address"
        }
      ],
      "name": "setProxy",
      "outputs": [],
      "payable": false,
      "stateMutability": "nonpayable",
      "type": "function"
    },
    {
      "constant": false,
      "inputs": [
        {
          "internalType": "address payable",
          "name": "newOwner",
          "type": "address"
        }
      ],
      "name": "transferOwnership",
      "outputs": [],
      "payable": false,
      "stateMutability": "nonpayable",
      "type": "function"
    },
    {
      "constant": false,
      "inputs": [],
      "name": "initialize",
      "outputs": [],
      "payable": false,
      "stateMutability": "nonpayable",
      "type": "function"
    },
    {
      "constant": false,
      "inputs": [
        {
          "internalType": "uint256",
          "name": "gameId",
          "type": "uint256"
        },
        {
          "internalType": "address",
          "name": "playerToSupport",
          "type": "address"
        }
      ],
      "name": "participate",
      "outputs": [],
      "payable": false,
      "stateMutability": "nonpayable",
      "type": "function"
    },
    {
      "constant": false,
      "inputs": [
        {
          "internalType": "uint256",
          "name": "gameId",
          "type": "uint256"
        },
        {
          "internalType": "uint256",
          "name": "randomNum",
          "type": "uint256"
        },
        {
          "internalType": "uint256",
          "name": "genes",
          "type": "uint256"
        }
      ],
      "name": "startGame",
      "outputs": [],
      "payable": false,
      "stateMutability": "nonpayable",
      "type": "function"
    },
    {
      "constant": false,
      "inputs": [
        {
          "internalType": "uint256",
          "name": "gameId",
          "type": "uint256"
        },
        {
          "internalType": "uint256",
          "name": "randomNum",
          "type": "uint256"
        }
      ],
      "name": "bet",
      "outputs": [],
      "payable": true,
      "stateMutability": "payable",
      "type": "function"
    },
    {
      "constant": false,
      "inputs": [
        {
          "internalType": "uint256",
          "name": "gameId",
          "type": "uint256"
        }
      ],
      "name": "gameEndCron",
      "outputs": [],
      "payable": false,
      "stateMutability": "nonpayable",
      "type": "function"
    },
    {
      "constant": false,
      "inputs": [
        {
          "internalType": "uint256",
          "name": "gameId",
          "type": "uint256"
        },
        {
          "internalType": "uint256",
          "name": "randomNum",
          "type": "uint256"
        }
      ],
      "name": "finalize",
      "outputs": [],
      "payable": false,
      "stateMutability": "nonpayable",
      "type": "function"
    },
    {
      "constant": false,
      "inputs": [
        {
          "internalType": "uint256",
          "name": "gameId",
          "type": "uint256"
        }
      ],
      "name": "cancelGame",
      "outputs": [],
      "payable": false,
      "stateMutability": "nonpayable",
      "type": "function"
    }
  ],
  "bytecode": "0x6080604052336000806101000a81548173ffffffffffffffffffffffffffffffffffffffff021916908373ffffffffffffffffffffffffffffffffffffffff160217905550616689806100536000396000f3fe6080604052600436106101145760003560e01c80638da5cb5b116100a0578063cfafbde711610064578063cfafbde714610544578063ddda07191461059b578063ec556889146105d6578063f26dee8e1461062d578063f2fde38b1461068457610114565b80638da5cb5b146103a957806397107d6d14610400578063a0b06a6914610451578063b1be6469146104a8578063b6013cef146104ff57610114565b806339b4b0d6116100e757806339b4b0d61461027157806369958ab9146102c857806369af70b3146103035780636ffcc7191461035a5780638129fc1c1461039257610114565b806313b186401461011957806315a194ec146101745780631fc75180146101cb5780632c31d08514610222575b600080fd5b34801561012557600080fd5b506101726004803603604081101561013c57600080fd5b8101908080359060200190929190803573ffffffffffffffffffffffffffffffffffffffff1690602001909291905050506106d5565b005b34801561018057600080fd5b506101896112cf565b604051808273ffffffffffffffffffffffffffffffffffffffff1673ffffffffffffffffffffffffffffffffffffffff16815260200191505060405180910390f35b3480156101d757600080fd5b506101e06112f5565b604051808273ffffffffffffffffffffffffffffffffffffffff1673ffffffffffffffffffffffffffffffffffffffff16815260200191505060405180910390f35b34801561022e57600080fd5b5061026f6004803603606081101561024557600080fd5b8101908080359060200190929190803590602001909291908035906020019092919050505061131b565b005b34801561027d57600080fd5b5061028661243f565b604051808273ffffffffffffffffffffffffffffffffffffffff1673ffffffffffffffffffffffffffffffffffffffff16815260200191505060405180910390f35b3480156102d457600080fd5b50610301600480360360208110156102eb57600080fd5b8101908080359060200190929190505050612465565b005b34801561030f57600080fd5b506103186127d9565b604051808273ffffffffffffffffffffffffffffffffffffffff1673ffffffffffffffffffffffffffffffffffffffff16815260200191505060405180910390f35b6103906004803603604081101561037057600080fd5b8101908080359060200190929190803590602001909291905050506127ff565b005b34801561039e57600080fd5b506103a761346c565b005b3480156103b557600080fd5b506103be614104565b604051808273ffffffffffffffffffffffffffffffffffffffff1673ffffffffffffffffffffffffffffffffffffffff16815260200191505060405180910390f35b34801561040c57600080fd5b5061044f6004803603602081101561042357600080fd5b81019080803573ffffffffffffffffffffffffffffffffffffffff169060200190929190505050614129565b005b34801561045d57600080fd5b506104666141c3565b604051808273ffffffffffffffffffffffffffffffffffffffff1673ffffffffffffffffffffffffffffffffffffffff16815260200191505060405180910390f35b3480156104b457600080fd5b506104bd6141e9565b604051808273ffffffffffffffffffffffffffffffffffffffff1673ffffffffffffffffffffffffffffffffffffffff16815260200191505060405180910390f35b34801561050b57600080fd5b506105426004803603604081101561052257600080fd5b81019080803590602001909291908035906020019092919050505061420f565b005b34801561055057600080fd5b506105596155b3565b604051808273ffffffffffffffffffffffffffffffffffffffff1673ffffffffffffffffffffffffffffffffffffffff16815260200191505060405180910390f35b3480156105a757600080fd5b506105d4600480360360208110156105be57600080fd5b81019080803590602001909291905050506155d9565b005b3480156105e257600080fd5b506105eb61562e565b604051808273ffffffffffffffffffffffffffffffffffffffff1673ffffffffffffffffffffffffffffffffffffffff16815260200191505060405180910390f35b34801561063957600080fd5b50610642615654565b604051808273ffffffffffffffffffffffffffffffffffffffff1673ffffffffffffffffffffffffffffffffffffffff16815260200191505060405180910390f35b34801561069057600080fd5b506106d3600480360360208110156106a757600080fd5b81019080803573ffffffffffffffffffffffffffffffffffffffff16906020019092919050505061567a565b005b6106dd615748565b600073ffffffffffffffffffffffffffffffffffffffff163373ffffffffffffffffffffffffffffffffffffffff16141561071457fe5b6107526040518060400160405280600681526020017f626574746f7200000000000000000000000000000000000000000000000000008152506158d2565b6107c4576040517f08c379a000000000000000000000000000000000000000000000000000000000815260040180806020018281038252600b8152602001807f4f6e6c7920626574746f7200000000000000000000000000000000000000000081525060200191505060405180910390fd5b81816000600160009054906101000a900473ffffffffffffffffffffffffffffffffffffffff1673ffffffffffffffffffffffffffffffffffffffff1663358177736040518060400160405280600981526020017f50726f66696c65444200000000000000000000000000000000000000000000008152506040518263ffffffff1660e01b81526004018080602001828103825283818151815260200191508051906020019080838360005b8381101561088b578082015181840152602081019050610870565b50505050905090810190601f1680156108b85780820380516001836020036101000a031916815260200191505b509250505060206040518083038186803b1580156108d557600080fd5b505afa1580156108e9573d6000803e3d6000fd5b505050506040513d60208110156108ff57600080fd5b810190808051906020019092919050505073ffffffffffffffffffffffffffffffffffffffff1663a984d640836040518263ffffffff1660e01b8152600401808273ffffffffffffffffffffffffffffffffffffffff1673ffffffffffffffffffffffffffffffffffffffff16815260200191505060206040518083038186803b15801561098c57600080fd5b505afa1580156109a0573d6000803e3d6000fd5b505050506040513d60208110156109b657600080fd5b8101908080519060200190929190505050116109d157600080fd5b600360009054906101000a900473ffffffffffffffffffffffffffffffffffffffff1673ffffffffffffffffffffffffffffffffffffffff1663e6d3538d83836040518363ffffffff1660e01b8152600401808381526020018273ffffffffffffffffffffffffffffffffffffffff1673ffffffffffffffffffffffffffffffffffffffff1681526020019250505060206040518083038186803b158015610a7857600080fd5b505afa158015610a8c573d6000803e3d6000fd5b505050506040513d6020811015610aa257600080fd5b8101908080519060200190929190505050610abc57600080fd5b6000600360009054906101000a900473ffffffffffffffffffffffffffffffffffffffff1673ffffffffffffffffffffffffffffffffffffffff1663ffde0c74866040518263ffffffff1660e01b81526004018082815260200191505060206040518083038186803b158015610b3157600080fd5b505afa158015610b45573d6000803e3d6000fd5b505050506040513d6020811015610b5b57600080fd5b810190808051906020019092919050505090506000610b78615b4e565b90508473ffffffffffffffffffffffffffffffffffffffff168173ffffffffffffffffffffffffffffffffffffffff161415610bb357600080fd5b6002821115610bc157600080fd5b600460009054906101000a900473ffffffffffffffffffffffffffffffffffffffff1673ffffffffffffffffffffffffffffffffffffffff166342db158982600860009054906101000a900473ffffffffffffffffffffffffffffffffffffffff1673ffffffffffffffffffffffffffffffffffffffff1663aa84869f8a6040518263ffffffff1660e01b81526004018082815260200191505060206040518083038186803b158015610c7357600080fd5b505afa158015610c87573d6000803e3d6000fd5b505050506040513d6020811015610c9d57600080fd5b81019080805190602001909291905050506040518363ffffffff1660e01b8152600401808373ffffffffffffffffffffffffffffffffffffffff1673ffffffffffffffffffffffffffffffffffffffff16815260200182815260200192505050602060405180830381600087803b158015610d1757600080fd5b505af1158015610d2b573d6000803e3d6000fd5b505050506040513d6020811015610d4157600080fd5b8101908080519060200190929190505050610d5b57600080fd5b600260009054906101000a900473ffffffffffffffffffffffffffffffffffffffff1673ffffffffffffffffffffffffffffffffffffffff1663409299808783886040518463ffffffff1660e01b8152600401808481526020018373ffffffffffffffffffffffffffffffffffffffff1673ffffffffffffffffffffffffffffffffffffffff1681526020018273ffffffffffffffffffffffffffffffffffffffff1673ffffffffffffffffffffffffffffffffffffffff1681526020019350505050602060405180830381600087803b158015610e3857600080fd5b505af1158015610e4c573d6000803e3d6000fd5b505050506040513d6020811015610e6257600080fd5b8101908080519060200190929190505050610e7c57600080fd5b6000600360009054906101000a900473ffffffffffffffffffffffffffffffffffffffff1673ffffffffffffffffffffffffffffffffffffffff16638851470d886040518263ffffffff1660e01b81526004018082815260200191505060606040518083038186803b158015610ef157600080fd5b505afa158015610f05573d6000803e3d6000fd5b505050506040513d6060811015610f1b57600080fd5b81019080805190602001909291908051906020019092919080519060200190929190505050509150506000831480610f535750600183145b15610fee57600560009054906101000a900473ffffffffffffffffffffffffffffffffffffffff1673ffffffffffffffffffffffffffffffffffffffff16635aaccebf88856040518363ffffffff1660e01b81526004018083815260200182815260200192505050600060405180830381600087803b158015610fd557600080fd5b505af1158015610fe9573d6000803e3d6000fd5b505050505b600360009054906101000a900473ffffffffffffffffffffffffffffffffffffffff1673ffffffffffffffffffffffffffffffffffffffff1663ffde0c74886040518263ffffffff1660e01b81526004018082815260200191505060206040518083038186803b15801561106157600080fd5b505afa158015611075573d6000803e3d6000fd5b505050506040513d602081101561108b57600080fd5b81019080805190602001909291905050509250600060058111156110ab57fe5b831480156110b95750428111155b1561124b57600960009054906101000a900473ffffffffffffffffffffffffffffffffffffffff1673ffffffffffffffffffffffffffffffffffffffff16639d60d53e886040518263ffffffff1660e01b815260040180828152602001915050600060405180830381600087803b15801561113357600080fd5b505af1158015611147573d6000803e3d6000fd5b50505050600260009054906101000a900473ffffffffffffffffffffffffffffffffffffffff1673ffffffffffffffffffffffffffffffffffffffff1663f5de8397886001600581111561119757fe5b6040518363ffffffff1660e01b81526004018083815260200182815260200192505050600060405180830381600087803b1580156111d457600080fd5b505af11580156111e8573d6000803e3d6000fd5b50505050867f44eba4bcf780a2012259962cf19bf1777051e027304e22dd8e324b0cefb4be26600060016040518083600581111561122257fe5b60ff16815260200182600581111561123657fe5b60ff1681526020019250505060405180910390a25b8573ffffffffffffffffffffffffffffffffffffffff16877f10be9d2d97e8101e37a757b0203bef24d9237498343bfeeba88885b950ef756384604051808273ffffffffffffffffffffffffffffffffffffffff1673ffffffffffffffffffffffffffffffffffffffff16815260200191505060405180910390a350505050505050565b600960009054906101000a900473ffffffffffffffffffffffffffffffffffffffff1681565b600360009054906101000a900473ffffffffffffffffffffffffffffffffffffffff1681565b611323615748565b600073ffffffffffffffffffffffffffffffffffffffff163373ffffffffffffffffffffffffffffffffffffffff16141561135a57fe5b6113986040518060400160405280600681526020017f706c6179657200000000000000000000000000000000000000000000000000008152506158d2565b61140a576040517f08c379a000000000000000000000000000000000000000000000000000000000815260040180806020018281038252600b8152602001807f4f6e6c7920706c6179657200000000000000000000000000000000000000000081525060200191505060405180910390fd5b82611413615b4e565b6000600160009054906101000a900473ffffffffffffffffffffffffffffffffffffffff1673ffffffffffffffffffffffffffffffffffffffff1663358177736040518060400160405280600981526020017f50726f66696c65444200000000000000000000000000000000000000000000008152506040518263ffffffff1660e01b81526004018080602001828103825283818151815260200191508051906020019080838360005b838110156114d85780820151818401526020810190506114bd565b50505050905090810190601f1680156115055780820380516001836020036101000a031916815260200191505b509250505060206040518083038186803b15801561152257600080fd5b505afa158015611536573d6000803e3d6000fd5b505050506040513d602081101561154c57600080fd5b810190808051906020019092919050505073ffffffffffffffffffffffffffffffffffffffff1663a984d640836040518263ffffffff1660e01b8152600401808273ffffffffffffffffffffffffffffffffffffffff1673ffffffffffffffffffffffffffffffffffffffff16815260200191505060206040518083038186803b1580156115d957600080fd5b505afa1580156115ed573d6000803e3d6000fd5b505050506040513d602081101561160357600080fd5b81019080805190602001909291905050501161161e57600080fd5b600360009054906101000a900473ffffffffffffffffffffffffffffffffffffffff1673ffffffffffffffffffffffffffffffffffffffff1663e6d3538d83836040518363ffffffff1660e01b8152600401808381526020018273ffffffffffffffffffffffffffffffffffffffff1673ffffffffffffffffffffffffffffffffffffffff1681526020019250505060206040518083038186803b1580156116c557600080fd5b505afa1580156116d9573d6000803e3d6000fd5b505050506040513d60208110156116ef57600080fd5b810190808051906020019092919050505061170957600080fd5b6000600360009054906101000a900473ffffffffffffffffffffffffffffffffffffffff1673ffffffffffffffffffffffffffffffffffffffff1663ffde0c74876040518263ffffffff1660e01b81526004018082815260200191505060206040518083038186803b15801561177e57600080fd5b505afa158015611792573d6000803e3d6000fd5b505050506040513d60208110156117a857600080fd5b81019080805190602001909291905050509050600560009054906101000a900473ffffffffffffffffffffffffffffffffffffffff1673ffffffffffffffffffffffffffffffffffffffff16635aaccebf87836040518363ffffffff1660e01b81526004018083815260200182815260200192505050600060405180830381600087803b15801561183857600080fd5b505af115801561184c573d6000803e3d6000fd5b50505050600360009054906101000a900473ffffffffffffffffffffffffffffffffffffffff1673ffffffffffffffffffffffffffffffffffffffff1663ffde0c74876040518263ffffffff1660e01b81526004018082815260200191505060206040518083038186803b1580156118c357600080fd5b505afa1580156118d7573d6000803e3d6000fd5b505050506040513d60208110156118ed57600080fd5b810190808051906020019092919050505090506001600581111561190d57fe5b81141561243757600061191e615b4e565b90506000600360009054906101000a900473ffffffffffffffffffffffffffffffffffffffff1673ffffffffffffffffffffffffffffffffffffffff1663e441dcbf89846040518363ffffffff1660e01b8152600401808381526020018273ffffffffffffffffffffffffffffffffffffffff1673ffffffffffffffffffffffffffffffffffffffff1681526020019250505060206040518083038186803b1580156119c957600080fd5b505afa1580156119dd573d6000803e3d6000fd5b505050506040513d60208110156119f357600080fd5b81019080805190602001909291905050509050600860009054906101000a900473ffffffffffffffffffffffffffffffffffffffff1673ffffffffffffffffffffffffffffffffffffffff1663158d39cb89848a6040518463ffffffff1660e01b8152600401808481526020018373ffffffffffffffffffffffffffffffffffffffff1673ffffffffffffffffffffffffffffffffffffffff1681526020018281526020019350505050600060405180830381600087803b158015611ab757600080fd5b505af1158015611acb573d6000803e3d6000fd5b50505050600660009054906101000a900473ffffffffffffffffffffffffffffffffffffffff1673ffffffffffffffffffffffffffffffffffffffff1663ed1d74068984600160009054906101000a900473ffffffffffffffffffffffffffffffffffffffff1673ffffffffffffffffffffffffffffffffffffffff1663358177736040518060400160405280601081526020017f52617269747943616c63756c61746f72000000000000000000000000000000008152506040518263ffffffff1660e01b81526004018080602001828103825283818151815260200191508051906020019080838360005b83811015611bd2578082015181840152602081019050611bb7565b50505050905090810190601f168015611bff5780820380516001836020036101000a031916815260200191505b509250505060206040518083038186803b158015611c1c57600080fd5b505afa158015611c30573d6000803e3d6000fd5b505050506040513d6020811015611c4657600080fd5b810190808051906020019092919050505073ffffffffffffffffffffffffffffffffffffffff16633af9bbac868c6040518363ffffffff1660e01b81526004018083815260200182815260200192505050602060405180830381600087803b158015611cb157600080fd5b505af1158015611cc5573d6000803e3d6000fd5b505050506040513d6020811015611cdb57600080fd5b81019080805190602001909291905050506040518463ffffffff1660e01b8152600401808481526020018373ffffffffffffffffffffffffffffffffffffffff1673ffffffffffffffffffffffffffffffffffffffff1681526020018281526020019350505050600060405180830381600087803b158015611d5c57600080fd5b505af1158015611d70573d6000803e3d6000fd5b50505050600760009054906101000a900473ffffffffffffffffffffffffffffffffffffffff1673ffffffffffffffffffffffffffffffffffffffff16635fd8cc1082846040518363ffffffff1660e01b8152600401808381526020018273ffffffffffffffffffffffffffffffffffffffff1673ffffffffffffffffffffffffffffffffffffffff16815260200192505050602060405180830381600087803b158015611e1d57600080fd5b505af1158015611e31573d6000803e3d6000fd5b505050506040513d6020811015611e4757600080fd5b8101908080519060200190929190505050611e6157600080fd5b6000600860009054906101000a900473ffffffffffffffffffffffffffffffffffffffff1673ffffffffffffffffffffffffffffffffffffffff166331fa70678a856040518363ffffffff1660e01b8152600401808381526020018273ffffffffffffffffffffffffffffffffffffffff1673ffffffffffffffffffffffffffffffffffffffff1681526020019250505060206040518083038186803b158015611f0a57600080fd5b505afa158015611f1e573d6000803e3d6000fd5b505050506040513d6020811015611f3457600080fd5b81019080805190602001909291905050509050887f3777d3009964e625c7ec7b3b7a815deec68108671053ae856ae638556472a49a84604051808273ffffffffffffffffffffffffffffffffffffffff1673ffffffffffffffffffffffffffffffffffffffff16815260200191505060405180910390a2600860009054906101000a900473ffffffffffffffffffffffffffffffffffffffff1673ffffffffffffffffffffffffffffffffffffffff1663ebff754a8a836040518363ffffffff1660e01b8152600401808381526020018273ffffffffffffffffffffffffffffffffffffffff1673ffffffffffffffffffffffffffffffffffffffff1681526020019250505060206040518083038186803b15801561205257600080fd5b505afa158015612066573d6000803e3d6000fd5b505050506040513d602081101561207c57600080fd5b81019080805190602001909291905050501561243357600660009054906101000a900473ffffffffffffffffffffffffffffffffffffffff1673ffffffffffffffffffffffffffffffffffffffff16632c31d0858a8a600860009054906101000a900473ffffffffffffffffffffffffffffffffffffffff1673ffffffffffffffffffffffffffffffffffffffff16636e47c6358e876040518363ffffffff1660e01b8152600401808381526020018273ffffffffffffffffffffffffffffffffffffffff1673ffffffffffffffffffffffffffffffffffffffff1681526020019250505060206040518083038186803b15801561217957600080fd5b505afa15801561218d573d6000803e3d6000fd5b505050506040513d60208110156121a357600080fd5b81019080805190602001909291905050506040518463ffffffff1660e01b8152600401808481526020018381526020018281526020019350505050600060405180830381600087803b1580156121f857600080fd5b505af115801561220c573d6000803e3d6000fd5b50505050600960009054906101000a900473ffffffffffffffffffffffffffffffffffffffff1673ffffffffffffffffffffffffffffffffffffffff16639d60d53e8a6040518263ffffffff1660e01b815260040180828152602001915050600060405180830381600087803b15801561228557600080fd5b505af1158015612299573d6000803e3d6000fd5b50505050600260009054906101000a900473ffffffffffffffffffffffffffffffffffffffff1673ffffffffffffffffffffffffffffffffffffffff1663f5de83978a600260058111156122e957fe5b6040518363ffffffff1660e01b81526004018083815260200182815260200192505050600060405180830381600087803b15801561232657600080fd5b505af115801561233a573d6000803e3d6000fd5b50505050600460009054906101000a900473ffffffffffffffffffffffffffffffffffffffff1673ffffffffffffffffffffffffffffffffffffffff1663d665a7178a60036040518363ffffffff1660e01b81526004018083815260200182815260200192505050600060405180830381600087803b1580156123bc57600080fd5b505af11580156123d0573d6000803e3d6000fd5b50505050887f44eba4bcf780a2012259962cf19bf1777051e027304e22dd8e324b0cefb4be26600160026040518083600581111561240a57fe5b60ff16815260200182600581111561241e57fe5b60ff1681526020019250505060405180910390a25b5050505b505050505050565b600660009054906101000a900473ffffffffffffffffffffffffffffffffffffffff1681565b6040518060400160405280600981526020017f466f7266656974657200000000000000000000000000000000000000000000008152506124a481615c03565b6000600360009054906101000a900473ffffffffffffffffffffffffffffffffffffffff1673ffffffffffffffffffffffffffffffffffffffff1663ffde0c74846040518263ffffffff1660e01b81526004018082815260200191505060206040518083038186803b15801561251957600080fd5b505afa15801561252d573d6000803e3d6000fd5b505050506040513d602081101561254357600080fd5b810190808051906020019092919050505090506000600581111561256357fe5b81148061257b57506001600581111561257857fe5b81145b61258457600080fd5b600260009054906101000a900473ffffffffffffffffffffffffffffffffffffffff1673ffffffffffffffffffffffffffffffffffffffff1663f5de8397846005808111156125cf57fe5b6040518363ffffffff1660e01b81526004018083815260200182815260200192505050600060405180830381600087803b15801561260c57600080fd5b505af1158015612620573d6000803e3d6000fd5b50505050600460009054906101000a900473ffffffffffffffffffffffffffffffffffffffff1673ffffffffffffffffffffffffffffffffffffffff1663d665a7178460046040518363ffffffff1660e01b81526004018083815260200182815260200192505050600060405180830381600087803b1580156126a257600080fd5b505af11580156126b6573d6000803e3d6000fd5b50505050600960009054906101000a900473ffffffffffffffffffffffffffffffffffffffff1673ffffffffffffffffffffffffffffffffffffffff16636fee856a846040518263ffffffff1660e01b815260040180828152602001915050600060405180830381600087803b15801561272f57600080fd5b505af1158015612743573d6000803e3d6000fd5b50505050600960009054906101000a900473ffffffffffffffffffffffffffffffffffffffff1673ffffffffffffffffffffffffffffffffffffffff16639d60d53e846040518263ffffffff1660e01b815260040180828152602001915050600060405180830381600087803b1580156127bc57600080fd5b505af11580156127d0573d6000803e3d6000fd5b50505050505050565b600460009054906101000a900473ffffffffffffffffffffffffffffffffffffffff1681565b612807615748565b600073ffffffffffffffffffffffffffffffffffffffff163373ffffffffffffffffffffffffffffffffffffffff16141561283e57fe5b61287c6040518060400160405280600681526020017f626574746f7200000000000000000000000000000000000000000000000000008152506158d2565b6128ee576040517f08c379a000000000000000000000000000000000000000000000000000000000815260040180806020018281038252600b8152602001807f4f6e6c7920626574746f7200000000000000000000000000000000000000000081525060200191505060405180910390fd5b600034116128fb57600080fd5b6000600360009054906101000a900473ffffffffffffffffffffffffffffffffffffffff1673ffffffffffffffffffffffffffffffffffffffff1663ffde0c74846040518263ffffffff1660e01b81526004018082815260200191505060206040518083038186803b15801561297057600080fd5b505afa158015612984573d6000803e3d6000fd5b505050506040513d602081101561299a57600080fd5b81019080805190602001909291905050509050600080600260058111156129bd57fe5b83146129c857600080fd5b60006129d2615b4e565b9050600360009054906101000a900473ffffffffffffffffffffffffffffffffffffffff1673ffffffffffffffffffffffffffffffffffffffff1663e6d3538d87836040518363ffffffff1660e01b8152600401808381526020018273ffffffffffffffffffffffffffffffffffffffff1673ffffffffffffffffffffffffffffffffffffffff1681526020019250505060206040518083038186803b158015612a7b57600080fd5b505afa158015612a8f573d6000803e3d6000fd5b505050506040513d6020811015612aa557600080fd5b8101908080519060200190929190505050612bd657600360009054906101000a900473ffffffffffffffffffffffffffffffffffffffff1673ffffffffffffffffffffffffffffffffffffffff16630b154c9687836040518363ffffffff1660e01b8152600401808381526020018273ffffffffffffffffffffffffffffffffffffffff1673ffffffffffffffffffffffffffffffffffffffff1681526020019250505060806040518083038186803b158015612b6157600080fd5b505afa158015612b75573d6000803e3d6000fd5b505050506040513d6080811015612b8b57600080fd5b81019080805190602001909291908051906020019092919080519060200190929190805190602001909291905050509091925050809350819450505081612bd157600080fd5b612bda565b8092505b600460009054906101000a900473ffffffffffffffffffffffffffffffffffffffff1673ffffffffffffffffffffffffffffffffffffffff1663b3962bdc34886040518363ffffffff1660e01b8152600401808281526020019150506020604051808303818588803b158015612c4f57600080fd5b505af1158015612c63573d6000803e3d6000fd5b50505050506040513d6020811015612c7a57600080fd5b8101908080519060200190929190505050612c9457600080fd5b600460009054906101000a900473ffffffffffffffffffffffffffffffffffffffff1673ffffffffffffffffffffffffffffffffffffffff166342db158982600860009054906101000a900473ffffffffffffffffffffffffffffffffffffffff1673ffffffffffffffffffffffffffffffffffffffff1663f58f32cf8a6040518263ffffffff1660e01b81526004018082815260200191505060206040518083038186803b158015612d4657600080fd5b505afa158015612d5a573d6000803e3d6000fd5b505050506040513d6020811015612d7057600080fd5b81019080805190602001909291905050506040518363ffffffff1660e01b8152600401808373ffffffffffffffffffffffffffffffffffffffff1673ffffffffffffffffffffffffffffffffffffffff16815260200182815260200192505050602060405180830381600087803b158015612dea57600080fd5b505af1158015612dfe573d6000803e3d6000fd5b505050506040513d6020811015612e1457600080fd5b8101908080519060200190929190505050612e2e57600080fd5b600160009054906101000a900473ffffffffffffffffffffffffffffffffffffffff1673ffffffffffffffffffffffffffffffffffffffff1663358177736040518060400160405280600b81526020017f486974735265736f6c76650000000000000000000000000000000000000000008152506040518263ffffffff1660e01b81526004018080602001828103825283818151815260200191508051906020019080838360005b83811015612ef1578082015181840152602081019050612ed6565b50505050905090810190601f168015612f1e5780820380516001836020036101000a031916815260200191505b509250505060206040518083038186803b158015612f3b57600080fd5b505afa158015612f4f573d6000803e3d6000fd5b505050506040513d6020811015612f6557600080fd5b810190808051906020019092919050505073ffffffffffffffffffffffffffffffffffffffff166381d96a1f87876040518363ffffffff1660e01b81526004018083815260200182815260200192505050602060405180830381600087803b158015612fd057600080fd5b505af1158015612fe4573d6000803e3d6000fd5b505050506040513d6020811015612ffa57600080fd5b8101908080519060200190929190505050506000600860009054906101000a900473ffffffffffffffffffffffffffffffffffffffff1673ffffffffffffffffffffffffffffffffffffffff166331fa706788866040518363ffffffff1660e01b8152600401808381526020018273ffffffffffffffffffffffffffffffffffffffff1673ffffffffffffffffffffffffffffffffffffffff1681526020019250505060206040518083038186803b1580156130b557600080fd5b505afa1580156130c9573d6000803e3d6000fd5b505050506040513d60208110156130df57600080fd5b81019080805190602001909291905050509050600660009054906101000a900473ffffffffffffffffffffffffffffffffffffffff1673ffffffffffffffffffffffffffffffffffffffff1663592ba06b88843488868c6040518763ffffffff1660e01b8152600401808781526020018673ffffffffffffffffffffffffffffffffffffffff1673ffffffffffffffffffffffffffffffffffffffff1681526020018581526020018473ffffffffffffffffffffffffffffffffffffffff1673ffffffffffffffffffffffffffffffffffffffff1681526020018373ffffffffffffffffffffffffffffffffffffffff1673ffffffffffffffffffffffffffffffffffffffff1681526020018281526020019650505050505050600060405180830381600087803b15801561321357600080fd5b505af1158015613227573d6000803e3d6000fd5b50505050600260009054906101000a900473ffffffffffffffffffffffffffffffffffffffff1673ffffffffffffffffffffffffffffffffffffffff1663026ab2c5888434886040518563ffffffff1660e01b8152600401808581526020018473ffffffffffffffffffffffffffffffffffffffff1673ffffffffffffffffffffffffffffffffffffffff1681526020018381526020018273ffffffffffffffffffffffffffffffffffffffff1673ffffffffffffffffffffffffffffffffffffffff168152602001945050505050600060405180830381600087803b15801561331057600080fd5b505af1158015613324573d6000803e3d6000fd5b505050508373ffffffffffffffffffffffffffffffffffffffff168273ffffffffffffffffffffffffffffffffffffffff161461345157600860009054906101000a900473ffffffffffffffffffffffffffffffffffffffff1673ffffffffffffffffffffffffffffffffffffffff16630bc644f58884876040518463ffffffff1660e01b8152600401808481526020018373ffffffffffffffffffffffffffffffffffffffff1673ffffffffffffffffffffffffffffffffffffffff1681526020018273ffffffffffffffffffffffffffffffffffffffff1673ffffffffffffffffffffffffffffffffffffffff1681526020019350505050600060405180830381600087803b15801561343857600080fd5b505af115801561344c573d6000803e3d6000fd5b505050505b61345a87615e9e565b61346387616259565b50505050505050565b6000809054906101000a900473ffffffffffffffffffffffffffffffffffffffff1673ffffffffffffffffffffffffffffffffffffffff163373ffffffffffffffffffffffffffffffffffffffff16146134c257fe5b600160009054906101000a900473ffffffffffffffffffffffffffffffffffffffff1673ffffffffffffffffffffffffffffffffffffffff1663358177736040518060400160405280600a81526020017f474d5365747465724442000000000000000000000000000000000000000000008152506040518263ffffffff1660e01b81526004018080602001828103825283818151815260200191508051906020019080838360005b8381101561358557808201518184015260208101905061356a565b50505050905090810190601f1680156135b25780820380516001836020036101000a031916815260200191505b509250505060206040518083038186803b1580156135cf57600080fd5b505afa1580156135e3573d6000803e3d6000fd5b505050506040513d60208110156135f957600080fd5b8101908080519060200190929190505050600260006101000a81548173ffffffffffffffffffffffffffffffffffffffff021916908373ffffffffffffffffffffffffffffffffffffffff160217905550600160009054906101000a900473ffffffffffffffffffffffffffffffffffffffff1673ffffffffffffffffffffffffffffffffffffffff1663358177736040518060400160405280600a81526020017f474d4765747465724442000000000000000000000000000000000000000000008152506040518263ffffffff1660e01b81526004018080602001828103825283818151815260200191508051906020019080838360005b8381101561370d5780820151818401526020810190506136f2565b50505050905090810190601f16801561373a5780820380516001836020036101000a031916815260200191505b509250505060206040518083038186803b15801561375757600080fd5b505afa15801561376b573d6000803e3d6000fd5b505050506040513d602081101561378157600080fd5b8101908080519060200190929190505050600360006101000a81548173ffffffffffffffffffffffffffffffffffffffff021916908373ffffffffffffffffffffffffffffffffffffffff160217905550600160009054906101000a900473ffffffffffffffffffffffffffffffffffffffff1673ffffffffffffffffffffffffffffffffffffffff1663358177736040518060400160405280600d81526020017f456e646f776d656e7446756e64000000000000000000000000000000000000008152506040518263ffffffff1660e01b81526004018080602001828103825283818151815260200191508051906020019080838360005b8381101561389557808201518184015260208101905061387a565b50505050905090810190601f1680156138c25780820380516001836020036101000a031916815260200191505b509250505060206040518083038186803b1580156138df57600080fd5b505afa1580156138f3573d6000803e3d6000fd5b505050506040513d602081101561390957600080fd5b8101908080519060200190929190505050600460006101000a81548173ffffffffffffffffffffffffffffffffffffffff021916908373ffffffffffffffffffffffffffffffffffffffff160217905550600160009054906101000a900473ffffffffffffffffffffffffffffffffffffffff1673ffffffffffffffffffffffffffffffffffffffff1663358177736040518060400160405280600981526020017f466f7266656974657200000000000000000000000000000000000000000000008152506040518263ffffffff1660e01b81526004018080602001828103825283818151815260200191508051906020019080838360005b83811015613a1d578082015181840152602081019050613a02565b50505050905090810190601f168015613a4a5780820380516001836020036101000a031916815260200191505b509250505060206040518083038186803b158015613a6757600080fd5b505afa158015613a7b573d6000803e3d6000fd5b505050506040513d6020811015613a9157600080fd5b8101908080519060200190929190505050600560006101000a81548173ffffffffffffffffffffffffffffffffffffffff021916908373ffffffffffffffffffffffffffffffffffffffff160217905550600160009054906101000a900473ffffffffffffffffffffffffffffffffffffffff1673ffffffffffffffffffffffffffffffffffffffff1663358177736040518060400160405280600781526020017f42657474696e67000000000000000000000000000000000000000000000000008152506040518263ffffffff1660e01b81526004018080602001828103825283818151815260200191508051906020019080838360005b83811015613ba5578082015181840152602081019050613b8a565b50505050905090810190601f168015613bd25780820380516001836020036101000a031916815260200191505b509250505060206040518083038186803b158015613bef57600080fd5b505afa158015613c03573d6000803e3d6000fd5b505050506040513d6020811015613c1957600080fd5b8101908080519060200190929190505050600660006101000a81548173ffffffffffffffffffffffffffffffffffffffff021916908373ffffffffffffffffffffffffffffffffffffffff160217905550600160009054906101000a900473ffffffffffffffffffffffffffffffffffffffff1673ffffffffffffffffffffffffffffffffffffffff1663358177736040518060400160405280600a81526020017f4b697474696548656c6c000000000000000000000000000000000000000000008152506040518263ffffffff1660e01b81526004018080602001828103825283818151815260200191508051906020019080838360005b83811015613d2d578082015181840152602081019050613d12565b50505050905090810190601f168015613d5a5780820380516001836020036101000a031916815260200191505b509250505060206040518083038186803b158015613d7757600080fd5b505afa158015613d8b573d6000803e3d6000fd5b505050506040513d6020811015613da157600080fd5b8101908080519060200190929190505050600760006101000a81548173ffffffffffffffffffffffffffffffffffffffff021916908373ffffffffffffffffffffffffffffffffffffffff160217905550600160009054906101000a900473ffffffffffffffffffffffffffffffffffffffff1673ffffffffffffffffffffffffffffffffffffffff1663358177736040518060400160405280600981526020017f47616d6553746f726500000000000000000000000000000000000000000000008152506040518263ffffffff1660e01b81526004018080602001828103825283818151815260200191508051906020019080838360005b83811015613eb5578082015181840152602081019050613e9a565b50505050905090810190601f168015613ee25780820380516001836020036101000a031916815260200191505b509250505060206040518083038186803b158015613eff57600080fd5b505afa158015613f13573d6000803e3d6000fd5b505050506040513d6020811015613f2957600080fd5b8101908080519060200190929190505050600860006101000a81548173ffffffffffffffffffffffffffffffffffffffff021916908373ffffffffffffffffffffffffffffffffffffffff160217905550600160009054906101000a900473ffffffffffffffffffffffffffffffffffffffff1673ffffffffffffffffffffffffffffffffffffffff1663358177736040518060400160405280600c81526020017f47616d654372656174696f6e00000000000000000000000000000000000000008152506040518263ffffffff1660e01b81526004018080602001828103825283818151815260200191508051906020019080838360005b8381101561403d578082015181840152602081019050614022565b50505050905090810190601f16801561406a5780820380516001836020036101000a031916815260200191505b509250505060206040518083038186803b15801561408757600080fd5b505afa15801561409b573d6000803e3d6000fd5b505050506040513d60208110156140b157600080fd5b8101908080519060200190929190505050600960006101000a81548173ffffffffffffffffffffffffffffffffffffffff021916908373ffffffffffffffffffffffffffffffffffffffff160217905550565b6000809054906101000a900473ffffffffffffffffffffffffffffffffffffffff1681565b6000809054906101000a900473ffffffffffffffffffffffffffffffffffffffff1673ffffffffffffffffffffffffffffffffffffffff163373ffffffffffffffffffffffffffffffffffffffff161461417f57fe5b80600160006101000a81548173ffffffffffffffffffffffffffffffffffffffff021916908373ffffffffffffffffffffffffffffffffffffffff16021790555050565b600560009054906101000a900473ffffffffffffffffffffffffffffffffffffffff1681565b600860009054906101000a900473ffffffffffffffffffffffffffffffffffffffff1681565b6003600581111561421c57fe5b600360009054906101000a900473ffffffffffffffffffffffffffffffffffffffff1673ffffffffffffffffffffffffffffffffffffffff1663ffde0c74846040518263ffffffff1660e01b81526004018082815260200191505060206040518083038186803b15801561428f57600080fd5b505afa1580156142a3573d6000803e3d6000fd5b505050506040513d60208110156142b957600080fd5b8101908080519060200190929190505050146142d457600080fd5b600080600360009054906101000a900473ffffffffffffffffffffffffffffffffffffffff1673ffffffffffffffffffffffffffffffffffffffff166315a40f49856040518263ffffffff1660e01b81526004018082815260200191505060806040518083038186803b15801561434a57600080fd5b505afa15801561435e573d6000803e3d6000fd5b505050506040513d608081101561437457600080fd5b8101908080519060200190929190805190602001909291908051906020019092919080519060200190929190505050505091509150600080600080600860009054906101000a900473ffffffffffffffffffffffffffffffffffffffff1673ffffffffffffffffffffffffffffffffffffffff1663cefc48268988888b6040518563ffffffff1660e01b8152600401808581526020018473ffffffffffffffffffffffffffffffffffffffff1673ffffffffffffffffffffffffffffffffffffffff1681526020018373ffffffffffffffffffffffffffffffffffffffff1673ffffffffffffffffffffffffffffffffffffffff16815260200182815260200194505050505060806040518083038186803b15801561449257600080fd5b505afa1580156144a6573d6000803e3d6000fd5b505050506040513d60808110156144bc57600080fd5b81019080805190602001909291908051906020019092919080519060200190929190805190602001909291905050509350935093509350600260009054906101000a900473ffffffffffffffffffffffffffffffffffffffff1673ffffffffffffffffffffffffffffffffffffffff1663f1c9d63a8986600860009054906101000a900473ffffffffffffffffffffffffffffffffffffffff1673ffffffffffffffffffffffffffffffffffffffff166316805a298d8a6040518363ffffffff1660e01b8152600401808381526020018273ffffffffffffffffffffffffffffffffffffffff1673ffffffffffffffffffffffffffffffffffffffff1681526020019250505060206040518083038186803b1580156145da57600080fd5b505afa1580156145ee573d6000803e3d6000fd5b505050506040513d602081101561460457600080fd5b8101908080519060200190929190505050600860009054906101000a900473ffffffffffffffffffffffffffffffffffffffff1673ffffffffffffffffffffffffffffffffffffffff16635f87206d8e8b6040518363ffffffff1660e01b8152600401808381526020018273ffffffffffffffffffffffffffffffffffffffff1673ffffffffffffffffffffffffffffffffffffffff1681526020019250505060206040518083038186803b1580156146bc57600080fd5b505afa1580156146d0573d6000803e3d6000fd5b505050506040513d60208110156146e657600080fd5b81019080805190602001909291905050506040518563ffffffff1660e01b8152600401808581526020018473ffffffffffffffffffffffffffffffffffffffff1673ffffffffffffffffffffffffffffffffffffffff1681526020018373ffffffffffffffffffffffffffffffffffffffff1673ffffffffffffffffffffffffffffffffffffffff1681526020018273ffffffffffffffffffffffffffffffffffffffff1673ffffffffffffffffffffffffffffffffffffffff168152602001945050505050600060405180830381600087803b1580156147c657600080fd5b505af11580156147da573d6000803e3d6000fd5b50505050600260009054906101000a900473ffffffffffffffffffffffffffffffffffffffff1673ffffffffffffffffffffffffffffffffffffffff16639ecd537a896040518263ffffffff1660e01b815260040180828152602001915050600060405180830381600087803b15801561485357600080fd5b505af1158015614867573d6000803e3d6000fd5b50505050600760009054906101000a900473ffffffffffffffffffffffffffffffffffffffff1673ffffffffffffffffffffffffffffffffffffffff166329af207c600360009054906101000a900473ffffffffffffffffffffffffffffffffffffffff1673ffffffffffffffffffffffffffffffffffffffff1663e441dcbf8b886040518363ffffffff1660e01b8152600401808381526020018273ffffffffffffffffffffffffffffffffffffffff1673ffffffffffffffffffffffffffffffffffffffff1681526020019250505060206040518083038186803b15801561495057600080fd5b505afa158015614964573d6000803e3d6000fd5b505050506040513d602081101561497a57600080fd5b81019080805190602001909291905050506040518263ffffffff1660e01b815260040180828152602001915050602060405180830381600087803b1580156149c157600080fd5b505af11580156149d5573d6000803e3d6000fd5b505050506040513d60208110156149eb57600080fd5b810190808051906020019092919050505050600760009054906101000a900473ffffffffffffffffffffffffffffffffffffffff1673ffffffffffffffffffffffffffffffffffffffff16637202a1b2600360009054906101000a900473ffffffffffffffffffffffffffffffffffffffff1673ffffffffffffffffffffffffffffffffffffffff1663e441dcbf8b876040518363ffffffff1660e01b8152600401808381526020018273ffffffffffffffffffffffffffffffffffffffff1673ffffffffffffffffffffffffffffffffffffffff1681526020019250505060206040518083038186803b158015614ae257600080fd5b505afa158015614af6573d6000803e3d6000fd5b505050506040513d6020811015614b0c57600080fd5b81019080805190602001909291905050508a6040518363ffffffff1660e01b81526004018083815260200182815260200192505050602060405180830381600087803b158015614b5b57600080fd5b505af1158015614b6f573d6000803e3d6000fd5b505050506040513d6020811015614b8557600080fd5b8101908080519060200190929190505050506000600360009054906101000a900473ffffffffffffffffffffffffffffffffffffffff1673ffffffffffffffffffffffffffffffffffffffff1663525a8e4e8a6040518263ffffffff1660e01b815260040180828152602001915050604080518083038186803b158015614c0b57600080fd5b505afa158015614c1f573d6000803e3d6000fd5b505050506040513d6040811015614c3557600080fd5b810190808051906020019092919080519060200190929190505050509050600460009054906101000a900473ffffffffffffffffffffffffffffffffffffffff1673ffffffffffffffffffffffffffffffffffffffff1663fe4d07658a836040518363ffffffff1660e01b81526004018083815260200182815260200192505050600060405180830381600087803b158015614cd057600080fd5b505af1158015614ce4573d6000803e3d6000fd5b50505050600860009054906101000a900473ffffffffffffffffffffffffffffffffffffffff1673ffffffffffffffffffffffffffffffffffffffff16635daaf7988a6040518263ffffffff1660e01b815260040180828152602001915050600060405180830381600087803b158015614d5d57600080fd5b505af1158015614d71573d6000803e3d6000fd5b50505050600460009054906101000a900473ffffffffffffffffffffffffffffffffffffffff1673ffffffffffffffffffffffffffffffffffffffff1663d665a7178a60056040518363ffffffff1660e01b81526004018083815260200182815260200192505050600060405180830381600087803b158015614df357600080fd5b505af1158015614e07573d6000803e3d6000fd5b50505050600460009054906101000a900473ffffffffffffffffffffffffffffffffffffffff1673ffffffffffffffffffffffffffffffffffffffff1663b49c0ebe614e51615b4e565b6040518263ffffffff1660e01b8152600401808273ffffffffffffffffffffffffffffffffffffffff1673ffffffffffffffffffffffffffffffffffffffff168152602001915050602060405180830381600087803b158015614eb357600080fd5b505af1158015614ec7573d6000803e3d6000fd5b505050506040513d6020811015614edd57600080fd5b810190808051906020019092919050505050600260009054906101000a900473ffffffffffffffffffffffffffffffffffffffff1673ffffffffffffffffffffffffffffffffffffffff1663f5de83978a60046005811115614f3b57fe5b6040518363ffffffff1660e01b81526004018083815260200182815260200192505050600060405180830381600087803b158015614f7857600080fd5b505af1158015614f8c573d6000803e3d6000fd5b505050506000600160009054906101000a900473ffffffffffffffffffffffffffffffffffffffff1673ffffffffffffffffffffffffffffffffffffffff1663358177736040518060400160405280600981526020017f54696d654672616d6500000000000000000000000000000000000000000000008152506040518263ffffffff1660e01b81526004018080602001828103825283818151815260200191508051906020019080838360005b8381101561505557808201518184015260208101905061503a565b50505050905090810190601f1680156150825780820380516001836020036101000a031916815260200191505b509250505060206040518083038186803b15801561509f57600080fd5b505afa1580156150b3573d6000803e3d6000fd5b505050506040513d60208110156150c957600080fd5b810190808051906020019092919050505073ffffffffffffffffffffffffffffffffffffffff166386879db36040518163ffffffff1660e01b815260040160206040518083038186803b15801561511f57600080fd5b505afa158015615133573d6000803e3d6000fd5b505050506040513d602081101561514957600080fd5b81019080805190602001909291905050509050600160009054906101000a900473ffffffffffffffffffffffffffffffffffffffff1673ffffffffffffffffffffffffffffffffffffffff1663358177736040518060400160405280600981526020017f54696d654672616d6500000000000000000000000000000000000000000000008152506040518263ffffffff1660e01b81526004018080602001828103825283818151815260200191508051906020019080838360005b8381101561521f578082015181840152602081019050615204565b50505050905090810190601f16801561524c5780820380516001836020036101000a031916815260200191505b509250505060206040518083038186803b15801561526957600080fd5b505afa15801561527d573d6000803e3d6000fd5b505050506040513d602081101561529357600080fd5b810190808051906020019092919050505073ffffffffffffffffffffffffffffffffffffffff1663a38b4b68826040518263ffffffff1660e01b81526004018082815260200191505060206040518083038186803b1580156152f457600080fd5b505afa158015615308573d6000803e3d6000fd5b505050506040513d602081101561531e57600080fd5b81019080805190602001909291905050506154db57600160009054906101000a900473ffffffffffffffffffffffffffffffffffffffff1673ffffffffffffffffffffffffffffffffffffffff1663358177736040518060400160405280600981526020017f54696d654672616d6500000000000000000000000000000000000000000000008152506040518263ffffffff1660e01b81526004018080602001828103825283818151815260200191508051906020019080838360005b838110156153f65780820151818401526020810190506153db565b50505050905090810190601f1680156154235780820380516001836020036101000a031916815260200191505b509250505060206040518083038186803b15801561544057600080fd5b505afa158015615454573d6000803e3d6000fd5b505050506040513d602081101561546a57600080fd5b810190808051906020019092919050505073ffffffffffffffffffffffffffffffffffffffff16639b42e5476040518163ffffffff1660e01b8152600401600060405180830381600087803b1580156154c257600080fd5b505af11580156154d6573d6000803e3d6000fd5b505050505b897f44eba4bcf780a2012259962cf19bf1777051e027304e22dd8e324b0cefb4be26600260046040518083600581111561551157fe5b60ff16815260200182600581111561552557fe5b60ff1681526020019250505060405180910390a28473ffffffffffffffffffffffffffffffffffffffff168673ffffffffffffffffffffffffffffffffffffffff168b7ff1ef0c82644b061a588c809f1271ad223bd37fbed3b6b4a80e23b549fa80d8e58787604051808381526020018281526020019250505060405180910390a450505050505050505050565b600760009054906101000a900473ffffffffffffffffffffffffffffffffffffffff1681565b6040518060400160405280600c81526020017f47616d654372656174696f6e000000000000000000000000000000000000000081525061561881615c03565b61562182615e9e565b61562a82616259565b5050565b600160009054906101000a900473ffffffffffffffffffffffffffffffffffffffff1681565b600260009054906101000a900473ffffffffffffffffffffffffffffffffffffffff1681565b6000809054906101000a900473ffffffffffffffffffffffffffffffffffffffff1673ffffffffffffffffffffffffffffffffffffffff163373ffffffffffffffffffffffffffffffffffffffff16146156d057fe5b600073ffffffffffffffffffffffffffffffffffffffff168173ffffffffffffffffffffffffffffffffffffffff161461574557806000806101000a81548173ffffffffffffffffffffffffffffffffffffffff021916908373ffffffffffffffffffffffffffffffffffffffff1602179055505b50565b600073ffffffffffffffffffffffffffffffffffffffff16600160009054906101000a900473ffffffffffffffffffffffffffffffffffffffff1673ffffffffffffffffffffffffffffffffffffffff16141561580d576040517f08c379a00000000000000000000000000000000000000000000000000000000081526004018080602001828103825260088152602001807f4e6f2050726f787900000000000000000000000000000000000000000000000081525060200191505060405180910390fd5b600160009054906101000a900473ffffffffffffffffffffffffffffffffffffffff1673ffffffffffffffffffffffffffffffffffffffff163373ffffffffffffffffffffffffffffffffffffffff16146158d0576040517f08c379a00000000000000000000000000000000000000000000000000000000081526004018080602001828103825260128152602001807f4f6e6c79207468726f7567682050726f7879000000000000000000000000000081525060200191505060405180910390fd5b565b6000600160009054906101000a900473ffffffffffffffffffffffffffffffffffffffff1673ffffffffffffffffffffffffffffffffffffffff1663358177736040518060400160405280600681526020017f526f6c65444200000000000000000000000000000000000000000000000000008152506040518263ffffffff1660e01b81526004018080602001828103825283818151815260200191508051906020019080838360005b8381101561599757808201518184015260208101905061597c565b50505050905090810190601f1680156159c45780820380516001836020036101000a031916815260200191505b509250505060206040518083038186803b1580156159e157600080fd5b505afa1580156159f5573d6000803e3d6000fd5b505050506040513d6020811015615a0b57600080fd5b810190808051906020019092919050505073ffffffffffffffffffffffffffffffffffffffff16636c9cd09783615a40615b4e565b6040518363ffffffff1660e01b815260040180806020018373ffffffffffffffffffffffffffffffffffffffff1673ffffffffffffffffffffffffffffffffffffffff168152602001828103825284818151815260200191508051906020019080838360005b83811015615ac1578082015181840152602081019050615aa6565b50505050905090810190601f168015615aee5780820380516001836020036101000a031916815260200191505b50935050505060206040518083038186803b158015615b0c57600080fd5b505afa158015615b20573d6000803e3d6000fd5b505050506040513d6020811015615b3657600080fd5b81019080805190602001909291905050509050919050565b6000600160009054906101000a900473ffffffffffffffffffffffffffffffffffffffff1673ffffffffffffffffffffffffffffffffffffffff163373ffffffffffffffffffffffffffffffffffffffff1614615bad57339050615c00565b6000601436036000602052601481602c37602051915050600073ffffffffffffffffffffffffffffffffffffffff168173ffffffffffffffffffffffffffffffffffffffff161415615bfb57fe5b809150505b90565b600073ffffffffffffffffffffffffffffffffffffffff16600160009054906101000a900473ffffffffffffffffffffffffffffffffffffffff1673ffffffffffffffffffffffffffffffffffffffff161415615cc8576040517f08c379a00000000000000000000000000000000000000000000000000000000081526004018080602001828103825260088152602001807f4e6f2050726f787900000000000000000000000000000000000000000000000081525060200191505060405180910390fd5b6000600160009054906101000a900473ffffffffffffffffffffffffffffffffffffffff1673ffffffffffffffffffffffffffffffffffffffff166335817773836040518263ffffffff1660e01b81526004018080602001828103825283818151815260200191508051906020019080838360005b83811015615d58578082015181840152602081019050615d3d565b50505050905090810190601f168015615d855780820380516001836020036101000a031916815260200191505b509250505060206040518083038186803b158015615da257600080fd5b505afa158015615db6573d6000803e3d6000fd5b505050506040513d6020811015615dcc57600080fd5b81019080805190602001909291905050509050600073ffffffffffffffffffffffffffffffffffffffff168173ffffffffffffffffffffffffffffffffffffffff161415615e1657fe5b8073ffffffffffffffffffffffffffffffffffffffff163373ffffffffffffffffffffffffffffffffffffffff1614615e9a576040517f08c379a000000000000000000000000000000000000000000000000000000000815260040180806020018281038252602d815260200180616628602d913960400191505060405180910390fd5b5050565b6000600360009054906101000a900473ffffffffffffffffffffffffffffffffffffffff1673ffffffffffffffffffffffffffffffffffffffff16638851470d836040518263ffffffff1660e01b81526004018082815260200191505060606040518083038186803b158015615f1357600080fd5b505afa158015615f27573d6000803e3d6000fd5b505050506040513d6060811015615f3d57600080fd5b81019080805190602001909291908051906020019092919080519060200190929190505050925050506000600860009054906101000a900473ffffffffffffffffffffffffffffffffffffffff1673ffffffffffffffffffffffffffffffffffffffff16630d8d7aba846040518263ffffffff1660e01b81526004018082815260200191505060206040518083038186803b158015615fdb57600080fd5b505afa158015615fef573d6000803e3d6000fd5b505050506040513d602081101561600557600080fd5b81019080805190602001909291905050509050600860009054906101000a900473ffffffffffffffffffffffffffffffffffffffff1673ffffffffffffffffffffffffffffffffffffffff16632fab9fd384846040518363ffffffff1660e01b81526004018083815260200182815260200192505050602060405180830381600087803b15801561609557600080fd5b505af11580156160a9573d6000803e3d6000fd5b505050506040513d60208110156160bf57600080fd5b81019080805190602001909291905050501561625457600260009054906101000a900473ffffffffffffffffffffffffffffffffffffffff1673ffffffffffffffffffffffffffffffffffffffff1663e44542df84616127844261660b90919063ffffffff16565b6040518363ffffffff1660e01b81526004018083815260200182815260200192505050600060405180830381600087803b15801561616457600080fd5b505af1158015616178573d6000803e3d6000fd5b50505050600960009054906101000a900473ffffffffffffffffffffffffffffffffffffffff1673ffffffffffffffffffffffffffffffffffffffff1663c2b66904846040518263ffffffff1660e01b815260040180828152602001915050600060405180830381600087803b1580156161f157600080fd5b505af1158015616205573d6000803e3d6000fd5b50505050827ff42bff50b2d4e041c7d3bdb0a7934ee7210c0c43a7c82e269c259d4af244828361623e834261660b90919063ffffffff16565b6040518082815260200191505060405180910390a25b505050565b6002600581111561626657fe5b600360009054906101000a900473ffffffffffffffffffffffffffffffffffffffff1673ffffffffffffffffffffffffffffffffffffffff1663ffde0c74836040518263ffffffff1660e01b81526004018082815260200191505060206040518083038186803b1580156162d957600080fd5b505afa1580156162ed573d6000803e3d6000fd5b505050506040513d602081101561630357600080fd5b81019080805190602001909291905050501461631e57600080fd5b6000600360009054906101000a900473ffffffffffffffffffffffffffffffffffffffff1673ffffffffffffffffffffffffffffffffffffffff16638851470d836040518263ffffffff1660e01b81526004018082815260200191505060606040518083038186803b15801561639357600080fd5b505afa1580156163a7573d6000803e3d6000fd5b505050506040513d60608110156163bd57600080fd5b810190808051906020019092919080519060200190929190805190602001909291905050509250505042811161660757600960009054906101000a900473ffffffffffffffffffffffffffffffffffffffff1673ffffffffffffffffffffffffffffffffffffffff16639d60d53e836040518263ffffffff1660e01b815260040180828152602001915050600060405180830381600087803b15801561646257600080fd5b505af1158015616476573d6000803e3d6000fd5b50505050600260009054906101000a900473ffffffffffffffffffffffffffffffffffffffff1673ffffffffffffffffffffffffffffffffffffffff1663f5de839783600360058111156164c657fe5b6040518363ffffffff1660e01b81526004018083815260200182815260200192505050600060405180830381600087803b15801561650357600080fd5b505af1158015616517573d6000803e3d6000fd5b50505050600960009054906101000a900473ffffffffffffffffffffffffffffffffffffffff1673ffffffffffffffffffffffffffffffffffffffff16636fee856a836040518263ffffffff1660e01b815260040180828152602001915050600060405180830381600087803b15801561659057600080fd5b505af11580156165a4573d6000803e3d6000fd5b50505050817f44eba4bcf780a2012259962cf19bf1777051e027304e22dd8e324b0cefb4be2660026003604051808360058111156165de57fe5b60ff1681526020018260058111156165f257fe5b60ff1681526020019250505060405180910390a25b5050565b60008082840190508381101561661d57fe5b809150509291505056fe416363657373206973206f6e6c7920616c6c6f7765642066726f6d20737065636966696320636f6e7472616374a265627a7a72315820d3598ccad9302268dbaa42c2f52f2f82afbd080de38c0b01c85ced0bde61318e64736f6c63430005110032",
  "source": "/**\n * @title GamesManager\n *\n * @author @wafflemakr @karl @vikrammandal @Xaleee\n\n *\n */\n//modifier class (DSAuth )\n//Event class ( DSNote )\n//\n// This program is free software: you can redistribute it and/or modify\n// it under the terms of the GNU General Public License as published by\n// the Free Software Foundation, either version 3 of the License, or\n// (at your option) any later version.\n\n// This program is distributed in the hope that it will be useful,\n// but WITHOUT ANY WARRANTY; without even the implied warranty of\n// MERCHANTABILITY or FITNESS FOR A PARTICULAR PURPOSE.  See the\n// GNU General Public License for more details.\n\n// You should have received a copy of the GNU General Public License\n// along with this program.  If not, see <http://www.gnu.org/licenses/>.\n\npragma solidity ^0.5.5;\n\nimport '../proxy/Proxied.sol';\nimport \"../datetime/TimeFrame.sol\";\nimport \"../databases/GMSetterDB.sol\";\nimport \"../databases/GMGetterDB.sol\";\nimport \"../endowment/EndowmentFund.sol\";\nimport \"./Forfeiter.sol\";\nimport \"../algorithm/Betting.sol\";\nimport \"../algorithm/HitsResolveAlgo.sol\";\nimport \"../algorithm/RarityCalculator.sol\";\nimport \"../databases/ProfileDB.sol\";\nimport \"../../libs/SafeMath.sol\";\nimport '../kittieHELL/KittieHell.sol';\nimport '../../authority/Guard.sol';\nimport '../../mocks/MockERC721Token.sol';\nimport \"./GameStore.sol\";\nimport \"./GameCreation.sol\";\n\ncontract GameManager is Proxied, Guard {\n    using SafeMath for uint256;\n\n    //Contract Variables\n    GMSetterDB public gmSetterDB;\n    GMGetterDB public gmGetterDB;\n    EndowmentFund public endowmentFund;\n    Forfeiter public forfeiter;\n    Betting public betting;\n    KittieHell public kittieHELL;\n    GameStore public gameStore;\n    GameCreation public gameCreation;\n    //TimeFrame public timeFrame;\n \n    enum eGameState {WAITING, PRE_GAME, MAIN_GAME, GAME_OVER, CLAIMING, CANCELLED}\n\n    //EVENTS\n    event NewSupporter(uint indexed gameId, address supporter, address indexed playerSupported);\n    event PressStart(uint indexed gameId, address player);\n    event GameStateChanged(uint indexed gameId, eGameState old_state, eGameState new_state);\n    event GameEnded(uint indexed gameId, address indexed winner, address indexed loser, uint pointsBlack, uint pointsRed);\n    event GameExtended(uint indexed gameId, uint newEndTime);\n\n    modifier onlyGamePlayer(uint gameId, address player) {\n        require(ProfileDB(proxy.getContract(CONTRACT_NAME_PROFILE_DB)).getCivicId(player) > 0);\n        require(gmGetterDB.isPlayer(gameId, player));\n        _;\n    }\n\n    /**\n    * @dev Sets related contracts\n    * @dev Can be called only by the owner of this contract\n    */\n    function initialize() external onlyOwner {\n\n        gmSetterDB = GMSetterDB(proxy.getContract(CONTRACT_NAME_GM_SETTER_DB));\n        gmGetterDB = GMGetterDB(proxy.getContract(CONTRACT_NAME_GM_GETTER_DB));\n        endowmentFund = EndowmentFund(proxy.getContract(CONTRACT_NAME_ENDOWMENT_FUND));\n        forfeiter = Forfeiter(proxy.getContract(CONTRACT_NAME_FORFEITER));\n        betting = Betting(proxy.getContract(CONTRACT_NAME_BETTING));\n        kittieHELL = KittieHell(proxy.getContract(CONTRACT_NAME_KITTIEHELL));\n        gameStore = GameStore(proxy.getContract(CONTRACT_NAME_GAMESTORE));\n        gameCreation = GameCreation(proxy.getContract(CONTRACT_NAME_GAMECREATION));\n       // timeFrame = TimeFrame(proxy.getContract(CONTRACT_NAME_TIMEFRAME));\n    }\n\n    /**\n     * @dev Betters pay a ticket fee to participate in betting .\n     *      Betters can join before and even a live game.\n     */\n    function participate\n    (\n        uint gameId,\n        address playerToSupport\n    )\n        public\n        onlyProxy onlyBettor\n        onlyGamePlayer(gameId, playerToSupport)\n    {\n        uint gameState = gmGetterDB.getGameState(gameId);\n\n        address supporter = getOriginalSender();\n\n        require(supporter != playerToSupport);\n\n        //Before GAME_OVER\n        require(gameState <= 2);\n\n        //pay ticket fee\n        require(endowmentFund.contributeKTY(supporter, gameStore.getTicketFee(gameId)));\n        \n        require(gmSetterDB.addBettor(gameId, supporter, playerToSupport));\n\n        (,uint preStartTime,) = gmGetterDB.getGameTimes(gameId);\n\n        if (gameState == 0 || gameState == 1) forfeiter.checkGameStatus(gameId, gameState);\n        //Check again to see if forfeited\n        gameState = gmGetterDB.getGameState(gameId);\n\n        //Update state if reached prestart time\n        //Include check game state because it can be called from the bet function\n        if ((gameState == uint(eGameState.WAITING)) && (preStartTime <= now)){\n            gameCreation.deleteCronjob(gameId);\n            gmSetterDB.updateGameState(gameId, uint(eGameState.PRE_GAME));\n            emit GameStateChanged(gameId, eGameState.WAITING, eGameState.PRE_GAME);\n        }\n\n        emit NewSupporter(gameId, supporter, playerToSupport);\n    }\n\n    /**\n     * @dev only both Actual players can call\n     */\n    function startGame\n    (\n        uint gameId,\n        uint randomNum,\n        uint genes\n    )\n        external\n        onlyProxy onlyPlayer\n        onlyGamePlayer(gameId, getOriginalSender())\n    {\n        uint gameState = gmGetterDB.getGameState(gameId);\n        forfeiter.checkGameStatus(gameId, gameState);\n\n        gameState = gmGetterDB.getGameState(gameId);\n\n        if(gameState == uint(eGameState.PRE_GAME)){\n\n            address player = getOriginalSender();\n            uint kittieId = gmGetterDB.getKittieInGame(gameId, player);\n            \n            gameStore.start(gameId, player, randomNum);\n\n            // (,,,,,,,,,uint genes) = MockERC721Token(proxy.getContract(CONTRACT_NAME_CRYPTOKITTIES)).getKitty(kittieId);\n            // uint genes = MockERC721Token(proxy.getContract(CONTRACT_NAME_CRYPTOKITTIES)).getKitty(kittieId);\n            betting.setOriginalDefenseLevel(gameId, player, RarityCalculator(proxy.getContract(CONTRACT_NAME_RARITYCALCULATOR)).getDefenseLevel(kittieId, genes));\n\n            require(kittieHELL.acquireKitty(kittieId, player));\n\n            address opponentPlayer = gameStore.getOpponent(gameId, player);\n\n            emit PressStart(gameId, player);\n\n            //Both Players Hit start\n            if (gameStore.didHitStart(gameId, opponentPlayer)){\n                //Call betting to set fight map\n                betting.startGame(gameId, randomNum, gameStore.getRandom(gameId, opponentPlayer));\n                \n                gameCreation.deleteCronjob(gameId);\n\n                //GameStarts\n                gmSetterDB.updateGameState(gameId, uint(eGameState.MAIN_GAME));\n                endowmentFund.updateHoneyPotState(gameId, 3);\n                emit GameStateChanged(gameId, eGameState.PRE_GAME, eGameState.MAIN_GAME);\n            }\n        }\n    }\n\n    /**\n     * @dev checks to see if current jackpot is at least 10 times (10x)\n     *  the amount of funds originally placed in jackpot\n     */\n    function checkPerformance(uint gameId) internal {\n        (,,uint gameEndTime) = gmGetterDB.getGameTimes(gameId);\n        uint timeExtension = gameStore.getTimeExtension(gameId);\n\n        if(gameStore.checkPerformanceHelper(gameId, gameEndTime)){\n            gmSetterDB.updateEndTime(gameId, now.add(timeExtension));\n            gameCreation.rescheduleCronJob(gameId);\n            emit GameExtended(gameId, now.add(timeExtension));\n        }\n    }\n\n    /**\n     * @dev KTY tokens are sent to endowment balance, Eth gets added to ongoing game honeypot\n     * @author Felipe\n     * @author Karl\n     * @author Vikrammandal\n     */\n    function bet\n    (\n        uint gameId, uint randomNum\n    )\n        external payable\n        onlyProxy onlyBettor\n    {\n        require(msg.value > 0);\n\n        uint gameState = gmGetterDB.getGameState(gameId);\n\n        address supportedPlayer;\n        bool payedFee;\n        \n        require(gameState == uint(eGameState.MAIN_GAME));\n        \n        address sender = getOriginalSender();\n        \n        if(!(gmGetterDB.isPlayer(gameId, sender))){\n            (, supportedPlayer, payedFee,) = gmGetterDB.getSupporterInfo(gameId, sender);\n            require(payedFee); //Needs to call participate first if false\n        }\n        else{\n            supportedPlayer = sender;\n        }\n\n        //Transfer Funds to endowment\n        require(endowmentFund.contributeETH.value(msg.value)(gameId));\n        require(endowmentFund.contributeKTY(sender, gameStore.getBettingFee(gameId)));\n\n        // Update Random\n        HitsResolve(proxy.getContract(CONTRACT_NAME_HITSRESOLVE)).calculateCurrentRandom(gameId, randomNum);\n        \n        address opponentPlayer = gameStore.getOpponent(gameId, supportedPlayer);\n        \n        //Send bet to betting algo, to decide attacks\n        betting.bet(gameId, sender, msg.value, supportedPlayer, opponentPlayer, randomNum);\n\n        //Update bettor's total bet\n        gmSetterDB.updateBettor(gameId, sender, msg.value, supportedPlayer);\n\n        if (sender != supportedPlayer) gameStore.updateTopbettors(gameId, sender, supportedPlayer);\n\n        // check underperforming game if one minut\n        checkPerformance(gameId);\n\n        //Check if game has ended\n        gameEnd(gameId);\n    }\n\n    /**\n     * @dev game comes to an end at time duration,continously check game time end\n     */\n    function gameEnd(uint gameId) internal {\n        require(gmGetterDB.getGameState(gameId) == uint(eGameState.MAIN_GAME));\n\n        (,,uint endTime) = gmGetterDB.getGameTimes(gameId);\n\n        if ( endTime <= now){\n            gameCreation.deleteCronjob(gameId);\n            gmSetterDB.updateGameState(gameId, uint(eGameState.GAME_OVER));\n            gameCreation.removeKitties(gameId);\n            emit GameStateChanged(gameId, eGameState.MAIN_GAME, eGameState.GAME_OVER);\n        }\n    }\n\n    //Function to call gameEnd from Cronjob\n    function gameEndCron(uint gameId) \n        external\n        onlyContract(CONTRACT_NAME_GAMECREATION)\n    {\n        checkPerformance(gameId);\n        gameEnd(gameId);\n    }\n\n    /**\n     * @dev Determine winner of game based on  **HitResolver **\n     */\n    function finalize(uint gameId, uint randomNum) external {\n        require(gmGetterDB.getGameState(gameId) == uint(eGameState.GAME_OVER));\n\n        (address playerBlack, address playerRed,,) = gmGetterDB.getGamePlayers(gameId);\n\n        (address winner, address loser, uint256 pointsBlack, uint256 pointsRed) = gameStore.calculateWinner(\n            gameId, playerBlack, playerRed, randomNum\n        );\n\n        //Store Winners in DB\n        gmSetterDB.setWinners(gameId, winner, gameStore.getTopBettor(gameId, winner),\n            gameStore.getSecondTopBettor(gameId, winner));\n        \n        //Lock Honeypot Final Details\n        gmSetterDB.storeHoneypotDetails(gameId);\n\n        //Release winner's Kittie\n        kittieHELL.releaseKittyGameManager(gmGetterDB.getKittieInGame(gameId, winner));\n\n        //Kill losers's Kittie\n        kittieHELL.killKitty(gmGetterDB.getKittieInGame(gameId, loser), gameId);\n\n        (uint256 totalETHinHoneypot,) = gmGetterDB.getFinalHoneypot(gameId);\n        endowmentFund.addETHtoPool(gameId, totalETHinHoneypot);\n\n        // update kittie redemption fee dynamically to a percentage of the final honey pot\n        gameStore.updateKittieRedemptionFee(gameId); /*TO BE FIXED*/\n\n        //Set to claiming\n        endowmentFund.updateHoneyPotState(gameId, 5);\n\n        //Send Finalize reward\n        endowmentFund.sendFinalizeRewards(getOriginalSender());\n\n        gmSetterDB.updateGameState(gameId, uint(eGameState.CLAIMING));\n\n        // Set new epoch when last game finalizes\n        // If now < 6 hours before the end of working days of current epoch,\n        // then this is the last game\n        // TODO: if now > 6 hours before the end of working days of current epoch,\n        // but there is no more game scheduled after this game in the current epoch,\n        // then this is the last game as well\n        //timeFrame = TimeFrame(proxy.getContract(CONTRACT_NAME_TIMEFRAME));\n        uint lastEpochId = TimeFrame(proxy.getContract(CONTRACT_NAME_TIMEFRAME)).getLastEpochID();\n        if (!TimeFrame(proxy.getContract(CONTRACT_NAME_TIMEFRAME)).canStartNewGame(lastEpochId)) {\n            TimeFrame(proxy.getContract(CONTRACT_NAME_TIMEFRAME)).setNewEpoch();\n        }\n\n        emit GameStateChanged(gameId, eGameState.MAIN_GAME, eGameState.CLAIMING);\n\n        emit GameEnded(gameId, winner, loser, pointsBlack, pointsRed);\n    }\n    \n\n    /**\n     * @dev Cancels the game before the game starts\n     */\n    function cancelGame(uint gameId) external onlyContract(CONTRACT_NAME_FORFEITER) {\n        uint gameState = gmGetterDB.getGameState(gameId);\n        require(gameState == uint(eGameState.WAITING) ||\n                gameState == uint(eGameState.PRE_GAME));\n\n        gmSetterDB.updateGameState(gameId, uint(eGameState.CANCELLED));\n\n        //Set to forfeited\n        endowmentFund.updateHoneyPotState(gameId, 4);\n        gameCreation.removeKitties(gameId);\n\n        gameCreation.deleteCronjob(gameId);\n\n    }\n}\n",
  "sourcePath": "/Users/ziweizhang/Desktop/staking/alpha/contracts/modules/gamemanager/GameManager.sol",
  "compiler": {
    "name": "solc",
    "version": "0.5.17+commit.d19bba13.Emscripten.clang"
  },
  "schemaVersion": "3.0.23",
  "updatedAt": "2020-04-09T00:33:31.438Z",
  "networkType": "ethereum",
  "devdoc": {
    "methods": {
      "bet(uint256,uint256)": {
        "author": "FelipeKarlVikrammandal",
        "details": "KTY tokens are sent to endowment balance, Eth gets added to ongoing game honeypot"
      },
      "cancelGame(uint256)": {
        "details": "Cancels the game before the game starts"
      },
      "finalize(uint256,uint256)": {
        "details": "Determine winner of game based on  **HitResolver **"
      },
      "initialize()": {
        "details": "Sets related contractsCan be called only by the owner of this contract"
      },
      "participate(uint256,address)": {
        "details": "Betters pay a ticket fee to participate in betting .     Betters can join before and even a live game."
      },
      "startGame(uint256,uint256,uint256)": {
        "details": "only both Actual players can call"
      }
    }
  },
  "userdoc": {
    "methods": {
      "setProxy(address)": {
        "notice": "Set/update address of Proxy contract"
      }
    }
  }
}