{
  "contractName": "GameStore",
  "abi": [
    {
      "constant": true,
      "inputs": [
        {
          "internalType": "uint256",
          "name": "",
          "type": "uint256"
        },
        {
          "internalType": "address",
          "name": "",
          "type": "address"
        }
      ],
      "name": "gameByPlayer",
      "outputs": [
        {
          "internalType": "uint256",
          "name": "randomNum",
          "type": "uint256"
        },
        {
          "internalType": "bool",
          "name": "pressedStart",
          "type": "bool"
        },
        {
          "internalType": "address",
          "name": "topBettor",
          "type": "address"
        },
        {
          "internalType": "address",
          "name": "secondTopBettor",
          "type": "address"
        }
      ],
      "payable": false,
      "stateMutability": "view",
      "type": "function"
    },
    {
      "constant": true,
      "inputs": [
        {
          "internalType": "uint256",
          "name": "",
          "type": "uint256"
        }
      ],
      "name": "gameSettings",
      "outputs": [
        {
          "internalType": "uint256",
          "name": "bettingFee",
          "type": "uint256"
        },
        {
          "internalType": "uint256",
          "name": "ticketFee",
          "type": "uint256"
        },
        {
          "internalType": "uint256",
          "name": "redemptionFee",
          "type": "uint256"
        },
        {
          "internalType": "uint256",
          "name": "kittieHellExpirationTime",
          "type": "uint256"
        },
        {
          "internalType": "uint256",
          "name": "honeypotExpirationTime",
          "type": "uint256"
        },
        {
          "internalType": "uint256",
          "name": "minimumContributors",
          "type": "uint256"
        },
        {
          "internalType": "uint256",
          "name": "finalizeRewards",
          "type": "uint256"
        },
        {
          "internalType": "uint256",
          "name": "timeExtension",
          "type": "uint256"
        },
        {
          "internalType": "uint256",
          "name": "performanceTime",
          "type": "uint256"
        }
      ],
      "payable": false,
      "stateMutability": "view",
      "type": "function"
    },
    {
      "constant": true,
      "inputs": [],
      "name": "gameVarAndFee",
      "outputs": [
        {
          "internalType": "contract GameVarAndFee",
          "name": "",
          "type": "address"
        }
      ],
      "payable": false,
      "stateMutability": "view",
      "type": "function"
    },
    {
      "constant": true,
      "inputs": [],
      "name": "gmGetterDB",
      "outputs": [
        {
          "internalType": "contract GMGetterDB",
          "name": "",
          "type": "address"
        }
      ],
      "payable": false,
      "stateMutability": "view",
      "type": "function"
    },
    {
      "constant": true,
      "inputs": [],
      "name": "hitsResolve",
      "outputs": [
        {
          "internalType": "contract HitsResolve",
          "name": "",
          "type": "address"
        }
      ],
      "payable": false,
      "stateMutability": "view",
      "type": "function"
    },
    {
      "constant": true,
      "inputs": [],
      "name": "owner",
      "outputs": [
        {
          "internalType": "address payable",
          "name": "",
          "type": "address"
        }
      ],
      "payable": false,
      "stateMutability": "view",
      "type": "function"
    },
    {
      "constant": true,
      "inputs": [],
      "name": "proxy",
      "outputs": [
        {
          "internalType": "contract ProxyBase",
          "name": "",
          "type": "address"
        }
      ],
      "payable": false,
      "stateMutability": "view",
      "type": "function"
    },
    {
      "constant": true,
      "inputs": [],
      "name": "scheduler",
      "outputs": [
        {
          "internalType": "contract Scheduler",
          "name": "",
          "type": "address"
        }
      ],
      "payable": false,
      "stateMutability": "view",
      "type": "function"
    },
    {
      "constant": false,
      "inputs": [
        {
          "internalType": "contract ProxyBase",
          "name": "_proxy",
          "type": "address"
        }
      ],
      "name": "setProxy",
      "outputs": [],
      "payable": false,
      "stateMutability": "nonpayable",
      "type": "function"
    },
    {
      "constant": true,
      "inputs": [],
      "name": "timeFrame",
      "outputs": [
        {
          "internalType": "contract TimeFrame",
          "name": "",
          "type": "address"
        }
      ],
      "payable": false,
      "stateMutability": "view",
      "type": "function"
    },
    {
      "constant": false,
      "inputs": [
        {
          "internalType": "address payable",
          "name": "newOwner",
          "type": "address"
        }
      ],
      "name": "transferOwnership",
      "outputs": [],
      "payable": false,
      "stateMutability": "nonpayable",
      "type": "function"
    },
    {
      "constant": false,
      "inputs": [],
      "name": "initialize",
      "outputs": [],
      "payable": false,
      "stateMutability": "nonpayable",
      "type": "function"
    },
    {
      "constant": false,
      "inputs": [
        {
          "internalType": "uint256",
          "name": "gameId",
          "type": "uint256"
        }
      ],
      "name": "lockVars",
      "outputs": [],
      "payable": false,
      "stateMutability": "nonpayable",
      "type": "function"
    },
    {
      "constant": false,
      "inputs": [
        {
          "internalType": "uint256",
          "name": "gameId",
          "type": "uint256"
        }
      ],
      "name": "lockVarsAdmin",
      "outputs": [],
      "payable": false,
      "stateMutability": "nonpayable",
      "type": "function"
    },
    {
      "constant": true,
      "inputs": [
        {
          "internalType": "uint256",
          "name": "gameId",
          "type": "uint256"
        }
      ],
      "name": "getDistributionRates",
      "outputs": [
        {
          "internalType": "uint256[5]",
          "name": "",
          "type": "uint256[5]"
        }
      ],
      "payable": false,
      "stateMutability": "view",
      "type": "function"
    },
    {
      "constant": true,
      "inputs": [
        {
          "internalType": "uint256",
          "name": "percentageHoneyPot",
          "type": "uint256"
        },
        {
          "internalType": "uint256",
          "name": "_eth_amount",
          "type": "uint256"
        },
        {
          "internalType": "uint256",
          "name": "_kty_amount",
          "type": "uint256"
        }
      ],
      "name": "calculateDynamicFee",
      "outputs": [
        {
          "internalType": "uint256",
          "name": "",
          "type": "uint256"
        }
      ],
      "payable": false,
      "stateMutability": "view",
      "type": "function"
    },
    {
      "constant": false,
      "inputs": [
        {
          "internalType": "uint256",
          "name": "gameId",
          "type": "uint256"
        }
      ],
      "name": "updateKittieRedemptionFee",
      "outputs": [],
      "payable": false,
      "stateMutability": "nonpayable",
      "type": "function"
    },
    {
      "constant": false,
      "inputs": [
        {
          "internalType": "uint256",
          "name": "gameId",
          "type": "uint256"
        }
      ],
      "name": "updateTicketFee",
      "outputs": [],
      "payable": false,
      "stateMutability": "nonpayable",
      "type": "function"
    },
    {
      "constant": false,
      "inputs": [
        {
          "internalType": "uint256",
          "name": "gameId",
          "type": "uint256"
        }
      ],
      "name": "updateBettingFee",
      "outputs": [],
      "payable": false,
      "stateMutability": "nonpayable",
      "type": "function"
    },
    {
      "constant": true,
      "inputs": [
        {
          "internalType": "uint256",
          "name": "gameId",
          "type": "uint256"
        }
      ],
      "name": "getKittieExpirationTime",
      "outputs": [
        {
          "internalType": "uint256",
          "name": "",
          "type": "uint256"
        }
      ],
      "payable": false,
      "stateMutability": "view",
      "type": "function"
    },
    {
      "constant": true,
      "inputs": [
        {
          "internalType": "uint256",
          "name": "gameId",
          "type": "uint256"
        }
      ],
      "name": "getKittieRedemptionFee",
      "outputs": [
        {
          "internalType": "uint256",
          "name": "",
          "type": "uint256"
        }
      ],
      "payable": false,
      "stateMutability": "view",
      "type": "function"
    },
    {
      "constant": true,
      "inputs": [
        {
          "internalType": "uint256",
          "name": "gameId",
          "type": "uint256"
        }
      ],
      "name": "getHoneypotExpiration",
      "outputs": [
        {
          "internalType": "uint256",
          "name": "",
          "type": "uint256"
        }
      ],
      "payable": false,
      "stateMutability": "view",
      "type": "function"
    },
    {
      "constant": false,
      "inputs": [
        {
          "internalType": "uint256",
          "name": "gameId",
          "type": "uint256"
        },
        {
          "internalType": "address",
          "name": "player",
          "type": "address"
        },
        {
          "internalType": "uint256",
          "name": "randomNum",
          "type": "uint256"
        }
      ],
      "name": "start",
      "outputs": [],
      "payable": false,
      "stateMutability": "nonpayable",
      "type": "function"
    },
    {
      "constant": true,
      "inputs": [
        {
          "internalType": "uint256",
          "name": "gameId",
          "type": "uint256"
        },
        {
          "internalType": "address",
          "name": "player",
          "type": "address"
        }
      ],
      "name": "didHitStart",
      "outputs": [
        {
          "internalType": "bool",
          "name": "",
          "type": "bool"
        }
      ],
      "payable": false,
      "stateMutability": "view",
      "type": "function"
    },
    {
      "constant": true,
      "inputs": [
        {
          "internalType": "uint256",
          "name": "gameId",
          "type": "uint256"
        },
        {
          "internalType": "address",
          "name": "player",
          "type": "address"
        }
      ],
      "name": "getRandom",
      "outputs": [
        {
          "internalType": "uint256",
          "name": "",
          "type": "uint256"
        }
      ],
      "payable": false,
      "stateMutability": "view",
      "type": "function"
    },
    {
      "constant": false,
      "inputs": [
        {
          "internalType": "uint256",
          "name": "gameId",
          "type": "uint256"
        },
        {
          "internalType": "address",
          "name": "player",
          "type": "address"
        },
        {
          "internalType": "address",
          "name": "newTopBettor",
          "type": "address"
        }
      ],
      "name": "updateTopBettor",
      "outputs": [],
      "payable": false,
      "stateMutability": "nonpayable",
      "type": "function"
    },
    {
      "constant": true,
      "inputs": [
        {
          "internalType": "uint256",
          "name": "gameId",
          "type": "uint256"
        },
        {
          "internalType": "address",
          "name": "player",
          "type": "address"
        }
      ],
      "name": "getTopBettor",
      "outputs": [
        {
          "internalType": "address",
          "name": "",
          "type": "address"
        }
      ],
      "payable": false,
      "stateMutability": "view",
      "type": "function"
    },
    {
      "constant": false,
      "inputs": [
        {
          "internalType": "uint256",
          "name": "gameId",
          "type": "uint256"
        },
        {
          "internalType": "address",
          "name": "player",
          "type": "address"
        },
        {
          "internalType": "address",
          "name": "newSecondTopBettor",
          "type": "address"
        }
      ],
      "name": "updateSecondTopBettor",
      "outputs": [],
      "payable": false,
      "stateMutability": "nonpayable",
      "type": "function"
    },
    {
      "constant": true,
      "inputs": [
        {
          "internalType": "uint256",
          "name": "gameId",
          "type": "uint256"
        },
        {
          "internalType": "address",
          "name": "player",
          "type": "address"
        }
      ],
      "name": "getSecondTopBettor",
      "outputs": [
        {
          "internalType": "address",
          "name": "",
          "type": "address"
        }
      ],
      "payable": false,
      "stateMutability": "view",
      "type": "function"
    },
    {
      "constant": true,
      "inputs": [
        {
          "internalType": "uint256",
          "name": "gameId",
          "type": "uint256"
        }
      ],
      "name": "getTicketFee",
      "outputs": [
        {
          "internalType": "uint256",
          "name": "",
          "type": "uint256"
        }
      ],
      "payable": false,
      "stateMutability": "view",
      "type": "function"
    },
    {
      "constant": true,
      "inputs": [
        {
          "internalType": "uint256",
          "name": "gameId",
          "type": "uint256"
        }
      ],
      "name": "getBettingFee",
      "outputs": [
        {
          "internalType": "uint256",
          "name": "",
          "type": "uint256"
        }
      ],
      "payable": false,
      "stateMutability": "view",
      "type": "function"
    },
    {
      "constant": true,
      "inputs": [
        {
          "internalType": "uint256",
          "name": "gameId",
          "type": "uint256"
        }
      ],
      "name": "getMinimumContributors",
      "outputs": [
        {
          "internalType": "uint256",
          "name": "",
          "type": "uint256"
        }
      ],
      "payable": false,
      "stateMutability": "view",
      "type": "function"
    },
    {
      "constant": true,
      "inputs": [
        {
          "internalType": "uint256",
          "name": "gameId",
          "type": "uint256"
        }
      ],
      "name": "getFinalizeRewards",
      "outputs": [
        {
          "internalType": "uint256",
          "name": "",
          "type": "uint256"
        }
      ],
      "payable": false,
      "stateMutability": "view",
      "type": "function"
    },
    {
      "constant": true,
      "inputs": [
        {
          "internalType": "uint256",
          "name": "gameId",
          "type": "uint256"
        }
      ],
      "name": "getPerformanceTimeCheck",
      "outputs": [
        {
          "internalType": "uint256",
          "name": "",
          "type": "uint256"
        }
      ],
      "payable": false,
      "stateMutability": "view",
      "type": "function"
    },
    {
      "constant": true,
      "inputs": [
        {
          "internalType": "uint256",
          "name": "gameId",
          "type": "uint256"
        }
      ],
      "name": "getTimeExtension",
      "outputs": [
        {
          "internalType": "uint256",
          "name": "",
          "type": "uint256"
        }
      ],
      "payable": false,
      "stateMutability": "view",
      "type": "function"
    },
    {
      "constant": false,
      "inputs": [
        {
          "internalType": "uint256",
          "name": "_gameId",
          "type": "uint256"
        },
        {
          "internalType": "address",
          "name": "_account",
          "type": "address"
        },
        {
          "internalType": "address",
          "name": "_supportedPlayer",
          "type": "address"
        }
      ],
      "name": "updateTopbettors",
      "outputs": [],
      "payable": false,
      "stateMutability": "nonpayable",
      "type": "function"
    },
    {
      "constant": true,
      "inputs": [
        {
          "internalType": "uint256",
          "name": "gameId",
          "type": "uint256"
        },
        {
          "internalType": "address",
          "name": "player",
          "type": "address"
        }
      ],
      "name": "getOpponent",
      "outputs": [
        {
          "internalType": "address",
          "name": "",
          "type": "address"
        }
      ],
      "payable": false,
      "stateMutability": "view",
      "type": "function"
    },
    {
      "constant": true,
      "inputs": [
        {
          "internalType": "uint256",
          "name": "gameId",
          "type": "uint256"
        },
        {
          "internalType": "address",
          "name": "player",
          "type": "address"
        }
      ],
      "name": "getCorner",
      "outputs": [
        {
          "internalType": "uint256",
          "name": "",
          "type": "uint256"
        }
      ],
      "payable": false,
      "stateMutability": "view",
      "type": "function"
    },
    {
      "constant": true,
      "inputs": [
        {
          "internalType": "uint256",
          "name": "gameId",
          "type": "uint256"
        },
        {
          "internalType": "address",
          "name": "playerBlack",
          "type": "address"
        },
        {
          "internalType": "address",
          "name": "playerRed",
          "type": "address"
        },
        {
          "internalType": "uint256",
          "name": "random",
          "type": "uint256"
        }
      ],
      "name": "calculateWinner",
      "outputs": [
        {
          "internalType": "address",
          "name": "winner",
          "type": "address"
        },
        {
          "internalType": "address",
          "name": "loser",
          "type": "address"
        },
        {
          "internalType": "uint256",
          "name": "pointsBlack",
          "type": "uint256"
        },
        {
          "internalType": "uint256",
          "name": "pointsRed",
          "type": "uint256"
        }
      ],
      "payable": false,
      "stateMutability": "view",
      "type": "function"
    },
    {
      "constant": false,
      "inputs": [],
      "name": "createGameAndEpoch",
      "outputs": [],
      "payable": false,
      "stateMutability": "nonpayable",
      "type": "function"
    },
    {
      "constant": true,
      "inputs": [
        {
          "internalType": "uint256",
          "name": "gameId",
          "type": "uint256"
        },
        {
          "internalType": "uint256",
          "name": "gameEndTime",
          "type": "uint256"
        }
      ],
      "name": "checkPerformanceHelper",
      "outputs": [
        {
          "internalType": "bool",
          "name": "",
          "type": "bool"
        }
      ],
      "payable": false,
      "stateMutability": "view",
      "type": "function"
    }
  ],
  "bytecode": "0x6080604052336000806101000a81548173ffffffffffffffffffffffffffffffffffffffff021916908373ffffffffffffffffffffffffffffffffffffffff160217905550614e3a806100536000396000f3fe608060405234801561001057600080fd5b50600436106102535760003560e01c80637b17998811610146578063c02c8ed7116100c3578063ebff754a11610087578063ebff754a14610e24578063ec55688914610e8a578063f2fde38b14610ed4578063f3ef7d2c14610f18578063f58f32cf14610f5a578063f9ccbdf214610f9c57610253565b8063c02c8ed714610bdb578063c97d996914610c1d578063c9fe0cef14610c8b578063cefc482614610ce1578063d1ad17bf14610dda57610253565b806397107d6d1161010a57806397107d6d14610a0a5780639dac052e14610a4e578063a3b3bd7b14610a7c578063aa84869f14610ac6578063b83d8c5214610b0857610253565b80637b179988146108f45780638129fc1c146109225780638ad7877a1461092c5780638b13b64b146109765780638da5cb5b146109c057610253565b80632fab9fd3116101d457806353d820f91161019857806353d820f9146106fe5780635daaf7981461076c5780635f87206d1461079a5780636991b5bf146108285780636e47c6351461089257610253565b80632fab9fd31461056e57806331856c71146105be57806331fa7067146106005780633422476d1461068e5780633c38d0a9146106bc57610253565b8063158d39cb1161021b578063158d39cb146103f257806316805a291461044a5780631fc75180146104d8578063228d8dcb14610522578063299202991461052c57610253565b806305931a3c146102585780630bc644f5146102d25780630c03955f146103405780630d1fd67a1461036e5780630d8d7aba146103b0575b600080fd5b6102846004803603602081101561026e57600080fd5b8101908080359060200190929190505050610ffe565b604051808a8152602001898152602001888152602001878152602001868152602001858152602001848152602001838152602001828152602001995050505050505050505060405180910390f35b61033e600480360360608110156102e857600080fd5b8101908080359060200190929190803573ffffffffffffffffffffffffffffffffffffffff169060200190929190803573ffffffffffffffffffffffffffffffffffffffff16906020019092919050505061104c565b005b61036c6004803603602081101561035657600080fd5b8101908080359060200190929190505050611600565b005b61039a6004803603602081101561038457600080fd5b8101908080359060200190929190505050611790565b6040518082815260200191505060405180910390f35b6103dc600480360360208110156103c657600080fd5b81019080803590602001909291905050506117b0565b6040518082815260200191505060405180910390f35b6104486004803603606081101561040857600080fd5b8101908080359060200190929190803573ffffffffffffffffffffffffffffffffffffffff169060200190929190803590602001909291905050506117d0565b005b6104966004803603604081101561046057600080fd5b8101908080359060200190929190803573ffffffffffffffffffffffffffffffffffffffff1690602001909291905050506118d9565b604051808273ffffffffffffffffffffffffffffffffffffffff1673ffffffffffffffffffffffffffffffffffffffff16815260200191505060405180910390f35b6104e0611957565b604051808273ffffffffffffffffffffffffffffffffffffffff1673ffffffffffffffffffffffffffffffffffffffff16815260200191505060405180910390f35b61052a61197d565b005b6105586004803603602081101561054257600080fd5b8101908080359060200190929190505050611ac3565b6040518082815260200191505060405180910390f35b6105a46004803603604081101561058457600080fd5b810190808035906020019092919080359060200190929190505050611ae3565b604051808215151515815260200191505060405180910390f35b6105ea600480360360208110156105d457600080fd5b8101908080359060200190929190505050611ce2565b6040518082815260200191505060405180910390f35b61064c6004803603604081101561061657600080fd5b8101908080359060200190929190803573ffffffffffffffffffffffffffffffffffffffff169060200190929190505050611d02565b604051808273ffffffffffffffffffffffffffffffffffffffff1673ffffffffffffffffffffffffffffffffffffffff16815260200191505060405180910390f35b6106ba600480360360208110156106a457600080fd5b8101908080359060200190929190505050611e23565b005b6106e8600480360360208110156106d257600080fd5b8101908080359060200190929190505050611e6f565b6040518082815260200191505060405180910390f35b61076a6004803603606081101561071457600080fd5b8101908080359060200190929190803573ffffffffffffffffffffffffffffffffffffffff169060200190929190803573ffffffffffffffffffffffffffffffffffffffff169060200190929190505050611e8f565b005b6107986004803603602081101561078257600080fd5b8101908080359060200190929190505050611f66565b005b6107e6600480360360408110156107b057600080fd5b8101908080359060200190929190803573ffffffffffffffffffffffffffffffffffffffff16906020019092919050505061213e565b604051808273ffffffffffffffffffffffffffffffffffffffff1673ffffffffffffffffffffffffffffffffffffffff16815260200191505060405180910390f35b6108546004803603602081101561083e57600080fd5b81019080803590602001909291905050506121bc565b6040518082600560200280838360005b8381101561087f578082015181840152602081019050610864565b5050505090500191505060405180910390f35b6108de600480360360408110156108a857600080fd5b8101908080359060200190929190803573ffffffffffffffffffffffffffffffffffffffff16906020019092919050505061221d565b6040518082815260200191505060405180910390f35b6109206004803603602081101561090a57600080fd5b810190808035906020019092919050505061227b565b005b61092a61240b565b005b610934612c0b565b604051808273ffffffffffffffffffffffffffffffffffffffff1673ffffffffffffffffffffffffffffffffffffffff16815260200191505060405180910390f35b61097e612c31565b604051808273ffffffffffffffffffffffffffffffffffffffff1673ffffffffffffffffffffffffffffffffffffffff16815260200191505060405180910390f35b6109c8612c57565b604051808273ffffffffffffffffffffffffffffffffffffffff1673ffffffffffffffffffffffffffffffffffffffff16815260200191505060405180910390f35b610a4c60048036036020811015610a2057600080fd5b81019080803573ffffffffffffffffffffffffffffffffffffffff169060200190929190505050612c7c565b005b610a7a60048036036020811015610a6457600080fd5b8101908080359060200190929190505050612d16565b005b610a84612e09565b604051808273ffffffffffffffffffffffffffffffffffffffff1673ffffffffffffffffffffffffffffffffffffffff16815260200191505060405180910390f35b610af260048036036020811015610adc57600080fd5b8101908080359060200190929190505050612e2f565b6040518082815260200191505060405180910390f35b610b5460048036036040811015610b1e57600080fd5b8101908080359060200190929190803573ffffffffffffffffffffffffffffffffffffffff169060200190929190505050612e4f565b60405180858152602001841515151581526020018373ffffffffffffffffffffffffffffffffffffffff1673ffffffffffffffffffffffffffffffffffffffff1681526020018273ffffffffffffffffffffffffffffffffffffffff1673ffffffffffffffffffffffffffffffffffffffff16815260200194505050505060405180910390f35b610c0760048036036020811015610bf157600080fd5b8101908080359060200190929190505050612ed9565b6040518082815260200191505060405180910390f35b610c8960048036036060811015610c3357600080fd5b8101908080359060200190929190803573ffffffffffffffffffffffffffffffffffffffff169060200190929190803573ffffffffffffffffffffffffffffffffffffffff169060200190929190505050612ef9565b005b610ccb60048036036060811015610ca157600080fd5b81019080803590602001909291908035906020019092919080359060200190929190505050612fd0565b6040518082815260200191505060405180910390f35b610d5760048036036080811015610cf757600080fd5b8101908080359060200190929190803573ffffffffffffffffffffffffffffffffffffffff169060200190929190803573ffffffffffffffffffffffffffffffffffffffff16906020019092919080359060200190929190505050613228565b604051808573ffffffffffffffffffffffffffffffffffffffff1673ffffffffffffffffffffffffffffffffffffffff1681526020018473ffffffffffffffffffffffffffffffffffffffff1673ffffffffffffffffffffffffffffffffffffffff16815260200183815260200182815260200194505050505060405180910390f35b610de26137a9565b604051808273ffffffffffffffffffffffffffffffffffffffff1673ffffffffffffffffffffffffffffffffffffffff16815260200191505060405180910390f35b610e7060048036036040811015610e3a57600080fd5b8101908080359060200190929190803573ffffffffffffffffffffffffffffffffffffffff1690602001909291905050506137cf565b604051808215151515815260200191505060405180910390f35b610e9261383a565b604051808273ffffffffffffffffffffffffffffffffffffffff1673ffffffffffffffffffffffffffffffffffffffff16815260200191505060405180910390f35b610f1660048036036020811015610eea57600080fd5b81019080803573ffffffffffffffffffffffffffffffffffffffff169060200190929190505050613860565b005b610f4460048036036020811015610f2e57600080fd5b810190808035906020019092919050505061392e565b6040518082815260200191505060405180910390f35b610f8660048036036020811015610f7057600080fd5b810190808035906020019092919050505061394e565b6040518082815260200191505060405180910390f35b610fe860048036036040811015610fb257600080fd5b8101908080359060200190929190803573ffffffffffffffffffffffffffffffffffffffff16906020019092919050505061396e565b6040518082815260200191505060405180910390f35b60086020528060005260406000206000915090508060000154908060010154908060020154908060030154908060040154908060050154908060060154908060070154908060080154905089565b6040518060400160405280600b81526020017f47616d654d616e6167657200000000000000000000000000000000000000000081525061108b81613ad0565b600061109785846118d9565b90506000600360009054906101000a900473ffffffffffffffffffffffffffffffffffffffff1673ffffffffffffffffffffffffffffffffffffffff16630b154c9687876040518363ffffffff1660e01b8152600401808381526020018273ffffffffffffffffffffffffffffffffffffffff1673ffffffffffffffffffffffffffffffffffffffff1681526020019250505060806040518083038186803b15801561114257600080fd5b505afa158015611156573d6000803e3d6000fd5b505050506040513d608081101561116c57600080fd5b810190808051906020019092919080519060200190929190805190602001909291908051906020019092919050505050505090506000600360009054906101000a900473ffffffffffffffffffffffffffffffffffffffff1673ffffffffffffffffffffffffffffffffffffffff16630b154c9688856040518363ffffffff1660e01b8152600401808381526020018273ffffffffffffffffffffffffffffffffffffffff1673ffffffffffffffffffffffffffffffffffffffff1681526020019250505060806040518083038186803b15801561124957600080fd5b505afa15801561125d573d6000803e3d6000fd5b505050506040513d608081101561127357600080fd5b810190808051906020019092919080519060200190929190805190602001909291908051906020019092919050505050505090508573ffffffffffffffffffffffffffffffffffffffff168373ffffffffffffffffffffffffffffffffffffffff16146115f7578082111561140b57856007600089815260200190815260200160002060008773ffffffffffffffffffffffffffffffffffffffff1673ffffffffffffffffffffffffffffffffffffffff16815260200190815260200160002060010160016101000a81548173ffffffffffffffffffffffffffffffffffffffff021916908373ffffffffffffffffffffffffffffffffffffffff160217905550826007600089815260200190815260200160002060008773ffffffffffffffffffffffffffffffffffffffff1673ffffffffffffffffffffffffffffffffffffffff16815260200190815260200160002060020160006101000a81548173ffffffffffffffffffffffffffffffffffffffff021916908373ffffffffffffffffffffffffffffffffffffffff1602179055506115f6565b6000611417888761213e565b90506000600360009054906101000a900473ffffffffffffffffffffffffffffffffffffffff1673ffffffffffffffffffffffffffffffffffffffff16630b154c968a846040518363ffffffff1660e01b8152600401808381526020018273ffffffffffffffffffffffffffffffffffffffff1673ffffffffffffffffffffffffffffffffffffffff1681526020019250505060806040518083038186803b1580156114c257600080fd5b505afa1580156114d6573d6000803e3d6000fd5b505050506040513d60808110156114ec57600080fd5b81019080805190602001909291908051906020019092919080519060200190929190805190602001909291905050505050509050808411801561155b57508773ffffffffffffffffffffffffffffffffffffffff168273ffffffffffffffffffffffffffffffffffffffff1614155b156115f35787600760008b815260200190815260200160002060008973ffffffffffffffffffffffffffffffffffffffff1673ffffffffffffffffffffffffffffffffffffffff16815260200190815260200160002060020160006101000a81548173ffffffffffffffffffffffffffffffffffffffff021916908373ffffffffffffffffffffffffffffffffffffffff1602179055505b50505b5b50505050505050565b6000600260009054906101000a900473ffffffffffffffffffffffffffffffffffffffff1673ffffffffffffffffffffffffffffffffffffffff1663f0e52c426040518163ffffffff1660e01b815260040160206040518083038186803b15801561166a57600080fd5b505afa15801561167e573d6000803e3d6000fd5b505050506040513d602081101561169457600080fd5b81019080805190602001909291905050509050600080600360009054906101000a900473ffffffffffffffffffffffffffffffffffffffff1673ffffffffffffffffffffffffffffffffffffffff1663bd4f6d1e856040518263ffffffff1660e01b815260040180828152602001915050604080518083038186803b15801561171c57600080fd5b505afa158015611730573d6000803e3d6000fd5b505050506040513d604081101561174657600080fd5b81019080805190602001909291908051906020019092919050505091509150611770838383612fd0565b600860008681526020019081526020016000206000018190555050505050565b600060086000838152602001908152602001600020600401549050919050565b600060086000838152602001908152602001600020600701549050919050565b6040518060400160405280600b81526020017f47616d654d616e6167657200000000000000000000000000000000000000000081525061180f81613ad0565b60016007600086815260200190815260200160002060008573ffffffffffffffffffffffffffffffffffffffff1673ffffffffffffffffffffffffffffffffffffffff16815260200190815260200160002060010160006101000a81548160ff021916908315150217905550816007600086815260200190815260200160002060008573ffffffffffffffffffffffffffffffffffffffff1673ffffffffffffffffffffffffffffffffffffffff1681526020019081526020016000206000018190555050505050565b60006007600084815260200190815260200160002060008373ffffffffffffffffffffffffffffffffffffffff1673ffffffffffffffffffffffffffffffffffffffff16815260200190815260200160002060010160019054906101000a900473ffffffffffffffffffffffffffffffffffffffff16905092915050565b600360009054906101000a900473ffffffffffffffffffffffffffffffffffffffff1681565b6040518060400160405280600781526020017f43726f6e4a6f62000000000000000000000000000000000000000000000000008152506119bc81613ad0565b600660009054906101000a900473ffffffffffffffffffffffffffffffffffffffff1673ffffffffffffffffffffffffffffffffffffffff16639b42e5476040518163ffffffff1660e01b8152600401600060405180830381600087803b158015611a2657600080fd5b505af1158015611a3a573d6000803e3d6000fd5b50505050600560009054906101000a900473ffffffffffffffffffffffffffffffffffffffff1673ffffffffffffffffffffffffffffffffffffffff1663d65ab5f26040518163ffffffff1660e01b8152600401600060405180830381600087803b158015611aa857600080fd5b505af1158015611abc573d6000803e3d6000fd5b5050505050565b600060086000838152602001908152602001600020600201549050919050565b600080600260009054906101000a900473ffffffffffffffffffffffffffffffffffffffff1673ffffffffffffffffffffffffffffffffffffffff16631697e4b66040518163ffffffff1660e01b815260040160206040518083038186803b158015611b4e57600080fd5b505afa158015611b62573d6000803e3d6000fd5b505050506040513d6020811015611b7857600080fd5b8101908080519060200190929190505050905042611b9f8285613d6b90919063ffffffff16565b11611cda57600080600360009054906101000a900473ffffffffffffffffffffffffffffffffffffffff1673ffffffffffffffffffffffffffffffffffffffff1663589ac6a4876040518263ffffffff1660e01b8152600401808281526020019150506101006040518083038186803b158015611c1b57600080fd5b505afa158015611c2f573d6000803e3d6000fd5b505050506040513d601f19601f82011682018060405250610100811015611c5557600080fd5b81019080805190602001909291908051906020019092919080519060200190929190805190602001909291909190826040018051906020019092919080519060200190929190505050505050935093505050611cbb600a83613d8290919063ffffffff16565b811015611cce5760019350505050611cdc565b60009350505050611cdc565b505b92915050565b600060086000838152602001908152602001600020600501549050919050565b6000806000600360009054906101000a900473ffffffffffffffffffffffffffffffffffffffff1673ffffffffffffffffffffffffffffffffffffffff166315a40f49866040518263ffffffff1660e01b81526004018082815260200191505060806040518083038186803b158015611d7a57600080fd5b505afa158015611d8e573d6000803e3d6000fd5b505050506040513d6080811015611da457600080fd5b81019080805190602001909291908051906020019092919080519060200190929190805190602001909291905050505050915091508373ffffffffffffffffffffffffffffffffffffffff168273ffffffffffffffffffffffffffffffffffffffff161415611e17578092505050611e1d565b81925050505b92915050565b6040518060400160405280600c81526020017f47616d654372656174696f6e0000000000000000000000000000000000000000815250611e6281613ad0565b611e6b82613db9565b5050565b600060086000838152602001908152602001600020600301549050919050565b6040518060400160405280600a81526020017f474d536574746572444200000000000000000000000000000000000000000000815250611ece81613ad0565b816007600086815260200190815260200160002060008573ffffffffffffffffffffffffffffffffffffffff1673ffffffffffffffffffffffffffffffffffffffff16815260200190815260200160002060020160006101000a81548173ffffffffffffffffffffffffffffffffffffffff021916908373ffffffffffffffffffffffffffffffffffffffff16021790555050505050565b6040518060400160405280600b81526020017f47616d654d616e61676572000000000000000000000000000000000000000000815250611fa581613ad0565b6000600260009054906101000a900473ffffffffffffffffffffffffffffffffffffffff1673ffffffffffffffffffffffffffffffffffffffff16637a10546d6040518163ffffffff1660e01b815260040160206040518083038186803b15801561200f57600080fd5b505afa158015612023573d6000803e3d6000fd5b505050506040513d602081101561203957600080fd5b81019080805190602001909291905050509050600080600360009054906101000a900473ffffffffffffffffffffffffffffffffffffffff1673ffffffffffffffffffffffffffffffffffffffff1663525a8e4e866040518263ffffffff1660e01b815260040180828152602001915050604080518083038186803b1580156120c157600080fd5b505afa1580156120d5573d6000803e3d6000fd5b505050506040513d60408110156120eb57600080fd5b81019080805190602001909291908051906020019092919050505091509150612115838383612fd0565b600860008781526020019081526020016000206002018190555061213761432c565b5050505050565b60006007600084815260200190815260200160002060008373ffffffffffffffffffffffffffffffffffffffff1673ffffffffffffffffffffffffffffffffffffffff16815260200190815260200160002060020160009054906101000a900473ffffffffffffffffffffffffffffffffffffffff16905092915050565b6121c4614cb4565b60086000838152602001908152602001600020600901600580602002604051908101604052809291908260058015612211576020028201915b8154815260200190600101908083116121fd575b50505050509050919050565b60006007600084815260200190815260200160002060008373ffffffffffffffffffffffffffffffffffffffff1673ffffffffffffffffffffffffffffffffffffffff16815260200190815260200160002060000154905092915050565b6000600260009054906101000a900473ffffffffffffffffffffffffffffffffffffffff1673ffffffffffffffffffffffffffffffffffffffff16639c04b9cd6040518163ffffffff1660e01b815260040160206040518083038186803b1580156122e557600080fd5b505afa1580156122f9573d6000803e3d6000fd5b505050506040513d602081101561230f57600080fd5b81019080805190602001909291905050509050600080600360009054906101000a900473ffffffffffffffffffffffffffffffffffffffff1673ffffffffffffffffffffffffffffffffffffffff1663bd4f6d1e856040518263ffffffff1660e01b815260040180828152602001915050604080518083038186803b15801561239757600080fd5b505afa1580156123ab573d6000803e3d6000fd5b505050506040513d60408110156123c157600080fd5b810190808051906020019092919080519060200190929190505050915091506123eb838383612fd0565b600860008681526020019081526020016000206001018190555050505050565b6000809054906101000a900473ffffffffffffffffffffffffffffffffffffffff1673ffffffffffffffffffffffffffffffffffffffff163373ffffffffffffffffffffffffffffffffffffffff161461246157fe5b600160009054906101000a900473ffffffffffffffffffffffffffffffffffffffff1673ffffffffffffffffffffffffffffffffffffffff1663358177736040518060400160405280600d81526020017f47616d65566172416e64466565000000000000000000000000000000000000008152506040518263ffffffff1660e01b81526004018080602001828103825283818151815260200191508051906020019080838360005b83811015612524578082015181840152602081019050612509565b50505050905090810190601f1680156125515780820380516001836020036101000a031916815260200191505b509250505060206040518083038186803b15801561256e57600080fd5b505afa158015612582573d6000803e3d6000fd5b505050506040513d602081101561259857600080fd5b8101908080519060200190929190505050600260006101000a81548173ffffffffffffffffffffffffffffffffffffffff021916908373ffffffffffffffffffffffffffffffffffffffff160217905550600160009054906101000a900473ffffffffffffffffffffffffffffffffffffffff1673ffffffffffffffffffffffffffffffffffffffff1663358177736040518060400160405280600a81526020017f474d4765747465724442000000000000000000000000000000000000000000008152506040518263ffffffff1660e01b81526004018080602001828103825283818151815260200191508051906020019080838360005b838110156126ac578082015181840152602081019050612691565b50505050905090810190601f1680156126d95780820380516001836020036101000a031916815260200191505b509250505060206040518083038186803b1580156126f657600080fd5b505afa15801561270a573d6000803e3d6000fd5b505050506040513d602081101561272057600080fd5b8101908080519060200190929190505050600360006101000a81548173ffffffffffffffffffffffffffffffffffffffff021916908373ffffffffffffffffffffffffffffffffffffffff160217905550600160009054906101000a900473ffffffffffffffffffffffffffffffffffffffff1673ffffffffffffffffffffffffffffffffffffffff1663358177736040518060400160405280600b81526020017f486974735265736f6c76650000000000000000000000000000000000000000008152506040518263ffffffff1660e01b81526004018080602001828103825283818151815260200191508051906020019080838360005b83811015612834578082015181840152602081019050612819565b50505050905090810190601f1680156128615780820380516001836020036101000a031916815260200191505b509250505060206040518083038186803b15801561287e57600080fd5b505afa158015612892573d6000803e3d6000fd5b505050506040513d60208110156128a857600080fd5b8101908080519060200190929190505050600460006101000a81548173ffffffffffffffffffffffffffffffffffffffff021916908373ffffffffffffffffffffffffffffffffffffffff160217905550600160009054906101000a900473ffffffffffffffffffffffffffffffffffffffff1673ffffffffffffffffffffffffffffffffffffffff1663358177736040518060400160405280600981526020017f5363686564756c657200000000000000000000000000000000000000000000008152506040518263ffffffff1660e01b81526004018080602001828103825283818151815260200191508051906020019080838360005b838110156129bc5780820151818401526020810190506129a1565b50505050905090810190601f1680156129e95780820380516001836020036101000a031916815260200191505b509250505060206040518083038186803b158015612a0657600080fd5b505afa158015612a1a573d6000803e3d6000fd5b505050506040513d6020811015612a3057600080fd5b8101908080519060200190929190505050600560006101000a81548173ffffffffffffffffffffffffffffffffffffffff021916908373ffffffffffffffffffffffffffffffffffffffff160217905550600160009054906101000a900473ffffffffffffffffffffffffffffffffffffffff1673ffffffffffffffffffffffffffffffffffffffff1663358177736040518060400160405280600981526020017f54696d654672616d6500000000000000000000000000000000000000000000008152506040518263ffffffff1660e01b81526004018080602001828103825283818151815260200191508051906020019080838360005b83811015612b44578082015181840152602081019050612b29565b50505050905090810190601f168015612b715780820380516001836020036101000a031916815260200191505b509250505060206040518083038186803b158015612b8e57600080fd5b505afa158015612ba2573d6000803e3d6000fd5b505050506040513d6020811015612bb857600080fd5b8101908080519060200190929190505050600660006101000a81548173ffffffffffffffffffffffffffffffffffffffff021916908373ffffffffffffffffffffffffffffffffffffffff160217905550565b600460009054906101000a900473ffffffffffffffffffffffffffffffffffffffff1681565b600660009054906101000a900473ffffffffffffffffffffffffffffffffffffffff1681565b6000809054906101000a900473ffffffffffffffffffffffffffffffffffffffff1681565b6000809054906101000a900473ffffffffffffffffffffffffffffffffffffffff1673ffffffffffffffffffffffffffffffffffffffff163373ffffffffffffffffffffffffffffffffffffffff1614612cd257fe5b80600160006101000a81548173ffffffffffffffffffffffffffffffffffffffff021916908373ffffffffffffffffffffffffffffffffffffffff16021790555050565b600073ffffffffffffffffffffffffffffffffffffffff163373ffffffffffffffffffffffffffffffffffffffff161415612d4d57fe5b612d8b6040518060400160405280600b81526020017f73757065725f61646d696e00000000000000000000000000000000000000000081525061494e565b612dfd576040517f08c379a00000000000000000000000000000000000000000000000000000000081526004018080602001828103825260108152602001807f4f6e6c792073757065722061646d696e0000000000000000000000000000000081525060200191505060405180910390fd5b612e0681613db9565b50565b600260009054906101000a900473ffffffffffffffffffffffffffffffffffffffff1681565b600060086000838152602001908152602001600020600101549050919050565b6007602052816000526040600020602052806000526040600020600091509150508060000154908060010160009054906101000a900460ff16908060010160019054906101000a900473ffffffffffffffffffffffffffffffffffffffff16908060020160009054906101000a900473ffffffffffffffffffffffffffffffffffffffff16905084565b600060086000838152602001908152602001600020600601549050919050565b6040518060400160405280600a81526020017f474d536574746572444200000000000000000000000000000000000000000000815250612f3881613ad0565b816007600086815260200190815260200160002060008573ffffffffffffffffffffffffffffffffffffffff1673ffffffffffffffffffffffffffffffffffffffff16815260200190815260200160002060010160016101000a81548173ffffffffffffffffffffffffffffffffffffffff021916908373ffffffffffffffffffffffffffffffffffffffff16021790555050505050565b60008084118015612fe15750600083115b8015612fed5750600082115b61305f576040517f08c379a00000000000000000000000000000000000000000000000000000000081526004018080602001828103825260098152602001807f44657374726f796564000000000000000000000000000000000000000000000081525060200191505060405180910390fd5b6000600260009054906101000a900473ffffffffffffffffffffffffffffffffffffffff1673ffffffffffffffffffffffffffffffffffffffff1663a0a8045e6040518163ffffffff1660e01b815260040160206040518083038186803b1580156130c957600080fd5b505afa1580156130dd573d6000803e3d6000fd5b505050506040513d60208110156130f357600080fd5b810190808051906020019092919050505090506000600260009054906101000a900473ffffffffffffffffffffffffffffffffffffffff1673ffffffffffffffffffffffffffffffffffffffff1663271bf40f6040518163ffffffff1660e01b815260040160206040518083038186803b15801561317057600080fd5b505afa158015613184573d6000803e3d6000fd5b505050506040513d602081101561319a57600080fd5b8101908080519060200190929190505050905061321d620f424061320f6131ca8988613d8290919063ffffffff16565b613201856131f38c6131e58a8e613d8290919063ffffffff16565b613d8290919063ffffffff16565b614bca90919063ffffffff16565b614be390919063ffffffff16565b614bca90919063ffffffff16565b925050509392505050565b6000806000806040518060400160405280600b81526020017f47616d654d616e6167657200000000000000000000000000000000000000000081525061326d81613ad0565b600460009054906101000a900473ffffffffffffffffffffffffffffffffffffffff1673ffffffffffffffffffffffffffffffffffffffff1663c0eef7188a8a896040518463ffffffff1660e01b8152600401808481526020018373ffffffffffffffffffffffffffffffffffffffff1673ffffffffffffffffffffffffffffffffffffffff168152602001828152602001935050505060206040518083038186803b15801561331c57600080fd5b505afa158015613330573d6000803e3d6000fd5b505050506040513d602081101561334657600080fd5b81019080805190602001909291905050509250600460009054906101000a900473ffffffffffffffffffffffffffffffffffffffff1673ffffffffffffffffffffffffffffffffffffffff1663c0eef7188a89896040518463ffffffff1660e01b8152600401808481526020018373ffffffffffffffffffffffffffffffffffffffff1673ffffffffffffffffffffffffffffffffffffffff168152602001828152602001935050505060206040518083038186803b15801561340857600080fd5b505afa15801561341c573d6000803e3d6000fd5b505050506040513d602081101561343257600080fd5b8101908080519060200190929190505050915061353983600360009054906101000a900473ffffffffffffffffffffffffffffffffffffffff1673ffffffffffffffffffffffffffffffffffffffff1663bacf524e8c8c6040518363ffffffff1660e01b8152600401808381526020018273ffffffffffffffffffffffffffffffffffffffff1673ffffffffffffffffffffffffffffffffffffffff1681526020019250505060206040518083038186803b1580156134f057600080fd5b505afa158015613504573d6000803e3d6000fd5b505050506040513d602081101561351a57600080fd5b8101908080519060200190929190505050613d8290919063ffffffff16565b925061362f82600360009054906101000a900473ffffffffffffffffffffffffffffffffffffffff1673ffffffffffffffffffffffffffffffffffffffff1663bacf524e8c8b6040518363ffffffff1660e01b8152600401808381526020018273ffffffffffffffffffffffffffffffffffffffff1673ffffffffffffffffffffffffffffffffffffffff1681526020019250505060206040518083038186803b1580156135e657600080fd5b505afa1580156135fa573d6000803e3d6000fd5b505050506040513d602081101561361057600080fd5b8101908080519060200190929190505050613d8290919063ffffffff16565b9150818311156136445787945086935061379d565b828211156136575786945087935061379c565b61365f614cd6565b600360009054906101000a900473ffffffffffffffffffffffffffffffffffffffff1673ffffffffffffffffffffffffffffffffffffffff1663589ac6a48b6040518263ffffffff1660e01b8152600401808281526020019150506101006040518083038186803b1580156136d357600080fd5b505afa1580156136e7573d6000803e3d6000fd5b505050506040513d601f19601f8201168201806040525061010081101561370d57600080fd5b8101908080519060200190929190805190602001909291908051906020019092919080519060200190929190919082604001805190602001909291908051906020019092919050505050509450505050508060016002811061376b57fe5b60200201518160006002811061377d57fe5b602002015111156137935788955087945061379a565b8795508894505b505b5b50945094509450949050565b600560009054906101000a900473ffffffffffffffffffffffffffffffffffffffff1681565b60006007600084815260200190815260200160002060008373ffffffffffffffffffffffffffffffffffffffff1673ffffffffffffffffffffffffffffffffffffffff16815260200190815260200160002060010160009054906101000a900460ff16905092915050565b600160009054906101000a900473ffffffffffffffffffffffffffffffffffffffff1681565b6000809054906101000a900473ffffffffffffffffffffffffffffffffffffffff1673ffffffffffffffffffffffffffffffffffffffff163373ffffffffffffffffffffffffffffffffffffffff16146138b657fe5b600073ffffffffffffffffffffffffffffffffffffffff168173ffffffffffffffffffffffffffffffffffffffff161461392b57806000806101000a81548173ffffffffffffffffffffffffffffffffffffffff021916908373ffffffffffffffffffffffffffffffffffffffff1602179055505b50565b600060086000838152602001908152602001600020600801549050919050565b600060086000838152602001908152602001600020600001549050919050565b6000806000600360009054906101000a900473ffffffffffffffffffffffffffffffffffffffff1673ffffffffffffffffffffffffffffffffffffffff166315a40f49866040518263ffffffff1660e01b81526004018082815260200191505060806040518083038186803b1580156139e657600080fd5b505afa1580156139fa573d6000803e3d6000fd5b505050506040513d6080811015613a1057600080fd5b81019080805190602001909291908051906020019092919080519060200190929190805190602001909291905050505050915091508373ffffffffffffffffffffffffffffffffffffffff168273ffffffffffffffffffffffffffffffffffffffff161415613a8457600092505050613aca565b8373ffffffffffffffffffffffffffffffffffffffff168173ffffffffffffffffffffffffffffffffffffffff161415613ac357600192505050613aca565b6002925050505b92915050565b600073ffffffffffffffffffffffffffffffffffffffff16600160009054906101000a900473ffffffffffffffffffffffffffffffffffffffff1673ffffffffffffffffffffffffffffffffffffffff161415613b95576040517f08c379a00000000000000000000000000000000000000000000000000000000081526004018080602001828103825260088152602001807f4e6f2050726f787900000000000000000000000000000000000000000000000081525060200191505060405180910390fd5b6000600160009054906101000a900473ffffffffffffffffffffffffffffffffffffffff1673ffffffffffffffffffffffffffffffffffffffff166335817773836040518263ffffffff1660e01b81526004018080602001828103825283818151815260200191508051906020019080838360005b83811015613c25578082015181840152602081019050613c0a565b50505050905090810190601f168015613c525780820380516001836020036101000a031916815260200191505b509250505060206040518083038186803b158015613c6f57600080fd5b505afa158015613c83573d6000803e3d6000fd5b505050506040513d6020811015613c9957600080fd5b81019080805190602001909291905050509050600073ffffffffffffffffffffffffffffffffffffffff168173ffffffffffffffffffffffffffffffffffffffff161415613ce357fe5b8073ffffffffffffffffffffffffffffffffffffffff163373ffffffffffffffffffffffffffffffffffffffff1614613d67576040517f08c379a000000000000000000000000000000000000000000000000000000000815260040180806020018281038252602d815260200180614dd9602d913960400191505060405180910390fd5b5050565b600082821115613d7757fe5b818303905092915050565b600080831415613d955760009050613db3565b6000828402905082848281613da657fe5b0414613dae57fe5b809150505b92915050565b613dc1614cf8565b600081600001818152505060008160200181815250506000816040018181525050600260009054906101000a900473ffffffffffffffffffffffffffffffffffffffff1673ffffffffffffffffffffffffffffffffffffffff16639840060f6040518163ffffffff1660e01b815260040160206040518083038186803b158015613e4a57600080fd5b505afa158015613e5e573d6000803e3d6000fd5b505050506040513d6020811015613e7457600080fd5b8101908080519060200190929190505050816060018181525050600260009054906101000a900473ffffffffffffffffffffffffffffffffffffffff1673ffffffffffffffffffffffffffffffffffffffff166333dbee176040518163ffffffff1660e01b815260040160206040518083038186803b158015613ef657600080fd5b505afa158015613f0a573d6000803e3d6000fd5b505050506040513d6020811015613f2057600080fd5b8101908080519060200190929190505050816080018181525050600260009054906101000a900473ffffffffffffffffffffffffffffffffffffffff1673ffffffffffffffffffffffffffffffffffffffff166368afa5416040518163ffffffff1660e01b815260040160206040518083038186803b158015613fa257600080fd5b505afa158015613fb6573d6000803e3d6000fd5b505050506040513d6020811015613fcc57600080fd5b81019080805190602001909291905050508160a0018181525050600260009054906101000a900473ffffffffffffffffffffffffffffffffffffffff1673ffffffffffffffffffffffffffffffffffffffff16633e4c883f6040518163ffffffff1660e01b815260040160a06040518083038186803b15801561404e57600080fd5b505afa158015614062573d6000803e3d6000fd5b505050506040513d601f19601f8201168201806040525060a081101561408757600080fd5b8101908091905050816101200181905250600260009054906101000a900473ffffffffffffffffffffffffffffffffffffffff1673ffffffffffffffffffffffffffffffffffffffff1663d693a9896040518163ffffffff1660e01b815260040160206040518083038186803b15801561410057600080fd5b505afa158015614114573d6000803e3d6000fd5b505050506040513d602081101561412a57600080fd5b81019080805190602001909291905050508160c0018181525050600260009054906101000a900473ffffffffffffffffffffffffffffffffffffffff1673ffffffffffffffffffffffffffffffffffffffff1663ae1d48a86040518163ffffffff1660e01b815260040160206040518083038186803b1580156141ac57600080fd5b505afa1580156141c0573d6000803e3d6000fd5b505050506040513d60208110156141d657600080fd5b81019080805190602001909291905050508160e0018181525050600260009054906101000a900473ffffffffffffffffffffffffffffffffffffffff1673ffffffffffffffffffffffffffffffffffffffff16631697e4b66040518163ffffffff1660e01b815260040160206040518083038186803b15801561425857600080fd5b505afa15801561426c573d6000803e3d6000fd5b505050506040513d602081101561428257600080fd5b8101908080519060200190929190505050816101000181815250508060086000848152602001908152602001600020600082015181600001556020820151816001015560408201518160020155606082015181600301556080820151816004015560a0820151816005015560c0820151816006015560e08201518160070155610100820151816008015561012082015181600901906005614324929190614d51565b509050505050565b6000600660009054906101000a900473ffffffffffffffffffffffffffffffffffffffff1673ffffffffffffffffffffffffffffffffffffffff166386879db36040518163ffffffff1660e01b815260040160206040518083038186803b15801561439657600080fd5b505afa1580156143aa573d6000803e3d6000fd5b505050506040513d60208110156143c057600080fd5b810190808051906020019092919050505090506000600660009054906101000a900473ffffffffffffffffffffffffffffffffffffffff1673ffffffffffffffffffffffffffffffffffffffff16632ca12ad0836040518263ffffffff1660e01b81526004018082815260200191505060206040518083038186803b15801561444857600080fd5b505afa15801561445c573d6000803e3d6000fd5b505050506040513d602081101561447257600080fd5b8101908080519060200190929190505050905061453a42600260009054906101000a900473ffffffffffffffffffffffffffffffffffffffff1673ffffffffffffffffffffffffffffffffffffffff1663a38bcf206040518163ffffffff1660e01b815260040160206040518083038186803b1580156144f157600080fd5b505afa158015614505573d6000803e3d6000fd5b505050506040513d602081101561451b57600080fd5b8101908080519060200190929190505050614be390919063ffffffff16565b6145506201a5e083613d6b90919063ffffffff16565b116148c7576000600160009054906101000a900473ffffffffffffffffffffffffffffffffffffffff1673ffffffffffffffffffffffffffffffffffffffff1663358177736040518060400160405280600781526020017f43726f6e4a6f62000000000000000000000000000000000000000000000000008152506040518263ffffffff1660e01b81526004018080602001828103825283818151815260200191508051906020019080838360005b8381101561461a5780820151818401526020810190506145ff565b50505050905090810190601f1680156146475780820380516001836020036101000a031916815260200191505b509250505060206040518083038186803b15801561466457600080fd5b505afa158015614678573d6000803e3d6000fd5b505050506040513d602081101561468e57600080fd5b810190808051906020019092919050505090508073ffffffffffffffffffffffffffffffffffffffff1663c19304966040518060400160405280600981526020017f47616d6553746f72650000000000000000000000000000000000000000000000815250846040516024016040516020818303038152906040527f228d8dcb000000000000000000000000000000000000000000000000000000007bffffffffffffffffffffffffffffffffffffffffffffffffffffffff19166020820180517bffffffffffffffffffffffffffffffffffffffffffffffffffffffff83818316178352505050506040518463ffffffff1660e01b8152600401808060200184815260200180602001838103835286818151815260200191508051906020019080838360005b838110156147d05780820151818401526020810190506147b5565b50505050905090810190601f1680156147fd5780820380516001836020036101000a031916815260200191505b50838103825284818151815260200191508051906020019080838360005b8381101561483657808201518184015260208101905061481b565b50505050905090810190601f1680156148635780820380516001836020036101000a031916815260200191505b5095505050505050602060405180830381600087803b15801561488557600080fd5b505af1158015614899573d6000803e3d6000fd5b505050506040513d60208110156148af57600080fd5b8101908080519060200190929190505050505061494a565b600560009054906101000a900473ffffffffffffffffffffffffffffffffffffffff1673ffffffffffffffffffffffffffffffffffffffff1663d65ab5f26040518163ffffffff1660e01b8152600401600060405180830381600087803b15801561493157600080fd5b505af1158015614945573d6000803e3d6000fd5b505050505b5050565b6000600160009054906101000a900473ffffffffffffffffffffffffffffffffffffffff1673ffffffffffffffffffffffffffffffffffffffff1663358177736040518060400160405280600681526020017f526f6c65444200000000000000000000000000000000000000000000000000008152506040518263ffffffff1660e01b81526004018080602001828103825283818151815260200191508051906020019080838360005b83811015614a135780820151818401526020810190506149f8565b50505050905090810190601f168015614a405780820380516001836020036101000a031916815260200191505b509250505060206040518083038186803b158015614a5d57600080fd5b505afa158015614a71573d6000803e3d6000fd5b505050506040513d6020811015614a8757600080fd5b810190808051906020019092919050505073ffffffffffffffffffffffffffffffffffffffff16636c9cd09783614abc614bff565b6040518363ffffffff1660e01b815260040180806020018373ffffffffffffffffffffffffffffffffffffffff1673ffffffffffffffffffffffffffffffffffffffff168152602001828103825284818151815260200191508051906020019080838360005b83811015614b3d578082015181840152602081019050614b22565b50505050905090810190601f168015614b6a5780820380516001836020036101000a031916815260200191505b50935050505060206040518083038186803b158015614b8857600080fd5b505afa158015614b9c573d6000803e3d6000fd5b505050506040513d6020811015614bb257600080fd5b81019080805190602001909291905050509050919050565b600080828481614bd657fe5b0490508091505092915050565b600080828401905083811015614bf557fe5b8091505092915050565b6000600160009054906101000a900473ffffffffffffffffffffffffffffffffffffffff1673ffffffffffffffffffffffffffffffffffffffff163373ffffffffffffffffffffffffffffffffffffffff1614614c5e57339050614cb1565b6000601436036000602052601481602c37602051915050600073ffffffffffffffffffffffffffffffffffffffff168173ffffffffffffffffffffffffffffffffffffffff161415614cac57fe5b809150505b90565b6040518060a00160405280600590602082028038833980820191505090505090565b6040518060400160405280600290602082028038833980820191505090505090565b604051806101400160405280600081526020016000815260200160008152602001600081526020016000815260200160008152602001600081526020016000815260200160008152602001614d4b614d91565b81525090565b8260058101928215614d80579160200282015b82811115614d7f578251825591602001919060010190614d64565b5b509050614d8d9190614db3565b5090565b6040518060a00160405280600590602082028038833980820191505090505090565b614dd591905b80821115614dd1576000816000905550600101614db9565b5090565b9056fe416363657373206973206f6e6c7920616c6c6f7765642066726f6d20737065636966696320636f6e7472616374a265627a7a723158205a2d0c7331441ad66105b6456cd7e881b1d8381d9c676b6308a23700651142d764736f6c63430005110032",
  "source": "pragma solidity ^0.5.5;\r\n\r\nimport '../proxy/Proxied.sol';\r\nimport \"../../GameVarAndFee.sol\";\r\nimport \"../databases/GMGetterDB.sol\";\r\nimport \"../../libs/SafeMath.sol\";\r\nimport \"../algorithm/HitsResolveAlgo.sol\";\r\nimport '../../authority/Guard.sol';\r\nimport \"../datetime/TimeFrame.sol\";\r\nimport \"../gamemanager/Scheduler.sol\";\r\nimport \"../../CronJob.sol\";\r\n\r\ncontract GameStore is Proxied, Guard {\r\n\r\n    using SafeMath for uint256;\r\n\r\n    GameVarAndFee public gameVarAndFee;\r\n    GMGetterDB public gmGetterDB;\r\n    HitsResolve public hitsResolve;\r\n    Scheduler public scheduler;\r\n    TimeFrame public timeFrame;\r\n\r\n    struct Game {\r\n        uint randomNum; //when pressing start\r\n        bool pressedStart;\r\n        address topBettor;\r\n        address secondTopBettor;\r\n    }\r\n\r\n    struct GlobalSettings {\r\n        uint bettingFee;\r\n        uint ticketFee;\r\n        uint redemptionFee;\r\n        uint kittieHellExpirationTime;\r\n        uint honeypotExpirationTime;\r\n        uint minimumContributors;\r\n        uint finalizeRewards;\r\n        uint timeExtension;\r\n        uint performanceTime;\r\n        uint[5] distributionRates;\r\n    }\r\n\r\n    //Players info in a game\r\n    mapping(uint => mapping(address => Game)) public gameByPlayer;\r\n    mapping(uint => GlobalSettings) public gameSettings;\r\n\r\n    function initialize() external onlyOwner {\r\n        gameVarAndFee = GameVarAndFee(proxy.getContract(CONTRACT_NAME_GAMEVARANDFEE));\r\n        gmGetterDB = GMGetterDB(proxy.getContract(CONTRACT_NAME_GM_GETTER_DB));\r\n        hitsResolve = HitsResolve(proxy.getContract(CONTRACT_NAME_HITSRESOLVE));\r\n        scheduler = Scheduler(proxy.getContract(CONTRACT_NAME_SCHEDULER));\r\n        timeFrame = TimeFrame(proxy.getContract(CONTRACT_NAME_TIMEFRAME));\r\n    }\r\n\r\n    function lock(uint gameId) internal{\r\n        GlobalSettings memory globalSettings;\r\n\r\n        globalSettings.bettingFee = 0;\r\n        globalSettings.ticketFee = 0;\r\n        globalSettings.redemptionFee = 0;\r\n        globalSettings.kittieHellExpirationTime = gameVarAndFee.getKittieExpiry();\r\n        globalSettings.honeypotExpirationTime = gameVarAndFee.getHoneypotExpiration();\r\n        globalSettings.minimumContributors = gameVarAndFee.getMinimumContributors();\r\n        globalSettings.distributionRates = gameVarAndFee.getDistributionRates();\r\n        globalSettings.finalizeRewards = gameVarAndFee.getFinalizeRewards();\r\n        globalSettings.timeExtension = gameVarAndFee.getTimeExtension();\r\n        globalSettings.performanceTime = gameVarAndFee.getPerformanceTimeCheck();\r\n\r\n        gameSettings[gameId] = globalSettings;\r\n    }\r\n\r\n    function lockVars(uint gameId) external onlyContract(CONTRACT_NAME_GAMECREATION){\r\n        lock(gameId);\r\n    }\r\n\r\n    function lockVarsAdmin(uint gameId) external onlySuperAdmin{\r\n        lock(gameId);\r\n    }\r\n\r\n    function getDistributionRates(uint gameId) public view returns(uint[5] memory){\r\n        return gameSettings[gameId].distributionRates;\r\n    }\r\n\r\n    function calculateDynamicFee\r\n    (\r\n        uint256 percentageHoneyPot,\r\n        uint256 _eth_amount,\r\n        uint256 _kty_amount\r\n    )\r\n        public view returns(uint256)\r\n    {\r\n        require(percentageHoneyPot > 0 && _eth_amount > 0 && _kty_amount > 0, \"Destroyed\");\r\n\r\n        uint256 ethUsdPrice = gameVarAndFee.getEthUsdPrice();\r\n        uint256 usdKTYPrice = gameVarAndFee.getUsdKTYPrice();\r\n\r\n        // 1,000,000 is the base used for percentage setting in kittieFight\r\n        // for example, if percentageHoneyPot is 0.03% in real world, inside this function\r\n        // percentageHoneyPot = 0.03% * 1,000,1000 which is 300, thus for the need of div(1000000)\r\n        return ((_eth_amount.mul(ethUsdPrice).mul(percentageHoneyPot).div(usdKTYPrice)).add((_kty_amount.mul(percentageHoneyPot)))).div(1000000);\r\n    }\r\n\r\n    function updateKittieRedemptionFee(uint256 gameId)\r\n        public\r\n        onlyContract(CONTRACT_NAME_GAMEMANAGER)\r\n    {\r\n        uint256 percentageHoneyPot = gameVarAndFee.getPercentageForKittieRedemptionFee();\r\n        (uint256 totalEthFunds, uint256 totalKTYFunds) = gmGetterDB.getFinalHoneypot(gameId);\r\n\r\n        gameSettings[gameId].redemptionFee = calculateDynamicFee(percentageHoneyPot, totalEthFunds, totalKTYFunds);        \r\n\r\n        startGameAndCalculateEpoch();\r\n    }\r\n\r\n    function updateTicketFee(uint256 gameId)\r\n        public\r\n    {\r\n        uint256 percentageHoneyPot = gameVarAndFee.getPercentageForTicketFee();\r\n        (uint256 initialHoneypotEth, uint256 initialHoneypotKTY) = gmGetterDB.getInitialHoneypot(gameId);\r\n        gameSettings[gameId].ticketFee = calculateDynamicFee(percentageHoneyPot, initialHoneypotEth, initialHoneypotKTY);\r\n    }\r\n\r\n    function updateBettingFee(uint256 gameId)\r\n        public\r\n    {\r\n        uint256 percentageHoneyPot = gameVarAndFee.getPercentageForBettingFee();\r\n        (uint256 initialHoneypotEth, uint256 initialHoneypotKTY) = gmGetterDB.getInitialHoneypot(gameId);\r\n        gameSettings[gameId].bettingFee = calculateDynamicFee(percentageHoneyPot, initialHoneypotEth, initialHoneypotKTY);\r\n    }\r\n\r\n    function getKittieExpirationTime(uint gameId) public view returns(uint){\r\n        return  gameSettings[gameId].kittieHellExpirationTime;\r\n    }\r\n\r\n    function getKittieRedemptionFee(uint gameId) public view returns(uint){\r\n        return  gameSettings[gameId].redemptionFee;\r\n    }\r\n    \r\n    function getHoneypotExpiration(uint gameId) public view returns(uint){\r\n        return  gameSettings[gameId].honeypotExpirationTime;\r\n    }\r\n\r\n    function start(uint gameId, address player, uint randomNum) external onlyContract(CONTRACT_NAME_GAMEMANAGER){\r\n        gameByPlayer[gameId][player].pressedStart = true;\r\n        gameByPlayer[gameId][player].randomNum = randomNum;\r\n    }\r\n\r\n    function didHitStart(uint gameId, address player) public view returns(bool){\r\n        return gameByPlayer[gameId][player].pressedStart;\r\n    }\r\n\r\n    function getRandom(uint gameId, address player) public view returns(uint){\r\n        return gameByPlayer[gameId][player].randomNum;\r\n    }\r\n\r\n    function updateTopBettor(uint gameId, address player, address newTopBettor) external onlyContract(CONTRACT_NAME_GM_SETTER_DB){\r\n        gameByPlayer[gameId][player].topBettor = newTopBettor;\r\n    }\r\n\r\n    function getTopBettor(uint gameId, address player) public view returns(address){\r\n        return gameByPlayer[gameId][player].topBettor;\r\n    }\r\n\r\n    function updateSecondTopBettor(uint gameId, address player, address newSecondTopBettor) external onlyContract(CONTRACT_NAME_GM_SETTER_DB){\r\n        gameByPlayer[gameId][player].secondTopBettor = newSecondTopBettor;\r\n    }\r\n\r\n    function getSecondTopBettor(uint gameId, address player) public view returns(address){\r\n        return gameByPlayer[gameId][player].secondTopBettor;\r\n    }\r\n\r\n    function getTicketFee(uint gameId) public view returns(uint){\r\n        return gameSettings[gameId].ticketFee;\r\n    }\r\n\r\n    function getBettingFee(uint gameId) public view returns(uint){\r\n        return gameSettings[gameId].bettingFee;\r\n    }\r\n\r\n    function getMinimumContributors(uint gameId) public view returns(uint){\r\n        return gameSettings[gameId].minimumContributors;\r\n    }\r\n\r\n    function getFinalizeRewards(uint gameId) public view returns(uint){\r\n        return gameSettings[gameId].finalizeRewards;\r\n    }\r\n\r\n    function getPerformanceTimeCheck(uint gameId) public view returns(uint){\r\n        return gameSettings[gameId].performanceTime;\r\n    }\r\n\r\n    function getTimeExtension(uint gameId) public view returns(uint){\r\n        return gameSettings[gameId].timeExtension;\r\n    }\r\n\r\n    function updateTopbettors(uint256 _gameId, address _account, address _supportedPlayer)\r\n        external\r\n        onlyContract(CONTRACT_NAME_GAMEMANAGER)\r\n        // onlyExistentGame(_gameId)\r\n    {\r\n\r\n        address topBettor = getTopBettor(_gameId, _supportedPlayer);\r\n        (uint256 bettorTotal,,,) = gmGetterDB.getSupporterInfo(_gameId, _account);\r\n        (uint256 topBettorEth,,,) = gmGetterDB.getSupporterInfo(_gameId, topBettor);\r\n        \r\n        if(topBettor != _account){\r\n            if (bettorTotal > topBettorEth){\r\n                //If topBettor is already the account, dont update\r\n                gameByPlayer[_gameId][_supportedPlayer].topBettor = _account;\r\n                gameByPlayer[_gameId][_supportedPlayer].secondTopBettor = topBettor;\r\n            }\r\n            else {\r\n                address secondTopBettor = getSecondTopBettor(_gameId, _supportedPlayer);\r\n                (uint256 secondTopBettorEth,,,) = gmGetterDB.getSupporterInfo(_gameId, secondTopBettor);\r\n                if (bettorTotal > secondTopBettorEth && secondTopBettor != _account){\r\n                    gameByPlayer[_gameId][_supportedPlayer].secondTopBettor = _account;\r\n                }\r\n            }\r\n        }\r\n    }\r\n\r\n    function getOpponent(uint gameId, address player) public view returns(address){\r\n        (address playerBlack, address playerRed,,) = gmGetterDB.getGamePlayers(gameId);\r\n        if(playerBlack == player) return playerRed;\r\n        return playerBlack;\r\n    }\r\n\r\n    function getCorner(uint gameId, address player) public view returns(uint){\r\n        (address playerBlack, address playerRed,,) = gmGetterDB.getGamePlayers(gameId);\r\n        if(playerBlack == player) return 0;\r\n        if(playerRed == player) return 1;\r\n        return 2;\r\n    }\r\n\r\n    function calculateWinner\r\n    (\r\n        uint gameId, address playerBlack, address playerRed, uint random\r\n    )\r\n        external view\r\n        onlyContract(CONTRACT_NAME_GAMEMANAGER)\r\n        returns(address winner, address loser, uint pointsBlack, uint pointsRed)\r\n    {\r\n        pointsBlack = hitsResolve.calculateFinalPoints(gameId, playerBlack, random);\r\n        pointsRed = hitsResolve.calculateFinalPoints(gameId, playerRed, random);\r\n\r\n        //Added to make game more balanced\r\n        pointsBlack = (gmGetterDB.getTotalBet(gameId, playerBlack)).mul(pointsBlack);\r\n        pointsRed = (gmGetterDB.getTotalBet(gameId, playerRed)).mul(pointsRed);\r\n\r\n        if (pointsBlack > pointsRed)\r\n        {\r\n            winner = playerBlack;\r\n            loser = playerRed;\r\n        }\r\n        else if(pointsRed > pointsBlack)\r\n        {\r\n            winner = playerRed;\r\n            loser = playerBlack;\r\n        }\r\n        //If there is a tie in point, define by total eth bet\r\n        else\r\n        {\r\n            (,,,,uint[2] memory ethByCorner,,) = gmGetterDB.getHoneypotInfo(gameId);\r\n            if(ethByCorner[0] > ethByCorner[1] ){\r\n               winner = playerBlack;\r\n                loser = playerRed;\r\n            }\r\n            else{\r\n                winner = playerRed;\r\n                loser = playerBlack;\r\n            }\r\n        }\r\n    }\r\n\r\n    function startGameAndCalculateEpoch()\r\n    internal\r\n    {\r\n        uint256 lastEpochId = timeFrame.getLastEpochID();\r\n        uint256 currentEpochEndTime = timeFrame._epochEndTime(lastEpochId);\r\n        if(currentEpochEndTime.sub(60 * 60 * 30) <= gameVarAndFee.getGameTimes().add(now)) {\r\n            CronJob cron = CronJob(proxy.getContract(CONTRACT_NAME_CRONJOB));\r\n            cron.addCronJob(\r\n                CONTRACT_NAME_GAMESTORE,\r\n                currentEpochEndTime,\r\n                abi.encodeWithSignature(\"createGameAndEpoch()\")\r\n            );\r\n        }\r\n        else\r\n            scheduler.startGame();\r\n    }\r\n\r\n    /**\r\n    * @dev added to cronjob : Creates new Game and New Epoch\r\n    */\r\n    function createGameAndEpoch()\r\n    external\r\n    onlyContract(CONTRACT_NAME_CRONJOB)\r\n    {\r\n        timeFrame.setNewEpoch();\r\n        scheduler.startGame();\r\n    }\r\n\r\n    function checkPerformanceHelper(uint gameId, uint gameEndTime) external view returns(bool){\r\n        //each time 1 minute before game ends\r\n        uint performanceTimeCheck = gameVarAndFee.getPerformanceTimeCheck();\r\n        \r\n        if(gameEndTime.sub(performanceTimeCheck) <= now) {\r\n            //get initial jackpot, need endowment to send this when creating honeypot\r\n            (,,uint initialEth, uint currentJackpotEth,,,) = gmGetterDB.getHoneypotInfo(gameId);\r\n\r\n            if(currentJackpotEth < initialEth.mul(10)) return true;\r\n            return false;\r\n        }\r\n    }\r\n}",
  "sourcePath": "C:\\Users\\Alex\\Desktop\\MyProjects\\alpha\\contracts\\modules\\gamemanager\\GameStore.sol",
  "compiler": {
    "name": "solc",
    "version": "0.5.17+commit.d19bba13.Emscripten.clang"
  },
  "schemaVersion": "3.0.11",
  "updatedAt": "2020-04-12T11:25:28.223Z",
  "devdoc": {
    "methods": {
      "createGameAndEpoch()": {
        "details": "added to cronjob : Creates new Game and New Epoch"
      }
    }
  },
  "userdoc": {
    "methods": {
      "setProxy(address)": {
        "notice": "Set/update address of Proxy contract"
      }
    }
  }
}