{
  "contractName": "GameManager",
  "abi": [
    {
      "anonymous": false,
      "inputs": [
        {
          "indexed": true,
          "internalType": "uint256",
          "name": "gameId",
          "type": "uint256"
        },
        {
          "indexed": true,
          "internalType": "address",
          "name": "winner",
          "type": "address"
        },
        {
          "indexed": true,
          "internalType": "address",
          "name": "loser",
          "type": "address"
        },
        {
          "indexed": false,
          "internalType": "uint256",
          "name": "pointsBlack",
          "type": "uint256"
        },
        {
          "indexed": false,
          "internalType": "uint256",
          "name": "pointsRed",
          "type": "uint256"
        }
      ],
      "name": "GameEnded",
      "type": "event"
    },
    {
      "anonymous": false,
      "inputs": [
        {
          "indexed": true,
          "internalType": "uint256",
          "name": "gameId",
          "type": "uint256"
        },
        {
          "indexed": false,
          "internalType": "uint256",
          "name": "newEndTime",
          "type": "uint256"
        }
      ],
      "name": "GameExtended",
      "type": "event"
    },
    {
      "anonymous": false,
      "inputs": [
        {
          "indexed": true,
          "internalType": "uint256",
          "name": "gameId",
          "type": "uint256"
        },
        {
          "indexed": false,
          "internalType": "enum GameManager.eGameState",
          "name": "old_state",
          "type": "uint8"
        },
        {
          "indexed": false,
          "internalType": "enum GameManager.eGameState",
          "name": "new_state",
          "type": "uint8"
        }
      ],
      "name": "GameStateChanged",
      "type": "event"
    },
    {
      "anonymous": false,
      "inputs": [
        {
          "indexed": true,
          "internalType": "uint256",
          "name": "gameId",
          "type": "uint256"
        },
        {
          "indexed": false,
          "internalType": "address",
          "name": "supporter",
          "type": "address"
        },
        {
          "indexed": true,
          "internalType": "address",
          "name": "playerSupported",
          "type": "address"
        }
      ],
      "name": "NewSupporter",
      "type": "event"
    },
    {
      "anonymous": false,
      "inputs": [
        {
          "indexed": true,
          "internalType": "uint256",
          "name": "gameId",
          "type": "uint256"
        },
        {
          "indexed": false,
          "internalType": "address",
          "name": "player",
          "type": "address"
        }
      ],
      "name": "PressStart",
      "type": "event"
    },
    {
      "constant": true,
      "inputs": [],
      "name": "betting",
      "outputs": [
        {
          "internalType": "contract Betting",
          "name": "",
          "type": "address"
        }
      ],
      "payable": false,
      "stateMutability": "view",
      "type": "function"
    },
    {
      "constant": true,
      "inputs": [],
      "name": "endowmentFund",
      "outputs": [
        {
          "internalType": "contract EndowmentFund",
          "name": "",
          "type": "address"
        }
      ],
      "payable": false,
      "stateMutability": "view",
      "type": "function"
    },
    {
      "constant": true,
      "inputs": [],
      "name": "forfeiter",
      "outputs": [
        {
          "internalType": "contract Forfeiter",
          "name": "",
          "type": "address"
        }
      ],
      "payable": false,
      "stateMutability": "view",
      "type": "function"
    },
    {
      "constant": true,
      "inputs": [],
      "name": "gameCreation",
      "outputs": [
        {
          "internalType": "contract GameCreation",
          "name": "",
          "type": "address"
        }
      ],
      "payable": false,
      "stateMutability": "view",
      "type": "function"
    },
    {
      "constant": true,
      "inputs": [],
      "name": "gameStore",
      "outputs": [
        {
          "internalType": "contract GameStore",
          "name": "",
          "type": "address"
        }
      ],
      "payable": false,
      "stateMutability": "view",
      "type": "function"
    },
    {
      "constant": true,
      "inputs": [],
      "name": "gmGetterDB",
      "outputs": [
        {
          "internalType": "contract GMGetterDB",
          "name": "",
          "type": "address"
        }
      ],
      "payable": false,
      "stateMutability": "view",
      "type": "function"
    },
    {
      "constant": true,
      "inputs": [],
      "name": "gmSetterDB",
      "outputs": [
        {
          "internalType": "contract GMSetterDB",
          "name": "",
          "type": "address"
        }
      ],
      "payable": false,
      "stateMutability": "view",
      "type": "function"
    },
    {
      "constant": true,
      "inputs": [],
      "name": "owner",
      "outputs": [
        {
          "internalType": "address payable",
          "name": "",
          "type": "address"
        }
      ],
      "payable": false,
      "stateMutability": "view",
      "type": "function"
    },
    {
      "constant": true,
      "inputs": [],
      "name": "proxy",
      "outputs": [
        {
          "internalType": "contract ProxyBase",
          "name": "",
          "type": "address"
        }
      ],
      "payable": false,
      "stateMutability": "view",
      "type": "function"
    },
    {
      "constant": false,
      "inputs": [
        {
          "internalType": "contract ProxyBase",
          "name": "_proxy",
          "type": "address"
        }
      ],
      "name": "setProxy",
      "outputs": [],
      "payable": false,
      "stateMutability": "nonpayable",
      "type": "function"
    },
    {
      "constant": false,
      "inputs": [
        {
          "internalType": "address payable",
          "name": "newOwner",
          "type": "address"
        }
      ],
      "name": "transferOwnership",
      "outputs": [],
      "payable": false,
      "stateMutability": "nonpayable",
      "type": "function"
    },
    {
      "constant": false,
      "inputs": [],
      "name": "initialize",
      "outputs": [],
      "payable": false,
      "stateMutability": "nonpayable",
      "type": "function"
    },
    {
      "constant": false,
      "inputs": [
        {
          "internalType": "uint256",
          "name": "gameId",
          "type": "uint256"
        },
        {
          "internalType": "address",
          "name": "playerToSupport",
          "type": "address"
        }
      ],
      "name": "participate",
      "outputs": [],
      "payable": true,
      "stateMutability": "payable",
      "type": "function"
    },
    {
      "constant": false,
      "inputs": [
        {
          "internalType": "uint256",
          "name": "gameId",
          "type": "uint256"
        },
        {
          "internalType": "uint256",
          "name": "randomNum",
          "type": "uint256"
        },
        {
          "internalType": "uint256",
          "name": "genes",
          "type": "uint256"
        }
      ],
      "name": "startGame",
      "outputs": [],
      "payable": false,
      "stateMutability": "nonpayable",
      "type": "function"
    },
    {
      "constant": false,
      "inputs": [
        {
          "internalType": "uint256",
          "name": "gameId",
          "type": "uint256"
        },
        {
          "internalType": "uint256",
          "name": "randomNum",
          "type": "uint256"
        }
      ],
      "name": "bet",
      "outputs": [],
      "payable": true,
      "stateMutability": "payable",
      "type": "function"
    },
    {
      "constant": false,
      "inputs": [
        {
          "internalType": "uint256",
          "name": "gameId",
          "type": "uint256"
        }
      ],
      "name": "gameEndCron",
      "outputs": [],
      "payable": false,
      "stateMutability": "nonpayable",
      "type": "function"
    },
    {
      "constant": false,
      "inputs": [
        {
          "internalType": "uint256",
          "name": "gameId",
          "type": "uint256"
        },
        {
          "internalType": "uint256",
          "name": "randomNum",
          "type": "uint256"
        }
      ],
      "name": "finalize",
      "outputs": [],
      "payable": false,
      "stateMutability": "nonpayable",
      "type": "function"
    },
    {
      "constant": false,
      "inputs": [
        {
          "internalType": "uint256",
          "name": "gameId",
          "type": "uint256"
        }
      ],
      "name": "cancelGame",
      "outputs": [],
      "payable": false,
      "stateMutability": "nonpayable",
      "type": "function"
    }
  ],
  "bytecode": "0x6080604052336000806101000a81548173ffffffffffffffffffffffffffffffffffffffff021916908373ffffffffffffffffffffffffffffffffffffffff160217905550615dd2806100536000396000f3fe6080604052600436106101095760003560e01c80638da5cb5b11610095578063b6013cef11610064578063b6013cef146104e7578063ddda07191461052c578063ec55688914610567578063f26dee8e146105be578063f2fde38b1461061557610109565b80638da5cb5b1461039157806397107d6d146103e8578063a0b06a6914610439578063b1be64691461049057610109565b806339b4b0d6116100dc57806339b4b0d61461025957806369958ab9146102b057806369af70b3146102eb5780636ffcc719146103425780638129fc1c1461037a57610109565b806313b186401461010e57806315a194ec1461015c5780631fc75180146101b35780632c31d0851461020a575b600080fd5b61015a6004803603604081101561012457600080fd5b8101908080359060200190929190803573ffffffffffffffffffffffffffffffffffffffff169060200190929190505050610666565b005b34801561016857600080fd5b50610171611289565b604051808273ffffffffffffffffffffffffffffffffffffffff1673ffffffffffffffffffffffffffffffffffffffff16815260200191505060405180910390f35b3480156101bf57600080fd5b506101c86112af565b604051808273ffffffffffffffffffffffffffffffffffffffff1673ffffffffffffffffffffffffffffffffffffffff16815260200191505060405180910390f35b34801561021657600080fd5b506102576004803603606081101561022d57600080fd5b810190808035906020019092919080359060200190929190803590602001909291905050506112d5565b005b34801561026557600080fd5b5061026e61230c565b604051808273ffffffffffffffffffffffffffffffffffffffff1673ffffffffffffffffffffffffffffffffffffffff16815260200191505060405180910390f35b3480156102bc57600080fd5b506102e9600480360360208110156102d357600080fd5b8101908080359060200190929190505050612332565b005b3480156102f757600080fd5b50610300612728565b604051808273ffffffffffffffffffffffffffffffffffffffff1673ffffffffffffffffffffffffffffffffffffffff16815260200191505060405180910390f35b6103786004803603604081101561035857600080fd5b81019080803590602001909291908035906020019092919050505061274e565b005b34801561038657600080fd5b5061038f6133e9565b005b34801561039d57600080fd5b506103a6613ef9565b604051808273ffffffffffffffffffffffffffffffffffffffff1673ffffffffffffffffffffffffffffffffffffffff16815260200191505060405180910390f35b3480156103f457600080fd5b506104376004803603602081101561040b57600080fd5b81019080803573ffffffffffffffffffffffffffffffffffffffff169060200190929190505050613f1e565b005b34801561044557600080fd5b5061044e613fb8565b604051808273ffffffffffffffffffffffffffffffffffffffff1673ffffffffffffffffffffffffffffffffffffffff16815260200191505060405180910390f35b34801561049c57600080fd5b506104a5613fde565b604051808273ffffffffffffffffffffffffffffffffffffffff1673ffffffffffffffffffffffffffffffffffffffff16815260200191505060405180910390f35b3480156104f357600080fd5b5061052a6004803603604081101561050a57600080fd5b810190808035906020019092919080359060200190929190505050614004565b005b34801561053857600080fd5b506105656004803603602081101561054f57600080fd5b8101908080359060200190929190505050614c59565b005b34801561057357600080fd5b5061057c614cae565b604051808273ffffffffffffffffffffffffffffffffffffffff1673ffffffffffffffffffffffffffffffffffffffff16815260200191505060405180910390f35b3480156105ca57600080fd5b506105d3614cd4565b604051808273ffffffffffffffffffffffffffffffffffffffff1673ffffffffffffffffffffffffffffffffffffffff16815260200191505060405180910390f35b34801561062157600080fd5b506106646004803603602081101561063857600080fd5b81019080803573ffffffffffffffffffffffffffffffffffffffff169060200190929190505050614cfa565b005b61066e614dc8565b600073ffffffffffffffffffffffffffffffffffffffff163373ffffffffffffffffffffffffffffffffffffffff1614156106a557fe5b6106e36040518060400160405280600681526020017f626574746f720000000000000000000000000000000000000000000000000000815250614f52565b610755576040517f08c379a000000000000000000000000000000000000000000000000000000000815260040180806020018281038252600b8152602001807f4f6e6c7920626574746f7200000000000000000000000000000000000000000081525060200191505060405180910390fd5b81816000600160009054906101000a900473ffffffffffffffffffffffffffffffffffffffff1673ffffffffffffffffffffffffffffffffffffffff1663358177736040518060400160405280600981526020017f50726f66696c65444200000000000000000000000000000000000000000000008152506040518263ffffffff1660e01b81526004018080602001828103825283818151815260200191508051906020019080838360005b8381101561081c578082015181840152602081019050610801565b50505050905090810190601f1680156108495780820380516001836020036101000a031916815260200191505b509250505060206040518083038186803b15801561086657600080fd5b505afa15801561087a573d6000803e3d6000fd5b505050506040513d602081101561089057600080fd5b810190808051906020019092919050505073ffffffffffffffffffffffffffffffffffffffff1663a984d640836040518263ffffffff1660e01b8152600401808273ffffffffffffffffffffffffffffffffffffffff1673ffffffffffffffffffffffffffffffffffffffff16815260200191505060206040518083038186803b15801561091d57600080fd5b505afa158015610931573d6000803e3d6000fd5b505050506040513d602081101561094757600080fd5b81019080805190602001909291905050501161096257600080fd5b600360009054906101000a900473ffffffffffffffffffffffffffffffffffffffff1673ffffffffffffffffffffffffffffffffffffffff1663e6d3538d83836040518363ffffffff1660e01b8152600401808381526020018273ffffffffffffffffffffffffffffffffffffffff1673ffffffffffffffffffffffffffffffffffffffff1681526020019250505060206040518083038186803b158015610a0957600080fd5b505afa158015610a1d573d6000803e3d6000fd5b505050506040513d6020811015610a3357600080fd5b8101908080519060200190929190505050610a4d57600080fd5b60003411610a5a57600080fd5b6000600360009054906101000a900473ffffffffffffffffffffffffffffffffffffffff1673ffffffffffffffffffffffffffffffffffffffff1663ffde0c74866040518263ffffffff1660e01b81526004018082815260200191505060206040518083038186803b158015610acf57600080fd5b505afa158015610ae3573d6000803e3d6000fd5b505050506040513d6020811015610af957600080fd5b810190808051906020019092919050505090506000610b166151ce565b90508473ffffffffffffffffffffffffffffffffffffffff168173ffffffffffffffffffffffffffffffffffffffff161415610b5157600080fd5b6002821115610b5f57600080fd5b600080600760009054906101000a900473ffffffffffffffffffffffffffffffffffffffff1673ffffffffffffffffffffffffffffffffffffffff1663aa84869f896040518263ffffffff1660e01b815260040180828152602001915050604080518083038186803b158015610bd457600080fd5b505afa158015610be8573d6000803e3d6000fd5b505050506040513d6040811015610bfe57600080fd5b81019080805190602001909291908051906020019092919050505091509150600460009054906101000a900473ffffffffffffffffffffffffffffffffffffffff1673ffffffffffffffffffffffffffffffffffffffff1663ecbedebc348585856040518563ffffffff1660e01b8152600401808473ffffffffffffffffffffffffffffffffffffffff1673ffffffffffffffffffffffffffffffffffffffff16815260200183815260200182815260200193505050506020604051808303818588803b158015610cce57600080fd5b505af1158015610ce2573d6000803e3d6000fd5b50505050506040513d6020811015610cf957600080fd5b8101908080519060200190929190505050610d1357600080fd5b600260009054906101000a900473ffffffffffffffffffffffffffffffffffffffff1673ffffffffffffffffffffffffffffffffffffffff16634092998089858a6040518463ffffffff1660e01b8152600401808481526020018373ffffffffffffffffffffffffffffffffffffffff1673ffffffffffffffffffffffffffffffffffffffff1681526020018273ffffffffffffffffffffffffffffffffffffffff1673ffffffffffffffffffffffffffffffffffffffff1681526020019350505050602060405180830381600087803b158015610df057600080fd5b505af1158015610e04573d6000803e3d6000fd5b505050506040513d6020811015610e1a57600080fd5b8101908080519060200190929190505050610e3457600080fd5b6000600360009054906101000a900473ffffffffffffffffffffffffffffffffffffffff1673ffffffffffffffffffffffffffffffffffffffff16638851470d8a6040518263ffffffff1660e01b81526004018082815260200191505060606040518083038186803b158015610ea957600080fd5b505afa158015610ebd573d6000803e3d6000fd5b505050506040513d6060811015610ed357600080fd5b81019080805190602001909291908051906020019092919080519060200190929190505050509150506000851480610f0b5750600185145b15610fa657600560009054906101000a900473ffffffffffffffffffffffffffffffffffffffff1673ffffffffffffffffffffffffffffffffffffffff16635aaccebf8a876040518363ffffffff1660e01b81526004018083815260200182815260200192505050600060405180830381600087803b158015610f8d57600080fd5b505af1158015610fa1573d6000803e3d6000fd5b505050505b600360009054906101000a900473ffffffffffffffffffffffffffffffffffffffff1673ffffffffffffffffffffffffffffffffffffffff1663ffde0c748a6040518263ffffffff1660e01b81526004018082815260200191505060206040518083038186803b15801561101957600080fd5b505afa15801561102d573d6000803e3d6000fd5b505050506040513d602081101561104357600080fd5b810190808051906020019092919050505094506000600581111561106357fe5b851480156110715750428111155b1561120357600860009054906101000a900473ffffffffffffffffffffffffffffffffffffffff1673ffffffffffffffffffffffffffffffffffffffff16639d60d53e8a6040518263ffffffff1660e01b815260040180828152602001915050600060405180830381600087803b1580156110eb57600080fd5b505af11580156110ff573d6000803e3d6000fd5b50505050600260009054906101000a900473ffffffffffffffffffffffffffffffffffffffff1673ffffffffffffffffffffffffffffffffffffffff1663f5de83978a6001600581111561114f57fe5b6040518363ffffffff1660e01b81526004018083815260200182815260200192505050600060405180830381600087803b15801561118c57600080fd5b505af11580156111a0573d6000803e3d6000fd5b50505050887f44eba4bcf780a2012259962cf19bf1777051e027304e22dd8e324b0cefb4be2660006001604051808360058111156111da57fe5b60ff1681526020018260058111156111ee57fe5b60ff1681526020019250505060405180910390a25b8773ffffffffffffffffffffffffffffffffffffffff16897f10be9d2d97e8101e37a757b0203bef24d9237498343bfeeba88885b950ef756386604051808273ffffffffffffffffffffffffffffffffffffffff1673ffffffffffffffffffffffffffffffffffffffff16815260200191505060405180910390a3505050505050505050565b600860009054906101000a900473ffffffffffffffffffffffffffffffffffffffff1681565b600360009054906101000a900473ffffffffffffffffffffffffffffffffffffffff1681565b6112dd614dc8565b600073ffffffffffffffffffffffffffffffffffffffff163373ffffffffffffffffffffffffffffffffffffffff16141561131457fe5b6113526040518060400160405280600681526020017f706c617965720000000000000000000000000000000000000000000000000000815250614f52565b6113c4576040517f08c379a000000000000000000000000000000000000000000000000000000000815260040180806020018281038252600b8152602001807f4f6e6c7920706c6179657200000000000000000000000000000000000000000081525060200191505060405180910390fd5b826113cd6151ce565b6000600160009054906101000a900473ffffffffffffffffffffffffffffffffffffffff1673ffffffffffffffffffffffffffffffffffffffff1663358177736040518060400160405280600981526020017f50726f66696c65444200000000000000000000000000000000000000000000008152506040518263ffffffff1660e01b81526004018080602001828103825283818151815260200191508051906020019080838360005b83811015611492578082015181840152602081019050611477565b50505050905090810190601f1680156114bf5780820380516001836020036101000a031916815260200191505b509250505060206040518083038186803b1580156114dc57600080fd5b505afa1580156114f0573d6000803e3d6000fd5b505050506040513d602081101561150657600080fd5b810190808051906020019092919050505073ffffffffffffffffffffffffffffffffffffffff1663a984d640836040518263ffffffff1660e01b8152600401808273ffffffffffffffffffffffffffffffffffffffff1673ffffffffffffffffffffffffffffffffffffffff16815260200191505060206040518083038186803b15801561159357600080fd5b505afa1580156115a7573d6000803e3d6000fd5b505050506040513d60208110156115bd57600080fd5b8101908080519060200190929190505050116115d857600080fd5b600360009054906101000a900473ffffffffffffffffffffffffffffffffffffffff1673ffffffffffffffffffffffffffffffffffffffff1663e6d3538d83836040518363ffffffff1660e01b8152600401808381526020018273ffffffffffffffffffffffffffffffffffffffff1673ffffffffffffffffffffffffffffffffffffffff1681526020019250505060206040518083038186803b15801561167f57600080fd5b505afa158015611693573d6000803e3d6000fd5b505050506040513d60208110156116a957600080fd5b81019080805190602001909291905050506116c357600080fd5b6000600360009054906101000a900473ffffffffffffffffffffffffffffffffffffffff1673ffffffffffffffffffffffffffffffffffffffff1663ffde0c74876040518263ffffffff1660e01b81526004018082815260200191505060206040518083038186803b15801561173857600080fd5b505afa15801561174c573d6000803e3d6000fd5b505050506040513d602081101561176257600080fd5b81019080805190602001909291905050509050600560009054906101000a900473ffffffffffffffffffffffffffffffffffffffff1673ffffffffffffffffffffffffffffffffffffffff16635aaccebf87836040518363ffffffff1660e01b81526004018083815260200182815260200192505050600060405180830381600087803b1580156117f257600080fd5b505af1158015611806573d6000803e3d6000fd5b50505050600360009054906101000a900473ffffffffffffffffffffffffffffffffffffffff1673ffffffffffffffffffffffffffffffffffffffff1663ffde0c74876040518263ffffffff1660e01b81526004018082815260200191505060206040518083038186803b15801561187d57600080fd5b505afa158015611891573d6000803e3d6000fd5b505050506040513d60208110156118a757600080fd5b81019080805190602001909291905050509050600160058111156118c757fe5b8114156123045760006118d86151ce565b90506000600360009054906101000a900473ffffffffffffffffffffffffffffffffffffffff1673ffffffffffffffffffffffffffffffffffffffff1663e441dcbf89846040518363ffffffff1660e01b8152600401808381526020018273ffffffffffffffffffffffffffffffffffffffff1673ffffffffffffffffffffffffffffffffffffffff1681526020019250505060206040518083038186803b15801561198357600080fd5b505afa158015611997573d6000803e3d6000fd5b505050506040513d60208110156119ad57600080fd5b81019080805190602001909291905050509050600760009054906101000a900473ffffffffffffffffffffffffffffffffffffffff1673ffffffffffffffffffffffffffffffffffffffff1663158d39cb89848a6040518463ffffffff1660e01b8152600401808481526020018373ffffffffffffffffffffffffffffffffffffffff1673ffffffffffffffffffffffffffffffffffffffff1681526020018281526020019350505050600060405180830381600087803b158015611a7157600080fd5b505af1158015611a85573d6000803e3d6000fd5b50505050600660009054906101000a900473ffffffffffffffffffffffffffffffffffffffff1673ffffffffffffffffffffffffffffffffffffffff1663ed1d74068984600160009054906101000a900473ffffffffffffffffffffffffffffffffffffffff1673ffffffffffffffffffffffffffffffffffffffff1663358177736040518060400160405280601081526020017f52617269747943616c63756c61746f72000000000000000000000000000000008152506040518263ffffffff1660e01b81526004018080602001828103825283818151815260200191508051906020019080838360005b83811015611b8c578082015181840152602081019050611b71565b50505050905090810190601f168015611bb95780820380516001836020036101000a031916815260200191505b509250505060206040518083038186803b158015611bd657600080fd5b505afa158015611bea573d6000803e3d6000fd5b505050506040513d6020811015611c0057600080fd5b810190808051906020019092919050505073ffffffffffffffffffffffffffffffffffffffff16633af9bbac868c6040518363ffffffff1660e01b81526004018083815260200182815260200192505050602060405180830381600087803b158015611c6b57600080fd5b505af1158015611c7f573d6000803e3d6000fd5b505050506040513d6020811015611c9557600080fd5b81019080805190602001909291905050506040518463ffffffff1660e01b8152600401808481526020018373ffffffffffffffffffffffffffffffffffffffff1673ffffffffffffffffffffffffffffffffffffffff1681526020018281526020019350505050600060405180830381600087803b158015611d1657600080fd5b505af1158015611d2a573d6000803e3d6000fd5b505050506000600760009054906101000a900473ffffffffffffffffffffffffffffffffffffffff1673ffffffffffffffffffffffffffffffffffffffff166331fa70678a856040518363ffffffff1660e01b8152600401808381526020018273ffffffffffffffffffffffffffffffffffffffff1673ffffffffffffffffffffffffffffffffffffffff1681526020019250505060206040518083038186803b158015611dd757600080fd5b505afa158015611deb573d6000803e3d6000fd5b505050506040513d6020811015611e0157600080fd5b81019080805190602001909291905050509050887f3777d3009964e625c7ec7b3b7a815deec68108671053ae856ae638556472a49a84604051808273ffffffffffffffffffffffffffffffffffffffff1673ffffffffffffffffffffffffffffffffffffffff16815260200191505060405180910390a2600760009054906101000a900473ffffffffffffffffffffffffffffffffffffffff1673ffffffffffffffffffffffffffffffffffffffff1663ebff754a8a836040518363ffffffff1660e01b8152600401808381526020018273ffffffffffffffffffffffffffffffffffffffff1673ffffffffffffffffffffffffffffffffffffffff1681526020019250505060206040518083038186803b158015611f1f57600080fd5b505afa158015611f33573d6000803e3d6000fd5b505050506040513d6020811015611f4957600080fd5b81019080805190602001909291905050501561230057600660009054906101000a900473ffffffffffffffffffffffffffffffffffffffff1673ffffffffffffffffffffffffffffffffffffffff16632c31d0858a8a600760009054906101000a900473ffffffffffffffffffffffffffffffffffffffff1673ffffffffffffffffffffffffffffffffffffffff16636e47c6358e876040518363ffffffff1660e01b8152600401808381526020018273ffffffffffffffffffffffffffffffffffffffff1673ffffffffffffffffffffffffffffffffffffffff1681526020019250505060206040518083038186803b15801561204657600080fd5b505afa15801561205a573d6000803e3d6000fd5b505050506040513d602081101561207057600080fd5b81019080805190602001909291905050506040518463ffffffff1660e01b8152600401808481526020018381526020018281526020019350505050600060405180830381600087803b1580156120c557600080fd5b505af11580156120d9573d6000803e3d6000fd5b50505050600860009054906101000a900473ffffffffffffffffffffffffffffffffffffffff1673ffffffffffffffffffffffffffffffffffffffff16639d60d53e8a6040518263ffffffff1660e01b815260040180828152602001915050600060405180830381600087803b15801561215257600080fd5b505af1158015612166573d6000803e3d6000fd5b50505050600260009054906101000a900473ffffffffffffffffffffffffffffffffffffffff1673ffffffffffffffffffffffffffffffffffffffff1663f5de83978a600260058111156121b657fe5b6040518363ffffffff1660e01b81526004018083815260200182815260200192505050600060405180830381600087803b1580156121f357600080fd5b505af1158015612207573d6000803e3d6000fd5b50505050600460009054906101000a900473ffffffffffffffffffffffffffffffffffffffff1673ffffffffffffffffffffffffffffffffffffffff1663d665a7178a60036040518363ffffffff1660e01b81526004018083815260200182815260200192505050600060405180830381600087803b15801561228957600080fd5b505af115801561229d573d6000803e3d6000fd5b50505050887f44eba4bcf780a2012259962cf19bf1777051e027304e22dd8e324b0cefb4be2660016002604051808360058111156122d757fe5b60ff1681526020018260058111156122eb57fe5b60ff1681526020019250505060405180910390a25b5050505b505050505050565b600660009054906101000a900473ffffffffffffffffffffffffffffffffffffffff1681565b6040518060400160405280600981526020017f466f72666569746572000000000000000000000000000000000000000000000081525061237181615283565b6000600360009054906101000a900473ffffffffffffffffffffffffffffffffffffffff1673ffffffffffffffffffffffffffffffffffffffff1663ffde0c74846040518263ffffffff1660e01b81526004018082815260200191505060206040518083038186803b1580156123e657600080fd5b505afa1580156123fa573d6000803e3d6000fd5b505050506040513d602081101561241057600080fd5b810190808051906020019092919050505090506000600581111561243057fe5b81148061244857506001600581111561244557fe5b81145b61245157600080fd5b600260009054906101000a900473ffffffffffffffffffffffffffffffffffffffff1673ffffffffffffffffffffffffffffffffffffffff1663f5de83978460058081111561249c57fe5b6040518363ffffffff1660e01b81526004018083815260200182815260200192505050600060405180830381600087803b1580156124d957600080fd5b505af11580156124ed573d6000803e3d6000fd5b50505050600460009054906101000a900473ffffffffffffffffffffffffffffffffffffffff1673ffffffffffffffffffffffffffffffffffffffff1663d665a7178460046040518363ffffffff1660e01b81526004018083815260200182815260200192505050600060405180830381600087803b15801561256f57600080fd5b505af1158015612583573d6000803e3d6000fd5b50505050600860009054906101000a900473ffffffffffffffffffffffffffffffffffffffff1673ffffffffffffffffffffffffffffffffffffffff16636fee856a846040518263ffffffff1660e01b815260040180828152602001915050600060405180830381600087803b1580156125fc57600080fd5b505af1158015612610573d6000803e3d6000fd5b50505050600860009054906101000a900473ffffffffffffffffffffffffffffffffffffffff1673ffffffffffffffffffffffffffffffffffffffff16639d60d53e846040518263ffffffff1660e01b815260040180828152602001915050600060405180830381600087803b15801561268957600080fd5b505af115801561269d573d6000803e3d6000fd5b50505050600760009054906101000a900473ffffffffffffffffffffffffffffffffffffffff1673ffffffffffffffffffffffffffffffffffffffff1663c1dc2ddc6040518163ffffffff1660e01b8152600401600060405180830381600087803b15801561270b57600080fd5b505af115801561271f573d6000803e3d6000fd5b50505050505050565b600460009054906101000a900473ffffffffffffffffffffffffffffffffffffffff1681565b612756614dc8565b600073ffffffffffffffffffffffffffffffffffffffff163373ffffffffffffffffffffffffffffffffffffffff16141561278d57fe5b6127cb6040518060400160405280600681526020017f626574746f720000000000000000000000000000000000000000000000000000815250614f52565b61283d576040517f08c379a000000000000000000000000000000000000000000000000000000000815260040180806020018281038252600b8152602001807f4f6e6c7920626574746f7200000000000000000000000000000000000000000081525060200191505060405180910390fd5b6000341161284a57600080fd5b6000600360009054906101000a900473ffffffffffffffffffffffffffffffffffffffff1673ffffffffffffffffffffffffffffffffffffffff1663ffde0c74846040518263ffffffff1660e01b81526004018082815260200191505060206040518083038186803b1580156128bf57600080fd5b505afa1580156128d3573d6000803e3d6000fd5b505050506040513d60208110156128e957600080fd5b810190808051906020019092919050505090506000806002600581111561290c57fe5b831461291757600080fd5b60006129216151ce565b9050600360009054906101000a900473ffffffffffffffffffffffffffffffffffffffff1673ffffffffffffffffffffffffffffffffffffffff1663e6d3538d87836040518363ffffffff1660e01b8152600401808381526020018273ffffffffffffffffffffffffffffffffffffffff1673ffffffffffffffffffffffffffffffffffffffff1681526020019250505060206040518083038186803b1580156129ca57600080fd5b505afa1580156129de573d6000803e3d6000fd5b505050506040513d60208110156129f457600080fd5b8101908080519060200190929190505050612b2557600360009054906101000a900473ffffffffffffffffffffffffffffffffffffffff1673ffffffffffffffffffffffffffffffffffffffff16630b154c9687836040518363ffffffff1660e01b8152600401808381526020018273ffffffffffffffffffffffffffffffffffffffff1673ffffffffffffffffffffffffffffffffffffffff1681526020019250505060806040518083038186803b158015612ab057600080fd5b505afa158015612ac4573d6000803e3d6000fd5b505050506040513d6080811015612ada57600080fd5b81019080805190602001909291908051906020019092919080519060200190929190805190602001909291905050509091925050809350819450505081612b2057600080fd5b612b29565b8092505b600080600760009054906101000a900473ffffffffffffffffffffffffffffffffffffffff1673ffffffffffffffffffffffffffffffffffffffff1663f58f32cf896040518263ffffffff1660e01b815260040180828152602001915050604080518083038186803b158015612b9e57600080fd5b505afa158015612bb2573d6000803e3d6000fd5b505050506040513d6040811015612bc857600080fd5b81019080805190602001909291908051906020019092919050505091509150600460009054906101000a900473ffffffffffffffffffffffffffffffffffffffff1673ffffffffffffffffffffffffffffffffffffffff1663b3962bdc612c38843461551e90919063ffffffff16565b8a6040518363ffffffff1660e01b8152600401808281526020019150506020604051808303818588803b158015612c6e57600080fd5b505af1158015612c82573d6000803e3d6000fd5b50505050506040513d6020811015612c9957600080fd5b8101908080519060200190929190505050612cb357600080fd5b600460009054906101000a900473ffffffffffffffffffffffffffffffffffffffff1673ffffffffffffffffffffffffffffffffffffffff1663ecbedebc838585856040518563ffffffff1660e01b8152600401808473ffffffffffffffffffffffffffffffffffffffff1673ffffffffffffffffffffffffffffffffffffffff16815260200183815260200182815260200193505050506020604051808303818588803b158015612d6457600080fd5b505af1158015612d78573d6000803e3d6000fd5b50505050506040513d6020811015612d8f57600080fd5b8101908080519060200190929190505050612da957600080fd5b600160009054906101000a900473ffffffffffffffffffffffffffffffffffffffff1673ffffffffffffffffffffffffffffffffffffffff1663358177736040518060400160405280600b81526020017f486974735265736f6c76650000000000000000000000000000000000000000008152506040518263ffffffff1660e01b81526004018080602001828103825283818151815260200191508051906020019080838360005b83811015612e6c578082015181840152602081019050612e51565b50505050905090810190601f168015612e995780820380516001836020036101000a031916815260200191505b509250505060206040518083038186803b158015612eb657600080fd5b505afa158015612eca573d6000803e3d6000fd5b505050506040513d6020811015612ee057600080fd5b810190808051906020019092919050505073ffffffffffffffffffffffffffffffffffffffff166381d96a1f89896040518363ffffffff1660e01b81526004018083815260200182815260200192505050602060405180830381600087803b158015612f4b57600080fd5b505af1158015612f5f573d6000803e3d6000fd5b505050506040513d6020811015612f7557600080fd5b8101908080519060200190929190505050506000600760009054906101000a900473ffffffffffffffffffffffffffffffffffffffff1673ffffffffffffffffffffffffffffffffffffffff166331fa70678a886040518363ffffffff1660e01b8152600401808381526020018273ffffffffffffffffffffffffffffffffffffffff1673ffffffffffffffffffffffffffffffffffffffff1681526020019250505060206040518083038186803b15801561303057600080fd5b505afa158015613044573d6000803e3d6000fd5b505050506040513d602081101561305a57600080fd5b81019080805190602001909291905050509050600660009054906101000a900473ffffffffffffffffffffffffffffffffffffffff1673ffffffffffffffffffffffffffffffffffffffff1663592ba06b8a86348a868e6040518763ffffffff1660e01b8152600401808781526020018673ffffffffffffffffffffffffffffffffffffffff1673ffffffffffffffffffffffffffffffffffffffff1681526020018581526020018473ffffffffffffffffffffffffffffffffffffffff1673ffffffffffffffffffffffffffffffffffffffff1681526020018373ffffffffffffffffffffffffffffffffffffffff1673ffffffffffffffffffffffffffffffffffffffff1681526020018281526020019650505050505050600060405180830381600087803b15801561318e57600080fd5b505af11580156131a2573d6000803e3d6000fd5b50505050600260009054906101000a900473ffffffffffffffffffffffffffffffffffffffff1673ffffffffffffffffffffffffffffffffffffffff1663026ab2c58a86348a6040518563ffffffff1660e01b8152600401808581526020018473ffffffffffffffffffffffffffffffffffffffff1673ffffffffffffffffffffffffffffffffffffffff1681526020018381526020018273ffffffffffffffffffffffffffffffffffffffff1673ffffffffffffffffffffffffffffffffffffffff168152602001945050505050600060405180830381600087803b15801561328b57600080fd5b505af115801561329f573d6000803e3d6000fd5b505050508573ffffffffffffffffffffffffffffffffffffffff168473ffffffffffffffffffffffffffffffffffffffff16146133cc57600760009054906101000a900473ffffffffffffffffffffffffffffffffffffffff1673ffffffffffffffffffffffffffffffffffffffff16630bc644f58a86896040518463ffffffff1660e01b8152600401808481526020018373ffffffffffffffffffffffffffffffffffffffff1673ffffffffffffffffffffffffffffffffffffffff1681526020018273ffffffffffffffffffffffffffffffffffffffff1673ffffffffffffffffffffffffffffffffffffffff1681526020019350505050600060405180830381600087803b1580156133b357600080fd5b505af11580156133c7573d6000803e3d6000fd5b505050505b6133d589615535565b6133de896159a2565b505050505050505050565b6000809054906101000a900473ffffffffffffffffffffffffffffffffffffffff1673ffffffffffffffffffffffffffffffffffffffff163373ffffffffffffffffffffffffffffffffffffffff161461343f57fe5b600160009054906101000a900473ffffffffffffffffffffffffffffffffffffffff1673ffffffffffffffffffffffffffffffffffffffff1663358177736040518060400160405280600a81526020017f474d5365747465724442000000000000000000000000000000000000000000008152506040518263ffffffff1660e01b81526004018080602001828103825283818151815260200191508051906020019080838360005b838110156135025780820151818401526020810190506134e7565b50505050905090810190601f16801561352f5780820380516001836020036101000a031916815260200191505b509250505060206040518083038186803b15801561354c57600080fd5b505afa158015613560573d6000803e3d6000fd5b505050506040513d602081101561357657600080fd5b8101908080519060200190929190505050600260006101000a81548173ffffffffffffffffffffffffffffffffffffffff021916908373ffffffffffffffffffffffffffffffffffffffff160217905550600160009054906101000a900473ffffffffffffffffffffffffffffffffffffffff1673ffffffffffffffffffffffffffffffffffffffff1663358177736040518060400160405280600a81526020017f474d4765747465724442000000000000000000000000000000000000000000008152506040518263ffffffff1660e01b81526004018080602001828103825283818151815260200191508051906020019080838360005b8381101561368a57808201518184015260208101905061366f565b50505050905090810190601f1680156136b75780820380516001836020036101000a031916815260200191505b509250505060206040518083038186803b1580156136d457600080fd5b505afa1580156136e8573d6000803e3d6000fd5b505050506040513d60208110156136fe57600080fd5b8101908080519060200190929190505050600360006101000a81548173ffffffffffffffffffffffffffffffffffffffff021916908373ffffffffffffffffffffffffffffffffffffffff160217905550600160009054906101000a900473ffffffffffffffffffffffffffffffffffffffff1673ffffffffffffffffffffffffffffffffffffffff1663358177736040518060400160405280600d81526020017f456e646f776d656e7446756e64000000000000000000000000000000000000008152506040518263ffffffff1660e01b81526004018080602001828103825283818151815260200191508051906020019080838360005b838110156138125780820151818401526020810190506137f7565b50505050905090810190601f16801561383f5780820380516001836020036101000a031916815260200191505b509250505060206040518083038186803b15801561385c57600080fd5b505afa158015613870573d6000803e3d6000fd5b505050506040513d602081101561388657600080fd5b8101908080519060200190929190505050600460006101000a81548173ffffffffffffffffffffffffffffffffffffffff021916908373ffffffffffffffffffffffffffffffffffffffff160217905550600160009054906101000a900473ffffffffffffffffffffffffffffffffffffffff1673ffffffffffffffffffffffffffffffffffffffff1663358177736040518060400160405280600981526020017f466f7266656974657200000000000000000000000000000000000000000000008152506040518263ffffffff1660e01b81526004018080602001828103825283818151815260200191508051906020019080838360005b8381101561399a57808201518184015260208101905061397f565b50505050905090810190601f1680156139c75780820380516001836020036101000a031916815260200191505b509250505060206040518083038186803b1580156139e457600080fd5b505afa1580156139f8573d6000803e3d6000fd5b505050506040513d6020811015613a0e57600080fd5b8101908080519060200190929190505050600560006101000a81548173ffffffffffffffffffffffffffffffffffffffff021916908373ffffffffffffffffffffffffffffffffffffffff160217905550600160009054906101000a900473ffffffffffffffffffffffffffffffffffffffff1673ffffffffffffffffffffffffffffffffffffffff1663358177736040518060400160405280600781526020017f42657474696e67000000000000000000000000000000000000000000000000008152506040518263ffffffff1660e01b81526004018080602001828103825283818151815260200191508051906020019080838360005b83811015613b22578082015181840152602081019050613b07565b50505050905090810190601f168015613b4f5780820380516001836020036101000a031916815260200191505b509250505060206040518083038186803b158015613b6c57600080fd5b505afa158015613b80573d6000803e3d6000fd5b505050506040513d6020811015613b9657600080fd5b8101908080519060200190929190505050600660006101000a81548173ffffffffffffffffffffffffffffffffffffffff021916908373ffffffffffffffffffffffffffffffffffffffff160217905550600160009054906101000a900473ffffffffffffffffffffffffffffffffffffffff1673ffffffffffffffffffffffffffffffffffffffff1663358177736040518060400160405280600981526020017f47616d6553746f726500000000000000000000000000000000000000000000008152506040518263ffffffff1660e01b81526004018080602001828103825283818151815260200191508051906020019080838360005b83811015613caa578082015181840152602081019050613c8f565b50505050905090810190601f168015613cd75780820380516001836020036101000a031916815260200191505b509250505060206040518083038186803b158015613cf457600080fd5b505afa158015613d08573d6000803e3d6000fd5b505050506040513d6020811015613d1e57600080fd5b8101908080519060200190929190505050600760006101000a81548173ffffffffffffffffffffffffffffffffffffffff021916908373ffffffffffffffffffffffffffffffffffffffff160217905550600160009054906101000a900473ffffffffffffffffffffffffffffffffffffffff1673ffffffffffffffffffffffffffffffffffffffff1663358177736040518060400160405280600c81526020017f47616d654372656174696f6e00000000000000000000000000000000000000008152506040518263ffffffff1660e01b81526004018080602001828103825283818151815260200191508051906020019080838360005b83811015613e32578082015181840152602081019050613e17565b50505050905090810190601f168015613e5f5780820380516001836020036101000a031916815260200191505b509250505060206040518083038186803b158015613e7c57600080fd5b505afa158015613e90573d6000803e3d6000fd5b505050506040513d6020811015613ea657600080fd5b8101908080519060200190929190505050600860006101000a81548173ffffffffffffffffffffffffffffffffffffffff021916908373ffffffffffffffffffffffffffffffffffffffff160217905550565b6000809054906101000a900473ffffffffffffffffffffffffffffffffffffffff1681565b6000809054906101000a900473ffffffffffffffffffffffffffffffffffffffff1673ffffffffffffffffffffffffffffffffffffffff163373ffffffffffffffffffffffffffffffffffffffff1614613f7457fe5b80600160006101000a81548173ffffffffffffffffffffffffffffffffffffffff021916908373ffffffffffffffffffffffffffffffffffffffff16021790555050565b600560009054906101000a900473ffffffffffffffffffffffffffffffffffffffff1681565b600760009054906101000a900473ffffffffffffffffffffffffffffffffffffffff1681565b61400c614dc8565b6003600581111561401957fe5b600360009054906101000a900473ffffffffffffffffffffffffffffffffffffffff1673ffffffffffffffffffffffffffffffffffffffff1663ffde0c74846040518263ffffffff1660e01b81526004018082815260200191505060206040518083038186803b15801561408c57600080fd5b505afa1580156140a0573d6000803e3d6000fd5b505050506040513d60208110156140b657600080fd5b8101908080519060200190929190505050146140d157600080fd5b600080600360009054906101000a900473ffffffffffffffffffffffffffffffffffffffff1673ffffffffffffffffffffffffffffffffffffffff166315a40f49856040518263ffffffff1660e01b81526004018082815260200191505060806040518083038186803b15801561414757600080fd5b505afa15801561415b573d6000803e3d6000fd5b505050506040513d608081101561417157600080fd5b8101908080519060200190929190805190602001909291908051906020019092919080519060200190929190505050505091509150600080600080600760009054906101000a900473ffffffffffffffffffffffffffffffffffffffff1673ffffffffffffffffffffffffffffffffffffffff1663cefc48268988888b6040518563ffffffff1660e01b8152600401808581526020018473ffffffffffffffffffffffffffffffffffffffff1673ffffffffffffffffffffffffffffffffffffffff1681526020018373ffffffffffffffffffffffffffffffffffffffff1673ffffffffffffffffffffffffffffffffffffffff16815260200182815260200194505050505060806040518083038186803b15801561428f57600080fd5b505afa1580156142a3573d6000803e3d6000fd5b505050506040513d60808110156142b957600080fd5b81019080805190602001909291908051906020019092919080519060200190929190805190602001909291905050509350935093509350600260009054906101000a900473ffffffffffffffffffffffffffffffffffffffff1673ffffffffffffffffffffffffffffffffffffffff1663f1c9d63a8986600760009054906101000a900473ffffffffffffffffffffffffffffffffffffffff1673ffffffffffffffffffffffffffffffffffffffff166316805a298d8a6040518363ffffffff1660e01b8152600401808381526020018273ffffffffffffffffffffffffffffffffffffffff1673ffffffffffffffffffffffffffffffffffffffff1681526020019250505060206040518083038186803b1580156143d757600080fd5b505afa1580156143eb573d6000803e3d6000fd5b505050506040513d602081101561440157600080fd5b8101908080519060200190929190505050600760009054906101000a900473ffffffffffffffffffffffffffffffffffffffff1673ffffffffffffffffffffffffffffffffffffffff16635f87206d8e8b6040518363ffffffff1660e01b8152600401808381526020018273ffffffffffffffffffffffffffffffffffffffff1673ffffffffffffffffffffffffffffffffffffffff1681526020019250505060206040518083038186803b1580156144b957600080fd5b505afa1580156144cd573d6000803e3d6000fd5b505050506040513d60208110156144e357600080fd5b81019080805190602001909291905050506040518563ffffffff1660e01b8152600401808581526020018473ffffffffffffffffffffffffffffffffffffffff1673ffffffffffffffffffffffffffffffffffffffff1681526020018373ffffffffffffffffffffffffffffffffffffffff1673ffffffffffffffffffffffffffffffffffffffff1681526020018273ffffffffffffffffffffffffffffffffffffffff1673ffffffffffffffffffffffffffffffffffffffff168152602001945050505050600060405180830381600087803b1580156145c357600080fd5b505af11580156145d7573d6000803e3d6000fd5b50505050600260009054906101000a900473ffffffffffffffffffffffffffffffffffffffff1673ffffffffffffffffffffffffffffffffffffffff16639ecd537a896040518263ffffffff1660e01b815260040180828152602001915050600060405180830381600087803b15801561465057600080fd5b505af1158015614664573d6000803e3d6000fd5b50505050600860009054906101000a900473ffffffffffffffffffffffffffffffffffffffff1673ffffffffffffffffffffffffffffffffffffffff16631174497185858b6040518463ffffffff1660e01b8152600401808473ffffffffffffffffffffffffffffffffffffffff1673ffffffffffffffffffffffffffffffffffffffff1681526020018373ffffffffffffffffffffffffffffffffffffffff1673ffffffffffffffffffffffffffffffffffffffff1681526020018281526020019350505050600060405180830381600087803b15801561474557600080fd5b505af1158015614759573d6000803e3d6000fd5b505050506000600360009054906101000a900473ffffffffffffffffffffffffffffffffffffffff1673ffffffffffffffffffffffffffffffffffffffff1663525a8e4e8a6040518263ffffffff1660e01b815260040180828152602001915050604080518083038186803b1580156147d157600080fd5b505afa1580156147e5573d6000803e3d6000fd5b505050506040513d60408110156147fb57600080fd5b810190808051906020019092919080519060200190929190505050509050600460009054906101000a900473ffffffffffffffffffffffffffffffffffffffff1673ffffffffffffffffffffffffffffffffffffffff1663adee6f2b8a866040518363ffffffff1660e01b8152600401808381526020018273ffffffffffffffffffffffffffffffffffffffff1673ffffffffffffffffffffffffffffffffffffffff16815260200192505050600060405180830381600087803b1580156148c257600080fd5b505af11580156148d6573d6000803e3d6000fd5b50505050600460009054906101000a900473ffffffffffffffffffffffffffffffffffffffff1673ffffffffffffffffffffffffffffffffffffffff1663d665a7178a60056040518363ffffffff1660e01b81526004018083815260200182815260200192505050600060405180830381600087803b15801561495857600080fd5b505af115801561496c573d6000803e3d6000fd5b50505050600760009054906101000a900473ffffffffffffffffffffffffffffffffffffffff1673ffffffffffffffffffffffffffffffffffffffff16635daaf7988a6040518263ffffffff1660e01b815260040180828152602001915050600060405180830381600087803b1580156149e557600080fd5b505af11580156149f9573d6000803e3d6000fd5b50505050600460009054906101000a900473ffffffffffffffffffffffffffffffffffffffff1673ffffffffffffffffffffffffffffffffffffffff1663b49c0ebe614a436151ce565b6040518263ffffffff1660e01b8152600401808273ffffffffffffffffffffffffffffffffffffffff1673ffffffffffffffffffffffffffffffffffffffff168152602001915050602060405180830381600087803b158015614aa557600080fd5b505af1158015614ab9573d6000803e3d6000fd5b505050506040513d6020811015614acf57600080fd5b810190808051906020019092919050505050600260009054906101000a900473ffffffffffffffffffffffffffffffffffffffff1673ffffffffffffffffffffffffffffffffffffffff1663f5de83978a60046005811115614b2d57fe5b6040518363ffffffff1660e01b81526004018083815260200182815260200192505050600060405180830381600087803b158015614b6a57600080fd5b505af1158015614b7e573d6000803e3d6000fd5b50505050887f44eba4bcf780a2012259962cf19bf1777051e027304e22dd8e324b0cefb4be266002600460405180836005811115614bb857fe5b60ff168152602001826005811115614bcc57fe5b60ff1681526020019250505060405180910390a28373ffffffffffffffffffffffffffffffffffffffff168573ffffffffffffffffffffffffffffffffffffffff168a7ff1ef0c82644b061a588c809f1271ad223bd37fbed3b6b4a80e23b549fa80d8e58686604051808381526020018281526020019250505060405180910390a4505050505050505050565b6040518060400160405280600c81526020017f47616d654372656174696f6e0000000000000000000000000000000000000000815250614c9881615283565b614ca182615535565b614caa826159a2565b5050565b600160009054906101000a900473ffffffffffffffffffffffffffffffffffffffff1681565b600260009054906101000a900473ffffffffffffffffffffffffffffffffffffffff1681565b6000809054906101000a900473ffffffffffffffffffffffffffffffffffffffff1673ffffffffffffffffffffffffffffffffffffffff163373ffffffffffffffffffffffffffffffffffffffff1614614d5057fe5b600073ffffffffffffffffffffffffffffffffffffffff168173ffffffffffffffffffffffffffffffffffffffff1614614dc557806000806101000a81548173ffffffffffffffffffffffffffffffffffffffff021916908373ffffffffffffffffffffffffffffffffffffffff1602179055505b50565b600073ffffffffffffffffffffffffffffffffffffffff16600160009054906101000a900473ffffffffffffffffffffffffffffffffffffffff1673ffffffffffffffffffffffffffffffffffffffff161415614e8d576040517f08c379a00000000000000000000000000000000000000000000000000000000081526004018080602001828103825260088152602001807f4e6f2050726f787900000000000000000000000000000000000000000000000081525060200191505060405180910390fd5b600160009054906101000a900473ffffffffffffffffffffffffffffffffffffffff1673ffffffffffffffffffffffffffffffffffffffff163373ffffffffffffffffffffffffffffffffffffffff1614614f50576040517f08c379a00000000000000000000000000000000000000000000000000000000081526004018080602001828103825260128152602001807f4f6e6c79207468726f7567682050726f7879000000000000000000000000000081525060200191505060405180910390fd5b565b6000600160009054906101000a900473ffffffffffffffffffffffffffffffffffffffff1673ffffffffffffffffffffffffffffffffffffffff1663358177736040518060400160405280600681526020017f526f6c65444200000000000000000000000000000000000000000000000000008152506040518263ffffffff1660e01b81526004018080602001828103825283818151815260200191508051906020019080838360005b83811015615017578082015181840152602081019050614ffc565b50505050905090810190601f1680156150445780820380516001836020036101000a031916815260200191505b509250505060206040518083038186803b15801561506157600080fd5b505afa158015615075573d6000803e3d6000fd5b505050506040513d602081101561508b57600080fd5b810190808051906020019092919050505073ffffffffffffffffffffffffffffffffffffffff16636c9cd097836150c06151ce565b6040518363ffffffff1660e01b815260040180806020018373ffffffffffffffffffffffffffffffffffffffff1673ffffffffffffffffffffffffffffffffffffffff168152602001828103825284818151815260200191508051906020019080838360005b83811015615141578082015181840152602081019050615126565b50505050905090810190601f16801561516e5780820380516001836020036101000a031916815260200191505b50935050505060206040518083038186803b15801561518c57600080fd5b505afa1580156151a0573d6000803e3d6000fd5b505050506040513d60208110156151b657600080fd5b81019080805190602001909291905050509050919050565b6000600160009054906101000a900473ffffffffffffffffffffffffffffffffffffffff1673ffffffffffffffffffffffffffffffffffffffff163373ffffffffffffffffffffffffffffffffffffffff161461522d57339050615280565b6000601436036000602052601481602c37602051915050600073ffffffffffffffffffffffffffffffffffffffff168173ffffffffffffffffffffffffffffffffffffffff16141561527b57fe5b809150505b90565b600073ffffffffffffffffffffffffffffffffffffffff16600160009054906101000a900473ffffffffffffffffffffffffffffffffffffffff1673ffffffffffffffffffffffffffffffffffffffff161415615348576040517f08c379a00000000000000000000000000000000000000000000000000000000081526004018080602001828103825260088152602001807f4e6f2050726f787900000000000000000000000000000000000000000000000081525060200191505060405180910390fd5b6000600160009054906101000a900473ffffffffffffffffffffffffffffffffffffffff1673ffffffffffffffffffffffffffffffffffffffff166335817773836040518263ffffffff1660e01b81526004018080602001828103825283818151815260200191508051906020019080838360005b838110156153d85780820151818401526020810190506153bd565b50505050905090810190601f1680156154055780820380516001836020036101000a031916815260200191505b509250505060206040518083038186803b15801561542257600080fd5b505afa158015615436573d6000803e3d6000fd5b505050506040513d602081101561544c57600080fd5b81019080805190602001909291905050509050600073ffffffffffffffffffffffffffffffffffffffff168173ffffffffffffffffffffffffffffffffffffffff16141561549657fe5b8073ffffffffffffffffffffffffffffffffffffffff163373ffffffffffffffffffffffffffffffffffffffff161461551a576040517f08c379a000000000000000000000000000000000000000000000000000000000815260040180806020018281038252602d815260200180615d71602d913960400191505060405180910390fd5b5050565b60008282111561552a57fe5b818303905092915050565b6000600360009054906101000a900473ffffffffffffffffffffffffffffffffffffffff1673ffffffffffffffffffffffffffffffffffffffff16638851470d836040518263ffffffff1660e01b81526004018082815260200191505060606040518083038186803b1580156155aa57600080fd5b505afa1580156155be573d6000803e3d6000fd5b505050506040513d60608110156155d457600080fd5b81019080805190602001909291908051906020019092919080519060200190929190505050925050506000600760009054906101000a900473ffffffffffffffffffffffffffffffffffffffff1673ffffffffffffffffffffffffffffffffffffffff16630d8d7aba846040518263ffffffff1660e01b81526004018082815260200191505060206040518083038186803b15801561567257600080fd5b505afa158015615686573d6000803e3d6000fd5b505050506040513d602081101561569c57600080fd5b81019080805190602001909291905050509050600760009054906101000a900473ffffffffffffffffffffffffffffffffffffffff1673ffffffffffffffffffffffffffffffffffffffff16632fab9fd384846040518363ffffffff1660e01b8152600401808381526020018281526020019250505060206040518083038186803b15801561572a57600080fd5b505afa15801561573e573d6000803e3d6000fd5b505050506040513d602081101561575457600080fd5b81019080805190602001909291905050501561599d5781421161581d57600260009054906101000a900473ffffffffffffffffffffffffffffffffffffffff1673ffffffffffffffffffffffffffffffffffffffff1663e44542df846157c38486615d5490919063ffffffff16565b6040518363ffffffff1660e01b81526004018083815260200182815260200192505050600060405180830381600087803b15801561580057600080fd5b505af1158015615814573d6000803e3d6000fd5b505050506158c5565b600260009054906101000a900473ffffffffffffffffffffffffffffffffffffffff1673ffffffffffffffffffffffffffffffffffffffff1663e44542df8461586f8442615d5490919063ffffffff16565b6040518363ffffffff1660e01b81526004018083815260200182815260200192505050600060405180830381600087803b1580156158ac57600080fd5b505af11580156158c0573d6000803e3d6000fd5b505050505b600860009054906101000a900473ffffffffffffffffffffffffffffffffffffffff1673ffffffffffffffffffffffffffffffffffffffff1663c2b66904846040518263ffffffff1660e01b815260040180828152602001915050600060405180830381600087803b15801561593a57600080fd5b505af115801561594e573d6000803e3d6000fd5b50505050827ff42bff50b2d4e041c7d3bdb0a7934ee7210c0c43a7c82e269c259d4af24482836159878385615d5490919063ffffffff16565b6040518082815260200191505060405180910390a25b505050565b600260058111156159af57fe5b600360009054906101000a900473ffffffffffffffffffffffffffffffffffffffff1673ffffffffffffffffffffffffffffffffffffffff1663ffde0c74836040518263ffffffff1660e01b81526004018082815260200191505060206040518083038186803b158015615a2257600080fd5b505afa158015615a36573d6000803e3d6000fd5b505050506040513d6020811015615a4c57600080fd5b810190808051906020019092919050505014615a6757600080fd5b6000600360009054906101000a900473ffffffffffffffffffffffffffffffffffffffff1673ffffffffffffffffffffffffffffffffffffffff16638851470d836040518263ffffffff1660e01b81526004018082815260200191505060606040518083038186803b158015615adc57600080fd5b505afa158015615af0573d6000803e3d6000fd5b505050506040513d6060811015615b0657600080fd5b8101908080519060200190929190805190602001909291908051906020019092919050505092505050428111615d5057600860009054906101000a900473ffffffffffffffffffffffffffffffffffffffff1673ffffffffffffffffffffffffffffffffffffffff16639d60d53e836040518263ffffffff1660e01b815260040180828152602001915050600060405180830381600087803b158015615bab57600080fd5b505af1158015615bbf573d6000803e3d6000fd5b50505050600260009054906101000a900473ffffffffffffffffffffffffffffffffffffffff1673ffffffffffffffffffffffffffffffffffffffff1663f5de83978360036005811115615c0f57fe5b6040518363ffffffff1660e01b81526004018083815260200182815260200192505050600060405180830381600087803b158015615c4c57600080fd5b505af1158015615c60573d6000803e3d6000fd5b50505050600860009054906101000a900473ffffffffffffffffffffffffffffffffffffffff1673ffffffffffffffffffffffffffffffffffffffff16636fee856a836040518263ffffffff1660e01b815260040180828152602001915050600060405180830381600087803b158015615cd957600080fd5b505af1158015615ced573d6000803e3d6000fd5b50505050817f44eba4bcf780a2012259962cf19bf1777051e027304e22dd8e324b0cefb4be266002600360405180836005811115615d2757fe5b60ff168152602001826005811115615d3b57fe5b60ff1681526020019250505060405180910390a25b5050565b600080828401905083811015615d6657fe5b809150509291505056fe416363657373206973206f6e6c7920616c6c6f7765642066726f6d20737065636966696320636f6e7472616374a265627a7a72315820d3af62a39b24ec861484366da4edf90e1e9e78a62c79a4a6d64b700c9bd3542964736f6c63430005110032",
  "source": "/**\r\n * @title GamesManager\r\n *\r\n * @author @wafflemakr @karl @vikrammandal @Xaleee\r\n\r\n *\r\n */\r\n//modifier class (DSAuth )\r\n//Event class ( DSNote )\r\n//\r\n// This program is free software: you can redistribute it and/or modify\r\n// it under the terms of the GNU General Public License as published by\r\n// the Free Software Foundation, either version 3 of the License, or\r\n// (at your option) any later version.\r\n\r\n// This program is distributed in the hope that it will be useful,\r\n// but WITHOUT ANY WARRANTY; without even the implied warranty of\r\n// MERCHANTABILITY or FITNESS FOR A PARTICULAR PURPOSE.  See the\r\n// GNU General Public License for more details.\r\n\r\n// You should have received a copy of the GNU General Public License\r\n// along with this program.  If not, see <http://www.gnu.org/licenses/>.\r\n\r\npragma solidity ^0.5.5;\r\n\r\nimport '../proxy/Proxied.sol';\r\nimport \"../databases/GMSetterDB.sol\";\r\nimport \"../databases/GMGetterDB.sol\";\r\nimport \"../endowment/EndowmentFund.sol\";\r\nimport \"./Forfeiter.sol\";\r\nimport \"../algorithm/Betting.sol\";\r\nimport \"../algorithm/HitsResolveAlgo.sol\";\r\nimport \"../algorithm/RarityCalculator.sol\";\r\nimport \"../databases/ProfileDB.sol\";\r\nimport \"../../libs/SafeMath.sol\";\r\nimport '../../authority/Guard.sol';\r\nimport '../../mocks/MockERC721Token.sol';\r\nimport \"./GameStore.sol\";\r\nimport \"./GameCreation.sol\";\r\nimport \"../endowment/KtyUniswap.sol\";\r\n\r\ncontract GameManager is Proxied, Guard {\r\n    using SafeMath for uint256;\r\n\r\n    //Contract Variables\r\n    GMSetterDB public gmSetterDB;\r\n    GMGetterDB public gmGetterDB;\r\n    EndowmentFund public endowmentFund;\r\n    Forfeiter public forfeiter;\r\n    Betting public betting;\r\n    GameStore public gameStore;\r\n    GameCreation public gameCreation;\r\n\r\n    enum eGameState {WAITING, PRE_GAME, MAIN_GAME, GAME_OVER, CLAIMING, CANCELLED}\r\n\r\n    //EVENTS\r\n    event NewSupporter(uint indexed gameId, address supporter, address indexed playerSupported);\r\n    event PressStart(uint indexed gameId, address player);\r\n    event GameStateChanged(uint indexed gameId, eGameState old_state, eGameState new_state);\r\n    event GameEnded(uint indexed gameId, address indexed winner, address indexed loser, uint pointsBlack, uint pointsRed);\r\n    event GameExtended(uint indexed gameId, uint newEndTime);\r\n\r\n    modifier onlyGamePlayer(uint gameId, address player) {\r\n        require(ProfileDB(proxy.getContract(CONTRACT_NAME_PROFILE_DB)).getCivicId(player) > 0);\r\n        require(gmGetterDB.isPlayer(gameId, player));\r\n        _;\r\n    }\r\n\r\n    /**\r\n    * @dev Sets related contracts\r\n    * @dev Can be called only by the owner of this contract\r\n    */\r\n    function initialize() external onlyOwner {\r\n\r\n        gmSetterDB = GMSetterDB(proxy.getContract(CONTRACT_NAME_GM_SETTER_DB));\r\n        gmGetterDB = GMGetterDB(proxy.getContract(CONTRACT_NAME_GM_GETTER_DB));\r\n        endowmentFund = EndowmentFund(proxy.getContract(CONTRACT_NAME_ENDOWMENT_FUND));\r\n        forfeiter = Forfeiter(proxy.getContract(CONTRACT_NAME_FORFEITER));\r\n        betting = Betting(proxy.getContract(CONTRACT_NAME_BETTING));\r\n        gameStore = GameStore(proxy.getContract(CONTRACT_NAME_GAMESTORE));\r\n        gameCreation = GameCreation(proxy.getContract(CONTRACT_NAME_GAMECREATION));\r\n    }\r\n\r\n    /**\r\n     * @dev Betters pay a ticket fee to participate in betting .\r\n     *      Betters can join before and even a live game.\r\n     */\r\n    function participate\r\n    (\r\n        uint gameId,\r\n        address playerToSupport\r\n    )\r\n        public\r\n        payable\r\n        onlyProxy onlyBettor\r\n        onlyGamePlayer(gameId, playerToSupport)\r\n    {\r\n        require(msg.value > 0);\r\n\r\n        uint gameState = gmGetterDB.getGameState(gameId);\r\n\r\n        address supporter = getOriginalSender();\r\n\r\n        require(supporter != playerToSupport);\r\n\r\n        //Before GAME_OVER\r\n        require(gameState <= 2);\r\n\r\n        //pay ticket fee\r\n        (uint etherForSwap, uint ticketFeeKTY) = gameStore.getTicketFee(gameId);\r\n        require(endowmentFund.contributeKTY.value(msg.value)(supporter, etherForSwap, ticketFeeKTY));\r\n\r\n        require(gmSetterDB.addBettor(gameId, supporter, playerToSupport));\r\n\r\n        (,uint preStartTime,) = gmGetterDB.getGameTimes(gameId);\r\n\r\n        if (gameState == 0 || gameState == 1) forfeiter.checkGameStatus(gameId, gameState);\r\n        //Check again to see if forfeited\r\n        gameState = gmGetterDB.getGameState(gameId);\r\n\r\n        //Update state if reached prestart time\r\n        //Include check game state because it can be called from the bet function\r\n        if ((gameState == uint(eGameState.WAITING)) && (preStartTime <= now)){\r\n            gameCreation.deleteCronjob(gameId);\r\n            gmSetterDB.updateGameState(gameId, uint(eGameState.PRE_GAME));\r\n            emit GameStateChanged(gameId, eGameState.WAITING, eGameState.PRE_GAME);\r\n        }\r\n\r\n        emit NewSupporter(gameId, supporter, playerToSupport);\r\n    }\r\n\r\n    /**\r\n     * @dev only both Actual players can call\r\n     */\r\n    function startGame\r\n    (\r\n        uint gameId,\r\n        uint randomNum,\r\n        uint genes\r\n    )\r\n        external\r\n        onlyProxy onlyPlayer\r\n        onlyGamePlayer(gameId, getOriginalSender())\r\n    {\r\n        uint gameState = gmGetterDB.getGameState(gameId);\r\n        forfeiter.checkGameStatus(gameId, gameState);\r\n\r\n        gameState = gmGetterDB.getGameState(gameId);\r\n\r\n        if(gameState == uint(eGameState.PRE_GAME)){\r\n\r\n            address player = getOriginalSender();\r\n            uint kittieId = gmGetterDB.getKittieInGame(gameId, player);\r\n            \r\n            gameStore.start(gameId, player, randomNum);\r\n\r\n            // (,,,,,,,,,uint genes) = MockERC721Token(proxy.getContract(CONTRACT_NAME_CRYPTOKITTIES)).getKitty(kittieId);\r\n            // uint genes = MockERC721Token(proxy.getContract(CONTRACT_NAME_CRYPTOKITTIES)).getKitty(kittieId);\r\n            betting.setOriginalDefenseLevel(gameId, player, RarityCalculator(proxy.getContract(CONTRACT_NAME_RARITYCALCULATOR)).getDefenseLevel(kittieId, genes));\r\n\r\n            address opponentPlayer = gameStore.getOpponent(gameId, player);\r\n\r\n            emit PressStart(gameId, player);\r\n\r\n            //Both Players Hit start\r\n            if (gameStore.didHitStart(gameId, opponentPlayer)){\r\n                //Call betting to set fight map\r\n                betting.startGame(gameId, randomNum, gameStore.getRandom(gameId, opponentPlayer));\r\n                \r\n                gameCreation.deleteCronjob(gameId);\r\n\r\n                //GameStarts\r\n                gmSetterDB.updateGameState(gameId, uint(eGameState.MAIN_GAME));\r\n                endowmentFund.updateHoneyPotState(gameId, 3);\r\n                emit GameStateChanged(gameId, eGameState.PRE_GAME, eGameState.MAIN_GAME);\r\n            }\r\n        }\r\n    }\r\n\r\n    /**\r\n     * @dev checks to see if current jackpot is at least 10 times (10x)\r\n     *  the amount of funds originally placed in jackpot\r\n     */\r\n    function checkPerformance(uint gameId) internal {\r\n        (,,uint gameEndTime) = gmGetterDB.getGameTimes(gameId);\r\n        uint timeExtension = gameStore.getTimeExtension(gameId);\r\n\r\n        if(gameStore.checkPerformanceHelper(gameId, gameEndTime)){\r\n            if(now <= gameEndTime)\r\n                gmSetterDB.updateEndTime(gameId, gameEndTime.add(timeExtension));\r\n            else\r\n                gmSetterDB.updateEndTime(gameId, now.add(timeExtension));\r\n            gameCreation.rescheduleCronJob(gameId);\r\n            emit GameExtended(gameId, gameEndTime.add(timeExtension));\r\n        }\r\n    }\r\n\r\n    /**\r\n     * @dev KTY tokens are sent to endowment balance, Eth gets added to ongoing game honeypot\r\n     * @author Felipe\r\n     * @author Karl\r\n     * @author Vikrammandal\r\n     */\r\n    function bet\r\n    (\r\n        uint gameId, uint randomNum\r\n    )\r\n        external payable\r\n        onlyProxy onlyBettor\r\n    {\r\n        require(msg.value > 0);\r\n\r\n        uint gameState = gmGetterDB.getGameState(gameId);\r\n\r\n        address supportedPlayer;\r\n        bool payedFee;\r\n        \r\n        require(gameState == uint(eGameState.MAIN_GAME));\r\n        \r\n        address sender = getOriginalSender();\r\n        \r\n        if(!(gmGetterDB.isPlayer(gameId, sender))){\r\n            (, supportedPlayer, payedFee,) = gmGetterDB.getSupporterInfo(gameId, sender);\r\n            require(payedFee); //Needs to call participate first if false\r\n        }\r\n        else{\r\n            supportedPlayer = sender;\r\n        }\r\n\r\n        (uint etherForSwap, uint bettingFeeKTY) = gameStore.getBettingFee(gameId);\r\n\r\n        //Transfer Funds to endowment\r\n        require(endowmentFund.contributeETH.value(msg.value.sub(etherForSwap))(gameId));\r\n        //pay ticket fee\r\n        require(endowmentFund.contributeKTY.value(etherForSwap)(sender, etherForSwap, bettingFeeKTY));\r\n        //require(endowmentFund.contributeKTY(sender, gameStore.getBettingFee(gameId)));\r\n\r\n        // Update Random\r\n        HitsResolve(proxy.getContract(CONTRACT_NAME_HITSRESOLVE)).calculateCurrentRandom(gameId, randomNum);\r\n        \r\n        address opponentPlayer = gameStore.getOpponent(gameId, supportedPlayer);\r\n        \r\n        //Send bet to betting algo, to decide attacks\r\n        betting.bet(gameId, sender, msg.value, supportedPlayer, opponentPlayer, randomNum);\r\n\r\n        //Update bettor's total bet\r\n        gmSetterDB.updateBettor(gameId, sender, msg.value, supportedPlayer);\r\n\r\n        if (sender != supportedPlayer) gameStore.updateTopbettors(gameId, sender, supportedPlayer);\r\n\r\n        // check underperforming game if one minut\r\n        checkPerformance(gameId);\r\n\r\n        //Check if game has ended\r\n        gameEnd(gameId);\r\n    }\r\n\r\n    /**\r\n     * @dev game comes to an end at time duration,continously check game time end\r\n     */\r\n    function gameEnd(uint gameId) internal {\r\n        require(gmGetterDB.getGameState(gameId) == uint(eGameState.MAIN_GAME));\r\n\r\n        (,,uint endTime) = gmGetterDB.getGameTimes(gameId);\r\n\r\n        if ( endTime <= now){\r\n            gameCreation.deleteCronjob(gameId);\r\n            gmSetterDB.updateGameState(gameId, uint(eGameState.GAME_OVER));\r\n            gameCreation.removeKitties(gameId);\r\n            emit GameStateChanged(gameId, eGameState.MAIN_GAME, eGameState.GAME_OVER);\r\n        }\r\n    }\r\n\r\n    //Function to call gameEnd from Cronjob\r\n    function gameEndCron(uint gameId) \r\n        external\r\n        onlyContract(CONTRACT_NAME_GAMECREATION)\r\n    {\r\n        checkPerformance(gameId);\r\n        gameEnd(gameId);\r\n    }\r\n\r\n    /**\r\n     * @dev Determine winner of game based on  **HitResolver **\r\n     */\r\n    function finalize(uint gameId, uint randomNum) external onlyProxy {\r\n        require(gmGetterDB.getGameState(gameId) == uint(eGameState.GAME_OVER));\r\n\r\n        (address playerBlack, address playerRed,,) = gmGetterDB.getGamePlayers(gameId);\r\n\r\n        (address winner, address loser, uint256 pointsBlack, uint256 pointsRed) = gameStore.calculateWinner(\r\n            gameId, playerBlack, playerRed, randomNum\r\n        );\r\n\r\n        //Store Winners in DB\r\n        gmSetterDB.setWinners(gameId, winner, gameStore.getTopBettor(gameId, winner),\r\n            gameStore.getSecondTopBettor(gameId, winner));\r\n\r\n        //Lock Honeypot Final Details\r\n        gmSetterDB.storeHoneypotDetails(gameId);\r\n\r\n        gameCreation.updateKitties(winner, loser, gameId);\r\n\r\n        (uint256 totalETHinHoneypot,) = gmGetterDB.getFinalHoneypot(gameId);\r\n        endowmentFund.addETHtoPool(gameId, loser);\r\n\r\n        //Set to claiming\r\n        endowmentFund.updateHoneyPotState(gameId, 5);\r\n\r\n        // update kittie redemption fee dynamically to a percentage of the final honey pot\r\n        gameStore.updateKittieRedemptionFee(gameId); \r\n\r\n        //Send Finalize reward\r\n        endowmentFund.sendFinalizeRewards(getOriginalSender());\r\n\r\n        gmSetterDB.updateGameState(gameId, uint(eGameState.CLAIMING));\r\n\r\n        emit GameStateChanged(gameId, eGameState.MAIN_GAME, eGameState.CLAIMING);\r\n\r\n        emit GameEnded(gameId, winner, loser, pointsBlack, pointsRed);\r\n    }\r\n    \r\n\r\n    /**\r\n     * @dev Cancels the game before the game starts\r\n     */\r\n    function cancelGame(uint gameId) external onlyContract(CONTRACT_NAME_FORFEITER) {\r\n        uint gameState = gmGetterDB.getGameState(gameId);\r\n        require(gameState == uint(eGameState.WAITING) ||\r\n                gameState == uint(eGameState.PRE_GAME));\r\n\r\n        gmSetterDB.updateGameState(gameId, uint(eGameState.CANCELLED));\r\n\r\n        //Set to forfeited\r\n        endowmentFund.updateHoneyPotState(gameId, 4);\r\n        gameCreation.removeKitties(gameId);\r\n\r\n        gameCreation.deleteCronjob(gameId);\r\n        gameStore.startAfterCancel();\r\n\r\n    }\r\n}\r\n",
  "sourcePath": "C:\\Users\\Alex\\Desktop\\MyProjects\\contracts\\contracts\\modules\\gamemanager\\GameManager.sol",
  "compiler": {
    "name": "solc",
    "version": "0.5.17+commit.d19bba13.Emscripten.clang"
  },
  "schemaVersion": "3.0.11",
  "updatedAt": "2020-06-16T13:44:07.559Z",
  "devdoc": {
    "methods": {
      "bet(uint256,uint256)": {
        "author": "FelipeKarlVikrammandal",
        "details": "KTY tokens are sent to endowment balance, Eth gets added to ongoing game honeypot"
      },
      "cancelGame(uint256)": {
        "details": "Cancels the game before the game starts"
      },
      "finalize(uint256,uint256)": {
        "details": "Determine winner of game based on  **HitResolver **"
      },
      "initialize()": {
        "details": "Sets related contractsCan be called only by the owner of this contract"
      },
      "participate(uint256,address)": {
        "details": "Betters pay a ticket fee to participate in betting .     Betters can join before and even a live game."
      },
      "startGame(uint256,uint256,uint256)": {
        "details": "only both Actual players can call"
      }
    }
  },
  "userdoc": {
    "methods": {
      "setProxy(address)": {
        "notice": "Set/update address of Proxy contract"
      }
    }
  }
}