{
  "contractName": "GameStore",
  "abi": [
    {
      "constant": true,
      "inputs": [
        {
          "internalType": "uint256",
          "name": "",
          "type": "uint256"
        },
        {
          "internalType": "address",
          "name": "",
          "type": "address"
        }
      ],
      "name": "gameByPlayer",
      "outputs": [
        {
          "internalType": "uint256",
          "name": "randomNum",
          "type": "uint256"
        },
        {
          "internalType": "bool",
          "name": "pressedStart",
          "type": "bool"
        },
        {
          "internalType": "address",
          "name": "topBettor",
          "type": "address"
        },
        {
          "internalType": "address",
          "name": "secondTopBettor",
          "type": "address"
        }
      ],
      "payable": false,
      "stateMutability": "view",
      "type": "function"
    },
    {
      "constant": true,
      "inputs": [
        {
          "internalType": "uint256",
          "name": "",
          "type": "uint256"
        }
      ],
      "name": "gameSettings",
      "outputs": [
        {
          "internalType": "uint256",
          "name": "bettingFee",
          "type": "uint256"
        },
        {
          "internalType": "uint256",
          "name": "ticketFee",
          "type": "uint256"
        },
        {
          "internalType": "uint256",
          "name": "redemptionFee",
          "type": "uint256"
        },
        {
          "internalType": "uint256",
          "name": "kittieHellExpirationTime",
          "type": "uint256"
        },
        {
          "internalType": "uint256",
          "name": "honeypotExpirationTime",
          "type": "uint256"
        },
        {
          "internalType": "uint256",
          "name": "minimumContributors",
          "type": "uint256"
        },
        {
          "internalType": "uint256",
          "name": "timeExtension",
          "type": "uint256"
        },
        {
          "internalType": "uint256",
          "name": "performanceTime",
          "type": "uint256"
        }
      ],
      "payable": false,
      "stateMutability": "view",
      "type": "function"
    },
    {
      "constant": true,
      "inputs": [],
      "name": "gameVarAndFee",
      "outputs": [
        {
          "internalType": "contract GameVarAndFee",
          "name": "",
          "type": "address"
        }
      ],
      "payable": false,
      "stateMutability": "view",
      "type": "function"
    },
    {
      "constant": true,
      "inputs": [],
      "name": "gmGetterDB",
      "outputs": [
        {
          "internalType": "contract GMGetterDB",
          "name": "",
          "type": "address"
        }
      ],
      "payable": false,
      "stateMutability": "view",
      "type": "function"
    },
    {
      "constant": true,
      "inputs": [],
      "name": "hitsResolve",
      "outputs": [
        {
          "internalType": "contract HitsResolve",
          "name": "",
          "type": "address"
        }
      ],
      "payable": false,
      "stateMutability": "view",
      "type": "function"
    },
    {
      "constant": true,
      "inputs": [],
      "name": "owner",
      "outputs": [
        {
          "internalType": "address payable",
          "name": "",
          "type": "address"
        }
      ],
      "payable": false,
      "stateMutability": "view",
      "type": "function"
    },
    {
      "constant": true,
      "inputs": [],
      "name": "proxy",
      "outputs": [
        {
          "internalType": "contract ProxyBase",
          "name": "",
          "type": "address"
        }
      ],
      "payable": false,
      "stateMutability": "view",
      "type": "function"
    },
    {
      "constant": true,
      "inputs": [],
      "name": "scheduler",
      "outputs": [
        {
          "internalType": "contract Scheduler",
          "name": "",
          "type": "address"
        }
      ],
      "payable": false,
      "stateMutability": "view",
      "type": "function"
    },
    {
      "constant": false,
      "inputs": [
        {
          "internalType": "contract ProxyBase",
          "name": "_proxy",
          "type": "address"
        }
      ],
      "name": "setProxy",
      "outputs": [],
      "payable": false,
      "stateMutability": "nonpayable",
      "type": "function"
    },
    {
      "constant": true,
      "inputs": [],
      "name": "timeFrame",
      "outputs": [
        {
          "internalType": "contract TimeFrame",
          "name": "",
          "type": "address"
        }
      ],
      "payable": false,
      "stateMutability": "view",
      "type": "function"
    },
    {
      "constant": false,
      "inputs": [
        {
          "internalType": "address payable",
          "name": "newOwner",
          "type": "address"
        }
      ],
      "name": "transferOwnership",
      "outputs": [],
      "payable": false,
      "stateMutability": "nonpayable",
      "type": "function"
    },
    {
      "constant": false,
      "inputs": [],
      "name": "initialize",
      "outputs": [],
      "payable": false,
      "stateMutability": "nonpayable",
      "type": "function"
    },
    {
      "constant": false,
      "inputs": [
        {
          "internalType": "uint256",
          "name": "gameId",
          "type": "uint256"
        }
      ],
      "name": "lockVars",
      "outputs": [],
      "payable": false,
      "stateMutability": "nonpayable",
      "type": "function"
    },
    {
      "constant": false,
      "inputs": [
        {
          "internalType": "uint256",
          "name": "gameId",
          "type": "uint256"
        }
      ],
      "name": "lockVarsAdmin",
      "outputs": [],
      "payable": false,
      "stateMutability": "nonpayable",
      "type": "function"
    },
    {
      "constant": true,
      "inputs": [
        {
          "internalType": "uint256",
          "name": "gameId",
          "type": "uint256"
        }
      ],
      "name": "getDistributionRates",
      "outputs": [
        {
          "internalType": "uint256[5]",
          "name": "",
          "type": "uint256[5]"
        }
      ],
      "payable": false,
      "stateMutability": "view",
      "type": "function"
    },
    {
      "constant": true,
      "inputs": [
        {
          "internalType": "uint256",
          "name": "percentageHoneyPot",
          "type": "uint256"
        },
        {
          "internalType": "uint256",
          "name": "_eth_amount",
          "type": "uint256"
        },
        {
          "internalType": "uint256",
          "name": "_kty_amount",
          "type": "uint256"
        }
      ],
      "name": "calculateDynamicFee",
      "outputs": [
        {
          "internalType": "uint256",
          "name": "",
          "type": "uint256"
        }
      ],
      "payable": false,
      "stateMutability": "view",
      "type": "function"
    },
    {
      "constant": false,
      "inputs": [
        {
          "internalType": "uint256",
          "name": "gameId",
          "type": "uint256"
        }
      ],
      "name": "updateKittieRedemptionFee",
      "outputs": [],
      "payable": false,
      "stateMutability": "nonpayable",
      "type": "function"
    },
    {
      "constant": false,
      "inputs": [
        {
          "internalType": "uint256",
          "name": "gameId",
          "type": "uint256"
        }
      ],
      "name": "updateTicketFee",
      "outputs": [],
      "payable": false,
      "stateMutability": "nonpayable",
      "type": "function"
    },
    {
      "constant": false,
      "inputs": [
        {
          "internalType": "uint256",
          "name": "gameId",
          "type": "uint256"
        }
      ],
      "name": "updateBettingFee",
      "outputs": [],
      "payable": false,
      "stateMutability": "nonpayable",
      "type": "function"
    },
    {
      "constant": true,
      "inputs": [
        {
          "internalType": "uint256",
          "name": "gameId",
          "type": "uint256"
        }
      ],
      "name": "getKittieExpirationTime",
      "outputs": [
        {
          "internalType": "uint256",
          "name": "",
          "type": "uint256"
        }
      ],
      "payable": false,
      "stateMutability": "view",
      "type": "function"
    },
    {
      "constant": true,
      "inputs": [
        {
          "internalType": "uint256",
          "name": "gameId",
          "type": "uint256"
        }
      ],
      "name": "getKittieRedemptionFee",
      "outputs": [
        {
          "internalType": "uint256",
          "name": "",
          "type": "uint256"
        },
        {
          "internalType": "uint256",
          "name": "",
          "type": "uint256"
        }
      ],
      "payable": false,
      "stateMutability": "view",
      "type": "function"
    },
    {
      "constant": true,
      "inputs": [
        {
          "internalType": "uint256",
          "name": "gameId",
          "type": "uint256"
        }
      ],
      "name": "getHoneypotExpiration",
      "outputs": [
        {
          "internalType": "uint256",
          "name": "",
          "type": "uint256"
        }
      ],
      "payable": false,
      "stateMutability": "view",
      "type": "function"
    },
    {
      "constant": false,
      "inputs": [
        {
          "internalType": "uint256",
          "name": "gameId",
          "type": "uint256"
        },
        {
          "internalType": "address",
          "name": "player",
          "type": "address"
        },
        {
          "internalType": "uint256",
          "name": "randomNum",
          "type": "uint256"
        }
      ],
      "name": "start",
      "outputs": [],
      "payable": false,
      "stateMutability": "nonpayable",
      "type": "function"
    },
    {
      "constant": true,
      "inputs": [
        {
          "internalType": "uint256",
          "name": "gameId",
          "type": "uint256"
        },
        {
          "internalType": "address",
          "name": "player",
          "type": "address"
        }
      ],
      "name": "didHitStart",
      "outputs": [
        {
          "internalType": "bool",
          "name": "",
          "type": "bool"
        }
      ],
      "payable": false,
      "stateMutability": "view",
      "type": "function"
    },
    {
      "constant": true,
      "inputs": [
        {
          "internalType": "uint256",
          "name": "gameId",
          "type": "uint256"
        },
        {
          "internalType": "address",
          "name": "player",
          "type": "address"
        }
      ],
      "name": "getRandom",
      "outputs": [
        {
          "internalType": "uint256",
          "name": "",
          "type": "uint256"
        }
      ],
      "payable": false,
      "stateMutability": "view",
      "type": "function"
    },
    {
      "constant": false,
      "inputs": [
        {
          "internalType": "uint256",
          "name": "gameId",
          "type": "uint256"
        },
        {
          "internalType": "address",
          "name": "player",
          "type": "address"
        },
        {
          "internalType": "address",
          "name": "newTopBettor",
          "type": "address"
        }
      ],
      "name": "updateTopBettor",
      "outputs": [],
      "payable": false,
      "stateMutability": "nonpayable",
      "type": "function"
    },
    {
      "constant": true,
      "inputs": [
        {
          "internalType": "uint256",
          "name": "gameId",
          "type": "uint256"
        },
        {
          "internalType": "address",
          "name": "player",
          "type": "address"
        }
      ],
      "name": "getTopBettor",
      "outputs": [
        {
          "internalType": "address",
          "name": "",
          "type": "address"
        }
      ],
      "payable": false,
      "stateMutability": "view",
      "type": "function"
    },
    {
      "constant": false,
      "inputs": [
        {
          "internalType": "uint256",
          "name": "gameId",
          "type": "uint256"
        },
        {
          "internalType": "address",
          "name": "player",
          "type": "address"
        },
        {
          "internalType": "address",
          "name": "newSecondTopBettor",
          "type": "address"
        }
      ],
      "name": "updateSecondTopBettor",
      "outputs": [],
      "payable": false,
      "stateMutability": "nonpayable",
      "type": "function"
    },
    {
      "constant": true,
      "inputs": [
        {
          "internalType": "uint256",
          "name": "gameId",
          "type": "uint256"
        },
        {
          "internalType": "address",
          "name": "player",
          "type": "address"
        }
      ],
      "name": "getSecondTopBettor",
      "outputs": [
        {
          "internalType": "address",
          "name": "",
          "type": "address"
        }
      ],
      "payable": false,
      "stateMutability": "view",
      "type": "function"
    },
    {
      "constant": true,
      "inputs": [
        {
          "internalType": "uint256",
          "name": "gameId",
          "type": "uint256"
        }
      ],
      "name": "getTicketFee",
      "outputs": [
        {
          "internalType": "uint256",
          "name": "",
          "type": "uint256"
        },
        {
          "internalType": "uint256",
          "name": "",
          "type": "uint256"
        }
      ],
      "payable": false,
      "stateMutability": "view",
      "type": "function"
    },
    {
      "constant": true,
      "inputs": [
        {
          "internalType": "uint256",
          "name": "gameId",
          "type": "uint256"
        }
      ],
      "name": "getBettingFee",
      "outputs": [
        {
          "internalType": "uint256",
          "name": "",
          "type": "uint256"
        },
        {
          "internalType": "uint256",
          "name": "",
          "type": "uint256"
        }
      ],
      "payable": false,
      "stateMutability": "view",
      "type": "function"
    },
    {
      "constant": true,
      "inputs": [
        {
          "internalType": "uint256",
          "name": "gameId",
          "type": "uint256"
        }
      ],
      "name": "getMinimumContributors",
      "outputs": [
        {
          "internalType": "uint256",
          "name": "",
          "type": "uint256"
        }
      ],
      "payable": false,
      "stateMutability": "view",
      "type": "function"
    },
    {
      "constant": true,
      "inputs": [
        {
          "internalType": "uint256",
          "name": "gameId",
          "type": "uint256"
        }
      ],
      "name": "getPerformanceTimeCheck",
      "outputs": [
        {
          "internalType": "uint256",
          "name": "",
          "type": "uint256"
        }
      ],
      "payable": false,
      "stateMutability": "view",
      "type": "function"
    },
    {
      "constant": true,
      "inputs": [
        {
          "internalType": "uint256",
          "name": "gameId",
          "type": "uint256"
        }
      ],
      "name": "getTimeExtension",
      "outputs": [
        {
          "internalType": "uint256",
          "name": "",
          "type": "uint256"
        }
      ],
      "payable": false,
      "stateMutability": "view",
      "type": "function"
    },
    {
      "constant": false,
      "inputs": [
        {
          "internalType": "uint256",
          "name": "_gameId",
          "type": "uint256"
        },
        {
          "internalType": "address",
          "name": "_account",
          "type": "address"
        },
        {
          "internalType": "address",
          "name": "_supportedPlayer",
          "type": "address"
        }
      ],
      "name": "updateTopbettors",
      "outputs": [],
      "payable": false,
      "stateMutability": "nonpayable",
      "type": "function"
    },
    {
      "constant": true,
      "inputs": [
        {
          "internalType": "uint256",
          "name": "gameId",
          "type": "uint256"
        },
        {
          "internalType": "address",
          "name": "player",
          "type": "address"
        }
      ],
      "name": "getOpponent",
      "outputs": [
        {
          "internalType": "address",
          "name": "",
          "type": "address"
        }
      ],
      "payable": false,
      "stateMutability": "view",
      "type": "function"
    },
    {
      "constant": true,
      "inputs": [
        {
          "internalType": "uint256",
          "name": "gameId",
          "type": "uint256"
        },
        {
          "internalType": "address",
          "name": "player",
          "type": "address"
        }
      ],
      "name": "getCorner",
      "outputs": [
        {
          "internalType": "uint256",
          "name": "",
          "type": "uint256"
        }
      ],
      "payable": false,
      "stateMutability": "view",
      "type": "function"
    },
    {
      "constant": true,
      "inputs": [
        {
          "internalType": "uint256",
          "name": "gameId",
          "type": "uint256"
        },
        {
          "internalType": "address",
          "name": "playerBlack",
          "type": "address"
        },
        {
          "internalType": "address",
          "name": "playerRed",
          "type": "address"
        },
        {
          "internalType": "uint256",
          "name": "random",
          "type": "uint256"
        }
      ],
      "name": "calculateWinner",
      "outputs": [
        {
          "internalType": "address",
          "name": "winner",
          "type": "address"
        },
        {
          "internalType": "address",
          "name": "loser",
          "type": "address"
        },
        {
          "internalType": "uint256",
          "name": "pointsBlack",
          "type": "uint256"
        },
        {
          "internalType": "uint256",
          "name": "pointsRed",
          "type": "uint256"
        }
      ],
      "payable": false,
      "stateMutability": "view",
      "type": "function"
    },
    {
      "constant": false,
      "inputs": [],
      "name": "startAfterCancel",
      "outputs": [],
      "payable": false,
      "stateMutability": "nonpayable",
      "type": "function"
    },
    {
      "constant": false,
      "inputs": [
        {
          "internalType": "uint256",
          "name": "gameStartTime",
          "type": "uint256"
        }
      ],
      "name": "startManually",
      "outputs": [
        {
          "internalType": "bool",
          "name": "",
          "type": "bool"
        }
      ],
      "payable": false,
      "stateMutability": "nonpayable",
      "type": "function"
    },
    {
      "constant": false,
      "inputs": [],
      "name": "checkGame",
      "outputs": [
        {
          "internalType": "bool",
          "name": "",
          "type": "bool"
        }
      ],
      "payable": false,
      "stateMutability": "nonpayable",
      "type": "function"
    },
    {
      "constant": false,
      "inputs": [],
      "name": "createGameAndEpoch",
      "outputs": [],
      "payable": false,
      "stateMutability": "nonpayable",
      "type": "function"
    },
    {
      "constant": true,
      "inputs": [
        {
          "internalType": "uint256",
          "name": "gameId",
          "type": "uint256"
        },
        {
          "internalType": "uint256",
          "name": "gameEndTime",
          "type": "uint256"
        }
      ],
      "name": "checkPerformanceHelper",
      "outputs": [
        {
          "internalType": "bool",
          "name": "",
          "type": "bool"
        }
      ],
      "payable": false,
      "stateMutability": "view",
      "type": "function"
    }
  ],
  "bytecode": "0x6080604052336000806101000a81548173ffffffffffffffffffffffffffffffffffffffff021916908373ffffffffffffffffffffffffffffffffffffffff160217905550615eda806100536000396000f3fe608060405234801561001057600080fd5b50600436106102695760003560e01c80637b17998811610151578063c1dc2ddc116100c3578063ebff754a11610087578063ebff754a14610e71578063ec55688914610ed7578063f2fde38b14610f21578063f3ef7d2c14610f65578063f58f32cf14610fa7578063f9ccbdf214610ff057610269565b8063c1dc2ddc14610c60578063c97d996914610c6a578063c9fe0cef14610cd8578063cefc482614610d2e578063d1ad17bf14610e2757610269565b806397107d6d1161011557806397107d6d14610a665780639dac052e14610aaa578063a3b3bd7b14610ad8578063aa84869f14610b22578063b35a194e14610b6b578063b83d8c5214610b8d57610269565b80637b179988146109505780638129fc1c1461097e5780638ad7877a146109885780638b13b64b146109d25780638da5cb5b14610a1c57610269565b80632fab9fd3116101ea578063477d2e03116101ae578063477d2e031461071457806353d820f91461075a5780635daaf798146107c85780635f87206d146107f65780636991b5bf146108845780636e47c635146108ee57610269565b80632fab9fd31461058457806331856c71146105d457806331fa7067146106165780633422476d146106a45780633c38d0a9146106d257610269565b8063158d39cb11610231578063158d39cb1461040157806316805a29146104595780631fc75180146104e7578063228d8dcb14610531578063299202991461053b57610269565b806305931a3c1461026e5780630bc644f5146102e15780630c03955f1461034f5780630d1fd67a1461037d5780630d8d7aba146103bf575b600080fd5b61029a6004803603602081101561028457600080fd5b8101908080359060200190929190505050611052565b604051808981526020018881526020018781526020018681526020018581526020018481526020018381526020018281526020019850505050505050505060405180910390f35b61034d600480360360608110156102f757600080fd5b8101908080359060200190929190803573ffffffffffffffffffffffffffffffffffffffff169060200190929190803573ffffffffffffffffffffffffffffffffffffffff16906020019092919050505061109a565b005b61037b6004803603602081101561036557600080fd5b810190808035906020019092919050505061164e565b005b6103a96004803603602081101561039357600080fd5b810190808035906020019092919050505061181e565b6040518082815260200191505060405180910390f35b6103eb600480360360208110156103d557600080fd5b810190808035906020019092919050505061183e565b6040518082815260200191505060405180910390f35b6104576004803603606081101561041757600080fd5b8101908080359060200190929190803573ffffffffffffffffffffffffffffffffffffffff1690602001909291908035906020019092919050505061185e565b005b6104a56004803603604081101561046f57600080fd5b8101908080359060200190929190803573ffffffffffffffffffffffffffffffffffffffff169060200190929190505050611967565b604051808273ffffffffffffffffffffffffffffffffffffffff1673ffffffffffffffffffffffffffffffffffffffff16815260200191505060405180910390f35b6104ef6119e5565b604051808273ffffffffffffffffffffffffffffffffffffffff1673ffffffffffffffffffffffffffffffffffffffff16815260200191505060405180910390f35b610539611a0b565b005b6105676004803603602081101561055157600080fd5b8101908080359060200190929190505050611d34565b604051808381526020018281526020019250505060405180910390f35b6105ba6004803603604081101561059a57600080fd5b810190808035906020019092919080359060200190929190505050611d6c565b604051808215151515815260200191505060405180910390f35b610600600480360360208110156105ea57600080fd5b8101908080359060200190929190505050611f6b565b6040518082815260200191505060405180910390f35b6106626004803603604081101561062c57600080fd5b8101908080359060200190929190803573ffffffffffffffffffffffffffffffffffffffff169060200190929190505050611f8b565b604051808273ffffffffffffffffffffffffffffffffffffffff1673ffffffffffffffffffffffffffffffffffffffff16815260200191505060405180910390f35b6106d0600480360360208110156106ba57600080fd5b81019080803590602001909291905050506120ac565b005b6106fe600480360360208110156106e857600080fd5b81019080803590602001909291905050506120f8565b6040518082815260200191505060405180910390f35b6107406004803603602081101561072a57600080fd5b8101908080359060200190929190505050612118565b604051808215151515815260200191505060405180910390f35b6107c66004803603606081101561077057600080fd5b8101908080359060200190929190803573ffffffffffffffffffffffffffffffffffffffff169060200190929190803573ffffffffffffffffffffffffffffffffffffffff1690602001909291905050506122c6565b005b6107f4600480360360208110156107de57600080fd5b810190808035906020019092919050505061239d565b005b6108426004803603604081101561080c57600080fd5b8101908080359060200190929190803573ffffffffffffffffffffffffffffffffffffffff16906020019092919050505061262a565b604051808273ffffffffffffffffffffffffffffffffffffffff1673ffffffffffffffffffffffffffffffffffffffff16815260200191505060405180910390f35b6108b06004803603602081101561089a57600080fd5b81019080803590602001909291905050506126a8565b6040518082600560200280838360005b838110156108db5780820151818401526020810190506108c0565b5050505090500191505060405180910390f35b61093a6004803603604081101561090457600080fd5b8101908080359060200190929190803573ffffffffffffffffffffffffffffffffffffffff169060200190929190505050612709565b6040518082815260200191505060405180910390f35b61097c6004803603602081101561096657600080fd5b8101908080359060200190929190505050612767565b005b610986612937565b005b610990613137565b604051808273ffffffffffffffffffffffffffffffffffffffff1673ffffffffffffffffffffffffffffffffffffffff16815260200191505060405180910390f35b6109da61315d565b604051808273ffffffffffffffffffffffffffffffffffffffff1673ffffffffffffffffffffffffffffffffffffffff16815260200191505060405180910390f35b610a24613183565b604051808273ffffffffffffffffffffffffffffffffffffffff1673ffffffffffffffffffffffffffffffffffffffff16815260200191505060405180910390f35b610aa860048036036020811015610a7c57600080fd5b81019080803573ffffffffffffffffffffffffffffffffffffffff1690602001909291905050506131a8565b005b610ad660048036036020811015610ac057600080fd5b8101908080359060200190929190505050613242565b005b610ae0613335565b604051808273ffffffffffffffffffffffffffffffffffffffff1673ffffffffffffffffffffffffffffffffffffffff16815260200191505060405180910390f35b610b4e60048036036020811015610b3857600080fd5b810190808035906020019092919050505061335b565b604051808381526020018281526020019250505060405180910390f35b610b73613393565b604051808215151515815260200191505060405180910390f35b610bd960048036036040811015610ba357600080fd5b8101908080359060200190929190803573ffffffffffffffffffffffffffffffffffffffff1690602001909291905050506135f3565b60405180858152602001841515151581526020018373ffffffffffffffffffffffffffffffffffffffff1673ffffffffffffffffffffffffffffffffffffffff1681526020018273ffffffffffffffffffffffffffffffffffffffff1673ffffffffffffffffffffffffffffffffffffffff16815260200194505050505060405180910390f35b610c6861367d565b005b610cd660048036036060811015610c8057600080fd5b8101908080359060200190929190803573ffffffffffffffffffffffffffffffffffffffff169060200190929190803573ffffffffffffffffffffffffffffffffffffffff16906020019092919050505061377c565b005b610d1860048036036060811015610cee57600080fd5b81019080803590602001909291908035906020019092919080359060200190929190505050613853565b6040518082815260200191505060405180910390f35b610da460048036036080811015610d4457600080fd5b8101908080359060200190929190803573ffffffffffffffffffffffffffffffffffffffff169060200190929190803573ffffffffffffffffffffffffffffffffffffffff16906020019092919080359060200190929190505050613adb565b604051808573ffffffffffffffffffffffffffffffffffffffff1673ffffffffffffffffffffffffffffffffffffffff1681526020018473ffffffffffffffffffffffffffffffffffffffff1673ffffffffffffffffffffffffffffffffffffffff16815260200183815260200182815260200194505050505060405180910390f35b610e2f61405c565b604051808273ffffffffffffffffffffffffffffffffffffffff1673ffffffffffffffffffffffffffffffffffffffff16815260200191505060405180910390f35b610ebd60048036036040811015610e8757600080fd5b8101908080359060200190929190803573ffffffffffffffffffffffffffffffffffffffff169060200190929190505050614082565b604051808215151515815260200191505060405180910390f35b610edf6140ed565b604051808273ffffffffffffffffffffffffffffffffffffffff1673ffffffffffffffffffffffffffffffffffffffff16815260200191505060405180910390f35b610f6360048036036020811015610f3757600080fd5b81019080803573ffffffffffffffffffffffffffffffffffffffff169060200190929190505050614113565b005b610f9160048036036020811015610f7b57600080fd5b81019080803590602001909291905050506141e1565b6040518082815260200191505060405180910390f35b610fd360048036036020811015610fbd57600080fd5b8101908080359060200190929190505050614201565b604051808381526020018281526020019250505060405180910390f35b61103c6004803603604081101561100657600080fd5b8101908080359060200190929190803573ffffffffffffffffffffffffffffffffffffffff169060200190929190505050614239565b6040518082815260200191505060405180910390f35b60086020528060005260406000206000915090508060000154908060010154908060020154908060030154908060040154908060050154908060060154908060070154905088565b6040518060400160405280600b81526020017f47616d654d616e616765720000000000000000000000000000000000000000008152506110d98161439b565b60006110e58584611967565b90506000600360009054906101000a900473ffffffffffffffffffffffffffffffffffffffff1673ffffffffffffffffffffffffffffffffffffffff16630b154c9687876040518363ffffffff1660e01b8152600401808381526020018273ffffffffffffffffffffffffffffffffffffffff1673ffffffffffffffffffffffffffffffffffffffff1681526020019250505060806040518083038186803b15801561119057600080fd5b505afa1580156111a4573d6000803e3d6000fd5b505050506040513d60808110156111ba57600080fd5b810190808051906020019092919080519060200190929190805190602001909291908051906020019092919050505050505090506000600360009054906101000a900473ffffffffffffffffffffffffffffffffffffffff1673ffffffffffffffffffffffffffffffffffffffff16630b154c9688856040518363ffffffff1660e01b8152600401808381526020018273ffffffffffffffffffffffffffffffffffffffff1673ffffffffffffffffffffffffffffffffffffffff1681526020019250505060806040518083038186803b15801561129757600080fd5b505afa1580156112ab573d6000803e3d6000fd5b505050506040513d60808110156112c157600080fd5b810190808051906020019092919080519060200190929190805190602001909291908051906020019092919050505050505090508573ffffffffffffffffffffffffffffffffffffffff168373ffffffffffffffffffffffffffffffffffffffff1614611645578082111561145957856007600089815260200190815260200160002060008773ffffffffffffffffffffffffffffffffffffffff1673ffffffffffffffffffffffffffffffffffffffff16815260200190815260200160002060010160016101000a81548173ffffffffffffffffffffffffffffffffffffffff021916908373ffffffffffffffffffffffffffffffffffffffff160217905550826007600089815260200190815260200160002060008773ffffffffffffffffffffffffffffffffffffffff1673ffffffffffffffffffffffffffffffffffffffff16815260200190815260200160002060020160006101000a81548173ffffffffffffffffffffffffffffffffffffffff021916908373ffffffffffffffffffffffffffffffffffffffff160217905550611644565b6000611465888761262a565b90506000600360009054906101000a900473ffffffffffffffffffffffffffffffffffffffff1673ffffffffffffffffffffffffffffffffffffffff16630b154c968a846040518363ffffffff1660e01b8152600401808381526020018273ffffffffffffffffffffffffffffffffffffffff1673ffffffffffffffffffffffffffffffffffffffff1681526020019250505060806040518083038186803b15801561151057600080fd5b505afa158015611524573d6000803e3d6000fd5b505050506040513d608081101561153a57600080fd5b8101908080519060200190929190805190602001909291908051906020019092919080519060200190929190505050505050905080841180156115a957508773ffffffffffffffffffffffffffffffffffffffff168273ffffffffffffffffffffffffffffffffffffffff1614155b156116415787600760008b815260200190815260200160002060008973ffffffffffffffffffffffffffffffffffffffff1673ffffffffffffffffffffffffffffffffffffffff16815260200190815260200160002060020160006101000a81548173ffffffffffffffffffffffffffffffffffffffff021916908373ffffffffffffffffffffffffffffffffffffffff1602179055505b50505b5b50505050505050565b6040518060400160405280600c81526020017f47616d654372656174696f6e000000000000000000000000000000000000000081525061168d8161439b565b6000600260009054906101000a900473ffffffffffffffffffffffffffffffffffffffff1673ffffffffffffffffffffffffffffffffffffffff1663f0e52c426040518163ffffffff1660e01b815260040160206040518083038186803b1580156116f757600080fd5b505afa15801561170b573d6000803e3d6000fd5b505050506040513d602081101561172157600080fd5b81019080805190602001909291905050509050600080600360009054906101000a900473ffffffffffffffffffffffffffffffffffffffff1673ffffffffffffffffffffffffffffffffffffffff1663bd4f6d1e866040518263ffffffff1660e01b815260040180828152602001915050604080518083038186803b1580156117a957600080fd5b505afa1580156117bd573d6000803e3d6000fd5b505050506040513d60408110156117d357600080fd5b810190808051906020019092919080519060200190929190505050915091506117fd838383613853565b60086000878152602001908152602001600020600001819055505050505050565b600060086000838152602001908152602001600020600401549050919050565b600060086000838152602001908152602001600020600601549050919050565b6040518060400160405280600b81526020017f47616d654d616e6167657200000000000000000000000000000000000000000081525061189d8161439b565b60016007600086815260200190815260200160002060008573ffffffffffffffffffffffffffffffffffffffff1673ffffffffffffffffffffffffffffffffffffffff16815260200190815260200160002060010160006101000a81548160ff021916908315150217905550816007600086815260200190815260200160002060008573ffffffffffffffffffffffffffffffffffffffff1673ffffffffffffffffffffffffffffffffffffffff1681526020019081526020016000206000018190555050505050565b60006007600084815260200190815260200160002060008373ffffffffffffffffffffffffffffffffffffffff1673ffffffffffffffffffffffffffffffffffffffff16815260200190815260200160002060010160019054906101000a900473ffffffffffffffffffffffffffffffffffffffff16905092915050565b600360009054906101000a900473ffffffffffffffffffffffffffffffffffffffff1681565b6040518060400160405280600781526020017f43726f6e4a6f6200000000000000000000000000000000000000000000000000815250611a4a8161439b565b600660009054906101000a900473ffffffffffffffffffffffffffffffffffffffff1673ffffffffffffffffffffffffffffffffffffffff16639b42e5476040518163ffffffff1660e01b8152600401600060405180830381600087803b158015611ab457600080fd5b505af1158015611ac8573d6000803e3d6000fd5b50505050600560009054906101000a900473ffffffffffffffffffffffffffffffffffffffff1673ffffffffffffffffffffffffffffffffffffffff1663d65ab5f26040518163ffffffff1660e01b8152600401602060405180830381600087803b158015611b3657600080fd5b505af1158015611b4a573d6000803e3d6000fd5b505050506040513d6020811015611b6057600080fd5b8101908080519060200190929190505050600960006101000a81548160ff021916908315150217905550600160009054906101000a900473ffffffffffffffffffffffffffffffffffffffff1673ffffffffffffffffffffffffffffffffffffffff1663358177736040518060400160405280600c81526020017f5769746864726177506f6f6c00000000000000000000000000000000000000008152506040518263ffffffff1660e01b81526004018080602001828103825283818151815260200191508051906020019080838360005b83811015611c4d578082015181840152602081019050611c32565b50505050905090810190601f168015611c7a5780820380516001836020036101000a031916815260200191505b509250505060206040518083038186803b158015611c9757600080fd5b505afa158015611cab573d6000803e3d6000fd5b505050506040513d6020811015611cc157600080fd5b810190808051906020019092919050505073ffffffffffffffffffffffffffffffffffffffff166333d8cd8e6040518163ffffffff1660e01b8152600401600060405180830381600087803b158015611d1957600080fd5b505af1158015611d2d573d6000803e3d6000fd5b5050505050565b6000806000600860008581526020019081526020016000206002015490506000611d5d82614636565b90508181935093505050915091565b600080600260009054906101000a900473ffffffffffffffffffffffffffffffffffffffff1673ffffffffffffffffffffffffffffffffffffffff16631697e4b66040518163ffffffff1660e01b815260040160206040518083038186803b158015611dd757600080fd5b505afa158015611deb573d6000803e3d6000fd5b505050506040513d6020811015611e0157600080fd5b8101908080519060200190929190505050905042611e28828561479f90919063ffffffff16565b11611f6357600080600360009054906101000a900473ffffffffffffffffffffffffffffffffffffffff1673ffffffffffffffffffffffffffffffffffffffff1663589ac6a4876040518263ffffffff1660e01b8152600401808281526020019150506101006040518083038186803b158015611ea457600080fd5b505afa158015611eb8573d6000803e3d6000fd5b505050506040513d601f19601f82011682018060405250610100811015611ede57600080fd5b81019080805190602001909291908051906020019092919080519060200190929190805190602001909291909190826040018051906020019092919080519060200190929190505050505050935093505050611f44600a836147b690919063ffffffff16565b811015611f575760019350505050611f65565b60009350505050611f65565b505b92915050565b600060086000838152602001908152602001600020600501549050919050565b6000806000600360009054906101000a900473ffffffffffffffffffffffffffffffffffffffff1673ffffffffffffffffffffffffffffffffffffffff166315a40f49866040518263ffffffff1660e01b81526004018082815260200191505060806040518083038186803b15801561200357600080fd5b505afa158015612017573d6000803e3d6000fd5b505050506040513d608081101561202d57600080fd5b81019080805190602001909291908051906020019092919080519060200190929190805190602001909291905050505050915091508373ffffffffffffffffffffffffffffffffffffffff168273ffffffffffffffffffffffffffffffffffffffff1614156120a05780925050506120a6565b81925050505b92915050565b6040518060400160405280600c81526020017f47616d654372656174696f6e00000000000000000000000000000000000000008152506120eb8161439b565b6120f4826147ed565b5050565b600060086000838152602001908152602001600020600301549050919050565b60006040518060400160405280600c81526020017f47616d654372656174696f6e00000000000000000000000000000000000000008152506121598161439b565b6000600660009054906101000a900473ffffffffffffffffffffffffffffffffffffffff1673ffffffffffffffffffffffffffffffffffffffff16630b3fbd5f6040518163ffffffff1660e01b815260040160206040518083038186803b1580156121c357600080fd5b505afa1580156121d7573d6000803e3d6000fd5b505050506040513d60208110156121ed57600080fd5b810190808051906020019092919050505090506000600660009054906101000a900473ffffffffffffffffffffffffffffffffffffffff1673ffffffffffffffffffffffffffffffffffffffff16632ca12ad0836040518263ffffffff1660e01b81526004018082815260200191505060206040518083038186803b15801561227557600080fd5b505afa158015612289573d6000803e3d6000fd5b505050506040513d602081101561229f57600080fd5b810190808051906020019092919050505090506122bc8582614ca8565b9350505050919050565b6040518060400160405280600a81526020017f474d5365747465724442000000000000000000000000000000000000000000008152506123058161439b565b816007600086815260200190815260200160002060008573ffffffffffffffffffffffffffffffffffffffff1673ffffffffffffffffffffffffffffffffffffffff16815260200190815260200160002060020160006101000a81548173ffffffffffffffffffffffffffffffffffffffff021916908373ffffffffffffffffffffffffffffffffffffffff16021790555050505050565b6040518060400160405280600b81526020017f47616d654d616e616765720000000000000000000000000000000000000000008152506123dc8161439b565b6000600260009054906101000a900473ffffffffffffffffffffffffffffffffffffffff1673ffffffffffffffffffffffffffffffffffffffff16637a10546d6040518163ffffffff1660e01b815260040160206040518083038186803b15801561244657600080fd5b505afa15801561245a573d6000803e3d6000fd5b505050506040513d602081101561247057600080fd5b81019080805190602001909291905050509050600080600360009054906101000a900473ffffffffffffffffffffffffffffffffffffffff1673ffffffffffffffffffffffffffffffffffffffff1663525a8e4e866040518263ffffffff1660e01b815260040180828152602001915050604080518083038186803b1580156124f857600080fd5b505afa15801561250c573d6000803e3d6000fd5b505050506040513d604081101561252257600080fd5b8101908080519060200190929190805190602001909291905050509150915061254c838383613853565b600860008781526020019081526020016000206002018190555061262361261e42600260009054906101000a900473ffffffffffffffffffffffffffffffffffffffff1673ffffffffffffffffffffffffffffffffffffffff1663a38bcf206040518163ffffffff1660e01b815260040160206040518083038186803b1580156125d557600080fd5b505afa1580156125e9573d6000803e3d6000fd5b505050506040513d60208110156125ff57600080fd5b8101908080519060200190929190505050614e6190919063ffffffff16565b614e7d565b5050505050565b60006007600084815260200190815260200160002060008373ffffffffffffffffffffffffffffffffffffffff1673ffffffffffffffffffffffffffffffffffffffff16815260200190815260200160002060020160009054906101000a900473ffffffffffffffffffffffffffffffffffffffff16905092915050565b6126b0615d5b565b600860008381526020019081526020016000206008016005806020026040519081016040528092919082600580156126fd576020028201915b8154815260200190600101908083116126e9575b50505050509050919050565b60006007600084815260200190815260200160002060008373ffffffffffffffffffffffffffffffffffffffff1673ffffffffffffffffffffffffffffffffffffffff16815260200190815260200160002060000154905092915050565b6040518060400160405280600c81526020017f47616d654372656174696f6e00000000000000000000000000000000000000008152506127a68161439b565b6000600260009054906101000a900473ffffffffffffffffffffffffffffffffffffffff1673ffffffffffffffffffffffffffffffffffffffff16639c04b9cd6040518163ffffffff1660e01b815260040160206040518083038186803b15801561281057600080fd5b505afa158015612824573d6000803e3d6000fd5b505050506040513d602081101561283a57600080fd5b81019080805190602001909291905050509050600080600360009054906101000a900473ffffffffffffffffffffffffffffffffffffffff1673ffffffffffffffffffffffffffffffffffffffff1663bd4f6d1e866040518263ffffffff1660e01b815260040180828152602001915050604080518083038186803b1580156128c257600080fd5b505afa1580156128d6573d6000803e3d6000fd5b505050506040513d60408110156128ec57600080fd5b81019080805190602001909291908051906020019092919050505091509150612916838383613853565b60086000878152602001908152602001600020600101819055505050505050565b6000809054906101000a900473ffffffffffffffffffffffffffffffffffffffff1673ffffffffffffffffffffffffffffffffffffffff163373ffffffffffffffffffffffffffffffffffffffff161461298d57fe5b600160009054906101000a900473ffffffffffffffffffffffffffffffffffffffff1673ffffffffffffffffffffffffffffffffffffffff1663358177736040518060400160405280600d81526020017f47616d65566172416e64466565000000000000000000000000000000000000008152506040518263ffffffff1660e01b81526004018080602001828103825283818151815260200191508051906020019080838360005b83811015612a50578082015181840152602081019050612a35565b50505050905090810190601f168015612a7d5780820380516001836020036101000a031916815260200191505b509250505060206040518083038186803b158015612a9a57600080fd5b505afa158015612aae573d6000803e3d6000fd5b505050506040513d6020811015612ac457600080fd5b8101908080519060200190929190505050600260006101000a81548173ffffffffffffffffffffffffffffffffffffffff021916908373ffffffffffffffffffffffffffffffffffffffff160217905550600160009054906101000a900473ffffffffffffffffffffffffffffffffffffffff1673ffffffffffffffffffffffffffffffffffffffff1663358177736040518060400160405280600a81526020017f474d4765747465724442000000000000000000000000000000000000000000008152506040518263ffffffff1660e01b81526004018080602001828103825283818151815260200191508051906020019080838360005b83811015612bd8578082015181840152602081019050612bbd565b50505050905090810190601f168015612c055780820380516001836020036101000a031916815260200191505b509250505060206040518083038186803b158015612c2257600080fd5b505afa158015612c36573d6000803e3d6000fd5b505050506040513d6020811015612c4c57600080fd5b8101908080519060200190929190505050600360006101000a81548173ffffffffffffffffffffffffffffffffffffffff021916908373ffffffffffffffffffffffffffffffffffffffff160217905550600160009054906101000a900473ffffffffffffffffffffffffffffffffffffffff1673ffffffffffffffffffffffffffffffffffffffff1663358177736040518060400160405280600b81526020017f486974735265736f6c76650000000000000000000000000000000000000000008152506040518263ffffffff1660e01b81526004018080602001828103825283818151815260200191508051906020019080838360005b83811015612d60578082015181840152602081019050612d45565b50505050905090810190601f168015612d8d5780820380516001836020036101000a031916815260200191505b509250505060206040518083038186803b158015612daa57600080fd5b505afa158015612dbe573d6000803e3d6000fd5b505050506040513d6020811015612dd457600080fd5b8101908080519060200190929190505050600460006101000a81548173ffffffffffffffffffffffffffffffffffffffff021916908373ffffffffffffffffffffffffffffffffffffffff160217905550600160009054906101000a900473ffffffffffffffffffffffffffffffffffffffff1673ffffffffffffffffffffffffffffffffffffffff1663358177736040518060400160405280600981526020017f5363686564756c657200000000000000000000000000000000000000000000008152506040518263ffffffff1660e01b81526004018080602001828103825283818151815260200191508051906020019080838360005b83811015612ee8578082015181840152602081019050612ecd565b50505050905090810190601f168015612f155780820380516001836020036101000a031916815260200191505b509250505060206040518083038186803b158015612f3257600080fd5b505afa158015612f46573d6000803e3d6000fd5b505050506040513d6020811015612f5c57600080fd5b8101908080519060200190929190505050600560006101000a81548173ffffffffffffffffffffffffffffffffffffffff021916908373ffffffffffffffffffffffffffffffffffffffff160217905550600160009054906101000a900473ffffffffffffffffffffffffffffffffffffffff1673ffffffffffffffffffffffffffffffffffffffff1663358177736040518060400160405280600981526020017f54696d654672616d6500000000000000000000000000000000000000000000008152506040518263ffffffff1660e01b81526004018080602001828103825283818151815260200191508051906020019080838360005b83811015613070578082015181840152602081019050613055565b50505050905090810190601f16801561309d5780820380516001836020036101000a031916815260200191505b509250505060206040518083038186803b1580156130ba57600080fd5b505afa1580156130ce573d6000803e3d6000fd5b505050506040513d60208110156130e457600080fd5b8101908080519060200190929190505050600660006101000a81548173ffffffffffffffffffffffffffffffffffffffff021916908373ffffffffffffffffffffffffffffffffffffffff160217905550565b600460009054906101000a900473ffffffffffffffffffffffffffffffffffffffff1681565b600660009054906101000a900473ffffffffffffffffffffffffffffffffffffffff1681565b6000809054906101000a900473ffffffffffffffffffffffffffffffffffffffff1681565b6000809054906101000a900473ffffffffffffffffffffffffffffffffffffffff1673ffffffffffffffffffffffffffffffffffffffff163373ffffffffffffffffffffffffffffffffffffffff16146131fe57fe5b80600160006101000a81548173ffffffffffffffffffffffffffffffffffffffff021916908373ffffffffffffffffffffffffffffffffffffffff16021790555050565b600073ffffffffffffffffffffffffffffffffffffffff163373ffffffffffffffffffffffffffffffffffffffff16141561327957fe5b6132b76040518060400160405280600b81526020017f73757065725f61646d696e000000000000000000000000000000000000000000815250615a11565b613329576040517f08c379a00000000000000000000000000000000000000000000000000000000081526004018080602001828103825260108152602001807f4f6e6c792073757065722061646d696e0000000000000000000000000000000081525060200191505060405180910390fd5b613332816147ed565b50565b600260009054906101000a900473ffffffffffffffffffffffffffffffffffffffff1681565b600080600060086000858152602001908152602001600020600101549050600061338482614636565b90508181935093505050915091565b60006040518060400160405280600981526020017f5363686564756c657200000000000000000000000000000000000000000000008152506133d48161439b565b6000600660009054906101000a900473ffffffffffffffffffffffffffffffffffffffff1673ffffffffffffffffffffffffffffffffffffffff16630b3fbd5f6040518163ffffffff1660e01b815260040160206040518083038186803b15801561343e57600080fd5b505afa158015613452573d6000803e3d6000fd5b505050506040513d602081101561346857600080fd5b810190808051906020019092919050505090506000600660009054906101000a900473ffffffffffffffffffffffffffffffffffffffff1673ffffffffffffffffffffffffffffffffffffffff16632ca12ad0836040518263ffffffff1660e01b81526004018082815260200191505060206040518083038186803b1580156134f057600080fd5b505afa158015613504573d6000803e3d6000fd5b505050506040513d602081101561351a57600080fd5b810190808051906020019092919050505090506135eb6135e542600260009054906101000a900473ffffffffffffffffffffffffffffffffffffffff1673ffffffffffffffffffffffffffffffffffffffff1663a38bcf206040518163ffffffff1660e01b815260040160206040518083038186803b15801561359c57600080fd5b505afa1580156135b0573d6000803e3d6000fd5b505050506040513d60208110156135c657600080fd5b8101908080519060200190929190505050614e6190919063ffffffff16565b82614ca8565b935050505090565b6007602052816000526040600020602052806000526040600020600091509150508060000154908060010160009054906101000a900460ff16908060010160019054906101000a900473ffffffffffffffffffffffffffffffffffffffff16908060020160009054906101000a900473ffffffffffffffffffffffffffffffffffffffff16905084565b6040518060400160405280600b81526020017f47616d654d616e616765720000000000000000000000000000000000000000008152506136bc8161439b565b61377961377442600260009054906101000a900473ffffffffffffffffffffffffffffffffffffffff1673ffffffffffffffffffffffffffffffffffffffff1663a38bcf206040518163ffffffff1660e01b815260040160206040518083038186803b15801561372b57600080fd5b505afa15801561373f573d6000803e3d6000fd5b505050506040513d602081101561375557600080fd5b8101908080519060200190929190505050614e6190919063ffffffff16565b614e7d565b50565b6040518060400160405280600a81526020017f474d5365747465724442000000000000000000000000000000000000000000008152506137bb8161439b565b816007600086815260200190815260200160002060008573ffffffffffffffffffffffffffffffffffffffff1673ffffffffffffffffffffffffffffffffffffffff16815260200190815260200160002060010160016101000a81548173ffffffffffffffffffffffffffffffffffffffff021916908373ffffffffffffffffffffffffffffffffffffffff16021790555050505050565b600080841180156138645750600083115b80156138705750600082115b61387957600080fd5b6000600260009054906101000a900473ffffffffffffffffffffffffffffffffffffffff1673ffffffffffffffffffffffffffffffffffffffff1663ff22723a856040518263ffffffff1660e01b81526004018082815260200191505060206040518083038186803b1580156138ee57600080fd5b505afa158015613902573d6000803e3d6000fd5b505050506040513d602081101561391857600080fd5b810190808051906020019092919050505090506000600260009054906101000a900473ffffffffffffffffffffffffffffffffffffffff1673ffffffffffffffffffffffffffffffffffffffff166311eec7cd856040518263ffffffff1660e01b81526004018082815260200191505060206040518083038186803b1580156139a057600080fd5b505afa1580156139b4573d6000803e3d6000fd5b505050506040513d60208110156139ca57600080fd5b810190808051906020019092919050505090506000600260009054906101000a900473ffffffffffffffffffffffffffffffffffffffff1673ffffffffffffffffffffffffffffffffffffffff1663ff22723a836040518263ffffffff1660e01b81526004018082815260200191505060206040518083038186803b158015613a5257600080fd5b505afa158015613a66573d6000803e3d6000fd5b505050506040513d6020811015613a7c57600080fd5b810190808051906020019092919050505090506000613aa48285614e6190919063ffffffff16565b9050613ace620f4240613ac08a846147b690919063ffffffff16565b615c8d90919063ffffffff16565b9450505050509392505050565b6000806000806040518060400160405280600b81526020017f47616d654d616e61676572000000000000000000000000000000000000000000815250613b208161439b565b600460009054906101000a900473ffffffffffffffffffffffffffffffffffffffff1673ffffffffffffffffffffffffffffffffffffffff1663c0eef7188a8a896040518463ffffffff1660e01b8152600401808481526020018373ffffffffffffffffffffffffffffffffffffffff1673ffffffffffffffffffffffffffffffffffffffff168152602001828152602001935050505060206040518083038186803b158015613bcf57600080fd5b505afa158015613be3573d6000803e3d6000fd5b505050506040513d6020811015613bf957600080fd5b81019080805190602001909291905050509250600460009054906101000a900473ffffffffffffffffffffffffffffffffffffffff1673ffffffffffffffffffffffffffffffffffffffff1663c0eef7188a89896040518463ffffffff1660e01b8152600401808481526020018373ffffffffffffffffffffffffffffffffffffffff1673ffffffffffffffffffffffffffffffffffffffff168152602001828152602001935050505060206040518083038186803b158015613cbb57600080fd5b505afa158015613ccf573d6000803e3d6000fd5b505050506040513d6020811015613ce557600080fd5b81019080805190602001909291905050509150613dec83600360009054906101000a900473ffffffffffffffffffffffffffffffffffffffff1673ffffffffffffffffffffffffffffffffffffffff1663bacf524e8c8c6040518363ffffffff1660e01b8152600401808381526020018273ffffffffffffffffffffffffffffffffffffffff1673ffffffffffffffffffffffffffffffffffffffff1681526020019250505060206040518083038186803b158015613da357600080fd5b505afa158015613db7573d6000803e3d6000fd5b505050506040513d6020811015613dcd57600080fd5b81019080805190602001909291905050506147b690919063ffffffff16565b9250613ee282600360009054906101000a900473ffffffffffffffffffffffffffffffffffffffff1673ffffffffffffffffffffffffffffffffffffffff1663bacf524e8c8b6040518363ffffffff1660e01b8152600401808381526020018273ffffffffffffffffffffffffffffffffffffffff1673ffffffffffffffffffffffffffffffffffffffff1681526020019250505060206040518083038186803b158015613e9957600080fd5b505afa158015613ead573d6000803e3d6000fd5b505050506040513d6020811015613ec357600080fd5b81019080805190602001909291905050506147b690919063ffffffff16565b915081831115613ef757879450869350614050565b82821115613f0a5786945087935061404f565b613f12615d7d565b600360009054906101000a900473ffffffffffffffffffffffffffffffffffffffff1673ffffffffffffffffffffffffffffffffffffffff1663589ac6a48b6040518263ffffffff1660e01b8152600401808281526020019150506101006040518083038186803b158015613f8657600080fd5b505afa158015613f9a573d6000803e3d6000fd5b505050506040513d601f19601f82011682018060405250610100811015613fc057600080fd5b8101908080519060200190929190805190602001909291908051906020019092919080519060200190929190919082604001805190602001909291908051906020019092919050505050509450505050508060016002811061401e57fe5b60200201518160006002811061403057fe5b602002015111156140465788955087945061404d565b8795508894505b505b5b50945094509450949050565b600560009054906101000a900473ffffffffffffffffffffffffffffffffffffffff1681565b60006007600084815260200190815260200160002060008373ffffffffffffffffffffffffffffffffffffffff1673ffffffffffffffffffffffffffffffffffffffff16815260200190815260200160002060010160009054906101000a900460ff16905092915050565b600160009054906101000a900473ffffffffffffffffffffffffffffffffffffffff1681565b6000809054906101000a900473ffffffffffffffffffffffffffffffffffffffff1673ffffffffffffffffffffffffffffffffffffffff163373ffffffffffffffffffffffffffffffffffffffff161461416957fe5b600073ffffffffffffffffffffffffffffffffffffffff168173ffffffffffffffffffffffffffffffffffffffff16146141de57806000806101000a81548173ffffffffffffffffffffffffffffffffffffffff021916908373ffffffffffffffffffffffffffffffffffffffff1602179055505b50565b600060086000838152602001908152602001600020600701549050919050565b600080600060086000858152602001908152602001600020600001549050600061422a82614636565b90508181935093505050915091565b6000806000600360009054906101000a900473ffffffffffffffffffffffffffffffffffffffff1673ffffffffffffffffffffffffffffffffffffffff166315a40f49866040518263ffffffff1660e01b81526004018082815260200191505060806040518083038186803b1580156142b157600080fd5b505afa1580156142c5573d6000803e3d6000fd5b505050506040513d60808110156142db57600080fd5b81019080805190602001909291908051906020019092919080519060200190929190805190602001909291905050505050915091508373ffffffffffffffffffffffffffffffffffffffff168273ffffffffffffffffffffffffffffffffffffffff16141561434f57600092505050614395565b8373ffffffffffffffffffffffffffffffffffffffff168173ffffffffffffffffffffffffffffffffffffffff16141561438e57600192505050614395565b6002925050505b92915050565b600073ffffffffffffffffffffffffffffffffffffffff16600160009054906101000a900473ffffffffffffffffffffffffffffffffffffffff1673ffffffffffffffffffffffffffffffffffffffff161415614460576040517f08c379a00000000000000000000000000000000000000000000000000000000081526004018080602001828103825260088152602001807f4e6f2050726f787900000000000000000000000000000000000000000000000081525060200191505060405180910390fd5b6000600160009054906101000a900473ffffffffffffffffffffffffffffffffffffffff1673ffffffffffffffffffffffffffffffffffffffff166335817773836040518263ffffffff1660e01b81526004018080602001828103825283818151815260200191508051906020019080838360005b838110156144f05780820151818401526020810190506144d5565b50505050905090810190601f16801561451d5780820380516001836020036101000a031916815260200191505b509250505060206040518083038186803b15801561453a57600080fd5b505afa15801561454e573d6000803e3d6000fd5b505050506040513d602081101561456457600080fd5b81019080805190602001909291905050509050600073ffffffffffffffffffffffffffffffffffffffff168173ffffffffffffffffffffffffffffffffffffffff1614156145ae57fe5b8073ffffffffffffffffffffffffffffffffffffffff163373ffffffffffffffffffffffffffffffffffffffff1614614632576040517f08c379a000000000000000000000000000000000000000000000000000000000815260040180806020018281038252602d815260200180615e79602d913960400191505060405180910390fd5b5050565b600080600260009054906101000a900473ffffffffffffffffffffffffffffffffffffffff1673ffffffffffffffffffffffffffffffffffffffff1663a2209a14846040518263ffffffff1660e01b81526004018082815260200191505060206040518083038186803b1580156146ac57600080fd5b505afa1580156146c0573d6000803e3d6000fd5b505050506040513d60208110156146d657600080fd5b81019080805190602001909291905050509050600260009054906101000a900473ffffffffffffffffffffffffffffffffffffffff1673ffffffffffffffffffffffffffffffffffffffff1663fa16b2bd826040518263ffffffff1660e01b81526004018082815260200191505060206040518083038186803b15801561475c57600080fd5b505afa158015614770573d6000803e3d6000fd5b505050506040513d602081101561478657600080fd5b8101908080519060200190929190505050915050919050565b6000828211156147ab57fe5b818303905092915050565b6000808314156147c957600090506147e7565b60008284029050828482816147da57fe5b04146147e257fe5b809150505b92915050565b6147f5615d9f565b600081600001818152505060008160200181815250506000816040018181525050600260009054906101000a900473ffffffffffffffffffffffffffffffffffffffff1673ffffffffffffffffffffffffffffffffffffffff16639840060f6040518163ffffffff1660e01b815260040160206040518083038186803b15801561487e57600080fd5b505afa158015614892573d6000803e3d6000fd5b505050506040513d60208110156148a857600080fd5b8101908080519060200190929190505050816060018181525050600260009054906101000a900473ffffffffffffffffffffffffffffffffffffffff1673ffffffffffffffffffffffffffffffffffffffff166333dbee176040518163ffffffff1660e01b815260040160206040518083038186803b15801561492a57600080fd5b505afa15801561493e573d6000803e3d6000fd5b505050506040513d602081101561495457600080fd5b8101908080519060200190929190505050816080018181525050600260009054906101000a900473ffffffffffffffffffffffffffffffffffffffff1673ffffffffffffffffffffffffffffffffffffffff166368afa5416040518163ffffffff1660e01b815260040160206040518083038186803b1580156149d657600080fd5b505afa1580156149ea573d6000803e3d6000fd5b505050506040513d6020811015614a0057600080fd5b81019080805190602001909291905050508160a0018181525050600260009054906101000a900473ffffffffffffffffffffffffffffffffffffffff1673ffffffffffffffffffffffffffffffffffffffff16633e4c883f6040518163ffffffff1660e01b815260040160a06040518083038186803b158015614a8257600080fd5b505afa158015614a96573d6000803e3d6000fd5b505050506040513d601f19601f8201168201806040525060a0811015614abb57600080fd5b8101908091905050816101000181905250600260009054906101000a900473ffffffffffffffffffffffffffffffffffffffff1673ffffffffffffffffffffffffffffffffffffffff1663ae1d48a86040518163ffffffff1660e01b815260040160206040518083038186803b158015614b3457600080fd5b505afa158015614b48573d6000803e3d6000fd5b505050506040513d6020811015614b5e57600080fd5b81019080805190602001909291905050508160c0018181525050600260009054906101000a900473ffffffffffffffffffffffffffffffffffffffff1673ffffffffffffffffffffffffffffffffffffffff16631697e4b66040518163ffffffff1660e01b815260040160206040518083038186803b158015614be057600080fd5b505afa158015614bf4573d6000803e3d6000fd5b505050506040513d6020811015614c0a57600080fd5b81019080805190602001909291905050508160e00181815250508060086000848152602001908152602001600020600082015181600001556020820151816001015560408201518160020155606082015181600301556080820151816004015560a0820151816005015560c0820151816006015560e0820151816007015561010082015181600801906005614ca0929190615df1565b509050505050565b600082614e14614e05600660009054906101000a900473ffffffffffffffffffffffffffffffffffffffff1673ffffffffffffffffffffffffffffffffffffffff1663a0559ae46040518163ffffffff1660e01b815260040160206040518083038186803b158015614d1957600080fd5b505afa158015614d2d573d6000803e3d6000fd5b505050506040513d6020811015614d4357600080fd5b8101908080519060200190929190505050600660009054906101000a900473ffffffffffffffffffffffffffffffffffffffff1673ffffffffffffffffffffffffffffffffffffffff1663504a38dd6040518163ffffffff1660e01b815260040160206040518083038186803b158015614dbc57600080fd5b505afa158015614dd0573d6000803e3d6000fd5b505050506040513d6020811015614de657600080fd5b8101908080519060200190929190505050614e6190919063ffffffff16565b8461479f90919063ffffffff16565b111580614e2d5750600960009054906101000a900460ff165b15614e3b5760009050614e5b565b6001600960006101000a81548160ff021916908315150217905550600190505b92915050565b600080828401905083811015614e7357fe5b8091505092915050565b6000600660009054906101000a900473ffffffffffffffffffffffffffffffffffffffff1673ffffffffffffffffffffffffffffffffffffffff16630b3fbd5f6040518163ffffffff1660e01b815260040160206040518083038186803b158015614ee757600080fd5b505afa158015614efb573d6000803e3d6000fd5b505050506040513d6020811015614f1157600080fd5b810190808051906020019092919050505090506000600660009054906101000a900473ffffffffffffffffffffffffffffffffffffffff1673ffffffffffffffffffffffffffffffffffffffff16632ca12ad0836040518263ffffffff1660e01b81526004018082815260200191505060206040518083038186803b158015614f9957600080fd5b505afa158015614fad573d6000803e3d6000fd5b505050506040513d6020811015614fc357600080fd5b810190808051906020019092919050505090506000600960006101000a81548160ff0219169083151502179055506150af6150a942600260009054906101000a900473ffffffffffffffffffffffffffffffffffffffff1673ffffffffffffffffffffffffffffffffffffffff1663a38bcf206040518163ffffffff1660e01b815260040160206040518083038186803b15801561506057600080fd5b505afa158015615074573d6000803e3d6000fd5b505050506040513d602081101561508a57600080fd5b8101908080519060200190929190505050614e6190919063ffffffff16565b82614ca8565b1561517757600560009054906101000a900473ffffffffffffffffffffffffffffffffffffffff1673ffffffffffffffffffffffffffffffffffffffff1663d65ab5f26040518163ffffffff1660e01b8152600401602060405180830381600087803b15801561511e57600080fd5b505af1158015615132573d6000803e3d6000fd5b505050506040513d602081101561514857600080fd5b8101908080519060200190929190505050600960006101000a81548160ff021916908315150217905550615a0c565b600061522e600660009054906101000a900473ffffffffffffffffffffffffffffffffffffffff1673ffffffffffffffffffffffffffffffffffffffff1663504a38dd6040518163ffffffff1660e01b815260040160206040518083038186803b1580156151e457600080fd5b505afa1580156151f8573d6000803e3d6000fd5b505050506040513d602081101561520e57600080fd5b81019080805190602001909291905050508361479f90919063ffffffff16565b4211156152ff576152fc6152ed600660009054906101000a900473ffffffffffffffffffffffffffffffffffffffff1673ffffffffffffffffffffffffffffffffffffffff1663504a38dd6040518163ffffffff1660e01b815260040160206040518083038186803b1580156152a357600080fd5b505afa1580156152b7573d6000803e3d6000fd5b505050506040513d60208110156152cd57600080fd5b81019080805190602001909291905050508461479f90919063ffffffff16565b4261479f90919063ffffffff16565b90505b6000600160009054906101000a900473ffffffffffffffffffffffffffffffffffffffff1673ffffffffffffffffffffffffffffffffffffffff1663358177736040518060400160405280600781526020017f43726f6e4a6f62000000000000000000000000000000000000000000000000008152506040518263ffffffff1660e01b81526004018080602001828103825283818151815260200191508051906020019080838360005b838110156153c45780820151818401526020810190506153a9565b50505050905090810190601f1680156153f15780820380516001836020036101000a031916815260200191505b509250505060206040518083038186803b15801561540e57600080fd5b505afa158015615422573d6000803e3d6000fd5b505050506040513d602081101561543857600080fd5b810190808051906020019092919050505090508073ffffffffffffffffffffffffffffffffffffffff1663c19304966040518060400160405280600981526020017f47616d6553746f726500000000000000000000000000000000000000000000008152506154b08587614e6190919063ffffffff16565b6040516024016040516020818303038152906040527f228d8dcb000000000000000000000000000000000000000000000000000000007bffffffffffffffffffffffffffffffffffffffffffffffffffffffff19166020820180517bffffffffffffffffffffffffffffffffffffffffffffffffffffffff83818316178352505050506040518463ffffffff1660e01b8152600401808060200184815260200180602001838103835286818151815260200191508051906020019080838360005b8381101561558c578082015181840152602081019050615571565b50505050905090810190601f1680156155b95780820380516001836020036101000a031916815260200191505b50838103825284818151815260200191508051906020019080838360005b838110156155f25780820151818401526020810190506155d7565b50505050905090810190601f16801561561f5780820380516001836020036101000a031916815260200191505b5095505050505050602060405180830381600087803b15801561564157600080fd5b505af1158015615655573d6000803e3d6000fd5b505050506040513d602081101561566b57600080fd5b810190808051906020019092919050505050600160009054906101000a900473ffffffffffffffffffffffffffffffffffffffff1673ffffffffffffffffffffffffffffffffffffffff1663358177736040518060400160405280600c81526020017f5769746864726177506f6f6c00000000000000000000000000000000000000008152506040518263ffffffff1660e01b81526004018080602001828103825283818151815260200191508051906020019080838360005b83811015615740578082015181840152602081019050615725565b50505050905090810190601f16801561576d5780820380516001836020036101000a031916815260200191505b509250505060206040518083038186803b15801561578a57600080fd5b505afa15801561579e573d6000803e3d6000fd5b505050506040513d60208110156157b457600080fd5b810190808051906020019092919050505073ffffffffffffffffffffffffffffffffffffffff16632e964e7e85600160009054906101000a900473ffffffffffffffffffffffffffffffffffffffff1673ffffffffffffffffffffffffffffffffffffffff1663358177736040518060400160405280600b81526020017f456e646f776d656e7444420000000000000000000000000000000000000000008152506040518263ffffffff1660e01b81526004018080602001828103825283818151815260200191508051906020019080838360005b838110156158a4578082015181840152602081019050615889565b50505050905090810190601f1680156158d15780820380516001836020036101000a031916815260200191505b509250505060206040518083038186803b1580156158ee57600080fd5b505afa158015615902573d6000803e3d6000fd5b505050506040513d602081101561591857600080fd5b810190808051906020019092919050505073ffffffffffffffffffffffffffffffffffffffff16636d71894b886040518263ffffffff1660e01b81526004018082815260200191505060206040518083038186803b15801561597957600080fd5b505afa15801561598d573d6000803e3d6000fd5b505050506040513d60208110156159a357600080fd5b81019080805190602001909291905050506040518363ffffffff1660e01b81526004018083815260200182815260200192505050600060405180830381600087803b1580156159f157600080fd5b505af1158015615a05573d6000803e3d6000fd5b5050505050505b505050565b6000600160009054906101000a900473ffffffffffffffffffffffffffffffffffffffff1673ffffffffffffffffffffffffffffffffffffffff1663358177736040518060400160405280600681526020017f526f6c65444200000000000000000000000000000000000000000000000000008152506040518263ffffffff1660e01b81526004018080602001828103825283818151815260200191508051906020019080838360005b83811015615ad6578082015181840152602081019050615abb565b50505050905090810190601f168015615b035780820380516001836020036101000a031916815260200191505b509250505060206040518083038186803b158015615b2057600080fd5b505afa158015615b34573d6000803e3d6000fd5b505050506040513d6020811015615b4a57600080fd5b810190808051906020019092919050505073ffffffffffffffffffffffffffffffffffffffff16636c9cd09783615b7f615ca6565b6040518363ffffffff1660e01b815260040180806020018373ffffffffffffffffffffffffffffffffffffffff1673ffffffffffffffffffffffffffffffffffffffff168152602001828103825284818151815260200191508051906020019080838360005b83811015615c00578082015181840152602081019050615be5565b50505050905090810190601f168015615c2d5780820380516001836020036101000a031916815260200191505b50935050505060206040518083038186803b158015615c4b57600080fd5b505afa158015615c5f573d6000803e3d6000fd5b505050506040513d6020811015615c7557600080fd5b81019080805190602001909291905050509050919050565b600080828481615c9957fe5b0490508091505092915050565b6000600160009054906101000a900473ffffffffffffffffffffffffffffffffffffffff1673ffffffffffffffffffffffffffffffffffffffff163373ffffffffffffffffffffffffffffffffffffffff1614615d0557339050615d58565b6000601436036000602052601481602c37602051915050600073ffffffffffffffffffffffffffffffffffffffff168173ffffffffffffffffffffffffffffffffffffffff161415615d5357fe5b809150505b90565b6040518060a00160405280600590602082028038833980820191505090505090565b6040518060400160405280600290602082028038833980820191505090505090565b6040518061012001604052806000815260200160008152602001600081526020016000815260200160008152602001600081526020016000815260200160008152602001615deb615e31565b81525090565b8260058101928215615e20579160200282015b82811115615e1f578251825591602001919060010190615e04565b5b509050615e2d9190615e53565b5090565b6040518060a00160405280600590602082028038833980820191505090505090565b615e7591905b80821115615e71576000816000905550600101615e59565b5090565b9056fe416363657373206973206f6e6c7920616c6c6f7765642066726f6d20737065636966696320636f6e7472616374a265627a7a723158200f51d6a105588864455e42559a06bdcad154f9deb73c39f39405202d6399d92164736f6c63430005110032",
  "source": "pragma solidity ^0.5.5;\n\nimport '../proxy/Proxied.sol';\nimport \"../../GameVarAndFee.sol\";\nimport \"../databases/GMGetterDB.sol\";\nimport \"../../libs/SafeMath.sol\";\nimport \"../algorithm/HitsResolveAlgo.sol\";\nimport '../../authority/Guard.sol';\nimport \"../datetime/TimeFrame.sol\";\nimport \"../../withdrawPool/WithdrawPool.sol\";\nimport \"../gamemanager/Scheduler.sol\";\nimport \"../../CronJob.sol\";\nimport \"../databases/EndowmentDB.sol\";\n\ncontract GameStore is Proxied, Guard {\n\n    using SafeMath for uint256;\n\n    GameVarAndFee public gameVarAndFee;\n    GMGetterDB public gmGetterDB;\n    HitsResolve public hitsResolve;\n    Scheduler public scheduler;\n    TimeFrame public timeFrame;\n\n    struct Game {\n        uint randomNum; //when pressing start\n        bool pressedStart;\n        address topBettor;\n        address secondTopBettor;\n    }\n\n    struct GlobalSettings {\n        uint bettingFee;\n        uint ticketFee;\n        uint redemptionFee;\n        uint kittieHellExpirationTime;\n        uint honeypotExpirationTime;\n        uint minimumContributors;\n        //uint finalizeRewards;\n        uint timeExtension;\n        uint performanceTime;\n        uint[5] distributionRates;\n    }\n\n    //Players info in a game\n    mapping(uint => mapping(address => Game)) public gameByPlayer;\n    mapping(uint => GlobalSettings) public gameSettings;\n\n    bool gameScheduled;\n\n    function initialize() external onlyOwner {\n        gameVarAndFee = GameVarAndFee(proxy.getContract(CONTRACT_NAME_GAMEVARANDFEE));\n        gmGetterDB = GMGetterDB(proxy.getContract(CONTRACT_NAME_GM_GETTER_DB));\n        hitsResolve = HitsResolve(proxy.getContract(CONTRACT_NAME_HITSRESOLVE));\n        scheduler = Scheduler(proxy.getContract(CONTRACT_NAME_SCHEDULER));\n        timeFrame = TimeFrame(proxy.getContract(CONTRACT_NAME_TIMEFRAME));\n    }\n\n    function lock(uint gameId) internal{\n        GlobalSettings memory globalSettings;\n\n        globalSettings.bettingFee = 0;\n        globalSettings.ticketFee = 0;\n        globalSettings.redemptionFee = 0;\n        globalSettings.kittieHellExpirationTime = gameVarAndFee.getKittieExpiry();\n        globalSettings.honeypotExpirationTime = gameVarAndFee.getHoneypotExpiration();\n        globalSettings.minimumContributors = gameVarAndFee.getMinimumContributors();\n        globalSettings.distributionRates = gameVarAndFee.getDistributionRates();\n        //globalSettings.finalizeRewards = gameVarAndFee.getFinalizeRewards();\n        globalSettings.timeExtension = gameVarAndFee.getTimeExtension();\n        globalSettings.performanceTime = gameVarAndFee.getPerformanceTimeCheck();\n\n        gameSettings[gameId] = globalSettings;\n    }\n\n    function lockVars(uint gameId) external onlyContract(CONTRACT_NAME_GAMECREATION){\n        lock(gameId);\n    }\n\n    function lockVarsAdmin(uint gameId) external onlySuperAdmin{\n        lock(gameId);\n    }\n\n    function getDistributionRates(uint gameId) public view returns(uint[5] memory){\n        return gameSettings[gameId].distributionRates;\n    }\n\n    // return amount in dai\n    function calculateDynamicFee\n    (\n        uint256 percentageHoneyPot,\n        uint256 _eth_amount,\n        uint256 _kty_amount\n    )\n        public view returns(uint256)\n    {\n        require(percentageHoneyPot > 0 && _eth_amount > 0 && _kty_amount > 0);\n\n        // uint256 ethUsdPrice = gameVarAndFee.getEthUsdPrice();\n        // uint256 usdKTYPrice = gameVarAndFee.getUsdKTYPrice();\n\n        // convert ether to dai\n        uint256 portion1DAI = gameVarAndFee.convertEthToDai(_eth_amount);\n\n        // convert kty to ether, then to dai\n        uint256 portion2ETH = gameVarAndFee.convertKtyToEth(_kty_amount);\n        uint256 portion2DAI = gameVarAndFee.convertEthToDai(portion2ETH);\n\n        // get the whole amount\n        uint256 portionDAI = portion1DAI.add(portion2DAI);\n\n        // 1,000,000 is the base used for percentage setting in kittieFight\n        // for example, if percentageHoneyPot is 0.03% in real world, inside this function\n        // percentageHoneyPot = 0.03% * 1,000,1000 which is 300, thus for the need of div(1000000)\n        return portionDAI.mul(percentageHoneyPot).div(1000000);\n    }\n\n    // update kittieRedemptionFee and store in Dai\n    function updateKittieRedemptionFee(uint256 gameId)\n        public\n        onlyContract(CONTRACT_NAME_GAMEMANAGER)\n    {\n        uint256 percentageHoneyPot = gameVarAndFee.getPercentageForKittieRedemptionFee();\n        (uint256 totalEthFunds, uint256 totalKTYFunds) = gmGetterDB.getFinalHoneypot(gameId);\n\n        gameSettings[gameId].redemptionFee = calculateDynamicFee(percentageHoneyPot, totalEthFunds, totalKTYFunds);        \n\n        startGameAndCalculateEpoch(gameVarAndFee.getGameTimes().add(now));\n    }\n\n    // update Ticket Fee and store in Dai\n    function updateTicketFee(uint256 gameId)\n        public\n        onlyContract(CONTRACT_NAME_GAMECREATION)\n    {\n        uint256 percentageHoneyPot = gameVarAndFee.getPercentageForTicketFee();\n        (uint256 initialHoneypotEth, uint256 initialHoneypotKTY) = gmGetterDB.getInitialHoneypot(gameId);\n        gameSettings[gameId].ticketFee = calculateDynamicFee(percentageHoneyPot, initialHoneypotEth, initialHoneypotKTY);\n    }\n\n    // update Betting Fee and store in Dai\n    function updateBettingFee(uint256 gameId)\n        public\n        onlyContract(CONTRACT_NAME_GAMECREATION)\n    {\n        uint256 percentageHoneyPot = gameVarAndFee.getPercentageForBettingFee();\n        (uint256 initialHoneypotEth, uint256 initialHoneypotKTY) = gmGetterDB.getInitialHoneypot(gameId);\n        gameSettings[gameId].bettingFee = calculateDynamicFee(percentageHoneyPot, initialHoneypotEth, initialHoneypotKTY);\n    }\n\n    function getKittieExpirationTime(uint gameId) public view returns(uint){\n        return  gameSettings[gameId].kittieHellExpirationTime;\n    }\n\n    function getKittieRedemptionFee(uint256 gameId) public view returns(uint256, uint256) {\n        uint256 redemptionFeeDAI = gameSettings[gameId].redemptionFee;\n        uint256 redemptionFeeKTY = getKTY(redemptionFeeDAI);\n        return (redemptionFeeDAI, redemptionFeeKTY);\n    }\n    \n    function getHoneypotExpiration(uint gameId) public view returns(uint){\n        return  gameSettings[gameId].honeypotExpirationTime;\n    }\n\n    function start(uint gameId, address player, uint randomNum) external onlyContract(CONTRACT_NAME_GAMEMANAGER){\n        gameByPlayer[gameId][player].pressedStart = true;\n        gameByPlayer[gameId][player].randomNum = randomNum;\n    }\n\n    function didHitStart(uint gameId, address player) public view returns(bool){\n        return gameByPlayer[gameId][player].pressedStart;\n    }\n\n    function getRandom(uint gameId, address player) public view returns(uint){\n        return gameByPlayer[gameId][player].randomNum;\n    }\n\n    function updateTopBettor(uint gameId, address player, address newTopBettor) external onlyContract(CONTRACT_NAME_GM_SETTER_DB){\n        gameByPlayer[gameId][player].topBettor = newTopBettor;\n    }\n\n    function getTopBettor(uint gameId, address player) public view returns(address){\n        return gameByPlayer[gameId][player].topBettor;\n    }\n\n    function updateSecondTopBettor(uint gameId, address player, address newSecondTopBettor) external onlyContract(CONTRACT_NAME_GM_SETTER_DB){\n        gameByPlayer[gameId][player].secondTopBettor = newSecondTopBettor;\n    }\n\n    function getSecondTopBettor(uint gameId, address player) public view returns(address){\n        return gameByPlayer[gameId][player].secondTopBettor;\n    }\n\n    function getTicketFee(uint256 gameId) public view returns(uint256, uint256){\n        uint256 ticketFeeDAI = gameSettings[gameId].ticketFee;\n        uint256 ticketFeeKTY = getKTY(ticketFeeDAI);\n        return (ticketFeeDAI, ticketFeeKTY);\n    }\n\n    function getBettingFee(uint256 gameId) public view returns(uint256, uint256){\n        uint256 bettingFeeDAI = gameSettings[gameId].bettingFee;\n        uint256 bettingFeeKTY = getKTY(bettingFeeDAI);\n        return (bettingFeeDAI, bettingFeeKTY);\n    }\n\n    function getMinimumContributors(uint gameId) public view returns(uint){\n        return gameSettings[gameId].minimumContributors;\n    }\n    \n    // stale function\n    // function getFinalizeRewards(uint gameId) public view returns(uint){\n    //     // get finalize rewards in dai\n    //     uint256 rewardsDAI = gameSettings[gameId].finalizeRewards;\n\n    //     return getKTY(rewardsDAI);\n    // }\n\n    function getKTY(uint256 _DAI) internal view returns(uint256) {\n        uint256 _ETH = gameVarAndFee.convertDaiToEth(_DAI);\n        return gameVarAndFee.convertEthToKty(_ETH);\n    }\n\n    function getPerformanceTimeCheck(uint gameId) public view returns(uint){\n        return gameSettings[gameId].performanceTime;\n    }\n\n    function getTimeExtension(uint gameId) public view returns(uint){\n        return gameSettings[gameId].timeExtension;\n    }\n\n    function updateTopbettors(uint256 _gameId, address _account, address _supportedPlayer)\n        external\n        onlyContract(CONTRACT_NAME_GAMEMANAGER)\n        // onlyExistentGame(_gameId)\n    {\n\n        address topBettor = getTopBettor(_gameId, _supportedPlayer);\n        (uint256 bettorTotal,,,) = gmGetterDB.getSupporterInfo(_gameId, _account);\n        (uint256 topBettorEth,,,) = gmGetterDB.getSupporterInfo(_gameId, topBettor);\n        \n        if(topBettor != _account){\n            if (bettorTotal > topBettorEth){\n                //If topBettor is already the account, dont update\n                gameByPlayer[_gameId][_supportedPlayer].topBettor = _account;\n                gameByPlayer[_gameId][_supportedPlayer].secondTopBettor = topBettor;\n            }\n            else {\n                address secondTopBettor = getSecondTopBettor(_gameId, _supportedPlayer);\n                (uint256 secondTopBettorEth,,,) = gmGetterDB.getSupporterInfo(_gameId, secondTopBettor);\n                if (bettorTotal > secondTopBettorEth && secondTopBettor != _account){\n                    gameByPlayer[_gameId][_supportedPlayer].secondTopBettor = _account;\n                }\n            }\n        }\n    }\n\n    function getOpponent(uint gameId, address player) public view returns(address){\n        (address playerBlack, address playerRed,,) = gmGetterDB.getGamePlayers(gameId);\n        if(playerBlack == player) return playerRed;\n        return playerBlack;\n    }\n\n    function getCorner(uint gameId, address player) public view returns(uint){\n        (address playerBlack, address playerRed,,) = gmGetterDB.getGamePlayers(gameId);\n        if(playerBlack == player) return 0;\n        if(playerRed == player) return 1;\n        return 2;\n    }\n\n    function calculateWinner\n    (\n        uint gameId, address playerBlack, address playerRed, uint random\n    )\n        external view\n        onlyContract(CONTRACT_NAME_GAMEMANAGER)\n        returns(address winner, address loser, uint pointsBlack, uint pointsRed)\n    {\n        pointsBlack = hitsResolve.calculateFinalPoints(gameId, playerBlack, random);\n        pointsRed = hitsResolve.calculateFinalPoints(gameId, playerRed, random);\n\n        //Added to make game more balanced\n        pointsBlack = (gmGetterDB.getTotalBet(gameId, playerBlack)).mul(pointsBlack);\n        pointsRed = (gmGetterDB.getTotalBet(gameId, playerRed)).mul(pointsRed);\n\n        if (pointsBlack > pointsRed)\n        {\n            winner = playerBlack;\n            loser = playerRed;\n        }\n        else if(pointsRed > pointsBlack)\n        {\n            winner = playerRed;\n            loser = playerBlack;\n        }\n        //If there is a tie in point, define by total eth bet\n        else\n        {\n            (,,,,uint[2] memory ethByCorner,,) = gmGetterDB.getHoneypotInfo(gameId);\n            if(ethByCorner[0] > ethByCorner[1] ){\n                winner = playerBlack;\n                loser = playerRed;\n            }\n            else{\n                winner = playerRed;\n                loser = playerBlack;\n            }\n        }\n    }\n\n    /**\n    * @dev This function is called if a game gets cancelled, so as to start a new game.\n    */\n    function startAfterCancel()\n    external\n    onlyContract(CONTRACT_NAME_GAMEMANAGER)\n    {\n        startGameAndCalculateEpoch(gameVarAndFee.getGameTimes().add(now));\n    }\n\n    /**\n    * @dev This function is called from manualMatching, to check if game can be scheduled.\n    */\n    function startManually(uint256 gameStartTime)\n    external\n    onlyContract(CONTRACT_NAME_GAMECREATION)\n    returns(bool)\n    {\n        uint256 activeEpochId = timeFrame.getActiveEpochID();\n        uint256 currentEpochEndTime = timeFrame._epochEndTime(activeEpochId);\n        return checkIfGameCanStart(gameStartTime, currentEpochEndTime);\n    }\n\n    function checkGame()\n    external\n    onlyContract(CONTRACT_NAME_SCHEDULER)\n    returns(bool)\n    {\n        uint256 activeEpochId = timeFrame.getActiveEpochID();\n        uint256 currentEpochEndTime = timeFrame._epochEndTime(activeEpochId);\n        return checkIfGameCanStart(gameVarAndFee.getGameTimes().add(now), currentEpochEndTime);\n    }\n\n    function checkIfGameCanStart(uint256 gameStartTime, uint256 currentEpochEndTime)\n    internal\n    returns(bool)\n    {\n        //If less than \"some time\" from epoch's ending or anotherGame is scheduled, cannot create.\n        if(currentEpochEndTime.sub(timeFrame.REST_DAY().add(timeFrame.SIX_HOURS())) <= gameStartTime || gameScheduled)\n            return false;\n\n        gameScheduled = true;\n        return true;\n    }\n\n    function startGameAndCalculateEpoch(uint256 gameStartTime)\n    internal\n    {\n        uint256 activeEpochId = timeFrame.getActiveEpochID();\n        uint256 currentEpochEndTime = timeFrame._epochEndTime(activeEpochId);\n        gameScheduled = false;\n\n        if(checkIfGameCanStart(gameVarAndFee.getGameTimes().add(now), currentEpochEndTime))\n            gameScheduled = scheduler.startGame();\n        else {\n            uint256 delay;\n            if(now > currentEpochEndTime.sub(timeFrame.REST_DAY()))\n                delay = now.sub(currentEpochEndTime.sub(timeFrame.REST_DAY()));\n\n            CronJob cron = CronJob(proxy.getContract(CONTRACT_NAME_CRONJOB));\n            cron.addCronJob(\n                CONTRACT_NAME_GAMESTORE,\n                currentEpochEndTime.add(delay),\n                abi.encodeWithSignature(\"createGameAndEpoch()\")\n            );\n\n            WithdrawPool(proxy.getContract(CONTRACT_NAME_WITHDRAW_POOL)).setInterestToEarningsTracker(\n                activeEpochId,\n                EndowmentDB(proxy.getContract(CONTRACT_NAME_ENDOWMENT_DB)).checkTotalForEpoch(activeEpochId)\n            );\n        }\n    }\n\n    /**\n    * @dev added to cronjob : Creates new Game and New Epoch\n    */\n    function createGameAndEpoch()\n    external\n    onlyContract(CONTRACT_NAME_CRONJOB)\n    {\n        timeFrame.setNewEpoch();\n        gameScheduled = scheduler.startGame();\n        WithdrawPool(proxy.getContract(CONTRACT_NAME_WITHDRAW_POOL)).dissolveOldCreateNew();\n    }\n\n    function checkPerformanceHelper(uint gameId, uint gameEndTime) external view returns(bool){\n        //each time 1 minute before game ends\n        uint performanceTimeCheck = gameVarAndFee.getPerformanceTimeCheck();\n        \n        if(gameEndTime.sub(performanceTimeCheck) <= now) {\n            //get initial jackpot, need endowment to send this when creating honeypot\n            (,,uint initialEth, uint currentJackpotEth,,,) = gmGetterDB.getHoneypotInfo(gameId);\n\n            if(currentJackpotEth < initialEth.mul(10)) return true;\n            return false;\n        }\n    }\n}",
  "sourcePath": "/Users/ziweizhang/Desktop/kittiefight-rinkeby4/contracts/contracts/modules/gamemanager/GameStore.sol",
  "compiler": {
    "name": "solc",
    "version": "0.5.17+commit.d19bba13.Emscripten.clang"
  },
  "schemaVersion": "3.0.23",
  "updatedAt": "2020-06-15T21:07:53.757Z",
  "networkType": "ethereum",
  "devdoc": {
    "methods": {
      "createGameAndEpoch()": {
        "details": "added to cronjob : Creates new Game and New Epoch"
      },
      "startAfterCancel()": {
        "details": "This function is called if a game gets cancelled, so as to start a new game."
      },
      "startManually(uint256)": {
        "details": "This function is called from manualMatching, to check if game can be scheduled."
      }
    }
  },
  "userdoc": {
    "methods": {
      "setProxy(address)": {
        "notice": "Set/update address of Proxy contract"
      }
    }
  }
}