{
  "contractName": "GameCreation",
  "abi": [
    {
      "anonymous": false,
      "inputs": [
        {
          "indexed": true,
          "internalType": "uint256",
          "name": "gameId",
          "type": "uint256"
        },
        {
          "indexed": false,
          "internalType": "address",
          "name": "playerBlack",
          "type": "address"
        },
        {
          "indexed": false,
          "internalType": "uint256",
          "name": "kittieBlack",
          "type": "uint256"
        },
        {
          "indexed": false,
          "internalType": "address",
          "name": "playerRed",
          "type": "address"
        },
        {
          "indexed": false,
          "internalType": "uint256",
          "name": "kittieRed",
          "type": "uint256"
        },
        {
          "indexed": false,
          "internalType": "uint256",
          "name": "gameStartTime",
          "type": "uint256"
        }
      ],
      "name": "NewGame",
      "type": "event"
    },
    {
      "anonymous": false,
      "inputs": [
        {
          "indexed": true,
          "internalType": "uint256",
          "name": "kittieId",
          "type": "uint256"
        },
        {
          "indexed": true,
          "internalType": "address",
          "name": "owner",
          "type": "address"
        },
        {
          "indexed": false,
          "internalType": "uint256",
          "name": "timeListed",
          "type": "uint256"
        }
      ],
      "name": "NewListing",
      "type": "event"
    },
    {
      "anonymous": false,
      "inputs": [
        {
          "indexed": true,
          "internalType": "uint256",
          "name": "jobId",
          "type": "uint256"
        },
        {
          "indexed": false,
          "internalType": "uint256",
          "name": "jobTime",
          "type": "uint256"
        },
        {
          "indexed": true,
          "internalType": "uint256",
          "name": "gameId",
          "type": "uint256"
        },
        {
          "indexed": false,
          "internalType": "string",
          "name": "job",
          "type": "string"
        }
      ],
      "name": "Scheduled",
      "type": "event"
    },
    {
      "constant": true,
      "inputs": [],
      "name": "cronJob",
      "outputs": [
        {
          "internalType": "contract CronJob",
          "name": "",
          "type": "address"
        }
      ],
      "payable": false,
      "stateMutability": "view",
      "type": "function"
    },
    {
      "constant": true,
      "inputs": [
        {
          "internalType": "uint256",
          "name": "",
          "type": "uint256"
        }
      ],
      "name": "cronJobsForGames",
      "outputs": [
        {
          "internalType": "uint256",
          "name": "",
          "type": "uint256"
        }
      ],
      "payable": false,
      "stateMutability": "view",
      "type": "function"
    },
    {
      "constant": true,
      "inputs": [],
      "name": "cryptoKitties",
      "outputs": [
        {
          "internalType": "contract IKittyCore",
          "name": "",
          "type": "address"
        }
      ],
      "payable": false,
      "stateMutability": "view",
      "type": "function"
    },
    {
      "constant": true,
      "inputs": [],
      "name": "endowmentFund",
      "outputs": [
        {
          "internalType": "contract EndowmentFund",
          "name": "",
          "type": "address"
        }
      ],
      "payable": false,
      "stateMutability": "view",
      "type": "function"
    },
    {
      "constant": true,
      "inputs": [],
      "name": "gameStore",
      "outputs": [
        {
          "internalType": "contract GameStore",
          "name": "",
          "type": "address"
        }
      ],
      "payable": false,
      "stateMutability": "view",
      "type": "function"
    },
    {
      "constant": true,
      "inputs": [],
      "name": "gameVarAndFee",
      "outputs": [
        {
          "internalType": "contract GameVarAndFee",
          "name": "",
          "type": "address"
        }
      ],
      "payable": false,
      "stateMutability": "view",
      "type": "function"
    },
    {
      "constant": true,
      "inputs": [],
      "name": "gmGetterDB",
      "outputs": [
        {
          "internalType": "contract GMGetterDB",
          "name": "",
          "type": "address"
        }
      ],
      "payable": false,
      "stateMutability": "view",
      "type": "function"
    },
    {
      "constant": true,
      "inputs": [],
      "name": "gmSetterDB",
      "outputs": [
        {
          "internalType": "contract GMSetterDB",
          "name": "",
          "type": "address"
        }
      ],
      "payable": false,
      "stateMutability": "view",
      "type": "function"
    },
    {
      "constant": true,
      "inputs": [],
      "name": "kittieHELL",
      "outputs": [
        {
          "internalType": "contract KittieHell",
          "name": "",
          "type": "address"
        }
      ],
      "payable": false,
      "stateMutability": "view",
      "type": "function"
    },
    {
      "constant": true,
      "inputs": [],
      "name": "owner",
      "outputs": [
        {
          "internalType": "address payable",
          "name": "",
          "type": "address"
        }
      ],
      "payable": false,
      "stateMutability": "view",
      "type": "function"
    },
    {
      "constant": true,
      "inputs": [],
      "name": "proxy",
      "outputs": [
        {
          "internalType": "contract ProxyBase",
          "name": "",
          "type": "address"
        }
      ],
      "payable": false,
      "stateMutability": "view",
      "type": "function"
    },
    {
      "constant": true,
      "inputs": [],
      "name": "scheduler",
      "outputs": [
        {
          "internalType": "contract Scheduler",
          "name": "",
          "type": "address"
        }
      ],
      "payable": false,
      "stateMutability": "view",
      "type": "function"
    },
    {
      "constant": false,
      "inputs": [
        {
          "internalType": "contract ProxyBase",
          "name": "_proxy",
          "type": "address"
        }
      ],
      "name": "setProxy",
      "outputs": [],
      "payable": false,
      "stateMutability": "nonpayable",
      "type": "function"
    },
    {
      "constant": false,
      "inputs": [
        {
          "internalType": "address payable",
          "name": "newOwner",
          "type": "address"
        }
      ],
      "name": "transferOwnership",
      "outputs": [],
      "payable": false,
      "stateMutability": "nonpayable",
      "type": "function"
    },
    {
      "constant": false,
      "inputs": [],
      "name": "initialize",
      "outputs": [],
      "payable": false,
      "stateMutability": "nonpayable",
      "type": "function"
    },
    {
      "constant": false,
      "inputs": [
        {
          "internalType": "uint256",
          "name": "kittieId",
          "type": "uint256"
        }
      ],
      "name": "listKittie",
      "outputs": [],
      "payable": false,
      "stateMutability": "nonpayable",
      "type": "function"
    },
    {
      "constant": false,
      "inputs": [
        {
          "internalType": "address",
          "name": "playerRed",
          "type": "address"
        },
        {
          "internalType": "address",
          "name": "playerBlack",
          "type": "address"
        },
        {
          "internalType": "uint256",
          "name": "kittyRed",
          "type": "uint256"
        },
        {
          "internalType": "uint256",
          "name": "kittyBlack",
          "type": "uint256"
        },
        {
          "internalType": "uint256",
          "name": "gameStartTime",
          "type": "uint256"
        }
      ],
      "name": "manualMatchKitties",
      "outputs": [],
      "payable": false,
      "stateMutability": "nonpayable",
      "type": "function"
    },
    {
      "constant": false,
      "inputs": [
        {
          "internalType": "address",
          "name": "playerRed",
          "type": "address"
        },
        {
          "internalType": "address",
          "name": "playerBlack",
          "type": "address"
        },
        {
          "internalType": "uint256",
          "name": "kittyRed",
          "type": "uint256"
        },
        {
          "internalType": "uint256",
          "name": "kittyBlack",
          "type": "uint256"
        },
        {
          "internalType": "uint256",
          "name": "gameStartTime",
          "type": "uint256"
        }
      ],
      "name": "createFight",
      "outputs": [],
      "payable": false,
      "stateMutability": "nonpayable",
      "type": "function"
    },
    {
      "constant": false,
      "inputs": [
        {
          "internalType": "uint256",
          "name": "gameId",
          "type": "uint256"
        }
      ],
      "name": "removeKitties",
      "outputs": [],
      "payable": false,
      "stateMutability": "nonpayable",
      "type": "function"
    },
    {
      "constant": false,
      "inputs": [
        {
          "internalType": "address",
          "name": "winner",
          "type": "address"
        },
        {
          "internalType": "address",
          "name": "loser",
          "type": "address"
        },
        {
          "internalType": "uint256",
          "name": "gameId",
          "type": "uint256"
        }
      ],
      "name": "updateKitties",
      "outputs": [],
      "payable": false,
      "stateMutability": "nonpayable",
      "type": "function"
    },
    {
      "constant": false,
      "inputs": [
        {
          "internalType": "uint256",
          "name": "gameId",
          "type": "uint256"
        },
        {
          "internalType": "uint256",
          "name": "state",
          "type": "uint256"
        }
      ],
      "name": "scheduleJobs",
      "outputs": [],
      "payable": false,
      "stateMutability": "nonpayable",
      "type": "function"
    },
    {
      "constant": false,
      "inputs": [
        {
          "internalType": "uint256",
          "name": "gameId",
          "type": "uint256"
        }
      ],
      "name": "updateGameStateCron",
      "outputs": [],
      "payable": false,
      "stateMutability": "nonpayable",
      "type": "function"
    },
    {
      "constant": false,
      "inputs": [
        {
          "internalType": "uint256",
          "name": "gameId",
          "type": "uint256"
        }
      ],
      "name": "callForfeiterCron",
      "outputs": [],
      "payable": false,
      "stateMutability": "nonpayable",
      "type": "function"
    },
    {
      "constant": false,
      "inputs": [
        {
          "internalType": "uint256",
          "name": "gameId",
          "type": "uint256"
        }
      ],
      "name": "callGameEndCron",
      "outputs": [],
      "payable": false,
      "stateMutability": "nonpayable",
      "type": "function"
    },
    {
      "constant": false,
      "inputs": [
        {
          "internalType": "uint256",
          "name": "gameId",
          "type": "uint256"
        }
      ],
      "name": "rescheduleCronJob",
      "outputs": [],
      "payable": false,
      "stateMutability": "nonpayable",
      "type": "function"
    },
    {
      "constant": false,
      "inputs": [
        {
          "internalType": "uint256",
          "name": "gameId",
          "type": "uint256"
        }
      ],
      "name": "deleteCronjob",
      "outputs": [],
      "payable": false,
      "stateMutability": "nonpayable",
      "type": "function"
    }
  ],
  "bytecode": "0x6080604052336000806101000a81548173ffffffffffffffffffffffffffffffffffffffff021916908373ffffffffffffffffffffffffffffffffffffffff1602179055506157a8806100536000396000f3fe608060405234801561001057600080fd5b506004361061018e5760003560e01c8063b1be6469116100de578063ec55688911610097578063f2fde38b11610071578063f2fde38b1461075f578063f4dc834a146107a3578063f60ac4b7146107d1578063fbf33cfb146107ff5761018e565b8063ec55688914610681578063ef410f45146106cb578063f26dee8e146107155761018e565b8063b1be6469146104fd578063c2b6690414610547578063cfafbde714610575578063d1ad17bf146105bf578063da7f76d414610609578063daff832f146106535761018e565b80636fee856a1161014b57806397107d6d1161012557806397107d6d146104095780639d60d53e1461044d578063a13995401461047b578063a3b3bd7b146104b35761018e565b80636fee856a146103875780638129fc1c146103b55780638da5cb5b146103bf5761018e565b8063014415411461019357806311744971146102155780631fc751801461028357806360cf7689146102cd57806369af70b31461030f57806369ea0ea714610359575b600080fd5b610213600480360360a08110156101a957600080fd5b81019080803573ffffffffffffffffffffffffffffffffffffffff169060200190929190803573ffffffffffffffffffffffffffffffffffffffff169060200190929190803590602001909291908035906020019092919080359060200190929190505050610881565b005b6102816004803603606081101561022b57600080fd5b81019080803573ffffffffffffffffffffffffffffffffffffffff169060200190929190803573ffffffffffffffffffffffffffffffffffffffff169060200190929190803590602001909291905050506108d5565b005b61028b610c46565b604051808273ffffffffffffffffffffffffffffffffffffffff1673ffffffffffffffffffffffffffffffffffffffff16815260200191505060405180910390f35b6102f9600480360360208110156102e357600080fd5b8101908080359060200190929190505050610c6c565b6040518082815260200191505060405180910390f35b610317610c84565b604051808273ffffffffffffffffffffffffffffffffffffffff1673ffffffffffffffffffffffffffffffffffffffff16815260200191505060405180910390f35b6103856004803603602081101561036f57600080fd5b8101908080359060200190929190505050610caa565b005b6103b36004803603602081101561039d57600080fd5b8101908080359060200190929190505050610f5c565b005b6103bd611114565b005b6103c7611f34565b604051808273ffffffffffffffffffffffffffffffffffffffff1673ffffffffffffffffffffffffffffffffffffffff16815260200191505060405180910390f35b61044b6004803603602081101561041f57600080fd5b81019080803573ffffffffffffffffffffffffffffffffffffffff169060200190929190505050611f59565b005b6104796004803603602081101561046357600080fd5b8101908080359060200190929190505050611ff3565b005b6104b16004803603604081101561049157600080fd5b81019080803590602001909291908035906020019092919050505061217e565b005b6104bb612ccc565b604051808273ffffffffffffffffffffffffffffffffffffffff1673ffffffffffffffffffffffffffffffffffffffff16815260200191505060405180910390f35b610505612cf2565b604051808273ffffffffffffffffffffffffffffffffffffffff1673ffffffffffffffffffffffffffffffffffffffff16815260200191505060405180910390f35b6105736004803603602081101561055d57600080fd5b8101908080359060200190929190505050612d18565b005b61057d613026565b604051808273ffffffffffffffffffffffffffffffffffffffff1673ffffffffffffffffffffffffffffffffffffffff16815260200191505060405180910390f35b6105c761304c565b604051808273ffffffffffffffffffffffffffffffffffffffff1673ffffffffffffffffffffffffffffffffffffffff16815260200191505060405180910390f35b610611613072565b604051808273ffffffffffffffffffffffffffffffffffffffff1673ffffffffffffffffffffffffffffffffffffffff16815260200191505060405180910390f35b61067f6004803603602081101561066957600080fd5b8101908080359060200190929190505050613098565b005b6106896132c6565b604051808273ffffffffffffffffffffffffffffffffffffffff1673ffffffffffffffffffffffffffffffffffffffff16815260200191505060405180910390f35b6106d36132ec565b604051808273ffffffffffffffffffffffffffffffffffffffff1673ffffffffffffffffffffffffffffffffffffffff16815260200191505060405180910390f35b61071d613312565b604051808273ffffffffffffffffffffffffffffffffffffffff1673ffffffffffffffffffffffffffffffffffffffff16815260200191505060405180910390f35b6107a16004803603602081101561077557600080fd5b81019080803573ffffffffffffffffffffffffffffffffffffffff169060200190929190505050613338565b005b6107cf600480360360208110156107b957600080fd5b8101908080359060200190929190505050613406565b005b6107fd600480360360208110156107e757600080fd5b81019080803590602001909291905050506137fd565b005b61087f600480360360a081101561081557600080fd5b81019080803573ffffffffffffffffffffffffffffffffffffffff169060200190929190803573ffffffffffffffffffffffffffffffffffffffff169060200190929190803590602001909291908035906020019092919080359060200190929190505050613df2565b005b6040518060400160405280600981526020017f5363686564756c657200000000000000000000000000000000000000000000008152506108c081614698565b6108cd8686868686614933565b505050505050565b6040518060400160405280600b81526020017f47616d654d616e6167657200000000000000000000000000000000000000000081525061091481614698565b600a60009054906101000a900473ffffffffffffffffffffffffffffffffffffffff1673ffffffffffffffffffffffffffffffffffffffff166329af207c600360009054906101000a900473ffffffffffffffffffffffffffffffffffffffff1673ffffffffffffffffffffffffffffffffffffffff1663e441dcbf85886040518363ffffffff1660e01b8152600401808381526020018273ffffffffffffffffffffffffffffffffffffffff1673ffffffffffffffffffffffffffffffffffffffff1681526020019250505060206040518083038186803b1580156109f957600080fd5b505afa158015610a0d573d6000803e3d6000fd5b505050506040513d6020811015610a2357600080fd5b81019080805190602001909291905050506040518263ffffffff1660e01b815260040180828152602001915050602060405180830381600087803b158015610a6a57600080fd5b505af1158015610a7e573d6000803e3d6000fd5b505050506040513d6020811015610a9457600080fd5b810190808051906020019092919050505050600a60009054906101000a900473ffffffffffffffffffffffffffffffffffffffff1673ffffffffffffffffffffffffffffffffffffffff16637202a1b2600360009054906101000a900473ffffffffffffffffffffffffffffffffffffffff1673ffffffffffffffffffffffffffffffffffffffff1663e441dcbf85876040518363ffffffff1660e01b8152600401808381526020018273ffffffffffffffffffffffffffffffffffffffff1673ffffffffffffffffffffffffffffffffffffffff1681526020019250505060206040518083038186803b158015610b8b57600080fd5b505afa158015610b9f573d6000803e3d6000fd5b505050506040513d6020811015610bb557600080fd5b8101908080519060200190929190505050846040518363ffffffff1660e01b81526004018083815260200182815260200192505050602060405180830381600087803b158015610c0457600080fd5b505af1158015610c18573d6000803e3d6000fd5b505050506040513d6020811015610c2e57600080fd5b81019080805190602001909291905050505050505050565b600360009054906101000a900473ffffffffffffffffffffffffffffffffffffffff1681565b600b6020528060005260406000206000915090505481565b600560009054906101000a900473ffffffffffffffffffffffffffffffffffffffff1681565b6040518060400160405280600781526020017f43726f6e4a6f6200000000000000000000000000000000000000000000000000815250610ce981614698565b6000600360009054906101000a900473ffffffffffffffffffffffffffffffffffffffff1673ffffffffffffffffffffffffffffffffffffffff1663ffde0c74846040518263ffffffff1660e01b81526004018082815260200191505060206040518083038186803b158015610d5e57600080fd5b505afa158015610d72573d6000803e3d6000fd5b505050506040513d6020811015610d8857600080fd5b810190808051906020019092919050505090506002811415610f5757600160009054906101000a900473ffffffffffffffffffffffffffffffffffffffff1673ffffffffffffffffffffffffffffffffffffffff1663358177736040518060400160405280600b81526020017f47616d654d616e616765720000000000000000000000000000000000000000008152506040518263ffffffff1660e01b81526004018080602001828103825283818151815260200191508051906020019080838360005b83811015610e67578082015181840152602081019050610e4c565b50505050905090810190601f168015610e945780820380516001836020036101000a031916815260200191505b509250505060206040518083038186803b158015610eb157600080fd5b505afa158015610ec5573d6000803e3d6000fd5b505050506040513d6020811015610edb57600080fd5b810190808051906020019092919050505073ffffffffffffffffffffffffffffffffffffffff1663ddda0719846040518263ffffffff1660e01b815260040180828152602001915050600060405180830381600087803b158015610f3e57600080fd5b505af1158015610f52573d6000803e3d6000fd5b505050505b505050565b6040518060400160405280600b81526020017f47616d654d616e61676572000000000000000000000000000000000000000000815250610f9b81614698565b600080600360009054906101000a900473ffffffffffffffffffffffffffffffffffffffff1673ffffffffffffffffffffffffffffffffffffffff166315a40f49856040518263ffffffff1660e01b81526004018082815260200191505060806040518083038186803b15801561101157600080fd5b505afa158015611025573d6000803e3d6000fd5b505050506040513d608081101561103b57600080fd5b8101908080519060200190929190805190602001909291908051906020019092919080519060200190929190505050935093505050600260009054906101000a900473ffffffffffffffffffffffffffffffffffffffff1673ffffffffffffffffffffffffffffffffffffffff1663fd3d1c24838360006040518463ffffffff1660e01b8152600401808481526020018381526020018281526020019350505050600060405180830381600087803b1580156110f657600080fd5b505af115801561110a573d6000803e3d6000fd5b5050505050505050565b6000809054906101000a900473ffffffffffffffffffffffffffffffffffffffff1673ffffffffffffffffffffffffffffffffffffffff163373ffffffffffffffffffffffffffffffffffffffff161461116a57fe5b600160009054906101000a900473ffffffffffffffffffffffffffffffffffffffff1673ffffffffffffffffffffffffffffffffffffffff1663358177736040518060400160405280600a81526020017f474d5365747465724442000000000000000000000000000000000000000000008152506040518263ffffffff1660e01b81526004018080602001828103825283818151815260200191508051906020019080838360005b8381101561122d578082015181840152602081019050611212565b50505050905090810190601f16801561125a5780820380516001836020036101000a031916815260200191505b509250505060206040518083038186803b15801561127757600080fd5b505afa15801561128b573d6000803e3d6000fd5b505050506040513d60208110156112a157600080fd5b8101908080519060200190929190505050600260006101000a81548173ffffffffffffffffffffffffffffffffffffffff021916908373ffffffffffffffffffffffffffffffffffffffff160217905550600160009054906101000a900473ffffffffffffffffffffffffffffffffffffffff1673ffffffffffffffffffffffffffffffffffffffff1663358177736040518060400160405280600a81526020017f474d4765747465724442000000000000000000000000000000000000000000008152506040518263ffffffff1660e01b81526004018080602001828103825283818151815260200191508051906020019080838360005b838110156113b557808201518184015260208101905061139a565b50505050905090810190601f1680156113e25780820380516001836020036101000a031916815260200191505b509250505060206040518083038186803b1580156113ff57600080fd5b505afa158015611413573d6000803e3d6000fd5b505050506040513d602081101561142957600080fd5b8101908080519060200190929190505050600360006101000a81548173ffffffffffffffffffffffffffffffffffffffff021916908373ffffffffffffffffffffffffffffffffffffffff160217905550600160009054906101000a900473ffffffffffffffffffffffffffffffffffffffff1673ffffffffffffffffffffffffffffffffffffffff1663358177736040518060400160405280600d81526020017f456e646f776d656e7446756e64000000000000000000000000000000000000008152506040518263ffffffff1660e01b81526004018080602001828103825283818151815260200191508051906020019080838360005b8381101561153d578082015181840152602081019050611522565b50505050905090810190601f16801561156a5780820380516001836020036101000a031916815260200191505b509250505060206040518083038186803b15801561158757600080fd5b505afa15801561159b573d6000803e3d6000fd5b505050506040513d60208110156115b157600080fd5b8101908080519060200190929190505050600560006101000a81548173ffffffffffffffffffffffffffffffffffffffff021916908373ffffffffffffffffffffffffffffffffffffffff160217905550600160009054906101000a900473ffffffffffffffffffffffffffffffffffffffff1673ffffffffffffffffffffffffffffffffffffffff1663358177736040518060400160405280600d81526020017f47616d65566172416e64466565000000000000000000000000000000000000008152506040518263ffffffff1660e01b81526004018080602001828103825283818151815260200191508051906020019080838360005b838110156116c55780820151818401526020810190506116aa565b50505050905090810190601f1680156116f25780820380516001836020036101000a031916815260200191505b509250505060206040518083038186803b15801561170f57600080fd5b505afa158015611723573d6000803e3d6000fd5b505050506040513d602081101561173957600080fd5b8101908080519060200190929190505050600460006101000a81548173ffffffffffffffffffffffffffffffffffffffff021916908373ffffffffffffffffffffffffffffffffffffffff160217905550600160009054906101000a900473ffffffffffffffffffffffffffffffffffffffff1673ffffffffffffffffffffffffffffffffffffffff1663358177736040518060400160405280600981526020017f5363686564756c657200000000000000000000000000000000000000000000008152506040518263ffffffff1660e01b81526004018080602001828103825283818151815260200191508051906020019080838360005b8381101561184d578082015181840152602081019050611832565b50505050905090810190601f16801561187a5780820380516001836020036101000a031916815260200191505b509250505060206040518083038186803b15801561189757600080fd5b505afa1580156118ab573d6000803e3d6000fd5b505050506040513d60208110156118c157600080fd5b8101908080519060200190929190505050600660006101000a81548173ffffffffffffffffffffffffffffffffffffffff021916908373ffffffffffffffffffffffffffffffffffffffff160217905550600160009054906101000a900473ffffffffffffffffffffffffffffffffffffffff1673ffffffffffffffffffffffffffffffffffffffff1663358177736040518060400160405280600d81526020017f43727970746f4b697474696573000000000000000000000000000000000000008152506040518263ffffffff1660e01b81526004018080602001828103825283818151815260200191508051906020019080838360005b838110156119d55780820151818401526020810190506119ba565b50505050905090810190601f168015611a025780820380516001836020036101000a031916815260200191505b509250505060206040518083038186803b158015611a1f57600080fd5b505afa158015611a33573d6000803e3d6000fd5b505050506040513d6020811015611a4957600080fd5b8101908080519060200190929190505050600760006101000a81548173ffffffffffffffffffffffffffffffffffffffff021916908373ffffffffffffffffffffffffffffffffffffffff160217905550600160009054906101000a900473ffffffffffffffffffffffffffffffffffffffff1673ffffffffffffffffffffffffffffffffffffffff1663358177736040518060400160405280600981526020017f47616d6553746f726500000000000000000000000000000000000000000000008152506040518263ffffffff1660e01b81526004018080602001828103825283818151815260200191508051906020019080838360005b83811015611b5d578082015181840152602081019050611b42565b50505050905090810190601f168015611b8a5780820380516001836020036101000a031916815260200191505b509250505060206040518083038186803b158015611ba757600080fd5b505afa158015611bbb573d6000803e3d6000fd5b505050506040513d6020811015611bd157600080fd5b8101908080519060200190929190505050600860006101000a81548173ffffffffffffffffffffffffffffffffffffffff021916908373ffffffffffffffffffffffffffffffffffffffff160217905550600160009054906101000a900473ffffffffffffffffffffffffffffffffffffffff1673ffffffffffffffffffffffffffffffffffffffff1663358177736040518060400160405280600781526020017f43726f6e4a6f62000000000000000000000000000000000000000000000000008152506040518263ffffffff1660e01b81526004018080602001828103825283818151815260200191508051906020019080838360005b83811015611ce5578082015181840152602081019050611cca565b50505050905090810190601f168015611d125780820380516001836020036101000a031916815260200191505b509250505060206040518083038186803b158015611d2f57600080fd5b505afa158015611d43573d6000803e3d6000fd5b505050506040513d6020811015611d5957600080fd5b8101908080519060200190929190505050600960006101000a81548173ffffffffffffffffffffffffffffffffffffffff021916908373ffffffffffffffffffffffffffffffffffffffff160217905550600160009054906101000a900473ffffffffffffffffffffffffffffffffffffffff1673ffffffffffffffffffffffffffffffffffffffff1663358177736040518060400160405280600a81526020017f4b697474696548656c6c000000000000000000000000000000000000000000008152506040518263ffffffff1660e01b81526004018080602001828103825283818151815260200191508051906020019080838360005b83811015611e6d578082015181840152602081019050611e52565b50505050905090810190601f168015611e9a5780820380516001836020036101000a031916815260200191505b509250505060206040518083038186803b158015611eb757600080fd5b505afa158015611ecb573d6000803e3d6000fd5b505050506040513d6020811015611ee157600080fd5b8101908080519060200190929190505050600a60006101000a81548173ffffffffffffffffffffffffffffffffffffffff021916908373ffffffffffffffffffffffffffffffffffffffff160217905550565b6000809054906101000a900473ffffffffffffffffffffffffffffffffffffffff1681565b6000809054906101000a900473ffffffffffffffffffffffffffffffffffffffff1673ffffffffffffffffffffffffffffffffffffffff163373ffffffffffffffffffffffffffffffffffffffff1614611faf57fe5b80600160006101000a81548173ffffffffffffffffffffffffffffffffffffffff021916908373ffffffffffffffffffffffffffffffffffffffff16021790555050565b6040518060400160405280600b81526020017f47616d654d616e6167657200000000000000000000000000000000000000000081525061203281614698565b6000600b6000848152602001908152602001600020549050600960009054906101000a900473ffffffffffffffffffffffffffffffffffffffff1673ffffffffffffffffffffffffffffffffffffffff16639d8f101f6040518060400160405280600c81526020017f47616d654372656174696f6e0000000000000000000000000000000000000000815250836040518363ffffffff1660e01b81526004018080602001838152602001828103825284818151815260200191508051906020019080838360005b838110156121145780820151818401526020810190506120f9565b50505050905090810190601f1680156121415780820380516001836020036101000a031916815260200191505b509350505050600060405180830381600087803b15801561216157600080fd5b505af1158015612175573d6000803e3d6000fd5b50505050505050565b6040518060400160405280600a81526020017f474d5365747465724442000000000000000000000000000000000000000000008152506121bd81614698565b600082141561256b576000600360009054906101000a900473ffffffffffffffffffffffffffffffffffffffff1673ffffffffffffffffffffffffffffffffffffffff16638851470d856040518263ffffffff1660e01b81526004018082815260200191505060606040518083038186803b15801561223b57600080fd5b505afa15801561224f573d6000803e3d6000fd5b505050506040513d606081101561226557600080fd5b81019080805190602001909291908051906020019092919080519060200190929190505050509150506000600960009054906101000a900473ffffffffffffffffffffffffffffffffffffffff1673ffffffffffffffffffffffffffffffffffffffff1663c19304966040518060400160405280600c81526020017f47616d654372656174696f6e00000000000000000000000000000000000000008152508488604051602401808281526020019150506040516020818303038152906040527ff4dc834a000000000000000000000000000000000000000000000000000000007bffffffffffffffffffffffffffffffffffffffffffffffffffffffff19166020820180517bffffffffffffffffffffffffffffffffffffffffffffffffffffffff83818316178352505050506040518463ffffffff1660e01b8152600401808060200184815260200180602001838103835286818151815260200191508051906020019080838360005b838110156123ec5780820151818401526020810190506123d1565b50505050905090810190601f1680156124195780820380516001836020036101000a031916815260200191505b50838103825284818151815260200191508051906020019080838360005b83811015612452578082015181840152602081019050612437565b50505050905090810190601f16801561247f5780820380516001836020036101000a031916815260200191505b5095505050505050602060405180830381600087803b1580156124a157600080fd5b505af11580156124b5573d6000803e3d6000fd5b505050506040513d60208110156124cb57600080fd5b8101908080519060200190929190505050905084817fa3cd382277b18d8b5a2ffe52afc5a1405eee5818fa12b7f0678f40e4dc4f2054846040518082815260200180602001828103825260118152602001807f4368616e676520737461746520746f20310000000000000000000000000000008152506020019250505060405180910390a380600b60008781526020019081526020016000208190555050505b6001821415612919576000600360009054906101000a900473ffffffffffffffffffffffffffffffffffffffff1673ffffffffffffffffffffffffffffffffffffffff16638851470d856040518263ffffffff1660e01b81526004018082815260200191505060606040518083038186803b1580156125e957600080fd5b505afa1580156125fd573d6000803e3d6000fd5b505050506040513d606081101561261357600080fd5b81019080805190602001909291908051906020019092919080519060200190929190505050505090506000600960009054906101000a900473ffffffffffffffffffffffffffffffffffffffff1673ffffffffffffffffffffffffffffffffffffffff1663c19304966040518060400160405280600c81526020017f47616d654372656174696f6e00000000000000000000000000000000000000008152508488604051602401808281526020019150506040516020818303038152906040527fdaff832f000000000000000000000000000000000000000000000000000000007bffffffffffffffffffffffffffffffffffffffffffffffffffffffff19166020820180517bffffffffffffffffffffffffffffffffffffffffffffffffffffffff83818316178352505050506040518463ffffffff1660e01b8152600401808060200184815260200180602001838103835286818151815260200191508051906020019080838360005b8381101561279a57808201518184015260208101905061277f565b50505050905090810190601f1680156127c75780820380516001836020036101000a031916815260200191505b50838103825284818151815260200191508051906020019080838360005b838110156128005780820151818401526020810190506127e5565b50505050905090810190601f16801561282d5780820380516001836020036101000a031916815260200191505b5095505050505050602060405180830381600087803b15801561284f57600080fd5b505af1158015612863573d6000803e3d6000fd5b505050506040513d602081101561287957600080fd5b8101908080519060200190929190505050905084817fa3cd382277b18d8b5a2ffe52afc5a1405eee5818fa12b7f0678f40e4dc4f2054846040518082815260200180602001828103825260118152602001807f4368616e676520737461746520746f20320000000000000000000000000000008152506020019250505060405180910390a380600b60008781526020019081526020016000208190555050505b6002821415612cc7576000600360009054906101000a900473ffffffffffffffffffffffffffffffffffffffff1673ffffffffffffffffffffffffffffffffffffffff16638851470d856040518263ffffffff1660e01b81526004018082815260200191505060606040518083038186803b15801561299757600080fd5b505afa1580156129ab573d6000803e3d6000fd5b505050506040513d60608110156129c157600080fd5b81019080805190602001909291908051906020019092919080519060200190929190505050925050506000600960009054906101000a900473ffffffffffffffffffffffffffffffffffffffff1673ffffffffffffffffffffffffffffffffffffffff1663c19304966040518060400160405280600c81526020017f47616d654372656174696f6e00000000000000000000000000000000000000008152508488604051602401808281526020019150506040516020818303038152906040527f69ea0ea7000000000000000000000000000000000000000000000000000000007bffffffffffffffffffffffffffffffffffffffffffffffffffffffff19166020820180517bffffffffffffffffffffffffffffffffffffffffffffffffffffffff83818316178352505050506040518463ffffffff1660e01b8152600401808060200184815260200180602001838103835286818151815260200191508051906020019080838360005b83811015612b48578082015181840152602081019050612b2d565b50505050905090810190601f168015612b755780820380516001836020036101000a031916815260200191505b50838103825284818151815260200191508051906020019080838360005b83811015612bae578082015181840152602081019050612b93565b50505050905090810190601f168015612bdb5780820380516001836020036101000a031916815260200191505b5095505050505050602060405180830381600087803b158015612bfd57600080fd5b505af1158015612c11573d6000803e3d6000fd5b505050506040513d6020811015612c2757600080fd5b8101908080519060200190929190505050905084817fa3cd382277b18d8b5a2ffe52afc5a1405eee5818fa12b7f0678f40e4dc4f2054846040518082815260200180602001828103825260118152602001807f4368616e676520737461746520746f20330000000000000000000000000000008152506020019250505060405180910390a380600b60008781526020019081526020016000208190555050505b505050565b600460009054906101000a900473ffffffffffffffffffffffffffffffffffffffff1681565b600860009054906101000a900473ffffffffffffffffffffffffffffffffffffffff1681565b6040518060400160405280600b81526020017f47616d654d616e61676572000000000000000000000000000000000000000000815250612d5781614698565b6000600b60008481526020019081526020016000205490506000600360009054906101000a900473ffffffffffffffffffffffffffffffffffffffff1673ffffffffffffffffffffffffffffffffffffffff16638851470d856040518263ffffffff1660e01b81526004018082815260200191505060606040518083038186803b158015612de457600080fd5b505afa158015612df8573d6000803e3d6000fd5b505050506040513d6060811015612e0e57600080fd5b81019080805190602001909291908051906020019092919080519060200190929190505050925050506000600960009054906101000a900473ffffffffffffffffffffffffffffffffffffffff1673ffffffffffffffffffffffffffffffffffffffff1663ecb7035b6040518060400160405280600c81526020017f47616d654372656174696f6e000000000000000000000000000000000000000081525085856040518463ffffffff1660e01b81526004018080602001848152602001838152602001828103825285818151815260200191508051906020019080838360005b83811015612f0a578082015181840152602081019050612eef565b50505050905090810190601f168015612f375780820380516001836020036101000a031916815260200191505b50945050505050602060405180830381600087803b158015612f5857600080fd5b505af1158015612f6c573d6000803e3d6000fd5b505050506040513d6020811015612f8257600080fd5b8101908080519060200190929190505050905084817fa3cd382277b18d8b5a2ffe52afc5a1405eee5818fa12b7f0678f40e4dc4f2054846040518082815260200180602001828103825260118152602001807f4368616e676520737461746520746f20330000000000000000000000000000008152506020019250505060405180910390a380600b6000878152602001908152602001600020819055505050505050565b600a60009054906101000a900473ffffffffffffffffffffffffffffffffffffffff1681565b600660009054906101000a900473ffffffffffffffffffffffffffffffffffffffff1681565b600960009054906101000a900473ffffffffffffffffffffffffffffffffffffffff1681565b6040518060400160405280600781526020017f43726f6e4a6f62000000000000000000000000000000000000000000000000008152506130d781614698565b600160009054906101000a900473ffffffffffffffffffffffffffffffffffffffff1673ffffffffffffffffffffffffffffffffffffffff1663358177736040518060400160405280600981526020017f466f7266656974657200000000000000000000000000000000000000000000008152506040518263ffffffff1660e01b81526004018080602001828103825283818151815260200191508051906020019080838360005b8381101561319a57808201518184015260208101905061317f565b50505050905090810190601f1680156131c75780820380516001836020036101000a031916815260200191505b509250505060206040518083038186803b1580156131e457600080fd5b505afa1580156131f8573d6000803e3d6000fd5b505050506040513d602081101561320e57600080fd5b810190808051906020019092919050505073ffffffffffffffffffffffffffffffffffffffff1663b0c5831e836040518263ffffffff1660e01b81526004018082815260200180602001828103825260118152602001807f446964206e6f742068697420737461727400000000000000000000000000000081525060200192505050600060405180830381600087803b1580156132aa57600080fd5b505af11580156132be573d6000803e3d6000fd5b505050505050565b600160009054906101000a900473ffffffffffffffffffffffffffffffffffffffff1681565b600760009054906101000a900473ffffffffffffffffffffffffffffffffffffffff1681565b600260009054906101000a900473ffffffffffffffffffffffffffffffffffffffff1681565b6000809054906101000a900473ffffffffffffffffffffffffffffffffffffffff1673ffffffffffffffffffffffffffffffffffffffff163373ffffffffffffffffffffffffffffffffffffffff161461338e57fe5b600073ffffffffffffffffffffffffffffffffffffffff168173ffffffffffffffffffffffffffffffffffffffff161461340357806000806101000a81548173ffffffffffffffffffffffffffffffffffffffff021916908373ffffffffffffffffffffffffffffffffffffffff1602179055505b50565b6040518060400160405280600781526020017f43726f6e4a6f620000000000000000000000000000000000000000000000000081525061344581614698565b6000600360009054906101000a900473ffffffffffffffffffffffffffffffffffffffff1673ffffffffffffffffffffffffffffffffffffffff1663ffde0c74846040518263ffffffff1660e01b81526004018082815260200191505060206040518083038186803b1580156134ba57600080fd5b505afa1580156134ce573d6000803e3d6000fd5b505050506040513d60208110156134e457600080fd5b81019080805190602001909291905050509050600160009054906101000a900473ffffffffffffffffffffffffffffffffffffffff1673ffffffffffffffffffffffffffffffffffffffff1663358177736040518060400160405280600981526020017f466f7266656974657200000000000000000000000000000000000000000000008152506040518263ffffffff1660e01b81526004018080602001828103825283818151815260200191508051906020019080838360005b838110156135ba57808201518184015260208101905061359f565b50505050905090810190601f1680156135e75780820380516001836020036101000a031916815260200191505b509250505060206040518083038186803b15801561360457600080fd5b505afa158015613618573d6000803e3d6000fd5b505050506040513d602081101561362e57600080fd5b810190808051906020019092919050505073ffffffffffffffffffffffffffffffffffffffff1663304b950384836040518363ffffffff1660e01b81526004018083815260200182815260200192505050600060405180830381600087803b15801561369957600080fd5b505af11580156136ad573d6000803e3d6000fd5b50505050600360009054906101000a900473ffffffffffffffffffffffffffffffffffffffff1673ffffffffffffffffffffffffffffffffffffffff1663ffde0c74846040518263ffffffff1660e01b81526004018082815260200191505060206040518083038186803b15801561372457600080fd5b505afa158015613738573d6000803e3d6000fd5b505050506040513d602081101561374e57600080fd5b8101908080519060200190929190505050905060008114156137f857600260009054906101000a900473ffffffffffffffffffffffffffffffffffffffff1673ffffffffffffffffffffffffffffffffffffffff1663f4dc834a846040518263ffffffff1660e01b815260040180828152602001915050600060405180830381600087803b1580156137df57600080fd5b505af11580156137f3573d6000803e3d6000fd5b505050505b505050565b613805615241565b600073ffffffffffffffffffffffffffffffffffffffff163373ffffffffffffffffffffffffffffffffffffffff16141561383c57fe5b61387a6040518060400160405280600681526020017f706c6179657200000000000000000000000000000000000000000000000000008152506153cb565b6138ec576040517f08c379a000000000000000000000000000000000000000000000000000000000815260040180806020018281038252600b8152602001807f4f6e6c7920706c6179657200000000000000000000000000000000000000000081525060200191505060405180910390fd5b6138f4615647565b818173ffffffffffffffffffffffffffffffffffffffff16600760009054906101000a900473ffffffffffffffffffffffffffffffffffffffff1673ffffffffffffffffffffffffffffffffffffffff16636352211e836040518263ffffffff1660e01b81526004018082815260200191505060206040518083038186803b15801561397f57600080fd5b505afa158015613993573d6000803e3d6000fd5b505050506040513d60208110156139a957600080fd5b810190808051906020019092919050505073ffffffffffffffffffffffffffffffffffffffff1614613a26576040517f08c379a00000000000000000000000000000000000000000000000000000000081526004018080602001828103825260248152602001806156fd6024913960400191505060405180910390fd5b6000613a30615647565b9050600560009054906101000a900473ffffffffffffffffffffffffffffffffffffffff1673ffffffffffffffffffffffffffffffffffffffff166342db158982600460009054906101000a900473ffffffffffffffffffffffffffffffffffffffff1673ffffffffffffffffffffffffffffffffffffffff1663b8fe6abe6040518163ffffffff1660e01b815260040160206040518083038186803b158015613ad957600080fd5b505afa158015613aed573d6000803e3d6000fd5b505050506040513d6020811015613b0357600080fd5b81019080805190602001909291905050506040518363ffffffff1660e01b8152600401808373ffffffffffffffffffffffffffffffffffffffff1673ffffffffffffffffffffffffffffffffffffffff16815260200182815260200192505050602060405180830381600087803b158015613b7d57600080fd5b505af1158015613b91573d6000803e3d6000fd5b505050506040513d6020811015613ba757600080fd5b8101908080519060200190929190505050506000600360009054906101000a900473ffffffffffffffffffffffffffffffffffffffff1673ffffffffffffffffffffffffffffffffffffffff166337507a0c866040518263ffffffff1660e01b81526004018082815260200191505060206040518083038186803b158015613c2e57600080fd5b505afa158015613c42573d6000803e3d6000fd5b505050506040513d6020811015613c5857600080fd5b810190808051906020019092919050505014613cdc576040517f08c379a00000000000000000000000000000000000000000000000000000000081526004018080602001828103825260208152602001807f4b697474696520697320616c726561647920706c6179696e6720612067616d6581525060200191505060405180910390fd5b600660009054906101000a900473ffffffffffffffffffffffffffffffffffffffff1673ffffffffffffffffffffffffffffffffffffffff16636df970c585836040518363ffffffff1660e01b8152600401808381526020018273ffffffffffffffffffffffffffffffffffffffff1673ffffffffffffffffffffffffffffffffffffffff16815260200192505050600060405180830381600087803b158015613d8557600080fd5b505af1158015613d99573d6000803e3d6000fd5b505050508073ffffffffffffffffffffffffffffffffffffffff16847fda5118e11956b6ccec7a349074d6efada2b70b987d2eabba029de60d8f67b1aa426040518082815260200191505060405180910390a350505050565b613dfa615241565b600073ffffffffffffffffffffffffffffffffffffffff163373ffffffffffffffffffffffffffffffffffffffff161415613e3157fe5b613e6f6040518060400160405280600b81526020017f73757065725f61646d696e0000000000000000000000000000000000000000008152506153cb565b613ee1576040517f08c379a00000000000000000000000000000000000000000000000000000000081526004018080602001828103825260108152602001807f4f6e6c792073757065722061646d696e0000000000000000000000000000000081525060200191505060405180910390fd5b84838173ffffffffffffffffffffffffffffffffffffffff16600760009054906101000a900473ffffffffffffffffffffffffffffffffffffffff1673ffffffffffffffffffffffffffffffffffffffff16636352211e836040518263ffffffff1660e01b81526004018082815260200191505060206040518083038186803b158015613f6d57600080fd5b505afa158015613f81573d6000803e3d6000fd5b505050506040513d6020811015613f9757600080fd5b810190808051906020019092919050505073ffffffffffffffffffffffffffffffffffffffff1614614014576040517f08c379a00000000000000000000000000000000000000000000000000000000081526004018080602001828103825260248152602001806156fd6024913960400191505060405180910390fd5b85848173ffffffffffffffffffffffffffffffffffffffff16600760009054906101000a900473ffffffffffffffffffffffffffffffffffffffff1673ffffffffffffffffffffffffffffffffffffffff16636352211e836040518263ffffffff1660e01b81526004018082815260200191505060206040518083038186803b1580156140a057600080fd5b505afa1580156140b4573d6000803e3d6000fd5b505050506040513d60208110156140ca57600080fd5b810190808051906020019092919050505073ffffffffffffffffffffffffffffffffffffffff1614614147576040517f08c379a00000000000000000000000000000000000000000000000000000000081526004018080602001828103825260248152602001806156fd6024913960400191505060405180910390fd5b600660009054906101000a900473ffffffffffffffffffffffffffffffffffffffff1673ffffffffffffffffffffffffffffffffffffffff1663c484819d886040518263ffffffff1660e01b81526004018082815260200191505060206040518083038186803b1580156141ba57600080fd5b505afa1580156141ce573d6000803e3d6000fd5b505050506040513d60208110156141e457600080fd5b81019080805190602001909291905050501561424b576040517f08c379a00000000000000000000000000000000000000000000000000000000081526004018080602001828103825260268152602001806157216026913960400191505060405180910390fd5b600660009054906101000a900473ffffffffffffffffffffffffffffffffffffffff1673ffffffffffffffffffffffffffffffffffffffff1663c484819d876040518263ffffffff1660e01b81526004018082815260200191505060206040518083038186803b1580156142be57600080fd5b505afa1580156142d2573d6000803e3d6000fd5b505050506040513d60208110156142e857600080fd5b81019080805190602001909291905050501561434f576040517f08c379a00000000000000000000000000000000000000000000000000000000081526004018080602001828103825260268152602001806157216026913960400191505060405180910390fd5b600a60009054906101000a900473ffffffffffffffffffffffffffffffffffffffff1673ffffffffffffffffffffffffffffffffffffffff1663d9adf843888b6040518363ffffffff1660e01b8152600401808381526020018273ffffffffffffffffffffffffffffffffffffffff1673ffffffffffffffffffffffffffffffffffffffff16815260200192505050602060405180830381600087803b1580156143f857600080fd5b505af115801561440c573d6000803e3d6000fd5b505050506040513d602081101561442257600080fd5b810190808051906020019092919050505061443c57600080fd5b600a60009054906101000a900473ffffffffffffffffffffffffffffffffffffffff1673ffffffffffffffffffffffffffffffffffffffff1663d9adf843878a6040518363ffffffff1660e01b8152600401808381526020018273ffffffffffffffffffffffffffffffffffffffff1673ffffffffffffffffffffffffffffffffffffffff16815260200192505050602060405180830381600087803b1580156144e557600080fd5b505af11580156144f9573d6000803e3d6000fd5b505050506040513d602081101561450f57600080fd5b810190808051906020019092919050505061452957600080fd5b600860009054906101000a900473ffffffffffffffffffffffffffffffffffffffff1673ffffffffffffffffffffffffffffffffffffffff1663477d2e03866040518263ffffffff1660e01b815260040180828152602001915050602060405180830381600087803b15801561459e57600080fd5b505af11580156145b2573d6000803e3d6000fd5b505050506040513d60208110156145c857600080fd5b81019080805190602001909291905050506145e257600080fd5b8873ffffffffffffffffffffffffffffffffffffffff16877fda5118e11956b6ccec7a349074d6efada2b70b987d2eabba029de60d8f67b1aa426040518082815260200191505060405180910390a38773ffffffffffffffffffffffffffffffffffffffff16867fda5118e11956b6ccec7a349074d6efada2b70b987d2eabba029de60d8f67b1aa426040518082815260200191505060405180910390a361468d8989898989614933565b505050505050505050565b600073ffffffffffffffffffffffffffffffffffffffff16600160009054906101000a900473ffffffffffffffffffffffffffffffffffffffff1673ffffffffffffffffffffffffffffffffffffffff16141561475d576040517f08c379a00000000000000000000000000000000000000000000000000000000081526004018080602001828103825260088152602001807f4e6f2050726f787900000000000000000000000000000000000000000000000081525060200191505060405180910390fd5b6000600160009054906101000a900473ffffffffffffffffffffffffffffffffffffffff1673ffffffffffffffffffffffffffffffffffffffff166335817773836040518263ffffffff1660e01b81526004018080602001828103825283818151815260200191508051906020019080838360005b838110156147ed5780820151818401526020810190506147d2565b50505050905090810190601f16801561481a5780820380516001836020036101000a031916815260200191505b509250505060206040518083038186803b15801561483757600080fd5b505afa15801561484b573d6000803e3d6000fd5b505050506040513d602081101561486157600080fd5b81019080805190602001909291905050509050600073ffffffffffffffffffffffffffffffffffffffff168173ffffffffffffffffffffffffffffffffffffffff1614156148ab57fe5b8073ffffffffffffffffffffffffffffffffffffffff163373ffffffffffffffffffffffffffffffffffffffff161461492f576040517f08c379a000000000000000000000000000000000000000000000000000000000815260040180806020018281038252602d815260200180615747602d913960400191505060405180910390fd5b5050565b6000600260009054906101000a900473ffffffffffffffffffffffffffffffffffffffff1673ffffffffffffffffffffffffffffffffffffffff1663a4a0aa5587878787876040518663ffffffff1660e01b8152600401808673ffffffffffffffffffffffffffffffffffffffff1673ffffffffffffffffffffffffffffffffffffffff1681526020018573ffffffffffffffffffffffffffffffffffffffff1673ffffffffffffffffffffffffffffffffffffffff16815260200184815260200183815260200182815260200195505050505050602060405180830381600087803b158015614a2257600080fd5b505af1158015614a36573d6000803e3d6000fd5b505050506040513d6020811015614a4c57600080fd5b81019080805190602001909291905050509050600860009054906101000a900473ffffffffffffffffffffffffffffffffffffffff1673ffffffffffffffffffffffffffffffffffffffff16633422476d826040518263ffffffff1660e01b815260040180828152602001915050600060405180830381600087803b158015614ad457600080fd5b505af1158015614ae8573d6000803e3d6000fd5b50505050600080600560009054906101000a900473ffffffffffffffffffffffffffffffffffffffff1673ffffffffffffffffffffffffffffffffffffffff1663f1d4be10846040518263ffffffff1660e01b8152600401808281526020019150506040805180830381600087803b158015614b6357600080fd5b505af1158015614b77573d6000803e3d6000fd5b505050506040513d6040811015614b8d57600080fd5b81019080805190602001909291908051906020019092919050505091509150600260009054906101000a900473ffffffffffffffffffffffffffffffffffffffff1673ffffffffffffffffffffffffffffffffffffffff1663b2b0eb458484846040518463ffffffff1660e01b8152600401808481526020018381526020018281526020019350505050600060405180830381600087803b158015614c3157600080fd5b505af1158015614c45573d6000803e3d6000fd5b505050506000600160009054906101000a900473ffffffffffffffffffffffffffffffffffffffff1673ffffffffffffffffffffffffffffffffffffffff1663358177736040518060400160405280600981526020017f54696d654672616d6500000000000000000000000000000000000000000000008152506040518263ffffffff1660e01b81526004018080602001828103825283818151815260200191508051906020019080838360005b83811015614d0e578082015181840152602081019050614cf3565b50505050905090810190601f168015614d3b5780820380516001836020036101000a031916815260200191505b509250505060206040518083038186803b158015614d5857600080fd5b505afa158015614d6c573d6000803e3d6000fd5b505050506040513d6020811015614d8257600080fd5b810190808051906020019092919050505073ffffffffffffffffffffffffffffffffffffffff16630b3fbd5f6040518163ffffffff1660e01b815260040160206040518083038186803b158015614dd857600080fd5b505afa158015614dec573d6000803e3d6000fd5b505050506040513d6020811015614e0257600080fd5b81019080805190602001909291905050509050600160009054906101000a900473ffffffffffffffffffffffffffffffffffffffff1673ffffffffffffffffffffffffffffffffffffffff1663358177736040518060400160405280600b81526020017f456e646f776d656e7444420000000000000000000000000000000000000000008152506040518263ffffffff1660e01b81526004018080602001828103825283818151815260200191508051906020019080838360005b83811015614ed8578082015181840152602081019050614ebd565b50505050905090810190601f168015614f055780820380516001836020036101000a031916815260200191505b509250505060206040518083038186803b158015614f2257600080fd5b505afa158015614f36573d6000803e3d6000fd5b505050506040513d6020811015614f4c57600080fd5b810190808051906020019092919050505073ffffffffffffffffffffffffffffffffffffffff16639db1200b85836040518363ffffffff1660e01b81526004018083815260200182815260200192505050600060405180830381600087803b158015614fb757600080fd5b505af1158015614fcb573d6000803e3d6000fd5b50505050600260009054906101000a900473ffffffffffffffffffffffffffffffffffffffff1673ffffffffffffffffffffffffffffffffffffffff1663fd3d1c248789876040518463ffffffff1660e01b8152600401808481526020018381526020018281526020019350505050600060405180830381600087803b15801561505457600080fd5b505af1158015615068573d6000803e3d6000fd5b50505050600860009054906101000a900473ffffffffffffffffffffffffffffffffffffffff1673ffffffffffffffffffffffffffffffffffffffff16637b179988856040518263ffffffff1660e01b815260040180828152602001915050600060405180830381600087803b1580156150e157600080fd5b505af11580156150f5573d6000803e3d6000fd5b50505050600860009054906101000a900473ffffffffffffffffffffffffffffffffffffffff1673ffffffffffffffffffffffffffffffffffffffff16630c03955f856040518263ffffffff1660e01b815260040180828152602001915050600060405180830381600087803b15801561516e57600080fd5b505af1158015615182573d6000803e3d6000fd5b50505050837fc15da047551ef562c7c09ead43c6e8ffd313e0337fa024eba1d156410212a43989888c8b8a604051808673ffffffffffffffffffffffffffffffffffffffff1673ffffffffffffffffffffffffffffffffffffffff1681526020018581526020018473ffffffffffffffffffffffffffffffffffffffff1673ffffffffffffffffffffffffffffffffffffffff1681526020018381526020018281526020019550505050505060405180910390a2505050505050505050565b600073ffffffffffffffffffffffffffffffffffffffff16600160009054906101000a900473ffffffffffffffffffffffffffffffffffffffff1673ffffffffffffffffffffffffffffffffffffffff161415615306576040517f08c379a00000000000000000000000000000000000000000000000000000000081526004018080602001828103825260088152602001807f4e6f2050726f787900000000000000000000000000000000000000000000000081525060200191505060405180910390fd5b600160009054906101000a900473ffffffffffffffffffffffffffffffffffffffff1673ffffffffffffffffffffffffffffffffffffffff163373ffffffffffffffffffffffffffffffffffffffff16146153c9576040517f08c379a00000000000000000000000000000000000000000000000000000000081526004018080602001828103825260128152602001807f4f6e6c79207468726f7567682050726f7879000000000000000000000000000081525060200191505060405180910390fd5b565b6000600160009054906101000a900473ffffffffffffffffffffffffffffffffffffffff1673ffffffffffffffffffffffffffffffffffffffff1663358177736040518060400160405280600681526020017f526f6c65444200000000000000000000000000000000000000000000000000008152506040518263ffffffff1660e01b81526004018080602001828103825283818151815260200191508051906020019080838360005b83811015615490578082015181840152602081019050615475565b50505050905090810190601f1680156154bd5780820380516001836020036101000a031916815260200191505b509250505060206040518083038186803b1580156154da57600080fd5b505afa1580156154ee573d6000803e3d6000fd5b505050506040513d602081101561550457600080fd5b810190808051906020019092919050505073ffffffffffffffffffffffffffffffffffffffff16636c9cd09783615539615647565b6040518363ffffffff1660e01b815260040180806020018373ffffffffffffffffffffffffffffffffffffffff1673ffffffffffffffffffffffffffffffffffffffff168152602001828103825284818151815260200191508051906020019080838360005b838110156155ba57808201518184015260208101905061559f565b50505050905090810190601f1680156155e75780820380516001836020036101000a031916815260200191505b50935050505060206040518083038186803b15801561560557600080fd5b505afa158015615619573d6000803e3d6000fd5b505050506040513d602081101561562f57600080fd5b81019080805190602001909291905050509050919050565b6000600160009054906101000a900473ffffffffffffffffffffffffffffffffffffffff1673ffffffffffffffffffffffffffffffffffffffff163373ffffffffffffffffffffffffffffffffffffffff16146156a6573390506156f9565b6000601436036000602052601481602c37602051915050600073ffffffffffffffffffffffffffffffffffffffff168173ffffffffffffffffffffffffffffffffffffffff1614156156f457fe5b809150505b9056fe596f7520617265206e6f7420746865206f776e6572206f662074686973206b69747469656669676874657220697320616c7265616479206c697374656420666f72206d61746368696e67416363657373206973206f6e6c7920616c6c6f7765642066726f6d20737065636966696320636f6e7472616374a265627a7a7231582053dcaa6dbdb8440cb645cb9750af63cd6eec9689fa60b479ae597aba29ed1b8c64736f6c63430005110032",
  "source": "/**\r\n * @title GamesManager\r\n *\r\n * @author @wafflemakr @karl @vikrammandal\r\n\r\n *\r\n */\r\n//modifier class (DSAuth )\r\n//Event class ( DSNote )\r\n//\r\n// This program is free software: you can redistribute it and/or modify\r\n// it under the terms of the GNU General Public License as published by\r\n// the Free Software Foundation, either version 3 of the License, or\r\n// (at your option) any later version.\r\n\r\n// This program is distributed in the hope that it will be useful,\r\n// but WITHOUT ANY WARRANTY; without even the implied warranty of\r\n// MERCHANTABILITY or FITNESS FOR A PARTICULAR PURPOSE.  See the\r\n// GNU General Public License for more details.\r\n\r\n// You should have received a copy of the GNU General Public License\r\n// along with this program.  If not, see <http://www.gnu.org/licenses/>.\r\n\r\npragma solidity ^0.5.5;\r\n\r\nimport '../proxy/Proxied.sol';\r\nimport \"../datetime/TimeFrame.sol\";\r\nimport \"../databases/EndowmentDB.sol\";\r\nimport \"../databases/GMSetterDB.sol\";\r\nimport \"../databases/GMGetterDB.sol\";\r\nimport \"../../GameVarAndFee.sol\";\r\nimport \"../endowment/EndowmentFund.sol\";\r\nimport \"./Scheduler.sol\";\r\nimport \"../../libs/SafeMath.sol\";\r\nimport '../../authority/Guard.sol';\r\nimport \"../../interfaces/IKittyCore.sol\";\r\nimport \"./GameStore.sol\";\r\nimport \"./GameManager.sol\";\r\nimport \"../../CronJob.sol\";\r\nimport \"./Forfeiter.sol\";\r\nimport '../kittieHELL/KittieHell.sol';\r\n\r\ncontract GameCreation is Proxied, Guard {\r\n    using SafeMath for uint256;\r\n\r\n    //Contract Variables\r\n    GMSetterDB public gmSetterDB;\r\n    GMGetterDB public gmGetterDB;\r\n    GameVarAndFee public gameVarAndFee;\r\n    EndowmentFund public endowmentFund;\r\n    Scheduler public scheduler;\r\n    IKittyCore public cryptoKitties;\r\n    GameStore public gameStore;\r\n    CronJob public cronJob;\r\n    KittieHell public kittieHELL;\r\n\r\n    //EVENTS\r\n    event NewGame(uint indexed gameId, address playerBlack, uint kittieBlack, address playerRed, uint kittieRed, uint gameStartTime);\r\n    event NewListing(uint indexed kittieId, address indexed owner, uint timeListed);\r\n    event Scheduled(uint indexed jobId, uint jobTime, uint indexed gameId, string job);\r\n\r\n    mapping(uint256 => uint256) public cronJobsForGames;\r\n\r\n    modifier onlyKittyOwner(address player, uint kittieId) {\r\n        require(cryptoKitties.ownerOf(kittieId) == player, \"You are not the owner of this kittie\");\r\n        _;\r\n    }\r\n\r\n    /**\r\n    * @dev Sets related contracts\r\n    * @dev Can be called only by the owner of this contract\r\n    */\r\n    function initialize() external onlyOwner {\r\n        gmSetterDB = GMSetterDB(proxy.getContract(CONTRACT_NAME_GM_SETTER_DB));\r\n        gmGetterDB = GMGetterDB(proxy.getContract(CONTRACT_NAME_GM_GETTER_DB));\r\n        endowmentFund = EndowmentFund(proxy.getContract(CONTRACT_NAME_ENDOWMENT_FUND));\r\n        gameVarAndFee = GameVarAndFee(proxy.getContract(CONTRACT_NAME_GAMEVARANDFEE));\r\n        scheduler = Scheduler(proxy.getContract(CONTRACT_NAME_SCHEDULER));\r\n        cryptoKitties = IKittyCore(proxy.getContract(CONTRACT_NAME_CRYPTOKITTIES));\r\n        gameStore = GameStore(proxy.getContract(CONTRACT_NAME_GAMESTORE));\r\n        cronJob = CronJob(proxy.getContract(CONTRACT_NAME_CRONJOB));\r\n        kittieHELL = KittieHell(proxy.getContract(CONTRACT_NAME_KITTIEHELL));\r\n    }\r\n\r\n    /**\r\n     * @dev calculate listing fee dynamically as a percentage of initial honey pot\r\n     */\r\n   //function calculateListingFee() public view returns(uint256)\r\n    //{\r\n      //  uint256 percentageHoneyPot = gameVarAndFee.getPercentageForListingFee();\r\n      //  uint256 initialHoneypotEth = gameVarAndFee.getEthPerGame();\r\n      //  uint256 initialHoneypotKTY = gameVarAndFee.getPercentageJackpotAllocationKTY().mul(gameVarAndFee.getActualFundsKTY());\r\n      //  return gameStore.calculateDynamicFee(percentageHoneyPot, initialHoneypotEth, initialHoneypotKTY);\r\n    //}\r\n\r\n    /**\r\n     * @dev Checks and prevents unverified accounts, only accounts with available kitties can list\r\n     */\r\n    function listKittie\r\n    (\r\n        uint kittieId\r\n    )\r\n        external\r\n        onlyProxy onlyPlayer\r\n        onlyKittyOwner(getOriginalSender(), kittieId) //currently doesKittieBelong is not used, better\r\n    {\r\n        address player = getOriginalSender();\r\n\r\n        //Pay Listing Fee\r\n        endowmentFund.contributeKTY(player, gameVarAndFee.getListingFee());\r\n\r\n        require((gmGetterDB.getGameOfKittie(kittieId) == 0), \"Kittie is already playing a game\");\r\n\r\n        scheduler.addKittyToList(kittieId, player);\r\n\r\n        emit NewListing(kittieId, player, now);\r\n    }\r\n\r\n    /**\r\n     * @dev Check to make sure the only superADmin can list, Takes in two kittieID's and accounts as well as the jackpot ether and token number.\r\n     */\r\n    function manualMatchKitties\r\n    (\r\n        address playerRed, address playerBlack,\r\n        uint256 kittyRed, uint256 kittyBlack,\r\n        uint gameStartTime\r\n    )\r\n        external\r\n        onlyProxy onlySuperAdmin\r\n        onlyKittyOwner(playerRed, kittyRed)\r\n        onlyKittyOwner(playerBlack, kittyBlack)\r\n    {\r\n        require(!scheduler.isKittyListedForMatching(kittyRed), \"fighter is already listed for matching\");\r\n        require(!scheduler.isKittyListedForMatching(kittyBlack), \"fighter is already listed for matching\");\r\n\r\n        require(kittieHELL.manualAcquireKitty(kittyRed, playerRed));\r\n        require(kittieHELL.manualAcquireKitty(kittyBlack, playerBlack));\r\n\r\n        require(gameStore.startManually(gameStartTime));\r\n\r\n        emit NewListing(kittyRed, playerRed, now);\r\n        emit NewListing(kittyBlack, playerBlack, now);\r\n\r\n        generateFight(playerRed, playerBlack, kittyRed, kittyBlack, gameStartTime);\r\n    }\r\n\r\n    /**\r\n     * @dev Creates game and generates gameId\r\n     * @return gameId\r\n     */\r\n    function generateFight\r\n    (\r\n        address playerRed, address playerBlack,\r\n        uint256 kittyRed, uint256 kittyBlack,\r\n        uint gameStartTime\r\n    )\r\n        internal\r\n    {\r\n        uint256 gameId = gmSetterDB.createGame(\r\n            playerRed, playerBlack, kittyRed, kittyBlack, gameStartTime);\r\n        \r\n        gameStore.lockVars(gameId);\r\n\r\n        (uint initialKTY, uint initialEth) = endowmentFund.generateHoneyPot(gameId);\r\n        gmSetterDB.setHoneypotInfo(gameId, initialKTY, initialEth);\r\n\r\n        uint poolId = TimeFrame(proxy.getContract(CONTRACT_NAME_TIMEFRAME)).getActiveEpochID();\r\n\r\n        EndowmentDB(proxy.getContract(CONTRACT_NAME_ENDOWMENT_DB)).setPoolIDinGame(gameId, poolId);\r\n\r\n        gmSetterDB.updateKittiesGame(kittyBlack, kittyRed, gameId);\r\n\r\n        // update ticket fee dynamically as a percentage of initial honeypot size\r\n        gameStore.updateTicketFee(gameId);\r\n\r\n        // update betting fee dynamically as a percentage of initial honeypot size\r\n        gameStore.updateBettingFee(gameId);\r\n\r\n        emit NewGame(gameId, playerBlack, kittyBlack, playerRed, kittyRed, gameStartTime);\r\n    }\r\n\r\n    /**\r\n     * @dev External function for Scheduler to call\r\n     * @return gameId\r\n     */\r\n    function createFight\r\n    (\r\n        address playerRed, address playerBlack,\r\n        uint256 kittyRed, uint256 kittyBlack,\r\n        uint gameStartTime\r\n    )\r\n        external\r\n        onlyContract(CONTRACT_NAME_SCHEDULER)\r\n    {\r\n        generateFight(playerRed, playerBlack, kittyRed, kittyBlack, gameStartTime);\r\n    }\r\n\r\n    function removeKitties(uint256 gameId)\r\n        external\r\n        onlyContract(CONTRACT_NAME_GAMEMANAGER)\r\n    {\r\n        ( , ,uint256 kittyBlack, uint256 kittyRed) = gmGetterDB.getGamePlayers(gameId);\r\n        //Set gameId to 0 to both kitties (not playing any game)\r\n        gmSetterDB.updateKittiesGame(kittyBlack, kittyRed, 0);\r\n    }\r\n\r\n    function updateKitties(address winner, address loser, uint256 gameId)\r\n    external\r\n    onlyContract(CONTRACT_NAME_GAMEMANAGER)\r\n    {\r\n        //Release winner's Kittie\r\n        kittieHELL.releaseKittyGameManager(gmGetterDB.getKittieInGame(gameId, winner));\r\n\r\n        //Kill losers's Kittie\r\n        kittieHELL.killKitty(gmGetterDB.getKittieInGame(gameId, loser), gameId);\r\n    }\r\n\r\n\r\n    // ==== CRONJOBS FUNCTIONS\r\n\r\n    function scheduleJobs(uint256 gameId, uint256 state)\r\n    external\r\n    onlyContract(CONTRACT_NAME_GM_SETTER_DB)\r\n    {\r\n        if(state == 0){\r\n            (,uint preStartTime,) = gmGetterDB.getGameTimes(gameId);\r\n            uint scheduledJob = cronJob.addCronJob(CONTRACT_NAME_GAMECREATION, preStartTime, abi.encodeWithSignature(\"updateGameStateCron(uint256)\", gameId));\r\n            emit Scheduled(scheduledJob, preStartTime, gameId, \"Change state to 1\");\r\n            cronJobsForGames[gameId] = scheduledJob;\r\n        }\r\n\r\n        if(state == 1){\r\n            //If it is PRE_GAME STATE, again, when the job is scheduled (startTime), it should start, as both players press start\r\n            //So if state did not change we must cancelGame\r\n            //If they both press start this job is cancelled (In start function of GameManager)\r\n            (uint startTime,,) = gmGetterDB.getGameTimes(gameId);\r\n            uint scheduledJob = cronJob.addCronJob(CONTRACT_NAME_GAMECREATION, startTime, abi.encodeWithSignature(\"callForfeiterCron(uint256)\", gameId));\r\n            emit Scheduled(scheduledJob, startTime, gameId, \"Change state to 2\");\r\n            cronJobsForGames[gameId] = scheduledJob;\r\n        }\r\n        if(state == 2){\r\n            //If it is MAIN_GAME we endgame immediately\r\n            //We reschedule this Job if game extends (In checkPerformance of GameManager)\r\n            (,,uint endTime) = gmGetterDB.getGameTimes(gameId);\r\n            uint scheduledJob = cronJob.addCronJob(CONTRACT_NAME_GAMECREATION, endTime, abi.encodeWithSignature(\"callGameEndCron(uint256)\", gameId));\r\n            emit Scheduled(scheduledJob, endTime, gameId, \"Change state to 3\");\r\n            cronJobsForGames[gameId] = scheduledJob;\r\n        }\r\n    }\r\n\r\n    \r\n    function updateGameStateCron(uint256 gameId)\r\n        external\r\n        onlyContract(CONTRACT_NAME_CRONJOB)\r\n    {\r\n        uint state = gmGetterDB.getGameState(gameId);\r\n        //Check forfeiter before updating game state\r\n        Forfeiter(proxy.getContract(CONTRACT_NAME_FORFEITER)).checkGameStatusCron(gameId, state);\r\n        state = gmGetterDB.getGameState(gameId);\r\n        if (state == 0) gmSetterDB.updateGameStateCron(gameId);\r\n    }\r\n\r\n    function callForfeiterCron(uint gameId)\r\n        external\r\n        onlyContract(CONTRACT_NAME_CRONJOB)\r\n    {\r\n        Forfeiter(proxy.getContract(CONTRACT_NAME_FORFEITER)).forfeitCron(gameId, \"Did not hit start\");\r\n    }\r\n\r\n    function callGameEndCron(uint gameId)\r\n        external\r\n        onlyContract(CONTRACT_NAME_CRONJOB)\r\n    {\r\n        uint state = gmGetterDB.getGameState(gameId);\r\n        if (state == 2) GameManager(proxy.getContract(CONTRACT_NAME_GAMEMANAGER)).gameEndCron(gameId);\r\n    }\r\n\r\n    function rescheduleCronJob(uint gameId)\r\n        external\r\n        onlyContract(CONTRACT_NAME_GAMEMANAGER)\r\n    {\r\n        //Reschedule CronJob when more time added\r\n        uint256 jobId = cronJobsForGames[gameId];\r\n        (,,uint endTime) = gmGetterDB.getGameTimes(gameId);\r\n        uint newJobId = cronJob.rescheduleCronJob(CONTRACT_NAME_GAMECREATION, jobId, endTime);\r\n        emit Scheduled(newJobId, endTime, gameId, \"Change state to 3\");\r\n        cronJobsForGames[gameId] = newJobId;\r\n    }\r\n\r\n    function deleteCronjob(uint gameId)\r\n        external\r\n        onlyContract(CONTRACT_NAME_GAMEMANAGER)\r\n    {\r\n        uint256 jobId = cronJobsForGames[gameId];\r\n        cronJob.deleteCronJob(CONTRACT_NAME_GAMECREATION, jobId);\r\n    }\r\n}\r\n",
  "sourcePath": "C:\\Users\\Alex\\Desktop\\MyProjects\\contracts\\contracts\\modules\\gamemanager\\GameCreation.sol",
  "compiler": {
    "name": "solc",
    "version": "0.5.17+commit.d19bba13.Emscripten.clang"
  },
  "schemaVersion": "3.0.11",
  "updatedAt": "2020-05-07T16:31:55.221Z",
  "devdoc": {
    "methods": {
      "createFight(address,address,uint256,uint256,uint256)": {
        "details": "External function for Scheduler to call",
        "return": "gameId"
      },
      "initialize()": {
        "details": "Sets related contractsCan be called only by the owner of this contract"
      },
      "listKittie(uint256)": {
        "details": "Checks and prevents unverified accounts, only accounts with available kitties can list"
      },
      "manualMatchKitties(address,address,uint256,uint256,uint256)": {
        "details": "Check to make sure the only superADmin can list, Takes in two kittieID's and accounts as well as the jackpot ether and token number."
      }
    }
  },
  "userdoc": {
    "methods": {
      "setProxy(address)": {
        "notice": "Set/update address of Proxy contract"
      }
    }
  }
}