{
  "contractName": "GameStore",
  "abi": [
    {
      "constant": true,
      "inputs": [
        {
          "internalType": "uint256",
          "name": "",
          "type": "uint256"
        },
        {
          "internalType": "address",
          "name": "",
          "type": "address"
        }
      ],
      "name": "gameByPlayer",
      "outputs": [
        {
          "internalType": "uint256",
          "name": "randomNum",
          "type": "uint256"
        },
        {
          "internalType": "bool",
          "name": "pressedStart",
          "type": "bool"
        },
        {
          "internalType": "address",
          "name": "topBettor",
          "type": "address"
        },
        {
          "internalType": "address",
          "name": "secondTopBettor",
          "type": "address"
        }
      ],
      "payable": false,
      "stateMutability": "view",
      "type": "function"
    },
    {
      "constant": true,
      "inputs": [
        {
          "internalType": "uint256",
          "name": "",
          "type": "uint256"
        }
      ],
      "name": "gameSettings",
      "outputs": [
        {
          "internalType": "uint256",
          "name": "bettingFee",
          "type": "uint256"
        },
        {
          "internalType": "uint256",
          "name": "ticketFee",
          "type": "uint256"
        },
        {
          "internalType": "uint256",
          "name": "redemptionFee",
          "type": "uint256"
        },
        {
          "internalType": "uint256",
          "name": "kittieHellExpirationTime",
          "type": "uint256"
        },
        {
          "internalType": "uint256",
          "name": "honeypotExpirationTime",
          "type": "uint256"
        },
        {
          "internalType": "uint256",
          "name": "minimumContributors",
          "type": "uint256"
        },
        {
          "internalType": "uint256",
          "name": "finalizeRewards",
          "type": "uint256"
        },
        {
          "internalType": "uint256",
          "name": "timeExtension",
          "type": "uint256"
        },
        {
          "internalType": "uint256",
          "name": "performanceTime",
          "type": "uint256"
        }
      ],
      "payable": false,
      "stateMutability": "view",
      "type": "function"
    },
    {
      "constant": true,
      "inputs": [],
      "name": "gameVarAndFee",
      "outputs": [
        {
          "internalType": "contract GameVarAndFee",
          "name": "",
          "type": "address"
        }
      ],
      "payable": false,
      "stateMutability": "view",
      "type": "function"
    },
    {
      "constant": true,
      "inputs": [],
      "name": "gmGetterDB",
      "outputs": [
        {
          "internalType": "contract GMGetterDB",
          "name": "",
          "type": "address"
        }
      ],
      "payable": false,
      "stateMutability": "view",
      "type": "function"
    },
    {
      "constant": true,
      "inputs": [],
      "name": "hitsResolve",
      "outputs": [
        {
          "internalType": "contract HitsResolve",
          "name": "",
          "type": "address"
        }
      ],
      "payable": false,
      "stateMutability": "view",
      "type": "function"
    },
    {
      "constant": true,
      "inputs": [],
      "name": "owner",
      "outputs": [
        {
          "internalType": "address payable",
          "name": "",
          "type": "address"
        }
      ],
      "payable": false,
      "stateMutability": "view",
      "type": "function"
    },
    {
      "constant": true,
      "inputs": [],
      "name": "proxy",
      "outputs": [
        {
          "internalType": "contract ProxyBase",
          "name": "",
          "type": "address"
        }
      ],
      "payable": false,
      "stateMutability": "view",
      "type": "function"
    },
    {
      "constant": false,
      "inputs": [
        {
          "internalType": "contract ProxyBase",
          "name": "_proxy",
          "type": "address"
        }
      ],
      "name": "setProxy",
      "outputs": [],
      "payable": false,
      "stateMutability": "nonpayable",
      "type": "function"
    },
    {
      "constant": false,
      "inputs": [
        {
          "internalType": "address payable",
          "name": "newOwner",
          "type": "address"
        }
      ],
      "name": "transferOwnership",
      "outputs": [],
      "payable": false,
      "stateMutability": "nonpayable",
      "type": "function"
    },
    {
      "constant": false,
      "inputs": [],
      "name": "initialize",
      "outputs": [],
      "payable": false,
      "stateMutability": "nonpayable",
      "type": "function"
    },
    {
      "constant": false,
      "inputs": [
        {
          "internalType": "uint256",
          "name": "gameId",
          "type": "uint256"
        }
      ],
      "name": "lockVars",
      "outputs": [],
      "payable": false,
      "stateMutability": "nonpayable",
      "type": "function"
    },
    {
      "constant": false,
      "inputs": [
        {
          "internalType": "uint256",
          "name": "gameId",
          "type": "uint256"
        }
      ],
      "name": "lockVarsAdmin",
      "outputs": [],
      "payable": false,
      "stateMutability": "nonpayable",
      "type": "function"
    },
    {
      "constant": true,
      "inputs": [
        {
          "internalType": "uint256",
          "name": "gameId",
          "type": "uint256"
        }
      ],
      "name": "getDistributionRates",
      "outputs": [
        {
          "internalType": "uint256[5]",
          "name": "",
          "type": "uint256[5]"
        }
      ],
      "payable": false,
      "stateMutability": "view",
      "type": "function"
    },
    {
      "constant": true,
      "inputs": [
        {
          "internalType": "uint256",
          "name": "percentageHoneyPot",
          "type": "uint256"
        },
        {
          "internalType": "uint256",
          "name": "_eth_amount",
          "type": "uint256"
        },
        {
          "internalType": "uint256",
          "name": "_kty_amount",
          "type": "uint256"
        }
      ],
      "name": "calculateDynamicFee",
      "outputs": [
        {
          "internalType": "uint256",
          "name": "",
          "type": "uint256"
        }
      ],
      "payable": false,
      "stateMutability": "view",
      "type": "function"
    },
    {
      "constant": false,
      "inputs": [
        {
          "internalType": "uint256",
          "name": "gameId",
          "type": "uint256"
        }
      ],
      "name": "updateKittieRedemptionFee",
      "outputs": [],
      "payable": false,
      "stateMutability": "nonpayable",
      "type": "function"
    },
    {
      "constant": false,
      "inputs": [
        {
          "internalType": "uint256",
          "name": "gameId",
          "type": "uint256"
        }
      ],
      "name": "updateTicketFee",
      "outputs": [],
      "payable": false,
      "stateMutability": "nonpayable",
      "type": "function"
    },
    {
      "constant": false,
      "inputs": [
        {
          "internalType": "uint256",
          "name": "gameId",
          "type": "uint256"
        }
      ],
      "name": "updateBettingFee",
      "outputs": [],
      "payable": false,
      "stateMutability": "nonpayable",
      "type": "function"
    },
    {
      "constant": true,
      "inputs": [
        {
          "internalType": "uint256",
          "name": "gameId",
          "type": "uint256"
        }
      ],
      "name": "getKittieExpirationTime",
      "outputs": [
        {
          "internalType": "uint256",
          "name": "",
          "type": "uint256"
        }
      ],
      "payable": false,
      "stateMutability": "view",
      "type": "function"
    },
    {
      "constant": true,
      "inputs": [
        {
          "internalType": "uint256",
          "name": "gameId",
          "type": "uint256"
        }
      ],
      "name": "getKittieRedemptionFee",
      "outputs": [
        {
          "internalType": "uint256",
          "name": "",
          "type": "uint256"
        }
      ],
      "payable": false,
      "stateMutability": "view",
      "type": "function"
    },
    {
      "constant": true,
      "inputs": [
        {
          "internalType": "uint256",
          "name": "gameId",
          "type": "uint256"
        }
      ],
      "name": "getHoneypotExpiration",
      "outputs": [
        {
          "internalType": "uint256",
          "name": "",
          "type": "uint256"
        }
      ],
      "payable": false,
      "stateMutability": "view",
      "type": "function"
    },
    {
      "constant": false,
      "inputs": [
        {
          "internalType": "uint256",
          "name": "gameId",
          "type": "uint256"
        },
        {
          "internalType": "address",
          "name": "player",
          "type": "address"
        },
        {
          "internalType": "uint256",
          "name": "randomNum",
          "type": "uint256"
        }
      ],
      "name": "start",
      "outputs": [],
      "payable": false,
      "stateMutability": "nonpayable",
      "type": "function"
    },
    {
      "constant": true,
      "inputs": [
        {
          "internalType": "uint256",
          "name": "gameId",
          "type": "uint256"
        },
        {
          "internalType": "address",
          "name": "player",
          "type": "address"
        }
      ],
      "name": "didHitStart",
      "outputs": [
        {
          "internalType": "bool",
          "name": "",
          "type": "bool"
        }
      ],
      "payable": false,
      "stateMutability": "view",
      "type": "function"
    },
    {
      "constant": true,
      "inputs": [
        {
          "internalType": "uint256",
          "name": "gameId",
          "type": "uint256"
        },
        {
          "internalType": "address",
          "name": "player",
          "type": "address"
        }
      ],
      "name": "getRandom",
      "outputs": [
        {
          "internalType": "uint256",
          "name": "",
          "type": "uint256"
        }
      ],
      "payable": false,
      "stateMutability": "view",
      "type": "function"
    },
    {
      "constant": false,
      "inputs": [
        {
          "internalType": "uint256",
          "name": "gameId",
          "type": "uint256"
        },
        {
          "internalType": "address",
          "name": "player",
          "type": "address"
        },
        {
          "internalType": "address",
          "name": "newTopBettor",
          "type": "address"
        }
      ],
      "name": "updateTopBettor",
      "outputs": [],
      "payable": false,
      "stateMutability": "nonpayable",
      "type": "function"
    },
    {
      "constant": true,
      "inputs": [
        {
          "internalType": "uint256",
          "name": "gameId",
          "type": "uint256"
        },
        {
          "internalType": "address",
          "name": "player",
          "type": "address"
        }
      ],
      "name": "getTopBettor",
      "outputs": [
        {
          "internalType": "address",
          "name": "",
          "type": "address"
        }
      ],
      "payable": false,
      "stateMutability": "view",
      "type": "function"
    },
    {
      "constant": false,
      "inputs": [
        {
          "internalType": "uint256",
          "name": "gameId",
          "type": "uint256"
        },
        {
          "internalType": "address",
          "name": "player",
          "type": "address"
        },
        {
          "internalType": "address",
          "name": "newSecondTopBettor",
          "type": "address"
        }
      ],
      "name": "updateSecondTopBettor",
      "outputs": [],
      "payable": false,
      "stateMutability": "nonpayable",
      "type": "function"
    },
    {
      "constant": true,
      "inputs": [
        {
          "internalType": "uint256",
          "name": "gameId",
          "type": "uint256"
        },
        {
          "internalType": "address",
          "name": "player",
          "type": "address"
        }
      ],
      "name": "getSecondTopBettor",
      "outputs": [
        {
          "internalType": "address",
          "name": "",
          "type": "address"
        }
      ],
      "payable": false,
      "stateMutability": "view",
      "type": "function"
    },
    {
      "constant": true,
      "inputs": [
        {
          "internalType": "uint256",
          "name": "gameId",
          "type": "uint256"
        }
      ],
      "name": "getTicketFee",
      "outputs": [
        {
          "internalType": "uint256",
          "name": "",
          "type": "uint256"
        }
      ],
      "payable": false,
      "stateMutability": "view",
      "type": "function"
    },
    {
      "constant": true,
      "inputs": [
        {
          "internalType": "uint256",
          "name": "gameId",
          "type": "uint256"
        }
      ],
      "name": "getBettingFee",
      "outputs": [
        {
          "internalType": "uint256",
          "name": "",
          "type": "uint256"
        }
      ],
      "payable": false,
      "stateMutability": "view",
      "type": "function"
    },
    {
      "constant": true,
      "inputs": [
        {
          "internalType": "uint256",
          "name": "gameId",
          "type": "uint256"
        }
      ],
      "name": "getMinimumContributors",
      "outputs": [
        {
          "internalType": "uint256",
          "name": "",
          "type": "uint256"
        }
      ],
      "payable": false,
      "stateMutability": "view",
      "type": "function"
    },
    {
      "constant": true,
      "inputs": [
        {
          "internalType": "uint256",
          "name": "gameId",
          "type": "uint256"
        }
      ],
      "name": "getFinalizeRewards",
      "outputs": [
        {
          "internalType": "uint256",
          "name": "",
          "type": "uint256"
        }
      ],
      "payable": false,
      "stateMutability": "view",
      "type": "function"
    },
    {
      "constant": true,
      "inputs": [
        {
          "internalType": "uint256",
          "name": "gameId",
          "type": "uint256"
        }
      ],
      "name": "getPerformanceTimeCheck",
      "outputs": [
        {
          "internalType": "uint256",
          "name": "",
          "type": "uint256"
        }
      ],
      "payable": false,
      "stateMutability": "view",
      "type": "function"
    },
    {
      "constant": true,
      "inputs": [
        {
          "internalType": "uint256",
          "name": "gameId",
          "type": "uint256"
        }
      ],
      "name": "getTimeExtension",
      "outputs": [
        {
          "internalType": "uint256",
          "name": "",
          "type": "uint256"
        }
      ],
      "payable": false,
      "stateMutability": "view",
      "type": "function"
    },
    {
      "constant": false,
      "inputs": [
        {
          "internalType": "uint256",
          "name": "_gameId",
          "type": "uint256"
        },
        {
          "internalType": "address",
          "name": "_account",
          "type": "address"
        },
        {
          "internalType": "address",
          "name": "_supportedPlayer",
          "type": "address"
        }
      ],
      "name": "updateTopbettors",
      "outputs": [],
      "payable": false,
      "stateMutability": "nonpayable",
      "type": "function"
    },
    {
      "constant": true,
      "inputs": [
        {
          "internalType": "uint256",
          "name": "gameId",
          "type": "uint256"
        },
        {
          "internalType": "address",
          "name": "player",
          "type": "address"
        }
      ],
      "name": "getOpponent",
      "outputs": [
        {
          "internalType": "address",
          "name": "",
          "type": "address"
        }
      ],
      "payable": false,
      "stateMutability": "view",
      "type": "function"
    },
    {
      "constant": true,
      "inputs": [
        {
          "internalType": "uint256",
          "name": "gameId",
          "type": "uint256"
        },
        {
          "internalType": "address",
          "name": "player",
          "type": "address"
        }
      ],
      "name": "getCorner",
      "outputs": [
        {
          "internalType": "uint256",
          "name": "",
          "type": "uint256"
        }
      ],
      "payable": false,
      "stateMutability": "view",
      "type": "function"
    },
    {
      "constant": true,
      "inputs": [
        {
          "internalType": "uint256",
          "name": "gameId",
          "type": "uint256"
        },
        {
          "internalType": "address",
          "name": "playerBlack",
          "type": "address"
        },
        {
          "internalType": "address",
          "name": "playerRed",
          "type": "address"
        },
        {
          "internalType": "uint256",
          "name": "random",
          "type": "uint256"
        }
      ],
      "name": "calculateWinner",
      "outputs": [
        {
          "internalType": "address",
          "name": "winner",
          "type": "address"
        },
        {
          "internalType": "address",
          "name": "loser",
          "type": "address"
        },
        {
          "internalType": "uint256",
          "name": "pointsBlack",
          "type": "uint256"
        },
        {
          "internalType": "uint256",
          "name": "pointsRed",
          "type": "uint256"
        }
      ],
      "payable": false,
      "stateMutability": "view",
      "type": "function"
    },
    {
      "constant": false,
      "inputs": [
        {
          "internalType": "uint256",
          "name": "gameId",
          "type": "uint256"
        },
        {
          "internalType": "uint256",
          "name": "gameEndTime",
          "type": "uint256"
        }
      ],
      "name": "checkPerformanceHelper",
      "outputs": [
        {
          "internalType": "bool",
          "name": "",
          "type": "bool"
        }
      ],
      "payable": false,
      "stateMutability": "nonpayable",
      "type": "function"
    }
  ],
  "bytecode": "0x6080604052336000806101000a81548173ffffffffffffffffffffffffffffffffffffffff021916908373ffffffffffffffffffffffffffffffffffffffff1602179055506142af806100536000396000f3fe608060405234801561001057600080fd5b50600436106102325760003560e01c80637b17998811610130578063c02c8ed7116100b8578063ec5568891161007c578063ec55688914610dcb578063f2fde38b14610e15578063f3ef7d2c14610e59578063f58f32cf14610e9b578063f9ccbdf214610edd57610232565b8063c02c8ed714610b66578063c97d996914610ba8578063c9fe0cef14610c16578063cefc482614610c6c578063ebff754a14610d6557610232565b806397107d6d116100ff57806397107d6d146109955780639dac052e146109d9578063a3b3bd7b14610a07578063aa84869f14610a51578063b83d8c5214610a9357610232565b80637b179988146108c95780638129fc1c146108f75780638ad7877a146109015780638da5cb5b1461094b57610232565b80632fab9fd3116101be57806353d820f91161018257806353d820f9146106d35780635daaf798146107415780635f87206d1461076f5780636991b5bf146107fd5780636e47c6351461086757610232565b80632fab9fd31461054357806331856c711461059357806331fa7067146105d55780633422476d146106635780633c38d0a91461069157610232565b80630d8d7aba116102055780630d8d7aba1461038f578063158d39cb146103d157806316805a29146104295780631fc75180146104b7578063299202991461050157610232565b806305931a3c146102375780630bc644f5146102b15780630c03955f1461031f5780630d1fd67a1461034d575b600080fd5b6102636004803603602081101561024d57600080fd5b8101908080359060200190929190505050610f3f565b604051808a8152602001898152602001888152602001878152602001868152602001858152602001848152602001838152602001828152602001995050505050505050505060405180910390f35b61031d600480360360608110156102c757600080fd5b8101908080359060200190929190803573ffffffffffffffffffffffffffffffffffffffff169060200190929190803573ffffffffffffffffffffffffffffffffffffffff169060200190929190505050610f8d565b005b61034b6004803603602081101561033557600080fd5b8101908080359060200190929190505050611541565b005b6103796004803603602081101561036357600080fd5b81019080803590602001909291905050506116d1565b6040518082815260200191505060405180910390f35b6103bb600480360360208110156103a557600080fd5b81019080803590602001909291905050506116f1565b6040518082815260200191505060405180910390f35b610427600480360360608110156103e757600080fd5b8101908080359060200190929190803573ffffffffffffffffffffffffffffffffffffffff16906020019092919080359060200190929190505050611711565b005b6104756004803603604081101561043f57600080fd5b8101908080359060200190929190803573ffffffffffffffffffffffffffffffffffffffff16906020019092919050505061181a565b604051808273ffffffffffffffffffffffffffffffffffffffff1673ffffffffffffffffffffffffffffffffffffffff16815260200191505060405180910390f35b6104bf611898565b604051808273ffffffffffffffffffffffffffffffffffffffff1673ffffffffffffffffffffffffffffffffffffffff16815260200191505060405180910390f35b61052d6004803603602081101561051757600080fd5b81019080803590602001909291905050506118be565b6040518082815260200191505060405180910390f35b6105796004803603604081101561055957600080fd5b8101908080359060200190929190803590602001909291905050506118de565b604051808215151515815260200191505060405180910390f35b6105bf600480360360208110156105a957600080fd5b8101908080359060200190929190505050611add565b6040518082815260200191505060405180910390f35b610621600480360360408110156105eb57600080fd5b8101908080359060200190929190803573ffffffffffffffffffffffffffffffffffffffff169060200190929190505050611afd565b604051808273ffffffffffffffffffffffffffffffffffffffff1673ffffffffffffffffffffffffffffffffffffffff16815260200191505060405180910390f35b61068f6004803603602081101561067957600080fd5b8101908080359060200190929190505050611c1e565b005b6106bd600480360360208110156106a757600080fd5b8101908080359060200190929190505050611c6a565b6040518082815260200191505060405180910390f35b61073f600480360360608110156106e957600080fd5b8101908080359060200190929190803573ffffffffffffffffffffffffffffffffffffffff169060200190929190803573ffffffffffffffffffffffffffffffffffffffff169060200190929190505050611c8a565b005b61076d6004803603602081101561075757600080fd5b8101908080359060200190929190505050611d61565b005b6107bb6004803603604081101561078557600080fd5b8101908080359060200190929190803573ffffffffffffffffffffffffffffffffffffffff169060200190929190505050611f31565b604051808273ffffffffffffffffffffffffffffffffffffffff1673ffffffffffffffffffffffffffffffffffffffff16815260200191505060405180910390f35b6108296004803603602081101561081357600080fd5b8101908080359060200190929190505050611faf565b6040518082600560200280838360005b83811015610854578082015181840152602081019050610839565b5050505090500191505060405180910390f35b6108b36004803603604081101561087d57600080fd5b8101908080359060200190929190803573ffffffffffffffffffffffffffffffffffffffff169060200190929190505050612010565b6040518082815260200191505060405180910390f35b6108f5600480360360208110156108df57600080fd5b810190808035906020019092919050505061206e565b005b6108ff6121fe565b005b6109096126ee565b604051808273ffffffffffffffffffffffffffffffffffffffff1673ffffffffffffffffffffffffffffffffffffffff16815260200191505060405180910390f35b610953612714565b604051808273ffffffffffffffffffffffffffffffffffffffff1673ffffffffffffffffffffffffffffffffffffffff16815260200191505060405180910390f35b6109d7600480360360208110156109ab57600080fd5b81019080803573ffffffffffffffffffffffffffffffffffffffff169060200190929190505050612739565b005b610a05600480360360208110156109ef57600080fd5b81019080803590602001909291905050506127d3565b005b610a0f6128c6565b604051808273ffffffffffffffffffffffffffffffffffffffff1673ffffffffffffffffffffffffffffffffffffffff16815260200191505060405180910390f35b610a7d60048036036020811015610a6757600080fd5b81019080803590602001909291905050506128ec565b6040518082815260200191505060405180910390f35b610adf60048036036040811015610aa957600080fd5b8101908080359060200190929190803573ffffffffffffffffffffffffffffffffffffffff16906020019092919050505061290c565b60405180858152602001841515151581526020018373ffffffffffffffffffffffffffffffffffffffff1673ffffffffffffffffffffffffffffffffffffffff1681526020018273ffffffffffffffffffffffffffffffffffffffff1673ffffffffffffffffffffffffffffffffffffffff16815260200194505050505060405180910390f35b610b9260048036036020811015610b7c57600080fd5b8101908080359060200190929190505050612996565b6040518082815260200191505060405180910390f35b610c1460048036036060811015610bbe57600080fd5b8101908080359060200190929190803573ffffffffffffffffffffffffffffffffffffffff169060200190929190803573ffffffffffffffffffffffffffffffffffffffff1690602001909291905050506129b6565b005b610c5660048036036060811015610c2c57600080fd5b81019080803590602001909291908035906020019092919080359060200190929190505050612a8d565b6040518082815260200191505060405180910390f35b610ce260048036036080811015610c8257600080fd5b8101908080359060200190929190803573ffffffffffffffffffffffffffffffffffffffff169060200190929190803573ffffffffffffffffffffffffffffffffffffffff16906020019092919080359060200190929190505050612ce5565b604051808573ffffffffffffffffffffffffffffffffffffffff1673ffffffffffffffffffffffffffffffffffffffff1681526020018473ffffffffffffffffffffffffffffffffffffffff1673ffffffffffffffffffffffffffffffffffffffff16815260200183815260200182815260200194505050505060405180910390f35b610db160048036036040811015610d7b57600080fd5b8101908080359060200190929190803573ffffffffffffffffffffffffffffffffffffffff169060200190929190505050613266565b604051808215151515815260200191505060405180910390f35b610dd36132d1565b604051808273ffffffffffffffffffffffffffffffffffffffff1673ffffffffffffffffffffffffffffffffffffffff16815260200191505060405180910390f35b610e5760048036036020811015610e2b57600080fd5b81019080803573ffffffffffffffffffffffffffffffffffffffff1690602001909291905050506132f7565b005b610e8560048036036020811015610e6f57600080fd5b81019080803590602001909291905050506133c5565b6040518082815260200191505060405180910390f35b610ec760048036036020811015610eb157600080fd5b81019080803590602001909291905050506133e5565b6040518082815260200191505060405180910390f35b610f2960048036036040811015610ef357600080fd5b8101908080359060200190929190803573ffffffffffffffffffffffffffffffffffffffff169060200190929190505050613405565b6040518082815260200191505060405180910390f35b60066020528060005260406000206000915090508060000154908060010154908060020154908060030154908060040154908060050154908060060154908060070154908060080154905089565b6040518060400160405280600b81526020017f47616d654d616e61676572000000000000000000000000000000000000000000815250610fcc81613567565b6000610fd8858461181a565b90506000600360009054906101000a900473ffffffffffffffffffffffffffffffffffffffff1673ffffffffffffffffffffffffffffffffffffffff16630b154c9687876040518363ffffffff1660e01b8152600401808381526020018273ffffffffffffffffffffffffffffffffffffffff1673ffffffffffffffffffffffffffffffffffffffff1681526020019250505060806040518083038186803b15801561108357600080fd5b505afa158015611097573d6000803e3d6000fd5b505050506040513d60808110156110ad57600080fd5b810190808051906020019092919080519060200190929190805190602001909291908051906020019092919050505050505090506000600360009054906101000a900473ffffffffffffffffffffffffffffffffffffffff1673ffffffffffffffffffffffffffffffffffffffff16630b154c9688856040518363ffffffff1660e01b8152600401808381526020018273ffffffffffffffffffffffffffffffffffffffff1673ffffffffffffffffffffffffffffffffffffffff1681526020019250505060806040518083038186803b15801561118a57600080fd5b505afa15801561119e573d6000803e3d6000fd5b505050506040513d60808110156111b457600080fd5b810190808051906020019092919080519060200190929190805190602001909291908051906020019092919050505050505090508573ffffffffffffffffffffffffffffffffffffffff168373ffffffffffffffffffffffffffffffffffffffff1614611538578082111561134c57856005600089815260200190815260200160002060008773ffffffffffffffffffffffffffffffffffffffff1673ffffffffffffffffffffffffffffffffffffffff16815260200190815260200160002060010160016101000a81548173ffffffffffffffffffffffffffffffffffffffff021916908373ffffffffffffffffffffffffffffffffffffffff160217905550826005600089815260200190815260200160002060008773ffffffffffffffffffffffffffffffffffffffff1673ffffffffffffffffffffffffffffffffffffffff16815260200190815260200160002060020160006101000a81548173ffffffffffffffffffffffffffffffffffffffff021916908373ffffffffffffffffffffffffffffffffffffffff160217905550611537565b60006113588887611f31565b90506000600360009054906101000a900473ffffffffffffffffffffffffffffffffffffffff1673ffffffffffffffffffffffffffffffffffffffff16630b154c968a846040518363ffffffff1660e01b8152600401808381526020018273ffffffffffffffffffffffffffffffffffffffff1673ffffffffffffffffffffffffffffffffffffffff1681526020019250505060806040518083038186803b15801561140357600080fd5b505afa158015611417573d6000803e3d6000fd5b505050506040513d608081101561142d57600080fd5b81019080805190602001909291908051906020019092919080519060200190929190805190602001909291905050505050509050808411801561149c57508773ffffffffffffffffffffffffffffffffffffffff168273ffffffffffffffffffffffffffffffffffffffff1614155b156115345787600560008b815260200190815260200160002060008973ffffffffffffffffffffffffffffffffffffffff1673ffffffffffffffffffffffffffffffffffffffff16815260200190815260200160002060020160006101000a81548173ffffffffffffffffffffffffffffffffffffffff021916908373ffffffffffffffffffffffffffffffffffffffff1602179055505b50505b5b50505050505050565b6000600260009054906101000a900473ffffffffffffffffffffffffffffffffffffffff1673ffffffffffffffffffffffffffffffffffffffff1663f0e52c426040518163ffffffff1660e01b815260040160206040518083038186803b1580156115ab57600080fd5b505afa1580156115bf573d6000803e3d6000fd5b505050506040513d60208110156115d557600080fd5b81019080805190602001909291905050509050600080600360009054906101000a900473ffffffffffffffffffffffffffffffffffffffff1673ffffffffffffffffffffffffffffffffffffffff1663bd4f6d1e856040518263ffffffff1660e01b815260040180828152602001915050604080518083038186803b15801561165d57600080fd5b505afa158015611671573d6000803e3d6000fd5b505050506040513d604081101561168757600080fd5b810190808051906020019092919080519060200190929190505050915091506116b1838383612a8d565b600660008681526020019081526020016000206000018190555050505050565b600060066000838152602001908152602001600020600401549050919050565b600060066000838152602001908152602001600020600701549050919050565b6040518060400160405280600b81526020017f47616d654d616e6167657200000000000000000000000000000000000000000081525061175081613567565b60016005600086815260200190815260200160002060008573ffffffffffffffffffffffffffffffffffffffff1673ffffffffffffffffffffffffffffffffffffffff16815260200190815260200160002060010160006101000a81548160ff021916908315150217905550816005600086815260200190815260200160002060008573ffffffffffffffffffffffffffffffffffffffff1673ffffffffffffffffffffffffffffffffffffffff1681526020019081526020016000206000018190555050505050565b60006005600084815260200190815260200160002060008373ffffffffffffffffffffffffffffffffffffffff1673ffffffffffffffffffffffffffffffffffffffff16815260200190815260200160002060010160019054906101000a900473ffffffffffffffffffffffffffffffffffffffff16905092915050565b600360009054906101000a900473ffffffffffffffffffffffffffffffffffffffff1681565b600060066000838152602001908152602001600020600201549050919050565b600080600260009054906101000a900473ffffffffffffffffffffffffffffffffffffffff1673ffffffffffffffffffffffffffffffffffffffff16631697e4b66040518163ffffffff1660e01b815260040160206040518083038186803b15801561194957600080fd5b505afa15801561195d573d6000803e3d6000fd5b505050506040513d602081101561197357600080fd5b810190808051906020019092919050505090504261199a828561380290919063ffffffff16565b11611ad557600080600360009054906101000a900473ffffffffffffffffffffffffffffffffffffffff1673ffffffffffffffffffffffffffffffffffffffff1663589ac6a4876040518263ffffffff1660e01b8152600401808281526020019150506101006040518083038186803b158015611a1657600080fd5b505afa158015611a2a573d6000803e3d6000fd5b505050506040513d601f19601f82011682018060405250610100811015611a5057600080fd5b81019080805190602001909291908051906020019092919080519060200190929190805190602001909291909190826040018051906020019092919080519060200190929190505050505050935093505050611ab6600a8361381990919063ffffffff16565b811015611ac95760019350505050611ad7565b60009350505050611ad7565b505b92915050565b600060066000838152602001908152602001600020600501549050919050565b6000806000600360009054906101000a900473ffffffffffffffffffffffffffffffffffffffff1673ffffffffffffffffffffffffffffffffffffffff166315a40f49866040518263ffffffff1660e01b81526004018082815260200191505060806040518083038186803b158015611b7557600080fd5b505afa158015611b89573d6000803e3d6000fd5b505050506040513d6080811015611b9f57600080fd5b81019080805190602001909291908051906020019092919080519060200190929190805190602001909291905050505050915091508373ffffffffffffffffffffffffffffffffffffffff168273ffffffffffffffffffffffffffffffffffffffff161415611c12578092505050611c18565b81925050505b92915050565b6040518060400160405280600c81526020017f47616d654372656174696f6e0000000000000000000000000000000000000000815250611c5d81613567565b611c6682613850565b5050565b600060066000838152602001908152602001600020600301549050919050565b6040518060400160405280600a81526020017f474d536574746572444200000000000000000000000000000000000000000000815250611cc981613567565b816005600086815260200190815260200160002060008573ffffffffffffffffffffffffffffffffffffffff1673ffffffffffffffffffffffffffffffffffffffff16815260200190815260200160002060020160006101000a81548173ffffffffffffffffffffffffffffffffffffffff021916908373ffffffffffffffffffffffffffffffffffffffff16021790555050505050565b6040518060400160405280600b81526020017f47616d654d616e61676572000000000000000000000000000000000000000000815250611da081613567565b6000600260009054906101000a900473ffffffffffffffffffffffffffffffffffffffff1673ffffffffffffffffffffffffffffffffffffffff16637a10546d6040518163ffffffff1660e01b815260040160206040518083038186803b158015611e0a57600080fd5b505afa158015611e1e573d6000803e3d6000fd5b505050506040513d6020811015611e3457600080fd5b81019080805190602001909291905050509050600080600360009054906101000a900473ffffffffffffffffffffffffffffffffffffffff1673ffffffffffffffffffffffffffffffffffffffff1663525a8e4e866040518263ffffffff1660e01b815260040180828152602001915050604080518083038186803b158015611ebc57600080fd5b505afa158015611ed0573d6000803e3d6000fd5b505050506040513d6040811015611ee657600080fd5b81019080805190602001909291908051906020019092919050505091509150611f10838383612a8d565b60066000878152602001908152602001600020600201819055505050505050565b60006005600084815260200190815260200160002060008373ffffffffffffffffffffffffffffffffffffffff1673ffffffffffffffffffffffffffffffffffffffff16815260200190815260200160002060020160009054906101000a900473ffffffffffffffffffffffffffffffffffffffff16905092915050565b611fb7614129565b60066000838152602001908152602001600020600901600580602002604051908101604052809291908260058015612004576020028201915b815481526020019060010190808311611ff0575b50505050509050919050565b60006005600084815260200190815260200160002060008373ffffffffffffffffffffffffffffffffffffffff1673ffffffffffffffffffffffffffffffffffffffff16815260200190815260200160002060000154905092915050565b6000600260009054906101000a900473ffffffffffffffffffffffffffffffffffffffff1673ffffffffffffffffffffffffffffffffffffffff16639c04b9cd6040518163ffffffff1660e01b815260040160206040518083038186803b1580156120d857600080fd5b505afa1580156120ec573d6000803e3d6000fd5b505050506040513d602081101561210257600080fd5b81019080805190602001909291905050509050600080600360009054906101000a900473ffffffffffffffffffffffffffffffffffffffff1673ffffffffffffffffffffffffffffffffffffffff1663bd4f6d1e856040518263ffffffff1660e01b815260040180828152602001915050604080518083038186803b15801561218a57600080fd5b505afa15801561219e573d6000803e3d6000fd5b505050506040513d60408110156121b457600080fd5b810190808051906020019092919080519060200190929190505050915091506121de838383612a8d565b600660008681526020019081526020016000206001018190555050505050565b6000809054906101000a900473ffffffffffffffffffffffffffffffffffffffff1673ffffffffffffffffffffffffffffffffffffffff163373ffffffffffffffffffffffffffffffffffffffff161461225457fe5b600160009054906101000a900473ffffffffffffffffffffffffffffffffffffffff1673ffffffffffffffffffffffffffffffffffffffff1663358177736040518060400160405280600d81526020017f47616d65566172416e64466565000000000000000000000000000000000000008152506040518263ffffffff1660e01b81526004018080602001828103825283818151815260200191508051906020019080838360005b838110156123175780820151818401526020810190506122fc565b50505050905090810190601f1680156123445780820380516001836020036101000a031916815260200191505b509250505060206040518083038186803b15801561236157600080fd5b505afa158015612375573d6000803e3d6000fd5b505050506040513d602081101561238b57600080fd5b8101908080519060200190929190505050600260006101000a81548173ffffffffffffffffffffffffffffffffffffffff021916908373ffffffffffffffffffffffffffffffffffffffff160217905550600160009054906101000a900473ffffffffffffffffffffffffffffffffffffffff1673ffffffffffffffffffffffffffffffffffffffff1663358177736040518060400160405280600a81526020017f474d4765747465724442000000000000000000000000000000000000000000008152506040518263ffffffff1660e01b81526004018080602001828103825283818151815260200191508051906020019080838360005b8381101561249f578082015181840152602081019050612484565b50505050905090810190601f1680156124cc5780820380516001836020036101000a031916815260200191505b509250505060206040518083038186803b1580156124e957600080fd5b505afa1580156124fd573d6000803e3d6000fd5b505050506040513d602081101561251357600080fd5b8101908080519060200190929190505050600360006101000a81548173ffffffffffffffffffffffffffffffffffffffff021916908373ffffffffffffffffffffffffffffffffffffffff160217905550600160009054906101000a900473ffffffffffffffffffffffffffffffffffffffff1673ffffffffffffffffffffffffffffffffffffffff1663358177736040518060400160405280600b81526020017f486974735265736f6c76650000000000000000000000000000000000000000008152506040518263ffffffff1660e01b81526004018080602001828103825283818151815260200191508051906020019080838360005b8381101561262757808201518184015260208101905061260c565b50505050905090810190601f1680156126545780820380516001836020036101000a031916815260200191505b509250505060206040518083038186803b15801561267157600080fd5b505afa158015612685573d6000803e3d6000fd5b505050506040513d602081101561269b57600080fd5b8101908080519060200190929190505050600460006101000a81548173ffffffffffffffffffffffffffffffffffffffff021916908373ffffffffffffffffffffffffffffffffffffffff160217905550565b600460009054906101000a900473ffffffffffffffffffffffffffffffffffffffff1681565b6000809054906101000a900473ffffffffffffffffffffffffffffffffffffffff1681565b6000809054906101000a900473ffffffffffffffffffffffffffffffffffffffff1673ffffffffffffffffffffffffffffffffffffffff163373ffffffffffffffffffffffffffffffffffffffff161461278f57fe5b80600160006101000a81548173ffffffffffffffffffffffffffffffffffffffff021916908373ffffffffffffffffffffffffffffffffffffffff16021790555050565b600073ffffffffffffffffffffffffffffffffffffffff163373ffffffffffffffffffffffffffffffffffffffff16141561280a57fe5b6128486040518060400160405280600b81526020017f73757065725f61646d696e000000000000000000000000000000000000000000815250613dc3565b6128ba576040517f08c379a00000000000000000000000000000000000000000000000000000000081526004018080602001828103825260108152602001807f4f6e6c792073757065722061646d696e0000000000000000000000000000000081525060200191505060405180910390fd5b6128c381613850565b50565b600260009054906101000a900473ffffffffffffffffffffffffffffffffffffffff1681565b600060066000838152602001908152602001600020600101549050919050565b6005602052816000526040600020602052806000526040600020600091509150508060000154908060010160009054906101000a900460ff16908060010160019054906101000a900473ffffffffffffffffffffffffffffffffffffffff16908060020160009054906101000a900473ffffffffffffffffffffffffffffffffffffffff16905084565b600060066000838152602001908152602001600020600601549050919050565b6040518060400160405280600a81526020017f474d5365747465724442000000000000000000000000000000000000000000008152506129f581613567565b816005600086815260200190815260200160002060008573ffffffffffffffffffffffffffffffffffffffff1673ffffffffffffffffffffffffffffffffffffffff16815260200190815260200160002060010160016101000a81548173ffffffffffffffffffffffffffffffffffffffff021916908373ffffffffffffffffffffffffffffffffffffffff16021790555050505050565b60008084118015612a9e5750600083115b8015612aaa5750600082115b612b1c576040517f08c379a00000000000000000000000000000000000000000000000000000000081526004018080602001828103825260098152602001807f44657374726f796564000000000000000000000000000000000000000000000081525060200191505060405180910390fd5b6000600260009054906101000a900473ffffffffffffffffffffffffffffffffffffffff1673ffffffffffffffffffffffffffffffffffffffff1663a0a8045e6040518163ffffffff1660e01b815260040160206040518083038186803b158015612b8657600080fd5b505afa158015612b9a573d6000803e3d6000fd5b505050506040513d6020811015612bb057600080fd5b810190808051906020019092919050505090506000600260009054906101000a900473ffffffffffffffffffffffffffffffffffffffff1673ffffffffffffffffffffffffffffffffffffffff1663271bf40f6040518163ffffffff1660e01b815260040160206040518083038186803b158015612c2d57600080fd5b505afa158015612c41573d6000803e3d6000fd5b505050506040513d6020811015612c5757600080fd5b81019080805190602001909291905050509050612cda620f4240612ccc612c87898861381990919063ffffffff16565b612cbe85612cb08c612ca28a8e61381990919063ffffffff16565b61381990919063ffffffff16565b61403f90919063ffffffff16565b61405890919063ffffffff16565b61403f90919063ffffffff16565b925050509392505050565b6000806000806040518060400160405280600b81526020017f47616d654d616e61676572000000000000000000000000000000000000000000815250612d2a81613567565b600460009054906101000a900473ffffffffffffffffffffffffffffffffffffffff1673ffffffffffffffffffffffffffffffffffffffff1663c0eef7188a8a896040518463ffffffff1660e01b8152600401808481526020018373ffffffffffffffffffffffffffffffffffffffff1673ffffffffffffffffffffffffffffffffffffffff168152602001828152602001935050505060206040518083038186803b158015612dd957600080fd5b505afa158015612ded573d6000803e3d6000fd5b505050506040513d6020811015612e0357600080fd5b81019080805190602001909291905050509250600460009054906101000a900473ffffffffffffffffffffffffffffffffffffffff1673ffffffffffffffffffffffffffffffffffffffff1663c0eef7188a89896040518463ffffffff1660e01b8152600401808481526020018373ffffffffffffffffffffffffffffffffffffffff1673ffffffffffffffffffffffffffffffffffffffff168152602001828152602001935050505060206040518083038186803b158015612ec557600080fd5b505afa158015612ed9573d6000803e3d6000fd5b505050506040513d6020811015612eef57600080fd5b81019080805190602001909291905050509150612ff683600360009054906101000a900473ffffffffffffffffffffffffffffffffffffffff1673ffffffffffffffffffffffffffffffffffffffff1663bacf524e8c8c6040518363ffffffff1660e01b8152600401808381526020018273ffffffffffffffffffffffffffffffffffffffff1673ffffffffffffffffffffffffffffffffffffffff1681526020019250505060206040518083038186803b158015612fad57600080fd5b505afa158015612fc1573d6000803e3d6000fd5b505050506040513d6020811015612fd757600080fd5b810190808051906020019092919050505061381990919063ffffffff16565b92506130ec82600360009054906101000a900473ffffffffffffffffffffffffffffffffffffffff1673ffffffffffffffffffffffffffffffffffffffff1663bacf524e8c8b6040518363ffffffff1660e01b8152600401808381526020018273ffffffffffffffffffffffffffffffffffffffff1673ffffffffffffffffffffffffffffffffffffffff1681526020019250505060206040518083038186803b1580156130a357600080fd5b505afa1580156130b7573d6000803e3d6000fd5b505050506040513d60208110156130cd57600080fd5b810190808051906020019092919050505061381990919063ffffffff16565b9150818311156131015787945086935061325a565b8282111561311457869450879350613259565b61311c61414b565b600360009054906101000a900473ffffffffffffffffffffffffffffffffffffffff1673ffffffffffffffffffffffffffffffffffffffff1663589ac6a48b6040518263ffffffff1660e01b8152600401808281526020019150506101006040518083038186803b15801561319057600080fd5b505afa1580156131a4573d6000803e3d6000fd5b505050506040513d601f19601f820116820180604052506101008110156131ca57600080fd5b8101908080519060200190929190805190602001909291908051906020019092919080519060200190929190919082604001805190602001909291908051906020019092919050505050509450505050508060016002811061322857fe5b60200201518160006002811061323a57fe5b6020020151111561325057889550879450613257565b8795508894505b505b5b50945094509450949050565b60006005600084815260200190815260200160002060008373ffffffffffffffffffffffffffffffffffffffff1673ffffffffffffffffffffffffffffffffffffffff16815260200190815260200160002060010160009054906101000a900460ff16905092915050565b600160009054906101000a900473ffffffffffffffffffffffffffffffffffffffff1681565b6000809054906101000a900473ffffffffffffffffffffffffffffffffffffffff1673ffffffffffffffffffffffffffffffffffffffff163373ffffffffffffffffffffffffffffffffffffffff161461334d57fe5b600073ffffffffffffffffffffffffffffffffffffffff168173ffffffffffffffffffffffffffffffffffffffff16146133c257806000806101000a81548173ffffffffffffffffffffffffffffffffffffffff021916908373ffffffffffffffffffffffffffffffffffffffff1602179055505b50565b600060066000838152602001908152602001600020600801549050919050565b600060066000838152602001908152602001600020600001549050919050565b6000806000600360009054906101000a900473ffffffffffffffffffffffffffffffffffffffff1673ffffffffffffffffffffffffffffffffffffffff166315a40f49866040518263ffffffff1660e01b81526004018082815260200191505060806040518083038186803b15801561347d57600080fd5b505afa158015613491573d6000803e3d6000fd5b505050506040513d60808110156134a757600080fd5b81019080805190602001909291908051906020019092919080519060200190929190805190602001909291905050505050915091508373ffffffffffffffffffffffffffffffffffffffff168273ffffffffffffffffffffffffffffffffffffffff16141561351b57600092505050613561565b8373ffffffffffffffffffffffffffffffffffffffff168173ffffffffffffffffffffffffffffffffffffffff16141561355a57600192505050613561565b6002925050505b92915050565b600073ffffffffffffffffffffffffffffffffffffffff16600160009054906101000a900473ffffffffffffffffffffffffffffffffffffffff1673ffffffffffffffffffffffffffffffffffffffff16141561362c576040517f08c379a00000000000000000000000000000000000000000000000000000000081526004018080602001828103825260088152602001807f4e6f2050726f787900000000000000000000000000000000000000000000000081525060200191505060405180910390fd5b6000600160009054906101000a900473ffffffffffffffffffffffffffffffffffffffff1673ffffffffffffffffffffffffffffffffffffffff166335817773836040518263ffffffff1660e01b81526004018080602001828103825283818151815260200191508051906020019080838360005b838110156136bc5780820151818401526020810190506136a1565b50505050905090810190601f1680156136e95780820380516001836020036101000a031916815260200191505b509250505060206040518083038186803b15801561370657600080fd5b505afa15801561371a573d6000803e3d6000fd5b505050506040513d602081101561373057600080fd5b81019080805190602001909291905050509050600073ffffffffffffffffffffffffffffffffffffffff168173ffffffffffffffffffffffffffffffffffffffff16141561377a57fe5b8073ffffffffffffffffffffffffffffffffffffffff163373ffffffffffffffffffffffffffffffffffffffff16146137fe576040517f08c379a000000000000000000000000000000000000000000000000000000000815260040180806020018281038252602d81526020018061424e602d913960400191505060405180910390fd5b5050565b60008282111561380e57fe5b818303905092915050565b60008083141561382c576000905061384a565b600082840290508284828161383d57fe5b041461384557fe5b809150505b92915050565b61385861416d565b600081600001818152505060008160200181815250506000816040018181525050600260009054906101000a900473ffffffffffffffffffffffffffffffffffffffff1673ffffffffffffffffffffffffffffffffffffffff16639840060f6040518163ffffffff1660e01b815260040160206040518083038186803b1580156138e157600080fd5b505afa1580156138f5573d6000803e3d6000fd5b505050506040513d602081101561390b57600080fd5b8101908080519060200190929190505050816060018181525050600260009054906101000a900473ffffffffffffffffffffffffffffffffffffffff1673ffffffffffffffffffffffffffffffffffffffff166333dbee176040518163ffffffff1660e01b815260040160206040518083038186803b15801561398d57600080fd5b505afa1580156139a1573d6000803e3d6000fd5b505050506040513d60208110156139b757600080fd5b8101908080519060200190929190505050816080018181525050600260009054906101000a900473ffffffffffffffffffffffffffffffffffffffff1673ffffffffffffffffffffffffffffffffffffffff166368afa5416040518163ffffffff1660e01b815260040160206040518083038186803b158015613a3957600080fd5b505afa158015613a4d573d6000803e3d6000fd5b505050506040513d6020811015613a6357600080fd5b81019080805190602001909291905050508160a0018181525050600260009054906101000a900473ffffffffffffffffffffffffffffffffffffffff1673ffffffffffffffffffffffffffffffffffffffff16633e4c883f6040518163ffffffff1660e01b815260040160a06040518083038186803b158015613ae557600080fd5b505afa158015613af9573d6000803e3d6000fd5b505050506040513d601f19601f8201168201806040525060a0811015613b1e57600080fd5b8101908091905050816101200181905250600260009054906101000a900473ffffffffffffffffffffffffffffffffffffffff1673ffffffffffffffffffffffffffffffffffffffff1663d693a9896040518163ffffffff1660e01b815260040160206040518083038186803b158015613b9757600080fd5b505afa158015613bab573d6000803e3d6000fd5b505050506040513d6020811015613bc157600080fd5b81019080805190602001909291905050508160c0018181525050600260009054906101000a900473ffffffffffffffffffffffffffffffffffffffff1673ffffffffffffffffffffffffffffffffffffffff1663ae1d48a86040518163ffffffff1660e01b815260040160206040518083038186803b158015613c4357600080fd5b505afa158015613c57573d6000803e3d6000fd5b505050506040513d6020811015613c6d57600080fd5b81019080805190602001909291905050508160e0018181525050600260009054906101000a900473ffffffffffffffffffffffffffffffffffffffff1673ffffffffffffffffffffffffffffffffffffffff16631697e4b66040518163ffffffff1660e01b815260040160206040518083038186803b158015613cef57600080fd5b505afa158015613d03573d6000803e3d6000fd5b505050506040513d6020811015613d1957600080fd5b8101908080519060200190929190505050816101000181815250508060066000848152602001908152602001600020600082015181600001556020820151816001015560408201518160020155606082015181600301556080820151816004015560a0820151816005015560c0820151816006015560e08201518160070155610100820151816008015561012082015181600901906005613dbb9291906141c6565b509050505050565b6000600160009054906101000a900473ffffffffffffffffffffffffffffffffffffffff1673ffffffffffffffffffffffffffffffffffffffff1663358177736040518060400160405280600681526020017f526f6c65444200000000000000000000000000000000000000000000000000008152506040518263ffffffff1660e01b81526004018080602001828103825283818151815260200191508051906020019080838360005b83811015613e88578082015181840152602081019050613e6d565b50505050905090810190601f168015613eb55780820380516001836020036101000a031916815260200191505b509250505060206040518083038186803b158015613ed257600080fd5b505afa158015613ee6573d6000803e3d6000fd5b505050506040513d6020811015613efc57600080fd5b810190808051906020019092919050505073ffffffffffffffffffffffffffffffffffffffff16636c9cd09783613f31614074565b6040518363ffffffff1660e01b815260040180806020018373ffffffffffffffffffffffffffffffffffffffff1673ffffffffffffffffffffffffffffffffffffffff168152602001828103825284818151815260200191508051906020019080838360005b83811015613fb2578082015181840152602081019050613f97565b50505050905090810190601f168015613fdf5780820380516001836020036101000a031916815260200191505b50935050505060206040518083038186803b158015613ffd57600080fd5b505afa158015614011573d6000803e3d6000fd5b505050506040513d602081101561402757600080fd5b81019080805190602001909291905050509050919050565b60008082848161404b57fe5b0490508091505092915050565b60008082840190508381101561406a57fe5b8091505092915050565b6000600160009054906101000a900473ffffffffffffffffffffffffffffffffffffffff1673ffffffffffffffffffffffffffffffffffffffff163373ffffffffffffffffffffffffffffffffffffffff16146140d357339050614126565b6000601436036000602052601481602c37602051915050600073ffffffffffffffffffffffffffffffffffffffff168173ffffffffffffffffffffffffffffffffffffffff16141561412157fe5b809150505b90565b6040518060a00160405280600590602082028038833980820191505090505090565b6040518060400160405280600290602082028038833980820191505090505090565b6040518061014001604052806000815260200160008152602001600081526020016000815260200160008152602001600081526020016000815260200160008152602001600081526020016141c0614206565b81525090565b82600581019282156141f5579160200282015b828111156141f45782518255916020019190600101906141d9565b5b5090506142029190614228565b5090565b6040518060a00160405280600590602082028038833980820191505090505090565b61424a91905b8082111561424657600081600090555060010161422e565b5090565b9056fe416363657373206973206f6e6c7920616c6c6f7765642066726f6d20737065636966696320636f6e7472616374a265627a7a72315820c891e0c9bed84c58221a33ca179cd41f82b47998a31da95889b8924dc50efada64736f6c63430005110032",
  "source": "pragma solidity ^0.5.5;\n\nimport '../proxy/Proxied.sol';\nimport \"../../GameVarAndFee.sol\";\nimport \"../databases/GMGetterDB.sol\";\nimport \"../../libs/SafeMath.sol\";\nimport \"../algorithm/HitsResolveAlgo.sol\";\nimport '../../authority/Guard.sol';\n\ncontract GameStore is Proxied, Guard {\n\n    using SafeMath for uint256;\n\n    GameVarAndFee public gameVarAndFee;\n    GMGetterDB public gmGetterDB;\n    HitsResolve public hitsResolve;\n\n    struct Game {\n        uint randomNum; //when pressing start\n        bool pressedStart;\n        address topBettor;\n        address secondTopBettor;\n    }\n\n    struct GlobalSettings {\n        uint bettingFee;\n        uint ticketFee;\n        uint redemptionFee;\n        uint kittieHellExpirationTime;\n        uint honeypotExpirationTime;\n        uint minimumContributors;\n        uint finalizeRewards;\n        uint timeExtension;\n        uint performanceTime;\n        uint[5] distributionRates;\n    }\n\n    //Players info in a game\n    mapping(uint => mapping(address => Game)) public gameByPlayer;\n    mapping(uint => GlobalSettings) public gameSettings;\n\n    function initialize() external onlyOwner {\n        gameVarAndFee = GameVarAndFee(proxy.getContract(CONTRACT_NAME_GAMEVARANDFEE));\n        gmGetterDB = GMGetterDB(proxy.getContract(CONTRACT_NAME_GM_GETTER_DB));\n        hitsResolve = HitsResolve(proxy.getContract(CONTRACT_NAME_HITSRESOLVE));\n    }\n\n    function lock(uint gameId) internal{\n        GlobalSettings memory globalSettings;\n\n        globalSettings.bettingFee = 0;\n        globalSettings.ticketFee = 0;\n        globalSettings.redemptionFee = 0;\n        globalSettings.kittieHellExpirationTime = gameVarAndFee.getKittieExpiry();\n        globalSettings.honeypotExpirationTime = gameVarAndFee.getHoneypotExpiration();\n        globalSettings.minimumContributors = gameVarAndFee.getMinimumContributors();\n        globalSettings.distributionRates = gameVarAndFee.getDistributionRates();\n        globalSettings.finalizeRewards = gameVarAndFee.getFinalizeRewards();\n        globalSettings.timeExtension = gameVarAndFee.getTimeExtension();\n        globalSettings.performanceTime = gameVarAndFee.getPerformanceTimeCheck();\n\n        gameSettings[gameId] = globalSettings;\n    }\n\n    function lockVars(uint gameId) external onlyContract(CONTRACT_NAME_GAMECREATION){\n        lock(gameId);\n    }\n\n    function lockVarsAdmin(uint gameId) external onlySuperAdmin{\n        lock(gameId);\n    }\n\n    function getDistributionRates(uint gameId) public view returns(uint[5] memory){\n        return gameSettings[gameId].distributionRates;\n    }\n\n    function calculateDynamicFee\n    (\n        uint256 percentageHoneyPot,\n        uint256 _eth_amount,\n        uint256 _kty_amount\n    )\n        public view returns(uint256)\n    {\n        require(percentageHoneyPot > 0 && _eth_amount > 0 && _kty_amount > 0, \"Destroyed\");\n\n        uint256 ethUsdPrice = gameVarAndFee.getEthUsdPrice();\n        uint256 usdKTYPrice = gameVarAndFee.getUsdKTYPrice();\n\n        // 1,000,000 is the base used for percentage setting in kittieFight\n        // for example, if percentageHoneyPot is 0.03% in real world, inside this function\n        // percentageHoneyPot = 0.03% * 1,000,1000 which is 300, thus for the need of div(1000000)\n        return ((_eth_amount.mul(ethUsdPrice).mul(percentageHoneyPot).div(usdKTYPrice)).add((_kty_amount.mul(percentageHoneyPot)))).div(1000000);\n    }\n\n    function updateKittieRedemptionFee(uint256 gameId)\n        public\n        onlyContract(CONTRACT_NAME_GAMEMANAGER)\n    {\n        uint256 percentageHoneyPot = gameVarAndFee.getPercentageForKittieRedemptionFee();\n        (uint256 totalEthFunds, uint256 totalKTYFunds) = gmGetterDB.getFinalHoneypot(gameId);\n\n        gameSettings[gameId].redemptionFee = calculateDynamicFee(percentageHoneyPot, totalEthFunds, totalKTYFunds);\n    }\n\n    function updateTicketFee(uint256 gameId)\n        public\n    {\n        uint256 percentageHoneyPot = gameVarAndFee.getPercentageForTicketFee();\n        (uint256 initialHoneypotEth, uint256 initialHoneypotKTY) = gmGetterDB.getInitialHoneypot(gameId);\n        gameSettings[gameId].ticketFee = calculateDynamicFee(percentageHoneyPot, initialHoneypotEth, initialHoneypotKTY);\n    }\n\n    function updateBettingFee(uint256 gameId)\n        public\n    {\n        uint256 percentageHoneyPot = gameVarAndFee.getPercentageForBettingFee();\n        (uint256 initialHoneypotEth, uint256 initialHoneypotKTY) = gmGetterDB.getInitialHoneypot(gameId);\n        gameSettings[gameId].bettingFee = calculateDynamicFee(percentageHoneyPot, initialHoneypotEth, initialHoneypotKTY);\n    }\n\n    function getKittieExpirationTime(uint gameId) public view returns(uint){\n        return  gameSettings[gameId].kittieHellExpirationTime;\n    }\n\n    function getKittieRedemptionFee(uint gameId) public view returns(uint){\n        return  gameSettings[gameId].redemptionFee;\n    }\n    \n    function getHoneypotExpiration(uint gameId) public view returns(uint){\n        return  gameSettings[gameId].honeypotExpirationTime;\n    }\n\n    function start(uint gameId, address player, uint randomNum) external onlyContract(CONTRACT_NAME_GAMEMANAGER){\n        gameByPlayer[gameId][player].pressedStart = true;\n        gameByPlayer[gameId][player].randomNum = randomNum;\n    }\n\n    function didHitStart(uint gameId, address player) public view returns(bool){\n        return gameByPlayer[gameId][player].pressedStart;\n    }\n\n    function getRandom(uint gameId, address player) public view returns(uint){\n        return gameByPlayer[gameId][player].randomNum;\n    }\n\n    function updateTopBettor(uint gameId, address player, address newTopBettor) external onlyContract(CONTRACT_NAME_GM_SETTER_DB){\n        gameByPlayer[gameId][player].topBettor = newTopBettor;\n    }\n\n    function getTopBettor(uint gameId, address player) public view returns(address){\n        return gameByPlayer[gameId][player].topBettor;\n    }\n\n    function updateSecondTopBettor(uint gameId, address player, address newSecondTopBettor) external onlyContract(CONTRACT_NAME_GM_SETTER_DB){\n        gameByPlayer[gameId][player].secondTopBettor = newSecondTopBettor;\n    }\n\n    function getSecondTopBettor(uint gameId, address player) public view returns(address){\n        return gameByPlayer[gameId][player].secondTopBettor;\n    }\n\n    function getTicketFee(uint gameId) public view returns(uint){\n        return gameSettings[gameId].ticketFee;\n    }\n\n    function getBettingFee(uint gameId) public view returns(uint){\n        return gameSettings[gameId].bettingFee;\n    }\n\n    function getMinimumContributors(uint gameId) public view returns(uint){\n        return gameSettings[gameId].minimumContributors;\n    }\n\n    function getFinalizeRewards(uint gameId) public view returns(uint){\n        return gameSettings[gameId].finalizeRewards;\n    }\n\n    function getPerformanceTimeCheck(uint gameId) public view returns(uint){\n        return gameSettings[gameId].performanceTime;\n    }\n\n    function getTimeExtension(uint gameId) public view returns(uint){\n        return gameSettings[gameId].timeExtension;\n    }\n\n    function updateTopbettors(uint256 _gameId, address _account, address _supportedPlayer)\n        external\n        onlyContract(CONTRACT_NAME_GAMEMANAGER)\n        // onlyExistentGame(_gameId)\n    {\n\n        address topBettor = getTopBettor(_gameId, _supportedPlayer);\n        (uint256 bettorTotal,,,) = gmGetterDB.getSupporterInfo(_gameId, _account);\n        (uint256 topBettorEth,,,) = gmGetterDB.getSupporterInfo(_gameId, topBettor);\n        \n        if(topBettor != _account){\n            if (bettorTotal > topBettorEth){\n                //If topBettor is already the account, dont update\n                gameByPlayer[_gameId][_supportedPlayer].topBettor = _account;\n                gameByPlayer[_gameId][_supportedPlayer].secondTopBettor = topBettor;\n            }\n            else {\n                address secondTopBettor = getSecondTopBettor(_gameId, _supportedPlayer);\n                (uint256 secondTopBettorEth,,,) = gmGetterDB.getSupporterInfo(_gameId, secondTopBettor);\n                if (bettorTotal > secondTopBettorEth && secondTopBettor != _account){\n                    gameByPlayer[_gameId][_supportedPlayer].secondTopBettor = _account;\n                }\n            }\n        }\n    }\n\n    function getOpponent(uint gameId, address player) public view returns(address){\n        (address playerBlack, address playerRed,,) = gmGetterDB.getGamePlayers(gameId);\n        if(playerBlack == player) return playerRed;\n        return playerBlack;\n    }\n\n    function getCorner(uint gameId, address player) public view returns(uint){\n        (address playerBlack, address playerRed,,) = gmGetterDB.getGamePlayers(gameId);\n        if(playerBlack == player) return 0;\n        if(playerRed == player) return 1;\n        return 2;\n    }\n\n    function calculateWinner\n    (\n        uint gameId, address playerBlack, address playerRed, uint random\n    )\n        external view\n        onlyContract(CONTRACT_NAME_GAMEMANAGER)\n        returns(address winner, address loser, uint pointsBlack, uint pointsRed)\n    {\n        pointsBlack = hitsResolve.calculateFinalPoints(gameId, playerBlack, random);\n        pointsRed = hitsResolve.calculateFinalPoints(gameId, playerRed, random);\n\n        //Added to make game more balanced\n        pointsBlack = (gmGetterDB.getTotalBet(gameId, playerBlack)).mul(pointsBlack);\n        pointsRed = (gmGetterDB.getTotalBet(gameId, playerRed)).mul(pointsRed);\n\n        if (pointsBlack > pointsRed)\n        {\n            winner = playerBlack;\n            loser = playerRed;\n        }\n        else if(pointsRed > pointsBlack)\n        {\n            winner = playerRed;\n            loser = playerBlack;\n        }\n        //If there is a tie in point, define by total eth bet\n        else\n        {\n            (,,,,uint[2] memory ethByCorner,,) = gmGetterDB.getHoneypotInfo(gameId);\n            if(ethByCorner[0] > ethByCorner[1] ){\n               winner = playerBlack;\n                loser = playerRed;\n            }\n            else{\n                winner = playerRed;\n                loser = playerBlack;\n            }\n        }\n    }\n\n    function checkPerformanceHelper(uint gameId, uint gameEndTime) external returns(bool){\n        //each time 1 minute before game ends\n        uint performanceTimeCheck = gameVarAndFee.getPerformanceTimeCheck();\n        \n        if(gameEndTime.sub(performanceTimeCheck) <= now) {\n            //get initial jackpot, need endowment to send this when creating honeypot\n            (,,uint initialEth, uint currentJackpotEth,,,) = gmGetterDB.getHoneypotInfo(gameId);\n\n            if(currentJackpotEth < initialEth.mul(10)) return true;\n            return false;\n        }\n    }\n}",
  "sourcePath": "/Users/ziweizhang/Desktop/withdrawPool/alpha/contracts/modules/gamemanager/GameStore.sol",
  "compiler": {
    "name": "solc",
    "version": "0.5.17+commit.d19bba13.Emscripten.clang"
  },
  "schemaVersion": "3.0.23",
  "updatedAt": "2020-04-24T12:35:44.269Z",
  "networkType": "ethereum",
  "devdoc": {
    "methods": {}
  },
  "userdoc": {
    "methods": {
      "setProxy(address)": {
        "notice": "Set/update address of Proxy contract"
      }
    }
  }
}