{
  "contractName": "GameCreation",
  "abi": [
    {
      "anonymous": false,
      "inputs": [
        {
          "indexed": true,
          "internalType": "uint256",
          "name": "gameId",
          "type": "uint256"
        },
        {
          "indexed": false,
          "internalType": "address",
          "name": "playerBlack",
          "type": "address"
        },
        {
          "indexed": false,
          "internalType": "uint256",
          "name": "kittieBlack",
          "type": "uint256"
        },
        {
          "indexed": false,
          "internalType": "address",
          "name": "playerRed",
          "type": "address"
        },
        {
          "indexed": false,
          "internalType": "uint256",
          "name": "kittieRed",
          "type": "uint256"
        },
        {
          "indexed": false,
          "internalType": "uint256",
          "name": "gameStartTime",
          "type": "uint256"
        }
      ],
      "name": "NewGame",
      "type": "event"
    },
    {
      "anonymous": false,
      "inputs": [
        {
          "indexed": true,
          "internalType": "uint256",
          "name": "kittieId",
          "type": "uint256"
        },
        {
          "indexed": true,
          "internalType": "address",
          "name": "owner",
          "type": "address"
        },
        {
          "indexed": false,
          "internalType": "uint256",
          "name": "timeListed",
          "type": "uint256"
        }
      ],
      "name": "NewListing",
      "type": "event"
    },
    {
      "anonymous": false,
      "inputs": [
        {
          "indexed": true,
          "internalType": "uint256",
          "name": "jobId",
          "type": "uint256"
        },
        {
          "indexed": false,
          "internalType": "uint256",
          "name": "jobTime",
          "type": "uint256"
        },
        {
          "indexed": true,
          "internalType": "uint256",
          "name": "gameId",
          "type": "uint256"
        },
        {
          "indexed": false,
          "internalType": "string",
          "name": "job",
          "type": "string"
        }
      ],
      "name": "Scheduled",
      "type": "event"
    },
    {
      "constant": true,
      "inputs": [],
      "name": "cronJob",
      "outputs": [
        {
          "internalType": "contract CronJob",
          "name": "",
          "type": "address"
        }
      ],
      "payable": false,
      "stateMutability": "view",
      "type": "function"
    },
    {
      "constant": true,
      "inputs": [
        {
          "internalType": "uint256",
          "name": "",
          "type": "uint256"
        }
      ],
      "name": "cronJobsForGames",
      "outputs": [
        {
          "internalType": "uint256",
          "name": "",
          "type": "uint256"
        }
      ],
      "payable": false,
      "stateMutability": "view",
      "type": "function"
    },
    {
      "constant": true,
      "inputs": [],
      "name": "cryptoKitties",
      "outputs": [
        {
          "internalType": "contract IKittyCore",
          "name": "",
          "type": "address"
        }
      ],
      "payable": false,
      "stateMutability": "view",
      "type": "function"
    },
    {
      "constant": true,
      "inputs": [],
      "name": "endowmentFund",
      "outputs": [
        {
          "internalType": "contract EndowmentFund",
          "name": "",
          "type": "address"
        }
      ],
      "payable": false,
      "stateMutability": "view",
      "type": "function"
    },
    {
      "constant": true,
      "inputs": [],
      "name": "gameStore",
      "outputs": [
        {
          "internalType": "contract GameStore",
          "name": "",
          "type": "address"
        }
      ],
      "payable": false,
      "stateMutability": "view",
      "type": "function"
    },
    {
      "constant": true,
      "inputs": [],
      "name": "gameVarAndFee",
      "outputs": [
        {
          "internalType": "contract GameVarAndFee",
          "name": "",
          "type": "address"
        }
      ],
      "payable": false,
      "stateMutability": "view",
      "type": "function"
    },
    {
      "constant": true,
      "inputs": [],
      "name": "gmGetterDB",
      "outputs": [
        {
          "internalType": "contract GMGetterDB",
          "name": "",
          "type": "address"
        }
      ],
      "payable": false,
      "stateMutability": "view",
      "type": "function"
    },
    {
      "constant": true,
      "inputs": [],
      "name": "gmSetterDB",
      "outputs": [
        {
          "internalType": "contract GMSetterDB",
          "name": "",
          "type": "address"
        }
      ],
      "payable": false,
      "stateMutability": "view",
      "type": "function"
    },
    {
      "constant": true,
      "inputs": [],
      "name": "kittieHELL",
      "outputs": [
        {
          "internalType": "contract KittieHell",
          "name": "",
          "type": "address"
        }
      ],
      "payable": false,
      "stateMutability": "view",
      "type": "function"
    },
    {
      "constant": true,
      "inputs": [],
      "name": "owner",
      "outputs": [
        {
          "internalType": "address payable",
          "name": "",
          "type": "address"
        }
      ],
      "payable": false,
      "stateMutability": "view",
      "type": "function"
    },
    {
      "constant": true,
      "inputs": [],
      "name": "proxy",
      "outputs": [
        {
          "internalType": "contract ProxyBase",
          "name": "",
          "type": "address"
        }
      ],
      "payable": false,
      "stateMutability": "view",
      "type": "function"
    },
    {
      "constant": true,
      "inputs": [],
      "name": "scheduler",
      "outputs": [
        {
          "internalType": "contract Scheduler",
          "name": "",
          "type": "address"
        }
      ],
      "payable": false,
      "stateMutability": "view",
      "type": "function"
    },
    {
      "constant": false,
      "inputs": [
        {
          "internalType": "contract ProxyBase",
          "name": "_proxy",
          "type": "address"
        }
      ],
      "name": "setProxy",
      "outputs": [],
      "payable": false,
      "stateMutability": "nonpayable",
      "type": "function"
    },
    {
      "constant": false,
      "inputs": [
        {
          "internalType": "address payable",
          "name": "newOwner",
          "type": "address"
        }
      ],
      "name": "transferOwnership",
      "outputs": [],
      "payable": false,
      "stateMutability": "nonpayable",
      "type": "function"
    },
    {
      "constant": false,
      "inputs": [],
      "name": "initialize",
      "outputs": [],
      "payable": false,
      "stateMutability": "nonpayable",
      "type": "function"
    },
    {
      "constant": false,
      "inputs": [
        {
          "internalType": "uint256",
          "name": "kittieId",
          "type": "uint256"
        }
      ],
      "name": "listKittie",
      "outputs": [],
      "payable": false,
      "stateMutability": "nonpayable",
      "type": "function"
    },
    {
      "constant": false,
      "inputs": [
        {
          "internalType": "address",
          "name": "playerRed",
          "type": "address"
        },
        {
          "internalType": "address",
          "name": "playerBlack",
          "type": "address"
        },
        {
          "internalType": "uint256",
          "name": "kittyRed",
          "type": "uint256"
        },
        {
          "internalType": "uint256",
          "name": "kittyBlack",
          "type": "uint256"
        },
        {
          "internalType": "uint256",
          "name": "gameStartTime",
          "type": "uint256"
        }
      ],
      "name": "manualMatchKitties",
      "outputs": [],
      "payable": false,
      "stateMutability": "nonpayable",
      "type": "function"
    },
    {
      "constant": false,
      "inputs": [
        {
          "internalType": "address",
          "name": "playerRed",
          "type": "address"
        },
        {
          "internalType": "address",
          "name": "playerBlack",
          "type": "address"
        },
        {
          "internalType": "uint256",
          "name": "kittyRed",
          "type": "uint256"
        },
        {
          "internalType": "uint256",
          "name": "kittyBlack",
          "type": "uint256"
        },
        {
          "internalType": "uint256",
          "name": "gameStartTime",
          "type": "uint256"
        }
      ],
      "name": "createFight",
      "outputs": [],
      "payable": false,
      "stateMutability": "nonpayable",
      "type": "function"
    },
    {
      "constant": false,
      "inputs": [
        {
          "internalType": "uint256",
          "name": "gameId",
          "type": "uint256"
        }
      ],
      "name": "removeKitties",
      "outputs": [],
      "payable": false,
      "stateMutability": "nonpayable",
      "type": "function"
    },
    {
      "constant": false,
      "inputs": [
        {
          "internalType": "uint256",
          "name": "gameId",
          "type": "uint256"
        },
        {
          "internalType": "uint256",
          "name": "state",
          "type": "uint256"
        }
      ],
      "name": "scheduleJobs",
      "outputs": [],
      "payable": false,
      "stateMutability": "nonpayable",
      "type": "function"
    },
    {
      "constant": false,
      "inputs": [
        {
          "internalType": "uint256",
          "name": "gameId",
          "type": "uint256"
        }
      ],
      "name": "updateGameStateCron",
      "outputs": [],
      "payable": false,
      "stateMutability": "nonpayable",
      "type": "function"
    },
    {
      "constant": false,
      "inputs": [
        {
          "internalType": "uint256",
          "name": "gameId",
          "type": "uint256"
        }
      ],
      "name": "callForfeiterCron",
      "outputs": [],
      "payable": false,
      "stateMutability": "nonpayable",
      "type": "function"
    },
    {
      "constant": false,
      "inputs": [
        {
          "internalType": "uint256",
          "name": "gameId",
          "type": "uint256"
        }
      ],
      "name": "callGameEndCron",
      "outputs": [],
      "payable": false,
      "stateMutability": "nonpayable",
      "type": "function"
    },
    {
      "constant": false,
      "inputs": [
        {
          "internalType": "uint256",
          "name": "gameId",
          "type": "uint256"
        }
      ],
      "name": "rescheduleCronJob",
      "outputs": [],
      "payable": false,
      "stateMutability": "nonpayable",
      "type": "function"
    },
    {
      "constant": false,
      "inputs": [
        {
          "internalType": "uint256",
          "name": "gameId",
          "type": "uint256"
        }
      ],
      "name": "deleteCronjob",
      "outputs": [],
      "payable": false,
      "stateMutability": "nonpayable",
      "type": "function"
    }
  ],
  "bytecode": "0x6080604052336000806101000a81548173ffffffffffffffffffffffffffffffffffffffff021916908373ffffffffffffffffffffffffffffffffffffffff1602179055506152f5806100536000396000f3fe608060405234801561001057600080fd5b50600436106101735760003560e01c8063b1be6469116100de578063ec55688911610097578063f2fde38b11610071578063f2fde38b146106d6578063f4dc834a1461071a578063f60ac4b714610748578063fbf33cfb1461077657610173565b8063ec556889146105f8578063ef410f4514610642578063f26dee8e1461068c57610173565b8063b1be646914610474578063c2b66904146104be578063cfafbde7146104ec578063d1ad17bf14610536578063da7f76d414610580578063daff832f146105ca57610173565b80638129fc1c116101305780638129fc1c1461032c5780638da5cb5b1461033657806397107d6d146103805780639d60d53e146103c4578063a1399540146103f2578063a3b3bd7b1461042a57610173565b806301441541146101785780631fc75180146101fa57806360cf76891461024457806369af70b31461028657806369ea0ea7146102d05780636fee856a146102fe575b600080fd5b6101f8600480360360a081101561018e57600080fd5b81019080803573ffffffffffffffffffffffffffffffffffffffff169060200190929190803573ffffffffffffffffffffffffffffffffffffffff1690602001909291908035906020019092919080359060200190929190803590602001909291905050506107f8565b005b61020261084c565b604051808273ffffffffffffffffffffffffffffffffffffffff1673ffffffffffffffffffffffffffffffffffffffff16815260200191505060405180910390f35b6102706004803603602081101561025a57600080fd5b8101908080359060200190929190505050610872565b6040518082815260200191505060405180910390f35b61028e61088a565b604051808273ffffffffffffffffffffffffffffffffffffffff1673ffffffffffffffffffffffffffffffffffffffff16815260200191505060405180910390f35b6102fc600480360360208110156102e657600080fd5b81019080803590602001909291905050506108b0565b005b61032a6004803603602081101561031457600080fd5b8101908080359060200190929190505050610b62565b005b610334610d1a565b005b61033e611b3a565b604051808273ffffffffffffffffffffffffffffffffffffffff1673ffffffffffffffffffffffffffffffffffffffff16815260200191505060405180910390f35b6103c26004803603602081101561039657600080fd5b81019080803573ffffffffffffffffffffffffffffffffffffffff169060200190929190505050611b5f565b005b6103f0600480360360208110156103da57600080fd5b8101908080359060200190929190505050611bf9565b005b6104286004803603604081101561040857600080fd5b810190808035906020019092919080359060200190929190505050611d84565b005b6104326128d2565b604051808273ffffffffffffffffffffffffffffffffffffffff1673ffffffffffffffffffffffffffffffffffffffff16815260200191505060405180910390f35b61047c6128f8565b604051808273ffffffffffffffffffffffffffffffffffffffff1673ffffffffffffffffffffffffffffffffffffffff16815260200191505060405180910390f35b6104ea600480360360208110156104d457600080fd5b810190808035906020019092919050505061291e565b005b6104f4612c2c565b604051808273ffffffffffffffffffffffffffffffffffffffff1673ffffffffffffffffffffffffffffffffffffffff16815260200191505060405180910390f35b61053e612c52565b604051808273ffffffffffffffffffffffffffffffffffffffff1673ffffffffffffffffffffffffffffffffffffffff16815260200191505060405180910390f35b610588612c78565b604051808273ffffffffffffffffffffffffffffffffffffffff1673ffffffffffffffffffffffffffffffffffffffff16815260200191505060405180910390f35b6105f6600480360360208110156105e057600080fd5b8101908080359060200190929190505050612c9e565b005b610600612ecc565b604051808273ffffffffffffffffffffffffffffffffffffffff1673ffffffffffffffffffffffffffffffffffffffff16815260200191505060405180910390f35b61064a612ef2565b604051808273ffffffffffffffffffffffffffffffffffffffff1673ffffffffffffffffffffffffffffffffffffffff16815260200191505060405180910390f35b610694612f18565b604051808273ffffffffffffffffffffffffffffffffffffffff1673ffffffffffffffffffffffffffffffffffffffff16815260200191505060405180910390f35b610718600480360360208110156106ec57600080fd5b81019080803573ffffffffffffffffffffffffffffffffffffffff169060200190929190505050612f3e565b005b6107466004803603602081101561073057600080fd5b810190808035906020019092919050505061300c565b005b6107746004803603602081101561075e57600080fd5b8101908080359060200190929190505050613403565b005b6107f6600480360360a081101561078c57600080fd5b81019080803573ffffffffffffffffffffffffffffffffffffffff169060200190929190803573ffffffffffffffffffffffffffffffffffffffff1690602001909291908035906020019092919080359060200190929190803590602001909291905050506139f8565b005b6040518060400160405280600981526020017f5363686564756c65720000000000000000000000000000000000000000000000815250610837816141e5565b6108448686868686614480565b505050505050565b600360009054906101000a900473ffffffffffffffffffffffffffffffffffffffff1681565b600b6020528060005260406000206000915090505481565b600560009054906101000a900473ffffffffffffffffffffffffffffffffffffffff1681565b6040518060400160405280600781526020017f43726f6e4a6f62000000000000000000000000000000000000000000000000008152506108ef816141e5565b6000600360009054906101000a900473ffffffffffffffffffffffffffffffffffffffff1673ffffffffffffffffffffffffffffffffffffffff1663ffde0c74846040518263ffffffff1660e01b81526004018082815260200191505060206040518083038186803b15801561096457600080fd5b505afa158015610978573d6000803e3d6000fd5b505050506040513d602081101561098e57600080fd5b810190808051906020019092919050505090506002811415610b5d57600160009054906101000a900473ffffffffffffffffffffffffffffffffffffffff1673ffffffffffffffffffffffffffffffffffffffff1663358177736040518060400160405280600b81526020017f47616d654d616e616765720000000000000000000000000000000000000000008152506040518263ffffffff1660e01b81526004018080602001828103825283818151815260200191508051906020019080838360005b83811015610a6d578082015181840152602081019050610a52565b50505050905090810190601f168015610a9a5780820380516001836020036101000a031916815260200191505b509250505060206040518083038186803b158015610ab757600080fd5b505afa158015610acb573d6000803e3d6000fd5b505050506040513d6020811015610ae157600080fd5b810190808051906020019092919050505073ffffffffffffffffffffffffffffffffffffffff1663ddda0719846040518263ffffffff1660e01b815260040180828152602001915050600060405180830381600087803b158015610b4457600080fd5b505af1158015610b58573d6000803e3d6000fd5b505050505b505050565b6040518060400160405280600b81526020017f47616d654d616e61676572000000000000000000000000000000000000000000815250610ba1816141e5565b600080600360009054906101000a900473ffffffffffffffffffffffffffffffffffffffff1673ffffffffffffffffffffffffffffffffffffffff166315a40f49856040518263ffffffff1660e01b81526004018082815260200191505060806040518083038186803b158015610c1757600080fd5b505afa158015610c2b573d6000803e3d6000fd5b505050506040513d6080811015610c4157600080fd5b8101908080519060200190929190805190602001909291908051906020019092919080519060200190929190505050935093505050600260009054906101000a900473ffffffffffffffffffffffffffffffffffffffff1673ffffffffffffffffffffffffffffffffffffffff1663fd3d1c24838360006040518463ffffffff1660e01b8152600401808481526020018381526020018281526020019350505050600060405180830381600087803b158015610cfc57600080fd5b505af1158015610d10573d6000803e3d6000fd5b5050505050505050565b6000809054906101000a900473ffffffffffffffffffffffffffffffffffffffff1673ffffffffffffffffffffffffffffffffffffffff163373ffffffffffffffffffffffffffffffffffffffff1614610d7057fe5b600160009054906101000a900473ffffffffffffffffffffffffffffffffffffffff1673ffffffffffffffffffffffffffffffffffffffff1663358177736040518060400160405280600a81526020017f474d5365747465724442000000000000000000000000000000000000000000008152506040518263ffffffff1660e01b81526004018080602001828103825283818151815260200191508051906020019080838360005b83811015610e33578082015181840152602081019050610e18565b50505050905090810190601f168015610e605780820380516001836020036101000a031916815260200191505b509250505060206040518083038186803b158015610e7d57600080fd5b505afa158015610e91573d6000803e3d6000fd5b505050506040513d6020811015610ea757600080fd5b8101908080519060200190929190505050600260006101000a81548173ffffffffffffffffffffffffffffffffffffffff021916908373ffffffffffffffffffffffffffffffffffffffff160217905550600160009054906101000a900473ffffffffffffffffffffffffffffffffffffffff1673ffffffffffffffffffffffffffffffffffffffff1663358177736040518060400160405280600a81526020017f474d4765747465724442000000000000000000000000000000000000000000008152506040518263ffffffff1660e01b81526004018080602001828103825283818151815260200191508051906020019080838360005b83811015610fbb578082015181840152602081019050610fa0565b50505050905090810190601f168015610fe85780820380516001836020036101000a031916815260200191505b509250505060206040518083038186803b15801561100557600080fd5b505afa158015611019573d6000803e3d6000fd5b505050506040513d602081101561102f57600080fd5b8101908080519060200190929190505050600360006101000a81548173ffffffffffffffffffffffffffffffffffffffff021916908373ffffffffffffffffffffffffffffffffffffffff160217905550600160009054906101000a900473ffffffffffffffffffffffffffffffffffffffff1673ffffffffffffffffffffffffffffffffffffffff1663358177736040518060400160405280600d81526020017f456e646f776d656e7446756e64000000000000000000000000000000000000008152506040518263ffffffff1660e01b81526004018080602001828103825283818151815260200191508051906020019080838360005b83811015611143578082015181840152602081019050611128565b50505050905090810190601f1680156111705780820380516001836020036101000a031916815260200191505b509250505060206040518083038186803b15801561118d57600080fd5b505afa1580156111a1573d6000803e3d6000fd5b505050506040513d60208110156111b757600080fd5b8101908080519060200190929190505050600560006101000a81548173ffffffffffffffffffffffffffffffffffffffff021916908373ffffffffffffffffffffffffffffffffffffffff160217905550600160009054906101000a900473ffffffffffffffffffffffffffffffffffffffff1673ffffffffffffffffffffffffffffffffffffffff1663358177736040518060400160405280600d81526020017f47616d65566172416e64466565000000000000000000000000000000000000008152506040518263ffffffff1660e01b81526004018080602001828103825283818151815260200191508051906020019080838360005b838110156112cb5780820151818401526020810190506112b0565b50505050905090810190601f1680156112f85780820380516001836020036101000a031916815260200191505b509250505060206040518083038186803b15801561131557600080fd5b505afa158015611329573d6000803e3d6000fd5b505050506040513d602081101561133f57600080fd5b8101908080519060200190929190505050600460006101000a81548173ffffffffffffffffffffffffffffffffffffffff021916908373ffffffffffffffffffffffffffffffffffffffff160217905550600160009054906101000a900473ffffffffffffffffffffffffffffffffffffffff1673ffffffffffffffffffffffffffffffffffffffff1663358177736040518060400160405280600981526020017f5363686564756c657200000000000000000000000000000000000000000000008152506040518263ffffffff1660e01b81526004018080602001828103825283818151815260200191508051906020019080838360005b83811015611453578082015181840152602081019050611438565b50505050905090810190601f1680156114805780820380516001836020036101000a031916815260200191505b509250505060206040518083038186803b15801561149d57600080fd5b505afa1580156114b1573d6000803e3d6000fd5b505050506040513d60208110156114c757600080fd5b8101908080519060200190929190505050600660006101000a81548173ffffffffffffffffffffffffffffffffffffffff021916908373ffffffffffffffffffffffffffffffffffffffff160217905550600160009054906101000a900473ffffffffffffffffffffffffffffffffffffffff1673ffffffffffffffffffffffffffffffffffffffff1663358177736040518060400160405280600d81526020017f43727970746f4b697474696573000000000000000000000000000000000000008152506040518263ffffffff1660e01b81526004018080602001828103825283818151815260200191508051906020019080838360005b838110156115db5780820151818401526020810190506115c0565b50505050905090810190601f1680156116085780820380516001836020036101000a031916815260200191505b509250505060206040518083038186803b15801561162557600080fd5b505afa158015611639573d6000803e3d6000fd5b505050506040513d602081101561164f57600080fd5b8101908080519060200190929190505050600760006101000a81548173ffffffffffffffffffffffffffffffffffffffff021916908373ffffffffffffffffffffffffffffffffffffffff160217905550600160009054906101000a900473ffffffffffffffffffffffffffffffffffffffff1673ffffffffffffffffffffffffffffffffffffffff1663358177736040518060400160405280600981526020017f47616d6553746f726500000000000000000000000000000000000000000000008152506040518263ffffffff1660e01b81526004018080602001828103825283818151815260200191508051906020019080838360005b83811015611763578082015181840152602081019050611748565b50505050905090810190601f1680156117905780820380516001836020036101000a031916815260200191505b509250505060206040518083038186803b1580156117ad57600080fd5b505afa1580156117c1573d6000803e3d6000fd5b505050506040513d60208110156117d757600080fd5b8101908080519060200190929190505050600860006101000a81548173ffffffffffffffffffffffffffffffffffffffff021916908373ffffffffffffffffffffffffffffffffffffffff160217905550600160009054906101000a900473ffffffffffffffffffffffffffffffffffffffff1673ffffffffffffffffffffffffffffffffffffffff1663358177736040518060400160405280600781526020017f43726f6e4a6f62000000000000000000000000000000000000000000000000008152506040518263ffffffff1660e01b81526004018080602001828103825283818151815260200191508051906020019080838360005b838110156118eb5780820151818401526020810190506118d0565b50505050905090810190601f1680156119185780820380516001836020036101000a031916815260200191505b509250505060206040518083038186803b15801561193557600080fd5b505afa158015611949573d6000803e3d6000fd5b505050506040513d602081101561195f57600080fd5b8101908080519060200190929190505050600960006101000a81548173ffffffffffffffffffffffffffffffffffffffff021916908373ffffffffffffffffffffffffffffffffffffffff160217905550600160009054906101000a900473ffffffffffffffffffffffffffffffffffffffff1673ffffffffffffffffffffffffffffffffffffffff1663358177736040518060400160405280600a81526020017f4b697474696548656c6c000000000000000000000000000000000000000000008152506040518263ffffffff1660e01b81526004018080602001828103825283818151815260200191508051906020019080838360005b83811015611a73578082015181840152602081019050611a58565b50505050905090810190601f168015611aa05780820380516001836020036101000a031916815260200191505b509250505060206040518083038186803b158015611abd57600080fd5b505afa158015611ad1573d6000803e3d6000fd5b505050506040513d6020811015611ae757600080fd5b8101908080519060200190929190505050600a60006101000a81548173ffffffffffffffffffffffffffffffffffffffff021916908373ffffffffffffffffffffffffffffffffffffffff160217905550565b6000809054906101000a900473ffffffffffffffffffffffffffffffffffffffff1681565b6000809054906101000a900473ffffffffffffffffffffffffffffffffffffffff1673ffffffffffffffffffffffffffffffffffffffff163373ffffffffffffffffffffffffffffffffffffffff1614611bb557fe5b80600160006101000a81548173ffffffffffffffffffffffffffffffffffffffff021916908373ffffffffffffffffffffffffffffffffffffffff16021790555050565b6040518060400160405280600b81526020017f47616d654d616e61676572000000000000000000000000000000000000000000815250611c38816141e5565b6000600b6000848152602001908152602001600020549050600960009054906101000a900473ffffffffffffffffffffffffffffffffffffffff1673ffffffffffffffffffffffffffffffffffffffff16639d8f101f6040518060400160405280600c81526020017f47616d654372656174696f6e0000000000000000000000000000000000000000815250836040518363ffffffff1660e01b81526004018080602001838152602001828103825284818151815260200191508051906020019080838360005b83811015611d1a578082015181840152602081019050611cff565b50505050905090810190601f168015611d475780820380516001836020036101000a031916815260200191505b509350505050600060405180830381600087803b158015611d6757600080fd5b505af1158015611d7b573d6000803e3d6000fd5b50505050505050565b6040518060400160405280600a81526020017f474d536574746572444200000000000000000000000000000000000000000000815250611dc3816141e5565b6000821415612171576000600360009054906101000a900473ffffffffffffffffffffffffffffffffffffffff1673ffffffffffffffffffffffffffffffffffffffff16638851470d856040518263ffffffff1660e01b81526004018082815260200191505060606040518083038186803b158015611e4157600080fd5b505afa158015611e55573d6000803e3d6000fd5b505050506040513d6060811015611e6b57600080fd5b81019080805190602001909291908051906020019092919080519060200190929190505050509150506000600960009054906101000a900473ffffffffffffffffffffffffffffffffffffffff1673ffffffffffffffffffffffffffffffffffffffff1663c19304966040518060400160405280600c81526020017f47616d654372656174696f6e00000000000000000000000000000000000000008152508488604051602401808281526020019150506040516020818303038152906040527ff4dc834a000000000000000000000000000000000000000000000000000000007bffffffffffffffffffffffffffffffffffffffffffffffffffffffff19166020820180517bffffffffffffffffffffffffffffffffffffffffffffffffffffffff83818316178352505050506040518463ffffffff1660e01b8152600401808060200184815260200180602001838103835286818151815260200191508051906020019080838360005b83811015611ff2578082015181840152602081019050611fd7565b50505050905090810190601f16801561201f5780820380516001836020036101000a031916815260200191505b50838103825284818151815260200191508051906020019080838360005b8381101561205857808201518184015260208101905061203d565b50505050905090810190601f1680156120855780820380516001836020036101000a031916815260200191505b5095505050505050602060405180830381600087803b1580156120a757600080fd5b505af11580156120bb573d6000803e3d6000fd5b505050506040513d60208110156120d157600080fd5b8101908080519060200190929190505050905084817fa3cd382277b18d8b5a2ffe52afc5a1405eee5818fa12b7f0678f40e4dc4f2054846040518082815260200180602001828103825260118152602001807f4368616e676520737461746520746f20310000000000000000000000000000008152506020019250505060405180910390a380600b60008781526020019081526020016000208190555050505b600182141561251f576000600360009054906101000a900473ffffffffffffffffffffffffffffffffffffffff1673ffffffffffffffffffffffffffffffffffffffff16638851470d856040518263ffffffff1660e01b81526004018082815260200191505060606040518083038186803b1580156121ef57600080fd5b505afa158015612203573d6000803e3d6000fd5b505050506040513d606081101561221957600080fd5b81019080805190602001909291908051906020019092919080519060200190929190505050505090506000600960009054906101000a900473ffffffffffffffffffffffffffffffffffffffff1673ffffffffffffffffffffffffffffffffffffffff1663c19304966040518060400160405280600c81526020017f47616d654372656174696f6e00000000000000000000000000000000000000008152508488604051602401808281526020019150506040516020818303038152906040527fdaff832f000000000000000000000000000000000000000000000000000000007bffffffffffffffffffffffffffffffffffffffffffffffffffffffff19166020820180517bffffffffffffffffffffffffffffffffffffffffffffffffffffffff83818316178352505050506040518463ffffffff1660e01b8152600401808060200184815260200180602001838103835286818151815260200191508051906020019080838360005b838110156123a0578082015181840152602081019050612385565b50505050905090810190601f1680156123cd5780820380516001836020036101000a031916815260200191505b50838103825284818151815260200191508051906020019080838360005b838110156124065780820151818401526020810190506123eb565b50505050905090810190601f1680156124335780820380516001836020036101000a031916815260200191505b5095505050505050602060405180830381600087803b15801561245557600080fd5b505af1158015612469573d6000803e3d6000fd5b505050506040513d602081101561247f57600080fd5b8101908080519060200190929190505050905084817fa3cd382277b18d8b5a2ffe52afc5a1405eee5818fa12b7f0678f40e4dc4f2054846040518082815260200180602001828103825260118152602001807f4368616e676520737461746520746f20320000000000000000000000000000008152506020019250505060405180910390a380600b60008781526020019081526020016000208190555050505b60028214156128cd576000600360009054906101000a900473ffffffffffffffffffffffffffffffffffffffff1673ffffffffffffffffffffffffffffffffffffffff16638851470d856040518263ffffffff1660e01b81526004018082815260200191505060606040518083038186803b15801561259d57600080fd5b505afa1580156125b1573d6000803e3d6000fd5b505050506040513d60608110156125c757600080fd5b81019080805190602001909291908051906020019092919080519060200190929190505050925050506000600960009054906101000a900473ffffffffffffffffffffffffffffffffffffffff1673ffffffffffffffffffffffffffffffffffffffff1663c19304966040518060400160405280600c81526020017f47616d654372656174696f6e00000000000000000000000000000000000000008152508488604051602401808281526020019150506040516020818303038152906040527f69ea0ea7000000000000000000000000000000000000000000000000000000007bffffffffffffffffffffffffffffffffffffffffffffffffffffffff19166020820180517bffffffffffffffffffffffffffffffffffffffffffffffffffffffff83818316178352505050506040518463ffffffff1660e01b8152600401808060200184815260200180602001838103835286818151815260200191508051906020019080838360005b8381101561274e578082015181840152602081019050612733565b50505050905090810190601f16801561277b5780820380516001836020036101000a031916815260200191505b50838103825284818151815260200191508051906020019080838360005b838110156127b4578082015181840152602081019050612799565b50505050905090810190601f1680156127e15780820380516001836020036101000a031916815260200191505b5095505050505050602060405180830381600087803b15801561280357600080fd5b505af1158015612817573d6000803e3d6000fd5b505050506040513d602081101561282d57600080fd5b8101908080519060200190929190505050905084817fa3cd382277b18d8b5a2ffe52afc5a1405eee5818fa12b7f0678f40e4dc4f2054846040518082815260200180602001828103825260118152602001807f4368616e676520737461746520746f20330000000000000000000000000000008152506020019250505060405180910390a380600b60008781526020019081526020016000208190555050505b505050565b600460009054906101000a900473ffffffffffffffffffffffffffffffffffffffff1681565b600860009054906101000a900473ffffffffffffffffffffffffffffffffffffffff1681565b6040518060400160405280600b81526020017f47616d654d616e6167657200000000000000000000000000000000000000000081525061295d816141e5565b6000600b60008481526020019081526020016000205490506000600360009054906101000a900473ffffffffffffffffffffffffffffffffffffffff1673ffffffffffffffffffffffffffffffffffffffff16638851470d856040518263ffffffff1660e01b81526004018082815260200191505060606040518083038186803b1580156129ea57600080fd5b505afa1580156129fe573d6000803e3d6000fd5b505050506040513d6060811015612a1457600080fd5b81019080805190602001909291908051906020019092919080519060200190929190505050925050506000600960009054906101000a900473ffffffffffffffffffffffffffffffffffffffff1673ffffffffffffffffffffffffffffffffffffffff1663ecb7035b6040518060400160405280600c81526020017f47616d654372656174696f6e000000000000000000000000000000000000000081525085856040518463ffffffff1660e01b81526004018080602001848152602001838152602001828103825285818151815260200191508051906020019080838360005b83811015612b10578082015181840152602081019050612af5565b50505050905090810190601f168015612b3d5780820380516001836020036101000a031916815260200191505b50945050505050602060405180830381600087803b158015612b5e57600080fd5b505af1158015612b72573d6000803e3d6000fd5b505050506040513d6020811015612b8857600080fd5b8101908080519060200190929190505050905084817fa3cd382277b18d8b5a2ffe52afc5a1405eee5818fa12b7f0678f40e4dc4f2054846040518082815260200180602001828103825260118152602001807f4368616e676520737461746520746f20330000000000000000000000000000008152506020019250505060405180910390a380600b6000878152602001908152602001600020819055505050505050565b600a60009054906101000a900473ffffffffffffffffffffffffffffffffffffffff1681565b600660009054906101000a900473ffffffffffffffffffffffffffffffffffffffff1681565b600960009054906101000a900473ffffffffffffffffffffffffffffffffffffffff1681565b6040518060400160405280600781526020017f43726f6e4a6f6200000000000000000000000000000000000000000000000000815250612cdd816141e5565b600160009054906101000a900473ffffffffffffffffffffffffffffffffffffffff1673ffffffffffffffffffffffffffffffffffffffff1663358177736040518060400160405280600981526020017f466f7266656974657200000000000000000000000000000000000000000000008152506040518263ffffffff1660e01b81526004018080602001828103825283818151815260200191508051906020019080838360005b83811015612da0578082015181840152602081019050612d85565b50505050905090810190601f168015612dcd5780820380516001836020036101000a031916815260200191505b509250505060206040518083038186803b158015612dea57600080fd5b505afa158015612dfe573d6000803e3d6000fd5b505050506040513d6020811015612e1457600080fd5b810190808051906020019092919050505073ffffffffffffffffffffffffffffffffffffffff1663b0c5831e836040518263ffffffff1660e01b81526004018082815260200180602001828103825260118152602001807f446964206e6f742068697420737461727400000000000000000000000000000081525060200192505050600060405180830381600087803b158015612eb057600080fd5b505af1158015612ec4573d6000803e3d6000fd5b505050505050565b600160009054906101000a900473ffffffffffffffffffffffffffffffffffffffff1681565b600760009054906101000a900473ffffffffffffffffffffffffffffffffffffffff1681565b600260009054906101000a900473ffffffffffffffffffffffffffffffffffffffff1681565b6000809054906101000a900473ffffffffffffffffffffffffffffffffffffffff1673ffffffffffffffffffffffffffffffffffffffff163373ffffffffffffffffffffffffffffffffffffffff1614612f9457fe5b600073ffffffffffffffffffffffffffffffffffffffff168173ffffffffffffffffffffffffffffffffffffffff161461300957806000806101000a81548173ffffffffffffffffffffffffffffffffffffffff021916908373ffffffffffffffffffffffffffffffffffffffff1602179055505b50565b6040518060400160405280600781526020017f43726f6e4a6f620000000000000000000000000000000000000000000000000081525061304b816141e5565b6000600360009054906101000a900473ffffffffffffffffffffffffffffffffffffffff1673ffffffffffffffffffffffffffffffffffffffff1663ffde0c74846040518263ffffffff1660e01b81526004018082815260200191505060206040518083038186803b1580156130c057600080fd5b505afa1580156130d4573d6000803e3d6000fd5b505050506040513d60208110156130ea57600080fd5b81019080805190602001909291905050509050600160009054906101000a900473ffffffffffffffffffffffffffffffffffffffff1673ffffffffffffffffffffffffffffffffffffffff1663358177736040518060400160405280600981526020017f466f7266656974657200000000000000000000000000000000000000000000008152506040518263ffffffff1660e01b81526004018080602001828103825283818151815260200191508051906020019080838360005b838110156131c05780820151818401526020810190506131a5565b50505050905090810190601f1680156131ed5780820380516001836020036101000a031916815260200191505b509250505060206040518083038186803b15801561320a57600080fd5b505afa15801561321e573d6000803e3d6000fd5b505050506040513d602081101561323457600080fd5b810190808051906020019092919050505073ffffffffffffffffffffffffffffffffffffffff1663304b950384836040518363ffffffff1660e01b81526004018083815260200182815260200192505050600060405180830381600087803b15801561329f57600080fd5b505af11580156132b3573d6000803e3d6000fd5b50505050600360009054906101000a900473ffffffffffffffffffffffffffffffffffffffff1673ffffffffffffffffffffffffffffffffffffffff1663ffde0c74846040518263ffffffff1660e01b81526004018082815260200191505060206040518083038186803b15801561332a57600080fd5b505afa15801561333e573d6000803e3d6000fd5b505050506040513d602081101561335457600080fd5b8101908080519060200190929190505050905060008114156133fe57600260009054906101000a900473ffffffffffffffffffffffffffffffffffffffff1673ffffffffffffffffffffffffffffffffffffffff1663f4dc834a846040518263ffffffff1660e01b815260040180828152602001915050600060405180830381600087803b1580156133e557600080fd5b505af11580156133f9573d6000803e3d6000fd5b505050505b505050565b61340b614d8e565b600073ffffffffffffffffffffffffffffffffffffffff163373ffffffffffffffffffffffffffffffffffffffff16141561344257fe5b6134806040518060400160405280600681526020017f706c617965720000000000000000000000000000000000000000000000000000815250614f18565b6134f2576040517f08c379a000000000000000000000000000000000000000000000000000000000815260040180806020018281038252600b8152602001807f4f6e6c7920706c6179657200000000000000000000000000000000000000000081525060200191505060405180910390fd5b6134fa615194565b818173ffffffffffffffffffffffffffffffffffffffff16600760009054906101000a900473ffffffffffffffffffffffffffffffffffffffff1673ffffffffffffffffffffffffffffffffffffffff16636352211e836040518263ffffffff1660e01b81526004018082815260200191505060206040518083038186803b15801561358557600080fd5b505afa158015613599573d6000803e3d6000fd5b505050506040513d60208110156135af57600080fd5b810190808051906020019092919050505073ffffffffffffffffffffffffffffffffffffffff161461362c576040517f08c379a000000000000000000000000000000000000000000000000000000000815260040180806020018281038252602481526020018061524a6024913960400191505060405180910390fd5b6000613636615194565b9050600560009054906101000a900473ffffffffffffffffffffffffffffffffffffffff1673ffffffffffffffffffffffffffffffffffffffff166342db158982600460009054906101000a900473ffffffffffffffffffffffffffffffffffffffff1673ffffffffffffffffffffffffffffffffffffffff1663b8fe6abe6040518163ffffffff1660e01b815260040160206040518083038186803b1580156136df57600080fd5b505afa1580156136f3573d6000803e3d6000fd5b505050506040513d602081101561370957600080fd5b81019080805190602001909291905050506040518363ffffffff1660e01b8152600401808373ffffffffffffffffffffffffffffffffffffffff1673ffffffffffffffffffffffffffffffffffffffff16815260200182815260200192505050602060405180830381600087803b15801561378357600080fd5b505af1158015613797573d6000803e3d6000fd5b505050506040513d60208110156137ad57600080fd5b8101908080519060200190929190505050506000600360009054906101000a900473ffffffffffffffffffffffffffffffffffffffff1673ffffffffffffffffffffffffffffffffffffffff166337507a0c866040518263ffffffff1660e01b81526004018082815260200191505060206040518083038186803b15801561383457600080fd5b505afa158015613848573d6000803e3d6000fd5b505050506040513d602081101561385e57600080fd5b8101908080519060200190929190505050146138e2576040517f08c379a00000000000000000000000000000000000000000000000000000000081526004018080602001828103825260208152602001807f4b697474696520697320616c726561647920706c6179696e6720612067616d6581525060200191505060405180910390fd5b600660009054906101000a900473ffffffffffffffffffffffffffffffffffffffff1673ffffffffffffffffffffffffffffffffffffffff16636df970c585836040518363ffffffff1660e01b8152600401808381526020018273ffffffffffffffffffffffffffffffffffffffff1673ffffffffffffffffffffffffffffffffffffffff16815260200192505050600060405180830381600087803b15801561398b57600080fd5b505af115801561399f573d6000803e3d6000fd5b505050508073ffffffffffffffffffffffffffffffffffffffff16847fda5118e11956b6ccec7a349074d6efada2b70b987d2eabba029de60d8f67b1aa426040518082815260200191505060405180910390a350505050565b613a00614d8e565b600073ffffffffffffffffffffffffffffffffffffffff163373ffffffffffffffffffffffffffffffffffffffff161415613a3757fe5b613a756040518060400160405280600b81526020017f73757065725f61646d696e000000000000000000000000000000000000000000815250614f18565b613ae7576040517f08c379a00000000000000000000000000000000000000000000000000000000081526004018080602001828103825260108152602001807f4f6e6c792073757065722061646d696e0000000000000000000000000000000081525060200191505060405180910390fd5b84838173ffffffffffffffffffffffffffffffffffffffff16600760009054906101000a900473ffffffffffffffffffffffffffffffffffffffff1673ffffffffffffffffffffffffffffffffffffffff16636352211e836040518263ffffffff1660e01b81526004018082815260200191505060206040518083038186803b158015613b7357600080fd5b505afa158015613b87573d6000803e3d6000fd5b505050506040513d6020811015613b9d57600080fd5b810190808051906020019092919050505073ffffffffffffffffffffffffffffffffffffffff1614613c1a576040517f08c379a000000000000000000000000000000000000000000000000000000000815260040180806020018281038252602481526020018061524a6024913960400191505060405180910390fd5b85848173ffffffffffffffffffffffffffffffffffffffff16600760009054906101000a900473ffffffffffffffffffffffffffffffffffffffff1673ffffffffffffffffffffffffffffffffffffffff16636352211e836040518263ffffffff1660e01b81526004018082815260200191505060206040518083038186803b158015613ca657600080fd5b505afa158015613cba573d6000803e3d6000fd5b505050506040513d6020811015613cd057600080fd5b810190808051906020019092919050505073ffffffffffffffffffffffffffffffffffffffff1614613d4d576040517f08c379a000000000000000000000000000000000000000000000000000000000815260040180806020018281038252602481526020018061524a6024913960400191505060405180910390fd5b600660009054906101000a900473ffffffffffffffffffffffffffffffffffffffff1673ffffffffffffffffffffffffffffffffffffffff1663c484819d886040518263ffffffff1660e01b81526004018082815260200191505060206040518083038186803b158015613dc057600080fd5b505afa158015613dd4573d6000803e3d6000fd5b505050506040513d6020811015613dea57600080fd5b810190808051906020019092919050505015613e51576040517f08c379a000000000000000000000000000000000000000000000000000000000815260040180806020018281038252602681526020018061526e6026913960400191505060405180910390fd5b600660009054906101000a900473ffffffffffffffffffffffffffffffffffffffff1673ffffffffffffffffffffffffffffffffffffffff1663c484819d876040518263ffffffff1660e01b81526004018082815260200191505060206040518083038186803b158015613ec457600080fd5b505afa158015613ed8573d6000803e3d6000fd5b505050506040513d6020811015613eee57600080fd5b810190808051906020019092919050505015613f55576040517f08c379a000000000000000000000000000000000000000000000000000000000815260040180806020018281038252602681526020018061526e6026913960400191505060405180910390fd5b600a60009054906101000a900473ffffffffffffffffffffffffffffffffffffffff1673ffffffffffffffffffffffffffffffffffffffff1663d9adf843888b6040518363ffffffff1660e01b8152600401808381526020018273ffffffffffffffffffffffffffffffffffffffff1673ffffffffffffffffffffffffffffffffffffffff16815260200192505050602060405180830381600087803b158015613ffe57600080fd5b505af1158015614012573d6000803e3d6000fd5b505050506040513d602081101561402857600080fd5b810190808051906020019092919050505061404257600080fd5b600a60009054906101000a900473ffffffffffffffffffffffffffffffffffffffff1673ffffffffffffffffffffffffffffffffffffffff1663d9adf843878a6040518363ffffffff1660e01b8152600401808381526020018273ffffffffffffffffffffffffffffffffffffffff1673ffffffffffffffffffffffffffffffffffffffff16815260200192505050602060405180830381600087803b1580156140eb57600080fd5b505af11580156140ff573d6000803e3d6000fd5b505050506040513d602081101561411557600080fd5b810190808051906020019092919050505061412f57600080fd5b8873ffffffffffffffffffffffffffffffffffffffff16877fda5118e11956b6ccec7a349074d6efada2b70b987d2eabba029de60d8f67b1aa426040518082815260200191505060405180910390a38773ffffffffffffffffffffffffffffffffffffffff16867fda5118e11956b6ccec7a349074d6efada2b70b987d2eabba029de60d8f67b1aa426040518082815260200191505060405180910390a36141da8989898989614480565b505050505050505050565b600073ffffffffffffffffffffffffffffffffffffffff16600160009054906101000a900473ffffffffffffffffffffffffffffffffffffffff1673ffffffffffffffffffffffffffffffffffffffff1614156142aa576040517f08c379a00000000000000000000000000000000000000000000000000000000081526004018080602001828103825260088152602001807f4e6f2050726f787900000000000000000000000000000000000000000000000081525060200191505060405180910390fd5b6000600160009054906101000a900473ffffffffffffffffffffffffffffffffffffffff1673ffffffffffffffffffffffffffffffffffffffff166335817773836040518263ffffffff1660e01b81526004018080602001828103825283818151815260200191508051906020019080838360005b8381101561433a57808201518184015260208101905061431f565b50505050905090810190601f1680156143675780820380516001836020036101000a031916815260200191505b509250505060206040518083038186803b15801561438457600080fd5b505afa158015614398573d6000803e3d6000fd5b505050506040513d60208110156143ae57600080fd5b81019080805190602001909291905050509050600073ffffffffffffffffffffffffffffffffffffffff168173ffffffffffffffffffffffffffffffffffffffff1614156143f857fe5b8073ffffffffffffffffffffffffffffffffffffffff163373ffffffffffffffffffffffffffffffffffffffff161461447c576040517f08c379a000000000000000000000000000000000000000000000000000000000815260040180806020018281038252602d815260200180615294602d913960400191505060405180910390fd5b5050565b6000600260009054906101000a900473ffffffffffffffffffffffffffffffffffffffff1673ffffffffffffffffffffffffffffffffffffffff1663a4a0aa5587878787876040518663ffffffff1660e01b8152600401808673ffffffffffffffffffffffffffffffffffffffff1673ffffffffffffffffffffffffffffffffffffffff1681526020018573ffffffffffffffffffffffffffffffffffffffff1673ffffffffffffffffffffffffffffffffffffffff16815260200184815260200183815260200182815260200195505050505050602060405180830381600087803b15801561456f57600080fd5b505af1158015614583573d6000803e3d6000fd5b505050506040513d602081101561459957600080fd5b81019080805190602001909291905050509050600860009054906101000a900473ffffffffffffffffffffffffffffffffffffffff1673ffffffffffffffffffffffffffffffffffffffff16633422476d826040518263ffffffff1660e01b815260040180828152602001915050600060405180830381600087803b15801561462157600080fd5b505af1158015614635573d6000803e3d6000fd5b50505050600080600560009054906101000a900473ffffffffffffffffffffffffffffffffffffffff1673ffffffffffffffffffffffffffffffffffffffff1663f1d4be10846040518263ffffffff1660e01b8152600401808281526020019150506040805180830381600087803b1580156146b057600080fd5b505af11580156146c4573d6000803e3d6000fd5b505050506040513d60408110156146da57600080fd5b81019080805190602001909291908051906020019092919050505091509150600260009054906101000a900473ffffffffffffffffffffffffffffffffffffffff1673ffffffffffffffffffffffffffffffffffffffff1663b2b0eb458484846040518463ffffffff1660e01b8152600401808481526020018381526020018281526020019350505050600060405180830381600087803b15801561477e57600080fd5b505af1158015614792573d6000803e3d6000fd5b505050506000600160009054906101000a900473ffffffffffffffffffffffffffffffffffffffff1673ffffffffffffffffffffffffffffffffffffffff1663358177736040518060400160405280600981526020017f54696d654672616d6500000000000000000000000000000000000000000000008152506040518263ffffffff1660e01b81526004018080602001828103825283818151815260200191508051906020019080838360005b8381101561485b578082015181840152602081019050614840565b50505050905090810190601f1680156148885780820380516001836020036101000a031916815260200191505b509250505060206040518083038186803b1580156148a557600080fd5b505afa1580156148b9573d6000803e3d6000fd5b505050506040513d60208110156148cf57600080fd5b810190808051906020019092919050505073ffffffffffffffffffffffffffffffffffffffff16630b3fbd5f6040518163ffffffff1660e01b815260040160206040518083038186803b15801561492557600080fd5b505afa158015614939573d6000803e3d6000fd5b505050506040513d602081101561494f57600080fd5b81019080805190602001909291905050509050600160009054906101000a900473ffffffffffffffffffffffffffffffffffffffff1673ffffffffffffffffffffffffffffffffffffffff1663358177736040518060400160405280600b81526020017f456e646f776d656e7444420000000000000000000000000000000000000000008152506040518263ffffffff1660e01b81526004018080602001828103825283818151815260200191508051906020019080838360005b83811015614a25578082015181840152602081019050614a0a565b50505050905090810190601f168015614a525780820380516001836020036101000a031916815260200191505b509250505060206040518083038186803b158015614a6f57600080fd5b505afa158015614a83573d6000803e3d6000fd5b505050506040513d6020811015614a9957600080fd5b810190808051906020019092919050505073ffffffffffffffffffffffffffffffffffffffff16639db1200b85836040518363ffffffff1660e01b81526004018083815260200182815260200192505050600060405180830381600087803b158015614b0457600080fd5b505af1158015614b18573d6000803e3d6000fd5b50505050600260009054906101000a900473ffffffffffffffffffffffffffffffffffffffff1673ffffffffffffffffffffffffffffffffffffffff1663fd3d1c248789876040518463ffffffff1660e01b8152600401808481526020018381526020018281526020019350505050600060405180830381600087803b158015614ba157600080fd5b505af1158015614bb5573d6000803e3d6000fd5b50505050600860009054906101000a900473ffffffffffffffffffffffffffffffffffffffff1673ffffffffffffffffffffffffffffffffffffffff16637b179988856040518263ffffffff1660e01b815260040180828152602001915050600060405180830381600087803b158015614c2e57600080fd5b505af1158015614c42573d6000803e3d6000fd5b50505050600860009054906101000a900473ffffffffffffffffffffffffffffffffffffffff1673ffffffffffffffffffffffffffffffffffffffff16630c03955f856040518263ffffffff1660e01b815260040180828152602001915050600060405180830381600087803b158015614cbb57600080fd5b505af1158015614ccf573d6000803e3d6000fd5b50505050837fc15da047551ef562c7c09ead43c6e8ffd313e0337fa024eba1d156410212a43989888c8b8a604051808673ffffffffffffffffffffffffffffffffffffffff1673ffffffffffffffffffffffffffffffffffffffff1681526020018581526020018473ffffffffffffffffffffffffffffffffffffffff1673ffffffffffffffffffffffffffffffffffffffff1681526020018381526020018281526020019550505050505060405180910390a2505050505050505050565b600073ffffffffffffffffffffffffffffffffffffffff16600160009054906101000a900473ffffffffffffffffffffffffffffffffffffffff1673ffffffffffffffffffffffffffffffffffffffff161415614e53576040517f08c379a00000000000000000000000000000000000000000000000000000000081526004018080602001828103825260088152602001807f4e6f2050726f787900000000000000000000000000000000000000000000000081525060200191505060405180910390fd5b600160009054906101000a900473ffffffffffffffffffffffffffffffffffffffff1673ffffffffffffffffffffffffffffffffffffffff163373ffffffffffffffffffffffffffffffffffffffff1614614f16576040517f08c379a00000000000000000000000000000000000000000000000000000000081526004018080602001828103825260128152602001807f4f6e6c79207468726f7567682050726f7879000000000000000000000000000081525060200191505060405180910390fd5b565b6000600160009054906101000a900473ffffffffffffffffffffffffffffffffffffffff1673ffffffffffffffffffffffffffffffffffffffff1663358177736040518060400160405280600681526020017f526f6c65444200000000000000000000000000000000000000000000000000008152506040518263ffffffff1660e01b81526004018080602001828103825283818151815260200191508051906020019080838360005b83811015614fdd578082015181840152602081019050614fc2565b50505050905090810190601f16801561500a5780820380516001836020036101000a031916815260200191505b509250505060206040518083038186803b15801561502757600080fd5b505afa15801561503b573d6000803e3d6000fd5b505050506040513d602081101561505157600080fd5b810190808051906020019092919050505073ffffffffffffffffffffffffffffffffffffffff16636c9cd09783615086615194565b6040518363ffffffff1660e01b815260040180806020018373ffffffffffffffffffffffffffffffffffffffff1673ffffffffffffffffffffffffffffffffffffffff168152602001828103825284818151815260200191508051906020019080838360005b838110156151075780820151818401526020810190506150ec565b50505050905090810190601f1680156151345780820380516001836020036101000a031916815260200191505b50935050505060206040518083038186803b15801561515257600080fd5b505afa158015615166573d6000803e3d6000fd5b505050506040513d602081101561517c57600080fd5b81019080805190602001909291905050509050919050565b6000600160009054906101000a900473ffffffffffffffffffffffffffffffffffffffff1673ffffffffffffffffffffffffffffffffffffffff163373ffffffffffffffffffffffffffffffffffffffff16146151f357339050615246565b6000601436036000602052601481602c37602051915050600073ffffffffffffffffffffffffffffffffffffffff168173ffffffffffffffffffffffffffffffffffffffff16141561524157fe5b809150505b9056fe596f7520617265206e6f7420746865206f776e6572206f662074686973206b69747469656669676874657220697320616c7265616479206c697374656420666f72206d61746368696e67416363657373206973206f6e6c7920616c6c6f7765642066726f6d20737065636966696320636f6e7472616374a265627a7a7231582096dc047a46de045ad1b0b140f08f16033422c538c6e5e6be7b061a0c3c390fb764736f6c63430005110032",
  "source": "/**\r\n * @title GamesManager\r\n *\r\n * @author @wafflemakr @karl @vikrammandal\r\n\r\n *\r\n */\r\n//modifier class (DSAuth )\r\n//Event class ( DSNote )\r\n//\r\n// This program is free software: you can redistribute it and/or modify\r\n// it under the terms of the GNU General Public License as published by\r\n// the Free Software Foundation, either version 3 of the License, or\r\n// (at your option) any later version.\r\n\r\n// This program is distributed in the hope that it will be useful,\r\n// but WITHOUT ANY WARRANTY; without even the implied warranty of\r\n// MERCHANTABILITY or FITNESS FOR A PARTICULAR PURPOSE.  See the\r\n// GNU General Public License for more details.\r\n\r\n// You should have received a copy of the GNU General Public License\r\n// along with this program.  If not, see <http://www.gnu.org/licenses/>.\r\n\r\npragma solidity ^0.5.5;\r\n\r\nimport '../proxy/Proxied.sol';\r\nimport \"../datetime/TimeFrame.sol\";\r\nimport \"../databases/EndowmentDB.sol\";\r\nimport \"../databases/GMSetterDB.sol\";\r\nimport \"../databases/GMGetterDB.sol\";\r\nimport \"../../GameVarAndFee.sol\";\r\nimport \"../endowment/EndowmentFund.sol\";\r\nimport \"./Scheduler.sol\";\r\nimport \"../../libs/SafeMath.sol\";\r\nimport '../../authority/Guard.sol';\r\nimport \"../../interfaces/IKittyCore.sol\";\r\nimport \"./GameStore.sol\";\r\nimport \"./GameManager.sol\";\r\nimport \"../../CronJob.sol\";\r\nimport \"./Forfeiter.sol\";\r\nimport '../kittieHELL/KittieHell.sol';\r\n\r\ncontract GameCreation is Proxied, Guard {\r\n    using SafeMath for uint256;\r\n\r\n    //Contract Variables\r\n    GMSetterDB public gmSetterDB;\r\n    GMGetterDB public gmGetterDB;\r\n    GameVarAndFee public gameVarAndFee;\r\n    EndowmentFund public endowmentFund;\r\n    Scheduler public scheduler;\r\n    IKittyCore public cryptoKitties;\r\n    GameStore public gameStore;\r\n    CronJob public cronJob;\r\n    KittieHell public kittieHELL;\r\n\r\n    //EVENTS\r\n    event NewGame(uint indexed gameId, address playerBlack, uint kittieBlack, address playerRed, uint kittieRed, uint gameStartTime);\r\n    event NewListing(uint indexed kittieId, address indexed owner, uint timeListed);\r\n    event Scheduled(uint indexed jobId, uint jobTime, uint indexed gameId, string job);\r\n\r\n    mapping(uint256 => uint256) public cronJobsForGames;\r\n\r\n    modifier onlyKittyOwner(address player, uint kittieId) {\r\n        require(cryptoKitties.ownerOf(kittieId) == player, \"You are not the owner of this kittie\");\r\n        _;\r\n    }\r\n\r\n    /**\r\n    * @dev Sets related contracts\r\n    * @dev Can be called only by the owner of this contract\r\n    */\r\n    function initialize() external onlyOwner {\r\n        gmSetterDB = GMSetterDB(proxy.getContract(CONTRACT_NAME_GM_SETTER_DB));\r\n        gmGetterDB = GMGetterDB(proxy.getContract(CONTRACT_NAME_GM_GETTER_DB));\r\n        endowmentFund = EndowmentFund(proxy.getContract(CONTRACT_NAME_ENDOWMENT_FUND));\r\n        gameVarAndFee = GameVarAndFee(proxy.getContract(CONTRACT_NAME_GAMEVARANDFEE));\r\n        scheduler = Scheduler(proxy.getContract(CONTRACT_NAME_SCHEDULER));\r\n        cryptoKitties = IKittyCore(proxy.getContract(CONTRACT_NAME_CRYPTOKITTIES));\r\n        gameStore = GameStore(proxy.getContract(CONTRACT_NAME_GAMESTORE));\r\n        cronJob = CronJob(proxy.getContract(CONTRACT_NAME_CRONJOB));\r\n        kittieHELL = KittieHell(proxy.getContract(CONTRACT_NAME_KITTIEHELL));\r\n    }\r\n\r\n    /**\r\n     * @dev calculate listing fee dynamically as a percentage of initial honey pot\r\n     */\r\n   //function calculateListingFee() public view returns(uint256)\r\n    //{\r\n      //  uint256 percentageHoneyPot = gameVarAndFee.getPercentageForListingFee();\r\n      //  uint256 initialHoneypotEth = gameVarAndFee.getEthPerGame();\r\n      //  uint256 initialHoneypotKTY = gameVarAndFee.getPercentageJackpotAllocationKTY().mul(gameVarAndFee.getActualFundsKTY());\r\n      //  return gameStore.calculateDynamicFee(percentageHoneyPot, initialHoneypotEth, initialHoneypotKTY);\r\n    //}\r\n\r\n    /**\r\n     * @dev Checks and prevents unverified accounts, only accounts with available kitties can list\r\n     */\r\n    function listKittie\r\n    (\r\n        uint kittieId\r\n    )\r\n        external\r\n        onlyProxy onlyPlayer\r\n        onlyKittyOwner(getOriginalSender(), kittieId) //currently doesKittieBelong is not used, better\r\n    {\r\n        address player = getOriginalSender();\r\n\r\n        //Pay Listing Fee\r\n        endowmentFund.contributeKTY(player, gameVarAndFee.getListingFee());\r\n\r\n        require((gmGetterDB.getGameOfKittie(kittieId) == 0), \"Kittie is already playing a game\");\r\n\r\n        scheduler.addKittyToList(kittieId, player);\r\n\r\n        emit NewListing(kittieId, player, now);\r\n    }\r\n\r\n    /**\r\n     * @dev Check to make sure the only superADmin can list, Takes in two kittieID's and accounts as well as the jackpot ether and token number.\r\n     */\r\n    function manualMatchKitties\r\n    (\r\n        address playerRed, address playerBlack,\r\n        uint256 kittyRed, uint256 kittyBlack,\r\n        uint gameStartTime\r\n    )\r\n        external\r\n        onlyProxy onlySuperAdmin\r\n        onlyKittyOwner(playerRed, kittyRed)\r\n        onlyKittyOwner(playerBlack, kittyBlack)\r\n    {\r\n        require(!scheduler.isKittyListedForMatching(kittyRed), \"fighter is already listed for matching\");\r\n        require(!scheduler.isKittyListedForMatching(kittyBlack), \"fighter is already listed for matching\");\r\n\r\n        require(kittieHELL.manualAcquireKitty(kittyRed, playerRed));\r\n        require(kittieHELL.manualAcquireKitty(kittyBlack, playerBlack));\r\n\r\n        emit NewListing(kittyRed, playerRed, now);\r\n        emit NewListing(kittyBlack, playerBlack, now);\r\n\r\n        generateFight(playerRed, playerBlack, kittyRed, kittyBlack, gameStartTime);\r\n    }\r\n\r\n    /**\r\n     * @dev Creates game and generates gameId\r\n     * @return gameId\r\n     */\r\n    function generateFight\r\n    (\r\n        address playerRed, address playerBlack,\r\n        uint256 kittyRed, uint256 kittyBlack,\r\n        uint gameStartTime\r\n    )\r\n        internal\r\n    {\r\n        uint256 gameId = gmSetterDB.createGame(\r\n            playerRed, playerBlack, kittyRed, kittyBlack, gameStartTime);\r\n        \r\n        gameStore.lockVars(gameId);\r\n\r\n        (uint initialKTY, uint initialEth) = endowmentFund.generateHoneyPot(gameId);\r\n        gmSetterDB.setHoneypotInfo(gameId, initialKTY, initialEth);\r\n\r\n        uint poolId = TimeFrame(proxy.getContract(CONTRACT_NAME_TIMEFRAME)).getActiveEpochID();\r\n\r\n        EndowmentDB(proxy.getContract(CONTRACT_NAME_ENDOWMENT_DB)).setPoolIDinGame(gameId, poolId);\r\n\r\n        gmSetterDB.updateKittiesGame(kittyBlack, kittyRed, gameId);\r\n\r\n        // update ticket fee dynamically as a percentage of initial honeypot size\r\n        gameStore.updateTicketFee(gameId);\r\n\r\n        // update betting fee dynamically as a percentage of initial honeypot size\r\n        gameStore.updateBettingFee(gameId);\r\n\r\n        emit NewGame(gameId, playerBlack, kittyBlack, playerRed, kittyRed, gameStartTime);\r\n    }\r\n\r\n    /**\r\n     * @dev External function for Scheduler to call\r\n     * @return gameId\r\n     */\r\n    function createFight\r\n    (\r\n        address playerRed, address playerBlack,\r\n        uint256 kittyRed, uint256 kittyBlack,\r\n        uint gameStartTime\r\n    )\r\n        external\r\n        onlyContract(CONTRACT_NAME_SCHEDULER)\r\n    {\r\n        generateFight(playerRed, playerBlack, kittyRed, kittyBlack, gameStartTime);\r\n    }\r\n\r\n    function removeKitties(uint256 gameId)\r\n        external\r\n        onlyContract(CONTRACT_NAME_GAMEMANAGER)\r\n    {\r\n        ( , ,uint256 kittyBlack, uint256 kittyRed) = gmGetterDB.getGamePlayers(gameId);\r\n        //Set gameId to 0 to both kitties (not playing any game)\r\n        gmSetterDB.updateKittiesGame(kittyBlack, kittyRed, 0);   \r\n    }\r\n\r\n\r\n    // ==== CRONJOBS FUNCTIONS\r\n\r\n    function scheduleJobs(uint256 gameId, uint256 state)\r\n    external\r\n    onlyContract(CONTRACT_NAME_GM_SETTER_DB)\r\n    {\r\n        if(state == 0){\r\n            (,uint preStartTime,) = gmGetterDB.getGameTimes(gameId);\r\n            uint scheduledJob = cronJob.addCronJob(CONTRACT_NAME_GAMECREATION, preStartTime, abi.encodeWithSignature(\"updateGameStateCron(uint256)\", gameId));\r\n            emit Scheduled(scheduledJob, preStartTime, gameId, \"Change state to 1\");\r\n            cronJobsForGames[gameId] = scheduledJob;\r\n        }\r\n\r\n        if(state == 1){\r\n            //If it is PRE_GAME STATE, again, when the job is scheduled (startTime), it should start, as both players press start\r\n            //So if state did not change we must cancelGame\r\n            //If they both press start this job is cancelled (In start function of GameManager)\r\n            (uint startTime,,) = gmGetterDB.getGameTimes(gameId);\r\n            uint scheduledJob = cronJob.addCronJob(CONTRACT_NAME_GAMECREATION, startTime, abi.encodeWithSignature(\"callForfeiterCron(uint256)\", gameId));\r\n            emit Scheduled(scheduledJob, startTime, gameId, \"Change state to 2\");\r\n            cronJobsForGames[gameId] = scheduledJob;\r\n        }\r\n        if(state == 2){\r\n            //If it is MAIN_GAME we endgame immediately\r\n            //We reschedule this Job if game extends (In checkPerformance of GameManager)\r\n            (,,uint endTime) = gmGetterDB.getGameTimes(gameId);\r\n            uint scheduledJob = cronJob.addCronJob(CONTRACT_NAME_GAMECREATION, endTime, abi.encodeWithSignature(\"callGameEndCron(uint256)\", gameId));\r\n            emit Scheduled(scheduledJob, endTime, gameId, \"Change state to 3\");\r\n            cronJobsForGames[gameId] = scheduledJob;\r\n        }\r\n    }\r\n\r\n    \r\n    function updateGameStateCron(uint256 gameId)\r\n        external\r\n        onlyContract(CONTRACT_NAME_CRONJOB)\r\n    {\r\n        uint state = gmGetterDB.getGameState(gameId);\r\n        //Check forfeiter before updating game state\r\n        Forfeiter(proxy.getContract(CONTRACT_NAME_FORFEITER)).checkGameStatusCron(gameId, state);\r\n        state = gmGetterDB.getGameState(gameId);\r\n        if (state == 0) gmSetterDB.updateGameStateCron(gameId);\r\n    }\r\n\r\n    function callForfeiterCron(uint gameId)\r\n        external\r\n        onlyContract(CONTRACT_NAME_CRONJOB)\r\n    {\r\n        Forfeiter(proxy.getContract(CONTRACT_NAME_FORFEITER)).forfeitCron(gameId, \"Did not hit start\");\r\n    }\r\n\r\n    function callGameEndCron(uint gameId)\r\n        external\r\n        onlyContract(CONTRACT_NAME_CRONJOB)\r\n    {\r\n        uint state = gmGetterDB.getGameState(gameId);\r\n        if (state == 2) GameManager(proxy.getContract(CONTRACT_NAME_GAMEMANAGER)).gameEndCron(gameId);\r\n    }\r\n\r\n    function rescheduleCronJob(uint gameId)\r\n        external\r\n        onlyContract(CONTRACT_NAME_GAMEMANAGER)\r\n    {\r\n        //Reschedule CronJob when more time added\r\n        uint256 jobId = cronJobsForGames[gameId];\r\n        (,,uint endTime) = gmGetterDB.getGameTimes(gameId);\r\n        uint newJobId = cronJob.rescheduleCronJob(CONTRACT_NAME_GAMECREATION, jobId, endTime);\r\n        emit Scheduled(newJobId, endTime, gameId, \"Change state to 3\");\r\n        cronJobsForGames[gameId] = newJobId;\r\n    }\r\n\r\n    function deleteCronjob(uint gameId)\r\n        external\r\n        onlyContract(CONTRACT_NAME_GAMEMANAGER)\r\n    {\r\n        uint256 jobId = cronJobsForGames[gameId];\r\n        cronJob.deleteCronJob(CONTRACT_NAME_GAMECREATION, jobId);\r\n    }\r\n\r\n\r\n\r\n}\r\n",
  "sourcePath": "C:\\Users\\Alex\\Desktop\\MyProjects\\alpha\\contracts\\modules\\gamemanager\\GameCreation.sol",
  "compiler": {
    "name": "solc",
    "version": "0.5.17+commit.d19bba13.Emscripten.clang"
  },
  "schemaVersion": "3.0.11",
  "updatedAt": "2020-04-19T21:47:22.259Z",
  "devdoc": {
    "methods": {
      "createFight(address,address,uint256,uint256,uint256)": {
        "details": "External function for Scheduler to call",
        "return": "gameId"
      },
      "initialize()": {
        "details": "Sets related contractsCan be called only by the owner of this contract"
      },
      "listKittie(uint256)": {
        "details": "Checks and prevents unverified accounts, only accounts with available kitties can list"
      },
      "manualMatchKitties(address,address,uint256,uint256,uint256)": {
        "details": "Check to make sure the only superADmin can list, Takes in two kittieID's and accounts as well as the jackpot ether and token number."
      }
    }
  },
  "userdoc": {
    "methods": {
      "setProxy(address)": {
        "notice": "Set/update address of Proxy contract"
      }
    }
  }
}