{
  "contractName": "GameCreation",
  "abi": [
    {
      "anonymous": false,
      "inputs": [
        {
          "indexed": true,
          "internalType": "uint256",
          "name": "gameId",
          "type": "uint256"
        },
        {
          "indexed": false,
          "internalType": "address",
          "name": "playerBlack",
          "type": "address"
        },
        {
          "indexed": false,
          "internalType": "uint256",
          "name": "kittieBlack",
          "type": "uint256"
        },
        {
          "indexed": false,
          "internalType": "address",
          "name": "playerRed",
          "type": "address"
        },
        {
          "indexed": false,
          "internalType": "uint256",
          "name": "kittieRed",
          "type": "uint256"
        },
        {
          "indexed": false,
          "internalType": "uint256",
          "name": "gameStartTime",
          "type": "uint256"
        }
      ],
      "name": "NewGame",
      "type": "event"
    },
    {
      "anonymous": false,
      "inputs": [
        {
          "indexed": true,
          "internalType": "uint256",
          "name": "kittieId",
          "type": "uint256"
        },
        {
          "indexed": true,
          "internalType": "address",
          "name": "owner",
          "type": "address"
        },
        {
          "indexed": false,
          "internalType": "uint256",
          "name": "timeListed",
          "type": "uint256"
        }
      ],
      "name": "NewListing",
      "type": "event"
    },
    {
      "anonymous": false,
      "inputs": [
        {
          "indexed": true,
          "internalType": "uint256",
          "name": "jobId",
          "type": "uint256"
        },
        {
          "indexed": false,
          "internalType": "uint256",
          "name": "jobTime",
          "type": "uint256"
        },
        {
          "indexed": true,
          "internalType": "uint256",
          "name": "gameId",
          "type": "uint256"
        },
        {
          "indexed": false,
          "internalType": "string",
          "name": "job",
          "type": "string"
        }
      ],
      "name": "Scheduled",
      "type": "event"
    },
    {
      "constant": true,
      "inputs": [],
      "name": "cronJob",
      "outputs": [
        {
          "internalType": "contract CronJob",
          "name": "",
          "type": "address"
        }
      ],
      "payable": false,
      "stateMutability": "view",
      "type": "function"
    },
    {
      "constant": true,
      "inputs": [
        {
          "internalType": "uint256",
          "name": "",
          "type": "uint256"
        }
      ],
      "name": "cronJobsForGames",
      "outputs": [
        {
          "internalType": "uint256",
          "name": "",
          "type": "uint256"
        }
      ],
      "payable": false,
      "stateMutability": "view",
      "type": "function"
    },
    {
      "constant": true,
      "inputs": [],
      "name": "cryptoKitties",
      "outputs": [
        {
          "internalType": "contract IKittyCore",
          "name": "",
          "type": "address"
        }
      ],
      "payable": false,
      "stateMutability": "view",
      "type": "function"
    },
    {
      "constant": true,
      "inputs": [],
      "name": "endowmentFund",
      "outputs": [
        {
          "internalType": "contract EndowmentFund",
          "name": "",
          "type": "address"
        }
      ],
      "payable": false,
      "stateMutability": "view",
      "type": "function"
    },
    {
      "constant": true,
      "inputs": [],
      "name": "gameStore",
      "outputs": [
        {
          "internalType": "contract GameStore",
          "name": "",
          "type": "address"
        }
      ],
      "payable": false,
      "stateMutability": "view",
      "type": "function"
    },
    {
      "constant": true,
      "inputs": [],
      "name": "gameVarAndFee",
      "outputs": [
        {
          "internalType": "contract GameVarAndFee",
          "name": "",
          "type": "address"
        }
      ],
      "payable": false,
      "stateMutability": "view",
      "type": "function"
    },
    {
      "constant": true,
      "inputs": [],
      "name": "gmGetterDB",
      "outputs": [
        {
          "internalType": "contract GMGetterDB",
          "name": "",
          "type": "address"
        }
      ],
      "payable": false,
      "stateMutability": "view",
      "type": "function"
    },
    {
      "constant": true,
      "inputs": [],
      "name": "gmSetterDB",
      "outputs": [
        {
          "internalType": "contract GMSetterDB",
          "name": "",
          "type": "address"
        }
      ],
      "payable": false,
      "stateMutability": "view",
      "type": "function"
    },
    {
      "constant": true,
      "inputs": [],
      "name": "kittieHELL",
      "outputs": [
        {
          "internalType": "contract KittieHell",
          "name": "",
          "type": "address"
        }
      ],
      "payable": false,
      "stateMutability": "view",
      "type": "function"
    },
    {
      "constant": true,
      "inputs": [],
      "name": "owner",
      "outputs": [
        {
          "internalType": "address payable",
          "name": "",
          "type": "address"
        }
      ],
      "payable": false,
      "stateMutability": "view",
      "type": "function"
    },
    {
      "constant": true,
      "inputs": [],
      "name": "proxy",
      "outputs": [
        {
          "internalType": "contract ProxyBase",
          "name": "",
          "type": "address"
        }
      ],
      "payable": false,
      "stateMutability": "view",
      "type": "function"
    },
    {
      "constant": true,
      "inputs": [],
      "name": "scheduler",
      "outputs": [
        {
          "internalType": "contract Scheduler",
          "name": "",
          "type": "address"
        }
      ],
      "payable": false,
      "stateMutability": "view",
      "type": "function"
    },
    {
      "constant": false,
      "inputs": [
        {
          "internalType": "contract ProxyBase",
          "name": "_proxy",
          "type": "address"
        }
      ],
      "name": "setProxy",
      "outputs": [],
      "payable": false,
      "stateMutability": "nonpayable",
      "type": "function"
    },
    {
      "constant": false,
      "inputs": [
        {
          "internalType": "address payable",
          "name": "newOwner",
          "type": "address"
        }
      ],
      "name": "transferOwnership",
      "outputs": [],
      "payable": false,
      "stateMutability": "nonpayable",
      "type": "function"
    },
    {
      "constant": false,
      "inputs": [],
      "name": "initialize",
      "outputs": [],
      "payable": false,
      "stateMutability": "nonpayable",
      "type": "function"
    },
    {
      "constant": false,
      "inputs": [
        {
          "internalType": "uint256",
          "name": "kittieId",
          "type": "uint256"
        }
      ],
      "name": "listKittie",
      "outputs": [],
      "payable": true,
      "stateMutability": "payable",
      "type": "function"
    },
    {
      "constant": false,
      "inputs": [
        {
          "internalType": "address",
          "name": "playerRed",
          "type": "address"
        },
        {
          "internalType": "address",
          "name": "playerBlack",
          "type": "address"
        },
        {
          "internalType": "uint256",
          "name": "kittyRed",
          "type": "uint256"
        },
        {
          "internalType": "uint256",
          "name": "kittyBlack",
          "type": "uint256"
        },
        {
          "internalType": "uint256",
          "name": "gameStartTime",
          "type": "uint256"
        }
      ],
      "name": "manualMatchKitties",
      "outputs": [],
      "payable": false,
      "stateMutability": "nonpayable",
      "type": "function"
    },
    {
      "constant": false,
      "inputs": [
        {
          "internalType": "address",
          "name": "playerRed",
          "type": "address"
        },
        {
          "internalType": "address",
          "name": "playerBlack",
          "type": "address"
        },
        {
          "internalType": "uint256",
          "name": "kittyRed",
          "type": "uint256"
        },
        {
          "internalType": "uint256",
          "name": "kittyBlack",
          "type": "uint256"
        },
        {
          "internalType": "uint256",
          "name": "gameStartTime",
          "type": "uint256"
        }
      ],
      "name": "createFight",
      "outputs": [],
      "payable": false,
      "stateMutability": "nonpayable",
      "type": "function"
    },
    {
      "constant": false,
      "inputs": [
        {
          "internalType": "uint256",
          "name": "gameId",
          "type": "uint256"
        }
      ],
      "name": "removeKitties",
      "outputs": [],
      "payable": false,
      "stateMutability": "nonpayable",
      "type": "function"
    },
    {
      "constant": false,
      "inputs": [
        {
          "internalType": "address",
          "name": "winner",
          "type": "address"
        },
        {
          "internalType": "address",
          "name": "loser",
          "type": "address"
        },
        {
          "internalType": "uint256",
          "name": "gameId",
          "type": "uint256"
        }
      ],
      "name": "updateKitties",
      "outputs": [],
      "payable": false,
      "stateMutability": "nonpayable",
      "type": "function"
    },
    {
      "constant": false,
      "inputs": [
        {
          "internalType": "uint256",
          "name": "gameId",
          "type": "uint256"
        },
        {
          "internalType": "uint256",
          "name": "state",
          "type": "uint256"
        }
      ],
      "name": "scheduleJobs",
      "outputs": [],
      "payable": false,
      "stateMutability": "nonpayable",
      "type": "function"
    },
    {
      "constant": false,
      "inputs": [
        {
          "internalType": "uint256",
          "name": "gameId",
          "type": "uint256"
        }
      ],
      "name": "updateGameStateCron",
      "outputs": [],
      "payable": false,
      "stateMutability": "nonpayable",
      "type": "function"
    },
    {
      "constant": false,
      "inputs": [
        {
          "internalType": "uint256",
          "name": "gameId",
          "type": "uint256"
        }
      ],
      "name": "callForfeiterCron",
      "outputs": [],
      "payable": false,
      "stateMutability": "nonpayable",
      "type": "function"
    },
    {
      "constant": false,
      "inputs": [
        {
          "internalType": "uint256",
          "name": "gameId",
          "type": "uint256"
        }
      ],
      "name": "callGameEndCron",
      "outputs": [],
      "payable": false,
      "stateMutability": "nonpayable",
      "type": "function"
    },
    {
      "constant": false,
      "inputs": [
        {
          "internalType": "uint256",
          "name": "gameId",
          "type": "uint256"
        }
      ],
      "name": "rescheduleCronJob",
      "outputs": [],
      "payable": false,
      "stateMutability": "nonpayable",
      "type": "function"
    },
    {
      "constant": false,
      "inputs": [
        {
          "internalType": "uint256",
          "name": "gameId",
          "type": "uint256"
        }
      ],
      "name": "deleteCronjob",
      "outputs": [],
      "payable": false,
      "stateMutability": "nonpayable",
      "type": "function"
    }
  ],
  "bytecode": "0x6080604052336000806101000a81548173ffffffffffffffffffffffffffffffffffffffff021916908373ffffffffffffffffffffffffffffffffffffffff160217905550615a92806100536000396000f3fe6080604052600436106101815760003560e01c8063b1be6469116100d1578063ec5568891161008a578063f2fde38b11610064578063f2fde38b14610870578063f4dc834a146108c1578063f60ac4b7146108fc578063fbf33cfb1461092a57610181565b8063ec5568891461076b578063ef410f45146107c2578063f26dee8e1461081957610181565b8063b1be646914610599578063c2b66904146105f0578063cfafbde71461062b578063d1ad17bf14610682578063da7f76d4146106d9578063daff832f1461073057610181565b80636fee856a1161013e57806397107d6d1161011857806397107d6d146104715780639d60d53e146104c2578063a1399540146104fd578063a3b3bd7b1461054257610181565b80636fee856a146103c85780638129fc1c146104035780638da5cb5b1461041a57610181565b8063014415411461018657806311744971146102155780631fc751801461029057806360cf7689146102e757806369af70b31461033657806369ea0ea71461038d575b600080fd5b34801561019257600080fd5b50610213600480360360a08110156101a957600080fd5b81019080803573ffffffffffffffffffffffffffffffffffffffff169060200190929190803573ffffffffffffffffffffffffffffffffffffffff1690602001909291908035906020019092919080359060200190929190803590602001909291905050506109b9565b005b34801561022157600080fd5b5061028e6004803603606081101561023857600080fd5b81019080803573ffffffffffffffffffffffffffffffffffffffff169060200190929190803573ffffffffffffffffffffffffffffffffffffffff16906020019092919080359060200190929190505050610a0d565b005b34801561029c57600080fd5b506102a5610d7e565b604051808273ffffffffffffffffffffffffffffffffffffffff1673ffffffffffffffffffffffffffffffffffffffff16815260200191505060405180910390f35b3480156102f357600080fd5b506103206004803603602081101561030a57600080fd5b8101908080359060200190929190505050610da4565b6040518082815260200191505060405180910390f35b34801561034257600080fd5b5061034b610dbc565b604051808273ffffffffffffffffffffffffffffffffffffffff1673ffffffffffffffffffffffffffffffffffffffff16815260200191505060405180910390f35b34801561039957600080fd5b506103c6600480360360208110156103b057600080fd5b8101908080359060200190929190505050610de2565b005b3480156103d457600080fd5b50610401600480360360208110156103eb57600080fd5b8101908080359060200190929190505050611094565b005b34801561040f57600080fd5b5061041861124c565b005b34801561042657600080fd5b5061042f61206c565b604051808273ffffffffffffffffffffffffffffffffffffffff1673ffffffffffffffffffffffffffffffffffffffff16815260200191505060405180910390f35b34801561047d57600080fd5b506104c06004803603602081101561049457600080fd5b81019080803573ffffffffffffffffffffffffffffffffffffffff169060200190929190505050612091565b005b3480156104ce57600080fd5b506104fb600480360360208110156104e557600080fd5b810190808035906020019092919050505061212b565b005b34801561050957600080fd5b506105406004803603604081101561052057600080fd5b8101908080359060200190929190803590602001909291905050506122b6565b005b34801561054e57600080fd5b50610557612e04565b604051808273ffffffffffffffffffffffffffffffffffffffff1673ffffffffffffffffffffffffffffffffffffffff16815260200191505060405180910390f35b3480156105a557600080fd5b506105ae612e2a565b604051808273ffffffffffffffffffffffffffffffffffffffff1673ffffffffffffffffffffffffffffffffffffffff16815260200191505060405180910390f35b3480156105fc57600080fd5b506106296004803603602081101561061357600080fd5b8101908080359060200190929190505050612e50565b005b34801561063757600080fd5b5061064061315e565b604051808273ffffffffffffffffffffffffffffffffffffffff1673ffffffffffffffffffffffffffffffffffffffff16815260200191505060405180910390f35b34801561068e57600080fd5b50610697613184565b604051808273ffffffffffffffffffffffffffffffffffffffff1673ffffffffffffffffffffffffffffffffffffffff16815260200191505060405180910390f35b3480156106e557600080fd5b506106ee6131aa565b604051808273ffffffffffffffffffffffffffffffffffffffff1673ffffffffffffffffffffffffffffffffffffffff16815260200191505060405180910390f35b34801561073c57600080fd5b506107696004803603602081101561075357600080fd5b81019080803590602001909291905050506131d0565b005b34801561077757600080fd5b506107806133fe565b604051808273ffffffffffffffffffffffffffffffffffffffff1673ffffffffffffffffffffffffffffffffffffffff16815260200191505060405180910390f35b3480156107ce57600080fd5b506107d7613424565b604051808273ffffffffffffffffffffffffffffffffffffffff1673ffffffffffffffffffffffffffffffffffffffff16815260200191505060405180910390f35b34801561082557600080fd5b5061082e61344a565b604051808273ffffffffffffffffffffffffffffffffffffffff1673ffffffffffffffffffffffffffffffffffffffff16815260200191505060405180910390f35b34801561087c57600080fd5b506108bf6004803603602081101561089357600080fd5b81019080803573ffffffffffffffffffffffffffffffffffffffff169060200190929190505050613470565b005b3480156108cd57600080fd5b506108fa600480360360208110156108e457600080fd5b810190808035906020019092919050505061353e565b005b6109286004803603602081101561091257600080fd5b8101908080359060200190929190505050613935565b005b34801561093657600080fd5b506109b7600480360360a081101561094d57600080fd5b81019080803573ffffffffffffffffffffffffffffffffffffffff169060200190929190803573ffffffffffffffffffffffffffffffffffffffff169060200190929190803590602001909291908035906020019092919080359060200190929190505050613fb7565b005b6040518060400160405280600981526020017f5363686564756c657200000000000000000000000000000000000000000000008152506109f88161485d565b610a058686868686614af8565b505050505050565b6040518060400160405280600b81526020017f47616d654d616e61676572000000000000000000000000000000000000000000815250610a4c8161485d565b600a60009054906101000a900473ffffffffffffffffffffffffffffffffffffffff1673ffffffffffffffffffffffffffffffffffffffff166329af207c600360009054906101000a900473ffffffffffffffffffffffffffffffffffffffff1673ffffffffffffffffffffffffffffffffffffffff1663e441dcbf85886040518363ffffffff1660e01b8152600401808381526020018273ffffffffffffffffffffffffffffffffffffffff1673ffffffffffffffffffffffffffffffffffffffff1681526020019250505060206040518083038186803b158015610b3157600080fd5b505afa158015610b45573d6000803e3d6000fd5b505050506040513d6020811015610b5b57600080fd5b81019080805190602001909291905050506040518263ffffffff1660e01b815260040180828152602001915050602060405180830381600087803b158015610ba257600080fd5b505af1158015610bb6573d6000803e3d6000fd5b505050506040513d6020811015610bcc57600080fd5b810190808051906020019092919050505050600a60009054906101000a900473ffffffffffffffffffffffffffffffffffffffff1673ffffffffffffffffffffffffffffffffffffffff16637202a1b2600360009054906101000a900473ffffffffffffffffffffffffffffffffffffffff1673ffffffffffffffffffffffffffffffffffffffff1663e441dcbf85876040518363ffffffff1660e01b8152600401808381526020018273ffffffffffffffffffffffffffffffffffffffff1673ffffffffffffffffffffffffffffffffffffffff1681526020019250505060206040518083038186803b158015610cc357600080fd5b505afa158015610cd7573d6000803e3d6000fd5b505050506040513d6020811015610ced57600080fd5b8101908080519060200190929190505050846040518363ffffffff1660e01b81526004018083815260200182815260200192505050602060405180830381600087803b158015610d3c57600080fd5b505af1158015610d50573d6000803e3d6000fd5b505050506040513d6020811015610d6657600080fd5b81019080805190602001909291905050505050505050565b600360009054906101000a900473ffffffffffffffffffffffffffffffffffffffff1681565b600b6020528060005260406000206000915090505481565b600560009054906101000a900473ffffffffffffffffffffffffffffffffffffffff1681565b6040518060400160405280600781526020017f43726f6e4a6f6200000000000000000000000000000000000000000000000000815250610e218161485d565b6000600360009054906101000a900473ffffffffffffffffffffffffffffffffffffffff1673ffffffffffffffffffffffffffffffffffffffff1663ffde0c74846040518263ffffffff1660e01b81526004018082815260200191505060206040518083038186803b158015610e9657600080fd5b505afa158015610eaa573d6000803e3d6000fd5b505050506040513d6020811015610ec057600080fd5b81019080805190602001909291905050509050600281141561108f57600160009054906101000a900473ffffffffffffffffffffffffffffffffffffffff1673ffffffffffffffffffffffffffffffffffffffff1663358177736040518060400160405280600b81526020017f47616d654d616e616765720000000000000000000000000000000000000000008152506040518263ffffffff1660e01b81526004018080602001828103825283818151815260200191508051906020019080838360005b83811015610f9f578082015181840152602081019050610f84565b50505050905090810190601f168015610fcc5780820380516001836020036101000a031916815260200191505b509250505060206040518083038186803b158015610fe957600080fd5b505afa158015610ffd573d6000803e3d6000fd5b505050506040513d602081101561101357600080fd5b810190808051906020019092919050505073ffffffffffffffffffffffffffffffffffffffff1663ddda0719846040518263ffffffff1660e01b815260040180828152602001915050600060405180830381600087803b15801561107657600080fd5b505af115801561108a573d6000803e3d6000fd5b505050505b505050565b6040518060400160405280600b81526020017f47616d654d616e616765720000000000000000000000000000000000000000008152506110d38161485d565b600080600360009054906101000a900473ffffffffffffffffffffffffffffffffffffffff1673ffffffffffffffffffffffffffffffffffffffff166315a40f49856040518263ffffffff1660e01b81526004018082815260200191505060806040518083038186803b15801561114957600080fd5b505afa15801561115d573d6000803e3d6000fd5b505050506040513d608081101561117357600080fd5b8101908080519060200190929190805190602001909291908051906020019092919080519060200190929190505050935093505050600260009054906101000a900473ffffffffffffffffffffffffffffffffffffffff1673ffffffffffffffffffffffffffffffffffffffff1663fd3d1c24838360006040518463ffffffff1660e01b8152600401808481526020018381526020018281526020019350505050600060405180830381600087803b15801561122e57600080fd5b505af1158015611242573d6000803e3d6000fd5b5050505050505050565b6000809054906101000a900473ffffffffffffffffffffffffffffffffffffffff1673ffffffffffffffffffffffffffffffffffffffff163373ffffffffffffffffffffffffffffffffffffffff16146112a257fe5b600160009054906101000a900473ffffffffffffffffffffffffffffffffffffffff1673ffffffffffffffffffffffffffffffffffffffff1663358177736040518060400160405280600a81526020017f474d5365747465724442000000000000000000000000000000000000000000008152506040518263ffffffff1660e01b81526004018080602001828103825283818151815260200191508051906020019080838360005b8381101561136557808201518184015260208101905061134a565b50505050905090810190601f1680156113925780820380516001836020036101000a031916815260200191505b509250505060206040518083038186803b1580156113af57600080fd5b505afa1580156113c3573d6000803e3d6000fd5b505050506040513d60208110156113d957600080fd5b8101908080519060200190929190505050600260006101000a81548173ffffffffffffffffffffffffffffffffffffffff021916908373ffffffffffffffffffffffffffffffffffffffff160217905550600160009054906101000a900473ffffffffffffffffffffffffffffffffffffffff1673ffffffffffffffffffffffffffffffffffffffff1663358177736040518060400160405280600a81526020017f474d4765747465724442000000000000000000000000000000000000000000008152506040518263ffffffff1660e01b81526004018080602001828103825283818151815260200191508051906020019080838360005b838110156114ed5780820151818401526020810190506114d2565b50505050905090810190601f16801561151a5780820380516001836020036101000a031916815260200191505b509250505060206040518083038186803b15801561153757600080fd5b505afa15801561154b573d6000803e3d6000fd5b505050506040513d602081101561156157600080fd5b8101908080519060200190929190505050600360006101000a81548173ffffffffffffffffffffffffffffffffffffffff021916908373ffffffffffffffffffffffffffffffffffffffff160217905550600160009054906101000a900473ffffffffffffffffffffffffffffffffffffffff1673ffffffffffffffffffffffffffffffffffffffff1663358177736040518060400160405280600d81526020017f456e646f776d656e7446756e64000000000000000000000000000000000000008152506040518263ffffffff1660e01b81526004018080602001828103825283818151815260200191508051906020019080838360005b8381101561167557808201518184015260208101905061165a565b50505050905090810190601f1680156116a25780820380516001836020036101000a031916815260200191505b509250505060206040518083038186803b1580156116bf57600080fd5b505afa1580156116d3573d6000803e3d6000fd5b505050506040513d60208110156116e957600080fd5b8101908080519060200190929190505050600560006101000a81548173ffffffffffffffffffffffffffffffffffffffff021916908373ffffffffffffffffffffffffffffffffffffffff160217905550600160009054906101000a900473ffffffffffffffffffffffffffffffffffffffff1673ffffffffffffffffffffffffffffffffffffffff1663358177736040518060400160405280600d81526020017f47616d65566172416e64466565000000000000000000000000000000000000008152506040518263ffffffff1660e01b81526004018080602001828103825283818151815260200191508051906020019080838360005b838110156117fd5780820151818401526020810190506117e2565b50505050905090810190601f16801561182a5780820380516001836020036101000a031916815260200191505b509250505060206040518083038186803b15801561184757600080fd5b505afa15801561185b573d6000803e3d6000fd5b505050506040513d602081101561187157600080fd5b8101908080519060200190929190505050600460006101000a81548173ffffffffffffffffffffffffffffffffffffffff021916908373ffffffffffffffffffffffffffffffffffffffff160217905550600160009054906101000a900473ffffffffffffffffffffffffffffffffffffffff1673ffffffffffffffffffffffffffffffffffffffff1663358177736040518060400160405280600981526020017f5363686564756c657200000000000000000000000000000000000000000000008152506040518263ffffffff1660e01b81526004018080602001828103825283818151815260200191508051906020019080838360005b8381101561198557808201518184015260208101905061196a565b50505050905090810190601f1680156119b25780820380516001836020036101000a031916815260200191505b509250505060206040518083038186803b1580156119cf57600080fd5b505afa1580156119e3573d6000803e3d6000fd5b505050506040513d60208110156119f957600080fd5b8101908080519060200190929190505050600660006101000a81548173ffffffffffffffffffffffffffffffffffffffff021916908373ffffffffffffffffffffffffffffffffffffffff160217905550600160009054906101000a900473ffffffffffffffffffffffffffffffffffffffff1673ffffffffffffffffffffffffffffffffffffffff1663358177736040518060400160405280600d81526020017f43727970746f4b697474696573000000000000000000000000000000000000008152506040518263ffffffff1660e01b81526004018080602001828103825283818151815260200191508051906020019080838360005b83811015611b0d578082015181840152602081019050611af2565b50505050905090810190601f168015611b3a5780820380516001836020036101000a031916815260200191505b509250505060206040518083038186803b158015611b5757600080fd5b505afa158015611b6b573d6000803e3d6000fd5b505050506040513d6020811015611b8157600080fd5b8101908080519060200190929190505050600760006101000a81548173ffffffffffffffffffffffffffffffffffffffff021916908373ffffffffffffffffffffffffffffffffffffffff160217905550600160009054906101000a900473ffffffffffffffffffffffffffffffffffffffff1673ffffffffffffffffffffffffffffffffffffffff1663358177736040518060400160405280600981526020017f47616d6553746f726500000000000000000000000000000000000000000000008152506040518263ffffffff1660e01b81526004018080602001828103825283818151815260200191508051906020019080838360005b83811015611c95578082015181840152602081019050611c7a565b50505050905090810190601f168015611cc25780820380516001836020036101000a031916815260200191505b509250505060206040518083038186803b158015611cdf57600080fd5b505afa158015611cf3573d6000803e3d6000fd5b505050506040513d6020811015611d0957600080fd5b8101908080519060200190929190505050600860006101000a81548173ffffffffffffffffffffffffffffffffffffffff021916908373ffffffffffffffffffffffffffffffffffffffff160217905550600160009054906101000a900473ffffffffffffffffffffffffffffffffffffffff1673ffffffffffffffffffffffffffffffffffffffff1663358177736040518060400160405280600781526020017f43726f6e4a6f62000000000000000000000000000000000000000000000000008152506040518263ffffffff1660e01b81526004018080602001828103825283818151815260200191508051906020019080838360005b83811015611e1d578082015181840152602081019050611e02565b50505050905090810190601f168015611e4a5780820380516001836020036101000a031916815260200191505b509250505060206040518083038186803b158015611e6757600080fd5b505afa158015611e7b573d6000803e3d6000fd5b505050506040513d6020811015611e9157600080fd5b8101908080519060200190929190505050600960006101000a81548173ffffffffffffffffffffffffffffffffffffffff021916908373ffffffffffffffffffffffffffffffffffffffff160217905550600160009054906101000a900473ffffffffffffffffffffffffffffffffffffffff1673ffffffffffffffffffffffffffffffffffffffff1663358177736040518060400160405280600a81526020017f4b697474696548656c6c000000000000000000000000000000000000000000008152506040518263ffffffff1660e01b81526004018080602001828103825283818151815260200191508051906020019080838360005b83811015611fa5578082015181840152602081019050611f8a565b50505050905090810190601f168015611fd25780820380516001836020036101000a031916815260200191505b509250505060206040518083038186803b158015611fef57600080fd5b505afa158015612003573d6000803e3d6000fd5b505050506040513d602081101561201957600080fd5b8101908080519060200190929190505050600a60006101000a81548173ffffffffffffffffffffffffffffffffffffffff021916908373ffffffffffffffffffffffffffffffffffffffff160217905550565b6000809054906101000a900473ffffffffffffffffffffffffffffffffffffffff1681565b6000809054906101000a900473ffffffffffffffffffffffffffffffffffffffff1673ffffffffffffffffffffffffffffffffffffffff163373ffffffffffffffffffffffffffffffffffffffff16146120e757fe5b80600160006101000a81548173ffffffffffffffffffffffffffffffffffffffff021916908373ffffffffffffffffffffffffffffffffffffffff16021790555050565b6040518060400160405280600b81526020017f47616d654d616e6167657200000000000000000000000000000000000000000081525061216a8161485d565b6000600b6000848152602001908152602001600020549050600960009054906101000a900473ffffffffffffffffffffffffffffffffffffffff1673ffffffffffffffffffffffffffffffffffffffff16639d8f101f6040518060400160405280600c81526020017f47616d654372656174696f6e0000000000000000000000000000000000000000815250836040518363ffffffff1660e01b81526004018080602001838152602001828103825284818151815260200191508051906020019080838360005b8381101561224c578082015181840152602081019050612231565b50505050905090810190601f1680156122795780820380516001836020036101000a031916815260200191505b509350505050600060405180830381600087803b15801561229957600080fd5b505af11580156122ad573d6000803e3d6000fd5b50505050505050565b6040518060400160405280600a81526020017f474d5365747465724442000000000000000000000000000000000000000000008152506122f58161485d565b60008214156126a3576000600360009054906101000a900473ffffffffffffffffffffffffffffffffffffffff1673ffffffffffffffffffffffffffffffffffffffff16638851470d856040518263ffffffff1660e01b81526004018082815260200191505060606040518083038186803b15801561237357600080fd5b505afa158015612387573d6000803e3d6000fd5b505050506040513d606081101561239d57600080fd5b81019080805190602001909291908051906020019092919080519060200190929190505050509150506000600960009054906101000a900473ffffffffffffffffffffffffffffffffffffffff1673ffffffffffffffffffffffffffffffffffffffff1663c19304966040518060400160405280600c81526020017f47616d654372656174696f6e00000000000000000000000000000000000000008152508488604051602401808281526020019150506040516020818303038152906040527ff4dc834a000000000000000000000000000000000000000000000000000000007bffffffffffffffffffffffffffffffffffffffffffffffffffffffff19166020820180517bffffffffffffffffffffffffffffffffffffffffffffffffffffffff83818316178352505050506040518463ffffffff1660e01b8152600401808060200184815260200180602001838103835286818151815260200191508051906020019080838360005b83811015612524578082015181840152602081019050612509565b50505050905090810190601f1680156125515780820380516001836020036101000a031916815260200191505b50838103825284818151815260200191508051906020019080838360005b8381101561258a57808201518184015260208101905061256f565b50505050905090810190601f1680156125b75780820380516001836020036101000a031916815260200191505b5095505050505050602060405180830381600087803b1580156125d957600080fd5b505af11580156125ed573d6000803e3d6000fd5b505050506040513d602081101561260357600080fd5b8101908080519060200190929190505050905084817fa3cd382277b18d8b5a2ffe52afc5a1405eee5818fa12b7f0678f40e4dc4f2054846040518082815260200180602001828103825260118152602001807f4368616e676520737461746520746f20310000000000000000000000000000008152506020019250505060405180910390a380600b60008781526020019081526020016000208190555050505b6001821415612a51576000600360009054906101000a900473ffffffffffffffffffffffffffffffffffffffff1673ffffffffffffffffffffffffffffffffffffffff16638851470d856040518263ffffffff1660e01b81526004018082815260200191505060606040518083038186803b15801561272157600080fd5b505afa158015612735573d6000803e3d6000fd5b505050506040513d606081101561274b57600080fd5b81019080805190602001909291908051906020019092919080519060200190929190505050505090506000600960009054906101000a900473ffffffffffffffffffffffffffffffffffffffff1673ffffffffffffffffffffffffffffffffffffffff1663c19304966040518060400160405280600c81526020017f47616d654372656174696f6e00000000000000000000000000000000000000008152508488604051602401808281526020019150506040516020818303038152906040527fdaff832f000000000000000000000000000000000000000000000000000000007bffffffffffffffffffffffffffffffffffffffffffffffffffffffff19166020820180517bffffffffffffffffffffffffffffffffffffffffffffffffffffffff83818316178352505050506040518463ffffffff1660e01b8152600401808060200184815260200180602001838103835286818151815260200191508051906020019080838360005b838110156128d25780820151818401526020810190506128b7565b50505050905090810190601f1680156128ff5780820380516001836020036101000a031916815260200191505b50838103825284818151815260200191508051906020019080838360005b8381101561293857808201518184015260208101905061291d565b50505050905090810190601f1680156129655780820380516001836020036101000a031916815260200191505b5095505050505050602060405180830381600087803b15801561298757600080fd5b505af115801561299b573d6000803e3d6000fd5b505050506040513d60208110156129b157600080fd5b8101908080519060200190929190505050905084817fa3cd382277b18d8b5a2ffe52afc5a1405eee5818fa12b7f0678f40e4dc4f2054846040518082815260200180602001828103825260118152602001807f4368616e676520737461746520746f20320000000000000000000000000000008152506020019250505060405180910390a380600b60008781526020019081526020016000208190555050505b6002821415612dff576000600360009054906101000a900473ffffffffffffffffffffffffffffffffffffffff1673ffffffffffffffffffffffffffffffffffffffff16638851470d856040518263ffffffff1660e01b81526004018082815260200191505060606040518083038186803b158015612acf57600080fd5b505afa158015612ae3573d6000803e3d6000fd5b505050506040513d6060811015612af957600080fd5b81019080805190602001909291908051906020019092919080519060200190929190505050925050506000600960009054906101000a900473ffffffffffffffffffffffffffffffffffffffff1673ffffffffffffffffffffffffffffffffffffffff1663c19304966040518060400160405280600c81526020017f47616d654372656174696f6e00000000000000000000000000000000000000008152508488604051602401808281526020019150506040516020818303038152906040527f69ea0ea7000000000000000000000000000000000000000000000000000000007bffffffffffffffffffffffffffffffffffffffffffffffffffffffff19166020820180517bffffffffffffffffffffffffffffffffffffffffffffffffffffffff83818316178352505050506040518463ffffffff1660e01b8152600401808060200184815260200180602001838103835286818151815260200191508051906020019080838360005b83811015612c80578082015181840152602081019050612c65565b50505050905090810190601f168015612cad5780820380516001836020036101000a031916815260200191505b50838103825284818151815260200191508051906020019080838360005b83811015612ce6578082015181840152602081019050612ccb565b50505050905090810190601f168015612d135780820380516001836020036101000a031916815260200191505b5095505050505050602060405180830381600087803b158015612d3557600080fd5b505af1158015612d49573d6000803e3d6000fd5b505050506040513d6020811015612d5f57600080fd5b8101908080519060200190929190505050905084817fa3cd382277b18d8b5a2ffe52afc5a1405eee5818fa12b7f0678f40e4dc4f2054846040518082815260200180602001828103825260118152602001807f4368616e676520737461746520746f20330000000000000000000000000000008152506020019250505060405180910390a380600b60008781526020019081526020016000208190555050505b505050565b600460009054906101000a900473ffffffffffffffffffffffffffffffffffffffff1681565b600860009054906101000a900473ffffffffffffffffffffffffffffffffffffffff1681565b6040518060400160405280600b81526020017f47616d654d616e61676572000000000000000000000000000000000000000000815250612e8f8161485d565b6000600b60008481526020019081526020016000205490506000600360009054906101000a900473ffffffffffffffffffffffffffffffffffffffff1673ffffffffffffffffffffffffffffffffffffffff16638851470d856040518263ffffffff1660e01b81526004018082815260200191505060606040518083038186803b158015612f1c57600080fd5b505afa158015612f30573d6000803e3d6000fd5b505050506040513d6060811015612f4657600080fd5b81019080805190602001909291908051906020019092919080519060200190929190505050925050506000600960009054906101000a900473ffffffffffffffffffffffffffffffffffffffff1673ffffffffffffffffffffffffffffffffffffffff1663ecb7035b6040518060400160405280600c81526020017f47616d654372656174696f6e000000000000000000000000000000000000000081525085856040518463ffffffff1660e01b81526004018080602001848152602001838152602001828103825285818151815260200191508051906020019080838360005b83811015613042578082015181840152602081019050613027565b50505050905090810190601f16801561306f5780820380516001836020036101000a031916815260200191505b50945050505050602060405180830381600087803b15801561309057600080fd5b505af11580156130a4573d6000803e3d6000fd5b505050506040513d60208110156130ba57600080fd5b8101908080519060200190929190505050905084817fa3cd382277b18d8b5a2ffe52afc5a1405eee5818fa12b7f0678f40e4dc4f2054846040518082815260200180602001828103825260118152602001807f4368616e676520737461746520746f20330000000000000000000000000000008152506020019250505060405180910390a380600b6000878152602001908152602001600020819055505050505050565b600a60009054906101000a900473ffffffffffffffffffffffffffffffffffffffff1681565b600660009054906101000a900473ffffffffffffffffffffffffffffffffffffffff1681565b600960009054906101000a900473ffffffffffffffffffffffffffffffffffffffff1681565b6040518060400160405280600781526020017f43726f6e4a6f620000000000000000000000000000000000000000000000000081525061320f8161485d565b600160009054906101000a900473ffffffffffffffffffffffffffffffffffffffff1673ffffffffffffffffffffffffffffffffffffffff1663358177736040518060400160405280600981526020017f466f7266656974657200000000000000000000000000000000000000000000008152506040518263ffffffff1660e01b81526004018080602001828103825283818151815260200191508051906020019080838360005b838110156132d25780820151818401526020810190506132b7565b50505050905090810190601f1680156132ff5780820380516001836020036101000a031916815260200191505b509250505060206040518083038186803b15801561331c57600080fd5b505afa158015613330573d6000803e3d6000fd5b505050506040513d602081101561334657600080fd5b810190808051906020019092919050505073ffffffffffffffffffffffffffffffffffffffff1663b0c5831e836040518263ffffffff1660e01b81526004018082815260200180602001828103825260118152602001807f446964206e6f742068697420737461727400000000000000000000000000000081525060200192505050600060405180830381600087803b1580156133e257600080fd5b505af11580156133f6573d6000803e3d6000fd5b505050505050565b600160009054906101000a900473ffffffffffffffffffffffffffffffffffffffff1681565b600760009054906101000a900473ffffffffffffffffffffffffffffffffffffffff1681565b600260009054906101000a900473ffffffffffffffffffffffffffffffffffffffff1681565b6000809054906101000a900473ffffffffffffffffffffffffffffffffffffffff1673ffffffffffffffffffffffffffffffffffffffff163373ffffffffffffffffffffffffffffffffffffffff16146134c657fe5b600073ffffffffffffffffffffffffffffffffffffffff168173ffffffffffffffffffffffffffffffffffffffff161461353b57806000806101000a81548173ffffffffffffffffffffffffffffffffffffffff021916908373ffffffffffffffffffffffffffffffffffffffff1602179055505b50565b6040518060400160405280600781526020017f43726f6e4a6f620000000000000000000000000000000000000000000000000081525061357d8161485d565b6000600360009054906101000a900473ffffffffffffffffffffffffffffffffffffffff1673ffffffffffffffffffffffffffffffffffffffff1663ffde0c74846040518263ffffffff1660e01b81526004018082815260200191505060206040518083038186803b1580156135f257600080fd5b505afa158015613606573d6000803e3d6000fd5b505050506040513d602081101561361c57600080fd5b81019080805190602001909291905050509050600160009054906101000a900473ffffffffffffffffffffffffffffffffffffffff1673ffffffffffffffffffffffffffffffffffffffff1663358177736040518060400160405280600981526020017f466f7266656974657200000000000000000000000000000000000000000000008152506040518263ffffffff1660e01b81526004018080602001828103825283818151815260200191508051906020019080838360005b838110156136f25780820151818401526020810190506136d7565b50505050905090810190601f16801561371f5780820380516001836020036101000a031916815260200191505b509250505060206040518083038186803b15801561373c57600080fd5b505afa158015613750573d6000803e3d6000fd5b505050506040513d602081101561376657600080fd5b810190808051906020019092919050505073ffffffffffffffffffffffffffffffffffffffff1663304b950384836040518363ffffffff1660e01b81526004018083815260200182815260200192505050600060405180830381600087803b1580156137d157600080fd5b505af11580156137e5573d6000803e3d6000fd5b50505050600360009054906101000a900473ffffffffffffffffffffffffffffffffffffffff1673ffffffffffffffffffffffffffffffffffffffff1663ffde0c74846040518263ffffffff1660e01b81526004018082815260200191505060206040518083038186803b15801561385c57600080fd5b505afa158015613870573d6000803e3d6000fd5b505050506040513d602081101561388657600080fd5b81019080805190602001909291905050509050600081141561393057600260009054906101000a900473ffffffffffffffffffffffffffffffffffffffff1673ffffffffffffffffffffffffffffffffffffffff1663f4dc834a846040518263ffffffff1660e01b815260040180828152602001915050600060405180830381600087803b15801561391757600080fd5b505af115801561392b573d6000803e3d6000fd5b505050505b505050565b61393d61552b565b600073ffffffffffffffffffffffffffffffffffffffff163373ffffffffffffffffffffffffffffffffffffffff16141561397457fe5b6139b26040518060400160405280600681526020017f706c6179657200000000000000000000000000000000000000000000000000008152506156b5565b613a24576040517f08c379a000000000000000000000000000000000000000000000000000000000815260040180806020018281038252600b8152602001807f4f6e6c7920706c6179657200000000000000000000000000000000000000000081525060200191505060405180910390fd5b613a2c615931565b818173ffffffffffffffffffffffffffffffffffffffff16600760009054906101000a900473ffffffffffffffffffffffffffffffffffffffff1673ffffffffffffffffffffffffffffffffffffffff16636352211e836040518263ffffffff1660e01b81526004018082815260200191505060206040518083038186803b158015613ab757600080fd5b505afa158015613acb573d6000803e3d6000fd5b505050506040513d6020811015613ae157600080fd5b810190808051906020019092919050505073ffffffffffffffffffffffffffffffffffffffff1614613b5e576040517f08c379a00000000000000000000000000000000000000000000000000000000081526004018080602001828103825260248152602001806159e76024913960400191505060405180910390fd5b6000613b68615931565b9050600080600460009054906101000a900473ffffffffffffffffffffffffffffffffffffffff1673ffffffffffffffffffffffffffffffffffffffff1663b8fe6abe6040518163ffffffff1660e01b8152600401604080518083038186803b158015613bd457600080fd5b505afa158015613be8573d6000803e3d6000fd5b505050506040513d6040811015613bfe57600080fd5b81019080805190602001909291908051906020019092919050505091509150600560009054906101000a900473ffffffffffffffffffffffffffffffffffffffff1673ffffffffffffffffffffffffffffffffffffffff1663ecbedebc348585856040518563ffffffff1660e01b8152600401808473ffffffffffffffffffffffffffffffffffffffff1673ffffffffffffffffffffffffffffffffffffffff16815260200183815260200182815260200193505050506020604051808303818588803b158015613cce57600080fd5b505af1158015613ce2573d6000803e3d6000fd5b50505050506040513d6020811015613cf957600080fd5b8101908080519060200190929190505050613d7c576040517f08c379a00000000000000000000000000000000000000000000000000000000081526004018080602001828103825260178152602001807f4e65656420746f20706179206c697374696e672066656500000000000000000081525060200191505060405180910390fd5b6000600360009054906101000a900473ffffffffffffffffffffffffffffffffffffffff1673ffffffffffffffffffffffffffffffffffffffff166337507a0c886040518263ffffffff1660e01b81526004018082815260200191505060206040518083038186803b158015613df157600080fd5b505afa158015613e05573d6000803e3d6000fd5b505050506040513d6020811015613e1b57600080fd5b810190808051906020019092919050505014613e9f576040517f08c379a00000000000000000000000000000000000000000000000000000000081526004018080602001828103825260208152602001807f4b697474696520697320616c726561647920706c6179696e6720612067616d6581525060200191505060405180910390fd5b600660009054906101000a900473ffffffffffffffffffffffffffffffffffffffff1673ffffffffffffffffffffffffffffffffffffffff16636df970c587856040518363ffffffff1660e01b8152600401808381526020018273ffffffffffffffffffffffffffffffffffffffff1673ffffffffffffffffffffffffffffffffffffffff16815260200192505050600060405180830381600087803b158015613f4857600080fd5b505af1158015613f5c573d6000803e3d6000fd5b505050508273ffffffffffffffffffffffffffffffffffffffff16867fda5118e11956b6ccec7a349074d6efada2b70b987d2eabba029de60d8f67b1aa426040518082815260200191505060405180910390a3505050505050565b613fbf61552b565b600073ffffffffffffffffffffffffffffffffffffffff163373ffffffffffffffffffffffffffffffffffffffff161415613ff657fe5b6140346040518060400160405280600b81526020017f73757065725f61646d696e0000000000000000000000000000000000000000008152506156b5565b6140a6576040517f08c379a00000000000000000000000000000000000000000000000000000000081526004018080602001828103825260108152602001807f4f6e6c792073757065722061646d696e0000000000000000000000000000000081525060200191505060405180910390fd5b84838173ffffffffffffffffffffffffffffffffffffffff16600760009054906101000a900473ffffffffffffffffffffffffffffffffffffffff1673ffffffffffffffffffffffffffffffffffffffff16636352211e836040518263ffffffff1660e01b81526004018082815260200191505060206040518083038186803b15801561413257600080fd5b505afa158015614146573d6000803e3d6000fd5b505050506040513d602081101561415c57600080fd5b810190808051906020019092919050505073ffffffffffffffffffffffffffffffffffffffff16146141d9576040517f08c379a00000000000000000000000000000000000000000000000000000000081526004018080602001828103825260248152602001806159e76024913960400191505060405180910390fd5b85848173ffffffffffffffffffffffffffffffffffffffff16600760009054906101000a900473ffffffffffffffffffffffffffffffffffffffff1673ffffffffffffffffffffffffffffffffffffffff16636352211e836040518263ffffffff1660e01b81526004018082815260200191505060206040518083038186803b15801561426557600080fd5b505afa158015614279573d6000803e3d6000fd5b505050506040513d602081101561428f57600080fd5b810190808051906020019092919050505073ffffffffffffffffffffffffffffffffffffffff161461430c576040517f08c379a00000000000000000000000000000000000000000000000000000000081526004018080602001828103825260248152602001806159e76024913960400191505060405180910390fd5b600660009054906101000a900473ffffffffffffffffffffffffffffffffffffffff1673ffffffffffffffffffffffffffffffffffffffff1663c484819d886040518263ffffffff1660e01b81526004018082815260200191505060206040518083038186803b15801561437f57600080fd5b505afa158015614393573d6000803e3d6000fd5b505050506040513d60208110156143a957600080fd5b810190808051906020019092919050505015614410576040517f08c379a0000000000000000000000000000000000000000000000000000000008152600401808060200182810382526026815260200180615a0b6026913960400191505060405180910390fd5b600660009054906101000a900473ffffffffffffffffffffffffffffffffffffffff1673ffffffffffffffffffffffffffffffffffffffff1663c484819d876040518263ffffffff1660e01b81526004018082815260200191505060206040518083038186803b15801561448357600080fd5b505afa158015614497573d6000803e3d6000fd5b505050506040513d60208110156144ad57600080fd5b810190808051906020019092919050505015614514576040517f08c379a0000000000000000000000000000000000000000000000000000000008152600401808060200182810382526026815260200180615a0b6026913960400191505060405180910390fd5b600a60009054906101000a900473ffffffffffffffffffffffffffffffffffffffff1673ffffffffffffffffffffffffffffffffffffffff1663d9adf843888b6040518363ffffffff1660e01b8152600401808381526020018273ffffffffffffffffffffffffffffffffffffffff1673ffffffffffffffffffffffffffffffffffffffff16815260200192505050602060405180830381600087803b1580156145bd57600080fd5b505af11580156145d1573d6000803e3d6000fd5b505050506040513d60208110156145e757600080fd5b810190808051906020019092919050505061460157600080fd5b600a60009054906101000a900473ffffffffffffffffffffffffffffffffffffffff1673ffffffffffffffffffffffffffffffffffffffff1663d9adf843878a6040518363ffffffff1660e01b8152600401808381526020018273ffffffffffffffffffffffffffffffffffffffff1673ffffffffffffffffffffffffffffffffffffffff16815260200192505050602060405180830381600087803b1580156146aa57600080fd5b505af11580156146be573d6000803e3d6000fd5b505050506040513d60208110156146d457600080fd5b81019080805190602001909291905050506146ee57600080fd5b600860009054906101000a900473ffffffffffffffffffffffffffffffffffffffff1673ffffffffffffffffffffffffffffffffffffffff1663477d2e03866040518263ffffffff1660e01b815260040180828152602001915050602060405180830381600087803b15801561476357600080fd5b505af1158015614777573d6000803e3d6000fd5b505050506040513d602081101561478d57600080fd5b81019080805190602001909291905050506147a757600080fd5b8873ffffffffffffffffffffffffffffffffffffffff16877fda5118e11956b6ccec7a349074d6efada2b70b987d2eabba029de60d8f67b1aa426040518082815260200191505060405180910390a38773ffffffffffffffffffffffffffffffffffffffff16867fda5118e11956b6ccec7a349074d6efada2b70b987d2eabba029de60d8f67b1aa426040518082815260200191505060405180910390a36148528989898989614af8565b505050505050505050565b600073ffffffffffffffffffffffffffffffffffffffff16600160009054906101000a900473ffffffffffffffffffffffffffffffffffffffff1673ffffffffffffffffffffffffffffffffffffffff161415614922576040517f08c379a00000000000000000000000000000000000000000000000000000000081526004018080602001828103825260088152602001807f4e6f2050726f787900000000000000000000000000000000000000000000000081525060200191505060405180910390fd5b6000600160009054906101000a900473ffffffffffffffffffffffffffffffffffffffff1673ffffffffffffffffffffffffffffffffffffffff166335817773836040518263ffffffff1660e01b81526004018080602001828103825283818151815260200191508051906020019080838360005b838110156149b2578082015181840152602081019050614997565b50505050905090810190601f1680156149df5780820380516001836020036101000a031916815260200191505b509250505060206040518083038186803b1580156149fc57600080fd5b505afa158015614a10573d6000803e3d6000fd5b505050506040513d6020811015614a2657600080fd5b81019080805190602001909291905050509050600073ffffffffffffffffffffffffffffffffffffffff168173ffffffffffffffffffffffffffffffffffffffff161415614a7057fe5b8073ffffffffffffffffffffffffffffffffffffffff163373ffffffffffffffffffffffffffffffffffffffff1614614af4576040517f08c379a000000000000000000000000000000000000000000000000000000000815260040180806020018281038252602d815260200180615a31602d913960400191505060405180910390fd5b5050565b6000600260009054906101000a900473ffffffffffffffffffffffffffffffffffffffff1673ffffffffffffffffffffffffffffffffffffffff1663a4a0aa5587878787876040518663ffffffff1660e01b8152600401808673ffffffffffffffffffffffffffffffffffffffff1673ffffffffffffffffffffffffffffffffffffffff1681526020018573ffffffffffffffffffffffffffffffffffffffff1673ffffffffffffffffffffffffffffffffffffffff16815260200184815260200183815260200182815260200195505050505050602060405180830381600087803b158015614be757600080fd5b505af1158015614bfb573d6000803e3d6000fd5b505050506040513d6020811015614c1157600080fd5b81019080805190602001909291905050509050600860009054906101000a900473ffffffffffffffffffffffffffffffffffffffff1673ffffffffffffffffffffffffffffffffffffffff16633422476d826040518263ffffffff1660e01b815260040180828152602001915050600060405180830381600087803b158015614c9957600080fd5b505af1158015614cad573d6000803e3d6000fd5b50505050600080600160009054906101000a900473ffffffffffffffffffffffffffffffffffffffff1673ffffffffffffffffffffffffffffffffffffffff1663358177736040518060400160405280601681526020017f486f6e6579706f74416c6c6f636174696f6e416c676f000000000000000000008152506040518263ffffffff1660e01b81526004018080602001828103825283818151815260200191508051906020019080838360005b83811015614d77578082015181840152602081019050614d5c565b50505050905090810190601f168015614da45780820380516001836020036101000a031916815260200191505b509250505060206040518083038186803b158015614dc157600080fd5b505afa158015614dd5573d6000803e3d6000fd5b505050506040513d6020811015614deb57600080fd5b810190808051906020019092919050505073ffffffffffffffffffffffffffffffffffffffff1663f1d4be10846040518263ffffffff1660e01b8152600401808281526020019150506040805180830381600087803b158015614e4d57600080fd5b505af1158015614e61573d6000803e3d6000fd5b505050506040513d6040811015614e7757600080fd5b81019080805190602001909291908051906020019092919050505091509150600260009054906101000a900473ffffffffffffffffffffffffffffffffffffffff1673ffffffffffffffffffffffffffffffffffffffff1663b2b0eb458484846040518463ffffffff1660e01b8152600401808481526020018381526020018281526020019350505050600060405180830381600087803b158015614f1b57600080fd5b505af1158015614f2f573d6000803e3d6000fd5b505050506000600160009054906101000a900473ffffffffffffffffffffffffffffffffffffffff1673ffffffffffffffffffffffffffffffffffffffff1663358177736040518060400160405280600981526020017f54696d654672616d6500000000000000000000000000000000000000000000008152506040518263ffffffff1660e01b81526004018080602001828103825283818151815260200191508051906020019080838360005b83811015614ff8578082015181840152602081019050614fdd565b50505050905090810190601f1680156150255780820380516001836020036101000a031916815260200191505b509250505060206040518083038186803b15801561504257600080fd5b505afa158015615056573d6000803e3d6000fd5b505050506040513d602081101561506c57600080fd5b810190808051906020019092919050505073ffffffffffffffffffffffffffffffffffffffff16630b3fbd5f6040518163ffffffff1660e01b815260040160206040518083038186803b1580156150c257600080fd5b505afa1580156150d6573d6000803e3d6000fd5b505050506040513d60208110156150ec57600080fd5b81019080805190602001909291905050509050600160009054906101000a900473ffffffffffffffffffffffffffffffffffffffff1673ffffffffffffffffffffffffffffffffffffffff1663358177736040518060400160405280600b81526020017f456e646f776d656e7444420000000000000000000000000000000000000000008152506040518263ffffffff1660e01b81526004018080602001828103825283818151815260200191508051906020019080838360005b838110156151c25780820151818401526020810190506151a7565b50505050905090810190601f1680156151ef5780820380516001836020036101000a031916815260200191505b509250505060206040518083038186803b15801561520c57600080fd5b505afa158015615220573d6000803e3d6000fd5b505050506040513d602081101561523657600080fd5b810190808051906020019092919050505073ffffffffffffffffffffffffffffffffffffffff16639db1200b85836040518363ffffffff1660e01b81526004018083815260200182815260200192505050600060405180830381600087803b1580156152a157600080fd5b505af11580156152b5573d6000803e3d6000fd5b50505050600260009054906101000a900473ffffffffffffffffffffffffffffffffffffffff1673ffffffffffffffffffffffffffffffffffffffff1663fd3d1c248789876040518463ffffffff1660e01b8152600401808481526020018381526020018281526020019350505050600060405180830381600087803b15801561533e57600080fd5b505af1158015615352573d6000803e3d6000fd5b50505050600860009054906101000a900473ffffffffffffffffffffffffffffffffffffffff1673ffffffffffffffffffffffffffffffffffffffff16637b179988856040518263ffffffff1660e01b815260040180828152602001915050600060405180830381600087803b1580156153cb57600080fd5b505af11580156153df573d6000803e3d6000fd5b50505050600860009054906101000a900473ffffffffffffffffffffffffffffffffffffffff1673ffffffffffffffffffffffffffffffffffffffff16630c03955f856040518263ffffffff1660e01b815260040180828152602001915050600060405180830381600087803b15801561545857600080fd5b505af115801561546c573d6000803e3d6000fd5b50505050837fc15da047551ef562c7c09ead43c6e8ffd313e0337fa024eba1d156410212a43989888c8b8a604051808673ffffffffffffffffffffffffffffffffffffffff1673ffffffffffffffffffffffffffffffffffffffff1681526020018581526020018473ffffffffffffffffffffffffffffffffffffffff1673ffffffffffffffffffffffffffffffffffffffff1681526020018381526020018281526020019550505050505060405180910390a2505050505050505050565b600073ffffffffffffffffffffffffffffffffffffffff16600160009054906101000a900473ffffffffffffffffffffffffffffffffffffffff1673ffffffffffffffffffffffffffffffffffffffff1614156155f0576040517f08c379a00000000000000000000000000000000000000000000000000000000081526004018080602001828103825260088152602001807f4e6f2050726f787900000000000000000000000000000000000000000000000081525060200191505060405180910390fd5b600160009054906101000a900473ffffffffffffffffffffffffffffffffffffffff1673ffffffffffffffffffffffffffffffffffffffff163373ffffffffffffffffffffffffffffffffffffffff16146156b3576040517f08c379a00000000000000000000000000000000000000000000000000000000081526004018080602001828103825260128152602001807f4f6e6c79207468726f7567682050726f7879000000000000000000000000000081525060200191505060405180910390fd5b565b6000600160009054906101000a900473ffffffffffffffffffffffffffffffffffffffff1673ffffffffffffffffffffffffffffffffffffffff1663358177736040518060400160405280600681526020017f526f6c65444200000000000000000000000000000000000000000000000000008152506040518263ffffffff1660e01b81526004018080602001828103825283818151815260200191508051906020019080838360005b8381101561577a57808201518184015260208101905061575f565b50505050905090810190601f1680156157a75780820380516001836020036101000a031916815260200191505b509250505060206040518083038186803b1580156157c457600080fd5b505afa1580156157d8573d6000803e3d6000fd5b505050506040513d60208110156157ee57600080fd5b810190808051906020019092919050505073ffffffffffffffffffffffffffffffffffffffff16636c9cd09783615823615931565b6040518363ffffffff1660e01b815260040180806020018373ffffffffffffffffffffffffffffffffffffffff1673ffffffffffffffffffffffffffffffffffffffff168152602001828103825284818151815260200191508051906020019080838360005b838110156158a4578082015181840152602081019050615889565b50505050905090810190601f1680156158d15780820380516001836020036101000a031916815260200191505b50935050505060206040518083038186803b1580156158ef57600080fd5b505afa158015615903573d6000803e3d6000fd5b505050506040513d602081101561591957600080fd5b81019080805190602001909291905050509050919050565b6000600160009054906101000a900473ffffffffffffffffffffffffffffffffffffffff1673ffffffffffffffffffffffffffffffffffffffff163373ffffffffffffffffffffffffffffffffffffffff1614615990573390506159e3565b6000601436036000602052601481602c37602051915050600073ffffffffffffffffffffffffffffffffffffffff168173ffffffffffffffffffffffffffffffffffffffff1614156159de57fe5b809150505b9056fe596f7520617265206e6f7420746865206f776e6572206f662074686973206b69747469656669676874657220697320616c7265616479206c697374656420666f72206d61746368696e67416363657373206973206f6e6c7920616c6c6f7765642066726f6d20737065636966696320636f6e7472616374a265627a7a723158202314c1f910ca1db1294a99ab479c2680984a9fbd479f0dcb3353e60aac65c9f164736f6c63430005110032",
  "source": "/**\n * @title GamesManager\n *\n * @author @wafflemakr @karl @vikrammandal\n\n *\n */\n//modifier class (DSAuth )\n//Event class ( DSNote )\n//\n// This program is free software: you can redistribute it and/or modify\n// it under the terms of the GNU General Public License as published by\n// the Free Software Foundation, either version 3 of the License, or\n// (at your option) any later version.\n\n// This program is distributed in the hope that it will be useful,\n// but WITHOUT ANY WARRANTY; without even the implied warranty of\n// MERCHANTABILITY or FITNESS FOR A PARTICULAR PURPOSE.  See the\n// GNU General Public License for more details.\n\n// You should have received a copy of the GNU General Public License\n// along with this program.  If not, see <http://www.gnu.org/licenses/>.\n\npragma solidity ^0.5.5;\n\nimport '../proxy/Proxied.sol';\nimport \"../datetime/TimeFrame.sol\";\nimport \"../databases/EndowmentDB.sol\";\nimport \"../databases/GMSetterDB.sol\";\nimport \"../databases/GMGetterDB.sol\";\nimport \"../../GameVarAndFee.sol\";\nimport \"../endowment/EndowmentFund.sol\";\nimport \"./Scheduler.sol\";\nimport \"../../libs/SafeMath.sol\";\nimport '../../authority/Guard.sol';\nimport \"../../interfaces/IKittyCore.sol\";\nimport \"./GameStore.sol\";\nimport \"./GameManager.sol\";\nimport \"../../CronJob.sol\";\nimport \"./Forfeiter.sol\";\nimport '../kittieHELL/KittieHell.sol';\nimport \"../endowment/HoneypotAllocationAlgo.sol\";\nimport '../endowment/KtyUniswap.sol';\n\ncontract GameCreation is Proxied, Guard {\n    using SafeMath for uint256;\n\n    //Contract Variables\n    GMSetterDB public gmSetterDB;\n    GMGetterDB public gmGetterDB;\n    GameVarAndFee public gameVarAndFee;\n    EndowmentFund public endowmentFund;\n    Scheduler public scheduler;\n    IKittyCore public cryptoKitties;\n    GameStore public gameStore;\n    CronJob public cronJob;\n    KittieHell public kittieHELL;\n\n    //EVENTS\n    event NewGame(uint indexed gameId, address playerBlack, uint kittieBlack, address playerRed, uint kittieRed, uint gameStartTime);\n    event NewListing(uint indexed kittieId, address indexed owner, uint timeListed);\n    event Scheduled(uint indexed jobId, uint jobTime, uint indexed gameId, string job);\n\n    mapping(uint256 => uint256) public cronJobsForGames;\n\n    modifier onlyKittyOwner(address player, uint kittieId) {\n        require(cryptoKitties.ownerOf(kittieId) == player, \"You are not the owner of this kittie\");\n        _;\n    }\n\n    /**\n    * @dev Sets related contracts\n    * @dev Can be called only by the owner of this contract\n    */\n    function initialize() external onlyOwner {\n        gmSetterDB = GMSetterDB(proxy.getContract(CONTRACT_NAME_GM_SETTER_DB));\n        gmGetterDB = GMGetterDB(proxy.getContract(CONTRACT_NAME_GM_GETTER_DB));\n        endowmentFund = EndowmentFund(proxy.getContract(CONTRACT_NAME_ENDOWMENT_FUND));\n        gameVarAndFee = GameVarAndFee(proxy.getContract(CONTRACT_NAME_GAMEVARANDFEE));\n        scheduler = Scheduler(proxy.getContract(CONTRACT_NAME_SCHEDULER));\n        cryptoKitties = IKittyCore(proxy.getContract(CONTRACT_NAME_CRYPTOKITTIES));\n        gameStore = GameStore(proxy.getContract(CONTRACT_NAME_GAMESTORE));\n        cronJob = CronJob(proxy.getContract(CONTRACT_NAME_CRONJOB));\n        kittieHELL = KittieHell(proxy.getContract(CONTRACT_NAME_KITTIEHELL));\n    }\n\n    /**\n     * @dev calculate listing fee dynamically as a percentage of initial honey pot\n     */\n   //function calculateListingFee() public view returns(uint256)\n    //{\n      //  uint256 percentageHoneyPot = gameVarAndFee.getPercentageForListingFee();\n      //  uint256 initialHoneypotEth = gameVarAndFee.getEthPerGame();\n      //  uint256 initialHoneypotKTY = gameVarAndFee.getPercentageJackpotAllocationKTY().mul(gameVarAndFee.getActualFundsKTY());\n      //  return gameStore.calculateDynamicFee(percentageHoneyPot, initialHoneypotEth, initialHoneypotKTY);\n    //}\n\n    /**\n     * @dev Checks and prevents unverified accounts, only accounts with available kitties can list\n     */\n    function listKittie\n    (\n        uint kittieId\n    )\n        external\n        payable\n        onlyProxy onlyPlayer\n        onlyKittyOwner(getOriginalSender(), kittieId) //currently doesKittieBelong is not used, better\n    {\n        address player = getOriginalSender();\n\n        //Pay Listing Fee\n        // get listing fee in Dai\n        (uint etherForListingFeeSwap, uint listingFeeKTY) = gameVarAndFee.getListingFee();\n\n        require(endowmentFund.contributeKTY.value(msg.value)(player, etherForListingFeeSwap, listingFeeKTY), \"Need to pay listing fee\");\n        //endowmentFund.contributeKTY(player, gameVarAndFee.getListingFee());\n\n        require((gmGetterDB.getGameOfKittie(kittieId) == 0), \"Kittie is already playing a game\");\n\n        scheduler.addKittyToList(kittieId, player);\n\n        emit NewListing(kittieId, player, now);\n    }\n\n    /**\n     * @dev Check to make sure the only superADmin can list, Takes in two kittieID's and accounts as well as the jackpot ether and token number.\n     */\n    function manualMatchKitties\n    (\n        address playerRed, address playerBlack,\n        uint256 kittyRed, uint256 kittyBlack,\n        uint gameStartTime\n    )\n        external\n        onlyProxy onlySuperAdmin\n        onlyKittyOwner(playerRed, kittyRed)\n        onlyKittyOwner(playerBlack, kittyBlack)\n    {\n        require(!scheduler.isKittyListedForMatching(kittyRed), \"fighter is already listed for matching\");\n        require(!scheduler.isKittyListedForMatching(kittyBlack), \"fighter is already listed for matching\");\n\n        require(kittieHELL.manualAcquireKitty(kittyRed, playerRed));\n        require(kittieHELL.manualAcquireKitty(kittyBlack, playerBlack));\n\n        require(gameStore.startManually(gameStartTime));\n\n        emit NewListing(kittyRed, playerRed, now);\n        emit NewListing(kittyBlack, playerBlack, now);\n\n        generateFight(playerRed, playerBlack, kittyRed, kittyBlack, gameStartTime);\n    }\n\n    /**\n     * @dev Creates game and generates gameId\n     * @return gameId\n     */\n    function generateFight\n    (\n        address playerRed, address playerBlack,\n        uint256 kittyRed, uint256 kittyBlack,\n        uint gameStartTime\n    )\n        internal\n    {\n        uint256 gameId = gmSetterDB.createGame(\n            playerRed, playerBlack, kittyRed, kittyBlack, gameStartTime);\n        \n        gameStore.lockVars(gameId);\n\n        (uint initialKTY, uint initialEth) = HoneypotAllocationAlgo(proxy.getContract(CONTRACT_NAME_HONEYPOT_ALLOCATION_ALGO)).generateHoneyPot(gameId);\n        gmSetterDB.setHoneypotInfo(gameId, initialKTY, initialEth);\n\n        uint poolId = TimeFrame(proxy.getContract(CONTRACT_NAME_TIMEFRAME)).getActiveEpochID();\n\n        EndowmentDB(proxy.getContract(CONTRACT_NAME_ENDOWMENT_DB)).setPoolIDinGame(gameId, poolId);\n\n        gmSetterDB.updateKittiesGame(kittyBlack, kittyRed, gameId);\n\n        // update ticket fee dynamically as a percentage of initial honeypot size\n        gameStore.updateTicketFee(gameId);\n\n        // update betting fee dynamically as a percentage of initial honeypot size\n        gameStore.updateBettingFee(gameId);\n\n        emit NewGame(gameId, playerBlack, kittyBlack, playerRed, kittyRed, gameStartTime);\n    }\n\n    /**\n     * @dev External function for Scheduler to call\n     * @return gameId\n     */\n    function createFight\n    (\n        address playerRed, address playerBlack,\n        uint256 kittyRed, uint256 kittyBlack,\n        uint gameStartTime\n    )\n        external\n        onlyContract(CONTRACT_NAME_SCHEDULER)\n    {\n        generateFight(playerRed, playerBlack, kittyRed, kittyBlack, gameStartTime);\n    }\n\n    function removeKitties(uint256 gameId)\n        external\n        onlyContract(CONTRACT_NAME_GAMEMANAGER)\n    {\n        ( , ,uint256 kittyBlack, uint256 kittyRed) = gmGetterDB.getGamePlayers(gameId);\n        //Set gameId to 0 to both kitties (not playing any game)\n        gmSetterDB.updateKittiesGame(kittyBlack, kittyRed, 0);\n    }\n\n    function updateKitties(address winner, address loser, uint256 gameId)\n    external\n    onlyContract(CONTRACT_NAME_GAMEMANAGER)\n    {\n        //Release winner's Kittie\n        kittieHELL.releaseKittyGameManager(gmGetterDB.getKittieInGame(gameId, winner));\n\n        //Kill losers's Kittie\n        kittieHELL.killKitty(gmGetterDB.getKittieInGame(gameId, loser), gameId);\n    }\n\n\n    // ==== CRONJOBS FUNCTIONS\n\n    function scheduleJobs(uint256 gameId, uint256 state)\n    external\n    onlyContract(CONTRACT_NAME_GM_SETTER_DB)\n    {\n        if(state == 0){\n            (,uint preStartTime,) = gmGetterDB.getGameTimes(gameId);\n            uint scheduledJob = cronJob.addCronJob(CONTRACT_NAME_GAMECREATION, preStartTime, abi.encodeWithSignature(\"updateGameStateCron(uint256)\", gameId));\n            emit Scheduled(scheduledJob, preStartTime, gameId, \"Change state to 1\");\n            cronJobsForGames[gameId] = scheduledJob;\n        }\n\n        if(state == 1){\n            //If it is PRE_GAME STATE, again, when the job is scheduled (startTime), it should start, as both players press start\n            //So if state did not change we must cancelGame\n            //If they both press start this job is cancelled (In start function of GameManager)\n            (uint startTime,,) = gmGetterDB.getGameTimes(gameId);\n            uint scheduledJob = cronJob.addCronJob(CONTRACT_NAME_GAMECREATION, startTime, abi.encodeWithSignature(\"callForfeiterCron(uint256)\", gameId));\n            emit Scheduled(scheduledJob, startTime, gameId, \"Change state to 2\");\n            cronJobsForGames[gameId] = scheduledJob;\n        }\n        if(state == 2){\n            //If it is MAIN_GAME we endgame immediately\n            //We reschedule this Job if game extends (In checkPerformance of GameManager)\n            (,,uint endTime) = gmGetterDB.getGameTimes(gameId);\n            uint scheduledJob = cronJob.addCronJob(CONTRACT_NAME_GAMECREATION, endTime, abi.encodeWithSignature(\"callGameEndCron(uint256)\", gameId));\n            emit Scheduled(scheduledJob, endTime, gameId, \"Change state to 3\");\n            cronJobsForGames[gameId] = scheduledJob;\n        }\n    }\n\n    \n    function updateGameStateCron(uint256 gameId)\n        external\n        onlyContract(CONTRACT_NAME_CRONJOB)\n    {\n        uint state = gmGetterDB.getGameState(gameId);\n        //Check forfeiter before updating game state\n        Forfeiter(proxy.getContract(CONTRACT_NAME_FORFEITER)).checkGameStatusCron(gameId, state);\n        state = gmGetterDB.getGameState(gameId);\n        if (state == 0) gmSetterDB.updateGameStateCron(gameId);\n    }\n\n    function callForfeiterCron(uint gameId)\n        external\n        onlyContract(CONTRACT_NAME_CRONJOB)\n    {\n        Forfeiter(proxy.getContract(CONTRACT_NAME_FORFEITER)).forfeitCron(gameId, \"Did not hit start\");\n    }\n\n    function callGameEndCron(uint gameId)\n        external\n        onlyContract(CONTRACT_NAME_CRONJOB)\n    {\n        uint state = gmGetterDB.getGameState(gameId);\n        if (state == 2) GameManager(proxy.getContract(CONTRACT_NAME_GAMEMANAGER)).gameEndCron(gameId);\n    }\n\n    function rescheduleCronJob(uint gameId)\n        external\n        onlyContract(CONTRACT_NAME_GAMEMANAGER)\n    {\n        //Reschedule CronJob when more time added\n        uint256 jobId = cronJobsForGames[gameId];\n        (,,uint endTime) = gmGetterDB.getGameTimes(gameId);\n        uint newJobId = cronJob.rescheduleCronJob(CONTRACT_NAME_GAMECREATION, jobId, endTime);\n        emit Scheduled(newJobId, endTime, gameId, \"Change state to 3\");\n        cronJobsForGames[gameId] = newJobId;\n    }\n\n    function deleteCronjob(uint gameId)\n        external\n        onlyContract(CONTRACT_NAME_GAMEMANAGER)\n    {\n        uint256 jobId = cronJobsForGames[gameId];\n        cronJob.deleteCronJob(CONTRACT_NAME_GAMECREATION, jobId);\n    }\n}\n",
  "sourcePath": "/Users/ziweizhang/Desktop/kittiefight-rinkeby4/contracts/contracts/modules/gamemanager/GameCreation.sol",
  "compiler": {
    "name": "solc",
    "version": "0.5.17+commit.d19bba13.Emscripten.clang"
  },
  "schemaVersion": "3.0.23",
  "updatedAt": "2020-06-16T03:58:42.939Z",
  "networkType": "ethereum",
  "devdoc": {
    "methods": {
      "createFight(address,address,uint256,uint256,uint256)": {
        "details": "External function for Scheduler to call",
        "return": "gameId"
      },
      "initialize()": {
        "details": "Sets related contractsCan be called only by the owner of this contract"
      },
      "listKittie(uint256)": {
        "details": "Checks and prevents unverified accounts, only accounts with available kitties can list"
      },
      "manualMatchKitties(address,address,uint256,uint256,uint256)": {
        "details": "Check to make sure the only superADmin can list, Takes in two kittieID's and accounts as well as the jackpot ether and token number."
      }
    }
  },
  "userdoc": {
    "methods": {
      "setProxy(address)": {
        "notice": "Set/update address of Proxy contract"
      }
    }
  }
}