{
  "contractName": "GameVarAndFee",
  "abi": [
    {
      "inputs": [
        {
          "internalType": "contract GenericDB",
          "name": "_genericDB",
          "type": "address"
        },
        {
          "internalType": "contract Medianizer",
          "name": "_medianizer",
          "type": "address"
        }
      ],
      "payable": false,
      "stateMutability": "nonpayable",
      "type": "constructor"
    },
    {
      "constant": true,
      "inputs": [],
      "name": "genericDB",
      "outputs": [
        {
          "internalType": "contract GenericDB",
          "name": "",
          "type": "address"
        }
      ],
      "payable": false,
      "stateMutability": "view",
      "type": "function"
    },
    {
      "constant": true,
      "inputs": [],
      "name": "owner",
      "outputs": [
        {
          "internalType": "address payable",
          "name": "",
          "type": "address"
        }
      ],
      "payable": false,
      "stateMutability": "view",
      "type": "function"
    },
    {
      "constant": true,
      "inputs": [],
      "name": "proxy",
      "outputs": [
        {
          "internalType": "contract ProxyBase",
          "name": "",
          "type": "address"
        }
      ],
      "payable": false,
      "stateMutability": "view",
      "type": "function"
    },
    {
      "constant": false,
      "inputs": [
        {
          "internalType": "contract ProxyBase",
          "name": "_proxy",
          "type": "address"
        }
      ],
      "name": "setProxy",
      "outputs": [],
      "payable": false,
      "stateMutability": "nonpayable",
      "type": "function"
    },
    {
      "constant": false,
      "inputs": [
        {
          "internalType": "address payable",
          "name": "newOwner",
          "type": "address"
        }
      ],
      "name": "transferOwnership",
      "outputs": [],
      "payable": false,
      "stateMutability": "nonpayable",
      "type": "function"
    },
    {
      "constant": false,
      "inputs": [
        {
          "internalType": "contract Medianizer",
          "name": "_medianizer",
          "type": "address"
        }
      ],
      "name": "setMedianizer",
      "outputs": [],
      "payable": false,
      "stateMutability": "nonpayable",
      "type": "function"
    },
    {
      "constant": false,
      "inputs": [
        {
          "internalType": "contract GenericDB",
          "name": "_genericDB",
          "type": "address"
        }
      ],
      "name": "setGenericDB",
      "outputs": [],
      "payable": false,
      "stateMutability": "nonpayable",
      "type": "function"
    },
    {
      "constant": false,
      "inputs": [
        {
          "internalType": "string",
          "name": "varName",
          "type": "string"
        },
        {
          "internalType": "uint256",
          "name": "value",
          "type": "uint256"
        }
      ],
      "name": "setVarAndFee",
      "outputs": [],
      "payable": false,
      "stateMutability": "nonpayable",
      "type": "function"
    },
    {
      "constant": false,
      "inputs": [
        {
          "internalType": "bytes32[]",
          "name": "names",
          "type": "bytes32[]"
        },
        {
          "internalType": "uint256[]",
          "name": "values",
          "type": "uint256[]"
        }
      ],
      "name": "setMultipleValues",
      "outputs": [],
      "payable": false,
      "stateMutability": "nonpayable",
      "type": "function"
    },
    {
      "constant": true,
      "inputs": [],
      "name": "getEthUsdPrice",
      "outputs": [
        {
          "internalType": "uint256",
          "name": "",
          "type": "uint256"
        }
      ],
      "payable": false,
      "stateMutability": "view",
      "type": "function"
    },
    {
      "constant": true,
      "inputs": [],
      "name": "getRequiredNumberMatches",
      "outputs": [
        {
          "internalType": "uint256",
          "name": "",
          "type": "uint256"
        }
      ],
      "payable": false,
      "stateMutability": "view",
      "type": "function"
    },
    {
      "constant": true,
      "inputs": [],
      "name": "getGamePrestart",
      "outputs": [
        {
          "internalType": "uint256",
          "name": "",
          "type": "uint256"
        }
      ],
      "payable": false,
      "stateMutability": "view",
      "type": "function"
    },
    {
      "constant": true,
      "inputs": [],
      "name": "getGameDuration",
      "outputs": [
        {
          "internalType": "uint256",
          "name": "",
          "type": "uint256"
        }
      ],
      "payable": false,
      "stateMutability": "view",
      "type": "function"
    },
    {
      "constant": true,
      "inputs": [],
      "name": "getKittieExpiry",
      "outputs": [
        {
          "internalType": "uint256",
          "name": "",
          "type": "uint256"
        }
      ],
      "payable": false,
      "stateMutability": "view",
      "type": "function"
    },
    {
      "constant": true,
      "inputs": [],
      "name": "getHoneypotExpiration",
      "outputs": [
        {
          "internalType": "uint256",
          "name": "",
          "type": "uint256"
        }
      ],
      "payable": false,
      "stateMutability": "view",
      "type": "function"
    },
    {
      "constant": true,
      "inputs": [],
      "name": "getPercentageHoneypotAllocationKTY",
      "outputs": [
        {
          "internalType": "uint256",
          "name": "",
          "type": "uint256"
        }
      ],
      "payable": false,
      "stateMutability": "view",
      "type": "function"
    },
    {
      "constant": true,
      "inputs": [],
      "name": "getEthPerGame",
      "outputs": [
        {
          "internalType": "uint256",
          "name": "",
          "type": "uint256"
        }
      ],
      "payable": false,
      "stateMutability": "view",
      "type": "function"
    },
    {
      "constant": true,
      "inputs": [],
      "name": "getGameTimes",
      "outputs": [
        {
          "internalType": "uint256",
          "name": "",
          "type": "uint256"
        }
      ],
      "payable": false,
      "stateMutability": "view",
      "type": "function"
    },
    {
      "constant": true,
      "inputs": [],
      "name": "getDistributionRates",
      "outputs": [
        {
          "internalType": "uint256[5]",
          "name": "rates",
          "type": "uint256[5]"
        }
      ],
      "payable": false,
      "stateMutability": "view",
      "type": "function"
    },
    {
      "constant": true,
      "inputs": [],
      "name": "getPercentageForPool",
      "outputs": [
        {
          "internalType": "uint256",
          "name": "",
          "type": "uint256"
        }
      ],
      "payable": false,
      "stateMutability": "view",
      "type": "function"
    },
    {
      "constant": true,
      "inputs": [],
      "name": "getPercentageForListingFee",
      "outputs": [
        {
          "internalType": "uint256",
          "name": "",
          "type": "uint256"
        }
      ],
      "payable": false,
      "stateMutability": "view",
      "type": "function"
    },
    {
      "constant": true,
      "inputs": [],
      "name": "getPercentageForTicketFee",
      "outputs": [
        {
          "internalType": "uint256",
          "name": "",
          "type": "uint256"
        }
      ],
      "payable": false,
      "stateMutability": "view",
      "type": "function"
    },
    {
      "constant": true,
      "inputs": [],
      "name": "getPercentageForBettingFee",
      "outputs": [
        {
          "internalType": "uint256",
          "name": "",
          "type": "uint256"
        }
      ],
      "payable": false,
      "stateMutability": "view",
      "type": "function"
    },
    {
      "constant": true,
      "inputs": [],
      "name": "getPercentageForKittieRedemptionFee",
      "outputs": [
        {
          "internalType": "uint256",
          "name": "",
          "type": "uint256"
        }
      ],
      "payable": false,
      "stateMutability": "view",
      "type": "function"
    },
    {
      "constant": true,
      "inputs": [],
      "name": "getUsdKTYPrice",
      "outputs": [
        {
          "internalType": "uint256",
          "name": "",
          "type": "uint256"
        }
      ],
      "payable": false,
      "stateMutability": "view",
      "type": "function"
    },
    {
      "constant": true,
      "inputs": [],
      "name": "getListingFee",
      "outputs": [
        {
          "internalType": "uint256",
          "name": "",
          "type": "uint256"
        }
      ],
      "payable": false,
      "stateMutability": "view",
      "type": "function"
    },
    {
      "constant": true,
      "inputs": [],
      "name": "getMinimumContributors",
      "outputs": [
        {
          "internalType": "uint256",
          "name": "",
          "type": "uint256"
        }
      ],
      "payable": false,
      "stateMutability": "view",
      "type": "function"
    },
    {
      "constant": true,
      "inputs": [],
      "name": "getFinalizeRewards",
      "outputs": [
        {
          "internalType": "uint256",
          "name": "",
          "type": "uint256"
        }
      ],
      "payable": false,
      "stateMutability": "view",
      "type": "function"
    },
    {
      "constant": true,
      "inputs": [],
      "name": "getPerformanceTimeCheck",
      "outputs": [
        {
          "internalType": "uint256",
          "name": "",
          "type": "uint256"
        }
      ],
      "payable": false,
      "stateMutability": "view",
      "type": "function"
    },
    {
      "constant": true,
      "inputs": [],
      "name": "getTimeExtension",
      "outputs": [
        {
          "internalType": "uint256",
          "name": "",
          "type": "uint256"
        }
      ],
      "payable": false,
      "stateMutability": "view",
      "type": "function"
    },
    {
      "constant": true,
      "inputs": [],
      "name": "getRequiredKittieSacrificeNum",
      "outputs": [
        {
          "internalType": "uint256",
          "name": "",
          "type": "uint256"
        }
      ],
      "payable": false,
      "stateMutability": "view",
      "type": "function"
    },
    {
      "constant": true,
      "inputs": [],
      "name": "getKTYforBurnEthie",
      "outputs": [
        {
          "internalType": "uint256",
          "name": "",
          "type": "uint256"
        }
      ],
      "payable": false,
      "stateMutability": "view",
      "type": "function"
    },
    {
      "constant": true,
      "inputs": [],
      "name": "getInterestEthie",
      "outputs": [
        {
          "internalType": "uint256",
          "name": "",
          "type": "uint256"
        }
      ],
      "payable": false,
      "stateMutability": "view",
      "type": "function"
    }
  ],
  "bytecode": "0x60806040523480156200001157600080fd5b50604051620054a9380380620054a9833981810160405260408110156200003757600080fd5b810190808051906020019092919080519060200190929190505050336000806101000a81548173ffffffffffffffffffffffffffffffffffffffff021916908373ffffffffffffffffffffffffffffffffffffffff160217905550620000a382620000bc60201b60201c565b620000b4816200015760201b60201c565b5050620001f2565b6000809054906101000a900473ffffffffffffffffffffffffffffffffffffffff1673ffffffffffffffffffffffffffffffffffffffff163373ffffffffffffffffffffffffffffffffffffffff16146200011357fe5b80600260006101000a81548173ffffffffffffffffffffffffffffffffffffffff021916908373ffffffffffffffffffffffffffffffffffffffff16021790555050565b6000809054906101000a900473ffffffffffffffffffffffffffffffffffffffff1673ffffffffffffffffffffffffffffffffffffffff163373ffffffffffffffffffffffffffffffffffffffff1614620001ae57fe5b80600360006101000a81548173ffffffffffffffffffffffffffffffffffffffff021916908373ffffffffffffffffffffffffffffffffffffffff16021790555050565b6152a780620002026000396000f3fe608060405234801561001057600080fd5b50600436106101fb5760003560e01c806397107d6d1161011a578063b8fe6abe116100ad578063d693a9891161007c578063d693a98914610729578063e7baf8dd14610747578063ec5568891461078b578063f0e52c42146107d5578063f2fde38b146107f3576101fb565b8063b8fe6abe146106b1578063bd974fae146106cf578063c09ab510146106ed578063c09d32af1461070b576101fb565b8063a38bcf20116100e9578063a38bcf2014610639578063aa7ed99b14610657578063adeaa04414610675578063ae1d48a814610693576101fb565b806397107d6d1461059b5780639840060f146105df5780639c04b9cd146105fd578063a0a8045e1461061b576101fb565b80634afab815116101925780637a10546d116101615780637a10546d146104925780637ba7c3e8146104b05780638da5cb5b1461053357806394ec12fd1461057d576101fb565b80634afab8151461034457806368afa541146103885780636baca86a146103a657806378e9ae6014610474576101fb565b80632e3c5971116101ce5780632e3c59711461027857806333dbee17146102965780633564e78c146102b45780633e4c883f146102fe576101fb565b806311580723146102005780631697e4b61461021e578063271bf40f1461023c5780632c8558a81461025a575b600080fd5b610208610837565b6040518082815260200191505060405180910390f35b610226610a5c565b6040518082815260200191505060405180910390f35b610244610c81565b6040518082815260200191505060405180910390f35b610262610ea6565b6040518082815260200191505060405180910390f35b6102806110cb565b6040518082815260200191505060405180910390f35b61029e6112f0565b6040518082815260200191505060405180910390f35b6102bc611515565b604051808273ffffffffffffffffffffffffffffffffffffffff1673ffffffffffffffffffffffffffffffffffffffff16815260200191505060405180910390f35b61030661153b565b6040518082600560200280838360005b83811015610331578082015181840152602081019050610316565b5050505090500191505060405180910390f35b6103866004803603602081101561035a57600080fd5b81019080803573ffffffffffffffffffffffffffffffffffffffff16906020019092919050505061204a565b005b6103906120e4565b6040518082815260200191505060405180910390f35b610472600480360360408110156103bc57600080fd5b81019080803590602001906401000000008111156103d957600080fd5b8201836020820111156103eb57600080fd5b8035906020019184602083028401116401000000008311171561040d57600080fd5b90919293919293908035906020019064010000000081111561042e57600080fd5b82018360208201111561044057600080fd5b8035906020019184602083028401116401000000008311171561046257600080fd5b9091929391929390505050612309565b005b61047c612691565b6040518082815260200191505060405180910390f35b61049a6128b6565b6040518082815260200191505060405180910390f35b610531600480360360408110156104c657600080fd5b81019080803590602001906401000000008111156104e357600080fd5b8201836020820111156104f557600080fd5b8035906020019184600183028401116401000000008311171561051757600080fd5b909192939192939080359060200190929190505050612adb565b005b61053b612dc3565b604051808273ffffffffffffffffffffffffffffffffffffffff1673ffffffffffffffffffffffffffffffffffffffff16815260200191505060405180910390f35b610585612de8565b6040518082815260200191505060405180910390f35b6105dd600480360360208110156105b157600080fd5b81019080803573ffffffffffffffffffffffffffffffffffffffff16906020019092919050505061300d565b005b6105e76130a7565b6040518082815260200191505060405180910390f35b6106056132cc565b6040518082815260200191505060405180910390f35b6106236134f1565b6040518082815260200191505060405180910390f35b610641613502565b6040518082815260200191505060405180910390f35b61065f613727565b6040518082815260200191505060405180910390f35b61067d61394c565b6040518082815260200191505060405180910390f35b61069b613b71565b6040518082815260200191505060405180910390f35b6106b9613d96565b6040518082815260200191505060405180910390f35b6106d7613fbb565b6040518082815260200191505060405180910390f35b6106f56141e0565b6040518082815260200191505060405180910390f35b610713614405565b6040518082815260200191505060405180910390f35b61073161462a565b6040518082815260200191505060405180910390f35b6107896004803603602081101561075d57600080fd5b81019080803573ffffffffffffffffffffffffffffffffffffffff16906020019092919050505061484f565b005b6107936148e9565b604051808273ffffffffffffffffffffffffffffffffffffffff1673ffffffffffffffffffffffffffffffffffffffff16815260200191505060405180910390f35b6107dd61490f565b6040518082815260200191505060405180910390f35b6108356004803603602081101561080957600080fd5b81019080803573ffffffffffffffffffffffffffffffffffffffff169060200190929190505050614b34565b005b6000600260009054906101000a900473ffffffffffffffffffffffffffffffffffffffff1673ffffffffffffffffffffffffffffffffffffffff166308acb5566040518060400160405280600d81526020017f47616d65566172416e64466565000000000000000000000000000000000000008152506040518060400160405280601281526020017f47616d65566172416e644665655461626c6500000000000000000000000000008152506040516020018082805190602001908083835b6020831061091957805182526020820191506020810190506020830392506108f6565b6001836020036101000a038019825116818451168082178552505050505050905001807f70657263656e74616765466f724c697374696e67466565000000000000000000815250601701915050604051602081830303815290604052805190602001206040518363ffffffff1660e01b81526004018080602001838152602001828103825284818151815260200191508051906020019080838360005b838110156109d15780820151818401526020810190506109b6565b50505050905090810190601f1680156109fe5780820380516001836020036101000a031916815260200191505b50935050505060206040518083038186803b158015610a1c57600080fd5b505afa158015610a30573d6000803e3d6000fd5b505050506040513d6020811015610a4657600080fd5b8101908080519060200190929190505050905090565b6000600260009054906101000a900473ffffffffffffffffffffffffffffffffffffffff1673ffffffffffffffffffffffffffffffffffffffff166308acb5566040518060400160405280600d81526020017f47616d65566172416e64466565000000000000000000000000000000000000008152506040518060400160405280601281526020017f47616d65566172416e644665655461626c6500000000000000000000000000008152506040516020018082805190602001908083835b60208310610b3e5780518252602082019150602081019050602083039250610b1b565b6001836020036101000a038019825116818451168082178552505050505050905001807f706572666f726d616e636554696d650000000000000000000000000000000000815250600f01915050604051602081830303815290604052805190602001206040518363ffffffff1660e01b81526004018080602001838152602001828103825284818151815260200191508051906020019080838360005b83811015610bf6578082015181840152602081019050610bdb565b50505050905090810190601f168015610c235780820380516001836020036101000a031916815260200191505b50935050505060206040518083038186803b158015610c4157600080fd5b505afa158015610c55573d6000803e3d6000fd5b505050506040513d6020811015610c6b57600080fd5b8101908080519060200190929190505050905090565b6000600260009054906101000a900473ffffffffffffffffffffffffffffffffffffffff1673ffffffffffffffffffffffffffffffffffffffff166308acb5566040518060400160405280600d81526020017f47616d65566172416e64466565000000000000000000000000000000000000008152506040518060400160405280601281526020017f47616d65566172416e644665655461626c6500000000000000000000000000008152506040516020018082805190602001908083835b60208310610d635780518252602082019150602081019050602083039250610d40565b6001836020036101000a038019825116818451168082178552505050505050905001807f7573644b54595072696365000000000000000000000000000000000000000000815250600b01915050604051602081830303815290604052805190602001206040518363ffffffff1660e01b81526004018080602001838152602001828103825284818151815260200191508051906020019080838360005b83811015610e1b578082015181840152602081019050610e00565b50505050905090810190601f168015610e485780820380516001836020036101000a031916815260200191505b50935050505060206040518083038186803b158015610e6657600080fd5b505afa158015610e7a573d6000803e3d6000fd5b505050506040513d6020811015610e9057600080fd5b8101908080519060200190929190505050905090565b6000600260009054906101000a900473ffffffffffffffffffffffffffffffffffffffff1673ffffffffffffffffffffffffffffffffffffffff166308acb5566040518060400160405280600d81526020017f47616d65566172416e64466565000000000000000000000000000000000000008152506040518060400160405280601281526020017f47616d65566172416e644665655461626c6500000000000000000000000000008152506040516020018082805190602001908083835b60208310610f885780518252602082019150602081019050602083039250610f65565b6001836020036101000a038019825116818451168082178552505050505050905001807f72657175697265644e756d6265724d6174636865730000000000000000000000815250601501915050604051602081830303815290604052805190602001206040518363ffffffff1660e01b81526004018080602001838152602001828103825284818151815260200191508051906020019080838360005b83811015611040578082015181840152602081019050611025565b50505050905090810190601f16801561106d5780820380516001836020036101000a031916815260200191505b50935050505060206040518083038186803b15801561108b57600080fd5b505afa15801561109f573d6000803e3d6000fd5b505050506040513d60208110156110b557600080fd5b8101908080519060200190929190505050905090565b6000600260009054906101000a900473ffffffffffffffffffffffffffffffffffffffff1673ffffffffffffffffffffffffffffffffffffffff166308acb5566040518060400160405280600d81526020017f47616d65566172416e64466565000000000000000000000000000000000000008152506040518060400160405280601281526020017f47616d65566172416e644665655461626c6500000000000000000000000000008152506040516020018082805190602001908083835b602083106111ad578051825260208201915060208101905060208303925061118a565b6001836020036101000a038019825116818451168082178552505050505050905001807f72657175697265644b69747469655361637269666963654e756d000000000000815250601a01915050604051602081830303815290604052805190602001206040518363ffffffff1660e01b81526004018080602001838152602001828103825284818151815260200191508051906020019080838360005b8381101561126557808201518184015260208101905061124a565b50505050905090810190601f1680156112925780820380516001836020036101000a031916815260200191505b50935050505060206040518083038186803b1580156112b057600080fd5b505afa1580156112c4573d6000803e3d6000fd5b505050506040513d60208110156112da57600080fd5b8101908080519060200190929190505050905090565b6000600260009054906101000a900473ffffffffffffffffffffffffffffffffffffffff1673ffffffffffffffffffffffffffffffffffffffff166308acb5566040518060400160405280600d81526020017f47616d65566172416e64466565000000000000000000000000000000000000008152506040518060400160405280601281526020017f47616d65566172416e644665655461626c6500000000000000000000000000008152506040516020018082805190602001908083835b602083106113d257805182526020820191506020810190506020830392506113af565b6001836020036101000a038019825116818451168082178552505050505050905001807f686f6e6579706f7445787069726174696f6e0000000000000000000000000000815250601201915050604051602081830303815290604052805190602001206040518363ffffffff1660e01b81526004018080602001838152602001828103825284818151815260200191508051906020019080838360005b8381101561148a57808201518184015260208101905061146f565b50505050905090810190601f1680156114b75780820380516001836020036101000a031916815260200191505b50935050505060206040518083038186803b1580156114d557600080fd5b505afa1580156114e9573d6000803e3d6000fd5b505050506040513d60208110156114ff57600080fd5b8101908080519060200190929190505050905090565b600260009054906101000a900473ffffffffffffffffffffffffffffffffffffffff1681565b611543615250565b600260009054906101000a900473ffffffffffffffffffffffffffffffffffffffff1673ffffffffffffffffffffffffffffffffffffffff166308acb5566040518060400160405280600d81526020017f47616d65566172416e64466565000000000000000000000000000000000000008152506040518060400160405280601281526020017f47616d65566172416e644665655461626c6500000000000000000000000000008152506040516020018082805190602001908083835b602083106116235780518252602082019150602081019050602083039250611600565b6001836020036101000a038019825116818451168082178552505050505050905001807f77696e6e696e674b697474696500000000000000000000000000000000000000815250600d01915050604051602081830303815290604052805190602001206040518363ffffffff1660e01b81526004018080602001838152602001828103825284818151815260200191508051906020019080838360005b838110156116db5780820151818401526020810190506116c0565b50505050905090810190601f1680156117085780820380516001836020036101000a031916815260200191505b50935050505060206040518083038186803b15801561172657600080fd5b505afa15801561173a573d6000803e3d6000fd5b505050506040513d602081101561175057600080fd5b81019080805190602001909291905050508160006005811061176e57fe5b602002018181525050600260009054906101000a900473ffffffffffffffffffffffffffffffffffffffff1673ffffffffffffffffffffffffffffffffffffffff166308acb5566040518060400160405280600d81526020017f47616d65566172416e64466565000000000000000000000000000000000000008152506040518060400160405280601281526020017f47616d65566172416e644665655461626c6500000000000000000000000000008152506040516020018082805190602001908083835b602083106118575780518252602082019150602081019050602083039250611834565b6001836020036101000a038019825116818451168082178552505050505050905001807f746f70426574746f720000000000000000000000000000000000000000000000815250600901915050604051602081830303815290604052805190602001206040518363ffffffff1660e01b81526004018080602001838152602001828103825284818151815260200191508051906020019080838360005b8381101561190f5780820151818401526020810190506118f4565b50505050905090810190601f16801561193c5780820380516001836020036101000a031916815260200191505b50935050505060206040518083038186803b15801561195a57600080fd5b505afa15801561196e573d6000803e3d6000fd5b505050506040513d602081101561198457600080fd5b8101908080519060200190929190505050816001600581106119a257fe5b602002018181525050600260009054906101000a900473ffffffffffffffffffffffffffffffffffffffff1673ffffffffffffffffffffffffffffffffffffffff166308acb5566040518060400160405280600d81526020017f47616d65566172416e64466565000000000000000000000000000000000000008152506040518060400160405280601281526020017f47616d65566172416e644665655461626c6500000000000000000000000000008152506040516020018082805190602001908083835b60208310611a8b5780518252602082019150602081019050602083039250611a68565b6001836020036101000a038019825116818451168082178552505050505050905001807f7365636f6e6452756e6e65725570000000000000000000000000000000000000815250600e01915050604051602081830303815290604052805190602001206040518363ffffffff1660e01b81526004018080602001838152602001828103825284818151815260200191508051906020019080838360005b83811015611b43578082015181840152602081019050611b28565b50505050905090810190601f168015611b705780820380516001836020036101000a031916815260200191505b50935050505060206040518083038186803b158015611b8e57600080fd5b505afa158015611ba2573d6000803e3d6000fd5b505050506040513d6020811015611bb857600080fd5b810190808051906020019092919050505081600260058110611bd657fe5b602002018181525050600260009054906101000a900473ffffffffffffffffffffffffffffffffffffffff1673ffffffffffffffffffffffffffffffffffffffff166308acb5566040518060400160405280600d81526020017f47616d65566172416e64466565000000000000000000000000000000000000008152506040518060400160405280601281526020017f47616d65566172416e644665655461626c6500000000000000000000000000008152506040516020018082805190602001908083835b60208310611cbf5780518252602082019150602081019050602083039250611c9c565b6001836020036101000a038019825116818451168082178552505050505050905001807f6f74686572426574746f72730000000000000000000000000000000000000000815250600c01915050604051602081830303815290604052805190602001206040518363ffffffff1660e01b81526004018080602001838152602001828103825284818151815260200191508051906020019080838360005b83811015611d77578082015181840152602081019050611d5c565b50505050905090810190601f168015611da45780820380516001836020036101000a031916815260200191505b50935050505060206040518083038186803b158015611dc257600080fd5b505afa158015611dd6573d6000803e3d6000fd5b505050506040513d6020811015611dec57600080fd5b810190808051906020019092919050505081600360058110611e0a57fe5b602002018181525050600260009054906101000a900473ffffffffffffffffffffffffffffffffffffffff1673ffffffffffffffffffffffffffffffffffffffff166308acb5566040518060400160405280600d81526020017f47616d65566172416e64466565000000000000000000000000000000000000008152506040518060400160405280601281526020017f47616d65566172416e644665655461626c6500000000000000000000000000008152506040516020018082805190602001908083835b60208310611ef35780518252602082019150602081019050602083039250611ed0565b6001836020036101000a038019825116818451168082178552505050505050905001807f656e646f776e6d656e7400000000000000000000000000000000000000000000815250600a01915050604051602081830303815290604052805190602001206040518363ffffffff1660e01b81526004018080602001838152602001828103825284818151815260200191508051906020019080838360005b83811015611fab578082015181840152602081019050611f90565b50505050905090810190601f168015611fd85780820380516001836020036101000a031916815260200191505b50935050505060206040518083038186803b158015611ff657600080fd5b505afa15801561200a573d6000803e3d6000fd5b505050506040513d602081101561202057600080fd5b81019080805190602001909291905050508160046005811061203e57fe5b60200201818152505090565b6000809054906101000a900473ffffffffffffffffffffffffffffffffffffffff1673ffffffffffffffffffffffffffffffffffffffff163373ffffffffffffffffffffffffffffffffffffffff16146120a057fe5b80600260006101000a81548173ffffffffffffffffffffffffffffffffffffffff021916908373ffffffffffffffffffffffffffffffffffffffff16021790555050565b6000600260009054906101000a900473ffffffffffffffffffffffffffffffffffffffff1673ffffffffffffffffffffffffffffffffffffffff166308acb5566040518060400160405280600d81526020017f47616d65566172416e64466565000000000000000000000000000000000000008152506040518060400160405280601281526020017f47616d65566172416e644665655461626c6500000000000000000000000000008152506040516020018082805190602001908083835b602083106121c657805182526020820191506020810190506020830392506121a3565b6001836020036101000a038019825116818451168082178552505050505050905001807f6d696e696d756d436f6e7472696275746f727300000000000000000000000000815250601301915050604051602081830303815290604052805190602001206040518363ffffffff1660e01b81526004018080602001838152602001828103825284818151815260200191508051906020019080838360005b8381101561227e578082015181840152602081019050612263565b50505050905090810190601f1680156122ab5780820380516001836020036101000a031916815260200191505b50935050505060206040518083038186803b1580156122c957600080fd5b505afa1580156122dd573d6000803e3d6000fd5b505050506040513d60208110156122f357600080fd5b8101908080519060200190929190505050905090565b612311614c02565b600073ffffffffffffffffffffffffffffffffffffffff163373ffffffffffffffffffffffffffffffffffffffff16141561234857fe5b6123866040518060400160405280600b81526020017f73757065725f61646d696e000000000000000000000000000000000000000000815250614d8c565b6123f8576040517f08c379a00000000000000000000000000000000000000000000000000000000081526004018080602001828103825260108152602001807f4f6e6c792073757065722061646d696e0000000000000000000000000000000081525060200191505060405180910390fd5b81819050848490501461240a57600080fd5b600080600090505b85859050811015612689576040518060400160405280601281526020017f47616d65566172416e644665655461626c65000000000000000000000000000081525061246e87878481811061246257fe5b90506020020135615008565b6040516020018083805190602001908083835b602083106124a45780518252602082019150602081019050602083039250612481565b6001836020036101000a03801982511681845116808217855250505050505090500182805190602001908083835b602083106124f557805182526020820191506020810190506020830392506124d2565b6001836020036101000a03801982511681845116808217855250505050505090500192505050604051602081830303815290604052805190602001209150600260009054906101000a900473ffffffffffffffffffffffffffffffffffffffff1673ffffffffffffffffffffffffffffffffffffffff16630214a37c6040518060400160405280600d81526020017f47616d65566172416e6446656500000000000000000000000000000000000000815250848787868181106125b457fe5b905060200201356040518463ffffffff1660e01b81526004018080602001848152602001838152602001828103825285818151815260200191508051906020019080838360005b838110156126165780820151818401526020810190506125fb565b50505050905090810190601f1680156126435780820380516001836020036101000a031916815260200191505b50945050505050600060405180830381600087803b15801561266457600080fd5b505af1158015612678573d6000803e3d6000fd5b505050508080600101915050612412565b505050505050565b6000600260009054906101000a900473ffffffffffffffffffffffffffffffffffffffff1673ffffffffffffffffffffffffffffffffffffffff166308acb5566040518060400160405280600d81526020017f47616d65566172416e64466565000000000000000000000000000000000000008152506040518060400160405280601281526020017f47616d65566172416e644665655461626c6500000000000000000000000000008152506040516020018082805190602001908083835b602083106127735780518252602082019150602081019050602083039250612750565b6001836020036101000a038019825116818451168082178552505050505050905001807f67616d654475726174696f6e0000000000000000000000000000000000000000815250600c01915050604051602081830303815290604052805190602001206040518363ffffffff1660e01b81526004018080602001838152602001828103825284818151815260200191508051906020019080838360005b8381101561282b578082015181840152602081019050612810565b50505050905090810190601f1680156128585780820380516001836020036101000a031916815260200191505b50935050505060206040518083038186803b15801561287657600080fd5b505afa15801561288a573d6000803e3d6000fd5b505050506040513d60208110156128a057600080fd5b8101908080519060200190929190505050905090565b6000600260009054906101000a900473ffffffffffffffffffffffffffffffffffffffff1673ffffffffffffffffffffffffffffffffffffffff166308acb5566040518060400160405280600d81526020017f47616d65566172416e64466565000000000000000000000000000000000000008152506040518060400160405280601281526020017f47616d65566172416e644665655461626c6500000000000000000000000000008152506040516020018082805190602001908083835b602083106129985780518252602082019150602081019050602083039250612975565b6001836020036101000a038019825116818451168082178552505050505050905001807f70657263656e74616765466f724b6974746965526564656d7074696f6e466565815250602001915050604051602081830303815290604052805190602001206040518363ffffffff1660e01b81526004018080602001838152602001828103825284818151815260200191508051906020019080838360005b83811015612a50578082015181840152602081019050612a35565b50505050905090810190601f168015612a7d5780820380516001836020036101000a031916815260200191505b50935050505060206040518083038186803b158015612a9b57600080fd5b505afa158015612aaf573d6000803e3d6000fd5b505050506040513d6020811015612ac557600080fd5b8101908080519060200190929190505050905090565b612ae3614c02565b600073ffffffffffffffffffffffffffffffffffffffff163373ffffffffffffffffffffffffffffffffffffffff161415612b1a57fe5b612b586040518060400160405280600b81526020017f73757065725f61646d696e000000000000000000000000000000000000000000815250614d8c565b612bca576040517f08c379a00000000000000000000000000000000000000000000000000000000081526004018080602001828103825260108152602001807f4f6e6c792073757065722061646d696e0000000000000000000000000000000081525060200191505060405180910390fd5b60006040518060400160405280601281526020017f47616d65566172416e644665655461626c65000000000000000000000000000081525084846040516020018084805190602001908083835b60208310612c3a5780518252602082019150602081019050602083039250612c17565b6001836020036101000a038019825116818451168082178552505050505050905001838380828437808301925050509350505050604051602081830303815290604052805190602001209050600260009054906101000a900473ffffffffffffffffffffffffffffffffffffffff1673ffffffffffffffffffffffffffffffffffffffff16630214a37c6040518060400160405280600d81526020017f47616d65566172416e644665650000000000000000000000000000000000000081525083856040518463ffffffff1660e01b81526004018080602001848152602001838152602001828103825285818151815260200191508051906020019080838360005b83811015612d57578082015181840152602081019050612d3c565b50505050905090810190601f168015612d845780820380516001836020036101000a031916815260200191505b50945050505050600060405180830381600087803b158015612da557600080fd5b505af1158015612db9573d6000803e3d6000fd5b5050505050505050565b6000809054906101000a900473ffffffffffffffffffffffffffffffffffffffff1681565b6000600260009054906101000a900473ffffffffffffffffffffffffffffffffffffffff1673ffffffffffffffffffffffffffffffffffffffff166308acb5566040518060400160405280600d81526020017f47616d65566172416e64466565000000000000000000000000000000000000008152506040518060400160405280601281526020017f47616d65566172416e644665655461626c6500000000000000000000000000008152506040516020018082805190602001908083835b60208310612eca5780518252602082019150602081019050602083039250612ea7565b6001836020036101000a038019825116818451168082178552505050505050905001807f65746850657247616d6500000000000000000000000000000000000000000000815250600a01915050604051602081830303815290604052805190602001206040518363ffffffff1660e01b81526004018080602001838152602001828103825284818151815260200191508051906020019080838360005b83811015612f82578082015181840152602081019050612f67565b50505050905090810190601f168015612faf5780820380516001836020036101000a031916815260200191505b50935050505060206040518083038186803b158015612fcd57600080fd5b505afa158015612fe1573d6000803e3d6000fd5b505050506040513d6020811015612ff757600080fd5b8101908080519060200190929190505050905090565b6000809054906101000a900473ffffffffffffffffffffffffffffffffffffffff1673ffffffffffffffffffffffffffffffffffffffff163373ffffffffffffffffffffffffffffffffffffffff161461306357fe5b80600160006101000a81548173ffffffffffffffffffffffffffffffffffffffff021916908373ffffffffffffffffffffffffffffffffffffffff16021790555050565b6000600260009054906101000a900473ffffffffffffffffffffffffffffffffffffffff1673ffffffffffffffffffffffffffffffffffffffff166308acb5566040518060400160405280600d81526020017f47616d65566172416e64466565000000000000000000000000000000000000008152506040518060400160405280601281526020017f47616d65566172416e644665655461626c6500000000000000000000000000008152506040516020018082805190602001908083835b602083106131895780518252602082019150602081019050602083039250613166565b6001836020036101000a038019825116818451168082178552505050505050905001807f6b697474696548656c6c45787069726174696f6e000000000000000000000000815250601401915050604051602081830303815290604052805190602001206040518363ffffffff1660e01b81526004018080602001838152602001828103825284818151815260200191508051906020019080838360005b83811015613241578082015181840152602081019050613226565b50505050905090810190601f16801561326e5780820380516001836020036101000a031916815260200191505b50935050505060206040518083038186803b15801561328c57600080fd5b505afa1580156132a0573d6000803e3d6000fd5b505050506040513d60208110156132b657600080fd5b8101908080519060200190929190505050905090565b6000600260009054906101000a900473ffffffffffffffffffffffffffffffffffffffff1673ffffffffffffffffffffffffffffffffffffffff166308acb5566040518060400160405280600d81526020017f47616d65566172416e64466565000000000000000000000000000000000000008152506040518060400160405280601281526020017f47616d65566172416e644665655461626c6500000000000000000000000000008152506040516020018082805190602001908083835b602083106133ae578051825260208201915060208101905060208303925061338b565b6001836020036101000a038019825116818451168082178552505050505050905001807f70657263656e74616765466f725469636b657446656500000000000000000000815250601601915050604051602081830303815290604052805190602001206040518363ffffffff1660e01b81526004018080602001838152602001828103825284818151815260200191508051906020019080838360005b8381101561346657808201518184015260208101905061344b565b50505050905090810190601f1680156134935780820380516001836020036101000a031916815260200191505b50935050505060206040518083038186803b1580156134b157600080fd5b505afa1580156134c5573d6000803e3d6000fd5b505050506040513d60208110156134db57600080fd5b8101908080519060200190929190505050905090565b6000680b49bcb0036fa6c000905090565b6000600260009054906101000a900473ffffffffffffffffffffffffffffffffffffffff1673ffffffffffffffffffffffffffffffffffffffff166308acb5566040518060400160405280600d81526020017f47616d65566172416e64466565000000000000000000000000000000000000008152506040518060400160405280601281526020017f47616d65566172416e644665655461626c6500000000000000000000000000008152506040516020018082805190602001908083835b602083106135e457805182526020820191506020810190506020830392506135c1565b6001836020036101000a038019825116818451168082178552505050505050905001807f67616d6554696d65730000000000000000000000000000000000000000000000815250600901915050604051602081830303815290604052805190602001206040518363ffffffff1660e01b81526004018080602001838152602001828103825284818151815260200191508051906020019080838360005b8381101561369c578082015181840152602081019050613681565b50505050905090810190601f1680156136c95780820380516001836020036101000a031916815260200191505b50935050505060206040518083038186803b1580156136e757600080fd5b505afa1580156136fb573d6000803e3d6000fd5b505050506040513d602081101561371157600080fd5b8101908080519060200190929190505050905090565b6000600260009054906101000a900473ffffffffffffffffffffffffffffffffffffffff1673ffffffffffffffffffffffffffffffffffffffff166308acb5566040518060400160405280600d81526020017f47616d65566172416e64466565000000000000000000000000000000000000008152506040518060400160405280601281526020017f47616d65566172416e644665655461626c6500000000000000000000000000008152506040516020018082805190602001908083835b6020831061380957805182526020820191506020810190506020830392506137e6565b6001836020036101000a038019825116818451168082178552505050505050905001807f70657263656e74616765466f72506f6f6c000000000000000000000000000000815250601101915050604051602081830303815290604052805190602001206040518363ffffffff1660e01b81526004018080602001838152602001828103825284818151815260200191508051906020019080838360005b838110156138c15780820151818401526020810190506138a6565b50505050905090810190601f1680156138ee5780820380516001836020036101000a031916815260200191505b50935050505060206040518083038186803b15801561390c57600080fd5b505afa158015613920573d6000803e3d6000fd5b505050506040513d602081101561393657600080fd5b8101908080519060200190929190505050905090565b6000600260009054906101000a900473ffffffffffffffffffffffffffffffffffffffff1673ffffffffffffffffffffffffffffffffffffffff166308acb5566040518060400160405280600d81526020017f47616d65566172416e64466565000000000000000000000000000000000000008152506040518060400160405280601281526020017f47616d65566172416e644665655461626c6500000000000000000000000000008152506040516020018082805190602001908083835b60208310613a2e5780518252602082019150602081019050602083039250613a0b565b6001836020036101000a038019825116818451168082178552505050505050905001807f696e746572657374457468696500000000000000000000000000000000000000815250600d01915050604051602081830303815290604052805190602001206040518363ffffffff1660e01b81526004018080602001838152602001828103825284818151815260200191508051906020019080838360005b83811015613ae6578082015181840152602081019050613acb565b50505050905090810190601f168015613b135780820380516001836020036101000a031916815260200191505b50935050505060206040518083038186803b158015613b3157600080fd5b505afa158015613b45573d6000803e3d6000fd5b505050506040513d6020811015613b5b57600080fd5b8101908080519060200190929190505050905090565b6000600260009054906101000a900473ffffffffffffffffffffffffffffffffffffffff1673ffffffffffffffffffffffffffffffffffffffff166308acb5566040518060400160405280600d81526020017f47616d65566172416e64466565000000000000000000000000000000000000008152506040518060400160405280601281526020017f47616d65566172416e644665655461626c6500000000000000000000000000008152506040516020018082805190602001908083835b60208310613c535780518252602082019150602081019050602083039250613c30565b6001836020036101000a038019825116818451168082178552505050505050905001807f74696d65457874656e73696f6e00000000000000000000000000000000000000815250600d01915050604051602081830303815290604052805190602001206040518363ffffffff1660e01b81526004018080602001838152602001828103825284818151815260200191508051906020019080838360005b83811015613d0b578082015181840152602081019050613cf0565b50505050905090810190601f168015613d385780820380516001836020036101000a031916815260200191505b50935050505060206040518083038186803b158015613d5657600080fd5b505afa158015613d6a573d6000803e3d6000fd5b505050506040513d6020811015613d8057600080fd5b8101908080519060200190929190505050905090565b6000600260009054906101000a900473ffffffffffffffffffffffffffffffffffffffff1673ffffffffffffffffffffffffffffffffffffffff166308acb5566040518060400160405280600d81526020017f47616d65566172416e64466565000000000000000000000000000000000000008152506040518060400160405280601281526020017f47616d65566172416e644665655461626c6500000000000000000000000000008152506040516020018082805190602001908083835b60208310613e785780518252602082019150602081019050602083039250613e55565b6001836020036101000a038019825116818451168082178552505050505050905001807f6c697374696e6746656500000000000000000000000000000000000000000000815250600a01915050604051602081830303815290604052805190602001206040518363ffffffff1660e01b81526004018080602001838152602001828103825284818151815260200191508051906020019080838360005b83811015613f30578082015181840152602081019050613f15565b50505050905090810190601f168015613f5d5780820380516001836020036101000a031916815260200191505b50935050505060206040518083038186803b158015613f7b57600080fd5b505afa158015613f8f573d6000803e3d6000fd5b505050506040513d6020811015613fa557600080fd5b8101908080519060200190929190505050905090565b6000600260009054906101000a900473ffffffffffffffffffffffffffffffffffffffff1673ffffffffffffffffffffffffffffffffffffffff166308acb5566040518060400160405280600d81526020017f47616d65566172416e64466565000000000000000000000000000000000000008152506040518060400160405280601281526020017f47616d65566172416e644665655461626c6500000000000000000000000000008152506040516020018082805190602001908083835b6020831061409d578051825260208201915060208101905060208303925061407a565b6001836020036101000a038019825116818451168082178552505050505050905001807f6b7479466f724275726e45746869650000000000000000000000000000000000815250600f01915050604051602081830303815290604052805190602001206040518363ffffffff1660e01b81526004018080602001838152602001828103825284818151815260200191508051906020019080838360005b8381101561415557808201518184015260208101905061413a565b50505050905090810190601f1680156141825780820380516001836020036101000a031916815260200191505b50935050505060206040518083038186803b1580156141a057600080fd5b505afa1580156141b4573d6000803e3d6000fd5b505050506040513d60208110156141ca57600080fd5b8101908080519060200190929190505050905090565b6000600260009054906101000a900473ffffffffffffffffffffffffffffffffffffffff1673ffffffffffffffffffffffffffffffffffffffff166308acb5566040518060400160405280600d81526020017f47616d65566172416e64466565000000000000000000000000000000000000008152506040518060400160405280601281526020017f47616d65566172416e644665655461626c6500000000000000000000000000008152506040516020018082805190602001908083835b602083106142c2578051825260208201915060208101905060208303925061429f565b6001836020036101000a038019825116818451168082178552505050505050905001807f67616d6550726573746172740000000000000000000000000000000000000000815250600c01915050604051602081830303815290604052805190602001206040518363ffffffff1660e01b81526004018080602001838152602001828103825284818151815260200191508051906020019080838360005b8381101561437a57808201518184015260208101905061435f565b50505050905090810190601f1680156143a75780820380516001836020036101000a031916815260200191505b50935050505060206040518083038186803b1580156143c557600080fd5b505afa1580156143d9573d6000803e3d6000fd5b505050506040513d60208110156143ef57600080fd5b8101908080519060200190929190505050905090565b6000600260009054906101000a900473ffffffffffffffffffffffffffffffffffffffff1673ffffffffffffffffffffffffffffffffffffffff166308acb5566040518060400160405280600d81526020017f47616d65566172416e64466565000000000000000000000000000000000000008152506040518060400160405280601281526020017f47616d65566172416e644665655461626c6500000000000000000000000000008152506040516020018082805190602001908083835b602083106144e757805182526020820191506020810190506020830392506144c4565b6001836020036101000a038019825116818451168082178552505050505050905001807f70657263656e74616765486f6e6579706f74416c6c6f636174696f6e4b545900815250601f01915050604051602081830303815290604052805190602001206040518363ffffffff1660e01b81526004018080602001838152602001828103825284818151815260200191508051906020019080838360005b8381101561459f578082015181840152602081019050614584565b50505050905090810190601f1680156145cc5780820380516001836020036101000a031916815260200191505b50935050505060206040518083038186803b1580156145ea57600080fd5b505afa1580156145fe573d6000803e3d6000fd5b505050506040513d602081101561461457600080fd5b8101908080519060200190929190505050905090565b6000600260009054906101000a900473ffffffffffffffffffffffffffffffffffffffff1673ffffffffffffffffffffffffffffffffffffffff166308acb5566040518060400160405280600d81526020017f47616d65566172416e64466565000000000000000000000000000000000000008152506040518060400160405280601281526020017f47616d65566172416e644665655461626c6500000000000000000000000000008152506040516020018082805190602001908083835b6020831061470c57805182526020820191506020810190506020830392506146e9565b6001836020036101000a038019825116818451168082178552505050505050905001807f66696e616c697a65526577617264730000000000000000000000000000000000815250600f01915050604051602081830303815290604052805190602001206040518363ffffffff1660e01b81526004018080602001838152602001828103825284818151815260200191508051906020019080838360005b838110156147c45780820151818401526020810190506147a9565b50505050905090810190601f1680156147f15780820380516001836020036101000a031916815260200191505b50935050505060206040518083038186803b15801561480f57600080fd5b505afa158015614823573d6000803e3d6000fd5b505050506040513d602081101561483957600080fd5b8101908080519060200190929190505050905090565b6000809054906101000a900473ffffffffffffffffffffffffffffffffffffffff1673ffffffffffffffffffffffffffffffffffffffff163373ffffffffffffffffffffffffffffffffffffffff16146148a557fe5b80600360006101000a81548173ffffffffffffffffffffffffffffffffffffffff021916908373ffffffffffffffffffffffffffffffffffffffff16021790555050565b600160009054906101000a900473ffffffffffffffffffffffffffffffffffffffff1681565b6000600260009054906101000a900473ffffffffffffffffffffffffffffffffffffffff1673ffffffffffffffffffffffffffffffffffffffff166308acb5566040518060400160405280600d81526020017f47616d65566172416e64466565000000000000000000000000000000000000008152506040518060400160405280601281526020017f47616d65566172416e644665655461626c6500000000000000000000000000008152506040516020018082805190602001908083835b602083106149f157805182526020820191506020810190506020830392506149ce565b6001836020036101000a038019825116818451168082178552505050505050905001807f70657263656e74616765466f7242657474696e67466565000000000000000000815250601701915050604051602081830303815290604052805190602001206040518363ffffffff1660e01b81526004018080602001838152602001828103825284818151815260200191508051906020019080838360005b83811015614aa9578082015181840152602081019050614a8e565b50505050905090810190601f168015614ad65780820380516001836020036101000a031916815260200191505b50935050505060206040518083038186803b158015614af457600080fd5b505afa158015614b08573d6000803e3d6000fd5b505050506040513d6020811015614b1e57600080fd5b8101908080519060200190929190505050905090565b6000809054906101000a900473ffffffffffffffffffffffffffffffffffffffff1673ffffffffffffffffffffffffffffffffffffffff163373ffffffffffffffffffffffffffffffffffffffff1614614b8a57fe5b600073ffffffffffffffffffffffffffffffffffffffff168173ffffffffffffffffffffffffffffffffffffffff1614614bff57806000806101000a81548173ffffffffffffffffffffffffffffffffffffffff021916908373ffffffffffffffffffffffffffffffffffffffff1602179055505b50565b600073ffffffffffffffffffffffffffffffffffffffff16600160009054906101000a900473ffffffffffffffffffffffffffffffffffffffff1673ffffffffffffffffffffffffffffffffffffffff161415614cc7576040517f08c379a00000000000000000000000000000000000000000000000000000000081526004018080602001828103825260088152602001807f4e6f2050726f787900000000000000000000000000000000000000000000000081525060200191505060405180910390fd5b600160009054906101000a900473ffffffffffffffffffffffffffffffffffffffff1673ffffffffffffffffffffffffffffffffffffffff163373ffffffffffffffffffffffffffffffffffffffff1614614d8a576040517f08c379a00000000000000000000000000000000000000000000000000000000081526004018080602001828103825260128152602001807f4f6e6c79207468726f7567682050726f7879000000000000000000000000000081525060200191505060405180910390fd5b565b6000600160009054906101000a900473ffffffffffffffffffffffffffffffffffffffff1673ffffffffffffffffffffffffffffffffffffffff1663358177736040518060400160405280600681526020017f526f6c65444200000000000000000000000000000000000000000000000000008152506040518263ffffffff1660e01b81526004018080602001828103825283818151815260200191508051906020019080838360005b83811015614e51578082015181840152602081019050614e36565b50505050905090810190601f168015614e7e5780820380516001836020036101000a031916815260200191505b509250505060206040518083038186803b158015614e9b57600080fd5b505afa158015614eaf573d6000803e3d6000fd5b505050506040513d6020811015614ec557600080fd5b810190808051906020019092919050505073ffffffffffffffffffffffffffffffffffffffff16636c9cd09783614efa61519b565b6040518363ffffffff1660e01b815260040180806020018373ffffffffffffffffffffffffffffffffffffffff1673ffffffffffffffffffffffffffffffffffffffff168152602001828103825284818151815260200191508051906020019080838360005b83811015614f7b578082015181840152602081019050614f60565b50505050905090810190601f168015614fa85780820380516001836020036101000a031916815260200191505b50935050505060206040518083038186803b158015614fc657600080fd5b505afa158015614fda573d6000803e3d6000fd5b505050506040513d6020811015614ff057600080fd5b81019080805190602001909291905050509050919050565b60608060206040519080825280601f01601f19166020018201604052801561503f5781602001600182028038833980820191505090505b509050600080905060008090505b60208110156150e95760008160080260020a8660001c0260001b9050600060f81b817effffffffffffffffffffffffffffffffffffffffffffffffffffffffffffff1916146150db57808484815181106150a357fe5b60200101907effffffffffffffffffffffffffffffffffffffffffffffffffffffffffffff1916908160001a90535082806001019350505b50808060010191505061504d565b506060816040519080825280601f01601f19166020018201604052801561511f5781602001600182028038833980820191505090505b50905060008090505b8281101561518f5783818151811061513c57fe5b602001015160f81c60f81b82828151811061515357fe5b60200101907effffffffffffffffffffffffffffffffffffffffffffffffffffffffffffff1916908160001a9053508080600101915050615128565b50809350505050919050565b6000600160009054906101000a900473ffffffffffffffffffffffffffffffffffffffff1673ffffffffffffffffffffffffffffffffffffffff163373ffffffffffffffffffffffffffffffffffffffff16146151fa5733905061524d565b6000601436036000602052601481602c37602051915050600073ffffffffffffffffffffffffffffffffffffffff168173ffffffffffffffffffffffffffffffffffffffff16141561524857fe5b809150505b90565b6040518060a0016040528060059060208202803883398082019150509050509056fea265627a7a72315820d47ce26dd13157a564920faba4ea0d38ce02724c5a21862c9483d5673e89c1c664736f6c63430005110032",
  "source": "/**\r\n * @title GameVarAndFee\r\n *\r\n * @author @wafflemakr @hamaad\r\n *\r\n */\r\n//modifier class (DSAuth )\r\n//Event class ( DSNote )\r\n//\r\n// This program is free software: you can redistribute it and/or modify\r\n// it under the terms of the GNU General Public License as published by\r\n// the Free Software Foundation, either version 3 of the License, or\r\n// (at your option) any later version.\r\n\r\n// This program is distributed in the hope that it will be useful,\r\n// but WITHOUT ANY WARRANTY; without even the implied warranty of\r\n// MERCHANTABILITY or FITNESS FOR A PARTICULAR PURPOSE.  See the\r\n// GNU General Public License for more details.\r\n\r\n// You should have received a copy of the GNU General Public License\r\n// along with this program.  If not, see <http://www.gnu.org/licenses/>.\r\n\r\npragma solidity ^0.5.5;\r\n// pragma experimental ABIEncoderV2;\r\n\r\nimport './modules/databases/RoleDB.sol';\r\nimport './modules/databases/GenericDB.sol';\r\nimport \"./modules/proxy/Proxied.sol\";\r\nimport \"./authority/Guard.sol\";\r\nimport './misc/VarAndFeeNames.sol';\r\n\r\n/// @dev MakerDao eth-usd price medianizer\r\ncontract Medianizer {\r\n    function read() external view returns (bytes32);\r\n}\r\n\r\n/**\r\n * @title Contract that moderates the various fees, timing limits, expiry date/time,\r\n * schedules, eth allocation per game, token allocation per game, kittiehell\r\n * kittie expiration, time durations, distribution percentages e.t.c.\r\n * The note modifier will log event for each function call.\r\n * @dev One setter that is called from GameVarAndFeeProxy contract setters\r\n */\r\ncontract GameVarAndFee is Proxied, Guard, VarAndFeeNames {\r\n\r\n    string constant TABLE_NAME = \"GameVarAndFeeTable\";\r\n\r\n    // Declare DB type variable\r\n    GenericDB public genericDB;\r\n    Medianizer medianizer;\r\n\r\n    /// @notice Function called when deployed\r\n    /// @param _genericDB Address of deployed GeneriDB contract\r\n    constructor (GenericDB _genericDB, Medianizer _medianizer) public {\r\n        setGenericDB(_genericDB);\r\n        setMedianizer(_medianizer);\r\n    }\r\n\r\n    // kovanMedianizer = 0xA944bd4b25C9F186A846fd5668941AA3d3B8425F\r\n    // mainnetMedianizer = 0x729D19f657BD0614b4985Cf1D82531c67569197B\r\n    function setMedianizer(Medianizer _medianizer) public onlyOwner{\r\n       medianizer = Medianizer(_medianizer);\r\n    }\r\n\r\n    /// @notice Set genericDB variable to store data in contract\r\n    function setGenericDB(GenericDB _genericDB) public onlyOwner {\r\n        genericDB = _genericDB;\r\n    }\r\n\r\n    // ----- SETTERS ------\r\n\r\n    /// @dev set one variable at a time\r\n    function setVarAndFee(string calldata varName, uint value)\r\n        external onlyProxy onlySuperAdmin\r\n    {\r\n        bytes32 key = keccak256(abi.encodePacked(TABLE_NAME, varName));\r\n        genericDB.setUintStorage(CONTRACT_NAME_GAMEVARANDFEE, key, value);\r\n    }\r\n\r\n    /// @dev set multiple variables\r\n    function setMultipleValues(bytes32[] calldata names, uint[] calldata values)\r\n        external onlyProxy onlySuperAdmin\r\n    {\r\n        require(names.length == values.length);\r\n        bytes32 key;\r\n        for(uint i = 0; i < names.length; i++){\r\n            key = keccak256(abi.encodePacked(TABLE_NAME, bytes32ToString(names[i])));\r\n            genericDB.setUintStorage(CONTRACT_NAME_GAMEVARANDFEE, key, values[i]);\r\n        }\r\n    }\r\n\r\n    function bytes32ToString(bytes32 x) internal pure returns (string memory) {\r\n        bytes memory bytesString = new bytes(32);\r\n        uint charCount = 0;\r\n        for (uint j = 0; j < 32; j++) {\r\n            byte char = byte(bytes32(uint(x) * 2 ** (8 * j)));\r\n            if (char != 0) {\r\n                bytesString[charCount] = char;\r\n                charCount++;\r\n            }\r\n        }\r\n        bytes memory bytesStringTrimmed = new bytes(charCount);\r\n        for (uint j = 0; j < charCount; j++) {\r\n            bytesStringTrimmed[j] = bytesString[j];\r\n        }\r\n        return string(bytesStringTrimmed);\r\n    }\r\n\r\n\r\n    // ----- GETTERS ------\r\n\r\n    // Stale function - what is this getter for and where is it used?\r\n    /// @notice FrontEnd Global Getter\r\n   // function getGlobalSettings() public view    \r\n     //   returns(uint[5] memory, uint, uint, uint, uint, uint, uint, uint)\r\n    //{\r\n      //  return(getDistributionRates(),getListingFee(),getTicketFee(), getBettingFee(),\r\n        //    getKittieRedemptionFee(), getGamePrestart(), getGameDuration(), getKittieExpiry());\r\n    //}\r\n\r\n    /// @notice get eth/usd current price\r\n    // temporarily hard code EthUsdPrice for truffle testing of BurnTokens.test.js\r\n    // Please remove hardcoding and uncomment line 124 once testing is done\r\n    function getEthUsdPrice() public view returns(uint){\r\n        //return uint256(medianizer.read());\r\n        return uint256(0x00000000000000000000000000000000000000000000000b49bcb0036fa6c000);\r\n    }\r\n        \r\n    /// @notice Gets the number of matches that are set by Scheduler every time (i.e. 20 kitties, 10 matches)\r\n    function getRequiredNumberMatches() \r\n    public view returns(uint) { \r\n        return genericDB.getUintStorage(CONTRACT_NAME_GAMEVARANDFEE, REQUIRED_NUMBER_MATCHES);\r\n    }\r\n    \r\n    /// @notice Gets countdown time for players to start game (i.e. 120).\r\n    function getGamePrestart() \r\n    public view returns(uint) {\r\n        return genericDB.getUintStorage(CONTRACT_NAME_GAMEVARANDFEE, GAME_PRESTART);\r\n    }\r\n    \r\n    /// @notice Gets Game duration, how long a game lasts\r\n    function getGameDuration() \r\n    public view returns(uint) {\r\n        return genericDB.getUintStorage(CONTRACT_NAME_GAMEVARANDFEE, GAME_DURATION);\r\n    }\r\n    \r\n    /// @notice Gets how long to wait for payment for kittie in kittiehell before kittie is lost forever \r\n    function getKittieExpiry() \r\n    public view returns(uint) {\r\n        return genericDB.getUintStorage(CONTRACT_NAME_GAMEVARANDFEE, KITTIE_HELL_EXPIRATION);\r\n    }\r\n    \r\n    /// @notice Gets the time at which honey pot will be dissolved,after a game is over, used by time contract at end of gameduration\r\n    function getHoneypotExpiration() \r\n    public view returns(uint) {\r\n        return genericDB.getUintStorage(CONTRACT_NAME_GAMEVARANDFEE, HONEY_POT_EXPIRATION);\r\n    }\r\n    \r\n    /// @notice Gets the percentage of jackpot size for allocating KTY tokens to the jackpot\r\n    function getPercentageHoneypotAllocationKTY()\r\n        public view returns(uint)\r\n    {\r\n            return genericDB.getUintStorage(CONTRACT_NAME_GAMEVARANDFEE, PERCENTAGE_HONEYPOT_ALLOCATION_KTY);\r\n    }\r\n\r\n    // stale function\r\n    /// @notice Gets Amount of initial ETH allowed to be drawn from EndowmentFund to be allocated to game\r\n    function getEthPerGame() \r\n    public view returns(uint) {\r\n        return genericDB.getUintStorage(CONTRACT_NAME_GAMEVARANDFEE, ETH_PER_GAME);\r\n    }\r\n\r\n    /// @notice Gets Times duration between each game per day\r\n    function getGameTimes() \r\n    public view returns(uint) {\r\n        return genericDB.getUintStorage(CONTRACT_NAME_GAMEVARANDFEE, GAME_TIMES);\r\n    }\r\n    \r\n    /// @notice Gets Distribution Rates\r\n    function getDistributionRates() \r\n    public view returns(uint[5] memory rates) {\r\n                \r\n        rates[0] = genericDB.getUintStorage(CONTRACT_NAME_GAMEVARANDFEE, WINNING_KITTIE);\r\n        \r\n        rates[1] = genericDB.getUintStorage(CONTRACT_NAME_GAMEVARANDFEE, TOP_BETTOR);\r\n        \r\n        rates[2] = genericDB.getUintStorage(CONTRACT_NAME_GAMEVARANDFEE, SECOND_RUNNER_UP);\r\n        \r\n        rates[3] = genericDB.getUintStorage(CONTRACT_NAME_GAMEVARANDFEE, OTHER_BETTORS);\r\n        \r\n        rates[4] = genericDB.getUintStorage(CONTRACT_NAME_GAMEVARANDFEE, ENDOWNMENT);\r\n    }\r\n\r\n    /// @notice Gets percentage of final honeypot that is set as pool initial ether allocation\r\n    function getPercentageForPool() public view returns (uint256) {\r\n        return genericDB.getUintStorage(CONTRACT_NAME_GAMEVARANDFEE, PERCENTAGE_FOR_POOL);\r\n    }\r\n\r\n    /// @notice Gets percentage of initial honeypot that is set as kittie listing fee\r\n    function getPercentageForListingFee() public view returns(uint256) {\r\n        return genericDB.getUintStorage(CONTRACT_NAME_GAMEVARANDFEE, PERCENTAGE_FOR_LISTING_FEE);\r\n    }\r\n\r\n    /// @notice Gets percentage of initial honeypot that is set as Ticket fee\r\n    function getPercentageForTicketFee() public view returns(uint256) {\r\n        return genericDB.getUintStorage(CONTRACT_NAME_GAMEVARANDFEE, PERCENTAGE_FOR_TICKET_FEE);\r\n    }\r\n\r\n    /// @notice Gets percentage of initial honeypot that is set as Betting fee\r\n    function getPercentageForBettingFee() public view returns(uint256) {\r\n        return genericDB.getUintStorage(CONTRACT_NAME_GAMEVARANDFEE, PERCENTAGE_FOR_BETTING_FEE);\r\n    }\r\n\r\n    /// @notice Gets percentage of final honeypot that is set as kittieRedemptionFee\r\n    function getPercentageForKittieRedemptionFee()\r\n    public view returns(uint) {\r\n        return genericDB.getUintStorage(CONTRACT_NAME_GAMEVARANDFEE, PERCENTAGE_FOR_KITTIE_REDEMPTION_FEE);\r\n    }\r\n\r\n    /// @notice Gets USD to KTY ratio\r\n    function getUsdKTYPrice()\r\n    public view returns(uint) {\r\n        return genericDB.getUintStorage(CONTRACT_NAME_GAMEVARANDFEE, USD_KTY_PRICE);\r\n    }\r\n\r\n    /// @notice Gets fee for players to list kitties for matching in fights\r\n    function getListingFee() public view returns(uint) {\r\n        return genericDB.getUintStorage(CONTRACT_NAME_GAMEVARANDFEE, LISTING_FEE);\r\n    }\r\n\r\n    // Stale function\r\n    /// @notice Gets ticket fee in KTY for betting participators\r\n    //function getTicketFee() \r\n    //public view returns(uint) {\r\n      //  return genericDB.getUintStorage(CONTRACT_NAME_GAMEVARANDFEE, TICKET_FEE);\r\n    //}\r\n\r\n    // Stale function\r\n    /// @notice Gets betting fee in KTY for betting participators\r\n    //function getBettingFee() \r\n    //public view returns(uint) {\r\n      //  return genericDB.getUintStorage(CONTRACT_NAME_GAMEVARANDFEE, BETTING_FEE);\r\n    //}\r\n\r\n    //stale function\r\n    /// @notice Gets kittieHELL redemption fee in KTY for redeeming kitties\r\n    //function getKittieRedemptionFee()\r\n    //public view returns(uint) {\r\n      //  return genericDB.getUintStorage(CONTRACT_NAME_GAMEVARANDFEE, KITTIE_REDEMPTION_FEE);\r\n    //}\r\n\r\n    /// @notice Gets minimum contributors needed for the game to continue\r\n    function getMinimumContributors() \r\n    public view returns(uint) {\r\n        return genericDB.getUintStorage(CONTRACT_NAME_GAMEVARANDFEE, MINIMUM_CONTRIBUTORS);\r\n    }\r\n\r\n    /// @notice Gets the amount of KTY rewarded to the user that hits finalize button\r\n    function getFinalizeRewards() \r\n    public view returns(uint) {\r\n        return genericDB.getUintStorage(CONTRACT_NAME_GAMEVARANDFEE, FINALIZE_REWARDS);\r\n    }\r\n\r\n    /// @notice Gets the time before a game ends that the check performance should act\r\n    function getPerformanceTimeCheck() \r\n    public view returns(uint) {\r\n        return genericDB.getUintStorage(CONTRACT_NAME_GAMEVARANDFEE, PERFORMANCE_TIME_CHECK);\r\n    }\r\n\r\n    /// @notice Gets the amount of time to add when game is underperformant\r\n    function getTimeExtension() \r\n    public view returns(uint) {\r\n        return genericDB.getUintStorage(CONTRACT_NAME_GAMEVARANDFEE, TIME_EXTENSION);\r\n    }\r\n\r\n    /// @notice Gets the required number of kitties NFTs as replacement for redeemed kittie in kittieHELL\r\n    function getRequiredKittieSacrificeNum()\r\n        public view returns(uint)\r\n    {\r\n        return genericDB.getUintStorage(CONTRACT_NAME_GAMEVARANDFEE, REQUIRED_KITTIE_SACRIFICE_NUM);\r\n    }\r\n\r\n    function getKTYforBurnEthie()\r\n        public view returns(uint)\r\n    {\r\n        return genericDB.getUintStorage(CONTRACT_NAME_GAMEVARANDFEE, KTY_FOR_BURN_ETHIE);\r\n    }\r\n\r\n    /// @notice Gets the weekly interest rate for EthieToken NFT\r\n    function getInterestEthie()\r\n        public view returns(uint)\r\n    {\r\n        return genericDB.getUintStorage(CONTRACT_NAME_GAMEVARANDFEE, INTEREST_ETHIE);\r\n    }\r\n\r\n}\r\n",
  "sourcePath": "C:\\Users\\Alex\\Desktop\\MyProjects\\contracts\\contracts\\GameVarAndFee.sol",
  "compiler": {
    "name": "solc",
    "version": "0.5.17+commit.d19bba13.Emscripten.clang"
  },
  "schemaVersion": "3.0.11",
  "updatedAt": "2020-05-07T16:31:54.611Z",
  "devdoc": {
    "details": "One setter that is called from GameVarAndFeeProxy contract setters",
    "methods": {
      "constructor": {
        "params": {
          "_genericDB": "Address of deployed GeneriDB contract"
        }
      },
      "setMultipleValues(bytes32[],uint256[])": {
        "details": "set multiple variables"
      },
      "setVarAndFee(string,uint256)": {
        "details": "set one variable at a time"
      }
    },
    "title": "Contract that moderates the various fees, timing limits, expiry date/time, schedules, eth allocation per game, token allocation per game, kittiehell kittie expiration, time durations, distribution percentages e.t.c. The note modifier will log event for each function call."
  },
  "userdoc": {
    "methods": {
      "constructor": "Function called when deployed",
      "getDistributionRates()": {
        "notice": "Gets Distribution Rates"
      },
      "getEthPerGame()": {
        "notice": "Gets Amount of initial ETH allowed to be drawn from EndowmentFund to be allocated to game"
      },
      "getEthUsdPrice()": {
        "notice": "get eth/usd current price"
      },
      "getFinalizeRewards()": {
        "notice": "Gets the amount of KTY rewarded to the user that hits finalize button"
      },
      "getGameDuration()": {
        "notice": "Gets Game duration, how long a game lasts"
      },
      "getGamePrestart()": {
        "notice": "Gets countdown time for players to start game (i.e. 120)."
      },
      "getGameTimes()": {
        "notice": "Gets Times duration between each game per day"
      },
      "getHoneypotExpiration()": {
        "notice": "Gets the time at which honey pot will be dissolved,after a game is over, used by time contract at end of gameduration"
      },
      "getInterestEthie()": {
        "notice": "Gets the weekly interest rate for EthieToken NFT"
      },
      "getKittieExpiry()": {
        "notice": "Gets how long to wait for payment for kittie in kittiehell before kittie is lost forever "
      },
      "getListingFee()": {
        "notice": "Gets fee for players to list kitties for matching in fights"
      },
      "getMinimumContributors()": {
        "notice": "Gets minimum contributors needed for the game to continue"
      },
      "getPercentageForBettingFee()": {
        "notice": "Gets percentage of initial honeypot that is set as Betting fee"
      },
      "getPercentageForKittieRedemptionFee()": {
        "notice": "Gets percentage of final honeypot that is set as kittieRedemptionFee"
      },
      "getPercentageForListingFee()": {
        "notice": "Gets percentage of initial honeypot that is set as kittie listing fee"
      },
      "getPercentageForPool()": {
        "notice": "Gets percentage of final honeypot that is set as pool initial ether allocation"
      },
      "getPercentageForTicketFee()": {
        "notice": "Gets percentage of initial honeypot that is set as Ticket fee"
      },
      "getPercentageHoneypotAllocationKTY()": {
        "notice": "Gets the percentage of jackpot size for allocating KTY tokens to the jackpot"
      },
      "getPerformanceTimeCheck()": {
        "notice": "Gets the time before a game ends that the check performance should act"
      },
      "getRequiredKittieSacrificeNum()": {
        "notice": "Gets the required number of kitties NFTs as replacement for redeemed kittie in kittieHELL"
      },
      "getRequiredNumberMatches()": {
        "notice": "Gets the number of matches that are set by Scheduler every time (i.e. 20 kitties, 10 matches)"
      },
      "getTimeExtension()": {
        "notice": "Gets the amount of time to add when game is underperformant"
      },
      "getUsdKTYPrice()": {
        "notice": "Gets USD to KTY ratio"
      },
      "setGenericDB(address)": {
        "notice": "Set genericDB variable to store data in contract"
      },
      "setProxy(address)": {
        "notice": "Set/update address of Proxy contract"
      }
    }
  }
}