{
  "contractName": "GameStore",
  "abi": [
    {
      "constant": true,
      "inputs": [
        {
          "internalType": "uint256",
          "name": "",
          "type": "uint256"
        },
        {
          "internalType": "address",
          "name": "",
          "type": "address"
        }
      ],
      "name": "gameByPlayer",
      "outputs": [
        {
          "internalType": "uint256",
          "name": "randomNum",
          "type": "uint256"
        },
        {
          "internalType": "bool",
          "name": "pressedStart",
          "type": "bool"
        },
        {
          "internalType": "address",
          "name": "topBettor",
          "type": "address"
        },
        {
          "internalType": "address",
          "name": "secondTopBettor",
          "type": "address"
        }
      ],
      "payable": false,
      "stateMutability": "view",
      "type": "function"
    },
    {
      "constant": true,
      "inputs": [
        {
          "internalType": "uint256",
          "name": "",
          "type": "uint256"
        }
      ],
      "name": "gameSettings",
      "outputs": [
        {
          "internalType": "uint256",
          "name": "bettingFee",
          "type": "uint256"
        },
        {
          "internalType": "uint256",
          "name": "ticketFee",
          "type": "uint256"
        },
        {
          "internalType": "uint256",
          "name": "redemptionFee",
          "type": "uint256"
        },
        {
          "internalType": "uint256",
          "name": "kittieHellExpirationTime",
          "type": "uint256"
        },
        {
          "internalType": "uint256",
          "name": "honeypotExpirationTime",
          "type": "uint256"
        },
        {
          "internalType": "uint256",
          "name": "minimumContributors",
          "type": "uint256"
        },
        {
          "internalType": "uint256",
          "name": "timeExtension",
          "type": "uint256"
        },
        {
          "internalType": "uint256",
          "name": "performanceTime",
          "type": "uint256"
        }
      ],
      "payable": false,
      "stateMutability": "view",
      "type": "function"
    },
    {
      "constant": true,
      "inputs": [],
      "name": "gameVarAndFee",
      "outputs": [
        {
          "internalType": "contract GameVarAndFee",
          "name": "",
          "type": "address"
        }
      ],
      "payable": false,
      "stateMutability": "view",
      "type": "function"
    },
    {
      "constant": true,
      "inputs": [],
      "name": "gmGetterDB",
      "outputs": [
        {
          "internalType": "contract GMGetterDB",
          "name": "",
          "type": "address"
        }
      ],
      "payable": false,
      "stateMutability": "view",
      "type": "function"
    },
    {
      "constant": true,
      "inputs": [],
      "name": "hitsResolve",
      "outputs": [
        {
          "internalType": "contract HitsResolve",
          "name": "",
          "type": "address"
        }
      ],
      "payable": false,
      "stateMutability": "view",
      "type": "function"
    },
    {
      "constant": true,
      "inputs": [],
      "name": "owner",
      "outputs": [
        {
          "internalType": "address payable",
          "name": "",
          "type": "address"
        }
      ],
      "payable": false,
      "stateMutability": "view",
      "type": "function"
    },
    {
      "constant": true,
      "inputs": [],
      "name": "proxy",
      "outputs": [
        {
          "internalType": "contract ProxyBase",
          "name": "",
          "type": "address"
        }
      ],
      "payable": false,
      "stateMutability": "view",
      "type": "function"
    },
    {
      "constant": true,
      "inputs": [],
      "name": "scheduler",
      "outputs": [
        {
          "internalType": "contract Scheduler",
          "name": "",
          "type": "address"
        }
      ],
      "payable": false,
      "stateMutability": "view",
      "type": "function"
    },
    {
      "constant": false,
      "inputs": [
        {
          "internalType": "contract ProxyBase",
          "name": "_proxy",
          "type": "address"
        }
      ],
      "name": "setProxy",
      "outputs": [],
      "payable": false,
      "stateMutability": "nonpayable",
      "type": "function"
    },
    {
      "constant": true,
      "inputs": [],
      "name": "timeFrame",
      "outputs": [
        {
          "internalType": "contract TimeFrame",
          "name": "",
          "type": "address"
        }
      ],
      "payable": false,
      "stateMutability": "view",
      "type": "function"
    },
    {
      "constant": false,
      "inputs": [
        {
          "internalType": "address payable",
          "name": "newOwner",
          "type": "address"
        }
      ],
      "name": "transferOwnership",
      "outputs": [],
      "payable": false,
      "stateMutability": "nonpayable",
      "type": "function"
    },
    {
      "constant": false,
      "inputs": [],
      "name": "initialize",
      "outputs": [],
      "payable": false,
      "stateMutability": "nonpayable",
      "type": "function"
    },
    {
      "constant": false,
      "inputs": [
        {
          "internalType": "uint256",
          "name": "gameId",
          "type": "uint256"
        }
      ],
      "name": "lockVars",
      "outputs": [],
      "payable": false,
      "stateMutability": "nonpayable",
      "type": "function"
    },
    {
      "constant": false,
      "inputs": [
        {
          "internalType": "uint256",
          "name": "gameId",
          "type": "uint256"
        }
      ],
      "name": "lockVarsAdmin",
      "outputs": [],
      "payable": false,
      "stateMutability": "nonpayable",
      "type": "function"
    },
    {
      "constant": true,
      "inputs": [
        {
          "internalType": "uint256",
          "name": "gameId",
          "type": "uint256"
        }
      ],
      "name": "getDistributionRates",
      "outputs": [
        {
          "internalType": "uint256[5]",
          "name": "",
          "type": "uint256[5]"
        }
      ],
      "payable": false,
      "stateMutability": "view",
      "type": "function"
    },
    {
      "constant": false,
      "inputs": [
        {
          "internalType": "uint256",
          "name": "gameId",
          "type": "uint256"
        }
      ],
      "name": "updateKittieRedemptionFee",
      "outputs": [],
      "payable": false,
      "stateMutability": "nonpayable",
      "type": "function"
    },
    {
      "constant": false,
      "inputs": [
        {
          "internalType": "uint256",
          "name": "gameId",
          "type": "uint256"
        }
      ],
      "name": "updateTicketFee",
      "outputs": [],
      "payable": false,
      "stateMutability": "nonpayable",
      "type": "function"
    },
    {
      "constant": false,
      "inputs": [
        {
          "internalType": "uint256",
          "name": "gameId",
          "type": "uint256"
        }
      ],
      "name": "updateBettingFee",
      "outputs": [],
      "payable": false,
      "stateMutability": "nonpayable",
      "type": "function"
    },
    {
      "constant": true,
      "inputs": [
        {
          "internalType": "uint256",
          "name": "gameId",
          "type": "uint256"
        }
      ],
      "name": "getKittieExpirationTime",
      "outputs": [
        {
          "internalType": "uint256",
          "name": "",
          "type": "uint256"
        }
      ],
      "payable": false,
      "stateMutability": "view",
      "type": "function"
    },
    {
      "constant": true,
      "inputs": [
        {
          "internalType": "uint256",
          "name": "gameId",
          "type": "uint256"
        }
      ],
      "name": "getKittieRedemptionFee",
      "outputs": [
        {
          "internalType": "uint256",
          "name": "",
          "type": "uint256"
        },
        {
          "internalType": "uint256",
          "name": "",
          "type": "uint256"
        }
      ],
      "payable": false,
      "stateMutability": "view",
      "type": "function"
    },
    {
      "constant": true,
      "inputs": [
        {
          "internalType": "uint256",
          "name": "gameId",
          "type": "uint256"
        }
      ],
      "name": "getHoneypotExpiration",
      "outputs": [
        {
          "internalType": "uint256",
          "name": "",
          "type": "uint256"
        }
      ],
      "payable": false,
      "stateMutability": "view",
      "type": "function"
    },
    {
      "constant": false,
      "inputs": [
        {
          "internalType": "uint256",
          "name": "gameId",
          "type": "uint256"
        },
        {
          "internalType": "address",
          "name": "player",
          "type": "address"
        },
        {
          "internalType": "uint256",
          "name": "randomNum",
          "type": "uint256"
        }
      ],
      "name": "start",
      "outputs": [],
      "payable": false,
      "stateMutability": "nonpayable",
      "type": "function"
    },
    {
      "constant": true,
      "inputs": [
        {
          "internalType": "uint256",
          "name": "gameId",
          "type": "uint256"
        },
        {
          "internalType": "address",
          "name": "player",
          "type": "address"
        }
      ],
      "name": "didHitStart",
      "outputs": [
        {
          "internalType": "bool",
          "name": "",
          "type": "bool"
        }
      ],
      "payable": false,
      "stateMutability": "view",
      "type": "function"
    },
    {
      "constant": true,
      "inputs": [
        {
          "internalType": "uint256",
          "name": "gameId",
          "type": "uint256"
        },
        {
          "internalType": "address",
          "name": "player",
          "type": "address"
        }
      ],
      "name": "getRandom",
      "outputs": [
        {
          "internalType": "uint256",
          "name": "",
          "type": "uint256"
        }
      ],
      "payable": false,
      "stateMutability": "view",
      "type": "function"
    },
    {
      "constant": false,
      "inputs": [
        {
          "internalType": "uint256",
          "name": "gameId",
          "type": "uint256"
        },
        {
          "internalType": "address",
          "name": "player",
          "type": "address"
        },
        {
          "internalType": "address",
          "name": "newTopBettor",
          "type": "address"
        }
      ],
      "name": "updateTopBettor",
      "outputs": [],
      "payable": false,
      "stateMutability": "nonpayable",
      "type": "function"
    },
    {
      "constant": true,
      "inputs": [
        {
          "internalType": "uint256",
          "name": "gameId",
          "type": "uint256"
        },
        {
          "internalType": "address",
          "name": "player",
          "type": "address"
        }
      ],
      "name": "getTopBettor",
      "outputs": [
        {
          "internalType": "address",
          "name": "",
          "type": "address"
        }
      ],
      "payable": false,
      "stateMutability": "view",
      "type": "function"
    },
    {
      "constant": false,
      "inputs": [
        {
          "internalType": "uint256",
          "name": "gameId",
          "type": "uint256"
        },
        {
          "internalType": "address",
          "name": "player",
          "type": "address"
        },
        {
          "internalType": "address",
          "name": "newSecondTopBettor",
          "type": "address"
        }
      ],
      "name": "updateSecondTopBettor",
      "outputs": [],
      "payable": false,
      "stateMutability": "nonpayable",
      "type": "function"
    },
    {
      "constant": true,
      "inputs": [
        {
          "internalType": "uint256",
          "name": "gameId",
          "type": "uint256"
        },
        {
          "internalType": "address",
          "name": "player",
          "type": "address"
        }
      ],
      "name": "getSecondTopBettor",
      "outputs": [
        {
          "internalType": "address",
          "name": "",
          "type": "address"
        }
      ],
      "payable": false,
      "stateMutability": "view",
      "type": "function"
    },
    {
      "constant": true,
      "inputs": [
        {
          "internalType": "uint256",
          "name": "gameId",
          "type": "uint256"
        }
      ],
      "name": "getTicketFee",
      "outputs": [
        {
          "internalType": "uint256",
          "name": "",
          "type": "uint256"
        },
        {
          "internalType": "uint256",
          "name": "",
          "type": "uint256"
        }
      ],
      "payable": false,
      "stateMutability": "view",
      "type": "function"
    },
    {
      "constant": true,
      "inputs": [
        {
          "internalType": "uint256",
          "name": "gameId",
          "type": "uint256"
        }
      ],
      "name": "getBettingFee",
      "outputs": [
        {
          "internalType": "uint256",
          "name": "",
          "type": "uint256"
        },
        {
          "internalType": "uint256",
          "name": "",
          "type": "uint256"
        }
      ],
      "payable": false,
      "stateMutability": "view",
      "type": "function"
    },
    {
      "constant": true,
      "inputs": [
        {
          "internalType": "uint256",
          "name": "gameId",
          "type": "uint256"
        }
      ],
      "name": "getMinimumContributors",
      "outputs": [
        {
          "internalType": "uint256",
          "name": "",
          "type": "uint256"
        }
      ],
      "payable": false,
      "stateMutability": "view",
      "type": "function"
    },
    {
      "constant": true,
      "inputs": [
        {
          "internalType": "uint256",
          "name": "gameId",
          "type": "uint256"
        }
      ],
      "name": "getPerformanceTimeCheck",
      "outputs": [
        {
          "internalType": "uint256",
          "name": "",
          "type": "uint256"
        }
      ],
      "payable": false,
      "stateMutability": "view",
      "type": "function"
    },
    {
      "constant": true,
      "inputs": [
        {
          "internalType": "uint256",
          "name": "gameId",
          "type": "uint256"
        }
      ],
      "name": "getTimeExtension",
      "outputs": [
        {
          "internalType": "uint256",
          "name": "",
          "type": "uint256"
        }
      ],
      "payable": false,
      "stateMutability": "view",
      "type": "function"
    },
    {
      "constant": false,
      "inputs": [
        {
          "internalType": "uint256",
          "name": "_gameId",
          "type": "uint256"
        },
        {
          "internalType": "address",
          "name": "_account",
          "type": "address"
        },
        {
          "internalType": "address",
          "name": "_supportedPlayer",
          "type": "address"
        }
      ],
      "name": "updateTopbettors",
      "outputs": [],
      "payable": false,
      "stateMutability": "nonpayable",
      "type": "function"
    },
    {
      "constant": true,
      "inputs": [
        {
          "internalType": "uint256",
          "name": "gameId",
          "type": "uint256"
        },
        {
          "internalType": "address",
          "name": "player",
          "type": "address"
        }
      ],
      "name": "getOpponent",
      "outputs": [
        {
          "internalType": "address",
          "name": "",
          "type": "address"
        }
      ],
      "payable": false,
      "stateMutability": "view",
      "type": "function"
    },
    {
      "constant": true,
      "inputs": [
        {
          "internalType": "uint256",
          "name": "gameId",
          "type": "uint256"
        },
        {
          "internalType": "address",
          "name": "player",
          "type": "address"
        }
      ],
      "name": "getCorner",
      "outputs": [
        {
          "internalType": "uint256",
          "name": "",
          "type": "uint256"
        }
      ],
      "payable": false,
      "stateMutability": "view",
      "type": "function"
    },
    {
      "constant": true,
      "inputs": [
        {
          "internalType": "uint256",
          "name": "gameId",
          "type": "uint256"
        },
        {
          "internalType": "address",
          "name": "playerBlack",
          "type": "address"
        },
        {
          "internalType": "address",
          "name": "playerRed",
          "type": "address"
        },
        {
          "internalType": "uint256",
          "name": "random",
          "type": "uint256"
        }
      ],
      "name": "calculateWinner",
      "outputs": [
        {
          "internalType": "address",
          "name": "winner",
          "type": "address"
        },
        {
          "internalType": "address",
          "name": "loser",
          "type": "address"
        },
        {
          "internalType": "uint256",
          "name": "pointsBlack",
          "type": "uint256"
        },
        {
          "internalType": "uint256",
          "name": "pointsRed",
          "type": "uint256"
        }
      ],
      "payable": false,
      "stateMutability": "view",
      "type": "function"
    },
    {
      "constant": false,
      "inputs": [],
      "name": "startAfterCancel",
      "outputs": [],
      "payable": false,
      "stateMutability": "nonpayable",
      "type": "function"
    },
    {
      "constant": false,
      "inputs": [
        {
          "internalType": "uint256",
          "name": "gameStartTime",
          "type": "uint256"
        }
      ],
      "name": "startManually",
      "outputs": [
        {
          "internalType": "bool",
          "name": "",
          "type": "bool"
        }
      ],
      "payable": false,
      "stateMutability": "nonpayable",
      "type": "function"
    },
    {
      "constant": false,
      "inputs": [],
      "name": "checkGame",
      "outputs": [
        {
          "internalType": "bool",
          "name": "",
          "type": "bool"
        }
      ],
      "payable": false,
      "stateMutability": "nonpayable",
      "type": "function"
    },
    {
      "constant": false,
      "inputs": [],
      "name": "createGameAndEpoch",
      "outputs": [],
      "payable": false,
      "stateMutability": "nonpayable",
      "type": "function"
    }
  ],
  "bytecode": "0x6080604052336000806101000a81548173ffffffffffffffffffffffffffffffffffffffff021916908373ffffffffffffffffffffffffffffffffffffffff1602179055506163b5806100536000396000f3fe608060405234801561001057600080fd5b50600436106102535760003560e01c80637b17998811610146578063b83d8c52116100c3578063ebff754a11610087578063ebff754a14610db5578063ec55688914610e1b578063f2fde38b14610e65578063f3ef7d2c14610ea9578063f58f32cf14610eeb578063f9ccbdf214610f3457610253565b8063b83d8c5214610b27578063c1dc2ddc14610bfa578063c97d996914610c04578063cefc482614610c72578063d1ad17bf14610d6b57610253565b806397107d6d1161010a57806397107d6d14610a005780639dac052e14610a44578063a3b3bd7b14610a72578063aa84869f14610abc578063b35a194e14610b0557610253565b80637b179988146108ea5780638129fc1c146109185780638ad7877a146109225780638b13b64b1461096c5780638da5cb5b146109b657610253565b806331856c71116101d457806353d820f91161019857806353d820f9146106f45780635daaf798146107625780635f87206d146107905780636991b5bf1461081e5780636e47c6351461088857610253565b806331856c711461056e57806331fa7067146105b05780633422476d1461063e5780633c38d0a91461066c578063477d2e03146106ae57610253565b8063158d39cb1161021b578063158d39cb146103eb57806316805a29146104435780631fc75180146104d1578063228d8dcb1461051b578063299202991461052557610253565b806305931a3c146102585780630bc644f5146102cb5780630c03955f146103395780630d1fd67a146103675780630d8d7aba146103a9575b600080fd5b6102846004803603602081101561026e57600080fd5b8101908080359060200190929190505050610f96565b604051808981526020018881526020018781526020018681526020018581526020018481526020018381526020018281526020019850505050505050505060405180910390f35b610337600480360360608110156102e157600080fd5b8101908080359060200190929190803573ffffffffffffffffffffffffffffffffffffffff169060200190929190803573ffffffffffffffffffffffffffffffffffffffff169060200190929190505050610fde565b005b6103656004803603602081101561034f57600080fd5b81019080803590602001909291905050506115e7565b005b6103936004803603602081101561037d57600080fd5b81019080803590602001909291905050506118bf565b6040518082815260200191505060405180910390f35b6103d5600480360360208110156103bf57600080fd5b81019080803590602001909291905050506118df565b6040518082815260200191505060405180910390f35b6104416004803603606081101561040157600080fd5b8101908080359060200190929190803573ffffffffffffffffffffffffffffffffffffffff169060200190929190803590602001909291905050506118ff565b005b61048f6004803603604081101561045957600080fd5b8101908080359060200190929190803573ffffffffffffffffffffffffffffffffffffffff169060200190929190505050611a5d565b604051808273ffffffffffffffffffffffffffffffffffffffff1673ffffffffffffffffffffffffffffffffffffffff16815260200191505060405180910390f35b6104d9611adb565b604051808273ffffffffffffffffffffffffffffffffffffffff1673ffffffffffffffffffffffffffffffffffffffff16815260200191505060405180910390f35b610523611b01565b005b6105516004803603602081101561053b57600080fd5b8101908080359060200190929190505050611e7f565b604051808381526020018281526020019250505060405180910390f35b61059a6004803603602081101561058457600080fd5b810190808035906020019092919050505061208f565b6040518082815260200191505060405180910390f35b6105fc600480360360408110156105c657600080fd5b8101908080359060200190929190803573ffffffffffffffffffffffffffffffffffffffff1690602001909291905050506120af565b604051808273ffffffffffffffffffffffffffffffffffffffff1673ffffffffffffffffffffffffffffffffffffffff16815260200191505060405180910390f35b61066a6004803603602081101561065457600080fd5b81019080803590602001909291905050506121d0565b005b6106986004803603602081101561068257600080fd5b8101908080359060200190929190505050612271565b6040518082815260200191505060405180910390f35b6106da600480360360208110156106c457600080fd5b8101908080359060200190929190505050612291565b604051808215151515815260200191505060405180910390f35b6107606004803603606081101561070a57600080fd5b8101908080359060200190929190803573ffffffffffffffffffffffffffffffffffffffff169060200190929190803573ffffffffffffffffffffffffffffffffffffffff169060200190929190505050612494565b005b61078e6004803603602081101561077857600080fd5b81019080803590602001909291905050506125c0565b005b6107dc600480360360408110156107a657600080fd5b8101908080359060200190929190803573ffffffffffffffffffffffffffffffffffffffff1690602001909291905050506128a0565b604051808273ffffffffffffffffffffffffffffffffffffffff1673ffffffffffffffffffffffffffffffffffffffff16815260200191505060405180910390f35b61084a6004803603602081101561083457600080fd5b810190808035906020019092919050505061291e565b6040518082600560200280838360005b8381101561087557808201518184015260208101905061085a565b5050505090500191505060405180910390f35b6108d46004803603604081101561089e57600080fd5b8101908080359060200190929190803573ffffffffffffffffffffffffffffffffffffffff16906020019092919050505061297f565b6040518082815260200191505060405180910390f35b6109166004803603602081101561090057600080fd5b81019080803590602001909291905050506129dd565b005b610920612cb5565b005b61092a6134b5565b604051808273ffffffffffffffffffffffffffffffffffffffff1673ffffffffffffffffffffffffffffffffffffffff16815260200191505060405180910390f35b6109746134db565b604051808273ffffffffffffffffffffffffffffffffffffffff1673ffffffffffffffffffffffffffffffffffffffff16815260200191505060405180910390f35b6109be613501565b604051808273ffffffffffffffffffffffffffffffffffffffff1673ffffffffffffffffffffffffffffffffffffffff16815260200191505060405180910390f35b610a4260048036036020811015610a1657600080fd5b81019080803573ffffffffffffffffffffffffffffffffffffffff169060200190929190505050613526565b005b610a7060048036036020811015610a5a57600080fd5b81019080803590602001909291905050506135c0565b005b610a7a6136b3565b604051808273ffffffffffffffffffffffffffffffffffffffff1673ffffffffffffffffffffffffffffffffffffffff16815260200191505060405180910390f35b610ae860048036036020811015610ad257600080fd5b81019080803590602001909291905050506136d9565b604051808381526020018281526020019250505060405180910390f35b610b0d6138e9565b604051808215151515815260200191505060405180910390f35b610b7360048036036040811015610b3d57600080fd5b8101908080359060200190929190803573ffffffffffffffffffffffffffffffffffffffff169060200190929190505050613b9e565b60405180858152602001841515151581526020018373ffffffffffffffffffffffffffffffffffffffff1673ffffffffffffffffffffffffffffffffffffffff1681526020018273ffffffffffffffffffffffffffffffffffffffff1673ffffffffffffffffffffffffffffffffffffffff16815260200194505050505060405180910390f35b610c02613c28565b005b610c7060048036036060811015610c1a57600080fd5b8101908080359060200190929190803573ffffffffffffffffffffffffffffffffffffffff169060200190929190803573ffffffffffffffffffffffffffffffffffffffff169060200190929190505050613cc7565b005b610ce860048036036080811015610c8857600080fd5b8101908080359060200190929190803573ffffffffffffffffffffffffffffffffffffffff169060200190929190803573ffffffffffffffffffffffffffffffffffffffff16906020019092919080359060200190929190505050613df3565b604051808573ffffffffffffffffffffffffffffffffffffffff1673ffffffffffffffffffffffffffffffffffffffff1681526020018473ffffffffffffffffffffffffffffffffffffffff1673ffffffffffffffffffffffffffffffffffffffff16815260200183815260200182815260200194505050505060405180910390f35b610d736143c9565b604051808273ffffffffffffffffffffffffffffffffffffffff1673ffffffffffffffffffffffffffffffffffffffff16815260200191505060405180910390f35b610e0160048036036040811015610dcb57600080fd5b8101908080359060200190929190803573ffffffffffffffffffffffffffffffffffffffff1690602001909291905050506143ef565b604051808215151515815260200191505060405180910390f35b610e2361445a565b604051808273ffffffffffffffffffffffffffffffffffffffff1673ffffffffffffffffffffffffffffffffffffffff16815260200191505060405180910390f35b610ea760048036036020811015610e7b57600080fd5b81019080803573ffffffffffffffffffffffffffffffffffffffff169060200190929190505050614480565b005b610ed560048036036020811015610ebf57600080fd5b810190808035906020019092919050505061454e565b6040518082815260200191505060405180910390f35b610f1760048036036020811015610f0157600080fd5b810190808035906020019092919050505061456e565b604051808381526020018281526020019250505060405180910390f35b610f8060048036036040811015610f4a57600080fd5b8101908080359060200190929190803573ffffffffffffffffffffffffffffffffffffffff16906020019092919050505061477e565b6040518082815260200191505060405180910390f35b60086020528060005260406000206000915090508060000154908060010154908060020154908060030154908060040154908060050154908060060154908060070154905088565b6040518060400160405280600b81526020017f47616d654d616e6167657200000000000000000000000000000000000000000081525061101d816148e0565b611072576040517f08c379a000000000000000000000000000000000000000000000000000000000815260040180806020018281038252602d815260200180616354602d913960400191505060405180910390fd5b600061107e8584611a5d565b90506000600360009054906101000a900473ffffffffffffffffffffffffffffffffffffffff1673ffffffffffffffffffffffffffffffffffffffff16630b154c9687876040518363ffffffff1660e01b8152600401808381526020018273ffffffffffffffffffffffffffffffffffffffff1673ffffffffffffffffffffffffffffffffffffffff1681526020019250505060806040518083038186803b15801561112957600080fd5b505afa15801561113d573d6000803e3d6000fd5b505050506040513d608081101561115357600080fd5b810190808051906020019092919080519060200190929190805190602001909291908051906020019092919050505050505090506000600360009054906101000a900473ffffffffffffffffffffffffffffffffffffffff1673ffffffffffffffffffffffffffffffffffffffff16630b154c9688856040518363ffffffff1660e01b8152600401808381526020018273ffffffffffffffffffffffffffffffffffffffff1673ffffffffffffffffffffffffffffffffffffffff1681526020019250505060806040518083038186803b15801561123057600080fd5b505afa158015611244573d6000803e3d6000fd5b505050506040513d608081101561125a57600080fd5b810190808051906020019092919080519060200190929190805190602001909291908051906020019092919050505050505090508573ffffffffffffffffffffffffffffffffffffffff168373ffffffffffffffffffffffffffffffffffffffff16146115de57808211156113f257856007600089815260200190815260200160002060008773ffffffffffffffffffffffffffffffffffffffff1673ffffffffffffffffffffffffffffffffffffffff16815260200190815260200160002060010160016101000a81548173ffffffffffffffffffffffffffffffffffffffff021916908373ffffffffffffffffffffffffffffffffffffffff160217905550826007600089815260200190815260200160002060008773ffffffffffffffffffffffffffffffffffffffff1673ffffffffffffffffffffffffffffffffffffffff16815260200190815260200160002060020160006101000a81548173ffffffffffffffffffffffffffffffffffffffff021916908373ffffffffffffffffffffffffffffffffffffffff1602179055506115dd565b60006113fe88876128a0565b90506000600360009054906101000a900473ffffffffffffffffffffffffffffffffffffffff1673ffffffffffffffffffffffffffffffffffffffff16630b154c968a846040518363ffffffff1660e01b8152600401808381526020018273ffffffffffffffffffffffffffffffffffffffff1673ffffffffffffffffffffffffffffffffffffffff1681526020019250505060806040518083038186803b1580156114a957600080fd5b505afa1580156114bd573d6000803e3d6000fd5b505050506040513d60808110156114d357600080fd5b81019080805190602001909291908051906020019092919080519060200190929190805190602001909291905050505050509050808411801561154257508773ffffffffffffffffffffffffffffffffffffffff168273ffffffffffffffffffffffffffffffffffffffff1614155b156115da5787600760008b815260200190815260200160002060008973ffffffffffffffffffffffffffffffffffffffff1673ffffffffffffffffffffffffffffffffffffffff16815260200190815260200160002060020160006101000a81548173ffffffffffffffffffffffffffffffffffffffff021916908373ffffffffffffffffffffffffffffffffffffffff1602179055505b50505b5b50505050505050565b6040518060400160405280600c81526020017f47616d654372656174696f6e0000000000000000000000000000000000000000815250611626816148e0565b61167b576040517f08c379a000000000000000000000000000000000000000000000000000000000815260040180806020018281038252602d815260200180616354602d913960400191505060405180910390fd5b6000600260009054906101000a900473ffffffffffffffffffffffffffffffffffffffff1673ffffffffffffffffffffffffffffffffffffffff1663f0e52c426040518163ffffffff1660e01b815260040160206040518083038186803b1580156116e557600080fd5b505afa1580156116f9573d6000803e3d6000fd5b505050506040513d602081101561170f57600080fd5b81019080805190602001909291905050509050600080600360009054906101000a900473ffffffffffffffffffffffffffffffffffffffff1673ffffffffffffffffffffffffffffffffffffffff1663bd4f6d1e866040518263ffffffff1660e01b815260040180828152602001915050604080518083038186803b15801561179757600080fd5b505afa1580156117ab573d6000803e3d6000fd5b505050506040513d60408110156117c157600080fd5b81019080805190602001909291908051906020019092919050505091509150600560009054906101000a900473ffffffffffffffffffffffffffffffffffffffff1673ffffffffffffffffffffffffffffffffffffffff1663c9fe0cef8484846040518463ffffffff1660e01b815260040180848152602001838152602001828152602001935050505060206040518083038186803b15801561186357600080fd5b505afa158015611877573d6000803e3d6000fd5b505050506040513d602081101561188d57600080fd5b810190808051906020019092919050505060086000878152602001908152602001600020600001819055505050505050565b600060086000838152602001908152602001600020600401549050919050565b600060086000838152602001908152602001600020600601549050919050565b6040518060400160405280600b81526020017f47616d654d616e6167657200000000000000000000000000000000000000000081525061193e816148e0565b611993576040517f08c379a000000000000000000000000000000000000000000000000000000000815260040180806020018281038252602d815260200180616354602d913960400191505060405180910390fd5b60016007600086815260200190815260200160002060008573ffffffffffffffffffffffffffffffffffffffff1673ffffffffffffffffffffffffffffffffffffffff16815260200190815260200160002060010160006101000a81548160ff021916908315150217905550816007600086815260200190815260200160002060008573ffffffffffffffffffffffffffffffffffffffff1673ffffffffffffffffffffffffffffffffffffffff1681526020019081526020016000206000018190555050505050565b60006007600084815260200190815260200160002060008373ffffffffffffffffffffffffffffffffffffffff1673ffffffffffffffffffffffffffffffffffffffff16815260200190815260200160002060010160019054906101000a900473ffffffffffffffffffffffffffffffffffffffff16905092915050565b600360009054906101000a900473ffffffffffffffffffffffffffffffffffffffff1681565b6040518060400160405280600781526020017f43726f6e4a6f6200000000000000000000000000000000000000000000000000815250611b40816148e0565b611b95576040517f08c379a000000000000000000000000000000000000000000000000000000000815260040180806020018281038252602d815260200180616354602d913960400191505060405180910390fd5b600660009054906101000a900473ffffffffffffffffffffffffffffffffffffffff1673ffffffffffffffffffffffffffffffffffffffff16639b42e5476040518163ffffffff1660e01b8152600401600060405180830381600087803b158015611bff57600080fd5b505af1158015611c13573d6000803e3d6000fd5b50505050600560009054906101000a900473ffffffffffffffffffffffffffffffffffffffff1673ffffffffffffffffffffffffffffffffffffffff1663d65ab5f26040518163ffffffff1660e01b8152600401602060405180830381600087803b158015611c8157600080fd5b505af1158015611c95573d6000803e3d6000fd5b505050506040513d6020811015611cab57600080fd5b8101908080519060200190929190505050600960006101000a81548160ff021916908315150217905550600160009054906101000a900473ffffffffffffffffffffffffffffffffffffffff1673ffffffffffffffffffffffffffffffffffffffff1663358177736040518060400160405280600c81526020017f5769746864726177506f6f6c00000000000000000000000000000000000000008152506040518263ffffffff1660e01b81526004018080602001828103825283818151815260200191508051906020019080838360005b83811015611d98578082015181840152602081019050611d7d565b50505050905090810190601f168015611dc55780820380516001836020036101000a031916815260200191505b509250505060206040518083038186803b158015611de257600080fd5b505afa158015611df6573d6000803e3d6000fd5b505050506040513d6020811015611e0c57600080fd5b810190808051906020019092919050505073ffffffffffffffffffffffffffffffffffffffff166333d8cd8e6040518163ffffffff1660e01b8152600401600060405180830381600087803b158015611e6457600080fd5b505af1158015611e78573d6000803e3d6000fd5b5050505050565b6000806000600860008581526020019081526020016000206002015490506000611ea882614b2b565b90506000600160009054906101000a900473ffffffffffffffffffffffffffffffffffffffff1673ffffffffffffffffffffffffffffffffffffffff1663358177736040518060400160405280600a81526020017f4b7479556e6973776170000000000000000000000000000000000000000000008152506040518263ffffffff1660e01b81526004018080602001828103825283818151815260200191508051906020019080838360005b83811015611f6f578082015181840152602081019050611f54565b50505050905090810190601f168015611f9c5780820380516001836020036101000a031916815260200191505b509250505060206040518083038186803b158015611fb957600080fd5b505afa158015611fcd573d6000803e3d6000fd5b505050506040513d6020811015611fe357600080fd5b810190808051906020019092919050505073ffffffffffffffffffffffffffffffffffffffff1663557b3400836040518263ffffffff1660e01b81526004018082815260200191505060206040518083038186803b15801561204457600080fd5b505afa158015612058573d6000803e3d6000fd5b505050506040513d602081101561206e57600080fd5b81019080805190602001909291905050509050808294509450505050915091565b600060086000838152602001908152602001600020600501549050919050565b6000806000600360009054906101000a900473ffffffffffffffffffffffffffffffffffffffff1673ffffffffffffffffffffffffffffffffffffffff166315a40f49866040518263ffffffff1660e01b81526004018082815260200191505060806040518083038186803b15801561212757600080fd5b505afa15801561213b573d6000803e3d6000fd5b505050506040513d608081101561215157600080fd5b81019080805190602001909291908051906020019092919080519060200190929190805190602001909291905050505050915091508373ffffffffffffffffffffffffffffffffffffffff168273ffffffffffffffffffffffffffffffffffffffff1614156121c45780925050506121ca565b81925050505b92915050565b6040518060400160405280600c81526020017f47616d654372656174696f6e000000000000000000000000000000000000000081525061220f816148e0565b612264576040517f08c379a000000000000000000000000000000000000000000000000000000000815260040180806020018281038252602d815260200180616354602d913960400191505060405180910390fd5b61226d82614c94565b5050565b600060086000838152602001908152602001600020600301549050919050565b60006040518060400160405280600c81526020017f47616d654372656174696f6e00000000000000000000000000000000000000008152506122d2816148e0565b612327576040517f08c379a000000000000000000000000000000000000000000000000000000000815260040180806020018281038252602d815260200180616354602d913960400191505060405180910390fd5b6000600660009054906101000a900473ffffffffffffffffffffffffffffffffffffffff1673ffffffffffffffffffffffffffffffffffffffff16630b3fbd5f6040518163ffffffff1660e01b815260040160206040518083038186803b15801561239157600080fd5b505afa1580156123a5573d6000803e3d6000fd5b505050506040513d60208110156123bb57600080fd5b810190808051906020019092919050505090506000600660009054906101000a900473ffffffffffffffffffffffffffffffffffffffff1673ffffffffffffffffffffffffffffffffffffffff16632ca12ad0836040518263ffffffff1660e01b81526004018082815260200191505060206040518083038186803b15801561244357600080fd5b505afa158015612457573d6000803e3d6000fd5b505050506040513d602081101561246d57600080fd5b8101908080519060200190929190505050905061248a858261514f565b9350505050919050565b6040518060400160405280600a81526020017f474d5365747465724442000000000000000000000000000000000000000000008152506124d3816148e0565b612528576040517f08c379a000000000000000000000000000000000000000000000000000000000815260040180806020018281038252602d815260200180616354602d913960400191505060405180910390fd5b816007600086815260200190815260200160002060008573ffffffffffffffffffffffffffffffffffffffff1673ffffffffffffffffffffffffffffffffffffffff16815260200190815260200160002060020160006101000a81548173ffffffffffffffffffffffffffffffffffffffff021916908373ffffffffffffffffffffffffffffffffffffffff16021790555050505050565b6040518060400160405280600b81526020017f47616d654d616e616765720000000000000000000000000000000000000000008152506125ff816148e0565b612654576040517f08c379a000000000000000000000000000000000000000000000000000000000815260040180806020018281038252602d815260200180616354602d913960400191505060405180910390fd5b6000600260009054906101000a900473ffffffffffffffffffffffffffffffffffffffff1673ffffffffffffffffffffffffffffffffffffffff16637a10546d6040518163ffffffff1660e01b815260040160206040518083038186803b1580156126be57600080fd5b505afa1580156126d2573d6000803e3d6000fd5b505050506040513d60208110156126e857600080fd5b81019080805190602001909291905050509050600080600360009054906101000a900473ffffffffffffffffffffffffffffffffffffffff1673ffffffffffffffffffffffffffffffffffffffff1663525a8e4e866040518263ffffffff1660e01b815260040180828152602001915050604080518083038186803b15801561277057600080fd5b505afa158015612784573d6000803e3d6000fd5b505050506040513d604081101561279a57600080fd5b81019080805190602001909291908051906020019092919050505091509150600560009054906101000a900473ffffffffffffffffffffffffffffffffffffffff1673ffffffffffffffffffffffffffffffffffffffff1663c9fe0cef8484846040518463ffffffff1660e01b815260040180848152602001838152602001828152602001935050505060206040518083038186803b15801561283c57600080fd5b505afa158015612850573d6000803e3d6000fd5b505050506040513d602081101561286657600080fd5b81019080805190602001909291905050506008600087815260200190815260200160002060020181905550612899615308565b5050505050565b60006007600084815260200190815260200160002060008373ffffffffffffffffffffffffffffffffffffffff1673ffffffffffffffffffffffffffffffffffffffff16815260200190815260200160002060020160009054906101000a900473ffffffffffffffffffffffffffffffffffffffff16905092915050565b612926616236565b60086000838152602001908152602001600020600801600580602002604051908101604052809291908260058015612973576020028201915b81548152602001906001019080831161295f575b50505050509050919050565b60006007600084815260200190815260200160002060008373ffffffffffffffffffffffffffffffffffffffff1673ffffffffffffffffffffffffffffffffffffffff16815260200190815260200160002060000154905092915050565b6040518060400160405280600c81526020017f47616d654372656174696f6e0000000000000000000000000000000000000000815250612a1c816148e0565b612a71576040517f08c379a000000000000000000000000000000000000000000000000000000000815260040180806020018281038252602d815260200180616354602d913960400191505060405180910390fd5b6000600260009054906101000a900473ffffffffffffffffffffffffffffffffffffffff1673ffffffffffffffffffffffffffffffffffffffff16639c04b9cd6040518163ffffffff1660e01b815260040160206040518083038186803b158015612adb57600080fd5b505afa158015612aef573d6000803e3d6000fd5b505050506040513d6020811015612b0557600080fd5b81019080805190602001909291905050509050600080600360009054906101000a900473ffffffffffffffffffffffffffffffffffffffff1673ffffffffffffffffffffffffffffffffffffffff1663bd4f6d1e866040518263ffffffff1660e01b815260040180828152602001915050604080518083038186803b158015612b8d57600080fd5b505afa158015612ba1573d6000803e3d6000fd5b505050506040513d6040811015612bb757600080fd5b81019080805190602001909291908051906020019092919050505091509150600560009054906101000a900473ffffffffffffffffffffffffffffffffffffffff1673ffffffffffffffffffffffffffffffffffffffff1663c9fe0cef8484846040518463ffffffff1660e01b815260040180848152602001838152602001828152602001935050505060206040518083038186803b158015612c5957600080fd5b505afa158015612c6d573d6000803e3d6000fd5b505050506040513d6020811015612c8357600080fd5b810190808051906020019092919050505060086000878152602001908152602001600020600101819055505050505050565b6000809054906101000a900473ffffffffffffffffffffffffffffffffffffffff1673ffffffffffffffffffffffffffffffffffffffff163373ffffffffffffffffffffffffffffffffffffffff1614612d0b57fe5b600160009054906101000a900473ffffffffffffffffffffffffffffffffffffffff1673ffffffffffffffffffffffffffffffffffffffff1663358177736040518060400160405280600d81526020017f47616d65566172416e64466565000000000000000000000000000000000000008152506040518263ffffffff1660e01b81526004018080602001828103825283818151815260200191508051906020019080838360005b83811015612dce578082015181840152602081019050612db3565b50505050905090810190601f168015612dfb5780820380516001836020036101000a031916815260200191505b509250505060206040518083038186803b158015612e1857600080fd5b505afa158015612e2c573d6000803e3d6000fd5b505050506040513d6020811015612e4257600080fd5b8101908080519060200190929190505050600260006101000a81548173ffffffffffffffffffffffffffffffffffffffff021916908373ffffffffffffffffffffffffffffffffffffffff160217905550600160009054906101000a900473ffffffffffffffffffffffffffffffffffffffff1673ffffffffffffffffffffffffffffffffffffffff1663358177736040518060400160405280600a81526020017f474d4765747465724442000000000000000000000000000000000000000000008152506040518263ffffffff1660e01b81526004018080602001828103825283818151815260200191508051906020019080838360005b83811015612f56578082015181840152602081019050612f3b565b50505050905090810190601f168015612f835780820380516001836020036101000a031916815260200191505b509250505060206040518083038186803b158015612fa057600080fd5b505afa158015612fb4573d6000803e3d6000fd5b505050506040513d6020811015612fca57600080fd5b8101908080519060200190929190505050600360006101000a81548173ffffffffffffffffffffffffffffffffffffffff021916908373ffffffffffffffffffffffffffffffffffffffff160217905550600160009054906101000a900473ffffffffffffffffffffffffffffffffffffffff1673ffffffffffffffffffffffffffffffffffffffff1663358177736040518060400160405280600b81526020017f486974735265736f6c76650000000000000000000000000000000000000000008152506040518263ffffffff1660e01b81526004018080602001828103825283818151815260200191508051906020019080838360005b838110156130de5780820151818401526020810190506130c3565b50505050905090810190601f16801561310b5780820380516001836020036101000a031916815260200191505b509250505060206040518083038186803b15801561312857600080fd5b505afa15801561313c573d6000803e3d6000fd5b505050506040513d602081101561315257600080fd5b8101908080519060200190929190505050600460006101000a81548173ffffffffffffffffffffffffffffffffffffffff021916908373ffffffffffffffffffffffffffffffffffffffff160217905550600160009054906101000a900473ffffffffffffffffffffffffffffffffffffffff1673ffffffffffffffffffffffffffffffffffffffff1663358177736040518060400160405280600981526020017f5363686564756c657200000000000000000000000000000000000000000000008152506040518263ffffffff1660e01b81526004018080602001828103825283818151815260200191508051906020019080838360005b8381101561326657808201518184015260208101905061324b565b50505050905090810190601f1680156132935780820380516001836020036101000a031916815260200191505b509250505060206040518083038186803b1580156132b057600080fd5b505afa1580156132c4573d6000803e3d6000fd5b505050506040513d60208110156132da57600080fd5b8101908080519060200190929190505050600560006101000a81548173ffffffffffffffffffffffffffffffffffffffff021916908373ffffffffffffffffffffffffffffffffffffffff160217905550600160009054906101000a900473ffffffffffffffffffffffffffffffffffffffff1673ffffffffffffffffffffffffffffffffffffffff1663358177736040518060400160405280600981526020017f54696d654672616d6500000000000000000000000000000000000000000000008152506040518263ffffffff1660e01b81526004018080602001828103825283818151815260200191508051906020019080838360005b838110156133ee5780820151818401526020810190506133d3565b50505050905090810190601f16801561341b5780820380516001836020036101000a031916815260200191505b509250505060206040518083038186803b15801561343857600080fd5b505afa15801561344c573d6000803e3d6000fd5b505050506040513d602081101561346257600080fd5b8101908080519060200190929190505050600660006101000a81548173ffffffffffffffffffffffffffffffffffffffff021916908373ffffffffffffffffffffffffffffffffffffffff160217905550565b600460009054906101000a900473ffffffffffffffffffffffffffffffffffffffff1681565b600660009054906101000a900473ffffffffffffffffffffffffffffffffffffffff1681565b6000809054906101000a900473ffffffffffffffffffffffffffffffffffffffff1681565b6000809054906101000a900473ffffffffffffffffffffffffffffffffffffffff1673ffffffffffffffffffffffffffffffffffffffff163373ffffffffffffffffffffffffffffffffffffffff161461357c57fe5b80600160006101000a81548173ffffffffffffffffffffffffffffffffffffffff021916908373ffffffffffffffffffffffffffffffffffffffff16021790555050565b600073ffffffffffffffffffffffffffffffffffffffff163373ffffffffffffffffffffffffffffffffffffffff1614156135f757fe5b6136356040518060400160405280600b81526020017f73757065725f61646d696e000000000000000000000000000000000000000000815250615e9b565b6136a7576040517f08c379a00000000000000000000000000000000000000000000000000000000081526004018080602001828103825260108152602001807f4f6e6c792073757065722061646d696e0000000000000000000000000000000081525060200191505060405180910390fd5b6136b081614c94565b50565b600260009054906101000a900473ffffffffffffffffffffffffffffffffffffffff1681565b600080600060086000858152602001908152602001600020600101549050600061370282614b2b565b90506000600160009054906101000a900473ffffffffffffffffffffffffffffffffffffffff1673ffffffffffffffffffffffffffffffffffffffff1663358177736040518060400160405280600a81526020017f4b7479556e6973776170000000000000000000000000000000000000000000008152506040518263ffffffff1660e01b81526004018080602001828103825283818151815260200191508051906020019080838360005b838110156137c95780820151818401526020810190506137ae565b50505050905090810190601f1680156137f65780820380516001836020036101000a031916815260200191505b509250505060206040518083038186803b15801561381357600080fd5b505afa158015613827573d6000803e3d6000fd5b505050506040513d602081101561383d57600080fd5b810190808051906020019092919050505073ffffffffffffffffffffffffffffffffffffffff1663557b3400836040518263ffffffff1660e01b81526004018082815260200191505060206040518083038186803b15801561389e57600080fd5b505afa1580156138b2573d6000803e3d6000fd5b505050506040513d60208110156138c857600080fd5b81019080805190602001909291905050509050808294509450505050915091565b60006040518060400160405280600981526020017f5363686564756c6572000000000000000000000000000000000000000000000081525061392a816148e0565b61397f576040517f08c379a000000000000000000000000000000000000000000000000000000000815260040180806020018281038252602d815260200180616354602d913960400191505060405180910390fd5b6000600660009054906101000a900473ffffffffffffffffffffffffffffffffffffffff1673ffffffffffffffffffffffffffffffffffffffff16630b3fbd5f6040518163ffffffff1660e01b815260040160206040518083038186803b1580156139e957600080fd5b505afa1580156139fd573d6000803e3d6000fd5b505050506040513d6020811015613a1357600080fd5b810190808051906020019092919050505090506000600660009054906101000a900473ffffffffffffffffffffffffffffffffffffffff1673ffffffffffffffffffffffffffffffffffffffff16632ca12ad0836040518263ffffffff1660e01b81526004018082815260200191505060206040518083038186803b158015613a9b57600080fd5b505afa158015613aaf573d6000803e3d6000fd5b505050506040513d6020811015613ac557600080fd5b81019080805190602001909291905050509050613b96613b9042600260009054906101000a900473ffffffffffffffffffffffffffffffffffffffff1673ffffffffffffffffffffffffffffffffffffffff1663a38bcf206040518163ffffffff1660e01b815260040160206040518083038186803b158015613b4757600080fd5b505afa158015613b5b573d6000803e3d6000fd5b505050506040513d6020811015613b7157600080fd5b810190808051906020019092919050505061611790919063ffffffff16565b8261514f565b935050505090565b6007602052816000526040600020602052806000526040600020600091509150508060000154908060010160009054906101000a900460ff16908060010160019054906101000a900473ffffffffffffffffffffffffffffffffffffffff16908060020160009054906101000a900473ffffffffffffffffffffffffffffffffffffffff16905084565b6040518060400160405280600b81526020017f47616d654d616e61676572000000000000000000000000000000000000000000815250613c67816148e0565b613cbc576040517f08c379a000000000000000000000000000000000000000000000000000000000815260040180806020018281038252602d815260200180616354602d913960400191505060405180910390fd5b613cc4615308565b50565b6040518060400160405280600a81526020017f474d536574746572444200000000000000000000000000000000000000000000815250613d06816148e0565b613d5b576040517f08c379a000000000000000000000000000000000000000000000000000000000815260040180806020018281038252602d815260200180616354602d913960400191505060405180910390fd5b816007600086815260200190815260200160002060008573ffffffffffffffffffffffffffffffffffffffff1673ffffffffffffffffffffffffffffffffffffffff16815260200190815260200160002060010160016101000a81548173ffffffffffffffffffffffffffffffffffffffff021916908373ffffffffffffffffffffffffffffffffffffffff16021790555050505050565b6000806000806040518060400160405280600b81526020017f47616d654d616e61676572000000000000000000000000000000000000000000815250613e38816148e0565b613e8d576040517f08c379a000000000000000000000000000000000000000000000000000000000815260040180806020018281038252602d815260200180616354602d913960400191505060405180910390fd5b600460009054906101000a900473ffffffffffffffffffffffffffffffffffffffff1673ffffffffffffffffffffffffffffffffffffffff1663c0eef7188a8a896040518463ffffffff1660e01b8152600401808481526020018373ffffffffffffffffffffffffffffffffffffffff1673ffffffffffffffffffffffffffffffffffffffff168152602001828152602001935050505060206040518083038186803b158015613f3c57600080fd5b505afa158015613f50573d6000803e3d6000fd5b505050506040513d6020811015613f6657600080fd5b81019080805190602001909291905050509250600460009054906101000a900473ffffffffffffffffffffffffffffffffffffffff1673ffffffffffffffffffffffffffffffffffffffff1663c0eef7188a89896040518463ffffffff1660e01b8152600401808481526020018373ffffffffffffffffffffffffffffffffffffffff1673ffffffffffffffffffffffffffffffffffffffff168152602001828152602001935050505060206040518083038186803b15801561402857600080fd5b505afa15801561403c573d6000803e3d6000fd5b505050506040513d602081101561405257600080fd5b8101908080519060200190929190505050915061415983600360009054906101000a900473ffffffffffffffffffffffffffffffffffffffff1673ffffffffffffffffffffffffffffffffffffffff1663bacf524e8c8c6040518363ffffffff1660e01b8152600401808381526020018273ffffffffffffffffffffffffffffffffffffffff1673ffffffffffffffffffffffffffffffffffffffff1681526020019250505060206040518083038186803b15801561411057600080fd5b505afa158015614124573d6000803e3d6000fd5b505050506040513d602081101561413a57600080fd5b810190808051906020019092919050505061613390919063ffffffff16565b925061424f82600360009054906101000a900473ffffffffffffffffffffffffffffffffffffffff1673ffffffffffffffffffffffffffffffffffffffff1663bacf524e8c8b6040518363ffffffff1660e01b8152600401808381526020018273ffffffffffffffffffffffffffffffffffffffff1673ffffffffffffffffffffffffffffffffffffffff1681526020019250505060206040518083038186803b15801561420657600080fd5b505afa15801561421a573d6000803e3d6000fd5b505050506040513d602081101561423057600080fd5b810190808051906020019092919050505061613390919063ffffffff16565b915081831115614264578794508693506143bd565b82821115614277578694508793506143bc565b61427f616258565b600360009054906101000a900473ffffffffffffffffffffffffffffffffffffffff1673ffffffffffffffffffffffffffffffffffffffff1663589ac6a48b6040518263ffffffff1660e01b8152600401808281526020019150506101006040518083038186803b1580156142f357600080fd5b505afa158015614307573d6000803e3d6000fd5b505050506040513d601f19601f8201168201806040525061010081101561432d57600080fd5b8101908080519060200190929190805190602001909291908051906020019092919080519060200190929190919082604001805190602001909291908051906020019092919050505050509450505050508060016002811061438b57fe5b60200201518160006002811061439d57fe5b602002015111156143b3578895508794506143ba565b8795508894505b505b5b50945094509450949050565b600560009054906101000a900473ffffffffffffffffffffffffffffffffffffffff1681565b60006007600084815260200190815260200160002060008373ffffffffffffffffffffffffffffffffffffffff1673ffffffffffffffffffffffffffffffffffffffff16815260200190815260200160002060010160009054906101000a900460ff16905092915050565b600160009054906101000a900473ffffffffffffffffffffffffffffffffffffffff1681565b6000809054906101000a900473ffffffffffffffffffffffffffffffffffffffff1673ffffffffffffffffffffffffffffffffffffffff163373ffffffffffffffffffffffffffffffffffffffff16146144d657fe5b600073ffffffffffffffffffffffffffffffffffffffff168173ffffffffffffffffffffffffffffffffffffffff161461454b57806000806101000a81548173ffffffffffffffffffffffffffffffffffffffff021916908373ffffffffffffffffffffffffffffffffffffffff1602179055505b50565b600060086000838152602001908152602001600020600701549050919050565b600080600060086000858152602001908152602001600020600001549050600061459782614b2b565b90506000600160009054906101000a900473ffffffffffffffffffffffffffffffffffffffff1673ffffffffffffffffffffffffffffffffffffffff1663358177736040518060400160405280600a81526020017f4b7479556e6973776170000000000000000000000000000000000000000000008152506040518263ffffffff1660e01b81526004018080602001828103825283818151815260200191508051906020019080838360005b8381101561465e578082015181840152602081019050614643565b50505050905090810190601f16801561468b5780820380516001836020036101000a031916815260200191505b509250505060206040518083038186803b1580156146a857600080fd5b505afa1580156146bc573d6000803e3d6000fd5b505050506040513d60208110156146d257600080fd5b810190808051906020019092919050505073ffffffffffffffffffffffffffffffffffffffff1663557b3400836040518263ffffffff1660e01b81526004018082815260200191505060206040518083038186803b15801561473357600080fd5b505afa158015614747573d6000803e3d6000fd5b505050506040513d602081101561475d57600080fd5b81019080805190602001909291905050509050808294509450505050915091565b6000806000600360009054906101000a900473ffffffffffffffffffffffffffffffffffffffff1673ffffffffffffffffffffffffffffffffffffffff166315a40f49866040518263ffffffff1660e01b81526004018082815260200191505060806040518083038186803b1580156147f657600080fd5b505afa15801561480a573d6000803e3d6000fd5b505050506040513d608081101561482057600080fd5b81019080805190602001909291908051906020019092919080519060200190929190805190602001909291905050505050915091508373ffffffffffffffffffffffffffffffffffffffff168273ffffffffffffffffffffffffffffffffffffffff161415614894576000925050506148da565b8373ffffffffffffffffffffffffffffffffffffffff168173ffffffffffffffffffffffffffffffffffffffff1614156148d3576001925050506148da565b6002925050505b92915050565b60008073ffffffffffffffffffffffffffffffffffffffff16600160009054906101000a900473ffffffffffffffffffffffffffffffffffffffff1673ffffffffffffffffffffffffffffffffffffffff1614156149a6576040517f08c379a00000000000000000000000000000000000000000000000000000000081526004018080602001828103825260088152602001807f4e6f2050726f787900000000000000000000000000000000000000000000000081525060200191505060405180910390fd5b6000600160009054906101000a900473ffffffffffffffffffffffffffffffffffffffff1673ffffffffffffffffffffffffffffffffffffffff166335817773846040518263ffffffff1660e01b81526004018080602001828103825283818151815260200191508051906020019080838360005b83811015614a36578082015181840152602081019050614a1b565b50505050905090810190601f168015614a635780820380516001836020036101000a031916815260200191505b509250505060206040518083038186803b158015614a8057600080fd5b505afa158015614a94573d6000803e3d6000fd5b505050506040513d6020811015614aaa57600080fd5b81019080805190602001909291905050509050600073ffffffffffffffffffffffffffffffffffffffff168173ffffffffffffffffffffffffffffffffffffffff161415614af457fe5b8073ffffffffffffffffffffffffffffffffffffffff163373ffffffffffffffffffffffffffffffffffffffff1614915050919050565b600080600260009054906101000a900473ffffffffffffffffffffffffffffffffffffffff1673ffffffffffffffffffffffffffffffffffffffff1663a2209a14846040518263ffffffff1660e01b81526004018082815260200191505060206040518083038186803b158015614ba157600080fd5b505afa158015614bb5573d6000803e3d6000fd5b505050506040513d6020811015614bcb57600080fd5b81019080805190602001909291905050509050600260009054906101000a900473ffffffffffffffffffffffffffffffffffffffff1673ffffffffffffffffffffffffffffffffffffffff1663fa16b2bd826040518263ffffffff1660e01b81526004018082815260200191505060206040518083038186803b158015614c5157600080fd5b505afa158015614c65573d6000803e3d6000fd5b505050506040513d6020811015614c7b57600080fd5b8101908080519060200190929190505050915050919050565b614c9c61627a565b600081600001818152505060008160200181815250506000816040018181525050600260009054906101000a900473ffffffffffffffffffffffffffffffffffffffff1673ffffffffffffffffffffffffffffffffffffffff16639840060f6040518163ffffffff1660e01b815260040160206040518083038186803b158015614d2557600080fd5b505afa158015614d39573d6000803e3d6000fd5b505050506040513d6020811015614d4f57600080fd5b8101908080519060200190929190505050816060018181525050600260009054906101000a900473ffffffffffffffffffffffffffffffffffffffff1673ffffffffffffffffffffffffffffffffffffffff166333dbee176040518163ffffffff1660e01b815260040160206040518083038186803b158015614dd157600080fd5b505afa158015614de5573d6000803e3d6000fd5b505050506040513d6020811015614dfb57600080fd5b8101908080519060200190929190505050816080018181525050600260009054906101000a900473ffffffffffffffffffffffffffffffffffffffff1673ffffffffffffffffffffffffffffffffffffffff166368afa5416040518163ffffffff1660e01b815260040160206040518083038186803b158015614e7d57600080fd5b505afa158015614e91573d6000803e3d6000fd5b505050506040513d6020811015614ea757600080fd5b81019080805190602001909291905050508160a0018181525050600260009054906101000a900473ffffffffffffffffffffffffffffffffffffffff1673ffffffffffffffffffffffffffffffffffffffff16633e4c883f6040518163ffffffff1660e01b815260040160a06040518083038186803b158015614f2957600080fd5b505afa158015614f3d573d6000803e3d6000fd5b505050506040513d601f19601f8201168201806040525060a0811015614f6257600080fd5b8101908091905050816101000181905250600260009054906101000a900473ffffffffffffffffffffffffffffffffffffffff1673ffffffffffffffffffffffffffffffffffffffff1663ae1d48a86040518163ffffffff1660e01b815260040160206040518083038186803b158015614fdb57600080fd5b505afa158015614fef573d6000803e3d6000fd5b505050506040513d602081101561500557600080fd5b81019080805190602001909291905050508160c0018181525050600260009054906101000a900473ffffffffffffffffffffffffffffffffffffffff1673ffffffffffffffffffffffffffffffffffffffff16631697e4b66040518163ffffffff1660e01b815260040160206040518083038186803b15801561508757600080fd5b505afa15801561509b573d6000803e3d6000fd5b505050506040513d60208110156150b157600080fd5b81019080805190602001909291905050508160e00181815250508060086000848152602001908152602001600020600082015181600001556020820151816001015560408201518160020155606082015181600301556080820151816004015560a0820151816005015560c0820151816006015560e08201518160070155610100820151816008019060056151479291906162cc565b509050505050565b6000826152bb6152ac600660009054906101000a900473ffffffffffffffffffffffffffffffffffffffff1673ffffffffffffffffffffffffffffffffffffffff1663a0559ae46040518163ffffffff1660e01b815260040160206040518083038186803b1580156151c057600080fd5b505afa1580156151d4573d6000803e3d6000fd5b505050506040513d60208110156151ea57600080fd5b8101908080519060200190929190505050600660009054906101000a900473ffffffffffffffffffffffffffffffffffffffff1673ffffffffffffffffffffffffffffffffffffffff1663504a38dd6040518163ffffffff1660e01b815260040160206040518083038186803b15801561526357600080fd5b505afa158015615277573d6000803e3d6000fd5b505050506040513d602081101561528d57600080fd5b810190808051906020019092919050505061611790919063ffffffff16565b8461616a90919063ffffffff16565b1115806152d45750600960009054906101000a900460ff165b156152e25760009050615302565b6001600960006101000a81548160ff021916908315150217905550600190505b92915050565b6000600660009054906101000a900473ffffffffffffffffffffffffffffffffffffffff1673ffffffffffffffffffffffffffffffffffffffff16630b3fbd5f6040518163ffffffff1660e01b815260040160206040518083038186803b15801561537257600080fd5b505afa158015615386573d6000803e3d6000fd5b505050506040513d602081101561539c57600080fd5b810190808051906020019092919050505090506000600660009054906101000a900473ffffffffffffffffffffffffffffffffffffffff1673ffffffffffffffffffffffffffffffffffffffff16632ca12ad0836040518263ffffffff1660e01b81526004018082815260200191505060206040518083038186803b15801561542457600080fd5b505afa158015615438573d6000803e3d6000fd5b505050506040513d602081101561544e57600080fd5b810190808051906020019092919050505090506000600960006101000a81548160ff02191690831515021790555061553a61553442600260009054906101000a900473ffffffffffffffffffffffffffffffffffffffff1673ffffffffffffffffffffffffffffffffffffffff1663a38bcf206040518163ffffffff1660e01b815260040160206040518083038186803b1580156154eb57600080fd5b505afa1580156154ff573d6000803e3d6000fd5b505050506040513d602081101561551557600080fd5b810190808051906020019092919050505061611790919063ffffffff16565b8261514f565b1561560257600560009054906101000a900473ffffffffffffffffffffffffffffffffffffffff1673ffffffffffffffffffffffffffffffffffffffff1663d65ab5f26040518163ffffffff1660e01b8152600401602060405180830381600087803b1580156155a957600080fd5b505af11580156155bd573d6000803e3d6000fd5b505050506040513d60208110156155d357600080fd5b8101908080519060200190929190505050600960006101000a81548160ff021916908315150217905550615e97565b60006156b9600660009054906101000a900473ffffffffffffffffffffffffffffffffffffffff1673ffffffffffffffffffffffffffffffffffffffff1663504a38dd6040518163ffffffff1660e01b815260040160206040518083038186803b15801561566f57600080fd5b505afa158015615683573d6000803e3d6000fd5b505050506040513d602081101561569957600080fd5b81019080805190602001909291905050508361616a90919063ffffffff16565b42111561578a57615787615778600660009054906101000a900473ffffffffffffffffffffffffffffffffffffffff1673ffffffffffffffffffffffffffffffffffffffff1663504a38dd6040518163ffffffff1660e01b815260040160206040518083038186803b15801561572e57600080fd5b505afa158015615742573d6000803e3d6000fd5b505050506040513d602081101561575857600080fd5b81019080805190602001909291905050508461616a90919063ffffffff16565b4261616a90919063ffffffff16565b90505b6000600160009054906101000a900473ffffffffffffffffffffffffffffffffffffffff1673ffffffffffffffffffffffffffffffffffffffff1663358177736040518060400160405280600781526020017f43726f6e4a6f62000000000000000000000000000000000000000000000000008152506040518263ffffffff1660e01b81526004018080602001828103825283818151815260200191508051906020019080838360005b8381101561584f578082015181840152602081019050615834565b50505050905090810190601f16801561587c5780820380516001836020036101000a031916815260200191505b509250505060206040518083038186803b15801561589957600080fd5b505afa1580156158ad573d6000803e3d6000fd5b505050506040513d60208110156158c357600080fd5b810190808051906020019092919050505090508073ffffffffffffffffffffffffffffffffffffffff1663c19304966040518060400160405280600981526020017f47616d6553746f7265000000000000000000000000000000000000000000000081525061593b858761611790919063ffffffff16565b6040516024016040516020818303038152906040527f228d8dcb000000000000000000000000000000000000000000000000000000007bffffffffffffffffffffffffffffffffffffffffffffffffffffffff19166020820180517bffffffffffffffffffffffffffffffffffffffffffffffffffffffff83818316178352505050506040518463ffffffff1660e01b8152600401808060200184815260200180602001838103835286818151815260200191508051906020019080838360005b83811015615a175780820151818401526020810190506159fc565b50505050905090810190601f168015615a445780820380516001836020036101000a031916815260200191505b50838103825284818151815260200191508051906020019080838360005b83811015615a7d578082015181840152602081019050615a62565b50505050905090810190601f168015615aaa5780820380516001836020036101000a031916815260200191505b5095505050505050602060405180830381600087803b158015615acc57600080fd5b505af1158015615ae0573d6000803e3d6000fd5b505050506040513d6020811015615af657600080fd5b810190808051906020019092919050505050600160009054906101000a900473ffffffffffffffffffffffffffffffffffffffff1673ffffffffffffffffffffffffffffffffffffffff1663358177736040518060400160405280600c81526020017f5769746864726177506f6f6c00000000000000000000000000000000000000008152506040518263ffffffff1660e01b81526004018080602001828103825283818151815260200191508051906020019080838360005b83811015615bcb578082015181840152602081019050615bb0565b50505050905090810190601f168015615bf85780820380516001836020036101000a031916815260200191505b509250505060206040518083038186803b158015615c1557600080fd5b505afa158015615c29573d6000803e3d6000fd5b505050506040513d6020811015615c3f57600080fd5b810190808051906020019092919050505073ffffffffffffffffffffffffffffffffffffffff16632e964e7e85600160009054906101000a900473ffffffffffffffffffffffffffffffffffffffff1673ffffffffffffffffffffffffffffffffffffffff1663358177736040518060400160405280600b81526020017f456e646f776d656e7444420000000000000000000000000000000000000000008152506040518263ffffffff1660e01b81526004018080602001828103825283818151815260200191508051906020019080838360005b83811015615d2f578082015181840152602081019050615d14565b50505050905090810190601f168015615d5c5780820380516001836020036101000a031916815260200191505b509250505060206040518083038186803b158015615d7957600080fd5b505afa158015615d8d573d6000803e3d6000fd5b505050506040513d6020811015615da357600080fd5b810190808051906020019092919050505073ffffffffffffffffffffffffffffffffffffffff16636d71894b886040518263ffffffff1660e01b81526004018082815260200191505060206040518083038186803b158015615e0457600080fd5b505afa158015615e18573d6000803e3d6000fd5b505050506040513d6020811015615e2e57600080fd5b81019080805190602001909291905050506040518363ffffffff1660e01b81526004018083815260200182815260200192505050600060405180830381600087803b158015615e7c57600080fd5b505af1158015615e90573d6000803e3d6000fd5b5050505050505b5050565b6000600160009054906101000a900473ffffffffffffffffffffffffffffffffffffffff1673ffffffffffffffffffffffffffffffffffffffff1663358177736040518060400160405280600681526020017f526f6c65444200000000000000000000000000000000000000000000000000008152506040518263ffffffff1660e01b81526004018080602001828103825283818151815260200191508051906020019080838360005b83811015615f60578082015181840152602081019050615f45565b50505050905090810190601f168015615f8d5780820380516001836020036101000a031916815260200191505b509250505060206040518083038186803b158015615faa57600080fd5b505afa158015615fbe573d6000803e3d6000fd5b505050506040513d6020811015615fd457600080fd5b810190808051906020019092919050505073ffffffffffffffffffffffffffffffffffffffff16636c9cd09783616009616181565b6040518363ffffffff1660e01b815260040180806020018373ffffffffffffffffffffffffffffffffffffffff1673ffffffffffffffffffffffffffffffffffffffff168152602001828103825284818151815260200191508051906020019080838360005b8381101561608a57808201518184015260208101905061606f565b50505050905090810190601f1680156160b75780820380516001836020036101000a031916815260200191505b50935050505060206040518083038186803b1580156160d557600080fd5b505afa1580156160e9573d6000803e3d6000fd5b505050506040513d60208110156160ff57600080fd5b81019080805190602001909291905050509050919050565b60008082840190508381101561612957fe5b8091505092915050565b6000808314156161465760009050616164565b600082840290508284828161615757fe5b041461615f57fe5b809150505b92915050565b60008282111561617657fe5b818303905092915050565b6000600160009054906101000a900473ffffffffffffffffffffffffffffffffffffffff1673ffffffffffffffffffffffffffffffffffffffff163373ffffffffffffffffffffffffffffffffffffffff16146161e057339050616233565b6000601436036000602052601481602c37602051915050600073ffffffffffffffffffffffffffffffffffffffff168173ffffffffffffffffffffffffffffffffffffffff16141561622e57fe5b809150505b90565b6040518060a00160405280600590602082028038833980820191505090505090565b6040518060400160405280600290602082028038833980820191505090505090565b60405180610120016040528060008152602001600081526020016000815260200160008152602001600081526020016000815260200160008152602001600081526020016162c661630c565b81525090565b82600581019282156162fb579160200282015b828111156162fa5782518255916020019190600101906162df565b5b509050616308919061632e565b5090565b6040518060a00160405280600590602082028038833980820191505090505090565b61635091905b8082111561634c576000816000905550600101616334565b5090565b9056fe416363657373206973206f6e6c7920616c6c6f7765642066726f6d20737065636966696320636f6e7472616374a265627a7a72315820aebf360b39c00039f4e747ceae6fc9142d1d6028a7d7a720e894b0e85af0cd2c64736f6c63430005110032",
  "source": "pragma solidity ^0.5.5;\n\nimport '../proxy/Proxied.sol';\nimport \"../../GameVarAndFee.sol\";\nimport \"../databases/GMGetterDB.sol\";\nimport \"../../libs/SafeMath.sol\";\nimport \"../algorithm/HitsResolveAlgo.sol\";\nimport '../../authority/Guard.sol';\nimport \"../datetime/TimeFrame.sol\";\nimport \"../../withdrawPool/WithdrawPool.sol\";\nimport \"../gamemanager/Scheduler.sol\";\nimport \"../../CronJob.sol\";\nimport \"../databases/EndowmentDB.sol\";\n\ncontract GameStore is Proxied, Guard {\n\n    using SafeMath for uint256;\n\n    GameVarAndFee public gameVarAndFee;\n    GMGetterDB public gmGetterDB;\n    HitsResolve public hitsResolve;\n    Scheduler public scheduler;\n    TimeFrame public timeFrame;\n\n    struct Game {\n        uint randomNum; //when pressing start\n        bool pressedStart;\n        address topBettor;\n        address secondTopBettor;\n    }\n\n    struct GlobalSettings {\n        uint bettingFee;\n        uint ticketFee;\n        uint redemptionFee;\n        uint kittieHellExpirationTime;\n        uint honeypotExpirationTime;\n        uint minimumContributors;\n        //uint finalizeRewards;\n        uint timeExtension;\n        uint performanceTime;\n        uint[5] distributionRates;\n    }\n\n    //Players info in a game\n    mapping(uint => mapping(address => Game)) public gameByPlayer;\n    mapping(uint => GlobalSettings) public gameSettings;\n\n    bool gameScheduled;\n\n    function initialize() external onlyOwner {\n        gameVarAndFee = GameVarAndFee(proxy.getContract(CONTRACT_NAME_GAMEVARANDFEE));\n        gmGetterDB = GMGetterDB(proxy.getContract(CONTRACT_NAME_GM_GETTER_DB));\n        hitsResolve = HitsResolve(proxy.getContract(CONTRACT_NAME_HITSRESOLVE));\n        scheduler = Scheduler(proxy.getContract(CONTRACT_NAME_SCHEDULER));\n        timeFrame = TimeFrame(proxy.getContract(CONTRACT_NAME_TIMEFRAME));\n    }\n\n    function lock(uint gameId) internal{\n        GlobalSettings memory globalSettings;\n\n        globalSettings.bettingFee = 0;\n        globalSettings.ticketFee = 0;\n        globalSettings.redemptionFee = 0;\n        globalSettings.kittieHellExpirationTime = gameVarAndFee.getKittieExpiry();\n        globalSettings.honeypotExpirationTime = gameVarAndFee.getHoneypotExpiration();\n        globalSettings.minimumContributors = gameVarAndFee.getMinimumContributors();\n        globalSettings.distributionRates = gameVarAndFee.getDistributionRates();\n        //globalSettings.finalizeRewards = gameVarAndFee.getFinalizeRewards();\n        globalSettings.timeExtension = gameVarAndFee.getTimeExtension();\n        globalSettings.performanceTime = gameVarAndFee.getPerformanceTimeCheck();\n\n        gameSettings[gameId] = globalSettings;\n    }\n\n    function lockVars(uint gameId) external onlyContract(CONTRACT_NAME_GAMECREATION){\n        lock(gameId);\n    }\n\n    function lockVarsAdmin(uint gameId) external onlySuperAdmin{\n        lock(gameId);\n    }\n\n    function getDistributionRates(uint gameId) public view returns(uint[5] memory){\n        return gameSettings[gameId].distributionRates;\n    }\n\n    // update kittieRedemptionFee and store in Dai\n    function updateKittieRedemptionFee(uint256 gameId)\n        public\n        onlyContract(CONTRACT_NAME_GAMEMANAGER)\n    {\n        uint256 percentageHoneyPot = gameVarAndFee.getPercentageForKittieRedemptionFee();\n        (uint256 totalEthFunds, uint256 totalKTYFunds) = gmGetterDB.getFinalHoneypot(gameId);\n\n        gameSettings[gameId].redemptionFee = scheduler.calculateDynamicFee(percentageHoneyPot, totalEthFunds, totalKTYFunds);        \n\n        startGameAndCalculateEpoch(/*gameVarAndFee.getGameTimes().add(now)*/);\n    }\n\n    // update Ticket Fee and store in Dai\n    function updateTicketFee(uint256 gameId)\n        public\n        onlyContract(CONTRACT_NAME_GAMECREATION)\n    {\n        uint256 percentageHoneyPot = gameVarAndFee.getPercentageForTicketFee();\n        (uint256 initialHoneypotEth, uint256 initialHoneypotKTY) = gmGetterDB.getInitialHoneypot(gameId);\n        gameSettings[gameId].ticketFee = scheduler.calculateDynamicFee(percentageHoneyPot, initialHoneypotEth, initialHoneypotKTY);\n    }\n\n    // update Betting Fee and store in Dai\n    function updateBettingFee(uint256 gameId)\n        public\n        onlyContract(CONTRACT_NAME_GAMECREATION)\n    {\n        uint256 percentageHoneyPot = gameVarAndFee.getPercentageForBettingFee();\n        (uint256 initialHoneypotEth, uint256 initialHoneypotKTY) = gmGetterDB.getInitialHoneypot(gameId);\n        gameSettings[gameId].bettingFee = scheduler.calculateDynamicFee(percentageHoneyPot, initialHoneypotEth, initialHoneypotKTY);\n    }\n\n    function getKittieExpirationTime(uint gameId) public view returns(uint){\n        return  gameSettings[gameId].kittieHellExpirationTime;\n    }\n\n    function getKittieRedemptionFee(uint256 gameId) public view returns(uint256, uint256) {\n        uint256 redemptionFeeDAI = gameSettings[gameId].redemptionFee;\n        uint256 redemptionFeeKTY = getKTY(redemptionFeeDAI);\n        uint256 etherForSwap = KtyUniswap(proxy.getContract(CONTRACT_NAME_KTY_UNISWAP)).etherFor(redemptionFeeKTY);\n        return (etherForSwap, redemptionFeeKTY);\n    }\n    \n    function getHoneypotExpiration(uint gameId) public view returns(uint){\n        return  gameSettings[gameId].honeypotExpirationTime;\n    }\n\n    function start(uint gameId, address player, uint randomNum) external onlyContract(CONTRACT_NAME_GAMEMANAGER){\n        gameByPlayer[gameId][player].pressedStart = true;\n        gameByPlayer[gameId][player].randomNum = randomNum;\n    }\n\n    function didHitStart(uint gameId, address player) public view returns(bool){\n        return gameByPlayer[gameId][player].pressedStart;\n    }\n\n    function getRandom(uint gameId, address player) public view returns(uint){\n        return gameByPlayer[gameId][player].randomNum;\n    }\n\n    function updateTopBettor(uint gameId, address player, address newTopBettor) external onlyContract(CONTRACT_NAME_GM_SETTER_DB){\n        gameByPlayer[gameId][player].topBettor = newTopBettor;\n    }\n\n    function getTopBettor(uint gameId, address player) public view returns(address){\n        return gameByPlayer[gameId][player].topBettor;\n    }\n\n    function updateSecondTopBettor(uint gameId, address player, address newSecondTopBettor) external onlyContract(CONTRACT_NAME_GM_SETTER_DB){\n        gameByPlayer[gameId][player].secondTopBettor = newSecondTopBettor;\n    }\n\n    function getSecondTopBettor(uint gameId, address player) public view returns(address){\n        return gameByPlayer[gameId][player].secondTopBettor;\n    }\n\n    function getTicketFee(uint256 gameId) public view returns(uint256, uint256){\n        uint256 ticketFeeDAI = gameSettings[gameId].ticketFee;\n        uint256 ticketFeeKTY = getKTY(ticketFeeDAI);\n        uint256 ethForSwap = KtyUniswap(proxy.getContract(CONTRACT_NAME_KTY_UNISWAP)).etherFor(ticketFeeKTY);\n        return (ethForSwap, ticketFeeKTY);\n    }\n\n    function getBettingFee(uint256 gameId) public view returns(uint256, uint256){\n        uint256 bettingFeeDAI = gameSettings[gameId].bettingFee;\n        uint256 bettingFeeKTY = getKTY(bettingFeeDAI);\n        uint256 ethForFeeSwap = KtyUniswap(proxy.getContract(CONTRACT_NAME_KTY_UNISWAP)).etherFor(bettingFeeKTY);\n        return (ethForFeeSwap, bettingFeeKTY);\n    }\n\n    function getMinimumContributors(uint gameId) public view returns(uint){\n        return gameSettings[gameId].minimumContributors;\n    }\n    \n    // stale function\n    // function getFinalizeRewards(uint gameId) public view returns(uint){\n    //     // get finalize rewards in dai\n    //     uint256 rewardsDAI = gameSettings[gameId].finalizeRewards;\n\n    //     return getKTY(rewardsDAI);\n    // }\n\n    function getKTY(uint256 _DAI) internal view returns(uint256) {\n        uint256 _ETH = gameVarAndFee.convertDaiToEth(_DAI);\n        return gameVarAndFee.convertEthToKty(_ETH);\n    }\n\n    function getPerformanceTimeCheck(uint gameId) public view returns(uint){\n        return gameSettings[gameId].performanceTime;\n    }\n\n    function getTimeExtension(uint gameId) public view returns(uint){\n        return gameSettings[gameId].timeExtension;\n    }\n\n    function updateTopbettors(uint256 _gameId, address _account, address _supportedPlayer)\n        external\n        onlyContract(CONTRACT_NAME_GAMEMANAGER)\n        // onlyExistentGame(_gameId)\n    {\n\n        address topBettor = getTopBettor(_gameId, _supportedPlayer);\n        (uint256 bettorTotal,,,) = gmGetterDB.getSupporterInfo(_gameId, _account);\n        (uint256 topBettorEth,,,) = gmGetterDB.getSupporterInfo(_gameId, topBettor);\n        \n        if(topBettor != _account){\n            if (bettorTotal > topBettorEth){\n                //If topBettor is already the account, dont update\n                gameByPlayer[_gameId][_supportedPlayer].topBettor = _account;\n                gameByPlayer[_gameId][_supportedPlayer].secondTopBettor = topBettor;\n            }\n            else {\n                address secondTopBettor = getSecondTopBettor(_gameId, _supportedPlayer);\n                (uint256 secondTopBettorEth,,,) = gmGetterDB.getSupporterInfo(_gameId, secondTopBettor);\n                if (bettorTotal > secondTopBettorEth && secondTopBettor != _account){\n                    gameByPlayer[_gameId][_supportedPlayer].secondTopBettor = _account;\n                }\n            }\n        }\n    }\n\n    function getOpponent(uint gameId, address player) public view returns(address){\n        (address playerBlack, address playerRed,,) = gmGetterDB.getGamePlayers(gameId);\n        if(playerBlack == player) return playerRed;\n        return playerBlack;\n    }\n\n    function getCorner(uint gameId, address player) public view returns(uint){\n        (address playerBlack, address playerRed,,) = gmGetterDB.getGamePlayers(gameId);\n        if(playerBlack == player) return 0;\n        if(playerRed == player) return 1;\n        return 2;\n    }\n\n    function calculateWinner\n    (\n        uint gameId, address playerBlack, address playerRed, uint random\n    )\n        external view\n        onlyContract(CONTRACT_NAME_GAMEMANAGER)\n        returns(address winner, address loser, uint pointsBlack, uint pointsRed)\n    {\n        pointsBlack = hitsResolve.calculateFinalPoints(gameId, playerBlack, random);\n        pointsRed = hitsResolve.calculateFinalPoints(gameId, playerRed, random);\n\n        //Added to make game more balanced\n        pointsBlack = (gmGetterDB.getTotalBet(gameId, playerBlack)).mul(pointsBlack);\n        pointsRed = (gmGetterDB.getTotalBet(gameId, playerRed)).mul(pointsRed);\n\n        if (pointsBlack > pointsRed)\n        {\n            winner = playerBlack;\n            loser = playerRed;\n        }\n        else if(pointsRed > pointsBlack)\n        {\n            winner = playerRed;\n            loser = playerBlack;\n        }\n        //If there is a tie in point, define by total eth bet\n        else\n        {\n            (,,,,uint[2] memory ethByCorner,,) = gmGetterDB.getHoneypotInfo(gameId);\n            if(ethByCorner[0] > ethByCorner[1] ){\n                winner = playerBlack;\n                loser = playerRed;\n            }\n            else{\n                winner = playerRed;\n                loser = playerBlack;\n            }\n        }\n    }\n\n    /**\n    * @dev This function is called if a game gets cancelled, so as to start a new game.\n    */\n    function startAfterCancel()\n    external\n    onlyContract(CONTRACT_NAME_GAMEMANAGER)\n    {\n        startGameAndCalculateEpoch(/*gameVarAndFee.getGameTimes().add(now)*/);\n    }\n\n    /**\n    * @dev This function is called from manualMatching, to check if game can be scheduled.\n    */\n    function startManually(uint256 gameStartTime)\n    external\n    onlyContract(CONTRACT_NAME_GAMECREATION)\n    returns(bool)\n    {\n        uint256 activeEpochId = timeFrame.getActiveEpochID();\n        uint256 currentEpochEndTime = timeFrame._epochEndTime(activeEpochId);\n        return checkIfGameCanStart(gameStartTime, currentEpochEndTime);\n    }\n\n    function checkGame()\n    external\n    onlyContract(CONTRACT_NAME_SCHEDULER)\n    returns(bool)\n    {\n        uint256 activeEpochId = timeFrame.getActiveEpochID();\n        uint256 currentEpochEndTime = timeFrame._epochEndTime(activeEpochId);\n        return checkIfGameCanStart(gameVarAndFee.getGameTimes().add(now), currentEpochEndTime);\n    }\n\n    function checkIfGameCanStart(uint256 gameStartTime, uint256 currentEpochEndTime)\n    internal\n    returns(bool)\n    {\n        //If less than \"some time\" from epoch's ending or anotherGame is scheduled, cannot create.\n        if(currentEpochEndTime.sub(timeFrame.REST_DAY().add(timeFrame.SIX_HOURS())) <= gameStartTime || gameScheduled)\n            return false;\n\n        gameScheduled = true;\n        return true;\n    }\n\n    function startGameAndCalculateEpoch(/*uint256 gameStartTime*/)\n    internal\n    {\n        uint256 activeEpochId = timeFrame.getActiveEpochID();\n        uint256 currentEpochEndTime = timeFrame._epochEndTime(activeEpochId);\n        gameScheduled = false;\n\n        if(checkIfGameCanStart(gameVarAndFee.getGameTimes().add(now), currentEpochEndTime))\n            gameScheduled = scheduler.startGame();\n        else {\n            uint256 delay;\n            if(now > currentEpochEndTime.sub(timeFrame.REST_DAY()))\n                delay = now.sub(currentEpochEndTime.sub(timeFrame.REST_DAY()));\n\n            CronJob cron = CronJob(proxy.getContract(CONTRACT_NAME_CRONJOB));\n            cron.addCronJob(\n                CONTRACT_NAME_GAMESTORE,\n                currentEpochEndTime.add(delay),\n                abi.encodeWithSignature(\"createGameAndEpoch()\")\n            );\n\n            WithdrawPool(proxy.getContract(CONTRACT_NAME_WITHDRAW_POOL)).setInterestToEarningsTracker(\n                activeEpochId,\n                EndowmentDB(proxy.getContract(CONTRACT_NAME_ENDOWMENT_DB)).checkTotalForEpoch(activeEpochId)\n            );\n        }\n    }\n\n    /**\n    * @dev added to cronjob : Creates new Game and New Epoch\n    */\n    function createGameAndEpoch()\n    external\n    onlyContract(CONTRACT_NAME_CRONJOB)\n    {\n        timeFrame.setNewEpoch();\n        gameScheduled = scheduler.startGame();\n        WithdrawPool(proxy.getContract(CONTRACT_NAME_WITHDRAW_POOL)).dissolveOldCreateNew();\n    }\n}",
  "sourcePath": "/Users/ziweizhang/Desktop/Test/contracts/contracts/modules/gamemanager/GameStore.sol",
  "compiler": {
    "name": "solc",
    "version": "0.5.17+commit.d19bba13.Emscripten.clang"
  },
  "schemaVersion": "3.0.23",
  "updatedAt": "2020-07-09T17:23:29.027Z",
  "networkType": "ethereum",
  "devdoc": {
    "methods": {
      "createGameAndEpoch()": {
        "details": "added to cronjob : Creates new Game and New Epoch"
      },
      "startAfterCancel()": {
        "details": "This function is called if a game gets cancelled, so as to start a new game."
      },
      "startManually(uint256)": {
        "details": "This function is called from manualMatching, to check if game can be scheduled."
      }
    }
  },
  "userdoc": {
    "methods": {
      "setProxy(address)": {
        "notice": "Set/update address of Proxy contract"
      }
    }
  }
}