{
  "contractName": "GameVarAndFee",
  "abi": [
    {
      "constant": true,
      "inputs": [],
      "name": "genericDB",
      "outputs": [
        {
          "internalType": "contract GenericDB",
          "name": "",
          "type": "address"
        }
      ],
      "payable": false,
      "stateMutability": "view",
      "type": "function"
    },
    {
      "constant": true,
      "inputs": [],
      "name": "owner",
      "outputs": [
        {
          "internalType": "address payable",
          "name": "",
          "type": "address"
        }
      ],
      "payable": false,
      "stateMutability": "view",
      "type": "function"
    },
    {
      "constant": false,
      "inputs": [
        {
          "internalType": "contract ProxyBase",
          "name": "_proxy",
          "type": "address"
        }
      ],
      "name": "setProxy",
      "outputs": [],
      "payable": false,
      "stateMutability": "nonpayable",
      "type": "function"
    },
    {
      "constant": true,
      "inputs": [],
      "name": "proxy",
      "outputs": [
        {
          "internalType": "contract ProxyBase",
          "name": "",
          "type": "address"
        }
      ],
      "payable": false,
      "stateMutability": "view",
      "type": "function"
    },
    {
      "constant": false,
      "inputs": [
        {
          "internalType": "address payable",
          "name": "newOwner",
          "type": "address"
        }
      ],
      "name": "transferOwnership",
      "outputs": [],
      "payable": false,
      "stateMutability": "nonpayable",
      "type": "function"
    },
    {
      "inputs": [
        {
          "internalType": "contract GenericDB",
          "name": "_genericDB",
          "type": "address"
        },
        {
          "internalType": "contract Medianizer",
          "name": "_medianizer",
          "type": "address"
        }
      ],
      "payable": false,
      "stateMutability": "nonpayable",
      "type": "constructor"
    },
    {
      "constant": false,
      "inputs": [
        {
          "internalType": "contract Medianizer",
          "name": "_medianizer",
          "type": "address"
        }
      ],
      "name": "setMedianizer",
      "outputs": [],
      "payable": false,
      "stateMutability": "nonpayable",
      "type": "function"
    },
    {
      "constant": false,
      "inputs": [
        {
          "internalType": "contract GenericDB",
          "name": "_genericDB",
          "type": "address"
        }
      ],
      "name": "setGenericDB",
      "outputs": [],
      "payable": false,
      "stateMutability": "nonpayable",
      "type": "function"
    },
    {
      "constant": false,
      "inputs": [
        {
          "internalType": "string",
          "name": "varName",
          "type": "string"
        },
        {
          "internalType": "uint256",
          "name": "value",
          "type": "uint256"
        }
      ],
      "name": "setVarAndFee",
      "outputs": [],
      "payable": false,
      "stateMutability": "nonpayable",
      "type": "function"
    },
    {
      "constant": false,
      "inputs": [
        {
          "internalType": "bytes32[]",
          "name": "names",
          "type": "bytes32[]"
        },
        {
          "internalType": "uint256[]",
          "name": "values",
          "type": "uint256[]"
        }
      ],
      "name": "setMultipleValues",
      "outputs": [],
      "payable": false,
      "stateMutability": "nonpayable",
      "type": "function"
    },
    {
      "constant": true,
      "inputs": [],
      "name": "getGlobalSettings",
      "outputs": [
        {
          "internalType": "uint256[5]",
          "name": "",
          "type": "uint256[5]"
        },
        {
          "internalType": "uint256",
          "name": "",
          "type": "uint256"
        },
        {
          "internalType": "uint256",
          "name": "",
          "type": "uint256"
        },
        {
          "internalType": "uint256",
          "name": "",
          "type": "uint256"
        },
        {
          "internalType": "uint256",
          "name": "",
          "type": "uint256"
        },
        {
          "internalType": "uint256",
          "name": "",
          "type": "uint256"
        },
        {
          "internalType": "uint256",
          "name": "",
          "type": "uint256"
        },
        {
          "internalType": "uint256",
          "name": "",
          "type": "uint256"
        }
      ],
      "payable": false,
      "stateMutability": "view",
      "type": "function"
    },
    {
      "constant": true,
      "inputs": [],
      "name": "getEthUsdPrice",
      "outputs": [
        {
          "internalType": "uint256",
          "name": "",
          "type": "uint256"
        }
      ],
      "payable": false,
      "stateMutability": "view",
      "type": "function"
    },
    {
      "constant": true,
      "inputs": [],
      "name": "getRequiredNumberMatches",
      "outputs": [
        {
          "internalType": "uint256",
          "name": "",
          "type": "uint256"
        }
      ],
      "payable": false,
      "stateMutability": "view",
      "type": "function"
    },
    {
      "constant": true,
      "inputs": [],
      "name": "getGamePrestart",
      "outputs": [
        {
          "internalType": "uint256",
          "name": "",
          "type": "uint256"
        }
      ],
      "payable": false,
      "stateMutability": "view",
      "type": "function"
    },
    {
      "constant": true,
      "inputs": [],
      "name": "getGameDuration",
      "outputs": [
        {
          "internalType": "uint256",
          "name": "",
          "type": "uint256"
        }
      ],
      "payable": false,
      "stateMutability": "view",
      "type": "function"
    },
    {
      "constant": true,
      "inputs": [],
      "name": "getKittieExpiry",
      "outputs": [
        {
          "internalType": "uint256",
          "name": "",
          "type": "uint256"
        }
      ],
      "payable": false,
      "stateMutability": "view",
      "type": "function"
    },
    {
      "constant": true,
      "inputs": [],
      "name": "getHoneypotExpiration",
      "outputs": [
        {
          "internalType": "uint256",
          "name": "",
          "type": "uint256"
        }
      ],
      "payable": false,
      "stateMutability": "view",
      "type": "function"
    },
    {
      "constant": true,
      "inputs": [],
      "name": "getTokensPerGame",
      "outputs": [
        {
          "internalType": "uint256",
          "name": "",
          "type": "uint256"
        }
      ],
      "payable": false,
      "stateMutability": "view",
      "type": "function"
    },
    {
      "constant": true,
      "inputs": [],
      "name": "getEthPerGame",
      "outputs": [
        {
          "internalType": "uint256",
          "name": "",
          "type": "uint256"
        }
      ],
      "payable": false,
      "stateMutability": "view",
      "type": "function"
    },
    {
      "constant": true,
      "inputs": [],
      "name": "getGameTimes",
      "outputs": [
        {
          "internalType": "uint256",
          "name": "",
          "type": "uint256"
        }
      ],
      "payable": false,
      "stateMutability": "view",
      "type": "function"
    },
    {
      "constant": true,
      "inputs": [],
      "name": "getDistributionRates",
      "outputs": [
        {
          "internalType": "uint256[5]",
          "name": "rates",
          "type": "uint256[5]"
        }
      ],
      "payable": false,
      "stateMutability": "view",
      "type": "function"
    },
    {
      "constant": true,
      "inputs": [],
      "name": "getListingFee",
      "outputs": [
        {
          "internalType": "uint256",
          "name": "",
          "type": "uint256"
        }
      ],
      "payable": false,
      "stateMutability": "view",
      "type": "function"
    },
    {
      "constant": true,
      "inputs": [],
      "name": "getTicketFee",
      "outputs": [
        {
          "internalType": "uint256",
          "name": "",
          "type": "uint256"
        }
      ],
      "payable": false,
      "stateMutability": "view",
      "type": "function"
    },
    {
      "constant": true,
      "inputs": [],
      "name": "getBettingFee",
      "outputs": [
        {
          "internalType": "uint256",
          "name": "",
          "type": "uint256"
        }
      ],
      "payable": false,
      "stateMutability": "view",
      "type": "function"
    },
    {
      "constant": true,
      "inputs": [],
      "name": "getKittieRedemptionFee",
      "outputs": [
        {
          "internalType": "uint256",
          "name": "",
          "type": "uint256"
        }
      ],
      "payable": false,
      "stateMutability": "view",
      "type": "function"
    },
    {
      "constant": true,
      "inputs": [],
      "name": "getMinimumContributors",
      "outputs": [
        {
          "internalType": "uint256",
          "name": "",
          "type": "uint256"
        }
      ],
      "payable": false,
      "stateMutability": "view",
      "type": "function"
    },
    {
      "constant": true,
      "inputs": [],
      "name": "getFinalizeRewards",
      "outputs": [
        {
          "internalType": "uint256",
          "name": "",
          "type": "uint256"
        }
      ],
      "payable": false,
      "stateMutability": "view",
      "type": "function"
    },
    {
      "constant": true,
      "inputs": [],
      "name": "getPerformanceTimeCheck",
      "outputs": [
        {
          "internalType": "uint256",
          "name": "",
          "type": "uint256"
        }
      ],
      "payable": false,
      "stateMutability": "view",
      "type": "function"
    },
    {
      "constant": true,
      "inputs": [],
      "name": "getTimeExtension",
      "outputs": [
        {
          "internalType": "uint256",
          "name": "",
          "type": "uint256"
        }
      ],
      "payable": false,
      "stateMutability": "view",
      "type": "function"
    }
  ],
  "bytecode": "0x60806040523480156200001157600080fd5b506040516200486038038062004860833981810160405260408110156200003757600080fd5b810190808051906020019092919080519060200190929190505050336000806101000a81548173ffffffffffffffffffffffffffffffffffffffff021916908373ffffffffffffffffffffffffffffffffffffffff160217905550620000a382620000bc60201b60201c565b620000b4816200015760201b60201c565b5050620001f2565b6000809054906101000a900473ffffffffffffffffffffffffffffffffffffffff1673ffffffffffffffffffffffffffffffffffffffff163373ffffffffffffffffffffffffffffffffffffffff16146200011357fe5b80600260006101000a81548173ffffffffffffffffffffffffffffffffffffffff021916908373ffffffffffffffffffffffffffffffffffffffff16021790555050565b6000809054906101000a900473ffffffffffffffffffffffffffffffffffffffff1673ffffffffffffffffffffffffffffffffffffffff163373ffffffffffffffffffffffffffffffffffffffff1614620001ae57fe5b80600360006101000a81548173ffffffffffffffffffffffffffffffffffffffff021916908373ffffffffffffffffffffffffffffffffffffffff16021790555050565b61465e80620002026000396000f3fe608060405234801561001057600080fd5b50600436106101c45760003560e01c806394ec12fd116100f9578063b1c1951511610097578063d693a98911610071578063d693a989146106d3578063e7baf8dd146106f1578063ec55688914610735578063f2fde38b1461077f576101c4565b8063b1c1951514610679578063b8fe6abe14610697578063c09ab510146106b5576101c4565b8063a0a8045e116100d3578063a0a8045e14610601578063a38bcf201461061f578063ae1d48a81461063d578063aedcaed21461065b576101c4565b806394ec12fd1461058157806397107d6d1461059f5780639840060f146105e3576101c4565b806368afa5411161016657806378e9ae601161014057806378e9ae601461041f5780637ba7c3e81461043d5780638cf515f4146104c05780638da5cb5b14610537576101c4565b806368afa541146103155780636baca86a1461033357806376c2826814610401576101c4565b806333dbee17116101a257806333dbee17146102235780633564e78c146102415780633e4c883f1461028b5780634afab815146102d1576101c4565b80631697e4b6146101c95780632341678a146101e75780632c8558a814610205575b600080fd5b6101d16107c3565b6040518082815260200191505060405180910390f35b6101ef6109e8565b6040518082815260200191505060405180910390f35b61020d610c0d565b6040518082815260200191505060405180910390f35b61022b610e32565b6040518082815260200191505060405180910390f35b610249611057565b604051808273ffffffffffffffffffffffffffffffffffffffff1673ffffffffffffffffffffffffffffffffffffffff16815260200191505060405180910390f35b61029361107d565b6040518082600560200280838360005b838110156102be5780820151818401526020810190506102a3565b5050505090500191505060405180910390f35b610313600480360360208110156102e757600080fd5b81019080803573ffffffffffffffffffffffffffffffffffffffff169060200190929190505050611b8c565b005b61031d611c26565b6040518082815260200191505060405180910390f35b6103ff6004803603604081101561034957600080fd5b810190808035906020019064010000000081111561036657600080fd5b82018360208201111561037857600080fd5b8035906020019184602083028401116401000000008311171561039a57600080fd5b9091929391929390803590602001906401000000008111156103bb57600080fd5b8201836020820111156103cd57600080fd5b803590602001918460208302840111640100000000831117156103ef57600080fd5b9091929391929390505050611e4b565b005b6104096121d3565b6040518082815260200191505060405180910390f35b6104276123f8565b6040518082815260200191505060405180910390f35b6104be6004803603604081101561045357600080fd5b810190808035906020019064010000000081111561047057600080fd5b82018360208201111561048257600080fd5b803590602001918460018302840111640100000000831117156104a457600080fd5b90919293919293908035906020019092919050505061261d565b005b6104c8612905565b6040518089600560200280838360005b838110156104f35780820151818401526020810190506104d8565b505050509050018881526020018781526020018681526020018581526020018481526020018381526020018281526020019850505050505050505060405180910390f35b61053f612972565b604051808273ffffffffffffffffffffffffffffffffffffffff1673ffffffffffffffffffffffffffffffffffffffff16815260200191505060405180910390f35b610589612997565b6040518082815260200191505060405180910390f35b6105e1600480360360208110156105b557600080fd5b81019080803573ffffffffffffffffffffffffffffffffffffffff169060200190929190505050612bbc565b005b6105eb612c56565b6040518082815260200191505060405180910390f35b610609612e7b565b6040518082815260200191505060405180910390f35b610627612f28565b6040518082815260200191505060405180910390f35b61064561314d565b6040518082815260200191505060405180910390f35b610663613372565b6040518082815260200191505060405180910390f35b610681613597565b6040518082815260200191505060405180910390f35b61069f6137bc565b6040518082815260200191505060405180910390f35b6106bd6139e1565b6040518082815260200191505060405180910390f35b6106db613c06565b6040518082815260200191505060405180910390f35b6107336004803603602081101561070757600080fd5b81019080803573ffffffffffffffffffffffffffffffffffffffff169060200190929190505050613e2b565b005b61073d613ec5565b604051808273ffffffffffffffffffffffffffffffffffffffff1673ffffffffffffffffffffffffffffffffffffffff16815260200191505060405180910390f35b6107c16004803603602081101561079557600080fd5b81019080803573ffffffffffffffffffffffffffffffffffffffff169060200190929190505050613eeb565b005b6000600260009054906101000a900473ffffffffffffffffffffffffffffffffffffffff1673ffffffffffffffffffffffffffffffffffffffff166308acb5566040518060400160405280600d81526020017f47616d65566172416e64466565000000000000000000000000000000000000008152506040518060400160405280601281526020017f47616d65566172416e644665655461626c6500000000000000000000000000008152506040516020018082805190602001908083835b602083106108a55780518252602082019150602081019050602083039250610882565b6001836020036101000a038019825116818451168082178552505050505050905001807f706572666f726d616e636554696d650000000000000000000000000000000000815250600f01915050604051602081830303815290604052805190602001206040518363ffffffff1660e01b81526004018080602001838152602001828103825284818151815260200191508051906020019080838360005b8381101561095d578082015181840152602081019050610942565b50505050905090810190601f16801561098a5780820380516001836020036101000a031916815260200191505b50935050505060206040518083038186803b1580156109a857600080fd5b505afa1580156109bc573d6000803e3d6000fd5b505050506040513d60208110156109d257600080fd5b8101908080519060200190929190505050905090565b6000600260009054906101000a900473ffffffffffffffffffffffffffffffffffffffff1673ffffffffffffffffffffffffffffffffffffffff166308acb5566040518060400160405280600d81526020017f47616d65566172416e64466565000000000000000000000000000000000000008152506040518060400160405280601281526020017f47616d65566172416e644665655461626c6500000000000000000000000000008152506040516020018082805190602001908083835b60208310610aca5780518252602082019150602081019050602083039250610aa7565b6001836020036101000a038019825116818451168082178552505050505050905001807f746f6b656e7350657247616d6500000000000000000000000000000000000000815250600d01915050604051602081830303815290604052805190602001206040518363ffffffff1660e01b81526004018080602001838152602001828103825284818151815260200191508051906020019080838360005b83811015610b82578082015181840152602081019050610b67565b50505050905090810190601f168015610baf5780820380516001836020036101000a031916815260200191505b50935050505060206040518083038186803b158015610bcd57600080fd5b505afa158015610be1573d6000803e3d6000fd5b505050506040513d6020811015610bf757600080fd5b8101908080519060200190929190505050905090565b6000600260009054906101000a900473ffffffffffffffffffffffffffffffffffffffff1673ffffffffffffffffffffffffffffffffffffffff166308acb5566040518060400160405280600d81526020017f47616d65566172416e64466565000000000000000000000000000000000000008152506040518060400160405280601281526020017f47616d65566172416e644665655461626c6500000000000000000000000000008152506040516020018082805190602001908083835b60208310610cef5780518252602082019150602081019050602083039250610ccc565b6001836020036101000a038019825116818451168082178552505050505050905001807f72657175697265644e756d6265724d6174636865730000000000000000000000815250601501915050604051602081830303815290604052805190602001206040518363ffffffff1660e01b81526004018080602001838152602001828103825284818151815260200191508051906020019080838360005b83811015610da7578082015181840152602081019050610d8c565b50505050905090810190601f168015610dd45780820380516001836020036101000a031916815260200191505b50935050505060206040518083038186803b158015610df257600080fd5b505afa158015610e06573d6000803e3d6000fd5b505050506040513d6020811015610e1c57600080fd5b8101908080519060200190929190505050905090565b6000600260009054906101000a900473ffffffffffffffffffffffffffffffffffffffff1673ffffffffffffffffffffffffffffffffffffffff166308acb5566040518060400160405280600d81526020017f47616d65566172416e64466565000000000000000000000000000000000000008152506040518060400160405280601281526020017f47616d65566172416e644665655461626c6500000000000000000000000000008152506040516020018082805190602001908083835b60208310610f145780518252602082019150602081019050602083039250610ef1565b6001836020036101000a038019825116818451168082178552505050505050905001807f686f6e6579706f7445787069726174696f6e0000000000000000000000000000815250601201915050604051602081830303815290604052805190602001206040518363ffffffff1660e01b81526004018080602001838152602001828103825284818151815260200191508051906020019080838360005b83811015610fcc578082015181840152602081019050610fb1565b50505050905090810190601f168015610ff95780820380516001836020036101000a031916815260200191505b50935050505060206040518083038186803b15801561101757600080fd5b505afa15801561102b573d6000803e3d6000fd5b505050506040513d602081101561104157600080fd5b8101908080519060200190929190505050905090565b600260009054906101000a900473ffffffffffffffffffffffffffffffffffffffff1681565b611085614607565b600260009054906101000a900473ffffffffffffffffffffffffffffffffffffffff1673ffffffffffffffffffffffffffffffffffffffff166308acb5566040518060400160405280600d81526020017f47616d65566172416e64466565000000000000000000000000000000000000008152506040518060400160405280601281526020017f47616d65566172416e644665655461626c6500000000000000000000000000008152506040516020018082805190602001908083835b602083106111655780518252602082019150602081019050602083039250611142565b6001836020036101000a038019825116818451168082178552505050505050905001807f77696e6e696e674b697474696500000000000000000000000000000000000000815250600d01915050604051602081830303815290604052805190602001206040518363ffffffff1660e01b81526004018080602001838152602001828103825284818151815260200191508051906020019080838360005b8381101561121d578082015181840152602081019050611202565b50505050905090810190601f16801561124a5780820380516001836020036101000a031916815260200191505b50935050505060206040518083038186803b15801561126857600080fd5b505afa15801561127c573d6000803e3d6000fd5b505050506040513d602081101561129257600080fd5b8101908080519060200190929190505050816000600581106112b057fe5b602002018181525050600260009054906101000a900473ffffffffffffffffffffffffffffffffffffffff1673ffffffffffffffffffffffffffffffffffffffff166308acb5566040518060400160405280600d81526020017f47616d65566172416e64466565000000000000000000000000000000000000008152506040518060400160405280601281526020017f47616d65566172416e644665655461626c6500000000000000000000000000008152506040516020018082805190602001908083835b602083106113995780518252602082019150602081019050602083039250611376565b6001836020036101000a038019825116818451168082178552505050505050905001807f746f70426574746f720000000000000000000000000000000000000000000000815250600901915050604051602081830303815290604052805190602001206040518363ffffffff1660e01b81526004018080602001838152602001828103825284818151815260200191508051906020019080838360005b83811015611451578082015181840152602081019050611436565b50505050905090810190601f16801561147e5780820380516001836020036101000a031916815260200191505b50935050505060206040518083038186803b15801561149c57600080fd5b505afa1580156114b0573d6000803e3d6000fd5b505050506040513d60208110156114c657600080fd5b8101908080519060200190929190505050816001600581106114e457fe5b602002018181525050600260009054906101000a900473ffffffffffffffffffffffffffffffffffffffff1673ffffffffffffffffffffffffffffffffffffffff166308acb5566040518060400160405280600d81526020017f47616d65566172416e64466565000000000000000000000000000000000000008152506040518060400160405280601281526020017f47616d65566172416e644665655461626c6500000000000000000000000000008152506040516020018082805190602001908083835b602083106115cd57805182526020820191506020810190506020830392506115aa565b6001836020036101000a038019825116818451168082178552505050505050905001807f7365636f6e6452756e6e65725570000000000000000000000000000000000000815250600e01915050604051602081830303815290604052805190602001206040518363ffffffff1660e01b81526004018080602001838152602001828103825284818151815260200191508051906020019080838360005b8381101561168557808201518184015260208101905061166a565b50505050905090810190601f1680156116b25780820380516001836020036101000a031916815260200191505b50935050505060206040518083038186803b1580156116d057600080fd5b505afa1580156116e4573d6000803e3d6000fd5b505050506040513d60208110156116fa57600080fd5b81019080805190602001909291905050508160026005811061171857fe5b602002018181525050600260009054906101000a900473ffffffffffffffffffffffffffffffffffffffff1673ffffffffffffffffffffffffffffffffffffffff166308acb5566040518060400160405280600d81526020017f47616d65566172416e64466565000000000000000000000000000000000000008152506040518060400160405280601281526020017f47616d65566172416e644665655461626c6500000000000000000000000000008152506040516020018082805190602001908083835b6020831061180157805182526020820191506020810190506020830392506117de565b6001836020036101000a038019825116818451168082178552505050505050905001807f6f74686572426574746f72730000000000000000000000000000000000000000815250600c01915050604051602081830303815290604052805190602001206040518363ffffffff1660e01b81526004018080602001838152602001828103825284818151815260200191508051906020019080838360005b838110156118b957808201518184015260208101905061189e565b50505050905090810190601f1680156118e65780820380516001836020036101000a031916815260200191505b50935050505060206040518083038186803b15801561190457600080fd5b505afa158015611918573d6000803e3d6000fd5b505050506040513d602081101561192e57600080fd5b81019080805190602001909291905050508160036005811061194c57fe5b602002018181525050600260009054906101000a900473ffffffffffffffffffffffffffffffffffffffff1673ffffffffffffffffffffffffffffffffffffffff166308acb5566040518060400160405280600d81526020017f47616d65566172416e64466565000000000000000000000000000000000000008152506040518060400160405280601281526020017f47616d65566172416e644665655461626c6500000000000000000000000000008152506040516020018082805190602001908083835b60208310611a355780518252602082019150602081019050602083039250611a12565b6001836020036101000a038019825116818451168082178552505050505050905001807f656e646f776e6d656e7400000000000000000000000000000000000000000000815250600a01915050604051602081830303815290604052805190602001206040518363ffffffff1660e01b81526004018080602001838152602001828103825284818151815260200191508051906020019080838360005b83811015611aed578082015181840152602081019050611ad2565b50505050905090810190601f168015611b1a5780820380516001836020036101000a031916815260200191505b50935050505060206040518083038186803b158015611b3857600080fd5b505afa158015611b4c573d6000803e3d6000fd5b505050506040513d6020811015611b6257600080fd5b810190808051906020019092919050505081600460058110611b8057fe5b60200201818152505090565b6000809054906101000a900473ffffffffffffffffffffffffffffffffffffffff1673ffffffffffffffffffffffffffffffffffffffff163373ffffffffffffffffffffffffffffffffffffffff1614611be257fe5b80600260006101000a81548173ffffffffffffffffffffffffffffffffffffffff021916908373ffffffffffffffffffffffffffffffffffffffff16021790555050565b6000600260009054906101000a900473ffffffffffffffffffffffffffffffffffffffff1673ffffffffffffffffffffffffffffffffffffffff166308acb5566040518060400160405280600d81526020017f47616d65566172416e64466565000000000000000000000000000000000000008152506040518060400160405280601281526020017f47616d65566172416e644665655461626c6500000000000000000000000000008152506040516020018082805190602001908083835b60208310611d085780518252602082019150602081019050602083039250611ce5565b6001836020036101000a038019825116818451168082178552505050505050905001807f6d696e696d756d436f6e7472696275746f727300000000000000000000000000815250601301915050604051602081830303815290604052805190602001206040518363ffffffff1660e01b81526004018080602001838152602001828103825284818151815260200191508051906020019080838360005b83811015611dc0578082015181840152602081019050611da5565b50505050905090810190601f168015611ded5780820380516001836020036101000a031916815260200191505b50935050505060206040518083038186803b158015611e0b57600080fd5b505afa158015611e1f573d6000803e3d6000fd5b505050506040513d6020811015611e3557600080fd5b8101908080519060200190929190505050905090565b611e53613fb9565b600073ffffffffffffffffffffffffffffffffffffffff163373ffffffffffffffffffffffffffffffffffffffff161415611e8a57fe5b611ec86040518060400160405280600b81526020017f73757065725f61646d696e000000000000000000000000000000000000000000815250614143565b611f3a576040517f08c379a00000000000000000000000000000000000000000000000000000000081526004018080602001828103825260108152602001807f4f6e6c792073757065722061646d696e0000000000000000000000000000000081525060200191505060405180910390fd5b818190508484905014611f4c57600080fd5b600080600090505b858590508110156121cb576040518060400160405280601281526020017f47616d65566172416e644665655461626c650000000000000000000000000000815250611fb0878784818110611fa457fe5b905060200201356143bf565b6040516020018083805190602001908083835b60208310611fe65780518252602082019150602081019050602083039250611fc3565b6001836020036101000a03801982511681845116808217855250505050505090500182805190602001908083835b602083106120375780518252602082019150602081019050602083039250612014565b6001836020036101000a03801982511681845116808217855250505050505090500192505050604051602081830303815290604052805190602001209150600260009054906101000a900473ffffffffffffffffffffffffffffffffffffffff1673ffffffffffffffffffffffffffffffffffffffff16630214a37c6040518060400160405280600d81526020017f47616d65566172416e6446656500000000000000000000000000000000000000815250848787868181106120f657fe5b905060200201356040518463ffffffff1660e01b81526004018080602001848152602001838152602001828103825285818151815260200191508051906020019080838360005b8381101561215857808201518184015260208101905061213d565b50505050905090810190601f1680156121855780820380516001836020036101000a031916815260200191505b50945050505050600060405180830381600087803b1580156121a657600080fd5b505af11580156121ba573d6000803e3d6000fd5b505050508080600101915050611f54565b505050505050565b6000600260009054906101000a900473ffffffffffffffffffffffffffffffffffffffff1673ffffffffffffffffffffffffffffffffffffffff166308acb5566040518060400160405280600d81526020017f47616d65566172416e64466565000000000000000000000000000000000000008152506040518060400160405280601281526020017f47616d65566172416e644665655461626c6500000000000000000000000000008152506040516020018082805190602001908083835b602083106122b55780518252602082019150602081019050602083039250612292565b6001836020036101000a038019825116818451168082178552505050505050905001807f6b6974746965526564656d7074696f6e46656500000000000000000000000000815250601301915050604051602081830303815290604052805190602001206040518363ffffffff1660e01b81526004018080602001838152602001828103825284818151815260200191508051906020019080838360005b8381101561236d578082015181840152602081019050612352565b50505050905090810190601f16801561239a5780820380516001836020036101000a031916815260200191505b50935050505060206040518083038186803b1580156123b857600080fd5b505afa1580156123cc573d6000803e3d6000fd5b505050506040513d60208110156123e257600080fd5b8101908080519060200190929190505050905090565b6000600260009054906101000a900473ffffffffffffffffffffffffffffffffffffffff1673ffffffffffffffffffffffffffffffffffffffff166308acb5566040518060400160405280600d81526020017f47616d65566172416e64466565000000000000000000000000000000000000008152506040518060400160405280601281526020017f47616d65566172416e644665655461626c6500000000000000000000000000008152506040516020018082805190602001908083835b602083106124da57805182526020820191506020810190506020830392506124b7565b6001836020036101000a038019825116818451168082178552505050505050905001807f67616d654475726174696f6e0000000000000000000000000000000000000000815250600c01915050604051602081830303815290604052805190602001206040518363ffffffff1660e01b81526004018080602001838152602001828103825284818151815260200191508051906020019080838360005b83811015612592578082015181840152602081019050612577565b50505050905090810190601f1680156125bf5780820380516001836020036101000a031916815260200191505b50935050505060206040518083038186803b1580156125dd57600080fd5b505afa1580156125f1573d6000803e3d6000fd5b505050506040513d602081101561260757600080fd5b8101908080519060200190929190505050905090565b612625613fb9565b600073ffffffffffffffffffffffffffffffffffffffff163373ffffffffffffffffffffffffffffffffffffffff16141561265c57fe5b61269a6040518060400160405280600b81526020017f73757065725f61646d696e000000000000000000000000000000000000000000815250614143565b61270c576040517f08c379a00000000000000000000000000000000000000000000000000000000081526004018080602001828103825260108152602001807f4f6e6c792073757065722061646d696e0000000000000000000000000000000081525060200191505060405180910390fd5b60006040518060400160405280601281526020017f47616d65566172416e644665655461626c65000000000000000000000000000081525084846040516020018084805190602001908083835b6020831061277c5780518252602082019150602081019050602083039250612759565b6001836020036101000a038019825116818451168082178552505050505050905001838380828437808301925050509350505050604051602081830303815290604052805190602001209050600260009054906101000a900473ffffffffffffffffffffffffffffffffffffffff1673ffffffffffffffffffffffffffffffffffffffff16630214a37c6040518060400160405280600d81526020017f47616d65566172416e644665650000000000000000000000000000000000000081525083856040518463ffffffff1660e01b81526004018080602001848152602001838152602001828103825285818151815260200191508051906020019080838360005b8381101561289957808201518184015260208101905061287e565b50505050905090810190601f1680156128c65780820380516001836020036101000a031916815260200191505b50945050505050600060405180830381600087803b1580156128e757600080fd5b505af11580156128fb573d6000803e3d6000fd5b5050505050505050565b61290d614607565b600080600080600080600061292061107d565b6129286137bc565b612930613597565b612938613372565b6129406121d3565b6129486139e1565b6129506123f8565b612958612c56565b975097509750975097509750975097509091929394959697565b6000809054906101000a900473ffffffffffffffffffffffffffffffffffffffff1681565b6000600260009054906101000a900473ffffffffffffffffffffffffffffffffffffffff1673ffffffffffffffffffffffffffffffffffffffff166308acb5566040518060400160405280600d81526020017f47616d65566172416e64466565000000000000000000000000000000000000008152506040518060400160405280601281526020017f47616d65566172416e644665655461626c6500000000000000000000000000008152506040516020018082805190602001908083835b60208310612a795780518252602082019150602081019050602083039250612a56565b6001836020036101000a038019825116818451168082178552505050505050905001807f65746850657247616d6500000000000000000000000000000000000000000000815250600a01915050604051602081830303815290604052805190602001206040518363ffffffff1660e01b81526004018080602001838152602001828103825284818151815260200191508051906020019080838360005b83811015612b31578082015181840152602081019050612b16565b50505050905090810190601f168015612b5e5780820380516001836020036101000a031916815260200191505b50935050505060206040518083038186803b158015612b7c57600080fd5b505afa158015612b90573d6000803e3d6000fd5b505050506040513d6020811015612ba657600080fd5b8101908080519060200190929190505050905090565b6000809054906101000a900473ffffffffffffffffffffffffffffffffffffffff1673ffffffffffffffffffffffffffffffffffffffff163373ffffffffffffffffffffffffffffffffffffffff1614612c1257fe5b80600160006101000a81548173ffffffffffffffffffffffffffffffffffffffff021916908373ffffffffffffffffffffffffffffffffffffffff16021790555050565b6000600260009054906101000a900473ffffffffffffffffffffffffffffffffffffffff1673ffffffffffffffffffffffffffffffffffffffff166308acb5566040518060400160405280600d81526020017f47616d65566172416e64466565000000000000000000000000000000000000008152506040518060400160405280601281526020017f47616d65566172416e644665655461626c6500000000000000000000000000008152506040516020018082805190602001908083835b60208310612d385780518252602082019150602081019050602083039250612d15565b6001836020036101000a038019825116818451168082178552505050505050905001807f6b697474696548656c6c45787069726174696f6e000000000000000000000000815250601401915050604051602081830303815290604052805190602001206040518363ffffffff1660e01b81526004018080602001838152602001828103825284818151815260200191508051906020019080838360005b83811015612df0578082015181840152602081019050612dd5565b50505050905090810190601f168015612e1d5780820380516001836020036101000a031916815260200191505b50935050505060206040518083038186803b158015612e3b57600080fd5b505afa158015612e4f573d6000803e3d6000fd5b505050506040513d6020811015612e6557600080fd5b8101908080519060200190929190505050905090565b6000600360009054906101000a900473ffffffffffffffffffffffffffffffffffffffff1673ffffffffffffffffffffffffffffffffffffffff166357de26a46040518163ffffffff1660e01b815260040160206040518083038186803b158015612ee557600080fd5b505afa158015612ef9573d6000803e3d6000fd5b505050506040513d6020811015612f0f57600080fd5b810190808051906020019092919050505060001c905090565b6000600260009054906101000a900473ffffffffffffffffffffffffffffffffffffffff1673ffffffffffffffffffffffffffffffffffffffff166308acb5566040518060400160405280600d81526020017f47616d65566172416e64466565000000000000000000000000000000000000008152506040518060400160405280601281526020017f47616d65566172416e644665655461626c6500000000000000000000000000008152506040516020018082805190602001908083835b6020831061300a5780518252602082019150602081019050602083039250612fe7565b6001836020036101000a038019825116818451168082178552505050505050905001807f67616d6554696d65730000000000000000000000000000000000000000000000815250600901915050604051602081830303815290604052805190602001206040518363ffffffff1660e01b81526004018080602001838152602001828103825284818151815260200191508051906020019080838360005b838110156130c25780820151818401526020810190506130a7565b50505050905090810190601f1680156130ef5780820380516001836020036101000a031916815260200191505b50935050505060206040518083038186803b15801561310d57600080fd5b505afa158015613121573d6000803e3d6000fd5b505050506040513d602081101561313757600080fd5b8101908080519060200190929190505050905090565b6000600260009054906101000a900473ffffffffffffffffffffffffffffffffffffffff1673ffffffffffffffffffffffffffffffffffffffff166308acb5566040518060400160405280600d81526020017f47616d65566172416e64466565000000000000000000000000000000000000008152506040518060400160405280601281526020017f47616d65566172416e644665655461626c6500000000000000000000000000008152506040516020018082805190602001908083835b6020831061322f578051825260208201915060208101905060208303925061320c565b6001836020036101000a038019825116818451168082178552505050505050905001807f74696d65457874656e73696f6e00000000000000000000000000000000000000815250600d01915050604051602081830303815290604052805190602001206040518363ffffffff1660e01b81526004018080602001838152602001828103825284818151815260200191508051906020019080838360005b838110156132e75780820151818401526020810190506132cc565b50505050905090810190601f1680156133145780820380516001836020036101000a031916815260200191505b50935050505060206040518083038186803b15801561333257600080fd5b505afa158015613346573d6000803e3d6000fd5b505050506040513d602081101561335c57600080fd5b8101908080519060200190929190505050905090565b6000600260009054906101000a900473ffffffffffffffffffffffffffffffffffffffff1673ffffffffffffffffffffffffffffffffffffffff166308acb5566040518060400160405280600d81526020017f47616d65566172416e64466565000000000000000000000000000000000000008152506040518060400160405280601281526020017f47616d65566172416e644665655461626c6500000000000000000000000000008152506040516020018082805190602001908083835b602083106134545780518252602082019150602081019050602083039250613431565b6001836020036101000a038019825116818451168082178552505050505050905001807f62657474696e6746656500000000000000000000000000000000000000000000815250600a01915050604051602081830303815290604052805190602001206040518363ffffffff1660e01b81526004018080602001838152602001828103825284818151815260200191508051906020019080838360005b8381101561350c5780820151818401526020810190506134f1565b50505050905090810190601f1680156135395780820380516001836020036101000a031916815260200191505b50935050505060206040518083038186803b15801561355757600080fd5b505afa15801561356b573d6000803e3d6000fd5b505050506040513d602081101561358157600080fd5b8101908080519060200190929190505050905090565b6000600260009054906101000a900473ffffffffffffffffffffffffffffffffffffffff1673ffffffffffffffffffffffffffffffffffffffff166308acb5566040518060400160405280600d81526020017f47616d65566172416e64466565000000000000000000000000000000000000008152506040518060400160405280601281526020017f47616d65566172416e644665655461626c6500000000000000000000000000008152506040516020018082805190602001908083835b602083106136795780518252602082019150602081019050602083039250613656565b6001836020036101000a038019825116818451168082178552505050505050905001807f7469636b65744665650000000000000000000000000000000000000000000000815250600901915050604051602081830303815290604052805190602001206040518363ffffffff1660e01b81526004018080602001838152602001828103825284818151815260200191508051906020019080838360005b83811015613731578082015181840152602081019050613716565b50505050905090810190601f16801561375e5780820380516001836020036101000a031916815260200191505b50935050505060206040518083038186803b15801561377c57600080fd5b505afa158015613790573d6000803e3d6000fd5b505050506040513d60208110156137a657600080fd5b8101908080519060200190929190505050905090565b6000600260009054906101000a900473ffffffffffffffffffffffffffffffffffffffff1673ffffffffffffffffffffffffffffffffffffffff166308acb5566040518060400160405280600d81526020017f47616d65566172416e64466565000000000000000000000000000000000000008152506040518060400160405280601281526020017f47616d65566172416e644665655461626c6500000000000000000000000000008152506040516020018082805190602001908083835b6020831061389e578051825260208201915060208101905060208303925061387b565b6001836020036101000a038019825116818451168082178552505050505050905001807f6c697374696e6746656500000000000000000000000000000000000000000000815250600a01915050604051602081830303815290604052805190602001206040518363ffffffff1660e01b81526004018080602001838152602001828103825284818151815260200191508051906020019080838360005b8381101561395657808201518184015260208101905061393b565b50505050905090810190601f1680156139835780820380516001836020036101000a031916815260200191505b50935050505060206040518083038186803b1580156139a157600080fd5b505afa1580156139b5573d6000803e3d6000fd5b505050506040513d60208110156139cb57600080fd5b8101908080519060200190929190505050905090565b6000600260009054906101000a900473ffffffffffffffffffffffffffffffffffffffff1673ffffffffffffffffffffffffffffffffffffffff166308acb5566040518060400160405280600d81526020017f47616d65566172416e64466565000000000000000000000000000000000000008152506040518060400160405280601281526020017f47616d65566172416e644665655461626c6500000000000000000000000000008152506040516020018082805190602001908083835b60208310613ac35780518252602082019150602081019050602083039250613aa0565b6001836020036101000a038019825116818451168082178552505050505050905001807f67616d6550726573746172740000000000000000000000000000000000000000815250600c01915050604051602081830303815290604052805190602001206040518363ffffffff1660e01b81526004018080602001838152602001828103825284818151815260200191508051906020019080838360005b83811015613b7b578082015181840152602081019050613b60565b50505050905090810190601f168015613ba85780820380516001836020036101000a031916815260200191505b50935050505060206040518083038186803b158015613bc657600080fd5b505afa158015613bda573d6000803e3d6000fd5b505050506040513d6020811015613bf057600080fd5b8101908080519060200190929190505050905090565b6000600260009054906101000a900473ffffffffffffffffffffffffffffffffffffffff1673ffffffffffffffffffffffffffffffffffffffff166308acb5566040518060400160405280600d81526020017f47616d65566172416e64466565000000000000000000000000000000000000008152506040518060400160405280601281526020017f47616d65566172416e644665655461626c6500000000000000000000000000008152506040516020018082805190602001908083835b60208310613ce85780518252602082019150602081019050602083039250613cc5565b6001836020036101000a038019825116818451168082178552505050505050905001807f66696e616c697a65526577617264730000000000000000000000000000000000815250600f01915050604051602081830303815290604052805190602001206040518363ffffffff1660e01b81526004018080602001838152602001828103825284818151815260200191508051906020019080838360005b83811015613da0578082015181840152602081019050613d85565b50505050905090810190601f168015613dcd5780820380516001836020036101000a031916815260200191505b50935050505060206040518083038186803b158015613deb57600080fd5b505afa158015613dff573d6000803e3d6000fd5b505050506040513d6020811015613e1557600080fd5b8101908080519060200190929190505050905090565b6000809054906101000a900473ffffffffffffffffffffffffffffffffffffffff1673ffffffffffffffffffffffffffffffffffffffff163373ffffffffffffffffffffffffffffffffffffffff1614613e8157fe5b80600360006101000a81548173ffffffffffffffffffffffffffffffffffffffff021916908373ffffffffffffffffffffffffffffffffffffffff16021790555050565b600160009054906101000a900473ffffffffffffffffffffffffffffffffffffffff1681565b6000809054906101000a900473ffffffffffffffffffffffffffffffffffffffff1673ffffffffffffffffffffffffffffffffffffffff163373ffffffffffffffffffffffffffffffffffffffff1614613f4157fe5b600073ffffffffffffffffffffffffffffffffffffffff168173ffffffffffffffffffffffffffffffffffffffff1614613fb657806000806101000a81548173ffffffffffffffffffffffffffffffffffffffff021916908373ffffffffffffffffffffffffffffffffffffffff1602179055505b50565b600073ffffffffffffffffffffffffffffffffffffffff16600160009054906101000a900473ffffffffffffffffffffffffffffffffffffffff1673ffffffffffffffffffffffffffffffffffffffff16141561407e576040517f08c379a00000000000000000000000000000000000000000000000000000000081526004018080602001828103825260088152602001807f4e6f2050726f787900000000000000000000000000000000000000000000000081525060200191505060405180910390fd5b600160009054906101000a900473ffffffffffffffffffffffffffffffffffffffff1673ffffffffffffffffffffffffffffffffffffffff163373ffffffffffffffffffffffffffffffffffffffff1614614141576040517f08c379a00000000000000000000000000000000000000000000000000000000081526004018080602001828103825260128152602001807f4f6e6c79207468726f7567682050726f7879000000000000000000000000000081525060200191505060405180910390fd5b565b6000600160009054906101000a900473ffffffffffffffffffffffffffffffffffffffff1673ffffffffffffffffffffffffffffffffffffffff1663358177736040518060400160405280600681526020017f526f6c65444200000000000000000000000000000000000000000000000000008152506040518263ffffffff1660e01b81526004018080602001828103825283818151815260200191508051906020019080838360005b838110156142085780820151818401526020810190506141ed565b50505050905090810190601f1680156142355780820380516001836020036101000a031916815260200191505b509250505060206040518083038186803b15801561425257600080fd5b505afa158015614266573d6000803e3d6000fd5b505050506040513d602081101561427c57600080fd5b810190808051906020019092919050505073ffffffffffffffffffffffffffffffffffffffff16636c9cd097836142b1614552565b6040518363ffffffff1660e01b815260040180806020018373ffffffffffffffffffffffffffffffffffffffff1673ffffffffffffffffffffffffffffffffffffffff168152602001828103825284818151815260200191508051906020019080838360005b83811015614332578082015181840152602081019050614317565b50505050905090810190601f16801561435f5780820380516001836020036101000a031916815260200191505b50935050505060206040518083038186803b15801561437d57600080fd5b505afa158015614391573d6000803e3d6000fd5b505050506040513d60208110156143a757600080fd5b81019080805190602001909291905050509050919050565b60608060206040519080825280601f01601f1916602001820160405280156143f65781602001600182028038833980820191505090505b509050600080905060008090505b60208110156144a05760008160080260020a8660001c0260001b9050600060f81b817effffffffffffffffffffffffffffffffffffffffffffffffffffffffffffff191614614492578084848151811061445a57fe5b60200101907effffffffffffffffffffffffffffffffffffffffffffffffffffffffffffff1916908160001a90535082806001019350505b508080600101915050614404565b506060816040519080825280601f01601f1916602001820160405280156144d65781602001600182028038833980820191505090505b50905060008090505b82811015614546578381815181106144f357fe5b602001015160f81c60f81b82828151811061450a57fe5b60200101907effffffffffffffffffffffffffffffffffffffffffffffffffffffffffffff1916908160001a90535080806001019150506144df565b50809350505050919050565b6000600160009054906101000a900473ffffffffffffffffffffffffffffffffffffffff1673ffffffffffffffffffffffffffffffffffffffff163373ffffffffffffffffffffffffffffffffffffffff16146145b157339050614604565b6000601436036000602052601481602c37602051915050600073ffffffffffffffffffffffffffffffffffffffff168173ffffffffffffffffffffffffffffffffffffffff1614156145ff57fe5b809150505b90565b6040518060a0016040528060059060208202803883398082019150509050509056fea265627a7a723158208ebd27fd759db131b540f5f8d00158bd8b65eb2a58d33ba5bd16ac3c6807b99064736f6c634300050b0032",
  "source": "/**\n * @title GameVarAndFee\n *\n * @author @wafflemakr @hamaad\n *\n */\n//modifier class (DSAuth )\n//Event class ( DSNote )\n//\n// This program is free software: you can redistribute it and/or modify\n// it under the terms of the GNU General Public License as published by\n// the Free Software Foundation, either version 3 of the License, or\n// (at your option) any later version.\n\n// This program is distributed in the hope that it will be useful,\n// but WITHOUT ANY WARRANTY; without even the implied warranty of\n// MERCHANTABILITY or FITNESS FOR A PARTICULAR PURPOSE.  See the\n// GNU General Public License for more details.\n\n// You should have received a copy of the GNU General Public License\n// along with this program.  If not, see <http://www.gnu.org/licenses/>.\n\npragma solidity ^0.5.5;\n// pragma experimental ABIEncoderV2;\n\nimport './modules/databases/RoleDB.sol';\nimport './modules/databases/GenericDB.sol';\nimport \"./modules/proxy/Proxied.sol\";\nimport \"./authority/Guard.sol\";\nimport './misc/VarAndFeeNames.sol';\n\n/// @dev MakerDao eth-usd price medianizer\ncontract Medianizer {\n    function read() external view returns (bytes32);\n}\n\n/**\n * @title Contract that moderates the various fees, timing limits, expiry date/time,\n * schedules, eth allocation per game, token allocation per game, kittiehell\n * kittie expiration, time durations, distribution percentages e.t.c.\n * The note modifier will log event for each function call.\n * @dev One setter that is called from GameVarAndFeeProxy contract setters\n */\ncontract GameVarAndFee is Proxied, Guard, VarAndFeeNames {\n\n    string constant TABLE_NAME = \"GameVarAndFeeTable\";\n\n    // Declare DB type variable\n    GenericDB public genericDB;\n    Medianizer medianizer;\n\n    /// @notice Function called when deployed\n    /// @param _genericDB Address of deployed GeneriDB contract\n    constructor (GenericDB _genericDB, Medianizer _medianizer) public {\n        setGenericDB(_genericDB);\n        setMedianizer(_medianizer);\n    }\n\n    // kovanMedianizer = 0xA944bd4b25C9F186A846fd5668941AA3d3B8425F\n    // mainnetMedianizer = 0x729D19f657BD0614b4985Cf1D82531c67569197B\n    function setMedianizer(Medianizer _medianizer) public onlyOwner{\n       medianizer = Medianizer(_medianizer);\n    }\n\n    /// @notice Set genericDB variable to store data in contract\n    function setGenericDB(GenericDB _genericDB) public onlyOwner {\n        genericDB = _genericDB;\n    }\n\n    // ----- SETTERS ------\n\n    /// @dev set one variable at a time\n    function setVarAndFee(string calldata varName, uint value)\n        external onlyProxy onlySuperAdmin\n    {\n        bytes32 key = keccak256(abi.encodePacked(TABLE_NAME, varName));\n        genericDB.setUintStorage(CONTRACT_NAME_GAMEVARANDFEE, key, value);\n    }\n\n    /// @dev set multiple variables\n    function setMultipleValues(bytes32[] calldata names, uint[] calldata values)\n        external onlyProxy onlySuperAdmin\n    {\n        require(names.length == values.length);\n        bytes32 key;\n        for(uint i = 0; i < names.length; i++){\n            key = keccak256(abi.encodePacked(TABLE_NAME, bytes32ToString(names[i])));\n            genericDB.setUintStorage(CONTRACT_NAME_GAMEVARANDFEE, key, values[i]);\n        }\n    }\n\n    function bytes32ToString(bytes32 x) internal pure returns (string memory) {\n        bytes memory bytesString = new bytes(32);\n        uint charCount = 0;\n        for (uint j = 0; j < 32; j++) {\n            byte char = byte(bytes32(uint(x) * 2 ** (8 * j)));\n            if (char != 0) {\n                bytesString[charCount] = char;\n                charCount++;\n            }\n        }\n        bytes memory bytesStringTrimmed = new bytes(charCount);\n        for (uint j = 0; j < charCount; j++) {\n            bytesStringTrimmed[j] = bytesString[j];\n        }\n        return string(bytesStringTrimmed);\n    }\n\n\n    // ----- GETTERS ------\n\n    /// @notice FrontEnd Global Getter\n    function getGlobalSettings() public view    \n        returns(uint[5] memory, uint, uint, uint, uint, uint, uint, uint)\n    {\n        return(getDistributionRates(),getListingFee(),getTicketFee(), getBettingFee(),\n            getKittieRedemptionFee(), getGamePrestart(), getGameDuration(), getKittieExpiry());\n    }\n\n    /// @notice get eth/usd current price\n    function getEthUsdPrice() public view returns(uint){\n        return uint256(medianizer.read());\n    }\n        \n    /// @notice Gets the number of matches that are set by Scheduler every time (i.e. 20 kitties, 10 matches)\n    function getRequiredNumberMatches() \n    public view returns(uint) { \n        return genericDB.getUintStorage(CONTRACT_NAME_GAMEVARANDFEE, REQUIRED_NUMBER_MATCHES);\n    }\n    \n    /// @notice Gets countdown time for players to start game (i.e. 120).\n    function getGamePrestart() \n    public view returns(uint) {\n        return genericDB.getUintStorage(CONTRACT_NAME_GAMEVARANDFEE, GAME_PRESTART);\n    }\n    \n    /// @notice Gets Game duration, how long a game lasts\n    function getGameDuration() \n    public view returns(uint) {\n        return genericDB.getUintStorage(CONTRACT_NAME_GAMEVARANDFEE, GAME_DURATION);\n    }\n    \n    /// @notice Gets how long to wait for payment for kittie in kittiehell before kittie is lost forever \n    function getKittieExpiry() \n    public view returns(uint) {\n        return genericDB.getUintStorage(CONTRACT_NAME_GAMEVARANDFEE, KITTIE_HELL_EXPIRATION);\n    }\n    \n    /// @notice Gets the time at which honey pot will be dissolved,after a game is over, used by time contract at end of gameduration\n    function getHoneypotExpiration() \n    public view returns(uint) {\n        return genericDB.getUintStorage(CONTRACT_NAME_GAMEVARANDFEE, HONEY_POT_EXPIRATION);\n    }\n    \n    /// @notice Gets mount of initial KTY Tokens allowed to be drawn from EndowmentFund to be allocated to game\n    function getTokensPerGame() \n    public view returns(uint) {\n        return genericDB.getUintStorage(CONTRACT_NAME_GAMEVARANDFEE, TOKENS_PER_GAME);\n    }\n    \n    /// @notice Gets Amount of initial ETH allowed to be drawn from EndowmentFund to be allocated to game\n    function getEthPerGame() \n    public view returns(uint) {\n        return genericDB.getUintStorage(CONTRACT_NAME_GAMEVARANDFEE, ETH_PER_GAME);\n    }\n    \n    /// @notice Gets Times duration between each game per day\n    function getGameTimes() \n    public view returns(uint) {\n        return genericDB.getUintStorage(CONTRACT_NAME_GAMEVARANDFEE, GAME_TIMES);\n    }\n    \n    /// @notice Gets Distribution Rates\n    function getDistributionRates() \n    public view returns(uint[5] memory rates) {\n                \n        rates[0] = genericDB.getUintStorage(CONTRACT_NAME_GAMEVARANDFEE, WINNING_KITTIE);\n        \n        rates[1] = genericDB.getUintStorage(CONTRACT_NAME_GAMEVARANDFEE, TOP_BETTOR);\n        \n        rates[2] = genericDB.getUintStorage(CONTRACT_NAME_GAMEVARANDFEE, SECOND_RUNNER_UP);\n        \n        rates[3] = genericDB.getUintStorage(CONTRACT_NAME_GAMEVARANDFEE, OTHER_BETTORS);\n        \n        rates[4] = genericDB.getUintStorage(CONTRACT_NAME_GAMEVARANDFEE, ENDOWNMENT);\n    }\n\n    /// @notice Gets fee for players to list kitties for matching in fights\n    function getListingFee() \n    public view returns(uint) {\n        return genericDB.getUintStorage(CONTRACT_NAME_GAMEVARANDFEE, LISTING_FEE);\n    }\n\n    /// @notice Gets ticket fee in KTY for betting participators\n    function getTicketFee() \n    public view returns(uint) {\n        return genericDB.getUintStorage(CONTRACT_NAME_GAMEVARANDFEE, TICKET_FEE);\n    }\n\n    /// @notice Gets betting fee in KTY for betting participators\n    function getBettingFee() \n    public view returns(uint) {\n        return genericDB.getUintStorage(CONTRACT_NAME_GAMEVARANDFEE, BETTING_FEE);\n    }\n\n    /// @notice Gets kittieHELL redemption fee in KTY for redeeming kitties\n    function getKittieRedemptionFee() \n    public view returns(uint) {\n        return genericDB.getUintStorage(CONTRACT_NAME_GAMEVARANDFEE, KITTIE_REDEMPTION_FEE);\n    }\n    \n    /// @notice Gets minimum contributors needed for the game to continue\n    function getMinimumContributors() \n    public view returns(uint) {\n        return genericDB.getUintStorage(CONTRACT_NAME_GAMEVARANDFEE, MINIMUM_CONTRIBUTORS);\n    }\n\n    /// @notice Gets the amount of KTY rewarded to the user that hits finalize button\n    function getFinalizeRewards() \n    public view returns(uint) {\n        return genericDB.getUintStorage(CONTRACT_NAME_GAMEVARANDFEE, FINALIZE_REWARDS);\n    }\n\n    /// @notice Gets the time before a game ends that the check performance should act\n    function getPerformanceTimeCheck() \n    public view returns(uint) {\n        return genericDB.getUintStorage(CONTRACT_NAME_GAMEVARANDFEE, PERFORMANCE_TIME_CHECK);\n    }\n\n    /// @notice Gets the amount of time to add when game is underperformant\n    function getTimeExtension() \n    public view returns(uint) {\n        return genericDB.getUintStorage(CONTRACT_NAME_GAMEVARANDFEE, TIME_EXTENSION);\n    }\n\n}\n",
  "sourcePath": "/home/wafflemakr/Desktop/KittieFight/alpha/contracts/GameVarAndFee.sol",
  "compiler": {
    "name": "solc",
    "version": "0.5.11+commit.c082d0b4.Emscripten.clang"
  },
  "schemaVersion": "3.0.11",
  "updatedAt": "2019-08-18T18:46:02.670Z",
  "devdoc": {
    "details": "One setter that is called from GameVarAndFeeProxy contract setters",
    "methods": {
      "constructor": {
        "params": {
          "_genericDB": "Address of deployed GeneriDB contract"
        }
      },
      "setMultipleValues(bytes32[],uint256[])": {
        "details": "set multiple variables"
      },
      "setVarAndFee(string,uint256)": {
        "details": "set one variable at a time"
      }
    },
    "title": "Contract that moderates the various fees, timing limits, expiry date/time, schedules, eth allocation per game, token allocation per game, kittiehell kittie expiration, time durations, distribution percentages e.t.c. The note modifier will log event for each function call."
  },
  "userdoc": {
    "methods": {
      "constructor": "Function called when deployed",
      "getBettingFee()": {
        "notice": "Gets betting fee in KTY for betting participators"
      },
      "getDistributionRates()": {
        "notice": "Gets Distribution Rates"
      },
      "getEthPerGame()": {
        "notice": "Gets Amount of initial ETH allowed to be drawn from EndowmentFund to be allocated to game"
      },
      "getEthUsdPrice()": {
        "notice": "get eth/usd current price"
      },
      "getFinalizeRewards()": {
        "notice": "Gets the amount of KTY rewarded to the user that hits finalize button"
      },
      "getGameDuration()": {
        "notice": "Gets Game duration, how long a game lasts"
      },
      "getGamePrestart()": {
        "notice": "Gets countdown time for players to start game (i.e. 120)."
      },
      "getGameTimes()": {
        "notice": "Gets Times duration between each game per day"
      },
      "getGlobalSettings()": {
        "notice": "FrontEnd Global Getter"
      },
      "getHoneypotExpiration()": {
        "notice": "Gets the time at which honey pot will be dissolved,after a game is over, used by time contract at end of gameduration"
      },
      "getKittieExpiry()": {
        "notice": "Gets how long to wait for payment for kittie in kittiehell before kittie is lost forever "
      },
      "getKittieRedemptionFee()": {
        "notice": "Gets kittieHELL redemption fee in KTY for redeeming kitties"
      },
      "getListingFee()": {
        "notice": "Gets fee for players to list kitties for matching in fights"
      },
      "getMinimumContributors()": {
        "notice": "Gets minimum contributors needed for the game to continue"
      },
      "getPerformanceTimeCheck()": {
        "notice": "Gets the time before a game ends that the check performance should act"
      },
      "getRequiredNumberMatches()": {
        "notice": "Gets the number of matches that are set by Scheduler every time (i.e. 20 kitties, 10 matches)"
      },
      "getTicketFee()": {
        "notice": "Gets ticket fee in KTY for betting participators"
      },
      "getTimeExtension()": {
        "notice": "Gets the amount of time to add when game is underperformant"
      },
      "getTokensPerGame()": {
        "notice": "Gets mount of initial KTY Tokens allowed to be drawn from EndowmentFund to be allocated to game"
      },
      "setGenericDB(address)": {
        "notice": "Set genericDB variable to store data in contract"
      },
      "setProxy(address)": {
        "notice": "Set/update address of Proxy contract"
      }
    }
  }
}