{
  "contractName": "GameStore",
  "abi": [
    {
      "constant": true,
      "inputs": [
        {
          "internalType": "uint256",
          "name": "",
          "type": "uint256"
        }
      ],
      "name": "gameSettings",
      "outputs": [
        {
          "internalType": "uint256",
          "name": "bettingFee",
          "type": "uint256"
        },
        {
          "internalType": "uint256",
          "name": "ticketFee",
          "type": "uint256"
        },
        {
          "internalType": "uint256",
          "name": "redemptionFee",
          "type": "uint256"
        },
        {
          "internalType": "uint256",
          "name": "kittieHellExpirationTime",
          "type": "uint256"
        },
        {
          "internalType": "uint256",
          "name": "honeypotExpirationTime",
          "type": "uint256"
        },
        {
          "internalType": "uint256",
          "name": "minimumContributors",
          "type": "uint256"
        },
        {
          "internalType": "uint256",
          "name": "finalizeRewards",
          "type": "uint256"
        }
      ],
      "payable": false,
      "stateMutability": "view",
      "type": "function"
    },
    {
      "constant": true,
      "inputs": [],
      "name": "gmGetterDB",
      "outputs": [
        {
          "internalType": "contract GMGetterDB",
          "name": "",
          "type": "address"
        }
      ],
      "payable": false,
      "stateMutability": "view",
      "type": "function"
    },
    {
      "constant": true,
      "inputs": [],
      "name": "hitsResolve",
      "outputs": [
        {
          "internalType": "contract HitsResolve",
          "name": "",
          "type": "address"
        }
      ],
      "payable": false,
      "stateMutability": "view",
      "type": "function"
    },
    {
      "constant": true,
      "inputs": [],
      "name": "owner",
      "outputs": [
        {
          "internalType": "address payable",
          "name": "",
          "type": "address"
        }
      ],
      "payable": false,
      "stateMutability": "view",
      "type": "function"
    },
    {
      "constant": false,
      "inputs": [
        {
          "internalType": "contract ProxyBase",
          "name": "_proxy",
          "type": "address"
        }
      ],
      "name": "setProxy",
      "outputs": [],
      "payable": false,
      "stateMutability": "nonpayable",
      "type": "function"
    },
    {
      "constant": true,
      "inputs": [],
      "name": "gameVarAndFee",
      "outputs": [
        {
          "internalType": "contract GameVarAndFee",
          "name": "",
          "type": "address"
        }
      ],
      "payable": false,
      "stateMutability": "view",
      "type": "function"
    },
    {
      "constant": true,
      "inputs": [
        {
          "internalType": "uint256",
          "name": "",
          "type": "uint256"
        },
        {
          "internalType": "address",
          "name": "",
          "type": "address"
        }
      ],
      "name": "gameByPlayer",
      "outputs": [
        {
          "internalType": "uint256",
          "name": "randomNum",
          "type": "uint256"
        },
        {
          "internalType": "bool",
          "name": "pressedStart",
          "type": "bool"
        },
        {
          "internalType": "address",
          "name": "topBettor",
          "type": "address"
        },
        {
          "internalType": "address",
          "name": "secondTopBettor",
          "type": "address"
        }
      ],
      "payable": false,
      "stateMutability": "view",
      "type": "function"
    },
    {
      "constant": true,
      "inputs": [],
      "name": "proxy",
      "outputs": [
        {
          "internalType": "contract ProxyBase",
          "name": "",
          "type": "address"
        }
      ],
      "payable": false,
      "stateMutability": "view",
      "type": "function"
    },
    {
      "constant": false,
      "inputs": [
        {
          "internalType": "address payable",
          "name": "newOwner",
          "type": "address"
        }
      ],
      "name": "transferOwnership",
      "outputs": [],
      "payable": false,
      "stateMutability": "nonpayable",
      "type": "function"
    },
    {
      "constant": false,
      "inputs": [],
      "name": "initialize",
      "outputs": [],
      "payable": false,
      "stateMutability": "nonpayable",
      "type": "function"
    },
    {
      "constant": false,
      "inputs": [
        {
          "internalType": "uint256",
          "name": "gameId",
          "type": "uint256"
        }
      ],
      "name": "lockVars",
      "outputs": [],
      "payable": false,
      "stateMutability": "nonpayable",
      "type": "function"
    },
    {
      "constant": true,
      "inputs": [
        {
          "internalType": "uint256",
          "name": "gameId",
          "type": "uint256"
        }
      ],
      "name": "getDistributionRates",
      "outputs": [
        {
          "internalType": "uint256[5]",
          "name": "",
          "type": "uint256[5]"
        }
      ],
      "payable": false,
      "stateMutability": "view",
      "type": "function"
    },
    {
      "constant": true,
      "inputs": [
        {
          "internalType": "uint256",
          "name": "gameId",
          "type": "uint256"
        }
      ],
      "name": "getKittieExpirationTime",
      "outputs": [
        {
          "internalType": "uint256",
          "name": "",
          "type": "uint256"
        }
      ],
      "payable": false,
      "stateMutability": "view",
      "type": "function"
    },
    {
      "constant": true,
      "inputs": [
        {
          "internalType": "uint256",
          "name": "gameId",
          "type": "uint256"
        }
      ],
      "name": "getKittieRedemptionFee",
      "outputs": [
        {
          "internalType": "uint256",
          "name": "",
          "type": "uint256"
        }
      ],
      "payable": false,
      "stateMutability": "view",
      "type": "function"
    },
    {
      "constant": true,
      "inputs": [
        {
          "internalType": "uint256",
          "name": "gameId",
          "type": "uint256"
        }
      ],
      "name": "getHoneypotExpiration",
      "outputs": [
        {
          "internalType": "uint256",
          "name": "",
          "type": "uint256"
        }
      ],
      "payable": false,
      "stateMutability": "view",
      "type": "function"
    },
    {
      "constant": false,
      "inputs": [
        {
          "internalType": "uint256",
          "name": "gameId",
          "type": "uint256"
        },
        {
          "internalType": "address",
          "name": "player",
          "type": "address"
        },
        {
          "internalType": "uint256",
          "name": "randomNum",
          "type": "uint256"
        }
      ],
      "name": "start",
      "outputs": [],
      "payable": false,
      "stateMutability": "nonpayable",
      "type": "function"
    },
    {
      "constant": true,
      "inputs": [
        {
          "internalType": "uint256",
          "name": "gameId",
          "type": "uint256"
        },
        {
          "internalType": "address",
          "name": "player",
          "type": "address"
        }
      ],
      "name": "didHitStart",
      "outputs": [
        {
          "internalType": "bool",
          "name": "",
          "type": "bool"
        }
      ],
      "payable": false,
      "stateMutability": "view",
      "type": "function"
    },
    {
      "constant": true,
      "inputs": [
        {
          "internalType": "uint256",
          "name": "gameId",
          "type": "uint256"
        },
        {
          "internalType": "address",
          "name": "player",
          "type": "address"
        }
      ],
      "name": "getRandom",
      "outputs": [
        {
          "internalType": "uint256",
          "name": "",
          "type": "uint256"
        }
      ],
      "payable": false,
      "stateMutability": "view",
      "type": "function"
    },
    {
      "constant": false,
      "inputs": [
        {
          "internalType": "uint256",
          "name": "gameId",
          "type": "uint256"
        },
        {
          "internalType": "address",
          "name": "player",
          "type": "address"
        },
        {
          "internalType": "address",
          "name": "newTopBettor",
          "type": "address"
        }
      ],
      "name": "updateTopBettor",
      "outputs": [],
      "payable": false,
      "stateMutability": "nonpayable",
      "type": "function"
    },
    {
      "constant": true,
      "inputs": [
        {
          "internalType": "uint256",
          "name": "gameId",
          "type": "uint256"
        },
        {
          "internalType": "address",
          "name": "player",
          "type": "address"
        }
      ],
      "name": "getTopBettor",
      "outputs": [
        {
          "internalType": "address",
          "name": "",
          "type": "address"
        }
      ],
      "payable": false,
      "stateMutability": "view",
      "type": "function"
    },
    {
      "constant": false,
      "inputs": [
        {
          "internalType": "uint256",
          "name": "gameId",
          "type": "uint256"
        },
        {
          "internalType": "address",
          "name": "player",
          "type": "address"
        },
        {
          "internalType": "address",
          "name": "newSecondTopBettor",
          "type": "address"
        }
      ],
      "name": "updateSecondTopBettor",
      "outputs": [],
      "payable": false,
      "stateMutability": "nonpayable",
      "type": "function"
    },
    {
      "constant": true,
      "inputs": [
        {
          "internalType": "uint256",
          "name": "gameId",
          "type": "uint256"
        },
        {
          "internalType": "address",
          "name": "player",
          "type": "address"
        }
      ],
      "name": "getSecondTopBettor",
      "outputs": [
        {
          "internalType": "address",
          "name": "",
          "type": "address"
        }
      ],
      "payable": false,
      "stateMutability": "view",
      "type": "function"
    },
    {
      "constant": true,
      "inputs": [
        {
          "internalType": "uint256",
          "name": "gameId",
          "type": "uint256"
        }
      ],
      "name": "getTicketFee",
      "outputs": [
        {
          "internalType": "uint256",
          "name": "",
          "type": "uint256"
        }
      ],
      "payable": false,
      "stateMutability": "view",
      "type": "function"
    },
    {
      "constant": true,
      "inputs": [
        {
          "internalType": "uint256",
          "name": "gameId",
          "type": "uint256"
        }
      ],
      "name": "getBettingFee",
      "outputs": [
        {
          "internalType": "uint256",
          "name": "",
          "type": "uint256"
        }
      ],
      "payable": false,
      "stateMutability": "view",
      "type": "function"
    },
    {
      "constant": true,
      "inputs": [
        {
          "internalType": "uint256",
          "name": "gameId",
          "type": "uint256"
        }
      ],
      "name": "getMinimumContributors",
      "outputs": [
        {
          "internalType": "uint256",
          "name": "",
          "type": "uint256"
        }
      ],
      "payable": false,
      "stateMutability": "view",
      "type": "function"
    },
    {
      "constant": true,
      "inputs": [
        {
          "internalType": "uint256",
          "name": "gameId",
          "type": "uint256"
        }
      ],
      "name": "getFinalizeRewards",
      "outputs": [
        {
          "internalType": "uint256",
          "name": "",
          "type": "uint256"
        }
      ],
      "payable": false,
      "stateMutability": "view",
      "type": "function"
    },
    {
      "constant": false,
      "inputs": [
        {
          "internalType": "uint256",
          "name": "_gameId",
          "type": "uint256"
        },
        {
          "internalType": "address",
          "name": "_account",
          "type": "address"
        },
        {
          "internalType": "address",
          "name": "_supportedPlayer",
          "type": "address"
        }
      ],
      "name": "updateTopbettors",
      "outputs": [],
      "payable": false,
      "stateMutability": "nonpayable",
      "type": "function"
    },
    {
      "constant": true,
      "inputs": [
        {
          "internalType": "uint256",
          "name": "gameId",
          "type": "uint256"
        },
        {
          "internalType": "address",
          "name": "player",
          "type": "address"
        }
      ],
      "name": "getOpponent",
      "outputs": [
        {
          "internalType": "address",
          "name": "",
          "type": "address"
        }
      ],
      "payable": false,
      "stateMutability": "view",
      "type": "function"
    },
    {
      "constant": true,
      "inputs": [
        {
          "internalType": "uint256",
          "name": "gameId",
          "type": "uint256"
        },
        {
          "internalType": "address",
          "name": "player",
          "type": "address"
        }
      ],
      "name": "getCorner",
      "outputs": [
        {
          "internalType": "uint256",
          "name": "",
          "type": "uint256"
        }
      ],
      "payable": false,
      "stateMutability": "view",
      "type": "function"
    },
    {
      "constant": true,
      "inputs": [
        {
          "internalType": "uint256",
          "name": "gameId",
          "type": "uint256"
        },
        {
          "internalType": "address",
          "name": "playerBlack",
          "type": "address"
        },
        {
          "internalType": "address",
          "name": "playerRed",
          "type": "address"
        },
        {
          "internalType": "uint256",
          "name": "random",
          "type": "uint256"
        }
      ],
      "name": "calculateWinner",
      "outputs": [
        {
          "internalType": "address",
          "name": "winner",
          "type": "address"
        },
        {
          "internalType": "address",
          "name": "loser",
          "type": "address"
        },
        {
          "internalType": "uint256",
          "name": "pointsBlack",
          "type": "uint256"
        },
        {
          "internalType": "uint256",
          "name": "pointsRed",
          "type": "uint256"
        }
      ],
      "payable": false,
      "stateMutability": "view",
      "type": "function"
    },
    {
      "constant": false,
      "inputs": [
        {
          "internalType": "uint256",
          "name": "gameId",
          "type": "uint256"
        },
        {
          "internalType": "uint256",
          "name": "gameEndTime",
          "type": "uint256"
        }
      ],
      "name": "checkPerformanceHelper",
      "outputs": [
        {
          "internalType": "bool",
          "name": "",
          "type": "bool"
        }
      ],
      "payable": false,
      "stateMutability": "nonpayable",
      "type": "function"
    }
  ],
  "bytecode": "0x6080604052336000806101000a81548173ffffffffffffffffffffffffffffffffffffffff021916908373ffffffffffffffffffffffffffffffffffffffff160217905550613486806100536000396000f3fe608060405234801561001057600080fd5b50600436106101e55760003560e01c80636e47c6351161010f578063c02c8ed7116100a2578063ec55688911610071578063ec55688914610c20578063f2fde38b14610c6a578063f58f32cf14610cae578063f9ccbdf214610cf0576101e5565b8063c02c8ed714610a11578063c97d996914610a53578063cefc482614610ac1578063ebff754a14610bba576101e5565b806397107d6d116100de57806397107d6d1461086e578063a3b3bd7b146108b2578063aa84869f146108fc578063b83d8c521461093e576101e5565b80636e47c6351461076e5780638129fc1c146107d05780638ad7877a146107da5780638da5cb5b14610824576101e5565b80632fab9fd3116101875780633c38d0a9116101565780633c38d0a9146105c657806353d820f9146106085780635f87206d146106765780636991b5bf14610704576101e5565b80632fab9fd31461047857806331856c71146104c857806331fa70671461050a5780633422476d14610598576101e5565b8063158d39cb116101c3578063158d39cb1461030657806316805a291461035e5780631fc75180146103ec5780632992029914610436576101e5565b806305931a3c146101ea5780630bc644f5146102565780630d1fd67a146102c4575b600080fd5b6102166004803603602081101561020057600080fd5b8101908080359060200190929190505050610d52565b6040518088815260200187815260200186815260200185815260200184815260200183815260200182815260200197505050505050505060405180910390f35b6102c26004803603606081101561026c57600080fd5b8101908080359060200190929190803573ffffffffffffffffffffffffffffffffffffffff169060200190929190803573ffffffffffffffffffffffffffffffffffffffff169060200190929190505050610d94565b005b6102f0600480360360208110156102da57600080fd5b8101908080359060200190929190505050611348565b6040518082815260200191505060405180910390f35b61035c6004803603606081101561031c57600080fd5b8101908080359060200190929190803573ffffffffffffffffffffffffffffffffffffffff16906020019092919080359060200190929190505050611368565b005b6103aa6004803603604081101561037457600080fd5b8101908080359060200190929190803573ffffffffffffffffffffffffffffffffffffffff169060200190929190505050611471565b604051808273ffffffffffffffffffffffffffffffffffffffff1673ffffffffffffffffffffffffffffffffffffffff16815260200191505060405180910390f35b6103f46114ef565b604051808273ffffffffffffffffffffffffffffffffffffffff1673ffffffffffffffffffffffffffffffffffffffff16815260200191505060405180910390f35b6104626004803603602081101561044c57600080fd5b8101908080359060200190929190505050611515565b6040518082815260200191505060405180910390f35b6104ae6004803603604081101561048e57600080fd5b810190808035906020019092919080359060200190929190505050611535565b604051808215151515815260200191505060405180910390f35b6104f4600480360360208110156104de57600080fd5b810190808035906020019092919050505061168c565b6040518082815260200191505060405180910390f35b6105566004803603604081101561052057600080fd5b8101908080359060200190929190803573ffffffffffffffffffffffffffffffffffffffff1690602001909291905050506116ac565b604051808273ffffffffffffffffffffffffffffffffffffffff1673ffffffffffffffffffffffffffffffffffffffff16815260200191505060405180910390f35b6105c4600480360360208110156105ae57600080fd5b81019080803590602001909291905050506117cd565b005b6105f2600480360360208110156105dc57600080fd5b8101908080359060200190929190505050611df3565b6040518082815260200191505060405180910390f35b6106746004803603606081101561061e57600080fd5b8101908080359060200190929190803573ffffffffffffffffffffffffffffffffffffffff169060200190929190803573ffffffffffffffffffffffffffffffffffffffff169060200190929190505050611e13565b005b6106c26004803603604081101561068c57600080fd5b8101908080359060200190929190803573ffffffffffffffffffffffffffffffffffffffff169060200190929190505050611eea565b604051808273ffffffffffffffffffffffffffffffffffffffff1673ffffffffffffffffffffffffffffffffffffffff16815260200191505060405180910390f35b6107306004803603602081101561071a57600080fd5b8101908080359060200190929190505050611f68565b6040518082600560200280838360005b8381101561075b578082015181840152602081019050610740565b5050505090500191505060405180910390f35b6107ba6004803603604081101561078457600080fd5b8101908080359060200190929190803573ffffffffffffffffffffffffffffffffffffffff169060200190929190505050611fc9565b6040518082815260200191505060405180910390f35b6107d8612027565b005b6107e2612517565b604051808273ffffffffffffffffffffffffffffffffffffffff1673ffffffffffffffffffffffffffffffffffffffff16815260200191505060405180910390f35b61082c61253d565b604051808273ffffffffffffffffffffffffffffffffffffffff1673ffffffffffffffffffffffffffffffffffffffff16815260200191505060405180910390f35b6108b06004803603602081101561088457600080fd5b81019080803573ffffffffffffffffffffffffffffffffffffffff169060200190929190505050612562565b005b6108ba6125fc565b604051808273ffffffffffffffffffffffffffffffffffffffff1673ffffffffffffffffffffffffffffffffffffffff16815260200191505060405180910390f35b6109286004803603602081101561091257600080fd5b8101908080359060200190929190505050612622565b6040518082815260200191505060405180910390f35b61098a6004803603604081101561095457600080fd5b8101908080359060200190929190803573ffffffffffffffffffffffffffffffffffffffff169060200190929190505050612642565b60405180858152602001841515151581526020018373ffffffffffffffffffffffffffffffffffffffff1673ffffffffffffffffffffffffffffffffffffffff1681526020018273ffffffffffffffffffffffffffffffffffffffff1673ffffffffffffffffffffffffffffffffffffffff16815260200194505050505060405180910390f35b610a3d60048036036020811015610a2757600080fd5b81019080803590602001909291905050506126cc565b6040518082815260200191505060405180910390f35b610abf60048036036060811015610a6957600080fd5b8101908080359060200190929190803573ffffffffffffffffffffffffffffffffffffffff169060200190929190803573ffffffffffffffffffffffffffffffffffffffff1690602001909291905050506126ec565b005b610b3760048036036080811015610ad757600080fd5b8101908080359060200190929190803573ffffffffffffffffffffffffffffffffffffffff169060200190929190803573ffffffffffffffffffffffffffffffffffffffff169060200190929190803590602001909291905050506127c3565b604051808573ffffffffffffffffffffffffffffffffffffffff1673ffffffffffffffffffffffffffffffffffffffff1681526020018473ffffffffffffffffffffffffffffffffffffffff1673ffffffffffffffffffffffffffffffffffffffff16815260200183815260200182815260200194505050505060405180910390f35b610c0660048036036040811015610bd057600080fd5b8101908080359060200190929190803573ffffffffffffffffffffffffffffffffffffffff169060200190929190505050612d44565b604051808215151515815260200191505060405180910390f35b610c28612daf565b604051808273ffffffffffffffffffffffffffffffffffffffff1673ffffffffffffffffffffffffffffffffffffffff16815260200191505060405180910390f35b610cac60048036036020811015610c8057600080fd5b81019080803573ffffffffffffffffffffffffffffffffffffffff169060200190929190505050612dd5565b005b610cda60048036036020811015610cc457600080fd5b8101908080359060200190929190505050612ea3565b6040518082815260200191505060405180910390f35b610d3c60048036036040811015610d0657600080fd5b8101908080359060200190929190803573ffffffffffffffffffffffffffffffffffffffff169060200190929190505050612ec3565b6040518082815260200191505060405180910390f35b60066020528060005260406000206000915090508060000154908060010154908060020154908060030154908060040154908060050154908060060154905087565b6040518060400160405280600b81526020017f47616d654d616e61676572000000000000000000000000000000000000000000815250610dd381613025565b6000610ddf8584611471565b90506000600360009054906101000a900473ffffffffffffffffffffffffffffffffffffffff1673ffffffffffffffffffffffffffffffffffffffff16630b154c9687876040518363ffffffff1660e01b8152600401808381526020018273ffffffffffffffffffffffffffffffffffffffff1673ffffffffffffffffffffffffffffffffffffffff1681526020019250505060806040518083038186803b158015610e8a57600080fd5b505afa158015610e9e573d6000803e3d6000fd5b505050506040513d6080811015610eb457600080fd5b810190808051906020019092919080519060200190929190805190602001909291908051906020019092919050505050505090506000600360009054906101000a900473ffffffffffffffffffffffffffffffffffffffff1673ffffffffffffffffffffffffffffffffffffffff16630b154c9688856040518363ffffffff1660e01b8152600401808381526020018273ffffffffffffffffffffffffffffffffffffffff1673ffffffffffffffffffffffffffffffffffffffff1681526020019250505060806040518083038186803b158015610f9157600080fd5b505afa158015610fa5573d6000803e3d6000fd5b505050506040513d6080811015610fbb57600080fd5b810190808051906020019092919080519060200190929190805190602001909291908051906020019092919050505050505090508573ffffffffffffffffffffffffffffffffffffffff168373ffffffffffffffffffffffffffffffffffffffff161461133f578082111561115357856005600089815260200190815260200160002060008773ffffffffffffffffffffffffffffffffffffffff1673ffffffffffffffffffffffffffffffffffffffff16815260200190815260200160002060010160016101000a81548173ffffffffffffffffffffffffffffffffffffffff021916908373ffffffffffffffffffffffffffffffffffffffff160217905550826005600089815260200190815260200160002060008773ffffffffffffffffffffffffffffffffffffffff1673ffffffffffffffffffffffffffffffffffffffff16815260200190815260200160002060020160006101000a81548173ffffffffffffffffffffffffffffffffffffffff021916908373ffffffffffffffffffffffffffffffffffffffff16021790555061133e565b600061115f8887611eea565b90506000600360009054906101000a900473ffffffffffffffffffffffffffffffffffffffff1673ffffffffffffffffffffffffffffffffffffffff16630b154c968a846040518363ffffffff1660e01b8152600401808381526020018273ffffffffffffffffffffffffffffffffffffffff1673ffffffffffffffffffffffffffffffffffffffff1681526020019250505060806040518083038186803b15801561120a57600080fd5b505afa15801561121e573d6000803e3d6000fd5b505050506040513d608081101561123457600080fd5b8101908080519060200190929190805190602001909291908051906020019092919080519060200190929190505050505050905080841180156112a357508773ffffffffffffffffffffffffffffffffffffffff168273ffffffffffffffffffffffffffffffffffffffff1614155b1561133b5787600560008b815260200190815260200160002060008973ffffffffffffffffffffffffffffffffffffffff1673ffffffffffffffffffffffffffffffffffffffff16815260200190815260200160002060020160006101000a81548173ffffffffffffffffffffffffffffffffffffffff021916908373ffffffffffffffffffffffffffffffffffffffff1602179055505b50505b5b50505050505050565b600060066000838152602001908152602001600020600401549050919050565b6040518060400160405280600b81526020017f47616d654d616e616765720000000000000000000000000000000000000000008152506113a781613025565b60016005600086815260200190815260200160002060008573ffffffffffffffffffffffffffffffffffffffff1673ffffffffffffffffffffffffffffffffffffffff16815260200190815260200160002060010160006101000a81548160ff021916908315150217905550816005600086815260200190815260200160002060008573ffffffffffffffffffffffffffffffffffffffff1673ffffffffffffffffffffffffffffffffffffffff1681526020019081526020016000206000018190555050505050565b60006005600084815260200190815260200160002060008373ffffffffffffffffffffffffffffffffffffffff1673ffffffffffffffffffffffffffffffffffffffff16815260200190815260200160002060010160019054906101000a900473ffffffffffffffffffffffffffffffffffffffff16905092915050565b600360009054906101000a900473ffffffffffffffffffffffffffffffffffffffff1681565b600060066000838152602001908152602001600020600201549050919050565b60004261154c6005846132c090919063ffffffff16565b1161168557600080600360009054906101000a900473ffffffffffffffffffffffffffffffffffffffff1673ffffffffffffffffffffffffffffffffffffffff1663589ac6a4866040518263ffffffff1660e01b8152600401808281526020019150506101006040518083038186803b1580156115c857600080fd5b505afa1580156115dc573d6000803e3d6000fd5b505050506040513d601f19601f8201168201806040525061010081101561160257600080fd5b81019080805190602001909291908051906020019092919080519060200190929190805190602001909291909190826040018051906020019092919080519060200190929190505050505050935093505050611668600a836132d790919063ffffffff16565b81101561167a57600192505050611686565b600092505050611686565b5b92915050565b600060066000838152602001908152602001600020600501549050919050565b6000806000600360009054906101000a900473ffffffffffffffffffffffffffffffffffffffff1673ffffffffffffffffffffffffffffffffffffffff166315a40f49866040518263ffffffff1660e01b81526004018082815260200191505060806040518083038186803b15801561172457600080fd5b505afa158015611738573d6000803e3d6000fd5b505050506040513d608081101561174e57600080fd5b81019080805190602001909291908051906020019092919080519060200190929190805190602001909291905050505050915091508373ffffffffffffffffffffffffffffffffffffffff168273ffffffffffffffffffffffffffffffffffffffff1614156117c15780925050506117c7565b81925050505b92915050565b6040518060400160405280600c81526020017f47616d654372656174696f6e000000000000000000000000000000000000000081525061180c81613025565b61181461330e565b600260009054906101000a900473ffffffffffffffffffffffffffffffffffffffff1673ffffffffffffffffffffffffffffffffffffffff1663aedcaed26040518163ffffffff1660e01b815260040160206040518083038186803b15801561187c57600080fd5b505afa158015611890573d6000803e3d6000fd5b505050506040513d60208110156118a657600080fd5b8101908080519060200190929190505050816000018181525050600260009054906101000a900473ffffffffffffffffffffffffffffffffffffffff1673ffffffffffffffffffffffffffffffffffffffff1663b1c195156040518163ffffffff1660e01b815260040160206040518083038186803b15801561192857600080fd5b505afa15801561193c573d6000803e3d6000fd5b505050506040513d602081101561195257600080fd5b8101908080519060200190929190505050816020018181525050600260009054906101000a900473ffffffffffffffffffffffffffffffffffffffff1673ffffffffffffffffffffffffffffffffffffffff166376c282686040518163ffffffff1660e01b815260040160206040518083038186803b1580156119d457600080fd5b505afa1580156119e8573d6000803e3d6000fd5b505050506040513d60208110156119fe57600080fd5b8101908080519060200190929190505050816040018181525050600260009054906101000a900473ffffffffffffffffffffffffffffffffffffffff1673ffffffffffffffffffffffffffffffffffffffff16639840060f6040518163ffffffff1660e01b815260040160206040518083038186803b158015611a8057600080fd5b505afa158015611a94573d6000803e3d6000fd5b505050506040513d6020811015611aaa57600080fd5b8101908080519060200190929190505050816060018181525050600260009054906101000a900473ffffffffffffffffffffffffffffffffffffffff1673ffffffffffffffffffffffffffffffffffffffff166333dbee176040518163ffffffff1660e01b815260040160206040518083038186803b158015611b2c57600080fd5b505afa158015611b40573d6000803e3d6000fd5b505050506040513d6020811015611b5657600080fd5b8101908080519060200190929190505050816080018181525050600260009054906101000a900473ffffffffffffffffffffffffffffffffffffffff1673ffffffffffffffffffffffffffffffffffffffff166368afa5416040518163ffffffff1660e01b815260040160206040518083038186803b158015611bd857600080fd5b505afa158015611bec573d6000803e3d6000fd5b505050506040513d6020811015611c0257600080fd5b81019080805190602001909291905050508160a0018181525050600260009054906101000a900473ffffffffffffffffffffffffffffffffffffffff1673ffffffffffffffffffffffffffffffffffffffff16633e4c883f6040518163ffffffff1660e01b815260040160a06040518083038186803b158015611c8457600080fd5b505afa158015611c98573d6000803e3d6000fd5b505050506040513d601f19601f8201168201806040525060a0811015611cbd57600080fd5b81019080919050508160e00181905250600260009054906101000a900473ffffffffffffffffffffffffffffffffffffffff1673ffffffffffffffffffffffffffffffffffffffff1663d693a9896040518163ffffffff1660e01b815260040160206040518083038186803b158015611d3557600080fd5b505afa158015611d49573d6000803e3d6000fd5b505050506040513d6020811015611d5f57600080fd5b81019080805190602001909291905050508160c00181815250508060066000858152602001908152602001600020600082015181600001556020820151816001015560408201518160020155606082015181600301556080820151816004015560a0820151816005015560c0820151816006015560e082015181600701906005611dea929190613359565b50905050505050565b600060066000838152602001908152602001600020600301549050919050565b6040518060400160405280600a81526020017f474d536574746572444200000000000000000000000000000000000000000000815250611e5281613025565b816005600086815260200190815260200160002060008573ffffffffffffffffffffffffffffffffffffffff1673ffffffffffffffffffffffffffffffffffffffff16815260200190815260200160002060020160006101000a81548173ffffffffffffffffffffffffffffffffffffffff021916908373ffffffffffffffffffffffffffffffffffffffff16021790555050505050565b60006005600084815260200190815260200160002060008373ffffffffffffffffffffffffffffffffffffffff1673ffffffffffffffffffffffffffffffffffffffff16815260200190815260200160002060020160009054906101000a900473ffffffffffffffffffffffffffffffffffffffff16905092915050565b611f70613399565b60066000838152602001908152602001600020600701600580602002604051908101604052809291908260058015611fbd576020028201915b815481526020019060010190808311611fa9575b50505050509050919050565b60006005600084815260200190815260200160002060008373ffffffffffffffffffffffffffffffffffffffff1673ffffffffffffffffffffffffffffffffffffffff16815260200190815260200160002060000154905092915050565b6000809054906101000a900473ffffffffffffffffffffffffffffffffffffffff1673ffffffffffffffffffffffffffffffffffffffff163373ffffffffffffffffffffffffffffffffffffffff161461207d57fe5b600160009054906101000a900473ffffffffffffffffffffffffffffffffffffffff1673ffffffffffffffffffffffffffffffffffffffff1663358177736040518060400160405280600d81526020017f47616d65566172416e64466565000000000000000000000000000000000000008152506040518263ffffffff1660e01b81526004018080602001828103825283818151815260200191508051906020019080838360005b83811015612140578082015181840152602081019050612125565b50505050905090810190601f16801561216d5780820380516001836020036101000a031916815260200191505b509250505060206040518083038186803b15801561218a57600080fd5b505afa15801561219e573d6000803e3d6000fd5b505050506040513d60208110156121b457600080fd5b8101908080519060200190929190505050600260006101000a81548173ffffffffffffffffffffffffffffffffffffffff021916908373ffffffffffffffffffffffffffffffffffffffff160217905550600160009054906101000a900473ffffffffffffffffffffffffffffffffffffffff1673ffffffffffffffffffffffffffffffffffffffff1663358177736040518060400160405280600a81526020017f474d4765747465724442000000000000000000000000000000000000000000008152506040518263ffffffff1660e01b81526004018080602001828103825283818151815260200191508051906020019080838360005b838110156122c85780820151818401526020810190506122ad565b50505050905090810190601f1680156122f55780820380516001836020036101000a031916815260200191505b509250505060206040518083038186803b15801561231257600080fd5b505afa158015612326573d6000803e3d6000fd5b505050506040513d602081101561233c57600080fd5b8101908080519060200190929190505050600360006101000a81548173ffffffffffffffffffffffffffffffffffffffff021916908373ffffffffffffffffffffffffffffffffffffffff160217905550600160009054906101000a900473ffffffffffffffffffffffffffffffffffffffff1673ffffffffffffffffffffffffffffffffffffffff1663358177736040518060400160405280600b81526020017f486974735265736f6c76650000000000000000000000000000000000000000008152506040518263ffffffff1660e01b81526004018080602001828103825283818151815260200191508051906020019080838360005b83811015612450578082015181840152602081019050612435565b50505050905090810190601f16801561247d5780820380516001836020036101000a031916815260200191505b509250505060206040518083038186803b15801561249a57600080fd5b505afa1580156124ae573d6000803e3d6000fd5b505050506040513d60208110156124c457600080fd5b8101908080519060200190929190505050600460006101000a81548173ffffffffffffffffffffffffffffffffffffffff021916908373ffffffffffffffffffffffffffffffffffffffff160217905550565b600460009054906101000a900473ffffffffffffffffffffffffffffffffffffffff1681565b6000809054906101000a900473ffffffffffffffffffffffffffffffffffffffff1681565b6000809054906101000a900473ffffffffffffffffffffffffffffffffffffffff1673ffffffffffffffffffffffffffffffffffffffff163373ffffffffffffffffffffffffffffffffffffffff16146125b857fe5b80600160006101000a81548173ffffffffffffffffffffffffffffffffffffffff021916908373ffffffffffffffffffffffffffffffffffffffff16021790555050565b600260009054906101000a900473ffffffffffffffffffffffffffffffffffffffff1681565b600060066000838152602001908152602001600020600101549050919050565b6005602052816000526040600020602052806000526040600020600091509150508060000154908060010160009054906101000a900460ff16908060010160019054906101000a900473ffffffffffffffffffffffffffffffffffffffff16908060020160009054906101000a900473ffffffffffffffffffffffffffffffffffffffff16905084565b600060066000838152602001908152602001600020600601549050919050565b6040518060400160405280600a81526020017f474d53657474657244420000000000000000000000000000000000000000000081525061272b81613025565b816005600086815260200190815260200160002060008573ffffffffffffffffffffffffffffffffffffffff1673ffffffffffffffffffffffffffffffffffffffff16815260200190815260200160002060010160016101000a81548173ffffffffffffffffffffffffffffffffffffffff021916908373ffffffffffffffffffffffffffffffffffffffff16021790555050505050565b6000806000806040518060400160405280600b81526020017f47616d654d616e6167657200000000000000000000000000000000000000000081525061280881613025565b600460009054906101000a900473ffffffffffffffffffffffffffffffffffffffff1673ffffffffffffffffffffffffffffffffffffffff1663c0eef7188a8a896040518463ffffffff1660e01b8152600401808481526020018373ffffffffffffffffffffffffffffffffffffffff1673ffffffffffffffffffffffffffffffffffffffff168152602001828152602001935050505060206040518083038186803b1580156128b757600080fd5b505afa1580156128cb573d6000803e3d6000fd5b505050506040513d60208110156128e157600080fd5b81019080805190602001909291905050509250600460009054906101000a900473ffffffffffffffffffffffffffffffffffffffff1673ffffffffffffffffffffffffffffffffffffffff1663c0eef7188a89896040518463ffffffff1660e01b8152600401808481526020018373ffffffffffffffffffffffffffffffffffffffff1673ffffffffffffffffffffffffffffffffffffffff168152602001828152602001935050505060206040518083038186803b1580156129a357600080fd5b505afa1580156129b7573d6000803e3d6000fd5b505050506040513d60208110156129cd57600080fd5b81019080805190602001909291905050509150612ad483600360009054906101000a900473ffffffffffffffffffffffffffffffffffffffff1673ffffffffffffffffffffffffffffffffffffffff1663bacf524e8c8c6040518363ffffffff1660e01b8152600401808381526020018273ffffffffffffffffffffffffffffffffffffffff1673ffffffffffffffffffffffffffffffffffffffff1681526020019250505060206040518083038186803b158015612a8b57600080fd5b505afa158015612a9f573d6000803e3d6000fd5b505050506040513d6020811015612ab557600080fd5b81019080805190602001909291905050506132d790919063ffffffff16565b9250612bca82600360009054906101000a900473ffffffffffffffffffffffffffffffffffffffff1673ffffffffffffffffffffffffffffffffffffffff1663bacf524e8c8b6040518363ffffffff1660e01b8152600401808381526020018273ffffffffffffffffffffffffffffffffffffffff1673ffffffffffffffffffffffffffffffffffffffff1681526020019250505060206040518083038186803b158015612b8157600080fd5b505afa158015612b95573d6000803e3d6000fd5b505050506040513d6020811015612bab57600080fd5b81019080805190602001909291905050506132d790919063ffffffff16565b915081831115612bdf57879450869350612d38565b82821115612bf257869450879350612d37565b612bfa6133bb565b600360009054906101000a900473ffffffffffffffffffffffffffffffffffffffff1673ffffffffffffffffffffffffffffffffffffffff1663589ac6a48b6040518263ffffffff1660e01b8152600401808281526020019150506101006040518083038186803b158015612c6e57600080fd5b505afa158015612c82573d6000803e3d6000fd5b505050506040513d601f19601f82011682018060405250610100811015612ca857600080fd5b81019080805190602001909291908051906020019092919080519060200190929190805190602001909291909190826040018051906020019092919080519060200190929190505050505094505050505080600160028110612d0657fe5b602002015181600060028110612d1857fe5b60200201511115612d2e57889550879450612d35565b8795508894505b505b5b50945094509450949050565b60006005600084815260200190815260200160002060008373ffffffffffffffffffffffffffffffffffffffff1673ffffffffffffffffffffffffffffffffffffffff16815260200190815260200160002060010160009054906101000a900460ff16905092915050565b600160009054906101000a900473ffffffffffffffffffffffffffffffffffffffff1681565b6000809054906101000a900473ffffffffffffffffffffffffffffffffffffffff1673ffffffffffffffffffffffffffffffffffffffff163373ffffffffffffffffffffffffffffffffffffffff1614612e2b57fe5b600073ffffffffffffffffffffffffffffffffffffffff168173ffffffffffffffffffffffffffffffffffffffff1614612ea057806000806101000a81548173ffffffffffffffffffffffffffffffffffffffff021916908373ffffffffffffffffffffffffffffffffffffffff1602179055505b50565b600060066000838152602001908152602001600020600001549050919050565b6000806000600360009054906101000a900473ffffffffffffffffffffffffffffffffffffffff1673ffffffffffffffffffffffffffffffffffffffff166315a40f49866040518263ffffffff1660e01b81526004018082815260200191505060806040518083038186803b158015612f3b57600080fd5b505afa158015612f4f573d6000803e3d6000fd5b505050506040513d6080811015612f6557600080fd5b81019080805190602001909291908051906020019092919080519060200190929190805190602001909291905050505050915091508373ffffffffffffffffffffffffffffffffffffffff168273ffffffffffffffffffffffffffffffffffffffff161415612fd95760009250505061301f565b8373ffffffffffffffffffffffffffffffffffffffff168173ffffffffffffffffffffffffffffffffffffffff1614156130185760019250505061301f565b6002925050505b92915050565b600073ffffffffffffffffffffffffffffffffffffffff16600160009054906101000a900473ffffffffffffffffffffffffffffffffffffffff1673ffffffffffffffffffffffffffffffffffffffff1614156130ea576040517f08c379a00000000000000000000000000000000000000000000000000000000081526004018080602001828103825260088152602001807f4e6f2050726f787900000000000000000000000000000000000000000000000081525060200191505060405180910390fd5b6000600160009054906101000a900473ffffffffffffffffffffffffffffffffffffffff1673ffffffffffffffffffffffffffffffffffffffff166335817773836040518263ffffffff1660e01b81526004018080602001828103825283818151815260200191508051906020019080838360005b8381101561317a57808201518184015260208101905061315f565b50505050905090810190601f1680156131a75780820380516001836020036101000a031916815260200191505b509250505060206040518083038186803b1580156131c457600080fd5b505afa1580156131d8573d6000803e3d6000fd5b505050506040513d60208110156131ee57600080fd5b81019080805190602001909291905050509050600073ffffffffffffffffffffffffffffffffffffffff168173ffffffffffffffffffffffffffffffffffffffff16141561323857fe5b8073ffffffffffffffffffffffffffffffffffffffff163373ffffffffffffffffffffffffffffffffffffffff16146132bc576040517f08c379a000000000000000000000000000000000000000000000000000000000815260040180806020018281038252602d815260200180613425602d913960400191505060405180910390fd5b5050565b6000828211156132cc57fe5b818303905092915050565b6000808314156132ea5760009050613308565b60008284029050828482816132fb57fe5b041461330357fe5b809150505b92915050565b604051806101000160405280600081526020016000815260200160008152602001600081526020016000815260200160008152602001600081526020016133536133dd565b81525090565b8260058101928215613388579160200282015b8281111561338757825182559160200191906001019061336c565b5b50905061339591906133ff565b5090565b6040518060a00160405280600590602082028038833980820191505090505090565b6040518060400160405280600290602082028038833980820191505090505090565b6040518060a00160405280600590602082028038833980820191505090505090565b61342191905b8082111561341d576000816000905550600101613405565b5090565b9056fe416363657373206973206f6e6c7920616c6c6f7765642066726f6d20737065636966696320636f6e7472616374a265627a7a72315820db6bf3052a1ef19f89ef545bcdbfc58272dbd862418fb249b07bd50b0fcf4ea464736f6c634300050b0032",
  "source": "pragma solidity ^0.5.5;\n\nimport '../proxy/Proxied.sol';\nimport \"../../GameVarAndFee.sol\";\nimport \"../databases/GMGetterDB.sol\";\nimport \"../../libs/SafeMath.sol\";\nimport \"../algorithm/HitsResolveAlgo.sol\";\n\ncontract GameStore is Proxied {\n\n    using SafeMath for uint256;\n\n    GameVarAndFee public gameVarAndFee;\n    GMGetterDB public gmGetterDB;\n    HitsResolve public hitsResolve;\n\n    struct Game {\n        uint randomNum; //when pressing start\n        bool pressedStart;\n        address topBettor;\n        address secondTopBettor;\n    }\n\n    struct GlobalSettings {\n        uint bettingFee;\n        uint ticketFee;\n        uint redemptionFee;\n        uint kittieHellExpirationTime;\n        uint honeypotExpirationTime;\n        uint minimumContributors;\n        uint finalizeRewards;\n        uint[5] distributionRates;\n    }\n\n    //Players info in a game\n    mapping(uint => mapping(address => Game)) public gameByPlayer;\n    mapping(uint => GlobalSettings) public gameSettings;\n\n    function initialize() external onlyOwner {\n        gameVarAndFee = GameVarAndFee(proxy.getContract(CONTRACT_NAME_GAMEVARANDFEE));\n        gmGetterDB = GMGetterDB(proxy.getContract(CONTRACT_NAME_GM_GETTER_DB));\n        hitsResolve = HitsResolve(proxy.getContract(CONTRACT_NAME_HITSRESOLVE));\n    }\n\n    function lockVars(uint gameId) external onlyContract(CONTRACT_NAME_GAMECREATION){\n        GlobalSettings memory globalSettings;\n\n        globalSettings.bettingFee = gameVarAndFee.getBettingFee();\n        globalSettings.ticketFee = gameVarAndFee.getTicketFee();\n        globalSettings.redemptionFee = gameVarAndFee.getKittieRedemptionFee();\n        globalSettings.kittieHellExpirationTime = gameVarAndFee.getKittieExpiry();\n        globalSettings.honeypotExpirationTime = gameVarAndFee.getHoneypotExpiration();\n        globalSettings.minimumContributors = gameVarAndFee.getMinimumContributors();\n        globalSettings.distributionRates = gameVarAndFee.getDistributionRates();\n        globalSettings.finalizeRewards = gameVarAndFee.getFinalizeRewards();\n\n        gameSettings[gameId] = globalSettings;\n    }\n\n    function getDistributionRates(uint gameId) public view returns(uint[5] memory){\n        return gameSettings[gameId].distributionRates;\n    }\n\n    function getKittieExpirationTime(uint gameId) public view returns(uint){\n        return  gameSettings[gameId].kittieHellExpirationTime;\n    }\n\n    function getKittieRedemptionFee(uint gameId) public view returns(uint){\n        return  gameSettings[gameId].redemptionFee;\n    }\n    \n    function getHoneypotExpiration(uint gameId) public view returns(uint){\n        return  gameSettings[gameId].honeypotExpirationTime;\n    }\n\n\n    function start(uint gameId, address player, uint randomNum) external onlyContract(CONTRACT_NAME_GAMEMANAGER){\n        gameByPlayer[gameId][player].pressedStart = true;\n        gameByPlayer[gameId][player].randomNum = randomNum;\n    }\n\n    function didHitStart(uint gameId, address player) public view returns(bool){\n        return gameByPlayer[gameId][player].pressedStart;\n    }\n\n    function getRandom(uint gameId, address player) public view returns(uint){\n        return gameByPlayer[gameId][player].randomNum;\n    }\n\n    function updateTopBettor(uint gameId, address player, address newTopBettor) external onlyContract(CONTRACT_NAME_GM_SETTER_DB){\n        gameByPlayer[gameId][player].topBettor = newTopBettor;\n    }\n\n    function getTopBettor(uint gameId, address player) public view returns(address){\n        return gameByPlayer[gameId][player].topBettor;\n    }\n\n    function updateSecondTopBettor(uint gameId, address player, address newSecondTopBettor) external onlyContract(CONTRACT_NAME_GM_SETTER_DB){\n        gameByPlayer[gameId][player].secondTopBettor = newSecondTopBettor;\n    }\n\n    function getSecondTopBettor(uint gameId, address player) public view returns(address){\n        return gameByPlayer[gameId][player].secondTopBettor;\n    }\n\n    function getTicketFee(uint gameId) public view returns(uint){\n        return gameSettings[gameId].ticketFee;\n    }\n\n    function getBettingFee(uint gameId) public view returns(uint){\n        return gameSettings[gameId].bettingFee;\n    }\n\n    function getMinimumContributors(uint gameId) public view returns(uint){\n        return gameSettings[gameId].minimumContributors;\n    }\n\n    function getFinalizeRewards(uint gameId) public view returns(uint){\n        return gameSettings[gameId].finalizeRewards;\n    }\n\n    function updateTopbettors(uint256 _gameId, address _account, address _supportedPlayer)\n        external\n        onlyContract(CONTRACT_NAME_GAMEMANAGER)\n        // onlyExistentGame(_gameId)\n    {\n\n        address topBettor = getTopBettor(_gameId, _supportedPlayer);\n        (uint256 bettorTotal,,,) = gmGetterDB.getSupporterInfo(_gameId, _account);\n        (uint256 topBettorEth,,,) = gmGetterDB.getSupporterInfo(_gameId, topBettor);\n        \n        if(topBettor != _account){\n        if (bettorTotal > topBettorEth){\n            //If topBettor is already the account, dont update\n            gameByPlayer[_gameId][_supportedPlayer].topBettor = _account;\n            gameByPlayer[_gameId][_supportedPlayer].secondTopBettor = topBettor;\n        }\n        else {\n            address secondTopBettor = getSecondTopBettor(_gameId, _supportedPlayer);\n            (uint256 secondTopBettorEth,,,) = gmGetterDB.getSupporterInfo(_gameId, secondTopBettor);\n            if (bettorTotal > secondTopBettorEth && secondTopBettor != _account){\n                gameByPlayer[_gameId][_supportedPlayer].secondTopBettor = _account;\n            }\n        }\n        }\n    }\n\n    function getOpponent(uint gameId, address player) public view returns(address){\n        (address playerBlack, address playerRed,,) = gmGetterDB.getGamePlayers(gameId);\n        if(playerBlack == player) return playerRed;\n        return playerBlack;\n    }\n\n    function getCorner(uint gameId, address player) public view returns(uint){\n        (address playerBlack, address playerRed,,) = gmGetterDB.getGamePlayers(gameId);\n        if(playerBlack == player) return 0;\n        if(playerRed == player) return 1;\n        return 2;\n    }\n\n    function calculateWinner\n    (\n        uint gameId, address playerBlack, address playerRed, uint random\n    )\n        external view\n        onlyContract(CONTRACT_NAME_GAMEMANAGER)\n        returns(address winner, address loser, uint pointsBlack, uint pointsRed)\n    {\n        pointsBlack = hitsResolve.calculateFinalPoints(gameId, playerBlack, random);\n        pointsRed = hitsResolve.calculateFinalPoints(gameId, playerRed, random);\n\n        //Added to make game more balanced\n        pointsBlack = (gmGetterDB.getTotalBet(gameId, playerBlack)).mul(pointsBlack);\n        pointsRed = (gmGetterDB.getTotalBet(gameId, playerRed)).mul(pointsRed);\n\n        if (pointsBlack > pointsRed)\n        {\n            winner = playerBlack;\n            loser = playerRed;\n        }\n        else if(pointsRed > pointsBlack)\n        {\n            winner = playerRed;\n            loser = playerBlack;\n        }\n        //If there is a tie in point, define by total eth bet\n        else\n        {\n            (,,,,uint[2] memory ethByCorner,,) = gmGetterDB.getHoneypotInfo(gameId);\n            if(ethByCorner[0] > ethByCorner[1] ){\n               winner = playerBlack;\n                loser = playerRed;\n            }\n            else{\n                winner = playerRed;\n                loser = playerBlack;\n            }\n        }\n    }\n\n    function checkPerformanceHelper(uint gameId, uint gameEndTime) external returns(bool){\n        //each time 1 minute before game ends\n        if(gameEndTime.sub(5) <= now) {\n            //get initial jackpot, need endowment to send this when creating honeypot\n            (,,uint initialEth, uint currentJackpotEth,,,) = gmGetterDB.getHoneypotInfo(gameId);\n\n            if(currentJackpotEth < initialEth.mul(10)) return true;\n            return false;\n        }\n    }\n\n    \n}",
  "sourcePath": "/home/wafflemakr/Desktop/KittieFight/alpha/contracts/modules/gamemanager/GameStore.sol",
  "compiler": {
    "name": "solc",
    "version": "0.5.11+commit.c082d0b4.Emscripten.clang"
  },
  "schemaVersion": "3.0.11",
  "updatedAt": "2019-08-13T15:12:07.328Z",
  "devdoc": {
    "methods": {}
  },
  "userdoc": {
    "methods": {
      "setProxy(address)": {
        "notice": "Set/update address of Proxy contract"
      }
    }
  }
}