{
  "contractName": "GameStore",
  "abi": [
    {
      "constant": true,
      "inputs": [
        {
          "internalType": "uint256",
          "name": "",
          "type": "uint256"
        },
        {
          "internalType": "address",
          "name": "",
          "type": "address"
        }
      ],
      "name": "gameByPlayer",
      "outputs": [
        {
          "internalType": "uint256",
          "name": "randomNum",
          "type": "uint256"
        },
        {
          "internalType": "bool",
          "name": "pressedStart",
          "type": "bool"
        },
        {
          "internalType": "address",
          "name": "topBettor",
          "type": "address"
        },
        {
          "internalType": "address",
          "name": "secondTopBettor",
          "type": "address"
        }
      ],
      "payable": false,
      "stateMutability": "view",
      "type": "function"
    },
    {
      "constant": true,
      "inputs": [
        {
          "internalType": "uint256",
          "name": "",
          "type": "uint256"
        }
      ],
      "name": "gameSettings",
      "outputs": [
        {
          "internalType": "uint256",
          "name": "bettingFee",
          "type": "uint256"
        },
        {
          "internalType": "uint256",
          "name": "ticketFee",
          "type": "uint256"
        },
        {
          "internalType": "uint256",
          "name": "redemptionFee",
          "type": "uint256"
        },
        {
          "internalType": "uint256",
          "name": "kittieHellExpirationTime",
          "type": "uint256"
        },
        {
          "internalType": "uint256",
          "name": "honeypotExpirationTime",
          "type": "uint256"
        },
        {
          "internalType": "uint256",
          "name": "minimumContributors",
          "type": "uint256"
        },
        {
          "internalType": "uint256",
          "name": "finalizeRewards",
          "type": "uint256"
        },
        {
          "internalType": "uint256",
          "name": "timeExtension",
          "type": "uint256"
        },
        {
          "internalType": "uint256",
          "name": "performanceTime",
          "type": "uint256"
        }
      ],
      "payable": false,
      "stateMutability": "view",
      "type": "function"
    },
    {
      "constant": true,
      "inputs": [],
      "name": "gameVarAndFee",
      "outputs": [
        {
          "internalType": "contract GameVarAndFee",
          "name": "",
          "type": "address"
        }
      ],
      "payable": false,
      "stateMutability": "view",
      "type": "function"
    },
    {
      "constant": true,
      "inputs": [],
      "name": "gmGetterDB",
      "outputs": [
        {
          "internalType": "contract GMGetterDB",
          "name": "",
          "type": "address"
        }
      ],
      "payable": false,
      "stateMutability": "view",
      "type": "function"
    },
    {
      "constant": true,
      "inputs": [],
      "name": "hitsResolve",
      "outputs": [
        {
          "internalType": "contract HitsResolve",
          "name": "",
          "type": "address"
        }
      ],
      "payable": false,
      "stateMutability": "view",
      "type": "function"
    },
    {
      "constant": true,
      "inputs": [],
      "name": "owner",
      "outputs": [
        {
          "internalType": "address payable",
          "name": "",
          "type": "address"
        }
      ],
      "payable": false,
      "stateMutability": "view",
      "type": "function"
    },
    {
      "constant": true,
      "inputs": [],
      "name": "proxy",
      "outputs": [
        {
          "internalType": "contract ProxyBase",
          "name": "",
          "type": "address"
        }
      ],
      "payable": false,
      "stateMutability": "view",
      "type": "function"
    },
    {
      "constant": true,
      "inputs": [],
      "name": "scheduler",
      "outputs": [
        {
          "internalType": "contract Scheduler",
          "name": "",
          "type": "address"
        }
      ],
      "payable": false,
      "stateMutability": "view",
      "type": "function"
    },
    {
      "constant": false,
      "inputs": [
        {
          "internalType": "contract ProxyBase",
          "name": "_proxy",
          "type": "address"
        }
      ],
      "name": "setProxy",
      "outputs": [],
      "payable": false,
      "stateMutability": "nonpayable",
      "type": "function"
    },
    {
      "constant": true,
      "inputs": [],
      "name": "timeFrame",
      "outputs": [
        {
          "internalType": "contract TimeFrame",
          "name": "",
          "type": "address"
        }
      ],
      "payable": false,
      "stateMutability": "view",
      "type": "function"
    },
    {
      "constant": false,
      "inputs": [
        {
          "internalType": "address payable",
          "name": "newOwner",
          "type": "address"
        }
      ],
      "name": "transferOwnership",
      "outputs": [],
      "payable": false,
      "stateMutability": "nonpayable",
      "type": "function"
    },
    {
      "constant": false,
      "inputs": [],
      "name": "initialize",
      "outputs": [],
      "payable": false,
      "stateMutability": "nonpayable",
      "type": "function"
    },
    {
      "constant": false,
      "inputs": [
        {
          "internalType": "uint256",
          "name": "gameId",
          "type": "uint256"
        }
      ],
      "name": "lockVars",
      "outputs": [],
      "payable": false,
      "stateMutability": "nonpayable",
      "type": "function"
    },
    {
      "constant": false,
      "inputs": [
        {
          "internalType": "uint256",
          "name": "gameId",
          "type": "uint256"
        }
      ],
      "name": "lockVarsAdmin",
      "outputs": [],
      "payable": false,
      "stateMutability": "nonpayable",
      "type": "function"
    },
    {
      "constant": true,
      "inputs": [
        {
          "internalType": "uint256",
          "name": "gameId",
          "type": "uint256"
        }
      ],
      "name": "getDistributionRates",
      "outputs": [
        {
          "internalType": "uint256[5]",
          "name": "",
          "type": "uint256[5]"
        }
      ],
      "payable": false,
      "stateMutability": "view",
      "type": "function"
    },
    {
      "constant": true,
      "inputs": [
        {
          "internalType": "uint256",
          "name": "percentageHoneyPot",
          "type": "uint256"
        },
        {
          "internalType": "uint256",
          "name": "_eth_amount",
          "type": "uint256"
        },
        {
          "internalType": "uint256",
          "name": "_kty_amount",
          "type": "uint256"
        }
      ],
      "name": "calculateDynamicFee",
      "outputs": [
        {
          "internalType": "uint256",
          "name": "",
          "type": "uint256"
        }
      ],
      "payable": false,
      "stateMutability": "view",
      "type": "function"
    },
    {
      "constant": false,
      "inputs": [
        {
          "internalType": "uint256",
          "name": "gameId",
          "type": "uint256"
        }
      ],
      "name": "updateKittieRedemptionFee",
      "outputs": [],
      "payable": false,
      "stateMutability": "nonpayable",
      "type": "function"
    },
    {
      "constant": false,
      "inputs": [
        {
          "internalType": "uint256",
          "name": "gameId",
          "type": "uint256"
        }
      ],
      "name": "updateTicketFee",
      "outputs": [],
      "payable": false,
      "stateMutability": "nonpayable",
      "type": "function"
    },
    {
      "constant": false,
      "inputs": [
        {
          "internalType": "uint256",
          "name": "gameId",
          "type": "uint256"
        }
      ],
      "name": "updateBettingFee",
      "outputs": [],
      "payable": false,
      "stateMutability": "nonpayable",
      "type": "function"
    },
    {
      "constant": true,
      "inputs": [
        {
          "internalType": "uint256",
          "name": "gameId",
          "type": "uint256"
        }
      ],
      "name": "getKittieExpirationTime",
      "outputs": [
        {
          "internalType": "uint256",
          "name": "",
          "type": "uint256"
        }
      ],
      "payable": false,
      "stateMutability": "view",
      "type": "function"
    },
    {
      "constant": true,
      "inputs": [
        {
          "internalType": "uint256",
          "name": "gameId",
          "type": "uint256"
        }
      ],
      "name": "getKittieRedemptionFee",
      "outputs": [
        {
          "internalType": "uint256",
          "name": "",
          "type": "uint256"
        }
      ],
      "payable": false,
      "stateMutability": "view",
      "type": "function"
    },
    {
      "constant": true,
      "inputs": [
        {
          "internalType": "uint256",
          "name": "gameId",
          "type": "uint256"
        }
      ],
      "name": "getHoneypotExpiration",
      "outputs": [
        {
          "internalType": "uint256",
          "name": "",
          "type": "uint256"
        }
      ],
      "payable": false,
      "stateMutability": "view",
      "type": "function"
    },
    {
      "constant": false,
      "inputs": [
        {
          "internalType": "uint256",
          "name": "gameId",
          "type": "uint256"
        },
        {
          "internalType": "address",
          "name": "player",
          "type": "address"
        },
        {
          "internalType": "uint256",
          "name": "randomNum",
          "type": "uint256"
        }
      ],
      "name": "start",
      "outputs": [],
      "payable": false,
      "stateMutability": "nonpayable",
      "type": "function"
    },
    {
      "constant": true,
      "inputs": [
        {
          "internalType": "uint256",
          "name": "gameId",
          "type": "uint256"
        },
        {
          "internalType": "address",
          "name": "player",
          "type": "address"
        }
      ],
      "name": "didHitStart",
      "outputs": [
        {
          "internalType": "bool",
          "name": "",
          "type": "bool"
        }
      ],
      "payable": false,
      "stateMutability": "view",
      "type": "function"
    },
    {
      "constant": true,
      "inputs": [
        {
          "internalType": "uint256",
          "name": "gameId",
          "type": "uint256"
        },
        {
          "internalType": "address",
          "name": "player",
          "type": "address"
        }
      ],
      "name": "getRandom",
      "outputs": [
        {
          "internalType": "uint256",
          "name": "",
          "type": "uint256"
        }
      ],
      "payable": false,
      "stateMutability": "view",
      "type": "function"
    },
    {
      "constant": false,
      "inputs": [
        {
          "internalType": "uint256",
          "name": "gameId",
          "type": "uint256"
        },
        {
          "internalType": "address",
          "name": "player",
          "type": "address"
        },
        {
          "internalType": "address",
          "name": "newTopBettor",
          "type": "address"
        }
      ],
      "name": "updateTopBettor",
      "outputs": [],
      "payable": false,
      "stateMutability": "nonpayable",
      "type": "function"
    },
    {
      "constant": true,
      "inputs": [
        {
          "internalType": "uint256",
          "name": "gameId",
          "type": "uint256"
        },
        {
          "internalType": "address",
          "name": "player",
          "type": "address"
        }
      ],
      "name": "getTopBettor",
      "outputs": [
        {
          "internalType": "address",
          "name": "",
          "type": "address"
        }
      ],
      "payable": false,
      "stateMutability": "view",
      "type": "function"
    },
    {
      "constant": false,
      "inputs": [
        {
          "internalType": "uint256",
          "name": "gameId",
          "type": "uint256"
        },
        {
          "internalType": "address",
          "name": "player",
          "type": "address"
        },
        {
          "internalType": "address",
          "name": "newSecondTopBettor",
          "type": "address"
        }
      ],
      "name": "updateSecondTopBettor",
      "outputs": [],
      "payable": false,
      "stateMutability": "nonpayable",
      "type": "function"
    },
    {
      "constant": true,
      "inputs": [
        {
          "internalType": "uint256",
          "name": "gameId",
          "type": "uint256"
        },
        {
          "internalType": "address",
          "name": "player",
          "type": "address"
        }
      ],
      "name": "getSecondTopBettor",
      "outputs": [
        {
          "internalType": "address",
          "name": "",
          "type": "address"
        }
      ],
      "payable": false,
      "stateMutability": "view",
      "type": "function"
    },
    {
      "constant": true,
      "inputs": [
        {
          "internalType": "uint256",
          "name": "gameId",
          "type": "uint256"
        }
      ],
      "name": "getTicketFee",
      "outputs": [
        {
          "internalType": "uint256",
          "name": "",
          "type": "uint256"
        }
      ],
      "payable": false,
      "stateMutability": "view",
      "type": "function"
    },
    {
      "constant": true,
      "inputs": [
        {
          "internalType": "uint256",
          "name": "gameId",
          "type": "uint256"
        }
      ],
      "name": "getBettingFee",
      "outputs": [
        {
          "internalType": "uint256",
          "name": "",
          "type": "uint256"
        }
      ],
      "payable": false,
      "stateMutability": "view",
      "type": "function"
    },
    {
      "constant": true,
      "inputs": [
        {
          "internalType": "uint256",
          "name": "gameId",
          "type": "uint256"
        }
      ],
      "name": "getMinimumContributors",
      "outputs": [
        {
          "internalType": "uint256",
          "name": "",
          "type": "uint256"
        }
      ],
      "payable": false,
      "stateMutability": "view",
      "type": "function"
    },
    {
      "constant": true,
      "inputs": [
        {
          "internalType": "uint256",
          "name": "gameId",
          "type": "uint256"
        }
      ],
      "name": "getFinalizeRewards",
      "outputs": [
        {
          "internalType": "uint256",
          "name": "",
          "type": "uint256"
        }
      ],
      "payable": false,
      "stateMutability": "view",
      "type": "function"
    },
    {
      "constant": true,
      "inputs": [
        {
          "internalType": "uint256",
          "name": "gameId",
          "type": "uint256"
        }
      ],
      "name": "getPerformanceTimeCheck",
      "outputs": [
        {
          "internalType": "uint256",
          "name": "",
          "type": "uint256"
        }
      ],
      "payable": false,
      "stateMutability": "view",
      "type": "function"
    },
    {
      "constant": true,
      "inputs": [
        {
          "internalType": "uint256",
          "name": "gameId",
          "type": "uint256"
        }
      ],
      "name": "getTimeExtension",
      "outputs": [
        {
          "internalType": "uint256",
          "name": "",
          "type": "uint256"
        }
      ],
      "payable": false,
      "stateMutability": "view",
      "type": "function"
    },
    {
      "constant": false,
      "inputs": [
        {
          "internalType": "uint256",
          "name": "_gameId",
          "type": "uint256"
        },
        {
          "internalType": "address",
          "name": "_account",
          "type": "address"
        },
        {
          "internalType": "address",
          "name": "_supportedPlayer",
          "type": "address"
        }
      ],
      "name": "updateTopbettors",
      "outputs": [],
      "payable": false,
      "stateMutability": "nonpayable",
      "type": "function"
    },
    {
      "constant": true,
      "inputs": [
        {
          "internalType": "uint256",
          "name": "gameId",
          "type": "uint256"
        },
        {
          "internalType": "address",
          "name": "player",
          "type": "address"
        }
      ],
      "name": "getOpponent",
      "outputs": [
        {
          "internalType": "address",
          "name": "",
          "type": "address"
        }
      ],
      "payable": false,
      "stateMutability": "view",
      "type": "function"
    },
    {
      "constant": true,
      "inputs": [
        {
          "internalType": "uint256",
          "name": "gameId",
          "type": "uint256"
        },
        {
          "internalType": "address",
          "name": "player",
          "type": "address"
        }
      ],
      "name": "getCorner",
      "outputs": [
        {
          "internalType": "uint256",
          "name": "",
          "type": "uint256"
        }
      ],
      "payable": false,
      "stateMutability": "view",
      "type": "function"
    },
    {
      "constant": true,
      "inputs": [
        {
          "internalType": "uint256",
          "name": "gameId",
          "type": "uint256"
        },
        {
          "internalType": "address",
          "name": "playerBlack",
          "type": "address"
        },
        {
          "internalType": "address",
          "name": "playerRed",
          "type": "address"
        },
        {
          "internalType": "uint256",
          "name": "random",
          "type": "uint256"
        }
      ],
      "name": "calculateWinner",
      "outputs": [
        {
          "internalType": "address",
          "name": "winner",
          "type": "address"
        },
        {
          "internalType": "address",
          "name": "loser",
          "type": "address"
        },
        {
          "internalType": "uint256",
          "name": "pointsBlack",
          "type": "uint256"
        },
        {
          "internalType": "uint256",
          "name": "pointsRed",
          "type": "uint256"
        }
      ],
      "payable": false,
      "stateMutability": "view",
      "type": "function"
    },
    {
      "constant": false,
      "inputs": [],
      "name": "startAfterCancel",
      "outputs": [],
      "payable": false,
      "stateMutability": "nonpayable",
      "type": "function"
    },
    {
      "constant": false,
      "inputs": [],
      "name": "createGameAndEpoch",
      "outputs": [],
      "payable": false,
      "stateMutability": "nonpayable",
      "type": "function"
    },
    {
      "constant": true,
      "inputs": [
        {
          "internalType": "uint256",
          "name": "gameId",
          "type": "uint256"
        },
        {
          "internalType": "uint256",
          "name": "gameEndTime",
          "type": "uint256"
        }
      ],
      "name": "checkPerformanceHelper",
      "outputs": [
        {
          "internalType": "bool",
          "name": "",
          "type": "bool"
        }
      ],
      "payable": false,
      "stateMutability": "view",
      "type": "function"
    }
  ],
  "bytecode": "0x6080604052336000806101000a81548173ffffffffffffffffffffffffffffffffffffffff021916908373ffffffffffffffffffffffffffffffffffffffff160217905550615322806100536000396000f3fe608060405234801561001057600080fd5b506004361061025e5760003560e01c80638129fc1c11610146578063c1dc2ddc116100c3578063ebff754a11610087578063ebff754a14610e39578063ec55688914610e9f578063f2fde38b14610ee9578063f3ef7d2c14610f2d578063f58f32cf14610f6f578063f9ccbdf214610fb15761025e565b8063c1dc2ddc14610c28578063c97d996914610c32578063c9fe0cef14610ca0578063cefc482614610cf6578063d1ad17bf14610def5761025e565b80639dac052e1161010a5780639dac052e14610a59578063a3b3bd7b14610a87578063aa84869f14610ad1578063b83d8c5214610b13578063c02c8ed714610be65761025e565b80638129fc1c1461092d5780638ad7877a146109375780638b13b64b146109815780638da5cb5b146109cb57806397107d6d14610a155761025e565b80632fab9fd3116101df57806353d820f9116101a357806353d820f9146107095780635daaf798146107775780635f87206d146107a55780636991b5bf146108335780636e47c6351461089d5780637b179988146108ff5761025e565b80632fab9fd31461057957806331856c71146105c957806331fa70671461060b5780633422476d146106995780633c38d0a9146106c75761025e565b8063158d39cb11610226578063158d39cb146103fd57806316805a29146104555780631fc75180146104e3578063228d8dcb1461052d57806329920299146105375761025e565b806305931a3c146102635780630bc644f5146102dd5780630c03955f1461034b5780630d1fd67a146103795780630d8d7aba146103bb575b600080fd5b61028f6004803603602081101561027957600080fd5b8101908080359060200190929190505050611013565b604051808a8152602001898152602001888152602001878152602001868152602001858152602001848152602001838152602001828152602001995050505050505050505060405180910390f35b610349600480360360608110156102f357600080fd5b8101908080359060200190929190803573ffffffffffffffffffffffffffffffffffffffff169060200190929190803573ffffffffffffffffffffffffffffffffffffffff169060200190929190505050611061565b005b6103776004803603602081101561036157600080fd5b8101908080359060200190929190505050611615565b005b6103a56004803603602081101561038f57600080fd5b81019080803590602001909291905050506117a5565b6040518082815260200191505060405180910390f35b6103e7600480360360208110156103d157600080fd5b81019080803590602001909291905050506117c5565b6040518082815260200191505060405180910390f35b6104536004803603606081101561041357600080fd5b8101908080359060200190929190803573ffffffffffffffffffffffffffffffffffffffff169060200190929190803590602001909291905050506117e5565b005b6104a16004803603604081101561046b57600080fd5b8101908080359060200190929190803573ffffffffffffffffffffffffffffffffffffffff1690602001909291905050506118ee565b604051808273ffffffffffffffffffffffffffffffffffffffff1673ffffffffffffffffffffffffffffffffffffffff16815260200191505060405180910390f35b6104eb61196c565b604051808273ffffffffffffffffffffffffffffffffffffffff1673ffffffffffffffffffffffffffffffffffffffff16815260200191505060405180910390f35b610535611992565b005b6105636004803603602081101561054d57600080fd5b8101908080359060200190929190505050611c7f565b6040518082815260200191505060405180910390f35b6105af6004803603604081101561058f57600080fd5b810190808035906020019092919080359060200190929190505050611c9f565b604051808215151515815260200191505060405180910390f35b6105f5600480360360208110156105df57600080fd5b8101908080359060200190929190505050611df6565b6040518082815260200191505060405180910390f35b6106576004803603604081101561062157600080fd5b8101908080359060200190929190803573ffffffffffffffffffffffffffffffffffffffff169060200190929190505050611e16565b604051808273ffffffffffffffffffffffffffffffffffffffff1673ffffffffffffffffffffffffffffffffffffffff16815260200191505060405180910390f35b6106c5600480360360208110156106af57600080fd5b8101908080359060200190929190505050611f37565b005b6106f3600480360360208110156106dd57600080fd5b8101908080359060200190929190505050611f83565b6040518082815260200191505060405180910390f35b6107756004803603606081101561071f57600080fd5b8101908080359060200190929190803573ffffffffffffffffffffffffffffffffffffffff169060200190929190803573ffffffffffffffffffffffffffffffffffffffff169060200190929190505050611fa3565b005b6107a36004803603602081101561078d57600080fd5b810190808035906020019092919050505061207a565b005b6107f1600480360360408110156107bb57600080fd5b8101908080359060200190929190803573ffffffffffffffffffffffffffffffffffffffff169060200190929190505050612252565b604051808273ffffffffffffffffffffffffffffffffffffffff1673ffffffffffffffffffffffffffffffffffffffff16815260200191505060405180910390f35b61085f6004803603602081101561084957600080fd5b81019080803590602001909291905050506122d0565b6040518082600560200280838360005b8381101561088a57808201518184015260208101905061086f565b5050505090500191505060405180910390f35b6108e9600480360360408110156108b357600080fd5b8101908080359060200190929190803573ffffffffffffffffffffffffffffffffffffffff169060200190929190505050612331565b6040518082815260200191505060405180910390f35b61092b6004803603602081101561091557600080fd5b810190808035906020019092919050505061238f565b005b61093561251f565b005b61093f612d1f565b604051808273ffffffffffffffffffffffffffffffffffffffff1673ffffffffffffffffffffffffffffffffffffffff16815260200191505060405180910390f35b610989612d45565b604051808273ffffffffffffffffffffffffffffffffffffffff1673ffffffffffffffffffffffffffffffffffffffff16815260200191505060405180910390f35b6109d3612d6b565b604051808273ffffffffffffffffffffffffffffffffffffffff1673ffffffffffffffffffffffffffffffffffffffff16815260200191505060405180910390f35b610a5760048036036020811015610a2b57600080fd5b81019080803573ffffffffffffffffffffffffffffffffffffffff169060200190929190505050612d90565b005b610a8560048036036020811015610a6f57600080fd5b8101908080359060200190929190505050612e2a565b005b610a8f612f1d565b604051808273ffffffffffffffffffffffffffffffffffffffff1673ffffffffffffffffffffffffffffffffffffffff16815260200191505060405180910390f35b610afd60048036036020811015610ae757600080fd5b8101908080359060200190929190505050612f43565b6040518082815260200191505060405180910390f35b610b5f60048036036040811015610b2957600080fd5b8101908080359060200190929190803573ffffffffffffffffffffffffffffffffffffffff169060200190929190505050612f63565b60405180858152602001841515151581526020018373ffffffffffffffffffffffffffffffffffffffff1673ffffffffffffffffffffffffffffffffffffffff1681526020018273ffffffffffffffffffffffffffffffffffffffff1673ffffffffffffffffffffffffffffffffffffffff16815260200194505050505060405180910390f35b610c1260048036036020811015610bfc57600080fd5b8101908080359060200190929190505050612fed565b6040518082815260200191505060405180910390f35b610c3061300d565b005b610c9e60048036036060811015610c4857600080fd5b8101908080359060200190929190803573ffffffffffffffffffffffffffffffffffffffff169060200190929190803573ffffffffffffffffffffffffffffffffffffffff169060200190929190505050613057565b005b610ce060048036036060811015610cb657600080fd5b8101908080359060200190929190803590602001909291908035906020019092919050505061312e565b6040518082815260200191505060405180910390f35b610d6c60048036036080811015610d0c57600080fd5b8101908080359060200190929190803573ffffffffffffffffffffffffffffffffffffffff169060200190929190803573ffffffffffffffffffffffffffffffffffffffff16906020019092919080359060200190929190505050613386565b604051808573ffffffffffffffffffffffffffffffffffffffff1673ffffffffffffffffffffffffffffffffffffffff1681526020018473ffffffffffffffffffffffffffffffffffffffff1673ffffffffffffffffffffffffffffffffffffffff16815260200183815260200182815260200194505050505060405180910390f35b610df7613907565b604051808273ffffffffffffffffffffffffffffffffffffffff1673ffffffffffffffffffffffffffffffffffffffff16815260200191505060405180910390f35b610e8560048036036040811015610e4f57600080fd5b8101908080359060200190929190803573ffffffffffffffffffffffffffffffffffffffff16906020019092919050505061392d565b604051808215151515815260200191505060405180910390f35b610ea7613998565b604051808273ffffffffffffffffffffffffffffffffffffffff1673ffffffffffffffffffffffffffffffffffffffff16815260200191505060405180910390f35b610f2b60048036036020811015610eff57600080fd5b81019080803573ffffffffffffffffffffffffffffffffffffffff1690602001909291905050506139be565b005b610f5960048036036020811015610f4357600080fd5b8101908080359060200190929190505050613a8c565b6040518082815260200191505060405180910390f35b610f9b60048036036020811015610f8557600080fd5b8101908080359060200190929190505050613aac565b6040518082815260200191505060405180910390f35b610ffd60048036036040811015610fc757600080fd5b8101908080359060200190929190803573ffffffffffffffffffffffffffffffffffffffff169060200190929190505050613acc565b6040518082815260200191505060405180910390f35b60086020528060005260406000206000915090508060000154908060010154908060020154908060030154908060040154908060050154908060060154908060070154908060080154905089565b6040518060400160405280600b81526020017f47616d654d616e616765720000000000000000000000000000000000000000008152506110a081613c2e565b60006110ac85846118ee565b90506000600360009054906101000a900473ffffffffffffffffffffffffffffffffffffffff1673ffffffffffffffffffffffffffffffffffffffff16630b154c9687876040518363ffffffff1660e01b8152600401808381526020018273ffffffffffffffffffffffffffffffffffffffff1673ffffffffffffffffffffffffffffffffffffffff1681526020019250505060806040518083038186803b15801561115757600080fd5b505afa15801561116b573d6000803e3d6000fd5b505050506040513d608081101561118157600080fd5b810190808051906020019092919080519060200190929190805190602001909291908051906020019092919050505050505090506000600360009054906101000a900473ffffffffffffffffffffffffffffffffffffffff1673ffffffffffffffffffffffffffffffffffffffff16630b154c9688856040518363ffffffff1660e01b8152600401808381526020018273ffffffffffffffffffffffffffffffffffffffff1673ffffffffffffffffffffffffffffffffffffffff1681526020019250505060806040518083038186803b15801561125e57600080fd5b505afa158015611272573d6000803e3d6000fd5b505050506040513d608081101561128857600080fd5b810190808051906020019092919080519060200190929190805190602001909291908051906020019092919050505050505090508573ffffffffffffffffffffffffffffffffffffffff168373ffffffffffffffffffffffffffffffffffffffff161461160c578082111561142057856007600089815260200190815260200160002060008773ffffffffffffffffffffffffffffffffffffffff1673ffffffffffffffffffffffffffffffffffffffff16815260200190815260200160002060010160016101000a81548173ffffffffffffffffffffffffffffffffffffffff021916908373ffffffffffffffffffffffffffffffffffffffff160217905550826007600089815260200190815260200160002060008773ffffffffffffffffffffffffffffffffffffffff1673ffffffffffffffffffffffffffffffffffffffff16815260200190815260200160002060020160006101000a81548173ffffffffffffffffffffffffffffffffffffffff021916908373ffffffffffffffffffffffffffffffffffffffff16021790555061160b565b600061142c8887612252565b90506000600360009054906101000a900473ffffffffffffffffffffffffffffffffffffffff1673ffffffffffffffffffffffffffffffffffffffff16630b154c968a846040518363ffffffff1660e01b8152600401808381526020018273ffffffffffffffffffffffffffffffffffffffff1673ffffffffffffffffffffffffffffffffffffffff1681526020019250505060806040518083038186803b1580156114d757600080fd5b505afa1580156114eb573d6000803e3d6000fd5b505050506040513d608081101561150157600080fd5b81019080805190602001909291908051906020019092919080519060200190929190805190602001909291905050505050509050808411801561157057508773ffffffffffffffffffffffffffffffffffffffff168273ffffffffffffffffffffffffffffffffffffffff1614155b156116085787600760008b815260200190815260200160002060008973ffffffffffffffffffffffffffffffffffffffff1673ffffffffffffffffffffffffffffffffffffffff16815260200190815260200160002060020160006101000a81548173ffffffffffffffffffffffffffffffffffffffff021916908373ffffffffffffffffffffffffffffffffffffffff1602179055505b50505b5b50505050505050565b6000600260009054906101000a900473ffffffffffffffffffffffffffffffffffffffff1673ffffffffffffffffffffffffffffffffffffffff1663f0e52c426040518163ffffffff1660e01b815260040160206040518083038186803b15801561167f57600080fd5b505afa158015611693573d6000803e3d6000fd5b505050506040513d60208110156116a957600080fd5b81019080805190602001909291905050509050600080600360009054906101000a900473ffffffffffffffffffffffffffffffffffffffff1673ffffffffffffffffffffffffffffffffffffffff1663bd4f6d1e856040518263ffffffff1660e01b815260040180828152602001915050604080518083038186803b15801561173157600080fd5b505afa158015611745573d6000803e3d6000fd5b505050506040513d604081101561175b57600080fd5b8101908080519060200190929190805190602001909291905050509150915061178583838361312e565b600860008681526020019081526020016000206000018190555050505050565b600060086000838152602001908152602001600020600401549050919050565b600060086000838152602001908152602001600020600701549050919050565b6040518060400160405280600b81526020017f47616d654d616e6167657200000000000000000000000000000000000000000081525061182481613c2e565b60016007600086815260200190815260200160002060008573ffffffffffffffffffffffffffffffffffffffff1673ffffffffffffffffffffffffffffffffffffffff16815260200190815260200160002060010160006101000a81548160ff021916908315150217905550816007600086815260200190815260200160002060008573ffffffffffffffffffffffffffffffffffffffff1673ffffffffffffffffffffffffffffffffffffffff1681526020019081526020016000206000018190555050505050565b60006007600084815260200190815260200160002060008373ffffffffffffffffffffffffffffffffffffffff1673ffffffffffffffffffffffffffffffffffffffff16815260200190815260200160002060010160019054906101000a900473ffffffffffffffffffffffffffffffffffffffff16905092915050565b600360009054906101000a900473ffffffffffffffffffffffffffffffffffffffff1681565b6040518060400160405280600781526020017f43726f6e4a6f62000000000000000000000000000000000000000000000000008152506119d181613c2e565b600660009054906101000a900473ffffffffffffffffffffffffffffffffffffffff1673ffffffffffffffffffffffffffffffffffffffff16639b42e5476040518163ffffffff1660e01b8152600401600060405180830381600087803b158015611a3b57600080fd5b505af1158015611a4f573d6000803e3d6000fd5b50505050600560009054906101000a900473ffffffffffffffffffffffffffffffffffffffff1673ffffffffffffffffffffffffffffffffffffffff1663d65ab5f26040518163ffffffff1660e01b8152600401600060405180830381600087803b158015611abd57600080fd5b505af1158015611ad1573d6000803e3d6000fd5b50505050600160009054906101000a900473ffffffffffffffffffffffffffffffffffffffff1673ffffffffffffffffffffffffffffffffffffffff1663358177736040518060400160405280600c81526020017f5769746864726177506f6f6c00000000000000000000000000000000000000008152506040518263ffffffff1660e01b81526004018080602001828103825283818151815260200191508051906020019080838360005b83811015611b98578082015181840152602081019050611b7d565b50505050905090810190601f168015611bc55780820380516001836020036101000a031916815260200191505b509250505060206040518083038186803b158015611be257600080fd5b505afa158015611bf6573d6000803e3d6000fd5b505050506040513d6020811015611c0c57600080fd5b810190808051906020019092919050505073ffffffffffffffffffffffffffffffffffffffff166333d8cd8e6040518163ffffffff1660e01b8152600401600060405180830381600087803b158015611c6457600080fd5b505af1158015611c78573d6000803e3d6000fd5b5050505050565b600060086000838152602001908152602001600020600201549050919050565b600042611cb6603c84613ec990919063ffffffff16565b11611def57600080600360009054906101000a900473ffffffffffffffffffffffffffffffffffffffff1673ffffffffffffffffffffffffffffffffffffffff1663589ac6a4866040518263ffffffff1660e01b8152600401808281526020019150506101006040518083038186803b158015611d3257600080fd5b505afa158015611d46573d6000803e3d6000fd5b505050506040513d601f19601f82011682018060405250610100811015611d6c57600080fd5b81019080805190602001909291908051906020019092919080519060200190929190805190602001909291909190826040018051906020019092919080519060200190929190505050505050935093505050611dd2600a83613ee090919063ffffffff16565b811015611de457600192505050611df0565b600092505050611df0565b5b92915050565b600060086000838152602001908152602001600020600501549050919050565b6000806000600360009054906101000a900473ffffffffffffffffffffffffffffffffffffffff1673ffffffffffffffffffffffffffffffffffffffff166315a40f49866040518263ffffffff1660e01b81526004018082815260200191505060806040518083038186803b158015611e8e57600080fd5b505afa158015611ea2573d6000803e3d6000fd5b505050506040513d6080811015611eb857600080fd5b81019080805190602001909291908051906020019092919080519060200190929190805190602001909291905050505050915091508373ffffffffffffffffffffffffffffffffffffffff168273ffffffffffffffffffffffffffffffffffffffff161415611f2b578092505050611f31565b81925050505b92915050565b6040518060400160405280600c81526020017f47616d654372656174696f6e0000000000000000000000000000000000000000815250611f7681613c2e565b611f7f82613f17565b5050565b600060086000838152602001908152602001600020600301549050919050565b6040518060400160405280600a81526020017f474d536574746572444200000000000000000000000000000000000000000000815250611fe281613c2e565b816007600086815260200190815260200160002060008573ffffffffffffffffffffffffffffffffffffffff1673ffffffffffffffffffffffffffffffffffffffff16815260200190815260200160002060020160006101000a81548173ffffffffffffffffffffffffffffffffffffffff021916908373ffffffffffffffffffffffffffffffffffffffff16021790555050505050565b6040518060400160405280600b81526020017f47616d654d616e616765720000000000000000000000000000000000000000008152506120b981613c2e565b6000600260009054906101000a900473ffffffffffffffffffffffffffffffffffffffff1673ffffffffffffffffffffffffffffffffffffffff16637a10546d6040518163ffffffff1660e01b815260040160206040518083038186803b15801561212357600080fd5b505afa158015612137573d6000803e3d6000fd5b505050506040513d602081101561214d57600080fd5b81019080805190602001909291905050509050600080600360009054906101000a900473ffffffffffffffffffffffffffffffffffffffff1673ffffffffffffffffffffffffffffffffffffffff1663525a8e4e866040518263ffffffff1660e01b815260040180828152602001915050604080518083038186803b1580156121d557600080fd5b505afa1580156121e9573d6000803e3d6000fd5b505050506040513d60408110156121ff57600080fd5b8101908080519060200190929190805190602001909291905050509150915061222983838361312e565b600860008781526020019081526020016000206002018190555061224b61448a565b5050505050565b60006007600084815260200190815260200160002060008373ffffffffffffffffffffffffffffffffffffffff1673ffffffffffffffffffffffffffffffffffffffff16815260200190815260200160002060020160009054906101000a900473ffffffffffffffffffffffffffffffffffffffff16905092915050565b6122d861519c565b60086000838152602001908152602001600020600901600580602002604051908101604052809291908260058015612325576020028201915b815481526020019060010190808311612311575b50505050509050919050565b60006007600084815260200190815260200160002060008373ffffffffffffffffffffffffffffffffffffffff1673ffffffffffffffffffffffffffffffffffffffff16815260200190815260200160002060000154905092915050565b6000600260009054906101000a900473ffffffffffffffffffffffffffffffffffffffff1673ffffffffffffffffffffffffffffffffffffffff16639c04b9cd6040518163ffffffff1660e01b815260040160206040518083038186803b1580156123f957600080fd5b505afa15801561240d573d6000803e3d6000fd5b505050506040513d602081101561242357600080fd5b81019080805190602001909291905050509050600080600360009054906101000a900473ffffffffffffffffffffffffffffffffffffffff1673ffffffffffffffffffffffffffffffffffffffff1663bd4f6d1e856040518263ffffffff1660e01b815260040180828152602001915050604080518083038186803b1580156124ab57600080fd5b505afa1580156124bf573d6000803e3d6000fd5b505050506040513d60408110156124d557600080fd5b810190808051906020019092919080519060200190929190505050915091506124ff83838361312e565b600860008681526020019081526020016000206001018190555050505050565b6000809054906101000a900473ffffffffffffffffffffffffffffffffffffffff1673ffffffffffffffffffffffffffffffffffffffff163373ffffffffffffffffffffffffffffffffffffffff161461257557fe5b600160009054906101000a900473ffffffffffffffffffffffffffffffffffffffff1673ffffffffffffffffffffffffffffffffffffffff1663358177736040518060400160405280600d81526020017f47616d65566172416e64466565000000000000000000000000000000000000008152506040518263ffffffff1660e01b81526004018080602001828103825283818151815260200191508051906020019080838360005b8381101561263857808201518184015260208101905061261d565b50505050905090810190601f1680156126655780820380516001836020036101000a031916815260200191505b509250505060206040518083038186803b15801561268257600080fd5b505afa158015612696573d6000803e3d6000fd5b505050506040513d60208110156126ac57600080fd5b8101908080519060200190929190505050600260006101000a81548173ffffffffffffffffffffffffffffffffffffffff021916908373ffffffffffffffffffffffffffffffffffffffff160217905550600160009054906101000a900473ffffffffffffffffffffffffffffffffffffffff1673ffffffffffffffffffffffffffffffffffffffff1663358177736040518060400160405280600a81526020017f474d4765747465724442000000000000000000000000000000000000000000008152506040518263ffffffff1660e01b81526004018080602001828103825283818151815260200191508051906020019080838360005b838110156127c05780820151818401526020810190506127a5565b50505050905090810190601f1680156127ed5780820380516001836020036101000a031916815260200191505b509250505060206040518083038186803b15801561280a57600080fd5b505afa15801561281e573d6000803e3d6000fd5b505050506040513d602081101561283457600080fd5b8101908080519060200190929190505050600360006101000a81548173ffffffffffffffffffffffffffffffffffffffff021916908373ffffffffffffffffffffffffffffffffffffffff160217905550600160009054906101000a900473ffffffffffffffffffffffffffffffffffffffff1673ffffffffffffffffffffffffffffffffffffffff1663358177736040518060400160405280600b81526020017f486974735265736f6c76650000000000000000000000000000000000000000008152506040518263ffffffff1660e01b81526004018080602001828103825283818151815260200191508051906020019080838360005b8381101561294857808201518184015260208101905061292d565b50505050905090810190601f1680156129755780820380516001836020036101000a031916815260200191505b509250505060206040518083038186803b15801561299257600080fd5b505afa1580156129a6573d6000803e3d6000fd5b505050506040513d60208110156129bc57600080fd5b8101908080519060200190929190505050600460006101000a81548173ffffffffffffffffffffffffffffffffffffffff021916908373ffffffffffffffffffffffffffffffffffffffff160217905550600160009054906101000a900473ffffffffffffffffffffffffffffffffffffffff1673ffffffffffffffffffffffffffffffffffffffff1663358177736040518060400160405280600981526020017f5363686564756c657200000000000000000000000000000000000000000000008152506040518263ffffffff1660e01b81526004018080602001828103825283818151815260200191508051906020019080838360005b83811015612ad0578082015181840152602081019050612ab5565b50505050905090810190601f168015612afd5780820380516001836020036101000a031916815260200191505b509250505060206040518083038186803b158015612b1a57600080fd5b505afa158015612b2e573d6000803e3d6000fd5b505050506040513d6020811015612b4457600080fd5b8101908080519060200190929190505050600560006101000a81548173ffffffffffffffffffffffffffffffffffffffff021916908373ffffffffffffffffffffffffffffffffffffffff160217905550600160009054906101000a900473ffffffffffffffffffffffffffffffffffffffff1673ffffffffffffffffffffffffffffffffffffffff1663358177736040518060400160405280600981526020017f54696d654672616d6500000000000000000000000000000000000000000000008152506040518263ffffffff1660e01b81526004018080602001828103825283818151815260200191508051906020019080838360005b83811015612c58578082015181840152602081019050612c3d565b50505050905090810190601f168015612c855780820380516001836020036101000a031916815260200191505b509250505060206040518083038186803b158015612ca257600080fd5b505afa158015612cb6573d6000803e3d6000fd5b505050506040513d6020811015612ccc57600080fd5b8101908080519060200190929190505050600660006101000a81548173ffffffffffffffffffffffffffffffffffffffff021916908373ffffffffffffffffffffffffffffffffffffffff160217905550565b600460009054906101000a900473ffffffffffffffffffffffffffffffffffffffff1681565b600660009054906101000a900473ffffffffffffffffffffffffffffffffffffffff1681565b6000809054906101000a900473ffffffffffffffffffffffffffffffffffffffff1681565b6000809054906101000a900473ffffffffffffffffffffffffffffffffffffffff1673ffffffffffffffffffffffffffffffffffffffff163373ffffffffffffffffffffffffffffffffffffffff1614612de657fe5b80600160006101000a81548173ffffffffffffffffffffffffffffffffffffffff021916908373ffffffffffffffffffffffffffffffffffffffff16021790555050565b600073ffffffffffffffffffffffffffffffffffffffff163373ffffffffffffffffffffffffffffffffffffffff161415612e6157fe5b612e9f6040518060400160405280600b81526020017f73757065725f61646d696e000000000000000000000000000000000000000000815250614e36565b612f11576040517f08c379a00000000000000000000000000000000000000000000000000000000081526004018080602001828103825260108152602001807f4f6e6c792073757065722061646d696e0000000000000000000000000000000081525060200191505060405180910390fd5b612f1a81613f17565b50565b600260009054906101000a900473ffffffffffffffffffffffffffffffffffffffff1681565b600060086000838152602001908152602001600020600101549050919050565b6007602052816000526040600020602052806000526040600020600091509150508060000154908060010160009054906101000a900460ff16908060010160019054906101000a900473ffffffffffffffffffffffffffffffffffffffff16908060020160009054906101000a900473ffffffffffffffffffffffffffffffffffffffff16905084565b600060086000838152602001908152602001600020600601549050919050565b6040518060400160405280600b81526020017f47616d654d616e6167657200000000000000000000000000000000000000000081525061304c81613c2e565b61305461448a565b50565b6040518060400160405280600a81526020017f474d53657474657244420000000000000000000000000000000000000000000081525061309681613c2e565b816007600086815260200190815260200160002060008573ffffffffffffffffffffffffffffffffffffffff1673ffffffffffffffffffffffffffffffffffffffff16815260200190815260200160002060010160016101000a81548173ffffffffffffffffffffffffffffffffffffffff021916908373ffffffffffffffffffffffffffffffffffffffff16021790555050505050565b6000808411801561313f5750600083115b801561314b5750600082115b6131bd576040517f08c379a00000000000000000000000000000000000000000000000000000000081526004018080602001828103825260098152602001807f44657374726f796564000000000000000000000000000000000000000000000081525060200191505060405180910390fd5b6000600260009054906101000a900473ffffffffffffffffffffffffffffffffffffffff1673ffffffffffffffffffffffffffffffffffffffff1663a0a8045e6040518163ffffffff1660e01b815260040160206040518083038186803b15801561322757600080fd5b505afa15801561323b573d6000803e3d6000fd5b505050506040513d602081101561325157600080fd5b810190808051906020019092919050505090506000600260009054906101000a900473ffffffffffffffffffffffffffffffffffffffff1673ffffffffffffffffffffffffffffffffffffffff1663271bf40f6040518163ffffffff1660e01b815260040160206040518083038186803b1580156132ce57600080fd5b505afa1580156132e2573d6000803e3d6000fd5b505050506040513d60208110156132f857600080fd5b8101908080519060200190929190505050905061337b620f424061336d6133288988613ee090919063ffffffff16565b61335f856133518c6133438a8e613ee090919063ffffffff16565b613ee090919063ffffffff16565b6150b290919063ffffffff16565b6150cb90919063ffffffff16565b6150b290919063ffffffff16565b925050509392505050565b6000806000806040518060400160405280600b81526020017f47616d654d616e616765720000000000000000000000000000000000000000008152506133cb81613c2e565b600460009054906101000a900473ffffffffffffffffffffffffffffffffffffffff1673ffffffffffffffffffffffffffffffffffffffff1663c0eef7188a8a896040518463ffffffff1660e01b8152600401808481526020018373ffffffffffffffffffffffffffffffffffffffff1673ffffffffffffffffffffffffffffffffffffffff168152602001828152602001935050505060206040518083038186803b15801561347a57600080fd5b505afa15801561348e573d6000803e3d6000fd5b505050506040513d60208110156134a457600080fd5b81019080805190602001909291905050509250600460009054906101000a900473ffffffffffffffffffffffffffffffffffffffff1673ffffffffffffffffffffffffffffffffffffffff1663c0eef7188a89896040518463ffffffff1660e01b8152600401808481526020018373ffffffffffffffffffffffffffffffffffffffff1673ffffffffffffffffffffffffffffffffffffffff168152602001828152602001935050505060206040518083038186803b15801561356657600080fd5b505afa15801561357a573d6000803e3d6000fd5b505050506040513d602081101561359057600080fd5b8101908080519060200190929190505050915061369783600360009054906101000a900473ffffffffffffffffffffffffffffffffffffffff1673ffffffffffffffffffffffffffffffffffffffff1663bacf524e8c8c6040518363ffffffff1660e01b8152600401808381526020018273ffffffffffffffffffffffffffffffffffffffff1673ffffffffffffffffffffffffffffffffffffffff1681526020019250505060206040518083038186803b15801561364e57600080fd5b505afa158015613662573d6000803e3d6000fd5b505050506040513d602081101561367857600080fd5b8101908080519060200190929190505050613ee090919063ffffffff16565b925061378d82600360009054906101000a900473ffffffffffffffffffffffffffffffffffffffff1673ffffffffffffffffffffffffffffffffffffffff1663bacf524e8c8b6040518363ffffffff1660e01b8152600401808381526020018273ffffffffffffffffffffffffffffffffffffffff1673ffffffffffffffffffffffffffffffffffffffff1681526020019250505060206040518083038186803b15801561374457600080fd5b505afa158015613758573d6000803e3d6000fd5b505050506040513d602081101561376e57600080fd5b8101908080519060200190929190505050613ee090919063ffffffff16565b9150818311156137a2578794508693506138fb565b828211156137b5578694508793506138fa565b6137bd6151be565b600360009054906101000a900473ffffffffffffffffffffffffffffffffffffffff1673ffffffffffffffffffffffffffffffffffffffff1663589ac6a48b6040518263ffffffff1660e01b8152600401808281526020019150506101006040518083038186803b15801561383157600080fd5b505afa158015613845573d6000803e3d6000fd5b505050506040513d601f19601f8201168201806040525061010081101561386b57600080fd5b810190808051906020019092919080519060200190929190805190602001909291908051906020019092919091908260400180519060200190929190805190602001909291905050505050945050505050806001600281106138c957fe5b6020020151816000600281106138db57fe5b602002015111156138f1578895508794506138f8565b8795508894505b505b5b50945094509450949050565b600560009054906101000a900473ffffffffffffffffffffffffffffffffffffffff1681565b60006007600084815260200190815260200160002060008373ffffffffffffffffffffffffffffffffffffffff1673ffffffffffffffffffffffffffffffffffffffff16815260200190815260200160002060010160009054906101000a900460ff16905092915050565b600160009054906101000a900473ffffffffffffffffffffffffffffffffffffffff1681565b6000809054906101000a900473ffffffffffffffffffffffffffffffffffffffff1673ffffffffffffffffffffffffffffffffffffffff163373ffffffffffffffffffffffffffffffffffffffff1614613a1457fe5b600073ffffffffffffffffffffffffffffffffffffffff168173ffffffffffffffffffffffffffffffffffffffff1614613a8957806000806101000a81548173ffffffffffffffffffffffffffffffffffffffff021916908373ffffffffffffffffffffffffffffffffffffffff1602179055505b50565b600060086000838152602001908152602001600020600801549050919050565b600060086000838152602001908152602001600020600001549050919050565b6000806000600360009054906101000a900473ffffffffffffffffffffffffffffffffffffffff1673ffffffffffffffffffffffffffffffffffffffff166315a40f49866040518263ffffffff1660e01b81526004018082815260200191505060806040518083038186803b158015613b4457600080fd5b505afa158015613b58573d6000803e3d6000fd5b505050506040513d6080811015613b6e57600080fd5b81019080805190602001909291908051906020019092919080519060200190929190805190602001909291905050505050915091508373ffffffffffffffffffffffffffffffffffffffff168273ffffffffffffffffffffffffffffffffffffffff161415613be257600092505050613c28565b8373ffffffffffffffffffffffffffffffffffffffff168173ffffffffffffffffffffffffffffffffffffffff161415613c2157600192505050613c28565b6002925050505b92915050565b600073ffffffffffffffffffffffffffffffffffffffff16600160009054906101000a900473ffffffffffffffffffffffffffffffffffffffff1673ffffffffffffffffffffffffffffffffffffffff161415613cf3576040517f08c379a00000000000000000000000000000000000000000000000000000000081526004018080602001828103825260088152602001807f4e6f2050726f787900000000000000000000000000000000000000000000000081525060200191505060405180910390fd5b6000600160009054906101000a900473ffffffffffffffffffffffffffffffffffffffff1673ffffffffffffffffffffffffffffffffffffffff166335817773836040518263ffffffff1660e01b81526004018080602001828103825283818151815260200191508051906020019080838360005b83811015613d83578082015181840152602081019050613d68565b50505050905090810190601f168015613db05780820380516001836020036101000a031916815260200191505b509250505060206040518083038186803b158015613dcd57600080fd5b505afa158015613de1573d6000803e3d6000fd5b505050506040513d6020811015613df757600080fd5b81019080805190602001909291905050509050600073ffffffffffffffffffffffffffffffffffffffff168173ffffffffffffffffffffffffffffffffffffffff161415613e4157fe5b8073ffffffffffffffffffffffffffffffffffffffff163373ffffffffffffffffffffffffffffffffffffffff1614613ec5576040517f08c379a000000000000000000000000000000000000000000000000000000000815260040180806020018281038252602d8152602001806152c1602d913960400191505060405180910390fd5b5050565b600082821115613ed557fe5b818303905092915050565b600080831415613ef35760009050613f11565b6000828402905082848281613f0457fe5b0414613f0c57fe5b809150505b92915050565b613f1f6151e0565b600081600001818152505060008160200181815250506000816040018181525050600260009054906101000a900473ffffffffffffffffffffffffffffffffffffffff1673ffffffffffffffffffffffffffffffffffffffff16639840060f6040518163ffffffff1660e01b815260040160206040518083038186803b158015613fa857600080fd5b505afa158015613fbc573d6000803e3d6000fd5b505050506040513d6020811015613fd257600080fd5b8101908080519060200190929190505050816060018181525050600260009054906101000a900473ffffffffffffffffffffffffffffffffffffffff1673ffffffffffffffffffffffffffffffffffffffff166333dbee176040518163ffffffff1660e01b815260040160206040518083038186803b15801561405457600080fd5b505afa158015614068573d6000803e3d6000fd5b505050506040513d602081101561407e57600080fd5b8101908080519060200190929190505050816080018181525050600260009054906101000a900473ffffffffffffffffffffffffffffffffffffffff1673ffffffffffffffffffffffffffffffffffffffff166368afa5416040518163ffffffff1660e01b815260040160206040518083038186803b15801561410057600080fd5b505afa158015614114573d6000803e3d6000fd5b505050506040513d602081101561412a57600080fd5b81019080805190602001909291905050508160a0018181525050600260009054906101000a900473ffffffffffffffffffffffffffffffffffffffff1673ffffffffffffffffffffffffffffffffffffffff16633e4c883f6040518163ffffffff1660e01b815260040160a06040518083038186803b1580156141ac57600080fd5b505afa1580156141c0573d6000803e3d6000fd5b505050506040513d601f19601f8201168201806040525060a08110156141e557600080fd5b8101908091905050816101200181905250600260009054906101000a900473ffffffffffffffffffffffffffffffffffffffff1673ffffffffffffffffffffffffffffffffffffffff1663d693a9896040518163ffffffff1660e01b815260040160206040518083038186803b15801561425e57600080fd5b505afa158015614272573d6000803e3d6000fd5b505050506040513d602081101561428857600080fd5b81019080805190602001909291905050508160c0018181525050600260009054906101000a900473ffffffffffffffffffffffffffffffffffffffff1673ffffffffffffffffffffffffffffffffffffffff1663ae1d48a86040518163ffffffff1660e01b815260040160206040518083038186803b15801561430a57600080fd5b505afa15801561431e573d6000803e3d6000fd5b505050506040513d602081101561433457600080fd5b81019080805190602001909291905050508160e0018181525050600260009054906101000a900473ffffffffffffffffffffffffffffffffffffffff1673ffffffffffffffffffffffffffffffffffffffff16631697e4b66040518163ffffffff1660e01b815260040160206040518083038186803b1580156143b657600080fd5b505afa1580156143ca573d6000803e3d6000fd5b505050506040513d60208110156143e057600080fd5b8101908080519060200190929190505050816101000181815250508060086000848152602001908152602001600020600082015181600001556020820151816001015560408201518160020155606082015181600301556080820151816004015560a0820151816005015560c0820151816006015560e08201518160070155610100820151816008015561012082015181600901906005614482929190615239565b509050505050565b6000600660009054906101000a900473ffffffffffffffffffffffffffffffffffffffff1673ffffffffffffffffffffffffffffffffffffffff16630b3fbd5f6040518163ffffffff1660e01b815260040160206040518083038186803b1580156144f457600080fd5b505afa158015614508573d6000803e3d6000fd5b505050506040513d602081101561451e57600080fd5b810190808051906020019092919050505090506000600660009054906101000a900473ffffffffffffffffffffffffffffffffffffffff1673ffffffffffffffffffffffffffffffffffffffff16632ca12ad0836040518263ffffffff1660e01b81526004018082815260200191505060206040518083038186803b1580156145a657600080fd5b505afa1580156145ba573d6000803e3d6000fd5b505050506040513d60208110156145d057600080fd5b8101908080519060200190929190505050905061469842600260009054906101000a900473ffffffffffffffffffffffffffffffffffffffff1673ffffffffffffffffffffffffffffffffffffffff1663a38bcf206040518163ffffffff1660e01b815260040160206040518083038186803b15801561464f57600080fd5b505afa158015614663573d6000803e3d6000fd5b505050506040513d602081101561467957600080fd5b81019080805190602001909291905050506150cb90919063ffffffff16565b6146ac60be83613ec990919063ffffffff16565b11614daf576000600160009054906101000a900473ffffffffffffffffffffffffffffffffffffffff1673ffffffffffffffffffffffffffffffffffffffff1663358177736040518060400160405280600781526020017f43726f6e4a6f62000000000000000000000000000000000000000000000000008152506040518263ffffffff1660e01b81526004018080602001828103825283818151815260200191508051906020019080838360005b8381101561477657808201518184015260208101905061475b565b50505050905090810190601f1680156147a35780820380516001836020036101000a031916815260200191505b509250505060206040518083038186803b1580156147c057600080fd5b505afa1580156147d4573d6000803e3d6000fd5b505050506040513d60208110156147ea57600080fd5b810190808051906020019092919050505090508073ffffffffffffffffffffffffffffffffffffffff1663c19304966040518060400160405280600981526020017f47616d6553746f72650000000000000000000000000000000000000000000000815250846040516024016040516020818303038152906040527f228d8dcb000000000000000000000000000000000000000000000000000000007bffffffffffffffffffffffffffffffffffffffffffffffffffffffff19166020820180517bffffffffffffffffffffffffffffffffffffffffffffffffffffffff83818316178352505050506040518463ffffffff1660e01b8152600401808060200184815260200180602001838103835286818151815260200191508051906020019080838360005b8381101561492c578082015181840152602081019050614911565b50505050905090810190601f1680156149595780820380516001836020036101000a031916815260200191505b50838103825284818151815260200191508051906020019080838360005b83811015614992578082015181840152602081019050614977565b50505050905090810190601f1680156149bf5780820380516001836020036101000a031916815260200191505b5095505050505050602060405180830381600087803b1580156149e157600080fd5b505af11580156149f5573d6000803e3d6000fd5b505050506040513d6020811015614a0b57600080fd5b810190808051906020019092919050505050600160009054906101000a900473ffffffffffffffffffffffffffffffffffffffff1673ffffffffffffffffffffffffffffffffffffffff1663358177736040518060400160405280600c81526020017f5769746864726177506f6f6c00000000000000000000000000000000000000008152506040518263ffffffff1660e01b81526004018080602001828103825283818151815260200191508051906020019080838360005b83811015614ae0578082015181840152602081019050614ac5565b50505050905090810190601f168015614b0d5780820380516001836020036101000a031916815260200191505b509250505060206040518083038186803b158015614b2a57600080fd5b505afa158015614b3e573d6000803e3d6000fd5b505050506040513d6020811015614b5457600080fd5b810190808051906020019092919050505073ffffffffffffffffffffffffffffffffffffffff16632e964e7e84600160009054906101000a900473ffffffffffffffffffffffffffffffffffffffff1673ffffffffffffffffffffffffffffffffffffffff1663358177736040518060400160405280600b81526020017f456e646f776d656e7444420000000000000000000000000000000000000000008152506040518263ffffffff1660e01b81526004018080602001828103825283818151815260200191508051906020019080838360005b83811015614c44578082015181840152602081019050614c29565b50505050905090810190601f168015614c715780820380516001836020036101000a031916815260200191505b509250505060206040518083038186803b158015614c8e57600080fd5b505afa158015614ca2573d6000803e3d6000fd5b505050506040513d6020811015614cb857600080fd5b810190808051906020019092919050505073ffffffffffffffffffffffffffffffffffffffff16636d71894b876040518263ffffffff1660e01b81526004018082815260200191505060206040518083038186803b158015614d1957600080fd5b505afa158015614d2d573d6000803e3d6000fd5b505050506040513d6020811015614d4357600080fd5b81019080805190602001909291905050506040518363ffffffff1660e01b81526004018083815260200182815260200192505050600060405180830381600087803b158015614d9157600080fd5b505af1158015614da5573d6000803e3d6000fd5b5050505050614e32565b600560009054906101000a900473ffffffffffffffffffffffffffffffffffffffff1673ffffffffffffffffffffffffffffffffffffffff1663d65ab5f26040518163ffffffff1660e01b8152600401600060405180830381600087803b158015614e1957600080fd5b505af1158015614e2d573d6000803e3d6000fd5b505050505b5050565b6000600160009054906101000a900473ffffffffffffffffffffffffffffffffffffffff1673ffffffffffffffffffffffffffffffffffffffff1663358177736040518060400160405280600681526020017f526f6c65444200000000000000000000000000000000000000000000000000008152506040518263ffffffff1660e01b81526004018080602001828103825283818151815260200191508051906020019080838360005b83811015614efb578082015181840152602081019050614ee0565b50505050905090810190601f168015614f285780820380516001836020036101000a031916815260200191505b509250505060206040518083038186803b158015614f4557600080fd5b505afa158015614f59573d6000803e3d6000fd5b505050506040513d6020811015614f6f57600080fd5b810190808051906020019092919050505073ffffffffffffffffffffffffffffffffffffffff16636c9cd09783614fa46150e7565b6040518363ffffffff1660e01b815260040180806020018373ffffffffffffffffffffffffffffffffffffffff1673ffffffffffffffffffffffffffffffffffffffff168152602001828103825284818151815260200191508051906020019080838360005b8381101561502557808201518184015260208101905061500a565b50505050905090810190601f1680156150525780820380516001836020036101000a031916815260200191505b50935050505060206040518083038186803b15801561507057600080fd5b505afa158015615084573d6000803e3d6000fd5b505050506040513d602081101561509a57600080fd5b81019080805190602001909291905050509050919050565b6000808284816150be57fe5b0490508091505092915050565b6000808284019050838110156150dd57fe5b8091505092915050565b6000600160009054906101000a900473ffffffffffffffffffffffffffffffffffffffff1673ffffffffffffffffffffffffffffffffffffffff163373ffffffffffffffffffffffffffffffffffffffff161461514657339050615199565b6000601436036000602052601481602c37602051915050600073ffffffffffffffffffffffffffffffffffffffff168173ffffffffffffffffffffffffffffffffffffffff16141561519457fe5b809150505b90565b6040518060a00160405280600590602082028038833980820191505090505090565b6040518060400160405280600290602082028038833980820191505090505090565b604051806101400160405280600081526020016000815260200160008152602001600081526020016000815260200160008152602001600081526020016000815260200160008152602001615233615279565b81525090565b8260058101928215615268579160200282015b8281111561526757825182559160200191906001019061524c565b5b509050615275919061529b565b5090565b6040518060a00160405280600590602082028038833980820191505090505090565b6152bd91905b808211156152b95760008160009055506001016152a1565b5090565b9056fe416363657373206973206f6e6c7920616c6c6f7765642066726f6d20737065636966696320636f6e7472616374a265627a7a72315820f8c4ae5421d7bd237f4d8d5373a4dd6cf532149855c7ef5d40fd4a35384142bc64736f6c63430005110032",
  "source": "pragma solidity ^0.5.5;\r\n\r\nimport '../proxy/Proxied.sol';\r\nimport \"../../GameVarAndFee.sol\";\r\nimport \"../databases/GMGetterDB.sol\";\r\nimport \"../../libs/SafeMath.sol\";\r\nimport \"../algorithm/HitsResolveAlgo.sol\";\r\nimport '../../authority/Guard.sol';\r\nimport \"../datetime/TimeFrame.sol\";\r\nimport \"../../withdrawPool/WithdrawPool.sol\";\r\nimport \"../gamemanager/Scheduler.sol\";\r\nimport \"../../CronJob.sol\";\r\nimport \"../databases/EndowmentDB.sol\";\r\n\r\ncontract GameStore is Proxied, Guard {\r\n\r\n    using SafeMath for uint256;\r\n\r\n    GameVarAndFee public gameVarAndFee;\r\n    GMGetterDB public gmGetterDB;\r\n    HitsResolve public hitsResolve;\r\n    Scheduler public scheduler;\r\n    TimeFrame public timeFrame;\r\n\r\n    struct Game {\r\n        uint randomNum; //when pressing start\r\n        bool pressedStart;\r\n        address topBettor;\r\n        address secondTopBettor;\r\n    }\r\n\r\n    struct GlobalSettings {\r\n        uint bettingFee;\r\n        uint ticketFee;\r\n        uint redemptionFee;\r\n        uint kittieHellExpirationTime;\r\n        uint honeypotExpirationTime;\r\n        uint minimumContributors;\r\n        uint finalizeRewards;\r\n        uint timeExtension;\r\n        uint performanceTime;\r\n        uint[5] distributionRates;\r\n    }\r\n\r\n    //Players info in a game\r\n    mapping(uint => mapping(address => Game)) public gameByPlayer;\r\n    mapping(uint => GlobalSettings) public gameSettings;\r\n\r\n    function initialize() external onlyOwner {\r\n        gameVarAndFee = GameVarAndFee(proxy.getContract(CONTRACT_NAME_GAMEVARANDFEE));\r\n        gmGetterDB = GMGetterDB(proxy.getContract(CONTRACT_NAME_GM_GETTER_DB));\r\n        hitsResolve = HitsResolve(proxy.getContract(CONTRACT_NAME_HITSRESOLVE));\r\n        scheduler = Scheduler(proxy.getContract(CONTRACT_NAME_SCHEDULER));\r\n        timeFrame = TimeFrame(proxy.getContract(CONTRACT_NAME_TIMEFRAME));\r\n    }\r\n\r\n    function lock(uint gameId) internal{\r\n        GlobalSettings memory globalSettings;\r\n\r\n        globalSettings.bettingFee = 0;\r\n        globalSettings.ticketFee = 0;\r\n        globalSettings.redemptionFee = 0;\r\n        globalSettings.kittieHellExpirationTime = gameVarAndFee.getKittieExpiry();\r\n        globalSettings.honeypotExpirationTime = gameVarAndFee.getHoneypotExpiration();\r\n        globalSettings.minimumContributors = gameVarAndFee.getMinimumContributors();\r\n        globalSettings.distributionRates = gameVarAndFee.getDistributionRates();\r\n        globalSettings.finalizeRewards = gameVarAndFee.getFinalizeRewards();\r\n        globalSettings.timeExtension = gameVarAndFee.getTimeExtension();\r\n        globalSettings.performanceTime = gameVarAndFee.getPerformanceTimeCheck();\r\n\r\n        gameSettings[gameId] = globalSettings;\r\n    }\r\n\r\n    function lockVars(uint gameId) external onlyContract(CONTRACT_NAME_GAMECREATION){\r\n        lock(gameId);\r\n    }\r\n\r\n    function lockVarsAdmin(uint gameId) external onlySuperAdmin{\r\n        lock(gameId);\r\n    }\r\n\r\n    function getDistributionRates(uint gameId) public view returns(uint[5] memory){\r\n        return gameSettings[gameId].distributionRates;\r\n    }\r\n\r\n    function calculateDynamicFee\r\n    (\r\n        uint256 percentageHoneyPot,\r\n        uint256 _eth_amount,\r\n        uint256 _kty_amount\r\n    )\r\n        public view returns(uint256)\r\n    {\r\n        require(percentageHoneyPot > 0 && _eth_amount > 0 && _kty_amount > 0, \"Destroyed\");\r\n\r\n        uint256 ethUsdPrice = gameVarAndFee.getEthUsdPrice();\r\n        uint256 usdKTYPrice = gameVarAndFee.getUsdKTYPrice();\r\n\r\n        // 1,000,000 is the base used for percentage setting in kittieFight\r\n        // for example, if percentageHoneyPot is 0.03% in real world, inside this function\r\n        // percentageHoneyPot = 0.03% * 1,000,1000 which is 300, thus for the need of div(1000000)\r\n        return ((_eth_amount.mul(ethUsdPrice).mul(percentageHoneyPot).div(usdKTYPrice)).add((_kty_amount.mul(percentageHoneyPot)))).div(1000000);\r\n    }\r\n\r\n    function updateKittieRedemptionFee(uint256 gameId)\r\n        public\r\n        onlyContract(CONTRACT_NAME_GAMEMANAGER)\r\n    {\r\n        uint256 percentageHoneyPot = gameVarAndFee.getPercentageForKittieRedemptionFee();\r\n        (uint256 totalEthFunds, uint256 totalKTYFunds) = gmGetterDB.getFinalHoneypot(gameId);\r\n\r\n        gameSettings[gameId].redemptionFee = calculateDynamicFee(percentageHoneyPot, totalEthFunds, totalKTYFunds);        \r\n\r\n        startGameAndCalculateEpoch();\r\n    }\r\n\r\n    function updateTicketFee(uint256 gameId)\r\n        public\r\n    {\r\n        uint256 percentageHoneyPot = gameVarAndFee.getPercentageForTicketFee();\r\n        (uint256 initialHoneypotEth, uint256 initialHoneypotKTY) = gmGetterDB.getInitialHoneypot(gameId);\r\n        gameSettings[gameId].ticketFee = calculateDynamicFee(percentageHoneyPot, initialHoneypotEth, initialHoneypotKTY);\r\n    }\r\n\r\n    function updateBettingFee(uint256 gameId)\r\n        public\r\n    {\r\n        uint256 percentageHoneyPot = gameVarAndFee.getPercentageForBettingFee();\r\n        (uint256 initialHoneypotEth, uint256 initialHoneypotKTY) = gmGetterDB.getInitialHoneypot(gameId);\r\n        gameSettings[gameId].bettingFee = calculateDynamicFee(percentageHoneyPot, initialHoneypotEth, initialHoneypotKTY);\r\n    }\r\n\r\n    function getKittieExpirationTime(uint gameId) public view returns(uint){\r\n        return  gameSettings[gameId].kittieHellExpirationTime;\r\n    }\r\n\r\n    function getKittieRedemptionFee(uint gameId) public view returns(uint){\r\n        return  gameSettings[gameId].redemptionFee;\r\n    }\r\n    \r\n    function getHoneypotExpiration(uint gameId) public view returns(uint){\r\n        return  gameSettings[gameId].honeypotExpirationTime;\r\n    }\r\n\r\n    function start(uint gameId, address player, uint randomNum) external onlyContract(CONTRACT_NAME_GAMEMANAGER){\r\n        gameByPlayer[gameId][player].pressedStart = true;\r\n        gameByPlayer[gameId][player].randomNum = randomNum;\r\n    }\r\n\r\n    function didHitStart(uint gameId, address player) public view returns(bool){\r\n        return gameByPlayer[gameId][player].pressedStart;\r\n    }\r\n\r\n    function getRandom(uint gameId, address player) public view returns(uint){\r\n        return gameByPlayer[gameId][player].randomNum;\r\n    }\r\n\r\n    function updateTopBettor(uint gameId, address player, address newTopBettor) external onlyContract(CONTRACT_NAME_GM_SETTER_DB){\r\n        gameByPlayer[gameId][player].topBettor = newTopBettor;\r\n    }\r\n\r\n    function getTopBettor(uint gameId, address player) public view returns(address){\r\n        return gameByPlayer[gameId][player].topBettor;\r\n    }\r\n\r\n    function updateSecondTopBettor(uint gameId, address player, address newSecondTopBettor) external onlyContract(CONTRACT_NAME_GM_SETTER_DB){\r\n        gameByPlayer[gameId][player].secondTopBettor = newSecondTopBettor;\r\n    }\r\n\r\n    function getSecondTopBettor(uint gameId, address player) public view returns(address){\r\n        return gameByPlayer[gameId][player].secondTopBettor;\r\n    }\r\n\r\n    function getTicketFee(uint gameId) public view returns(uint){\r\n        return gameSettings[gameId].ticketFee;\r\n    }\r\n\r\n    function getBettingFee(uint gameId) public view returns(uint){\r\n        return gameSettings[gameId].bettingFee;\r\n    }\r\n\r\n    function getMinimumContributors(uint gameId) public view returns(uint){\r\n        return gameSettings[gameId].minimumContributors;\r\n    }\r\n\r\n    function getFinalizeRewards(uint gameId) public view returns(uint){\r\n        return gameSettings[gameId].finalizeRewards;\r\n    }\r\n\r\n    function getPerformanceTimeCheck(uint gameId) public view returns(uint){\r\n        return gameSettings[gameId].performanceTime;\r\n    }\r\n\r\n    function getTimeExtension(uint gameId) public view returns(uint){\r\n        return gameSettings[gameId].timeExtension;\r\n    }\r\n\r\n    function updateTopbettors(uint256 _gameId, address _account, address _supportedPlayer)\r\n        external\r\n        onlyContract(CONTRACT_NAME_GAMEMANAGER)\r\n        // onlyExistentGame(_gameId)\r\n    {\r\n\r\n        address topBettor = getTopBettor(_gameId, _supportedPlayer);\r\n        (uint256 bettorTotal,,,) = gmGetterDB.getSupporterInfo(_gameId, _account);\r\n        (uint256 topBettorEth,,,) = gmGetterDB.getSupporterInfo(_gameId, topBettor);\r\n        \r\n        if(topBettor != _account){\r\n            if (bettorTotal > topBettorEth){\r\n                //If topBettor is already the account, dont update\r\n                gameByPlayer[_gameId][_supportedPlayer].topBettor = _account;\r\n                gameByPlayer[_gameId][_supportedPlayer].secondTopBettor = topBettor;\r\n            }\r\n            else {\r\n                address secondTopBettor = getSecondTopBettor(_gameId, _supportedPlayer);\r\n                (uint256 secondTopBettorEth,,,) = gmGetterDB.getSupporterInfo(_gameId, secondTopBettor);\r\n                if (bettorTotal > secondTopBettorEth && secondTopBettor != _account){\r\n                    gameByPlayer[_gameId][_supportedPlayer].secondTopBettor = _account;\r\n                }\r\n            }\r\n        }\r\n    }\r\n\r\n    function getOpponent(uint gameId, address player) public view returns(address){\r\n        (address playerBlack, address playerRed,,) = gmGetterDB.getGamePlayers(gameId);\r\n        if(playerBlack == player) return playerRed;\r\n        return playerBlack;\r\n    }\r\n\r\n    function getCorner(uint gameId, address player) public view returns(uint){\r\n        (address playerBlack, address playerRed,,) = gmGetterDB.getGamePlayers(gameId);\r\n        if(playerBlack == player) return 0;\r\n        if(playerRed == player) return 1;\r\n        return 2;\r\n    }\r\n\r\n    function calculateWinner\r\n    (\r\n        uint gameId, address playerBlack, address playerRed, uint random\r\n    )\r\n        external view\r\n        onlyContract(CONTRACT_NAME_GAMEMANAGER)\r\n        returns(address winner, address loser, uint pointsBlack, uint pointsRed)\r\n    {\r\n        pointsBlack = hitsResolve.calculateFinalPoints(gameId, playerBlack, random);\r\n        pointsRed = hitsResolve.calculateFinalPoints(gameId, playerRed, random);\r\n\r\n        //Added to make game more balanced\r\n        pointsBlack = (gmGetterDB.getTotalBet(gameId, playerBlack)).mul(pointsBlack);\r\n        pointsRed = (gmGetterDB.getTotalBet(gameId, playerRed)).mul(pointsRed);\r\n\r\n        if (pointsBlack > pointsRed)\r\n        {\r\n            winner = playerBlack;\r\n            loser = playerRed;\r\n        }\r\n        else if(pointsRed > pointsBlack)\r\n        {\r\n            winner = playerRed;\r\n            loser = playerBlack;\r\n        }\r\n        //If there is a tie in point, define by total eth bet\r\n        else\r\n        {\r\n            (,,,,uint[2] memory ethByCorner,,) = gmGetterDB.getHoneypotInfo(gameId);\r\n            if(ethByCorner[0] > ethByCorner[1] ){\r\n               winner = playerBlack;\r\n                loser = playerRed;\r\n            }\r\n            else{\r\n                winner = playerRed;\r\n                loser = playerBlack;\r\n            }\r\n        }\r\n    }\r\n\r\n    function startAfterCancel()\r\n    external\r\n    onlyContract(CONTRACT_NAME_GAMEMANAGER)\r\n    {\r\n        startGameAndCalculateEpoch();\r\n    }\r\n\r\n    function startGameAndCalculateEpoch()\r\n    internal\r\n    {\r\n        uint256 activeEpochId = timeFrame.getActiveEpochID();\r\n        uint256 currentEpochEndTime = timeFrame._epochEndTime(activeEpochId);\r\n        if(currentEpochEndTime.sub(190/*60 * 60 * 30*/) <= gameVarAndFee.getGameTimes().add(now)) {\r\n            CronJob cron = CronJob(proxy.getContract(CONTRACT_NAME_CRONJOB));\r\n            cron.addCronJob(\r\n                CONTRACT_NAME_GAMESTORE,\r\n                currentEpochEndTime,\r\n                abi.encodeWithSignature(\"createGameAndEpoch()\")\r\n            );\r\n\r\n            WithdrawPool(proxy.getContract(CONTRACT_NAME_WITHDRAW_POOL)).setInterestToEarningsTracker(\r\n                activeEpochId,\r\n                EndowmentDB(proxy.getContract(CONTRACT_NAME_ENDOWMENT_DB)).checkTotalForEpoch(activeEpochId)\r\n            );\r\n        }\r\n        else\r\n            scheduler.startGame();\r\n    }\r\n\r\n    /**\r\n    * @dev added to cronjob : Creates new Game and New Epoch\r\n    */\r\n    function createGameAndEpoch()\r\n    external\r\n    onlyContract(CONTRACT_NAME_CRONJOB)\r\n    {\r\n        timeFrame.setNewEpoch();\r\n        scheduler.startGame();\r\n        WithdrawPool(proxy.getContract(CONTRACT_NAME_WITHDRAW_POOL)).dissolveOldCreateNew();\r\n    }\r\n\r\n    function checkPerformanceHelper(uint gameId, uint gameEndTime) external view returns(bool){\r\n        //each time 1 minute before game ends\r\n        // uint performanceTimeCheck = gameVarAndFee.getPerformanceTimeCheck();\r\n        \r\n        if(gameEndTime.sub(60) <= now) {\r\n            //get initial jackpot, need endowment to send this when creating honeypot\r\n            (,,uint initialEth, uint currentJackpotEth,,,) = gmGetterDB.getHoneypotInfo(gameId);\r\n\r\n            if(currentJackpotEth < initialEth.mul(10)) return true;\r\n            return false;\r\n        }\r\n    }\r\n}",
  "sourcePath": "C:\\Users\\Alex\\Desktop\\MyProjects\\alpha\\contracts\\modules\\gamemanager\\GameStore.sol",
  "compiler": {
    "name": "solc",
    "version": "0.5.17+commit.d19bba13.Emscripten.clang"
  },
  "schemaVersion": "3.0.11",
  "updatedAt": "2020-04-19T21:47:22.243Z",
  "devdoc": {
    "methods": {
      "createGameAndEpoch()": {
        "details": "added to cronjob : Creates new Game and New Epoch"
      }
    }
  },
  "userdoc": {
    "methods": {
      "setProxy(address)": {
        "notice": "Set/update address of Proxy contract"
      }
    }
  }
}