{
  "contractName": "GenericDB",
  "abi": [
    {
      "constant": true,
      "inputs": [],
      "name": "owner",
      "outputs": [
        {
          "internalType": "address payable",
          "name": "",
          "type": "address"
        }
      ],
      "payable": false,
      "stateMutability": "view",
      "type": "function"
    },
    {
      "constant": true,
      "inputs": [],
      "name": "proxy",
      "outputs": [
        {
          "internalType": "contract ProxyBase",
          "name": "",
          "type": "address"
        }
      ],
      "payable": false,
      "stateMutability": "view",
      "type": "function"
    },
    {
      "constant": false,
      "inputs": [
        {
          "internalType": "contract ProxyBase",
          "name": "_proxy",
          "type": "address"
        }
      ],
      "name": "setProxy",
      "outputs": [],
      "payable": false,
      "stateMutability": "nonpayable",
      "type": "function"
    },
    {
      "constant": false,
      "inputs": [
        {
          "internalType": "address payable",
          "name": "newOwner",
          "type": "address"
        }
      ],
      "name": "transferOwnership",
      "outputs": [],
      "payable": false,
      "stateMutability": "nonpayable",
      "type": "function"
    },
    {
      "constant": false,
      "inputs": [
        {
          "internalType": "string",
          "name": "contractName",
          "type": "string"
        },
        {
          "internalType": "bytes32",
          "name": "key",
          "type": "bytes32"
        },
        {
          "internalType": "int256",
          "name": "value",
          "type": "int256"
        }
      ],
      "name": "setIntStorage",
      "outputs": [],
      "payable": false,
      "stateMutability": "nonpayable",
      "type": "function"
    },
    {
      "constant": true,
      "inputs": [
        {
          "internalType": "string",
          "name": "contractName",
          "type": "string"
        },
        {
          "internalType": "bytes32",
          "name": "key",
          "type": "bytes32"
        }
      ],
      "name": "getIntStorage",
      "outputs": [
        {
          "internalType": "int256",
          "name": "",
          "type": "int256"
        }
      ],
      "payable": false,
      "stateMutability": "view",
      "type": "function"
    },
    {
      "constant": false,
      "inputs": [
        {
          "internalType": "string",
          "name": "contractName",
          "type": "string"
        },
        {
          "internalType": "bytes32",
          "name": "key",
          "type": "bytes32"
        },
        {
          "internalType": "uint256",
          "name": "value",
          "type": "uint256"
        }
      ],
      "name": "setUintStorage",
      "outputs": [],
      "payable": false,
      "stateMutability": "nonpayable",
      "type": "function"
    },
    {
      "constant": true,
      "inputs": [
        {
          "internalType": "string",
          "name": "contractName",
          "type": "string"
        },
        {
          "internalType": "bytes32",
          "name": "key",
          "type": "bytes32"
        }
      ],
      "name": "getUintStorage",
      "outputs": [
        {
          "internalType": "uint256",
          "name": "",
          "type": "uint256"
        }
      ],
      "payable": false,
      "stateMutability": "view",
      "type": "function"
    },
    {
      "constant": false,
      "inputs": [
        {
          "internalType": "string",
          "name": "contractName",
          "type": "string"
        },
        {
          "internalType": "bytes32",
          "name": "key",
          "type": "bytes32"
        },
        {
          "internalType": "string",
          "name": "value",
          "type": "string"
        }
      ],
      "name": "setStringStorage",
      "outputs": [],
      "payable": false,
      "stateMutability": "nonpayable",
      "type": "function"
    },
    {
      "constant": true,
      "inputs": [
        {
          "internalType": "string",
          "name": "contractName",
          "type": "string"
        },
        {
          "internalType": "bytes32",
          "name": "key",
          "type": "bytes32"
        }
      ],
      "name": "getStringStorage",
      "outputs": [
        {
          "internalType": "string",
          "name": "",
          "type": "string"
        }
      ],
      "payable": false,
      "stateMutability": "view",
      "type": "function"
    },
    {
      "constant": false,
      "inputs": [
        {
          "internalType": "string",
          "name": "contractName",
          "type": "string"
        },
        {
          "internalType": "bytes32",
          "name": "key",
          "type": "bytes32"
        },
        {
          "internalType": "address",
          "name": "value",
          "type": "address"
        }
      ],
      "name": "setAddressStorage",
      "outputs": [],
      "payable": false,
      "stateMutability": "nonpayable",
      "type": "function"
    },
    {
      "constant": true,
      "inputs": [
        {
          "internalType": "string",
          "name": "contractName",
          "type": "string"
        },
        {
          "internalType": "bytes32",
          "name": "key",
          "type": "bytes32"
        }
      ],
      "name": "getAddressStorage",
      "outputs": [
        {
          "internalType": "address",
          "name": "",
          "type": "address"
        }
      ],
      "payable": false,
      "stateMutability": "view",
      "type": "function"
    },
    {
      "constant": false,
      "inputs": [
        {
          "internalType": "string",
          "name": "contractName",
          "type": "string"
        },
        {
          "internalType": "bytes32",
          "name": "key",
          "type": "bytes32"
        },
        {
          "internalType": "bytes",
          "name": "value",
          "type": "bytes"
        }
      ],
      "name": "setBytesStorage",
      "outputs": [],
      "payable": false,
      "stateMutability": "nonpayable",
      "type": "function"
    },
    {
      "constant": true,
      "inputs": [
        {
          "internalType": "string",
          "name": "contractName",
          "type": "string"
        },
        {
          "internalType": "bytes32",
          "name": "key",
          "type": "bytes32"
        }
      ],
      "name": "getBytesStorage",
      "outputs": [
        {
          "internalType": "bytes",
          "name": "",
          "type": "bytes"
        }
      ],
      "payable": false,
      "stateMutability": "view",
      "type": "function"
    },
    {
      "constant": false,
      "inputs": [
        {
          "internalType": "string",
          "name": "contractName",
          "type": "string"
        },
        {
          "internalType": "bytes32",
          "name": "key",
          "type": "bytes32"
        },
        {
          "internalType": "bool",
          "name": "value",
          "type": "bool"
        }
      ],
      "name": "setBoolStorage",
      "outputs": [],
      "payable": false,
      "stateMutability": "nonpayable",
      "type": "function"
    },
    {
      "constant": true,
      "inputs": [
        {
          "internalType": "string",
          "name": "contractName",
          "type": "string"
        },
        {
          "internalType": "bytes32",
          "name": "key",
          "type": "bytes32"
        }
      ],
      "name": "getBoolStorage",
      "outputs": [
        {
          "internalType": "bool",
          "name": "",
          "type": "bool"
        }
      ],
      "payable": false,
      "stateMutability": "view",
      "type": "function"
    },
    {
      "constant": false,
      "inputs": [
        {
          "internalType": "string",
          "name": "contractName",
          "type": "string"
        },
        {
          "internalType": "bytes32",
          "name": "tableKey",
          "type": "bytes32"
        },
        {
          "internalType": "uint256",
          "name": "nodeId",
          "type": "uint256"
        }
      ],
      "name": "pushNodeToLinkedList",
      "outputs": [
        {
          "internalType": "bool",
          "name": "",
          "type": "bool"
        }
      ],
      "payable": false,
      "stateMutability": "nonpayable",
      "type": "function"
    },
    {
      "constant": false,
      "inputs": [
        {
          "internalType": "string",
          "name": "contractName",
          "type": "string"
        },
        {
          "internalType": "bytes32",
          "name": "tableKey",
          "type": "bytes32"
        },
        {
          "internalType": "uint256",
          "name": "nodeId",
          "type": "uint256"
        }
      ],
      "name": "removeNodeFromLinkedList",
      "outputs": [
        {
          "internalType": "bool",
          "name": "",
          "type": "bool"
        }
      ],
      "payable": false,
      "stateMutability": "nonpayable",
      "type": "function"
    },
    {
      "constant": false,
      "inputs": [
        {
          "internalType": "string",
          "name": "contractName",
          "type": "string"
        },
        {
          "internalType": "bytes32",
          "name": "tableKey",
          "type": "bytes32"
        },
        {
          "internalType": "uint256",
          "name": "nodeId",
          "type": "uint256"
        },
        {
          "internalType": "uint256",
          "name": "referenceNodeId",
          "type": "uint256"
        },
        {
          "internalType": "bool",
          "name": "direction",
          "type": "bool"
        }
      ],
      "name": "insertNodeToLinkedList",
      "outputs": [
        {
          "internalType": "bool",
          "name": "",
          "type": "bool"
        }
      ],
      "payable": false,
      "stateMutability": "nonpayable",
      "type": "function"
    },
    {
      "constant": true,
      "inputs": [
        {
          "internalType": "string",
          "name": "contractName",
          "type": "string"
        },
        {
          "internalType": "bytes32",
          "name": "tableKey",
          "type": "bytes32"
        },
        {
          "internalType": "uint256",
          "name": "value",
          "type": "uint256"
        }
      ],
      "name": "findNextNodeInSortedLinkedList",
      "outputs": [
        {
          "internalType": "uint256",
          "name": "",
          "type": "uint256"
        }
      ],
      "payable": false,
      "stateMutability": "view",
      "type": "function"
    },
    {
      "constant": true,
      "inputs": [
        {
          "internalType": "string",
          "name": "contractName",
          "type": "string"
        },
        {
          "internalType": "bytes32",
          "name": "tableKey",
          "type": "bytes32"
        },
        {
          "internalType": "uint256",
          "name": "nodeId",
          "type": "uint256"
        },
        {
          "internalType": "bool",
          "name": "dir",
          "type": "bool"
        }
      ],
      "name": "getAdjacent",
      "outputs": [
        {
          "internalType": "bool",
          "name": "",
          "type": "bool"
        },
        {
          "internalType": "uint256",
          "name": "",
          "type": "uint256"
        }
      ],
      "payable": false,
      "stateMutability": "view",
      "type": "function"
    },
    {
      "constant": true,
      "inputs": [
        {
          "internalType": "string",
          "name": "contractName",
          "type": "string"
        },
        {
          "internalType": "bytes32",
          "name": "key",
          "type": "bytes32"
        }
      ],
      "name": "getAll",
      "outputs": [
        {
          "internalType": "uint256[]",
          "name": "nodes",
          "type": "uint256[]"
        }
      ],
      "payable": false,
      "stateMutability": "view",
      "type": "function"
    },
    {
      "constant": true,
      "inputs": [
        {
          "internalType": "string",
          "name": "contractName",
          "type": "string"
        },
        {
          "internalType": "bytes32",
          "name": "tableKey",
          "type": "bytes32"
        }
      ],
      "name": "doesListExist",
      "outputs": [
        {
          "internalType": "bool",
          "name": "",
          "type": "bool"
        }
      ],
      "payable": false,
      "stateMutability": "view",
      "type": "function"
    },
    {
      "constant": true,
      "inputs": [
        {
          "internalType": "string",
          "name": "contractName",
          "type": "string"
        },
        {
          "internalType": "bytes32",
          "name": "tableKey",
          "type": "bytes32"
        },
        {
          "internalType": "uint256",
          "name": "nodeId",
          "type": "uint256"
        }
      ],
      "name": "doesNodeExist",
      "outputs": [
        {
          "internalType": "bool",
          "name": "",
          "type": "bool"
        }
      ],
      "payable": false,
      "stateMutability": "view",
      "type": "function"
    },
    {
      "constant": true,
      "inputs": [
        {
          "internalType": "string",
          "name": "contractName",
          "type": "string"
        },
        {
          "internalType": "bytes32",
          "name": "tableKey",
          "type": "bytes32"
        }
      ],
      "name": "getLinkedListSize",
      "outputs": [
        {
          "internalType": "uint256",
          "name": "",
          "type": "uint256"
        }
      ],
      "payable": false,
      "stateMutability": "view",
      "type": "function"
    },
    {
      "constant": false,
      "inputs": [
        {
          "internalType": "string",
          "name": "contractName",
          "type": "string"
        },
        {
          "internalType": "bytes32",
          "name": "tableKey",
          "type": "bytes32"
        },
        {
          "internalType": "address",
          "name": "nodeId",
          "type": "address"
        }
      ],
      "name": "pushNodeToLinkedListAddr",
      "outputs": [
        {
          "internalType": "bool",
          "name": "",
          "type": "bool"
        }
      ],
      "payable": false,
      "stateMutability": "nonpayable",
      "type": "function"
    },
    {
      "constant": false,
      "inputs": [
        {
          "internalType": "string",
          "name": "contractName",
          "type": "string"
        },
        {
          "internalType": "bytes32",
          "name": "tableKey",
          "type": "bytes32"
        },
        {
          "internalType": "address",
          "name": "nodeId",
          "type": "address"
        }
      ],
      "name": "removeNodeFromLinkedListAddr",
      "outputs": [
        {
          "internalType": "bool",
          "name": "",
          "type": "bool"
        }
      ],
      "payable": false,
      "stateMutability": "nonpayable",
      "type": "function"
    },
    {
      "constant": true,
      "inputs": [
        {
          "internalType": "string",
          "name": "contractName",
          "type": "string"
        },
        {
          "internalType": "bytes32",
          "name": "tableKey",
          "type": "bytes32"
        },
        {
          "internalType": "address",
          "name": "nodeId",
          "type": "address"
        },
        {
          "internalType": "bool",
          "name": "dir",
          "type": "bool"
        }
      ],
      "name": "getAdjacentAddr",
      "outputs": [
        {
          "internalType": "bool",
          "name": "",
          "type": "bool"
        },
        {
          "internalType": "address",
          "name": "",
          "type": "address"
        }
      ],
      "payable": false,
      "stateMutability": "view",
      "type": "function"
    },
    {
      "constant": true,
      "inputs": [
        {
          "internalType": "string",
          "name": "contractName",
          "type": "string"
        },
        {
          "internalType": "bytes32",
          "name": "tableKey",
          "type": "bytes32"
        }
      ],
      "name": "getAllAddr",
      "outputs": [
        {
          "internalType": "address[]",
          "name": "nodes",
          "type": "address[]"
        }
      ],
      "payable": false,
      "stateMutability": "view",
      "type": "function"
    },
    {
      "constant": true,
      "inputs": [
        {
          "internalType": "string",
          "name": "contractName",
          "type": "string"
        },
        {
          "internalType": "bytes32",
          "name": "tableKey",
          "type": "bytes32"
        }
      ],
      "name": "doesListAddrExist",
      "outputs": [
        {
          "internalType": "bool",
          "name": "",
          "type": "bool"
        }
      ],
      "payable": false,
      "stateMutability": "view",
      "type": "function"
    },
    {
      "constant": true,
      "inputs": [
        {
          "internalType": "string",
          "name": "contractName",
          "type": "string"
        },
        {
          "internalType": "bytes32",
          "name": "tableKey",
          "type": "bytes32"
        },
        {
          "internalType": "address",
          "name": "nodeId",
          "type": "address"
        }
      ],
      "name": "doesNodeAddrExist",
      "outputs": [
        {
          "internalType": "bool",
          "name": "",
          "type": "bool"
        }
      ],
      "payable": false,
      "stateMutability": "view",
      "type": "function"
    },
    {
      "constant": true,
      "inputs": [
        {
          "internalType": "string",
          "name": "contractName",
          "type": "string"
        },
        {
          "internalType": "bytes32",
          "name": "tableKey",
          "type": "bytes32"
        }
      ],
      "name": "getLinkedListAddrSize",
      "outputs": [
        {
          "internalType": "uint256",
          "name": "",
          "type": "uint256"
        }
      ],
      "payable": false,
      "stateMutability": "view",
      "type": "function"
    }
  ],
  "bytecode": "0x608060405233600860006101000a81548173ffffffffffffffffffffffffffffffffffffffff021916908373ffffffffffffffffffffffffffffffffffffffff16021790555061447b806100546000396000f3fe608060405234801561001057600080fd5b50600436106101ef5760003560e01c80639081fd011161010f578063b93a5b5e116100a2578063e8ad272c11610071578063e8ad272c146118b3578063ec4dc8221461198c578063ec55688914611aa6578063f2fde38b14611af0576101ef565b8063b93a5b5e1461156d578063c7db8da214611672578063cb30ffe71461174b578063d89bb409146117da576101ef565b80639a481f4e116100de5780639a481f4e1461121e578063a7ad3db514611318578063ad52192f146113f0578063ae26601014611495576101ef565b80639081fd0114610f5b57806396bf56801461103857806396edc009146110f357806397107d6d146111da576101ef565b806368923e16116101875780638445d70f116101565780638445d70f14610ccc578063866d59fe14610dc957806387d5336214610e6c5780638da5cb5b14610f11576101ef565b806368923e16146108b45780636c729378146109ce578063757ba9a214610aab578063773cdbd714610b8e576101ef565b80631a84fbb8116101c35780631a84fbb8146104a25780631c58c8bb146105e057806341733939146106bd57806366d4dc4a14610778576101ef565b806245584c146101f45780630214a37c146102af57806307b1d78e1461033c57806308acb556146103c9575b600080fd5b610295600480360360a081101561020a57600080fd5b810190808035906020019064010000000081111561022757600080fd5b82018360208201111561023957600080fd5b8035906020019184600183028401116401000000008311171561025b57600080fd5b9091929391929390803590602001909291908035906020019092919080359060200190929190803515159060200190929190505050611b34565b604051808215151515815260200191505060405180910390f35b61033a600480360360608110156102c557600080fd5b81019080803590602001906401000000008111156102e257600080fd5b8201836020820111156102f457600080fd5b8035906020019184600183028401116401000000008311171561031657600080fd5b90919293919293908035906020019092919080359060200190929190505050611bf1565b005b6103c76004803603606081101561035257600080fd5b810190808035906020019064010000000081111561036f57600080fd5b82018360208201111561038157600080fd5b803590602001918460018302840111640100000000831117156103a357600080fd5b90919293919293908035906020019092919080359060200190929190505050611c94565b005b61048c600480360360408110156103df57600080fd5b81019080803590602001906401000000008111156103fc57600080fd5b82018360208201111561040e57600080fd5b8035906020019184600183028401116401000000008311171561043057600080fd5b91908080601f016020809104026020016040519081016040528093929190818152602001838380828437600081840152601f19601f82011690508083019250505050505050919291929080359060200190929190505050611d38565b6040518082815260200191505060405180910390f35b610565600480360360408110156104b857600080fd5b81019080803590602001906401000000008111156104d557600080fd5b8201836020820111156104e757600080fd5b8035906020019184600183028401116401000000008311171561050957600080fd5b91908080601f016020809104026020016040519081016040528093929190818152602001838380828437600081840152601f19601f82011690508083019250505050505050919291929080359060200190929190505050611dce565b6040518080602001828103825283818151815260200191508051906020019080838360005b838110156105a557808201518184015260208101905061058a565b50505050905090810190601f1680156105d25780820380516001836020036101000a031916815260200191505b509250505060405180910390f35b6106a3600480360360408110156105f657600080fd5b810190808035906020019064010000000081111561061357600080fd5b82018360208201111561062557600080fd5b8035906020019184600183028401116401000000008311171561064757600080fd5b91908080601f016020809104026020016040519081016040528093929190818152602001838380828437600081840152601f19601f82011690508083019250505050505050919291929080359060200190929190505050611efd565b604051808215151515815260200191505060405180910390f35b61075e600480360360608110156106d357600080fd5b81019080803590602001906401000000008111156106f057600080fd5b82018360208201111561070257600080fd5b8035906020019184600183028401116401000000008311171561072457600080fd5b909192939192939080359060200190929190803573ffffffffffffffffffffffffffffffffffffffff169060200190929190505050611fa1565b604051808215151515815260200191505060405180910390f35b6108676004803603608081101561078e57600080fd5b81019080803590602001906401000000008111156107ab57600080fd5b8201836020820111156107bd57600080fd5b803590602001918460018302840111640100000000831117156107df57600080fd5b91908080601f016020809104026020016040519081016040528093929190818152602001838380828437600081840152601f19601f82011690508083019250505050505050919291929080359060200190929190803573ffffffffffffffffffffffffffffffffffffffff1690602001909291908035151590602001909291905050506120c5565b60405180831515151581526020018273ffffffffffffffffffffffffffffffffffffffff1673ffffffffffffffffffffffffffffffffffffffff1681526020019250505060405180910390f35b610977600480360360408110156108ca57600080fd5b81019080803590602001906401000000008111156108e757600080fd5b8201836020820111156108f957600080fd5b8035906020019184600183028401116401000000008311171561091b57600080fd5b91908080601f016020809104026020016040519081016040528093929190818152602001838380828437600081840152601f19601f82011690508083019250505050505050919291929080359060200190929190505050612175565b6040518080602001828103825283818151815260200191508051906020019060200280838360005b838110156109ba57808201518184015260208101905061099f565b505050509050019250505060405180910390f35b610a91600480360360408110156109e457600080fd5b8101908080359060200190640100000000811115610a0157600080fd5b820183602082011115610a1357600080fd5b80359060200191846001830284011164010000000083111715610a3557600080fd5b91908080601f016020809104026020016040519081016040528093929190818152602001838380828437600081840152601f19601f82011690508083019250505050505050919291929080359060200190929190505050612214565b604051808215151515815260200191505060405180910390f35b610b7860048036036060811015610ac157600080fd5b8101908080359060200190640100000000811115610ade57600080fd5b820183602082011115610af057600080fd5b80359060200191846001830284011164010000000083111715610b1257600080fd5b91908080601f016020809104026020016040519081016040528093929190818152602001838380828437600081840152601f19601f82011690508083019250505050505050919291929080359060200190929190803590602001909291905050506122b2565b6040518082815260200191505060405180910390f35b610c5160048036036040811015610ba457600080fd5b8101908080359060200190640100000000811115610bc157600080fd5b820183602082011115610bd357600080fd5b80359060200191846001830284011164010000000083111715610bf557600080fd5b91908080601f016020809104026020016040519081016040528093929190818152602001838380828437600081840152601f19601f8201169050808301925050505050505091929192908035906020019092919050505061236c565b6040518080602001828103825283818151815260200191508051906020019080838360005b83811015610c91578082015181840152602081019050610c76565b50505050905090810190601f168015610cbe5780820380516001836020036101000a031916815260200191505b509250505060405180910390f35b610daf60048036036060811015610ce257600080fd5b8101908080359060200190640100000000811115610cff57600080fd5b820183602082011115610d1157600080fd5b80359060200191846001830284011164010000000083111715610d3357600080fd5b91908080601f016020809104026020016040519081016040528093929190818152602001838380828437600081840152601f19601f82011690508083019250505050505050919291929080359060200190929190803573ffffffffffffffffffffffffffffffffffffffff16906020019092919050505061249b565b604051808215151515815260200191505060405180910390f35b610e6a60048036036060811015610ddf57600080fd5b8101908080359060200190640100000000811115610dfc57600080fd5b820183602082011115610e0e57600080fd5b80359060200191846001830284011164010000000083111715610e3057600080fd5b909192939192939080359060200190929190803573ffffffffffffffffffffffffffffffffffffffff169060200190929190505050612544565b005b610ef760048036036060811015610e8257600080fd5b8101908080359060200190640100000000811115610e9f57600080fd5b820183602082011115610eb157600080fd5b80359060200191846001830284011164010000000083111715610ed357600080fd5b90919293919293908035906020019092919080359060200190929190505050612622565b604051808215151515815260200191505060405180910390f35b610f1961274a565b604051808273ffffffffffffffffffffffffffffffffffffffff1673ffffffffffffffffffffffffffffffffffffffff16815260200191505060405180910390f35b61101e60048036036040811015610f7157600080fd5b8101908080359060200190640100000000811115610f8e57600080fd5b820183602082011115610fa057600080fd5b80359060200191846001830284011164010000000083111715610fc257600080fd5b91908080601f016020809104026020016040519081016040528093929190818152602001838380828437600081840152601f19601f82011690508083019250505050505050919291929080359060200190929190505050612770565b604051808215151515815260200191505060405180910390f35b6110d96004803603606081101561104e57600080fd5b810190808035906020019064010000000081111561106b57600080fd5b82018360208201111561107d57600080fd5b8035906020019184600183028401116401000000008311171561109f57600080fd5b909192939192939080359060200190929190803573ffffffffffffffffffffffffffffffffffffffff16906020019092919050505061280e565b604051808215151515815260200191505060405180910390f35b6111c06004803603606081101561110957600080fd5b810190808035906020019064010000000081111561112657600080fd5b82018360208201111561113857600080fd5b8035906020019184600183028401116401000000008311171561115a57600080fd5b91908080601f016020809104026020016040519081016040528093929190818152602001838380828437600081840152601f19601f8201169050808301925050505050505091929192908035906020019092919080359060200190929190505050612936565b604051808215151515815260200191505060405180910390f35b61121c600480360360208110156111f057600080fd5b81019080803573ffffffffffffffffffffffffffffffffffffffff1690602001909291905050506129df565b005b6112f76004803603608081101561123457600080fd5b810190808035906020019064010000000081111561125157600080fd5b82018360208201111561126357600080fd5b8035906020019184600183028401116401000000008311171561128557600080fd5b91908080601f016020809104026020016040519081016040528093929190818152602001838380828437600081840152601f19601f8201169050808301925050505050505091929192908035906020019092919080359060200190929190803515159060200190929190505050612a7a565b60405180831515151581526020018281526020019250505060405180910390f35b6113ee6004803603606081101561132e57600080fd5b810190808035906020019064010000000081111561134b57600080fd5b82018360208201111561135d57600080fd5b8035906020019184600183028401116401000000008311171561137f57600080fd5b909192939192939080359060200190929190803590602001906401000000008111156113aa57600080fd5b8201836020820111156113bc57600080fd5b803590602001918460018302840111640100000000831117156113de57600080fd5b9091929391929390505050612b2a565b005b61147b6004803603606081101561140657600080fd5b810190808035906020019064010000000081111561142357600080fd5b82018360208201111561143557600080fd5b8035906020019184600183028401116401000000008311171561145757600080fd5b90919293919293908035906020019092919080359060200190929190505050612bda565b604051808215151515815260200191505060405180910390f35b61156b600480360360608110156114ab57600080fd5b81019080803590602001906401000000008111156114c857600080fd5b8201836020820111156114da57600080fd5b803590602001918460018302840111640100000000831117156114fc57600080fd5b9091929391929390803590602001909291908035906020019064010000000081111561152757600080fd5b82018360208201111561153957600080fd5b8035906020019184600183028401116401000000008311171561155b57600080fd5b9091929391929390505050612cfe565b005b6116306004803603604081101561158357600080fd5b81019080803590602001906401000000008111156115a057600080fd5b8201836020820111156115b257600080fd5b803590602001918460018302840111640100000000831117156115d457600080fd5b91908080601f016020809104026020016040519081016040528093929190818152602001838380828437600081840152601f19601f82011690508083019250505050505050919291929080359060200190929190505050612dae565b604051808273ffffffffffffffffffffffffffffffffffffffff1673ffffffffffffffffffffffffffffffffffffffff16815260200191505060405180910390f35b6117356004803603604081101561168857600080fd5b81019080803590602001906401000000008111156116a557600080fd5b8201836020820111156116b757600080fd5b803590602001918460018302840111640100000000831117156116d957600080fd5b91908080601f016020809104026020016040519081016040528093929190818152602001838380828437600081840152601f19601f82011690508083019250505050505050919291929080359060200190929190505050612e65565b6040518082815260200191505060405180910390f35b6117d86004803603606081101561176157600080fd5b810190808035906020019064010000000081111561177e57600080fd5b82018360208201111561179057600080fd5b803590602001918460018302840111640100000000831117156117b257600080fd5b909192939192939080359060200190929190803515159060200190929190505050612f03565b005b61189d600480360360408110156117f057600080fd5b810190808035906020019064010000000081111561180d57600080fd5b82018360208201111561181f57600080fd5b8035906020019184600183028401116401000000008311171561184157600080fd5b91908080601f016020809104026020016040519081016040528093929190818152602001838380828437600081840152601f19601f82011690508083019250505050505050919291929080359060200190929190505050612fba565b6040518082815260200191505060405180910390f35b611976600480360360408110156118c957600080fd5b81019080803590602001906401000000008111156118e657600080fd5b8201836020820111156118f857600080fd5b8035906020019184600183028401116401000000008311171561191a57600080fd5b91908080601f016020809104026020016040519081016040528093929190818152602001838380828437600081840152601f19601f82011690508083019250505050505050919291929080359060200190929190505050613058565b6040518082815260200191505060405180910390f35b611a4f600480360360408110156119a257600080fd5b81019080803590602001906401000000008111156119bf57600080fd5b8201836020820111156119d157600080fd5b803590602001918460018302840111640100000000831117156119f357600080fd5b91908080601f016020809104026020016040519081016040528093929190818152602001838380828437600081840152601f19601f820116905080830192505050505050509192919290803590602001909291905050506130ef565b6040518080602001828103825283818151815260200191508051906020019060200280838360005b83811015611a92578082015181840152602081019050611a77565b505050509050019250505060405180910390f35b611aae613213565b604051808273ffffffffffffffffffffffffffffffffffffffff1673ffffffffffffffffffffffffffffffffffffffff16815260200191505060405180910390f35b611b3260048036036020811015611b0657600080fd5b81019080803573ffffffffffffffffffffffffffffffffffffffff169060200190929190505050613239565b005b600086868080601f016020809104026020016040519081016040528093929190818152602001838380828437600081840152601f19601f82011690508083019250505050505050611b8481613309565b611be4848685600660008d8d8d604051602001808484808284378083019250505082815260200193505050506040516020818303038152906040528051906020012081526020019081526020016000206135a4909392919063ffffffff16565b9150509695505050505050565b83838080601f016020809104026020016040519081016040528093929190818152602001838380828437600081840152601f19601f82011690508083019250505050505050611c3f81613309565b8160008087878760405160200180848480828437808301925050508281526020019350505050604051602081830303815290604052805190602001208152602001908152602001600020819055505050505050565b83838080601f016020809104026020016040519081016040528093929190818152602001838380828437600081840152601f19601f82011690508083019250505050505050611ce281613309565b816005600087878760405160200180848480828437808301925050508281526020019350505050604051602081830303815290604052805190602001208152602001908152602001600020819055505050505050565b600080600084846040516020018083805190602001908083835b60208310611d755780518252602082019150602081019050602083039250611d52565b6001836020036101000a0380198251168184511680821785525050505050509050018281526020019250505060405160208183030381529060405280519060200120815260200190815260200160002054905092915050565b60606001600084846040516020018083805190602001908083835b60208310611e0c5780518252602082019150602081019050602083039250611de9565b6001836020036101000a038019825116818451168082178552505050505050905001828152602001925050506040516020818303038152906040528051906020012081526020019081526020016000208054600181600116156101000203166002900480601f016020809104026020016040519081016040528092919081815260200182805460018160011615610100020316600290048015611ef05780601f10611ec557610100808354040283529160200191611ef0565b820191906000526020600020905b815481529060010190602001808311611ed357829003601f168201915b5050505050905092915050565b60006004600084846040516020018083805190602001908083835b60208310611f3b5780518252602082019150602081019050602083039250611f18565b6001836020036101000a0380198251168184511680821785525050505050509050018281526020019250505060405160208183030381529060405280519060200120815260200190815260200160002060009054906101000a900460ff16905092915050565b600084848080601f016020809104026020016040519081016040528093929190818152602001838380828437600081840152601f19601f82011690508083019250505050505050611ff181613309565b61204d83600760008989896040516020018084848082843780830192505050828152602001935050505060405160208183030381529060405280519060200120815260200190815260200160002061362690919063ffffffff16565b61205a57600091506120bc565b6120b683600760008989896040516020018084848082843780830192505050828152602001935050505060405160208183030381529060405280519060200120815260200190815260200160002061383990919063ffffffff16565b50600191505b50949350505050565b6000806121688484600760008a8a6040516020018083805190602001908083835b6020831061210957805182526020820191506020810190506020830392506120e6565b6001836020036101000a03801982511681845116808217855250505050505090500182815260200192505050604051602081830303815290604052805190602001208152602001908152602001600020613a819092919063ffffffff16565b9150915094509492505050565b606060008060006121868686612e65565b9050806040519080825280602002602001820160405280156121b75781602001602082028038833980820191505090505b5093505b6121c88686856001612a7a565b90508093505060008311156121f757828483806001019450815181106121ea57fe5b6020026020010181815250505b6000831415801561220757508082105b6121bb5750505092915050565b60006122aa6007600085856040516020018083805190602001908083835b602083106122555780518252602082019150602081019050602083039250612232565b6001836020036101000a03801982511681845116808217855250505050505090500182815260200192505050604051602081830303815290604052805190602001208152602001908152602001600020613b27565b905092915050565b6000836122be81613309565b6123626000846001600660008a8a6040516020018083805190602001908083835b6020831061230257805182526020820191506020810190506020830392506122df565b6001836020036101000a03801982511681845116808217855250505050505090500182815260200192505050604051602081830303815290604052805190602001208152602001908152602001600020613c85909392919063ffffffff16565b9150509392505050565b60606003600084846040516020018083805190602001908083835b602083106123aa5780518252602082019150602081019050602083039250612387565b6001836020036101000a038019825116818451168082178552505050505050905001828152602001925050506040516020818303038152906040528051906020012081526020019081526020016000208054600181600116156101000203166002900480601f01602080910402602001604051908101604052809291908181526020018280546001816001161561010002031660029004801561248e5780601f106124635761010080835404028352916020019161248e565b820191906000526020600020905b81548152906001019060200180831161247157829003601f168201915b5050505050905092915050565b600061253b826007600087876040516020018083805190602001908083835b602083106124dd57805182526020820191506020810190506020830392506124ba565b6001836020036101000a0380198251168184511680821785525050505050509050018281526020019250505060405160208183030381529060405280519060200120815260200190815260200160002061362690919063ffffffff16565b90509392505050565b83838080601f016020809104026020016040519081016040528093929190818152602001838380828437600081840152601f19601f8201169050808301925050505050505061259281613309565b81600260008787876040516020018084848082843780830192505050828152602001935050505060405160208183030381529060405280519060200120815260200190815260200160002060006101000a81548173ffffffffffffffffffffffffffffffffffffffff021916908373ffffffffffffffffffffffffffffffffffffffff1602179055505050505050565b600084848080601f016020809104026020016040519081016040528093929190818152602001838380828437600081840152601f19601f8201169050808301925050505050505061267281613309565b6126ce836006600089898960405160200180848480828437808301925050508281526020019350505050604051602081830303815290604052805190602001208152602001908152602001600020613d3d90919063ffffffff16565b156126dc5760009150612741565b61273b836001600660008a8a8a60405160200180848480828437808301925050508281526020019350505050604051602081830303815290604052805190602001208152602001908152602001600020613de89092919063ffffffff16565b50600191505b50949350505050565b600860009054906101000a900473ffffffffffffffffffffffffffffffffffffffff1681565b60006128066006600085856040516020018083805190602001908083835b602083106127b1578051825260208201915060208101905060208303925061278e565b6001836020036101000a03801982511681845116808217855250505050505090500182815260200192505050604051602081830303815290604052805190602001208152602001908152602001600020613e00565b905092915050565b600084848080601f016020809104026020016040519081016040528093929190818152602001838380828437600081840152601f19601f8201169050808301925050505050505061285e81613309565b6128ba83600760008989896040516020018084848082843780830192505050828152602001935050505060405160208183030381529060405280519060200120815260200190815260200160002061362690919063ffffffff16565b156128c8576000915061292d565b612927836001600760008a8a8a60405160200180848480828437808301925050508281526020019350505050604051602081830303815290604052805190602001208152602001908152602001600020613e6e9092919063ffffffff16565b50600191505b50949350505050565b60006129d6826006600087876040516020018083805190602001908083835b602083106129785780518252602082019150602081019050602083039250612955565b6001836020036101000a03801982511681845116808217855250505050505090500182815260200192505050604051602081830303815290604052805190602001208152602001908152602001600020613d3d90919063ffffffff16565b90509392505050565b600860009054906101000a900473ffffffffffffffffffffffffffffffffffffffff1673ffffffffffffffffffffffffffffffffffffffff163373ffffffffffffffffffffffffffffffffffffffff1614612a3657fe5b80600960006101000a81548173ffffffffffffffffffffffffffffffffffffffff021916908373ffffffffffffffffffffffffffffffffffffffff16021790555050565b600080612b1d8484600660008a8a6040516020018083805190602001908083835b60208310612abe5780518252602082019150602081019050602083039250612a9b565b6001836020036101000a03801982511681845116808217855250505050505090500182815260200192505050604051602081830303815290604052805190602001208152602001908152602001600020613e869092919063ffffffff16565b9150915094509492505050565b84848080601f016020809104026020016040519081016040528093929190818152602001838380828437600081840152601f19601f82011690508083019250505050505050612b7881613309565b828260036000898989604051602001808484808284378083019250505082815260200193505050506040516020818303038152906040528051906020012081526020019081526020016000209190612bd19291906142f4565b50505050505050565b600084848080601f016020809104026020016040519081016040528093929190818152602001838380828437600081840152601f19601f82011690508083019250505050505050612c2a81613309565b612c86836006600089898960405160200180848480828437808301925050508281526020019350505050604051602081830303815290604052805190602001208152602001908152602001600020613d3d90919063ffffffff16565b612c935760009150612cf5565b612cef836006600089898960405160200180848480828437808301925050508281526020019350505050604051602081830303815290604052805190602001208152602001908152602001600020613ee090919063ffffffff16565b50600191505b50949350505050565b84848080601f016020809104026020016040519081016040528093929190818152602001838380828437600081840152601f19601f82011690508083019250505050505050612d4c81613309565b828260016000898989604051602001808484808284378083019250505082815260200193505050506040516020818303038152906040528051906020012081526020019081526020016000209190612da5929190614374565b50505050505050565b60006002600084846040516020018083805190602001908083835b60208310612dec5780518252602082019150602081019050602083039250612dc9565b6001836020036101000a0380198251168184511680821785525050505050509050018281526020019250505060405160208183030381529060405280519060200120815260200190815260200160002060009054906101000a900473ffffffffffffffffffffffffffffffffffffffff16905092915050565b6000612efb6006600085856040516020018083805190602001908083835b60208310612ea65780518252602082019150602081019050602083039250612e83565b6001836020036101000a03801982511681845116808217855250505050505090500182815260200192505050604051602081830303815290604052805190602001208152602001908152602001600020613fce565b905092915050565b83838080601f016020809104026020016040519081016040528093929190818152602001838380828437600081840152601f19601f82011690508083019250505050505050612f5181613309565b81600460008787876040516020018084848082843780830192505050828152602001935050505060405160208183030381529060405280519060200120815260200190815260200160002060006101000a81548160ff0219169083151502179055505050505050565b60006130506007600085856040516020018083805190602001908083835b60208310612ffb5780518252602082019150602081019050602083039250612fd8565b6001836020036101000a03801982511681845116808217855250505050505090500182815260200192505050604051602081830303815290604052805190602001208152602001908152602001600020614019565b905092915050565b60006005600084846040516020018083805190602001908083835b602083106130965780518252602082019150602081019050602083039250613073565b6001836020036101000a0380198251168184511680821785525050505050509050018281526020019250505060405160208183030381529060405280519060200120815260200190815260200160002054905092915050565b606060008060006131008686612fba565b9050806040519080825280602002602001820160405280156131315781602001602082028038833980820191505090505b5093505b61314286868560016120c5565b905080935050600073ffffffffffffffffffffffffffffffffffffffff168373ffffffffffffffffffffffffffffffffffffffff16146131ca578284838060010194508151811061318f57fe5b602002602001019073ffffffffffffffffffffffffffffffffffffffff16908173ffffffffffffffffffffffffffffffffffffffff16815250505b600073ffffffffffffffffffffffffffffffffffffffff168373ffffffffffffffffffffffffffffffffffffffff161415801561320657508082105b6131355750505092915050565b600960009054906101000a900473ffffffffffffffffffffffffffffffffffffffff1681565b600860009054906101000a900473ffffffffffffffffffffffffffffffffffffffff1673ffffffffffffffffffffffffffffffffffffffff163373ffffffffffffffffffffffffffffffffffffffff161461329057fe5b600073ffffffffffffffffffffffffffffffffffffffff168173ffffffffffffffffffffffffffffffffffffffff16146133065780600860006101000a81548173ffffffffffffffffffffffffffffffffffffffff021916908373ffffffffffffffffffffffffffffffffffffffff1602179055505b50565b600073ffffffffffffffffffffffffffffffffffffffff16600960009054906101000a900473ffffffffffffffffffffffffffffffffffffffff1673ffffffffffffffffffffffffffffffffffffffff1614156133ce576040517f08c379a00000000000000000000000000000000000000000000000000000000081526004018080602001828103825260088152602001807f4e6f2050726f787900000000000000000000000000000000000000000000000081525060200191505060405180910390fd5b6000600960009054906101000a900473ffffffffffffffffffffffffffffffffffffffff1673ffffffffffffffffffffffffffffffffffffffff166335817773836040518263ffffffff1660e01b81526004018080602001828103825283818151815260200191508051906020019080838360005b8381101561345e578082015181840152602081019050613443565b50505050905090810190601f16801561348b5780820380516001836020036101000a031916815260200191505b509250505060206040518083038186803b1580156134a857600080fd5b505afa1580156134bc573d6000803e3d6000fd5b505050506040513d60208110156134d257600080fd5b81019080805190602001909291905050509050600073ffffffffffffffffffffffffffffffffffffffff168173ffffffffffffffffffffffffffffffffffffffff16141561351c57fe5b8073ffffffffffffffffffffffffffffffffffffffff163373ffffffffffffffffffffffffffffffffffffffff16146135a0576040517f08c379a000000000000000000000000000000000000000000000000000000000815260040180806020018281038252602d81526020018061441a602d913960400191505060405180910390fd5b5050565b60006135b08584613d3d565b1580156135c357506135c28585613d3d565b5b1561361957600085600001600086815260200190815260200160002060008415151515815260200190815260200160002054905061360386868686614090565b61360f86858386614090565b600191505061361e565b600090505b949350505050565b60008073ffffffffffffffffffffffffffffffffffffffff168360000160008473ffffffffffffffffffffffffffffffffffffffff1673ffffffffffffffffffffffffffffffffffffffff16815260200190815260200160002060008015151515815260200190815260200160002060009054906101000a900473ffffffffffffffffffffffffffffffffffffffff1673ffffffffffffffffffffffffffffffffffffffff1614801561377c5750600073ffffffffffffffffffffffffffffffffffffffff168360000160008473ffffffffffffffffffffffffffffffffffffffff1673ffffffffffffffffffffffffffffffffffffffff1681526020019081526020016000206000600115151515815260200190815260200160002060009054906101000a900473ffffffffffffffffffffffffffffffffffffffff1673ffffffffffffffffffffffffffffffffffffffff16145b1561382e578173ffffffffffffffffffffffffffffffffffffffff168360000160008073ffffffffffffffffffffffffffffffffffffffff1673ffffffffffffffffffffffffffffffffffffffff1681526020019081526020016000206000600115151515815260200190815260200160002060009054906101000a900473ffffffffffffffffffffffffffffffffffffffff1673ffffffffffffffffffffffffffffffffffffffff16149050613833565b600190505b92915050565b60008073ffffffffffffffffffffffffffffffffffffffff168273ffffffffffffffffffffffffffffffffffffffff16148061387c575061387a8383613626565b155b1561388a5760009050613a7b565b613984838460000160008573ffffffffffffffffffffffffffffffffffffffff1673ffffffffffffffffffffffffffffffffffffffff16815260200190815260200160002060008015151515815260200190815260200160002060009054906101000a900473ffffffffffffffffffffffffffffffffffffffff168560000160008673ffffffffffffffffffffffffffffffffffffffff1673ffffffffffffffffffffffffffffffffffffffff1681526020019081526020016000206000600115151515815260200190815260200160002060009054906101000a900473ffffffffffffffffffffffffffffffffffffffff1660016140f5565b8260000160008373ffffffffffffffffffffffffffffffffffffffff1673ffffffffffffffffffffffffffffffffffffffff16815260200190815260200160002060008015151515815260200190815260200160002060006101000a81549073ffffffffffffffffffffffffffffffffffffffff02191690558260000160008373ffffffffffffffffffffffffffffffffffffffff1673ffffffffffffffffffffffffffffffffffffffff1681526020019081526020016000206000600115151515815260200190815260200160002060006101000a81549073ffffffffffffffffffffffffffffffffffffffff02191690558190505b92915050565b600080613a8e8585613626565b613aa15760008080905091509150613b1f565b60018560000160008673ffffffffffffffffffffffffffffffffffffffff1673ffffffffffffffffffffffffffffffffffffffff16815260200190815260200160002060008515151515815260200190815260200160002060009054906101000a900473ffffffffffffffffffffffffffffffffffffffff16915091505b935093915050565b60008073ffffffffffffffffffffffffffffffffffffffff168260000160008073ffffffffffffffffffffffffffffffffffffffff1673ffffffffffffffffffffffffffffffffffffffff16815260200190815260200160002060008015151515815260200190815260200160002060009054906101000a900473ffffffffffffffffffffffffffffffffffffffff1673ffffffffffffffffffffffffffffffffffffffff16141580613c7e5750600073ffffffffffffffffffffffffffffffffffffffff168260000160008073ffffffffffffffffffffffffffffffffffffffff1673ffffffffffffffffffffffffffffffffffffffff1681526020019081526020016000206000600115151515815260200190815260200160002060009054906101000a900473ffffffffffffffffffffffffffffffffffffffff1673ffffffffffffffffffffffffffffffffffffffff1614155b9050919050565b600080613c9186613fce565b1415613ca05760009050613d35565b6000841480613cb55750613cb48585613d3d565b5b613cbe57600080fd5b600080613ccc878786613e86565b80925081935050505b60008114158015613ce65750808514155b8015613cf85750831515818610151514155b15613d2f57866000016000828152602001908152602001600020600085151515158152602001908152602001600020549050613cd5565b80925050505b949350505050565b60008083600001600084815260200190815260200160002060008015151515815260200190815260200160002054148015613da3575060008360000160008481526020019081526020016000206000600115151515815260200190815260200160002054145b15613ddd57818360000160008081526020019081526020016000206000600115151515815260200190815260200160002054149050613de2565b600190505b92915050565b6000613df784600085856135a4565b90509392505050565b60008082600001600080815260200190815260200160002060008015151515815260200190815260200160002054141580613e6757506000826000016000808152602001908152602001600020600060011515151581526020019081526020016000205414155b9050919050565b6000613e7d8460008585614226565b90509392505050565b600080613e938585613d3d565b613ea65760008080905091509150613ed8565b600185600001600086815260200190815260200160002060008515151515815260200190815260200160002054915091505b935093915050565b600080821480613ef75750613ef58383613d3d565b155b15613f055760009050613fc8565b613f67838460000160008581526020019081526020016000206000801515151581526020019081526020016000205485600001600086815260200190815260200160002060006001151515158152602001908152602001600020546001614090565b8260000160008381526020019081526020016000206000801515151581526020019081526020016000206000905582600001600083815260200190815260200160002060006001151515158152602001908152602001600020600090558190505b92915050565b6000806000613fe08460006001613e86565b80925081935050505b6000811461401257613ffd84826001613e86565b80925081935050508280600101935050613fe9565b5050919050565b600080600061402b8460006001613a81565b80925081935050505b600073ffffffffffffffffffffffffffffffffffffffff168173ffffffffffffffffffffffffffffffffffffffff16146140895761407484826001613a81565b80925081935050508280600101935050614034565b5050919050565b828460000160008481526020019081526020016000206000831515151515815260200190815260200160002081905550818460000160008581526020019081526020016000206000831515151581526020019081526020016000208190555050505050565b828460000160008473ffffffffffffffffffffffffffffffffffffffff1673ffffffffffffffffffffffffffffffffffffffff1681526020019081526020016000206000831515151515815260200190815260200160002060006101000a81548173ffffffffffffffffffffffffffffffffffffffff021916908373ffffffffffffffffffffffffffffffffffffffff160217905550818460000160008573ffffffffffffffffffffffffffffffffffffffff1673ffffffffffffffffffffffffffffffffffffffff16815260200190815260200160002060008315151515815260200190815260200160002060006101000a81548173ffffffffffffffffffffffffffffffffffffffff021916908373ffffffffffffffffffffffffffffffffffffffff16021790555050505050565b60006142328584613626565b15801561424557506142448585613626565b5b156142e75760008560000160008673ffffffffffffffffffffffffffffffffffffffff1673ffffffffffffffffffffffffffffffffffffffff16815260200190815260200160002060008415151515815260200190815260200160002060009054906101000a900473ffffffffffffffffffffffffffffffffffffffff1690506142d1868686866140f5565b6142dd868583866140f5565b60019150506142ec565b600090505b949350505050565b828054600181600116156101000203166002900490600052602060002090601f016020900481019282601f1061433557803560ff1916838001178555614363565b82800160010185558215614363579182015b82811115614362578235825591602001919060010190614347565b5b50905061437091906143f4565b5090565b828054600181600116156101000203166002900490600052602060002090601f016020900481019282601f106143b557803560ff19168380011785556143e3565b828001600101855582156143e3579182015b828111156143e25782358255916020019190600101906143c7565b5b5090506143f091906143f4565b5090565b61441691905b808211156144125760008160009055506001016143fa565b5090565b9056fe416363657373206973206f6e6c7920616c6c6f7765642066726f6d20737065636966696320636f6e7472616374a265627a7a7231582008ff6beaea346fb41d7b0349945cc9f535bc619d101dfd5a4eb23395c1e0212e64736f6c63430005110032",
  "source": "// This program is free software: you can redistribute it and/or modify\n// it under the terms of the GNU General Public License as published by\n// the Free Software Foundation, either version 3 of the License, or\n// (at your option) any later version.\n\n// This program is distributed in the hope that it will be useful,\n// but WITHOUT ANY WARRANTY; without even the implied warranty of\n// MERCHANTABILITY or FITNESS FOR A PARTICULAR PURPOSE.  See the\n// GNU General Public License for more details.\n\n// You should have received a copy of the GNU General Public License\n// along with this program.  If not, see <http://www.gnu.org/licenses/>.\npragma solidity ^0.5.5;\n\nimport \"./EternalStorage.sol\";\nimport \"../proxy/Proxied.sol\";\nimport \"../../libs/LinkedListLib.sol\";\nimport \"../../libs/LinkedListAddrLib.sol\";\n\n\n\n/**\n * @title Generic Eternal Storage Unit which can only be accessed through the proxied contracts\n * @dev This contract holds all the necessary state variables to carry out the storage of any contract.\n * @author @psychoplasma\n */\ncontract GenericDB is EternalStorage, Proxied {\n  using LinkedListLib for LinkedListLib.LinkedList;\n  using LinkedListAddrLib for LinkedListAddrLib.LinkedList;\n\n  function setIntStorage(\n    string calldata contractName,\n    bytes32 key,\n    int256 value\n  )\n    external onlyContract(contractName)\n  {\n    intStorage[keccak256(abi.encodePacked(contractName, key))] = value;\n  }\n\n  function getIntStorage(\n    string memory contractName,\n    bytes32 key\n  )\n    public view returns (int256)\n  {\n    return intStorage[keccak256(abi.encodePacked(contractName, key))];\n  }\n\n  function setUintStorage(\n    string calldata contractName,\n    bytes32 key,\n    uint256 value\n  )\n    external onlyContract(contractName)\n  {\n    uintStorage[keccak256(abi.encodePacked(contractName, key))] = value;\n  }\n\n  function getUintStorage(\n    string memory contractName,\n    bytes32 key\n  )\n    public view returns (uint256)\n  {\n    return uintStorage[keccak256(abi.encodePacked(contractName, key))];\n  }\n\n  function setStringStorage(\n    string calldata contractName,\n    bytes32 key,\n    string calldata value\n  )\n    external onlyContract(contractName)\n  {\n    stringStorage[keccak256(abi.encodePacked(contractName, key))] = value;\n  }\n\n  function getStringStorage(\n    string memory contractName,\n    bytes32 key\n  )\n    public view returns (string memory)\n  {\n    return stringStorage[keccak256(abi.encodePacked(contractName, key))];\n  }\n\n  function setAddressStorage(\n    string calldata contractName,\n    bytes32 key,\n    address value\n  )\n    external onlyContract(contractName)\n  {\n    addressStorage[keccak256(abi.encodePacked(contractName, key))] = value;\n  }\n\n  function getAddressStorage(\n    string memory contractName,\n    bytes32 key\n  )\n    public view returns (address)\n  {\n    return addressStorage[keccak256(abi.encodePacked(contractName, key))];\n  }\n\n  function setBytesStorage(\n    string calldata contractName,\n    bytes32 key,\n    bytes calldata value\n  )\n    external onlyContract(contractName)\n  {\n    bytesStorage[keccak256(abi.encodePacked(contractName, key))] = value;\n  }\n\n  function getBytesStorage(\n    string memory contractName,\n    bytes32 key\n  )\n    public view returns (bytes memory)\n  {\n    return bytesStorage[keccak256(abi.encodePacked(contractName, key))];\n  }\n\n  function setBoolStorage(\n    string calldata contractName,\n    bytes32 key,\n    bool value\n  )\n    external onlyContract(contractName)\n  {\n    boolStorage[keccak256(abi.encodePacked(contractName, key))] = value;\n  }\n\n  function getBoolStorage(\n    string memory contractName,\n    bytes32 key\n  )\n    public view returns (bool)\n  {\n    return boolStorage[keccak256(abi.encodePacked(contractName, key))];\n  }\n\n  function pushNodeToLinkedList(\n    string calldata contractName,\n    bytes32 tableKey,\n    uint256 nodeId\n  )\n    external onlyContract(contractName) returns (bool)\n  {\n    if (linkedListStorage[keccak256(abi.encodePacked(contractName, tableKey))].nodeExists(nodeId)) {\n      return false;\n    }\n\n    linkedListStorage[keccak256(abi.encodePacked(contractName, tableKey))].push(nodeId, true);\n    return true;\n  }\n\n  function removeNodeFromLinkedList(\n    string calldata contractName,\n    bytes32 tableKey,\n    uint256 nodeId\n  )\n    external onlyContract(contractName) returns (bool)\n  {\n    if (!linkedListStorage[keccak256(abi.encodePacked(contractName, tableKey))].nodeExists(nodeId)) {\n      return false;\n    }\n    \n    linkedListStorage[keccak256(abi.encodePacked(contractName, tableKey))].remove(nodeId);\n    return true;\n  }\n\n  function insertNodeToLinkedList(\n    string calldata contractName,\n    bytes32 tableKey,\n    uint256 nodeId,\n    uint256 referenceNodeId,\n    bool direction\n  )\n    external onlyContract(contractName) returns (bool)\n  {\n    return linkedListStorage[keccak256(abi.encodePacked(contractName, tableKey))].insert(referenceNodeId, nodeId, direction);\n  }\n\n  function findNextNodeInSortedLinkedList(\n    string memory contractName,\n    bytes32 tableKey,\n    uint256 value\n  )\n    public view onlyContract(contractName) returns (uint256)\n  {\n    return linkedListStorage[keccak256(abi.encodePacked(contractName, tableKey))].getSortedSpot(0, value, true); //0 - search from HEAD, true - NEXT direction\n  }\n\n  function getAdjacent(\n    string memory contractName,\n    bytes32 tableKey,\n    uint256 nodeId,\n    bool dir\n  )\n    public view returns (bool, uint256)\n  {\n    return linkedListStorage[keccak256(abi.encodePacked(contractName, tableKey))].getAdjacent(nodeId, dir);\n  }\n\n  function getAll(\n    string memory contractName,\n    bytes32 key\n  )\n    public\n    view returns (uint256[] memory nodes)\n  {\n    uint256 nextNode;\n    uint256 i;\n    uint256 len = getLinkedListSize(contractName, key);\n    nodes = new uint256[](len);\n\n    do {\n      (,nextNode) = getAdjacent(contractName, key, nextNode, true);\n      if (nextNode > 0) {nodes[i++] = nextNode;}\n    } while (nextNode != 0 && i < len);\n  }\n\n  function doesListExist(\n    string memory contractName,\n    bytes32 tableKey\n  )\n    public view returns (bool)\n  {\n    return linkedListStorage[keccak256(abi.encodePacked(contractName, tableKey))].listExists();\n  }\n\n  function doesNodeExist(\n    string memory contractName,\n    bytes32 tableKey,\n    uint256 nodeId\n  )\n    public view returns (bool)\n  {\n    return linkedListStorage[keccak256(abi.encodePacked(contractName, tableKey))].nodeExists(nodeId);\n  }\n\n  function getLinkedListSize(\n    string memory contractName,\n    bytes32 tableKey\n  )\n    public view returns (uint256)\n  {\n    return linkedListStorage[keccak256(abi.encodePacked(contractName, tableKey))].sizeOf();\n  }\n\n  function pushNodeToLinkedListAddr(\n    string calldata contractName,\n    bytes32 tableKey,\n    address nodeId\n  )\n    external onlyContract(contractName) returns (bool)\n  {\n    if (linkedListAddrStorage[keccak256(abi.encodePacked(contractName, tableKey))].nodeExists(nodeId)) {\n      return false;\n    }\n\n    linkedListAddrStorage[keccak256(abi.encodePacked(contractName, tableKey))].push(nodeId, true);\n    return true;\n  }\n\n  function removeNodeFromLinkedListAddr(\n    string calldata contractName,\n    bytes32 tableKey,\n    address nodeId\n  )\n    external onlyContract(contractName) returns (bool)\n  {\n    if (!linkedListAddrStorage[keccak256(abi.encodePacked(contractName, tableKey))].nodeExists(nodeId)) {\n      return false;\n    }\n  \n    linkedListAddrStorage[keccak256(abi.encodePacked(contractName, tableKey))].remove(nodeId);\n    return true;\n  }\n\n  function getAdjacentAddr(\n    string memory contractName,\n    bytes32 tableKey,\n    address nodeId,\n    bool dir\n  )\n    public view returns (bool, address)\n  {\n    return linkedListAddrStorage[keccak256(abi.encodePacked(contractName, tableKey))].getAdjacent(nodeId, dir);\n  }\n\n  function getAllAddr(\n    string memory contractName,\n    bytes32 tableKey\n  )\n    public\n    view returns (address[] memory nodes)\n  {\n    address nextNode;\n    uint256 i;\n    uint256 len = getLinkedListAddrSize(contractName, tableKey);\n    nodes = new address[](len);\n\n    do {\n      (,nextNode) = getAdjacentAddr(contractName, tableKey, nextNode, true);\n      if (nextNode != address(0)) {nodes[i++] = nextNode;}\n    } while (nextNode != address(0) && i < len);\n  }\n\n  function doesListAddrExist(\n    string memory contractName,\n    bytes32 tableKey\n  )\n    public view returns (bool)\n  {\n    return linkedListAddrStorage[keccak256(abi.encodePacked(contractName, tableKey))].listExists();\n  }\n\n  function doesNodeAddrExist(\n    string memory contractName,\n    bytes32 tableKey,\n    address nodeId\n  )\n    public view returns (bool)\n  {\n    return linkedListAddrStorage[keccak256(abi.encodePacked(contractName, tableKey))].nodeExists(nodeId);\n  }\n\n  function getLinkedListAddrSize(\n    string memory contractName,\n    bytes32 tableKey\n  )\n    public view returns (uint256)\n  {\n    return linkedListAddrStorage[keccak256(abi.encodePacked(contractName, tableKey))].sizeOf();\n  }\n}\n",
  "sourcePath": "/Users/ziweizhang/Desktop/staking/alpha/contracts/modules/databases/GenericDB.sol",
  "compiler": {
    "name": "solc",
    "version": "0.5.17+commit.d19bba13.Emscripten.clang"
  },
  "schemaVersion": "3.0.23",
  "updatedAt": "2020-03-28T15:19:01.362Z",
  "networkType": "ethereum",
  "devdoc": {
    "author": "@psychoplasma",
    "details": "This contract holds all the necessary state variables to carry out the storage of any contract.",
    "methods": {},
    "title": "Generic Eternal Storage Unit which can only be accessed through the proxied contracts"
  },
  "userdoc": {
    "methods": {
      "setProxy(address)": {
        "notice": "Set/update address of Proxy contract"
      }
    }
  }
}