{
  "contractName": "GenericDB",
  "abi": [
    {
      "constant": true,
      "inputs": [],
      "name": "owner",
      "outputs": [
        {
          "internalType": "address payable",
          "name": "",
          "type": "address"
        }
      ],
      "payable": false,
      "stateMutability": "view",
      "type": "function"
    },
    {
      "constant": true,
      "inputs": [],
      "name": "proxy",
      "outputs": [
        {
          "internalType": "contract ProxyBase",
          "name": "",
          "type": "address"
        }
      ],
      "payable": false,
      "stateMutability": "view",
      "type": "function"
    },
    {
      "constant": false,
      "inputs": [
        {
          "internalType": "contract ProxyBase",
          "name": "_proxy",
          "type": "address"
        }
      ],
      "name": "setProxy",
      "outputs": [],
      "payable": false,
      "stateMutability": "nonpayable",
      "type": "function"
    },
    {
      "constant": false,
      "inputs": [
        {
          "internalType": "address payable",
          "name": "newOwner",
          "type": "address"
        }
      ],
      "name": "transferOwnership",
      "outputs": [],
      "payable": false,
      "stateMutability": "nonpayable",
      "type": "function"
    },
    {
      "constant": false,
      "inputs": [
        {
          "internalType": "string",
          "name": "contractName",
          "type": "string"
        },
        {
          "internalType": "bytes32",
          "name": "key",
          "type": "bytes32"
        },
        {
          "internalType": "int256",
          "name": "value",
          "type": "int256"
        }
      ],
      "name": "setIntStorage",
      "outputs": [],
      "payable": false,
      "stateMutability": "nonpayable",
      "type": "function"
    },
    {
      "constant": true,
      "inputs": [
        {
          "internalType": "string",
          "name": "contractName",
          "type": "string"
        },
        {
          "internalType": "bytes32",
          "name": "key",
          "type": "bytes32"
        }
      ],
      "name": "getIntStorage",
      "outputs": [
        {
          "internalType": "int256",
          "name": "",
          "type": "int256"
        }
      ],
      "payable": false,
      "stateMutability": "view",
      "type": "function"
    },
    {
      "constant": false,
      "inputs": [
        {
          "internalType": "string",
          "name": "contractName",
          "type": "string"
        },
        {
          "internalType": "bytes32",
          "name": "key",
          "type": "bytes32"
        },
        {
          "internalType": "uint256",
          "name": "value",
          "type": "uint256"
        }
      ],
      "name": "setUintStorage",
      "outputs": [],
      "payable": false,
      "stateMutability": "nonpayable",
      "type": "function"
    },
    {
      "constant": true,
      "inputs": [
        {
          "internalType": "string",
          "name": "contractName",
          "type": "string"
        },
        {
          "internalType": "bytes32",
          "name": "key",
          "type": "bytes32"
        }
      ],
      "name": "getUintStorage",
      "outputs": [
        {
          "internalType": "uint256",
          "name": "",
          "type": "uint256"
        }
      ],
      "payable": false,
      "stateMutability": "view",
      "type": "function"
    },
    {
      "constant": false,
      "inputs": [
        {
          "internalType": "string",
          "name": "contractName",
          "type": "string"
        },
        {
          "internalType": "bytes32",
          "name": "key",
          "type": "bytes32"
        },
        {
          "internalType": "string",
          "name": "value",
          "type": "string"
        }
      ],
      "name": "setStringStorage",
      "outputs": [],
      "payable": false,
      "stateMutability": "nonpayable",
      "type": "function"
    },
    {
      "constant": true,
      "inputs": [
        {
          "internalType": "string",
          "name": "contractName",
          "type": "string"
        },
        {
          "internalType": "bytes32",
          "name": "key",
          "type": "bytes32"
        }
      ],
      "name": "getStringStorage",
      "outputs": [
        {
          "internalType": "string",
          "name": "",
          "type": "string"
        }
      ],
      "payable": false,
      "stateMutability": "view",
      "type": "function"
    },
    {
      "constant": false,
      "inputs": [
        {
          "internalType": "string",
          "name": "contractName",
          "type": "string"
        },
        {
          "internalType": "bytes32",
          "name": "key",
          "type": "bytes32"
        },
        {
          "internalType": "address",
          "name": "value",
          "type": "address"
        }
      ],
      "name": "setAddressStorage",
      "outputs": [],
      "payable": false,
      "stateMutability": "nonpayable",
      "type": "function"
    },
    {
      "constant": true,
      "inputs": [
        {
          "internalType": "string",
          "name": "contractName",
          "type": "string"
        },
        {
          "internalType": "bytes32",
          "name": "key",
          "type": "bytes32"
        }
      ],
      "name": "getAddressStorage",
      "outputs": [
        {
          "internalType": "address",
          "name": "",
          "type": "address"
        }
      ],
      "payable": false,
      "stateMutability": "view",
      "type": "function"
    },
    {
      "constant": false,
      "inputs": [
        {
          "internalType": "string",
          "name": "contractName",
          "type": "string"
        },
        {
          "internalType": "bytes32",
          "name": "key",
          "type": "bytes32"
        },
        {
          "internalType": "bytes",
          "name": "value",
          "type": "bytes"
        }
      ],
      "name": "setBytesStorage",
      "outputs": [],
      "payable": false,
      "stateMutability": "nonpayable",
      "type": "function"
    },
    {
      "constant": true,
      "inputs": [
        {
          "internalType": "string",
          "name": "contractName",
          "type": "string"
        },
        {
          "internalType": "bytes32",
          "name": "key",
          "type": "bytes32"
        }
      ],
      "name": "getBytesStorage",
      "outputs": [
        {
          "internalType": "bytes",
          "name": "",
          "type": "bytes"
        }
      ],
      "payable": false,
      "stateMutability": "view",
      "type": "function"
    },
    {
      "constant": false,
      "inputs": [
        {
          "internalType": "string",
          "name": "contractName",
          "type": "string"
        },
        {
          "internalType": "bytes32",
          "name": "key",
          "type": "bytes32"
        },
        {
          "internalType": "bool",
          "name": "value",
          "type": "bool"
        }
      ],
      "name": "setBoolStorage",
      "outputs": [],
      "payable": false,
      "stateMutability": "nonpayable",
      "type": "function"
    },
    {
      "constant": true,
      "inputs": [
        {
          "internalType": "string",
          "name": "contractName",
          "type": "string"
        },
        {
          "internalType": "bytes32",
          "name": "key",
          "type": "bytes32"
        }
      ],
      "name": "getBoolStorage",
      "outputs": [
        {
          "internalType": "bool",
          "name": "",
          "type": "bool"
        }
      ],
      "payable": false,
      "stateMutability": "view",
      "type": "function"
    },
    {
      "constant": false,
      "inputs": [
        {
          "internalType": "string",
          "name": "contractName",
          "type": "string"
        },
        {
          "internalType": "bytes32",
          "name": "tableKey",
          "type": "bytes32"
        },
        {
          "internalType": "uint256",
          "name": "nodeId",
          "type": "uint256"
        }
      ],
      "name": "pushNodeToLinkedList",
      "outputs": [
        {
          "internalType": "bool",
          "name": "",
          "type": "bool"
        }
      ],
      "payable": false,
      "stateMutability": "nonpayable",
      "type": "function"
    },
    {
      "constant": false,
      "inputs": [
        {
          "internalType": "string",
          "name": "contractName",
          "type": "string"
        },
        {
          "internalType": "bytes32",
          "name": "tableKey",
          "type": "bytes32"
        },
        {
          "internalType": "uint256",
          "name": "nodeId",
          "type": "uint256"
        }
      ],
      "name": "removeNodeFromLinkedList",
      "outputs": [
        {
          "internalType": "bool",
          "name": "",
          "type": "bool"
        }
      ],
      "payable": false,
      "stateMutability": "nonpayable",
      "type": "function"
    },
    {
      "constant": false,
      "inputs": [
        {
          "internalType": "string",
          "name": "contractName",
          "type": "string"
        },
        {
          "internalType": "bytes32",
          "name": "tableKey",
          "type": "bytes32"
        },
        {
          "internalType": "uint256",
          "name": "nodeId",
          "type": "uint256"
        },
        {
          "internalType": "uint256",
          "name": "referenceNodeId",
          "type": "uint256"
        },
        {
          "internalType": "bool",
          "name": "direction",
          "type": "bool"
        }
      ],
      "name": "insertNodeToLinkedList",
      "outputs": [
        {
          "internalType": "bool",
          "name": "",
          "type": "bool"
        }
      ],
      "payable": false,
      "stateMutability": "nonpayable",
      "type": "function"
    },
    {
      "constant": true,
      "inputs": [
        {
          "internalType": "string",
          "name": "contractName",
          "type": "string"
        },
        {
          "internalType": "bytes32",
          "name": "tableKey",
          "type": "bytes32"
        },
        {
          "internalType": "uint256",
          "name": "value",
          "type": "uint256"
        }
      ],
      "name": "findNextNodeInSortedLinkedList",
      "outputs": [
        {
          "internalType": "uint256",
          "name": "",
          "type": "uint256"
        }
      ],
      "payable": false,
      "stateMutability": "view",
      "type": "function"
    },
    {
      "constant": true,
      "inputs": [
        {
          "internalType": "string",
          "name": "contractName",
          "type": "string"
        },
        {
          "internalType": "bytes32",
          "name": "tableKey",
          "type": "bytes32"
        },
        {
          "internalType": "uint256",
          "name": "nodeId",
          "type": "uint256"
        },
        {
          "internalType": "bool",
          "name": "dir",
          "type": "bool"
        }
      ],
      "name": "getAdjacent",
      "outputs": [
        {
          "internalType": "bool",
          "name": "",
          "type": "bool"
        },
        {
          "internalType": "uint256",
          "name": "",
          "type": "uint256"
        }
      ],
      "payable": false,
      "stateMutability": "view",
      "type": "function"
    },
    {
      "constant": true,
      "inputs": [
        {
          "internalType": "string",
          "name": "contractName",
          "type": "string"
        },
        {
          "internalType": "bytes32",
          "name": "key",
          "type": "bytes32"
        }
      ],
      "name": "getAll",
      "outputs": [
        {
          "internalType": "uint256[]",
          "name": "nodes",
          "type": "uint256[]"
        }
      ],
      "payable": false,
      "stateMutability": "view",
      "type": "function"
    },
    {
      "constant": true,
      "inputs": [
        {
          "internalType": "string",
          "name": "contractName",
          "type": "string"
        },
        {
          "internalType": "bytes32",
          "name": "tableKey",
          "type": "bytes32"
        }
      ],
      "name": "doesListExist",
      "outputs": [
        {
          "internalType": "bool",
          "name": "",
          "type": "bool"
        }
      ],
      "payable": false,
      "stateMutability": "view",
      "type": "function"
    },
    {
      "constant": true,
      "inputs": [
        {
          "internalType": "string",
          "name": "contractName",
          "type": "string"
        },
        {
          "internalType": "bytes32",
          "name": "tableKey",
          "type": "bytes32"
        },
        {
          "internalType": "uint256",
          "name": "nodeId",
          "type": "uint256"
        }
      ],
      "name": "doesNodeExist",
      "outputs": [
        {
          "internalType": "bool",
          "name": "",
          "type": "bool"
        }
      ],
      "payable": false,
      "stateMutability": "view",
      "type": "function"
    },
    {
      "constant": true,
      "inputs": [
        {
          "internalType": "string",
          "name": "contractName",
          "type": "string"
        },
        {
          "internalType": "bytes32",
          "name": "tableKey",
          "type": "bytes32"
        }
      ],
      "name": "getLinkedListSize",
      "outputs": [
        {
          "internalType": "uint256",
          "name": "",
          "type": "uint256"
        }
      ],
      "payable": false,
      "stateMutability": "view",
      "type": "function"
    },
    {
      "constant": false,
      "inputs": [
        {
          "internalType": "string",
          "name": "contractName",
          "type": "string"
        },
        {
          "internalType": "bytes32",
          "name": "tableKey",
          "type": "bytes32"
        },
        {
          "internalType": "address",
          "name": "nodeId",
          "type": "address"
        }
      ],
      "name": "pushNodeToLinkedListAddr",
      "outputs": [
        {
          "internalType": "bool",
          "name": "",
          "type": "bool"
        }
      ],
      "payable": false,
      "stateMutability": "nonpayable",
      "type": "function"
    },
    {
      "constant": false,
      "inputs": [
        {
          "internalType": "string",
          "name": "contractName",
          "type": "string"
        },
        {
          "internalType": "bytes32",
          "name": "tableKey",
          "type": "bytes32"
        },
        {
          "internalType": "address",
          "name": "nodeId",
          "type": "address"
        }
      ],
      "name": "removeNodeFromLinkedListAddr",
      "outputs": [
        {
          "internalType": "bool",
          "name": "",
          "type": "bool"
        }
      ],
      "payable": false,
      "stateMutability": "nonpayable",
      "type": "function"
    },
    {
      "constant": true,
      "inputs": [
        {
          "internalType": "string",
          "name": "contractName",
          "type": "string"
        },
        {
          "internalType": "bytes32",
          "name": "tableKey",
          "type": "bytes32"
        },
        {
          "internalType": "address",
          "name": "nodeId",
          "type": "address"
        },
        {
          "internalType": "bool",
          "name": "dir",
          "type": "bool"
        }
      ],
      "name": "getAdjacentAddr",
      "outputs": [
        {
          "internalType": "bool",
          "name": "",
          "type": "bool"
        },
        {
          "internalType": "address",
          "name": "",
          "type": "address"
        }
      ],
      "payable": false,
      "stateMutability": "view",
      "type": "function"
    },
    {
      "constant": true,
      "inputs": [
        {
          "internalType": "string",
          "name": "contractName",
          "type": "string"
        },
        {
          "internalType": "bytes32",
          "name": "tableKey",
          "type": "bytes32"
        }
      ],
      "name": "getAllAddr",
      "outputs": [
        {
          "internalType": "address[]",
          "name": "nodes",
          "type": "address[]"
        }
      ],
      "payable": false,
      "stateMutability": "view",
      "type": "function"
    },
    {
      "constant": true,
      "inputs": [
        {
          "internalType": "string",
          "name": "contractName",
          "type": "string"
        },
        {
          "internalType": "bytes32",
          "name": "tableKey",
          "type": "bytes32"
        }
      ],
      "name": "doesListAddrExist",
      "outputs": [
        {
          "internalType": "bool",
          "name": "",
          "type": "bool"
        }
      ],
      "payable": false,
      "stateMutability": "view",
      "type": "function"
    },
    {
      "constant": true,
      "inputs": [
        {
          "internalType": "string",
          "name": "contractName",
          "type": "string"
        },
        {
          "internalType": "bytes32",
          "name": "tableKey",
          "type": "bytes32"
        },
        {
          "internalType": "address",
          "name": "nodeId",
          "type": "address"
        }
      ],
      "name": "doesNodeAddrExist",
      "outputs": [
        {
          "internalType": "bool",
          "name": "",
          "type": "bool"
        }
      ],
      "payable": false,
      "stateMutability": "view",
      "type": "function"
    },
    {
      "constant": true,
      "inputs": [
        {
          "internalType": "string",
          "name": "contractName",
          "type": "string"
        },
        {
          "internalType": "bytes32",
          "name": "tableKey",
          "type": "bytes32"
        }
      ],
      "name": "getLinkedListAddrSize",
      "outputs": [
        {
          "internalType": "uint256",
          "name": "",
          "type": "uint256"
        }
      ],
      "payable": false,
      "stateMutability": "view",
      "type": "function"
    }
  ],
  "bytecode": "0x608060405233600860006101000a81548173ffffffffffffffffffffffffffffffffffffffff021916908373ffffffffffffffffffffffffffffffffffffffff160217905550614827806100546000396000f3fe608060405234801561001057600080fd5b50600436106101ef5760003560e01c80639081fd011161010f578063b93a5b5e116100a2578063e8ad272c11610071578063e8ad272c146118b3578063ec4dc8221461198c578063ec55688914611aa6578063f2fde38b14611af0576101ef565b8063b93a5b5e1461156d578063c7db8da214611672578063cb30ffe71461174b578063d89bb409146117da576101ef565b80639a481f4e116100de5780639a481f4e1461121e578063a7ad3db514611318578063ad52192f146113f0578063ae26601014611495576101ef565b80639081fd0114610f5b57806396bf56801461103857806396edc009146110f357806397107d6d146111da576101ef565b806368923e16116101875780638445d70f116101565780638445d70f14610ccc578063866d59fe14610dc957806387d5336214610e6c5780638da5cb5b14610f11576101ef565b806368923e16146108b45780636c729378146109ce578063757ba9a214610aab578063773cdbd714610b8e576101ef565b80631a84fbb8116101c35780631a84fbb8146104a25780631c58c8bb146105e057806341733939146106bd57806366d4dc4a14610778576101ef565b806245584c146101f45780630214a37c146102af57806307b1d78e1461033c57806308acb556146103c9575b600080fd5b610295600480360360a081101561020a57600080fd5b810190808035906020019064010000000081111561022757600080fd5b82018360208201111561023957600080fd5b8035906020019184600183028401116401000000008311171561025b57600080fd5b9091929391929390803590602001909291908035906020019092919080359060200190929190803515159060200190929190505050611b34565b604051808215151515815260200191505060405180910390f35b61033a600480360360608110156102c557600080fd5b81019080803590602001906401000000008111156102e257600080fd5b8201836020820111156102f457600080fd5b8035906020019184600183028401116401000000008311171561031657600080fd5b90919293919293908035906020019092919080359060200190929190505050611c46565b005b6103c76004803603606081101561035257600080fd5b810190808035906020019064010000000081111561036f57600080fd5b82018360208201111561038157600080fd5b803590602001918460018302840111640100000000831117156103a357600080fd5b90919293919293908035906020019092919080359060200190929190505050611d3e565b005b61048c600480360360408110156103df57600080fd5b81019080803590602001906401000000008111156103fc57600080fd5b82018360208201111561040e57600080fd5b8035906020019184600183028401116401000000008311171561043057600080fd5b91908080601f016020809104026020016040519081016040528093929190818152602001838380828437600081840152601f19601f82011690508083019250505050505050919291929080359060200190929190505050611e37565b6040518082815260200191505060405180910390f35b610565600480360360408110156104b857600080fd5b81019080803590602001906401000000008111156104d557600080fd5b8201836020820111156104e757600080fd5b8035906020019184600183028401116401000000008311171561050957600080fd5b91908080601f016020809104026020016040519081016040528093929190818152602001838380828437600081840152601f19601f82011690508083019250505050505050919291929080359060200190929190505050611ecd565b6040518080602001828103825283818151815260200191508051906020019080838360005b838110156105a557808201518184015260208101905061058a565b50505050905090810190601f1680156105d25780820380516001836020036101000a031916815260200191505b509250505060405180910390f35b6106a3600480360360408110156105f657600080fd5b810190808035906020019064010000000081111561061357600080fd5b82018360208201111561062557600080fd5b8035906020019184600183028401116401000000008311171561064757600080fd5b91908080601f016020809104026020016040519081016040528093929190818152602001838380828437600081840152601f19601f82011690508083019250505050505050919291929080359060200190929190505050611ffc565b604051808215151515815260200191505060405180910390f35b61075e600480360360608110156106d357600080fd5b81019080803590602001906401000000008111156106f057600080fd5b82018360208201111561070257600080fd5b8035906020019184600183028401116401000000008311171561072457600080fd5b909192939192939080359060200190929190803573ffffffffffffffffffffffffffffffffffffffff1690602001909291905050506120a0565b604051808215151515815260200191505060405180910390f35b6108676004803603608081101561078e57600080fd5b81019080803590602001906401000000008111156107ab57600080fd5b8201836020820111156107bd57600080fd5b803590602001918460018302840111640100000000831117156107df57600080fd5b91908080601f016020809104026020016040519081016040528093929190818152602001838380828437600081840152601f19601f82011690508083019250505050505050919291929080359060200190929190803573ffffffffffffffffffffffffffffffffffffffff169060200190929190803515159060200190929190505050612219565b60405180831515151581526020018273ffffffffffffffffffffffffffffffffffffffff1673ffffffffffffffffffffffffffffffffffffffff1681526020019250505060405180910390f35b610977600480360360408110156108ca57600080fd5b81019080803590602001906401000000008111156108e757600080fd5b8201836020820111156108f957600080fd5b8035906020019184600183028401116401000000008311171561091b57600080fd5b91908080601f016020809104026020016040519081016040528093929190818152602001838380828437600081840152601f19601f820116905080830192505050505050509192919290803590602001909291905050506122c9565b6040518080602001828103825283818151815260200191508051906020019060200280838360005b838110156109ba57808201518184015260208101905061099f565b505050509050019250505060405180910390f35b610a91600480360360408110156109e457600080fd5b8101908080359060200190640100000000811115610a0157600080fd5b820183602082011115610a1357600080fd5b80359060200191846001830284011164010000000083111715610a3557600080fd5b91908080601f016020809104026020016040519081016040528093929190818152602001838380828437600081840152601f19601f82011690508083019250505050505050919291929080359060200190929190505050612368565b604051808215151515815260200191505060405180910390f35b610b7860048036036060811015610ac157600080fd5b8101908080359060200190640100000000811115610ade57600080fd5b820183602082011115610af057600080fd5b80359060200191846001830284011164010000000083111715610b1257600080fd5b91908080601f016020809104026020016040519081016040528093929190818152602001838380828437600081840152601f19601f8201169050808301925050505050505091929192908035906020019092919080359060200190929190505050612406565b6040518082815260200191505060405180910390f35b610c5160048036036040811015610ba457600080fd5b8101908080359060200190640100000000811115610bc157600080fd5b820183602082011115610bd357600080fd5b80359060200191846001830284011164010000000083111715610bf557600080fd5b91908080601f016020809104026020016040519081016040528093929190818152602001838380828437600081840152601f19601f82011690508083019250505050505050919291929080359060200190929190505050612515565b6040518080602001828103825283818151815260200191508051906020019080838360005b83811015610c91578082015181840152602081019050610c76565b50505050905090810190601f168015610cbe5780820380516001836020036101000a031916815260200191505b509250505060405180910390f35b610daf60048036036060811015610ce257600080fd5b8101908080359060200190640100000000811115610cff57600080fd5b820183602082011115610d1157600080fd5b80359060200191846001830284011164010000000083111715610d3357600080fd5b91908080601f016020809104026020016040519081016040528093929190818152602001838380828437600081840152601f19601f82011690508083019250505050505050919291929080359060200190929190803573ffffffffffffffffffffffffffffffffffffffff169060200190929190505050612644565b604051808215151515815260200191505060405180910390f35b610e6a60048036036060811015610ddf57600080fd5b8101908080359060200190640100000000811115610dfc57600080fd5b820183602082011115610e0e57600080fd5b80359060200191846001830284011164010000000083111715610e3057600080fd5b909192939192939080359060200190929190803573ffffffffffffffffffffffffffffffffffffffff1690602001909291905050506126ed565b005b610ef760048036036060811015610e8257600080fd5b8101908080359060200190640100000000811115610e9f57600080fd5b820183602082011115610eb157600080fd5b80359060200191846001830284011164010000000083111715610ed357600080fd5b90919293919293908035906020019092919080359060200190929190505050612820565b604051808215151515815260200191505060405180910390f35b610f1961299d565b604051808273ffffffffffffffffffffffffffffffffffffffff1673ffffffffffffffffffffffffffffffffffffffff16815260200191505060405180910390f35b61101e60048036036040811015610f7157600080fd5b8101908080359060200190640100000000811115610f8e57600080fd5b820183602082011115610fa057600080fd5b80359060200191846001830284011164010000000083111715610fc257600080fd5b91908080601f016020809104026020016040519081016040528093929190818152602001838380828437600081840152601f19601f820116905080830192505050505050509192919290803590602001909291905050506129c3565b604051808215151515815260200191505060405180910390f35b6110d96004803603606081101561104e57600080fd5b810190808035906020019064010000000081111561106b57600080fd5b82018360208201111561107d57600080fd5b8035906020019184600183028401116401000000008311171561109f57600080fd5b909192939192939080359060200190929190803573ffffffffffffffffffffffffffffffffffffffff169060200190929190505050612a61565b604051808215151515815260200191505060405180910390f35b6111c06004803603606081101561110957600080fd5b810190808035906020019064010000000081111561112657600080fd5b82018360208201111561113857600080fd5b8035906020019184600183028401116401000000008311171561115a57600080fd5b91908080601f016020809104026020016040519081016040528093929190818152602001838380828437600081840152601f19601f8201169050808301925050505050505091929192908035906020019092919080359060200190929190505050612bde565b604051808215151515815260200191505060405180910390f35b61121c600480360360208110156111f057600080fd5b81019080803573ffffffffffffffffffffffffffffffffffffffff169060200190929190505050612c87565b005b6112f76004803603608081101561123457600080fd5b810190808035906020019064010000000081111561125157600080fd5b82018360208201111561126357600080fd5b8035906020019184600183028401116401000000008311171561128557600080fd5b91908080601f016020809104026020016040519081016040528093929190818152602001838380828437600081840152601f19601f8201169050808301925050505050505091929192908035906020019092919080359060200190929190803515159060200190929190505050612d22565b60405180831515151581526020018281526020019250505060405180910390f35b6113ee6004803603606081101561132e57600080fd5b810190808035906020019064010000000081111561134b57600080fd5b82018360208201111561135d57600080fd5b8035906020019184600183028401116401000000008311171561137f57600080fd5b909192939192939080359060200190929190803590602001906401000000008111156113aa57600080fd5b8201836020820111156113bc57600080fd5b803590602001918460018302840111640100000000831117156113de57600080fd5b9091929391929390505050612dd2565b005b61147b6004803603606081101561140657600080fd5b810190808035906020019064010000000081111561142357600080fd5b82018360208201111561143557600080fd5b8035906020019184600183028401116401000000008311171561145757600080fd5b90919293919293908035906020019092919080359060200190929190505050612ed7565b604051808215151515815260200191505060405180910390f35b61156b600480360360608110156114ab57600080fd5b81019080803590602001906401000000008111156114c857600080fd5b8201836020820111156114da57600080fd5b803590602001918460018302840111640100000000831117156114fc57600080fd5b9091929391929390803590602001909291908035906020019064010000000081111561152757600080fd5b82018360208201111561153957600080fd5b8035906020019184600183028401116401000000008311171561155b57600080fd5b9091929391929390505050613050565b005b6116306004803603604081101561158357600080fd5b81019080803590602001906401000000008111156115a057600080fd5b8201836020820111156115b257600080fd5b803590602001918460018302840111640100000000831117156115d457600080fd5b91908080601f016020809104026020016040519081016040528093929190818152602001838380828437600081840152601f19601f82011690508083019250505050505050919291929080359060200190929190505050613155565b604051808273ffffffffffffffffffffffffffffffffffffffff1673ffffffffffffffffffffffffffffffffffffffff16815260200191505060405180910390f35b6117356004803603604081101561168857600080fd5b81019080803590602001906401000000008111156116a557600080fd5b8201836020820111156116b757600080fd5b803590602001918460018302840111640100000000831117156116d957600080fd5b91908080601f016020809104026020016040519081016040528093929190818152602001838380828437600081840152601f19601f8201169050808301925050505050505091929192908035906020019092919050505061320c565b6040518082815260200191505060405180910390f35b6117d86004803603606081101561176157600080fd5b810190808035906020019064010000000081111561177e57600080fd5b82018360208201111561179057600080fd5b803590602001918460018302840111640100000000831117156117b257600080fd5b9091929391929390803590602001909291908035151590602001909291905050506132aa565b005b61189d600480360360408110156117f057600080fd5b810190808035906020019064010000000081111561180d57600080fd5b82018360208201111561181f57600080fd5b8035906020019184600183028401116401000000008311171561184157600080fd5b91908080601f016020809104026020016040519081016040528093929190818152602001838380828437600081840152601f19601f820116905080830192505050505050509192919290803590602001909291905050506133b6565b6040518082815260200191505060405180910390f35b611976600480360360408110156118c957600080fd5b81019080803590602001906401000000008111156118e657600080fd5b8201836020820111156118f857600080fd5b8035906020019184600183028401116401000000008311171561191a57600080fd5b91908080601f016020809104026020016040519081016040528093929190818152602001838380828437600081840152601f19601f82011690508083019250505050505050919291929080359060200190929190505050613454565b6040518082815260200191505060405180910390f35b611a4f600480360360408110156119a257600080fd5b81019080803590602001906401000000008111156119bf57600080fd5b8201836020820111156119d157600080fd5b803590602001918460018302840111640100000000831117156119f357600080fd5b91908080601f016020809104026020016040519081016040528093929190818152602001838380828437600081840152601f19601f820116905080830192505050505050509192919290803590602001909291905050506134eb565b6040518080602001828103825283818151815260200191508051906020019060200280838360005b83811015611a92578082015181840152602081019050611a77565b505050509050019250505060405180910390f35b611aae61360f565b604051808273ffffffffffffffffffffffffffffffffffffffff1673ffffffffffffffffffffffffffffffffffffffff16815260200191505060405180910390f35b611b3260048036036020811015611b0657600080fd5b81019080803573ffffffffffffffffffffffffffffffffffffffff169060200190929190505050613635565b005b600086868080601f016020809104026020016040519081016040528093929190818152602001838380828437600081840152601f19601f82011690508083019250505050505050611b8481613705565b611bd9576040517f08c379a000000000000000000000000000000000000000000000000000000000815260040180806020018281038252602d8152602001806147c6602d913960400191505060405180910390fd5b611c39848685600660008d8d8d60405160200180848480828437808301925050508281526020019350505050604051602081830303815290604052805190602001208152602001908152602001600020613950909392919063ffffffff16565b9150509695505050505050565b83838080601f016020809104026020016040519081016040528093929190818152602001838380828437600081840152601f19601f82011690508083019250505050505050611c9481613705565b611ce9576040517f08c379a000000000000000000000000000000000000000000000000000000000815260040180806020018281038252602d8152602001806147c6602d913960400191505060405180910390fd5b8160008087878760405160200180848480828437808301925050508281526020019350505050604051602081830303815290604052805190602001208152602001908152602001600020819055505050505050565b83838080601f016020809104026020016040519081016040528093929190818152602001838380828437600081840152601f19601f82011690508083019250505050505050611d8c81613705565b611de1576040517f08c379a000000000000000000000000000000000000000000000000000000000815260040180806020018281038252602d8152602001806147c6602d913960400191505060405180910390fd5b816005600087878760405160200180848480828437808301925050508281526020019350505050604051602081830303815290604052805190602001208152602001908152602001600020819055505050505050565b600080600084846040516020018083805190602001908083835b60208310611e745780518252602082019150602081019050602083039250611e51565b6001836020036101000a0380198251168184511680821785525050505050509050018281526020019250505060405160208183030381529060405280519060200120815260200190815260200160002054905092915050565b60606001600084846040516020018083805190602001908083835b60208310611f0b5780518252602082019150602081019050602083039250611ee8565b6001836020036101000a038019825116818451168082178552505050505050905001828152602001925050506040516020818303038152906040528051906020012081526020019081526020016000208054600181600116156101000203166002900480601f016020809104026020016040519081016040528092919081815260200182805460018160011615610100020316600290048015611fef5780601f10611fc457610100808354040283529160200191611fef565b820191906000526020600020905b815481529060010190602001808311611fd257829003601f168201915b5050505050905092915050565b60006004600084846040516020018083805190602001908083835b6020831061203a5780518252602082019150602081019050602083039250612017565b6001836020036101000a0380198251168184511680821785525050505050509050018281526020019250505060405160208183030381529060405280519060200120815260200190815260200160002060009054906101000a900460ff16905092915050565b600084848080601f016020809104026020016040519081016040528093929190818152602001838380828437600081840152601f19601f820116905080830192505050505050506120f081613705565b612145576040517f08c379a000000000000000000000000000000000000000000000000000000000815260040180806020018281038252602d8152602001806147c6602d913960400191505060405180910390fd5b6121a18360076000898989604051602001808484808284378083019250505082815260200193505050506040516020818303038152906040528051906020012081526020019081526020016000206139d290919063ffffffff16565b6121ae5760009150612210565b61220a836007600089898960405160200180848480828437808301925050508281526020019350505050604051602081830303815290604052805190602001208152602001908152602001600020613be590919063ffffffff16565b50600191505b50949350505050565b6000806122bc8484600760008a8a6040516020018083805190602001908083835b6020831061225d578051825260208201915060208101905060208303925061223a565b6001836020036101000a03801982511681845116808217855250505050505090500182815260200192505050604051602081830303815290604052805190602001208152602001908152602001600020613e2d9092919063ffffffff16565b9150915094509492505050565b606060008060006122da868661320c565b90508060405190808252806020026020018201604052801561230b5781602001602082028038833980820191505090505b5093505b61231c8686856001612d22565b905080935050600083111561234b578284838060010194508151811061233e57fe5b6020026020010181815250505b6000831415801561235b57508082105b61230f5750505092915050565b60006123fe6007600085856040516020018083805190602001908083835b602083106123a95780518252602082019150602081019050602083039250612386565b6001836020036101000a03801982511681845116808217855250505050505090500182815260200192505050604051602081830303815290604052805190602001208152602001908152602001600020613ed3565b905092915050565b60008361241281613705565b612467576040517f08c379a000000000000000000000000000000000000000000000000000000000815260040180806020018281038252602d8152602001806147c6602d913960400191505060405180910390fd5b61250b6000846001600660008a8a6040516020018083805190602001908083835b602083106124ab5780518252602082019150602081019050602083039250612488565b6001836020036101000a03801982511681845116808217855250505050505090500182815260200192505050604051602081830303815290604052805190602001208152602001908152602001600020614031909392919063ffffffff16565b9150509392505050565b60606003600084846040516020018083805190602001908083835b602083106125535780518252602082019150602081019050602083039250612530565b6001836020036101000a038019825116818451168082178552505050505050905001828152602001925050506040516020818303038152906040528051906020012081526020019081526020016000208054600181600116156101000203166002900480601f0160208091040260200160405190810160405280929190818152602001828054600181600116156101000203166002900480156126375780601f1061260c57610100808354040283529160200191612637565b820191906000526020600020905b81548152906001019060200180831161261a57829003601f168201915b5050505050905092915050565b60006126e4826007600087876040516020018083805190602001908083835b602083106126865780518252602082019150602081019050602083039250612663565b6001836020036101000a038019825116818451168082178552505050505050905001828152602001925050506040516020818303038152906040528051906020012081526020019081526020016000206139d290919063ffffffff16565b90509392505050565b83838080601f016020809104026020016040519081016040528093929190818152602001838380828437600081840152601f19601f8201169050808301925050505050505061273b81613705565b612790576040517f08c379a000000000000000000000000000000000000000000000000000000000815260040180806020018281038252602d8152602001806147c6602d913960400191505060405180910390fd5b81600260008787876040516020018084848082843780830192505050828152602001935050505060405160208183030381529060405280519060200120815260200190815260200160002060006101000a81548173ffffffffffffffffffffffffffffffffffffffff021916908373ffffffffffffffffffffffffffffffffffffffff1602179055505050505050565b600084848080601f016020809104026020016040519081016040528093929190818152602001838380828437600081840152601f19601f8201169050808301925050505050505061287081613705565b6128c5576040517f08c379a000000000000000000000000000000000000000000000000000000000815260040180806020018281038252602d8152602001806147c6602d913960400191505060405180910390fd5b6129218360066000898989604051602001808484808284378083019250505082815260200193505050506040516020818303038152906040528051906020012081526020019081526020016000206140e990919063ffffffff16565b1561292f5760009150612994565b61298e836001600660008a8a8a604051602001808484808284378083019250505082815260200193505050506040516020818303038152906040528051906020012081526020019081526020016000206141949092919063ffffffff16565b50600191505b50949350505050565b600860009054906101000a900473ffffffffffffffffffffffffffffffffffffffff1681565b6000612a596006600085856040516020018083805190602001908083835b60208310612a0457805182526020820191506020810190506020830392506129e1565b6001836020036101000a038019825116818451168082178552505050505050905001828152602001925050506040516020818303038152906040528051906020012081526020019081526020016000206141ac565b905092915050565b600084848080601f016020809104026020016040519081016040528093929190818152602001838380828437600081840152601f19601f82011690508083019250505050505050612ab181613705565b612b06576040517f08c379a000000000000000000000000000000000000000000000000000000000815260040180806020018281038252602d8152602001806147c6602d913960400191505060405180910390fd5b612b628360076000898989604051602001808484808284378083019250505082815260200193505050506040516020818303038152906040528051906020012081526020019081526020016000206139d290919063ffffffff16565b15612b705760009150612bd5565b612bcf836001600760008a8a8a6040516020018084848082843780830192505050828152602001935050505060405160208183030381529060405280519060200120815260200190815260200160002061421a9092919063ffffffff16565b50600191505b50949350505050565b6000612c7e826006600087876040516020018083805190602001908083835b60208310612c205780518252602082019150602081019050602083039250612bfd565b6001836020036101000a038019825116818451168082178552505050505050905001828152602001925050506040516020818303038152906040528051906020012081526020019081526020016000206140e990919063ffffffff16565b90509392505050565b600860009054906101000a900473ffffffffffffffffffffffffffffffffffffffff1673ffffffffffffffffffffffffffffffffffffffff163373ffffffffffffffffffffffffffffffffffffffff1614612cde57fe5b80600960006101000a81548173ffffffffffffffffffffffffffffffffffffffff021916908373ffffffffffffffffffffffffffffffffffffffff16021790555050565b600080612dc58484600660008a8a6040516020018083805190602001908083835b60208310612d665780518252602082019150602081019050602083039250612d43565b6001836020036101000a038019825116818451168082178552505050505050905001828152602001925050506040516020818303038152906040528051906020012081526020019081526020016000206142329092919063ffffffff16565b9150915094509492505050565b84848080601f016020809104026020016040519081016040528093929190818152602001838380828437600081840152601f19601f82011690508083019250505050505050612e2081613705565b612e75576040517f08c379a000000000000000000000000000000000000000000000000000000000815260040180806020018281038252602d8152602001806147c6602d913960400191505060405180910390fd5b828260036000898989604051602001808484808284378083019250505082815260200193505050506040516020818303038152906040528051906020012081526020019081526020016000209190612ece9291906146a0565b50505050505050565b600084848080601f016020809104026020016040519081016040528093929190818152602001838380828437600081840152601f19601f82011690508083019250505050505050612f2781613705565b612f7c576040517f08c379a000000000000000000000000000000000000000000000000000000000815260040180806020018281038252602d8152602001806147c6602d913960400191505060405180910390fd5b612fd88360066000898989604051602001808484808284378083019250505082815260200193505050506040516020818303038152906040528051906020012081526020019081526020016000206140e990919063ffffffff16565b612fe55760009150613047565b61304183600660008989896040516020018084848082843780830192505050828152602001935050505060405160208183030381529060405280519060200120815260200190815260200160002061428c90919063ffffffff16565b50600191505b50949350505050565b84848080601f016020809104026020016040519081016040528093929190818152602001838380828437600081840152601f19601f8201169050808301925050505050505061309e81613705565b6130f3576040517f08c379a000000000000000000000000000000000000000000000000000000000815260040180806020018281038252602d8152602001806147c6602d913960400191505060405180910390fd5b82826001600089898960405160200180848480828437808301925050508281526020019350505050604051602081830303815290604052805190602001208152602001908152602001600020919061314c929190614720565b50505050505050565b60006002600084846040516020018083805190602001908083835b602083106131935780518252602082019150602081019050602083039250613170565b6001836020036101000a0380198251168184511680821785525050505050509050018281526020019250505060405160208183030381529060405280519060200120815260200190815260200160002060009054906101000a900473ffffffffffffffffffffffffffffffffffffffff16905092915050565b60006132a26006600085856040516020018083805190602001908083835b6020831061324d578051825260208201915060208101905060208303925061322a565b6001836020036101000a0380198251168184511680821785525050505050509050018281526020019250505060405160208183030381529060405280519060200120815260200190815260200160002061437a565b905092915050565b83838080601f016020809104026020016040519081016040528093929190818152602001838380828437600081840152601f19601f820116905080830192505050505050506132f881613705565b61334d576040517f08c379a000000000000000000000000000000000000000000000000000000000815260040180806020018281038252602d8152602001806147c6602d913960400191505060405180910390fd5b81600460008787876040516020018084848082843780830192505050828152602001935050505060405160208183030381529060405280519060200120815260200190815260200160002060006101000a81548160ff0219169083151502179055505050505050565b600061344c6007600085856040516020018083805190602001908083835b602083106133f757805182526020820191506020810190506020830392506133d4565b6001836020036101000a038019825116818451168082178552505050505050905001828152602001925050506040516020818303038152906040528051906020012081526020019081526020016000206143c5565b905092915050565b60006005600084846040516020018083805190602001908083835b60208310613492578051825260208201915060208101905060208303925061346f565b6001836020036101000a0380198251168184511680821785525050505050509050018281526020019250505060405160208183030381529060405280519060200120815260200190815260200160002054905092915050565b606060008060006134fc86866133b6565b90508060405190808252806020026020018201604052801561352d5781602001602082028038833980820191505090505b5093505b61353e8686856001612219565b905080935050600073ffffffffffffffffffffffffffffffffffffffff168373ffffffffffffffffffffffffffffffffffffffff16146135c6578284838060010194508151811061358b57fe5b602002602001019073ffffffffffffffffffffffffffffffffffffffff16908173ffffffffffffffffffffffffffffffffffffffff16815250505b600073ffffffffffffffffffffffffffffffffffffffff168373ffffffffffffffffffffffffffffffffffffffff161415801561360257508082105b6135315750505092915050565b600960009054906101000a900473ffffffffffffffffffffffffffffffffffffffff1681565b600860009054906101000a900473ffffffffffffffffffffffffffffffffffffffff1673ffffffffffffffffffffffffffffffffffffffff163373ffffffffffffffffffffffffffffffffffffffff161461368c57fe5b600073ffffffffffffffffffffffffffffffffffffffff168173ffffffffffffffffffffffffffffffffffffffff16146137025780600860006101000a81548173ffffffffffffffffffffffffffffffffffffffff021916908373ffffffffffffffffffffffffffffffffffffffff1602179055505b50565b60008073ffffffffffffffffffffffffffffffffffffffff16600960009054906101000a900473ffffffffffffffffffffffffffffffffffffffff1673ffffffffffffffffffffffffffffffffffffffff1614156137cb576040517f08c379a00000000000000000000000000000000000000000000000000000000081526004018080602001828103825260088152602001807f4e6f2050726f787900000000000000000000000000000000000000000000000081525060200191505060405180910390fd5b6000600960009054906101000a900473ffffffffffffffffffffffffffffffffffffffff1673ffffffffffffffffffffffffffffffffffffffff166335817773846040518263ffffffff1660e01b81526004018080602001828103825283818151815260200191508051906020019080838360005b8381101561385b578082015181840152602081019050613840565b50505050905090810190601f1680156138885780820380516001836020036101000a031916815260200191505b509250505060206040518083038186803b1580156138a557600080fd5b505afa1580156138b9573d6000803e3d6000fd5b505050506040513d60208110156138cf57600080fd5b81019080805190602001909291905050509050600073ffffffffffffffffffffffffffffffffffffffff168173ffffffffffffffffffffffffffffffffffffffff16141561391957fe5b8073ffffffffffffffffffffffffffffffffffffffff163373ffffffffffffffffffffffffffffffffffffffff1614915050919050565b600061395c85846140e9565b15801561396f575061396e85856140e9565b5b156139c55760008560000160008681526020019081526020016000206000841515151581526020019081526020016000205490506139af8686868661443c565b6139bb8685838661443c565b60019150506139ca565b600090505b949350505050565b60008073ffffffffffffffffffffffffffffffffffffffff168360000160008473ffffffffffffffffffffffffffffffffffffffff1673ffffffffffffffffffffffffffffffffffffffff16815260200190815260200160002060008015151515815260200190815260200160002060009054906101000a900473ffffffffffffffffffffffffffffffffffffffff1673ffffffffffffffffffffffffffffffffffffffff16148015613b285750600073ffffffffffffffffffffffffffffffffffffffff168360000160008473ffffffffffffffffffffffffffffffffffffffff1673ffffffffffffffffffffffffffffffffffffffff1681526020019081526020016000206000600115151515815260200190815260200160002060009054906101000a900473ffffffffffffffffffffffffffffffffffffffff1673ffffffffffffffffffffffffffffffffffffffff16145b15613bda578173ffffffffffffffffffffffffffffffffffffffff168360000160008073ffffffffffffffffffffffffffffffffffffffff1673ffffffffffffffffffffffffffffffffffffffff1681526020019081526020016000206000600115151515815260200190815260200160002060009054906101000a900473ffffffffffffffffffffffffffffffffffffffff1673ffffffffffffffffffffffffffffffffffffffff16149050613bdf565b600190505b92915050565b60008073ffffffffffffffffffffffffffffffffffffffff168273ffffffffffffffffffffffffffffffffffffffff161480613c285750613c2683836139d2565b155b15613c365760009050613e27565b613d30838460000160008573ffffffffffffffffffffffffffffffffffffffff1673ffffffffffffffffffffffffffffffffffffffff16815260200190815260200160002060008015151515815260200190815260200160002060009054906101000a900473ffffffffffffffffffffffffffffffffffffffff168560000160008673ffffffffffffffffffffffffffffffffffffffff1673ffffffffffffffffffffffffffffffffffffffff1681526020019081526020016000206000600115151515815260200190815260200160002060009054906101000a900473ffffffffffffffffffffffffffffffffffffffff1660016144a1565b8260000160008373ffffffffffffffffffffffffffffffffffffffff1673ffffffffffffffffffffffffffffffffffffffff16815260200190815260200160002060008015151515815260200190815260200160002060006101000a81549073ffffffffffffffffffffffffffffffffffffffff02191690558260000160008373ffffffffffffffffffffffffffffffffffffffff1673ffffffffffffffffffffffffffffffffffffffff1681526020019081526020016000206000600115151515815260200190815260200160002060006101000a81549073ffffffffffffffffffffffffffffffffffffffff02191690558190505b92915050565b600080613e3a85856139d2565b613e4d5760008080905091509150613ecb565b60018560000160008673ffffffffffffffffffffffffffffffffffffffff1673ffffffffffffffffffffffffffffffffffffffff16815260200190815260200160002060008515151515815260200190815260200160002060009054906101000a900473ffffffffffffffffffffffffffffffffffffffff16915091505b935093915050565b60008073ffffffffffffffffffffffffffffffffffffffff168260000160008073ffffffffffffffffffffffffffffffffffffffff1673ffffffffffffffffffffffffffffffffffffffff16815260200190815260200160002060008015151515815260200190815260200160002060009054906101000a900473ffffffffffffffffffffffffffffffffffffffff1673ffffffffffffffffffffffffffffffffffffffff1614158061402a5750600073ffffffffffffffffffffffffffffffffffffffff168260000160008073ffffffffffffffffffffffffffffffffffffffff1673ffffffffffffffffffffffffffffffffffffffff1681526020019081526020016000206000600115151515815260200190815260200160002060009054906101000a900473ffffffffffffffffffffffffffffffffffffffff1673ffffffffffffffffffffffffffffffffffffffff1614155b9050919050565b60008061403d8661437a565b141561404c57600090506140e1565b6000841480614061575061406085856140e9565b5b61406a57600080fd5b600080614078878786614232565b80925081935050505b600081141580156140925750808514155b80156140a45750831515818610151514155b156140db57866000016000828152602001908152602001600020600085151515158152602001908152602001600020549050614081565b80925050505b949350505050565b6000808360000160008481526020019081526020016000206000801515151581526020019081526020016000205414801561414f575060008360000160008481526020019081526020016000206000600115151515815260200190815260200160002054145b156141895781836000016000808152602001908152602001600020600060011515151581526020019081526020016000205414905061418e565b600190505b92915050565b60006141a38460008585613950565b90509392505050565b6000808260000160008081526020019081526020016000206000801515151581526020019081526020016000205414158061421357506000826000016000808152602001908152602001600020600060011515151581526020019081526020016000205414155b9050919050565b600061422984600085856145d2565b90509392505050565b60008061423f85856140e9565b6142525760008080905091509150614284565b600185600001600086815260200190815260200160002060008515151515815260200190815260200160002054915091505b935093915050565b6000808214806142a357506142a183836140e9565b155b156142b15760009050614374565b61431383846000016000858152602001908152602001600020600080151515158152602001908152602001600020548560000160008681526020019081526020016000206000600115151515815260200190815260200160002054600161443c565b8260000160008381526020019081526020016000206000801515151581526020019081526020016000206000905582600001600083815260200190815260200160002060006001151515158152602001908152602001600020600090558190505b92915050565b600080600061438c8460006001614232565b80925081935050505b600081146143be576143a984826001614232565b80925081935050508280600101935050614395565b5050919050565b60008060006143d78460006001613e2d565b80925081935050505b600073ffffffffffffffffffffffffffffffffffffffff168173ffffffffffffffffffffffffffffffffffffffff16146144355761442084826001613e2d565b809250819350505082806001019350506143e0565b5050919050565b828460000160008481526020019081526020016000206000831515151515815260200190815260200160002081905550818460000160008581526020019081526020016000206000831515151581526020019081526020016000208190555050505050565b828460000160008473ffffffffffffffffffffffffffffffffffffffff1673ffffffffffffffffffffffffffffffffffffffff1681526020019081526020016000206000831515151515815260200190815260200160002060006101000a81548173ffffffffffffffffffffffffffffffffffffffff021916908373ffffffffffffffffffffffffffffffffffffffff160217905550818460000160008573ffffffffffffffffffffffffffffffffffffffff1673ffffffffffffffffffffffffffffffffffffffff16815260200190815260200160002060008315151515815260200190815260200160002060006101000a81548173ffffffffffffffffffffffffffffffffffffffff021916908373ffffffffffffffffffffffffffffffffffffffff16021790555050505050565b60006145de85846139d2565b1580156145f157506145f085856139d2565b5b156146935760008560000160008673ffffffffffffffffffffffffffffffffffffffff1673ffffffffffffffffffffffffffffffffffffffff16815260200190815260200160002060008415151515815260200190815260200160002060009054906101000a900473ffffffffffffffffffffffffffffffffffffffff16905061467d868686866144a1565b614689868583866144a1565b6001915050614698565b600090505b949350505050565b828054600181600116156101000203166002900490600052602060002090601f016020900481019282601f106146e157803560ff191683800117855561470f565b8280016001018555821561470f579182015b8281111561470e5782358255916020019190600101906146f3565b5b50905061471c91906147a0565b5090565b828054600181600116156101000203166002900490600052602060002090601f016020900481019282601f1061476157803560ff191683800117855561478f565b8280016001018555821561478f579182015b8281111561478e578235825591602001919060010190614773565b5b50905061479c91906147a0565b5090565b6147c291905b808211156147be5760008160009055506001016147a6565b5090565b9056fe416363657373206973206f6e6c7920616c6c6f7765642066726f6d20737065636966696320636f6e7472616374a265627a7a723158209a772b071e847822111a93fb98312b0a480ad447ba6623a36131df7b763ba2a764736f6c63430005110032",
  "source": "// This program is free software: you can redistribute it and/or modify\r\n// it under the terms of the GNU General Public License as published by\r\n// the Free Software Foundation, either version 3 of the License, or\r\n// (at your option) any later version.\r\n\r\n// This program is distributed in the hope that it will be useful,\r\n// but WITHOUT ANY WARRANTY; without even the implied warranty of\r\n// MERCHANTABILITY or FITNESS FOR A PARTICULAR PURPOSE.  See the\r\n// GNU General Public License for more details.\r\n\r\n// You should have received a copy of the GNU General Public License\r\n// along with this program.  If not, see <http://www.gnu.org/licenses/>.\r\npragma solidity ^0.5.5;\r\n\r\nimport \"./EternalStorage.sol\";\r\nimport \"../proxy/Proxied.sol\";\r\nimport \"../../libs/LinkedListLib.sol\";\r\nimport \"../../libs/LinkedListAddrLib.sol\";\r\n\r\n\r\n\r\n/**\r\n * @title Generic Eternal Storage Unit which can only be accessed through the proxied contracts\r\n * @dev This contract holds all the necessary state variables to carry out the storage of any contract.\r\n * @author @psychoplasma\r\n */\r\ncontract GenericDB is EternalStorage, Proxied {\r\n  using LinkedListLib for LinkedListLib.LinkedList;\r\n  using LinkedListAddrLib for LinkedListAddrLib.LinkedList;\r\n\r\n  function setIntStorage(\r\n    string calldata contractName,\r\n    bytes32 key,\r\n    int256 value\r\n  )\r\n    external onlyContract(contractName)\r\n  {\r\n    intStorage[keccak256(abi.encodePacked(contractName, key))] = value;\r\n  }\r\n\r\n  function getIntStorage(\r\n    string memory contractName,\r\n    bytes32 key\r\n  )\r\n    public view returns (int256)\r\n  {\r\n    return intStorage[keccak256(abi.encodePacked(contractName, key))];\r\n  }\r\n\r\n  function setUintStorage(\r\n    string calldata contractName,\r\n    bytes32 key,\r\n    uint256 value\r\n  )\r\n    external onlyContract(contractName)\r\n  {\r\n    uintStorage[keccak256(abi.encodePacked(contractName, key))] = value;\r\n  }\r\n\r\n  function getUintStorage(\r\n    string memory contractName,\r\n    bytes32 key\r\n  )\r\n    public view returns (uint256)\r\n  {\r\n    return uintStorage[keccak256(abi.encodePacked(contractName, key))];\r\n  }\r\n\r\n  function setStringStorage(\r\n    string calldata contractName,\r\n    bytes32 key,\r\n    string calldata value\r\n  )\r\n    external onlyContract(contractName)\r\n  {\r\n    stringStorage[keccak256(abi.encodePacked(contractName, key))] = value;\r\n  }\r\n\r\n  function getStringStorage(\r\n    string memory contractName,\r\n    bytes32 key\r\n  )\r\n    public view returns (string memory)\r\n  {\r\n    return stringStorage[keccak256(abi.encodePacked(contractName, key))];\r\n  }\r\n\r\n  function setAddressStorage(\r\n    string calldata contractName,\r\n    bytes32 key,\r\n    address value\r\n  )\r\n    external onlyContract(contractName)\r\n  {\r\n    addressStorage[keccak256(abi.encodePacked(contractName, key))] = value;\r\n  }\r\n\r\n  function getAddressStorage(\r\n    string memory contractName,\r\n    bytes32 key\r\n  )\r\n    public view returns (address)\r\n  {\r\n    return addressStorage[keccak256(abi.encodePacked(contractName, key))];\r\n  }\r\n\r\n  function setBytesStorage(\r\n    string calldata contractName,\r\n    bytes32 key,\r\n    bytes calldata value\r\n  )\r\n    external onlyContract(contractName)\r\n  {\r\n    bytesStorage[keccak256(abi.encodePacked(contractName, key))] = value;\r\n  }\r\n\r\n  function getBytesStorage(\r\n    string memory contractName,\r\n    bytes32 key\r\n  )\r\n    public view returns (bytes memory)\r\n  {\r\n    return bytesStorage[keccak256(abi.encodePacked(contractName, key))];\r\n  }\r\n\r\n  function setBoolStorage(\r\n    string calldata contractName,\r\n    bytes32 key,\r\n    bool value\r\n  )\r\n    external onlyContract(contractName)\r\n  {\r\n    boolStorage[keccak256(abi.encodePacked(contractName, key))] = value;\r\n  }\r\n\r\n  function getBoolStorage(\r\n    string memory contractName,\r\n    bytes32 key\r\n  )\r\n    public view returns (bool)\r\n  {\r\n    return boolStorage[keccak256(abi.encodePacked(contractName, key))];\r\n  }\r\n\r\n  function pushNodeToLinkedList(\r\n    string calldata contractName,\r\n    bytes32 tableKey,\r\n    uint256 nodeId\r\n  )\r\n    external onlyContract(contractName) returns (bool)\r\n  {\r\n    if (linkedListStorage[keccak256(abi.encodePacked(contractName, tableKey))].nodeExists(nodeId)) {\r\n      return false;\r\n    }\r\n\r\n    linkedListStorage[keccak256(abi.encodePacked(contractName, tableKey))].push(nodeId, true);\r\n    return true;\r\n  }\r\n\r\n  function removeNodeFromLinkedList(\r\n    string calldata contractName,\r\n    bytes32 tableKey,\r\n    uint256 nodeId\r\n  )\r\n    external onlyContract(contractName) returns (bool)\r\n  {\r\n    if (!linkedListStorage[keccak256(abi.encodePacked(contractName, tableKey))].nodeExists(nodeId)) {\r\n      return false;\r\n    }\r\n    \r\n    linkedListStorage[keccak256(abi.encodePacked(contractName, tableKey))].remove(nodeId);\r\n    return true;\r\n  }\r\n\r\n  function insertNodeToLinkedList(\r\n    string calldata contractName,\r\n    bytes32 tableKey,\r\n    uint256 nodeId,\r\n    uint256 referenceNodeId,\r\n    bool direction\r\n  )\r\n    external onlyContract(contractName) returns (bool)\r\n  {\r\n    return linkedListStorage[keccak256(abi.encodePacked(contractName, tableKey))].insert(referenceNodeId, nodeId, direction);\r\n  }\r\n\r\n  function findNextNodeInSortedLinkedList(\r\n    string memory contractName,\r\n    bytes32 tableKey,\r\n    uint256 value\r\n  )\r\n    public view onlyContract(contractName) returns (uint256)\r\n  {\r\n    return linkedListStorage[keccak256(abi.encodePacked(contractName, tableKey))].getSortedSpot(0, value, true); //0 - search from HEAD, true - NEXT direction\r\n  }\r\n\r\n  function getAdjacent(\r\n    string memory contractName,\r\n    bytes32 tableKey,\r\n    uint256 nodeId,\r\n    bool dir\r\n  )\r\n    public view returns (bool, uint256)\r\n  {\r\n    return linkedListStorage[keccak256(abi.encodePacked(contractName, tableKey))].getAdjacent(nodeId, dir);\r\n  }\r\n\r\n  function getAll(\r\n    string memory contractName,\r\n    bytes32 key\r\n  )\r\n    public\r\n    view returns (uint256[] memory nodes)\r\n  {\r\n    uint256 nextNode;\r\n    uint256 i;\r\n    uint256 len = getLinkedListSize(contractName, key);\r\n    nodes = new uint256[](len);\r\n\r\n    do {\r\n      (,nextNode) = getAdjacent(contractName, key, nextNode, true);\r\n      if (nextNode > 0) {nodes[i++] = nextNode;}\r\n    } while (nextNode != 0 && i < len);\r\n  }\r\n\r\n  function doesListExist(\r\n    string memory contractName,\r\n    bytes32 tableKey\r\n  )\r\n    public view returns (bool)\r\n  {\r\n    return linkedListStorage[keccak256(abi.encodePacked(contractName, tableKey))].listExists();\r\n  }\r\n\r\n  function doesNodeExist(\r\n    string memory contractName,\r\n    bytes32 tableKey,\r\n    uint256 nodeId\r\n  )\r\n    public view returns (bool)\r\n  {\r\n    return linkedListStorage[keccak256(abi.encodePacked(contractName, tableKey))].nodeExists(nodeId);\r\n  }\r\n\r\n  function getLinkedListSize(\r\n    string memory contractName,\r\n    bytes32 tableKey\r\n  )\r\n    public view returns (uint256)\r\n  {\r\n    return linkedListStorage[keccak256(abi.encodePacked(contractName, tableKey))].sizeOf();\r\n  }\r\n\r\n  function pushNodeToLinkedListAddr(\r\n    string calldata contractName,\r\n    bytes32 tableKey,\r\n    address nodeId\r\n  )\r\n    external onlyContract(contractName) returns (bool)\r\n  {\r\n    if (linkedListAddrStorage[keccak256(abi.encodePacked(contractName, tableKey))].nodeExists(nodeId)) {\r\n      return false;\r\n    }\r\n\r\n    linkedListAddrStorage[keccak256(abi.encodePacked(contractName, tableKey))].push(nodeId, true);\r\n    return true;\r\n  }\r\n\r\n  function removeNodeFromLinkedListAddr(\r\n    string calldata contractName,\r\n    bytes32 tableKey,\r\n    address nodeId\r\n  )\r\n    external onlyContract(contractName) returns (bool)\r\n  {\r\n    if (!linkedListAddrStorage[keccak256(abi.encodePacked(contractName, tableKey))].nodeExists(nodeId)) {\r\n      return false;\r\n    }\r\n  \r\n    linkedListAddrStorage[keccak256(abi.encodePacked(contractName, tableKey))].remove(nodeId);\r\n    return true;\r\n  }\r\n\r\n  function getAdjacentAddr(\r\n    string memory contractName,\r\n    bytes32 tableKey,\r\n    address nodeId,\r\n    bool dir\r\n  )\r\n    public view returns (bool, address)\r\n  {\r\n    return linkedListAddrStorage[keccak256(abi.encodePacked(contractName, tableKey))].getAdjacent(nodeId, dir);\r\n  }\r\n\r\n  function getAllAddr(\r\n    string memory contractName,\r\n    bytes32 tableKey\r\n  )\r\n    public\r\n    view returns (address[] memory nodes)\r\n  {\r\n    address nextNode;\r\n    uint256 i;\r\n    uint256 len = getLinkedListAddrSize(contractName, tableKey);\r\n    nodes = new address[](len);\r\n\r\n    do {\r\n      (,nextNode) = getAdjacentAddr(contractName, tableKey, nextNode, true);\r\n      if (nextNode != address(0)) {nodes[i++] = nextNode;}\r\n    } while (nextNode != address(0) && i < len);\r\n  }\r\n\r\n  function doesListAddrExist(\r\n    string memory contractName,\r\n    bytes32 tableKey\r\n  )\r\n    public view returns (bool)\r\n  {\r\n    return linkedListAddrStorage[keccak256(abi.encodePacked(contractName, tableKey))].listExists();\r\n  }\r\n\r\n  function doesNodeAddrExist(\r\n    string memory contractName,\r\n    bytes32 tableKey,\r\n    address nodeId\r\n  )\r\n    public view returns (bool)\r\n  {\r\n    return linkedListAddrStorage[keccak256(abi.encodePacked(contractName, tableKey))].nodeExists(nodeId);\r\n  }\r\n\r\n  function getLinkedListAddrSize(\r\n    string memory contractName,\r\n    bytes32 tableKey\r\n  )\r\n    public view returns (uint256)\r\n  {\r\n    return linkedListAddrStorage[keccak256(abi.encodePacked(contractName, tableKey))].sizeOf();\r\n  }\r\n}\r\n",
  "sourcePath": "C:\\Users\\Alex\\Desktop\\MyProjects\\contracts\\contracts\\modules\\databases\\GenericDB.sol",
  "compiler": {
    "name": "solc",
    "version": "0.5.17+commit.d19bba13.Emscripten.clang"
  },
  "schemaVersion": "3.0.11",
  "updatedAt": "2020-07-05T20:06:09.677Z",
  "devdoc": {
    "author": "@psychoplasma",
    "details": "This contract holds all the necessary state variables to carry out the storage of any contract.",
    "methods": {},
    "title": "Generic Eternal Storage Unit which can only be accessed through the proxied contracts"
  },
  "userdoc": {
    "methods": {
      "setProxy(address)": {
        "notice": "Set/update address of Proxy contract"
      }
    }
  }
}