{
  "contractName": "GMGetterDB",
  "abi": [
    {
      "constant": true,
      "inputs": [],
      "name": "genericDB",
      "outputs": [
        {
          "internalType": "contract GenericDB",
          "name": "",
          "type": "address"
        }
      ],
      "payable": false,
      "stateMutability": "view",
      "type": "function"
    },
    {
      "constant": true,
      "inputs": [],
      "name": "endowmentDB",
      "outputs": [
        {
          "internalType": "contract EndowmentDB",
          "name": "",
          "type": "address"
        }
      ],
      "payable": false,
      "stateMutability": "view",
      "type": "function"
    },
    {
      "constant": true,
      "inputs": [],
      "name": "owner",
      "outputs": [
        {
          "internalType": "address payable",
          "name": "",
          "type": "address"
        }
      ],
      "payable": false,
      "stateMutability": "view",
      "type": "function"
    },
    {
      "constant": false,
      "inputs": [
        {
          "internalType": "contract ProxyBase",
          "name": "_proxy",
          "type": "address"
        }
      ],
      "name": "setProxy",
      "outputs": [],
      "payable": false,
      "stateMutability": "nonpayable",
      "type": "function"
    },
    {
      "constant": true,
      "inputs": [],
      "name": "gameStore",
      "outputs": [
        {
          "internalType": "contract GameStore",
          "name": "",
          "type": "address"
        }
      ],
      "payable": false,
      "stateMutability": "view",
      "type": "function"
    },
    {
      "constant": true,
      "inputs": [],
      "name": "proxy",
      "outputs": [
        {
          "internalType": "contract ProxyBase",
          "name": "",
          "type": "address"
        }
      ],
      "payable": false,
      "stateMutability": "view",
      "type": "function"
    },
    {
      "constant": false,
      "inputs": [
        {
          "internalType": "address payable",
          "name": "newOwner",
          "type": "address"
        }
      ],
      "name": "transferOwnership",
      "outputs": [],
      "payable": false,
      "stateMutability": "nonpayable",
      "type": "function"
    },
    {
      "inputs": [
        {
          "internalType": "contract GenericDB",
          "name": "_genericDB",
          "type": "address"
        }
      ],
      "payable": false,
      "stateMutability": "nonpayable",
      "type": "constructor"
    },
    {
      "constant": false,
      "inputs": [
        {
          "internalType": "contract GenericDB",
          "name": "_genericDB",
          "type": "address"
        }
      ],
      "name": "setGenericDB",
      "outputs": [],
      "payable": false,
      "stateMutability": "nonpayable",
      "type": "function"
    },
    {
      "constant": false,
      "inputs": [],
      "name": "initialize",
      "outputs": [],
      "payable": false,
      "stateMutability": "nonpayable",
      "type": "function"
    },
    {
      "constant": true,
      "inputs": [
        {
          "internalType": "uint256",
          "name": "gameId",
          "type": "uint256"
        },
        {
          "internalType": "address",
          "name": "player",
          "type": "address"
        }
      ],
      "name": "getSupporters",
      "outputs": [
        {
          "internalType": "uint256",
          "name": "",
          "type": "uint256"
        }
      ],
      "payable": false,
      "stateMutability": "view",
      "type": "function"
    },
    {
      "constant": true,
      "inputs": [
        {
          "internalType": "uint256",
          "name": "gameId",
          "type": "uint256"
        },
        {
          "internalType": "address",
          "name": "supportedPlayer",
          "type": "address"
        }
      ],
      "name": "getTotalBet",
      "outputs": [
        {
          "internalType": "uint256",
          "name": "",
          "type": "uint256"
        }
      ],
      "payable": false,
      "stateMutability": "view",
      "type": "function"
    },
    {
      "constant": true,
      "inputs": [
        {
          "internalType": "uint256",
          "name": "gameId",
          "type": "uint256"
        }
      ],
      "name": "getGamePlayers",
      "outputs": [
        {
          "internalType": "address",
          "name": "playerBlack",
          "type": "address"
        },
        {
          "internalType": "address",
          "name": "playerRed",
          "type": "address"
        },
        {
          "internalType": "uint256",
          "name": "kittyBlack",
          "type": "uint256"
        },
        {
          "internalType": "uint256",
          "name": "kittyRed",
          "type": "uint256"
        }
      ],
      "payable": false,
      "stateMutability": "view",
      "type": "function"
    },
    {
      "constant": true,
      "inputs": [
        {
          "internalType": "uint256",
          "name": "gameId",
          "type": "uint256"
        }
      ],
      "name": "getGameState",
      "outputs": [
        {
          "internalType": "uint256",
          "name": "gameState",
          "type": "uint256"
        }
      ],
      "payable": false,
      "stateMutability": "view",
      "type": "function"
    },
    {
      "constant": true,
      "inputs": [
        {
          "internalType": "uint256",
          "name": "gameId",
          "type": "uint256"
        },
        {
          "internalType": "address",
          "name": "player",
          "type": "address"
        }
      ],
      "name": "getKittieInGame",
      "outputs": [
        {
          "internalType": "uint256",
          "name": "",
          "type": "uint256"
        }
      ],
      "payable": false,
      "stateMutability": "view",
      "type": "function"
    },
    {
      "constant": true,
      "inputs": [
        {
          "internalType": "uint256",
          "name": "gameId",
          "type": "uint256"
        }
      ],
      "name": "getGameTimes",
      "outputs": [
        {
          "internalType": "uint256",
          "name": "startTime",
          "type": "uint256"
        },
        {
          "internalType": "uint256",
          "name": "preStartTime",
          "type": "uint256"
        },
        {
          "internalType": "uint256",
          "name": "endTime",
          "type": "uint256"
        }
      ],
      "payable": false,
      "stateMutability": "view",
      "type": "function"
    },
    {
      "constant": true,
      "inputs": [
        {
          "internalType": "uint256",
          "name": "gameId",
          "type": "uint256"
        },
        {
          "internalType": "address",
          "name": "player",
          "type": "address"
        }
      ],
      "name": "isPlayer",
      "outputs": [
        {
          "internalType": "bool",
          "name": "",
          "type": "bool"
        }
      ],
      "payable": false,
      "stateMutability": "view",
      "type": "function"
    },
    {
      "constant": true,
      "inputs": [
        {
          "internalType": "uint256",
          "name": "gameId",
          "type": "uint256"
        }
      ],
      "name": "doesGameExist",
      "outputs": [
        {
          "internalType": "bool",
          "name": "",
          "type": "bool"
        }
      ],
      "payable": false,
      "stateMutability": "view",
      "type": "function"
    },
    {
      "constant": true,
      "inputs": [
        {
          "internalType": "uint256",
          "name": "kittieId",
          "type": "uint256"
        }
      ],
      "name": "getGameOfKittie",
      "outputs": [
        {
          "internalType": "uint256",
          "name": "",
          "type": "uint256"
        }
      ],
      "payable": false,
      "stateMutability": "view",
      "type": "function"
    },
    {
      "constant": true,
      "inputs": [
        {
          "internalType": "uint256",
          "name": "gameId",
          "type": "uint256"
        }
      ],
      "name": "getFinalHoneypot",
      "outputs": [
        {
          "internalType": "uint256",
          "name": "totalEth",
          "type": "uint256"
        },
        {
          "internalType": "uint256",
          "name": "totalKty",
          "type": "uint256"
        }
      ],
      "payable": false,
      "stateMutability": "view",
      "type": "function"
    },
    {
      "constant": true,
      "inputs": [
        {
          "internalType": "uint256",
          "name": "gameId",
          "type": "uint256"
        },
        {
          "internalType": "address",
          "name": "player",
          "type": "address"
        }
      ],
      "name": "getPlayerBet",
      "outputs": [
        {
          "internalType": "uint256",
          "name": "playerBet",
          "type": "uint256"
        }
      ],
      "payable": false,
      "stateMutability": "view",
      "type": "function"
    },
    {
      "constant": true,
      "inputs": [
        {
          "internalType": "uint256",
          "name": "kittieId",
          "type": "uint256"
        }
      ],
      "name": "getFighterByKittieID",
      "outputs": [
        {
          "internalType": "address",
          "name": "owner",
          "type": "address"
        },
        {
          "internalType": "bool",
          "name": "isDead",
          "type": "bool"
        },
        {
          "internalType": "uint256",
          "name": "deathTime",
          "type": "uint256"
        },
        {
          "internalType": "uint256",
          "name": "kittieHellExp",
          "type": "uint256"
        },
        {
          "internalType": "bool",
          "name": "isGhost",
          "type": "bool"
        },
        {
          "internalType": "bool",
          "name": "isPlaying",
          "type": "bool"
        },
        {
          "internalType": "uint256",
          "name": "gameId",
          "type": "uint256"
        }
      ],
      "payable": false,
      "stateMutability": "view",
      "type": "function"
    },
    {
      "constant": true,
      "inputs": [
        {
          "internalType": "uint256",
          "name": "gameId",
          "type": "uint256"
        },
        {
          "internalType": "address",
          "name": "bettor",
          "type": "address"
        }
      ],
      "name": "getSupporterInfo",
      "outputs": [
        {
          "internalType": "uint256",
          "name": "betAmount",
          "type": "uint256"
        },
        {
          "internalType": "address",
          "name": "supportedPlayer",
          "type": "address"
        },
        {
          "internalType": "bool",
          "name": "ticketFeePaid",
          "type": "bool"
        },
        {
          "internalType": "bool",
          "name": "hasClaimed",
          "type": "bool"
        }
      ],
      "payable": false,
      "stateMutability": "view",
      "type": "function"
    },
    {
      "constant": true,
      "inputs": [
        {
          "internalType": "uint256",
          "name": "gameId",
          "type": "uint256"
        }
      ],
      "name": "getGameInfo",
      "outputs": [
        {
          "internalType": "address[2]",
          "name": "players",
          "type": "address[2]"
        },
        {
          "internalType": "uint256[2]",
          "name": "kittieIds",
          "type": "uint256[2]"
        },
        {
          "internalType": "uint256",
          "name": "state",
          "type": "uint256"
        },
        {
          "internalType": "uint256[2]",
          "name": "supporters",
          "type": "uint256[2]"
        },
        {
          "internalType": "bool[2]",
          "name": "pressedStart",
          "type": "bool[2]"
        },
        {
          "internalType": "uint256",
          "name": "timeCreated",
          "type": "uint256"
        },
        {
          "internalType": "address",
          "name": "winner",
          "type": "address"
        }
      ],
      "payable": false,
      "stateMutability": "view",
      "type": "function"
    },
    {
      "constant": true,
      "inputs": [
        {
          "internalType": "uint256",
          "name": "gameId",
          "type": "uint256"
        }
      ],
      "name": "getHoneypotInfo",
      "outputs": [
        {
          "internalType": "uint256",
          "name": "honeypotId",
          "type": "uint256"
        },
        {
          "internalType": "uint256",
          "name": "status",
          "type": "uint256"
        },
        {
          "internalType": "uint256",
          "name": "initialEth",
          "type": "uint256"
        },
        {
          "internalType": "uint256",
          "name": "ethTotal",
          "type": "uint256"
        },
        {
          "internalType": "uint256[2]",
          "name": "ethByCorner",
          "type": "uint256[2]"
        },
        {
          "internalType": "uint256",
          "name": "ktyTotal",
          "type": "uint256"
        },
        {
          "internalType": "uint256",
          "name": "expTime",
          "type": "uint256"
        }
      ],
      "payable": false,
      "stateMutability": "view",
      "type": "function"
    },
    {
      "constant": true,
      "inputs": [
        {
          "internalType": "uint256",
          "name": "gameId",
          "type": "uint256"
        },
        {
          "internalType": "address",
          "name": "sender",
          "type": "address"
        }
      ],
      "name": "getMyInfo",
      "outputs": [
        {
          "internalType": "bool",
          "name": "isSupporter",
          "type": "bool"
        },
        {
          "internalType": "uint256",
          "name": "supportedCorner",
          "type": "uint256"
        },
        {
          "internalType": "bool",
          "name": "isPlayerInGame",
          "type": "bool"
        },
        {
          "internalType": "uint256",
          "name": "corner",
          "type": "uint256"
        }
      ],
      "payable": false,
      "stateMutability": "view",
      "type": "function"
    },
    {
      "constant": true,
      "inputs": [
        {
          "internalType": "uint256",
          "name": "gameId",
          "type": "uint256"
        },
        {
          "internalType": "address",
          "name": "player",
          "type": "address"
        }
      ],
      "name": "getPlayer",
      "outputs": [
        {
          "internalType": "uint256",
          "name": "kittieId",
          "type": "uint256"
        },
        {
          "internalType": "uint256",
          "name": "corner",
          "type": "uint256"
        },
        {
          "internalType": "uint256",
          "name": "betsTotalEth",
          "type": "uint256"
        }
      ],
      "payable": false,
      "stateMutability": "view",
      "type": "function"
    },
    {
      "constant": true,
      "inputs": [
        {
          "internalType": "uint256",
          "name": "gameId",
          "type": "uint256"
        }
      ],
      "name": "getWinners",
      "outputs": [
        {
          "internalType": "address",
          "name": "winner",
          "type": "address"
        },
        {
          "internalType": "address",
          "name": "topBettor",
          "type": "address"
        },
        {
          "internalType": "address",
          "name": "secondTopBettor",
          "type": "address"
        }
      ],
      "payable": false,
      "stateMutability": "view",
      "type": "function"
    },
    {
      "constant": true,
      "inputs": [
        {
          "internalType": "address",
          "name": "account",
          "type": "address"
        }
      ],
      "name": "getAccountInfo",
      "outputs": [
        {
          "internalType": "bool",
          "name": "isRegistered",
          "type": "bool"
        },
        {
          "internalType": "bool",
          "name": "isVerified",
          "type": "bool"
        }
      ],
      "payable": false,
      "stateMutability": "view",
      "type": "function"
    }
  ],
  "bytecode": "0x60806040523480156200001157600080fd5b5060405162005bc838038062005bc8833981810160405260208110156200003757600080fd5b8101908080519060200190929190505050336000806101000a81548173ffffffffffffffffffffffffffffffffffffffff021916908373ffffffffffffffffffffffffffffffffffffffff1602179055506200009981620000a060201b60201c565b506200013b565b6000809054906101000a900473ffffffffffffffffffffffffffffffffffffffff1673ffffffffffffffffffffffffffffffffffffffff163373ffffffffffffffffffffffffffffffffffffffff1614620000f757fe5b80600260006101000a81548173ffffffffffffffffffffffffffffffffffffffff021916908373ffffffffffffffffffffffffffffffffffffffff16021790555050565b615a7d806200014b6000396000f3fe608060405234801561001057600080fd5b50600436106101c45760003560e01c80638851470d116100f9578063de4128de11610097578063e6d3538d11610071578063e6d3538d14610c20578063ec55688914610c86578063f2fde38b14610cd0578063ffde0c7414610d14576101c4565b8063de4128de14610b16578063e441dcbf14610b78578063e6a3d31e14610bda576101c4565b8063b1be6469116100d3578063b1be646914610964578063bacf524e146109ae578063d5da9dca14610a10578063dd99717d14610ab4576101c4565b80638851470d146108865780638da5cb5b146108d657806397107d6d14610920576101c4565b8063589ac6a4116101665780636454e58d116101405780636454e58d146106d15780636b1426a4146107415780637b510fe8146108155780638129fc1c1461087c576101c4565b8063589ac6a414610574578063589ba794146106085780635d06fc0114610687576101c4565b806337507a0c116101a257806337507a0c1461036d57806347e1d550146103af5780634afab815146104e7578063525a8e4e1461052b576101c4565b80630b154c96146101c957806315a40f49146102745780633564e78c14610323575b600080fd5b610215600480360360408110156101df57600080fd5b8101908080359060200190929190803573ffffffffffffffffffffffffffffffffffffffff169060200190929190505050610d56565b604051808581526020018473ffffffffffffffffffffffffffffffffffffffff1673ffffffffffffffffffffffffffffffffffffffff168152602001831515151581526020018215151515815260200194505050505060405180910390f35b6102a06004803603602081101561028a57600080fd5b81019080803590602001909291905050506114f3565b604051808573ffffffffffffffffffffffffffffffffffffffff1673ffffffffffffffffffffffffffffffffffffffff1681526020018473ffffffffffffffffffffffffffffffffffffffff1673ffffffffffffffffffffffffffffffffffffffff16815260200183815260200182815260200194505050505060405180910390f35b61032b611c02565b604051808273ffffffffffffffffffffffffffffffffffffffff1673ffffffffffffffffffffffffffffffffffffffff16815260200191505060405180910390f35b6103996004803603602081101561038357600080fd5b8101908080359060200190929190505050611c28565b6040518082815260200191505060405180910390f35b6103db600480360360208110156103c557600080fd5b8101908080359060200190929190505050611dcf565b6040518088600260200280838360005b838110156104065780820151818401526020810190506103eb565b5050505090500187600260200280838360005b83811015610434578082015181840152602081019050610419565b5050505090500186815260200185600260200280838360005b8381101561046857808201518184015260208101905061044d565b5050505090500184600260200280838360005b8381101561049657808201518184015260208101905061047b565b505050509050018381526020018273ffffffffffffffffffffffffffffffffffffffff1673ffffffffffffffffffffffffffffffffffffffff16815260200197505050505050505060405180910390f35b610529600480360360208110156104fd57600080fd5b81019080803573ffffffffffffffffffffffffffffffffffffffff169060200190929190505050612497565b005b6105576004803603602081101561054157600080fd5b8101908080359060200190929190505050612531565b604051808381526020018281526020019250505060405180910390f35b6105a06004803603602081101561058a57600080fd5b8101908080359060200190929190505050612879565b6040518088815260200187815260200186815260200185815260200184600260200280838360005b838110156105e35780820151818401526020810190506105c8565b5050505090500183815260200182815260200197505050505050505060405180910390f35b6106546004803603604081101561061e57600080fd5b8101908080359060200190929190803573ffffffffffffffffffffffffffffffffffffffff169060200190929190505050612da7565b60405180851515151581526020018481526020018315151515815260200182815260200194505050505060405180910390f35b61068f613398565b604051808273ffffffffffffffffffffffffffffffffffffffff1673ffffffffffffffffffffffffffffffffffffffff16815260200191505060405180910390f35b61071d600480360360408110156106e757600080fd5b8101908080359060200190929190803573ffffffffffffffffffffffffffffffffffffffff1690602001909291905050506133be565b60405180848152602001838152602001828152602001935050505060405180910390f35b61076d6004803603602081101561075757600080fd5b81019080803590602001909291905050506134c6565b604051808473ffffffffffffffffffffffffffffffffffffffff1673ffffffffffffffffffffffffffffffffffffffff1681526020018373ffffffffffffffffffffffffffffffffffffffff1673ffffffffffffffffffffffffffffffffffffffff1681526020018273ffffffffffffffffffffffffffffffffffffffff1673ffffffffffffffffffffffffffffffffffffffff168152602001935050505060405180910390f35b6108576004803603602081101561082b57600080fd5b81019080803573ffffffffffffffffffffffffffffffffffffffff1690602001909291905050506139b2565b6040518083151515158152602001821515151581526020019250505060405180910390f35b610884613dc5565b005b6108b26004803603602081101561089c57600080fd5b810190808035906020019092919050505061412d565b60405180848152602001838152602001828152602001935050505060405180910390f35b6108de61462d565b604051808273ffffffffffffffffffffffffffffffffffffffff1673ffffffffffffffffffffffffffffffffffffffff16815260200191505060405180910390f35b6109626004803603602081101561093657600080fd5b81019080803573ffffffffffffffffffffffffffffffffffffffff169060200190929190505050614652565b005b61096c6146ec565b604051808273ffffffffffffffffffffffffffffffffffffffff1673ffffffffffffffffffffffffffffffffffffffff16815260200191505060405180910390f35b6109fa600480360360408110156109c457600080fd5b8101908080359060200190929190803573ffffffffffffffffffffffffffffffffffffffff169060200190929190505050614712565b6040518082815260200191505060405180910390f35b610a3c60048036036020811015610a2657600080fd5b81019080803590602001909291905050506148f1565b604051808873ffffffffffffffffffffffffffffffffffffffff1673ffffffffffffffffffffffffffffffffffffffff16815260200187151515158152602001868152602001858152602001841515151581526020018315151515815260200182815260200197505050505050505060405180910390f35b610b0060048036036040811015610aca57600080fd5b8101908080359060200190929190803573ffffffffffffffffffffffffffffffffffffffff169060200190929190505050614bf0565b6040518082815260200191505060405180910390f35b610b6260048036036040811015610b2c57600080fd5b8101908080359060200190929190803573ffffffffffffffffffffffffffffffffffffffff169060200190929190505050614dcf565b6040518082815260200191505060405180910390f35b610bc460048036036040811015610b8e57600080fd5b8101908080359060200190929190803573ffffffffffffffffffffffffffffffffffffffff169060200190929190505050614fae565b6040518082815260200191505060405180910390f35b610c0660048036036020811015610bf057600080fd5b81019080803590602001909291905050506151a1565b604051808215151515815260200191505060405180910390f35b610c6c60048036036040811015610c3657600080fd5b8101908080359060200190929190803573ffffffffffffffffffffffffffffffffffffffff169060200190929190505050615348565b604051808215151515815260200191505060405180910390f35b610c8e615717565b604051808273ffffffffffffffffffffffffffffffffffffffff1673ffffffffffffffffffffffffffffffffffffffff16815260200191505060405180910390f35b610d1260048036036020811015610ce657600080fd5b81019080803573ffffffffffffffffffffffffffffffffffffffff16906020019092919050505061573d565b005b610d4060048036036020811015610d2a57600080fd5b810190808035906020019092919050505061580b565b6040518082815260200191505060405180910390f35b600080600080600260009054906101000a900473ffffffffffffffffffffffffffffffffffffffff1673ffffffffffffffffffffffffffffffffffffffff166308acb5566040518060400160405280600a81526020017f474d5365747465724442000000000000000000000000000000000000000000008152508888604051602001808381526020018273ffffffffffffffffffffffffffffffffffffffff1673ffffffffffffffffffffffffffffffffffffffff1660601b8152601401807f626574416d6f756e74000000000000000000000000000000000000000000000081525060090192505050604051602081830303815290604052805190602001206040518363ffffffff1660e01b81526004018080602001838152602001828103825284818151815260200191508051906020019080838360005b83811015610eab578082015181840152602081019050610e90565b50505050905090810190601f168015610ed85780820380516001836020036101000a031916815260200191505b50935050505060206040518083038186803b158015610ef657600080fd5b505afa158015610f0a573d6000803e3d6000fd5b505050506040513d6020811015610f2057600080fd5b81019080805190602001909291905050509350600260009054906101000a900473ffffffffffffffffffffffffffffffffffffffff1673ffffffffffffffffffffffffffffffffffffffff1663b93a5b5e6040518060400160405280600a81526020017f474d5365747465724442000000000000000000000000000000000000000000008152508888604051602001808381526020018273ffffffffffffffffffffffffffffffffffffffff1673ffffffffffffffffffffffffffffffffffffffff1660601b8152601401807f737570706f72746564506c617965720000000000000000000000000000000000815250600f0192505050604051602081830303815290604052805190602001206040518363ffffffff1660e01b81526004018080602001838152602001828103825284818151815260200191508051906020019080838360005b83811015611082578082015181840152602081019050611067565b50505050905090810190601f1680156110af5780820380516001836020036101000a031916815260200191505b50935050505060206040518083038186803b1580156110cd57600080fd5b505afa1580156110e1573d6000803e3d6000fd5b505050506040513d60208110156110f757600080fd5b81019080805190602001909291905050509250600260009054906101000a900473ffffffffffffffffffffffffffffffffffffffff1673ffffffffffffffffffffffffffffffffffffffff16631c58c8bb6040518060400160405280600a81526020017f474d5365747465724442000000000000000000000000000000000000000000008152508888604051602001808381526020018273ffffffffffffffffffffffffffffffffffffffff1673ffffffffffffffffffffffffffffffffffffffff1660601b8152601401807f7469636b65744665655061696400000000000000000000000000000000000000815250600d0192505050604051602081830303815290604052805190602001206040518363ffffffff1660e01b81526004018080602001838152602001828103825284818151815260200191508051906020019080838360005b8381101561125957808201518184015260208101905061123e565b50505050905090810190601f1680156112865780820380516001836020036101000a031916815260200191505b50935050505060206040518083038186803b1580156112a457600080fd5b505afa1580156112b8573d6000803e3d6000fd5b505050506040513d60208110156112ce57600080fd5b81019080805190602001909291905050509150600160009054906101000a900473ffffffffffffffffffffffffffffffffffffffff1673ffffffffffffffffffffffffffffffffffffffff1663358177736040518060400160405280600d81526020017f456e646f776d656e7446756e64000000000000000000000000000000000000008152506040518263ffffffff1660e01b81526004018080602001828103825283818151815260200191508051906020019080838360005b838110156113a4578082015181840152602081019050611389565b50505050905090810190601f1680156113d15780820380516001836020036101000a031916815260200191505b509250505060206040518083038186803b1580156113ee57600080fd5b505afa158015611402573d6000803e3d6000fd5b505050506040513d602081101561141857600080fd5b810190808051906020019092919050505073ffffffffffffffffffffffffffffffffffffffff1663ca2a188687876040518363ffffffff1660e01b8152600401808381526020018273ffffffffffffffffffffffffffffffffffffffff1673ffffffffffffffffffffffffffffffffffffffff1681526020019250505060206040518083038186803b1580156114ad57600080fd5b505afa1580156114c1573d6000803e3d6000fd5b505050506040513d60208110156114d757600080fd5b8101908080519060200190929190505050905092959194509250565b60008060008084611503816151a1565b61150c57600080fd5b600260009054906101000a900473ffffffffffffffffffffffffffffffffffffffff1673ffffffffffffffffffffffffffffffffffffffff1663b93a5b5e6040518060400160405280600a81526020017f474d5365747465724442000000000000000000000000000000000000000000008152508860405160200180828152602001807f706c61796572426c61636b000000000000000000000000000000000000000000815250600b01915050604051602081830303815290604052805190602001206040518363ffffffff1660e01b81526004018080602001838152602001828103825284818151815260200191508051906020019080838360005b83811015611624578082015181840152602081019050611609565b50505050905090810190601f1680156116515780820380516001836020036101000a031916815260200191505b50935050505060206040518083038186803b15801561166f57600080fd5b505afa158015611683573d6000803e3d6000fd5b505050506040513d602081101561169957600080fd5b81019080805190602001909291905050509450600260009054906101000a900473ffffffffffffffffffffffffffffffffffffffff1673ffffffffffffffffffffffffffffffffffffffff1663b93a5b5e6040518060400160405280600a81526020017f474d5365747465724442000000000000000000000000000000000000000000008152508860405160200180828152602001807f706c617965725265640000000000000000000000000000000000000000000000815250600901915050604051602081830303815290604052805190602001206040518363ffffffff1660e01b81526004018080602001838152602001828103825284818151815260200191508051906020019080838360005b838110156117c45780820151818401526020810190506117a9565b50505050905090810190601f1680156117f15780820380516001836020036101000a031916815260200191505b50935050505060206040518083038186803b15801561180f57600080fd5b505afa158015611823573d6000803e3d6000fd5b505050506040513d602081101561183957600080fd5b81019080805190602001909291905050509350600260009054906101000a900473ffffffffffffffffffffffffffffffffffffffff1673ffffffffffffffffffffffffffffffffffffffff166308acb5566040518060400160405280600a81526020017f474d5365747465724442000000000000000000000000000000000000000000008152508888604051602001808381526020018273ffffffffffffffffffffffffffffffffffffffff1673ffffffffffffffffffffffffffffffffffffffff1660601b8152601401807f6b6974747900000000000000000000000000000000000000000000000000000081525060050192505050604051602081830303815290604052805190602001206040518363ffffffff1660e01b81526004018080602001838152602001828103825284818151815260200191508051906020019080838360005b8381101561199b578082015181840152602081019050611980565b50505050905090810190601f1680156119c85780820380516001836020036101000a031916815260200191505b50935050505060206040518083038186803b1580156119e657600080fd5b505afa1580156119fa573d6000803e3d6000fd5b505050506040513d6020811015611a1057600080fd5b81019080805190602001909291905050509250600260009054906101000a900473ffffffffffffffffffffffffffffffffffffffff1673ffffffffffffffffffffffffffffffffffffffff166308acb5566040518060400160405280600a81526020017f474d5365747465724442000000000000000000000000000000000000000000008152508887604051602001808381526020018273ffffffffffffffffffffffffffffffffffffffff1673ffffffffffffffffffffffffffffffffffffffff1660601b8152601401807f6b6974747900000000000000000000000000000000000000000000000000000081525060050192505050604051602081830303815290604052805190602001206040518363ffffffff1660e01b81526004018080602001838152602001828103825284818151815260200191508051906020019080838360005b83811015611b72578082015181840152602081019050611b57565b50505050905090810190601f168015611b9f5780820380516001836020036101000a031916815260200191505b50935050505060206040518083038186803b158015611bbd57600080fd5b505afa158015611bd1573d6000803e3d6000fd5b505050506040513d6020811015611be757600080fd5b81019080805190602001909291905050509150509193509193565b600260009054906101000a900473ffffffffffffffffffffffffffffffffffffffff1681565b6000600260009054906101000a900473ffffffffffffffffffffffffffffffffffffffff1673ffffffffffffffffffffffffffffffffffffffff166308acb5566040518060400160405280600a81526020017f474d5365747465724442000000000000000000000000000000000000000000008152508460405160200180828152602001807f706c6179696e6747616d65000000000000000000000000000000000000000000815250600b01915050604051602081830303815290604052805190602001206040518363ffffffff1660e01b81526004018080602001838152602001828103825284818151815260200191508051906020019080838360005b83811015611d42578082015181840152602081019050611d27565b50505050905090810190601f168015611d6f5780820380516001836020036101000a031916815260200191505b50935050505060206040518083038186803b158015611d8d57600080fd5b505afa158015611da1573d6000803e3d6000fd5b505050506040513d6020811015611db757600080fd5b81019080805190602001909291905050509050919050565b611dd76159e2565b611ddf615a04565b6000611de9615a04565b611df1615a26565b60008087611dfe816151a1565b611e0757600080fd5b611e10896114f3565b8b600060028110611e1d57fe5b602002018c600160028110611e2e57fe5b602002018c600060028110611e3f57fe5b602002018d600160028110611e5057fe5b6020020184815250848152508473ffffffffffffffffffffffffffffffffffffffff1673ffffffffffffffffffffffffffffffffffffffff168152508473ffffffffffffffffffffffffffffffffffffffff1673ffffffffffffffffffffffffffffffffffffffff1681525050505050611ec98961580b565b9550611ee68989600060028110611edc57fe5b6020020151614dcf565b85600060028110611ef357fe5b602002018181525050611f178989600160028110611f0d57fe5b6020020151614dcf565b85600160028110611f2457fe5b602002018181525050600360009054906101000a900473ffffffffffffffffffffffffffffffffffffffff1673ffffffffffffffffffffffffffffffffffffffff1663ebff754a8a8a600060028110611f7957fe5b60200201516040518363ffffffff1660e01b8152600401808381526020018273ffffffffffffffffffffffffffffffffffffffff1673ffffffffffffffffffffffffffffffffffffffff1681526020019250505060206040518083038186803b158015611fe557600080fd5b505afa158015611ff9573d6000803e3d6000fd5b505050506040513d602081101561200f57600080fd5b81019080805190602001909291905050508460006002811061202d57fe5b602002019015159081151581525050600360009054906101000a900473ffffffffffffffffffffffffffffffffffffffff1673ffffffffffffffffffffffffffffffffffffffff1663ebff754a8a8a60016002811061208857fe5b60200201516040518363ffffffff1660e01b8152600401808381526020018273ffffffffffffffffffffffffffffffffffffffff1673ffffffffffffffffffffffffffffffffffffffff1681526020019250505060206040518083038186803b1580156120f457600080fd5b505afa158015612108573d6000803e3d6000fd5b505050506040513d602081101561211e57600080fd5b81019080805190602001909291905050508460016002811061213c57fe5b602002019015159081151581525050600260009054906101000a900473ffffffffffffffffffffffffffffffffffffffff1673ffffffffffffffffffffffffffffffffffffffff166308acb5566040518060400160405280600a81526020017f474d5365747465724442000000000000000000000000000000000000000000008152508b60405160200180828152602001807f6372656174656454696d65000000000000000000000000000000000000000000815250600b01915050604051602081830303815290604052805190602001206040518363ffffffff1660e01b81526004018080602001838152602001828103825284818151815260200191508051906020019080838360005b83811015612263578082015181840152602081019050612248565b50505050905090810190601f1680156122905780820380516001836020036101000a031916815260200191505b50935050505060206040518083038186803b1580156122ae57600080fd5b505afa1580156122c2573d6000803e3d6000fd5b505050506040513d60208110156122d857600080fd5b81019080805190602001909291905050509250600260009054906101000a900473ffffffffffffffffffffffffffffffffffffffff1673ffffffffffffffffffffffffffffffffffffffff1663b93a5b5e6040518060400160405280600a81526020017f474d5365747465724442000000000000000000000000000000000000000000008152508b60405160200180828152602001807f77696e6e65720000000000000000000000000000000000000000000000000000815250600601915050604051602081830303815290604052805190602001206040518363ffffffff1660e01b81526004018080602001838152602001828103825284818151815260200191508051906020019080838360005b838110156124035780820151818401526020810190506123e8565b50505050905090810190601f1680156124305780820380516001836020036101000a031916815260200191505b50935050505060206040518083038186803b15801561244e57600080fd5b505afa158015612462573d6000803e3d6000fd5b505050506040513d602081101561247857600080fd5b8101908080519060200190929190505050915050919395979092949650565b6000809054906101000a900473ffffffffffffffffffffffffffffffffffffffff1673ffffffffffffffffffffffffffffffffffffffff163373ffffffffffffffffffffffffffffffffffffffff16146124ed57fe5b80600260006101000a81548173ffffffffffffffffffffffffffffffffffffffff021916908373ffffffffffffffffffffffffffffffffffffffff16021790555050565b600080600260009054906101000a900473ffffffffffffffffffffffffffffffffffffffff1673ffffffffffffffffffffffffffffffffffffffff166308acb5566040518060400160405280600a81526020017f474d5365747465724442000000000000000000000000000000000000000000008152508560405160200180828152602001807f746f74616c457468000000000000000000000000000000000000000000000000815250600801915050604051602081830303815290604052805190602001206040518363ffffffff1660e01b81526004018080602001838152602001828103825284818151815260200191508051906020019080838360005b8381101561264c578082015181840152602081019050612631565b50505050905090810190601f1680156126795780820380516001836020036101000a031916815260200191505b50935050505060206040518083038186803b15801561269757600080fd5b505afa1580156126ab573d6000803e3d6000fd5b505050506040513d60208110156126c157600080fd5b81019080805190602001909291905050509150600260009054906101000a900473ffffffffffffffffffffffffffffffffffffffff1673ffffffffffffffffffffffffffffffffffffffff166308acb5566040518060400160405280600a81526020017f474d5365747465724442000000000000000000000000000000000000000000008152508560405160200180828152602001807f746f74616c4b7479000000000000000000000000000000000000000000000000815250600801915050604051602081830303815290604052805190602001206040518363ffffffff1660e01b81526004018080602001838152602001828103825284818151815260200191508051906020019080838360005b838110156127ec5780820151818401526020810190506127d1565b50505050905090810190601f1680156128195780820380516001836020036101000a031916815260200191505b50935050505060206040518083038186803b15801561283757600080fd5b505afa15801561284b573d6000803e3d6000fd5b505050506040513d602081101561286157600080fd5b81019080805190602001909291905050509050915091565b600080600080612887615a04565b6000806000806128968a6114f3565b505091509150600260009054906101000a900473ffffffffffffffffffffffffffffffffffffffff1673ffffffffffffffffffffffffffffffffffffffff166308acb5566040518060400160405280600a81526020017f474d5365747465724442000000000000000000000000000000000000000000008152508c60405160200180828152602001807f686f6e6579706f74496400000000000000000000000000000000000000000000815250600a01915050604051602081830303815290604052805190602001206040518363ffffffff1660e01b81526004018080602001838152602001828103825284818151815260200191508051906020019080838360005b838110156129b4578082015181840152602081019050612999565b50505050905090810190601f1680156129e15780820380516001836020036101000a031916815260200191505b50935050505060206040518083038186803b1580156129ff57600080fd5b505afa158015612a13573d6000803e3d6000fd5b505050506040513d6020811015612a2957600080fd5b81019080805190602001909291905050509850600260009054906101000a900473ffffffffffffffffffffffffffffffffffffffff1673ffffffffffffffffffffffffffffffffffffffff166308acb5566040518060400160405280600a81526020017f474d5365747465724442000000000000000000000000000000000000000000008152508c60405160200180828152602001807f696e697469616c45746800000000000000000000000000000000000000000000815250600a01915050604051602081830303815290604052805190602001206040518363ffffffff1660e01b81526004018080602001838152602001828103825284818151815260200191508051906020019080838360005b83811015612b54578082015181840152602081019050612b39565b50505050905090810190601f168015612b815780820380516001836020036101000a031916815260200191505b50935050505060206040518083038186803b158015612b9f57600080fd5b505afa158015612bb3573d6000803e3d6000fd5b505050506040513d6020811015612bc957600080fd5b81019080805190602001909291905050509650600460009054906101000a900473ffffffffffffffffffffffffffffffffffffffff1673ffffffffffffffffffffffffffffffffffffffff1663d6f203098b6040518263ffffffff1660e01b815260040180828152602001915050604080518083038186803b158015612c4e57600080fd5b505afa158015612c62573d6000803e3d6000fd5b505050506040513d6040811015612c7857600080fd5b8101908080519060200190929190805190602001909291905050508097508195505050612ca58a83614712565b85600060028110612cb257fe5b602002018181525050612cc58a82614712565b85600160028110612cd257fe5b602002018181525050600460009054906101000a900473ffffffffffffffffffffffffffffffffffffffff1673ffffffffffffffffffffffffffffffffffffffff16636933bbd78b6040518263ffffffff1660e01b815260040180828152602001915050604080518083038186803b158015612d4d57600080fd5b505afa158015612d61573d6000803e3d6000fd5b505050506040513d6040811015612d7757600080fd5b81019080805190602001909291908051906020019092919050505080945081995050505050919395979092949650565b600080600080600260009054906101000a900473ffffffffffffffffffffffffffffffffffffffff1673ffffffffffffffffffffffffffffffffffffffff16638445d70f6040518060400160405280600a81526020017f474d536574746572444200000000000000000000000000000000000000000000815250886040518060400160405280600b81526020017f426574746f725461626c650000000000000000000000000000000000000000008152506040516020018083815260200182805190602001908083835b60208310612e945780518252602082019150602081019050602083039250612e71565b6001836020036101000a0380198251168184511680821785525050505050509050019250505060405160208183030381529060405280519060200120886040518463ffffffff1660e01b815260040180806020018481526020018373ffffffffffffffffffffffffffffffffffffffff1673ffffffffffffffffffffffffffffffffffffffff168152602001828103825285818151815260200191508051906020019080838360005b83811015612f58578082015181840152602081019050612f3d565b50505050905090810190601f168015612f855780820380516001836020036101000a031916815260200191505b5094505050505060206040518083038186803b158015612fa457600080fd5b505afa158015612fb8573d6000803e3d6000fd5b505050506040513d6020811015612fce57600080fd5b810190808051906020019092919050505093506000600260009054906101000a900473ffffffffffffffffffffffffffffffffffffffff1673ffffffffffffffffffffffffffffffffffffffff1663b93a5b5e6040518060400160405280600a81526020017f474d5365747465724442000000000000000000000000000000000000000000008152508989604051602001808381526020018273ffffffffffffffffffffffffffffffffffffffff1673ffffffffffffffffffffffffffffffffffffffff1660601b8152601401807f737570706f72746564506c617965720000000000000000000000000000000000815250600f0192505050604051602081830303815290604052805190602001206040518363ffffffff1660e01b81526004018080602001838152602001828103825284818151815260200191508051906020019080838360005b83811015613132578082015181840152602081019050613117565b50505050905090810190601f16801561315f5780820380516001836020036101000a031916815260200191505b50935050505060206040518083038186803b15801561317d57600080fd5b505afa158015613191573d6000803e3d6000fd5b505050506040513d60208110156131a757600080fd5b81019080805190602001909291905050509050600360009054906101000a900473ffffffffffffffffffffffffffffffffffffffff1673ffffffffffffffffffffffffffffffffffffffff1663f9ccbdf288836040518363ffffffff1660e01b8152600401808381526020018273ffffffffffffffffffffffffffffffffffffffff1673ffffffffffffffffffffffffffffffffffffffff1681526020019250505060206040518083038186803b15801561326157600080fd5b505afa158015613275573d6000803e3d6000fd5b505050506040513d602081101561328b57600080fd5b810190808051906020019092919050505093506132a88787615348565b9250600360009054906101000a900473ffffffffffffffffffffffffffffffffffffffff1673ffffffffffffffffffffffffffffffffffffffff1663f9ccbdf288886040518363ffffffff1660e01b8152600401808381526020018273ffffffffffffffffffffffffffffffffffffffff1673ffffffffffffffffffffffffffffffffffffffff1681526020019250505060206040518083038186803b15801561335157600080fd5b505afa158015613365573d6000803e3d6000fd5b505050506040513d602081101561337b57600080fd5b810190808051906020019092919050505091505092959194509250565b600460009054906101000a900473ffffffffffffffffffffffffffffffffffffffff1681565b60008060006133cd8585614fae565b9250600360009054906101000a900473ffffffffffffffffffffffffffffffffffffffff1673ffffffffffffffffffffffffffffffffffffffff1663f9ccbdf286866040518363ffffffff1660e01b8152600401808381526020018273ffffffffffffffffffffffffffffffffffffffff1673ffffffffffffffffffffffffffffffffffffffff1681526020019250505060206040518083038186803b15801561347657600080fd5b505afa15801561348a573d6000803e3d6000fd5b505050506040513d60208110156134a057600080fd5b810190808051906020019092919050505091506134bd8585614712565b90509250925092565b6000806000600260009054906101000a900473ffffffffffffffffffffffffffffffffffffffff1673ffffffffffffffffffffffffffffffffffffffff1663b93a5b5e6040518060400160405280600a81526020017f474d5365747465724442000000000000000000000000000000000000000000008152508660405160200180828152602001807f77696e6e65720000000000000000000000000000000000000000000000000000815250600601915050604051602081830303815290604052805190602001206040518363ffffffff1660e01b81526004018080602001838152602001828103825284818151815260200191508051906020019080838360005b838110156135e35780820151818401526020810190506135c8565b50505050905090810190601f1680156136105780820380516001836020036101000a031916815260200191505b50935050505060206040518083038186803b15801561362e57600080fd5b505afa158015613642573d6000803e3d6000fd5b505050506040513d602081101561365857600080fd5b81019080805190602001909291905050509250600260009054906101000a900473ffffffffffffffffffffffffffffffffffffffff1673ffffffffffffffffffffffffffffffffffffffff1663b93a5b5e6040518060400160405280600a81526020017f474d5365747465724442000000000000000000000000000000000000000000008152508660405160200180828152602001807f746f70426574746f720000000000000000000000000000000000000000000000815250600901915050604051602081830303815290604052805190602001206040518363ffffffff1660e01b81526004018080602001838152602001828103825284818151815260200191508051906020019080838360005b83811015613783578082015181840152602081019050613768565b50505050905090810190601f1680156137b05780820380516001836020036101000a031916815260200191505b50935050505060206040518083038186803b1580156137ce57600080fd5b505afa1580156137e2573d6000803e3d6000fd5b505050506040513d60208110156137f857600080fd5b81019080805190602001909291905050509150600260009054906101000a900473ffffffffffffffffffffffffffffffffffffffff1673ffffffffffffffffffffffffffffffffffffffff1663b93a5b5e6040518060400160405280600a81526020017f474d5365747465724442000000000000000000000000000000000000000000008152508660405160200180828152602001807f7365636f6e64546f70426574746f720000000000000000000000000000000000815250600f01915050604051602081830303815290604052805190602001206040518363ffffffff1660e01b81526004018080602001838152602001828103825284818151815260200191508051906020019080838360005b83811015613923578082015181840152602081019050613908565b50505050905090810190601f1680156139505780820380516001836020036101000a031916815260200191505b50935050505060206040518083038186803b15801561396e57600080fd5b505afa158015613982573d6000803e3d6000fd5b505050506040513d602081101561399857600080fd5b810190808051906020019092919050505090509193909250565b600080600160009054906101000a900473ffffffffffffffffffffffffffffffffffffffff1673ffffffffffffffffffffffffffffffffffffffff1663358177736040518060400160405280600881526020017f52656769737465720000000000000000000000000000000000000000000000008152506040518263ffffffff1660e01b81526004018080602001828103825283818151815260200191508051906020019080838360005b83811015613a78578082015181840152602081019050613a5d565b50505050905090810190601f168015613aa55780820380516001836020036101000a031916815260200191505b509250505060206040518083038186803b158015613ac257600080fd5b505afa158015613ad6573d6000803e3d6000fd5b505050506040513d6020811015613aec57600080fd5b810190808051906020019092919050505073ffffffffffffffffffffffffffffffffffffffff1663c3c5a547846040518263ffffffff1660e01b8152600401808273ffffffffffffffffffffffffffffffffffffffff1673ffffffffffffffffffffffffffffffffffffffff16815260200191505060206040518083038186803b158015613b7957600080fd5b505afa158015613b8d573d6000803e3d6000fd5b505050506040513d6020811015613ba357600080fd5b810190808051906020019092919050505091506000600160009054906101000a900473ffffffffffffffffffffffffffffffffffffffff1673ffffffffffffffffffffffffffffffffffffffff1663358177736040518060400160405280600981526020017f50726f66696c65444200000000000000000000000000000000000000000000008152506040518263ffffffff1660e01b81526004018080602001828103825283818151815260200191508051906020019080838360005b83811015613c7b578082015181840152602081019050613c60565b50505050905090810190601f168015613ca85780820380516001836020036101000a031916815260200191505b509250505060206040518083038186803b158015613cc557600080fd5b505afa158015613cd9573d6000803e3d6000fd5b505050506040513d6020811015613cef57600080fd5b810190808051906020019092919050505073ffffffffffffffffffffffffffffffffffffffff1663a984d640856040518263ffffffff1660e01b8152600401808273ffffffffffffffffffffffffffffffffffffffff1673ffffffffffffffffffffffffffffffffffffffff16815260200191505060206040518083038186803b158015613d7c57600080fd5b505afa158015613d90573d6000803e3d6000fd5b505050506040513d6020811015613da657600080fd5b8101908080519060200190929190505050905060008111915050915091565b6000809054906101000a900473ffffffffffffffffffffffffffffffffffffffff1673ffffffffffffffffffffffffffffffffffffffff163373ffffffffffffffffffffffffffffffffffffffff1614613e1b57fe5b600160009054906101000a900473ffffffffffffffffffffffffffffffffffffffff1673ffffffffffffffffffffffffffffffffffffffff1663358177736040518060400160405280600981526020017f47616d6553746f726500000000000000000000000000000000000000000000008152506040518263ffffffff1660e01b81526004018080602001828103825283818151815260200191508051906020019080838360005b83811015613ede578082015181840152602081019050613ec3565b50505050905090810190601f168015613f0b5780820380516001836020036101000a031916815260200191505b509250505060206040518083038186803b158015613f2857600080fd5b505afa158015613f3c573d6000803e3d6000fd5b505050506040513d6020811015613f5257600080fd5b8101908080519060200190929190505050600360006101000a81548173ffffffffffffffffffffffffffffffffffffffff021916908373ffffffffffffffffffffffffffffffffffffffff160217905550600160009054906101000a900473ffffffffffffffffffffffffffffffffffffffff1673ffffffffffffffffffffffffffffffffffffffff1663358177736040518060400160405280600b81526020017f456e646f776d656e7444420000000000000000000000000000000000000000008152506040518263ffffffff1660e01b81526004018080602001828103825283818151815260200191508051906020019080838360005b8381101561406657808201518184015260208101905061404b565b50505050905090810190601f1680156140935780820380516001836020036101000a031916815260200191505b509250505060206040518083038186803b1580156140b057600080fd5b505afa1580156140c4573d6000803e3d6000fd5b505050506040513d60208110156140da57600080fd5b8101908080519060200190929190505050600460006101000a81548173ffffffffffffffffffffffffffffffffffffffff021916908373ffffffffffffffffffffffffffffffffffffffff160217905550565b60008060008361413c816151a1565b61414557600080fd5b600260009054906101000a900473ffffffffffffffffffffffffffffffffffffffff1673ffffffffffffffffffffffffffffffffffffffff166308acb5566040518060400160405280600a81526020017f474d5365747465724442000000000000000000000000000000000000000000008152508760405160200180828152602001807f737461727454696d650000000000000000000000000000000000000000000000815250600901915050604051602081830303815290604052805190602001206040518363ffffffff1660e01b81526004018080602001838152602001828103825284818151815260200191508051906020019080838360005b8381101561425d578082015181840152602081019050614242565b50505050905090810190601f16801561428a5780820380516001836020036101000a031916815260200191505b50935050505060206040518083038186803b1580156142a857600080fd5b505afa1580156142bc573d6000803e3d6000fd5b505050506040513d60208110156142d257600080fd5b81019080805190602001909291905050509350600260009054906101000a900473ffffffffffffffffffffffffffffffffffffffff1673ffffffffffffffffffffffffffffffffffffffff166308acb5566040518060400160405280600a81526020017f474d5365747465724442000000000000000000000000000000000000000000008152508760405160200180828152602001807f707265737461727454696d650000000000000000000000000000000000000000815250600c01915050604051602081830303815290604052805190602001206040518363ffffffff1660e01b81526004018080602001838152602001828103825284818151815260200191508051906020019080838360005b838110156143fd5780820151818401526020810190506143e2565b50505050905090810190601f16801561442a5780820380516001836020036101000a031916815260200191505b50935050505060206040518083038186803b15801561444857600080fd5b505afa15801561445c573d6000803e3d6000fd5b505050506040513d602081101561447257600080fd5b81019080805190602001909291905050509250600260009054906101000a900473ffffffffffffffffffffffffffffffffffffffff1673ffffffffffffffffffffffffffffffffffffffff166308acb5566040518060400160405280600a81526020017f474d5365747465724442000000000000000000000000000000000000000000008152508760405160200180828152602001807f656e6454696d6500000000000000000000000000000000000000000000000000815250600701915050604051602081830303815290604052805190602001206040518363ffffffff1660e01b81526004018080602001838152602001828103825284818151815260200191508051906020019080838360005b8381101561459d578082015181840152602081019050614582565b50505050905090810190601f1680156145ca5780820380516001836020036101000a031916815260200191505b50935050505060206040518083038186803b1580156145e857600080fd5b505afa1580156145fc573d6000803e3d6000fd5b505050506040513d602081101561461257600080fd5b81019080805190602001909291905050509150509193909250565b6000809054906101000a900473ffffffffffffffffffffffffffffffffffffffff1681565b6000809054906101000a900473ffffffffffffffffffffffffffffffffffffffff1673ffffffffffffffffffffffffffffffffffffffff163373ffffffffffffffffffffffffffffffffffffffff16146146a857fe5b80600160006101000a81548173ffffffffffffffffffffffffffffffffffffffff021916908373ffffffffffffffffffffffffffffffffffffffff16021790555050565b600360009054906101000a900473ffffffffffffffffffffffffffffffffffffffff1681565b6000600260009054906101000a900473ffffffffffffffffffffffffffffffffffffffff1673ffffffffffffffffffffffffffffffffffffffff166308acb5566040518060400160405280600a81526020017f474d5365747465724442000000000000000000000000000000000000000000008152508585604051602001808381526020018273ffffffffffffffffffffffffffffffffffffffff1673ffffffffffffffffffffffffffffffffffffffff1660601b8152601401807f746f74616c426574416d6f756e74000000000000000000000000000000000000815250600e0192505050604051602081830303815290604052805190602001206040518363ffffffff1660e01b81526004018080602001838152602001828103825284818151815260200191508051906020019080838360005b83811015614863578082015181840152602081019050614848565b50505050905090810190601f1680156148905780820380516001836020036101000a031916815260200191505b50935050505060206040518083038186803b1580156148ae57600080fd5b505afa1580156148c2573d6000803e3d6000fd5b505050506040513d60208110156148d857600080fd5b8101908080519060200190929190505050905092915050565b6000806000806000806000600160009054906101000a900473ffffffffffffffffffffffffffffffffffffffff1673ffffffffffffffffffffffffffffffffffffffff1663358177736040518060400160405280600a81526020017f4b697474696548656c6c000000000000000000000000000000000000000000008152506040518263ffffffff1660e01b81526004018080602001828103825283818151815260200191508051906020019080838360005b838110156149bf5780820151818401526020810190506149a4565b50505050905090810190601f1680156149ec5780820380516001836020036101000a031916815260200191505b509250505060206040518083038186803b158015614a0957600080fd5b505afa158015614a1d573d6000803e3d6000fd5b505050506040513d6020811015614a3357600080fd5b810190808051906020019092919050505073ffffffffffffffffffffffffffffffffffffffff16636889364c896040518263ffffffff1660e01b81526004018082815260200191505060a06040518083038186803b158015614a9457600080fd5b505afa158015614aa8573d6000803e3d6000fd5b505050506040513d60a0811015614abe57600080fd5b810190808051906020019092919080519060200190929190805190602001909291908051906020019092919080519060200190929190505050909150809850819650829950839a5050505050614b1388611c28565b9050600081141591508515614be557614be2600360009054906101000a900473ffffffffffffffffffffffffffffffffffffffff1673ffffffffffffffffffffffffffffffffffffffff16633c38d0a9836040518263ffffffff1660e01b81526004018082815260200191505060206040518083038186803b158015614b9857600080fd5b505afa158015614bac573d6000803e3d6000fd5b505050506040513d6020811015614bc257600080fd5b8101908080519060200190929190505050866159c690919063ffffffff16565b93505b919395979092949650565b6000600260009054906101000a900473ffffffffffffffffffffffffffffffffffffffff1673ffffffffffffffffffffffffffffffffffffffff166308acb5566040518060400160405280600a81526020017f474d5365747465724442000000000000000000000000000000000000000000008152508585604051602001808381526020018273ffffffffffffffffffffffffffffffffffffffff1673ffffffffffffffffffffffffffffffffffffffff1660601b8152601401807f626574416d6f756e74000000000000000000000000000000000000000000000081525060090192505050604051602081830303815290604052805190602001206040518363ffffffff1660e01b81526004018080602001838152602001828103825284818151815260200191508051906020019080838360005b83811015614d41578082015181840152602081019050614d26565b50505050905090810190601f168015614d6e5780820380516001836020036101000a031916815260200191505b50935050505060206040518083038186803b158015614d8c57600080fd5b505afa158015614da0573d6000803e3d6000fd5b505050506040513d6020811015614db657600080fd5b8101908080519060200190929190505050905092915050565b6000600260009054906101000a900473ffffffffffffffffffffffffffffffffffffffff1673ffffffffffffffffffffffffffffffffffffffff166308acb5566040518060400160405280600a81526020017f474d5365747465724442000000000000000000000000000000000000000000008152508585604051602001808381526020018273ffffffffffffffffffffffffffffffffffffffff1673ffffffffffffffffffffffffffffffffffffffff1660601b8152601401807f737570706f727465727300000000000000000000000000000000000000000000815250600a0192505050604051602081830303815290604052805190602001206040518363ffffffff1660e01b81526004018080602001838152602001828103825284818151815260200191508051906020019080838360005b83811015614f20578082015181840152602081019050614f05565b50505050905090810190601f168015614f4d5780820380516001836020036101000a031916815260200191505b50935050505060206040518083038186803b158015614f6b57600080fd5b505afa158015614f7f573d6000803e3d6000fd5b505050506040513d6020811015614f9557600080fd5b8101908080519060200190929190505050905092915050565b600082614fba816151a1565b614fc357600080fd5b600260009054906101000a900473ffffffffffffffffffffffffffffffffffffffff1673ffffffffffffffffffffffffffffffffffffffff166308acb5566040518060400160405280600a81526020017f474d5365747465724442000000000000000000000000000000000000000000008152508686604051602001808381526020018273ffffffffffffffffffffffffffffffffffffffff1673ffffffffffffffffffffffffffffffffffffffff1660601b8152601401807f6b6974747900000000000000000000000000000000000000000000000000000081525060050192505050604051602081830303815290604052805190602001206040518363ffffffff1660e01b81526004018080602001838152602001828103825284818151815260200191508051906020019080838360005b838110156151125780820151818401526020810190506150f7565b50505050905090810190601f16801561513f5780820380516001836020036101000a031916815260200191505b50935050505060206040518083038186803b15801561515d57600080fd5b505afa158015615171573d6000803e3d6000fd5b505050506040513d602081101561518757600080fd5b810190808051906020019092919050505091505092915050565b6000600260009054906101000a900473ffffffffffffffffffffffffffffffffffffffff1673ffffffffffffffffffffffffffffffffffffffff166396edc0096040518060400160405280600a81526020017f474d53657474657244420000000000000000000000000000000000000000000081525060405160200180807f47616d655461626c650000000000000000000000000000000000000000000000815250600901905060405160208183030381529060405280519060200120856040518463ffffffff1660e01b81526004018080602001848152602001838152602001828103825285818151815260200191508051906020019080838360005b838110156152ba57808201518184015260208101905061529f565b50505050905090810190601f1680156152e75780820380516001836020036101000a031916815260200191505b5094505050505060206040518083038186803b15801561530657600080fd5b505afa15801561531a573d6000803e3d6000fd5b505050506040513d602081101561533057600080fd5b81019080805190602001909291905050509050919050565b600080600260009054906101000a900473ffffffffffffffffffffffffffffffffffffffff1673ffffffffffffffffffffffffffffffffffffffff1663b93a5b5e6040518060400160405280600a81526020017f474d5365747465724442000000000000000000000000000000000000000000008152508660405160200180828152602001807f706c617965725265640000000000000000000000000000000000000000000000815250600901915050604051602081830303815290604052805190602001206040518363ffffffff1660e01b81526004018080602001838152602001828103825284818151815260200191508051906020019080838360005b83811015615463578082015181840152602081019050615448565b50505050905090810190601f1680156154905780820380516001836020036101000a031916815260200191505b50935050505060206040518083038186803b1580156154ae57600080fd5b505afa1580156154c2573d6000803e3d6000fd5b505050506040513d60208110156154d857600080fd5b810190808051906020019092919050505090508073ffffffffffffffffffffffffffffffffffffffff168373ffffffffffffffffffffffffffffffffffffffff161415615529576001915050615711565b6000600260009054906101000a900473ffffffffffffffffffffffffffffffffffffffff1673ffffffffffffffffffffffffffffffffffffffff1663b93a5b5e6040518060400160405280600a81526020017f474d5365747465724442000000000000000000000000000000000000000000008152508760405160200180828152602001807f706c61796572426c61636b000000000000000000000000000000000000000000815250600b01915050604051602081830303815290604052805190602001206040518363ffffffff1660e01b81526004018080602001838152602001828103825284818151815260200191508051906020019080838360005b83811015615643578082015181840152602081019050615628565b50505050905090810190601f1680156156705780820380516001836020036101000a031916815260200191505b50935050505060206040518083038186803b15801561568e57600080fd5b505afa1580156156a2573d6000803e3d6000fd5b505050506040513d60208110156156b857600080fd5b810190808051906020019092919050505090508073ffffffffffffffffffffffffffffffffffffffff168473ffffffffffffffffffffffffffffffffffffffff16141561570a57600192505050615711565b6000925050505b92915050565b600160009054906101000a900473ffffffffffffffffffffffffffffffffffffffff1681565b6000809054906101000a900473ffffffffffffffffffffffffffffffffffffffff1673ffffffffffffffffffffffffffffffffffffffff163373ffffffffffffffffffffffffffffffffffffffff161461579357fe5b600073ffffffffffffffffffffffffffffffffffffffff168173ffffffffffffffffffffffffffffffffffffffff161461580857806000806101000a81548173ffffffffffffffffffffffffffffffffffffffff021916908373ffffffffffffffffffffffffffffffffffffffff1602179055505b50565b600081615817816151a1565b61582057600080fd5b600260009054906101000a900473ffffffffffffffffffffffffffffffffffffffff1673ffffffffffffffffffffffffffffffffffffffff166308acb5566040518060400160405280600a81526020017f474d5365747465724442000000000000000000000000000000000000000000008152508560405160200180828152602001807f7374617465000000000000000000000000000000000000000000000000000000815250600501915050604051602081830303815290604052805190602001206040518363ffffffff1660e01b81526004018080602001838152602001828103825284818151815260200191508051906020019080838360005b8381101561593857808201518184015260208101905061591d565b50505050905090810190601f1680156159655780820380516001836020036101000a031916815260200191505b50935050505060206040518083038186803b15801561598357600080fd5b505afa158015615997573d6000803e3d6000fd5b505050506040513d60208110156159ad57600080fd5b8101908080519060200190929190505050915050919050565b6000808284019050838110156159d857fe5b8091505092915050565b6040518060400160405280600290602082028038833980820191505090505090565b6040518060400160405280600290602082028038833980820191505090505090565b604051806040016040528060029060208202803883398082019150509050509056fea265627a7a72315820a4d9470a73394494a6ef200696e9266ff649318d4a2ac0194f9230afbf4f945f64736f6c634300050b0032",
  "source": "// This program is free software: you can redistribute it and/or modify\r\n// it under the terms of the GNU General Public License as published by\r\n// the Free Software Foundation, either version 3 of the License, or\r\n// (at your option) any later version.\r\n\r\n// This program is distributed in the hope that it will be useful,\r\n// but WITHOUT ANY WARRANTY; without even the implied warranty of\r\n// MERCHANTABILITY or FITNESS FOR A PARTICULAR PURPOSE.  See the\r\n// GNU General Public License for more details.\r\n\r\n// You should have received a copy of the GNU General Public License\r\n// along with this program.  If not, see <http://www.gnu.org/licenses/>.\r\n\r\npragma solidity ^0.5.5;\r\n\r\nimport \"../proxy/Proxied.sol\";\r\nimport \"./GenericDB.sol\";\r\nimport \"../../libs/SafeMath.sol\";\r\nimport \"../gamemanager/GameStore.sol\";\r\nimport \"./EndowmentDB.sol\";\r\nimport \"./ProfileDB.sol\";\r\nimport \"../registration/Register.sol\";\r\nimport \"../kittieHELL/KittieHell.sol\";\r\nimport \"../endowment/EndowmentFund.sol\";\r\n\r\n/**\r\n * @dev Getters for game instances\r\n * @author @psychoplasma\r\n */\r\ncontract GMGetterDB is Proxied {\r\n\r\n using SafeMath for uint256;\r\n\r\n  GenericDB public genericDB;\r\n  GameStore public gameStore;\r\n  EndowmentDB public endowmentDB;\r\n\r\n  bytes32 internal constant TABLE_KEY_GAME= keccak256(abi.encodePacked(\"GameTable\"));\r\n  string internal constant TABLE_NAME_BETTOR = \"BettorTable\";\r\n\r\n  modifier onlyExistentGame(uint256 gameId) {\r\n    require(doesGameExist(gameId));\r\n    _;\r\n  }\r\n  \r\n  constructor(GenericDB _genericDB) public {\r\n    setGenericDB(_genericDB);\r\n  }\r\n\r\n  function setGenericDB(GenericDB _genericDB) public onlyOwner {\r\n    genericDB = _genericDB;\r\n  }\r\n\r\n  function initialize() external onlyOwner {\r\n    gameStore = GameStore(proxy.getContract(CONTRACT_NAME_GAMESTORE));\r\n    endowmentDB = EndowmentDB(proxy.getContract(CONTRACT_NAME_ENDOWMENT_DB));\r\n  }\r\n\r\n  /**\r\n   * @dev get amount of supporters for given game and player\r\n   */\r\n  function getSupporters(uint256 gameId, address player)\r\n    public view\r\n    returns (uint)\r\n  {\r\n    return genericDB.getUintStorage(\r\n      CONTRACT_NAME_GM_SETTER_DB,\r\n      keccak256(abi.encodePacked(gameId, player, \"supporters\"))\r\n    );\r\n  }\r\n\r\n   /**\r\n   * @dev Updates the total amount of bet in the given game and supported player\r\n   */\r\n  function getTotalBet(uint256 gameId, address supportedPlayer) public view returns(uint) {\r\n    return genericDB.getUintStorage(\r\n      CONTRACT_NAME_GM_SETTER_DB,\r\n      keccak256(abi.encodePacked(gameId, supportedPlayer, \"totalBetAmount\"))\r\n    );\r\n  }\r\n\r\n  function getGamePlayers(uint256 gameId)\r\n    public view\r\n    onlyExistentGame(gameId)\r\n    returns (address playerBlack, address playerRed, uint256 kittyBlack, uint256 kittyRed)\r\n  {\r\n    playerBlack = genericDB.getAddressStorage(CONTRACT_NAME_GM_SETTER_DB, keccak256(abi.encodePacked(gameId, \"playerBlack\")));\r\n    playerRed = genericDB.getAddressStorage(CONTRACT_NAME_GM_SETTER_DB, keccak256(abi.encodePacked(gameId, \"playerRed\")));\r\n    kittyBlack = genericDB.getUintStorage(CONTRACT_NAME_GM_SETTER_DB, keccak256(abi.encodePacked(gameId, playerBlack, \"kitty\")));\r\n    kittyRed = genericDB.getUintStorage(CONTRACT_NAME_GM_SETTER_DB, keccak256(abi.encodePacked(gameId, playerRed, \"kitty\")));\r\n  \r\n  }\r\n\r\n /**\r\n   * @dev check game state, 0-4\r\n   */\r\n  function getGameState(uint256 gameId)\r\n    public view\r\n    onlyExistentGame(gameId)\r\n    returns (uint gameState)\r\n  {\r\n    return genericDB.getUintStorage(CONTRACT_NAME_GM_SETTER_DB, keccak256(abi.encodePacked(gameId, \"state\")));\r\n  }\r\n\r\n  /**\r\n   * @dev get fighting kittyId for specific game and player\r\n   */\r\n  function getKittieInGame(uint256 gameId, address player)\r\n    public view\r\n    onlyExistentGame(gameId)\r\n    returns (uint)\r\n  {\r\n    return genericDB.getUintStorage(CONTRACT_NAME_GM_SETTER_DB, keccak256(abi.encodePacked(gameId, player, \"kitty\")));\r\n  }\r\n\r\n  /**\r\n   * @dev ?\r\n   */\r\n  function getGameTimes(uint256 gameId)\r\n    public view\r\n    onlyExistentGame(gameId)\r\n    returns (uint startTime, uint preStartTime, uint endTime)\r\n  {\r\n    startTime = genericDB.getUintStorage(CONTRACT_NAME_GM_SETTER_DB, keccak256(abi.encodePacked(gameId, \"startTime\")));\r\n    preStartTime = genericDB.getUintStorage(CONTRACT_NAME_GM_SETTER_DB, keccak256(abi.encodePacked(gameId, \"prestartTime\")));\r\n    endTime = genericDB.getUintStorage(CONTRACT_NAME_GM_SETTER_DB, keccak256(abi.encodePacked(gameId, \"endTime\")));\r\n  }\r\n  \r\n  /**\r\n   * @dev Checks whether the given player is playing in the given game.\r\n   */\r\n  function isPlayer(uint256 gameId, address player) public view returns (bool) {\r\n    address playerRed = genericDB.getAddressStorage(CONTRACT_NAME_GM_SETTER_DB, keccak256(abi.encodePacked(gameId, \"playerRed\")));\r\n    if (player == playerRed) {\r\n      return true;\r\n    }\r\n\r\n    address playerBlack = genericDB.getAddressStorage(CONTRACT_NAME_GM_SETTER_DB, keccak256(abi.encodePacked(gameId, \"playerBlack\")));\r\n    if (player == playerBlack) {\r\n      return true;\r\n    }\r\n\r\n    return false;\r\n  }\r\n\r\n  function doesGameExist(uint256 gameId) public view returns (bool) {\r\n    return genericDB.doesNodeExist(CONTRACT_NAME_GM_SETTER_DB, TABLE_KEY_GAME, gameId);\r\n  }\r\n\r\n  function getGameOfKittie(uint kittieId) public view returns(uint){\r\n    return genericDB.getUintStorage(CONTRACT_NAME_GM_SETTER_DB, keccak256(abi.encodePacked(kittieId, \"playingGame\")));\r\n  }\r\n\r\n  function getFinalHoneypot(uint256 gameId)\r\n    public view\r\n    returns(uint totalEth, uint totalKty )\r\n  {\r\n    totalEth = genericDB.getUintStorage(CONTRACT_NAME_GM_SETTER_DB, keccak256(abi.encodePacked(gameId, \"totalEth\")));\r\n    totalKty = genericDB.getUintStorage(CONTRACT_NAME_GM_SETTER_DB, keccak256(abi.encodePacked(gameId, \"totalKty\")));\r\n  }\r\n\r\n  function getPlayerBet(uint gameId, address player)\r\n  public view\r\n  returns(uint playerBet)\r\n  {\r\n    playerBet = genericDB.getUintStorage(\r\n      CONTRACT_NAME_GM_SETTER_DB,\r\n      keccak256(abi.encodePacked(gameId, player, \"betAmount\"))\r\n    );\r\n  }\r\n\r\n  // === FRONTEND GETTERS ===\r\n  function getFighterByKittieID(uint256 kittieId)\r\n    public view\r\n    returns (address owner, bool isDead, uint deathTime, uint kittieHellExp, bool isGhost, bool isPlaying, uint gameId)\r\n  {\r\n    (owner, isDead,, isGhost, deathTime) = KittieHell(proxy.getContract(CONTRACT_NAME_KITTIEHELL)).getKittyStatus(kittieId);\r\n    gameId = getGameOfKittie(kittieId);\r\n    //If gameId is 0 is not playing, otherwise, it is.\r\n    isPlaying = (gameId != 0);\r\n    if(isDead) kittieHellExp = deathTime.add(gameStore.getKittieExpirationTime(gameId));\r\n  }\r\n\r\n  /**\r\n   * @dev Returns the total amount of bet of the given bettor\r\n   * and the player supported by that bettor in the game given.\r\n   */\r\n  function getSupporterInfo(uint256 gameId, address bettor)\r\n    public view\r\n    returns (uint256 betAmount, address supportedPlayer, bool ticketFeePaid, bool hasClaimed)\r\n  {\r\n    betAmount = genericDB.getUintStorage(\r\n      CONTRACT_NAME_GM_SETTER_DB,\r\n      keccak256(abi.encodePacked(gameId, bettor, \"betAmount\"))\r\n    );\r\n    supportedPlayer = genericDB.getAddressStorage(\r\n      CONTRACT_NAME_GM_SETTER_DB,\r\n      keccak256(abi.encodePacked(gameId, bettor, \"supportedPlayer\"))\r\n    );\r\n\r\n    ticketFeePaid = genericDB.getBoolStorage(CONTRACT_NAME_GM_SETTER_DB, keccak256(abi.encodePacked(gameId, bettor, \"ticketFeePaid\")));\r\n    hasClaimed = EndowmentFund(proxy.getContract(CONTRACT_NAME_ENDOWMENT_FUND)).getWithdrawalState(gameId, bettor);\r\n  }\r\n\r\n  /**\r\n   * @dev Returns players, fighter kitties' ids,\r\n   * total amount of bet and the timestamp of creation of this game.\r\n   */\r\n  function getGameInfo(uint256 gameId)\r\n    public view\r\n    onlyExistentGame(gameId)\r\n    returns (address[2] memory players, uint[2] memory kittieIds, uint state,\r\n      uint[2] memory supporters, bool[2] memory pressedStart, uint timeCreated, address winner)\r\n  {\r\n    (players[0], players[1], kittieIds[0], kittieIds[1]) = getGamePlayers(gameId);\r\n    state = getGameState(gameId);\r\n    supporters[0] = getSupporters(gameId, players[0]);\r\n    supporters[1] = getSupporters(gameId, players[1]);\r\n    pressedStart[0] = gameStore.didHitStart(gameId, players[0]);\r\n    pressedStart[1] = gameStore.didHitStart(gameId, players[1]);\r\n    timeCreated = genericDB.getUintStorage(CONTRACT_NAME_GM_SETTER_DB, keccak256(abi.encodePacked(gameId, \"createdTime\")));\r\n    winner = genericDB.getAddressStorage(CONTRACT_NAME_GM_SETTER_DB, keccak256(abi.encodePacked(gameId, \"winner\")));\r\n  }\r\n\r\n  function getHoneypotInfo(uint256 gameId)\r\n    public view\r\n    returns(uint honeypotId, uint status, uint initialEth, uint ethTotal, uint[2] memory ethByCorner, uint ktyTotal, uint expTime)\r\n  {\r\n    (address playerBlack, address playerRed,,) = getGamePlayers(gameId);\r\n    honeypotId = genericDB.getUintStorage(CONTRACT_NAME_GM_SETTER_DB, keccak256(abi.encodePacked(gameId, \"honeypotId\")));\r\n    initialEth = genericDB.getUintStorage(CONTRACT_NAME_GM_SETTER_DB, keccak256(abi.encodePacked(gameId, \"initialEth\")));\r\n    (ktyTotal, ethTotal) = endowmentDB.getHoneyPotBalance(gameId);\r\n    ethByCorner[0] = getTotalBet(gameId, playerBlack);\r\n    ethByCorner[1] = getTotalBet(gameId, playerRed);\r\n    (status, expTime) = endowmentDB.getHoneypotState(gameId);\r\n  }\r\n\r\n  function getMyInfo(uint256 gameId, address sender)\r\n    public view\r\n    returns(bool isSupporter, uint supportedCorner, bool isPlayerInGame, uint corner)\r\n  {\r\n    isSupporter = genericDB.doesNodeAddrExist(CONTRACT_NAME_GM_SETTER_DB, keccak256(abi.encodePacked(gameId, TABLE_NAME_BETTOR)), sender);\r\n    address supportedPlayer = genericDB.getAddressStorage(\r\n      CONTRACT_NAME_GM_SETTER_DB, keccak256(abi.encodePacked(gameId, sender, \"supportedPlayer\")));\r\n    supportedCorner = gameStore.getCorner(gameId, supportedPlayer);\r\n    isPlayerInGame = isPlayer(gameId, sender);\r\n    corner = gameStore.getCorner(gameId, sender);\r\n  }\r\n\r\n  function getPlayer(uint gameId, address player)\r\n    public view\r\n    returns(uint kittieId, uint corner, uint betsTotalEth)\r\n  {\r\n    kittieId = getKittieInGame(gameId, player);\r\n    corner = gameStore.getCorner(gameId, player);\r\n    betsTotalEth = getTotalBet(gameId, player);\r\n  }\r\n\r\n  function getWinners(uint256 gameId)\r\n    public view\r\n    returns (address winner, address topBettor, address secondTopBettor)\r\n  {\r\n    winner = genericDB.getAddressStorage(CONTRACT_NAME_GM_SETTER_DB,keccak256(abi.encodePacked(gameId, \"winner\")));\r\n    topBettor = genericDB.getAddressStorage(CONTRACT_NAME_GM_SETTER_DB,keccak256(abi.encodePacked(gameId, \"topBettor\")));\r\n    secondTopBettor = genericDB.getAddressStorage(CONTRACT_NAME_GM_SETTER_DB,keccak256(abi.encodePacked(gameId, \"secondTopBettor\")));\r\n  }\r\n\r\n  function getAccountInfo(address account)\r\n    public view\r\n    returns(bool isRegistered, bool isVerified)\r\n  {\r\n    isRegistered = Register(proxy.getContract(CONTRACT_NAME_REGISTER)).isRegistered(account);\r\n    uint civicId = ProfileDB(proxy.getContract(CONTRACT_NAME_PROFILE_DB)).getCivicId(account);\r\n    isVerified = civicId > 0;\r\n  }\r\n\r\n}\r\n",
  "sourcePath": "C:\\Users\\Alex\\Desktop\\Upwork\\alpha\\contracts\\modules\\databases\\GMGetterDB.sol",
  "compiler": {
    "name": "solc",
    "version": "0.5.11+commit.c082d0b4.Emscripten.clang"
  },
  "schemaVersion": "3.0.11",
  "updatedAt": "2019-09-15T17:40:41.498Z",
  "devdoc": {
    "author": "@psychoplasma\r",
    "details": "Getters for game instances\r",
    "methods": {
      "getGameInfo(uint256)": {
        "details": "Returns players, fighter kitties' ids,\r total amount of bet and the timestamp of creation of this game.\r"
      },
      "getGameState(uint256)": {
        "details": "check game state, 0-4\r"
      },
      "getGameTimes(uint256)": {
        "details": "?\r"
      },
      "getKittieInGame(uint256,address)": {
        "details": "get fighting kittyId for specific game and player\r"
      },
      "getSupporterInfo(uint256,address)": {
        "details": "Returns the total amount of bet of the given bettor\r and the player supported by that bettor in the game given.\r"
      },
      "getSupporters(uint256,address)": {
        "details": "get amount of supporters for given game and player\r"
      },
      "getTotalBet(uint256,address)": {
        "details": "Updates the total amount of bet in the given game and supported player\r"
      },
      "isPlayer(uint256,address)": {
        "details": "Checks whether the given player is playing in the given game.\r"
      }
    }
  },
  "userdoc": {
    "methods": {
      "setProxy(address)": {
        "notice": "Set/update address of Proxy contract\r"
      }
    }
  }
}