{
  "contractName": "GMGetterDB",
  "abi": [
    {
      "constant": true,
      "inputs": [],
      "name": "genericDB",
      "outputs": [
        {
          "internalType": "contract GenericDB",
          "name": "",
          "type": "address"
        }
      ],
      "payable": false,
      "stateMutability": "view",
      "type": "function"
    },
    {
      "constant": true,
      "inputs": [],
      "name": "endowmentDB",
      "outputs": [
        {
          "internalType": "contract EndowmentDB",
          "name": "",
          "type": "address"
        }
      ],
      "payable": false,
      "stateMutability": "view",
      "type": "function"
    },
    {
      "constant": true,
      "inputs": [],
      "name": "owner",
      "outputs": [
        {
          "internalType": "address payable",
          "name": "",
          "type": "address"
        }
      ],
      "payable": false,
      "stateMutability": "view",
      "type": "function"
    },
    {
      "constant": false,
      "inputs": [
        {
          "internalType": "contract ProxyBase",
          "name": "_proxy",
          "type": "address"
        }
      ],
      "name": "setProxy",
      "outputs": [],
      "payable": false,
      "stateMutability": "nonpayable",
      "type": "function"
    },
    {
      "constant": true,
      "inputs": [],
      "name": "gameStore",
      "outputs": [
        {
          "internalType": "contract GameStore",
          "name": "",
          "type": "address"
        }
      ],
      "payable": false,
      "stateMutability": "view",
      "type": "function"
    },
    {
      "constant": true,
      "inputs": [],
      "name": "proxy",
      "outputs": [
        {
          "internalType": "contract ProxyBase",
          "name": "",
          "type": "address"
        }
      ],
      "payable": false,
      "stateMutability": "view",
      "type": "function"
    },
    {
      "constant": false,
      "inputs": [
        {
          "internalType": "address payable",
          "name": "newOwner",
          "type": "address"
        }
      ],
      "name": "transferOwnership",
      "outputs": [],
      "payable": false,
      "stateMutability": "nonpayable",
      "type": "function"
    },
    {
      "inputs": [
        {
          "internalType": "contract GenericDB",
          "name": "_genericDB",
          "type": "address"
        }
      ],
      "payable": false,
      "stateMutability": "nonpayable",
      "type": "constructor"
    },
    {
      "constant": false,
      "inputs": [
        {
          "internalType": "contract GenericDB",
          "name": "_genericDB",
          "type": "address"
        }
      ],
      "name": "setGenericDB",
      "outputs": [],
      "payable": false,
      "stateMutability": "nonpayable",
      "type": "function"
    },
    {
      "constant": false,
      "inputs": [],
      "name": "initialize",
      "outputs": [],
      "payable": false,
      "stateMutability": "nonpayable",
      "type": "function"
    },
    {
      "constant": true,
      "inputs": [
        {
          "internalType": "uint256",
          "name": "gameId",
          "type": "uint256"
        },
        {
          "internalType": "address",
          "name": "player",
          "type": "address"
        }
      ],
      "name": "getSupporters",
      "outputs": [
        {
          "internalType": "uint256",
          "name": "",
          "type": "uint256"
        }
      ],
      "payable": false,
      "stateMutability": "view",
      "type": "function"
    },
    {
      "constant": true,
      "inputs": [
        {
          "internalType": "uint256",
          "name": "gameId",
          "type": "uint256"
        },
        {
          "internalType": "address",
          "name": "supportedPlayer",
          "type": "address"
        }
      ],
      "name": "getTotalBet",
      "outputs": [
        {
          "internalType": "uint256",
          "name": "",
          "type": "uint256"
        }
      ],
      "payable": false,
      "stateMutability": "view",
      "type": "function"
    },
    {
      "constant": true,
      "inputs": [
        {
          "internalType": "uint256",
          "name": "gameId",
          "type": "uint256"
        }
      ],
      "name": "getGamePlayers",
      "outputs": [
        {
          "internalType": "address",
          "name": "playerBlack",
          "type": "address"
        },
        {
          "internalType": "address",
          "name": "playerRed",
          "type": "address"
        },
        {
          "internalType": "uint256",
          "name": "kittyBlack",
          "type": "uint256"
        },
        {
          "internalType": "uint256",
          "name": "kittyRed",
          "type": "uint256"
        }
      ],
      "payable": false,
      "stateMutability": "view",
      "type": "function"
    },
    {
      "constant": true,
      "inputs": [
        {
          "internalType": "uint256",
          "name": "gameId",
          "type": "uint256"
        }
      ],
      "name": "getGameState",
      "outputs": [
        {
          "internalType": "uint256",
          "name": "gameState",
          "type": "uint256"
        }
      ],
      "payable": false,
      "stateMutability": "view",
      "type": "function"
    },
    {
      "constant": true,
      "inputs": [
        {
          "internalType": "uint256",
          "name": "gameId",
          "type": "uint256"
        },
        {
          "internalType": "address",
          "name": "player",
          "type": "address"
        }
      ],
      "name": "getKittieInGame",
      "outputs": [
        {
          "internalType": "uint256",
          "name": "",
          "type": "uint256"
        }
      ],
      "payable": false,
      "stateMutability": "view",
      "type": "function"
    },
    {
      "constant": true,
      "inputs": [
        {
          "internalType": "uint256",
          "name": "gameId",
          "type": "uint256"
        }
      ],
      "name": "getGameTimes",
      "outputs": [
        {
          "internalType": "uint256",
          "name": "startTime",
          "type": "uint256"
        },
        {
          "internalType": "uint256",
          "name": "preStartTime",
          "type": "uint256"
        },
        {
          "internalType": "uint256",
          "name": "endTime",
          "type": "uint256"
        }
      ],
      "payable": false,
      "stateMutability": "view",
      "type": "function"
    },
    {
      "constant": true,
      "inputs": [
        {
          "internalType": "uint256",
          "name": "gameId",
          "type": "uint256"
        },
        {
          "internalType": "address",
          "name": "player",
          "type": "address"
        }
      ],
      "name": "isPlayer",
      "outputs": [
        {
          "internalType": "bool",
          "name": "",
          "type": "bool"
        }
      ],
      "payable": false,
      "stateMutability": "view",
      "type": "function"
    },
    {
      "constant": true,
      "inputs": [
        {
          "internalType": "uint256",
          "name": "gameId",
          "type": "uint256"
        }
      ],
      "name": "doesGameExist",
      "outputs": [
        {
          "internalType": "bool",
          "name": "",
          "type": "bool"
        }
      ],
      "payable": false,
      "stateMutability": "view",
      "type": "function"
    },
    {
      "constant": true,
      "inputs": [
        {
          "internalType": "uint256",
          "name": "kittieId",
          "type": "uint256"
        }
      ],
      "name": "getGameOfKittie",
      "outputs": [
        {
          "internalType": "uint256",
          "name": "",
          "type": "uint256"
        }
      ],
      "payable": false,
      "stateMutability": "view",
      "type": "function"
    },
    {
      "constant": true,
      "inputs": [
        {
          "internalType": "uint256",
          "name": "gameId",
          "type": "uint256"
        }
      ],
      "name": "getFinalHoneypot",
      "outputs": [
        {
          "internalType": "uint256",
          "name": "totalEth",
          "type": "uint256"
        },
        {
          "internalType": "uint256",
          "name": "totalKty",
          "type": "uint256"
        }
      ],
      "payable": false,
      "stateMutability": "view",
      "type": "function"
    },
    {
      "constant": true,
      "inputs": [
        {
          "internalType": "uint256",
          "name": "kittieId",
          "type": "uint256"
        }
      ],
      "name": "getFighterByKittieID",
      "outputs": [
        {
          "internalType": "address",
          "name": "owner",
          "type": "address"
        },
        {
          "internalType": "bool",
          "name": "isDead",
          "type": "bool"
        },
        {
          "internalType": "uint256",
          "name": "deathTime",
          "type": "uint256"
        },
        {
          "internalType": "uint256",
          "name": "kittieHellExp",
          "type": "uint256"
        },
        {
          "internalType": "bool",
          "name": "isGhost",
          "type": "bool"
        },
        {
          "internalType": "bool",
          "name": "isPlaying",
          "type": "bool"
        },
        {
          "internalType": "uint256",
          "name": "gameId",
          "type": "uint256"
        }
      ],
      "payable": false,
      "stateMutability": "view",
      "type": "function"
    },
    {
      "constant": true,
      "inputs": [
        {
          "internalType": "uint256",
          "name": "gameId",
          "type": "uint256"
        },
        {
          "internalType": "address",
          "name": "bettor",
          "type": "address"
        }
      ],
      "name": "getSupporterInfo",
      "outputs": [
        {
          "internalType": "uint256",
          "name": "betAmount",
          "type": "uint256"
        },
        {
          "internalType": "address",
          "name": "supportedPlayer",
          "type": "address"
        },
        {
          "internalType": "bool",
          "name": "ticketFeePaid",
          "type": "bool"
        },
        {
          "internalType": "bool",
          "name": "hasClaimed",
          "type": "bool"
        }
      ],
      "payable": false,
      "stateMutability": "view",
      "type": "function"
    },
    {
      "constant": true,
      "inputs": [
        {
          "internalType": "uint256",
          "name": "gameId",
          "type": "uint256"
        }
      ],
      "name": "getGameInfo",
      "outputs": [
        {
          "internalType": "address[2]",
          "name": "players",
          "type": "address[2]"
        },
        {
          "internalType": "uint256[2]",
          "name": "kittieIds",
          "type": "uint256[2]"
        },
        {
          "internalType": "uint256",
          "name": "state",
          "type": "uint256"
        },
        {
          "internalType": "uint256[2]",
          "name": "supporters",
          "type": "uint256[2]"
        },
        {
          "internalType": "bool[2]",
          "name": "pressedStart",
          "type": "bool[2]"
        },
        {
          "internalType": "uint256",
          "name": "timeCreated",
          "type": "uint256"
        },
        {
          "internalType": "address",
          "name": "winner",
          "type": "address"
        }
      ],
      "payable": false,
      "stateMutability": "view",
      "type": "function"
    },
    {
      "constant": true,
      "inputs": [
        {
          "internalType": "uint256",
          "name": "gameId",
          "type": "uint256"
        }
      ],
      "name": "getHoneypotInfo",
      "outputs": [
        {
          "internalType": "uint256",
          "name": "honeypotId",
          "type": "uint256"
        },
        {
          "internalType": "uint256",
          "name": "status",
          "type": "uint256"
        },
        {
          "internalType": "uint256",
          "name": "initialEth",
          "type": "uint256"
        },
        {
          "internalType": "uint256",
          "name": "ethTotal",
          "type": "uint256"
        },
        {
          "internalType": "uint256[2]",
          "name": "ethByCorner",
          "type": "uint256[2]"
        },
        {
          "internalType": "uint256",
          "name": "ktyTotal",
          "type": "uint256"
        },
        {
          "internalType": "uint256",
          "name": "expTime",
          "type": "uint256"
        }
      ],
      "payable": false,
      "stateMutability": "view",
      "type": "function"
    },
    {
      "constant": true,
      "inputs": [
        {
          "internalType": "uint256",
          "name": "gameId",
          "type": "uint256"
        }
      ],
      "name": "getMyInfo",
      "outputs": [
        {
          "internalType": "bool",
          "name": "isSupporter",
          "type": "bool"
        },
        {
          "internalType": "uint256",
          "name": "supportedCorner",
          "type": "uint256"
        },
        {
          "internalType": "bool",
          "name": "isPlayerInGame",
          "type": "bool"
        },
        {
          "internalType": "uint256",
          "name": "corner",
          "type": "uint256"
        }
      ],
      "payable": false,
      "stateMutability": "view",
      "type": "function"
    },
    {
      "constant": true,
      "inputs": [
        {
          "internalType": "uint256",
          "name": "gameId",
          "type": "uint256"
        },
        {
          "internalType": "address",
          "name": "player",
          "type": "address"
        }
      ],
      "name": "getPlayer",
      "outputs": [
        {
          "internalType": "uint256",
          "name": "kittieId",
          "type": "uint256"
        },
        {
          "internalType": "uint256",
          "name": "corner",
          "type": "uint256"
        },
        {
          "internalType": "uint256",
          "name": "betsTotalEth",
          "type": "uint256"
        }
      ],
      "payable": false,
      "stateMutability": "view",
      "type": "function"
    },
    {
      "constant": true,
      "inputs": [
        {
          "internalType": "uint256",
          "name": "gameId",
          "type": "uint256"
        }
      ],
      "name": "getWinners",
      "outputs": [
        {
          "internalType": "address",
          "name": "winner",
          "type": "address"
        },
        {
          "internalType": "address",
          "name": "topBettor",
          "type": "address"
        },
        {
          "internalType": "address",
          "name": "secondTopBettor",
          "type": "address"
        }
      ],
      "payable": false,
      "stateMutability": "view",
      "type": "function"
    },
    {
      "constant": true,
      "inputs": [
        {
          "internalType": "address",
          "name": "account",
          "type": "address"
        }
      ],
      "name": "getAccountInfo",
      "outputs": [
        {
          "internalType": "bool",
          "name": "isRegistered",
          "type": "bool"
        },
        {
          "internalType": "bool",
          "name": "isVerified",
          "type": "bool"
        }
      ],
      "payable": false,
      "stateMutability": "view",
      "type": "function"
    }
  ],
  "bytecode": "0x60806040523480156200001157600080fd5b506040516200594a3803806200594a833981810160405260208110156200003757600080fd5b8101908080519060200190929190505050336000806101000a81548173ffffffffffffffffffffffffffffffffffffffff021916908373ffffffffffffffffffffffffffffffffffffffff1602179055506200009981620000a060201b60201c565b506200013b565b6000809054906101000a900473ffffffffffffffffffffffffffffffffffffffff1673ffffffffffffffffffffffffffffffffffffffff163373ffffffffffffffffffffffffffffffffffffffff1614620000f757fe5b80600260006101000a81548173ffffffffffffffffffffffffffffffffffffffff021916908373ffffffffffffffffffffffffffffffffffffffff16021790555050565b6157ff806200014b6000396000f3fe608060405234801561001057600080fd5b50600436106101a95760003560e01c80638129fc1c116100f9578063de4128de11610097578063e6d3538d11610071578063e6d3538d14610b83578063ec55688914610be9578063f2fde38b14610c33578063ffde0c7414610c77576101a9565b8063de4128de14610a79578063e441dcbf14610adb578063e6a3d31e14610b3d576101a9565b806397107d6d116100d357806397107d6d146108e5578063b1be646914610929578063bacf524e14610973578063d5da9dca146109d5576101a9565b80638129fc1c146108415780638851470d1461084b5780638da5cb5b1461089b576101a9565b80634afab815116101665780635d06fc01116101405780635d06fc011461064c5780636454e58d146106965780636b1426a4146107065780637b510fe8146107da576101a9565b80634afab8151461052b578063525a8e4e1461056f578063589ac6a4146105b8576101a9565b806301b14278146101ae5780630b154c961461020d57806315a40f49146102b85780633564e78c1461036757806337507a0c146103b157806347e1d550146103f3575b600080fd5b6101da600480360360208110156101c457600080fd5b8101908080359060200190929190505050610cb9565b60405180851515151581526020018481526020018315151515815260200182815260200194505050505060405180910390f35b6102596004803603604081101561022357600080fd5b8101908080359060200190929190803573ffffffffffffffffffffffffffffffffffffffff1690602001909291905050506112a8565b604051808581526020018473ffffffffffffffffffffffffffffffffffffffff1673ffffffffffffffffffffffffffffffffffffffff168152602001831515151581526020018215151515815260200194505050505060405180910390f35b6102e4600480360360208110156102ce57600080fd5b8101908080359060200190929190505050611a45565b604051808573ffffffffffffffffffffffffffffffffffffffff1673ffffffffffffffffffffffffffffffffffffffff1681526020018473ffffffffffffffffffffffffffffffffffffffff1673ffffffffffffffffffffffffffffffffffffffff16815260200183815260200182815260200194505050505060405180910390f35b61036f612154565b604051808273ffffffffffffffffffffffffffffffffffffffff1673ffffffffffffffffffffffffffffffffffffffff16815260200191505060405180910390f35b6103dd600480360360208110156103c757600080fd5b810190808035906020019092919050505061217a565b6040518082815260200191505060405180910390f35b61041f6004803603602081101561040957600080fd5b8101908080359060200190929190505050612321565b6040518088600260200280838360005b8381101561044a57808201518184015260208101905061042f565b5050505090500187600260200280838360005b8381101561047857808201518184015260208101905061045d565b5050505090500186815260200185600260200280838360005b838110156104ac578082015181840152602081019050610491565b5050505090500184600260200280838360005b838110156104da5780820151818401526020810190506104bf565b505050509050018381526020018273ffffffffffffffffffffffffffffffffffffffff1673ffffffffffffffffffffffffffffffffffffffff16815260200197505050505050505060405180910390f35b61056d6004803603602081101561054157600080fd5b81019080803573ffffffffffffffffffffffffffffffffffffffff1690602001909291905050506129e9565b005b61059b6004803603602081101561058557600080fd5b8101908080359060200190929190505050612a83565b604051808381526020018281526020019250505060405180910390f35b6105e4600480360360208110156105ce57600080fd5b8101908080359060200190929190505050612dcb565b6040518088815260200187815260200186815260200185815260200184600260200280838360005b8381101561062757808201518184015260208101905061060c565b5050505090500183815260200182815260200197505050505050505060405180910390f35b6106546132f9565b604051808273ffffffffffffffffffffffffffffffffffffffff1673ffffffffffffffffffffffffffffffffffffffff16815260200191505060405180910390f35b6106e2600480360360408110156106ac57600080fd5b8101908080359060200190929190803573ffffffffffffffffffffffffffffffffffffffff16906020019092919050505061331f565b60405180848152602001838152602001828152602001935050505060405180910390f35b6107326004803603602081101561071c57600080fd5b8101908080359060200190929190505050613427565b604051808473ffffffffffffffffffffffffffffffffffffffff1673ffffffffffffffffffffffffffffffffffffffff1681526020018373ffffffffffffffffffffffffffffffffffffffff1673ffffffffffffffffffffffffffffffffffffffff1681526020018273ffffffffffffffffffffffffffffffffffffffff1673ffffffffffffffffffffffffffffffffffffffff168152602001935050505060405180910390f35b61081c600480360360208110156107f057600080fd5b81019080803573ffffffffffffffffffffffffffffffffffffffff169060200190929190505050613913565b6040518083151515158152602001821515151581526020019250505060405180910390f35b610849613d26565b005b6108776004803603602081101561086157600080fd5b810190808035906020019092919050505061408e565b60405180848152602001838152602001828152602001935050505060405180910390f35b6108a361458e565b604051808273ffffffffffffffffffffffffffffffffffffffff1673ffffffffffffffffffffffffffffffffffffffff16815260200191505060405180910390f35b610927600480360360208110156108fb57600080fd5b81019080803573ffffffffffffffffffffffffffffffffffffffff1690602001909291905050506145b3565b005b61093161464d565b604051808273ffffffffffffffffffffffffffffffffffffffff1673ffffffffffffffffffffffffffffffffffffffff16815260200191505060405180910390f35b6109bf6004803603604081101561098957600080fd5b8101908080359060200190929190803573ffffffffffffffffffffffffffffffffffffffff169060200190929190505050614673565b6040518082815260200191505060405180910390f35b610a01600480360360208110156109eb57600080fd5b8101908080359060200190929190505050614852565b604051808873ffffffffffffffffffffffffffffffffffffffff1673ffffffffffffffffffffffffffffffffffffffff16815260200187151515158152602001868152602001858152602001841515151581526020018315151515815260200182815260200197505050505050505060405180910390f35b610ac560048036036040811015610a8f57600080fd5b8101908080359060200190929190803573ffffffffffffffffffffffffffffffffffffffff169060200190929190505050614b51565b6040518082815260200191505060405180910390f35b610b2760048036036040811015610af157600080fd5b8101908080359060200190929190803573ffffffffffffffffffffffffffffffffffffffff169060200190929190505050614d30565b6040518082815260200191505060405180910390f35b610b6960048036036020811015610b5357600080fd5b8101908080359060200190929190505050614f23565b604051808215151515815260200191505060405180910390f35b610bcf60048036036040811015610b9957600080fd5b8101908080359060200190929190803573ffffffffffffffffffffffffffffffffffffffff1690602001909291905050506150ca565b604051808215151515815260200191505060405180910390f35b610bf1615499565b604051808273ffffffffffffffffffffffffffffffffffffffff1673ffffffffffffffffffffffffffffffffffffffff16815260200191505060405180910390f35b610c7560048036036020811015610c4957600080fd5b81019080803573ffffffffffffffffffffffffffffffffffffffff1690602001909291905050506154bf565b005b610ca360048036036020811015610c8d57600080fd5b810190808035906020019092919050505061558d565b6040518082815260200191505060405180910390f35b600080600080600260009054906101000a900473ffffffffffffffffffffffffffffffffffffffff1673ffffffffffffffffffffffffffffffffffffffff16638445d70f6040518060400160405280600a81526020017f474d536574746572444200000000000000000000000000000000000000000000815250876040518060400160405280600b81526020017f426574746f725461626c650000000000000000000000000000000000000000008152506040516020018083815260200182805190602001908083835b60208310610da65780518252602082019150602081019050602083039250610d83565b6001836020036101000a0380198251168184511680821785525050505050509050019250505060405160208183030381529060405280519060200120336040518463ffffffff1660e01b815260040180806020018481526020018373ffffffffffffffffffffffffffffffffffffffff1673ffffffffffffffffffffffffffffffffffffffff168152602001828103825285818151815260200191508051906020019080838360005b83811015610e6a578082015181840152602081019050610e4f565b50505050905090810190601f168015610e975780820380516001836020036101000a031916815260200191505b5094505050505060206040518083038186803b158015610eb657600080fd5b505afa158015610eca573d6000803e3d6000fd5b505050506040513d6020811015610ee057600080fd5b810190808051906020019092919050505093506000600260009054906101000a900473ffffffffffffffffffffffffffffffffffffffff1673ffffffffffffffffffffffffffffffffffffffff1663b93a5b5e6040518060400160405280600a81526020017f474d5365747465724442000000000000000000000000000000000000000000008152508833604051602001808381526020018273ffffffffffffffffffffffffffffffffffffffff1673ffffffffffffffffffffffffffffffffffffffff1660601b8152601401807f737570706f72746564506c617965720000000000000000000000000000000000815250600f0192505050604051602081830303815290604052805190602001206040518363ffffffff1660e01b81526004018080602001838152602001828103825284818151815260200191508051906020019080838360005b83811015611044578082015181840152602081019050611029565b50505050905090810190601f1680156110715780820380516001836020036101000a031916815260200191505b50935050505060206040518083038186803b15801561108f57600080fd5b505afa1580156110a3573d6000803e3d6000fd5b505050506040513d60208110156110b957600080fd5b81019080805190602001909291905050509050600360009054906101000a900473ffffffffffffffffffffffffffffffffffffffff1673ffffffffffffffffffffffffffffffffffffffff1663f9ccbdf287836040518363ffffffff1660e01b8152600401808381526020018273ffffffffffffffffffffffffffffffffffffffff1673ffffffffffffffffffffffffffffffffffffffff1681526020019250505060206040518083038186803b15801561117357600080fd5b505afa158015611187573d6000803e3d6000fd5b505050506040513d602081101561119d57600080fd5b810190808051906020019092919050505093506111ba86336150ca565b9250600360009054906101000a900473ffffffffffffffffffffffffffffffffffffffff1673ffffffffffffffffffffffffffffffffffffffff1663f9ccbdf287336040518363ffffffff1660e01b8152600401808381526020018273ffffffffffffffffffffffffffffffffffffffff1673ffffffffffffffffffffffffffffffffffffffff1681526020019250505060206040518083038186803b15801561126357600080fd5b505afa158015611277573d6000803e3d6000fd5b505050506040513d602081101561128d57600080fd5b81019080805190602001909291905050509150509193509193565b600080600080600260009054906101000a900473ffffffffffffffffffffffffffffffffffffffff1673ffffffffffffffffffffffffffffffffffffffff166308acb5566040518060400160405280600a81526020017f474d5365747465724442000000000000000000000000000000000000000000008152508888604051602001808381526020018273ffffffffffffffffffffffffffffffffffffffff1673ffffffffffffffffffffffffffffffffffffffff1660601b8152601401807f626574416d6f756e74000000000000000000000000000000000000000000000081525060090192505050604051602081830303815290604052805190602001206040518363ffffffff1660e01b81526004018080602001838152602001828103825284818151815260200191508051906020019080838360005b838110156113fd5780820151818401526020810190506113e2565b50505050905090810190601f16801561142a5780820380516001836020036101000a031916815260200191505b50935050505060206040518083038186803b15801561144857600080fd5b505afa15801561145c573d6000803e3d6000fd5b505050506040513d602081101561147257600080fd5b81019080805190602001909291905050509350600260009054906101000a900473ffffffffffffffffffffffffffffffffffffffff1673ffffffffffffffffffffffffffffffffffffffff1663b93a5b5e6040518060400160405280600a81526020017f474d5365747465724442000000000000000000000000000000000000000000008152508888604051602001808381526020018273ffffffffffffffffffffffffffffffffffffffff1673ffffffffffffffffffffffffffffffffffffffff1660601b8152601401807f737570706f72746564506c617965720000000000000000000000000000000000815250600f0192505050604051602081830303815290604052805190602001206040518363ffffffff1660e01b81526004018080602001838152602001828103825284818151815260200191508051906020019080838360005b838110156115d45780820151818401526020810190506115b9565b50505050905090810190601f1680156116015780820380516001836020036101000a031916815260200191505b50935050505060206040518083038186803b15801561161f57600080fd5b505afa158015611633573d6000803e3d6000fd5b505050506040513d602081101561164957600080fd5b81019080805190602001909291905050509250600260009054906101000a900473ffffffffffffffffffffffffffffffffffffffff1673ffffffffffffffffffffffffffffffffffffffff16631c58c8bb6040518060400160405280600a81526020017f474d5365747465724442000000000000000000000000000000000000000000008152508888604051602001808381526020018273ffffffffffffffffffffffffffffffffffffffff1673ffffffffffffffffffffffffffffffffffffffff1660601b8152601401807f7469636b65744665655061696400000000000000000000000000000000000000815250600d0192505050604051602081830303815290604052805190602001206040518363ffffffff1660e01b81526004018080602001838152602001828103825284818151815260200191508051906020019080838360005b838110156117ab578082015181840152602081019050611790565b50505050905090810190601f1680156117d85780820380516001836020036101000a031916815260200191505b50935050505060206040518083038186803b1580156117f657600080fd5b505afa15801561180a573d6000803e3d6000fd5b505050506040513d602081101561182057600080fd5b81019080805190602001909291905050509150600160009054906101000a900473ffffffffffffffffffffffffffffffffffffffff1673ffffffffffffffffffffffffffffffffffffffff1663358177736040518060400160405280600d81526020017f456e646f776d656e7446756e64000000000000000000000000000000000000008152506040518263ffffffff1660e01b81526004018080602001828103825283818151815260200191508051906020019080838360005b838110156118f65780820151818401526020810190506118db565b50505050905090810190601f1680156119235780820380516001836020036101000a031916815260200191505b509250505060206040518083038186803b15801561194057600080fd5b505afa158015611954573d6000803e3d6000fd5b505050506040513d602081101561196a57600080fd5b810190808051906020019092919050505073ffffffffffffffffffffffffffffffffffffffff1663ca2a188687876040518363ffffffff1660e01b8152600401808381526020018273ffffffffffffffffffffffffffffffffffffffff1673ffffffffffffffffffffffffffffffffffffffff1681526020019250505060206040518083038186803b1580156119ff57600080fd5b505afa158015611a13573d6000803e3d6000fd5b505050506040513d6020811015611a2957600080fd5b8101908080519060200190929190505050905092959194509250565b60008060008084611a5581614f23565b611a5e57600080fd5b600260009054906101000a900473ffffffffffffffffffffffffffffffffffffffff1673ffffffffffffffffffffffffffffffffffffffff1663b93a5b5e6040518060400160405280600a81526020017f474d5365747465724442000000000000000000000000000000000000000000008152508860405160200180828152602001807f706c61796572426c61636b000000000000000000000000000000000000000000815250600b01915050604051602081830303815290604052805190602001206040518363ffffffff1660e01b81526004018080602001838152602001828103825284818151815260200191508051906020019080838360005b83811015611b76578082015181840152602081019050611b5b565b50505050905090810190601f168015611ba35780820380516001836020036101000a031916815260200191505b50935050505060206040518083038186803b158015611bc157600080fd5b505afa158015611bd5573d6000803e3d6000fd5b505050506040513d6020811015611beb57600080fd5b81019080805190602001909291905050509450600260009054906101000a900473ffffffffffffffffffffffffffffffffffffffff1673ffffffffffffffffffffffffffffffffffffffff1663b93a5b5e6040518060400160405280600a81526020017f474d5365747465724442000000000000000000000000000000000000000000008152508860405160200180828152602001807f706c617965725265640000000000000000000000000000000000000000000000815250600901915050604051602081830303815290604052805190602001206040518363ffffffff1660e01b81526004018080602001838152602001828103825284818151815260200191508051906020019080838360005b83811015611d16578082015181840152602081019050611cfb565b50505050905090810190601f168015611d435780820380516001836020036101000a031916815260200191505b50935050505060206040518083038186803b158015611d6157600080fd5b505afa158015611d75573d6000803e3d6000fd5b505050506040513d6020811015611d8b57600080fd5b81019080805190602001909291905050509350600260009054906101000a900473ffffffffffffffffffffffffffffffffffffffff1673ffffffffffffffffffffffffffffffffffffffff166308acb5566040518060400160405280600a81526020017f474d5365747465724442000000000000000000000000000000000000000000008152508888604051602001808381526020018273ffffffffffffffffffffffffffffffffffffffff1673ffffffffffffffffffffffffffffffffffffffff1660601b8152601401807f6b6974747900000000000000000000000000000000000000000000000000000081525060050192505050604051602081830303815290604052805190602001206040518363ffffffff1660e01b81526004018080602001838152602001828103825284818151815260200191508051906020019080838360005b83811015611eed578082015181840152602081019050611ed2565b50505050905090810190601f168015611f1a5780820380516001836020036101000a031916815260200191505b50935050505060206040518083038186803b158015611f3857600080fd5b505afa158015611f4c573d6000803e3d6000fd5b505050506040513d6020811015611f6257600080fd5b81019080805190602001909291905050509250600260009054906101000a900473ffffffffffffffffffffffffffffffffffffffff1673ffffffffffffffffffffffffffffffffffffffff166308acb5566040518060400160405280600a81526020017f474d5365747465724442000000000000000000000000000000000000000000008152508887604051602001808381526020018273ffffffffffffffffffffffffffffffffffffffff1673ffffffffffffffffffffffffffffffffffffffff1660601b8152601401807f6b6974747900000000000000000000000000000000000000000000000000000081525060050192505050604051602081830303815290604052805190602001206040518363ffffffff1660e01b81526004018080602001838152602001828103825284818151815260200191508051906020019080838360005b838110156120c45780820151818401526020810190506120a9565b50505050905090810190601f1680156120f15780820380516001836020036101000a031916815260200191505b50935050505060206040518083038186803b15801561210f57600080fd5b505afa158015612123573d6000803e3d6000fd5b505050506040513d602081101561213957600080fd5b81019080805190602001909291905050509150509193509193565b600260009054906101000a900473ffffffffffffffffffffffffffffffffffffffff1681565b6000600260009054906101000a900473ffffffffffffffffffffffffffffffffffffffff1673ffffffffffffffffffffffffffffffffffffffff166308acb5566040518060400160405280600a81526020017f474d5365747465724442000000000000000000000000000000000000000000008152508460405160200180828152602001807f706c6179696e6747616d65000000000000000000000000000000000000000000815250600b01915050604051602081830303815290604052805190602001206040518363ffffffff1660e01b81526004018080602001838152602001828103825284818151815260200191508051906020019080838360005b83811015612294578082015181840152602081019050612279565b50505050905090810190601f1680156122c15780820380516001836020036101000a031916815260200191505b50935050505060206040518083038186803b1580156122df57600080fd5b505afa1580156122f3573d6000803e3d6000fd5b505050506040513d602081101561230957600080fd5b81019080805190602001909291905050509050919050565b612329615764565b612331615786565b600061233b615786565b6123436157a8565b6000808761235081614f23565b61235957600080fd5b61236289611a45565b8b60006002811061236f57fe5b602002018c60016002811061238057fe5b602002018c60006002811061239157fe5b602002018d6001600281106123a257fe5b6020020184815250848152508473ffffffffffffffffffffffffffffffffffffffff1673ffffffffffffffffffffffffffffffffffffffff168152508473ffffffffffffffffffffffffffffffffffffffff1673ffffffffffffffffffffffffffffffffffffffff168152505050505061241b8961558d565b9550612438898960006002811061242e57fe5b6020020151614b51565b8560006002811061244557fe5b602002018181525050612469898960016002811061245f57fe5b6020020151614b51565b8560016002811061247657fe5b602002018181525050600360009054906101000a900473ffffffffffffffffffffffffffffffffffffffff1673ffffffffffffffffffffffffffffffffffffffff1663ebff754a8a8a6000600281106124cb57fe5b60200201516040518363ffffffff1660e01b8152600401808381526020018273ffffffffffffffffffffffffffffffffffffffff1673ffffffffffffffffffffffffffffffffffffffff1681526020019250505060206040518083038186803b15801561253757600080fd5b505afa15801561254b573d6000803e3d6000fd5b505050506040513d602081101561256157600080fd5b81019080805190602001909291905050508460006002811061257f57fe5b602002019015159081151581525050600360009054906101000a900473ffffffffffffffffffffffffffffffffffffffff1673ffffffffffffffffffffffffffffffffffffffff1663ebff754a8a8a6001600281106125da57fe5b60200201516040518363ffffffff1660e01b8152600401808381526020018273ffffffffffffffffffffffffffffffffffffffff1673ffffffffffffffffffffffffffffffffffffffff1681526020019250505060206040518083038186803b15801561264657600080fd5b505afa15801561265a573d6000803e3d6000fd5b505050506040513d602081101561267057600080fd5b81019080805190602001909291905050508460016002811061268e57fe5b602002019015159081151581525050600260009054906101000a900473ffffffffffffffffffffffffffffffffffffffff1673ffffffffffffffffffffffffffffffffffffffff166308acb5566040518060400160405280600a81526020017f474d5365747465724442000000000000000000000000000000000000000000008152508b60405160200180828152602001807f6372656174656454696d65000000000000000000000000000000000000000000815250600b01915050604051602081830303815290604052805190602001206040518363ffffffff1660e01b81526004018080602001838152602001828103825284818151815260200191508051906020019080838360005b838110156127b557808201518184015260208101905061279a565b50505050905090810190601f1680156127e25780820380516001836020036101000a031916815260200191505b50935050505060206040518083038186803b15801561280057600080fd5b505afa158015612814573d6000803e3d6000fd5b505050506040513d602081101561282a57600080fd5b81019080805190602001909291905050509250600260009054906101000a900473ffffffffffffffffffffffffffffffffffffffff1673ffffffffffffffffffffffffffffffffffffffff1663b93a5b5e6040518060400160405280600a81526020017f474d5365747465724442000000000000000000000000000000000000000000008152508b60405160200180828152602001807f77696e6e65720000000000000000000000000000000000000000000000000000815250600601915050604051602081830303815290604052805190602001206040518363ffffffff1660e01b81526004018080602001838152602001828103825284818151815260200191508051906020019080838360005b8381101561295557808201518184015260208101905061293a565b50505050905090810190601f1680156129825780820380516001836020036101000a031916815260200191505b50935050505060206040518083038186803b1580156129a057600080fd5b505afa1580156129b4573d6000803e3d6000fd5b505050506040513d60208110156129ca57600080fd5b8101908080519060200190929190505050915050919395979092949650565b6000809054906101000a900473ffffffffffffffffffffffffffffffffffffffff1673ffffffffffffffffffffffffffffffffffffffff163373ffffffffffffffffffffffffffffffffffffffff1614612a3f57fe5b80600260006101000a81548173ffffffffffffffffffffffffffffffffffffffff021916908373ffffffffffffffffffffffffffffffffffffffff16021790555050565b600080600260009054906101000a900473ffffffffffffffffffffffffffffffffffffffff1673ffffffffffffffffffffffffffffffffffffffff166308acb5566040518060400160405280600a81526020017f474d5365747465724442000000000000000000000000000000000000000000008152508560405160200180828152602001807f746f74616c457468000000000000000000000000000000000000000000000000815250600801915050604051602081830303815290604052805190602001206040518363ffffffff1660e01b81526004018080602001838152602001828103825284818151815260200191508051906020019080838360005b83811015612b9e578082015181840152602081019050612b83565b50505050905090810190601f168015612bcb5780820380516001836020036101000a031916815260200191505b50935050505060206040518083038186803b158015612be957600080fd5b505afa158015612bfd573d6000803e3d6000fd5b505050506040513d6020811015612c1357600080fd5b81019080805190602001909291905050509150600260009054906101000a900473ffffffffffffffffffffffffffffffffffffffff1673ffffffffffffffffffffffffffffffffffffffff166308acb5566040518060400160405280600a81526020017f474d5365747465724442000000000000000000000000000000000000000000008152508560405160200180828152602001807f746f74616c4b7479000000000000000000000000000000000000000000000000815250600801915050604051602081830303815290604052805190602001206040518363ffffffff1660e01b81526004018080602001838152602001828103825284818151815260200191508051906020019080838360005b83811015612d3e578082015181840152602081019050612d23565b50505050905090810190601f168015612d6b5780820380516001836020036101000a031916815260200191505b50935050505060206040518083038186803b158015612d8957600080fd5b505afa158015612d9d573d6000803e3d6000fd5b505050506040513d6020811015612db357600080fd5b81019080805190602001909291905050509050915091565b600080600080612dd9615786565b600080600080612de88a611a45565b505091509150600260009054906101000a900473ffffffffffffffffffffffffffffffffffffffff1673ffffffffffffffffffffffffffffffffffffffff166308acb5566040518060400160405280600a81526020017f474d5365747465724442000000000000000000000000000000000000000000008152508c60405160200180828152602001807f686f6e6579706f74496400000000000000000000000000000000000000000000815250600a01915050604051602081830303815290604052805190602001206040518363ffffffff1660e01b81526004018080602001838152602001828103825284818151815260200191508051906020019080838360005b83811015612f06578082015181840152602081019050612eeb565b50505050905090810190601f168015612f335780820380516001836020036101000a031916815260200191505b50935050505060206040518083038186803b158015612f5157600080fd5b505afa158015612f65573d6000803e3d6000fd5b505050506040513d6020811015612f7b57600080fd5b81019080805190602001909291905050509850600260009054906101000a900473ffffffffffffffffffffffffffffffffffffffff1673ffffffffffffffffffffffffffffffffffffffff166308acb5566040518060400160405280600a81526020017f474d5365747465724442000000000000000000000000000000000000000000008152508c60405160200180828152602001807f696e697469616c45746800000000000000000000000000000000000000000000815250600a01915050604051602081830303815290604052805190602001206040518363ffffffff1660e01b81526004018080602001838152602001828103825284818151815260200191508051906020019080838360005b838110156130a657808201518184015260208101905061308b565b50505050905090810190601f1680156130d35780820380516001836020036101000a031916815260200191505b50935050505060206040518083038186803b1580156130f157600080fd5b505afa158015613105573d6000803e3d6000fd5b505050506040513d602081101561311b57600080fd5b81019080805190602001909291905050509650600460009054906101000a900473ffffffffffffffffffffffffffffffffffffffff1673ffffffffffffffffffffffffffffffffffffffff1663d6f203098b6040518263ffffffff1660e01b815260040180828152602001915050604080518083038186803b1580156131a057600080fd5b505afa1580156131b4573d6000803e3d6000fd5b505050506040513d60408110156131ca57600080fd5b81019080805190602001909291908051906020019092919050505080975081955050506131f78a83614673565b8560006002811061320457fe5b6020020181815250506132178a82614673565b8560016002811061322457fe5b602002018181525050600460009054906101000a900473ffffffffffffffffffffffffffffffffffffffff1673ffffffffffffffffffffffffffffffffffffffff16636933bbd78b6040518263ffffffff1660e01b815260040180828152602001915050604080518083038186803b15801561329f57600080fd5b505afa1580156132b3573d6000803e3d6000fd5b505050506040513d60408110156132c957600080fd5b81019080805190602001909291908051906020019092919050505080945081995050505050919395979092949650565b600460009054906101000a900473ffffffffffffffffffffffffffffffffffffffff1681565b600080600061332e8585614d30565b9250600360009054906101000a900473ffffffffffffffffffffffffffffffffffffffff1673ffffffffffffffffffffffffffffffffffffffff1663f9ccbdf286866040518363ffffffff1660e01b8152600401808381526020018273ffffffffffffffffffffffffffffffffffffffff1673ffffffffffffffffffffffffffffffffffffffff1681526020019250505060206040518083038186803b1580156133d757600080fd5b505afa1580156133eb573d6000803e3d6000fd5b505050506040513d602081101561340157600080fd5b8101908080519060200190929190505050915061341e8585614673565b90509250925092565b6000806000600260009054906101000a900473ffffffffffffffffffffffffffffffffffffffff1673ffffffffffffffffffffffffffffffffffffffff1663b93a5b5e6040518060400160405280600a81526020017f474d5365747465724442000000000000000000000000000000000000000000008152508660405160200180828152602001807f77696e6e65720000000000000000000000000000000000000000000000000000815250600601915050604051602081830303815290604052805190602001206040518363ffffffff1660e01b81526004018080602001838152602001828103825284818151815260200191508051906020019080838360005b83811015613544578082015181840152602081019050613529565b50505050905090810190601f1680156135715780820380516001836020036101000a031916815260200191505b50935050505060206040518083038186803b15801561358f57600080fd5b505afa1580156135a3573d6000803e3d6000fd5b505050506040513d60208110156135b957600080fd5b81019080805190602001909291905050509250600260009054906101000a900473ffffffffffffffffffffffffffffffffffffffff1673ffffffffffffffffffffffffffffffffffffffff1663b93a5b5e6040518060400160405280600a81526020017f474d5365747465724442000000000000000000000000000000000000000000008152508660405160200180828152602001807f746f70426574746f720000000000000000000000000000000000000000000000815250600901915050604051602081830303815290604052805190602001206040518363ffffffff1660e01b81526004018080602001838152602001828103825284818151815260200191508051906020019080838360005b838110156136e45780820151818401526020810190506136c9565b50505050905090810190601f1680156137115780820380516001836020036101000a031916815260200191505b50935050505060206040518083038186803b15801561372f57600080fd5b505afa158015613743573d6000803e3d6000fd5b505050506040513d602081101561375957600080fd5b81019080805190602001909291905050509150600260009054906101000a900473ffffffffffffffffffffffffffffffffffffffff1673ffffffffffffffffffffffffffffffffffffffff1663b93a5b5e6040518060400160405280600a81526020017f474d5365747465724442000000000000000000000000000000000000000000008152508660405160200180828152602001807f7365636f6e64546f70426574746f720000000000000000000000000000000000815250600f01915050604051602081830303815290604052805190602001206040518363ffffffff1660e01b81526004018080602001838152602001828103825284818151815260200191508051906020019080838360005b83811015613884578082015181840152602081019050613869565b50505050905090810190601f1680156138b15780820380516001836020036101000a031916815260200191505b50935050505060206040518083038186803b1580156138cf57600080fd5b505afa1580156138e3573d6000803e3d6000fd5b505050506040513d60208110156138f957600080fd5b810190808051906020019092919050505090509193909250565b600080600160009054906101000a900473ffffffffffffffffffffffffffffffffffffffff1673ffffffffffffffffffffffffffffffffffffffff1663358177736040518060400160405280600881526020017f52656769737465720000000000000000000000000000000000000000000000008152506040518263ffffffff1660e01b81526004018080602001828103825283818151815260200191508051906020019080838360005b838110156139d95780820151818401526020810190506139be565b50505050905090810190601f168015613a065780820380516001836020036101000a031916815260200191505b509250505060206040518083038186803b158015613a2357600080fd5b505afa158015613a37573d6000803e3d6000fd5b505050506040513d6020811015613a4d57600080fd5b810190808051906020019092919050505073ffffffffffffffffffffffffffffffffffffffff1663c3c5a547846040518263ffffffff1660e01b8152600401808273ffffffffffffffffffffffffffffffffffffffff1673ffffffffffffffffffffffffffffffffffffffff16815260200191505060206040518083038186803b158015613ada57600080fd5b505afa158015613aee573d6000803e3d6000fd5b505050506040513d6020811015613b0457600080fd5b810190808051906020019092919050505091506000600160009054906101000a900473ffffffffffffffffffffffffffffffffffffffff1673ffffffffffffffffffffffffffffffffffffffff1663358177736040518060400160405280600981526020017f50726f66696c65444200000000000000000000000000000000000000000000008152506040518263ffffffff1660e01b81526004018080602001828103825283818151815260200191508051906020019080838360005b83811015613bdc578082015181840152602081019050613bc1565b50505050905090810190601f168015613c095780820380516001836020036101000a031916815260200191505b509250505060206040518083038186803b158015613c2657600080fd5b505afa158015613c3a573d6000803e3d6000fd5b505050506040513d6020811015613c5057600080fd5b810190808051906020019092919050505073ffffffffffffffffffffffffffffffffffffffff1663a984d640856040518263ffffffff1660e01b8152600401808273ffffffffffffffffffffffffffffffffffffffff1673ffffffffffffffffffffffffffffffffffffffff16815260200191505060206040518083038186803b158015613cdd57600080fd5b505afa158015613cf1573d6000803e3d6000fd5b505050506040513d6020811015613d0757600080fd5b8101908080519060200190929190505050905060008111915050915091565b6000809054906101000a900473ffffffffffffffffffffffffffffffffffffffff1673ffffffffffffffffffffffffffffffffffffffff163373ffffffffffffffffffffffffffffffffffffffff1614613d7c57fe5b600160009054906101000a900473ffffffffffffffffffffffffffffffffffffffff1673ffffffffffffffffffffffffffffffffffffffff1663358177736040518060400160405280600981526020017f47616d6553746f726500000000000000000000000000000000000000000000008152506040518263ffffffff1660e01b81526004018080602001828103825283818151815260200191508051906020019080838360005b83811015613e3f578082015181840152602081019050613e24565b50505050905090810190601f168015613e6c5780820380516001836020036101000a031916815260200191505b509250505060206040518083038186803b158015613e8957600080fd5b505afa158015613e9d573d6000803e3d6000fd5b505050506040513d6020811015613eb357600080fd5b8101908080519060200190929190505050600360006101000a81548173ffffffffffffffffffffffffffffffffffffffff021916908373ffffffffffffffffffffffffffffffffffffffff160217905550600160009054906101000a900473ffffffffffffffffffffffffffffffffffffffff1673ffffffffffffffffffffffffffffffffffffffff1663358177736040518060400160405280600b81526020017f456e646f776d656e7444420000000000000000000000000000000000000000008152506040518263ffffffff1660e01b81526004018080602001828103825283818151815260200191508051906020019080838360005b83811015613fc7578082015181840152602081019050613fac565b50505050905090810190601f168015613ff45780820380516001836020036101000a031916815260200191505b509250505060206040518083038186803b15801561401157600080fd5b505afa158015614025573d6000803e3d6000fd5b505050506040513d602081101561403b57600080fd5b8101908080519060200190929190505050600460006101000a81548173ffffffffffffffffffffffffffffffffffffffff021916908373ffffffffffffffffffffffffffffffffffffffff160217905550565b60008060008361409d81614f23565b6140a657600080fd5b600260009054906101000a900473ffffffffffffffffffffffffffffffffffffffff1673ffffffffffffffffffffffffffffffffffffffff166308acb5566040518060400160405280600a81526020017f474d5365747465724442000000000000000000000000000000000000000000008152508760405160200180828152602001807f737461727454696d650000000000000000000000000000000000000000000000815250600901915050604051602081830303815290604052805190602001206040518363ffffffff1660e01b81526004018080602001838152602001828103825284818151815260200191508051906020019080838360005b838110156141be5780820151818401526020810190506141a3565b50505050905090810190601f1680156141eb5780820380516001836020036101000a031916815260200191505b50935050505060206040518083038186803b15801561420957600080fd5b505afa15801561421d573d6000803e3d6000fd5b505050506040513d602081101561423357600080fd5b81019080805190602001909291905050509350600260009054906101000a900473ffffffffffffffffffffffffffffffffffffffff1673ffffffffffffffffffffffffffffffffffffffff166308acb5566040518060400160405280600a81526020017f474d5365747465724442000000000000000000000000000000000000000000008152508760405160200180828152602001807f707265737461727454696d650000000000000000000000000000000000000000815250600c01915050604051602081830303815290604052805190602001206040518363ffffffff1660e01b81526004018080602001838152602001828103825284818151815260200191508051906020019080838360005b8381101561435e578082015181840152602081019050614343565b50505050905090810190601f16801561438b5780820380516001836020036101000a031916815260200191505b50935050505060206040518083038186803b1580156143a957600080fd5b505afa1580156143bd573d6000803e3d6000fd5b505050506040513d60208110156143d357600080fd5b81019080805190602001909291905050509250600260009054906101000a900473ffffffffffffffffffffffffffffffffffffffff1673ffffffffffffffffffffffffffffffffffffffff166308acb5566040518060400160405280600a81526020017f474d5365747465724442000000000000000000000000000000000000000000008152508760405160200180828152602001807f656e6454696d6500000000000000000000000000000000000000000000000000815250600701915050604051602081830303815290604052805190602001206040518363ffffffff1660e01b81526004018080602001838152602001828103825284818151815260200191508051906020019080838360005b838110156144fe5780820151818401526020810190506144e3565b50505050905090810190601f16801561452b5780820380516001836020036101000a031916815260200191505b50935050505060206040518083038186803b15801561454957600080fd5b505afa15801561455d573d6000803e3d6000fd5b505050506040513d602081101561457357600080fd5b81019080805190602001909291905050509150509193909250565b6000809054906101000a900473ffffffffffffffffffffffffffffffffffffffff1681565b6000809054906101000a900473ffffffffffffffffffffffffffffffffffffffff1673ffffffffffffffffffffffffffffffffffffffff163373ffffffffffffffffffffffffffffffffffffffff161461460957fe5b80600160006101000a81548173ffffffffffffffffffffffffffffffffffffffff021916908373ffffffffffffffffffffffffffffffffffffffff16021790555050565b600360009054906101000a900473ffffffffffffffffffffffffffffffffffffffff1681565b6000600260009054906101000a900473ffffffffffffffffffffffffffffffffffffffff1673ffffffffffffffffffffffffffffffffffffffff166308acb5566040518060400160405280600a81526020017f474d5365747465724442000000000000000000000000000000000000000000008152508585604051602001808381526020018273ffffffffffffffffffffffffffffffffffffffff1673ffffffffffffffffffffffffffffffffffffffff1660601b8152601401807f746f74616c426574416d6f756e74000000000000000000000000000000000000815250600e0192505050604051602081830303815290604052805190602001206040518363ffffffff1660e01b81526004018080602001838152602001828103825284818151815260200191508051906020019080838360005b838110156147c45780820151818401526020810190506147a9565b50505050905090810190601f1680156147f15780820380516001836020036101000a031916815260200191505b50935050505060206040518083038186803b15801561480f57600080fd5b505afa158015614823573d6000803e3d6000fd5b505050506040513d602081101561483957600080fd5b8101908080519060200190929190505050905092915050565b6000806000806000806000600160009054906101000a900473ffffffffffffffffffffffffffffffffffffffff1673ffffffffffffffffffffffffffffffffffffffff1663358177736040518060400160405280600a81526020017f4b697474696548656c6c000000000000000000000000000000000000000000008152506040518263ffffffff1660e01b81526004018080602001828103825283818151815260200191508051906020019080838360005b83811015614920578082015181840152602081019050614905565b50505050905090810190601f16801561494d5780820380516001836020036101000a031916815260200191505b509250505060206040518083038186803b15801561496a57600080fd5b505afa15801561497e573d6000803e3d6000fd5b505050506040513d602081101561499457600080fd5b810190808051906020019092919050505073ffffffffffffffffffffffffffffffffffffffff16636889364c896040518263ffffffff1660e01b81526004018082815260200191505060a06040518083038186803b1580156149f557600080fd5b505afa158015614a09573d6000803e3d6000fd5b505050506040513d60a0811015614a1f57600080fd5b810190808051906020019092919080519060200190929190805190602001909291908051906020019092919080519060200190929190505050909150809850819650829950839a5050505050614a748861217a565b9050600081141591508515614b4657614b43600360009054906101000a900473ffffffffffffffffffffffffffffffffffffffff1673ffffffffffffffffffffffffffffffffffffffff16633c38d0a9836040518263ffffffff1660e01b81526004018082815260200191505060206040518083038186803b158015614af957600080fd5b505afa158015614b0d573d6000803e3d6000fd5b505050506040513d6020811015614b2357600080fd5b81019080805190602001909291905050508661574890919063ffffffff16565b93505b919395979092949650565b6000600260009054906101000a900473ffffffffffffffffffffffffffffffffffffffff1673ffffffffffffffffffffffffffffffffffffffff166308acb5566040518060400160405280600a81526020017f474d5365747465724442000000000000000000000000000000000000000000008152508585604051602001808381526020018273ffffffffffffffffffffffffffffffffffffffff1673ffffffffffffffffffffffffffffffffffffffff1660601b8152601401807f737570706f727465727300000000000000000000000000000000000000000000815250600a0192505050604051602081830303815290604052805190602001206040518363ffffffff1660e01b81526004018080602001838152602001828103825284818151815260200191508051906020019080838360005b83811015614ca2578082015181840152602081019050614c87565b50505050905090810190601f168015614ccf5780820380516001836020036101000a031916815260200191505b50935050505060206040518083038186803b158015614ced57600080fd5b505afa158015614d01573d6000803e3d6000fd5b505050506040513d6020811015614d1757600080fd5b8101908080519060200190929190505050905092915050565b600082614d3c81614f23565b614d4557600080fd5b600260009054906101000a900473ffffffffffffffffffffffffffffffffffffffff1673ffffffffffffffffffffffffffffffffffffffff166308acb5566040518060400160405280600a81526020017f474d5365747465724442000000000000000000000000000000000000000000008152508686604051602001808381526020018273ffffffffffffffffffffffffffffffffffffffff1673ffffffffffffffffffffffffffffffffffffffff1660601b8152601401807f6b6974747900000000000000000000000000000000000000000000000000000081525060050192505050604051602081830303815290604052805190602001206040518363ffffffff1660e01b81526004018080602001838152602001828103825284818151815260200191508051906020019080838360005b83811015614e94578082015181840152602081019050614e79565b50505050905090810190601f168015614ec15780820380516001836020036101000a031916815260200191505b50935050505060206040518083038186803b158015614edf57600080fd5b505afa158015614ef3573d6000803e3d6000fd5b505050506040513d6020811015614f0957600080fd5b810190808051906020019092919050505091505092915050565b6000600260009054906101000a900473ffffffffffffffffffffffffffffffffffffffff1673ffffffffffffffffffffffffffffffffffffffff166396edc0096040518060400160405280600a81526020017f474d53657474657244420000000000000000000000000000000000000000000081525060405160200180807f47616d655461626c650000000000000000000000000000000000000000000000815250600901905060405160208183030381529060405280519060200120856040518463ffffffff1660e01b81526004018080602001848152602001838152602001828103825285818151815260200191508051906020019080838360005b8381101561503c578082015181840152602081019050615021565b50505050905090810190601f1680156150695780820380516001836020036101000a031916815260200191505b5094505050505060206040518083038186803b15801561508857600080fd5b505afa15801561509c573d6000803e3d6000fd5b505050506040513d60208110156150b257600080fd5b81019080805190602001909291905050509050919050565b600080600260009054906101000a900473ffffffffffffffffffffffffffffffffffffffff1673ffffffffffffffffffffffffffffffffffffffff1663b93a5b5e6040518060400160405280600a81526020017f474d5365747465724442000000000000000000000000000000000000000000008152508660405160200180828152602001807f706c617965725265640000000000000000000000000000000000000000000000815250600901915050604051602081830303815290604052805190602001206040518363ffffffff1660e01b81526004018080602001838152602001828103825284818151815260200191508051906020019080838360005b838110156151e55780820151818401526020810190506151ca565b50505050905090810190601f1680156152125780820380516001836020036101000a031916815260200191505b50935050505060206040518083038186803b15801561523057600080fd5b505afa158015615244573d6000803e3d6000fd5b505050506040513d602081101561525a57600080fd5b810190808051906020019092919050505090508073ffffffffffffffffffffffffffffffffffffffff168373ffffffffffffffffffffffffffffffffffffffff1614156152ab576001915050615493565b6000600260009054906101000a900473ffffffffffffffffffffffffffffffffffffffff1673ffffffffffffffffffffffffffffffffffffffff1663b93a5b5e6040518060400160405280600a81526020017f474d5365747465724442000000000000000000000000000000000000000000008152508760405160200180828152602001807f706c61796572426c61636b000000000000000000000000000000000000000000815250600b01915050604051602081830303815290604052805190602001206040518363ffffffff1660e01b81526004018080602001838152602001828103825284818151815260200191508051906020019080838360005b838110156153c55780820151818401526020810190506153aa565b50505050905090810190601f1680156153f25780820380516001836020036101000a031916815260200191505b50935050505060206040518083038186803b15801561541057600080fd5b505afa158015615424573d6000803e3d6000fd5b505050506040513d602081101561543a57600080fd5b810190808051906020019092919050505090508073ffffffffffffffffffffffffffffffffffffffff168473ffffffffffffffffffffffffffffffffffffffff16141561548c57600192505050615493565b6000925050505b92915050565b600160009054906101000a900473ffffffffffffffffffffffffffffffffffffffff1681565b6000809054906101000a900473ffffffffffffffffffffffffffffffffffffffff1673ffffffffffffffffffffffffffffffffffffffff163373ffffffffffffffffffffffffffffffffffffffff161461551557fe5b600073ffffffffffffffffffffffffffffffffffffffff168173ffffffffffffffffffffffffffffffffffffffff161461558a57806000806101000a81548173ffffffffffffffffffffffffffffffffffffffff021916908373ffffffffffffffffffffffffffffffffffffffff1602179055505b50565b60008161559981614f23565b6155a257600080fd5b600260009054906101000a900473ffffffffffffffffffffffffffffffffffffffff1673ffffffffffffffffffffffffffffffffffffffff166308acb5566040518060400160405280600a81526020017f474d5365747465724442000000000000000000000000000000000000000000008152508560405160200180828152602001807f7374617465000000000000000000000000000000000000000000000000000000815250600501915050604051602081830303815290604052805190602001206040518363ffffffff1660e01b81526004018080602001838152602001828103825284818151815260200191508051906020019080838360005b838110156156ba57808201518184015260208101905061569f565b50505050905090810190601f1680156156e75780820380516001836020036101000a031916815260200191505b50935050505060206040518083038186803b15801561570557600080fd5b505afa158015615719573d6000803e3d6000fd5b505050506040513d602081101561572f57600080fd5b8101908080519060200190929190505050915050919050565b60008082840190508381101561575a57fe5b8091505092915050565b6040518060400160405280600290602082028038833980820191505090505090565b6040518060400160405280600290602082028038833980820191505090505090565b604051806040016040528060029060208202803883398082019150509050509056fea265627a7a7231582040fef7aa2dff5934efa67302b940c91db6c0fa484c414be973419da2826351bd64736f6c634300050b0032",
  "source": "// This program is free software: you can redistribute it and/or modify\n// it under the terms of the GNU General Public License as published by\n// the Free Software Foundation, either version 3 of the License, or\n// (at your option) any later version.\n\n// This program is distributed in the hope that it will be useful,\n// but WITHOUT ANY WARRANTY; without even the implied warranty of\n// MERCHANTABILITY or FITNESS FOR A PARTICULAR PURPOSE.  See the\n// GNU General Public License for more details.\n\n// You should have received a copy of the GNU General Public License\n// along with this program.  If not, see <http://www.gnu.org/licenses/>.\n\npragma solidity ^0.5.5;\n\nimport \"../proxy/Proxied.sol\";\nimport \"./GenericDB.sol\";\nimport \"../../libs/SafeMath.sol\";\nimport \"../gamemanager/GameStore.sol\";\nimport \"./EndowmentDB.sol\";\nimport \"./ProfileDB.sol\";\nimport \"../registration/Register.sol\";\nimport \"../kittieHELL/KittieHell.sol\";\nimport \"../endowment/EndowmentFund.sol\";\n\n/**\n * @dev Getters for game instances\n * @author @psychoplasma\n */\ncontract GMGetterDB is Proxied {\n\n using SafeMath for uint256;\n\n  GenericDB public genericDB;\n  GameStore public gameStore;\n  EndowmentDB public endowmentDB;\n\n  bytes32 internal constant TABLE_KEY_GAME= keccak256(abi.encodePacked(\"GameTable\"));\n  string internal constant TABLE_NAME_BETTOR = \"BettorTable\";\n\n  modifier onlyExistentGame(uint256 gameId) {\n    require(doesGameExist(gameId));\n    _;\n  }\n  \n  constructor(GenericDB _genericDB) public {\n    setGenericDB(_genericDB);\n  }\n\n  function setGenericDB(GenericDB _genericDB) public onlyOwner {\n    genericDB = _genericDB;\n  }\n\n  function initialize() external onlyOwner {\n    gameStore = GameStore(proxy.getContract(CONTRACT_NAME_GAMESTORE));\n    endowmentDB = EndowmentDB(proxy.getContract(CONTRACT_NAME_ENDOWMENT_DB));\n  }\n\n  /**\n   * @dev get amount of supporters for given game and player\n   */\n  function getSupporters(uint256 gameId, address player)\n    public view\n    returns (uint)\n  {\n    return genericDB.getUintStorage(\n      CONTRACT_NAME_GM_SETTER_DB,\n      keccak256(abi.encodePacked(gameId, player, \"supporters\"))\n    );\n  }\n\n   /**\n   * @dev Updates the total amount of bet in the given game and supported player\n   */\n  function getTotalBet(uint256 gameId, address supportedPlayer) public view returns(uint) {\n    return genericDB.getUintStorage(\n      CONTRACT_NAME_GM_SETTER_DB,\n      keccak256(abi.encodePacked(gameId, supportedPlayer, \"totalBetAmount\"))\n    );\n  }\n\n  function getGamePlayers(uint256 gameId)\n    public view\n    onlyExistentGame(gameId)\n    returns (address playerBlack, address playerRed, uint256 kittyBlack, uint256 kittyRed)\n  {\n    playerBlack = genericDB.getAddressStorage(CONTRACT_NAME_GM_SETTER_DB, keccak256(abi.encodePacked(gameId, \"playerBlack\")));\n    playerRed = genericDB.getAddressStorage(CONTRACT_NAME_GM_SETTER_DB, keccak256(abi.encodePacked(gameId, \"playerRed\")));\n    kittyBlack = genericDB.getUintStorage(CONTRACT_NAME_GM_SETTER_DB, keccak256(abi.encodePacked(gameId, playerBlack, \"kitty\")));\n    kittyRed = genericDB.getUintStorage(CONTRACT_NAME_GM_SETTER_DB, keccak256(abi.encodePacked(gameId, playerRed, \"kitty\")));\n  \n  }\n\n  // function getOpponent(uint gameId, address player) public view returns(address){\n  //   (address playerBlack, address playerRed,,) = getGamePlayers(gameId);\n  //   if(playerBlack == player) return playerRed;\n  //   return playerBlack;\n  // }\n\n  // function getCorner(uint gameId, address player) public view returns(uint){\n  //   (address playerBlack, address playerRed,,) = getGamePlayers(gameId);\n  //   if(playerBlack == player) return 0;\n  //   if(playerRed == player) return 1;\n  //   return 2;\n  // }\n\n /**\n   * @dev check game state, 0-4\n   */\n  function getGameState(uint256 gameId)\n    public view\n    onlyExistentGame(gameId)\n    returns (uint gameState)\n  {\n    return genericDB.getUintStorage(CONTRACT_NAME_GM_SETTER_DB, keccak256(abi.encodePacked(gameId, \"state\")));\n  }\n\n  /**\n   * @dev get fighting kittyId for specific game and player\n   */\n  function getKittieInGame(uint256 gameId, address player)\n    public view\n    onlyExistentGame(gameId)\n    returns (uint)\n  {\n    return genericDB.getUintStorage(CONTRACT_NAME_GM_SETTER_DB, keccak256(abi.encodePacked(gameId, player, \"kitty\")));\n  }\n\n  /**\n   * @dev ?\n   */\n  function getGameTimes(uint256 gameId)\n    public view\n    onlyExistentGame(gameId)\n    returns (uint startTime, uint preStartTime, uint endTime)\n  {\n    startTime = genericDB.getUintStorage(CONTRACT_NAME_GM_SETTER_DB, keccak256(abi.encodePacked(gameId, \"startTime\")));\n    preStartTime = genericDB.getUintStorage(CONTRACT_NAME_GM_SETTER_DB, keccak256(abi.encodePacked(gameId, \"prestartTime\")));\n    endTime = genericDB.getUintStorage(CONTRACT_NAME_GM_SETTER_DB, keccak256(abi.encodePacked(gameId, \"endTime\")));\n  }\n  \n  /**\n   * @dev Checks whether the given player is playing in the given game.\n   */\n  function isPlayer(uint256 gameId, address player) public view returns (bool) {\n    address playerRed = genericDB.getAddressStorage(CONTRACT_NAME_GM_SETTER_DB, keccak256(abi.encodePacked(gameId, \"playerRed\")));\n    if (player == playerRed) {\n      return true;\n    }\n\n    address playerBlack = genericDB.getAddressStorage(CONTRACT_NAME_GM_SETTER_DB, keccak256(abi.encodePacked(gameId, \"playerBlack\")));\n    if (player == playerBlack) {\n      return true;\n    }\n\n    return false;\n  }\n\n  function doesGameExist(uint256 gameId) public view returns (bool) {\n    return genericDB.doesNodeExist(CONTRACT_NAME_GM_SETTER_DB, TABLE_KEY_GAME, gameId);\n  }\n\n  function getGameOfKittie(uint kittieId) public view returns(uint){\n    return genericDB.getUintStorage(CONTRACT_NAME_GM_SETTER_DB, keccak256(abi.encodePacked(kittieId, \"playingGame\")));\n  }\n\n  function getFinalHoneypot(uint256 gameId)\n    public view\n    returns(uint totalEth, uint totalKty )\n  {\n    totalEth = genericDB.getUintStorage(CONTRACT_NAME_GM_SETTER_DB, keccak256(abi.encodePacked(gameId, \"totalEth\")));\n    totalKty = genericDB.getUintStorage(CONTRACT_NAME_GM_SETTER_DB, keccak256(abi.encodePacked(gameId, \"totalKty\")));\n  }\n\n\n  // === FRONTEND GETTERS ===\n  function getFighterByKittieID(uint256 kittieId)\n    public view\n    returns (address owner, bool isDead, uint deathTime, uint kittieHellExp, bool isGhost, bool isPlaying, uint gameId)\n  {\n    (owner, isDead,, isGhost, deathTime) = KittieHell(proxy.getContract(CONTRACT_NAME_KITTIEHELL)).getKittyStatus(kittieId);\n    gameId = getGameOfKittie(kittieId);\n    //If gameId is 0 is not playing, otherwise, it is.\n    isPlaying = (gameId != 0);\n    if(isDead) kittieHellExp = deathTime.add(gameStore.getKittieExpirationTime(gameId));\n  }\n\n  /**\n   * @dev Returns the total amount of bet of the given bettor\n   * and the player supported by that bettor in the game given.\n   */\n  function getSupporterInfo(uint256 gameId, address bettor)\n    public view\n    returns (uint256 betAmount, address supportedPlayer, bool ticketFeePaid, bool hasClaimed)\n  {\n    betAmount = genericDB.getUintStorage(\n      CONTRACT_NAME_GM_SETTER_DB,\n      keccak256(abi.encodePacked(gameId, bettor, \"betAmount\"))\n    );\n    supportedPlayer = genericDB.getAddressStorage(\n      CONTRACT_NAME_GM_SETTER_DB,\n      keccak256(abi.encodePacked(gameId, bettor, \"supportedPlayer\"))\n    );\n\n    ticketFeePaid = genericDB.getBoolStorage(CONTRACT_NAME_GM_SETTER_DB, keccak256(abi.encodePacked(gameId, bettor, \"ticketFeePaid\")));\n    hasClaimed = EndowmentFund(proxy.getContract(CONTRACT_NAME_ENDOWMENT_FUND)).getWithdrawalState(gameId, bettor);\n  }\n\n  /**\n   * @dev Returns players, fighter kitties' ids,\n   * total amount of bet and the timestamp of creation of this game.\n   */\n  function getGameInfo(uint256 gameId)\n    public view\n    onlyExistentGame(gameId)\n    returns (address[2] memory players, uint[2] memory kittieIds, uint state,\n      uint[2] memory supporters, bool[2] memory pressedStart, uint timeCreated, address winner)\n  {\n    // players[0] = genericDB.getAddressStorage(CONTRACT_NAME_GM_SETTER_DB, keccak256(abi.encodePacked(gameId, \"playerBlack\")));\n    // players[1] = genericDB.getAddressStorage(CONTRACT_NAME_GM_SETTER_DB, keccak256(abi.encodePacked(gameId, \"playerRed\")));\n    // kittieIds[0] = genericDB.getUintStorage(CONTRACT_NAME_GM_SETTER_DB, keccak256(abi.encodePacked(gameId, players[0], \"kitty\")));\n    // kittieIds[1] = genericDB.getUintStorage(CONTRACT_NAME_GM_SETTER_DB, keccak256(abi.encodePacked(gameId, players[1], \"kitty\")));\n    (players[0], players[1], kittieIds[0], kittieIds[1]) = getGamePlayers(gameId);\n    // state = genericDB.getUintStorage(CONTRACT_NAME_GM_SETTER_DB, keccak256(abi.encodePacked(gameId, \"state\")));\n    state = getGameState(gameId);\n    // supporters[0] = genericDB.getUintStorage(CONTRACT_NAME_GM_SETTER_DB, keccak256(abi.encodePacked(gameId, players[0], \"supporters\")));\n    // supporters[1] = genericDB.getUintStorage(CONTRACT_NAME_GM_SETTER_DB, keccak256(abi.encodePacked(gameId, players[1], \"supporters\")));\n    supporters[0] = getSupporters(gameId, players[0]);\n    supporters[1] = getSupporters(gameId, players[1]);\n    pressedStart[0] = gameStore.didHitStart(gameId, players[0]);\n    pressedStart[1] = gameStore.didHitStart(gameId, players[1]);\n    timeCreated = genericDB.getUintStorage(CONTRACT_NAME_GM_SETTER_DB, keccak256(abi.encodePacked(gameId, \"createdTime\")));\n    winner = genericDB.getAddressStorage(CONTRACT_NAME_GM_SETTER_DB, keccak256(abi.encodePacked(gameId, \"winner\")));\n  }\n\n  function getHoneypotInfo(uint256 gameId)\n    public view\n    returns(uint honeypotId, uint status, uint initialEth, uint ethTotal, uint[2] memory ethByCorner, uint ktyTotal, uint expTime)\n  {\n    (address playerBlack, address playerRed,,) = getGamePlayers(gameId);\n    honeypotId = genericDB.getUintStorage(CONTRACT_NAME_GM_SETTER_DB, keccak256(abi.encodePacked(gameId, \"honeypotId\")));\n    initialEth = genericDB.getUintStorage(CONTRACT_NAME_GM_SETTER_DB, keccak256(abi.encodePacked(gameId, \"initialEth\")));\n    (ktyTotal, ethTotal) = endowmentDB.getHoneyPotBalance(gameId);\n    ethByCorner[0] = getTotalBet(gameId, playerBlack);\n    ethByCorner[1] = getTotalBet(gameId, playerRed);\n    (status, expTime) = endowmentDB.getHoneypotState(gameId);\n  }\n\n  function getMyInfo(uint256 gameId)\n    public view\n    returns(bool isSupporter, uint supportedCorner, bool isPlayerInGame, uint corner)\n  {\n    isSupporter = genericDB.doesNodeAddrExist(CONTRACT_NAME_GM_SETTER_DB, keccak256(abi.encodePacked(gameId, TABLE_NAME_BETTOR)), msg.sender);\n    address supportedPlayer = genericDB.getAddressStorage(\n      CONTRACT_NAME_GM_SETTER_DB, keccak256(abi.encodePacked(gameId, msg.sender, \"supportedPlayer\")));\n    supportedCorner = gameStore.getCorner(gameId, supportedPlayer);\n    isPlayerInGame = isPlayer(gameId, msg.sender);\n    corner = gameStore.getCorner(gameId, msg.sender);\n  }\n\n  function getPlayer(uint gameId, address player)\n    public view\n    returns(uint kittieId, uint corner, uint betsTotalEth)\n  {\n    kittieId = getKittieInGame(gameId, player);\n    corner = gameStore.getCorner(gameId, player);\n    betsTotalEth = getTotalBet(gameId, player);\n  }\n\n  function getWinners(uint256 gameId)\n    public view\n    returns (address winner, address topBettor, address secondTopBettor)\n  {\n    winner = genericDB.getAddressStorage(CONTRACT_NAME_GM_SETTER_DB,keccak256(abi.encodePacked(gameId, \"winner\")));\n    topBettor = genericDB.getAddressStorage(CONTRACT_NAME_GM_SETTER_DB,keccak256(abi.encodePacked(gameId, \"topBettor\")));\n    secondTopBettor = genericDB.getAddressStorage(CONTRACT_NAME_GM_SETTER_DB,keccak256(abi.encodePacked(gameId, \"secondTopBettor\")));\n  }\n\n  function getAccountInfo(address account)\n    public view\n    returns(bool isRegistered, bool isVerified)\n  {\n    isRegistered = Register(proxy.getContract(CONTRACT_NAME_REGISTER)).isRegistered(account);\n    uint civicId = ProfileDB(proxy.getContract(CONTRACT_NAME_PROFILE_DB)).getCivicId(account);\n    isVerified = civicId > 0;\n  }\n\n}\n",
  "sourcePath": "/home/wafflemakr/Desktop/KittieFight/alpha/contracts/modules/databases/GMGetterDB.sol",
  "compiler": {
    "name": "solc",
    "version": "0.5.11+commit.c082d0b4.Emscripten.clang"
  },
  "schemaVersion": "3.0.11",
  "updatedAt": "2019-08-13T15:12:07.171Z",
  "devdoc": {
    "author": "@psychoplasma",
    "details": "Getters for game instances",
    "methods": {
      "getGameInfo(uint256)": {
        "details": "Returns players, fighter kitties' ids, total amount of bet and the timestamp of creation of this game."
      },
      "getGameState(uint256)": {
        "details": "check game state, 0-4"
      },
      "getGameTimes(uint256)": {
        "details": "?"
      },
      "getKittieInGame(uint256,address)": {
        "details": "get fighting kittyId for specific game and player"
      },
      "getSupporterInfo(uint256,address)": {
        "details": "Returns the total amount of bet of the given bettor and the player supported by that bettor in the game given."
      },
      "getSupporters(uint256,address)": {
        "details": "get amount of supporters for given game and player"
      },
      "getTotalBet(uint256,address)": {
        "details": "Updates the total amount of bet in the given game and supported player"
      },
      "isPlayer(uint256,address)": {
        "details": "Checks whether the given player is playing in the given game."
      }
    }
  },
  "userdoc": {
    "methods": {
      "setProxy(address)": {
        "notice": "Set/update address of Proxy contract"
      }
    }
  }
}