{
  "contractName": "GMGetterDB",
  "abi": [
    {
      "inputs": [
        {
          "internalType": "contract GenericDB",
          "name": "_genericDB",
          "type": "address"
        }
      ],
      "payable": false,
      "stateMutability": "nonpayable",
      "type": "constructor"
    },
    {
      "constant": true,
      "inputs": [],
      "name": "endowmentDB",
      "outputs": [
        {
          "internalType": "contract EndowmentDB",
          "name": "",
          "type": "address"
        }
      ],
      "payable": false,
      "stateMutability": "view",
      "type": "function"
    },
    {
      "constant": true,
      "inputs": [],
      "name": "gameStore",
      "outputs": [
        {
          "internalType": "contract GameStore",
          "name": "",
          "type": "address"
        }
      ],
      "payable": false,
      "stateMutability": "view",
      "type": "function"
    },
    {
      "constant": true,
      "inputs": [],
      "name": "genericDB",
      "outputs": [
        {
          "internalType": "contract GenericDB",
          "name": "",
          "type": "address"
        }
      ],
      "payable": false,
      "stateMutability": "view",
      "type": "function"
    },
    {
      "constant": true,
      "inputs": [],
      "name": "owner",
      "outputs": [
        {
          "internalType": "address payable",
          "name": "",
          "type": "address"
        }
      ],
      "payable": false,
      "stateMutability": "view",
      "type": "function"
    },
    {
      "constant": true,
      "inputs": [],
      "name": "proxy",
      "outputs": [
        {
          "internalType": "contract ProxyBase",
          "name": "",
          "type": "address"
        }
      ],
      "payable": false,
      "stateMutability": "view",
      "type": "function"
    },
    {
      "constant": false,
      "inputs": [
        {
          "internalType": "contract ProxyBase",
          "name": "_proxy",
          "type": "address"
        }
      ],
      "name": "setProxy",
      "outputs": [],
      "payable": false,
      "stateMutability": "nonpayable",
      "type": "function"
    },
    {
      "constant": false,
      "inputs": [
        {
          "internalType": "address payable",
          "name": "newOwner",
          "type": "address"
        }
      ],
      "name": "transferOwnership",
      "outputs": [],
      "payable": false,
      "stateMutability": "nonpayable",
      "type": "function"
    },
    {
      "constant": false,
      "inputs": [
        {
          "internalType": "contract GenericDB",
          "name": "_genericDB",
          "type": "address"
        }
      ],
      "name": "setGenericDB",
      "outputs": [],
      "payable": false,
      "stateMutability": "nonpayable",
      "type": "function"
    },
    {
      "constant": false,
      "inputs": [],
      "name": "initialize",
      "outputs": [],
      "payable": false,
      "stateMutability": "nonpayable",
      "type": "function"
    },
    {
      "constant": true,
      "inputs": [
        {
          "internalType": "uint256",
          "name": "gameId",
          "type": "uint256"
        },
        {
          "internalType": "address",
          "name": "player",
          "type": "address"
        }
      ],
      "name": "getSupporters",
      "outputs": [
        {
          "internalType": "uint256",
          "name": "",
          "type": "uint256"
        }
      ],
      "payable": false,
      "stateMutability": "view",
      "type": "function"
    },
    {
      "constant": true,
      "inputs": [
        {
          "internalType": "uint256",
          "name": "gameId",
          "type": "uint256"
        },
        {
          "internalType": "address",
          "name": "supportedPlayer",
          "type": "address"
        }
      ],
      "name": "getTotalBet",
      "outputs": [
        {
          "internalType": "uint256",
          "name": "",
          "type": "uint256"
        }
      ],
      "payable": false,
      "stateMutability": "view",
      "type": "function"
    },
    {
      "constant": true,
      "inputs": [
        {
          "internalType": "uint256",
          "name": "gameId",
          "type": "uint256"
        }
      ],
      "name": "getGamePlayers",
      "outputs": [
        {
          "internalType": "address",
          "name": "playerBlack",
          "type": "address"
        },
        {
          "internalType": "address",
          "name": "playerRed",
          "type": "address"
        },
        {
          "internalType": "uint256",
          "name": "kittyBlack",
          "type": "uint256"
        },
        {
          "internalType": "uint256",
          "name": "kittyRed",
          "type": "uint256"
        }
      ],
      "payable": false,
      "stateMutability": "view",
      "type": "function"
    },
    {
      "constant": true,
      "inputs": [
        {
          "internalType": "uint256",
          "name": "gameId",
          "type": "uint256"
        }
      ],
      "name": "getGameState",
      "outputs": [
        {
          "internalType": "uint256",
          "name": "gameState",
          "type": "uint256"
        }
      ],
      "payable": false,
      "stateMutability": "view",
      "type": "function"
    },
    {
      "constant": true,
      "inputs": [
        {
          "internalType": "uint256",
          "name": "gameId",
          "type": "uint256"
        },
        {
          "internalType": "address",
          "name": "player",
          "type": "address"
        }
      ],
      "name": "getKittieInGame",
      "outputs": [
        {
          "internalType": "uint256",
          "name": "",
          "type": "uint256"
        }
      ],
      "payable": false,
      "stateMutability": "view",
      "type": "function"
    },
    {
      "constant": true,
      "inputs": [
        {
          "internalType": "uint256",
          "name": "gameId",
          "type": "uint256"
        }
      ],
      "name": "getGameTimes",
      "outputs": [
        {
          "internalType": "uint256",
          "name": "startTime",
          "type": "uint256"
        },
        {
          "internalType": "uint256",
          "name": "preStartTime",
          "type": "uint256"
        },
        {
          "internalType": "uint256",
          "name": "endTime",
          "type": "uint256"
        }
      ],
      "payable": false,
      "stateMutability": "view",
      "type": "function"
    },
    {
      "constant": true,
      "inputs": [
        {
          "internalType": "uint256",
          "name": "gameId",
          "type": "uint256"
        },
        {
          "internalType": "address",
          "name": "player",
          "type": "address"
        }
      ],
      "name": "isPlayer",
      "outputs": [
        {
          "internalType": "bool",
          "name": "",
          "type": "bool"
        }
      ],
      "payable": false,
      "stateMutability": "view",
      "type": "function"
    },
    {
      "constant": true,
      "inputs": [
        {
          "internalType": "uint256",
          "name": "gameId",
          "type": "uint256"
        }
      ],
      "name": "doesGameExist",
      "outputs": [
        {
          "internalType": "bool",
          "name": "",
          "type": "bool"
        }
      ],
      "payable": false,
      "stateMutability": "view",
      "type": "function"
    },
    {
      "constant": true,
      "inputs": [
        {
          "internalType": "uint256",
          "name": "kittieId",
          "type": "uint256"
        }
      ],
      "name": "getGameOfKittie",
      "outputs": [
        {
          "internalType": "uint256",
          "name": "",
          "type": "uint256"
        }
      ],
      "payable": false,
      "stateMutability": "view",
      "type": "function"
    },
    {
      "constant": true,
      "inputs": [
        {
          "internalType": "uint256",
          "name": "gameId",
          "type": "uint256"
        }
      ],
      "name": "getFinalHoneypot",
      "outputs": [
        {
          "internalType": "uint256",
          "name": "totalEth",
          "type": "uint256"
        },
        {
          "internalType": "uint256",
          "name": "totalKty",
          "type": "uint256"
        }
      ],
      "payable": false,
      "stateMutability": "view",
      "type": "function"
    },
    {
      "constant": true,
      "inputs": [
        {
          "internalType": "uint256",
          "name": "gameId",
          "type": "uint256"
        },
        {
          "internalType": "address",
          "name": "player",
          "type": "address"
        }
      ],
      "name": "getPlayerBet",
      "outputs": [
        {
          "internalType": "uint256",
          "name": "playerBet",
          "type": "uint256"
        }
      ],
      "payable": false,
      "stateMutability": "view",
      "type": "function"
    },
    {
      "constant": true,
      "inputs": [
        {
          "internalType": "uint256",
          "name": "kittieId",
          "type": "uint256"
        }
      ],
      "name": "getFighterByKittieID",
      "outputs": [
        {
          "internalType": "address",
          "name": "owner",
          "type": "address"
        },
        {
          "internalType": "bool",
          "name": "isDead",
          "type": "bool"
        },
        {
          "internalType": "uint256",
          "name": "deathTime",
          "type": "uint256"
        },
        {
          "internalType": "uint256",
          "name": "kittieHellExp",
          "type": "uint256"
        },
        {
          "internalType": "bool",
          "name": "isGhost",
          "type": "bool"
        },
        {
          "internalType": "bool",
          "name": "isPlaying",
          "type": "bool"
        },
        {
          "internalType": "uint256",
          "name": "gameId",
          "type": "uint256"
        }
      ],
      "payable": false,
      "stateMutability": "view",
      "type": "function"
    },
    {
      "constant": true,
      "inputs": [
        {
          "internalType": "uint256",
          "name": "gameId",
          "type": "uint256"
        },
        {
          "internalType": "address",
          "name": "bettor",
          "type": "address"
        }
      ],
      "name": "getSupporterInfo",
      "outputs": [
        {
          "internalType": "uint256",
          "name": "betAmount",
          "type": "uint256"
        },
        {
          "internalType": "address",
          "name": "supportedPlayer",
          "type": "address"
        },
        {
          "internalType": "bool",
          "name": "ticketFeePaid",
          "type": "bool"
        },
        {
          "internalType": "bool",
          "name": "hasClaimed",
          "type": "bool"
        }
      ],
      "payable": false,
      "stateMutability": "view",
      "type": "function"
    },
    {
      "constant": true,
      "inputs": [
        {
          "internalType": "uint256",
          "name": "gameId",
          "type": "uint256"
        }
      ],
      "name": "getGameInfo",
      "outputs": [
        {
          "internalType": "address[2]",
          "name": "players",
          "type": "address[2]"
        },
        {
          "internalType": "uint256[2]",
          "name": "kittieIds",
          "type": "uint256[2]"
        },
        {
          "internalType": "uint256",
          "name": "state",
          "type": "uint256"
        },
        {
          "internalType": "uint256[2]",
          "name": "supporters",
          "type": "uint256[2]"
        },
        {
          "internalType": "bool[2]",
          "name": "pressedStart",
          "type": "bool[2]"
        },
        {
          "internalType": "uint256",
          "name": "timeCreated",
          "type": "uint256"
        },
        {
          "internalType": "address",
          "name": "winner",
          "type": "address"
        }
      ],
      "payable": false,
      "stateMutability": "view",
      "type": "function"
    },
    {
      "constant": true,
      "inputs": [
        {
          "internalType": "uint256",
          "name": "gameId",
          "type": "uint256"
        }
      ],
      "name": "getInitialHoneypot",
      "outputs": [
        {
          "internalType": "uint256",
          "name": "initialHoneypotEth",
          "type": "uint256"
        },
        {
          "internalType": "uint256",
          "name": "initialHoneypotKty",
          "type": "uint256"
        }
      ],
      "payable": false,
      "stateMutability": "view",
      "type": "function"
    },
    {
      "constant": true,
      "inputs": [
        {
          "internalType": "uint256",
          "name": "gameId",
          "type": "uint256"
        }
      ],
      "name": "getHoneypotInfo",
      "outputs": [
        {
          "internalType": "uint256",
          "name": "honeypotId",
          "type": "uint256"
        },
        {
          "internalType": "uint256",
          "name": "status",
          "type": "uint256"
        },
        {
          "internalType": "uint256",
          "name": "initialEth",
          "type": "uint256"
        },
        {
          "internalType": "uint256",
          "name": "ethTotal",
          "type": "uint256"
        },
        {
          "internalType": "uint256[2]",
          "name": "ethByCorner",
          "type": "uint256[2]"
        },
        {
          "internalType": "uint256",
          "name": "ktyTotal",
          "type": "uint256"
        },
        {
          "internalType": "uint256",
          "name": "expTime",
          "type": "uint256"
        }
      ],
      "payable": false,
      "stateMutability": "view",
      "type": "function"
    },
    {
      "constant": true,
      "inputs": [
        {
          "internalType": "uint256",
          "name": "gameId",
          "type": "uint256"
        },
        {
          "internalType": "address",
          "name": "sender",
          "type": "address"
        }
      ],
      "name": "getMyInfo",
      "outputs": [
        {
          "internalType": "bool",
          "name": "isSupporter",
          "type": "bool"
        },
        {
          "internalType": "uint256",
          "name": "supportedCorner",
          "type": "uint256"
        },
        {
          "internalType": "bool",
          "name": "isPlayerInGame",
          "type": "bool"
        },
        {
          "internalType": "uint256",
          "name": "corner",
          "type": "uint256"
        }
      ],
      "payable": false,
      "stateMutability": "view",
      "type": "function"
    },
    {
      "constant": true,
      "inputs": [
        {
          "internalType": "uint256",
          "name": "gameId",
          "type": "uint256"
        },
        {
          "internalType": "address",
          "name": "player",
          "type": "address"
        }
      ],
      "name": "getPlayer",
      "outputs": [
        {
          "internalType": "uint256",
          "name": "kittieId",
          "type": "uint256"
        },
        {
          "internalType": "uint256",
          "name": "corner",
          "type": "uint256"
        },
        {
          "internalType": "uint256",
          "name": "betsTotalEth",
          "type": "uint256"
        }
      ],
      "payable": false,
      "stateMutability": "view",
      "type": "function"
    },
    {
      "constant": true,
      "inputs": [
        {
          "internalType": "uint256",
          "name": "gameId",
          "type": "uint256"
        }
      ],
      "name": "getWinners",
      "outputs": [
        {
          "internalType": "address",
          "name": "winner",
          "type": "address"
        },
        {
          "internalType": "address",
          "name": "topBettor",
          "type": "address"
        },
        {
          "internalType": "address",
          "name": "secondTopBettor",
          "type": "address"
        }
      ],
      "payable": false,
      "stateMutability": "view",
      "type": "function"
    },
    {
      "constant": true,
      "inputs": [
        {
          "internalType": "address",
          "name": "account",
          "type": "address"
        }
      ],
      "name": "getAccountInfo",
      "outputs": [
        {
          "internalType": "bool",
          "name": "isRegistered",
          "type": "bool"
        },
        {
          "internalType": "bool",
          "name": "isVerified",
          "type": "bool"
        }
      ],
      "payable": false,
      "stateMutability": "view",
      "type": "function"
    }
  ],
  "bytecode": "0x60806040523480156200001157600080fd5b5060405162005f6438038062005f64833981810160405260208110156200003757600080fd5b8101908080519060200190929190505050336000806101000a81548173ffffffffffffffffffffffffffffffffffffffff021916908373ffffffffffffffffffffffffffffffffffffffff1602179055506200009981620000a060201b60201c565b506200013b565b6000809054906101000a900473ffffffffffffffffffffffffffffffffffffffff1673ffffffffffffffffffffffffffffffffffffffff163373ffffffffffffffffffffffffffffffffffffffff1614620000f757fe5b80600260006101000a81548173ffffffffffffffffffffffffffffffffffffffff021916908373ffffffffffffffffffffffffffffffffffffffff16021790555050565b615e19806200014b6000396000f3fe608060405234801561001057600080fd5b50600436106101cf5760003560e01c80638851470d11610104578063dd99717d116100a2578063e6d3538d11610071578063e6d3538d14610c74578063ec55688914610cda578063f2fde38b14610d24578063ffde0c7414610d68576101cf565b8063dd99717d14610b08578063de4128de14610b6a578063e441dcbf14610bcc578063e6a3d31e14610c2e576101cf565b8063b1be6469116100de578063b1be64691461096f578063bacf524e146109b9578063bd4f6d1e14610a1b578063d5da9dca14610a64576101cf565b80638851470d146108915780638da5cb5b146108e157806397107d6d1461092b576101cf565b8063589ac6a4116101715780636454e58d1161014b5780636454e58d146106dc5780636b1426a41461074c5780637b510fe8146108205780638129fc1c14610887576101cf565b8063589ac6a41461057f578063589ba794146106135780635d06fc0114610692576101cf565b806337507a0c116101ad57806337507a0c1461037857806347e1d550146103ba5780634afab815146104f2578063525a8e4e14610536576101cf565b80630b154c96146101d457806315a40f491461027f5780633564e78c1461032e575b600080fd5b610220600480360360408110156101ea57600080fd5b8101908080359060200190929190803573ffffffffffffffffffffffffffffffffffffffff169060200190929190505050610daa565b604051808581526020018473ffffffffffffffffffffffffffffffffffffffff1673ffffffffffffffffffffffffffffffffffffffff168152602001831515151581526020018215151515815260200194505050505060405180910390f35b6102ab6004803603602081101561029557600080fd5b8101908080359060200190929190505050611547565b604051808573ffffffffffffffffffffffffffffffffffffffff1673ffffffffffffffffffffffffffffffffffffffff1681526020018473ffffffffffffffffffffffffffffffffffffffff1673ffffffffffffffffffffffffffffffffffffffff16815260200183815260200182815260200194505050505060405180910390f35b610336611c56565b604051808273ffffffffffffffffffffffffffffffffffffffff1673ffffffffffffffffffffffffffffffffffffffff16815260200191505060405180910390f35b6103a46004803603602081101561038e57600080fd5b8101908080359060200190929190505050611c7c565b6040518082815260200191505060405180910390f35b6103e6600480360360208110156103d057600080fd5b8101908080359060200190929190505050611e23565b6040518088600260200280838360005b838110156104115780820151818401526020810190506103f6565b5050505090500187600260200280838360005b8381101561043f578082015181840152602081019050610424565b5050505090500186815260200185600260200280838360005b83811015610473578082015181840152602081019050610458565b5050505090500184600260200280838360005b838110156104a1578082015181840152602081019050610486565b505050509050018381526020018273ffffffffffffffffffffffffffffffffffffffff1673ffffffffffffffffffffffffffffffffffffffff16815260200197505050505050505060405180910390f35b6105346004803603602081101561050857600080fd5b81019080803573ffffffffffffffffffffffffffffffffffffffff1690602001909291905050506124eb565b005b6105626004803603602081101561054c57600080fd5b8101908080359060200190929190505050612585565b604051808381526020018281526020019250505060405180910390f35b6105ab6004803603602081101561059557600080fd5b81019080803590602001909291905050506128cd565b6040518088815260200187815260200186815260200185815260200184600260200280838360005b838110156105ee5780820151818401526020810190506105d3565b5050505090500183815260200182815260200197505050505050505060405180910390f35b61065f6004803603604081101561062957600080fd5b8101908080359060200190929190803573ffffffffffffffffffffffffffffffffffffffff169060200190929190505050612dfb565b60405180851515151581526020018481526020018315151515815260200182815260200194505050505060405180910390f35b61069a6133ec565b604051808273ffffffffffffffffffffffffffffffffffffffff1673ffffffffffffffffffffffffffffffffffffffff16815260200191505060405180910390f35b610728600480360360408110156106f257600080fd5b8101908080359060200190929190803573ffffffffffffffffffffffffffffffffffffffff169060200190929190505050613412565b60405180848152602001838152602001828152602001935050505060405180910390f35b6107786004803603602081101561076257600080fd5b810190808035906020019092919050505061351a565b604051808473ffffffffffffffffffffffffffffffffffffffff1673ffffffffffffffffffffffffffffffffffffffff1681526020018373ffffffffffffffffffffffffffffffffffffffff1673ffffffffffffffffffffffffffffffffffffffff1681526020018273ffffffffffffffffffffffffffffffffffffffff1673ffffffffffffffffffffffffffffffffffffffff168152602001935050505060405180910390f35b6108626004803603602081101561083657600080fd5b81019080803573ffffffffffffffffffffffffffffffffffffffff169060200190929190505050613a06565b6040518083151515158152602001821515151581526020019250505060405180910390f35b61088f613e19565b005b6108bd600480360360208110156108a757600080fd5b8101908080359060200190929190505050614181565b60405180848152602001838152602001828152602001935050505060405180910390f35b6108e9614681565b604051808273ffffffffffffffffffffffffffffffffffffffff1673ffffffffffffffffffffffffffffffffffffffff16815260200191505060405180910390f35b61096d6004803603602081101561094157600080fd5b81019080803573ffffffffffffffffffffffffffffffffffffffff1690602001909291905050506146a6565b005b610977614740565b604051808273ffffffffffffffffffffffffffffffffffffffff1673ffffffffffffffffffffffffffffffffffffffff16815260200191505060405180910390f35b610a05600480360360408110156109cf57600080fd5b8101908080359060200190929190803573ffffffffffffffffffffffffffffffffffffffff169060200190929190505050614766565b6040518082815260200191505060405180910390f35b610a4760048036036020811015610a3157600080fd5b8101908080359060200190929190505050614945565b604051808381526020018281526020019250505060405180910390f35b610a9060048036036020811015610a7a57600080fd5b8101908080359060200190929190505050614c8d565b604051808873ffffffffffffffffffffffffffffffffffffffff1673ffffffffffffffffffffffffffffffffffffffff16815260200187151515158152602001868152602001858152602001841515151581526020018315151515815260200182815260200197505050505050505060405180910390f35b610b5460048036036040811015610b1e57600080fd5b8101908080359060200190929190803573ffffffffffffffffffffffffffffffffffffffff169060200190929190505050614f8c565b6040518082815260200191505060405180910390f35b610bb660048036036040811015610b8057600080fd5b8101908080359060200190929190803573ffffffffffffffffffffffffffffffffffffffff16906020019092919050505061516b565b6040518082815260200191505060405180910390f35b610c1860048036036040811015610be257600080fd5b8101908080359060200190929190803573ffffffffffffffffffffffffffffffffffffffff16906020019092919050505061534a565b6040518082815260200191505060405180910390f35b610c5a60048036036020811015610c4457600080fd5b810190808035906020019092919050505061553d565b604051808215151515815260200191505060405180910390f35b610cc060048036036040811015610c8a57600080fd5b8101908080359060200190929190803573ffffffffffffffffffffffffffffffffffffffff1690602001909291905050506156e4565b604051808215151515815260200191505060405180910390f35b610ce2615ab3565b604051808273ffffffffffffffffffffffffffffffffffffffff1673ffffffffffffffffffffffffffffffffffffffff16815260200191505060405180910390f35b610d6660048036036020811015610d3a57600080fd5b81019080803573ffffffffffffffffffffffffffffffffffffffff169060200190929190505050615ad9565b005b610d9460048036036020811015610d7e57600080fd5b8101908080359060200190929190505050615ba7565b6040518082815260200191505060405180910390f35b600080600080600260009054906101000a900473ffffffffffffffffffffffffffffffffffffffff1673ffffffffffffffffffffffffffffffffffffffff166308acb5566040518060400160405280600a81526020017f474d5365747465724442000000000000000000000000000000000000000000008152508888604051602001808381526020018273ffffffffffffffffffffffffffffffffffffffff1673ffffffffffffffffffffffffffffffffffffffff1660601b8152601401807f626574416d6f756e74000000000000000000000000000000000000000000000081525060090192505050604051602081830303815290604052805190602001206040518363ffffffff1660e01b81526004018080602001838152602001828103825284818151815260200191508051906020019080838360005b83811015610eff578082015181840152602081019050610ee4565b50505050905090810190601f168015610f2c5780820380516001836020036101000a031916815260200191505b50935050505060206040518083038186803b158015610f4a57600080fd5b505afa158015610f5e573d6000803e3d6000fd5b505050506040513d6020811015610f7457600080fd5b81019080805190602001909291905050509350600260009054906101000a900473ffffffffffffffffffffffffffffffffffffffff1673ffffffffffffffffffffffffffffffffffffffff1663b93a5b5e6040518060400160405280600a81526020017f474d5365747465724442000000000000000000000000000000000000000000008152508888604051602001808381526020018273ffffffffffffffffffffffffffffffffffffffff1673ffffffffffffffffffffffffffffffffffffffff1660601b8152601401807f737570706f72746564506c617965720000000000000000000000000000000000815250600f0192505050604051602081830303815290604052805190602001206040518363ffffffff1660e01b81526004018080602001838152602001828103825284818151815260200191508051906020019080838360005b838110156110d65780820151818401526020810190506110bb565b50505050905090810190601f1680156111035780820380516001836020036101000a031916815260200191505b50935050505060206040518083038186803b15801561112157600080fd5b505afa158015611135573d6000803e3d6000fd5b505050506040513d602081101561114b57600080fd5b81019080805190602001909291905050509250600260009054906101000a900473ffffffffffffffffffffffffffffffffffffffff1673ffffffffffffffffffffffffffffffffffffffff16631c58c8bb6040518060400160405280600a81526020017f474d5365747465724442000000000000000000000000000000000000000000008152508888604051602001808381526020018273ffffffffffffffffffffffffffffffffffffffff1673ffffffffffffffffffffffffffffffffffffffff1660601b8152601401807f7469636b65744665655061696400000000000000000000000000000000000000815250600d0192505050604051602081830303815290604052805190602001206040518363ffffffff1660e01b81526004018080602001838152602001828103825284818151815260200191508051906020019080838360005b838110156112ad578082015181840152602081019050611292565b50505050905090810190601f1680156112da5780820380516001836020036101000a031916815260200191505b50935050505060206040518083038186803b1580156112f857600080fd5b505afa15801561130c573d6000803e3d6000fd5b505050506040513d602081101561132257600080fd5b81019080805190602001909291905050509150600160009054906101000a900473ffffffffffffffffffffffffffffffffffffffff1673ffffffffffffffffffffffffffffffffffffffff1663358177736040518060400160405280600d81526020017f456e646f776d656e7446756e64000000000000000000000000000000000000008152506040518263ffffffff1660e01b81526004018080602001828103825283818151815260200191508051906020019080838360005b838110156113f85780820151818401526020810190506113dd565b50505050905090810190601f1680156114255780820380516001836020036101000a031916815260200191505b509250505060206040518083038186803b15801561144257600080fd5b505afa158015611456573d6000803e3d6000fd5b505050506040513d602081101561146c57600080fd5b810190808051906020019092919050505073ffffffffffffffffffffffffffffffffffffffff1663ca2a188687876040518363ffffffff1660e01b8152600401808381526020018273ffffffffffffffffffffffffffffffffffffffff1673ffffffffffffffffffffffffffffffffffffffff1681526020019250505060206040518083038186803b15801561150157600080fd5b505afa158015611515573d6000803e3d6000fd5b505050506040513d602081101561152b57600080fd5b8101908080519060200190929190505050905092959194509250565b600080600080846115578161553d565b61156057600080fd5b600260009054906101000a900473ffffffffffffffffffffffffffffffffffffffff1673ffffffffffffffffffffffffffffffffffffffff1663b93a5b5e6040518060400160405280600a81526020017f474d5365747465724442000000000000000000000000000000000000000000008152508860405160200180828152602001807f706c61796572426c61636b000000000000000000000000000000000000000000815250600b01915050604051602081830303815290604052805190602001206040518363ffffffff1660e01b81526004018080602001838152602001828103825284818151815260200191508051906020019080838360005b8381101561167857808201518184015260208101905061165d565b50505050905090810190601f1680156116a55780820380516001836020036101000a031916815260200191505b50935050505060206040518083038186803b1580156116c357600080fd5b505afa1580156116d7573d6000803e3d6000fd5b505050506040513d60208110156116ed57600080fd5b81019080805190602001909291905050509450600260009054906101000a900473ffffffffffffffffffffffffffffffffffffffff1673ffffffffffffffffffffffffffffffffffffffff1663b93a5b5e6040518060400160405280600a81526020017f474d5365747465724442000000000000000000000000000000000000000000008152508860405160200180828152602001807f706c617965725265640000000000000000000000000000000000000000000000815250600901915050604051602081830303815290604052805190602001206040518363ffffffff1660e01b81526004018080602001838152602001828103825284818151815260200191508051906020019080838360005b838110156118185780820151818401526020810190506117fd565b50505050905090810190601f1680156118455780820380516001836020036101000a031916815260200191505b50935050505060206040518083038186803b15801561186357600080fd5b505afa158015611877573d6000803e3d6000fd5b505050506040513d602081101561188d57600080fd5b81019080805190602001909291905050509350600260009054906101000a900473ffffffffffffffffffffffffffffffffffffffff1673ffffffffffffffffffffffffffffffffffffffff166308acb5566040518060400160405280600a81526020017f474d5365747465724442000000000000000000000000000000000000000000008152508888604051602001808381526020018273ffffffffffffffffffffffffffffffffffffffff1673ffffffffffffffffffffffffffffffffffffffff1660601b8152601401807f6b6974747900000000000000000000000000000000000000000000000000000081525060050192505050604051602081830303815290604052805190602001206040518363ffffffff1660e01b81526004018080602001838152602001828103825284818151815260200191508051906020019080838360005b838110156119ef5780820151818401526020810190506119d4565b50505050905090810190601f168015611a1c5780820380516001836020036101000a031916815260200191505b50935050505060206040518083038186803b158015611a3a57600080fd5b505afa158015611a4e573d6000803e3d6000fd5b505050506040513d6020811015611a6457600080fd5b81019080805190602001909291905050509250600260009054906101000a900473ffffffffffffffffffffffffffffffffffffffff1673ffffffffffffffffffffffffffffffffffffffff166308acb5566040518060400160405280600a81526020017f474d5365747465724442000000000000000000000000000000000000000000008152508887604051602001808381526020018273ffffffffffffffffffffffffffffffffffffffff1673ffffffffffffffffffffffffffffffffffffffff1660601b8152601401807f6b6974747900000000000000000000000000000000000000000000000000000081525060050192505050604051602081830303815290604052805190602001206040518363ffffffff1660e01b81526004018080602001838152602001828103825284818151815260200191508051906020019080838360005b83811015611bc6578082015181840152602081019050611bab565b50505050905090810190601f168015611bf35780820380516001836020036101000a031916815260200191505b50935050505060206040518083038186803b158015611c1157600080fd5b505afa158015611c25573d6000803e3d6000fd5b505050506040513d6020811015611c3b57600080fd5b81019080805190602001909291905050509150509193509193565b600260009054906101000a900473ffffffffffffffffffffffffffffffffffffffff1681565b6000600260009054906101000a900473ffffffffffffffffffffffffffffffffffffffff1673ffffffffffffffffffffffffffffffffffffffff166308acb5566040518060400160405280600a81526020017f474d5365747465724442000000000000000000000000000000000000000000008152508460405160200180828152602001807f706c6179696e6747616d65000000000000000000000000000000000000000000815250600b01915050604051602081830303815290604052805190602001206040518363ffffffff1660e01b81526004018080602001838152602001828103825284818151815260200191508051906020019080838360005b83811015611d96578082015181840152602081019050611d7b565b50505050905090810190601f168015611dc35780820380516001836020036101000a031916815260200191505b50935050505060206040518083038186803b158015611de157600080fd5b505afa158015611df5573d6000803e3d6000fd5b505050506040513d6020811015611e0b57600080fd5b81019080805190602001909291905050509050919050565b611e2b615d7e565b611e33615da0565b6000611e3d615da0565b611e45615dc2565b60008087611e528161553d565b611e5b57600080fd5b611e6489611547565b8b600060028110611e7157fe5b602002018c600160028110611e8257fe5b602002018c600060028110611e9357fe5b602002018d600160028110611ea457fe5b6020020184815250848152508473ffffffffffffffffffffffffffffffffffffffff1673ffffffffffffffffffffffffffffffffffffffff168152508473ffffffffffffffffffffffffffffffffffffffff1673ffffffffffffffffffffffffffffffffffffffff1681525050505050611f1d89615ba7565b9550611f3a8989600060028110611f3057fe5b602002015161516b565b85600060028110611f4757fe5b602002018181525050611f6b8989600160028110611f6157fe5b602002015161516b565b85600160028110611f7857fe5b602002018181525050600360009054906101000a900473ffffffffffffffffffffffffffffffffffffffff1673ffffffffffffffffffffffffffffffffffffffff1663ebff754a8a8a600060028110611fcd57fe5b60200201516040518363ffffffff1660e01b8152600401808381526020018273ffffffffffffffffffffffffffffffffffffffff1673ffffffffffffffffffffffffffffffffffffffff1681526020019250505060206040518083038186803b15801561203957600080fd5b505afa15801561204d573d6000803e3d6000fd5b505050506040513d602081101561206357600080fd5b81019080805190602001909291905050508460006002811061208157fe5b602002019015159081151581525050600360009054906101000a900473ffffffffffffffffffffffffffffffffffffffff1673ffffffffffffffffffffffffffffffffffffffff1663ebff754a8a8a6001600281106120dc57fe5b60200201516040518363ffffffff1660e01b8152600401808381526020018273ffffffffffffffffffffffffffffffffffffffff1673ffffffffffffffffffffffffffffffffffffffff1681526020019250505060206040518083038186803b15801561214857600080fd5b505afa15801561215c573d6000803e3d6000fd5b505050506040513d602081101561217257600080fd5b81019080805190602001909291905050508460016002811061219057fe5b602002019015159081151581525050600260009054906101000a900473ffffffffffffffffffffffffffffffffffffffff1673ffffffffffffffffffffffffffffffffffffffff166308acb5566040518060400160405280600a81526020017f474d5365747465724442000000000000000000000000000000000000000000008152508b60405160200180828152602001807f6372656174656454696d65000000000000000000000000000000000000000000815250600b01915050604051602081830303815290604052805190602001206040518363ffffffff1660e01b81526004018080602001838152602001828103825284818151815260200191508051906020019080838360005b838110156122b757808201518184015260208101905061229c565b50505050905090810190601f1680156122e45780820380516001836020036101000a031916815260200191505b50935050505060206040518083038186803b15801561230257600080fd5b505afa158015612316573d6000803e3d6000fd5b505050506040513d602081101561232c57600080fd5b81019080805190602001909291905050509250600260009054906101000a900473ffffffffffffffffffffffffffffffffffffffff1673ffffffffffffffffffffffffffffffffffffffff1663b93a5b5e6040518060400160405280600a81526020017f474d5365747465724442000000000000000000000000000000000000000000008152508b60405160200180828152602001807f77696e6e65720000000000000000000000000000000000000000000000000000815250600601915050604051602081830303815290604052805190602001206040518363ffffffff1660e01b81526004018080602001838152602001828103825284818151815260200191508051906020019080838360005b8381101561245757808201518184015260208101905061243c565b50505050905090810190601f1680156124845780820380516001836020036101000a031916815260200191505b50935050505060206040518083038186803b1580156124a257600080fd5b505afa1580156124b6573d6000803e3d6000fd5b505050506040513d60208110156124cc57600080fd5b8101908080519060200190929190505050915050919395979092949650565b6000809054906101000a900473ffffffffffffffffffffffffffffffffffffffff1673ffffffffffffffffffffffffffffffffffffffff163373ffffffffffffffffffffffffffffffffffffffff161461254157fe5b80600260006101000a81548173ffffffffffffffffffffffffffffffffffffffff021916908373ffffffffffffffffffffffffffffffffffffffff16021790555050565b600080600260009054906101000a900473ffffffffffffffffffffffffffffffffffffffff1673ffffffffffffffffffffffffffffffffffffffff166308acb5566040518060400160405280600a81526020017f474d5365747465724442000000000000000000000000000000000000000000008152508560405160200180828152602001807f746f74616c457468000000000000000000000000000000000000000000000000815250600801915050604051602081830303815290604052805190602001206040518363ffffffff1660e01b81526004018080602001838152602001828103825284818151815260200191508051906020019080838360005b838110156126a0578082015181840152602081019050612685565b50505050905090810190601f1680156126cd5780820380516001836020036101000a031916815260200191505b50935050505060206040518083038186803b1580156126eb57600080fd5b505afa1580156126ff573d6000803e3d6000fd5b505050506040513d602081101561271557600080fd5b81019080805190602001909291905050509150600260009054906101000a900473ffffffffffffffffffffffffffffffffffffffff1673ffffffffffffffffffffffffffffffffffffffff166308acb5566040518060400160405280600a81526020017f474d5365747465724442000000000000000000000000000000000000000000008152508560405160200180828152602001807f746f74616c4b7479000000000000000000000000000000000000000000000000815250600801915050604051602081830303815290604052805190602001206040518363ffffffff1660e01b81526004018080602001838152602001828103825284818151815260200191508051906020019080838360005b83811015612840578082015181840152602081019050612825565b50505050905090810190601f16801561286d5780820380516001836020036101000a031916815260200191505b50935050505060206040518083038186803b15801561288b57600080fd5b505afa15801561289f573d6000803e3d6000fd5b505050506040513d60208110156128b557600080fd5b81019080805190602001909291905050509050915091565b6000806000806128db615da0565b6000806000806128ea8a611547565b505091509150600260009054906101000a900473ffffffffffffffffffffffffffffffffffffffff1673ffffffffffffffffffffffffffffffffffffffff166308acb5566040518060400160405280600a81526020017f474d5365747465724442000000000000000000000000000000000000000000008152508c60405160200180828152602001807f686f6e6579706f74496400000000000000000000000000000000000000000000815250600a01915050604051602081830303815290604052805190602001206040518363ffffffff1660e01b81526004018080602001838152602001828103825284818151815260200191508051906020019080838360005b83811015612a085780820151818401526020810190506129ed565b50505050905090810190601f168015612a355780820380516001836020036101000a031916815260200191505b50935050505060206040518083038186803b158015612a5357600080fd5b505afa158015612a67573d6000803e3d6000fd5b505050506040513d6020811015612a7d57600080fd5b81019080805190602001909291905050509850600260009054906101000a900473ffffffffffffffffffffffffffffffffffffffff1673ffffffffffffffffffffffffffffffffffffffff166308acb5566040518060400160405280600a81526020017f474d5365747465724442000000000000000000000000000000000000000000008152508c60405160200180828152602001807f696e697469616c45746800000000000000000000000000000000000000000000815250600a01915050604051602081830303815290604052805190602001206040518363ffffffff1660e01b81526004018080602001838152602001828103825284818151815260200191508051906020019080838360005b83811015612ba8578082015181840152602081019050612b8d565b50505050905090810190601f168015612bd55780820380516001836020036101000a031916815260200191505b50935050505060206040518083038186803b158015612bf357600080fd5b505afa158015612c07573d6000803e3d6000fd5b505050506040513d6020811015612c1d57600080fd5b81019080805190602001909291905050509650600460009054906101000a900473ffffffffffffffffffffffffffffffffffffffff1673ffffffffffffffffffffffffffffffffffffffff1663d6f203098b6040518263ffffffff1660e01b815260040180828152602001915050604080518083038186803b158015612ca257600080fd5b505afa158015612cb6573d6000803e3d6000fd5b505050506040513d6040811015612ccc57600080fd5b8101908080519060200190929190805190602001909291905050508097508195505050612cf98a83614766565b85600060028110612d0657fe5b602002018181525050612d198a82614766565b85600160028110612d2657fe5b602002018181525050600460009054906101000a900473ffffffffffffffffffffffffffffffffffffffff1673ffffffffffffffffffffffffffffffffffffffff16636933bbd78b6040518263ffffffff1660e01b815260040180828152602001915050604080518083038186803b158015612da157600080fd5b505afa158015612db5573d6000803e3d6000fd5b505050506040513d6040811015612dcb57600080fd5b81019080805190602001909291908051906020019092919050505080945081995050505050919395979092949650565b600080600080600260009054906101000a900473ffffffffffffffffffffffffffffffffffffffff1673ffffffffffffffffffffffffffffffffffffffff16638445d70f6040518060400160405280600a81526020017f474d536574746572444200000000000000000000000000000000000000000000815250886040518060400160405280600b81526020017f426574746f725461626c650000000000000000000000000000000000000000008152506040516020018083815260200182805190602001908083835b60208310612ee85780518252602082019150602081019050602083039250612ec5565b6001836020036101000a0380198251168184511680821785525050505050509050019250505060405160208183030381529060405280519060200120886040518463ffffffff1660e01b815260040180806020018481526020018373ffffffffffffffffffffffffffffffffffffffff1673ffffffffffffffffffffffffffffffffffffffff168152602001828103825285818151815260200191508051906020019080838360005b83811015612fac578082015181840152602081019050612f91565b50505050905090810190601f168015612fd95780820380516001836020036101000a031916815260200191505b5094505050505060206040518083038186803b158015612ff857600080fd5b505afa15801561300c573d6000803e3d6000fd5b505050506040513d602081101561302257600080fd5b810190808051906020019092919050505093506000600260009054906101000a900473ffffffffffffffffffffffffffffffffffffffff1673ffffffffffffffffffffffffffffffffffffffff1663b93a5b5e6040518060400160405280600a81526020017f474d5365747465724442000000000000000000000000000000000000000000008152508989604051602001808381526020018273ffffffffffffffffffffffffffffffffffffffff1673ffffffffffffffffffffffffffffffffffffffff1660601b8152601401807f737570706f72746564506c617965720000000000000000000000000000000000815250600f0192505050604051602081830303815290604052805190602001206040518363ffffffff1660e01b81526004018080602001838152602001828103825284818151815260200191508051906020019080838360005b8381101561318657808201518184015260208101905061316b565b50505050905090810190601f1680156131b35780820380516001836020036101000a031916815260200191505b50935050505060206040518083038186803b1580156131d157600080fd5b505afa1580156131e5573d6000803e3d6000fd5b505050506040513d60208110156131fb57600080fd5b81019080805190602001909291905050509050600360009054906101000a900473ffffffffffffffffffffffffffffffffffffffff1673ffffffffffffffffffffffffffffffffffffffff1663f9ccbdf288836040518363ffffffff1660e01b8152600401808381526020018273ffffffffffffffffffffffffffffffffffffffff1673ffffffffffffffffffffffffffffffffffffffff1681526020019250505060206040518083038186803b1580156132b557600080fd5b505afa1580156132c9573d6000803e3d6000fd5b505050506040513d60208110156132df57600080fd5b810190808051906020019092919050505093506132fc87876156e4565b9250600360009054906101000a900473ffffffffffffffffffffffffffffffffffffffff1673ffffffffffffffffffffffffffffffffffffffff1663f9ccbdf288886040518363ffffffff1660e01b8152600401808381526020018273ffffffffffffffffffffffffffffffffffffffff1673ffffffffffffffffffffffffffffffffffffffff1681526020019250505060206040518083038186803b1580156133a557600080fd5b505afa1580156133b9573d6000803e3d6000fd5b505050506040513d60208110156133cf57600080fd5b810190808051906020019092919050505091505092959194509250565b600460009054906101000a900473ffffffffffffffffffffffffffffffffffffffff1681565b6000806000613421858561534a565b9250600360009054906101000a900473ffffffffffffffffffffffffffffffffffffffff1673ffffffffffffffffffffffffffffffffffffffff1663f9ccbdf286866040518363ffffffff1660e01b8152600401808381526020018273ffffffffffffffffffffffffffffffffffffffff1673ffffffffffffffffffffffffffffffffffffffff1681526020019250505060206040518083038186803b1580156134ca57600080fd5b505afa1580156134de573d6000803e3d6000fd5b505050506040513d60208110156134f457600080fd5b810190808051906020019092919050505091506135118585614766565b90509250925092565b6000806000600260009054906101000a900473ffffffffffffffffffffffffffffffffffffffff1673ffffffffffffffffffffffffffffffffffffffff1663b93a5b5e6040518060400160405280600a81526020017f474d5365747465724442000000000000000000000000000000000000000000008152508660405160200180828152602001807f77696e6e65720000000000000000000000000000000000000000000000000000815250600601915050604051602081830303815290604052805190602001206040518363ffffffff1660e01b81526004018080602001838152602001828103825284818151815260200191508051906020019080838360005b8381101561363757808201518184015260208101905061361c565b50505050905090810190601f1680156136645780820380516001836020036101000a031916815260200191505b50935050505060206040518083038186803b15801561368257600080fd5b505afa158015613696573d6000803e3d6000fd5b505050506040513d60208110156136ac57600080fd5b81019080805190602001909291905050509250600260009054906101000a900473ffffffffffffffffffffffffffffffffffffffff1673ffffffffffffffffffffffffffffffffffffffff1663b93a5b5e6040518060400160405280600a81526020017f474d5365747465724442000000000000000000000000000000000000000000008152508660405160200180828152602001807f746f70426574746f720000000000000000000000000000000000000000000000815250600901915050604051602081830303815290604052805190602001206040518363ffffffff1660e01b81526004018080602001838152602001828103825284818151815260200191508051906020019080838360005b838110156137d75780820151818401526020810190506137bc565b50505050905090810190601f1680156138045780820380516001836020036101000a031916815260200191505b50935050505060206040518083038186803b15801561382257600080fd5b505afa158015613836573d6000803e3d6000fd5b505050506040513d602081101561384c57600080fd5b81019080805190602001909291905050509150600260009054906101000a900473ffffffffffffffffffffffffffffffffffffffff1673ffffffffffffffffffffffffffffffffffffffff1663b93a5b5e6040518060400160405280600a81526020017f474d5365747465724442000000000000000000000000000000000000000000008152508660405160200180828152602001807f7365636f6e64546f70426574746f720000000000000000000000000000000000815250600f01915050604051602081830303815290604052805190602001206040518363ffffffff1660e01b81526004018080602001838152602001828103825284818151815260200191508051906020019080838360005b8381101561397757808201518184015260208101905061395c565b50505050905090810190601f1680156139a45780820380516001836020036101000a031916815260200191505b50935050505060206040518083038186803b1580156139c257600080fd5b505afa1580156139d6573d6000803e3d6000fd5b505050506040513d60208110156139ec57600080fd5b810190808051906020019092919050505090509193909250565b600080600160009054906101000a900473ffffffffffffffffffffffffffffffffffffffff1673ffffffffffffffffffffffffffffffffffffffff1663358177736040518060400160405280600881526020017f52656769737465720000000000000000000000000000000000000000000000008152506040518263ffffffff1660e01b81526004018080602001828103825283818151815260200191508051906020019080838360005b83811015613acc578082015181840152602081019050613ab1565b50505050905090810190601f168015613af95780820380516001836020036101000a031916815260200191505b509250505060206040518083038186803b158015613b1657600080fd5b505afa158015613b2a573d6000803e3d6000fd5b505050506040513d6020811015613b4057600080fd5b810190808051906020019092919050505073ffffffffffffffffffffffffffffffffffffffff1663c3c5a547846040518263ffffffff1660e01b8152600401808273ffffffffffffffffffffffffffffffffffffffff1673ffffffffffffffffffffffffffffffffffffffff16815260200191505060206040518083038186803b158015613bcd57600080fd5b505afa158015613be1573d6000803e3d6000fd5b505050506040513d6020811015613bf757600080fd5b810190808051906020019092919050505091506000600160009054906101000a900473ffffffffffffffffffffffffffffffffffffffff1673ffffffffffffffffffffffffffffffffffffffff1663358177736040518060400160405280600981526020017f50726f66696c65444200000000000000000000000000000000000000000000008152506040518263ffffffff1660e01b81526004018080602001828103825283818151815260200191508051906020019080838360005b83811015613ccf578082015181840152602081019050613cb4565b50505050905090810190601f168015613cfc5780820380516001836020036101000a031916815260200191505b509250505060206040518083038186803b158015613d1957600080fd5b505afa158015613d2d573d6000803e3d6000fd5b505050506040513d6020811015613d4357600080fd5b810190808051906020019092919050505073ffffffffffffffffffffffffffffffffffffffff1663a984d640856040518263ffffffff1660e01b8152600401808273ffffffffffffffffffffffffffffffffffffffff1673ffffffffffffffffffffffffffffffffffffffff16815260200191505060206040518083038186803b158015613dd057600080fd5b505afa158015613de4573d6000803e3d6000fd5b505050506040513d6020811015613dfa57600080fd5b8101908080519060200190929190505050905060008111915050915091565b6000809054906101000a900473ffffffffffffffffffffffffffffffffffffffff1673ffffffffffffffffffffffffffffffffffffffff163373ffffffffffffffffffffffffffffffffffffffff1614613e6f57fe5b600160009054906101000a900473ffffffffffffffffffffffffffffffffffffffff1673ffffffffffffffffffffffffffffffffffffffff1663358177736040518060400160405280600981526020017f47616d6553746f726500000000000000000000000000000000000000000000008152506040518263ffffffff1660e01b81526004018080602001828103825283818151815260200191508051906020019080838360005b83811015613f32578082015181840152602081019050613f17565b50505050905090810190601f168015613f5f5780820380516001836020036101000a031916815260200191505b509250505060206040518083038186803b158015613f7c57600080fd5b505afa158015613f90573d6000803e3d6000fd5b505050506040513d6020811015613fa657600080fd5b8101908080519060200190929190505050600360006101000a81548173ffffffffffffffffffffffffffffffffffffffff021916908373ffffffffffffffffffffffffffffffffffffffff160217905550600160009054906101000a900473ffffffffffffffffffffffffffffffffffffffff1673ffffffffffffffffffffffffffffffffffffffff1663358177736040518060400160405280600b81526020017f456e646f776d656e7444420000000000000000000000000000000000000000008152506040518263ffffffff1660e01b81526004018080602001828103825283818151815260200191508051906020019080838360005b838110156140ba57808201518184015260208101905061409f565b50505050905090810190601f1680156140e75780820380516001836020036101000a031916815260200191505b509250505060206040518083038186803b15801561410457600080fd5b505afa158015614118573d6000803e3d6000fd5b505050506040513d602081101561412e57600080fd5b8101908080519060200190929190505050600460006101000a81548173ffffffffffffffffffffffffffffffffffffffff021916908373ffffffffffffffffffffffffffffffffffffffff160217905550565b6000806000836141908161553d565b61419957600080fd5b600260009054906101000a900473ffffffffffffffffffffffffffffffffffffffff1673ffffffffffffffffffffffffffffffffffffffff166308acb5566040518060400160405280600a81526020017f474d5365747465724442000000000000000000000000000000000000000000008152508760405160200180828152602001807f737461727454696d650000000000000000000000000000000000000000000000815250600901915050604051602081830303815290604052805190602001206040518363ffffffff1660e01b81526004018080602001838152602001828103825284818151815260200191508051906020019080838360005b838110156142b1578082015181840152602081019050614296565b50505050905090810190601f1680156142de5780820380516001836020036101000a031916815260200191505b50935050505060206040518083038186803b1580156142fc57600080fd5b505afa158015614310573d6000803e3d6000fd5b505050506040513d602081101561432657600080fd5b81019080805190602001909291905050509350600260009054906101000a900473ffffffffffffffffffffffffffffffffffffffff1673ffffffffffffffffffffffffffffffffffffffff166308acb5566040518060400160405280600a81526020017f474d5365747465724442000000000000000000000000000000000000000000008152508760405160200180828152602001807f707265737461727454696d650000000000000000000000000000000000000000815250600c01915050604051602081830303815290604052805190602001206040518363ffffffff1660e01b81526004018080602001838152602001828103825284818151815260200191508051906020019080838360005b83811015614451578082015181840152602081019050614436565b50505050905090810190601f16801561447e5780820380516001836020036101000a031916815260200191505b50935050505060206040518083038186803b15801561449c57600080fd5b505afa1580156144b0573d6000803e3d6000fd5b505050506040513d60208110156144c657600080fd5b81019080805190602001909291905050509250600260009054906101000a900473ffffffffffffffffffffffffffffffffffffffff1673ffffffffffffffffffffffffffffffffffffffff166308acb5566040518060400160405280600a81526020017f474d5365747465724442000000000000000000000000000000000000000000008152508760405160200180828152602001807f656e6454696d6500000000000000000000000000000000000000000000000000815250600701915050604051602081830303815290604052805190602001206040518363ffffffff1660e01b81526004018080602001838152602001828103825284818151815260200191508051906020019080838360005b838110156145f15780820151818401526020810190506145d6565b50505050905090810190601f16801561461e5780820380516001836020036101000a031916815260200191505b50935050505060206040518083038186803b15801561463c57600080fd5b505afa158015614650573d6000803e3d6000fd5b505050506040513d602081101561466657600080fd5b81019080805190602001909291905050509150509193909250565b6000809054906101000a900473ffffffffffffffffffffffffffffffffffffffff1681565b6000809054906101000a900473ffffffffffffffffffffffffffffffffffffffff1673ffffffffffffffffffffffffffffffffffffffff163373ffffffffffffffffffffffffffffffffffffffff16146146fc57fe5b80600160006101000a81548173ffffffffffffffffffffffffffffffffffffffff021916908373ffffffffffffffffffffffffffffffffffffffff16021790555050565b600360009054906101000a900473ffffffffffffffffffffffffffffffffffffffff1681565b6000600260009054906101000a900473ffffffffffffffffffffffffffffffffffffffff1673ffffffffffffffffffffffffffffffffffffffff166308acb5566040518060400160405280600a81526020017f474d5365747465724442000000000000000000000000000000000000000000008152508585604051602001808381526020018273ffffffffffffffffffffffffffffffffffffffff1673ffffffffffffffffffffffffffffffffffffffff1660601b8152601401807f746f74616c426574416d6f756e74000000000000000000000000000000000000815250600e0192505050604051602081830303815290604052805190602001206040518363ffffffff1660e01b81526004018080602001838152602001828103825284818151815260200191508051906020019080838360005b838110156148b757808201518184015260208101905061489c565b50505050905090810190601f1680156148e45780820380516001836020036101000a031916815260200191505b50935050505060206040518083038186803b15801561490257600080fd5b505afa158015614916573d6000803e3d6000fd5b505050506040513d602081101561492c57600080fd5b8101908080519060200190929190505050905092915050565b600080600260009054906101000a900473ffffffffffffffffffffffffffffffffffffffff1673ffffffffffffffffffffffffffffffffffffffff166308acb5566040518060400160405280600a81526020017f474d5365747465724442000000000000000000000000000000000000000000008152508560405160200180828152602001807f696e697469616c45746800000000000000000000000000000000000000000000815250600a01915050604051602081830303815290604052805190602001206040518363ffffffff1660e01b81526004018080602001838152602001828103825284818151815260200191508051906020019080838360005b83811015614a60578082015181840152602081019050614a45565b50505050905090810190601f168015614a8d5780820380516001836020036101000a031916815260200191505b50935050505060206040518083038186803b158015614aab57600080fd5b505afa158015614abf573d6000803e3d6000fd5b505050506040513d6020811015614ad557600080fd5b81019080805190602001909291905050509150600260009054906101000a900473ffffffffffffffffffffffffffffffffffffffff1673ffffffffffffffffffffffffffffffffffffffff166308acb5566040518060400160405280600a81526020017f474d5365747465724442000000000000000000000000000000000000000000008152508560405160200180828152602001807f696e697469616c4b747900000000000000000000000000000000000000000000815250600a01915050604051602081830303815290604052805190602001206040518363ffffffff1660e01b81526004018080602001838152602001828103825284818151815260200191508051906020019080838360005b83811015614c00578082015181840152602081019050614be5565b50505050905090810190601f168015614c2d5780820380516001836020036101000a031916815260200191505b50935050505060206040518083038186803b158015614c4b57600080fd5b505afa158015614c5f573d6000803e3d6000fd5b505050506040513d6020811015614c7557600080fd5b81019080805190602001909291905050509050915091565b6000806000806000806000600160009054906101000a900473ffffffffffffffffffffffffffffffffffffffff1673ffffffffffffffffffffffffffffffffffffffff1663358177736040518060400160405280600a81526020017f4b697474696548656c6c000000000000000000000000000000000000000000008152506040518263ffffffff1660e01b81526004018080602001828103825283818151815260200191508051906020019080838360005b83811015614d5b578082015181840152602081019050614d40565b50505050905090810190601f168015614d885780820380516001836020036101000a031916815260200191505b509250505060206040518083038186803b158015614da557600080fd5b505afa158015614db9573d6000803e3d6000fd5b505050506040513d6020811015614dcf57600080fd5b810190808051906020019092919050505073ffffffffffffffffffffffffffffffffffffffff16636889364c896040518263ffffffff1660e01b81526004018082815260200191505060a06040518083038186803b158015614e3057600080fd5b505afa158015614e44573d6000803e3d6000fd5b505050506040513d60a0811015614e5a57600080fd5b810190808051906020019092919080519060200190929190805190602001909291908051906020019092919080519060200190929190505050909150809850819650829950839a5050505050614eaf88611c7c565b9050600081141591508515614f8157614f7e600360009054906101000a900473ffffffffffffffffffffffffffffffffffffffff1673ffffffffffffffffffffffffffffffffffffffff16633c38d0a9836040518263ffffffff1660e01b81526004018082815260200191505060206040518083038186803b158015614f3457600080fd5b505afa158015614f48573d6000803e3d6000fd5b505050506040513d6020811015614f5e57600080fd5b810190808051906020019092919050505086615d6290919063ffffffff16565b93505b919395979092949650565b6000600260009054906101000a900473ffffffffffffffffffffffffffffffffffffffff1673ffffffffffffffffffffffffffffffffffffffff166308acb5566040518060400160405280600a81526020017f474d5365747465724442000000000000000000000000000000000000000000008152508585604051602001808381526020018273ffffffffffffffffffffffffffffffffffffffff1673ffffffffffffffffffffffffffffffffffffffff1660601b8152601401807f626574416d6f756e74000000000000000000000000000000000000000000000081525060090192505050604051602081830303815290604052805190602001206040518363ffffffff1660e01b81526004018080602001838152602001828103825284818151815260200191508051906020019080838360005b838110156150dd5780820151818401526020810190506150c2565b50505050905090810190601f16801561510a5780820380516001836020036101000a031916815260200191505b50935050505060206040518083038186803b15801561512857600080fd5b505afa15801561513c573d6000803e3d6000fd5b505050506040513d602081101561515257600080fd5b8101908080519060200190929190505050905092915050565b6000600260009054906101000a900473ffffffffffffffffffffffffffffffffffffffff1673ffffffffffffffffffffffffffffffffffffffff166308acb5566040518060400160405280600a81526020017f474d5365747465724442000000000000000000000000000000000000000000008152508585604051602001808381526020018273ffffffffffffffffffffffffffffffffffffffff1673ffffffffffffffffffffffffffffffffffffffff1660601b8152601401807f737570706f727465727300000000000000000000000000000000000000000000815250600a0192505050604051602081830303815290604052805190602001206040518363ffffffff1660e01b81526004018080602001838152602001828103825284818151815260200191508051906020019080838360005b838110156152bc5780820151818401526020810190506152a1565b50505050905090810190601f1680156152e95780820380516001836020036101000a031916815260200191505b50935050505060206040518083038186803b15801561530757600080fd5b505afa15801561531b573d6000803e3d6000fd5b505050506040513d602081101561533157600080fd5b8101908080519060200190929190505050905092915050565b6000826153568161553d565b61535f57600080fd5b600260009054906101000a900473ffffffffffffffffffffffffffffffffffffffff1673ffffffffffffffffffffffffffffffffffffffff166308acb5566040518060400160405280600a81526020017f474d5365747465724442000000000000000000000000000000000000000000008152508686604051602001808381526020018273ffffffffffffffffffffffffffffffffffffffff1673ffffffffffffffffffffffffffffffffffffffff1660601b8152601401807f6b6974747900000000000000000000000000000000000000000000000000000081525060050192505050604051602081830303815290604052805190602001206040518363ffffffff1660e01b81526004018080602001838152602001828103825284818151815260200191508051906020019080838360005b838110156154ae578082015181840152602081019050615493565b50505050905090810190601f1680156154db5780820380516001836020036101000a031916815260200191505b50935050505060206040518083038186803b1580156154f957600080fd5b505afa15801561550d573d6000803e3d6000fd5b505050506040513d602081101561552357600080fd5b810190808051906020019092919050505091505092915050565b6000600260009054906101000a900473ffffffffffffffffffffffffffffffffffffffff1673ffffffffffffffffffffffffffffffffffffffff166396edc0096040518060400160405280600a81526020017f474d53657474657244420000000000000000000000000000000000000000000081525060405160200180807f47616d655461626c650000000000000000000000000000000000000000000000815250600901905060405160208183030381529060405280519060200120856040518463ffffffff1660e01b81526004018080602001848152602001838152602001828103825285818151815260200191508051906020019080838360005b8381101561565657808201518184015260208101905061563b565b50505050905090810190601f1680156156835780820380516001836020036101000a031916815260200191505b5094505050505060206040518083038186803b1580156156a257600080fd5b505afa1580156156b6573d6000803e3d6000fd5b505050506040513d60208110156156cc57600080fd5b81019080805190602001909291905050509050919050565b600080600260009054906101000a900473ffffffffffffffffffffffffffffffffffffffff1673ffffffffffffffffffffffffffffffffffffffff1663b93a5b5e6040518060400160405280600a81526020017f474d5365747465724442000000000000000000000000000000000000000000008152508660405160200180828152602001807f706c617965725265640000000000000000000000000000000000000000000000815250600901915050604051602081830303815290604052805190602001206040518363ffffffff1660e01b81526004018080602001838152602001828103825284818151815260200191508051906020019080838360005b838110156157ff5780820151818401526020810190506157e4565b50505050905090810190601f16801561582c5780820380516001836020036101000a031916815260200191505b50935050505060206040518083038186803b15801561584a57600080fd5b505afa15801561585e573d6000803e3d6000fd5b505050506040513d602081101561587457600080fd5b810190808051906020019092919050505090508073ffffffffffffffffffffffffffffffffffffffff168373ffffffffffffffffffffffffffffffffffffffff1614156158c5576001915050615aad565b6000600260009054906101000a900473ffffffffffffffffffffffffffffffffffffffff1673ffffffffffffffffffffffffffffffffffffffff1663b93a5b5e6040518060400160405280600a81526020017f474d5365747465724442000000000000000000000000000000000000000000008152508760405160200180828152602001807f706c61796572426c61636b000000000000000000000000000000000000000000815250600b01915050604051602081830303815290604052805190602001206040518363ffffffff1660e01b81526004018080602001838152602001828103825284818151815260200191508051906020019080838360005b838110156159df5780820151818401526020810190506159c4565b50505050905090810190601f168015615a0c5780820380516001836020036101000a031916815260200191505b50935050505060206040518083038186803b158015615a2a57600080fd5b505afa158015615a3e573d6000803e3d6000fd5b505050506040513d6020811015615a5457600080fd5b810190808051906020019092919050505090508073ffffffffffffffffffffffffffffffffffffffff168473ffffffffffffffffffffffffffffffffffffffff161415615aa657600192505050615aad565b6000925050505b92915050565b600160009054906101000a900473ffffffffffffffffffffffffffffffffffffffff1681565b6000809054906101000a900473ffffffffffffffffffffffffffffffffffffffff1673ffffffffffffffffffffffffffffffffffffffff163373ffffffffffffffffffffffffffffffffffffffff1614615b2f57fe5b600073ffffffffffffffffffffffffffffffffffffffff168173ffffffffffffffffffffffffffffffffffffffff1614615ba457806000806101000a81548173ffffffffffffffffffffffffffffffffffffffff021916908373ffffffffffffffffffffffffffffffffffffffff1602179055505b50565b600081615bb38161553d565b615bbc57600080fd5b600260009054906101000a900473ffffffffffffffffffffffffffffffffffffffff1673ffffffffffffffffffffffffffffffffffffffff166308acb5566040518060400160405280600a81526020017f474d5365747465724442000000000000000000000000000000000000000000008152508560405160200180828152602001807f7374617465000000000000000000000000000000000000000000000000000000815250600501915050604051602081830303815290604052805190602001206040518363ffffffff1660e01b81526004018080602001838152602001828103825284818151815260200191508051906020019080838360005b83811015615cd4578082015181840152602081019050615cb9565b50505050905090810190601f168015615d015780820380516001836020036101000a031916815260200191505b50935050505060206040518083038186803b158015615d1f57600080fd5b505afa158015615d33573d6000803e3d6000fd5b505050506040513d6020811015615d4957600080fd5b8101908080519060200190929190505050915050919050565b600080828401905083811015615d7457fe5b8091505092915050565b6040518060400160405280600290602082028038833980820191505090505090565b6040518060400160405280600290602082028038833980820191505090505090565b604051806040016040528060029060208202803883398082019150509050509056fea265627a7a723158201243b9965b74487863b1632e013e03f73edbf67c65e2a4123b5b9548fe4aa92c64736f6c63430005110032",
  "source": "// This program is free software: you can redistribute it and/or modify\n// it under the terms of the GNU General Public License as published by\n// the Free Software Foundation, either version 3 of the License, or\n// (at your option) any later version.\n\n// This program is distributed in the hope that it will be useful,\n// but WITHOUT ANY WARRANTY; without even the implied warranty of\n// MERCHANTABILITY or FITNESS FOR A PARTICULAR PURPOSE.  See the\n// GNU General Public License for more details.\n\n// You should have received a copy of the GNU General Public License\n// along with this program.  If not, see <http://www.gnu.org/licenses/>.\n\npragma solidity ^0.5.5;\n\nimport \"../proxy/Proxied.sol\";\nimport \"./GenericDB.sol\";\nimport \"../../libs/SafeMath.sol\";\nimport \"../gamemanager/GameStore.sol\";\nimport \"./EndowmentDB.sol\";\nimport \"./ProfileDB.sol\";\nimport \"../registration/Register.sol\";\nimport \"../kittieHELL/KittieHell.sol\";\nimport \"../endowment/EndowmentFund.sol\";\n\n/**\n * @dev Getters for game instances\n * @author @psychoplasma\n */\ncontract GMGetterDB is Proxied {\n\n using SafeMath for uint256;\n\n  GenericDB public genericDB;\n  GameStore public gameStore;\n  EndowmentDB public endowmentDB;\n\n  bytes32 internal constant TABLE_KEY_GAME= keccak256(abi.encodePacked(\"GameTable\"));\n  string internal constant TABLE_NAME_BETTOR = \"BettorTable\";\n\n  modifier onlyExistentGame(uint256 gameId) {\n    require(doesGameExist(gameId));\n    _;\n  }\n  \n  constructor(GenericDB _genericDB) public {\n    setGenericDB(_genericDB);\n  }\n\n  function setGenericDB(GenericDB _genericDB) public onlyOwner {\n    genericDB = _genericDB;\n  }\n\n  function initialize() external onlyOwner {\n    gameStore = GameStore(proxy.getContract(CONTRACT_NAME_GAMESTORE));\n    endowmentDB = EndowmentDB(proxy.getContract(CONTRACT_NAME_ENDOWMENT_DB));\n  }\n\n  /**\n   * @dev get amount of supporters for given game and player\n   */\n  function getSupporters(uint256 gameId, address player)\n    public view\n    returns (uint)\n  {\n    return genericDB.getUintStorage(\n      CONTRACT_NAME_GM_SETTER_DB,\n      keccak256(abi.encodePacked(gameId, player, \"supporters\"))\n    );\n  }\n\n   /**\n   * @dev Updates the total amount of bet in the given game and supported player\n   */\n  function getTotalBet(uint256 gameId, address supportedPlayer) public view returns(uint) {\n    return genericDB.getUintStorage(\n      CONTRACT_NAME_GM_SETTER_DB,\n      keccak256(abi.encodePacked(gameId, supportedPlayer, \"totalBetAmount\"))\n    );\n  }\n\n  function getGamePlayers(uint256 gameId)\n    public view\n    onlyExistentGame(gameId)\n    returns (address playerBlack, address playerRed, uint256 kittyBlack, uint256 kittyRed)\n  {\n    playerBlack = genericDB.getAddressStorage(CONTRACT_NAME_GM_SETTER_DB, keccak256(abi.encodePacked(gameId, \"playerBlack\")));\n    playerRed = genericDB.getAddressStorage(CONTRACT_NAME_GM_SETTER_DB, keccak256(abi.encodePacked(gameId, \"playerRed\")));\n    kittyBlack = genericDB.getUintStorage(CONTRACT_NAME_GM_SETTER_DB, keccak256(abi.encodePacked(gameId, playerBlack, \"kitty\")));\n    kittyRed = genericDB.getUintStorage(CONTRACT_NAME_GM_SETTER_DB, keccak256(abi.encodePacked(gameId, playerRed, \"kitty\")));\n  \n  }\n\n /**\n   * @dev check game state, 0-4\n   */\n  function getGameState(uint256 gameId)\n    public view\n    onlyExistentGame(gameId)\n    returns (uint gameState)\n  {\n    return genericDB.getUintStorage(CONTRACT_NAME_GM_SETTER_DB, keccak256(abi.encodePacked(gameId, \"state\")));\n  }\n\n  /**\n   * @dev get fighting kittyId for specific game and player\n   */\n  function getKittieInGame(uint256 gameId, address player)\n    public view\n    onlyExistentGame(gameId)\n    returns (uint)\n  {\n    return genericDB.getUintStorage(CONTRACT_NAME_GM_SETTER_DB, keccak256(abi.encodePacked(gameId, player, \"kitty\")));\n  }\n\n  /**\n   * @dev ?\n   */\n  function getGameTimes(uint256 gameId)\n    public view\n    onlyExistentGame(gameId)\n    returns (uint startTime, uint preStartTime, uint endTime)\n  {\n    startTime = genericDB.getUintStorage(CONTRACT_NAME_GM_SETTER_DB, keccak256(abi.encodePacked(gameId, \"startTime\")));\n    preStartTime = genericDB.getUintStorage(CONTRACT_NAME_GM_SETTER_DB, keccak256(abi.encodePacked(gameId, \"prestartTime\")));\n    endTime = genericDB.getUintStorage(CONTRACT_NAME_GM_SETTER_DB, keccak256(abi.encodePacked(gameId, \"endTime\")));\n  }\n  \n  /**\n   * @dev Checks whether the given player is playing in the given game.\n   */\n  function isPlayer(uint256 gameId, address player) public view returns (bool) {\n    address playerRed = genericDB.getAddressStorage(CONTRACT_NAME_GM_SETTER_DB, keccak256(abi.encodePacked(gameId, \"playerRed\")));\n    if (player == playerRed) {\n      return true;\n    }\n\n    address playerBlack = genericDB.getAddressStorage(CONTRACT_NAME_GM_SETTER_DB, keccak256(abi.encodePacked(gameId, \"playerBlack\")));\n    if (player == playerBlack) {\n      return true;\n    }\n\n    return false;\n  }\n\n  function doesGameExist(uint256 gameId) public view returns (bool) {\n    return genericDB.doesNodeExist(CONTRACT_NAME_GM_SETTER_DB, TABLE_KEY_GAME, gameId);\n  }\n\n  function getGameOfKittie(uint kittieId) public view returns(uint){\n    return genericDB.getUintStorage(CONTRACT_NAME_GM_SETTER_DB, keccak256(abi.encodePacked(kittieId, \"playingGame\")));\n  }\n\n  // temporarily hardcode totalEth and totalKty for truffle testing of GameStore-kittieRedemptionFee.test.js\n  // otherwise the entire gaming process has to be run throughly to get totalEth and totalKty\n  // please remove hardcoding once test is done and uncomment line 172 and line 173\n  function getFinalHoneypot(uint256 gameId)\n    public view\n    returns(uint totalEth, uint totalKty )\n  {\n    totalEth = genericDB.getUintStorage(CONTRACT_NAME_GM_SETTER_DB, keccak256(abi.encodePacked(gameId, \"totalEth\")));\n    totalKty = genericDB.getUintStorage(CONTRACT_NAME_GM_SETTER_DB, keccak256(abi.encodePacked(gameId, \"totalKty\")));\n  }\n\n  function getPlayerBet(uint gameId, address player)\n  public view\n  returns(uint playerBet)\n  {\n    playerBet = genericDB.getUintStorage(\n      CONTRACT_NAME_GM_SETTER_DB,\n      keccak256(abi.encodePacked(gameId, player, \"betAmount\"))\n    );\n  }\n\n  // === FRONTEND GETTERS ===\n  function getFighterByKittieID(uint256 kittieId)\n    public view\n    returns (address owner, bool isDead, uint deathTime, uint kittieHellExp, bool isGhost, bool isPlaying, uint gameId)\n  {\n    (owner, isDead,, isGhost, deathTime) = KittieHell(proxy.getContract(CONTRACT_NAME_KITTIEHELL)).getKittyStatus(kittieId);\n    gameId = getGameOfKittie(kittieId);\n    //If gameId is 0 is not playing, otherwise, it is.\n    isPlaying = (gameId != 0);\n    if(isDead) kittieHellExp = deathTime.add(gameStore.getKittieExpirationTime(gameId));\n  }\n\n  /**\n   * @dev Returns the total amount of bet of the given bettor\n   * and the player supported by that bettor in the game given.\n   */\n  function getSupporterInfo(uint256 gameId, address bettor)\n    public view\n    returns (uint256 betAmount, address supportedPlayer, bool ticketFeePaid, bool hasClaimed)\n  {\n    betAmount = genericDB.getUintStorage(\n      CONTRACT_NAME_GM_SETTER_DB,\n      keccak256(abi.encodePacked(gameId, bettor, \"betAmount\"))\n    );\n    supportedPlayer = genericDB.getAddressStorage(\n      CONTRACT_NAME_GM_SETTER_DB,\n      keccak256(abi.encodePacked(gameId, bettor, \"supportedPlayer\"))\n    );\n\n    ticketFeePaid = genericDB.getBoolStorage(CONTRACT_NAME_GM_SETTER_DB, keccak256(abi.encodePacked(gameId, bettor, \"ticketFeePaid\")));\n    hasClaimed = EndowmentFund(proxy.getContract(CONTRACT_NAME_ENDOWMENT_FUND)).getWithdrawalState(gameId, bettor);\n  }\n\n  /**\n   * @dev Returns players, fighter kitties' ids,\n   * total amount of bet and the timestamp of creation of this game.\n   */\n  function getGameInfo(uint256 gameId)\n    public view\n    onlyExistentGame(gameId)\n    returns (address[2] memory players, uint[2] memory kittieIds, uint state,\n      uint[2] memory supporters, bool[2] memory pressedStart, uint timeCreated, address winner)\n  {\n    (players[0], players[1], kittieIds[0], kittieIds[1]) = getGamePlayers(gameId);\n    state = getGameState(gameId);\n    supporters[0] = getSupporters(gameId, players[0]);\n    supporters[1] = getSupporters(gameId, players[1]);\n    pressedStart[0] = gameStore.didHitStart(gameId, players[0]);\n    pressedStart[1] = gameStore.didHitStart(gameId, players[1]);\n    timeCreated = genericDB.getUintStorage(CONTRACT_NAME_GM_SETTER_DB, keccak256(abi.encodePacked(gameId, \"createdTime\")));\n    winner = genericDB.getAddressStorage(CONTRACT_NAME_GM_SETTER_DB, keccak256(abi.encodePacked(gameId, \"winner\")));\n  }\n\n  function getInitialHoneypot(uint256 gameId)\n      public view returns(uint256 initialHoneypotEth, uint256 initialHoneypotKty)\n  {\n    initialHoneypotEth = genericDB.getUintStorage(CONTRACT_NAME_GM_SETTER_DB, keccak256(abi.encodePacked(gameId, \"initialEth\")));\n    initialHoneypotKty = genericDB.getUintStorage(CONTRACT_NAME_GM_SETTER_DB, keccak256(abi.encodePacked(gameId, \"initialKty\")));\n  }\n\n  function getHoneypotInfo(uint256 gameId)\n    public view\n    returns(uint honeypotId, uint status, uint initialEth, uint ethTotal, uint[2] memory ethByCorner, uint ktyTotal, uint expTime)\n  {\n    (address playerBlack, address playerRed,,) = getGamePlayers(gameId);\n    honeypotId = genericDB.getUintStorage(CONTRACT_NAME_GM_SETTER_DB, keccak256(abi.encodePacked(gameId, \"honeypotId\")));\n    initialEth = genericDB.getUintStorage(CONTRACT_NAME_GM_SETTER_DB, keccak256(abi.encodePacked(gameId, \"initialEth\")));\n    (ktyTotal, ethTotal) = endowmentDB.getHoneyPotBalance(gameId);\n    ethByCorner[0] = getTotalBet(gameId, playerBlack);\n    ethByCorner[1] = getTotalBet(gameId, playerRed);\n    (status, expTime) = endowmentDB.getHoneypotState(gameId);\n  }\n\n  function getMyInfo(uint256 gameId, address sender)\n    public view\n    returns(bool isSupporter, uint supportedCorner, bool isPlayerInGame, uint corner)\n  {\n    isSupporter = genericDB.doesNodeAddrExist(CONTRACT_NAME_GM_SETTER_DB, keccak256(abi.encodePacked(gameId, TABLE_NAME_BETTOR)), sender);\n    address supportedPlayer = genericDB.getAddressStorage(\n      CONTRACT_NAME_GM_SETTER_DB, keccak256(abi.encodePacked(gameId, sender, \"supportedPlayer\")));\n    supportedCorner = gameStore.getCorner(gameId, supportedPlayer);\n    isPlayerInGame = isPlayer(gameId, sender);\n    corner = gameStore.getCorner(gameId, sender);\n  }\n\n  function getPlayer(uint gameId, address player)\n    public view\n    returns(uint kittieId, uint corner, uint betsTotalEth)\n  {\n    kittieId = getKittieInGame(gameId, player);\n    corner = gameStore.getCorner(gameId, player);\n    betsTotalEth = getTotalBet(gameId, player);\n  }\n\n  function getWinners(uint256 gameId)\n    public view\n    returns (address winner, address topBettor, address secondTopBettor)\n  {\n    winner = genericDB.getAddressStorage(CONTRACT_NAME_GM_SETTER_DB,keccak256(abi.encodePacked(gameId, \"winner\")));\n    topBettor = genericDB.getAddressStorage(CONTRACT_NAME_GM_SETTER_DB,keccak256(abi.encodePacked(gameId, \"topBettor\")));\n    secondTopBettor = genericDB.getAddressStorage(CONTRACT_NAME_GM_SETTER_DB,keccak256(abi.encodePacked(gameId, \"secondTopBettor\")));\n  }\n\n  function getAccountInfo(address account)\n    public view\n    returns(bool isRegistered, bool isVerified)\n  {\n    isRegistered = Register(proxy.getContract(CONTRACT_NAME_REGISTER)).isRegistered(account);\n    uint civicId = ProfileDB(proxy.getContract(CONTRACT_NAME_PROFILE_DB)).getCivicId(account);\n    isVerified = civicId > 0;\n  }\n\n}\n",
  "sourcePath": "/Users/ziweizhang/Desktop/Test/contracts/contracts/modules/databases/GMGetterDB.sol",
  "compiler": {
    "name": "solc",
    "version": "0.5.17+commit.d19bba13.Emscripten.clang"
  },
  "schemaVersion": "3.0.23",
  "updatedAt": "2020-07-10T19:57:25.094Z",
  "networkType": "ethereum",
  "devdoc": {
    "author": "@psychoplasma",
    "details": "Getters for game instances",
    "methods": {
      "getGameInfo(uint256)": {
        "details": "Returns players, fighter kitties' ids, total amount of bet and the timestamp of creation of this game."
      },
      "getGameState(uint256)": {
        "details": "check game state, 0-4"
      },
      "getGameTimes(uint256)": {
        "details": "?"
      },
      "getKittieInGame(uint256,address)": {
        "details": "get fighting kittyId for specific game and player"
      },
      "getSupporterInfo(uint256,address)": {
        "details": "Returns the total amount of bet of the given bettor and the player supported by that bettor in the game given."
      },
      "getSupporters(uint256,address)": {
        "details": "get amount of supporters for given game and player"
      },
      "getTotalBet(uint256,address)": {
        "details": "Updates the total amount of bet in the given game and supported player"
      },
      "isPlayer(uint256,address)": {
        "details": "Checks whether the given player is playing in the given game."
      }
    }
  },
  "userdoc": {
    "methods": {
      "setProxy(address)": {
        "notice": "Set/update address of Proxy contract"
      }
    }
  }
}