{
  "contractName": "GMGetterDB",
  "abi": [
    {
      "constant": true,
      "inputs": [],
      "name": "genericDB",
      "outputs": [
        {
          "name": "",
          "type": "address"
        }
      ],
      "payable": false,
      "stateMutability": "view",
      "type": "function"
    },
    {
      "constant": true,
      "inputs": [],
      "name": "endowmentDB",
      "outputs": [
        {
          "name": "",
          "type": "address"
        }
      ],
      "payable": false,
      "stateMutability": "view",
      "type": "function"
    },
    {
      "constant": true,
      "inputs": [],
      "name": "owner",
      "outputs": [
        {
          "name": "",
          "type": "address"
        }
      ],
      "payable": false,
      "stateMutability": "view",
      "type": "function"
    },
    {
      "constant": false,
      "inputs": [
        {
          "name": "_proxy",
          "type": "address"
        }
      ],
      "name": "setProxy",
      "outputs": [],
      "payable": false,
      "stateMutability": "nonpayable",
      "type": "function"
    },
    {
      "constant": true,
      "inputs": [],
      "name": "gameStore",
      "outputs": [
        {
          "name": "",
          "type": "address"
        }
      ],
      "payable": false,
      "stateMutability": "view",
      "type": "function"
    },
    {
      "constant": true,
      "inputs": [],
      "name": "proxy",
      "outputs": [
        {
          "name": "",
          "type": "address"
        }
      ],
      "payable": false,
      "stateMutability": "view",
      "type": "function"
    },
    {
      "constant": false,
      "inputs": [
        {
          "name": "newOwner",
          "type": "address"
        }
      ],
      "name": "transferOwnership",
      "outputs": [],
      "payable": false,
      "stateMutability": "nonpayable",
      "type": "function"
    },
    {
      "inputs": [
        {
          "name": "_genericDB",
          "type": "address"
        }
      ],
      "payable": false,
      "stateMutability": "nonpayable",
      "type": "constructor"
    },
    {
      "constant": false,
      "inputs": [
        {
          "name": "_genericDB",
          "type": "address"
        }
      ],
      "name": "setGenericDB",
      "outputs": [],
      "payable": false,
      "stateMutability": "nonpayable",
      "type": "function"
    },
    {
      "constant": false,
      "inputs": [],
      "name": "initialize",
      "outputs": [],
      "payable": false,
      "stateMutability": "nonpayable",
      "type": "function"
    },
    {
      "constant": true,
      "inputs": [
        {
          "name": "gameId",
          "type": "uint256"
        },
        {
          "name": "player",
          "type": "address"
        }
      ],
      "name": "getSupporters",
      "outputs": [
        {
          "name": "",
          "type": "uint256"
        }
      ],
      "payable": false,
      "stateMutability": "view",
      "type": "function"
    },
    {
      "constant": true,
      "inputs": [
        {
          "name": "gameId",
          "type": "uint256"
        },
        {
          "name": "supportedPlayer",
          "type": "address"
        }
      ],
      "name": "getTotalBet",
      "outputs": [
        {
          "name": "",
          "type": "uint256"
        }
      ],
      "payable": false,
      "stateMutability": "view",
      "type": "function"
    },
    {
      "constant": true,
      "inputs": [
        {
          "name": "gameId",
          "type": "uint256"
        }
      ],
      "name": "getGamePlayers",
      "outputs": [
        {
          "name": "playerBlack",
          "type": "address"
        },
        {
          "name": "playerRed",
          "type": "address"
        },
        {
          "name": "kittyBlack",
          "type": "uint256"
        },
        {
          "name": "kittyRed",
          "type": "uint256"
        }
      ],
      "payable": false,
      "stateMutability": "view",
      "type": "function"
    },
    {
      "constant": true,
      "inputs": [
        {
          "name": "gameId",
          "type": "uint256"
        }
      ],
      "name": "getGameState",
      "outputs": [
        {
          "name": "gameState",
          "type": "uint256"
        }
      ],
      "payable": false,
      "stateMutability": "view",
      "type": "function"
    },
    {
      "constant": true,
      "inputs": [
        {
          "name": "gameId",
          "type": "uint256"
        },
        {
          "name": "player",
          "type": "address"
        }
      ],
      "name": "getKittieInGame",
      "outputs": [
        {
          "name": "",
          "type": "uint256"
        }
      ],
      "payable": false,
      "stateMutability": "view",
      "type": "function"
    },
    {
      "constant": true,
      "inputs": [
        {
          "name": "gameId",
          "type": "uint256"
        }
      ],
      "name": "getGameTimes",
      "outputs": [
        {
          "name": "startTime",
          "type": "uint256"
        },
        {
          "name": "preStartTime",
          "type": "uint256"
        },
        {
          "name": "endTime",
          "type": "uint256"
        }
      ],
      "payable": false,
      "stateMutability": "view",
      "type": "function"
    },
    {
      "constant": true,
      "inputs": [
        {
          "name": "gameId",
          "type": "uint256"
        },
        {
          "name": "player",
          "type": "address"
        }
      ],
      "name": "isPlayer",
      "outputs": [
        {
          "name": "",
          "type": "bool"
        }
      ],
      "payable": false,
      "stateMutability": "view",
      "type": "function"
    },
    {
      "constant": true,
      "inputs": [
        {
          "name": "gameId",
          "type": "uint256"
        }
      ],
      "name": "doesGameExist",
      "outputs": [
        {
          "name": "",
          "type": "bool"
        }
      ],
      "payable": false,
      "stateMutability": "view",
      "type": "function"
    },
    {
      "constant": true,
      "inputs": [
        {
          "name": "kittieId",
          "type": "uint256"
        }
      ],
      "name": "getGameOfKittie",
      "outputs": [
        {
          "name": "",
          "type": "uint256"
        }
      ],
      "payable": false,
      "stateMutability": "view",
      "type": "function"
    },
    {
      "constant": true,
      "inputs": [
        {
          "name": "gameId",
          "type": "uint256"
        }
      ],
      "name": "getFinalHoneypot",
      "outputs": [
        {
          "name": "totalEth",
          "type": "uint256"
        },
        {
          "name": "totalKty",
          "type": "uint256"
        }
      ],
      "payable": false,
      "stateMutability": "view",
      "type": "function"
    },
    {
      "constant": true,
      "inputs": [
        {
          "name": "kittieId",
          "type": "uint256"
        }
      ],
      "name": "getFighterByKittieID",
      "outputs": [
        {
          "name": "owner",
          "type": "address"
        },
        {
          "name": "isDead",
          "type": "bool"
        },
        {
          "name": "deathTime",
          "type": "uint256"
        },
        {
          "name": "kittieHellExp",
          "type": "uint256"
        },
        {
          "name": "isGhost",
          "type": "bool"
        },
        {
          "name": "isPlaying",
          "type": "bool"
        },
        {
          "name": "gameId",
          "type": "uint256"
        }
      ],
      "payable": false,
      "stateMutability": "view",
      "type": "function"
    },
    {
      "constant": true,
      "inputs": [
        {
          "name": "gameId",
          "type": "uint256"
        },
        {
          "name": "bettor",
          "type": "address"
        }
      ],
      "name": "getSupporterInfo",
      "outputs": [
        {
          "name": "betAmount",
          "type": "uint256"
        },
        {
          "name": "supportedPlayer",
          "type": "address"
        },
        {
          "name": "ticketFeePaid",
          "type": "bool"
        },
        {
          "name": "hasClaimed",
          "type": "bool"
        }
      ],
      "payable": false,
      "stateMutability": "view",
      "type": "function"
    },
    {
      "constant": true,
      "inputs": [
        {
          "name": "gameId",
          "type": "uint256"
        }
      ],
      "name": "getGameInfo",
      "outputs": [
        {
          "name": "players",
          "type": "address[2]"
        },
        {
          "name": "kittieIds",
          "type": "uint256[2]"
        },
        {
          "name": "state",
          "type": "uint256"
        },
        {
          "name": "supporters",
          "type": "uint256[2]"
        },
        {
          "name": "pressedStart",
          "type": "bool[2]"
        },
        {
          "name": "timeCreated",
          "type": "uint256"
        },
        {
          "name": "winner",
          "type": "address"
        }
      ],
      "payable": false,
      "stateMutability": "view",
      "type": "function"
    },
    {
      "constant": true,
      "inputs": [
        {
          "name": "gameId",
          "type": "uint256"
        }
      ],
      "name": "getHoneypotInfo",
      "outputs": [
        {
          "name": "honeypotId",
          "type": "uint256"
        },
        {
          "name": "status",
          "type": "uint256"
        },
        {
          "name": "initialEth",
          "type": "uint256"
        },
        {
          "name": "ethTotal",
          "type": "uint256"
        },
        {
          "name": "ethByCorner",
          "type": "uint256[2]"
        },
        {
          "name": "ktyTotal",
          "type": "uint256"
        },
        {
          "name": "expTime",
          "type": "uint256"
        }
      ],
      "payable": false,
      "stateMutability": "view",
      "type": "function"
    },
    {
      "constant": true,
      "inputs": [
        {
          "name": "gameId",
          "type": "uint256"
        }
      ],
      "name": "getMyInfo",
      "outputs": [
        {
          "name": "isSupporter",
          "type": "bool"
        },
        {
          "name": "supportedCorner",
          "type": "uint256"
        },
        {
          "name": "isPlayerInGame",
          "type": "bool"
        },
        {
          "name": "corner",
          "type": "uint256"
        }
      ],
      "payable": false,
      "stateMutability": "view",
      "type": "function"
    },
    {
      "constant": true,
      "inputs": [
        {
          "name": "gameId",
          "type": "uint256"
        },
        {
          "name": "player",
          "type": "address"
        }
      ],
      "name": "getPlayer",
      "outputs": [
        {
          "name": "kittieId",
          "type": "uint256"
        },
        {
          "name": "corner",
          "type": "uint256"
        },
        {
          "name": "betsTotalEth",
          "type": "uint256"
        }
      ],
      "payable": false,
      "stateMutability": "view",
      "type": "function"
    },
    {
      "constant": true,
      "inputs": [
        {
          "name": "gameId",
          "type": "uint256"
        }
      ],
      "name": "getWinners",
      "outputs": [
        {
          "name": "winner",
          "type": "address"
        },
        {
          "name": "topBettor",
          "type": "address"
        },
        {
          "name": "secondTopBettor",
          "type": "address"
        }
      ],
      "payable": false,
      "stateMutability": "view",
      "type": "function"
    }
  ],
  "bytecode": "0x60806040523480156200001157600080fd5b50604051620054b5380380620054b5833981810160405260208110156200003757600080fd5b8101908080519060200190929190505050336000806101000a81548173ffffffffffffffffffffffffffffffffffffffff021916908373ffffffffffffffffffffffffffffffffffffffff1602179055506200009981620000a060201b60201c565b506200013b565b6000809054906101000a900473ffffffffffffffffffffffffffffffffffffffff1673ffffffffffffffffffffffffffffffffffffffff163373ffffffffffffffffffffffffffffffffffffffff1614620000f757fe5b80600260006101000a81548173ffffffffffffffffffffffffffffffffffffffff021916908373ffffffffffffffffffffffffffffffffffffffff16021790555050565b61536a806200014b6000396000f3fe608060405234801561001057600080fd5b506004361061018e5760003560e01c80638851470d116100de578063de4128de11610097578063e6d3538d11610071578063e6d3538d14610b01578063ec55688914610b67578063f2fde38b14610bb1578063ffde0c7414610bf55761018e565b8063de4128de146109f7578063e441dcbf14610a59578063e6a3d31e14610abb5761018e565b80638851470d146107c95780638da5cb5b1461081957806397107d6d14610863578063b1be6469146108a7578063bacf524e146108f1578063d5da9dca146109535761018e565b80634afab8151161014b5780635d06fc01116101255780635d06fc01146106315780636454e58d1461067b5780636b1426a4146106eb5780638129fc1c146107bf5761018e565b80634afab81514610510578063525a8e4e14610554578063589ac6a41461059d5761018e565b806301b14278146101935780630b154c96146101f257806315a40f491461029d5780633564e78c1461034c57806337507a0c1461039657806347e1d550146103d8575b600080fd5b6101bf600480360360208110156101a957600080fd5b8101908080359060200190929190505050610c37565b60405180851515151581526020018481526020018315151515815260200182815260200194505050505060405180910390f35b61023e6004803603604081101561020857600080fd5b8101908080359060200190929190803573ffffffffffffffffffffffffffffffffffffffff169060200190929190505050611226565b604051808581526020018473ffffffffffffffffffffffffffffffffffffffff1673ffffffffffffffffffffffffffffffffffffffff168152602001831515151581526020018215151515815260200194505050505060405180910390f35b6102c9600480360360208110156102b357600080fd5b81019080803590602001909291905050506119c3565b604051808573ffffffffffffffffffffffffffffffffffffffff1673ffffffffffffffffffffffffffffffffffffffff1681526020018473ffffffffffffffffffffffffffffffffffffffff1673ffffffffffffffffffffffffffffffffffffffff16815260200183815260200182815260200194505050505060405180910390f35b6103546120d2565b604051808273ffffffffffffffffffffffffffffffffffffffff1673ffffffffffffffffffffffffffffffffffffffff16815260200191505060405180910390f35b6103c2600480360360208110156103ac57600080fd5b81019080803590602001909291905050506120f8565b6040518082815260200191505060405180910390f35b610404600480360360208110156103ee57600080fd5b810190808035906020019092919050505061229f565b6040518088600260200280838360005b8381101561042f578082015181840152602081019050610414565b5050505090500187600260200280838360005b8381101561045d578082015181840152602081019050610442565b5050505090500186815260200185600260200280838360005b83811015610491578082015181840152602081019050610476565b5050505090500184600260200280838360005b838110156104bf5780820151818401526020810190506104a4565b505050509050018381526020018273ffffffffffffffffffffffffffffffffffffffff1673ffffffffffffffffffffffffffffffffffffffff16815260200197505050505050505060405180910390f35b6105526004803603602081101561052657600080fd5b81019080803573ffffffffffffffffffffffffffffffffffffffff169060200190929190505050612967565b005b6105806004803603602081101561056a57600080fd5b8101908080359060200190929190505050612a01565b604051808381526020018281526020019250505060405180910390f35b6105c9600480360360208110156105b357600080fd5b8101908080359060200190929190505050612d49565b6040518088815260200187815260200186815260200185815260200184600260200280838360005b8381101561060c5780820151818401526020810190506105f1565b5050505090500183815260200182815260200197505050505050505060405180910390f35b610639613277565b604051808273ffffffffffffffffffffffffffffffffffffffff1673ffffffffffffffffffffffffffffffffffffffff16815260200191505060405180910390f35b6106c76004803603604081101561069157600080fd5b8101908080359060200190929190803573ffffffffffffffffffffffffffffffffffffffff16906020019092919050505061329d565b60405180848152602001838152602001828152602001935050505060405180910390f35b6107176004803603602081101561070157600080fd5b81019080803590602001909291905050506133a5565b604051808473ffffffffffffffffffffffffffffffffffffffff1673ffffffffffffffffffffffffffffffffffffffff1681526020018373ffffffffffffffffffffffffffffffffffffffff1673ffffffffffffffffffffffffffffffffffffffff1681526020018273ffffffffffffffffffffffffffffffffffffffff1673ffffffffffffffffffffffffffffffffffffffff168152602001935050505060405180910390f35b6107c7613891565b005b6107f5600480360360208110156107df57600080fd5b8101908080359060200190929190505050613bf9565b60405180848152602001838152602001828152602001935050505060405180910390f35b6108216140f9565b604051808273ffffffffffffffffffffffffffffffffffffffff1673ffffffffffffffffffffffffffffffffffffffff16815260200191505060405180910390f35b6108a56004803603602081101561087957600080fd5b81019080803573ffffffffffffffffffffffffffffffffffffffff16906020019092919050505061411e565b005b6108af6141b8565b604051808273ffffffffffffffffffffffffffffffffffffffff1673ffffffffffffffffffffffffffffffffffffffff16815260200191505060405180910390f35b61093d6004803603604081101561090757600080fd5b8101908080359060200190929190803573ffffffffffffffffffffffffffffffffffffffff1690602001909291905050506141de565b6040518082815260200191505060405180910390f35b61097f6004803603602081101561096957600080fd5b81019080803590602001909291905050506143bd565b604051808873ffffffffffffffffffffffffffffffffffffffff1673ffffffffffffffffffffffffffffffffffffffff16815260200187151515158152602001868152602001858152602001841515151581526020018315151515815260200182815260200197505050505050505060405180910390f35b610a4360048036036040811015610a0d57600080fd5b8101908080359060200190929190803573ffffffffffffffffffffffffffffffffffffffff1690602001909291905050506146bc565b6040518082815260200191505060405180910390f35b610aa560048036036040811015610a6f57600080fd5b8101908080359060200190929190803573ffffffffffffffffffffffffffffffffffffffff16906020019092919050505061489b565b6040518082815260200191505060405180910390f35b610ae760048036036020811015610ad157600080fd5b8101908080359060200190929190505050614a8e565b604051808215151515815260200191505060405180910390f35b610b4d60048036036040811015610b1757600080fd5b8101908080359060200190929190803573ffffffffffffffffffffffffffffffffffffffff169060200190929190505050614c35565b604051808215151515815260200191505060405180910390f35b610b6f615004565b604051808273ffffffffffffffffffffffffffffffffffffffff1673ffffffffffffffffffffffffffffffffffffffff16815260200191505060405180910390f35b610bf360048036036020811015610bc757600080fd5b81019080803573ffffffffffffffffffffffffffffffffffffffff16906020019092919050505061502a565b005b610c2160048036036020811015610c0b57600080fd5b81019080803590602001909291905050506150f8565b6040518082815260200191505060405180910390f35b600080600080600260009054906101000a900473ffffffffffffffffffffffffffffffffffffffff1673ffffffffffffffffffffffffffffffffffffffff16638445d70f6040518060400160405280600a81526020017f474d536574746572444200000000000000000000000000000000000000000000815250876040518060400160405280600b81526020017f426574746f725461626c650000000000000000000000000000000000000000008152506040516020018083815260200182805190602001908083835b60208310610d245780518252602082019150602081019050602083039250610d01565b6001836020036101000a0380198251168184511680821785525050505050509050019250505060405160208183030381529060405280519060200120336040518463ffffffff1660e01b815260040180806020018481526020018373ffffffffffffffffffffffffffffffffffffffff1673ffffffffffffffffffffffffffffffffffffffff168152602001828103825285818151815260200191508051906020019080838360005b83811015610de8578082015181840152602081019050610dcd565b50505050905090810190601f168015610e155780820380516001836020036101000a031916815260200191505b5094505050505060206040518083038186803b158015610e3457600080fd5b505afa158015610e48573d6000803e3d6000fd5b505050506040513d6020811015610e5e57600080fd5b810190808051906020019092919050505093506000600260009054906101000a900473ffffffffffffffffffffffffffffffffffffffff1673ffffffffffffffffffffffffffffffffffffffff1663b93a5b5e6040518060400160405280600a81526020017f474d5365747465724442000000000000000000000000000000000000000000008152508833604051602001808381526020018273ffffffffffffffffffffffffffffffffffffffff1673ffffffffffffffffffffffffffffffffffffffff1660601b8152601401807f737570706f72746564506c617965720000000000000000000000000000000000815250600f0192505050604051602081830303815290604052805190602001206040518363ffffffff1660e01b81526004018080602001838152602001828103825284818151815260200191508051906020019080838360005b83811015610fc2578082015181840152602081019050610fa7565b50505050905090810190601f168015610fef5780820380516001836020036101000a031916815260200191505b50935050505060206040518083038186803b15801561100d57600080fd5b505afa158015611021573d6000803e3d6000fd5b505050506040513d602081101561103757600080fd5b81019080805190602001909291905050509050600360009054906101000a900473ffffffffffffffffffffffffffffffffffffffff1673ffffffffffffffffffffffffffffffffffffffff1663f9ccbdf287836040518363ffffffff1660e01b8152600401808381526020018273ffffffffffffffffffffffffffffffffffffffff1673ffffffffffffffffffffffffffffffffffffffff1681526020019250505060206040518083038186803b1580156110f157600080fd5b505afa158015611105573d6000803e3d6000fd5b505050506040513d602081101561111b57600080fd5b810190808051906020019092919050505093506111388633614c35565b9250600360009054906101000a900473ffffffffffffffffffffffffffffffffffffffff1673ffffffffffffffffffffffffffffffffffffffff1663f9ccbdf287336040518363ffffffff1660e01b8152600401808381526020018273ffffffffffffffffffffffffffffffffffffffff1673ffffffffffffffffffffffffffffffffffffffff1681526020019250505060206040518083038186803b1580156111e157600080fd5b505afa1580156111f5573d6000803e3d6000fd5b505050506040513d602081101561120b57600080fd5b81019080805190602001909291905050509150509193509193565b600080600080600260009054906101000a900473ffffffffffffffffffffffffffffffffffffffff1673ffffffffffffffffffffffffffffffffffffffff166308acb5566040518060400160405280600a81526020017f474d5365747465724442000000000000000000000000000000000000000000008152508888604051602001808381526020018273ffffffffffffffffffffffffffffffffffffffff1673ffffffffffffffffffffffffffffffffffffffff1660601b8152601401807f626574416d6f756e74000000000000000000000000000000000000000000000081525060090192505050604051602081830303815290604052805190602001206040518363ffffffff1660e01b81526004018080602001838152602001828103825284818151815260200191508051906020019080838360005b8381101561137b578082015181840152602081019050611360565b50505050905090810190601f1680156113a85780820380516001836020036101000a031916815260200191505b50935050505060206040518083038186803b1580156113c657600080fd5b505afa1580156113da573d6000803e3d6000fd5b505050506040513d60208110156113f057600080fd5b81019080805190602001909291905050509350600260009054906101000a900473ffffffffffffffffffffffffffffffffffffffff1673ffffffffffffffffffffffffffffffffffffffff1663b93a5b5e6040518060400160405280600a81526020017f474d5365747465724442000000000000000000000000000000000000000000008152508888604051602001808381526020018273ffffffffffffffffffffffffffffffffffffffff1673ffffffffffffffffffffffffffffffffffffffff1660601b8152601401807f737570706f72746564506c617965720000000000000000000000000000000000815250600f0192505050604051602081830303815290604052805190602001206040518363ffffffff1660e01b81526004018080602001838152602001828103825284818151815260200191508051906020019080838360005b83811015611552578082015181840152602081019050611537565b50505050905090810190601f16801561157f5780820380516001836020036101000a031916815260200191505b50935050505060206040518083038186803b15801561159d57600080fd5b505afa1580156115b1573d6000803e3d6000fd5b505050506040513d60208110156115c757600080fd5b81019080805190602001909291905050509250600260009054906101000a900473ffffffffffffffffffffffffffffffffffffffff1673ffffffffffffffffffffffffffffffffffffffff16631c58c8bb6040518060400160405280600a81526020017f474d5365747465724442000000000000000000000000000000000000000000008152508888604051602001808381526020018273ffffffffffffffffffffffffffffffffffffffff1673ffffffffffffffffffffffffffffffffffffffff1660601b8152601401807f7469636b65744665655061696400000000000000000000000000000000000000815250600d0192505050604051602081830303815290604052805190602001206040518363ffffffff1660e01b81526004018080602001838152602001828103825284818151815260200191508051906020019080838360005b8381101561172957808201518184015260208101905061170e565b50505050905090810190601f1680156117565780820380516001836020036101000a031916815260200191505b50935050505060206040518083038186803b15801561177457600080fd5b505afa158015611788573d6000803e3d6000fd5b505050506040513d602081101561179e57600080fd5b81019080805190602001909291905050509150600160009054906101000a900473ffffffffffffffffffffffffffffffffffffffff1673ffffffffffffffffffffffffffffffffffffffff1663358177736040518060400160405280600d81526020017f456e646f776d656e7446756e64000000000000000000000000000000000000008152506040518263ffffffff1660e01b81526004018080602001828103825283818151815260200191508051906020019080838360005b83811015611874578082015181840152602081019050611859565b50505050905090810190601f1680156118a15780820380516001836020036101000a031916815260200191505b509250505060206040518083038186803b1580156118be57600080fd5b505afa1580156118d2573d6000803e3d6000fd5b505050506040513d60208110156118e857600080fd5b810190808051906020019092919050505073ffffffffffffffffffffffffffffffffffffffff1663ca2a188687876040518363ffffffff1660e01b8152600401808381526020018273ffffffffffffffffffffffffffffffffffffffff1673ffffffffffffffffffffffffffffffffffffffff1681526020019250505060206040518083038186803b15801561197d57600080fd5b505afa158015611991573d6000803e3d6000fd5b505050506040513d60208110156119a757600080fd5b8101908080519060200190929190505050905092959194509250565b600080600080846119d381614a8e565b6119dc57600080fd5b600260009054906101000a900473ffffffffffffffffffffffffffffffffffffffff1673ffffffffffffffffffffffffffffffffffffffff1663b93a5b5e6040518060400160405280600a81526020017f474d5365747465724442000000000000000000000000000000000000000000008152508860405160200180828152602001807f706c61796572426c61636b000000000000000000000000000000000000000000815250600b01915050604051602081830303815290604052805190602001206040518363ffffffff1660e01b81526004018080602001838152602001828103825284818151815260200191508051906020019080838360005b83811015611af4578082015181840152602081019050611ad9565b50505050905090810190601f168015611b215780820380516001836020036101000a031916815260200191505b50935050505060206040518083038186803b158015611b3f57600080fd5b505afa158015611b53573d6000803e3d6000fd5b505050506040513d6020811015611b6957600080fd5b81019080805190602001909291905050509450600260009054906101000a900473ffffffffffffffffffffffffffffffffffffffff1673ffffffffffffffffffffffffffffffffffffffff1663b93a5b5e6040518060400160405280600a81526020017f474d5365747465724442000000000000000000000000000000000000000000008152508860405160200180828152602001807f706c617965725265640000000000000000000000000000000000000000000000815250600901915050604051602081830303815290604052805190602001206040518363ffffffff1660e01b81526004018080602001838152602001828103825284818151815260200191508051906020019080838360005b83811015611c94578082015181840152602081019050611c79565b50505050905090810190601f168015611cc15780820380516001836020036101000a031916815260200191505b50935050505060206040518083038186803b158015611cdf57600080fd5b505afa158015611cf3573d6000803e3d6000fd5b505050506040513d6020811015611d0957600080fd5b81019080805190602001909291905050509350600260009054906101000a900473ffffffffffffffffffffffffffffffffffffffff1673ffffffffffffffffffffffffffffffffffffffff166308acb5566040518060400160405280600a81526020017f474d5365747465724442000000000000000000000000000000000000000000008152508888604051602001808381526020018273ffffffffffffffffffffffffffffffffffffffff1673ffffffffffffffffffffffffffffffffffffffff1660601b8152601401807f6b6974747900000000000000000000000000000000000000000000000000000081525060050192505050604051602081830303815290604052805190602001206040518363ffffffff1660e01b81526004018080602001838152602001828103825284818151815260200191508051906020019080838360005b83811015611e6b578082015181840152602081019050611e50565b50505050905090810190601f168015611e985780820380516001836020036101000a031916815260200191505b50935050505060206040518083038186803b158015611eb657600080fd5b505afa158015611eca573d6000803e3d6000fd5b505050506040513d6020811015611ee057600080fd5b81019080805190602001909291905050509250600260009054906101000a900473ffffffffffffffffffffffffffffffffffffffff1673ffffffffffffffffffffffffffffffffffffffff166308acb5566040518060400160405280600a81526020017f474d5365747465724442000000000000000000000000000000000000000000008152508887604051602001808381526020018273ffffffffffffffffffffffffffffffffffffffff1673ffffffffffffffffffffffffffffffffffffffff1660601b8152601401807f6b6974747900000000000000000000000000000000000000000000000000000081525060050192505050604051602081830303815290604052805190602001206040518363ffffffff1660e01b81526004018080602001838152602001828103825284818151815260200191508051906020019080838360005b83811015612042578082015181840152602081019050612027565b50505050905090810190601f16801561206f5780820380516001836020036101000a031916815260200191505b50935050505060206040518083038186803b15801561208d57600080fd5b505afa1580156120a1573d6000803e3d6000fd5b505050506040513d60208110156120b757600080fd5b81019080805190602001909291905050509150509193509193565b600260009054906101000a900473ffffffffffffffffffffffffffffffffffffffff1681565b6000600260009054906101000a900473ffffffffffffffffffffffffffffffffffffffff1673ffffffffffffffffffffffffffffffffffffffff166308acb5566040518060400160405280600a81526020017f474d5365747465724442000000000000000000000000000000000000000000008152508460405160200180828152602001807f706c6179696e6747616d65000000000000000000000000000000000000000000815250600b01915050604051602081830303815290604052805190602001206040518363ffffffff1660e01b81526004018080602001838152602001828103825284818151815260200191508051906020019080838360005b838110156122125780820151818401526020810190506121f7565b50505050905090810190601f16801561223f5780820380516001836020036101000a031916815260200191505b50935050505060206040518083038186803b15801561225d57600080fd5b505afa158015612271573d6000803e3d6000fd5b505050506040513d602081101561228757600080fd5b81019080805190602001909291905050509050919050565b6122a76152cf565b6122af6152f1565b60006122b96152f1565b6122c1615313565b600080876122ce81614a8e565b6122d757600080fd5b6122e0896119c3565b8b6000600281106122ed57fe5b602002018c6001600281106122fe57fe5b602002018c60006002811061230f57fe5b602002018d60016002811061232057fe5b6020020184815250848152508473ffffffffffffffffffffffffffffffffffffffff1673ffffffffffffffffffffffffffffffffffffffff168152508473ffffffffffffffffffffffffffffffffffffffff1673ffffffffffffffffffffffffffffffffffffffff1681525050505050612399896150f8565b95506123b689896000600281106123ac57fe5b60200201516146bc565b856000600281106123c357fe5b6020020181815250506123e789896001600281106123dd57fe5b60200201516146bc565b856001600281106123f457fe5b602002018181525050600360009054906101000a900473ffffffffffffffffffffffffffffffffffffffff1673ffffffffffffffffffffffffffffffffffffffff1663ebff754a8a8a60006002811061244957fe5b60200201516040518363ffffffff1660e01b8152600401808381526020018273ffffffffffffffffffffffffffffffffffffffff1673ffffffffffffffffffffffffffffffffffffffff1681526020019250505060206040518083038186803b1580156124b557600080fd5b505afa1580156124c9573d6000803e3d6000fd5b505050506040513d60208110156124df57600080fd5b8101908080519060200190929190505050846000600281106124fd57fe5b602002019015159081151581525050600360009054906101000a900473ffffffffffffffffffffffffffffffffffffffff1673ffffffffffffffffffffffffffffffffffffffff1663ebff754a8a8a60016002811061255857fe5b60200201516040518363ffffffff1660e01b8152600401808381526020018273ffffffffffffffffffffffffffffffffffffffff1673ffffffffffffffffffffffffffffffffffffffff1681526020019250505060206040518083038186803b1580156125c457600080fd5b505afa1580156125d8573d6000803e3d6000fd5b505050506040513d60208110156125ee57600080fd5b81019080805190602001909291905050508460016002811061260c57fe5b602002019015159081151581525050600260009054906101000a900473ffffffffffffffffffffffffffffffffffffffff1673ffffffffffffffffffffffffffffffffffffffff166308acb5566040518060400160405280600a81526020017f474d5365747465724442000000000000000000000000000000000000000000008152508b60405160200180828152602001807f6372656174656454696d65000000000000000000000000000000000000000000815250600b01915050604051602081830303815290604052805190602001206040518363ffffffff1660e01b81526004018080602001838152602001828103825284818151815260200191508051906020019080838360005b83811015612733578082015181840152602081019050612718565b50505050905090810190601f1680156127605780820380516001836020036101000a031916815260200191505b50935050505060206040518083038186803b15801561277e57600080fd5b505afa158015612792573d6000803e3d6000fd5b505050506040513d60208110156127a857600080fd5b81019080805190602001909291905050509250600260009054906101000a900473ffffffffffffffffffffffffffffffffffffffff1673ffffffffffffffffffffffffffffffffffffffff1663b93a5b5e6040518060400160405280600a81526020017f474d5365747465724442000000000000000000000000000000000000000000008152508b60405160200180828152602001807f77696e6e65720000000000000000000000000000000000000000000000000000815250600601915050604051602081830303815290604052805190602001206040518363ffffffff1660e01b81526004018080602001838152602001828103825284818151815260200191508051906020019080838360005b838110156128d35780820151818401526020810190506128b8565b50505050905090810190601f1680156129005780820380516001836020036101000a031916815260200191505b50935050505060206040518083038186803b15801561291e57600080fd5b505afa158015612932573d6000803e3d6000fd5b505050506040513d602081101561294857600080fd5b8101908080519060200190929190505050915050919395979092949650565b6000809054906101000a900473ffffffffffffffffffffffffffffffffffffffff1673ffffffffffffffffffffffffffffffffffffffff163373ffffffffffffffffffffffffffffffffffffffff16146129bd57fe5b80600260006101000a81548173ffffffffffffffffffffffffffffffffffffffff021916908373ffffffffffffffffffffffffffffffffffffffff16021790555050565b600080600260009054906101000a900473ffffffffffffffffffffffffffffffffffffffff1673ffffffffffffffffffffffffffffffffffffffff166308acb5566040518060400160405280600a81526020017f474d5365747465724442000000000000000000000000000000000000000000008152508560405160200180828152602001807f746f74616c457468000000000000000000000000000000000000000000000000815250600801915050604051602081830303815290604052805190602001206040518363ffffffff1660e01b81526004018080602001838152602001828103825284818151815260200191508051906020019080838360005b83811015612b1c578082015181840152602081019050612b01565b50505050905090810190601f168015612b495780820380516001836020036101000a031916815260200191505b50935050505060206040518083038186803b158015612b6757600080fd5b505afa158015612b7b573d6000803e3d6000fd5b505050506040513d6020811015612b9157600080fd5b81019080805190602001909291905050509150600260009054906101000a900473ffffffffffffffffffffffffffffffffffffffff1673ffffffffffffffffffffffffffffffffffffffff166308acb5566040518060400160405280600a81526020017f474d5365747465724442000000000000000000000000000000000000000000008152508560405160200180828152602001807f746f74616c4b7479000000000000000000000000000000000000000000000000815250600801915050604051602081830303815290604052805190602001206040518363ffffffff1660e01b81526004018080602001838152602001828103825284818151815260200191508051906020019080838360005b83811015612cbc578082015181840152602081019050612ca1565b50505050905090810190601f168015612ce95780820380516001836020036101000a031916815260200191505b50935050505060206040518083038186803b158015612d0757600080fd5b505afa158015612d1b573d6000803e3d6000fd5b505050506040513d6020811015612d3157600080fd5b81019080805190602001909291905050509050915091565b600080600080612d576152f1565b600080600080612d668a6119c3565b505091509150600260009054906101000a900473ffffffffffffffffffffffffffffffffffffffff1673ffffffffffffffffffffffffffffffffffffffff166308acb5566040518060400160405280600a81526020017f474d5365747465724442000000000000000000000000000000000000000000008152508c60405160200180828152602001807f686f6e6579706f74496400000000000000000000000000000000000000000000815250600a01915050604051602081830303815290604052805190602001206040518363ffffffff1660e01b81526004018080602001838152602001828103825284818151815260200191508051906020019080838360005b83811015612e84578082015181840152602081019050612e69565b50505050905090810190601f168015612eb15780820380516001836020036101000a031916815260200191505b50935050505060206040518083038186803b158015612ecf57600080fd5b505afa158015612ee3573d6000803e3d6000fd5b505050506040513d6020811015612ef957600080fd5b81019080805190602001909291905050509850600260009054906101000a900473ffffffffffffffffffffffffffffffffffffffff1673ffffffffffffffffffffffffffffffffffffffff166308acb5566040518060400160405280600a81526020017f474d5365747465724442000000000000000000000000000000000000000000008152508c60405160200180828152602001807f696e697469616c45746800000000000000000000000000000000000000000000815250600a01915050604051602081830303815290604052805190602001206040518363ffffffff1660e01b81526004018080602001838152602001828103825284818151815260200191508051906020019080838360005b83811015613024578082015181840152602081019050613009565b50505050905090810190601f1680156130515780820380516001836020036101000a031916815260200191505b50935050505060206040518083038186803b15801561306f57600080fd5b505afa158015613083573d6000803e3d6000fd5b505050506040513d602081101561309957600080fd5b81019080805190602001909291905050509650600460009054906101000a900473ffffffffffffffffffffffffffffffffffffffff1673ffffffffffffffffffffffffffffffffffffffff1663d6f203098b6040518263ffffffff1660e01b815260040180828152602001915050604080518083038186803b15801561311e57600080fd5b505afa158015613132573d6000803e3d6000fd5b505050506040513d604081101561314857600080fd5b81019080805190602001909291908051906020019092919050505080975081955050506131758a836141de565b8560006002811061318257fe5b6020020181815250506131958a826141de565b856001600281106131a257fe5b602002018181525050600460009054906101000a900473ffffffffffffffffffffffffffffffffffffffff1673ffffffffffffffffffffffffffffffffffffffff16636933bbd78b6040518263ffffffff1660e01b815260040180828152602001915050604080518083038186803b15801561321d57600080fd5b505afa158015613231573d6000803e3d6000fd5b505050506040513d604081101561324757600080fd5b81019080805190602001909291908051906020019092919050505080945081995050505050919395979092949650565b600460009054906101000a900473ffffffffffffffffffffffffffffffffffffffff1681565b60008060006132ac858561489b565b9250600360009054906101000a900473ffffffffffffffffffffffffffffffffffffffff1673ffffffffffffffffffffffffffffffffffffffff1663f9ccbdf286866040518363ffffffff1660e01b8152600401808381526020018273ffffffffffffffffffffffffffffffffffffffff1673ffffffffffffffffffffffffffffffffffffffff1681526020019250505060206040518083038186803b15801561335557600080fd5b505afa158015613369573d6000803e3d6000fd5b505050506040513d602081101561337f57600080fd5b8101908080519060200190929190505050915061339c85856141de565b90509250925092565b6000806000600260009054906101000a900473ffffffffffffffffffffffffffffffffffffffff1673ffffffffffffffffffffffffffffffffffffffff1663b93a5b5e6040518060400160405280600a81526020017f474d5365747465724442000000000000000000000000000000000000000000008152508660405160200180828152602001807f77696e6e65720000000000000000000000000000000000000000000000000000815250600601915050604051602081830303815290604052805190602001206040518363ffffffff1660e01b81526004018080602001838152602001828103825284818151815260200191508051906020019080838360005b838110156134c25780820151818401526020810190506134a7565b50505050905090810190601f1680156134ef5780820380516001836020036101000a031916815260200191505b50935050505060206040518083038186803b15801561350d57600080fd5b505afa158015613521573d6000803e3d6000fd5b505050506040513d602081101561353757600080fd5b81019080805190602001909291905050509250600260009054906101000a900473ffffffffffffffffffffffffffffffffffffffff1673ffffffffffffffffffffffffffffffffffffffff1663b93a5b5e6040518060400160405280600a81526020017f474d5365747465724442000000000000000000000000000000000000000000008152508660405160200180828152602001807f746f70426574746f720000000000000000000000000000000000000000000000815250600901915050604051602081830303815290604052805190602001206040518363ffffffff1660e01b81526004018080602001838152602001828103825284818151815260200191508051906020019080838360005b83811015613662578082015181840152602081019050613647565b50505050905090810190601f16801561368f5780820380516001836020036101000a031916815260200191505b50935050505060206040518083038186803b1580156136ad57600080fd5b505afa1580156136c1573d6000803e3d6000fd5b505050506040513d60208110156136d757600080fd5b81019080805190602001909291905050509150600260009054906101000a900473ffffffffffffffffffffffffffffffffffffffff1673ffffffffffffffffffffffffffffffffffffffff1663b93a5b5e6040518060400160405280600a81526020017f474d5365747465724442000000000000000000000000000000000000000000008152508660405160200180828152602001807f7365636f6e64546f70426574746f720000000000000000000000000000000000815250600f01915050604051602081830303815290604052805190602001206040518363ffffffff1660e01b81526004018080602001838152602001828103825284818151815260200191508051906020019080838360005b838110156138025780820151818401526020810190506137e7565b50505050905090810190601f16801561382f5780820380516001836020036101000a031916815260200191505b50935050505060206040518083038186803b15801561384d57600080fd5b505afa158015613861573d6000803e3d6000fd5b505050506040513d602081101561387757600080fd5b810190808051906020019092919050505090509193909250565b6000809054906101000a900473ffffffffffffffffffffffffffffffffffffffff1673ffffffffffffffffffffffffffffffffffffffff163373ffffffffffffffffffffffffffffffffffffffff16146138e757fe5b600160009054906101000a900473ffffffffffffffffffffffffffffffffffffffff1673ffffffffffffffffffffffffffffffffffffffff1663358177736040518060400160405280600981526020017f47616d6553746f726500000000000000000000000000000000000000000000008152506040518263ffffffff1660e01b81526004018080602001828103825283818151815260200191508051906020019080838360005b838110156139aa57808201518184015260208101905061398f565b50505050905090810190601f1680156139d75780820380516001836020036101000a031916815260200191505b509250505060206040518083038186803b1580156139f457600080fd5b505afa158015613a08573d6000803e3d6000fd5b505050506040513d6020811015613a1e57600080fd5b8101908080519060200190929190505050600360006101000a81548173ffffffffffffffffffffffffffffffffffffffff021916908373ffffffffffffffffffffffffffffffffffffffff160217905550600160009054906101000a900473ffffffffffffffffffffffffffffffffffffffff1673ffffffffffffffffffffffffffffffffffffffff1663358177736040518060400160405280600b81526020017f456e646f776d656e7444420000000000000000000000000000000000000000008152506040518263ffffffff1660e01b81526004018080602001828103825283818151815260200191508051906020019080838360005b83811015613b32578082015181840152602081019050613b17565b50505050905090810190601f168015613b5f5780820380516001836020036101000a031916815260200191505b509250505060206040518083038186803b158015613b7c57600080fd5b505afa158015613b90573d6000803e3d6000fd5b505050506040513d6020811015613ba657600080fd5b8101908080519060200190929190505050600460006101000a81548173ffffffffffffffffffffffffffffffffffffffff021916908373ffffffffffffffffffffffffffffffffffffffff160217905550565b600080600083613c0881614a8e565b613c1157600080fd5b600260009054906101000a900473ffffffffffffffffffffffffffffffffffffffff1673ffffffffffffffffffffffffffffffffffffffff166308acb5566040518060400160405280600a81526020017f474d5365747465724442000000000000000000000000000000000000000000008152508760405160200180828152602001807f737461727454696d650000000000000000000000000000000000000000000000815250600901915050604051602081830303815290604052805190602001206040518363ffffffff1660e01b81526004018080602001838152602001828103825284818151815260200191508051906020019080838360005b83811015613d29578082015181840152602081019050613d0e565b50505050905090810190601f168015613d565780820380516001836020036101000a031916815260200191505b50935050505060206040518083038186803b158015613d7457600080fd5b505afa158015613d88573d6000803e3d6000fd5b505050506040513d6020811015613d9e57600080fd5b81019080805190602001909291905050509350600260009054906101000a900473ffffffffffffffffffffffffffffffffffffffff1673ffffffffffffffffffffffffffffffffffffffff166308acb5566040518060400160405280600a81526020017f474d5365747465724442000000000000000000000000000000000000000000008152508760405160200180828152602001807f707265737461727454696d650000000000000000000000000000000000000000815250600c01915050604051602081830303815290604052805190602001206040518363ffffffff1660e01b81526004018080602001838152602001828103825284818151815260200191508051906020019080838360005b83811015613ec9578082015181840152602081019050613eae565b50505050905090810190601f168015613ef65780820380516001836020036101000a031916815260200191505b50935050505060206040518083038186803b158015613f1457600080fd5b505afa158015613f28573d6000803e3d6000fd5b505050506040513d6020811015613f3e57600080fd5b81019080805190602001909291905050509250600260009054906101000a900473ffffffffffffffffffffffffffffffffffffffff1673ffffffffffffffffffffffffffffffffffffffff166308acb5566040518060400160405280600a81526020017f474d5365747465724442000000000000000000000000000000000000000000008152508760405160200180828152602001807f656e6454696d6500000000000000000000000000000000000000000000000000815250600701915050604051602081830303815290604052805190602001206040518363ffffffff1660e01b81526004018080602001838152602001828103825284818151815260200191508051906020019080838360005b8381101561406957808201518184015260208101905061404e565b50505050905090810190601f1680156140965780820380516001836020036101000a031916815260200191505b50935050505060206040518083038186803b1580156140b457600080fd5b505afa1580156140c8573d6000803e3d6000fd5b505050506040513d60208110156140de57600080fd5b81019080805190602001909291905050509150509193909250565b6000809054906101000a900473ffffffffffffffffffffffffffffffffffffffff1681565b6000809054906101000a900473ffffffffffffffffffffffffffffffffffffffff1673ffffffffffffffffffffffffffffffffffffffff163373ffffffffffffffffffffffffffffffffffffffff161461417457fe5b80600160006101000a81548173ffffffffffffffffffffffffffffffffffffffff021916908373ffffffffffffffffffffffffffffffffffffffff16021790555050565b600360009054906101000a900473ffffffffffffffffffffffffffffffffffffffff1681565b6000600260009054906101000a900473ffffffffffffffffffffffffffffffffffffffff1673ffffffffffffffffffffffffffffffffffffffff166308acb5566040518060400160405280600a81526020017f474d5365747465724442000000000000000000000000000000000000000000008152508585604051602001808381526020018273ffffffffffffffffffffffffffffffffffffffff1673ffffffffffffffffffffffffffffffffffffffff1660601b8152601401807f746f74616c426574416d6f756e74000000000000000000000000000000000000815250600e0192505050604051602081830303815290604052805190602001206040518363ffffffff1660e01b81526004018080602001838152602001828103825284818151815260200191508051906020019080838360005b8381101561432f578082015181840152602081019050614314565b50505050905090810190601f16801561435c5780820380516001836020036101000a031916815260200191505b50935050505060206040518083038186803b15801561437a57600080fd5b505afa15801561438e573d6000803e3d6000fd5b505050506040513d60208110156143a457600080fd5b8101908080519060200190929190505050905092915050565b6000806000806000806000600160009054906101000a900473ffffffffffffffffffffffffffffffffffffffff1673ffffffffffffffffffffffffffffffffffffffff1663358177736040518060400160405280600a81526020017f4b697474696548656c6c000000000000000000000000000000000000000000008152506040518263ffffffff1660e01b81526004018080602001828103825283818151815260200191508051906020019080838360005b8381101561448b578082015181840152602081019050614470565b50505050905090810190601f1680156144b85780820380516001836020036101000a031916815260200191505b509250505060206040518083038186803b1580156144d557600080fd5b505afa1580156144e9573d6000803e3d6000fd5b505050506040513d60208110156144ff57600080fd5b810190808051906020019092919050505073ffffffffffffffffffffffffffffffffffffffff16636889364c896040518263ffffffff1660e01b81526004018082815260200191505060a06040518083038186803b15801561456057600080fd5b505afa158015614574573d6000803e3d6000fd5b505050506040513d60a081101561458a57600080fd5b810190808051906020019092919080519060200190929190805190602001909291908051906020019092919080519060200190929190505050909150809850819650829950839a50505050506145df886120f8565b90506000811415915085156146b1576146ae600360009054906101000a900473ffffffffffffffffffffffffffffffffffffffff1673ffffffffffffffffffffffffffffffffffffffff16633c38d0a9836040518263ffffffff1660e01b81526004018082815260200191505060206040518083038186803b15801561466457600080fd5b505afa158015614678573d6000803e3d6000fd5b505050506040513d602081101561468e57600080fd5b8101908080519060200190929190505050866152b390919063ffffffff16565b93505b919395979092949650565b6000600260009054906101000a900473ffffffffffffffffffffffffffffffffffffffff1673ffffffffffffffffffffffffffffffffffffffff166308acb5566040518060400160405280600a81526020017f474d5365747465724442000000000000000000000000000000000000000000008152508585604051602001808381526020018273ffffffffffffffffffffffffffffffffffffffff1673ffffffffffffffffffffffffffffffffffffffff1660601b8152601401807f737570706f727465727300000000000000000000000000000000000000000000815250600a0192505050604051602081830303815290604052805190602001206040518363ffffffff1660e01b81526004018080602001838152602001828103825284818151815260200191508051906020019080838360005b8381101561480d5780820151818401526020810190506147f2565b50505050905090810190601f16801561483a5780820380516001836020036101000a031916815260200191505b50935050505060206040518083038186803b15801561485857600080fd5b505afa15801561486c573d6000803e3d6000fd5b505050506040513d602081101561488257600080fd5b8101908080519060200190929190505050905092915050565b6000826148a781614a8e565b6148b057600080fd5b600260009054906101000a900473ffffffffffffffffffffffffffffffffffffffff1673ffffffffffffffffffffffffffffffffffffffff166308acb5566040518060400160405280600a81526020017f474d5365747465724442000000000000000000000000000000000000000000008152508686604051602001808381526020018273ffffffffffffffffffffffffffffffffffffffff1673ffffffffffffffffffffffffffffffffffffffff1660601b8152601401807f6b6974747900000000000000000000000000000000000000000000000000000081525060050192505050604051602081830303815290604052805190602001206040518363ffffffff1660e01b81526004018080602001838152602001828103825284818151815260200191508051906020019080838360005b838110156149ff5780820151818401526020810190506149e4565b50505050905090810190601f168015614a2c5780820380516001836020036101000a031916815260200191505b50935050505060206040518083038186803b158015614a4a57600080fd5b505afa158015614a5e573d6000803e3d6000fd5b505050506040513d6020811015614a7457600080fd5b810190808051906020019092919050505091505092915050565b6000600260009054906101000a900473ffffffffffffffffffffffffffffffffffffffff1673ffffffffffffffffffffffffffffffffffffffff166396edc0096040518060400160405280600a81526020017f474d53657474657244420000000000000000000000000000000000000000000081525060405160200180807f47616d655461626c650000000000000000000000000000000000000000000000815250600901905060405160208183030381529060405280519060200120856040518463ffffffff1660e01b81526004018080602001848152602001838152602001828103825285818151815260200191508051906020019080838360005b83811015614ba7578082015181840152602081019050614b8c565b50505050905090810190601f168015614bd45780820380516001836020036101000a031916815260200191505b5094505050505060206040518083038186803b158015614bf357600080fd5b505afa158015614c07573d6000803e3d6000fd5b505050506040513d6020811015614c1d57600080fd5b81019080805190602001909291905050509050919050565b600080600260009054906101000a900473ffffffffffffffffffffffffffffffffffffffff1673ffffffffffffffffffffffffffffffffffffffff1663b93a5b5e6040518060400160405280600a81526020017f474d5365747465724442000000000000000000000000000000000000000000008152508660405160200180828152602001807f706c617965725265640000000000000000000000000000000000000000000000815250600901915050604051602081830303815290604052805190602001206040518363ffffffff1660e01b81526004018080602001838152602001828103825284818151815260200191508051906020019080838360005b83811015614d50578082015181840152602081019050614d35565b50505050905090810190601f168015614d7d5780820380516001836020036101000a031916815260200191505b50935050505060206040518083038186803b158015614d9b57600080fd5b505afa158015614daf573d6000803e3d6000fd5b505050506040513d6020811015614dc557600080fd5b810190808051906020019092919050505090508073ffffffffffffffffffffffffffffffffffffffff168373ffffffffffffffffffffffffffffffffffffffff161415614e16576001915050614ffe565b6000600260009054906101000a900473ffffffffffffffffffffffffffffffffffffffff1673ffffffffffffffffffffffffffffffffffffffff1663b93a5b5e6040518060400160405280600a81526020017f474d5365747465724442000000000000000000000000000000000000000000008152508760405160200180828152602001807f706c61796572426c61636b000000000000000000000000000000000000000000815250600b01915050604051602081830303815290604052805190602001206040518363ffffffff1660e01b81526004018080602001838152602001828103825284818151815260200191508051906020019080838360005b83811015614f30578082015181840152602081019050614f15565b50505050905090810190601f168015614f5d5780820380516001836020036101000a031916815260200191505b50935050505060206040518083038186803b158015614f7b57600080fd5b505afa158015614f8f573d6000803e3d6000fd5b505050506040513d6020811015614fa557600080fd5b810190808051906020019092919050505090508073ffffffffffffffffffffffffffffffffffffffff168473ffffffffffffffffffffffffffffffffffffffff161415614ff757600192505050614ffe565b6000925050505b92915050565b600160009054906101000a900473ffffffffffffffffffffffffffffffffffffffff1681565b6000809054906101000a900473ffffffffffffffffffffffffffffffffffffffff1673ffffffffffffffffffffffffffffffffffffffff163373ffffffffffffffffffffffffffffffffffffffff161461508057fe5b600073ffffffffffffffffffffffffffffffffffffffff168173ffffffffffffffffffffffffffffffffffffffff16146150f557806000806101000a81548173ffffffffffffffffffffffffffffffffffffffff021916908373ffffffffffffffffffffffffffffffffffffffff1602179055505b50565b60008161510481614a8e565b61510d57600080fd5b600260009054906101000a900473ffffffffffffffffffffffffffffffffffffffff1673ffffffffffffffffffffffffffffffffffffffff166308acb5566040518060400160405280600a81526020017f474d5365747465724442000000000000000000000000000000000000000000008152508560405160200180828152602001807f7374617465000000000000000000000000000000000000000000000000000000815250600501915050604051602081830303815290604052805190602001206040518363ffffffff1660e01b81526004018080602001838152602001828103825284818151815260200191508051906020019080838360005b8381101561522557808201518184015260208101905061520a565b50505050905090810190601f1680156152525780820380516001836020036101000a031916815260200191505b50935050505060206040518083038186803b15801561527057600080fd5b505afa158015615284573d6000803e3d6000fd5b505050506040513d602081101561529a57600080fd5b8101908080519060200190929190505050915050919050565b6000808284019050838110156152c557fe5b8091505092915050565b6040518060400160405280600290602082028038833980820191505090505090565b6040518060400160405280600290602082028038833980820191505090505090565b604051806040016040528060029060208202803883398082019150509050509056fea265627a7a723058207712b2cd81cc0f9cfc119fd3a581e5cb1b8fea076eb1ea0d7a66416fadd7b21d64736f6c634300050a0032",
  "source": "// This program is free software: you can redistribute it and/or modify\n// it under the terms of the GNU General Public License as published by\n// the Free Software Foundation, either version 3 of the License, or\n// (at your option) any later version.\n\n// This program is distributed in the hope that it will be useful,\n// but WITHOUT ANY WARRANTY; without even the implied warranty of\n// MERCHANTABILITY or FITNESS FOR A PARTICULAR PURPOSE.  See the\n// GNU General Public License for more details.\n\n// You should have received a copy of the GNU General Public License\n// along with this program.  If not, see <http://www.gnu.org/licenses/>.\n\npragma solidity ^0.5.5;\n\nimport \"../proxy/Proxied.sol\";\nimport \"./GenericDB.sol\";\nimport \"../../libs/SafeMath.sol\";\nimport \"../gamemanager/GameStore.sol\";\nimport \"./EndowmentDB.sol\";\nimport \"../kittieHELL/KittieHell.sol\";\nimport \"../endowment/EndowmentFund.sol\";\n\n/**\n * @dev Getters for game instances\n * @author @psychoplasma\n */\ncontract GMGetterDB is Proxied {\n\n using SafeMath for uint256;\n\n  GenericDB public genericDB;\n  GameStore public gameStore;\n  EndowmentDB public endowmentDB;\n\n  bytes32 internal constant TABLE_KEY_GAME= keccak256(abi.encodePacked(\"GameTable\"));\n  string internal constant TABLE_NAME_BETTOR = \"BettorTable\";\n\n  modifier onlyExistentGame(uint256 gameId) {\n    require(doesGameExist(gameId));\n    _;\n  }\n  \n  constructor(GenericDB _genericDB) public {\n    setGenericDB(_genericDB);\n  }\n\n  function setGenericDB(GenericDB _genericDB) public onlyOwner {\n    genericDB = _genericDB;\n  }\n\n  function initialize() external onlyOwner {\n    gameStore = GameStore(proxy.getContract(CONTRACT_NAME_GAMESTORE));\n    endowmentDB = EndowmentDB(proxy.getContract(CONTRACT_NAME_ENDOWMENT_DB));\n  }\n\n  /**\n   * @dev get amount of supporters for given game and player\n   */\n  function getSupporters(uint256 gameId, address player)\n    public view\n    returns (uint)\n  {\n    return genericDB.getUintStorage(\n      CONTRACT_NAME_GM_SETTER_DB,\n      keccak256(abi.encodePacked(gameId, player, \"supporters\"))\n    );\n  }\n\n   /**\n   * @dev Updates the total amount of bet in the given game and supported player\n   */\n  function getTotalBet(uint256 gameId, address supportedPlayer) public view returns(uint) {\n    return genericDB.getUintStorage(\n      CONTRACT_NAME_GM_SETTER_DB,\n      keccak256(abi.encodePacked(gameId, supportedPlayer, \"totalBetAmount\"))\n    );\n  }\n\n  function getGamePlayers(uint256 gameId)\n    public view\n    onlyExistentGame(gameId)\n    returns (address playerBlack, address playerRed, uint256 kittyBlack, uint256 kittyRed)\n  {\n    playerBlack = genericDB.getAddressStorage(CONTRACT_NAME_GM_SETTER_DB, keccak256(abi.encodePacked(gameId, \"playerBlack\")));\n    playerRed = genericDB.getAddressStorage(CONTRACT_NAME_GM_SETTER_DB, keccak256(abi.encodePacked(gameId, \"playerRed\")));\n    kittyBlack = genericDB.getUintStorage(CONTRACT_NAME_GM_SETTER_DB, keccak256(abi.encodePacked(gameId, playerBlack, \"kitty\")));\n    kittyRed = genericDB.getUintStorage(CONTRACT_NAME_GM_SETTER_DB, keccak256(abi.encodePacked(gameId, playerRed, \"kitty\")));\n  \n  }\n\n  // function getOpponent(uint gameId, address player) public view returns(address){\n  //   (address playerBlack, address playerRed,,) = getGamePlayers(gameId);\n  //   if(playerBlack == player) return playerRed;\n  //   return playerBlack;\n  // }\n\n  // function getCorner(uint gameId, address player) public view returns(uint){\n  //   (address playerBlack, address playerRed,,) = getGamePlayers(gameId);\n  //   if(playerBlack == player) return 0;\n  //   if(playerRed == player) return 1;\n  //   return 2;\n  // }\n\n /**\n   * @dev check game state, 0-4\n   */\n  function getGameState(uint256 gameId)\n    public view\n    onlyExistentGame(gameId)\n    returns (uint gameState)\n  {\n    return genericDB.getUintStorage(CONTRACT_NAME_GM_SETTER_DB, keccak256(abi.encodePacked(gameId, \"state\")));\n  }\n\n  /**\n   * @dev get fighting kittyId for specific game and player\n   */\n  function getKittieInGame(uint256 gameId, address player)\n    public view\n    onlyExistentGame(gameId)\n    returns (uint)\n  {\n    return genericDB.getUintStorage(CONTRACT_NAME_GM_SETTER_DB, keccak256(abi.encodePacked(gameId, player, \"kitty\")));\n  }\n\n  /**\n   * @dev ?\n   */\n  function getGameTimes(uint256 gameId)\n    public view\n    onlyExistentGame(gameId)\n    returns (uint startTime, uint preStartTime, uint endTime)\n  {\n    startTime = genericDB.getUintStorage(CONTRACT_NAME_GM_SETTER_DB, keccak256(abi.encodePacked(gameId, \"startTime\")));\n    preStartTime = genericDB.getUintStorage(CONTRACT_NAME_GM_SETTER_DB, keccak256(abi.encodePacked(gameId, \"prestartTime\")));\n    endTime = genericDB.getUintStorage(CONTRACT_NAME_GM_SETTER_DB, keccak256(abi.encodePacked(gameId, \"endTime\")));\n  }\n  \n  /**\n   * @dev Checks whether the given player is playing in the given game.\n   */\n  function isPlayer(uint256 gameId, address player) public view returns (bool) {\n    address playerRed = genericDB.getAddressStorage(CONTRACT_NAME_GM_SETTER_DB, keccak256(abi.encodePacked(gameId, \"playerRed\")));\n    if (player == playerRed) {\n      return true;\n    }\n\n    address playerBlack = genericDB.getAddressStorage(CONTRACT_NAME_GM_SETTER_DB, keccak256(abi.encodePacked(gameId, \"playerBlack\")));\n    if (player == playerBlack) {\n      return true;\n    }\n\n    return false;\n  }\n\n  function doesGameExist(uint256 gameId) public view returns (bool) {\n    return genericDB.doesNodeExist(CONTRACT_NAME_GM_SETTER_DB, TABLE_KEY_GAME, gameId);\n  }\n\n  function getGameOfKittie(uint kittieId) public view returns(uint){\n    return genericDB.getUintStorage(CONTRACT_NAME_GM_SETTER_DB, keccak256(abi.encodePacked(kittieId, \"playingGame\")));\n  }\n\n  function getFinalHoneypot(uint256 gameId)\n    public view\n    returns(uint totalEth, uint totalKty )\n  {\n    totalEth = genericDB.getUintStorage(CONTRACT_NAME_GM_SETTER_DB, keccak256(abi.encodePacked(gameId, \"totalEth\")));\n    totalKty = genericDB.getUintStorage(CONTRACT_NAME_GM_SETTER_DB, keccak256(abi.encodePacked(gameId, \"totalKty\")));\n  }\n\n\n  // === FRONTEND GETTERS ===\n  function getFighterByKittieID(uint256 kittieId)\n    public view\n    returns (address owner, bool isDead, uint deathTime, uint kittieHellExp, bool isGhost, bool isPlaying, uint gameId)\n  {\n    (owner, isDead,, isGhost, deathTime) = KittieHell(proxy.getContract(CONTRACT_NAME_KITTIEHELL)).getKittyStatus(kittieId);\n    gameId = getGameOfKittie(kittieId);\n    //If gameId is 0 is not playing, otherwise, it is.\n    isPlaying = (gameId != 0);\n    if(isDead) kittieHellExp = deathTime.add(gameStore.getKittieExpirationTime(gameId));\n  }\n\n  /**\n   * @dev Returns the total amount of bet of the given bettor\n   * and the player supported by that bettor in the game given.\n   */\n  function getSupporterInfo(uint256 gameId, address bettor)\n    public view\n    returns (uint256 betAmount, address supportedPlayer, bool ticketFeePaid, bool hasClaimed)\n  {\n    betAmount = genericDB.getUintStorage(\n      CONTRACT_NAME_GM_SETTER_DB,\n      keccak256(abi.encodePacked(gameId, bettor, \"betAmount\"))\n    );\n    supportedPlayer = genericDB.getAddressStorage(\n      CONTRACT_NAME_GM_SETTER_DB,\n      keccak256(abi.encodePacked(gameId, bettor, \"supportedPlayer\"))\n    );\n\n    ticketFeePaid = genericDB.getBoolStorage(CONTRACT_NAME_GM_SETTER_DB, keccak256(abi.encodePacked(gameId, bettor, \"ticketFeePaid\")));\n    hasClaimed = EndowmentFund(proxy.getContract(CONTRACT_NAME_ENDOWMENT_FUND)).getWithdrawalState(gameId, bettor);\n  }\n\n  /**\n   * @dev Returns players, fighter kitties' ids,\n   * total amount of bet and the timestamp of creation of this game.\n   */\n  function getGameInfo(uint256 gameId)\n    public view\n    onlyExistentGame(gameId)\n    returns (address[2] memory players, uint[2] memory kittieIds, uint state,\n      uint[2] memory supporters, bool[2] memory pressedStart, uint timeCreated, address winner)\n  {\n    // players[0] = genericDB.getAddressStorage(CONTRACT_NAME_GM_SETTER_DB, keccak256(abi.encodePacked(gameId, \"playerBlack\")));\n    // players[1] = genericDB.getAddressStorage(CONTRACT_NAME_GM_SETTER_DB, keccak256(abi.encodePacked(gameId, \"playerRed\")));\n    // kittieIds[0] = genericDB.getUintStorage(CONTRACT_NAME_GM_SETTER_DB, keccak256(abi.encodePacked(gameId, players[0], \"kitty\")));\n    // kittieIds[1] = genericDB.getUintStorage(CONTRACT_NAME_GM_SETTER_DB, keccak256(abi.encodePacked(gameId, players[1], \"kitty\")));\n    (players[0], players[1], kittieIds[0], kittieIds[1]) = getGamePlayers(gameId);\n    // state = genericDB.getUintStorage(CONTRACT_NAME_GM_SETTER_DB, keccak256(abi.encodePacked(gameId, \"state\")));\n    state = getGameState(gameId);\n    // supporters[0] = genericDB.getUintStorage(CONTRACT_NAME_GM_SETTER_DB, keccak256(abi.encodePacked(gameId, players[0], \"supporters\")));\n    // supporters[1] = genericDB.getUintStorage(CONTRACT_NAME_GM_SETTER_DB, keccak256(abi.encodePacked(gameId, players[1], \"supporters\")));\n    supporters[0] = getSupporters(gameId, players[0]);\n    supporters[1] = getSupporters(gameId, players[1]);\n    pressedStart[0] = gameStore.didHitStart(gameId, players[0]);\n    pressedStart[1] = gameStore.didHitStart(gameId, players[1]);\n    timeCreated = genericDB.getUintStorage(CONTRACT_NAME_GM_SETTER_DB, keccak256(abi.encodePacked(gameId, \"createdTime\")));\n    winner = genericDB.getAddressStorage(CONTRACT_NAME_GM_SETTER_DB, keccak256(abi.encodePacked(gameId, \"winner\")));\n  }\n\n  function getHoneypotInfo(uint256 gameId)\n    public view\n    returns(uint honeypotId, uint status, uint initialEth, uint ethTotal, uint[2] memory ethByCorner, uint ktyTotal, uint expTime)\n  {\n    (address playerBlack, address playerRed,,) = getGamePlayers(gameId);\n    honeypotId = genericDB.getUintStorage(CONTRACT_NAME_GM_SETTER_DB, keccak256(abi.encodePacked(gameId, \"honeypotId\")));\n    initialEth = genericDB.getUintStorage(CONTRACT_NAME_GM_SETTER_DB, keccak256(abi.encodePacked(gameId, \"initialEth\")));\n    (ktyTotal, ethTotal) = endowmentDB.getHoneyPotBalance(gameId);\n    ethByCorner[0] = getTotalBet(gameId, playerBlack);\n    ethByCorner[1] = getTotalBet(gameId, playerRed);\n    (status, expTime) = endowmentDB.getHoneypotState(gameId);\n  }\n\n  function getMyInfo(uint256 gameId)\n    public view\n    returns(bool isSupporter, uint supportedCorner, bool isPlayerInGame, uint corner)\n  {\n    isSupporter = genericDB.doesNodeAddrExist(CONTRACT_NAME_GM_SETTER_DB, keccak256(abi.encodePacked(gameId, TABLE_NAME_BETTOR)), msg.sender);\n    address supportedPlayer = genericDB.getAddressStorage(\n      CONTRACT_NAME_GM_SETTER_DB, keccak256(abi.encodePacked(gameId, msg.sender, \"supportedPlayer\")));\n    supportedCorner = gameStore.getCorner(gameId, supportedPlayer);\n    isPlayerInGame = isPlayer(gameId, msg.sender);\n    corner = gameStore.getCorner(gameId, msg.sender);\n  }\n\n  function getPlayer(uint gameId, address player)\n    public view\n    returns(uint kittieId, uint corner, uint betsTotalEth)\n  {\n    kittieId = getKittieInGame(gameId, player);\n    corner = gameStore.getCorner(gameId, player);\n    betsTotalEth = getTotalBet(gameId, player);\n  }\n\n  function getWinners(uint256 gameId)\n    public view\n    returns (address winner, address topBettor, address secondTopBettor)\n  {\n    winner = genericDB.getAddressStorage(CONTRACT_NAME_GM_SETTER_DB,keccak256(abi.encodePacked(gameId, \"winner\")));\n    topBettor = genericDB.getAddressStorage(CONTRACT_NAME_GM_SETTER_DB,keccak256(abi.encodePacked(gameId, \"topBettor\")));\n    secondTopBettor = genericDB.getAddressStorage(CONTRACT_NAME_GM_SETTER_DB,keccak256(abi.encodePacked(gameId, \"secondTopBettor\")));\n  }\n\n}\n",
  "sourcePath": "/home/wafflemakr/Desktop/KittieFight/alpha/contracts/modules/databases/GMGetterDB.sol",
  "compiler": {
    "name": "solc",
    "version": "0.5.10+commit.5a6ea5b1.Emscripten.clang"
  },
  "schemaVersion": "3.0.11",
  "updatedAt": "2019-08-11T05:15:11.321Z",
  "devdoc": {
    "author": "@psychoplasma",
    "details": "Getters for game instances",
    "methods": {
      "getGameInfo(uint256)": {
        "details": "Returns players, fighter kitties' ids, total amount of bet and the timestamp of creation of this game."
      },
      "getGameState(uint256)": {
        "details": "check game state, 0-4"
      },
      "getGameTimes(uint256)": {
        "details": "?"
      },
      "getKittieInGame(uint256,address)": {
        "details": "get fighting kittyId for specific game and player"
      },
      "getSupporterInfo(uint256,address)": {
        "details": "Returns the total amount of bet of the given bettor and the player supported by that bettor in the game given."
      },
      "getSupporters(uint256,address)": {
        "details": "get amount of supporters for given game and player"
      },
      "getTotalBet(uint256,address)": {
        "details": "Updates the total amount of bet in the given game and supported player"
      },
      "isPlayer(uint256,address)": {
        "details": "Checks whether the given player is playing in the given game."
      }
    }
  },
  "userdoc": {
    "methods": {
      "setProxy(address)": {
        "notice": "Set/update address of Proxy contract"
      }
    }
  }
}