{
  "contractName": "GMSetterDB",
  "abi": [
    {
      "constant": true,
      "inputs": [],
      "name": "gameCreation",
      "outputs": [
        {
          "internalType": "contract GameCreation",
          "name": "",
          "type": "address"
        }
      ],
      "payable": false,
      "stateMutability": "view",
      "type": "function"
    },
    {
      "constant": true,
      "inputs": [],
      "name": "gmGetterDB",
      "outputs": [
        {
          "internalType": "contract GMGetterDB",
          "name": "",
          "type": "address"
        }
      ],
      "payable": false,
      "stateMutability": "view",
      "type": "function"
    },
    {
      "constant": true,
      "inputs": [],
      "name": "genericDB",
      "outputs": [
        {
          "internalType": "contract GenericDB",
          "name": "",
          "type": "address"
        }
      ],
      "payable": false,
      "stateMutability": "view",
      "type": "function"
    },
    {
      "constant": true,
      "inputs": [],
      "name": "owner",
      "outputs": [
        {
          "internalType": "address payable",
          "name": "",
          "type": "address"
        }
      ],
      "payable": false,
      "stateMutability": "view",
      "type": "function"
    },
    {
      "constant": false,
      "inputs": [
        {
          "internalType": "contract ProxyBase",
          "name": "_proxy",
          "type": "address"
        }
      ],
      "name": "setProxy",
      "outputs": [],
      "payable": false,
      "stateMutability": "nonpayable",
      "type": "function"
    },
    {
      "constant": true,
      "inputs": [],
      "name": "gameVarAndFee",
      "outputs": [
        {
          "internalType": "contract GameVarAndFee",
          "name": "",
          "type": "address"
        }
      ],
      "payable": false,
      "stateMutability": "view",
      "type": "function"
    },
    {
      "constant": true,
      "inputs": [],
      "name": "gameStore",
      "outputs": [
        {
          "internalType": "contract GameStore",
          "name": "",
          "type": "address"
        }
      ],
      "payable": false,
      "stateMutability": "view",
      "type": "function"
    },
    {
      "constant": true,
      "inputs": [],
      "name": "proxy",
      "outputs": [
        {
          "internalType": "contract ProxyBase",
          "name": "",
          "type": "address"
        }
      ],
      "payable": false,
      "stateMutability": "view",
      "type": "function"
    },
    {
      "constant": false,
      "inputs": [
        {
          "internalType": "address payable",
          "name": "newOwner",
          "type": "address"
        }
      ],
      "name": "transferOwnership",
      "outputs": [],
      "payable": false,
      "stateMutability": "nonpayable",
      "type": "function"
    },
    {
      "inputs": [
        {
          "internalType": "contract GenericDB",
          "name": "_genericDB",
          "type": "address"
        }
      ],
      "payable": false,
      "stateMutability": "nonpayable",
      "type": "constructor"
    },
    {
      "constant": false,
      "inputs": [
        {
          "internalType": "contract GenericDB",
          "name": "_genericDB",
          "type": "address"
        }
      ],
      "name": "setGenericDB",
      "outputs": [],
      "payable": false,
      "stateMutability": "nonpayable",
      "type": "function"
    },
    {
      "constant": false,
      "inputs": [],
      "name": "initialize",
      "outputs": [],
      "payable": false,
      "stateMutability": "nonpayable",
      "type": "function"
    },
    {
      "constant": false,
      "inputs": [
        {
          "internalType": "address",
          "name": "playerRed",
          "type": "address"
        },
        {
          "internalType": "address",
          "name": "playerBlack",
          "type": "address"
        },
        {
          "internalType": "uint256",
          "name": "kittyRed",
          "type": "uint256"
        },
        {
          "internalType": "uint256",
          "name": "kittyBlack",
          "type": "uint256"
        },
        {
          "internalType": "uint256",
          "name": "gameStartTime",
          "type": "uint256"
        }
      ],
      "name": "createGame",
      "outputs": [
        {
          "internalType": "uint256",
          "name": "gameId",
          "type": "uint256"
        }
      ],
      "payable": false,
      "stateMutability": "nonpayable",
      "type": "function"
    },
    {
      "constant": false,
      "inputs": [
        {
          "internalType": "uint256",
          "name": "gameId",
          "type": "uint256"
        },
        {
          "internalType": "address",
          "name": "bettor",
          "type": "address"
        },
        {
          "internalType": "address",
          "name": "supportedPlayer",
          "type": "address"
        }
      ],
      "name": "addBettor",
      "outputs": [
        {
          "internalType": "bool",
          "name": "",
          "type": "bool"
        }
      ],
      "payable": false,
      "stateMutability": "nonpayable",
      "type": "function"
    },
    {
      "constant": false,
      "inputs": [
        {
          "internalType": "uint256",
          "name": "gameId",
          "type": "uint256"
        },
        {
          "internalType": "address",
          "name": "bettor",
          "type": "address"
        },
        {
          "internalType": "uint256",
          "name": "betAmount",
          "type": "uint256"
        },
        {
          "internalType": "address",
          "name": "supportedPlayer",
          "type": "address"
        }
      ],
      "name": "updateBettor",
      "outputs": [],
      "payable": false,
      "stateMutability": "nonpayable",
      "type": "function"
    },
    {
      "constant": false,
      "inputs": [
        {
          "internalType": "uint256",
          "name": "gameId",
          "type": "uint256"
        },
        {
          "internalType": "uint256",
          "name": "newTime",
          "type": "uint256"
        }
      ],
      "name": "updateEndTime",
      "outputs": [],
      "payable": false,
      "stateMutability": "nonpayable",
      "type": "function"
    },
    {
      "constant": false,
      "inputs": [
        {
          "internalType": "uint256",
          "name": "gameId",
          "type": "uint256"
        },
        {
          "internalType": "uint256",
          "name": "state",
          "type": "uint256"
        }
      ],
      "name": "updateGameState",
      "outputs": [],
      "payable": false,
      "stateMutability": "nonpayable",
      "type": "function"
    },
    {
      "constant": false,
      "inputs": [
        {
          "internalType": "uint256",
          "name": "gameId",
          "type": "uint256"
        }
      ],
      "name": "updateGameStateCron",
      "outputs": [],
      "payable": false,
      "stateMutability": "nonpayable",
      "type": "function"
    },
    {
      "constant": false,
      "inputs": [
        {
          "internalType": "uint256",
          "name": "kittyBlack",
          "type": "uint256"
        },
        {
          "internalType": "uint256",
          "name": "kittyRed",
          "type": "uint256"
        },
        {
          "internalType": "uint256",
          "name": "gameId",
          "type": "uint256"
        }
      ],
      "name": "updateKittiesGame",
      "outputs": [],
      "payable": false,
      "stateMutability": "nonpayable",
      "type": "function"
    },
    {
      "constant": false,
      "inputs": [
        {
          "internalType": "uint256",
          "name": "gameId",
          "type": "uint256"
        },
        {
          "internalType": "uint256",
          "name": "initialEth",
          "type": "uint256"
        }
      ],
      "name": "setHoneypotInfo",
      "outputs": [],
      "payable": false,
      "stateMutability": "nonpayable",
      "type": "function"
    },
    {
      "constant": false,
      "inputs": [
        {
          "internalType": "uint256",
          "name": "gameId",
          "type": "uint256"
        }
      ],
      "name": "storeHoneypotDetails",
      "outputs": [],
      "payable": false,
      "stateMutability": "nonpayable",
      "type": "function"
    },
    {
      "constant": true,
      "inputs": [
        {
          "internalType": "uint256",
          "name": "gameId",
          "type": "uint256"
        }
      ],
      "name": "doesGameExist",
      "outputs": [
        {
          "internalType": "bool",
          "name": "",
          "type": "bool"
        }
      ],
      "payable": false,
      "stateMutability": "view",
      "type": "function"
    },
    {
      "constant": false,
      "inputs": [
        {
          "internalType": "uint256",
          "name": "gameId",
          "type": "uint256"
        },
        {
          "internalType": "address",
          "name": "winner",
          "type": "address"
        },
        {
          "internalType": "address",
          "name": "topBettor",
          "type": "address"
        },
        {
          "internalType": "address",
          "name": "secondTopBettor",
          "type": "address"
        }
      ],
      "name": "setWinners",
      "outputs": [],
      "payable": false,
      "stateMutability": "nonpayable",
      "type": "function"
    }
  ],
  "bytecode": "0x60806040523480156200001157600080fd5b50604051620059fa380380620059fa833981810160405260208110156200003757600080fd5b8101908080519060200190929190505050336000806101000a81548173ffffffffffffffffffffffffffffffffffffffff021916908373ffffffffffffffffffffffffffffffffffffffff1602179055506200009981620000a060201b60201c565b506200013b565b6000809054906101000a900473ffffffffffffffffffffffffffffffffffffffff1673ffffffffffffffffffffffffffffffffffffffff163373ffffffffffffffffffffffffffffffffffffffff1614620000f757fe5b80600260006101000a81548173ffffffffffffffffffffffffffffffffffffffff021916908373ffffffffffffffffffffffffffffffffffffffff16021790555050565b6158af806200014b6000396000f3fe608060405234801561001057600080fd5b50600436106101425760003560e01c8063a4a0aa55116100b8578063ec5568891161007c578063ec5568891461060d578063f1c9d63a14610657578063f2fde38b146106e5578063f4dc834a14610729578063f5de839714610757578063fd3d1c241461078f57610142565b8063a4a0aa5514610477578063b1be64691461050d578063ddf8ae1914610557578063e44542df1461058f578063e6a3d31e146105c757610142565b80634afab8151161010a5780634afab815146103235780638129fc1c146103675780638da5cb5b1461037157806397107d6d146103bb5780639ecd537a146103ff578063a3b3bd7b1461042d57610142565b8063026ab2c51461014757806315a194ec146101bf5780631fc75180146102095780633564e78c14610253578063409299801461029d575b600080fd5b6101bd6004803603608081101561015d57600080fd5b8101908080359060200190929190803573ffffffffffffffffffffffffffffffffffffffff16906020019092919080359060200190929190803573ffffffffffffffffffffffffffffffffffffffff1690602001909291905050506107d1565b005b6101c7611403565b604051808273ffffffffffffffffffffffffffffffffffffffff1673ffffffffffffffffffffffffffffffffffffffff16815260200191505060405180910390f35b610211611429565b604051808273ffffffffffffffffffffffffffffffffffffffff1673ffffffffffffffffffffffffffffffffffffffff16815260200191505060405180910390f35b61025b61144f565b604051808273ffffffffffffffffffffffffffffffffffffffff1673ffffffffffffffffffffffffffffffffffffffff16815260200191505060405180910390f35b610309600480360360608110156102b357600080fd5b8101908080359060200190929190803573ffffffffffffffffffffffffffffffffffffffff169060200190929190803573ffffffffffffffffffffffffffffffffffffffff169060200190929190505050611475565b604051808215151515815260200191505060405180910390f35b6103656004803603602081101561033957600080fd5b81019080803573ffffffffffffffffffffffffffffffffffffffff169060200190929190505050611cfe565b005b61036f611d98565b005b610379612410565b604051808273ffffffffffffffffffffffffffffffffffffffff1673ffffffffffffffffffffffffffffffffffffffff16815260200191505060405180910390f35b6103fd600480360360208110156103d157600080fd5b81019080803573ffffffffffffffffffffffffffffffffffffffff169060200190929190505050612435565b005b61042b6004803603602081101561041557600080fd5b81019080803590602001909291905050506124cf565b005b610435612935565b604051808273ffffffffffffffffffffffffffffffffffffffff1673ffffffffffffffffffffffffffffffffffffffff16815260200191505060405180910390f35b6104f7600480360360a081101561048d57600080fd5b81019080803573ffffffffffffffffffffffffffffffffffffffff169060200190929190803573ffffffffffffffffffffffffffffffffffffffff16906020019092919080359060200190929190803590602001909291908035906020019092919050505061295b565b6040518082815260200191505060405180910390f35b610515613b83565b604051808273ffffffffffffffffffffffffffffffffffffffff1673ffffffffffffffffffffffffffffffffffffffff16815260200191505060405180910390f35b61058d6004803603604081101561056d57600080fd5b810190808035906020019092919080359060200190929190505050613ba9565b005b6105c5600480360360408110156105a557600080fd5b810190808035906020019092919080359060200190929190505050613d86565b005b6105f3600480360360208110156105dd57600080fd5b8101908080359060200190929190505050613f63565b604051808215151515815260200191505060405180910390f35b61061561410a565b604051808273ffffffffffffffffffffffffffffffffffffffff1673ffffffffffffffffffffffffffffffffffffffff16815260200191505060405180910390f35b6106e36004803603608081101561066d57600080fd5b8101908080359060200190929190803573ffffffffffffffffffffffffffffffffffffffff169060200190929190803573ffffffffffffffffffffffffffffffffffffffff169060200190929190803573ffffffffffffffffffffffffffffffffffffffff169060200190929190505050614130565b005b610727600480360360208110156106fb57600080fd5b81019080803573ffffffffffffffffffffffffffffffffffffffff16906020019092919050505061469d565b005b6107556004803603602081101561073f57600080fd5b810190808035906020019092919050505061476b565b005b61078d6004803603604081101561076d57600080fd5b8101908080359060200190929190803590602001909291905050506149de565b005b6107cf600480360360608110156107a557600080fd5b81019080803590602001909291908035906020019092919080359060200190929190505050614c50565b005b6040518060400160405280600b81526020017f47616d654d616e6167657200000000000000000000000000000000000000000081525061081081614f9f565b8461081a81613f63565b61082357600080fd5b60008373ffffffffffffffffffffffffffffffffffffffff168673ffffffffffffffffffffffffffffffffffffffff161461105557600260009054906101000a900473ffffffffffffffffffffffffffffffffffffffff1673ffffffffffffffffffffffffffffffffffffffff16638445d70f6040518060400160405280600a81526020017f474d536574746572444200000000000000000000000000000000000000000000815250896040518060400160405280600b81526020017f426574746f725461626c650000000000000000000000000000000000000000008152506040516020018083815260200182805190602001908083835b6020831061093f578051825260208201915060208101905060208303925061091c565b6001836020036101000a0380198251168184511680821785525050505050509050019250505060405160208183030381529060405280519060200120896040518463ffffffff1660e01b815260040180806020018481526020018373ffffffffffffffffffffffffffffffffffffffff1673ffffffffffffffffffffffffffffffffffffffff168152602001828103825285818151815260200191508051906020019080838360005b83811015610a035780820151818401526020810190506109e8565b50505050905090810190601f168015610a305780820380516001836020036101000a031916815260200191505b5094505050505060206040518083038186803b158015610a4f57600080fd5b505afa158015610a63573d6000803e3d6000fd5b505050506040513d6020811015610a7957600080fd5b8101908080519060200190929190505050610a9357600080fd5b6000600260009054906101000a900473ffffffffffffffffffffffffffffffffffffffff1673ffffffffffffffffffffffffffffffffffffffff1663b93a5b5e6040518060400160405280600a81526020017f474d5365747465724442000000000000000000000000000000000000000000008152508a8a604051602001808381526020018273ffffffffffffffffffffffffffffffffffffffff1673ffffffffffffffffffffffffffffffffffffffff1660601b8152601401807f737570706f72746564506c617965720000000000000000000000000000000000815250600f0192505050604051602081830303815290604052805190602001206040518363ffffffff1660e01b81526004018080602001838152602001828103825284818151815260200191508051906020019080838360005b83811015610be4578082015181840152602081019050610bc9565b50505050905090810190601f168015610c115780820380516001836020036101000a031916815260200191505b50935050505060206040518083038186803b158015610c2f57600080fd5b505afa158015610c43573d6000803e3d6000fd5b505050506040513d6020811015610c5957600080fd5b810190808051906020019092919050505090508473ffffffffffffffffffffffffffffffffffffffff168173ffffffffffffffffffffffffffffffffffffffff1614610ca457600080fd5b600086111561105357600260009054906101000a900473ffffffffffffffffffffffffffffffffffffffff1673ffffffffffffffffffffffffffffffffffffffff166308acb5566040518060400160405280600a81526020017f474d5365747465724442000000000000000000000000000000000000000000008152508a8a604051602001808381526020018273ffffffffffffffffffffffffffffffffffffffff1673ffffffffffffffffffffffffffffffffffffffff1660601b8152601401807f626574416d6f756e74000000000000000000000000000000000000000000000081525060090192505050604051602081830303815290604052805190602001206040518363ffffffff1660e01b81526004018080602001838152602001828103825284818151815260200191508051906020019080838360005b83811015610dfc578082015181840152602081019050610de1565b50505050905090810190601f168015610e295780820380516001836020036101000a031916815260200191505b50935050505060206040518083038186803b158015610e4757600080fd5b505afa158015610e5b573d6000803e3d6000fd5b505050506040513d6020811015610e7157600080fd5b81019080805190602001909291905050509150600260009054906101000a900473ffffffffffffffffffffffffffffffffffffffff1673ffffffffffffffffffffffffffffffffffffffff16630214a37c6040518060400160405280600a81526020017f474d5365747465724442000000000000000000000000000000000000000000008152508a8a604051602001808381526020018273ffffffffffffffffffffffffffffffffffffffff1673ffffffffffffffffffffffffffffffffffffffff1660601b8152601401807f626574416d6f756e7400000000000000000000000000000000000000000000008152506009019250505060405160208183030381529060405280519060200120610f918a8761523a90919063ffffffff16565b6040518463ffffffff1660e01b81526004018080602001848152602001838152602001828103825285818151815260200191508051906020019080838360005b83811015610fec578082015181840152602081019050610fd1565b50505050905090810190601f1680156110195780820380516001836020036101000a031916815260200191505b50945050505050600060405180830381600087803b15801561103a57600080fd5b505af115801561104e573d6000803e3d6000fd5b505050505b505b600260009054906101000a900473ffffffffffffffffffffffffffffffffffffffff1673ffffffffffffffffffffffffffffffffffffffff166308acb5566040518060400160405280600a81526020017f474d5365747465724442000000000000000000000000000000000000000000008152508987604051602001808381526020018273ffffffffffffffffffffffffffffffffffffffff1673ffffffffffffffffffffffffffffffffffffffff1660601b8152601401807f746f74616c426574416d6f756e74000000000000000000000000000000000000815250600e0192505050604051602081830303815290604052805190602001206040518363ffffffff1660e01b81526004018080602001838152602001828103825284818151815260200191508051906020019080838360005b838110156111a4578082015181840152602081019050611189565b50505050905090810190601f1680156111d15780820380516001836020036101000a031916815260200191505b50935050505060206040518083038186803b1580156111ef57600080fd5b505afa158015611203573d6000803e3d6000fd5b505050506040513d602081101561121957600080fd5b81019080805190602001909291905050509050600260009054906101000a900473ffffffffffffffffffffffffffffffffffffffff1673ffffffffffffffffffffffffffffffffffffffff16630214a37c6040518060400160405280600a81526020017f474d5365747465724442000000000000000000000000000000000000000000008152508987604051602001808381526020018273ffffffffffffffffffffffffffffffffffffffff1673ffffffffffffffffffffffffffffffffffffffff1660601b8152601401807f746f74616c426574416d6f756e74000000000000000000000000000000000000815250600e019250505060405160208183030381529060405280519060200120611339898661523a90919063ffffffff16565b6040518463ffffffff1660e01b81526004018080602001848152602001838152602001828103825285818151815260200191508051906020019080838360005b83811015611394578082015181840152602081019050611379565b50505050905090810190601f1680156113c15780820380516001836020036101000a031916815260200191505b50945050505050600060405180830381600087803b1580156113e257600080fd5b505af11580156113f6573d6000803e3d6000fd5b5050505050505050505050565b600660009054906101000a900473ffffffffffffffffffffffffffffffffffffffff1681565b600460009054906101000a900473ffffffffffffffffffffffffffffffffffffffff1681565b600260009054906101000a900473ffffffffffffffffffffffffffffffffffffffff1681565b60006040518060400160405280600b81526020017f47616d654d616e616765720000000000000000000000000000000000000000008152506114b681614f9f565b846114c081613f63565b6114c957600080fd5b600260009054906101000a900473ffffffffffffffffffffffffffffffffffffffff1673ffffffffffffffffffffffffffffffffffffffff16638445d70f6040518060400160405280600a81526020017f474d536574746572444200000000000000000000000000000000000000000000815250886040518060400160405280600b81526020017f426574746f725461626c650000000000000000000000000000000000000000008152506040516020018083815260200182805190602001908083835b602083106115b0578051825260208201915060208101905060208303925061158d565b6001836020036101000a0380198251168184511680821785525050505050509050019250505060405160208183030381529060405280519060200120886040518463ffffffff1660e01b815260040180806020018481526020018373ffffffffffffffffffffffffffffffffffffffff1673ffffffffffffffffffffffffffffffffffffffff168152602001828103825285818151815260200191508051906020019080838360005b83811015611674578082015181840152602081019050611659565b50505050905090810190601f1680156116a15780820380516001836020036101000a031916815260200191505b5094505050505060206040518083038186803b1580156116c057600080fd5b505afa1580156116d4573d6000803e3d6000fd5b505050506040513d60208110156116ea57600080fd5b8101908080519060200190929190505050611cf057600260009054906101000a900473ffffffffffffffffffffffffffffffffffffffff1673ffffffffffffffffffffffffffffffffffffffff166396bf56806040518060400160405280600a81526020017f474d536574746572444200000000000000000000000000000000000000000000815250886040518060400160405280600b81526020017f426574746f725461626c650000000000000000000000000000000000000000008152506040516020018083815260200182805190602001908083835b602083106117e657805182526020820191506020810190506020830392506117c3565b6001836020036101000a0380198251168184511680821785525050505050509050019250505060405160208183030381529060405280519060200120886040518463ffffffff1660e01b815260040180806020018481526020018373ffffffffffffffffffffffffffffffffffffffff1673ffffffffffffffffffffffffffffffffffffffff168152602001828103825285818151815260200191508051906020019080838360005b838110156118aa57808201518184015260208101905061188f565b50505050905090810190601f1680156118d75780820380516001836020036101000a031916815260200191505b50945050505050602060405180830381600087803b1580156118f857600080fd5b505af115801561190c573d6000803e3d6000fd5b505050506040513d602081101561192257600080fd5b810190808051906020019092919050505050600260009054906101000a900473ffffffffffffffffffffffffffffffffffffffff1673ffffffffffffffffffffffffffffffffffffffff1663866d59fe6040518060400160405280600a81526020017f474d5365747465724442000000000000000000000000000000000000000000008152508888604051602001808381526020018273ffffffffffffffffffffffffffffffffffffffff1673ffffffffffffffffffffffffffffffffffffffff1660601b8152601401807f737570706f72746564506c617965720000000000000000000000000000000000815250600f019250505060405160208183030381529060405280519060200120876040518463ffffffff1660e01b815260040180806020018481526020018373ffffffffffffffffffffffffffffffffffffffff1673ffffffffffffffffffffffffffffffffffffffff168152602001828103825285818151815260200191508051906020019080838360005b83811015611ab6578082015181840152602081019050611a9b565b50505050905090810190601f168015611ae35780820380516001836020036101000a031916815260200191505b50945050505050600060405180830381600087803b158015611b0457600080fd5b505af1158015611b18573d6000803e3d6000fd5b50505050600260009054906101000a900473ffffffffffffffffffffffffffffffffffffffff1673ffffffffffffffffffffffffffffffffffffffff1663cb30ffe76040518060400160405280600a81526020017f474d5365747465724442000000000000000000000000000000000000000000008152508888604051602001808381526020018273ffffffffffffffffffffffffffffffffffffffff1673ffffffffffffffffffffffffffffffffffffffff1660601b8152601401807f7469636b65744665655061696400000000000000000000000000000000000000815250600d01925050506040516020818303038152906040528051906020012060016040518463ffffffff1660e01b8152600401808060200184815260200183151515158152602001828103825285818151815260200191508051906020019080838360005b83811015611c77578082015181840152602081019050611c5c565b50505050905090810190601f168015611ca45780820380516001836020036101000a031916815260200191505b50945050505050600060405180830381600087803b158015611cc557600080fd5b505af1158015611cd9573d6000803e3d6000fd5b50505050611ce78685615256565b60019250611cf5565b600092505b50509392505050565b6000809054906101000a900473ffffffffffffffffffffffffffffffffffffffff1673ffffffffffffffffffffffffffffffffffffffff163373ffffffffffffffffffffffffffffffffffffffff1614611d5457fe5b80600260006101000a81548173ffffffffffffffffffffffffffffffffffffffff021916908373ffffffffffffffffffffffffffffffffffffffff16021790555050565b6000809054906101000a900473ffffffffffffffffffffffffffffffffffffffff1673ffffffffffffffffffffffffffffffffffffffff163373ffffffffffffffffffffffffffffffffffffffff1614611dee57fe5b600160009054906101000a900473ffffffffffffffffffffffffffffffffffffffff1673ffffffffffffffffffffffffffffffffffffffff1663358177736040518060400160405280600d81526020017f47616d65566172416e64466565000000000000000000000000000000000000008152506040518263ffffffff1660e01b81526004018080602001828103825283818151815260200191508051906020019080838360005b83811015611eb1578082015181840152602081019050611e96565b50505050905090810190601f168015611ede5780820380516001836020036101000a031916815260200191505b509250505060206040518083038186803b158015611efb57600080fd5b505afa158015611f0f573d6000803e3d6000fd5b505050506040513d6020811015611f2557600080fd5b8101908080519060200190929190505050600360006101000a81548173ffffffffffffffffffffffffffffffffffffffff021916908373ffffffffffffffffffffffffffffffffffffffff160217905550600160009054906101000a900473ffffffffffffffffffffffffffffffffffffffff1673ffffffffffffffffffffffffffffffffffffffff1663358177736040518060400160405280600a81526020017f474d4765747465724442000000000000000000000000000000000000000000008152506040518263ffffffff1660e01b81526004018080602001828103825283818151815260200191508051906020019080838360005b8381101561203957808201518184015260208101905061201e565b50505050905090810190601f1680156120665780820380516001836020036101000a031916815260200191505b509250505060206040518083038186803b15801561208357600080fd5b505afa158015612097573d6000803e3d6000fd5b505050506040513d60208110156120ad57600080fd5b8101908080519060200190929190505050600460006101000a81548173ffffffffffffffffffffffffffffffffffffffff021916908373ffffffffffffffffffffffffffffffffffffffff160217905550600160009054906101000a900473ffffffffffffffffffffffffffffffffffffffff1673ffffffffffffffffffffffffffffffffffffffff1663358177736040518060400160405280600981526020017f47616d6553746f726500000000000000000000000000000000000000000000008152506040518263ffffffff1660e01b81526004018080602001828103825283818151815260200191508051906020019080838360005b838110156121c15780820151818401526020810190506121a6565b50505050905090810190601f1680156121ee5780820380516001836020036101000a031916815260200191505b509250505060206040518083038186803b15801561220b57600080fd5b505afa15801561221f573d6000803e3d6000fd5b505050506040513d602081101561223557600080fd5b8101908080519060200190929190505050600560006101000a81548173ffffffffffffffffffffffffffffffffffffffff021916908373ffffffffffffffffffffffffffffffffffffffff160217905550600160009054906101000a900473ffffffffffffffffffffffffffffffffffffffff1673ffffffffffffffffffffffffffffffffffffffff1663358177736040518060400160405280600c81526020017f47616d654372656174696f6e00000000000000000000000000000000000000008152506040518263ffffffff1660e01b81526004018080602001828103825283818151815260200191508051906020019080838360005b8381101561234957808201518184015260208101905061232e565b50505050905090810190601f1680156123765780820380516001836020036101000a031916815260200191505b509250505060206040518083038186803b15801561239357600080fd5b505afa1580156123a7573d6000803e3d6000fd5b505050506040513d60208110156123bd57600080fd5b8101908080519060200190929190505050600660006101000a81548173ffffffffffffffffffffffffffffffffffffffff021916908373ffffffffffffffffffffffffffffffffffffffff160217905550565b6000809054906101000a900473ffffffffffffffffffffffffffffffffffffffff1681565b6000809054906101000a900473ffffffffffffffffffffffffffffffffffffffff1673ffffffffffffffffffffffffffffffffffffffff163373ffffffffffffffffffffffffffffffffffffffff161461248b57fe5b80600160006101000a81548173ffffffffffffffffffffffffffffffffffffffff021916908373ffffffffffffffffffffffffffffffffffffffff16021790555050565b6040518060400160405280600b81526020017f47616d654d616e6167657200000000000000000000000000000000000000000081525061250e81614f9f565b8161251881613f63565b61252157600080fd5b600080600460009054906101000a900473ffffffffffffffffffffffffffffffffffffffff1673ffffffffffffffffffffffffffffffffffffffff1663589ac6a4866040518263ffffffff1660e01b8152600401808281526020019150506101006040518083038186803b15801561259857600080fd5b505afa1580156125ac573d6000803e3d6000fd5b505050506040513d601f19601f820116820180604052506101008110156125d257600080fd5b81019080805190602001909291908051906020019092919080519060200190929190805190602001909291909190826040018051906020019092919080519060200190929190505050509550509450505050600260009054906101000a900473ffffffffffffffffffffffffffffffffffffffff1673ffffffffffffffffffffffffffffffffffffffff16630214a37c6040518060400160405280600a81526020017f474d5365747465724442000000000000000000000000000000000000000000008152508760405160200180828152602001807f746f74616c45746800000000000000000000000000000000000000000000000081525060080191505060405160208183030381529060405280519060200120856040518463ffffffff1660e01b81526004018080602001848152602001838152602001828103825285818151815260200191508051906020019080838360005b83811015612743578082015181840152602081019050612728565b50505050905090810190601f1680156127705780820380516001836020036101000a031916815260200191505b50945050505050600060405180830381600087803b15801561279157600080fd5b505af11580156127a5573d6000803e3d6000fd5b50505050600260009054906101000a900473ffffffffffffffffffffffffffffffffffffffff1673ffffffffffffffffffffffffffffffffffffffff16630214a37c6040518060400160405280600a81526020017f474d5365747465724442000000000000000000000000000000000000000000008152508760405160200180828152602001807f746f74616c4b747900000000000000000000000000000000000000000000000081525060080191505060405160208183030381529060405280519060200120846040518463ffffffff1660e01b81526004018080602001848152602001838152602001828103825285818151815260200191508051906020019080838360005b838110156128c85780820151818401526020810190506128ad565b50505050905090810190601f1680156128f55780820380516001836020036101000a031916815260200191505b50945050505050600060405180830381600087803b15801561291657600080fd5b505af115801561292a573d6000803e3d6000fd5b505050505050505050565b600360009054906101000a900473ffffffffffffffffffffffffffffffffffffffff1681565b60006040518060400160405280600c81526020017f47616d654372656174696f6e000000000000000000000000000000000000000081525061299c81614f9f565b6000600260009054906101000a900473ffffffffffffffffffffffffffffffffffffffff1673ffffffffffffffffffffffffffffffffffffffff16639a481f4e6040518060400160405280600a81526020017f474d53657474657244420000000000000000000000000000000000000000000081525060405160200180807f47616d655461626c650000000000000000000000000000000000000000000000815250600901905060405160208183030381529060405280519060200120600060016040518563ffffffff1660e01b8152600401808060200185815260200184815260200183151515158152602001828103825286818151815260200191508051906020019080838360005b83811015612ac2578082015181840152602081019050612aa7565b50505050905090810190601f168015612aef5780820380516001836020036101000a031916815260200191505b5095505050505050604080518083038186803b158015612b0e57600080fd5b505afa158015612b22573d6000803e3d6000fd5b505050506040513d6040811015612b3857600080fd5b810190808051906020019092919080519060200190929190505050915050612b6a60018261523a90919063ffffffff16565b9250600260009054906101000a900473ffffffffffffffffffffffffffffffffffffffff1673ffffffffffffffffffffffffffffffffffffffff166387d533626040518060400160405280600a81526020017f474d53657474657244420000000000000000000000000000000000000000000081525060405160200180807f47616d655461626c650000000000000000000000000000000000000000000000815250600901905060405160208183030381529060405280519060200120866040518463ffffffff1660e01b81526004018080602001848152602001838152602001828103825285818151815260200191508051906020019080838360005b83811015612c83578082015181840152602081019050612c68565b50505050905090810190601f168015612cb05780820380516001836020036101000a031916815260200191505b50945050505050602060405180830381600087803b158015612cd157600080fd5b505af1158015612ce5573d6000803e3d6000fd5b505050506040513d6020811015612cfb57600080fd5b8101908080519060200190929190505050506000612dc4600360009054906101000a900473ffffffffffffffffffffffffffffffffffffffff1673ffffffffffffffffffffffffffffffffffffffff1663c09ab5106040518163ffffffff1660e01b815260040160206040518083038186803b158015612d7a57600080fd5b505afa158015612d8e573d6000803e3d6000fd5b505050506040513d6020811015612da457600080fd5b81019080805190602001909291905050508661560390919063ffffffff16565b90506000612e7d600360009054906101000a900473ffffffffffffffffffffffffffffffffffffffff1673ffffffffffffffffffffffffffffffffffffffff166378e9ae606040518163ffffffff1660e01b815260040160206040518083038186803b158015612e3357600080fd5b505afa158015612e47573d6000803e3d6000fd5b505050506040513d6020811015612e5d57600080fd5b81019080805190602001909291905050508761523a90919063ffffffff16565b9050600260009054906101000a900473ffffffffffffffffffffffffffffffffffffffff1673ffffffffffffffffffffffffffffffffffffffff1663866d59fe6040518060400160405280600a81526020017f474d5365747465724442000000000000000000000000000000000000000000008152508760405160200180828152602001807f706c617965725265640000000000000000000000000000000000000000000000815250600901915050604051602081830303815290604052805190602001208d6040518463ffffffff1660e01b815260040180806020018481526020018373ffffffffffffffffffffffffffffffffffffffff1673ffffffffffffffffffffffffffffffffffffffff168152602001828103825285818151815260200191508051906020019080838360005b83811015612fca578082015181840152602081019050612faf565b50505050905090810190601f168015612ff75780820380516001836020036101000a031916815260200191505b50945050505050600060405180830381600087803b15801561301857600080fd5b505af115801561302c573d6000803e3d6000fd5b50505050600260009054906101000a900473ffffffffffffffffffffffffffffffffffffffff1673ffffffffffffffffffffffffffffffffffffffff1663866d59fe6040518060400160405280600a81526020017f474d5365747465724442000000000000000000000000000000000000000000008152508760405160200180828152602001807f706c61796572426c61636b000000000000000000000000000000000000000000815250600b01915050604051602081830303815290604052805190602001208c6040518463ffffffff1660e01b815260040180806020018481526020018373ffffffffffffffffffffffffffffffffffffffff1673ffffffffffffffffffffffffffffffffffffffff168152602001828103825285818151815260200191508051906020019080838360005b8381101561317b578082015181840152602081019050613160565b50505050905090810190601f1680156131a85780820380516001836020036101000a031916815260200191505b50945050505050600060405180830381600087803b1580156131c957600080fd5b505af11580156131dd573d6000803e3d6000fd5b50505050600260009054906101000a900473ffffffffffffffffffffffffffffffffffffffff1673ffffffffffffffffffffffffffffffffffffffff16630214a37c6040518060400160405280600a81526020017f474d536574746572444200000000000000000000000000000000000000000000815250878d604051602001808381526020018273ffffffffffffffffffffffffffffffffffffffff1673ffffffffffffffffffffffffffffffffffffffff1660601b8152601401807f6b6974747900000000000000000000000000000000000000000000000000000081525060050192505050604051602081830303815290604052805190602001208b6040518463ffffffff1660e01b81526004018080602001848152602001838152602001828103825285818151815260200191508051906020019080838360005b8381101561333757808201518184015260208101905061331c565b50505050905090810190601f1680156133645780820380516001836020036101000a031916815260200191505b50945050505050600060405180830381600087803b15801561338557600080fd5b505af1158015613399573d6000803e3d6000fd5b50505050600260009054906101000a900473ffffffffffffffffffffffffffffffffffffffff1673ffffffffffffffffffffffffffffffffffffffff16630214a37c6040518060400160405280600a81526020017f474d536574746572444200000000000000000000000000000000000000000000815250878c604051602001808381526020018273ffffffffffffffffffffffffffffffffffffffff1673ffffffffffffffffffffffffffffffffffffffff1660601b8152601401807f6b6974747900000000000000000000000000000000000000000000000000000081525060050192505050604051602081830303815290604052805190602001208a6040518463ffffffff1660e01b81526004018080602001848152602001838152602001828103825285818151815260200191508051906020019080838360005b838110156134f35780820151818401526020810190506134d8565b50505050905090810190601f1680156135205780820380516001836020036101000a031916815260200191505b50945050505050600060405180830381600087803b15801561354157600080fd5b505af1158015613555573d6000803e3d6000fd5b50505050600260009054906101000a900473ffffffffffffffffffffffffffffffffffffffff1673ffffffffffffffffffffffffffffffffffffffff16630214a37c6040518060400160405280600a81526020017f474d5365747465724442000000000000000000000000000000000000000000008152508760405160200180828152602001807f6372656174656454696d65000000000000000000000000000000000000000000815250600b0191505060405160208183030381529060405280519060200120426040518463ffffffff1660e01b81526004018080602001848152602001838152602001828103825285818151815260200191508051906020019080838360005b8381101561367857808201518184015260208101905061365d565b50505050905090810190601f1680156136a55780820380516001836020036101000a031916815260200191505b50945050505050600060405180830381600087803b1580156136c657600080fd5b505af11580156136da573d6000803e3d6000fd5b50505050600260009054906101000a900473ffffffffffffffffffffffffffffffffffffffff1673ffffffffffffffffffffffffffffffffffffffff16630214a37c6040518060400160405280600a81526020017f474d5365747465724442000000000000000000000000000000000000000000008152508760405160200180828152602001807f737461727454696d65000000000000000000000000000000000000000000000081525060090191505060405160208183030381529060405280519060200120896040518463ffffffff1660e01b81526004018080602001848152602001838152602001828103825285818151815260200191508051906020019080838360005b838110156137fd5780820151818401526020810190506137e2565b50505050905090810190601f16801561382a5780820380516001836020036101000a031916815260200191505b50945050505050600060405180830381600087803b15801561384b57600080fd5b505af115801561385f573d6000803e3d6000fd5b50505050600260009054906101000a900473ffffffffffffffffffffffffffffffffffffffff1673ffffffffffffffffffffffffffffffffffffffff16630214a37c6040518060400160405280600a81526020017f474d5365747465724442000000000000000000000000000000000000000000008152508760405160200180828152602001807f707265737461727454696d650000000000000000000000000000000000000000815250600c0191505060405160208183030381529060405280519060200120856040518463ffffffff1660e01b81526004018080602001848152602001838152602001828103825285818151815260200191508051906020019080838360005b83811015613982578082015181840152602081019050613967565b50505050905090810190601f1680156139af5780820380516001836020036101000a031916815260200191505b50945050505050600060405180830381600087803b1580156139d057600080fd5b505af11580156139e4573d6000803e3d6000fd5b50505050600260009054906101000a900473ffffffffffffffffffffffffffffffffffffffff1673ffffffffffffffffffffffffffffffffffffffff16630214a37c6040518060400160405280600a81526020017f474d5365747465724442000000000000000000000000000000000000000000008152508760405160200180828152602001807f656e6454696d650000000000000000000000000000000000000000000000000081525060070191505060405160208183030381529060405280519060200120846040518463ffffffff1660e01b81526004018080602001848152602001838152602001828103825285818151815260200191508051906020019080838360005b83811015613b07578082015181840152602081019050613aec565b50505050905090810190601f168015613b345780820380516001836020036101000a031916815260200191505b50945050505050600060405180830381600087803b158015613b5557600080fd5b505af1158015613b69573d6000803e3d6000fd5b50505050613b768561561a565b5050505095945050505050565b600560009054906101000a900473ffffffffffffffffffffffffffffffffffffffff1681565b6040518060400160405280600c81526020017f47616d654372656174696f6e0000000000000000000000000000000000000000815250613be881614f9f565b82613bf281613f63565b613bfb57600080fd5b600260009054906101000a900473ffffffffffffffffffffffffffffffffffffffff1673ffffffffffffffffffffffffffffffffffffffff16630214a37c6040518060400160405280600a81526020017f474d5365747465724442000000000000000000000000000000000000000000008152508660405160200180828152602001807f696e697469616c45746800000000000000000000000000000000000000000000815250600a0191505060405160208183030381529060405280519060200120866040518463ffffffff1660e01b81526004018080602001848152602001838152602001828103825285818151815260200191508051906020019080838360005b83811015613d1a578082015181840152602081019050613cff565b50505050905090810190601f168015613d475780820380516001836020036101000a031916815260200191505b50945050505050600060405180830381600087803b158015613d6857600080fd5b505af1158015613d7c573d6000803e3d6000fd5b5050505050505050565b6040518060400160405280600b81526020017f47616d654d616e61676572000000000000000000000000000000000000000000815250613dc581614f9f565b82613dcf81613f63565b613dd857600080fd5b600260009054906101000a900473ffffffffffffffffffffffffffffffffffffffff1673ffffffffffffffffffffffffffffffffffffffff16630214a37c6040518060400160405280600a81526020017f474d5365747465724442000000000000000000000000000000000000000000008152508660405160200180828152602001807f656e6454696d650000000000000000000000000000000000000000000000000081525060070191505060405160208183030381529060405280519060200120866040518463ffffffff1660e01b81526004018080602001848152602001838152602001828103825285818151815260200191508051906020019080838360005b83811015613ef7578082015181840152602081019050613edc565b50505050905090810190601f168015613f245780820380516001836020036101000a031916815260200191505b50945050505050600060405180830381600087803b158015613f4557600080fd5b505af1158015613f59573d6000803e3d6000fd5b5050505050505050565b6000600260009054906101000a900473ffffffffffffffffffffffffffffffffffffffff1673ffffffffffffffffffffffffffffffffffffffff166396edc0096040518060400160405280600a81526020017f474d53657474657244420000000000000000000000000000000000000000000081525060405160200180807f47616d655461626c650000000000000000000000000000000000000000000000815250600901905060405160208183030381529060405280519060200120856040518463ffffffff1660e01b81526004018080602001848152602001838152602001828103825285818151815260200191508051906020019080838360005b8381101561407c578082015181840152602081019050614061565b50505050905090810190601f1680156140a95780820380516001836020036101000a031916815260200191505b5094505050505060206040518083038186803b1580156140c857600080fd5b505afa1580156140dc573d6000803e3d6000fd5b505050506040513d60208110156140f257600080fd5b81019080805190602001909291905050509050919050565b600160009054906101000a900473ffffffffffffffffffffffffffffffffffffffff1681565b6040518060400160405280600b81526020017f47616d654d616e6167657200000000000000000000000000000000000000000081525061416f81614f9f565b8461417981613f63565b61418257600080fd5b600260009054906101000a900473ffffffffffffffffffffffffffffffffffffffff1673ffffffffffffffffffffffffffffffffffffffff1663866d59fe6040518060400160405280600a81526020017f474d5365747465724442000000000000000000000000000000000000000000008152508860405160200180828152602001807f77696e6e6572000000000000000000000000000000000000000000000000000081525060060191505060405160208183030381529060405280519060200120886040518463ffffffff1660e01b815260040180806020018481526020018373ffffffffffffffffffffffffffffffffffffffff1673ffffffffffffffffffffffffffffffffffffffff168152602001828103825285818151815260200191508051906020019080838360005b838110156142cd5780820151818401526020810190506142b2565b50505050905090810190601f1680156142fa5780820380516001836020036101000a031916815260200191505b50945050505050600060405180830381600087803b15801561431b57600080fd5b505af115801561432f573d6000803e3d6000fd5b50505050600260009054906101000a900473ffffffffffffffffffffffffffffffffffffffff1673ffffffffffffffffffffffffffffffffffffffff1663866d59fe6040518060400160405280600a81526020017f474d5365747465724442000000000000000000000000000000000000000000008152508860405160200180828152602001807f746f70426574746f72000000000000000000000000000000000000000000000081525060090191505060405160208183030381529060405280519060200120876040518463ffffffff1660e01b815260040180806020018481526020018373ffffffffffffffffffffffffffffffffffffffff1673ffffffffffffffffffffffffffffffffffffffff168152602001828103825285818151815260200191508051906020019080838360005b8381101561447e578082015181840152602081019050614463565b50505050905090810190601f1680156144ab5780820380516001836020036101000a031916815260200191505b50945050505050600060405180830381600087803b1580156144cc57600080fd5b505af11580156144e0573d6000803e3d6000fd5b50505050600260009054906101000a900473ffffffffffffffffffffffffffffffffffffffff1673ffffffffffffffffffffffffffffffffffffffff1663866d59fe6040518060400160405280600a81526020017f474d5365747465724442000000000000000000000000000000000000000000008152508860405160200180828152602001807f7365636f6e64546f70426574746f720000000000000000000000000000000000815250600f0191505060405160208183030381529060405280519060200120866040518463ffffffff1660e01b815260040180806020018481526020018373ffffffffffffffffffffffffffffffffffffffff1673ffffffffffffffffffffffffffffffffffffffff168152602001828103825285818151815260200191508051906020019080838360005b8381101561462f578082015181840152602081019050614614565b50505050905090810190601f16801561465c5780820380516001836020036101000a031916815260200191505b50945050505050600060405180830381600087803b15801561467d57600080fd5b505af1158015614691573d6000803e3d6000fd5b50505050505050505050565b6000809054906101000a900473ffffffffffffffffffffffffffffffffffffffff1673ffffffffffffffffffffffffffffffffffffffff163373ffffffffffffffffffffffffffffffffffffffff16146146f357fe5b600073ffffffffffffffffffffffffffffffffffffffff168173ffffffffffffffffffffffffffffffffffffffff161461476857806000806101000a81548173ffffffffffffffffffffffffffffffffffffffff021916908373ffffffffffffffffffffffffffffffffffffffff1602179055505b50565b6040518060400160405280600c81526020017f47616d654372656174696f6e00000000000000000000000000000000000000008152506147aa81614f9f565b816147b481613f63565b6147bd57600080fd5b600660009054906101000a900473ffffffffffffffffffffffffffffffffffffffff1673ffffffffffffffffffffffffffffffffffffffff1663a13995408460016040518363ffffffff1660e01b81526004018083815260200182815260200192505050600060405180830381600087803b15801561483b57600080fd5b505af115801561484f573d6000803e3d6000fd5b50505050600260009054906101000a900473ffffffffffffffffffffffffffffffffffffffff1673ffffffffffffffffffffffffffffffffffffffff16630214a37c6040518060400160405280600a81526020017f474d5365747465724442000000000000000000000000000000000000000000008152508560405160200180828152602001807f73746174650000000000000000000000000000000000000000000000000000008152506005019150506040516020818303038152906040528051906020012060016040518463ffffffff1660e01b81526004018080602001848152602001838152602001828103825285818151815260200191508051906020019080838360005b83811015614973578082015181840152602081019050614958565b50505050905090810190601f1680156149a05780820380516001836020036101000a031916815260200191505b50945050505050600060405180830381600087803b1580156149c157600080fd5b505af11580156149d5573d6000803e3d6000fd5b50505050505050565b6040518060400160405280600b81526020017f47616d654d616e61676572000000000000000000000000000000000000000000815250614a1d81614f9f565b82614a2781613f63565b614a3057600080fd5b600660009054906101000a900473ffffffffffffffffffffffffffffffffffffffff1673ffffffffffffffffffffffffffffffffffffffff1663a139954085856040518363ffffffff1660e01b81526004018083815260200182815260200192505050600060405180830381600087803b158015614aad57600080fd5b505af1158015614ac1573d6000803e3d6000fd5b50505050600260009054906101000a900473ffffffffffffffffffffffffffffffffffffffff1673ffffffffffffffffffffffffffffffffffffffff16630214a37c6040518060400160405280600a81526020017f474d5365747465724442000000000000000000000000000000000000000000008152508660405160200180828152602001807f737461746500000000000000000000000000000000000000000000000000000081525060050191505060405160208183030381529060405280519060200120866040518463ffffffff1660e01b81526004018080602001848152602001838152602001828103825285818151815260200191508051906020019080838360005b83811015614be4578082015181840152602081019050614bc9565b50505050905090810190601f168015614c115780820380516001836020036101000a031916815260200191505b50945050505050600060405180830381600087803b158015614c3257600080fd5b505af1158015614c46573d6000803e3d6000fd5b5050505050505050565b6040518060400160405280600c81526020017f47616d654372656174696f6e0000000000000000000000000000000000000000815250614c8f81614f9f565b600260009054906101000a900473ffffffffffffffffffffffffffffffffffffffff1673ffffffffffffffffffffffffffffffffffffffff16630214a37c6040518060400160405280600a81526020017f474d5365747465724442000000000000000000000000000000000000000000008152508660405160200180828152602001807f706c6179696e6747616d65000000000000000000000000000000000000000000815250600b0191505060405160208183030381529060405280519060200120856040518463ffffffff1660e01b81526004018080602001848152602001838152602001828103825285818151815260200191508051906020019080838360005b83811015614dae578082015181840152602081019050614d93565b50505050905090810190601f168015614ddb5780820380516001836020036101000a031916815260200191505b50945050505050600060405180830381600087803b158015614dfc57600080fd5b505af1158015614e10573d6000803e3d6000fd5b50505050600260009054906101000a900473ffffffffffffffffffffffffffffffffffffffff1673ffffffffffffffffffffffffffffffffffffffff16630214a37c6040518060400160405280600a81526020017f474d5365747465724442000000000000000000000000000000000000000000008152508560405160200180828152602001807f706c6179696e6747616d65000000000000000000000000000000000000000000815250600b0191505060405160208183030381529060405280519060200120856040518463ffffffff1660e01b81526004018080602001848152602001838152602001828103825285818151815260200191508051906020019080838360005b83811015614f33578082015181840152602081019050614f18565b50505050905090810190601f168015614f605780820380516001836020036101000a031916815260200191505b50945050505050600060405180830381600087803b158015614f8157600080fd5b505af1158015614f95573d6000803e3d6000fd5b5050505050505050565b600073ffffffffffffffffffffffffffffffffffffffff16600160009054906101000a900473ffffffffffffffffffffffffffffffffffffffff1673ffffffffffffffffffffffffffffffffffffffff161415615064576040517f08c379a00000000000000000000000000000000000000000000000000000000081526004018080602001828103825260088152602001807f4e6f2050726f787900000000000000000000000000000000000000000000000081525060200191505060405180910390fd5b6000600160009054906101000a900473ffffffffffffffffffffffffffffffffffffffff1673ffffffffffffffffffffffffffffffffffffffff166335817773836040518263ffffffff1660e01b81526004018080602001828103825283818151815260200191508051906020019080838360005b838110156150f45780820151818401526020810190506150d9565b50505050905090810190601f1680156151215780820380516001836020036101000a031916815260200191505b509250505060206040518083038186803b15801561513e57600080fd5b505afa158015615152573d6000803e3d6000fd5b505050506040513d602081101561516857600080fd5b81019080805190602001909291905050509050600073ffffffffffffffffffffffffffffffffffffffff168173ffffffffffffffffffffffffffffffffffffffff1614156151b257fe5b8073ffffffffffffffffffffffffffffffffffffffff163373ffffffffffffffffffffffffffffffffffffffff1614615236576040517f08c379a000000000000000000000000000000000000000000000000000000000815260040180806020018281038252602d81526020018061584e602d913960400191505060405180910390fd5b5050565b60008082840190508381101561524c57fe5b8091505092915050565b6000600260009054906101000a900473ffffffffffffffffffffffffffffffffffffffff1673ffffffffffffffffffffffffffffffffffffffff166308acb5566040518060400160405280600a81526020017f474d5365747465724442000000000000000000000000000000000000000000008152508585604051602001808381526020018273ffffffffffffffffffffffffffffffffffffffff1673ffffffffffffffffffffffffffffffffffffffff1660601b8152601401807f737570706f727465727300000000000000000000000000000000000000000000815250600a0192505050604051602081830303815290604052805190602001206040518363ffffffff1660e01b81526004018080602001838152602001828103825284818151815260200191508051906020019080838360005b838110156153a757808201518184015260208101905061538c565b50505050905090810190601f1680156153d45780820380516001836020036101000a031916815260200191505b50935050505060206040518083038186803b1580156153f257600080fd5b505afa158015615406573d6000803e3d6000fd5b505050506040513d602081101561541c57600080fd5b81019080805190602001909291905050509050600260009054906101000a900473ffffffffffffffffffffffffffffffffffffffff1673ffffffffffffffffffffffffffffffffffffffff16630214a37c6040518060400160405280600a81526020017f474d5365747465724442000000000000000000000000000000000000000000008152508585604051602001808381526020018273ffffffffffffffffffffffffffffffffffffffff1673ffffffffffffffffffffffffffffffffffffffff1660601b8152601401807f737570706f727465727300000000000000000000000000000000000000000000815250600a01925050506040516020818303038152906040528051906020012061553d60018661523a90919063ffffffff16565b6040518463ffffffff1660e01b81526004018080602001848152602001838152602001828103825285818151815260200191508051906020019080838360005b8381101561559857808201518184015260208101905061557d565b50505050905090810190601f1680156155c55780820380516001836020036101000a031916815260200191505b50945050505050600060405180830381600087803b1580156155e657600080fd5b505af11580156155fa573d6000803e3d6000fd5b50505050505050565b60008282111561560f57fe5b818303905092915050565b8061562481613f63565b61562d57600080fd5b600660009054906101000a900473ffffffffffffffffffffffffffffffffffffffff1673ffffffffffffffffffffffffffffffffffffffff1663a13995408360006040518363ffffffff1660e01b81526004018083815260200182815260200192505050600060405180830381600087803b1580156156ab57600080fd5b505af11580156156bf573d6000803e3d6000fd5b50505050600260009054906101000a900473ffffffffffffffffffffffffffffffffffffffff1673ffffffffffffffffffffffffffffffffffffffff16630214a37c6040518060400160405280600a81526020017f474d5365747465724442000000000000000000000000000000000000000000008152508460405160200180828152602001807f73746174650000000000000000000000000000000000000000000000000000008152506005019150506040516020818303038152906040528051906020012060006040518463ffffffff1660e01b81526004018080602001848152602001838152602001828103825285818151815260200191508051906020019080838360005b838110156157e35780820151818401526020810190506157c8565b50505050905090810190601f1680156158105780820380516001836020036101000a031916815260200191505b50945050505050600060405180830381600087803b15801561583157600080fd5b505af1158015615845573d6000803e3d6000fd5b50505050505056fe416363657373206973206f6e6c7920616c6c6f7765642066726f6d20737065636966696320636f6e7472616374a265627a7a723158201dd709e3fa1236f2909fe7b6d3b624c540863f9664336fcc75cf0dddfe0e1b5d64736f6c634300050b0032",
  "source": "// This program is free software: you can redistribute it and/or modify\n// it under the terms of the GNU General Public License as published by\n// the Free Software Foundation, either version 3 of the License, or\n// (at your option) any later version.\n\n// This program is distributed in the hope that it will be useful,\n// but WITHOUT ANY WARRANTY; without even the implied warranty of\n// MERCHANTABILITY or FITNESS FOR A PARTICULAR PURPOSE.  See the\n// GNU General Public License for more details.\n\n// You should have received a copy of the GNU General Public License\n// along with this program.  If not, see <http://www.gnu.org/licenses/>.\n\npragma solidity ^0.5.5;\n\nimport \"../proxy/Proxied.sol\";\nimport \"./GenericDB.sol\";\nimport \"./GMGetterDB.sol\";\nimport \"../../libs/SafeMath.sol\";\nimport \"../../GameVarAndFee.sol\";\nimport \"../gamemanager/GameStore.sol\";\nimport \"../kittieHELL/KittieHell.sol\";\nimport \"../gamemanager/Forfeiter.sol\";\nimport \"../gamemanager/GameManager.sol\";\nimport \"../gamemanager/GameCreation.sol\";\n\n/**\n * @dev Stores game instances\n * @author @psychoplasma\n * @author @psychoplasma\n * @author @psychoplasma\n */\ncontract GMSetterDB is Proxied {\n using SafeMath for uint256;\n\n  GenericDB public genericDB;\n  GameVarAndFee public gameVarAndFee;\n  GMGetterDB public gmGetterDB;\n  GameStore public gameStore;\n  GameCreation public gameCreation;\n\n  bytes32 internal constant TABLE_KEY_GAME= keccak256(abi.encodePacked(\"GameTable\"));\n  string internal constant TABLE_NAME_BETTOR = \"BettorTable\";\n\n  modifier onlyExistentGame(uint256 gameId) {\n    require(doesGameExist(gameId));\n    _;\n  }\n  \n  constructor(GenericDB _genericDB) public {\n    setGenericDB(_genericDB);\n  }\n\n  function setGenericDB(GenericDB _genericDB) public onlyOwner {\n    genericDB = _genericDB;\n  }\n\n  function initialize() external onlyOwner {\n    gameVarAndFee = GameVarAndFee(proxy.getContract(CONTRACT_NAME_GAMEVARANDFEE));\n    gmGetterDB = GMGetterDB(proxy.getContract(CONTRACT_NAME_GM_GETTER_DB));\n    gameStore = GameStore(proxy.getContract(CONTRACT_NAME_GAMESTORE));\n    gameCreation = GameCreation(proxy.getContract(CONTRACT_NAME_GAMECREATION));\n  }\n\n /**\n   * @dev Creates a new game item on game table\n   */\n  function createGame\n  (\n    address playerRed, address playerBlack,\n    uint256 kittyRed, uint256 kittyBlack,\n    uint256 gameStartTime\n  )\n    external\n    onlyContract(CONTRACT_NAME_GAMECREATION)\n    returns (uint256 gameId)\n  {\n    // Get the lastest item in the linkedlist.\n    // Note that 0 means the HEAD of the list always and \n    // direction(true) indicates that we are going to the end of the list.\n    (,uint256 prevGameId) = genericDB.getAdjacent(CONTRACT_NAME_GM_SETTER_DB, TABLE_KEY_GAME, 0, true);\n    // And create new item with an incremental id.\n    // Note that we don't need to check any existance here, because\n    // exsistance of the previous item in the list already self-verifies.\n    gameId = prevGameId.add(1);\n    genericDB.pushNodeToLinkedList(CONTRACT_NAME_GM_SETTER_DB, TABLE_KEY_GAME, gameId);\n\n    uint256 gamePrestartTime = gameStartTime.sub(gameVarAndFee.getGamePrestart());\n    uint256 gameEndTime = gameStartTime.add(gameVarAndFee.getGameDuration());\n\n    // Save players for the created game\n    genericDB.setAddressStorage(CONTRACT_NAME_GM_SETTER_DB, keccak256(abi.encodePacked(gameId, \"playerRed\")), playerRed);\n    genericDB.setAddressStorage(CONTRACT_NAME_GM_SETTER_DB, keccak256(abi.encodePacked(gameId, \"playerBlack\")), playerBlack);\n\n    // Set kitties for the given players\n    genericDB.setUintStorage(CONTRACT_NAME_GM_SETTER_DB, keccak256(abi.encodePacked(gameId, playerRed, \"kitty\")), kittyRed);\n    genericDB.setUintStorage(CONTRACT_NAME_GM_SETTER_DB, keccak256(abi.encodePacked(gameId, playerBlack, \"kitty\")), kittyBlack);\n\n    // solium-disable-next-line security/no-block-members\n    genericDB.setUintStorage(CONTRACT_NAME_GM_SETTER_DB, keccak256(abi.encodePacked(gameId, \"createdTime\")), now);\n    genericDB.setUintStorage(CONTRACT_NAME_GM_SETTER_DB, keccak256(abi.encodePacked(gameId, \"startTime\")), gameStartTime);\n    genericDB.setUintStorage(CONTRACT_NAME_GM_SETTER_DB, keccak256(abi.encodePacked(gameId, \"prestartTime\")), gamePrestartTime);\n    genericDB.setUintStorage(CONTRACT_NAME_GM_SETTER_DB, keccak256(abi.encodePacked(gameId, \"endTime\")), gameEndTime);\n\n    setGameState(gameId);\n  }\n\n  /**\n   * @dev Adds a bettor to the given game iff the game exists.\n   * If the bettor already exists in the game, updates her bet.\n   */\n  function addBettor(uint256 gameId, address bettor, address supportedPlayer)\n    external\n    onlyContract(CONTRACT_NAME_GAMEMANAGER)\n    onlyExistentGame(gameId)\n    returns(bool)\n  {\n    // If bettor does not exist in the game given, add bettor to the game.\n    if (!genericDB.doesNodeAddrExist(CONTRACT_NAME_GM_SETTER_DB, keccak256(abi.encodePacked(gameId, TABLE_NAME_BETTOR)), bettor)) {\n      // Add the bettor to the bettor table.\n      genericDB.pushNodeToLinkedListAddr(CONTRACT_NAME_GM_SETTER_DB, keccak256(abi.encodePacked(gameId, TABLE_NAME_BETTOR)), bettor);\n      // Save the supported player for this bettor\n      genericDB.setAddressStorage(\n        CONTRACT_NAME_GM_SETTER_DB,\n        keccak256(abi.encodePacked(gameId, bettor, \"supportedPlayer\")),\n        supportedPlayer\n      );\n\n      //Set payed fee to true\n      genericDB.setBoolStorage(CONTRACT_NAME_GM_SETTER_DB, keccak256(abi.encodePacked(gameId, bettor, \"ticketFeePaid\")), true);\n      // And increase the number of supporters for that player\n      incrementSupporters(gameId, supportedPlayer);\n      return true;\n    }\n    return false;\n  }\n\n  /**\n   * @dev Increments the number of supporters for the given player\n   */\n  function incrementSupporters(uint256 gameId, address player) internal {\n    // Increment number of supporters by one\n    uint256 supporters = genericDB.getUintStorage(\n      CONTRACT_NAME_GM_SETTER_DB,\n      keccak256(abi.encodePacked(gameId, player, \"supporters\"))\n    );\n    genericDB.setUintStorage(\n      CONTRACT_NAME_GM_SETTER_DB,\n      keccak256(abi.encodePacked(gameId, player, \"supporters\")),\n      supporters.add(1)\n    );\n  }\n\n  /**\n   * @dev *\n   */\n  function updateBettor(uint256 gameId, address bettor, uint256 betAmount, address supportedPlayer)\n    external\n    onlyContract(CONTRACT_NAME_GAMEMANAGER)\n    onlyExistentGame(gameId)\n  {\n    // Check if bettor does not exist in the game given, add her to the game.\n    //*FIXED*\n    uint prevAmount;\n    \n    if(bettor!=supportedPlayer){\n      require(genericDB.doesNodeAddrExist(CONTRACT_NAME_GM_SETTER_DB,\n        keccak256(abi.encodePacked(gameId, TABLE_NAME_BETTOR)), bettor));\n      // Get the supported player for this bettor\n      address _supportedPlayer = genericDB.getAddressStorage(\n      CONTRACT_NAME_GM_SETTER_DB,\n      keccak256(abi.encodePacked(gameId, bettor, \"supportedPlayer\"))\n      );\n      require(_supportedPlayer == supportedPlayer);\n\n      if (betAmount > 0) {\n        // Update bettor's total bet amount\n        prevAmount = genericDB.getUintStorage(\n          CONTRACT_NAME_GM_SETTER_DB,\n          keccak256(abi.encodePacked(gameId, bettor, \"betAmount\"))\n        );\n        genericDB.setUintStorage(\n          CONTRACT_NAME_GM_SETTER_DB,\n          keccak256(abi.encodePacked(gameId, bettor, \"betAmount\")),\n          prevAmount.add(betAmount)\n        );\n\n        // Update total bet amount in the game for a given corner\n        // updateTotalBet(gameId, betAmount, supportedPlayer);\n      }\n    }\n\n    prevAmount = genericDB.getUintStorage(\n      CONTRACT_NAME_GM_SETTER_DB,\n      keccak256(abi.encodePacked(gameId, supportedPlayer, \"totalBetAmount\"))\n    );\n\n    genericDB.setUintStorage(\n      CONTRACT_NAME_GM_SETTER_DB,\n      keccak256(abi.encodePacked(gameId, supportedPlayer, \"totalBetAmount\")),\n      prevAmount.add(betAmount)\n    );\n\n\n\n    \n  }\n\n  /**\n   * @dev Adds 1 minute to the game end time\n   */\n  function updateEndTime(uint256 gameId, uint newTime)\n    external\n    onlyContract(CONTRACT_NAME_GAMEMANAGER)\n    onlyExistentGame(gameId)\n  {\n    genericDB.setUintStorage(CONTRACT_NAME_GM_SETTER_DB, keccak256(abi.encodePacked(gameId, \"endTime\")), newTime);\n  }\n\n  /**\n   * @dev Update game to one of 5 states\n   */\n  function updateGameState(uint256 gameId, uint256 state)\n    external\n    onlyContract(CONTRACT_NAME_GAMEMANAGER)\n    onlyExistentGame(gameId)\n  {\n    gameCreation.scheduleJobs(gameId, state);\n    genericDB.setUintStorage(CONTRACT_NAME_GM_SETTER_DB, keccak256(abi.encodePacked(gameId, \"state\")), state);\n  }\n\n  // ==== CRONJOBS FUNCTIONS\n  function updateGameStateCron(uint256 gameId)\n    external\n    onlyContract(CONTRACT_NAME_GAMECREATION)\n    onlyExistentGame(gameId){\n      gameCreation.scheduleJobs(gameId, 1);\n      genericDB.setUintStorage(CONTRACT_NAME_GM_SETTER_DB, keccak256(abi.encodePacked(gameId, \"state\")), 1);\n  }\n\n  function setGameState(uint256 gameId)\n    internal\n    onlyExistentGame(gameId){\n      gameCreation.scheduleJobs(gameId, 0);\n      genericDB.setUintStorage(CONTRACT_NAME_GM_SETTER_DB, keccak256(abi.encodePacked(gameId, \"state\")), 0);\n  }\n\n  /**\n   * @dev Update kittie playing game Id\n   */\n  function updateKittiesGame(uint kittyBlack, uint kittyRed, uint gameId)\n    external\n    onlyContract(CONTRACT_NAME_GAMECREATION)\n  {\n    genericDB.setUintStorage(CONTRACT_NAME_GM_SETTER_DB, keccak256(abi.encodePacked(kittyBlack, \"playingGame\")), gameId);\n    genericDB.setUintStorage(CONTRACT_NAME_GM_SETTER_DB, keccak256(abi.encodePacked(kittyRed, \"playingGame\")), gameId);\n  }\n\n  /**\n   * @dev set initial ETH in jackpot created by Endowment\n   */\n  function setHoneypotInfo(uint256 gameId, uint256 initialEth)\n    external\n    onlyContract(CONTRACT_NAME_GAMECREATION)\n    onlyExistentGame(gameId)\n  {\n    genericDB.setUintStorage(CONTRACT_NAME_GM_SETTER_DB, keccak256(abi.encodePacked(gameId, \"initialEth\")), initialEth);\n  }\n\n  function storeHoneypotDetails(uint256 gameId)\n    external\n    onlyContract(CONTRACT_NAME_GAMEMANAGER)\n    onlyExistentGame(gameId)\n  {\n    (,,,uint totalEth,,uint totalKty,) = gmGetterDB.getHoneypotInfo(gameId);\n    genericDB.setUintStorage(CONTRACT_NAME_GM_SETTER_DB, keccak256(abi.encodePacked(gameId, \"totalEth\")), totalEth);\n    genericDB.setUintStorage(CONTRACT_NAME_GM_SETTER_DB, keccak256(abi.encodePacked(gameId, \"totalKty\")), totalKty);\n  }\n\n  function doesGameExist(uint256 gameId) public view returns (bool) {\n    return genericDB.doesNodeExist(CONTRACT_NAME_GM_SETTER_DB, TABLE_KEY_GAME, gameId);\n  }\n\n  /**\n   * @dev set winner for each game\n   */\n  function setWinners(uint256 gameId, address winner, address topBettor, address secondTopBettor)\n    external\n    onlyContract(CONTRACT_NAME_GAMEMANAGER)\n    onlyExistentGame(gameId)\n  {\n    genericDB.setAddressStorage(CONTRACT_NAME_GM_SETTER_DB, keccak256(abi.encodePacked(gameId, \"winner\")), winner);\n    genericDB.setAddressStorage(CONTRACT_NAME_GM_SETTER_DB, keccak256(abi.encodePacked(gameId, \"topBettor\")), topBettor);\n    genericDB.setAddressStorage(CONTRACT_NAME_GM_SETTER_DB, keccak256(abi.encodePacked(gameId, \"secondTopBettor\")), secondTopBettor);\n  }\n\n  // function updateTopbettors(uint256 _gameId, address _account, address _supportedPlayer)\n  //   external\n  //   onlyContract(CONTRACT_NAME_GAMEMANAGER)\n  //   onlyExistentGame(_gameId)\n  // {\n\n  //   address topBettor = gameStore.getTopBettor(_gameId, _supportedPlayer);\n  //   (uint256 bettorTotal,,,) = gmGetterDB.getSupporterInfo(_gameId, _account);\n  //   (uint256 topBettorEth,,,) = gmGetterDB.getSupporterInfo(_gameId, topBettor);\n    \n  //   if(topBettor != _account){\n  //     if (bettorTotal > topBettorEth){\n  //       //If topBettor is already the account, dont update\n  //       gameStore.updateTopBettor(_gameId, _supportedPlayer, _account);\n  //       gameStore.updateSecondTopBettor(_gameId, _supportedPlayer, topBettor);\n  //     }\n  //     else {\n  //       address secondTopBettor = gameStore.getSecondTopBettor(_gameId, _supportedPlayer);\n  //       (uint256 secondTopBettorEth,,,) = gmGetterDB.getSupporterInfo(_gameId, secondTopBettor);\n  //       if (bettorTotal > secondTopBettorEth && secondTopBettor != _account){\n  //           gameStore.updateSecondTopBettor(_gameId, _supportedPlayer, _account);\n  //       }\n  //     }\n  //   }\n  // }\n}\n",
  "sourcePath": "/home/wafflemakr/Desktop/KittieFight/alpha/contracts/modules/databases/GMSetterDB.sol",
  "compiler": {
    "name": "solc",
    "version": "0.5.11+commit.c082d0b4.Emscripten.clang"
  },
  "schemaVersion": "3.0.11",
  "updatedAt": "2019-08-15T01:42:44.261Z",
  "devdoc": {
    "author": "@psychoplasma@psychoplasma@psychoplasma",
    "details": "Stores game instances",
    "methods": {
      "addBettor(uint256,address,address)": {
        "details": "Adds a bettor to the given game iff the game exists. If the bettor already exists in the game, updates her bet."
      },
      "createGame(address,address,uint256,uint256,uint256)": {
        "details": "Creates a new game item on game table"
      },
      "setHoneypotInfo(uint256,uint256)": {
        "details": "set initial ETH in jackpot created by Endowment"
      },
      "setWinners(uint256,address,address,address)": {
        "details": "set winner for each game"
      },
      "updateBettor(uint256,address,uint256,address)": {
        "details": "*"
      },
      "updateEndTime(uint256,uint256)": {
        "details": "Adds 1 minute to the game end time"
      },
      "updateGameState(uint256,uint256)": {
        "details": "Update game to one of 5 states"
      },
      "updateKittiesGame(uint256,uint256,uint256)": {
        "details": "Update kittie playing game Id"
      }
    }
  },
  "userdoc": {
    "methods": {
      "setProxy(address)": {
        "notice": "Set/update address of Proxy contract"
      }
    }
  }
}