{
  "contractName": "GMSetterDB",
  "abi": [
    {
      "inputs": [
        {
          "internalType": "contract GenericDB",
          "name": "_genericDB",
          "type": "address"
        }
      ],
      "payable": false,
      "stateMutability": "nonpayable",
      "type": "constructor"
    },
    {
      "constant": true,
      "inputs": [],
      "name": "gameCreation",
      "outputs": [
        {
          "internalType": "contract GameCreation",
          "name": "",
          "type": "address"
        }
      ],
      "payable": false,
      "stateMutability": "view",
      "type": "function"
    },
    {
      "constant": true,
      "inputs": [],
      "name": "gameStore",
      "outputs": [
        {
          "internalType": "contract GameStore",
          "name": "",
          "type": "address"
        }
      ],
      "payable": false,
      "stateMutability": "view",
      "type": "function"
    },
    {
      "constant": true,
      "inputs": [],
      "name": "gameVarAndFee",
      "outputs": [
        {
          "internalType": "contract GameVarAndFee",
          "name": "",
          "type": "address"
        }
      ],
      "payable": false,
      "stateMutability": "view",
      "type": "function"
    },
    {
      "constant": true,
      "inputs": [],
      "name": "genericDB",
      "outputs": [
        {
          "internalType": "contract GenericDB",
          "name": "",
          "type": "address"
        }
      ],
      "payable": false,
      "stateMutability": "view",
      "type": "function"
    },
    {
      "constant": true,
      "inputs": [],
      "name": "gmGetterDB",
      "outputs": [
        {
          "internalType": "contract GMGetterDB",
          "name": "",
          "type": "address"
        }
      ],
      "payable": false,
      "stateMutability": "view",
      "type": "function"
    },
    {
      "constant": true,
      "inputs": [],
      "name": "owner",
      "outputs": [
        {
          "internalType": "address payable",
          "name": "",
          "type": "address"
        }
      ],
      "payable": false,
      "stateMutability": "view",
      "type": "function"
    },
    {
      "constant": true,
      "inputs": [],
      "name": "proxy",
      "outputs": [
        {
          "internalType": "contract ProxyBase",
          "name": "",
          "type": "address"
        }
      ],
      "payable": false,
      "stateMutability": "view",
      "type": "function"
    },
    {
      "constant": false,
      "inputs": [
        {
          "internalType": "contract ProxyBase",
          "name": "_proxy",
          "type": "address"
        }
      ],
      "name": "setProxy",
      "outputs": [],
      "payable": false,
      "stateMutability": "nonpayable",
      "type": "function"
    },
    {
      "constant": false,
      "inputs": [
        {
          "internalType": "address payable",
          "name": "newOwner",
          "type": "address"
        }
      ],
      "name": "transferOwnership",
      "outputs": [],
      "payable": false,
      "stateMutability": "nonpayable",
      "type": "function"
    },
    {
      "constant": false,
      "inputs": [
        {
          "internalType": "contract GenericDB",
          "name": "_genericDB",
          "type": "address"
        }
      ],
      "name": "setGenericDB",
      "outputs": [],
      "payable": false,
      "stateMutability": "nonpayable",
      "type": "function"
    },
    {
      "constant": false,
      "inputs": [],
      "name": "initialize",
      "outputs": [],
      "payable": false,
      "stateMutability": "nonpayable",
      "type": "function"
    },
    {
      "constant": false,
      "inputs": [
        {
          "internalType": "address",
          "name": "playerRed",
          "type": "address"
        },
        {
          "internalType": "address",
          "name": "playerBlack",
          "type": "address"
        },
        {
          "internalType": "uint256",
          "name": "kittyRed",
          "type": "uint256"
        },
        {
          "internalType": "uint256",
          "name": "kittyBlack",
          "type": "uint256"
        },
        {
          "internalType": "uint256",
          "name": "gameStartTime",
          "type": "uint256"
        }
      ],
      "name": "createGame",
      "outputs": [
        {
          "internalType": "uint256",
          "name": "gameId",
          "type": "uint256"
        }
      ],
      "payable": false,
      "stateMutability": "nonpayable",
      "type": "function"
    },
    {
      "constant": false,
      "inputs": [
        {
          "internalType": "uint256",
          "name": "gameId",
          "type": "uint256"
        },
        {
          "internalType": "address",
          "name": "bettor",
          "type": "address"
        },
        {
          "internalType": "address",
          "name": "supportedPlayer",
          "type": "address"
        }
      ],
      "name": "addBettor",
      "outputs": [
        {
          "internalType": "bool",
          "name": "",
          "type": "bool"
        }
      ],
      "payable": false,
      "stateMutability": "nonpayable",
      "type": "function"
    },
    {
      "constant": false,
      "inputs": [
        {
          "internalType": "uint256",
          "name": "gameId",
          "type": "uint256"
        },
        {
          "internalType": "address",
          "name": "bettor",
          "type": "address"
        },
        {
          "internalType": "uint256",
          "name": "betAmount",
          "type": "uint256"
        },
        {
          "internalType": "address",
          "name": "supportedPlayer",
          "type": "address"
        }
      ],
      "name": "updateBettor",
      "outputs": [],
      "payable": false,
      "stateMutability": "nonpayable",
      "type": "function"
    },
    {
      "constant": false,
      "inputs": [
        {
          "internalType": "uint256",
          "name": "gameId",
          "type": "uint256"
        },
        {
          "internalType": "uint256",
          "name": "newTime",
          "type": "uint256"
        }
      ],
      "name": "updateEndTime",
      "outputs": [],
      "payable": false,
      "stateMutability": "nonpayable",
      "type": "function"
    },
    {
      "constant": false,
      "inputs": [
        {
          "internalType": "uint256",
          "name": "gameId",
          "type": "uint256"
        },
        {
          "internalType": "uint256",
          "name": "state",
          "type": "uint256"
        }
      ],
      "name": "updateGameState",
      "outputs": [],
      "payable": false,
      "stateMutability": "nonpayable",
      "type": "function"
    },
    {
      "constant": false,
      "inputs": [
        {
          "internalType": "uint256",
          "name": "gameId",
          "type": "uint256"
        }
      ],
      "name": "updateGameStateCron",
      "outputs": [],
      "payable": false,
      "stateMutability": "nonpayable",
      "type": "function"
    },
    {
      "constant": false,
      "inputs": [
        {
          "internalType": "uint256",
          "name": "kittyBlack",
          "type": "uint256"
        },
        {
          "internalType": "uint256",
          "name": "kittyRed",
          "type": "uint256"
        },
        {
          "internalType": "uint256",
          "name": "gameId",
          "type": "uint256"
        }
      ],
      "name": "updateKittiesGame",
      "outputs": [],
      "payable": false,
      "stateMutability": "nonpayable",
      "type": "function"
    },
    {
      "constant": false,
      "inputs": [
        {
          "internalType": "uint256",
          "name": "gameId",
          "type": "uint256"
        }
      ],
      "name": "setHoneypotInfo",
      "outputs": [],
      "payable": false,
      "stateMutability": "nonpayable",
      "type": "function"
    },
    {
      "constant": false,
      "inputs": [
        {
          "internalType": "uint256",
          "name": "gameId",
          "type": "uint256"
        }
      ],
      "name": "storeHoneypotDetails",
      "outputs": [],
      "payable": false,
      "stateMutability": "nonpayable",
      "type": "function"
    },
    {
      "constant": true,
      "inputs": [
        {
          "internalType": "uint256",
          "name": "gameId",
          "type": "uint256"
        }
      ],
      "name": "doesGameExist",
      "outputs": [
        {
          "internalType": "bool",
          "name": "",
          "type": "bool"
        }
      ],
      "payable": false,
      "stateMutability": "view",
      "type": "function"
    },
    {
      "constant": false,
      "inputs": [
        {
          "internalType": "uint256",
          "name": "gameId",
          "type": "uint256"
        },
        {
          "internalType": "address",
          "name": "winner",
          "type": "address"
        },
        {
          "internalType": "address",
          "name": "topBettor",
          "type": "address"
        },
        {
          "internalType": "address",
          "name": "secondTopBettor",
          "type": "address"
        }
      ],
      "name": "setWinners",
      "outputs": [],
      "payable": false,
      "stateMutability": "nonpayable",
      "type": "function"
    }
  ],
  "bytecode": "0x60806040523480156200001157600080fd5b506040516200605838038062006058833981810160405260208110156200003757600080fd5b8101908080519060200190929190505050336000806101000a81548173ffffffffffffffffffffffffffffffffffffffff021916908373ffffffffffffffffffffffffffffffffffffffff1602179055506200009981620000a060201b60201c565b506200013b565b6000809054906101000a900473ffffffffffffffffffffffffffffffffffffffff1673ffffffffffffffffffffffffffffffffffffffff163373ffffffffffffffffffffffffffffffffffffffff1614620000f757fe5b80600260006101000a81548173ffffffffffffffffffffffffffffffffffffffff021916908373ffffffffffffffffffffffffffffffffffffffff16021790555050565b615f0d806200014b6000396000f3fe608060405234801561001057600080fd5b50600436106101425760003560e01c8063a3b3bd7b116100b8578063ec5568891161007c578063ec55688914610603578063f1c9d63a1461064d578063f2fde38b146106db578063f4dc834a1461071f578063f5de83971461074d578063fd3d1c241461078557610142565b8063a3b3bd7b1461045b578063a4a0aa55146104a5578063b1be64691461053b578063e44542df14610585578063e6a3d31e146105bd57610142565b80634afab8151161010a5780634afab815146103235780638129fc1c146103675780638825546b146103715780638da5cb5b1461039f57806397107d6d146103e95780639ecd537a1461042d57610142565b8063026ab2c51461014757806315a194ec146101bf5780631fc75180146102095780633564e78c14610253578063409299801461029d575b600080fd5b6101bd6004803603608081101561015d57600080fd5b8101908080359060200190929190803573ffffffffffffffffffffffffffffffffffffffff16906020019092919080359060200190929190803573ffffffffffffffffffffffffffffffffffffffff1690602001909291905050506107c7565b005b6101c7611799565b604051808273ffffffffffffffffffffffffffffffffffffffff1673ffffffffffffffffffffffffffffffffffffffff16815260200191505060405180910390f35b6102116117bf565b604051808273ffffffffffffffffffffffffffffffffffffffff1673ffffffffffffffffffffffffffffffffffffffff16815260200191505060405180910390f35b61025b6117e5565b604051808273ffffffffffffffffffffffffffffffffffffffff1673ffffffffffffffffffffffffffffffffffffffff16815260200191505060405180910390f35b610309600480360360608110156102b357600080fd5b8101908080359060200190929190803573ffffffffffffffffffffffffffffffffffffffff169060200190929190803573ffffffffffffffffffffffffffffffffffffffff16906020019092919050505061180b565b604051808215151515815260200191505060405180910390f35b6103656004803603602081101561033957600080fd5b81019080803573ffffffffffffffffffffffffffffffffffffffff169060200190929190505050612094565b005b61036f61212e565b005b61039d6004803603602081101561038757600080fd5b81019080803590602001909291905050506127a6565b005b6103a7612c4b565b604051808273ffffffffffffffffffffffffffffffffffffffff1673ffffffffffffffffffffffffffffffffffffffff16815260200191505060405180910390f35b61042b600480360360208110156103ff57600080fd5b81019080803573ffffffffffffffffffffffffffffffffffffffff169060200190929190505050612c70565b005b6104596004803603602081101561044357600080fd5b8101908080359060200190929190505050612d0a565b005b610463613170565b604051808273ffffffffffffffffffffffffffffffffffffffff1673ffffffffffffffffffffffffffffffffffffffff16815260200191505060405180910390f35b610525600480360360a08110156104bb57600080fd5b81019080803573ffffffffffffffffffffffffffffffffffffffff169060200190929190803573ffffffffffffffffffffffffffffffffffffffff169060200190929190803590602001909291908035906020019092919080359060200190929190505050613196565b6040518082815260200191505060405180910390f35b6105436143be565b604051808273ffffffffffffffffffffffffffffffffffffffff1673ffffffffffffffffffffffffffffffffffffffff16815260200191505060405180910390f35b6105bb6004803603604081101561059b57600080fd5b8101908080359060200190929190803590602001909291905050506143e4565b005b6105e9600480360360208110156105d357600080fd5b81019080803590602001909291905050506145c1565b604051808215151515815260200191505060405180910390f35b61060b614768565b604051808273ffffffffffffffffffffffffffffffffffffffff1673ffffffffffffffffffffffffffffffffffffffff16815260200191505060405180910390f35b6106d96004803603608081101561066357600080fd5b8101908080359060200190929190803573ffffffffffffffffffffffffffffffffffffffff169060200190929190803573ffffffffffffffffffffffffffffffffffffffff169060200190929190803573ffffffffffffffffffffffffffffffffffffffff16906020019092919050505061478e565b005b61071d600480360360208110156106f157600080fd5b81019080803573ffffffffffffffffffffffffffffffffffffffff169060200190929190505050614cfb565b005b61074b6004803603602081101561073557600080fd5b8101908080359060200190929190505050614dc9565b005b6107836004803603604081101561076357600080fd5b81019080803590602001909291908035906020019092919050505061503c565b005b6107c56004803603606081101561079b57600080fd5b810190808035906020019092919080359060200190929190803590602001909291905050506152ae565b005b6040518060400160405280600b81526020017f47616d654d616e61676572000000000000000000000000000000000000000000815250610806816155fd565b84610810816145c1565b61081957600080fd5b60008373ffffffffffffffffffffffffffffffffffffffff168673ffffffffffffffffffffffffffffffffffffffff161461104557600260009054906101000a900473ffffffffffffffffffffffffffffffffffffffff1673ffffffffffffffffffffffffffffffffffffffff16638445d70f6040518060400160405280600a81526020017f474d536574746572444200000000000000000000000000000000000000000000815250896040518060400160405280600b81526020017f426574746f725461626c650000000000000000000000000000000000000000008152506040516020018083815260200182805190602001908083835b602083106109355780518252602082019150602081019050602083039250610912565b6001836020036101000a0380198251168184511680821785525050505050509050019250505060405160208183030381529060405280519060200120896040518463ffffffff1660e01b815260040180806020018481526020018373ffffffffffffffffffffffffffffffffffffffff1673ffffffffffffffffffffffffffffffffffffffff168152602001828103825285818151815260200191508051906020019080838360005b838110156109f95780820151818401526020810190506109de565b50505050905090810190601f168015610a265780820380516001836020036101000a031916815260200191505b5094505050505060206040518083038186803b158015610a4557600080fd5b505afa158015610a59573d6000803e3d6000fd5b505050506040513d6020811015610a6f57600080fd5b8101908080519060200190929190505050610a8957600080fd5b6000600260009054906101000a900473ffffffffffffffffffffffffffffffffffffffff1673ffffffffffffffffffffffffffffffffffffffff1663b93a5b5e6040518060400160405280600a81526020017f474d5365747465724442000000000000000000000000000000000000000000008152508a8a604051602001808381526020018273ffffffffffffffffffffffffffffffffffffffff1673ffffffffffffffffffffffffffffffffffffffff1660601b8152601401807f737570706f72746564506c617965720000000000000000000000000000000000815250600f0192505050604051602081830303815290604052805190602001206040518363ffffffff1660e01b81526004018080602001838152602001828103825284818151815260200191508051906020019080838360005b83811015610bda578082015181840152602081019050610bbf565b50505050905090810190601f168015610c075780820380516001836020036101000a031916815260200191505b50935050505060206040518083038186803b158015610c2557600080fd5b505afa158015610c39573d6000803e3d6000fd5b505050506040513d6020811015610c4f57600080fd5b810190808051906020019092919050505090508473ffffffffffffffffffffffffffffffffffffffff168173ffffffffffffffffffffffffffffffffffffffff1614610c9a57600080fd5b600260009054906101000a900473ffffffffffffffffffffffffffffffffffffffff1673ffffffffffffffffffffffffffffffffffffffff166308acb5566040518060400160405280600a81526020017f474d5365747465724442000000000000000000000000000000000000000000008152508a8a604051602001808381526020018273ffffffffffffffffffffffffffffffffffffffff1673ffffffffffffffffffffffffffffffffffffffff1660601b8152601401807f626574416d6f756e74000000000000000000000000000000000000000000000081525060090192505050604051602081830303815290604052805190602001206040518363ffffffff1660e01b81526004018080602001838152602001828103825284818151815260200191508051906020019080838360005b83811015610de9578082015181840152602081019050610dce565b50505050905090810190601f168015610e165780820380516001836020036101000a031916815260200191505b50935050505060206040518083038186803b158015610e3457600080fd5b505afa158015610e48573d6000803e3d6000fd5b505050506040513d6020811015610e5e57600080fd5b81019080805190602001909291905050509150600260009054906101000a900473ffffffffffffffffffffffffffffffffffffffff1673ffffffffffffffffffffffffffffffffffffffff16630214a37c6040518060400160405280600a81526020017f474d5365747465724442000000000000000000000000000000000000000000008152508a8a604051602001808381526020018273ffffffffffffffffffffffffffffffffffffffff1673ffffffffffffffffffffffffffffffffffffffff1660601b8152601401807f626574416d6f756e7400000000000000000000000000000000000000000000008152506009019250505060405160208183030381529060405280519060200120610f7e8a8761589890919063ffffffff16565b6040518463ffffffff1660e01b81526004018080602001848152602001838152602001828103825285818151815260200191508051906020019080838360005b83811015610fd9578082015181840152602081019050610fbe565b50505050905090810190601f1680156110065780820380516001836020036101000a031916815260200191505b50945050505050600060405180830381600087803b15801561102757600080fd5b505af115801561103b573d6000803e3d6000fd5b50505050506113eb565b600260009054906101000a900473ffffffffffffffffffffffffffffffffffffffff1673ffffffffffffffffffffffffffffffffffffffff166308acb5566040518060400160405280600a81526020017f474d5365747465724442000000000000000000000000000000000000000000008152508989604051602001808381526020018273ffffffffffffffffffffffffffffffffffffffff1673ffffffffffffffffffffffffffffffffffffffff1660601b8152601401807f626574416d6f756e74000000000000000000000000000000000000000000000081525060090192505050604051602081830303815290604052805190602001206040518363ffffffff1660e01b81526004018080602001838152602001828103825284818151815260200191508051906020019080838360005b83811015611194578082015181840152602081019050611179565b50505050905090810190601f1680156111c15780820380516001836020036101000a031916815260200191505b50935050505060206040518083038186803b1580156111df57600080fd5b505afa1580156111f3573d6000803e3d6000fd5b505050506040513d602081101561120957600080fd5b81019080805190602001909291905050509050600260009054906101000a900473ffffffffffffffffffffffffffffffffffffffff1673ffffffffffffffffffffffffffffffffffffffff16630214a37c6040518060400160405280600a81526020017f474d5365747465724442000000000000000000000000000000000000000000008152508989604051602001808381526020018273ffffffffffffffffffffffffffffffffffffffff1673ffffffffffffffffffffffffffffffffffffffff1660601b8152601401807f626574416d6f756e7400000000000000000000000000000000000000000000008152506009019250505060405160208183030381529060405280519060200120611329898661589890919063ffffffff16565b6040518463ffffffff1660e01b81526004018080602001848152602001838152602001828103825285818151815260200191508051906020019080838360005b83811015611384578082015181840152602081019050611369565b50505050905090810190601f1680156113b15780820380516001836020036101000a031916815260200191505b50945050505050600060405180830381600087803b1580156113d257600080fd5b505af11580156113e6573d6000803e3d6000fd5b505050505b600260009054906101000a900473ffffffffffffffffffffffffffffffffffffffff1673ffffffffffffffffffffffffffffffffffffffff166308acb5566040518060400160405280600a81526020017f474d5365747465724442000000000000000000000000000000000000000000008152508987604051602001808381526020018273ffffffffffffffffffffffffffffffffffffffff1673ffffffffffffffffffffffffffffffffffffffff1660601b8152601401807f746f74616c426574416d6f756e74000000000000000000000000000000000000815250600e0192505050604051602081830303815290604052805190602001206040518363ffffffff1660e01b81526004018080602001838152602001828103825284818151815260200191508051906020019080838360005b8381101561153a57808201518184015260208101905061151f565b50505050905090810190601f1680156115675780820380516001836020036101000a031916815260200191505b50935050505060206040518083038186803b15801561158557600080fd5b505afa158015611599573d6000803e3d6000fd5b505050506040513d60208110156115af57600080fd5b81019080805190602001909291905050509050600260009054906101000a900473ffffffffffffffffffffffffffffffffffffffff1673ffffffffffffffffffffffffffffffffffffffff16630214a37c6040518060400160405280600a81526020017f474d5365747465724442000000000000000000000000000000000000000000008152508987604051602001808381526020018273ffffffffffffffffffffffffffffffffffffffff1673ffffffffffffffffffffffffffffffffffffffff1660601b8152601401807f746f74616c426574416d6f756e74000000000000000000000000000000000000815250600e0192505050604051602081830303815290604052805190602001206116cf898661589890919063ffffffff16565b6040518463ffffffff1660e01b81526004018080602001848152602001838152602001828103825285818151815260200191508051906020019080838360005b8381101561172a57808201518184015260208101905061170f565b50505050905090810190601f1680156117575780820380516001836020036101000a031916815260200191505b50945050505050600060405180830381600087803b15801561177857600080fd5b505af115801561178c573d6000803e3d6000fd5b5050505050505050505050565b600660009054906101000a900473ffffffffffffffffffffffffffffffffffffffff1681565b600460009054906101000a900473ffffffffffffffffffffffffffffffffffffffff1681565b600260009054906101000a900473ffffffffffffffffffffffffffffffffffffffff1681565b60006040518060400160405280600b81526020017f47616d654d616e6167657200000000000000000000000000000000000000000081525061184c816155fd565b84611856816145c1565b61185f57600080fd5b600260009054906101000a900473ffffffffffffffffffffffffffffffffffffffff1673ffffffffffffffffffffffffffffffffffffffff16638445d70f6040518060400160405280600a81526020017f474d536574746572444200000000000000000000000000000000000000000000815250886040518060400160405280600b81526020017f426574746f725461626c650000000000000000000000000000000000000000008152506040516020018083815260200182805190602001908083835b602083106119465780518252602082019150602081019050602083039250611923565b6001836020036101000a0380198251168184511680821785525050505050509050019250505060405160208183030381529060405280519060200120886040518463ffffffff1660e01b815260040180806020018481526020018373ffffffffffffffffffffffffffffffffffffffff1673ffffffffffffffffffffffffffffffffffffffff168152602001828103825285818151815260200191508051906020019080838360005b83811015611a0a5780820151818401526020810190506119ef565b50505050905090810190601f168015611a375780820380516001836020036101000a031916815260200191505b5094505050505060206040518083038186803b158015611a5657600080fd5b505afa158015611a6a573d6000803e3d6000fd5b505050506040513d6020811015611a8057600080fd5b810190808051906020019092919050505061208657600260009054906101000a900473ffffffffffffffffffffffffffffffffffffffff1673ffffffffffffffffffffffffffffffffffffffff166396bf56806040518060400160405280600a81526020017f474d536574746572444200000000000000000000000000000000000000000000815250886040518060400160405280600b81526020017f426574746f725461626c650000000000000000000000000000000000000000008152506040516020018083815260200182805190602001908083835b60208310611b7c5780518252602082019150602081019050602083039250611b59565b6001836020036101000a0380198251168184511680821785525050505050509050019250505060405160208183030381529060405280519060200120886040518463ffffffff1660e01b815260040180806020018481526020018373ffffffffffffffffffffffffffffffffffffffff1673ffffffffffffffffffffffffffffffffffffffff168152602001828103825285818151815260200191508051906020019080838360005b83811015611c40578082015181840152602081019050611c25565b50505050905090810190601f168015611c6d5780820380516001836020036101000a031916815260200191505b50945050505050602060405180830381600087803b158015611c8e57600080fd5b505af1158015611ca2573d6000803e3d6000fd5b505050506040513d6020811015611cb857600080fd5b810190808051906020019092919050505050600260009054906101000a900473ffffffffffffffffffffffffffffffffffffffff1673ffffffffffffffffffffffffffffffffffffffff1663866d59fe6040518060400160405280600a81526020017f474d5365747465724442000000000000000000000000000000000000000000008152508888604051602001808381526020018273ffffffffffffffffffffffffffffffffffffffff1673ffffffffffffffffffffffffffffffffffffffff1660601b8152601401807f737570706f72746564506c617965720000000000000000000000000000000000815250600f019250505060405160208183030381529060405280519060200120876040518463ffffffff1660e01b815260040180806020018481526020018373ffffffffffffffffffffffffffffffffffffffff1673ffffffffffffffffffffffffffffffffffffffff168152602001828103825285818151815260200191508051906020019080838360005b83811015611e4c578082015181840152602081019050611e31565b50505050905090810190601f168015611e795780820380516001836020036101000a031916815260200191505b50945050505050600060405180830381600087803b158015611e9a57600080fd5b505af1158015611eae573d6000803e3d6000fd5b50505050600260009054906101000a900473ffffffffffffffffffffffffffffffffffffffff1673ffffffffffffffffffffffffffffffffffffffff1663cb30ffe76040518060400160405280600a81526020017f474d5365747465724442000000000000000000000000000000000000000000008152508888604051602001808381526020018273ffffffffffffffffffffffffffffffffffffffff1673ffffffffffffffffffffffffffffffffffffffff1660601b8152601401807f7469636b65744665655061696400000000000000000000000000000000000000815250600d01925050506040516020818303038152906040528051906020012060016040518463ffffffff1660e01b8152600401808060200184815260200183151515158152602001828103825285818151815260200191508051906020019080838360005b8381101561200d578082015181840152602081019050611ff2565b50505050905090810190601f16801561203a5780820380516001836020036101000a031916815260200191505b50945050505050600060405180830381600087803b15801561205b57600080fd5b505af115801561206f573d6000803e3d6000fd5b5050505061207d86856158b4565b6001925061208b565b600092505b50509392505050565b6000809054906101000a900473ffffffffffffffffffffffffffffffffffffffff1673ffffffffffffffffffffffffffffffffffffffff163373ffffffffffffffffffffffffffffffffffffffff16146120ea57fe5b80600260006101000a81548173ffffffffffffffffffffffffffffffffffffffff021916908373ffffffffffffffffffffffffffffffffffffffff16021790555050565b6000809054906101000a900473ffffffffffffffffffffffffffffffffffffffff1673ffffffffffffffffffffffffffffffffffffffff163373ffffffffffffffffffffffffffffffffffffffff161461218457fe5b600160009054906101000a900473ffffffffffffffffffffffffffffffffffffffff1673ffffffffffffffffffffffffffffffffffffffff1663358177736040518060400160405280600d81526020017f47616d65566172416e64466565000000000000000000000000000000000000008152506040518263ffffffff1660e01b81526004018080602001828103825283818151815260200191508051906020019080838360005b8381101561224757808201518184015260208101905061222c565b50505050905090810190601f1680156122745780820380516001836020036101000a031916815260200191505b509250505060206040518083038186803b15801561229157600080fd5b505afa1580156122a5573d6000803e3d6000fd5b505050506040513d60208110156122bb57600080fd5b8101908080519060200190929190505050600360006101000a81548173ffffffffffffffffffffffffffffffffffffffff021916908373ffffffffffffffffffffffffffffffffffffffff160217905550600160009054906101000a900473ffffffffffffffffffffffffffffffffffffffff1673ffffffffffffffffffffffffffffffffffffffff1663358177736040518060400160405280600a81526020017f474d4765747465724442000000000000000000000000000000000000000000008152506040518263ffffffff1660e01b81526004018080602001828103825283818151815260200191508051906020019080838360005b838110156123cf5780820151818401526020810190506123b4565b50505050905090810190601f1680156123fc5780820380516001836020036101000a031916815260200191505b509250505060206040518083038186803b15801561241957600080fd5b505afa15801561242d573d6000803e3d6000fd5b505050506040513d602081101561244357600080fd5b8101908080519060200190929190505050600460006101000a81548173ffffffffffffffffffffffffffffffffffffffff021916908373ffffffffffffffffffffffffffffffffffffffff160217905550600160009054906101000a900473ffffffffffffffffffffffffffffffffffffffff1673ffffffffffffffffffffffffffffffffffffffff1663358177736040518060400160405280600981526020017f47616d6553746f726500000000000000000000000000000000000000000000008152506040518263ffffffff1660e01b81526004018080602001828103825283818151815260200191508051906020019080838360005b8381101561255757808201518184015260208101905061253c565b50505050905090810190601f1680156125845780820380516001836020036101000a031916815260200191505b509250505060206040518083038186803b1580156125a157600080fd5b505afa1580156125b5573d6000803e3d6000fd5b505050506040513d60208110156125cb57600080fd5b8101908080519060200190929190505050600560006101000a81548173ffffffffffffffffffffffffffffffffffffffff021916908373ffffffffffffffffffffffffffffffffffffffff160217905550600160009054906101000a900473ffffffffffffffffffffffffffffffffffffffff1673ffffffffffffffffffffffffffffffffffffffff1663358177736040518060400160405280600c81526020017f47616d654372656174696f6e00000000000000000000000000000000000000008152506040518263ffffffff1660e01b81526004018080602001828103825283818151815260200191508051906020019080838360005b838110156126df5780820151818401526020810190506126c4565b50505050905090810190601f16801561270c5780820380516001836020036101000a031916815260200191505b509250505060206040518083038186803b15801561272957600080fd5b505afa15801561273d573d6000803e3d6000fd5b505050506040513d602081101561275357600080fd5b8101908080519060200190929190505050600660006101000a81548173ffffffffffffffffffffffffffffffffffffffff021916908373ffffffffffffffffffffffffffffffffffffffff160217905550565b6040518060400160405280600c81526020017f47616d654372656174696f6e00000000000000000000000000000000000000008152506127e5816155fd565b816127ef816145c1565b6127f857600080fd5b600260009054906101000a900473ffffffffffffffffffffffffffffffffffffffff1673ffffffffffffffffffffffffffffffffffffffff16630214a37c6040518060400160405280600a81526020017f474d5365747465724442000000000000000000000000000000000000000000008152508560405160200180828152602001807f696e697469616c45746800000000000000000000000000000000000000000000815250600a0191505060405160208183030381529060405280519060200120600360009054906101000a900473ffffffffffffffffffffffffffffffffffffffff1673ffffffffffffffffffffffffffffffffffffffff166394ec12fd6040518163ffffffff1660e01b815260040160206040518083038186803b15801561292357600080fd5b505afa158015612937573d6000803e3d6000fd5b505050506040513d602081101561294d57600080fd5b81019080805190602001909291905050506040518463ffffffff1660e01b81526004018080602001848152602001838152602001828103825285818151815260200191508051906020019080838360005b838110156129b957808201518184015260208101905061299e565b50505050905090810190601f1680156129e65780820380516001836020036101000a031916815260200191505b50945050505050600060405180830381600087803b158015612a0757600080fd5b505af1158015612a1b573d6000803e3d6000fd5b50505050600260009054906101000a900473ffffffffffffffffffffffffffffffffffffffff1673ffffffffffffffffffffffffffffffffffffffff16630214a37c6040518060400160405280600a81526020017f474d5365747465724442000000000000000000000000000000000000000000008152508560405160200180828152602001807f696e697469616c4b747900000000000000000000000000000000000000000000815250600a0191505060405160208183030381529060405280519060200120600360009054906101000a900473ffffffffffffffffffffffffffffffffffffffff1673ffffffffffffffffffffffffffffffffffffffff16632341678a6040518163ffffffff1660e01b815260040160206040518083038186803b158015612b4a57600080fd5b505afa158015612b5e573d6000803e3d6000fd5b505050506040513d6020811015612b7457600080fd5b81019080805190602001909291905050506040518463ffffffff1660e01b81526004018080602001848152602001838152602001828103825285818151815260200191508051906020019080838360005b83811015612be0578082015181840152602081019050612bc5565b50505050905090810190601f168015612c0d5780820380516001836020036101000a031916815260200191505b50945050505050600060405180830381600087803b158015612c2e57600080fd5b505af1158015612c42573d6000803e3d6000fd5b50505050505050565b6000809054906101000a900473ffffffffffffffffffffffffffffffffffffffff1681565b6000809054906101000a900473ffffffffffffffffffffffffffffffffffffffff1673ffffffffffffffffffffffffffffffffffffffff163373ffffffffffffffffffffffffffffffffffffffff1614612cc657fe5b80600160006101000a81548173ffffffffffffffffffffffffffffffffffffffff021916908373ffffffffffffffffffffffffffffffffffffffff16021790555050565b6040518060400160405280600b81526020017f47616d654d616e61676572000000000000000000000000000000000000000000815250612d49816155fd565b81612d53816145c1565b612d5c57600080fd5b600080600460009054906101000a900473ffffffffffffffffffffffffffffffffffffffff1673ffffffffffffffffffffffffffffffffffffffff1663589ac6a4866040518263ffffffff1660e01b8152600401808281526020019150506101006040518083038186803b158015612dd357600080fd5b505afa158015612de7573d6000803e3d6000fd5b505050506040513d601f19601f82011682018060405250610100811015612e0d57600080fd5b81019080805190602001909291908051906020019092919080519060200190929190805190602001909291909190826040018051906020019092919080519060200190929190505050509550509450505050600260009054906101000a900473ffffffffffffffffffffffffffffffffffffffff1673ffffffffffffffffffffffffffffffffffffffff16630214a37c6040518060400160405280600a81526020017f474d5365747465724442000000000000000000000000000000000000000000008152508760405160200180828152602001807f746f74616c45746800000000000000000000000000000000000000000000000081525060080191505060405160208183030381529060405280519060200120856040518463ffffffff1660e01b81526004018080602001848152602001838152602001828103825285818151815260200191508051906020019080838360005b83811015612f7e578082015181840152602081019050612f63565b50505050905090810190601f168015612fab5780820380516001836020036101000a031916815260200191505b50945050505050600060405180830381600087803b158015612fcc57600080fd5b505af1158015612fe0573d6000803e3d6000fd5b50505050600260009054906101000a900473ffffffffffffffffffffffffffffffffffffffff1673ffffffffffffffffffffffffffffffffffffffff16630214a37c6040518060400160405280600a81526020017f474d5365747465724442000000000000000000000000000000000000000000008152508760405160200180828152602001807f746f74616c4b747900000000000000000000000000000000000000000000000081525060080191505060405160208183030381529060405280519060200120846040518463ffffffff1660e01b81526004018080602001848152602001838152602001828103825285818151815260200191508051906020019080838360005b838110156131035780820151818401526020810190506130e8565b50505050905090810190601f1680156131305780820380516001836020036101000a031916815260200191505b50945050505050600060405180830381600087803b15801561315157600080fd5b505af1158015613165573d6000803e3d6000fd5b505050505050505050565b600360009054906101000a900473ffffffffffffffffffffffffffffffffffffffff1681565b60006040518060400160405280600c81526020017f47616d654372656174696f6e00000000000000000000000000000000000000008152506131d7816155fd565b6000600260009054906101000a900473ffffffffffffffffffffffffffffffffffffffff1673ffffffffffffffffffffffffffffffffffffffff16639a481f4e6040518060400160405280600a81526020017f474d53657474657244420000000000000000000000000000000000000000000081525060405160200180807f47616d655461626c650000000000000000000000000000000000000000000000815250600901905060405160208183030381529060405280519060200120600060016040518563ffffffff1660e01b8152600401808060200185815260200184815260200183151515158152602001828103825286818151815260200191508051906020019080838360005b838110156132fd5780820151818401526020810190506132e2565b50505050905090810190601f16801561332a5780820380516001836020036101000a031916815260200191505b5095505050505050604080518083038186803b15801561334957600080fd5b505afa15801561335d573d6000803e3d6000fd5b505050506040513d604081101561337357600080fd5b8101908080519060200190929190805190602001909291905050509150506133a560018261589890919063ffffffff16565b9250600260009054906101000a900473ffffffffffffffffffffffffffffffffffffffff1673ffffffffffffffffffffffffffffffffffffffff166387d533626040518060400160405280600a81526020017f474d53657474657244420000000000000000000000000000000000000000000081525060405160200180807f47616d655461626c650000000000000000000000000000000000000000000000815250600901905060405160208183030381529060405280519060200120866040518463ffffffff1660e01b81526004018080602001848152602001838152602001828103825285818151815260200191508051906020019080838360005b838110156134be5780820151818401526020810190506134a3565b50505050905090810190601f1680156134eb5780820380516001836020036101000a031916815260200191505b50945050505050602060405180830381600087803b15801561350c57600080fd5b505af1158015613520573d6000803e3d6000fd5b505050506040513d602081101561353657600080fd5b81019080805190602001909291905050505060006135ff600360009054906101000a900473ffffffffffffffffffffffffffffffffffffffff1673ffffffffffffffffffffffffffffffffffffffff1663c09ab5106040518163ffffffff1660e01b815260040160206040518083038186803b1580156135b557600080fd5b505afa1580156135c9573d6000803e3d6000fd5b505050506040513d60208110156135df57600080fd5b810190808051906020019092919050505086615c6190919063ffffffff16565b905060006136b8600360009054906101000a900473ffffffffffffffffffffffffffffffffffffffff1673ffffffffffffffffffffffffffffffffffffffff166378e9ae606040518163ffffffff1660e01b815260040160206040518083038186803b15801561366e57600080fd5b505afa158015613682573d6000803e3d6000fd5b505050506040513d602081101561369857600080fd5b81019080805190602001909291905050508761589890919063ffffffff16565b9050600260009054906101000a900473ffffffffffffffffffffffffffffffffffffffff1673ffffffffffffffffffffffffffffffffffffffff1663866d59fe6040518060400160405280600a81526020017f474d5365747465724442000000000000000000000000000000000000000000008152508760405160200180828152602001807f706c617965725265640000000000000000000000000000000000000000000000815250600901915050604051602081830303815290604052805190602001208d6040518463ffffffff1660e01b815260040180806020018481526020018373ffffffffffffffffffffffffffffffffffffffff1673ffffffffffffffffffffffffffffffffffffffff168152602001828103825285818151815260200191508051906020019080838360005b838110156138055780820151818401526020810190506137ea565b50505050905090810190601f1680156138325780820380516001836020036101000a031916815260200191505b50945050505050600060405180830381600087803b15801561385357600080fd5b505af1158015613867573d6000803e3d6000fd5b50505050600260009054906101000a900473ffffffffffffffffffffffffffffffffffffffff1673ffffffffffffffffffffffffffffffffffffffff1663866d59fe6040518060400160405280600a81526020017f474d5365747465724442000000000000000000000000000000000000000000008152508760405160200180828152602001807f706c61796572426c61636b000000000000000000000000000000000000000000815250600b01915050604051602081830303815290604052805190602001208c6040518463ffffffff1660e01b815260040180806020018481526020018373ffffffffffffffffffffffffffffffffffffffff1673ffffffffffffffffffffffffffffffffffffffff168152602001828103825285818151815260200191508051906020019080838360005b838110156139b657808201518184015260208101905061399b565b50505050905090810190601f1680156139e35780820380516001836020036101000a031916815260200191505b50945050505050600060405180830381600087803b158015613a0457600080fd5b505af1158015613a18573d6000803e3d6000fd5b50505050600260009054906101000a900473ffffffffffffffffffffffffffffffffffffffff1673ffffffffffffffffffffffffffffffffffffffff16630214a37c6040518060400160405280600a81526020017f474d536574746572444200000000000000000000000000000000000000000000815250878d604051602001808381526020018273ffffffffffffffffffffffffffffffffffffffff1673ffffffffffffffffffffffffffffffffffffffff1660601b8152601401807f6b6974747900000000000000000000000000000000000000000000000000000081525060050192505050604051602081830303815290604052805190602001208b6040518463ffffffff1660e01b81526004018080602001848152602001838152602001828103825285818151815260200191508051906020019080838360005b83811015613b72578082015181840152602081019050613b57565b50505050905090810190601f168015613b9f5780820380516001836020036101000a031916815260200191505b50945050505050600060405180830381600087803b158015613bc057600080fd5b505af1158015613bd4573d6000803e3d6000fd5b50505050600260009054906101000a900473ffffffffffffffffffffffffffffffffffffffff1673ffffffffffffffffffffffffffffffffffffffff16630214a37c6040518060400160405280600a81526020017f474d536574746572444200000000000000000000000000000000000000000000815250878c604051602001808381526020018273ffffffffffffffffffffffffffffffffffffffff1673ffffffffffffffffffffffffffffffffffffffff1660601b8152601401807f6b6974747900000000000000000000000000000000000000000000000000000081525060050192505050604051602081830303815290604052805190602001208a6040518463ffffffff1660e01b81526004018080602001848152602001838152602001828103825285818151815260200191508051906020019080838360005b83811015613d2e578082015181840152602081019050613d13565b50505050905090810190601f168015613d5b5780820380516001836020036101000a031916815260200191505b50945050505050600060405180830381600087803b158015613d7c57600080fd5b505af1158015613d90573d6000803e3d6000fd5b50505050600260009054906101000a900473ffffffffffffffffffffffffffffffffffffffff1673ffffffffffffffffffffffffffffffffffffffff16630214a37c6040518060400160405280600a81526020017f474d5365747465724442000000000000000000000000000000000000000000008152508760405160200180828152602001807f6372656174656454696d65000000000000000000000000000000000000000000815250600b0191505060405160208183030381529060405280519060200120426040518463ffffffff1660e01b81526004018080602001848152602001838152602001828103825285818151815260200191508051906020019080838360005b83811015613eb3578082015181840152602081019050613e98565b50505050905090810190601f168015613ee05780820380516001836020036101000a031916815260200191505b50945050505050600060405180830381600087803b158015613f0157600080fd5b505af1158015613f15573d6000803e3d6000fd5b50505050600260009054906101000a900473ffffffffffffffffffffffffffffffffffffffff1673ffffffffffffffffffffffffffffffffffffffff16630214a37c6040518060400160405280600a81526020017f474d5365747465724442000000000000000000000000000000000000000000008152508760405160200180828152602001807f737461727454696d65000000000000000000000000000000000000000000000081525060090191505060405160208183030381529060405280519060200120896040518463ffffffff1660e01b81526004018080602001848152602001838152602001828103825285818151815260200191508051906020019080838360005b8381101561403857808201518184015260208101905061401d565b50505050905090810190601f1680156140655780820380516001836020036101000a031916815260200191505b50945050505050600060405180830381600087803b15801561408657600080fd5b505af115801561409a573d6000803e3d6000fd5b50505050600260009054906101000a900473ffffffffffffffffffffffffffffffffffffffff1673ffffffffffffffffffffffffffffffffffffffff16630214a37c6040518060400160405280600a81526020017f474d5365747465724442000000000000000000000000000000000000000000008152508760405160200180828152602001807f707265737461727454696d650000000000000000000000000000000000000000815250600c0191505060405160208183030381529060405280519060200120856040518463ffffffff1660e01b81526004018080602001848152602001838152602001828103825285818151815260200191508051906020019080838360005b838110156141bd5780820151818401526020810190506141a2565b50505050905090810190601f1680156141ea5780820380516001836020036101000a031916815260200191505b50945050505050600060405180830381600087803b15801561420b57600080fd5b505af115801561421f573d6000803e3d6000fd5b50505050600260009054906101000a900473ffffffffffffffffffffffffffffffffffffffff1673ffffffffffffffffffffffffffffffffffffffff16630214a37c6040518060400160405280600a81526020017f474d5365747465724442000000000000000000000000000000000000000000008152508760405160200180828152602001807f656e6454696d650000000000000000000000000000000000000000000000000081525060070191505060405160208183030381529060405280519060200120846040518463ffffffff1660e01b81526004018080602001848152602001838152602001828103825285818151815260200191508051906020019080838360005b83811015614342578082015181840152602081019050614327565b50505050905090810190601f16801561436f5780820380516001836020036101000a031916815260200191505b50945050505050600060405180830381600087803b15801561439057600080fd5b505af11580156143a4573d6000803e3d6000fd5b505050506143b185615c78565b5050505095945050505050565b600560009054906101000a900473ffffffffffffffffffffffffffffffffffffffff1681565b6040518060400160405280600b81526020017f47616d654d616e61676572000000000000000000000000000000000000000000815250614423816155fd565b8261442d816145c1565b61443657600080fd5b600260009054906101000a900473ffffffffffffffffffffffffffffffffffffffff1673ffffffffffffffffffffffffffffffffffffffff16630214a37c6040518060400160405280600a81526020017f474d5365747465724442000000000000000000000000000000000000000000008152508660405160200180828152602001807f656e6454696d650000000000000000000000000000000000000000000000000081525060070191505060405160208183030381529060405280519060200120866040518463ffffffff1660e01b81526004018080602001848152602001838152602001828103825285818151815260200191508051906020019080838360005b8381101561455557808201518184015260208101905061453a565b50505050905090810190601f1680156145825780820380516001836020036101000a031916815260200191505b50945050505050600060405180830381600087803b1580156145a357600080fd5b505af11580156145b7573d6000803e3d6000fd5b5050505050505050565b6000600260009054906101000a900473ffffffffffffffffffffffffffffffffffffffff1673ffffffffffffffffffffffffffffffffffffffff166396edc0096040518060400160405280600a81526020017f474d53657474657244420000000000000000000000000000000000000000000081525060405160200180807f47616d655461626c650000000000000000000000000000000000000000000000815250600901905060405160208183030381529060405280519060200120856040518463ffffffff1660e01b81526004018080602001848152602001838152602001828103825285818151815260200191508051906020019080838360005b838110156146da5780820151818401526020810190506146bf565b50505050905090810190601f1680156147075780820380516001836020036101000a031916815260200191505b5094505050505060206040518083038186803b15801561472657600080fd5b505afa15801561473a573d6000803e3d6000fd5b505050506040513d602081101561475057600080fd5b81019080805190602001909291905050509050919050565b600160009054906101000a900473ffffffffffffffffffffffffffffffffffffffff1681565b6040518060400160405280600b81526020017f47616d654d616e616765720000000000000000000000000000000000000000008152506147cd816155fd565b846147d7816145c1565b6147e057600080fd5b600260009054906101000a900473ffffffffffffffffffffffffffffffffffffffff1673ffffffffffffffffffffffffffffffffffffffff1663866d59fe6040518060400160405280600a81526020017f474d5365747465724442000000000000000000000000000000000000000000008152508860405160200180828152602001807f77696e6e6572000000000000000000000000000000000000000000000000000081525060060191505060405160208183030381529060405280519060200120886040518463ffffffff1660e01b815260040180806020018481526020018373ffffffffffffffffffffffffffffffffffffffff1673ffffffffffffffffffffffffffffffffffffffff168152602001828103825285818151815260200191508051906020019080838360005b8381101561492b578082015181840152602081019050614910565b50505050905090810190601f1680156149585780820380516001836020036101000a031916815260200191505b50945050505050600060405180830381600087803b15801561497957600080fd5b505af115801561498d573d6000803e3d6000fd5b50505050600260009054906101000a900473ffffffffffffffffffffffffffffffffffffffff1673ffffffffffffffffffffffffffffffffffffffff1663866d59fe6040518060400160405280600a81526020017f474d5365747465724442000000000000000000000000000000000000000000008152508860405160200180828152602001807f746f70426574746f72000000000000000000000000000000000000000000000081525060090191505060405160208183030381529060405280519060200120876040518463ffffffff1660e01b815260040180806020018481526020018373ffffffffffffffffffffffffffffffffffffffff1673ffffffffffffffffffffffffffffffffffffffff168152602001828103825285818151815260200191508051906020019080838360005b83811015614adc578082015181840152602081019050614ac1565b50505050905090810190601f168015614b095780820380516001836020036101000a031916815260200191505b50945050505050600060405180830381600087803b158015614b2a57600080fd5b505af1158015614b3e573d6000803e3d6000fd5b50505050600260009054906101000a900473ffffffffffffffffffffffffffffffffffffffff1673ffffffffffffffffffffffffffffffffffffffff1663866d59fe6040518060400160405280600a81526020017f474d5365747465724442000000000000000000000000000000000000000000008152508860405160200180828152602001807f7365636f6e64546f70426574746f720000000000000000000000000000000000815250600f0191505060405160208183030381529060405280519060200120866040518463ffffffff1660e01b815260040180806020018481526020018373ffffffffffffffffffffffffffffffffffffffff1673ffffffffffffffffffffffffffffffffffffffff168152602001828103825285818151815260200191508051906020019080838360005b83811015614c8d578082015181840152602081019050614c72565b50505050905090810190601f168015614cba5780820380516001836020036101000a031916815260200191505b50945050505050600060405180830381600087803b158015614cdb57600080fd5b505af1158015614cef573d6000803e3d6000fd5b50505050505050505050565b6000809054906101000a900473ffffffffffffffffffffffffffffffffffffffff1673ffffffffffffffffffffffffffffffffffffffff163373ffffffffffffffffffffffffffffffffffffffff1614614d5157fe5b600073ffffffffffffffffffffffffffffffffffffffff168173ffffffffffffffffffffffffffffffffffffffff1614614dc657806000806101000a81548173ffffffffffffffffffffffffffffffffffffffff021916908373ffffffffffffffffffffffffffffffffffffffff1602179055505b50565b6040518060400160405280600c81526020017f47616d654372656174696f6e0000000000000000000000000000000000000000815250614e08816155fd565b81614e12816145c1565b614e1b57600080fd5b600660009054906101000a900473ffffffffffffffffffffffffffffffffffffffff1673ffffffffffffffffffffffffffffffffffffffff1663a13995408460016040518363ffffffff1660e01b81526004018083815260200182815260200192505050600060405180830381600087803b158015614e9957600080fd5b505af1158015614ead573d6000803e3d6000fd5b50505050600260009054906101000a900473ffffffffffffffffffffffffffffffffffffffff1673ffffffffffffffffffffffffffffffffffffffff16630214a37c6040518060400160405280600a81526020017f474d5365747465724442000000000000000000000000000000000000000000008152508560405160200180828152602001807f73746174650000000000000000000000000000000000000000000000000000008152506005019150506040516020818303038152906040528051906020012060016040518463ffffffff1660e01b81526004018080602001848152602001838152602001828103825285818151815260200191508051906020019080838360005b83811015614fd1578082015181840152602081019050614fb6565b50505050905090810190601f168015614ffe5780820380516001836020036101000a031916815260200191505b50945050505050600060405180830381600087803b15801561501f57600080fd5b505af1158015615033573d6000803e3d6000fd5b50505050505050565b6040518060400160405280600b81526020017f47616d654d616e6167657200000000000000000000000000000000000000000081525061507b816155fd565b82615085816145c1565b61508e57600080fd5b600660009054906101000a900473ffffffffffffffffffffffffffffffffffffffff1673ffffffffffffffffffffffffffffffffffffffff1663a139954085856040518363ffffffff1660e01b81526004018083815260200182815260200192505050600060405180830381600087803b15801561510b57600080fd5b505af115801561511f573d6000803e3d6000fd5b50505050600260009054906101000a900473ffffffffffffffffffffffffffffffffffffffff1673ffffffffffffffffffffffffffffffffffffffff16630214a37c6040518060400160405280600a81526020017f474d5365747465724442000000000000000000000000000000000000000000008152508660405160200180828152602001807f737461746500000000000000000000000000000000000000000000000000000081525060050191505060405160208183030381529060405280519060200120866040518463ffffffff1660e01b81526004018080602001848152602001838152602001828103825285818151815260200191508051906020019080838360005b83811015615242578082015181840152602081019050615227565b50505050905090810190601f16801561526f5780820380516001836020036101000a031916815260200191505b50945050505050600060405180830381600087803b15801561529057600080fd5b505af11580156152a4573d6000803e3d6000fd5b5050505050505050565b6040518060400160405280600c81526020017f47616d654372656174696f6e00000000000000000000000000000000000000008152506152ed816155fd565b600260009054906101000a900473ffffffffffffffffffffffffffffffffffffffff1673ffffffffffffffffffffffffffffffffffffffff16630214a37c6040518060400160405280600a81526020017f474d5365747465724442000000000000000000000000000000000000000000008152508660405160200180828152602001807f706c6179696e6747616d65000000000000000000000000000000000000000000815250600b0191505060405160208183030381529060405280519060200120856040518463ffffffff1660e01b81526004018080602001848152602001838152602001828103825285818151815260200191508051906020019080838360005b8381101561540c5780820151818401526020810190506153f1565b50505050905090810190601f1680156154395780820380516001836020036101000a031916815260200191505b50945050505050600060405180830381600087803b15801561545a57600080fd5b505af115801561546e573d6000803e3d6000fd5b50505050600260009054906101000a900473ffffffffffffffffffffffffffffffffffffffff1673ffffffffffffffffffffffffffffffffffffffff16630214a37c6040518060400160405280600a81526020017f474d5365747465724442000000000000000000000000000000000000000000008152508560405160200180828152602001807f706c6179696e6747616d65000000000000000000000000000000000000000000815250600b0191505060405160208183030381529060405280519060200120856040518463ffffffff1660e01b81526004018080602001848152602001838152602001828103825285818151815260200191508051906020019080838360005b83811015615591578082015181840152602081019050615576565b50505050905090810190601f1680156155be5780820380516001836020036101000a031916815260200191505b50945050505050600060405180830381600087803b1580156155df57600080fd5b505af11580156155f3573d6000803e3d6000fd5b5050505050505050565b600073ffffffffffffffffffffffffffffffffffffffff16600160009054906101000a900473ffffffffffffffffffffffffffffffffffffffff1673ffffffffffffffffffffffffffffffffffffffff1614156156c2576040517f08c379a00000000000000000000000000000000000000000000000000000000081526004018080602001828103825260088152602001807f4e6f2050726f787900000000000000000000000000000000000000000000000081525060200191505060405180910390fd5b6000600160009054906101000a900473ffffffffffffffffffffffffffffffffffffffff1673ffffffffffffffffffffffffffffffffffffffff166335817773836040518263ffffffff1660e01b81526004018080602001828103825283818151815260200191508051906020019080838360005b83811015615752578082015181840152602081019050615737565b50505050905090810190601f16801561577f5780820380516001836020036101000a031916815260200191505b509250505060206040518083038186803b15801561579c57600080fd5b505afa1580156157b0573d6000803e3d6000fd5b505050506040513d60208110156157c657600080fd5b81019080805190602001909291905050509050600073ffffffffffffffffffffffffffffffffffffffff168173ffffffffffffffffffffffffffffffffffffffff16141561581057fe5b8073ffffffffffffffffffffffffffffffffffffffff163373ffffffffffffffffffffffffffffffffffffffff1614615894576040517f08c379a000000000000000000000000000000000000000000000000000000000815260040180806020018281038252602d815260200180615eac602d913960400191505060405180910390fd5b5050565b6000808284019050838110156158aa57fe5b8091505092915050565b6000600260009054906101000a900473ffffffffffffffffffffffffffffffffffffffff1673ffffffffffffffffffffffffffffffffffffffff166308acb5566040518060400160405280600a81526020017f474d5365747465724442000000000000000000000000000000000000000000008152508585604051602001808381526020018273ffffffffffffffffffffffffffffffffffffffff1673ffffffffffffffffffffffffffffffffffffffff1660601b8152601401807f737570706f727465727300000000000000000000000000000000000000000000815250600a0192505050604051602081830303815290604052805190602001206040518363ffffffff1660e01b81526004018080602001838152602001828103825284818151815260200191508051906020019080838360005b83811015615a055780820151818401526020810190506159ea565b50505050905090810190601f168015615a325780820380516001836020036101000a031916815260200191505b50935050505060206040518083038186803b158015615a5057600080fd5b505afa158015615a64573d6000803e3d6000fd5b505050506040513d6020811015615a7a57600080fd5b81019080805190602001909291905050509050600260009054906101000a900473ffffffffffffffffffffffffffffffffffffffff1673ffffffffffffffffffffffffffffffffffffffff16630214a37c6040518060400160405280600a81526020017f474d5365747465724442000000000000000000000000000000000000000000008152508585604051602001808381526020018273ffffffffffffffffffffffffffffffffffffffff1673ffffffffffffffffffffffffffffffffffffffff1660601b8152601401807f737570706f727465727300000000000000000000000000000000000000000000815250600a019250505060405160208183030381529060405280519060200120615b9b60018661589890919063ffffffff16565b6040518463ffffffff1660e01b81526004018080602001848152602001838152602001828103825285818151815260200191508051906020019080838360005b83811015615bf6578082015181840152602081019050615bdb565b50505050905090810190601f168015615c235780820380516001836020036101000a031916815260200191505b50945050505050600060405180830381600087803b158015615c4457600080fd5b505af1158015615c58573d6000803e3d6000fd5b50505050505050565b600082821115615c6d57fe5b818303905092915050565b80615c82816145c1565b615c8b57600080fd5b600660009054906101000a900473ffffffffffffffffffffffffffffffffffffffff1673ffffffffffffffffffffffffffffffffffffffff1663a13995408360006040518363ffffffff1660e01b81526004018083815260200182815260200192505050600060405180830381600087803b158015615d0957600080fd5b505af1158015615d1d573d6000803e3d6000fd5b50505050600260009054906101000a900473ffffffffffffffffffffffffffffffffffffffff1673ffffffffffffffffffffffffffffffffffffffff16630214a37c6040518060400160405280600a81526020017f474d5365747465724442000000000000000000000000000000000000000000008152508460405160200180828152602001807f73746174650000000000000000000000000000000000000000000000000000008152506005019150506040516020818303038152906040528051906020012060006040518463ffffffff1660e01b81526004018080602001848152602001838152602001828103825285818151815260200191508051906020019080838360005b83811015615e41578082015181840152602081019050615e26565b50505050905090810190601f168015615e6e5780820380516001836020036101000a031916815260200191505b50945050505050600060405180830381600087803b158015615e8f57600080fd5b505af1158015615ea3573d6000803e3d6000fd5b50505050505056fe416363657373206973206f6e6c7920616c6c6f7765642066726f6d20737065636966696320636f6e7472616374a265627a7a723158205c56f4ede7454a9c807f840a0b708541e235a50fd97454e5432941e771e96d1164736f6c63430005110032",
  "source": "// This program is free software: you can redistribute it and/or modify\n// it under the terms of the GNU General Public License as published by\n// the Free Software Foundation, either version 3 of the License, or\n// (at your option) any later version.\n\n// This program is distributed in the hope that it will be useful,\n// but WITHOUT ANY WARRANTY; without even the implied warranty of\n// MERCHANTABILITY or FITNESS FOR A PARTICULAR PURPOSE.  See the\n// GNU General Public License for more details.\n\n// You should have received a copy of the GNU General Public License\n// along with this program.  If not, see <http://www.gnu.org/licenses/>.\n\npragma solidity ^0.5.5;\n\nimport \"../proxy/Proxied.sol\";\nimport \"./GenericDB.sol\";\nimport \"./GMGetterDB.sol\";\nimport \"../../libs/SafeMath.sol\";\nimport \"../../GameVarAndFee.sol\";\nimport \"../gamemanager/GameStore.sol\";\nimport \"../kittieHELL/KittieHell.sol\";\nimport \"../gamemanager/Forfeiter.sol\";\nimport \"../gamemanager/GameManager.sol\";\nimport \"../gamemanager/GameCreation.sol\";\n\n/**\n * @dev Stores game instances\n * @author @psychoplasma\n * @author @psychoplasma\n * @author @psychoplasma\n */\ncontract GMSetterDB is Proxied {\n using SafeMath for uint256;\n\n  GenericDB public genericDB;\n  GameVarAndFee public gameVarAndFee;\n  GMGetterDB public gmGetterDB;\n  GameStore public gameStore;\n  GameCreation public gameCreation;\n\n  bytes32 internal constant TABLE_KEY_GAME= keccak256(abi.encodePacked(\"GameTable\"));\n  string internal constant TABLE_NAME_BETTOR = \"BettorTable\";\n\n  modifier onlyExistentGame(uint256 gameId) {\n    require(doesGameExist(gameId));\n    _;\n  }\n  \n  constructor(GenericDB _genericDB) public {\n    setGenericDB(_genericDB);\n  }\n\n  function setGenericDB(GenericDB _genericDB) public onlyOwner {\n    genericDB = _genericDB;\n  }\n\n  function initialize() external onlyOwner {\n    gameVarAndFee = GameVarAndFee(proxy.getContract(CONTRACT_NAME_GAMEVARANDFEE));\n    gmGetterDB = GMGetterDB(proxy.getContract(CONTRACT_NAME_GM_GETTER_DB));\n    gameStore = GameStore(proxy.getContract(CONTRACT_NAME_GAMESTORE));\n    gameCreation = GameCreation(proxy.getContract(CONTRACT_NAME_GAMECREATION));\n  }\n\n /**\n   * @dev Creates a new game item on game table\n   */\n  function createGame\n  (\n    address playerRed, address playerBlack,\n    uint256 kittyRed, uint256 kittyBlack,\n    uint256 gameStartTime\n  )\n    external\n    onlyContract(CONTRACT_NAME_GAMECREATION)\n    returns (uint256 gameId)\n  {\n    // Get the lastest item in the linkedlist.\n    // Note that 0 means the HEAD of the list always and \n    // direction(true) indicates that we are going to the end of the list.\n    (,uint256 prevGameId) = genericDB.getAdjacent(CONTRACT_NAME_GM_SETTER_DB, TABLE_KEY_GAME, 0, true);\n    // And create new item with an incremental id.\n    // Note that we don't need to check any existance here, because\n    // exsistance of the previous item in the list already self-verifies.\n    gameId = prevGameId.add(1);\n    genericDB.pushNodeToLinkedList(CONTRACT_NAME_GM_SETTER_DB, TABLE_KEY_GAME, gameId);\n\n    uint256 gamePrestartTime = gameStartTime.sub(gameVarAndFee.getGamePrestart());\n    uint256 gameEndTime = gameStartTime.add(gameVarAndFee.getGameDuration());\n\n    // Save players for the created game\n    genericDB.setAddressStorage(CONTRACT_NAME_GM_SETTER_DB, keccak256(abi.encodePacked(gameId, \"playerRed\")), playerRed);\n    genericDB.setAddressStorage(CONTRACT_NAME_GM_SETTER_DB, keccak256(abi.encodePacked(gameId, \"playerBlack\")), playerBlack);\n\n    // Set kitties for the given players\n    genericDB.setUintStorage(CONTRACT_NAME_GM_SETTER_DB, keccak256(abi.encodePacked(gameId, playerRed, \"kitty\")), kittyRed);\n    genericDB.setUintStorage(CONTRACT_NAME_GM_SETTER_DB, keccak256(abi.encodePacked(gameId, playerBlack, \"kitty\")), kittyBlack);\n\n    // solium-disable-next-line security/no-block-members\n    genericDB.setUintStorage(CONTRACT_NAME_GM_SETTER_DB, keccak256(abi.encodePacked(gameId, \"createdTime\")), now);\n    genericDB.setUintStorage(CONTRACT_NAME_GM_SETTER_DB, keccak256(abi.encodePacked(gameId, \"startTime\")), gameStartTime);\n    genericDB.setUintStorage(CONTRACT_NAME_GM_SETTER_DB, keccak256(abi.encodePacked(gameId, \"prestartTime\")), gamePrestartTime);\n    genericDB.setUintStorage(CONTRACT_NAME_GM_SETTER_DB, keccak256(abi.encodePacked(gameId, \"endTime\")), gameEndTime);\n\n    setGameState(gameId);\n  }\n\n  /**\n   * @dev Adds a bettor to the given game iff the game exists.\n   * If the bettor already exists in the game, updates her bet.\n   */\n  function addBettor(uint256 gameId, address bettor, address supportedPlayer)\n    external\n    onlyContract(CONTRACT_NAME_GAMEMANAGER)\n    onlyExistentGame(gameId)\n    returns(bool)\n  {\n    // If bettor does not exist in the game given, add bettor to the game.\n    if (!genericDB.doesNodeAddrExist(CONTRACT_NAME_GM_SETTER_DB, keccak256(abi.encodePacked(gameId, TABLE_NAME_BETTOR)), bettor)) {\n      // Add the bettor to the bettor table.\n      genericDB.pushNodeToLinkedListAddr(CONTRACT_NAME_GM_SETTER_DB, keccak256(abi.encodePacked(gameId, TABLE_NAME_BETTOR)), bettor);\n      // Save the supported player for this bettor\n      genericDB.setAddressStorage(\n        CONTRACT_NAME_GM_SETTER_DB,\n        keccak256(abi.encodePacked(gameId, bettor, \"supportedPlayer\")),\n        supportedPlayer\n      );\n\n      //Set payed fee to true\n      genericDB.setBoolStorage(CONTRACT_NAME_GM_SETTER_DB, keccak256(abi.encodePacked(gameId, bettor, \"ticketFeePaid\")), true);\n      // And increase the number of supporters for that player\n      incrementSupporters(gameId, supportedPlayer);\n      return true;\n    }\n    return false;\n  }\n\n  /**\n   * @dev Increments the number of supporters for the given player\n   */\n  function incrementSupporters(uint256 gameId, address player) internal {\n    // Increment number of supporters by one\n    uint256 supporters = genericDB.getUintStorage(\n      CONTRACT_NAME_GM_SETTER_DB,\n      keccak256(abi.encodePacked(gameId, player, \"supporters\"))\n    );\n    genericDB.setUintStorage(\n      CONTRACT_NAME_GM_SETTER_DB,\n      keccak256(abi.encodePacked(gameId, player, \"supporters\")),\n      supporters.add(1)\n    );\n  }\n\n  /**\n   * @dev *\n   */\n  function updateBettor(uint256 gameId, address bettor, uint256 betAmount, address supportedPlayer)\n    external\n    onlyContract(CONTRACT_NAME_GAMEMANAGER)\n    onlyExistentGame(gameId)\n  {\n    uint256 prevAmount;\n\n    if(bettor != supportedPlayer){\n      // Check if bettor does not exist in the game given, add her to the game.\n      require(genericDB.doesNodeAddrExist(CONTRACT_NAME_GM_SETTER_DB,\n        keccak256(abi.encodePacked(gameId, TABLE_NAME_BETTOR)), bettor));\n        \n      // Get the supported player for this bettor\n      address _supportedPlayer = genericDB.getAddressStorage(\n        CONTRACT_NAME_GM_SETTER_DB,\n        keccak256(abi.encodePacked(gameId, bettor, \"supportedPlayer\"))\n      );\n\n      require(_supportedPlayer == supportedPlayer);\n\n      // Update bettor's total bet amount\n      prevAmount = genericDB.getUintStorage(\n        CONTRACT_NAME_GM_SETTER_DB,\n        keccak256(abi.encodePacked(gameId, bettor, \"betAmount\"))\n      );\n      genericDB.setUintStorage(\n        CONTRACT_NAME_GM_SETTER_DB,\n        keccak256(abi.encodePacked(gameId, bettor, \"betAmount\")),\n        prevAmount.add(betAmount)\n      );\n    }\n    else{\n      prevAmount = genericDB.getUintStorage(\n        CONTRACT_NAME_GM_SETTER_DB,\n        keccak256(abi.encodePacked(gameId, bettor, \"betAmount\"))\n      );\n\n      genericDB.setUintStorage(\n        CONTRACT_NAME_GM_SETTER_DB,\n        keccak256(abi.encodePacked(gameId, bettor, \"betAmount\")),\n        prevAmount.add(betAmount)\n      );\n    }\n\n    // Update total bet amount in the game for a given corner\n    // updateTotalBet(gameId, betAmount, supportedPlayer);\n    prevAmount = genericDB.getUintStorage(\n      CONTRACT_NAME_GM_SETTER_DB,\n      keccak256(abi.encodePacked(gameId, supportedPlayer, \"totalBetAmount\"))\n    );\n\n    genericDB.setUintStorage(\n      CONTRACT_NAME_GM_SETTER_DB,\n      keccak256(abi.encodePacked(gameId, supportedPlayer, \"totalBetAmount\")),\n      prevAmount.add(betAmount)\n    );\n  }\n\n  /**\n   * @dev Adds 1 minute to the game end time\n   */\n  function updateEndTime(uint256 gameId, uint newTime)\n    external\n    onlyContract(CONTRACT_NAME_GAMEMANAGER)\n    onlyExistentGame(gameId)\n  {\n    genericDB.setUintStorage(CONTRACT_NAME_GM_SETTER_DB, keccak256(abi.encodePacked(gameId, \"endTime\")), newTime);\n  }\n\n  /**\n   * @dev Update game to one of 5 states\n   */\n  function updateGameState(uint256 gameId, uint256 state)\n    external\n    onlyContract(CONTRACT_NAME_GAMEMANAGER)\n    onlyExistentGame(gameId)\n  {\n    gameCreation.scheduleJobs(gameId, state);\n    genericDB.setUintStorage(CONTRACT_NAME_GM_SETTER_DB, keccak256(abi.encodePacked(gameId, \"state\")), state);\n  }\n\n  // ==== CRONJOBS FUNCTIONS\n  function updateGameStateCron(uint256 gameId)\n    external\n    onlyContract(CONTRACT_NAME_GAMECREATION)\n    onlyExistentGame(gameId){\n      gameCreation.scheduleJobs(gameId, 1);\n      genericDB.setUintStorage(CONTRACT_NAME_GM_SETTER_DB, keccak256(abi.encodePacked(gameId, \"state\")), 1);\n  }\n\n  function setGameState(uint256 gameId)\n    internal\n    onlyExistentGame(gameId){\n      gameCreation.scheduleJobs(gameId, 0);\n      genericDB.setUintStorage(CONTRACT_NAME_GM_SETTER_DB, keccak256(abi.encodePacked(gameId, \"state\")), 0);\n  }\n\n  /**\n   * @dev Update kittie playing game Id\n   */\n  function updateKittiesGame(uint kittyBlack, uint kittyRed, uint gameId)\n    external\n    onlyContract(CONTRACT_NAME_GAMECREATION)\n  {\n    genericDB.setUintStorage(CONTRACT_NAME_GM_SETTER_DB, keccak256(abi.encodePacked(kittyBlack, \"playingGame\")), gameId);\n    genericDB.setUintStorage(CONTRACT_NAME_GM_SETTER_DB, keccak256(abi.encodePacked(kittyRed, \"playingGame\")), gameId);\n  }\n\n  /**\n   * @dev set initial ETH in jackpot created by Endowment\n   */\n  function setHoneypotInfo(uint256 gameId)\n    external\n    onlyContract(CONTRACT_NAME_GAMECREATION)\n    onlyExistentGame(gameId)\n  {\n    genericDB.setUintStorage(CONTRACT_NAME_GM_SETTER_DB, keccak256(abi.encodePacked(gameId, \"initialEth\")), gameVarAndFee.getEthPerGame());\n    genericDB.setUintStorage(CONTRACT_NAME_GM_SETTER_DB, keccak256(abi.encodePacked(gameId, \"initialKty\")), gameVarAndFee.getTokensPerGame());\n  }\n\n  function storeHoneypotDetails(uint256 gameId)\n    external\n    onlyContract(CONTRACT_NAME_GAMEMANAGER)\n    onlyExistentGame(gameId)\n  {\n    (,,,uint totalEth,,uint totalKty,) = gmGetterDB.getHoneypotInfo(gameId);\n    genericDB.setUintStorage(CONTRACT_NAME_GM_SETTER_DB, keccak256(abi.encodePacked(gameId, \"totalEth\")), totalEth);\n    genericDB.setUintStorage(CONTRACT_NAME_GM_SETTER_DB, keccak256(abi.encodePacked(gameId, \"totalKty\")), totalKty);\n  }\n\n  function doesGameExist(uint256 gameId) public view returns (bool) {\n    return genericDB.doesNodeExist(CONTRACT_NAME_GM_SETTER_DB, TABLE_KEY_GAME, gameId);\n  }\n\n  /**\n   * @dev set winner for each game\n   */\n  function setWinners(uint256 gameId, address winner, address topBettor, address secondTopBettor)\n    external\n    onlyContract(CONTRACT_NAME_GAMEMANAGER)\n    onlyExistentGame(gameId)\n  {\n    genericDB.setAddressStorage(CONTRACT_NAME_GM_SETTER_DB, keccak256(abi.encodePacked(gameId, \"winner\")), winner);\n    genericDB.setAddressStorage(CONTRACT_NAME_GM_SETTER_DB, keccak256(abi.encodePacked(gameId, \"topBettor\")), topBettor);\n    genericDB.setAddressStorage(CONTRACT_NAME_GM_SETTER_DB, keccak256(abi.encodePacked(gameId, \"secondTopBettor\")), secondTopBettor);\n  }\n\n  // function updateTopbettors(uint256 _gameId, address _account, address _supportedPlayer)\n  //   external\n  //   onlyContract(CONTRACT_NAME_GAMEMANAGER)\n  //   onlyExistentGame(_gameId)\n  // {\n\n  //   address topBettor = gameStore.getTopBettor(_gameId, _supportedPlayer);\n  //   (uint256 bettorTotal,,,) = gmGetterDB.getSupporterInfo(_gameId, _account);\n  //   (uint256 topBettorEth,,,) = gmGetterDB.getSupporterInfo(_gameId, topBettor);\n    \n  //   if(topBettor != _account){\n  //     if (bettorTotal > topBettorEth){\n  //       //If topBettor is already the account, dont update\n  //       gameStore.updateTopBettor(_gameId, _supportedPlayer, _account);\n  //       gameStore.updateSecondTopBettor(_gameId, _supportedPlayer, topBettor);\n  //     }\n  //     else {\n  //       address secondTopBettor = gameStore.getSecondTopBettor(_gameId, _supportedPlayer);\n  //       (uint256 secondTopBettorEth,,,) = gmGetterDB.getSupporterInfo(_gameId, secondTopBettor);\n  //       if (bettorTotal > secondTopBettorEth && secondTopBettor != _account){\n  //           gameStore.updateSecondTopBettor(_gameId, _supportedPlayer, _account);\n  //       }\n  //     }\n  //   }\n  // }\n}\n",
  "sourcePath": "/Users/ziweizhang/Desktop/staking/alpha/contracts/modules/databases/GMSetterDB.sol",
  "compiler": {
    "name": "solc",
    "version": "0.5.17+commit.d19bba13.Emscripten.clang"
  },
  "schemaVersion": "3.0.23",
  "updatedAt": "2020-03-28T15:04:53.513Z",
  "networkType": "ethereum",
  "devdoc": {
    "author": "@psychoplasma@psychoplasma@psychoplasma",
    "details": "Stores game instances",
    "methods": {
      "addBettor(uint256,address,address)": {
        "details": "Adds a bettor to the given game iff the game exists. If the bettor already exists in the game, updates her bet."
      },
      "createGame(address,address,uint256,uint256,uint256)": {
        "details": "Creates a new game item on game table"
      },
      "setHoneypotInfo(uint256)": {
        "details": "set initial ETH in jackpot created by Endowment"
      },
      "setWinners(uint256,address,address,address)": {
        "details": "set winner for each game"
      },
      "updateBettor(uint256,address,uint256,address)": {
        "details": "*"
      },
      "updateEndTime(uint256,uint256)": {
        "details": "Adds 1 minute to the game end time"
      },
      "updateGameState(uint256,uint256)": {
        "details": "Update game to one of 5 states"
      },
      "updateKittiesGame(uint256,uint256,uint256)": {
        "details": "Update kittie playing game Id"
      }
    }
  },
  "userdoc": {
    "methods": {
      "setProxy(address)": {
        "notice": "Set/update address of Proxy contract"
      }
    }
  }
}