{
  "contractName": "GMSetterDB",
  "abi": [
    {
      "inputs": [
        {
          "internalType": "contract GenericDB",
          "name": "_genericDB",
          "type": "address"
        }
      ],
      "payable": false,
      "stateMutability": "nonpayable",
      "type": "constructor"
    },
    {
      "constant": true,
      "inputs": [],
      "name": "gameCreation",
      "outputs": [
        {
          "internalType": "contract GameCreation",
          "name": "",
          "type": "address"
        }
      ],
      "payable": false,
      "stateMutability": "view",
      "type": "function"
    },
    {
      "constant": true,
      "inputs": [],
      "name": "gameStore",
      "outputs": [
        {
          "internalType": "contract GameStore",
          "name": "",
          "type": "address"
        }
      ],
      "payable": false,
      "stateMutability": "view",
      "type": "function"
    },
    {
      "constant": true,
      "inputs": [],
      "name": "gameVarAndFee",
      "outputs": [
        {
          "internalType": "contract GameVarAndFee",
          "name": "",
          "type": "address"
        }
      ],
      "payable": false,
      "stateMutability": "view",
      "type": "function"
    },
    {
      "constant": true,
      "inputs": [],
      "name": "genericDB",
      "outputs": [
        {
          "internalType": "contract GenericDB",
          "name": "",
          "type": "address"
        }
      ],
      "payable": false,
      "stateMutability": "view",
      "type": "function"
    },
    {
      "constant": true,
      "inputs": [],
      "name": "gmGetterDB",
      "outputs": [
        {
          "internalType": "contract GMGetterDB",
          "name": "",
          "type": "address"
        }
      ],
      "payable": false,
      "stateMutability": "view",
      "type": "function"
    },
    {
      "constant": true,
      "inputs": [],
      "name": "owner",
      "outputs": [
        {
          "internalType": "address payable",
          "name": "",
          "type": "address"
        }
      ],
      "payable": false,
      "stateMutability": "view",
      "type": "function"
    },
    {
      "constant": true,
      "inputs": [],
      "name": "proxy",
      "outputs": [
        {
          "internalType": "contract ProxyBase",
          "name": "",
          "type": "address"
        }
      ],
      "payable": false,
      "stateMutability": "view",
      "type": "function"
    },
    {
      "constant": false,
      "inputs": [
        {
          "internalType": "contract ProxyBase",
          "name": "_proxy",
          "type": "address"
        }
      ],
      "name": "setProxy",
      "outputs": [],
      "payable": false,
      "stateMutability": "nonpayable",
      "type": "function"
    },
    {
      "constant": false,
      "inputs": [
        {
          "internalType": "address payable",
          "name": "newOwner",
          "type": "address"
        }
      ],
      "name": "transferOwnership",
      "outputs": [],
      "payable": false,
      "stateMutability": "nonpayable",
      "type": "function"
    },
    {
      "constant": false,
      "inputs": [
        {
          "internalType": "contract GenericDB",
          "name": "_genericDB",
          "type": "address"
        }
      ],
      "name": "setGenericDB",
      "outputs": [],
      "payable": false,
      "stateMutability": "nonpayable",
      "type": "function"
    },
    {
      "constant": false,
      "inputs": [],
      "name": "initialize",
      "outputs": [],
      "payable": false,
      "stateMutability": "nonpayable",
      "type": "function"
    },
    {
      "constant": false,
      "inputs": [
        {
          "internalType": "address",
          "name": "playerRed",
          "type": "address"
        },
        {
          "internalType": "address",
          "name": "playerBlack",
          "type": "address"
        },
        {
          "internalType": "uint256",
          "name": "kittyRed",
          "type": "uint256"
        },
        {
          "internalType": "uint256",
          "name": "kittyBlack",
          "type": "uint256"
        },
        {
          "internalType": "uint256",
          "name": "gameStartTime",
          "type": "uint256"
        }
      ],
      "name": "createGame",
      "outputs": [
        {
          "internalType": "uint256",
          "name": "gameId",
          "type": "uint256"
        }
      ],
      "payable": false,
      "stateMutability": "nonpayable",
      "type": "function"
    },
    {
      "constant": false,
      "inputs": [
        {
          "internalType": "uint256",
          "name": "gameId",
          "type": "uint256"
        },
        {
          "internalType": "address",
          "name": "bettor",
          "type": "address"
        },
        {
          "internalType": "address",
          "name": "supportedPlayer",
          "type": "address"
        }
      ],
      "name": "addBettor",
      "outputs": [
        {
          "internalType": "bool",
          "name": "",
          "type": "bool"
        }
      ],
      "payable": false,
      "stateMutability": "nonpayable",
      "type": "function"
    },
    {
      "constant": false,
      "inputs": [
        {
          "internalType": "uint256",
          "name": "gameId",
          "type": "uint256"
        },
        {
          "internalType": "address",
          "name": "bettor",
          "type": "address"
        },
        {
          "internalType": "uint256",
          "name": "betAmount",
          "type": "uint256"
        },
        {
          "internalType": "address",
          "name": "supportedPlayer",
          "type": "address"
        }
      ],
      "name": "updateBettor",
      "outputs": [],
      "payable": false,
      "stateMutability": "nonpayable",
      "type": "function"
    },
    {
      "constant": false,
      "inputs": [
        {
          "internalType": "uint256",
          "name": "gameId",
          "type": "uint256"
        },
        {
          "internalType": "uint256",
          "name": "newTime",
          "type": "uint256"
        }
      ],
      "name": "updateEndTime",
      "outputs": [],
      "payable": false,
      "stateMutability": "nonpayable",
      "type": "function"
    },
    {
      "constant": false,
      "inputs": [
        {
          "internalType": "uint256",
          "name": "gameId",
          "type": "uint256"
        },
        {
          "internalType": "uint256",
          "name": "state",
          "type": "uint256"
        }
      ],
      "name": "updateGameState",
      "outputs": [],
      "payable": false,
      "stateMutability": "nonpayable",
      "type": "function"
    },
    {
      "constant": false,
      "inputs": [
        {
          "internalType": "uint256",
          "name": "gameId",
          "type": "uint256"
        }
      ],
      "name": "updateGameStateCron",
      "outputs": [],
      "payable": false,
      "stateMutability": "nonpayable",
      "type": "function"
    },
    {
      "constant": false,
      "inputs": [
        {
          "internalType": "uint256",
          "name": "kittyBlack",
          "type": "uint256"
        },
        {
          "internalType": "uint256",
          "name": "kittyRed",
          "type": "uint256"
        },
        {
          "internalType": "uint256",
          "name": "gameId",
          "type": "uint256"
        }
      ],
      "name": "updateKittiesGame",
      "outputs": [],
      "payable": false,
      "stateMutability": "nonpayable",
      "type": "function"
    },
    {
      "constant": false,
      "inputs": [
        {
          "internalType": "uint256",
          "name": "gameId",
          "type": "uint256"
        },
        {
          "internalType": "uint256",
          "name": "_initialKTY",
          "type": "uint256"
        },
        {
          "internalType": "uint256",
          "name": "_initialETH",
          "type": "uint256"
        }
      ],
      "name": "setHoneypotInfo",
      "outputs": [],
      "payable": false,
      "stateMutability": "nonpayable",
      "type": "function"
    },
    {
      "constant": false,
      "inputs": [
        {
          "internalType": "uint256",
          "name": "gameId",
          "type": "uint256"
        }
      ],
      "name": "storeHoneypotDetails",
      "outputs": [],
      "payable": false,
      "stateMutability": "nonpayable",
      "type": "function"
    },
    {
      "constant": true,
      "inputs": [
        {
          "internalType": "uint256",
          "name": "gameId",
          "type": "uint256"
        }
      ],
      "name": "doesGameExist",
      "outputs": [
        {
          "internalType": "bool",
          "name": "",
          "type": "bool"
        }
      ],
      "payable": false,
      "stateMutability": "view",
      "type": "function"
    },
    {
      "constant": false,
      "inputs": [
        {
          "internalType": "uint256",
          "name": "gameId",
          "type": "uint256"
        },
        {
          "internalType": "address",
          "name": "winner",
          "type": "address"
        },
        {
          "internalType": "address",
          "name": "topBettor",
          "type": "address"
        },
        {
          "internalType": "address",
          "name": "secondTopBettor",
          "type": "address"
        }
      ],
      "name": "setWinners",
      "outputs": [],
      "payable": false,
      "stateMutability": "nonpayable",
      "type": "function"
    }
  ],
  "bytecode": "0x60806040523480156200001157600080fd5b506040516200622c3803806200622c833981810160405260208110156200003757600080fd5b8101908080519060200190929190505050336000806101000a81548173ffffffffffffffffffffffffffffffffffffffff021916908373ffffffffffffffffffffffffffffffffffffffff1602179055506200009981620000a060201b60201c565b506200013b565b6000809054906101000a900473ffffffffffffffffffffffffffffffffffffffff1673ffffffffffffffffffffffffffffffffffffffff163373ffffffffffffffffffffffffffffffffffffffff1614620000f757fe5b80600260006101000a81548173ffffffffffffffffffffffffffffffffffffffff021916908373ffffffffffffffffffffffffffffffffffffffff16021790555050565b6160e1806200014b6000396000f3fe608060405234801561001057600080fd5b50600436106101425760003560e01c8063a4a0aa55116100b8578063ec5568891161007c578063ec55688914610617578063f1c9d63a14610661578063f2fde38b146106ef578063f4dc834a14610733578063f5de839714610761578063fd3d1c241461079957610142565b8063a4a0aa5514610477578063b1be64691461050d578063b2b0eb4514610557578063e44542df14610599578063e6a3d31e146105d157610142565b80634afab8151161010a5780634afab815146103235780638129fc1c146103675780638da5cb5b1461037157806397107d6d146103bb5780639ecd537a146103ff578063a3b3bd7b1461042d57610142565b8063026ab2c51461014757806315a194ec146101bf5780631fc75180146102095780633564e78c14610253578063409299801461029d575b600080fd5b6101bd6004803603608081101561015d57600080fd5b8101908080359060200190929190803573ffffffffffffffffffffffffffffffffffffffff16906020019092919080359060200190929190803573ffffffffffffffffffffffffffffffffffffffff1690602001909291905050506107db565b005b6101c7611802565b604051808273ffffffffffffffffffffffffffffffffffffffff1673ffffffffffffffffffffffffffffffffffffffff16815260200191505060405180910390f35b610211611828565b604051808273ffffffffffffffffffffffffffffffffffffffff1673ffffffffffffffffffffffffffffffffffffffff16815260200191505060405180910390f35b61025b61184e565b604051808273ffffffffffffffffffffffffffffffffffffffff1673ffffffffffffffffffffffffffffffffffffffff16815260200191505060405180910390f35b610309600480360360608110156102b357600080fd5b8101908080359060200190929190803573ffffffffffffffffffffffffffffffffffffffff169060200190929190803573ffffffffffffffffffffffffffffffffffffffff169060200190929190505050611874565b604051808215151515815260200191505060405180910390f35b6103656004803603602081101561033957600080fd5b81019080803573ffffffffffffffffffffffffffffffffffffffff169060200190929190505050612152565b005b61036f6121ec565b005b610379612864565b604051808273ffffffffffffffffffffffffffffffffffffffff1673ffffffffffffffffffffffffffffffffffffffff16815260200191505060405180910390f35b6103fd600480360360208110156103d157600080fd5b81019080803573ffffffffffffffffffffffffffffffffffffffff169060200190929190505050612889565b005b61042b6004803603602081101561041557600080fd5b8101908080359060200190929190505050612923565b005b610435612dde565b604051808273ffffffffffffffffffffffffffffffffffffffff1673ffffffffffffffffffffffffffffffffffffffff16815260200191505060405180910390f35b6104f7600480360360a081101561048d57600080fd5b81019080803573ffffffffffffffffffffffffffffffffffffffff169060200190929190803573ffffffffffffffffffffffffffffffffffffffff169060200190929190803590602001909291908035906020019092919080359060200190929190505050612e04565b6040518082815260200191505060405180910390f35b610515614081565b604051808273ffffffffffffffffffffffffffffffffffffffff1673ffffffffffffffffffffffffffffffffffffffff16815260200191505060405180910390f35b6105976004803603606081101561056d57600080fd5b810190808035906020019092919080359060200190929190803590602001909291905050506140a7565b005b6105cf600480360360408110156105af57600080fd5b81019080803590602001909291908035906020019092919050505061445f565b005b6105fd600480360360208110156105e757600080fd5b8101908080359060200190929190505050614691565b604051808215151515815260200191505060405180910390f35b61061f614838565b604051808273ffffffffffffffffffffffffffffffffffffffff1673ffffffffffffffffffffffffffffffffffffffff16815260200191505060405180910390f35b6106ed6004803603608081101561067757600080fd5b8101908080359060200190929190803573ffffffffffffffffffffffffffffffffffffffff169060200190929190803573ffffffffffffffffffffffffffffffffffffffff169060200190929190803573ffffffffffffffffffffffffffffffffffffffff16906020019092919050505061485e565b005b6107316004803603602081101561070557600080fd5b81019080803573ffffffffffffffffffffffffffffffffffffffff169060200190929190505050614e20565b005b61075f6004803603602081101561074957600080fd5b8101908080359060200190929190505050614eee565b005b6107976004803603604081101561077757600080fd5b8101908080359060200190929190803590602001909291905050506151b6565b005b6107d9600480360360608110156107af57600080fd5b8101908080359060200190929190803590602001909291908035906020019092919050505061547d565b005b6040518060400160405280600b81526020017f47616d654d616e6167657200000000000000000000000000000000000000000081525061081a81615821565b61086f576040517f08c379a000000000000000000000000000000000000000000000000000000000815260040180806020018281038252602d815260200180616080602d913960400191505060405180910390fd5b8461087981614691565b61088257600080fd5b60008373ffffffffffffffffffffffffffffffffffffffff168673ffffffffffffffffffffffffffffffffffffffff16146110ae57600260009054906101000a900473ffffffffffffffffffffffffffffffffffffffff1673ffffffffffffffffffffffffffffffffffffffff16638445d70f6040518060400160405280600a81526020017f474d536574746572444200000000000000000000000000000000000000000000815250896040518060400160405280600b81526020017f426574746f725461626c650000000000000000000000000000000000000000008152506040516020018083815260200182805190602001908083835b6020831061099e578051825260208201915060208101905060208303925061097b565b6001836020036101000a0380198251168184511680821785525050505050509050019250505060405160208183030381529060405280519060200120896040518463ffffffff1660e01b815260040180806020018481526020018373ffffffffffffffffffffffffffffffffffffffff1673ffffffffffffffffffffffffffffffffffffffff168152602001828103825285818151815260200191508051906020019080838360005b83811015610a62578082015181840152602081019050610a47565b50505050905090810190601f168015610a8f5780820380516001836020036101000a031916815260200191505b5094505050505060206040518083038186803b158015610aae57600080fd5b505afa158015610ac2573d6000803e3d6000fd5b505050506040513d6020811015610ad857600080fd5b8101908080519060200190929190505050610af257600080fd5b6000600260009054906101000a900473ffffffffffffffffffffffffffffffffffffffff1673ffffffffffffffffffffffffffffffffffffffff1663b93a5b5e6040518060400160405280600a81526020017f474d5365747465724442000000000000000000000000000000000000000000008152508a8a604051602001808381526020018273ffffffffffffffffffffffffffffffffffffffff1673ffffffffffffffffffffffffffffffffffffffff1660601b8152601401807f737570706f72746564506c617965720000000000000000000000000000000000815250600f0192505050604051602081830303815290604052805190602001206040518363ffffffff1660e01b81526004018080602001838152602001828103825284818151815260200191508051906020019080838360005b83811015610c43578082015181840152602081019050610c28565b50505050905090810190601f168015610c705780820380516001836020036101000a031916815260200191505b50935050505060206040518083038186803b158015610c8e57600080fd5b505afa158015610ca2573d6000803e3d6000fd5b505050506040513d6020811015610cb857600080fd5b810190808051906020019092919050505090508473ffffffffffffffffffffffffffffffffffffffff168173ffffffffffffffffffffffffffffffffffffffff1614610d0357600080fd5b600260009054906101000a900473ffffffffffffffffffffffffffffffffffffffff1673ffffffffffffffffffffffffffffffffffffffff166308acb5566040518060400160405280600a81526020017f474d5365747465724442000000000000000000000000000000000000000000008152508a8a604051602001808381526020018273ffffffffffffffffffffffffffffffffffffffff1673ffffffffffffffffffffffffffffffffffffffff1660601b8152601401807f626574416d6f756e74000000000000000000000000000000000000000000000081525060090192505050604051602081830303815290604052805190602001206040518363ffffffff1660e01b81526004018080602001838152602001828103825284818151815260200191508051906020019080838360005b83811015610e52578082015181840152602081019050610e37565b50505050905090810190601f168015610e7f5780820380516001836020036101000a031916815260200191505b50935050505060206040518083038186803b158015610e9d57600080fd5b505afa158015610eb1573d6000803e3d6000fd5b505050506040513d6020811015610ec757600080fd5b81019080805190602001909291905050509150600260009054906101000a900473ffffffffffffffffffffffffffffffffffffffff1673ffffffffffffffffffffffffffffffffffffffff16630214a37c6040518060400160405280600a81526020017f474d5365747465724442000000000000000000000000000000000000000000008152508a8a604051602001808381526020018273ffffffffffffffffffffffffffffffffffffffff1673ffffffffffffffffffffffffffffffffffffffff1660601b8152601401807f626574416d6f756e7400000000000000000000000000000000000000000000008152506009019250505060405160208183030381529060405280519060200120610fe78a87615a6c90919063ffffffff16565b6040518463ffffffff1660e01b81526004018080602001848152602001838152602001828103825285818151815260200191508051906020019080838360005b83811015611042578082015181840152602081019050611027565b50505050905090810190601f16801561106f5780820380516001836020036101000a031916815260200191505b50945050505050600060405180830381600087803b15801561109057600080fd5b505af11580156110a4573d6000803e3d6000fd5b5050505050611454565b600260009054906101000a900473ffffffffffffffffffffffffffffffffffffffff1673ffffffffffffffffffffffffffffffffffffffff166308acb5566040518060400160405280600a81526020017f474d5365747465724442000000000000000000000000000000000000000000008152508989604051602001808381526020018273ffffffffffffffffffffffffffffffffffffffff1673ffffffffffffffffffffffffffffffffffffffff1660601b8152601401807f626574416d6f756e74000000000000000000000000000000000000000000000081525060090192505050604051602081830303815290604052805190602001206040518363ffffffff1660e01b81526004018080602001838152602001828103825284818151815260200191508051906020019080838360005b838110156111fd5780820151818401526020810190506111e2565b50505050905090810190601f16801561122a5780820380516001836020036101000a031916815260200191505b50935050505060206040518083038186803b15801561124857600080fd5b505afa15801561125c573d6000803e3d6000fd5b505050506040513d602081101561127257600080fd5b81019080805190602001909291905050509050600260009054906101000a900473ffffffffffffffffffffffffffffffffffffffff1673ffffffffffffffffffffffffffffffffffffffff16630214a37c6040518060400160405280600a81526020017f474d5365747465724442000000000000000000000000000000000000000000008152508989604051602001808381526020018273ffffffffffffffffffffffffffffffffffffffff1673ffffffffffffffffffffffffffffffffffffffff1660601b8152601401807f626574416d6f756e74000000000000000000000000000000000000000000000081525060090192505050604051602081830303815290604052805190602001206113928986615a6c90919063ffffffff16565b6040518463ffffffff1660e01b81526004018080602001848152602001838152602001828103825285818151815260200191508051906020019080838360005b838110156113ed5780820151818401526020810190506113d2565b50505050905090810190601f16801561141a5780820380516001836020036101000a031916815260200191505b50945050505050600060405180830381600087803b15801561143b57600080fd5b505af115801561144f573d6000803e3d6000fd5b505050505b600260009054906101000a900473ffffffffffffffffffffffffffffffffffffffff1673ffffffffffffffffffffffffffffffffffffffff166308acb5566040518060400160405280600a81526020017f474d5365747465724442000000000000000000000000000000000000000000008152508987604051602001808381526020018273ffffffffffffffffffffffffffffffffffffffff1673ffffffffffffffffffffffffffffffffffffffff1660601b8152601401807f746f74616c426574416d6f756e74000000000000000000000000000000000000815250600e0192505050604051602081830303815290604052805190602001206040518363ffffffff1660e01b81526004018080602001838152602001828103825284818151815260200191508051906020019080838360005b838110156115a3578082015181840152602081019050611588565b50505050905090810190601f1680156115d05780820380516001836020036101000a031916815260200191505b50935050505060206040518083038186803b1580156115ee57600080fd5b505afa158015611602573d6000803e3d6000fd5b505050506040513d602081101561161857600080fd5b81019080805190602001909291905050509050600260009054906101000a900473ffffffffffffffffffffffffffffffffffffffff1673ffffffffffffffffffffffffffffffffffffffff16630214a37c6040518060400160405280600a81526020017f474d5365747465724442000000000000000000000000000000000000000000008152508987604051602001808381526020018273ffffffffffffffffffffffffffffffffffffffff1673ffffffffffffffffffffffffffffffffffffffff1660601b8152601401807f746f74616c426574416d6f756e74000000000000000000000000000000000000815250600e0192505050604051602081830303815290604052805190602001206117388986615a6c90919063ffffffff16565b6040518463ffffffff1660e01b81526004018080602001848152602001838152602001828103825285818151815260200191508051906020019080838360005b83811015611793578082015181840152602081019050611778565b50505050905090810190601f1680156117c05780820380516001836020036101000a031916815260200191505b50945050505050600060405180830381600087803b1580156117e157600080fd5b505af11580156117f5573d6000803e3d6000fd5b5050505050505050505050565b600660009054906101000a900473ffffffffffffffffffffffffffffffffffffffff1681565b600460009054906101000a900473ffffffffffffffffffffffffffffffffffffffff1681565b600260009054906101000a900473ffffffffffffffffffffffffffffffffffffffff1681565b60006040518060400160405280600b81526020017f47616d654d616e616765720000000000000000000000000000000000000000008152506118b581615821565b61190a576040517f08c379a000000000000000000000000000000000000000000000000000000000815260040180806020018281038252602d815260200180616080602d913960400191505060405180910390fd5b8461191481614691565b61191d57600080fd5b600260009054906101000a900473ffffffffffffffffffffffffffffffffffffffff1673ffffffffffffffffffffffffffffffffffffffff16638445d70f6040518060400160405280600a81526020017f474d536574746572444200000000000000000000000000000000000000000000815250886040518060400160405280600b81526020017f426574746f725461626c650000000000000000000000000000000000000000008152506040516020018083815260200182805190602001908083835b60208310611a0457805182526020820191506020810190506020830392506119e1565b6001836020036101000a0380198251168184511680821785525050505050509050019250505060405160208183030381529060405280519060200120886040518463ffffffff1660e01b815260040180806020018481526020018373ffffffffffffffffffffffffffffffffffffffff1673ffffffffffffffffffffffffffffffffffffffff168152602001828103825285818151815260200191508051906020019080838360005b83811015611ac8578082015181840152602081019050611aad565b50505050905090810190601f168015611af55780820380516001836020036101000a031916815260200191505b5094505050505060206040518083038186803b158015611b1457600080fd5b505afa158015611b28573d6000803e3d6000fd5b505050506040513d6020811015611b3e57600080fd5b810190808051906020019092919050505061214457600260009054906101000a900473ffffffffffffffffffffffffffffffffffffffff1673ffffffffffffffffffffffffffffffffffffffff166396bf56806040518060400160405280600a81526020017f474d536574746572444200000000000000000000000000000000000000000000815250886040518060400160405280600b81526020017f426574746f725461626c650000000000000000000000000000000000000000008152506040516020018083815260200182805190602001908083835b60208310611c3a5780518252602082019150602081019050602083039250611c17565b6001836020036101000a0380198251168184511680821785525050505050509050019250505060405160208183030381529060405280519060200120886040518463ffffffff1660e01b815260040180806020018481526020018373ffffffffffffffffffffffffffffffffffffffff1673ffffffffffffffffffffffffffffffffffffffff168152602001828103825285818151815260200191508051906020019080838360005b83811015611cfe578082015181840152602081019050611ce3565b50505050905090810190601f168015611d2b5780820380516001836020036101000a031916815260200191505b50945050505050602060405180830381600087803b158015611d4c57600080fd5b505af1158015611d60573d6000803e3d6000fd5b505050506040513d6020811015611d7657600080fd5b810190808051906020019092919050505050600260009054906101000a900473ffffffffffffffffffffffffffffffffffffffff1673ffffffffffffffffffffffffffffffffffffffff1663866d59fe6040518060400160405280600a81526020017f474d5365747465724442000000000000000000000000000000000000000000008152508888604051602001808381526020018273ffffffffffffffffffffffffffffffffffffffff1673ffffffffffffffffffffffffffffffffffffffff1660601b8152601401807f737570706f72746564506c617965720000000000000000000000000000000000815250600f019250505060405160208183030381529060405280519060200120876040518463ffffffff1660e01b815260040180806020018481526020018373ffffffffffffffffffffffffffffffffffffffff1673ffffffffffffffffffffffffffffffffffffffff168152602001828103825285818151815260200191508051906020019080838360005b83811015611f0a578082015181840152602081019050611eef565b50505050905090810190601f168015611f375780820380516001836020036101000a031916815260200191505b50945050505050600060405180830381600087803b158015611f5857600080fd5b505af1158015611f6c573d6000803e3d6000fd5b50505050600260009054906101000a900473ffffffffffffffffffffffffffffffffffffffff1673ffffffffffffffffffffffffffffffffffffffff1663cb30ffe76040518060400160405280600a81526020017f474d5365747465724442000000000000000000000000000000000000000000008152508888604051602001808381526020018273ffffffffffffffffffffffffffffffffffffffff1673ffffffffffffffffffffffffffffffffffffffff1660601b8152601401807f7469636b65744665655061696400000000000000000000000000000000000000815250600d01925050506040516020818303038152906040528051906020012060016040518463ffffffff1660e01b8152600401808060200184815260200183151515158152602001828103825285818151815260200191508051906020019080838360005b838110156120cb5780820151818401526020810190506120b0565b50505050905090810190601f1680156120f85780820380516001836020036101000a031916815260200191505b50945050505050600060405180830381600087803b15801561211957600080fd5b505af115801561212d573d6000803e3d6000fd5b5050505061213b8685615a88565b60019250612149565b600092505b50509392505050565b6000809054906101000a900473ffffffffffffffffffffffffffffffffffffffff1673ffffffffffffffffffffffffffffffffffffffff163373ffffffffffffffffffffffffffffffffffffffff16146121a857fe5b80600260006101000a81548173ffffffffffffffffffffffffffffffffffffffff021916908373ffffffffffffffffffffffffffffffffffffffff16021790555050565b6000809054906101000a900473ffffffffffffffffffffffffffffffffffffffff1673ffffffffffffffffffffffffffffffffffffffff163373ffffffffffffffffffffffffffffffffffffffff161461224257fe5b600160009054906101000a900473ffffffffffffffffffffffffffffffffffffffff1673ffffffffffffffffffffffffffffffffffffffff1663358177736040518060400160405280600d81526020017f47616d65566172416e64466565000000000000000000000000000000000000008152506040518263ffffffff1660e01b81526004018080602001828103825283818151815260200191508051906020019080838360005b838110156123055780820151818401526020810190506122ea565b50505050905090810190601f1680156123325780820380516001836020036101000a031916815260200191505b509250505060206040518083038186803b15801561234f57600080fd5b505afa158015612363573d6000803e3d6000fd5b505050506040513d602081101561237957600080fd5b8101908080519060200190929190505050600360006101000a81548173ffffffffffffffffffffffffffffffffffffffff021916908373ffffffffffffffffffffffffffffffffffffffff160217905550600160009054906101000a900473ffffffffffffffffffffffffffffffffffffffff1673ffffffffffffffffffffffffffffffffffffffff1663358177736040518060400160405280600a81526020017f474d4765747465724442000000000000000000000000000000000000000000008152506040518263ffffffff1660e01b81526004018080602001828103825283818151815260200191508051906020019080838360005b8381101561248d578082015181840152602081019050612472565b50505050905090810190601f1680156124ba5780820380516001836020036101000a031916815260200191505b509250505060206040518083038186803b1580156124d757600080fd5b505afa1580156124eb573d6000803e3d6000fd5b505050506040513d602081101561250157600080fd5b8101908080519060200190929190505050600460006101000a81548173ffffffffffffffffffffffffffffffffffffffff021916908373ffffffffffffffffffffffffffffffffffffffff160217905550600160009054906101000a900473ffffffffffffffffffffffffffffffffffffffff1673ffffffffffffffffffffffffffffffffffffffff1663358177736040518060400160405280600981526020017f47616d6553746f726500000000000000000000000000000000000000000000008152506040518263ffffffff1660e01b81526004018080602001828103825283818151815260200191508051906020019080838360005b838110156126155780820151818401526020810190506125fa565b50505050905090810190601f1680156126425780820380516001836020036101000a031916815260200191505b509250505060206040518083038186803b15801561265f57600080fd5b505afa158015612673573d6000803e3d6000fd5b505050506040513d602081101561268957600080fd5b8101908080519060200190929190505050600560006101000a81548173ffffffffffffffffffffffffffffffffffffffff021916908373ffffffffffffffffffffffffffffffffffffffff160217905550600160009054906101000a900473ffffffffffffffffffffffffffffffffffffffff1673ffffffffffffffffffffffffffffffffffffffff1663358177736040518060400160405280600c81526020017f47616d654372656174696f6e00000000000000000000000000000000000000008152506040518263ffffffff1660e01b81526004018080602001828103825283818151815260200191508051906020019080838360005b8381101561279d578082015181840152602081019050612782565b50505050905090810190601f1680156127ca5780820380516001836020036101000a031916815260200191505b509250505060206040518083038186803b1580156127e757600080fd5b505afa1580156127fb573d6000803e3d6000fd5b505050506040513d602081101561281157600080fd5b8101908080519060200190929190505050600660006101000a81548173ffffffffffffffffffffffffffffffffffffffff021916908373ffffffffffffffffffffffffffffffffffffffff160217905550565b6000809054906101000a900473ffffffffffffffffffffffffffffffffffffffff1681565b6000809054906101000a900473ffffffffffffffffffffffffffffffffffffffff1673ffffffffffffffffffffffffffffffffffffffff163373ffffffffffffffffffffffffffffffffffffffff16146128df57fe5b80600160006101000a81548173ffffffffffffffffffffffffffffffffffffffff021916908373ffffffffffffffffffffffffffffffffffffffff16021790555050565b6040518060400160405280600b81526020017f47616d654d616e6167657200000000000000000000000000000000000000000081525061296281615821565b6129b7576040517f08c379a000000000000000000000000000000000000000000000000000000000815260040180806020018281038252602d815260200180616080602d913960400191505060405180910390fd5b816129c181614691565b6129ca57600080fd5b600080600460009054906101000a900473ffffffffffffffffffffffffffffffffffffffff1673ffffffffffffffffffffffffffffffffffffffff1663589ac6a4866040518263ffffffff1660e01b8152600401808281526020019150506101006040518083038186803b158015612a4157600080fd5b505afa158015612a55573d6000803e3d6000fd5b505050506040513d601f19601f82011682018060405250610100811015612a7b57600080fd5b81019080805190602001909291908051906020019092919080519060200190929190805190602001909291909190826040018051906020019092919080519060200190929190505050509550509450505050600260009054906101000a900473ffffffffffffffffffffffffffffffffffffffff1673ffffffffffffffffffffffffffffffffffffffff16630214a37c6040518060400160405280600a81526020017f474d5365747465724442000000000000000000000000000000000000000000008152508760405160200180828152602001807f746f74616c45746800000000000000000000000000000000000000000000000081525060080191505060405160208183030381529060405280519060200120856040518463ffffffff1660e01b81526004018080602001848152602001838152602001828103825285818151815260200191508051906020019080838360005b83811015612bec578082015181840152602081019050612bd1565b50505050905090810190601f168015612c195780820380516001836020036101000a031916815260200191505b50945050505050600060405180830381600087803b158015612c3a57600080fd5b505af1158015612c4e573d6000803e3d6000fd5b50505050600260009054906101000a900473ffffffffffffffffffffffffffffffffffffffff1673ffffffffffffffffffffffffffffffffffffffff16630214a37c6040518060400160405280600a81526020017f474d5365747465724442000000000000000000000000000000000000000000008152508760405160200180828152602001807f746f74616c4b747900000000000000000000000000000000000000000000000081525060080191505060405160208183030381529060405280519060200120846040518463ffffffff1660e01b81526004018080602001848152602001838152602001828103825285818151815260200191508051906020019080838360005b83811015612d71578082015181840152602081019050612d56565b50505050905090810190601f168015612d9e5780820380516001836020036101000a031916815260200191505b50945050505050600060405180830381600087803b158015612dbf57600080fd5b505af1158015612dd3573d6000803e3d6000fd5b505050505050505050565b600360009054906101000a900473ffffffffffffffffffffffffffffffffffffffff1681565b60006040518060400160405280600c81526020017f47616d654372656174696f6e0000000000000000000000000000000000000000815250612e4581615821565b612e9a576040517f08c379a000000000000000000000000000000000000000000000000000000000815260040180806020018281038252602d815260200180616080602d913960400191505060405180910390fd5b6000600260009054906101000a900473ffffffffffffffffffffffffffffffffffffffff1673ffffffffffffffffffffffffffffffffffffffff16639a481f4e6040518060400160405280600a81526020017f474d53657474657244420000000000000000000000000000000000000000000081525060405160200180807f47616d655461626c650000000000000000000000000000000000000000000000815250600901905060405160208183030381529060405280519060200120600060016040518563ffffffff1660e01b8152600401808060200185815260200184815260200183151515158152602001828103825286818151815260200191508051906020019080838360005b83811015612fc0578082015181840152602081019050612fa5565b50505050905090810190601f168015612fed5780820380516001836020036101000a031916815260200191505b5095505050505050604080518083038186803b15801561300c57600080fd5b505afa158015613020573d6000803e3d6000fd5b505050506040513d604081101561303657600080fd5b810190808051906020019092919080519060200190929190505050915050613068600182615a6c90919063ffffffff16565b9250600260009054906101000a900473ffffffffffffffffffffffffffffffffffffffff1673ffffffffffffffffffffffffffffffffffffffff166387d533626040518060400160405280600a81526020017f474d53657474657244420000000000000000000000000000000000000000000081525060405160200180807f47616d655461626c650000000000000000000000000000000000000000000000815250600901905060405160208183030381529060405280519060200120866040518463ffffffff1660e01b81526004018080602001848152602001838152602001828103825285818151815260200191508051906020019080838360005b83811015613181578082015181840152602081019050613166565b50505050905090810190601f1680156131ae5780820380516001836020036101000a031916815260200191505b50945050505050602060405180830381600087803b1580156131cf57600080fd5b505af11580156131e3573d6000803e3d6000fd5b505050506040513d60208110156131f957600080fd5b81019080805190602001909291905050505060006132c2600360009054906101000a900473ffffffffffffffffffffffffffffffffffffffff1673ffffffffffffffffffffffffffffffffffffffff1663c09ab5106040518163ffffffff1660e01b815260040160206040518083038186803b15801561327857600080fd5b505afa15801561328c573d6000803e3d6000fd5b505050506040513d60208110156132a257600080fd5b810190808051906020019092919050505086615e3590919063ffffffff16565b9050600061337b600360009054906101000a900473ffffffffffffffffffffffffffffffffffffffff1673ffffffffffffffffffffffffffffffffffffffff166378e9ae606040518163ffffffff1660e01b815260040160206040518083038186803b15801561333157600080fd5b505afa158015613345573d6000803e3d6000fd5b505050506040513d602081101561335b57600080fd5b810190808051906020019092919050505087615a6c90919063ffffffff16565b9050600260009054906101000a900473ffffffffffffffffffffffffffffffffffffffff1673ffffffffffffffffffffffffffffffffffffffff1663866d59fe6040518060400160405280600a81526020017f474d5365747465724442000000000000000000000000000000000000000000008152508760405160200180828152602001807f706c617965725265640000000000000000000000000000000000000000000000815250600901915050604051602081830303815290604052805190602001208d6040518463ffffffff1660e01b815260040180806020018481526020018373ffffffffffffffffffffffffffffffffffffffff1673ffffffffffffffffffffffffffffffffffffffff168152602001828103825285818151815260200191508051906020019080838360005b838110156134c85780820151818401526020810190506134ad565b50505050905090810190601f1680156134f55780820380516001836020036101000a031916815260200191505b50945050505050600060405180830381600087803b15801561351657600080fd5b505af115801561352a573d6000803e3d6000fd5b50505050600260009054906101000a900473ffffffffffffffffffffffffffffffffffffffff1673ffffffffffffffffffffffffffffffffffffffff1663866d59fe6040518060400160405280600a81526020017f474d5365747465724442000000000000000000000000000000000000000000008152508760405160200180828152602001807f706c61796572426c61636b000000000000000000000000000000000000000000815250600b01915050604051602081830303815290604052805190602001208c6040518463ffffffff1660e01b815260040180806020018481526020018373ffffffffffffffffffffffffffffffffffffffff1673ffffffffffffffffffffffffffffffffffffffff168152602001828103825285818151815260200191508051906020019080838360005b8381101561367957808201518184015260208101905061365e565b50505050905090810190601f1680156136a65780820380516001836020036101000a031916815260200191505b50945050505050600060405180830381600087803b1580156136c757600080fd5b505af11580156136db573d6000803e3d6000fd5b50505050600260009054906101000a900473ffffffffffffffffffffffffffffffffffffffff1673ffffffffffffffffffffffffffffffffffffffff16630214a37c6040518060400160405280600a81526020017f474d536574746572444200000000000000000000000000000000000000000000815250878d604051602001808381526020018273ffffffffffffffffffffffffffffffffffffffff1673ffffffffffffffffffffffffffffffffffffffff1660601b8152601401807f6b6974747900000000000000000000000000000000000000000000000000000081525060050192505050604051602081830303815290604052805190602001208b6040518463ffffffff1660e01b81526004018080602001848152602001838152602001828103825285818151815260200191508051906020019080838360005b8381101561383557808201518184015260208101905061381a565b50505050905090810190601f1680156138625780820380516001836020036101000a031916815260200191505b50945050505050600060405180830381600087803b15801561388357600080fd5b505af1158015613897573d6000803e3d6000fd5b50505050600260009054906101000a900473ffffffffffffffffffffffffffffffffffffffff1673ffffffffffffffffffffffffffffffffffffffff16630214a37c6040518060400160405280600a81526020017f474d536574746572444200000000000000000000000000000000000000000000815250878c604051602001808381526020018273ffffffffffffffffffffffffffffffffffffffff1673ffffffffffffffffffffffffffffffffffffffff1660601b8152601401807f6b6974747900000000000000000000000000000000000000000000000000000081525060050192505050604051602081830303815290604052805190602001208a6040518463ffffffff1660e01b81526004018080602001848152602001838152602001828103825285818151815260200191508051906020019080838360005b838110156139f15780820151818401526020810190506139d6565b50505050905090810190601f168015613a1e5780820380516001836020036101000a031916815260200191505b50945050505050600060405180830381600087803b158015613a3f57600080fd5b505af1158015613a53573d6000803e3d6000fd5b50505050600260009054906101000a900473ffffffffffffffffffffffffffffffffffffffff1673ffffffffffffffffffffffffffffffffffffffff16630214a37c6040518060400160405280600a81526020017f474d5365747465724442000000000000000000000000000000000000000000008152508760405160200180828152602001807f6372656174656454696d65000000000000000000000000000000000000000000815250600b0191505060405160208183030381529060405280519060200120426040518463ffffffff1660e01b81526004018080602001848152602001838152602001828103825285818151815260200191508051906020019080838360005b83811015613b76578082015181840152602081019050613b5b565b50505050905090810190601f168015613ba35780820380516001836020036101000a031916815260200191505b50945050505050600060405180830381600087803b158015613bc457600080fd5b505af1158015613bd8573d6000803e3d6000fd5b50505050600260009054906101000a900473ffffffffffffffffffffffffffffffffffffffff1673ffffffffffffffffffffffffffffffffffffffff16630214a37c6040518060400160405280600a81526020017f474d5365747465724442000000000000000000000000000000000000000000008152508760405160200180828152602001807f737461727454696d65000000000000000000000000000000000000000000000081525060090191505060405160208183030381529060405280519060200120896040518463ffffffff1660e01b81526004018080602001848152602001838152602001828103825285818151815260200191508051906020019080838360005b83811015613cfb578082015181840152602081019050613ce0565b50505050905090810190601f168015613d285780820380516001836020036101000a031916815260200191505b50945050505050600060405180830381600087803b158015613d4957600080fd5b505af1158015613d5d573d6000803e3d6000fd5b50505050600260009054906101000a900473ffffffffffffffffffffffffffffffffffffffff1673ffffffffffffffffffffffffffffffffffffffff16630214a37c6040518060400160405280600a81526020017f474d5365747465724442000000000000000000000000000000000000000000008152508760405160200180828152602001807f707265737461727454696d650000000000000000000000000000000000000000815250600c0191505060405160208183030381529060405280519060200120856040518463ffffffff1660e01b81526004018080602001848152602001838152602001828103825285818151815260200191508051906020019080838360005b83811015613e80578082015181840152602081019050613e65565b50505050905090810190601f168015613ead5780820380516001836020036101000a031916815260200191505b50945050505050600060405180830381600087803b158015613ece57600080fd5b505af1158015613ee2573d6000803e3d6000fd5b50505050600260009054906101000a900473ffffffffffffffffffffffffffffffffffffffff1673ffffffffffffffffffffffffffffffffffffffff16630214a37c6040518060400160405280600a81526020017f474d5365747465724442000000000000000000000000000000000000000000008152508760405160200180828152602001807f656e6454696d650000000000000000000000000000000000000000000000000081525060070191505060405160208183030381529060405280519060200120846040518463ffffffff1660e01b81526004018080602001848152602001838152602001828103825285818151815260200191508051906020019080838360005b83811015614005578082015181840152602081019050613fea565b50505050905090810190601f1680156140325780820380516001836020036101000a031916815260200191505b50945050505050600060405180830381600087803b15801561405357600080fd5b505af1158015614067573d6000803e3d6000fd5b5050505061407485615e4c565b5050505095945050505050565b600560009054906101000a900473ffffffffffffffffffffffffffffffffffffffff1681565b6040518060400160405280600c81526020017f47616d654372656174696f6e00000000000000000000000000000000000000008152506140e681615821565b61413b576040517f08c379a000000000000000000000000000000000000000000000000000000000815260040180806020018281038252602d815260200180616080602d913960400191505060405180910390fd5b8361414581614691565b61414e57600080fd5b600260009054906101000a900473ffffffffffffffffffffffffffffffffffffffff1673ffffffffffffffffffffffffffffffffffffffff16630214a37c6040518060400160405280600a81526020017f474d5365747465724442000000000000000000000000000000000000000000008152508760405160200180828152602001807f696e697469616c4b747900000000000000000000000000000000000000000000815250600a0191505060405160208183030381529060405280519060200120876040518463ffffffff1660e01b81526004018080602001848152602001838152602001828103825285818151815260200191508051906020019080838360005b8381101561426d578082015181840152602081019050614252565b50505050905090810190601f16801561429a5780820380516001836020036101000a031916815260200191505b50945050505050600060405180830381600087803b1580156142bb57600080fd5b505af11580156142cf573d6000803e3d6000fd5b50505050600260009054906101000a900473ffffffffffffffffffffffffffffffffffffffff1673ffffffffffffffffffffffffffffffffffffffff16630214a37c6040518060400160405280600a81526020017f474d5365747465724442000000000000000000000000000000000000000000008152508760405160200180828152602001807f696e697469616c45746800000000000000000000000000000000000000000000815250600a0191505060405160208183030381529060405280519060200120866040518463ffffffff1660e01b81526004018080602001848152602001838152602001828103825285818151815260200191508051906020019080838360005b838110156143f25780820151818401526020810190506143d7565b50505050905090810190601f16801561441f5780820380516001836020036101000a031916815260200191505b50945050505050600060405180830381600087803b15801561444057600080fd5b505af1158015614454573d6000803e3d6000fd5b505050505050505050565b6040518060400160405280600b81526020017f47616d654d616e6167657200000000000000000000000000000000000000000081525061449e81615821565b6144f3576040517f08c379a000000000000000000000000000000000000000000000000000000000815260040180806020018281038252602d815260200180616080602d913960400191505060405180910390fd5b826144fd81614691565b61450657600080fd5b600260009054906101000a900473ffffffffffffffffffffffffffffffffffffffff1673ffffffffffffffffffffffffffffffffffffffff16630214a37c6040518060400160405280600a81526020017f474d5365747465724442000000000000000000000000000000000000000000008152508660405160200180828152602001807f656e6454696d650000000000000000000000000000000000000000000000000081525060070191505060405160208183030381529060405280519060200120866040518463ffffffff1660e01b81526004018080602001848152602001838152602001828103825285818151815260200191508051906020019080838360005b8381101561462557808201518184015260208101905061460a565b50505050905090810190601f1680156146525780820380516001836020036101000a031916815260200191505b50945050505050600060405180830381600087803b15801561467357600080fd5b505af1158015614687573d6000803e3d6000fd5b5050505050505050565b6000600260009054906101000a900473ffffffffffffffffffffffffffffffffffffffff1673ffffffffffffffffffffffffffffffffffffffff166396edc0096040518060400160405280600a81526020017f474d53657474657244420000000000000000000000000000000000000000000081525060405160200180807f47616d655461626c650000000000000000000000000000000000000000000000815250600901905060405160208183030381529060405280519060200120856040518463ffffffff1660e01b81526004018080602001848152602001838152602001828103825285818151815260200191508051906020019080838360005b838110156147aa57808201518184015260208101905061478f565b50505050905090810190601f1680156147d75780820380516001836020036101000a031916815260200191505b5094505050505060206040518083038186803b1580156147f657600080fd5b505afa15801561480a573d6000803e3d6000fd5b505050506040513d602081101561482057600080fd5b81019080805190602001909291905050509050919050565b600160009054906101000a900473ffffffffffffffffffffffffffffffffffffffff1681565b6040518060400160405280600b81526020017f47616d654d616e6167657200000000000000000000000000000000000000000081525061489d81615821565b6148f2576040517f08c379a000000000000000000000000000000000000000000000000000000000815260040180806020018281038252602d815260200180616080602d913960400191505060405180910390fd5b846148fc81614691565b61490557600080fd5b600260009054906101000a900473ffffffffffffffffffffffffffffffffffffffff1673ffffffffffffffffffffffffffffffffffffffff1663866d59fe6040518060400160405280600a81526020017f474d5365747465724442000000000000000000000000000000000000000000008152508860405160200180828152602001807f77696e6e6572000000000000000000000000000000000000000000000000000081525060060191505060405160208183030381529060405280519060200120886040518463ffffffff1660e01b815260040180806020018481526020018373ffffffffffffffffffffffffffffffffffffffff1673ffffffffffffffffffffffffffffffffffffffff168152602001828103825285818151815260200191508051906020019080838360005b83811015614a50578082015181840152602081019050614a35565b50505050905090810190601f168015614a7d5780820380516001836020036101000a031916815260200191505b50945050505050600060405180830381600087803b158015614a9e57600080fd5b505af1158015614ab2573d6000803e3d6000fd5b50505050600260009054906101000a900473ffffffffffffffffffffffffffffffffffffffff1673ffffffffffffffffffffffffffffffffffffffff1663866d59fe6040518060400160405280600a81526020017f474d5365747465724442000000000000000000000000000000000000000000008152508860405160200180828152602001807f746f70426574746f72000000000000000000000000000000000000000000000081525060090191505060405160208183030381529060405280519060200120876040518463ffffffff1660e01b815260040180806020018481526020018373ffffffffffffffffffffffffffffffffffffffff1673ffffffffffffffffffffffffffffffffffffffff168152602001828103825285818151815260200191508051906020019080838360005b83811015614c01578082015181840152602081019050614be6565b50505050905090810190601f168015614c2e5780820380516001836020036101000a031916815260200191505b50945050505050600060405180830381600087803b158015614c4f57600080fd5b505af1158015614c63573d6000803e3d6000fd5b50505050600260009054906101000a900473ffffffffffffffffffffffffffffffffffffffff1673ffffffffffffffffffffffffffffffffffffffff1663866d59fe6040518060400160405280600a81526020017f474d5365747465724442000000000000000000000000000000000000000000008152508860405160200180828152602001807f7365636f6e64546f70426574746f720000000000000000000000000000000000815250600f0191505060405160208183030381529060405280519060200120866040518463ffffffff1660e01b815260040180806020018481526020018373ffffffffffffffffffffffffffffffffffffffff1673ffffffffffffffffffffffffffffffffffffffff168152602001828103825285818151815260200191508051906020019080838360005b83811015614db2578082015181840152602081019050614d97565b50505050905090810190601f168015614ddf5780820380516001836020036101000a031916815260200191505b50945050505050600060405180830381600087803b158015614e0057600080fd5b505af1158015614e14573d6000803e3d6000fd5b50505050505050505050565b6000809054906101000a900473ffffffffffffffffffffffffffffffffffffffff1673ffffffffffffffffffffffffffffffffffffffff163373ffffffffffffffffffffffffffffffffffffffff1614614e7657fe5b600073ffffffffffffffffffffffffffffffffffffffff168173ffffffffffffffffffffffffffffffffffffffff1614614eeb57806000806101000a81548173ffffffffffffffffffffffffffffffffffffffff021916908373ffffffffffffffffffffffffffffffffffffffff1602179055505b50565b6040518060400160405280600c81526020017f47616d654372656174696f6e0000000000000000000000000000000000000000815250614f2d81615821565b614f82576040517f08c379a000000000000000000000000000000000000000000000000000000000815260040180806020018281038252602d815260200180616080602d913960400191505060405180910390fd5b81614f8c81614691565b614f9557600080fd5b600660009054906101000a900473ffffffffffffffffffffffffffffffffffffffff1673ffffffffffffffffffffffffffffffffffffffff1663a13995408460016040518363ffffffff1660e01b81526004018083815260200182815260200192505050600060405180830381600087803b15801561501357600080fd5b505af1158015615027573d6000803e3d6000fd5b50505050600260009054906101000a900473ffffffffffffffffffffffffffffffffffffffff1673ffffffffffffffffffffffffffffffffffffffff16630214a37c6040518060400160405280600a81526020017f474d5365747465724442000000000000000000000000000000000000000000008152508560405160200180828152602001807f73746174650000000000000000000000000000000000000000000000000000008152506005019150506040516020818303038152906040528051906020012060016040518463ffffffff1660e01b81526004018080602001848152602001838152602001828103825285818151815260200191508051906020019080838360005b8381101561514b578082015181840152602081019050615130565b50505050905090810190601f1680156151785780820380516001836020036101000a031916815260200191505b50945050505050600060405180830381600087803b15801561519957600080fd5b505af11580156151ad573d6000803e3d6000fd5b50505050505050565b6040518060400160405280600b81526020017f47616d654d616e616765720000000000000000000000000000000000000000008152506151f581615821565b61524a576040517f08c379a000000000000000000000000000000000000000000000000000000000815260040180806020018281038252602d815260200180616080602d913960400191505060405180910390fd5b8261525481614691565b61525d57600080fd5b600660009054906101000a900473ffffffffffffffffffffffffffffffffffffffff1673ffffffffffffffffffffffffffffffffffffffff1663a139954085856040518363ffffffff1660e01b81526004018083815260200182815260200192505050600060405180830381600087803b1580156152da57600080fd5b505af11580156152ee573d6000803e3d6000fd5b50505050600260009054906101000a900473ffffffffffffffffffffffffffffffffffffffff1673ffffffffffffffffffffffffffffffffffffffff16630214a37c6040518060400160405280600a81526020017f474d5365747465724442000000000000000000000000000000000000000000008152508660405160200180828152602001807f737461746500000000000000000000000000000000000000000000000000000081525060050191505060405160208183030381529060405280519060200120866040518463ffffffff1660e01b81526004018080602001848152602001838152602001828103825285818151815260200191508051906020019080838360005b838110156154115780820151818401526020810190506153f6565b50505050905090810190601f16801561543e5780820380516001836020036101000a031916815260200191505b50945050505050600060405180830381600087803b15801561545f57600080fd5b505af1158015615473573d6000803e3d6000fd5b5050505050505050565b6040518060400160405280600c81526020017f47616d654372656174696f6e00000000000000000000000000000000000000008152506154bc81615821565b615511576040517f08c379a000000000000000000000000000000000000000000000000000000000815260040180806020018281038252602d815260200180616080602d913960400191505060405180910390fd5b600260009054906101000a900473ffffffffffffffffffffffffffffffffffffffff1673ffffffffffffffffffffffffffffffffffffffff16630214a37c6040518060400160405280600a81526020017f474d5365747465724442000000000000000000000000000000000000000000008152508660405160200180828152602001807f706c6179696e6747616d65000000000000000000000000000000000000000000815250600b0191505060405160208183030381529060405280519060200120856040518463ffffffff1660e01b81526004018080602001848152602001838152602001828103825285818151815260200191508051906020019080838360005b83811015615630578082015181840152602081019050615615565b50505050905090810190601f16801561565d5780820380516001836020036101000a031916815260200191505b50945050505050600060405180830381600087803b15801561567e57600080fd5b505af1158015615692573d6000803e3d6000fd5b50505050600260009054906101000a900473ffffffffffffffffffffffffffffffffffffffff1673ffffffffffffffffffffffffffffffffffffffff16630214a37c6040518060400160405280600a81526020017f474d5365747465724442000000000000000000000000000000000000000000008152508560405160200180828152602001807f706c6179696e6747616d65000000000000000000000000000000000000000000815250600b0191505060405160208183030381529060405280519060200120856040518463ffffffff1660e01b81526004018080602001848152602001838152602001828103825285818151815260200191508051906020019080838360005b838110156157b557808201518184015260208101905061579a565b50505050905090810190601f1680156157e25780820380516001836020036101000a031916815260200191505b50945050505050600060405180830381600087803b15801561580357600080fd5b505af1158015615817573d6000803e3d6000fd5b5050505050505050565b60008073ffffffffffffffffffffffffffffffffffffffff16600160009054906101000a900473ffffffffffffffffffffffffffffffffffffffff1673ffffffffffffffffffffffffffffffffffffffff1614156158e7576040517f08c379a00000000000000000000000000000000000000000000000000000000081526004018080602001828103825260088152602001807f4e6f2050726f787900000000000000000000000000000000000000000000000081525060200191505060405180910390fd5b6000600160009054906101000a900473ffffffffffffffffffffffffffffffffffffffff1673ffffffffffffffffffffffffffffffffffffffff166335817773846040518263ffffffff1660e01b81526004018080602001828103825283818151815260200191508051906020019080838360005b8381101561597757808201518184015260208101905061595c565b50505050905090810190601f1680156159a45780820380516001836020036101000a031916815260200191505b509250505060206040518083038186803b1580156159c157600080fd5b505afa1580156159d5573d6000803e3d6000fd5b505050506040513d60208110156159eb57600080fd5b81019080805190602001909291905050509050600073ffffffffffffffffffffffffffffffffffffffff168173ffffffffffffffffffffffffffffffffffffffff161415615a3557fe5b8073ffffffffffffffffffffffffffffffffffffffff163373ffffffffffffffffffffffffffffffffffffffff1614915050919050565b600080828401905083811015615a7e57fe5b8091505092915050565b6000600260009054906101000a900473ffffffffffffffffffffffffffffffffffffffff1673ffffffffffffffffffffffffffffffffffffffff166308acb5566040518060400160405280600a81526020017f474d5365747465724442000000000000000000000000000000000000000000008152508585604051602001808381526020018273ffffffffffffffffffffffffffffffffffffffff1673ffffffffffffffffffffffffffffffffffffffff1660601b8152601401807f737570706f727465727300000000000000000000000000000000000000000000815250600a0192505050604051602081830303815290604052805190602001206040518363ffffffff1660e01b81526004018080602001838152602001828103825284818151815260200191508051906020019080838360005b83811015615bd9578082015181840152602081019050615bbe565b50505050905090810190601f168015615c065780820380516001836020036101000a031916815260200191505b50935050505060206040518083038186803b158015615c2457600080fd5b505afa158015615c38573d6000803e3d6000fd5b505050506040513d6020811015615c4e57600080fd5b81019080805190602001909291905050509050600260009054906101000a900473ffffffffffffffffffffffffffffffffffffffff1673ffffffffffffffffffffffffffffffffffffffff16630214a37c6040518060400160405280600a81526020017f474d5365747465724442000000000000000000000000000000000000000000008152508585604051602001808381526020018273ffffffffffffffffffffffffffffffffffffffff1673ffffffffffffffffffffffffffffffffffffffff1660601b8152601401807f737570706f727465727300000000000000000000000000000000000000000000815250600a019250505060405160208183030381529060405280519060200120615d6f600186615a6c90919063ffffffff16565b6040518463ffffffff1660e01b81526004018080602001848152602001838152602001828103825285818151815260200191508051906020019080838360005b83811015615dca578082015181840152602081019050615daf565b50505050905090810190601f168015615df75780820380516001836020036101000a031916815260200191505b50945050505050600060405180830381600087803b158015615e1857600080fd5b505af1158015615e2c573d6000803e3d6000fd5b50505050505050565b600082821115615e4157fe5b818303905092915050565b80615e5681614691565b615e5f57600080fd5b600660009054906101000a900473ffffffffffffffffffffffffffffffffffffffff1673ffffffffffffffffffffffffffffffffffffffff1663a13995408360006040518363ffffffff1660e01b81526004018083815260200182815260200192505050600060405180830381600087803b158015615edd57600080fd5b505af1158015615ef1573d6000803e3d6000fd5b50505050600260009054906101000a900473ffffffffffffffffffffffffffffffffffffffff1673ffffffffffffffffffffffffffffffffffffffff16630214a37c6040518060400160405280600a81526020017f474d5365747465724442000000000000000000000000000000000000000000008152508460405160200180828152602001807f73746174650000000000000000000000000000000000000000000000000000008152506005019150506040516020818303038152906040528051906020012060006040518463ffffffff1660e01b81526004018080602001848152602001838152602001828103825285818151815260200191508051906020019080838360005b83811015616015578082015181840152602081019050615ffa565b50505050905090810190601f1680156160425780820380516001836020036101000a031916815260200191505b50945050505050600060405180830381600087803b15801561606357600080fd5b505af1158015616077573d6000803e3d6000fd5b50505050505056fe416363657373206973206f6e6c7920616c6c6f7765642066726f6d20737065636966696320636f6e7472616374a265627a7a72315820be2c77e0339ee630d425d8236a9a66dbaf1661bf2c25938c075d1d8340f73e1664736f6c63430005110032",
  "source": "// This program is free software: you can redistribute it and/or modify\n// it under the terms of the GNU General Public License as published by\n// the Free Software Foundation, either version 3 of the License, or\n// (at your option) any later version.\n\n// This program is distributed in the hope that it will be useful,\n// but WITHOUT ANY WARRANTY; without even the implied warranty of\n// MERCHANTABILITY or FITNESS FOR A PARTICULAR PURPOSE.  See the\n// GNU General Public License for more details.\n\n// You should have received a copy of the GNU General Public License\n// along with this program.  If not, see <http://www.gnu.org/licenses/>.\n\npragma solidity ^0.5.5;\n\nimport \"../proxy/Proxied.sol\";\nimport \"./GenericDB.sol\";\nimport \"./GMGetterDB.sol\";\nimport \"../../libs/SafeMath.sol\";\nimport \"../../GameVarAndFee.sol\";\nimport \"../gamemanager/GameStore.sol\";\nimport \"../kittieHELL/KittieHell.sol\";\nimport \"../gamemanager/Forfeiter.sol\";\nimport \"../gamemanager/GameManager.sol\";\nimport \"../gamemanager/GameCreation.sol\";\n\n/**\n * @dev Stores game instances\n * @author @psychoplasma\n * @author @psychoplasma\n * @author @psychoplasma\n */\ncontract GMSetterDB is Proxied {\n using SafeMath for uint256;\n\n  GenericDB public genericDB;\n  GameVarAndFee public gameVarAndFee;\n  GMGetterDB public gmGetterDB;\n  GameStore public gameStore;\n  GameCreation public gameCreation;\n\n  bytes32 internal constant TABLE_KEY_GAME= keccak256(abi.encodePacked(\"GameTable\"));\n  string internal constant TABLE_NAME_BETTOR = \"BettorTable\";\n\n  modifier onlyExistentGame(uint256 gameId) {\n    require(doesGameExist(gameId));\n    _;\n  }\n  \n  constructor(GenericDB _genericDB) public {\n    setGenericDB(_genericDB);\n  }\n\n  function setGenericDB(GenericDB _genericDB) public onlyOwner {\n    genericDB = _genericDB;\n  }\n\n  function initialize() external onlyOwner {\n    gameVarAndFee = GameVarAndFee(proxy.getContract(CONTRACT_NAME_GAMEVARANDFEE));\n    gmGetterDB = GMGetterDB(proxy.getContract(CONTRACT_NAME_GM_GETTER_DB));\n    gameStore = GameStore(proxy.getContract(CONTRACT_NAME_GAMESTORE));\n    gameCreation = GameCreation(proxy.getContract(CONTRACT_NAME_GAMECREATION));\n  }\n\n /**\n   * @dev Creates a new game item on game table\n   */\n  function createGame\n  (\n    address playerRed, address playerBlack,\n    uint256 kittyRed, uint256 kittyBlack,\n    uint256 gameStartTime\n  )\n    external\n    onlyContract(CONTRACT_NAME_GAMECREATION)\n    returns (uint256 gameId)\n  {\n    // Get the lastest item in the linkedlist.\n    // Note that 0 means the HEAD of the list always and \n    // direction(true) indicates that we are going to the end of the list.\n    (,uint256 prevGameId) = genericDB.getAdjacent(CONTRACT_NAME_GM_SETTER_DB, TABLE_KEY_GAME, 0, true);\n    // And create new item with an incremental id.\n    // Note that we don't need to check any existance here, because\n    // exsistance of the previous item in the list already self-verifies.\n    gameId = prevGameId.add(1);\n    genericDB.pushNodeToLinkedList(CONTRACT_NAME_GM_SETTER_DB, TABLE_KEY_GAME, gameId);\n\n    uint256 gamePrestartTime = gameStartTime.sub(gameVarAndFee.getGamePrestart());\n    uint256 gameEndTime = gameStartTime.add(gameVarAndFee.getGameDuration());\n\n    // Save players for the created game\n    genericDB.setAddressStorage(CONTRACT_NAME_GM_SETTER_DB, keccak256(abi.encodePacked(gameId, \"playerRed\")), playerRed);\n    genericDB.setAddressStorage(CONTRACT_NAME_GM_SETTER_DB, keccak256(abi.encodePacked(gameId, \"playerBlack\")), playerBlack);\n\n    // Set kitties for the given players\n    genericDB.setUintStorage(CONTRACT_NAME_GM_SETTER_DB, keccak256(abi.encodePacked(gameId, playerRed, \"kitty\")), kittyRed);\n    genericDB.setUintStorage(CONTRACT_NAME_GM_SETTER_DB, keccak256(abi.encodePacked(gameId, playerBlack, \"kitty\")), kittyBlack);\n\n    // solium-disable-next-line security/no-block-members\n    genericDB.setUintStorage(CONTRACT_NAME_GM_SETTER_DB, keccak256(abi.encodePacked(gameId, \"createdTime\")), now);\n    genericDB.setUintStorage(CONTRACT_NAME_GM_SETTER_DB, keccak256(abi.encodePacked(gameId, \"startTime\")), gameStartTime);\n    genericDB.setUintStorage(CONTRACT_NAME_GM_SETTER_DB, keccak256(abi.encodePacked(gameId, \"prestartTime\")), gamePrestartTime);\n    genericDB.setUintStorage(CONTRACT_NAME_GM_SETTER_DB, keccak256(abi.encodePacked(gameId, \"endTime\")), gameEndTime);\n\n    setGameState(gameId);\n  }\n\n  /**\n   * @dev Adds a bettor to the given game iff the game exists.\n   * If the bettor already exists in the game, updates her bet.\n   */\n  function addBettor(uint256 gameId, address bettor, address supportedPlayer)\n    external\n    onlyContract(CONTRACT_NAME_GAMEMANAGER)\n    onlyExistentGame(gameId)\n    returns(bool)\n  {\n    // If bettor does not exist in the game given, add bettor to the game.\n    if (!genericDB.doesNodeAddrExist(CONTRACT_NAME_GM_SETTER_DB, keccak256(abi.encodePacked(gameId, TABLE_NAME_BETTOR)), bettor)) {\n      // Add the bettor to the bettor table.\n      genericDB.pushNodeToLinkedListAddr(CONTRACT_NAME_GM_SETTER_DB, keccak256(abi.encodePacked(gameId, TABLE_NAME_BETTOR)), bettor);\n      // Save the supported player for this bettor\n      genericDB.setAddressStorage(\n        CONTRACT_NAME_GM_SETTER_DB,\n        keccak256(abi.encodePacked(gameId, bettor, \"supportedPlayer\")),\n        supportedPlayer\n      );\n\n      //Set payed fee to true\n      genericDB.setBoolStorage(CONTRACT_NAME_GM_SETTER_DB, keccak256(abi.encodePacked(gameId, bettor, \"ticketFeePaid\")), true);\n      // And increase the number of supporters for that player\n      incrementSupporters(gameId, supportedPlayer);\n      return true;\n    }\n    return false;\n  }\n\n  /**\n   * @dev Increments the number of supporters for the given player\n   */\n  function incrementSupporters(uint256 gameId, address player) internal {\n    // Increment number of supporters by one\n    uint256 supporters = genericDB.getUintStorage(\n      CONTRACT_NAME_GM_SETTER_DB,\n      keccak256(abi.encodePacked(gameId, player, \"supporters\"))\n    );\n    genericDB.setUintStorage(\n      CONTRACT_NAME_GM_SETTER_DB,\n      keccak256(abi.encodePacked(gameId, player, \"supporters\")),\n      supporters.add(1)\n    );\n  }\n\n  /**\n   * @dev *\n   */\n  function updateBettor(uint256 gameId, address bettor, uint256 betAmount, address supportedPlayer)\n    external\n    onlyContract(CONTRACT_NAME_GAMEMANAGER)\n    onlyExistentGame(gameId)\n  {\n    uint256 prevAmount;\n\n    if(bettor != supportedPlayer){\n      // Check if bettor does not exist in the game given, add her to the game.\n      require(genericDB.doesNodeAddrExist(CONTRACT_NAME_GM_SETTER_DB,\n        keccak256(abi.encodePacked(gameId, TABLE_NAME_BETTOR)), bettor));\n        \n      // Get the supported player for this bettor\n      address _supportedPlayer = genericDB.getAddressStorage(\n        CONTRACT_NAME_GM_SETTER_DB,\n        keccak256(abi.encodePacked(gameId, bettor, \"supportedPlayer\"))\n      );\n\n      require(_supportedPlayer == supportedPlayer);\n\n      // Update bettor's total bet amount\n      prevAmount = genericDB.getUintStorage(\n        CONTRACT_NAME_GM_SETTER_DB,\n        keccak256(abi.encodePacked(gameId, bettor, \"betAmount\"))\n      );\n      genericDB.setUintStorage(\n        CONTRACT_NAME_GM_SETTER_DB,\n        keccak256(abi.encodePacked(gameId, bettor, \"betAmount\")),\n        prevAmount.add(betAmount)\n      );\n    }\n    else{\n      prevAmount = genericDB.getUintStorage(\n        CONTRACT_NAME_GM_SETTER_DB,\n        keccak256(abi.encodePacked(gameId, bettor, \"betAmount\"))\n      );\n\n      genericDB.setUintStorage(\n        CONTRACT_NAME_GM_SETTER_DB,\n        keccak256(abi.encodePacked(gameId, bettor, \"betAmount\")),\n        prevAmount.add(betAmount)\n      );\n    }\n\n    // Update total bet amount in the game for a given corner\n    // updateTotalBet(gameId, betAmount, supportedPlayer);\n    prevAmount = genericDB.getUintStorage(\n      CONTRACT_NAME_GM_SETTER_DB,\n      keccak256(abi.encodePacked(gameId, supportedPlayer, \"totalBetAmount\"))\n    );\n\n    genericDB.setUintStorage(\n      CONTRACT_NAME_GM_SETTER_DB,\n      keccak256(abi.encodePacked(gameId, supportedPlayer, \"totalBetAmount\")),\n      prevAmount.add(betAmount)\n    );\n  }\n\n  /**\n   * @dev Adds 1 minute to the game end time\n   */\n  function updateEndTime(uint256 gameId, uint newTime)\n    external\n    onlyContract(CONTRACT_NAME_GAMEMANAGER)\n    onlyExistentGame(gameId)\n  {\n    genericDB.setUintStorage(CONTRACT_NAME_GM_SETTER_DB, keccak256(abi.encodePacked(gameId, \"endTime\")), newTime);\n  }\n\n  /**\n   * @dev Update game to one of 5 states\n   */\n  function updateGameState(uint256 gameId, uint256 state)\n    external\n    onlyContract(CONTRACT_NAME_GAMEMANAGER)\n    onlyExistentGame(gameId)\n  {\n    gameCreation.scheduleJobs(gameId, state);\n    genericDB.setUintStorage(CONTRACT_NAME_GM_SETTER_DB, keccak256(abi.encodePacked(gameId, \"state\")), state);\n  }\n\n  // ==== CRONJOBS FUNCTIONS\n  function updateGameStateCron(uint256 gameId)\n    external\n    onlyContract(CONTRACT_NAME_GAMECREATION)\n    onlyExistentGame(gameId){\n      gameCreation.scheduleJobs(gameId, 1);\n      genericDB.setUintStorage(CONTRACT_NAME_GM_SETTER_DB, keccak256(abi.encodePacked(gameId, \"state\")), 1);\n  }\n\n  function setGameState(uint256 gameId)\n    internal\n    onlyExistentGame(gameId){\n      gameCreation.scheduleJobs(gameId, 0);\n      genericDB.setUintStorage(CONTRACT_NAME_GM_SETTER_DB, keccak256(abi.encodePacked(gameId, \"state\")), 0);\n  }\n\n  /**\n   * @dev Update kittie playing game Id\n   */\n  function updateKittiesGame(uint kittyBlack, uint kittyRed, uint gameId)\n    external\n    onlyContract(CONTRACT_NAME_GAMECREATION)\n  {\n    genericDB.setUintStorage(CONTRACT_NAME_GM_SETTER_DB, keccak256(abi.encodePacked(kittyBlack, \"playingGame\")), gameId);\n    genericDB.setUintStorage(CONTRACT_NAME_GM_SETTER_DB, keccak256(abi.encodePacked(kittyRed, \"playingGame\")), gameId);\n  }\n\n  /**\n   * @dev set initial ETH and initial KTY in honeypot created by Endowment\n   */\n  function setHoneypotInfo(uint256 gameId, uint256 _initialKTY, uint256 _initialETH)\n    external\n    onlyContract(CONTRACT_NAME_GAMECREATION)\n    onlyExistentGame(gameId)\n  {\n    genericDB.setUintStorage(\n      CONTRACT_NAME_GM_SETTER_DB,\n      keccak256(abi.encodePacked(gameId, \"initialKty\")),\n      _initialKTY\n    );\n    genericDB.setUintStorage(\n      CONTRACT_NAME_GM_SETTER_DB,\n      keccak256(abi.encodePacked(gameId, \"initialEth\")),\n      _initialETH\n    );\n  }\n\n  function storeHoneypotDetails(uint256 gameId)\n    external\n    onlyContract(CONTRACT_NAME_GAMEMANAGER)\n    onlyExistentGame(gameId)\n  {\n    (,,,uint totalEth,,uint totalKty,) = gmGetterDB.getHoneypotInfo(gameId);\n    genericDB.setUintStorage(CONTRACT_NAME_GM_SETTER_DB, keccak256(abi.encodePacked(gameId, \"totalEth\")), totalEth);\n    genericDB.setUintStorage(CONTRACT_NAME_GM_SETTER_DB, keccak256(abi.encodePacked(gameId, \"totalKty\")), totalKty);\n  }\n\n  function doesGameExist(uint256 gameId) public view returns (bool) {\n    return genericDB.doesNodeExist(CONTRACT_NAME_GM_SETTER_DB, TABLE_KEY_GAME, gameId);\n  }\n\n  /**\n   * @dev set winner for each game\n   */\n  function setWinners(uint256 gameId, address winner, address topBettor, address secondTopBettor)\n    external\n    onlyContract(CONTRACT_NAME_GAMEMANAGER)\n    onlyExistentGame(gameId)\n  {\n    genericDB.setAddressStorage(CONTRACT_NAME_GM_SETTER_DB, keccak256(abi.encodePacked(gameId, \"winner\")), winner);\n    genericDB.setAddressStorage(CONTRACT_NAME_GM_SETTER_DB, keccak256(abi.encodePacked(gameId, \"topBettor\")), topBettor);\n    genericDB.setAddressStorage(CONTRACT_NAME_GM_SETTER_DB, keccak256(abi.encodePacked(gameId, \"secondTopBettor\")), secondTopBettor);\n  }\n\n  // function updateTopbettors(uint256 _gameId, address _account, address _supportedPlayer)\n  //   external\n  //   onlyContract(CONTRACT_NAME_GAMEMANAGER)\n  //   onlyExistentGame(_gameId)\n  // {\n\n  //   address topBettor = gameStore.getTopBettor(_gameId, _supportedPlayer);\n  //   (uint256 bettorTotal,,,) = gmGetterDB.getSupporterInfo(_gameId, _account);\n  //   (uint256 topBettorEth,,,) = gmGetterDB.getSupporterInfo(_gameId, topBettor);\n    \n  //   if(topBettor != _account){\n  //     if (bettorTotal > topBettorEth){\n  //       //If topBettor is already the account, dont update\n  //       gameStore.updateTopBettor(_gameId, _supportedPlayer, _account);\n  //       gameStore.updateSecondTopBettor(_gameId, _supportedPlayer, topBettor);\n  //     }\n  //     else {\n  //       address secondTopBettor = gameStore.getSecondTopBettor(_gameId, _supportedPlayer);\n  //       (uint256 secondTopBettorEth,,,) = gmGetterDB.getSupporterInfo(_gameId, secondTopBettor);\n  //       if (bettorTotal > secondTopBettorEth && secondTopBettor != _account){\n  //           gameStore.updateSecondTopBettor(_gameId, _supportedPlayer, _account);\n  //       }\n  //     }\n  //   }\n  // }\n}\n",
  "sourcePath": "/Users/ziweizhang/Desktop/multi-sig/contracts/contracts/modules/databases/GMSetterDB.sol",
  "compiler": {
    "name": "solc",
    "version": "0.5.17+commit.d19bba13.Emscripten.clang"
  },
  "schemaVersion": "3.0.23",
  "updatedAt": "2020-07-18T12:12:07.017Z",
  "devdoc": {
    "author": "@psychoplasma@psychoplasma@psychoplasma",
    "details": "Stores game instances",
    "methods": {
      "addBettor(uint256,address,address)": {
        "details": "Adds a bettor to the given game iff the game exists. If the bettor already exists in the game, updates her bet."
      },
      "createGame(address,address,uint256,uint256,uint256)": {
        "details": "Creates a new game item on game table"
      },
      "setHoneypotInfo(uint256,uint256,uint256)": {
        "details": "set initial ETH and initial KTY in honeypot created by Endowment"
      },
      "setWinners(uint256,address,address,address)": {
        "details": "set winner for each game"
      },
      "updateBettor(uint256,address,uint256,address)": {
        "details": "*"
      },
      "updateEndTime(uint256,uint256)": {
        "details": "Adds 1 minute to the game end time"
      },
      "updateGameState(uint256,uint256)": {
        "details": "Update game to one of 5 states"
      },
      "updateKittiesGame(uint256,uint256,uint256)": {
        "details": "Update kittie playing game Id"
      }
    }
  },
  "userdoc": {
    "methods": {
      "setProxy(address)": {
        "notice": "Set/update address of Proxy contract"
      }
    }
  }
}