{
  "contractName": "GuardImplementor",
  "abi": [
    {
      "constant": true,
      "inputs": [],
      "name": "owner",
      "outputs": [
        {
          "internalType": "address payable",
          "name": "",
          "type": "address"
        }
      ],
      "payable": false,
      "stateMutability": "view",
      "type": "function"
    },
    {
      "constant": true,
      "inputs": [],
      "name": "proxy",
      "outputs": [
        {
          "internalType": "contract ProxyBase",
          "name": "",
          "type": "address"
        }
      ],
      "payable": false,
      "stateMutability": "view",
      "type": "function"
    },
    {
      "constant": false,
      "inputs": [
        {
          "internalType": "contract ProxyBase",
          "name": "_proxy",
          "type": "address"
        }
      ],
      "name": "setProxy",
      "outputs": [],
      "payable": false,
      "stateMutability": "nonpayable",
      "type": "function"
    },
    {
      "constant": false,
      "inputs": [
        {
          "internalType": "address payable",
          "name": "newOwner",
          "type": "address"
        }
      ],
      "name": "transferOwnership",
      "outputs": [],
      "payable": false,
      "stateMutability": "nonpayable",
      "type": "function"
    },
    {
      "constant": false,
      "inputs": [],
      "name": "canCalledByOnlySuperAdmin",
      "outputs": [],
      "payable": false,
      "stateMutability": "nonpayable",
      "type": "function"
    },
    {
      "constant": false,
      "inputs": [],
      "name": "canCalledByOnlyAdmin",
      "outputs": [],
      "payable": false,
      "stateMutability": "nonpayable",
      "type": "function"
    },
    {
      "constant": false,
      "inputs": [],
      "name": "canCalledByOnlyPlayer",
      "outputs": [],
      "payable": false,
      "stateMutability": "nonpayable",
      "type": "function"
    },
    {
      "constant": false,
      "inputs": [],
      "name": "canCalledByOnlyBettor",
      "outputs": [],
      "payable": false,
      "stateMutability": "nonpayable",
      "type": "function"
    }
  ],
  "bytecode": "0x6080604052336000806101000a81548173ffffffffffffffffffffffffffffffffffffffff021916908373ffffffffffffffffffffffffffffffffffffffff160217905550610ad2806100536000396000f3fe608060405234801561001057600080fd5b50600436106100885760003560e01c806397107d6d1161005b57806397107d6d146100f5578063b3fad87a14610139578063ec55688914610143578063f2fde38b1461018d57610088565b80632a0ed6d31461008d5780635d784b251461009757806367b068f1146100a15780638da5cb5b146100ab575b600080fd5b6100956101d1565b005b61009f6102cb565b005b6100a96103c5565b005b6100b36104bf565b604051808273ffffffffffffffffffffffffffffffffffffffff1673ffffffffffffffffffffffffffffffffffffffff16815260200191505060405180910390f35b6101376004803603602081101561010b57600080fd5b81019080803573ffffffffffffffffffffffffffffffffffffffff1690602001909291905050506104e4565b005b61014161057e565b005b61014b610678565b604051808273ffffffffffffffffffffffffffffffffffffffff1673ffffffffffffffffffffffffffffffffffffffff16815260200191505060405180910390f35b6101cf600480360360208110156101a357600080fd5b81019080803573ffffffffffffffffffffffffffffffffffffffff16906020019092919050505061069e565b005b600073ffffffffffffffffffffffffffffffffffffffff163373ffffffffffffffffffffffffffffffffffffffff16141561020857fe5b6102466040518060400160405280600681526020017f706c61796572000000000000000000000000000000000000000000000000000081525061076c565b6102b8576040517f08c379a000000000000000000000000000000000000000000000000000000000815260040180806020018281038252600b8152602001807f4f6e6c7920706c6179657200000000000000000000000000000000000000000081525060200191505060405180910390fd5b6001600260008282540192505081905550565b600073ffffffffffffffffffffffffffffffffffffffff163373ffffffffffffffffffffffffffffffffffffffff16141561030257fe5b6103406040518060400160405280600b81526020017f73757065725f61646d696e00000000000000000000000000000000000000000081525061076c565b6103b2576040517f08c379a00000000000000000000000000000000000000000000000000000000081526004018080602001828103825260108152602001807f4f6e6c792073757065722061646d696e0000000000000000000000000000000081525060200191505060405180910390fd5b6001600260008282540192505081905550565b600073ffffffffffffffffffffffffffffffffffffffff163373ffffffffffffffffffffffffffffffffffffffff1614156103fc57fe5b61043a6040518060400160405280600681526020017f626574746f72000000000000000000000000000000000000000000000000000081525061076c565b6104ac576040517f08c379a000000000000000000000000000000000000000000000000000000000815260040180806020018281038252600b8152602001807f4f6e6c7920626574746f7200000000000000000000000000000000000000000081525060200191505060405180910390fd5b6001600260008282540192505081905550565b6000809054906101000a900473ffffffffffffffffffffffffffffffffffffffff1681565b6000809054906101000a900473ffffffffffffffffffffffffffffffffffffffff1673ffffffffffffffffffffffffffffffffffffffff163373ffffffffffffffffffffffffffffffffffffffff161461053a57fe5b80600160006101000a81548173ffffffffffffffffffffffffffffffffffffffff021916908373ffffffffffffffffffffffffffffffffffffffff16021790555050565b600073ffffffffffffffffffffffffffffffffffffffff163373ffffffffffffffffffffffffffffffffffffffff1614156105b557fe5b6105f36040518060400160405280600581526020017f61646d696e00000000000000000000000000000000000000000000000000000081525061076c565b610665576040517f08c379a000000000000000000000000000000000000000000000000000000000815260040180806020018281038252600a8152602001807f4f6e6c792061646d696e0000000000000000000000000000000000000000000081525060200191505060405180910390fd5b6001600260008282540192505081905550565b600160009054906101000a900473ffffffffffffffffffffffffffffffffffffffff1681565b6000809054906101000a900473ffffffffffffffffffffffffffffffffffffffff1673ffffffffffffffffffffffffffffffffffffffff163373ffffffffffffffffffffffffffffffffffffffff16146106f457fe5b600073ffffffffffffffffffffffffffffffffffffffff168173ffffffffffffffffffffffffffffffffffffffff161461076957806000806101000a81548173ffffffffffffffffffffffffffffffffffffffff021916908373ffffffffffffffffffffffffffffffffffffffff1602179055505b50565b6000600160009054906101000a900473ffffffffffffffffffffffffffffffffffffffff1673ffffffffffffffffffffffffffffffffffffffff1663358177736040518060400160405280600681526020017f526f6c65444200000000000000000000000000000000000000000000000000008152506040518263ffffffff1660e01b81526004018080602001828103825283818151815260200191508051906020019080838360005b83811015610831578082015181840152602081019050610816565b50505050905090810190601f16801561085e5780820380516001836020036101000a031916815260200191505b509250505060206040518083038186803b15801561087b57600080fd5b505afa15801561088f573d6000803e3d6000fd5b505050506040513d60208110156108a557600080fd5b810190808051906020019092919050505073ffffffffffffffffffffffffffffffffffffffff16636c9cd097836108da6109e8565b6040518363ffffffff1660e01b815260040180806020018373ffffffffffffffffffffffffffffffffffffffff1673ffffffffffffffffffffffffffffffffffffffff168152602001828103825284818151815260200191508051906020019080838360005b8381101561095b578082015181840152602081019050610940565b50505050905090810190601f1680156109885780820380516001836020036101000a031916815260200191505b50935050505060206040518083038186803b1580156109a657600080fd5b505afa1580156109ba573d6000803e3d6000fd5b505050506040513d60208110156109d057600080fd5b81019080805190602001909291905050509050919050565b6000600160009054906101000a900473ffffffffffffffffffffffffffffffffffffffff1673ffffffffffffffffffffffffffffffffffffffff163373ffffffffffffffffffffffffffffffffffffffff1614610a4757339050610a9a565b6000601436036000602052601481602c37602051915050600073ffffffffffffffffffffffffffffffffffffffff168173ffffffffffffffffffffffffffffffffffffffff161415610a9557fe5b809150505b9056fea265627a7a72315820378e730ad407b67a15b3c05f3962794f7c46f97b5996b5643f685874ed62ed7b64736f6c63430005110032",
  "source": "pragma solidity ^0.5.5;\r\n\r\nimport \"../authority/Guard.sol\";\r\n\r\n\r\ncontract GuardImplementor is Guard {\r\n  uint256 data;\r\n\r\n  function canCalledByOnlySuperAdmin() public onlySuperAdmin {\r\n    data += 1;\r\n  }\r\n\r\n  function canCalledByOnlyAdmin() public onlyAdmin {\r\n    data += 1;\r\n  }\r\n\r\n  function canCalledByOnlyPlayer() public onlyPlayer {\r\n    data += 1;\r\n  }\r\n\r\n  function canCalledByOnlyBettor() public onlyBettor {\r\n    data += 1;\r\n  }\r\n}\r\n",
  "sourcePath": "C:/Users/Alex/Desktop/MyProjects/alpha/contracts/mocks/GuardImplementor.sol",
  "compiler": {
    "name": "solc",
    "version": "0.5.17+commit.d19bba13.Emscripten.clang"
  },
  "schemaVersion": "3.0.11",
  "updatedAt": "2020-04-04T10:44:50.570Z",
  "devdoc": {
    "methods": {}
  },
  "userdoc": {
    "methods": {
      "setProxy(address)": {
        "notice": "Set/update address of Proxy contract"
      }
    }
  }
}