{
  "contractName": "HasNoEther",
  "abi": [
    {
      "inputs": [],
      "payable": true,
      "stateMutability": "payable",
      "type": "constructor"
    },
    {
      "anonymous": false,
      "inputs": [
        {
          "indexed": true,
          "internalType": "address",
          "name": "previousOwner",
          "type": "address"
        },
        {
          "indexed": true,
          "internalType": "address",
          "name": "newOwner",
          "type": "address"
        }
      ],
      "name": "OwnershipTransferred",
      "type": "event"
    },
    {
      "payable": false,
      "stateMutability": "nonpayable",
      "type": "fallback"
    },
    {
      "constant": true,
      "inputs": [],
      "name": "owner",
      "outputs": [
        {
          "internalType": "address",
          "name": "",
          "type": "address"
        }
      ],
      "payable": false,
      "stateMutability": "view",
      "type": "function"
    },
    {
      "constant": false,
      "inputs": [
        {
          "internalType": "address",
          "name": "newOwner",
          "type": "address"
        }
      ],
      "name": "transferOwnership",
      "outputs": [],
      "payable": false,
      "stateMutability": "nonpayable",
      "type": "function"
    },
    {
      "constant": false,
      "inputs": [],
      "name": "reclaimEther",
      "outputs": [],
      "payable": false,
      "stateMutability": "nonpayable",
      "type": "function"
    }
  ],
  "bytecode": "0x6080604052336000806101000a81548173ffffffffffffffffffffffffffffffffffffffff021916908373ffffffffffffffffffffffffffffffffffffffff1602179055506000341461005157600080fd5b61033d806100606000396000f3fe608060405234801561001057600080fd5b50600436106100415760003560e01c80638da5cb5b146100435780639f727c271461008d578063f2fde38b14610097575b005b61004b6100db565b604051808273ffffffffffffffffffffffffffffffffffffffff1673ffffffffffffffffffffffffffffffffffffffff16815260200191505060405180910390f35b610095610100565b005b6100d9600480360360208110156100ad57600080fd5b81019080803573ffffffffffffffffffffffffffffffffffffffff1690602001909291905050506101b7565b005b6000809054906101000a900473ffffffffffffffffffffffffffffffffffffffff1681565b6000809054906101000a900473ffffffffffffffffffffffffffffffffffffffff1673ffffffffffffffffffffffffffffffffffffffff163373ffffffffffffffffffffffffffffffffffffffff161461015957600080fd5b6000809054906101000a900473ffffffffffffffffffffffffffffffffffffffff1673ffffffffffffffffffffffffffffffffffffffff166108fc479081150290604051600060405180830381858888f193505050506101b557fe5b565b6000809054906101000a900473ffffffffffffffffffffffffffffffffffffffff1673ffffffffffffffffffffffffffffffffffffffff163373ffffffffffffffffffffffffffffffffffffffff161461021057600080fd5b600073ffffffffffffffffffffffffffffffffffffffff168173ffffffffffffffffffffffffffffffffffffffff16141561024a57600080fd5b8073ffffffffffffffffffffffffffffffffffffffff166000809054906101000a900473ffffffffffffffffffffffffffffffffffffffff1673ffffffffffffffffffffffffffffffffffffffff167f8be0079c531659141344cd1fd0a4f28419497f9722a3daafe3b4186f6b6457e060405160405180910390a3806000806101000a81548173ffffffffffffffffffffffffffffffffffffffff021916908373ffffffffffffffffffffffffffffffffffffffff1602179055505056fea265627a7a72315820008849d6f2d31427785d63c04732eb11a2eb8e561f8b744e51deb3dc323484be64736f6c63430005110032",
  "source": "pragma solidity ^0.5.5;\n\nimport \"./Ownable.sol\";\n\n/**\n * @title Contracts that should not own Ether\n * @author Remco Bloemen <remco@2π.com>\n * @dev This tries to block incoming ether to prevent accidental loss of Ether. Should Ether end up\n * in the contract, it will allow the owner to reclaim this ether.\n * @notice Ether can still be send to this contract by:\n * calling functions labeled `payable`\n * `selfdestruct(contract_address)`\n * mining directly to the contract address\n*/\ncontract HasNoEther is Ownable {\n\n  /**\n  * @dev Constructor that rejects incoming Ether\n  * @dev The `payable` flag is added so we can access `msg.value` without compiler warning. If we\n  * leave out payable, then Solidity will allow inheriting contracts to implement a payable\n  * constructor. By doing it this way we prevent a payable constructor from working. Alternatively\n  * we could use assembly to access msg.value.\n  */\n  constructor() public payable {\n    require(msg.value == 0);\n  }\n\n  /**\n   * @dev Disallows direct send by settings a default function without the `payable` flag.\n   */\n  function() external {\n  }\n\n  /**\n   * @dev Transfer all Ether held by the contract to the owner.\n   */\n  function reclaimEther() external onlyOwner {\n    assert(address(uint160(owner)).send(address(this).balance));\n  }\n}\n",
  "sourcePath": "/Users/ziweizhang/Desktop/EarningsTracker/alpha/contracts/vesting/zeppelin/HasNoEther.sol",
  "compiler": {
    "name": "solc",
    "version": "0.5.17+commit.d19bba13.Emscripten.clang"
  },
  "schemaVersion": "3.0.23",
  "updatedAt": "2020-04-14T18:58:00.342Z",
  "devdoc": {
    "author": "Remco Bloemen <remco@2π.com>",
    "details": "This tries to block incoming ether to prevent accidental loss of Ether. Should Ether end up in the contract, it will allow the owner to reclaim this ether.",
    "methods": {
      "constructor": {
        "details": "Constructor that rejects incoming EtherThe `payable` flag is added so we can access `msg.value` without compiler warning. If we leave out payable, then Solidity will allow inheriting contracts to implement a payable constructor. By doing it this way we prevent a payable constructor from working. Alternatively we could use assembly to access msg.value."
      },
      "reclaimEther()": {
        "details": "Transfer all Ether held by the contract to the owner."
      },
      "transferOwnership(address)": {
        "details": "Allows the current owner to transfer control of the contract to a newOwner.",
        "params": {
          "newOwner": "The address to transfer ownership to."
        }
      }
    },
    "title": "Contracts that should not own Ether"
  },
  "userdoc": {
    "methods": {},
    "notice": "Ether can still be send to this contract by: calling functions labeled `payable` `selfdestruct(contract_address)` mining directly to the contract address"
  }
}