{
  "contractName": "HasNoContracts",
  "abi": [
    {
      "anonymous": false,
      "inputs": [
        {
          "indexed": true,
          "internalType": "address",
          "name": "previousOwner",
          "type": "address"
        },
        {
          "indexed": true,
          "internalType": "address",
          "name": "newOwner",
          "type": "address"
        }
      ],
      "name": "OwnershipTransferred",
      "type": "event"
    },
    {
      "constant": true,
      "inputs": [],
      "name": "owner",
      "outputs": [
        {
          "internalType": "address",
          "name": "",
          "type": "address"
        }
      ],
      "payable": false,
      "stateMutability": "view",
      "type": "function"
    },
    {
      "constant": false,
      "inputs": [
        {
          "internalType": "address",
          "name": "newOwner",
          "type": "address"
        }
      ],
      "name": "transferOwnership",
      "outputs": [],
      "payable": false,
      "stateMutability": "nonpayable",
      "type": "function"
    },
    {
      "constant": false,
      "inputs": [
        {
          "internalType": "address",
          "name": "contractAddr",
          "type": "address"
        }
      ],
      "name": "reclaimContract",
      "outputs": [],
      "payable": false,
      "stateMutability": "nonpayable",
      "type": "function"
    }
  ],
  "bytecode": "0x6080604052336000806101000a81548173ffffffffffffffffffffffffffffffffffffffff021916908373ffffffffffffffffffffffffffffffffffffffff1602179055506103dd806100536000396000f3fe608060405234801561001057600080fd5b50600436106100415760003560e01c80632aed7f3f146100465780638da5cb5b1461008a578063f2fde38b146100d4575b600080fd5b6100886004803603602081101561005c57600080fd5b81019080803573ffffffffffffffffffffffffffffffffffffffff169060200190929190505050610118565b005b610092610232565b604051808273ffffffffffffffffffffffffffffffffffffffff1673ffffffffffffffffffffffffffffffffffffffff16815260200191505060405180910390f35b610116600480360360208110156100ea57600080fd5b81019080803573ffffffffffffffffffffffffffffffffffffffff169060200190929190505050610257565b005b6000809054906101000a900473ffffffffffffffffffffffffffffffffffffffff1673ffffffffffffffffffffffffffffffffffffffff163373ffffffffffffffffffffffffffffffffffffffff161461017157600080fd5b60008190508073ffffffffffffffffffffffffffffffffffffffff1663f2fde38b6000809054906101000a900473ffffffffffffffffffffffffffffffffffffffff166040518263ffffffff1660e01b8152600401808273ffffffffffffffffffffffffffffffffffffffff1673ffffffffffffffffffffffffffffffffffffffff168152602001915050600060405180830381600087803b15801561021657600080fd5b505af115801561022a573d6000803e3d6000fd5b505050505050565b6000809054906101000a900473ffffffffffffffffffffffffffffffffffffffff1681565b6000809054906101000a900473ffffffffffffffffffffffffffffffffffffffff1673ffffffffffffffffffffffffffffffffffffffff163373ffffffffffffffffffffffffffffffffffffffff16146102b057600080fd5b600073ffffffffffffffffffffffffffffffffffffffff168173ffffffffffffffffffffffffffffffffffffffff1614156102ea57600080fd5b8073ffffffffffffffffffffffffffffffffffffffff166000809054906101000a900473ffffffffffffffffffffffffffffffffffffffff1673ffffffffffffffffffffffffffffffffffffffff167f8be0079c531659141344cd1fd0a4f28419497f9722a3daafe3b4186f6b6457e060405160405180910390a3806000806101000a81548173ffffffffffffffffffffffffffffffffffffffff021916908373ffffffffffffffffffffffffffffffffffffffff1602179055505056fea265627a7a7231582090388dcb68edd01440aa71a3c6381ae401d0a5db7b54a7ae437c0511cc603b2564736f6c63430005110032",
  "source": "pragma solidity ^0.5.5;\r\n\r\nimport \"./Ownable.sol\";\r\n\r\n/**\r\n * @title Contracts that should not own Contracts\r\n * @author Remco Bloemen <remco@2π.com>\r\n * @dev Should contracts (anything Ownable) end up being owned by this contract, it allows the owner\r\n * of this contract to reclaim ownership of the contracts.\r\n */\r\ncontract HasNoContracts is Ownable {\r\n\r\n  /**\r\n   * @dev Reclaim ownership of Ownable contracts\r\n   * @param contractAddr The address of the Ownable to be reclaimed.\r\n   */\r\n  function reclaimContract(address contractAddr) external onlyOwner {\r\n    Ownable contractInst = Ownable(contractAddr);\r\n    contractInst.transferOwnership(owner);\r\n  }\r\n}\r\n",
  "sourcePath": "C:\\Users\\Alex\\Desktop\\MyProjects\\alpha\\contracts\\vesting\\zeppelin\\HasNoContracts.sol",
  "compiler": {
    "name": "solc",
    "version": "0.5.17+commit.d19bba13.Emscripten.clang"
  },
  "schemaVersion": "3.0.11",
  "updatedAt": "2020-04-26T22:52:18.952Z",
  "devdoc": {
    "author": "Remco Bloemen <remco@2π.com>",
    "details": "Should contracts (anything Ownable) end up being owned by this contract, it allows the owner of this contract to reclaim ownership of the contracts.",
    "methods": {
      "reclaimContract(address)": {
        "details": "Reclaim ownership of Ownable contracts",
        "params": {
          "contractAddr": "The address of the Ownable to be reclaimed."
        }
      },
      "transferOwnership(address)": {
        "details": "Allows the current owner to transfer control of the contract to a newOwner.",
        "params": {
          "newOwner": "The address to transfer ownership to."
        }
      }
    },
    "title": "Contracts that should not own Contracts"
  },
  "userdoc": {
    "methods": {}
  }
}