{
  "contractName": "HitsResolve",
  "abi": [
    {
      "constant": true,
      "inputs": [],
      "name": "betting",
      "outputs": [
        {
          "internalType": "contract Betting",
          "name": "",
          "type": "address"
        }
      ],
      "payable": false,
      "stateMutability": "view",
      "type": "function"
    },
    {
      "constant": true,
      "inputs": [
        {
          "internalType": "uint256",
          "name": "",
          "type": "uint256"
        }
      ],
      "name": "currentRandom",
      "outputs": [
        {
          "internalType": "uint256",
          "name": "",
          "type": "uint256"
        }
      ],
      "payable": false,
      "stateMutability": "view",
      "type": "function"
    },
    {
      "constant": true,
      "inputs": [],
      "name": "owner",
      "outputs": [
        {
          "internalType": "address payable",
          "name": "",
          "type": "address"
        }
      ],
      "payable": false,
      "stateMutability": "view",
      "type": "function"
    },
    {
      "constant": true,
      "inputs": [],
      "name": "proxy",
      "outputs": [
        {
          "internalType": "contract ProxyBase",
          "name": "",
          "type": "address"
        }
      ],
      "payable": false,
      "stateMutability": "view",
      "type": "function"
    },
    {
      "constant": false,
      "inputs": [
        {
          "internalType": "contract ProxyBase",
          "name": "_proxy",
          "type": "address"
        }
      ],
      "name": "setProxy",
      "outputs": [],
      "payable": false,
      "stateMutability": "nonpayable",
      "type": "function"
    },
    {
      "constant": false,
      "inputs": [
        {
          "internalType": "address payable",
          "name": "newOwner",
          "type": "address"
        }
      ],
      "name": "transferOwnership",
      "outputs": [],
      "payable": false,
      "stateMutability": "nonpayable",
      "type": "function"
    },
    {
      "constant": false,
      "inputs": [],
      "name": "initialize",
      "outputs": [],
      "payable": false,
      "stateMutability": "nonpayable",
      "type": "function"
    },
    {
      "constant": true,
      "inputs": [
        {
          "internalType": "uint256",
          "name": "seed",
          "type": "uint256"
        }
      ],
      "name": "randomGen",
      "outputs": [
        {
          "internalType": "uint256",
          "name": "randomNumber",
          "type": "uint256"
        }
      ],
      "payable": false,
      "stateMutability": "view",
      "type": "function"
    },
    {
      "constant": true,
      "inputs": [
        {
          "internalType": "uint256",
          "name": "seed",
          "type": "uint256"
        },
        {
          "internalType": "uint256",
          "name": "size",
          "type": "uint256"
        }
      ],
      "name": "multiBlockRandomGen",
      "outputs": [
        {
          "internalType": "uint256",
          "name": "",
          "type": "uint256"
        }
      ],
      "payable": false,
      "stateMutability": "view",
      "type": "function"
    },
    {
      "constant": false,
      "inputs": [
        {
          "internalType": "uint256",
          "name": "gameID",
          "type": "uint256"
        },
        {
          "internalType": "uint256",
          "name": "randomNum",
          "type": "uint256"
        }
      ],
      "name": "calculateCurrentRandom",
      "outputs": [
        {
          "internalType": "uint256",
          "name": "currentRandomNum",
          "type": "uint256"
        }
      ],
      "payable": false,
      "stateMutability": "nonpayable",
      "type": "function"
    },
    {
      "constant": true,
      "inputs": [
        {
          "internalType": "uint256",
          "name": "_gameID",
          "type": "uint256"
        },
        {
          "internalType": "uint256",
          "name": "_seed",
          "type": "uint256"
        }
      ],
      "name": "finalizeHitTypeValues",
      "outputs": [
        {
          "internalType": "uint256[7]",
          "name": "hitTypeVals",
          "type": "uint256[7]"
        }
      ],
      "payable": false,
      "stateMutability": "view",
      "type": "function"
    },
    {
      "constant": true,
      "inputs": [
        {
          "internalType": "uint256",
          "name": "_gameID",
          "type": "uint256"
        },
        {
          "internalType": "uint256",
          "name": "_seed",
          "type": "uint256"
        }
      ],
      "name": "assignLowValues",
      "outputs": [
        {
          "internalType": "uint256",
          "name": "lowPunch",
          "type": "uint256"
        },
        {
          "internalType": "uint256",
          "name": "lowKick",
          "type": "uint256"
        },
        {
          "internalType": "uint256",
          "name": "lowThunder",
          "type": "uint256"
        }
      ],
      "payable": false,
      "stateMutability": "view",
      "type": "function"
    },
    {
      "constant": true,
      "inputs": [
        {
          "internalType": "uint256",
          "name": "_gameID",
          "type": "uint256"
        },
        {
          "internalType": "uint256",
          "name": "_seed",
          "type": "uint256"
        }
      ],
      "name": "assignHighValues",
      "outputs": [
        {
          "internalType": "uint256",
          "name": "hardPunch",
          "type": "uint256"
        },
        {
          "internalType": "uint256",
          "name": "hardKick",
          "type": "uint256"
        },
        {
          "internalType": "uint256",
          "name": "hardThunder",
          "type": "uint256"
        }
      ],
      "payable": false,
      "stateMutability": "view",
      "type": "function"
    },
    {
      "constant": true,
      "inputs": [
        {
          "internalType": "uint256",
          "name": "_gameID",
          "type": "uint256"
        },
        {
          "internalType": "uint256",
          "name": "_seed",
          "type": "uint256"
        }
      ],
      "name": "assignSlashValue",
      "outputs": [
        {
          "internalType": "uint256",
          "name": "slash",
          "type": "uint256"
        }
      ],
      "payable": false,
      "stateMutability": "view",
      "type": "function"
    },
    {
      "constant": true,
      "inputs": [
        {
          "internalType": "uint256",
          "name": "_gameId",
          "type": "uint256"
        },
        {
          "internalType": "address",
          "name": "_player",
          "type": "address"
        },
        {
          "internalType": "uint256",
          "name": "_randomNum",
          "type": "uint256"
        }
      ],
      "name": "calculateFinalDirectAttacksPointsLowValue",
      "outputs": [
        {
          "internalType": "uint256",
          "name": "finalDirectAttacksPointsLowValue",
          "type": "uint256"
        }
      ],
      "payable": false,
      "stateMutability": "view",
      "type": "function"
    },
    {
      "constant": true,
      "inputs": [
        {
          "internalType": "uint256",
          "name": "_gameId",
          "type": "uint256"
        },
        {
          "internalType": "address",
          "name": "_player",
          "type": "address"
        },
        {
          "internalType": "uint256",
          "name": "_randomNum",
          "type": "uint256"
        }
      ],
      "name": "calculateFinalDirectAttacksPointsHighValue",
      "outputs": [
        {
          "internalType": "uint256",
          "name": "finalDirectAttacksPointsHighValue",
          "type": "uint256"
        }
      ],
      "payable": false,
      "stateMutability": "view",
      "type": "function"
    },
    {
      "constant": true,
      "inputs": [
        {
          "internalType": "uint256",
          "name": "_gameId",
          "type": "uint256"
        },
        {
          "internalType": "address",
          "name": "_player",
          "type": "address"
        },
        {
          "internalType": "uint256",
          "name": "_randomNum",
          "type": "uint256"
        }
      ],
      "name": "calculateFinalBlockedAttacksPointsLowValue",
      "outputs": [
        {
          "internalType": "uint256",
          "name": "finalBlockedAttacksPointsLowValue",
          "type": "uint256"
        }
      ],
      "payable": false,
      "stateMutability": "view",
      "type": "function"
    },
    {
      "constant": true,
      "inputs": [
        {
          "internalType": "uint256",
          "name": "_gameId",
          "type": "uint256"
        },
        {
          "internalType": "address",
          "name": "_player",
          "type": "address"
        },
        {
          "internalType": "uint256",
          "name": "_randomNum",
          "type": "uint256"
        }
      ],
      "name": "calculateFinalBlockedAttacksPointsHighValue",
      "outputs": [
        {
          "internalType": "uint256",
          "name": "finalBlockedAttacksPointsHighValue",
          "type": "uint256"
        }
      ],
      "payable": false,
      "stateMutability": "view",
      "type": "function"
    },
    {
      "constant": true,
      "inputs": [
        {
          "internalType": "uint256",
          "name": "_gameId",
          "type": "uint256"
        },
        {
          "internalType": "address",
          "name": "_player",
          "type": "address"
        },
        {
          "internalType": "uint256",
          "name": "_randomNum",
          "type": "uint256"
        }
      ],
      "name": "calculateFinalPoints",
      "outputs": [
        {
          "internalType": "uint256",
          "name": "finalPoints",
          "type": "uint256"
        }
      ],
      "payable": false,
      "stateMutability": "view",
      "type": "function"
    }
  ],
  "bytecode": "0x6080604052336000806101000a81548173ffffffffffffffffffffffffffffffffffffffff021916908373ffffffffffffffffffffffffffffffffffffffff160217905550612082806100536000396000f3fe608060405234801561001057600080fd5b50600436106101215760003560e01c806381d96a1f116100ad578063bae0634c11610071578063bae0634c14610582578063c0eef718146105dc578063ec55688914610648578063f2fde38b14610692578063fe5e4ca0146106d657610121565b806381d96a1f146104025780638a44187f1461044e5780638da5cb5b1461049a57806397107d6d146104e4578063981d85e91461052857610121565b8063434b14e7116100f4578063434b14e71461027257806354bb2179146102b457806357054c751461032057806362a8d2431461038c5780638129fc1c146103f857610121565b80632893870b146101265780632dba1d421461019a57806339b4b0d6146101dc57806341fa487614610226575b600080fd5b61015c6004803603604081101561013c57600080fd5b810190808035906020019092919080359060200190929190505050610742565b6040518082600760200280838360005b8381101561018757808201518184015260208101905061016c565b5050505090500191505060405180910390f35b6101c6600480360360208110156101b057600080fd5b8101908080359060200190929190505050610830565b6040518082815260200191505060405180910390f35b6101e4610848565b604051808273ffffffffffffffffffffffffffffffffffffffff1673ffffffffffffffffffffffffffffffffffffffff16815260200191505060405180910390f35b61025c6004803603604081101561023c57600080fd5b81019080803590602001909291908035906020019092919050505061086e565b6040518082815260200191505060405180910390f35b61029e6004803603602081101561028857600080fd5b810190808035906020019092919050505061091e565b6040518082815260200191505060405180910390f35b61030a600480360360608110156102ca57600080fd5b8101908080359060200190929190803573ffffffffffffffffffffffffffffffffffffffff169060200190929190803590602001909291905050506109ab565b6040518082815260200191505060405180910390f35b6103766004803603606081101561033657600080fd5b8101908080359060200190929190803573ffffffffffffffffffffffffffffffffffffffff16906020019092919080359060200190929190505050610c11565b6040518082815260200191505060405180910390f35b6103e2600480360360608110156103a257600080fd5b8101908080359060200190929190803573ffffffffffffffffffffffffffffffffffffffff16906020019092919080359060200190929190505050610e1e565b6040518082815260200191505060405180910390f35b61040061102b565b005b6104386004803603604081101561041857600080fd5b81019080803590602001909291908035906020019092919050505061120b565b6040518082815260200191505060405180910390f35b6104846004803603604081101561046457600080fd5b8101908080359060200190929190803590602001909291905050506112a1565b6040518082815260200191505060405180910390f35b6104a2611352565b604051808273ffffffffffffffffffffffffffffffffffffffff1673ffffffffffffffffffffffffffffffffffffffff16815260200191505060405180910390f35b610526600480360360208110156104fa57600080fd5b81019080803573ffffffffffffffffffffffffffffffffffffffff169060200190929190505050611377565b005b61055e6004803603604081101561053e57600080fd5b810190808035906020019092919080359060200190929190505050611411565b60405180848152602001838152602001828152602001935050505060405180910390f35b6105b86004803603604081101561059857600080fd5b810190808035906020019092919080359060200190929190505050611693565b60405180848152602001838152602001828152602001935050505060405180910390f35b610632600480360360608110156105f257600080fd5b8101908080359060200190929190803573ffffffffffffffffffffffffffffffffffffffff1690602001909291908035906020019092919050505061191e565b6040518082815260200191505060405180910390f35b61065061199f565b604051808273ffffffffffffffffffffffffffffffffffffffff1673ffffffffffffffffffffffffffffffffffffffff16815260200191505060405180910390f35b6106d4600480360360208110156106a857600080fd5b81019080803573ffffffffffffffffffffffffffffffffffffffff1690602001909291905050506119c5565b005b61072c600480360360608110156106ec57600080fd5b8101908080359060200190929190803573ffffffffffffffffffffffffffffffffffffffff16906020019092919080359060200190929190505050611a93565b6040518082815260200191505060405180910390f35b61074a611ffe565b60008060006107598686611411565b925092509250600080600061076e8989611693565b92509250925060006107808a8a6112a1565b9050868860006007811061079057fe5b60200201818152505085886001600781106107a757fe5b60200201818152505084886002600781106107be57fe5b60200201818152505083886003600781106107d557fe5b60200201818152505082886004600781106107ec57fe5b602002018181525050818860056007811061080357fe5b602002018181525050808860066007811061081a57fe5b6020020181815250505050505050505092915050565b60036020528060005260406000206000915090505481565b600260009054906101000a900473ffffffffffffffffffffffffffffffffffffffff1681565b6000806000905060008090505b8381101561091357600060026108ad600161089f8543611cf990919063ffffffff16565b611cf990919063ffffffff16565b408760405160200180838152602001828152602001925050506040516020818303038152906040528051906020012060001c816108e657fe5b061415610906576109038160020a83611d1090919063ffffffff16565b91505b808060010191505061087b565b508091505092915050565b6000610934600183611d1090919063ffffffff16565b9150606461094c600143611cf990919063ffffffff16565b40424485604051602001808581526020018481526020018381526020018281526020019450505050506040516020818303038152906040528051906020012060001c8161099557fe5b06905060648114156109a657606390505b919050565b60006109b5611ffe565b6109bf8584610742565b90506109c9611ffe565b600260009054906101000a900473ffffffffffffffffffffffffffffffffffffffff1673ffffffffffffffffffffffffffffffffffffffff1663dce2d9b487876040518363ffffffff1660e01b8152600401808381526020018273ffffffffffffffffffffffffffffffffffffffff1673ffffffffffffffffffffffffffffffffffffffff1681526020019250505060e06040518083038186803b158015610a7057600080fd5b505afa158015610a84573d6000803e3d6000fd5b505050506040513d601f19601f8201168201806040525060e0811015610aa957600080fd5b81019080919050509050610c06610afe6019610af084600660078110610acb57fe5b602002015186600660078110610add57fe5b6020020151611d2c90919063ffffffff16565b611d2c90919063ffffffff16565b610bf8610b496019610b3b86600560078110610b1657fe5b602002015188600560078110610b2857fe5b6020020151611d2c90919063ffffffff16565b611d2c90919063ffffffff16565b610bea610b946019610b8688600460078110610b6157fe5b60200201518a600460078110610b7357fe5b6020020151611d2c90919063ffffffff16565b611d2c90919063ffffffff16565b610bdc6019610bce89600360078110610ba957fe5b60200201518b600360078110610bbb57fe5b6020020151611d2c90919063ffffffff16565b611d2c90919063ffffffff16565b611d1090919063ffffffff16565b611d1090919063ffffffff16565b611d1090919063ffffffff16565b925050509392505050565b6000610c1b611ffe565b610c258584610742565b9050610c2f611ffe565b600260009054906101000a900473ffffffffffffffffffffffffffffffffffffffff1673ffffffffffffffffffffffffffffffffffffffff1663dce2d9b487876040518363ffffffff1660e01b8152600401808381526020018273ffffffffffffffffffffffffffffffffffffffff1673ffffffffffffffffffffffffffffffffffffffff1681526020019250505060e06040518083038186803b158015610cd657600080fd5b505afa158015610cea573d6000803e3d6000fd5b505050506040513d601f19601f8201168201806040525060e0811015610d0f57600080fd5b81019080919050509050610e13610d646019610d5684600260078110610d3157fe5b602002015186600260078110610d4357fe5b6020020151611d2c90919063ffffffff16565b611d2c90919063ffffffff16565b610e05610daf6019610da186600160078110610d7c57fe5b602002015188600160078110610d8e57fe5b6020020151611d2c90919063ffffffff16565b611d2c90919063ffffffff16565b610df76019610de987600060078110610dc457fe5b602002015189600060078110610dd657fe5b6020020151611d2c90919063ffffffff16565b611d2c90919063ffffffff16565b611d1090919063ffffffff16565b611d1090919063ffffffff16565b925050509392505050565b6000610e28611ffe565b610e328584610742565b9050610e3c611ffe565b600260009054906101000a900473ffffffffffffffffffffffffffffffffffffffff1673ffffffffffffffffffffffffffffffffffffffff1663851c453787876040518363ffffffff1660e01b8152600401808381526020018273ffffffffffffffffffffffffffffffffffffffff1673ffffffffffffffffffffffffffffffffffffffff1681526020019250505060e06040518083038186803b158015610ee357600080fd5b505afa158015610ef7573d6000803e3d6000fd5b505050506040513d601f19601f8201168201806040525060e0811015610f1c57600080fd5b81019080919050509050611020610f716064610f6384600260078110610f3e57fe5b602002015186600260078110610f5057fe5b6020020151611d2c90919063ffffffff16565b611d2c90919063ffffffff16565b611012610fbc6064610fae86600160078110610f8957fe5b602002015188600160078110610f9b57fe5b6020020151611d2c90919063ffffffff16565b611d2c90919063ffffffff16565b6110046064610ff687600060078110610fd157fe5b602002015189600060078110610fe357fe5b6020020151611d2c90919063ffffffff16565b611d2c90919063ffffffff16565b611d1090919063ffffffff16565b611d1090919063ffffffff16565b925050509392505050565b6000809054906101000a900473ffffffffffffffffffffffffffffffffffffffff1673ffffffffffffffffffffffffffffffffffffffff163373ffffffffffffffffffffffffffffffffffffffff161461108157fe5b600160009054906101000a900473ffffffffffffffffffffffffffffffffffffffff1673ffffffffffffffffffffffffffffffffffffffff1663358177736040518060400160405280600781526020017f42657474696e67000000000000000000000000000000000000000000000000008152506040518263ffffffff1660e01b81526004018080602001828103825283818151815260200191508051906020019080838360005b83811015611144578082015181840152602081019050611129565b50505050905090810190601f1680156111715780820380516001836020036101000a031916815260200191505b509250505060206040518083038186803b15801561118e57600080fd5b505afa1580156111a2573d6000803e3d6000fd5b505050506040513d60208110156111b857600080fd5b8101908080519060200190929190505050600260006101000a81548173ffffffffffffffffffffffffffffffffffffffff021916908373ffffffffffffffffffffffffffffffffffffffff160217905550565b60006040518060400160405280600b81526020017f47616d654d616e6167657200000000000000000000000000000000000000000081525061124c81611d63565b6000611274600360008781526020019081526020016000205485611d1090919063ffffffff16565b905061127f8161091e565b9250826003600087815260200190815260200160002081905550505092915050565b6000806003600085815260200190815260200160002054905060006112c784600161086e565b905060006112f160016112e38588611d1090919063ffffffff16565b611d1090919063ffffffff16565b905060008214156113205761131961025961130b8361091e565b611d1090919063ffffffff16565b9350611349565b60018214156113485761134560016113378361091e565b611d1090919063ffffffff16565b93505b5b50505092915050565b6000809054906101000a900473ffffffffffffffffffffffffffffffffffffffff1681565b6000809054906101000a900473ffffffffffffffffffffffffffffffffffffffff1673ffffffffffffffffffffffffffffffffffffffff163373ffffffffffffffffffffffffffffffffffffffff16146113cd57fe5b80600160006101000a81548173ffffffffffffffffffffffffffffffffffffffff021916908373ffffffffffffffffffffffffffffffffffffffff16021790555050565b60008060008060036000878152602001908152602001600020549050600061145560016114478489611d1090919063ffffffff16565b611d1090919063ffffffff16565b9050600061147f6002611471858a611d1090919063ffffffff16565b611d1090919063ffffffff16565b905060006114a9600361149b868b611d1090919063ffffffff16565b611d1090919063ffffffff16565b905060006114b68461091e565b905060006114c38461091e565b905060006114d08461091e565b9050602183116114fd576114f660016114e88861091e565b611d1090919063ffffffff16565b9950611560565b6042831115801561150e5750602183115b156115365761152f60656115218861091e565b611d1090919063ffffffff16565b995061155f565b604283111561155e5761155b60c961154d8861091e565b611d1090919063ffffffff16565b99505b5b5b6021821161158b5761158460016115768761091e565b611d1090919063ffffffff16565b98506115ee565b6042821115801561159c5750602182115b156115c4576115bd60656115af8761091e565b611d1090919063ffffffff16565b98506115ed565b60428211156115ec576115e960c96115db8761091e565b611d1090919063ffffffff16565b98505b5b5b602181116116195761161260016116048661091e565b611d1090919063ffffffff16565b975061167c565b6042811115801561162a5750602181115b156116525761164b606561163d8661091e565b611d1090919063ffffffff16565b975061167b565b604281111561167a5761167760c96116698661091e565b611d1090919063ffffffff16565b97505b5b5b898989995099509950505050505050509250925092565b6000806000806003600087815260200190815260200160002054905060006116d760016116c98489611d1090919063ffffffff16565b611d1090919063ffffffff16565b9050600061170160026116f3858a611d1090919063ffffffff16565b611d1090919063ffffffff16565b9050600061172b600361171d868b611d1090919063ffffffff16565b611d1090919063ffffffff16565b905060006117388461091e565b905060006117458461091e565b905060006117528461091e565b9050602183116117805761177961012d61176b8861091e565b611d1090919063ffffffff16565b99506117e5565b604283111580156117915750602183115b156117ba576117b36101916117a58861091e565b611d1090919063ffffffff16565b99506117e4565b60428311156117e3576117e06101f56117d28861091e565b611d1090919063ffffffff16565b99505b5b5b602182116118115761180a61012d6117fc8761091e565b611d1090919063ffffffff16565b9850611876565b604282111580156118225750602182115b1561184b576118446101916118368761091e565b611d1090919063ffffffff16565b9850611875565b6042821115611874576118716101f56118638761091e565b611d1090919063ffffffff16565b98505b5b5b602181116118a25761189b61012d61188d8661091e565b611d1090919063ffffffff16565b9750611907565b604281111580156118b35750602181115b156118dc576118d56101916118c78661091e565b611d1090919063ffffffff16565b9750611906565b6042811115611905576119026101f56118f48661091e565b611d1090919063ffffffff16565b97505b5b5b898989995099509950505050505050509250925092565b60008061192c858585610e1e565b9050600061193b868686611a93565b9050600061194a878787610c11565b905060006119598888886109ab565b905061199281611984846119768789611d1090919063ffffffff16565b611d1090919063ffffffff16565b611d1090919063ffffffff16565b9450505050509392505050565b600160009054906101000a900473ffffffffffffffffffffffffffffffffffffffff1681565b6000809054906101000a900473ffffffffffffffffffffffffffffffffffffffff1673ffffffffffffffffffffffffffffffffffffffff163373ffffffffffffffffffffffffffffffffffffffff1614611a1b57fe5b600073ffffffffffffffffffffffffffffffffffffffff168173ffffffffffffffffffffffffffffffffffffffff1614611a9057806000806101000a81548173ffffffffffffffffffffffffffffffffffffffff021916908373ffffffffffffffffffffffffffffffffffffffff1602179055505b50565b6000611a9d611ffe565b611aa78584610742565b9050611ab1611ffe565b600260009054906101000a900473ffffffffffffffffffffffffffffffffffffffff1673ffffffffffffffffffffffffffffffffffffffff1663851c453787876040518363ffffffff1660e01b8152600401808381526020018273ffffffffffffffffffffffffffffffffffffffff1673ffffffffffffffffffffffffffffffffffffffff1681526020019250505060e06040518083038186803b158015611b5857600080fd5b505afa158015611b6c573d6000803e3d6000fd5b505050506040513d601f19601f8201168201806040525060e0811015611b9157600080fd5b81019080919050509050611cee611be66064611bd884600660078110611bb357fe5b602002015186600660078110611bc557fe5b6020020151611d2c90919063ffffffff16565b611d2c90919063ffffffff16565b611ce0611c316064611c2386600560078110611bfe57fe5b602002015188600560078110611c1057fe5b6020020151611d2c90919063ffffffff16565b611d2c90919063ffffffff16565b611cd2611c7c6064611c6e88600460078110611c4957fe5b60200201518a600460078110611c5b57fe5b6020020151611d2c90919063ffffffff16565b611d2c90919063ffffffff16565b611cc46064611cb689600360078110611c9157fe5b60200201518b600360078110611ca357fe5b6020020151611d2c90919063ffffffff16565b611d2c90919063ffffffff16565b611d1090919063ffffffff16565b611d1090919063ffffffff16565b611d1090919063ffffffff16565b925050509392505050565b600082821115611d0557fe5b818303905092915050565b600080828401905083811015611d2257fe5b8091505092915050565b600080831415611d3f5760009050611d5d565b6000828402905082848281611d5057fe5b0414611d5857fe5b809150505b92915050565b600073ffffffffffffffffffffffffffffffffffffffff16600160009054906101000a900473ffffffffffffffffffffffffffffffffffffffff1673ffffffffffffffffffffffffffffffffffffffff161415611e28576040517f08c379a00000000000000000000000000000000000000000000000000000000081526004018080602001828103825260088152602001807f4e6f2050726f787900000000000000000000000000000000000000000000000081525060200191505060405180910390fd5b6000600160009054906101000a900473ffffffffffffffffffffffffffffffffffffffff1673ffffffffffffffffffffffffffffffffffffffff166335817773836040518263ffffffff1660e01b81526004018080602001828103825283818151815260200191508051906020019080838360005b83811015611eb8578082015181840152602081019050611e9d565b50505050905090810190601f168015611ee55780820380516001836020036101000a031916815260200191505b509250505060206040518083038186803b158015611f0257600080fd5b505afa158015611f16573d6000803e3d6000fd5b505050506040513d6020811015611f2c57600080fd5b81019080805190602001909291905050509050600073ffffffffffffffffffffffffffffffffffffffff168173ffffffffffffffffffffffffffffffffffffffff161415611f7657fe5b8073ffffffffffffffffffffffffffffffffffffffff163373ffffffffffffffffffffffffffffffffffffffff1614611ffa576040517f08c379a000000000000000000000000000000000000000000000000000000000815260040180806020018281038252602d815260200180612021602d913960400191505060405180910390fd5b5050565b6040518060e0016040528060079060208202803883398082019150509050509056fe416363657373206973206f6e6c7920616c6c6f7765642066726f6d20737065636966696320636f6e7472616374a265627a7a723158203137a6dde2f0223d9af81bb2e1418406ffe7ebcafa8092577de31150c743ea0864736f6c63430005110032",
  "source": "/**\r\n * @title HitsResolveAlgo\r\n *\r\n * @author @kittieFIGHT @ola\r\n *\r\n */\r\n//modifier class (DSAuth )\r\n//Event class ( DSNote )\r\n//\r\n// This program is free software: you can redistribute it and/or modify\r\n// it under the terms of the GNU General Public License as published by\r\n// the Free Software Foundation, either version 3 of the License, or\r\n// (at your option) any later version.\r\n\r\n// This program is distributed in the hope that it will be useful,\r\n// but WITHOUT ANY WARRANTY; without even the implied warranty of\r\n// MERCHANTABILITY or FITNESS FOR A PARTICULAR PURPOSE.  See the\r\n// GNU General Public License for more details.\r\n\r\n// You should have received a copy of the GNU General Public License\r\n// along with this program.  If not, see <http://www.gnu.org/licenses/>.\r\npragma solidity ^0.5.5;\r\nimport \"../../libs/SafeMath.sol\";\r\nimport \"../proxy/Proxied.sol\";\r\nimport \"../../authority/Guard.sol\";\r\nimport \"./Betting.sol\";\r\n\r\n/**\r\n * @title This contract is responsible to generate the final random number for use in\r\n * selecting the actual final values within the table values\r\n * to be assigned to the final attack list for any specific game instance in GameManager.\r\n * and maintains a list of Game ID to random seed input combinations.\r\n * @author @ziweidream\r\n */\r\n\r\ncontract HitsResolve is Proxied, Guard {\r\n    using SafeMath for uint256;\r\n\r\n    Betting public betting;\r\n\r\n    // maintains a list of Game ID to random seed input combination\r\n    mapping(uint256 => uint256) public currentRandom;\r\n\r\n    function initialize() external onlyOwner {\r\n        betting = Betting(proxy.getContract(CONTRACT_NAME_BETTING));\r\n    }\r\n\r\n    /**\r\n     * @author @ziweidream\r\n     * @notice generates a random number from 0 to 100 based on the last block hash, blocktime, block difficulty, and seed\r\n     * @return The random number generated\r\n     */\r\n    function randomGen(uint256 seed) public view returns (uint256 randomNumber) {\r\n        seed = seed.add(1);\r\n        randomNumber = uint256(keccak256(abi.encodePacked(blockhash(block.number.sub(1)), block.timestamp, block.difficulty, seed)))%100;\r\n        if (randomNumber == 100) {\r\n            randomNumber = 99;\r\n        }\r\n    }\r\n\r\n    /**\r\n     * @author @ziweidream\r\n     * @notice generates a number from 0 to 2^n based on the last n blocks and seed\r\n     * @return The random number generated\r\n     */\r\n    function multiBlockRandomGen(uint256 seed, uint256 size) public view returns (uint256) {\r\n        uint256 n = 0;\r\n        for (uint256 i = 0; i < size; i++) {\r\n            if (uint256(keccak256(abi.encodePacked(blockhash(block.number.sub(i).sub(1)), seed)))%2==0) {\r\n                n = n.add(2**i);\r\n            }\r\n        }\r\n        return n;\r\n    }\r\n\r\n    /**\r\n     * @author @ziweidream\r\n     * @notice combine random input from bets with previous combined output (currentRandom number)\r\n     * of sepcific GAMEID\r\n     * @dev currentRandom number is ZERO if there was no previous bet\r\n     * @param randomNum the random number generated by front end\r\n     * @return the most current random number associated with specific gameID\r\n     */\r\n    function calculateCurrentRandom(uint256 gameID, uint256 randomNum)\r\n        public\r\n        onlyContract(CONTRACT_NAME_GAMEMANAGER)\r\n        returns (uint256 currentRandomNum)\r\n    {\r\n        uint256 seed = randomNum.add(currentRandom[gameID]);\r\n        currentRandomNum = randomGen(seed);\r\n        currentRandom[gameID] = currentRandomNum;\r\n    }\r\n\r\n    /**\r\n     * @author @ziweidream\r\n     * @notice randomly chooses set of values to hitTypes of sepcific GAMEID\r\n     * @return list of seven values to determine final values of attacks in Betting module\r\n     */\r\n    function finalizeHitTypeValues(uint256 _gameID, uint256 _seed)\r\n    public view\r\n    returns (uint256[7] memory hitTypeVals) //uint256 lowPunch, uint256 lowKick, uint256 lowThunder, uint256 hardPunch, uint256 hardKick, uint256 hardThunder, uint256 slash)\r\n        {\r\n            (uint256 lowPunch, uint256 lowKick, uint256 lowThunder) = assignLowValues(_gameID, _seed);\r\n            (uint256 hardPunch, uint256 hardKick, uint256 hardThunder) = assignHighValues(_gameID, _seed);\r\n            uint256 slash = assignSlashValue(_gameID, _seed);\r\n\r\n            hitTypeVals[0] = lowPunch;\r\n            hitTypeVals[1] = lowKick;\r\n            hitTypeVals[2] = lowThunder;\r\n            hitTypeVals[3] = hardPunch;\r\n            hitTypeVals[4] = hardKick;\r\n            hitTypeVals[5] = hardThunder;\r\n            hitTypeVals[6] = slash;\r\n        }\r\n\r\n    /**\r\n     * @author @ziweidream\r\n     * @notice randomly assign values to Low Punch[1-100], Low Kick[101-200], and Low Thunder[201-300] hit types\r\n     * @return set of random values assigned to low value hit types\r\n     */\r\n    function assignLowValues(uint256 _gameID, uint256 _seed) public view returns (uint256 lowPunch, uint256 lowKick, uint256 lowThunder) {\r\n      uint256 nonce = currentRandom[_gameID];\r\n      uint256 seed1 = _seed.add(nonce).add(1);\r\n      uint256 seed2 = _seed.add(nonce).add(2);\r\n      uint256 seed3 = _seed.add(nonce).add(3);\r\n      uint256 diceLowValues1 = randomGen(seed1);\r\n      uint256 diceLowValues2 = randomGen(seed2);\r\n      uint256 diceLowValues3 = randomGen(seed3);\r\n\r\n      if (diceLowValues1 <= 33) {\r\n          lowPunch = randomGen(seed1).add(1);\r\n      } else if (diceLowValues1 <= 66 && diceLowValues1 > 33) {\r\n          lowPunch = randomGen(seed1).add(101);\r\n      } else if (diceLowValues1 > 66) {\r\n          lowPunch = randomGen(seed1).add(201);\r\n      }\r\n\r\n      if (diceLowValues2 <= 33) {\r\n          lowKick = randomGen(seed2).add(1);\r\n      } else if (diceLowValues2 <= 66 && diceLowValues2 > 33) {\r\n          lowKick = randomGen(seed2).add(101);\r\n      } else if (diceLowValues2 > 66) {\r\n          lowKick = randomGen(seed2).add(201);\r\n      }\r\n\r\n      if (diceLowValues3 <= 33) {\r\n          lowThunder = randomGen(seed3).add(1);\r\n      } else if (diceLowValues3 <= 66 && diceLowValues3 > 33) {\r\n          lowThunder = randomGen(seed3).add(101);\r\n      } else if (diceLowValues3 > 66) {\r\n          lowThunder = randomGen(seed3).add(201);\r\n      }\r\n\r\n      return (lowPunch, lowKick, lowThunder);\r\n    }\r\n\r\n     /**\r\n     * @author @ziweidream\r\n     * @notice randomly assign values to Hard Punch[301-400], Hard Kick[401-500], and Hard Thunder[501-600] hit types\r\n     * @return set of random values assigned to high value hit types\r\n     */\r\n    function assignHighValues(uint256 _gameID, uint256 _seed) public view returns (uint256 hardPunch, uint256 hardKick, uint256 hardThunder) {\r\n      uint256 nonce = currentRandom[_gameID];\r\n      uint256 seed1 = _seed.add(nonce).add(1);\r\n      uint256 seed2 = _seed.add(nonce).add(2);\r\n      uint256 seed3 = _seed.add(nonce).add(3);\r\n      uint256 diceHighValues1 = randomGen(seed1);\r\n      uint256 diceHighValues2 = randomGen(seed2);\r\n      uint256 diceHighValues3 = randomGen(seed3);\r\n\r\n      if (diceHighValues1 <= 33) {\r\n          hardPunch = randomGen(seed1).add(301);\r\n      } else if (diceHighValues1 <= 66 && diceHighValues1 > 33) {\r\n          hardPunch = randomGen(seed1).add(401);\r\n      } else if (diceHighValues1 > 66) {\r\n          hardPunch = randomGen(seed1).add(501);\r\n      }\r\n\r\n      if (diceHighValues2 <= 33) {\r\n          hardKick = randomGen(seed2).add(301);\r\n      } else if (diceHighValues2 <= 66 && diceHighValues2 > 33) {\r\n          hardKick = randomGen(seed2).add(401);\r\n      } else if (diceHighValues2 > 66) {\r\n          hardKick = randomGen(seed2).add(501);\r\n      }\r\n\r\n      if (diceHighValues3 <= 33) {\r\n          hardThunder = randomGen(seed3).add(301);\r\n      } else if (diceHighValues3 <= 66 && diceHighValues3 > 33) {\r\n          hardThunder = randomGen(seed3).add(401);\r\n      } else if (diceHighValues3 > 66) {\r\n          hardThunder = randomGen(seed3).add(501);\r\n      }\r\n\r\n      return (hardPunch, hardKick, hardThunder);\r\n    }\r\n\r\n    /**\r\n     * @author @ziweidream\r\n     * @notice randomly assign values to the slash type which can be either high [601-700] or low result [1-100] ranges\r\n     * @return random value assigned to slash types\r\n     */\r\n    function assignSlashValue(uint256 _gameID, uint256 _seed) public view returns(uint256 slash) {\r\n      uint256 nonce = currentRandom[_gameID];\r\n      uint256 rand = multiBlockRandomGen(_seed, 1);\r\n      uint256 seed = _seed.add(nonce).add(1);\r\n      if (rand == 0) {\r\n          slash = randomGen(seed).add(601);\r\n      } else if (rand == 1) {\r\n          slash = randomGen(seed).add(1);\r\n      }\r\n    }\r\n\r\n    /**\r\n    * @author @ziweidream\r\n    * @notice calculate the total points of direct attacks in the range of low value attack types\r\n    * for the given corner in a game with a specific gameId\r\n    * @param _gameId the gameID of the game\r\n    * @param _player the address of given corner in this game\r\n    * @param _randomNum random number generated by front end\r\n    * @return the total points of direct attacks in the range of low value attack types for the\r\n    * given corner in the game\r\n    */\r\n    function calculateFinalDirectAttacksPointsLowValue(uint256 _gameId, address _player, uint256 _randomNum)\r\n        public view\r\n        returns(uint256 finalDirectAttacksPointsLowValue)\r\n    {\r\n        // finalizeHitTypeValues() returns 7 values\r\n        uint256[7] memory hitTypesVals = finalizeHitTypeValues(_gameId, _randomNum);\r\n\r\n        // get the number of the direct attacks of each attack types of the given corner\r\n        uint256[7] memory directAttacks = betting.getDirectAttacksScored(_gameId, _player);\r\n\r\n        finalDirectAttacksPointsLowValue = hitTypesVals[0].mul(directAttacks[0]).mul(100)\r\n                       .add(hitTypesVals[1].mul(directAttacks[1]).mul(100))\r\n                       .add(hitTypesVals[2].mul(directAttacks[2]).mul(100));\r\n    }\r\n\r\n    /**\r\n    * @author @ziweidream\r\n    * @notice calculate the total points of direct attacks in the range of high value attack types\r\n    * for the given corner in a game with a specific gameId\r\n    * @param _gameId the gameID of the game\r\n    * @param _player the address of the given corner in this game\r\n    * @param _randomNum random number generated by front end\r\n    * @return the total points of direct attacks in the range of high value attack types for the\r\n    * given corner in the game\r\n    */\r\n    function calculateFinalDirectAttacksPointsHighValue(uint256 _gameId, address _player, uint256 _randomNum)\r\n        public view\r\n        returns(uint256 finalDirectAttacksPointsHighValue)\r\n    {\r\n        uint256[7] memory hitTypesVals = finalizeHitTypeValues(_gameId, _randomNum);\r\n\r\n        // get the number of the direct attacks of each attack types of the given corner\r\n        uint256[7] memory directAttacks = betting.getDirectAttacksScored(_gameId, _player);\r\n\r\n          finalDirectAttacksPointsHighValue = hitTypesVals[3].mul(directAttacks[3]).mul(100)\r\n                       .add(hitTypesVals[4].mul(directAttacks[4]).mul(100))\r\n                       .add(hitTypesVals[5].mul(directAttacks[5]).mul(100))\r\n                       .add(hitTypesVals[6].mul(directAttacks[6]).mul(100));\r\n    }\r\n\r\n    /**\r\n    * @author @ziweidream\r\n    * @notice calculate the total points of blocked attacks in the range of low value attack types\r\n    * for the given corner in a game with a specific gameId\r\n    * @param _gameId the gameID of the game\r\n    * @param _player the address of the given corner in this game\r\n    * @param _randomNum random number generated by front end\r\n    * @return the total points of blocked attacks in the range of low value attack types for the\r\n    * given corner in the game\r\n    */\r\n    function calculateFinalBlockedAttacksPointsLowValue(uint256 _gameId, address _player, uint256 _randomNum)\r\n        public view\r\n        returns(uint256 finalBlockedAttacksPointsLowValue)\r\n    {\r\n        uint256[7] memory hitTypesVals = finalizeHitTypeValues(_gameId, _randomNum);\r\n\r\n        // get the number of the blocked attacks of each attack types of the given corner in a game\r\n        uint256[7] memory blockedAttacks = betting.getBlockedAttacksScored(_gameId, _player);\r\n\r\n        finalBlockedAttacksPointsLowValue = (hitTypesVals[0].mul(blockedAttacks[0]).mul(25))\r\n                       .add(hitTypesVals[1].mul(blockedAttacks[1]).mul(25))\r\n                       .add(hitTypesVals[2].mul(blockedAttacks[2]).mul(25));\r\n    }\r\n\r\n    /**\r\n    * @author @ziweidream\r\n    * @notice calculate the total points of blocked attacks in the range of high value attack types\r\n    * for the given corner in a game with a specific gameId\r\n    * @param _gameId the gameID of the game\r\n    * @param _player the address of the given corner in this game\r\n    * @param _randomNum random number generated by front end\r\n    * @return the total points of blocked attacks in the range of high value attack types for the\r\n    * given corner in the game\r\n    */\r\n    function calculateFinalBlockedAttacksPointsHighValue(uint256 _gameId, address _player, uint256 _randomNum)\r\n        public view\r\n        returns(uint256 finalBlockedAttacksPointsHighValue)\r\n    {\r\n        uint256[7] memory hitTypesVals = finalizeHitTypeValues(_gameId, _randomNum);\r\n\r\n        // get the number of the blocked attacks of each attack types of the given corner in a game\r\n        uint256[7] memory blockedAttacks = betting.getBlockedAttacksScored(_gameId, _player);\r\n\r\n        finalBlockedAttacksPointsHighValue = hitTypesVals[3].mul(blockedAttacks[3]).mul(25)\r\n                       .add(hitTypesVals[4].mul(blockedAttacks[4]).mul(25))\r\n                       .add(hitTypesVals[5].mul(blockedAttacks[5]).mul(25))\r\n                       .add(hitTypesVals[6].mul(blockedAttacks[6]).mul(25));\r\n    }\r\n\r\n    /**\r\n    * @author @ziweidream\r\n    * @notice calculate the final points of all attacks for the given corner in a game with a specific gameId\r\n    * @param _gameId the gameID of the game\r\n    * @param _player the address of the given corner in this game\r\n    * @param _randomNum random number generated by front end\r\n    * @return the final points for the given corner in the game\r\n    */\r\n    function calculateFinalPoints(uint256 _gameId, address _player, uint256 _randomNum)\r\n        public view\r\n        returns(uint256 finalPoints)\r\n    {\r\n         // calculate the final points for the given corner in a game\r\n         uint256 directAttacksLowValue = calculateFinalDirectAttacksPointsLowValue(_gameId, _player, _randomNum);\r\n         uint256 directAttacksHighValue = calculateFinalDirectAttacksPointsHighValue(_gameId, _player, _randomNum);\r\n         uint256 blockedAttacksLowValue = calculateFinalBlockedAttacksPointsLowValue(_gameId, _player, _randomNum);\r\n         uint256 blockedAttacksHighValue = calculateFinalBlockedAttacksPointsHighValue(_gameId, _player, _randomNum);\r\n\r\n         finalPoints = directAttacksLowValue.add(directAttacksHighValue).add(blockedAttacksLowValue).add(blockedAttacksHighValue);\r\n    }\r\n\r\n}\r\n",
  "sourcePath": "C:\\Users\\Alex\\Desktop\\MyProjects\\alpha\\contracts\\modules\\algorithm\\HitsResolveAlgo.sol",
  "compiler": {
    "name": "solc",
    "version": "0.5.17+commit.d19bba13.Emscripten.clang"
  },
  "schemaVersion": "3.0.11",
  "updatedAt": "2020-04-19T21:47:22.346Z",
  "devdoc": {
    "author": "@ziweidream",
    "methods": {
      "assignHighValues(uint256,uint256)": {
        "author": "@ziweidream",
        "return": "set of random values assigned to high value hit types"
      },
      "assignLowValues(uint256,uint256)": {
        "author": "@ziweidream",
        "return": "set of random values assigned to low value hit types"
      },
      "assignSlashValue(uint256,uint256)": {
        "author": "@ziweidream",
        "return": "random value assigned to slash types"
      },
      "calculateCurrentRandom(uint256,uint256)": {
        "author": "@ziweidream",
        "details": "currentRandom number is ZERO if there was no previous bet",
        "params": {
          "randomNum": "the random number generated by front end"
        },
        "return": "the most current random number associated with specific gameID"
      },
      "calculateFinalBlockedAttacksPointsHighValue(uint256,address,uint256)": {
        "author": "@ziweidream",
        "params": {
          "_gameId": "the gameID of the game",
          "_player": "the address of the given corner in this game",
          "_randomNum": "random number generated by front end"
        },
        "return": "the total points of blocked attacks in the range of high value attack types for the given corner in the game"
      },
      "calculateFinalBlockedAttacksPointsLowValue(uint256,address,uint256)": {
        "author": "@ziweidream",
        "params": {
          "_gameId": "the gameID of the game",
          "_player": "the address of the given corner in this game",
          "_randomNum": "random number generated by front end"
        },
        "return": "the total points of blocked attacks in the range of low value attack types for the given corner in the game"
      },
      "calculateFinalDirectAttacksPointsHighValue(uint256,address,uint256)": {
        "author": "@ziweidream",
        "params": {
          "_gameId": "the gameID of the game",
          "_player": "the address of the given corner in this game",
          "_randomNum": "random number generated by front end"
        },
        "return": "the total points of direct attacks in the range of high value attack types for the given corner in the game"
      },
      "calculateFinalDirectAttacksPointsLowValue(uint256,address,uint256)": {
        "author": "@ziweidream",
        "params": {
          "_gameId": "the gameID of the game",
          "_player": "the address of given corner in this game",
          "_randomNum": "random number generated by front end"
        },
        "return": "the total points of direct attacks in the range of low value attack types for the given corner in the game"
      },
      "calculateFinalPoints(uint256,address,uint256)": {
        "author": "@ziweidream",
        "params": {
          "_gameId": "the gameID of the game",
          "_player": "the address of the given corner in this game",
          "_randomNum": "random number generated by front end"
        },
        "return": "the final points for the given corner in the game"
      },
      "finalizeHitTypeValues(uint256,uint256)": {
        "author": "@ziweidream",
        "return": "list of seven values to determine final values of attacks in Betting module"
      },
      "multiBlockRandomGen(uint256,uint256)": {
        "author": "@ziweidream",
        "return": "The random number generated"
      },
      "randomGen(uint256)": {
        "author": "@ziweidream",
        "return": "The random number generated"
      }
    },
    "title": "This contract is responsible to generate the final random number for use in selecting the actual final values within the table values to be assigned to the final attack list for any specific game instance in GameManager. and maintains a list of Game ID to random seed input combinations."
  },
  "userdoc": {
    "methods": {
      "assignHighValues(uint256,uint256)": {
        "notice": "randomly assign values to Hard Punch[301-400], Hard Kick[401-500], and Hard Thunder[501-600] hit types"
      },
      "assignLowValues(uint256,uint256)": {
        "notice": "randomly assign values to Low Punch[1-100], Low Kick[101-200], and Low Thunder[201-300] hit types"
      },
      "assignSlashValue(uint256,uint256)": {
        "notice": "randomly assign values to the slash type which can be either high [601-700] or low result [1-100] ranges"
      },
      "calculateCurrentRandom(uint256,uint256)": {
        "notice": "combine random input from bets with previous combined output (currentRandom number) of sepcific GAMEID"
      },
      "calculateFinalBlockedAttacksPointsHighValue(uint256,address,uint256)": {
        "notice": "calculate the total points of blocked attacks in the range of high value attack types for the given corner in a game with a specific gameId"
      },
      "calculateFinalBlockedAttacksPointsLowValue(uint256,address,uint256)": {
        "notice": "calculate the total points of blocked attacks in the range of low value attack types for the given corner in a game with a specific gameId"
      },
      "calculateFinalDirectAttacksPointsHighValue(uint256,address,uint256)": {
        "notice": "calculate the total points of direct attacks in the range of high value attack types for the given corner in a game with a specific gameId"
      },
      "calculateFinalDirectAttacksPointsLowValue(uint256,address,uint256)": {
        "notice": "calculate the total points of direct attacks in the range of low value attack types for the given corner in a game with a specific gameId"
      },
      "calculateFinalPoints(uint256,address,uint256)": {
        "notice": "calculate the final points of all attacks for the given corner in a game with a specific gameId"
      },
      "finalizeHitTypeValues(uint256,uint256)": {
        "notice": "randomly chooses set of values to hitTypes of sepcific GAMEID"
      },
      "multiBlockRandomGen(uint256,uint256)": {
        "notice": "generates a number from 0 to 2^n based on the last n blocks and seed"
      },
      "randomGen(uint256)": {
        "notice": "generates a random number from 0 to 100 based on the last block hash, blocktime, block difficulty, and seed"
      },
      "setProxy(address)": {
        "notice": "Set/update address of Proxy contract"
      }
    }
  }
}