{
  "contractName": "HoneypotAllocationAlgo",
  "abi": [
    {
      "constant": true,
      "inputs": [],
      "name": "endowmentDB",
      "outputs": [
        {
          "internalType": "contract EndowmentDB",
          "name": "",
          "type": "address"
        }
      ],
      "payable": false,
      "stateMutability": "view",
      "type": "function"
    },
    {
      "constant": true,
      "inputs": [],
      "name": "owner",
      "outputs": [
        {
          "internalType": "address payable",
          "name": "",
          "type": "address"
        }
      ],
      "payable": false,
      "stateMutability": "view",
      "type": "function"
    },
    {
      "constant": true,
      "inputs": [
        {
          "internalType": "uint256",
          "name": "",
          "type": "uint256"
        }
      ],
      "name": "path",
      "outputs": [
        {
          "internalType": "address",
          "name": "",
          "type": "address"
        }
      ],
      "payable": false,
      "stateMutability": "view",
      "type": "function"
    },
    {
      "constant": true,
      "inputs": [],
      "name": "proxy",
      "outputs": [
        {
          "internalType": "contract ProxyBase",
          "name": "",
          "type": "address"
        }
      ],
      "payable": false,
      "stateMutability": "view",
      "type": "function"
    },
    {
      "constant": false,
      "inputs": [
        {
          "internalType": "contract ProxyBase",
          "name": "_proxy",
          "type": "address"
        }
      ],
      "name": "setProxy",
      "outputs": [],
      "payable": false,
      "stateMutability": "nonpayable",
      "type": "function"
    },
    {
      "constant": false,
      "inputs": [
        {
          "internalType": "address payable",
          "name": "newOwner",
          "type": "address"
        }
      ],
      "name": "transferOwnership",
      "outputs": [],
      "payable": false,
      "stateMutability": "nonpayable",
      "type": "function"
    },
    {
      "constant": false,
      "inputs": [],
      "name": "initialize",
      "outputs": [],
      "payable": false,
      "stateMutability": "nonpayable",
      "type": "function"
    },
    {
      "constant": false,
      "inputs": [
        {
          "internalType": "uint256",
          "name": "gameId",
          "type": "uint256"
        }
      ],
      "name": "generateHoneyPot",
      "outputs": [
        {
          "internalType": "uint256",
          "name": "",
          "type": "uint256"
        },
        {
          "internalType": "uint256",
          "name": "",
          "type": "uint256"
        }
      ],
      "payable": false,
      "stateMutability": "nonpayable",
      "type": "function"
    },
    {
      "constant": true,
      "inputs": [],
      "name": "calculateAllocationToHoneypot",
      "outputs": [
        {
          "internalType": "uint256",
          "name": "ktyAllocated",
          "type": "uint256"
        },
        {
          "internalType": "uint256",
          "name": "ethAllocated",
          "type": "uint256"
        },
        {
          "internalType": "string",
          "name": "honeypotClass",
          "type": "string"
        }
      ],
      "payable": false,
      "stateMutability": "view",
      "type": "function"
    },
    {
      "constant": false,
      "inputs": [
        {
          "internalType": "uint256",
          "name": "_etherForSwap",
          "type": "uint256"
        },
        {
          "internalType": "address",
          "name": "_escrow",
          "type": "address"
        }
      ],
      "name": "swapEtherForKTY",
      "outputs": [
        {
          "internalType": "uint256",
          "name": "",
          "type": "uint256"
        }
      ],
      "payable": true,
      "stateMutability": "payable",
      "type": "function"
    },
    {
      "constant": true,
      "inputs": [
        {
          "internalType": "uint256",
          "name": "_eth",
          "type": "uint256"
        }
      ],
      "name": "convertETHtoUSD",
      "outputs": [
        {
          "internalType": "uint256",
          "name": "_usd",
          "type": "uint256"
        }
      ],
      "payable": false,
      "stateMutability": "view",
      "type": "function"
    }
  ],
  "bytecode": "0x6080604052604051806104a001604052806040518060400160405280600f81526020017f696e6372656469626c6547616d6530000000000000000000000000000000000081525081526020016040518060400160405280600f81526020017f696e6372656469626c6547616d6531000000000000000000000000000000000081525081526020016040518060400160405280600f81526020017f696e6372656469626c6547616d6532000000000000000000000000000000000081525081526020016040518060400160405280600f81526020017f696e6372656469626c6547616d6533000000000000000000000000000000000081525081526020016040518060400160405280600f81526020017f696e6372656469626c6547616d6534000000000000000000000000000000000081525081526020016040518060400160405280600f81526020017f696e6372656469626c6547616d6535000000000000000000000000000000000081525081526020016040518060400160405280600f81526020017f696e6372656469626c6547616d6536000000000000000000000000000000000081525081526020016040518060400160405280600f81526020017f696e6372656469626c6547616d6537000000000000000000000000000000000081525081526020016040518060400160405280600f81526020017f696e6372656469626c6547616d6536000000000000000000000000000000000081525081526020016040518060400160405280600f81526020017f696e6372656469626c6547616d6539000000000000000000000000000000000081525081526020016040518060400160405280601081526020017f696e6372656469626c6547616d6531300000000000000000000000000000000081525081526020016040518060400160405280601081526020017f696e6372656469626c6547616d6531310000000000000000000000000000000081525081526020016040518060400160405280601081526020017f696e6372656469626c6547616d6531320000000000000000000000000000000081525081526020016040518060400160405280601081526020017f696e6372656469626c6547616d6531330000000000000000000000000000000081525081526020016040518060400160405280601081526020017f696e6372656469626c6547616d6531340000000000000000000000000000000081525081526020016040518060400160405280601081526020017f696e6372656469626c6547616d6531350000000000000000000000000000000081525081526020016040518060400160405280601081526020017f696e6372656469626c6547616d6531360000000000000000000000000000000081525081526020016040518060400160405280601081526020017f696e6372656469626c6547616d6531370000000000000000000000000000000081525081526020016040518060400160405280601081526020017f696e6372656469626c6547616d6531380000000000000000000000000000000081525081526020016040518060400160405280601081526020017f696e6372656469626c6547616d6531390000000000000000000000000000000081525081526020016040518060400160405280601081526020017f696e6372656469626c6547616d6532300000000000000000000000000000000081525081526020016040518060400160405280601081526020017f696e6372656469626c6547616d6532310000000000000000000000000000000081525081526020016040518060400160405280601081526020017f696e6372656469626c6547616d6532320000000000000000000000000000000081525081526020016040518060400160405280601081526020017f696e6372656469626c6547616d6532330000000000000000000000000000000081525081526020016040518060400160405280601081526020017f696e6372656469626c6547616d6532340000000000000000000000000000000081525081526020016040518060400160405280601081526020017f696e6372656469626c6547616d6532350000000000000000000000000000000081525081526020016040518060400160405280601081526020017f696e6372656469626c6547616d6532360000000000000000000000000000000081525081526020016040518060400160405280601081526020017f696e6372656469626c6547616d6532370000000000000000000000000000000081525081526020016040518060400160405280601081526020017f696e6372656469626c6547616d6532380000000000000000000000000000000081525081526020016040518060400160405280601081526020017f696e6372656469626c6547616d6532390000000000000000000000000000000081525081526020016040518060400160405280601081526020017f696e6372656469626c6547616d6533300000000000000000000000000000000081525081526020016040518060400160405280601081526020017f696e6372656469626c6547616d6533310000000000000000000000000000000081525081526020016040518060400160405280601081526020017f696e6372656469626c6547616d6533320000000000000000000000000000000081525081526020016040518060400160405280601081526020017f696e6372656469626c6547616d6533330000000000000000000000000000000081525081526020016040518060400160405280601081526020017f696e6372656469626c6547616d6533340000000000000000000000000000000081525081526020016040518060400160405280601081526020017f696e6372656469626c6547616d6533350000000000000000000000000000000081525081526020016040518060400160405280601081526020017f696e6372656469626c6547616d653336000000000000000000000000000000008152508152506004906025620008a7929190620008ee565b50336000806101000a81548173ffffffffffffffffffffffffffffffffffffffff021916908373ffffffffffffffffffffffffffffffffffffffff16021790555062000a81565b82805482825590600052602060002090810192821562000942579160200282015b82811115620009415782518290805190602001906200093092919062000955565b50916020019190600101906200090f565b5b509050620009519190620009dc565b5090565b828054600181600116156101000203166002900490600052602060002090601f016020900481019282601f106200099857805160ff1916838001178555620009c9565b82800160010185558215620009c9579182015b82811115620009c8578251825591602001919060010190620009ab565b5b509050620009d8919062000a0d565b5090565b62000a0a91905b8082111562000a065760008181620009fc919062000a35565b50600101620009e3565b5090565b90565b62000a3291905b8082111562000a2e57600081600090555060010162000a14565b5090565b90565b50805460018160011615610100020316600290046000825580601f1062000a5d575062000a7e565b601f01602090049060005260206000209081019062000a7d919062000a0d565b5b50565b61407e8062000a916000396000f3fe60806040526004361061009c5760003560e01c8063951bc75a11610064578063951bc75a1461026657806397107d6d146102b5578063af6d1fe414610306578063ec55688914610381578063f1d4be10146103d8578063f2fde38b1461042e5761009c565b806356e5a2c9146100a15780635d06fc011461013f578063739e0e57146101965780638129fc1c146101f85780638da5cb5b1461020f575b600080fd5b3480156100ad57600080fd5b506100b661047f565b6040518084815260200183815260200180602001828103825283818151815260200191508051906020019080838360005b838110156101025780820151818401526020810190506100e7565b50505050905090810190601f16801561012f5780820380516001836020036101000a031916815260200191505b5094505050505060405180910390f35b34801561014b57600080fd5b50610154610add565b604051808273ffffffffffffffffffffffffffffffffffffffff1673ffffffffffffffffffffffffffffffffffffffff16815260200191505060405180910390f35b6101e2600480360360408110156101ac57600080fd5b8101908080359060200190929190803573ffffffffffffffffffffffffffffffffffffffff169060200190929190505050610b03565b6040518082815260200191505060405180910390f35b34801561020457600080fd5b5061020d610f24565b005b34801561021b57600080fd5b50610224611454565b604051808273ffffffffffffffffffffffffffffffffffffffff1673ffffffffffffffffffffffffffffffffffffffff16815260200191505060405180910390f35b34801561027257600080fd5b5061029f6004803603602081101561028957600080fd5b8101908080359060200190929190505050611479565b6040518082815260200191505060405180910390f35b3480156102c157600080fd5b50610304600480360360208110156102d857600080fd5b81019080803573ffffffffffffffffffffffffffffffffffffffff169060200190929190505050611695565b005b34801561031257600080fd5b5061033f6004803603602081101561032957600080fd5b810190808035906020019092919050505061172f565b604051808273ffffffffffffffffffffffffffffffffffffffff1673ffffffffffffffffffffffffffffffffffffffff16815260200191505060405180910390f35b34801561038d57600080fd5b5061039661176b565b604051808273ffffffffffffffffffffffffffffffffffffffff1673ffffffffffffffffffffffffffffffffffffffff16815260200191505060405180910390f35b3480156103e457600080fd5b50610411600480360360208110156103fb57600080fd5b8101908080359060200190929190505050611791565b604051808381526020018281526020019250505060405180910390f35b34801561043a57600080fd5b5061047d6004803603602081101561045157600080fd5b81019080803573ffffffffffffffffffffffffffffffffffffffff169060200190929190505050611929565b005b60008060606000600160009054906101000a900473ffffffffffffffffffffffffffffffffffffffff1673ffffffffffffffffffffffffffffffffffffffff1663358177736040518060400160405280600d81526020017f47616d65566172416e64466565000000000000000000000000000000000000008152506040518263ffffffff1660e01b81526004018080602001828103825283818151815260200191508051906020019080838360005b8381101561054957808201518184015260208101905061052e565b50505050905090810190601f1680156105765780820380516001836020036101000a031916815260200191505b509250505060206040518083038186803b15801561059357600080fd5b505afa1580156105a7573d6000803e3d6000fd5b505050506040513d60208110156105bd57600080fd5b8101908080519060200190929190505050905060008173ffffffffffffffffffffffffffffffffffffffff1663a0a8045e6040518163ffffffff1660e01b815260040160206040518083038186803b15801561061857600080fd5b505afa15801561062c573d6000803e3d6000fd5b505050506040513d602081101561064257600080fd5b8101908080519060200190929190505050905060008273ffffffffffffffffffffffffffffffffffffffff1663271bf40f6040518163ffffffff1660e01b815260040160206040518083038186803b15801561069d57600080fd5b505afa1580156106b1573d6000803e3d6000fd5b505050506040513d60208110156106c757600080fd5b810190808051906020019092919050505090506000600160009054906101000a900473ffffffffffffffffffffffffffffffffffffffff1673ffffffffffffffffffffffffffffffffffffffff1663358177736040518060400160405280600981526020017f47656e65726963444200000000000000000000000000000000000000000000008152506040518263ffffffff1660e01b81526004018080602001828103825283818151815260200191508051906020019080838360005b8381101561079f578082015181840152602081019050610784565b50505050905090810190601f1680156107cc5780820380516001836020036101000a031916815260200191505b509250505060206040518083038186803b1580156107e957600080fd5b505afa1580156107fd573d6000803e3d6000fd5b505050506040513d602081101561081357600080fd5b810190808051906020019092919050505073ffffffffffffffffffffffffffffffffffffffff166308acb5566040518060400160405280600b81526020017f456e646f776d656e74444200000000000000000000000000000000000000000081525060405160200180807f61637475616c46756e6473455448000000000000000000000000000000000000815250600e019050604051602081830303815290604052805190602001206040518363ffffffff1660e01b81526004018080602001838152602001828103825284818151815260200191508051906020019080838360005b838110156109115780820151818401526020810190506108f6565b50505050905090810190601f16801561093e5780820380516001836020036101000a031916815260200191505b50935050505060206040518083038186803b15801561095c57600080fd5b505afa158015610970573d6000803e3d6000fd5b505050506040513d602081101561098657600080fd5b8101908080519060200190929190505050905060006109a482611479565b90506000619c408211156109c8576109bb826119f7565b80985081925050506109da565b6109d182613917565b80985081925050505b610a02620f42406109f48584613cc190919063ffffffff16565b613cf890919063ffffffff16565b9750610ad0620f4240610ac286610ab489610aa68e8d73ffffffffffffffffffffffffffffffffffffffff1663c09d32af6040518163ffffffff1660e01b815260040160206040518083038186803b158015610a5d57600080fd5b505afa158015610a71573d6000803e3d6000fd5b505050506040513d6020811015610a8757600080fd5b8101908080519060200190929190505050613cc190919063ffffffff16565b613cc190919063ffffffff16565b613cf890919063ffffffff16565b613cf890919063ffffffff16565b9850505050505050909192565b600360009054906101000a900473ffffffffffffffffffffffffffffffffffffffff1681565b60006040518060400160405280600d81526020017f456e646f776d656e7446756e6400000000000000000000000000000000000000815250610b4481613d11565b610b5d6509184e72a00085613fac90919063ffffffff16565b341015610bd2576040517f08c379a000000000000000000000000000000000000000000000000000000000815260040180806020018281038252601f8152602001807f496e73756666696369656e7420657468657220666f722073776170204b54590081525060200191505060405180910390fd5b600160009054906101000a900473ffffffffffffffffffffffffffffffffffffffff1673ffffffffffffffffffffffffffffffffffffffff1663358177736040518060400160405280601181526020017f556e69737761705632526f7574657230310000000000000000000000000000008152506040518263ffffffff1660e01b81526004018080602001828103825283818151815260200191508051906020019080838360005b83811015610c95578082015181840152602081019050610c7a565b50505050905090810190601f168015610cc25780820380516001836020036101000a031916815260200191505b509250505060206040518083038186803b158015610cdf57600080fd5b505afa158015610cf3573d6000803e3d6000fd5b505050506040513d6020811015610d0957600080fd5b810190808051906020019092919050505073ffffffffffffffffffffffffffffffffffffffff16637ff36ab53460006002877f80000000000000000000000000000000000000000000000000000000000000006040518663ffffffff1660e01b815260040180858152602001806020018473ffffffffffffffffffffffffffffffffffffffff1673ffffffffffffffffffffffffffffffffffffffff1681526020018381526020018281038252858181548152602001915080548015610e2457602002820191906000526020600020905b8160009054906101000a900473ffffffffffffffffffffffffffffffffffffffff1673ffffffffffffffffffffffffffffffffffffffff1681526020019060010190808311610dda575b5050955050505050506000604051808303818588803b158015610e4657600080fd5b505af1158015610e5a573d6000803e3d6000fd5b50505050506040513d6000823e3d601f19601f820116820180604052506020811015610e8557600080fd5b8101908080516040519392919084640100000000821115610ea557600080fd5b83820191506020820185811115610ebb57600080fd5b8251866020820283011164010000000082111715610ed857600080fd5b8083526020830192505050908051906020019060200280838360005b83811015610f0f578082015181840152602081019050610ef4565b50505050905001604052505050505092915050565b6040518060400160405280600d81526020017f456e646f776d656e7446756e6400000000000000000000000000000000000000815250610f6381613d11565b6000600160009054906101000a900473ffffffffffffffffffffffffffffffffffffffff1673ffffffffffffffffffffffffffffffffffffffff1663358177736040518060400160405280600581526020017f57455448390000000000000000000000000000000000000000000000000000008152506040518263ffffffff1660e01b81526004018080602001828103825283818151815260200191508051906020019080838360005b8381101561102857808201518184015260208101905061100d565b50505050905090810190601f1680156110555780820380516001836020036101000a031916815260200191505b509250505060206040518083038186803b15801561107257600080fd5b505afa158015611086573d6000803e3d6000fd5b505050506040513d602081101561109c57600080fd5b8101908080519060200190929190505050905060028190806001815401808255809150509060018203906000526020600020016000909192909190916101000a81548173ffffffffffffffffffffffffffffffffffffffff021916908373ffffffffffffffffffffffffffffffffffffffff160217905550506000600160009054906101000a900473ffffffffffffffffffffffffffffffffffffffff1673ffffffffffffffffffffffffffffffffffffffff1663358177736040518060400160405280601081526020017f4b69747469654669676874546f6b656e000000000000000000000000000000008152506040518263ffffffff1660e01b81526004018080602001828103825283818151815260200191508051906020019080838360005b838110156111da5780820151818401526020810190506111bf565b50505050905090810190601f1680156112075780820380516001836020036101000a031916815260200191505b509250505060206040518083038186803b15801561122457600080fd5b505afa158015611238573d6000803e3d6000fd5b505050506040513d602081101561124e57600080fd5b8101908080519060200190929190505050905060028190806001815401808255809150509060018203906000526020600020016000909192909190916101000a81548173ffffffffffffffffffffffffffffffffffffffff021916908373ffffffffffffffffffffffffffffffffffffffff16021790555050600160009054906101000a900473ffffffffffffffffffffffffffffffffffffffff1673ffffffffffffffffffffffffffffffffffffffff1663358177736040518060400160405280600b81526020017f456e646f776d656e7444420000000000000000000000000000000000000000008152506040518263ffffffff1660e01b81526004018080602001828103825283818151815260200191508051906020019080838360005b8381101561138a57808201518184015260208101905061136f565b50505050905090810190601f1680156113b75780820380516001836020036101000a031916815260200191505b509250505060206040518083038186803b1580156113d457600080fd5b505afa1580156113e8573d6000803e3d6000fd5b505050506040513d60208110156113fe57600080fd5b8101908080519060200190929190505050600360006101000a81548173ffffffffffffffffffffffffffffffffffffffff021916908373ffffffffffffffffffffffffffffffffffffffff160217905550505050565b6000809054906101000a900473ffffffffffffffffffffffffffffffffffffffff1681565b600080600160009054906101000a900473ffffffffffffffffffffffffffffffffffffffff1673ffffffffffffffffffffffffffffffffffffffff1663358177736040518060400160405280600d81526020017f47616d65566172416e64466565000000000000000000000000000000000000008152506040518263ffffffff1660e01b81526004018080602001828103825283818151815260200191508051906020019080838360005b8381101561153f578082015181840152602081019050611524565b50505050905090810190601f16801561156c5780820380516001836020036101000a031916815260200191505b509250505060206040518083038186803b15801561158957600080fd5b505afa15801561159d573d6000803e3d6000fd5b505050506040513d60208110156115b357600080fd5b8101908080519060200190929190505050905061168d670de0b6b3a764000061167f670de0b6b3a76400006116718573ffffffffffffffffffffffffffffffffffffffff1663a0a8045e6040518163ffffffff1660e01b815260040160206040518083038186803b15801561162757600080fd5b505afa15801561163b573d6000803e3d6000fd5b505050506040513d602081101561165157600080fd5b810190808051906020019092919050505088613cc190919063ffffffff16565b613cf890919063ffffffff16565b613cf890919063ffffffff16565b915050919050565b6000809054906101000a900473ffffffffffffffffffffffffffffffffffffffff1673ffffffffffffffffffffffffffffffffffffffff163373ffffffffffffffffffffffffffffffffffffffff16146116eb57fe5b80600160006101000a81548173ffffffffffffffffffffffffffffffffffffffff021916908373ffffffffffffffffffffffffffffffffffffffff16021790555050565b6002818154811061173c57fe5b906000526020600020016000915054906101000a900473ffffffffffffffffffffffffffffffffffffffff1681565b600160009054906101000a900473ffffffffffffffffffffffffffffffffffffffff1681565b6000806040518060400160405280600c81526020017f47616d654372656174696f6e00000000000000000000000000000000000000008152506117d381613d11565b60008060606117e061047f565b925092509250600360009054906101000a900473ffffffffffffffffffffffffffffffffffffffff1673ffffffffffffffffffffffffffffffffffffffff1663b4f4a176888585856040518563ffffffff1660e01b81526004018085815260200184815260200183815260200180602001828103825283818151815260200191508051906020019080838360005b8381101561188957808201518184015260208101905061186e565b50505050905090810190601f1680156118b65780820380516001836020036101000a031916815260200191505b50955050505050506040805180830381600087803b1580156118d757600080fd5b505af11580156118eb573d6000803e3d6000fd5b505050506040513d604081101561190157600080fd5b8101908080519060200190929190805190602001909291905050509550955050505050915091565b6000809054906101000a900473ffffffffffffffffffffffffffffffffffffffff1673ffffffffffffffffffffffffffffffffffffffff163373ffffffffffffffffffffffffffffffffffffffff161461197f57fe5b600073ffffffffffffffffffffffffffffffffffffffff168173ffffffffffffffffffffffffffffffffffffffff16146119f457806000806101000a81548173ffffffffffffffffffffffffffffffffffffffff021916908373ffffffffffffffffffffffffffffffffffffffff1602179055505b50565b60006060619c408311611a55576040517f08c379a00000000000000000000000000000000000000000000000000000000081526004018080602001828103825260258152602001806140256025913960400191505060405180910390fd5b620111708311611cbc5761c3508311611b1c576004600081548110611a7657fe5b906000526020600020018054600181600116156101000203166002900480601f016020809104026020016040519081016040528092919081815260200182805460018160011615610100020316600290048015611b145780601f10611ae957610100808354040283529160200191611b14565b820191906000526020600020905b815481529060010190602001808311611af757829003601f168201915b505050505090505b61ea608311158015611b2f575061c35083115b15611be8576004600181548110611b4257fe5b906000526020600020018054600181600116156101000203166002900480601f016020809104026020016040519081016040528092919081815260200182805460018160011615610100020316600290048015611be05780601f10611bb557610100808354040283529160200191611be0565b820191906000526020600020905b815481529060010190602001808311611bc357829003601f168201915b505050505090505b620111708311158015611bfc575061ea6083115b15611cb5576004600281548110611c0f57fe5b906000526020600020018054600181600116156101000203166002900480601f016020809104026020016040519081016040528092919081815260200182805460018160011615610100020316600290048015611cad5780601f10611c8257610100808354040283529160200191611cad565b820191906000526020600020905b815481529060010190602001808311611c9057829003601f168201915b505050505090505b620dbba091505b6201117083118015611cd15750620186a08311155b15611f3557620138808311611d94576004600381548110611cee57fe5b906000526020600020018054600181600116156101000203166002900480601f016020809104026020016040519081016040528092919081815260200182805460018160011615610100020316600290048015611d8c5780601f10611d6157610100808354040283529160200191611d8c565b820191906000526020600020905b815481529060010190602001808311611d6f57829003601f168201915b505050505090505b6201388083118015611da9575062015f908311155b15611e615760048081548110611dbb57fe5b906000526020600020018054600181600116156101000203166002900480601f016020809104026020016040519081016040528092919081815260200182805460018160011615610100020316600290048015611e595780601f10611e2e57610100808354040283529160200191611e59565b820191906000526020600020905b815481529060010190602001808311611e3c57829003601f168201915b505050505090505b62015f9083118015611e755750620186a083115b15611f2e576004600581548110611e8857fe5b906000526020600020018054600181600116156101000203166002900480601f016020809104026020016040519081016040528092919081815260200182805460018160011615610100020316600290048015611f265780601f10611efb57610100808354040283529160200191611f26565b820191906000526020600020905b815481529060010190602001808311611f0957829003601f168201915b505050505090505b620c350091505b620186a083118015611f4a5750620222e08311155b1561228e57620186a083118015611f6457506201adb08311155b1561201d576004600681548110611f7757fe5b906000526020600020018054600181600116156101000203166002900480601f0160208091040260200160405190810160405280929190818152602001828054600181600116156101000203166002900480156120155780601f10611fea57610100808354040283529160200191612015565b820191906000526020600020905b815481529060010190602001808311611ff857829003601f168201915b505050505090505b6201adb08311801561203257506201d4c08311155b156120eb57600460078154811061204557fe5b906000526020600020018054600181600116156101000203166002900480601f0160208091040260200160405190810160405280929190818152602001828054600181600116156101000203166002900480156120e35780601f106120b8576101008083540402835291602001916120e3565b820191906000526020600020905b8154815290600101906020018083116120c657829003601f168201915b505050505090505b6201d4c08311801561210057506201fbd08311155b156121b957600460088154811061211357fe5b906000526020600020018054600181600116156101000203166002900480601f0160208091040260200160405190810160405280929190818152602001828054600181600116156101000203166002900480156121b15780601f10612186576101008083540402835291602001916121b1565b820191906000526020600020905b81548152906001019060200180831161219457829003601f168201915b505050505090505b6201fbd0831180156121ce5750620222e08311155b156122875760046009815481106121e157fe5b906000526020600020018054600181600116156101000203166002900480601f01602080910402602001604051908101604052809291908181526020018280546001816001161561010002031660029004801561227f5780601f106122545761010080835404028352916020019161227f565b820191906000526020600020905b81548152906001019060200180831161226257829003601f168201915b505050505090505b620aae6091505b620249f0831180156122a3575062030d408311155b156126b557620249f0831180156122bd5750620271008311155b15612376576004600a815481106122d057fe5b906000526020600020018054600181600116156101000203166002900480601f01602080910402602001604051908101604052809291908181526020018280546001816001161561010002031660029004801561236e5780601f106123435761010080835404028352916020019161236e565b820191906000526020600020905b81548152906001019060200180831161235157829003601f168201915b505050505090505b620271008311801561238b5750620298108311155b15612444576004600b8154811061239e57fe5b906000526020600020018054600181600116156101000203166002900480601f01602080910402602001604051908101604052809291908181526020018280546001816001161561010002031660029004801561243c5780601f106124115761010080835404028352916020019161243c565b820191906000526020600020905b81548152906001019060200180831161241f57829003601f168201915b505050505090505b620298108311801561245957506202bf208311155b15612512576004600c8154811061246c57fe5b906000526020600020018054600181600116156101000203166002900480601f01602080910402602001604051908101604052809291908181526020018280546001816001161561010002031660029004801561250a5780601f106124df5761010080835404028352916020019161250a565b820191906000526020600020905b8154815290600101906020018083116124ed57829003601f168201915b505050505090505b6202bf208311801561252757506202e6308311155b156125e0576004600d8154811061253a57fe5b906000526020600020018054600181600116156101000203166002900480601f0160208091040260200160405190810160405280929190818152602001828054600181600116156101000203166002900480156125d85780601f106125ad576101008083540402835291602001916125d8565b820191906000526020600020905b8154815290600101906020018083116125bb57829003601f168201915b505050505090505b6202e630831180156125f5575062030d408311155b156126ae576004600e8154811061260857fe5b906000526020600020018054600181600116156101000203166002900480601f0160208091040260200160405190810160405280929190818152602001828054600181600116156101000203166002900480156126a65780601f1061267b576101008083540402835291602001916126a6565b820191906000526020600020905b81548152906001019060200180831161268957829003601f168201915b505050505090505b620927c091505b62030d40831180156126ca57506207a1208311155b15612baa5762030d40831180156126e457506203d0908311155b1561279d576004600f815481106126f757fe5b906000526020600020018054600181600116156101000203166002900480601f0160208091040260200160405190810160405280929190818152602001828054600181600116156101000203166002900480156127955780601f1061276a57610100808354040283529160200191612795565b820191906000526020600020905b81548152906001019060200180831161277857829003601f168201915b505050505090505b6203d090831180156127b25750620493e08311155b1561286b5760046010815481106127c557fe5b906000526020600020018054600181600116156101000203166002900480601f0160208091040260200160405190810160405280929190818152602001828054600181600116156101000203166002900480156128635780601f1061283857610100808354040283529160200191612863565b820191906000526020600020905b81548152906001019060200180831161284657829003601f168201915b505050505090505b620493e0831180156128805750620557308311155b1561293957600460118154811061289357fe5b906000526020600020018054600181600116156101000203166002900480601f0160208091040260200160405190810160405280929190818152602001828054600181600116156101000203166002900480156129315780601f1061290657610100808354040283529160200191612931565b820191906000526020600020905b81548152906001019060200180831161291457829003601f168201915b505050505090505b620557308311801561294e575062061a808311155b15612a0757600460128154811061296157fe5b906000526020600020018054600181600116156101000203166002900480601f0160208091040260200160405190810160405280929190818152602001828054600181600116156101000203166002900480156129ff5780601f106129d4576101008083540402835291602001916129ff565b820191906000526020600020905b8154815290600101906020018083116129e257829003601f168201915b505050505090505b62061a8083118015612a1c57506206ddd08311155b15612ad5576004601381548110612a2f57fe5b906000526020600020018054600181600116156101000203166002900480601f016020809104026020016040519081016040528092919081815260200182805460018160011615610100020316600290048015612acd5780601f10612aa257610100808354040283529160200191612acd565b820191906000526020600020905b815481529060010190602001808311612ab057829003601f168201915b505050505090505b6206ddd083118015612aea57506207a1208311155b15612ba3576004601481548110612afd57fe5b906000526020600020018054600181600116156101000203166002900480601f016020809104026020016040519081016040528092919081815260200182805460018160011615610100020316600290048015612b9b5780601f10612b7057610100808354040283529160200191612b9b565b820191906000526020600020905b815481529060010190602001808311612b7e57829003601f168201915b505050505090505b6207a12091505b6207a12083118015612bbf5750620f42408311155b15612fd1576207a12083118015612bd95750620927c08311155b15612c92576004601581548110612bec57fe5b906000526020600020018054600181600116156101000203166002900480601f016020809104026020016040519081016040528092919081815260200182805460018160011615610100020316600290048015612c8a5780601f10612c5f57610100808354040283529160200191612c8a565b820191906000526020600020905b815481529060010190602001808311612c6d57829003601f168201915b505050505090505b620927c083118015612ca75750626acfc08311155b15612d60576004601681548110612cba57fe5b906000526020600020018054600181600116156101000203166002900480601f016020809104026020016040519081016040528092919081815260200182805460018160011615610100020316600290048015612d585780601f10612d2d57610100808354040283529160200191612d58565b820191906000526020600020905b815481529060010190602001808311612d3b57829003601f168201915b505050505090505b620aae6083118015612d755750620c35008311155b15612e2e576004601781548110612d8857fe5b906000526020600020018054600181600116156101000203166002900480601f016020809104026020016040519081016040528092919081815260200182805460018160011615610100020316600290048015612e265780601f10612dfb57610100808354040283529160200191612e26565b820191906000526020600020905b815481529060010190602001808311612e0957829003601f168201915b505050505090505b620c350083118015612e435750620dbba08311155b15612efc576004601881548110612e5657fe5b906000526020600020018054600181600116156101000203166002900480601f016020809104026020016040519081016040528092919081815260200182805460018160011615610100020316600290048015612ef45780601f10612ec957610100808354040283529160200191612ef4565b820191906000526020600020905b815481529060010190602001808311612ed757829003601f168201915b505050505090505b620dbba083118015612f115750620f42408311155b15612fca576004601981548110612f2457fe5b906000526020600020018054600181600116156101000203166002900480601f016020809104026020016040519081016040528092919081815260200182805460018160011615610100020316600290048015612fc25780601f10612f9757610100808354040283529160200191612fc2565b820191906000526020600020905b815481529060010190602001808311612fa557829003601f168201915b505050505090505b62061a8091505b620f424083118015612fe65750621e84808311155b1561318e57620f42408311801561300057506216e3608311155b156130b9576004601a8154811061301357fe5b906000526020600020018054600181600116156101000203166002900480601f0160208091040260200160405190810160405280929190818152602001828054600181600116156101000203166002900480156130b15780601f10613086576101008083540402835291602001916130b1565b820191906000526020600020905b81548152906001019060200180831161309457829003601f168201915b505050505090505b6216e360831180156130ce5750621e84808311155b15613187576004601b815481106130e157fe5b906000526020600020018054600181600116156101000203166002900480601f01602080910402602001604051908101604052809291908181526020018280546001816001161561010002031660029004801561317f5780601f106131545761010080835404028352916020019161317f565b820191906000526020600020905b81548152906001019060200180831161316257829003601f168201915b505050505090505b620493e091505b621e8480831180156131a35750624c4b408311155b1561341957621e8480831180156131bd5750622dc6c08311155b15613276576004601c815481106131d057fe5b906000526020600020018054600181600116156101000203166002900480601f01602080910402602001604051908101604052809291908181526020018280546001816001161561010002031660029004801561326e5780601f106132435761010080835404028352916020019161326e565b820191906000526020600020905b81548152906001019060200180831161325157829003601f168201915b505050505090505b622dc6c08311801561328b5750623d09008311155b15613344576004601d8154811061329e57fe5b906000526020600020018054600181600116156101000203166002900480601f01602080910402602001604051908101604052809291908181526020018280546001816001161561010002031660029004801561333c5780601f106133115761010080835404028352916020019161333c565b820191906000526020600020905b81548152906001019060200180831161331f57829003601f168201915b505050505090505b623d0900831180156133595750624c4b408311155b15613412576004601e8154811061336c57fe5b906000526020600020018054600181600116156101000203166002900480601f01602080910402602001604051908101604052809291908181526020018280546001816001161561010002031660029004801561340a5780601f106133df5761010080835404028352916020019161340a565b820191906000526020600020905b8154815290600101906020018083116133ed57829003601f168201915b505050505090505b62030d4091505b624c4b408311801561342f57506301312d008311155b1561391257624c4b408311801561344a575063039387008311155b15613503576004601f8154811061345d57fe5b906000526020600020018054600181600116156101000203166002900480601f0160208091040260200160405190810160405280929190818152602001828054600181600116156101000203166002900480156134fb5780601f106134d0576101008083540402835291602001916134fb565b820191906000526020600020905b8154815290600101906020018083116134de57829003601f168201915b505050505090505b625b8d80831180156135185750626acfc08311155b156135d157600460208154811061352b57fe5b906000526020600020018054600181600116156101000203166002900480601f0160208091040260200160405190810160405280929190818152602001828054600181600116156101000203166002900480156135c95780601f1061359e576101008083540402835291602001916135c9565b820191906000526020600020905b8154815290600101906020018083116135ac57829003601f168201915b505050505090505b626acfc0831180156135e757506304c4b4008311155b156136a05760046021815481106135fa57fe5b906000526020600020018054600181600116156101000203166002900480601f0160208091040260200160405190810160405280929190818152602001828054600181600116156101000203166002900480156136985780601f1061366d57610100808354040283529160200191613698565b820191906000526020600020905b81548152906001019060200180831161367b57829003601f168201915b505050505090505b627a1200831180156136b55750628954408311155b1561376e5760046022815481106136c857fe5b906000526020600020018054600181600116156101000203166002900480601f0160208091040260200160405190810160405280929190818152602001828054600181600116156101000203166002900480156137665780601f1061373b57610100808354040283529160200191613766565b820191906000526020600020905b81548152906001019060200180831161374957829003601f168201915b505050505090505b62895440831180156137835750629896808311155b1561383c57600460238154811061379657fe5b906000526020600020018054600181600116156101000203166002900480601f0160208091040260200160405190810160405280929190818152602001828054600181600116156101000203166002900480156138345780601f1061380957610100808354040283529160200191613834565b820191906000526020600020905b81548152906001019060200180831161381757829003601f168201915b505050505090505b629896808311801561385257506301312d008311155b1561390b57600460248154811061386557fe5b906000526020600020018054600181600116156101000203166002900480601f0160208091040260200160405190810160405280929190818152602001828054600181600116156101000203166002900480156139035780601f106138d857610100808354040283529160200191613903565b820191906000526020600020905b8154815290600101906020018083116138e657829003601f168201915b505050505090505b620186a091505b915091565b6000606060008311613991576040517f08c379a000000000000000000000000000000000000000000000000000000000815260040180806020018281038252601b8152602001807f46756e6473206d75737420626520626967676572207468616e2030000000000081525060200191505060405180910390fd5b619c408311156139ec576040517f08c379a0000000000000000000000000000000000000000000000000000000008152600401808060200182810382526034815260200180613fc46034913960400191505060405180910390fd5b6101f48311613a2e576040518060400160405280600c81526020017f7665727954696e7947616d65000000000000000000000000000000000000000081525090505b6101f483118015613a4157506103e88311155b15613a7f576040518060400160405280600881526020017f74696e7947616d6500000000000000000000000000000000000000000000000081525090505b6103e883118015613a9257506109c48311155b15613ad0576040518060400160405280600d81526020017f76657279536d616c6c47616d650000000000000000000000000000000000000081525090505b6109c483118015613ae357506113888311155b15613b21576040518060400160405280600981526020017f736d616c6c47616d65000000000000000000000000000000000000000000000081525090505b61138883118015613b345750611d4c8311155b15613b72576040518060400160405280600a81526020017f6e6f726d616c47616d650000000000000000000000000000000000000000000081525090505b611d4c83118015613b8557506127108311155b15613bc3576040518060400160405280600781526020017f62696747616d650000000000000000000000000000000000000000000000000081525090505b61271083118015613bd65750614e208311155b15613c14576040518060400160405280600b81526020017f7665727942696747616d6500000000000000000000000000000000000000000081525090505b614e2083118015613c2757506175308311155b15613c65576040518060400160405280600881526020017f6875676547616d6500000000000000000000000000000000000000000000000081525090505b61753083118015613c785750619c408311155b15613cb6576040518060400160405280600981526020017f677265617447616d65000000000000000000000000000000000000000000000081525090505b620f42409150915091565b600080831415613cd45760009050613cf2565b6000828402905082848281613ce557fe5b0414613ced57fe5b809150505b92915050565b600080828481613d0457fe5b0490508091505092915050565b600073ffffffffffffffffffffffffffffffffffffffff16600160009054906101000a900473ffffffffffffffffffffffffffffffffffffffff1673ffffffffffffffffffffffffffffffffffffffff161415613dd6576040517f08c379a00000000000000000000000000000000000000000000000000000000081526004018080602001828103825260088152602001807f4e6f2050726f787900000000000000000000000000000000000000000000000081525060200191505060405180910390fd5b6000600160009054906101000a900473ffffffffffffffffffffffffffffffffffffffff1673ffffffffffffffffffffffffffffffffffffffff166335817773836040518263ffffffff1660e01b81526004018080602001828103825283818151815260200191508051906020019080838360005b83811015613e66578082015181840152602081019050613e4b565b50505050905090810190601f168015613e935780820380516001836020036101000a031916815260200191505b509250505060206040518083038186803b158015613eb057600080fd5b505afa158015613ec4573d6000803e3d6000fd5b505050506040513d6020811015613eda57600080fd5b81019080805190602001909291905050509050600073ffffffffffffffffffffffffffffffffffffffff168173ffffffffffffffffffffffffffffffffffffffff161415613f2457fe5b8073ffffffffffffffffffffffffffffffffffffffff163373ffffffffffffffffffffffffffffffffffffffff1614613fa8576040517f08c379a000000000000000000000000000000000000000000000000000000000815260040180806020018281038252602d815260200180613ff8602d913960400191505060405180910390fd5b5050565b600082821115613fb857fe5b81830390509291505056fe546f6f206d7563682066756e647320666f72206120686f6e6579706f7420636c6173732062656c6f7720696e6372656369626c65416363657373206973206f6e6c7920616c6c6f7765642066726f6d20737065636966696320636f6e74726163744e6f7420656e6f7567682066756e647320666f7220696e6372656469626c6520636c617373a265627a7a72315820cd89d5ac1475d25d2395c8cc87fb6747542cfaa37839966f1a7163adc0b82d7464736f6c63430005110032",
  "source": "/**\r\n * @title HoneypotAllocationAlgo\r\n */\r\npragma solidity ^0.5.5;\r\n/**\r\n * @title HoneypotAllocationAlgo\r\n * @dev Responsible for : allocate initial ETH and initial KTY funds to a new honeypot upon its creation\r\n * @author @ziweidream\r\n */\r\nimport '../proxy/Proxied.sol';\r\nimport '../../libs/SafeMath.sol';\r\nimport '../../GameVarAndFee.sol';\r\nimport '../databases/GenericDB.sol';\r\nimport \"../../uniswapKTY/uniswap-v2-periphery/interfaces/IUniswapV2Router01.sol\";\r\nimport \"./KtyUniswap.sol\";\r\nimport \"../databases/EndowmentDB.sol\";\r\n\r\ncontract HoneypotAllocationAlgo is Proxied {\r\n    using SafeMath for uint256;\r\n\r\n    address[] public path;\r\n    EndowmentDB public endowmentDB;\r\n\r\n    /// @dev game honeypot classfication (based on actual funds in USD)\r\n    string constant VERY_TINY_GAME = \"veryTinyGame\"; // <= $500\r\n    string constant TINY_GAME = \"tinyGame\"; // >$500 && <= $1000\r\n    string constant VERY_SMALL_GAME = \"verySmallGame\"; // > $1000 && <= $2500\r\n    string constant SMALL_GAME = \"smallGame\"; // > $2500 && <= $5000\r\n    string constant NORMAL_GAME = \"normalGame\"; // > $5000 && <= $7500\r\n    string constant BIG_GAME = \"bigGame\"; // > $7500 && <= $10000\r\n    string constant VERY_BIG_GAME = \"veryBigGame\"; // > $10000 && <= $20000\r\n    string constant HUGE_GAME = \"hugeGame\"; // > $20000 && <= $30000\r\n    string constant GREAT_GAME = \"greatGame\"; // > $30000 && <= $40000\r\n    string constant INCREDIBLE_GAME_0 = \"incredibleGame0\";   // > $40000 && <= $50000\r\n    string constant INCREDIBLE_GAME_1 = \"incredibleGame1\";   // > $50000 && <= $60000\r\n    string constant INCREDIBLE_GAME_2 = \"incredibleGame2\";   // > $60000 && <= $70000\r\n    string constant INCREDIBLE_GAME_3 = \"incredibleGame3\";   // > $70000 && <= $80000\r\n    string constant INCREDIBLE_GAME_4 = \"incredibleGame4\";   // > $80000 && <= $90000\r\n    string constant INCREDIBLE_GAME_5 = \"incredibleGame5\";   // > $90000 && <= $100000\r\n    string constant INCREDIBLE_GAME_6 = \"incredibleGame6\";   // > $100000 && <= $110000\r\n    string constant INCREDIBLE_GAME_7 = \"incredibleGame7\";   // > $110000 && <= $120000\r\n    string constant INCREDIBLE_GAME_8 = \"incredibleGame6\";   // > $120000 && <= $130000\r\n    string constant INCREDIBLE_GAME_9 = \"incredibleGame9\";   // > $130000 && <= $140000\r\n    string constant INCREDIBLE_GAME_10 = \"incredibleGame10\";   // > $150000 && <= $160000\r\n    string constant INCREDIBLE_GAME_11 = \"incredibleGame11\";   // > $160000 && <= $170000\r\n    string constant INCREDIBLE_GAME_12 = \"incredibleGame12\";   // > $170000 && <= $180000\r\n    string constant INCREDIBLE_GAME_13 = \"incredibleGame13\";   // > $180000 && <= $190000\r\n    string constant INCREDIBLE_GAME_14 = \"incredibleGame14\";   // > $190000 && <= $200000\r\n    string constant INCREDIBLE_GAME_15 = \"incredibleGame15\";   // > $200000 && <= $250000\r\n    string constant INCREDIBLE_GAME_16 = \"incredibleGame16\";   // > $250000 && <= $300000\r\n    string constant INCREDIBLE_GAME_17 = \"incredibleGame17\"; // > $300000 && <= $350000\r\n    string constant INCREDIBLE_GAME_18 = \"incredibleGame18\"; // > $350000 && <= $400000\r\n    string constant INCREDIBLE_GAME_19 = \"incredibleGame19\"; // > $400000 && <= $450000\r\n    string constant INCREDIBLE_GAME_20 = \"incredibleGame20\"; // > $450000 && <= $500000\r\n    string constant INCREDIBLE_GAME_21 = \"incredibleGame21\"; // > $500000 && <= $600000\r\n    string constant INCREDIBLE_GAME_22 = \"incredibleGame22\"; // > $600000 && <= $700000\r\n    string constant INCREDIBLE_GAME_23 = \"incredibleGame23\"; // > $700000 && <= $800000\r\n    string constant INCREDIBLE_GAME_24 = \"incredibleGame24\"; // > $800000 && <= $900000\r\n    string constant INCREDIBLE_GAME_25 = \"incredibleGame25\"; // > $900000 && <= $1000000\r\n    string constant INCREDIBLE_GAME_26 = \"incredibleGame26\"; // > $1000000 && <= $1500000\r\n    string constant INCREDIBLE_GAME_27 = \"incredibleGame27\"; // > $1500000 && <= $2000000\r\n    string constant INCREDIBLE_GAME_28 = \"incredibleGame28\"; // > $2000000 && <= $3000000\r\n    string constant INCREDIBLE_GAME_29 = \"incredibleGame29\"; // > $3000000 && <= $4000000\r\n    string constant INCREDIBLE_GAME_30 = \"incredibleGame30\"; // > $4000000 && <= $5000000\r\n    string constant INCREDIBLE_GAME_31 = \"incredibleGame31\"; // > $5000000 && <= $6000000\r\n    string constant INCREDIBLE_GAME_32 = \"incredibleGame32\"; // > $6000000 && <= $7000000\r\n    string constant INCREDIBLE_GAME_33 = \"incredibleGame33\"; // > $7000000 && <= $8000000\r\n    string constant INCREDIBLE_GAME_34 = \"incredibleGame34\"; // > $8000000 && <= $9,000,000\r\n    string constant INCREDIBLE_GAME_35 = \"incredibleGame35\"; // > $9,000,000 && <= $10,000,000\r\n    string constant INCREDIBLE_GAME_36 = \"incredibleGame36\"; // > $10,000,000 && <= $20,000,000\r\n\r\n    /// @dev honeypot allocation percentage\r\n    uint256 constant HONEYPOT_ALLOCATION_PERCENTAGE_GREAT            = 1000000; // very tiny game - big game: 100%\r\n    uint256 constant HONEYPOT_ALLOCATION_PERCENTAGE_INCREDIBLE_0_2   = 900000; // Incredible Game 0 - Incredible Game 2: 90%\r\n    uint256 constant HONEYPOT_ALLOCATION_PERCENTAGE_INCREDIBLE_3_5   = 800000; // Incredible Game 3 - Incredible Game 5: 80%\r\n    uint256 constant HONEYPOT_ALLOCATION_PERCENTAGE_INCREDIBLE_6_9   = 700000; // Incredible Game 6 - Incredible Game 9: 70%\r\n    uint256 constant HONEYPOT_ALLOCATION_PERCENTAGE_INCREDIBLE_10_14 = 600000; // Incredible Game 10 - Incredible Game 14: 60%\r\n    uint256 constant HONEYPOT_ALLOCATION_PERCENTAGE_INCREDIBLE_15_20 = 500000; // Incredible Game 15 - Incredible Game 19: 50%\r\n    uint256 constant HONEYPOT_ALLOCATION_PERCENTAGE_INCREDIBLE_21_25 = 400000; // Incredible Game 20 - Incredible Game 24: 40%\r\n    uint256 constant HONEYPOT_ALLOCATION_PERCENTAGE_INCREDIBLE_26_27 = 300000; // Incredible Game 25 - Incredible Game 26: 30%\r\n    uint256 constant HONEYPOT_ALLOCATION_PERCENTAGE_INCREDIBLE_28_30 = 200000; // Incredible Game 27 - Incredible Game 29: 20%\r\n    uint256 constant HONEYPOT_ALLOCATION_PERCENTAGE_INCREDIBLE_31_36 = 100000; // Incredible Game 30 - Incredible Game 35: 10%\r\n\r\n    /// @dev an array of all the honeypot incredible-class names\r\n    string[] honeypotClassIncredible = [\r\n        INCREDIBLE_GAME_0, INCREDIBLE_GAME_1, INCREDIBLE_GAME_2,\r\n        INCREDIBLE_GAME_3, INCREDIBLE_GAME_4, INCREDIBLE_GAME_5,\r\n        INCREDIBLE_GAME_6, INCREDIBLE_GAME_7, INCREDIBLE_GAME_8,\r\n        INCREDIBLE_GAME_9, INCREDIBLE_GAME_10, INCREDIBLE_GAME_11,\r\n        INCREDIBLE_GAME_12, INCREDIBLE_GAME_13, INCREDIBLE_GAME_14,\r\n        INCREDIBLE_GAME_15, INCREDIBLE_GAME_16, INCREDIBLE_GAME_17,\r\n        INCREDIBLE_GAME_18, INCREDIBLE_GAME_19, INCREDIBLE_GAME_20,\r\n        INCREDIBLE_GAME_21, INCREDIBLE_GAME_22, INCREDIBLE_GAME_23,\r\n        INCREDIBLE_GAME_24, INCREDIBLE_GAME_25, INCREDIBLE_GAME_26,\r\n        INCREDIBLE_GAME_27, INCREDIBLE_GAME_28, INCREDIBLE_GAME_29,\r\n        INCREDIBLE_GAME_30, INCREDIBLE_GAME_31, INCREDIBLE_GAME_32,\r\n        INCREDIBLE_GAME_33, INCREDIBLE_GAME_34, INCREDIBLE_GAME_35,\r\n        INCREDIBLE_GAME_36\r\n    ];\r\n\r\n    function initialize()\r\n    public\r\n    onlyContract(CONTRACT_NAME_ENDOWMENT_FUND)\r\n    {\r\n        address _WETH = proxy.getContract(CONTRACT_NAME_WETH);\r\n        path.push(_WETH);\r\n        address _KTY = proxy.getContract(CONTRACT_NAME_KITTIEFIGHTOKEN);\r\n        path.push(_KTY);\r\n        endowmentDB = EndowmentDB(proxy.getContract(CONTRACT_NAME_ENDOWMENT_DB));\r\n    }\r\n\r\n\r\n\r\n    /**\r\n    * @dev check if enough funds present and maintains balance of tokens in DB\r\n    */\r\n    function generateHoneyPot(uint256 gameId)\r\n    external\r\n    onlyContract(CONTRACT_NAME_GAMECREATION)\r\n    returns (uint, uint) {\r\n        (\r\n          uint ktyAllocated,\r\n          uint ethAllocated,\r\n          string memory honeypotClass\r\n        ) = calculateAllocationToHoneypot();\r\n        return (endowmentDB.generateHoneyPot(gameId, ktyAllocated, ethAllocated, honeypotClass));\r\n    }\r\n\r\n    /**\r\n     * @dev calculates the amount of initial ethers and KTYs allocated to a new honeypot\r\n     * upon its generations, based on the amount of available funds in USD\r\n     * @return ktyAllocated uint256 the amount of initial KTYs allocated to a honeypot\r\n     * @return ethAllocated uint256 the amount of initial ethers allocated to a honeypot\r\n     * @return honeypotClass string the name of the class assigned to a honeypot\r\n     */\r\n    function calculateAllocationToHoneypot()\r\n        public\r\n        view\r\n        // onlyContract(CONTRACT_NAME_ENDOWMENT_DB)\r\n        returns (uint256 ktyAllocated, uint256 ethAllocated, string memory honeypotClass)\r\n    {\r\n        GameVarAndFee gameVarAndFee = GameVarAndFee(proxy.getContract(CONTRACT_NAME_GAMEVARANDFEE));\r\n        uint256 ethUsdPrice = gameVarAndFee.getEthUsdPrice();\r\n        uint256 usdKTYPrice = gameVarAndFee.getUsdKTYPrice();\r\n        uint256 actualFundsETH = GenericDB(proxy.getContract(CONTRACT_NAME_GENERIC_DB))\r\n                                 .getUintStorage(\r\n                                     CONTRACT_NAME_ENDOWMENT_DB,\r\n                                     keccak256(abi.encodePacked(\"actualFundsETH\")));\r\n\r\n        uint256 actualFundsUSD = convertETHtoUSD(actualFundsETH);\r\n        uint256 percentageETH;\r\n        if (actualFundsUSD > 40000) {\r\n            (percentageETH, honeypotClass) = _honeypotAllocationETH_incredible(actualFundsUSD);\r\n        } else {\r\n            (percentageETH, honeypotClass) = _honeypotAllocationETH_great(actualFundsUSD);\r\n        }\r\n        ethAllocated = percentageETH.mul(actualFundsETH).div(1000000);\r\n        ktyAllocated = gameVarAndFee.getPercentageHoneypotAllocationKTY()\r\n                                    .mul(ethAllocated).mul(ethUsdPrice)\r\n                                    .div(usdKTYPrice).div(1000000);// 1,000,000 is the percentage base\r\n    }\r\n\r\n    /**\r\n    * @dev send reward to the user that pressed finalize button\r\n    */\r\n    // function getFinalizeRewards()\r\n    //     external\r\n    //     view\r\n    //     onlyContract(CONTRACT_NAME_ENDOWMENT_FUND)\r\n    //     returns(uint256)\r\n    // {\r\n    //     GameVarAndFee gameVarAndFee = GameVarAndFee(proxy.getContract(CONTRACT_NAME_GAMEVARANDFEE));\r\n    //     // get reward amount in KTY\r\n    //     (, uint rewardsKTY) = gameVarAndFee.getFinalizeRewards();\r\n    //     return rewardsKTY;\r\n    // }\r\n\r\n    /**\r\n    * @dev exchange ether for KTY\r\n    */\r\n    function swapEtherForKTY(uint256 _etherForSwap, address _escrow)\r\n        external\r\n        payable\r\n        onlyContract(CONTRACT_NAME_ENDOWMENT_FUND)\r\n        returns(uint256)\r\n    {\r\n        // allow an error within 0.0001 ether range, which is around $0.002 USD, that is, 0.2 cents.\r\n        require(msg.value >= _etherForSwap.sub(10000000000000), \"Insufficient ether for swap KTY\");\r\n        // exchange KTY on uniswap\r\n        IUniswapV2Router01(proxy.getContract(CONTRACT_NAME_UNISWAPV2_ROUTER)).swapExactETHForTokens.value(msg.value)(\r\n            0,\r\n            path,\r\n            _escrow,\r\n            2**255\r\n        );\r\n    }\r\n\r\n    /**\r\n     * @dev Convert funds from ether to USD\r\n     * @param _eth uint256 the amount of ethers to be converted to USD\r\n     * @return _usd uint256 the amount of USD converted from ether\r\n     */\r\n    function convertETHtoUSD(uint256 _eth)\r\n        public view returns(uint256 _usd) {\r\n        GameVarAndFee gameVarAndFee = GameVarAndFee(proxy.getContract(CONTRACT_NAME_GAMEVARANDFEE));\r\n        _usd = _eth.mul(gameVarAndFee.getEthUsdPrice()).div(1000000000000000000).div(1000000000000000000);\r\n    }\r\n\r\n    /**\r\n     * @dev Determines if a honeypot should belong to the incredible class or not\r\n     * @param _actualFundsUSD uint256 the amount of acutal funds available in USD\r\n     * @return true if the honeypot is of an incredible class\r\n     */\r\n    function _isIncredible(uint256 _actualFundsUSD) internal pure returns(bool) {\r\n        return _actualFundsUSD > 40000;\r\n    }\r\n\r\n    /**\r\n     * @dev Determines the percentage of actual funds in ether to be allocated to a new honeypot\r\n     * and the class name of a honeypot\r\n     * @dev This function is for honeypots belonging to an incredible class.\r\n     * @param _actualFundsUSD uint256 the amount of actual funds available in USD, which should be at least $40,000\r\n     * @return percentage uint256 the percentage of actual funds availabe for initial ehter allocation to a honeypot\r\n     * @return honeypotClass string the name of the class of the honeypot\r\n     */\r\n    function _honeypotAllocationETH_incredible(uint256 _actualFundsUSD)\r\n        internal\r\n        view\r\n        returns (uint256 percentage, string memory honeypotClass)\r\n    {\r\n        require(_actualFundsUSD > 40000, \"Not enough funds for incredible class\");\r\n        // incredible class 0, 1, 2\r\n        if (_actualFundsUSD <= 70000) {\r\n            if (_actualFundsUSD <= 50000) {\r\n            honeypotClass = honeypotClassIncredible[0];\r\n            }\r\n            if (_actualFundsUSD <= 60000 && _actualFundsUSD > 50000) {\r\n                honeypotClass = honeypotClassIncredible[1];\r\n            }\r\n            if (_actualFundsUSD <= 70000 && _actualFundsUSD > 60000) {\r\n                honeypotClass = honeypotClassIncredible[2];\r\n            }\r\n            percentage = HONEYPOT_ALLOCATION_PERCENTAGE_INCREDIBLE_0_2;\r\n        }\r\n\r\n        // incredible class 3, 4, 5\r\n        if (_actualFundsUSD > 70000 && _actualFundsUSD <= 100000) {\r\n            if (_actualFundsUSD <= 80000) {\r\n            honeypotClass = honeypotClassIncredible[3];\r\n            }\r\n            if (_actualFundsUSD > 80000 && _actualFundsUSD <= 90000) {\r\n                honeypotClass = honeypotClassIncredible[4];\r\n            }\r\n            if (_actualFundsUSD > 90000 && _actualFundsUSD > 100000) {\r\n                honeypotClass = honeypotClassIncredible[5];\r\n            }\r\n            percentage = HONEYPOT_ALLOCATION_PERCENTAGE_INCREDIBLE_3_5;\r\n        }\r\n\r\n        // incredible class 6, 7, 8, 9\r\n        if (_actualFundsUSD > 100000 && _actualFundsUSD <= 140000) {\r\n            if (_actualFundsUSD > 100000 && _actualFundsUSD <= 110000) {\r\n            honeypotClass = honeypotClassIncredible[6];\r\n            }\r\n            if (_actualFundsUSD > 110000 && _actualFundsUSD <= 120000) {\r\n                honeypotClass = honeypotClassIncredible[7];\r\n            }\r\n            if (_actualFundsUSD > 120000 && _actualFundsUSD <= 130000) {\r\n                honeypotClass = honeypotClassIncredible[8];\r\n            }\r\n            if (_actualFundsUSD > 130000 && _actualFundsUSD <= 140000) {\r\n                honeypotClass = honeypotClassIncredible[9];\r\n            }\r\n            percentage = HONEYPOT_ALLOCATION_PERCENTAGE_INCREDIBLE_6_9;\r\n        }\r\n\r\n        // incredible class 10, 11, 12, 13, 14\r\n        if (_actualFundsUSD > 150000 && _actualFundsUSD <= 200000) {\r\n            if (_actualFundsUSD > 150000 && _actualFundsUSD <= 160000) {\r\n            honeypotClass = honeypotClassIncredible[10];\r\n            }\r\n            if (_actualFundsUSD > 160000 && _actualFundsUSD <= 170000) {\r\n                honeypotClass = honeypotClassIncredible[11];\r\n            }\r\n            if (_actualFundsUSD > 170000 && _actualFundsUSD <= 180000) {\r\n                honeypotClass = honeypotClassIncredible[12];\r\n            }\r\n            if (_actualFundsUSD > 180000 && _actualFundsUSD <= 190000) {\r\n                honeypotClass = honeypotClassIncredible[13];\r\n            }\r\n            if (_actualFundsUSD > 190000 && _actualFundsUSD <= 200000) {\r\n                honeypotClass = honeypotClassIncredible[14];\r\n            }\r\n            percentage = HONEYPOT_ALLOCATION_PERCENTAGE_INCREDIBLE_10_14;\r\n        }\r\n\r\n        // incredible class 15, 16, 17, 18, 19, 20\r\n        if (_actualFundsUSD > 200000 && _actualFundsUSD <= 500000) {\r\n            if (_actualFundsUSD > 200000 && _actualFundsUSD <= 250000) {\r\n            honeypotClass = honeypotClassIncredible[15];\r\n            }\r\n            if (_actualFundsUSD > 250000 && _actualFundsUSD <= 300000) {\r\n                honeypotClass = honeypotClassIncredible[16];\r\n            }\r\n            if (_actualFundsUSD > 300000 && _actualFundsUSD <= 350000) {\r\n                honeypotClass = honeypotClassIncredible[17];\r\n            }\r\n            if (_actualFundsUSD > 350000 && _actualFundsUSD <= 400000) {\r\n                honeypotClass = honeypotClassIncredible[18];\r\n            }\r\n            if (_actualFundsUSD > 400000 && _actualFundsUSD <= 450000) {\r\n                honeypotClass = honeypotClassIncredible[19];\r\n            }\r\n            if (_actualFundsUSD > 450000 && _actualFundsUSD <= 500000) {\r\n                honeypotClass = honeypotClassIncredible[20];\r\n            }\r\n            percentage = HONEYPOT_ALLOCATION_PERCENTAGE_INCREDIBLE_15_20;\r\n        }\r\n\r\n        // incredible class 21, 22, 23, 24, 25\r\n        if (_actualFundsUSD > 500000 && _actualFundsUSD <= 1000000) {\r\n            if (_actualFundsUSD > 500000 && _actualFundsUSD <= 600000) {\r\n                honeypotClass = honeypotClassIncredible[21];\r\n            }\r\n            if (_actualFundsUSD > 600000 && _actualFundsUSD <= 7000000) {\r\n                honeypotClass = honeypotClassIncredible[22];\r\n            }\r\n            if (_actualFundsUSD > 700000 && _actualFundsUSD <= 800000) {\r\n                honeypotClass = honeypotClassIncredible[23];\r\n            }\r\n            if (_actualFundsUSD > 800000 && _actualFundsUSD <= 900000) {\r\n                honeypotClass = honeypotClassIncredible[24];\r\n            }\r\n            if (_actualFundsUSD > 900000 && _actualFundsUSD <= 1000000) {\r\n                honeypotClass = honeypotClassIncredible[25];\r\n            }\r\n            percentage = HONEYPOT_ALLOCATION_PERCENTAGE_INCREDIBLE_21_25;\r\n        }\r\n\r\n        // incredible class 26, 27\r\n        if (_actualFundsUSD > 1000000 && _actualFundsUSD <= 2000000) {\r\n            if (_actualFundsUSD > 1000000 && _actualFundsUSD <= 1500000) {\r\n                honeypotClass = honeypotClassIncredible[26];\r\n            }\r\n            if (_actualFundsUSD > 1500000 && _actualFundsUSD <= 2000000) {\r\n                honeypotClass = honeypotClassIncredible[27];\r\n            }\r\n            percentage = HONEYPOT_ALLOCATION_PERCENTAGE_INCREDIBLE_26_27;\r\n        }\r\n\r\n        // incredible class 28, 29, 30\r\n        if (_actualFundsUSD > 2000000 && _actualFundsUSD <= 5000000) {\r\n            if (_actualFundsUSD > 2000000 && _actualFundsUSD <= 3000000) {\r\n                honeypotClass = honeypotClassIncredible[28];\r\n            }\r\n            if (_actualFundsUSD > 3000000 && _actualFundsUSD <= 4000000) {\r\n                honeypotClass = honeypotClassIncredible[29];\r\n            }\r\n            if (_actualFundsUSD > 4000000 && _actualFundsUSD <= 5000000) {\r\n                honeypotClass = honeypotClassIncredible[30];\r\n            }\r\n            percentage = HONEYPOT_ALLOCATION_PERCENTAGE_INCREDIBLE_28_30;\r\n        }\r\n\r\n        // incredible class 31, 32, 33, 34, 35, 36\r\n        if (_actualFundsUSD > 5000000 && _actualFundsUSD <= 20000000) {\r\n            if (_actualFundsUSD > 5000000 && _actualFundsUSD <= 60000000) {\r\n                honeypotClass = honeypotClassIncredible[31];\r\n            }\r\n            if (_actualFundsUSD > 6000000 && _actualFundsUSD <= 7000000) {\r\n                honeypotClass = honeypotClassIncredible[32];\r\n            }\r\n            if (_actualFundsUSD > 7000000 && _actualFundsUSD <= 80000000) {\r\n                honeypotClass = honeypotClassIncredible[33];\r\n            }\r\n            if (_actualFundsUSD > 8000000 && _actualFundsUSD <= 9000000) {\r\n                honeypotClass = honeypotClassIncredible[34];\r\n            }\r\n            if (_actualFundsUSD > 9000000 && _actualFundsUSD <= 10000000) {\r\n                honeypotClass = honeypotClassIncredible[35];\r\n            }\r\n            if (_actualFundsUSD > 10000000 && _actualFundsUSD <= 20000000) {\r\n                honeypotClass = honeypotClassIncredible[36];\r\n            }\r\n            percentage = HONEYPOT_ALLOCATION_PERCENTAGE_INCREDIBLE_31_36;\r\n        }\r\n    }\r\n\r\n    /**\r\n     * @dev Determines the percentage of actual funds in ether to be allocated to a new honeypot\r\n     * and the class name of a honeypot\r\n     * @dev This function is for honeypots belonging to a great class or lower.\r\n     * @param _actualFundsUSD uint256 the amount of actual funds available in USD, which should be at most $40,000\r\n     * @return percentage uint256 the percentage of actual funds availabe for initial ehter allocation to a honeypot\r\n     * @return honeypotClass string the name of the class of the honeypot\r\n     */\r\n    function _honeypotAllocationETH_great(uint256 _actualFundsUSD)\r\n        internal\r\n        pure\r\n        returns (uint256 percentage, string memory honeypotClass)\r\n    {\r\n        require(_actualFundsUSD > 0, \"Funds must be bigger than 0\");\r\n        require(_actualFundsUSD <= 40000, \"Too much funds for a honeypot class below increcible\");\r\n\r\n        if (_actualFundsUSD <= 500) {\r\n            honeypotClass = VERY_TINY_GAME;\r\n        }\r\n\r\n        if (_actualFundsUSD > 500 && _actualFundsUSD <= 1000) {\r\n            honeypotClass = TINY_GAME;\r\n        }\r\n\r\n        if (_actualFundsUSD > 1000 && _actualFundsUSD <= 2500) {\r\n            honeypotClass = VERY_SMALL_GAME;\r\n        }\r\n\r\n        if (_actualFundsUSD > 2500 && _actualFundsUSD <= 5000) {\r\n            honeypotClass = SMALL_GAME;\r\n        }\r\n\r\n        if (_actualFundsUSD > 5000 && _actualFundsUSD <= 7500) {\r\n            honeypotClass = NORMAL_GAME;\r\n        }\r\n\r\n        if (_actualFundsUSD > 7500 && _actualFundsUSD <= 10000) {\r\n            honeypotClass = BIG_GAME;\r\n        }\r\n\r\n        if (_actualFundsUSD > 10000 && _actualFundsUSD <= 20000) {\r\n            honeypotClass = VERY_BIG_GAME;\r\n        }\r\n\r\n        if (_actualFundsUSD > 20000 && _actualFundsUSD <= 30000) {\r\n            honeypotClass = HUGE_GAME;\r\n        }\r\n\r\n        if (_actualFundsUSD > 30000 && _actualFundsUSD <= 40000) {\r\n            honeypotClass = GREAT_GAME;\r\n        }\r\n\r\n        percentage = HONEYPOT_ALLOCATION_PERCENTAGE_GREAT;\r\n    }\r\n}",
  "sourcePath": "C:\\Users\\Alex\\Desktop\\MyProjects\\contracts\\contracts\\modules\\endowment\\HoneypotAllocationAlgo.sol",
  "compiler": {
    "name": "solc",
    "version": "0.5.17+commit.d19bba13.Emscripten.clang"
  },
  "schemaVersion": "3.0.11",
  "updatedAt": "2020-06-17T00:17:39.853Z",
  "devdoc": {
    "methods": {
      "calculateAllocationToHoneypot()": {
        "details": "calculates the amount of initial ethers and KTYs allocated to a new honeypot upon its generations, based on the amount of available funds in USD",
        "return": "ktyAllocated uint256 the amount of initial KTYs allocated to a honeypotethAllocated uint256 the amount of initial ethers allocated to a honeypothoneypotClass string the name of the class assigned to a honeypot"
      },
      "convertETHtoUSD(uint256)": {
        "details": "Convert funds from ether to USD",
        "params": {
          "_eth": "uint256 the amount of ethers to be converted to USD"
        },
        "return": "_usd uint256 the amount of USD converted from ether"
      },
      "generateHoneyPot(uint256)": {
        "details": "check if enough funds present and maintains balance of tokens in DB"
      },
      "swapEtherForKTY(uint256,address)": {
        "details": "exchange ether for KTY"
      }
    }
  },
  "userdoc": {
    "methods": {
      "setProxy(address)": {
        "notice": "Set/update address of Proxy contract"
      }
    }
  }
}