{
  "contractName": "HoneypotAllocationAlgo",
  "abi": [
    {
      "constant": true,
      "inputs": [],
      "name": "owner",
      "outputs": [
        {
          "internalType": "address payable",
          "name": "",
          "type": "address"
        }
      ],
      "payable": false,
      "stateMutability": "view",
      "type": "function"
    },
    {
      "constant": true,
      "inputs": [],
      "name": "proxy",
      "outputs": [
        {
          "internalType": "contract ProxyBase",
          "name": "",
          "type": "address"
        }
      ],
      "payable": false,
      "stateMutability": "view",
      "type": "function"
    },
    {
      "constant": false,
      "inputs": [
        {
          "internalType": "contract ProxyBase",
          "name": "_proxy",
          "type": "address"
        }
      ],
      "name": "setProxy",
      "outputs": [],
      "payable": false,
      "stateMutability": "nonpayable",
      "type": "function"
    },
    {
      "constant": false,
      "inputs": [
        {
          "internalType": "address payable",
          "name": "newOwner",
          "type": "address"
        }
      ],
      "name": "transferOwnership",
      "outputs": [],
      "payable": false,
      "stateMutability": "nonpayable",
      "type": "function"
    },
    {
      "constant": true,
      "inputs": [],
      "name": "calculateAllocationToHoneypot",
      "outputs": [
        {
          "internalType": "uint256",
          "name": "ktyAllocated",
          "type": "uint256"
        },
        {
          "internalType": "uint256",
          "name": "ethAllocated",
          "type": "uint256"
        },
        {
          "internalType": "string",
          "name": "honeypotClass",
          "type": "string"
        }
      ],
      "payable": false,
      "stateMutability": "view",
      "type": "function"
    },
    {
      "constant": true,
      "inputs": [
        {
          "internalType": "uint256",
          "name": "_eth",
          "type": "uint256"
        }
      ],
      "name": "convertETHtoUSD",
      "outputs": [
        {
          "internalType": "uint256",
          "name": "_usd",
          "type": "uint256"
        }
      ],
      "payable": false,
      "stateMutability": "view",
      "type": "function"
    }
  ],
  "bytecode": "0x6080604052604051806104a001604052806040518060400160405280600f81526020017f696e6372656469626c6547616d6530000000000000000000000000000000000081525081526020016040518060400160405280600f81526020017f696e6372656469626c6547616d6531000000000000000000000000000000000081525081526020016040518060400160405280600f81526020017f696e6372656469626c6547616d6532000000000000000000000000000000000081525081526020016040518060400160405280600f81526020017f696e6372656469626c6547616d6533000000000000000000000000000000000081525081526020016040518060400160405280600f81526020017f696e6372656469626c6547616d6534000000000000000000000000000000000081525081526020016040518060400160405280600f81526020017f696e6372656469626c6547616d6535000000000000000000000000000000000081525081526020016040518060400160405280600f81526020017f696e6372656469626c6547616d6536000000000000000000000000000000000081525081526020016040518060400160405280600f81526020017f696e6372656469626c6547616d6537000000000000000000000000000000000081525081526020016040518060400160405280600f81526020017f696e6372656469626c6547616d6536000000000000000000000000000000000081525081526020016040518060400160405280600f81526020017f696e6372656469626c6547616d6539000000000000000000000000000000000081525081526020016040518060400160405280601081526020017f696e6372656469626c6547616d6531300000000000000000000000000000000081525081526020016040518060400160405280601081526020017f696e6372656469626c6547616d6531310000000000000000000000000000000081525081526020016040518060400160405280601081526020017f696e6372656469626c6547616d6531320000000000000000000000000000000081525081526020016040518060400160405280601081526020017f696e6372656469626c6547616d6531330000000000000000000000000000000081525081526020016040518060400160405280601081526020017f696e6372656469626c6547616d6531340000000000000000000000000000000081525081526020016040518060400160405280601081526020017f696e6372656469626c6547616d6531350000000000000000000000000000000081525081526020016040518060400160405280601081526020017f696e6372656469626c6547616d6531360000000000000000000000000000000081525081526020016040518060400160405280601081526020017f696e6372656469626c6547616d6531370000000000000000000000000000000081525081526020016040518060400160405280601081526020017f696e6372656469626c6547616d6531380000000000000000000000000000000081525081526020016040518060400160405280601081526020017f696e6372656469626c6547616d6531390000000000000000000000000000000081525081526020016040518060400160405280601081526020017f696e6372656469626c6547616d6532300000000000000000000000000000000081525081526020016040518060400160405280601081526020017f696e6372656469626c6547616d6532310000000000000000000000000000000081525081526020016040518060400160405280601081526020017f696e6372656469626c6547616d6532320000000000000000000000000000000081525081526020016040518060400160405280601081526020017f696e6372656469626c6547616d6532330000000000000000000000000000000081525081526020016040518060400160405280601081526020017f696e6372656469626c6547616d6532340000000000000000000000000000000081525081526020016040518060400160405280601081526020017f696e6372656469626c6547616d6532350000000000000000000000000000000081525081526020016040518060400160405280601081526020017f696e6372656469626c6547616d6532360000000000000000000000000000000081525081526020016040518060400160405280601081526020017f696e6372656469626c6547616d6532370000000000000000000000000000000081525081526020016040518060400160405280601081526020017f696e6372656469626c6547616d6532380000000000000000000000000000000081525081526020016040518060400160405280601081526020017f696e6372656469626c6547616d6532390000000000000000000000000000000081525081526020016040518060400160405280601081526020017f696e6372656469626c6547616d6533300000000000000000000000000000000081525081526020016040518060400160405280601081526020017f696e6372656469626c6547616d6533310000000000000000000000000000000081525081526020016040518060400160405280601081526020017f696e6372656469626c6547616d6533320000000000000000000000000000000081525081526020016040518060400160405280601081526020017f696e6372656469626c6547616d6533330000000000000000000000000000000081525081526020016040518060400160405280601081526020017f696e6372656469626c6547616d6533340000000000000000000000000000000081525081526020016040518060400160405280601081526020017f696e6372656469626c6547616d6533350000000000000000000000000000000081525081526020016040518060400160405280601081526020017f696e6372656469626c6547616d653336000000000000000000000000000000008152508152506002906025620008a7929190620008ee565b50336000806101000a81548173ffffffffffffffffffffffffffffffffffffffff021916908373ffffffffffffffffffffffffffffffffffffffff16021790555062000a81565b82805482825590600052602060002090810192821562000942579160200282015b82811115620009415782518290805190602001906200093092919062000955565b50916020019190600101906200090f565b5b509050620009519190620009dc565b5090565b828054600181600116156101000203166002900490600052602060002090601f016020900481019282601f106200099857805160ff1916838001178555620009c9565b82800160010185558215620009c9579182015b82811115620009c8578251825591602001919060010190620009ab565b5b509050620009d8919062000a0d565b5090565b62000a0a91905b8082111562000a065760008181620009fc919062000a35565b50600101620009e3565b5090565b90565b62000a3291905b8082111562000a2e57600081600090555060010162000a14565b5090565b90565b50805460018160011615610100020316600290046000825580601f1062000a5d575062000a7e565b601f01602090049060005260206000209081019062000a7d919062000a0d565b5b50565b61302b8062000a916000396000f3fe608060405234801561001057600080fd5b50600436106100625760003560e01c806356e5a2c9146100675780638da5cb5b146100f8578063951bc75a1461014257806397107d6d14610184578063ec556889146101c8578063f2fde38b14610212575b600080fd5b61006f610256565b6040518084815260200183815260200180602001828103825283818151815260200191508051906020019080838360005b838110156100bb5780820151818401526020810190506100a0565b50505050905090810190601f1680156100e85780820380516001836020036101000a031916815260200191505b5094505050505060405180910390f35b6101006108b4565b604051808273ffffffffffffffffffffffffffffffffffffffff1673ffffffffffffffffffffffffffffffffffffffff16815260200191505060405180910390f35b61016e6004803603602081101561015857600080fd5b81019080803590602001909291905050506108d9565b6040518082815260200191505060405180910390f35b6101c66004803603602081101561019a57600080fd5b81019080803573ffffffffffffffffffffffffffffffffffffffff169060200190929190505050610af5565b005b6101d0610b8f565b604051808273ffffffffffffffffffffffffffffffffffffffff1673ffffffffffffffffffffffffffffffffffffffff16815260200191505060405180910390f35b6102546004803603602081101561022857600080fd5b81019080803573ffffffffffffffffffffffffffffffffffffffff169060200190929190505050610bb5565b005b60008060606000600160009054906101000a900473ffffffffffffffffffffffffffffffffffffffff1673ffffffffffffffffffffffffffffffffffffffff1663358177736040518060400160405280600d81526020017f47616d65566172416e64466565000000000000000000000000000000000000008152506040518263ffffffff1660e01b81526004018080602001828103825283818151815260200191508051906020019080838360005b83811015610320578082015181840152602081019050610305565b50505050905090810190601f16801561034d5780820380516001836020036101000a031916815260200191505b509250505060206040518083038186803b15801561036a57600080fd5b505afa15801561037e573d6000803e3d6000fd5b505050506040513d602081101561039457600080fd5b8101908080519060200190929190505050905060008173ffffffffffffffffffffffffffffffffffffffff1663a0a8045e6040518163ffffffff1660e01b815260040160206040518083038186803b1580156103ef57600080fd5b505afa158015610403573d6000803e3d6000fd5b505050506040513d602081101561041957600080fd5b8101908080519060200190929190505050905060008273ffffffffffffffffffffffffffffffffffffffff1663271bf40f6040518163ffffffff1660e01b815260040160206040518083038186803b15801561047457600080fd5b505afa158015610488573d6000803e3d6000fd5b505050506040513d602081101561049e57600080fd5b810190808051906020019092919050505090506000600160009054906101000a900473ffffffffffffffffffffffffffffffffffffffff1673ffffffffffffffffffffffffffffffffffffffff1663358177736040518060400160405280600981526020017f47656e65726963444200000000000000000000000000000000000000000000008152506040518263ffffffff1660e01b81526004018080602001828103825283818151815260200191508051906020019080838360005b8381101561057657808201518184015260208101905061055b565b50505050905090810190601f1680156105a35780820380516001836020036101000a031916815260200191505b509250505060206040518083038186803b1580156105c057600080fd5b505afa1580156105d4573d6000803e3d6000fd5b505050506040513d60208110156105ea57600080fd5b810190808051906020019092919050505073ffffffffffffffffffffffffffffffffffffffff166308acb5566040518060400160405280600b81526020017f456e646f776d656e74444200000000000000000000000000000000000000000081525060405160200180807f61637475616c46756e6473455448000000000000000000000000000000000000815250600e019050604051602081830303815290604052805190602001206040518363ffffffff1660e01b81526004018080602001838152602001828103825284818151815260200191508051906020019080838360005b838110156106e85780820151818401526020810190506106cd565b50505050905090810190601f1680156107155780820380516001836020036101000a031916815260200191505b50935050505060206040518083038186803b15801561073357600080fd5b505afa158015610747573d6000803e3d6000fd5b505050506040513d602081101561075d57600080fd5b81019080805190602001909291905050509050600061077b826108d9565b90506000619c4082111561079f5761079282610c83565b80985081925050506107b1565b6107a882612ba3565b80985081925050505b6107d9620f42406107cb8584612f4d90919063ffffffff16565b612f8490919063ffffffff16565b97506108a7620f42406108998661088b8961087d8e8d73ffffffffffffffffffffffffffffffffffffffff1663c09d32af6040518163ffffffff1660e01b815260040160206040518083038186803b15801561083457600080fd5b505afa158015610848573d6000803e3d6000fd5b505050506040513d602081101561085e57600080fd5b8101908080519060200190929190505050612f4d90919063ffffffff16565b612f4d90919063ffffffff16565b612f8490919063ffffffff16565b612f8490919063ffffffff16565b9850505050505050909192565b6000809054906101000a900473ffffffffffffffffffffffffffffffffffffffff1681565b600080600160009054906101000a900473ffffffffffffffffffffffffffffffffffffffff1673ffffffffffffffffffffffffffffffffffffffff1663358177736040518060400160405280600d81526020017f47616d65566172416e64466565000000000000000000000000000000000000008152506040518263ffffffff1660e01b81526004018080602001828103825283818151815260200191508051906020019080838360005b8381101561099f578082015181840152602081019050610984565b50505050905090810190601f1680156109cc5780820380516001836020036101000a031916815260200191505b509250505060206040518083038186803b1580156109e957600080fd5b505afa1580156109fd573d6000803e3d6000fd5b505050506040513d6020811015610a1357600080fd5b81019080805190602001909291905050509050610aed670de0b6b3a7640000610adf670de0b6b3a7640000610ad18573ffffffffffffffffffffffffffffffffffffffff1663a0a8045e6040518163ffffffff1660e01b815260040160206040518083038186803b158015610a8757600080fd5b505afa158015610a9b573d6000803e3d6000fd5b505050506040513d6020811015610ab157600080fd5b810190808051906020019092919050505088612f4d90919063ffffffff16565b612f8490919063ffffffff16565b612f8490919063ffffffff16565b915050919050565b6000809054906101000a900473ffffffffffffffffffffffffffffffffffffffff1673ffffffffffffffffffffffffffffffffffffffff163373ffffffffffffffffffffffffffffffffffffffff1614610b4b57fe5b80600160006101000a81548173ffffffffffffffffffffffffffffffffffffffff021916908373ffffffffffffffffffffffffffffffffffffffff16021790555050565b600160009054906101000a900473ffffffffffffffffffffffffffffffffffffffff1681565b6000809054906101000a900473ffffffffffffffffffffffffffffffffffffffff1673ffffffffffffffffffffffffffffffffffffffff163373ffffffffffffffffffffffffffffffffffffffff1614610c0b57fe5b600073ffffffffffffffffffffffffffffffffffffffff168173ffffffffffffffffffffffffffffffffffffffff1614610c8057806000806101000a81548173ffffffffffffffffffffffffffffffffffffffff021916908373ffffffffffffffffffffffffffffffffffffffff1602179055505b50565b60006060619c408311610ce1576040517f08c379a0000000000000000000000000000000000000000000000000000000008152600401808060200182810382526025815260200180612fd26025913960400191505060405180910390fd5b620111708311610f475761c3508311610da8576002600081548110610d0257fe5b906000526020600020018054600181600116156101000203166002900480601f016020809104026020016040519081016040528092919081815260200182805460018160011615610100020316600290048015610da05780601f10610d7557610100808354040283529160200191610da0565b820191906000526020600020905b815481529060010190602001808311610d8357829003601f168201915b505050505090505b61ea608311158015610dbb575061c35083115b15610e74576002600181548110610dce57fe5b906000526020600020018054600181600116156101000203166002900480601f016020809104026020016040519081016040528092919081815260200182805460018160011615610100020316600290048015610e6c5780601f10610e4157610100808354040283529160200191610e6c565b820191906000526020600020905b815481529060010190602001808311610e4f57829003601f168201915b505050505090505b620111708311158015610e88575061ea6083115b15610f405760028081548110610e9a57fe5b906000526020600020018054600181600116156101000203166002900480601f016020809104026020016040519081016040528092919081815260200182805460018160011615610100020316600290048015610f385780601f10610f0d57610100808354040283529160200191610f38565b820191906000526020600020905b815481529060010190602001808311610f1b57829003601f168201915b505050505090505b620dbba091505b6201117083118015610f5c5750620186a08311155b156111c15762013880831161101f576002600381548110610f7957fe5b906000526020600020018054600181600116156101000203166002900480601f0160208091040260200160405190810160405280929190818152602001828054600181600116156101000203166002900480156110175780601f10610fec57610100808354040283529160200191611017565b820191906000526020600020905b815481529060010190602001808311610ffa57829003601f168201915b505050505090505b6201388083118015611034575062015f908311155b156110ed57600260048154811061104757fe5b906000526020600020018054600181600116156101000203166002900480601f0160208091040260200160405190810160405280929190818152602001828054600181600116156101000203166002900480156110e55780601f106110ba576101008083540402835291602001916110e5565b820191906000526020600020905b8154815290600101906020018083116110c857829003601f168201915b505050505090505b62015f90831180156111015750620186a083115b156111ba57600260058154811061111457fe5b906000526020600020018054600181600116156101000203166002900480601f0160208091040260200160405190810160405280929190818152602001828054600181600116156101000203166002900480156111b25780601f10611187576101008083540402835291602001916111b2565b820191906000526020600020905b81548152906001019060200180831161119557829003601f168201915b505050505090505b620c350091505b620186a0831180156111d65750620222e08311155b1561151a57620186a0831180156111f057506201adb08311155b156112a957600260068154811061120357fe5b906000526020600020018054600181600116156101000203166002900480601f0160208091040260200160405190810160405280929190818152602001828054600181600116156101000203166002900480156112a15780601f10611276576101008083540402835291602001916112a1565b820191906000526020600020905b81548152906001019060200180831161128457829003601f168201915b505050505090505b6201adb0831180156112be57506201d4c08311155b156113775760026007815481106112d157fe5b906000526020600020018054600181600116156101000203166002900480601f01602080910402602001604051908101604052809291908181526020018280546001816001161561010002031660029004801561136f5780601f106113445761010080835404028352916020019161136f565b820191906000526020600020905b81548152906001019060200180831161135257829003601f168201915b505050505090505b6201d4c08311801561138c57506201fbd08311155b1561144557600260088154811061139f57fe5b906000526020600020018054600181600116156101000203166002900480601f01602080910402602001604051908101604052809291908181526020018280546001816001161561010002031660029004801561143d5780601f106114125761010080835404028352916020019161143d565b820191906000526020600020905b81548152906001019060200180831161142057829003601f168201915b505050505090505b6201fbd08311801561145a5750620222e08311155b1561151357600260098154811061146d57fe5b906000526020600020018054600181600116156101000203166002900480601f01602080910402602001604051908101604052809291908181526020018280546001816001161561010002031660029004801561150b5780601f106114e05761010080835404028352916020019161150b565b820191906000526020600020905b8154815290600101906020018083116114ee57829003601f168201915b505050505090505b620aae6091505b620249f08311801561152f575062030d408311155b1561194157620249f0831180156115495750620271008311155b15611602576002600a8154811061155c57fe5b906000526020600020018054600181600116156101000203166002900480601f0160208091040260200160405190810160405280929190818152602001828054600181600116156101000203166002900480156115fa5780601f106115cf576101008083540402835291602001916115fa565b820191906000526020600020905b8154815290600101906020018083116115dd57829003601f168201915b505050505090505b62027100831180156116175750620298108311155b156116d0576002600b8154811061162a57fe5b906000526020600020018054600181600116156101000203166002900480601f0160208091040260200160405190810160405280929190818152602001828054600181600116156101000203166002900480156116c85780601f1061169d576101008083540402835291602001916116c8565b820191906000526020600020905b8154815290600101906020018083116116ab57829003601f168201915b505050505090505b62029810831180156116e557506202bf208311155b1561179e576002600c815481106116f857fe5b906000526020600020018054600181600116156101000203166002900480601f0160208091040260200160405190810160405280929190818152602001828054600181600116156101000203166002900480156117965780601f1061176b57610100808354040283529160200191611796565b820191906000526020600020905b81548152906001019060200180831161177957829003601f168201915b505050505090505b6202bf20831180156117b357506202e6308311155b1561186c576002600d815481106117c657fe5b906000526020600020018054600181600116156101000203166002900480601f0160208091040260200160405190810160405280929190818152602001828054600181600116156101000203166002900480156118645780601f1061183957610100808354040283529160200191611864565b820191906000526020600020905b81548152906001019060200180831161184757829003601f168201915b505050505090505b6202e63083118015611881575062030d408311155b1561193a576002600e8154811061189457fe5b906000526020600020018054600181600116156101000203166002900480601f0160208091040260200160405190810160405280929190818152602001828054600181600116156101000203166002900480156119325780601f1061190757610100808354040283529160200191611932565b820191906000526020600020905b81548152906001019060200180831161191557829003601f168201915b505050505090505b620927c091505b62030d408311801561195657506207a1208311155b15611e365762030d408311801561197057506203d0908311155b15611a29576002600f8154811061198357fe5b906000526020600020018054600181600116156101000203166002900480601f016020809104026020016040519081016040528092919081815260200182805460018160011615610100020316600290048015611a215780601f106119f657610100808354040283529160200191611a21565b820191906000526020600020905b815481529060010190602001808311611a0457829003601f168201915b505050505090505b6203d09083118015611a3e5750620493e08311155b15611af7576002601081548110611a5157fe5b906000526020600020018054600181600116156101000203166002900480601f016020809104026020016040519081016040528092919081815260200182805460018160011615610100020316600290048015611aef5780601f10611ac457610100808354040283529160200191611aef565b820191906000526020600020905b815481529060010190602001808311611ad257829003601f168201915b505050505090505b620493e083118015611b0c5750620557308311155b15611bc5576002601181548110611b1f57fe5b906000526020600020018054600181600116156101000203166002900480601f016020809104026020016040519081016040528092919081815260200182805460018160011615610100020316600290048015611bbd5780601f10611b9257610100808354040283529160200191611bbd565b820191906000526020600020905b815481529060010190602001808311611ba057829003601f168201915b505050505090505b6205573083118015611bda575062061a808311155b15611c93576002601281548110611bed57fe5b906000526020600020018054600181600116156101000203166002900480601f016020809104026020016040519081016040528092919081815260200182805460018160011615610100020316600290048015611c8b5780601f10611c6057610100808354040283529160200191611c8b565b820191906000526020600020905b815481529060010190602001808311611c6e57829003601f168201915b505050505090505b62061a8083118015611ca857506206ddd08311155b15611d61576002601381548110611cbb57fe5b906000526020600020018054600181600116156101000203166002900480601f016020809104026020016040519081016040528092919081815260200182805460018160011615610100020316600290048015611d595780601f10611d2e57610100808354040283529160200191611d59565b820191906000526020600020905b815481529060010190602001808311611d3c57829003601f168201915b505050505090505b6206ddd083118015611d7657506207a1208311155b15611e2f576002601481548110611d8957fe5b906000526020600020018054600181600116156101000203166002900480601f016020809104026020016040519081016040528092919081815260200182805460018160011615610100020316600290048015611e275780601f10611dfc57610100808354040283529160200191611e27565b820191906000526020600020905b815481529060010190602001808311611e0a57829003601f168201915b505050505090505b6207a12091505b6207a12083118015611e4b5750620f42408311155b1561225d576207a12083118015611e655750620927c08311155b15611f1e576002601581548110611e7857fe5b906000526020600020018054600181600116156101000203166002900480601f016020809104026020016040519081016040528092919081815260200182805460018160011615610100020316600290048015611f165780601f10611eeb57610100808354040283529160200191611f16565b820191906000526020600020905b815481529060010190602001808311611ef957829003601f168201915b505050505090505b620927c083118015611f335750626acfc08311155b15611fec576002601681548110611f4657fe5b906000526020600020018054600181600116156101000203166002900480601f016020809104026020016040519081016040528092919081815260200182805460018160011615610100020316600290048015611fe45780601f10611fb957610100808354040283529160200191611fe4565b820191906000526020600020905b815481529060010190602001808311611fc757829003601f168201915b505050505090505b620aae60831180156120015750620c35008311155b156120ba57600260178154811061201457fe5b906000526020600020018054600181600116156101000203166002900480601f0160208091040260200160405190810160405280929190818152602001828054600181600116156101000203166002900480156120b25780601f10612087576101008083540402835291602001916120b2565b820191906000526020600020905b81548152906001019060200180831161209557829003601f168201915b505050505090505b620c3500831180156120cf5750620dbba08311155b156121885760026018815481106120e257fe5b906000526020600020018054600181600116156101000203166002900480601f0160208091040260200160405190810160405280929190818152602001828054600181600116156101000203166002900480156121805780601f1061215557610100808354040283529160200191612180565b820191906000526020600020905b81548152906001019060200180831161216357829003601f168201915b505050505090505b620dbba08311801561219d5750620f42408311155b156122565760026019815481106121b057fe5b906000526020600020018054600181600116156101000203166002900480601f01602080910402602001604051908101604052809291908181526020018280546001816001161561010002031660029004801561224e5780601f106122235761010080835404028352916020019161224e565b820191906000526020600020905b81548152906001019060200180831161223157829003601f168201915b505050505090505b62061a8091505b620f4240831180156122725750621e84808311155b1561241a57620f42408311801561228c57506216e3608311155b15612345576002601a8154811061229f57fe5b906000526020600020018054600181600116156101000203166002900480601f01602080910402602001604051908101604052809291908181526020018280546001816001161561010002031660029004801561233d5780601f106123125761010080835404028352916020019161233d565b820191906000526020600020905b81548152906001019060200180831161232057829003601f168201915b505050505090505b6216e3608311801561235a5750621e84808311155b15612413576002601b8154811061236d57fe5b906000526020600020018054600181600116156101000203166002900480601f01602080910402602001604051908101604052809291908181526020018280546001816001161561010002031660029004801561240b5780601f106123e05761010080835404028352916020019161240b565b820191906000526020600020905b8154815290600101906020018083116123ee57829003601f168201915b505050505090505b620493e091505b621e84808311801561242f5750624c4b408311155b156126a557621e8480831180156124495750622dc6c08311155b15612502576002601c8154811061245c57fe5b906000526020600020018054600181600116156101000203166002900480601f0160208091040260200160405190810160405280929190818152602001828054600181600116156101000203166002900480156124fa5780601f106124cf576101008083540402835291602001916124fa565b820191906000526020600020905b8154815290600101906020018083116124dd57829003601f168201915b505050505090505b622dc6c0831180156125175750623d09008311155b156125d0576002601d8154811061252a57fe5b906000526020600020018054600181600116156101000203166002900480601f0160208091040260200160405190810160405280929190818152602001828054600181600116156101000203166002900480156125c85780601f1061259d576101008083540402835291602001916125c8565b820191906000526020600020905b8154815290600101906020018083116125ab57829003601f168201915b505050505090505b623d0900831180156125e55750624c4b408311155b1561269e576002601e815481106125f857fe5b906000526020600020018054600181600116156101000203166002900480601f0160208091040260200160405190810160405280929190818152602001828054600181600116156101000203166002900480156126965780601f1061266b57610100808354040283529160200191612696565b820191906000526020600020905b81548152906001019060200180831161267957829003601f168201915b505050505090505b62030d4091505b624c4b40831180156126bb57506301312d008311155b15612b9e57624c4b40831180156126d6575063039387008311155b1561278f576002601f815481106126e957fe5b906000526020600020018054600181600116156101000203166002900480601f0160208091040260200160405190810160405280929190818152602001828054600181600116156101000203166002900480156127875780601f1061275c57610100808354040283529160200191612787565b820191906000526020600020905b81548152906001019060200180831161276a57829003601f168201915b505050505090505b625b8d80831180156127a45750626acfc08311155b1561285d5760026020815481106127b757fe5b906000526020600020018054600181600116156101000203166002900480601f0160208091040260200160405190810160405280929190818152602001828054600181600116156101000203166002900480156128555780601f1061282a57610100808354040283529160200191612855565b820191906000526020600020905b81548152906001019060200180831161283857829003601f168201915b505050505090505b626acfc08311801561287357506304c4b4008311155b1561292c57600260218154811061288657fe5b906000526020600020018054600181600116156101000203166002900480601f0160208091040260200160405190810160405280929190818152602001828054600181600116156101000203166002900480156129245780601f106128f957610100808354040283529160200191612924565b820191906000526020600020905b81548152906001019060200180831161290757829003601f168201915b505050505090505b627a1200831180156129415750628954408311155b156129fa57600260228154811061295457fe5b906000526020600020018054600181600116156101000203166002900480601f0160208091040260200160405190810160405280929190818152602001828054600181600116156101000203166002900480156129f25780601f106129c7576101008083540402835291602001916129f2565b820191906000526020600020905b8154815290600101906020018083116129d557829003601f168201915b505050505090505b6289544083118015612a0f5750629896808311155b15612ac8576002602381548110612a2257fe5b906000526020600020018054600181600116156101000203166002900480601f016020809104026020016040519081016040528092919081815260200182805460018160011615610100020316600290048015612ac05780601f10612a9557610100808354040283529160200191612ac0565b820191906000526020600020905b815481529060010190602001808311612aa357829003601f168201915b505050505090505b6298968083118015612ade57506301312d008311155b15612b97576002602481548110612af157fe5b906000526020600020018054600181600116156101000203166002900480601f016020809104026020016040519081016040528092919081815260200182805460018160011615610100020316600290048015612b8f5780601f10612b6457610100808354040283529160200191612b8f565b820191906000526020600020905b815481529060010190602001808311612b7257829003601f168201915b505050505090505b620186a091505b915091565b6000606060008311612c1d576040517f08c379a000000000000000000000000000000000000000000000000000000000815260040180806020018281038252601b8152602001807f46756e6473206d75737420626520626967676572207468616e2030000000000081525060200191505060405180910390fd5b619c40831115612c78576040517f08c379a0000000000000000000000000000000000000000000000000000000008152600401808060200182810382526034815260200180612f9e6034913960400191505060405180910390fd5b6101f48311612cba576040518060400160405280600c81526020017f7665727954696e7947616d65000000000000000000000000000000000000000081525090505b6101f483118015612ccd57506103e88311155b15612d0b576040518060400160405280600881526020017f74696e7947616d6500000000000000000000000000000000000000000000000081525090505b6103e883118015612d1e57506109c48311155b15612d5c576040518060400160405280600d81526020017f76657279536d616c6c47616d650000000000000000000000000000000000000081525090505b6109c483118015612d6f57506113888311155b15612dad576040518060400160405280600981526020017f736d616c6c47616d65000000000000000000000000000000000000000000000081525090505b61138883118015612dc05750611d4c8311155b15612dfe576040518060400160405280600a81526020017f6e6f726d616c47616d650000000000000000000000000000000000000000000081525090505b611d4c83118015612e1157506127108311155b15612e4f576040518060400160405280600781526020017f62696747616d650000000000000000000000000000000000000000000000000081525090505b61271083118015612e625750614e208311155b15612ea0576040518060400160405280600b81526020017f7665727942696747616d6500000000000000000000000000000000000000000081525090505b614e2083118015612eb357506175308311155b15612ef1576040518060400160405280600881526020017f6875676547616d6500000000000000000000000000000000000000000000000081525090505b61753083118015612f045750619c408311155b15612f42576040518060400160405280600981526020017f677265617447616d65000000000000000000000000000000000000000000000081525090505b620f42409150915091565b600080831415612f605760009050612f7e565b6000828402905082848281612f7157fe5b0414612f7957fe5b809150505b92915050565b600080828481612f9057fe5b049050809150509291505056fe546f6f206d7563682066756e647320666f72206120686f6e6579706f7420636c6173732062656c6f7720696e6372656369626c654e6f7420656e6f7567682066756e647320666f7220696e6372656469626c6520636c617373a265627a7a7231582025739f513ea8074e47263aa6dfc1c81bd72abf7edfe6873d6bcc550335ca947864736f6c63430005110032",
  "source": "/**\n * @title HoneypotAllocationAlgo\n */\npragma solidity ^0.5.5;\n/**\n * @title HoneypotAllocationAlgo\n * @dev Responsible for : allocate initial ETH and initial KTY funds to a new honeypot upon its creation\n * @author @ziweidream\n */\nimport '../proxy/Proxied.sol';\nimport '../../libs/SafeMath.sol';\nimport '../../GameVarAndFee.sol';\nimport '../databases/GenericDB.sol';\n\ncontract HoneypotAllocationAlgo is Proxied {\n    using SafeMath for uint256;\n\n    /// @dev game honeypot classfication (based on actual funds in USD)\n    string constant VERY_TINY_GAME = \"veryTinyGame\"; // <= $500\n    string constant TINY_GAME = \"tinyGame\"; // >$500 && <= $1000\n    string constant VERY_SMALL_GAME = \"verySmallGame\"; // > $1000 && <= $2500\n    string constant SMALL_GAME = \"smallGame\"; // > $2500 && <= $5000\n    string constant NORMAL_GAME = \"normalGame\"; // > $5000 && <= $7500\n    string constant BIG_GAME = \"bigGame\"; // > $7500 && <= $10000\n    string constant VERY_BIG_GAME = \"veryBigGame\"; // > $10000 && <= $20000\n    string constant HUGE_GAME = \"hugeGame\"; // > $20000 && <= $30000\n    string constant GREAT_GAME = \"greatGame\"; // > $30000 && <= $40000\n    string constant INCREDIBLE_GAME_0 = \"incredibleGame0\";   // > $40000 && <= $50000\n    string constant INCREDIBLE_GAME_1 = \"incredibleGame1\";   // > $50000 && <= $60000\n    string constant INCREDIBLE_GAME_2 = \"incredibleGame2\";   // > $60000 && <= $70000\n    string constant INCREDIBLE_GAME_3 = \"incredibleGame3\";   // > $70000 && <= $80000\n    string constant INCREDIBLE_GAME_4 = \"incredibleGame4\";   // > $80000 && <= $90000\n    string constant INCREDIBLE_GAME_5 = \"incredibleGame5\";   // > $90000 && <= $100000\n    string constant INCREDIBLE_GAME_6 = \"incredibleGame6\";   // > $100000 && <= $110000\n    string constant INCREDIBLE_GAME_7 = \"incredibleGame7\";   // > $110000 && <= $120000\n    string constant INCREDIBLE_GAME_8 = \"incredibleGame6\";   // > $120000 && <= $130000\n    string constant INCREDIBLE_GAME_9 = \"incredibleGame9\";   // > $130000 && <= $140000\n    string constant INCREDIBLE_GAME_10 = \"incredibleGame10\";   // > $150000 && <= $160000\n    string constant INCREDIBLE_GAME_11 = \"incredibleGame11\";   // > $160000 && <= $170000\n    string constant INCREDIBLE_GAME_12 = \"incredibleGame12\";   // > $170000 && <= $180000\n    string constant INCREDIBLE_GAME_13 = \"incredibleGame13\";   // > $180000 && <= $190000\n    string constant INCREDIBLE_GAME_14 = \"incredibleGame14\";   // > $190000 && <= $200000\n    string constant INCREDIBLE_GAME_15 = \"incredibleGame15\";   // > $200000 && <= $250000\n    string constant INCREDIBLE_GAME_16 = \"incredibleGame16\";   // > $250000 && <= $300000\n    string constant INCREDIBLE_GAME_17 = \"incredibleGame17\"; // > $300000 && <= $350000\n    string constant INCREDIBLE_GAME_18 = \"incredibleGame18\"; // > $350000 && <= $400000\n    string constant INCREDIBLE_GAME_19 = \"incredibleGame19\"; // > $400000 && <= $450000\n    string constant INCREDIBLE_GAME_20 = \"incredibleGame20\"; // > $450000 && <= $500000\n    string constant INCREDIBLE_GAME_21 = \"incredibleGame21\"; // > $500000 && <= $600000\n    string constant INCREDIBLE_GAME_22 = \"incredibleGame22\"; // > $600000 && <= $700000\n    string constant INCREDIBLE_GAME_23 = \"incredibleGame23\"; // > $700000 && <= $800000\n    string constant INCREDIBLE_GAME_24 = \"incredibleGame24\"; // > $800000 && <= $900000\n    string constant INCREDIBLE_GAME_25 = \"incredibleGame25\"; // > $900000 && <= $1000000\n    string constant INCREDIBLE_GAME_26 = \"incredibleGame26\"; // > $1000000 && <= $1500000\n    string constant INCREDIBLE_GAME_27 = \"incredibleGame27\"; // > $1500000 && <= $2000000\n    string constant INCREDIBLE_GAME_28 = \"incredibleGame28\"; // > $2000000 && <= $3000000\n    string constant INCREDIBLE_GAME_29 = \"incredibleGame29\"; // > $3000000 && <= $4000000\n    string constant INCREDIBLE_GAME_30 = \"incredibleGame30\"; // > $4000000 && <= $5000000\n    string constant INCREDIBLE_GAME_31 = \"incredibleGame31\"; // > $5000000 && <= $6000000\n    string constant INCREDIBLE_GAME_32 = \"incredibleGame32\"; // > $6000000 && <= $7000000\n    string constant INCREDIBLE_GAME_33 = \"incredibleGame33\"; // > $7000000 && <= $8000000\n    string constant INCREDIBLE_GAME_34 = \"incredibleGame34\"; // > $8000000 && <= $9,000,000\n    string constant INCREDIBLE_GAME_35 = \"incredibleGame35\"; // > $9,000,000 && <= $10,000,000\n    string constant INCREDIBLE_GAME_36 = \"incredibleGame36\"; // > $10,000,000 && <= $20,000,000\n\n    /// @dev honeypot allocation percentage\n    uint256 constant HONEYPOT_ALLOCATION_PERCENTAGE_GREAT            = 1000000; // very tiny game - big game: 100%\n    uint256 constant HONEYPOT_ALLOCATION_PERCENTAGE_INCREDIBLE_0_2   = 900000; // Incredible Game 0 - Incredible Game 2: 90%\n    uint256 constant HONEYPOT_ALLOCATION_PERCENTAGE_INCREDIBLE_3_5   = 800000; // Incredible Game 3 - Incredible Game 5: 80%\n    uint256 constant HONEYPOT_ALLOCATION_PERCENTAGE_INCREDIBLE_6_9   = 700000; // Incredible Game 6 - Incredible Game 9: 70%\n    uint256 constant HONEYPOT_ALLOCATION_PERCENTAGE_INCREDIBLE_10_14 = 600000; // Incredible Game 10 - Incredible Game 14: 60%\n    uint256 constant HONEYPOT_ALLOCATION_PERCENTAGE_INCREDIBLE_15_20 = 500000; // Incredible Game 15 - Incredible Game 19: 50%\n    uint256 constant HONEYPOT_ALLOCATION_PERCENTAGE_INCREDIBLE_21_25 = 400000; // Incredible Game 20 - Incredible Game 24: 40%\n    uint256 constant HONEYPOT_ALLOCATION_PERCENTAGE_INCREDIBLE_26_27 = 300000; // Incredible Game 25 - Incredible Game 26: 30%\n    uint256 constant HONEYPOT_ALLOCATION_PERCENTAGE_INCREDIBLE_28_30 = 200000; // Incredible Game 27 - Incredible Game 29: 20%\n    uint256 constant HONEYPOT_ALLOCATION_PERCENTAGE_INCREDIBLE_31_36 = 100000; // Incredible Game 30 - Incredible Game 35: 10%\n\n    /// @dev an array of all the honeypot incredible-class names\n    string[] honeypotClassIncredible = [\n        INCREDIBLE_GAME_0, INCREDIBLE_GAME_1, INCREDIBLE_GAME_2,\n        INCREDIBLE_GAME_3, INCREDIBLE_GAME_4, INCREDIBLE_GAME_5,\n        INCREDIBLE_GAME_6, INCREDIBLE_GAME_7, INCREDIBLE_GAME_8,\n        INCREDIBLE_GAME_9, INCREDIBLE_GAME_10, INCREDIBLE_GAME_11,\n        INCREDIBLE_GAME_12, INCREDIBLE_GAME_13, INCREDIBLE_GAME_14,\n        INCREDIBLE_GAME_15, INCREDIBLE_GAME_16, INCREDIBLE_GAME_17,\n        INCREDIBLE_GAME_18, INCREDIBLE_GAME_19, INCREDIBLE_GAME_20,\n        INCREDIBLE_GAME_21, INCREDIBLE_GAME_22, INCREDIBLE_GAME_23,\n        INCREDIBLE_GAME_24, INCREDIBLE_GAME_25, INCREDIBLE_GAME_26,\n        INCREDIBLE_GAME_27, INCREDIBLE_GAME_28, INCREDIBLE_GAME_29,\n        INCREDIBLE_GAME_30, INCREDIBLE_GAME_31, INCREDIBLE_GAME_32,\n        INCREDIBLE_GAME_33, INCREDIBLE_GAME_34, INCREDIBLE_GAME_35,\n        INCREDIBLE_GAME_36\n    ];\n\n    /**\n     * @dev calculates the amount of initial ethers and KTYs allocated to a new honeypot\n     * upon its generations, based on the amount of available funds in USD\n     * @return ktyAllocated uint256 the amount of initial KTYs allocated to a honeypot\n     * @return ethAllocated uint256 the amount of initial ethers allocated to a honeypot\n     * @return honeypotClass string the name of the class assigned to a honeypot\n     */\n    function calculateAllocationToHoneypot()\n        public\n        view\n        // onlyContract(CONTRACT_NAME_ENDOWMENT_DB)\n        returns (uint256 ktyAllocated, uint256 ethAllocated, string memory honeypotClass)\n    {\n        GameVarAndFee gameVarAndFee = GameVarAndFee(proxy.getContract(CONTRACT_NAME_GAMEVARANDFEE));\n        uint256 ethUsdPrice = gameVarAndFee.getEthUsdPrice();\n        uint256 usdKTYPrice = gameVarAndFee.getUsdKTYPrice();\n        uint256 actualFundsETH = GenericDB(proxy.getContract(CONTRACT_NAME_GENERIC_DB))\n                                 .getUintStorage(\n                                     CONTRACT_NAME_ENDOWMENT_DB,\n                                     keccak256(abi.encodePacked(\"actualFundsETH\")));\n\n        uint256 actualFundsUSD = convertETHtoUSD(actualFundsETH);\n        uint256 percentageETH;\n        if (actualFundsUSD > 40000) {\n            (percentageETH, honeypotClass) = _honeypotAllocationETH_incredible(actualFundsUSD);\n        } else {\n            (percentageETH, honeypotClass) = _honeypotAllocationETH_great(actualFundsUSD);\n        }\n        ethAllocated = percentageETH.mul(actualFundsETH).div(1000000);\n        ktyAllocated = gameVarAndFee.getPercentageHoneypotAllocationKTY()\n                                    .mul(ethAllocated).mul(ethUsdPrice)\n                                    .div(usdKTYPrice).div(1000000);// 1,000,000 is the percentage base\n    }\n\n    /**\n     * @dev Convert funds from ether to USD\n     * @param _eth uint256 the amount of ethers to be converted to USD\n     * @return _usd uint256 the amount of USD converted from ether\n     */\n    function convertETHtoUSD(uint256 _eth)\n        public view returns(uint256 _usd) {\n        GameVarAndFee gameVarAndFee = GameVarAndFee(proxy.getContract(CONTRACT_NAME_GAMEVARANDFEE));\n        _usd = _eth.mul(gameVarAndFee.getEthUsdPrice()).div(1000000000000000000).div(1000000000000000000);\n    }\n\n    /**\n     * @dev Determines if a honeypot should belong to the incredible class or not\n     * @param _actualFundsUSD uint256 the amount of acutal funds available in USD\n     * @return true if the honeypot is of an incredible class\n     */\n    function _isIncredible(uint256 _actualFundsUSD) internal pure returns(bool) {\n        return _actualFundsUSD > 40000;\n    }\n\n    /**\n     * @dev Determines the percentage of actual funds in ether to be allocated to a new honeypot\n     * and the class name of a honeypot\n     * @dev This function is for honeypots belonging to an incredible class.\n     * @param _actualFundsUSD uint256 the amount of actual funds available in USD, which should be at least $40,000\n     * @return percentage uint256 the percentage of actual funds availabe for initial ehter allocation to a honeypot\n     * @return honeypotClass string the name of the class of the honeypot\n     */\n    function _honeypotAllocationETH_incredible(uint256 _actualFundsUSD)\n        internal\n        view\n        returns (uint256 percentage, string memory honeypotClass)\n    {\n        require(_actualFundsUSD > 40000, \"Not enough funds for incredible class\");\n        // incredible class 0, 1, 2\n        if (_actualFundsUSD <= 70000) {\n            if (_actualFundsUSD <= 50000) {\n            honeypotClass = honeypotClassIncredible[0];\n            }\n            if (_actualFundsUSD <= 60000 && _actualFundsUSD > 50000) {\n                honeypotClass = honeypotClassIncredible[1];\n            }\n            if (_actualFundsUSD <= 70000 && _actualFundsUSD > 60000) {\n                honeypotClass = honeypotClassIncredible[2];\n            }\n            percentage = HONEYPOT_ALLOCATION_PERCENTAGE_INCREDIBLE_0_2;\n        }\n\n        // incredible class 3, 4, 5\n        if (_actualFundsUSD > 70000 && _actualFundsUSD <= 100000) {\n            if (_actualFundsUSD <= 80000) {\n            honeypotClass = honeypotClassIncredible[3];\n            }\n            if (_actualFundsUSD > 80000 && _actualFundsUSD <= 90000) {\n                honeypotClass = honeypotClassIncredible[4];\n            }\n            if (_actualFundsUSD > 90000 && _actualFundsUSD > 100000) {\n                honeypotClass = honeypotClassIncredible[5];\n            }\n            percentage = HONEYPOT_ALLOCATION_PERCENTAGE_INCREDIBLE_3_5;\n        }\n\n        // incredible class 6, 7, 8, 9\n        if (_actualFundsUSD > 100000 && _actualFundsUSD <= 140000) {\n            if (_actualFundsUSD > 100000 && _actualFundsUSD <= 110000) {\n            honeypotClass = honeypotClassIncredible[6];\n            }\n            if (_actualFundsUSD > 110000 && _actualFundsUSD <= 120000) {\n                honeypotClass = honeypotClassIncredible[7];\n            }\n            if (_actualFundsUSD > 120000 && _actualFundsUSD <= 130000) {\n                honeypotClass = honeypotClassIncredible[8];\n            }\n            if (_actualFundsUSD > 130000 && _actualFundsUSD <= 140000) {\n                honeypotClass = honeypotClassIncredible[9];\n            }\n            percentage = HONEYPOT_ALLOCATION_PERCENTAGE_INCREDIBLE_6_9;\n        }\n\n        // incredible class 10, 11, 12, 13, 14\n        if (_actualFundsUSD > 150000 && _actualFundsUSD <= 200000) {\n            if (_actualFundsUSD > 150000 && _actualFundsUSD <= 160000) {\n            honeypotClass = honeypotClassIncredible[10];\n            }\n            if (_actualFundsUSD > 160000 && _actualFundsUSD <= 170000) {\n                honeypotClass = honeypotClassIncredible[11];\n            }\n            if (_actualFundsUSD > 170000 && _actualFundsUSD <= 180000) {\n                honeypotClass = honeypotClassIncredible[12];\n            }\n            if (_actualFundsUSD > 180000 && _actualFundsUSD <= 190000) {\n                honeypotClass = honeypotClassIncredible[13];\n            }\n            if (_actualFundsUSD > 190000 && _actualFundsUSD <= 200000) {\n                honeypotClass = honeypotClassIncredible[14];\n            }\n            percentage = HONEYPOT_ALLOCATION_PERCENTAGE_INCREDIBLE_10_14;\n        }\n\n        // incredible class 15, 16, 17, 18, 19, 20\n        if (_actualFundsUSD > 200000 && _actualFundsUSD <= 500000) {\n            if (_actualFundsUSD > 200000 && _actualFundsUSD <= 250000) {\n            honeypotClass = honeypotClassIncredible[15];\n            }\n            if (_actualFundsUSD > 250000 && _actualFundsUSD <= 300000) {\n                honeypotClass = honeypotClassIncredible[16];\n            }\n            if (_actualFundsUSD > 300000 && _actualFundsUSD <= 350000) {\n                honeypotClass = honeypotClassIncredible[17];\n            }\n            if (_actualFundsUSD > 350000 && _actualFundsUSD <= 400000) {\n                honeypotClass = honeypotClassIncredible[18];\n            }\n            if (_actualFundsUSD > 400000 && _actualFundsUSD <= 450000) {\n                honeypotClass = honeypotClassIncredible[19];\n            }\n            if (_actualFundsUSD > 450000 && _actualFundsUSD <= 500000) {\n                honeypotClass = honeypotClassIncredible[20];\n            }\n            percentage = HONEYPOT_ALLOCATION_PERCENTAGE_INCREDIBLE_15_20;\n        }\n\n        // incredible class 21, 22, 23, 24, 25\n        if (_actualFundsUSD > 500000 && _actualFundsUSD <= 1000000) {\n            if (_actualFundsUSD > 500000 && _actualFundsUSD <= 600000) {\n                honeypotClass = honeypotClassIncredible[21];\n            }\n            if (_actualFundsUSD > 600000 && _actualFundsUSD <= 7000000) {\n                honeypotClass = honeypotClassIncredible[22];\n            }\n            if (_actualFundsUSD > 700000 && _actualFundsUSD <= 800000) {\n                honeypotClass = honeypotClassIncredible[23];\n            }\n            if (_actualFundsUSD > 800000 && _actualFundsUSD <= 900000) {\n                honeypotClass = honeypotClassIncredible[24];\n            }\n            if (_actualFundsUSD > 900000 && _actualFundsUSD <= 1000000) {\n                honeypotClass = honeypotClassIncredible[25];\n            }\n            percentage = HONEYPOT_ALLOCATION_PERCENTAGE_INCREDIBLE_21_25;\n        }\n\n        // incredible class 26, 27\n        if (_actualFundsUSD > 1000000 && _actualFundsUSD <= 2000000) {\n            if (_actualFundsUSD > 1000000 && _actualFundsUSD <= 1500000) {\n                honeypotClass = honeypotClassIncredible[26];\n            }\n            if (_actualFundsUSD > 1500000 && _actualFundsUSD <= 2000000) {\n                honeypotClass = honeypotClassIncredible[27];\n            }\n            percentage = HONEYPOT_ALLOCATION_PERCENTAGE_INCREDIBLE_26_27;\n        }\n\n        // incredible class 28, 29, 30\n        if (_actualFundsUSD > 2000000 && _actualFundsUSD <= 5000000) {\n            if (_actualFundsUSD > 2000000 && _actualFundsUSD <= 3000000) {\n                honeypotClass = honeypotClassIncredible[28];\n            }\n            if (_actualFundsUSD > 3000000 && _actualFundsUSD <= 4000000) {\n                honeypotClass = honeypotClassIncredible[29];\n            }\n            if (_actualFundsUSD > 4000000 && _actualFundsUSD <= 5000000) {\n                honeypotClass = honeypotClassIncredible[30];\n            }\n            percentage = HONEYPOT_ALLOCATION_PERCENTAGE_INCREDIBLE_28_30;\n        }\n\n        // incredible class 31, 32, 33, 34, 35, 36\n        if (_actualFundsUSD > 5000000 && _actualFundsUSD <= 20000000) {\n            if (_actualFundsUSD > 5000000 && _actualFundsUSD <= 60000000) {\n                honeypotClass = honeypotClassIncredible[31];\n            }\n            if (_actualFundsUSD > 6000000 && _actualFundsUSD <= 7000000) {\n                honeypotClass = honeypotClassIncredible[32];\n            }\n            if (_actualFundsUSD > 7000000 && _actualFundsUSD <= 80000000) {\n                honeypotClass = honeypotClassIncredible[33];\n            }\n            if (_actualFundsUSD > 8000000 && _actualFundsUSD <= 9000000) {\n                honeypotClass = honeypotClassIncredible[34];\n            }\n            if (_actualFundsUSD > 9000000 && _actualFundsUSD <= 10000000) {\n                honeypotClass = honeypotClassIncredible[35];\n            }\n            if (_actualFundsUSD > 10000000 && _actualFundsUSD <= 20000000) {\n                honeypotClass = honeypotClassIncredible[36];\n            }\n            percentage = HONEYPOT_ALLOCATION_PERCENTAGE_INCREDIBLE_31_36;\n        }\n    }\n\n    /**\n     * @dev Determines the percentage of actual funds in ether to be allocated to a new honeypot\n     * and the class name of a honeypot\n     * @dev This function is for honeypots belonging to a great class or lower.\n     * @param _actualFundsUSD uint256 the amount of actual funds available in USD, which should be at most $40,000\n     * @return percentage uint256 the percentage of actual funds availabe for initial ehter allocation to a honeypot\n     * @return honeypotClass string the name of the class of the honeypot\n     */\n    function _honeypotAllocationETH_great(uint256 _actualFundsUSD)\n        internal\n        pure\n        returns (uint256 percentage, string memory honeypotClass)\n    {\n        require(_actualFundsUSD > 0, \"Funds must be bigger than 0\");\n        require(_actualFundsUSD <= 40000, \"Too much funds for a honeypot class below increcible\");\n\n        if (_actualFundsUSD <= 500) {\n            honeypotClass = VERY_TINY_GAME;\n        }\n\n        if (_actualFundsUSD > 500 && _actualFundsUSD <= 1000) {\n            honeypotClass = TINY_GAME;\n        }\n\n        if (_actualFundsUSD > 1000 && _actualFundsUSD <= 2500) {\n            honeypotClass = VERY_SMALL_GAME;\n        }\n\n        if (_actualFundsUSD > 2500 && _actualFundsUSD <= 5000) {\n            honeypotClass = SMALL_GAME;\n        }\n\n        if (_actualFundsUSD > 5000 && _actualFundsUSD <= 7500) {\n            honeypotClass = NORMAL_GAME;\n        }\n\n        if (_actualFundsUSD > 7500 && _actualFundsUSD <= 10000) {\n            honeypotClass = BIG_GAME;\n        }\n\n        if (_actualFundsUSD > 10000 && _actualFundsUSD <= 20000) {\n            honeypotClass = VERY_BIG_GAME;\n        }\n\n        if (_actualFundsUSD > 20000 && _actualFundsUSD <= 30000) {\n            honeypotClass = HUGE_GAME;\n        }\n\n        if (_actualFundsUSD > 30000 && _actualFundsUSD <= 40000) {\n            honeypotClass = GREAT_GAME;\n        }\n\n        percentage = HONEYPOT_ALLOCATION_PERCENTAGE_GREAT;\n    }\n}",
  "sourcePath": "/Users/ziweizhang/Desktop/rinkeby3/contracts/contracts/modules/endowment/HoneypotAllocationAlgo.sol",
  "compiler": {
    "name": "solc",
    "version": "0.5.17+commit.d19bba13.Emscripten.clang"
  },
  "schemaVersion": "3.0.23",
  "updatedAt": "2020-05-17T22:04:50.395Z",
  "devdoc": {
    "methods": {
      "calculateAllocationToHoneypot()": {
        "details": "calculates the amount of initial ethers and KTYs allocated to a new honeypot upon its generations, based on the amount of available funds in USD",
        "return": "ktyAllocated uint256 the amount of initial KTYs allocated to a honeypotethAllocated uint256 the amount of initial ethers allocated to a honeypothoneypotClass string the name of the class assigned to a honeypot"
      },
      "convertETHtoUSD(uint256)": {
        "details": "Convert funds from ether to USD",
        "params": {
          "_eth": "uint256 the amount of ethers to be converted to USD"
        },
        "return": "_usd uint256 the amount of USD converted from ether"
      }
    }
  },
  "userdoc": {
    "methods": {
      "setProxy(address)": {
        "notice": "Set/update address of Proxy contract"
      }
    }
  }
}