{
  "contractName": "HoneypotAllocationAlgo",
  "abi": [
    {
      "constant": true,
      "inputs": [],
      "name": "owner",
      "outputs": [
        {
          "internalType": "address payable",
          "name": "",
          "type": "address"
        }
      ],
      "payable": false,
      "stateMutability": "view",
      "type": "function"
    },
    {
      "constant": true,
      "inputs": [
        {
          "internalType": "uint256",
          "name": "",
          "type": "uint256"
        }
      ],
      "name": "path",
      "outputs": [
        {
          "internalType": "address",
          "name": "",
          "type": "address"
        }
      ],
      "payable": false,
      "stateMutability": "view",
      "type": "function"
    },
    {
      "constant": true,
      "inputs": [],
      "name": "proxy",
      "outputs": [
        {
          "internalType": "contract ProxyBase",
          "name": "",
          "type": "address"
        }
      ],
      "payable": false,
      "stateMutability": "view",
      "type": "function"
    },
    {
      "constant": false,
      "inputs": [
        {
          "internalType": "contract ProxyBase",
          "name": "_proxy",
          "type": "address"
        }
      ],
      "name": "setProxy",
      "outputs": [],
      "payable": false,
      "stateMutability": "nonpayable",
      "type": "function"
    },
    {
      "constant": false,
      "inputs": [
        {
          "internalType": "address payable",
          "name": "newOwner",
          "type": "address"
        }
      ],
      "name": "transferOwnership",
      "outputs": [],
      "payable": false,
      "stateMutability": "nonpayable",
      "type": "function"
    },
    {
      "constant": false,
      "inputs": [],
      "name": "initialize",
      "outputs": [],
      "payable": false,
      "stateMutability": "nonpayable",
      "type": "function"
    },
    {
      "constant": true,
      "inputs": [],
      "name": "calculateAllocationToHoneypot",
      "outputs": [
        {
          "internalType": "uint256",
          "name": "ktyAllocated",
          "type": "uint256"
        },
        {
          "internalType": "uint256",
          "name": "ethAllocated",
          "type": "uint256"
        },
        {
          "internalType": "string",
          "name": "honeypotClass",
          "type": "string"
        }
      ],
      "payable": false,
      "stateMutability": "view",
      "type": "function"
    },
    {
      "constant": true,
      "inputs": [],
      "name": "getFinalizeRewards",
      "outputs": [
        {
          "internalType": "uint256",
          "name": "",
          "type": "uint256"
        }
      ],
      "payable": false,
      "stateMutability": "view",
      "type": "function"
    },
    {
      "constant": false,
      "inputs": [
        {
          "internalType": "uint256",
          "name": "_kty_amount",
          "type": "uint256"
        },
        {
          "internalType": "address",
          "name": "_escrow",
          "type": "address"
        }
      ],
      "name": "swapEtherForKTY",
      "outputs": [
        {
          "internalType": "uint256",
          "name": "",
          "type": "uint256"
        }
      ],
      "payable": true,
      "stateMutability": "payable",
      "type": "function"
    },
    {
      "constant": true,
      "inputs": [
        {
          "internalType": "uint256",
          "name": "_eth",
          "type": "uint256"
        }
      ],
      "name": "convertETHtoUSD",
      "outputs": [
        {
          "internalType": "uint256",
          "name": "_usd",
          "type": "uint256"
        }
      ],
      "payable": false,
      "stateMutability": "view",
      "type": "function"
    }
  ],
  "bytecode": "0x6080604052604051806104a001604052806040518060400160405280600f81526020017f696e6372656469626c6547616d6530000000000000000000000000000000000081525081526020016040518060400160405280600f81526020017f696e6372656469626c6547616d6531000000000000000000000000000000000081525081526020016040518060400160405280600f81526020017f696e6372656469626c6547616d6532000000000000000000000000000000000081525081526020016040518060400160405280600f81526020017f696e6372656469626c6547616d6533000000000000000000000000000000000081525081526020016040518060400160405280600f81526020017f696e6372656469626c6547616d6534000000000000000000000000000000000081525081526020016040518060400160405280600f81526020017f696e6372656469626c6547616d6535000000000000000000000000000000000081525081526020016040518060400160405280600f81526020017f696e6372656469626c6547616d6536000000000000000000000000000000000081525081526020016040518060400160405280600f81526020017f696e6372656469626c6547616d6537000000000000000000000000000000000081525081526020016040518060400160405280600f81526020017f696e6372656469626c6547616d6536000000000000000000000000000000000081525081526020016040518060400160405280600f81526020017f696e6372656469626c6547616d6539000000000000000000000000000000000081525081526020016040518060400160405280601081526020017f696e6372656469626c6547616d6531300000000000000000000000000000000081525081526020016040518060400160405280601081526020017f696e6372656469626c6547616d6531310000000000000000000000000000000081525081526020016040518060400160405280601081526020017f696e6372656469626c6547616d6531320000000000000000000000000000000081525081526020016040518060400160405280601081526020017f696e6372656469626c6547616d6531330000000000000000000000000000000081525081526020016040518060400160405280601081526020017f696e6372656469626c6547616d6531340000000000000000000000000000000081525081526020016040518060400160405280601081526020017f696e6372656469626c6547616d6531350000000000000000000000000000000081525081526020016040518060400160405280601081526020017f696e6372656469626c6547616d6531360000000000000000000000000000000081525081526020016040518060400160405280601081526020017f696e6372656469626c6547616d6531370000000000000000000000000000000081525081526020016040518060400160405280601081526020017f696e6372656469626c6547616d6531380000000000000000000000000000000081525081526020016040518060400160405280601081526020017f696e6372656469626c6547616d6531390000000000000000000000000000000081525081526020016040518060400160405280601081526020017f696e6372656469626c6547616d6532300000000000000000000000000000000081525081526020016040518060400160405280601081526020017f696e6372656469626c6547616d6532310000000000000000000000000000000081525081526020016040518060400160405280601081526020017f696e6372656469626c6547616d6532320000000000000000000000000000000081525081526020016040518060400160405280601081526020017f696e6372656469626c6547616d6532330000000000000000000000000000000081525081526020016040518060400160405280601081526020017f696e6372656469626c6547616d6532340000000000000000000000000000000081525081526020016040518060400160405280601081526020017f696e6372656469626c6547616d6532350000000000000000000000000000000081525081526020016040518060400160405280601081526020017f696e6372656469626c6547616d6532360000000000000000000000000000000081525081526020016040518060400160405280601081526020017f696e6372656469626c6547616d6532370000000000000000000000000000000081525081526020016040518060400160405280601081526020017f696e6372656469626c6547616d6532380000000000000000000000000000000081525081526020016040518060400160405280601081526020017f696e6372656469626c6547616d6532390000000000000000000000000000000081525081526020016040518060400160405280601081526020017f696e6372656469626c6547616d6533300000000000000000000000000000000081525081526020016040518060400160405280601081526020017f696e6372656469626c6547616d6533310000000000000000000000000000000081525081526020016040518060400160405280601081526020017f696e6372656469626c6547616d6533320000000000000000000000000000000081525081526020016040518060400160405280601081526020017f696e6372656469626c6547616d6533330000000000000000000000000000000081525081526020016040518060400160405280601081526020017f696e6372656469626c6547616d6533340000000000000000000000000000000081525081526020016040518060400160405280601081526020017f696e6372656469626c6547616d6533350000000000000000000000000000000081525081526020016040518060400160405280601081526020017f696e6372656469626c6547616d653336000000000000000000000000000000008152508152506003906025620008a7929190620008ee565b50336000806101000a81548173ffffffffffffffffffffffffffffffffffffffff021916908373ffffffffffffffffffffffffffffffffffffffff16021790555062000a81565b82805482825590600052602060002090810192821562000942579160200282015b82811115620009415782518290805190602001906200093092919062000955565b50916020019190600101906200090f565b5b509050620009519190620009dc565b5090565b828054600181600116156101000203166002900490600052602060002090601f016020900481019282601f106200099857805160ff1916838001178555620009c9565b82800160010185558215620009c9579182015b82811115620009c8578251825591602001919060010190620009ab565b5b509050620009d8919062000a0d565b5090565b62000a0a91905b8082111562000a065760008181620009fc919062000a35565b50600101620009e3565b5090565b90565b62000a3291905b8082111562000a2e57600081600090555060010162000a14565b5090565b90565b50805460018160011615610100020316600290046000825580601f1062000a5d575062000a7e565b601f01602090049060005260206000209081019062000a7d919062000a0d565b5b50565b6141ba8062000a916000396000f3fe6080604052600436106100915760003560e01c806397107d6d1161005957806397107d6d14610253578063af6d1fe4146102a4578063d693a9891461031f578063ec5568891461034a578063f2fde38b146103a157610091565b806356e5a2c914610096578063739e0e57146101345780638129fc1c146101965780638da5cb5b146101ad578063951bc75a14610204575b600080fd5b3480156100a257600080fd5b506100ab6103f2565b6040518084815260200183815260200180602001828103825283818151815260200191508051906020019080838360005b838110156100f75780820151818401526020810190506100dc565b50505050905090810190601f1680156101245780820380516001836020036101000a031916815260200191505b5094505050505060405180910390f35b6101806004803603604081101561014a57600080fd5b8101908080359060200190929190803573ffffffffffffffffffffffffffffffffffffffff169060200190929190505050610a50565b6040518082815260200191505060405180910390f35b3480156101a257600080fd5b506101ab611049565b005b3480156101b957600080fd5b506101c26113f1565b604051808273ffffffffffffffffffffffffffffffffffffffff1673ffffffffffffffffffffffffffffffffffffffff16815260200191505060405180910390f35b34801561021057600080fd5b5061023d6004803603602081101561022757600080fd5b8101908080359060200190929190505050611416565b6040518082815260200191505060405180910390f35b34801561025f57600080fd5b506102a26004803603602081101561027657600080fd5b81019080803573ffffffffffffffffffffffffffffffffffffffff169060200190929190505050611632565b005b3480156102b057600080fd5b506102dd600480360360208110156102c757600080fd5b81019080803590602001909291905050506116cc565b604051808273ffffffffffffffffffffffffffffffffffffffff1673ffffffffffffffffffffffffffffffffffffffff16815260200191505060405180910390f35b34801561032b57600080fd5b50610334611708565b6040518082815260200191505060405180910390f35b34801561035657600080fd5b5061035f611a3f565b604051808273ffffffffffffffffffffffffffffffffffffffff1673ffffffffffffffffffffffffffffffffffffffff16815260200191505060405180910390f35b3480156103ad57600080fd5b506103f0600480360360208110156103c457600080fd5b81019080803573ffffffffffffffffffffffffffffffffffffffff169060200190929190505050611a65565b005b60008060606000600160009054906101000a900473ffffffffffffffffffffffffffffffffffffffff1673ffffffffffffffffffffffffffffffffffffffff1663358177736040518060400160405280600d81526020017f47616d65566172416e64466565000000000000000000000000000000000000008152506040518263ffffffff1660e01b81526004018080602001828103825283818151815260200191508051906020019080838360005b838110156104bc5780820151818401526020810190506104a1565b50505050905090810190601f1680156104e95780820380516001836020036101000a031916815260200191505b509250505060206040518083038186803b15801561050657600080fd5b505afa15801561051a573d6000803e3d6000fd5b505050506040513d602081101561053057600080fd5b8101908080519060200190929190505050905060008173ffffffffffffffffffffffffffffffffffffffff1663a0a8045e6040518163ffffffff1660e01b815260040160206040518083038186803b15801561058b57600080fd5b505afa15801561059f573d6000803e3d6000fd5b505050506040513d60208110156105b557600080fd5b8101908080519060200190929190505050905060008273ffffffffffffffffffffffffffffffffffffffff1663271bf40f6040518163ffffffff1660e01b815260040160206040518083038186803b15801561061057600080fd5b505afa158015610624573d6000803e3d6000fd5b505050506040513d602081101561063a57600080fd5b810190808051906020019092919050505090506000600160009054906101000a900473ffffffffffffffffffffffffffffffffffffffff1673ffffffffffffffffffffffffffffffffffffffff1663358177736040518060400160405280600981526020017f47656e65726963444200000000000000000000000000000000000000000000008152506040518263ffffffff1660e01b81526004018080602001828103825283818151815260200191508051906020019080838360005b838110156107125780820151818401526020810190506106f7565b50505050905090810190601f16801561073f5780820380516001836020036101000a031916815260200191505b509250505060206040518083038186803b15801561075c57600080fd5b505afa158015610770573d6000803e3d6000fd5b505050506040513d602081101561078657600080fd5b810190808051906020019092919050505073ffffffffffffffffffffffffffffffffffffffff166308acb5566040518060400160405280600b81526020017f456e646f776d656e74444200000000000000000000000000000000000000000081525060405160200180807f61637475616c46756e6473455448000000000000000000000000000000000000815250600e019050604051602081830303815290604052805190602001206040518363ffffffff1660e01b81526004018080602001838152602001828103825284818151815260200191508051906020019080838360005b83811015610884578082015181840152602081019050610869565b50505050905090810190601f1680156108b15780820380516001836020036101000a031916815260200191505b50935050505060206040518083038186803b1580156108cf57600080fd5b505afa1580156108e3573d6000803e3d6000fd5b505050506040513d60208110156108f957600080fd5b81019080805190602001909291905050509050600061091782611416565b90506000619c4082111561093b5761092e82611b33565b809850819250505061094d565b61094482613a53565b80985081925050505b610975620f42406109678584613dfd90919063ffffffff16565b613e3490919063ffffffff16565b9750610a43620f4240610a3586610a2789610a198e8d73ffffffffffffffffffffffffffffffffffffffff1663c09d32af6040518163ffffffff1660e01b815260040160206040518083038186803b1580156109d057600080fd5b505afa1580156109e4573d6000803e3d6000fd5b505050506040513d60208110156109fa57600080fd5b8101908080519060200190929190505050613dfd90919063ffffffff16565b613dfd90919063ffffffff16565b613e3490919063ffffffff16565b613e3490919063ffffffff16565b9850505050505050909192565b60006040518060400160405280600d81526020017f456e646f776d656e7446756e6400000000000000000000000000000000000000815250610a9181613e4d565b6000600160009054906101000a900473ffffffffffffffffffffffffffffffffffffffff1673ffffffffffffffffffffffffffffffffffffffff1663358177736040518060400160405280600a81526020017f4b7479556e6973776170000000000000000000000000000000000000000000008152506040518263ffffffff1660e01b81526004018080602001828103825283818151815260200191508051906020019080838360005b83811015610b56578082015181840152602081019050610b3b565b50505050905090810190601f168015610b835780820380516001836020036101000a031916815260200191505b509250505060206040518083038186803b158015610ba057600080fd5b505afa158015610bb4573d6000803e3d6000fd5b505050506040513d6020811015610bca57600080fd5b810190808051906020019092919050505073ffffffffffffffffffffffffffffffffffffffff1663557b3400866040518263ffffffff1660e01b81526004018082815260200191505060206040518083038186803b158015610c2b57600080fd5b505afa158015610c3f573d6000803e3d6000fd5b505050506040513d6020811015610c5557600080fd5b81019080805190602001909291905050509050610c816509184e72a000826140e890919063ffffffff16565b341015610cf6576040517f08c379a000000000000000000000000000000000000000000000000000000000815260040180806020018281038252601f8152602001807f496e73756666696369656e7420657468657220666f722073776170204b54590081525060200191505060405180910390fd5b600160009054906101000a900473ffffffffffffffffffffffffffffffffffffffff1673ffffffffffffffffffffffffffffffffffffffff1663358177736040518060400160405280601181526020017f556e69737761705632526f7574657230310000000000000000000000000000008152506040518263ffffffff1660e01b81526004018080602001828103825283818151815260200191508051906020019080838360005b83811015610db9578082015181840152602081019050610d9e565b50505050905090810190601f168015610de65780820380516001836020036101000a031916815260200191505b509250505060206040518083038186803b158015610e0357600080fd5b505afa158015610e17573d6000803e3d6000fd5b505050506040513d6020811015610e2d57600080fd5b810190808051906020019092919050505073ffffffffffffffffffffffffffffffffffffffff16637ff36ab53460006002887f80000000000000000000000000000000000000000000000000000000000000006040518663ffffffff1660e01b815260040180858152602001806020018473ffffffffffffffffffffffffffffffffffffffff1673ffffffffffffffffffffffffffffffffffffffff1681526020018381526020018281038252858181548152602001915080548015610f4857602002820191906000526020600020905b8160009054906101000a900473ffffffffffffffffffffffffffffffffffffffff1673ffffffffffffffffffffffffffffffffffffffff1681526020019060010190808311610efe575b5050955050505050506000604051808303818588803b158015610f6a57600080fd5b505af1158015610f7e573d6000803e3d6000fd5b50505050506040513d6000823e3d601f19601f820116820180604052506020811015610fa957600080fd5b8101908080516040519392919084640100000000821115610fc957600080fd5b83820191506020820185811115610fdf57600080fd5b8251866020820283011164010000000082111715610ffc57600080fd5b8083526020830192505050908051906020019060200280838360005b83811015611033578082015181840152602081019050611018565b5050505090500160405250505050505092915050565b6040518060400160405280600d81526020017f456e646f776d656e7446756e640000000000000000000000000000000000000081525061108881613e4d565b6000600160009054906101000a900473ffffffffffffffffffffffffffffffffffffffff1673ffffffffffffffffffffffffffffffffffffffff1663358177736040518060400160405280600581526020017f57455448390000000000000000000000000000000000000000000000000000008152506040518263ffffffff1660e01b81526004018080602001828103825283818151815260200191508051906020019080838360005b8381101561114d578082015181840152602081019050611132565b50505050905090810190601f16801561117a5780820380516001836020036101000a031916815260200191505b509250505060206040518083038186803b15801561119757600080fd5b505afa1580156111ab573d6000803e3d6000fd5b505050506040513d60208110156111c157600080fd5b8101908080519060200190929190505050905060028190806001815401808255809150509060018203906000526020600020016000909192909190916101000a81548173ffffffffffffffffffffffffffffffffffffffff021916908373ffffffffffffffffffffffffffffffffffffffff160217905550506000600160009054906101000a900473ffffffffffffffffffffffffffffffffffffffff1673ffffffffffffffffffffffffffffffffffffffff1663358177736040518060400160405280601081526020017f4b69747469654669676874546f6b656e000000000000000000000000000000008152506040518263ffffffff1660e01b81526004018080602001828103825283818151815260200191508051906020019080838360005b838110156112ff5780820151818401526020810190506112e4565b50505050905090810190601f16801561132c5780820380516001836020036101000a031916815260200191505b509250505060206040518083038186803b15801561134957600080fd5b505afa15801561135d573d6000803e3d6000fd5b505050506040513d602081101561137357600080fd5b8101908080519060200190929190505050905060028190806001815401808255809150509060018203906000526020600020016000909192909190916101000a81548173ffffffffffffffffffffffffffffffffffffffff021916908373ffffffffffffffffffffffffffffffffffffffff16021790555050505050565b6000809054906101000a900473ffffffffffffffffffffffffffffffffffffffff1681565b600080600160009054906101000a900473ffffffffffffffffffffffffffffffffffffffff1673ffffffffffffffffffffffffffffffffffffffff1663358177736040518060400160405280600d81526020017f47616d65566172416e64466565000000000000000000000000000000000000008152506040518263ffffffff1660e01b81526004018080602001828103825283818151815260200191508051906020019080838360005b838110156114dc5780820151818401526020810190506114c1565b50505050905090810190601f1680156115095780820380516001836020036101000a031916815260200191505b509250505060206040518083038186803b15801561152657600080fd5b505afa15801561153a573d6000803e3d6000fd5b505050506040513d602081101561155057600080fd5b8101908080519060200190929190505050905061162a670de0b6b3a764000061161c670de0b6b3a764000061160e8573ffffffffffffffffffffffffffffffffffffffff1663a0a8045e6040518163ffffffff1660e01b815260040160206040518083038186803b1580156115c457600080fd5b505afa1580156115d8573d6000803e3d6000fd5b505050506040513d60208110156115ee57600080fd5b810190808051906020019092919050505088613dfd90919063ffffffff16565b613e3490919063ffffffff16565b613e3490919063ffffffff16565b915050919050565b6000809054906101000a900473ffffffffffffffffffffffffffffffffffffffff1673ffffffffffffffffffffffffffffffffffffffff163373ffffffffffffffffffffffffffffffffffffffff161461168857fe5b80600160006101000a81548173ffffffffffffffffffffffffffffffffffffffff021916908373ffffffffffffffffffffffffffffffffffffffff16021790555050565b600281815481106116d957fe5b906000526020600020016000915054906101000a900473ffffffffffffffffffffffffffffffffffffffff1681565b60006040518060400160405280600d81526020017f456e646f776d656e7446756e640000000000000000000000000000000000000081525061174981613e4d565b6000600160009054906101000a900473ffffffffffffffffffffffffffffffffffffffff1673ffffffffffffffffffffffffffffffffffffffff1663358177736040518060400160405280600d81526020017f47616d65566172416e64466565000000000000000000000000000000000000008152506040518263ffffffff1660e01b81526004018080602001828103825283818151815260200191508051906020019080838360005b8381101561180e5780820151818401526020810190506117f3565b50505050905090810190601f16801561183b5780820380516001836020036101000a031916815260200191505b509250505060206040518083038186803b15801561185857600080fd5b505afa15801561186c573d6000803e3d6000fd5b505050506040513d602081101561188257600080fd5b8101908080519060200190929190505050905060008173ffffffffffffffffffffffffffffffffffffffff1663d693a9896040518163ffffffff1660e01b815260040160206040518083038186803b1580156118dd57600080fd5b505afa1580156118f1573d6000803e3d6000fd5b505050506040513d602081101561190757600080fd5b8101908080519060200190929190505050905060008273ffffffffffffffffffffffffffffffffffffffff1663a2209a14836040518263ffffffff1660e01b81526004018082815260200191505060206040518083038186803b15801561196d57600080fd5b505afa158015611981573d6000803e3d6000fd5b505050506040513d602081101561199757600080fd5b810190808051906020019092919050505090508273ffffffffffffffffffffffffffffffffffffffff1663fa16b2bd826040518263ffffffff1660e01b81526004018082815260200191505060206040518083038186803b1580156119fb57600080fd5b505afa158015611a0f573d6000803e3d6000fd5b505050506040513d6020811015611a2557600080fd5b810190808051906020019092919050505094505050505090565b600160009054906101000a900473ffffffffffffffffffffffffffffffffffffffff1681565b6000809054906101000a900473ffffffffffffffffffffffffffffffffffffffff1673ffffffffffffffffffffffffffffffffffffffff163373ffffffffffffffffffffffffffffffffffffffff1614611abb57fe5b600073ffffffffffffffffffffffffffffffffffffffff168173ffffffffffffffffffffffffffffffffffffffff1614611b3057806000806101000a81548173ffffffffffffffffffffffffffffffffffffffff021916908373ffffffffffffffffffffffffffffffffffffffff1602179055505b50565b60006060619c408311611b91576040517f08c379a00000000000000000000000000000000000000000000000000000000081526004018080602001828103825260258152602001806141616025913960400191505060405180910390fd5b620111708311611df85761c3508311611c58576003600081548110611bb257fe5b906000526020600020018054600181600116156101000203166002900480601f016020809104026020016040519081016040528092919081815260200182805460018160011615610100020316600290048015611c505780601f10611c2557610100808354040283529160200191611c50565b820191906000526020600020905b815481529060010190602001808311611c3357829003601f168201915b505050505090505b61ea608311158015611c6b575061c35083115b15611d24576003600181548110611c7e57fe5b906000526020600020018054600181600116156101000203166002900480601f016020809104026020016040519081016040528092919081815260200182805460018160011615610100020316600290048015611d1c5780601f10611cf157610100808354040283529160200191611d1c565b820191906000526020600020905b815481529060010190602001808311611cff57829003601f168201915b505050505090505b620111708311158015611d38575061ea6083115b15611df1576003600281548110611d4b57fe5b906000526020600020018054600181600116156101000203166002900480601f016020809104026020016040519081016040528092919081815260200182805460018160011615610100020316600290048015611de95780601f10611dbe57610100808354040283529160200191611de9565b820191906000526020600020905b815481529060010190602001808311611dcc57829003601f168201915b505050505090505b620dbba091505b6201117083118015611e0d5750620186a08311155b1561207157620138808311611ecf5760038081548110611e2957fe5b906000526020600020018054600181600116156101000203166002900480601f016020809104026020016040519081016040528092919081815260200182805460018160011615610100020316600290048015611ec75780601f10611e9c57610100808354040283529160200191611ec7565b820191906000526020600020905b815481529060010190602001808311611eaa57829003601f168201915b505050505090505b6201388083118015611ee4575062015f908311155b15611f9d576003600481548110611ef757fe5b906000526020600020018054600181600116156101000203166002900480601f016020809104026020016040519081016040528092919081815260200182805460018160011615610100020316600290048015611f955780601f10611f6a57610100808354040283529160200191611f95565b820191906000526020600020905b815481529060010190602001808311611f7857829003601f168201915b505050505090505b62015f9083118015611fb15750620186a083115b1561206a576003600581548110611fc457fe5b906000526020600020018054600181600116156101000203166002900480601f0160208091040260200160405190810160405280929190818152602001828054600181600116156101000203166002900480156120625780601f1061203757610100808354040283529160200191612062565b820191906000526020600020905b81548152906001019060200180831161204557829003601f168201915b505050505090505b620c350091505b620186a0831180156120865750620222e08311155b156123ca57620186a0831180156120a057506201adb08311155b156121595760036006815481106120b357fe5b906000526020600020018054600181600116156101000203166002900480601f0160208091040260200160405190810160405280929190818152602001828054600181600116156101000203166002900480156121515780601f1061212657610100808354040283529160200191612151565b820191906000526020600020905b81548152906001019060200180831161213457829003601f168201915b505050505090505b6201adb08311801561216e57506201d4c08311155b1561222757600360078154811061218157fe5b906000526020600020018054600181600116156101000203166002900480601f01602080910402602001604051908101604052809291908181526020018280546001816001161561010002031660029004801561221f5780601f106121f45761010080835404028352916020019161221f565b820191906000526020600020905b81548152906001019060200180831161220257829003601f168201915b505050505090505b6201d4c08311801561223c57506201fbd08311155b156122f557600360088154811061224f57fe5b906000526020600020018054600181600116156101000203166002900480601f0160208091040260200160405190810160405280929190818152602001828054600181600116156101000203166002900480156122ed5780601f106122c2576101008083540402835291602001916122ed565b820191906000526020600020905b8154815290600101906020018083116122d057829003601f168201915b505050505090505b6201fbd08311801561230a5750620222e08311155b156123c357600360098154811061231d57fe5b906000526020600020018054600181600116156101000203166002900480601f0160208091040260200160405190810160405280929190818152602001828054600181600116156101000203166002900480156123bb5780601f10612390576101008083540402835291602001916123bb565b820191906000526020600020905b81548152906001019060200180831161239e57829003601f168201915b505050505090505b620aae6091505b620249f0831180156123df575062030d408311155b156127f157620249f0831180156123f95750620271008311155b156124b2576003600a8154811061240c57fe5b906000526020600020018054600181600116156101000203166002900480601f0160208091040260200160405190810160405280929190818152602001828054600181600116156101000203166002900480156124aa5780601f1061247f576101008083540402835291602001916124aa565b820191906000526020600020905b81548152906001019060200180831161248d57829003601f168201915b505050505090505b62027100831180156124c75750620298108311155b15612580576003600b815481106124da57fe5b906000526020600020018054600181600116156101000203166002900480601f0160208091040260200160405190810160405280929190818152602001828054600181600116156101000203166002900480156125785780601f1061254d57610100808354040283529160200191612578565b820191906000526020600020905b81548152906001019060200180831161255b57829003601f168201915b505050505090505b620298108311801561259557506202bf208311155b1561264e576003600c815481106125a857fe5b906000526020600020018054600181600116156101000203166002900480601f0160208091040260200160405190810160405280929190818152602001828054600181600116156101000203166002900480156126465780601f1061261b57610100808354040283529160200191612646565b820191906000526020600020905b81548152906001019060200180831161262957829003601f168201915b505050505090505b6202bf208311801561266357506202e6308311155b1561271c576003600d8154811061267657fe5b906000526020600020018054600181600116156101000203166002900480601f0160208091040260200160405190810160405280929190818152602001828054600181600116156101000203166002900480156127145780601f106126e957610100808354040283529160200191612714565b820191906000526020600020905b8154815290600101906020018083116126f757829003601f168201915b505050505090505b6202e63083118015612731575062030d408311155b156127ea576003600e8154811061274457fe5b906000526020600020018054600181600116156101000203166002900480601f0160208091040260200160405190810160405280929190818152602001828054600181600116156101000203166002900480156127e25780601f106127b7576101008083540402835291602001916127e2565b820191906000526020600020905b8154815290600101906020018083116127c557829003601f168201915b505050505090505b620927c091505b62030d408311801561280657506207a1208311155b15612ce65762030d408311801561282057506203d0908311155b156128d9576003600f8154811061283357fe5b906000526020600020018054600181600116156101000203166002900480601f0160208091040260200160405190810160405280929190818152602001828054600181600116156101000203166002900480156128d15780601f106128a6576101008083540402835291602001916128d1565b820191906000526020600020905b8154815290600101906020018083116128b457829003601f168201915b505050505090505b6203d090831180156128ee5750620493e08311155b156129a757600360108154811061290157fe5b906000526020600020018054600181600116156101000203166002900480601f01602080910402602001604051908101604052809291908181526020018280546001816001161561010002031660029004801561299f5780601f106129745761010080835404028352916020019161299f565b820191906000526020600020905b81548152906001019060200180831161298257829003601f168201915b505050505090505b620493e0831180156129bc5750620557308311155b15612a755760036011815481106129cf57fe5b906000526020600020018054600181600116156101000203166002900480601f016020809104026020016040519081016040528092919081815260200182805460018160011615610100020316600290048015612a6d5780601f10612a4257610100808354040283529160200191612a6d565b820191906000526020600020905b815481529060010190602001808311612a5057829003601f168201915b505050505090505b6205573083118015612a8a575062061a808311155b15612b43576003601281548110612a9d57fe5b906000526020600020018054600181600116156101000203166002900480601f016020809104026020016040519081016040528092919081815260200182805460018160011615610100020316600290048015612b3b5780601f10612b1057610100808354040283529160200191612b3b565b820191906000526020600020905b815481529060010190602001808311612b1e57829003601f168201915b505050505090505b62061a8083118015612b5857506206ddd08311155b15612c11576003601381548110612b6b57fe5b906000526020600020018054600181600116156101000203166002900480601f016020809104026020016040519081016040528092919081815260200182805460018160011615610100020316600290048015612c095780601f10612bde57610100808354040283529160200191612c09565b820191906000526020600020905b815481529060010190602001808311612bec57829003601f168201915b505050505090505b6206ddd083118015612c2657506207a1208311155b15612cdf576003601481548110612c3957fe5b906000526020600020018054600181600116156101000203166002900480601f016020809104026020016040519081016040528092919081815260200182805460018160011615610100020316600290048015612cd75780601f10612cac57610100808354040283529160200191612cd7565b820191906000526020600020905b815481529060010190602001808311612cba57829003601f168201915b505050505090505b6207a12091505b6207a12083118015612cfb5750620f42408311155b1561310d576207a12083118015612d155750620927c08311155b15612dce576003601581548110612d2857fe5b906000526020600020018054600181600116156101000203166002900480601f016020809104026020016040519081016040528092919081815260200182805460018160011615610100020316600290048015612dc65780601f10612d9b57610100808354040283529160200191612dc6565b820191906000526020600020905b815481529060010190602001808311612da957829003601f168201915b505050505090505b620927c083118015612de35750626acfc08311155b15612e9c576003601681548110612df657fe5b906000526020600020018054600181600116156101000203166002900480601f016020809104026020016040519081016040528092919081815260200182805460018160011615610100020316600290048015612e945780601f10612e6957610100808354040283529160200191612e94565b820191906000526020600020905b815481529060010190602001808311612e7757829003601f168201915b505050505090505b620aae6083118015612eb15750620c35008311155b15612f6a576003601781548110612ec457fe5b906000526020600020018054600181600116156101000203166002900480601f016020809104026020016040519081016040528092919081815260200182805460018160011615610100020316600290048015612f625780601f10612f3757610100808354040283529160200191612f62565b820191906000526020600020905b815481529060010190602001808311612f4557829003601f168201915b505050505090505b620c350083118015612f7f5750620dbba08311155b15613038576003601881548110612f9257fe5b906000526020600020018054600181600116156101000203166002900480601f0160208091040260200160405190810160405280929190818152602001828054600181600116156101000203166002900480156130305780601f1061300557610100808354040283529160200191613030565b820191906000526020600020905b81548152906001019060200180831161301357829003601f168201915b505050505090505b620dbba08311801561304d5750620f42408311155b1561310657600360198154811061306057fe5b906000526020600020018054600181600116156101000203166002900480601f0160208091040260200160405190810160405280929190818152602001828054600181600116156101000203166002900480156130fe5780601f106130d3576101008083540402835291602001916130fe565b820191906000526020600020905b8154815290600101906020018083116130e157829003601f168201915b505050505090505b62061a8091505b620f4240831180156131225750621e84808311155b156132ca57620f42408311801561313c57506216e3608311155b156131f5576003601a8154811061314f57fe5b906000526020600020018054600181600116156101000203166002900480601f0160208091040260200160405190810160405280929190818152602001828054600181600116156101000203166002900480156131ed5780601f106131c2576101008083540402835291602001916131ed565b820191906000526020600020905b8154815290600101906020018083116131d057829003601f168201915b505050505090505b6216e3608311801561320a5750621e84808311155b156132c3576003601b8154811061321d57fe5b906000526020600020018054600181600116156101000203166002900480601f0160208091040260200160405190810160405280929190818152602001828054600181600116156101000203166002900480156132bb5780601f10613290576101008083540402835291602001916132bb565b820191906000526020600020905b81548152906001019060200180831161329e57829003601f168201915b505050505090505b620493e091505b621e8480831180156132df5750624c4b408311155b1561355557621e8480831180156132f95750622dc6c08311155b156133b2576003601c8154811061330c57fe5b906000526020600020018054600181600116156101000203166002900480601f0160208091040260200160405190810160405280929190818152602001828054600181600116156101000203166002900480156133aa5780601f1061337f576101008083540402835291602001916133aa565b820191906000526020600020905b81548152906001019060200180831161338d57829003601f168201915b505050505090505b622dc6c0831180156133c75750623d09008311155b15613480576003601d815481106133da57fe5b906000526020600020018054600181600116156101000203166002900480601f0160208091040260200160405190810160405280929190818152602001828054600181600116156101000203166002900480156134785780601f1061344d57610100808354040283529160200191613478565b820191906000526020600020905b81548152906001019060200180831161345b57829003601f168201915b505050505090505b623d0900831180156134955750624c4b408311155b1561354e576003601e815481106134a857fe5b906000526020600020018054600181600116156101000203166002900480601f0160208091040260200160405190810160405280929190818152602001828054600181600116156101000203166002900480156135465780601f1061351b57610100808354040283529160200191613546565b820191906000526020600020905b81548152906001019060200180831161352957829003601f168201915b505050505090505b62030d4091505b624c4b408311801561356b57506301312d008311155b15613a4e57624c4b4083118015613586575063039387008311155b1561363f576003601f8154811061359957fe5b906000526020600020018054600181600116156101000203166002900480601f0160208091040260200160405190810160405280929190818152602001828054600181600116156101000203166002900480156136375780601f1061360c57610100808354040283529160200191613637565b820191906000526020600020905b81548152906001019060200180831161361a57829003601f168201915b505050505090505b625b8d80831180156136545750626acfc08311155b1561370d57600360208154811061366757fe5b906000526020600020018054600181600116156101000203166002900480601f0160208091040260200160405190810160405280929190818152602001828054600181600116156101000203166002900480156137055780601f106136da57610100808354040283529160200191613705565b820191906000526020600020905b8154815290600101906020018083116136e857829003601f168201915b505050505090505b626acfc08311801561372357506304c4b4008311155b156137dc57600360218154811061373657fe5b906000526020600020018054600181600116156101000203166002900480601f0160208091040260200160405190810160405280929190818152602001828054600181600116156101000203166002900480156137d45780601f106137a9576101008083540402835291602001916137d4565b820191906000526020600020905b8154815290600101906020018083116137b757829003601f168201915b505050505090505b627a1200831180156137f15750628954408311155b156138aa57600360228154811061380457fe5b906000526020600020018054600181600116156101000203166002900480601f0160208091040260200160405190810160405280929190818152602001828054600181600116156101000203166002900480156138a25780601f10613877576101008083540402835291602001916138a2565b820191906000526020600020905b81548152906001019060200180831161388557829003601f168201915b505050505090505b62895440831180156138bf5750629896808311155b156139785760036023815481106138d257fe5b906000526020600020018054600181600116156101000203166002900480601f0160208091040260200160405190810160405280929190818152602001828054600181600116156101000203166002900480156139705780601f1061394557610100808354040283529160200191613970565b820191906000526020600020905b81548152906001019060200180831161395357829003601f168201915b505050505090505b629896808311801561398e57506301312d008311155b15613a475760036024815481106139a157fe5b906000526020600020018054600181600116156101000203166002900480601f016020809104026020016040519081016040528092919081815260200182805460018160011615610100020316600290048015613a3f5780601f10613a1457610100808354040283529160200191613a3f565b820191906000526020600020905b815481529060010190602001808311613a2257829003601f168201915b505050505090505b620186a091505b915091565b6000606060008311613acd576040517f08c379a000000000000000000000000000000000000000000000000000000000815260040180806020018281038252601b8152602001807f46756e6473206d75737420626520626967676572207468616e2030000000000081525060200191505060405180910390fd5b619c40831115613b28576040517f08c379a00000000000000000000000000000000000000000000000000000000081526004018080602001828103825260348152602001806141006034913960400191505060405180910390fd5b6101f48311613b6a576040518060400160405280600c81526020017f7665727954696e7947616d65000000000000000000000000000000000000000081525090505b6101f483118015613b7d57506103e88311155b15613bbb576040518060400160405280600881526020017f74696e7947616d6500000000000000000000000000000000000000000000000081525090505b6103e883118015613bce57506109c48311155b15613c0c576040518060400160405280600d81526020017f76657279536d616c6c47616d650000000000000000000000000000000000000081525090505b6109c483118015613c1f57506113888311155b15613c5d576040518060400160405280600981526020017f736d616c6c47616d65000000000000000000000000000000000000000000000081525090505b61138883118015613c705750611d4c8311155b15613cae576040518060400160405280600a81526020017f6e6f726d616c47616d650000000000000000000000000000000000000000000081525090505b611d4c83118015613cc157506127108311155b15613cff576040518060400160405280600781526020017f62696747616d650000000000000000000000000000000000000000000000000081525090505b61271083118015613d125750614e208311155b15613d50576040518060400160405280600b81526020017f7665727942696747616d6500000000000000000000000000000000000000000081525090505b614e2083118015613d6357506175308311155b15613da1576040518060400160405280600881526020017f6875676547616d6500000000000000000000000000000000000000000000000081525090505b61753083118015613db45750619c408311155b15613df2576040518060400160405280600981526020017f677265617447616d65000000000000000000000000000000000000000000000081525090505b620f42409150915091565b600080831415613e105760009050613e2e565b6000828402905082848281613e2157fe5b0414613e2957fe5b809150505b92915050565b600080828481613e4057fe5b0490508091505092915050565b600073ffffffffffffffffffffffffffffffffffffffff16600160009054906101000a900473ffffffffffffffffffffffffffffffffffffffff1673ffffffffffffffffffffffffffffffffffffffff161415613f12576040517f08c379a00000000000000000000000000000000000000000000000000000000081526004018080602001828103825260088152602001807f4e6f2050726f787900000000000000000000000000000000000000000000000081525060200191505060405180910390fd5b6000600160009054906101000a900473ffffffffffffffffffffffffffffffffffffffff1673ffffffffffffffffffffffffffffffffffffffff166335817773836040518263ffffffff1660e01b81526004018080602001828103825283818151815260200191508051906020019080838360005b83811015613fa2578082015181840152602081019050613f87565b50505050905090810190601f168015613fcf5780820380516001836020036101000a031916815260200191505b509250505060206040518083038186803b158015613fec57600080fd5b505afa158015614000573d6000803e3d6000fd5b505050506040513d602081101561401657600080fd5b81019080805190602001909291905050509050600073ffffffffffffffffffffffffffffffffffffffff168173ffffffffffffffffffffffffffffffffffffffff16141561406057fe5b8073ffffffffffffffffffffffffffffffffffffffff163373ffffffffffffffffffffffffffffffffffffffff16146140e4576040517f08c379a000000000000000000000000000000000000000000000000000000000815260040180806020018281038252602d815260200180614134602d913960400191505060405180910390fd5b5050565b6000828211156140f457fe5b81830390509291505056fe546f6f206d7563682066756e647320666f72206120686f6e6579706f7420636c6173732062656c6f7720696e6372656369626c65416363657373206973206f6e6c7920616c6c6f7765642066726f6d20737065636966696320636f6e74726163744e6f7420656e6f7567682066756e647320666f7220696e6372656469626c6520636c617373a265627a7a7231582097ff083d9f71f1f37844109498a347c889f3a838220c06a3667b218c801b334a64736f6c63430005110032",
  "source": "/**\r\n * @title HoneypotAllocationAlgo\r\n */\r\npragma solidity ^0.5.5;\r\n/**\r\n * @title HoneypotAllocationAlgo\r\n * @dev Responsible for : allocate initial ETH and initial KTY funds to a new honeypot upon its creation\r\n * @author @ziweidream\r\n */\r\nimport '../proxy/Proxied.sol';\r\nimport '../../libs/SafeMath.sol';\r\nimport '../../GameVarAndFee.sol';\r\nimport '../databases/GenericDB.sol';\r\nimport \"../../uniswapKTY/uniswap-v2-periphery/interfaces/IUniswapV2Router01.sol\";\r\nimport \"./KtyUniswap.sol\";\r\n\r\ncontract HoneypotAllocationAlgo is Proxied {\r\n    using SafeMath for uint256;\r\n\r\n    address[] public path;\r\n\r\n    /// @dev game honeypot classfication (based on actual funds in USD)\r\n    string constant VERY_TINY_GAME = \"veryTinyGame\"; // <= $500\r\n    string constant TINY_GAME = \"tinyGame\"; // >$500 && <= $1000\r\n    string constant VERY_SMALL_GAME = \"verySmallGame\"; // > $1000 && <= $2500\r\n    string constant SMALL_GAME = \"smallGame\"; // > $2500 && <= $5000\r\n    string constant NORMAL_GAME = \"normalGame\"; // > $5000 && <= $7500\r\n    string constant BIG_GAME = \"bigGame\"; // > $7500 && <= $10000\r\n    string constant VERY_BIG_GAME = \"veryBigGame\"; // > $10000 && <= $20000\r\n    string constant HUGE_GAME = \"hugeGame\"; // > $20000 && <= $30000\r\n    string constant GREAT_GAME = \"greatGame\"; // > $30000 && <= $40000\r\n    string constant INCREDIBLE_GAME_0 = \"incredibleGame0\";   // > $40000 && <= $50000\r\n    string constant INCREDIBLE_GAME_1 = \"incredibleGame1\";   // > $50000 && <= $60000\r\n    string constant INCREDIBLE_GAME_2 = \"incredibleGame2\";   // > $60000 && <= $70000\r\n    string constant INCREDIBLE_GAME_3 = \"incredibleGame3\";   // > $70000 && <= $80000\r\n    string constant INCREDIBLE_GAME_4 = \"incredibleGame4\";   // > $80000 && <= $90000\r\n    string constant INCREDIBLE_GAME_5 = \"incredibleGame5\";   // > $90000 && <= $100000\r\n    string constant INCREDIBLE_GAME_6 = \"incredibleGame6\";   // > $100000 && <= $110000\r\n    string constant INCREDIBLE_GAME_7 = \"incredibleGame7\";   // > $110000 && <= $120000\r\n    string constant INCREDIBLE_GAME_8 = \"incredibleGame6\";   // > $120000 && <= $130000\r\n    string constant INCREDIBLE_GAME_9 = \"incredibleGame9\";   // > $130000 && <= $140000\r\n    string constant INCREDIBLE_GAME_10 = \"incredibleGame10\";   // > $150000 && <= $160000\r\n    string constant INCREDIBLE_GAME_11 = \"incredibleGame11\";   // > $160000 && <= $170000\r\n    string constant INCREDIBLE_GAME_12 = \"incredibleGame12\";   // > $170000 && <= $180000\r\n    string constant INCREDIBLE_GAME_13 = \"incredibleGame13\";   // > $180000 && <= $190000\r\n    string constant INCREDIBLE_GAME_14 = \"incredibleGame14\";   // > $190000 && <= $200000\r\n    string constant INCREDIBLE_GAME_15 = \"incredibleGame15\";   // > $200000 && <= $250000\r\n    string constant INCREDIBLE_GAME_16 = \"incredibleGame16\";   // > $250000 && <= $300000\r\n    string constant INCREDIBLE_GAME_17 = \"incredibleGame17\"; // > $300000 && <= $350000\r\n    string constant INCREDIBLE_GAME_18 = \"incredibleGame18\"; // > $350000 && <= $400000\r\n    string constant INCREDIBLE_GAME_19 = \"incredibleGame19\"; // > $400000 && <= $450000\r\n    string constant INCREDIBLE_GAME_20 = \"incredibleGame20\"; // > $450000 && <= $500000\r\n    string constant INCREDIBLE_GAME_21 = \"incredibleGame21\"; // > $500000 && <= $600000\r\n    string constant INCREDIBLE_GAME_22 = \"incredibleGame22\"; // > $600000 && <= $700000\r\n    string constant INCREDIBLE_GAME_23 = \"incredibleGame23\"; // > $700000 && <= $800000\r\n    string constant INCREDIBLE_GAME_24 = \"incredibleGame24\"; // > $800000 && <= $900000\r\n    string constant INCREDIBLE_GAME_25 = \"incredibleGame25\"; // > $900000 && <= $1000000\r\n    string constant INCREDIBLE_GAME_26 = \"incredibleGame26\"; // > $1000000 && <= $1500000\r\n    string constant INCREDIBLE_GAME_27 = \"incredibleGame27\"; // > $1500000 && <= $2000000\r\n    string constant INCREDIBLE_GAME_28 = \"incredibleGame28\"; // > $2000000 && <= $3000000\r\n    string constant INCREDIBLE_GAME_29 = \"incredibleGame29\"; // > $3000000 && <= $4000000\r\n    string constant INCREDIBLE_GAME_30 = \"incredibleGame30\"; // > $4000000 && <= $5000000\r\n    string constant INCREDIBLE_GAME_31 = \"incredibleGame31\"; // > $5000000 && <= $6000000\r\n    string constant INCREDIBLE_GAME_32 = \"incredibleGame32\"; // > $6000000 && <= $7000000\r\n    string constant INCREDIBLE_GAME_33 = \"incredibleGame33\"; // > $7000000 && <= $8000000\r\n    string constant INCREDIBLE_GAME_34 = \"incredibleGame34\"; // > $8000000 && <= $9,000,000\r\n    string constant INCREDIBLE_GAME_35 = \"incredibleGame35\"; // > $9,000,000 && <= $10,000,000\r\n    string constant INCREDIBLE_GAME_36 = \"incredibleGame36\"; // > $10,000,000 && <= $20,000,000\r\n\r\n    /// @dev honeypot allocation percentage\r\n    uint256 constant HONEYPOT_ALLOCATION_PERCENTAGE_GREAT            = 1000000; // very tiny game - big game: 100%\r\n    uint256 constant HONEYPOT_ALLOCATION_PERCENTAGE_INCREDIBLE_0_2   = 900000; // Incredible Game 0 - Incredible Game 2: 90%\r\n    uint256 constant HONEYPOT_ALLOCATION_PERCENTAGE_INCREDIBLE_3_5   = 800000; // Incredible Game 3 - Incredible Game 5: 80%\r\n    uint256 constant HONEYPOT_ALLOCATION_PERCENTAGE_INCREDIBLE_6_9   = 700000; // Incredible Game 6 - Incredible Game 9: 70%\r\n    uint256 constant HONEYPOT_ALLOCATION_PERCENTAGE_INCREDIBLE_10_14 = 600000; // Incredible Game 10 - Incredible Game 14: 60%\r\n    uint256 constant HONEYPOT_ALLOCATION_PERCENTAGE_INCREDIBLE_15_20 = 500000; // Incredible Game 15 - Incredible Game 19: 50%\r\n    uint256 constant HONEYPOT_ALLOCATION_PERCENTAGE_INCREDIBLE_21_25 = 400000; // Incredible Game 20 - Incredible Game 24: 40%\r\n    uint256 constant HONEYPOT_ALLOCATION_PERCENTAGE_INCREDIBLE_26_27 = 300000; // Incredible Game 25 - Incredible Game 26: 30%\r\n    uint256 constant HONEYPOT_ALLOCATION_PERCENTAGE_INCREDIBLE_28_30 = 200000; // Incredible Game 27 - Incredible Game 29: 20%\r\n    uint256 constant HONEYPOT_ALLOCATION_PERCENTAGE_INCREDIBLE_31_36 = 100000; // Incredible Game 30 - Incredible Game 35: 10%\r\n\r\n    /// @dev an array of all the honeypot incredible-class names\r\n    string[] honeypotClassIncredible = [\r\n        INCREDIBLE_GAME_0, INCREDIBLE_GAME_1, INCREDIBLE_GAME_2,\r\n        INCREDIBLE_GAME_3, INCREDIBLE_GAME_4, INCREDIBLE_GAME_5,\r\n        INCREDIBLE_GAME_6, INCREDIBLE_GAME_7, INCREDIBLE_GAME_8,\r\n        INCREDIBLE_GAME_9, INCREDIBLE_GAME_10, INCREDIBLE_GAME_11,\r\n        INCREDIBLE_GAME_12, INCREDIBLE_GAME_13, INCREDIBLE_GAME_14,\r\n        INCREDIBLE_GAME_15, INCREDIBLE_GAME_16, INCREDIBLE_GAME_17,\r\n        INCREDIBLE_GAME_18, INCREDIBLE_GAME_19, INCREDIBLE_GAME_20,\r\n        INCREDIBLE_GAME_21, INCREDIBLE_GAME_22, INCREDIBLE_GAME_23,\r\n        INCREDIBLE_GAME_24, INCREDIBLE_GAME_25, INCREDIBLE_GAME_26,\r\n        INCREDIBLE_GAME_27, INCREDIBLE_GAME_28, INCREDIBLE_GAME_29,\r\n        INCREDIBLE_GAME_30, INCREDIBLE_GAME_31, INCREDIBLE_GAME_32,\r\n        INCREDIBLE_GAME_33, INCREDIBLE_GAME_34, INCREDIBLE_GAME_35,\r\n        INCREDIBLE_GAME_36\r\n    ];\r\n\r\n    function initialize()\r\n    public\r\n    onlyContract(CONTRACT_NAME_ENDOWMENT_FUND)\r\n    {\r\n        address _WETH = proxy.getContract(CONTRACT_NAME_WETH);\r\n        path.push(_WETH);\r\n        address _KTY = proxy.getContract(CONTRACT_NAME_KITTIEFIGHTOKEN);\r\n        path.push(_KTY);\r\n    }\r\n\r\n    /**\r\n     * @dev calculates the amount of initial ethers and KTYs allocated to a new honeypot\r\n     * upon its generations, based on the amount of available funds in USD\r\n     * @return ktyAllocated uint256 the amount of initial KTYs allocated to a honeypot\r\n     * @return ethAllocated uint256 the amount of initial ethers allocated to a honeypot\r\n     * @return honeypotClass string the name of the class assigned to a honeypot\r\n     */\r\n    function calculateAllocationToHoneypot()\r\n        public\r\n        view\r\n        // onlyContract(CONTRACT_NAME_ENDOWMENT_DB)\r\n        returns (uint256 ktyAllocated, uint256 ethAllocated, string memory honeypotClass)\r\n    {\r\n        GameVarAndFee gameVarAndFee = GameVarAndFee(proxy.getContract(CONTRACT_NAME_GAMEVARANDFEE));\r\n        uint256 ethUsdPrice = gameVarAndFee.getEthUsdPrice();\r\n        uint256 usdKTYPrice = gameVarAndFee.getUsdKTYPrice();\r\n        uint256 actualFundsETH = GenericDB(proxy.getContract(CONTRACT_NAME_GENERIC_DB))\r\n                                 .getUintStorage(\r\n                                     CONTRACT_NAME_ENDOWMENT_DB,\r\n                                     keccak256(abi.encodePacked(\"actualFundsETH\")));\r\n\r\n        uint256 actualFundsUSD = convertETHtoUSD(actualFundsETH);\r\n        uint256 percentageETH;\r\n        if (actualFundsUSD > 40000) {\r\n            (percentageETH, honeypotClass) = _honeypotAllocationETH_incredible(actualFundsUSD);\r\n        } else {\r\n            (percentageETH, honeypotClass) = _honeypotAllocationETH_great(actualFundsUSD);\r\n        }\r\n        ethAllocated = percentageETH.mul(actualFundsETH).div(1000000);\r\n        ktyAllocated = gameVarAndFee.getPercentageHoneypotAllocationKTY()\r\n                                    .mul(ethAllocated).mul(ethUsdPrice)\r\n                                    .div(usdKTYPrice).div(1000000);// 1,000,000 is the percentage base\r\n    }\r\n\r\n    /**\r\n    * @dev send reward to the user that pressed finalize button\r\n    */\r\n    function getFinalizeRewards()\r\n        external\r\n        view\r\n        onlyContract(CONTRACT_NAME_ENDOWMENT_FUND)\r\n        returns(uint256)\r\n    {\r\n        GameVarAndFee gameVarAndFee = GameVarAndFee(proxy.getContract(CONTRACT_NAME_GAMEVARANDFEE));\r\n        // get reward amount in KTY\r\n        uint rewardDAI = gameVarAndFee.getFinalizeRewards();\r\n        // convert from Dai to ether\r\n        uint rewardETH = gameVarAndFee.convertDaiToEth(rewardDAI);\r\n        // convert from ether to KTY\r\n        return gameVarAndFee.convertEthToKty(rewardETH);\r\n    }\r\n\r\n    /**\r\n    * @dev exchange ether for KTY\r\n    */\r\n    function swapEtherForKTY(uint256 _kty_amount, address _escrow)\r\n        external\r\n        payable\r\n        onlyContract(CONTRACT_NAME_ENDOWMENT_FUND)\r\n        returns(uint256)\r\n    { \r\n        uint etherForSwap = KtyUniswap(proxy.getContract(CONTRACT_NAME_KTY_UNISWAP)).etherFor(_kty_amount);\r\n        // allow an error within 0.0001 ether range, which is around $0.002 USD, that is, 0.2 cents.\r\n        require(msg.value >= etherForSwap.sub(10000000000000), \"Insufficient ether for swap KTY\");\r\n        // exchange KTY on uniswap\r\n        IUniswapV2Router01(proxy.getContract(CONTRACT_NAME_UNISWAPV2_ROUTER)).swapExactETHForTokens.value(msg.value)(\r\n            0,\r\n            path,\r\n            _escrow,\r\n            2**255\r\n        );\r\n    }\r\n\r\n    /**\r\n     * @dev Convert funds from ether to USD\r\n     * @param _eth uint256 the amount of ethers to be converted to USD\r\n     * @return _usd uint256 the amount of USD converted from ether\r\n     */\r\n    function convertETHtoUSD(uint256 _eth)\r\n        public view returns(uint256 _usd) {\r\n        GameVarAndFee gameVarAndFee = GameVarAndFee(proxy.getContract(CONTRACT_NAME_GAMEVARANDFEE));\r\n        _usd = _eth.mul(gameVarAndFee.getEthUsdPrice()).div(1000000000000000000).div(1000000000000000000);\r\n    }\r\n\r\n    /**\r\n     * @dev Determines if a honeypot should belong to the incredible class or not\r\n     * @param _actualFundsUSD uint256 the amount of acutal funds available in USD\r\n     * @return true if the honeypot is of an incredible class\r\n     */\r\n    function _isIncredible(uint256 _actualFundsUSD) internal pure returns(bool) {\r\n        return _actualFundsUSD > 40000;\r\n    }\r\n\r\n    /**\r\n     * @dev Determines the percentage of actual funds in ether to be allocated to a new honeypot\r\n     * and the class name of a honeypot\r\n     * @dev This function is for honeypots belonging to an incredible class.\r\n     * @param _actualFundsUSD uint256 the amount of actual funds available in USD, which should be at least $40,000\r\n     * @return percentage uint256 the percentage of actual funds availabe for initial ehter allocation to a honeypot\r\n     * @return honeypotClass string the name of the class of the honeypot\r\n     */\r\n    function _honeypotAllocationETH_incredible(uint256 _actualFundsUSD)\r\n        internal\r\n        view\r\n        returns (uint256 percentage, string memory honeypotClass)\r\n    {\r\n        require(_actualFundsUSD > 40000, \"Not enough funds for incredible class\");\r\n        // incredible class 0, 1, 2\r\n        if (_actualFundsUSD <= 70000) {\r\n            if (_actualFundsUSD <= 50000) {\r\n            honeypotClass = honeypotClassIncredible[0];\r\n            }\r\n            if (_actualFundsUSD <= 60000 && _actualFundsUSD > 50000) {\r\n                honeypotClass = honeypotClassIncredible[1];\r\n            }\r\n            if (_actualFundsUSD <= 70000 && _actualFundsUSD > 60000) {\r\n                honeypotClass = honeypotClassIncredible[2];\r\n            }\r\n            percentage = HONEYPOT_ALLOCATION_PERCENTAGE_INCREDIBLE_0_2;\r\n        }\r\n\r\n        // incredible class 3, 4, 5\r\n        if (_actualFundsUSD > 70000 && _actualFundsUSD <= 100000) {\r\n            if (_actualFundsUSD <= 80000) {\r\n            honeypotClass = honeypotClassIncredible[3];\r\n            }\r\n            if (_actualFundsUSD > 80000 && _actualFundsUSD <= 90000) {\r\n                honeypotClass = honeypotClassIncredible[4];\r\n            }\r\n            if (_actualFundsUSD > 90000 && _actualFundsUSD > 100000) {\r\n                honeypotClass = honeypotClassIncredible[5];\r\n            }\r\n            percentage = HONEYPOT_ALLOCATION_PERCENTAGE_INCREDIBLE_3_5;\r\n        }\r\n\r\n        // incredible class 6, 7, 8, 9\r\n        if (_actualFundsUSD > 100000 && _actualFundsUSD <= 140000) {\r\n            if (_actualFundsUSD > 100000 && _actualFundsUSD <= 110000) {\r\n            honeypotClass = honeypotClassIncredible[6];\r\n            }\r\n            if (_actualFundsUSD > 110000 && _actualFundsUSD <= 120000) {\r\n                honeypotClass = honeypotClassIncredible[7];\r\n            }\r\n            if (_actualFundsUSD > 120000 && _actualFundsUSD <= 130000) {\r\n                honeypotClass = honeypotClassIncredible[8];\r\n            }\r\n            if (_actualFundsUSD > 130000 && _actualFundsUSD <= 140000) {\r\n                honeypotClass = honeypotClassIncredible[9];\r\n            }\r\n            percentage = HONEYPOT_ALLOCATION_PERCENTAGE_INCREDIBLE_6_9;\r\n        }\r\n\r\n        // incredible class 10, 11, 12, 13, 14\r\n        if (_actualFundsUSD > 150000 && _actualFundsUSD <= 200000) {\r\n            if (_actualFundsUSD > 150000 && _actualFundsUSD <= 160000) {\r\n            honeypotClass = honeypotClassIncredible[10];\r\n            }\r\n            if (_actualFundsUSD > 160000 && _actualFundsUSD <= 170000) {\r\n                honeypotClass = honeypotClassIncredible[11];\r\n            }\r\n            if (_actualFundsUSD > 170000 && _actualFundsUSD <= 180000) {\r\n                honeypotClass = honeypotClassIncredible[12];\r\n            }\r\n            if (_actualFundsUSD > 180000 && _actualFundsUSD <= 190000) {\r\n                honeypotClass = honeypotClassIncredible[13];\r\n            }\r\n            if (_actualFundsUSD > 190000 && _actualFundsUSD <= 200000) {\r\n                honeypotClass = honeypotClassIncredible[14];\r\n            }\r\n            percentage = HONEYPOT_ALLOCATION_PERCENTAGE_INCREDIBLE_10_14;\r\n        }\r\n\r\n        // incredible class 15, 16, 17, 18, 19, 20\r\n        if (_actualFundsUSD > 200000 && _actualFundsUSD <= 500000) {\r\n            if (_actualFundsUSD > 200000 && _actualFundsUSD <= 250000) {\r\n            honeypotClass = honeypotClassIncredible[15];\r\n            }\r\n            if (_actualFundsUSD > 250000 && _actualFundsUSD <= 300000) {\r\n                honeypotClass = honeypotClassIncredible[16];\r\n            }\r\n            if (_actualFundsUSD > 300000 && _actualFundsUSD <= 350000) {\r\n                honeypotClass = honeypotClassIncredible[17];\r\n            }\r\n            if (_actualFundsUSD > 350000 && _actualFundsUSD <= 400000) {\r\n                honeypotClass = honeypotClassIncredible[18];\r\n            }\r\n            if (_actualFundsUSD > 400000 && _actualFundsUSD <= 450000) {\r\n                honeypotClass = honeypotClassIncredible[19];\r\n            }\r\n            if (_actualFundsUSD > 450000 && _actualFundsUSD <= 500000) {\r\n                honeypotClass = honeypotClassIncredible[20];\r\n            }\r\n            percentage = HONEYPOT_ALLOCATION_PERCENTAGE_INCREDIBLE_15_20;\r\n        }\r\n\r\n        // incredible class 21, 22, 23, 24, 25\r\n        if (_actualFundsUSD > 500000 && _actualFundsUSD <= 1000000) {\r\n            if (_actualFundsUSD > 500000 && _actualFundsUSD <= 600000) {\r\n                honeypotClass = honeypotClassIncredible[21];\r\n            }\r\n            if (_actualFundsUSD > 600000 && _actualFundsUSD <= 7000000) {\r\n                honeypotClass = honeypotClassIncredible[22];\r\n            }\r\n            if (_actualFundsUSD > 700000 && _actualFundsUSD <= 800000) {\r\n                honeypotClass = honeypotClassIncredible[23];\r\n            }\r\n            if (_actualFundsUSD > 800000 && _actualFundsUSD <= 900000) {\r\n                honeypotClass = honeypotClassIncredible[24];\r\n            }\r\n            if (_actualFundsUSD > 900000 && _actualFundsUSD <= 1000000) {\r\n                honeypotClass = honeypotClassIncredible[25];\r\n            }\r\n            percentage = HONEYPOT_ALLOCATION_PERCENTAGE_INCREDIBLE_21_25;\r\n        }\r\n\r\n        // incredible class 26, 27\r\n        if (_actualFundsUSD > 1000000 && _actualFundsUSD <= 2000000) {\r\n            if (_actualFundsUSD > 1000000 && _actualFundsUSD <= 1500000) {\r\n                honeypotClass = honeypotClassIncredible[26];\r\n            }\r\n            if (_actualFundsUSD > 1500000 && _actualFundsUSD <= 2000000) {\r\n                honeypotClass = honeypotClassIncredible[27];\r\n            }\r\n            percentage = HONEYPOT_ALLOCATION_PERCENTAGE_INCREDIBLE_26_27;\r\n        }\r\n\r\n        // incredible class 28, 29, 30\r\n        if (_actualFundsUSD > 2000000 && _actualFundsUSD <= 5000000) {\r\n            if (_actualFundsUSD > 2000000 && _actualFundsUSD <= 3000000) {\r\n                honeypotClass = honeypotClassIncredible[28];\r\n            }\r\n            if (_actualFundsUSD > 3000000 && _actualFundsUSD <= 4000000) {\r\n                honeypotClass = honeypotClassIncredible[29];\r\n            }\r\n            if (_actualFundsUSD > 4000000 && _actualFundsUSD <= 5000000) {\r\n                honeypotClass = honeypotClassIncredible[30];\r\n            }\r\n            percentage = HONEYPOT_ALLOCATION_PERCENTAGE_INCREDIBLE_28_30;\r\n        }\r\n\r\n        // incredible class 31, 32, 33, 34, 35, 36\r\n        if (_actualFundsUSD > 5000000 && _actualFundsUSD <= 20000000) {\r\n            if (_actualFundsUSD > 5000000 && _actualFundsUSD <= 60000000) {\r\n                honeypotClass = honeypotClassIncredible[31];\r\n            }\r\n            if (_actualFundsUSD > 6000000 && _actualFundsUSD <= 7000000) {\r\n                honeypotClass = honeypotClassIncredible[32];\r\n            }\r\n            if (_actualFundsUSD > 7000000 && _actualFundsUSD <= 80000000) {\r\n                honeypotClass = honeypotClassIncredible[33];\r\n            }\r\n            if (_actualFundsUSD > 8000000 && _actualFundsUSD <= 9000000) {\r\n                honeypotClass = honeypotClassIncredible[34];\r\n            }\r\n            if (_actualFundsUSD > 9000000 && _actualFundsUSD <= 10000000) {\r\n                honeypotClass = honeypotClassIncredible[35];\r\n            }\r\n            if (_actualFundsUSD > 10000000 && _actualFundsUSD <= 20000000) {\r\n                honeypotClass = honeypotClassIncredible[36];\r\n            }\r\n            percentage = HONEYPOT_ALLOCATION_PERCENTAGE_INCREDIBLE_31_36;\r\n        }\r\n    }\r\n\r\n    /**\r\n     * @dev Determines the percentage of actual funds in ether to be allocated to a new honeypot\r\n     * and the class name of a honeypot\r\n     * @dev This function is for honeypots belonging to a great class or lower.\r\n     * @param _actualFundsUSD uint256 the amount of actual funds available in USD, which should be at most $40,000\r\n     * @return percentage uint256 the percentage of actual funds availabe for initial ehter allocation to a honeypot\r\n     * @return honeypotClass string the name of the class of the honeypot\r\n     */\r\n    function _honeypotAllocationETH_great(uint256 _actualFundsUSD)\r\n        internal\r\n        pure\r\n        returns (uint256 percentage, string memory honeypotClass)\r\n    {\r\n        require(_actualFundsUSD > 0, \"Funds must be bigger than 0\");\r\n        require(_actualFundsUSD <= 40000, \"Too much funds for a honeypot class below increcible\");\r\n\r\n        if (_actualFundsUSD <= 500) {\r\n            honeypotClass = VERY_TINY_GAME;\r\n        }\r\n\r\n        if (_actualFundsUSD > 500 && _actualFundsUSD <= 1000) {\r\n            honeypotClass = TINY_GAME;\r\n        }\r\n\r\n        if (_actualFundsUSD > 1000 && _actualFundsUSD <= 2500) {\r\n            honeypotClass = VERY_SMALL_GAME;\r\n        }\r\n\r\n        if (_actualFundsUSD > 2500 && _actualFundsUSD <= 5000) {\r\n            honeypotClass = SMALL_GAME;\r\n        }\r\n\r\n        if (_actualFundsUSD > 5000 && _actualFundsUSD <= 7500) {\r\n            honeypotClass = NORMAL_GAME;\r\n        }\r\n\r\n        if (_actualFundsUSD > 7500 && _actualFundsUSD <= 10000) {\r\n            honeypotClass = BIG_GAME;\r\n        }\r\n\r\n        if (_actualFundsUSD > 10000 && _actualFundsUSD <= 20000) {\r\n            honeypotClass = VERY_BIG_GAME;\r\n        }\r\n\r\n        if (_actualFundsUSD > 20000 && _actualFundsUSD <= 30000) {\r\n            honeypotClass = HUGE_GAME;\r\n        }\r\n\r\n        if (_actualFundsUSD > 30000 && _actualFundsUSD <= 40000) {\r\n            honeypotClass = GREAT_GAME;\r\n        }\r\n\r\n        percentage = HONEYPOT_ALLOCATION_PERCENTAGE_GREAT;\r\n    }\r\n}",
  "sourcePath": "C:\\Users\\Alex\\Desktop\\MyProjects\\contracts\\contracts\\modules\\endowment\\HoneypotAllocationAlgo.sol",
  "compiler": {
    "name": "solc",
    "version": "0.5.17+commit.d19bba13.Emscripten.clang"
  },
  "schemaVersion": "3.0.11",
  "updatedAt": "2020-06-12T15:35:37.149Z",
  "devdoc": {
    "methods": {
      "calculateAllocationToHoneypot()": {
        "details": "calculates the amount of initial ethers and KTYs allocated to a new honeypot upon its generations, based on the amount of available funds in USD",
        "return": "ktyAllocated uint256 the amount of initial KTYs allocated to a honeypotethAllocated uint256 the amount of initial ethers allocated to a honeypothoneypotClass string the name of the class assigned to a honeypot"
      },
      "convertETHtoUSD(uint256)": {
        "details": "Convert funds from ether to USD",
        "params": {
          "_eth": "uint256 the amount of ethers to be converted to USD"
        },
        "return": "_usd uint256 the amount of USD converted from ether"
      },
      "getFinalizeRewards()": {
        "details": "send reward to the user that pressed finalize button"
      },
      "swapEtherForKTY(uint256,address)": {
        "details": "exchange ether for KTY"
      }
    }
  },
  "userdoc": {
    "methods": {
      "setProxy(address)": {
        "notice": "Set/update address of Proxy contract"
      }
    }
  }
}