{
  "contractName": "KaiToCattributesDB",
  "abi": [
    {
      "constant": true,
      "inputs": [
        {
          "internalType": "string",
          "name": "",
          "type": "string"
        },
        {
          "internalType": "bytes1",
          "name": "",
          "type": "bytes1"
        }
      ],
      "name": "cattributes",
      "outputs": [
        {
          "internalType": "string",
          "name": "",
          "type": "string"
        }
      ],
      "payable": false,
      "stateMutability": "view",
      "type": "function"
    },
    {
      "constant": true,
      "inputs": [],
      "name": "owner",
      "outputs": [
        {
          "internalType": "address payable",
          "name": "",
          "type": "address"
        }
      ],
      "payable": false,
      "stateMutability": "view",
      "type": "function"
    },
    {
      "constant": false,
      "inputs": [
        {
          "internalType": "contract ProxyBase",
          "name": "_proxy",
          "type": "address"
        }
      ],
      "name": "setProxy",
      "outputs": [],
      "payable": false,
      "stateMutability": "nonpayable",
      "type": "function"
    },
    {
      "constant": true,
      "inputs": [],
      "name": "proxy",
      "outputs": [
        {
          "internalType": "contract ProxyBase",
          "name": "",
          "type": "address"
        }
      ],
      "payable": false,
      "stateMutability": "view",
      "type": "function"
    },
    {
      "constant": false,
      "inputs": [
        {
          "internalType": "address payable",
          "name": "newOwner",
          "type": "address"
        }
      ],
      "name": "transferOwnership",
      "outputs": [],
      "payable": false,
      "stateMutability": "nonpayable",
      "type": "function"
    },
    {
      "constant": false,
      "inputs": [
        {
          "internalType": "bytes32[]",
          "name": "_cattribute",
          "type": "bytes32[]"
        },
        {
          "internalType": "uint256",
          "name": "_noOfTypes",
          "type": "uint256"
        }
      ],
      "name": "updateCattributes",
      "outputs": [],
      "payable": false,
      "stateMutability": "nonpayable",
      "type": "function"
    }
  ],
  "bytecode": "0x6080604052600060035560006004556040518061014001604052806040518060400160405280600481526020017f626f64790000000000000000000000000000000000000000000000000000000081525081526020016040518060400160405280600781526020017f7061747465726e0000000000000000000000000000000000000000000000000081525081526020016040518060400160405280600981526020017f636f6c6f7265796573000000000000000000000000000000000000000000000081525081526020016040518060400160405280600481526020017f657965730000000000000000000000000000000000000000000000000000000081525081526020016040518060400160405280600681526020017f636f6c6f7231000000000000000000000000000000000000000000000000000081525081526020016040518060400160405280600681526020017f636f6c6f7232000000000000000000000000000000000000000000000000000081525081526020016040518060400160405280600681526020017f636f6c6f7233000000000000000000000000000000000000000000000000000081525081526020016040518060400160405280600481526020017f77696c640000000000000000000000000000000000000000000000000000000081525081526020016040518060400160405280600581526020017f6d6f75746800000000000000000000000000000000000000000000000000000081525081526020016040518060400160405280600b81526020017f656e7669726f6e6d656e74000000000000000000000000000000000000000000815250815250600590600a620002789291906200030d565b506040518060400160405280602081526020017f3132333435363738396162636465666768696a6b6d6e6f707172737475767778815250600f9080519060200190620002c692919062000367565b50336000806101000a81548173ffffffffffffffffffffffffffffffffffffffff021916908373ffffffffffffffffffffffffffffffffffffffff1602179055506200051a565b82600a810192821562000354579160200282015b828111156200035357825182908051906020019062000342929190620003ee565b509160200191906001019062000321565b5b50905062000363919062000475565b5090565b828054600181600116156101000203166002900490600052602060002090601f016020900481019282601f10620003aa57805160ff1916838001178555620003db565b82800160010185558215620003db579182015b82811115620003da578251825591602001919060010190620003bd565b5b509050620003ea9190620004a6565b5090565b828054600181600116156101000203166002900490600052602060002090601f016020900481019282601f106200043157805160ff191683800117855562000462565b8280016001018555821562000462579182015b828111156200046157825182559160200191906001019062000444565b5b509050620004719190620004a6565b5090565b620004a391905b808211156200049f5760008181620004959190620004ce565b506001016200047c565b5090565b90565b620004cb91905b80821115620004c7576000816000905550600101620004ad565b5090565b90565b50805460018160011615610100020316600290046000825580601f10620004f6575062000517565b601f016020900490600052602060002090810190620005169190620004a6565b5b50565b610e04806200052a6000396000f3fe608060405234801561001057600080fd5b50600436106100625760003560e01c80630f240ab4146100675780635a095f47146101c75780638da5cb5b1461028957806397107d6d146102d3578063ec55688914610317578063f2fde38b14610361575b600080fd5b61014c6004803603604081101561007d57600080fd5b810190808035906020019064010000000081111561009a57600080fd5b8201836020820111156100ac57600080fd5b803590602001918460018302840111640100000000831117156100ce57600080fd5b91908080601f016020809104026020016040519081016040528093929190818152602001838380828437600081840152601f19601f82011690508083019250505050505050919291929080357effffffffffffffffffffffffffffffffffffffffffffffffffffffffffffff191690602001909291905050506103a5565b6040518080602001828103825283818151815260200191508051906020019080838360005b8381101561018c578082015181840152602081019050610171565b50505050905090810190601f1680156101b95780820380516001836020036101000a031916815260200191505b509250505060405180910390f35b610287600480360360408110156101dd57600080fd5b81019080803590602001906401000000008111156101fa57600080fd5b82018360208201111561020c57600080fd5b8035906020019184602083028401116401000000008311171561022e57600080fd5b919080806020026020016040519081016040528093929190818152602001838360200280828437600081840152601f19601f82011690508083019250505050505050919291929080359060200190929190505050610478565b005b610291610772565b604051808273ffffffffffffffffffffffffffffffffffffffff1673ffffffffffffffffffffffffffffffffffffffff16815260200191505060405180910390f35b610315600480360360208110156102e957600080fd5b81019080803573ffffffffffffffffffffffffffffffffffffffff169060200190929190505050610797565b005b61031f610831565b604051808273ffffffffffffffffffffffffffffffffffffffff1673ffffffffffffffffffffffffffffffffffffffff16815260200191505060405180910390f35b6103a36004803603602081101561037757600080fd5b81019080803573ffffffffffffffffffffffffffffffffffffffff169060200190929190505050610857565b005b600282805160208101820180518482526020830160208501208183528095505050505050602052806000526040600020600091509150508054600181600116156101000203166002900480601f0160208091040260200160405190810160405280929190818152602001828054600181600116156101000203166002900480156104705780601f1061044557610100808354040283529160200191610470565b820191906000526020600020905b81548152906001019060200180831161045357829003601f168201915b505050505081565b600073ffffffffffffffffffffffffffffffffffffffff163373ffffffffffffffffffffffffffffffffffffffff1614156104af57fe5b6104ed6040518060400160405280600b81526020017f73757065725f61646d696e000000000000000000000000000000000000000000815250610925565b61055f576040517f08c379a00000000000000000000000000000000000000000000000000000000081526004018080602001828103825260108152602001807f4f6e6c792073757065722061646d696e0000000000000000000000000000000081525060200191505060405180910390fd5b600060035490505b816003540181101561075a5760008090505b602081101561074c576105a0846004548151811061059357fe5b6020026020010151610ba1565b6002600584600a81106105af57fe5b01604051808280546001816001161561010002031660029004801561060b5780601f106105e957610100808354040283529182019161060b565b820191906000526020600020905b8154815290600101906020018083116105f7575b5050915050908152602001604051809103902060006106c7600f8054600181600116156101000203166002900480601f0160208091040260200160405190810160405280929190818152602001828054600181600116156101000203166002900480156106b95780601f1061068e576101008083540402835291602001916106b9565b820191906000526020600020905b81548152906001019060200180831161069c57829003601f168201915b505050505085602001610c49565b7effffffffffffffffffffffffffffffffffffffffffffffffffffffffffffff19167effffffffffffffffffffffffffffffffffffffffffffffffffffffffffffff19168152602001908152602001600020908051906020019061072c929190610d2a565b506004600081548092919060010191905055508080600101915050610579565b508080600101915050610567565b50806003540160038190555060006004819055505050565b6000809054906101000a900473ffffffffffffffffffffffffffffffffffffffff1681565b6000809054906101000a900473ffffffffffffffffffffffffffffffffffffffff1673ffffffffffffffffffffffffffffffffffffffff163373ffffffffffffffffffffffffffffffffffffffff16146107ed57fe5b80600160006101000a81548173ffffffffffffffffffffffffffffffffffffffff021916908373ffffffffffffffffffffffffffffffffffffffff16021790555050565b600160009054906101000a900473ffffffffffffffffffffffffffffffffffffffff1681565b6000809054906101000a900473ffffffffffffffffffffffffffffffffffffffff1673ffffffffffffffffffffffffffffffffffffffff163373ffffffffffffffffffffffffffffffffffffffff16146108ad57fe5b600073ffffffffffffffffffffffffffffffffffffffff168173ffffffffffffffffffffffffffffffffffffffff161461092257806000806101000a81548173ffffffffffffffffffffffffffffffffffffffff021916908373ffffffffffffffffffffffffffffffffffffffff1602179055505b50565b6000600160009054906101000a900473ffffffffffffffffffffffffffffffffffffffff1673ffffffffffffffffffffffffffffffffffffffff1663358177736040518060400160405280600681526020017f526f6c65444200000000000000000000000000000000000000000000000000008152506040518263ffffffff1660e01b81526004018080602001828103825283818151815260200191508051906020019080838360005b838110156109ea5780820151818401526020810190506109cf565b50505050905090810190601f168015610a175780820380516001836020036101000a031916815260200191505b509250505060206040518083038186803b158015610a3457600080fd5b505afa158015610a48573d6000803e3d6000fd5b505050506040513d6020811015610a5e57600080fd5b810190808051906020019092919050505073ffffffffffffffffffffffffffffffffffffffff16636c9cd09783610a93610c75565b6040518363ffffffff1660e01b815260040180806020018373ffffffffffffffffffffffffffffffffffffffff1673ffffffffffffffffffffffffffffffffffffffff168152602001828103825284818151815260200191508051906020019080838360005b83811015610b14578082015181840152602081019050610af9565b50505050905090810190601f168015610b415780820380516001836020036101000a031916815260200191505b50935050505060206040518083038186803b158015610b5f57600080fd5b505afa158015610b73573d6000803e3d6000fd5b505050506040513d6020811015610b8957600080fd5b81019080805190602001909291905050509050919050565b60608060206040519080825280601f01601f191660200182016040528015610bd85781602001600182028038833980820191505090505b50905060005b6020811015610c3f57838160208110610bf357fe5b1a60f81b828281518110610c0357fe5b60200101907effffffffffffffffffffffffffffffffffffffffffffffffffffffffffffff1916908160001a9053508080600101915050610bde565b5080915050919050565b60006060839050600081511415610c6757600060f81b915050610c6f565b828401519150505b92915050565b6000600160009054906101000a900473ffffffffffffffffffffffffffffffffffffffff1673ffffffffffffffffffffffffffffffffffffffff163373ffffffffffffffffffffffffffffffffffffffff1614610cd457339050610d27565b6000601436036000602052601481602c37602051915050600073ffffffffffffffffffffffffffffffffffffffff168173ffffffffffffffffffffffffffffffffffffffff161415610d2257fe5b809150505b90565b828054600181600116156101000203166002900490600052602060002090601f016020900481019282601f10610d6b57805160ff1916838001178555610d99565b82800160010185558215610d99579182015b82811115610d98578251825591602001919060010190610d7d565b5b509050610da69190610daa565b5090565b610dcc91905b80821115610dc8576000816000905550600101610db0565b5090565b9056fea265627a7a72315820e0b85e9dd64fca6fa82c4a2424a6950bf10dd698f53325bd72df04c478b78b9a64736f6c634300050b0032",
  "source": "pragma solidity ^0.5.5;\r\n\r\nimport \"../../proxy/Proxied.sol\";\r\nimport \"../../../authority/Guard.sol\";\r\n\r\n/**\r\n * @title This contract is a database storing a gene in kai notation and its corresponding cattribute\r\n * @author @ziweidream @Xale\r\n */\r\n\r\ncontract KaiToCattributesDB is Proxied, Guard {\r\n\r\n    mapping(string => mapping(bytes1 => string)) public cattributes;\r\n\r\n    /**\r\n     * @author @ziweidream @Xale\r\n     * @notice mapping a gene in kai notation to its corresponding cattribute\r\n     * @dev https://github.com/openblockchains/programming-cryptocollectibles/blob/master/02_genereader.md\r\n     * @param _type type of cattributes in small letters\r\n     * @param _kai kai notation of a gene in small letters\r\n     * @param _cattribute the corresponding cattribute of a gene in kai notation, in small letters\r\n     */\r\n\r\n    uint256 j = 0; //How many types already allocated\r\n\r\n    uint cattribute = 0;\r\n\r\n    string[10] types = [\"body\", \"pattern\", \"coloreyes\",\r\n                        \"eyes\", \"color1\", \"color2\", \"color3\",\r\n                        \"wild\", \"mouth\", \"environment\" ];\r\n\r\n    string keys = \"123456789abcdefghijkmnopqrstuvwx\";\r\n\r\n    function updateCattributes(bytes32[] memory _cattribute, uint _noOfTypes)\r\n        public\r\n        onlySuperAdmin\r\n    {   \r\n        for(uint i=j; i<j+_noOfTypes; i++){\r\n            for(uint k=0; k<32; k++){\r\n                cattributes[types[i]][stringToBytes1(keys,32+k)] = bytes32ToStr(_cattribute[cattribute]);\r\n                cattribute ++;\r\n            }\r\n        }\r\n        j = j + _noOfTypes;\r\n        cattribute = 0;\r\n    }\r\n\r\n    function bytes32ToStr(bytes32 _bytes32)\r\n        internal \r\n        returns (string memory)\r\n    {\r\n        bytes memory bytesArray = new bytes(32);\r\n        for (uint256 i; i < 32; i++) {\r\n            bytesArray[i] = _bytes32[i];\r\n        }\r\n        return string(bytesArray);\r\n    }\r\n\r\n    function stringToBytes1(string memory source, uint place) \r\n        internal pure \r\n        returns (bytes1 result) \r\n    {\r\n        bytes memory tempEmptyStringTest = bytes(source);\r\n        if (tempEmptyStringTest.length == 0) {\r\n            return 0x0;\r\n        }\r\n        assembly {\r\n            result := mload(add(source, place))\r\n        }\r\n    }\r\n\r\n}",
  "sourcePath": "C:\\Users\\Alex\\Desktop\\Upwork\\alpha\\contracts\\modules\\algorithm\\RarityCalculationDBs\\KaiToCattributesDB.sol",
  "compiler": {
    "name": "solc",
    "version": "0.5.11+commit.c082d0b4.Emscripten.clang"
  },
  "schemaVersion": "3.0.11",
  "updatedAt": "2019-09-17T12:57:37.519Z",
  "devdoc": {
    "author": "@ziweidream @Xale\r",
    "methods": {},
    "title": "This contract is a database storing a gene in kai notation and its corresponding cattribute\r"
  },
  "userdoc": {
    "methods": {
      "setProxy(address)": {
        "notice": "Set/update address of Proxy contract\r"
      }
    }
  }
}