{
  "contractName": "KaiToCattributesDB",
  "abi": [
    {
      "constant": true,
      "inputs": [
        {
          "internalType": "string",
          "name": "",
          "type": "string"
        },
        {
          "internalType": "bytes1",
          "name": "",
          "type": "bytes1"
        }
      ],
      "name": "cattributes",
      "outputs": [
        {
          "internalType": "string",
          "name": "",
          "type": "string"
        }
      ],
      "payable": false,
      "stateMutability": "view",
      "type": "function"
    },
    {
      "constant": true,
      "inputs": [],
      "name": "owner",
      "outputs": [
        {
          "internalType": "address payable",
          "name": "",
          "type": "address"
        }
      ],
      "payable": false,
      "stateMutability": "view",
      "type": "function"
    },
    {
      "constant": true,
      "inputs": [],
      "name": "proxy",
      "outputs": [
        {
          "internalType": "contract ProxyBase",
          "name": "",
          "type": "address"
        }
      ],
      "payable": false,
      "stateMutability": "view",
      "type": "function"
    },
    {
      "constant": false,
      "inputs": [
        {
          "internalType": "contract ProxyBase",
          "name": "_proxy",
          "type": "address"
        }
      ],
      "name": "setProxy",
      "outputs": [],
      "payable": false,
      "stateMutability": "nonpayable",
      "type": "function"
    },
    {
      "constant": false,
      "inputs": [
        {
          "internalType": "address payable",
          "name": "newOwner",
          "type": "address"
        }
      ],
      "name": "transferOwnership",
      "outputs": [],
      "payable": false,
      "stateMutability": "nonpayable",
      "type": "function"
    },
    {
      "constant": false,
      "inputs": [
        {
          "internalType": "bytes32[]",
          "name": "_cattribute",
          "type": "bytes32[]"
        },
        {
          "internalType": "uint256",
          "name": "_noOfTypes",
          "type": "uint256"
        }
      ],
      "name": "updateCattributes",
      "outputs": [],
      "payable": false,
      "stateMutability": "nonpayable",
      "type": "function"
    }
  ],
  "bytecode": "0x6000600381905560049081556101c081815263626f647960e01b6101e05260809081526007610200908152663830ba3a32b93760c91b6102205260a052600961024090815268636f6c6f726579657360b81b6102605260c052610280828152636579657360e01b6102a05260e05260066102c081815265636f6c6f723160d01b6102e052610100526103008181526531b7b637b91960d11b610320526101205261034090815265636f6c6f723360d01b6103605261014052610380918252631dda5b1960e21b6103a0526101609190915260056103c0818152640dadeeae8d60db1b6103e05261018052610440604052600b6104009081526a195b9d9a5c9bdb9b595b9d60aa1b610420526101a0526200011b91600a62000179565b506040805180820190915260208082527f3132333435363738396162636465666768696a6b6d6e6f7071727374757677789181019182526200016091600f91620001d0565b50600080546001600160a01b03191633179055620002e4565b82600a8101928215620001be579160200282015b82811115620001be5782518051620001ad918491602090910190620001d0565b50916020019190600101906200018d565b50620001cc92915062000251565b5090565b828054600181600116156101000203166002900490600052602060002090601f016020900481019282601f106200021357805160ff191683800117855562000243565b8280016001018555821562000243579182015b828111156200024357825182559160200191906001019062000226565b50620001cc9291506200027c565b6200027991905b80821115620001cc5760006200026f828262000299565b5060010162000258565b90565b6200027991905b80821115620001cc576000815560010162000283565b50805460018160011615610100020316600290046000825580601f10620002c15750620002e1565b601f016020900490600052602060002090810190620002e191906200027c565b50565b6109a180620002f46000396000f3fe608060405234801561001057600080fd5b50600436106100625760003560e01c80630f240ab4146100675780635a095f471461018e5780638da5cb5b1461023557806397107d6d14610259578063ec5568891461027f578063f2fde38b14610287575b600080fd5b6101196004803603604081101561007d57600080fd5b81019060208101813564010000000081111561009857600080fd5b8201836020820111156100aa57600080fd5b803590602001918460018302840111640100000000831117156100cc57600080fd5b91908080601f016020809104026020016040519081016040528093929190818152602001838380828437600092019190915250929550505090356001600160f81b03191691506102ad9050565b6040805160208082528351818301528351919283929083019185019080838360005b8381101561015357818101518382015260200161013b565b50505050905090810190601f1680156101805780820380516001836020036101000a031916815260200191505b509250505060405180910390f35b610233600480360360408110156101a457600080fd5b8101906020810181356401000000008111156101bf57600080fd5b8201836020820111156101d157600080fd5b803590602001918460208302840111640100000000831117156101f357600080fd5b9190808060200260200160405190810160405280939291908181526020018383602002808284376000920191909152509295505091359250610361915050565b005b61023d610581565b604080516001600160a01b039092168252519081900360200190f35b6102336004803603602081101561026f57600080fd5b50356001600160a01b0316610590565b61023d6105c6565b6102336004803603602081101561029d57600080fd5b50356001600160a01b03166105d5565b81516020818401810180516002808352938301958301959095209490529283526000918252604091829020805483516001821615610100026000190190911692909204601f810185900485028301850190935282825290929091908301828280156103595780601f1061032e57610100808354040283529160200191610359565b820191906000526020600020905b81548152906001019060200180831161033c57829003601f168201915b505050505081565b3361036857fe5b6103946040518060400160405280600b81526020016a39bab832b92fb0b236b4b760a91b815250610617565b6103d8576040805162461bcd60e51b815260206004820152601060248201526f27b7363c9039bab832b91030b236b4b760811b604482015290519081900360640190fd5b6003545b816003540181101561056f5760005b602081101561056657610412846004548151811061040557fe5b60200260200101516107f8565b6002600584600a811061042157fe5b01604051808280546001816001161561010002031660029004801561047d5780601f1061045b57610100808354040283529182019161047d565b820191906000526020600020905b815481529060010190602001808311610469575b505092835250506040805160209281900383018120600f805460026001821615610100026000190190911604601f810186900486028401860190945283835290936000936105269392918301828280156105185780601f106104ed57610100808354040283529160200191610518565b820191906000526020600020905b8154815290600101906020018083116104fb57829003601f168201915b50505050508560200161086a565b6001600160f81b0319168152602080820192909252604001600020825161055393919291909101906108d4565b50600480546001908101909155016103eb565b506001016103dc565b50600380549091019055506000600455565b6000546001600160a01b031681565b6000546001600160a01b031633146105a457fe5b600180546001600160a01b0319166001600160a01b0392909216919091179055565b6001546001600160a01b031681565b6000546001600160a01b031633146105e957fe5b6001600160a01b0381161561061457600080546001600160a01b0319166001600160a01b0383161790555b50565b60015460408051808201825260068152652937b632a22160d11b60208083019182529251633581777360e01b8152600481019384528251602482015282516000956001600160a01b0316946335817773949390928392604490910191908083838b5b83811015610691578181015183820152602001610679565b50505050905090810190601f1680156106be5780820380516001836020036101000a031916815260200191505b509250505060206040518083038186803b1580156106db57600080fd5b505afa1580156106ef573d6000803e3d6000fd5b505050506040513d602081101561070557600080fd5b50516001600160a01b0316636c9cd0978361071e61088c565b604080516001600160e01b031960e086901b1681526001600160a01b038316602482015260048101918252835160448201528351829160640190602086019080838360005b8381101561077b578181015183820152602001610763565b50505050905090810190601f1680156107a85780820380516001836020036101000a031916815260200191505b50935050505060206040518083038186803b1580156107c657600080fd5b505afa1580156107da573d6000803e3d6000fd5b505050506040513d60208110156107f057600080fd5b505192915050565b60408051602080825281830190925260609182919060208201818038833901905050905060005b60208110156108635783816020811061083457fe5b1a60f81b82828151811061084457fe5b60200101906001600160f81b031916908160001a90535060010161081f565b5092915050565b8151600090839061087f575060009050610886565b5050818101515b92915050565b6001546000906001600160a01b031633146108a85750336108d1565b6000601436036000602052601481602c3750506020516001600160a01b0381166108ce57fe5b90505b90565b828054600181600116156101000203166002900490600052602060002090601f016020900481019282601f1061091557805160ff1916838001178555610942565b82800160010185558215610942579182015b82811115610942578251825591602001919060010190610927565b5061094e929150610952565b5090565b6108d191905b8082111561094e576000815560010161095856fea265627a7a72315820e9f1ec7253dc75f6081b8f236ec9ba8dbda9ac91ca64e4a9f58fc3841261a2d864736f6c63430005110032",
  "source": "pragma solidity ^0.5.5;\n\nimport \"../../proxy/Proxied.sol\";\nimport \"../../../authority/Guard.sol\";\n\n/**\n * @title This contract is a database storing a gene in kai notation and its corresponding cattribute\n * @author @ziweidream @Xale\n */\n\ncontract KaiToCattributesDB is Proxied, Guard {\n\n    mapping(string => mapping(bytes1 => string)) public cattributes;\n\n    /**\n     * @author @ziweidream @Xale\n     * @notice mapping a gene in kai notation to its corresponding cattribute\n     * @dev https://github.com/openblockchains/programming-cryptocollectibles/blob/master/02_genereader.md\n     * @param _type type of cattributes in small letters\n     * @param _kai kai notation of a gene in small letters\n     * @param _cattribute the corresponding cattribute of a gene in kai notation, in small letters\n     */\n\n    uint256 j = 0; //How many types already allocated\n\n    uint cattribute = 0;\n\n    string[10] types = [\"body\", \"pattern\", \"coloreyes\",\n                        \"eyes\", \"color1\", \"color2\", \"color3\",\n                        \"wild\", \"mouth\", \"environment\" ];\n\n    string keys = \"123456789abcdefghijkmnopqrstuvwx\";\n\n    function updateCattributes(bytes32[] memory _cattribute, uint _noOfTypes)\n        public\n        onlySuperAdmin\n    {   \n        for(uint i=j; i<j+_noOfTypes; i++){\n            for(uint k=0; k<32; k++){\n                cattributes[types[i]][stringToBytes1(keys,32+k)] = bytes32ToStr(_cattribute[cattribute]);\n                cattribute ++;\n            }\n        }\n        j = j + _noOfTypes;\n        cattribute = 0;\n    }\n\n    function bytes32ToStr(bytes32 _bytes32)\n        internal \n        returns (string memory)\n    {\n        bytes memory bytesArray = new bytes(32);\n        for (uint256 i; i < 32; i++) {\n            bytesArray[i] = _bytes32[i];\n        }\n        return string(bytesArray);\n    }\n\n    function stringToBytes1(string memory source, uint place) \n        internal pure \n        returns (bytes1 result) \n    {\n        bytes memory tempEmptyStringTest = bytes(source);\n        if (tempEmptyStringTest.length == 0) {\n            return 0x0;\n        }\n        assembly {\n            result := mload(add(source, place))\n        }\n    }\n\n}",
  "sourcePath": "/Users/ziweizhang/Desktop/kittifight-balancer/contracts/contracts/modules/algorithm/RarityCalculationDBs/KaiToCattributesDB.sol",
  "compiler": {
    "name": "solc",
    "version": "0.5.17+commit.d19bba13.Emscripten.clang"
  },
  "schemaVersion": "3.0.23",
  "updatedAt": "2020-05-30T17:52:58.336Z",
  "devdoc": {
    "author": "@ziweidream @Xale",
    "methods": {},
    "title": "This contract is a database storing a gene in kai notation and its corresponding cattribute"
  },
  "userdoc": {
    "methods": {
      "setProxy(address)": {
        "notice": "Set/update address of Proxy contract"
      }
    }
  }
}