{
  "contractName": "KaiToCattributesDB",
  "abi": [
    {
      "constant": true,
      "inputs": [],
      "name": "owner",
      "outputs": [
        {
          "name": "",
          "type": "address"
        }
      ],
      "payable": false,
      "stateMutability": "view",
      "type": "function"
    },
    {
      "constant": false,
      "inputs": [
        {
          "name": "_proxy",
          "type": "address"
        }
      ],
      "name": "setProxy",
      "outputs": [],
      "payable": false,
      "stateMutability": "nonpayable",
      "type": "function"
    },
    {
      "constant": true,
      "inputs": [
        {
          "name": "",
          "type": "string"
        },
        {
          "name": "",
          "type": "string"
        }
      ],
      "name": "cattributes",
      "outputs": [
        {
          "name": "",
          "type": "string"
        }
      ],
      "payable": false,
      "stateMutability": "view",
      "type": "function"
    },
    {
      "constant": true,
      "inputs": [],
      "name": "proxy",
      "outputs": [
        {
          "name": "",
          "type": "address"
        }
      ],
      "payable": false,
      "stateMutability": "view",
      "type": "function"
    },
    {
      "constant": false,
      "inputs": [
        {
          "name": "newOwner",
          "type": "address"
        }
      ],
      "name": "transferOwnership",
      "outputs": [],
      "payable": false,
      "stateMutability": "nonpayable",
      "type": "function"
    },
    {
      "constant": false,
      "inputs": [
        {
          "name": "_type",
          "type": "string"
        },
        {
          "name": "_kai",
          "type": "string"
        },
        {
          "name": "_cattribute",
          "type": "string"
        }
      ],
      "name": "updateCattributes",
      "outputs": [],
      "payable": false,
      "stateMutability": "nonpayable",
      "type": "function"
    }
  ],
  "bytecode": "0x6080604052336000806101000a81548173ffffffffffffffffffffffffffffffffffffffff021916908373ffffffffffffffffffffffffffffffffffffffff160217905550610997806100536000396000f3fe608060405234801561001057600080fd5b50600436106100625760003560e01c8063790a73c5146100675780638da5cb5b1461025057806397107d6d1461029a578063b030fa28146102de578063ec556889146104a9578063f2fde38b146104f3575b600080fd5b61024e6004803603606081101561007d57600080fd5b810190808035906020019064010000000081111561009a57600080fd5b8201836020820111156100ac57600080fd5b803590602001918460018302840111640100000000831117156100ce57600080fd5b91908080601f016020809104026020016040519081016040528093929190818152602001838380828437600081840152601f19601f8201169050808301925050505050505091929192908035906020019064010000000081111561013157600080fd5b82018360208201111561014357600080fd5b8035906020019184600183028401116401000000008311171561016557600080fd5b91908080601f016020809104026020016040519081016040528093929190818152602001838380828437600081840152601f19601f820116905080830192505050505050509192919290803590602001906401000000008111156101c857600080fd5b8201836020820111156101da57600080fd5b803590602001918460018302840111640100000000831117156101fc57600080fd5b91908080601f016020809104026020016040519081016040528093929190818152602001838380828437600081840152601f19601f820116905080830192505050505050509192919290505050610537565b005b610258610621565b604051808273ffffffffffffffffffffffffffffffffffffffff1673ffffffffffffffffffffffffffffffffffffffff16815260200191505060405180910390f35b6102dc600480360360208110156102b057600080fd5b81019080803573ffffffffffffffffffffffffffffffffffffffff169060200190929190505050610646565b005b61042e600480360360408110156102f457600080fd5b810190808035906020019064010000000081111561031157600080fd5b82018360208201111561032357600080fd5b8035906020019184600183028401116401000000008311171561034557600080fd5b91908080601f016020809104026020016040519081016040528093929190818152602001838380828437600081840152601f19601f820116905080830192505050505050509192919290803590602001906401000000008111156103a857600080fd5b8201836020820111156103ba57600080fd5b803590602001918460018302840111640100000000831117156103dc57600080fd5b91908080601f016020809104026020016040519081016040528093929190818152602001838380828437600081840152601f19601f8201169050808301925050505050505091929192905050506106e0565b6040518080602001828103825283818151815260200191508051906020019080838360005b8381101561046e578082015181840152602081019050610453565b50505050905090810190601f16801561049b5780820380516001836020036101000a031916815260200191505b509250505060405180910390f35b6104b16107c9565b604051808273ffffffffffffffffffffffffffffffffffffffff1673ffffffffffffffffffffffffffffffffffffffff16815260200191505060405180910390f35b6105356004803603602081101561050957600080fd5b81019080803573ffffffffffffffffffffffffffffffffffffffff1690602001909291905050506107ef565b005b806002846040518082805190602001908083835b6020831061056e578051825260208201915060208101905060208303925061054b565b6001836020036101000a0380198251168184511680821785525050505050509050019150509081526020016040518091039020836040518082805190602001908083835b602083106105d557805182526020820191506020810190506020830392506105b2565b6001836020036101000a0380198251168184511680821785525050505050509050019150509081526020016040518091039020908051906020019061061b9291906108bd565b50505050565b6000809054906101000a900473ffffffffffffffffffffffffffffffffffffffff1681565b6000809054906101000a900473ffffffffffffffffffffffffffffffffffffffff1673ffffffffffffffffffffffffffffffffffffffff163373ffffffffffffffffffffffffffffffffffffffff161461069c57fe5b80600160006101000a81548173ffffffffffffffffffffffffffffffffffffffff021916908373ffffffffffffffffffffffffffffffffffffffff16021790555050565b60028280516020810182018051848252602083016020850120818352809550505050505081805160208101820180518482526020830160208501208183528095505050505050600091509150508054600181600116156101000203166002900480601f0160208091040260200160405190810160405280929190818152602001828054600181600116156101000203166002900480156107c15780601f10610796576101008083540402835291602001916107c1565b820191906000526020600020905b8154815290600101906020018083116107a457829003601f168201915b505050505081565b600160009054906101000a900473ffffffffffffffffffffffffffffffffffffffff1681565b6000809054906101000a900473ffffffffffffffffffffffffffffffffffffffff1673ffffffffffffffffffffffffffffffffffffffff163373ffffffffffffffffffffffffffffffffffffffff161461084557fe5b600073ffffffffffffffffffffffffffffffffffffffff168173ffffffffffffffffffffffffffffffffffffffff16146108ba57806000806101000a81548173ffffffffffffffffffffffffffffffffffffffff021916908373ffffffffffffffffffffffffffffffffffffffff1602179055505b50565b828054600181600116156101000203166002900490600052602060002090601f016020900481019282601f106108fe57805160ff191683800117855561092c565b8280016001018555821561092c579182015b8281111561092b578251825591602001919060010190610910565b5b509050610939919061093d565b5090565b61095f91905b8082111561095b576000816000905550600101610943565b5090565b9056fea265627a7a72305820ec4cc7d74d61d8928f9b7a1f104f45f3cb4dff9a31ac897b0609e1b62efdb12564736f6c634300050a0032",
  "source": "pragma solidity ^0.5.5;\n\nimport \"../../proxy/Proxied.sol\";\nimport \"../../../authority/Guard.sol\";\n\n/**\n * @title This contract is a database storing a gene in kai notation and its corresponding cattribute\n * @author @ziweidream\n */\n\ncontract KaiToCattributesDB is Proxied, Guard {\n\n    mapping(string => mapping(string => string)) public cattributes;\n\n    /**\n     * @author @ziweidream\n     * @notice mapping a gene in kai notation to its corresponding cattribute\n     * @dev https://github.com/openblockchains/programming-cryptocollectibles/blob/master/02_genereader.md\n     * @param _type type of cattributes in small letters\n     * @param _kai kai notation of a gene in small letters\n     * @param _cattribute the corresponding cattribute of a gene in kai notation, in small letters\n     */\n    function updateCattributes(string memory _type, string memory _kai, string memory _cattribute)\n        public // temporarily set as public just for truffle test purpose\n        //internal\n        //onlySuperAdmin\n    {\n        cattributes[_type][_kai] = _cattribute;\n    }\n}",
  "sourcePath": "/home/ziwei/Documents/kittieFight-new/algorithm/alpha/contracts/modules/algorithm/RarityCalculationDBs/KaiToCattributesDB.sol",
  "compiler": {
    "name": "solc",
    "version": "0.5.10+commit.5a6ea5b1.Emscripten.clang"
  },
  "schemaVersion": "3.0.11",
  "updatedAt": "2019-08-03T18:50:22.956Z",
  "devdoc": {
    "author": "@ziweidream",
    "methods": {
      "updateCattributes(string,string,string)": {
        "author": "@ziweidream",
        "details": "https://github.com/openblockchains/programming-cryptocollectibles/blob/master/02_genereader.md",
        "params": {
          "_cattribute": "the corresponding cattribute of a gene in kai notation, in small letters",
          "_kai": "kai notation of a gene in small letters",
          "_type": "type of cattributes in small letters"
        }
      }
    },
    "title": "This contract is a database storing a gene in kai notation and its corresponding cattribute"
  },
  "userdoc": {
    "methods": {
      "setProxy(address)": {
        "notice": "Set/update address of Proxy contract"
      },
      "updateCattributes(string,string,string)": {
        "notice": "mapping a gene in kai notation to its corresponding cattribute"
      }
    }
  }
}