{
  "contractName": "KaiValueDB",
  "abi": [
    {
      "constant": true,
      "inputs": [
        {
          "internalType": "string",
          "name": "",
          "type": "string"
        }
      ],
      "name": "kaiValue",
      "outputs": [
        {
          "internalType": "bytes1",
          "name": "",
          "type": "bytes1"
        }
      ],
      "payable": false,
      "stateMutability": "view",
      "type": "function"
    },
    {
      "constant": true,
      "inputs": [],
      "name": "owner",
      "outputs": [
        {
          "internalType": "address payable",
          "name": "",
          "type": "address"
        }
      ],
      "payable": false,
      "stateMutability": "view",
      "type": "function"
    },
    {
      "constant": true,
      "inputs": [],
      "name": "proxy",
      "outputs": [
        {
          "internalType": "contract ProxyBase",
          "name": "",
          "type": "address"
        }
      ],
      "payable": false,
      "stateMutability": "view",
      "type": "function"
    },
    {
      "constant": false,
      "inputs": [
        {
          "internalType": "contract ProxyBase",
          "name": "_proxy",
          "type": "address"
        }
      ],
      "name": "setProxy",
      "outputs": [],
      "payable": false,
      "stateMutability": "nonpayable",
      "type": "function"
    },
    {
      "constant": false,
      "inputs": [
        {
          "internalType": "address payable",
          "name": "newOwner",
          "type": "address"
        }
      ],
      "name": "transferOwnership",
      "outputs": [],
      "payable": false,
      "stateMutability": "nonpayable",
      "type": "function"
    },
    {
      "constant": false,
      "inputs": [],
      "name": "fillKaiValue",
      "outputs": [],
      "payable": false,
      "stateMutability": "nonpayable",
      "type": "function"
    }
  ],
  "bytecode": "0x6080604052336000806101000a81548173ffffffffffffffffffffffffffffffffffffffff021916908373ffffffffffffffffffffffffffffffffffffffff1602179055506117b8806100536000396000f3fe608060405234801561001057600080fd5b50600436106100625760003560e01c80638da5cb5b1461006757806397107d6d146100b1578063bfcfd60b146100f5578063ec556889146100ff578063f2fde38b14610149578063f34305041461018d575b600080fd5b61006f6102a0565b604051808273ffffffffffffffffffffffffffffffffffffffff1673ffffffffffffffffffffffffffffffffffffffff16815260200191505060405180910390f35b6100f3600480360360208110156100c757600080fd5b81019080803573ffffffffffffffffffffffffffffffffffffffff1690602001909291905050506102c5565b005b6100fd61035f565b005b610107611328565b604051808273ffffffffffffffffffffffffffffffffffffffff1673ffffffffffffffffffffffffffffffffffffffff16815260200191505060405180910390f35b61018b6004803603602081101561015f57600080fd5b81019080803573ffffffffffffffffffffffffffffffffffffffff16906020019092919050505061134e565b005b610246600480360360208110156101a357600080fd5b81019080803590602001906401000000008111156101c057600080fd5b8201836020820111156101d257600080fd5b803590602001918460018302840111640100000000831117156101f457600080fd5b91908080601f016020809104026020016040519081016040528093929190818152602001838380828437600081840152601f19601f82011690508083019250505050505050919291929050505061141c565b60405180827effffffffffffffffffffffffffffffffffffffffffffffffffffffffffffff19167effffffffffffffffffffffffffffffffffffffffffffffffffffffffffffff1916815260200191505060405180910390f35b6000809054906101000a900473ffffffffffffffffffffffffffffffffffffffff1681565b6000809054906101000a900473ffffffffffffffffffffffffffffffffffffffff1673ffffffffffffffffffffffffffffffffffffffff163373ffffffffffffffffffffffffffffffffffffffff161461031b57fe5b80600160006101000a81548173ffffffffffffffffffffffffffffffffffffffff021916908373ffffffffffffffffffffffffffffffffffffffff16021790555050565b600073ffffffffffffffffffffffffffffffffffffffff163373ffffffffffffffffffffffffffffffffffffffff16141561039657fe5b6103d46040518060400160405280600b81526020017f73757065725f61646d696e000000000000000000000000000000000000000000815250611452565b610446576040517f08c379a00000000000000000000000000000000000000000000000000000000081526004018080602001828103825260108152602001807f4f6e6c792073757065722061646d696e0000000000000000000000000000000081525060200191505060405180910390fd5b7f3100000000000000000000000000000000000000000000000000000000000000600260405180807f30303030300000000000000000000000000000000000000000000000000000008152506005019050908152602001604051809103902060006101000a81548160ff021916908360f81c02179055507f3200000000000000000000000000000000000000000000000000000000000000600260405180807f30303030310000000000000000000000000000000000000000000000000000008152506005019050908152602001604051809103902060006101000a81548160ff021916908360f81c02179055507f3300000000000000000000000000000000000000000000000000000000000000600260405180807f30303031300000000000000000000000000000000000000000000000000000008152506005019050908152602001604051809103902060006101000a81548160ff021916908360f81c02179055507f3400000000000000000000000000000000000000000000000000000000000000600260405180807f30303031310000000000000000000000000000000000000000000000000000008152506005019050908152602001604051809103902060006101000a81548160ff021916908360f81c02179055507f3500000000000000000000000000000000000000000000000000000000000000600260405180807f30303130300000000000000000000000000000000000000000000000000000008152506005019050908152602001604051809103902060006101000a81548160ff021916908360f81c02179055507f3600000000000000000000000000000000000000000000000000000000000000600260405180807f30303130310000000000000000000000000000000000000000000000000000008152506005019050908152602001604051809103902060006101000a81548160ff021916908360f81c02179055507f3700000000000000000000000000000000000000000000000000000000000000600260405180807f30303131300000000000000000000000000000000000000000000000000000008152506005019050908152602001604051809103902060006101000a81548160ff021916908360f81c02179055507f3800000000000000000000000000000000000000000000000000000000000000600260405180807f30303131310000000000000000000000000000000000000000000000000000008152506005019050908152602001604051809103902060006101000a81548160ff021916908360f81c02179055507f3900000000000000000000000000000000000000000000000000000000000000600260405180807f30313030300000000000000000000000000000000000000000000000000000008152506005019050908152602001604051809103902060006101000a81548160ff021916908360f81c02179055507f6100000000000000000000000000000000000000000000000000000000000000600260405180807f30313030310000000000000000000000000000000000000000000000000000008152506005019050908152602001604051809103902060006101000a81548160ff021916908360f81c02179055507f6200000000000000000000000000000000000000000000000000000000000000600260405180807f30313031300000000000000000000000000000000000000000000000000000008152506005019050908152602001604051809103902060006101000a81548160ff021916908360f81c02179055507f6300000000000000000000000000000000000000000000000000000000000000600260405180807f30313031310000000000000000000000000000000000000000000000000000008152506005019050908152602001604051809103902060006101000a81548160ff021916908360f81c02179055507f6400000000000000000000000000000000000000000000000000000000000000600260405180807f30313130300000000000000000000000000000000000000000000000000000008152506005019050908152602001604051809103902060006101000a81548160ff021916908360f81c02179055507f6500000000000000000000000000000000000000000000000000000000000000600260405180807f30313130310000000000000000000000000000000000000000000000000000008152506005019050908152602001604051809103902060006101000a81548160ff021916908360f81c02179055507f6600000000000000000000000000000000000000000000000000000000000000600260405180807f30313131300000000000000000000000000000000000000000000000000000008152506005019050908152602001604051809103902060006101000a81548160ff021916908360f81c02179055507f6700000000000000000000000000000000000000000000000000000000000000600260405180807f30313131310000000000000000000000000000000000000000000000000000008152506005019050908152602001604051809103902060006101000a81548160ff021916908360f81c02179055507f6800000000000000000000000000000000000000000000000000000000000000600260405180807f31303030300000000000000000000000000000000000000000000000000000008152506005019050908152602001604051809103902060006101000a81548160ff021916908360f81c02179055507f6900000000000000000000000000000000000000000000000000000000000000600260405180807f31303030310000000000000000000000000000000000000000000000000000008152506005019050908152602001604051809103902060006101000a81548160ff021916908360f81c02179055507f6a00000000000000000000000000000000000000000000000000000000000000600260405180807f31303031300000000000000000000000000000000000000000000000000000008152506005019050908152602001604051809103902060006101000a81548160ff021916908360f81c02179055507f6b00000000000000000000000000000000000000000000000000000000000000600260405180807f31303031310000000000000000000000000000000000000000000000000000008152506005019050908152602001604051809103902060006101000a81548160ff021916908360f81c02179055507f6d00000000000000000000000000000000000000000000000000000000000000600260405180807f31303130300000000000000000000000000000000000000000000000000000008152506005019050908152602001604051809103902060006101000a81548160ff021916908360f81c02179055507f6e00000000000000000000000000000000000000000000000000000000000000600260405180807f31303130310000000000000000000000000000000000000000000000000000008152506005019050908152602001604051809103902060006101000a81548160ff021916908360f81c02179055507f6f00000000000000000000000000000000000000000000000000000000000000600260405180807f31303131300000000000000000000000000000000000000000000000000000008152506005019050908152602001604051809103902060006101000a81548160ff021916908360f81c02179055507f7000000000000000000000000000000000000000000000000000000000000000600260405180807f31303131310000000000000000000000000000000000000000000000000000008152506005019050908152602001604051809103902060006101000a81548160ff021916908360f81c02179055507f7100000000000000000000000000000000000000000000000000000000000000600260405180807f31313030300000000000000000000000000000000000000000000000000000008152506005019050908152602001604051809103902060006101000a81548160ff021916908360f81c02179055507f7200000000000000000000000000000000000000000000000000000000000000600260405180807f31313030310000000000000000000000000000000000000000000000000000008152506005019050908152602001604051809103902060006101000a81548160ff021916908360f81c02179055507f7300000000000000000000000000000000000000000000000000000000000000600260405180807f31313031300000000000000000000000000000000000000000000000000000008152506005019050908152602001604051809103902060006101000a81548160ff021916908360f81c02179055507f7400000000000000000000000000000000000000000000000000000000000000600260405180807f31313031310000000000000000000000000000000000000000000000000000008152506005019050908152602001604051809103902060006101000a81548160ff021916908360f81c02179055507f7500000000000000000000000000000000000000000000000000000000000000600260405180807f31313130300000000000000000000000000000000000000000000000000000008152506005019050908152602001604051809103902060006101000a81548160ff021916908360f81c02179055507f7600000000000000000000000000000000000000000000000000000000000000600260405180807f31313130310000000000000000000000000000000000000000000000000000008152506005019050908152602001604051809103902060006101000a81548160ff021916908360f81c02179055507f7700000000000000000000000000000000000000000000000000000000000000600260405180807f31313131300000000000000000000000000000000000000000000000000000008152506005019050908152602001604051809103902060006101000a81548160ff021916908360f81c02179055507f7800000000000000000000000000000000000000000000000000000000000000600260405180807f31313131310000000000000000000000000000000000000000000000000000008152506005019050908152602001604051809103902060006101000a81548160ff021916908360f81c0217905550565b600160009054906101000a900473ffffffffffffffffffffffffffffffffffffffff1681565b6000809054906101000a900473ffffffffffffffffffffffffffffffffffffffff1673ffffffffffffffffffffffffffffffffffffffff163373ffffffffffffffffffffffffffffffffffffffff16146113a457fe5b600073ffffffffffffffffffffffffffffffffffffffff168173ffffffffffffffffffffffffffffffffffffffff161461141957806000806101000a81548173ffffffffffffffffffffffffffffffffffffffff021916908373ffffffffffffffffffffffffffffffffffffffff1602179055505b50565b6002818051602081018201805184825260208301602085012081835280955050505050506000915054906101000a900460f81b81565b6000600160009054906101000a900473ffffffffffffffffffffffffffffffffffffffff1673ffffffffffffffffffffffffffffffffffffffff1663358177736040518060400160405280600681526020017f526f6c65444200000000000000000000000000000000000000000000000000008152506040518263ffffffff1660e01b81526004018080602001828103825283818151815260200191508051906020019080838360005b838110156115175780820151818401526020810190506114fc565b50505050905090810190601f1680156115445780820380516001836020036101000a031916815260200191505b509250505060206040518083038186803b15801561156157600080fd5b505afa158015611575573d6000803e3d6000fd5b505050506040513d602081101561158b57600080fd5b810190808051906020019092919050505073ffffffffffffffffffffffffffffffffffffffff16636c9cd097836115c06116ce565b6040518363ffffffff1660e01b815260040180806020018373ffffffffffffffffffffffffffffffffffffffff1673ffffffffffffffffffffffffffffffffffffffff168152602001828103825284818151815260200191508051906020019080838360005b83811015611641578082015181840152602081019050611626565b50505050905090810190601f16801561166e5780820380516001836020036101000a031916815260200191505b50935050505060206040518083038186803b15801561168c57600080fd5b505afa1580156116a0573d6000803e3d6000fd5b505050506040513d60208110156116b657600080fd5b81019080805190602001909291905050509050919050565b6000600160009054906101000a900473ffffffffffffffffffffffffffffffffffffffff1673ffffffffffffffffffffffffffffffffffffffff163373ffffffffffffffffffffffffffffffffffffffff161461172d57339050611780565b6000601436036000602052601481602c37602051915050600073ffffffffffffffffffffffffffffffffffffffff168173ffffffffffffffffffffffffffffffffffffffff16141561177b57fe5b809150505b9056fea265627a7a72315820ede91d844be843ac37ab36d99320f876c757614137547fbca2cc154b39f678a664736f6c63430005110032",
  "source": "pragma solidity ^0.5.5;\n\nimport \"../../proxy/Proxied.sol\";\nimport \"../../../authority/Guard.sol\";\n\n/**\n * @title This contract is a database stroing a cryptokittie's gene in binary\n * and its correspoinding kai notation\n * @author @ziweidream\n */\n\ncontract KaiValueDB is Proxied, Guard {\n    \n     mapping(string => bytes1) public kaiValue;\n\n     /**\n     * @author @ziweidream\n     * @notice mapping a gene in binary with its kai notation\n     */\n     function fillKaiValue()\n        public\n        onlySuperAdmin\n      {\n        kaiValue['00000'] = \"1\";\n        kaiValue['00001'] = \"2\";\n        kaiValue['00010'] = \"3\";\n        kaiValue['00011'] = \"4\";\n        kaiValue['00100'] = \"5\";\n        kaiValue['00101'] = \"6\";\n        kaiValue['00110'] = \"7\";\n        kaiValue['00111'] = \"8\";\n        kaiValue['01000'] = \"9\";\n        kaiValue['01001'] = \"a\";\n        kaiValue['01010'] = \"b\";\n        kaiValue['01011'] = \"c\";\n        kaiValue['01100'] = \"d\";\n        kaiValue['01101'] = \"e\";\n        kaiValue['01110'] = \"f\";\n        kaiValue['01111'] = \"g\";\n        kaiValue['10000'] = \"h\";\n        kaiValue['10001'] = \"i\";\n        kaiValue['10010'] = \"j\";\n        kaiValue['10011'] = \"k\";\n        kaiValue['10100'] = \"m\";\n        kaiValue['10101'] = \"n\";\n        kaiValue['10110'] = \"o\";\n        kaiValue['10111'] = \"p\";\n        kaiValue['11000'] = \"q\";\n        kaiValue['11001'] = \"r\";\n        kaiValue['11010'] = \"s\";\n        kaiValue['11011'] = \"t\";\n        kaiValue['11100'] = \"u\";\n        kaiValue['11101'] = \"v\";\n        kaiValue['11110'] = \"w\";\n        kaiValue['11111'] = \"x\";\n    \n   }\n}",
  "sourcePath": "/Users/ziweizhang/Desktop/withdrawPool/alpha/contracts/modules/algorithm/RarityCalculationDBs/KaiValueDB.sol",
  "compiler": {
    "name": "solc",
    "version": "0.5.17+commit.d19bba13.Emscripten.clang"
  },
  "schemaVersion": "3.0.23",
  "updatedAt": "2020-04-24T02:20:25.199Z",
  "devdoc": {
    "author": "@ziweidream",
    "methods": {
      "fillKaiValue()": {
        "author": "@ziweidream"
      }
    },
    "title": "This contract is a database stroing a cryptokittie's gene in binary and its correspoinding kai notation"
  },
  "userdoc": {
    "methods": {
      "fillKaiValue()": {
        "notice": "mapping a gene in binary with its kai notation"
      },
      "setProxy(address)": {
        "notice": "Set/update address of Proxy contract"
      }
    }
  }
}