{
  "contractName": "KaiValueDB",
  "abi": [
    {
      "constant": true,
      "inputs": [
        {
          "name": "",
          "type": "string"
        }
      ],
      "name": "kaiValue",
      "outputs": [
        {
          "name": "",
          "type": "string"
        }
      ],
      "payable": false,
      "stateMutability": "view",
      "type": "function"
    },
    {
      "constant": false,
      "inputs": [],
      "name": "fillKaiValue",
      "outputs": [],
      "payable": false,
      "stateMutability": "nonpayable",
      "type": "function"
    }
  ],
  "bytecode": "0x608060405234801561001057600080fd5b5061141b806100206000396000f3fe608060405234801561001057600080fd5b50600436106100365760003560e01c8063bfcfd60b1461003b578063f343050414610045575b600080fd5b610043610179565b005b6100fe6004803603602081101561005b57600080fd5b810190808035906020019064010000000081111561007857600080fd5b82018360208201111561008a57600080fd5b803590602001918460018302840111640100000000831117156100ac57600080fd5b91908080601f016020809104026020016040519081016040528093929190818152602001838380828437600081840152601f19601f82011690508083019250505050505050919291929050505061127b565b6040518080602001828103825283818151815260200191508051906020019080838360005b8381101561013e578082015181840152602081019050610123565b50505050905090810190601f16801561016b5780820380516001836020036101000a031916815260200191505b509250505060405180910390f35b6040518060400160405280600181526020017f3100000000000000000000000000000000000000000000000000000000000000815250600060405180807f3030303030000000000000000000000000000000000000000000000000000000815250600501905090815260200160405180910390209080519060200190610200929190611341565b506040518060400160405280600181526020017f3200000000000000000000000000000000000000000000000000000000000000815250600060405180807f3030303031000000000000000000000000000000000000000000000000000000815250600501905090815260200160405180910390209080519060200190610288929190611341565b506040518060400160405280600181526020017f3300000000000000000000000000000000000000000000000000000000000000815250600060405180807f3030303130000000000000000000000000000000000000000000000000000000815250600501905090815260200160405180910390209080519060200190610310929190611341565b506040518060400160405280600181526020017f3400000000000000000000000000000000000000000000000000000000000000815250600060405180807f3030303131000000000000000000000000000000000000000000000000000000815250600501905090815260200160405180910390209080519060200190610398929190611341565b506040518060400160405280600181526020017f3500000000000000000000000000000000000000000000000000000000000000815250600060405180807f3030313030000000000000000000000000000000000000000000000000000000815250600501905090815260200160405180910390209080519060200190610420929190611341565b506040518060400160405280600181526020017f3600000000000000000000000000000000000000000000000000000000000000815250600060405180807f30303130310000000000000000000000000000000000000000000000000000008152506005019050908152602001604051809103902090805190602001906104a8929190611341565b506040518060400160405280600181526020017f3700000000000000000000000000000000000000000000000000000000000000815250600060405180807f3030313130000000000000000000000000000000000000000000000000000000815250600501905090815260200160405180910390209080519060200190610530929190611341565b506040518060400160405280600181526020017f3800000000000000000000000000000000000000000000000000000000000000815250600060405180807f30303131310000000000000000000000000000000000000000000000000000008152506005019050908152602001604051809103902090805190602001906105b8929190611341565b506040518060400160405280600181526020017f3900000000000000000000000000000000000000000000000000000000000000815250600060405180807f3031303030000000000000000000000000000000000000000000000000000000815250600501905090815260200160405180910390209080519060200190610640929190611341565b506040518060400160405280600181526020017f6100000000000000000000000000000000000000000000000000000000000000815250600060405180807f30313030310000000000000000000000000000000000000000000000000000008152506005019050908152602001604051809103902090805190602001906106c8929190611341565b506040518060400160405280600181526020017f6200000000000000000000000000000000000000000000000000000000000000815250600060405180807f3031303130000000000000000000000000000000000000000000000000000000815250600501905090815260200160405180910390209080519060200190610750929190611341565b506040518060400160405280600181526020017f6300000000000000000000000000000000000000000000000000000000000000815250600060405180807f30313031310000000000000000000000000000000000000000000000000000008152506005019050908152602001604051809103902090805190602001906107d8929190611341565b506040518060400160405280600181526020017f6400000000000000000000000000000000000000000000000000000000000000815250600060405180807f3031313030000000000000000000000000000000000000000000000000000000815250600501905090815260200160405180910390209080519060200190610860929190611341565b506040518060400160405280600181526020017f6500000000000000000000000000000000000000000000000000000000000000815250600060405180807f30313130310000000000000000000000000000000000000000000000000000008152506005019050908152602001604051809103902090805190602001906108e8929190611341565b506040518060400160405280600181526020017f6600000000000000000000000000000000000000000000000000000000000000815250600060405180807f3031313130000000000000000000000000000000000000000000000000000000815250600501905090815260200160405180910390209080519060200190610970929190611341565b506040518060400160405280600181526020017f6700000000000000000000000000000000000000000000000000000000000000815250600060405180807f30313131310000000000000000000000000000000000000000000000000000008152506005019050908152602001604051809103902090805190602001906109f8929190611341565b506040518060400160405280600181526020017f6800000000000000000000000000000000000000000000000000000000000000815250600060405180807f3130303030000000000000000000000000000000000000000000000000000000815250600501905090815260200160405180910390209080519060200190610a80929190611341565b506040518060400160405280600181526020017f6900000000000000000000000000000000000000000000000000000000000000815250600060405180807f3130303031000000000000000000000000000000000000000000000000000000815250600501905090815260200160405180910390209080519060200190610b08929190611341565b506040518060400160405280600181526020017f6a00000000000000000000000000000000000000000000000000000000000000815250600060405180807f3130303130000000000000000000000000000000000000000000000000000000815250600501905090815260200160405180910390209080519060200190610b90929190611341565b506040518060400160405280600181526020017f6b00000000000000000000000000000000000000000000000000000000000000815250600060405180807f3130303131000000000000000000000000000000000000000000000000000000815250600501905090815260200160405180910390209080519060200190610c18929190611341565b506040518060400160405280600181526020017f6d00000000000000000000000000000000000000000000000000000000000000815250600060405180807f3130313030000000000000000000000000000000000000000000000000000000815250600501905090815260200160405180910390209080519060200190610ca0929190611341565b506040518060400160405280600181526020017f6e00000000000000000000000000000000000000000000000000000000000000815250600060405180807f3130313031000000000000000000000000000000000000000000000000000000815250600501905090815260200160405180910390209080519060200190610d28929190611341565b506040518060400160405280600181526020017f6f00000000000000000000000000000000000000000000000000000000000000815250600060405180807f3130313130000000000000000000000000000000000000000000000000000000815250600501905090815260200160405180910390209080519060200190610db0929190611341565b506040518060400160405280600181526020017f7000000000000000000000000000000000000000000000000000000000000000815250600060405180807f3130313131000000000000000000000000000000000000000000000000000000815250600501905090815260200160405180910390209080519060200190610e38929190611341565b506040518060400160405280600181526020017f7100000000000000000000000000000000000000000000000000000000000000815250600060405180807f3131303030000000000000000000000000000000000000000000000000000000815250600501905090815260200160405180910390209080519060200190610ec0929190611341565b506040518060400160405280600181526020017f7200000000000000000000000000000000000000000000000000000000000000815250600060405180807f3131303031000000000000000000000000000000000000000000000000000000815250600501905090815260200160405180910390209080519060200190610f48929190611341565b506040518060400160405280600181526020017f7300000000000000000000000000000000000000000000000000000000000000815250600060405180807f3131303130000000000000000000000000000000000000000000000000000000815250600501905090815260200160405180910390209080519060200190610fd0929190611341565b506040518060400160405280600181526020017f7400000000000000000000000000000000000000000000000000000000000000815250600060405180807f3131303131000000000000000000000000000000000000000000000000000000815250600501905090815260200160405180910390209080519060200190611058929190611341565b506040518060400160405280600181526020017f7500000000000000000000000000000000000000000000000000000000000000815250600060405180807f31313130300000000000000000000000000000000000000000000000000000008152506005019050908152602001604051809103902090805190602001906110e0929190611341565b506040518060400160405280600181526020017f7600000000000000000000000000000000000000000000000000000000000000815250600060405180807f3131313031000000000000000000000000000000000000000000000000000000815250600501905090815260200160405180910390209080519060200190611168929190611341565b506040518060400160405280600181526020017f7700000000000000000000000000000000000000000000000000000000000000815250600060405180807f31313131300000000000000000000000000000000000000000000000000000008152506005019050908152602001604051809103902090805190602001906111f0929190611341565b506040518060400160405280600181526020017f7800000000000000000000000000000000000000000000000000000000000000815250600060405180807f3131313131000000000000000000000000000000000000000000000000000000815250600501905090815260200160405180910390209080519060200190611278929190611341565b50565b6000818051602081018201805184825260208301602085012081835280955050505050506000915090508054600181600116156101000203166002900480601f0160208091040260200160405190810160405280929190818152602001828054600181600116156101000203166002900480156113395780601f1061130e57610100808354040283529160200191611339565b820191906000526020600020905b81548152906001019060200180831161131c57829003601f168201915b505050505081565b828054600181600116156101000203166002900490600052602060002090601f016020900481019282601f1061138257805160ff19168380011785556113b0565b828001600101855582156113b0579182015b828111156113af578251825591602001919060010190611394565b5b5090506113bd91906113c1565b5090565b6113e391905b808211156113df5760008160009055506001016113c7565b5090565b9056fea265627a7a72305820529b9413cb6b71899af722376a39a509ea53173499dbfe519776a9befe6dd8c164736f6c634300050a0032",
  "source": "pragma solidity ^0.5.5;\n\n/**\n * @title This contract is a database stroing a cryptokittie's gene in binary\n * and its correspoinding kai notation\n * @author @ziweidream\n */\n\ncontract KaiValueDB {\n    \n     mapping(string => string) public kaiValue;\n\n     /**\n     * @author @ziweidream\n     * @notice mapping a gene in binary with its kai notation\n     */\n     function fillKaiValue()\n        public // temporarily set as public just for truffle test purpose\n        //internal\n        //onlySuperAdmin\n      {\n        kaiValue['00000'] = '1';\n        kaiValue['00001'] = '2';\n        kaiValue['00010'] = '3';\n        kaiValue['00011'] = '4';\n        kaiValue['00100'] = '5';\n        kaiValue['00101'] = '6';\n        kaiValue['00110'] = '7';\n        kaiValue['00111'] = '8';\n        kaiValue['01000'] = '9';\n        kaiValue['01001'] = 'a';\n        kaiValue['01010'] = 'b';\n        kaiValue['01011'] = 'c';\n        kaiValue['01100'] = 'd';\n        kaiValue['01101'] = 'e';\n        kaiValue['01110'] = 'f';\n        kaiValue['01111'] = 'g';\n        kaiValue['10000'] = 'h';\n        kaiValue['10001'] = 'i';\n        kaiValue['10010'] = 'j';\n        kaiValue['10011'] = 'k';\n        kaiValue['10100'] = 'm';\n        kaiValue['10101'] = 'n';\n        kaiValue['10110'] = 'o';\n        kaiValue['10111'] = 'p';\n        kaiValue['11000'] = 'q';\n        kaiValue['11001'] = 'r';\n        kaiValue['11010'] = 's';\n        kaiValue['11011'] = 't';\n        kaiValue['11100'] = 'u';\n        kaiValue['11101'] = 'v';\n        kaiValue['11110'] = 'w';\n        kaiValue['11111'] = 'x';\n    \n   }\n}",
  "sourcePath": "/home/wafflemakr/Desktop/KittieFight/alpha/contracts/modules/algorithm/RarityCalculationDBs/KaiValueDB.sol",
  "compiler": {
    "name": "solc",
    "version": "0.5.10+commit.5a6ea5b1.Emscripten.clang"
  },
  "schemaVersion": "3.0.11",
  "updatedAt": "2019-08-02T23:07:11.162Z",
  "devdoc": {
    "author": "@ziweidream",
    "methods": {
      "fillKaiValue()": {
        "author": "@ziweidream"
      }
    },
    "title": "This contract is a database stroing a cryptokittie's gene in binary and its correspoinding kai notation"
  },
  "userdoc": {
    "methods": {
      "fillKaiValue()": {
        "notice": "mapping a gene in binary with its kai notation"
      }
    }
  }
}