{
  "contractName": "KaiValueDB",
  "abi": [
    {
      "constant": true,
      "inputs": [
        {
          "internalType": "string",
          "name": "",
          "type": "string"
        }
      ],
      "name": "kaiValue",
      "outputs": [
        {
          "internalType": "bytes1",
          "name": "",
          "type": "bytes1"
        }
      ],
      "payable": false,
      "stateMutability": "view",
      "type": "function"
    },
    {
      "constant": true,
      "inputs": [],
      "name": "owner",
      "outputs": [
        {
          "internalType": "address payable",
          "name": "",
          "type": "address"
        }
      ],
      "payable": false,
      "stateMutability": "view",
      "type": "function"
    },
    {
      "constant": true,
      "inputs": [],
      "name": "proxy",
      "outputs": [
        {
          "internalType": "contract ProxyBase",
          "name": "",
          "type": "address"
        }
      ],
      "payable": false,
      "stateMutability": "view",
      "type": "function"
    },
    {
      "constant": false,
      "inputs": [
        {
          "internalType": "contract ProxyBase",
          "name": "_proxy",
          "type": "address"
        }
      ],
      "name": "setProxy",
      "outputs": [],
      "payable": false,
      "stateMutability": "nonpayable",
      "type": "function"
    },
    {
      "constant": false,
      "inputs": [
        {
          "internalType": "address payable",
          "name": "newOwner",
          "type": "address"
        }
      ],
      "name": "transferOwnership",
      "outputs": [],
      "payable": false,
      "stateMutability": "nonpayable",
      "type": "function"
    },
    {
      "constant": false,
      "inputs": [],
      "name": "fillKaiValue",
      "outputs": [],
      "payable": false,
      "stateMutability": "nonpayable",
      "type": "function"
    }
  ],
  "bytecode": "0x6080604052600080546001600160a01b031916331790556109cb806100256000396000f3fe608060405234801561001057600080fd5b50600436106100625760003560e01c80638da5cb5b1461006757806397107d6d1461008b578063bfcfd60b146100b3578063ec556889146100bb578063f2fde38b146100c3578063f3430504146100e9575b600080fd5b61006f6101ac565b604080516001600160a01b039092168252519081900360200190f35b6100b1600480360360208110156100a157600080fd5b50356001600160a01b03166101bb565b005b6100b16101f1565b61006f6106fc565b6100b1600480360360208110156100d957600080fd5b50356001600160a01b031661070b565b61018f600480360360208110156100ff57600080fd5b81019060208101813564010000000081111561011a57600080fd5b82018360208201111561012c57600080fd5b8035906020019184600183028401116401000000008311171561014e57600080fd5b91908080601f01602080910402602001604051908101604052809392919081815260200183838082843760009201919091525092955061074d945050505050565b604080516001600160f81b03199092168252519081900360200190f35b6000546001600160a01b031681565b6000546001600160a01b031633146101cf57fe5b600180546001600160a01b0319166001600160a01b0392909216919091179055565b336101f857fe5b6102246040518060400160405280600b81526020016a39bab832b92fb0b236b4b760a91b81525061076d565b610268576040805162461bcd60e51b815260206004820152601060248201526f27b7363c9039bab832b91030b236b4b760811b604482015290519081900360640190fd5b6040805164030303030360dc1b815260026005808301829052835160259381900384018120805460ff1990811660311790915564303030303160d81b82528183018490528551918290038501822080548216603217905564030303031360dc1b82528183018490528551918290038501822080548216603317905564303030313160d81b82528183018490528551918290038501822080548216603417905564030303130360dc1b82528183018490528551918290038501822080548216603517905564303031303160d81b82528183018490528551918290038501822080548216603617905564030303131360dc1b82528183018490528551918290038501822080548216603717905564303031313160d81b82528183018490528551918290038501822080548216603817905564030313030360dc1b82528183018490528551918290038501822080548216603917905564303130303160d81b82528183018490528551918290038501822080548216606117905564030313031360dc1b82528183018490528551918290038501822080548216606217905564303130313160d81b82528183018490528551918290038501822080548216606317905564030313130360dc1b82528183018490528551918290038501822080548216606417905564303131303160d81b82528183018490528551918290038501822080548216606517905564030313131360dc1b82528183018490528551918290038501822080548216606617905564303131313160d81b82528183018490528551918290038501822080548216606717905564031303030360dc1b82528183018490528551918290038501822080548216606817905564313030303160d81b82528183018490528551918290038501822080548216606917905564031303031360dc1b82528183018490528551918290038501822080548216606a17905564313030313160d81b82528183018490528551918290038501822080548216606b17905564031303130360dc1b82528183018490528551918290038501822080548216606d17905564313031303160d81b82528183018490528551918290038501822080548216606e17905564031303131360dc1b82528183018490528551918290038501822080548216606f17905564313031313160d81b82528183018490528551918290038501822080548216607017905564031313030360dc1b82528183018490528551918290038501822080548216607117905564313130303160d81b82528183018490528551918290038501822080548216607217905564031313031360dc1b82528183018490528551918290038501822080548216607317905564313130313160d81b82528183018490528551918290038501822080548216607417905564031313130360dc1b82528183018490528551918290038501822080548216607517905564313131303160d81b82528183018490528551918290038501822080548216607617905564031313131360dc1b82528183018490528551918290038501822080548216607717905564313131313160d81b825291810192909252925190819003909101902080549091166078179055565b6001546001600160a01b031681565b6000546001600160a01b0316331461071f57fe5b6001600160a01b0381161561074a57600080546001600160a01b0319166001600160a01b0383161790555b50565b805160208183018101805160028252928201919093012091525460f81b81565b60015460408051808201825260068152652937b632a22160d11b60208083019182529251633581777360e01b8152600481019384528251602482015282516000956001600160a01b0316946335817773949390928392604490910191908083838b5b838110156107e75781810151838201526020016107cf565b50505050905090810190601f1680156108145780820380516001836020036101000a031916815260200191505b509250505060206040518083038186803b15801561083157600080fd5b505afa158015610845573d6000803e3d6000fd5b505050506040513d602081101561085b57600080fd5b50516001600160a01b0316636c9cd0978361087461094e565b604080516001600160e01b031960e086901b1681526001600160a01b038316602482015260048101918252835160448201528351829160640190602086019080838360005b838110156108d15781810151838201526020016108b9565b50505050905090810190601f1680156108fe5780820380516001836020036101000a031916815260200191505b50935050505060206040518083038186803b15801561091c57600080fd5b505afa158015610930573d6000803e3d6000fd5b505050506040513d602081101561094657600080fd5b505192915050565b6001546000906001600160a01b0316331461096a575033610993565b6000601436036000602052601481602c3750506020516001600160a01b03811661099057fe5b90505b9056fea265627a7a72315820de28248b04de80c26ead1993026b65acf56eedc9d59dfaaae14d4f636871b65064736f6c63430005110032",
  "source": "pragma solidity ^0.5.5;\n\nimport \"../../proxy/Proxied.sol\";\nimport \"../../../authority/Guard.sol\";\n\n/**\n * @title This contract is a database stroing a cryptokittie's gene in binary\n * and its correspoinding kai notation\n * @author @ziweidream\n */\n\ncontract KaiValueDB is Proxied, Guard {\n    \n     mapping(string => bytes1) public kaiValue;\n\n     /**\n     * @author @ziweidream\n     * @notice mapping a gene in binary with its kai notation\n     */\n     function fillKaiValue()\n        public\n        onlySuperAdmin\n      {\n        kaiValue['00000'] = \"1\";\n        kaiValue['00001'] = \"2\";\n        kaiValue['00010'] = \"3\";\n        kaiValue['00011'] = \"4\";\n        kaiValue['00100'] = \"5\";\n        kaiValue['00101'] = \"6\";\n        kaiValue['00110'] = \"7\";\n        kaiValue['00111'] = \"8\";\n        kaiValue['01000'] = \"9\";\n        kaiValue['01001'] = \"a\";\n        kaiValue['01010'] = \"b\";\n        kaiValue['01011'] = \"c\";\n        kaiValue['01100'] = \"d\";\n        kaiValue['01101'] = \"e\";\n        kaiValue['01110'] = \"f\";\n        kaiValue['01111'] = \"g\";\n        kaiValue['10000'] = \"h\";\n        kaiValue['10001'] = \"i\";\n        kaiValue['10010'] = \"j\";\n        kaiValue['10011'] = \"k\";\n        kaiValue['10100'] = \"m\";\n        kaiValue['10101'] = \"n\";\n        kaiValue['10110'] = \"o\";\n        kaiValue['10111'] = \"p\";\n        kaiValue['11000'] = \"q\";\n        kaiValue['11001'] = \"r\";\n        kaiValue['11010'] = \"s\";\n        kaiValue['11011'] = \"t\";\n        kaiValue['11100'] = \"u\";\n        kaiValue['11101'] = \"v\";\n        kaiValue['11110'] = \"w\";\n        kaiValue['11111'] = \"x\";\n    \n   }\n}",
  "sourcePath": "/Users/ziweizhang/Desktop/kittifight-balancer/contracts/contracts/modules/algorithm/RarityCalculationDBs/KaiValueDB.sol",
  "compiler": {
    "name": "solc",
    "version": "0.5.17+commit.d19bba13.Emscripten.clang"
  },
  "schemaVersion": "3.0.23",
  "updatedAt": "2020-05-30T17:52:58.340Z",
  "devdoc": {
    "author": "@ziweidream",
    "methods": {
      "fillKaiValue()": {
        "author": "@ziweidream"
      }
    },
    "title": "This contract is a database stroing a cryptokittie's gene in binary and its correspoinding kai notation"
  },
  "userdoc": {
    "methods": {
      "fillKaiValue()": {
        "notice": "mapping a gene in binary with its kai notation"
      },
      "setProxy(address)": {
        "notice": "Set/update address of Proxy contract"
      }
    }
  }
}