{
  "contractName": "KFProxy",
  "abi": [
    {
      "anonymous": false,
      "inputs": [],
      "name": "CronJobExecutionFailed",
      "type": "event"
    },
    {
      "payable": false,
      "stateMutability": "nonpayable",
      "type": "fallback"
    },
    {
      "constant": false,
      "inputs": [
        {
          "internalType": "string",
          "name": "name",
          "type": "string"
        },
        {
          "internalType": "address",
          "name": "contractAddress",
          "type": "address"
        }
      ],
      "name": "addContract",
      "outputs": [],
      "payable": false,
      "stateMutability": "nonpayable",
      "type": "function"
    },
    {
      "constant": true,
      "inputs": [],
      "name": "addressOfBetting",
      "outputs": [
        {
          "internalType": "address",
          "name": "",
          "type": "address"
        }
      ],
      "payable": false,
      "stateMutability": "view",
      "type": "function"
    },
    {
      "constant": true,
      "inputs": [],
      "name": "addressOfCronJob",
      "outputs": [
        {
          "internalType": "address",
          "name": "",
          "type": "address"
        }
      ],
      "payable": false,
      "stateMutability": "view",
      "type": "function"
    },
    {
      "constant": true,
      "inputs": [],
      "name": "addressOfDistribution",
      "outputs": [
        {
          "internalType": "address",
          "name": "",
          "type": "address"
        }
      ],
      "payable": false,
      "stateMutability": "view",
      "type": "function"
    },
    {
      "constant": true,
      "inputs": [],
      "name": "addressOfEarningsTracker",
      "outputs": [
        {
          "internalType": "address",
          "name": "",
          "type": "address"
        }
      ],
      "payable": false,
      "stateMutability": "view",
      "type": "function"
    },
    {
      "constant": true,
      "inputs": [],
      "name": "addressOfEndowmentDB",
      "outputs": [
        {
          "internalType": "address",
          "name": "",
          "type": "address"
        }
      ],
      "payable": false,
      "stateMutability": "view",
      "type": "function"
    },
    {
      "constant": true,
      "inputs": [],
      "name": "addressOfEndowmentFund",
      "outputs": [
        {
          "internalType": "address",
          "name": "",
          "type": "address"
        }
      ],
      "payable": false,
      "stateMutability": "view",
      "type": "function"
    },
    {
      "constant": true,
      "inputs": [],
      "name": "addressOfForfeiter",
      "outputs": [
        {
          "internalType": "address",
          "name": "",
          "type": "address"
        }
      ],
      "payable": false,
      "stateMutability": "view",
      "type": "function"
    },
    {
      "constant": true,
      "inputs": [],
      "name": "addressOfGMGetterDB",
      "outputs": [
        {
          "internalType": "address",
          "name": "",
          "type": "address"
        }
      ],
      "payable": false,
      "stateMutability": "view",
      "type": "function"
    },
    {
      "constant": true,
      "inputs": [],
      "name": "addressOfGMSetterDB",
      "outputs": [
        {
          "internalType": "address",
          "name": "",
          "type": "address"
        }
      ],
      "payable": false,
      "stateMutability": "view",
      "type": "function"
    },
    {
      "constant": true,
      "inputs": [],
      "name": "addressOfGameManager",
      "outputs": [
        {
          "internalType": "address",
          "name": "",
          "type": "address"
        }
      ],
      "payable": false,
      "stateMutability": "view",
      "type": "function"
    },
    {
      "constant": true,
      "inputs": [],
      "name": "addressOfGameVarAndFee",
      "outputs": [
        {
          "internalType": "address",
          "name": "",
          "type": "address"
        }
      ],
      "payable": false,
      "stateMutability": "view",
      "type": "function"
    },
    {
      "constant": true,
      "inputs": [],
      "name": "addressOfHitsResolve",
      "outputs": [
        {
          "internalType": "address",
          "name": "",
          "type": "address"
        }
      ],
      "payable": false,
      "stateMutability": "view",
      "type": "function"
    },
    {
      "constant": true,
      "inputs": [],
      "name": "addressOfHoneypotAllocationAlgo",
      "outputs": [
        {
          "internalType": "address",
          "name": "",
          "type": "address"
        }
      ],
      "payable": false,
      "stateMutability": "view",
      "type": "function"
    },
    {
      "constant": true,
      "inputs": [],
      "name": "addressOfKittieHell",
      "outputs": [
        {
          "internalType": "address",
          "name": "",
          "type": "address"
        }
      ],
      "payable": false,
      "stateMutability": "view",
      "type": "function"
    },
    {
      "constant": true,
      "inputs": [],
      "name": "addressOfKittieHellDB",
      "outputs": [
        {
          "internalType": "address",
          "name": "",
          "type": "address"
        }
      ],
      "payable": false,
      "stateMutability": "view",
      "type": "function"
    },
    {
      "constant": true,
      "inputs": [],
      "name": "addressOfProfileDB",
      "outputs": [
        {
          "internalType": "address",
          "name": "",
          "type": "address"
        }
      ],
      "payable": false,
      "stateMutability": "view",
      "type": "function"
    },
    {
      "constant": true,
      "inputs": [],
      "name": "addressOfRarityCalculator",
      "outputs": [
        {
          "internalType": "address",
          "name": "",
          "type": "address"
        }
      ],
      "payable": false,
      "stateMutability": "view",
      "type": "function"
    },
    {
      "constant": true,
      "inputs": [],
      "name": "addressOfRegister",
      "outputs": [
        {
          "internalType": "address",
          "name": "",
          "type": "address"
        }
      ],
      "payable": false,
      "stateMutability": "view",
      "type": "function"
    },
    {
      "constant": true,
      "inputs": [],
      "name": "addressOfRoleDB",
      "outputs": [
        {
          "internalType": "address",
          "name": "",
          "type": "address"
        }
      ],
      "payable": false,
      "stateMutability": "view",
      "type": "function"
    },
    {
      "constant": true,
      "inputs": [],
      "name": "addressOfScheduler",
      "outputs": [
        {
          "internalType": "address",
          "name": "",
          "type": "address"
        }
      ],
      "payable": false,
      "stateMutability": "view",
      "type": "function"
    },
    {
      "constant": true,
      "inputs": [],
      "name": "addressOfTimeContract",
      "outputs": [
        {
          "internalType": "address",
          "name": "",
          "type": "address"
        }
      ],
      "payable": false,
      "stateMutability": "view",
      "type": "function"
    },
    {
      "constant": true,
      "inputs": [],
      "name": "addressOfTimeFrame",
      "outputs": [
        {
          "internalType": "address",
          "name": "",
          "type": "address"
        }
      ],
      "payable": false,
      "stateMutability": "view",
      "type": "function"
    },
    {
      "constant": true,
      "inputs": [],
      "name": "addressOfWithdrawPool",
      "outputs": [
        {
          "internalType": "address",
          "name": "",
          "type": "address"
        }
      ],
      "payable": false,
      "stateMutability": "view",
      "type": "function"
    },
    {
      "constant": false,
      "inputs": [
        {
          "internalType": "uint256",
          "name": "jobId",
          "type": "uint256"
        }
      ],
      "name": "executeJob",
      "outputs": [
        {
          "internalType": "bytes",
          "name": "",
          "type": "bytes"
        }
      ],
      "payable": false,
      "stateMutability": "nonpayable",
      "type": "function"
    },
    {
      "constant": false,
      "inputs": [],
      "name": "executeScheduledJobs",
      "outputs": [],
      "payable": false,
      "stateMutability": "nonpayable",
      "type": "function"
    },
    {
      "constant": true,
      "inputs": [
        {
          "internalType": "string",
          "name": "name",
          "type": "string"
        }
      ],
      "name": "getContract",
      "outputs": [
        {
          "internalType": "address",
          "name": "",
          "type": "address"
        }
      ],
      "payable": false,
      "stateMutability": "view",
      "type": "function"
    },
    {
      "constant": true,
      "inputs": [
        {
          "internalType": "bytes32[]",
          "name": "nameHashes",
          "type": "bytes32[]"
        }
      ],
      "name": "getContracts",
      "outputs": [
        {
          "internalType": "address[]",
          "name": "",
          "type": "address[]"
        }
      ],
      "payable": false,
      "stateMutability": "view",
      "type": "function"
    },
    {
      "constant": true,
      "inputs": [],
      "name": "maxJobsForOneRun",
      "outputs": [
        {
          "internalType": "uint256",
          "name": "",
          "type": "uint256"
        }
      ],
      "payable": false,
      "stateMutability": "view",
      "type": "function"
    },
    {
      "constant": true,
      "inputs": [],
      "name": "owner",
      "outputs": [
        {
          "internalType": "address payable",
          "name": "",
          "type": "address"
        }
      ],
      "payable": false,
      "stateMutability": "view",
      "type": "function"
    },
    {
      "constant": false,
      "inputs": [
        {
          "internalType": "string",
          "name": "name",
          "type": "string"
        }
      ],
      "name": "removeContract",
      "outputs": [],
      "payable": false,
      "stateMutability": "nonpayable",
      "type": "function"
    },
    {
      "constant": false,
      "inputs": [
        {
          "internalType": "uint256",
          "name": "_maxJobsForOneRun",
          "type": "uint256"
        }
      ],
      "name": "setMaxJobsForOneRun",
      "outputs": [],
      "payable": false,
      "stateMutability": "nonpayable",
      "type": "function"
    },
    {
      "constant": false,
      "inputs": [
        {
          "internalType": "address payable",
          "name": "newOwner",
          "type": "address"
        }
      ],
      "name": "transferOwnership",
      "outputs": [],
      "payable": false,
      "stateMutability": "nonpayable",
      "type": "function"
    },
    {
      "constant": false,
      "inputs": [
        {
          "internalType": "string",
          "name": "name",
          "type": "string"
        },
        {
          "internalType": "address",
          "name": "contractAddress",
          "type": "address"
        }
      ],
      "name": "updateContract",
      "outputs": [],
      "payable": false,
      "stateMutability": "nonpayable",
      "type": "function"
    },
    {
      "constant": false,
      "inputs": [],
      "name": "initialize",
      "outputs": [],
      "payable": false,
      "stateMutability": "nonpayable",
      "type": "function"
    },
    {
      "constant": false,
      "inputs": [
        {
          "internalType": "string",
          "name": "contractName",
          "type": "string"
        },
        {
          "internalType": "bytes",
          "name": "payload",
          "type": "bytes"
        }
      ],
      "name": "execute",
      "outputs": [
        {
          "internalType": "bytes",
          "name": "",
          "type": "bytes"
        }
      ],
      "payable": true,
      "stateMutability": "payable",
      "type": "function"
    }
  ],
  "bytecode": "0x60806040526002603555603380546001600160a01b03191633179055611e1b8061002a6000396000f3fe60806040526004361061020f5760003560e01c80638da5cb5b11610118578063bf5b6016116100a0578063ee71227f1161006f578063ee71227f1461095d578063eed9c25b14610972578063f2fde38b14610987578063f6df25d5146109ba578063fcc47c4f146109cf5761020f565b8063bf5b601614610862578063c5ed75bb1461091e578063d3b12c1514610933578063d83be917146109485761020f565b8063968f1412116100e7578063968f14121461074857806397623b58146107725780639a087b9714610823578063a0d1170b14610838578063beb9eb0b1461084d5761020f565b80638da5cb5b146106f45780638e771e79146107095780638ec82c8a1461071e57806393812d20146107335761020f565b80634880df0e1161019b5780635c7571251161016a5780635c757125146105d2578063658d7476146105e7578063697a60b31461060e5780638129fc1c146106ca57806384d67617146106df5761020f565b80634880df0e146104b3578063492e46921461057e5780634e7f067b1461059357806358838def146105a85761020f565b8063348c6019116101e2578063348c6019146103ae57806335817773146103c35780633bdc5a5d1461047457806342febb6914610489578063462d46f61461049e5761020f565b806320331d0f1461021e57806320ba59101461024f578063229320ca146102645780633185048214610397575b34801561021b57600080fd5b50005b34801561022a57600080fd5b506102336109e4565b604080516001600160a01b039092168252519081900360200190f35b34801561025b57600080fd5b50610233610a15565b6103226004803603604081101561027a57600080fd5b810190602081018135600160201b81111561029457600080fd5b8201836020820111156102a657600080fd5b803590602001918460018302840111600160201b831117156102c757600080fd5b919390929091602081019035600160201b8111156102e457600080fd5b8201836020820111156102f657600080fd5b803590602001918460018302840111600160201b8311171561031757600080fd5b509092509050610a3f565b6040805160208082528351818301528351919283929083019185019080838360005b8381101561035c578181015183820152602001610344565b50505050905090810190601f1680156103895780820380516001836020036101000a031916815260200191505b509250505060405180910390f35b3480156103a357600080fd5b506103ac610c8c565b005b3480156103ba57600080fd5b50610233610f0f565b3480156103cf57600080fd5b50610233600480360360208110156103e657600080fd5b810190602081018135600160201b81111561040057600080fd5b82018360208201111561041257600080fd5b803590602001918460018302840111600160201b8311171561043357600080fd5b91908080601f016020809104026020016040519081016040528093929190818152602001838380828437600092019190915250929550610f44945050505050565b34801561048057600080fd5b506102336110b4565b34801561049557600080fd5b506102336110e6565b3480156104aa57600080fd5b50610233611113565b3480156104bf57600080fd5b5061052e600480360360208110156104d657600080fd5b810190602081018135600160201b8111156104f057600080fd5b82018360208201111561050257600080fd5b803590602001918460208302840111600160201b8311171561052357600080fd5b509092509050611143565b60408051602080825283518183015283519192839290830191858101910280838360005b8381101561056a578181015183820152602001610552565b505050509050019250505060405180910390f35b34801561058a57600080fd5b506102336111ee565b34801561059f57600080fd5b50610233611221565b3480156105b457600080fd5b50610322600480360360208110156105cb57600080fd5b5035611250565b3480156105de57600080fd5b50610233611624565b3480156105f357600080fd5b506105fc611650565b60408051918252519081900360200190f35b34801561061a57600080fd5b506103ac6004803603604081101561063157600080fd5b810190602081018135600160201b81111561064b57600080fd5b82018360208201111561065d57600080fd5b803590602001918460018302840111600160201b8311171561067e57600080fd5b91908080601f016020809104026020016040519081016040528093929190818152602001838380828437600092019190915250929550505090356001600160a01b031691506116569050565b3480156106d657600080fd5b506103ac61170e565b3480156106eb57600080fd5b506102336117b0565b34801561070057600080fd5b506102336117df565b34801561071557600080fd5b506102336117ee565b34801561072a57600080fd5b50610233611817565b34801561073f57600080fd5b50610233611845565b34801561075457600080fd5b506103ac6004803603602081101561076b57600080fd5b5035611871565b34801561077e57600080fd5b506103ac6004803603602081101561079557600080fd5b810190602081018135600160201b8111156107af57600080fd5b8201836020820111156107c157600080fd5b803590602001918460018302840111600160201b831117156107e257600080fd5b91908080601f016020809104026020016040519081016040528093929190818152602001838380828437600092019190915250929550611897945050505050565b34801561082f57600080fd5b5061023361193f565b34801561084457600080fd5b5061023361196b565b34801561085957600080fd5b5061023361199a565b34801561086e57600080fd5b506103ac6004803603604081101561088557600080fd5b810190602081018135600160201b81111561089f57600080fd5b8201836020820111156108b157600080fd5b803590602001918460018302840111600160201b831117156108d257600080fd5b91908080601f016020809104026020016040519081016040528093929190818152602001838380828437600092019190915250929550505090356001600160a01b031691506119c79050565b34801561092a57600080fd5b50610233611a96565b34801561093f57600080fd5b50610233611ac0565b34801561095457600080fd5b50610233611aed565b34801561096957600080fd5b50610233611b1c565b34801561097e57600080fd5b50610233611b4a565b34801561099357600080fd5b506103ac600480360360208110156109aa57600080fd5b50356001600160a01b0316611b75565b3480156109c657600080fd5b50610233611bb8565b3480156109db57600080fd5b50610233611be6565b6000610a106040518060400160405280600981526020016854696d654672616d6560b81b815250610f44565b905090565b6000610a106040518060400160405280600781526020016642657474696e6760c81b815250610f44565b60606000610a6e6040518060400160405280600a815260200169467265657a65496e666f60b01b815250610f44565b9050806001600160a01b031663054f7d9c6040518163ffffffff1660e01b815260040160206040518083038186803b158015610aa957600080fd5b505afa158015610abd573d6000803e3d6000fd5b505050506040513d6020811015610ad357600080fd5b505115610b1a576040805162461bcd60e51b815260206004820152601060248201526f29bcb9ba32b69034b990333937bd32b760811b604482015290519081900360640190fd5b6000610b5b87878080601f016020809104026020016040519081016040528093929190818152602001838380828437600092019190915250610f4492505050565b6040805160148701808252601f196033890116820160200190925291925085916060918015610b91576020820181803883390190505b5090506014820181013381526014830182526020602460203760046020510160208301915083602082018337505060006060846001600160a01b031634846040518082805190602001908083835b60208310610bfe5780518252601f199092019160209182019101610bdf565b6001836020036101000a03801982511681845116808217855250505050505090500191505060006040518083038185875af1925050503d8060008114610c60576040519150601f19603f3d011682016040523d82523d6000602084013e610c65565b606091505b509150915081610c76578060208201fd5b610c7e611c16565b9a9950505050505050505050565b6000610cb86040518060400160405280600981526020016823b2b732b934b1a22160b91b815250610f44565b60408051808201825260068152652937b632a22160d11b602080830191825283516430b236b4b760d91b8183015233606090811b6025830152855160198184030181526039830187528051930192909220607d8201819052605d82019586528451609d830152845196975060009692956001600160a01b038916959491939092839260bd909101918083838c5b83811015610d5d578181015183820152602001610d45565b50505050905090810190601f168015610d8a5780820380516001836020036101000a031916815260200191505b5060408051601f198184030181529181526020820180516001600160e01b0316631c58c8bb60e01b17815290518251929650945084935091508083835b60208310610de65780518252601f199092019160209182019101610dc7565b6001836020036101000a038019825116818451168082178552505050505050905001915050600060405180830381855afa9150503d8060008114610e46576040519150601f19603f3d011682016040523d82523d6000602084013e610e4b565b606091505b509150915081610e98576040805162461bcd60e51b81526020600482015260136024820152724661696c656420746f206c6f616420726f6c6560681b604482015290519081900360640190fd5b6000818060200190516020811015610eaf57600080fd5b5051905080610f01576040805162461bcd60e51b815260206004820152601960248201527829b2b73232b9103430b9903a379031329030b71030b236b4b760391b604482015290519081900360640190fd5b610f09611c16565b50505050565b6000610a1060405180604001604052806016815260200175486f6e6579706f74416c6c6f636174696f6e416c676f60501b8152505b80516020808301919091206000818152603490925260408220546001600160a01b03166110965760608360405160200180807f436f6e7472616374206e6f7420726567697374657265643a200000000000000081525060190182805190602001908083835b60208310610fc85780518252601f199092019160209182019101610fa9565b51815160209384036101000a60001901801990921691161790526040805192909401828103601f19018352938490526024840181815282516044860152825192965094508493606401925085019080838360005b8381101561103457818101518382015260200161101c565b50505050905090810190601f1680156110615780820380516001836020036101000a031916815260200191505b5060408051601f198184030181529190526020810180516001600160e01b031662461bcd60e51b178152909450849350915050fd5b6000908152603460205260409020546001600160a01b031692915050565b6000610a106040518060400160405280600f81526020016e22b0b93734b733b9aa3930b1b5b2b960891b815250610f44565b6000610a106040518060400160405280600a81526020016912da5d1d1a5952195b1b60b21b815250610f44565b6000610a106040518060400160405280600d81526020016c47616d65566172416e6446656560981b815250610f44565b60608083839050604051908082528060200260200182016040528015611173578160200160208202803883390190505b50905060005b838110156111e6576034600086868481811061119157fe5b90506020020135815260200190815260200160002060009054906101000a90046001600160a01b03168282815181106111c657fe5b6001600160a01b0390921660209283029190910190910152600101611179565b509392505050565b6000610a106040518060400160405280601081526020016f2930b934ba3ca1b0b631bab630ba37b960811b815250610f44565b6000610a106040518060400160405280600c81526020016b151a5b5950dbdb9d1c9858dd60a21b815250610f44565b6060600061127e6040518060400160405280600981526020016823b2b732b934b1a22160b91b815250610f44565b60408051808201825260068152652937b632a22160d11b602080830191825283516430b236b4b760d91b8183015233606090811b6025830152855160198184030181526039830187528051930192909220607d8201819052605d82019586528451609d830152845196975060009692956001600160a01b038916959491939092839260bd909101918083838c5b8381101561132357818101518382015260200161130b565b50505050905090810190601f1680156113505780820380516001836020036101000a031916815260200191505b5060408051601f198184030181529181526020820180516001600160e01b0316631c58c8bb60e01b17815290518251929650945084935091508083835b602083106113ac5780518252601f19909201916020918201910161138d565b6001836020036101000a038019825116818451168082178552505050505050905001915050600060405180830381855afa9150503d806000811461140c576040519150601f19603f3d011682016040523d82523d6000602084013e611411565b606091505b50915091508161145e576040805162461bcd60e51b81526020600482015260136024820152724661696c656420746f206c6f616420726f6c6560681b604482015290519081900360640190fd5b600081806020019051602081101561147557600080fd5b50519050806114c7576040805162461bcd60e51b815260206004820152601960248201527829b2b73232b9103430b9903a379031329030b71030b236b4b760391b604482015290519081900360640190fd5b60006114f16040518060400160405280600781526020016621b937b72537b160c91b815250610f44565b6040805160248082018b905282518083039091018152604490910182526020810180516001600160e01b03166358838def60e01b178152915181519394506001600160a01b03851693919290918291908083835b602083106115645780518252601f199092019160209182019101611545565b6001836020036101000a0380198251168184511680821785525050505050509050019150506000604051808303816000865af19150503d80600081146115c6576040519150601f19603f3d011682016040523d82523d6000602084013e6115cb565b606091505b50909450925083611619576040805162461bcd60e51b8152602060048201526013602482015272115e1958dd5d194818d85b1b0819985a5b1959606a1b604482015290519081900360640190fd5b509095945050505050565b6000610a1060405180604001604052806009815260200168283937b334b632a22160b91b815250610f44565b60355481565b6033546001600160a01b0316331461166a57fe5b8151602080840191909120600081815260349092526040909120546001600160a01b03166116df576040805162461bcd60e51b815260206004820181905260248201527f4e6f20636f6e747261637420776974682074686973206e616d6520666f756e64604482015290519081900360640190fd5b600090815260346020526040902080546001600160a01b0319166001600160a01b039290921691909117905550565b600054610100900460ff16806117275750611727611d8d565b80611735575060005460ff16155b6117705760405162461bcd60e51b815260040180806020018281038252602e815260200180611db9602e913960400191505060405180910390fd5b600054610100900460ff1615801561179b576000805460ff1961ff0019909116610100171660011790555b80156117ad576000805461ff00191690555b50565b6000610a106040518060400160405280600c81526020016b25b4ba3a34b2a432b636222160a11b815250610f44565b6033546001600160a01b031681565b6000610a10604051806040016040528060068152602001652937b632a22160d11b815250610f44565b6000610a106040518060400160405280600b81526020016a486974735265736f6c766560a81b815250610f44565b6000610a106040518060400160405280600981526020016829b1b432b23ab632b960b91b815250610f44565b6033546001600160a01b0316331461188557fe5b6000811161189257600080fd5b603555565b6033546001600160a01b031633146118ab57fe5b8051602080830191909120600081815260349092526040909120546001600160a01b0316611920576040805162461bcd60e51b815260206004820181905260248201527f4e6f20636f6e747261637420776974682074686973206e616d6520666f756e64604482015290519081900360640190fd5b600090815260346020526040902080546001600160a01b031916905550565b6000610a10604051806040016040528060098152602001682337b93332b4ba32b960b91b815250610f44565b6000610a106040518060400160405280600c81526020016b2234b9ba3934b13aba34b7b760a11b815250610f44565b6000610a106040518060400160405280600a81526020016923a6a9b2ba3a32b9222160b11b815250610f44565b6033546001600160a01b031633146119db57fe5b6001600160a01b038116611a36576040805162461bcd60e51b815260206004820181905260248201527f436f6e747261637420616464726573732063616e206e6f74206265207a65726f604482015290519081900360640190fd5b8151602080840191909120600081815260349092526040909120546001600160a01b0316156116df5760405162461bcd60e51b8152600401808060200182810382526025815260200180611d946025913960400191505060405180910390fd5b6000610a106040518060400160405280600781526020016621b937b72537b160c91b815250610f44565b6000610a106040518060400160405280600a81526020016923a6a3b2ba3a32b9222160b11b815250610f44565b6000610a106040518060400160405280600c81526020016b15da5d1a191c985dd41bdbdb60a21b815250610f44565b6000610a106040518060400160405280600b81526020016a23b0b6b2a6b0b730b3b2b960a91b815250610f44565b6000610a10604051806040016040528060088152602001672932b3b4b9ba32b960c11b815250610f44565b6033546001600160a01b03163314611b8957fe5b6001600160a01b038116156117ad57603380546001600160a01b0383166001600160a01b031990911617905550565b6000610a106040518060400160405280600b81526020016a22b73237bbb6b2b73a222160a91b815250610f44565b6000610a106040518060400160405280600d81526020016c115b991bdddb595b9d119d5b99609a1b815250610f44565b6000611c406040518060400160405280600781526020016621b937b72537b160c91b815250610f44565b905060005b603554811015611d895760408051600481526024810182526020810180516001600160e01b031663014112eb60e21b178152915181516000936060936001600160a01b038816939092909182918083835b60208310611cb55780518252601f199092019160209182019101611c96565b6001836020036101000a0380198251168184511680821785525050505050509050019150506000604051808303816000865af19150503d8060008114611d17576040519150601f19603f3d011682016040523d82523d6000602084013e611d1c565b606091505b50915091508115611d55576000818060200190516040811015611d3e57600080fd5b5051905080611d4f57505050611d89565b50611d7f565b6040517fd0c39055083f1cd7e99672a54796862cd3b34c3db7964de3d92cfc9a9d47362090600090a15b5050600101611c45565b5050565b303b159056fe436f6e747261637420776974682074686973206e616d6520616c7265616479206164646564436f6e747261637420696e7374616e63652068617320616c7265616479206265656e20696e697469616c697a6564a265627a7a72315820a573d1a3817a5819bfd6f816a74428b53cd1cb3379aef5b1a0c6ce03f91f3aec64736f6c63430005110032",
  "source": "pragma solidity ^0.5.5;\n\nimport \"./libs/zos-lib/Initializable.sol\";\nimport \"./modules/proxy/ProxyBase.sol\";\nimport \"./modules/proxy/CronJobProxy.sol\";\nimport \"./modules/proxy/FreezeInfo.sol\";\n\n/**\n * @title Proxy contract is a main entry point for KittyFight contract system\n * @author @pash7ka\n */\ncontract KFProxy is\n    Initializable,          //Allows to use ZeppelinOS Proxy\n    ProxyBase,\n    CronJobProxy\n{\n\n    /**\n     * This function should be run instead of constructor\n     * See https://docs.zeppelinos.org/docs/pattern.html#the-constructor-caveat\n     */\n    function initialize() initializer public {\n        //TODO: Initialize contract addressses here or in separate function\n    }\n\n    /**\n     * Make default function non-payable\n     */\n    function () external {}\n\n    /**\n     * @dev This function forwards a payload and ether to specified contract\n     * @param contractName Name of the contract to worward a message to. Uses ContractManager to get address of the contract\n     * @param payload Data to send to the target contract. It should contain method signature and arguments packed.\n     * It's possible to use https://web3js.readthedocs.io/en/1.0/web3-eth-abi.html#encodefunctioncall to generate this\n     */\n    function execute(string calldata contractName, bytes calldata payload) external payable returns (bytes memory){\n        FreezeInfo freezeInfo = FreezeInfo(getContract(CONTRACT_NAME_FREEZE_INFO));\n        require(!freezeInfo.frozen(), 'System is frozen');\n\n        address payable target = address(uint160(getContract(contractName)));\n        //assert(target != address payable(0), 'Target contract is not registered'); //This check is already done in ContractManager\n\n        uint256 len = payload.length;\n        bytes memory payloadWithSender = new bytes(len+20);\n\n        assembly {\n\n            //write msg.sender to the end of array\n            let ptr := add(payloadWithSender, add(len, /*32-12*/20)) //this may rewrite frist 32 bytes with length, so we need to update them later\n            mstore(ptr, caller)\n            mstore(payloadWithSender, add(len, 20)) //write payload length, which may be damaged on previous step\n\n            // find payload\n            calldatacopy(0x20, /*4+32*/ 36, 32)     //load position of second argument to 0x20 in arguments block\n            let payloadPos := add(mload(0x20), 4)   //add offset of arguments block\n\n            // copy payload\n            ptr := add(payloadWithSender, 32)               //skip header of the array\n            calldatacopy(ptr, add(payloadPos, 32), len)\n\n        }\n\n        (bool success, bytes memory result) = target.call.value(msg.value)(payloadWithSender);\n        //require(success, 'Proxied call failed');\n        if(!success) assembly {\n            revert(add(result,32), result)\n        }\n\n        _executeScheduledJobs();\n\n        return result;\n    }\n\n\n\n}\n",
  "sourcePath": "/Users/ziweizhang/Desktop/kittifight-balancer/contracts/contracts/KFProxy.sol",
  "compiler": {
    "name": "solc",
    "version": "0.5.17+commit.d19bba13.Emscripten.clang"
  },
  "schemaVersion": "3.0.23",
  "updatedAt": "2020-05-30T18:43:01.063Z",
  "networkType": "ethereum",
  "devdoc": {
    "author": "@pash7ka",
    "methods": {
      "execute(string,bytes)": {
        "details": "This function forwards a payload and ether to specified contract",
        "params": {
          "contractName": "Name of the contract to worward a message to. Uses ContractManager to get address of the contract",
          "payload": "Data to send to the target contract. It should contain method signature and arguments packed. It's possible to use https://web3js.readthedocs.io/en/1.0/web3-eth-abi.html#encodefunctioncall to generate this"
        }
      },
      "executeScheduledJobs()": {
        "details": "This can be executed by admins, but since KFProxy can not use Guard, we need to do check manually"
      }
    },
    "title": "Proxy contract is a main entry point for KittyFight contract system"
  },
  "userdoc": {
    "methods": {
      "addressOfRegister()": {
        "notice": "Getters for KittyFight system contracts"
      },
      "executeScheduledJobs()": {
        "notice": "Executes up to maxJobsForOneRun scheduled jobs, if available"
      },
      "initialize()": {
        "notice": "This function should be run instead of constructor See https://docs.zeppelinos.org/docs/pattern.html#the-constructor-caveat"
      }
    }
  }
}