{
  "contractName": "KFProxy",
  "abi": [
    {
      "anonymous": false,
      "inputs": [],
      "name": "CronJobExecutionFailed",
      "type": "event"
    },
    {
      "payable": false,
      "stateMutability": "nonpayable",
      "type": "fallback"
    },
    {
      "constant": false,
      "inputs": [
        {
          "internalType": "string",
          "name": "name",
          "type": "string"
        },
        {
          "internalType": "address",
          "name": "contractAddress",
          "type": "address"
        }
      ],
      "name": "addContract",
      "outputs": [],
      "payable": false,
      "stateMutability": "nonpayable",
      "type": "function"
    },
    {
      "constant": true,
      "inputs": [],
      "name": "addressOfBetting",
      "outputs": [
        {
          "internalType": "address",
          "name": "",
          "type": "address"
        }
      ],
      "payable": false,
      "stateMutability": "view",
      "type": "function"
    },
    {
      "constant": true,
      "inputs": [],
      "name": "addressOfCronJob",
      "outputs": [
        {
          "internalType": "address",
          "name": "",
          "type": "address"
        }
      ],
      "payable": false,
      "stateMutability": "view",
      "type": "function"
    },
    {
      "constant": true,
      "inputs": [],
      "name": "addressOfDAI",
      "outputs": [
        {
          "internalType": "address",
          "name": "",
          "type": "address"
        }
      ],
      "payable": false,
      "stateMutability": "view",
      "type": "function"
    },
    {
      "constant": true,
      "inputs": [],
      "name": "addressOfDaiWethOracle",
      "outputs": [
        {
          "internalType": "address",
          "name": "",
          "type": "address"
        }
      ],
      "payable": false,
      "stateMutability": "view",
      "type": "function"
    },
    {
      "constant": true,
      "inputs": [],
      "name": "addressOfDaiWethPair",
      "outputs": [
        {
          "internalType": "address",
          "name": "",
          "type": "address"
        }
      ],
      "payable": false,
      "stateMutability": "view",
      "type": "function"
    },
    {
      "constant": true,
      "inputs": [],
      "name": "addressOfDistribution",
      "outputs": [
        {
          "internalType": "address",
          "name": "",
          "type": "address"
        }
      ],
      "payable": false,
      "stateMutability": "view",
      "type": "function"
    },
    {
      "constant": true,
      "inputs": [],
      "name": "addressOfEarningsTracker",
      "outputs": [
        {
          "internalType": "address",
          "name": "",
          "type": "address"
        }
      ],
      "payable": false,
      "stateMutability": "view",
      "type": "function"
    },
    {
      "constant": true,
      "inputs": [],
      "name": "addressOfEndowmentDB",
      "outputs": [
        {
          "internalType": "address",
          "name": "",
          "type": "address"
        }
      ],
      "payable": false,
      "stateMutability": "view",
      "type": "function"
    },
    {
      "constant": true,
      "inputs": [],
      "name": "addressOfEndowmentFund",
      "outputs": [
        {
          "internalType": "address",
          "name": "",
          "type": "address"
        }
      ],
      "payable": false,
      "stateMutability": "view",
      "type": "function"
    },
    {
      "constant": true,
      "inputs": [],
      "name": "addressOfEthieToken",
      "outputs": [
        {
          "internalType": "address",
          "name": "",
          "type": "address"
        }
      ],
      "payable": false,
      "stateMutability": "view",
      "type": "function"
    },
    {
      "constant": true,
      "inputs": [],
      "name": "addressOfForfeiter",
      "outputs": [
        {
          "internalType": "address",
          "name": "",
          "type": "address"
        }
      ],
      "payable": false,
      "stateMutability": "view",
      "type": "function"
    },
    {
      "constant": true,
      "inputs": [],
      "name": "addressOfGMGetterDB",
      "outputs": [
        {
          "internalType": "address",
          "name": "",
          "type": "address"
        }
      ],
      "payable": false,
      "stateMutability": "view",
      "type": "function"
    },
    {
      "constant": true,
      "inputs": [],
      "name": "addressOfGMSetterDB",
      "outputs": [
        {
          "internalType": "address",
          "name": "",
          "type": "address"
        }
      ],
      "payable": false,
      "stateMutability": "view",
      "type": "function"
    },
    {
      "constant": true,
      "inputs": [],
      "name": "addressOfGameManager",
      "outputs": [
        {
          "internalType": "address",
          "name": "",
          "type": "address"
        }
      ],
      "payable": false,
      "stateMutability": "view",
      "type": "function"
    },
    {
      "constant": true,
      "inputs": [],
      "name": "addressOfGameVarAndFee",
      "outputs": [
        {
          "internalType": "address",
          "name": "",
          "type": "address"
        }
      ],
      "payable": false,
      "stateMutability": "view",
      "type": "function"
    },
    {
      "constant": true,
      "inputs": [],
      "name": "addressOfHitsResolve",
      "outputs": [
        {
          "internalType": "address",
          "name": "",
          "type": "address"
        }
      ],
      "payable": false,
      "stateMutability": "view",
      "type": "function"
    },
    {
      "constant": true,
      "inputs": [],
      "name": "addressOfHoneypotAllocationAlgo",
      "outputs": [
        {
          "internalType": "address",
          "name": "",
          "type": "address"
        }
      ],
      "payable": false,
      "stateMutability": "view",
      "type": "function"
    },
    {
      "constant": true,
      "inputs": [],
      "name": "addressOfKittieHell",
      "outputs": [
        {
          "internalType": "address",
          "name": "",
          "type": "address"
        }
      ],
      "payable": false,
      "stateMutability": "view",
      "type": "function"
    },
    {
      "constant": true,
      "inputs": [],
      "name": "addressOfKittieHellDB",
      "outputs": [
        {
          "internalType": "address",
          "name": "",
          "type": "address"
        }
      ],
      "payable": false,
      "stateMutability": "view",
      "type": "function"
    },
    {
      "constant": true,
      "inputs": [],
      "name": "addressOfKtyUniswap",
      "outputs": [
        {
          "internalType": "address",
          "name": "",
          "type": "address"
        }
      ],
      "payable": false,
      "stateMutability": "view",
      "type": "function"
    },
    {
      "constant": true,
      "inputs": [],
      "name": "addressOfKtyWethOracle",
      "outputs": [
        {
          "internalType": "address",
          "name": "",
          "type": "address"
        }
      ],
      "payable": false,
      "stateMutability": "view",
      "type": "function"
    },
    {
      "constant": true,
      "inputs": [],
      "name": "addressOfProfileDB",
      "outputs": [
        {
          "internalType": "address",
          "name": "",
          "type": "address"
        }
      ],
      "payable": false,
      "stateMutability": "view",
      "type": "function"
    },
    {
      "constant": true,
      "inputs": [],
      "name": "addressOfRarityCalculator",
      "outputs": [
        {
          "internalType": "address",
          "name": "",
          "type": "address"
        }
      ],
      "payable": false,
      "stateMutability": "view",
      "type": "function"
    },
    {
      "constant": true,
      "inputs": [],
      "name": "addressOfRegister",
      "outputs": [
        {
          "internalType": "address",
          "name": "",
          "type": "address"
        }
      ],
      "payable": false,
      "stateMutability": "view",
      "type": "function"
    },
    {
      "constant": true,
      "inputs": [],
      "name": "addressOfRoleDB",
      "outputs": [
        {
          "internalType": "address",
          "name": "",
          "type": "address"
        }
      ],
      "payable": false,
      "stateMutability": "view",
      "type": "function"
    },
    {
      "constant": true,
      "inputs": [],
      "name": "addressOfScheduler",
      "outputs": [
        {
          "internalType": "address",
          "name": "",
          "type": "address"
        }
      ],
      "payable": false,
      "stateMutability": "view",
      "type": "function"
    },
    {
      "constant": true,
      "inputs": [],
      "name": "addressOfTimeContract",
      "outputs": [
        {
          "internalType": "address",
          "name": "",
          "type": "address"
        }
      ],
      "payable": false,
      "stateMutability": "view",
      "type": "function"
    },
    {
      "constant": true,
      "inputs": [],
      "name": "addressOfTimeFrame",
      "outputs": [
        {
          "internalType": "address",
          "name": "",
          "type": "address"
        }
      ],
      "payable": false,
      "stateMutability": "view",
      "type": "function"
    },
    {
      "constant": true,
      "inputs": [],
      "name": "addressOfUniswapV2Pair",
      "outputs": [
        {
          "internalType": "address",
          "name": "",
          "type": "address"
        }
      ],
      "payable": false,
      "stateMutability": "view",
      "type": "function"
    },
    {
      "constant": true,
      "inputs": [],
      "name": "addressOfUniswapV2Router",
      "outputs": [
        {
          "internalType": "address",
          "name": "",
          "type": "address"
        }
      ],
      "payable": false,
      "stateMutability": "view",
      "type": "function"
    },
    {
      "constant": true,
      "inputs": [],
      "name": "addressOfWETH",
      "outputs": [
        {
          "internalType": "address",
          "name": "",
          "type": "address"
        }
      ],
      "payable": false,
      "stateMutability": "view",
      "type": "function"
    },
    {
      "constant": true,
      "inputs": [],
      "name": "addressOfWithdrawPool",
      "outputs": [
        {
          "internalType": "address",
          "name": "",
          "type": "address"
        }
      ],
      "payable": false,
      "stateMutability": "view",
      "type": "function"
    },
    {
      "constant": false,
      "inputs": [
        {
          "internalType": "uint256",
          "name": "jobId",
          "type": "uint256"
        }
      ],
      "name": "executeJob",
      "outputs": [
        {
          "internalType": "bytes",
          "name": "",
          "type": "bytes"
        }
      ],
      "payable": false,
      "stateMutability": "nonpayable",
      "type": "function"
    },
    {
      "constant": false,
      "inputs": [],
      "name": "executeScheduledJobs",
      "outputs": [],
      "payable": false,
      "stateMutability": "nonpayable",
      "type": "function"
    },
    {
      "constant": true,
      "inputs": [
        {
          "internalType": "string",
          "name": "name",
          "type": "string"
        }
      ],
      "name": "getContract",
      "outputs": [
        {
          "internalType": "address",
          "name": "",
          "type": "address"
        }
      ],
      "payable": false,
      "stateMutability": "view",
      "type": "function"
    },
    {
      "constant": true,
      "inputs": [
        {
          "internalType": "bytes32[]",
          "name": "nameHashes",
          "type": "bytes32[]"
        }
      ],
      "name": "getContracts",
      "outputs": [
        {
          "internalType": "address[]",
          "name": "",
          "type": "address[]"
        }
      ],
      "payable": false,
      "stateMutability": "view",
      "type": "function"
    },
    {
      "constant": true,
      "inputs": [],
      "name": "maxJobsForOneRun",
      "outputs": [
        {
          "internalType": "uint256",
          "name": "",
          "type": "uint256"
        }
      ],
      "payable": false,
      "stateMutability": "view",
      "type": "function"
    },
    {
      "constant": true,
      "inputs": [],
      "name": "owner",
      "outputs": [
        {
          "internalType": "address payable",
          "name": "",
          "type": "address"
        }
      ],
      "payable": false,
      "stateMutability": "view",
      "type": "function"
    },
    {
      "constant": false,
      "inputs": [
        {
          "internalType": "string",
          "name": "name",
          "type": "string"
        }
      ],
      "name": "removeContract",
      "outputs": [],
      "payable": false,
      "stateMutability": "nonpayable",
      "type": "function"
    },
    {
      "constant": false,
      "inputs": [
        {
          "internalType": "uint256",
          "name": "_maxJobsForOneRun",
          "type": "uint256"
        }
      ],
      "name": "setMaxJobsForOneRun",
      "outputs": [],
      "payable": false,
      "stateMutability": "nonpayable",
      "type": "function"
    },
    {
      "constant": false,
      "inputs": [
        {
          "internalType": "address payable",
          "name": "newOwner",
          "type": "address"
        }
      ],
      "name": "transferOwnership",
      "outputs": [],
      "payable": false,
      "stateMutability": "nonpayable",
      "type": "function"
    },
    {
      "constant": false,
      "inputs": [
        {
          "internalType": "string",
          "name": "name",
          "type": "string"
        },
        {
          "internalType": "address",
          "name": "contractAddress",
          "type": "address"
        }
      ],
      "name": "updateContract",
      "outputs": [],
      "payable": false,
      "stateMutability": "nonpayable",
      "type": "function"
    },
    {
      "constant": false,
      "inputs": [],
      "name": "initialize",
      "outputs": [],
      "payable": false,
      "stateMutability": "nonpayable",
      "type": "function"
    },
    {
      "constant": false,
      "inputs": [
        {
          "internalType": "string",
          "name": "contractName",
          "type": "string"
        },
        {
          "internalType": "bytes",
          "name": "payload",
          "type": "bytes"
        }
      ],
      "name": "execute",
      "outputs": [
        {
          "internalType": "bytes",
          "name": "",
          "type": "bytes"
        }
      ],
      "payable": true,
      "stateMutability": "payable",
      "type": "function"
    }
  ],
  "bytecode": "0x6080604052600260355533603360006101000a81548173ffffffffffffffffffffffffffffffffffffffff021916908373ffffffffffffffffffffffffffffffffffffffff160217905550613795806100596000396000f3fe6080604052600436106102725760003560e01c80638129fc1c1161014f578063bf5b6016116100c1578063eed9c25b1161007a578063eed9c25b1461130f578063f27e209814611366578063f2fde38b146113bd578063f6df25d51461140e578063fcc47c4f14611465578063fcd073aa146114bc57610272565b8063bf5b601614611074578063c5ed75bb1461115c578063cb669caa146111b3578063d3b12c151461120a578063d83be91714611261578063ee71227f146112b857610272565b806393812d201161011357806393812d2014610e15578063968f141214610e6c57806397623b5814610ea75780639a087b9714610f6f578063a0d1170b14610fc6578063beb9eb0b1461101d57610272565b80638129fc1c14610ca257806384d6761714610cb95780638da5cb5b14610d105780638e771e7914610d675780638ec82c8a14610dbe57610272565b806342febb69116101e857806358838def116101ac57806358838def146109d65780635c75712514610a8a5780635f9b591614610ae1578063658d747614610b38578063697a60b314610b635780637388a99114610c4b57610272565b806342febb691461079f578063462d46f6146107f65780634880df0e1461084d578063492e4692146109285780634e7f067b1461097f57610272565b8063229320ca1161023a578063229320ca14610434578063297a344d1461057b57806331850482146105d2578063348c6019146105e957806335817773146106405780633bdc5a5d1461074857610272565b806319bddbe0146102815780631d83b82b146102d85780631e662c401461032f57806320331d0f1461038657806320ba5910146103dd575b34801561027e57600080fd5b50005b34801561028d57600080fd5b50610296611513565b604051808273ffffffffffffffffffffffffffffffffffffffff1673ffffffffffffffffffffffffffffffffffffffff16815260200191505060405180910390f35b3480156102e457600080fd5b506102ed611558565b604051808273ffffffffffffffffffffffffffffffffffffffff1673ffffffffffffffffffffffffffffffffffffffff16815260200191505060405180910390f35b34801561033b57600080fd5b5061034461159d565b604051808273ffffffffffffffffffffffffffffffffffffffff1673ffffffffffffffffffffffffffffffffffffffff16815260200191505060405180910390f35b34801561039257600080fd5b5061039b6115e2565b604051808273ffffffffffffffffffffffffffffffffffffffff1673ffffffffffffffffffffffffffffffffffffffff16815260200191505060405180910390f35b3480156103e957600080fd5b506103f2611627565b604051808273ffffffffffffffffffffffffffffffffffffffff1673ffffffffffffffffffffffffffffffffffffffff16815260200191505060405180910390f35b6105006004803603604081101561044a57600080fd5b810190808035906020019064010000000081111561046757600080fd5b82018360208201111561047957600080fd5b8035906020019184600183028401116401000000008311171561049b57600080fd5b9091929391929390803590602001906401000000008111156104bc57600080fd5b8201836020820111156104ce57600080fd5b803590602001918460018302840111640100000000831117156104f057600080fd5b909192939192939050505061166c565b6040518080602001828103825283818151815260200191508051906020019080838360005b83811015610540578082015181840152602081019050610525565b50505050905090810190601f16801561056d5780820380516001836020036101000a031916815260200191505b509250505060405180910390f35b34801561058757600080fd5b50610590611944565b604051808273ffffffffffffffffffffffffffffffffffffffff1673ffffffffffffffffffffffffffffffffffffffff16815260200191505060405180910390f35b3480156105de57600080fd5b506105e7611989565b005b3480156105f557600080fd5b506105fe611d4e565b604051808273ffffffffffffffffffffffffffffffffffffffff1673ffffffffffffffffffffffffffffffffffffffff16815260200191505060405180910390f35b34801561064c57600080fd5b506107066004803603602081101561066357600080fd5b810190808035906020019064010000000081111561068057600080fd5b82018360208201111561069257600080fd5b803590602001918460018302840111640100000000831117156106b457600080fd5b91908080601f016020809104026020016040519081016040528093929190818152602001838380828437600081840152601f19601f820116905080830192505050505050509192919290505050611d93565b604051808273ffffffffffffffffffffffffffffffffffffffff1673ffffffffffffffffffffffffffffffffffffffff16815260200191505060405180910390f35b34801561075457600080fd5b5061075d611fd4565b604051808273ffffffffffffffffffffffffffffffffffffffff1673ffffffffffffffffffffffffffffffffffffffff16815260200191505060405180910390f35b3480156107ab57600080fd5b506107b4612019565b604051808273ffffffffffffffffffffffffffffffffffffffff1673ffffffffffffffffffffffffffffffffffffffff16815260200191505060405180910390f35b34801561080257600080fd5b5061080b61205e565b604051808273ffffffffffffffffffffffffffffffffffffffff1673ffffffffffffffffffffffffffffffffffffffff16815260200191505060405180910390f35b34801561085957600080fd5b506108d16004803603602081101561087057600080fd5b810190808035906020019064010000000081111561088d57600080fd5b82018360208201111561089f57600080fd5b803590602001918460208302840111640100000000831117156108c157600080fd5b90919293919293905050506120a3565b6040518080602001828103825283818151815260200191508051906020019060200280838360005b838110156109145780820151818401526020810190506108f9565b505050509050019250505060405180910390f35b34801561093457600080fd5b5061093d612190565b604051808273ffffffffffffffffffffffffffffffffffffffff1673ffffffffffffffffffffffffffffffffffffffff16815260200191505060405180910390f35b34801561098b57600080fd5b506109946121d5565b604051808273ffffffffffffffffffffffffffffffffffffffff1673ffffffffffffffffffffffffffffffffffffffff16815260200191505060405180910390f35b3480156109e257600080fd5b50610a0f600480360360208110156109f957600080fd5b810190808035906020019092919050505061221a565b6040518080602001828103825283818151815260200191508051906020019080838360005b83811015610a4f578082015181840152602081019050610a34565b50505050905090810190601f168015610a7c5780820380516001836020036101000a031916815260200191505b509250505060405180910390f35b348015610a9657600080fd5b50610a9f6127dd565b604051808273ffffffffffffffffffffffffffffffffffffffff1673ffffffffffffffffffffffffffffffffffffffff16815260200191505060405180910390f35b348015610aed57600080fd5b50610af6612822565b604051808273ffffffffffffffffffffffffffffffffffffffff1673ffffffffffffffffffffffffffffffffffffffff16815260200191505060405180910390f35b348015610b4457600080fd5b50610b4d612867565b6040518082815260200191505060405180910390f35b348015610b6f57600080fd5b50610c4960048036036040811015610b8657600080fd5b8101908080359060200190640100000000811115610ba357600080fd5b820183602082011115610bb557600080fd5b80359060200191846001830284011164010000000083111715610bd757600080fd5b91908080601f016020809104026020016040519081016040528093929190818152602001838380828437600081840152601f19601f820116905080830192505050505050509192919290803573ffffffffffffffffffffffffffffffffffffffff16906020019092919050505061286d565b005b348015610c5757600080fd5b50610c606129fd565b604051808273ffffffffffffffffffffffffffffffffffffffff1673ffffffffffffffffffffffffffffffffffffffff16815260200191505060405180910390f35b348015610cae57600080fd5b50610cb7612a42565b005b348015610cc557600080fd5b50610cce612b41565b604051808273ffffffffffffffffffffffffffffffffffffffff1673ffffffffffffffffffffffffffffffffffffffff16815260200191505060405180910390f35b348015610d1c57600080fd5b50610d25612b86565b604051808273ffffffffffffffffffffffffffffffffffffffff1673ffffffffffffffffffffffffffffffffffffffff16815260200191505060405180910390f35b348015610d7357600080fd5b50610d7c612bac565b604051808273ffffffffffffffffffffffffffffffffffffffff1673ffffffffffffffffffffffffffffffffffffffff16815260200191505060405180910390f35b348015610dca57600080fd5b50610dd3612bf1565b604051808273ffffffffffffffffffffffffffffffffffffffff1673ffffffffffffffffffffffffffffffffffffffff16815260200191505060405180910390f35b348015610e2157600080fd5b50610e2a612c36565b604051808273ffffffffffffffffffffffffffffffffffffffff1673ffffffffffffffffffffffffffffffffffffffff16815260200191505060405180910390f35b348015610e7857600080fd5b50610ea560048036036020811015610e8f57600080fd5b8101908080359060200190929190505050612c7b565b005b348015610eb357600080fd5b50610f6d60048036036020811015610eca57600080fd5b8101908080359060200190640100000000811115610ee757600080fd5b820183602082011115610ef957600080fd5b80359060200191846001830284011164010000000083111715610f1b57600080fd5b91908080601f016020809104026020016040519081016040528093929190818152602001838380828437600081840152601f19601f820116905080830192505050505050509192919290505050612ce9565b005b348015610f7b57600080fd5b50610f84612e79565b604051808273ffffffffffffffffffffffffffffffffffffffff1673ffffffffffffffffffffffffffffffffffffffff16815260200191505060405180910390f35b348015610fd257600080fd5b50610fdb612ebe565b604051808273ffffffffffffffffffffffffffffffffffffffff1673ffffffffffffffffffffffffffffffffffffffff16815260200191505060405180910390f35b34801561102957600080fd5b50611032612f03565b604051808273ffffffffffffffffffffffffffffffffffffffff1673ffffffffffffffffffffffffffffffffffffffff16815260200191505060405180910390f35b34801561108057600080fd5b5061115a6004803603604081101561109757600080fd5b81019080803590602001906401000000008111156110b457600080fd5b8201836020820111156110c657600080fd5b803590602001918460018302840111640100000000831117156110e857600080fd5b91908080601f016020809104026020016040519081016040528093929190818152602001838380828437600081840152601f19601f820116905080830192505050505050509192919290803573ffffffffffffffffffffffffffffffffffffffff169060200190929190505050612f48565b005b34801561116857600080fd5b5061117161315d565b604051808273ffffffffffffffffffffffffffffffffffffffff1673ffffffffffffffffffffffffffffffffffffffff16815260200191505060405180910390f35b3480156111bf57600080fd5b506111c86131a2565b604051808273ffffffffffffffffffffffffffffffffffffffff1673ffffffffffffffffffffffffffffffffffffffff16815260200191505060405180910390f35b34801561121657600080fd5b5061121f6131e7565b604051808273ffffffffffffffffffffffffffffffffffffffff1673ffffffffffffffffffffffffffffffffffffffff16815260200191505060405180910390f35b34801561126d57600080fd5b5061127661322c565b604051808273ffffffffffffffffffffffffffffffffffffffff1673ffffffffffffffffffffffffffffffffffffffff16815260200191505060405180910390f35b3480156112c457600080fd5b506112cd613271565b604051808273ffffffffffffffffffffffffffffffffffffffff1673ffffffffffffffffffffffffffffffffffffffff16815260200191505060405180910390f35b34801561131b57600080fd5b506113246132b6565b604051808273ffffffffffffffffffffffffffffffffffffffff1673ffffffffffffffffffffffffffffffffffffffff16815260200191505060405180910390f35b34801561137257600080fd5b5061137b6132fb565b604051808273ffffffffffffffffffffffffffffffffffffffff1673ffffffffffffffffffffffffffffffffffffffff16815260200191505060405180910390f35b3480156113c957600080fd5b5061140c600480360360208110156113e057600080fd5b81019080803573ffffffffffffffffffffffffffffffffffffffff169060200190929190505050613340565b005b34801561141a57600080fd5b50611423613410565b604051808273ffffffffffffffffffffffffffffffffffffffff1673ffffffffffffffffffffffffffffffffffffffff16815260200191505060405180910390f35b34801561147157600080fd5b5061147a613455565b604051808273ffffffffffffffffffffffffffffffffffffffff1673ffffffffffffffffffffffffffffffffffffffff16815260200191505060405180910390f35b3480156114c857600080fd5b506114d161349a565b604051808273ffffffffffffffffffffffffffffffffffffffff1673ffffffffffffffffffffffffffffffffffffffff16815260200191505060405180910390f35b60006115536040518060400160405280600581526020017f5745544839000000000000000000000000000000000000000000000000000000815250611d93565b905090565b60006115986040518060400160405280600381526020017f4461690000000000000000000000000000000000000000000000000000000000815250611d93565b905090565b60006115dd6040518060400160405280600d81526020017f556e697377617056325061697200000000000000000000000000000000000000815250611d93565b905090565b60006116226040518060400160405280600981526020017f54696d654672616d650000000000000000000000000000000000000000000000815250611d93565b905090565b60006116676040518060400160405280600781526020017f42657474696e6700000000000000000000000000000000000000000000000000815250611d93565b905090565b606060006116ae6040518060400160405280600a81526020017f467265657a65496e666f00000000000000000000000000000000000000000000815250611d93565b90508073ffffffffffffffffffffffffffffffffffffffff1663054f7d9c6040518163ffffffff1660e01b815260040160206040518083038186803b1580156116f657600080fd5b505afa15801561170a573d6000803e3d6000fd5b505050506040513d602081101561172057600080fd5b8101908080519060200190929190505050156117a4576040517f08c379a00000000000000000000000000000000000000000000000000000000081526004018080602001828103825260108152602001807f53797374656d2069732066726f7a656e0000000000000000000000000000000081525060200191505060405180910390fd5b60006117f387878080601f016020809104026020016040519081016040528093929190818152602001838380828437600081840152601f19601f82011690508083019250505050505050611d93565b905060008585905090506060601482016040519080825280601f01601f1916602001820160405280156118355781602001600182028038833980820191505090505b50905060148201810133815260148301825260206024602037600460205101602083019150836020820183375050600060608473ffffffffffffffffffffffffffffffffffffffff1634846040518082805190602001908083835b602083106118b35780518252602082019150602081019050602083039250611890565b6001836020036101000a03801982511681845116808217855250505050505090500191505060006040518083038185875af1925050503d8060008114611915576040519150601f19603f3d011682016040523d82523d6000602084013e61191a565b606091505b50915091508161192b578060208201fd5b6119336134df565b809650505050505050949350505050565b60006119846040518060400160405280600d81526020017f4b7479576574684f7261636c6500000000000000000000000000000000000000815250611d93565b905090565b60006119c96040518060400160405280600981526020017f47656e6572696344420000000000000000000000000000000000000000000000815250611d93565b9050600060608273ffffffffffffffffffffffffffffffffffffffff166040518060400160405280600681526020017f526f6c65444200000000000000000000000000000000000000000000000000008152503360405160200180807f61646d696e0000000000000000000000000000000000000000000000000000008152506005018273ffffffffffffffffffffffffffffffffffffffff1673ffffffffffffffffffffffffffffffffffffffff1660601b8152601401915050604051602081830303815290604052805190602001206040516024018080602001838152602001828103825284818151815260200191508051906020019080838360005b83811015611ae3578082015181840152602081019050611ac8565b50505050905090810190601f168015611b105780820380516001836020036101000a031916815260200191505b5093505050506040516020818303038152906040527f1c58c8bb000000000000000000000000000000000000000000000000000000007bffffffffffffffffffffffffffffffffffffffffffffffffffffffff19166020820180517bffffffffffffffffffffffffffffffffffffffffffffffffffffffff83818316178352505050506040518082805190602001908083835b60208310611bc65780518252602082019150602081019050602083039250611ba3565b6001836020036101000a038019825116818451168082178552505050505050905001915050600060405180830381855afa9150503d8060008114611c26576040519150601f19603f3d011682016040523d82523d6000602084013e611c2b565b606091505b509150915081611ca3576040517f08c379a00000000000000000000000000000000000000000000000000000000081526004018080602001828103825260138152602001807f4661696c656420746f206c6f616420726f6c650000000000000000000000000081525060200191505060405180910390fd5b6000818060200190516020811015611cba57600080fd5b8101908080519060200190929190505050905080611d40576040517f08c379a00000000000000000000000000000000000000000000000000000000081526004018080602001828103825260198152602001807f53656e6465722068617320746f20626520616e2061646d696e0000000000000081525060200191505060405180910390fd5b611d486134df565b50505050565b6000611d8e6040518060400160405280601681526020017f486f6e6579706f74416c6c6f636174696f6e416c676f00000000000000000000815250611d93565b905090565b60008082805190602001209050600073ffffffffffffffffffffffffffffffffffffffff166034600083815260200190815260200160002060009054906101000a900473ffffffffffffffffffffffffffffffffffffffff1673ffffffffffffffffffffffffffffffffffffffff161415611f985760608360405160200180807f436f6e7472616374206e6f7420726567697374657265643a200000000000000081525060190182805190602001908083835b60208310611e695780518252602082019150602081019050602083039250611e46565b6001836020036101000a0380198251168184511680821785525050505050509050019150506040516020818303038152906040526040516024018080602001828103825283818151815260200191508051906020019080838360005b83811015611ee0578082015181840152602081019050611ec5565b50505050905090810190601f168015611f0d5780820380516001836020036101000a031916815260200191505b50925050506040516020818303038152906040527f08c379a0000000000000000000000000000000000000000000000000000000007bffffffffffffffffffffffffffffffffffffffffffffffffffffffff19166020820180517bffffffffffffffffffffffffffffffffffffffffffffffffffffffff838183161783525050505090508060208201fd5b6034600082815260200190815260200160002060009054906101000a900473ffffffffffffffffffffffffffffffffffffffff16915050919050565b60006120146040518060400160405280600f81526020017f4561726e696e6773547261636b65720000000000000000000000000000000000815250611d93565b905090565b60006120596040518060400160405280600a81526020017f4b697474696548656c6c00000000000000000000000000000000000000000000815250611d93565b905090565b600061209e6040518060400160405280600d81526020017f47616d65566172416e6446656500000000000000000000000000000000000000815250611d93565b905090565b606080838390506040519080825280602002602001820160405280156120d85781602001602082028038833980820191505090505b50905060008090505b8484905081101561218557603460008686848181106120fc57fe5b90506020020135815260200190815260200160002060009054906101000a900473ffffffffffffffffffffffffffffffffffffffff1682828151811061213e57fe5b602002602001019073ffffffffffffffffffffffffffffffffffffffff16908173ffffffffffffffffffffffffffffffffffffffff168152505080806001019150506120e1565b508091505092915050565b60006121d06040518060400160405280601081526020017f52617269747943616c63756c61746f7200000000000000000000000000000000815250611d93565b905090565b60006122156040518060400160405280600c81526020017f54696d65436f6e74726163740000000000000000000000000000000000000000815250611d93565b905090565b6060600061225c6040518060400160405280600981526020017f47656e6572696344420000000000000000000000000000000000000000000000815250611d93565b9050600060608273ffffffffffffffffffffffffffffffffffffffff166040518060400160405280600681526020017f526f6c65444200000000000000000000000000000000000000000000000000008152503360405160200180807f61646d696e0000000000000000000000000000000000000000000000000000008152506005018273ffffffffffffffffffffffffffffffffffffffff1673ffffffffffffffffffffffffffffffffffffffff1660601b8152601401915050604051602081830303815290604052805190602001206040516024018080602001838152602001828103825284818151815260200191508051906020019080838360005b8381101561237657808201518184015260208101905061235b565b50505050905090810190601f1680156123a35780820380516001836020036101000a031916815260200191505b5093505050506040516020818303038152906040527f1c58c8bb000000000000000000000000000000000000000000000000000000007bffffffffffffffffffffffffffffffffffffffffffffffffffffffff19166020820180517bffffffffffffffffffffffffffffffffffffffffffffffffffffffff83818316178352505050506040518082805190602001908083835b602083106124595780518252602082019150602081019050602083039250612436565b6001836020036101000a038019825116818451168082178552505050505050905001915050600060405180830381855afa9150503d80600081146124b9576040519150601f19603f3d011682016040523d82523d6000602084013e6124be565b606091505b509150915081612536576040517f08c379a00000000000000000000000000000000000000000000000000000000081526004018080602001828103825260138152602001807f4661696c656420746f206c6f616420726f6c650000000000000000000000000081525060200191505060405180910390fd5b600081806020019051602081101561254d57600080fd5b81019080805190602001909291905050509050806125d3576040517f08c379a00000000000000000000000000000000000000000000000000000000081526004018080602001828103825260198152602001807f53656e6465722068617320746f20626520616e2061646d696e0000000000000081525060200191505060405180910390fd5b60006126136040518060400160405280600781526020017f43726f6e4a6f6200000000000000000000000000000000000000000000000000815250611d93565b90508073ffffffffffffffffffffffffffffffffffffffff1687604051602401808281526020019150506040516020818303038152906040527f58838def000000000000000000000000000000000000000000000000000000007bffffffffffffffffffffffffffffffffffffffffffffffffffffffff19166020820180517bffffffffffffffffffffffffffffffffffffffffffffffffffffffff83818316178352505050506040518082805190602001908083835b602083106126ed57805182526020820191506020810190506020830392506126ca565b6001836020036101000a0380198251168184511680821785525050505050509050019150506000604051808303816000865af19150503d806000811461274f576040519150601f19603f3d011682016040523d82523d6000602084013e612754565b606091505b508094508195505050836127d0576040517f08c379a00000000000000000000000000000000000000000000000000000000081526004018080602001828103825260138152602001807f457865637574652063616c6c206661696c65640000000000000000000000000081525060200191505060405180910390fd5b8295505050505050919050565b600061281d6040518060400160405280600981526020017f50726f66696c6544420000000000000000000000000000000000000000000000815250611d93565b905090565b60006128626040518060400160405280600a81526020017f4b7479556e697377617000000000000000000000000000000000000000000000815250611d93565b905090565b60355481565b603360009054906101000a900473ffffffffffffffffffffffffffffffffffffffff1673ffffffffffffffffffffffffffffffffffffffff163373ffffffffffffffffffffffffffffffffffffffff16146128c457fe5b600082805190602001209050600073ffffffffffffffffffffffffffffffffffffffff166034600083815260200190815260200160002060009054906101000a900473ffffffffffffffffffffffffffffffffffffffff1673ffffffffffffffffffffffffffffffffffffffff1614156129a6576040517f08c379a00000000000000000000000000000000000000000000000000000000081526004018080602001828103825260208152602001807f4e6f20636f6e747261637420776974682074686973206e616d6520666f756e6481525060200191505060405180910390fd5b816034600083815260200190815260200160002060006101000a81548173ffffffffffffffffffffffffffffffffffffffff021916908373ffffffffffffffffffffffffffffffffffffffff160217905550505050565b6000612a3d6040518060400160405280600a81526020017f4574686965546f6b656e00000000000000000000000000000000000000000000815250611d93565b905090565b600060019054906101000a900460ff1680612a615750612a606136fc565b5b80612a7857506000809054906101000a900460ff16155b612acd576040517f08c379a000000000000000000000000000000000000000000000000000000000815260040180806020018281038252602e815260200180613733602e913960400191505060405180910390fd5b60008060019054906101000a900460ff161590508015612b1d576001600060016101000a81548160ff02191690831515021790555060016000806101000a81548160ff0219169083151502179055505b8015612b3e5760008060016101000a81548160ff0219169083151502179055505b50565b6000612b816040518060400160405280600c81526020017f4b697474696548656c6c44420000000000000000000000000000000000000000815250611d93565b905090565b603360009054906101000a900473ffffffffffffffffffffffffffffffffffffffff1681565b6000612bec6040518060400160405280600681526020017f526f6c6544420000000000000000000000000000000000000000000000000000815250611d93565b905090565b6000612c316040518060400160405280600b81526020017f486974735265736f6c7665000000000000000000000000000000000000000000815250611d93565b905090565b6000612c766040518060400160405280600981526020017f5363686564756c65720000000000000000000000000000000000000000000000815250611d93565b905090565b603360009054906101000a900473ffffffffffffffffffffffffffffffffffffffff1673ffffffffffffffffffffffffffffffffffffffff163373ffffffffffffffffffffffffffffffffffffffff1614612cd257fe5b60008111612cdf57600080fd5b8060358190555050565b603360009054906101000a900473ffffffffffffffffffffffffffffffffffffffff1673ffffffffffffffffffffffffffffffffffffffff163373ffffffffffffffffffffffffffffffffffffffff1614612d4057fe5b600081805190602001209050600073ffffffffffffffffffffffffffffffffffffffff166034600083815260200190815260200160002060009054906101000a900473ffffffffffffffffffffffffffffffffffffffff1673ffffffffffffffffffffffffffffffffffffffff161415612e22576040517f08c379a00000000000000000000000000000000000000000000000000000000081526004018080602001828103825260208152602001807f4e6f20636f6e747261637420776974682074686973206e616d6520666f756e6481525060200191505060405180910390fd5b60006034600083815260200190815260200160002060006101000a81548173ffffffffffffffffffffffffffffffffffffffff021916908373ffffffffffffffffffffffffffffffffffffffff1602179055505050565b6000612eb96040518060400160405280600981526020017f466f726665697465720000000000000000000000000000000000000000000000815250611d93565b905090565b6000612efe6040518060400160405280600c81526020017f446973747269627574696f6e0000000000000000000000000000000000000000815250611d93565b905090565b6000612f436040518060400160405280600a81526020017f474d536574746572444200000000000000000000000000000000000000000000815250611d93565b905090565b603360009054906101000a900473ffffffffffffffffffffffffffffffffffffffff1673ffffffffffffffffffffffffffffffffffffffff163373ffffffffffffffffffffffffffffffffffffffff1614612f9f57fe5b600073ffffffffffffffffffffffffffffffffffffffff168173ffffffffffffffffffffffffffffffffffffffff161415613042576040517f08c379a00000000000000000000000000000000000000000000000000000000081526004018080602001828103825260208152602001807f436f6e747261637420616464726573732063616e206e6f74206265207a65726f81525060200191505060405180910390fd5b600082805190602001209050600073ffffffffffffffffffffffffffffffffffffffff166034600083815260200190815260200160002060009054906101000a900473ffffffffffffffffffffffffffffffffffffffff1673ffffffffffffffffffffffffffffffffffffffff1614613106576040517f08c379a000000000000000000000000000000000000000000000000000000000815260040180806020018281038252602581526020018061370e6025913960400191505060405180910390fd5b816034600083815260200190815260200160002060006101000a81548173ffffffffffffffffffffffffffffffffffffffff021916908373ffffffffffffffffffffffffffffffffffffffff160217905550505050565b600061319d6040518060400160405280600781526020017f43726f6e4a6f6200000000000000000000000000000000000000000000000000815250611d93565b905090565b60006131e26040518060400160405280600c81526020017f4944616957657468506169720000000000000000000000000000000000000000815250611d93565b905090565b60006132276040518060400160405280600a81526020017f474d476574746572444200000000000000000000000000000000000000000000815250611d93565b905090565b600061326c6040518060400160405280600c81526020017f5769746864726177506f6f6c0000000000000000000000000000000000000000815250611d93565b905090565b60006132b16040518060400160405280600b81526020017f47616d654d616e61676572000000000000000000000000000000000000000000815250611d93565b905090565b60006132f66040518060400160405280600881526020017f5265676973746572000000000000000000000000000000000000000000000000815250611d93565b905090565b600061333b6040518060400160405280600d81526020017f446169576574684f7261636c6500000000000000000000000000000000000000815250611d93565b905090565b603360009054906101000a900473ffffffffffffffffffffffffffffffffffffffff1673ffffffffffffffffffffffffffffffffffffffff163373ffffffffffffffffffffffffffffffffffffffff161461339757fe5b600073ffffffffffffffffffffffffffffffffffffffff168173ffffffffffffffffffffffffffffffffffffffff161461340d5780603360006101000a81548173ffffffffffffffffffffffffffffffffffffffff021916908373ffffffffffffffffffffffffffffffffffffffff1602179055505b50565b60006134506040518060400160405280600b81526020017f456e646f776d656e744442000000000000000000000000000000000000000000815250611d93565b905090565b60006134956040518060400160405280600d81526020017f456e646f776d656e7446756e6400000000000000000000000000000000000000815250611d93565b905090565b60006134da6040518060400160405280601181526020017f556e69737761705632526f757465723031000000000000000000000000000000815250611d93565b905090565b600061351f6040518060400160405280600781526020017f43726f6e4a6f6200000000000000000000000000000000000000000000000000815250611d93565b905060008090505b6035548110156136f857600060608373ffffffffffffffffffffffffffffffffffffffff166040516024016040516020818303038152906040527f05044bac000000000000000000000000000000000000000000000000000000007bffffffffffffffffffffffffffffffffffffffffffffffffffffffff19166020820180517bffffffffffffffffffffffffffffffffffffffffffffffffffffffff83818316178352505050506040518082805190602001908083835b6020831061360257805182526020820191506020810190506020830392506135df565b6001836020036101000a0380198251168184511680821785525050505050509050019150506000604051808303816000865af19150503d8060008114613664576040519150601f19603f3d011682016040523d82523d6000602084013e613669565b606091505b509150915081156136bc57600081806020019051604081101561368b57600080fd5b810190808051906020019092919080519060200190929190505050509050806136b6575050506136f8565b506136e9565b7fd0c39055083f1cd7e99672a54796862cd3b34c3db7964de3d92cfc9a9d47362060405160405180910390a15b50508080600101915050613527565b5050565b600080303b9050600081149150509056fe436f6e747261637420776974682074686973206e616d6520616c7265616479206164646564436f6e747261637420696e7374616e63652068617320616c7265616479206265656e20696e697469616c697a6564a265627a7a72315820be0d98bd4fe1f95d10b126c0f86def92d252a84ce8f2561e0089953cdffa031a64736f6c63430005110032",
  "source": "pragma solidity ^0.5.5;\r\n\r\nimport \"./libs/zos-lib/Initializable.sol\";\r\nimport \"./modules/proxy/ProxyBase.sol\";\r\nimport \"./modules/proxy/CronJobProxy.sol\";\r\nimport \"./modules/proxy/FreezeInfo.sol\";\r\n\r\n/**\r\n * @title Proxy contract is a main entry point for KittyFight contract system\r\n * @author @pash7ka\r\n */\r\ncontract KFProxy is\r\n    Initializable,          //Allows to use ZeppelinOS Proxy\r\n    ProxyBase,\r\n    CronJobProxy\r\n{\r\n\r\n    /**\r\n     * This function should be run instead of constructor\r\n     * See https://docs.zeppelinos.org/docs/pattern.html#the-constructor-caveat\r\n     */\r\n    function initialize() initializer public {\r\n        //TODO: Initialize contract addressses here or in separate function\r\n    }\r\n\r\n    /**\r\n     * Make default function non-payable\r\n     */\r\n    function () external {}\r\n\r\n    /**\r\n     * @dev This function forwards a payload and ether to specified contract\r\n     * @param contractName Name of the contract to worward a message to. Uses ContractManager to get address of the contract\r\n     * @param payload Data to send to the target contract. It should contain method signature and arguments packed.\r\n     * It's possible to use https://web3js.readthedocs.io/en/1.0/web3-eth-abi.html#encodefunctioncall to generate this\r\n     */\r\n    function execute(string calldata contractName, bytes calldata payload) external payable returns (bytes memory){\r\n        FreezeInfo freezeInfo = FreezeInfo(getContract(CONTRACT_NAME_FREEZE_INFO));\r\n        require(!freezeInfo.frozen(), 'System is frozen');\r\n\r\n        address payable target = address(uint160(getContract(contractName)));\r\n        //assert(target != address payable(0), 'Target contract is not registered'); //This check is already done in ContractManager\r\n\r\n        uint256 len = payload.length;\r\n        bytes memory payloadWithSender = new bytes(len+20);\r\n\r\n        assembly {\r\n\r\n            //write msg.sender to the end of array\r\n            let ptr := add(payloadWithSender, add(len, /*32-12*/20)) //this may rewrite frist 32 bytes with length, so we need to update them later\r\n            mstore(ptr, caller)\r\n            mstore(payloadWithSender, add(len, 20)) //write payload length, which may be damaged on previous step\r\n\r\n            // find payload\r\n            calldatacopy(0x20, /*4+32*/ 36, 32)     //load position of second argument to 0x20 in arguments block\r\n            let payloadPos := add(mload(0x20), 4)   //add offset of arguments block\r\n\r\n            // copy payload\r\n            ptr := add(payloadWithSender, 32)               //skip header of the array\r\n            calldatacopy(ptr, add(payloadPos, 32), len)\r\n\r\n        }\r\n\r\n        (bool success, bytes memory result) = target.call.value(msg.value)(payloadWithSender);\r\n        //require(success, 'Proxied call failed');\r\n        if(!success) assembly {\r\n            revert(add(result,32), result)\r\n        }\r\n\r\n        _executeScheduledJobs();\r\n\r\n        return result;\r\n    }\r\n\r\n\r\n\r\n}\r\n",
  "sourcePath": "C:/Users/Alex/Desktop/MyProjects/contracts/contracts/KFProxy.sol",
  "compiler": {
    "name": "solc",
    "version": "0.5.17+commit.d19bba13.Emscripten.clang"
  },
  "schemaVersion": "3.0.11",
  "updatedAt": "2020-06-16T13:18:36.484Z",
  "devdoc": {
    "author": "@pash7ka",
    "methods": {
      "execute(string,bytes)": {
        "details": "This function forwards a payload and ether to specified contract",
        "params": {
          "contractName": "Name of the contract to worward a message to. Uses ContractManager to get address of the contract",
          "payload": "Data to send to the target contract. It should contain method signature and arguments packed. It's possible to use https://web3js.readthedocs.io/en/1.0/web3-eth-abi.html#encodefunctioncall to generate this"
        }
      },
      "executeScheduledJobs()": {
        "details": "This can be executed by admins, but since KFProxy can not use Guard, we need to do check manually"
      }
    },
    "title": "Proxy contract is a main entry point for KittyFight contract system"
  },
  "userdoc": {
    "methods": {
      "addressOfRegister()": {
        "notice": "Getters for KittyFight system contracts"
      },
      "executeScheduledJobs()": {
        "notice": "Executes up to maxJobsForOneRun scheduled jobs, if available"
      },
      "initialize()": {
        "notice": "This function should be run instead of constructor See https://docs.zeppelinos.org/docs/pattern.html#the-constructor-caveat"
      }
    }
  }
}