{
  "contractName": "KFProxy",
  "abi": [
    {
      "anonymous": false,
      "inputs": [],
      "name": "CronJobExecutionFailed",
      "type": "event"
    },
    {
      "payable": false,
      "stateMutability": "nonpayable",
      "type": "fallback"
    },
    {
      "constant": false,
      "inputs": [
        {
          "internalType": "string",
          "name": "name",
          "type": "string"
        },
        {
          "internalType": "address",
          "name": "contractAddress",
          "type": "address"
        }
      ],
      "name": "addContract",
      "outputs": [],
      "payable": false,
      "stateMutability": "nonpayable",
      "type": "function"
    },
    {
      "constant": true,
      "inputs": [],
      "name": "addressOfBetting",
      "outputs": [
        {
          "internalType": "address",
          "name": "",
          "type": "address"
        }
      ],
      "payable": false,
      "stateMutability": "view",
      "type": "function"
    },
    {
      "constant": true,
      "inputs": [],
      "name": "addressOfCronJob",
      "outputs": [
        {
          "internalType": "address",
          "name": "",
          "type": "address"
        }
      ],
      "payable": false,
      "stateMutability": "view",
      "type": "function"
    },
    {
      "constant": true,
      "inputs": [],
      "name": "addressOfDistribution",
      "outputs": [
        {
          "internalType": "address",
          "name": "",
          "type": "address"
        }
      ],
      "payable": false,
      "stateMutability": "view",
      "type": "function"
    },
    {
      "constant": true,
      "inputs": [],
      "name": "addressOfEndowmentDB",
      "outputs": [
        {
          "internalType": "address",
          "name": "",
          "type": "address"
        }
      ],
      "payable": false,
      "stateMutability": "view",
      "type": "function"
    },
    {
      "constant": true,
      "inputs": [],
      "name": "addressOfEndowmentFund",
      "outputs": [
        {
          "internalType": "address",
          "name": "",
          "type": "address"
        }
      ],
      "payable": false,
      "stateMutability": "view",
      "type": "function"
    },
    {
      "constant": true,
      "inputs": [],
      "name": "addressOfForfeiter",
      "outputs": [
        {
          "internalType": "address",
          "name": "",
          "type": "address"
        }
      ],
      "payable": false,
      "stateMutability": "view",
      "type": "function"
    },
    {
      "constant": true,
      "inputs": [],
      "name": "addressOfGMGetterDB",
      "outputs": [
        {
          "internalType": "address",
          "name": "",
          "type": "address"
        }
      ],
      "payable": false,
      "stateMutability": "view",
      "type": "function"
    },
    {
      "constant": true,
      "inputs": [],
      "name": "addressOfGMSetterDB",
      "outputs": [
        {
          "internalType": "address",
          "name": "",
          "type": "address"
        }
      ],
      "payable": false,
      "stateMutability": "view",
      "type": "function"
    },
    {
      "constant": true,
      "inputs": [],
      "name": "addressOfGameManager",
      "outputs": [
        {
          "internalType": "address",
          "name": "",
          "type": "address"
        }
      ],
      "payable": false,
      "stateMutability": "view",
      "type": "function"
    },
    {
      "constant": true,
      "inputs": [],
      "name": "addressOfGameVarAndFee",
      "outputs": [
        {
          "internalType": "address",
          "name": "",
          "type": "address"
        }
      ],
      "payable": false,
      "stateMutability": "view",
      "type": "function"
    },
    {
      "constant": true,
      "inputs": [],
      "name": "addressOfHitsResolve",
      "outputs": [
        {
          "internalType": "address",
          "name": "",
          "type": "address"
        }
      ],
      "payable": false,
      "stateMutability": "view",
      "type": "function"
    },
    {
      "constant": true,
      "inputs": [],
      "name": "addressOfKittieHell",
      "outputs": [
        {
          "internalType": "address",
          "name": "",
          "type": "address"
        }
      ],
      "payable": false,
      "stateMutability": "view",
      "type": "function"
    },
    {
      "constant": true,
      "inputs": [],
      "name": "addressOfKittieHellDB",
      "outputs": [
        {
          "internalType": "address",
          "name": "",
          "type": "address"
        }
      ],
      "payable": false,
      "stateMutability": "view",
      "type": "function"
    },
    {
      "constant": true,
      "inputs": [],
      "name": "addressOfProfileDB",
      "outputs": [
        {
          "internalType": "address",
          "name": "",
          "type": "address"
        }
      ],
      "payable": false,
      "stateMutability": "view",
      "type": "function"
    },
    {
      "constant": true,
      "inputs": [],
      "name": "addressOfRarityCalculator",
      "outputs": [
        {
          "internalType": "address",
          "name": "",
          "type": "address"
        }
      ],
      "payable": false,
      "stateMutability": "view",
      "type": "function"
    },
    {
      "constant": true,
      "inputs": [],
      "name": "addressOfRegister",
      "outputs": [
        {
          "internalType": "address",
          "name": "",
          "type": "address"
        }
      ],
      "payable": false,
      "stateMutability": "view",
      "type": "function"
    },
    {
      "constant": true,
      "inputs": [],
      "name": "addressOfRoleDB",
      "outputs": [
        {
          "internalType": "address",
          "name": "",
          "type": "address"
        }
      ],
      "payable": false,
      "stateMutability": "view",
      "type": "function"
    },
    {
      "constant": true,
      "inputs": [],
      "name": "addressOfScheduler",
      "outputs": [
        {
          "internalType": "address",
          "name": "",
          "type": "address"
        }
      ],
      "payable": false,
      "stateMutability": "view",
      "type": "function"
    },
    {
      "constant": true,
      "inputs": [],
      "name": "addressOfTimeContract",
      "outputs": [
        {
          "internalType": "address",
          "name": "",
          "type": "address"
        }
      ],
      "payable": false,
      "stateMutability": "view",
      "type": "function"
    },
    {
      "constant": false,
      "inputs": [
        {
          "internalType": "uint256",
          "name": "jobId",
          "type": "uint256"
        }
      ],
      "name": "executeJob",
      "outputs": [
        {
          "internalType": "bytes",
          "name": "",
          "type": "bytes"
        }
      ],
      "payable": false,
      "stateMutability": "nonpayable",
      "type": "function"
    },
    {
      "constant": false,
      "inputs": [],
      "name": "executeScheduledJobs",
      "outputs": [],
      "payable": false,
      "stateMutability": "nonpayable",
      "type": "function"
    },
    {
      "constant": true,
      "inputs": [
        {
          "internalType": "string",
          "name": "name",
          "type": "string"
        }
      ],
      "name": "getContract",
      "outputs": [
        {
          "internalType": "address",
          "name": "",
          "type": "address"
        }
      ],
      "payable": false,
      "stateMutability": "view",
      "type": "function"
    },
    {
      "constant": true,
      "inputs": [],
      "name": "maxJobsForOneRun",
      "outputs": [
        {
          "internalType": "uint256",
          "name": "",
          "type": "uint256"
        }
      ],
      "payable": false,
      "stateMutability": "view",
      "type": "function"
    },
    {
      "constant": true,
      "inputs": [],
      "name": "owner",
      "outputs": [
        {
          "internalType": "address payable",
          "name": "",
          "type": "address"
        }
      ],
      "payable": false,
      "stateMutability": "view",
      "type": "function"
    },
    {
      "constant": false,
      "inputs": [
        {
          "internalType": "string",
          "name": "name",
          "type": "string"
        }
      ],
      "name": "removeContract",
      "outputs": [],
      "payable": false,
      "stateMutability": "nonpayable",
      "type": "function"
    },
    {
      "constant": false,
      "inputs": [
        {
          "internalType": "uint256",
          "name": "_maxJobsForOneRun",
          "type": "uint256"
        }
      ],
      "name": "setMaxJobsForOneRun",
      "outputs": [],
      "payable": false,
      "stateMutability": "nonpayable",
      "type": "function"
    },
    {
      "constant": false,
      "inputs": [
        {
          "internalType": "address payable",
          "name": "newOwner",
          "type": "address"
        }
      ],
      "name": "transferOwnership",
      "outputs": [],
      "payable": false,
      "stateMutability": "nonpayable",
      "type": "function"
    },
    {
      "constant": false,
      "inputs": [
        {
          "internalType": "string",
          "name": "name",
          "type": "string"
        },
        {
          "internalType": "address",
          "name": "contractAddress",
          "type": "address"
        }
      ],
      "name": "updateContract",
      "outputs": [],
      "payable": false,
      "stateMutability": "nonpayable",
      "type": "function"
    },
    {
      "constant": false,
      "inputs": [],
      "name": "initialize",
      "outputs": [],
      "payable": false,
      "stateMutability": "nonpayable",
      "type": "function"
    },
    {
      "constant": false,
      "inputs": [
        {
          "internalType": "string",
          "name": "contractName",
          "type": "string"
        },
        {
          "internalType": "bytes",
          "name": "payload",
          "type": "bytes"
        }
      ],
      "name": "execute",
      "outputs": [
        {
          "internalType": "bytes",
          "name": "",
          "type": "bytes"
        }
      ],
      "payable": true,
      "stateMutability": "payable",
      "type": "function"
    }
  ],
  "bytecode": "0x6080604052600260355533603360006101000a81548173ffffffffffffffffffffffffffffffffffffffff021916908373ffffffffffffffffffffffffffffffffffffffff160217905550612e4f806100596000396000f3fe6080604052600436106101d85760003560e01c80638e771e7911610102578063bf5b601611610095578063eed9c25b11610064578063eed9c25b14610ddd578063f2fde38b14610e34578063f6df25d514610e85578063fcc47c4f14610edc576101d8565b8063bf5b601614610bf0578063c5ed75bb14610cd8578063d3b12c1514610d2f578063ee71227f14610d86576101d8565b806397623b58116100d157806397623b5814610a235780639a087b9714610aeb578063a0d1170b14610b42578063beb9eb0b14610b99576101d8565b80638e771e79146108e35780638ec82c8a1461093a57806393812d2014610991578063968f1412146109e8576101d8565b80634e7f067b1161017a578063697a60b311610149578063697a60b3146107365780638129fc1c1461081e57806384d67617146108355780638da5cb5b1461088c576101d8565b80634e7f067b146105a957806358838def146106005780635c757125146106b4578063658d74761461070b576101d8565b806335817773116101b6578063358177731461039c57806342febb69146104a4578063462d46f6146104fb578063492e469214610552576101d8565b806320ba5910146101e7578063229320ca1461023e5780633185048214610385575b3480156101e457600080fd5b50005b3480156101f357600080fd5b506101fc610f33565b604051808273ffffffffffffffffffffffffffffffffffffffff1673ffffffffffffffffffffffffffffffffffffffff16815260200191505060405180910390f35b61030a6004803603604081101561025457600080fd5b810190808035906020019064010000000081111561027157600080fd5b82018360208201111561028357600080fd5b803590602001918460018302840111640100000000831117156102a557600080fd5b9091929391929390803590602001906401000000008111156102c657600080fd5b8201836020820111156102d857600080fd5b803590602001918460018302840111640100000000831117156102fa57600080fd5b9091929391929390505050610f78565b6040518080602001828103825283818151815260200191508051906020019080838360005b8381101561034a57808201518184015260208101905061032f565b50505050905090810190601f1680156103775780820380516001836020036101000a031916815260200191505b509250505060405180910390f35b34801561039157600080fd5b5061039a611250565b005b3480156103a857600080fd5b50610462600480360360208110156103bf57600080fd5b81019080803590602001906401000000008111156103dc57600080fd5b8201836020820111156103ee57600080fd5b8035906020019184600183028401116401000000008311171561041057600080fd5b91908080601f016020809104026020016040519081016040528093929190818152602001838380828437600081840152601f19601f820116905080830192505050505050509192919290505050611615565b604051808273ffffffffffffffffffffffffffffffffffffffff1673ffffffffffffffffffffffffffffffffffffffff16815260200191505060405180910390f35b3480156104b057600080fd5b506104b96118f5565b604051808273ffffffffffffffffffffffffffffffffffffffff1673ffffffffffffffffffffffffffffffffffffffff16815260200191505060405180910390f35b34801561050757600080fd5b5061051061193a565b604051808273ffffffffffffffffffffffffffffffffffffffff1673ffffffffffffffffffffffffffffffffffffffff16815260200191505060405180910390f35b34801561055e57600080fd5b5061056761197f565b604051808273ffffffffffffffffffffffffffffffffffffffff1673ffffffffffffffffffffffffffffffffffffffff16815260200191505060405180910390f35b3480156105b557600080fd5b506105be6119c4565b604051808273ffffffffffffffffffffffffffffffffffffffff1673ffffffffffffffffffffffffffffffffffffffff16815260200191505060405180910390f35b34801561060c57600080fd5b506106396004803603602081101561062357600080fd5b8101908080359060200190929190505050611a09565b6040518080602001828103825283818151815260200191508051906020019080838360005b8381101561067957808201518184015260208101905061065e565b50505050905090810190601f1680156106a65780820380516001836020036101000a031916815260200191505b509250505060405180910390f35b3480156106c057600080fd5b506106c9611fcc565b604051808273ffffffffffffffffffffffffffffffffffffffff1673ffffffffffffffffffffffffffffffffffffffff16815260200191505060405180910390f35b34801561071757600080fd5b50610720612011565b6040518082815260200191505060405180910390f35b34801561074257600080fd5b5061081c6004803603604081101561075957600080fd5b810190808035906020019064010000000081111561077657600080fd5b82018360208201111561078857600080fd5b803590602001918460018302840111640100000000831117156107aa57600080fd5b91908080601f016020809104026020016040519081016040528093929190818152602001838380828437600081840152601f19601f820116905080830192505050505050509192919290803573ffffffffffffffffffffffffffffffffffffffff169060200190929190505050612017565b005b34801561082a57600080fd5b506108336121dd565b005b34801561084157600080fd5b5061084a6122dc565b604051808273ffffffffffffffffffffffffffffffffffffffff1673ffffffffffffffffffffffffffffffffffffffff16815260200191505060405180910390f35b34801561089857600080fd5b506108a1612321565b604051808273ffffffffffffffffffffffffffffffffffffffff1673ffffffffffffffffffffffffffffffffffffffff16815260200191505060405180910390f35b3480156108ef57600080fd5b506108f8612347565b604051808273ffffffffffffffffffffffffffffffffffffffff1673ffffffffffffffffffffffffffffffffffffffff16815260200191505060405180910390f35b34801561094657600080fd5b5061094f61238c565b604051808273ffffffffffffffffffffffffffffffffffffffff1673ffffffffffffffffffffffffffffffffffffffff16815260200191505060405180910390f35b34801561099d57600080fd5b506109a66123d1565b604051808273ffffffffffffffffffffffffffffffffffffffff1673ffffffffffffffffffffffffffffffffffffffff16815260200191505060405180910390f35b3480156109f457600080fd5b50610a2160048036036020811015610a0b57600080fd5b8101908080359060200190929190505050612416565b005b348015610a2f57600080fd5b50610ae960048036036020811015610a4657600080fd5b8101908080359060200190640100000000811115610a6357600080fd5b820183602082011115610a7557600080fd5b80359060200191846001830284011164010000000083111715610a9757600080fd5b91908080601f016020809104026020016040519081016040528093929190818152602001838380828437600081840152601f19601f820116905080830192505050505050509192919290505050612484565b005b348015610af757600080fd5b50610b0061264a565b604051808273ffffffffffffffffffffffffffffffffffffffff1673ffffffffffffffffffffffffffffffffffffffff16815260200191505060405180910390f35b348015610b4e57600080fd5b50610b5761268f565b604051808273ffffffffffffffffffffffffffffffffffffffff1673ffffffffffffffffffffffffffffffffffffffff16815260200191505060405180910390f35b348015610ba557600080fd5b50610bae6126d4565b604051808273ffffffffffffffffffffffffffffffffffffffff1673ffffffffffffffffffffffffffffffffffffffff16815260200191505060405180910390f35b348015610bfc57600080fd5b50610cd660048036036040811015610c1357600080fd5b8101908080359060200190640100000000811115610c3057600080fd5b820183602082011115610c4257600080fd5b80359060200191846001830284011164010000000083111715610c6457600080fd5b91908080601f016020809104026020016040519081016040528093929190818152602001838380828437600081840152601f19601f820116905080830192505050505050509192919290803573ffffffffffffffffffffffffffffffffffffffff169060200190929190505050612719565b005b348015610ce457600080fd5b50610ced61292a565b604051808273ffffffffffffffffffffffffffffffffffffffff1673ffffffffffffffffffffffffffffffffffffffff16815260200191505060405180910390f35b348015610d3b57600080fd5b50610d4461296f565b604051808273ffffffffffffffffffffffffffffffffffffffff1673ffffffffffffffffffffffffffffffffffffffff16815260200191505060405180910390f35b348015610d9257600080fd5b50610d9b6129b4565b604051808273ffffffffffffffffffffffffffffffffffffffff1673ffffffffffffffffffffffffffffffffffffffff16815260200191505060405180910390f35b348015610de957600080fd5b50610df26129f9565b604051808273ffffffffffffffffffffffffffffffffffffffff1673ffffffffffffffffffffffffffffffffffffffff16815260200191505060405180910390f35b348015610e4057600080fd5b50610e8360048036036020811015610e5757600080fd5b81019080803573ffffffffffffffffffffffffffffffffffffffff169060200190929190505050612a3e565b005b348015610e9157600080fd5b50610e9a612b0e565b604051808273ffffffffffffffffffffffffffffffffffffffff1673ffffffffffffffffffffffffffffffffffffffff16815260200191505060405180910390f35b348015610ee857600080fd5b50610ef1612b53565b604051808273ffffffffffffffffffffffffffffffffffffffff1673ffffffffffffffffffffffffffffffffffffffff16815260200191505060405180910390f35b6000610f736040518060400160405280600781526020017f42657474696e6700000000000000000000000000000000000000000000000000815250611615565b905090565b60606000610fba6040518060400160405280600a81526020017f467265657a65496e666f00000000000000000000000000000000000000000000815250611615565b90508073ffffffffffffffffffffffffffffffffffffffff1663054f7d9c6040518163ffffffff1660e01b815260040160206040518083038186803b15801561100257600080fd5b505afa158015611016573d6000803e3d6000fd5b505050506040513d602081101561102c57600080fd5b8101908080519060200190929190505050156110b0576040517f08c379a00000000000000000000000000000000000000000000000000000000081526004018080602001828103825260108152602001807f53797374656d2069732066726f7a656e0000000000000000000000000000000081525060200191505060405180910390fd5b60006110ff87878080601f016020809104026020016040519081016040528093929190818152602001838380828437600081840152601f19601f82011690508083019250505050505050611615565b905060008585905090506060601482016040519080825280601f01601f1916602001820160405280156111415781602001600182028038833980820191505090505b50905060148201810133815260148301825260206024602037600460205101602083019150836020820183375050600060608473ffffffffffffffffffffffffffffffffffffffff1634846040518082805190602001908083835b602083106111bf578051825260208201915060208101905060208303925061119c565b6001836020036101000a03801982511681845116808217855250505050505090500191505060006040518083038185875af1925050503d8060008114611221576040519150601f19603f3d011682016040523d82523d6000602084013e611226565b606091505b509150915081611237578060208201fd5b61123f612b98565b809650505050505050949350505050565b60006112906040518060400160405280600981526020017f47656e6572696344420000000000000000000000000000000000000000000000815250611615565b9050600060608273ffffffffffffffffffffffffffffffffffffffff166040518060400160405280600681526020017f526f6c65444200000000000000000000000000000000000000000000000000008152503360405160200180807f61646d696e0000000000000000000000000000000000000000000000000000008152506005018273ffffffffffffffffffffffffffffffffffffffff1673ffffffffffffffffffffffffffffffffffffffff1660601b8152601401915050604051602081830303815290604052805190602001206040516024018080602001838152602001828103825284818151815260200191508051906020019080838360005b838110156113aa57808201518184015260208101905061138f565b50505050905090810190601f1680156113d75780820380516001836020036101000a031916815260200191505b5093505050506040516020818303038152906040527f1c58c8bb000000000000000000000000000000000000000000000000000000007bffffffffffffffffffffffffffffffffffffffffffffffffffffffff19166020820180517bffffffffffffffffffffffffffffffffffffffffffffffffffffffff83818316178352505050506040518082805190602001908083835b6020831061148d578051825260208201915060208101905060208303925061146a565b6001836020036101000a038019825116818451168082178552505050505050905001915050600060405180830381855afa9150503d80600081146114ed576040519150601f19603f3d011682016040523d82523d6000602084013e6114f2565b606091505b50915091508161156a576040517f08c379a00000000000000000000000000000000000000000000000000000000081526004018080602001828103825260138152602001807f4661696c656420746f206c6f616420726f6c650000000000000000000000000081525060200191505060405180910390fd5b600081806020019051602081101561158157600080fd5b8101908080519060200190929190505050905080611607576040517f08c379a00000000000000000000000000000000000000000000000000000000081526004018080602001828103825260198152602001807f53656e6465722068617320746f20626520616e2061646d696e0000000000000081525060200191505060405180910390fd5b61160f612b98565b50505050565b60008073ffffffffffffffffffffffffffffffffffffffff166034836040518082805190602001908083835b602083106116645780518252602082019150602081019050602083039250611641565b6001836020036101000a038019825116818451168082178552505050505050905001915050908152602001604051809103902060009054906101000a900473ffffffffffffffffffffffffffffffffffffffff1673ffffffffffffffffffffffffffffffffffffffff1614156118645760608260405160200180807f436f6e7472616374206e6f7420726567697374657265643a200000000000000081525060190182805190602001908083835b602083106117355780518252602082019150602081019050602083039250611712565b6001836020036101000a0380198251168184511680821785525050505050509050019150506040516020818303038152906040526040516024018080602001828103825283818151815260200191508051906020019080838360005b838110156117ac578082015181840152602081019050611791565b50505050905090810190601f1680156117d95780820380516001836020036101000a031916815260200191505b50925050506040516020818303038152906040527f08c379a0000000000000000000000000000000000000000000000000000000007bffffffffffffffffffffffffffffffffffffffffffffffffffffffff19166020820180517bffffffffffffffffffffffffffffffffffffffffffffffffffffffff838183161783525050505090508060208201fd5b6034826040518082805190602001908083835b6020831061189a5780518252602082019150602081019050602083039250611877565b6001836020036101000a038019825116818451168082178552505050505050905001915050908152602001604051809103902060009054906101000a900473ffffffffffffffffffffffffffffffffffffffff169050919050565b60006119356040518060400160405280600a81526020017f4b697474696548656c6c00000000000000000000000000000000000000000000815250611615565b905090565b600061197a6040518060400160405280600d81526020017f47616d65566172416e6446656500000000000000000000000000000000000000815250611615565b905090565b60006119bf6040518060400160405280601081526020017f52617269747943616c63756c61746f7200000000000000000000000000000000815250611615565b905090565b6000611a046040518060400160405280600c81526020017f54696d65436f6e74726163740000000000000000000000000000000000000000815250611615565b905090565b60606000611a4b6040518060400160405280600981526020017f47656e6572696344420000000000000000000000000000000000000000000000815250611615565b9050600060608273ffffffffffffffffffffffffffffffffffffffff166040518060400160405280600681526020017f526f6c65444200000000000000000000000000000000000000000000000000008152503360405160200180807f61646d696e0000000000000000000000000000000000000000000000000000008152506005018273ffffffffffffffffffffffffffffffffffffffff1673ffffffffffffffffffffffffffffffffffffffff1660601b8152601401915050604051602081830303815290604052805190602001206040516024018080602001838152602001828103825284818151815260200191508051906020019080838360005b83811015611b65578082015181840152602081019050611b4a565b50505050905090810190601f168015611b925780820380516001836020036101000a031916815260200191505b5093505050506040516020818303038152906040527f1c58c8bb000000000000000000000000000000000000000000000000000000007bffffffffffffffffffffffffffffffffffffffffffffffffffffffff19166020820180517bffffffffffffffffffffffffffffffffffffffffffffffffffffffff83818316178352505050506040518082805190602001908083835b60208310611c485780518252602082019150602081019050602083039250611c25565b6001836020036101000a038019825116818451168082178552505050505050905001915050600060405180830381855afa9150503d8060008114611ca8576040519150601f19603f3d011682016040523d82523d6000602084013e611cad565b606091505b509150915081611d25576040517f08c379a00000000000000000000000000000000000000000000000000000000081526004018080602001828103825260138152602001807f4661696c656420746f206c6f616420726f6c650000000000000000000000000081525060200191505060405180910390fd5b6000818060200190516020811015611d3c57600080fd5b8101908080519060200190929190505050905080611dc2576040517f08c379a00000000000000000000000000000000000000000000000000000000081526004018080602001828103825260198152602001807f53656e6465722068617320746f20626520616e2061646d696e0000000000000081525060200191505060405180910390fd5b6000611e026040518060400160405280600781526020017f43726f6e4a6f6200000000000000000000000000000000000000000000000000815250611615565b90508073ffffffffffffffffffffffffffffffffffffffff1687604051602401808281526020019150506040516020818303038152906040527f58838def000000000000000000000000000000000000000000000000000000007bffffffffffffffffffffffffffffffffffffffffffffffffffffffff19166020820180517bffffffffffffffffffffffffffffffffffffffffffffffffffffffff83818316178352505050506040518082805190602001908083835b60208310611edc5780518252602082019150602081019050602083039250611eb9565b6001836020036101000a0380198251168184511680821785525050505050509050019150506000604051808303816000865af19150503d8060008114611f3e576040519150601f19603f3d011682016040523d82523d6000602084013e611f43565b606091505b50809450819550505083611fbf576040517f08c379a00000000000000000000000000000000000000000000000000000000081526004018080602001828103825260138152602001807f457865637574652063616c6c206661696c65640000000000000000000000000081525060200191505060405180910390fd5b8295505050505050919050565b600061200c6040518060400160405280600981526020017f50726f66696c6544420000000000000000000000000000000000000000000000815250611615565b905090565b60355481565b603360009054906101000a900473ffffffffffffffffffffffffffffffffffffffff1673ffffffffffffffffffffffffffffffffffffffff163373ffffffffffffffffffffffffffffffffffffffff161461206e57fe5b600073ffffffffffffffffffffffffffffffffffffffff166034836040518082805190602001908083835b602083106120bc5780518252602082019150602081019050602083039250612099565b6001836020036101000a038019825116818451168082178552505050505050905001915050908152602001604051809103902060009054906101000a900473ffffffffffffffffffffffffffffffffffffffff1673ffffffffffffffffffffffffffffffffffffffff16141561213157600080fd5b806034836040518082805190602001908083835b602083106121685780518252602082019150602081019050602083039250612145565b6001836020036101000a038019825116818451168082178552505050505050905001915050908152602001604051809103902060006101000a81548173ffffffffffffffffffffffffffffffffffffffff021916908373ffffffffffffffffffffffffffffffffffffffff1602179055505050565b600060019054906101000a900460ff16806121fc57506121fb612db5565b5b8061221357506000809054906101000a900460ff16155b612268576040517f08c379a000000000000000000000000000000000000000000000000000000000815260040180806020018281038252602e815260200180612ded602e913960400191505060405180910390fd5b60008060019054906101000a900460ff1615905080156122b8576001600060016101000a81548160ff02191690831515021790555060016000806101000a81548160ff0219169083151502179055505b80156122d95760008060016101000a81548160ff0219169083151502179055505b50565b600061231c6040518060400160405280600c81526020017f4b697474696548656c6c44420000000000000000000000000000000000000000815250611615565b905090565b603360009054906101000a900473ffffffffffffffffffffffffffffffffffffffff1681565b60006123876040518060400160405280600681526020017f526f6c6544420000000000000000000000000000000000000000000000000000815250611615565b905090565b60006123cc6040518060400160405280600b81526020017f486974735265736f6c7665000000000000000000000000000000000000000000815250611615565b905090565b60006124116040518060400160405280600981526020017f5363686564756c65720000000000000000000000000000000000000000000000815250611615565b905090565b603360009054906101000a900473ffffffffffffffffffffffffffffffffffffffff1673ffffffffffffffffffffffffffffffffffffffff163373ffffffffffffffffffffffffffffffffffffffff161461246d57fe5b6000811161247a57600080fd5b8060358190555050565b603360009054906101000a900473ffffffffffffffffffffffffffffffffffffffff1673ffffffffffffffffffffffffffffffffffffffff163373ffffffffffffffffffffffffffffffffffffffff16146124db57fe5b600073ffffffffffffffffffffffffffffffffffffffff166034826040518082805190602001908083835b602083106125295780518252602082019150602081019050602083039250612506565b6001836020036101000a038019825116818451168082178552505050505050905001915050908152602001604051809103902060009054906101000a900473ffffffffffffffffffffffffffffffffffffffff1673ffffffffffffffffffffffffffffffffffffffff16141561259e57600080fd5b60006034826040518082805190602001908083835b602083106125d657805182526020820191506020810190506020830392506125b3565b6001836020036101000a038019825116818451168082178552505050505050905001915050908152602001604051809103902060006101000a81548173ffffffffffffffffffffffffffffffffffffffff021916908373ffffffffffffffffffffffffffffffffffffffff16021790555050565b600061268a6040518060400160405280600981526020017f466f726665697465720000000000000000000000000000000000000000000000815250611615565b905090565b60006126cf6040518060400160405280600c81526020017f446973747269627574696f6e0000000000000000000000000000000000000000815250611615565b905090565b60006127146040518060400160405280600a81526020017f474d536574746572444200000000000000000000000000000000000000000000815250611615565b905090565b603360009054906101000a900473ffffffffffffffffffffffffffffffffffffffff1673ffffffffffffffffffffffffffffffffffffffff163373ffffffffffffffffffffffffffffffffffffffff161461277057fe5b600073ffffffffffffffffffffffffffffffffffffffff166034836040518082805190602001908083835b602083106127be578051825260208201915060208101905060208303925061279b565b6001836020036101000a038019825116818451168082178552505050505050905001915050908152602001604051809103902060009054906101000a900473ffffffffffffffffffffffffffffffffffffffff1673ffffffffffffffffffffffffffffffffffffffff161461287e576040517f08c379a0000000000000000000000000000000000000000000000000000000008152600401808060200182810382526026815260200180612dc76026913960400191505060405180910390fd5b806034836040518082805190602001908083835b602083106128b55780518252602082019150602081019050602083039250612892565b6001836020036101000a038019825116818451168082178552505050505050905001915050908152602001604051809103902060006101000a81548173ffffffffffffffffffffffffffffffffffffffff021916908373ffffffffffffffffffffffffffffffffffffffff1602179055505050565b600061296a6040518060400160405280600781526020017f43726f6e4a6f6200000000000000000000000000000000000000000000000000815250611615565b905090565b60006129af6040518060400160405280600a81526020017f474d476574746572444200000000000000000000000000000000000000000000815250611615565b905090565b60006129f46040518060400160405280600b81526020017f47616d654d616e61676572000000000000000000000000000000000000000000815250611615565b905090565b6000612a396040518060400160405280600881526020017f5265676973746572000000000000000000000000000000000000000000000000815250611615565b905090565b603360009054906101000a900473ffffffffffffffffffffffffffffffffffffffff1673ffffffffffffffffffffffffffffffffffffffff163373ffffffffffffffffffffffffffffffffffffffff1614612a9557fe5b600073ffffffffffffffffffffffffffffffffffffffff168173ffffffffffffffffffffffffffffffffffffffff1614612b0b5780603360006101000a81548173ffffffffffffffffffffffffffffffffffffffff021916908373ffffffffffffffffffffffffffffffffffffffff1602179055505b50565b6000612b4e6040518060400160405280600b81526020017f456e646f776d656e744442000000000000000000000000000000000000000000815250611615565b905090565b6000612b936040518060400160405280600d81526020017f456e646f776d656e7446756e6400000000000000000000000000000000000000815250611615565b905090565b6000612bd86040518060400160405280600781526020017f43726f6e4a6f6200000000000000000000000000000000000000000000000000815250611615565b905060008090505b603554811015612db157600060608373ffffffffffffffffffffffffffffffffffffffff166040516024016040516020818303038152906040527f05044bac000000000000000000000000000000000000000000000000000000007bffffffffffffffffffffffffffffffffffffffffffffffffffffffff19166020820180517bffffffffffffffffffffffffffffffffffffffffffffffffffffffff83818316178352505050506040518082805190602001908083835b60208310612cbb5780518252602082019150602081019050602083039250612c98565b6001836020036101000a0380198251168184511680821785525050505050509050019150506000604051808303816000865af19150503d8060008114612d1d576040519150601f19603f3d011682016040523d82523d6000602084013e612d22565b606091505b50915091508115612d75576000818060200190516040811015612d4457600080fd5b81019080805190602001909291908051906020019092919050505050905080612d6f57505050612db1565b50612da2565b7fd0c39055083f1cd7e99672a54796862cd3b34c3db7964de3d92cfc9a9d47362060405160405180910390a15b50508080600101915050612be0565b5050565b600080303b9050600081149150509056fe43616e206e6f742061646420636f6e74726163742077697468207a65726f2061646472657373436f6e747261637420696e7374616e63652068617320616c7265616479206265656e20696e697469616c697a6564a265627a7a72315820335eb0ab6844cc4b6b1a0a34faa96889d948ef126035e6329c2d3f3c15667cec64736f6c634300050d0032",
  "source": "pragma solidity ^0.5.5;\n\nimport \"./libs/zos-lib/Initializable.sol\";\nimport \"./modules/proxy/ProxyBase.sol\";\nimport \"./modules/proxy/CronJobProxy.sol\";\nimport \"./modules/proxy/FreezeInfo.sol\";\n\n/**\n * @title Proxy contract is a main entry point for KittyFight contract system\n * @author @pash7ka\n */\ncontract KFProxy is\n    Initializable,          //Allows to use ZeppelinOS Proxy\n    ProxyBase,\n    CronJobProxy\n{\n\n    /**\n     * This function should be run instead of constructor\n     * See https://docs.zeppelinos.org/docs/pattern.html#the-constructor-caveat\n     */\n    function initialize() initializer public {\n        //TODO: Initialize contract addressses here or in separate function\n    }\n\n    /**\n     * Make default function non-payable\n     */\n    function () external {}\n\n    /**\n     * @dev This function forwards a payload and ether to specified contract\n     * @param contractName Name of the contract to worward a message to. Uses ContractManager to get address of the contract\n     * @param payload Data to send to the target contract. It should contain method signature and arguments packed.\n     * It's possible to use https://web3js.readthedocs.io/en/1.0/web3-eth-abi.html#encodefunctioncall to generate this\n     */\n    function execute(string calldata contractName, bytes calldata payload) external payable returns (bytes memory){\n        FreezeInfo freezeInfo = FreezeInfo(getContract(CONTRACT_NAME_FREEZE_INFO));\n        require(!freezeInfo.frozen(), 'System is frozen');\n\n        address payable target = address(uint160(getContract(contractName)));\n        //assert(target != address payable(0), 'Target contract is not registered'); //This check is already done in ContractManager\n\n        uint256 len = payload.length;\n        bytes memory payloadWithSender = new bytes(len+20);\n\n        assembly {\n\n            //write msg.sender to the end of array\n            let ptr := add(payloadWithSender, add(len, /*32-12*/20)) //this may rewrite frist 32 bytes with length, so we need to update them later\n            mstore(ptr, caller)\n            mstore(payloadWithSender, add(len, 20)) //write payload length, which may be damaged on previous step\n\n            // find payload\n            calldatacopy(0x20, /*4+32*/ 36, 32)     //load position of second argument to 0x20 in arguments block\n            let payloadPos := add(mload(0x20), 4)   //add offset of arguments block\n\n            // copy payload\n            ptr := add(payloadWithSender, 32)               //skip header of the array\n            calldatacopy(ptr, add(payloadPos, 32), len)\n\n        }\n\n        (bool success, bytes memory result) = target.call.value(msg.value)(payloadWithSender);\n        //require(success, 'Proxied call failed');\n        if(!success) assembly {\n            revert(add(result,32), result)\n        }\n\n        _executeScheduledJobs();\n\n        return result;\n    }\n\n\n\n}\n",
  "sourcePath": "/Users/ziweizhang/Desktop/kittieFight-mainnet/alpha/contracts/KFProxy.sol",
  "compiler": {
    "name": "solc",
    "version": "0.5.13+commit.5b0b510c.Emscripten.clang"
  },
  "schemaVersion": "3.0.11",
  "updatedAt": "2019-11-24T20:42:57.311Z",
  "devdoc": {
    "author": "@pash7ka",
    "methods": {
      "execute(string,bytes)": {
        "details": "This function forwards a payload and ether to specified contract",
        "params": {
          "contractName": "Name of the contract to worward a message to. Uses ContractManager to get address of the contract",
          "payload": "Data to send to the target contract. It should contain method signature and arguments packed. It's possible to use https://web3js.readthedocs.io/en/1.0/web3-eth-abi.html#encodefunctioncall to generate this"
        }
      },
      "executeScheduledJobs()": {
        "details": "This can be executed by admins, but since KFProxy can not use Guard, we need to do check manually"
      }
    },
    "title": "Proxy contract is a main entry point for KittyFight contract system"
  },
  "userdoc": {
    "methods": {
      "addressOfRegister()": {
        "notice": "Getters for KittyFight system contracts"
      },
      "executeScheduledJobs()": {
        "notice": "Executes up to maxJobsForOneRun scheduled jobs, if available"
      },
      "initialize()": {
        "notice": "This function should be run instead of constructor See https://docs.zeppelinos.org/docs/pattern.html#the-constructor-caveat"
      }
    }
  }
}