{
  "contractName": "KittieHellDB",
  "abi": [
    {
      "inputs": [
        {
          "internalType": "contract GenericDB",
          "name": "_genericDB",
          "type": "address"
        }
      ],
      "payable": false,
      "stateMutability": "nonpayable",
      "type": "constructor"
    },
    {
      "anonymous": false,
      "inputs": [
        {
          "indexed": true,
          "internalType": "uint256",
          "name": "kittyID",
          "type": "uint256"
        },
        {
          "indexed": false,
          "internalType": "address",
          "name": "_owner",
          "type": "address"
        },
        {
          "indexed": true,
          "internalType": "uint256",
          "name": "_id",
          "type": "uint256"
        }
      ],
      "name": "AddedToKittieHellDB",
      "type": "event"
    },
    {
      "constant": true,
      "inputs": [],
      "name": "genericDB",
      "outputs": [
        {
          "internalType": "contract GenericDB",
          "name": "",
          "type": "address"
        }
      ],
      "payable": false,
      "stateMutability": "view",
      "type": "function"
    },
    {
      "constant": true,
      "inputs": [],
      "name": "kittieHELL",
      "outputs": [
        {
          "internalType": "contract KittieHell",
          "name": "",
          "type": "address"
        }
      ],
      "payable": false,
      "stateMutability": "view",
      "type": "function"
    },
    {
      "constant": true,
      "inputs": [],
      "name": "owner",
      "outputs": [
        {
          "internalType": "address payable",
          "name": "",
          "type": "address"
        }
      ],
      "payable": false,
      "stateMutability": "view",
      "type": "function"
    },
    {
      "constant": true,
      "inputs": [],
      "name": "proxy",
      "outputs": [
        {
          "internalType": "contract ProxyBase",
          "name": "",
          "type": "address"
        }
      ],
      "payable": false,
      "stateMutability": "view",
      "type": "function"
    },
    {
      "constant": false,
      "inputs": [
        {
          "internalType": "contract ProxyBase",
          "name": "_proxy",
          "type": "address"
        }
      ],
      "name": "setProxy",
      "outputs": [],
      "payable": false,
      "stateMutability": "nonpayable",
      "type": "function"
    },
    {
      "constant": false,
      "inputs": [
        {
          "internalType": "address payable",
          "name": "newOwner",
          "type": "address"
        }
      ],
      "name": "transferOwnership",
      "outputs": [],
      "payable": false,
      "stateMutability": "nonpayable",
      "type": "function"
    },
    {
      "constant": false,
      "inputs": [
        {
          "internalType": "contract GenericDB",
          "name": "_genericDB",
          "type": "address"
        }
      ],
      "name": "setGenericDB",
      "outputs": [],
      "payable": false,
      "stateMutability": "nonpayable",
      "type": "function"
    },
    {
      "constant": false,
      "inputs": [],
      "name": "setKittieHELL",
      "outputs": [],
      "payable": false,
      "stateMutability": "nonpayable",
      "type": "function"
    },
    {
      "constant": true,
      "inputs": [
        {
          "internalType": "uint256",
          "name": "_id",
          "type": "uint256"
        }
      ],
      "name": "doesGhostExist",
      "outputs": [
        {
          "internalType": "bool",
          "name": "",
          "type": "bool"
        }
      ],
      "payable": false,
      "stateMutability": "view",
      "type": "function"
    },
    {
      "constant": true,
      "inputs": [],
      "name": "getGhostsListSize",
      "outputs": [
        {
          "internalType": "uint256",
          "name": "",
          "type": "uint256"
        }
      ],
      "payable": false,
      "stateMutability": "view",
      "type": "function"
    },
    {
      "constant": false,
      "inputs": [
        {
          "internalType": "uint256",
          "name": "_id",
          "type": "uint256"
        },
        {
          "internalType": "uint256",
          "name": "_kittieID",
          "type": "uint256"
        },
        {
          "internalType": "address",
          "name": "_owner",
          "type": "address"
        }
      ],
      "name": "loserKittieToHell",
      "outputs": [],
      "payable": false,
      "stateMutability": "nonpayable",
      "type": "function"
    },
    {
      "constant": true,
      "inputs": [
        {
          "internalType": "uint256",
          "name": "_id",
          "type": "uint256"
        }
      ],
      "name": "getKittieAttributes",
      "outputs": [
        {
          "internalType": "uint256",
          "name": "",
          "type": "uint256"
        },
        {
          "internalType": "address",
          "name": "",
          "type": "address"
        },
        {
          "internalType": "bool",
          "name": "",
          "type": "bool"
        },
        {
          "internalType": "uint256",
          "name": "",
          "type": "uint256"
        }
      ],
      "payable": false,
      "stateMutability": "view",
      "type": "function"
    },
    {
      "constant": true,
      "inputs": [
        {
          "internalType": "uint256",
          "name": "_id",
          "type": "uint256"
        }
      ],
      "name": "getAdjacentGhost",
      "outputs": [
        {
          "internalType": "bool",
          "name": "",
          "type": "bool"
        },
        {
          "internalType": "uint256",
          "name": "",
          "type": "uint256"
        }
      ],
      "payable": false,
      "stateMutability": "view",
      "type": "function"
    },
    {
      "constant": true,
      "inputs": [],
      "name": "getLastGhostId",
      "outputs": [
        {
          "internalType": "uint256",
          "name": "",
          "type": "uint256"
        }
      ],
      "payable": false,
      "stateMutability": "view",
      "type": "function"
    },
    {
      "constant": false,
      "inputs": [
        {
          "internalType": "uint256",
          "name": "_kittieID",
          "type": "uint256"
        },
        {
          "internalType": "address",
          "name": "_owner",
          "type": "address"
        },
        {
          "internalType": "uint256",
          "name": "_kittieReplacement",
          "type": "uint256"
        }
      ],
      "name": "kittieReplacementToHell",
      "outputs": [
        {
          "internalType": "bool",
          "name": "",
          "type": "bool"
        },
        {
          "internalType": "uint256",
          "name": "_id",
          "type": "uint256"
        }
      ],
      "payable": false,
      "stateMutability": "nonpayable",
      "type": "function"
    },
    {
      "constant": true,
      "inputs": [
        {
          "internalType": "uint256",
          "name": "_kittieID",
          "type": "uint256"
        }
      ],
      "name": "getNumberOfReplacementKitties",
      "outputs": [
        {
          "internalType": "uint256",
          "name": "",
          "type": "uint256"
        }
      ],
      "payable": false,
      "stateMutability": "view",
      "type": "function"
    },
    {
      "constant": false,
      "inputs": [
        {
          "internalType": "uint256",
          "name": "_kittieID",
          "type": "uint256"
        },
        {
          "internalType": "uint256",
          "name": "_kty_amount",
          "type": "uint256"
        }
      ],
      "name": "lockKTYsInKittieHell",
      "outputs": [],
      "payable": false,
      "stateMutability": "nonpayable",
      "type": "function"
    },
    {
      "constant": true,
      "inputs": [],
      "name": "getTotalKTYsLockedInKittieHell",
      "outputs": [
        {
          "internalType": "uint256",
          "name": "",
          "type": "uint256"
        }
      ],
      "payable": false,
      "stateMutability": "view",
      "type": "function"
    },
    {
      "constant": true,
      "inputs": [],
      "name": "getTotalNumberOfGhostsInHell",
      "outputs": [
        {
          "internalType": "uint256",
          "name": "",
          "type": "uint256"
        }
      ],
      "payable": false,
      "stateMutability": "view",
      "type": "function"
    },
    {
      "constant": true,
      "inputs": [
        {
          "internalType": "uint256",
          "name": "_kittieID",
          "type": "uint256"
        }
      ],
      "name": "getGhostIdForKittie",
      "outputs": [
        {
          "internalType": "uint256",
          "name": "",
          "type": "uint256"
        }
      ],
      "payable": false,
      "stateMutability": "view",
      "type": "function"
    },
    {
      "constant": true,
      "inputs": [
        {
          "internalType": "uint256",
          "name": "_kittieID",
          "type": "uint256"
        }
      ],
      "name": "isKittieGhost",
      "outputs": [
        {
          "internalType": "bool",
          "name": "",
          "type": "bool"
        }
      ],
      "payable": false,
      "stateMutability": "view",
      "type": "function"
    }
  ],
  "bytecode": "0x60806040523480156200001157600080fd5b5060405162004cf138038062004cf1833981810160405260208110156200003757600080fd5b8101908080519060200190929190505050336000806101000a81548173ffffffffffffffffffffffffffffffffffffffff021916908373ffffffffffffffffffffffffffffffffffffffff1602179055506200009981620000a060201b60201c565b506200013b565b6000809054906101000a900473ffffffffffffffffffffffffffffffffffffffff1673ffffffffffffffffffffffffffffffffffffffff163373ffffffffffffffffffffffffffffffffffffffff1614620000f757fe5b80600260006101000a81548173ffffffffffffffffffffffffffffffffffffffff021916908373ffffffffffffffffffffffffffffffffffffffff16021790555050565b614ba6806200014b6000396000f3fe608060405234801561001057600080fd5b50600436106101375760003560e01c806395d63c00116100b8578063cf4f6cd51161007c578063cf4f6cd514610565578063cfafbde714610583578063d2799fe8146105cd578063ec556889146105d7578063f2fde38b14610621578063f557bd211461066557610137565b806395d63c001461043957806397107d6d1461047b57806398081ac2146104bf578063b4be5f5714610501578063b72819f51461054757610137565b806359822e5d116100ff57806359822e5d146102ef5780636470d3931461030d57806379fecc2e1461035a5780638da5cb5b146103785780638fa8bf0d146103c257610137565b80630d3664531461013c5780630df84986146101c35780632cf0b5641461021b5780633564e78c146102615780634afab815146102ab575b600080fd5b6101686004803603602081101561015257600080fd5b810190808035906020019092919050505061069d565b604051808581526020018473ffffffffffffffffffffffffffffffffffffffff1673ffffffffffffffffffffffffffffffffffffffff1681526020018315151515815260200182815260200194505050505060405180910390f35b610219600480360360608110156101d957600080fd5b810190808035906020019092919080359060200190929190803573ffffffffffffffffffffffffffffffffffffffff169060200190929190505050610d42565b005b6102476004803603602081101561023157600080fd5b8101908080359060200190929190505050611886565b604051808215151515815260200191505060405180910390f35b6102696118ca565b604051808273ffffffffffffffffffffffffffffffffffffffff1673ffffffffffffffffffffffffffffffffffffffff16815260200191505060405180910390f35b6102ed600480360360208110156102c157600080fd5b81019080803573ffffffffffffffffffffffffffffffffffffffff1690602001909291905050506118f0565b005b6102f761198a565b6040518082815260200191505060405180910390f35b6103396004803603602081101561032357600080fd5b8101908080359060200190929190505050611b27565b60405180831515151581526020018281526020019250505060405180910390f35b610362611ce7565b6040518082815260200191505060405180910390f35b610380611e84565b604051808273ffffffffffffffffffffffffffffffffffffffff1673ffffffffffffffffffffffffffffffffffffffff16815260200191505060405180910390f35b610418600480360360608110156103d857600080fd5b8101908080359060200190929190803573ffffffffffffffffffffffffffffffffffffffff16906020019092919080359060200190929190505050611ea9565b60405180831515151581526020018281526020019250505060405180910390f35b6104656004803603602081101561044f57600080fd5b81019080803590602001909291905050506133a9565b6040518082815260200191505060405180910390f35b6104bd6004803603602081101561049157600080fd5b81019080803573ffffffffffffffffffffffffffffffffffffffff169060200190929190505050613550565b005b6104eb600480360360208110156104d557600080fd5b81019080803590602001909291905050506135ea565b6040518082815260200191505060405180910390f35b61052d6004803603602081101561051757600080fd5b8101908080359060200190929190505050613791565b604051808215151515815260200191505060405180910390f35b61054f613938565b6040518082815260200191505060405180910390f35b61056d613ad5565b6040518082815260200191505060405180910390f35b61058b613c96565b604051808273ffffffffffffffffffffffffffffffffffffffff1673ffffffffffffffffffffffffffffffffffffffff16815260200191505060405180910390f35b6105d5613cbc565b005b6105df613e9c565b604051808273ffffffffffffffffffffffffffffffffffffffff1673ffffffffffffffffffffffffffffffffffffffff16815260200191505060405180910390f35b6106636004803603602081101561063757600080fd5b81019080803573ffffffffffffffffffffffffffffffffffffffff169060200190929190505050613ec2565b005b61069b6004803603604081101561067b57600080fd5b810190808035906020019092919080359060200190929190505050613f90565b005b6000806000806000600260009054906101000a900473ffffffffffffffffffffffffffffffffffffffff1673ffffffffffffffffffffffffffffffffffffffff166308acb5566040518060400160405280600c81526020017f4b697474696548656c6c444200000000000000000000000000000000000000008152508860405160200180828152602001807f6b69747469654964000000000000000000000000000000000000000000000000815250600801915050604051602081830303815290604052805190602001206040518363ffffffff1660e01b81526004018080602001838152602001828103825284818151815260200191508051906020019080838360005b838110156107bd5780820151818401526020810190506107a2565b50505050905090810190601f1680156107ea5780820380516001836020036101000a031916815260200191505b50935050505060206040518083038186803b15801561080857600080fd5b505afa15801561081c573d6000803e3d6000fd5b505050506040513d602081101561083257600080fd5b810190808051906020019092919050505090506000600260009054906101000a900473ffffffffffffffffffffffffffffffffffffffff1673ffffffffffffffffffffffffffffffffffffffff1663b93a5b5e6040518060400160405280600c81526020017f4b697474696548656c6c444200000000000000000000000000000000000000008152508960405160200180828152602001807f6f776e6572000000000000000000000000000000000000000000000000000000815250600501915050604051602081830303815290604052805190602001206040518363ffffffff1660e01b81526004018080602001838152602001828103825284818151815260200191508051906020019080838360005b8381101561095f578082015181840152602081019050610944565b50505050905090810190601f16801561098c5780820380516001836020036101000a031916815260200191505b50935050505060206040518083038186803b1580156109aa57600080fd5b505afa1580156109be573d6000803e3d6000fd5b505050506040513d60208110156109d457600080fd5b810190808051906020019092919050505090506000600260009054906101000a900473ffffffffffffffffffffffffffffffffffffffff1673ffffffffffffffffffffffffffffffffffffffff16631c58c8bb6040518060400160405280600c81526020017f4b697474696548656c6c444200000000000000000000000000000000000000008152508a60405160200180828152602001807f7265706c6163656d656e744b6974746965000000000000000000000000000000815250601101915050604051602081830303815290604052805190602001206040518363ffffffff1660e01b81526004018080602001838152602001828103825284818151815260200191508051906020019080838360005b83811015610b01578082015181840152602081019050610ae6565b50505050905090810190601f168015610b2e5780820380516001836020036101000a031916815260200191505b50935050505060206040518083038186803b158015610b4c57600080fd5b505afa158015610b60573d6000803e3d6000fd5b505050506040513d6020811015610b7657600080fd5b810190808051906020019092919050505090506000600260009054906101000a900473ffffffffffffffffffffffffffffffffffffffff1673ffffffffffffffffffffffffffffffffffffffff166308acb5566040518060400160405280600c81526020017f4b697474696548656c6c444200000000000000000000000000000000000000008152508b60405160200180828152602001807f7265706c6163656d6574466f7200000000000000000000000000000000000000815250600d01915050604051602081830303815290604052805190602001206040518363ffffffff1660e01b81526004018080602001838152602001828103825284818151815260200191508051906020019080838360005b83811015610ca3578082015181840152602081019050610c88565b50505050905090810190601f168015610cd05780820380516001836020036101000a031916815260200191505b50935050505060206040518083038186803b158015610cee57600080fd5b505afa158015610d02573d6000803e3d6000fd5b505050506040513d6020811015610d1857600080fd5b81019080805190602001909291905050509050838383839750975097509750505050509193509193565b6040518060400160405280600a81526020017f4b697474696548656c6c00000000000000000000000000000000000000000000815250610d8181614483565b610d8a8461471e565b600260009054906101000a900473ffffffffffffffffffffffffffffffffffffffff1673ffffffffffffffffffffffffffffffffffffffff16630214a37c6040518060400160405280600c81526020017f4b697474696548656c6c444200000000000000000000000000000000000000008152508660405160200180828152602001807f6b6974746965496400000000000000000000000000000000000000000000000081525060080191505060405160208183030381529060405280519060200120866040518463ffffffff1660e01b81526004018080602001848152602001838152602001828103825285818151815260200191508051906020019080838360005b83811015610ea9578082015181840152602081019050610e8e565b50505050905090810190601f168015610ed65780820380516001836020036101000a031916815260200191505b50945050505050600060405180830381600087803b158015610ef757600080fd5b505af1158015610f0b573d6000803e3d6000fd5b50505050600260009054906101000a900473ffffffffffffffffffffffffffffffffffffffff1673ffffffffffffffffffffffffffffffffffffffff1663866d59fe6040518060400160405280600c81526020017f4b697474696548656c6c444200000000000000000000000000000000000000008152508660405160200180828152602001807f6f776e657200000000000000000000000000000000000000000000000000000081525060050191505060405160208183030381529060405280519060200120856040518463ffffffff1660e01b815260040180806020018481526020018373ffffffffffffffffffffffffffffffffffffffff1673ffffffffffffffffffffffffffffffffffffffff168152602001828103825285818151815260200191508051906020019080838360005b8381101561105a57808201518184015260208101905061103f565b50505050905090810190601f1680156110875780820380516001836020036101000a031916815260200191505b50945050505050600060405180830381600087803b1580156110a857600080fd5b505af11580156110bc573d6000803e3d6000fd5b50505050600260009054906101000a900473ffffffffffffffffffffffffffffffffffffffff1673ffffffffffffffffffffffffffffffffffffffff1663cb30ffe76040518060400160405280600c81526020017f4b697474696548656c6c444200000000000000000000000000000000000000008152508660405160200180828152602001807f7265706c6163656d656e744b69747469650000000000000000000000000000008152506011019150506040516020818303038152906040528051906020012060006040518463ffffffff1660e01b8152600401808060200184815260200183151515158152602001828103825285818151815260200191508051906020019080838360005b838110156111e45780820151818401526020810190506111c9565b50505050905090810190601f1680156112115780820380516001836020036101000a031916815260200191505b50945050505050600060405180830381600087803b15801561123257600080fd5b505af1158015611246573d6000803e3d6000fd5b50505050600260009054906101000a900473ffffffffffffffffffffffffffffffffffffffff1673ffffffffffffffffffffffffffffffffffffffff16630214a37c6040518060400160405280600c81526020017f4b697474696548656c6c444200000000000000000000000000000000000000008152508660405160200180828152602001807f7265706c6163656d6574466f7200000000000000000000000000000000000000815250600d019150506040516020818303038152906040528051906020012060006040518463ffffffff1660e01b81526004018080602001848152602001838152602001828103825285818151815260200191508051906020019080838360005b8381101561136a57808201518184015260208101905061134f565b50505050905090810190601f1680156113975780820380516001836020036101000a031916815260200191505b50945050505050600060405180830381600087803b1580156113b857600080fd5b505af11580156113cc573d6000803e3d6000fd5b50505050600260009054906101000a900473ffffffffffffffffffffffffffffffffffffffff1673ffffffffffffffffffffffffffffffffffffffff16630214a37c6040518060400160405280600c81526020017f4b697474696548656c6c444200000000000000000000000000000000000000008152508560405160200180828152602001807f67686f737449440000000000000000000000000000000000000000000000000081525060070191505060405160208183030381529060405280519060200120876040518463ffffffff1660e01b81526004018080602001848152602001838152602001828103825285818151815260200191508051906020019080838360005b838110156114ef5780820151818401526020810190506114d4565b50505050905090810190601f16801561151c5780820380516001836020036101000a031916815260200191505b50945050505050600060405180830381600087803b15801561153d57600080fd5b505af1158015611551573d6000803e3d6000fd5b505050506000600260009054906101000a900473ffffffffffffffffffffffffffffffffffffffff1673ffffffffffffffffffffffffffffffffffffffff166308acb5566040518060400160405280600c81526020017f4b697474696548656c6c4442000000000000000000000000000000000000000081525060405160200180807f746f74616c4e756d6265724f664b6974746965730000000000000000000000008152506014019050604051602081830303815290604052805190602001206040518363ffffffff1660e01b81526004018080602001838152602001828103825284818151815260200191508051906020019080838360005b8381101561166757808201518184015260208101905061164c565b50505050905090810190601f1680156116945780820380516001836020036101000a031916815260200191505b50935050505060206040518083038186803b1580156116b257600080fd5b505afa1580156116c6573d6000803e3d6000fd5b505050506040513d60208110156116dc57600080fd5b81019080805190602001909291905050509050600260009054906101000a900473ffffffffffffffffffffffffffffffffffffffff1673ffffffffffffffffffffffffffffffffffffffff16630214a37c6040518060400160405280600c81526020017f4b697474696548656c6c4442000000000000000000000000000000000000000081525060405160200180807f746f74616c4e756d6265724f664b6974746965730000000000000000000000008152506014019050604051602081830303815290604052805190602001206117be60018661499e90919063ffffffff16565b6040518463ffffffff1660e01b81526004018080602001848152602001838152602001828103825285818151815260200191508051906020019080838360005b838110156118195780820151818401526020810190506117fe565b50505050905090810190601f1680156118465780820380516001836020036101000a031916815260200191505b50945050505050600060405180830381600087803b15801561186757600080fd5b505af115801561187b573d6000803e3d6000fd5b505050505050505050565b600080611892836135ea565b905060008114156118a75760009150506118c5565b6118b081613791565b156118bf5760019150506118c5565b60009150505b919050565b600260009054906101000a900473ffffffffffffffffffffffffffffffffffffffff1681565b6000809054906101000a900473ffffffffffffffffffffffffffffffffffffffff1673ffffffffffffffffffffffffffffffffffffffff163373ffffffffffffffffffffffffffffffffffffffff161461194657fe5b80600260006101000a81548173ffffffffffffffffffffffffffffffffffffffff021916908373ffffffffffffffffffffffffffffffffffffffff16021790555050565b6000600260009054906101000a900473ffffffffffffffffffffffffffffffffffffffff1673ffffffffffffffffffffffffffffffffffffffff166308acb5566040518060400160405280600c81526020017f4b697474696548656c6c4442000000000000000000000000000000000000000081525060405160200180807f746f74616c4b5459734c6f636b6564496e4b697474696548656c6c0000000000815250601b019050604051602081830303815290604052805190602001206040518363ffffffff1660e01b81526004018080602001838152602001828103825284818151815260200191508051906020019080838360005b83811015611a9c578082015181840152602081019050611a81565b50505050905090810190601f168015611ac95780820380516001836020036101000a031916815260200191505b50935050505060206040518083038186803b158015611ae757600080fd5b505afa158015611afb573d6000803e3d6000fd5b505050506040513d6020811015611b1157600080fd5b8101908080519060200190929190505050905090565b600080600260009054906101000a900473ffffffffffffffffffffffffffffffffffffffff1673ffffffffffffffffffffffffffffffffffffffff16639a481f4e6040518060400160405280600c81526020017f4b697474696548656c6c4442000000000000000000000000000000000000000081525060405160200180807f4b697474696548656c6c5461626c650000000000000000000000000000000000815250600f019050604051602081830303815290604052805190602001208660006040518563ffffffff1660e01b8152600401808060200185815260200184815260200183151515158152602001828103825286818151815260200191508051906020019080838360005b83811015611c4d578082015181840152602081019050611c32565b50505050905090810190601f168015611c7a5780820380516001836020036101000a031916815260200191505b5095505050505050604080518083038186803b158015611c9957600080fd5b505afa158015611cad573d6000803e3d6000fd5b505050506040513d6040811015611cc357600080fd5b81019080805190602001909291908051906020019092919050505091509150915091565b6000600260009054906101000a900473ffffffffffffffffffffffffffffffffffffffff1673ffffffffffffffffffffffffffffffffffffffff1663c7db8da26040518060400160405280600c81526020017f4b697474696548656c6c4442000000000000000000000000000000000000000081525060405160200180807f4b697474696548656c6c5461626c650000000000000000000000000000000000815250600f019050604051602081830303815290604052805190602001206040518363ffffffff1660e01b81526004018080602001838152602001828103825284818151815260200191508051906020019080838360005b83811015611df9578082015181840152602081019050611dde565b50505050905090810190601f168015611e265780820380516001836020036101000a031916815260200191505b50935050505060206040518083038186803b158015611e4457600080fd5b505afa158015611e58573d6000803e3d6000fd5b505050506040513d6020811015611e6e57600080fd5b8101908080519060200190929190505050905090565b6000809054906101000a900473ffffffffffffffffffffffffffffffffffffffff1681565b600080611eb46149ba565b8373ffffffffffffffffffffffffffffffffffffffff16600160009054906101000a900473ffffffffffffffffffffffffffffffffffffffff1673ffffffffffffffffffffffffffffffffffffffff1663358177736040518060400160405280600d81526020017f43727970746f4b697474696573000000000000000000000000000000000000008152506040518263ffffffff1660e01b81526004018080602001828103825283818151815260200191508051906020019080838360005b83811015611f8e578082015181840152602081019050611f73565b50505050905090810190601f168015611fbb5780820380516001836020036101000a031916815260200191505b509250505060206040518083038186803b158015611fd857600080fd5b505afa158015611fec573d6000803e3d6000fd5b505050506040513d602081101561200257600080fd5b810190808051906020019092919050505073ffffffffffffffffffffffffffffffffffffffff16636352211e856040518263ffffffff1660e01b81526004018082815260200191505060206040518083038186803b15801561206357600080fd5b505afa158015612077573d6000803e3d6000fd5b505050506040513d602081101561208d57600080fd5b810190808051906020019092919050505073ffffffffffffffffffffffffffffffffffffffff16146120be57600080fd5b600160009054906101000a900473ffffffffffffffffffffffffffffffffffffffff1673ffffffffffffffffffffffffffffffffffffffff1663358177736040518060400160405280600d81526020017f43727970746f4b697474696573000000000000000000000000000000000000008152506040518263ffffffff1660e01b81526004018080602001828103825283818151815260200191508051906020019080838360005b83811015612181578082015181840152602081019050612166565b50505050905090810190601f1680156121ae5780820380516001836020036101000a031916815260200191505b509250505060206040518083038186803b1580156121cb57600080fd5b505afa1580156121df573d6000803e3d6000fd5b505050506040513d60208110156121f557600080fd5b810190808051906020019092919050505073ffffffffffffffffffffffffffffffffffffffff166323b872dd8530866040518463ffffffff1660e01b8152600401808473ffffffffffffffffffffffffffffffffffffffff1673ffffffffffffffffffffffffffffffffffffffff1681526020018373ffffffffffffffffffffffffffffffffffffffff1673ffffffffffffffffffffffffffffffffffffffff1681526020018281526020019350505050600060405180830381600087803b1580156122c057600080fd5b505af11580156122d4573d6000803e3d6000fd5b505050503073ffffffffffffffffffffffffffffffffffffffff16600160009054906101000a900473ffffffffffffffffffffffffffffffffffffffff1673ffffffffffffffffffffffffffffffffffffffff1663358177736040518060400160405280600d81526020017f43727970746f4b697474696573000000000000000000000000000000000000008152506040518263ffffffff1660e01b81526004018080602001828103825283818151815260200191508051906020019080838360005b838110156123b2578082015181840152602081019050612397565b50505050905090810190601f1680156123df5780820380516001836020036101000a031916815260200191505b509250505060206040518083038186803b1580156123fc57600080fd5b505afa158015612410573d6000803e3d6000fd5b505050506040513d602081101561242657600080fd5b810190808051906020019092919050505073ffffffffffffffffffffffffffffffffffffffff16636352211e856040518263ffffffff1660e01b81526004018082815260200191505060206040518083038186803b15801561248757600080fd5b505afa15801561249b573d6000803e3d6000fd5b505050506040513d60208110156124b157600080fd5b810190808051906020019092919050505073ffffffffffffffffffffffffffffffffffffffff16146124df57fe5b6124fa60016124ec613ad5565b61499e90919063ffffffff16565b90506125058161471e565b600260009054906101000a900473ffffffffffffffffffffffffffffffffffffffff1673ffffffffffffffffffffffffffffffffffffffff16630214a37c6040518060400160405280600c81526020017f4b697474696548656c6c444200000000000000000000000000000000000000008152508360405160200180828152602001807f6b6974746965496400000000000000000000000000000000000000000000000081525060080191505060405160208183030381529060405280519060200120866040518463ffffffff1660e01b81526004018080602001848152602001838152602001828103825285818151815260200191508051906020019080838360005b83811015612624578082015181840152602081019050612609565b50505050905090810190601f1680156126515780820380516001836020036101000a031916815260200191505b50945050505050600060405180830381600087803b15801561267257600080fd5b505af1158015612686573d6000803e3d6000fd5b50505050600260009054906101000a900473ffffffffffffffffffffffffffffffffffffffff1673ffffffffffffffffffffffffffffffffffffffff1663866d59fe6040518060400160405280600c81526020017f4b697474696548656c6c444200000000000000000000000000000000000000008152508360405160200180828152602001807f6f776e657200000000000000000000000000000000000000000000000000000081525060050191505060405160208183030381529060405280519060200120876040518463ffffffff1660e01b815260040180806020018481526020018373ffffffffffffffffffffffffffffffffffffffff1673ffffffffffffffffffffffffffffffffffffffff168152602001828103825285818151815260200191508051906020019080838360005b838110156127d55780820151818401526020810190506127ba565b50505050905090810190601f1680156128025780820380516001836020036101000a031916815260200191505b50945050505050600060405180830381600087803b15801561282357600080fd5b505af1158015612837573d6000803e3d6000fd5b50505050600260009054906101000a900473ffffffffffffffffffffffffffffffffffffffff1673ffffffffffffffffffffffffffffffffffffffff1663cb30ffe76040518060400160405280600c81526020017f4b697474696548656c6c444200000000000000000000000000000000000000008152508360405160200180828152602001807f7265706c6163656d656e744b69747469650000000000000000000000000000008152506011019150506040516020818303038152906040528051906020012060016040518463ffffffff1660e01b8152600401808060200184815260200183151515158152602001828103825285818151815260200191508051906020019080838360005b8381101561295f578082015181840152602081019050612944565b50505050905090810190601f16801561298c5780820380516001836020036101000a031916815260200191505b50945050505050600060405180830381600087803b1580156129ad57600080fd5b505af11580156129c1573d6000803e3d6000fd5b50505050600260009054906101000a900473ffffffffffffffffffffffffffffffffffffffff1673ffffffffffffffffffffffffffffffffffffffff16630214a37c6040518060400160405280600c81526020017f4b697474696548656c6c444200000000000000000000000000000000000000008152508360405160200180828152602001807f7265706c6163656d6574466f7200000000000000000000000000000000000000815250600d0191505060405160208183030381529060405280519060200120886040518463ffffffff1660e01b81526004018080602001848152602001838152602001828103825285818151815260200191508051906020019080838360005b83811015612ae4578082015181840152602081019050612ac9565b50505050905090810190601f168015612b115780820380516001836020036101000a031916815260200191505b50945050505050600060405180830381600087803b158015612b3257600080fd5b505af1158015612b46573d6000803e3d6000fd5b50505050600260009054906101000a900473ffffffffffffffffffffffffffffffffffffffff1673ffffffffffffffffffffffffffffffffffffffff16630214a37c6040518060400160405280600c81526020017f4b697474696548656c6c444200000000000000000000000000000000000000008152508560405160200180828152602001807f67686f737449440000000000000000000000000000000000000000000000000081525060070191505060405160208183030381529060405280519060200120846040518463ffffffff1660e01b81526004018080602001848152602001838152602001828103825285818151815260200191508051906020019080838360005b83811015612c69578082015181840152602081019050612c4e565b50505050905090810190601f168015612c965780820380516001836020036101000a031916815260200191505b50945050505050600060405180830381600087803b158015612cb757600080fd5b505af1158015612ccb573d6000803e3d6000fd5b505050506000612e826001600260009054906101000a900473ffffffffffffffffffffffffffffffffffffffff1673ffffffffffffffffffffffffffffffffffffffff166308acb5566040518060400160405280600c81526020017f4b697474696548656c6c444200000000000000000000000000000000000000008152508a60405160200180828152602001807f6e756d6265724f665265706c6163656d656e744b697474696573000000000000815250601a01915050604051602081830303815290604052805190602001206040518363ffffffff1660e01b81526004018080602001838152602001828103825284818151815260200191508051906020019080838360005b83811015612dee578082015181840152602081019050612dd3565b50505050905090810190601f168015612e1b5780820380516001836020036101000a031916815260200191505b50935050505060206040518083038186803b158015612e3957600080fd5b505afa158015612e4d573d6000803e3d6000fd5b505050506040513d6020811015612e6357600080fd5b810190808051906020019092919050505061499e90919063ffffffff16565b9050600260009054906101000a900473ffffffffffffffffffffffffffffffffffffffff1673ffffffffffffffffffffffffffffffffffffffff16630214a37c6040518060400160405280600c81526020017f4b697474696548656c6c444200000000000000000000000000000000000000008152508860405160200180828152602001807f6e756d6265724f665265706c6163656d656e744b697474696573000000000000815250601a0191505060405160208183030381529060405280519060200120846040518463ffffffff1660e01b81526004018080602001848152602001838152602001828103825285818151815260200191508051906020019080838360005b83811015612fa3578082015181840152602081019050612f88565b50505050905090810190601f168015612fd05780820380516001836020036101000a031916815260200191505b50945050505050600060405180830381600087803b158015612ff157600080fd5b505af1158015613005573d6000803e3d6000fd5b505050506000600260009054906101000a900473ffffffffffffffffffffffffffffffffffffffff1673ffffffffffffffffffffffffffffffffffffffff166308acb5566040518060400160405280600c81526020017f4b697474696548656c6c4442000000000000000000000000000000000000000081525060405160200180807f746f74616c4e756d6265724f664b6974746965730000000000000000000000008152506014019050604051602081830303815290604052805190602001206040518363ffffffff1660e01b81526004018080602001838152602001828103825284818151815260200191508051906020019080838360005b8381101561311b578082015181840152602081019050613100565b50505050905090810190601f1680156131485780820380516001836020036101000a031916815260200191505b50935050505060206040518083038186803b15801561316657600080fd5b505afa15801561317a573d6000803e3d6000fd5b505050506040513d602081101561319057600080fd5b81019080805190602001909291905050509050600260009054906101000a900473ffffffffffffffffffffffffffffffffffffffff1673ffffffffffffffffffffffffffffffffffffffff16630214a37c6040518060400160405280600c81526020017f4b697474696548656c6c4442000000000000000000000000000000000000000081525060405160200180807f746f74616c4e756d6265724f664b69747469657300000000000000000000000081525060140190506040516020818303038152906040528051906020012061327260018661499e90919063ffffffff16565b6040518463ffffffff1660e01b81526004018080602001848152602001838152602001828103825285818151815260200191508051906020019080838360005b838110156132cd5780820151818401526020810190506132b2565b50505050905090810190601f1680156132fa5780820380516001836020036101000a031916815260200191505b50945050505050600060405180830381600087803b15801561331b57600080fd5b505af115801561332f573d6000803e3d6000fd5b5050505082857f168a8b08a9a164dafbfd19c327bbbd4702d179d98c7d5be17a18101e3ff1bec088604051808273ffffffffffffffffffffffffffffffffffffffff1673ffffffffffffffffffffffffffffffffffffffff16815260200191505060405180910390a3600183935093505050935093915050565b6000600260009054906101000a900473ffffffffffffffffffffffffffffffffffffffff1673ffffffffffffffffffffffffffffffffffffffff166308acb5566040518060400160405280600c81526020017f4b697474696548656c6c444200000000000000000000000000000000000000008152508460405160200180828152602001807f6e756d6265724f665265706c6163656d656e744b697474696573000000000000815250601a01915050604051602081830303815290604052805190602001206040518363ffffffff1660e01b81526004018080602001838152602001828103825284818151815260200191508051906020019080838360005b838110156134c35780820151818401526020810190506134a8565b50505050905090810190601f1680156134f05780820380516001836020036101000a031916815260200191505b50935050505060206040518083038186803b15801561350e57600080fd5b505afa158015613522573d6000803e3d6000fd5b505050506040513d602081101561353857600080fd5b81019080805190602001909291905050509050919050565b6000809054906101000a900473ffffffffffffffffffffffffffffffffffffffff1673ffffffffffffffffffffffffffffffffffffffff163373ffffffffffffffffffffffffffffffffffffffff16146135a657fe5b80600160006101000a81548173ffffffffffffffffffffffffffffffffffffffff021916908373ffffffffffffffffffffffffffffffffffffffff16021790555050565b6000600260009054906101000a900473ffffffffffffffffffffffffffffffffffffffff1673ffffffffffffffffffffffffffffffffffffffff166308acb5566040518060400160405280600c81526020017f4b697474696548656c6c444200000000000000000000000000000000000000008152508460405160200180828152602001807f67686f7374494400000000000000000000000000000000000000000000000000815250600701915050604051602081830303815290604052805190602001206040518363ffffffff1660e01b81526004018080602001838152602001828103825284818151815260200191508051906020019080838360005b838110156137045780820151818401526020810190506136e9565b50505050905090810190601f1680156137315780820380516001836020036101000a031916815260200191505b50935050505060206040518083038186803b15801561374f57600080fd5b505afa158015613763573d6000803e3d6000fd5b505050506040513d602081101561377957600080fd5b81019080805190602001909291905050509050919050565b6000600260009054906101000a900473ffffffffffffffffffffffffffffffffffffffff1673ffffffffffffffffffffffffffffffffffffffff166396edc0096040518060400160405280600c81526020017f4b697474696548656c6c4442000000000000000000000000000000000000000081525060405160200180807f4b697474696548656c6c5461626c650000000000000000000000000000000000815250600f01905060405160208183030381529060405280519060200120856040518463ffffffff1660e01b81526004018080602001848152602001838152602001828103825285818151815260200191508051906020019080838360005b838110156138aa57808201518184015260208101905061388f565b50505050905090810190601f1680156138d75780820380516001836020036101000a031916815260200191505b5094505050505060206040518083038186803b1580156138f657600080fd5b505afa15801561390a573d6000803e3d6000fd5b505050506040513d602081101561392057600080fd5b81019080805190602001909291905050509050919050565b6000600260009054906101000a900473ffffffffffffffffffffffffffffffffffffffff1673ffffffffffffffffffffffffffffffffffffffff166308acb5566040518060400160405280600c81526020017f4b697474696548656c6c4442000000000000000000000000000000000000000081525060405160200180807f746f74616c4e756d6265724f664b6974746965730000000000000000000000008152506014019050604051602081830303815290604052805190602001206040518363ffffffff1660e01b81526004018080602001838152602001828103825284818151815260200191508051906020019080838360005b83811015613a4a578082015181840152602081019050613a2f565b50505050905090810190601f168015613a775780820380516001836020036101000a031916815260200191505b50935050505060206040518083038186803b158015613a9557600080fd5b505afa158015613aa9573d6000803e3d6000fd5b505050506040513d6020811015613abf57600080fd5b8101908080519060200190929190505050905090565b600080600260009054906101000a900473ffffffffffffffffffffffffffffffffffffffff1673ffffffffffffffffffffffffffffffffffffffff16639a481f4e6040518060400160405280600c81526020017f4b697474696548656c6c4442000000000000000000000000000000000000000081525060405160200180807f4b697474696548656c6c5461626c650000000000000000000000000000000000815250600f019050604051602081830303815290604052805190602001206000806040518563ffffffff1660e01b8152600401808060200185815260200184815260200183151515158152602001828103825286818151815260200191508051906020019080838360005b83811015613bfb578082015181840152602081019050613be0565b50505050905090810190601f168015613c285780820380516001836020036101000a031916815260200191505b5095505050505050604080518083038186803b158015613c4757600080fd5b505afa158015613c5b573d6000803e3d6000fd5b505050506040513d6040811015613c7157600080fd5b8101908080519060200190929190805190602001909291905050509150508091505090565b600360009054906101000a900473ffffffffffffffffffffffffffffffffffffffff1681565b6000809054906101000a900473ffffffffffffffffffffffffffffffffffffffff1673ffffffffffffffffffffffffffffffffffffffff163373ffffffffffffffffffffffffffffffffffffffff1614613d1257fe5b600160009054906101000a900473ffffffffffffffffffffffffffffffffffffffff1673ffffffffffffffffffffffffffffffffffffffff1663358177736040518060400160405280600a81526020017f4b697474696548656c6c000000000000000000000000000000000000000000008152506040518263ffffffff1660e01b81526004018080602001828103825283818151815260200191508051906020019080838360005b83811015613dd5578082015181840152602081019050613dba565b50505050905090810190601f168015613e025780820380516001836020036101000a031916815260200191505b509250505060206040518083038186803b158015613e1f57600080fd5b505afa158015613e33573d6000803e3d6000fd5b505050506040513d6020811015613e4957600080fd5b8101908080519060200190929190505050600360006101000a81548173ffffffffffffffffffffffffffffffffffffffff021916908373ffffffffffffffffffffffffffffffffffffffff160217905550565b600160009054906101000a900473ffffffffffffffffffffffffffffffffffffffff1681565b6000809054906101000a900473ffffffffffffffffffffffffffffffffffffffff1673ffffffffffffffffffffffffffffffffffffffff163373ffffffffffffffffffffffffffffffffffffffff1614613f1857fe5b600073ffffffffffffffffffffffffffffffffffffffff168173ffffffffffffffffffffffffffffffffffffffff1614613f8d57806000806101000a81548173ffffffffffffffffffffffffffffffffffffffff021916908373ffffffffffffffffffffffffffffffffffffffff1602179055505b50565b6040518060400160405280600a81526020017f4b697474696548656c6c00000000000000000000000000000000000000000000815250613fcf81614483565b600260009054906101000a900473ffffffffffffffffffffffffffffffffffffffff1673ffffffffffffffffffffffffffffffffffffffff16630214a37c6040518060400160405280600c81526020017f4b697474696548656c6c444200000000000000000000000000000000000000008152508560405160200180828152602001807f726564656d7074696f6e4665654b54590000000000000000000000000000000081525060100191505060405160208183030381529060405280519060200120856040518463ffffffff1660e01b81526004018080602001848152602001838152602001828103825285818151815260200191508051906020019080838360005b838110156140ee5780820151818401526020810190506140d3565b50505050905090810190601f16801561411b5780820380516001836020036101000a031916815260200191505b50945050505050600060405180830381600087803b15801561413c57600080fd5b505af1158015614150573d6000803e3d6000fd5b5050505060006142fe83600260009054906101000a900473ffffffffffffffffffffffffffffffffffffffff1673ffffffffffffffffffffffffffffffffffffffff166308acb5566040518060400160405280600c81526020017f4b697474696548656c6c4442000000000000000000000000000000000000000081525060405160200180807f746f74616c4b5459734c6f636b6564496e4b697474696548656c6c0000000000815250601b019050604051602081830303815290604052805190602001206040518363ffffffff1660e01b81526004018080602001838152602001828103825284818151815260200191508051906020019080838360005b8381101561426a57808201518184015260208101905061424f565b50505050905090810190601f1680156142975780820380516001836020036101000a031916815260200191505b50935050505060206040518083038186803b1580156142b557600080fd5b505afa1580156142c9573d6000803e3d6000fd5b505050506040513d60208110156142df57600080fd5b810190808051906020019092919050505061499e90919063ffffffff16565b9050600260009054906101000a900473ffffffffffffffffffffffffffffffffffffffff1673ffffffffffffffffffffffffffffffffffffffff16630214a37c6040518060400160405280600c81526020017f4b697474696548656c6c4442000000000000000000000000000000000000000081525060405160200180807f746f74616c4b5459734c6f636b6564496e4b697474696548656c6c0000000000815250601b01905060405160208183030381529060405280519060200120846040518463ffffffff1660e01b81526004018080602001848152602001838152602001828103825285818151815260200191508051906020019080838360005b838110156144175780820151818401526020810190506143fc565b50505050905090810190601f1680156144445780820380516001836020036101000a031916815260200191505b50945050505050600060405180830381600087803b15801561446557600080fd5b505af1158015614479573d6000803e3d6000fd5b5050505050505050565b600073ffffffffffffffffffffffffffffffffffffffff16600160009054906101000a900473ffffffffffffffffffffffffffffffffffffffff1673ffffffffffffffffffffffffffffffffffffffff161415614548576040517f08c379a00000000000000000000000000000000000000000000000000000000081526004018080602001828103825260088152602001807f4e6f2050726f787900000000000000000000000000000000000000000000000081525060200191505060405180910390fd5b6000600160009054906101000a900473ffffffffffffffffffffffffffffffffffffffff1673ffffffffffffffffffffffffffffffffffffffff166335817773836040518263ffffffff1660e01b81526004018080602001828103825283818151815260200191508051906020019080838360005b838110156145d85780820151818401526020810190506145bd565b50505050905090810190601f1680156146055780820380516001836020036101000a031916815260200191505b509250505060206040518083038186803b15801561462257600080fd5b505afa158015614636573d6000803e3d6000fd5b505050506040513d602081101561464c57600080fd5b81019080805190602001909291905050509050600073ffffffffffffffffffffffffffffffffffffffff168173ffffffffffffffffffffffffffffffffffffffff16141561469657fe5b8073ffffffffffffffffffffffffffffffffffffffff163373ffffffffffffffffffffffffffffffffffffffff161461471a576040517f08c379a000000000000000000000000000000000000000000000000000000000815260040180806020018281038252602d815260200180614b45602d913960400191505060405180910390fd5b5050565b600260009054906101000a900473ffffffffffffffffffffffffffffffffffffffff1673ffffffffffffffffffffffffffffffffffffffff166387d533626040518060400160405280600c81526020017f4b697474696548656c6c4442000000000000000000000000000000000000000081525060405160200180807f4b697474696548656c6c5461626c650000000000000000000000000000000000815250600f01905060405160208183030381529060405280519060200120846040518463ffffffff1660e01b81526004018080602001848152602001838152602001828103825285818151815260200191508051906020019080838360005b8381101561483557808201518184015260208101905061481a565b50505050905090810190601f1680156148625780820380516001836020036101000a031916815260200191505b50945050505050602060405180830381600087803b15801561488357600080fd5b505af1158015614897573d6000803e3d6000fd5b505050506040513d60208110156148ad57600080fd5b81019080805190602001909291905050506040518060400160405280601c81526020017f47686f737420616c72656164792065786973747320696e2048656c6c000000008152509061499a576040517f08c379a00000000000000000000000000000000000000000000000000000000081526004018080602001828103825283818151815260200191508051906020019080838360005b8381101561495f578082015181840152602081019050614944565b50505050905090810190601f16801561498c5780820380516001836020036101000a031916815260200191505b509250505060405180910390fd5b5050565b6000808284019050838110156149b057fe5b8091505092915050565b600073ffffffffffffffffffffffffffffffffffffffff16600160009054906101000a900473ffffffffffffffffffffffffffffffffffffffff1673ffffffffffffffffffffffffffffffffffffffff161415614a7f576040517f08c379a00000000000000000000000000000000000000000000000000000000081526004018080602001828103825260088152602001807f4e6f2050726f787900000000000000000000000000000000000000000000000081525060200191505060405180910390fd5b600160009054906101000a900473ffffffffffffffffffffffffffffffffffffffff1673ffffffffffffffffffffffffffffffffffffffff163373ffffffffffffffffffffffffffffffffffffffff1614614b42576040517f08c379a00000000000000000000000000000000000000000000000000000000081526004018080602001828103825260128152602001807f4f6e6c79207468726f7567682050726f7879000000000000000000000000000081525060200191505060405180910390fd5b56fe416363657373206973206f6e6c7920616c6c6f7765642066726f6d20737065636966696320636f6e7472616374a265627a7a72315820b76908afc7b4bdd5eaceb0af967940d4cd5a87c7b1ae37477f7939bd3aef7a6964736f6c634300050d0032",
  "source": "/**\n * @title kittiehellDB\n *\n * @author @kittieFIGHT @ola\n *\n */\n//modifier class (DSAuth )\n//Event class ( DSNote )\n//\n// This program is free software: you can redistribute it and/or modify\n// it under the terms of the GNU General Public License as published by\n// the Free Software Foundation, either version 3 of the License, or\n// (at your option) any later version.\n\n// This program is distributed in the hope that it will be useful,\n// but WITHOUT ANY WARRANTY; without even the implied warranty of\n// MERCHANTABILITY or FITNESS FOR A PARTICULAR PURPOSE.  See the\n// GNU General Public License for more details.\n\n// You should have received a copy of the GNU General Public License\n// along with this program.  If not, see <http://www.gnu.org/licenses/>.\npragma solidity ^0.5.5;\n\nimport \"../proxy/Proxied.sol\";\nimport \"../../authority/Guard.sol\";\nimport \"./GenericDB.sol\";\nimport \"../../libs/SafeMath.sol\";\nimport \"../../interfaces/ERC721.sol\";\nimport \"../kittieHELL/KittieHell.sol\";\n\n/**\n * @title KittieHellDB\n * @author @kittieFIGHT @ziweidream\n */\n\ncontract KittieHellDB is Proxied, Guard {\n    using SafeMath for uint256;\n\n    GenericDB public genericDB;\n    KittieHell public kittieHELL;\n\n    bytes32 internal constant TABLE_KEY_KITTIEHELL = keccak256(abi.encodePacked(\"KittieHellTable\"));\n    string internal constant ERROR_ALREADY_EXIST = \"Ghost already exists in Hell\";\n    string internal constant ERROR_DOES_NOT_EXIST = \"Ghost not exists\";\n\n    constructor(GenericDB _genericDB) public {\n      setGenericDB(_genericDB);\n    }\n\n    function setGenericDB(GenericDB _genericDB) public onlyOwner {\n      genericDB = GenericDB(_genericDB);\n   }\n\n    function setKittieHELL() public onlyOwner {\n      kittieHELL = KittieHell(proxy.getContract(CONTRACT_NAME_KITTIEHELL));\n    }\n\n  /**\n   * @author @ziweidream\n   * @param _id the node id \n   * @return true if the node _id exists     \n   */\n  function doesGhostExist(uint256 _id) public view returns (bool) {\n    return genericDB.doesNodeExist(CONTRACT_NAME_KITTIEHELL_DB, TABLE_KEY_KITTIEHELL, _id);\n  }\n  \n  /**\n   * @author @ziweidream   \n   * @return the size of GhostsList    \n   */\n  function getGhostsListSize() public view returns (uint256) {\n      return genericDB.getLinkedListSize(CONTRACT_NAME_KITTIEHELL_DB, TABLE_KEY_KITTIEHELL);\n  }\n\n  /**\n   * @author @ziweidream\n   * @dev Add the node _id to GhostsList\n   * @param _id the node id\n   */\n\n  function fallToHell(uint256 _id)\n    internal\n  {\n    require(genericDB.pushNodeToLinkedList(CONTRACT_NAME_KITTIEHELL_DB, TABLE_KEY_KITTIEHELL, _id), ERROR_ALREADY_EXIST);\n  }\n\n  /**\n   * @author @ziweidream\n   * @dev This function can only be carried out via kittieHELL contract\n   * @dev Add the node _id of a loser kittie to GhostsList\n   * @param _id the node id\n   * @param _kittieID the kittieID of the loser kittie who lost a game\n   * @param _owner the owner of the loser kittie\n   */\n\n  function loserKittieToHell\n  (\n    uint256 _id,\n    uint256 _kittieID,\n    address _owner\n  )\n    public\n    onlyContract(CONTRACT_NAME_KITTIEHELL)\n  {\n    fallToHell(_id);\n    genericDB.setUintStorage(CONTRACT_NAME_KITTIEHELL_DB, keccak256(abi.encodePacked(_id, \"kittieId\")), _kittieID);\n    genericDB.setAddressStorage(CONTRACT_NAME_KITTIEHELL_DB, keccak256(abi.encodePacked(_id, \"owner\")), _owner);\n    genericDB.setBoolStorage(CONTRACT_NAME_KITTIEHELL_DB, keccak256(abi.encodePacked(_id, \"replacementKittie\")), false);\n    genericDB.setUintStorage(CONTRACT_NAME_KITTIEHELL_DB, keccak256(abi.encodePacked(_id, \"replacemetFor\")), 0);\n    genericDB.setUintStorage(CONTRACT_NAME_KITTIEHELL_DB, keccak256(abi.encodePacked(_kittieID, \"ghostID\")), _id);\n    uint256 totalNumberOfKitties = genericDB.getUintStorage(CONTRACT_NAME_KITTIEHELL_DB, keccak256(abi.encodePacked(\"totalNumberOfKitties\")));\n    genericDB.setUintStorage(CONTRACT_NAME_KITTIEHELL_DB, keccak256(abi.encodePacked(\"totalNumberOfKitties\")), totalNumberOfKitties.add(1));\n  }\n\n  /**\n   * @author @ziweidream\n   * @param _id the node id of the ghost\n   * @return its kittyID, its original owner, whether it is a replacement kittie,\n   *         the loser kitty for which it is a replacement kittie(0 if this ghost is a loser kittie itself)\n   */\n  function getKittieAttributes(uint256 _id) public view returns (uint256, address, bool, uint256) {\n    uint256 _kittyID = genericDB.getUintStorage(CONTRACT_NAME_KITTIEHELL_DB, keccak256(abi.encodePacked(_id, \"kittieId\")));\n    address _owner = genericDB.getAddressStorage(CONTRACT_NAME_KITTIEHELL_DB, keccak256(abi.encodePacked(_id, \"owner\")));\n    bool _isReplacementKittie = genericDB.getBoolStorage(CONTRACT_NAME_KITTIEHELL_DB, keccak256(abi.encodePacked(_id, \"replacementKittie\")));\n    uint256 _replacementFor = genericDB.getUintStorage(CONTRACT_NAME_KITTIEHELL_DB, keccak256(abi.encodePacked(_id, \"replacemetFor\")));\n\n    return (_kittyID, _owner, _isReplacementKittie, _replacementFor);\n  }\n\n  /**\n   * @author @ziweidream\n   * @param _id the node id\n   * @return the node id of the adjacent node\n   */\n  function getAdjacentGhost(uint256 _id) public view returns (bool, uint256) {\n    return genericDB.getAdjacent(CONTRACT_NAME_KITTIEHELL_DB, TABLE_KEY_KITTIEHELL, _id, false);\n  }\n\n  /**\n   * @author @ziweidream\n   * @return the node id of the last node\n   */\n  function getLastGhostId() public view returns(uint256){\n        (/*bool found*/, uint256 id) = genericDB.getAdjacent(CONTRACT_NAME_KITTIEHELL_DB, TABLE_KEY_KITTIEHELL, 0, false);\n        // 0 means HEAD, false means tail of the list\n        return id;\n    }\n\n  /**\n   * @author @ziweidream\n   * @dev This function can only be carried out via proxy\n   * @dev Add the node _id of a replacement kittie to GhostsList\n   * @param _kittieID the kittieID of the loser kittie who lost a game\n   * @param _owner the owner of the loser kittie\n   * @param _kittieReplacement the kittieID of the replacement kittie for redeeming the loser kittie\n   */\n  function kittieReplacementToHell(uint256 _kittieID, address _owner, uint256 _kittieReplacement)\n      public\n      onlyProxy\n      returns(bool, uint256 _id)\n  {\n    require(ERC721(proxy.getContract(CONTRACT_NAME_CRYPTOKITTIES)).ownerOf(_kittieReplacement) == _owner);\n    ERC721(proxy.getContract(CONTRACT_NAME_CRYPTOKITTIES)).transferFrom(_owner, address(this), _kittieReplacement);\n    assert(ERC721(proxy.getContract(CONTRACT_NAME_CRYPTOKITTIES)).ownerOf(_kittieReplacement) == address(this));\n    _id = getLastGhostId().add(1);\n    fallToHell(_id);\n    genericDB.setUintStorage(CONTRACT_NAME_KITTIEHELL_DB, keccak256(abi.encodePacked(_id, \"kittieId\")), _kittieReplacement);\n    genericDB.setAddressStorage(CONTRACT_NAME_KITTIEHELL_DB, keccak256(abi.encodePacked(_id, \"owner\")), _owner);\n    genericDB.setBoolStorage(CONTRACT_NAME_KITTIEHELL_DB, keccak256(abi.encodePacked(_id, \"replacementKittie\")), true);\n    genericDB.setUintStorage(CONTRACT_NAME_KITTIEHELL_DB, keccak256(abi.encodePacked(_id, \"replacemetFor\")), _kittieID);\n    genericDB.setUintStorage(CONTRACT_NAME_KITTIEHELL_DB, keccak256(abi.encodePacked(_kittieReplacement, \"ghostID\")), _id);\n    uint256 numberOfReplacementKitties = genericDB.getUintStorage(\n      CONTRACT_NAME_KITTIEHELL_DB,\n      keccak256(abi.encodePacked(_kittieID, \"numberOfReplacementKitties\"))).add(1);\n    genericDB.setUintStorage(\n      CONTRACT_NAME_KITTIEHELL_DB,\n      keccak256(abi.encodePacked(_kittieID, \"numberOfReplacementKitties\")),\n      numberOfReplacementKitties);\n    uint256 totalNumberOfKitties = genericDB.getUintStorage(CONTRACT_NAME_KITTIEHELL_DB, keccak256(abi.encodePacked(\"totalNumberOfKitties\")));\n    genericDB.setUintStorage(CONTRACT_NAME_KITTIEHELL_DB, keccak256(abi.encodePacked(\"totalNumberOfKitties\")), totalNumberOfKitties.add(1));\n    emit AddedToKittieHellDB(_kittieReplacement, _owner, _id);\n    return (true, _id);\n  }\n\n  /**\n   * @author @ziweidream\n   * @param _kittieID the kittieID of the loser kittie\n   * @return the number of replacement kitties already in HELL for this loser kittie\n   */\n  function getNumberOfReplacementKitties(uint256 _kittieID) public view returns(uint256) {\n    return genericDB.getUintStorage(\n      CONTRACT_NAME_KITTIEHELL_DB,\n      keccak256(abi.encodePacked(_kittieID, \"numberOfReplacementKitties\")));\n  }\n\n  /**\n   * @author @ziweidream\n   * @dev This function can only be carried out via kittieHELL contract\n   * @dev record the KTY amount locked in kittieHELL contract\n   * @param _kittieID the kittieID of the loser kittie who lost a game\n   * @param _kty_amount the redemption fee locked in kittieHELL contract\n   *                    for redeeming the loser kittie\n   */\n  function lockKTYsInKittieHell(uint256 _kittieID, uint256 _kty_amount)\n      public\n      onlyContract(CONTRACT_NAME_KITTIEHELL)\n  {\n    genericDB.setUintStorage(\n      CONTRACT_NAME_KITTIEHELL_DB,\n      keccak256(abi.encodePacked(_kittieID, \"redemptionFeeKTY\")),\n      _kty_amount\n    );\n    uint totalKTYsLockedInKittieHell = genericDB.getUintStorage(\n      CONTRACT_NAME_KITTIEHELL_DB,\n      keccak256(abi.encodePacked(\"totalKTYsLockedInKittieHell\"))\n    ).add(_kty_amount);\n    genericDB.setUintStorage(\n      CONTRACT_NAME_KITTIEHELL_DB,\n      keccak256(abi.encodePacked(\"totalKTYsLockedInKittieHell\")),\n      totalKTYsLockedInKittieHell\n    );\n  }\n\n  /**\n   * @author @ziweidream\n   * @return the total amount of KTYs locked in kittieHELL contract\n   */\n  function getTotalKTYsLockedInKittieHell() public view returns(uint256) {\n    return genericDB.getUintStorage(\n      CONTRACT_NAME_KITTIEHELL_DB,\n      keccak256(abi.encodePacked(\"totalKTYsLockedInKittieHell\"))\n    );\n  }\n\n  /**\n   * @author @ziweidream\n   * @return the total number of kittie ghosts permanently locked in HELL\n   */\n  function getTotalNumberOfGhostsInHell() public view returns(uint256) {\n    return genericDB.getUintStorage(\n      CONTRACT_NAME_KITTIEHELL_DB,\n      keccak256(abi.encodePacked(\"totalNumberOfKitties\"))\n    );\n  }\n\n  /**\n   * @author @ziweidream\n   * @param _kittieID the kittieID of the kittie\n   * @return node id of the kittie (if the kittie is not a ghost, it returns 0)\n   */\n  function getGhostIdForKittie(uint256 _kittieID) public view returns(uint256) {\n    return genericDB.getUintStorage(\n      CONTRACT_NAME_KITTIEHELL_DB,\n      keccak256(abi.encodePacked(_kittieID, \"ghostID\")));\n  }\n\n  /**\n   * @author @ziweidream\n   * @param _kittieID the kittieID of the kittie\n   * @return true if the kittie is a permanent ghost, false if the kittie is not permanently dead\n   */\n  function isKittieGhost(uint256 _kittieID) public view returns(bool) {\n    uint256 _id = getGhostIdForKittie(_kittieID);\n    if (_id == 0) {\n      return false;\n    }\n    if(doesGhostExist(_id)) {\n      return true;\n    }\n    return false;\n  }\n\n  // this function should not exist since no kitty can be released from the hell once the deadline\n  // for ressurection has been passed without proper action (pay for ressrrection) being taken\n  /**\n   * @author @ziweidream\n   * @dev This function can only be carried out via CronJob.sol contract\n   * @dev Removes the node _id from GhostsList\n   * @param _id the node id\n   * @return true if the node is removed from GhostsList\n   */\n  //function removeGhostFromHell(uint256 _id)\n   //public\n   //onlyContract(CONTRACT_NAME_CRONJOB)\n   //returns (bool) {\n    //return genericDB.removeNodeFromLinkedList(CONTRACT_NAME_KITTIEHELL_DB, TABLE_NAME_GHOST, _id);\n  //}\n\n  event AddedToKittieHellDB(uint256 indexed kittyID, address _owner, uint256 indexed _id);\n\n}\n\n",
  "sourcePath": "/Users/ziweizhang/Desktop/kittieFight-mainnet/alpha/contracts/modules/databases/KittieHellDB.sol",
  "compiler": {
    "name": "solc",
    "version": "0.5.13+commit.5b0b510c.Emscripten.clang"
  },
  "schemaVersion": "3.0.11",
  "updatedAt": "2019-11-24T19:09:58.823Z",
  "devdoc": {
    "author": "@kittieFIGHT @ziweidream",
    "methods": {
      "doesGhostExist(uint256)": {
        "author": "@ziweidream",
        "params": {
          "_id": "the node id "
        },
        "return": "true if the node _id exists     "
      },
      "getAdjacentGhost(uint256)": {
        "author": "@ziweidream",
        "params": {
          "_id": "the node id"
        },
        "return": "the node id of the adjacent node"
      },
      "getGhostIdForKittie(uint256)": {
        "author": "@ziweidream",
        "params": {
          "_kittieID": "the kittieID of the kittie"
        },
        "return": "node id of the kittie (if the kittie is not a ghost, it returns 0)"
      },
      "getGhostsListSize()": {
        "author": "@ziweidream   ",
        "return": "the size of GhostsList    "
      },
      "getKittieAttributes(uint256)": {
        "author": "@ziweidream",
        "params": {
          "_id": "the node id of the ghost"
        },
        "return": "its kittyID, its original owner, whether it is a replacement kittie,        the loser kitty for which it is a replacement kittie(0 if this ghost is a loser kittie itself)"
      },
      "getLastGhostId()": {
        "author": "@ziweidream",
        "return": "the node id of the last node"
      },
      "getNumberOfReplacementKitties(uint256)": {
        "author": "@ziweidream",
        "params": {
          "_kittieID": "the kittieID of the loser kittie"
        },
        "return": "the number of replacement kitties already in HELL for this loser kittie"
      },
      "getTotalKTYsLockedInKittieHell()": {
        "author": "@ziweidream",
        "return": "the total amount of KTYs locked in kittieHELL contract"
      },
      "getTotalNumberOfGhostsInHell()": {
        "author": "@ziweidream",
        "return": "the total number of kittie ghosts permanently locked in HELL"
      },
      "isKittieGhost(uint256)": {
        "author": "@ziweidream",
        "params": {
          "_kittieID": "the kittieID of the kittie"
        },
        "return": "true if the kittie is a permanent ghost, false if the kittie is not permanently dead"
      },
      "kittieReplacementToHell(uint256,address,uint256)": {
        "author": "@ziweidream",
        "details": "This function can only be carried out via proxyAdd the node _id of a replacement kittie to GhostsList",
        "params": {
          "_kittieID": "the kittieID of the loser kittie who lost a game",
          "_kittieReplacement": "the kittieID of the replacement kittie for redeeming the loser kittie",
          "_owner": "the owner of the loser kittie"
        }
      },
      "lockKTYsInKittieHell(uint256,uint256)": {
        "author": "@ziweidream",
        "details": "This function can only be carried out via kittieHELL contractrecord the KTY amount locked in kittieHELL contract",
        "params": {
          "_kittieID": "the kittieID of the loser kittie who lost a game",
          "_kty_amount": "the redemption fee locked in kittieHELL contract                   for redeeming the loser kittie"
        }
      },
      "loserKittieToHell(uint256,uint256,address)": {
        "author": "@ziweidream",
        "details": "This function can only be carried out via kittieHELL contractAdd the node _id of a loser kittie to GhostsList",
        "params": {
          "_id": "the node id",
          "_kittieID": "the kittieID of the loser kittie who lost a game",
          "_owner": "the owner of the loser kittie"
        }
      }
    },
    "title": "KittieHellDB"
  },
  "userdoc": {
    "methods": {
      "setProxy(address)": {
        "notice": "Set/update address of Proxy contract"
      }
    }
  }
}