{
  "contractName": "KittieHellDB",
  "abi": [
    {
      "inputs": [
        {
          "internalType": "contract GenericDB",
          "name": "_genericDB",
          "type": "address"
        }
      ],
      "payable": false,
      "stateMutability": "nonpayable",
      "type": "constructor"
    },
    {
      "anonymous": false,
      "inputs": [
        {
          "indexed": true,
          "internalType": "uint256",
          "name": "kittyID",
          "type": "uint256"
        },
        {
          "indexed": false,
          "internalType": "address",
          "name": "_owner",
          "type": "address"
        },
        {
          "indexed": true,
          "internalType": "uint256",
          "name": "_id",
          "type": "uint256"
        }
      ],
      "name": "AddedToKittieHellDB",
      "type": "event"
    },
    {
      "constant": true,
      "inputs": [],
      "name": "genericDB",
      "outputs": [
        {
          "internalType": "contract GenericDB",
          "name": "",
          "type": "address"
        }
      ],
      "payable": false,
      "stateMutability": "view",
      "type": "function"
    },
    {
      "constant": true,
      "inputs": [],
      "name": "kittieHELL",
      "outputs": [
        {
          "internalType": "contract KittieHell",
          "name": "",
          "type": "address"
        }
      ],
      "payable": false,
      "stateMutability": "view",
      "type": "function"
    },
    {
      "constant": true,
      "inputs": [],
      "name": "owner",
      "outputs": [
        {
          "internalType": "address payable",
          "name": "",
          "type": "address"
        }
      ],
      "payable": false,
      "stateMutability": "view",
      "type": "function"
    },
    {
      "constant": true,
      "inputs": [],
      "name": "proxy",
      "outputs": [
        {
          "internalType": "contract ProxyBase",
          "name": "",
          "type": "address"
        }
      ],
      "payable": false,
      "stateMutability": "view",
      "type": "function"
    },
    {
      "constant": false,
      "inputs": [
        {
          "internalType": "contract ProxyBase",
          "name": "_proxy",
          "type": "address"
        }
      ],
      "name": "setProxy",
      "outputs": [],
      "payable": false,
      "stateMutability": "nonpayable",
      "type": "function"
    },
    {
      "constant": false,
      "inputs": [
        {
          "internalType": "address payable",
          "name": "newOwner",
          "type": "address"
        }
      ],
      "name": "transferOwnership",
      "outputs": [],
      "payable": false,
      "stateMutability": "nonpayable",
      "type": "function"
    },
    {
      "constant": false,
      "inputs": [
        {
          "internalType": "contract GenericDB",
          "name": "_genericDB",
          "type": "address"
        }
      ],
      "name": "setGenericDB",
      "outputs": [],
      "payable": false,
      "stateMutability": "nonpayable",
      "type": "function"
    },
    {
      "constant": false,
      "inputs": [],
      "name": "setKittieHELL",
      "outputs": [],
      "payable": false,
      "stateMutability": "nonpayable",
      "type": "function"
    },
    {
      "constant": true,
      "inputs": [
        {
          "internalType": "uint256",
          "name": "_id",
          "type": "uint256"
        }
      ],
      "name": "doesGhostExist",
      "outputs": [
        {
          "internalType": "bool",
          "name": "",
          "type": "bool"
        }
      ],
      "payable": false,
      "stateMutability": "view",
      "type": "function"
    },
    {
      "constant": false,
      "inputs": [
        {
          "internalType": "uint256",
          "name": "_kittieID",
          "type": "uint256"
        },
        {
          "internalType": "address",
          "name": "_owner",
          "type": "address"
        }
      ],
      "name": "loserKittieToHell",
      "outputs": [],
      "payable": false,
      "stateMutability": "nonpayable",
      "type": "function"
    },
    {
      "constant": true,
      "inputs": [
        {
          "internalType": "uint256",
          "name": "_id",
          "type": "uint256"
        }
      ],
      "name": "getGhostAttributes",
      "outputs": [
        {
          "internalType": "uint256",
          "name": "",
          "type": "uint256"
        },
        {
          "internalType": "address",
          "name": "",
          "type": "address"
        },
        {
          "internalType": "bool",
          "name": "",
          "type": "bool"
        },
        {
          "internalType": "uint256",
          "name": "",
          "type": "uint256"
        }
      ],
      "payable": false,
      "stateMutability": "view",
      "type": "function"
    },
    {
      "constant": true,
      "inputs": [],
      "name": "getLastGhostId",
      "outputs": [
        {
          "internalType": "uint256",
          "name": "",
          "type": "uint256"
        }
      ],
      "payable": false,
      "stateMutability": "view",
      "type": "function"
    },
    {
      "constant": false,
      "inputs": [
        {
          "internalType": "uint256",
          "name": "_kittieID",
          "type": "uint256"
        },
        {
          "internalType": "address",
          "name": "_owner",
          "type": "address"
        },
        {
          "internalType": "uint256",
          "name": "_sacrificeKittie",
          "type": "uint256"
        }
      ],
      "name": "sacrificeKittieToHell",
      "outputs": [],
      "payable": false,
      "stateMutability": "nonpayable",
      "type": "function"
    },
    {
      "constant": true,
      "inputs": [
        {
          "internalType": "uint256",
          "name": "_kittieID",
          "type": "uint256"
        }
      ],
      "name": "getNumberOfSacrificeKitties",
      "outputs": [
        {
          "internalType": "uint256",
          "name": "",
          "type": "uint256"
        }
      ],
      "payable": false,
      "stateMutability": "view",
      "type": "function"
    },
    {
      "constant": false,
      "inputs": [
        {
          "internalType": "uint256",
          "name": "_kittieID",
          "type": "uint256"
        },
        {
          "internalType": "uint256",
          "name": "_kty_amount",
          "type": "uint256"
        }
      ],
      "name": "lockKTYsInKittieHell",
      "outputs": [],
      "payable": false,
      "stateMutability": "nonpayable",
      "type": "function"
    },
    {
      "constant": true,
      "inputs": [],
      "name": "getTotalKTYsLockedInKittieHell",
      "outputs": [
        {
          "internalType": "uint256",
          "name": "",
          "type": "uint256"
        }
      ],
      "payable": false,
      "stateMutability": "view",
      "type": "function"
    },
    {
      "constant": true,
      "inputs": [],
      "name": "getTotalNumberOfGhostsInHell",
      "outputs": [
        {
          "internalType": "uint256",
          "name": "",
          "type": "uint256"
        }
      ],
      "payable": false,
      "stateMutability": "view",
      "type": "function"
    },
    {
      "constant": true,
      "inputs": [
        {
          "internalType": "uint256",
          "name": "_kittieID",
          "type": "uint256"
        }
      ],
      "name": "getGhostIdForKittie",
      "outputs": [
        {
          "internalType": "uint256",
          "name": "",
          "type": "uint256"
        }
      ],
      "payable": false,
      "stateMutability": "view",
      "type": "function"
    },
    {
      "constant": true,
      "inputs": [
        {
          "internalType": "uint256",
          "name": "_kittieID",
          "type": "uint256"
        }
      ],
      "name": "isKittieGhost",
      "outputs": [
        {
          "internalType": "bool",
          "name": "",
          "type": "bool"
        }
      ],
      "payable": false,
      "stateMutability": "view",
      "type": "function"
    }
  ],
  "bytecode": "0x60806040523480156200001157600080fd5b5060405162004a2038038062004a20833981810160405260208110156200003757600080fd5b8101908080519060200190929190505050336000806101000a81548173ffffffffffffffffffffffffffffffffffffffff021916908373ffffffffffffffffffffffffffffffffffffffff1602179055506200009981620000a060201b60201c565b506200013b565b6000809054906101000a900473ffffffffffffffffffffffffffffffffffffffff1673ffffffffffffffffffffffffffffffffffffffff163373ffffffffffffffffffffffffffffffffffffffff1614620000f757fe5b80600260006101000a81548173ffffffffffffffffffffffffffffffffffffffff021916908373ffffffffffffffffffffffffffffffffffffffff16021790555050565b6148d5806200014b6000396000f3fe608060405234801561001057600080fd5b50600436106101215760003560e01c8063b4be5f57116100ad578063e2e573e711610071578063e2e573e714610487578063ec556889146104df578063f2fde38b14610529578063f557bd211461056d578063ff6010ea146105a557610121565b8063b4be5f57146103b1578063b72819f5146103f7578063cf4f6cd514610415578063cfafbde714610433578063d2799fe81461047d57610121565b80636ac3a7cf116100f45780636ac3a7cf14610218578063828ac0be1461025a5780638da5cb5b146102e157806397107d6d1461032b57806398081ac21461036f57610121565b80632cf0b564146101265780633564e78c1461016c5780634afab815146101b657806359822e5d146101fa575b600080fd5b6101526004803603602081101561013c57600080fd5b81019080803590602001909291905050506105f3565b604051808215151515815260200191505060405180910390f35b610174610637565b604051808273ffffffffffffffffffffffffffffffffffffffff1673ffffffffffffffffffffffffffffffffffffffff16815260200191505060405180910390f35b6101f8600480360360208110156101cc57600080fd5b81019080803573ffffffffffffffffffffffffffffffffffffffff16906020019092919050505061065d565b005b6102026106f7565b6040518082815260200191505060405180910390f35b6102446004803603602081101561022e57600080fd5b8101908080359060200190929190505050610894565b6040518082815260200191505060405180910390f35b6102866004803603602081101561027057600080fd5b8101908080359060200190929190505050610a3b565b604051808581526020018473ffffffffffffffffffffffffffffffffffffffff1673ffffffffffffffffffffffffffffffffffffffff1681526020018315151515815260200182815260200194505050505060405180910390f35b6102e96110e0565b604051808273ffffffffffffffffffffffffffffffffffffffff1673ffffffffffffffffffffffffffffffffffffffff16815260200191505060405180910390f35b61036d6004803603602081101561034157600080fd5b81019080803573ffffffffffffffffffffffffffffffffffffffff169060200190929190505050611105565b005b61039b6004803603602081101561038557600080fd5b810190808035906020019092919050505061119f565b6040518082815260200191505060405180910390f35b6103dd600480360360208110156103c757600080fd5b8101908080359060200190929190505050611346565b604051808215151515815260200191505060405180910390f35b6103ff6114ed565b6040518082815260200191505060405180910390f35b61041d61168a565b6040518082815260200191505060405180910390f35b61043b61184c565b604051808273ffffffffffffffffffffffffffffffffffffffff1673ffffffffffffffffffffffffffffffffffffffff16815260200191505060405180910390f35b610485611872565b005b6104dd6004803603606081101561049d57600080fd5b8101908080359060200190929190803573ffffffffffffffffffffffffffffffffffffffff16906020019092919080359060200190929190505050611a52565b005b6104e7612f83565b604051808273ffffffffffffffffffffffffffffffffffffffff1673ffffffffffffffffffffffffffffffffffffffff16815260200191505060405180910390f35b61056b6004803603602081101561053f57600080fd5b81019080803573ffffffffffffffffffffffffffffffffffffffff169060200190929190505050612fa9565b005b6105a36004803603604081101561058357600080fd5b810190808035906020019092919080359060200190929190505050613077565b005b6105f1600480360360408110156105bb57600080fd5b8101908080359060200190929190803573ffffffffffffffffffffffffffffffffffffffff16906020019092919050505061356a565b005b6000806105ff8361119f565b90506000811415610614576000915050610632565b61061d81611346565b1561062c576001915050610632565b60009150505b919050565b600260009054906101000a900473ffffffffffffffffffffffffffffffffffffffff1681565b6000809054906101000a900473ffffffffffffffffffffffffffffffffffffffff1673ffffffffffffffffffffffffffffffffffffffff163373ffffffffffffffffffffffffffffffffffffffff16146106b357fe5b80600260006101000a81548173ffffffffffffffffffffffffffffffffffffffff021916908373ffffffffffffffffffffffffffffffffffffffff16021790555050565b6000600260009054906101000a900473ffffffffffffffffffffffffffffffffffffffff1673ffffffffffffffffffffffffffffffffffffffff166308acb5566040518060400160405280600c81526020017f4b697474696548656c6c4442000000000000000000000000000000000000000081525060405160200180807f746f74616c4b5459734c6f636b6564496e4b697474696548656c6c0000000000815250601b019050604051602081830303815290604052805190602001206040518363ffffffff1660e01b81526004018080602001838152602001828103825284818151815260200191508051906020019080838360005b838110156108095780820151818401526020810190506107ee565b50505050905090810190601f1680156108365780820380516001836020036101000a031916815260200191505b50935050505060206040518083038186803b15801561085457600080fd5b505afa158015610868573d6000803e3d6000fd5b505050506040513d602081101561087e57600080fd5b8101908080519060200190929190505050905090565b6000600260009054906101000a900473ffffffffffffffffffffffffffffffffffffffff1673ffffffffffffffffffffffffffffffffffffffff166308acb5566040518060400160405280600c81526020017f4b697474696548656c6c444200000000000000000000000000000000000000008152508460405160200180828152602001807f6e756d6265724f665361637269666963654b6974746965730000000000000000815250601801915050604051602081830303815290604052805190602001206040518363ffffffff1660e01b81526004018080602001838152602001828103825284818151815260200191508051906020019080838360005b838110156109ae578082015181840152602081019050610993565b50505050905090810190601f1680156109db5780820380516001836020036101000a031916815260200191505b50935050505060206040518083038186803b1580156109f957600080fd5b505afa158015610a0d573d6000803e3d6000fd5b505050506040513d6020811015610a2357600080fd5b81019080805190602001909291905050509050919050565b6000806000806000600260009054906101000a900473ffffffffffffffffffffffffffffffffffffffff1673ffffffffffffffffffffffffffffffffffffffff166308acb5566040518060400160405280600c81526020017f4b697474696548656c6c444200000000000000000000000000000000000000008152508860405160200180828152602001807f6b69747469654964000000000000000000000000000000000000000000000000815250600801915050604051602081830303815290604052805190602001206040518363ffffffff1660e01b81526004018080602001838152602001828103825284818151815260200191508051906020019080838360005b83811015610b5b578082015181840152602081019050610b40565b50505050905090810190601f168015610b885780820380516001836020036101000a031916815260200191505b50935050505060206040518083038186803b158015610ba657600080fd5b505afa158015610bba573d6000803e3d6000fd5b505050506040513d6020811015610bd057600080fd5b810190808051906020019092919050505090506000600260009054906101000a900473ffffffffffffffffffffffffffffffffffffffff1673ffffffffffffffffffffffffffffffffffffffff1663b93a5b5e6040518060400160405280600c81526020017f4b697474696548656c6c444200000000000000000000000000000000000000008152508960405160200180828152602001807f6f776e6572000000000000000000000000000000000000000000000000000000815250600501915050604051602081830303815290604052805190602001206040518363ffffffff1660e01b81526004018080602001838152602001828103825284818151815260200191508051906020019080838360005b83811015610cfd578082015181840152602081019050610ce2565b50505050905090810190601f168015610d2a5780820380516001836020036101000a031916815260200191505b50935050505060206040518083038186803b158015610d4857600080fd5b505afa158015610d5c573d6000803e3d6000fd5b505050506040513d6020811015610d7257600080fd5b810190808051906020019092919050505090506000600260009054906101000a900473ffffffffffffffffffffffffffffffffffffffff1673ffffffffffffffffffffffffffffffffffffffff16631c58c8bb6040518060400160405280600c81526020017f4b697474696548656c6c444200000000000000000000000000000000000000008152508a60405160200180828152602001807f7361637269666963654b69747469650000000000000000000000000000000000815250600f01915050604051602081830303815290604052805190602001206040518363ffffffff1660e01b81526004018080602001838152602001828103825284818151815260200191508051906020019080838360005b83811015610e9f578082015181840152602081019050610e84565b50505050905090810190601f168015610ecc5780820380516001836020036101000a031916815260200191505b50935050505060206040518083038186803b158015610eea57600080fd5b505afa158015610efe573d6000803e3d6000fd5b505050506040513d6020811015610f1457600080fd5b810190808051906020019092919050505090506000600260009054906101000a900473ffffffffffffffffffffffffffffffffffffffff1673ffffffffffffffffffffffffffffffffffffffff166308acb5566040518060400160405280600c81526020017f4b697474696548656c6c444200000000000000000000000000000000000000008152508b60405160200180828152602001807f736163726966696365466f720000000000000000000000000000000000000000815250600c01915050604051602081830303815290604052805190602001206040518363ffffffff1660e01b81526004018080602001838152602001828103825284818151815260200191508051906020019080838360005b83811015611041578082015181840152602081019050611026565b50505050905090810190601f16801561106e5780820380516001836020036101000a031916815260200191505b50935050505060206040518083038186803b15801561108c57600080fd5b505afa1580156110a0573d6000803e3d6000fd5b505050506040513d60208110156110b657600080fd5b81019080805190602001909291905050509050838383839750975097509750505050509193509193565b6000809054906101000a900473ffffffffffffffffffffffffffffffffffffffff1681565b6000809054906101000a900473ffffffffffffffffffffffffffffffffffffffff1673ffffffffffffffffffffffffffffffffffffffff163373ffffffffffffffffffffffffffffffffffffffff161461115b57fe5b80600160006101000a81548173ffffffffffffffffffffffffffffffffffffffff021916908373ffffffffffffffffffffffffffffffffffffffff16021790555050565b6000600260009054906101000a900473ffffffffffffffffffffffffffffffffffffffff1673ffffffffffffffffffffffffffffffffffffffff166308acb5566040518060400160405280600c81526020017f4b697474696548656c6c444200000000000000000000000000000000000000008152508460405160200180828152602001807f67686f7374494400000000000000000000000000000000000000000000000000815250600701915050604051602081830303815290604052805190602001206040518363ffffffff1660e01b81526004018080602001838152602001828103825284818151815260200191508051906020019080838360005b838110156112b957808201518184015260208101905061129e565b50505050905090810190601f1680156112e65780820380516001836020036101000a031916815260200191505b50935050505060206040518083038186803b15801561130457600080fd5b505afa158015611318573d6000803e3d6000fd5b505050506040513d602081101561132e57600080fd5b81019080805190602001909291905050509050919050565b6000600260009054906101000a900473ffffffffffffffffffffffffffffffffffffffff1673ffffffffffffffffffffffffffffffffffffffff166396edc0096040518060400160405280600c81526020017f4b697474696548656c6c4442000000000000000000000000000000000000000081525060405160200180807f4b697474696548656c6c5461626c650000000000000000000000000000000000815250600f01905060405160208183030381529060405280519060200120856040518463ffffffff1660e01b81526004018080602001848152602001838152602001828103825285818151815260200191508051906020019080838360005b8381101561145f578082015181840152602081019050611444565b50505050905090810190601f16801561148c5780820380516001836020036101000a031916815260200191505b5094505050505060206040518083038186803b1580156114ab57600080fd5b505afa1580156114bf573d6000803e3d6000fd5b505050506040513d60208110156114d557600080fd5b81019080805190602001909291905050509050919050565b6000600260009054906101000a900473ffffffffffffffffffffffffffffffffffffffff1673ffffffffffffffffffffffffffffffffffffffff166308acb5566040518060400160405280600c81526020017f4b697474696548656c6c4442000000000000000000000000000000000000000081525060405160200180807f746f74616c4e756d6265724f664b6974746965730000000000000000000000008152506014019050604051602081830303815290604052805190602001206040518363ffffffff1660e01b81526004018080602001838152602001828103825284818151815260200191508051906020019080838360005b838110156115ff5780820151818401526020810190506115e4565b50505050905090810190601f16801561162c5780820380516001836020036101000a031916815260200191505b50935050505060206040518083038186803b15801561164a57600080fd5b505afa15801561165e573d6000803e3d6000fd5b505050506040513d602081101561167457600080fd5b8101908080519060200190929190505050905090565b600080600260009054906101000a900473ffffffffffffffffffffffffffffffffffffffff1673ffffffffffffffffffffffffffffffffffffffff16639a481f4e6040518060400160405280600c81526020017f4b697474696548656c6c4442000000000000000000000000000000000000000081525060405160200180807f4b697474696548656c6c5461626c650000000000000000000000000000000000815250600f01905060405160208183030381529060405280519060200120600060016040518563ffffffff1660e01b8152600401808060200185815260200184815260200183151515158152602001828103825286818151815260200191508051906020019080838360005b838110156117b1578082015181840152602081019050611796565b50505050905090810190601f1680156117de5780820380516001836020036101000a031916815260200191505b5095505050505050604080518083038186803b1580156117fd57600080fd5b505afa158015611811573d6000803e3d6000fd5b505050506040513d604081101561182757600080fd5b8101908080519060200190929190805190602001909291905050509150508091505090565b600360009054906101000a900473ffffffffffffffffffffffffffffffffffffffff1681565b6000809054906101000a900473ffffffffffffffffffffffffffffffffffffffff1673ffffffffffffffffffffffffffffffffffffffff163373ffffffffffffffffffffffffffffffffffffffff16146118c857fe5b600160009054906101000a900473ffffffffffffffffffffffffffffffffffffffff1673ffffffffffffffffffffffffffffffffffffffff1663358177736040518060400160405280600a81526020017f4b697474696548656c6c000000000000000000000000000000000000000000008152506040518263ffffffff1660e01b81526004018080602001828103825283818151815260200191508051906020019080838360005b8381101561198b578082015181840152602081019050611970565b50505050905090810190601f1680156119b85780820380516001836020036101000a031916815260200191505b509250505060206040518083038186803b1580156119d557600080fd5b505afa1580156119e9573d6000803e3d6000fd5b505050506040513d60208110156119ff57600080fd5b8101908080519060200190929190505050600360006101000a81548173ffffffffffffffffffffffffffffffffffffffff021916908373ffffffffffffffffffffffffffffffffffffffff160217905550565b6040518060400160405280600a81526020017f4b697474696548656c6c00000000000000000000000000000000000000000000815250611a918161433c565b8273ffffffffffffffffffffffffffffffffffffffff16600160009054906101000a900473ffffffffffffffffffffffffffffffffffffffff1673ffffffffffffffffffffffffffffffffffffffff1663358177736040518060400160405280600d81526020017f43727970746f4b697474696573000000000000000000000000000000000000008152506040518263ffffffff1660e01b81526004018080602001828103825283818151815260200191508051906020019080838360005b83811015611b6b578082015181840152602081019050611b50565b50505050905090810190601f168015611b985780820380516001836020036101000a031916815260200191505b509250505060206040518083038186803b158015611bb557600080fd5b505afa158015611bc9573d6000803e3d6000fd5b505050506040513d6020811015611bdf57600080fd5b810190808051906020019092919050505073ffffffffffffffffffffffffffffffffffffffff16636352211e846040518263ffffffff1660e01b81526004018082815260200191505060206040518083038186803b158015611c4057600080fd5b505afa158015611c54573d6000803e3d6000fd5b505050506040513d6020811015611c6a57600080fd5b810190808051906020019092919050505073ffffffffffffffffffffffffffffffffffffffff1614611c9b57600080fd5b600160009054906101000a900473ffffffffffffffffffffffffffffffffffffffff1673ffffffffffffffffffffffffffffffffffffffff1663358177736040518060400160405280600d81526020017f43727970746f4b697474696573000000000000000000000000000000000000008152506040518263ffffffff1660e01b81526004018080602001828103825283818151815260200191508051906020019080838360005b83811015611d5e578082015181840152602081019050611d43565b50505050905090810190601f168015611d8b5780820380516001836020036101000a031916815260200191505b509250505060206040518083038186803b158015611da857600080fd5b505afa158015611dbc573d6000803e3d6000fd5b505050506040513d6020811015611dd257600080fd5b810190808051906020019092919050505073ffffffffffffffffffffffffffffffffffffffff166323b872dd8430856040518463ffffffff1660e01b8152600401808473ffffffffffffffffffffffffffffffffffffffff1673ffffffffffffffffffffffffffffffffffffffff1681526020018373ffffffffffffffffffffffffffffffffffffffff1673ffffffffffffffffffffffffffffffffffffffff1681526020018281526020019350505050600060405180830381600087803b158015611e9d57600080fd5b505af1158015611eb1573d6000803e3d6000fd5b505050503073ffffffffffffffffffffffffffffffffffffffff16600160009054906101000a900473ffffffffffffffffffffffffffffffffffffffff1673ffffffffffffffffffffffffffffffffffffffff1663358177736040518060400160405280600d81526020017f43727970746f4b697474696573000000000000000000000000000000000000008152506040518263ffffffff1660e01b81526004018080602001828103825283818151815260200191508051906020019080838360005b83811015611f8f578082015181840152602081019050611f74565b50505050905090810190601f168015611fbc5780820380516001836020036101000a031916815260200191505b509250505060206040518083038186803b158015611fd957600080fd5b505afa158015611fed573d6000803e3d6000fd5b505050506040513d602081101561200357600080fd5b810190808051906020019092919050505073ffffffffffffffffffffffffffffffffffffffff16636352211e846040518263ffffffff1660e01b81526004018082815260200191505060206040518083038186803b15801561206457600080fd5b505afa158015612078573d6000803e3d6000fd5b505050506040513d602081101561208e57600080fd5b810190808051906020019092919050505073ffffffffffffffffffffffffffffffffffffffff16146120bf57600080fd5b60006120dc60016120ce61168a565b6145d790919063ffffffff16565b90506120e7816145f3565b600260009054906101000a900473ffffffffffffffffffffffffffffffffffffffff1673ffffffffffffffffffffffffffffffffffffffff16630214a37c6040518060400160405280600c81526020017f4b697474696548656c6c444200000000000000000000000000000000000000008152508360405160200180828152602001807f6b6974746965496400000000000000000000000000000000000000000000000081525060080191505060405160208183030381529060405280519060200120866040518463ffffffff1660e01b81526004018080602001848152602001838152602001828103825285818151815260200191508051906020019080838360005b838110156122065780820151818401526020810190506121eb565b50505050905090810190601f1680156122335780820380516001836020036101000a031916815260200191505b50945050505050600060405180830381600087803b15801561225457600080fd5b505af1158015612268573d6000803e3d6000fd5b50505050600260009054906101000a900473ffffffffffffffffffffffffffffffffffffffff1673ffffffffffffffffffffffffffffffffffffffff1663866d59fe6040518060400160405280600c81526020017f4b697474696548656c6c444200000000000000000000000000000000000000008152508360405160200180828152602001807f6f776e657200000000000000000000000000000000000000000000000000000081525060050191505060405160208183030381529060405280519060200120876040518463ffffffff1660e01b815260040180806020018481526020018373ffffffffffffffffffffffffffffffffffffffff1673ffffffffffffffffffffffffffffffffffffffff168152602001828103825285818151815260200191508051906020019080838360005b838110156123b757808201518184015260208101905061239c565b50505050905090810190601f1680156123e45780820380516001836020036101000a031916815260200191505b50945050505050600060405180830381600087803b15801561240557600080fd5b505af1158015612419573d6000803e3d6000fd5b50505050600260009054906101000a900473ffffffffffffffffffffffffffffffffffffffff1673ffffffffffffffffffffffffffffffffffffffff1663cb30ffe76040518060400160405280600c81526020017f4b697474696548656c6c444200000000000000000000000000000000000000008152508360405160200180828152602001807f7361637269666963654b69747469650000000000000000000000000000000000815250600f019150506040516020818303038152906040528051906020012060016040518463ffffffff1660e01b8152600401808060200184815260200183151515158152602001828103825285818151815260200191508051906020019080838360005b83811015612541578082015181840152602081019050612526565b50505050905090810190601f16801561256e5780820380516001836020036101000a031916815260200191505b50945050505050600060405180830381600087803b15801561258f57600080fd5b505af11580156125a3573d6000803e3d6000fd5b50505050600260009054906101000a900473ffffffffffffffffffffffffffffffffffffffff1673ffffffffffffffffffffffffffffffffffffffff16630214a37c6040518060400160405280600c81526020017f4b697474696548656c6c444200000000000000000000000000000000000000008152508360405160200180828152602001807f736163726966696365466f720000000000000000000000000000000000000000815250600c0191505060405160208183030381529060405280519060200120886040518463ffffffff1660e01b81526004018080602001848152602001838152602001828103825285818151815260200191508051906020019080838360005b838110156126c65780820151818401526020810190506126ab565b50505050905090810190601f1680156126f35780820380516001836020036101000a031916815260200191505b50945050505050600060405180830381600087803b15801561271457600080fd5b505af1158015612728573d6000803e3d6000fd5b50505050600260009054906101000a900473ffffffffffffffffffffffffffffffffffffffff1673ffffffffffffffffffffffffffffffffffffffff16630214a37c6040518060400160405280600c81526020017f4b697474696548656c6c444200000000000000000000000000000000000000008152508560405160200180828152602001807f67686f737449440000000000000000000000000000000000000000000000000081525060070191505060405160208183030381529060405280519060200120846040518463ffffffff1660e01b81526004018080602001848152602001838152602001828103825285818151815260200191508051906020019080838360005b8381101561284b578082015181840152602081019050612830565b50505050905090810190601f1680156128785780820380516001836020036101000a031916815260200191505b50945050505050600060405180830381600087803b15801561289957600080fd5b505af11580156128ad573d6000803e3d6000fd5b505050506000612a646001600260009054906101000a900473ffffffffffffffffffffffffffffffffffffffff1673ffffffffffffffffffffffffffffffffffffffff166308acb5566040518060400160405280600c81526020017f4b697474696548656c6c444200000000000000000000000000000000000000008152508a60405160200180828152602001807f6e756d6265724f665361637269666963654b6974746965730000000000000000815250601801915050604051602081830303815290604052805190602001206040518363ffffffff1660e01b81526004018080602001838152602001828103825284818151815260200191508051906020019080838360005b838110156129d05780820151818401526020810190506129b5565b50505050905090810190601f1680156129fd5780820380516001836020036101000a031916815260200191505b50935050505060206040518083038186803b158015612a1b57600080fd5b505afa158015612a2f573d6000803e3d6000fd5b505050506040513d6020811015612a4557600080fd5b81019080805190602001909291905050506145d790919063ffffffff16565b9050600260009054906101000a900473ffffffffffffffffffffffffffffffffffffffff1673ffffffffffffffffffffffffffffffffffffffff16630214a37c6040518060400160405280600c81526020017f4b697474696548656c6c444200000000000000000000000000000000000000008152508860405160200180828152602001807f6e756d6265724f665361637269666963654b697474696573000000000000000081525060180191505060405160208183030381529060405280519060200120846040518463ffffffff1660e01b81526004018080602001848152602001838152602001828103825285818151815260200191508051906020019080838360005b83811015612b85578082015181840152602081019050612b6a565b50505050905090810190601f168015612bb25780820380516001836020036101000a031916815260200191505b50945050505050600060405180830381600087803b158015612bd357600080fd5b505af1158015612be7573d6000803e3d6000fd5b505050506000600260009054906101000a900473ffffffffffffffffffffffffffffffffffffffff1673ffffffffffffffffffffffffffffffffffffffff166308acb5566040518060400160405280600c81526020017f4b697474696548656c6c4442000000000000000000000000000000000000000081525060405160200180807f746f74616c4e756d6265724f664b6974746965730000000000000000000000008152506014019050604051602081830303815290604052805190602001206040518363ffffffff1660e01b81526004018080602001838152602001828103825284818151815260200191508051906020019080838360005b83811015612cfd578082015181840152602081019050612ce2565b50505050905090810190601f168015612d2a5780820380516001836020036101000a031916815260200191505b50935050505060206040518083038186803b158015612d4857600080fd5b505afa158015612d5c573d6000803e3d6000fd5b505050506040513d6020811015612d7257600080fd5b81019080805190602001909291905050509050600260009054906101000a900473ffffffffffffffffffffffffffffffffffffffff1673ffffffffffffffffffffffffffffffffffffffff16630214a37c6040518060400160405280600c81526020017f4b697474696548656c6c4442000000000000000000000000000000000000000081525060405160200180807f746f74616c4e756d6265724f664b697474696573000000000000000000000000815250601401905060405160208183030381529060405280519060200120612e546001866145d790919063ffffffff16565b6040518463ffffffff1660e01b81526004018080602001848152602001838152602001828103825285818151815260200191508051906020019080838360005b83811015612eaf578082015181840152602081019050612e94565b50505050905090810190601f168015612edc5780820380516001836020036101000a031916815260200191505b50945050505050600060405180830381600087803b158015612efd57600080fd5b505af1158015612f11573d6000803e3d6000fd5b5050505082857f168a8b08a9a164dafbfd19c327bbbd4702d179d98c7d5be17a18101e3ff1bec088604051808273ffffffffffffffffffffffffffffffffffffffff1673ffffffffffffffffffffffffffffffffffffffff16815260200191505060405180910390a350505050505050565b600160009054906101000a900473ffffffffffffffffffffffffffffffffffffffff1681565b6000809054906101000a900473ffffffffffffffffffffffffffffffffffffffff1673ffffffffffffffffffffffffffffffffffffffff163373ffffffffffffffffffffffffffffffffffffffff1614612fff57fe5b600073ffffffffffffffffffffffffffffffffffffffff168173ffffffffffffffffffffffffffffffffffffffff161461307457806000806101000a81548173ffffffffffffffffffffffffffffffffffffffff021916908373ffffffffffffffffffffffffffffffffffffffff1602179055505b50565b6040518060400160405280600a81526020017f4b697474696548656c6c000000000000000000000000000000000000000000008152506130b68161433c565b600260009054906101000a900473ffffffffffffffffffffffffffffffffffffffff1673ffffffffffffffffffffffffffffffffffffffff16630214a37c6040518060400160405280600c81526020017f4b697474696548656c6c444200000000000000000000000000000000000000008152508560405160200180828152602001807f726564656d7074696f6e4665654b54590000000000000000000000000000000081525060100191505060405160208183030381529060405280519060200120856040518463ffffffff1660e01b81526004018080602001848152602001838152602001828103825285818151815260200191508051906020019080838360005b838110156131d55780820151818401526020810190506131ba565b50505050905090810190601f1680156132025780820380516001836020036101000a031916815260200191505b50945050505050600060405180830381600087803b15801561322357600080fd5b505af1158015613237573d6000803e3d6000fd5b5050505060006133e583600260009054906101000a900473ffffffffffffffffffffffffffffffffffffffff1673ffffffffffffffffffffffffffffffffffffffff166308acb5566040518060400160405280600c81526020017f4b697474696548656c6c4442000000000000000000000000000000000000000081525060405160200180807f746f74616c4b5459734c6f636b6564496e4b697474696548656c6c0000000000815250601b019050604051602081830303815290604052805190602001206040518363ffffffff1660e01b81526004018080602001838152602001828103825284818151815260200191508051906020019080838360005b83811015613351578082015181840152602081019050613336565b50505050905090810190601f16801561337e5780820380516001836020036101000a031916815260200191505b50935050505060206040518083038186803b15801561339c57600080fd5b505afa1580156133b0573d6000803e3d6000fd5b505050506040513d60208110156133c657600080fd5b81019080805190602001909291905050506145d790919063ffffffff16565b9050600260009054906101000a900473ffffffffffffffffffffffffffffffffffffffff1673ffffffffffffffffffffffffffffffffffffffff16630214a37c6040518060400160405280600c81526020017f4b697474696548656c6c4442000000000000000000000000000000000000000081525060405160200180807f746f74616c4b5459734c6f636b6564496e4b697474696548656c6c0000000000815250601b01905060405160208183030381529060405280519060200120846040518463ffffffff1660e01b81526004018080602001848152602001838152602001828103825285818151815260200191508051906020019080838360005b838110156134fe5780820151818401526020810190506134e3565b50505050905090810190601f16801561352b5780820380516001836020036101000a031916815260200191505b50945050505050600060405180830381600087803b15801561354c57600080fd5b505af1158015613560573d6000803e3d6000fd5b5050505050505050565b6040518060400160405280600a81526020017f4b697474696548656c6c000000000000000000000000000000000000000000008152506135a98161433c565b3073ffffffffffffffffffffffffffffffffffffffff16600160009054906101000a900473ffffffffffffffffffffffffffffffffffffffff1673ffffffffffffffffffffffffffffffffffffffff1663358177736040518060400160405280600d81526020017f43727970746f4b697474696573000000000000000000000000000000000000008152506040518263ffffffff1660e01b81526004018080602001828103825283818151815260200191508051906020019080838360005b83811015613683578082015181840152602081019050613668565b50505050905090810190601f1680156136b05780820380516001836020036101000a031916815260200191505b509250505060206040518083038186803b1580156136cd57600080fd5b505afa1580156136e1573d6000803e3d6000fd5b505050506040513d60208110156136f757600080fd5b810190808051906020019092919050505073ffffffffffffffffffffffffffffffffffffffff16636352211e856040518263ffffffff1660e01b81526004018082815260200191505060206040518083038186803b15801561375857600080fd5b505afa15801561376c573d6000803e3d6000fd5b505050506040513d602081101561378257600080fd5b810190808051906020019092919050505073ffffffffffffffffffffffffffffffffffffffff16146137b357600080fd5b60006137d060016137c261168a565b6145d790919063ffffffff16565b90506137db816145f3565b600260009054906101000a900473ffffffffffffffffffffffffffffffffffffffff1673ffffffffffffffffffffffffffffffffffffffff16630214a37c6040518060400160405280600c81526020017f4b697474696548656c6c444200000000000000000000000000000000000000008152508360405160200180828152602001807f6b6974746965496400000000000000000000000000000000000000000000000081525060080191505060405160208183030381529060405280519060200120876040518463ffffffff1660e01b81526004018080602001848152602001838152602001828103825285818151815260200191508051906020019080838360005b838110156138fa5780820151818401526020810190506138df565b50505050905090810190601f1680156139275780820380516001836020036101000a031916815260200191505b50945050505050600060405180830381600087803b15801561394857600080fd5b505af115801561395c573d6000803e3d6000fd5b50505050600260009054906101000a900473ffffffffffffffffffffffffffffffffffffffff1673ffffffffffffffffffffffffffffffffffffffff1663866d59fe6040518060400160405280600c81526020017f4b697474696548656c6c444200000000000000000000000000000000000000008152508360405160200180828152602001807f6f776e657200000000000000000000000000000000000000000000000000000081525060050191505060405160208183030381529060405280519060200120866040518463ffffffff1660e01b815260040180806020018481526020018373ffffffffffffffffffffffffffffffffffffffff1673ffffffffffffffffffffffffffffffffffffffff168152602001828103825285818151815260200191508051906020019080838360005b83811015613aab578082015181840152602081019050613a90565b50505050905090810190601f168015613ad85780820380516001836020036101000a031916815260200191505b50945050505050600060405180830381600087803b158015613af957600080fd5b505af1158015613b0d573d6000803e3d6000fd5b50505050600260009054906101000a900473ffffffffffffffffffffffffffffffffffffffff1673ffffffffffffffffffffffffffffffffffffffff1663cb30ffe76040518060400160405280600c81526020017f4b697474696548656c6c444200000000000000000000000000000000000000008152508360405160200180828152602001807f7361637269666963654b69747469650000000000000000000000000000000000815250600f019150506040516020818303038152906040528051906020012060006040518463ffffffff1660e01b8152600401808060200184815260200183151515158152602001828103825285818151815260200191508051906020019080838360005b83811015613c35578082015181840152602081019050613c1a565b50505050905090810190601f168015613c625780820380516001836020036101000a031916815260200191505b50945050505050600060405180830381600087803b158015613c8357600080fd5b505af1158015613c97573d6000803e3d6000fd5b50505050600260009054906101000a900473ffffffffffffffffffffffffffffffffffffffff1673ffffffffffffffffffffffffffffffffffffffff16630214a37c6040518060400160405280600c81526020017f4b697474696548656c6c444200000000000000000000000000000000000000008152508360405160200180828152602001807f736163726966696365466f720000000000000000000000000000000000000000815250600c019150506040516020818303038152906040528051906020012060006040518463ffffffff1660e01b81526004018080602001848152602001838152602001828103825285818151815260200191508051906020019080838360005b83811015613dbb578082015181840152602081019050613da0565b50505050905090810190601f168015613de85780820380516001836020036101000a031916815260200191505b50945050505050600060405180830381600087803b158015613e0957600080fd5b505af1158015613e1d573d6000803e3d6000fd5b50505050600260009054906101000a900473ffffffffffffffffffffffffffffffffffffffff1673ffffffffffffffffffffffffffffffffffffffff16630214a37c6040518060400160405280600c81526020017f4b697474696548656c6c444200000000000000000000000000000000000000008152508660405160200180828152602001807f67686f737449440000000000000000000000000000000000000000000000000081525060070191505060405160208183030381529060405280519060200120846040518463ffffffff1660e01b81526004018080602001848152602001838152602001828103825285818151815260200191508051906020019080838360005b83811015613f40578082015181840152602081019050613f25565b50505050905090810190601f168015613f6d5780820380516001836020036101000a031916815260200191505b50945050505050600060405180830381600087803b158015613f8e57600080fd5b505af1158015613fa2573d6000803e3d6000fd5b505050506000600260009054906101000a900473ffffffffffffffffffffffffffffffffffffffff1673ffffffffffffffffffffffffffffffffffffffff166308acb5566040518060400160405280600c81526020017f4b697474696548656c6c4442000000000000000000000000000000000000000081525060405160200180807f746f74616c4e756d6265724f664b6974746965730000000000000000000000008152506014019050604051602081830303815290604052805190602001206040518363ffffffff1660e01b81526004018080602001838152602001828103825284818151815260200191508051906020019080838360005b838110156140b857808201518184015260208101905061409d565b50505050905090810190601f1680156140e55780820380516001836020036101000a031916815260200191505b50935050505060206040518083038186803b15801561410357600080fd5b505afa158015614117573d6000803e3d6000fd5b505050506040513d602081101561412d57600080fd5b81019080805190602001909291905050509050600260009054906101000a900473ffffffffffffffffffffffffffffffffffffffff1673ffffffffffffffffffffffffffffffffffffffff16630214a37c6040518060400160405280600c81526020017f4b697474696548656c6c4442000000000000000000000000000000000000000081525060405160200180807f746f74616c4e756d6265724f664b69747469657300000000000000000000000081525060140190506040516020818303038152906040528051906020012061420f6001866145d790919063ffffffff16565b6040518463ffffffff1660e01b81526004018080602001848152602001838152602001828103825285818151815260200191508051906020019080838360005b8381101561426a57808201518184015260208101905061424f565b50505050905090810190601f1680156142975780820380516001836020036101000a031916815260200191505b50945050505050600060405180830381600087803b1580156142b857600080fd5b505af11580156142cc573d6000803e3d6000fd5b5050505081857f168a8b08a9a164dafbfd19c327bbbd4702d179d98c7d5be17a18101e3ff1bec086604051808273ffffffffffffffffffffffffffffffffffffffff1673ffffffffffffffffffffffffffffffffffffffff16815260200191505060405180910390a35050505050565b600073ffffffffffffffffffffffffffffffffffffffff16600160009054906101000a900473ffffffffffffffffffffffffffffffffffffffff1673ffffffffffffffffffffffffffffffffffffffff161415614401576040517f08c379a00000000000000000000000000000000000000000000000000000000081526004018080602001828103825260088152602001807f4e6f2050726f787900000000000000000000000000000000000000000000000081525060200191505060405180910390fd5b6000600160009054906101000a900473ffffffffffffffffffffffffffffffffffffffff1673ffffffffffffffffffffffffffffffffffffffff166335817773836040518263ffffffff1660e01b81526004018080602001828103825283818151815260200191508051906020019080838360005b83811015614491578082015181840152602081019050614476565b50505050905090810190601f1680156144be5780820380516001836020036101000a031916815260200191505b509250505060206040518083038186803b1580156144db57600080fd5b505afa1580156144ef573d6000803e3d6000fd5b505050506040513d602081101561450557600080fd5b81019080805190602001909291905050509050600073ffffffffffffffffffffffffffffffffffffffff168173ffffffffffffffffffffffffffffffffffffffff16141561454f57fe5b8073ffffffffffffffffffffffffffffffffffffffff163373ffffffffffffffffffffffffffffffffffffffff16146145d3576040517f08c379a000000000000000000000000000000000000000000000000000000000815260040180806020018281038252602d815260200180614874602d913960400191505060405180910390fd5b5050565b6000808284019050838110156145e957fe5b8091505092915050565b600260009054906101000a900473ffffffffffffffffffffffffffffffffffffffff1673ffffffffffffffffffffffffffffffffffffffff166387d533626040518060400160405280600c81526020017f4b697474696548656c6c4442000000000000000000000000000000000000000081525060405160200180807f4b697474696548656c6c5461626c650000000000000000000000000000000000815250600f01905060405160208183030381529060405280519060200120846040518463ffffffff1660e01b81526004018080602001848152602001838152602001828103825285818151815260200191508051906020019080838360005b8381101561470a5780820151818401526020810190506146ef565b50505050905090810190601f1680156147375780820380516001836020036101000a031916815260200191505b50945050505050602060405180830381600087803b15801561475857600080fd5b505af115801561476c573d6000803e3d6000fd5b505050506040513d602081101561478257600080fd5b81019080805190602001909291905050506040518060400160405280601c81526020017f47686f737420616c72656164792065786973747320696e2048656c6c000000008152509061486f576040517f08c379a00000000000000000000000000000000000000000000000000000000081526004018080602001828103825283818151815260200191508051906020019080838360005b83811015614834578082015181840152602081019050614819565b50505050905090810190601f1680156148615780820380516001836020036101000a031916815260200191505b509250505060405180910390fd5b505056fe416363657373206973206f6e6c7920616c6c6f7765642066726f6d20737065636966696320636f6e7472616374a265627a7a72315820b58ce9068d4c7da9b76ae79d6eee7ac3b01500c12d379ff5941cd6fb188c47c564736f6c63430005110032",
  "source": "/**\n * @title kittiehellDB\n *\n * @author @kittieFIGHT @ola\n *\n */\n//modifier class (DSAuth )\n//Event class ( DSNote )\n//\n// This program is free software: you can redistribute it and/or modify\n// it under the terms of the GNU General Public License as published by\n// the Free Software Foundation, either version 3 of the License, or\n// (at your option) any later version.\n\n// This program is distributed in the hope that it will be useful,\n// but WITHOUT ANY WARRANTY; without even the implied warranty of\n// MERCHANTABILITY or FITNESS FOR A PARTICULAR PURPOSE.  See the\n// GNU General Public License for more details.\n\n// You should have received a copy of the GNU General Public License\n// along with this program.  If not, see <http://www.gnu.org/licenses/>.\npragma solidity ^0.5.5;\n\nimport \"../proxy/Proxied.sol\";\nimport \"../../authority/Guard.sol\";\nimport \"./GenericDB.sol\";\nimport \"../../libs/SafeMath.sol\";\nimport \"../../interfaces/ERC721.sol\";\nimport \"../kittieHELL/KittieHell.sol\";\n\n/**\n * @title KittieHellDB\n * @author @kittieFIGHT @ziweidream\n */\n\ncontract KittieHellDB is Proxied, Guard {\n    using SafeMath for uint256;\n\n    GenericDB public genericDB;\n    KittieHell public kittieHELL;\n\n    bytes32 internal constant TABLE_KEY_KITTIEHELL = keccak256(abi.encodePacked(\"KittieHellTable\"));\n    string internal constant ERROR_ALREADY_EXIST = \"Ghost already exists in Hell\";\n    string internal constant ERROR_DOES_NOT_EXIST = \"Ghost not exists\";\n\n    constructor(GenericDB _genericDB) public {\n      setGenericDB(_genericDB);\n    }\n\n    function setGenericDB(GenericDB _genericDB) public onlyOwner {\n      genericDB = GenericDB(_genericDB);\n   }\n\n    function setKittieHELL() public onlyOwner {\n      kittieHELL = KittieHell(proxy.getContract(CONTRACT_NAME_KITTIEHELL));\n    }\n\n  /**\n   * @author @ziweidream\n   * @param _id the node id\n   * @return true if the node _id exists\n   */\n  function doesGhostExist(uint256 _id) public view returns (bool) {\n    return genericDB.doesNodeExist(CONTRACT_NAME_KITTIEHELL_DB, TABLE_KEY_KITTIEHELL, _id);\n  }\n\n  /**\n   * @author @ziweidream\n   * @dev Add the node _id to GhostsList\n   * @param _id the node id\n   */\n  function fallToHell(uint256 _id)\n    internal\n  {\n    require(genericDB.pushNodeToLinkedList(CONTRACT_NAME_KITTIEHELL_DB, TABLE_KEY_KITTIEHELL, _id), ERROR_ALREADY_EXIST);\n  }\n\n  /**\n   * @author @ziweidream\n   * @dev This function can only be carried out via kittieHELL contract\n   * @dev Add the node _id of a loser kittie to GhostsList\n   * @param _kittieID the kittieID of the loser kittie who lost a game\n   * @param _owner the owner of the loser kittie\n   */\n  function loserKittieToHell\n  (\n    uint256 _kittieID,\n    address _owner\n  )\n    public\n    onlyContract(CONTRACT_NAME_KITTIEHELL)\n  {\n    require(ERC721(proxy.getContract(CONTRACT_NAME_CRYPTOKITTIES)).ownerOf(_kittieID) == address(this));\n    uint256 _id = getLastGhostId().add(1);\n    fallToHell(_id);\n    genericDB.setUintStorage(CONTRACT_NAME_KITTIEHELL_DB, keccak256(abi.encodePacked(_id, \"kittieId\")), _kittieID);\n    genericDB.setAddressStorage(CONTRACT_NAME_KITTIEHELL_DB, keccak256(abi.encodePacked(_id, \"owner\")), _owner);\n    genericDB.setBoolStorage(CONTRACT_NAME_KITTIEHELL_DB, keccak256(abi.encodePacked(_id, \"sacrificeKittie\")), false);\n    genericDB.setUintStorage(CONTRACT_NAME_KITTIEHELL_DB, keccak256(abi.encodePacked(_id, \"sacrificeFor\")), 0);\n    genericDB.setUintStorage(CONTRACT_NAME_KITTIEHELL_DB, keccak256(abi.encodePacked(_kittieID, \"ghostID\")), _id);\n    uint256 totalNumberOfKitties = genericDB.getUintStorage(CONTRACT_NAME_KITTIEHELL_DB, keccak256(abi.encodePacked(\"totalNumberOfKitties\")));\n    genericDB.setUintStorage(CONTRACT_NAME_KITTIEHELL_DB, keccak256(abi.encodePacked(\"totalNumberOfKitties\")), totalNumberOfKitties.add(1));\n\n    emit AddedToKittieHellDB(_kittieID, _owner, _id);\n  }\n\n  /**\n   * @author @ziweidream\n   * @param _id the node id of the ghost\n   * @return its kittyID, its original owner, whether it is a replacement kittie,\n   *         the loser kitty for which it is a replacement kittie(0 if this ghost is a loser kittie itself)\n   */\n  function getGhostAttributes(uint256 _id) public view returns (uint256, address, bool, uint256) {\n    uint256 _kittyID = genericDB.getUintStorage(CONTRACT_NAME_KITTIEHELL_DB, keccak256(abi.encodePacked(_id, \"kittieId\")));\n    address _owner = genericDB.getAddressStorage(CONTRACT_NAME_KITTIEHELL_DB, keccak256(abi.encodePacked(_id, \"owner\")));\n    bool _isSacrificeKittie = genericDB.getBoolStorage(CONTRACT_NAME_KITTIEHELL_DB, keccak256(abi.encodePacked(_id, \"sacrificeKittie\")));\n    uint256 _sacrificeFor = genericDB.getUintStorage(CONTRACT_NAME_KITTIEHELL_DB, keccak256(abi.encodePacked(_id, \"sacrificeFor\")));\n\n    return (_kittyID, _owner, _isSacrificeKittie, _sacrificeFor);\n  }\n\n  /**\n   * @author @ziweidream\n   * @return the node id of the last node\n   */\n  function getLastGhostId() public view returns(uint256){\n        (/*bool found*/, uint256 id) = genericDB.getAdjacent(CONTRACT_NAME_KITTIEHELL_DB, TABLE_KEY_KITTIEHELL, 0, true);\n        return id;\n  }\n\n  /**\n   * @author @ziweidream\n   * @dev This function can only be carried out via proxy\n   * @dev Add the node _id of a sacrificing kittie to GhostsList\n   * @param _kittieID the kittieID of the loser kittie who lost a game\n   * @param _owner the owner of the loser kittie\n   * @param _sacrificeKittie the kittieID of the sacrificing kittie for redeeming the loser kittie\n   */\n  function sacrificeKittieToHell(uint256 _kittieID, address _owner, uint256 _sacrificeKittie)\n      public\n      onlyContract(CONTRACT_NAME_KITTIEHELL)\n  {\n    require(ERC721(proxy.getContract(CONTRACT_NAME_CRYPTOKITTIES)).ownerOf(_sacrificeKittie) == _owner);\n    ERC721(proxy.getContract(CONTRACT_NAME_CRYPTOKITTIES)).transferFrom(_owner, address(this), _sacrificeKittie);\n    require(ERC721(proxy.getContract(CONTRACT_NAME_CRYPTOKITTIES)).ownerOf(_sacrificeKittie) == address(this));\n    uint256 _id = getLastGhostId().add(1);\n    fallToHell(_id);\n    genericDB.setUintStorage(CONTRACT_NAME_KITTIEHELL_DB, keccak256(abi.encodePacked(_id, \"kittieId\")), _sacrificeKittie);\n    genericDB.setAddressStorage(CONTRACT_NAME_KITTIEHELL_DB, keccak256(abi.encodePacked(_id, \"owner\")), _owner);\n    genericDB.setBoolStorage(CONTRACT_NAME_KITTIEHELL_DB, keccak256(abi.encodePacked(_id, \"sacrificeKittie\")), true);\n    genericDB.setUintStorage(CONTRACT_NAME_KITTIEHELL_DB, keccak256(abi.encodePacked(_id, \"sacrificeFor\")), _kittieID);\n    genericDB.setUintStorage(CONTRACT_NAME_KITTIEHELL_DB, keccak256(abi.encodePacked(_sacrificeKittie, \"ghostID\")), _id);\n    uint256 numberOfSacrificeKitties = genericDB.getUintStorage(\n      CONTRACT_NAME_KITTIEHELL_DB,\n      keccak256(abi.encodePacked(_kittieID, \"numberOfSacrificeKitties\"))).add(1);\n    genericDB.setUintStorage(\n      CONTRACT_NAME_KITTIEHELL_DB,\n      keccak256(abi.encodePacked(_kittieID, \"numberOfSacrificeKitties\")),\n      numberOfSacrificeKitties);\n    uint256 totalNumberOfKitties = genericDB.getUintStorage(CONTRACT_NAME_KITTIEHELL_DB, keccak256(abi.encodePacked(\"totalNumberOfKitties\")));\n    genericDB.setUintStorage(CONTRACT_NAME_KITTIEHELL_DB, keccak256(abi.encodePacked(\"totalNumberOfKitties\")), totalNumberOfKitties.add(1));\n    emit AddedToKittieHellDB(_sacrificeKittie, _owner, _id);\n  }\n\n  /**\n   * @author @ziweidream\n   * @param _kittieID the kittieID of the loser kittie\n   * @return the number of sacrificing kitties already in HELL for this loser kittie\n   */\n  function getNumberOfSacrificeKitties(uint256 _kittieID) public view returns(uint256) {\n    return genericDB.getUintStorage(\n      CONTRACT_NAME_KITTIEHELL_DB,\n      keccak256(abi.encodePacked(_kittieID, \"numberOfSacrificeKitties\")));\n  }\n\n  /**\n   * @author @ziweidream\n   * @dev This function can only be carried out via kittieHELL contract\n   * @dev record the KTY amount locked in kittieHELL contract\n   * @param _kittieID the kittieID of the loser kittie who lost a game\n   * @param _kty_amount the redemption fee locked in kittieHELL contract\n   *                    for redeeming the loser kittie\n   */\n  function lockKTYsInKittieHell(uint256 _kittieID, uint256 _kty_amount)\n      public\n      onlyContract(CONTRACT_NAME_KITTIEHELL)\n  {\n    genericDB.setUintStorage(\n      CONTRACT_NAME_KITTIEHELL_DB,\n      keccak256(abi.encodePacked(_kittieID, \"redemptionFeeKTY\")),\n      _kty_amount\n    );\n    uint totalKTYsLockedInKittieHell = genericDB.getUintStorage(\n      CONTRACT_NAME_KITTIEHELL_DB,\n      keccak256(abi.encodePacked(\"totalKTYsLockedInKittieHell\"))\n    ).add(_kty_amount);\n    genericDB.setUintStorage(\n      CONTRACT_NAME_KITTIEHELL_DB,\n      keccak256(abi.encodePacked(\"totalKTYsLockedInKittieHell\")),\n      totalKTYsLockedInKittieHell\n    );\n  }\n\n  /**\n   * @author @ziweidream\n   * @return the total amount of KTYs locked in kittieHELL contract\n   */\n  function getTotalKTYsLockedInKittieHell() public view returns(uint256) {\n    return genericDB.getUintStorage(\n      CONTRACT_NAME_KITTIEHELL_DB,\n      keccak256(abi.encodePacked(\"totalKTYsLockedInKittieHell\"))\n    );\n  }\n\n  /**\n   * @author @ziweidream\n   * @return the total number of kittie ghosts permanently locked in HELL\n   */\n  function getTotalNumberOfGhostsInHell() public view returns(uint256) {\n    return genericDB.getUintStorage(\n      CONTRACT_NAME_KITTIEHELL_DB,\n      keccak256(abi.encodePacked(\"totalNumberOfKitties\"))\n    );\n  }\n\n  /**\n   * @author @ziweidream\n   * @param _kittieID the kittieID of the kittie\n   * @return node id of the kittie (if the kittie is not a ghost, it returns 0)\n   */\n  function getGhostIdForKittie(uint256 _kittieID) public view returns(uint256) {\n    return genericDB.getUintStorage(\n      CONTRACT_NAME_KITTIEHELL_DB,\n      keccak256(abi.encodePacked(_kittieID, \"ghostID\")));\n  }\n\n  /**\n   * @author @ziweidream\n   * @param _kittieID the kittieID of the kittie\n   * @return true if the kittie is a permanent ghost, false if the kittie is not permanently dead\n   */\n  function isKittieGhost(uint256 _kittieID) public view returns(bool) {\n    uint256 _id = getGhostIdForKittie(_kittieID);\n    if (_id == 0) {\n      return false;\n    }\n    if(doesGhostExist(_id)) {\n      return true;\n    }\n    return false;\n  }\n\n  event AddedToKittieHellDB(uint256 indexed kittyID, address _owner, uint256 indexed _id);\n}\n\n",
  "sourcePath": "/Users/ziweizhang/Desktop/kittieFight-uniswap/contracts/contracts/modules/databases/KittieHellDB.sol",
  "compiler": {
    "name": "solc",
    "version": "0.5.17+commit.d19bba13.Emscripten.clang"
  },
  "schemaVersion": "3.0.23",
  "updatedAt": "2020-06-11T16:09:56.900Z",
  "networkType": "ethereum",
  "devdoc": {
    "author": "@kittieFIGHT @ziweidream",
    "methods": {
      "doesGhostExist(uint256)": {
        "author": "@ziweidream",
        "params": {
          "_id": "the node id"
        },
        "return": "true if the node _id exists"
      },
      "getGhostAttributes(uint256)": {
        "author": "@ziweidream",
        "params": {
          "_id": "the node id of the ghost"
        },
        "return": "its kittyID, its original owner, whether it is a replacement kittie,        the loser kitty for which it is a replacement kittie(0 if this ghost is a loser kittie itself)"
      },
      "getGhostIdForKittie(uint256)": {
        "author": "@ziweidream",
        "params": {
          "_kittieID": "the kittieID of the kittie"
        },
        "return": "node id of the kittie (if the kittie is not a ghost, it returns 0)"
      },
      "getLastGhostId()": {
        "author": "@ziweidream",
        "return": "the node id of the last node"
      },
      "getNumberOfSacrificeKitties(uint256)": {
        "author": "@ziweidream",
        "params": {
          "_kittieID": "the kittieID of the loser kittie"
        },
        "return": "the number of sacrificing kitties already in HELL for this loser kittie"
      },
      "getTotalKTYsLockedInKittieHell()": {
        "author": "@ziweidream",
        "return": "the total amount of KTYs locked in kittieHELL contract"
      },
      "getTotalNumberOfGhostsInHell()": {
        "author": "@ziweidream",
        "return": "the total number of kittie ghosts permanently locked in HELL"
      },
      "isKittieGhost(uint256)": {
        "author": "@ziweidream",
        "params": {
          "_kittieID": "the kittieID of the kittie"
        },
        "return": "true if the kittie is a permanent ghost, false if the kittie is not permanently dead"
      },
      "lockKTYsInKittieHell(uint256,uint256)": {
        "author": "@ziweidream",
        "details": "This function can only be carried out via kittieHELL contractrecord the KTY amount locked in kittieHELL contract",
        "params": {
          "_kittieID": "the kittieID of the loser kittie who lost a game",
          "_kty_amount": "the redemption fee locked in kittieHELL contract                   for redeeming the loser kittie"
        }
      },
      "loserKittieToHell(uint256,address)": {
        "author": "@ziweidream",
        "details": "This function can only be carried out via kittieHELL contractAdd the node _id of a loser kittie to GhostsList",
        "params": {
          "_kittieID": "the kittieID of the loser kittie who lost a game",
          "_owner": "the owner of the loser kittie"
        }
      },
      "sacrificeKittieToHell(uint256,address,uint256)": {
        "author": "@ziweidream",
        "details": "This function can only be carried out via proxyAdd the node _id of a sacrificing kittie to GhostsList",
        "params": {
          "_kittieID": "the kittieID of the loser kittie who lost a game",
          "_owner": "the owner of the loser kittie",
          "_sacrificeKittie": "the kittieID of the sacrificing kittie for redeeming the loser kittie"
        }
      }
    },
    "title": "KittieHellDB"
  },
  "userdoc": {
    "methods": {
      "setProxy(address)": {
        "notice": "Set/update address of Proxy contract"
      }
    }
  }
}