{
  "contractName": "KittieHell",
  "abi": [
    {
      "anonymous": false,
      "inputs": [
        {
          "indexed": true,
          "internalType": "uint256",
          "name": "kittyID",
          "type": "uint256"
        },
        {
          "indexed": false,
          "internalType": "address",
          "name": "_owner",
          "type": "address"
        },
        {
          "indexed": true,
          "internalType": "uint256",
          "name": "_id",
          "type": "uint256"
        }
      ],
      "name": "AddedToKittieHellDB",
      "type": "event"
    },
    {
      "anonymous": false,
      "inputs": [
        {
          "indexed": true,
          "internalType": "uint256",
          "name": "_kittyID",
          "type": "uint256"
        }
      ],
      "name": "KittyAcquired",
      "type": "event"
    },
    {
      "anonymous": false,
      "inputs": [
        {
          "indexed": true,
          "internalType": "uint256",
          "name": "_kittyID",
          "type": "uint256"
        }
      ],
      "name": "KittyDied",
      "type": "event"
    },
    {
      "anonymous": false,
      "inputs": [
        {
          "indexed": true,
          "internalType": "uint256",
          "name": "_kittyID",
          "type": "uint256"
        }
      ],
      "name": "KittyPermanentDeath",
      "type": "event"
    },
    {
      "anonymous": false,
      "inputs": [
        {
          "indexed": true,
          "internalType": "uint256",
          "name": "_kittyID",
          "type": "uint256"
        }
      ],
      "name": "KittyReleased",
      "type": "event"
    },
    {
      "anonymous": false,
      "inputs": [
        {
          "indexed": true,
          "internalType": "uint256",
          "name": "_kittyID",
          "type": "uint256"
        }
      ],
      "name": "KittyResurrected",
      "type": "event"
    },
    {
      "anonymous": false,
      "inputs": [
        {
          "indexed": false,
          "internalType": "uint256",
          "name": "scheduledJob",
          "type": "uint256"
        },
        {
          "indexed": false,
          "internalType": "uint256",
          "name": "time",
          "type": "uint256"
        },
        {
          "indexed": true,
          "internalType": "uint256",
          "name": "kittyID",
          "type": "uint256"
        }
      ],
      "name": "Scheduled",
      "type": "event"
    },
    {
      "constant": true,
      "inputs": [],
      "name": "cronJob",
      "outputs": [
        {
          "internalType": "contract CronJob",
          "name": "",
          "type": "address"
        }
      ],
      "payable": false,
      "stateMutability": "view",
      "type": "function"
    },
    {
      "constant": true,
      "inputs": [],
      "name": "cryptoKitties",
      "outputs": [
        {
          "internalType": "contract ERC721",
          "name": "",
          "type": "address"
        }
      ],
      "payable": false,
      "stateMutability": "view",
      "type": "function"
    },
    {
      "constant": true,
      "inputs": [],
      "name": "endowmentFund",
      "outputs": [
        {
          "internalType": "contract EndowmentFund",
          "name": "",
          "type": "address"
        }
      ],
      "payable": false,
      "stateMutability": "view",
      "type": "function"
    },
    {
      "constant": true,
      "inputs": [],
      "name": "gameStore",
      "outputs": [
        {
          "internalType": "contract GameStore",
          "name": "",
          "type": "address"
        }
      ],
      "payable": false,
      "stateMutability": "view",
      "type": "function"
    },
    {
      "constant": true,
      "inputs": [],
      "name": "gameVarAndFee",
      "outputs": [
        {
          "internalType": "contract GameVarAndFee",
          "name": "",
          "type": "address"
        }
      ],
      "payable": false,
      "stateMutability": "view",
      "type": "function"
    },
    {
      "constant": true,
      "inputs": [],
      "name": "gmGetterDB",
      "outputs": [
        {
          "internalType": "contract GMGetterDB",
          "name": "",
          "type": "address"
        }
      ],
      "payable": false,
      "stateMutability": "view",
      "type": "function"
    },
    {
      "constant": true,
      "inputs": [],
      "name": "kittieFightToken",
      "outputs": [
        {
          "internalType": "contract ERC20Standard",
          "name": "",
          "type": "address"
        }
      ],
      "payable": false,
      "stateMutability": "view",
      "type": "function"
    },
    {
      "constant": true,
      "inputs": [
        {
          "internalType": "uint256",
          "name": "",
          "type": "uint256"
        }
      ],
      "name": "kitties",
      "outputs": [
        {
          "internalType": "address",
          "name": "owner",
          "type": "address"
        },
        {
          "internalType": "bool",
          "name": "dead",
          "type": "bool"
        },
        {
          "internalType": "bool",
          "name": "playing",
          "type": "bool"
        },
        {
          "internalType": "bool",
          "name": "ghost",
          "type": "bool"
        },
        {
          "internalType": "uint256",
          "name": "deadAt",
          "type": "uint256"
        }
      ],
      "payable": false,
      "stateMutability": "view",
      "type": "function"
    },
    {
      "constant": true,
      "inputs": [],
      "name": "owner",
      "outputs": [
        {
          "internalType": "address payable",
          "name": "",
          "type": "address"
        }
      ],
      "payable": false,
      "stateMutability": "view",
      "type": "function"
    },
    {
      "constant": true,
      "inputs": [],
      "name": "proxy",
      "outputs": [
        {
          "internalType": "contract ProxyBase",
          "name": "",
          "type": "address"
        }
      ],
      "payable": false,
      "stateMutability": "view",
      "type": "function"
    },
    {
      "constant": true,
      "inputs": [],
      "name": "scheduledJob",
      "outputs": [
        {
          "internalType": "uint256",
          "name": "",
          "type": "uint256"
        }
      ],
      "payable": false,
      "stateMutability": "view",
      "type": "function"
    },
    {
      "constant": true,
      "inputs": [
        {
          "internalType": "uint256",
          "name": "",
          "type": "uint256"
        }
      ],
      "name": "scheduledJobs",
      "outputs": [
        {
          "internalType": "uint256",
          "name": "",
          "type": "uint256"
        }
      ],
      "payable": false,
      "stateMutability": "view",
      "type": "function"
    },
    {
      "constant": false,
      "inputs": [
        {
          "internalType": "contract ProxyBase",
          "name": "_proxy",
          "type": "address"
        }
      ],
      "name": "setProxy",
      "outputs": [],
      "payable": false,
      "stateMutability": "nonpayable",
      "type": "function"
    },
    {
      "constant": false,
      "inputs": [
        {
          "internalType": "address payable",
          "name": "newOwner",
          "type": "address"
        }
      ],
      "name": "transferOwnership",
      "outputs": [],
      "payable": false,
      "stateMutability": "nonpayable",
      "type": "function"
    },
    {
      "constant": false,
      "inputs": [],
      "name": "initialize",
      "outputs": [],
      "payable": false,
      "stateMutability": "nonpayable",
      "type": "function"
    },
    {
      "constant": false,
      "inputs": [
        {
          "internalType": "uint256",
          "name": "_kittyID",
          "type": "uint256"
        },
        {
          "internalType": "address",
          "name": "owner",
          "type": "address"
        }
      ],
      "name": "acquireKitty",
      "outputs": [
        {
          "internalType": "bool",
          "name": "",
          "type": "bool"
        }
      ],
      "payable": false,
      "stateMutability": "nonpayable",
      "type": "function"
    },
    {
      "constant": false,
      "inputs": [
        {
          "internalType": "uint256",
          "name": "_kittyID",
          "type": "uint256"
        },
        {
          "internalType": "bool",
          "name": "_isPlaying",
          "type": "bool"
        }
      ],
      "name": "updateKittyPlayingStatus",
      "outputs": [],
      "payable": false,
      "stateMutability": "nonpayable",
      "type": "function"
    },
    {
      "constant": true,
      "inputs": [
        {
          "internalType": "uint256",
          "name": "_kittyID",
          "type": "uint256"
        }
      ],
      "name": "isKittyDead",
      "outputs": [
        {
          "internalType": "bool",
          "name": "",
          "type": "bool"
        }
      ],
      "payable": false,
      "stateMutability": "view",
      "type": "function"
    },
    {
      "constant": false,
      "inputs": [
        {
          "internalType": "uint256",
          "name": "_kittyID",
          "type": "uint256"
        },
        {
          "internalType": "uint256",
          "name": "gameId",
          "type": "uint256"
        }
      ],
      "name": "killKitty",
      "outputs": [
        {
          "internalType": "bool",
          "name": "",
          "type": "bool"
        }
      ],
      "payable": false,
      "stateMutability": "nonpayable",
      "type": "function"
    },
    {
      "constant": true,
      "inputs": [
        {
          "internalType": "uint256",
          "name": "_kittyID",
          "type": "uint256"
        }
      ],
      "name": "kittyDeathTime",
      "outputs": [
        {
          "internalType": "uint256",
          "name": "",
          "type": "uint256"
        }
      ],
      "payable": false,
      "stateMutability": "view",
      "type": "function"
    },
    {
      "constant": true,
      "inputs": [
        {
          "internalType": "uint256",
          "name": "_kittyID",
          "type": "uint256"
        },
        {
          "internalType": "uint256",
          "name": "gameId",
          "type": "uint256"
        }
      ],
      "name": "getResurrectionCost",
      "outputs": [
        {
          "internalType": "uint256",
          "name": "",
          "type": "uint256"
        }
      ],
      "payable": false,
      "stateMutability": "view",
      "type": "function"
    },
    {
      "constant": false,
      "inputs": [
        {
          "internalType": "uint256",
          "name": "_kittyID",
          "type": "uint256"
        },
        {
          "internalType": "uint256",
          "name": "gameId",
          "type": "uint256"
        }
      ],
      "name": "payForResurrection",
      "outputs": [
        {
          "internalType": "bool",
          "name": "",
          "type": "bool"
        }
      ],
      "payable": true,
      "stateMutability": "payable",
      "type": "function"
    },
    {
      "constant": false,
      "inputs": [
        {
          "internalType": "uint256",
          "name": "_kittyID",
          "type": "uint256"
        }
      ],
      "name": "releaseKittyForfeiter",
      "outputs": [
        {
          "internalType": "bool",
          "name": "",
          "type": "bool"
        }
      ],
      "payable": false,
      "stateMutability": "nonpayable",
      "type": "function"
    },
    {
      "constant": false,
      "inputs": [
        {
          "internalType": "uint256",
          "name": "_kittyID",
          "type": "uint256"
        }
      ],
      "name": "releaseKittyGameManager",
      "outputs": [
        {
          "internalType": "bool",
          "name": "",
          "type": "bool"
        }
      ],
      "payable": false,
      "stateMutability": "nonpayable",
      "type": "function"
    },
    {
      "constant": false,
      "inputs": [
        {
          "internalType": "uint256",
          "name": "_kittyID",
          "type": "uint256"
        }
      ],
      "name": "adminRelease",
      "outputs": [],
      "payable": false,
      "stateMutability": "nonpayable",
      "type": "function"
    },
    {
      "constant": false,
      "inputs": [
        {
          "internalType": "uint256",
          "name": "_kittyID",
          "type": "uint256"
        },
        {
          "internalType": "uint256",
          "name": "_delay",
          "type": "uint256"
        },
        {
          "internalType": "uint256",
          "name": "_gameId",
          "type": "uint256"
        }
      ],
      "name": "scheduleBecomeGhost",
      "outputs": [
        {
          "internalType": "bool",
          "name": "",
          "type": "bool"
        }
      ],
      "payable": false,
      "stateMutability": "nonpayable",
      "type": "function"
    },
    {
      "constant": false,
      "inputs": [
        {
          "internalType": "uint256",
          "name": "_kittyID",
          "type": "uint256"
        },
        {
          "internalType": "uint256",
          "name": "_gameId",
          "type": "uint256"
        }
      ],
      "name": "becomeGhost",
      "outputs": [
        {
          "internalType": "bool",
          "name": "",
          "type": "bool"
        }
      ],
      "payable": false,
      "stateMutability": "nonpayable",
      "type": "function"
    },
    {
      "constant": true,
      "inputs": [
        {
          "internalType": "uint256",
          "name": "_kittyID",
          "type": "uint256"
        }
      ],
      "name": "getKittyStatus",
      "outputs": [
        {
          "internalType": "address",
          "name": "_owner",
          "type": "address"
        },
        {
          "internalType": "bool",
          "name": "_dead",
          "type": "bool"
        },
        {
          "internalType": "bool",
          "name": "_playing",
          "type": "bool"
        },
        {
          "internalType": "bool",
          "name": "_ghost",
          "type": "bool"
        },
        {
          "internalType": "uint256",
          "name": "_deadAt",
          "type": "uint256"
        }
      ],
      "payable": false,
      "stateMutability": "view",
      "type": "function"
    }
  ],
  "bytecode": "0x6080604052336000806101000a81548173ffffffffffffffffffffffffffffffffffffffff021916908373ffffffffffffffffffffffffffffffffffffffff1602179055506142ae806100536000396000f3fe6080604052600436106101b75760003560e01c80638129fc1c116100ec578063b3e319971161008a578063ec55688911610064578063ec556889146109f9578063ef410f4514610a50578063f2fde38b14610aa7578063f4b50fae14610af8576101b7565b8063b3e31997146108e2578063c482615b1461093b578063da7f76d4146109a2576101b7565b806397107d6d116100c657806397107d6d146107b85780639e50f4fb14610809578063a3b3bd7b14610834578063b1be64691461088b576101b7565b80638129fc1c146106a75780638cc51eda146106be5780638da5cb5b14610761576101b7565b806367e370901161015957806369af70b31161013357806369af70b3146105505780637202a1b2146105a757806373be99d114610604578063810327a914610654576101b7565b806367e37090146104015780636889364c1461045e57806368f16d6e14610501576101b7565b806329af207c1161019557806329af207c146102955780635fd8cc10146102e85780635fe4d4f61461035b57806363c0c46e146103aa576101b7565b806308dc0ae6146101bc5780631fc7518014610203578063290293211461025a575b600080fd5b3480156101c857600080fd5b50610201600480360360408110156101df57600080fd5b8101908080359060200190929190803515159060200190929190505050610b4b565b005b34801561020f57600080fd5b50610218610c5f565b604051808273ffffffffffffffffffffffffffffffffffffffff1673ffffffffffffffffffffffffffffffffffffffff16815260200191505060405180910390f35b34801561026657600080fd5b506102936004803603602081101561027d57600080fd5b8101908080359060200190929190505050610c85565b005b3480156102a157600080fd5b506102ce600480360360208110156102b857600080fd5b8101908080359060200190929190505050610d81565b604051808215151515815260200191505060405180910390f35b3480156102f457600080fd5b506103416004803603604081101561030b57600080fd5b8101908080359060200190929190803573ffffffffffffffffffffffffffffffffffffffff169060200190929190505050610dd2565b604051808215151515815260200191505060405180910390f35b34801561036757600080fd5b506103946004803603602081101561037e57600080fd5b81019080803590602001909291905050506110eb565b6040518082815260200191505060405180910390f35b3480156103b657600080fd5b506103bf611103565b604051808273ffffffffffffffffffffffffffffffffffffffff1673ffffffffffffffffffffffffffffffffffffffff16815260200191505060405180910390f35b34801561040d57600080fd5b506104446004803603604081101561042457600080fd5b810190808035906020019092919080359060200190929190505050611129565b604051808215151515815260200191505060405180910390f35b34801561046a57600080fd5b506104976004803603602081101561048157600080fd5b8101908080359060200190929190505050611895565b604051808673ffffffffffffffffffffffffffffffffffffffff1673ffffffffffffffffffffffffffffffffffffffff1681526020018515151515815260200184151515158152602001831515151581526020018281526020019550505050505060405180910390f35b34801561050d57600080fd5b5061053a6004803603602081101561052457600080fd5b810190808035906020019092919050505061196a565b6040518082815260200191505060405180910390f35b34801561055c57600080fd5b5061056561198a565b604051808273ffffffffffffffffffffffffffffffffffffffff1673ffffffffffffffffffffffffffffffffffffffff16815260200191505060405180910390f35b3480156105b357600080fd5b506105ea600480360360408110156105ca57600080fd5b8101908080359060200190929190803590602001909291905050506119b0565b604051808215151515815260200191505060405180910390f35b61063a6004803603604081101561061a57600080fd5b810190808035906020019092919080359060200190929190505050611b9e565b604051808215151515815260200191505060405180910390f35b34801561066057600080fd5b5061068d6004803603602081101561067757600080fd5b81019080803590602001909291905050506121e5565b604051808215151515815260200191505060405180910390f35b3480156106b357600080fd5b506106bc612284565b005b3480156106ca57600080fd5b506106f7600480360360208110156106e157600080fd5b8101908080359060200190929190505050612d94565b604051808673ffffffffffffffffffffffffffffffffffffffff1673ffffffffffffffffffffffffffffffffffffffff1681526020018515151515815260200184151515158152602001831515151581526020018281526020019550505050505060405180910390f35b34801561076d57600080fd5b50610776612e11565b604051808273ffffffffffffffffffffffffffffffffffffffff1673ffffffffffffffffffffffffffffffffffffffff16815260200191505060405180910390f35b3480156107c457600080fd5b50610807600480360360208110156107db57600080fd5b81019080803573ffffffffffffffffffffffffffffffffffffffff169060200190929190505050612e36565b005b34801561081557600080fd5b5061081e612ed0565b6040518082815260200191505060405180910390f35b34801561084057600080fd5b50610849612ed6565b604051808273ffffffffffffffffffffffffffffffffffffffff1673ffffffffffffffffffffffffffffffffffffffff16815260200191505060405180910390f35b34801561089757600080fd5b506108a0612efc565b604051808273ffffffffffffffffffffffffffffffffffffffff1673ffffffffffffffffffffffffffffffffffffffff16815260200191505060405180910390f35b3480156108ee57600080fd5b506109256004803603604081101561090557600080fd5b810190808035906020019092919080359060200190929190505050612f22565b6040518082815260200191505060405180910390f35b34801561094757600080fd5b506109886004803603606081101561095e57600080fd5b8101908080359060200190929190803590602001909291908035906020019092919050505061307c565b604051808215151515815260200191505060405180910390f35b3480156109ae57600080fd5b506109b761346d565b604051808273ffffffffffffffffffffffffffffffffffffffff1673ffffffffffffffffffffffffffffffffffffffff16815260200191505060405180910390f35b348015610a0557600080fd5b50610a0e613493565b604051808273ffffffffffffffffffffffffffffffffffffffff1673ffffffffffffffffffffffffffffffffffffffff16815260200191505060405180910390f35b348015610a5c57600080fd5b50610a656134b9565b604051808273ffffffffffffffffffffffffffffffffffffffff1673ffffffffffffffffffffffffffffffffffffffff16815260200191505060405180910390f35b348015610ab357600080fd5b50610af660048036036020811015610aca57600080fd5b81019080803573ffffffffffffffffffffffffffffffffffffffff1690602001909291905050506134df565b005b348015610b0457600080fd5b50610b3160048036036020811015610b1b57600080fd5b81019080803590602001909291905050506135ad565b604051808215151515815260200191505060405180910390f35b6040518060400160405280600c81526020017f47616d654372656174696f6e0000000000000000000000000000000000000000815250610b8a816135fe565b82600073ffffffffffffffffffffffffffffffffffffffff16600b600083815260200190815260200160002060000160009054906101000a900473ffffffffffffffffffffffffffffffffffffffff1673ffffffffffffffffffffffffffffffffffffffff161415610bfb57600080fd5b83600b600082815260200190815260200160002060000160149054906101000a900460ff1615610c2a57600080fd5b83600b600087815260200190815260200160002060000160156101000a81548160ff0219169083151502179055505050505050565b600760009054906101000a900473ffffffffffffffffffffffffffffffffffffffff1681565b610c8d613899565b600073ffffffffffffffffffffffffffffffffffffffff163373ffffffffffffffffffffffffffffffffffffffff161415610cc457fe5b610d026040518060400160405280600b81526020017f73757065725f61646d696e000000000000000000000000000000000000000000815250613a23565b610d74576040517f08c379a00000000000000000000000000000000000000000000000000000000081526004018080602001828103825260108152602001807f4f6e6c792073757065722061646d696e0000000000000000000000000000000081525060200191505060405180910390fd5b610d7d81613c9f565b5050565b60006040518060400160405280600b81526020017f47616d654d616e61676572000000000000000000000000000000000000000000815250610dc2816135fe565b610dcb83613c9f565b5050919050565b600082600073ffffffffffffffffffffffffffffffffffffffff16600b600083815260200190815260200160002060000160009054906101000a900473ffffffffffffffffffffffffffffffffffffffff1673ffffffffffffffffffffffffffffffffffffffff1614610e4457600080fd5b6040518060400160405280600b81526020017f47616d654d616e61676572000000000000000000000000000000000000000000815250610e83816135fe565b600360009054906101000a900473ffffffffffffffffffffffffffffffffffffffff1673ffffffffffffffffffffffffffffffffffffffff166323b872dd8530886040518463ffffffff1660e01b8152600401808473ffffffffffffffffffffffffffffffffffffffff1673ffffffffffffffffffffffffffffffffffffffff1681526020018373ffffffffffffffffffffffffffffffffffffffff1673ffffffffffffffffffffffffffffffffffffffff1681526020018281526020019350505050600060405180830381600087803b158015610f6057600080fd5b505af1158015610f74573d6000803e3d6000fd5b505050503073ffffffffffffffffffffffffffffffffffffffff16600360009054906101000a900473ffffffffffffffffffffffffffffffffffffffff1673ffffffffffffffffffffffffffffffffffffffff16636352211e876040518263ffffffff1660e01b81526004018082815260200191505060206040518083038186803b15801561100257600080fd5b505afa158015611016573d6000803e3d6000fd5b505050506040513d602081101561102c57600080fd5b810190808051906020019092919050505073ffffffffffffffffffffffffffffffffffffffff161461105d57600080fd5b83600b600087815260200190815260200160002060000160006101000a81548173ffffffffffffffffffffffffffffffffffffffff021916908373ffffffffffffffffffffffffffffffffffffffff160217905550847f39f7d7f5ff597fbdd01eac3107ab452e2f00f0f5c9cc01113d4e11561d88c4fa60405160405180910390a260019250505092915050565b600a6020528060005260406000206000915090505481565b600460009054906101000a900473ffffffffffffffffffffffffffffffffffffffff1681565b600082600073ffffffffffffffffffffffffffffffffffffffff16600b600083815260200190815260200160002060000160009054906101000a900473ffffffffffffffffffffffffffffffffffffffff1673ffffffffffffffffffffffffffffffffffffffff16141561119c57600080fd5b6040518060400160405280600781526020017f43726f6e4a6f62000000000000000000000000000000000000000000000000008152506111db816135fe565b6000600660009054906101000a900473ffffffffffffffffffffffffffffffffffffffff1673ffffffffffffffffffffffffffffffffffffffff16633c38d0a9866040518263ffffffff1660e01b81526004018082815260200191505060206040518083038186803b15801561125057600080fd5b505afa158015611264573d6000803e3d6000fd5b505050506040513d602081101561127a57600080fd5b81019080805190602001909291905050509050806112b7600b6000898152602001908152602001600020600101544261412d90919063ffffffff16565b116112c157600080fd5b6001600b600088815260200190815260200160002060000160166101000a81548160ff021916908315150217905550600360009054906101000a900473ffffffffffffffffffffffffffffffffffffffff1673ffffffffffffffffffffffffffffffffffffffff1663a9059cbb600160009054906101000a900473ffffffffffffffffffffffffffffffffffffffff1673ffffffffffffffffffffffffffffffffffffffff1663358177736040518163ffffffff1660e01b815260040180806020018281038252600c8152602001807f4b697474696548656c6c4442000000000000000000000000000000000000000081525060200191505060206040518083038186803b1580156113d257600080fd5b505afa1580156113e6573d6000803e3d6000fd5b505050506040513d60208110156113fc57600080fd5b8101908080519060200190929190505050886040518363ffffffff1660e01b8152600401808373ffffffffffffffffffffffffffffffffffffffff1673ffffffffffffffffffffffffffffffffffffffff16815260200182815260200192505050600060405180830381600087803b15801561147757600080fd5b505af115801561148b573d6000803e3d6000fd5b50505050600061160260018060009054906101000a900473ffffffffffffffffffffffffffffffffffffffff1673ffffffffffffffffffffffffffffffffffffffff1663358177736040518163ffffffff1660e01b815260040180806020018281038252600c8152602001807f4b697474696548656c6c4442000000000000000000000000000000000000000081525060200191505060206040518083038186803b15801561153957600080fd5b505afa15801561154d573d6000803e3d6000fd5b505050506040513d602081101561156357600080fd5b810190808051906020019092919050505073ffffffffffffffffffffffffffffffffffffffff1663cf4f6cd56040518163ffffffff1660e01b815260040160206040518083038186803b1580156115b957600080fd5b505afa1580156115cd573d6000803e3d6000fd5b505050506040513d60208110156115e357600080fd5b810190808051906020019092919050505061414490919063ffffffff16565b9050600160009054906101000a900473ffffffffffffffffffffffffffffffffffffffff1673ffffffffffffffffffffffffffffffffffffffff1663358177736040518163ffffffff1660e01b815260040180806020018281038252600c8152602001807f4b697474696548656c6c4442000000000000000000000000000000000000000081525060200191505060206040518083038186803b1580156116a857600080fd5b505afa1580156116bc573d6000803e3d6000fd5b505050506040513d60208110156116d257600080fd5b810190808051906020019092919050505073ffffffffffffffffffffffffffffffffffffffff16630df849868289600b60008c815260200190815260200160002060000160009054906101000a900473ffffffffffffffffffffffffffffffffffffffff166040518463ffffffff1660e01b8152600401808481526020018381526020018273ffffffffffffffffffffffffffffffffffffffff1673ffffffffffffffffffffffffffffffffffffffff1681526020019350505050600060405180830381600087803b1580156117a757600080fd5b505af11580156117bb573d6000803e3d6000fd5b50505050867fc92c3df591b9dd981f3e731d0d939b120ea9989453612504a1a2ddcc291f735960405160405180910390a280877f168a8b08a9a164dafbfd19c327bbbd4702d179d98c7d5be17a18101e3ff1bec0600b60008b815260200190815260200160002060000160009054906101000a900473ffffffffffffffffffffffffffffffffffffffff16604051808273ffffffffffffffffffffffffffffffffffffffff1673ffffffffffffffffffffffffffffffffffffffff16815260200191505060405180910390a3600194505050505092915050565b6000806000806000600b600087815260200190815260200160002060000160009054906101000a900473ffffffffffffffffffffffffffffffffffffffff169450600b600087815260200190815260200160002060000160149054906101000a900460ff169350600b600087815260200190815260200160002060000160159054906101000a900460ff169250600b600087815260200190815260200160002060000160169054906101000a900460ff169150600b600087815260200190815260200160002060010154905091939590929450565b6000600b6000838152602001908152602001600020600101549050919050565b600860009054906101000a900473ffffffffffffffffffffffffffffffffffffffff1681565b600082600073ffffffffffffffffffffffffffffffffffffffff16600b600083815260200190815260200160002060000160009054906101000a900473ffffffffffffffffffffffffffffffffffffffff1673ffffffffffffffffffffffffffffffffffffffff161415611a2357600080fd5b6040518060400160405280600b81526020017f47616d654d616e61676572000000000000000000000000000000000000000000815250611a62816135fe565b6001600b600087815260200190815260200160002060000160146101000a81548160ff02191690831515021790555042600b600087815260200190815260200160002060010181905550611b6485600660009054906101000a900473ffffffffffffffffffffffffffffffffffffffff1673ffffffffffffffffffffffffffffffffffffffff16633c38d0a9876040518263ffffffff1660e01b81526004018082815260200191505060206040518083038186803b158015611b2357600080fd5b505afa158015611b37573d6000803e3d6000fd5b505050506040513d6020811015611b4d57600080fd5b81019080805190602001909291905050508661307c565b50847fe3c2803d4712f4365991eb0000ddfd60fb9103321ea17f42eb9c180824c994e460405160405180910390a260019250505092915050565b600082600073ffffffffffffffffffffffffffffffffffffffff16600b600083815260200190815260200160002060000160009054906101000a900473ffffffffffffffffffffffffffffffffffffffff1673ffffffffffffffffffffffffffffffffffffffff161415611c1157600080fd5b83600b600082815260200190815260200160002060000160169054906101000a900460ff1615611c4057600080fd5b611c48613899565b6000611c548686612f22565b90506000600560009054906101000a900473ffffffffffffffffffffffffffffffffffffffff1673ffffffffffffffffffffffffffffffffffffffff16639639f0806040518163ffffffff1660e01b815260040160206040518083038186803b158015611cc057600080fd5b505afa158015611cd4573d6000803e3d6000fd5b505050506040513d6020811015611cea57600080fd5b810190808051906020019092919050505090506000600160009054906101000a900473ffffffffffffffffffffffffffffffffffffffff1673ffffffffffffffffffffffffffffffffffffffff1663358177736040518163ffffffff1660e01b815260040180806020018281038252600c8152602001807f4b697474696548656c6c4442000000000000000000000000000000000000000081525060200191505060206040518083038186803b158015611da357600080fd5b505afa158015611db7573d6000803e3d6000fd5b505050506040513d6020811015611dcd57600080fd5b810190808051906020019092919050505073ffffffffffffffffffffffffffffffffffffffff166395d63c00896040518263ffffffff1660e01b81526004018082815260200191505060206040518083038186803b158015611e2e57600080fd5b505afa158015611e42573d6000803e3d6000fd5b505050506040513d6020811015611e5857600080fd5b8101908080519060200190929190505050905060008311611e7857600080fd5b808214611ed0576040517f08c379a00000000000000000000000000000000000000000000000000000000081526004018080602001828103825260378152602001806142436037913960400191505060405180910390fd5b600460009054906101000a900473ffffffffffffffffffffffffffffffffffffffff1673ffffffffffffffffffffffffffffffffffffffff166323b872dd600b60008b815260200190815260200160002060000160009054906101000a900473ffffffffffffffffffffffffffffffffffffffff1630866040518463ffffffff1660e01b8152600401808473ffffffffffffffffffffffffffffffffffffffff1673ffffffffffffffffffffffffffffffffffffffff1681526020018373ffffffffffffffffffffffffffffffffffffffff1673ffffffffffffffffffffffffffffffffffffffff1681526020018281526020019350505050602060405180830381600087803b158015611fe357600080fd5b505af1158015611ff7573d6000803e3d6000fd5b505050506040513d602081101561200d57600080fd5b810190808051906020019092919050505050600160009054906101000a900473ffffffffffffffffffffffffffffffffffffffff1673ffffffffffffffffffffffffffffffffffffffff1663358177736040518163ffffffff1660e01b815260040180806020018281038252600c8152602001807f4b697474696548656c6c4442000000000000000000000000000000000000000081525060200191505060206040518083038186803b1580156120c357600080fd5b505afa1580156120d7573d6000803e3d6000fd5b505050506040513d60208110156120ed57600080fd5b810190808051906020019092919050505073ffffffffffffffffffffffffffffffffffffffff1663f557bd2189856040518363ffffffff1660e01b81526004018083815260200182815260200192505050600060405180830381600087803b15801561215857600080fd5b505af115801561216c573d6000803e3d6000fd5b5050505061217988613c9f565b506000600b60008a815260200190815260200160002060000160146101000a81548160ff021916908315150217905550877fd4d51c312159841bc0f88ceac557ccd2fdcc43738eb15e6d34bf92a9553e2a9660405160405180910390a260019550505050505092915050565b600081600073ffffffffffffffffffffffffffffffffffffffff16600b600083815260200190815260200160002060000160009054906101000a900473ffffffffffffffffffffffffffffffffffffffff1673ffffffffffffffffffffffffffffffffffffffff16141561225857600080fd5b600b600084815260200190815260200160002060000160149054906101000a900460ff16915050919050565b6000809054906101000a900473ffffffffffffffffffffffffffffffffffffffff1673ffffffffffffffffffffffffffffffffffffffff163373ffffffffffffffffffffffffffffffffffffffff16146122da57fe5b600160009054906101000a900473ffffffffffffffffffffffffffffffffffffffff1673ffffffffffffffffffffffffffffffffffffffff1663358177736040518060400160405280600781526020017f43726f6e4a6f62000000000000000000000000000000000000000000000000008152506040518263ffffffff1660e01b81526004018080602001828103825283818151815260200191508051906020019080838360005b8381101561239d578082015181840152602081019050612382565b50505050905090810190601f1680156123ca5780820380516001836020036101000a031916815260200191505b509250505060206040518083038186803b1580156123e757600080fd5b505afa1580156123fb573d6000803e3d6000fd5b505050506040513d602081101561241157600080fd5b8101908080519060200190929190505050600260006101000a81548173ffffffffffffffffffffffffffffffffffffffff021916908373ffffffffffffffffffffffffffffffffffffffff160217905550600160009054906101000a900473ffffffffffffffffffffffffffffffffffffffff1673ffffffffffffffffffffffffffffffffffffffff1663358177736040518060400160405280600d81526020017f43727970746f4b697474696573000000000000000000000000000000000000008152506040518263ffffffff1660e01b81526004018080602001828103825283818151815260200191508051906020019080838360005b8381101561252557808201518184015260208101905061250a565b50505050905090810190601f1680156125525780820380516001836020036101000a031916815260200191505b509250505060206040518083038186803b15801561256f57600080fd5b505afa158015612583573d6000803e3d6000fd5b505050506040513d602081101561259957600080fd5b8101908080519060200190929190505050600360006101000a81548173ffffffffffffffffffffffffffffffffffffffff021916908373ffffffffffffffffffffffffffffffffffffffff160217905550600160009054906101000a900473ffffffffffffffffffffffffffffffffffffffff1673ffffffffffffffffffffffffffffffffffffffff1663358177736040518060400160405280601081526020017f4b69747469654669676874546f6b656e000000000000000000000000000000008152506040518263ffffffff1660e01b81526004018080602001828103825283818151815260200191508051906020019080838360005b838110156126ad578082015181840152602081019050612692565b50505050905090810190601f1680156126da5780820380516001836020036101000a031916815260200191505b509250505060206040518083038186803b1580156126f757600080fd5b505afa15801561270b573d6000803e3d6000fd5b505050506040513d602081101561272157600080fd5b8101908080519060200190929190505050600460006101000a81548173ffffffffffffffffffffffffffffffffffffffff021916908373ffffffffffffffffffffffffffffffffffffffff160217905550600160009054906101000a900473ffffffffffffffffffffffffffffffffffffffff1673ffffffffffffffffffffffffffffffffffffffff1663358177736040518060400160405280600d81526020017f47616d65566172416e64466565000000000000000000000000000000000000008152506040518263ffffffff1660e01b81526004018080602001828103825283818151815260200191508051906020019080838360005b8381101561283557808201518184015260208101905061281a565b50505050905090810190601f1680156128625780820380516001836020036101000a031916815260200191505b509250505060206040518083038186803b15801561287f57600080fd5b505afa158015612893573d6000803e3d6000fd5b505050506040513d60208110156128a957600080fd5b8101908080519060200190929190505050600560006101000a81548173ffffffffffffffffffffffffffffffffffffffff021916908373ffffffffffffffffffffffffffffffffffffffff160217905550600160009054906101000a900473ffffffffffffffffffffffffffffffffffffffff1673ffffffffffffffffffffffffffffffffffffffff1663358177736040518060400160405280600981526020017f47616d6553746f726500000000000000000000000000000000000000000000008152506040518263ffffffff1660e01b81526004018080602001828103825283818151815260200191508051906020019080838360005b838110156129bd5780820151818401526020810190506129a2565b50505050905090810190601f1680156129ea5780820380516001836020036101000a031916815260200191505b509250505060206040518083038186803b158015612a0757600080fd5b505afa158015612a1b573d6000803e3d6000fd5b505050506040513d6020811015612a3157600080fd5b8101908080519060200190929190505050600660006101000a81548173ffffffffffffffffffffffffffffffffffffffff021916908373ffffffffffffffffffffffffffffffffffffffff160217905550600160009054906101000a900473ffffffffffffffffffffffffffffffffffffffff1673ffffffffffffffffffffffffffffffffffffffff1663358177736040518060400160405280600a81526020017f474d4765747465724442000000000000000000000000000000000000000000008152506040518263ffffffff1660e01b81526004018080602001828103825283818151815260200191508051906020019080838360005b83811015612b45578082015181840152602081019050612b2a565b50505050905090810190601f168015612b725780820380516001836020036101000a031916815260200191505b509250505060206040518083038186803b158015612b8f57600080fd5b505afa158015612ba3573d6000803e3d6000fd5b505050506040513d6020811015612bb957600080fd5b8101908080519060200190929190505050600760006101000a81548173ffffffffffffffffffffffffffffffffffffffff021916908373ffffffffffffffffffffffffffffffffffffffff160217905550600160009054906101000a900473ffffffffffffffffffffffffffffffffffffffff1673ffffffffffffffffffffffffffffffffffffffff1663358177736040518060400160405280600d81526020017f456e646f776d656e7446756e64000000000000000000000000000000000000008152506040518263ffffffff1660e01b81526004018080602001828103825283818151815260200191508051906020019080838360005b83811015612ccd578082015181840152602081019050612cb2565b50505050905090810190601f168015612cfa5780820380516001836020036101000a031916815260200191505b509250505060206040518083038186803b158015612d1757600080fd5b505afa158015612d2b573d6000803e3d6000fd5b505050506040513d6020811015612d4157600080fd5b8101908080519060200190929190505050600860006101000a81548173ffffffffffffffffffffffffffffffffffffffff021916908373ffffffffffffffffffffffffffffffffffffffff160217905550565b600b6020528060005260406000206000915090508060000160009054906101000a900473ffffffffffffffffffffffffffffffffffffffff16908060000160149054906101000a900460ff16908060000160159054906101000a900460ff16908060000160169054906101000a900460ff16908060010154905085565b6000809054906101000a900473ffffffffffffffffffffffffffffffffffffffff1681565b6000809054906101000a900473ffffffffffffffffffffffffffffffffffffffff1673ffffffffffffffffffffffffffffffffffffffff163373ffffffffffffffffffffffffffffffffffffffff1614612e8c57fe5b80600160006101000a81548173ffffffffffffffffffffffffffffffffffffffff021916908373ffffffffffffffffffffffffffffffffffffffff16021790555050565b60095481565b600560009054906101000a900473ffffffffffffffffffffffffffffffffffffffff1681565b600660009054906101000a900473ffffffffffffffffffffffffffffffffffffffff1681565b600082600073ffffffffffffffffffffffffffffffffffffffff16600b600083815260200190815260200160002060000160009054906101000a900473ffffffffffffffffffffffffffffffffffffffff1673ffffffffffffffffffffffffffffffffffffffff161415612f9557600080fd5b83600b600082815260200190815260200160002060000160169054906101000a900460ff1615612fc457600080fd5b600660009054906101000a900473ffffffffffffffffffffffffffffffffffffffff1673ffffffffffffffffffffffffffffffffffffffff166329920299856040518263ffffffff1660e01b81526004018082815260200191505060206040518083038186803b15801561303757600080fd5b505afa15801561304b573d6000803e3d6000fd5b505050506040513d602081101561306157600080fd5b81019080805190602001909291905050509250505092915050565b600080600160009054906101000a900473ffffffffffffffffffffffffffffffffffffffff1673ffffffffffffffffffffffffffffffffffffffff1663358177736040518060400160405280600781526020017f43726f6e4a6f62000000000000000000000000000000000000000000000000008152506040518263ffffffff1660e01b81526004018080602001828103825283818151815260200191508051906020019080838360005b83811015613142578082015181840152602081019050613127565b50505050905090810190601f16801561316f5780820380516001836020036101000a031916815260200191505b509250505060206040518083038186803b15801561318c57600080fd5b505afa1580156131a0573d6000803e3d6000fd5b505050506040513d60208110156131b657600080fd5b810190808051906020019092919050505090508073ffffffffffffffffffffffffffffffffffffffff1663c19304966040518060400160405280600a81526020017f4b697474696548656c6c00000000000000000000000000000000000000000000815250864201888760405160240180838152602001828152602001925050506040516020818303038152906040527fd865c8b4000000000000000000000000000000000000000000000000000000007bffffffffffffffffffffffffffffffffffffffffffffffffffffffff19166020820180517bffffffffffffffffffffffffffffffffffffffffffffffffffffffff83818316178352505050506040518463ffffffff1660e01b8152600401808060200184815260200180602001838103835286818151815260200191508051906020019080838360005b8381101561330d5780820151818401526020810190506132f2565b50505050905090810190601f16801561333a5780820380516001836020036101000a031916815260200191505b50838103825284818151815260200191508051906020019080838360005b83811015613373578082015181840152602081019050613358565b50505050905090810190601f1680156133a05780820380516001836020036101000a031916815260200191505b5095505050505050602060405180830381600087803b1580156133c257600080fd5b505af11580156133d6573d6000803e3d6000fd5b505050506040513d60208110156133ec57600080fd5b8101908080519060200190929190505050600981905550600954600a600087815260200190815260200160002081905550847fbdb3fa1032c10362fcfd2e3a7214b0e681d1a19640cdc58a12397eb72eadf0e6600954864201604051808381526020018281526020019250505060405180910390a260019150509392505050565b600260009054906101000a900473ffffffffffffffffffffffffffffffffffffffff1681565b600160009054906101000a900473ffffffffffffffffffffffffffffffffffffffff1681565b600360009054906101000a900473ffffffffffffffffffffffffffffffffffffffff1681565b6000809054906101000a900473ffffffffffffffffffffffffffffffffffffffff1673ffffffffffffffffffffffffffffffffffffffff163373ffffffffffffffffffffffffffffffffffffffff161461353557fe5b600073ffffffffffffffffffffffffffffffffffffffff168173ffffffffffffffffffffffffffffffffffffffff16146135aa57806000806101000a81548173ffffffffffffffffffffffffffffffffffffffff021916908373ffffffffffffffffffffffffffffffffffffffff1602179055505b50565b60006040518060400160405280600981526020017f466f7266656974657200000000000000000000000000000000000000000000008152506135ee816135fe565b6135f783613c9f565b5050919050565b600073ffffffffffffffffffffffffffffffffffffffff16600160009054906101000a900473ffffffffffffffffffffffffffffffffffffffff1673ffffffffffffffffffffffffffffffffffffffff1614156136c3576040517f08c379a00000000000000000000000000000000000000000000000000000000081526004018080602001828103825260088152602001807f4e6f2050726f787900000000000000000000000000000000000000000000000081525060200191505060405180910390fd5b6000600160009054906101000a900473ffffffffffffffffffffffffffffffffffffffff1673ffffffffffffffffffffffffffffffffffffffff166335817773836040518263ffffffff1660e01b81526004018080602001828103825283818151815260200191508051906020019080838360005b83811015613753578082015181840152602081019050613738565b50505050905090810190601f1680156137805780820380516001836020036101000a031916815260200191505b509250505060206040518083038186803b15801561379d57600080fd5b505afa1580156137b1573d6000803e3d6000fd5b505050506040513d60208110156137c757600080fd5b81019080805190602001909291905050509050600073ffffffffffffffffffffffffffffffffffffffff168173ffffffffffffffffffffffffffffffffffffffff16141561381157fe5b8073ffffffffffffffffffffffffffffffffffffffff163373ffffffffffffffffffffffffffffffffffffffff1614613895576040517f08c379a000000000000000000000000000000000000000000000000000000000815260040180806020018281038252602d815260200180614216602d913960400191505060405180910390fd5b5050565b600073ffffffffffffffffffffffffffffffffffffffff16600160009054906101000a900473ffffffffffffffffffffffffffffffffffffffff1673ffffffffffffffffffffffffffffffffffffffff16141561395e576040517f08c379a00000000000000000000000000000000000000000000000000000000081526004018080602001828103825260088152602001807f4e6f2050726f787900000000000000000000000000000000000000000000000081525060200191505060405180910390fd5b600160009054906101000a900473ffffffffffffffffffffffffffffffffffffffff1673ffffffffffffffffffffffffffffffffffffffff163373ffffffffffffffffffffffffffffffffffffffff1614613a21576040517f08c379a00000000000000000000000000000000000000000000000000000000081526004018080602001828103825260128152602001807f4f6e6c79207468726f7567682050726f7879000000000000000000000000000081525060200191505060405180910390fd5b565b6000600160009054906101000a900473ffffffffffffffffffffffffffffffffffffffff1673ffffffffffffffffffffffffffffffffffffffff1663358177736040518060400160405280600681526020017f526f6c65444200000000000000000000000000000000000000000000000000008152506040518263ffffffff1660e01b81526004018080602001828103825283818151815260200191508051906020019080838360005b83811015613ae8578082015181840152602081019050613acd565b50505050905090810190601f168015613b155780820380516001836020036101000a031916815260200191505b509250505060206040518083038186803b158015613b3257600080fd5b505afa158015613b46573d6000803e3d6000fd5b505050506040513d6020811015613b5c57600080fd5b810190808051906020019092919050505073ffffffffffffffffffffffffffffffffffffffff16636c9cd09783613b91614160565b6040518363ffffffff1660e01b815260040180806020018373ffffffffffffffffffffffffffffffffffffffff1673ffffffffffffffffffffffffffffffffffffffff168152602001828103825284818151815260200191508051906020019080838360005b83811015613c12578082015181840152602081019050613bf7565b50505050905090810190601f168015613c3f5780820380516001836020036101000a031916815260200191505b50935050505060206040518083038186803b158015613c5d57600080fd5b505afa158015613c71573d6000803e3d6000fd5b505050506040513d6020811015613c8757600080fd5b81019080805190602001909291905050509050919050565b600081600073ffffffffffffffffffffffffffffffffffffffff16600b600083815260200190815260200160002060000160009054906101000a900473ffffffffffffffffffffffffffffffffffffffff1673ffffffffffffffffffffffffffffffffffffffff161415613d1257600080fd5b600360009054906101000a900473ffffffffffffffffffffffffffffffffffffffff1673ffffffffffffffffffffffffffffffffffffffff1663a9059cbb600b600086815260200190815260200160002060000160009054906101000a900473ffffffffffffffffffffffffffffffffffffffff16856040518363ffffffff1660e01b8152600401808373ffffffffffffffffffffffffffffffffffffffff1673ffffffffffffffffffffffffffffffffffffffff16815260200182815260200192505050600060405180830381600087803b158015613df157600080fd5b505af1158015613e05573d6000803e3d6000fd5b505050506000600b600085815260200190815260200160002060000160006101000a81548173ffffffffffffffffffffffffffffffffffffffff021916908373ffffffffffffffffffffffffffffffffffffffff160217905550600b600084815260200190815260200160002060000160149054906101000a900460ff16156140f6576000600160009054906101000a900473ffffffffffffffffffffffffffffffffffffffff1673ffffffffffffffffffffffffffffffffffffffff1663358177736040518060400160405280600781526020017f43726f6e4a6f62000000000000000000000000000000000000000000000000008152506040518263ffffffff1660e01b81526004018080602001828103825283818151815260200191508051906020019080838360005b83811015613f4d578082015181840152602081019050613f32565b50505050905090810190601f168015613f7a5780820380516001836020036101000a031916815260200191505b509250505060206040518083038186803b158015613f9757600080fd5b505afa158015613fab573d6000803e3d6000fd5b505050506040513d6020811015613fc157600080fd5b810190808051906020019092919050505090508073ffffffffffffffffffffffffffffffffffffffff16639d8f101f6040518060400160405280600a81526020017f4b697474696548656c6c00000000000000000000000000000000000000000000815250600a6000888152602001908152602001600020546040518363ffffffff1660e01b81526004018080602001838152602001828103825284818151815260200191508051906020019080838360005b8381101561408f578082015181840152602081019050614074565b50505050905090810190601f1680156140bc5780820380516001836020036101000a031916815260200191505b509350505050600060405180830381600087803b1580156140dc57600080fd5b505af11580156140f0573d6000803e3d6000fd5b50505050505b827fcae1898dd74d1ad040b5bf19b70685d75e1cc1223291c8db6c7b7c929b2a5b1560405160405180910390a26001915050919050565b60008282111561413957fe5b818303905092915050565b60008082840190508381101561415657fe5b8091505092915050565b6000600160009054906101000a900473ffffffffffffffffffffffffffffffffffffffff1673ffffffffffffffffffffffffffffffffffffffff163373ffffffffffffffffffffffffffffffffffffffff16146141bf57339050614212565b6000601436036000602052601481602c37602051915050600073ffffffffffffffffffffffffffffffffffffffff168173ffffffffffffffffffffffffffffffffffffffff16141561420d57fe5b809150505b9056fe416363657373206973206f6e6c7920616c6c6f7765642066726f6d20737065636966696320636f6e7472616374506c65617365206d65657420746865207265717569726564206e756d626572206f66207265706c6163656d656e74206b6974746965732ea265627a7a723158207f538eb6e541e8f3ea25145a544b211b39ae8fca461fdbc54517e76e82cf7c5564736f6c634300050d0032",
  "source": "pragma solidity ^0.5.5;\n\nimport \"../../libs/SafeMath.sol\";\nimport \"../../misc/BasicControls.sol\";\nimport \"../proxy/Proxied.sol\";\nimport \"../../authority/Guard.sol\";\nimport \"../../CronJob.sol\";\nimport \"../../interfaces/ERC721.sol\";\nimport \"../../interfaces/ERC20Standard.sol\";\nimport \"../../GameVarAndFee.sol\";\nimport \"../gamemanager/GameStore.sol\";\nimport \"../databases/GMGetterDB.sol\";\nimport \"../databases/KittieHellDB.sol\";\nimport \"../endowment/EndowmentFund.sol\";\n\n\n/**\n * @title This contract is responsible to acquire ownership of participating kitties,\n * keep the mortality status and permanent lock them if needed.\n * @author @panos, @ugwu, @ziweidream @Xalee @wafflemakr\n * @notice This contract is able to lock kitties forever caution is advised\n */\ncontract KittieHell is BasicControls, Proxied, Guard {\n\n    using SafeMath for uint256;\n\n    CronJob public cronJob;\n    ERC721 public cryptoKitties;\n    ERC20Standard public kittieFightToken;\n    GameVarAndFee public gameVarAndFee;\n    GameStore public gameStore;\n    GMGetterDB public gmGetterDB;\n    EndowmentFund public endowmentFund;\n\n    uint256 public scheduledJob;\n    mapping (uint => uint) public scheduledJobs;\n\n    struct KittyStatus {\n        address owner;  // This is the owner before the kitty got transferred to us\n        bool dead;      // This is the mortality status of the kitty\n        bool playing;   // This is the current game participation status of the kitty\n        bool ghost;     // This is set to \"destroy\" or permanent kill the kitty\n        uint deadAt;    // Timestamp when the kitty is dead.\n    }\n\n    /* This is all the kitties owned and managed by the game */\n    mapping(uint256 => KittyStatus) public kitties;\n\n    function initialize() external onlyOwner {\n        cronJob = CronJob(proxy.getContract(CONTRACT_NAME_CRONJOB));\n        cryptoKitties = ERC721(proxy.getContract(CONTRACT_NAME_CRYPTOKITTIES));\n        kittieFightToken = ERC20Standard(proxy.getContract(CONTRACT_NAME_KITTIEFIGHTOKEN));\n        gameVarAndFee = GameVarAndFee(proxy.getContract(CONTRACT_NAME_GAMEVARANDFEE));\n        gameStore = GameStore(proxy.getContract(CONTRACT_NAME_GAMESTORE));\n        gmGetterDB = GMGetterDB(proxy.getContract(CONTRACT_NAME_GM_GETTER_DB));\n        endowmentFund = EndowmentFund(proxy.getContract(CONTRACT_NAME_ENDOWMENT_FUND));\n    }\n\n    /**\n     * @author @ugwu @ziweidream\n     * @notice transfer the ownership of a kittie to this contract\n     * @dev The last owner must be stored as a returned reference\n     * @dev This function can only be carried out via proxy\n     * @param _kittyID the kittie to acquire\n     * @return true if the acquisition was successful\n     */\n    function acquireKitty(uint256 _kittyID, address owner)\n        public\n        onlyNotOwnedKitty(_kittyID)\n        onlyContract(CONTRACT_NAME_GAMEMANAGER)\n        returns (bool)\n    {\n        cryptoKitties.transferFrom(owner, address(this), _kittyID);\n        require(cryptoKitties.ownerOf(_kittyID) == address(this));\n        kitties[_kittyID].owner = owner;\n        emit KittyAcquired(_kittyID);\n        return true;\n    }\n\n    function updateKittyPlayingStatus(uint256 _kittyID, bool _isPlaying)\n        public\n        onlyContract(CONTRACT_NAME_GAMECREATION)\n        onlyOwnedKitty(_kittyID)\n        onlyNotKilledKitty(_kittyID)\n    {\n        kitties[_kittyID].playing = _isPlaying;\n    }\n\n    /**\n     * @author @ziweidream\n     * @notice Getting kitty `_kittyID` mortality status\n     * @param _kittyID The kitty to get status\n     * @return true/false if the kitty ID is dead or not\n     */\n    function isKittyDead(uint256 _kittyID)\n    public\n    view\n    onlyOwnedKitty(_kittyID)\n    returns (bool) {\n        return kitties[_kittyID].dead;\n    }\n\n    /**\n     * @author @ziweidream\n     * @notice Killing kitty `_kittyID`\n     * @dev This function can only be carried out via CronJOb\n     * @param _kittyID The kitty to kill\n     * @return true/false if the kitty ID is killed or not\n     */\n    function killKitty(uint256 _kittyID, uint gameId)\n    public\n    onlyOwnedKitty(_kittyID)\n    onlyContract(CONTRACT_NAME_GAMEMANAGER)\n    returns (bool) {\n        kitties[_kittyID].dead = true;\n        kitties[_kittyID].deadAt = now;\n        scheduleBecomeGhost(_kittyID, gameStore.getKittieExpirationTime(gameId), gameId);\n        emit KittyDied(_kittyID);\n        return true;\n    }\n\n    /**\n     * @author @ziweidream\n     * @notice Getting kitty `_kittyID` death time\n     * @param _kittyID The kitty whose death time is requested\n     * @return the kitty's death time\n     */\n    function kittyDeathTime(uint256 _kittyID) public view returns(uint) {\n        return kitties[_kittyID].deadAt;\n    }\n\n    /**\n     * @author @ziweidream\n     * @notice Getting kitty `_kittyID` resurrection cost\n     * @dev The resurrection cost per sec is a constant determined by GameVarAndFee contract\n     * @param _kittyID The kitty for whom the resurrection cost is requested\n     * @return the kitty's resurrection cost\n     */\n    function getResurrectionCost(uint256 _kittyID, uint gameId)\n    public\n    view\n    onlyOwnedKitty(_kittyID)\n    onlyNotGhostKitty(_kittyID)\n    returns(uint) {\n        // We need to clear out game of kittie when game ends, so its set to 0;\n        // uint256 gameId = gmGetterDB.getGameOfKittie(_kittyID);\n        return gameStore.getKittieRedemptionFee(gameId);\n\t}\n\n     /**\n     * @author @ziweidream\n     * @notice Resurrecting kitty `_kittyID`\n     * @param _kittyID The kitty to resurrect\n     * @dev The kitty must not be permanent dead\n     * @dev This function can only be carried out via proxy\n     * @dev The ressurection payment is in KTY tokens and sent to EndowmentFund contract\n     * @return true/false if the kitty ID is resurrected or not\n     */\n\n    function payForResurrection(uint256 _kittyID, uint gameId)\n        public\n        payable\n        onlyOwnedKitty(_kittyID)\n        onlyNotGhostKitty(_kittyID)\n        onlyProxy\n    returns (bool) {\n        uint256 tokenAmount = getResurrectionCost(_kittyID, gameId);\n        uint256 requiredNumberKittieReplacements = gameVarAndFee.getRequiredNumberKittieReplacements();\n        uint256 numberOfReplacementKitties = KittieHellDB(proxy.getContract(\"KittieHellDB\")).getNumberOfReplacementKitties(_kittyID);\n        require(tokenAmount > 0);\n        require(requiredNumberKittieReplacements == numberOfReplacementKitties, \"Please meet the required number of replacement kitties.\");\n        kittieFightToken.transferFrom(kitties[_kittyID].owner, address(this), tokenAmount);\n        KittieHellDB(proxy.getContract(\"KittieHellDB\")).lockKTYsInKittieHell(_kittyID, tokenAmount);\n        releaseKitty(_kittyID);\n        kitties[_kittyID].dead = false;\n        emit KittyResurrected(_kittyID);\n        return true;\n    }\n\n    /**\n     * @author @ugwu @ziweidream\n     * @notice transfer the ownership of a kittie back to its previous owner\n     * @dev The kitty must be owned by the game\n     * @dev This function can only be carried out via proxy\n     * @param _kittyID The kittie to release\n     * @return true if the release was successful\n     */\n    function releaseKitty(uint256 _kittyID)\n        internal\n        onlyOwnedKitty(_kittyID)\n    returns (bool) {\n        cryptoKitties.transfer(kitties[_kittyID].owner, _kittyID);\n        kitties[_kittyID].owner = address(0);\n        if(kitties[_kittyID].dead){\n            CronJob cron = CronJob(proxy.getContract(CONTRACT_NAME_CRONJOB));\n            cron.deleteCronJob(CONTRACT_NAME_KITTIEHELL, scheduledJobs[_kittyID]);\n        }\n        emit KittyReleased(_kittyID);\n        return true;\n    }\n\n    function releaseKittyForfeiter(uint256 _kittyID)\n        public\n        onlyContract(CONTRACT_NAME_FORFEITER)\n    returns (bool) {\n        releaseKitty(_kittyID);\n    }\n\n    function releaseKittyGameManager(uint256 _kittyID)\n        public\n        onlyContract(CONTRACT_NAME_GAMEMANAGER)\n    returns (bool) {\n        releaseKitty(_kittyID);\n    }\n\n    function adminRelease(uint256 _kittyID)\n        public\n        onlyProxy\n        onlySuperAdmin\n    {\n        releaseKitty(_kittyID);\n    }\n\n    function scheduleBecomeGhost(uint256 _kittyID, uint256 _delay, uint _gameId)\n        public\n        returns(bool)\n    {\n        CronJob cron = CronJob(proxy.getContract(CONTRACT_NAME_CRONJOB));\n        scheduledJob = cron.addCronJob(CONTRACT_NAME_KITTIEHELL, now+_delay, abi.encodeWithSignature(\"becomeGhost(uint256, uint256)\", _kittyID, _gameId));\n        scheduledJobs[_kittyID] = scheduledJob;\n        emit Scheduled(scheduledJob, now+_delay, _kittyID);\n        return true;\n    }\n\n    /**\n     * @author @ziweidream\n     * @dev The kitty must be owned by the game\n     * @dev This function can only be carried out via CronJob\n     * @dev This function will make a kitty permanently dead\n     * @param _kittyID The kittie to become ghost\n     * @return true if the kittie became a ghost and transferred to KittieHellDB\n     */\n    function becomeGhost(uint256 _kittyID, uint _gameId)\n        public\n        onlyOwnedKitty(_kittyID)\n        onlyContract(CONTRACT_NAME_CRONJOB)\n        returns (bool)\n    {\n        // uint256 gameId = gmGetterDB.getGameOfKittie(_kittyID);\n        uint kittieExpiry = gameStore.getKittieExpirationTime(_gameId);\n\t    require(now.sub(kitties[_kittyID].deadAt) > kittieExpiry);\n        kitties[_kittyID].ghost = true;\n        cryptoKitties.transfer(proxy.getContract(\"KittieHellDB\"), _kittyID);\n        uint256 _id = KittieHellDB(proxy.getContract(\"KittieHellDB\")).getLastGhostId().add(1);\n        KittieHellDB(proxy.getContract(\"KittieHellDB\")).loserKittieToHell(_id, _kittyID, kitties[_kittyID].owner);\n        emit KittyPermanentDeath(_kittyID);\n        emit AddedToKittieHellDB(_kittyID, kitties[_kittyID].owner, _id);\n        return true;\n    }\n\n    /**\n     * @author @ziweidream      \n     * @param _kittyID The kittie to release\n     * @return the previous kitty owner, the kitty dead status, the kitty playing status, the kitty ghost status, and the kitty death time   \n     */\n    function getKittyStatus(uint256 _kittyID) public view returns (address _owner, bool _dead, bool _playing, bool _ghost, uint _deadAt) {\n        _owner = kitties[_kittyID].owner;\n        _dead = kitties[_kittyID].dead;\n        _playing = kitties[_kittyID].playing;\n        _ghost = kitties[_kittyID].ghost;\n        _deadAt = kitties[_kittyID].deadAt;\n    }\n\n    /*\n     * Use the owner field as a control indicator to check if\n     * the kitty is owned by the game\n     */\n    modifier onlyOwnedKitty(uint256 _kittyID) {\n        require(kitties[_kittyID].owner != address(0));\n        _;\n    }\n\n    /*\n     * Use the owner field as a control indicator to check if\n     * the kitty is not already owned by the game\n     */\n    modifier onlyNotOwnedKitty(uint256 _kittyID) {\n        require(kitties[_kittyID].owner == address(0));\n        _;\n    }\n\n    /*\n     * Use the ghost field as a control indicator to check if\n     * the kitty is not permanent killed\n     */\n    modifier onlyNotGhostKitty(uint256 _kittyID) {\n        require(!kitties[_kittyID].ghost);\n        _;\n    }\n\n    /*\n     * Use the dead field as a control indicator to check if\n     * the kitty is not temporary killed\n     */\n    modifier onlyNotKilledKitty(uint256 _kittyID) {\n        require(!kitties[_kittyID].dead);\n        _;\n    }\n\n    event KittyAcquired(uint256 indexed _kittyID);\n\n    event KittyReleased(uint256 indexed _kittyID);\n\n    event KittyDied(uint256 indexed _kittyID);\n\n    event KittyResurrected(uint256 indexed _kittyID);\n\n    event KittyPermanentDeath(uint256 indexed _kittyID);\n\n    event AddedToKittieHellDB(uint256 indexed kittyID, address _owner, uint256 indexed _id);\n\n    event Scheduled(uint256 scheduledJob, uint256 time, uint256 indexed kittyID);\n}\n\n",
  "sourcePath": "/Users/ziweizhang/Desktop/kittieFight-mainnet/alpha/contracts/modules/kittieHELL/KittieHell.sol",
  "compiler": {
    "name": "solc",
    "version": "0.5.13+commit.5b0b510c.Emscripten.clang"
  },
  "schemaVersion": "3.0.11",
  "updatedAt": "2019-11-24T19:09:58.806Z",
  "devdoc": {
    "author": "@panos, @ugwu, @ziweidream @Xalee @wafflemakr",
    "methods": {
      "acquireKitty(uint256,address)": {
        "author": "@ugwu @ziweidream",
        "details": "The last owner must be stored as a returned referenceThis function can only be carried out via proxy",
        "params": {
          "_kittyID": "the kittie to acquire"
        },
        "return": "true if the acquisition was successful"
      },
      "becomeGhost(uint256,uint256)": {
        "author": "@ziweidream",
        "details": "The kitty must be owned by the gameThis function can only be carried out via CronJobThis function will make a kitty permanently dead",
        "params": {
          "_kittyID": "The kittie to become ghost"
        },
        "return": "true if the kittie became a ghost and transferred to KittieHellDB"
      },
      "getKittyStatus(uint256)": {
        "author": "@ziweidream      ",
        "params": {
          "_kittyID": "The kittie to release"
        },
        "return": "the previous kitty owner, the kitty dead status, the kitty playing status, the kitty ghost status, and the kitty death time   "
      },
      "getResurrectionCost(uint256,uint256)": {
        "author": "@ziweidream",
        "details": "The resurrection cost per sec is a constant determined by GameVarAndFee contract",
        "params": {
          "_kittyID": "The kitty for whom the resurrection cost is requested"
        },
        "return": "the kitty's resurrection cost"
      },
      "isKittyDead(uint256)": {
        "author": "@ziweidream",
        "params": {
          "_kittyID": "The kitty to get status"
        },
        "return": "true/false if the kitty ID is dead or not"
      },
      "killKitty(uint256,uint256)": {
        "author": "@ziweidream",
        "details": "This function can only be carried out via CronJOb",
        "params": {
          "_kittyID": "The kitty to kill"
        },
        "return": "true/false if the kitty ID is killed or not"
      },
      "kittyDeathTime(uint256)": {
        "author": "@ziweidream",
        "params": {
          "_kittyID": "The kitty whose death time is requested"
        },
        "return": "the kitty's death time"
      },
      "payForResurrection(uint256,uint256)": {
        "author": "@ziweidream",
        "details": "The kitty must not be permanent deadThis function can only be carried out via proxyThe ressurection payment is in KTY tokens and sent to EndowmentFund contract",
        "params": {
          "_kittyID": "The kitty to resurrect"
        },
        "return": "true/false if the kitty ID is resurrected or not"
      }
    },
    "title": "This contract is responsible to acquire ownership of participating kitties, keep the mortality status and permanent lock them if needed."
  },
  "userdoc": {
    "methods": {
      "acquireKitty(uint256,address)": {
        "notice": "transfer the ownership of a kittie to this contract"
      },
      "getResurrectionCost(uint256,uint256)": {
        "notice": "Getting kitty `_kittyID` resurrection cost"
      },
      "isKittyDead(uint256)": {
        "notice": "Getting kitty `_kittyID` mortality status"
      },
      "killKitty(uint256,uint256)": {
        "notice": "Killing kitty `_kittyID`"
      },
      "kittyDeathTime(uint256)": {
        "notice": "Getting kitty `_kittyID` death time"
      },
      "payForResurrection(uint256,uint256)": {
        "notice": "Resurrecting kitty `_kittyID`"
      },
      "setProxy(address)": {
        "notice": "Set/update address of Proxy contract"
      }
    },
    "notice": "This contract is able to lock kitties forever caution is advised"
  }
}