{
  "contractName": "KittiesCattributesDB",
  "abi": [
    {
      "constant": true,
      "inputs": [
        {
          "internalType": "string",
          "name": "",
          "type": "string"
        },
        {
          "internalType": "bytes1",
          "name": "",
          "type": "bytes1"
        }
      ],
      "name": "cattributes",
      "outputs": [
        {
          "internalType": "string",
          "name": "",
          "type": "string"
        }
      ],
      "payable": false,
      "stateMutability": "view",
      "type": "function"
    },
    {
      "constant": false,
      "inputs": [],
      "name": "fillKaiValue",
      "outputs": [],
      "payable": false,
      "stateMutability": "nonpayable",
      "type": "function"
    },
    {
      "constant": true,
      "inputs": [
        {
          "internalType": "string",
          "name": "",
          "type": "string"
        }
      ],
      "name": "kaiValue",
      "outputs": [
        {
          "internalType": "bytes1",
          "name": "",
          "type": "bytes1"
        }
      ],
      "payable": false,
      "stateMutability": "view",
      "type": "function"
    },
    {
      "constant": true,
      "inputs": [
        {
          "internalType": "uint256",
          "name": "",
          "type": "uint256"
        },
        {
          "internalType": "uint256",
          "name": "",
          "type": "uint256"
        }
      ],
      "name": "kittiesDominantCattributes",
      "outputs": [
        {
          "internalType": "string",
          "name": "",
          "type": "string"
        }
      ],
      "payable": false,
      "stateMutability": "view",
      "type": "function"
    },
    {
      "constant": true,
      "inputs": [
        {
          "internalType": "uint256",
          "name": "",
          "type": "uint256"
        },
        {
          "internalType": "uint256",
          "name": "",
          "type": "uint256"
        }
      ],
      "name": "kittiesDominantGeneBinary",
      "outputs": [
        {
          "internalType": "string",
          "name": "",
          "type": "string"
        }
      ],
      "payable": false,
      "stateMutability": "view",
      "type": "function"
    },
    {
      "constant": true,
      "inputs": [
        {
          "internalType": "uint256",
          "name": "",
          "type": "uint256"
        },
        {
          "internalType": "uint256",
          "name": "",
          "type": "uint256"
        }
      ],
      "name": "kittiesDominantGeneKai",
      "outputs": [
        {
          "internalType": "bytes1",
          "name": "",
          "type": "bytes1"
        }
      ],
      "payable": false,
      "stateMutability": "view",
      "type": "function"
    },
    {
      "constant": true,
      "inputs": [],
      "name": "owner",
      "outputs": [
        {
          "internalType": "address payable",
          "name": "",
          "type": "address"
        }
      ],
      "payable": false,
      "stateMutability": "view",
      "type": "function"
    },
    {
      "constant": true,
      "inputs": [],
      "name": "proxy",
      "outputs": [
        {
          "internalType": "contract ProxyBase",
          "name": "",
          "type": "address"
        }
      ],
      "payable": false,
      "stateMutability": "view",
      "type": "function"
    },
    {
      "constant": false,
      "inputs": [
        {
          "internalType": "contract ProxyBase",
          "name": "_proxy",
          "type": "address"
        }
      ],
      "name": "setProxy",
      "outputs": [],
      "payable": false,
      "stateMutability": "nonpayable",
      "type": "function"
    },
    {
      "constant": false,
      "inputs": [
        {
          "internalType": "address payable",
          "name": "newOwner",
          "type": "address"
        }
      ],
      "name": "transferOwnership",
      "outputs": [],
      "payable": false,
      "stateMutability": "nonpayable",
      "type": "function"
    },
    {
      "constant": false,
      "inputs": [
        {
          "internalType": "bytes32[]",
          "name": "_cattribute",
          "type": "bytes32[]"
        },
        {
          "internalType": "uint256",
          "name": "_noOfTypes",
          "type": "uint256"
        }
      ],
      "name": "updateCattributes",
      "outputs": [],
      "payable": false,
      "stateMutability": "nonpayable",
      "type": "function"
    },
    {
      "constant": true,
      "inputs": [
        {
          "internalType": "uint256",
          "name": "n",
          "type": "uint256"
        }
      ],
      "name": "toBinaryString",
      "outputs": [
        {
          "internalType": "string",
          "name": "",
          "type": "string"
        }
      ],
      "payable": false,
      "stateMutability": "pure",
      "type": "function"
    },
    {
      "constant": true,
      "inputs": [
        {
          "internalType": "uint256",
          "name": "begin",
          "type": "uint256"
        },
        {
          "internalType": "uint256",
          "name": "end",
          "type": "uint256"
        },
        {
          "internalType": "string",
          "name": "text",
          "type": "string"
        }
      ],
      "name": "getSlice",
      "outputs": [
        {
          "internalType": "string",
          "name": "",
          "type": "string"
        }
      ],
      "payable": false,
      "stateMutability": "pure",
      "type": "function"
    }
  ],
  "bytecode": "0x6080604052600060035560006004556040518061014001604052806040518060400160405280600481526020017f626f64790000000000000000000000000000000000000000000000000000000081525081526020016040518060400160405280600781526020017f7061747465726e0000000000000000000000000000000000000000000000000081525081526020016040518060400160405280600981526020017f636f6c6f7265796573000000000000000000000000000000000000000000000081525081526020016040518060400160405280600481526020017f657965730000000000000000000000000000000000000000000000000000000081525081526020016040518060400160405280600681526020017f636f6c6f7231000000000000000000000000000000000000000000000000000081525081526020016040518060400160405280600681526020017f636f6c6f7232000000000000000000000000000000000000000000000000000081525081526020016040518060400160405280600681526020017f636f6c6f7233000000000000000000000000000000000000000000000000000081525081526020016040518060400160405280600481526020017f77696c640000000000000000000000000000000000000000000000000000000081525081526020016040518060400160405280600581526020017f6d6f75746800000000000000000000000000000000000000000000000000000081525081526020016040518060400160405280600b81526020017f656e7669726f6e6d656e74000000000000000000000000000000000000000000815250815250600590600a620002789291906200030d565b506040518060400160405280602081526020017f3132333435363738396162636465666768696a6b6d6e6f707172737475767778815250600f9080519060200190620002c692919062000367565b50336000806101000a81548173ffffffffffffffffffffffffffffffffffffffff021916908373ffffffffffffffffffffffffffffffffffffffff1602179055506200051a565b82600a810192821562000354579160200282015b828111156200035357825182908051906020019062000342929190620003ee565b509160200191906001019062000321565b5b50905062000363919062000475565b5090565b828054600181600116156101000203166002900490600052602060002090601f016020900481019282601f10620003aa57805160ff1916838001178555620003db565b82800160010185558215620003db579182015b82811115620003da578251825591602001919060010190620003bd565b5b509050620003ea9190620004a6565b5090565b828054600181600116156101000203166002900490600052602060002090601f016020900481019282601f106200043157805160ff191683800117855562000462565b8280016001018555821562000462579182015b828111156200046157825182559160200191906001019062000444565b5b509050620004719190620004a6565b5090565b620004a391905b808211156200049f5760008181620004959190620004ce565b506001016200047c565b5090565b90565b620004cb91905b80821115620004c7576000816000905550600101620004ad565b5090565b90565b50805460018160011615610100020316600290046000825580601f10620004f6575062000517565b601f016020900490600052602060002090810190620005169190620004a6565b5b50565b6127a1806200052a6000396000f3fe608060405234801561001057600080fd5b50600436106100cf5760003560e01c8063979cfe081161008c578063ec55688911610066578063ec556889146106c8578063f2fde38b14610712578063f343050414610756578063f4fb432f14610869576100cf565b8063979cfe081461057d578063bfcfd60b1461062e578063c9f638fc14610638576100cf565b8063022d1c01146100d45780630f240ab4146101855780635a095f47146102e55780637f60b20a146103a75780638da5cb5b146104ef57806397107d6d14610539575b600080fd5b61010a600480360360408110156100ea57600080fd5b810190808035906020019092919080359060200190929190505050610910565b6040518080602001828103825283818151815260200191508051906020019080838360005b8381101561014a57808201518184015260208101905061012f565b50505050905090810190601f1680156101775780820380516001836020036101000a031916815260200191505b509250505060405180910390f35b61026a6004803603604081101561019b57600080fd5b81019080803590602001906401000000008111156101b857600080fd5b8201836020820111156101ca57600080fd5b803590602001918460018302840111640100000000831117156101ec57600080fd5b91908080601f016020809104026020016040519081016040528093929190818152602001838380828437600081840152601f19601f82011690508083019250505050505050919291929080357effffffffffffffffffffffffffffffffffffffffffffffffffffffffffffff191690602001909291905050506109d6565b6040518080602001828103825283818151815260200191508051906020019080838360005b838110156102aa57808201518184015260208101905061028f565b50505050905090810190601f1680156102d75780820380516001836020036101000a031916815260200191505b509250505060405180910390f35b6103a5600480360360408110156102fb57600080fd5b810190808035906020019064010000000081111561031857600080fd5b82018360208201111561032a57600080fd5b8035906020019184602083028401116401000000008311171561034c57600080fd5b919080806020026020016040519081016040528093929190818152602001838360200280828437600081840152601f19601f82011690508083019250505050505050919291929080359060200190929190505050610aa9565b005b610474600480360360608110156103bd57600080fd5b810190808035906020019092919080359060200190929190803590602001906401000000008111156103ee57600080fd5b82018360208201111561040057600080fd5b8035906020019184600183028401116401000000008311171561042257600080fd5b91908080601f016020809104026020016040519081016040528093929190818152602001838380828437600081840152601f19601f820116905080830192505050505050509192919290505050610da3565b6040518080602001828103825283818151815260200191508051906020019080838360005b838110156104b4578082015181840152602081019050610499565b50505050905090810190601f1680156104e15780820380516001836020036101000a031916815260200191505b509250505060405180910390f35b6104f7610eb0565b604051808273ffffffffffffffffffffffffffffffffffffffff1673ffffffffffffffffffffffffffffffffffffffff16815260200191505060405180910390f35b61057b6004803603602081101561054f57600080fd5b81019080803573ffffffffffffffffffffffffffffffffffffffff169060200190929190505050610ed5565b005b6105b36004803603604081101561059357600080fd5b810190808035906020019092919080359060200190929190505050610f6f565b6040518080602001828103825283818151815260200191508051906020019080838360005b838110156105f35780820151818401526020810190506105d8565b50505050905090810190601f1680156106205780820380516001836020036101000a031916815260200191505b509250505060405180910390f35b610636611035565b005b61066e6004803603604081101561064e57600080fd5b810190808035906020019092919080359060200190929190505050611ffe565b60405180827effffffffffffffffffffffffffffffffffffffffffffffffffffffffffffff19167effffffffffffffffffffffffffffffffffffffffffffffffffffffffffffff1916815260200191505060405180910390f35b6106d061203e565b604051808273ffffffffffffffffffffffffffffffffffffffff1673ffffffffffffffffffffffffffffffffffffffff16815260200191505060405180910390f35b6107546004803603602081101561072857600080fd5b81019080803573ffffffffffffffffffffffffffffffffffffffff169060200190929190505050612064565b005b61080f6004803603602081101561076c57600080fd5b810190808035906020019064010000000081111561078957600080fd5b82018360208201111561079b57600080fd5b803590602001918460018302840111640100000000831117156107bd57600080fd5b91908080601f016020809104026020016040519081016040528093929190818152602001838380828437600081840152601f19601f820116905080830192505050505050509192919290505050612132565b60405180827effffffffffffffffffffffffffffffffffffffffffffffffffffffffffffff19167effffffffffffffffffffffffffffffffffffffffffffffffffffffffffffff1916815260200191505060405180910390f35b6108956004803603602081101561087f57600080fd5b8101908080359060200190929190505050612168565b6040518080602001828103825283818151815260200191508051906020019080838360005b838110156108d55780820151818401526020810190506108ba565b50505050905090810190601f1680156109025780820380516001836020036101000a031916815260200191505b509250505060405180910390f35b6011602052816000526040600020818154811061092957fe5b90600052602060002001600091509150508054600181600116156101000203166002900480601f0160208091040260200160405190810160405280929190818152602001828054600181600116156101000203166002900480156109ce5780601f106109a3576101008083540402835291602001916109ce565b820191906000526020600020905b8154815290600101906020018083116109b157829003601f168201915b505050505081565b600282805160208101820180518482526020830160208501208183528095505050505050602052806000526040600020600091509150508054600181600116156101000203166002900480601f016020809104026020016040519081016040528092919081815260200182805460018160011615610100020316600290048015610aa15780601f10610a7657610100808354040283529160200191610aa1565b820191906000526020600020905b815481529060010190602001808311610a8457829003601f168201915b505050505081565b600073ffffffffffffffffffffffffffffffffffffffff163373ffffffffffffffffffffffffffffffffffffffff161415610ae057fe5b610b1e6040518060400160405280600b81526020017f73757065725f61646d696e000000000000000000000000000000000000000000815250612276565b610b90576040517f08c379a00000000000000000000000000000000000000000000000000000000081526004018080602001828103825260108152602001807f4f6e6c792073757065722061646d696e0000000000000000000000000000000081525060200191505060405180910390fd5b600060035490505b8160035401811015610d8b5760008090505b6020811015610d7d57610bd18460045481518110610bc457fe5b60200260200101516124f2565b6002600584600a8110610be057fe5b016040518082805460018160011615610100020316600290048015610c3c5780601f10610c1a576101008083540402835291820191610c3c565b820191906000526020600020905b815481529060010190602001808311610c28575b505091505090815260200160405180910390206000610cf8600f8054600181600116156101000203166002900480601f016020809104026020016040519081016040528092919081815260200182805460018160011615610100020316600290048015610cea5780601f10610cbf57610100808354040283529160200191610cea565b820191906000526020600020905b815481529060010190602001808311610ccd57829003601f168201915b50505050508560200161259a565b7effffffffffffffffffffffffffffffffffffffffffffffffffffffffffffff19167effffffffffffffffffffffffffffffffffffffffffffffffffffffffffffff191681526020019081526020016000209080519060200190610d5d9291906126c7565b506004600081548092919060010191905055508080600101915050610baa565b508080600101915050610b98565b50806003540160038190555060006004819055505050565b606080610dcc6001610dbe87876125c690919063ffffffff16565b6125dd90919063ffffffff16565b6040519080825280601f01601f191660200182016040528015610dfe5781602001600182028038833980820191505090505b50905060008090505b610e1a86866125c690919063ffffffff16565b8111610ea45783610e476001610e3989856125dd90919063ffffffff16565b6125c690919063ffffffff16565b81518110610e5157fe5b602001015160f81c60f81b828281518110610e6857fe5b60200101907effffffffffffffffffffffffffffffffffffffffffffffffffffffffffffff1916908160001a9053508080600101915050610e07565b50809150509392505050565b6000809054906101000a900473ffffffffffffffffffffffffffffffffffffffff1681565b6000809054906101000a900473ffffffffffffffffffffffffffffffffffffffff1673ffffffffffffffffffffffffffffffffffffffff163373ffffffffffffffffffffffffffffffffffffffff1614610f2b57fe5b80600160006101000a81548173ffffffffffffffffffffffffffffffffffffffff021916908373ffffffffffffffffffffffffffffffffffffffff16021790555050565b60136020528160005260406000208181548110610f8857fe5b90600052602060002001600091509150508054600181600116156101000203166002900480601f01602080910402602001604051908101604052809291908181526020018280546001816001161561010002031660029004801561102d5780601f106110025761010080835404028352916020019161102d565b820191906000526020600020905b81548152906001019060200180831161101057829003601f168201915b505050505081565b600073ffffffffffffffffffffffffffffffffffffffff163373ffffffffffffffffffffffffffffffffffffffff16141561106c57fe5b6110aa6040518060400160405280600b81526020017f73757065725f61646d696e000000000000000000000000000000000000000000815250612276565b61111c576040517f08c379a00000000000000000000000000000000000000000000000000000000081526004018080602001828103825260108152602001807f4f6e6c792073757065722061646d696e0000000000000000000000000000000081525060200191505060405180910390fd5b7f3100000000000000000000000000000000000000000000000000000000000000601060405180807f30303030300000000000000000000000000000000000000000000000000000008152506005019050908152602001604051809103902060006101000a81548160ff021916908360f81c02179055507f3200000000000000000000000000000000000000000000000000000000000000601060405180807f30303030310000000000000000000000000000000000000000000000000000008152506005019050908152602001604051809103902060006101000a81548160ff021916908360f81c02179055507f3300000000000000000000000000000000000000000000000000000000000000601060405180807f30303031300000000000000000000000000000000000000000000000000000008152506005019050908152602001604051809103902060006101000a81548160ff021916908360f81c02179055507f3400000000000000000000000000000000000000000000000000000000000000601060405180807f30303031310000000000000000000000000000000000000000000000000000008152506005019050908152602001604051809103902060006101000a81548160ff021916908360f81c02179055507f3500000000000000000000000000000000000000000000000000000000000000601060405180807f30303130300000000000000000000000000000000000000000000000000000008152506005019050908152602001604051809103902060006101000a81548160ff021916908360f81c02179055507f3600000000000000000000000000000000000000000000000000000000000000601060405180807f30303130310000000000000000000000000000000000000000000000000000008152506005019050908152602001604051809103902060006101000a81548160ff021916908360f81c02179055507f3700000000000000000000000000000000000000000000000000000000000000601060405180807f30303131300000000000000000000000000000000000000000000000000000008152506005019050908152602001604051809103902060006101000a81548160ff021916908360f81c02179055507f3800000000000000000000000000000000000000000000000000000000000000601060405180807f30303131310000000000000000000000000000000000000000000000000000008152506005019050908152602001604051809103902060006101000a81548160ff021916908360f81c02179055507f3900000000000000000000000000000000000000000000000000000000000000601060405180807f30313030300000000000000000000000000000000000000000000000000000008152506005019050908152602001604051809103902060006101000a81548160ff021916908360f81c02179055507f6100000000000000000000000000000000000000000000000000000000000000601060405180807f30313030310000000000000000000000000000000000000000000000000000008152506005019050908152602001604051809103902060006101000a81548160ff021916908360f81c02179055507f6200000000000000000000000000000000000000000000000000000000000000601060405180807f30313031300000000000000000000000000000000000000000000000000000008152506005019050908152602001604051809103902060006101000a81548160ff021916908360f81c02179055507f6300000000000000000000000000000000000000000000000000000000000000601060405180807f30313031310000000000000000000000000000000000000000000000000000008152506005019050908152602001604051809103902060006101000a81548160ff021916908360f81c02179055507f6400000000000000000000000000000000000000000000000000000000000000601060405180807f30313130300000000000000000000000000000000000000000000000000000008152506005019050908152602001604051809103902060006101000a81548160ff021916908360f81c02179055507f6500000000000000000000000000000000000000000000000000000000000000601060405180807f30313130310000000000000000000000000000000000000000000000000000008152506005019050908152602001604051809103902060006101000a81548160ff021916908360f81c02179055507f6600000000000000000000000000000000000000000000000000000000000000601060405180807f30313131300000000000000000000000000000000000000000000000000000008152506005019050908152602001604051809103902060006101000a81548160ff021916908360f81c02179055507f6700000000000000000000000000000000000000000000000000000000000000601060405180807f30313131310000000000000000000000000000000000000000000000000000008152506005019050908152602001604051809103902060006101000a81548160ff021916908360f81c02179055507f6800000000000000000000000000000000000000000000000000000000000000601060405180807f31303030300000000000000000000000000000000000000000000000000000008152506005019050908152602001604051809103902060006101000a81548160ff021916908360f81c02179055507f6900000000000000000000000000000000000000000000000000000000000000601060405180807f31303030310000000000000000000000000000000000000000000000000000008152506005019050908152602001604051809103902060006101000a81548160ff021916908360f81c02179055507f6a00000000000000000000000000000000000000000000000000000000000000601060405180807f31303031300000000000000000000000000000000000000000000000000000008152506005019050908152602001604051809103902060006101000a81548160ff021916908360f81c02179055507f6b00000000000000000000000000000000000000000000000000000000000000601060405180807f31303031310000000000000000000000000000000000000000000000000000008152506005019050908152602001604051809103902060006101000a81548160ff021916908360f81c02179055507f6d00000000000000000000000000000000000000000000000000000000000000601060405180807f31303130300000000000000000000000000000000000000000000000000000008152506005019050908152602001604051809103902060006101000a81548160ff021916908360f81c02179055507f6e00000000000000000000000000000000000000000000000000000000000000601060405180807f31303130310000000000000000000000000000000000000000000000000000008152506005019050908152602001604051809103902060006101000a81548160ff021916908360f81c02179055507f6f00000000000000000000000000000000000000000000000000000000000000601060405180807f31303131300000000000000000000000000000000000000000000000000000008152506005019050908152602001604051809103902060006101000a81548160ff021916908360f81c02179055507f7000000000000000000000000000000000000000000000000000000000000000601060405180807f31303131310000000000000000000000000000000000000000000000000000008152506005019050908152602001604051809103902060006101000a81548160ff021916908360f81c02179055507f7100000000000000000000000000000000000000000000000000000000000000601060405180807f31313030300000000000000000000000000000000000000000000000000000008152506005019050908152602001604051809103902060006101000a81548160ff021916908360f81c02179055507f7200000000000000000000000000000000000000000000000000000000000000601060405180807f31313030310000000000000000000000000000000000000000000000000000008152506005019050908152602001604051809103902060006101000a81548160ff021916908360f81c02179055507f7300000000000000000000000000000000000000000000000000000000000000601060405180807f31313031300000000000000000000000000000000000000000000000000000008152506005019050908152602001604051809103902060006101000a81548160ff021916908360f81c02179055507f7400000000000000000000000000000000000000000000000000000000000000601060405180807f31313031310000000000000000000000000000000000000000000000000000008152506005019050908152602001604051809103902060006101000a81548160ff021916908360f81c02179055507f7500000000000000000000000000000000000000000000000000000000000000601060405180807f31313130300000000000000000000000000000000000000000000000000000008152506005019050908152602001604051809103902060006101000a81548160ff021916908360f81c02179055507f7600000000000000000000000000000000000000000000000000000000000000601060405180807f31313130310000000000000000000000000000000000000000000000000000008152506005019050908152602001604051809103902060006101000a81548160ff021916908360f81c02179055507f7700000000000000000000000000000000000000000000000000000000000000601060405180807f31313131300000000000000000000000000000000000000000000000000000008152506005019050908152602001604051809103902060006101000a81548160ff021916908360f81c02179055507f7800000000000000000000000000000000000000000000000000000000000000601060405180807f31313131310000000000000000000000000000000000000000000000000000008152506005019050908152602001604051809103902060006101000a81548160ff021916908360f81c0217905550565b6012602052816000526040600020818154811061201757fe5b9060005260206000209060209182820401919006915091509054906101000a900460f81b81565b600160009054906101000a900473ffffffffffffffffffffffffffffffffffffffff1681565b6000809054906101000a900473ffffffffffffffffffffffffffffffffffffffff1673ffffffffffffffffffffffffffffffffffffffff163373ffffffffffffffffffffffffffffffffffffffff16146120ba57fe5b600073ffffffffffffffffffffffffffffffffffffffff168173ffffffffffffffffffffffffffffffffffffffff161461212f57806000806101000a81548173ffffffffffffffffffffffffffffffffffffffff021916908373ffffffffffffffffffffffffffffffffffffffff1602179055505b50565b6010818051602081018201805184825260208301602085012081835280955050505050506000915054906101000a900460f81b81565b60608060f06040519080825280601f01601f19166020018201604052801561219f5781602001600182028038833980820191505090505b50905060008090505b60f081101561226c576001600285816121bd57fe5b06146121e9577f300000000000000000000000000000000000000000000000000000000000000061220b565b7f31000000000000000000000000000000000000000000000000000000000000005b828260ef038151811061221a57fe5b60200101907effffffffffffffffffffffffffffffffffffffffffffffffffffffffffffff1916908160001a90535061225d6002856125f990919063ffffffff16565b935080806001019150506121a8565b5080915050919050565b6000600160009054906101000a900473ffffffffffffffffffffffffffffffffffffffff1673ffffffffffffffffffffffffffffffffffffffff1663358177736040518060400160405280600681526020017f526f6c65444200000000000000000000000000000000000000000000000000008152506040518263ffffffff1660e01b81526004018080602001828103825283818151815260200191508051906020019080838360005b8381101561233b578082015181840152602081019050612320565b50505050905090810190601f1680156123685780820380516001836020036101000a031916815260200191505b509250505060206040518083038186803b15801561238557600080fd5b505afa158015612399573d6000803e3d6000fd5b505050506040513d60208110156123af57600080fd5b810190808051906020019092919050505073ffffffffffffffffffffffffffffffffffffffff16636c9cd097836123e4612612565b6040518363ffffffff1660e01b815260040180806020018373ffffffffffffffffffffffffffffffffffffffff1673ffffffffffffffffffffffffffffffffffffffff168152602001828103825284818151815260200191508051906020019080838360005b8381101561246557808201518184015260208101905061244a565b50505050905090810190601f1680156124925780820380516001836020036101000a031916815260200191505b50935050505060206040518083038186803b1580156124b057600080fd5b505afa1580156124c4573d6000803e3d6000fd5b505050506040513d60208110156124da57600080fd5b81019080805190602001909291905050509050919050565b60608060206040519080825280601f01601f1916602001820160405280156125295781602001600182028038833980820191505090505b50905060005b60208110156125905783816020811061254457fe5b1a60f81b82828151811061255457fe5b60200101907effffffffffffffffffffffffffffffffffffffffffffffffffffffffffffff1916908160001a905350808060010191505061252f565b5080915050919050565b600060608390506000815114156125b857600060f81b9150506125c0565b828401519150505b92915050565b6000828211156125d257fe5b818303905092915050565b6000808284019050838110156125ef57fe5b8091505092915050565b60008082848161260557fe5b0490508091505092915050565b6000600160009054906101000a900473ffffffffffffffffffffffffffffffffffffffff1673ffffffffffffffffffffffffffffffffffffffff163373ffffffffffffffffffffffffffffffffffffffff1614612671573390506126c4565b6000601436036000602052601481602c37602051915050600073ffffffffffffffffffffffffffffffffffffffff168173ffffffffffffffffffffffffffffffffffffffff1614156126bf57fe5b809150505b90565b828054600181600116156101000203166002900490600052602060002090601f016020900481019282601f1061270857805160ff1916838001178555612736565b82800160010185558215612736579182015b8281111561273557825182559160200191906001019061271a565b5b5090506127439190612747565b5090565b61276991905b8082111561276557600081600090555060010161274d565b5090565b9056fea265627a7a7231582057d186508181e03a622e4222e55f24895f6c86b5b75c919190efffcbce86a76764736f6c63430005110032",
  "source": "pragma solidity ^0.5.5;\n\nimport \"../../../libs/SafeMath.sol\";\nimport \"../../proxy/Proxied.sol\";\nimport \"../../../authority/Guard.sol\";\nimport \"./KaiToCattributesDB.sol\";\nimport \"./KaiValueDB.sol\";\nimport \"../../databases/ProfileDB.sol\";\nimport \"../../../interfaces/IContractManager.sol\";\n\n/**\n * @title This contract converts a kitty's genes into binary, kai notation, and cattributes\n * and stores them in mappings\n * @author @ziweidream\n */\n\ncontract KittiesCattributesDB is Proxied, Guard, KaiToCattributesDB, KaiValueDB {\n    using SafeMath for uint256;\n\n    mapping(uint256 => string[]) public kittiesDominantGeneBinary;\n    mapping(uint256 => bytes1[]) public kittiesDominantGeneKai;\n    mapping(uint256 => string[]) public kittiesDominantCattributes;\n\n    /**\n     * @author @ziweidream\n     * @notice converts kai notation to its corresponding cattribute\n     */\n    function kaiToCattribute(uint256 kittieId)\n      internal\n    {\n       kittiesDominantCattributes[kittieId].push(cattributes['body'][kittiesDominantGeneKai[kittieId][0]]);\n       kittiesDominantCattributes[kittieId].push(cattributes['pattern'][kittiesDominantGeneKai[kittieId][1]]);\n       kittiesDominantCattributes[kittieId].push(cattributes['coloreyes'][kittiesDominantGeneKai[kittieId][2]]);\n       kittiesDominantCattributes[kittieId].push(cattributes['eyes'][kittiesDominantGeneKai[kittieId][3]]);\n       kittiesDominantCattributes[kittieId].push(cattributes['color1'][kittiesDominantGeneKai[kittieId][4]]);\n       kittiesDominantCattributes[kittieId].push(cattributes['color2'][kittiesDominantGeneKai[kittieId][5]]);\n       kittiesDominantCattributes[kittieId].push(cattributes['color3'][kittiesDominantGeneKai[kittieId][6]]);\n       kittiesDominantCattributes[kittieId].push(cattributes['wild'][kittiesDominantGeneKai[kittieId][7]]);\n       kittiesDominantCattributes[kittieId].push(cattributes['mouth'][kittiesDominantGeneKai[kittieId][8]]);\n       kittiesDominantCattributes[kittieId].push(cattributes['environment'][kittiesDominantGeneKai[kittieId][9]]);\n    }\n  \n   /**\n     * @author @ziweidream\n     * @notice converts binary to its corresponding kai notation\n     * @notice only dominant genes are kept since kitties only demonstrate cattributes from dominant genes.\n     */\n   function binaryToKai(uint256 kittieId)\n     internal\n     {\n       kittiesDominantGeneKai[kittieId].push(kaiValue[kittiesDominantGeneBinary[kittieId][0]]);\n       kittiesDominantGeneKai[kittieId].push(kaiValue[kittiesDominantGeneBinary[kittieId][1]]);\n       kittiesDominantGeneKai[kittieId].push(kaiValue[kittiesDominantGeneBinary[kittieId][2]]);\n       kittiesDominantGeneKai[kittieId].push(kaiValue[kittiesDominantGeneBinary[kittieId][3]]);\n       kittiesDominantGeneKai[kittieId].push(kaiValue[kittiesDominantGeneBinary[kittieId][4]]);\n       kittiesDominantGeneKai[kittieId].push(kaiValue[kittiesDominantGeneBinary[kittieId][5]]);\n       kittiesDominantGeneKai[kittieId].push(kaiValue[kittiesDominantGeneBinary[kittieId][6]]);\n       kittiesDominantGeneKai[kittieId].push(kaiValue[kittiesDominantGeneBinary[kittieId][7]]);\n       kittiesDominantGeneKai[kittieId].push(kaiValue[kittiesDominantGeneBinary[kittieId][8]]);\n       kittiesDominantGeneKai[kittieId].push(kaiValue[kittiesDominantGeneBinary[kittieId][9]]);\n   }\n  \n   /**\n     * @author @ziweidream\n     * @notice converts an integer to its binary\n     * @param n the integer to be converted\n     * @return the binary\n     */\n   function toBinaryString(uint256 n) public pure returns (string memory) {\n\n        bytes memory output = new bytes(240);\n\n        for (uint256 i = 0; i < 240; i++) {\n            output[239 - i] = (n % 2 == 1) ? byte(\"1\") : byte(\"0\");\n            n = n.div(2);\n        }\n\n        return string(output);\n    }\n  \n    /**\n     * @author @ziweidream\n     * @notice converts the gene in uint of a kitty to binary.\n     * @notice only dominant genes are kept since kitties only demonstrate cattributes from dominant genes.\n     */\n    function getDominantGeneBinary(uint256 kittieId, uint256 gene)\n      internal\n     {\n        string memory geneBinary = toBinaryString(gene);\n        kittiesDominantGeneBinary[kittieId].push(getSlice(236, 240, geneBinary));\n        kittiesDominantGeneBinary[kittieId].push(getSlice(216, 220, geneBinary));\n        kittiesDominantGeneBinary[kittieId].push(getSlice(196, 200, geneBinary));\n        kittiesDominantGeneBinary[kittieId].push(getSlice(176, 180, geneBinary));\n        kittiesDominantGeneBinary[kittieId].push(getSlice(156, 160, geneBinary));\n        kittiesDominantGeneBinary[kittieId].push(getSlice(136, 140, geneBinary));\n        kittiesDominantGeneBinary[kittieId].push(getSlice(116, 120, geneBinary));\n        kittiesDominantGeneBinary[kittieId].push(getSlice(96, 100, geneBinary));\n        kittiesDominantGeneBinary[kittieId].push(getSlice(76, 80, geneBinary));\n        kittiesDominantGeneBinary[kittieId].push(getSlice(56, 60, geneBinary));\n    }\n\n    /**\n     * @author @ziweidream\n     * @notice gets slice of a string\n     */\n    function getSlice(uint256 begin, uint256 end, string memory text)\n        public\n        pure\n        returns (string memory) {\n        bytes memory a = new bytes(end.sub(begin).add(1));\n        for(uint256 i=0; i<=end.sub(begin); i++){\n            a[i] = bytes(text)[i.add(begin).sub(1)];\n        }\n        return string(a);\n    }\n}",
  "sourcePath": "/Users/ziweizhang/Desktop/guards-and-freezes/contracts/contracts/modules/algorithm/RarityCalculationDBs/KittiesCattributesDB.sol",
  "compiler": {
    "name": "solc",
    "version": "0.5.17+commit.d19bba13.Emscripten.clang"
  },
  "schemaVersion": "3.0.23",
  "updatedAt": "2020-07-02T04:07:01.263Z",
  "devdoc": {
    "author": "@ziweidream",
    "methods": {
      "fillKaiValue()": {
        "author": "@ziweidream"
      },
      "getSlice(uint256,uint256,string)": {
        "author": "@ziweidream"
      },
      "toBinaryString(uint256)": {
        "author": "@ziweidream",
        "params": {
          "n": "the integer to be converted"
        },
        "return": "the binary"
      }
    },
    "title": "This contract converts a kitty's genes into binary, kai notation, and cattributes and stores them in mappings"
  },
  "userdoc": {
    "methods": {
      "fillKaiValue()": {
        "notice": "mapping a gene in binary with its kai notation"
      },
      "getSlice(uint256,uint256,string)": {
        "notice": "gets slice of a string"
      },
      "setProxy(address)": {
        "notice": "Set/update address of Proxy contract"
      },
      "toBinaryString(uint256)": {
        "notice": "converts an integer to its binary"
      }
    }
  }
}