{
  "contractName": "KittieHellDB",
  "abi": [
    {
      "inputs": [
        {
          "internalType": "contract GenericDB",
          "name": "_genericDB",
          "type": "address"
        }
      ],
      "payable": false,
      "stateMutability": "nonpayable",
      "type": "constructor"
    },
    {
      "anonymous": false,
      "inputs": [
        {
          "indexed": true,
          "internalType": "uint256",
          "name": "kittyID",
          "type": "uint256"
        },
        {
          "indexed": false,
          "internalType": "address",
          "name": "_owner",
          "type": "address"
        },
        {
          "indexed": true,
          "internalType": "uint256",
          "name": "_id",
          "type": "uint256"
        }
      ],
      "name": "AddedToKittieHellDB",
      "type": "event"
    },
    {
      "constant": true,
      "inputs": [],
      "name": "genericDB",
      "outputs": [
        {
          "internalType": "contract GenericDB",
          "name": "",
          "type": "address"
        }
      ],
      "payable": false,
      "stateMutability": "view",
      "type": "function"
    },
    {
      "constant": true,
      "inputs": [],
      "name": "kittieHELL",
      "outputs": [
        {
          "internalType": "contract KittieHell",
          "name": "",
          "type": "address"
        }
      ],
      "payable": false,
      "stateMutability": "view",
      "type": "function"
    },
    {
      "constant": true,
      "inputs": [],
      "name": "owner",
      "outputs": [
        {
          "internalType": "address payable",
          "name": "",
          "type": "address"
        }
      ],
      "payable": false,
      "stateMutability": "view",
      "type": "function"
    },
    {
      "constant": true,
      "inputs": [],
      "name": "proxy",
      "outputs": [
        {
          "internalType": "contract ProxyBase",
          "name": "",
          "type": "address"
        }
      ],
      "payable": false,
      "stateMutability": "view",
      "type": "function"
    },
    {
      "constant": false,
      "inputs": [
        {
          "internalType": "contract ProxyBase",
          "name": "_proxy",
          "type": "address"
        }
      ],
      "name": "setProxy",
      "outputs": [],
      "payable": false,
      "stateMutability": "nonpayable",
      "type": "function"
    },
    {
      "constant": false,
      "inputs": [
        {
          "internalType": "address payable",
          "name": "newOwner",
          "type": "address"
        }
      ],
      "name": "transferOwnership",
      "outputs": [],
      "payable": false,
      "stateMutability": "nonpayable",
      "type": "function"
    },
    {
      "constant": false,
      "inputs": [
        {
          "internalType": "contract GenericDB",
          "name": "_genericDB",
          "type": "address"
        }
      ],
      "name": "setGenericDB",
      "outputs": [],
      "payable": false,
      "stateMutability": "nonpayable",
      "type": "function"
    },
    {
      "constant": false,
      "inputs": [],
      "name": "setKittieHELL",
      "outputs": [],
      "payable": false,
      "stateMutability": "nonpayable",
      "type": "function"
    },
    {
      "constant": true,
      "inputs": [
        {
          "internalType": "uint256",
          "name": "_id",
          "type": "uint256"
        }
      ],
      "name": "doesGhostExist",
      "outputs": [
        {
          "internalType": "bool",
          "name": "",
          "type": "bool"
        }
      ],
      "payable": false,
      "stateMutability": "view",
      "type": "function"
    },
    {
      "constant": false,
      "inputs": [
        {
          "internalType": "uint256",
          "name": "_kittieID",
          "type": "uint256"
        },
        {
          "internalType": "address",
          "name": "_owner",
          "type": "address"
        }
      ],
      "name": "loserKittieToHell",
      "outputs": [],
      "payable": false,
      "stateMutability": "nonpayable",
      "type": "function"
    },
    {
      "constant": true,
      "inputs": [
        {
          "internalType": "uint256",
          "name": "_id",
          "type": "uint256"
        }
      ],
      "name": "getGhostAttributes",
      "outputs": [
        {
          "internalType": "uint256",
          "name": "",
          "type": "uint256"
        },
        {
          "internalType": "address",
          "name": "",
          "type": "address"
        },
        {
          "internalType": "bool",
          "name": "",
          "type": "bool"
        },
        {
          "internalType": "uint256",
          "name": "",
          "type": "uint256"
        }
      ],
      "payable": false,
      "stateMutability": "view",
      "type": "function"
    },
    {
      "constant": true,
      "inputs": [],
      "name": "getLastGhostId",
      "outputs": [
        {
          "internalType": "uint256",
          "name": "",
          "type": "uint256"
        }
      ],
      "payable": false,
      "stateMutability": "view",
      "type": "function"
    },
    {
      "constant": false,
      "inputs": [
        {
          "internalType": "uint256",
          "name": "_kittieID",
          "type": "uint256"
        },
        {
          "internalType": "address",
          "name": "_owner",
          "type": "address"
        },
        {
          "internalType": "uint256",
          "name": "_kittieReplacement",
          "type": "uint256"
        }
      ],
      "name": "kittieReplacementToHell",
      "outputs": [],
      "payable": false,
      "stateMutability": "nonpayable",
      "type": "function"
    },
    {
      "constant": true,
      "inputs": [
        {
          "internalType": "uint256",
          "name": "_kittieID",
          "type": "uint256"
        }
      ],
      "name": "getNumberOfReplacementKitties",
      "outputs": [
        {
          "internalType": "uint256",
          "name": "",
          "type": "uint256"
        }
      ],
      "payable": false,
      "stateMutability": "view",
      "type": "function"
    },
    {
      "constant": false,
      "inputs": [
        {
          "internalType": "uint256",
          "name": "_kittieID",
          "type": "uint256"
        },
        {
          "internalType": "uint256",
          "name": "_kty_amount",
          "type": "uint256"
        }
      ],
      "name": "lockKTYsInKittieHell",
      "outputs": [],
      "payable": false,
      "stateMutability": "nonpayable",
      "type": "function"
    },
    {
      "constant": true,
      "inputs": [],
      "name": "getTotalKTYsLockedInKittieHell",
      "outputs": [
        {
          "internalType": "uint256",
          "name": "",
          "type": "uint256"
        }
      ],
      "payable": false,
      "stateMutability": "view",
      "type": "function"
    },
    {
      "constant": true,
      "inputs": [],
      "name": "getTotalNumberOfGhostsInHell",
      "outputs": [
        {
          "internalType": "uint256",
          "name": "",
          "type": "uint256"
        }
      ],
      "payable": false,
      "stateMutability": "view",
      "type": "function"
    },
    {
      "constant": true,
      "inputs": [
        {
          "internalType": "uint256",
          "name": "_kittieID",
          "type": "uint256"
        }
      ],
      "name": "getGhostIdForKittie",
      "outputs": [
        {
          "internalType": "uint256",
          "name": "",
          "type": "uint256"
        }
      ],
      "payable": false,
      "stateMutability": "view",
      "type": "function"
    },
    {
      "constant": true,
      "inputs": [
        {
          "internalType": "uint256",
          "name": "_kittieID",
          "type": "uint256"
        }
      ],
      "name": "isKittieGhost",
      "outputs": [
        {
          "internalType": "bool",
          "name": "",
          "type": "bool"
        }
      ],
      "payable": false,
      "stateMutability": "view",
      "type": "function"
    }
  ],
  "bytecode": "0x60806040523480156200001157600080fd5b5060405162004b7238038062004b72833981810160405260208110156200003757600080fd5b8101908080519060200190929190505050336000806101000a81548173ffffffffffffffffffffffffffffffffffffffff021916908373ffffffffffffffffffffffffffffffffffffffff1602179055506200009981620000a060201b60201c565b506200013b565b6000809054906101000a900473ffffffffffffffffffffffffffffffffffffffff1673ffffffffffffffffffffffffffffffffffffffff163373ffffffffffffffffffffffffffffffffffffffff1614620000f757fe5b80600260006101000a81548173ffffffffffffffffffffffffffffffffffffffff021916908373ffffffffffffffffffffffffffffffffffffffff16021790555050565b614a27806200014b6000396000f3fe608060405234801561001057600080fd5b50600436106101215760003560e01c806398081ac2116100ad578063d2799fe811610071578063d2799fe8146104d5578063ec556889146104df578063f2fde38b14610529578063f557bd211461056d578063ff6010ea146105a557610121565b806398081ac2146103c7578063b4be5f5714610409578063b72819f51461044f578063cf4f6cd51461046d578063cfafbde71461048b57610121565b8063828ac0be116100f4578063828ac0be146102185780638da5cb5b1461029f5780638fa8bf0d146102e957806395d63c001461034157806397107d6d1461038357610121565b80632cf0b564146101265780633564e78c1461016c5780634afab815146101b657806359822e5d146101fa575b600080fd5b6101526004803603602081101561013c57600080fd5b81019080803590602001909291905050506105f3565b604051808215151515815260200191505060405180910390f35b610174610637565b604051808273ffffffffffffffffffffffffffffffffffffffff1673ffffffffffffffffffffffffffffffffffffffff16815260200191505060405180910390f35b6101f8600480360360208110156101cc57600080fd5b81019080803573ffffffffffffffffffffffffffffffffffffffff16906020019092919050505061065d565b005b6102026106f7565b6040518082815260200191505060405180910390f35b6102446004803603602081101561022e57600080fd5b8101908080359060200190929190505050610894565b604051808581526020018473ffffffffffffffffffffffffffffffffffffffff1673ffffffffffffffffffffffffffffffffffffffff1681526020018315151515815260200182815260200194505050505060405180910390f35b6102a7610f39565b604051808273ffffffffffffffffffffffffffffffffffffffff1673ffffffffffffffffffffffffffffffffffffffff16815260200191505060405180910390f35b61033f600480360360608110156102ff57600080fd5b8101908080359060200190929190803573ffffffffffffffffffffffffffffffffffffffff16906020019092919080359060200190929190505050610f5e565b005b61036d6004803603602081101561035757600080fd5b8101908080359060200190929190505050612457565b6040518082815260200191505060405180910390f35b6103c56004803603602081101561039957600080fd5b81019080803573ffffffffffffffffffffffffffffffffffffffff1690602001909291905050506125fe565b005b6103f3600480360360208110156103dd57600080fd5b8101908080359060200190929190505050612698565b6040518082815260200191505060405180910390f35b6104356004803603602081101561041f57600080fd5b810190808035906020019092919050505061283f565b604051808215151515815260200191505060405180910390f35b6104576129e6565b6040518082815260200191505060405180910390f35b610475612b83565b6040518082815260200191505060405180910390f35b610493612d45565b604051808273ffffffffffffffffffffffffffffffffffffffff1673ffffffffffffffffffffffffffffffffffffffff16815260200191505060405180910390f35b6104dd612d6b565b005b6104e7612f4b565b604051808273ffffffffffffffffffffffffffffffffffffffff1673ffffffffffffffffffffffffffffffffffffffff16815260200191505060405180910390f35b61056b6004803603602081101561053f57600080fd5b81019080803573ffffffffffffffffffffffffffffffffffffffff169060200190929190505050612f71565b005b6105a36004803603604081101561058357600080fd5b81019080803590602001909291908035906020019092919050505061303f565b005b6105f1600480360360408110156105bb57600080fd5b8101908080359060200190929190803573ffffffffffffffffffffffffffffffffffffffff169060200190929190505050613532565b005b6000806105ff83612698565b90506000811415610614576000915050610632565b61061d8161283f565b1561062c576001915050610632565b60009150505b919050565b600260009054906101000a900473ffffffffffffffffffffffffffffffffffffffff1681565b6000809054906101000a900473ffffffffffffffffffffffffffffffffffffffff1673ffffffffffffffffffffffffffffffffffffffff163373ffffffffffffffffffffffffffffffffffffffff16146106b357fe5b80600260006101000a81548173ffffffffffffffffffffffffffffffffffffffff021916908373ffffffffffffffffffffffffffffffffffffffff16021790555050565b6000600260009054906101000a900473ffffffffffffffffffffffffffffffffffffffff1673ffffffffffffffffffffffffffffffffffffffff166308acb5566040518060400160405280600c81526020017f4b697474696548656c6c4442000000000000000000000000000000000000000081525060405160200180807f746f74616c4b5459734c6f636b6564496e4b697474696548656c6c0000000000815250601b019050604051602081830303815290604052805190602001206040518363ffffffff1660e01b81526004018080602001838152602001828103825284818151815260200191508051906020019080838360005b838110156108095780820151818401526020810190506107ee565b50505050905090810190601f1680156108365780820380516001836020036101000a031916815260200191505b50935050505060206040518083038186803b15801561085457600080fd5b505afa158015610868573d6000803e3d6000fd5b505050506040513d602081101561087e57600080fd5b8101908080519060200190929190505050905090565b6000806000806000600260009054906101000a900473ffffffffffffffffffffffffffffffffffffffff1673ffffffffffffffffffffffffffffffffffffffff166308acb5566040518060400160405280600c81526020017f4b697474696548656c6c444200000000000000000000000000000000000000008152508860405160200180828152602001807f6b69747469654964000000000000000000000000000000000000000000000000815250600801915050604051602081830303815290604052805190602001206040518363ffffffff1660e01b81526004018080602001838152602001828103825284818151815260200191508051906020019080838360005b838110156109b4578082015181840152602081019050610999565b50505050905090810190601f1680156109e15780820380516001836020036101000a031916815260200191505b50935050505060206040518083038186803b1580156109ff57600080fd5b505afa158015610a13573d6000803e3d6000fd5b505050506040513d6020811015610a2957600080fd5b810190808051906020019092919050505090506000600260009054906101000a900473ffffffffffffffffffffffffffffffffffffffff1673ffffffffffffffffffffffffffffffffffffffff1663b93a5b5e6040518060400160405280600c81526020017f4b697474696548656c6c444200000000000000000000000000000000000000008152508960405160200180828152602001807f6f776e6572000000000000000000000000000000000000000000000000000000815250600501915050604051602081830303815290604052805190602001206040518363ffffffff1660e01b81526004018080602001838152602001828103825284818151815260200191508051906020019080838360005b83811015610b56578082015181840152602081019050610b3b565b50505050905090810190601f168015610b835780820380516001836020036101000a031916815260200191505b50935050505060206040518083038186803b158015610ba157600080fd5b505afa158015610bb5573d6000803e3d6000fd5b505050506040513d6020811015610bcb57600080fd5b810190808051906020019092919050505090506000600260009054906101000a900473ffffffffffffffffffffffffffffffffffffffff1673ffffffffffffffffffffffffffffffffffffffff16631c58c8bb6040518060400160405280600c81526020017f4b697474696548656c6c444200000000000000000000000000000000000000008152508a60405160200180828152602001807f7265706c6163656d656e744b6974746965000000000000000000000000000000815250601101915050604051602081830303815290604052805190602001206040518363ffffffff1660e01b81526004018080602001838152602001828103825284818151815260200191508051906020019080838360005b83811015610cf8578082015181840152602081019050610cdd565b50505050905090810190601f168015610d255780820380516001836020036101000a031916815260200191505b50935050505060206040518083038186803b158015610d4357600080fd5b505afa158015610d57573d6000803e3d6000fd5b505050506040513d6020811015610d6d57600080fd5b810190808051906020019092919050505090506000600260009054906101000a900473ffffffffffffffffffffffffffffffffffffffff1673ffffffffffffffffffffffffffffffffffffffff166308acb5566040518060400160405280600c81526020017f4b697474696548656c6c444200000000000000000000000000000000000000008152508b60405160200180828152602001807f7265706c6163656d6574466f7200000000000000000000000000000000000000815250600d01915050604051602081830303815290604052805190602001206040518363ffffffff1660e01b81526004018080602001838152602001828103825284818151815260200191508051906020019080838360005b83811015610e9a578082015181840152602081019050610e7f565b50505050905090810190601f168015610ec75780820380516001836020036101000a031916815260200191505b50935050505060206040518083038186803b158015610ee557600080fd5b505afa158015610ef9573d6000803e3d6000fd5b505050506040513d6020811015610f0f57600080fd5b81019080805190602001909291905050509050838383839750975097509750505050509193509193565b6000809054906101000a900473ffffffffffffffffffffffffffffffffffffffff1681565b610f66614304565b8173ffffffffffffffffffffffffffffffffffffffff16600160009054906101000a900473ffffffffffffffffffffffffffffffffffffffff1673ffffffffffffffffffffffffffffffffffffffff1663358177736040518060400160405280600d81526020017f43727970746f4b697474696573000000000000000000000000000000000000008152506040518263ffffffff1660e01b81526004018080602001828103825283818151815260200191508051906020019080838360005b83811015611040578082015181840152602081019050611025565b50505050905090810190601f16801561106d5780820380516001836020036101000a031916815260200191505b509250505060206040518083038186803b15801561108a57600080fd5b505afa15801561109e573d6000803e3d6000fd5b505050506040513d60208110156110b457600080fd5b810190808051906020019092919050505073ffffffffffffffffffffffffffffffffffffffff16636352211e836040518263ffffffff1660e01b81526004018082815260200191505060206040518083038186803b15801561111557600080fd5b505afa158015611129573d6000803e3d6000fd5b505050506040513d602081101561113f57600080fd5b810190808051906020019092919050505073ffffffffffffffffffffffffffffffffffffffff161461117057600080fd5b600160009054906101000a900473ffffffffffffffffffffffffffffffffffffffff1673ffffffffffffffffffffffffffffffffffffffff1663358177736040518060400160405280600d81526020017f43727970746f4b697474696573000000000000000000000000000000000000008152506040518263ffffffff1660e01b81526004018080602001828103825283818151815260200191508051906020019080838360005b83811015611233578082015181840152602081019050611218565b50505050905090810190601f1680156112605780820380516001836020036101000a031916815260200191505b509250505060206040518083038186803b15801561127d57600080fd5b505afa158015611291573d6000803e3d6000fd5b505050506040513d60208110156112a757600080fd5b810190808051906020019092919050505073ffffffffffffffffffffffffffffffffffffffff166323b872dd8330846040518463ffffffff1660e01b8152600401808473ffffffffffffffffffffffffffffffffffffffff1673ffffffffffffffffffffffffffffffffffffffff1681526020018373ffffffffffffffffffffffffffffffffffffffff1673ffffffffffffffffffffffffffffffffffffffff1681526020018281526020019350505050600060405180830381600087803b15801561137257600080fd5b505af1158015611386573d6000803e3d6000fd5b505050503073ffffffffffffffffffffffffffffffffffffffff16600160009054906101000a900473ffffffffffffffffffffffffffffffffffffffff1673ffffffffffffffffffffffffffffffffffffffff1663358177736040518060400160405280600d81526020017f43727970746f4b697474696573000000000000000000000000000000000000008152506040518263ffffffff1660e01b81526004018080602001828103825283818151815260200191508051906020019080838360005b83811015611464578082015181840152602081019050611449565b50505050905090810190601f1680156114915780820380516001836020036101000a031916815260200191505b509250505060206040518083038186803b1580156114ae57600080fd5b505afa1580156114c2573d6000803e3d6000fd5b505050506040513d60208110156114d857600080fd5b810190808051906020019092919050505073ffffffffffffffffffffffffffffffffffffffff16636352211e836040518263ffffffff1660e01b81526004018082815260200191505060206040518083038186803b15801561153957600080fd5b505afa15801561154d573d6000803e3d6000fd5b505050506040513d602081101561156357600080fd5b810190808051906020019092919050505073ffffffffffffffffffffffffffffffffffffffff161461159457600080fd5b60006115b160016115a3612b83565b61448e90919063ffffffff16565b90506115bc816144aa565b600260009054906101000a900473ffffffffffffffffffffffffffffffffffffffff1673ffffffffffffffffffffffffffffffffffffffff16630214a37c6040518060400160405280600c81526020017f4b697474696548656c6c444200000000000000000000000000000000000000008152508360405160200180828152602001807f6b6974746965496400000000000000000000000000000000000000000000000081525060080191505060405160208183030381529060405280519060200120856040518463ffffffff1660e01b81526004018080602001848152602001838152602001828103825285818151815260200191508051906020019080838360005b838110156116db5780820151818401526020810190506116c0565b50505050905090810190601f1680156117085780820380516001836020036101000a031916815260200191505b50945050505050600060405180830381600087803b15801561172957600080fd5b505af115801561173d573d6000803e3d6000fd5b50505050600260009054906101000a900473ffffffffffffffffffffffffffffffffffffffff1673ffffffffffffffffffffffffffffffffffffffff1663866d59fe6040518060400160405280600c81526020017f4b697474696548656c6c444200000000000000000000000000000000000000008152508360405160200180828152602001807f6f776e657200000000000000000000000000000000000000000000000000000081525060050191505060405160208183030381529060405280519060200120866040518463ffffffff1660e01b815260040180806020018481526020018373ffffffffffffffffffffffffffffffffffffffff1673ffffffffffffffffffffffffffffffffffffffff168152602001828103825285818151815260200191508051906020019080838360005b8381101561188c578082015181840152602081019050611871565b50505050905090810190601f1680156118b95780820380516001836020036101000a031916815260200191505b50945050505050600060405180830381600087803b1580156118da57600080fd5b505af11580156118ee573d6000803e3d6000fd5b50505050600260009054906101000a900473ffffffffffffffffffffffffffffffffffffffff1673ffffffffffffffffffffffffffffffffffffffff1663cb30ffe76040518060400160405280600c81526020017f4b697474696548656c6c444200000000000000000000000000000000000000008152508360405160200180828152602001807f7265706c6163656d656e744b69747469650000000000000000000000000000008152506011019150506040516020818303038152906040528051906020012060016040518463ffffffff1660e01b8152600401808060200184815260200183151515158152602001828103825285818151815260200191508051906020019080838360005b83811015611a165780820151818401526020810190506119fb565b50505050905090810190601f168015611a435780820380516001836020036101000a031916815260200191505b50945050505050600060405180830381600087803b158015611a6457600080fd5b505af1158015611a78573d6000803e3d6000fd5b50505050600260009054906101000a900473ffffffffffffffffffffffffffffffffffffffff1673ffffffffffffffffffffffffffffffffffffffff16630214a37c6040518060400160405280600c81526020017f4b697474696548656c6c444200000000000000000000000000000000000000008152508360405160200180828152602001807f7265706c6163656d6574466f7200000000000000000000000000000000000000815250600d0191505060405160208183030381529060405280519060200120876040518463ffffffff1660e01b81526004018080602001848152602001838152602001828103825285818151815260200191508051906020019080838360005b83811015611b9b578082015181840152602081019050611b80565b50505050905090810190601f168015611bc85780820380516001836020036101000a031916815260200191505b50945050505050600060405180830381600087803b158015611be957600080fd5b505af1158015611bfd573d6000803e3d6000fd5b50505050600260009054906101000a900473ffffffffffffffffffffffffffffffffffffffff1673ffffffffffffffffffffffffffffffffffffffff16630214a37c6040518060400160405280600c81526020017f4b697474696548656c6c444200000000000000000000000000000000000000008152508460405160200180828152602001807f67686f737449440000000000000000000000000000000000000000000000000081525060070191505060405160208183030381529060405280519060200120846040518463ffffffff1660e01b81526004018080602001848152602001838152602001828103825285818151815260200191508051906020019080838360005b83811015611d20578082015181840152602081019050611d05565b50505050905090810190601f168015611d4d5780820380516001836020036101000a031916815260200191505b50945050505050600060405180830381600087803b158015611d6e57600080fd5b505af1158015611d82573d6000803e3d6000fd5b505050506000611f396001600260009054906101000a900473ffffffffffffffffffffffffffffffffffffffff1673ffffffffffffffffffffffffffffffffffffffff166308acb5566040518060400160405280600c81526020017f4b697474696548656c6c444200000000000000000000000000000000000000008152508960405160200180828152602001807f6e756d6265724f665265706c6163656d656e744b697474696573000000000000815250601a01915050604051602081830303815290604052805190602001206040518363ffffffff1660e01b81526004018080602001838152602001828103825284818151815260200191508051906020019080838360005b83811015611ea5578082015181840152602081019050611e8a565b50505050905090810190601f168015611ed25780820380516001836020036101000a031916815260200191505b50935050505060206040518083038186803b158015611ef057600080fd5b505afa158015611f04573d6000803e3d6000fd5b505050506040513d6020811015611f1a57600080fd5b810190808051906020019092919050505061448e90919063ffffffff16565b9050600260009054906101000a900473ffffffffffffffffffffffffffffffffffffffff1673ffffffffffffffffffffffffffffffffffffffff16630214a37c6040518060400160405280600c81526020017f4b697474696548656c6c444200000000000000000000000000000000000000008152508760405160200180828152602001807f6e756d6265724f665265706c6163656d656e744b697474696573000000000000815250601a0191505060405160208183030381529060405280519060200120846040518463ffffffff1660e01b81526004018080602001848152602001838152602001828103825285818151815260200191508051906020019080838360005b8381101561205a57808201518184015260208101905061203f565b50505050905090810190601f1680156120875780820380516001836020036101000a031916815260200191505b50945050505050600060405180830381600087803b1580156120a857600080fd5b505af11580156120bc573d6000803e3d6000fd5b505050506000600260009054906101000a900473ffffffffffffffffffffffffffffffffffffffff1673ffffffffffffffffffffffffffffffffffffffff166308acb5566040518060400160405280600c81526020017f4b697474696548656c6c4442000000000000000000000000000000000000000081525060405160200180807f746f74616c4e756d6265724f664b6974746965730000000000000000000000008152506014019050604051602081830303815290604052805190602001206040518363ffffffff1660e01b81526004018080602001838152602001828103825284818151815260200191508051906020019080838360005b838110156121d25780820151818401526020810190506121b7565b50505050905090810190601f1680156121ff5780820380516001836020036101000a031916815260200191505b50935050505060206040518083038186803b15801561221d57600080fd5b505afa158015612231573d6000803e3d6000fd5b505050506040513d602081101561224757600080fd5b81019080805190602001909291905050509050600260009054906101000a900473ffffffffffffffffffffffffffffffffffffffff1673ffffffffffffffffffffffffffffffffffffffff16630214a37c6040518060400160405280600c81526020017f4b697474696548656c6c4442000000000000000000000000000000000000000081525060405160200180807f746f74616c4e756d6265724f664b69747469657300000000000000000000000081525060140190506040516020818303038152906040528051906020012061232960018661448e90919063ffffffff16565b6040518463ffffffff1660e01b81526004018080602001848152602001838152602001828103825285818151815260200191508051906020019080838360005b83811015612384578082015181840152602081019050612369565b50505050905090810190601f1680156123b15780820380516001836020036101000a031916815260200191505b50945050505050600060405180830381600087803b1580156123d257600080fd5b505af11580156123e6573d6000803e3d6000fd5b5050505082847f168a8b08a9a164dafbfd19c327bbbd4702d179d98c7d5be17a18101e3ff1bec087604051808273ffffffffffffffffffffffffffffffffffffffff1673ffffffffffffffffffffffffffffffffffffffff16815260200191505060405180910390a3505050505050565b6000600260009054906101000a900473ffffffffffffffffffffffffffffffffffffffff1673ffffffffffffffffffffffffffffffffffffffff166308acb5566040518060400160405280600c81526020017f4b697474696548656c6c444200000000000000000000000000000000000000008152508460405160200180828152602001807f6e756d6265724f665265706c6163656d656e744b697474696573000000000000815250601a01915050604051602081830303815290604052805190602001206040518363ffffffff1660e01b81526004018080602001838152602001828103825284818151815260200191508051906020019080838360005b83811015612571578082015181840152602081019050612556565b50505050905090810190601f16801561259e5780820380516001836020036101000a031916815260200191505b50935050505060206040518083038186803b1580156125bc57600080fd5b505afa1580156125d0573d6000803e3d6000fd5b505050506040513d60208110156125e657600080fd5b81019080805190602001909291905050509050919050565b6000809054906101000a900473ffffffffffffffffffffffffffffffffffffffff1673ffffffffffffffffffffffffffffffffffffffff163373ffffffffffffffffffffffffffffffffffffffff161461265457fe5b80600160006101000a81548173ffffffffffffffffffffffffffffffffffffffff021916908373ffffffffffffffffffffffffffffffffffffffff16021790555050565b6000600260009054906101000a900473ffffffffffffffffffffffffffffffffffffffff1673ffffffffffffffffffffffffffffffffffffffff166308acb5566040518060400160405280600c81526020017f4b697474696548656c6c444200000000000000000000000000000000000000008152508460405160200180828152602001807f67686f7374494400000000000000000000000000000000000000000000000000815250600701915050604051602081830303815290604052805190602001206040518363ffffffff1660e01b81526004018080602001838152602001828103825284818151815260200191508051906020019080838360005b838110156127b2578082015181840152602081019050612797565b50505050905090810190601f1680156127df5780820380516001836020036101000a031916815260200191505b50935050505060206040518083038186803b1580156127fd57600080fd5b505afa158015612811573d6000803e3d6000fd5b505050506040513d602081101561282757600080fd5b81019080805190602001909291905050509050919050565b6000600260009054906101000a900473ffffffffffffffffffffffffffffffffffffffff1673ffffffffffffffffffffffffffffffffffffffff166396edc0096040518060400160405280600c81526020017f4b697474696548656c6c4442000000000000000000000000000000000000000081525060405160200180807f4b697474696548656c6c5461626c650000000000000000000000000000000000815250600f01905060405160208183030381529060405280519060200120856040518463ffffffff1660e01b81526004018080602001848152602001838152602001828103825285818151815260200191508051906020019080838360005b8381101561295857808201518184015260208101905061293d565b50505050905090810190601f1680156129855780820380516001836020036101000a031916815260200191505b5094505050505060206040518083038186803b1580156129a457600080fd5b505afa1580156129b8573d6000803e3d6000fd5b505050506040513d60208110156129ce57600080fd5b81019080805190602001909291905050509050919050565b6000600260009054906101000a900473ffffffffffffffffffffffffffffffffffffffff1673ffffffffffffffffffffffffffffffffffffffff166308acb5566040518060400160405280600c81526020017f4b697474696548656c6c4442000000000000000000000000000000000000000081525060405160200180807f746f74616c4e756d6265724f664b6974746965730000000000000000000000008152506014019050604051602081830303815290604052805190602001206040518363ffffffff1660e01b81526004018080602001838152602001828103825284818151815260200191508051906020019080838360005b83811015612af8578082015181840152602081019050612add565b50505050905090810190601f168015612b255780820380516001836020036101000a031916815260200191505b50935050505060206040518083038186803b158015612b4357600080fd5b505afa158015612b57573d6000803e3d6000fd5b505050506040513d6020811015612b6d57600080fd5b8101908080519060200190929190505050905090565b600080600260009054906101000a900473ffffffffffffffffffffffffffffffffffffffff1673ffffffffffffffffffffffffffffffffffffffff16639a481f4e6040518060400160405280600c81526020017f4b697474696548656c6c4442000000000000000000000000000000000000000081525060405160200180807f4b697474696548656c6c5461626c650000000000000000000000000000000000815250600f01905060405160208183030381529060405280519060200120600060016040518563ffffffff1660e01b8152600401808060200185815260200184815260200183151515158152602001828103825286818151815260200191508051906020019080838360005b83811015612caa578082015181840152602081019050612c8f565b50505050905090810190601f168015612cd75780820380516001836020036101000a031916815260200191505b5095505050505050604080518083038186803b158015612cf657600080fd5b505afa158015612d0a573d6000803e3d6000fd5b505050506040513d6040811015612d2057600080fd5b8101908080519060200190929190805190602001909291905050509150508091505090565b600360009054906101000a900473ffffffffffffffffffffffffffffffffffffffff1681565b6000809054906101000a900473ffffffffffffffffffffffffffffffffffffffff1673ffffffffffffffffffffffffffffffffffffffff163373ffffffffffffffffffffffffffffffffffffffff1614612dc157fe5b600160009054906101000a900473ffffffffffffffffffffffffffffffffffffffff1673ffffffffffffffffffffffffffffffffffffffff1663358177736040518060400160405280600a81526020017f4b697474696548656c6c000000000000000000000000000000000000000000008152506040518263ffffffff1660e01b81526004018080602001828103825283818151815260200191508051906020019080838360005b83811015612e84578082015181840152602081019050612e69565b50505050905090810190601f168015612eb15780820380516001836020036101000a031916815260200191505b509250505060206040518083038186803b158015612ece57600080fd5b505afa158015612ee2573d6000803e3d6000fd5b505050506040513d6020811015612ef857600080fd5b8101908080519060200190929190505050600360006101000a81548173ffffffffffffffffffffffffffffffffffffffff021916908373ffffffffffffffffffffffffffffffffffffffff160217905550565b600160009054906101000a900473ffffffffffffffffffffffffffffffffffffffff1681565b6000809054906101000a900473ffffffffffffffffffffffffffffffffffffffff1673ffffffffffffffffffffffffffffffffffffffff163373ffffffffffffffffffffffffffffffffffffffff1614612fc757fe5b600073ffffffffffffffffffffffffffffffffffffffff168173ffffffffffffffffffffffffffffffffffffffff161461303c57806000806101000a81548173ffffffffffffffffffffffffffffffffffffffff021916908373ffffffffffffffffffffffffffffffffffffffff1602179055505b50565b6040518060400160405280600a81526020017f4b697474696548656c6c0000000000000000000000000000000000000000000081525061307e8161472a565b600260009054906101000a900473ffffffffffffffffffffffffffffffffffffffff1673ffffffffffffffffffffffffffffffffffffffff16630214a37c6040518060400160405280600c81526020017f4b697474696548656c6c444200000000000000000000000000000000000000008152508560405160200180828152602001807f726564656d7074696f6e4665654b54590000000000000000000000000000000081525060100191505060405160208183030381529060405280519060200120856040518463ffffffff1660e01b81526004018080602001848152602001838152602001828103825285818151815260200191508051906020019080838360005b8381101561319d578082015181840152602081019050613182565b50505050905090810190601f1680156131ca5780820380516001836020036101000a031916815260200191505b50945050505050600060405180830381600087803b1580156131eb57600080fd5b505af11580156131ff573d6000803e3d6000fd5b5050505060006133ad83600260009054906101000a900473ffffffffffffffffffffffffffffffffffffffff1673ffffffffffffffffffffffffffffffffffffffff166308acb5566040518060400160405280600c81526020017f4b697474696548656c6c4442000000000000000000000000000000000000000081525060405160200180807f746f74616c4b5459734c6f636b6564496e4b697474696548656c6c0000000000815250601b019050604051602081830303815290604052805190602001206040518363ffffffff1660e01b81526004018080602001838152602001828103825284818151815260200191508051906020019080838360005b838110156133195780820151818401526020810190506132fe565b50505050905090810190601f1680156133465780820380516001836020036101000a031916815260200191505b50935050505060206040518083038186803b15801561336457600080fd5b505afa158015613378573d6000803e3d6000fd5b505050506040513d602081101561338e57600080fd5b810190808051906020019092919050505061448e90919063ffffffff16565b9050600260009054906101000a900473ffffffffffffffffffffffffffffffffffffffff1673ffffffffffffffffffffffffffffffffffffffff16630214a37c6040518060400160405280600c81526020017f4b697474696548656c6c4442000000000000000000000000000000000000000081525060405160200180807f746f74616c4b5459734c6f636b6564496e4b697474696548656c6c0000000000815250601b01905060405160208183030381529060405280519060200120846040518463ffffffff1660e01b81526004018080602001848152602001838152602001828103825285818151815260200191508051906020019080838360005b838110156134c65780820151818401526020810190506134ab565b50505050905090810190601f1680156134f35780820380516001836020036101000a031916815260200191505b50945050505050600060405180830381600087803b15801561351457600080fd5b505af1158015613528573d6000803e3d6000fd5b5050505050505050565b6040518060400160405280600a81526020017f4b697474696548656c6c000000000000000000000000000000000000000000008152506135718161472a565b3073ffffffffffffffffffffffffffffffffffffffff16600160009054906101000a900473ffffffffffffffffffffffffffffffffffffffff1673ffffffffffffffffffffffffffffffffffffffff1663358177736040518060400160405280600d81526020017f43727970746f4b697474696573000000000000000000000000000000000000008152506040518263ffffffff1660e01b81526004018080602001828103825283818151815260200191508051906020019080838360005b8381101561364b578082015181840152602081019050613630565b50505050905090810190601f1680156136785780820380516001836020036101000a031916815260200191505b509250505060206040518083038186803b15801561369557600080fd5b505afa1580156136a9573d6000803e3d6000fd5b505050506040513d60208110156136bf57600080fd5b810190808051906020019092919050505073ffffffffffffffffffffffffffffffffffffffff16636352211e856040518263ffffffff1660e01b81526004018082815260200191505060206040518083038186803b15801561372057600080fd5b505afa158015613734573d6000803e3d6000fd5b505050506040513d602081101561374a57600080fd5b810190808051906020019092919050505073ffffffffffffffffffffffffffffffffffffffff161461377b57600080fd5b6000613798600161378a612b83565b61448e90919063ffffffff16565b90506137a3816144aa565b600260009054906101000a900473ffffffffffffffffffffffffffffffffffffffff1673ffffffffffffffffffffffffffffffffffffffff16630214a37c6040518060400160405280600c81526020017f4b697474696548656c6c444200000000000000000000000000000000000000008152508360405160200180828152602001807f6b6974746965496400000000000000000000000000000000000000000000000081525060080191505060405160208183030381529060405280519060200120876040518463ffffffff1660e01b81526004018080602001848152602001838152602001828103825285818151815260200191508051906020019080838360005b838110156138c25780820151818401526020810190506138a7565b50505050905090810190601f1680156138ef5780820380516001836020036101000a031916815260200191505b50945050505050600060405180830381600087803b15801561391057600080fd5b505af1158015613924573d6000803e3d6000fd5b50505050600260009054906101000a900473ffffffffffffffffffffffffffffffffffffffff1673ffffffffffffffffffffffffffffffffffffffff1663866d59fe6040518060400160405280600c81526020017f4b697474696548656c6c444200000000000000000000000000000000000000008152508360405160200180828152602001807f6f776e657200000000000000000000000000000000000000000000000000000081525060050191505060405160208183030381529060405280519060200120866040518463ffffffff1660e01b815260040180806020018481526020018373ffffffffffffffffffffffffffffffffffffffff1673ffffffffffffffffffffffffffffffffffffffff168152602001828103825285818151815260200191508051906020019080838360005b83811015613a73578082015181840152602081019050613a58565b50505050905090810190601f168015613aa05780820380516001836020036101000a031916815260200191505b50945050505050600060405180830381600087803b158015613ac157600080fd5b505af1158015613ad5573d6000803e3d6000fd5b50505050600260009054906101000a900473ffffffffffffffffffffffffffffffffffffffff1673ffffffffffffffffffffffffffffffffffffffff1663cb30ffe76040518060400160405280600c81526020017f4b697474696548656c6c444200000000000000000000000000000000000000008152508360405160200180828152602001807f7265706c6163656d656e744b69747469650000000000000000000000000000008152506011019150506040516020818303038152906040528051906020012060006040518463ffffffff1660e01b8152600401808060200184815260200183151515158152602001828103825285818151815260200191508051906020019080838360005b83811015613bfd578082015181840152602081019050613be2565b50505050905090810190601f168015613c2a5780820380516001836020036101000a031916815260200191505b50945050505050600060405180830381600087803b158015613c4b57600080fd5b505af1158015613c5f573d6000803e3d6000fd5b50505050600260009054906101000a900473ffffffffffffffffffffffffffffffffffffffff1673ffffffffffffffffffffffffffffffffffffffff16630214a37c6040518060400160405280600c81526020017f4b697474696548656c6c444200000000000000000000000000000000000000008152508360405160200180828152602001807f7265706c6163656d6574466f7200000000000000000000000000000000000000815250600d019150506040516020818303038152906040528051906020012060006040518463ffffffff1660e01b81526004018080602001848152602001838152602001828103825285818151815260200191508051906020019080838360005b83811015613d83578082015181840152602081019050613d68565b50505050905090810190601f168015613db05780820380516001836020036101000a031916815260200191505b50945050505050600060405180830381600087803b158015613dd157600080fd5b505af1158015613de5573d6000803e3d6000fd5b50505050600260009054906101000a900473ffffffffffffffffffffffffffffffffffffffff1673ffffffffffffffffffffffffffffffffffffffff16630214a37c6040518060400160405280600c81526020017f4b697474696548656c6c444200000000000000000000000000000000000000008152508660405160200180828152602001807f67686f737449440000000000000000000000000000000000000000000000000081525060070191505060405160208183030381529060405280519060200120846040518463ffffffff1660e01b81526004018080602001848152602001838152602001828103825285818151815260200191508051906020019080838360005b83811015613f08578082015181840152602081019050613eed565b50505050905090810190601f168015613f355780820380516001836020036101000a031916815260200191505b50945050505050600060405180830381600087803b158015613f5657600080fd5b505af1158015613f6a573d6000803e3d6000fd5b505050506000600260009054906101000a900473ffffffffffffffffffffffffffffffffffffffff1673ffffffffffffffffffffffffffffffffffffffff166308acb5566040518060400160405280600c81526020017f4b697474696548656c6c4442000000000000000000000000000000000000000081525060405160200180807f746f74616c4e756d6265724f664b6974746965730000000000000000000000008152506014019050604051602081830303815290604052805190602001206040518363ffffffff1660e01b81526004018080602001838152602001828103825284818151815260200191508051906020019080838360005b83811015614080578082015181840152602081019050614065565b50505050905090810190601f1680156140ad5780820380516001836020036101000a031916815260200191505b50935050505060206040518083038186803b1580156140cb57600080fd5b505afa1580156140df573d6000803e3d6000fd5b505050506040513d60208110156140f557600080fd5b81019080805190602001909291905050509050600260009054906101000a900473ffffffffffffffffffffffffffffffffffffffff1673ffffffffffffffffffffffffffffffffffffffff16630214a37c6040518060400160405280600c81526020017f4b697474696548656c6c4442000000000000000000000000000000000000000081525060405160200180807f746f74616c4e756d6265724f664b6974746965730000000000000000000000008152506014019050604051602081830303815290604052805190602001206141d760018661448e90919063ffffffff16565b6040518463ffffffff1660e01b81526004018080602001848152602001838152602001828103825285818151815260200191508051906020019080838360005b83811015614232578082015181840152602081019050614217565b50505050905090810190601f16801561425f5780820380516001836020036101000a031916815260200191505b50945050505050600060405180830381600087803b15801561428057600080fd5b505af1158015614294573d6000803e3d6000fd5b5050505081857f168a8b08a9a164dafbfd19c327bbbd4702d179d98c7d5be17a18101e3ff1bec086604051808273ffffffffffffffffffffffffffffffffffffffff1673ffffffffffffffffffffffffffffffffffffffff16815260200191505060405180910390a35050505050565b600073ffffffffffffffffffffffffffffffffffffffff16600160009054906101000a900473ffffffffffffffffffffffffffffffffffffffff1673ffffffffffffffffffffffffffffffffffffffff1614156143c9576040517f08c379a00000000000000000000000000000000000000000000000000000000081526004018080602001828103825260088152602001807f4e6f2050726f787900000000000000000000000000000000000000000000000081525060200191505060405180910390fd5b600160009054906101000a900473ffffffffffffffffffffffffffffffffffffffff1673ffffffffffffffffffffffffffffffffffffffff163373ffffffffffffffffffffffffffffffffffffffff161461448c576040517f08c379a00000000000000000000000000000000000000000000000000000000081526004018080602001828103825260128152602001807f4f6e6c79207468726f7567682050726f7879000000000000000000000000000081525060200191505060405180910390fd5b565b6000808284019050838110156144a057fe5b8091505092915050565b600260009054906101000a900473ffffffffffffffffffffffffffffffffffffffff1673ffffffffffffffffffffffffffffffffffffffff166387d533626040518060400160405280600c81526020017f4b697474696548656c6c4442000000000000000000000000000000000000000081525060405160200180807f4b697474696548656c6c5461626c650000000000000000000000000000000000815250600f01905060405160208183030381529060405280519060200120846040518463ffffffff1660e01b81526004018080602001848152602001838152602001828103825285818151815260200191508051906020019080838360005b838110156145c15780820151818401526020810190506145a6565b50505050905090810190601f1680156145ee5780820380516001836020036101000a031916815260200191505b50945050505050602060405180830381600087803b15801561460f57600080fd5b505af1158015614623573d6000803e3d6000fd5b505050506040513d602081101561463957600080fd5b81019080805190602001909291905050506040518060400160405280601c81526020017f47686f737420616c72656164792065786973747320696e2048656c6c0000000081525090614726576040517f08c379a00000000000000000000000000000000000000000000000000000000081526004018080602001828103825283818151815260200191508051906020019080838360005b838110156146eb5780820151818401526020810190506146d0565b50505050905090810190601f1680156147185780820380516001836020036101000a031916815260200191505b509250505060405180910390fd5b5050565b600073ffffffffffffffffffffffffffffffffffffffff16600160009054906101000a900473ffffffffffffffffffffffffffffffffffffffff1673ffffffffffffffffffffffffffffffffffffffff1614156147ef576040517f08c379a00000000000000000000000000000000000000000000000000000000081526004018080602001828103825260088152602001807f4e6f2050726f787900000000000000000000000000000000000000000000000081525060200191505060405180910390fd5b6000600160009054906101000a900473ffffffffffffffffffffffffffffffffffffffff1673ffffffffffffffffffffffffffffffffffffffff166335817773836040518263ffffffff1660e01b81526004018080602001828103825283818151815260200191508051906020019080838360005b8381101561487f578082015181840152602081019050614864565b50505050905090810190601f1680156148ac5780820380516001836020036101000a031916815260200191505b509250505060206040518083038186803b1580156148c957600080fd5b505afa1580156148dd573d6000803e3d6000fd5b505050506040513d60208110156148f357600080fd5b81019080805190602001909291905050509050600073ffffffffffffffffffffffffffffffffffffffff168173ffffffffffffffffffffffffffffffffffffffff16141561493d57fe5b8073ffffffffffffffffffffffffffffffffffffffff163373ffffffffffffffffffffffffffffffffffffffff16146149c1576040517f08c379a000000000000000000000000000000000000000000000000000000000815260040180806020018281038252602d8152602001806149c6602d913960400191505060405180910390fd5b505056fe416363657373206973206f6e6c7920616c6c6f7765642066726f6d20737065636966696320636f6e7472616374a265627a7a723158208467dfdf812a18d066315f6baf48cb75b4f82ca1a214eb764e33a94a1ec5cd2364736f6c634300050d0032",
  "source": "/**\n * @title kittiehellDB\n *\n * @author @kittieFIGHT @ola\n *\n */\n//modifier class (DSAuth )\n//Event class ( DSNote )\n//\n// This program is free software: you can redistribute it and/or modify\n// it under the terms of the GNU General Public License as published by\n// the Free Software Foundation, either version 3 of the License, or\n// (at your option) any later version.\n\n// This program is distributed in the hope that it will be useful,\n// but WITHOUT ANY WARRANTY; without even the implied warranty of\n// MERCHANTABILITY or FITNESS FOR A PARTICULAR PURPOSE.  See the\n// GNU General Public License for more details.\n\n// You should have received a copy of the GNU General Public License\n// along with this program.  If not, see <http://www.gnu.org/licenses/>.\npragma solidity ^0.5.5;\n\nimport \"../proxy/Proxied.sol\";\nimport \"../../authority/Guard.sol\";\nimport \"./GenericDB.sol\";\nimport \"../../libs/SafeMath.sol\";\nimport \"../../interfaces/ERC721.sol\";\nimport \"../kittieHELL/KittieHell.sol\";\n\n/**\n * @title KittieHellDB\n * @author @kittieFIGHT @ziweidream\n */\n\ncontract KittieHellDB is Proxied, Guard {\n    using SafeMath for uint256;\n\n    GenericDB public genericDB;\n    KittieHell public kittieHELL;\n\n    bytes32 internal constant TABLE_KEY_KITTIEHELL = keccak256(abi.encodePacked(\"KittieHellTable\"));\n    string internal constant ERROR_ALREADY_EXIST = \"Ghost already exists in Hell\";\n    string internal constant ERROR_DOES_NOT_EXIST = \"Ghost not exists\";\n\n    constructor(GenericDB _genericDB) public {\n      setGenericDB(_genericDB);\n    }\n\n    function setGenericDB(GenericDB _genericDB) public onlyOwner {\n      genericDB = GenericDB(_genericDB);\n   }\n\n    function setKittieHELL() public onlyOwner {\n      kittieHELL = KittieHell(proxy.getContract(CONTRACT_NAME_KITTIEHELL));\n    }\n\n  /**\n   * @author @ziweidream\n   * @param _id the node id\n   * @return true if the node _id exists\n   */\n  function doesGhostExist(uint256 _id) public view returns (bool) {\n    return genericDB.doesNodeExist(CONTRACT_NAME_KITTIEHELL_DB, TABLE_KEY_KITTIEHELL, _id);\n  }\n\n  /**\n   * @author @ziweidream\n   * @dev Add the node _id to GhostsList\n   * @param _id the node id\n   */\n  function fallToHell(uint256 _id)\n    internal\n  {\n    require(genericDB.pushNodeToLinkedList(CONTRACT_NAME_KITTIEHELL_DB, TABLE_KEY_KITTIEHELL, _id), ERROR_ALREADY_EXIST);\n  }\n\n  /**\n   * @author @ziweidream\n   * @dev This function can only be carried out via kittieHELL contract\n   * @dev Add the node _id of a loser kittie to GhostsList\n   * @param _kittieID the kittieID of the loser kittie who lost a game\n   * @param _owner the owner of the loser kittie\n   */\n  function loserKittieToHell\n  (\n    uint256 _kittieID,\n    address _owner\n  )\n    public\n    onlyContract(CONTRACT_NAME_KITTIEHELL)\n  {\n    require(ERC721(proxy.getContract(CONTRACT_NAME_CRYPTOKITTIES)).ownerOf(_kittieID) == address(this));\n    uint256 _id = getLastGhostId().add(1);\n    fallToHell(_id);\n    genericDB.setUintStorage(CONTRACT_NAME_KITTIEHELL_DB, keccak256(abi.encodePacked(_id, \"kittieId\")), _kittieID);\n    genericDB.setAddressStorage(CONTRACT_NAME_KITTIEHELL_DB, keccak256(abi.encodePacked(_id, \"owner\")), _owner);\n    genericDB.setBoolStorage(CONTRACT_NAME_KITTIEHELL_DB, keccak256(abi.encodePacked(_id, \"replacementKittie\")), false);\n    genericDB.setUintStorage(CONTRACT_NAME_KITTIEHELL_DB, keccak256(abi.encodePacked(_id, \"replacemetFor\")), 0);\n    genericDB.setUintStorage(CONTRACT_NAME_KITTIEHELL_DB, keccak256(abi.encodePacked(_kittieID, \"ghostID\")), _id);\n    uint256 totalNumberOfKitties = genericDB.getUintStorage(CONTRACT_NAME_KITTIEHELL_DB, keccak256(abi.encodePacked(\"totalNumberOfKitties\")));\n    genericDB.setUintStorage(CONTRACT_NAME_KITTIEHELL_DB, keccak256(abi.encodePacked(\"totalNumberOfKitties\")), totalNumberOfKitties.add(1));\n\n    emit AddedToKittieHellDB(_kittieID, _owner, _id);\n  }\n\n  /**\n   * @author @ziweidream\n   * @param _id the node id of the ghost\n   * @return its kittyID, its original owner, whether it is a replacement kittie,\n   *         the loser kitty for which it is a replacement kittie(0 if this ghost is a loser kittie itself)\n   */\n  function getGhostAttributes(uint256 _id) public view returns (uint256, address, bool, uint256) {\n    uint256 _kittyID = genericDB.getUintStorage(CONTRACT_NAME_KITTIEHELL_DB, keccak256(abi.encodePacked(_id, \"kittieId\")));\n    address _owner = genericDB.getAddressStorage(CONTRACT_NAME_KITTIEHELL_DB, keccak256(abi.encodePacked(_id, \"owner\")));\n    bool _isReplacementKittie = genericDB.getBoolStorage(CONTRACT_NAME_KITTIEHELL_DB, keccak256(abi.encodePacked(_id, \"replacementKittie\")));\n    uint256 _replacementFor = genericDB.getUintStorage(CONTRACT_NAME_KITTIEHELL_DB, keccak256(abi.encodePacked(_id, \"replacemetFor\")));\n\n    return (_kittyID, _owner, _isReplacementKittie, _replacementFor);\n  }\n\n  /**\n   * @author @ziweidream\n   * @return the node id of the last node\n   */\n  function getLastGhostId() public view returns(uint256){\n        (/*bool found*/, uint256 id) = genericDB.getAdjacent(CONTRACT_NAME_KITTIEHELL_DB, TABLE_KEY_KITTIEHELL, 0, true);\n        return id;\n  }\n\n  /**\n   * @author @ziweidream\n   * @dev This function can only be carried out via proxy\n   * @dev Add the node _id of a replacement kittie to GhostsList\n   * @param _kittieID the kittieID of the loser kittie who lost a game\n   * @param _owner the owner of the loser kittie\n   * @param _kittieReplacement the kittieID of the replacement kittie for redeeming the loser kittie\n   */\n  function kittieReplacementToHell(uint256 _kittieID, address _owner, uint256 _kittieReplacement)\n      public\n      onlyProxy\n  {\n    require(ERC721(proxy.getContract(CONTRACT_NAME_CRYPTOKITTIES)).ownerOf(_kittieReplacement) == _owner);\n    ERC721(proxy.getContract(CONTRACT_NAME_CRYPTOKITTIES)).transferFrom(_owner, address(this), _kittieReplacement);\n    require(ERC721(proxy.getContract(CONTRACT_NAME_CRYPTOKITTIES)).ownerOf(_kittieReplacement) == address(this));\n    uint256 _id = getLastGhostId().add(1);\n    fallToHell(_id);\n    genericDB.setUintStorage(CONTRACT_NAME_KITTIEHELL_DB, keccak256(abi.encodePacked(_id, \"kittieId\")), _kittieReplacement);\n    genericDB.setAddressStorage(CONTRACT_NAME_KITTIEHELL_DB, keccak256(abi.encodePacked(_id, \"owner\")), _owner);\n    genericDB.setBoolStorage(CONTRACT_NAME_KITTIEHELL_DB, keccak256(abi.encodePacked(_id, \"replacementKittie\")), true);\n    genericDB.setUintStorage(CONTRACT_NAME_KITTIEHELL_DB, keccak256(abi.encodePacked(_id, \"replacemetFor\")), _kittieID);\n    genericDB.setUintStorage(CONTRACT_NAME_KITTIEHELL_DB, keccak256(abi.encodePacked(_kittieReplacement, \"ghostID\")), _id);\n    uint256 numberOfReplacementKitties = genericDB.getUintStorage(\n      CONTRACT_NAME_KITTIEHELL_DB,\n      keccak256(abi.encodePacked(_kittieID, \"numberOfReplacementKitties\"))).add(1);\n    genericDB.setUintStorage(\n      CONTRACT_NAME_KITTIEHELL_DB,\n      keccak256(abi.encodePacked(_kittieID, \"numberOfReplacementKitties\")),\n      numberOfReplacementKitties);\n    uint256 totalNumberOfKitties = genericDB.getUintStorage(CONTRACT_NAME_KITTIEHELL_DB, keccak256(abi.encodePacked(\"totalNumberOfKitties\")));\n    genericDB.setUintStorage(CONTRACT_NAME_KITTIEHELL_DB, keccak256(abi.encodePacked(\"totalNumberOfKitties\")), totalNumberOfKitties.add(1));\n    emit AddedToKittieHellDB(_kittieReplacement, _owner, _id);\n  }\n\n  /**\n   * @author @ziweidream\n   * @param _kittieID the kittieID of the loser kittie\n   * @return the number of replacement kitties already in HELL for this loser kittie\n   */\n  function getNumberOfReplacementKitties(uint256 _kittieID) public view returns(uint256) {\n    return genericDB.getUintStorage(\n      CONTRACT_NAME_KITTIEHELL_DB,\n      keccak256(abi.encodePacked(_kittieID, \"numberOfReplacementKitties\")));\n  }\n\n  /**\n   * @author @ziweidream\n   * @dev This function can only be carried out via kittieHELL contract\n   * @dev record the KTY amount locked in kittieHELL contract\n   * @param _kittieID the kittieID of the loser kittie who lost a game\n   * @param _kty_amount the redemption fee locked in kittieHELL contract\n   *                    for redeeming the loser kittie\n   */\n  function lockKTYsInKittieHell(uint256 _kittieID, uint256 _kty_amount)\n      public\n      onlyContract(CONTRACT_NAME_KITTIEHELL)\n  {\n    genericDB.setUintStorage(\n      CONTRACT_NAME_KITTIEHELL_DB,\n      keccak256(abi.encodePacked(_kittieID, \"redemptionFeeKTY\")),\n      _kty_amount\n    );\n    uint totalKTYsLockedInKittieHell = genericDB.getUintStorage(\n      CONTRACT_NAME_KITTIEHELL_DB,\n      keccak256(abi.encodePacked(\"totalKTYsLockedInKittieHell\"))\n    ).add(_kty_amount);\n    genericDB.setUintStorage(\n      CONTRACT_NAME_KITTIEHELL_DB,\n      keccak256(abi.encodePacked(\"totalKTYsLockedInKittieHell\")),\n      totalKTYsLockedInKittieHell\n    );\n  }\n\n  /**\n   * @author @ziweidream\n   * @return the total amount of KTYs locked in kittieHELL contract\n   */\n  function getTotalKTYsLockedInKittieHell() public view returns(uint256) {\n    return genericDB.getUintStorage(\n      CONTRACT_NAME_KITTIEHELL_DB,\n      keccak256(abi.encodePacked(\"totalKTYsLockedInKittieHell\"))\n    );\n  }\n\n  /**\n   * @author @ziweidream\n   * @return the total number of kittie ghosts permanently locked in HELL\n   */\n  function getTotalNumberOfGhostsInHell() public view returns(uint256) {\n    return genericDB.getUintStorage(\n      CONTRACT_NAME_KITTIEHELL_DB,\n      keccak256(abi.encodePacked(\"totalNumberOfKitties\"))\n    );\n  }\n\n  /**\n   * @author @ziweidream\n   * @param _kittieID the kittieID of the kittie\n   * @return node id of the kittie (if the kittie is not a ghost, it returns 0)\n   */\n  function getGhostIdForKittie(uint256 _kittieID) public view returns(uint256) {\n    return genericDB.getUintStorage(\n      CONTRACT_NAME_KITTIEHELL_DB,\n      keccak256(abi.encodePacked(_kittieID, \"ghostID\")));\n  }\n\n  /**\n   * @author @ziweidream\n   * @param _kittieID the kittieID of the kittie\n   * @return true if the kittie is a permanent ghost, false if the kittie is not permanently dead\n   */\n  function isKittieGhost(uint256 _kittieID) public view returns(bool) {\n    uint256 _id = getGhostIdForKittie(_kittieID);\n    if (_id == 0) {\n      return false;\n    }\n    if(doesGhostExist(_id)) {\n      return true;\n    }\n    return false;\n  }\n\n  event AddedToKittieHellDB(uint256 indexed kittyID, address _owner, uint256 indexed _id);\n}\n\n",
  "sourcePath": "/Users/ziweizhang/Desktop/kittieFight-mainnet/alpha/contracts/modules/databases/KittieHellDB.sol",
  "compiler": {
    "name": "solc",
    "version": "0.5.13+commit.5b0b510c.Emscripten.clang"
  },
  "schemaVersion": "3.0.11",
  "updatedAt": "2019-11-24T23:38:11.054Z",
  "devdoc": {
    "author": "@kittieFIGHT @ziweidream",
    "methods": {
      "doesGhostExist(uint256)": {
        "author": "@ziweidream",
        "params": {
          "_id": "the node id"
        },
        "return": "true if the node _id exists"
      },
      "getGhostAttributes(uint256)": {
        "author": "@ziweidream",
        "params": {
          "_id": "the node id of the ghost"
        },
        "return": "its kittyID, its original owner, whether it is a replacement kittie,        the loser kitty for which it is a replacement kittie(0 if this ghost is a loser kittie itself)"
      },
      "getGhostIdForKittie(uint256)": {
        "author": "@ziweidream",
        "params": {
          "_kittieID": "the kittieID of the kittie"
        },
        "return": "node id of the kittie (if the kittie is not a ghost, it returns 0)"
      },
      "getLastGhostId()": {
        "author": "@ziweidream",
        "return": "the node id of the last node"
      },
      "getNumberOfReplacementKitties(uint256)": {
        "author": "@ziweidream",
        "params": {
          "_kittieID": "the kittieID of the loser kittie"
        },
        "return": "the number of replacement kitties already in HELL for this loser kittie"
      },
      "getTotalKTYsLockedInKittieHell()": {
        "author": "@ziweidream",
        "return": "the total amount of KTYs locked in kittieHELL contract"
      },
      "getTotalNumberOfGhostsInHell()": {
        "author": "@ziweidream",
        "return": "the total number of kittie ghosts permanently locked in HELL"
      },
      "isKittieGhost(uint256)": {
        "author": "@ziweidream",
        "params": {
          "_kittieID": "the kittieID of the kittie"
        },
        "return": "true if the kittie is a permanent ghost, false if the kittie is not permanently dead"
      },
      "kittieReplacementToHell(uint256,address,uint256)": {
        "author": "@ziweidream",
        "details": "This function can only be carried out via proxyAdd the node _id of a replacement kittie to GhostsList",
        "params": {
          "_kittieID": "the kittieID of the loser kittie who lost a game",
          "_kittieReplacement": "the kittieID of the replacement kittie for redeeming the loser kittie",
          "_owner": "the owner of the loser kittie"
        }
      },
      "lockKTYsInKittieHell(uint256,uint256)": {
        "author": "@ziweidream",
        "details": "This function can only be carried out via kittieHELL contractrecord the KTY amount locked in kittieHELL contract",
        "params": {
          "_kittieID": "the kittieID of the loser kittie who lost a game",
          "_kty_amount": "the redemption fee locked in kittieHELL contract                   for redeeming the loser kittie"
        }
      },
      "loserKittieToHell(uint256,address)": {
        "author": "@ziweidream",
        "details": "This function can only be carried out via kittieHELL contractAdd the node _id of a loser kittie to GhostsList",
        "params": {
          "_kittieID": "the kittieID of the loser kittie who lost a game",
          "_owner": "the owner of the loser kittie"
        }
      }
    },
    "title": "KittieHellDB"
  },
  "userdoc": {
    "methods": {
      "setProxy(address)": {
        "notice": "Set/update address of Proxy contract"
      }
    }
  }
}