{
  "contractName": "KittieFIGHTToken",
  "abi": [
    {
      "constant": true,
      "inputs": [],
      "name": "name",
      "outputs": [
        {
          "name": "",
          "type": "string"
        }
      ],
      "payable": false,
      "stateMutability": "view",
      "type": "function"
    },
    {
      "constant": true,
      "inputs": [],
      "name": "totalSupply",
      "outputs": [
        {
          "name": "",
          "type": "uint256"
        }
      ],
      "payable": false,
      "stateMutability": "view",
      "type": "function"
    },
    {
      "constant": true,
      "inputs": [
        {
          "name": "",
          "type": "address"
        }
      ],
      "name": "balances",
      "outputs": [
        {
          "name": "",
          "type": "uint256"
        }
      ],
      "payable": false,
      "stateMutability": "view",
      "type": "function"
    },
    {
      "constant": true,
      "inputs": [],
      "name": "founder",
      "outputs": [
        {
          "name": "",
          "type": "address"
        }
      ],
      "payable": false,
      "stateMutability": "view",
      "type": "function"
    },
    {
      "constant": true,
      "inputs": [],
      "name": "symbol",
      "outputs": [
        {
          "name": "",
          "type": "string"
        }
      ],
      "payable": false,
      "stateMutability": "view",
      "type": "function"
    },
    {
      "inputs": [],
      "payable": true,
      "stateMutability": "payable",
      "type": "constructor"
    },
    {
      "constant": false,
      "inputs": [
        {
          "name": "_from",
          "type": "address"
        },
        {
          "name": "_to",
          "type": "address"
        },
        {
          "name": "_tokens",
          "type": "uint256"
        }
      ],
      "name": "transferFrom",
      "outputs": [
        {
          "name": "",
          "type": "bool"
        }
      ],
      "payable": true,
      "stateMutability": "payable",
      "type": "function"
    }
  ],
  "bytecode": "0x60806040526040518060400160405280601281526020017f4b697474696520466967687420546f6b656e00000000000000000000000000008152506000908051906020019061004f929190610159565b506040518060400160405280600381526020017f4b545900000000000000000000000000000000000000000000000000000000008152506001908051906020019061009b929190610159565b50670de0b6b3a764000060038190555033600260006101000a81548173ffffffffffffffffffffffffffffffffffffffff021916908373ffffffffffffffffffffffffffffffffffffffff16021790555060035460046000600260009054906101000a900473ffffffffffffffffffffffffffffffffffffffff1673ffffffffffffffffffffffffffffffffffffffff1673ffffffffffffffffffffffffffffffffffffffff168152602001908152602001600020819055506101fe565b828054600181600116156101000203166002900490600052602060002090601f016020900481019282601f1061019a57805160ff19168380011785556101c8565b828001600101855582156101c8579182015b828111156101c75782518255916020019190600101906101ac565b5b5090506101d591906101d9565b5090565b6101fb91905b808211156101f75760008160009055506001016101df565b5090565b90565b61058f8061020d6000396000f3fe6080604052600436106100555760003560e01c806306fdde031461005a57806318160ddd146100ea57806323b872dd1461011557806327e235e31461019b5780634d853ee51461020057806395d89b4114610257575b600080fd5b34801561006657600080fd5b5061006f6102e7565b6040518080602001828103825283818151815260200191508051906020019080838360005b838110156100af578082015181840152602081019050610094565b50505050905090810190601f1680156100dc5780820380516001836020036101000a031916815260200191505b509250505060405180910390f35b3480156100f657600080fd5b506100ff610385565b6040518082815260200191505060405180910390f35b6101816004803603606081101561012b57600080fd5b81019080803573ffffffffffffffffffffffffffffffffffffffff169060200190929190803573ffffffffffffffffffffffffffffffffffffffff1690602001909291908035906020019092919050505061038b565b604051808215151515815260200191505060405180910390f35b3480156101a757600080fd5b506101ea600480360360208110156101be57600080fd5b81019080803573ffffffffffffffffffffffffffffffffffffffff16906020019092919050505061047e565b6040518082815260200191505060405180910390f35b34801561020c57600080fd5b50610215610496565b604051808273ffffffffffffffffffffffffffffffffffffffff1673ffffffffffffffffffffffffffffffffffffffff16815260200191505060405180910390f35b34801561026357600080fd5b5061026c6104bc565b6040518080602001828103825283818151815260200191508051906020019080838360005b838110156102ac578082015181840152602081019050610291565b50505050905090810190601f1680156102d95780820380516001836020036101000a031916815260200191505b509250505060405180910390f35b60008054600181600116156101000203166002900480601f01602080910402602001604051908101604052809291908181526020018280546001816001161561010002031660029004801561037d5780601f106103525761010080835404028352916020019161037d565b820191906000526020600020905b81548152906001019060200180831161036057829003601f168201915b505050505081565b60035481565b600081600460008673ffffffffffffffffffffffffffffffffffffffff1673ffffffffffffffffffffffffffffffffffffffff1681526020019081526020016000205410156103d957600080fd5b81600460008673ffffffffffffffffffffffffffffffffffffffff1673ffffffffffffffffffffffffffffffffffffffff1681526020019081526020016000206000828254039250508190555081600460008573ffffffffffffffffffffffffffffffffffffffff1673ffffffffffffffffffffffffffffffffffffffff16815260200190815260200160002060008282540192505081905550600190509392505050565b60046020528060005260406000206000915090505481565b600260009054906101000a900473ffffffffffffffffffffffffffffffffffffffff1681565b60018054600181600116156101000203166002900480601f0160208091040260200160405190810160405280929190818152602001828054600181600116156101000203166002900480156105525780601f1061052757610100808354040283529160200191610552565b820191906000526020600020905b81548152906001019060200180831161053557829003601f168201915b50505050508156fea265627a7a723058202da3f757f047ac7734e160b2b89b57a89865e7054e12613a35d1bd027ea4d2af64736f6c634300050a0032",
  "source": "pragma solidity >=0.5.0 <0.6.0;\n\n/// @title A dummy token\n/// @author A dummy\n/// @dev A dummy token for testing purposes.\n\ncontract KittieFIGHTToken {\n    string public name = \"Kittie Fight Token\";\n    string public symbol = \"KTY\";\n    address public founder;\n    uint public totalSupply;\n      \n    mapping(address => uint) public balances;\n\n    constructor() public payable {\n        totalSupply = 1e18;\n        founder = msg.sender;\n        balances[founder] = totalSupply;\n    }\n\n    function transferFrom(address _from, address _to, uint _tokens) public payable returns(bool){\n       // require(allowed[_from][_to] >= _tokens);\n        require(balances[_from] >= _tokens);\n        \n        balances[_from] -= _tokens;\n        balances[_to] += _tokens;\n        \n        \n        //allowed[_from][_to] -= _tokens;\n        \n        return true;\n    }\n\n\n}\n",
  "sourcePath": "/home/ziwei/Documents/kittieFight-new/algorithm/alpha/contracts/modules/kittieHELL/KittieFIGHTToken.sol",
  "compiler": {
    "name": "solc",
    "version": "0.5.10+commit.5a6ea5b1.Emscripten.clang"
  },
  "schemaVersion": "3.0.11",
  "updatedAt": "2019-08-03T18:50:23.190Z",
  "devdoc": {
    "author": "A dummy",
    "details": "A dummy token for testing purposes.",
    "methods": {},
    "title": "A dummy token"
  },
  "userdoc": {
    "methods": {}
  }
}