{
  "contractName": "KittiesCattributesDB",
  "abi": [
    {
      "constant": true,
      "inputs": [
        {
          "internalType": "string",
          "name": "",
          "type": "string"
        },
        {
          "internalType": "bytes1",
          "name": "",
          "type": "bytes1"
        }
      ],
      "name": "cattributes",
      "outputs": [
        {
          "internalType": "string",
          "name": "",
          "type": "string"
        }
      ],
      "payable": false,
      "stateMutability": "view",
      "type": "function"
    },
    {
      "constant": false,
      "inputs": [],
      "name": "fillKaiValue",
      "outputs": [],
      "payable": false,
      "stateMutability": "nonpayable",
      "type": "function"
    },
    {
      "constant": true,
      "inputs": [
        {
          "internalType": "string",
          "name": "",
          "type": "string"
        }
      ],
      "name": "kaiValue",
      "outputs": [
        {
          "internalType": "bytes1",
          "name": "",
          "type": "bytes1"
        }
      ],
      "payable": false,
      "stateMutability": "view",
      "type": "function"
    },
    {
      "constant": true,
      "inputs": [
        {
          "internalType": "uint256",
          "name": "",
          "type": "uint256"
        },
        {
          "internalType": "uint256",
          "name": "",
          "type": "uint256"
        }
      ],
      "name": "kittiesDominantCattributes",
      "outputs": [
        {
          "internalType": "string",
          "name": "",
          "type": "string"
        }
      ],
      "payable": false,
      "stateMutability": "view",
      "type": "function"
    },
    {
      "constant": true,
      "inputs": [
        {
          "internalType": "uint256",
          "name": "",
          "type": "uint256"
        },
        {
          "internalType": "uint256",
          "name": "",
          "type": "uint256"
        }
      ],
      "name": "kittiesDominantGeneBinary",
      "outputs": [
        {
          "internalType": "string",
          "name": "",
          "type": "string"
        }
      ],
      "payable": false,
      "stateMutability": "view",
      "type": "function"
    },
    {
      "constant": true,
      "inputs": [
        {
          "internalType": "uint256",
          "name": "",
          "type": "uint256"
        },
        {
          "internalType": "uint256",
          "name": "",
          "type": "uint256"
        }
      ],
      "name": "kittiesDominantGeneKai",
      "outputs": [
        {
          "internalType": "bytes1",
          "name": "",
          "type": "bytes1"
        }
      ],
      "payable": false,
      "stateMutability": "view",
      "type": "function"
    },
    {
      "constant": true,
      "inputs": [],
      "name": "owner",
      "outputs": [
        {
          "internalType": "address payable",
          "name": "",
          "type": "address"
        }
      ],
      "payable": false,
      "stateMutability": "view",
      "type": "function"
    },
    {
      "constant": true,
      "inputs": [],
      "name": "proxy",
      "outputs": [
        {
          "internalType": "contract ProxyBase",
          "name": "",
          "type": "address"
        }
      ],
      "payable": false,
      "stateMutability": "view",
      "type": "function"
    },
    {
      "constant": false,
      "inputs": [
        {
          "internalType": "contract ProxyBase",
          "name": "_proxy",
          "type": "address"
        }
      ],
      "name": "setProxy",
      "outputs": [],
      "payable": false,
      "stateMutability": "nonpayable",
      "type": "function"
    },
    {
      "constant": false,
      "inputs": [
        {
          "internalType": "address payable",
          "name": "newOwner",
          "type": "address"
        }
      ],
      "name": "transferOwnership",
      "outputs": [],
      "payable": false,
      "stateMutability": "nonpayable",
      "type": "function"
    },
    {
      "constant": false,
      "inputs": [
        {
          "internalType": "bytes32[]",
          "name": "_cattribute",
          "type": "bytes32[]"
        },
        {
          "internalType": "uint256",
          "name": "_noOfTypes",
          "type": "uint256"
        }
      ],
      "name": "updateCattributes",
      "outputs": [],
      "payable": false,
      "stateMutability": "nonpayable",
      "type": "function"
    },
    {
      "constant": false,
      "inputs": [
        {
          "internalType": "uint256",
          "name": "kittieId",
          "type": "uint256"
        }
      ],
      "name": "kaiToCattribute",
      "outputs": [],
      "payable": false,
      "stateMutability": "nonpayable",
      "type": "function"
    },
    {
      "constant": false,
      "inputs": [
        {
          "internalType": "uint256",
          "name": "kittieId",
          "type": "uint256"
        }
      ],
      "name": "binaryToKai",
      "outputs": [],
      "payable": false,
      "stateMutability": "nonpayable",
      "type": "function"
    },
    {
      "constant": true,
      "inputs": [
        {
          "internalType": "uint256",
          "name": "n",
          "type": "uint256"
        }
      ],
      "name": "toBinaryString",
      "outputs": [
        {
          "internalType": "string",
          "name": "",
          "type": "string"
        }
      ],
      "payable": false,
      "stateMutability": "pure",
      "type": "function"
    },
    {
      "constant": false,
      "inputs": [
        {
          "internalType": "uint256",
          "name": "kittieId",
          "type": "uint256"
        },
        {
          "internalType": "uint256",
          "name": "gene",
          "type": "uint256"
        }
      ],
      "name": "getDominantGeneBinary",
      "outputs": [],
      "payable": false,
      "stateMutability": "nonpayable",
      "type": "function"
    },
    {
      "constant": true,
      "inputs": [
        {
          "internalType": "uint256",
          "name": "begin",
          "type": "uint256"
        },
        {
          "internalType": "uint256",
          "name": "end",
          "type": "uint256"
        },
        {
          "internalType": "string",
          "name": "text",
          "type": "string"
        }
      ],
      "name": "getSlice",
      "outputs": [
        {
          "internalType": "string",
          "name": "",
          "type": "string"
        }
      ],
      "payable": false,
      "stateMutability": "pure",
      "type": "function"
    }
  ],
  "bytecode": "0x6080604052600060035560006004556040518061014001604052806040518060400160405280600481526020017f626f64790000000000000000000000000000000000000000000000000000000081525081526020016040518060400160405280600781526020017f7061747465726e0000000000000000000000000000000000000000000000000081525081526020016040518060400160405280600981526020017f636f6c6f7265796573000000000000000000000000000000000000000000000081525081526020016040518060400160405280600481526020017f657965730000000000000000000000000000000000000000000000000000000081525081526020016040518060400160405280600681526020017f636f6c6f7231000000000000000000000000000000000000000000000000000081525081526020016040518060400160405280600681526020017f636f6c6f7232000000000000000000000000000000000000000000000000000081525081526020016040518060400160405280600681526020017f636f6c6f7233000000000000000000000000000000000000000000000000000081525081526020016040518060400160405280600481526020017f77696c640000000000000000000000000000000000000000000000000000000081525081526020016040518060400160405280600581526020017f6d6f75746800000000000000000000000000000000000000000000000000000081525081526020016040518060400160405280600b81526020017f656e7669726f6e6d656e74000000000000000000000000000000000000000000815250815250600590600a620002789291906200030d565b506040518060400160405280602081526020017f3132333435363738396162636465666768696a6b6d6e6f707172737475767778815250600f9080519060200190620002c692919062000367565b50336000806101000a81548173ffffffffffffffffffffffffffffffffffffffff021916908373ffffffffffffffffffffffffffffffffffffffff1602179055506200051a565b82600a810192821562000354579160200282015b828111156200035357825182908051906020019062000342929190620003ee565b509160200191906001019062000321565b5b50905062000363919062000475565b5090565b828054600181600116156101000203166002900490600052602060002090601f016020900481019282601f10620003aa57805160ff1916838001178555620003db565b82800160010185558215620003db579182015b82811115620003da578251825591602001919060010190620003bd565b5b509050620003ea9190620004a6565b5090565b828054600181600116156101000203166002900490600052602060002090601f016020900481019282601f106200043157805160ff191683800117855562000462565b8280016001018555821562000462579182015b828111156200046157825182559160200191906001019062000444565b5b509050620004719190620004a6565b5090565b620004a391905b808211156200049f5760008181620004959190620004ce565b506001016200047c565b5090565b90565b620004cb91905b80821115620004c7576000816000905550600101620004ad565b5090565b90565b50805460018160011615610100020316600290046000825580601f10620004f6575062000517565b601f016020900490600052602060002090810190620005169190620004a6565b5b50565b61424b806200052a6000396000f3fe608060405234801561001057600080fd5b50600436106101005760003560e01c8063979cfe0811610097578063ec55688911610066578063ec5568891461078d578063f2fde38b146107d7578063f34305041461081b578063f4fb432f1461092e57610100565b8063979cfe0814610614578063a97aaccf146106c5578063bfcfd60b146106f3578063c9f638fc146106fd57610100565b8063789ef429116100d3578063789ef429146104065780637f60b20a1461043e5780638da5cb5b1461058657806397107d6d146105d057610100565b8063022d1c01146101055780630f240ab4146101b65780634ca88dff146103165780635a095f4714610344575b600080fd5b61013b6004803603604081101561011b57600080fd5b8101908080359060200190929190803590602001909291905050506109d5565b6040518080602001828103825283818151815260200191508051906020019080838360005b8381101561017b578082015181840152602081019050610160565b50505050905090810190601f1680156101a85780820380516001836020036101000a031916815260200191505b509250505060405180910390f35b61029b600480360360408110156101cc57600080fd5b81019080803590602001906401000000008111156101e957600080fd5b8201836020820111156101fb57600080fd5b8035906020019184600183028401116401000000008311171561021d57600080fd5b91908080601f016020809104026020016040519081016040528093929190818152602001838380828437600081840152601f19601f82011690508083019250505050505050919291929080357effffffffffffffffffffffffffffffffffffffffffffffffffffffffffffff19169060200190929190505050610a9b565b6040518080602001828103825283818151815260200191508051906020019080838360005b838110156102db5780820151818401526020810190506102c0565b50505050905090810190601f1680156103085780820380516001836020036101000a031916815260200191505b509250505060405180910390f35b6103426004803603602081101561032c57600080fd5b8101908080359060200190929190505050610b6e565b005b6104046004803603604081101561035a57600080fd5b810190808035906020019064010000000081111561037757600080fd5b82018360208201111561038957600080fd5b803590602001918460208302840111640100000000831117156103ab57600080fd5b919080806020026020016040519081016040528093929190818152602001838360200280828437600081840152601f19601f82011690508083019250505050505050919291929080359060200190929190505050611729565b005b61043c6004803603604081101561041c57600080fd5b810190808035906020019092919080359060200190929190505050611a23565b005b61050b6004803603606081101561045457600080fd5b8101908080359060200190929190803590602001909291908035906020019064010000000081111561048557600080fd5b82018360208201111561049757600080fd5b803590602001918460018302840111640100000000831117156104b957600080fd5b91908080601f016020809104026020016040519081016040528093929190818152602001838380828437600081840152601f19601f820116905080830192505050505050509192919290505050611dcd565b6040518080602001828103825283818151815260200191508051906020019080838360005b8381101561054b578082015181840152602081019050610530565b50505050905090810190601f1680156105785780820380516001836020036101000a031916815260200191505b509250505060405180910390f35b61058e611eda565b604051808273ffffffffffffffffffffffffffffffffffffffff1673ffffffffffffffffffffffffffffffffffffffff16815260200191505060405180910390f35b610612600480360360208110156105e657600080fd5b81019080803573ffffffffffffffffffffffffffffffffffffffff169060200190929190505050611eff565b005b61064a6004803603604081101561062a57600080fd5b810190808035906020019092919080359060200190929190505050611f99565b6040518080602001828103825283818151815260200191508051906020019080838360005b8381101561068a57808201518184015260208101905061066f565b50505050905090810190601f1680156106b75780820380516001836020036101000a031916815260200191505b509250505060405180910390f35b6106f1600480360360208110156106db57600080fd5b810190808035906020019092919050505061205f565b005b6106fb612a58565b005b6107336004803603604081101561071357600080fd5b810190808035906020019092919080359060200190929190505050613a21565b60405180827effffffffffffffffffffffffffffffffffffffffffffffffffffffffffffff19167effffffffffffffffffffffffffffffffffffffffffffffffffffffffffffff1916815260200191505060405180910390f35b610795613a61565b604051808273ffffffffffffffffffffffffffffffffffffffff1673ffffffffffffffffffffffffffffffffffffffff16815260200191505060405180910390f35b610819600480360360208110156107ed57600080fd5b81019080803573ffffffffffffffffffffffffffffffffffffffff169060200190929190505050613a87565b005b6108d46004803603602081101561083157600080fd5b810190808035906020019064010000000081111561084e57600080fd5b82018360208201111561086057600080fd5b8035906020019184600183028401116401000000008311171561088257600080fd5b91908080601f016020809104026020016040519081016040528093929190818152602001838380828437600081840152601f19601f820116905080830192505050505050509192919290505050613b55565b60405180827effffffffffffffffffffffffffffffffffffffffffffffffffffffffffffff19167effffffffffffffffffffffffffffffffffffffffffffffffffffffffffffff1916815260200191505060405180910390f35b61095a6004803603602081101561094457600080fd5b8101908080359060200190929190505050613b8b565b6040518080602001828103825283818151815260200191508051906020019080838360005b8381101561099a57808201518184015260208101905061097f565b50505050905090810190601f1680156109c75780820380516001836020036101000a031916815260200191505b509250505060405180910390f35b601160205281600052604060002081815481106109ee57fe5b90600052602060002001600091509150508054600181600116156101000203166002900480601f016020809104026020016040519081016040528092919081815260200182805460018160011615610100020316600290048015610a935780601f10610a6857610100808354040283529160200191610a93565b820191906000526020600020905b815481529060010190602001808311610a7657829003601f168201915b505050505081565b600282805160208101820180518482526020830160208501208183528095505050505050602052806000526040600020600091509150508054600181600116156101000203166002900480601f016020809104026020016040519081016040528092919081815260200182805460018160011615610100020316600290048015610b665780601f10610b3b57610100808354040283529160200191610b66565b820191906000526020600020905b815481529060010190602001808311610b4957829003601f168201915b505050505081565b60136000828152602001908152602001600020600260405180807f626f64790000000000000000000000000000000000000000000000000000000081525060040190509081526020016040518091039020600060126000858152602001908152602001600020600081548110610be057fe5b90600052602060002090602091828204019190069054906101000a900460f81b7effffffffffffffffffffffffffffffffffffffffffffffffffffffffffffff19167effffffffffffffffffffffffffffffffffffffffffffffffffffffffffffff191681526020019081526020016000209080600181540180825580915050906001820390600052602060002001600090919290919091509080546001816001161561010002031660029004610c989291906140ea565b505060136000828152602001908152602001600020600260405180807f7061747465726e0000000000000000000000000000000000000000000000000081525060070190509081526020016040518091039020600060126000858152602001908152602001600020600181548110610d0c57fe5b90600052602060002090602091828204019190069054906101000a900460f81b7effffffffffffffffffffffffffffffffffffffffffffffffffffffffffffff19167effffffffffffffffffffffffffffffffffffffffffffffffffffffffffffff191681526020019081526020016000209080600181540180825580915050906001820390600052602060002001600090919290919091509080546001816001161561010002031660029004610dc49291906140ea565b505060136000828152602001908152602001600020600260405180807f636f6c6f7265796573000000000000000000000000000000000000000000000081525060090190509081526020016040518091039020600060126000858152602001908152602001600020600281548110610e3857fe5b90600052602060002090602091828204019190069054906101000a900460f81b7effffffffffffffffffffffffffffffffffffffffffffffffffffffffffffff19167effffffffffffffffffffffffffffffffffffffffffffffffffffffffffffff191681526020019081526020016000209080600181540180825580915050906001820390600052602060002001600090919290919091509080546001816001161561010002031660029004610ef09291906140ea565b505060136000828152602001908152602001600020600260405180807f657965730000000000000000000000000000000000000000000000000000000081525060040190509081526020016040518091039020600060126000858152602001908152602001600020600381548110610f6457fe5b90600052602060002090602091828204019190069054906101000a900460f81b7effffffffffffffffffffffffffffffffffffffffffffffffffffffffffffff19167effffffffffffffffffffffffffffffffffffffffffffffffffffffffffffff19168152602001908152602001600020908060018154018082558091505090600182039060005260206000200160009091929091909150908054600181600116156101000203166002900461101c9291906140ea565b505060136000828152602001908152602001600020600260405180807f636f6c6f723100000000000000000000000000000000000000000000000000008152506006019050908152602001604051809103902060006012600085815260200190815260200160002060048154811061109057fe5b90600052602060002090602091828204019190069054906101000a900460f81b7effffffffffffffffffffffffffffffffffffffffffffffffffffffffffffff19167effffffffffffffffffffffffffffffffffffffffffffffffffffffffffffff1916815260200190815260200160002090806001815401808255809150509060018203906000526020600020016000909192909190915090805460018160011615610100020316600290046111489291906140ea565b505060136000828152602001908152602001600020600260405180807f636f6c6f72320000000000000000000000000000000000000000000000000000815250600601905090815260200160405180910390206000601260008581526020019081526020016000206005815481106111bc57fe5b90600052602060002090602091828204019190069054906101000a900460f81b7effffffffffffffffffffffffffffffffffffffffffffffffffffffffffffff19167effffffffffffffffffffffffffffffffffffffffffffffffffffffffffffff1916815260200190815260200160002090806001815401808255809150509060018203906000526020600020016000909192909190915090805460018160011615610100020316600290046112749291906140ea565b505060136000828152602001908152602001600020600260405180807f636f6c6f72330000000000000000000000000000000000000000000000000000815250600601905090815260200160405180910390206000601260008581526020019081526020016000206006815481106112e857fe5b90600052602060002090602091828204019190069054906101000a900460f81b7effffffffffffffffffffffffffffffffffffffffffffffffffffffffffffff19167effffffffffffffffffffffffffffffffffffffffffffffffffffffffffffff1916815260200190815260200160002090806001815401808255809150509060018203906000526020600020016000909192909190915090805460018160011615610100020316600290046113a09291906140ea565b505060136000828152602001908152602001600020600260405180807f77696c64000000000000000000000000000000000000000000000000000000008152506004019050908152602001604051809103902060006012600085815260200190815260200160002060078154811061141457fe5b90600052602060002090602091828204019190069054906101000a900460f81b7effffffffffffffffffffffffffffffffffffffffffffffffffffffffffffff19167effffffffffffffffffffffffffffffffffffffffffffffffffffffffffffff1916815260200190815260200160002090806001815401808255809150509060018203906000526020600020016000909192909190915090805460018160011615610100020316600290046114cc9291906140ea565b505060136000828152602001908152602001600020600260405180807f6d6f7574680000000000000000000000000000000000000000000000000000008152506005019050908152602001604051809103902060006012600085815260200190815260200160002060088154811061154057fe5b90600052602060002090602091828204019190069054906101000a900460f81b7effffffffffffffffffffffffffffffffffffffffffffffffffffffffffffff19167effffffffffffffffffffffffffffffffffffffffffffffffffffffffffffff1916815260200190815260200160002090806001815401808255809150509060018203906000526020600020016000909192909190915090805460018160011615610100020316600290046115f89291906140ea565b505060136000828152602001908152602001600020600260405180807f656e7669726f6e6d656e74000000000000000000000000000000000000000000815250600b019050908152602001604051809103902060006012600085815260200190815260200160002060098154811061166c57fe5b90600052602060002090602091828204019190069054906101000a900460f81b7effffffffffffffffffffffffffffffffffffffffffffffffffffffffffffff19167effffffffffffffffffffffffffffffffffffffffffffffffffffffffffffff1916815260200190815260200160002090806001815401808255809150509060018203906000526020600020016000909192909190915090805460018160011615610100020316600290046117249291906140ea565b505050565b600073ffffffffffffffffffffffffffffffffffffffff163373ffffffffffffffffffffffffffffffffffffffff16141561176057fe5b61179e6040518060400160405280600b81526020017f73757065725f61646d696e000000000000000000000000000000000000000000815250613c99565b611810576040517f08c379a00000000000000000000000000000000000000000000000000000000081526004018080602001828103825260108152602001807f4f6e6c792073757065722061646d696e0000000000000000000000000000000081525060200191505060405180910390fd5b600060035490505b8160035401811015611a0b5760008090505b60208110156119fd57611851846004548151811061184457fe5b6020026020010151613f15565b6002600584600a811061186057fe5b0160405180828054600181600116156101000203166002900480156118bc5780601f1061189a5761010080835404028352918201916118bc565b820191906000526020600020905b8154815290600101906020018083116118a8575b505091505090815260200160405180910390206000611978600f8054600181600116156101000203166002900480601f01602080910402602001604051908101604052809291908181526020018280546001816001161561010002031660029004801561196a5780601f1061193f5761010080835404028352916020019161196a565b820191906000526020600020905b81548152906001019060200180831161194d57829003601f168201915b505050505085602001613fbd565b7effffffffffffffffffffffffffffffffffffffffffffffffffffffffffffff19167effffffffffffffffffffffffffffffffffffffffffffffffffffffffffffff1916815260200190815260200160002090805190602001906119dd929190614171565b50600460008154809291906001019190505550808060010191505061182a565b508080600101915050611818565b50806003540160038190555060006004819055505050565b6060611a2e82613b8b565b905060116000848152602001908152602001600020611a5060ec60f084611dcd565b9080600181540180825580915050906001820390600052602060002001600090919290919091509080519060200190611a8a929190614171565b505060116000848152602001908152602001600020611aac60d860dc84611dcd565b9080600181540180825580915050906001820390600052602060002001600090919290919091509080519060200190611ae6929190614171565b505060116000848152602001908152602001600020611b0860c460c884611dcd565b9080600181540180825580915050906001820390600052602060002001600090919290919091509080519060200190611b42929190614171565b505060116000848152602001908152602001600020611b6460b060b484611dcd565b9080600181540180825580915050906001820390600052602060002001600090919290919091509080519060200190611b9e929190614171565b505060116000848152602001908152602001600020611bc0609c60a084611dcd565b9080600181540180825580915050906001820390600052602060002001600090919290919091509080519060200190611bfa929190614171565b505060116000848152602001908152602001600020611c1c6088608c84611dcd565b9080600181540180825580915050906001820390600052602060002001600090919290919091509080519060200190611c56929190614171565b505060116000848152602001908152602001600020611c786074607884611dcd565b9080600181540180825580915050906001820390600052602060002001600090919290919091509080519060200190611cb2929190614171565b505060116000848152602001908152602001600020611cd46060606484611dcd565b9080600181540180825580915050906001820390600052602060002001600090919290919091509080519060200190611d0e929190614171565b505060116000848152602001908152602001600020611d30604c605084611dcd565b9080600181540180825580915050906001820390600052602060002001600090919290919091509080519060200190611d6a929190614171565b505060116000848152602001908152602001600020611d8c6038603c84611dcd565b9080600181540180825580915050906001820390600052602060002001600090919290919091509080519060200190611dc6929190614171565b5050505050565b606080611df66001611de88787613fe990919063ffffffff16565b61400090919063ffffffff16565b6040519080825280601f01601f191660200182016040528015611e285781602001600182028038833980820191505090505b50905060008090505b611e448686613fe990919063ffffffff16565b8111611ece5783611e716001611e63898561400090919063ffffffff16565b613fe990919063ffffffff16565b81518110611e7b57fe5b602001015160f81c60f81b828281518110611e9257fe5b60200101907effffffffffffffffffffffffffffffffffffffffffffffffffffffffffffff1916908160001a9053508080600101915050611e31565b50809150509392505050565b6000809054906101000a900473ffffffffffffffffffffffffffffffffffffffff1681565b6000809054906101000a900473ffffffffffffffffffffffffffffffffffffffff1673ffffffffffffffffffffffffffffffffffffffff163373ffffffffffffffffffffffffffffffffffffffff1614611f5557fe5b80600160006101000a81548173ffffffffffffffffffffffffffffffffffffffff021916908373ffffffffffffffffffffffffffffffffffffffff16021790555050565b60136020528160005260406000208181548110611fb257fe5b90600052602060002001600091509150508054600181600116156101000203166002900480601f0160208091040260200160405190810160405280929190818152602001828054600181600116156101000203166002900480156120575780601f1061202c57610100808354040283529160200191612057565b820191906000526020600020905b81548152906001019060200180831161203a57829003601f168201915b505050505081565b6012600082815260200190815260200160002060106011600084815260200190815260200160002060008154811061209357fe5b9060005260206000200160405180828054600181600116156101000203166002900480156120f85780601f106120d65761010080835404028352918201916120f8565b820191906000526020600020905b8154815290600101906020018083116120e4575b5050915050908152602001604051809103902060009054906101000a900460f81b908060018154018082558091505090600182039060005260206000209060209182820401919006909192909190916101000a81548160ff021916908360f81c0217905550506012600082815260200190815260200160002060106011600084815260200190815260200160002060018154811061219257fe5b9060005260206000200160405180828054600181600116156101000203166002900480156121f75780601f106121d55761010080835404028352918201916121f7565b820191906000526020600020905b8154815290600101906020018083116121e3575b5050915050908152602001604051809103902060009054906101000a900460f81b908060018154018082558091505090600182039060005260206000209060209182820401919006909192909190916101000a81548160ff021916908360f81c0217905550506012600082815260200190815260200160002060106011600084815260200190815260200160002060028154811061229157fe5b9060005260206000200160405180828054600181600116156101000203166002900480156122f65780601f106122d45761010080835404028352918201916122f6565b820191906000526020600020905b8154815290600101906020018083116122e2575b5050915050908152602001604051809103902060009054906101000a900460f81b908060018154018082558091505090600182039060005260206000209060209182820401919006909192909190916101000a81548160ff021916908360f81c0217905550506012600082815260200190815260200160002060106011600084815260200190815260200160002060038154811061239057fe5b9060005260206000200160405180828054600181600116156101000203166002900480156123f55780601f106123d35761010080835404028352918201916123f5565b820191906000526020600020905b8154815290600101906020018083116123e1575b5050915050908152602001604051809103902060009054906101000a900460f81b908060018154018082558091505090600182039060005260206000209060209182820401919006909192909190916101000a81548160ff021916908360f81c0217905550506012600082815260200190815260200160002060106011600084815260200190815260200160002060048154811061248f57fe5b9060005260206000200160405180828054600181600116156101000203166002900480156124f45780601f106124d25761010080835404028352918201916124f4565b820191906000526020600020905b8154815290600101906020018083116124e0575b5050915050908152602001604051809103902060009054906101000a900460f81b908060018154018082558091505090600182039060005260206000209060209182820401919006909192909190916101000a81548160ff021916908360f81c0217905550506012600082815260200190815260200160002060106011600084815260200190815260200160002060058154811061258e57fe5b9060005260206000200160405180828054600181600116156101000203166002900480156125f35780601f106125d15761010080835404028352918201916125f3565b820191906000526020600020905b8154815290600101906020018083116125df575b5050915050908152602001604051809103902060009054906101000a900460f81b908060018154018082558091505090600182039060005260206000209060209182820401919006909192909190916101000a81548160ff021916908360f81c0217905550506012600082815260200190815260200160002060106011600084815260200190815260200160002060068154811061268d57fe5b9060005260206000200160405180828054600181600116156101000203166002900480156126f25780601f106126d05761010080835404028352918201916126f2565b820191906000526020600020905b8154815290600101906020018083116126de575b5050915050908152602001604051809103902060009054906101000a900460f81b908060018154018082558091505090600182039060005260206000209060209182820401919006909192909190916101000a81548160ff021916908360f81c0217905550506012600082815260200190815260200160002060106011600084815260200190815260200160002060078154811061278c57fe5b9060005260206000200160405180828054600181600116156101000203166002900480156127f15780601f106127cf5761010080835404028352918201916127f1565b820191906000526020600020905b8154815290600101906020018083116127dd575b5050915050908152602001604051809103902060009054906101000a900460f81b908060018154018082558091505090600182039060005260206000209060209182820401919006909192909190916101000a81548160ff021916908360f81c0217905550506012600082815260200190815260200160002060106011600084815260200190815260200160002060088154811061288b57fe5b9060005260206000200160405180828054600181600116156101000203166002900480156128f05780601f106128ce5761010080835404028352918201916128f0565b820191906000526020600020905b8154815290600101906020018083116128dc575b5050915050908152602001604051809103902060009054906101000a900460f81b908060018154018082558091505090600182039060005260206000209060209182820401919006909192909190916101000a81548160ff021916908360f81c0217905550506012600082815260200190815260200160002060106011600084815260200190815260200160002060098154811061298a57fe5b9060005260206000200160405180828054600181600116156101000203166002900480156129ef5780601f106129cd5761010080835404028352918201916129ef565b820191906000526020600020905b8154815290600101906020018083116129db575b5050915050908152602001604051809103902060009054906101000a900460f81b908060018154018082558091505090600182039060005260206000209060209182820401919006909192909190916101000a81548160ff021916908360f81c02179055505050565b600073ffffffffffffffffffffffffffffffffffffffff163373ffffffffffffffffffffffffffffffffffffffff161415612a8f57fe5b612acd6040518060400160405280600b81526020017f73757065725f61646d696e000000000000000000000000000000000000000000815250613c99565b612b3f576040517f08c379a00000000000000000000000000000000000000000000000000000000081526004018080602001828103825260108152602001807f4f6e6c792073757065722061646d696e0000000000000000000000000000000081525060200191505060405180910390fd5b7f3100000000000000000000000000000000000000000000000000000000000000601060405180807f30303030300000000000000000000000000000000000000000000000000000008152506005019050908152602001604051809103902060006101000a81548160ff021916908360f81c02179055507f3200000000000000000000000000000000000000000000000000000000000000601060405180807f30303030310000000000000000000000000000000000000000000000000000008152506005019050908152602001604051809103902060006101000a81548160ff021916908360f81c02179055507f3300000000000000000000000000000000000000000000000000000000000000601060405180807f30303031300000000000000000000000000000000000000000000000000000008152506005019050908152602001604051809103902060006101000a81548160ff021916908360f81c02179055507f3400000000000000000000000000000000000000000000000000000000000000601060405180807f30303031310000000000000000000000000000000000000000000000000000008152506005019050908152602001604051809103902060006101000a81548160ff021916908360f81c02179055507f3500000000000000000000000000000000000000000000000000000000000000601060405180807f30303130300000000000000000000000000000000000000000000000000000008152506005019050908152602001604051809103902060006101000a81548160ff021916908360f81c02179055507f3600000000000000000000000000000000000000000000000000000000000000601060405180807f30303130310000000000000000000000000000000000000000000000000000008152506005019050908152602001604051809103902060006101000a81548160ff021916908360f81c02179055507f3700000000000000000000000000000000000000000000000000000000000000601060405180807f30303131300000000000000000000000000000000000000000000000000000008152506005019050908152602001604051809103902060006101000a81548160ff021916908360f81c02179055507f3800000000000000000000000000000000000000000000000000000000000000601060405180807f30303131310000000000000000000000000000000000000000000000000000008152506005019050908152602001604051809103902060006101000a81548160ff021916908360f81c02179055507f3900000000000000000000000000000000000000000000000000000000000000601060405180807f30313030300000000000000000000000000000000000000000000000000000008152506005019050908152602001604051809103902060006101000a81548160ff021916908360f81c02179055507f6100000000000000000000000000000000000000000000000000000000000000601060405180807f30313030310000000000000000000000000000000000000000000000000000008152506005019050908152602001604051809103902060006101000a81548160ff021916908360f81c02179055507f6200000000000000000000000000000000000000000000000000000000000000601060405180807f30313031300000000000000000000000000000000000000000000000000000008152506005019050908152602001604051809103902060006101000a81548160ff021916908360f81c02179055507f6300000000000000000000000000000000000000000000000000000000000000601060405180807f30313031310000000000000000000000000000000000000000000000000000008152506005019050908152602001604051809103902060006101000a81548160ff021916908360f81c02179055507f6400000000000000000000000000000000000000000000000000000000000000601060405180807f30313130300000000000000000000000000000000000000000000000000000008152506005019050908152602001604051809103902060006101000a81548160ff021916908360f81c02179055507f6500000000000000000000000000000000000000000000000000000000000000601060405180807f30313130310000000000000000000000000000000000000000000000000000008152506005019050908152602001604051809103902060006101000a81548160ff021916908360f81c02179055507f6600000000000000000000000000000000000000000000000000000000000000601060405180807f30313131300000000000000000000000000000000000000000000000000000008152506005019050908152602001604051809103902060006101000a81548160ff021916908360f81c02179055507f6700000000000000000000000000000000000000000000000000000000000000601060405180807f30313131310000000000000000000000000000000000000000000000000000008152506005019050908152602001604051809103902060006101000a81548160ff021916908360f81c02179055507f6800000000000000000000000000000000000000000000000000000000000000601060405180807f31303030300000000000000000000000000000000000000000000000000000008152506005019050908152602001604051809103902060006101000a81548160ff021916908360f81c02179055507f6900000000000000000000000000000000000000000000000000000000000000601060405180807f31303030310000000000000000000000000000000000000000000000000000008152506005019050908152602001604051809103902060006101000a81548160ff021916908360f81c02179055507f6a00000000000000000000000000000000000000000000000000000000000000601060405180807f31303031300000000000000000000000000000000000000000000000000000008152506005019050908152602001604051809103902060006101000a81548160ff021916908360f81c02179055507f6b00000000000000000000000000000000000000000000000000000000000000601060405180807f31303031310000000000000000000000000000000000000000000000000000008152506005019050908152602001604051809103902060006101000a81548160ff021916908360f81c02179055507f6d00000000000000000000000000000000000000000000000000000000000000601060405180807f31303130300000000000000000000000000000000000000000000000000000008152506005019050908152602001604051809103902060006101000a81548160ff021916908360f81c02179055507f6e00000000000000000000000000000000000000000000000000000000000000601060405180807f31303130310000000000000000000000000000000000000000000000000000008152506005019050908152602001604051809103902060006101000a81548160ff021916908360f81c02179055507f6f00000000000000000000000000000000000000000000000000000000000000601060405180807f31303131300000000000000000000000000000000000000000000000000000008152506005019050908152602001604051809103902060006101000a81548160ff021916908360f81c02179055507f7000000000000000000000000000000000000000000000000000000000000000601060405180807f31303131310000000000000000000000000000000000000000000000000000008152506005019050908152602001604051809103902060006101000a81548160ff021916908360f81c02179055507f7100000000000000000000000000000000000000000000000000000000000000601060405180807f31313030300000000000000000000000000000000000000000000000000000008152506005019050908152602001604051809103902060006101000a81548160ff021916908360f81c02179055507f7200000000000000000000000000000000000000000000000000000000000000601060405180807f31313030310000000000000000000000000000000000000000000000000000008152506005019050908152602001604051809103902060006101000a81548160ff021916908360f81c02179055507f7300000000000000000000000000000000000000000000000000000000000000601060405180807f31313031300000000000000000000000000000000000000000000000000000008152506005019050908152602001604051809103902060006101000a81548160ff021916908360f81c02179055507f7400000000000000000000000000000000000000000000000000000000000000601060405180807f31313031310000000000000000000000000000000000000000000000000000008152506005019050908152602001604051809103902060006101000a81548160ff021916908360f81c02179055507f7500000000000000000000000000000000000000000000000000000000000000601060405180807f31313130300000000000000000000000000000000000000000000000000000008152506005019050908152602001604051809103902060006101000a81548160ff021916908360f81c02179055507f7600000000000000000000000000000000000000000000000000000000000000601060405180807f31313130310000000000000000000000000000000000000000000000000000008152506005019050908152602001604051809103902060006101000a81548160ff021916908360f81c02179055507f7700000000000000000000000000000000000000000000000000000000000000601060405180807f31313131300000000000000000000000000000000000000000000000000000008152506005019050908152602001604051809103902060006101000a81548160ff021916908360f81c02179055507f7800000000000000000000000000000000000000000000000000000000000000601060405180807f31313131310000000000000000000000000000000000000000000000000000008152506005019050908152602001604051809103902060006101000a81548160ff021916908360f81c0217905550565b60126020528160005260406000208181548110613a3a57fe5b9060005260206000209060209182820401919006915091509054906101000a900460f81b81565b600160009054906101000a900473ffffffffffffffffffffffffffffffffffffffff1681565b6000809054906101000a900473ffffffffffffffffffffffffffffffffffffffff1673ffffffffffffffffffffffffffffffffffffffff163373ffffffffffffffffffffffffffffffffffffffff1614613add57fe5b600073ffffffffffffffffffffffffffffffffffffffff168173ffffffffffffffffffffffffffffffffffffffff1614613b5257806000806101000a81548173ffffffffffffffffffffffffffffffffffffffff021916908373ffffffffffffffffffffffffffffffffffffffff1602179055505b50565b6010818051602081018201805184825260208301602085012081835280955050505050506000915054906101000a900460f81b81565b60608060f06040519080825280601f01601f191660200182016040528015613bc25781602001600182028038833980820191505090505b50905060008090505b60f0811015613c8f57600160028581613be057fe5b0614613c0c577f3000000000000000000000000000000000000000000000000000000000000000613c2e565b7f31000000000000000000000000000000000000000000000000000000000000005b828260ef0381518110613c3d57fe5b60200101907effffffffffffffffffffffffffffffffffffffffffffffffffffffffffffff1916908160001a905350613c8060028561401c90919063ffffffff16565b93508080600101915050613bcb565b5080915050919050565b6000600160009054906101000a900473ffffffffffffffffffffffffffffffffffffffff1673ffffffffffffffffffffffffffffffffffffffff1663358177736040518060400160405280600681526020017f526f6c65444200000000000000000000000000000000000000000000000000008152506040518263ffffffff1660e01b81526004018080602001828103825283818151815260200191508051906020019080838360005b83811015613d5e578082015181840152602081019050613d43565b50505050905090810190601f168015613d8b5780820380516001836020036101000a031916815260200191505b509250505060206040518083038186803b158015613da857600080fd5b505afa158015613dbc573d6000803e3d6000fd5b505050506040513d6020811015613dd257600080fd5b810190808051906020019092919050505073ffffffffffffffffffffffffffffffffffffffff16636c9cd09783613e07614035565b6040518363ffffffff1660e01b815260040180806020018373ffffffffffffffffffffffffffffffffffffffff1673ffffffffffffffffffffffffffffffffffffffff168152602001828103825284818151815260200191508051906020019080838360005b83811015613e88578082015181840152602081019050613e6d565b50505050905090810190601f168015613eb55780820380516001836020036101000a031916815260200191505b50935050505060206040518083038186803b158015613ed357600080fd5b505afa158015613ee7573d6000803e3d6000fd5b505050506040513d6020811015613efd57600080fd5b81019080805190602001909291905050509050919050565b60608060206040519080825280601f01601f191660200182016040528015613f4c5781602001600182028038833980820191505090505b50905060005b6020811015613fb357838160208110613f6757fe5b1a60f81b828281518110613f7757fe5b60200101907effffffffffffffffffffffffffffffffffffffffffffffffffffffffffffff1916908160001a9053508080600101915050613f52565b5080915050919050565b60006060839050600081511415613fdb57600060f81b915050613fe3565b828401519150505b92915050565b600082821115613ff557fe5b818303905092915050565b60008082840190508381101561401257fe5b8091505092915050565b60008082848161402857fe5b0490508091505092915050565b6000600160009054906101000a900473ffffffffffffffffffffffffffffffffffffffff1673ffffffffffffffffffffffffffffffffffffffff163373ffffffffffffffffffffffffffffffffffffffff1614614094573390506140e7565b6000601436036000602052601481602c37602051915050600073ffffffffffffffffffffffffffffffffffffffff168173ffffffffffffffffffffffffffffffffffffffff1614156140e257fe5b809150505b90565b828054600181600116156101000203166002900490600052602060002090601f016020900481019282601f106141235780548555614160565b8280016001018555821561416057600052602060002091601f016020900482015b8281111561415f578254825591600101919060010190614144565b5b50905061416d91906141f1565b5090565b828054600181600116156101000203166002900490600052602060002090601f016020900481019282601f106141b257805160ff19168380011785556141e0565b828001600101855582156141e0579182015b828111156141df5782518255916020019190600101906141c4565b5b5090506141ed91906141f1565b5090565b61421391905b8082111561420f5760008160009055506001016141f7565b5090565b9056fea265627a7a7231582029a637bd27b731922185bd808a3e1e50fff354a2186c476396350cc69acfe99164736f6c63430005110032",
  "source": "pragma solidity ^0.5.5;\n\nimport \"../../../libs/SafeMath.sol\";\nimport \"../../proxy/Proxied.sol\";\nimport \"../../../authority/Guard.sol\";\nimport \"./KaiToCattributesDB.sol\";\nimport \"./KaiValueDB.sol\";\nimport \"../../databases/ProfileDB.sol\";\nimport \"../../../interfaces/IContractManager.sol\";\n\n/**\n * @title This contract converts a kitty's genes into binary, kai notation, and cattributes\n * and stores them in mappings\n * @author @ziweidream\n */\n\ncontract KittiesCattributesDB is Proxied, Guard, KaiToCattributesDB, KaiValueDB {\n    using SafeMath for uint256;\n\n    mapping(uint256 => string[]) public kittiesDominantGeneBinary;\n    mapping(uint256 => bytes1[]) public kittiesDominantGeneKai;\n    mapping(uint256 => string[]) public kittiesDominantCattributes;\n\n    /**\n     * @author @ziweidream\n     * @notice converts kai notation to its corresponding cattribute\n     */\n    function kaiToCattribute(uint256 kittieId)\n      public\n    {\n       kittiesDominantCattributes[kittieId].push(cattributes['body'][kittiesDominantGeneKai[kittieId][0]]);\n       kittiesDominantCattributes[kittieId].push(cattributes['pattern'][kittiesDominantGeneKai[kittieId][1]]);\n       kittiesDominantCattributes[kittieId].push(cattributes['coloreyes'][kittiesDominantGeneKai[kittieId][2]]);\n       kittiesDominantCattributes[kittieId].push(cattributes['eyes'][kittiesDominantGeneKai[kittieId][3]]);\n       kittiesDominantCattributes[kittieId].push(cattributes['color1'][kittiesDominantGeneKai[kittieId][4]]);\n       kittiesDominantCattributes[kittieId].push(cattributes['color2'][kittiesDominantGeneKai[kittieId][5]]);\n       kittiesDominantCattributes[kittieId].push(cattributes['color3'][kittiesDominantGeneKai[kittieId][6]]);\n       kittiesDominantCattributes[kittieId].push(cattributes['wild'][kittiesDominantGeneKai[kittieId][7]]);\n       kittiesDominantCattributes[kittieId].push(cattributes['mouth'][kittiesDominantGeneKai[kittieId][8]]);\n       kittiesDominantCattributes[kittieId].push(cattributes['environment'][kittiesDominantGeneKai[kittieId][9]]);\n    }\n  \n   /**\n     * @author @ziweidream\n     * @notice converts binary to its corresponding kai notation\n     * @notice only dominant genes are kept since kitties only demonstrate cattributes from dominant genes.\n     */\n   function binaryToKai(uint256 kittieId)\n     public  // temporarily set as public just for truffle test purpose\n     //internal\n     {\n       kittiesDominantGeneKai[kittieId].push(kaiValue[kittiesDominantGeneBinary[kittieId][0]]);\n       kittiesDominantGeneKai[kittieId].push(kaiValue[kittiesDominantGeneBinary[kittieId][1]]);\n       kittiesDominantGeneKai[kittieId].push(kaiValue[kittiesDominantGeneBinary[kittieId][2]]);\n       kittiesDominantGeneKai[kittieId].push(kaiValue[kittiesDominantGeneBinary[kittieId][3]]);\n       kittiesDominantGeneKai[kittieId].push(kaiValue[kittiesDominantGeneBinary[kittieId][4]]);\n       kittiesDominantGeneKai[kittieId].push(kaiValue[kittiesDominantGeneBinary[kittieId][5]]);\n       kittiesDominantGeneKai[kittieId].push(kaiValue[kittiesDominantGeneBinary[kittieId][6]]);\n       kittiesDominantGeneKai[kittieId].push(kaiValue[kittiesDominantGeneBinary[kittieId][7]]);\n       kittiesDominantGeneKai[kittieId].push(kaiValue[kittiesDominantGeneBinary[kittieId][8]]);\n       kittiesDominantGeneKai[kittieId].push(kaiValue[kittiesDominantGeneBinary[kittieId][9]]);\n   }\n  \n   /**\n     * @author @ziweidream\n     * @notice converts an integer to its binary\n     * @param n the integer to be converted\n     * @return the binary\n     */\n   function toBinaryString(uint256 n) public pure returns (string memory) {\n\n        bytes memory output = new bytes(240);\n\n        for (uint256 i = 0; i < 240; i++) {\n            output[239 - i] = (n % 2 == 1) ? byte(\"1\") : byte(\"0\");\n            n = n.div(2);\n        }\n\n        return string(output);\n    }\n  \n    /**\n     * @author @ziweidream\n     * @notice converts the gene in uint of a kitty to binary.\n     * @notice only dominant genes are kept since kitties only demonstrate cattributes from dominant genes.\n     */\n    function getDominantGeneBinary(uint256 kittieId, uint256 gene)\n      public\n     {\n        string memory geneBinary = toBinaryString(gene);\n        kittiesDominantGeneBinary[kittieId].push(getSlice(236, 240, geneBinary));\n        kittiesDominantGeneBinary[kittieId].push(getSlice(216, 220, geneBinary));\n        kittiesDominantGeneBinary[kittieId].push(getSlice(196, 200, geneBinary));\n        kittiesDominantGeneBinary[kittieId].push(getSlice(176, 180, geneBinary));\n        kittiesDominantGeneBinary[kittieId].push(getSlice(156, 160, geneBinary));\n        kittiesDominantGeneBinary[kittieId].push(getSlice(136, 140, geneBinary));\n        kittiesDominantGeneBinary[kittieId].push(getSlice(116, 120, geneBinary));\n        kittiesDominantGeneBinary[kittieId].push(getSlice(96, 100, geneBinary));\n        kittiesDominantGeneBinary[kittieId].push(getSlice(76, 80, geneBinary));\n        kittiesDominantGeneBinary[kittieId].push(getSlice(56, 60, geneBinary));\n    }\n\n    /**\n     * @author @ziweidream\n     * @notice gets slice of a string\n     */\n    function getSlice(uint256 begin, uint256 end, string memory text)\n        public\n        pure\n        returns (string memory) {\n        bytes memory a = new bytes(end.sub(begin).add(1));\n        for(uint256 i=0; i<=end.sub(begin); i++){\n            a[i] = bytes(text)[i.add(begin).sub(1)];\n        }\n        return string(a);\n    }\n}",
  "sourcePath": "/Users/ziweizhang/Desktop/EarningsTracker/alpha/contracts/modules/algorithm/RarityCalculationDBs/KittiesCattributesDB.sol",
  "compiler": {
    "name": "solc",
    "version": "0.5.17+commit.d19bba13.Emscripten.clang"
  },
  "schemaVersion": "3.0.23",
  "updatedAt": "2020-04-16T12:53:52.637Z",
  "devdoc": {
    "author": "@ziweidream",
    "methods": {
      "binaryToKai(uint256)": {
        "author": "@ziweidream"
      },
      "fillKaiValue()": {
        "author": "@ziweidream"
      },
      "getDominantGeneBinary(uint256,uint256)": {
        "author": "@ziweidream"
      },
      "getSlice(uint256,uint256,string)": {
        "author": "@ziweidream"
      },
      "kaiToCattribute(uint256)": {
        "author": "@ziweidream"
      },
      "toBinaryString(uint256)": {
        "author": "@ziweidream",
        "params": {
          "n": "the integer to be converted"
        },
        "return": "the binary"
      }
    },
    "title": "This contract converts a kitty's genes into binary, kai notation, and cattributes and stores them in mappings"
  },
  "userdoc": {
    "methods": {
      "binaryToKai(uint256)": {
        "notice": "converts binary to its corresponding kai notationonly dominant genes are kept since kitties only demonstrate cattributes from dominant genes."
      },
      "fillKaiValue()": {
        "notice": "mapping a gene in binary with its kai notation"
      },
      "getDominantGeneBinary(uint256,uint256)": {
        "notice": "converts the gene in uint of a kitty to binary.only dominant genes are kept since kitties only demonstrate cattributes from dominant genes."
      },
      "getSlice(uint256,uint256,string)": {
        "notice": "gets slice of a string"
      },
      "kaiToCattribute(uint256)": {
        "notice": "converts kai notation to its corresponding cattribute"
      },
      "setProxy(address)": {
        "notice": "Set/update address of Proxy contract"
      },
      "toBinaryString(uint256)": {
        "notice": "converts an integer to its binary"
      }
    }
  }
}