{
  "contractName": "KittieHell",
  "abi": [
    {
      "anonymous": false,
      "inputs": [
        {
          "indexed": true,
          "internalType": "uint256",
          "name": "_kittyID",
          "type": "uint256"
        }
      ],
      "name": "KittyAcquired",
      "type": "event"
    },
    {
      "anonymous": false,
      "inputs": [
        {
          "indexed": true,
          "internalType": "uint256",
          "name": "_kittyID",
          "type": "uint256"
        }
      ],
      "name": "KittyDied",
      "type": "event"
    },
    {
      "anonymous": false,
      "inputs": [
        {
          "indexed": true,
          "internalType": "uint256",
          "name": "_kittyID",
          "type": "uint256"
        }
      ],
      "name": "KittyPermanentDeath",
      "type": "event"
    },
    {
      "anonymous": false,
      "inputs": [
        {
          "indexed": true,
          "internalType": "uint256",
          "name": "_kittyID",
          "type": "uint256"
        }
      ],
      "name": "KittyReleased",
      "type": "event"
    },
    {
      "anonymous": false,
      "inputs": [
        {
          "indexed": true,
          "internalType": "uint256",
          "name": "_kittyID",
          "type": "uint256"
        }
      ],
      "name": "KittyResurrected",
      "type": "event"
    },
    {
      "anonymous": false,
      "inputs": [
        {
          "indexed": false,
          "internalType": "uint256",
          "name": "scheduledJob",
          "type": "uint256"
        },
        {
          "indexed": false,
          "internalType": "uint256",
          "name": "time",
          "type": "uint256"
        },
        {
          "indexed": true,
          "internalType": "uint256",
          "name": "kittyID",
          "type": "uint256"
        }
      ],
      "name": "Scheduled",
      "type": "event"
    },
    {
      "constant": true,
      "inputs": [],
      "name": "cronJob",
      "outputs": [
        {
          "internalType": "contract CronJob",
          "name": "",
          "type": "address"
        }
      ],
      "payable": false,
      "stateMutability": "view",
      "type": "function"
    },
    {
      "constant": true,
      "inputs": [],
      "name": "cryptoKitties",
      "outputs": [
        {
          "internalType": "contract ERC721",
          "name": "",
          "type": "address"
        }
      ],
      "payable": false,
      "stateMutability": "view",
      "type": "function"
    },
    {
      "constant": true,
      "inputs": [],
      "name": "endowmentFund",
      "outputs": [
        {
          "internalType": "contract EndowmentFund",
          "name": "",
          "type": "address"
        }
      ],
      "payable": false,
      "stateMutability": "view",
      "type": "function"
    },
    {
      "constant": true,
      "inputs": [],
      "name": "gameStore",
      "outputs": [
        {
          "internalType": "contract GameStore",
          "name": "",
          "type": "address"
        }
      ],
      "payable": false,
      "stateMutability": "view",
      "type": "function"
    },
    {
      "constant": true,
      "inputs": [],
      "name": "gameVarAndFee",
      "outputs": [
        {
          "internalType": "contract GameVarAndFee",
          "name": "",
          "type": "address"
        }
      ],
      "payable": false,
      "stateMutability": "view",
      "type": "function"
    },
    {
      "constant": true,
      "inputs": [],
      "name": "gmGetterDB",
      "outputs": [
        {
          "internalType": "contract GMGetterDB",
          "name": "",
          "type": "address"
        }
      ],
      "payable": false,
      "stateMutability": "view",
      "type": "function"
    },
    {
      "constant": true,
      "inputs": [],
      "name": "gmSetterDB",
      "outputs": [
        {
          "internalType": "contract GMSetterDB",
          "name": "",
          "type": "address"
        }
      ],
      "payable": false,
      "stateMutability": "view",
      "type": "function"
    },
    {
      "constant": true,
      "inputs": [],
      "name": "kittieFightToken",
      "outputs": [
        {
          "internalType": "contract ERC20Standard",
          "name": "",
          "type": "address"
        }
      ],
      "payable": false,
      "stateMutability": "view",
      "type": "function"
    },
    {
      "constant": true,
      "inputs": [
        {
          "internalType": "uint256",
          "name": "",
          "type": "uint256"
        }
      ],
      "name": "kitties",
      "outputs": [
        {
          "internalType": "address",
          "name": "owner",
          "type": "address"
        },
        {
          "internalType": "bool",
          "name": "dead",
          "type": "bool"
        },
        {
          "internalType": "bool",
          "name": "playing",
          "type": "bool"
        },
        {
          "internalType": "bool",
          "name": "ghost",
          "type": "bool"
        },
        {
          "internalType": "uint256",
          "name": "deadAt",
          "type": "uint256"
        }
      ],
      "payable": false,
      "stateMutability": "view",
      "type": "function"
    },
    {
      "constant": true,
      "inputs": [],
      "name": "owner",
      "outputs": [
        {
          "internalType": "address payable",
          "name": "",
          "type": "address"
        }
      ],
      "payable": false,
      "stateMutability": "view",
      "type": "function"
    },
    {
      "constant": true,
      "inputs": [
        {
          "internalType": "uint256",
          "name": "",
          "type": "uint256"
        }
      ],
      "name": "path",
      "outputs": [
        {
          "internalType": "address",
          "name": "",
          "type": "address"
        }
      ],
      "payable": false,
      "stateMutability": "view",
      "type": "function"
    },
    {
      "constant": true,
      "inputs": [],
      "name": "proxy",
      "outputs": [
        {
          "internalType": "contract ProxyBase",
          "name": "",
          "type": "address"
        }
      ],
      "payable": false,
      "stateMutability": "view",
      "type": "function"
    },
    {
      "constant": true,
      "inputs": [],
      "name": "scheduledJob",
      "outputs": [
        {
          "internalType": "uint256",
          "name": "",
          "type": "uint256"
        }
      ],
      "payable": false,
      "stateMutability": "view",
      "type": "function"
    },
    {
      "constant": true,
      "inputs": [
        {
          "internalType": "uint256",
          "name": "",
          "type": "uint256"
        }
      ],
      "name": "scheduledJobs",
      "outputs": [
        {
          "internalType": "uint256",
          "name": "",
          "type": "uint256"
        }
      ],
      "payable": false,
      "stateMutability": "view",
      "type": "function"
    },
    {
      "constant": false,
      "inputs": [
        {
          "internalType": "contract ProxyBase",
          "name": "_proxy",
          "type": "address"
        }
      ],
      "name": "setProxy",
      "outputs": [],
      "payable": false,
      "stateMutability": "nonpayable",
      "type": "function"
    },
    {
      "constant": false,
      "inputs": [
        {
          "internalType": "address payable",
          "name": "newOwner",
          "type": "address"
        }
      ],
      "name": "transferOwnership",
      "outputs": [],
      "payable": false,
      "stateMutability": "nonpayable",
      "type": "function"
    },
    {
      "constant": false,
      "inputs": [],
      "name": "initialize",
      "outputs": [],
      "payable": false,
      "stateMutability": "nonpayable",
      "type": "function"
    },
    {
      "constant": false,
      "inputs": [
        {
          "internalType": "uint256",
          "name": "_kittyID",
          "type": "uint256"
        },
        {
          "internalType": "address",
          "name": "owner",
          "type": "address"
        }
      ],
      "name": "acquireKitty",
      "outputs": [
        {
          "internalType": "bool",
          "name": "",
          "type": "bool"
        }
      ],
      "payable": false,
      "stateMutability": "nonpayable",
      "type": "function"
    },
    {
      "constant": true,
      "inputs": [
        {
          "internalType": "uint256",
          "name": "_kittyID",
          "type": "uint256"
        }
      ],
      "name": "isKittyDead",
      "outputs": [
        {
          "internalType": "bool",
          "name": "",
          "type": "bool"
        }
      ],
      "payable": false,
      "stateMutability": "view",
      "type": "function"
    },
    {
      "constant": false,
      "inputs": [
        {
          "internalType": "uint256",
          "name": "_kittyID",
          "type": "uint256"
        },
        {
          "internalType": "uint256",
          "name": "gameId",
          "type": "uint256"
        }
      ],
      "name": "killKitty",
      "outputs": [
        {
          "internalType": "bool",
          "name": "",
          "type": "bool"
        }
      ],
      "payable": false,
      "stateMutability": "nonpayable",
      "type": "function"
    },
    {
      "constant": true,
      "inputs": [
        {
          "internalType": "uint256",
          "name": "_kittyID",
          "type": "uint256"
        }
      ],
      "name": "kittyDeathTime",
      "outputs": [
        {
          "internalType": "uint256",
          "name": "",
          "type": "uint256"
        }
      ],
      "payable": false,
      "stateMutability": "view",
      "type": "function"
    },
    {
      "constant": false,
      "inputs": [
        {
          "internalType": "uint256",
          "name": "_kittyID",
          "type": "uint256"
        },
        {
          "internalType": "uint256",
          "name": "gameId",
          "type": "uint256"
        },
        {
          "internalType": "address",
          "name": "_owner",
          "type": "address"
        },
        {
          "internalType": "uint256[]",
          "name": "sacrificeKitties",
          "type": "uint256[]"
        }
      ],
      "name": "payForResurrection",
      "outputs": [
        {
          "internalType": "bool",
          "name": "",
          "type": "bool"
        }
      ],
      "payable": true,
      "stateMutability": "payable",
      "type": "function"
    },
    {
      "constant": false,
      "inputs": [
        {
          "internalType": "uint256",
          "name": "_kittyID",
          "type": "uint256"
        }
      ],
      "name": "releaseKittyGameManager",
      "outputs": [
        {
          "internalType": "bool",
          "name": "",
          "type": "bool"
        }
      ],
      "payable": false,
      "stateMutability": "nonpayable",
      "type": "function"
    },
    {
      "constant": false,
      "inputs": [
        {
          "internalType": "uint256",
          "name": "_kittyID",
          "type": "uint256"
        }
      ],
      "name": "adminRelease",
      "outputs": [],
      "payable": false,
      "stateMutability": "nonpayable",
      "type": "function"
    },
    {
      "constant": false,
      "inputs": [
        {
          "internalType": "uint256",
          "name": "_kittyID",
          "type": "uint256"
        }
      ],
      "name": "becomeGhost",
      "outputs": [
        {
          "internalType": "bool",
          "name": "",
          "type": "bool"
        }
      ],
      "payable": false,
      "stateMutability": "nonpayable",
      "type": "function"
    },
    {
      "constant": true,
      "inputs": [
        {
          "internalType": "uint256",
          "name": "_kittyID",
          "type": "uint256"
        }
      ],
      "name": "getKittyStatus",
      "outputs": [
        {
          "internalType": "address",
          "name": "_owner",
          "type": "address"
        },
        {
          "internalType": "bool",
          "name": "_dead",
          "type": "bool"
        },
        {
          "internalType": "bool",
          "name": "_playing",
          "type": "bool"
        },
        {
          "internalType": "bool",
          "name": "_ghost",
          "type": "bool"
        },
        {
          "internalType": "uint256",
          "name": "_deadAt",
          "type": "uint256"
        }
      ],
      "payable": false,
      "stateMutability": "view",
      "type": "function"
    }
  ],
  "bytecode": "0x6080604052336000806101000a81548173ffffffffffffffffffffffffffffffffffffffff021916908373ffffffffffffffffffffffffffffffffffffffff160217905550614bfd806100536000396000f3fe6080604052600436106101815760003560e01c80638cc51eda116100d1578063b1be64691161008a578063ec55688911610064578063ec556889146109e1578063ef410f4514610a38578063f26dee8e14610a8f578063f2fde38b14610ae657610181565b8063b1be6469146108e0578063da7f76d414610937578063e092b3e31461098e57610181565b80638cc51eda146106985780638da5cb5b1461073b57806397107d6d146107925780639e50f4fb146107e3578063a3b3bd7b1461080e578063af6d1fe41461086557610181565b806363c0c46e1161013e57806369af70b31161011857806369af70b31461057a5780637202a1b2146105d1578063810327a91461062e5780638129fc1c1461068157610181565b806363c0c46e146104315780636889364c1461048857806368f16d6e1461052b57610181565b80631fc751801461018657806329029321146101dd57806329af207c146102185780635a94cc921461026b5780635fd8cc101461036f5780635fe4d4f6146103e2575b600080fd5b34801561019257600080fd5b5061019b610b37565b604051808273ffffffffffffffffffffffffffffffffffffffff1673ffffffffffffffffffffffffffffffffffffffff16815260200191505060405180910390f35b3480156101e957600080fd5b506102166004803603602081101561020057600080fd5b8101908080359060200190929190505050610b5d565b005b34801561022457600080fd5b506102516004803603602081101561023b57600080fd5b8101908080359060200190929190505050610c59565b604051808215151515815260200191505060405180910390f35b6103556004803603608081101561028157600080fd5b810190808035906020019092919080359060200190929190803573ffffffffffffffffffffffffffffffffffffffff169060200190929190803590602001906401000000008111156102d257600080fd5b8201836020820111156102e457600080fd5b8035906020019184602083028401116401000000008311171561030657600080fd5b919080806020026020016040519081016040528093929190818152602001838360200280828437600081840152601f19601f820116905080830192505050505050509192919290505050610d46565b604051808215151515815260200191505060405180910390f35b34801561037b57600080fd5b506103c86004803603604081101561039257600080fd5b8101908080359060200190929190803573ffffffffffffffffffffffffffffffffffffffff169060200190929190505050611a86565b604051808215151515815260200191505060405180910390f35b3480156103ee57600080fd5b5061041b6004803603602081101561040557600080fd5b8101908080359060200190929190505050611be7565b6040518082815260200191505060405180910390f35b34801561043d57600080fd5b50610446611bff565b604051808273ffffffffffffffffffffffffffffffffffffffff1673ffffffffffffffffffffffffffffffffffffffff16815260200191505060405180910390f35b34801561049457600080fd5b506104c1600480360360208110156104ab57600080fd5b8101908080359060200190929190505050611c25565b604051808673ffffffffffffffffffffffffffffffffffffffff1673ffffffffffffffffffffffffffffffffffffffff1681526020018515151515815260200184151515158152602001831515151581526020018281526020019550505050505060405180910390f35b34801561053757600080fd5b506105646004803603602081101561054e57600080fd5b8101908080359060200190929190505050611cfa565b6040518082815260200191505060405180910390f35b34801561058657600080fd5b5061058f611d1a565b604051808273ffffffffffffffffffffffffffffffffffffffff1673ffffffffffffffffffffffffffffffffffffffff16815260200191505060405180910390f35b3480156105dd57600080fd5b50610614600480360360408110156105f457600080fd5b810190808035906020019092919080359060200190929190505050611d40565b604051808215151515815260200191505060405180910390f35b34801561063a57600080fd5b506106676004803603602081101561065157600080fd5b8101908080359060200190929190505050611f82565b604051808215151515815260200191505060405180910390f35b34801561068d57600080fd5b50610696612021565b005b3480156106a457600080fd5b506106d1600480360360208110156106bb57600080fd5b810190808035906020019092919050505061301f565b604051808673ffffffffffffffffffffffffffffffffffffffff1673ffffffffffffffffffffffffffffffffffffffff1681526020018515151515815260200184151515158152602001831515151581526020018281526020019550505050505060405180910390f35b34801561074757600080fd5b5061075061309c565b604051808273ffffffffffffffffffffffffffffffffffffffff1673ffffffffffffffffffffffffffffffffffffffff16815260200191505060405180910390f35b34801561079e57600080fd5b506107e1600480360360208110156107b557600080fd5b81019080803573ffffffffffffffffffffffffffffffffffffffff1690602001909291905050506130c1565b005b3480156107ef57600080fd5b506107f861315b565b6040518082815260200191505060405180910390f35b34801561081a57600080fd5b50610823613161565b604051808273ffffffffffffffffffffffffffffffffffffffff1673ffffffffffffffffffffffffffffffffffffffff16815260200191505060405180910390f35b34801561087157600080fd5b5061089e6004803603602081101561088857600080fd5b8101908080359060200190929190505050613187565b604051808273ffffffffffffffffffffffffffffffffffffffff1673ffffffffffffffffffffffffffffffffffffffff16815260200191505060405180910390f35b3480156108ec57600080fd5b506108f56131c3565b604051808273ffffffffffffffffffffffffffffffffffffffff1673ffffffffffffffffffffffffffffffffffffffff16815260200191505060405180910390f35b34801561094357600080fd5b5061094c6131e9565b604051808273ffffffffffffffffffffffffffffffffffffffff1673ffffffffffffffffffffffffffffffffffffffff16815260200191505060405180910390f35b34801561099a57600080fd5b506109c7600480360360208110156109b157600080fd5b810190808035906020019092919050505061320f565b604051808215151515815260200191505060405180910390f35b3480156109ed57600080fd5b506109f66137a1565b604051808273ffffffffffffffffffffffffffffffffffffffff1673ffffffffffffffffffffffffffffffffffffffff16815260200191505060405180910390f35b348015610a4457600080fd5b50610a4d6137c7565b604051808273ffffffffffffffffffffffffffffffffffffffff1673ffffffffffffffffffffffffffffffffffffffff16815260200191505060405180910390f35b348015610a9b57600080fd5b50610aa46137ed565b604051808273ffffffffffffffffffffffffffffffffffffffff1673ffffffffffffffffffffffffffffffffffffffff16815260200191505060405180910390f35b348015610af257600080fd5b50610b3560048036036020811015610b0957600080fd5b81019080803573ffffffffffffffffffffffffffffffffffffffff169060200190929190505050613813565b005b600760009054906101000a900473ffffffffffffffffffffffffffffffffffffffff1681565b610b656138e1565b600073ffffffffffffffffffffffffffffffffffffffff163373ffffffffffffffffffffffffffffffffffffffff161415610b9c57fe5b610bda6040518060400160405280600b81526020017f73757065725f61646d696e000000000000000000000000000000000000000000815250613a6b565b610c4c576040517f08c379a00000000000000000000000000000000000000000000000000000000081526004018080602001828103825260108152602001807f4f6e6c792073757065722061646d696e0000000000000000000000000000000081525060200191505060405180910390fd5b610c5581613ce7565b5050565b60006040518060400160405280600981526020017f466f7266656974657200000000000000000000000000000000000000000000008152506040518060400160405280600c81526020017f47616d654372656174696f6e0000000000000000000000000000000000000000815250610cd082614175565b80610ce05750610cdf81614175565b5b610d35576040517f08c379a000000000000000000000000000000000000000000000000000000000815260040180806020018281038252602d815260200180614b9c602d913960400191505060405180910390fd5b610d3e84613ce7565b505050919050565b600084600073ffffffffffffffffffffffffffffffffffffffff16600d600083815260200190815260200160002060000160009054906101000a900473ffffffffffffffffffffffffffffffffffffffff1673ffffffffffffffffffffffffffffffffffffffff161415610db957600080fd5b85600d600082815260200190815260200160002060000160169054906101000a900460ff1615610de857600080fd5b610df06138e1565b600080600660009054906101000a900473ffffffffffffffffffffffffffffffffffffffff1673ffffffffffffffffffffffffffffffffffffffff166329920299896040518263ffffffff1660e01b815260040180828152602001915050604080518083038186803b158015610e6557600080fd5b505afa158015610e79573d6000803e3d6000fd5b505050506040513d6040811015610e8f57600080fd5b8101908080519060200190929190805190602001909291905050509150915060008111610f07576040517f08c379a0000000000000000000000000000000000000000000000000000000008152600401808060200182810382526021815260200180614b196021913960400191505060405180910390fd5b610f206509184e72a000836143c090919063ffffffff16565b341015610f78576040517f08c379a000000000000000000000000000000000000000000000000000000000815260040180806020018281038252602b815260200180614b3a602b913960400191505060405180910390fd5b60008090505b865181101561119557600160009054906101000a900473ffffffffffffffffffffffffffffffffffffffff1673ffffffffffffffffffffffffffffffffffffffff1663358177736040518060400160405280600c81526020017f4b697474696548656c6c444200000000000000000000000000000000000000008152506040518263ffffffff1660e01b81526004018080602001828103825283818151815260200191508051906020019080838360005b8381101561104a57808201518184015260208101905061102f565b50505050905090810190601f1680156110775780820380516001836020036101000a031916815260200191505b509250505060206040518083038186803b15801561109457600080fd5b505afa1580156110a8573d6000803e3d6000fd5b505050506040513d60208110156110be57600080fd5b810190808051906020019092919050505073ffffffffffffffffffffffffffffffffffffffff1663e2e573e78b8a8a85815181106110f857fe5b60200260200101516040518463ffffffff1660e01b8152600401808481526020018373ffffffffffffffffffffffffffffffffffffffff1673ffffffffffffffffffffffffffffffffffffffff1681526020018281526020019350505050600060405180830381600087803b15801561117057600080fd5b505af1158015611184573d6000803e3d6000fd5b505050508080600101915050610f7e565b506000600560009054906101000a900473ffffffffffffffffffffffffffffffffffffffff1673ffffffffffffffffffffffffffffffffffffffff16632e3c59716040518163ffffffff1660e01b815260040160206040518083038186803b15801561120057600080fd5b505afa158015611214573d6000803e3d6000fd5b505050506040513d602081101561122a57600080fd5b810190808051906020019092919050505090506000600160009054906101000a900473ffffffffffffffffffffffffffffffffffffffff1673ffffffffffffffffffffffffffffffffffffffff1663358177736040518060400160405280600c81526020017f4b697474696548656c6c444200000000000000000000000000000000000000008152506040518263ffffffff1660e01b81526004018080602001828103825283818151815260200191508051906020019080838360005b838110156113025780820151818401526020810190506112e7565b50505050905090810190601f16801561132f5780820380516001836020036101000a031916815260200191505b509250505060206040518083038186803b15801561134c57600080fd5b505afa158015611360573d6000803e3d6000fd5b505050506040513d602081101561137657600080fd5b810190808051906020019092919050505073ffffffffffffffffffffffffffffffffffffffff16636ac3a7cf8c6040518263ffffffff1660e01b81526004018082815260200191505060206040518083038186803b1580156113d757600080fd5b505afa1580156113eb573d6000803e3d6000fd5b505050506040513d602081101561140157600080fd5b8101908080519060200190929190505050905080821461146c576040517f08c379a0000000000000000000000000000000000000000000000000000000008152600401808060200182810382526037815260200180614b656037913960400191505060405180910390fd5b600160009054906101000a900473ffffffffffffffffffffffffffffffffffffffff1673ffffffffffffffffffffffffffffffffffffffff1663358177736040518060400160405280601181526020017f556e69737761705632526f7574657230310000000000000000000000000000008152506040518263ffffffff1660e01b81526004018080602001828103825283818151815260200191508051906020019080838360005b8381101561152f578082015181840152602081019050611514565b50505050905090810190601f16801561155c5780820380516001836020036101000a031916815260200191505b509250505060206040518083038186803b15801561157957600080fd5b505afa15801561158d573d6000803e3d6000fd5b505050506040513d60208110156115a357600080fd5b810190808051906020019092919050505073ffffffffffffffffffffffffffffffffffffffff16637ff36ab5346000600a307f80000000000000000000000000000000000000000000000000000000000000006040518663ffffffff1660e01b815260040180858152602001806020018473ffffffffffffffffffffffffffffffffffffffff1673ffffffffffffffffffffffffffffffffffffffff16815260200183815260200182810382528581815481526020019150805480156116be57602002820191906000526020600020905b8160009054906101000a900473ffffffffffffffffffffffffffffffffffffffff1673ffffffffffffffffffffffffffffffffffffffff1681526020019060010190808311611674575b5050955050505050506000604051808303818588803b1580156116e057600080fd5b505af11580156116f4573d6000803e3d6000fd5b50505050506040513d6000823e3d601f19601f82011682018060405250602081101561171f57600080fd5b810190808051604051939291908464010000000082111561173f57600080fd5b8382019150602082018581111561175557600080fd5b825186602082028301116401000000008211171561177257600080fd5b8083526020830192505050908051906020019060200280838360005b838110156117a957808201518184015260208101905061178e565b5050505090500160405250505050600860009054906101000a900473ffffffffffffffffffffffffffffffffffffffff1673ffffffffffffffffffffffffffffffffffffffff1663a06a1e498b34866040518463ffffffff1660e01b8152600401808481526020018381526020018281526020019350505050600060405180830381600087803b15801561183c57600080fd5b505af1158015611850573d6000803e3d6000fd5b50505050600160009054906101000a900473ffffffffffffffffffffffffffffffffffffffff1673ffffffffffffffffffffffffffffffffffffffff1663358177736040518060400160405280600c81526020017f4b697474696548656c6c444200000000000000000000000000000000000000008152506040518263ffffffff1660e01b81526004018080602001828103825283818151815260200191508051906020019080838360005b838110156119175780820151818401526020810190506118fc565b50505050905090810190601f1680156119445780820380516001836020036101000a031916815260200191505b509250505060206040518083038186803b15801561196157600080fd5b505afa158015611975573d6000803e3d6000fd5b505050506040513d602081101561198b57600080fd5b810190808051906020019092919050505073ffffffffffffffffffffffffffffffffffffffff1663f557bd218c856040518363ffffffff1660e01b81526004018083815260200182815260200192505050600060405180830381600087803b1580156119f657600080fd5b505af1158015611a0a573d6000803e3d6000fd5b50505050611a178b613ce7565b506000600d60008d815260200190815260200160002060000160146101000a81548160ff0219169083151502179055508a7fd4d51c312159841bc0f88ceac557ccd2fdcc43738eb15e6d34bf92a9553e2a9660405160405180910390a260019650505050505050949350505050565b600082600073ffffffffffffffffffffffffffffffffffffffff16600d600083815260200190815260200160002060000160009054906101000a900473ffffffffffffffffffffffffffffffffffffffff1673ffffffffffffffffffffffffffffffffffffffff1614611af857600080fd5b6040518060400160405280600981526020017f5363686564756c657200000000000000000000000000000000000000000000008152506040518060400160405280600c81526020017f47616d654372656174696f6e0000000000000000000000000000000000000000815250611b6d82614175565b80611b7d5750611b7c81614175565b5b611bd2576040517f08c379a000000000000000000000000000000000000000000000000000000000815260040180806020018281038252602d815260200180614b9c602d913960400191505060405180910390fd5b611bdc86866143d7565b935050505092915050565b600c6020528060005260406000206000915090505481565b600460009054906101000a900473ffffffffffffffffffffffffffffffffffffffff1681565b6000806000806000600d600087815260200190815260200160002060000160009054906101000a900473ffffffffffffffffffffffffffffffffffffffff169450600d600087815260200190815260200160002060000160149054906101000a900460ff169350600d600087815260200190815260200160002060000160159054906101000a900460ff169250600d600087815260200190815260200160002060000160169054906101000a900460ff169150600d600087815260200190815260200160002060010154905091939590929450565b6000600d6000838152602001908152602001600020600101549050919050565b600960009054906101000a900473ffffffffffffffffffffffffffffffffffffffff1681565b600082600073ffffffffffffffffffffffffffffffffffffffff16600d600083815260200190815260200160002060000160009054906101000a900473ffffffffffffffffffffffffffffffffffffffff1673ffffffffffffffffffffffffffffffffffffffff161415611db357600080fd5b6040518060400160405280600c81526020017f47616d654372656174696f6e0000000000000000000000000000000000000000815250611df281614175565b611e47576040517f08c379a000000000000000000000000000000000000000000000000000000000815260040180806020018281038252602d815260200180614b9c602d913960400191505060405180910390fd5b6001600d600087815260200190815260200160002060000160146101000a81548160ff02191690831515021790555042600d600087815260200190815260200160002060010181905550611f4885600660009054906101000a900473ffffffffffffffffffffffffffffffffffffffff1673ffffffffffffffffffffffffffffffffffffffff16633c38d0a9876040518263ffffffff1660e01b81526004018082815260200191505060206040518083038186803b158015611f0857600080fd5b505afa158015611f1c573d6000803e3d6000fd5b505050506040513d6020811015611f3257600080fd5b810190808051906020019092919050505061463f565b50847fe3c2803d4712f4365991eb0000ddfd60fb9103321ea17f42eb9c180824c994e460405160405180910390a260019250505092915050565b600081600073ffffffffffffffffffffffffffffffffffffffff16600d600083815260200190815260200160002060000160009054906101000a900473ffffffffffffffffffffffffffffffffffffffff1673ffffffffffffffffffffffffffffffffffffffff161415611ff557600080fd5b600d600084815260200190815260200160002060000160149054906101000a900460ff16915050919050565b6000809054906101000a900473ffffffffffffffffffffffffffffffffffffffff1673ffffffffffffffffffffffffffffffffffffffff163373ffffffffffffffffffffffffffffffffffffffff161461207757fe5b600160009054906101000a900473ffffffffffffffffffffffffffffffffffffffff1673ffffffffffffffffffffffffffffffffffffffff1663358177736040518060400160405280600781526020017f43726f6e4a6f62000000000000000000000000000000000000000000000000008152506040518263ffffffff1660e01b81526004018080602001828103825283818151815260200191508051906020019080838360005b8381101561213a57808201518184015260208101905061211f565b50505050905090810190601f1680156121675780820380516001836020036101000a031916815260200191505b509250505060206040518083038186803b15801561218457600080fd5b505afa158015612198573d6000803e3d6000fd5b505050506040513d60208110156121ae57600080fd5b8101908080519060200190929190505050600260006101000a81548173ffffffffffffffffffffffffffffffffffffffff021916908373ffffffffffffffffffffffffffffffffffffffff160217905550600160009054906101000a900473ffffffffffffffffffffffffffffffffffffffff1673ffffffffffffffffffffffffffffffffffffffff1663358177736040518060400160405280600d81526020017f43727970746f4b697474696573000000000000000000000000000000000000008152506040518263ffffffff1660e01b81526004018080602001828103825283818151815260200191508051906020019080838360005b838110156122c25780820151818401526020810190506122a7565b50505050905090810190601f1680156122ef5780820380516001836020036101000a031916815260200191505b509250505060206040518083038186803b15801561230c57600080fd5b505afa158015612320573d6000803e3d6000fd5b505050506040513d602081101561233657600080fd5b8101908080519060200190929190505050600360006101000a81548173ffffffffffffffffffffffffffffffffffffffff021916908373ffffffffffffffffffffffffffffffffffffffff160217905550600160009054906101000a900473ffffffffffffffffffffffffffffffffffffffff1673ffffffffffffffffffffffffffffffffffffffff1663358177736040518060400160405280601081526020017f4b69747469654669676874546f6b656e000000000000000000000000000000008152506040518263ffffffff1660e01b81526004018080602001828103825283818151815260200191508051906020019080838360005b8381101561244a57808201518184015260208101905061242f565b50505050905090810190601f1680156124775780820380516001836020036101000a031916815260200191505b509250505060206040518083038186803b15801561249457600080fd5b505afa1580156124a8573d6000803e3d6000fd5b505050506040513d60208110156124be57600080fd5b8101908080519060200190929190505050600460006101000a81548173ffffffffffffffffffffffffffffffffffffffff021916908373ffffffffffffffffffffffffffffffffffffffff160217905550600160009054906101000a900473ffffffffffffffffffffffffffffffffffffffff1673ffffffffffffffffffffffffffffffffffffffff1663358177736040518060400160405280600d81526020017f47616d65566172416e64466565000000000000000000000000000000000000008152506040518263ffffffff1660e01b81526004018080602001828103825283818151815260200191508051906020019080838360005b838110156125d25780820151818401526020810190506125b7565b50505050905090810190601f1680156125ff5780820380516001836020036101000a031916815260200191505b509250505060206040518083038186803b15801561261c57600080fd5b505afa158015612630573d6000803e3d6000fd5b505050506040513d602081101561264657600080fd5b8101908080519060200190929190505050600560006101000a81548173ffffffffffffffffffffffffffffffffffffffff021916908373ffffffffffffffffffffffffffffffffffffffff160217905550600160009054906101000a900473ffffffffffffffffffffffffffffffffffffffff1673ffffffffffffffffffffffffffffffffffffffff1663358177736040518060400160405280600981526020017f47616d6553746f726500000000000000000000000000000000000000000000008152506040518263ffffffff1660e01b81526004018080602001828103825283818151815260200191508051906020019080838360005b8381101561275a57808201518184015260208101905061273f565b50505050905090810190601f1680156127875780820380516001836020036101000a031916815260200191505b509250505060206040518083038186803b1580156127a457600080fd5b505afa1580156127b8573d6000803e3d6000fd5b505050506040513d60208110156127ce57600080fd5b8101908080519060200190929190505050600660006101000a81548173ffffffffffffffffffffffffffffffffffffffff021916908373ffffffffffffffffffffffffffffffffffffffff160217905550600160009054906101000a900473ffffffffffffffffffffffffffffffffffffffff1673ffffffffffffffffffffffffffffffffffffffff1663358177736040518060400160405280600a81526020017f474d4765747465724442000000000000000000000000000000000000000000008152506040518263ffffffff1660e01b81526004018080602001828103825283818151815260200191508051906020019080838360005b838110156128e25780820151818401526020810190506128c7565b50505050905090810190601f16801561290f5780820380516001836020036101000a031916815260200191505b509250505060206040518083038186803b15801561292c57600080fd5b505afa158015612940573d6000803e3d6000fd5b505050506040513d602081101561295657600080fd5b8101908080519060200190929190505050600760006101000a81548173ffffffffffffffffffffffffffffffffffffffff021916908373ffffffffffffffffffffffffffffffffffffffff160217905550600160009054906101000a900473ffffffffffffffffffffffffffffffffffffffff1673ffffffffffffffffffffffffffffffffffffffff1663358177736040518060400160405280600a81526020017f474d5365747465724442000000000000000000000000000000000000000000008152506040518263ffffffff1660e01b81526004018080602001828103825283818151815260200191508051906020019080838360005b83811015612a6a578082015181840152602081019050612a4f565b50505050905090810190601f168015612a975780820380516001836020036101000a031916815260200191505b509250505060206040518083038186803b158015612ab457600080fd5b505afa158015612ac8573d6000803e3d6000fd5b505050506040513d6020811015612ade57600080fd5b8101908080519060200190929190505050600860006101000a81548173ffffffffffffffffffffffffffffffffffffffff021916908373ffffffffffffffffffffffffffffffffffffffff160217905550600160009054906101000a900473ffffffffffffffffffffffffffffffffffffffff1673ffffffffffffffffffffffffffffffffffffffff1663358177736040518060400160405280600d81526020017f456e646f776d656e7446756e64000000000000000000000000000000000000008152506040518263ffffffff1660e01b81526004018080602001828103825283818151815260200191508051906020019080838360005b83811015612bf2578082015181840152602081019050612bd7565b50505050905090810190601f168015612c1f5780820380516001836020036101000a031916815260200191505b509250505060206040518083038186803b158015612c3c57600080fd5b505afa158015612c50573d6000803e3d6000fd5b505050506040513d6020811015612c6657600080fd5b8101908080519060200190929190505050600960006101000a81548173ffffffffffffffffffffffffffffffffffffffff021916908373ffffffffffffffffffffffffffffffffffffffff1602179055506000600160009054906101000a900473ffffffffffffffffffffffffffffffffffffffff1673ffffffffffffffffffffffffffffffffffffffff1663358177736040518060400160405280600581526020017f57455448390000000000000000000000000000000000000000000000000000008152506040518263ffffffff1660e01b81526004018080602001828103825283818151815260200191508051906020019080838360005b83811015612d7c578082015181840152602081019050612d61565b50505050905090810190601f168015612da95780820380516001836020036101000a031916815260200191505b509250505060206040518083038186803b158015612dc657600080fd5b505afa158015612dda573d6000803e3d6000fd5b505050506040513d6020811015612df057600080fd5b81019080805190602001909291905050509050600a8190806001815401808255809150509060018203906000526020600020016000909192909190916101000a81548173ffffffffffffffffffffffffffffffffffffffff021916908373ffffffffffffffffffffffffffffffffffffffff160217905550506000600160009054906101000a900473ffffffffffffffffffffffffffffffffffffffff1673ffffffffffffffffffffffffffffffffffffffff1663358177736040518060400160405280601081526020017f4b69747469654669676874546f6b656e000000000000000000000000000000008152506040518263ffffffff1660e01b81526004018080602001828103825283818151815260200191508051906020019080838360005b83811015612f2e578082015181840152602081019050612f13565b50505050905090810190601f168015612f5b5780820380516001836020036101000a031916815260200191505b509250505060206040518083038186803b158015612f7857600080fd5b505afa158015612f8c573d6000803e3d6000fd5b505050506040513d6020811015612fa257600080fd5b81019080805190602001909291905050509050600a8190806001815401808255809150509060018203906000526020600020016000909192909190916101000a81548173ffffffffffffffffffffffffffffffffffffffff021916908373ffffffffffffffffffffffffffffffffffffffff160217905550505050565b600d6020528060005260406000206000915090508060000160009054906101000a900473ffffffffffffffffffffffffffffffffffffffff16908060000160149054906101000a900460ff16908060000160159054906101000a900460ff16908060000160169054906101000a900460ff16908060010154905085565b6000809054906101000a900473ffffffffffffffffffffffffffffffffffffffff1681565b6000809054906101000a900473ffffffffffffffffffffffffffffffffffffffff1673ffffffffffffffffffffffffffffffffffffffff163373ffffffffffffffffffffffffffffffffffffffff161461311757fe5b80600160006101000a81548173ffffffffffffffffffffffffffffffffffffffff021916908373ffffffffffffffffffffffffffffffffffffffff16021790555050565b600b5481565b600560009054906101000a900473ffffffffffffffffffffffffffffffffffffffff1681565b600a818154811061319457fe5b906000526020600020016000915054906101000a900473ffffffffffffffffffffffffffffffffffffffff1681565b600660009054906101000a900473ffffffffffffffffffffffffffffffffffffffff1681565b600260009054906101000a900473ffffffffffffffffffffffffffffffffffffffff1681565b600081600073ffffffffffffffffffffffffffffffffffffffff16600d600083815260200190815260200160002060000160009054906101000a900473ffffffffffffffffffffffffffffffffffffffff1673ffffffffffffffffffffffffffffffffffffffff16141561328257600080fd5b6040518060400160405280600781526020017f43726f6e4a6f62000000000000000000000000000000000000000000000000008152506132c181614175565b613316576040517f08c379a000000000000000000000000000000000000000000000000000000000815260040180806020018281038252602d815260200180614b9c602d913960400191505060405180910390fd5b6001600d600086815260200190815260200160002060000160166101000a81548160ff021916908315150217905550600360009054906101000a900473ffffffffffffffffffffffffffffffffffffffff1673ffffffffffffffffffffffffffffffffffffffff1663a9059cbb600160009054906101000a900473ffffffffffffffffffffffffffffffffffffffff1673ffffffffffffffffffffffffffffffffffffffff1663358177736040518060400160405280600c81526020017f4b697474696548656c6c444200000000000000000000000000000000000000008152506040518263ffffffff1660e01b81526004018080602001828103825283818151815260200191508051906020019080838360005b8381101561344657808201518184015260208101905061342b565b50505050905090810190601f1680156134735780820380516001836020036101000a031916815260200191505b509250505060206040518083038186803b15801561349057600080fd5b505afa1580156134a4573d6000803e3d6000fd5b505050506040513d60208110156134ba57600080fd5b8101908080519060200190929190505050866040518363ffffffff1660e01b8152600401808373ffffffffffffffffffffffffffffffffffffffff1673ffffffffffffffffffffffffffffffffffffffff16815260200182815260200192505050600060405180830381600087803b15801561353557600080fd5b505af1158015613549573d6000803e3d6000fd5b50505050600160009054906101000a900473ffffffffffffffffffffffffffffffffffffffff1673ffffffffffffffffffffffffffffffffffffffff1663358177736040518060400160405280600c81526020017f4b697474696548656c6c444200000000000000000000000000000000000000008152506040518263ffffffff1660e01b81526004018080602001828103825283818151815260200191508051906020019080838360005b838110156136105780820151818401526020810190506135f5565b50505050905090810190601f16801561363d5780820380516001836020036101000a031916815260200191505b509250505060206040518083038186803b15801561365a57600080fd5b505afa15801561366e573d6000803e3d6000fd5b505050506040513d602081101561368457600080fd5b810190808051906020019092919050505073ffffffffffffffffffffffffffffffffffffffff1663ff6010ea85600d600088815260200190815260200160002060000160009054906101000a900473ffffffffffffffffffffffffffffffffffffffff166040518363ffffffff1660e01b8152600401808381526020018273ffffffffffffffffffffffffffffffffffffffff1673ffffffffffffffffffffffffffffffffffffffff16815260200192505050600060405180830381600087803b15801561375157600080fd5b505af1158015613765573d6000803e3d6000fd5b50505050837fc92c3df591b9dd981f3e731d0d939b120ea9989453612504a1a2ddcc291f735960405160405180910390a2600192505050919050565b600160009054906101000a900473ffffffffffffffffffffffffffffffffffffffff1681565b600360009054906101000a900473ffffffffffffffffffffffffffffffffffffffff1681565b600860009054906101000a900473ffffffffffffffffffffffffffffffffffffffff1681565b6000809054906101000a900473ffffffffffffffffffffffffffffffffffffffff1673ffffffffffffffffffffffffffffffffffffffff163373ffffffffffffffffffffffffffffffffffffffff161461386957fe5b600073ffffffffffffffffffffffffffffffffffffffff168173ffffffffffffffffffffffffffffffffffffffff16146138de57806000806101000a81548173ffffffffffffffffffffffffffffffffffffffff021916908373ffffffffffffffffffffffffffffffffffffffff1602179055505b50565b600073ffffffffffffffffffffffffffffffffffffffff16600160009054906101000a900473ffffffffffffffffffffffffffffffffffffffff1673ffffffffffffffffffffffffffffffffffffffff1614156139a6576040517f08c379a00000000000000000000000000000000000000000000000000000000081526004018080602001828103825260088152602001807f4e6f2050726f787900000000000000000000000000000000000000000000000081525060200191505060405180910390fd5b600160009054906101000a900473ffffffffffffffffffffffffffffffffffffffff1673ffffffffffffffffffffffffffffffffffffffff163373ffffffffffffffffffffffffffffffffffffffff1614613a69576040517f08c379a00000000000000000000000000000000000000000000000000000000081526004018080602001828103825260128152602001807f4f6e6c79207468726f7567682050726f7879000000000000000000000000000081525060200191505060405180910390fd5b565b6000600160009054906101000a900473ffffffffffffffffffffffffffffffffffffffff1673ffffffffffffffffffffffffffffffffffffffff1663358177736040518060400160405280600681526020017f526f6c65444200000000000000000000000000000000000000000000000000008152506040518263ffffffff1660e01b81526004018080602001828103825283818151815260200191508051906020019080838360005b83811015613b30578082015181840152602081019050613b15565b50505050905090810190601f168015613b5d5780820380516001836020036101000a031916815260200191505b509250505060206040518083038186803b158015613b7a57600080fd5b505afa158015613b8e573d6000803e3d6000fd5b505050506040513d6020811015613ba457600080fd5b810190808051906020019092919050505073ffffffffffffffffffffffffffffffffffffffff16636c9cd09783613bd9614a47565b6040518363ffffffff1660e01b815260040180806020018373ffffffffffffffffffffffffffffffffffffffff1673ffffffffffffffffffffffffffffffffffffffff168152602001828103825284818151815260200191508051906020019080838360005b83811015613c5a578082015181840152602081019050613c3f565b50505050905090810190601f168015613c875780820380516001836020036101000a031916815260200191505b50935050505060206040518083038186803b158015613ca557600080fd5b505afa158015613cb9573d6000803e3d6000fd5b505050506040513d6020811015613ccf57600080fd5b81019080805190602001909291905050509050919050565b600081600073ffffffffffffffffffffffffffffffffffffffff16600d600083815260200190815260200160002060000160009054906101000a900473ffffffffffffffffffffffffffffffffffffffff1673ffffffffffffffffffffffffffffffffffffffff161415613d5a57600080fd5b600360009054906101000a900473ffffffffffffffffffffffffffffffffffffffff1673ffffffffffffffffffffffffffffffffffffffff1663a9059cbb600d600086815260200190815260200160002060000160009054906101000a900473ffffffffffffffffffffffffffffffffffffffff16856040518363ffffffff1660e01b8152600401808373ffffffffffffffffffffffffffffffffffffffff1673ffffffffffffffffffffffffffffffffffffffff16815260200182815260200192505050600060405180830381600087803b158015613e3957600080fd5b505af1158015613e4d573d6000803e3d6000fd5b505050506000600d600085815260200190815260200160002060000160006101000a81548173ffffffffffffffffffffffffffffffffffffffff021916908373ffffffffffffffffffffffffffffffffffffffff160217905550600d600084815260200190815260200160002060000160149054906101000a900460ff161561413e576000600160009054906101000a900473ffffffffffffffffffffffffffffffffffffffff1673ffffffffffffffffffffffffffffffffffffffff1663358177736040518060400160405280600781526020017f43726f6e4a6f62000000000000000000000000000000000000000000000000008152506040518263ffffffff1660e01b81526004018080602001828103825283818151815260200191508051906020019080838360005b83811015613f95578082015181840152602081019050613f7a565b50505050905090810190601f168015613fc25780820380516001836020036101000a031916815260200191505b509250505060206040518083038186803b158015613fdf57600080fd5b505afa158015613ff3573d6000803e3d6000fd5b505050506040513d602081101561400957600080fd5b810190808051906020019092919050505090508073ffffffffffffffffffffffffffffffffffffffff16639d8f101f6040518060400160405280600a81526020017f4b697474696548656c6c00000000000000000000000000000000000000000000815250600c6000888152602001908152602001600020546040518363ffffffff1660e01b81526004018080602001838152602001828103825284818151815260200191508051906020019080838360005b838110156140d75780820151818401526020810190506140bc565b50505050905090810190601f1680156141045780820380516001836020036101000a031916815260200191505b509350505050600060405180830381600087803b15801561412457600080fd5b505af1158015614138573d6000803e3d6000fd5b50505050505b827fcae1898dd74d1ad040b5bf19b70685d75e1cc1223291c8db6c7b7c929b2a5b1560405160405180910390a26001915050919050565b60008073ffffffffffffffffffffffffffffffffffffffff16600160009054906101000a900473ffffffffffffffffffffffffffffffffffffffff1673ffffffffffffffffffffffffffffffffffffffff16141561423b576040517f08c379a00000000000000000000000000000000000000000000000000000000081526004018080602001828103825260088152602001807f4e6f2050726f787900000000000000000000000000000000000000000000000081525060200191505060405180910390fd5b6000600160009054906101000a900473ffffffffffffffffffffffffffffffffffffffff1673ffffffffffffffffffffffffffffffffffffffff166335817773846040518263ffffffff1660e01b81526004018080602001828103825283818151815260200191508051906020019080838360005b838110156142cb5780820151818401526020810190506142b0565b50505050905090810190601f1680156142f85780820380516001836020036101000a031916815260200191505b509250505060206040518083038186803b15801561431557600080fd5b505afa158015614329573d6000803e3d6000fd5b505050506040513d602081101561433f57600080fd5b81019080805190602001909291905050509050600073ffffffffffffffffffffffffffffffffffffffff168173ffffffffffffffffffffffffffffffffffffffff16141561438957fe5b8073ffffffffffffffffffffffffffffffffffffffff163373ffffffffffffffffffffffffffffffffffffffff1614915050919050565b6000828211156143cc57fe5b818303905092915050565b6000600360009054906101000a900473ffffffffffffffffffffffffffffffffffffffff1673ffffffffffffffffffffffffffffffffffffffff166323b872dd8330866040518463ffffffff1660e01b8152600401808473ffffffffffffffffffffffffffffffffffffffff1673ffffffffffffffffffffffffffffffffffffffff1681526020018373ffffffffffffffffffffffffffffffffffffffff1673ffffffffffffffffffffffffffffffffffffffff1681526020018281526020019350505050600060405180830381600087803b1580156144b657600080fd5b505af11580156144ca573d6000803e3d6000fd5b505050503073ffffffffffffffffffffffffffffffffffffffff16600360009054906101000a900473ffffffffffffffffffffffffffffffffffffffff1673ffffffffffffffffffffffffffffffffffffffff16636352211e856040518263ffffffff1660e01b81526004018082815260200191505060206040518083038186803b15801561455857600080fd5b505afa15801561456c573d6000803e3d6000fd5b505050506040513d602081101561458257600080fd5b810190808051906020019092919050505073ffffffffffffffffffffffffffffffffffffffff16146145b357600080fd5b81600d600085815260200190815260200160002060000160006101000a81548173ffffffffffffffffffffffffffffffffffffffff021916908373ffffffffffffffffffffffffffffffffffffffff160217905550827f39f7d7f5ff597fbdd01eac3107ab452e2f00f0f5c9cc01113d4e11561d88c4fa60405160405180910390a26001905092915050565b600080600160009054906101000a900473ffffffffffffffffffffffffffffffffffffffff1673ffffffffffffffffffffffffffffffffffffffff1663358177736040518060400160405280600781526020017f43726f6e4a6f62000000000000000000000000000000000000000000000000008152506040518263ffffffff1660e01b81526004018080602001828103825283818151815260200191508051906020019080838360005b838110156147055780820151818401526020810190506146ea565b50505050905090810190601f1680156147325780820380516001836020036101000a031916815260200191505b509250505060206040518083038186803b15801561474f57600080fd5b505afa158015614763573d6000803e3d6000fd5b505050506040513d602081101561477957600080fd5b810190808051906020019092919050505090508073ffffffffffffffffffffffffffffffffffffffff1663c19304966040518060400160405280600a81526020017f4b697474696548656c6c000000000000000000000000000000000000000000008152506147f18642614afc90919063ffffffff16565b87604051602401808281526020019150506040516020818303038152906040527fe092b3e3000000000000000000000000000000000000000000000000000000007bffffffffffffffffffffffffffffffffffffffffffffffffffffffff19166020820180517bffffffffffffffffffffffffffffffffffffffffffffffffffffffff83818316178352505050506040518463ffffffff1660e01b8152600401808060200184815260200180602001838103835286818151815260200191508051906020019080838360005b838110156148d85780820151818401526020810190506148bd565b50505050905090810190601f1680156149055780820380516001836020036101000a031916815260200191505b50838103825284818151815260200191508051906020019080838360005b8381101561493e578082015181840152602081019050614923565b50505050905090810190601f16801561496b5780820380516001836020036101000a031916815260200191505b5095505050505050602060405180830381600087803b15801561498d57600080fd5b505af11580156149a1573d6000803e3d6000fd5b505050506040513d60208110156149b757600080fd5b8101908080519060200190929190505050600b81905550600b54600c600086815260200190815260200160002081905550837fbdb3fa1032c10362fcfd2e3a7214b0e681d1a19640cdc58a12397eb72eadf0e6600b54614a208642614afc90919063ffffffff16565b604051808381526020018281526020019250505060405180910390a2600191505092915050565b6000600160009054906101000a900473ffffffffffffffffffffffffffffffffffffffff1673ffffffffffffffffffffffffffffffffffffffff163373ffffffffffffffffffffffffffffffffffffffff1614614aa657339050614af9565b6000601436036000602052601481602c37602051915050600073ffffffffffffffffffffffffffffffffffffffff168173ffffffffffffffffffffffffffffffffffffffff161415614af457fe5b809150505b90565b600080828401905083811015614b0e57fe5b809150509291505056fe4b545920616d6f756e74206d7573742062652067726561746572207468616e2030496e73756666696369656e742065746865727320746f2070617920666f7220726573757272656374696f6e506c65617365206d65657420746865207265717569726564206e756d626572206f66207361637269666963696e67206b6974746965732e416363657373206973206f6e6c7920616c6c6f7765642066726f6d20737065636966696320636f6e7472616374a265627a7a72315820448b018b0054002d02c8c7c60347d6815f1cd80698c67bc40251c6da59960be864736f6c63430005110032",
  "source": "pragma solidity ^0.5.5;\n\nimport \"../../libs/SafeMath.sol\";\nimport \"../../misc/BasicControls.sol\";\nimport \"../proxy/Proxied.sol\";\nimport \"../../authority/Guard.sol\";\nimport \"../../CronJob.sol\";\nimport \"../../interfaces/ERC721.sol\";\nimport \"../../interfaces/ERC20Standard.sol\";\nimport \"../../GameVarAndFee.sol\";\nimport \"../gamemanager/GameStore.sol\";\nimport \"../databases/GMGetterDB.sol\";\nimport \"../databases/GMSetterDB.sol\";\nimport \"../databases/KittieHellDB.sol\";\nimport \"../endowment/EndowmentFund.sol\";\nimport \"../../uniswapKTY/uniswap-v2-periphery/interfaces/IUniswapV2Router01.sol\";\nimport \"../endowment/KtyUniswap.sol\";\n\n/**\n * @title This contract is responsible to acquire ownership of participating kitties,\n * keep the mortality status and permanent lock them if needed.\n * @author @panos, @ugwu, @ziweidream @Xalee @wafflemakr\n * @notice This contract is able to lock kitties forever caution is advised\n */\ncontract KittieHell is BasicControls, Proxied, Guard {\n\n    using SafeMath for uint256;\n\n    CronJob public cronJob;\n    ERC721 public cryptoKitties;\n    ERC20Standard public kittieFightToken;\n    GameVarAndFee public gameVarAndFee;\n    GameStore public gameStore;\n    GMGetterDB public gmGetterDB;\n    GMSetterDB public gmSetterDB;\n    EndowmentFund public endowmentFund;\n    address[] public path;\n\n    uint256 public scheduledJob;\n    mapping (uint => uint) public scheduledJobs;\n\n    struct KittyStatus {\n        address owner;  // This is the owner before the kitty got transferred to us\n        bool dead;      // This is the mortality status of the kitty\n        bool playing;   // This is the current game participation status of the kitty\n        bool ghost;     // This is set to \"destroy\" or permanent kill the kitty\n        uint deadAt;    // Timestamp when the kitty is dead.\n    }\n\n    /* This is all the kitties owned and managed by the game */\n    mapping(uint256 => KittyStatus) public kitties;\n\n    function initialize() external onlyOwner {\n        cronJob = CronJob(proxy.getContract(CONTRACT_NAME_CRONJOB));\n        cryptoKitties = ERC721(proxy.getContract(CONTRACT_NAME_CRYPTOKITTIES));\n        kittieFightToken = ERC20Standard(proxy.getContract(CONTRACT_NAME_KITTIEFIGHTOKEN));\n        gameVarAndFee = GameVarAndFee(proxy.getContract(CONTRACT_NAME_GAMEVARANDFEE));\n        gameStore = GameStore(proxy.getContract(CONTRACT_NAME_GAMESTORE));\n        gmGetterDB = GMGetterDB(proxy.getContract(CONTRACT_NAME_GM_GETTER_DB));\n        gmSetterDB = GMSetterDB(proxy.getContract(CONTRACT_NAME_GM_SETTER_DB));\n        endowmentFund = EndowmentFund(proxy.getContract(CONTRACT_NAME_ENDOWMENT_FUND));\n\n        address _WETH = proxy.getContract(CONTRACT_NAME_WETH);\n        path.push(_WETH);\n        address _KTY = proxy.getContract(CONTRACT_NAME_KITTIEFIGHTOKEN);\n        path.push(_KTY);\n    }\n\n    /**\n     * @author @ugwu @ziweidream\n     * @notice transfer the ownership of a kittie to this contract\n     * @dev The last owner must be stored as a returned reference\n     * @dev This function can only be carried out via proxy\n     * @param _kittyID the kittie to acquire\n     * @return true if the acquisition was successful\n     */\n    function acquireKitty(uint256 _kittyID, address owner)\n        public\n        onlyNotOwnedKitty(_kittyID)\n        only2Contracts(CONTRACT_NAME_SCHEDULER, CONTRACT_NAME_GAMECREATION)\n        returns (bool)\n    {\n        return _acquireKitty(_kittyID, owner);\n    }\n\n    /**\n     * @author @ugwu @ziweidream\n     * @notice transfer the ownership of a kittie to this contract\n     * @dev The last owner must be stored as a returned reference\n     * @dev This function can only be carried out via proxy\n     * @param _kittyID the kittie to acquire\n     * @return true if the acquisition was successful\n     */\n    function _acquireKitty(uint256 _kittyID, address owner)\n        internal\n        returns (bool)\n    {\n        cryptoKitties.transferFrom(owner, address(this), _kittyID);\n        require(cryptoKitties.ownerOf(_kittyID) == address(this));\n        kitties[_kittyID].owner = owner;\n        emit KittyAcquired(_kittyID);\n        return true;\n    }\n\n    /**\n     * @author @ziweidream\n     * @notice Getting kitty `_kittyID` mortality status\n     * @param _kittyID The kitty to get status\n     * @return true/false if the kitty ID is dead or not\n     */\n    function isKittyDead(uint256 _kittyID)\n    public\n    view\n    onlyOwnedKitty(_kittyID)\n    returns (bool) {\n        return kitties[_kittyID].dead;\n    }\n\n    /**\n     * @author @ziweidream\n     * @notice Killing kitty `_kittyID`\n     * @dev This function can only be carried out via CronJOb\n     * @param _kittyID The kitty to kill\n     * @return true/false if the kitty ID is killed or not\n     */\n    function killKitty(uint256 _kittyID, uint gameId)\n    public\n    onlyOwnedKitty(_kittyID)\n    onlyContract(CONTRACT_NAME_GAMECREATION)\n    returns (bool) {\n        kitties[_kittyID].dead = true;\n        kitties[_kittyID].deadAt = now;\n        scheduleBecomeGhost(_kittyID, gameStore.getKittieExpirationTime(gameId));\n        emit KittyDied(_kittyID);\n        return true;\n    }\n\n    /**\n     * @author @ziweidream\n     * @notice Getting kitty `_kittyID` death time\n     * @param _kittyID The kitty whose death time is requested\n     * @return the kitty's death time\n     */\n    function kittyDeathTime(uint256 _kittyID) public view returns(uint) {\n        return kitties[_kittyID].deadAt;\n    }\n\n     /**\n     * @author @ziweidream\n     * @notice Resurrecting kitty `_kittyID`\n     * @param _kittyID The kitty to resurrect\n     * @dev The kitty must not be permanent dead\n     * @dev This function can only be carried out via proxy\n     * @dev This function can only proceed after the required number of replacement kitties have become permanent ghosts\n     * @dev The ressurection payment is in KTY tokens and locked/burned in kittieHELL contract\n     * @return true/false if the kitty ID is resurrected or not\n     */\n\n    function payForResurrection\n    (\n        uint256 _kittyID,\n        uint gameId,\n        address _owner,\n        uint256[] memory sacrificeKitties\n    )\n        public\n        payable\n        onlyOwnedKitty(_kittyID)\n        onlyNotGhostKitty(_kittyID)\n        onlyProxy\n    returns (bool) {\n        (uint ethersNeeded, uint256 tokenAmount) = gameStore.getKittieRedemptionFee(gameId);\n        require(tokenAmount > 0, \"KTY amount must be greater than 0\");\n        require(msg.value >= ethersNeeded.sub(10000000000000), \"Insufficient ethers to pay for resurrection\");\n        for (uint i = 0; i < sacrificeKitties.length; i++) {\n            KittieHellDB(proxy.getContract(CONTRACT_NAME_KITTIEHELL_DB)).sacrificeKittieToHell(_kittyID, _owner, sacrificeKitties[i]);\n        }\n        uint256 requiredNumberOfSacrificeKitties = gameVarAndFee.getRequiredKittieSacrificeNum();\n        uint256 numberOfSacrificeKitties = KittieHellDB(proxy.getContract(CONTRACT_NAME_KITTIEHELL_DB)).getNumberOfSacrificeKitties(_kittyID);\n        require(requiredNumberOfSacrificeKitties == numberOfSacrificeKitties, \"Please meet the required number of sacrificing kitties.\");\n        //kittieFightToken.transferFrom(kitties[_kittyID].owner, address(this), tokenAmount);\n        // exchange KTY on uniswap\n        IUniswapV2Router01(proxy.getContract(CONTRACT_NAME_UNISWAPV2_ROUTER)).swapExactETHForTokens.value(msg.value)(\n            0,\n            path,\n            address(this),\n            2**255\n        );\n\n        // record kittie redemption fee in total spent in game\n        gmSetterDB.setTotalSpentInGame(gameId, msg.value, tokenAmount);\n\n        KittieHellDB(proxy.getContract(CONTRACT_NAME_KITTIEHELL_DB)).lockKTYsInKittieHell(_kittyID, tokenAmount);\n        releaseKitty(_kittyID);\n        kitties[_kittyID].dead = false;\n        emit KittyResurrected(_kittyID);\n        return true;\n    }\n\n    /**\n     * @author @ugwu @ziweidream\n     * @notice transfer the ownership of a kittie back to its previous owner\n     * @dev The kitty must be owned by the game\n     * @dev This function can only be carried out via proxy\n     * @param _kittyID The kittie to release\n     * @return true if the release was successful\n     */\n    function releaseKitty(uint256 _kittyID)\n        internal\n        onlyOwnedKitty(_kittyID)\n    returns (bool) {\n        cryptoKitties.transfer(kitties[_kittyID].owner, _kittyID);\n        kitties[_kittyID].owner = address(0);\n        if(kitties[_kittyID].dead){\n            CronJob cron = CronJob(proxy.getContract(CONTRACT_NAME_CRONJOB));\n            cron.deleteCronJob(CONTRACT_NAME_KITTIEHELL, scheduledJobs[_kittyID]);\n        }\n        emit KittyReleased(_kittyID);\n        return true;\n    }\n\n    function releaseKittyGameManager(uint256 _kittyID)\n        public\n        only2Contracts(CONTRACT_NAME_FORFEITER, CONTRACT_NAME_GAMECREATION)\n    returns (bool) {\n        releaseKitty(_kittyID);\n    }\n\n    function adminRelease(uint256 _kittyID)\n        public\n        onlyProxy\n        onlySuperAdmin\n    {\n        releaseKitty(_kittyID);\n    }\n\n    function scheduleBecomeGhost(uint256 _kittyID, uint256 _delay)\n        internal\n        returns(bool)\n    {\n        CronJob cron = CronJob(proxy.getContract(CONTRACT_NAME_CRONJOB));\n        scheduledJob = cron.addCronJob(\n            CONTRACT_NAME_KITTIEHELL,\n            now.add(_delay),\n            abi.encodeWithSignature(\"becomeGhost(uint256)\", _kittyID));\n        scheduledJobs[_kittyID] = scheduledJob;\n        emit Scheduled(scheduledJob, now.add(_delay), _kittyID);\n        return true;\n    }\n\n    /**\n     * @author @ziweidream\n     * @dev The kitty must be owned by the game\n     * @dev This function can only be carried out via CronJob\n     * @dev This function will make a kitty permanently dead\n     * @param _kittyID The kittie to become ghost\n     * @return true if the kittie became a ghost and transferred to KittieHellDB\n     */\n    function becomeGhost(uint256 _kittyID)\n        public\n        onlyOwnedKitty(_kittyID)\n        onlyContract(CONTRACT_NAME_CRONJOB)\n        returns (bool)\n    {\n        //unnecessary to check kittie expiration time since this is ensured by cronjob\n        //uint kittieExpiry = gameStore.getKittieExpirationTime(_gameId);\n\t    //require(now.sub(kitties[_kittyID].deadAt) > kittieExpiry);\n        kitties[_kittyID].ghost = true;\n        cryptoKitties.transfer(proxy.getContract(CONTRACT_NAME_KITTIEHELL_DB), _kittyID);\n        KittieHellDB(proxy.getContract(CONTRACT_NAME_KITTIEHELL_DB)).loserKittieToHell(_kittyID, kitties[_kittyID].owner);\n        emit KittyPermanentDeath(_kittyID);\n        return true;\n    }\n\n    /**\n     * @author @ziweidream\n     * @param _kittyID The kittie to release\n     * @return the previous kitty owner, the kitty dead status, the kitty playing status, the kitty ghost status, and the kitty death time   \n     */\n    function getKittyStatus(uint256 _kittyID) public view returns (address _owner, bool _dead, bool _playing, bool _ghost, uint _deadAt) {\n        _owner = kitties[_kittyID].owner;\n        _dead = kitties[_kittyID].dead;\n        _playing = kitties[_kittyID].playing;\n        _ghost = kitties[_kittyID].ghost;\n        _deadAt = kitties[_kittyID].deadAt;\n    }\n\n    /*\n     * Use the owner field as a control indicator to check if\n     * the kitty is owned by the game\n     */\n    modifier onlyOwnedKitty(uint256 _kittyID) {\n        require(kitties[_kittyID].owner != address(0));\n        _;\n    }\n\n    /*\n     * Use the owner field as a control indicator to check if\n     * the kitty is not already owned by the game\n     */\n    modifier onlyNotOwnedKitty(uint256 _kittyID) {\n        require(kitties[_kittyID].owner == address(0));\n        _;\n    }\n\n    /*\n     * Use the ghost field as a control indicator to check if\n     * the kitty is not permanent killed\n     */\n    modifier onlyNotGhostKitty(uint256 _kittyID) {\n        require(!kitties[_kittyID].ghost);\n        _;\n    }\n\n    /*\n     * Use the dead field as a control indicator to check if\n     * the kitty is not temporary killed\n     */\n    modifier onlyNotKilledKitty(uint256 _kittyID) {\n        require(!kitties[_kittyID].dead);\n        _;\n    }\n\n    event KittyAcquired(uint256 indexed _kittyID);\n\n    event KittyReleased(uint256 indexed _kittyID);\n\n    event KittyDied(uint256 indexed _kittyID);\n\n    event KittyResurrected(uint256 indexed _kittyID);\n\n    event KittyPermanentDeath(uint256 indexed _kittyID);\n\n    event Scheduled(uint256 scheduledJob, uint256 time, uint256 indexed kittyID);\n}\n\n",
  "sourcePath": "/Users/ziweizhang/Desktop/multi-sig/contracts/contracts/modules/kittieHELL/KittieHell.sol",
  "compiler": {
    "name": "solc",
    "version": "0.5.17+commit.d19bba13.Emscripten.clang"
  },
  "schemaVersion": "3.0.23",
  "updatedAt": "2020-07-19T02:22:02.151Z",
  "devdoc": {
    "author": "@panos, @ugwu, @ziweidream @Xalee @wafflemakr",
    "methods": {
      "acquireKitty(uint256,address)": {
        "author": "@ugwu @ziweidream",
        "details": "The last owner must be stored as a returned referenceThis function can only be carried out via proxy",
        "params": {
          "_kittyID": "the kittie to acquire"
        },
        "return": "true if the acquisition was successful"
      },
      "becomeGhost(uint256)": {
        "author": "@ziweidream",
        "details": "The kitty must be owned by the gameThis function can only be carried out via CronJobThis function will make a kitty permanently dead",
        "params": {
          "_kittyID": "The kittie to become ghost"
        },
        "return": "true if the kittie became a ghost and transferred to KittieHellDB"
      },
      "getKittyStatus(uint256)": {
        "author": "@ziweidream",
        "params": {
          "_kittyID": "The kittie to release"
        },
        "return": "the previous kitty owner, the kitty dead status, the kitty playing status, the kitty ghost status, and the kitty death time   "
      },
      "isKittyDead(uint256)": {
        "author": "@ziweidream",
        "params": {
          "_kittyID": "The kitty to get status"
        },
        "return": "true/false if the kitty ID is dead or not"
      },
      "killKitty(uint256,uint256)": {
        "author": "@ziweidream",
        "details": "This function can only be carried out via CronJOb",
        "params": {
          "_kittyID": "The kitty to kill"
        },
        "return": "true/false if the kitty ID is killed or not"
      },
      "kittyDeathTime(uint256)": {
        "author": "@ziweidream",
        "params": {
          "_kittyID": "The kitty whose death time is requested"
        },
        "return": "the kitty's death time"
      },
      "payForResurrection(uint256,uint256,address,uint256[])": {
        "author": "@ziweidream",
        "details": "The kitty must not be permanent deadThis function can only be carried out via proxyThis function can only proceed after the required number of replacement kitties have become permanent ghostsThe ressurection payment is in KTY tokens and locked/burned in kittieHELL contract",
        "params": {
          "_kittyID": "The kitty to resurrect"
        },
        "return": "true/false if the kitty ID is resurrected or not"
      }
    },
    "title": "This contract is responsible to acquire ownership of participating kitties, keep the mortality status and permanent lock them if needed."
  },
  "userdoc": {
    "methods": {
      "acquireKitty(uint256,address)": {
        "notice": "transfer the ownership of a kittie to this contract"
      },
      "isKittyDead(uint256)": {
        "notice": "Getting kitty `_kittyID` mortality status"
      },
      "killKitty(uint256,uint256)": {
        "notice": "Killing kitty `_kittyID`"
      },
      "kittyDeathTime(uint256)": {
        "notice": "Getting kitty `_kittyID` death time"
      },
      "payForResurrection(uint256,uint256,address,uint256[])": {
        "notice": "Resurrecting kitty `_kittyID`"
      },
      "setProxy(address)": {
        "notice": "Set/update address of Proxy contract"
      }
    },
    "notice": "This contract is able to lock kitties forever caution is advised"
  }
}