{
  "contractName": "KittieHell",
  "abi": [
    {
      "constant": true,
      "inputs": [],
      "name": "gmGetterDB",
      "outputs": [
        {
          "internalType": "contract GMGetterDB",
          "name": "",
          "type": "address"
        }
      ],
      "payable": false,
      "stateMutability": "view",
      "type": "function"
    },
    {
      "constant": true,
      "inputs": [
        {
          "internalType": "uint256",
          "name": "",
          "type": "uint256"
        }
      ],
      "name": "scheduledJobs",
      "outputs": [
        {
          "internalType": "uint256",
          "name": "",
          "type": "uint256"
        }
      ],
      "payable": false,
      "stateMutability": "view",
      "type": "function"
    },
    {
      "constant": true,
      "inputs": [],
      "name": "kittieFightToken",
      "outputs": [
        {
          "internalType": "contract ERC20Standard",
          "name": "",
          "type": "address"
        }
      ],
      "payable": false,
      "stateMutability": "view",
      "type": "function"
    },
    {
      "constant": true,
      "inputs": [],
      "name": "endowmentFund",
      "outputs": [
        {
          "internalType": "contract EndowmentFund",
          "name": "",
          "type": "address"
        }
      ],
      "payable": false,
      "stateMutability": "view",
      "type": "function"
    },
    {
      "constant": true,
      "inputs": [
        {
          "internalType": "uint256",
          "name": "",
          "type": "uint256"
        }
      ],
      "name": "kitties",
      "outputs": [
        {
          "internalType": "address",
          "name": "owner",
          "type": "address"
        },
        {
          "internalType": "bool",
          "name": "dead",
          "type": "bool"
        },
        {
          "internalType": "bool",
          "name": "playing",
          "type": "bool"
        },
        {
          "internalType": "bool",
          "name": "ghost",
          "type": "bool"
        },
        {
          "internalType": "uint256",
          "name": "deadAt",
          "type": "uint256"
        }
      ],
      "payable": false,
      "stateMutability": "view",
      "type": "function"
    },
    {
      "constant": true,
      "inputs": [],
      "name": "owner",
      "outputs": [
        {
          "internalType": "address payable",
          "name": "",
          "type": "address"
        }
      ],
      "payable": false,
      "stateMutability": "view",
      "type": "function"
    },
    {
      "constant": false,
      "inputs": [
        {
          "internalType": "contract ProxyBase",
          "name": "_proxy",
          "type": "address"
        }
      ],
      "name": "setProxy",
      "outputs": [],
      "payable": false,
      "stateMutability": "nonpayable",
      "type": "function"
    },
    {
      "constant": true,
      "inputs": [],
      "name": "scheduledJob",
      "outputs": [
        {
          "internalType": "uint256",
          "name": "",
          "type": "uint256"
        }
      ],
      "payable": false,
      "stateMutability": "view",
      "type": "function"
    },
    {
      "constant": true,
      "inputs": [],
      "name": "gameVarAndFee",
      "outputs": [
        {
          "internalType": "contract GameVarAndFee",
          "name": "",
          "type": "address"
        }
      ],
      "payable": false,
      "stateMutability": "view",
      "type": "function"
    },
    {
      "constant": true,
      "inputs": [],
      "name": "gameStore",
      "outputs": [
        {
          "internalType": "contract GameStore",
          "name": "",
          "type": "address"
        }
      ],
      "payable": false,
      "stateMutability": "view",
      "type": "function"
    },
    {
      "constant": true,
      "inputs": [],
      "name": "cronJob",
      "outputs": [
        {
          "internalType": "contract CronJob",
          "name": "",
          "type": "address"
        }
      ],
      "payable": false,
      "stateMutability": "view",
      "type": "function"
    },
    {
      "constant": true,
      "inputs": [],
      "name": "proxy",
      "outputs": [
        {
          "internalType": "contract ProxyBase",
          "name": "",
          "type": "address"
        }
      ],
      "payable": false,
      "stateMutability": "view",
      "type": "function"
    },
    {
      "constant": true,
      "inputs": [],
      "name": "cryptoKitties",
      "outputs": [
        {
          "internalType": "contract ERC721",
          "name": "",
          "type": "address"
        }
      ],
      "payable": false,
      "stateMutability": "view",
      "type": "function"
    },
    {
      "constant": false,
      "inputs": [
        {
          "internalType": "address payable",
          "name": "newOwner",
          "type": "address"
        }
      ],
      "name": "transferOwnership",
      "outputs": [],
      "payable": false,
      "stateMutability": "nonpayable",
      "type": "function"
    },
    {
      "anonymous": false,
      "inputs": [
        {
          "indexed": true,
          "internalType": "uint256",
          "name": "_kittyID",
          "type": "uint256"
        }
      ],
      "name": "KittyAcquired",
      "type": "event"
    },
    {
      "anonymous": false,
      "inputs": [
        {
          "indexed": true,
          "internalType": "uint256",
          "name": "_kittyID",
          "type": "uint256"
        }
      ],
      "name": "KittyReleased",
      "type": "event"
    },
    {
      "anonymous": false,
      "inputs": [
        {
          "indexed": true,
          "internalType": "uint256",
          "name": "_kittyID",
          "type": "uint256"
        }
      ],
      "name": "KittyDied",
      "type": "event"
    },
    {
      "anonymous": false,
      "inputs": [
        {
          "indexed": true,
          "internalType": "uint256",
          "name": "_kittyID",
          "type": "uint256"
        }
      ],
      "name": "KittyResurrected",
      "type": "event"
    },
    {
      "anonymous": false,
      "inputs": [
        {
          "indexed": true,
          "internalType": "uint256",
          "name": "_kittyID",
          "type": "uint256"
        }
      ],
      "name": "KittyPermanentDeath",
      "type": "event"
    },
    {
      "anonymous": false,
      "inputs": [
        {
          "indexed": false,
          "internalType": "uint256",
          "name": "scheduledJob",
          "type": "uint256"
        },
        {
          "indexed": false,
          "internalType": "uint256",
          "name": "time",
          "type": "uint256"
        },
        {
          "indexed": true,
          "internalType": "uint256",
          "name": "kittyID",
          "type": "uint256"
        }
      ],
      "name": "Scheduled",
      "type": "event"
    },
    {
      "constant": false,
      "inputs": [],
      "name": "initialize",
      "outputs": [],
      "payable": false,
      "stateMutability": "nonpayable",
      "type": "function"
    },
    {
      "constant": false,
      "inputs": [
        {
          "internalType": "uint256",
          "name": "_kittyID",
          "type": "uint256"
        },
        {
          "internalType": "address",
          "name": "owner",
          "type": "address"
        }
      ],
      "name": "acquireKitty",
      "outputs": [
        {
          "internalType": "bool",
          "name": "",
          "type": "bool"
        }
      ],
      "payable": false,
      "stateMutability": "nonpayable",
      "type": "function"
    },
    {
      "constant": false,
      "inputs": [
        {
          "internalType": "uint256",
          "name": "_kittyID",
          "type": "uint256"
        },
        {
          "internalType": "bool",
          "name": "_isPlaying",
          "type": "bool"
        }
      ],
      "name": "updateKittyPlayingStatus",
      "outputs": [],
      "payable": false,
      "stateMutability": "nonpayable",
      "type": "function"
    },
    {
      "constant": true,
      "inputs": [
        {
          "internalType": "uint256",
          "name": "_kittyID",
          "type": "uint256"
        }
      ],
      "name": "isKittyDead",
      "outputs": [
        {
          "internalType": "bool",
          "name": "",
          "type": "bool"
        }
      ],
      "payable": false,
      "stateMutability": "view",
      "type": "function"
    },
    {
      "constant": false,
      "inputs": [
        {
          "internalType": "uint256",
          "name": "_kittyID",
          "type": "uint256"
        },
        {
          "internalType": "uint256",
          "name": "gameId",
          "type": "uint256"
        }
      ],
      "name": "killKitty",
      "outputs": [
        {
          "internalType": "bool",
          "name": "",
          "type": "bool"
        }
      ],
      "payable": false,
      "stateMutability": "nonpayable",
      "type": "function"
    },
    {
      "constant": true,
      "inputs": [
        {
          "internalType": "uint256",
          "name": "_kittyID",
          "type": "uint256"
        }
      ],
      "name": "kittyDeathTime",
      "outputs": [
        {
          "internalType": "uint256",
          "name": "",
          "type": "uint256"
        }
      ],
      "payable": false,
      "stateMutability": "view",
      "type": "function"
    },
    {
      "constant": true,
      "inputs": [
        {
          "internalType": "uint256",
          "name": "_kittyID",
          "type": "uint256"
        },
        {
          "internalType": "uint256",
          "name": "gameId",
          "type": "uint256"
        }
      ],
      "name": "getResurrectionCost",
      "outputs": [
        {
          "internalType": "uint256",
          "name": "",
          "type": "uint256"
        }
      ],
      "payable": false,
      "stateMutability": "view",
      "type": "function"
    },
    {
      "constant": false,
      "inputs": [
        {
          "internalType": "uint256",
          "name": "_kittyID",
          "type": "uint256"
        },
        {
          "internalType": "uint256",
          "name": "gameId",
          "type": "uint256"
        }
      ],
      "name": "payForResurrection",
      "outputs": [
        {
          "internalType": "bool",
          "name": "",
          "type": "bool"
        }
      ],
      "payable": true,
      "stateMutability": "payable",
      "type": "function"
    },
    {
      "constant": false,
      "inputs": [
        {
          "internalType": "uint256",
          "name": "_kittyID",
          "type": "uint256"
        }
      ],
      "name": "releaseKittyForfeiter",
      "outputs": [
        {
          "internalType": "bool",
          "name": "",
          "type": "bool"
        }
      ],
      "payable": false,
      "stateMutability": "nonpayable",
      "type": "function"
    },
    {
      "constant": false,
      "inputs": [
        {
          "internalType": "uint256",
          "name": "_kittyID",
          "type": "uint256"
        }
      ],
      "name": "releaseKittyGameManager",
      "outputs": [
        {
          "internalType": "bool",
          "name": "",
          "type": "bool"
        }
      ],
      "payable": false,
      "stateMutability": "nonpayable",
      "type": "function"
    },
    {
      "constant": false,
      "inputs": [
        {
          "internalType": "uint256",
          "name": "_kittyID",
          "type": "uint256"
        },
        {
          "internalType": "uint256",
          "name": "_delay",
          "type": "uint256"
        },
        {
          "internalType": "uint256",
          "name": "_gameId",
          "type": "uint256"
        }
      ],
      "name": "scheduleBecomeGhost",
      "outputs": [
        {
          "internalType": "bool",
          "name": "",
          "type": "bool"
        }
      ],
      "payable": false,
      "stateMutability": "nonpayable",
      "type": "function"
    },
    {
      "constant": false,
      "inputs": [
        {
          "internalType": "uint256",
          "name": "_kittyID",
          "type": "uint256"
        },
        {
          "internalType": "uint256",
          "name": "_gameId",
          "type": "uint256"
        }
      ],
      "name": "becomeGhost",
      "outputs": [
        {
          "internalType": "bool",
          "name": "",
          "type": "bool"
        }
      ],
      "payable": false,
      "stateMutability": "nonpayable",
      "type": "function"
    },
    {
      "constant": true,
      "inputs": [
        {
          "internalType": "uint256",
          "name": "_kittyID",
          "type": "uint256"
        }
      ],
      "name": "getKittyStatus",
      "outputs": [
        {
          "internalType": "address",
          "name": "_owner",
          "type": "address"
        },
        {
          "internalType": "bool",
          "name": "_dead",
          "type": "bool"
        },
        {
          "internalType": "bool",
          "name": "_playing",
          "type": "bool"
        },
        {
          "internalType": "bool",
          "name": "_ghost",
          "type": "bool"
        },
        {
          "internalType": "uint256",
          "name": "_deadAt",
          "type": "uint256"
        }
      ],
      "payable": false,
      "stateMutability": "view",
      "type": "function"
    }
  ],
  "bytecode": "0x6080604052336000806101000a81548173ffffffffffffffffffffffffffffffffffffffff021916908373ffffffffffffffffffffffffffffffffffffffff160217905550613618806100536000396000f3fe60806040526004361061019c5760003560e01c80638129fc1c116100ec578063b3e319971161008a578063ec55688911610064578063ec556889146109a3578063ef410f45146109fa578063f2fde38b14610a51578063f4b50fae14610aa25761019c565b8063b3e319971461088c578063c482615b146108e5578063da7f76d41461094c5761019c565b806397107d6d116100c657806397107d6d146107625780639e50f4fb146107b3578063a3b3bd7b146107de578063b1be6469146108355761019c565b80638129fc1c146106515780638cc51eda146106685780638da5cb5b1461070b5761019c565b806367e370901161015957806369af70b31161013357806369af70b3146104fa5780637202a1b21461055157806373be99d1146105ae578063810327a9146105fe5761019c565b806367e37090146103ab5780636889364c1461040857806368f16d6e146104ab5761019c565b806308dc0ae6146101a15780631fc75180146101e857806329af207c1461023f5780635fd8cc10146102925780635fe4d4f61461030557806363c0c46e14610354575b600080fd5b3480156101ad57600080fd5b506101e6600480360360408110156101c457600080fd5b8101908080359060200190929190803515159060200190929190505050610af5565b005b3480156101f457600080fd5b506101fd610c09565b604051808273ffffffffffffffffffffffffffffffffffffffff1673ffffffffffffffffffffffffffffffffffffffff16815260200191505060405180910390f35b34801561024b57600080fd5b506102786004803603602081101561026257600080fd5b8101908080359060200190929190505050610c2f565b604051808215151515815260200191505060405180910390f35b34801561029e57600080fd5b506102eb600480360360408110156102b557600080fd5b8101908080359060200190929190803573ffffffffffffffffffffffffffffffffffffffff169060200190929190505050610c80565b604051808215151515815260200191505060405180910390f35b34801561031157600080fd5b5061033e6004803603602081101561032857600080fd5b8101908080359060200190929190505050610f99565b6040518082815260200191505060405180910390f35b34801561036057600080fd5b50610369610fb1565b604051808273ffffffffffffffffffffffffffffffffffffffff1673ffffffffffffffffffffffffffffffffffffffff16815260200191505060405180910390f35b3480156103b757600080fd5b506103ee600480360360408110156103ce57600080fd5b810190808035906020019092919080359060200190929190505050610fd7565b604051808215151515815260200191505060405180910390f35b34801561041457600080fd5b506104416004803603602081101561042b57600080fd5b8101908080359060200190929190505050611377565b604051808673ffffffffffffffffffffffffffffffffffffffff1673ffffffffffffffffffffffffffffffffffffffff1681526020018515151515815260200184151515158152602001831515151581526020018281526020019550505050505060405180910390f35b3480156104b757600080fd5b506104e4600480360360208110156104ce57600080fd5b810190808035906020019092919050505061144c565b6040518082815260200191505060405180910390f35b34801561050657600080fd5b5061050f61146c565b604051808273ffffffffffffffffffffffffffffffffffffffff1673ffffffffffffffffffffffffffffffffffffffff16815260200191505060405180910390f35b34801561055d57600080fd5b506105946004803603604081101561057457600080fd5b810190808035906020019092919080359060200190929190505050611492565b604051808215151515815260200191505060405180910390f35b6105e4600480360360408110156105c457600080fd5b810190808035906020019092919080359060200190929190505050611680565b604051808215151515815260200191505060405180910390f35b34801561060a57600080fd5b506106376004803603602081101561062157600080fd5b81019080803590602001909291905050506118d3565b604051808215151515815260200191505060405180910390f35b34801561065d57600080fd5b50610666611972565b005b34801561067457600080fd5b506106a16004803603602081101561068b57600080fd5b8101908080359060200190929190505050612482565b604051808673ffffffffffffffffffffffffffffffffffffffff1673ffffffffffffffffffffffffffffffffffffffff1681526020018515151515815260200184151515158152602001831515151581526020018281526020019550505050505060405180910390f35b34801561071757600080fd5b506107206124ff565b604051808273ffffffffffffffffffffffffffffffffffffffff1673ffffffffffffffffffffffffffffffffffffffff16815260200191505060405180910390f35b34801561076e57600080fd5b506107b16004803603602081101561078557600080fd5b81019080803573ffffffffffffffffffffffffffffffffffffffff169060200190929190505050612524565b005b3480156107bf57600080fd5b506107c86125be565b6040518082815260200191505060405180910390f35b3480156107ea57600080fd5b506107f36125c4565b604051808273ffffffffffffffffffffffffffffffffffffffff1673ffffffffffffffffffffffffffffffffffffffff16815260200191505060405180910390f35b34801561084157600080fd5b5061084a6125ea565b604051808273ffffffffffffffffffffffffffffffffffffffff1673ffffffffffffffffffffffffffffffffffffffff16815260200191505060405180910390f35b34801561089857600080fd5b506108cf600480360360408110156108af57600080fd5b810190808035906020019092919080359060200190929190505050612610565b6040518082815260200191505060405180910390f35b3480156108f157600080fd5b506109326004803603606081101561090857600080fd5b8101908080359060200190929190803590602001909291908035906020019092919050505061276a565b604051808215151515815260200191505060405180910390f35b34801561095857600080fd5b50610961612b5b565b604051808273ffffffffffffffffffffffffffffffffffffffff1673ffffffffffffffffffffffffffffffffffffffff16815260200191505060405180910390f35b3480156109af57600080fd5b506109b8612b81565b604051808273ffffffffffffffffffffffffffffffffffffffff1673ffffffffffffffffffffffffffffffffffffffff16815260200191505060405180910390f35b348015610a0657600080fd5b50610a0f612ba7565b604051808273ffffffffffffffffffffffffffffffffffffffff1673ffffffffffffffffffffffffffffffffffffffff16815260200191505060405180910390f35b348015610a5d57600080fd5b50610aa060048036036020811015610a7457600080fd5b81019080803573ffffffffffffffffffffffffffffffffffffffff169060200190929190505050612bcd565b005b348015610aae57600080fd5b50610adb60048036036020811015610ac557600080fd5b8101908080359060200190929190505050612c9b565b604051808215151515815260200191505060405180910390f35b6040518060400160405280600c81526020017f47616d654372656174696f6e0000000000000000000000000000000000000000815250610b3481612cec565b82600073ffffffffffffffffffffffffffffffffffffffff16600b600083815260200190815260200160002060000160009054906101000a900473ffffffffffffffffffffffffffffffffffffffff1673ffffffffffffffffffffffffffffffffffffffff161415610ba557600080fd5b83600b600082815260200190815260200160002060000160149054906101000a900460ff1615610bd457600080fd5b83600b600087815260200190815260200160002060000160156101000a81548160ff0219169083151502179055505050505050565b600760009054906101000a900473ffffffffffffffffffffffffffffffffffffffff1681565b60006040518060400160405280600b81526020017f47616d654d616e61676572000000000000000000000000000000000000000000815250610c7081612cec565b610c7983612f87565b5050919050565b600082600073ffffffffffffffffffffffffffffffffffffffff16600b600083815260200190815260200160002060000160009054906101000a900473ffffffffffffffffffffffffffffffffffffffff1673ffffffffffffffffffffffffffffffffffffffff1614610cf257600080fd5b6040518060400160405280600b81526020017f47616d654d616e61676572000000000000000000000000000000000000000000815250610d3181612cec565b600360009054906101000a900473ffffffffffffffffffffffffffffffffffffffff1673ffffffffffffffffffffffffffffffffffffffff166323b872dd8530886040518463ffffffff1660e01b8152600401808473ffffffffffffffffffffffffffffffffffffffff1673ffffffffffffffffffffffffffffffffffffffff1681526020018373ffffffffffffffffffffffffffffffffffffffff1673ffffffffffffffffffffffffffffffffffffffff1681526020018281526020019350505050600060405180830381600087803b158015610e0e57600080fd5b505af1158015610e22573d6000803e3d6000fd5b505050503073ffffffffffffffffffffffffffffffffffffffff16600360009054906101000a900473ffffffffffffffffffffffffffffffffffffffff1673ffffffffffffffffffffffffffffffffffffffff16636352211e876040518263ffffffff1660e01b81526004018082815260200191505060206040518083038186803b158015610eb057600080fd5b505afa158015610ec4573d6000803e3d6000fd5b505050506040513d6020811015610eda57600080fd5b810190808051906020019092919050505073ffffffffffffffffffffffffffffffffffffffff1614610f0b57600080fd5b83600b600087815260200190815260200160002060000160006101000a81548173ffffffffffffffffffffffffffffffffffffffff021916908373ffffffffffffffffffffffffffffffffffffffff160217905550847f39f7d7f5ff597fbdd01eac3107ab452e2f00f0f5c9cc01113d4e11561d88c4fa60405160405180910390a260019250505092915050565b600a6020528060005260406000206000915090505481565b600460009054906101000a900473ffffffffffffffffffffffffffffffffffffffff1681565b600082600073ffffffffffffffffffffffffffffffffffffffff16600b600083815260200190815260200160002060000160009054906101000a900473ffffffffffffffffffffffffffffffffffffffff1673ffffffffffffffffffffffffffffffffffffffff16141561104a57600080fd5b6040518060400160405280600781526020017f43726f6e4a6f620000000000000000000000000000000000000000000000000081525061108981612cec565b6000600660009054906101000a900473ffffffffffffffffffffffffffffffffffffffff1673ffffffffffffffffffffffffffffffffffffffff16633c38d0a9866040518263ffffffff1660e01b81526004018082815260200191505060206040518083038186803b1580156110fe57600080fd5b505afa158015611112573d6000803e3d6000fd5b505050506040513d602081101561112857600080fd5b8101908080519060200190929190505050905080611165600b6000898152602001908152602001600020600101544261341590919063ffffffff16565b1161116f57600080fd5b6001600b600088815260200190815260200160002060000160166101000a81548160ff021916908315150217905550600360009054906101000a900473ffffffffffffffffffffffffffffffffffffffff1673ffffffffffffffffffffffffffffffffffffffff1663a9059cbb600160009054906101000a900473ffffffffffffffffffffffffffffffffffffffff1673ffffffffffffffffffffffffffffffffffffffff1663358177736040518163ffffffff1660e01b815260040180806020018281038252600c8152602001807f4b697474696548656c6c4442000000000000000000000000000000000000000081525060200191505060206040518083038186803b15801561128057600080fd5b505afa158015611294573d6000803e3d6000fd5b505050506040513d60208110156112aa57600080fd5b8101908080519060200190929190505050886040518363ffffffff1660e01b8152600401808373ffffffffffffffffffffffffffffffffffffffff1673ffffffffffffffffffffffffffffffffffffffff16815260200182815260200192505050600060405180830381600087803b15801561132557600080fd5b505af1158015611339573d6000803e3d6000fd5b50505050857fc92c3df591b9dd981f3e731d0d939b120ea9989453612504a1a2ddcc291f735960405160405180910390a26001935050505092915050565b6000806000806000600b600087815260200190815260200160002060000160009054906101000a900473ffffffffffffffffffffffffffffffffffffffff169450600b600087815260200190815260200160002060000160149054906101000a900460ff169350600b600087815260200190815260200160002060000160159054906101000a900460ff169250600b600087815260200190815260200160002060000160169054906101000a900460ff169150600b600087815260200190815260200160002060010154905091939590929450565b6000600b6000838152602001908152602001600020600101549050919050565b600860009054906101000a900473ffffffffffffffffffffffffffffffffffffffff1681565b600082600073ffffffffffffffffffffffffffffffffffffffff16600b600083815260200190815260200160002060000160009054906101000a900473ffffffffffffffffffffffffffffffffffffffff1673ffffffffffffffffffffffffffffffffffffffff16141561150557600080fd5b6040518060400160405280600b81526020017f47616d654d616e6167657200000000000000000000000000000000000000000081525061154481612cec565b6001600b600087815260200190815260200160002060000160146101000a81548160ff02191690831515021790555042600b60008781526020019081526020016000206001018190555061164685600660009054906101000a900473ffffffffffffffffffffffffffffffffffffffff1673ffffffffffffffffffffffffffffffffffffffff16633c38d0a9876040518263ffffffff1660e01b81526004018082815260200191505060206040518083038186803b15801561160557600080fd5b505afa158015611619573d6000803e3d6000fd5b505050506040513d602081101561162f57600080fd5b81019080805190602001909291905050508661276a565b50847fe3c2803d4712f4365991eb0000ddfd60fb9103321ea17f42eb9c180824c994e460405160405180910390a260019250505092915050565b600082600073ffffffffffffffffffffffffffffffffffffffff16600b600083815260200190815260200160002060000160009054906101000a900473ffffffffffffffffffffffffffffffffffffffff1673ffffffffffffffffffffffffffffffffffffffff1614156116f357600080fd5b83600b600082815260200190815260200160002060000160169054906101000a900460ff161561172257600080fd5b61172a61342c565b60006117368686612610565b90506000811161174557600080fd5b600860009054906101000a900473ffffffffffffffffffffffffffffffffffffffff1673ffffffffffffffffffffffffffffffffffffffff166342db1589600b600089815260200190815260200160002060000160009054906101000a900473ffffffffffffffffffffffffffffffffffffffff16836040518363ffffffff1660e01b8152600401808373ffffffffffffffffffffffffffffffffffffffff1673ffffffffffffffffffffffffffffffffffffffff16815260200182815260200192505050602060405180830381600087803b15801561182457600080fd5b505af1158015611838573d6000803e3d6000fd5b505050506040513d602081101561184e57600080fd5b81019080805190602001909291905050505061186986612f87565b506000600b600088815260200190815260200160002060000160146101000a81548160ff021916908315150217905550857fd4d51c312159841bc0f88ceac557ccd2fdcc43738eb15e6d34bf92a9553e2a9660405160405180910390a26001935050505092915050565b600081600073ffffffffffffffffffffffffffffffffffffffff16600b600083815260200190815260200160002060000160009054906101000a900473ffffffffffffffffffffffffffffffffffffffff1673ffffffffffffffffffffffffffffffffffffffff16141561194657600080fd5b600b600084815260200190815260200160002060000160149054906101000a900460ff16915050919050565b6000809054906101000a900473ffffffffffffffffffffffffffffffffffffffff1673ffffffffffffffffffffffffffffffffffffffff163373ffffffffffffffffffffffffffffffffffffffff16146119c857fe5b600160009054906101000a900473ffffffffffffffffffffffffffffffffffffffff1673ffffffffffffffffffffffffffffffffffffffff1663358177736040518060400160405280600781526020017f43726f6e4a6f62000000000000000000000000000000000000000000000000008152506040518263ffffffff1660e01b81526004018080602001828103825283818151815260200191508051906020019080838360005b83811015611a8b578082015181840152602081019050611a70565b50505050905090810190601f168015611ab85780820380516001836020036101000a031916815260200191505b509250505060206040518083038186803b158015611ad557600080fd5b505afa158015611ae9573d6000803e3d6000fd5b505050506040513d6020811015611aff57600080fd5b8101908080519060200190929190505050600260006101000a81548173ffffffffffffffffffffffffffffffffffffffff021916908373ffffffffffffffffffffffffffffffffffffffff160217905550600160009054906101000a900473ffffffffffffffffffffffffffffffffffffffff1673ffffffffffffffffffffffffffffffffffffffff1663358177736040518060400160405280600d81526020017f43727970746f4b697474696573000000000000000000000000000000000000008152506040518263ffffffff1660e01b81526004018080602001828103825283818151815260200191508051906020019080838360005b83811015611c13578082015181840152602081019050611bf8565b50505050905090810190601f168015611c405780820380516001836020036101000a031916815260200191505b509250505060206040518083038186803b158015611c5d57600080fd5b505afa158015611c71573d6000803e3d6000fd5b505050506040513d6020811015611c8757600080fd5b8101908080519060200190929190505050600360006101000a81548173ffffffffffffffffffffffffffffffffffffffff021916908373ffffffffffffffffffffffffffffffffffffffff160217905550600160009054906101000a900473ffffffffffffffffffffffffffffffffffffffff1673ffffffffffffffffffffffffffffffffffffffff1663358177736040518060400160405280601081526020017f4b69747469654669676874546f6b656e000000000000000000000000000000008152506040518263ffffffff1660e01b81526004018080602001828103825283818151815260200191508051906020019080838360005b83811015611d9b578082015181840152602081019050611d80565b50505050905090810190601f168015611dc85780820380516001836020036101000a031916815260200191505b509250505060206040518083038186803b158015611de557600080fd5b505afa158015611df9573d6000803e3d6000fd5b505050506040513d6020811015611e0f57600080fd5b8101908080519060200190929190505050600460006101000a81548173ffffffffffffffffffffffffffffffffffffffff021916908373ffffffffffffffffffffffffffffffffffffffff160217905550600160009054906101000a900473ffffffffffffffffffffffffffffffffffffffff1673ffffffffffffffffffffffffffffffffffffffff1663358177736040518060400160405280600d81526020017f47616d65566172416e64466565000000000000000000000000000000000000008152506040518263ffffffff1660e01b81526004018080602001828103825283818151815260200191508051906020019080838360005b83811015611f23578082015181840152602081019050611f08565b50505050905090810190601f168015611f505780820380516001836020036101000a031916815260200191505b509250505060206040518083038186803b158015611f6d57600080fd5b505afa158015611f81573d6000803e3d6000fd5b505050506040513d6020811015611f9757600080fd5b8101908080519060200190929190505050600560006101000a81548173ffffffffffffffffffffffffffffffffffffffff021916908373ffffffffffffffffffffffffffffffffffffffff160217905550600160009054906101000a900473ffffffffffffffffffffffffffffffffffffffff1673ffffffffffffffffffffffffffffffffffffffff1663358177736040518060400160405280600981526020017f47616d6553746f726500000000000000000000000000000000000000000000008152506040518263ffffffff1660e01b81526004018080602001828103825283818151815260200191508051906020019080838360005b838110156120ab578082015181840152602081019050612090565b50505050905090810190601f1680156120d85780820380516001836020036101000a031916815260200191505b509250505060206040518083038186803b1580156120f557600080fd5b505afa158015612109573d6000803e3d6000fd5b505050506040513d602081101561211f57600080fd5b8101908080519060200190929190505050600660006101000a81548173ffffffffffffffffffffffffffffffffffffffff021916908373ffffffffffffffffffffffffffffffffffffffff160217905550600160009054906101000a900473ffffffffffffffffffffffffffffffffffffffff1673ffffffffffffffffffffffffffffffffffffffff1663358177736040518060400160405280600a81526020017f474d4765747465724442000000000000000000000000000000000000000000008152506040518263ffffffff1660e01b81526004018080602001828103825283818151815260200191508051906020019080838360005b83811015612233578082015181840152602081019050612218565b50505050905090810190601f1680156122605780820380516001836020036101000a031916815260200191505b509250505060206040518083038186803b15801561227d57600080fd5b505afa158015612291573d6000803e3d6000fd5b505050506040513d60208110156122a757600080fd5b8101908080519060200190929190505050600760006101000a81548173ffffffffffffffffffffffffffffffffffffffff021916908373ffffffffffffffffffffffffffffffffffffffff160217905550600160009054906101000a900473ffffffffffffffffffffffffffffffffffffffff1673ffffffffffffffffffffffffffffffffffffffff1663358177736040518060400160405280600d81526020017f456e646f776d656e7446756e64000000000000000000000000000000000000008152506040518263ffffffff1660e01b81526004018080602001828103825283818151815260200191508051906020019080838360005b838110156123bb5780820151818401526020810190506123a0565b50505050905090810190601f1680156123e85780820380516001836020036101000a031916815260200191505b509250505060206040518083038186803b15801561240557600080fd5b505afa158015612419573d6000803e3d6000fd5b505050506040513d602081101561242f57600080fd5b8101908080519060200190929190505050600860006101000a81548173ffffffffffffffffffffffffffffffffffffffff021916908373ffffffffffffffffffffffffffffffffffffffff160217905550565b600b6020528060005260406000206000915090508060000160009054906101000a900473ffffffffffffffffffffffffffffffffffffffff16908060000160149054906101000a900460ff16908060000160159054906101000a900460ff16908060000160169054906101000a900460ff16908060010154905085565b6000809054906101000a900473ffffffffffffffffffffffffffffffffffffffff1681565b6000809054906101000a900473ffffffffffffffffffffffffffffffffffffffff1673ffffffffffffffffffffffffffffffffffffffff163373ffffffffffffffffffffffffffffffffffffffff161461257a57fe5b80600160006101000a81548173ffffffffffffffffffffffffffffffffffffffff021916908373ffffffffffffffffffffffffffffffffffffffff16021790555050565b60095481565b600560009054906101000a900473ffffffffffffffffffffffffffffffffffffffff1681565b600660009054906101000a900473ffffffffffffffffffffffffffffffffffffffff1681565b600082600073ffffffffffffffffffffffffffffffffffffffff16600b600083815260200190815260200160002060000160009054906101000a900473ffffffffffffffffffffffffffffffffffffffff1673ffffffffffffffffffffffffffffffffffffffff16141561268357600080fd5b83600b600082815260200190815260200160002060000160169054906101000a900460ff16156126b257600080fd5b600660009054906101000a900473ffffffffffffffffffffffffffffffffffffffff1673ffffffffffffffffffffffffffffffffffffffff166329920299856040518263ffffffff1660e01b81526004018082815260200191505060206040518083038186803b15801561272557600080fd5b505afa158015612739573d6000803e3d6000fd5b505050506040513d602081101561274f57600080fd5b81019080805190602001909291905050509250505092915050565b600080600160009054906101000a900473ffffffffffffffffffffffffffffffffffffffff1673ffffffffffffffffffffffffffffffffffffffff1663358177736040518060400160405280600781526020017f43726f6e4a6f62000000000000000000000000000000000000000000000000008152506040518263ffffffff1660e01b81526004018080602001828103825283818151815260200191508051906020019080838360005b83811015612830578082015181840152602081019050612815565b50505050905090810190601f16801561285d5780820380516001836020036101000a031916815260200191505b509250505060206040518083038186803b15801561287a57600080fd5b505afa15801561288e573d6000803e3d6000fd5b505050506040513d60208110156128a457600080fd5b810190808051906020019092919050505090508073ffffffffffffffffffffffffffffffffffffffff1663c19304966040518060400160405280600a81526020017f4b697474696548656c6c00000000000000000000000000000000000000000000815250864201888760405160240180838152602001828152602001925050506040516020818303038152906040527fd865c8b4000000000000000000000000000000000000000000000000000000007bffffffffffffffffffffffffffffffffffffffffffffffffffffffff19166020820180517bffffffffffffffffffffffffffffffffffffffffffffffffffffffff83818316178352505050506040518463ffffffff1660e01b8152600401808060200184815260200180602001838103835286818151815260200191508051906020019080838360005b838110156129fb5780820151818401526020810190506129e0565b50505050905090810190601f168015612a285780820380516001836020036101000a031916815260200191505b50838103825284818151815260200191508051906020019080838360005b83811015612a61578082015181840152602081019050612a46565b50505050905090810190601f168015612a8e5780820380516001836020036101000a031916815260200191505b5095505050505050602060405180830381600087803b158015612ab057600080fd5b505af1158015612ac4573d6000803e3d6000fd5b505050506040513d6020811015612ada57600080fd5b8101908080519060200190929190505050600981905550600954600a600087815260200190815260200160002081905550847fbdb3fa1032c10362fcfd2e3a7214b0e681d1a19640cdc58a12397eb72eadf0e6600954864201604051808381526020018281526020019250505060405180910390a260019150509392505050565b600260009054906101000a900473ffffffffffffffffffffffffffffffffffffffff1681565b600160009054906101000a900473ffffffffffffffffffffffffffffffffffffffff1681565b600360009054906101000a900473ffffffffffffffffffffffffffffffffffffffff1681565b6000809054906101000a900473ffffffffffffffffffffffffffffffffffffffff1673ffffffffffffffffffffffffffffffffffffffff163373ffffffffffffffffffffffffffffffffffffffff1614612c2357fe5b600073ffffffffffffffffffffffffffffffffffffffff168173ffffffffffffffffffffffffffffffffffffffff1614612c9857806000806101000a81548173ffffffffffffffffffffffffffffffffffffffff021916908373ffffffffffffffffffffffffffffffffffffffff1602179055505b50565b60006040518060400160405280600981526020017f466f726665697465720000000000000000000000000000000000000000000000815250612cdc81612cec565b612ce583612f87565b5050919050565b600073ffffffffffffffffffffffffffffffffffffffff16600160009054906101000a900473ffffffffffffffffffffffffffffffffffffffff1673ffffffffffffffffffffffffffffffffffffffff161415612db1576040517f08c379a00000000000000000000000000000000000000000000000000000000081526004018080602001828103825260088152602001807f4e6f2050726f787900000000000000000000000000000000000000000000000081525060200191505060405180910390fd5b6000600160009054906101000a900473ffffffffffffffffffffffffffffffffffffffff1673ffffffffffffffffffffffffffffffffffffffff166335817773836040518263ffffffff1660e01b81526004018080602001828103825283818151815260200191508051906020019080838360005b83811015612e41578082015181840152602081019050612e26565b50505050905090810190601f168015612e6e5780820380516001836020036101000a031916815260200191505b509250505060206040518083038186803b158015612e8b57600080fd5b505afa158015612e9f573d6000803e3d6000fd5b505050506040513d6020811015612eb557600080fd5b81019080805190602001909291905050509050600073ffffffffffffffffffffffffffffffffffffffff168173ffffffffffffffffffffffffffffffffffffffff161415612eff57fe5b8073ffffffffffffffffffffffffffffffffffffffff163373ffffffffffffffffffffffffffffffffffffffff1614612f83576040517f08c379a000000000000000000000000000000000000000000000000000000000815260040180806020018281038252602d8152602001806135b7602d913960400191505060405180910390fd5b5050565b600081600073ffffffffffffffffffffffffffffffffffffffff16600b600083815260200190815260200160002060000160009054906101000a900473ffffffffffffffffffffffffffffffffffffffff1673ffffffffffffffffffffffffffffffffffffffff161415612ffa57600080fd5b600360009054906101000a900473ffffffffffffffffffffffffffffffffffffffff1673ffffffffffffffffffffffffffffffffffffffff1663a9059cbb600b600086815260200190815260200160002060000160009054906101000a900473ffffffffffffffffffffffffffffffffffffffff16856040518363ffffffff1660e01b8152600401808373ffffffffffffffffffffffffffffffffffffffff1673ffffffffffffffffffffffffffffffffffffffff16815260200182815260200192505050600060405180830381600087803b1580156130d957600080fd5b505af11580156130ed573d6000803e3d6000fd5b505050506000600b600085815260200190815260200160002060000160006101000a81548173ffffffffffffffffffffffffffffffffffffffff021916908373ffffffffffffffffffffffffffffffffffffffff160217905550600b600084815260200190815260200160002060000160149054906101000a900460ff16156133de576000600160009054906101000a900473ffffffffffffffffffffffffffffffffffffffff1673ffffffffffffffffffffffffffffffffffffffff1663358177736040518060400160405280600781526020017f43726f6e4a6f62000000000000000000000000000000000000000000000000008152506040518263ffffffff1660e01b81526004018080602001828103825283818151815260200191508051906020019080838360005b8381101561323557808201518184015260208101905061321a565b50505050905090810190601f1680156132625780820380516001836020036101000a031916815260200191505b509250505060206040518083038186803b15801561327f57600080fd5b505afa158015613293573d6000803e3d6000fd5b505050506040513d60208110156132a957600080fd5b810190808051906020019092919050505090508073ffffffffffffffffffffffffffffffffffffffff16639d8f101f6040518060400160405280600a81526020017f4b697474696548656c6c00000000000000000000000000000000000000000000815250600a6000888152602001908152602001600020546040518363ffffffff1660e01b81526004018080602001838152602001828103825284818151815260200191508051906020019080838360005b8381101561337757808201518184015260208101905061335c565b50505050905090810190601f1680156133a45780820380516001836020036101000a031916815260200191505b509350505050600060405180830381600087803b1580156133c457600080fd5b505af11580156133d8573d6000803e3d6000fd5b50505050505b827fcae1898dd74d1ad040b5bf19b70685d75e1cc1223291c8db6c7b7c929b2a5b1560405160405180910390a26001915050919050565b60008282111561342157fe5b818303905092915050565b600073ffffffffffffffffffffffffffffffffffffffff16600160009054906101000a900473ffffffffffffffffffffffffffffffffffffffff1673ffffffffffffffffffffffffffffffffffffffff1614156134f1576040517f08c379a00000000000000000000000000000000000000000000000000000000081526004018080602001828103825260088152602001807f4e6f2050726f787900000000000000000000000000000000000000000000000081525060200191505060405180910390fd5b600160009054906101000a900473ffffffffffffffffffffffffffffffffffffffff1673ffffffffffffffffffffffffffffffffffffffff163373ffffffffffffffffffffffffffffffffffffffff16146135b4576040517f08c379a00000000000000000000000000000000000000000000000000000000081526004018080602001828103825260128152602001807f4f6e6c79207468726f7567682050726f7879000000000000000000000000000081525060200191505060405180910390fd5b56fe416363657373206973206f6e6c7920616c6c6f7765642066726f6d20737065636966696320636f6e7472616374a265627a7a72315820e5c5c41ad97caff86a19db3838908bbcb2a1edaa1000d5219f09db4d24cf681164736f6c634300050b0032",
  "source": "pragma solidity ^0.5.5;\n\nimport \"../../libs/SafeMath.sol\";\nimport \"../../misc/BasicControls.sol\";\nimport \"../proxy/Proxied.sol\";\nimport \"../../authority/Guard.sol\";\nimport \"../../CronJob.sol\";\nimport \"../../interfaces/ERC721.sol\";\nimport \"../../interfaces/ERC20Standard.sol\";\nimport \"../../GameVarAndFee.sol\";\nimport \"../gamemanager/GameStore.sol\";\nimport \"../databases/GMGetterDB.sol\";\nimport \"../endowment/EndowmentFund.sol\";\n\n\n/**\n * @title This contract is responsible to acquire ownership of participating kitties,\n * keep the mortality status and permanent lock them if needed.\n * @author @panos, @ugwu, @ziweidream @Xalee @wafflemakr\n * @notice This contract is able to lock kitties forever caution is advised\n */\ncontract KittieHell is BasicControls, Proxied, Guard {\n\n    using SafeMath for uint256;\n\n    CronJob public cronJob;\n    ERC721 public cryptoKitties;\n    ERC20Standard public kittieFightToken;\n    GameVarAndFee public gameVarAndFee;\n    GameStore public gameStore;\n    GMGetterDB public gmGetterDB;\n    EndowmentFund public endowmentFund;\n\n    uint256 public scheduledJob;\n    mapping (uint => uint) public scheduledJobs;\n\n    struct KittyStatus {\n        address owner;  // This is the owner before the kitty got transferred to us\n        bool dead;      // This is the mortality status of the kitty\n        bool playing;   // This is the current game participation status of the kitty\n        bool ghost;     // This is set to \"destroy\" or permanent kill the kitty\n        uint deadAt;    // Timestamp when the kitty is dead.\n    }\n\n    /* This is all the kitties owned and managed by the game */\n    mapping(uint256 => KittyStatus) public kitties;\n\n    function initialize() external onlyOwner {\n        cronJob = CronJob(proxy.getContract(CONTRACT_NAME_CRONJOB));\n        cryptoKitties = ERC721(proxy.getContract(CONTRACT_NAME_CRYPTOKITTIES));\n        kittieFightToken = ERC20Standard(proxy.getContract(CONTRACT_NAME_KITTIEFIGHTOKEN));\n        gameVarAndFee = GameVarAndFee(proxy.getContract(CONTRACT_NAME_GAMEVARANDFEE));\n        gameStore = GameStore(proxy.getContract(CONTRACT_NAME_GAMESTORE));\n        gmGetterDB = GMGetterDB(proxy.getContract(CONTRACT_NAME_GM_GETTER_DB));\n        endowmentFund = EndowmentFund(proxy.getContract(CONTRACT_NAME_ENDOWMENT_FUND));\n    }\n\n    /**\n     * @author @ugwu @ziweidream\n     * @notice transfer the ownership of a kittie to this contract\n     * @dev The last owner must be stored as a returned reference\n     * @dev This function can only be carried out via proxy\n     * @param _kittyID the kittie to acquire\n     * @return true if the acquisition was successful\n     */\n    function acquireKitty(uint256 _kittyID, address owner)\n        public\n        onlyNotOwnedKitty(_kittyID)\n        onlyContract(CONTRACT_NAME_GAMEMANAGER)\n        returns (bool)\n    {\n        cryptoKitties.transferFrom(owner, address(this), _kittyID);\n        require(cryptoKitties.ownerOf(_kittyID) == address(this));\n        kitties[_kittyID].owner = owner;\n        emit KittyAcquired(_kittyID);\n        return true;\n    }\n\n    function updateKittyPlayingStatus(uint256 _kittyID, bool _isPlaying)\n        public\n        onlyContract(CONTRACT_NAME_GAMECREATION)\n        onlyOwnedKitty(_kittyID)\n        onlyNotKilledKitty(_kittyID)\n    {\n        kitties[_kittyID].playing = _isPlaying;\n    }\n\n    /**\n     * @author @ziweidream\n     * @notice Getting kitty `_kittyID` mortality status\n     * @param _kittyID The kitty to get status\n     * @return true/false if the kitty ID is dead or not\n     */\n    function isKittyDead(uint256 _kittyID)\n    public\n    view\n    onlyOwnedKitty(_kittyID)\n    returns (bool) {\n        return kitties[_kittyID].dead;\n    }\n\n    /**\n     * @author @ziweidream\n     * @notice Killing kitty `_kittyID`\n     * @dev This function can only be carried out via CronJOb\n     * @param _kittyID The kitty to kill\n     * @return true/false if the kitty ID is killed or not\n     */\n    function killKitty(uint256 _kittyID, uint gameId)\n    public\n    onlyOwnedKitty(_kittyID)\n    onlyContract(CONTRACT_NAME_GAMEMANAGER)\n    returns (bool) {\n        kitties[_kittyID].dead = true;\n        kitties[_kittyID].deadAt = now;\n        scheduleBecomeGhost(_kittyID, gameStore.getKittieExpirationTime(gameId), gameId);\n        emit KittyDied(_kittyID);\n        return true;\n    }\n\n    /**\n     * @author @ziweidream\n     * @notice Getting kitty `_kittyID` death time\n     * @param _kittyID The kitty whose death time is requested\n     * @return the kitty's death time\n     */\n    function kittyDeathTime(uint256 _kittyID) public view returns(uint) {\n        return kitties[_kittyID].deadAt;\n    }\n\n    /**\n     * @author @ziweidream\n     * @notice Getting kitty `_kittyID` resurrection cost\n     * @dev The resurrection cost per sec is a constant determined by GameVarAndFee contract\n     * @param _kittyID The kitty for whom the resurrection cost is requested\n     * @return the kitty's resurrection cost\n     */\n    function getResurrectionCost(uint256 _kittyID, uint gameId)\n    public\n    view\n    onlyOwnedKitty(_kittyID)\n    onlyNotGhostKitty(_kittyID)\n    returns(uint) {\n        // We need to clear out game of kittie when game ends, so its set to 0;\n        // uint256 gameId = gmGetterDB.getGameOfKittie(_kittyID);\n        return gameStore.getKittieRedemptionFee(gameId);\n\t}\n\n     /**\n     * @author @ziweidream\n     * @notice Resurrecting kitty `_kittyID`\n     * @param _kittyID The kitty to resurrect\n     * @dev The kitty must not be permanent dead\n     * @dev This function can only be carried out via proxy\n     * @dev The ressurection payment is in KTY tokens and sent to EndowmentFund contract\n     * @return true/false if the kitty ID is resurrected or not\n     */\n\n    function payForResurrection(uint256 _kittyID, uint gameId)\n        public\n        payable\n        onlyOwnedKitty(_kittyID)\n        onlyNotGhostKitty(_kittyID)\n        onlyProxy\n    returns (bool) {\n        uint256 tokenAmount = getResurrectionCost(_kittyID, gameId);\n        require(tokenAmount > 0);\n        endowmentFund.contributeKTY(kitties[_kittyID].owner, tokenAmount);\n        releaseKitty(_kittyID);\n        kitties[_kittyID].dead = false;\n        emit KittyResurrected(_kittyID);\n        return true;\n    }\n\n    /**\n     * @author @ugwu @ziweidream\n     * @notice transfer the ownership of a kittie back to its previous owner\n     * @dev The kitty must be owned by the game\n     * @dev This function can only be carried out via proxy\n     * @param _kittyID The kittie to release\n     * @return true if the release was successful\n     */\n    function releaseKitty(uint256 _kittyID)\n        internal\n        onlyOwnedKitty(_kittyID)\n    returns (bool) {\n        cryptoKitties.transfer(kitties[_kittyID].owner, _kittyID);\n        kitties[_kittyID].owner = address(0);\n        if(kitties[_kittyID].dead){\n            CronJob cron = CronJob(proxy.getContract(CONTRACT_NAME_CRONJOB));\n            cron.deleteCronJob(CONTRACT_NAME_KITTIEHELL, scheduledJobs[_kittyID]);\n        }\n        emit KittyReleased(_kittyID);\n        return true;\n    }\n\n    function releaseKittyForfeiter(uint256 _kittyID)\n        public\n        onlyContract(CONTRACT_NAME_FORFEITER)\n    returns (bool) {\n        releaseKitty(_kittyID);\n    }\n\n    function releaseKittyGameManager(uint256 _kittyID)\n        public\n        onlyContract(CONTRACT_NAME_GAMEMANAGER)\n    returns (bool) {\n        releaseKitty(_kittyID);\n    }\n\n    function scheduleBecomeGhost(uint256 _kittyID, uint256 _delay, uint _gameId)\n        public\n        returns(bool)\n    {\n        CronJob cron = CronJob(proxy.getContract(CONTRACT_NAME_CRONJOB));\n        scheduledJob = cron.addCronJob(CONTRACT_NAME_KITTIEHELL, now+_delay, abi.encodeWithSignature(\"becomeGhost(uint256, uint256)\", _kittyID, _gameId));\n        scheduledJobs[_kittyID] = scheduledJob;\n        emit Scheduled(scheduledJob, now+_delay, _kittyID);\n        return true;\n    }\n\n    /**\n     * @author @ziweidream\n     * @dev The kitty must be owned by the game\n     * @dev This function can only be carried out via CronJob\n     * @dev This function will make a kitty permanently dead\n     * @param _kittyID The kittie to become ghost\n     * @return true if the kittie became a ghost and transferred to KittieHellDB\n     */\n    function becomeGhost(uint256 _kittyID, uint _gameId)\n        public\n        onlyOwnedKitty(_kittyID)\n        onlyContract(CONTRACT_NAME_CRONJOB)\n        returns (bool)\n    {\n        // uint256 gameId = gmGetterDB.getGameOfKittie(_kittyID);\n        uint kittieExpiry = gameStore.getKittieExpirationTime(_gameId);\n\t    require(now.sub(kitties[_kittyID].deadAt) > kittieExpiry);\n        kitties[_kittyID].ghost = true;\n        cryptoKitties.transfer(proxy.getContract(\"KittieHellDB\"), _kittyID);\n        emit KittyPermanentDeath(_kittyID);\n        return true;\n    }\n\n    /**\n     * @author @ziweidream      \n     * @param _kittyID The kittie to release\n     * @return the previous kitty owner, the kitty dead status, the kitty playing status, the kitty ghost status, and the kitty death time   \n     */\n    function getKittyStatus(uint256 _kittyID) public view returns (address _owner, bool _dead, bool _playing, bool _ghost, uint _deadAt) {\n        _owner = kitties[_kittyID].owner;\n        _dead = kitties[_kittyID].dead;\n        _playing = kitties[_kittyID].playing;\n        _ghost = kitties[_kittyID].ghost;\n        _deadAt = kitties[_kittyID].deadAt;\n    }\n\n    /*\n     * Use the owner field as a control indicator to check if\n     * the kitty is owned by the game\n     */\n    modifier onlyOwnedKitty(uint256 _kittyID) {\n        require(kitties[_kittyID].owner != address(0));\n        _;\n    }\n\n    /*\n     * Use the owner field as a control indicator to check if\n     * the kitty is not already owned by the game\n     */\n    modifier onlyNotOwnedKitty(uint256 _kittyID) {\n        require(kitties[_kittyID].owner == address(0));\n        _;\n    }\n\n    /*\n     * Use the ghost field as a control indicator to check if\n     * the kitty is not permanent killed\n     */\n    modifier onlyNotGhostKitty(uint256 _kittyID) {\n        require(!kitties[_kittyID].ghost);\n        _;\n    }\n\n    /*\n     * Use the dead field as a control indicator to check if\n     * the kitty is not temporary killed\n     */\n    modifier onlyNotKilledKitty(uint256 _kittyID) {\n        require(!kitties[_kittyID].dead);\n        _;\n    }\n\n    event KittyAcquired(uint256 indexed _kittyID);\n\n    event KittyReleased(uint256 indexed _kittyID);\n\n    event KittyDied(uint256 indexed _kittyID);\n\n    event KittyResurrected(uint256 indexed _kittyID);\n\n    event KittyPermanentDeath(uint256 indexed _kittyID);\n\n    event Scheduled(uint256 scheduledJob, uint256 time, uint256 indexed kittyID);\n}\n\n",
  "sourcePath": "/home/wafflemakr/Desktop/KittieFight/alpha/contracts/modules/kittieHELL/KittieHell.sol",
  "compiler": {
    "name": "solc",
    "version": "0.5.11+commit.c082d0b4.Emscripten.clang"
  },
  "schemaVersion": "3.0.11",
  "updatedAt": "2019-08-13T15:12:07.357Z",
  "devdoc": {
    "author": "@panos, @ugwu, @ziweidream @Xalee @wafflemakr",
    "methods": {
      "acquireKitty(uint256,address)": {
        "author": "@ugwu @ziweidream",
        "details": "The last owner must be stored as a returned referenceThis function can only be carried out via proxy",
        "params": {
          "_kittyID": "the kittie to acquire"
        },
        "return": "true if the acquisition was successful"
      },
      "becomeGhost(uint256,uint256)": {
        "author": "@ziweidream",
        "details": "The kitty must be owned by the gameThis function can only be carried out via CronJobThis function will make a kitty permanently dead",
        "params": {
          "_kittyID": "The kittie to become ghost"
        },
        "return": "true if the kittie became a ghost and transferred to KittieHellDB"
      },
      "getKittyStatus(uint256)": {
        "author": "@ziweidream      ",
        "params": {
          "_kittyID": "The kittie to release"
        },
        "return": "the previous kitty owner, the kitty dead status, the kitty playing status, the kitty ghost status, and the kitty death time   "
      },
      "getResurrectionCost(uint256,uint256)": {
        "author": "@ziweidream",
        "details": "The resurrection cost per sec is a constant determined by GameVarAndFee contract",
        "params": {
          "_kittyID": "The kitty for whom the resurrection cost is requested"
        },
        "return": "the kitty's resurrection cost"
      },
      "isKittyDead(uint256)": {
        "author": "@ziweidream",
        "params": {
          "_kittyID": "The kitty to get status"
        },
        "return": "true/false if the kitty ID is dead or not"
      },
      "killKitty(uint256,uint256)": {
        "author": "@ziweidream",
        "details": "This function can only be carried out via CronJOb",
        "params": {
          "_kittyID": "The kitty to kill"
        },
        "return": "true/false if the kitty ID is killed or not"
      },
      "kittyDeathTime(uint256)": {
        "author": "@ziweidream",
        "params": {
          "_kittyID": "The kitty whose death time is requested"
        },
        "return": "the kitty's death time"
      },
      "payForResurrection(uint256,uint256)": {
        "author": "@ziweidream",
        "details": "The kitty must not be permanent deadThis function can only be carried out via proxyThe ressurection payment is in KTY tokens and sent to EndowmentFund contract",
        "params": {
          "_kittyID": "The kitty to resurrect"
        },
        "return": "true/false if the kitty ID is resurrected or not"
      }
    },
    "title": "This contract is responsible to acquire ownership of participating kitties, keep the mortality status and permanent lock them if needed."
  },
  "userdoc": {
    "methods": {
      "acquireKitty(uint256,address)": {
        "notice": "transfer the ownership of a kittie to this contract"
      },
      "getResurrectionCost(uint256,uint256)": {
        "notice": "Getting kitty `_kittyID` resurrection cost"
      },
      "isKittyDead(uint256)": {
        "notice": "Getting kitty `_kittyID` mortality status"
      },
      "killKitty(uint256,uint256)": {
        "notice": "Killing kitty `_kittyID`"
      },
      "kittyDeathTime(uint256)": {
        "notice": "Getting kitty `_kittyID` death time"
      },
      "payForResurrection(uint256,uint256)": {
        "notice": "Resurrecting kitty `_kittyID`"
      },
      "setProxy(address)": {
        "notice": "Set/update address of Proxy contract"
      }
    },
    "notice": "This contract is able to lock kitties forever caution is advised"
  }
}