{
  "contractName": "KittieHellDB",
  "abi": [
    {
      "constant": true,
      "inputs": [],
      "name": "genericDB",
      "outputs": [
        {
          "internalType": "contract GenericDB",
          "name": "",
          "type": "address"
        }
      ],
      "payable": false,
      "stateMutability": "view",
      "type": "function"
    },
    {
      "constant": true,
      "inputs": [],
      "name": "owner",
      "outputs": [
        {
          "internalType": "address payable",
          "name": "",
          "type": "address"
        }
      ],
      "payable": false,
      "stateMutability": "view",
      "type": "function"
    },
    {
      "constant": false,
      "inputs": [
        {
          "internalType": "contract ProxyBase",
          "name": "_proxy",
          "type": "address"
        }
      ],
      "name": "setProxy",
      "outputs": [],
      "payable": false,
      "stateMutability": "nonpayable",
      "type": "function"
    },
    {
      "constant": true,
      "inputs": [],
      "name": "kittieHELL",
      "outputs": [
        {
          "internalType": "contract KittieHell",
          "name": "",
          "type": "address"
        }
      ],
      "payable": false,
      "stateMutability": "view",
      "type": "function"
    },
    {
      "constant": true,
      "inputs": [],
      "name": "proxy",
      "outputs": [
        {
          "internalType": "contract ProxyBase",
          "name": "",
          "type": "address"
        }
      ],
      "payable": false,
      "stateMutability": "view",
      "type": "function"
    },
    {
      "constant": false,
      "inputs": [
        {
          "internalType": "address payable",
          "name": "newOwner",
          "type": "address"
        }
      ],
      "name": "transferOwnership",
      "outputs": [],
      "payable": false,
      "stateMutability": "nonpayable",
      "type": "function"
    },
    {
      "inputs": [
        {
          "internalType": "contract GenericDB",
          "name": "_genericDB",
          "type": "address"
        }
      ],
      "payable": false,
      "stateMutability": "nonpayable",
      "type": "constructor"
    },
    {
      "constant": false,
      "inputs": [
        {
          "internalType": "contract GenericDB",
          "name": "_genericDB",
          "type": "address"
        }
      ],
      "name": "setGenericDB",
      "outputs": [],
      "payable": false,
      "stateMutability": "nonpayable",
      "type": "function"
    },
    {
      "constant": false,
      "inputs": [],
      "name": "setKittieHELL",
      "outputs": [],
      "payable": false,
      "stateMutability": "nonpayable",
      "type": "function"
    },
    {
      "constant": true,
      "inputs": [],
      "name": "doesGhostsListExist",
      "outputs": [
        {
          "internalType": "bool",
          "name": "",
          "type": "bool"
        }
      ],
      "payable": false,
      "stateMutability": "view",
      "type": "function"
    },
    {
      "constant": true,
      "inputs": [
        {
          "internalType": "uint256",
          "name": "_id",
          "type": "uint256"
        }
      ],
      "name": "doesGhostExist",
      "outputs": [
        {
          "internalType": "bool",
          "name": "",
          "type": "bool"
        }
      ],
      "payable": false,
      "stateMutability": "view",
      "type": "function"
    },
    {
      "constant": true,
      "inputs": [],
      "name": "getGhostsListSize",
      "outputs": [
        {
          "internalType": "uint256",
          "name": "",
          "type": "uint256"
        }
      ],
      "payable": false,
      "stateMutability": "view",
      "type": "function"
    },
    {
      "constant": false,
      "inputs": [
        {
          "internalType": "uint256",
          "name": "_id",
          "type": "uint256"
        }
      ],
      "name": "fallToHell",
      "outputs": [],
      "payable": false,
      "stateMutability": "nonpayable",
      "type": "function"
    },
    {
      "constant": true,
      "inputs": [
        {
          "internalType": "uint256",
          "name": "_kittyId",
          "type": "uint256"
        }
      ],
      "name": "getKittieStatus",
      "outputs": [
        {
          "internalType": "address",
          "name": "",
          "type": "address"
        },
        {
          "internalType": "bool",
          "name": "",
          "type": "bool"
        },
        {
          "internalType": "bool",
          "name": "",
          "type": "bool"
        },
        {
          "internalType": "bool",
          "name": "",
          "type": "bool"
        },
        {
          "internalType": "uint256",
          "name": "",
          "type": "uint256"
        }
      ],
      "payable": false,
      "stateMutability": "view",
      "type": "function"
    },
    {
      "constant": false,
      "inputs": [
        {
          "internalType": "uint256",
          "name": "_id",
          "type": "uint256"
        },
        {
          "internalType": "uint256",
          "name": "kittieId",
          "type": "uint256"
        }
      ],
      "name": "setKittieAttributes",
      "outputs": [],
      "payable": false,
      "stateMutability": "nonpayable",
      "type": "function"
    },
    {
      "constant": true,
      "inputs": [
        {
          "internalType": "uint256",
          "name": "_id",
          "type": "uint256"
        }
      ],
      "name": "getKittieAttributes",
      "outputs": [
        {
          "internalType": "uint256",
          "name": "",
          "type": "uint256"
        },
        {
          "internalType": "address",
          "name": "",
          "type": "address"
        },
        {
          "internalType": "bool",
          "name": "",
          "type": "bool"
        },
        {
          "internalType": "bool",
          "name": "",
          "type": "bool"
        },
        {
          "internalType": "bool",
          "name": "",
          "type": "bool"
        },
        {
          "internalType": "uint256",
          "name": "",
          "type": "uint256"
        }
      ],
      "payable": false,
      "stateMutability": "view",
      "type": "function"
    },
    {
      "constant": true,
      "inputs": [
        {
          "internalType": "uint256",
          "name": "_id",
          "type": "uint256"
        }
      ],
      "name": "getAdjacentGhost",
      "outputs": [
        {
          "internalType": "bool",
          "name": "",
          "type": "bool"
        },
        {
          "internalType": "uint256",
          "name": "",
          "type": "uint256"
        }
      ],
      "payable": false,
      "stateMutability": "view",
      "type": "function"
    }
  ],
  "bytecode": "0x60806040523480156200001157600080fd5b5060405162002f8d38038062002f8d833981810160405260208110156200003757600080fd5b8101908080519060200190929190505050336000806101000a81548173ffffffffffffffffffffffffffffffffffffffff021916908373ffffffffffffffffffffffffffffffffffffffff1602179055506200009981620000a060201b60201c565b506200013b565b6000809054906101000a900473ffffffffffffffffffffffffffffffffffffffff1673ffffffffffffffffffffffffffffffffffffffff163373ffffffffffffffffffffffffffffffffffffffff1614620000f757fe5b80600260006101000a81548173ffffffffffffffffffffffffffffffffffffffff021916908373ffffffffffffffffffffffffffffffffffffffff16021790555050565b612e42806200014b6000396000f3fe608060405234801561001057600080fd5b50600436106101005760003560e01c806397107d6d11610097578063cfafbde711610066578063cfafbde71461048d578063d2799fe8146104d7578063ec556889146104e1578063f2fde38b1461052b57610100565b806397107d6d146103a95780639c9d61b3146103ed578063b4be5f5714610425578063c71d3bef1461046b57610100565b80637825ac4c116100d35780637825ac4c1461027d57806379fecc2e146102ab5780638da5cb5b146102c957806394e4d9621461031357610100565b80630d366453146101055780633564e78c146101a25780634afab815146101ec5780636470d39314610230575b600080fd5b6101316004803603602081101561011b57600080fd5b810190808035906020019092919050505061056f565b604051808781526020018673ffffffffffffffffffffffffffffffffffffffff1673ffffffffffffffffffffffffffffffffffffffff168152602001851515151581526020018415151515815260200183151515158152602001828152602001965050505050505060405180910390f35b6101aa610f65565b604051808273ffffffffffffffffffffffffffffffffffffffff1673ffffffffffffffffffffffffffffffffffffffff16815260200191505060405180910390f35b61022e6004803603602081101561020257600080fd5b81019080803573ffffffffffffffffffffffffffffffffffffffff169060200190929190505050610f8b565b005b61025c6004803603602081101561024657600080fd5b8101908080359060200190929190505050611025565b60405180831515151581526020018281526020019250505060405180910390f35b6102a96004803603602081101561029357600080fd5b81019080803590602001909291905050506111bf565b005b6102b3611421565b6040518082815260200191505060405180910390f35b6102d1611598565b604051808273ffffffffffffffffffffffffffffffffffffffff1673ffffffffffffffffffffffffffffffffffffffff16815260200191505060405180910390f35b61033f6004803603602081101561032957600080fd5b81019080803590602001909291905050506115bd565b604051808673ffffffffffffffffffffffffffffffffffffffff1673ffffffffffffffffffffffffffffffffffffffff1681526020018515151515815260200184151515158152602001831515151581526020018281526020019550505050505060405180910390f35b6103eb600480360360208110156103bf57600080fd5b81019080803573ffffffffffffffffffffffffffffffffffffffff1690602001909291905050506116c9565b005b6104236004803603604081101561040357600080fd5b810190808035906020019092919080359060200190929190505050611763565b005b6104516004803603602081101561043b57600080fd5b8101908080359060200190929190505050612675565b604051808215151515815260200191505060405180910390f35b6104736127f6565b604051808215151515815260200191505060405180910390f35b61049561296d565b604051808273ffffffffffffffffffffffffffffffffffffffff1673ffffffffffffffffffffffffffffffffffffffff16815260200191505060405180910390f35b6104df612993565b005b6104e9612b73565b604051808273ffffffffffffffffffffffffffffffffffffffff1673ffffffffffffffffffffffffffffffffffffffff16815260200191505060405180910390f35b61056d6004803603602081101561054157600080fd5b81019080803573ffffffffffffffffffffffffffffffffffffffff169060200190929190505050612b99565b005b6000806000806000806000600260009054906101000a900473ffffffffffffffffffffffffffffffffffffffff1673ffffffffffffffffffffffffffffffffffffffff166308acb5566040518060400160405280600c81526020017f4b697474696548656c6c444200000000000000000000000000000000000000008152508a60405160200180828152602001807f6b69747469654964000000000000000000000000000000000000000000000000815250600801915050604051602081830303815290604052805190602001206040518363ffffffff1660e01b81526004018080602001838152602001828103825284818151815260200191508051906020019080838360005b83811015610692578082015181840152602081019050610677565b50505050905090810190601f1680156106bf5780820380516001836020036101000a031916815260200191505b50935050505060206040518083038186803b1580156106dd57600080fd5b505afa1580156106f1573d6000803e3d6000fd5b505050506040513d602081101561070757600080fd5b810190808051906020019092919050505090506000600260009054906101000a900473ffffffffffffffffffffffffffffffffffffffff1673ffffffffffffffffffffffffffffffffffffffff1663b93a5b5e6040518060400160405280600c81526020017f4b697474696548656c6c444200000000000000000000000000000000000000008152508b60405160200180828152602001807f6f776e6572000000000000000000000000000000000000000000000000000000815250600501915050604051602081830303815290604052805190602001206040518363ffffffff1660e01b81526004018080602001838152602001828103825284818151815260200191508051906020019080838360005b83811015610834578082015181840152602081019050610819565b50505050905090810190601f1680156108615780820380516001836020036101000a031916815260200191505b50935050505060206040518083038186803b15801561087f57600080fd5b505afa158015610893573d6000803e3d6000fd5b505050506040513d60208110156108a957600080fd5b810190808051906020019092919050505090506000600260009054906101000a900473ffffffffffffffffffffffffffffffffffffffff1673ffffffffffffffffffffffffffffffffffffffff16631c58c8bb6040518060400160405280600c81526020017f4b697474696548656c6c444200000000000000000000000000000000000000008152508c60405160200180828152602001807f6465616400000000000000000000000000000000000000000000000000000000815250600401915050604051602081830303815290604052805190602001206040518363ffffffff1660e01b81526004018080602001838152602001828103825284818151815260200191508051906020019080838360005b838110156109d65780820151818401526020810190506109bb565b50505050905090810190601f168015610a035780820380516001836020036101000a031916815260200191505b50935050505060206040518083038186803b158015610a2157600080fd5b505afa158015610a35573d6000803e3d6000fd5b505050506040513d6020811015610a4b57600080fd5b810190808051906020019092919050505090506000600260009054906101000a900473ffffffffffffffffffffffffffffffffffffffff1673ffffffffffffffffffffffffffffffffffffffff16631c58c8bb6040518060400160405280600c81526020017f4b697474696548656c6c444200000000000000000000000000000000000000008152508d60405160200180828152602001807f706c6179696e6700000000000000000000000000000000000000000000000000815250600701915050604051602081830303815290604052805190602001206040518363ffffffff1660e01b81526004018080602001838152602001828103825284818151815260200191508051906020019080838360005b83811015610b78578082015181840152602081019050610b5d565b50505050905090810190601f168015610ba55780820380516001836020036101000a031916815260200191505b50935050505060206040518083038186803b158015610bc357600080fd5b505afa158015610bd7573d6000803e3d6000fd5b505050506040513d6020811015610bed57600080fd5b810190808051906020019092919050505090506000600260009054906101000a900473ffffffffffffffffffffffffffffffffffffffff1673ffffffffffffffffffffffffffffffffffffffff16631c58c8bb6040518060400160405280600c81526020017f4b697474696548656c6c444200000000000000000000000000000000000000008152508e60405160200180828152602001807f67686f7374000000000000000000000000000000000000000000000000000000815250600501915050604051602081830303815290604052805190602001206040518363ffffffff1660e01b81526004018080602001838152602001828103825284818151815260200191508051906020019080838360005b83811015610d1a578082015181840152602081019050610cff565b50505050905090810190601f168015610d475780820380516001836020036101000a031916815260200191505b50935050505060206040518083038186803b158015610d6557600080fd5b505afa158015610d79573d6000803e3d6000fd5b505050506040513d6020811015610d8f57600080fd5b810190808051906020019092919050505090506000600260009054906101000a900473ffffffffffffffffffffffffffffffffffffffff1673ffffffffffffffffffffffffffffffffffffffff166308acb5566040518060400160405280600c81526020017f4b697474696548656c6c444200000000000000000000000000000000000000008152508f60405160200180828152602001807f6465616441740000000000000000000000000000000000000000000000000000815250600601915050604051602081830303815290604052805190602001206040518363ffffffff1660e01b81526004018080602001838152602001828103825284818151815260200191508051906020019080838360005b83811015610ebc578082015181840152602081019050610ea1565b50505050905090810190601f168015610ee95780820380516001836020036101000a031916815260200191505b50935050505060206040518083038186803b158015610f0757600080fd5b505afa158015610f1b573d6000803e3d6000fd5b505050506040513d6020811015610f3157600080fd5b810190808051906020019092919050505090508585858585859b509b509b509b509b509b5050505050505091939550919395565b600260009054906101000a900473ffffffffffffffffffffffffffffffffffffffff1681565b6000809054906101000a900473ffffffffffffffffffffffffffffffffffffffff1673ffffffffffffffffffffffffffffffffffffffff163373ffffffffffffffffffffffffffffffffffffffff1614610fe157fe5b80600260006101000a81548173ffffffffffffffffffffffffffffffffffffffff021916908373ffffffffffffffffffffffffffffffffffffffff16021790555050565b600080600260009054906101000a900473ffffffffffffffffffffffffffffffffffffffff1673ffffffffffffffffffffffffffffffffffffffff16639a481f4e6040518060400160405280600c81526020017f4b697474696548656c6c444200000000000000000000000000000000000000008152507f47686f7374734c697374000000000000000000000000000000000000000000008660006040518563ffffffff1660e01b8152600401808060200185815260200184815260200183151515158152602001828103825286818151815260200191508051906020019080838360005b8381101561112557808201518184015260208101905061110a565b50505050905090810190601f1680156111525780820380516001836020036101000a031916815260200191505b5095505050505050604080518083038186803b15801561117157600080fd5b505afa158015611185573d6000803e3d6000fd5b505050506040513d604081101561119b57600080fd5b81019080805190602001909291908051906020019092919050505091509150915091565b6111c7612c67565b600260009054906101000a900473ffffffffffffffffffffffffffffffffffffffff1673ffffffffffffffffffffffffffffffffffffffff166387d533626040518060400160405280600c81526020017f4b697474696548656c6c444200000000000000000000000000000000000000008152507f47686f7374734c69737400000000000000000000000000000000000000000000846040518463ffffffff1660e01b81526004018080602001848152602001838152602001828103825285818151815260200191508051906020019080838360005b838110156112b857808201518184015260208101905061129d565b50505050905090810190601f1680156112e55780820380516001836020036101000a031916815260200191505b50945050505050602060405180830381600087803b15801561130657600080fd5b505af115801561131a573d6000803e3d6000fd5b505050506040513d602081101561133057600080fd5b81019080805190602001909291905050506040518060400160405280601c81526020017f47686f737420616c72656164792065786973747320696e2048656c6c000000008152509061141d576040517f08c379a00000000000000000000000000000000000000000000000000000000081526004018080602001828103825283818151815260200191508051906020019080838360005b838110156113e25780820151818401526020810190506113c7565b50505050905090810190601f16801561140f5780820380516001836020036101000a031916815260200191505b509250505060405180910390fd5b5050565b6000600260009054906101000a900473ffffffffffffffffffffffffffffffffffffffff1673ffffffffffffffffffffffffffffffffffffffff1663c7db8da26040518060400160405280600c81526020017f4b697474696548656c6c444200000000000000000000000000000000000000008152507f47686f7374734c697374000000000000000000000000000000000000000000006040518363ffffffff1660e01b81526004018080602001838152602001828103825284818151815260200191508051906020019080838360005b8381101561150d5780820151818401526020810190506114f2565b50505050905090810190601f16801561153a5780820380516001836020036101000a031916815260200191505b50935050505060206040518083038186803b15801561155857600080fd5b505afa15801561156c573d6000803e3d6000fd5b505050506040513d602081101561158257600080fd5b8101908080519060200190929190505050905090565b6000809054906101000a900473ffffffffffffffffffffffffffffffffffffffff1681565b600080600080600080600080600080600360009054906101000a900473ffffffffffffffffffffffffffffffffffffffff1673ffffffffffffffffffffffffffffffffffffffff16636889364c8c6040518263ffffffff1660e01b81526004018082815260200191505060a06040518083038186803b15801561163f57600080fd5b505afa158015611653573d6000803e3d6000fd5b505050506040513d60a081101561166957600080fd5b81019080805190602001909291908051906020019092919080519060200190929190805190602001909291908051906020019092919050505094509450945094509450848484848499509950995099509950505050505091939590929450565b6000809054906101000a900473ffffffffffffffffffffffffffffffffffffffff1673ffffffffffffffffffffffffffffffffffffffff163373ffffffffffffffffffffffffffffffffffffffff161461171f57fe5b80600160006101000a81548173ffffffffffffffffffffffffffffffffffffffff021916908373ffffffffffffffffffffffffffffffffffffffff16021790555050565b61176b612c67565b600260009054906101000a900473ffffffffffffffffffffffffffffffffffffffff1673ffffffffffffffffffffffffffffffffffffffff166396edc0096040518060400160405280600c81526020017f4b697474696548656c6c444200000000000000000000000000000000000000008152507f47686f7374734c69737400000000000000000000000000000000000000000000856040518463ffffffff1660e01b81526004018080602001848152602001838152602001828103825285818151815260200191508051906020019080838360005b8381101561185c578082015181840152602081019050611841565b50505050905090810190601f1680156118895780820380516001836020036101000a031916815260200191505b5094505050505060206040518083038186803b1580156118a857600080fd5b505afa1580156118bc573d6000803e3d6000fd5b505050506040513d60208110156118d257600080fd5b81019080805190602001909291905050506040518060400160405280601081526020017f47686f7374206e6f742065786973747300000000000000000000000000000000815250906119bf576040517f08c379a00000000000000000000000000000000000000000000000000000000081526004018080602001828103825283818151815260200191508051906020019080838360005b83811015611984578082015181840152602081019050611969565b50505050905090810190601f1680156119b15780820380516001836020036101000a031916815260200191505b509250505060405180910390fd5b5060008060008060006119d1866115bd565b945094509450945094506000600260009054906101000a900473ffffffffffffffffffffffffffffffffffffffff1673ffffffffffffffffffffffffffffffffffffffff166308acb5566040518060400160405280600c81526020017f4b697474696548656c6c444200000000000000000000000000000000000000008152508a60405160200180828152602001807f6b69747469654c656e6774680000000000000000000000000000000000000000815250600c01915050604051602081830303815290604052805190602001206040518363ffffffff1660e01b81526004018080602001838152602001828103825284818151815260200191508051906020019080838360005b83811015611af5578082015181840152602081019050611ada565b50505050905090810190601f168015611b225780820380516001836020036101000a031916815260200191505b50935050505060206040518083038186803b158015611b4057600080fd5b505afa158015611b54573d6000803e3d6000fd5b505050506040513d6020811015611b6a57600080fd5b81019080805190602001909291905050509050600260009054906101000a900473ffffffffffffffffffffffffffffffffffffffff1673ffffffffffffffffffffffffffffffffffffffff16630214a37c6040518060400160405280600c81526020017f4b697474696548656c6c444200000000000000000000000000000000000000008152508a60405160200180828152602001807f6b69747469654c656e6774680000000000000000000000000000000000000000815250600c0191505060405160208183030381529060405280519060200120611c54600186612df190919063ffffffff16565b6040518463ffffffff1660e01b81526004018080602001848152602001838152602001828103825285818151815260200191508051906020019080838360005b83811015611caf578082015181840152602081019050611c94565b50505050905090810190601f168015611cdc5780820380516001836020036101000a031916815260200191505b50945050505050600060405180830381600087803b158015611cfd57600080fd5b505af1158015611d11573d6000803e3d6000fd5b50505050600260009054906101000a900473ffffffffffffffffffffffffffffffffffffffff1673ffffffffffffffffffffffffffffffffffffffff16630214a37c6040518060400160405280600c81526020017f4b697474696548656c6c444200000000000000000000000000000000000000008152508a60405160200180828152602001807f6b69747469654964000000000000000000000000000000000000000000000000815250600801915050604051602081830303815290604052805190602001208a6040518463ffffffff1660e01b81526004018080602001848152602001838152602001828103825285818151815260200191508051906020019080838360005b83811015611e34578082015181840152602081019050611e19565b50505050905090810190601f168015611e615780820380516001836020036101000a031916815260200191505b50945050505050600060405180830381600087803b158015611e8257600080fd5b505af1158015611e96573d6000803e3d6000fd5b50505050600260009054906101000a900473ffffffffffffffffffffffffffffffffffffffff1673ffffffffffffffffffffffffffffffffffffffff1663866d59fe6040518060400160405280600c81526020017f4b697474696548656c6c444200000000000000000000000000000000000000008152508a60405160200180828152602001807f6f776e657200000000000000000000000000000000000000000000000000000081525060050191505060405160208183030381529060405280519060200120896040518463ffffffff1660e01b815260040180806020018481526020018373ffffffffffffffffffffffffffffffffffffffff1673ffffffffffffffffffffffffffffffffffffffff168152602001828103825285818151815260200191508051906020019080838360005b83811015611fe5578082015181840152602081019050611fca565b50505050905090810190601f1680156120125780820380516001836020036101000a031916815260200191505b50945050505050600060405180830381600087803b15801561203357600080fd5b505af1158015612047573d6000803e3d6000fd5b50505050600260009054906101000a900473ffffffffffffffffffffffffffffffffffffffff1673ffffffffffffffffffffffffffffffffffffffff1663cb30ffe76040518060400160405280600c81526020017f4b697474696548656c6c444200000000000000000000000000000000000000008152508a60405160200180828152602001807f646561640000000000000000000000000000000000000000000000000000000081525060040191505060405160208183030381529060405280519060200120886040518463ffffffff1660e01b8152600401808060200184815260200183151515158152602001828103825285818151815260200191508051906020019080838360005b8381101561216e578082015181840152602081019050612153565b50505050905090810190601f16801561219b5780820380516001836020036101000a031916815260200191505b50945050505050600060405180830381600087803b1580156121bc57600080fd5b505af11580156121d0573d6000803e3d6000fd5b50505050600260009054906101000a900473ffffffffffffffffffffffffffffffffffffffff1673ffffffffffffffffffffffffffffffffffffffff1663cb30ffe76040518060400160405280600c81526020017f4b697474696548656c6c444200000000000000000000000000000000000000008152508a60405160200180828152602001807f706c6179696e670000000000000000000000000000000000000000000000000081525060070191505060405160208183030381529060405280519060200120876040518463ffffffff1660e01b8152600401808060200184815260200183151515158152602001828103825285818151815260200191508051906020019080838360005b838110156122f75780820151818401526020810190506122dc565b50505050905090810190601f1680156123245780820380516001836020036101000a031916815260200191505b50945050505050600060405180830381600087803b15801561234557600080fd5b505af1158015612359573d6000803e3d6000fd5b50505050600260009054906101000a900473ffffffffffffffffffffffffffffffffffffffff1673ffffffffffffffffffffffffffffffffffffffff1663cb30ffe76040518060400160405280600c81526020017f4b697474696548656c6c444200000000000000000000000000000000000000008152508a60405160200180828152602001807f67686f737400000000000000000000000000000000000000000000000000000081525060050191505060405160208183030381529060405280519060200120866040518463ffffffff1660e01b8152600401808060200184815260200183151515158152602001828103825285818151815260200191508051906020019080838360005b83811015612480578082015181840152602081019050612465565b50505050905090810190601f1680156124ad5780820380516001836020036101000a031916815260200191505b50945050505050600060405180830381600087803b1580156124ce57600080fd5b505af11580156124e2573d6000803e3d6000fd5b50505050600260009054906101000a900473ffffffffffffffffffffffffffffffffffffffff1673ffffffffffffffffffffffffffffffffffffffff16630214a37c6040518060400160405280600c81526020017f4b697474696548656c6c444200000000000000000000000000000000000000008152508a60405160200180828152602001807f646561644174000000000000000000000000000000000000000000000000000081525060060191505060405160208183030381529060405280519060200120856040518463ffffffff1660e01b81526004018080602001848152602001838152602001828103825285818151815260200191508051906020019080838360005b838110156126055780820151818401526020810190506125ea565b50505050905090810190601f1680156126325780820380516001836020036101000a031916815260200191505b50945050505050600060405180830381600087803b15801561265357600080fd5b505af1158015612667573d6000803e3d6000fd5b505050505050505050505050565b6000600260009054906101000a900473ffffffffffffffffffffffffffffffffffffffff1673ffffffffffffffffffffffffffffffffffffffff166396edc0096040518060400160405280600c81526020017f4b697474696548656c6c444200000000000000000000000000000000000000008152507f47686f7374734c69737400000000000000000000000000000000000000000000856040518463ffffffff1660e01b81526004018080602001848152602001838152602001828103825285818151815260200191508051906020019080838360005b8381101561276857808201518184015260208101905061274d565b50505050905090810190601f1680156127955780820380516001836020036101000a031916815260200191505b5094505050505060206040518083038186803b1580156127b457600080fd5b505afa1580156127c8573d6000803e3d6000fd5b505050506040513d60208110156127de57600080fd5b81019080805190602001909291905050509050919050565b6000600260009054906101000a900473ffffffffffffffffffffffffffffffffffffffff1673ffffffffffffffffffffffffffffffffffffffff16639081fd016040518060400160405280600c81526020017f4b697474696548656c6c444200000000000000000000000000000000000000008152507f47686f7374734c697374000000000000000000000000000000000000000000006040518363ffffffff1660e01b81526004018080602001838152602001828103825284818151815260200191508051906020019080838360005b838110156128e25780820151818401526020810190506128c7565b50505050905090810190601f16801561290f5780820380516001836020036101000a031916815260200191505b50935050505060206040518083038186803b15801561292d57600080fd5b505afa158015612941573d6000803e3d6000fd5b505050506040513d602081101561295757600080fd5b8101908080519060200190929190505050905090565b600360009054906101000a900473ffffffffffffffffffffffffffffffffffffffff1681565b6000809054906101000a900473ffffffffffffffffffffffffffffffffffffffff1673ffffffffffffffffffffffffffffffffffffffff163373ffffffffffffffffffffffffffffffffffffffff16146129e957fe5b600160009054906101000a900473ffffffffffffffffffffffffffffffffffffffff1673ffffffffffffffffffffffffffffffffffffffff1663358177736040518060400160405280600a81526020017f4b697474696548656c6c000000000000000000000000000000000000000000008152506040518263ffffffff1660e01b81526004018080602001828103825283818151815260200191508051906020019080838360005b83811015612aac578082015181840152602081019050612a91565b50505050905090810190601f168015612ad95780820380516001836020036101000a031916815260200191505b509250505060206040518083038186803b158015612af657600080fd5b505afa158015612b0a573d6000803e3d6000fd5b505050506040513d6020811015612b2057600080fd5b8101908080519060200190929190505050600360006101000a81548173ffffffffffffffffffffffffffffffffffffffff021916908373ffffffffffffffffffffffffffffffffffffffff160217905550565b600160009054906101000a900473ffffffffffffffffffffffffffffffffffffffff1681565b6000809054906101000a900473ffffffffffffffffffffffffffffffffffffffff1673ffffffffffffffffffffffffffffffffffffffff163373ffffffffffffffffffffffffffffffffffffffff1614612bef57fe5b600073ffffffffffffffffffffffffffffffffffffffff168173ffffffffffffffffffffffffffffffffffffffff1614612c6457806000806101000a81548173ffffffffffffffffffffffffffffffffffffffff021916908373ffffffffffffffffffffffffffffffffffffffff1602179055505b50565b600073ffffffffffffffffffffffffffffffffffffffff16600160009054906101000a900473ffffffffffffffffffffffffffffffffffffffff1673ffffffffffffffffffffffffffffffffffffffff161415612d2c576040517f08c379a00000000000000000000000000000000000000000000000000000000081526004018080602001828103825260088152602001807f4e6f2050726f787900000000000000000000000000000000000000000000000081525060200191505060405180910390fd5b600160009054906101000a900473ffffffffffffffffffffffffffffffffffffffff1673ffffffffffffffffffffffffffffffffffffffff163373ffffffffffffffffffffffffffffffffffffffff1614612def576040517f08c379a00000000000000000000000000000000000000000000000000000000081526004018080602001828103825260128152602001807f4f6e6c79207468726f7567682050726f7879000000000000000000000000000081525060200191505060405180910390fd5b565b600080828401905083811015612e0357fe5b809150509291505056fea265627a7a72315820e2d784d8d62d972cf2d36d5961f21f37ffc4c49dbcb38933f4e966ce20bd69b364736f6c634300050b0032",
  "source": "/**\n * @title kittiehellDB\n *\n * @author @kittieFIGHT @ola\n *\n */\n//modifier class (DSAuth )\n//Event class ( DSNote )\n//\n// This program is free software: you can redistribute it and/or modify\n// it under the terms of the GNU General Public License as published by\n// the Free Software Foundation, either version 3 of the License, or\n// (at your option) any later version.\n\n// This program is distributed in the hope that it will be useful,\n// but WITHOUT ANY WARRANTY; without even the implied warranty of\n// MERCHANTABILITY or FITNESS FOR A PARTICULAR PURPOSE.  See the\n// GNU General Public License for more details.\n\n// You should have received a copy of the GNU General Public License\n// along with this program.  If not, see <http://www.gnu.org/licenses/>.\npragma solidity ^0.5.5;\n\nimport \"../proxy/Proxied.sol\";\nimport \"../../authority/Guard.sol\";\nimport \"./GenericDB.sol\";\nimport \"../../libs/SafeMath.sol\";\nimport \"../kittieHELL/KittieHell.sol\";\n\n/**\n * @title KittieHellDB\n * @author @kittieFIGHT @ziweidream\n */\n\ncontract KittieHellDB is Proxied, Guard {\n    using SafeMath for uint256;\n\n    GenericDB public genericDB;\n    KittieHell public kittieHELL;\n\n    bytes32 internal constant TABLE_KEY_KITTIEHELL = keccak256(abi.encodePacked(\"KittieHellTable\"));\n    bytes32 internal constant TABLE_NAME_GHOST = \"GhostsList\";\n    string internal constant ERROR_ALREADY_EXIST = \"Ghost already exists in Hell\";\n    string internal constant ERROR_DOES_NOT_EXIST = \"Ghost not exists\";\n\n    constructor(GenericDB _genericDB) public {\n      setGenericDB(_genericDB);\n    }\n\n    function setGenericDB(GenericDB _genericDB) public onlyOwner {\n      genericDB = GenericDB(_genericDB);\n   }\n\n    function setKittieHELL() public onlyOwner {\n      kittieHELL = KittieHell(proxy.getContract(CONTRACT_NAME_KITTIEHELL));\n    }\n\n    /**\n   * @author @ziweidream\n   * @return true if the database GhostsList exists     \n   */\n    function doesGhostsListExist() public view returns (bool) {\n      return genericDB.doesListExist(CONTRACT_NAME_KITTIEHELL_DB, TABLE_NAME_GHOST);\n    }\n\n  /**\n   * @author @ziweidream\n   * @param _id the node id \n   * @return true if the node _id exists     \n   */\n  function doesGhostExist(uint256 _id) public view returns (bool) {\n    return genericDB.doesNodeExist(CONTRACT_NAME_KITTIEHELL_DB, TABLE_NAME_GHOST, _id);\n  }\n  \n  /**\n   * @author @ziweidream   \n   * @return the size of GhostsList    \n   */\n  function getGhostsListSize() public view returns (uint256) {\n      return genericDB.getLinkedListSize(CONTRACT_NAME_KITTIEHELL_DB, TABLE_NAME_GHOST);\n  }\n\n  /**\n   * @author @ziweidream\n   * @dev This function can only be carried out via proxy\n   * @dev Add the node _id to GhostsList \n   * @param _id the node id        \n   */\n  function fallToHell(uint256 _id)\n    public \n    onlyProxy\n  { \n    require(genericDB.pushNodeToLinkedList(CONTRACT_NAME_KITTIEHELL_DB, TABLE_NAME_GHOST, _id), ERROR_ALREADY_EXIST);\n  }\n\n  /**\n   * @author @ziweidream   \n   * @dev Get the previous status of a kitty from KittieHel.sol contract\n   * @param _kittyId the kitty whose status are to be obtained    \n   * @return the previous kitty owner, the kitty dead status, the kitty playing status, the kitty ghost status, and the kitty death time   \n   */\n  function getKittieStatus (uint256 _kittyId) public view returns (address, bool, bool, bool, uint) {\n      (address _owner, bool _dead, bool _playing, bool _ghost, uint _deadAt) = kittieHELL.getKittyStatus(_kittyId);\n      return (_owner, _dead, _playing, _ghost, _deadAt);\n  }\n\n  /**\n   * @author @ziweidream\n   * @dev This function can only be carried out via proxy\n   * @dev Set the attributes of a kitty ghost\n   * @param _id the node id\n   * @param kittieId the kitty whose attributes are set into this node\n   */\n  function setKittieAttributes(\n    uint256 _id,\n    uint256 kittieId\n  )\n    public\n    onlyProxy\n  {\n    require(genericDB.doesNodeExist(CONTRACT_NAME_KITTIEHELL_DB, TABLE_NAME_GHOST, _id), ERROR_DOES_NOT_EXIST);\n\n    (address owner, bool dead, bool playing, bool ghost, uint deadAt) = getKittieStatus(kittieId);\n   \n    uint256 numberOfKitties = genericDB.getUintStorage(CONTRACT_NAME_KITTIEHELL_DB, keccak256(abi.encodePacked(_id, \"kittieLength\")));\n    genericDB.setUintStorage(CONTRACT_NAME_KITTIEHELL_DB, keccak256(abi.encodePacked(_id, \"kittieLength\")), numberOfKitties.add(1));\n    genericDB.setUintStorage(CONTRACT_NAME_KITTIEHELL_DB, keccak256(abi.encodePacked(_id, \"kittieId\")), kittieId);\n    genericDB.setAddressStorage(CONTRACT_NAME_KITTIEHELL_DB, keccak256(abi.encodePacked(_id, \"owner\")), owner);\n    genericDB.setBoolStorage(CONTRACT_NAME_KITTIEHELL_DB, keccak256(abi.encodePacked(_id, \"dead\")), dead);\n    genericDB.setBoolStorage(CONTRACT_NAME_KITTIEHELL_DB, keccak256(abi.encodePacked(_id, \"playing\")), playing);\n    genericDB.setBoolStorage(CONTRACT_NAME_KITTIEHELL_DB, keccak256(abi.encodePacked(_id, \"ghost\")), ghost);\n    genericDB.setUintStorage(CONTRACT_NAME_KITTIEHELL_DB, keccak256(abi.encodePacked(_id, \"deadAt\")), deadAt);\n    \n  }\n\n  /**\n   * @author @ziweidream\n   * @param _id the node id\n   * @return the kitty, its ghost status, and its death time\n   */\n  function getKittieAttributes(uint256 _id) public view returns (uint256, address, bool, bool, bool, uint256) {\n    uint256 _kittyID = genericDB.getUintStorage(CONTRACT_NAME_KITTIEHELL_DB, keccak256(abi.encodePacked(_id, \"kittieId\")));\n    address _owner = genericDB.getAddressStorage(CONTRACT_NAME_KITTIEHELL_DB, keccak256(abi.encodePacked(_id, \"owner\")));\n    bool _dead = genericDB.getBoolStorage(CONTRACT_NAME_KITTIEHELL_DB, keccak256(abi.encodePacked(_id, \"dead\")));\n    bool _playing = genericDB.getBoolStorage(CONTRACT_NAME_KITTIEHELL_DB, keccak256(abi.encodePacked(_id, \"playing\")));\n    bool _ghost = genericDB.getBoolStorage(CONTRACT_NAME_KITTIEHELL_DB, keccak256(abi.encodePacked(_id, \"ghost\")));\n    uint256 _deadAt = genericDB.getUintStorage(CONTRACT_NAME_KITTIEHELL_DB, keccak256(abi.encodePacked(_id, \"deadAt\")));\n\n    return (_kittyID, _owner, _dead, _playing, _ghost, _deadAt);\n  }\n  \n  /**\n   * @author @ziweidream\n   * @dev Add the node _id to GhostsList\n   * @param _id the node id\n   * @return the direction which is default as false, and the node id of the ajacent node\n   */\n  function getAdjacentGhost(uint256 _id) public view returns (bool, uint256) {\n    return genericDB.getAdjacent(CONTRACT_NAME_KITTIEHELL_DB, TABLE_NAME_GHOST, _id, false);\n  }\n\n  // this function should not exist since no kitty can be released from the hell once the deadline\n  // for ressurection has been passed without proper action (pay for ressrrection) being taken\n  /**\n   * @author @ziweidream\n   * @dev This function can only be carried out via CronJob.sol contract\n   * @dev Removes the node _id from GhostsList\n   * @param _id the node id\n   * @return true if the node is removed from GhostsList\n   */\n  //function removeGhostFromHell(uint256 _id)\n   //public\n   //onlyContract(CONTRACT_NAME_CRONJOB)\n   //returns (bool) {\n    //return genericDB.removeNodeFromLinkedList(CONTRACT_NAME_KITTIEHELL_DB, TABLE_NAME_GHOST, _id);\n  //}\n\n}\n\n",
  "sourcePath": "/home/wafflemakr/Desktop/KittieFight/alpha/contracts/modules/databases/KittieHellDB.sol",
  "compiler": {
    "name": "solc",
    "version": "0.5.11+commit.c082d0b4.Emscripten.clang"
  },
  "schemaVersion": "3.0.11",
  "updatedAt": "2019-08-17T15:09:53.160Z",
  "devdoc": {
    "author": "@kittieFIGHT @ziweidream",
    "methods": {
      "doesGhostExist(uint256)": {
        "author": "@ziweidream",
        "params": {
          "_id": "the node id "
        },
        "return": "true if the node _id exists     "
      },
      "doesGhostsListExist()": {
        "author": "@ziweidream",
        "return": "true if the database GhostsList exists     "
      },
      "fallToHell(uint256)": {
        "author": "@ziweidream",
        "details": "This function can only be carried out via proxyAdd the node _id to GhostsList ",
        "params": {
          "_id": "the node id        "
        }
      },
      "getAdjacentGhost(uint256)": {
        "author": "@ziweidream",
        "details": "Add the node _id to GhostsList",
        "params": {
          "_id": "the node id"
        },
        "return": "the direction which is default as false, and the node id of the ajacent node"
      },
      "getGhostsListSize()": {
        "author": "@ziweidream   ",
        "return": "the size of GhostsList    "
      },
      "getKittieAttributes(uint256)": {
        "author": "@ziweidream",
        "params": {
          "_id": "the node id"
        },
        "return": "the kitty, its ghost status, and its death time"
      },
      "getKittieStatus(uint256)": {
        "author": "@ziweidream   ",
        "details": "Get the previous status of a kitty from KittieHel.sol contract",
        "params": {
          "_kittyId": "the kitty whose status are to be obtained    "
        },
        "return": "the previous kitty owner, the kitty dead status, the kitty playing status, the kitty ghost status, and the kitty death time   "
      },
      "setKittieAttributes(uint256,uint256)": {
        "author": "@ziweidream",
        "details": "This function can only be carried out via proxySet the attributes of a kitty ghost",
        "params": {
          "_id": "the node id",
          "kittieId": "the kitty whose attributes are set into this node"
        }
      }
    },
    "title": "KittieHellDB"
  },
  "userdoc": {
    "methods": {
      "setProxy(address)": {
        "notice": "Set/update address of Proxy contract"
      }
    }
  }
}