{
  "contractName": "KittieHellDB",
  "abi": [
    {
      "inputs": [
        {
          "internalType": "contract GenericDB",
          "name": "_genericDB",
          "type": "address"
        }
      ],
      "payable": false,
      "stateMutability": "nonpayable",
      "type": "constructor"
    },
    {
      "anonymous": false,
      "inputs": [
        {
          "indexed": true,
          "internalType": "uint256",
          "name": "kittyID",
          "type": "uint256"
        },
        {
          "indexed": false,
          "internalType": "address",
          "name": "_owner",
          "type": "address"
        },
        {
          "indexed": true,
          "internalType": "uint256",
          "name": "_id",
          "type": "uint256"
        }
      ],
      "name": "AddedToKittieHellDB",
      "type": "event"
    },
    {
      "constant": true,
      "inputs": [],
      "name": "genericDB",
      "outputs": [
        {
          "internalType": "contract GenericDB",
          "name": "",
          "type": "address"
        }
      ],
      "payable": false,
      "stateMutability": "view",
      "type": "function"
    },
    {
      "constant": true,
      "inputs": [],
      "name": "kittieHELL",
      "outputs": [
        {
          "internalType": "contract KittieHell",
          "name": "",
          "type": "address"
        }
      ],
      "payable": false,
      "stateMutability": "view",
      "type": "function"
    },
    {
      "constant": true,
      "inputs": [],
      "name": "owner",
      "outputs": [
        {
          "internalType": "address payable",
          "name": "",
          "type": "address"
        }
      ],
      "payable": false,
      "stateMutability": "view",
      "type": "function"
    },
    {
      "constant": true,
      "inputs": [],
      "name": "proxy",
      "outputs": [
        {
          "internalType": "contract ProxyBase",
          "name": "",
          "type": "address"
        }
      ],
      "payable": false,
      "stateMutability": "view",
      "type": "function"
    },
    {
      "constant": false,
      "inputs": [
        {
          "internalType": "contract ProxyBase",
          "name": "_proxy",
          "type": "address"
        }
      ],
      "name": "setProxy",
      "outputs": [],
      "payable": false,
      "stateMutability": "nonpayable",
      "type": "function"
    },
    {
      "constant": false,
      "inputs": [
        {
          "internalType": "address payable",
          "name": "newOwner",
          "type": "address"
        }
      ],
      "name": "transferOwnership",
      "outputs": [],
      "payable": false,
      "stateMutability": "nonpayable",
      "type": "function"
    },
    {
      "constant": false,
      "inputs": [
        {
          "internalType": "contract GenericDB",
          "name": "_genericDB",
          "type": "address"
        }
      ],
      "name": "setGenericDB",
      "outputs": [],
      "payable": false,
      "stateMutability": "nonpayable",
      "type": "function"
    },
    {
      "constant": false,
      "inputs": [],
      "name": "setKittieHELL",
      "outputs": [],
      "payable": false,
      "stateMutability": "nonpayable",
      "type": "function"
    },
    {
      "constant": true,
      "inputs": [
        {
          "internalType": "uint256",
          "name": "_id",
          "type": "uint256"
        }
      ],
      "name": "doesGhostExist",
      "outputs": [
        {
          "internalType": "bool",
          "name": "",
          "type": "bool"
        }
      ],
      "payable": false,
      "stateMutability": "view",
      "type": "function"
    },
    {
      "constant": false,
      "inputs": [
        {
          "internalType": "uint256",
          "name": "_kittieID",
          "type": "uint256"
        },
        {
          "internalType": "address",
          "name": "_owner",
          "type": "address"
        }
      ],
      "name": "loserKittieToHell",
      "outputs": [],
      "payable": false,
      "stateMutability": "nonpayable",
      "type": "function"
    },
    {
      "constant": true,
      "inputs": [
        {
          "internalType": "uint256",
          "name": "_id",
          "type": "uint256"
        }
      ],
      "name": "getGhostAttributes",
      "outputs": [
        {
          "internalType": "uint256",
          "name": "",
          "type": "uint256"
        },
        {
          "internalType": "address",
          "name": "",
          "type": "address"
        },
        {
          "internalType": "bool",
          "name": "",
          "type": "bool"
        },
        {
          "internalType": "uint256",
          "name": "",
          "type": "uint256"
        }
      ],
      "payable": false,
      "stateMutability": "view",
      "type": "function"
    },
    {
      "constant": true,
      "inputs": [],
      "name": "getLastGhostId",
      "outputs": [
        {
          "internalType": "uint256",
          "name": "",
          "type": "uint256"
        }
      ],
      "payable": false,
      "stateMutability": "view",
      "type": "function"
    },
    {
      "constant": false,
      "inputs": [
        {
          "internalType": "uint256",
          "name": "_kittieID",
          "type": "uint256"
        },
        {
          "internalType": "address",
          "name": "_owner",
          "type": "address"
        },
        {
          "internalType": "uint256",
          "name": "_sacrificeKittie",
          "type": "uint256"
        }
      ],
      "name": "sacrificeKittieToHell",
      "outputs": [],
      "payable": false,
      "stateMutability": "nonpayable",
      "type": "function"
    },
    {
      "constant": true,
      "inputs": [
        {
          "internalType": "uint256",
          "name": "_kittieID",
          "type": "uint256"
        }
      ],
      "name": "getNumberOfSacrificeKitties",
      "outputs": [
        {
          "internalType": "uint256",
          "name": "",
          "type": "uint256"
        }
      ],
      "payable": false,
      "stateMutability": "view",
      "type": "function"
    },
    {
      "constant": false,
      "inputs": [
        {
          "internalType": "uint256",
          "name": "_kittieID",
          "type": "uint256"
        },
        {
          "internalType": "uint256",
          "name": "_kty_amount",
          "type": "uint256"
        }
      ],
      "name": "lockKTYsInKittieHell",
      "outputs": [],
      "payable": false,
      "stateMutability": "nonpayable",
      "type": "function"
    },
    {
      "constant": true,
      "inputs": [],
      "name": "getTotalKTYsLockedInKittieHell",
      "outputs": [
        {
          "internalType": "uint256",
          "name": "",
          "type": "uint256"
        }
      ],
      "payable": false,
      "stateMutability": "view",
      "type": "function"
    },
    {
      "constant": true,
      "inputs": [],
      "name": "getTotalNumberOfGhostsInHell",
      "outputs": [
        {
          "internalType": "uint256",
          "name": "",
          "type": "uint256"
        }
      ],
      "payable": false,
      "stateMutability": "view",
      "type": "function"
    },
    {
      "constant": true,
      "inputs": [
        {
          "internalType": "uint256",
          "name": "_kittieID",
          "type": "uint256"
        }
      ],
      "name": "getGhostIdForKittie",
      "outputs": [
        {
          "internalType": "uint256",
          "name": "",
          "type": "uint256"
        }
      ],
      "payable": false,
      "stateMutability": "view",
      "type": "function"
    },
    {
      "constant": true,
      "inputs": [
        {
          "internalType": "uint256",
          "name": "_kittieID",
          "type": "uint256"
        }
      ],
      "name": "isKittieGhost",
      "outputs": [
        {
          "internalType": "bool",
          "name": "",
          "type": "bool"
        }
      ],
      "payable": false,
      "stateMutability": "view",
      "type": "function"
    }
  ],
  "bytecode": "0x60806040523480156200001157600080fd5b50604051620032f7380380620032f7833981810160405260208110156200003757600080fd5b5051600080546001600160a01b031916331790556200005f816001600160e01b036200006616565b506200009d565b6000546001600160a01b031633146200007b57fe5b600280546001600160a01b0319166001600160a01b0392909216919091179055565b61324a80620000ad6000396000f3fe608060405234801561001057600080fd5b50600436106101215760003560e01c8063b4be5f57116100ad578063e2e573e711610071578063e2e573e7146102ad578063ec556889146102df578063f2fde38b146102e7578063f557bd211461030d578063ff6010ea1461033057610121565b8063b4be5f5714610270578063b72819f51461028d578063cf4f6cd514610295578063cfafbde71461029d578063d2799fe8146102a557610121565b80636ac3a7cf116100f45780636ac3a7cf146101bd578063828ac0be146101da5780638da5cb5b1461022557806397107d6d1461022d57806398081ac21461025357610121565b80632cf0b564146101265780633564e78c146101575780634afab8151461017b57806359822e5d146101a3575b600080fd5b6101436004803603602081101561013c57600080fd5b503561035c565b604080519115158252519081900360200190f35b61015f61039c565b604080516001600160a01b039092168252519081900360200190f35b6101a16004803603602081101561019157600080fd5b50356001600160a01b03166103ab565b005b6101ab6103e1565b60408051918252519081900360200190f35b6101ab600480360360208110156101d357600080fd5b5035610522565b6101f7600480360360208110156101f057600080fd5b5035610665565b604080519485526001600160a01b039093166020850152901515838301526060830152519081900360800190f35b61015f610b40565b6101a16004803603602081101561024357600080fd5b50356001600160a01b0316610b4f565b6101ab6004803603602081101561026957600080fd5b5035610b85565b6101436004803603602081101561028657600080fd5b5035610c37565b6101ab610d48565b6101ab610e01565b61015f610f56565b6101a1610f65565b6101a1600480360360608110156102c357600080fd5b508035906001600160a01b036020820135169060400135611089565b61015f61205a565b6101a1600480360360208110156102fd57600080fd5b50356001600160a01b0316612069565b6101a16004803603604081101561032357600080fd5b50803590602001356120ab565b6101a16004803603604081101561034657600080fd5b50803590602001356001600160a01b031661240f565b60008061036883610b85565b905080610379576000915050610397565b61038281610c37565b15610391576001915050610397565b60009150505b919050565b6002546001600160a01b031681565b6000546001600160a01b031633146103bf57fe5b600280546001600160a01b0319166001600160a01b0392909216919091179055565b600254604080518082018252600c81526b25b4ba3a34b2a432b636222160a11b602080830191825283517f746f74616c4b5459734c6f636b6564496e4b697474696548656c6c0000000000818301528451808203601b018152603b8201808752815191909301206304565aab60e11b909252605f8101829052603f81019485528351607f82015283516000966001600160a01b0316956308acb556959490928392609f90910191908083838c5b838110156104a657818101518382015260200161048e565b50505050905090810190601f1680156104d35780820380516001836020036101000a031916815260200191505b50935050505060206040518083038186803b1580156104f157600080fd5b505afa158015610505573d6000803e3d6000fd5b505050506040513d602081101561051b57600080fd5b5051905090565b600254604080518082018252600c81526b25b4ba3a34b2a432b636222160a11b60208083019182528351808201879052776e756d6265724f665361637269666963654b69747469657360401b818601528451603881830301815260588201808752815191909301206304565aab60e11b909252607c8101829052605c81019485528351609c82015283516000966001600160a01b0316956308acb55695949092839260bc90910191908083838c5b838110156105e85781810151838201526020016105d0565b50505050905090810190601f1680156106155780820380516001836020036101000a031916815260200191505b50935050505060206040518083038186803b15801561063357600080fd5b505afa158015610647573d6000803e3d6000fd5b505050506040513d602081101561065d57600080fd5b505192915050565b600254604080518082018252600c81526b25b4ba3a34b2a432b636222160a11b60208083019182528351808201879052671ada5d1d1a59525960c21b818601528451602881830301815260488201808752815191909301206304565aab60e11b909252606c8101829052604c81019485528351608c820152835160009687968796879687966001600160a01b03909416956308acb5569592949392839260ac90920191908083838c5b8381101561072657818101518382015260200161070e565b50505050905090810190601f1680156107535780820380516001836020036101000a031916815260200191505b50935050505060206040518083038186803b15801561077157600080fd5b505afa158015610785573d6000803e3d6000fd5b505050506040513d602081101561079b57600080fd5b5051600254604080518082018252600c81526b25b4ba3a34b2a432b636222160a11b602082810191825283518082018d90526437bbb732b960d91b81860152845160258183030181526045820180875281519190930120635c9d2daf60e11b90925260698101829052604981019485528351608982015283519697506000966001600160a01b039096169563b93a5b5e959293839260a901918083838c5b83811015610851578181015183820152602001610839565b50505050905090810190601f16801561087e5780820380516001836020036101000a031916815260200191505b50935050505060206040518083038186803b15801561089c57600080fd5b505afa1580156108b0573d6000803e3d6000fd5b505050506040513d60208110156108c657600080fd5b5051600254604080518082018252600c81526b25b4ba3a34b2a432b636222160a11b602082810191825283518082018e90526e7361637269666963654b697474696560881b818601528451602f818303018152604f820180875281519190930120631c58c8bb60e01b90925260738101829052605381019485528351609382015283519697506000966001600160a01b0390961695631c58c8bb959293839260b301918083838c5b8381101561098657818101518382015260200161096e565b50505050905090810190601f1680156109b35780820380516001836020036101000a031916815260200191505b50935050505060206040518083038186803b1580156109d157600080fd5b505afa1580156109e5573d6000803e3d6000fd5b505050506040513d60208110156109fb57600080fd5b5051600254604080518082018252600c81526b25b4ba3a34b2a432b636222160a11b602082810191825283518082018f90526b39b0b1b934b334b1b2a337b960a11b818601528451602c818303018152604c8201808752815191909301206304565aab60e11b90925260708101829052605081019485528351609082015283519697506000966001600160a01b03909616956308acb556959293839260b001918083838c5b83811015610ab8578181015183820152602001610aa0565b50505050905090810190601f168015610ae55780820380516001836020036101000a031916815260200191505b50935050505060206040518083038186803b158015610b0357600080fd5b505afa158015610b17573d6000803e3d6000fd5b505050506040513d6020811015610b2d57600080fd5b5051939992985090965091945092505050565b6000546001600160a01b031681565b6000546001600160a01b03163314610b6357fe5b600180546001600160a01b0319166001600160a01b0392909216919091179055565b600254604080518082018252600c81526b25b4ba3a34b2a432b636222160a11b602080830191825283518082018790526619da1bdcdd125160ca1b818601528451808203602701815260478201808752815191909301206304565aab60e11b909252606b8101829052604b81019485528351608b82015283516000966001600160a01b0316956308acb55695949092839260ab90910191908083838c83156105e85781810151838201526020016105d0565b600254604080518082018252600c81526b25b4ba3a34b2a432b636222160a11b602080830191825283516e4b697474696548656c6c5461626c6560881b818301528451808203600f018152602f82019586905280519201919091206396edc00960e01b90945260538101849052607381018690526060603382019081528351609383015283516000966001600160a01b0316956396edc00995949093899392839260b390920191908083838d5b83811015610cfc578181015183820152602001610ce4565b50505050905090810190601f168015610d295780820380516001836020036101000a031916815260200191505b5094505050505060206040518083038186803b15801561063357600080fd5b600254604080518082018252600c81526b25b4ba3a34b2a432b636222160a11b6020808301918252835173746f74616c4e756d6265724f664b69747469657360601b818301528451601481830301815260348201808752815191909301206304565aab60e11b90925260588101829052603881019485528351607882015283516000966001600160a01b0316956308acb556959490928392609890910191908083838c83156104a657818101518382015260200161048e565b600254604080518082018252600c81526b25b4ba3a34b2a432b636222160a11b602080830191825283516e4b697474696548656c6c5461626c6560881b818301528451808203600f018152602f8201958690528051920191909120634d240fa760e11b90945260538101849052600060738201819052600160938301819052608060338401908152855160b38501528551929788976001600160a01b0390911696639a481f4e969095919489949392839260d390910191808383895b83811015610ed5578181015183820152602001610ebd565b50505050905090810190601f168015610f025780820380516001836020036101000a031916815260200191505b5095505050505050604080518083038186803b158015610f2157600080fd5b505afa158015610f35573d6000803e3d6000fd5b505050506040513d6040811015610f4b57600080fd5b506020015191505090565b6003546001600160a01b031681565b6000546001600160a01b03163314610f7957fe5b600154604080518082018252600a81526912da5d1d1a5952195b1b60b21b60208083019182529251633581777360e01b8152600481019384528251602482015282516001600160a01b03909516946335817773949283926044019180838360005b83811015610ff2578181015183820152602001610fda565b50505050905090810190601f16801561101f5780820380516001836020036101000a031916815260200191505b509250505060206040518083038186803b15801561103c57600080fd5b505afa158015611050573d6000803e3d6000fd5b505050506040513d602081101561106657600080fd5b5051600380546001600160a01b0319166001600160a01b03909216919091179055565b6040518060400160405280600a81526020016912da5d1d1a5952195b1b60b21b8152506110b581612e60565b600154604080518082018252600d81526c43727970746f4b69747469657360981b60208083019182529251633581777360e01b8152600481019384528251602482015282516001600160a01b03808a1696169463358177739493909283926044909101919080838360005b83811015611138578181015183820152602001611120565b50505050905090810190601f1680156111655780820380516001836020036101000a031916815260200191505b509250505060206040518083038186803b15801561118257600080fd5b505afa158015611196573d6000803e3d6000fd5b505050506040513d60208110156111ac57600080fd5b5051604080516331a9108f60e11b81526004810186905290516001600160a01b0390921691636352211e91602480820192602092909190829003018186803b1580156111f757600080fd5b505afa15801561120b573d6000803e3d6000fd5b505050506040513d602081101561122157600080fd5b50516001600160a01b03161461123657600080fd5b600154604080518082018252600d81526c43727970746f4b69747469657360981b60208083019182529251633581777360e01b8152600481019384528251602482015282516001600160a01b03909516946335817773949283926044019180838360005b838110156112b257818101518382015260200161129a565b50505050905090810190601f1680156112df5780820380516001836020036101000a031916815260200191505b509250505060206040518083038186803b1580156112fc57600080fd5b505afa158015611310573d6000803e3d6000fd5b505050506040513d602081101561132657600080fd5b5051604080516323b872dd60e01b81526001600160a01b03868116600483015230602483015260448201869052915191909216916323b872dd91606480830192600092919082900301818387803b15801561138057600080fd5b505af1158015611394573d6000803e3d6000fd5b5050600154604080518082018252600d81526c43727970746f4b69747469657360981b60208083019182529251633581777360e01b8152600481019384528251602482015282513097506001600160a01b03909516955063358177739492939283926044909201919080838360005b8381101561141b578181015183820152602001611403565b50505050905090810190601f1680156114485780820380516001836020036101000a031916815260200191505b509250505060206040518083038186803b15801561146557600080fd5b505afa158015611479573d6000803e3d6000fd5b505050506040513d602081101561148f57600080fd5b5051604080516331a9108f60e11b81526004810186905290516001600160a01b0390921691636352211e91602480820192602092909190829003018186803b1580156114da57600080fd5b505afa1580156114ee573d6000803e3d6000fd5b505050506040513d602081101561150457600080fd5b50516001600160a01b03161461151957600080fd5b60006115346001611528610e01565b9063ffffffff612fd916565b905061153f81612fef565b600254604080518082018252600c81526b25b4ba3a34b2a432b636222160a11b60208083019182528351808201879052671ada5d1d1a59525960c21b818601528451602881830301815260488201958690528051920191909120628528df60e21b909452606c8101849052608c81018890526060604c8201908152835160ac83015283516001600160a01b0390961695630214a37c95938a93839260cc909101919080838360005b838110156115ff5781810151838201526020016115e7565b50505050905090810190601f16801561162c5780820380516001836020036101000a031916815260200191505b50945050505050600060405180830381600087803b15801561164d57600080fd5b505af1158015611661573d6000803e3d6000fd5b5050600254604080518082018252600c81526b25b4ba3a34b2a432b636222160a11b602080830191825283518082018990526437bbb732b960d91b818601528451602581830301815260458201958690528051920191909120634336acff60e11b909452606981018490526001600160a01b038b81166089830152606060498301908152845160a9840152845191909616975063866d59fe965092948b939092839260c9019180838360005b8381101561172557818101518382015260200161170d565b50505050905090810190601f1680156117525780820380516001836020036101000a031916815260200191505b50945050505050600060405180830381600087803b15801561177357600080fd5b505af1158015611787573d6000803e3d6000fd5b5050600254604080518082018252600c81526b25b4ba3a34b2a432b636222160a11b602080830191825283518082018990526e7361637269666963654b697474696560881b818601528451602f818303018152604f820195869052805192019190912063cb30ffe760e01b90945260738101849052600160938201819052606060538301908152845160b384015284516001600160a01b03909716985063cb30ffe797509395909392839260d3019180838360005b8381101561185457818101518382015260200161183c565b50505050905090810190601f1680156118815780820380516001836020036101000a031916815260200191505b50945050505050600060405180830381600087803b1580156118a257600080fd5b505af11580156118b6573d6000803e3d6000fd5b5050600254604080518082018252600c81526b25b4ba3a34b2a432b636222160a11b602080830191825283518082018990526b39b0b1b934b334b1b2a337b960a11b818601528451602c818303018152604c8201958690528051920191909120628528df60e21b90945260708101849052609081018c9052606060508201908152835160b083015283516001600160a01b039096169750630214a37c965092948c9392839260d0019180838360005b8381101561197d578181015183820152602001611965565b50505050905090810190601f1680156119aa5780820380516001836020036101000a031916815260200191505b50945050505050600060405180830381600087803b1580156119cb57600080fd5b505af11580156119df573d6000803e3d6000fd5b5050600254604080518082018252600c81526b25b4ba3a34b2a432b636222160a11b602080830191825283518082018b90526619da1bdcdd125160ca1b818601528451602781830301815260478201958690528051920191909120628528df60e21b909452606b8101849052608b81018890526060604b8201908152835160ab83015283516001600160a01b039096169750630214a37c96509294889392839260cb019180838360005b83811015611aa1578181015183820152602001611a89565b50505050905090810190601f168015611ace5780820380516001836020036101000a031916815260200191505b50945050505050600060405180830381600087803b158015611aef57600080fd5b505af1158015611b03573d6000803e3d6000fd5b5050600254604080518082018252600c81526b25b4ba3a34b2a432b636222160a11b602080830191825283518082018d9052776e756d6265724f665361637269666963654b69747469657360401b818601528451603881830301815260588201808752815191909301206304565aab60e11b909252607c8101829052605c81019485528351609c820152835160009850611c5797506001966001600160a01b0316956308acb55695949092839260bc90910191908083838e5b83811015611bd4578181015183820152602001611bbc565b50505050905090810190601f168015611c015780820380516001836020036101000a031916815260200191505b50935050505060206040518083038186803b158015611c1f57600080fd5b505afa158015611c33573d6000803e3d6000fd5b505050506040513d6020811015611c4957600080fd5b50519063ffffffff612fd916565b600254604080518082018252600c81526b25b4ba3a34b2a432b636222160a11b602080830191825283518082018d9052776e756d6265724f665361637269666963654b69747469657360401b818601528451603881830301815260588201958690528051920191909120628528df60e21b909452607c8101849052609c81018690526060605c8201908152835160bc83015283519697506001600160a01b0390951695630214a37c9593949388939092839260dc909101919080838360005b83811015611d2e578181015183820152602001611d16565b50505050905090810190601f168015611d5b5780820380516001836020036101000a031916815260200191505b50945050505050600060405180830381600087803b158015611d7c57600080fd5b505af1158015611d90573d6000803e3d6000fd5b5050600254604080518082018252600c81526b25b4ba3a34b2a432b636222160a11b6020808301918252835173746f74616c4e756d6265724f664b69747469657360601b818301528451808203601401815260348201808752815191909301206304565aab60e11b9092526058810182905260388101948552835160788201528351600098506001600160a01b0390961696506308acb5569593949193919283926098909201918083838c5b83811015611e54578181015183820152602001611e3c565b50505050905090810190601f168015611e815780820380516001836020036101000a031916815260200191505b50935050505060206040518083038186803b158015611e9f57600080fd5b505afa158015611eb3573d6000803e3d6000fd5b505050506040513d6020811015611ec957600080fd5b5051600254604080518082018252600c81526b25b4ba3a34b2a432b636222160a11b602082810191909152825173746f74616c4e756d6265724f664b69747469657360601b8183015283518082036014018152603490910190935282519201919091209293506001600160a01b0390911691630214a37c9190611f5385600163ffffffff612fd916565b6040518463ffffffff1660e01b81526004018080602001848152602001838152602001828103825285818151815260200191508051906020019080838360005b83811015611fab578181015183820152602001611f93565b50505050905090810190601f168015611fd85780820380516001836020036101000a031916815260200191505b50945050505050600060405180830381600087803b158015611ff957600080fd5b505af115801561200d573d6000803e3d6000fd5b5050604080516001600160a01b038a16815290518693508892507f168a8b08a9a164dafbfd19c327bbbd4702d179d98c7d5be17a18101e3ff1bec09181900360200190a350505050505050565b6001546001600160a01b031681565b6000546001600160a01b0316331461207d57fe5b6001600160a01b038116156120a857600080546001600160a01b0319166001600160a01b0383161790555b50565b6040518060400160405280600a81526020016912da5d1d1a5952195b1b60b21b8152506120d781612e60565b600254604080518082018252600c81526b25b4ba3a34b2a432b636222160a11b602080830191825283518082018990526f726564656d7074696f6e4665654b545960801b818601528451603081830301815260508201958690528051920191909120628528df60e21b9094526074810184905260948101879052606060548201908152835160b483015283516001600160a01b0390961695630214a37c95938993839260d4909101919080838360005b8381101561219f578181015183820152602001612187565b50505050905090810190601f1680156121cc5780820380516001836020036101000a031916815260200191505b50945050505050600060405180830381600087803b1580156121ed57600080fd5b505af1158015612201573d6000803e3d6000fd5b5050600254604080518082018252600c81526b25b4ba3a34b2a432b636222160a11b602080830191825283517f746f74616c4b5459734c6f636b6564496e4b697474696548656c6c0000000000818301528451601b818303018152603b8201808752815191909301206304565aab60e11b909252605f8101829052603f81019485528351607f8201528351600098506122cd97508a966001600160a01b0316956308acb556959490928392609f90910191908083838e8315611bd4578181015183820152602001611bbc565b600254604080518082018252600c81526b25b4ba3a34b2a432b636222160a11b602080830191825283517f746f74616c4b5459734c6f636b6564496e4b697474696548656c6c0000000000818301528451808203601b018152603b8201958690528051920191909120628528df60e21b909452605f8101849052607f81018690526060603f82019081528351609f83015283519697506001600160a01b0390951695630214a37c9593949388939092839260bf909101919080838360005b838110156123a357818101518382015260200161238b565b50505050905090810190601f1680156123d05780820380516001836020036101000a031916815260200191505b50945050505050600060405180830381600087803b1580156123f157600080fd5b505af1158015612405573d6000803e3d6000fd5b5050505050505050565b6040518060400160405280600a81526020016912da5d1d1a5952195b1b60b21b81525061243b81612e60565b600154604080518082018252600d81526c43727970746f4b69747469657360981b60208083019182529251633581777360e01b81526004810193845282516024820152825130956001600160a01b03169463358177739493909283926044909101919080838360005b838110156124bc5781810151838201526020016124a4565b50505050905090810190601f1680156124e95780820380516001836020036101000a031916815260200191505b509250505060206040518083038186803b15801561250657600080fd5b505afa15801561251a573d6000803e3d6000fd5b505050506040513d602081101561253057600080fd5b5051604080516331a9108f60e11b81526004810187905290516001600160a01b0390921691636352211e91602480820192602092909190829003018186803b15801561257b57600080fd5b505afa15801561258f573d6000803e3d6000fd5b505050506040513d60208110156125a557600080fd5b50516001600160a01b0316146125ba57600080fd5b60006125c96001611528610e01565b90506125d481612fef565b600254604080518082018252600c81526b25b4ba3a34b2a432b636222160a11b60208083019182528351808201879052671ada5d1d1a59525960c21b818601528451602881830301815260488201958690528051920191909120628528df60e21b909452606c8101849052608c81018990526060604c8201908152835160ac83015283516001600160a01b0390961695630214a37c95938b93839260cc909101919080838360005b8381101561269457818101518382015260200161267c565b50505050905090810190601f1680156126c15780820380516001836020036101000a031916815260200191505b50945050505050600060405180830381600087803b1580156126e257600080fd5b505af11580156126f6573d6000803e3d6000fd5b5050600254604080518082018252600c81526b25b4ba3a34b2a432b636222160a11b602080830191825283518082018990526437bbb732b960d91b818601528451602581830301815260458201958690528051920191909120634336acff60e11b909452606981018490526001600160a01b038a81166089830152606060498301908152845160a9840152845191909616975063866d59fe965092948a939092839260c9019180838360005b838110156127ba5781810151838201526020016127a2565b50505050905090810190601f1680156127e75780820380516001836020036101000a031916815260200191505b50945050505050600060405180830381600087803b15801561280857600080fd5b505af115801561281c573d6000803e3d6000fd5b5050600254604080518082018252600c81526b25b4ba3a34b2a432b636222160a11b602080830191825283518082018990526e7361637269666963654b697474696560881b818601528451602f818303018152604f820195869052805192019190912063cb30ffe760e01b90945260738101849052600060938201819052606060538301908152845160b384015284516001600160a01b03909716985063cb30ffe797509395909392839260d30191808383885b838110156128e85781810151838201526020016128d0565b50505050905090810190601f1680156129155780820380516001836020036101000a031916815260200191505b50945050505050600060405180830381600087803b15801561293657600080fd5b505af115801561294a573d6000803e3d6000fd5b5050600254604080518082018252600c81526b25b4ba3a34b2a432b636222160a11b602080830191825283518082018990526b39b0b1b934b334b1b2a337b960a11b818601528451602c818303018152604c8201958690528051920191909120628528df60e21b90945260708101849052600060908201819052606060508301908152845160b084015284516001600160a01b039097169850630214a37c97509395909392839260d00191808383885b83811015612a125781810151838201526020016129fa565b50505050905090810190601f168015612a3f5780820380516001836020036101000a031916815260200191505b50945050505050600060405180830381600087803b158015612a6057600080fd5b505af1158015612a74573d6000803e3d6000fd5b5050600254604080518082018252600c81526b25b4ba3a34b2a432b636222160a11b602080830191825283518082018c90526619da1bdcdd125160ca1b818601528451602781830301815260478201958690528051920191909120628528df60e21b909452606b8101849052608b81018890526060604b8201908152835160ab83015283516001600160a01b039096169750630214a37c96509294889392839260cb019180838360005b83811015612b36578181015183820152602001612b1e565b50505050905090810190601f168015612b635780820380516001836020036101000a031916815260200191505b50945050505050600060405180830381600087803b158015612b8457600080fd5b505af1158015612b98573d6000803e3d6000fd5b5050600254604080518082018252600c81526b25b4ba3a34b2a432b636222160a11b6020808301918252835173746f74616c4e756d6265724f664b69747469657360601b818301528451808203601401815260348201808752815191909301206304565aab60e11b9092526058810182905260388101948552835160788201528351600098506001600160a01b0390961696506308acb5569593949193919283926098909201918083838c5b83811015612c5c578181015183820152602001612c44565b50505050905090810190601f168015612c895780820380516001836020036101000a031916815260200191505b50935050505060206040518083038186803b158015612ca757600080fd5b505afa158015612cbb573d6000803e3d6000fd5b505050506040513d6020811015612cd157600080fd5b5051600254604080518082018252600c81526b25b4ba3a34b2a432b636222160a11b602082810191909152825173746f74616c4e756d6265724f664b69747469657360601b8183015283518082036014018152603490910190935282519201919091209293506001600160a01b0390911691630214a37c9190612d5b85600163ffffffff612fd916565b6040518463ffffffff1660e01b81526004018080602001848152602001838152602001828103825285818151815260200191508051906020019080838360005b83811015612db3578181015183820152602001612d9b565b50505050905090810190601f168015612de05780820380516001836020036101000a031916815260200191505b50945050505050600060405180830381600087803b158015612e0157600080fd5b505af1158015612e15573d6000803e3d6000fd5b5050604080516001600160a01b038816815290518593508892507f168a8b08a9a164dafbfd19c327bbbd4702d179d98c7d5be17a18101e3ff1bec09181900360200190a35050505050565b6001546001600160a01b0316612ea8576040805162461bcd60e51b81526020600482015260086024820152674e6f2050726f787960c01b604482015290519081900360640190fd5b600154604051633581777360e01b81526020600482018181528451602484015284516000946001600160a01b0316936335817773938793928392604401918501908083838b5b83811015612f06578181015183820152602001612eee565b50505050905090810190601f168015612f335780820380516001836020036101000a031916815260200191505b509250505060206040518083038186803b158015612f5057600080fd5b505afa158015612f64573d6000803e3d6000fd5b505050506040513d6020811015612f7a57600080fd5b505190506001600160a01b038116612f8e57fe5b336001600160a01b03821614612fd55760405162461bcd60e51b815260040180806020018281038252602d8152602001806131e9602d913960400191505060405180910390fd5b5050565b600082820183811015612fe857fe5b9392505050565b600254604080518082018252600c81526b25b4ba3a34b2a432b636222160a11b602080830191825283516e4b697474696548656c6c5461626c6560881b818301528451808203600f018152602f82019586905280519201919091206343ea99b160e11b90945260538101849052607381018690526060603382019081528351609383015283516001600160a01b03909616956387d5336295938893839260b3909101919080838360005b838110156130b1578181015183820152602001613099565b50505050905090810190601f1680156130de5780820380516001836020036101000a031916815260200191505b50945050505050602060405180830381600087803b1580156130ff57600080fd5b505af1158015613113573d6000803e3d6000fd5b505050506040513d602081101561312957600080fd5b505160408051808201909152601c81527f47686f737420616c72656164792065786973747320696e2048656c6c00000000602082015290612fd55760405162461bcd60e51b81526004018080602001828103825283818151815260200191508051906020019080838360005b838110156131ad578181015183820152602001613195565b50505050905090810190601f1680156131da5780820380516001836020036101000a031916815260200191505b509250505060405180910390fdfe416363657373206973206f6e6c7920616c6c6f7765642066726f6d20737065636966696320636f6e7472616374a265627a7a72315820ea07af32470b1808106efc199edfa4bb945952e462c3bb0074d36305ec0c24d564736f6c63430005110032",
  "source": "/**\n * @title kittiehellDB\n *\n * @author @kittieFIGHT @ola\n *\n */\n//modifier class (DSAuth )\n//Event class ( DSNote )\n//\n// This program is free software: you can redistribute it and/or modify\n// it under the terms of the GNU General Public License as published by\n// the Free Software Foundation, either version 3 of the License, or\n// (at your option) any later version.\n\n// This program is distributed in the hope that it will be useful,\n// but WITHOUT ANY WARRANTY; without even the implied warranty of\n// MERCHANTABILITY or FITNESS FOR A PARTICULAR PURPOSE.  See the\n// GNU General Public License for more details.\n\n// You should have received a copy of the GNU General Public License\n// along with this program.  If not, see <http://www.gnu.org/licenses/>.\npragma solidity ^0.5.5;\n\nimport \"../proxy/Proxied.sol\";\nimport \"../../authority/Guard.sol\";\nimport \"./GenericDB.sol\";\nimport \"../../libs/SafeMath.sol\";\nimport \"../../interfaces/ERC721.sol\";\nimport \"../kittieHELL/KittieHell.sol\";\n\n/**\n * @title KittieHellDB\n * @author @kittieFIGHT @ziweidream\n */\n\ncontract KittieHellDB is Proxied, Guard {\n    using SafeMath for uint256;\n\n    GenericDB public genericDB;\n    KittieHell public kittieHELL;\n\n    bytes32 internal constant TABLE_KEY_KITTIEHELL = keccak256(abi.encodePacked(\"KittieHellTable\"));\n    string internal constant ERROR_ALREADY_EXIST = \"Ghost already exists in Hell\";\n    string internal constant ERROR_DOES_NOT_EXIST = \"Ghost not exists\";\n\n    constructor(GenericDB _genericDB) public {\n      setGenericDB(_genericDB);\n    }\n\n    function setGenericDB(GenericDB _genericDB) public onlyOwner {\n      genericDB = GenericDB(_genericDB);\n   }\n\n    function setKittieHELL() public onlyOwner {\n      kittieHELL = KittieHell(proxy.getContract(CONTRACT_NAME_KITTIEHELL));\n    }\n\n  /**\n   * @author @ziweidream\n   * @param _id the node id\n   * @return true if the node _id exists\n   */\n  function doesGhostExist(uint256 _id) public view returns (bool) {\n    return genericDB.doesNodeExist(CONTRACT_NAME_KITTIEHELL_DB, TABLE_KEY_KITTIEHELL, _id);\n  }\n\n  /**\n   * @author @ziweidream\n   * @dev Add the node _id to GhostsList\n   * @param _id the node id\n   */\n  function fallToHell(uint256 _id)\n    internal\n  {\n    require(genericDB.pushNodeToLinkedList(CONTRACT_NAME_KITTIEHELL_DB, TABLE_KEY_KITTIEHELL, _id), ERROR_ALREADY_EXIST);\n  }\n\n  /**\n   * @author @ziweidream\n   * @dev This function can only be carried out via kittieHELL contract\n   * @dev Add the node _id of a loser kittie to GhostsList\n   * @param _kittieID the kittieID of the loser kittie who lost a game\n   * @param _owner the owner of the loser kittie\n   */\n  function loserKittieToHell\n  (\n    uint256 _kittieID,\n    address _owner\n  )\n    public\n    onlyContract(CONTRACT_NAME_KITTIEHELL)\n  {\n    require(ERC721(proxy.getContract(CONTRACT_NAME_CRYPTOKITTIES)).ownerOf(_kittieID) == address(this));\n    uint256 _id = getLastGhostId().add(1);\n    fallToHell(_id);\n    genericDB.setUintStorage(CONTRACT_NAME_KITTIEHELL_DB, keccak256(abi.encodePacked(_id, \"kittieId\")), _kittieID);\n    genericDB.setAddressStorage(CONTRACT_NAME_KITTIEHELL_DB, keccak256(abi.encodePacked(_id, \"owner\")), _owner);\n    genericDB.setBoolStorage(CONTRACT_NAME_KITTIEHELL_DB, keccak256(abi.encodePacked(_id, \"sacrificeKittie\")), false);\n    genericDB.setUintStorage(CONTRACT_NAME_KITTIEHELL_DB, keccak256(abi.encodePacked(_id, \"sacrificeFor\")), 0);\n    genericDB.setUintStorage(CONTRACT_NAME_KITTIEHELL_DB, keccak256(abi.encodePacked(_kittieID, \"ghostID\")), _id);\n    uint256 totalNumberOfKitties = genericDB.getUintStorage(CONTRACT_NAME_KITTIEHELL_DB, keccak256(abi.encodePacked(\"totalNumberOfKitties\")));\n    genericDB.setUintStorage(CONTRACT_NAME_KITTIEHELL_DB, keccak256(abi.encodePacked(\"totalNumberOfKitties\")), totalNumberOfKitties.add(1));\n\n    emit AddedToKittieHellDB(_kittieID, _owner, _id);\n  }\n\n  /**\n   * @author @ziweidream\n   * @param _id the node id of the ghost\n   * @return its kittyID, its original owner, whether it is a replacement kittie,\n   *         the loser kitty for which it is a replacement kittie(0 if this ghost is a loser kittie itself)\n   */\n  function getGhostAttributes(uint256 _id) public view returns (uint256, address, bool, uint256) {\n    uint256 _kittyID = genericDB.getUintStorage(CONTRACT_NAME_KITTIEHELL_DB, keccak256(abi.encodePacked(_id, \"kittieId\")));\n    address _owner = genericDB.getAddressStorage(CONTRACT_NAME_KITTIEHELL_DB, keccak256(abi.encodePacked(_id, \"owner\")));\n    bool _isSacrificeKittie = genericDB.getBoolStorage(CONTRACT_NAME_KITTIEHELL_DB, keccak256(abi.encodePacked(_id, \"sacrificeKittie\")));\n    uint256 _sacrificeFor = genericDB.getUintStorage(CONTRACT_NAME_KITTIEHELL_DB, keccak256(abi.encodePacked(_id, \"sacrificeFor\")));\n\n    return (_kittyID, _owner, _isSacrificeKittie, _sacrificeFor);\n  }\n\n  /**\n   * @author @ziweidream\n   * @return the node id of the last node\n   */\n  function getLastGhostId() public view returns(uint256){\n        (/*bool found*/, uint256 id) = genericDB.getAdjacent(CONTRACT_NAME_KITTIEHELL_DB, TABLE_KEY_KITTIEHELL, 0, true);\n        return id;\n  }\n\n  /**\n   * @author @ziweidream\n   * @dev This function can only be carried out via proxy\n   * @dev Add the node _id of a sacrificing kittie to GhostsList\n   * @param _kittieID the kittieID of the loser kittie who lost a game\n   * @param _owner the owner of the loser kittie\n   * @param _sacrificeKittie the kittieID of the sacrificing kittie for redeeming the loser kittie\n   */\n  function sacrificeKittieToHell(uint256 _kittieID, address _owner, uint256 _sacrificeKittie)\n      public\n      onlyContract(CONTRACT_NAME_KITTIEHELL)\n  {\n    require(ERC721(proxy.getContract(CONTRACT_NAME_CRYPTOKITTIES)).ownerOf(_sacrificeKittie) == _owner);\n    ERC721(proxy.getContract(CONTRACT_NAME_CRYPTOKITTIES)).transferFrom(_owner, address(this), _sacrificeKittie);\n    require(ERC721(proxy.getContract(CONTRACT_NAME_CRYPTOKITTIES)).ownerOf(_sacrificeKittie) == address(this));\n    uint256 _id = getLastGhostId().add(1);\n    fallToHell(_id);\n    genericDB.setUintStorage(CONTRACT_NAME_KITTIEHELL_DB, keccak256(abi.encodePacked(_id, \"kittieId\")), _sacrificeKittie);\n    genericDB.setAddressStorage(CONTRACT_NAME_KITTIEHELL_DB, keccak256(abi.encodePacked(_id, \"owner\")), _owner);\n    genericDB.setBoolStorage(CONTRACT_NAME_KITTIEHELL_DB, keccak256(abi.encodePacked(_id, \"sacrificeKittie\")), true);\n    genericDB.setUintStorage(CONTRACT_NAME_KITTIEHELL_DB, keccak256(abi.encodePacked(_id, \"sacrificeFor\")), _kittieID);\n    genericDB.setUintStorage(CONTRACT_NAME_KITTIEHELL_DB, keccak256(abi.encodePacked(_sacrificeKittie, \"ghostID\")), _id);\n    uint256 numberOfSacrificeKitties = genericDB.getUintStorage(\n      CONTRACT_NAME_KITTIEHELL_DB,\n      keccak256(abi.encodePacked(_kittieID, \"numberOfSacrificeKitties\"))).add(1);\n    genericDB.setUintStorage(\n      CONTRACT_NAME_KITTIEHELL_DB,\n      keccak256(abi.encodePacked(_kittieID, \"numberOfSacrificeKitties\")),\n      numberOfSacrificeKitties);\n    uint256 totalNumberOfKitties = genericDB.getUintStorage(CONTRACT_NAME_KITTIEHELL_DB, keccak256(abi.encodePacked(\"totalNumberOfKitties\")));\n    genericDB.setUintStorage(CONTRACT_NAME_KITTIEHELL_DB, keccak256(abi.encodePacked(\"totalNumberOfKitties\")), totalNumberOfKitties.add(1));\n    emit AddedToKittieHellDB(_sacrificeKittie, _owner, _id);\n  }\n\n  /**\n   * @author @ziweidream\n   * @param _kittieID the kittieID of the loser kittie\n   * @return the number of sacrificing kitties already in HELL for this loser kittie\n   */\n  function getNumberOfSacrificeKitties(uint256 _kittieID) public view returns(uint256) {\n    return genericDB.getUintStorage(\n      CONTRACT_NAME_KITTIEHELL_DB,\n      keccak256(abi.encodePacked(_kittieID, \"numberOfSacrificeKitties\")));\n  }\n\n  /**\n   * @author @ziweidream\n   * @dev This function can only be carried out via kittieHELL contract\n   * @dev record the KTY amount locked in kittieHELL contract\n   * @param _kittieID the kittieID of the loser kittie who lost a game\n   * @param _kty_amount the redemption fee locked in kittieHELL contract\n   *                    for redeeming the loser kittie\n   */\n  function lockKTYsInKittieHell(uint256 _kittieID, uint256 _kty_amount)\n      public\n      onlyContract(CONTRACT_NAME_KITTIEHELL)\n  {\n    genericDB.setUintStorage(\n      CONTRACT_NAME_KITTIEHELL_DB,\n      keccak256(abi.encodePacked(_kittieID, \"redemptionFeeKTY\")),\n      _kty_amount\n    );\n    uint totalKTYsLockedInKittieHell = genericDB.getUintStorage(\n      CONTRACT_NAME_KITTIEHELL_DB,\n      keccak256(abi.encodePacked(\"totalKTYsLockedInKittieHell\"))\n    ).add(_kty_amount);\n    genericDB.setUintStorage(\n      CONTRACT_NAME_KITTIEHELL_DB,\n      keccak256(abi.encodePacked(\"totalKTYsLockedInKittieHell\")),\n      totalKTYsLockedInKittieHell\n    );\n  }\n\n  /**\n   * @author @ziweidream\n   * @return the total amount of KTYs locked in kittieHELL contract\n   */\n  function getTotalKTYsLockedInKittieHell() public view returns(uint256) {\n    return genericDB.getUintStorage(\n      CONTRACT_NAME_KITTIEHELL_DB,\n      keccak256(abi.encodePacked(\"totalKTYsLockedInKittieHell\"))\n    );\n  }\n\n  /**\n   * @author @ziweidream\n   * @return the total number of kittie ghosts permanently locked in HELL\n   */\n  function getTotalNumberOfGhostsInHell() public view returns(uint256) {\n    return genericDB.getUintStorage(\n      CONTRACT_NAME_KITTIEHELL_DB,\n      keccak256(abi.encodePacked(\"totalNumberOfKitties\"))\n    );\n  }\n\n  /**\n   * @author @ziweidream\n   * @param _kittieID the kittieID of the kittie\n   * @return node id of the kittie (if the kittie is not a ghost, it returns 0)\n   */\n  function getGhostIdForKittie(uint256 _kittieID) public view returns(uint256) {\n    return genericDB.getUintStorage(\n      CONTRACT_NAME_KITTIEHELL_DB,\n      keccak256(abi.encodePacked(_kittieID, \"ghostID\")));\n  }\n\n  /**\n   * @author @ziweidream\n   * @param _kittieID the kittieID of the kittie\n   * @return true if the kittie is a permanent ghost, false if the kittie is not permanently dead\n   */\n  function isKittieGhost(uint256 _kittieID) public view returns(bool) {\n    uint256 _id = getGhostIdForKittie(_kittieID);\n    if (_id == 0) {\n      return false;\n    }\n    if(doesGhostExist(_id)) {\n      return true;\n    }\n    return false;\n  }\n\n  event AddedToKittieHellDB(uint256 indexed kittyID, address _owner, uint256 indexed _id);\n}\n\n",
  "sourcePath": "/Users/ziweizhang/Desktop/kittifight-balancer/contracts/contracts/modules/databases/KittieHellDB.sol",
  "compiler": {
    "name": "solc",
    "version": "0.5.17+commit.d19bba13.Emscripten.clang"
  },
  "schemaVersion": "3.0.23",
  "updatedAt": "2020-05-30T18:43:01.342Z",
  "networkType": "ethereum",
  "devdoc": {
    "author": "@kittieFIGHT @ziweidream",
    "methods": {
      "doesGhostExist(uint256)": {
        "author": "@ziweidream",
        "params": {
          "_id": "the node id"
        },
        "return": "true if the node _id exists"
      },
      "getGhostAttributes(uint256)": {
        "author": "@ziweidream",
        "params": {
          "_id": "the node id of the ghost"
        },
        "return": "its kittyID, its original owner, whether it is a replacement kittie,        the loser kitty for which it is a replacement kittie(0 if this ghost is a loser kittie itself)"
      },
      "getGhostIdForKittie(uint256)": {
        "author": "@ziweidream",
        "params": {
          "_kittieID": "the kittieID of the kittie"
        },
        "return": "node id of the kittie (if the kittie is not a ghost, it returns 0)"
      },
      "getLastGhostId()": {
        "author": "@ziweidream",
        "return": "the node id of the last node"
      },
      "getNumberOfSacrificeKitties(uint256)": {
        "author": "@ziweidream",
        "params": {
          "_kittieID": "the kittieID of the loser kittie"
        },
        "return": "the number of sacrificing kitties already in HELL for this loser kittie"
      },
      "getTotalKTYsLockedInKittieHell()": {
        "author": "@ziweidream",
        "return": "the total amount of KTYs locked in kittieHELL contract"
      },
      "getTotalNumberOfGhostsInHell()": {
        "author": "@ziweidream",
        "return": "the total number of kittie ghosts permanently locked in HELL"
      },
      "isKittieGhost(uint256)": {
        "author": "@ziweidream",
        "params": {
          "_kittieID": "the kittieID of the kittie"
        },
        "return": "true if the kittie is a permanent ghost, false if the kittie is not permanently dead"
      },
      "lockKTYsInKittieHell(uint256,uint256)": {
        "author": "@ziweidream",
        "details": "This function can only be carried out via kittieHELL contractrecord the KTY amount locked in kittieHELL contract",
        "params": {
          "_kittieID": "the kittieID of the loser kittie who lost a game",
          "_kty_amount": "the redemption fee locked in kittieHELL contract                   for redeeming the loser kittie"
        }
      },
      "loserKittieToHell(uint256,address)": {
        "author": "@ziweidream",
        "details": "This function can only be carried out via kittieHELL contractAdd the node _id of a loser kittie to GhostsList",
        "params": {
          "_kittieID": "the kittieID of the loser kittie who lost a game",
          "_owner": "the owner of the loser kittie"
        }
      },
      "sacrificeKittieToHell(uint256,address,uint256)": {
        "author": "@ziweidream",
        "details": "This function can only be carried out via proxyAdd the node _id of a sacrificing kittie to GhostsList",
        "params": {
          "_kittieID": "the kittieID of the loser kittie who lost a game",
          "_owner": "the owner of the loser kittie",
          "_sacrificeKittie": "the kittieID of the sacrificing kittie for redeeming the loser kittie"
        }
      }
    },
    "title": "KittieHellDB"
  },
  "userdoc": {
    "methods": {
      "setProxy(address)": {
        "notice": "Set/update address of Proxy contract"
      }
    }
  }
}