{
  "contractName": "KittyCore",
  "abi": [
    {
      "inputs": [],
      "payable": false,
      "stateMutability": "nonpayable",
      "type": "constructor"
    },
    {
      "constant": true,
      "inputs": [
        {
          "internalType": "uint256",
          "name": "_tokenId",
          "type": "uint256"
        }
      ],
      "name": "ownerOf",
      "outputs": [
        {
          "internalType": "address",
          "name": "owner",
          "type": "address"
        }
      ],
      "payable": false,
      "stateMutability": "view",
      "type": "function"
    },
    {
      "constant": false,
      "inputs": [
        {
          "internalType": "address",
          "name": "_from",
          "type": "address"
        },
        {
          "internalType": "address",
          "name": "_to",
          "type": "address"
        },
        {
          "internalType": "uint256",
          "name": "_tokenId",
          "type": "uint256"
        }
      ],
      "name": "transferFrom",
      "outputs": [],
      "payable": false,
      "stateMutability": "nonpayable",
      "type": "function"
    },
    {
      "constant": false,
      "inputs": [
        {
          "internalType": "address",
          "name": "to",
          "type": "address"
        },
        {
          "internalType": "uint256",
          "name": "_tokenId",
          "type": "uint256"
        }
      ],
      "name": "mint",
      "outputs": [],
      "payable": false,
      "stateMutability": "nonpayable",
      "type": "function"
    }
  ],
  "bytecode": "0x608060405234801561001057600080fd5b503360008080815260200190815260200160002060006101000a81548173ffffffffffffffffffffffffffffffffffffffff021916908373ffffffffffffffffffffffffffffffffffffffff160217905550610330806100716000396000f3fe608060405234801561001057600080fd5b50600436106100415760003560e01c806323b872dd1461004657806340c10f19146100b45780636352211e14610102575b600080fd5b6100b26004803603606081101561005c57600080fd5b81019080803573ffffffffffffffffffffffffffffffffffffffff169060200190929190803573ffffffffffffffffffffffffffffffffffffffff16906020019092919080359060200190929190505050610170565b005b610100600480360360408110156100ca57600080fd5b81019080803573ffffffffffffffffffffffffffffffffffffffff16906020019092919080359060200190929190505050610230565b005b61012e6004803603602081101561011857600080fd5b81019080803590602001909291905050506102bf565b604051808273ffffffffffffffffffffffffffffffffffffffff1673ffffffffffffffffffffffffffffffffffffffff16815260200191505060405180910390f35b8273ffffffffffffffffffffffffffffffffffffffff1660008083815260200190815260200160002060009054906101000a900473ffffffffffffffffffffffffffffffffffffffff1673ffffffffffffffffffffffffffffffffffffffff16146101da57600080fd5b8160008083815260200190815260200160002060006101000a81548173ffffffffffffffffffffffffffffffffffffffff021916908373ffffffffffffffffffffffffffffffffffffffff160217905550505050565b600073ffffffffffffffffffffffffffffffffffffffff168273ffffffffffffffffffffffffffffffffffffffff16141561026a57600080fd5b8160008083815260200190815260200160002060006101000a81548173ffffffffffffffffffffffffffffffffffffffff021916908373ffffffffffffffffffffffffffffffffffffffff1602179055505050565b600080600083815260200190815260200160002060009054906101000a900473ffffffffffffffffffffffffffffffffffffffff16905091905056fea265627a7a72315820666312d693f76000d8a8beee1dbb69958724254770187936d4f09f49fd53f04764736f6c63430005110032",
  "source": "pragma solidity ^0.5.5;\r\n\r\n\r\n/// @title CryptoKittiesCore mock\r\n/// @author Panos\r\n/// @dev The main CryptoKittiesCore contract mock for testing purposes.\r\ncontract KittyCore {\r\n\r\n    mapping(uint256 => address) private kitties;\r\n\r\n    constructor() public {\r\n        kitties[0] = msg.sender;\r\n    }\r\n\r\n    function ownerOf(uint256 _tokenId) external view returns (address owner) {\r\n        return kitties[_tokenId];\r\n    }\r\n\r\n    function transferFrom(address _from, address _to, uint256 _tokenId) external {\r\n        require(kitties[_tokenId] == _from);\r\n        kitties[_tokenId] = _to;\r\n    }\r\n\r\n    function mint(address to, uint256 _tokenId) public {\r\n        require(to != address(0));\r\n  \r\n        kitties[_tokenId] = to;\r\n    }\r\n}\r\n",
  "sourcePath": "C:/Users/Alex/Desktop/MyProjects/contracts/contracts/mocks/KittyCore.sol",
  "compiler": {
    "name": "solc",
    "version": "0.5.17+commit.d19bba13.Emscripten.clang"
  },
  "schemaVersion": "3.0.11",
  "updatedAt": "2020-06-12T00:54:51.174Z",
  "devdoc": {
    "author": "Panos",
    "details": "The main CryptoKittiesCore contract mock for testing purposes.",
    "methods": {},
    "title": "CryptoKittiesCore mock"
  },
  "userdoc": {
    "methods": {}
  }
}