{
  "contractName": "KtyUniswap",
  "abi": [
    {
      "constant": true,
      "inputs": [],
      "name": "daiWethOracle",
      "outputs": [
        {
          "internalType": "contract DaiWethOracle",
          "name": "",
          "type": "address"
        }
      ],
      "payable": false,
      "stateMutability": "view",
      "type": "function"
    },
    {
      "constant": true,
      "inputs": [],
      "name": "daiWethPair",
      "outputs": [
        {
          "internalType": "contract IDaiWethPair",
          "name": "",
          "type": "address"
        }
      ],
      "payable": false,
      "stateMutability": "view",
      "type": "function"
    },
    {
      "constant": true,
      "inputs": [],
      "name": "ktyWethOracle",
      "outputs": [
        {
          "internalType": "contract KtyWethOracle",
          "name": "",
          "type": "address"
        }
      ],
      "payable": false,
      "stateMutability": "view",
      "type": "function"
    },
    {
      "constant": true,
      "inputs": [],
      "name": "ktyWethPair",
      "outputs": [
        {
          "internalType": "contract IUniswapV2Pair",
          "name": "",
          "type": "address"
        }
      ],
      "payable": false,
      "stateMutability": "view",
      "type": "function"
    },
    {
      "constant": true,
      "inputs": [],
      "name": "owner",
      "outputs": [
        {
          "internalType": "address payable",
          "name": "",
          "type": "address"
        }
      ],
      "payable": false,
      "stateMutability": "view",
      "type": "function"
    },
    {
      "constant": true,
      "inputs": [],
      "name": "proxy",
      "outputs": [
        {
          "internalType": "contract ProxyBase",
          "name": "",
          "type": "address"
        }
      ],
      "payable": false,
      "stateMutability": "view",
      "type": "function"
    },
    {
      "constant": false,
      "inputs": [
        {
          "internalType": "contract ProxyBase",
          "name": "_proxy",
          "type": "address"
        }
      ],
      "name": "setProxy",
      "outputs": [],
      "payable": false,
      "stateMutability": "nonpayable",
      "type": "function"
    },
    {
      "constant": false,
      "inputs": [
        {
          "internalType": "address payable",
          "name": "newOwner",
          "type": "address"
        }
      ],
      "name": "transferOwnership",
      "outputs": [],
      "payable": false,
      "stateMutability": "nonpayable",
      "type": "function"
    },
    {
      "constant": false,
      "inputs": [],
      "name": "initialize",
      "outputs": [],
      "payable": false,
      "stateMutability": "nonpayable",
      "type": "function"
    },
    {
      "constant": true,
      "inputs": [],
      "name": "isKtyToken0",
      "outputs": [
        {
          "internalType": "bool",
          "name": "",
          "type": "bool"
        }
      ],
      "payable": false,
      "stateMutability": "view",
      "type": "function"
    },
    {
      "constant": true,
      "inputs": [],
      "name": "isDaiToken0",
      "outputs": [
        {
          "internalType": "bool",
          "name": "",
          "type": "bool"
        }
      ],
      "payable": false,
      "stateMutability": "view",
      "type": "function"
    },
    {
      "constant": true,
      "inputs": [],
      "name": "getReserveKTY",
      "outputs": [
        {
          "internalType": "uint256",
          "name": "",
          "type": "uint256"
        }
      ],
      "payable": false,
      "stateMutability": "view",
      "type": "function"
    },
    {
      "constant": true,
      "inputs": [],
      "name": "getReserveETH",
      "outputs": [
        {
          "internalType": "uint256",
          "name": "",
          "type": "uint256"
        }
      ],
      "payable": false,
      "stateMutability": "view",
      "type": "function"
    },
    {
      "constant": true,
      "inputs": [
        {
          "internalType": "uint256",
          "name": "_ethAmount",
          "type": "uint256"
        }
      ],
      "name": "ktyFor",
      "outputs": [
        {
          "internalType": "uint256",
          "name": "",
          "type": "uint256"
        }
      ],
      "payable": false,
      "stateMutability": "view",
      "type": "function"
    },
    {
      "constant": true,
      "inputs": [],
      "name": "KTY_ETH_price",
      "outputs": [
        {
          "internalType": "uint256",
          "name": "",
          "type": "uint256"
        }
      ],
      "payable": false,
      "stateMutability": "view",
      "type": "function"
    },
    {
      "constant": true,
      "inputs": [
        {
          "internalType": "uint256",
          "name": "_ktyAmount",
          "type": "uint256"
        }
      ],
      "name": "etherFor",
      "outputs": [
        {
          "internalType": "uint256",
          "name": "",
          "type": "uint256"
        }
      ],
      "payable": false,
      "stateMutability": "view",
      "type": "function"
    },
    {
      "constant": true,
      "inputs": [],
      "name": "ETH_KTY_price",
      "outputs": [
        {
          "internalType": "uint256",
          "name": "",
          "type": "uint256"
        }
      ],
      "payable": false,
      "stateMutability": "view",
      "type": "function"
    },
    {
      "constant": true,
      "inputs": [],
      "name": "KTY_ETH_ratio",
      "outputs": [
        {
          "internalType": "uint256",
          "name": "",
          "type": "uint256"
        }
      ],
      "payable": false,
      "stateMutability": "view",
      "type": "function"
    },
    {
      "constant": true,
      "inputs": [],
      "name": "ETH_KTY_ratio",
      "outputs": [
        {
          "internalType": "uint256",
          "name": "",
          "type": "uint256"
        }
      ],
      "payable": false,
      "stateMutability": "view",
      "type": "function"
    },
    {
      "constant": true,
      "inputs": [],
      "name": "getReserveDAI",
      "outputs": [
        {
          "internalType": "uint256",
          "name": "",
          "type": "uint256"
        }
      ],
      "payable": false,
      "stateMutability": "view",
      "type": "function"
    },
    {
      "constant": true,
      "inputs": [],
      "name": "getReserveETHfromDAI",
      "outputs": [
        {
          "internalType": "uint256",
          "name": "",
          "type": "uint256"
        }
      ],
      "payable": false,
      "stateMutability": "view",
      "type": "function"
    },
    {
      "constant": true,
      "inputs": [],
      "name": "DAI_ETH_price",
      "outputs": [
        {
          "internalType": "uint256",
          "name": "",
          "type": "uint256"
        }
      ],
      "payable": false,
      "stateMutability": "view",
      "type": "function"
    },
    {
      "constant": true,
      "inputs": [],
      "name": "ETH_DAI_price",
      "outputs": [
        {
          "internalType": "uint256",
          "name": "",
          "type": "uint256"
        }
      ],
      "payable": false,
      "stateMutability": "view",
      "type": "function"
    },
    {
      "constant": true,
      "inputs": [],
      "name": "DAI_ETH_ratio",
      "outputs": [
        {
          "internalType": "uint256",
          "name": "",
          "type": "uint256"
        }
      ],
      "payable": false,
      "stateMutability": "view",
      "type": "function"
    },
    {
      "constant": true,
      "inputs": [],
      "name": "ETH_DAI_ratio",
      "outputs": [
        {
          "internalType": "uint256",
          "name": "",
          "type": "uint256"
        }
      ],
      "payable": false,
      "stateMutability": "view",
      "type": "function"
    },
    {
      "constant": true,
      "inputs": [],
      "name": "KTY_DAI_ratio",
      "outputs": [
        {
          "internalType": "uint256",
          "name": "",
          "type": "uint256"
        }
      ],
      "payable": false,
      "stateMutability": "view",
      "type": "function"
    },
    {
      "constant": true,
      "inputs": [],
      "name": "DAI_KTY_ratio",
      "outputs": [
        {
          "internalType": "uint256",
          "name": "",
          "type": "uint256"
        }
      ],
      "payable": false,
      "stateMutability": "view",
      "type": "function"
    }
  ],
  "bytecode": "0x6080604052336000806101000a81548173ffffffffffffffffffffffffffffffffffffffff021916908373ffffffffffffffffffffffffffffffffffffffff16021790555061280a806100536000396000f3fe608060405234801561001057600080fd5b50600436106101a85760003560e01c80638da5cb5b116100f9578063d7b3499011610097578063f2cb3e6911610071578063f2cb3e69146105c5578063f2fde38b146105e3578063f408727214610627578063fed1d17f14610649576101a8565b8063d7b3499014610513578063e29e338214610531578063ec5568891461057b576101a8565b8063adeae0ef116100d3578063adeae0ef1461049b578063bca05cd8146104b9578063bee0fb2c146104d7578063d4b3596b146104f5576101a8565b80638da5cb5b146103cb57806397107d6d14610415578063a1fe256c14610459576101a8565b806355786d20116101665780638129fc1c116101405780638129fc1c1461030f578063825a099414610319578063877ae38d14610337578063882b7aae14610381576101a8565b806355786d2014610265578063557b3400146102af5780635c74c88b146102f1576101a8565b806239440f146101ad57806311403cf3146101cb5780632377cc9c146101e9578063303e19621461020757806348157449146102295780634a86157b14610247575b600080fd5b6101b5610667565b6040518082815260200191505060405180910390f35b6101d3610811565b6040518082815260200191505060405180910390f35b6101f16109bb565b6040518082815260200191505060405180910390f35b61020f610aa7565b604051808215151515815260200191505060405180910390f35b610231610eec565b6040518082815260200191505060405180910390f35b61024f610fd8565b6040518082815260200191505060405180910390f35b61026d611182565b604051808273ffffffffffffffffffffffffffffffffffffffff1673ffffffffffffffffffffffffffffffffffffffff16815260200191505060405180910390f35b6102db600480360360208110156102c557600080fd5b81019080803590602001909291905050506111a8565b6040518082815260200191505060405180910390f35b6102f96111e5565b6040518082815260200191505060405180910390f35b610317611238565b005b6103216118b0565b6040518082815260200191505060405180910390f35b61033f61199c565b604051808273ffffffffffffffffffffffffffffffffffffffff1673ffffffffffffffffffffffffffffffffffffffff16815260200191505060405180910390f35b6103896119c2565b604051808273ffffffffffffffffffffffffffffffffffffffff1673ffffffffffffffffffffffffffffffffffffffff16815260200191505060405180910390f35b6103d36119e8565b604051808273ffffffffffffffffffffffffffffffffffffffff1673ffffffffffffffffffffffffffffffffffffffff16815260200191505060405180910390f35b6104576004803603602081101561042b57600080fd5b81019080803573ffffffffffffffffffffffffffffffffffffffff169060200190929190505050611a0d565b005b6104856004803603602081101561046f57600080fd5b8101908080359060200190929190505050611aa7565b6040518082815260200191505060405180910390f35b6104a3611b8d565b6040518082815260200191505060405180910390f35b6104c1611d37565b6040518082815260200191505060405180910390f35b6104df611e23565b6040518082815260200191505060405180910390f35b6104fd611f0f565b6040518082815260200191505060405180910390f35b61051b611f62565b6040518082815260200191505060405180910390f35b61053961204e565b604051808273ffffffffffffffffffffffffffffffffffffffff1673ffffffffffffffffffffffffffffffffffffffff16815260200191505060405180910390f35b610583612074565b604051808273ffffffffffffffffffffffffffffffffffffffff1673ffffffffffffffffffffffffffffffffffffffff16815260200191505060405180910390f35b6105cd61209a565b6040518082815260200191505060405180910390f35b610625600480360360208110156105f957600080fd5b81019080803573ffffffffffffffffffffffffffffffffffffffff169060200190929190505050612186565b005b61062f612254565b604051808215151515815260200191505060405180910390f35b610651612699565b6040518082815260200191505060405180910390f35b600080610672612254565b1561073b57600260009054906101000a900473ffffffffffffffffffffffffffffffffffffffff1673ffffffffffffffffffffffffffffffffffffffff16630902f1ac6040518163ffffffff1660e01b815260040160606040518083038186803b1580156106df57600080fd5b505afa1580156106f3573d6000803e3d6000fd5b505050506040513d606081101561070957600080fd5b8101908080519060200190929190805190602001909291908051906020019092919050505090915050809150506107fa565b600260009054906101000a900473ffffffffffffffffffffffffffffffffffffffff1673ffffffffffffffffffffffffffffffffffffffff16630902f1ac6040518163ffffffff1660e01b815260040160606040518083038186803b1580156107a357600080fd5b505afa1580156107b7573d6000803e3d6000fd5b505050506040513d60608110156107cd57600080fd5b81019080805190602001909291908051906020019092919080519060200190929190505050905050809150505b806dffffffffffffffffffffffffffff1691505090565b60008061081c612254565b156108e457600260009054906101000a900473ffffffffffffffffffffffffffffffffffffffff1673ffffffffffffffffffffffffffffffffffffffff16630902f1ac6040518163ffffffff1660e01b815260040160606040518083038186803b15801561088957600080fd5b505afa15801561089d573d6000803e3d6000fd5b505050506040513d60608110156108b357600080fd5b81019080805190602001909291908051906020019092919080519060200190929190505050905050809150506109a4565b600260009054906101000a900473ffffffffffffffffffffffffffffffffffffffff1673ffffffffffffffffffffffffffffffffffffffff16630902f1ac6040518163ffffffff1660e01b815260040160606040518083038186803b15801561094c57600080fd5b505afa158015610960573d6000803e3d6000fd5b505050506040513d606081101561097657600080fd5b8101908080519060200190929190805190602001909291908051906020019092919050505090915050809150505b806dffffffffffffffffffffffffffff1691505090565b600080670de0b6b3a7640000905060006109d3610811565b905060006109df610667565b9050600360009054906101000a900473ffffffffffffffffffffffffffffffffffffffff1673ffffffffffffffffffffffffffffffffffffffff166385f8c2598484846040518463ffffffff1660e01b815260040180848152602001838152602001828152602001935050505060206040518083038186803b158015610a6457600080fd5b505afa158015610a78573d6000803e3d6000fd5b505050506040513d6020811015610a8e57600080fd5b8101908080519060200190929190505050935050505090565b600080600080600160009054906101000a900473ffffffffffffffffffffffffffffffffffffffff1673ffffffffffffffffffffffffffffffffffffffff1663358177736040518060400160405280600381526020017f44616900000000000000000000000000000000000000000000000000000000008152506040518263ffffffff1660e01b81526004018080602001828103825283818151815260200191508051906020019080838360005b83811015610b70578082015181840152602081019050610b55565b50505050905090810190601f168015610b9d5780820380516001836020036101000a031916815260200191505b509250505060206040518083038186803b158015610bba57600080fd5b505afa158015610bce573d6000803e3d6000fd5b505050506040513d6020811015610be457600080fd5b810190808051906020019092919050505090506000600160009054906101000a900473ffffffffffffffffffffffffffffffffffffffff1673ffffffffffffffffffffffffffffffffffffffff1663358177736040518060400160405280600581526020017f57455448390000000000000000000000000000000000000000000000000000008152506040518263ffffffff1660e01b81526004018080602001828103825283818151815260200191508051906020019080838360005b83811015610cbc578082015181840152602081019050610ca1565b50505050905090810190601f168015610ce95780820380516001836020036101000a031916815260200191505b509250505060206040518083038186803b158015610d0657600080fd5b505afa158015610d1a573d6000803e3d6000fd5b505050506040513d6020811015610d3057600080fd5b81019080805190602001909291905050509050600560009054906101000a900473ffffffffffffffffffffffffffffffffffffffff1673ffffffffffffffffffffffffffffffffffffffff1663544caa5683836040518363ffffffff1660e01b8152600401808373ffffffffffffffffffffffffffffffffffffffff1673ffffffffffffffffffffffffffffffffffffffff1681526020018273ffffffffffffffffffffffffffffffffffffffff1673ffffffffffffffffffffffffffffffffffffffff16815260200192505050604080518083038186803b158015610e1557600080fd5b505afa158015610e29573d6000803e3d6000fd5b505050506040513d6040811015610e3f57600080fd5b81019080805190602001909291908051906020019092919050505080945081955050508173ffffffffffffffffffffffffffffffffffffffff168473ffffffffffffffffffffffffffffffffffffffff161415610ea3576001945050505050610ee9565b8073ffffffffffffffffffffffffffffffffffffffff168473ffffffffffffffffffffffffffffffffffffffff161415610ee4576000945050505050610ee9565b505050505b90565b600080670de0b6b3a764000090506000610f04611b8d565b90506000610f10610fd8565b9050600360009054906101000a900473ffffffffffffffffffffffffffffffffffffffff1673ffffffffffffffffffffffffffffffffffffffff166385f8c2598484846040518463ffffffff1660e01b815260040180848152602001838152602001828152602001935050505060206040518083038186803b158015610f9557600080fd5b505afa158015610fa9573d6000803e3d6000fd5b505050506040513d6020811015610fbf57600080fd5b8101908080519060200190929190505050935050505090565b600080610fe3610aa7565b156110ac57600460009054906101000a900473ffffffffffffffffffffffffffffffffffffffff1673ffffffffffffffffffffffffffffffffffffffff16630902f1ac6040518163ffffffff1660e01b815260040160606040518083038186803b15801561105057600080fd5b505afa158015611064573d6000803e3d6000fd5b505050506040513d606081101561107a57600080fd5b81019080805190602001909291908051906020019092919080519060200190929190505050909150508091505061116b565b600460009054906101000a900473ffffffffffffffffffffffffffffffffffffffff1673ffffffffffffffffffffffffffffffffffffffff16630902f1ac6040518163ffffffff1660e01b815260040160606040518083038186803b15801561111457600080fd5b505afa158015611128573d6000803e3d6000fd5b505050506040513d606081101561113e57600080fd5b81019080805190602001909291908051906020019092919080519060200190929190505050905050809150505b806dffffffffffffffffffffffffffff1691505090565b600360009054906101000a900473ffffffffffffffffffffffffffffffffffffffff1681565b60006111de670de0b6b3a76400006111d06111c1611d37565b8561278590919063ffffffff16565b6127bc90919063ffffffff16565b9050919050565b6000806111f061209a565b905060006111fc6118b0565b9050600061122d670de0b6b3a764000061121f848661278590919063ffffffff16565b6127bc90919063ffffffff16565b905080935050505090565b6000809054906101000a900473ffffffffffffffffffffffffffffffffffffffff1673ffffffffffffffffffffffffffffffffffffffff163373ffffffffffffffffffffffffffffffffffffffff161461128e57fe5b600160009054906101000a900473ffffffffffffffffffffffffffffffffffffffff1673ffffffffffffffffffffffffffffffffffffffff1663358177736040518060400160405280600d81526020017f556e6973776170563250616972000000000000000000000000000000000000008152506040518263ffffffff1660e01b81526004018080602001828103825283818151815260200191508051906020019080838360005b83811015611351578082015181840152602081019050611336565b50505050905090810190601f16801561137e5780820380516001836020036101000a031916815260200191505b509250505060206040518083038186803b15801561139b57600080fd5b505afa1580156113af573d6000803e3d6000fd5b505050506040513d60208110156113c557600080fd5b8101908080519060200190929190505050600260006101000a81548173ffffffffffffffffffffffffffffffffffffffff021916908373ffffffffffffffffffffffffffffffffffffffff160217905550600160009054906101000a900473ffffffffffffffffffffffffffffffffffffffff1673ffffffffffffffffffffffffffffffffffffffff1663358177736040518060400160405280600d81526020017f4b7479576574684f7261636c65000000000000000000000000000000000000008152506040518263ffffffff1660e01b81526004018080602001828103825283818151815260200191508051906020019080838360005b838110156114d95780820151818401526020810190506114be565b50505050905090810190601f1680156115065780820380516001836020036101000a031916815260200191505b509250505060206040518083038186803b15801561152357600080fd5b505afa158015611537573d6000803e3d6000fd5b505050506040513d602081101561154d57600080fd5b8101908080519060200190929190505050600360006101000a81548173ffffffffffffffffffffffffffffffffffffffff021916908373ffffffffffffffffffffffffffffffffffffffff160217905550600160009054906101000a900473ffffffffffffffffffffffffffffffffffffffff1673ffffffffffffffffffffffffffffffffffffffff1663358177736040518060400160405280600c81526020017f49446169576574685061697200000000000000000000000000000000000000008152506040518263ffffffff1660e01b81526004018080602001828103825283818151815260200191508051906020019080838360005b83811015611661578082015181840152602081019050611646565b50505050905090810190601f16801561168e5780820380516001836020036101000a031916815260200191505b509250505060206040518083038186803b1580156116ab57600080fd5b505afa1580156116bf573d6000803e3d6000fd5b505050506040513d60208110156116d557600080fd5b8101908080519060200190929190505050600460006101000a81548173ffffffffffffffffffffffffffffffffffffffff021916908373ffffffffffffffffffffffffffffffffffffffff160217905550600160009054906101000a900473ffffffffffffffffffffffffffffffffffffffff1673ffffffffffffffffffffffffffffffffffffffff1663358177736040518060400160405280600d81526020017f446169576574684f7261636c65000000000000000000000000000000000000008152506040518263ffffffff1660e01b81526004018080602001828103825283818151815260200191508051906020019080838360005b838110156117e95780820151818401526020810190506117ce565b50505050905090810190601f1680156118165780820380516001836020036101000a031916815260200191505b509250505060206040518083038186803b15801561183357600080fd5b505afa158015611847573d6000803e3d6000fd5b505050506040513d602081101561185d57600080fd5b8101908080519060200190929190505050600560006101000a81548173ffffffffffffffffffffffffffffffffffffffff021916908373ffffffffffffffffffffffffffffffffffffffff160217905550565b600080670de0b6b3a7640000905060006118c8611b8d565b905060006118d4610fd8565b9050600560009054906101000a900473ffffffffffffffffffffffffffffffffffffffff1673ffffffffffffffffffffffffffffffffffffffff1663ad615dec8483856040518463ffffffff1660e01b815260040180848152602001838152602001828152602001935050505060206040518083038186803b15801561195957600080fd5b505afa15801561196d573d6000803e3d6000fd5b505050506040513d602081101561198357600080fd5b8101908080519060200190929190505050935050505090565b600260009054906101000a900473ffffffffffffffffffffffffffffffffffffffff1681565b600460009054906101000a900473ffffffffffffffffffffffffffffffffffffffff1681565b6000809054906101000a900473ffffffffffffffffffffffffffffffffffffffff1681565b6000809054906101000a900473ffffffffffffffffffffffffffffffffffffffff1673ffffffffffffffffffffffffffffffffffffffff163373ffffffffffffffffffffffffffffffffffffffff1614611a6357fe5b80600160006101000a81548173ffffffffffffffffffffffffffffffffffffffff021916908373ffffffffffffffffffffffffffffffffffffffff16021790555050565b600080611ab2610811565b90506000611abe610667565b90506000600360009054906101000a900473ffffffffffffffffffffffffffffffffffffffff1673ffffffffffffffffffffffffffffffffffffffff1663ad615dec8684866040518463ffffffff1660e01b815260040180848152602001838152602001828152602001935050505060206040518083038186803b158015611b4557600080fd5b505afa158015611b59573d6000803e3d6000fd5b505050506040513d6020811015611b6f57600080fd5b81019080805190602001909291905050509050809350505050919050565b600080611b98610aa7565b15611c6057600460009054906101000a900473ffffffffffffffffffffffffffffffffffffffff1673ffffffffffffffffffffffffffffffffffffffff16630902f1ac6040518163ffffffff1660e01b815260040160606040518083038186803b158015611c0557600080fd5b505afa158015611c19573d6000803e3d6000fd5b505050506040513d6060811015611c2f57600080fd5b8101908080519060200190929190805190602001909291908051906020019092919050505090505080915050611d20565b600460009054906101000a900473ffffffffffffffffffffffffffffffffffffffff1673ffffffffffffffffffffffffffffffffffffffff16630902f1ac6040518163ffffffff1660e01b815260040160606040518083038186803b158015611cc857600080fd5b505afa158015611cdc573d6000803e3d6000fd5b505050506040513d6060811015611cf257600080fd5b8101908080519060200190929190805190602001909291908051906020019092919050505090915050809150505b806dffffffffffffffffffffffffffff1691505090565b600080670de0b6b3a764000090506000611d4f610811565b90506000611d5b610667565b9050600360009054906101000a900473ffffffffffffffffffffffffffffffffffffffff1673ffffffffffffffffffffffffffffffffffffffff166385f8c2598483856040518463ffffffff1660e01b815260040180848152602001838152602001828152602001935050505060206040518083038186803b158015611de057600080fd5b505afa158015611df4573d6000803e3d6000fd5b505050506040513d6020811015611e0a57600080fd5b8101908080519060200190929190505050935050505090565b600080670de0b6b3a764000090506000611e3b610811565b90506000611e47610667565b9050600360009054906101000a900473ffffffffffffffffffffffffffffffffffffffff1673ffffffffffffffffffffffffffffffffffffffff1663ad615dec8483856040518463ffffffff1660e01b815260040180848152602001838152602001828152602001935050505060206040518083038186803b158015611ecc57600080fd5b505afa158015611ee0573d6000803e3d6000fd5b505050506040513d6020811015611ef657600080fd5b8101908080519060200190929190505050935050505090565b600080611f1a611f62565b90506000611f26611e23565b90506000611f57670de0b6b3a7640000611f49848661278590919063ffffffff16565b6127bc90919063ffffffff16565b905080935050505090565b600080670de0b6b3a764000090506000611f7a611b8d565b90506000611f86610fd8565b9050600560009054906101000a900473ffffffffffffffffffffffffffffffffffffffff1673ffffffffffffffffffffffffffffffffffffffff1663ad615dec8484846040518463ffffffff1660e01b815260040180848152602001838152602001828152602001935050505060206040518083038186803b15801561200b57600080fd5b505afa15801561201f573d6000803e3d6000fd5b505050506040513d602081101561203557600080fd5b8101908080519060200190929190505050935050505090565b600560009054906101000a900473ffffffffffffffffffffffffffffffffffffffff1681565b600160009054906101000a900473ffffffffffffffffffffffffffffffffffffffff1681565b600080670de0b6b3a7640000905060006120b2610811565b905060006120be610667565b9050600360009054906101000a900473ffffffffffffffffffffffffffffffffffffffff1673ffffffffffffffffffffffffffffffffffffffff1663ad615dec8484846040518463ffffffff1660e01b815260040180848152602001838152602001828152602001935050505060206040518083038186803b15801561214357600080fd5b505afa158015612157573d6000803e3d6000fd5b505050506040513d602081101561216d57600080fd5b8101908080519060200190929190505050935050505090565b6000809054906101000a900473ffffffffffffffffffffffffffffffffffffffff1673ffffffffffffffffffffffffffffffffffffffff163373ffffffffffffffffffffffffffffffffffffffff16146121dc57fe5b600073ffffffffffffffffffffffffffffffffffffffff168173ffffffffffffffffffffffffffffffffffffffff161461225157806000806101000a81548173ffffffffffffffffffffffffffffffffffffffff021916908373ffffffffffffffffffffffffffffffffffffffff1602179055505b50565b600080600080600160009054906101000a900473ffffffffffffffffffffffffffffffffffffffff1673ffffffffffffffffffffffffffffffffffffffff1663358177736040518060400160405280601081526020017f4b69747469654669676874546f6b656e000000000000000000000000000000008152506040518263ffffffff1660e01b81526004018080602001828103825283818151815260200191508051906020019080838360005b8381101561231d578082015181840152602081019050612302565b50505050905090810190601f16801561234a5780820380516001836020036101000a031916815260200191505b509250505060206040518083038186803b15801561236757600080fd5b505afa15801561237b573d6000803e3d6000fd5b505050506040513d602081101561239157600080fd5b810190808051906020019092919050505090506000600160009054906101000a900473ffffffffffffffffffffffffffffffffffffffff1673ffffffffffffffffffffffffffffffffffffffff1663358177736040518060400160405280600581526020017f57455448390000000000000000000000000000000000000000000000000000008152506040518263ffffffff1660e01b81526004018080602001828103825283818151815260200191508051906020019080838360005b8381101561246957808201518184015260208101905061244e565b50505050905090810190601f1680156124965780820380516001836020036101000a031916815260200191505b509250505060206040518083038186803b1580156124b357600080fd5b505afa1580156124c7573d6000803e3d6000fd5b505050506040513d60208110156124dd57600080fd5b81019080805190602001909291905050509050600360009054906101000a900473ffffffffffffffffffffffffffffffffffffffff1673ffffffffffffffffffffffffffffffffffffffff1663544caa5683836040518363ffffffff1660e01b8152600401808373ffffffffffffffffffffffffffffffffffffffff1673ffffffffffffffffffffffffffffffffffffffff1681526020018273ffffffffffffffffffffffffffffffffffffffff1673ffffffffffffffffffffffffffffffffffffffff16815260200192505050604080518083038186803b1580156125c257600080fd5b505afa1580156125d6573d6000803e3d6000fd5b505050506040513d60408110156125ec57600080fd5b81019080805190602001909291908051906020019092919050505080945081955050508173ffffffffffffffffffffffffffffffffffffffff168473ffffffffffffffffffffffffffffffffffffffff161415612650576001945050505050612696565b8073ffffffffffffffffffffffffffffffffffffffff168473ffffffffffffffffffffffffffffffffffffffff161415612691576000945050505050612696565b505050505b90565b600080670de0b6b3a7640000905060006126b1611b8d565b905060006126bd610fd8565b9050600360009054906101000a900473ffffffffffffffffffffffffffffffffffffffff1673ffffffffffffffffffffffffffffffffffffffff166385f8c2598483856040518463ffffffff1660e01b815260040180848152602001838152602001828152602001935050505060206040518083038186803b15801561274257600080fd5b505afa158015612756573d6000803e3d6000fd5b505050506040513d602081101561276c57600080fd5b8101908080519060200190929190505050935050505090565b60008083141561279857600090506127b6565b60008284029050828482816127a957fe5b04146127b157fe5b809150505b92915050565b6000808284816127c857fe5b049050809150509291505056fea265627a7a723158201d9a75692c5fdd8c92a5e3bc7d139bf50c436611c04fbcca0652bebbf0aaad7c64736f6c63430005110032",
  "source": "pragma solidity ^0.5.5;\n/**\n * @title KtyUniswap\n * @dev Responsible for : exchange ether for KTY\n * @author @ziweidream\n */\nimport '../proxy/Proxied.sol';\nimport '../../authority/Guard.sol';\nimport '../../libs/SafeMath.sol';\nimport '../../uniswapKTY/uniswap-v2-core/interfaces/IUniswapV2Pair.sol';\nimport '../../uniswapKTY/uniswap-v2-core/interfaces/IDaiWethPair.sol';\nimport '../../uniswapKTY/uniswap-V2-periphery/KtyWethOracle.sol';\nimport '../../uniswapKTY/uniswap-V2-periphery/DaiWethOracle.sol';\n\ncontract KtyUniswap is Proxied, Guard {\n    using SafeMath for uint256;\n\n    IUniswapV2Pair public ktyWethPair;\n    KtyWethOracle public ktyWethOracle;\n\n    IDaiWethPair public daiWethPair;\n    DaiWethOracle public daiWethOracle;\n\n    //===================== Initializer ===================\n    function initialize() public onlyOwner {\n        ktyWethPair = IUniswapV2Pair(proxy.getContract(CONTRACT_NAME_UNISWAPV2_PAIR));\n        ktyWethOracle = KtyWethOracle(proxy.getContract(CONTRACT_NAME_KTY_WETH_ORACLE));\n\n        daiWethPair = IDaiWethPair(proxy.getContract(CONTRACT_NAME_DAI_WETH_PAIR));\n        daiWethOracle = DaiWethOracle(proxy.getContract(CONTRACT_NAME_DAI_WETH_ORACLE));\n    }\n\n    //===================== Getters ===================\n    function isKtyToken0()\n        public view returns (bool)\n    {\n        address token0;\n        address token1;\n\n        address kittieFightToken = proxy.getContract(CONTRACT_NAME_KITTIEFIGHTOKEN);\n        address weth = proxy.getContract(CONTRACT_NAME_WETH);\n\n        (token0, token1) = ktyWethOracle.sortTokens(kittieFightToken, weth);\n\n        if (token0 == kittieFightToken) {\n            return true;\n        } else if (token0 == weth) {\n            return false;\n        }\n    }\n\n    function isDaiToken0()\n        public view returns (bool)\n    {\n        address token0;\n        address token1;\n\n        address dai = proxy.getContract(CONTRACT_NAME_DAI);\n        address weth = proxy.getContract(CONTRACT_NAME_WETH);\n\n        (token0, token1) = daiWethOracle.sortTokens(dai, weth);\n\n        if (token0 == dai) {\n            return true;\n        } else if (token0 == weth) {\n            return false;\n        }\n    }\n\n    /**\n     * @dev returns the amount of KTY reserves in ktyWethPair contract.\n     */\n    function getReserveKTY()\n        public view\n        returns (uint256)\n    {\n        uint112 _reserveKTY;\n        if (isKtyToken0()) {\n            (_reserveKTY,,) = ktyWethPair.getReserves();\n        } else {\n            (,_reserveKTY,) = ktyWethPair.getReserves();\n        }\n\n        return uint256(_reserveKTY);\n    }\n\n    /**\n     * @dev returns the amount of ether(wrapped) reserves in ktyWethPair contract.\n     */\n    function getReserveETH()\n        public view\n        returns (uint256)\n    {\n        uint112 _reserveETH;\n        if (isKtyToken0()) {\n            (,_reserveETH,) = ktyWethPair.getReserves();\n        } else {\n            (_reserveETH,,) = ktyWethPair.getReserves();\n        }\n\n        return uint256(_reserveETH);\n    }\n\n    // function etherFor(uint256 _ktyAmount) public view returns (uint256) {\n    //     uint256 _reserveKTY = getReserveKTY();\n    //     uint256 _reserveETH = getReserveETH();\n    //     uint256 ether_needed = ktyWethOracle.quote(_ktyAmount, _reserveKTY, _reserveETH);\n    //     return ether_needed;\n    // }\n\n    /**\n     * @dev returns the amount of ktys swapped for the ethers of _ethAmount\n     */\n    function ktyFor(uint256 _ethAmount) public view returns (uint256) {\n        uint256 _reserveKTY = getReserveKTY();\n        uint256 _reserveETH = getReserveETH();\n        uint256 kty_for = ktyWethOracle.quote(_ethAmount, _reserveETH, _reserveKTY);\n        return kty_for;\n    }\n\n    /**\n     * @dev returns the KTY to ether price on uniswap, that is, how many ether for 1 KTY\n     */\n    function KTY_ETH_price() public view returns (uint256) {\n        uint256 _amountKTY = 1e18;  // 1 KTY\n        uint256 _reserveKTY = getReserveKTY();\n        uint256 _reserveETH = getReserveETH();\n        return ktyWethOracle.getAmountIn(_amountKTY, _reserveETH, _reserveKTY);\n    }\n\n    /**\n     * @dev returns the amount of ethers needed to swap for some amount of KTY\n     * @param _ktyAmount the amount of KTY to be swapped for\n     */\n    function etherFor(uint256 _ktyAmount) public view returns (uint256) {\n        return _ktyAmount.mul(KTY_ETH_price()).div(1000000000000000000);\n    }\n\n    /**\n     * @dev returns the ether KTY price on uniswap, that is, how many KTYs for 1 ether\n     */\n    function ETH_KTY_price() public view returns (uint256) {\n        uint256 _amountETH = 1e18;  // 1 KTY\n        uint256 _reserveKTY = getReserveKTY();\n        uint256 _reserveETH = getReserveETH();\n        return ktyWethOracle.getAmountIn(_amountETH, _reserveKTY, _reserveETH);\n    }\n\n\n    /**\n     * @dev returns the KTY to ether ratio on uniswap, that is, how many ether for 1 KTY\n     */\n    function KTY_ETH_ratio() public view returns (uint256) {\n        uint256 _amountKTY = 1e18;  // 1 KTY\n        uint256 _reserveKTY = getReserveKTY();\n        uint256 _reserveETH = getReserveETH();\n        return ktyWethOracle.quote(_amountKTY, _reserveKTY, _reserveETH);\n    }\n\n    /**\n     * @dev returns the ether to KTY ratio on uniswap, that is, how many KTY for 1 ether\n     */\n    function ETH_KTY_ratio() public view returns (uint256) {\n        uint256 _amountETH = 1e18; // 1 ether\n        uint256 _reserveKTY = getReserveKTY();\n        uint256 _reserveETH = getReserveETH();\n        return ktyWethOracle.quote(_amountETH, _reserveETH, _reserveKTY);\n    }\n\n    /**\n     * @dev returns the amount of KTY reserves in ktyWethPair contract.\n     */\n    function getReserveDAI()\n        public view\n        returns (uint256)\n    {\n        uint112 _reserveDAI;\n        if (isDaiToken0()) {\n            (_reserveDAI,,) = daiWethPair.getReserves();\n        } else {\n            (,_reserveDAI,) = daiWethPair.getReserves();\n        }\n\n        return uint256(_reserveDAI);\n    }\n\n    /**\n     * @dev returns the amount of ether(wrapped) reserves in daiWethPair contract.\n     */\n    function getReserveETHfromDAI()\n        public view\n        returns (uint256)\n    {\n        uint112 _reserveETHfromDAI;\n        if (isDaiToken0()) {\n            (,_reserveETHfromDAI,) = daiWethPair.getReserves();\n        } else {\n            (_reserveETHfromDAI,,) = daiWethPair.getReserves();\n        }\n\n        return uint256(_reserveETHfromDAI);\n    }\n\n    /**\n     * @dev returns the DAI to ether price on uniswap, that is, how many ether for 1 DAI\n     */\n    function DAI_ETH_price() public view returns (uint256) {\n        uint256 _amountDAI = 1e18;  // 1 KTY\n        uint256 _reserveDAI = getReserveDAI();\n        uint256 _reserveETHfromDAI = getReserveETHfromDAI();\n        return ktyWethOracle.getAmountIn(_amountDAI, _reserveETHfromDAI, _reserveDAI);\n    }\n\n    /**\n     * @dev returns the ether to DAI price on uniswap, that is, how many DAI for 1 ether\n     */\n    function ETH_DAI_price() public view returns (uint256) {\n        uint256 _amountETH = 1e18;  // 1 KTY\n        uint256 _reserveDAI = getReserveDAI();\n        uint256 _reserveETHfromDAI = getReserveETHfromDAI();\n        return ktyWethOracle.getAmountIn(_amountETH, _reserveDAI, _reserveETHfromDAI);\n    }\n\n    /**\n     * @dev returns the DAI to ether ratio on uniswap, that is, how many ether for 1 DAI\n     */\n    function DAI_ETH_ratio() public view returns (uint256) {\n        uint256 _amountDAI = 1e18;  // 1 DAI\n        uint256 _reserveDAI = getReserveDAI();\n        uint256 _reserveETHfromDAI = getReserveETHfromDAI();\n        return daiWethOracle.quote(_amountDAI, _reserveDAI, _reserveETHfromDAI);\n    }\n\n    /**\n     * @dev returns the ether to DAI ratio on uniswap, that is, how many DAI for 1 ether\n     */\n    function ETH_DAI_ratio() public view returns (uint256) {\n        uint256 _amountETH = 1e18; // 1 ether\n        uint256 _reserveDAI = getReserveDAI();\n        uint256 _reserveETHfromDAI = getReserveETHfromDAI();\n        return daiWethOracle.quote(_amountETH, _reserveETHfromDAI, _reserveDAI);\n    }\n\n    /**\n     * @dev returns the KTY to DAI ratio on uniswap, that is, how many DAI for 1 KTY\n     */\n    function KTY_DAI_ratio() public view returns (uint256) {\n        // get the amount of ethers for 1 KTY\n        uint256 etherPerKTY = KTY_ETH_ratio();\n        // get the amount of DAI for 1 ether\n        uint256 daiPerEther = ETH_DAI_ratio();\n        // get the amount of DAI for 1 KTY\n        uint256 daiPerKTY = etherPerKTY.mul(daiPerEther).div(1000000000000000000);\n        return daiPerKTY;\n    }\n\n    /**\n     * @dev returns the DAI to KTY ratio on uniswap, that is, how many KTY for 1 DAI\n     */\n    function DAI_KTY_ratio() public view returns (uint256) {\n        // get the amount of ethers for 1 DAI\n        uint256 etherPerDAI = DAI_ETH_ratio();\n        // get the amount of KTY for 1 ether\n        uint256 ktyPerEther = ETH_KTY_ratio();\n        // get the amount of KTY for 1 DAI\n        uint256 ktyPerDAI = etherPerDAI.mul(ktyPerEther).div(1000000000000000000);\n        return ktyPerDAI;\n    }\n }",
  "sourcePath": "/Users/ziweizhang/Desktop/multi-sig/contracts/contracts/modules/endowment/KtyUniswap.sol",
  "compiler": {
    "name": "solc",
    "version": "0.5.17+commit.d19bba13.Emscripten.clang"
  },
  "schemaVersion": "3.0.23",
  "updatedAt": "2020-07-19T12:59:50.069Z",
  "networkType": "ethereum",
  "devdoc": {
    "methods": {
      "DAI_ETH_price()": {
        "details": "returns the DAI to ether price on uniswap, that is, how many ether for 1 DAI"
      },
      "DAI_ETH_ratio()": {
        "details": "returns the DAI to ether ratio on uniswap, that is, how many ether for 1 DAI"
      },
      "DAI_KTY_ratio()": {
        "details": "returns the DAI to KTY ratio on uniswap, that is, how many KTY for 1 DAI"
      },
      "ETH_DAI_price()": {
        "details": "returns the ether to DAI price on uniswap, that is, how many DAI for 1 ether"
      },
      "ETH_DAI_ratio()": {
        "details": "returns the ether to DAI ratio on uniswap, that is, how many DAI for 1 ether"
      },
      "ETH_KTY_price()": {
        "details": "returns the ether KTY price on uniswap, that is, how many KTYs for 1 ether"
      },
      "ETH_KTY_ratio()": {
        "details": "returns the ether to KTY ratio on uniswap, that is, how many KTY for 1 ether"
      },
      "KTY_DAI_ratio()": {
        "details": "returns the KTY to DAI ratio on uniswap, that is, how many DAI for 1 KTY"
      },
      "KTY_ETH_price()": {
        "details": "returns the KTY to ether price on uniswap, that is, how many ether for 1 KTY"
      },
      "KTY_ETH_ratio()": {
        "details": "returns the KTY to ether ratio on uniswap, that is, how many ether for 1 KTY"
      },
      "etherFor(uint256)": {
        "details": "returns the amount of ethers needed to swap for some amount of KTY",
        "params": {
          "_ktyAmount": "the amount of KTY to be swapped for"
        }
      },
      "getReserveDAI()": {
        "details": "returns the amount of KTY reserves in ktyWethPair contract."
      },
      "getReserveETH()": {
        "details": "returns the amount of ether(wrapped) reserves in ktyWethPair contract."
      },
      "getReserveETHfromDAI()": {
        "details": "returns the amount of ether(wrapped) reserves in daiWethPair contract."
      },
      "getReserveKTY()": {
        "details": "returns the amount of KTY reserves in ktyWethPair contract."
      },
      "ktyFor(uint256)": {
        "details": "returns the amount of ktys swapped for the ethers of _ethAmount"
      }
    }
  },
  "userdoc": {
    "methods": {
      "setProxy(address)": {
        "notice": "Set/update address of Proxy contract"
      }
    }
  }
}