{
  "contractName": "MockStaking",
  "abi": [
    {
      "constant": true,
      "inputs": [],
      "name": "superDaoToken",
      "outputs": [
        {
          "internalType": "contract ERC20Standard",
          "name": "",
          "type": "address"
        }
      ],
      "payable": false,
      "stateMutability": "view",
      "type": "function"
    },
    {
      "constant": false,
      "inputs": [
        {
          "internalType": "address",
          "name": "_superDaoToken",
          "type": "address"
        }
      ],
      "name": "initialize",
      "outputs": [],
      "payable": false,
      "stateMutability": "nonpayable",
      "type": "function"
    },
    {
      "constant": false,
      "inputs": [
        {
          "internalType": "uint256",
          "name": "_amount",
          "type": "uint256"
        }
      ],
      "name": "stake",
      "outputs": [],
      "payable": false,
      "stateMutability": "nonpayable",
      "type": "function"
    },
    {
      "constant": false,
      "inputs": [
        {
          "internalType": "uint256",
          "name": "_amount",
          "type": "uint256"
        }
      ],
      "name": "unstake",
      "outputs": [],
      "payable": false,
      "stateMutability": "nonpayable",
      "type": "function"
    },
    {
      "constant": true,
      "inputs": [
        {
          "internalType": "address",
          "name": "_accountAddress",
          "type": "address"
        }
      ],
      "name": "lastStakedFor",
      "outputs": [
        {
          "internalType": "uint256",
          "name": "",
          "type": "uint256"
        }
      ],
      "payable": false,
      "stateMutability": "view",
      "type": "function"
    },
    {
      "constant": true,
      "inputs": [
        {
          "internalType": "address",
          "name": "_accountAddress",
          "type": "address"
        }
      ],
      "name": "totalStakedFor",
      "outputs": [
        {
          "internalType": "uint256",
          "name": "",
          "type": "uint256"
        }
      ],
      "payable": false,
      "stateMutability": "view",
      "type": "function"
    },
    {
      "constant": true,
      "inputs": [],
      "name": "totalStaked",
      "outputs": [
        {
          "internalType": "uint256",
          "name": "",
          "type": "uint256"
        }
      ],
      "payable": false,
      "stateMutability": "view",
      "type": "function"
    }
  ],
  "bytecode": "0x608060405234801561001057600080fd5b506108dd806100206000396000f3fe608060405234801561001057600080fd5b506004361061007d5760003560e01c8063817b1cd21161005b578063817b1cd214610160578063a694fc3a1461017e578063c4d66de8146101ac578063d8717bc7146101f05761007d565b8063233b7451146100825780632e17de78146100da5780634b341aed14610108575b600080fd5b6100c46004803603602081101561009857600080fd5b81019080803573ffffffffffffffffffffffffffffffffffffffff16906020019092919050505061023a565b6040518082815260200191505060405180910390f35b610106600480360360208110156100f057600080fd5b8101908080359060200190929190505050610309565b005b61014a6004803603602081101561011e57600080fd5b81019080803573ffffffffffffffffffffffffffffffffffffffff16906020019092919050505061041c565b6040518082815260200191505060405180910390f35b6101686104eb565b6040518082815260200191505060405180910390f35b6101aa6004803603602081101561019457600080fd5b8101908080359060200190929190505050610538565b005b6101ee600480360360208110156101c257600080fd5b81019080803573ffffffffffffffffffffffffffffffffffffffff16906020019092919050505061067f565b005b6101f86106c2565b604051808273ffffffffffffffffffffffffffffffffffffffff1673ffffffffffffffffffffffffffffffffffffffff16815260200191505060405180910390f35b600080600160008473ffffffffffffffffffffffffffffffffffffffff1673ffffffffffffffffffffffffffffffffffffffff16815260200190815260200160002060030160000180549050905060008111156102fe57600160008473ffffffffffffffffffffffffffffffffffffffff1673ffffffffffffffffffffffffffffffffffffffff16815260200190815260200160002060030160000160018203815481106102e457fe5b906000526020600020906002020160000154915050610304565b60009150505b919050565b6000811161031657600080fd5b610322338260006106e7565b61032d8160006107cf565b6000809054906101000a900473ffffffffffffffffffffffffffffffffffffffff1673ffffffffffffffffffffffffffffffffffffffff1663a9059cbb33836040518363ffffffff1660e01b8152600401808373ffffffffffffffffffffffffffffffffffffffff1673ffffffffffffffffffffffffffffffffffffffff16815260200182815260200192505050602060405180830381600087803b1580156103d557600080fd5b505af11580156103e9573d6000803e3d6000fd5b505050506040513d60208110156103ff57600080fd5b810190808051906020019092919050505061041957600080fd5b50565b600080600160008473ffffffffffffffffffffffffffffffffffffffff1673ffffffffffffffffffffffffffffffffffffffff16815260200190815260200160002060030160000180549050905060008111156104e057600160008473ffffffffffffffffffffffffffffffffffffffff1673ffffffffffffffffffffffffffffffffffffffff16815260200190815260200160002060030160000160018203815481106104c657fe5b9060005260206000209060020201600101549150506104e6565b60009150505b919050565b6000806002600001805490509050600081111561052f576002600001600182038154811061051557fe5b906000526020600020906002020160010154915050610535565b60009150505b90565b6000811161054557600080fd5b610551338260016106e7565b61055c8160016107cf565b6000809054906101000a900473ffffffffffffffffffffffffffffffffffffffff1673ffffffffffffffffffffffffffffffffffffffff166323b872dd3330846040518463ffffffff1660e01b8152600401808473ffffffffffffffffffffffffffffffffffffffff1673ffffffffffffffffffffffffffffffffffffffff1681526020018373ffffffffffffffffffffffffffffffffffffffff1673ffffffffffffffffffffffffffffffffffffffff1681526020018281526020019350505050602060405180830381600087803b15801561063857600080fd5b505af115801561064c573d6000803e3d6000fd5b505050506040513d602081101561066257600080fd5b810190808051906020019092919050505061067c57600080fd5b50565b806000806101000a81548173ffffffffffffffffffffffffffffffffffffffff021916908373ffffffffffffffffffffffffffffffffffffffff16021790555050565b6000809054906101000a900473ffffffffffffffffffffffffffffffffffffffff1681565b60006106f28461041c565b9050600082156107165761070f848361087590919063ffffffff16565b905061072c565b610729848361089190919063ffffffff16565b90505b600160008673ffffffffffffffffffffffffffffffffffffffff1673ffffffffffffffffffffffffffffffffffffffff1681526020019081526020016000206003016000016040518060400160405280438152602001838152509080600181540180825580915050906001820390600052602060002090600202016000909192909190915060008201518160000155602082015181600101555050505050505050565b60006107d96104eb565b9050600082156107fd576107f6848361087590919063ffffffff16565b9050610813565b610810848361089190919063ffffffff16565b90505b600260000160405180604001604052804381526020018381525090806001815401808255809150509060018203906000526020600020906002020160009091929091909150600082015181600001556020820151816001015550505050505050565b60008082840190508381101561088757fe5b8091505092915050565b60008282111561089d57fe5b81830390509291505056fea265627a7a72315820de6a83644304021115af5fb5cec7b6060587ac698e8401baecb27e2957f1790664736f6c63430005110032",
  "source": "pragma solidity ^0.5.5;\r\n\r\nimport \"../libs/SafeMath.sol\";\r\nimport \"../interfaces/ERC20Standard.sol\";\r\n\r\ncontract MockStaking {\r\n    using SafeMath for uint256;\r\n\r\n    ERC20Standard public superDaoToken;\r\n\r\n    struct Account {\r\n        uint256[] activeLockIds;\r\n        uint256 lastLockId;\r\n        mapping (uint256 => uint256) locks;\r\n        History stakedHistory;\r\n    }\r\n\r\n    struct Checkpoint {\r\n        uint256 time;\r\n        uint256 value;\r\n    }\r\n\r\n    struct History {\r\n        Checkpoint[] history;\r\n    }\r\n\r\n    mapping (address => Account) internal accounts;\r\n    History internal totalStakedHistory;\r\n  \r\n    function initialize(address _superDaoToken) external {\r\n        superDaoToken = ERC20Standard(_superDaoToken);\r\n    }\r\n\r\n    /**\r\n     * @notice Stakes `_amount` tokens, transferring them from `msg.sender`\r\n     * @param _amount Number of tokens staked\r\n     */\r\n    function stake(uint256 _amount) external {\r\n       // staking 0 tokens is invalid\r\n        require(_amount > 0);\r\n\r\n        // checkpoint updated staking balance\r\n        _modifyStakeBalance(msg.sender, _amount, true);\r\n\r\n        // checkpoint total supply\r\n        _modifyTotalStaked(_amount, true);\r\n\r\n        // pull tokens into Staking contract\r\n        require(superDaoToken.transferFrom(msg.sender, address(this), _amount));\r\n    }\r\n\r\n    /**\r\n     * @notice Unstakes `_amount` tokens, returning them to the user\r\n     * @param _amount Number of tokens staked\r\n     */\r\n    function unstake(uint256 _amount) external {\r\n        // unstaking 0 tokens is not allowed\r\n        require(_amount > 0);\r\n\r\n        // checkpoint updated staking balance\r\n        _modifyStakeBalance(msg.sender, _amount, false);\r\n\r\n        // checkpoint total supply\r\n        _modifyTotalStaked(_amount, false);\r\n\r\n        // transfer tokens\r\n        require(superDaoToken.transfer(msg.sender, _amount));\r\n    }\r\n\r\n    /**\r\n     * @notice Get last time `_accountAddress` modified its staked balance\r\n     * @param _accountAddress Account requesting for\r\n     * @return Last block number when account's balance was modified\r\n     */\r\n    function lastStakedFor(address _accountAddress) external view returns (uint256) {\r\n        uint256 length = accounts[_accountAddress].stakedHistory.history.length;\r\n\r\n        if (length > 0) {\r\n            return accounts[_accountAddress].stakedHistory.history[length - 1].time;\r\n        }\r\n\r\n        return 0;\r\n    }\r\n\r\n\r\n    /**\r\n     * @notice Get the amount of tokens staked by `_accountAddress`\r\n     * @param _accountAddress The owner of the tokens\r\n     * @return The amount of tokens staked by the given account\r\n     */\r\n    function totalStakedFor(address _accountAddress) public view returns (uint256) {\r\n        // we assume it's not possible to stake in the future\r\n        uint256 length = accounts[_accountAddress].stakedHistory.history.length;\r\n        if (length > 0) {\r\n            return accounts[_accountAddress].stakedHistory.history[length - 1].value;\r\n        }\r\n\r\n        return 0;\r\n    }\r\n\r\n    function _modifyStakeBalance(address _accountAddress, uint256 _by, bool _increase) internal {\r\n        uint256 currentStake = totalStakedFor(_accountAddress);\r\n\r\n        uint256 newStake;\r\n        if (_increase) {\r\n            newStake = currentStake.add(_by);\r\n        } else {\r\n            newStake = currentStake.sub(_by);\r\n        }\r\n\r\n        // add new value to account history\r\n        accounts[_accountAddress].stakedHistory.history.push(Checkpoint(block.number, newStake));\r\n    }\r\n\r\n    function _modifyTotalStaked(uint256 _by, bool _increase) internal {\r\n        uint256 currentStake = totalStaked();\r\n\r\n        uint256 newStake;\r\n        if (_increase) {\r\n            newStake = currentStake.add(_by);\r\n        } else {\r\n            newStake = currentStake.sub(_by);\r\n        }\r\n\r\n        // add new value to total history\r\n        totalStakedHistory.history.push(Checkpoint(block.number, newStake));\r\n    }\r\n\r\n     /**\r\n     * @notice Get the total amount of tokens staked by all users\r\n     * @return The total amount of tokens staked by all users\r\n     */\r\n    function totalStaked() public view returns (uint256) {\r\n        // we assume it's not possible to stake in the future\r\n\r\n        uint256 length = totalStakedHistory.history.length;\r\n        if (length > 0) {\r\n            return totalStakedHistory.history[length - 1].value;\r\n        }\r\n\r\n        return 0;\r\n    }\r\n}\r\n\r\n\r\n\r\n    \r\n",
  "sourcePath": "C:/Users/Alex/Desktop/MyProjects/contracts/contracts/mocks/MockStaking.sol",
  "compiler": {
    "name": "solc",
    "version": "0.5.17+commit.d19bba13.Emscripten.clang"
  },
  "schemaVersion": "3.0.11",
  "updatedAt": "2020-06-12T00:54:51.186Z",
  "devdoc": {
    "methods": {
      "lastStakedFor(address)": {
        "params": {
          "_accountAddress": "Account requesting for"
        },
        "return": "Last block number when account's balance was modified"
      },
      "stake(uint256)": {
        "params": {
          "_amount": "Number of tokens staked"
        }
      },
      "totalStaked()": {
        "return": "The total amount of tokens staked by all users"
      },
      "totalStakedFor(address)": {
        "params": {
          "_accountAddress": "The owner of the tokens"
        },
        "return": "The amount of tokens staked by the given account"
      },
      "unstake(uint256)": {
        "params": {
          "_amount": "Number of tokens staked"
        }
      }
    }
  },
  "userdoc": {
    "methods": {
      "lastStakedFor(address)": {
        "notice": "Get last time `_accountAddress` modified its staked balance"
      },
      "stake(uint256)": {
        "notice": "Stakes `_amount` tokens, transferring them from `msg.sender`"
      },
      "totalStaked()": {
        "notice": "Get the total amount of tokens staked by all users"
      },
      "totalStakedFor(address)": {
        "notice": "Get the amount of tokens staked by `_accountAddress`"
      },
      "unstake(uint256)": {
        "notice": "Unstakes `_amount` tokens, returning them to the user"
      }
    }
  }
}