{
  "contractName": "MockERC721Token",
  "abi": [
    {
      "anonymous": false,
      "inputs": [
        {
          "indexed": false,
          "internalType": "address",
          "name": "owner",
          "type": "address"
        },
        {
          "indexed": false,
          "internalType": "address",
          "name": "approved",
          "type": "address"
        },
        {
          "indexed": false,
          "internalType": "uint256",
          "name": "tokenId",
          "type": "uint256"
        }
      ],
      "name": "Approval",
      "type": "event"
    },
    {
      "anonymous": false,
      "inputs": [
        {
          "indexed": true,
          "internalType": "uint256",
          "name": "kittyId",
          "type": "uint256"
        },
        {
          "indexed": true,
          "internalType": "address",
          "name": "owner",
          "type": "address"
        }
      ],
      "name": "KittieMinted",
      "type": "event"
    },
    {
      "anonymous": false,
      "inputs": [
        {
          "indexed": false,
          "internalType": "address",
          "name": "from",
          "type": "address"
        },
        {
          "indexed": false,
          "internalType": "address",
          "name": "to",
          "type": "address"
        },
        {
          "indexed": false,
          "internalType": "uint256",
          "name": "tokenId",
          "type": "uint256"
        }
      ],
      "name": "Transfer",
      "type": "event"
    },
    {
      "constant": true,
      "inputs": [],
      "name": "owner",
      "outputs": [
        {
          "internalType": "address payable",
          "name": "",
          "type": "address"
        }
      ],
      "payable": false,
      "stateMutability": "view",
      "type": "function"
    },
    {
      "constant": false,
      "inputs": [
        {
          "internalType": "address payable",
          "name": "newOwner",
          "type": "address"
        }
      ],
      "name": "transferOwnership",
      "outputs": [],
      "payable": false,
      "stateMutability": "nonpayable",
      "type": "function"
    },
    {
      "constant": false,
      "inputs": [
        {
          "internalType": "address",
          "name": "to",
          "type": "address"
        },
        {
          "internalType": "uint256",
          "name": "tokenId",
          "type": "uint256"
        }
      ],
      "name": "mint",
      "outputs": [],
      "payable": false,
      "stateMutability": "nonpayable",
      "type": "function"
    },
    {
      "constant": true,
      "inputs": [],
      "name": "totalSupply",
      "outputs": [
        {
          "internalType": "uint256",
          "name": "",
          "type": "uint256"
        }
      ],
      "payable": false,
      "stateMutability": "view",
      "type": "function"
    },
    {
      "constant": true,
      "inputs": [
        {
          "internalType": "address",
          "name": "owner",
          "type": "address"
        }
      ],
      "name": "balanceOf",
      "outputs": [
        {
          "internalType": "uint256",
          "name": "",
          "type": "uint256"
        }
      ],
      "payable": false,
      "stateMutability": "view",
      "type": "function"
    },
    {
      "constant": true,
      "inputs": [
        {
          "internalType": "uint256",
          "name": "tokenId",
          "type": "uint256"
        }
      ],
      "name": "ownerOf",
      "outputs": [
        {
          "internalType": "address",
          "name": "",
          "type": "address"
        }
      ],
      "payable": false,
      "stateMutability": "view",
      "type": "function"
    },
    {
      "constant": true,
      "inputs": [
        {
          "internalType": "bytes4",
          "name": "_interfaceID",
          "type": "bytes4"
        }
      ],
      "name": "supportsInterface",
      "outputs": [
        {
          "internalType": "bool",
          "name": "",
          "type": "bool"
        }
      ],
      "payable": false,
      "stateMutability": "view",
      "type": "function"
    },
    {
      "constant": false,
      "inputs": [
        {
          "internalType": "address",
          "name": "to",
          "type": "address"
        },
        {
          "internalType": "uint256",
          "name": "tokenId",
          "type": "uint256"
        }
      ],
      "name": "approve",
      "outputs": [],
      "payable": false,
      "stateMutability": "nonpayable",
      "type": "function"
    },
    {
      "constant": true,
      "inputs": [
        {
          "internalType": "uint256",
          "name": "tokenId",
          "type": "uint256"
        }
      ],
      "name": "getApproved",
      "outputs": [
        {
          "internalType": "address",
          "name": "",
          "type": "address"
        }
      ],
      "payable": false,
      "stateMutability": "view",
      "type": "function"
    },
    {
      "constant": true,
      "inputs": [
        {
          "internalType": "address",
          "name": "owner",
          "type": "address"
        },
        {
          "internalType": "address",
          "name": "operator",
          "type": "address"
        }
      ],
      "name": "isApprovedForAll",
      "outputs": [
        {
          "internalType": "bool",
          "name": "",
          "type": "bool"
        }
      ],
      "payable": false,
      "stateMutability": "view",
      "type": "function"
    },
    {
      "constant": false,
      "inputs": [
        {
          "internalType": "address",
          "name": "to",
          "type": "address"
        },
        {
          "internalType": "uint256",
          "name": "tokenId",
          "type": "uint256"
        }
      ],
      "name": "transfer",
      "outputs": [],
      "payable": false,
      "stateMutability": "nonpayable",
      "type": "function"
    },
    {
      "constant": false,
      "inputs": [
        {
          "internalType": "address",
          "name": "from",
          "type": "address"
        },
        {
          "internalType": "address",
          "name": "to",
          "type": "address"
        },
        {
          "internalType": "uint256",
          "name": "tokenId",
          "type": "uint256"
        }
      ],
      "name": "transferFrom",
      "outputs": [],
      "payable": false,
      "stateMutability": "nonpayable",
      "type": "function"
    },
    {
      "constant": true,
      "inputs": [
        {
          "internalType": "uint256",
          "name": "_id",
          "type": "uint256"
        }
      ],
      "name": "getKitty",
      "outputs": [
        {
          "internalType": "uint256",
          "name": "",
          "type": "uint256"
        }
      ],
      "payable": false,
      "stateMutability": "pure",
      "type": "function"
    }
  ],
  "bytecode": "0x6080604052336000806101000a81548173ffffffffffffffffffffffffffffffffffffffff021916908373ffffffffffffffffffffffffffffffffffffffff16021790555061126b806100536000396000f3fe608060405234801561001057600080fd5b50600436106100cf5760003560e01c80636352211e1161008c578063a9059cbb11610066578063a9059cbb146103df578063e985e9c51461042d578063e98b7f4d146104a9578063f2fde38b146104eb576100cf565b80636352211e146102cf57806370a082311461033d5780638da5cb5b14610395576100cf565b806301ffc9a7146100d4578063081812fc14610139578063095ea7b3146101a757806318160ddd146101f557806323b872dd1461021357806340c10f1914610281575b600080fd5b61011f600480360360208110156100ea57600080fd5b8101908080357bffffffffffffffffffffffffffffffffffffffffffffffffffffffff1916906020019092919050505061052f565b604051808215151515815260200191505060405180910390f35b6101656004803603602081101561014f57600080fd5b8101908080359060200190929190505050610539565b604051808273ffffffffffffffffffffffffffffffffffffffff1673ffffffffffffffffffffffffffffffffffffffff16815260200191505060405180910390f35b6101f3600480360360408110156101bd57600080fd5b81019080803573ffffffffffffffffffffffffffffffffffffffff16906020019092919080359060200190929190505050610588565b005b6101fd61070d565b6040518082815260200191505060405180910390f35b61027f6004803603606081101561022957600080fd5b81019080803573ffffffffffffffffffffffffffffffffffffffff169060200190929190803573ffffffffffffffffffffffffffffffffffffffff16906020019092919080359060200190929190505050610717565b005b6102cd6004803603604081101561029757600080fd5b81019080803573ffffffffffffffffffffffffffffffffffffffff1690602001909291908035906020019092919050505061073a565b005b6102fb600480360360208110156102e557600080fd5b81019080803590602001909291905050506107e2565b604051808273ffffffffffffffffffffffffffffffffffffffff1673ffffffffffffffffffffffffffffffffffffffff16815260200191505060405180910390f35b61037f6004803603602081101561035357600080fd5b81019080803573ffffffffffffffffffffffffffffffffffffffff16906020019092919050505061085e565b6040518082815260200191505060405180910390f35b61039d6108e0565b604051808273ffffffffffffffffffffffffffffffffffffffff1673ffffffffffffffffffffffffffffffffffffffff16815260200191505060405180910390f35b61042b600480360360408110156103f557600080fd5b81019080803573ffffffffffffffffffffffffffffffffffffffff16906020019092919080359060200190929190505050610905565b005b61048f6004803603604081101561044357600080fd5b81019080803573ffffffffffffffffffffffffffffffffffffffff169060200190929190803573ffffffffffffffffffffffffffffffffffffffff169060200190929190505050610927565b604051808215151515815260200191505060405180910390f35b6104d5600480360360208110156104bf57600080fd5b81019080803590602001909291905050506109bb565b6040518082815260200191505060405180910390f35b61052d6004803603602081101561050157600080fd5b81019080803573ffffffffffffffffffffffffffffffffffffffff169060200190929190505050610ad7565b005b6000809050919050565b600061054482610ba5565b61054d57600080fd5b6003600083815260200190815260200160002060009054906101000a900473ffffffffffffffffffffffffffffffffffffffff169050919050565b6000610593826107e2565b90508073ffffffffffffffffffffffffffffffffffffffff168373ffffffffffffffffffffffffffffffffffffffff1614156105ce57600080fd5b8073ffffffffffffffffffffffffffffffffffffffff163373ffffffffffffffffffffffffffffffffffffffff16148061060e575061060d8133610927565b5b61061757600080fd5b826003600084815260200190815260200160002060006101000a81548173ffffffffffffffffffffffffffffffffffffffff021916908373ffffffffffffffffffffffffffffffffffffffff1602179055507f8c5be1e5ebec7d5bd14f71427d1e84f3dd0314c0f7b2291e5b200ac8c7c3b925818484604051808473ffffffffffffffffffffffffffffffffffffffff1673ffffffffffffffffffffffffffffffffffffffff1681526020018373ffffffffffffffffffffffffffffffffffffffff1673ffffffffffffffffffffffffffffffffffffffff168152602001828152602001935050505060405180910390a1505050565b6000600154905090565b6107213382610c17565b61072a57600080fd5b610735838383610cac565b505050565b6000809054906101000a900473ffffffffffffffffffffffffffffffffffffffff1673ffffffffffffffffffffffffffffffffffffffff163373ffffffffffffffffffffffffffffffffffffffff161461079057fe5b61079a8282610f51565b8173ffffffffffffffffffffffffffffffffffffffff16817f76faac78c1bd4855c459947f27be7ff951d8c735c36285047bfed443882134aa60405160405180910390a35050565b6000806002600084815260200190815260200160002060009054906101000a900473ffffffffffffffffffffffffffffffffffffffff169050600073ffffffffffffffffffffffffffffffffffffffff168173ffffffffffffffffffffffffffffffffffffffff16141561085557600080fd5b80915050919050565b60008073ffffffffffffffffffffffffffffffffffffffff168273ffffffffffffffffffffffffffffffffffffffff16141561089957600080fd5b600460008373ffffffffffffffffffffffffffffffffffffffff1673ffffffffffffffffffffffffffffffffffffffff168152602001908152602001600020549050919050565b6000809054906101000a900473ffffffffffffffffffffffffffffffffffffffff1681565b61090f3382610c17565b61091857600080fd5b610923338383610cac565b5050565b6000600560008473ffffffffffffffffffffffffffffffffffffffff1673ffffffffffffffffffffffffffffffffffffffff16815260200190815260200160002060008373ffffffffffffffffffffffffffffffffffffffff1673ffffffffffffffffffffffffffffffffffffffff16815260200190815260200160002060009054906101000a900460ff16905092915050565b60006103e98214156109ed577d4a52931ce4085c14bdce014a0318846a0c808c60294a6314a34a1295b9ce9050610ad2565b6217baa4821415610a1e577d03809209c1304d002ce2010b250cb95b4a722c4f788e7599ab4059018c849050610ad2565b621358c0821415610a4f577d2a1285bdc328063701444238200123194a66113b01d8e2816f63ce57e87a9050610ad2565b6206ef91821415610a80577d4a58c24ca570c614254a61463084243398d08085388d108661621e963ded9050610ad2565b61014d821415610ab0577d4216b314e61a423421cf00003210c6335c65182631ce7198477a1c96316d9050610ad2565b7d4a16939cc4338637bdcf0140531084631ad00423394a629443721ee72d6e90505b919050565b6000809054906101000a900473ffffffffffffffffffffffffffffffffffffffff1673ffffffffffffffffffffffffffffffffffffffff163373ffffffffffffffffffffffffffffffffffffffff1614610b2d57fe5b600073ffffffffffffffffffffffffffffffffffffffff168173ffffffffffffffffffffffffffffffffffffffff1614610ba257806000806101000a81548173ffffffffffffffffffffffffffffffffffffffff021916908373ffffffffffffffffffffffffffffffffffffffff1602179055505b50565b6000806002600084815260200190815260200160002060009054906101000a900473ffffffffffffffffffffffffffffffffffffffff169050600073ffffffffffffffffffffffffffffffffffffffff168173ffffffffffffffffffffffffffffffffffffffff161415915050919050565b600080610c23836107e2565b90508073ffffffffffffffffffffffffffffffffffffffff168473ffffffffffffffffffffffffffffffffffffffff161480610c9257508373ffffffffffffffffffffffffffffffffffffffff16610c7a84610539565b73ffffffffffffffffffffffffffffffffffffffff16145b80610ca35750610ca28185610927565b5b91505092915050565b8273ffffffffffffffffffffffffffffffffffffffff16610ccc826107e2565b73ffffffffffffffffffffffffffffffffffffffff1614610cec57600080fd5b600073ffffffffffffffffffffffffffffffffffffffff168273ffffffffffffffffffffffffffffffffffffffff161415610d2657600080fd5b610d2f81611145565b610d826001600460008673ffffffffffffffffffffffffffffffffffffffff1673ffffffffffffffffffffffffffffffffffffffff1681526020019081526020016000205461120390919063ffffffff16565b600460008573ffffffffffffffffffffffffffffffffffffffff1673ffffffffffffffffffffffffffffffffffffffff16815260200190815260200160002081905550610e186001600460008573ffffffffffffffffffffffffffffffffffffffff1673ffffffffffffffffffffffffffffffffffffffff1681526020019081526020016000205461121a90919063ffffffff16565b600460008473ffffffffffffffffffffffffffffffffffffffff1673ffffffffffffffffffffffffffffffffffffffff16815260200190815260200160002081905550816002600083815260200190815260200160002060006101000a81548173ffffffffffffffffffffffffffffffffffffffff021916908373ffffffffffffffffffffffffffffffffffffffff1602179055507fddf252ad1be2c89b69c2b068fc378daa952ba7f163c4a11628f55a4df523b3ef838383604051808473ffffffffffffffffffffffffffffffffffffffff1673ffffffffffffffffffffffffffffffffffffffff1681526020018373ffffffffffffffffffffffffffffffffffffffff1673ffffffffffffffffffffffffffffffffffffffff168152602001828152602001935050505060405180910390a1505050565b600073ffffffffffffffffffffffffffffffffffffffff168273ffffffffffffffffffffffffffffffffffffffff161415610f8b57600080fd5b610f9481610ba5565b15610f9e57600080fd5b816002600083815260200190815260200160002060006101000a81548173ffffffffffffffffffffffffffffffffffffffff021916908373ffffffffffffffffffffffffffffffffffffffff1602179055506110436001600460008573ffffffffffffffffffffffffffffffffffffffff1673ffffffffffffffffffffffffffffffffffffffff1681526020019081526020016000205461121a90919063ffffffff16565b600460008473ffffffffffffffffffffffffffffffffffffffff1673ffffffffffffffffffffffffffffffffffffffff1681526020019081526020016000208190555061109b6001805461121a90919063ffffffff16565b6001819055507fddf252ad1be2c89b69c2b068fc378daa952ba7f163c4a11628f55a4df523b3ef60008383604051808473ffffffffffffffffffffffffffffffffffffffff1673ffffffffffffffffffffffffffffffffffffffff1681526020018373ffffffffffffffffffffffffffffffffffffffff1673ffffffffffffffffffffffffffffffffffffffff168152602001828152602001935050505060405180910390a15050565b600073ffffffffffffffffffffffffffffffffffffffff166003600083815260200190815260200160002060009054906101000a900473ffffffffffffffffffffffffffffffffffffffff1673ffffffffffffffffffffffffffffffffffffffff16146112005760006003600083815260200190815260200160002060006101000a81548173ffffffffffffffffffffffffffffffffffffffff021916908373ffffffffffffffffffffffffffffffffffffffff1602179055505b50565b60008282111561120f57fe5b818303905092915050565b60008082840190508381101561122c57fe5b809150509291505056fea265627a7a72315820bff2ec64def65617dc83ed4fdbbfc6b005dfe7cdf67049e2720195a4b2c01b6564736f6c63430005110032",
  "source": "pragma solidity ^0.5.5;\n\nimport \"../interfaces/ERC721.sol\";\nimport \"../interfaces/ERC20Advanced.sol\";\nimport \"../libs/SafeMath.sol\";\nimport \"../authority/Owned.sol\";\n\n\ncontract MockERC721Token is ERC721, Owned {\n  using SafeMath for uint256;\n\n  event KittieMinted(uint indexed kittyId, address indexed owner);\n\n  uint private supply;\n\n  // Mapping from token ID to owner\n  mapping (uint256 => address) private _tokenOwner;\n\n  // Mapping from token ID to approved address\n  mapping (uint256 => address) private _tokenApprovals;\n\n  // Mapping from owner to number of owned token\n  mapping (address => uint256) private _ownedTokensCount;\n\n  // Mapping from owner to operator approvals\n  mapping (address => mapping (address => bool)) private _operatorApprovals;\n\n  function mint(address to, uint256 tokenId) public onlyOwner {\n    _mint(to, tokenId);\n    emit KittieMinted(tokenId, to);\n  }\n\n  function totalSupply() public view returns (uint256) {\n    return supply;\n  }\n\n  function balanceOf(address owner) public view returns (uint256) {\n    require(owner != address(0));\n    return _ownedTokensCount[owner];\n  }\n\n  function ownerOf(uint256 tokenId) public view returns (address) {\n    address owner = _tokenOwner[tokenId];\n    require(owner != address(0));\n    return owner;\n  }\n\n  function supportsInterface(bytes4 _interfaceID) external view returns (bool) {\n    return false;\n  }\n\n  function approve(address to, uint256 tokenId) public {\n    address owner = ownerOf(tokenId);\n    require(to != owner);\n    require(msg.sender == owner || isApprovedForAll(owner, msg.sender));\n\n    _tokenApprovals[tokenId] = to;\n    emit Approval(owner, to, tokenId);\n  }\n\n  function getApproved(uint256 tokenId) public view returns (address) {\n    require(_exists(tokenId));\n    return _tokenApprovals[tokenId];\n  }\n\n  function isApprovedForAll(address owner, address operator) public view returns (bool) {\n    return _operatorApprovals[owner][operator];\n  }\n\n  function transfer(address to, uint256 tokenId) external {\n    require(_isApprovedOrOwner(msg.sender, tokenId));\n\n    _transferFrom(msg.sender, to, tokenId);\n  }\n\n  function transferFrom(address from, address to, uint256 tokenId) external {\n    require(_isApprovedOrOwner(msg.sender, tokenId));\n    _transferFrom(from, to, tokenId);\n  }\n\n  function _exists(uint256 tokenId) internal view returns (bool) {\n    address owner = _tokenOwner[tokenId];\n    return owner != address(0);\n  }\n\n  function _isApprovedOrOwner(address spender, uint256 tokenId) internal view returns (bool) {\n    address owner = ownerOf(tokenId);\n    return (spender == owner || getApproved(tokenId) == spender || isApprovedForAll(owner, spender));\n  }\n\n  function _mint(address to, uint256 tokenId) internal {\n    require(to != address(0));\n    require(!_exists(tokenId));\n\n    _tokenOwner[tokenId] = to;\n    _ownedTokensCount[to] = _ownedTokensCount[to].add(1);\n    supply = supply.add(1);\n\n    emit Transfer(address(0), to, tokenId);\n  }\n\n  function _burn(address owner, uint256 tokenId) internal {\n    require(ownerOf(tokenId) == owner);\n\n    _clearApproval(tokenId);\n\n    _ownedTokensCount[owner]= _ownedTokensCount[owner].sub(1);\n    _tokenOwner[tokenId] = address(0);\n    supply = supply.sub(1);\n\n    emit Transfer(owner, address(0), tokenId);\n  }\n\n  function _burn(uint256 tokenId) internal {\n    _burn(ownerOf(tokenId), tokenId);\n  }\n\n  function _transferFrom(address from, address to, uint256 tokenId) internal {\n    require(ownerOf(tokenId) == from);\n    require(to != address(0));\n\n    _clearApproval(tokenId);\n\n    _ownedTokensCount[from]= _ownedTokensCount[from].sub(1);\n    _ownedTokensCount[to] = _ownedTokensCount[to].add(1);\n\n    _tokenOwner[tokenId] = to;\n\n    emit Transfer(from, to, tokenId);\n  }\n\n  function _clearApproval(uint256 tokenId) private {\n    if (_tokenApprovals[tokenId] != address(0)) {\n      _tokenApprovals[tokenId] = address(0);\n    }\n  }\n\n  function getKitty(uint256 _id)\n        external\n        pure\n        returns (uint256)\n    {\n        if(_id == 1001) return 512955438081049600613224346938352058409509756310147795204209859701881294;\n        if(_id == 1555108) return 24171491821178068054575826800486891805334952029503890331493652557302916;\n        if(_id == 1267904) return 290372710203698797209297887795752417072070342201768110150904359522134138;\n        if(_id == 454545) return 513122167084233935341778471073524505661220812329150746642689453393853933;\n        if(_id == 333) return 456127237212346560521864475286743916398626059323515127575007554868490605;\n        return 511337893886015327651810532254687708359836376674173654352922270547520878; // kittieId 888\n\n    }\n}",
  "sourcePath": "/Users/ziweizhang/Desktop/staking/alpha/contracts/mocks/MockERC721Token.sol",
  "compiler": {
    "name": "solc",
    "version": "0.5.17+commit.d19bba13.Emscripten.clang"
  },
  "schemaVersion": "3.0.23",
  "updatedAt": "2020-04-02T03:13:28.990Z",
  "networkType": "ethereum",
  "devdoc": {
    "methods": {}
  },
  "userdoc": {
    "methods": {}
  }
}