{
  "contractName": "Multisig5of12",
  "abi": [
    {
      "inputs": [],
      "payable": false,
      "stateMutability": "nonpayable",
      "type": "constructor"
    },
    {
      "anonymous": false,
      "inputs": [
        {
          "indexed": true,
          "internalType": "address",
          "name": "signer",
          "type": "address"
        },
        {
          "indexed": true,
          "internalType": "string",
          "name": "organization",
          "type": "string"
        }
      ],
      "name": "ApproveSigner",
      "type": "event"
    },
    {
      "anonymous": false,
      "inputs": [
        {
          "indexed": true,
          "internalType": "address",
          "name": "signer",
          "type": "address"
        },
        {
          "indexed": false,
          "internalType": "uint256",
          "name": "transferNumber",
          "type": "uint256"
        }
      ],
      "name": "ApproveTranser",
      "type": "event"
    },
    {
      "anonymous": false,
      "inputs": [
        {
          "indexed": true,
          "internalType": "address",
          "name": "signer",
          "type": "address"
        }
      ],
      "name": "RemoveSigner",
      "type": "event"
    },
    {
      "anonymous": false,
      "inputs": [
        {
          "indexed": true,
          "internalType": "string",
          "name": "organization",
          "type": "string"
        },
        {
          "indexed": true,
          "internalType": "string",
          "name": "name",
          "type": "string"
        },
        {
          "indexed": true,
          "internalType": "address",
          "name": "signer",
          "type": "address"
        }
      ],
      "name": "Signup",
      "type": "event"
    },
    {
      "constant": true,
      "inputs": [],
      "name": "lastTransferNumber",
      "outputs": [
        {
          "internalType": "uint256",
          "name": "",
          "type": "uint256"
        }
      ],
      "payable": false,
      "stateMutability": "view",
      "type": "function"
    },
    {
      "constant": true,
      "inputs": [],
      "name": "owner",
      "outputs": [
        {
          "internalType": "address payable",
          "name": "",
          "type": "address"
        }
      ],
      "payable": false,
      "stateMutability": "view",
      "type": "function"
    },
    {
      "constant": true,
      "inputs": [],
      "name": "proxy",
      "outputs": [
        {
          "internalType": "contract ProxyBase",
          "name": "",
          "type": "address"
        }
      ],
      "payable": false,
      "stateMutability": "view",
      "type": "function"
    },
    {
      "constant": true,
      "inputs": [],
      "name": "requiredSigExternal",
      "outputs": [
        {
          "internalType": "uint256",
          "name": "",
          "type": "uint256"
        }
      ],
      "payable": false,
      "stateMutability": "view",
      "type": "function"
    },
    {
      "constant": true,
      "inputs": [],
      "name": "requiredSigKittieFight",
      "outputs": [
        {
          "internalType": "uint256",
          "name": "",
          "type": "uint256"
        }
      ],
      "payable": false,
      "stateMutability": "view",
      "type": "function"
    },
    {
      "constant": false,
      "inputs": [
        {
          "internalType": "contract ProxyBase",
          "name": "_proxy",
          "type": "address"
        }
      ],
      "name": "setProxy",
      "outputs": [],
      "payable": false,
      "stateMutability": "nonpayable",
      "type": "function"
    },
    {
      "constant": true,
      "inputs": [],
      "name": "totalRequiredSigs",
      "outputs": [
        {
          "internalType": "uint256",
          "name": "",
          "type": "uint256"
        }
      ],
      "payable": false,
      "stateMutability": "view",
      "type": "function"
    },
    {
      "constant": false,
      "inputs": [
        {
          "internalType": "address payable",
          "name": "newOwner",
          "type": "address"
        }
      ],
      "name": "transferOwnership",
      "outputs": [],
      "payable": false,
      "stateMutability": "nonpayable",
      "type": "function"
    },
    {
      "constant": false,
      "inputs": [
        {
          "internalType": "string",
          "name": "_name",
          "type": "string"
        },
        {
          "internalType": "string",
          "name": "_organization",
          "type": "string"
        }
      ],
      "name": "signup",
      "outputs": [],
      "payable": false,
      "stateMutability": "nonpayable",
      "type": "function"
    },
    {
      "constant": false,
      "inputs": [
        {
          "internalType": "uint256",
          "name": "_transferNum",
          "type": "uint256"
        }
      ],
      "name": "approveTransfer",
      "outputs": [
        {
          "internalType": "bool",
          "name": "",
          "type": "bool"
        }
      ],
      "payable": false,
      "stateMutability": "nonpayable",
      "type": "function"
    },
    {
      "constant": false,
      "inputs": [
        {
          "internalType": "uint256",
          "name": "_requiredSigKittieFight",
          "type": "uint256"
        },
        {
          "internalType": "uint256",
          "name": "_requiredSigExternal",
          "type": "uint256"
        },
        {
          "internalType": "uint256",
          "name": "_totalRequiredSig",
          "type": "uint256"
        }
      ],
      "name": "updateThresholdSig",
      "outputs": [],
      "payable": false,
      "stateMutability": "nonpayable",
      "type": "function"
    },
    {
      "constant": false,
      "inputs": [
        {
          "internalType": "address",
          "name": "_addr",
          "type": "address"
        },
        {
          "internalType": "string",
          "name": "_organization",
          "type": "string"
        }
      ],
      "name": "approveSigner",
      "outputs": [],
      "payable": false,
      "stateMutability": "nonpayable",
      "type": "function"
    },
    {
      "constant": false,
      "inputs": [
        {
          "internalType": "address",
          "name": "_addr",
          "type": "address"
        }
      ],
      "name": "refuteSigner",
      "outputs": [],
      "payable": false,
      "stateMutability": "nonpayable",
      "type": "function"
    },
    {
      "constant": false,
      "inputs": [
        {
          "internalType": "uint256",
          "name": "_newTransferNum",
          "type": "uint256"
        },
        {
          "internalType": "address",
          "name": "_newEscrowAddr",
          "type": "address"
        }
      ],
      "name": "proposeNewTransfer",
      "outputs": [
        {
          "internalType": "bool",
          "name": "",
          "type": "bool"
        }
      ],
      "payable": false,
      "stateMutability": "nonpayable",
      "type": "function"
    },
    {
      "constant": true,
      "inputs": [
        {
          "internalType": "uint256",
          "name": "_transferNum",
          "type": "uint256"
        },
        {
          "internalType": "address",
          "name": "_newEscrow",
          "type": "address"
        }
      ],
      "name": "isTransferApproved",
      "outputs": [
        {
          "internalType": "bool",
          "name": "",
          "type": "bool"
        }
      ],
      "payable": false,
      "stateMutability": "view",
      "type": "function"
    },
    {
      "constant": true,
      "inputs": [
        {
          "internalType": "address",
          "name": "_signer",
          "type": "address"
        },
        {
          "internalType": "uint256",
          "name": "_transferNum",
          "type": "uint256"
        }
      ],
      "name": "isAlreadyApprovedBy",
      "outputs": [
        {
          "internalType": "bool",
          "name": "",
          "type": "bool"
        }
      ],
      "payable": false,
      "stateMutability": "view",
      "type": "function"
    },
    {
      "constant": true,
      "inputs": [
        {
          "internalType": "string",
          "name": "_organization",
          "type": "string"
        }
      ],
      "name": "isKittieFight",
      "outputs": [
        {
          "internalType": "bool",
          "name": "",
          "type": "bool"
        }
      ],
      "payable": false,
      "stateMutability": "pure",
      "type": "function"
    },
    {
      "constant": true,
      "inputs": [],
      "name": "getLastTransfer",
      "outputs": [
        {
          "internalType": "uint256",
          "name": "",
          "type": "uint256"
        },
        {
          "internalType": "address",
          "name": "",
          "type": "address"
        }
      ],
      "payable": false,
      "stateMutability": "view",
      "type": "function"
    },
    {
      "constant": true,
      "inputs": [],
      "name": "getSigners",
      "outputs": [
        {
          "internalType": "address[]",
          "name": "",
          "type": "address[]"
        }
      ],
      "payable": false,
      "stateMutability": "view",
      "type": "function"
    },
    {
      "constant": true,
      "inputs": [],
      "name": "getSignersKittieFight",
      "outputs": [
        {
          "internalType": "address[]",
          "name": "",
          "type": "address[]"
        }
      ],
      "payable": false,
      "stateMutability": "view",
      "type": "function"
    },
    {
      "constant": true,
      "inputs": [],
      "name": "getSignersExternal",
      "outputs": [
        {
          "internalType": "address[]",
          "name": "",
          "type": "address[]"
        }
      ],
      "payable": false,
      "stateMutability": "view",
      "type": "function"
    }
  ],
  "bytecode": "0x608060405234801561001057600080fd5b50336000806101000a81548173ffffffffffffffffffffffffffffffffffffffff021916908373ffffffffffffffffffffffffffffffffffffffff160217905550600360028190555060026003819055506005600481905550612b46806100786000396000f3fe608060405234801561001057600080fd5b50600436106101365760003560e01c806394cf795e116100b8578063c76ec8981161007c578063c76ec89814610751578063cacca4a0146107b7578063d7fe8ab0146107fd578063e075c9f11461084e578063ec556889146108ad578063f2fde38b146108f757610136565b806394cf795e1461060c57806397107d6d1461066b578063aca228e2146106af578063af1e99ff146106cd578063be031ab01461073357610136565b806347e70e64116100ff57806347e70e64146103cc5780635b5b6d2f1461051e5780635d49afa41461056257806382df33f2146105805780638da5cb5b146105c257610136565b80621d39861461013b57806302c6fc2d1461020e578063058631c21461026d578063331b90d5146102d357806346091a6a146102f1575b600080fd5b6101f46004803603602081101561015157600080fd5b810190808035906020019064010000000081111561016e57600080fd5b82018360208201111561018057600080fd5b803590602001918460018302840111640100000000831117156101a257600080fd5b91908080601f016020809104026020016040519081016040528093929190818152602001838380828437600081840152601f19601f82011690508083019250505050505050919291929050505061093b565b604051808215151515815260200191505060405180910390f35b6102166109fe565b6040518080602001828103825283818151815260200191508051906020019060200280838360005b8381101561025957808201518184015260208101905061023e565b505050509050019250505060405180910390f35b6102b96004803603604081101561028357600080fd5b8101908080359060200190929190803573ffffffffffffffffffffffffffffffffffffffff169060200190929190505050610a8c565b604051808215151515815260200191505060405180910390f35b6102db610b49565b6040518082815260200191505060405180910390f35b6103ca6004803603604081101561030757600080fd5b81019080803573ffffffffffffffffffffffffffffffffffffffff1690602001909291908035906020019064010000000081111561034457600080fd5b82018360208201111561035657600080fd5b8035906020019184600183028401116401000000008311171561037857600080fd5b91908080601f016020809104026020016040519081016040528093929190818152602001838380828437600081840152601f19601f820116905080830192505050505050509192919290505050610b4f565b005b61051c600480360360408110156103e257600080fd5b81019080803590602001906401000000008111156103ff57600080fd5b82018360208201111561041157600080fd5b8035906020019184600183028401116401000000008311171561043357600080fd5b91908080601f016020809104026020016040519081016040528093929190818152602001838380828437600081840152601f19601f8201169050808301925050505050505091929192908035906020019064010000000081111561049657600080fd5b8201836020820111156104a857600080fd5b803590602001918460018302840111640100000000831117156104ca57600080fd5b91908080601f016020809104026020016040519081016040528093929190818152602001838380828437600081840152601f19601f820116905080830192505050505050509192919290505050610ed6565b005b6105606004803603602081101561053457600080fd5b81019080803573ffffffffffffffffffffffffffffffffffffffff1690602001909291905050506110ac565b005b61056a611733565b6040518082815260200191505060405180910390f35b6105c06004803603606081101561059657600080fd5b81019080803590602001909291908035906020019092919080359060200190929190505050611739565b005b6105ca61183a565b604051808273ffffffffffffffffffffffffffffffffffffffff1673ffffffffffffffffffffffffffffffffffffffff16815260200191505060405180910390f35b61061461185f565b6040518080602001828103825283818151815260200191508051906020019060200280838360005b8381101561065757808201518184015260208101905061063c565b505050509050019250505060405180910390f35b6106ad6004803603602081101561068157600080fd5b81019080803573ffffffffffffffffffffffffffffffffffffffff1690602001909291905050506118ed565b005b6106b7611987565b6040518082815260200191505060405180910390f35b610719600480360360408110156106e357600080fd5b8101908080359060200190929190803573ffffffffffffffffffffffffffffffffffffffff16906020019092919050505061198d565b604051808215151515815260200191505060405180910390f35b61073b611bd8565b6040518082815260200191505060405180910390f35b61079d6004803603604081101561076757600080fd5b81019080803573ffffffffffffffffffffffffffffffffffffffff16906020019092919080359060200190929190505050611bde565b604051808215151515815260200191505060405180910390f35b6107e3600480360360208110156107cd57600080fd5b8101908080359060200190929190505050611cfa565b604051808215151515815260200191505060405180910390f35b610805612272565b604051808381526020018273ffffffffffffffffffffffffffffffffffffffff1673ffffffffffffffffffffffffffffffffffffffff1681526020019250505060405180910390f35b6108566122bf565b6040518080602001828103825283818151815260200191508051906020019060200280838360005b8381101561089957808201518184015260208101905061087e565b505050509050019250505060405180910390f35b6108b561234d565b604051808273ffffffffffffffffffffffffffffffffffffffff1673ffffffffffffffffffffffffffffffffffffffff16815260200191505060405180910390f35b6109396004803603602081101561090d57600080fd5b81019080803573ffffffffffffffffffffffffffffffffffffffff169060200190929190505050612373565b005b600060405160200180807f6b69747469654669676874000000000000000000000000000000000000000000815250600b01905060405160208183030381529060405280519060200120826040516020018082805190602001908083835b602083106109bb5780518252602082019150602081019050602083039250610998565b6001836020036101000a03801982511681845116808217855250505050505090500191505060405160208183030381529060405280519060200120149050919050565b6060600a805480602002602001604051908101604052809291908181526020018280548015610a8257602002820191906000526020600020905b8160009054906101000a900473ffffffffffffffffffffffffffffffffffffffff1673ffffffffffffffffffffffffffffffffffffffff1681526020019060010190808311610a38575b5050505050905090565b600080831415610a9f5760019050610b43565b6005600084815260200190815260200160002060030160009054906101000a900460ff168015610b3057508173ffffffffffffffffffffffffffffffffffffffff166005600085815260200190815260200160002060030160019054906101000a900473ffffffffffffffffffffffffffffffffffffffff1673ffffffffffffffffffffffffffffffffffffffff16145b15610b3e5760019050610b43565b600090505b92915050565b60045481565b600073ffffffffffffffffffffffffffffffffffffffff163373ffffffffffffffffffffffffffffffffffffffff161415610b8657fe5b610bc46040518060400160405280600b81526020017f73757065725f61646d696e000000000000000000000000000000000000000000815250612441565b610c36576040517f08c379a00000000000000000000000000000000000000000000000000000000081526004018080602001828103825260108152602001807f4f6e6c792073757065722061646d696e0000000000000000000000000000000081525060200191505060405180910390fd5b80600760008473ffffffffffffffffffffffffffffffffffffffff1673ffffffffffffffffffffffffffffffffffffffff1681526020019081526020016000206001019080519060200190610c8c92919061292f565b506001600760008473ffffffffffffffffffffffffffffffffffffffff1673ffffffffffffffffffffffffffffffffffffffff16815260200190815260200160002060020160006101000a81548160ff021916908315150217905550610cf18161093b565b15610d615760098290806001815401808255809150509060018203906000526020600020016000909192909190916101000a81548173ffffffffffffffffffffffffffffffffffffffff021916908373ffffffffffffffffffffffffffffffffffffffff16021790555050610dc8565b600a8290806001815401808255809150509060018203906000526020600020016000909192909190916101000a81548173ffffffffffffffffffffffffffffffffffffffff021916908373ffffffffffffffffffffffffffffffffffffffff160217905550505b60088290806001815401808255809150509060018203906000526020600020016000909192909190916101000a81548173ffffffffffffffffffffffffffffffffffffffff021916908373ffffffffffffffffffffffffffffffffffffffff16021790555050806040518082805190602001908083835b60208310610e625780518252602082019150602081019050602083039250610e3f565b6001836020036101000a03801982511681845116808217855250505050505090500191505060405180910390208273ffffffffffffffffffffffffffffffffffffffff167ffd6d7cf1f8ee58f9a528e6f626c886542cbdcdc5331a7d9eedb19344ac3127df60405160405180910390a35050565b610ede6126bd565b6000610ee8612847565b9050610ef26129af565b83816000018190525082816020018190525080600760008473ffffffffffffffffffffffffffffffffffffffff1673ffffffffffffffffffffffffffffffffffffffff1681526020019081526020016000206000820151816000019080519060200190610f609291906129d2565b506020820151816001019080519060200190610f7d9291906129d2565b5060408201518160020160006101000a81548160ff0219169083151502179055509050508173ffffffffffffffffffffffffffffffffffffffff16846040518082805190602001908083835b60208310610fec5780518252602082019150602081019050602083039250610fc9565b6001836020036101000a0380198251168184511680821785525050505050509050019150506040518091039020846040518082805190602001908083835b6020831061104d578051825260208201915060208101905060208303925061102a565b6001836020036101000a03801982511681845116808217855250505050505090500191505060405180910390207fb3f14246d6aee781de0ca1868d3d4e23c5f22762b4a6334bdb396d474506fb3960405160405180910390a450505050565b600073ffffffffffffffffffffffffffffffffffffffff163373ffffffffffffffffffffffffffffffffffffffff1614156110e357fe5b6111216040518060400160405280600b81526020017f73757065725f61646d696e000000000000000000000000000000000000000000815250612441565b611193576040517f08c379a00000000000000000000000000000000000000000000000000000000081526004018080602001828103825260108152602001807f4f6e6c792073757065722061646d696e0000000000000000000000000000000081525060200191505060405180910390fd5b6000600760008373ffffffffffffffffffffffffffffffffffffffff1673ffffffffffffffffffffffffffffffffffffffff16815260200190815260200160002060020160006101000a81548160ff0219169083151502179055506060600760008373ffffffffffffffffffffffffffffffffffffffff1673ffffffffffffffffffffffffffffffffffffffff1681526020019081526020016000206001018054600181600116156101000203166002900480601f0160208091040260200160405190810160405280929190818152602001828054600181600116156101000203166002900480156112c65780601f1061129b576101008083540402835291602001916112c6565b820191906000526020600020905b8154815290600101906020018083116112a957829003601f168201915b505050505090506112d68161093b565b156114395760008090505b60098054905081101561140c578273ffffffffffffffffffffffffffffffffffffffff166009828154811061131257fe5b9060005260206000200160009054906101000a900473ffffffffffffffffffffffffffffffffffffffff1673ffffffffffffffffffffffffffffffffffffffff1614156113ff57600961137460016009805490506128fc90919063ffffffff16565b8154811061137e57fe5b9060005260206000200160009054906101000a900473ffffffffffffffffffffffffffffffffffffffff16600982815481106113b657fe5b9060005260206000200160006101000a81548173ffffffffffffffffffffffffffffffffffffffff021916908373ffffffffffffffffffffffffffffffffffffffff1602179055505b80806001019150506112e1565b5061142660016009805490506128fc90919063ffffffff16565b6009816114339190612a52565b50611593565b60008090505b600a8054905081101561156a578273ffffffffffffffffffffffffffffffffffffffff16600a828154811061147057fe5b9060005260206000200160009054906101000a900473ffffffffffffffffffffffffffffffffffffffff1673ffffffffffffffffffffffffffffffffffffffff16141561155d57600a6114d26001600a805490506128fc90919063ffffffff16565b815481106114dc57fe5b9060005260206000200160009054906101000a900473ffffffffffffffffffffffffffffffffffffffff16600a828154811061151457fe5b9060005260206000200160006101000a81548173ffffffffffffffffffffffffffffffffffffffff021916908373ffffffffffffffffffffffffffffffffffffffff1602179055505b808060010191505061143f565b506115846001600a805490506128fc90919063ffffffff16565b600a816115919190612a52565b505b60008090505b6008805490508110156116c4578273ffffffffffffffffffffffffffffffffffffffff16600882815481106115ca57fe5b9060005260206000200160009054906101000a900473ffffffffffffffffffffffffffffffffffffffff1673ffffffffffffffffffffffffffffffffffffffff1614156116b757600861162c60016008805490506128fc90919063ffffffff16565b8154811061163657fe5b9060005260206000200160009054906101000a900473ffffffffffffffffffffffffffffffffffffffff166008828154811061166e57fe5b9060005260206000200160006101000a81548173ffffffffffffffffffffffffffffffffffffffff021916908373ffffffffffffffffffffffffffffffffffffffff1602179055505b8080600101915050611599565b506116de60016008805490506128fc90919063ffffffff16565b6008816116eb9190612a52565b508173ffffffffffffffffffffffffffffffffffffffff167f1803740ef72fc16e647c10fe2d31cf61a1578081960c2e3fb7f5aa957e82f55060405160405180910390a25050565b60025481565b600073ffffffffffffffffffffffffffffffffffffffff163373ffffffffffffffffffffffffffffffffffffffff16141561177057fe5b6117ae6040518060400160405280600b81526020017f73757065725f61646d696e000000000000000000000000000000000000000000815250612441565b611820576040517f08c379a00000000000000000000000000000000000000000000000000000000081526004018080602001828103825260108152602001807f4f6e6c792073757065722061646d696e0000000000000000000000000000000081525060200191505060405180910390fd5b826002819055508160038190555080600481905550505050565b6000809054906101000a900473ffffffffffffffffffffffffffffffffffffffff1681565b606060088054806020026020016040519081016040528092919081815260200182805480156118e357602002820191906000526020600020905b8160009054906101000a900473ffffffffffffffffffffffffffffffffffffffff1673ffffffffffffffffffffffffffffffffffffffff1681526020019060010190808311611899575b5050505050905090565b6000809054906101000a900473ffffffffffffffffffffffffffffffffffffffff1673ffffffffffffffffffffffffffffffffffffffff163373ffffffffffffffffffffffffffffffffffffffff161461194357fe5b80600160006101000a81548173ffffffffffffffffffffffffffffffffffffffff021916908373ffffffffffffffffffffffffffffffffffffffff16021790555050565b60035481565b60008073ffffffffffffffffffffffffffffffffffffffff163373ffffffffffffffffffffffffffffffffffffffff1614156119c557fe5b611a036040518060400160405280600b81526020017f73757065725f61646d696e000000000000000000000000000000000000000000815250612441565b611a75576040517f08c379a00000000000000000000000000000000000000000000000000000000081526004018080602001828103825260108152602001807f4f6e6c792073757065722061646d696e0000000000000000000000000000000081525060200191505060405180910390fd5b600073ffffffffffffffffffffffffffffffffffffffff168273ffffffffffffffffffffffffffffffffffffffff161415611b18576040517f08c379a000000000000000000000000000000000000000000000000000000000815260040180806020018281038252601e8152602001807f4e657720657363726f772063616e6e6f7420626520616464726573732030000081525060200191505060405180910390fd5b600b548311611b72576040517f08c379a000000000000000000000000000000000000000000000000000000000815260040180806020018281038252603f815260200180612ad3603f913960400191505060405180910390fd5b816005600085815260200190815260200160002060030160016101000a81548173ffffffffffffffffffffffffffffffffffffffff021916908373ffffffffffffffffffffffffffffffffffffffff16021790555082600b819055506001905092915050565b600b5481565b6000606060056000848152602001908152602001600020600401805480602002602001604051908101604052809291908181526020018280548015611c7857602002820191906000526020600020905b8160009054906101000a900473ffffffffffffffffffffffffffffffffffffffff1673ffffffffffffffffffffffffffffffffffffffff1681526020019060010190808311611c2e575b5050505050905060008090505b8151811015611ced578473ffffffffffffffffffffffffffffffffffffffff16828281518110611cb157fe5b602002602001015173ffffffffffffffffffffffffffffffffffffffff161415611ce057600192505050611cf4565b8080600101915050611c85565b5060009150505b92915050565b6000611d046126bd565b6000611d0e612847565b905060011515600760008373ffffffffffffffffffffffffffffffffffffffff1673ffffffffffffffffffffffffffffffffffffffff16815260200190815260200160002060020160009054906101000a900460ff16151514611dd9576040517f08c379a00000000000000000000000000000000000000000000000000000000081526004018080602001828103825260168152602001807f4e6f7420616e20617070726f766564207369676e65720000000000000000000081525060200191505060405180910390fd5b611de38184611bde565b15611e39576040517f08c379a000000000000000000000000000000000000000000000000000000000815260040180806020018281038252602f815260200180612aa4602f913960400191505060405180910390fd5b600073ffffffffffffffffffffffffffffffffffffffff166005600085815260200190815260200160002060030160019054906101000a900473ffffffffffffffffffffffffffffffffffffffff1673ffffffffffffffffffffffffffffffffffffffff161415611f12576040517f08c379a00000000000000000000000000000000000000000000000000000000081526004018080602001828103825260178152602001807f496e76616c6964207472616e73666572206e756d62657200000000000000000081525060200191505060405180910390fd5b600560008481526020019081526020016000206004018190806001815401808255809150509060018203906000526020600020016000909192909190916101000a81548173ffffffffffffffffffffffffffffffffffffffff021916908373ffffffffffffffffffffffffffffffffffffffff16021790555050611fb66001600560008681526020019081526020016000206000015461291390919063ffffffff16565b60056000858152602001908152602001600020600001819055506120b3600760008373ffffffffffffffffffffffffffffffffffffffff1673ffffffffffffffffffffffffffffffffffffffff1681526020019081526020016000206001018054600181600116156101000203166002900480601f0160208091040260200160405190810160405280929190818152602001828054600181600116156101000203166002900480156120a95780601f1061207e576101008083540402835291602001916120a9565b820191906000526020600020905b81548152906001019060200180831161208c57829003601f168201915b505050505061093b565b15612101576120e26001600560008681526020019081526020016000206001015461291390919063ffffffff16565b6005600085815260200190815260200160002060010181905550612146565b61212b6001600560008681526020019081526020016000206002015461291390919063ffffffff16565b60056000858152602001908152602001600020600201819055505b6002546005600085815260200190815260200160002060010154101580156121865750600354600560008581526020019081526020016000206002015410155b80156121b95750600015156005600085815260200190815260200160002060030160009054906101000a900460ff161515145b1561221a5760016005600085815260200190815260200160002060030160006101000a81548160ff02191690831515021790555060068390806001815401808255809150509060018203906000526020600020016000909192909190915055505b8073ffffffffffffffffffffffffffffffffffffffff167f2680ad24171afd174fd6a7ca9068b2f4f497462842e55dc74600845dfda86743846040518082815260200191505060405180910390a26001915050919050565b600080600060056000600b54815260200190815260200160002060030160019054906101000a900473ffffffffffffffffffffffffffffffffffffffff169050600b548192509250509091565b6060600980548060200260200160405190810160405280929190818152602001828054801561234357602002820191906000526020600020905b8160009054906101000a900473ffffffffffffffffffffffffffffffffffffffff1673ffffffffffffffffffffffffffffffffffffffff16815260200190600101908083116122f9575b5050505050905090565b600160009054906101000a900473ffffffffffffffffffffffffffffffffffffffff1681565b6000809054906101000a900473ffffffffffffffffffffffffffffffffffffffff1673ffffffffffffffffffffffffffffffffffffffff163373ffffffffffffffffffffffffffffffffffffffff16146123c957fe5b600073ffffffffffffffffffffffffffffffffffffffff168173ffffffffffffffffffffffffffffffffffffffff161461243e57806000806101000a81548173ffffffffffffffffffffffffffffffffffffffff021916908373ffffffffffffffffffffffffffffffffffffffff1602179055505b50565b6000600160009054906101000a900473ffffffffffffffffffffffffffffffffffffffff1673ffffffffffffffffffffffffffffffffffffffff1663358177736040518060400160405280600681526020017f526f6c65444200000000000000000000000000000000000000000000000000008152506040518263ffffffff1660e01b81526004018080602001828103825283818151815260200191508051906020019080838360005b838110156125065780820151818401526020810190506124eb565b50505050905090810190601f1680156125335780820380516001836020036101000a031916815260200191505b509250505060206040518083038186803b15801561255057600080fd5b505afa158015612564573d6000803e3d6000fd5b505050506040513d602081101561257a57600080fd5b810190808051906020019092919050505073ffffffffffffffffffffffffffffffffffffffff16636c9cd097836125af612847565b6040518363ffffffff1660e01b815260040180806020018373ffffffffffffffffffffffffffffffffffffffff1673ffffffffffffffffffffffffffffffffffffffff168152602001828103825284818151815260200191508051906020019080838360005b83811015612630578082015181840152602081019050612615565b50505050905090810190601f16801561265d5780820380516001836020036101000a031916815260200191505b50935050505060206040518083038186803b15801561267b57600080fd5b505afa15801561268f573d6000803e3d6000fd5b505050506040513d60208110156126a557600080fd5b81019080805190602001909291905050509050919050565b600073ffffffffffffffffffffffffffffffffffffffff16600160009054906101000a900473ffffffffffffffffffffffffffffffffffffffff1673ffffffffffffffffffffffffffffffffffffffff161415612782576040517f08c379a00000000000000000000000000000000000000000000000000000000081526004018080602001828103825260088152602001807f4e6f2050726f787900000000000000000000000000000000000000000000000081525060200191505060405180910390fd5b600160009054906101000a900473ffffffffffffffffffffffffffffffffffffffff1673ffffffffffffffffffffffffffffffffffffffff163373ffffffffffffffffffffffffffffffffffffffff1614612845576040517f08c379a00000000000000000000000000000000000000000000000000000000081526004018080602001828103825260128152602001807f4f6e6c79207468726f7567682050726f7879000000000000000000000000000081525060200191505060405180910390fd5b565b6000600160009054906101000a900473ffffffffffffffffffffffffffffffffffffffff1673ffffffffffffffffffffffffffffffffffffffff163373ffffffffffffffffffffffffffffffffffffffff16146128a6573390506128f9565b6000601436036000602052601481602c37602051915050600073ffffffffffffffffffffffffffffffffffffffff168173ffffffffffffffffffffffffffffffffffffffff1614156128f457fe5b809150505b90565b60008282111561290857fe5b818303905092915050565b60008082840190508381101561292557fe5b8091505092915050565b828054600181600116156101000203166002900490600052602060002090601f016020900481019282601f1061297057805160ff191683800117855561299e565b8280016001018555821561299e579182015b8281111561299d578251825591602001919060010190612982565b5b5090506129ab9190612a7e565b5090565b604051806060016040528060608152602001606081526020016000151581525090565b828054600181600116156101000203166002900490600052602060002090601f016020900481019282601f10612a1357805160ff1916838001178555612a41565b82800160010185558215612a41579182015b82811115612a40578251825591602001919060010190612a25565b5b509050612a4e9190612a7e565b5090565b815481835581811115612a7957818360005260206000209182019101612a789190612a7e565b5b505050565b612aa091905b80821115612a9c576000816000905550600101612a84565b5090565b9056fe43616e6e6f7420617070726f7665207468652073616d65207472616e73666572206d6f7265207468616e206f6e63655472616e73666572206e756d6265722073686f756c642062652067726561746572207468616e2070726576696f7573207472616e73666572206e756d626572a265627a7a72315820be6f00db6cb8eea18abed5c250d4da0783f8be70b5d69000d01655fa2ec9b44864736f6c63430005110032",
  "source": "pragma solidity ^0.5.5;\n\n/**\n * @title MultiSig Contract\n * @dev  simulating 5 0f 12 multi-sig distributing trust externally.\n *       3 required signatures from KittieFIGHT\n *       2 required signatures from external organizations\n */\n\nimport \"../proxy/Proxied.sol\";\nimport \"../../authority/Guard.sol\";\nimport \"../../libs/SafeMath.sol\";\n\ncontract Multisig5of12 is Proxied, Guard {\n    using SafeMath for uint256;\n\n    uint256 public requiredSigKittieFight;\n    uint256 public requiredSigExternal;\n    uint256 public totalRequiredSigs;\n\n    // transfers information\n    struct Transfer {\n        //uint256 transferNumber;\n        uint256 approvalCount;\n        uint256 kittieFightSignatures;\n        uint256 externalSignatures;\n        bool transferApproved;\n        address newEscrow;\n        address[] approvedBy;\n    }\n\n    // map the transferNumber to a transfer\n    mapping(uint256 => Transfer) transfers;\n\n    // a list of all signedTransfers with referrence to transferNumber\n    uint256[] signedTransfers;\n\n    struct Signer {\n        //address addr;\n        string name;\n        string organization;\n        bool approved;\n    }\n\n    mapping(address => Signer) signers;\n\n    // a list of all approved signers\n    address[] allSigners;\n    // a list of all approved kittieFight signers\n    address[] allKittieFightSigners;\n    // a list of all approved external signers\n    address[] allExternalSigners;\n\n    // last transfer number\n    uint256 public lastTransferNumber;\n\n    constructor() public {\n        requiredSigKittieFight = 3;\n        requiredSigExternal = 2;\n        totalRequiredSigs = 5;\n    }\n\n    event Signup(\n        string indexed organization,\n        string indexed name,\n        address indexed signer\n    );\n    event ApproveTranser(address indexed signer, uint256 transferNumber);\n    event ApproveSigner(address indexed signer, string indexed organization);\n    event RemoveSigner(address indexed signer);\n\n    function signup(string memory _name, string memory _organization)\n        public\n        onlyProxy\n    {\n        address msgSender = getOriginalSender();\n        Signer memory signer;\n        signer.name = _name;\n        signer.organization = _organization;\n        signers[msgSender] = signer;\n        emit Signup(_organization, _name, msgSender);\n    }\n\n    function approveTransfer(uint256 _transferNum)\n        public\n        onlyProxy\n        returns (bool)\n    {\n        address msgSender = getOriginalSender();\n        require(signers[msgSender].approved == true, \"Not an approved signer\");\n        require(!isAlreadyApprovedBy(msgSender, _transferNum), \"Cannot approve the same transfer more than once\");\n        require(transfers[_transferNum].newEscrow != address(0), \"Invalid transfer number\");\n        transfers[_transferNum].approvedBy.push(msgSender);\n        transfers[_transferNum].approvalCount = transfers[_transferNum].approvalCount.add(1);\n\n        if (isKittieFight(signers[msgSender].organization)) {\n            transfers[_transferNum].kittieFightSignatures = transfers[_transferNum].kittieFightSignatures.add(1);\n        } else {\n            transfers[_transferNum].externalSignatures = transfers[_transferNum].externalSignatures.add(1);\n        }\n\n        if (\n            transfers[_transferNum].kittieFightSignatures >= requiredSigKittieFight &&\n            transfers[_transferNum].externalSignatures >= requiredSigExternal &&\n            transfers[_transferNum].transferApproved == false\n        ) {\n            transfers[_transferNum].transferApproved = true;\n            signedTransfers.push(_transferNum);\n        }\n\n        emit ApproveTranser(msgSender, _transferNum);\n        return true;\n    }\n\n    function updateThresholdSig(\n        uint256 _requiredSigKittieFight,\n        uint256 _requiredSigExternal,\n        uint256 _totalRequiredSig\n    ) public onlySuperAdmin {\n        requiredSigKittieFight = _requiredSigKittieFight;\n        requiredSigExternal = _requiredSigExternal;\n        totalRequiredSigs = _totalRequiredSig;\n    }\n\n    function approveSigner(address _addr, string memory _organization)\n        public\n        onlySuperAdmin\n    {\n        signers[_addr].organization = _organization;\n        signers[_addr].approved = true;\n\n        if (isKittieFight(_organization)) {\n            allKittieFightSigners.push(_addr);\n        } else {\n            allExternalSigners.push(_addr);\n        }\n\n        allSigners.push(_addr);\n\n        emit ApproveSigner(_addr, _organization);\n    }\n\n    function refuteSigner(address _addr) public onlySuperAdmin {\n        signers[_addr].approved = false;\n        string memory _organization = signers[_addr].organization;\n        if (isKittieFight(_organization)) {\n            for (uint256 i = 0; i < allKittieFightSigners.length; i++) {\n                if (allKittieFightSigners[i] == _addr) {\n                    allKittieFightSigners[i] = allKittieFightSigners[allKittieFightSigners.length.sub(1)];\n                }\n            }\n            allKittieFightSigners.length = allKittieFightSigners.length.sub(1);\n        } else {\n            for (uint256 i = 0; i < allExternalSigners.length; i++) {\n                if (allExternalSigners[i] == _addr) {\n                    allExternalSigners[i] = allExternalSigners[allExternalSigners.length.sub(1)];\n                }\n            }\n            allExternalSigners.length = allExternalSigners.length.sub(1);\n        }\n        for (uint256 i = 0; i < allSigners.length; i++) {\n            if (allSigners[i] == _addr) {\n                allSigners[i] = allSigners[allSigners.length.sub(1)];\n            }\n        }\n        allSigners.length = allSigners.length.sub(1);\n\n        emit RemoveSigner(_addr);\n    }\n\n    function proposeNewTransfer(uint256 _newTransferNum, address _newEscrowAddr)\n        public\n        onlySuperAdmin\n        returns (bool)\n    {\n        require(_newEscrowAddr != address(0), \"New escrow cannot be address 0\");\n        require(_newTransferNum > lastTransferNumber, \"Transfer number should be greater than previous transfer number\");\n        transfers[_newTransferNum].newEscrow = _newEscrowAddr;\n        lastTransferNumber = _newTransferNum;\n        return true;\n    }\n\n    // return true if transfer is approved\n    function isTransferApproved(uint256 _transferNum, address _newEscrow)\n        public\n        view\n        returns (bool)\n    {\n        // for the initial deployement of escrow\n        if (_transferNum == 0) {\n            return true;\n        }\n\n        if (transfers[_transferNum].transferApproved && transfers[_transferNum].newEscrow == _newEscrow) {\n            return true;\n        }\n\n        return false;\n    }\n\n    // return true if the signer has already approved this transfer\n    function isAlreadyApprovedBy(address _signer, uint256 _transferNum) public view returns (bool) {\n        address[] memory _approvedBy = transfers[_transferNum].approvedBy;\n        for (uint256 i = 0; i < _approvedBy.length; i++) {\n            if (_approvedBy[i] == _signer) {\n                return true;\n            }\n        }\n        return false;\n    }\n\n    // return true if _organization is kittieFight\n    function isKittieFight(string memory _organization)\n        public\n        pure\n        returns (bool)\n    {\n        return\n            keccak256(abi.encodePacked(_organization)) ==\n            keccak256(abi.encodePacked(\"kittieFight\"));\n    }\n\n    // return the last transfer number and new escrow address associated with this transfer number\n    function getLastTransfer() public view returns (uint256, address) {\n        address newEscrow = transfers[lastTransferNumber].newEscrow;\n        return (lastTransferNumber, newEscrow);\n    }\n\n    // get a list of all approved signger\n    function getSigners() public view returns (address[] memory) {\n        return allSigners;\n    }\n\n    // get a list of all approved kittieFight signers\n    function getSignersKittieFight() public view returns (address[] memory) {\n        return allKittieFightSigners;\n    }\n\n    // return a list of all approved external signers\n    function getSignersExternal() public view returns (address[] memory) {\n        return allExternalSigners;\n    }\n}\n",
  "sourcePath": "/Users/ziweizhang/Desktop/Test/contracts/contracts/modules/endowment/Multisig5of12.sol",
  "compiler": {
    "name": "solc",
    "version": "0.5.17+commit.d19bba13.Emscripten.clang"
  },
  "schemaVersion": "3.0.23",
  "updatedAt": "2020-07-10T19:57:25.917Z",
  "networkType": "ethereum",
  "devdoc": {
    "methods": {}
  },
  "userdoc": {
    "methods": {
      "setProxy(address)": {
        "notice": "Set/update address of Proxy contract"
      }
    }
  }
}