{
  "contractName": "ProfileDB",
  "abi": [
    {
      "inputs": [
        {
          "internalType": "contract GenericDB",
          "name": "_genericDB",
          "type": "address"
        }
      ],
      "payable": false,
      "stateMutability": "nonpayable",
      "type": "constructor"
    },
    {
      "constant": true,
      "inputs": [],
      "name": "genericDB",
      "outputs": [
        {
          "internalType": "contract GenericDB",
          "name": "",
          "type": "address"
        }
      ],
      "payable": false,
      "stateMutability": "view",
      "type": "function"
    },
    {
      "constant": true,
      "inputs": [],
      "name": "owner",
      "outputs": [
        {
          "internalType": "address payable",
          "name": "",
          "type": "address"
        }
      ],
      "payable": false,
      "stateMutability": "view",
      "type": "function"
    },
    {
      "constant": true,
      "inputs": [],
      "name": "proxy",
      "outputs": [
        {
          "internalType": "contract ProxyBase",
          "name": "",
          "type": "address"
        }
      ],
      "payable": false,
      "stateMutability": "view",
      "type": "function"
    },
    {
      "constant": false,
      "inputs": [
        {
          "internalType": "contract ProxyBase",
          "name": "_proxy",
          "type": "address"
        }
      ],
      "name": "setProxy",
      "outputs": [],
      "payable": false,
      "stateMutability": "nonpayable",
      "type": "function"
    },
    {
      "constant": false,
      "inputs": [
        {
          "internalType": "address payable",
          "name": "newOwner",
          "type": "address"
        }
      ],
      "name": "transferOwnership",
      "outputs": [],
      "payable": false,
      "stateMutability": "nonpayable",
      "type": "function"
    },
    {
      "constant": false,
      "inputs": [
        {
          "internalType": "contract GenericDB",
          "name": "_genericDB",
          "type": "address"
        }
      ],
      "name": "setGenericDB",
      "outputs": [],
      "payable": false,
      "stateMutability": "nonpayable",
      "type": "function"
    },
    {
      "constant": false,
      "inputs": [
        {
          "internalType": "address",
          "name": "account",
          "type": "address"
        }
      ],
      "name": "create",
      "outputs": [],
      "payable": false,
      "stateMutability": "nonpayable",
      "type": "function"
    },
    {
      "constant": false,
      "inputs": [
        {
          "internalType": "address",
          "name": "account",
          "type": "address"
        },
        {
          "internalType": "uint256",
          "name": "civicId",
          "type": "uint256"
        }
      ],
      "name": "setCivicId",
      "outputs": [],
      "payable": false,
      "stateMutability": "nonpayable",
      "type": "function"
    },
    {
      "constant": false,
      "inputs": [
        {
          "internalType": "address",
          "name": "account",
          "type": "address"
        },
        {
          "internalType": "uint256",
          "name": "superDAOTokens",
          "type": "uint256"
        },
        {
          "internalType": "bool",
          "name": "isStakingSuperDAO",
          "type": "bool"
        }
      ],
      "name": "setSuperDAOTokens",
      "outputs": [],
      "payable": false,
      "stateMutability": "nonpayable",
      "type": "function"
    },
    {
      "constant": false,
      "inputs": [
        {
          "internalType": "address",
          "name": "account",
          "type": "address"
        },
        {
          "internalType": "uint256",
          "name": "kittieFightTokens",
          "type": "uint256"
        }
      ],
      "name": "setKittieFightTokens",
      "outputs": [],
      "payable": false,
      "stateMutability": "nonpayable",
      "type": "function"
    },
    {
      "constant": true,
      "inputs": [
        {
          "internalType": "address",
          "name": "account",
          "type": "address"
        },
        {
          "internalType": "uint256",
          "name": "kittieId",
          "type": "uint256"
        }
      ],
      "name": "getKittieAttributes",
      "outputs": [
        {
          "internalType": "uint256",
          "name": "gene",
          "type": "uint256"
        },
        {
          "internalType": "uint256",
          "name": "deadAt",
          "type": "uint256"
        },
        {
          "internalType": "string",
          "name": "status",
          "type": "string"
        }
      ],
      "payable": false,
      "stateMutability": "view",
      "type": "function"
    },
    {
      "constant": true,
      "inputs": [
        {
          "internalType": "address",
          "name": "account",
          "type": "address"
        }
      ],
      "name": "getCivicId",
      "outputs": [
        {
          "internalType": "uint256",
          "name": "",
          "type": "uint256"
        }
      ],
      "payable": false,
      "stateMutability": "view",
      "type": "function"
    },
    {
      "constant": true,
      "inputs": [
        {
          "internalType": "address",
          "name": "account",
          "type": "address"
        }
      ],
      "name": "getKittieFightTokens",
      "outputs": [
        {
          "internalType": "uint256",
          "name": "amount",
          "type": "uint256"
        }
      ],
      "payable": false,
      "stateMutability": "view",
      "type": "function"
    },
    {
      "constant": true,
      "inputs": [
        {
          "internalType": "address",
          "name": "account",
          "type": "address"
        }
      ],
      "name": "doesProfileExist",
      "outputs": [
        {
          "internalType": "bool",
          "name": "",
          "type": "bool"
        }
      ],
      "payable": false,
      "stateMutability": "view",
      "type": "function"
    },
    {
      "constant": true,
      "inputs": [
        {
          "internalType": "address",
          "name": "account",
          "type": "address"
        }
      ],
      "name": "getKittieCount",
      "outputs": [
        {
          "internalType": "uint256",
          "name": "",
          "type": "uint256"
        }
      ],
      "payable": false,
      "stateMutability": "view",
      "type": "function"
    },
    {
      "constant": true,
      "inputs": [
        {
          "internalType": "address",
          "name": "account",
          "type": "address"
        },
        {
          "internalType": "uint256",
          "name": "kittieId",
          "type": "uint256"
        }
      ],
      "name": "doesKittieExist",
      "outputs": [
        {
          "internalType": "bool",
          "name": "",
          "type": "bool"
        }
      ],
      "payable": false,
      "stateMutability": "view",
      "type": "function"
    }
  ],
  "bytecode": "0x60806040523480156200001157600080fd5b506040516200330938038062003309833981810160405260208110156200003757600080fd5b8101908080519060200190929190505050336000806101000a81548173ffffffffffffffffffffffffffffffffffffffff021916908373ffffffffffffffffffffffffffffffffffffffff1602179055506200009981620000a060201b60201c565b506200013b565b6000809054906101000a900473ffffffffffffffffffffffffffffffffffffffff1673ffffffffffffffffffffffffffffffffffffffff163373ffffffffffffffffffffffffffffffffffffffff1614620000f757fe5b80600260006101000a81548173ffffffffffffffffffffffffffffffffffffffff021916908373ffffffffffffffffffffffffffffffffffffffff16021790555050565b6131be806200014b6000396000f3fe608060405234801561001057600080fd5b50600436106101005760003560e01c80638da5cb5b11610097578063c65afe0811610066578063c65afe081461053a578063ec55688914610594578063f2fde38b146105de578063f9d916701461062257610100565b80638da5cb5b1461041057806397107d6d1461045a5780639ed933181461049e578063a984d640146104e257610100565b806352a102ca116100d357806352a102ca1461022f5780635b40b48a1461028b5780638906278d146102e35780638c4e281f1461033b57610100565b8063190824dc146101055780631eac29ea146101535780633564e78c146101a15780634afab815146101eb575b600080fd5b6101516004803603604081101561011b57600080fd5b81019080803573ffffffffffffffffffffffffffffffffffffffff16906020019092919080359060200190929190505050610688565b005b61019f6004803603604081101561016957600080fd5b81019080803573ffffffffffffffffffffffffffffffffffffffff16906020019092919080359060200190929190505050610d58565b005b6101a9611038565b604051808273ffffffffffffffffffffffffffffffffffffffff1673ffffffffffffffffffffffffffffffffffffffff16815260200191505060405180910390f35b61022d6004803603602081101561020157600080fd5b81019080803573ffffffffffffffffffffffffffffffffffffffff16906020019092919050505061105e565b005b6102716004803603602081101561024557600080fd5b81019080803573ffffffffffffffffffffffffffffffffffffffff1690602001909291905050506110f8565b604051808215151515815260200191505060405180910390f35b6102cd600480360360208110156102a157600080fd5b81019080803573ffffffffffffffffffffffffffffffffffffffff1690602001909291905050506112cb565b6040518082815260200191505060405180910390f35b610325600480360360208110156102f957600080fd5b81019080803573ffffffffffffffffffffffffffffffffffffffff169060200190929190505050611589565b6040518082815260200191505060405180910390f35b6103876004803603604081101561035157600080fd5b81019080803573ffffffffffffffffffffffffffffffffffffffff169060200190929190803590602001909291905050506117bf565b6040518084815260200183815260200180602001828103825283818151815260200191508051906020019080838360005b838110156103d35780820151818401526020810190506103b8565b50505050905090810190601f1680156104005780820380516001836020036101000a031916815260200191505b5094505050505060405180910390f35b610418612174565b604051808273ffffffffffffffffffffffffffffffffffffffff1673ffffffffffffffffffffffffffffffffffffffff16815260200191505060405180910390f35b61049c6004803603602081101561047057600080fd5b81019080803573ffffffffffffffffffffffffffffffffffffffff169060200190929190505050612199565b005b6104e0600480360360208110156104b457600080fd5b81019080803573ffffffffffffffffffffffffffffffffffffffff169060200190929190505050612233565b005b610524600480360360208110156104f857600080fd5b81019080803573ffffffffffffffffffffffffffffffffffffffff16906020019092919050505061251f565b6040518082815260200191505060405180910390f35b6105926004803603606081101561055057600080fd5b81019080803573ffffffffffffffffffffffffffffffffffffffff169060200190929190803590602001909291908035151590602001909291905050506126f5565b005b61059c612b8e565b604051808273ffffffffffffffffffffffffffffffffffffffff1673ffffffffffffffffffffffffffffffffffffffff16815260200191505060405180910390f35b610620600480360360208110156105f457600080fd5b81019080803573ffffffffffffffffffffffffffffffffffffffff169060200190929190505050612bb4565b005b61066e6004803603604081101561063857600080fd5b81019080803573ffffffffffffffffffffffffffffffffffffffff16906020019092919080359060200190929190505050612c82565b604051808215151515815260200191505060405180910390f35b6040518060400160405280600881526020017f52656769737465720000000000000000000000000000000000000000000000008152506106c781612ec1565b826106d1816110f8565b6040518060400160405280601281526020017f50726f66696c65206e6f74206578697374730000000000000000000000000000815250906107ad576040517f08c379a00000000000000000000000000000000000000000000000000000000081526004018080602001828103825283818151815260200191508051906020019080838360005b83811015610772578082015181840152602081019050610757565b50505050905090810190601f16801561079f5780820380516001836020036101000a031916815260200191505b509250505060405180910390fd5b50600073ffffffffffffffffffffffffffffffffffffffff16600260009054906101000a900473ffffffffffffffffffffffffffffffffffffffff1673ffffffffffffffffffffffffffffffffffffffff1663b93a5b5e6040518060400160405280600981526020017f50726f66696c65444200000000000000000000000000000000000000000000008152508660405160200180807f636976696349645461626c650000000000000000000000000000000000000000815250600c01828152602001915050604051602081830303815290604052805190602001206040518363ffffffff1660e01b81526004018080602001838152602001828103825284818151815260200191508051906020019080838360005b838110156108de5780820151818401526020810190506108c3565b50505050905090810190601f16801561090b5780820380516001836020036101000a031916815260200191505b50935050505060206040518083038186803b15801561092957600080fd5b505afa15801561093d573d6000803e3d6000fd5b505050506040513d602081101561095357600080fd5b810190808051906020019092919050505073ffffffffffffffffffffffffffffffffffffffff16146109ed576040517f08c379a00000000000000000000000000000000000000000000000000000000081526004018080602001828103825260178152602001807f436976696320696420616c726561647920696e2075736500000000000000000081525060200191505060405180910390fd5b600260009054906101000a900473ffffffffffffffffffffffffffffffffffffffff1673ffffffffffffffffffffffffffffffffffffffff1663866d59fe6040518060400160405280600981526020017f50726f66696c65444200000000000000000000000000000000000000000000008152508560405160200180807f636976696349645461626c650000000000000000000000000000000000000000815250600c0182815260200191505060405160208183030381529060405280519060200120876040518463ffffffff1660e01b815260040180806020018481526020018373ffffffffffffffffffffffffffffffffffffffff1673ffffffffffffffffffffffffffffffffffffffff168152602001828103825285818151815260200191508051906020019080838360005b83811015610b38578082015181840152602081019050610b1d565b50505050905090810190601f168015610b655780820380516001836020036101000a031916815260200191505b50945050505050600060405180830381600087803b158015610b8657600080fd5b505af1158015610b9a573d6000803e3d6000fd5b50505050600260009054906101000a900473ffffffffffffffffffffffffffffffffffffffff1673ffffffffffffffffffffffffffffffffffffffff16630214a37c6040518060400160405280600981526020017f50726f66696c654442000000000000000000000000000000000000000000000081525086604051602001808273ffffffffffffffffffffffffffffffffffffffff1673ffffffffffffffffffffffffffffffffffffffff1660601b8152601401807f636976696349640000000000000000000000000000000000000000000000000081525060070191505060405160208183030381529060405280519060200120866040518463ffffffff1660e01b81526004018080602001848152602001838152602001828103825285818151815260200191508051906020019080838360005b83811015610cec578082015181840152602081019050610cd1565b50505050905090810190601f168015610d195780820380516001836020036101000a031916815260200191505b50945050505050600060405180830381600087803b158015610d3a57600080fd5b505af1158015610d4e573d6000803e3d6000fd5b5050505050505050565b6040518060400160405280600881526020017f5265676973746572000000000000000000000000000000000000000000000000815250610d9781612ec1565b82610da1816110f8565b6040518060400160405280601281526020017f50726f66696c65206e6f7420657869737473000000000000000000000000000081525090610e7d576040517f08c379a00000000000000000000000000000000000000000000000000000000081526004018080602001828103825283818151815260200191508051906020019080838360005b83811015610e42578082015181840152602081019050610e27565b50505050905090810190601f168015610e6f5780820380516001836020036101000a031916815260200191505b509250505060405180910390fd5b50600260009054906101000a900473ffffffffffffffffffffffffffffffffffffffff1673ffffffffffffffffffffffffffffffffffffffff16630214a37c6040518060400160405280600981526020017f50726f66696c654442000000000000000000000000000000000000000000000081525086604051602001808273ffffffffffffffffffffffffffffffffffffffff1673ffffffffffffffffffffffffffffffffffffffff1660601b8152601401807f6b69747469654669676874546f6b656e7300000000000000000000000000000081525060110191505060405160208183030381529060405280519060200120866040518463ffffffff1660e01b81526004018080602001848152602001838152602001828103825285818151815260200191508051906020019080838360005b83811015610fcc578082015181840152602081019050610fb1565b50505050905090810190601f168015610ff95780820380516001836020036101000a031916815260200191505b50945050505050600060405180830381600087803b15801561101a57600080fd5b505af115801561102e573d6000803e3d6000fd5b5050505050505050565b600260009054906101000a900473ffffffffffffffffffffffffffffffffffffffff1681565b6000809054906101000a900473ffffffffffffffffffffffffffffffffffffffff1673ffffffffffffffffffffffffffffffffffffffff163373ffffffffffffffffffffffffffffffffffffffff16146110b457fe5b80600260006101000a81548173ffffffffffffffffffffffffffffffffffffffff021916908373ffffffffffffffffffffffffffffffffffffffff16021790555050565b6000600260009054906101000a900473ffffffffffffffffffffffffffffffffffffffff1673ffffffffffffffffffffffffffffffffffffffff16638445d70f6040518060400160405280600981526020017f50726f66696c654442000000000000000000000000000000000000000000000081525060405160200180807f50726f66696c655461626c650000000000000000000000000000000000000000815250600c01905060405160208183030381529060405280519060200120856040518463ffffffff1660e01b815260040180806020018481526020018373ffffffffffffffffffffffffffffffffffffffff1673ffffffffffffffffffffffffffffffffffffffff168152602001828103825285818151815260200191508051906020019080838360005b8381101561123d578082015181840152602081019050611222565b50505050905090810190601f16801561126a5780820380516001836020036101000a031916815260200191505b5094505050505060206040518083038186803b15801561128957600080fd5b505afa15801561129d573d6000803e3d6000fd5b505050506040513d60208110156112b357600080fd5b81019080805190602001909291905050509050919050565b6000816112d7816110f8565b6040518060400160405280601281526020017f50726f66696c65206e6f74206578697374730000000000000000000000000000815250906113b3576040517f08c379a00000000000000000000000000000000000000000000000000000000081526004018080602001828103825283818151815260200191508051906020019080838360005b8381101561137857808201518184015260208101905061135d565b50505050905090810190601f1680156113a55780820380516001836020036101000a031916815260200191505b509250505060405180910390fd5b50600260009054906101000a900473ffffffffffffffffffffffffffffffffffffffff1673ffffffffffffffffffffffffffffffffffffffff166308acb5566040518060400160405280600981526020017f50726f66696c654442000000000000000000000000000000000000000000000081525085604051602001808273ffffffffffffffffffffffffffffffffffffffff1673ffffffffffffffffffffffffffffffffffffffff1660601b8152601401807f6b69747469654669676874546f6b656e73000000000000000000000000000000815250601101915050604051602081830303815290604052805190602001206040518363ffffffff1660e01b81526004018080602001838152602001828103825284818151815260200191508051906020019080838360005b838110156114fb5780820151818401526020810190506114e0565b50505050905090810190601f1680156115285780820380516001836020036101000a031916815260200191505b50935050505060206040518083038186803b15801561154657600080fd5b505afa15801561155a573d6000803e3d6000fd5b505050506040513d602081101561157057600080fd5b8101908080519060200190929190505050915050919050565b6000600260009054906101000a900473ffffffffffffffffffffffffffffffffffffffff1673ffffffffffffffffffffffffffffffffffffffff1663c7db8da26040518060400160405280600981526020017f50726f66696c6544420000000000000000000000000000000000000000000000815250846040518060400160405280600b81526020017f4b69747469655461626c65000000000000000000000000000000000000000000815250604051602001808373ffffffffffffffffffffffffffffffffffffffff1673ffffffffffffffffffffffffffffffffffffffff1660601b815260140182805190602001908083835b602083106116a1578051825260208201915060208101905060208303925061167e565b6001836020036101000a03801982511681845116808217855250505050505090500192505050604051602081830303815290604052805190602001206040518363ffffffff1660e01b81526004018080602001838152602001828103825284818151815260200191508051906020019080838360005b83811015611732578082015181840152602081019050611717565b50505050905090810190601f16801561175f5780820380516001836020036101000a031916815260200191505b50935050505060206040518083038186803b15801561177d57600080fd5b505afa158015611791573d6000803e3d6000fd5b505050506040513d60208110156117a757600080fd5b81019080805190602001909291905050509050919050565b60008060606040518060400160405280600881526020017f526567697374657200000000000000000000000000000000000000000000000081525061180381612ec1565b8561180d816110f8565b6040518060400160405280601281526020017f50726f66696c65206e6f74206578697374730000000000000000000000000000815250906118e9576040517f08c379a00000000000000000000000000000000000000000000000000000000081526004018080602001828103825283818151815260200191508051906020019080838360005b838110156118ae578082015181840152602081019050611893565b50505050905090810190601f1680156118db5780820380516001836020036101000a031916815260200191505b509250505060405180910390fd5b50600260009054906101000a900473ffffffffffffffffffffffffffffffffffffffff1673ffffffffffffffffffffffffffffffffffffffff166396edc0096040518060400160405280600981526020017f50726f66696c6544420000000000000000000000000000000000000000000000815250896040518060400160405280600b81526020017f4b69747469655461626c65000000000000000000000000000000000000000000815250604051602001808373ffffffffffffffffffffffffffffffffffffffff1673ffffffffffffffffffffffffffffffffffffffff1660601b815260140182805190602001908083835b60208310611a0057805182526020820191506020810190506020830392506119dd565b6001836020036101000a0380198251168184511680821785525050505050509050019250505060405160208183030381529060405280519060200120896040518463ffffffff1660e01b81526004018080602001848152602001838152602001828103825285818151815260200191508051906020019080838360005b83811015611a98578082015181840152602081019050611a7d565b50505050905090810190601f168015611ac55780820380516001836020036101000a031916815260200191505b5094505050505060206040518083038186803b158015611ae457600080fd5b505afa158015611af8573d6000803e3d6000fd5b505050506040513d6020811015611b0e57600080fd5b8101908080519060200190929190505050611b2857600080fd5b600260009054906101000a900473ffffffffffffffffffffffffffffffffffffffff1673ffffffffffffffffffffffffffffffffffffffff166308acb5566040518060400160405280600981526020017f50726f66696c65444200000000000000000000000000000000000000000000008152508989604051602001808373ffffffffffffffffffffffffffffffffffffffff1673ffffffffffffffffffffffffffffffffffffffff1660601b8152601401828152602001807f67656e650000000000000000000000000000000000000000000000000000000081525060040192505050604051602081830303815290604052805190602001206040518363ffffffff1660e01b81526004018080602001838152602001828103825284818151815260200191508051906020019080838360005b83811015611c77578082015181840152602081019050611c5c565b50505050905090810190601f168015611ca45780820380516001836020036101000a031916815260200191505b50935050505060206040518083038186803b158015611cc257600080fd5b505afa158015611cd6573d6000803e3d6000fd5b505050506040513d6020811015611cec57600080fd5b81019080805190602001909291905050509450600260009054906101000a900473ffffffffffffffffffffffffffffffffffffffff1673ffffffffffffffffffffffffffffffffffffffff166308acb5566040518060400160405280600981526020017f50726f66696c65444200000000000000000000000000000000000000000000008152508989604051602001808373ffffffffffffffffffffffffffffffffffffffff1673ffffffffffffffffffffffffffffffffffffffff1660601b8152601401828152602001807f646561644174000000000000000000000000000000000000000000000000000081525060060192505050604051602081830303815290604052805190602001206040518363ffffffff1660e01b81526004018080602001838152602001828103825284818151815260200191508051906020019080838360005b83811015611e4e578082015181840152602081019050611e33565b50505050905090810190601f168015611e7b5780820380516001836020036101000a031916815260200191505b50935050505060206040518083038186803b158015611e9957600080fd5b505afa158015611ead573d6000803e3d6000fd5b505050506040513d6020811015611ec357600080fd5b81019080805190602001909291905050509350600260009054906101000a900473ffffffffffffffffffffffffffffffffffffffff1673ffffffffffffffffffffffffffffffffffffffff16631a84fbb86040518060400160405280600981526020017f50726f66696c65444200000000000000000000000000000000000000000000008152508989604051602001808373ffffffffffffffffffffffffffffffffffffffff1673ffffffffffffffffffffffffffffffffffffffff1660601b8152601401828152602001807f6b69747469655374617475730000000000000000000000000000000000000000815250600c0192505050604051602081830303815290604052805190602001206040518363ffffffff1660e01b81526004018080602001838152602001828103825284818151815260200191508051906020019080838360005b8381101561202557808201518184015260208101905061200a565b50505050905090810190601f1680156120525780820380516001836020036101000a031916815260200191505b50935050505060006040518083038186803b15801561207057600080fd5b505afa158015612084573d6000803e3d6000fd5b505050506040513d6000823e3d601f19601f8201168201806040525060208110156120ae57600080fd5b81019080805160405193929190846401000000008211156120ce57600080fd5b838201915060208201858111156120e457600080fd5b825186600182028301116401000000008211171561210157600080fd5b8083526020830192505050908051906020019080838360005b8381101561213557808201518184015260208101905061211a565b50505050905090810190601f1680156121625780820380516001836020036101000a031916815260200191505b50604052505050925050509250925092565b6000809054906101000a900473ffffffffffffffffffffffffffffffffffffffff1681565b6000809054906101000a900473ffffffffffffffffffffffffffffffffffffffff1673ffffffffffffffffffffffffffffffffffffffff163373ffffffffffffffffffffffffffffffffffffffff16146121ef57fe5b80600160006101000a81548173ffffffffffffffffffffffffffffffffffffffff021916908373ffffffffffffffffffffffffffffffffffffffff16021790555050565b6040518060400160405280600881526020017f526567697374657200000000000000000000000000000000000000000000000081525061227281612ec1565b600260009054906101000a900473ffffffffffffffffffffffffffffffffffffffff1673ffffffffffffffffffffffffffffffffffffffff166396bf56806040518060400160405280600981526020017f50726f66696c654442000000000000000000000000000000000000000000000081525060405160200180807f50726f66696c655461626c650000000000000000000000000000000000000000815250600c01905060405160208183030381529060405280519060200120856040518463ffffffff1660e01b815260040180806020018481526020018373ffffffffffffffffffffffffffffffffffffffff1673ffffffffffffffffffffffffffffffffffffffff168152602001828103825285818151815260200191508051906020019080838360005b838110156123b557808201518184015260208101905061239a565b50505050905090810190601f1680156123e25780820380516001836020036101000a031916815260200191505b50945050505050602060405180830381600087803b15801561240357600080fd5b505af1158015612417573d6000803e3d6000fd5b505050506040513d602081101561242d57600080fd5b81019080805190602001909291905050506040518060400160405280601681526020017f50726f66696c6520616c726561647920657869737473000000000000000000008152509061251a576040517f08c379a00000000000000000000000000000000000000000000000000000000081526004018080602001828103825283818151815260200191508051906020019080838360005b838110156124df5780820151818401526020810190506124c4565b50505050905090810190601f16801561250c5780820380516001836020036101000a031916815260200191505b509250505060405180910390fd5b505050565b6000600260009054906101000a900473ffffffffffffffffffffffffffffffffffffffff1673ffffffffffffffffffffffffffffffffffffffff166308acb5566040518060400160405280600981526020017f50726f66696c654442000000000000000000000000000000000000000000000081525084604051602001808273ffffffffffffffffffffffffffffffffffffffff1673ffffffffffffffffffffffffffffffffffffffff1660601b8152601401807f6369766963496400000000000000000000000000000000000000000000000000815250600701915050604051602081830303815290604052805190602001206040518363ffffffff1660e01b81526004018080602001838152602001828103825284818151815260200191508051906020019080838360005b8381101561266857808201518184015260208101905061264d565b50505050905090810190601f1680156126955780820380516001836020036101000a031916815260200191505b50935050505060206040518083038186803b1580156126b357600080fd5b505afa1580156126c7573d6000803e3d6000fd5b505050506040513d60208110156126dd57600080fd5b81019080805190602001909291905050509050919050565b6040518060400160405280600881526020017f526567697374657200000000000000000000000000000000000000000000000081525061273481612ec1565b8361273e816110f8565b6040518060400160405280601281526020017f50726f66696c65206e6f742065786973747300000000000000000000000000008152509061281a576040517f08c379a00000000000000000000000000000000000000000000000000000000081526004018080602001828103825283818151815260200191508051906020019080838360005b838110156127df5780820151818401526020810190506127c4565b50505050905090810190601f16801561280c5780820380516001836020036101000a031916815260200191505b509250505060405180910390fd5b50600260009054906101000a900473ffffffffffffffffffffffffffffffffffffffff1673ffffffffffffffffffffffffffffffffffffffff16630214a37c6040518060400160405280600981526020017f50726f66696c654442000000000000000000000000000000000000000000000081525087604051602001808273ffffffffffffffffffffffffffffffffffffffff1673ffffffffffffffffffffffffffffffffffffffff1660601b8152601401807f737570657244414f546f6b656e73000000000000000000000000000000000000815250600e0191505060405160208183030381529060405280519060200120876040518463ffffffff1660e01b81526004018080602001848152602001838152602001828103825285818151815260200191508051906020019080838360005b8381101561296957808201518184015260208101905061294e565b50505050905090810190601f1680156129965780820380516001836020036101000a031916815260200191505b50945050505050600060405180830381600087803b1580156129b757600080fd5b505af11580156129cb573d6000803e3d6000fd5b50505050600260009054906101000a900473ffffffffffffffffffffffffffffffffffffffff1673ffffffffffffffffffffffffffffffffffffffff1663cb30ffe76040518060400160405280600981526020017f50726f66696c654442000000000000000000000000000000000000000000000081525087604051602001808273ffffffffffffffffffffffffffffffffffffffff1673ffffffffffffffffffffffffffffffffffffffff1660601b8152601401807f69735374616b696e67537570657244414f00000000000000000000000000000081525060110191505060405160208183030381529060405280519060200120866040518463ffffffff1660e01b8152600401808060200184815260200183151515158152602001828103825285818151815260200191508051906020019080838360005b83811015612b21578082015181840152602081019050612b06565b50505050905090810190601f168015612b4e5780820380516001836020036101000a031916815260200191505b50945050505050600060405180830381600087803b158015612b6f57600080fd5b505af1158015612b83573d6000803e3d6000fd5b505050505050505050565b600160009054906101000a900473ffffffffffffffffffffffffffffffffffffffff1681565b6000809054906101000a900473ffffffffffffffffffffffffffffffffffffffff1673ffffffffffffffffffffffffffffffffffffffff163373ffffffffffffffffffffffffffffffffffffffff1614612c0a57fe5b600073ffffffffffffffffffffffffffffffffffffffff168173ffffffffffffffffffffffffffffffffffffffff1614612c7f57806000806101000a81548173ffffffffffffffffffffffffffffffffffffffff021916908373ffffffffffffffffffffffffffffffffffffffff1602179055505b50565b6000600260009054906101000a900473ffffffffffffffffffffffffffffffffffffffff1673ffffffffffffffffffffffffffffffffffffffff166396edc0096040518060400160405280600981526020017f50726f66696c6544420000000000000000000000000000000000000000000000815250856040518060400160405280600b81526020017f4b69747469655461626c65000000000000000000000000000000000000000000815250604051602001808373ffffffffffffffffffffffffffffffffffffffff1673ffffffffffffffffffffffffffffffffffffffff1660601b815260140182805190602001908083835b60208310612d9a5780518252602082019150602081019050602083039250612d77565b6001836020036101000a0380198251168184511680821785525050505050509050019250505060405160208183030381529060405280519060200120856040518463ffffffff1660e01b81526004018080602001848152602001838152602001828103825285818151815260200191508051906020019080838360005b83811015612e32578082015181840152602081019050612e17565b50505050905090810190601f168015612e5f5780820380516001836020036101000a031916815260200191505b5094505050505060206040518083038186803b158015612e7e57600080fd5b505afa158015612e92573d6000803e3d6000fd5b505050506040513d6020811015612ea857600080fd5b8101908080519060200190929190505050905092915050565b600073ffffffffffffffffffffffffffffffffffffffff16600160009054906101000a900473ffffffffffffffffffffffffffffffffffffffff1673ffffffffffffffffffffffffffffffffffffffff161415612f86576040517f08c379a00000000000000000000000000000000000000000000000000000000081526004018080602001828103825260088152602001807f4e6f2050726f787900000000000000000000000000000000000000000000000081525060200191505060405180910390fd5b6000600160009054906101000a900473ffffffffffffffffffffffffffffffffffffffff1673ffffffffffffffffffffffffffffffffffffffff166335817773836040518263ffffffff1660e01b81526004018080602001828103825283818151815260200191508051906020019080838360005b83811015613016578082015181840152602081019050612ffb565b50505050905090810190601f1680156130435780820380516001836020036101000a031916815260200191505b509250505060206040518083038186803b15801561306057600080fd5b505afa158015613074573d6000803e3d6000fd5b505050506040513d602081101561308a57600080fd5b81019080805190602001909291905050509050600073ffffffffffffffffffffffffffffffffffffffff168173ffffffffffffffffffffffffffffffffffffffff1614156130d457fe5b8073ffffffffffffffffffffffffffffffffffffffff163373ffffffffffffffffffffffffffffffffffffffff1614613158576040517f08c379a000000000000000000000000000000000000000000000000000000000815260040180806020018281038252602d81526020018061315d602d913960400191505060405180910390fd5b505056fe416363657373206973206f6e6c7920616c6c6f7765642066726f6d20737065636966696320636f6e7472616374a265627a7a72315820c417222530e91253cba0cd6c0595ecc10cb9a3531be9494419f8ffbf8f59914264736f6c63430005110032",
  "source": "// This program is free software: you can redistribute it and/or modify\n// it under the terms of the GNU General Public License as published by\n// the Free Software Foundation, either version 3 of the License, or\n// (at your option) any later version.\n\n// This program is distributed in the hope that it will be useful,\n// but WITHOUT ANY WARRANTY; without even the implied warranty of\n// MERCHANTABILITY or FITNESS FOR A PARTICULAR PURPOSE.  See the\n// GNU General Public License for more details.\n\n// You should have received a copy of the GNU General Public License\n// along with this program.  If not, see <http://www.gnu.org/licenses/>.\npragma solidity ^0.5.5;\n\nimport \"../proxy/Proxied.sol\";\nimport \"./GenericDB.sol\";\nimport \"../../libs/SafeMath.sol\";\n\n\n/**\n * @title ProfileDB\n * @author @psychoplasma\n */\ncontract ProfileDB is Proxied {\n  using SafeMath for uint256;\n\n  GenericDB public genericDB;\n\n  bytes32 internal constant TABLE_KEY_PROFILE = keccak256(abi.encodePacked(\"ProfileTable\"));\n  string internal constant TABLE_NAME_KITTIE = \"KittieTable\";\n  string internal constant ERROR_ALREADY_EXIST = \"Profile already exists\";\n  string internal constant ERROR_DOES_NOT_EXIST = \"Profile not exists\";\n\n  modifier onlyExistentProfile(address account) {\n    require(doesProfileExist(account), ERROR_DOES_NOT_EXIST);\n    _;\n  }\n\n  constructor(GenericDB _genericDB) public {\n    setGenericDB(_genericDB);\n  }\n\n  function setGenericDB(GenericDB _genericDB) public onlyOwner {\n    genericDB = _genericDB;\n  }\n\n  function create(address account)\n    external onlyContract(CONTRACT_NAME_REGISTER)\n  {\n    // Creates a linked list with the given keys, if it does not exist\n    // And push the new profile pointer to the list\n    require(genericDB.pushNodeToLinkedListAddr(CONTRACT_NAME_PROFILE_DB, TABLE_KEY_PROFILE, account), ERROR_ALREADY_EXIST);\n  }\n\n  function setCivicId(address account, uint256 civicId)\n    external\n    onlyContract(CONTRACT_NAME_REGISTER)\n    onlyExistentProfile(account)\n  {\n    // Check if the provided civic id is registered under another account\n    require(\n      genericDB.getAddressStorage(CONTRACT_NAME_PROFILE_DB, keccak256(abi.encodePacked(\"civicIdTable\", civicId))) == address(0),\n      \"Civic id already in use\"\n    );\n    // Save the civic id with the given account in a table\n    genericDB.setAddressStorage(CONTRACT_NAME_PROFILE_DB, keccak256(abi.encodePacked(\"civicIdTable\", civicId)), account);\n    // Save the civic id under the given account as well\n    genericDB.setUintStorage(CONTRACT_NAME_PROFILE_DB, keccak256(abi.encodePacked(account, \"civicId\")), civicId);\n  }\n\n  // // FIXME: Stale function\n  // function setKittieAttributes(\n  //   address account,\n  //   uint256 kittieId,\n  //   uint256 deadAt,\n  //   uint256 gene,\n  //   string calldata kittieStatus\n  // )\n  //   external\n  //   onlyContract(CONTRACT_NAME_REGISTER)\n  //   onlyExistentProfile(account)\n  // {\n  //   // Check if kittie exists under this account\n  //   require(genericDB.doesNodeExist(CONTRACT_NAME_PROFILE_DB, keccak256(abi.encodePacked(account, TABLE_NAME_KITTIE)), kittieId));\n  //   genericDB.setUintStorage(CONTRACT_NAME_PROFILE_DB, keccak256(abi.encodePacked(account, kittieId, \"gene\")), gene);\n  //   genericDB.setUintStorage(CONTRACT_NAME_PROFILE_DB, keccak256(abi.encodePacked(account, kittieId, \"deadAt\")), deadAt);\n  //   genericDB.setStringStorage(CONTRACT_NAME_PROFILE_DB, keccak256(abi.encodePacked(account, kittieId, \"kittieStatus\")), kittieStatus);\n  // }\n\n  // // FIXME: Stale function\n  // function addKittie(\n  //   address account,\n  //   uint256 kittieId,\n  //   uint256 deadAt,\n  //   uint256 gene,\n  //   string calldata kittieStatus\n  // )\n  //   external\n  //   onlyContract(CONTRACT_NAME_REGISTER)\n  //   onlyExistentProfile(account)\n  // {\n  //   // Check if kittie exists or not under this account\n  //   // If it does not, add it to kittie table under this account\n  //   require(genericDB.pushNodeToLinkedList(CONTRACT_NAME_PROFILE_DB, keccak256(abi.encodePacked(account, TABLE_NAME_KITTIE)), kittieId));\n  //   // Set that kittie's attributes\n  //   genericDB.setUintStorage(CONTRACT_NAME_PROFILE_DB, keccak256(abi.encodePacked(account, kittieId, \"gene\")), gene);\n  //   genericDB.setUintStorage(CONTRACT_NAME_PROFILE_DB, keccak256(abi.encodePacked(account, kittieId, \"deadAt\")), deadAt);\n  //   genericDB.setStringStorage(CONTRACT_NAME_PROFILE_DB, keccak256(abi.encodePacked(account, kittieId, \"kittieStatus\")), kittieStatus);\n  // }\n\n  // // FIXME: Stale function\n  // function removeKittie(\n  //   address account,\n  //   uint256 kittieId\n  // )\n  //   external\n  //   onlyContract(CONTRACT_NAME_REGISTER)\n  //   onlyExistentProfile(account)\n  // {\n  //   // Check if kittie exists under this account\n  //   // If it exists, remove the kittie from kittie table under this account\n  //   require(genericDB.removeNodeFromLinkedList(CONTRACT_NAME_PROFILE_DB, keccak256(abi.encodePacked(account, TABLE_NAME_KITTIE)), kittieId));\n  // }\n\n  // // FIXME: Stale function\n  // function setGamingAttributes(\n  //   address account,\n  //   uint256 totalWins,\n  //   uint256 totalLosses,\n  //   uint256 tokensWon,\n  //   uint256 lastFeeDate,\n  //   uint256 feeHistory,\n  //   bool isFreeToPlay\n  // )\n  //   external\n  //   onlyContract(CONTRACT_NAME_REGISTER)\n  //   onlyExistentProfile(account)\n  // {\n  //   genericDB.setUintStorage(CONTRACT_NAME_PROFILE_DB, keccak256(abi.encodePacked(account, \"totalWins\")), totalWins);\n  //   genericDB.setUintStorage(CONTRACT_NAME_PROFILE_DB, keccak256(abi.encodePacked(account, \"totalLosses\")), totalLosses);\n  //   genericDB.setUintStorage(CONTRACT_NAME_PROFILE_DB, keccak256(abi.encodePacked(account, \"tokensWon\")), tokensWon);\n  //   genericDB.setUintStorage(CONTRACT_NAME_PROFILE_DB, keccak256(abi.encodePacked(account, \"lastFeeDate\")), lastFeeDate);\n  //   genericDB.setUintStorage(CONTRACT_NAME_PROFILE_DB, keccak256(abi.encodePacked(account, \"feeHistory\")), feeHistory);\n  //   genericDB.setBoolStorage(CONTRACT_NAME_PROFILE_DB, keccak256(abi.encodePacked(account, \"isFreeToPlay\")), isFreeToPlay);\n  // }\n\n  // // FIXME: Stale function\n  // function setFightingAttributes(\n  //   address account,\n  //   uint256 totalFights,\n  //   uint256 nextFight,\n  //   uint256 listingStart,\n  //   uint256 listingEnd\n  // )\n  //   external\n  //   onlyContract(CONTRACT_NAME_REGISTER)\n  //   onlyExistentProfile(account)\n  // {\n  //   genericDB.setUintStorage(CONTRACT_NAME_PROFILE_DB, keccak256(abi.encodePacked(account, \"totalFights\")), totalFights);\n  //   genericDB.setUintStorage(CONTRACT_NAME_PROFILE_DB, keccak256(abi.encodePacked(account, \"nextFight\")), nextFight);\n  //   genericDB.setUintStorage(CONTRACT_NAME_PROFILE_DB, keccak256(abi.encodePacked(account, \"listingStart\")), listingStart);\n  //   genericDB.setUintStorage(CONTRACT_NAME_PROFILE_DB, keccak256(abi.encodePacked(account, \"listingEnd\")), listingEnd);\n  // }\n\n  // // FIXME: Stale function\n  // function setFeeAttributes(\n  //   address account,\n  //   uint256 feeType,\n  //   uint256 paidDate,\n  //   uint256 expirationDate,\n  //   bool isPaid\n  // )\n  //   external\n  //   onlyContract(CONTRACT_NAME_REGISTER)\n  //   onlyExistentProfile(account)\n  // {\n  //   genericDB.setUintStorage(CONTRACT_NAME_PROFILE_DB, keccak256(abi.encodePacked(account, \"feeType\")), feeType);\n  //   genericDB.setUintStorage(CONTRACT_NAME_PROFILE_DB, keccak256(abi.encodePacked(account, \"paidDate\")), paidDate);\n  //   genericDB.setUintStorage(CONTRACT_NAME_PROFILE_DB, keccak256(abi.encodePacked(account, \"expirationDate\")), expirationDate);\n  //   genericDB.setBoolStorage(CONTRACT_NAME_PROFILE_DB, keccak256(abi.encodePacked(account, \"isPaid\")), isPaid);\n  // }\n\n  function setSuperDAOTokens(\n    address account,\n    uint256 superDAOTokens,\n    bool isStakingSuperDAO\n  )\n    external\n    onlyContract(CONTRACT_NAME_REGISTER)\n    onlyExistentProfile(account)\n  {\n    genericDB.setUintStorage(CONTRACT_NAME_PROFILE_DB, keccak256(abi.encodePacked(account, \"superDAOTokens\")), superDAOTokens);\n    genericDB.setBoolStorage(CONTRACT_NAME_PROFILE_DB, keccak256(abi.encodePacked(account, \"isStakingSuperDAO\")), isStakingSuperDAO);\n  }\n\n  function setKittieFightTokens(\n    address account,\n    uint256 kittieFightTokens\n  )\n    external\n    onlyContract(CONTRACT_NAME_REGISTER)\n    onlyExistentProfile(account)\n  {\n    genericDB.setUintStorage(CONTRACT_NAME_PROFILE_DB, keccak256(abi.encodePacked(account, \"kittieFightTokens\")), kittieFightTokens);\n  }\n\n  function getKittieAttributes(address account, uint256 kittieId)\n    public view\n    onlyContract(CONTRACT_NAME_REGISTER)\n    onlyExistentProfile(account)\n    returns (uint256 gene, uint256 deadAt, string memory status)\n  {\n    require(genericDB.doesNodeExist(CONTRACT_NAME_PROFILE_DB, keccak256(abi.encodePacked(account, TABLE_NAME_KITTIE)), kittieId));\n    gene = genericDB.getUintStorage(CONTRACT_NAME_PROFILE_DB, keccak256(abi.encodePacked(account, kittieId, \"gene\")));\n    deadAt = genericDB.getUintStorage(CONTRACT_NAME_PROFILE_DB, keccak256(abi.encodePacked(account, kittieId, \"deadAt\")));\n    status = genericDB.getStringStorage(CONTRACT_NAME_PROFILE_DB, keccak256(abi.encodePacked(account, kittieId, \"kittieStatus\")));\n  }\n\n\n  function getCivicId(address account)\n    public view\n    returns (uint256)\n  {\n    return genericDB.getUintStorage(CONTRACT_NAME_PROFILE_DB, keccak256(abi.encodePacked(account, \"civicId\")));\n  }\n\n  function getKittieFightTokens(address account)\n    public\n    onlyExistentProfile(account)\n    view returns (uint256 amount)\n  {\n    amount = genericDB.getUintStorage(CONTRACT_NAME_PROFILE_DB, keccak256(abi.encodePacked(account, \"kittieFightTokens\")));\n  }\n\n  function doesProfileExist(address account) public view returns (bool) {\n    return genericDB.doesNodeAddrExist(CONTRACT_NAME_PROFILE_DB, TABLE_KEY_PROFILE, account);\n  }\n\n  // function getKitties(address account) public view returns (uint256[] memory) {\n  //   return genericDB.getAll(\n  //     CONTRACT_NAME_PROFILE_DB,\n  //     keccak256(abi.encodePacked(account, TABLE_NAME_KITTIE))\n  //   );\n  // }\n\n  function getKittieCount(address account) public view returns (uint256) {\n    return genericDB.getLinkedListSize(\n      CONTRACT_NAME_PROFILE_DB,\n      keccak256(abi.encodePacked(account, TABLE_NAME_KITTIE))\n    );\n  }\n\n  function doesKittieExist(address account, uint256 kittieId) public view returns (bool) {\n    return genericDB.doesNodeExist(CONTRACT_NAME_PROFILE_DB, keccak256(abi.encodePacked(account, TABLE_NAME_KITTIE)), kittieId);\n  }\n}\n",
  "sourcePath": "/Users/ziweizhang/Desktop/EarningsTracker/alpha/contracts/modules/databases/ProfileDB.sol",
  "compiler": {
    "name": "solc",
    "version": "0.5.17+commit.d19bba13.Emscripten.clang"
  },
  "schemaVersion": "3.0.23",
  "updatedAt": "2020-04-13T20:08:11.032Z",
  "devdoc": {
    "author": "@psychoplasma",
    "methods": {},
    "title": "ProfileDB"
  },
  "userdoc": {
    "methods": {
      "setProxy(address)": {
        "notice": "Set/update address of Proxy contract"
      }
    }
  }
}