{
  "contractName": "ProxyBase",
  "abi": [
    {
      "constant": false,
      "inputs": [
        {
          "internalType": "string",
          "name": "name",
          "type": "string"
        },
        {
          "internalType": "address",
          "name": "contractAddress",
          "type": "address"
        }
      ],
      "name": "addContract",
      "outputs": [],
      "payable": false,
      "stateMutability": "nonpayable",
      "type": "function"
    },
    {
      "constant": true,
      "inputs": [
        {
          "internalType": "string",
          "name": "name",
          "type": "string"
        }
      ],
      "name": "getContract",
      "outputs": [
        {
          "internalType": "address",
          "name": "",
          "type": "address"
        }
      ],
      "payable": false,
      "stateMutability": "view",
      "type": "function"
    },
    {
      "constant": true,
      "inputs": [],
      "name": "owner",
      "outputs": [
        {
          "internalType": "address payable",
          "name": "",
          "type": "address"
        }
      ],
      "payable": false,
      "stateMutability": "view",
      "type": "function"
    },
    {
      "constant": false,
      "inputs": [
        {
          "internalType": "string",
          "name": "name",
          "type": "string"
        }
      ],
      "name": "removeContract",
      "outputs": [],
      "payable": false,
      "stateMutability": "nonpayable",
      "type": "function"
    },
    {
      "constant": false,
      "inputs": [
        {
          "internalType": "address payable",
          "name": "newOwner",
          "type": "address"
        }
      ],
      "name": "transferOwnership",
      "outputs": [],
      "payable": false,
      "stateMutability": "nonpayable",
      "type": "function"
    },
    {
      "constant": false,
      "inputs": [
        {
          "internalType": "string",
          "name": "name",
          "type": "string"
        },
        {
          "internalType": "address",
          "name": "contractAddress",
          "type": "address"
        }
      ],
      "name": "updateContract",
      "outputs": [],
      "payable": false,
      "stateMutability": "nonpayable",
      "type": "function"
    },
    {
      "constant": true,
      "inputs": [],
      "name": "addressOfRegister",
      "outputs": [
        {
          "internalType": "address",
          "name": "",
          "type": "address"
        }
      ],
      "payable": false,
      "stateMutability": "view",
      "type": "function"
    },
    {
      "constant": true,
      "inputs": [],
      "name": "addressOfProfileDB",
      "outputs": [
        {
          "internalType": "address",
          "name": "",
          "type": "address"
        }
      ],
      "payable": false,
      "stateMutability": "view",
      "type": "function"
    },
    {
      "constant": true,
      "inputs": [],
      "name": "addressOfKittieHell",
      "outputs": [
        {
          "internalType": "address",
          "name": "",
          "type": "address"
        }
      ],
      "payable": false,
      "stateMutability": "view",
      "type": "function"
    },
    {
      "constant": true,
      "inputs": [],
      "name": "addressOfKittieHellDB",
      "outputs": [
        {
          "internalType": "address",
          "name": "",
          "type": "address"
        }
      ],
      "payable": false,
      "stateMutability": "view",
      "type": "function"
    },
    {
      "constant": true,
      "inputs": [],
      "name": "addressOfGameManager",
      "outputs": [
        {
          "internalType": "address",
          "name": "",
          "type": "address"
        }
      ],
      "payable": false,
      "stateMutability": "view",
      "type": "function"
    },
    {
      "constant": true,
      "inputs": [],
      "name": "addressOfGMSetterDB",
      "outputs": [
        {
          "internalType": "address",
          "name": "",
          "type": "address"
        }
      ],
      "payable": false,
      "stateMutability": "view",
      "type": "function"
    },
    {
      "constant": true,
      "inputs": [],
      "name": "addressOfGMGetterDB",
      "outputs": [
        {
          "internalType": "address",
          "name": "",
          "type": "address"
        }
      ],
      "payable": false,
      "stateMutability": "view",
      "type": "function"
    },
    {
      "constant": true,
      "inputs": [],
      "name": "addressOfEndowmentDB",
      "outputs": [
        {
          "internalType": "address",
          "name": "",
          "type": "address"
        }
      ],
      "payable": false,
      "stateMutability": "view",
      "type": "function"
    },
    {
      "constant": true,
      "inputs": [],
      "name": "addressOfTimeContract",
      "outputs": [
        {
          "internalType": "address",
          "name": "",
          "type": "address"
        }
      ],
      "payable": false,
      "stateMutability": "view",
      "type": "function"
    },
    {
      "constant": true,
      "inputs": [],
      "name": "addressOfCronJob",
      "outputs": [
        {
          "internalType": "address",
          "name": "",
          "type": "address"
        }
      ],
      "payable": false,
      "stateMutability": "view",
      "type": "function"
    },
    {
      "constant": true,
      "inputs": [],
      "name": "addressOfRoleDB",
      "outputs": [
        {
          "internalType": "address",
          "name": "",
          "type": "address"
        }
      ],
      "payable": false,
      "stateMutability": "view",
      "type": "function"
    },
    {
      "constant": true,
      "inputs": [],
      "name": "addressOfEndowmentFund",
      "outputs": [
        {
          "internalType": "address",
          "name": "",
          "type": "address"
        }
      ],
      "payable": false,
      "stateMutability": "view",
      "type": "function"
    },
    {
      "constant": true,
      "inputs": [],
      "name": "addressOfDistribution",
      "outputs": [
        {
          "internalType": "address",
          "name": "",
          "type": "address"
        }
      ],
      "payable": false,
      "stateMutability": "view",
      "type": "function"
    },
    {
      "constant": true,
      "inputs": [],
      "name": "addressOfGameVarAndFee",
      "outputs": [
        {
          "internalType": "address",
          "name": "",
          "type": "address"
        }
      ],
      "payable": false,
      "stateMutability": "view",
      "type": "function"
    },
    {
      "constant": true,
      "inputs": [],
      "name": "addressOfForfeiter",
      "outputs": [
        {
          "internalType": "address",
          "name": "",
          "type": "address"
        }
      ],
      "payable": false,
      "stateMutability": "view",
      "type": "function"
    },
    {
      "constant": true,
      "inputs": [],
      "name": "addressOfScheduler",
      "outputs": [
        {
          "internalType": "address",
          "name": "",
          "type": "address"
        }
      ],
      "payable": false,
      "stateMutability": "view",
      "type": "function"
    },
    {
      "constant": true,
      "inputs": [],
      "name": "addressOfHitsResolve",
      "outputs": [
        {
          "internalType": "address",
          "name": "",
          "type": "address"
        }
      ],
      "payable": false,
      "stateMutability": "view",
      "type": "function"
    },
    {
      "constant": true,
      "inputs": [],
      "name": "addressOfBetting",
      "outputs": [
        {
          "internalType": "address",
          "name": "",
          "type": "address"
        }
      ],
      "payable": false,
      "stateMutability": "view",
      "type": "function"
    },
    {
      "constant": true,
      "inputs": [],
      "name": "addressOfRarityCalculator",
      "outputs": [
        {
          "internalType": "address",
          "name": "",
          "type": "address"
        }
      ],
      "payable": false,
      "stateMutability": "view",
      "type": "function"
    },
    {
      "constant": true,
      "inputs": [],
      "name": "addressOfWithdrawaPool",
      "outputs": [
        {
          "internalType": "address",
          "name": "",
          "type": "address"
        }
      ],
      "payable": false,
      "stateMutability": "view",
      "type": "function"
    },
    {
      "constant": true,
      "inputs": [],
      "name": "addressOfTimeFrame",
      "outputs": [
        {
          "internalType": "address",
          "name": "",
          "type": "address"
        }
      ],
      "payable": false,
      "stateMutability": "view",
      "type": "function"
    },
    {
      "constant": true,
      "inputs": [],
      "name": "addressOfHoneypotAllocationAlgo",
      "outputs": [
        {
          "internalType": "address",
          "name": "",
          "type": "address"
        }
      ],
      "payable": false,
      "stateMutability": "view",
      "type": "function"
    }
  ],
  "bytecode": "0x6080604052336000806101000a81548173ffffffffffffffffffffffffffffffffffffffff021916908373ffffffffffffffffffffffffffffffffffffffff160217905550611bd5806100536000396000f3fe608060405234801561001057600080fd5b50600436106101c45760003560e01c806393812d20116100f9578063c5ed75bb11610097578063eed9c25b11610071578063eed9c25b14610afd578063f2fde38b14610b47578063f6df25d514610b8b578063fcc47c4f14610bd5576101c4565b8063c5ed75bb14610a1f578063d3b12c1514610a69578063ee71227f14610ab3576101c4565b80639a087b97116100d35780639a087b9714610866578063a0d1170b146108b0578063beb9eb0b146108fa578063bf5b601614610944576101c4565b806393812d201461071757806397623b581461076157806398f160311461081c576101c4565b80634e7f067b1161016657806384d676171161014057806384d67617146105ef5780638da5cb5b146106395780638e771e79146106835780638ec82c8a146106cd576101c4565b80634e7f067b146104805780635c757125146104ca578063697a60b314610514576101c4565b806335817773116101a257806335817773146102a757806342febb69146103a2578063462d46f6146103ec578063492e469214610436576101c4565b806320331d0f146101c957806320ba591014610213578063348c60191461025d575b600080fd5b6101d1610c1f565b604051808273ffffffffffffffffffffffffffffffffffffffff1673ffffffffffffffffffffffffffffffffffffffff16815260200191505060405180910390f35b61021b610c64565b604051808273ffffffffffffffffffffffffffffffffffffffff1673ffffffffffffffffffffffffffffffffffffffff16815260200191505060405180910390f35b610265610ca9565b604051808273ffffffffffffffffffffffffffffffffffffffff1673ffffffffffffffffffffffffffffffffffffffff16815260200191505060405180910390f35b610360600480360360208110156102bd57600080fd5b81019080803590602001906401000000008111156102da57600080fd5b8201836020820111156102ec57600080fd5b8035906020019184600183028401116401000000008311171561030e57600080fd5b91908080601f016020809104026020016040519081016040528093929190818152602001838380828437600081840152601f19601f820116905080830192505050505050509192919290505050610cee565b604051808273ffffffffffffffffffffffffffffffffffffffff1673ffffffffffffffffffffffffffffffffffffffff16815260200191505060405180910390f35b6103aa610fce565b604051808273ffffffffffffffffffffffffffffffffffffffff1673ffffffffffffffffffffffffffffffffffffffff16815260200191505060405180910390f35b6103f4611013565b604051808273ffffffffffffffffffffffffffffffffffffffff1673ffffffffffffffffffffffffffffffffffffffff16815260200191505060405180910390f35b61043e611058565b604051808273ffffffffffffffffffffffffffffffffffffffff1673ffffffffffffffffffffffffffffffffffffffff16815260200191505060405180910390f35b61048861109d565b604051808273ffffffffffffffffffffffffffffffffffffffff1673ffffffffffffffffffffffffffffffffffffffff16815260200191505060405180910390f35b6104d26110e2565b604051808273ffffffffffffffffffffffffffffffffffffffff1673ffffffffffffffffffffffffffffffffffffffff16815260200191505060405180910390f35b6105ed6004803603604081101561052a57600080fd5b810190808035906020019064010000000081111561054757600080fd5b82018360208201111561055957600080fd5b8035906020019184600183028401116401000000008311171561057b57600080fd5b91908080601f016020809104026020016040519081016040528093929190818152602001838380828437600081840152601f19601f820116905080830192505050505050509192919290803573ffffffffffffffffffffffffffffffffffffffff169060200190929190505050611127565b005b6105f76112ec565b604051808273ffffffffffffffffffffffffffffffffffffffff1673ffffffffffffffffffffffffffffffffffffffff16815260200191505060405180910390f35b610641611331565b604051808273ffffffffffffffffffffffffffffffffffffffff1673ffffffffffffffffffffffffffffffffffffffff16815260200191505060405180910390f35b61068b611356565b604051808273ffffffffffffffffffffffffffffffffffffffff1673ffffffffffffffffffffffffffffffffffffffff16815260200191505060405180910390f35b6106d561139b565b604051808273ffffffffffffffffffffffffffffffffffffffff1673ffffffffffffffffffffffffffffffffffffffff16815260200191505060405180910390f35b61071f6113e0565b604051808273ffffffffffffffffffffffffffffffffffffffff1673ffffffffffffffffffffffffffffffffffffffff16815260200191505060405180910390f35b61081a6004803603602081101561077757600080fd5b810190808035906020019064010000000081111561079457600080fd5b8201836020820111156107a657600080fd5b803590602001918460018302840111640100000000831117156107c857600080fd5b91908080601f016020809104026020016040519081016040528093929190818152602001838380828437600081840152601f19601f820116905080830192505050505050509192919290505050611425565b005b6108246115ea565b604051808273ffffffffffffffffffffffffffffffffffffffff1673ffffffffffffffffffffffffffffffffffffffff16815260200191505060405180910390f35b61086e61162f565b604051808273ffffffffffffffffffffffffffffffffffffffff1673ffffffffffffffffffffffffffffffffffffffff16815260200191505060405180910390f35b6108b8611674565b604051808273ffffffffffffffffffffffffffffffffffffffff1673ffffffffffffffffffffffffffffffffffffffff16815260200191505060405180910390f35b6109026116b9565b604051808273ffffffffffffffffffffffffffffffffffffffff1673ffffffffffffffffffffffffffffffffffffffff16815260200191505060405180910390f35b610a1d6004803603604081101561095a57600080fd5b810190808035906020019064010000000081111561097757600080fd5b82018360208201111561098957600080fd5b803590602001918460018302840111640100000000831117156109ab57600080fd5b91908080601f016020809104026020016040519081016040528093929190818152602001838380828437600081840152601f19601f820116905080830192505050505050509192919290803573ffffffffffffffffffffffffffffffffffffffff1690602001909291905050506116fe565b005b610a2761190e565b604051808273ffffffffffffffffffffffffffffffffffffffff1673ffffffffffffffffffffffffffffffffffffffff16815260200191505060405180910390f35b610a71611953565b604051808273ffffffffffffffffffffffffffffffffffffffff1673ffffffffffffffffffffffffffffffffffffffff16815260200191505060405180910390f35b610abb611998565b604051808273ffffffffffffffffffffffffffffffffffffffff1673ffffffffffffffffffffffffffffffffffffffff16815260200191505060405180910390f35b610b056119dd565b604051808273ffffffffffffffffffffffffffffffffffffffff1673ffffffffffffffffffffffffffffffffffffffff16815260200191505060405180910390f35b610b8960048036036020811015610b5d57600080fd5b81019080803573ffffffffffffffffffffffffffffffffffffffff169060200190929190505050611a22565b005b610b93611af0565b604051808273ffffffffffffffffffffffffffffffffffffffff1673ffffffffffffffffffffffffffffffffffffffff16815260200191505060405180910390f35b610bdd611b35565b604051808273ffffffffffffffffffffffffffffffffffffffff1673ffffffffffffffffffffffffffffffffffffffff16815260200191505060405180910390f35b6000610c5f6040518060400160405280600981526020017f54696d654672616d650000000000000000000000000000000000000000000000815250610cee565b905090565b6000610ca46040518060400160405280600781526020017f42657474696e6700000000000000000000000000000000000000000000000000815250610cee565b905090565b6000610ce96040518060400160405280601681526020017f486f6e6579706f74416c6c6f636174696f6e416c676f00000000000000000000815250610cee565b905090565b60008073ffffffffffffffffffffffffffffffffffffffff166001836040518082805190602001908083835b60208310610d3d5780518252602082019150602081019050602083039250610d1a565b6001836020036101000a038019825116818451168082178552505050505050905001915050908152602001604051809103902060009054906101000a900473ffffffffffffffffffffffffffffffffffffffff1673ffffffffffffffffffffffffffffffffffffffff161415610f3d5760608260405160200180807f436f6e7472616374206e6f7420726567697374657265643a200000000000000081525060190182805190602001908083835b60208310610e0e5780518252602082019150602081019050602083039250610deb565b6001836020036101000a0380198251168184511680821785525050505050509050019150506040516020818303038152906040526040516024018080602001828103825283818151815260200191508051906020019080838360005b83811015610e85578082015181840152602081019050610e6a565b50505050905090810190601f168015610eb25780820380516001836020036101000a031916815260200191505b50925050506040516020818303038152906040527f08c379a0000000000000000000000000000000000000000000000000000000007bffffffffffffffffffffffffffffffffffffffffffffffffffffffff19166020820180517bffffffffffffffffffffffffffffffffffffffffffffffffffffffff838183161783525050505090508060208201fd5b6001826040518082805190602001908083835b60208310610f735780518252602082019150602081019050602083039250610f50565b6001836020036101000a038019825116818451168082178552505050505050905001915050908152602001604051809103902060009054906101000a900473ffffffffffffffffffffffffffffffffffffffff169050919050565b600061100e6040518060400160405280600a81526020017f4b697474696548656c6c00000000000000000000000000000000000000000000815250610cee565b905090565b60006110536040518060400160405280600d81526020017f47616d65566172416e6446656500000000000000000000000000000000000000815250610cee565b905090565b60006110986040518060400160405280601081526020017f52617269747943616c63756c61746f7200000000000000000000000000000000815250610cee565b905090565b60006110dd6040518060400160405280600c81526020017f54696d65436f6e74726163740000000000000000000000000000000000000000815250610cee565b905090565b60006111226040518060400160405280600981526020017f50726f66696c6544420000000000000000000000000000000000000000000000815250610cee565b905090565b6000809054906101000a900473ffffffffffffffffffffffffffffffffffffffff1673ffffffffffffffffffffffffffffffffffffffff163373ffffffffffffffffffffffffffffffffffffffff161461117d57fe5b600073ffffffffffffffffffffffffffffffffffffffff166001836040518082805190602001908083835b602083106111cb57805182526020820191506020810190506020830392506111a8565b6001836020036101000a038019825116818451168082178552505050505050905001915050908152602001604051809103902060009054906101000a900473ffffffffffffffffffffffffffffffffffffffff1673ffffffffffffffffffffffffffffffffffffffff16141561124057600080fd5b806001836040518082805190602001908083835b602083106112775780518252602082019150602081019050602083039250611254565b6001836020036101000a038019825116818451168082178552505050505050905001915050908152602001604051809103902060006101000a81548173ffffffffffffffffffffffffffffffffffffffff021916908373ffffffffffffffffffffffffffffffffffffffff1602179055505050565b600061132c6040518060400160405280600c81526020017f4b697474696548656c6c44420000000000000000000000000000000000000000815250610cee565b905090565b6000809054906101000a900473ffffffffffffffffffffffffffffffffffffffff1681565b60006113966040518060400160405280600681526020017f526f6c6544420000000000000000000000000000000000000000000000000000815250610cee565b905090565b60006113db6040518060400160405280600b81526020017f486974735265736f6c7665000000000000000000000000000000000000000000815250610cee565b905090565b60006114206040518060400160405280600981526020017f5363686564756c65720000000000000000000000000000000000000000000000815250610cee565b905090565b6000809054906101000a900473ffffffffffffffffffffffffffffffffffffffff1673ffffffffffffffffffffffffffffffffffffffff163373ffffffffffffffffffffffffffffffffffffffff161461147b57fe5b600073ffffffffffffffffffffffffffffffffffffffff166001826040518082805190602001908083835b602083106114c957805182526020820191506020810190506020830392506114a6565b6001836020036101000a038019825116818451168082178552505050505050905001915050908152602001604051809103902060009054906101000a900473ffffffffffffffffffffffffffffffffffffffff1673ffffffffffffffffffffffffffffffffffffffff16141561153e57600080fd5b60006001826040518082805190602001908083835b602083106115765780518252602082019150602081019050602083039250611553565b6001836020036101000a038019825116818451168082178552505050505050905001915050908152602001604051809103902060006101000a81548173ffffffffffffffffffffffffffffffffffffffff021916908373ffffffffffffffffffffffffffffffffffffffff16021790555050565b600061162a6040518060400160405280600c81526020017f5769746864726177506f6f6c0000000000000000000000000000000000000000815250610cee565b905090565b600061166f6040518060400160405280600981526020017f466f726665697465720000000000000000000000000000000000000000000000815250610cee565b905090565b60006116b46040518060400160405280600c81526020017f446973747269627574696f6e0000000000000000000000000000000000000000815250610cee565b905090565b60006116f96040518060400160405280600a81526020017f474d536574746572444200000000000000000000000000000000000000000000815250610cee565b905090565b6000809054906101000a900473ffffffffffffffffffffffffffffffffffffffff1673ffffffffffffffffffffffffffffffffffffffff163373ffffffffffffffffffffffffffffffffffffffff161461175457fe5b600073ffffffffffffffffffffffffffffffffffffffff166001836040518082805190602001908083835b602083106117a2578051825260208201915060208101905060208303925061177f565b6001836020036101000a038019825116818451168082178552505050505050905001915050908152602001604051809103902060009054906101000a900473ffffffffffffffffffffffffffffffffffffffff1673ffffffffffffffffffffffffffffffffffffffff1614611862576040517f08c379a0000000000000000000000000000000000000000000000000000000008152600401808060200182810382526026815260200180611b7b6026913960400191505060405180910390fd5b806001836040518082805190602001908083835b602083106118995780518252602082019150602081019050602083039250611876565b6001836020036101000a038019825116818451168082178552505050505050905001915050908152602001604051809103902060006101000a81548173ffffffffffffffffffffffffffffffffffffffff021916908373ffffffffffffffffffffffffffffffffffffffff1602179055505050565b600061194e6040518060400160405280600781526020017f43726f6e4a6f6200000000000000000000000000000000000000000000000000815250610cee565b905090565b60006119936040518060400160405280600a81526020017f474d476574746572444200000000000000000000000000000000000000000000815250610cee565b905090565b60006119d86040518060400160405280600b81526020017f47616d654d616e61676572000000000000000000000000000000000000000000815250610cee565b905090565b6000611a1d6040518060400160405280600881526020017f5265676973746572000000000000000000000000000000000000000000000000815250610cee565b905090565b6000809054906101000a900473ffffffffffffffffffffffffffffffffffffffff1673ffffffffffffffffffffffffffffffffffffffff163373ffffffffffffffffffffffffffffffffffffffff1614611a7857fe5b600073ffffffffffffffffffffffffffffffffffffffff168173ffffffffffffffffffffffffffffffffffffffff1614611aed57806000806101000a81548173ffffffffffffffffffffffffffffffffffffffff021916908373ffffffffffffffffffffffffffffffffffffffff1602179055505b50565b6000611b306040518060400160405280600b81526020017f456e646f776d656e744442000000000000000000000000000000000000000000815250610cee565b905090565b6000611b756040518060400160405280600d81526020017f456e646f776d656e7446756e6400000000000000000000000000000000000000815250610cee565b90509056fe43616e206e6f742061646420636f6e74726163742077697468207a65726f2061646472657373a265627a7a7231582050ec9ce79b599759f0f1f93a21e8399933340be2cbc891872116695bdd506d5c64736f6c63430005110032",
  "source": "pragma solidity ^0.5.5;\n\nimport '../../ContractManager.sol';\nimport './ContractNames.sol';\n\n/**\n * @title ProxyBase is a common part for all interface contracts in Proxy,\n * it allows to get addresses of proxied contracts\n */\ncontract ProxyBase is ContractManager, ContractNames {\n\n    /**\n     * Getters for KittyFight system contracts\n     */\n     function addressOfRegister() public view returns(address)          {return getContract(CONTRACT_NAME_REGISTER);}\n     function addressOfProfileDB() public view returns(address)         {return getContract(CONTRACT_NAME_PROFILE_DB);}\n     function addressOfKittieHell() public view returns(address)        {return getContract(CONTRACT_NAME_KITTIEHELL);}\n     function addressOfKittieHellDB() public view returns(address)      {return getContract(CONTRACT_NAME_KITTIEHELL_DB);}\n     function addressOfGameManager() public view returns(address)       {return getContract(CONTRACT_NAME_GAMEMANAGER);}\n     function addressOfGMSetterDB() public view returns(address)        {return getContract(CONTRACT_NAME_GM_SETTER_DB);}\n     function addressOfGMGetterDB() public view returns(address)        {return getContract(CONTRACT_NAME_GM_GETTER_DB);}\n     function addressOfEndowmentDB() public view returns(address)       {return getContract(CONTRACT_NAME_ENDOWMENT_DB);}\n     function addressOfTimeContract() public view returns(address)      {return getContract(CONTRACT_NAME_TIMECONTRACT);}\n     function addressOfCronJob() public view returns(address)           {return getContract(CONTRACT_NAME_CRONJOB);}\n     function addressOfRoleDB() public view returns(address)            {return getContract(CONTRACT_NAME_ROLE_DB);}\n     function addressOfEndowmentFund() public view returns(address)     {return getContract(CONTRACT_NAME_ENDOWMENT_FUND);}\n     function addressOfDistribution() public view returns(address)      {return getContract(CONTRACT_NAME_DISTRIBUTION);}\n     function addressOfGameVarAndFee() public view returns(address)     {return getContract(CONTRACT_NAME_GAMEVARANDFEE);}\n     function addressOfForfeiter() public view returns(address)         {return getContract(CONTRACT_NAME_FORFEITER);}\n     function addressOfScheduler() public view returns(address)         {return getContract(CONTRACT_NAME_SCHEDULER);}\n     function addressOfHitsResolve() public view returns(address)       {return getContract(CONTRACT_NAME_HITSRESOLVE);}\n     function addressOfBetting() public view returns(address)           {return getContract(CONTRACT_NAME_BETTING);}\n     function addressOfRarityCalculator() public view returns(address)  {return getContract(CONTRACT_NAME_RARITYCALCULATOR);}\n     function addressOfWithdrawaPool() public view returns(address)    {return getContract(CONTRACT_NAME_WITHDRAW_POOL);}\n     function addressOfTimeFrame() public view returns(address)         {return getContract(CONTRACT_NAME_TIMEFRAME);}\n     function addressOfHoneypotAllocationAlgo() public view returns(address) {return getContract(CONTRACT_NAME_HONEYPOT_ALLOCATION_ALGO);}\n}\n",
  "sourcePath": "/Users/ziweizhang/Desktop/staking/alpha/contracts/modules/proxy/ProxyBase.sol",
  "compiler": {
    "name": "solc",
    "version": "0.5.17+commit.d19bba13.Emscripten.clang"
  },
  "schemaVersion": "3.0.23",
  "updatedAt": "2020-04-09T00:22:23.993Z",
  "devdoc": {
    "methods": {},
    "title": "ProxyBase is a common part for all interface contracts in Proxy, it allows to get addresses of proxied contracts"
  },
  "userdoc": {
    "methods": {
      "addressOfRegister()": {
        "notice": "Getters for KittyFight system contracts"
      }
    }
  }
}