{
  "contractName": "ProxyBase",
  "abi": [
    {
      "constant": false,
      "inputs": [
        {
          "internalType": "string",
          "name": "name",
          "type": "string"
        },
        {
          "internalType": "address",
          "name": "contractAddress",
          "type": "address"
        }
      ],
      "name": "addContract",
      "outputs": [],
      "payable": false,
      "stateMutability": "nonpayable",
      "type": "function"
    },
    {
      "constant": true,
      "inputs": [
        {
          "internalType": "string",
          "name": "name",
          "type": "string"
        }
      ],
      "name": "getContract",
      "outputs": [
        {
          "internalType": "address",
          "name": "",
          "type": "address"
        }
      ],
      "payable": false,
      "stateMutability": "view",
      "type": "function"
    },
    {
      "constant": true,
      "inputs": [
        {
          "internalType": "bytes32[]",
          "name": "nameHashes",
          "type": "bytes32[]"
        }
      ],
      "name": "getContracts",
      "outputs": [
        {
          "internalType": "address[]",
          "name": "",
          "type": "address[]"
        }
      ],
      "payable": false,
      "stateMutability": "view",
      "type": "function"
    },
    {
      "constant": true,
      "inputs": [],
      "name": "owner",
      "outputs": [
        {
          "internalType": "address payable",
          "name": "",
          "type": "address"
        }
      ],
      "payable": false,
      "stateMutability": "view",
      "type": "function"
    },
    {
      "constant": false,
      "inputs": [
        {
          "internalType": "string",
          "name": "name",
          "type": "string"
        }
      ],
      "name": "removeContract",
      "outputs": [],
      "payable": false,
      "stateMutability": "nonpayable",
      "type": "function"
    },
    {
      "constant": false,
      "inputs": [
        {
          "internalType": "address payable",
          "name": "newOwner",
          "type": "address"
        }
      ],
      "name": "transferOwnership",
      "outputs": [],
      "payable": false,
      "stateMutability": "nonpayable",
      "type": "function"
    },
    {
      "constant": false,
      "inputs": [
        {
          "internalType": "string",
          "name": "name",
          "type": "string"
        },
        {
          "internalType": "address",
          "name": "contractAddress",
          "type": "address"
        }
      ],
      "name": "updateContract",
      "outputs": [],
      "payable": false,
      "stateMutability": "nonpayable",
      "type": "function"
    },
    {
      "constant": true,
      "inputs": [],
      "name": "addressOfRegister",
      "outputs": [
        {
          "internalType": "address",
          "name": "",
          "type": "address"
        }
      ],
      "payable": false,
      "stateMutability": "view",
      "type": "function"
    },
    {
      "constant": true,
      "inputs": [],
      "name": "addressOfProfileDB",
      "outputs": [
        {
          "internalType": "address",
          "name": "",
          "type": "address"
        }
      ],
      "payable": false,
      "stateMutability": "view",
      "type": "function"
    },
    {
      "constant": true,
      "inputs": [],
      "name": "addressOfKittieHell",
      "outputs": [
        {
          "internalType": "address",
          "name": "",
          "type": "address"
        }
      ],
      "payable": false,
      "stateMutability": "view",
      "type": "function"
    },
    {
      "constant": true,
      "inputs": [],
      "name": "addressOfKittieHellDB",
      "outputs": [
        {
          "internalType": "address",
          "name": "",
          "type": "address"
        }
      ],
      "payable": false,
      "stateMutability": "view",
      "type": "function"
    },
    {
      "constant": true,
      "inputs": [],
      "name": "addressOfGameManager",
      "outputs": [
        {
          "internalType": "address",
          "name": "",
          "type": "address"
        }
      ],
      "payable": false,
      "stateMutability": "view",
      "type": "function"
    },
    {
      "constant": true,
      "inputs": [],
      "name": "addressOfGMSetterDB",
      "outputs": [
        {
          "internalType": "address",
          "name": "",
          "type": "address"
        }
      ],
      "payable": false,
      "stateMutability": "view",
      "type": "function"
    },
    {
      "constant": true,
      "inputs": [],
      "name": "addressOfGMGetterDB",
      "outputs": [
        {
          "internalType": "address",
          "name": "",
          "type": "address"
        }
      ],
      "payable": false,
      "stateMutability": "view",
      "type": "function"
    },
    {
      "constant": true,
      "inputs": [],
      "name": "addressOfEndowmentDB",
      "outputs": [
        {
          "internalType": "address",
          "name": "",
          "type": "address"
        }
      ],
      "payable": false,
      "stateMutability": "view",
      "type": "function"
    },
    {
      "constant": true,
      "inputs": [],
      "name": "addressOfTimeContract",
      "outputs": [
        {
          "internalType": "address",
          "name": "",
          "type": "address"
        }
      ],
      "payable": false,
      "stateMutability": "view",
      "type": "function"
    },
    {
      "constant": true,
      "inputs": [],
      "name": "addressOfCronJob",
      "outputs": [
        {
          "internalType": "address",
          "name": "",
          "type": "address"
        }
      ],
      "payable": false,
      "stateMutability": "view",
      "type": "function"
    },
    {
      "constant": true,
      "inputs": [],
      "name": "addressOfRoleDB",
      "outputs": [
        {
          "internalType": "address",
          "name": "",
          "type": "address"
        }
      ],
      "payable": false,
      "stateMutability": "view",
      "type": "function"
    },
    {
      "constant": true,
      "inputs": [],
      "name": "addressOfEndowmentFund",
      "outputs": [
        {
          "internalType": "address",
          "name": "",
          "type": "address"
        }
      ],
      "payable": false,
      "stateMutability": "view",
      "type": "function"
    },
    {
      "constant": true,
      "inputs": [],
      "name": "addressOfDistribution",
      "outputs": [
        {
          "internalType": "address",
          "name": "",
          "type": "address"
        }
      ],
      "payable": false,
      "stateMutability": "view",
      "type": "function"
    },
    {
      "constant": true,
      "inputs": [],
      "name": "addressOfGameVarAndFee",
      "outputs": [
        {
          "internalType": "address",
          "name": "",
          "type": "address"
        }
      ],
      "payable": false,
      "stateMutability": "view",
      "type": "function"
    },
    {
      "constant": true,
      "inputs": [],
      "name": "addressOfForfeiter",
      "outputs": [
        {
          "internalType": "address",
          "name": "",
          "type": "address"
        }
      ],
      "payable": false,
      "stateMutability": "view",
      "type": "function"
    },
    {
      "constant": true,
      "inputs": [],
      "name": "addressOfScheduler",
      "outputs": [
        {
          "internalType": "address",
          "name": "",
          "type": "address"
        }
      ],
      "payable": false,
      "stateMutability": "view",
      "type": "function"
    },
    {
      "constant": true,
      "inputs": [],
      "name": "addressOfHitsResolve",
      "outputs": [
        {
          "internalType": "address",
          "name": "",
          "type": "address"
        }
      ],
      "payable": false,
      "stateMutability": "view",
      "type": "function"
    },
    {
      "constant": true,
      "inputs": [],
      "name": "addressOfBetting",
      "outputs": [
        {
          "internalType": "address",
          "name": "",
          "type": "address"
        }
      ],
      "payable": false,
      "stateMutability": "view",
      "type": "function"
    },
    {
      "constant": true,
      "inputs": [],
      "name": "addressOfRarityCalculator",
      "outputs": [
        {
          "internalType": "address",
          "name": "",
          "type": "address"
        }
      ],
      "payable": false,
      "stateMutability": "view",
      "type": "function"
    },
    {
      "constant": true,
      "inputs": [],
      "name": "addressOfTimeFrame",
      "outputs": [
        {
          "internalType": "address",
          "name": "",
          "type": "address"
        }
      ],
      "payable": false,
      "stateMutability": "view",
      "type": "function"
    },
    {
      "constant": true,
      "inputs": [],
      "name": "addressOfHoneypotAllocationAlgo",
      "outputs": [
        {
          "internalType": "address",
          "name": "",
          "type": "address"
        }
      ],
      "payable": false,
      "stateMutability": "view",
      "type": "function"
    },
    {
      "constant": true,
      "inputs": [],
      "name": "addressOfEarningsTracker",
      "outputs": [
        {
          "internalType": "address",
          "name": "",
          "type": "address"
        }
      ],
      "payable": false,
      "stateMutability": "view",
      "type": "function"
    },
    {
      "constant": true,
      "inputs": [],
      "name": "addressOfWithdrawPool",
      "outputs": [
        {
          "internalType": "address",
          "name": "",
          "type": "address"
        }
      ],
      "payable": false,
      "stateMutability": "view",
      "type": "function"
    },
    {
      "constant": true,
      "inputs": [],
      "name": "addressOfEthieToken",
      "outputs": [
        {
          "internalType": "address",
          "name": "",
          "type": "address"
        }
      ],
      "payable": false,
      "stateMutability": "view",
      "type": "function"
    },
    {
      "constant": true,
      "inputs": [],
      "name": "addressOfUniswapV2Pair",
      "outputs": [
        {
          "internalType": "address",
          "name": "",
          "type": "address"
        }
      ],
      "payable": false,
      "stateMutability": "view",
      "type": "function"
    },
    {
      "constant": true,
      "inputs": [],
      "name": "addressOfUniswapV2Router",
      "outputs": [
        {
          "internalType": "address",
          "name": "",
          "type": "address"
        }
      ],
      "payable": false,
      "stateMutability": "view",
      "type": "function"
    },
    {
      "constant": true,
      "inputs": [],
      "name": "addressOfKtyWethOracle",
      "outputs": [
        {
          "internalType": "address",
          "name": "",
          "type": "address"
        }
      ],
      "payable": false,
      "stateMutability": "view",
      "type": "function"
    },
    {
      "constant": true,
      "inputs": [],
      "name": "addressOfKtyUniswap",
      "outputs": [
        {
          "internalType": "address",
          "name": "",
          "type": "address"
        }
      ],
      "payable": false,
      "stateMutability": "view",
      "type": "function"
    },
    {
      "constant": true,
      "inputs": [],
      "name": "addressOfWETH",
      "outputs": [
        {
          "internalType": "address",
          "name": "",
          "type": "address"
        }
      ],
      "payable": false,
      "stateMutability": "view",
      "type": "function"
    },
    {
      "constant": true,
      "inputs": [],
      "name": "addressOfDAI",
      "outputs": [
        {
          "internalType": "address",
          "name": "",
          "type": "address"
        }
      ],
      "payable": false,
      "stateMutability": "view",
      "type": "function"
    },
    {
      "constant": true,
      "inputs": [],
      "name": "addressOfDaiWethPair",
      "outputs": [
        {
          "internalType": "address",
          "name": "",
          "type": "address"
        }
      ],
      "payable": false,
      "stateMutability": "view",
      "type": "function"
    },
    {
      "constant": true,
      "inputs": [],
      "name": "addressOfDaiWethOracle",
      "outputs": [
        {
          "internalType": "address",
          "name": "",
          "type": "address"
        }
      ],
      "payable": false,
      "stateMutability": "view",
      "type": "function"
    },
    {
      "constant": true,
      "inputs": [],
      "name": "addressOfMultiSig",
      "outputs": [
        {
          "internalType": "address",
          "name": "",
          "type": "address"
        }
      ],
      "payable": false,
      "stateMutability": "view",
      "type": "function"
    }
  ],
  "bytecode": "0x6080604052336000806101000a81548173ffffffffffffffffffffffffffffffffffffffff021916908373ffffffffffffffffffffffffffffffffffffffff160217905550612331806100536000396000f3fe608060405234801561001057600080fd5b50600436106102485760003560e01c80638e771e791161013b578063cb669caa116100b8578063f27e20981161007c578063f27e209814610f33578063f2fde38b14610f7d578063f6df25d514610fc1578063fcc47c4f1461100b578063fcd073aa1461105557610248565b8063cb669caa14610dc1578063d3b12c1514610e0b578063d83be91714610e55578063ee71227f14610e9f578063eed9c25b14610ee957610248565b80639a087b97116100ff5780639a087b9714610bbe578063a0d1170b14610c08578063beb9eb0b14610c52578063bf5b601614610c9c578063c5ed75bb14610d7757610248565b80638e771e79146109db5780638ec82c8a14610a2557806393812d2014610a6f578063944fe15c14610ab957806397623b5814610b0357610248565b8063462d46f6116101c95780635f9b59161161018d5780635f9b5916146107d8578063697a60b3146108225780637388a991146108fd57806384d67617146109475780638da5cb5b1461099157610248565b8063462d46f6146105e25780634880df0e1461062c578063492e4692146106fa5780634e7f067b146107445780635c7571251461078e57610248565b8063297a344d11610210578063297a344d146103bf578063348c60191461040957806335817773146104535780633bdc5a5d1461054e57806342febb691461059857610248565b806319bddbe01461024d5780631d83b82b146102975780631e662c40146102e157806320331d0f1461032b57806320ba591014610375575b600080fd5b61025561109f565b604051808273ffffffffffffffffffffffffffffffffffffffff1673ffffffffffffffffffffffffffffffffffffffff16815260200191505060405180910390f35b61029f6110e4565b604051808273ffffffffffffffffffffffffffffffffffffffff1673ffffffffffffffffffffffffffffffffffffffff16815260200191505060405180910390f35b6102e9611129565b604051808273ffffffffffffffffffffffffffffffffffffffff1673ffffffffffffffffffffffffffffffffffffffff16815260200191505060405180910390f35b61033361116e565b604051808273ffffffffffffffffffffffffffffffffffffffff1673ffffffffffffffffffffffffffffffffffffffff16815260200191505060405180910390f35b61037d6111b3565b604051808273ffffffffffffffffffffffffffffffffffffffff1673ffffffffffffffffffffffffffffffffffffffff16815260200191505060405180910390f35b6103c76111f8565b604051808273ffffffffffffffffffffffffffffffffffffffff1673ffffffffffffffffffffffffffffffffffffffff16815260200191505060405180910390f35b61041161123d565b604051808273ffffffffffffffffffffffffffffffffffffffff1673ffffffffffffffffffffffffffffffffffffffff16815260200191505060405180910390f35b61050c6004803603602081101561046957600080fd5b810190808035906020019064010000000081111561048657600080fd5b82018360208201111561049857600080fd5b803590602001918460018302840111640100000000831117156104ba57600080fd5b91908080601f016020809104026020016040519081016040528093929190818152602001838380828437600081840152601f19601f820116905080830192505050505050509192919290505050611282565b604051808273ffffffffffffffffffffffffffffffffffffffff1673ffffffffffffffffffffffffffffffffffffffff16815260200191505060405180910390f35b6105566114c3565b604051808273ffffffffffffffffffffffffffffffffffffffff1673ffffffffffffffffffffffffffffffffffffffff16815260200191505060405180910390f35b6105a0611508565b604051808273ffffffffffffffffffffffffffffffffffffffff1673ffffffffffffffffffffffffffffffffffffffff16815260200191505060405180910390f35b6105ea61154d565b604051808273ffffffffffffffffffffffffffffffffffffffff1673ffffffffffffffffffffffffffffffffffffffff16815260200191505060405180910390f35b6106a36004803603602081101561064257600080fd5b810190808035906020019064010000000081111561065f57600080fd5b82018360208201111561067157600080fd5b8035906020019184602083028401116401000000008311171561069357600080fd5b9091929391929390505050611592565b6040518080602001828103825283818151815260200191508051906020019060200280838360005b838110156106e65780820151818401526020810190506106cb565b505050509050019250505060405180910390f35b61070261167f565b604051808273ffffffffffffffffffffffffffffffffffffffff1673ffffffffffffffffffffffffffffffffffffffff16815260200191505060405180910390f35b61074c6116c4565b604051808273ffffffffffffffffffffffffffffffffffffffff1673ffffffffffffffffffffffffffffffffffffffff16815260200191505060405180910390f35b610796611709565b604051808273ffffffffffffffffffffffffffffffffffffffff1673ffffffffffffffffffffffffffffffffffffffff16815260200191505060405180910390f35b6107e061174e565b604051808273ffffffffffffffffffffffffffffffffffffffff1673ffffffffffffffffffffffffffffffffffffffff16815260200191505060405180910390f35b6108fb6004803603604081101561083857600080fd5b810190808035906020019064010000000081111561085557600080fd5b82018360208201111561086757600080fd5b8035906020019184600183028401116401000000008311171561088957600080fd5b91908080601f016020809104026020016040519081016040528093929190818152602001838380828437600081840152601f19601f820116905080830192505050505050509192919290803573ffffffffffffffffffffffffffffffffffffffff169060200190929190505050611793565b005b610905611922565b604051808273ffffffffffffffffffffffffffffffffffffffff1673ffffffffffffffffffffffffffffffffffffffff16815260200191505060405180910390f35b61094f611967565b604051808273ffffffffffffffffffffffffffffffffffffffff1673ffffffffffffffffffffffffffffffffffffffff16815260200191505060405180910390f35b6109996119ac565b604051808273ffffffffffffffffffffffffffffffffffffffff1673ffffffffffffffffffffffffffffffffffffffff16815260200191505060405180910390f35b6109e36119d1565b604051808273ffffffffffffffffffffffffffffffffffffffff1673ffffffffffffffffffffffffffffffffffffffff16815260200191505060405180910390f35b610a2d611a16565b604051808273ffffffffffffffffffffffffffffffffffffffff1673ffffffffffffffffffffffffffffffffffffffff16815260200191505060405180910390f35b610a77611a5b565b604051808273ffffffffffffffffffffffffffffffffffffffff1673ffffffffffffffffffffffffffffffffffffffff16815260200191505060405180910390f35b610ac1611aa0565b604051808273ffffffffffffffffffffffffffffffffffffffff1673ffffffffffffffffffffffffffffffffffffffff16815260200191505060405180910390f35b610bbc60048036036020811015610b1957600080fd5b8101908080359060200190640100000000811115610b3657600080fd5b820183602082011115610b4857600080fd5b80359060200191846001830284011164010000000083111715610b6a57600080fd5b91908080601f016020809104026020016040519081016040528093929190818152602001838380828437600081840152601f19601f820116905080830192505050505050509192919290505050611ae5565b005b610bc6611c74565b604051808273ffffffffffffffffffffffffffffffffffffffff1673ffffffffffffffffffffffffffffffffffffffff16815260200191505060405180910390f35b610c10611cb9565b604051808273ffffffffffffffffffffffffffffffffffffffff1673ffffffffffffffffffffffffffffffffffffffff16815260200191505060405180910390f35b610c5a611cfe565b604051808273ffffffffffffffffffffffffffffffffffffffff1673ffffffffffffffffffffffffffffffffffffffff16815260200191505060405180910390f35b610d7560048036036040811015610cb257600080fd5b8101908080359060200190640100000000811115610ccf57600080fd5b820183602082011115610ce157600080fd5b80359060200191846001830284011164010000000083111715610d0357600080fd5b91908080601f016020809104026020016040519081016040528093929190818152602001838380828437600081840152601f19601f820116905080830192505050505050509192919290803573ffffffffffffffffffffffffffffffffffffffff169060200190929190505050611d43565b005b610d7f611f57565b604051808273ffffffffffffffffffffffffffffffffffffffff1673ffffffffffffffffffffffffffffffffffffffff16815260200191505060405180910390f35b610dc9611f9c565b604051808273ffffffffffffffffffffffffffffffffffffffff1673ffffffffffffffffffffffffffffffffffffffff16815260200191505060405180910390f35b610e13611fe1565b604051808273ffffffffffffffffffffffffffffffffffffffff1673ffffffffffffffffffffffffffffffffffffffff16815260200191505060405180910390f35b610e5d612026565b604051808273ffffffffffffffffffffffffffffffffffffffff1673ffffffffffffffffffffffffffffffffffffffff16815260200191505060405180910390f35b610ea761206b565b604051808273ffffffffffffffffffffffffffffffffffffffff1673ffffffffffffffffffffffffffffffffffffffff16815260200191505060405180910390f35b610ef16120b0565b604051808273ffffffffffffffffffffffffffffffffffffffff1673ffffffffffffffffffffffffffffffffffffffff16815260200191505060405180910390f35b610f3b6120f5565b604051808273ffffffffffffffffffffffffffffffffffffffff1673ffffffffffffffffffffffffffffffffffffffff16815260200191505060405180910390f35b610fbf60048036036020811015610f9357600080fd5b81019080803573ffffffffffffffffffffffffffffffffffffffff16906020019092919050505061213a565b005b610fc9612208565b604051808273ffffffffffffffffffffffffffffffffffffffff1673ffffffffffffffffffffffffffffffffffffffff16815260200191505060405180910390f35b61101361224d565b604051808273ffffffffffffffffffffffffffffffffffffffff1673ffffffffffffffffffffffffffffffffffffffff16815260200191505060405180910390f35b61105d612292565b604051808273ffffffffffffffffffffffffffffffffffffffff1673ffffffffffffffffffffffffffffffffffffffff16815260200191505060405180910390f35b60006110df6040518060400160405280600581526020017f5745544839000000000000000000000000000000000000000000000000000000815250611282565b905090565b60006111246040518060400160405280600381526020017f4461690000000000000000000000000000000000000000000000000000000000815250611282565b905090565b60006111696040518060400160405280600d81526020017f556e697377617056325061697200000000000000000000000000000000000000815250611282565b905090565b60006111ae6040518060400160405280600981526020017f54696d654672616d650000000000000000000000000000000000000000000000815250611282565b905090565b60006111f36040518060400160405280600781526020017f42657474696e6700000000000000000000000000000000000000000000000000815250611282565b905090565b60006112386040518060400160405280600d81526020017f4b7479576574684f7261636c6500000000000000000000000000000000000000815250611282565b905090565b600061127d6040518060400160405280601681526020017f486f6e6579706f74416c6c6f636174696f6e416c676f00000000000000000000815250611282565b905090565b60008082805190602001209050600073ffffffffffffffffffffffffffffffffffffffff166001600083815260200190815260200160002060009054906101000a900473ffffffffffffffffffffffffffffffffffffffff1673ffffffffffffffffffffffffffffffffffffffff1614156114875760608360405160200180807f436f6e7472616374206e6f7420726567697374657265643a200000000000000081525060190182805190602001908083835b602083106113585780518252602082019150602081019050602083039250611335565b6001836020036101000a0380198251168184511680821785525050505050509050019150506040516020818303038152906040526040516024018080602001828103825283818151815260200191508051906020019080838360005b838110156113cf5780820151818401526020810190506113b4565b50505050905090810190601f1680156113fc5780820380516001836020036101000a031916815260200191505b50925050506040516020818303038152906040527f08c379a0000000000000000000000000000000000000000000000000000000007bffffffffffffffffffffffffffffffffffffffffffffffffffffffff19166020820180517bffffffffffffffffffffffffffffffffffffffffffffffffffffffff838183161783525050505090508060208201fd5b6001600082815260200190815260200160002060009054906101000a900473ffffffffffffffffffffffffffffffffffffffff16915050919050565b60006115036040518060400160405280600f81526020017f4561726e696e6773547261636b65720000000000000000000000000000000000815250611282565b905090565b60006115486040518060400160405280600a81526020017f4b697474696548656c6c00000000000000000000000000000000000000000000815250611282565b905090565b600061158d6040518060400160405280600d81526020017f47616d65566172416e6446656500000000000000000000000000000000000000815250611282565b905090565b606080838390506040519080825280602002602001820160405280156115c75781602001602082028038833980820191505090505b50905060008090505b8484905081101561167457600160008686848181106115eb57fe5b90506020020135815260200190815260200160002060009054906101000a900473ffffffffffffffffffffffffffffffffffffffff1682828151811061162d57fe5b602002602001019073ffffffffffffffffffffffffffffffffffffffff16908173ffffffffffffffffffffffffffffffffffffffff168152505080806001019150506115d0565b508091505092915050565b60006116bf6040518060400160405280601081526020017f52617269747943616c63756c61746f7200000000000000000000000000000000815250611282565b905090565b60006117046040518060400160405280600c81526020017f54696d65436f6e74726163740000000000000000000000000000000000000000815250611282565b905090565b60006117496040518060400160405280600981526020017f50726f66696c6544420000000000000000000000000000000000000000000000815250611282565b905090565b600061178e6040518060400160405280600a81526020017f4b7479556e697377617000000000000000000000000000000000000000000000815250611282565b905090565b6000809054906101000a900473ffffffffffffffffffffffffffffffffffffffff1673ffffffffffffffffffffffffffffffffffffffff163373ffffffffffffffffffffffffffffffffffffffff16146117e957fe5b600082805190602001209050600073ffffffffffffffffffffffffffffffffffffffff166001600083815260200190815260200160002060009054906101000a900473ffffffffffffffffffffffffffffffffffffffff1673ffffffffffffffffffffffffffffffffffffffff1614156118cb576040517f08c379a00000000000000000000000000000000000000000000000000000000081526004018080602001828103825260208152602001807f4e6f20636f6e747261637420776974682074686973206e616d6520666f756e6481525060200191505060405180910390fd5b816001600083815260200190815260200160002060006101000a81548173ffffffffffffffffffffffffffffffffffffffff021916908373ffffffffffffffffffffffffffffffffffffffff160217905550505050565b60006119626040518060400160405280600a81526020017f4574686965546f6b656e00000000000000000000000000000000000000000000815250611282565b905090565b60006119a76040518060400160405280600c81526020017f4b697474696548656c6c44420000000000000000000000000000000000000000815250611282565b905090565b6000809054906101000a900473ffffffffffffffffffffffffffffffffffffffff1681565b6000611a116040518060400160405280600681526020017f526f6c6544420000000000000000000000000000000000000000000000000000815250611282565b905090565b6000611a566040518060400160405280600b81526020017f486974735265736f6c7665000000000000000000000000000000000000000000815250611282565b905090565b6000611a9b6040518060400160405280600981526020017f5363686564756c65720000000000000000000000000000000000000000000000815250611282565b905090565b6000611ae06040518060400160405280600d81526020017f4d756c7469736967356f66313200000000000000000000000000000000000000815250611282565b905090565b6000809054906101000a900473ffffffffffffffffffffffffffffffffffffffff1673ffffffffffffffffffffffffffffffffffffffff163373ffffffffffffffffffffffffffffffffffffffff1614611b3b57fe5b600081805190602001209050600073ffffffffffffffffffffffffffffffffffffffff166001600083815260200190815260200160002060009054906101000a900473ffffffffffffffffffffffffffffffffffffffff1673ffffffffffffffffffffffffffffffffffffffff161415611c1d576040517f08c379a00000000000000000000000000000000000000000000000000000000081526004018080602001828103825260208152602001807f4e6f20636f6e747261637420776974682074686973206e616d6520666f756e6481525060200191505060405180910390fd5b60006001600083815260200190815260200160002060006101000a81548173ffffffffffffffffffffffffffffffffffffffff021916908373ffffffffffffffffffffffffffffffffffffffff1602179055505050565b6000611cb46040518060400160405280600981526020017f466f726665697465720000000000000000000000000000000000000000000000815250611282565b905090565b6000611cf96040518060400160405280600c81526020017f446973747269627574696f6e0000000000000000000000000000000000000000815250611282565b905090565b6000611d3e6040518060400160405280600a81526020017f474d536574746572444200000000000000000000000000000000000000000000815250611282565b905090565b6000809054906101000a900473ffffffffffffffffffffffffffffffffffffffff1673ffffffffffffffffffffffffffffffffffffffff163373ffffffffffffffffffffffffffffffffffffffff1614611d9957fe5b600073ffffffffffffffffffffffffffffffffffffffff168173ffffffffffffffffffffffffffffffffffffffff161415611e3c576040517f08c379a00000000000000000000000000000000000000000000000000000000081526004018080602001828103825260208152602001807f436f6e747261637420616464726573732063616e206e6f74206265207a65726f81525060200191505060405180910390fd5b600082805190602001209050600073ffffffffffffffffffffffffffffffffffffffff166001600083815260200190815260200160002060009054906101000a900473ffffffffffffffffffffffffffffffffffffffff1673ffffffffffffffffffffffffffffffffffffffff1614611f00576040517f08c379a00000000000000000000000000000000000000000000000000000000081526004018080602001828103825260258152602001806122d86025913960400191505060405180910390fd5b816001600083815260200190815260200160002060006101000a81548173ffffffffffffffffffffffffffffffffffffffff021916908373ffffffffffffffffffffffffffffffffffffffff160217905550505050565b6000611f976040518060400160405280600781526020017f43726f6e4a6f6200000000000000000000000000000000000000000000000000815250611282565b905090565b6000611fdc6040518060400160405280600c81526020017f4944616957657468506169720000000000000000000000000000000000000000815250611282565b905090565b60006120216040518060400160405280600a81526020017f474d476574746572444200000000000000000000000000000000000000000000815250611282565b905090565b60006120666040518060400160405280600c81526020017f5769746864726177506f6f6c0000000000000000000000000000000000000000815250611282565b905090565b60006120ab6040518060400160405280600b81526020017f47616d654d616e61676572000000000000000000000000000000000000000000815250611282565b905090565b60006120f06040518060400160405280600881526020017f5265676973746572000000000000000000000000000000000000000000000000815250611282565b905090565b60006121356040518060400160405280600d81526020017f446169576574684f7261636c6500000000000000000000000000000000000000815250611282565b905090565b6000809054906101000a900473ffffffffffffffffffffffffffffffffffffffff1673ffffffffffffffffffffffffffffffffffffffff163373ffffffffffffffffffffffffffffffffffffffff161461219057fe5b600073ffffffffffffffffffffffffffffffffffffffff168173ffffffffffffffffffffffffffffffffffffffff161461220557806000806101000a81548173ffffffffffffffffffffffffffffffffffffffff021916908373ffffffffffffffffffffffffffffffffffffffff1602179055505b50565b60006122486040518060400160405280600b81526020017f456e646f776d656e744442000000000000000000000000000000000000000000815250611282565b905090565b600061228d6040518060400160405280600d81526020017f456e646f776d656e7446756e6400000000000000000000000000000000000000815250611282565b905090565b60006122d26040518060400160405280601181526020017f556e69737761705632526f757465723031000000000000000000000000000000815250611282565b90509056fe436f6e747261637420776974682074686973206e616d6520616c7265616479206164646564a265627a7a72315820b3c64238b32a633db684fc504b2ae0ab5315070ad39c83d5b00558108e0c597b64736f6c63430005110032",
  "source": "pragma solidity ^0.5.5;\n\nimport '../../ContractManager.sol';\nimport './ContractNames.sol';\n\n/**\n * @title ProxyBase is a common part for all interface contracts in Proxy,\n * it allows to get addresses of proxied contracts\n */\ncontract ProxyBase is ContractManager, ContractNames {\n\n    /**\n     * Getters for KittyFight system contracts\n     */\n     function addressOfRegister() public view returns(address)          {return getContract(CONTRACT_NAME_REGISTER);}\n     function addressOfProfileDB() public view returns(address)         {return getContract(CONTRACT_NAME_PROFILE_DB);}\n     function addressOfKittieHell() public view returns(address)        {return getContract(CONTRACT_NAME_KITTIEHELL);}\n     function addressOfKittieHellDB() public view returns(address)      {return getContract(CONTRACT_NAME_KITTIEHELL_DB);}\n     function addressOfGameManager() public view returns(address)       {return getContract(CONTRACT_NAME_GAMEMANAGER);}\n     function addressOfGMSetterDB() public view returns(address)        {return getContract(CONTRACT_NAME_GM_SETTER_DB);}\n     function addressOfGMGetterDB() public view returns(address)        {return getContract(CONTRACT_NAME_GM_GETTER_DB);}\n     function addressOfEndowmentDB() public view returns(address)       {return getContract(CONTRACT_NAME_ENDOWMENT_DB);}\n     function addressOfTimeContract() public view returns(address)      {return getContract(CONTRACT_NAME_TIMECONTRACT);}\n     function addressOfCronJob() public view returns(address)           {return getContract(CONTRACT_NAME_CRONJOB);}\n     function addressOfRoleDB() public view returns(address)            {return getContract(CONTRACT_NAME_ROLE_DB);}\n     function addressOfEndowmentFund() public view returns(address)     {return getContract(CONTRACT_NAME_ENDOWMENT_FUND);}\n     function addressOfDistribution() public view returns(address)      {return getContract(CONTRACT_NAME_DISTRIBUTION);}\n     function addressOfGameVarAndFee() public view returns(address)     {return getContract(CONTRACT_NAME_GAMEVARANDFEE);}\n     function addressOfForfeiter() public view returns(address)         {return getContract(CONTRACT_NAME_FORFEITER);}\n     function addressOfScheduler() public view returns(address)         {return getContract(CONTRACT_NAME_SCHEDULER);}\n     function addressOfHitsResolve() public view returns(address)       {return getContract(CONTRACT_NAME_HITSRESOLVE);}\n     function addressOfBetting() public view returns(address)           {return getContract(CONTRACT_NAME_BETTING);}\n     function addressOfRarityCalculator() public view returns(address)  {return getContract(CONTRACT_NAME_RARITYCALCULATOR);}\n     function addressOfTimeFrame() public view returns(address)         {return getContract(CONTRACT_NAME_TIMEFRAME);}\n     function addressOfHoneypotAllocationAlgo() public view returns(address) {return getContract(CONTRACT_NAME_HONEYPOT_ALLOCATION_ALGO);}\n     function addressOfEarningsTracker() public view returns(address)   {return getContract(CONTRACT_NAME_EARNINGS_TRACKER);}\n     function addressOfWithdrawPool() public view returns(address)     {return getContract(CONTRACT_NAME_WITHDRAW_POOL);}\n     function addressOfEthieToken() public view returns(address)     {return getContract(CONTRACT_NAME_ETHIETOKEN);}\n     function addressOfUniswapV2Pair() public view returns(address)     {return getContract(CONTRACT_NAME_UNISWAPV2_PAIR);}\n     function addressOfUniswapV2Router() public view returns(address)     {return getContract(CONTRACT_NAME_UNISWAPV2_ROUTER);}\n     function addressOfKtyWethOracle() public view returns(address)     {return getContract(CONTRACT_NAME_KTY_WETH_ORACLE);}\n     function addressOfKtyUniswap() public view returns(address)     {return getContract(CONTRACT_NAME_KTY_UNISWAP);}\n     function addressOfWETH() public view returns(address)     {return getContract(CONTRACT_NAME_WETH);}\n     function addressOfDAI() public view returns(address)     {return getContract(CONTRACT_NAME_DAI);}\n     function addressOfDaiWethPair() public view returns(address)     {return getContract(CONTRACT_NAME_DAI_WETH_PAIR);}\n     function addressOfDaiWethOracle() public view returns(address)     {return getContract(CONTRACT_NAME_DAI_WETH_ORACLE);}\n     function addressOfMultiSig() public view returns(address)     {return getContract(CONTRACT_NAME_MULTISIG);}\n}\n",
  "sourcePath": "/Users/ziweizhang/Desktop/Test/contracts/contracts/modules/proxy/ProxyBase.sol",
  "compiler": {
    "name": "solc",
    "version": "0.5.17+commit.d19bba13.Emscripten.clang"
  },
  "schemaVersion": "3.0.23",
  "updatedAt": "2020-07-09T16:42:19.412Z",
  "devdoc": {
    "methods": {},
    "title": "ProxyBase is a common part for all interface contracts in Proxy, it allows to get addresses of proxied contracts"
  },
  "userdoc": {
    "methods": {
      "addressOfRegister()": {
        "notice": "Getters for KittyFight system contracts"
      }
    }
  }
}