{
  "contractName": "Proxied",
  "abi": [
    {
      "constant": true,
      "inputs": [],
      "name": "owner",
      "outputs": [
        {
          "name": "",
          "type": "address"
        }
      ],
      "payable": false,
      "stateMutability": "view",
      "type": "function"
    },
    {
      "constant": true,
      "inputs": [],
      "name": "proxy",
      "outputs": [
        {
          "name": "",
          "type": "address"
        }
      ],
      "payable": false,
      "stateMutability": "view",
      "type": "function"
    },
    {
      "constant": false,
      "inputs": [
        {
          "name": "newOwner",
          "type": "address"
        }
      ],
      "name": "transferOwnership",
      "outputs": [],
      "payable": false,
      "stateMutability": "nonpayable",
      "type": "function"
    },
    {
      "constant": false,
      "inputs": [
        {
          "name": "_proxy",
          "type": "address"
        }
      ],
      "name": "setProxy",
      "outputs": [],
      "payable": false,
      "stateMutability": "nonpayable",
      "type": "function"
    }
  ],
  "bytecode": "0x6080604052336000806101000a81548173ffffffffffffffffffffffffffffffffffffffff021916908373ffffffffffffffffffffffffffffffffffffffff160217905550610355806100536000396000f3fe608060405234801561001057600080fd5b506004361061004c5760003560e01c80638da5cb5b1461005157806397107d6d1461009b578063ec556889146100df578063f2fde38b14610129575b600080fd5b61005961016d565b604051808273ffffffffffffffffffffffffffffffffffffffff1673ffffffffffffffffffffffffffffffffffffffff16815260200191505060405180910390f35b6100dd600480360360208110156100b157600080fd5b81019080803573ffffffffffffffffffffffffffffffffffffffff169060200190929190505050610192565b005b6100e761022c565b604051808273ffffffffffffffffffffffffffffffffffffffff1673ffffffffffffffffffffffffffffffffffffffff16815260200191505060405180910390f35b61016b6004803603602081101561013f57600080fd5b81019080803573ffffffffffffffffffffffffffffffffffffffff169060200190929190505050610252565b005b6000809054906101000a900473ffffffffffffffffffffffffffffffffffffffff1681565b6000809054906101000a900473ffffffffffffffffffffffffffffffffffffffff1673ffffffffffffffffffffffffffffffffffffffff163373ffffffffffffffffffffffffffffffffffffffff16146101e857fe5b80600160006101000a81548173ffffffffffffffffffffffffffffffffffffffff021916908373ffffffffffffffffffffffffffffffffffffffff16021790555050565b600160009054906101000a900473ffffffffffffffffffffffffffffffffffffffff1681565b6000809054906101000a900473ffffffffffffffffffffffffffffffffffffffff1673ffffffffffffffffffffffffffffffffffffffff163373ffffffffffffffffffffffffffffffffffffffff16146102a857fe5b600073ffffffffffffffffffffffffffffffffffffffff168173ffffffffffffffffffffffffffffffffffffffff161461031d57806000806101000a81548173ffffffffffffffffffffffffffffffffffffffff021916908373ffffffffffffffffffffffffffffffffffffffff1602179055505b5056fea265627a7a72305820474e4bc67094c8e19d4d09063fb752f9cec0471f23bcfc10963a24610d693ca064736f6c634300050a0032",
  "source": "pragma solidity ^0.5.5;\n\nimport \"../../authority/Owned.sol\";\nimport \"./ProxyBase.sol\";\nimport './ContractNames.sol';\n\n/**\n * @title Proxied provides modifiers to limit direct access to KittieFight contracts\n * All public/external function of KittieFight system contracts should be pure/view or\n * have one of this modifiers.\n * @author @pash7ka\n */\ncontract Proxied is Owned, ContractNames {\n    ProxyBase public proxy;\n\n    /**\n     * @notice Set/update address of Proxy contract\n     */\n    function setProxy(ProxyBase _proxy) public onlyOwner {\n        proxy = _proxy;\n    }\n\n    modifier onlyProxy() {\n        _isProxy();\n        _;\n    }\n\n    modifier onlyContract(string memory name) {\n        _isContractAuthorized(name);\n        _;\n    }\n\n    function _isContractAuthorized(string memory name) internal view {\n        require(address(proxy) != address(0), \"No Proxy\");\n        address allowedSender = proxy.getContract(name);\n        assert(allowedSender != address(0));    //If this fails, name is probably incorrect\n        require(msg.sender == allowedSender, \"Access is only allowed from specific contract\");\n    }\n\n    function _isProxy() internal view {\n        require(address(proxy) != address(0), \"No Proxy\");\n        require(msg.sender == address(proxy), \"Only through Proxy\");\n    }\n}\n",
  "sourcePath": "/home/ziwei/Documents/kittieFight-new/algorithm/alpha/contracts/modules/proxy/Proxied.sol",
  "compiler": {
    "name": "solc",
    "version": "0.5.10+commit.5a6ea5b1.Emscripten.clang"
  },
  "schemaVersion": "3.0.11",
  "updatedAt": "2019-08-03T18:50:23.219Z",
  "devdoc": {
    "author": "@pash7ka",
    "methods": {},
    "title": "Proxied provides modifiers to limit direct access to KittieFight contracts All public/external function of KittieFight system contracts should be pure/view or have one of this modifiers."
  },
  "userdoc": {
    "methods": {
      "setProxy(address)": {
        "notice": "Set/update address of Proxy contract"
      }
    }
  }
}