{
  "contractName": "Proxied",
  "abi": [
    {
      "constant": true,
      "inputs": [],
      "name": "owner",
      "outputs": [
        {
          "internalType": "address payable",
          "name": "",
          "type": "address"
        }
      ],
      "payable": false,
      "stateMutability": "view",
      "type": "function"
    },
    {
      "constant": true,
      "inputs": [],
      "name": "proxy",
      "outputs": [
        {
          "internalType": "contract ProxyBase",
          "name": "",
          "type": "address"
        }
      ],
      "payable": false,
      "stateMutability": "view",
      "type": "function"
    },
    {
      "constant": false,
      "inputs": [
        {
          "internalType": "address payable",
          "name": "newOwner",
          "type": "address"
        }
      ],
      "name": "transferOwnership",
      "outputs": [],
      "payable": false,
      "stateMutability": "nonpayable",
      "type": "function"
    },
    {
      "constant": false,
      "inputs": [
        {
          "internalType": "contract ProxyBase",
          "name": "_proxy",
          "type": "address"
        }
      ],
      "name": "setProxy",
      "outputs": [],
      "payable": false,
      "stateMutability": "nonpayable",
      "type": "function"
    }
  ],
  "bytecode": "0x6080604052336000806101000a81548173ffffffffffffffffffffffffffffffffffffffff021916908373ffffffffffffffffffffffffffffffffffffffff160217905550610355806100536000396000f3fe608060405234801561001057600080fd5b506004361061004c5760003560e01c80638da5cb5b1461005157806397107d6d1461009b578063ec556889146100df578063f2fde38b14610129575b600080fd5b61005961016d565b604051808273ffffffffffffffffffffffffffffffffffffffff1673ffffffffffffffffffffffffffffffffffffffff16815260200191505060405180910390f35b6100dd600480360360208110156100b157600080fd5b81019080803573ffffffffffffffffffffffffffffffffffffffff169060200190929190505050610192565b005b6100e761022c565b604051808273ffffffffffffffffffffffffffffffffffffffff1673ffffffffffffffffffffffffffffffffffffffff16815260200191505060405180910390f35b61016b6004803603602081101561013f57600080fd5b81019080803573ffffffffffffffffffffffffffffffffffffffff169060200190929190505050610252565b005b6000809054906101000a900473ffffffffffffffffffffffffffffffffffffffff1681565b6000809054906101000a900473ffffffffffffffffffffffffffffffffffffffff1673ffffffffffffffffffffffffffffffffffffffff163373ffffffffffffffffffffffffffffffffffffffff16146101e857fe5b80600160006101000a81548173ffffffffffffffffffffffffffffffffffffffff021916908373ffffffffffffffffffffffffffffffffffffffff16021790555050565b600160009054906101000a900473ffffffffffffffffffffffffffffffffffffffff1681565b6000809054906101000a900473ffffffffffffffffffffffffffffffffffffffff1673ffffffffffffffffffffffffffffffffffffffff163373ffffffffffffffffffffffffffffffffffffffff16146102a857fe5b600073ffffffffffffffffffffffffffffffffffffffff168173ffffffffffffffffffffffffffffffffffffffff161461031d57806000806101000a81548173ffffffffffffffffffffffffffffffffffffffff021916908373ffffffffffffffffffffffffffffffffffffffff1602179055505b5056fea265627a7a723158209ba34806f437326adb6fb9211eb9ada18709610ca3027c4555e1aae6479ffa4e64736f6c63430005110032",
  "source": "pragma solidity ^0.5.5;\r\n\r\nimport \"../../authority/Owned.sol\";\r\nimport \"./ProxyBase.sol\";\r\nimport './ContractNames.sol';\r\n\r\n/**\r\n * @title Proxied provides modifiers to limit direct access to KittieFight contracts\r\n * All public/external function of KittieFight system contracts should be pure/view or\r\n * have one of this modifiers.\r\n * @author @pash7ka\r\n */\r\ncontract Proxied is Owned, ContractNames {\r\n    ProxyBase public proxy;\r\n\r\n    /**\r\n     * @notice Set/update address of Proxy contract\r\n     */\r\n    function setProxy(ProxyBase _proxy) public onlyOwner {\r\n        proxy = _proxy;\r\n    }\r\n\r\n    modifier onlyProxy() {\r\n        _isProxy();\r\n        _;\r\n    }\r\n\r\n    modifier onlyContract(string memory name) {\r\n        _isContractAuthorized(name);\r\n        _;\r\n    }\r\n\r\n    function _isContractAuthorized(string memory name) internal view {\r\n        require(address(proxy) != address(0), \"No Proxy\");\r\n        address allowedSender = proxy.getContract(name);\r\n        assert(allowedSender != address(0));    //If this fails, name is probably incorrect\r\n        require(msg.sender == allowedSender, \"Access is only allowed from specific contract\");\r\n    }\r\n\r\n    function _isProxy() internal view {\r\n        require(address(proxy) != address(0), \"No Proxy\");\r\n        require(msg.sender == address(proxy), \"Only through Proxy\");\r\n    }\r\n}\r\n",
  "sourcePath": "C:\\Users\\Alex\\Desktop\\MyProjects\\contracts\\contracts\\modules\\proxy\\Proxied.sol",
  "compiler": {
    "name": "solc",
    "version": "0.5.17+commit.d19bba13.Emscripten.clang"
  },
  "schemaVersion": "3.0.11",
  "updatedAt": "2020-06-20T14:39:32.297Z",
  "devdoc": {
    "author": "@pash7ka",
    "methods": {},
    "title": "Proxied provides modifiers to limit direct access to KittieFight contracts All public/external function of KittieFight system contracts should be pure/view or have one of this modifiers."
  },
  "userdoc": {
    "methods": {
      "setProxy(address)": {
        "notice": "Set/update address of Proxy contract"
      }
    }
  }
}