{
  "contractName": "ProxyBase",
  "abi": [
    {
      "constant": false,
      "inputs": [
        {
          "internalType": "string",
          "name": "name",
          "type": "string"
        },
        {
          "internalType": "address",
          "name": "contractAddress",
          "type": "address"
        }
      ],
      "name": "addContract",
      "outputs": [],
      "payable": false,
      "stateMutability": "nonpayable",
      "type": "function"
    },
    {
      "constant": true,
      "inputs": [
        {
          "internalType": "string",
          "name": "name",
          "type": "string"
        }
      ],
      "name": "getContract",
      "outputs": [
        {
          "internalType": "address",
          "name": "",
          "type": "address"
        }
      ],
      "payable": false,
      "stateMutability": "view",
      "type": "function"
    },
    {
      "constant": true,
      "inputs": [
        {
          "internalType": "bytes32[]",
          "name": "nameHashes",
          "type": "bytes32[]"
        }
      ],
      "name": "getContracts",
      "outputs": [
        {
          "internalType": "address[]",
          "name": "",
          "type": "address[]"
        }
      ],
      "payable": false,
      "stateMutability": "view",
      "type": "function"
    },
    {
      "constant": true,
      "inputs": [],
      "name": "owner",
      "outputs": [
        {
          "internalType": "address payable",
          "name": "",
          "type": "address"
        }
      ],
      "payable": false,
      "stateMutability": "view",
      "type": "function"
    },
    {
      "constant": false,
      "inputs": [
        {
          "internalType": "string",
          "name": "name",
          "type": "string"
        }
      ],
      "name": "removeContract",
      "outputs": [],
      "payable": false,
      "stateMutability": "nonpayable",
      "type": "function"
    },
    {
      "constant": false,
      "inputs": [
        {
          "internalType": "address payable",
          "name": "newOwner",
          "type": "address"
        }
      ],
      "name": "transferOwnership",
      "outputs": [],
      "payable": false,
      "stateMutability": "nonpayable",
      "type": "function"
    },
    {
      "constant": false,
      "inputs": [
        {
          "internalType": "string",
          "name": "name",
          "type": "string"
        },
        {
          "internalType": "address",
          "name": "contractAddress",
          "type": "address"
        }
      ],
      "name": "updateContract",
      "outputs": [],
      "payable": false,
      "stateMutability": "nonpayable",
      "type": "function"
    },
    {
      "constant": true,
      "inputs": [],
      "name": "addressOfRegister",
      "outputs": [
        {
          "internalType": "address",
          "name": "",
          "type": "address"
        }
      ],
      "payable": false,
      "stateMutability": "view",
      "type": "function"
    },
    {
      "constant": true,
      "inputs": [],
      "name": "addressOfProfileDB",
      "outputs": [
        {
          "internalType": "address",
          "name": "",
          "type": "address"
        }
      ],
      "payable": false,
      "stateMutability": "view",
      "type": "function"
    },
    {
      "constant": true,
      "inputs": [],
      "name": "addressOfKittieHell",
      "outputs": [
        {
          "internalType": "address",
          "name": "",
          "type": "address"
        }
      ],
      "payable": false,
      "stateMutability": "view",
      "type": "function"
    },
    {
      "constant": true,
      "inputs": [],
      "name": "addressOfKittieHellDB",
      "outputs": [
        {
          "internalType": "address",
          "name": "",
          "type": "address"
        }
      ],
      "payable": false,
      "stateMutability": "view",
      "type": "function"
    },
    {
      "constant": true,
      "inputs": [],
      "name": "addressOfGameManager",
      "outputs": [
        {
          "internalType": "address",
          "name": "",
          "type": "address"
        }
      ],
      "payable": false,
      "stateMutability": "view",
      "type": "function"
    },
    {
      "constant": true,
      "inputs": [],
      "name": "addressOfGMSetterDB",
      "outputs": [
        {
          "internalType": "address",
          "name": "",
          "type": "address"
        }
      ],
      "payable": false,
      "stateMutability": "view",
      "type": "function"
    },
    {
      "constant": true,
      "inputs": [],
      "name": "addressOfGMGetterDB",
      "outputs": [
        {
          "internalType": "address",
          "name": "",
          "type": "address"
        }
      ],
      "payable": false,
      "stateMutability": "view",
      "type": "function"
    },
    {
      "constant": true,
      "inputs": [],
      "name": "addressOfEndowmentDB",
      "outputs": [
        {
          "internalType": "address",
          "name": "",
          "type": "address"
        }
      ],
      "payable": false,
      "stateMutability": "view",
      "type": "function"
    },
    {
      "constant": true,
      "inputs": [],
      "name": "addressOfTimeContract",
      "outputs": [
        {
          "internalType": "address",
          "name": "",
          "type": "address"
        }
      ],
      "payable": false,
      "stateMutability": "view",
      "type": "function"
    },
    {
      "constant": true,
      "inputs": [],
      "name": "addressOfCronJob",
      "outputs": [
        {
          "internalType": "address",
          "name": "",
          "type": "address"
        }
      ],
      "payable": false,
      "stateMutability": "view",
      "type": "function"
    },
    {
      "constant": true,
      "inputs": [],
      "name": "addressOfRoleDB",
      "outputs": [
        {
          "internalType": "address",
          "name": "",
          "type": "address"
        }
      ],
      "payable": false,
      "stateMutability": "view",
      "type": "function"
    },
    {
      "constant": true,
      "inputs": [],
      "name": "addressOfEndowmentFund",
      "outputs": [
        {
          "internalType": "address",
          "name": "",
          "type": "address"
        }
      ],
      "payable": false,
      "stateMutability": "view",
      "type": "function"
    },
    {
      "constant": true,
      "inputs": [],
      "name": "addressOfDistribution",
      "outputs": [
        {
          "internalType": "address",
          "name": "",
          "type": "address"
        }
      ],
      "payable": false,
      "stateMutability": "view",
      "type": "function"
    },
    {
      "constant": true,
      "inputs": [],
      "name": "addressOfGameVarAndFee",
      "outputs": [
        {
          "internalType": "address",
          "name": "",
          "type": "address"
        }
      ],
      "payable": false,
      "stateMutability": "view",
      "type": "function"
    },
    {
      "constant": true,
      "inputs": [],
      "name": "addressOfForfeiter",
      "outputs": [
        {
          "internalType": "address",
          "name": "",
          "type": "address"
        }
      ],
      "payable": false,
      "stateMutability": "view",
      "type": "function"
    },
    {
      "constant": true,
      "inputs": [],
      "name": "addressOfScheduler",
      "outputs": [
        {
          "internalType": "address",
          "name": "",
          "type": "address"
        }
      ],
      "payable": false,
      "stateMutability": "view",
      "type": "function"
    },
    {
      "constant": true,
      "inputs": [],
      "name": "addressOfHitsResolve",
      "outputs": [
        {
          "internalType": "address",
          "name": "",
          "type": "address"
        }
      ],
      "payable": false,
      "stateMutability": "view",
      "type": "function"
    },
    {
      "constant": true,
      "inputs": [],
      "name": "addressOfBetting",
      "outputs": [
        {
          "internalType": "address",
          "name": "",
          "type": "address"
        }
      ],
      "payable": false,
      "stateMutability": "view",
      "type": "function"
    },
    {
      "constant": true,
      "inputs": [],
      "name": "addressOfRarityCalculator",
      "outputs": [
        {
          "internalType": "address",
          "name": "",
          "type": "address"
        }
      ],
      "payable": false,
      "stateMutability": "view",
      "type": "function"
    },
    {
      "constant": true,
      "inputs": [],
      "name": "addressOfWithdrawalPool",
      "outputs": [
        {
          "internalType": "address",
          "name": "",
          "type": "address"
        }
      ],
      "payable": false,
      "stateMutability": "view",
      "type": "function"
    },
    {
      "constant": true,
      "inputs": [],
      "name": "addressOfTimeFrame",
      "outputs": [
        {
          "internalType": "address",
          "name": "",
          "type": "address"
        }
      ],
      "payable": false,
      "stateMutability": "view",
      "type": "function"
    },
    {
      "constant": true,
      "inputs": [],
      "name": "addressOfHoneypotAllocationAlgo",
      "outputs": [
        {
          "internalType": "address",
          "name": "",
          "type": "address"
        }
      ],
      "payable": false,
      "stateMutability": "view",
      "type": "function"
    },
    {
      "constant": true,
      "inputs": [],
      "name": "addressOfEarningsTracker",
      "outputs": [
        {
          "internalType": "address",
          "name": "",
          "type": "address"
        }
      ],
      "payable": false,
      "stateMutability": "view",
      "type": "function"
    },
    {
      "constant": true,
      "inputs": [],
      "name": "addressOfWithdrawaPool",
      "outputs": [
        {
          "internalType": "address",
          "name": "",
          "type": "address"
        }
      ],
      "payable": false,
      "stateMutability": "view",
      "type": "function"
    }
  ],
  "bytecode": "0x6080604052336000806101000a81548173ffffffffffffffffffffffffffffffffffffffff021916908373ffffffffffffffffffffffffffffffffffffffff160217905550611dc7806100536000396000f3fe608060405234801561001057600080fd5b50600436106101e55760003560e01c80638ec82c8a1161010f578063bf5b6016116100a2578063eed9c25b11610071578063eed9c25b14610c80578063f2fde38b14610cca578063f6df25d514610d0e578063fcc47c4f14610d58576101e5565b8063bf5b601614610ac7578063c5ed75bb14610ba2578063d3b12c1514610bec578063ee71227f14610c36576101e5565b80639a087b97116100de5780639a087b971461099f578063a0d1170b146109e9578063b86ee09714610a33578063beb9eb0b14610a7d576101e5565b80638ec82c8a1461080657806393812d201461085057806397623b581461089a57806398f1603114610955576101e5565b80634880df0e11610187578063697a60b311610156578063697a60b31461064d57806384d67617146107285780638da5cb5b146107725780638e771e79146107bc576101e5565b80634880df0e146104a1578063492e46921461056f5780634e7f067b146105b95780635c75712514610603576101e5565b806335817773116101c357806335817773146102c85780633bdc5a5d146103c357806342febb691461040d578063462d46f614610457576101e5565b806320331d0f146101ea57806320ba591014610234578063348c60191461027e575b600080fd5b6101f2610da2565b604051808273ffffffffffffffffffffffffffffffffffffffff1673ffffffffffffffffffffffffffffffffffffffff16815260200191505060405180910390f35b61023c610de7565b604051808273ffffffffffffffffffffffffffffffffffffffff1673ffffffffffffffffffffffffffffffffffffffff16815260200191505060405180910390f35b610286610e2c565b604051808273ffffffffffffffffffffffffffffffffffffffff1673ffffffffffffffffffffffffffffffffffffffff16815260200191505060405180910390f35b610381600480360360208110156102de57600080fd5b81019080803590602001906401000000008111156102fb57600080fd5b82018360208201111561030d57600080fd5b8035906020019184600183028401116401000000008311171561032f57600080fd5b91908080601f016020809104026020016040519081016040528093929190818152602001838380828437600081840152601f19601f820116905080830192505050505050509192919290505050610e71565b604051808273ffffffffffffffffffffffffffffffffffffffff1673ffffffffffffffffffffffffffffffffffffffff16815260200191505060405180910390f35b6103cb6110b2565b604051808273ffffffffffffffffffffffffffffffffffffffff1673ffffffffffffffffffffffffffffffffffffffff16815260200191505060405180910390f35b6104156110f7565b604051808273ffffffffffffffffffffffffffffffffffffffff1673ffffffffffffffffffffffffffffffffffffffff16815260200191505060405180910390f35b61045f61113c565b604051808273ffffffffffffffffffffffffffffffffffffffff1673ffffffffffffffffffffffffffffffffffffffff16815260200191505060405180910390f35b610518600480360360208110156104b757600080fd5b81019080803590602001906401000000008111156104d457600080fd5b8201836020820111156104e657600080fd5b8035906020019184602083028401116401000000008311171561050857600080fd5b9091929391929390505050611181565b6040518080602001828103825283818151815260200191508051906020019060200280838360005b8381101561055b578082015181840152602081019050610540565b505050509050019250505060405180910390f35b61057761126e565b604051808273ffffffffffffffffffffffffffffffffffffffff1673ffffffffffffffffffffffffffffffffffffffff16815260200191505060405180910390f35b6105c16112b3565b604051808273ffffffffffffffffffffffffffffffffffffffff1673ffffffffffffffffffffffffffffffffffffffff16815260200191505060405180910390f35b61060b6112f8565b604051808273ffffffffffffffffffffffffffffffffffffffff1673ffffffffffffffffffffffffffffffffffffffff16815260200191505060405180910390f35b6107266004803603604081101561066357600080fd5b810190808035906020019064010000000081111561068057600080fd5b82018360208201111561069257600080fd5b803590602001918460018302840111640100000000831117156106b457600080fd5b91908080601f016020809104026020016040519081016040528093929190818152602001838380828437600081840152601f19601f820116905080830192505050505050509192919290803573ffffffffffffffffffffffffffffffffffffffff16906020019092919050505061133d565b005b6107306114cc565b604051808273ffffffffffffffffffffffffffffffffffffffff1673ffffffffffffffffffffffffffffffffffffffff16815260200191505060405180910390f35b61077a611511565b604051808273ffffffffffffffffffffffffffffffffffffffff1673ffffffffffffffffffffffffffffffffffffffff16815260200191505060405180910390f35b6107c4611536565b604051808273ffffffffffffffffffffffffffffffffffffffff1673ffffffffffffffffffffffffffffffffffffffff16815260200191505060405180910390f35b61080e61157b565b604051808273ffffffffffffffffffffffffffffffffffffffff1673ffffffffffffffffffffffffffffffffffffffff16815260200191505060405180910390f35b6108586115c0565b604051808273ffffffffffffffffffffffffffffffffffffffff1673ffffffffffffffffffffffffffffffffffffffff16815260200191505060405180910390f35b610953600480360360208110156108b057600080fd5b81019080803590602001906401000000008111156108cd57600080fd5b8201836020820111156108df57600080fd5b8035906020019184600183028401116401000000008311171561090157600080fd5b91908080601f016020809104026020016040519081016040528093929190818152602001838380828437600081840152601f19601f820116905080830192505050505050509192919290505050611605565b005b61095d611794565b604051808273ffffffffffffffffffffffffffffffffffffffff1673ffffffffffffffffffffffffffffffffffffffff16815260200191505060405180910390f35b6109a76117d9565b604051808273ffffffffffffffffffffffffffffffffffffffff1673ffffffffffffffffffffffffffffffffffffffff16815260200191505060405180910390f35b6109f161181e565b604051808273ffffffffffffffffffffffffffffffffffffffff1673ffffffffffffffffffffffffffffffffffffffff16815260200191505060405180910390f35b610a3b611863565b604051808273ffffffffffffffffffffffffffffffffffffffff1673ffffffffffffffffffffffffffffffffffffffff16815260200191505060405180910390f35b610a856118a8565b604051808273ffffffffffffffffffffffffffffffffffffffff1673ffffffffffffffffffffffffffffffffffffffff16815260200191505060405180910390f35b610ba060048036036040811015610add57600080fd5b8101908080359060200190640100000000811115610afa57600080fd5b820183602082011115610b0c57600080fd5b80359060200191846001830284011164010000000083111715610b2e57600080fd5b91908080601f016020809104026020016040519081016040528093929190818152602001838380828437600081840152601f19601f820116905080830192505050505050509192919290803573ffffffffffffffffffffffffffffffffffffffff1690602001909291905050506118ed565b005b610baa611b01565b604051808273ffffffffffffffffffffffffffffffffffffffff1673ffffffffffffffffffffffffffffffffffffffff16815260200191505060405180910390f35b610bf4611b46565b604051808273ffffffffffffffffffffffffffffffffffffffff1673ffffffffffffffffffffffffffffffffffffffff16815260200191505060405180910390f35b610c3e611b8b565b604051808273ffffffffffffffffffffffffffffffffffffffff1673ffffffffffffffffffffffffffffffffffffffff16815260200191505060405180910390f35b610c88611bd0565b604051808273ffffffffffffffffffffffffffffffffffffffff1673ffffffffffffffffffffffffffffffffffffffff16815260200191505060405180910390f35b610d0c60048036036020811015610ce057600080fd5b81019080803573ffffffffffffffffffffffffffffffffffffffff169060200190929190505050611c15565b005b610d16611ce3565b604051808273ffffffffffffffffffffffffffffffffffffffff1673ffffffffffffffffffffffffffffffffffffffff16815260200191505060405180910390f35b610d60611d28565b604051808273ffffffffffffffffffffffffffffffffffffffff1673ffffffffffffffffffffffffffffffffffffffff16815260200191505060405180910390f35b6000610de26040518060400160405280600981526020017f54696d654672616d650000000000000000000000000000000000000000000000815250610e71565b905090565b6000610e276040518060400160405280600781526020017f42657474696e6700000000000000000000000000000000000000000000000000815250610e71565b905090565b6000610e6c6040518060400160405280601681526020017f486f6e6579706f74416c6c6f636174696f6e416c676f00000000000000000000815250610e71565b905090565b60008082805190602001209050600073ffffffffffffffffffffffffffffffffffffffff166001600083815260200190815260200160002060009054906101000a900473ffffffffffffffffffffffffffffffffffffffff1673ffffffffffffffffffffffffffffffffffffffff1614156110765760608360405160200180807f436f6e7472616374206e6f7420726567697374657265643a200000000000000081525060190182805190602001908083835b60208310610f475780518252602082019150602081019050602083039250610f24565b6001836020036101000a0380198251168184511680821785525050505050509050019150506040516020818303038152906040526040516024018080602001828103825283818151815260200191508051906020019080838360005b83811015610fbe578082015181840152602081019050610fa3565b50505050905090810190601f168015610feb5780820380516001836020036101000a031916815260200191505b50925050506040516020818303038152906040527f08c379a0000000000000000000000000000000000000000000000000000000007bffffffffffffffffffffffffffffffffffffffffffffffffffffffff19166020820180517bffffffffffffffffffffffffffffffffffffffffffffffffffffffff838183161783525050505090508060208201fd5b6001600082815260200190815260200160002060009054906101000a900473ffffffffffffffffffffffffffffffffffffffff16915050919050565b60006110f26040518060400160405280600f81526020017f4561726e696e6773547261636b65720000000000000000000000000000000000815250610e71565b905090565b60006111376040518060400160405280600a81526020017f4b697474696548656c6c00000000000000000000000000000000000000000000815250610e71565b905090565b600061117c6040518060400160405280600d81526020017f47616d65566172416e6446656500000000000000000000000000000000000000815250610e71565b905090565b606080838390506040519080825280602002602001820160405280156111b65781602001602082028038833980820191505090505b50905060008090505b8484905081101561126357600160008686848181106111da57fe5b90506020020135815260200190815260200160002060009054906101000a900473ffffffffffffffffffffffffffffffffffffffff1682828151811061121c57fe5b602002602001019073ffffffffffffffffffffffffffffffffffffffff16908173ffffffffffffffffffffffffffffffffffffffff168152505080806001019150506111bf565b508091505092915050565b60006112ae6040518060400160405280601081526020017f52617269747943616c63756c61746f7200000000000000000000000000000000815250610e71565b905090565b60006112f36040518060400160405280600c81526020017f54696d65436f6e74726163740000000000000000000000000000000000000000815250610e71565b905090565b60006113386040518060400160405280600981526020017f50726f66696c6544420000000000000000000000000000000000000000000000815250610e71565b905090565b6000809054906101000a900473ffffffffffffffffffffffffffffffffffffffff1673ffffffffffffffffffffffffffffffffffffffff163373ffffffffffffffffffffffffffffffffffffffff161461139357fe5b600082805190602001209050600073ffffffffffffffffffffffffffffffffffffffff166001600083815260200190815260200160002060009054906101000a900473ffffffffffffffffffffffffffffffffffffffff1673ffffffffffffffffffffffffffffffffffffffff161415611475576040517f08c379a00000000000000000000000000000000000000000000000000000000081526004018080602001828103825260208152602001807f4e6f20636f6e747261637420776974682074686973206e616d6520666f756e6481525060200191505060405180910390fd5b816001600083815260200190815260200160002060006101000a81548173ffffffffffffffffffffffffffffffffffffffff021916908373ffffffffffffffffffffffffffffffffffffffff160217905550505050565b600061150c6040518060400160405280600c81526020017f4b697474696548656c6c44420000000000000000000000000000000000000000815250610e71565b905090565b6000809054906101000a900473ffffffffffffffffffffffffffffffffffffffff1681565b60006115766040518060400160405280600681526020017f526f6c6544420000000000000000000000000000000000000000000000000000815250610e71565b905090565b60006115bb6040518060400160405280600b81526020017f486974735265736f6c7665000000000000000000000000000000000000000000815250610e71565b905090565b60006116006040518060400160405280600981526020017f5363686564756c65720000000000000000000000000000000000000000000000815250610e71565b905090565b6000809054906101000a900473ffffffffffffffffffffffffffffffffffffffff1673ffffffffffffffffffffffffffffffffffffffff163373ffffffffffffffffffffffffffffffffffffffff161461165b57fe5b600081805190602001209050600073ffffffffffffffffffffffffffffffffffffffff166001600083815260200190815260200160002060009054906101000a900473ffffffffffffffffffffffffffffffffffffffff1673ffffffffffffffffffffffffffffffffffffffff16141561173d576040517f08c379a00000000000000000000000000000000000000000000000000000000081526004018080602001828103825260208152602001807f4e6f20636f6e747261637420776974682074686973206e616d6520666f756e6481525060200191505060405180910390fd5b60006001600083815260200190815260200160002060006101000a81548173ffffffffffffffffffffffffffffffffffffffff021916908373ffffffffffffffffffffffffffffffffffffffff1602179055505050565b60006117d46040518060400160405280600c81526020017f5769746864726177506f6f6c0000000000000000000000000000000000000000815250610e71565b905090565b60006118196040518060400160405280600981526020017f466f726665697465720000000000000000000000000000000000000000000000815250610e71565b905090565b600061185e6040518060400160405280600c81526020017f446973747269627574696f6e0000000000000000000000000000000000000000815250610e71565b905090565b60006118a36040518060400160405280600e81526020017f5769746864726177616c506f6f6c000000000000000000000000000000000000815250610e71565b905090565b60006118e86040518060400160405280600a81526020017f474d536574746572444200000000000000000000000000000000000000000000815250610e71565b905090565b6000809054906101000a900473ffffffffffffffffffffffffffffffffffffffff1673ffffffffffffffffffffffffffffffffffffffff163373ffffffffffffffffffffffffffffffffffffffff161461194357fe5b600073ffffffffffffffffffffffffffffffffffffffff168173ffffffffffffffffffffffffffffffffffffffff1614156119e6576040517f08c379a00000000000000000000000000000000000000000000000000000000081526004018080602001828103825260208152602001807f436f6e747261637420616464726573732063616e206e6f74206265207a65726f81525060200191505060405180910390fd5b600082805190602001209050600073ffffffffffffffffffffffffffffffffffffffff166001600083815260200190815260200160002060009054906101000a900473ffffffffffffffffffffffffffffffffffffffff1673ffffffffffffffffffffffffffffffffffffffff1614611aaa576040517f08c379a0000000000000000000000000000000000000000000000000000000008152600401808060200182810382526025815260200180611d6e6025913960400191505060405180910390fd5b816001600083815260200190815260200160002060006101000a81548173ffffffffffffffffffffffffffffffffffffffff021916908373ffffffffffffffffffffffffffffffffffffffff160217905550505050565b6000611b416040518060400160405280600781526020017f43726f6e4a6f6200000000000000000000000000000000000000000000000000815250610e71565b905090565b6000611b866040518060400160405280600a81526020017f474d476574746572444200000000000000000000000000000000000000000000815250610e71565b905090565b6000611bcb6040518060400160405280600b81526020017f47616d654d616e61676572000000000000000000000000000000000000000000815250610e71565b905090565b6000611c106040518060400160405280600881526020017f5265676973746572000000000000000000000000000000000000000000000000815250610e71565b905090565b6000809054906101000a900473ffffffffffffffffffffffffffffffffffffffff1673ffffffffffffffffffffffffffffffffffffffff163373ffffffffffffffffffffffffffffffffffffffff1614611c6b57fe5b600073ffffffffffffffffffffffffffffffffffffffff168173ffffffffffffffffffffffffffffffffffffffff1614611ce057806000806101000a81548173ffffffffffffffffffffffffffffffffffffffff021916908373ffffffffffffffffffffffffffffffffffffffff1602179055505b50565b6000611d236040518060400160405280600b81526020017f456e646f776d656e744442000000000000000000000000000000000000000000815250610e71565b905090565b6000611d686040518060400160405280600d81526020017f456e646f776d656e7446756e6400000000000000000000000000000000000000815250610e71565b90509056fe436f6e747261637420776974682074686973206e616d6520616c7265616479206164646564a265627a7a72315820f44ae0150ccc743ff1172c978a4165bf171c7059ee848c38f2f52c514599af2464736f6c63430005110032",
  "source": "pragma solidity ^0.5.5;\r\n\r\nimport '../../ContractManager.sol';\r\nimport './ContractNames.sol';\r\n\r\n/**\r\n * @title ProxyBase is a common part for all interface contracts in Proxy,\r\n * it allows to get addresses of proxied contracts\r\n */\r\ncontract ProxyBase is ContractManager, ContractNames {\r\n\r\n    /**\r\n     * Getters for KittyFight system contracts\r\n     */\r\n     function addressOfRegister() public view returns(address)          {return getContract(CONTRACT_NAME_REGISTER);}\r\n     function addressOfProfileDB() public view returns(address)         {return getContract(CONTRACT_NAME_PROFILE_DB);}\r\n     function addressOfKittieHell() public view returns(address)        {return getContract(CONTRACT_NAME_KITTIEHELL);}\r\n     function addressOfKittieHellDB() public view returns(address)      {return getContract(CONTRACT_NAME_KITTIEHELL_DB);}\r\n     function addressOfGameManager() public view returns(address)       {return getContract(CONTRACT_NAME_GAMEMANAGER);}\r\n     function addressOfGMSetterDB() public view returns(address)        {return getContract(CONTRACT_NAME_GM_SETTER_DB);}\r\n     function addressOfGMGetterDB() public view returns(address)        {return getContract(CONTRACT_NAME_GM_GETTER_DB);}\r\n     function addressOfEndowmentDB() public view returns(address)       {return getContract(CONTRACT_NAME_ENDOWMENT_DB);}\r\n     function addressOfTimeContract() public view returns(address)      {return getContract(CONTRACT_NAME_TIMECONTRACT);}\r\n     function addressOfCronJob() public view returns(address)           {return getContract(CONTRACT_NAME_CRONJOB);}\r\n     function addressOfRoleDB() public view returns(address)            {return getContract(CONTRACT_NAME_ROLE_DB);}\r\n     function addressOfEndowmentFund() public view returns(address)     {return getContract(CONTRACT_NAME_ENDOWMENT_FUND);}\r\n     function addressOfDistribution() public view returns(address)      {return getContract(CONTRACT_NAME_DISTRIBUTION);}\r\n     function addressOfGameVarAndFee() public view returns(address)     {return getContract(CONTRACT_NAME_GAMEVARANDFEE);}\r\n     function addressOfForfeiter() public view returns(address)         {return getContract(CONTRACT_NAME_FORFEITER);}\r\n     function addressOfScheduler() public view returns(address)         {return getContract(CONTRACT_NAME_SCHEDULER);}\r\n     function addressOfHitsResolve() public view returns(address)       {return getContract(CONTRACT_NAME_HITSRESOLVE);}\r\n     function addressOfBetting() public view returns(address)           {return getContract(CONTRACT_NAME_BETTING);}\r\n     function addressOfRarityCalculator() public view returns(address)  {return getContract(CONTRACT_NAME_RARITYCALCULATOR);}\r\n     function addressOfWithdrawalPool() public view returns(address)    {return getContract(CONTRACT_NAME_WITHDRAWAL_POOL);}\r\n     function addressOfTimeFrame() public view returns(address)         {return getContract(CONTRACT_NAME_TIMEFRAME);}\r\n     function addressOfHoneypotAllocationAlgo() public view returns(address) {return getContract(CONTRACT_NAME_HONEYPOT_ALLOCATION_ALGO);}\r\n     function addressOfEarningsTracker() public view returns(address)   {return getContract(CONTRACT_NAME_EARNINGS_TRACKER);}\r\n     function addressOfWithdrawaPool() public view returns(address)     {return getContract(CONTRACT_NAME_WITHDRAW_POOL);}\r\n}\r\n",
  "sourcePath": "C:\\Users\\Alex\\Desktop\\MyProjects\\contracts\\contracts\\modules\\proxy\\ProxyBase.sol",
  "compiler": {
    "name": "solc",
    "version": "0.5.17+commit.d19bba13.Emscripten.clang"
  },
  "schemaVersion": "3.0.11",
  "updatedAt": "2020-05-15T21:45:20.665Z",
  "devdoc": {
    "methods": {},
    "title": "ProxyBase is a common part for all interface contracts in Proxy, it allows to get addresses of proxied contracts"
  },
  "userdoc": {
    "methods": {
      "addressOfRegister()": {
        "notice": "Getters for KittyFight system contracts"
      }
    }
  }
}