{
  "contractName": "ProxyBase",
  "abi": [
    {
      "constant": false,
      "inputs": [
        {
          "internalType": "string",
          "name": "name",
          "type": "string"
        },
        {
          "internalType": "address",
          "name": "contractAddress",
          "type": "address"
        }
      ],
      "name": "addContract",
      "outputs": [],
      "payable": false,
      "stateMutability": "nonpayable",
      "type": "function"
    },
    {
      "constant": true,
      "inputs": [
        {
          "internalType": "string",
          "name": "name",
          "type": "string"
        }
      ],
      "name": "getContract",
      "outputs": [
        {
          "internalType": "address",
          "name": "",
          "type": "address"
        }
      ],
      "payable": false,
      "stateMutability": "view",
      "type": "function"
    },
    {
      "constant": true,
      "inputs": [],
      "name": "owner",
      "outputs": [
        {
          "internalType": "address payable",
          "name": "",
          "type": "address"
        }
      ],
      "payable": false,
      "stateMutability": "view",
      "type": "function"
    },
    {
      "constant": false,
      "inputs": [
        {
          "internalType": "string",
          "name": "name",
          "type": "string"
        }
      ],
      "name": "removeContract",
      "outputs": [],
      "payable": false,
      "stateMutability": "nonpayable",
      "type": "function"
    },
    {
      "constant": false,
      "inputs": [
        {
          "internalType": "address payable",
          "name": "newOwner",
          "type": "address"
        }
      ],
      "name": "transferOwnership",
      "outputs": [],
      "payable": false,
      "stateMutability": "nonpayable",
      "type": "function"
    },
    {
      "constant": false,
      "inputs": [
        {
          "internalType": "string",
          "name": "name",
          "type": "string"
        },
        {
          "internalType": "address",
          "name": "contractAddress",
          "type": "address"
        }
      ],
      "name": "updateContract",
      "outputs": [],
      "payable": false,
      "stateMutability": "nonpayable",
      "type": "function"
    },
    {
      "constant": true,
      "inputs": [],
      "name": "addressOfRegister",
      "outputs": [
        {
          "internalType": "address",
          "name": "",
          "type": "address"
        }
      ],
      "payable": false,
      "stateMutability": "view",
      "type": "function"
    },
    {
      "constant": true,
      "inputs": [],
      "name": "addressOfProfileDB",
      "outputs": [
        {
          "internalType": "address",
          "name": "",
          "type": "address"
        }
      ],
      "payable": false,
      "stateMutability": "view",
      "type": "function"
    },
    {
      "constant": true,
      "inputs": [],
      "name": "addressOfKittieHell",
      "outputs": [
        {
          "internalType": "address",
          "name": "",
          "type": "address"
        }
      ],
      "payable": false,
      "stateMutability": "view",
      "type": "function"
    },
    {
      "constant": true,
      "inputs": [],
      "name": "addressOfKittieHellDB",
      "outputs": [
        {
          "internalType": "address",
          "name": "",
          "type": "address"
        }
      ],
      "payable": false,
      "stateMutability": "view",
      "type": "function"
    },
    {
      "constant": true,
      "inputs": [],
      "name": "addressOfGameManager",
      "outputs": [
        {
          "internalType": "address",
          "name": "",
          "type": "address"
        }
      ],
      "payable": false,
      "stateMutability": "view",
      "type": "function"
    },
    {
      "constant": true,
      "inputs": [],
      "name": "addressOfGMSetterDB",
      "outputs": [
        {
          "internalType": "address",
          "name": "",
          "type": "address"
        }
      ],
      "payable": false,
      "stateMutability": "view",
      "type": "function"
    },
    {
      "constant": true,
      "inputs": [],
      "name": "addressOfGMGetterDB",
      "outputs": [
        {
          "internalType": "address",
          "name": "",
          "type": "address"
        }
      ],
      "payable": false,
      "stateMutability": "view",
      "type": "function"
    },
    {
      "constant": true,
      "inputs": [],
      "name": "addressOfEndowmentDB",
      "outputs": [
        {
          "internalType": "address",
          "name": "",
          "type": "address"
        }
      ],
      "payable": false,
      "stateMutability": "view",
      "type": "function"
    },
    {
      "constant": true,
      "inputs": [],
      "name": "addressOfTimeContract",
      "outputs": [
        {
          "internalType": "address",
          "name": "",
          "type": "address"
        }
      ],
      "payable": false,
      "stateMutability": "view",
      "type": "function"
    },
    {
      "constant": true,
      "inputs": [],
      "name": "addressOfCronJob",
      "outputs": [
        {
          "internalType": "address",
          "name": "",
          "type": "address"
        }
      ],
      "payable": false,
      "stateMutability": "view",
      "type": "function"
    },
    {
      "constant": true,
      "inputs": [],
      "name": "addressOfRoleDB",
      "outputs": [
        {
          "internalType": "address",
          "name": "",
          "type": "address"
        }
      ],
      "payable": false,
      "stateMutability": "view",
      "type": "function"
    },
    {
      "constant": true,
      "inputs": [],
      "name": "addressOfEndowmentFund",
      "outputs": [
        {
          "internalType": "address",
          "name": "",
          "type": "address"
        }
      ],
      "payable": false,
      "stateMutability": "view",
      "type": "function"
    },
    {
      "constant": true,
      "inputs": [],
      "name": "addressOfDistribution",
      "outputs": [
        {
          "internalType": "address",
          "name": "",
          "type": "address"
        }
      ],
      "payable": false,
      "stateMutability": "view",
      "type": "function"
    },
    {
      "constant": true,
      "inputs": [],
      "name": "addressOfGameVarAndFee",
      "outputs": [
        {
          "internalType": "address",
          "name": "",
          "type": "address"
        }
      ],
      "payable": false,
      "stateMutability": "view",
      "type": "function"
    },
    {
      "constant": true,
      "inputs": [],
      "name": "addressOfForfeiter",
      "outputs": [
        {
          "internalType": "address",
          "name": "",
          "type": "address"
        }
      ],
      "payable": false,
      "stateMutability": "view",
      "type": "function"
    },
    {
      "constant": true,
      "inputs": [],
      "name": "addressOfScheduler",
      "outputs": [
        {
          "internalType": "address",
          "name": "",
          "type": "address"
        }
      ],
      "payable": false,
      "stateMutability": "view",
      "type": "function"
    },
    {
      "constant": true,
      "inputs": [],
      "name": "addressOfHitsResolve",
      "outputs": [
        {
          "internalType": "address",
          "name": "",
          "type": "address"
        }
      ],
      "payable": false,
      "stateMutability": "view",
      "type": "function"
    },
    {
      "constant": true,
      "inputs": [],
      "name": "addressOfBetting",
      "outputs": [
        {
          "internalType": "address",
          "name": "",
          "type": "address"
        }
      ],
      "payable": false,
      "stateMutability": "view",
      "type": "function"
    },
    {
      "constant": true,
      "inputs": [],
      "name": "addressOfRarityCalculator",
      "outputs": [
        {
          "internalType": "address",
          "name": "",
          "type": "address"
        }
      ],
      "payable": false,
      "stateMutability": "view",
      "type": "function"
    }
  ],
  "bytecode": "0x6080604052336000806101000a81548173ffffffffffffffffffffffffffffffffffffffff021916908373ffffffffffffffffffffffffffffffffffffffff1602179055506119d7806100536000396000f3fe608060405234801561001057600080fd5b50600436106101735760003560e01c806393812d20116100de578063c5ed75bb11610097578063eed9c25b11610071578063eed9c25b146109ce578063f2fde38b14610a18578063f6df25d514610a5c578063fcc47c4f14610aa657610173565b8063c5ed75bb146108f0578063d3b12c151461093a578063ee71227f1461098457610173565b806393812d201461063257806397623b581461067c5780639a087b9714610737578063a0d1170b14610781578063beb9eb0b146107cb578063bf5b60161461081557610173565b80635c757125116101305780635c757125146103e5578063697a60b31461042f57806384d676171461050a5780638da5cb5b146105545780638e771e791461059e5780638ec82c8a146105e857610173565b806320ba59101461017857806335817773146101c257806342febb69146102bd578063462d46f614610307578063492e4692146103515780634e7f067b1461039b575b600080fd5b610180610af0565b604051808273ffffffffffffffffffffffffffffffffffffffff1673ffffffffffffffffffffffffffffffffffffffff16815260200191505060405180910390f35b61027b600480360360208110156101d857600080fd5b81019080803590602001906401000000008111156101f557600080fd5b82018360208201111561020757600080fd5b8035906020019184600183028401116401000000008311171561022957600080fd5b91908080601f016020809104026020016040519081016040528093929190818152602001838380828437600081840152601f19601f820116905080830192505050505050509192919290505050610b35565b604051808273ffffffffffffffffffffffffffffffffffffffff1673ffffffffffffffffffffffffffffffffffffffff16815260200191505060405180910390f35b6102c5610e15565b604051808273ffffffffffffffffffffffffffffffffffffffff1673ffffffffffffffffffffffffffffffffffffffff16815260200191505060405180910390f35b61030f610e5a565b604051808273ffffffffffffffffffffffffffffffffffffffff1673ffffffffffffffffffffffffffffffffffffffff16815260200191505060405180910390f35b610359610e9f565b604051808273ffffffffffffffffffffffffffffffffffffffff1673ffffffffffffffffffffffffffffffffffffffff16815260200191505060405180910390f35b6103a3610ee4565b604051808273ffffffffffffffffffffffffffffffffffffffff1673ffffffffffffffffffffffffffffffffffffffff16815260200191505060405180910390f35b6103ed610f29565b604051808273ffffffffffffffffffffffffffffffffffffffff1673ffffffffffffffffffffffffffffffffffffffff16815260200191505060405180910390f35b6105086004803603604081101561044557600080fd5b810190808035906020019064010000000081111561046257600080fd5b82018360208201111561047457600080fd5b8035906020019184600183028401116401000000008311171561049657600080fd5b91908080601f016020809104026020016040519081016040528093929190818152602001838380828437600081840152601f19601f820116905080830192505050505050509192919290803573ffffffffffffffffffffffffffffffffffffffff169060200190929190505050610f6e565b005b610512611133565b604051808273ffffffffffffffffffffffffffffffffffffffff1673ffffffffffffffffffffffffffffffffffffffff16815260200191505060405180910390f35b61055c611178565b604051808273ffffffffffffffffffffffffffffffffffffffff1673ffffffffffffffffffffffffffffffffffffffff16815260200191505060405180910390f35b6105a661119d565b604051808273ffffffffffffffffffffffffffffffffffffffff1673ffffffffffffffffffffffffffffffffffffffff16815260200191505060405180910390f35b6105f06111e2565b604051808273ffffffffffffffffffffffffffffffffffffffff1673ffffffffffffffffffffffffffffffffffffffff16815260200191505060405180910390f35b61063a611227565b604051808273ffffffffffffffffffffffffffffffffffffffff1673ffffffffffffffffffffffffffffffffffffffff16815260200191505060405180910390f35b6107356004803603602081101561069257600080fd5b81019080803590602001906401000000008111156106af57600080fd5b8201836020820111156106c157600080fd5b803590602001918460018302840111640100000000831117156106e357600080fd5b91908080601f016020809104026020016040519081016040528093929190818152602001838380828437600081840152601f19601f82011690508083019250505050505050919291929050505061126c565b005b61073f611431565b604051808273ffffffffffffffffffffffffffffffffffffffff1673ffffffffffffffffffffffffffffffffffffffff16815260200191505060405180910390f35b610789611476565b604051808273ffffffffffffffffffffffffffffffffffffffff1673ffffffffffffffffffffffffffffffffffffffff16815260200191505060405180910390f35b6107d36114bb565b604051808273ffffffffffffffffffffffffffffffffffffffff1673ffffffffffffffffffffffffffffffffffffffff16815260200191505060405180910390f35b6108ee6004803603604081101561082b57600080fd5b810190808035906020019064010000000081111561084857600080fd5b82018360208201111561085a57600080fd5b8035906020019184600183028401116401000000008311171561087c57600080fd5b91908080601f016020809104026020016040519081016040528093929190818152602001838380828437600081840152601f19601f820116905080830192505050505050509192919290803573ffffffffffffffffffffffffffffffffffffffff169060200190929190505050611500565b005b6108f8611710565b604051808273ffffffffffffffffffffffffffffffffffffffff1673ffffffffffffffffffffffffffffffffffffffff16815260200191505060405180910390f35b610942611755565b604051808273ffffffffffffffffffffffffffffffffffffffff1673ffffffffffffffffffffffffffffffffffffffff16815260200191505060405180910390f35b61098c61179a565b604051808273ffffffffffffffffffffffffffffffffffffffff1673ffffffffffffffffffffffffffffffffffffffff16815260200191505060405180910390f35b6109d66117df565b604051808273ffffffffffffffffffffffffffffffffffffffff1673ffffffffffffffffffffffffffffffffffffffff16815260200191505060405180910390f35b610a5a60048036036020811015610a2e57600080fd5b81019080803573ffffffffffffffffffffffffffffffffffffffff169060200190929190505050611824565b005b610a646118f2565b604051808273ffffffffffffffffffffffffffffffffffffffff1673ffffffffffffffffffffffffffffffffffffffff16815260200191505060405180910390f35b610aae611937565b604051808273ffffffffffffffffffffffffffffffffffffffff1673ffffffffffffffffffffffffffffffffffffffff16815260200191505060405180910390f35b6000610b306040518060400160405280600781526020017f42657474696e6700000000000000000000000000000000000000000000000000815250610b35565b905090565b60008073ffffffffffffffffffffffffffffffffffffffff166001836040518082805190602001908083835b60208310610b845780518252602082019150602081019050602083039250610b61565b6001836020036101000a038019825116818451168082178552505050505050905001915050908152602001604051809103902060009054906101000a900473ffffffffffffffffffffffffffffffffffffffff1673ffffffffffffffffffffffffffffffffffffffff161415610d845760608260405160200180807f436f6e7472616374206e6f7420726567697374657265643a200000000000000081525060190182805190602001908083835b60208310610c555780518252602082019150602081019050602083039250610c32565b6001836020036101000a0380198251168184511680821785525050505050509050019150506040516020818303038152906040526040516024018080602001828103825283818151815260200191508051906020019080838360005b83811015610ccc578082015181840152602081019050610cb1565b50505050905090810190601f168015610cf95780820380516001836020036101000a031916815260200191505b50925050506040516020818303038152906040527f08c379a0000000000000000000000000000000000000000000000000000000007bffffffffffffffffffffffffffffffffffffffffffffffffffffffff19166020820180517bffffffffffffffffffffffffffffffffffffffffffffffffffffffff838183161783525050505090508060208201fd5b6001826040518082805190602001908083835b60208310610dba5780518252602082019150602081019050602083039250610d97565b6001836020036101000a038019825116818451168082178552505050505050905001915050908152602001604051809103902060009054906101000a900473ffffffffffffffffffffffffffffffffffffffff169050919050565b6000610e556040518060400160405280600a81526020017f4b697474696548656c6c00000000000000000000000000000000000000000000815250610b35565b905090565b6000610e9a6040518060400160405280600d81526020017f47616d65566172416e6446656500000000000000000000000000000000000000815250610b35565b905090565b6000610edf6040518060400160405280601081526020017f52617269747943616c63756c61746f7200000000000000000000000000000000815250610b35565b905090565b6000610f246040518060400160405280600c81526020017f54696d65436f6e74726163740000000000000000000000000000000000000000815250610b35565b905090565b6000610f696040518060400160405280600981526020017f50726f66696c6544420000000000000000000000000000000000000000000000815250610b35565b905090565b6000809054906101000a900473ffffffffffffffffffffffffffffffffffffffff1673ffffffffffffffffffffffffffffffffffffffff163373ffffffffffffffffffffffffffffffffffffffff1614610fc457fe5b600073ffffffffffffffffffffffffffffffffffffffff166001836040518082805190602001908083835b602083106110125780518252602082019150602081019050602083039250610fef565b6001836020036101000a038019825116818451168082178552505050505050905001915050908152602001604051809103902060009054906101000a900473ffffffffffffffffffffffffffffffffffffffff1673ffffffffffffffffffffffffffffffffffffffff16141561108757600080fd5b806001836040518082805190602001908083835b602083106110be578051825260208201915060208101905060208303925061109b565b6001836020036101000a038019825116818451168082178552505050505050905001915050908152602001604051809103902060006101000a81548173ffffffffffffffffffffffffffffffffffffffff021916908373ffffffffffffffffffffffffffffffffffffffff1602179055505050565b60006111736040518060400160405280600c81526020017f4b697474696548656c6c44420000000000000000000000000000000000000000815250610b35565b905090565b6000809054906101000a900473ffffffffffffffffffffffffffffffffffffffff1681565b60006111dd6040518060400160405280600681526020017f526f6c6544420000000000000000000000000000000000000000000000000000815250610b35565b905090565b60006112226040518060400160405280600b81526020017f486974735265736f6c7665000000000000000000000000000000000000000000815250610b35565b905090565b60006112676040518060400160405280600981526020017f5363686564756c65720000000000000000000000000000000000000000000000815250610b35565b905090565b6000809054906101000a900473ffffffffffffffffffffffffffffffffffffffff1673ffffffffffffffffffffffffffffffffffffffff163373ffffffffffffffffffffffffffffffffffffffff16146112c257fe5b600073ffffffffffffffffffffffffffffffffffffffff166001826040518082805190602001908083835b6020831061131057805182526020820191506020810190506020830392506112ed565b6001836020036101000a038019825116818451168082178552505050505050905001915050908152602001604051809103902060009054906101000a900473ffffffffffffffffffffffffffffffffffffffff1673ffffffffffffffffffffffffffffffffffffffff16141561138557600080fd5b60006001826040518082805190602001908083835b602083106113bd578051825260208201915060208101905060208303925061139a565b6001836020036101000a038019825116818451168082178552505050505050905001915050908152602001604051809103902060006101000a81548173ffffffffffffffffffffffffffffffffffffffff021916908373ffffffffffffffffffffffffffffffffffffffff16021790555050565b60006114716040518060400160405280600981526020017f466f726665697465720000000000000000000000000000000000000000000000815250610b35565b905090565b60006114b66040518060400160405280600c81526020017f446973747269627574696f6e0000000000000000000000000000000000000000815250610b35565b905090565b60006114fb6040518060400160405280600a81526020017f474d536574746572444200000000000000000000000000000000000000000000815250610b35565b905090565b6000809054906101000a900473ffffffffffffffffffffffffffffffffffffffff1673ffffffffffffffffffffffffffffffffffffffff163373ffffffffffffffffffffffffffffffffffffffff161461155657fe5b600073ffffffffffffffffffffffffffffffffffffffff166001836040518082805190602001908083835b602083106115a45780518252602082019150602081019050602083039250611581565b6001836020036101000a038019825116818451168082178552505050505050905001915050908152602001604051809103902060009054906101000a900473ffffffffffffffffffffffffffffffffffffffff1673ffffffffffffffffffffffffffffffffffffffff1614611664576040517f08c379a000000000000000000000000000000000000000000000000000000000815260040180806020018281038252602681526020018061197d6026913960400191505060405180910390fd5b806001836040518082805190602001908083835b6020831061169b5780518252602082019150602081019050602083039250611678565b6001836020036101000a038019825116818451168082178552505050505050905001915050908152602001604051809103902060006101000a81548173ffffffffffffffffffffffffffffffffffffffff021916908373ffffffffffffffffffffffffffffffffffffffff1602179055505050565b60006117506040518060400160405280600781526020017f43726f6e4a6f6200000000000000000000000000000000000000000000000000815250610b35565b905090565b60006117956040518060400160405280600a81526020017f474d476574746572444200000000000000000000000000000000000000000000815250610b35565b905090565b60006117da6040518060400160405280600b81526020017f47616d654d616e61676572000000000000000000000000000000000000000000815250610b35565b905090565b600061181f6040518060400160405280600881526020017f5265676973746572000000000000000000000000000000000000000000000000815250610b35565b905090565b6000809054906101000a900473ffffffffffffffffffffffffffffffffffffffff1673ffffffffffffffffffffffffffffffffffffffff163373ffffffffffffffffffffffffffffffffffffffff161461187a57fe5b600073ffffffffffffffffffffffffffffffffffffffff168173ffffffffffffffffffffffffffffffffffffffff16146118ef57806000806101000a81548173ffffffffffffffffffffffffffffffffffffffff021916908373ffffffffffffffffffffffffffffffffffffffff1602179055505b50565b60006119326040518060400160405280600b81526020017f456e646f776d656e744442000000000000000000000000000000000000000000815250610b35565b905090565b60006119776040518060400160405280600d81526020017f456e646f776d656e7446756e6400000000000000000000000000000000000000815250610b35565b90509056fe43616e206e6f742061646420636f6e74726163742077697468207a65726f2061646472657373a265627a7a72315820a050d4355b8200a65325173feb4db21713be0003f2a66b318e03e59e7583716364736f6c634300050d0032",
  "source": "pragma solidity ^0.5.5;\n\nimport '../../ContractManager.sol';\nimport './ContractNames.sol';\n\n/**\n * @title ProxyBase is a common part for all interface contracts in Proxy,\n * it allows to get addresses of proxied contracts\n */\ncontract ProxyBase is ContractManager, ContractNames {\n\n    /**\n     * Getters for KittyFight system contracts\n     */\n     function addressOfRegister() public view returns(address)          {return getContract(CONTRACT_NAME_REGISTER);}\n     function addressOfProfileDB() public view returns(address)         {return getContract(CONTRACT_NAME_PROFILE_DB);}\n     function addressOfKittieHell() public view returns(address)        {return getContract(CONTRACT_NAME_KITTIEHELL);}\n     function addressOfKittieHellDB() public view returns(address)      {return getContract(CONTRACT_NAME_KITTIEHELL_DB);}\n     function addressOfGameManager() public view returns(address)       {return getContract(CONTRACT_NAME_GAMEMANAGER);}\n     function addressOfGMSetterDB() public view returns(address)        {return getContract(CONTRACT_NAME_GM_SETTER_DB);}\n     function addressOfGMGetterDB() public view returns(address)        {return getContract(CONTRACT_NAME_GM_GETTER_DB);}\n     function addressOfEndowmentDB() public view returns(address)       {return getContract(CONTRACT_NAME_ENDOWMENT_DB);}\n     function addressOfTimeContract() public view returns(address)      {return getContract(CONTRACT_NAME_TIMECONTRACT);}\n     function addressOfCronJob() public view returns(address)           {return getContract(CONTRACT_NAME_CRONJOB);}\n     function addressOfRoleDB() public view returns(address)            {return getContract(CONTRACT_NAME_ROLE_DB);}\n     function addressOfEndowmentFund() public view returns(address)     {return getContract(CONTRACT_NAME_ENDOWMENT_FUND);}\n     function addressOfDistribution() public view returns(address)      {return getContract(CONTRACT_NAME_DISTRIBUTION);}\n     function addressOfGameVarAndFee() public view returns(address)     {return getContract(CONTRACT_NAME_GAMEVARANDFEE);}\n     function addressOfForfeiter() public view returns(address)         {return getContract(CONTRACT_NAME_FORFEITER);}\n     function addressOfScheduler() public view returns(address)         {return getContract(CONTRACT_NAME_SCHEDULER);}\n     function addressOfHitsResolve() public view returns(address)       {return getContract(CONTRACT_NAME_HITSRESOLVE);}\n     function addressOfBetting() public view returns(address)           {return getContract(CONTRACT_NAME_BETTING);}\n     function addressOfRarityCalculator() public view returns(address)  {return getContract(CONTRACT_NAME_RARITYCALCULATOR);}\n}\n",
  "sourcePath": "/Users/ziweizhang/Desktop/kittieFight-mainnet/alpha/contracts/modules/proxy/ProxyBase.sol",
  "compiler": {
    "name": "solc",
    "version": "0.5.13+commit.5b0b510c.Emscripten.clang"
  },
  "schemaVersion": "3.0.11",
  "updatedAt": "2019-11-23T23:39:19.045Z",
  "devdoc": {
    "methods": {},
    "title": "ProxyBase is a common part for all interface contracts in Proxy, it allows to get addresses of proxied contracts"
  },
  "userdoc": {
    "methods": {
      "addressOfRegister()": {
        "notice": "Getters for KittyFight system contracts"
      }
    }
  }
}