{
  "contractName": "ProxiedTest",
  "abi": [
    {
      "anonymous": false,
      "inputs": [
        {
          "indexed": false,
          "internalType": "bytes",
          "name": "payload",
          "type": "bytes"
        },
        {
          "indexed": false,
          "internalType": "uint256",
          "name": "ethReceived",
          "type": "uint256"
        },
        {
          "indexed": false,
          "internalType": "address",
          "name": "sender",
          "type": "address"
        }
      ],
      "name": "TestCalledBytes",
      "type": "event"
    },
    {
      "anonymous": false,
      "inputs": [
        {
          "indexed": false,
          "internalType": "uint256",
          "name": "arg1",
          "type": "uint256"
        },
        {
          "indexed": false,
          "internalType": "address",
          "name": "arg2",
          "type": "address"
        },
        {
          "indexed": false,
          "internalType": "uint256",
          "name": "ethReceived",
          "type": "uint256"
        },
        {
          "indexed": false,
          "internalType": "address",
          "name": "sender",
          "type": "address"
        }
      ],
      "name": "TestCalledTwoArgs",
      "type": "event"
    },
    {
      "constant": true,
      "inputs": [],
      "name": "lastArg1",
      "outputs": [
        {
          "internalType": "uint256",
          "name": "",
          "type": "uint256"
        }
      ],
      "payable": false,
      "stateMutability": "view",
      "type": "function"
    },
    {
      "constant": true,
      "inputs": [],
      "name": "lastArg2",
      "outputs": [
        {
          "internalType": "address",
          "name": "",
          "type": "address"
        }
      ],
      "payable": false,
      "stateMutability": "view",
      "type": "function"
    },
    {
      "constant": true,
      "inputs": [],
      "name": "lastPayload",
      "outputs": [
        {
          "internalType": "bytes",
          "name": "",
          "type": "bytes"
        }
      ],
      "payable": false,
      "stateMutability": "view",
      "type": "function"
    },
    {
      "constant": true,
      "inputs": [],
      "name": "lastSender",
      "outputs": [
        {
          "internalType": "address",
          "name": "",
          "type": "address"
        }
      ],
      "payable": false,
      "stateMutability": "view",
      "type": "function"
    },
    {
      "constant": true,
      "inputs": [],
      "name": "owner",
      "outputs": [
        {
          "internalType": "address payable",
          "name": "",
          "type": "address"
        }
      ],
      "payable": false,
      "stateMutability": "view",
      "type": "function"
    },
    {
      "constant": true,
      "inputs": [],
      "name": "proxy",
      "outputs": [
        {
          "internalType": "contract ProxyBase",
          "name": "",
          "type": "address"
        }
      ],
      "payable": false,
      "stateMutability": "view",
      "type": "function"
    },
    {
      "constant": false,
      "inputs": [
        {
          "internalType": "contract ProxyBase",
          "name": "_proxy",
          "type": "address"
        }
      ],
      "name": "setProxy",
      "outputs": [],
      "payable": false,
      "stateMutability": "nonpayable",
      "type": "function"
    },
    {
      "constant": false,
      "inputs": [
        {
          "internalType": "address payable",
          "name": "newOwner",
          "type": "address"
        }
      ],
      "name": "transferOwnership",
      "outputs": [],
      "payable": false,
      "stateMutability": "nonpayable",
      "type": "function"
    },
    {
      "constant": false,
      "inputs": [
        {
          "internalType": "bytes",
          "name": "payload",
          "type": "bytes"
        }
      ],
      "name": "testFunctionBytes",
      "outputs": [],
      "payable": true,
      "stateMutability": "payable",
      "type": "function"
    },
    {
      "constant": false,
      "inputs": [
        {
          "internalType": "uint256",
          "name": "arg1",
          "type": "uint256"
        },
        {
          "internalType": "address",
          "name": "arg2",
          "type": "address"
        }
      ],
      "name": "testFunctionTwoArgs",
      "outputs": [],
      "payable": true,
      "stateMutability": "payable",
      "type": "function"
    },
    {
      "constant": true,
      "inputs": [],
      "name": "testRevertMessage",
      "outputs": [],
      "payable": false,
      "stateMutability": "view",
      "type": "function"
    },
    {
      "constant": false,
      "inputs": [
        {
          "internalType": "uint256[]",
          "name": "arg1",
          "type": "uint256[]"
        },
        {
          "internalType": "uint256[]",
          "name": "arg2",
          "type": "uint256[]"
        }
      ],
      "name": "testArray",
      "outputs": [],
      "payable": false,
      "stateMutability": "nonpayable",
      "type": "function"
    }
  ],
  "bytecode": "0x6080604052336000806101000a81548173ffffffffffffffffffffffffffffffffffffffff021916908373ffffffffffffffffffffffffffffffffffffffff160217905550610e53806100536000396000f3fe6080604052600436106100a75760003560e01c80638da5cb5b116100645780638da5cb5b1461029c57806397107d6d146102f3578063b760834014610344578063e39e26a21461041f578063ec55688914610476578063f2fde38b146104cd576100a7565b806310a86fd3146100ac5780631d45c391146100d75780631e0039e414610150578063256fec881461019e5780634cc2aa3c146101f55780637681a7be14610285575b600080fd5b3480156100b857600080fd5b506100c161051e565b6040518082815260200191505060405180910390f35b61014e600480360360208110156100ed57600080fd5b810190808035906020019064010000000081111561010a57600080fd5b82018360208201111561011c57600080fd5b8035906020019184600183028401116401000000008311171561013e57600080fd5b9091929391929390505050610524565b005b61019c6004803603604081101561016657600080fd5b8101908080359060200190929190803573ffffffffffffffffffffffffffffffffffffffff1690602001909291905050506105ee565b005b3480156101aa57600080fd5b506101b3610753565b604051808273ffffffffffffffffffffffffffffffffffffffff1673ffffffffffffffffffffffffffffffffffffffff16815260200191505060405180910390f35b34801561020157600080fd5b5061020a610779565b6040518080602001828103825283818151815260200191508051906020019080838360005b8381101561024a57808201518184015260208101905061022f565b50505050905090810190601f1680156102775780820380516001836020036101000a031916815260200191505b509250505060405180910390f35b34801561029157600080fd5b5061029a610817565b005b3480156102a857600080fd5b506102b161088d565b604051808273ffffffffffffffffffffffffffffffffffffffff1673ffffffffffffffffffffffffffffffffffffffff16815260200191505060405180910390f35b3480156102ff57600080fd5b506103426004803603602081101561031657600080fd5b81019080803573ffffffffffffffffffffffffffffffffffffffff1690602001909291905050506108b2565b005b34801561035057600080fd5b5061041d6004803603604081101561036757600080fd5b810190808035906020019064010000000081111561038457600080fd5b82018360208201111561039657600080fd5b803590602001918460208302840111640100000000831117156103b857600080fd5b9091929391929390803590602001906401000000008111156103d957600080fd5b8201836020820111156103eb57600080fd5b8035906020019184602083028401116401000000008311171561040d57600080fd5b909192939192939050505061094c565b005b34801561042b57600080fd5b50610434610a20565b604051808273ffffffffffffffffffffffffffffffffffffffff1673ffffffffffffffffffffffffffffffffffffffff16815260200191505060405180910390f35b34801561048257600080fd5b5061048b610a46565b604051808273ffffffffffffffffffffffffffffffffffffffff1673ffffffffffffffffffffffffffffffffffffffff16815260200191505060405180910390f35b3480156104d957600080fd5b5061051c600480360360208110156104f057600080fd5b81019080803573ffffffffffffffffffffffffffffffffffffffff169060200190929190505050610a6c565b005b60035481565b61052c610b3a565b81816002919061053d929190610d79565b506000610548610cc4565b90507f54ee07db0350899d5964ee272ef76733e9276b614c8f9d9a997d486f5c2178a28383348460405180806020018481526020018373ffffffffffffffffffffffffffffffffffffffff1673ffffffffffffffffffffffffffffffffffffffff1681526020018281038252868682818152602001925080828437600081840152601f19601f8201169050808301925050509550505050505060405180910390a1505050565b6105f6610b3a565b8160038190555080600460006101000a81548173ffffffffffffffffffffffffffffffffffffffff021916908373ffffffffffffffffffffffffffffffffffffffff160217905550610646610cc4565b600560006101000a81548173ffffffffffffffffffffffffffffffffffffffff021916908373ffffffffffffffffffffffffffffffffffffffff1602179055507fa7bf5a03093c5ebc7bf08c1d0c8adf0261e378b32ae2c6c920f278708ea6890c828234600560009054906101000a900473ffffffffffffffffffffffffffffffffffffffff16604051808581526020018473ffffffffffffffffffffffffffffffffffffffff1673ffffffffffffffffffffffffffffffffffffffff1681526020018381526020018273ffffffffffffffffffffffffffffffffffffffff1673ffffffffffffffffffffffffffffffffffffffff16815260200194505050505060405180910390a15050565b600560009054906101000a900473ffffffffffffffffffffffffffffffffffffffff1681565b60028054600181600116156101000203166002900480601f01602080910402602001604051908101604052809291908181526020018280546001816001161561010002031660029004801561080f5780601f106107e45761010080835404028352916020019161080f565b820191906000526020600020905b8154815290600101906020018083116107f257829003601f168201915b505050505081565b61081f610b3a565b6040517f08c379a00000000000000000000000000000000000000000000000000000000081526004018080602001828103825260138152602001807f5465737420726576657274206d6573736167650000000000000000000000000081525060200191505060405180910390fd5b6000809054906101000a900473ffffffffffffffffffffffffffffffffffffffff1681565b6000809054906101000a900473ffffffffffffffffffffffffffffffffffffffff1673ffffffffffffffffffffffffffffffffffffffff163373ffffffffffffffffffffffffffffffffffffffff161461090857fe5b80600160006101000a81548173ffffffffffffffffffffffffffffffffffffffff021916908373ffffffffffffffffffffffffffffffffffffffff16021790555050565b610954610b3a565b600060038190555060008090505b8484905081101561099c5784848281811061097957fe5b905060200201356003600082825401925050819055508080600101915050610962565b50600080905060008090505b838390508110156109d7578383828181106109bf57fe5b905060200201358201915080806001019150506109a8565b5080600460006101000a81548173ffffffffffffffffffffffffffffffffffffffff021916908373ffffffffffffffffffffffffffffffffffffffff1602179055505050505050565b600460009054906101000a900473ffffffffffffffffffffffffffffffffffffffff1681565b600160009054906101000a900473ffffffffffffffffffffffffffffffffffffffff1681565b6000809054906101000a900473ffffffffffffffffffffffffffffffffffffffff1673ffffffffffffffffffffffffffffffffffffffff163373ffffffffffffffffffffffffffffffffffffffff1614610ac257fe5b600073ffffffffffffffffffffffffffffffffffffffff168173ffffffffffffffffffffffffffffffffffffffff1614610b3757806000806101000a81548173ffffffffffffffffffffffffffffffffffffffff021916908373ffffffffffffffffffffffffffffffffffffffff1602179055505b50565b600073ffffffffffffffffffffffffffffffffffffffff16600160009054906101000a900473ffffffffffffffffffffffffffffffffffffffff1673ffffffffffffffffffffffffffffffffffffffff161415610bff576040517f08c379a00000000000000000000000000000000000000000000000000000000081526004018080602001828103825260088152602001807f4e6f2050726f787900000000000000000000000000000000000000000000000081525060200191505060405180910390fd5b600160009054906101000a900473ffffffffffffffffffffffffffffffffffffffff1673ffffffffffffffffffffffffffffffffffffffff163373ffffffffffffffffffffffffffffffffffffffff1614610cc2576040517f08c379a00000000000000000000000000000000000000000000000000000000081526004018080602001828103825260128152602001807f4f6e6c79207468726f7567682050726f7879000000000000000000000000000081525060200191505060405180910390fd5b565b6000600160009054906101000a900473ffffffffffffffffffffffffffffffffffffffff1673ffffffffffffffffffffffffffffffffffffffff163373ffffffffffffffffffffffffffffffffffffffff1614610d2357339050610d76565b6000601436036000602052601481602c37602051915050600073ffffffffffffffffffffffffffffffffffffffff168173ffffffffffffffffffffffffffffffffffffffff161415610d7157fe5b809150505b90565b828054600181600116156101000203166002900490600052602060002090601f016020900481019282601f10610dba57803560ff1916838001178555610de8565b82800160010185558215610de8579182015b82811115610de7578235825591602001919060010190610dcc565b5b509050610df59190610df9565b5090565b610e1b91905b80821115610e17576000816000905550600101610dff565b5090565b9056fea265627a7a7231582053d60fa8ff06c73caf141466139c3e166e6895dae3bc8b21f62ee966d4d78c2f64736f6c63430005110032",
  "source": "pragma solidity ^0.5.5;\r\n\r\nimport \"../modules/proxy/Proxied.sol\";\r\nimport \"../authority/Guard.sol\";\r\n\r\ncontract ProxiedTest is Proxied, Guard {\r\n    event TestCalledBytes(bytes payload, uint256 ethReceived, address sender);\r\n    event TestCalledTwoArgs(uint256 arg1, address arg2, uint256 ethReceived, address sender);\r\n\r\n    bytes public lastPayload;\r\n    uint256 public lastArg1;\r\n    address public lastArg2;\r\n    address public lastSender;\r\n\r\n    function testFunctionBytes(bytes calldata payload) onlyProxy payable external {\r\n        lastPayload = payload;\r\n        address sender = getOriginalSender();\r\n        emit TestCalledBytes(payload, msg.value, sender);\r\n    }\r\n\r\n    function testFunctionTwoArgs(uint256 arg1, address arg2) onlyProxy payable external {\r\n        lastArg1 = arg1;\r\n        lastArg2 = arg2;\r\n        lastSender = getOriginalSender();\r\n        emit TestCalledTwoArgs(arg1, arg2, msg.value, lastSender);\r\n    }\r\n\r\n    function testRevertMessage() onlyProxy external view {\r\n        revert('Test revert message');\r\n    }\r\n\r\n    function testArray(uint256[] calldata arg1, uint256[] calldata arg2) onlyProxy external {\r\n        lastArg1 = 0; \r\n        for(uint256 i=0; i < arg1.length; i++){\r\n            lastArg1 += arg1[i];\r\n        }\r\n        uint256 arg2summ = 0;\r\n        for(uint256 i=0; i < arg2.length; i++){\r\n            arg2summ += arg2[i];\r\n        }\r\n        lastArg2 = address(arg2summ);\r\n    }\r\n\r\n}\r\n",
  "sourcePath": "C:/Users/Alex/Desktop/MyProjects/contracts/contracts/mocks/ProxiedTest.sol",
  "compiler": {
    "name": "solc",
    "version": "0.5.17+commit.d19bba13.Emscripten.clang"
  },
  "schemaVersion": "3.0.11",
  "updatedAt": "2020-07-05T19:51:53.459Z",
  "devdoc": {
    "methods": {}
  },
  "userdoc": {
    "methods": {
      "setProxy(address)": {
        "notice": "Set/update address of Proxy contract"
      }
    }
  }
}