{
  "contractName": "ProxyBase",
  "abi": [
    {
      "constant": false,
      "inputs": [
        {
          "internalType": "string",
          "name": "name",
          "type": "string"
        },
        {
          "internalType": "address",
          "name": "contractAddress",
          "type": "address"
        }
      ],
      "name": "addContract",
      "outputs": [],
      "payable": false,
      "stateMutability": "nonpayable",
      "type": "function"
    },
    {
      "constant": true,
      "inputs": [
        {
          "internalType": "string",
          "name": "name",
          "type": "string"
        }
      ],
      "name": "getContract",
      "outputs": [
        {
          "internalType": "address",
          "name": "",
          "type": "address"
        }
      ],
      "payable": false,
      "stateMutability": "view",
      "type": "function"
    },
    {
      "constant": true,
      "inputs": [
        {
          "internalType": "bytes32[]",
          "name": "nameHashes",
          "type": "bytes32[]"
        }
      ],
      "name": "getContracts",
      "outputs": [
        {
          "internalType": "address[]",
          "name": "",
          "type": "address[]"
        }
      ],
      "payable": false,
      "stateMutability": "view",
      "type": "function"
    },
    {
      "constant": true,
      "inputs": [],
      "name": "owner",
      "outputs": [
        {
          "internalType": "address payable",
          "name": "",
          "type": "address"
        }
      ],
      "payable": false,
      "stateMutability": "view",
      "type": "function"
    },
    {
      "constant": false,
      "inputs": [
        {
          "internalType": "string",
          "name": "name",
          "type": "string"
        }
      ],
      "name": "removeContract",
      "outputs": [],
      "payable": false,
      "stateMutability": "nonpayable",
      "type": "function"
    },
    {
      "constant": false,
      "inputs": [
        {
          "internalType": "address payable",
          "name": "newOwner",
          "type": "address"
        }
      ],
      "name": "transferOwnership",
      "outputs": [],
      "payable": false,
      "stateMutability": "nonpayable",
      "type": "function"
    },
    {
      "constant": false,
      "inputs": [
        {
          "internalType": "string",
          "name": "name",
          "type": "string"
        },
        {
          "internalType": "address",
          "name": "contractAddress",
          "type": "address"
        }
      ],
      "name": "updateContract",
      "outputs": [],
      "payable": false,
      "stateMutability": "nonpayable",
      "type": "function"
    },
    {
      "constant": true,
      "inputs": [],
      "name": "addressOfRegister",
      "outputs": [
        {
          "internalType": "address",
          "name": "",
          "type": "address"
        }
      ],
      "payable": false,
      "stateMutability": "view",
      "type": "function"
    },
    {
      "constant": true,
      "inputs": [],
      "name": "addressOfProfileDB",
      "outputs": [
        {
          "internalType": "address",
          "name": "",
          "type": "address"
        }
      ],
      "payable": false,
      "stateMutability": "view",
      "type": "function"
    },
    {
      "constant": true,
      "inputs": [],
      "name": "addressOfKittieHell",
      "outputs": [
        {
          "internalType": "address",
          "name": "",
          "type": "address"
        }
      ],
      "payable": false,
      "stateMutability": "view",
      "type": "function"
    },
    {
      "constant": true,
      "inputs": [],
      "name": "addressOfKittieHellDB",
      "outputs": [
        {
          "internalType": "address",
          "name": "",
          "type": "address"
        }
      ],
      "payable": false,
      "stateMutability": "view",
      "type": "function"
    },
    {
      "constant": true,
      "inputs": [],
      "name": "addressOfGameManager",
      "outputs": [
        {
          "internalType": "address",
          "name": "",
          "type": "address"
        }
      ],
      "payable": false,
      "stateMutability": "view",
      "type": "function"
    },
    {
      "constant": true,
      "inputs": [],
      "name": "addressOfGMSetterDB",
      "outputs": [
        {
          "internalType": "address",
          "name": "",
          "type": "address"
        }
      ],
      "payable": false,
      "stateMutability": "view",
      "type": "function"
    },
    {
      "constant": true,
      "inputs": [],
      "name": "addressOfGMGetterDB",
      "outputs": [
        {
          "internalType": "address",
          "name": "",
          "type": "address"
        }
      ],
      "payable": false,
      "stateMutability": "view",
      "type": "function"
    },
    {
      "constant": true,
      "inputs": [],
      "name": "addressOfEndowmentDB",
      "outputs": [
        {
          "internalType": "address",
          "name": "",
          "type": "address"
        }
      ],
      "payable": false,
      "stateMutability": "view",
      "type": "function"
    },
    {
      "constant": true,
      "inputs": [],
      "name": "addressOfTimeContract",
      "outputs": [
        {
          "internalType": "address",
          "name": "",
          "type": "address"
        }
      ],
      "payable": false,
      "stateMutability": "view",
      "type": "function"
    },
    {
      "constant": true,
      "inputs": [],
      "name": "addressOfCronJob",
      "outputs": [
        {
          "internalType": "address",
          "name": "",
          "type": "address"
        }
      ],
      "payable": false,
      "stateMutability": "view",
      "type": "function"
    },
    {
      "constant": true,
      "inputs": [],
      "name": "addressOfRoleDB",
      "outputs": [
        {
          "internalType": "address",
          "name": "",
          "type": "address"
        }
      ],
      "payable": false,
      "stateMutability": "view",
      "type": "function"
    },
    {
      "constant": true,
      "inputs": [],
      "name": "addressOfEndowmentFund",
      "outputs": [
        {
          "internalType": "address",
          "name": "",
          "type": "address"
        }
      ],
      "payable": false,
      "stateMutability": "view",
      "type": "function"
    },
    {
      "constant": true,
      "inputs": [],
      "name": "addressOfDistribution",
      "outputs": [
        {
          "internalType": "address",
          "name": "",
          "type": "address"
        }
      ],
      "payable": false,
      "stateMutability": "view",
      "type": "function"
    },
    {
      "constant": true,
      "inputs": [],
      "name": "addressOfGameVarAndFee",
      "outputs": [
        {
          "internalType": "address",
          "name": "",
          "type": "address"
        }
      ],
      "payable": false,
      "stateMutability": "view",
      "type": "function"
    },
    {
      "constant": true,
      "inputs": [],
      "name": "addressOfForfeiter",
      "outputs": [
        {
          "internalType": "address",
          "name": "",
          "type": "address"
        }
      ],
      "payable": false,
      "stateMutability": "view",
      "type": "function"
    },
    {
      "constant": true,
      "inputs": [],
      "name": "addressOfScheduler",
      "outputs": [
        {
          "internalType": "address",
          "name": "",
          "type": "address"
        }
      ],
      "payable": false,
      "stateMutability": "view",
      "type": "function"
    },
    {
      "constant": true,
      "inputs": [],
      "name": "addressOfHitsResolve",
      "outputs": [
        {
          "internalType": "address",
          "name": "",
          "type": "address"
        }
      ],
      "payable": false,
      "stateMutability": "view",
      "type": "function"
    },
    {
      "constant": true,
      "inputs": [],
      "name": "addressOfBetting",
      "outputs": [
        {
          "internalType": "address",
          "name": "",
          "type": "address"
        }
      ],
      "payable": false,
      "stateMutability": "view",
      "type": "function"
    },
    {
      "constant": true,
      "inputs": [],
      "name": "addressOfRarityCalculator",
      "outputs": [
        {
          "internalType": "address",
          "name": "",
          "type": "address"
        }
      ],
      "payable": false,
      "stateMutability": "view",
      "type": "function"
    },
    {
      "constant": true,
      "inputs": [],
      "name": "addressOfTimeFrame",
      "outputs": [
        {
          "internalType": "address",
          "name": "",
          "type": "address"
        }
      ],
      "payable": false,
      "stateMutability": "view",
      "type": "function"
    },
    {
      "constant": true,
      "inputs": [],
      "name": "addressOfHoneypotAllocationAlgo",
      "outputs": [
        {
          "internalType": "address",
          "name": "",
          "type": "address"
        }
      ],
      "payable": false,
      "stateMutability": "view",
      "type": "function"
    },
    {
      "constant": true,
      "inputs": [],
      "name": "addressOfEarningsTracker",
      "outputs": [
        {
          "internalType": "address",
          "name": "",
          "type": "address"
        }
      ],
      "payable": false,
      "stateMutability": "view",
      "type": "function"
    },
    {
      "constant": true,
      "inputs": [],
      "name": "addressOfWithdrawPool",
      "outputs": [
        {
          "internalType": "address",
          "name": "",
          "type": "address"
        }
      ],
      "payable": false,
      "stateMutability": "view",
      "type": "function"
    },
    {
      "constant": true,
      "inputs": [],
      "name": "addressOfEthieToken",
      "outputs": [
        {
          "internalType": "address",
          "name": "",
          "type": "address"
        }
      ],
      "payable": false,
      "stateMutability": "view",
      "type": "function"
    },
    {
      "constant": true,
      "inputs": [],
      "name": "addressOfUniswapV2Pair",
      "outputs": [
        {
          "internalType": "address",
          "name": "",
          "type": "address"
        }
      ],
      "payable": false,
      "stateMutability": "view",
      "type": "function"
    },
    {
      "constant": true,
      "inputs": [],
      "name": "addressOfUniswapV2Router",
      "outputs": [
        {
          "internalType": "address",
          "name": "",
          "type": "address"
        }
      ],
      "payable": false,
      "stateMutability": "view",
      "type": "function"
    },
    {
      "constant": true,
      "inputs": [],
      "name": "addressOfKtyWethOracle",
      "outputs": [
        {
          "internalType": "address",
          "name": "",
          "type": "address"
        }
      ],
      "payable": false,
      "stateMutability": "view",
      "type": "function"
    },
    {
      "constant": true,
      "inputs": [],
      "name": "addressOfKtyUniswap",
      "outputs": [
        {
          "internalType": "address",
          "name": "",
          "type": "address"
        }
      ],
      "payable": false,
      "stateMutability": "view",
      "type": "function"
    },
    {
      "constant": true,
      "inputs": [],
      "name": "addressOfWETH",
      "outputs": [
        {
          "internalType": "address",
          "name": "",
          "type": "address"
        }
      ],
      "payable": false,
      "stateMutability": "view",
      "type": "function"
    },
    {
      "constant": true,
      "inputs": [],
      "name": "addressOfDAI",
      "outputs": [
        {
          "internalType": "address",
          "name": "",
          "type": "address"
        }
      ],
      "payable": false,
      "stateMutability": "view",
      "type": "function"
    },
    {
      "constant": true,
      "inputs": [],
      "name": "addressOfDaiWethPair",
      "outputs": [
        {
          "internalType": "address",
          "name": "",
          "type": "address"
        }
      ],
      "payable": false,
      "stateMutability": "view",
      "type": "function"
    },
    {
      "constant": true,
      "inputs": [],
      "name": "addressOfDaiWethOracle",
      "outputs": [
        {
          "internalType": "address",
          "name": "",
          "type": "address"
        }
      ],
      "payable": false,
      "stateMutability": "view",
      "type": "function"
    }
  ],
  "bytecode": "0x6080604052336000806101000a81548173ffffffffffffffffffffffffffffffffffffffff021916908373ffffffffffffffffffffffffffffffffffffffff160217905550612297806100536000396000f3fe608060405234801561001057600080fd5b506004361061023d5760003560e01c80638da5cb5b1161013b578063cb669caa116100b8578063f27e20981161007c578063f27e209814610ede578063f2fde38b14610f28578063f6df25d514610f6c578063fcc47c4f14610fb6578063fcd073aa146110005761023d565b8063cb669caa14610d6c578063d3b12c1514610db6578063d83be91714610e00578063ee71227f14610e4a578063eed9c25b14610e945761023d565b80639a087b97116100ff5780639a087b9714610b69578063a0d1170b14610bb3578063beb9eb0b14610bfd578063bf5b601614610c47578063c5ed75bb14610d225761023d565b80638da5cb5b146109865780638e771e79146109d05780638ec82c8a14610a1a57806393812d2014610a6457806397623b5814610aae5761023d565b806342febb69116101c95780635c7571251161018d5780635c757125146107835780635f9b5916146107cd578063697a60b3146108175780637388a991146108f257806384d676171461093c5761023d565b806342febb691461058d578063462d46f6146105d75780634880df0e14610621578063492e4692146106ef5780634e7f067b146107395761023d565b806320ba59101161021057806320ba59101461036a578063297a344d146103b4578063348c6019146103fe57806335817773146104485780633bdc5a5d146105435761023d565b806319bddbe0146102425780631d83b82b1461028c5780631e662c40146102d657806320331d0f14610320575b600080fd5b61024a61104a565b604051808273ffffffffffffffffffffffffffffffffffffffff1673ffffffffffffffffffffffffffffffffffffffff16815260200191505060405180910390f35b61029461108f565b604051808273ffffffffffffffffffffffffffffffffffffffff1673ffffffffffffffffffffffffffffffffffffffff16815260200191505060405180910390f35b6102de6110d4565b604051808273ffffffffffffffffffffffffffffffffffffffff1673ffffffffffffffffffffffffffffffffffffffff16815260200191505060405180910390f35b610328611119565b604051808273ffffffffffffffffffffffffffffffffffffffff1673ffffffffffffffffffffffffffffffffffffffff16815260200191505060405180910390f35b61037261115e565b604051808273ffffffffffffffffffffffffffffffffffffffff1673ffffffffffffffffffffffffffffffffffffffff16815260200191505060405180910390f35b6103bc6111a3565b604051808273ffffffffffffffffffffffffffffffffffffffff1673ffffffffffffffffffffffffffffffffffffffff16815260200191505060405180910390f35b6104066111e8565b604051808273ffffffffffffffffffffffffffffffffffffffff1673ffffffffffffffffffffffffffffffffffffffff16815260200191505060405180910390f35b6105016004803603602081101561045e57600080fd5b810190808035906020019064010000000081111561047b57600080fd5b82018360208201111561048d57600080fd5b803590602001918460018302840111640100000000831117156104af57600080fd5b91908080601f016020809104026020016040519081016040528093929190818152602001838380828437600081840152601f19601f82011690508083019250505050505050919291929050505061122d565b604051808273ffffffffffffffffffffffffffffffffffffffff1673ffffffffffffffffffffffffffffffffffffffff16815260200191505060405180910390f35b61054b61146e565b604051808273ffffffffffffffffffffffffffffffffffffffff1673ffffffffffffffffffffffffffffffffffffffff16815260200191505060405180910390f35b6105956114b3565b604051808273ffffffffffffffffffffffffffffffffffffffff1673ffffffffffffffffffffffffffffffffffffffff16815260200191505060405180910390f35b6105df6114f8565b604051808273ffffffffffffffffffffffffffffffffffffffff1673ffffffffffffffffffffffffffffffffffffffff16815260200191505060405180910390f35b6106986004803603602081101561063757600080fd5b810190808035906020019064010000000081111561065457600080fd5b82018360208201111561066657600080fd5b8035906020019184602083028401116401000000008311171561068857600080fd5b909192939192939050505061153d565b6040518080602001828103825283818151815260200191508051906020019060200280838360005b838110156106db5780820151818401526020810190506106c0565b505050509050019250505060405180910390f35b6106f761162a565b604051808273ffffffffffffffffffffffffffffffffffffffff1673ffffffffffffffffffffffffffffffffffffffff16815260200191505060405180910390f35b61074161166f565b604051808273ffffffffffffffffffffffffffffffffffffffff1673ffffffffffffffffffffffffffffffffffffffff16815260200191505060405180910390f35b61078b6116b4565b604051808273ffffffffffffffffffffffffffffffffffffffff1673ffffffffffffffffffffffffffffffffffffffff16815260200191505060405180910390f35b6107d56116f9565b604051808273ffffffffffffffffffffffffffffffffffffffff1673ffffffffffffffffffffffffffffffffffffffff16815260200191505060405180910390f35b6108f06004803603604081101561082d57600080fd5b810190808035906020019064010000000081111561084a57600080fd5b82018360208201111561085c57600080fd5b8035906020019184600183028401116401000000008311171561087e57600080fd5b91908080601f016020809104026020016040519081016040528093929190818152602001838380828437600081840152601f19601f820116905080830192505050505050509192919290803573ffffffffffffffffffffffffffffffffffffffff16906020019092919050505061173e565b005b6108fa6118cd565b604051808273ffffffffffffffffffffffffffffffffffffffff1673ffffffffffffffffffffffffffffffffffffffff16815260200191505060405180910390f35b610944611912565b604051808273ffffffffffffffffffffffffffffffffffffffff1673ffffffffffffffffffffffffffffffffffffffff16815260200191505060405180910390f35b61098e611957565b604051808273ffffffffffffffffffffffffffffffffffffffff1673ffffffffffffffffffffffffffffffffffffffff16815260200191505060405180910390f35b6109d861197c565b604051808273ffffffffffffffffffffffffffffffffffffffff1673ffffffffffffffffffffffffffffffffffffffff16815260200191505060405180910390f35b610a226119c1565b604051808273ffffffffffffffffffffffffffffffffffffffff1673ffffffffffffffffffffffffffffffffffffffff16815260200191505060405180910390f35b610a6c611a06565b604051808273ffffffffffffffffffffffffffffffffffffffff1673ffffffffffffffffffffffffffffffffffffffff16815260200191505060405180910390f35b610b6760048036036020811015610ac457600080fd5b8101908080359060200190640100000000811115610ae157600080fd5b820183602082011115610af357600080fd5b80359060200191846001830284011164010000000083111715610b1557600080fd5b91908080601f016020809104026020016040519081016040528093929190818152602001838380828437600081840152601f19601f820116905080830192505050505050509192919290505050611a4b565b005b610b71611bda565b604051808273ffffffffffffffffffffffffffffffffffffffff1673ffffffffffffffffffffffffffffffffffffffff16815260200191505060405180910390f35b610bbb611c1f565b604051808273ffffffffffffffffffffffffffffffffffffffff1673ffffffffffffffffffffffffffffffffffffffff16815260200191505060405180910390f35b610c05611c64565b604051808273ffffffffffffffffffffffffffffffffffffffff1673ffffffffffffffffffffffffffffffffffffffff16815260200191505060405180910390f35b610d2060048036036040811015610c5d57600080fd5b8101908080359060200190640100000000811115610c7a57600080fd5b820183602082011115610c8c57600080fd5b80359060200191846001830284011164010000000083111715610cae57600080fd5b91908080601f016020809104026020016040519081016040528093929190818152602001838380828437600081840152601f19601f820116905080830192505050505050509192919290803573ffffffffffffffffffffffffffffffffffffffff169060200190929190505050611ca9565b005b610d2a611ebd565b604051808273ffffffffffffffffffffffffffffffffffffffff1673ffffffffffffffffffffffffffffffffffffffff16815260200191505060405180910390f35b610d74611f02565b604051808273ffffffffffffffffffffffffffffffffffffffff1673ffffffffffffffffffffffffffffffffffffffff16815260200191505060405180910390f35b610dbe611f47565b604051808273ffffffffffffffffffffffffffffffffffffffff1673ffffffffffffffffffffffffffffffffffffffff16815260200191505060405180910390f35b610e08611f8c565b604051808273ffffffffffffffffffffffffffffffffffffffff1673ffffffffffffffffffffffffffffffffffffffff16815260200191505060405180910390f35b610e52611fd1565b604051808273ffffffffffffffffffffffffffffffffffffffff1673ffffffffffffffffffffffffffffffffffffffff16815260200191505060405180910390f35b610e9c612016565b604051808273ffffffffffffffffffffffffffffffffffffffff1673ffffffffffffffffffffffffffffffffffffffff16815260200191505060405180910390f35b610ee661205b565b604051808273ffffffffffffffffffffffffffffffffffffffff1673ffffffffffffffffffffffffffffffffffffffff16815260200191505060405180910390f35b610f6a60048036036020811015610f3e57600080fd5b81019080803573ffffffffffffffffffffffffffffffffffffffff1690602001909291905050506120a0565b005b610f7461216e565b604051808273ffffffffffffffffffffffffffffffffffffffff1673ffffffffffffffffffffffffffffffffffffffff16815260200191505060405180910390f35b610fbe6121b3565b604051808273ffffffffffffffffffffffffffffffffffffffff1673ffffffffffffffffffffffffffffffffffffffff16815260200191505060405180910390f35b6110086121f8565b604051808273ffffffffffffffffffffffffffffffffffffffff1673ffffffffffffffffffffffffffffffffffffffff16815260200191505060405180910390f35b600061108a6040518060400160405280600581526020017f574554483900000000000000000000000000000000000000000000000000000081525061122d565b905090565b60006110cf6040518060400160405280600381526020017f446169000000000000000000000000000000000000000000000000000000000081525061122d565b905090565b60006111146040518060400160405280600d81526020017f556e69737761705632506169720000000000000000000000000000000000000081525061122d565b905090565b60006111596040518060400160405280600981526020017f54696d654672616d65000000000000000000000000000000000000000000000081525061122d565b905090565b600061119e6040518060400160405280600781526020017f42657474696e670000000000000000000000000000000000000000000000000081525061122d565b905090565b60006111e36040518060400160405280600d81526020017f4b7479576574684f7261636c650000000000000000000000000000000000000081525061122d565b905090565b60006112286040518060400160405280601681526020017f486f6e6579706f74416c6c6f636174696f6e416c676f0000000000000000000081525061122d565b905090565b60008082805190602001209050600073ffffffffffffffffffffffffffffffffffffffff166001600083815260200190815260200160002060009054906101000a900473ffffffffffffffffffffffffffffffffffffffff1673ffffffffffffffffffffffffffffffffffffffff1614156114325760608360405160200180807f436f6e7472616374206e6f7420726567697374657265643a200000000000000081525060190182805190602001908083835b6020831061130357805182526020820191506020810190506020830392506112e0565b6001836020036101000a0380198251168184511680821785525050505050509050019150506040516020818303038152906040526040516024018080602001828103825283818151815260200191508051906020019080838360005b8381101561137a57808201518184015260208101905061135f565b50505050905090810190601f1680156113a75780820380516001836020036101000a031916815260200191505b50925050506040516020818303038152906040527f08c379a0000000000000000000000000000000000000000000000000000000007bffffffffffffffffffffffffffffffffffffffffffffffffffffffff19166020820180517bffffffffffffffffffffffffffffffffffffffffffffffffffffffff838183161783525050505090508060208201fd5b6001600082815260200190815260200160002060009054906101000a900473ffffffffffffffffffffffffffffffffffffffff16915050919050565b60006114ae6040518060400160405280600f81526020017f4561726e696e6773547261636b6572000000000000000000000000000000000081525061122d565b905090565b60006114f36040518060400160405280600a81526020017f4b697474696548656c6c0000000000000000000000000000000000000000000081525061122d565b905090565b60006115386040518060400160405280600d81526020017f47616d65566172416e644665650000000000000000000000000000000000000081525061122d565b905090565b606080838390506040519080825280602002602001820160405280156115725781602001602082028038833980820191505090505b50905060008090505b8484905081101561161f576001600086868481811061159657fe5b90506020020135815260200190815260200160002060009054906101000a900473ffffffffffffffffffffffffffffffffffffffff168282815181106115d857fe5b602002602001019073ffffffffffffffffffffffffffffffffffffffff16908173ffffffffffffffffffffffffffffffffffffffff1681525050808060010191505061157b565b508091505092915050565b600061166a6040518060400160405280601081526020017f52617269747943616c63756c61746f720000000000000000000000000000000081525061122d565b905090565b60006116af6040518060400160405280600c81526020017f54696d65436f6e7472616374000000000000000000000000000000000000000081525061122d565b905090565b60006116f46040518060400160405280600981526020017f50726f66696c654442000000000000000000000000000000000000000000000081525061122d565b905090565b60006117396040518060400160405280600a81526020017f4b7479556e69737761700000000000000000000000000000000000000000000081525061122d565b905090565b6000809054906101000a900473ffffffffffffffffffffffffffffffffffffffff1673ffffffffffffffffffffffffffffffffffffffff163373ffffffffffffffffffffffffffffffffffffffff161461179457fe5b600082805190602001209050600073ffffffffffffffffffffffffffffffffffffffff166001600083815260200190815260200160002060009054906101000a900473ffffffffffffffffffffffffffffffffffffffff1673ffffffffffffffffffffffffffffffffffffffff161415611876576040517f08c379a00000000000000000000000000000000000000000000000000000000081526004018080602001828103825260208152602001807f4e6f20636f6e747261637420776974682074686973206e616d6520666f756e6481525060200191505060405180910390fd5b816001600083815260200190815260200160002060006101000a81548173ffffffffffffffffffffffffffffffffffffffff021916908373ffffffffffffffffffffffffffffffffffffffff160217905550505050565b600061190d6040518060400160405280600a81526020017f4574686965546f6b656e0000000000000000000000000000000000000000000081525061122d565b905090565b60006119526040518060400160405280600c81526020017f4b697474696548656c6c4442000000000000000000000000000000000000000081525061122d565b905090565b6000809054906101000a900473ffffffffffffffffffffffffffffffffffffffff1681565b60006119bc6040518060400160405280600681526020017f526f6c654442000000000000000000000000000000000000000000000000000081525061122d565b905090565b6000611a016040518060400160405280600b81526020017f486974735265736f6c766500000000000000000000000000000000000000000081525061122d565b905090565b6000611a466040518060400160405280600981526020017f5363686564756c6572000000000000000000000000000000000000000000000081525061122d565b905090565b6000809054906101000a900473ffffffffffffffffffffffffffffffffffffffff1673ffffffffffffffffffffffffffffffffffffffff163373ffffffffffffffffffffffffffffffffffffffff1614611aa157fe5b600081805190602001209050600073ffffffffffffffffffffffffffffffffffffffff166001600083815260200190815260200160002060009054906101000a900473ffffffffffffffffffffffffffffffffffffffff1673ffffffffffffffffffffffffffffffffffffffff161415611b83576040517f08c379a00000000000000000000000000000000000000000000000000000000081526004018080602001828103825260208152602001807f4e6f20636f6e747261637420776974682074686973206e616d6520666f756e6481525060200191505060405180910390fd5b60006001600083815260200190815260200160002060006101000a81548173ffffffffffffffffffffffffffffffffffffffff021916908373ffffffffffffffffffffffffffffffffffffffff1602179055505050565b6000611c1a6040518060400160405280600981526020017f466f72666569746572000000000000000000000000000000000000000000000081525061122d565b905090565b6000611c5f6040518060400160405280600c81526020017f446973747269627574696f6e000000000000000000000000000000000000000081525061122d565b905090565b6000611ca46040518060400160405280600a81526020017f474d53657474657244420000000000000000000000000000000000000000000081525061122d565b905090565b6000809054906101000a900473ffffffffffffffffffffffffffffffffffffffff1673ffffffffffffffffffffffffffffffffffffffff163373ffffffffffffffffffffffffffffffffffffffff1614611cff57fe5b600073ffffffffffffffffffffffffffffffffffffffff168173ffffffffffffffffffffffffffffffffffffffff161415611da2576040517f08c379a00000000000000000000000000000000000000000000000000000000081526004018080602001828103825260208152602001807f436f6e747261637420616464726573732063616e206e6f74206265207a65726f81525060200191505060405180910390fd5b600082805190602001209050600073ffffffffffffffffffffffffffffffffffffffff166001600083815260200190815260200160002060009054906101000a900473ffffffffffffffffffffffffffffffffffffffff1673ffffffffffffffffffffffffffffffffffffffff1614611e66576040517f08c379a000000000000000000000000000000000000000000000000000000000815260040180806020018281038252602581526020018061223e6025913960400191505060405180910390fd5b816001600083815260200190815260200160002060006101000a81548173ffffffffffffffffffffffffffffffffffffffff021916908373ffffffffffffffffffffffffffffffffffffffff160217905550505050565b6000611efd6040518060400160405280600781526020017f43726f6e4a6f620000000000000000000000000000000000000000000000000081525061122d565b905090565b6000611f426040518060400160405280600c81526020017f494461695765746850616972000000000000000000000000000000000000000081525061122d565b905090565b6000611f876040518060400160405280600a81526020017f474d47657474657244420000000000000000000000000000000000000000000081525061122d565b905090565b6000611fcc6040518060400160405280600c81526020017f5769746864726177506f6f6c000000000000000000000000000000000000000081525061122d565b905090565b60006120116040518060400160405280600b81526020017f47616d654d616e6167657200000000000000000000000000000000000000000081525061122d565b905090565b60006120566040518060400160405280600881526020017f526567697374657200000000000000000000000000000000000000000000000081525061122d565b905090565b600061209b6040518060400160405280600d81526020017f446169576574684f7261636c650000000000000000000000000000000000000081525061122d565b905090565b6000809054906101000a900473ffffffffffffffffffffffffffffffffffffffff1673ffffffffffffffffffffffffffffffffffffffff163373ffffffffffffffffffffffffffffffffffffffff16146120f657fe5b600073ffffffffffffffffffffffffffffffffffffffff168173ffffffffffffffffffffffffffffffffffffffff161461216b57806000806101000a81548173ffffffffffffffffffffffffffffffffffffffff021916908373ffffffffffffffffffffffffffffffffffffffff1602179055505b50565b60006121ae6040518060400160405280600b81526020017f456e646f776d656e74444200000000000000000000000000000000000000000081525061122d565b905090565b60006121f36040518060400160405280600d81526020017f456e646f776d656e7446756e640000000000000000000000000000000000000081525061122d565b905090565b60006122386040518060400160405280601181526020017f556e69737761705632526f75746572303100000000000000000000000000000081525061122d565b90509056fe436f6e747261637420776974682074686973206e616d6520616c7265616479206164646564a265627a7a72315820917f6fabf2c7109a75c6c12a70a9b4e51c0758fa5cafaf776a4f0ba0a1ac5abf64736f6c63430005110032",
  "source": "pragma solidity ^0.5.5;\r\n\r\nimport '../../ContractManager.sol';\r\nimport './ContractNames.sol';\r\n\r\n/**\r\n * @title ProxyBase is a common part for all interface contracts in Proxy,\r\n * it allows to get addresses of proxied contracts\r\n */\r\ncontract ProxyBase is ContractManager, ContractNames {\r\n\r\n    /**\r\n     * Getters for KittyFight system contracts\r\n     */\r\n     function addressOfRegister() public view returns(address)          {return getContract(CONTRACT_NAME_REGISTER);}\r\n     function addressOfProfileDB() public view returns(address)         {return getContract(CONTRACT_NAME_PROFILE_DB);}\r\n     function addressOfKittieHell() public view returns(address)        {return getContract(CONTRACT_NAME_KITTIEHELL);}\r\n     function addressOfKittieHellDB() public view returns(address)      {return getContract(CONTRACT_NAME_KITTIEHELL_DB);}\r\n     function addressOfGameManager() public view returns(address)       {return getContract(CONTRACT_NAME_GAMEMANAGER);}\r\n     function addressOfGMSetterDB() public view returns(address)        {return getContract(CONTRACT_NAME_GM_SETTER_DB);}\r\n     function addressOfGMGetterDB() public view returns(address)        {return getContract(CONTRACT_NAME_GM_GETTER_DB);}\r\n     function addressOfEndowmentDB() public view returns(address)       {return getContract(CONTRACT_NAME_ENDOWMENT_DB);}\r\n     function addressOfTimeContract() public view returns(address)      {return getContract(CONTRACT_NAME_TIMECONTRACT);}\r\n     function addressOfCronJob() public view returns(address)           {return getContract(CONTRACT_NAME_CRONJOB);}\r\n     function addressOfRoleDB() public view returns(address)            {return getContract(CONTRACT_NAME_ROLE_DB);}\r\n     function addressOfEndowmentFund() public view returns(address)     {return getContract(CONTRACT_NAME_ENDOWMENT_FUND);}\r\n     function addressOfDistribution() public view returns(address)      {return getContract(CONTRACT_NAME_DISTRIBUTION);}\r\n     function addressOfGameVarAndFee() public view returns(address)     {return getContract(CONTRACT_NAME_GAMEVARANDFEE);}\r\n     function addressOfForfeiter() public view returns(address)         {return getContract(CONTRACT_NAME_FORFEITER);}\r\n     function addressOfScheduler() public view returns(address)         {return getContract(CONTRACT_NAME_SCHEDULER);}\r\n     function addressOfHitsResolve() public view returns(address)       {return getContract(CONTRACT_NAME_HITSRESOLVE);}\r\n     function addressOfBetting() public view returns(address)           {return getContract(CONTRACT_NAME_BETTING);}\r\n     function addressOfRarityCalculator() public view returns(address)  {return getContract(CONTRACT_NAME_RARITYCALCULATOR);}\r\n     function addressOfTimeFrame() public view returns(address)         {return getContract(CONTRACT_NAME_TIMEFRAME);}\r\n     function addressOfHoneypotAllocationAlgo() public view returns(address) {return getContract(CONTRACT_NAME_HONEYPOT_ALLOCATION_ALGO);}\r\n     function addressOfEarningsTracker() public view returns(address)   {return getContract(CONTRACT_NAME_EARNINGS_TRACKER);}\r\n     function addressOfWithdrawPool() public view returns(address)     {return getContract(CONTRACT_NAME_WITHDRAW_POOL);}\r\n     function addressOfEthieToken() public view returns(address)     {return getContract(CONTRACT_NAME_ETHIETOKEN);}\r\n     function addressOfUniswapV2Pair() public view returns(address)     {return getContract(CONTRACT_NAME_UNISWAPV2_PAIR);}\r\n     function addressOfUniswapV2Router() public view returns(address)     {return getContract(CONTRACT_NAME_UNISWAPV2_ROUTER);}\r\n     function addressOfKtyWethOracle() public view returns(address)     {return getContract(CONTRACT_NAME_KTY_WETH_ORACLE);}\r\n     function addressOfKtyUniswap() public view returns(address)     {return getContract(CONTRACT_NAME_KTY_UNISWAP);}\r\n     function addressOfWETH() public view returns(address)     {return getContract(CONTRACT_NAME_WETH);}\r\n     function addressOfDAI() public view returns(address)     {return getContract(CONTRACT_NAME_DAI);}\r\n     function addressOfDaiWethPair() public view returns(address)     {return getContract(CONTRACT_NAME_DAI_WETH_PAIR);}\r\n     function addressOfDaiWethOracle() public view returns(address)     {return getContract(CONTRACT_NAME_DAI_WETH_ORACLE);}\r\n}\r\n",
  "sourcePath": "C:\\Users\\Alex\\Desktop\\MyProjects\\contracts\\contracts\\modules\\proxy\\ProxyBase.sol",
  "compiler": {
    "name": "solc",
    "version": "0.5.17+commit.d19bba13.Emscripten.clang"
  },
  "schemaVersion": "3.0.11",
  "updatedAt": "2020-06-16T13:44:07.641Z",
  "devdoc": {
    "methods": {},
    "title": "ProxyBase is a common part for all interface contracts in Proxy, it allows to get addresses of proxied contracts"
  },
  "userdoc": {
    "methods": {
      "addressOfRegister()": {
        "notice": "Getters for KittyFight system contracts"
      }
    }
  }
}