{
  "contractName": "RarityCalculator",
  "abi": [
    {
      "anonymous": false,
      "inputs": [
        {
          "indexed": true,
          "internalType": "uint256",
          "name": "_kittieId",
          "type": "uint256"
        },
        {
          "indexed": false,
          "internalType": "uint256",
          "name": "_originalDefenseLevel",
          "type": "uint256"
        }
      ],
      "name": "OriginalDefenseLevelCalculated",
      "type": "event"
    },
    {
      "constant": true,
      "inputs": [
        {
          "internalType": "string",
          "name": "",
          "type": "string"
        }
      ],
      "name": "CattributesScores",
      "outputs": [
        {
          "internalType": "uint256",
          "name": "",
          "type": "uint256"
        }
      ],
      "payable": false,
      "stateMutability": "view",
      "type": "function"
    },
    {
      "constant": false,
      "inputs": [
        {
          "internalType": "uint256",
          "name": "kittieId",
          "type": "uint256"
        }
      ],
      "name": "binaryToKai",
      "outputs": [],
      "payable": false,
      "stateMutability": "nonpayable",
      "type": "function"
    },
    {
      "constant": true,
      "inputs": [
        {
          "internalType": "uint256",
          "name": "kittieId",
          "type": "uint256"
        }
      ],
      "name": "calculateRarity",
      "outputs": [
        {
          "internalType": "uint256",
          "name": "rarity",
          "type": "uint256"
        }
      ],
      "payable": false,
      "stateMutability": "view",
      "type": "function"
    },
    {
      "constant": true,
      "inputs": [
        {
          "internalType": "string",
          "name": "",
          "type": "string"
        },
        {
          "internalType": "bytes1",
          "name": "",
          "type": "bytes1"
        }
      ],
      "name": "cattributes",
      "outputs": [
        {
          "internalType": "string",
          "name": "",
          "type": "string"
        }
      ],
      "payable": false,
      "stateMutability": "view",
      "type": "function"
    },
    {
      "constant": false,
      "inputs": [],
      "name": "fillKaiValue",
      "outputs": [],
      "payable": false,
      "stateMutability": "nonpayable",
      "type": "function"
    },
    {
      "constant": false,
      "inputs": [
        {
          "internalType": "uint256",
          "name": "kittieId",
          "type": "uint256"
        },
        {
          "internalType": "uint256",
          "name": "gene",
          "type": "uint256"
        }
      ],
      "name": "getDominantGeneBinary",
      "outputs": [],
      "payable": false,
      "stateMutability": "nonpayable",
      "type": "function"
    },
    {
      "constant": true,
      "inputs": [
        {
          "internalType": "uint256",
          "name": "begin",
          "type": "uint256"
        },
        {
          "internalType": "uint256",
          "name": "end",
          "type": "uint256"
        },
        {
          "internalType": "string",
          "name": "text",
          "type": "string"
        }
      ],
      "name": "getSlice",
      "outputs": [
        {
          "internalType": "string",
          "name": "",
          "type": "string"
        }
      ],
      "payable": false,
      "stateMutability": "pure",
      "type": "function"
    },
    {
      "constant": false,
      "inputs": [
        {
          "internalType": "uint256",
          "name": "kittieId",
          "type": "uint256"
        }
      ],
      "name": "kaiToCattribute",
      "outputs": [],
      "payable": false,
      "stateMutability": "nonpayable",
      "type": "function"
    },
    {
      "constant": true,
      "inputs": [
        {
          "internalType": "string",
          "name": "",
          "type": "string"
        }
      ],
      "name": "kaiValue",
      "outputs": [
        {
          "internalType": "bytes1",
          "name": "",
          "type": "bytes1"
        }
      ],
      "payable": false,
      "stateMutability": "view",
      "type": "function"
    },
    {
      "constant": true,
      "inputs": [
        {
          "internalType": "uint256",
          "name": "",
          "type": "uint256"
        },
        {
          "internalType": "uint256",
          "name": "",
          "type": "uint256"
        }
      ],
      "name": "kittiesDominantCattributes",
      "outputs": [
        {
          "internalType": "string",
          "name": "",
          "type": "string"
        }
      ],
      "payable": false,
      "stateMutability": "view",
      "type": "function"
    },
    {
      "constant": true,
      "inputs": [
        {
          "internalType": "uint256",
          "name": "",
          "type": "uint256"
        },
        {
          "internalType": "uint256",
          "name": "",
          "type": "uint256"
        }
      ],
      "name": "kittiesDominantGeneBinary",
      "outputs": [
        {
          "internalType": "string",
          "name": "",
          "type": "string"
        }
      ],
      "payable": false,
      "stateMutability": "view",
      "type": "function"
    },
    {
      "constant": true,
      "inputs": [
        {
          "internalType": "uint256",
          "name": "",
          "type": "uint256"
        },
        {
          "internalType": "uint256",
          "name": "",
          "type": "uint256"
        }
      ],
      "name": "kittiesDominantGeneKai",
      "outputs": [
        {
          "internalType": "bytes1",
          "name": "",
          "type": "bytes1"
        }
      ],
      "payable": false,
      "stateMutability": "view",
      "type": "function"
    },
    {
      "constant": true,
      "inputs": [],
      "name": "owner",
      "outputs": [
        {
          "internalType": "address payable",
          "name": "",
          "type": "address"
        }
      ],
      "payable": false,
      "stateMutability": "view",
      "type": "function"
    },
    {
      "constant": true,
      "inputs": [],
      "name": "proxy",
      "outputs": [
        {
          "internalType": "contract ProxyBase",
          "name": "",
          "type": "address"
        }
      ],
      "payable": false,
      "stateMutability": "view",
      "type": "function"
    },
    {
      "constant": false,
      "inputs": [
        {
          "internalType": "uint256",
          "name": "max",
          "type": "uint256"
        },
        {
          "internalType": "uint256",
          "name": "min",
          "type": "uint256"
        },
        {
          "internalType": "uint256",
          "name": "totalKitties",
          "type": "uint256"
        }
      ],
      "name": "setDefenseLevelLimit",
      "outputs": [],
      "payable": false,
      "stateMutability": "nonpayable",
      "type": "function"
    },
    {
      "constant": false,
      "inputs": [
        {
          "internalType": "contract ProxyBase",
          "name": "_proxy",
          "type": "address"
        }
      ],
      "name": "setProxy",
      "outputs": [],
      "payable": false,
      "stateMutability": "nonpayable",
      "type": "function"
    },
    {
      "constant": true,
      "inputs": [
        {
          "internalType": "uint256",
          "name": "n",
          "type": "uint256"
        }
      ],
      "name": "toBinaryString",
      "outputs": [
        {
          "internalType": "string",
          "name": "",
          "type": "string"
        }
      ],
      "payable": false,
      "stateMutability": "pure",
      "type": "function"
    },
    {
      "constant": false,
      "inputs": [
        {
          "internalType": "address payable",
          "name": "newOwner",
          "type": "address"
        }
      ],
      "name": "transferOwnership",
      "outputs": [],
      "payable": false,
      "stateMutability": "nonpayable",
      "type": "function"
    },
    {
      "constant": false,
      "inputs": [
        {
          "internalType": "bytes32[]",
          "name": "_cattribute",
          "type": "bytes32[]"
        },
        {
          "internalType": "uint256",
          "name": "_noOfTypes",
          "type": "uint256"
        }
      ],
      "name": "updateCattributes",
      "outputs": [],
      "payable": false,
      "stateMutability": "nonpayable",
      "type": "function"
    },
    {
      "constant": false,
      "inputs": [
        {
          "internalType": "bytes32[]",
          "name": "_name",
          "type": "bytes32[]"
        },
        {
          "internalType": "uint256[]",
          "name": "_score",
          "type": "uint256[]"
        }
      ],
      "name": "updateCattributesScores",
      "outputs": [],
      "payable": false,
      "stateMutability": "nonpayable",
      "type": "function"
    },
    {
      "constant": false,
      "inputs": [
        {
          "internalType": "uint256[]",
          "name": "_kittieId",
          "type": "uint256[]"
        },
        {
          "internalType": "bytes32[]",
          "name": "_name",
          "type": "bytes32[]"
        },
        {
          "internalType": "uint256[]",
          "name": "_nameLength",
          "type": "uint256[]"
        }
      ],
      "name": "updateFancyKittiesList",
      "outputs": [],
      "payable": false,
      "stateMutability": "nonpayable",
      "type": "function"
    },
    {
      "constant": false,
      "inputs": [
        {
          "internalType": "uint256",
          "name": "_totalKitties",
          "type": "uint256"
        }
      ],
      "name": "updateTotalKitties",
      "outputs": [],
      "payable": false,
      "stateMutability": "nonpayable",
      "type": "function"
    },
    {
      "constant": false,
      "inputs": [
        {
          "internalType": "uint256",
          "name": "kittieId",
          "type": "uint256"
        },
        {
          "internalType": "uint256",
          "name": "gene",
          "type": "uint256"
        }
      ],
      "name": "getDefenseLevel",
      "outputs": [
        {
          "internalType": "uint256",
          "name": "",
          "type": "uint256"
        }
      ],
      "payable": false,
      "stateMutability": "nonpayable",
      "type": "function"
    },
    {
      "constant": true,
      "inputs": [
        {
          "internalType": "uint256",
          "name": "_kittieId",
          "type": "uint256"
        }
      ],
      "name": "isFancy",
      "outputs": [
        {
          "internalType": "bool",
          "name": "",
          "type": "bool"
        }
      ],
      "payable": false,
      "stateMutability": "view",
      "type": "function"
    }
  ],
  "bytecode": "0x6080604052600060035560006004556040518061014001604052806040518060400160405280600481526020017f626f64790000000000000000000000000000000000000000000000000000000081525081526020016040518060400160405280600781526020017f7061747465726e0000000000000000000000000000000000000000000000000081525081526020016040518060400160405280600981526020017f636f6c6f7265796573000000000000000000000000000000000000000000000081525081526020016040518060400160405280600481526020017f657965730000000000000000000000000000000000000000000000000000000081525081526020016040518060400160405280600681526020017f636f6c6f7231000000000000000000000000000000000000000000000000000081525081526020016040518060400160405280600681526020017f636f6c6f7232000000000000000000000000000000000000000000000000000081525081526020016040518060400160405280600681526020017f636f6c6f7233000000000000000000000000000000000000000000000000000081525081526020016040518060400160405280600481526020017f77696c640000000000000000000000000000000000000000000000000000000081525081526020016040518060400160405280600581526020017f6d6f75746800000000000000000000000000000000000000000000000000000081525081526020016040518060400160405280600b81526020017f656e7669726f6e6d656e74000000000000000000000000000000000000000000815250815250600590600a620002789291906200030d565b506040518060400160405280602081526020017f3132333435363738396162636465666768696a6b6d6e6f707172737475767778815250600f9080519060200190620002c692919062000367565b50336000806101000a81548173ffffffffffffffffffffffffffffffffffffffff021916908373ffffffffffffffffffffffffffffffffffffffff1602179055506200051a565b82600a810192821562000354579160200282015b828111156200035357825182908051906020019062000342929190620003ee565b509160200191906001019062000321565b5b50905062000363919062000475565b5090565b828054600181600116156101000203166002900490600052602060002090601f016020900481019282601f10620003aa57805160ff1916838001178555620003db565b82800160010185558215620003db579182015b82811115620003da578251825591602001919060010190620003bd565b5b509050620003ea9190620004a6565b5090565b828054600181600116156101000203166002900490600052602060002090601f016020900481019282601f106200043157805160ff191683800117855562000462565b8280016001018555821562000462579182015b828111156200046157825182559160200191906001019062000444565b5b509050620004719190620004a6565b5090565b620004a391905b808211156200049f5760008181620004959190620004ce565b506001016200047c565b5090565b90565b620004cb91905b80821115620004c7576000816000905550600101620004ad565b5090565b90565b50805460018160011615610100020316600290046000825580601f10620004f6575062000517565b601f016020900490600052602060002090810190620005169190620004a6565b5b50565b61561d806200052a6000396000f3fe608060405234801561001057600080fd5b50600436106101585760003560e01c806397107d6d116100c3578063d4c950c41161007c578063d4c950c414610c27578063ec55688914610cf6578063f2fde38b14610d40578063f343050414610d84578063f4fb432f14610e97578063fb51a0ad14610f3e57610158565b806397107d6d1461088a578063979cfe08146108ce578063a97aaccf1461097f578063bfcfd60b146109ad578063c1f34acb146109b7578063c9f638fc14610b9757610158565b80635a095f47116101155780635a095f471461046c57806361c5b6971461052e578063789ef429146105745780637f60b20a146105ac5780638b356e9d146106f45780638da5cb5b1461084057610158565b8063022d1c011461015d5780630e25272d1461020e5780630f240ab41461025057806315788563146103b05780633af9bbac146103f25780634ca88dff1461043e575b600080fd5b6101936004803603604081101561017357600080fd5b810190808035906020019092919080359060200190929190505050610f6c565b6040518080602001828103825283818151815260200191508051906020019080838360005b838110156101d35780820151818401526020810190506101b8565b50505050905090810190601f1680156102005780820380516001836020036101000a031916815260200191505b509250505060405180910390f35b61023a6004803603602081101561022457600080fd5b8101908080359060200190929190505050611032565b6040518082815260200191505060405180910390f35b6103356004803603604081101561026657600080fd5b810190808035906020019064010000000081111561028357600080fd5b82018360208201111561029557600080fd5b803590602001918460018302840111640100000000831117156102b757600080fd5b91908080601f016020809104026020016040519081016040528093929190818152602001838380828437600081840152601f19601f82011690508083019250505050505050919291929080357effffffffffffffffffffffffffffffffffffffffffffffffffffffffffffff1916906020019092919050505061153c565b6040518080602001828103825283818151815260200191508051906020019080838360005b8381101561037557808201518184015260208101905061035a565b50505050905090810190601f1680156103a25780820380516001836020036101000a031916815260200191505b509250505060405180910390f35b6103f0600480360360608110156103c657600080fd5b8101908080359060200190929190803590602001909291908035906020019092919050505061160f565b005b6104286004803603604081101561040857600080fd5b81019080803590602001909291908035906020019092919050505061184e565b6040518082815260200191505060405180910390f35b61046a6004803603602081101561045457600080fd5b81019080803590602001909291905050506119c5565b005b61052c6004803603604081101561048257600080fd5b810190808035906020019064010000000081111561049f57600080fd5b8201836020820111156104b157600080fd5b803590602001918460208302840111640100000000831117156104d357600080fd5b919080806020026020016040519081016040528093929190818152602001838360200280828437600081840152601f19601f82011690508083019250505050505050919291929080359060200190929190505050612580565b005b61055a6004803603602081101561054457600080fd5b810190808035906020019092919050505061287a565b604051808215151515815260200191505060405180910390f35b6105aa6004803603604081101561058a57600080fd5b810190808035906020019092919080359060200190929190505050612951565b005b610679600480360360608110156105c257600080fd5b810190808035906020019092919080359060200190929190803590602001906401000000008111156105f357600080fd5b82018360208201111561060557600080fd5b8035906020019184600183028401116401000000008311171561062757600080fd5b91908080601f016020809104026020016040519081016040528093929190818152602001838380828437600081840152601f19601f820116905080830192505050505050509192919290505050612cfb565b6040518080602001828103825283818151815260200191508051906020019080838360005b838110156106b957808201518184015260208101905061069e565b50505050905090810190601f1680156106e65780820380516001836020036101000a031916815260200191505b509250505060405180910390f35b61083e6004803603604081101561070a57600080fd5b810190808035906020019064010000000081111561072757600080fd5b82018360208201111561073957600080fd5b8035906020019184602083028401116401000000008311171561075b57600080fd5b919080806020026020016040519081016040528093929190818152602001838360200280828437600081840152601f19601f820116905080830192505050505050509192919290803590602001906401000000008111156107bb57600080fd5b8201836020820111156107cd57600080fd5b803590602001918460208302840111640100000000831117156107ef57600080fd5b919080806020026020016040519081016040528093929190818152602001838360200280828437600081840152601f19601f820116905080830192505050505050509192919290505050612e08565b005b610848612fac565b604051808273ffffffffffffffffffffffffffffffffffffffff1673ffffffffffffffffffffffffffffffffffffffff16815260200191505060405180910390f35b6108cc600480360360208110156108a057600080fd5b81019080803573ffffffffffffffffffffffffffffffffffffffff169060200190929190505050612fd1565b005b610904600480360360408110156108e457600080fd5b81019080803590602001909291908035906020019092919050505061306b565b6040518080602001828103825283818151815260200191508051906020019080838360005b83811015610944578082015181840152602081019050610929565b50505050905090810190601f1680156109715780820380516001836020036101000a031916815260200191505b509250505060405180910390f35b6109ab6004803603602081101561099557600080fd5b8101908080359060200190929190505050613131565b005b6109b5613b2a565b005b610b95600480360360608110156109cd57600080fd5b81019080803590602001906401000000008111156109ea57600080fd5b8201836020820111156109fc57600080fd5b80359060200191846020830284011164010000000083111715610a1e57600080fd5b919080806020026020016040519081016040528093929190818152602001838360200280828437600081840152601f19601f82011690508083019250505050505050919291929080359060200190640100000000811115610a7e57600080fd5b820183602082011115610a9057600080fd5b80359060200191846020830284011164010000000083111715610ab257600080fd5b919080806020026020016040519081016040528093929190818152602001838360200280828437600081840152601f19601f82011690508083019250505050505050919291929080359060200190640100000000811115610b1257600080fd5b820183602082011115610b2457600080fd5b80359060200191846020830284011164010000000083111715610b4657600080fd5b919080806020026020016040519081016040528093929190818152602001838360200280828437600081840152601f19601f820116905080830192505050505050509192919290505050614af3565b005b610bcd60048036036040811015610bad57600080fd5b810190808035906020019092919080359060200190929190505050614c9d565b60405180827effffffffffffffffffffffffffffffffffffffffffffffffffffffffffffff19167effffffffffffffffffffffffffffffffffffffffffffffffffffffffffffff1916815260200191505060405180910390f35b610ce060048036036020811015610c3d57600080fd5b8101908080359060200190640100000000811115610c5a57600080fd5b820183602082011115610c6c57600080fd5b80359060200191846001830284011164010000000083111715610c8e57600080fd5b91908080601f016020809104026020016040519081016040528093929190818152602001838380828437600081840152601f19601f820116905080830192505050505050509192919290505050614cdd565b6040518082815260200191505060405180910390f35b610cfe614d0b565b604051808273ffffffffffffffffffffffffffffffffffffffff1673ffffffffffffffffffffffffffffffffffffffff16815260200191505060405180910390f35b610d8260048036036020811015610d5657600080fd5b81019080803573ffffffffffffffffffffffffffffffffffffffff169060200190929190505050614d31565b005b610e3d60048036036020811015610d9a57600080fd5b8101908080359060200190640100000000811115610db757600080fd5b820183602082011115610dc957600080fd5b80359060200191846001830284011164010000000083111715610deb57600080fd5b91908080601f016020809104026020016040519081016040528093929190818152602001838380828437600081840152601f19601f820116905080830192505050505050509192919290505050614dff565b60405180827effffffffffffffffffffffffffffffffffffffffffffffffffffffffffffff19167effffffffffffffffffffffffffffffffffffffffffffffffffffffffffffff1916815260200191505060405180910390f35b610ec360048036036020811015610ead57600080fd5b8101908080359060200190929190505050614e35565b6040518080602001828103825283818151815260200191508051906020019080838360005b83811015610f03578082015181840152602081019050610ee8565b50505050905090810190601f168015610f305780820380516001836020036101000a031916815260200191505b509250505060405180910390f35b610f6a60048036036020811015610f5457600080fd5b8101908080359060200190929190505050614f43565b005b60116020528160005260406000208181548110610f8557fe5b90600052602060002001600091509150508054600181600116156101000203166002900480601f01602080910402602001604051908101604052809291908181526020018280546001816001161561010002031660029004801561102a5780601f10610fff5761010080835404028352916020019161102a565b820191906000526020600020905b81548152906001019060200180831161100d57829003601f168201915b505050505081565b60006115356014546115276305f5e10060156013600088815260200190815260200160002060088154811061106357fe5b9060005260206000200160405180828054600181600116156101000203166002900480156110c85780601f106110a65761010080835404028352918201916110c8565b820191906000526020600020905b8154815290600101906020018083116110b4575b50509150509081526020016040518091039020546015601360008981526020019081526020016000206006815481106110fd57fe5b9060005260206000200160405180828054600181600116156101000203166002900480156111625780601f10611140576101008083540402835291820191611162565b820191906000526020600020905b81548152906001019060200180831161114e575b50509150509081526020016040518091039020546015601360008a815260200190815260200160002060058154811061119757fe5b9060005260206000200160405180828054600181600116156101000203166002900480156111fc5780601f106111da5761010080835404028352918201916111fc565b820191906000526020600020905b8154815290600101906020018083116111e8575b50509150509081526020016040518091039020546015601360008b815260200190815260200160002060048154811061123157fe5b9060005260206000200160405180828054600181600116156101000203166002900480156112965780601f10611274576101008083540402835291820191611296565b820191906000526020600020905b815481529060010190602001808311611282575b50509150509081526020016040518091039020546015601360008c81526020019081526020016000206003815481106112cb57fe5b9060005260206000200160405180828054600181600116156101000203166002900480156113305780601f1061130e576101008083540402835291820191611330565b820191906000526020600020905b81548152906001019060200180831161131c575b50509150509081526020016040518091039020546015601360008d815260200190815260200160002060028154811061136557fe5b9060005260206000200160405180828054600181600116156101000203166002900480156113ca5780601f106113a85761010080835404028352918201916113ca565b820191906000526020600020905b8154815290600101906020018083116113b6575b50509150509081526020016040518091039020546015601360008e81526020019081526020016000206001815481106113ff57fe5b9060005260206000200160405180828054600181600116156101000203166002900480156114645780601f10611442576101008083540402835291820191611464565b820191906000526020600020905b815481529060010190602001808311611450575b50509150509081526020016040518091039020546015601360008f815260200190815260200160002060008154811061149957fe5b9060005260206000200160405180828054600181600116156101000203166002900480156114fe5780601f106114dc5761010080835404028352918201916114fe565b820191906000526020600020905b8154815290600101906020018083116114ea575b50509150509081526020016040518091039020540101010101010161503490919063ffffffff16565b61506b90919063ffffffff16565b9050919050565b600282805160208101820180518482526020830160208501208183528095505050505050602052806000526040600020600091509150508054600181600116156101000203166002900480601f0160208091040260200160405190810160405280929190818152602001828054600181600116156101000203166002900480156116075780601f106115dc57610100808354040283529160200191611607565b820191906000526020600020905b8154815290600101906020018083116115ea57829003601f168201915b505050505081565b600073ffffffffffffffffffffffffffffffffffffffff163373ffffffffffffffffffffffffffffffffffffffff16141561164657fe5b6116846040518060400160405280600b81526020017f73757065725f61646d696e000000000000000000000000000000000000000000815250615084565b6116f6576040517f08c379a00000000000000000000000000000000000000000000000000000000081526004018080602001828103825260108152602001807f4f6e6c792073757065722061646d696e0000000000000000000000000000000081525060200191505060405180910390fd5b6117308161172262989680611714868861530090919063ffffffff16565b61503490919063ffffffff16565b61506b90919063ffffffff16565b601660040181905550611774816117666301312d00611758868861530090919063ffffffff16565b61503490919063ffffffff16565b61506b90919063ffffffff16565b6016600301819055506117b8816117aa6302625a0061179c868861530090919063ffffffff16565b61503490919063ffffffff16565b61506b90919063ffffffff16565b6016600201819055506117fc816117ee63039387006117e0868861530090919063ffffffff16565b61503490919063ffffffff16565b61506b90919063ffffffff16565b601660010181905550611840816118326304c4b400611824868861530090919063ffffffff16565b61503490919063ffffffff16565b61506b90919063ffffffff16565b601660000181905550505050565b600061185a8383612951565b61186383613131565b61186c836119c5565b600061187784611032565b9050600061271085101561188e5760069050611978565b6118978561287a565b156118a55760059050611977565b6016600401548210156118bb5760069050611976565b60166004015482101580156118d4575060166003015482105b156118e25760059050611975565b60166003015482101580156118fb575060166002015482105b156119095760049050611974565b6016600201548210158015611922575060166001015482105b156119305760039050611973565b6016600101548210158015611949575060166000015482105b156119575760029050611972565b601660000154821061196c5760019050611971565b600190505b5b5b5b5b5b5b5b847f37475974c94712c88340b211b80cd56727b2452b734ef1f330fa3c4c7b1d417c826040518082815260200191505060405180910390a2600081116119ba57fe5b809250505092915050565b60136000828152602001908152602001600020600260405180807f626f64790000000000000000000000000000000000000000000000000000000081525060040190509081526020016040518091039020600060126000858152602001908152602001600020600081548110611a3757fe5b90600052602060002090602091828204019190069054906101000a900460f81b7effffffffffffffffffffffffffffffffffffffffffffffffffffffffffffff19167effffffffffffffffffffffffffffffffffffffffffffffffffffffffffffff191681526020019081526020016000209080600181540180825580915050906001820390600052602060002001600090919290919091509080546001816001161561010002031660029004611aef9291906154bc565b505060136000828152602001908152602001600020600260405180807f7061747465726e0000000000000000000000000000000000000000000000000081525060070190509081526020016040518091039020600060126000858152602001908152602001600020600181548110611b6357fe5b90600052602060002090602091828204019190069054906101000a900460f81b7effffffffffffffffffffffffffffffffffffffffffffffffffffffffffffff19167effffffffffffffffffffffffffffffffffffffffffffffffffffffffffffff191681526020019081526020016000209080600181540180825580915050906001820390600052602060002001600090919290919091509080546001816001161561010002031660029004611c1b9291906154bc565b505060136000828152602001908152602001600020600260405180807f636f6c6f7265796573000000000000000000000000000000000000000000000081525060090190509081526020016040518091039020600060126000858152602001908152602001600020600281548110611c8f57fe5b90600052602060002090602091828204019190069054906101000a900460f81b7effffffffffffffffffffffffffffffffffffffffffffffffffffffffffffff19167effffffffffffffffffffffffffffffffffffffffffffffffffffffffffffff191681526020019081526020016000209080600181540180825580915050906001820390600052602060002001600090919290919091509080546001816001161561010002031660029004611d479291906154bc565b505060136000828152602001908152602001600020600260405180807f657965730000000000000000000000000000000000000000000000000000000081525060040190509081526020016040518091039020600060126000858152602001908152602001600020600381548110611dbb57fe5b90600052602060002090602091828204019190069054906101000a900460f81b7effffffffffffffffffffffffffffffffffffffffffffffffffffffffffffff19167effffffffffffffffffffffffffffffffffffffffffffffffffffffffffffff191681526020019081526020016000209080600181540180825580915050906001820390600052602060002001600090919290919091509080546001816001161561010002031660029004611e739291906154bc565b505060136000828152602001908152602001600020600260405180807f636f6c6f7231000000000000000000000000000000000000000000000000000081525060060190509081526020016040518091039020600060126000858152602001908152602001600020600481548110611ee757fe5b90600052602060002090602091828204019190069054906101000a900460f81b7effffffffffffffffffffffffffffffffffffffffffffffffffffffffffffff19167effffffffffffffffffffffffffffffffffffffffffffffffffffffffffffff191681526020019081526020016000209080600181540180825580915050906001820390600052602060002001600090919290919091509080546001816001161561010002031660029004611f9f9291906154bc565b505060136000828152602001908152602001600020600260405180807f636f6c6f723200000000000000000000000000000000000000000000000000008152506006019050908152602001604051809103902060006012600085815260200190815260200160002060058154811061201357fe5b90600052602060002090602091828204019190069054906101000a900460f81b7effffffffffffffffffffffffffffffffffffffffffffffffffffffffffffff19167effffffffffffffffffffffffffffffffffffffffffffffffffffffffffffff1916815260200190815260200160002090806001815401808255809150509060018203906000526020600020016000909192909190915090805460018160011615610100020316600290046120cb9291906154bc565b505060136000828152602001908152602001600020600260405180807f636f6c6f723300000000000000000000000000000000000000000000000000008152506006019050908152602001604051809103902060006012600085815260200190815260200160002060068154811061213f57fe5b90600052602060002090602091828204019190069054906101000a900460f81b7effffffffffffffffffffffffffffffffffffffffffffffffffffffffffffff19167effffffffffffffffffffffffffffffffffffffffffffffffffffffffffffff1916815260200190815260200160002090806001815401808255809150509060018203906000526020600020016000909192909190915090805460018160011615610100020316600290046121f79291906154bc565b505060136000828152602001908152602001600020600260405180807f77696c64000000000000000000000000000000000000000000000000000000008152506004019050908152602001604051809103902060006012600085815260200190815260200160002060078154811061226b57fe5b90600052602060002090602091828204019190069054906101000a900460f81b7effffffffffffffffffffffffffffffffffffffffffffffffffffffffffffff19167effffffffffffffffffffffffffffffffffffffffffffffffffffffffffffff1916815260200190815260200160002090806001815401808255809150509060018203906000526020600020016000909192909190915090805460018160011615610100020316600290046123239291906154bc565b505060136000828152602001908152602001600020600260405180807f6d6f7574680000000000000000000000000000000000000000000000000000008152506005019050908152602001604051809103902060006012600085815260200190815260200160002060088154811061239757fe5b90600052602060002090602091828204019190069054906101000a900460f81b7effffffffffffffffffffffffffffffffffffffffffffffffffffffffffffff19167effffffffffffffffffffffffffffffffffffffffffffffffffffffffffffff19168152602001908152602001600020908060018154018082558091505090600182039060005260206000200160009091929091909150908054600181600116156101000203166002900461244f9291906154bc565b505060136000828152602001908152602001600020600260405180807f656e7669726f6e6d656e74000000000000000000000000000000000000000000815250600b01905090815260200160405180910390206000601260008581526020019081526020016000206009815481106124c357fe5b90600052602060002090602091828204019190069054906101000a900460f81b7effffffffffffffffffffffffffffffffffffffffffffffffffffffffffffff19167effffffffffffffffffffffffffffffffffffffffffffffffffffffffffffff19168152602001908152602001600020908060018154018082558091505090600182039060005260206000200160009091929091909150908054600181600116156101000203166002900461257b9291906154bc565b505050565b600073ffffffffffffffffffffffffffffffffffffffff163373ffffffffffffffffffffffffffffffffffffffff1614156125b757fe5b6125f56040518060400160405280600b81526020017f73757065725f61646d696e000000000000000000000000000000000000000000815250615084565b612667576040517f08c379a00000000000000000000000000000000000000000000000000000000081526004018080602001828103825260108152602001807f4f6e6c792073757065722061646d696e0000000000000000000000000000000081525060200191505060405180910390fd5b600060035490505b81600354018110156128625760008090505b6020811015612854576126a8846004548151811061269b57fe5b6020026020010151615317565b6002600584600a81106126b757fe5b0160405180828054600181600116156101000203166002900480156127135780601f106126f1576101008083540402835291820191612713565b820191906000526020600020905b8154815290600101906020018083116126ff575b5050915050908152602001604051809103902060006127cf600f8054600181600116156101000203166002900480601f0160208091040260200160405190810160405280929190818152602001828054600181600116156101000203166002900480156127c15780601f10612796576101008083540402835291602001916127c1565b820191906000526020600020905b8154815290600101906020018083116127a457829003601f168201915b5050505050856020016153bf565b7effffffffffffffffffffffffffffffffffffffffffffffffffffffffffffff19167effffffffffffffffffffffffffffffffffffffffffffffffffffffffffffff191681526020019081526020016000209080519060200190612834929190615543565b506004600081548092919060010191905055508080600101915050612681565b50808060010191505061266f565b50806003540160038190555060006004819055505050565b60006060601b60008481526020019081526020016000208054600181600116156101000203166002900480601f0160208091040260200160405190810160405280929190818152602001828054600181600116156101000203166002900480156129255780601f106128fa57610100808354040283529160200191612925565b820191906000526020600020905b81548152906001019060200180831161290857829003601f168201915b50505050509050606081905060008151146129455760019250505061294c565b6000925050505b919050565b606061295c82614e35565b90506011600084815260200190815260200160002061297e60ec60f084612cfb565b90806001815401808255809150509060018203906000526020600020016000909192909190915090805190602001906129b8929190615543565b5050601160008481526020019081526020016000206129da60d860dc84612cfb565b9080600181540180825580915050906001820390600052602060002001600090919290919091509080519060200190612a14929190615543565b505060116000848152602001908152602001600020612a3660c460c884612cfb565b9080600181540180825580915050906001820390600052602060002001600090919290919091509080519060200190612a70929190615543565b505060116000848152602001908152602001600020612a9260b060b484612cfb565b9080600181540180825580915050906001820390600052602060002001600090919290919091509080519060200190612acc929190615543565b505060116000848152602001908152602001600020612aee609c60a084612cfb565b9080600181540180825580915050906001820390600052602060002001600090919290919091509080519060200190612b28929190615543565b505060116000848152602001908152602001600020612b4a6088608c84612cfb565b9080600181540180825580915050906001820390600052602060002001600090919290919091509080519060200190612b84929190615543565b505060116000848152602001908152602001600020612ba66074607884612cfb565b9080600181540180825580915050906001820390600052602060002001600090919290919091509080519060200190612be0929190615543565b505060116000848152602001908152602001600020612c026060606484612cfb565b9080600181540180825580915050906001820390600052602060002001600090919290919091509080519060200190612c3c929190615543565b505060116000848152602001908152602001600020612c5e604c605084612cfb565b9080600181540180825580915050906001820390600052602060002001600090919290919091509080519060200190612c98929190615543565b505060116000848152602001908152602001600020612cba6038603c84612cfb565b9080600181540180825580915050906001820390600052602060002001600090919290919091509080519060200190612cf4929190615543565b5050505050565b606080612d246001612d16878761530090919063ffffffff16565b6153eb90919063ffffffff16565b6040519080825280601f01601f191660200182016040528015612d565781602001600182028038833980820191505090505b50905060008090505b612d72868661530090919063ffffffff16565b8111612dfc5783612d9f6001612d9189856153eb90919063ffffffff16565b61530090919063ffffffff16565b81518110612da957fe5b602001015160f81c60f81b828281518110612dc057fe5b60200101907effffffffffffffffffffffffffffffffffffffffffffffffffffffffffffff1916908160001a9053508080600101915050612d5f565b50809150509392505050565b600073ffffffffffffffffffffffffffffffffffffffff163373ffffffffffffffffffffffffffffffffffffffff161415612e3f57fe5b612e7d6040518060400160405280600b81526020017f73757065725f61646d696e000000000000000000000000000000000000000000815250615084565b612eef576040517f08c379a00000000000000000000000000000000000000000000000000000000081526004018080602001828103825260108152602001807f4f6e6c792073757065722061646d696e0000000000000000000000000000000081525060200191505060405180910390fd5b60008090505b8251811015612fa757818181518110612f0a57fe5b60200260200101516015612f30858481518110612f2357fe5b6020026020010151615317565b6040518082805190602001908083835b60208310612f635780518252602082019150602081019050602083039250612f40565b6001836020036101000a0380198251168184511680821785525050505050509050019150509081526020016040518091039020819055508080600101915050612ef5565b505050565b6000809054906101000a900473ffffffffffffffffffffffffffffffffffffffff1681565b6000809054906101000a900473ffffffffffffffffffffffffffffffffffffffff1673ffffffffffffffffffffffffffffffffffffffff163373ffffffffffffffffffffffffffffffffffffffff161461302757fe5b80600160006101000a81548173ffffffffffffffffffffffffffffffffffffffff021916908373ffffffffffffffffffffffffffffffffffffffff16021790555050565b6013602052816000526040600020818154811061308457fe5b90600052602060002001600091509150508054600181600116156101000203166002900480601f0160208091040260200160405190810160405280929190818152602001828054600181600116156101000203166002900480156131295780601f106130fe57610100808354040283529160200191613129565b820191906000526020600020905b81548152906001019060200180831161310c57829003601f168201915b505050505081565b6012600082815260200190815260200160002060106011600084815260200190815260200160002060008154811061316557fe5b9060005260206000200160405180828054600181600116156101000203166002900480156131ca5780601f106131a85761010080835404028352918201916131ca565b820191906000526020600020905b8154815290600101906020018083116131b6575b5050915050908152602001604051809103902060009054906101000a900460f81b908060018154018082558091505090600182039060005260206000209060209182820401919006909192909190916101000a81548160ff021916908360f81c0217905550506012600082815260200190815260200160002060106011600084815260200190815260200160002060018154811061326457fe5b9060005260206000200160405180828054600181600116156101000203166002900480156132c95780601f106132a75761010080835404028352918201916132c9565b820191906000526020600020905b8154815290600101906020018083116132b5575b5050915050908152602001604051809103902060009054906101000a900460f81b908060018154018082558091505090600182039060005260206000209060209182820401919006909192909190916101000a81548160ff021916908360f81c0217905550506012600082815260200190815260200160002060106011600084815260200190815260200160002060028154811061336357fe5b9060005260206000200160405180828054600181600116156101000203166002900480156133c85780601f106133a65761010080835404028352918201916133c8565b820191906000526020600020905b8154815290600101906020018083116133b4575b5050915050908152602001604051809103902060009054906101000a900460f81b908060018154018082558091505090600182039060005260206000209060209182820401919006909192909190916101000a81548160ff021916908360f81c0217905550506012600082815260200190815260200160002060106011600084815260200190815260200160002060038154811061346257fe5b9060005260206000200160405180828054600181600116156101000203166002900480156134c75780601f106134a55761010080835404028352918201916134c7565b820191906000526020600020905b8154815290600101906020018083116134b3575b5050915050908152602001604051809103902060009054906101000a900460f81b908060018154018082558091505090600182039060005260206000209060209182820401919006909192909190916101000a81548160ff021916908360f81c0217905550506012600082815260200190815260200160002060106011600084815260200190815260200160002060048154811061356157fe5b9060005260206000200160405180828054600181600116156101000203166002900480156135c65780601f106135a45761010080835404028352918201916135c6565b820191906000526020600020905b8154815290600101906020018083116135b2575b5050915050908152602001604051809103902060009054906101000a900460f81b908060018154018082558091505090600182039060005260206000209060209182820401919006909192909190916101000a81548160ff021916908360f81c0217905550506012600082815260200190815260200160002060106011600084815260200190815260200160002060058154811061366057fe5b9060005260206000200160405180828054600181600116156101000203166002900480156136c55780601f106136a35761010080835404028352918201916136c5565b820191906000526020600020905b8154815290600101906020018083116136b1575b5050915050908152602001604051809103902060009054906101000a900460f81b908060018154018082558091505090600182039060005260206000209060209182820401919006909192909190916101000a81548160ff021916908360f81c0217905550506012600082815260200190815260200160002060106011600084815260200190815260200160002060068154811061375f57fe5b9060005260206000200160405180828054600181600116156101000203166002900480156137c45780601f106137a25761010080835404028352918201916137c4565b820191906000526020600020905b8154815290600101906020018083116137b0575b5050915050908152602001604051809103902060009054906101000a900460f81b908060018154018082558091505090600182039060005260206000209060209182820401919006909192909190916101000a81548160ff021916908360f81c0217905550506012600082815260200190815260200160002060106011600084815260200190815260200160002060078154811061385e57fe5b9060005260206000200160405180828054600181600116156101000203166002900480156138c35780601f106138a15761010080835404028352918201916138c3565b820191906000526020600020905b8154815290600101906020018083116138af575b5050915050908152602001604051809103902060009054906101000a900460f81b908060018154018082558091505090600182039060005260206000209060209182820401919006909192909190916101000a81548160ff021916908360f81c0217905550506012600082815260200190815260200160002060106011600084815260200190815260200160002060088154811061395d57fe5b9060005260206000200160405180828054600181600116156101000203166002900480156139c25780601f106139a05761010080835404028352918201916139c2565b820191906000526020600020905b8154815290600101906020018083116139ae575b5050915050908152602001604051809103902060009054906101000a900460f81b908060018154018082558091505090600182039060005260206000209060209182820401919006909192909190916101000a81548160ff021916908360f81c02179055505060126000828152602001908152602001600020601060116000848152602001908152602001600020600981548110613a5c57fe5b906000526020600020016040518082805460018160011615610100020316600290048015613ac15780601f10613a9f576101008083540402835291820191613ac1565b820191906000526020600020905b815481529060010190602001808311613aad575b5050915050908152602001604051809103902060009054906101000a900460f81b908060018154018082558091505090600182039060005260206000209060209182820401919006909192909190916101000a81548160ff021916908360f81c02179055505050565b600073ffffffffffffffffffffffffffffffffffffffff163373ffffffffffffffffffffffffffffffffffffffff161415613b6157fe5b613b9f6040518060400160405280600b81526020017f73757065725f61646d696e000000000000000000000000000000000000000000815250615084565b613c11576040517f08c379a00000000000000000000000000000000000000000000000000000000081526004018080602001828103825260108152602001807f4f6e6c792073757065722061646d696e0000000000000000000000000000000081525060200191505060405180910390fd5b7f3100000000000000000000000000000000000000000000000000000000000000601060405180807f30303030300000000000000000000000000000000000000000000000000000008152506005019050908152602001604051809103902060006101000a81548160ff021916908360f81c02179055507f3200000000000000000000000000000000000000000000000000000000000000601060405180807f30303030310000000000000000000000000000000000000000000000000000008152506005019050908152602001604051809103902060006101000a81548160ff021916908360f81c02179055507f3300000000000000000000000000000000000000000000000000000000000000601060405180807f30303031300000000000000000000000000000000000000000000000000000008152506005019050908152602001604051809103902060006101000a81548160ff021916908360f81c02179055507f3400000000000000000000000000000000000000000000000000000000000000601060405180807f30303031310000000000000000000000000000000000000000000000000000008152506005019050908152602001604051809103902060006101000a81548160ff021916908360f81c02179055507f3500000000000000000000000000000000000000000000000000000000000000601060405180807f30303130300000000000000000000000000000000000000000000000000000008152506005019050908152602001604051809103902060006101000a81548160ff021916908360f81c02179055507f3600000000000000000000000000000000000000000000000000000000000000601060405180807f30303130310000000000000000000000000000000000000000000000000000008152506005019050908152602001604051809103902060006101000a81548160ff021916908360f81c02179055507f3700000000000000000000000000000000000000000000000000000000000000601060405180807f30303131300000000000000000000000000000000000000000000000000000008152506005019050908152602001604051809103902060006101000a81548160ff021916908360f81c02179055507f3800000000000000000000000000000000000000000000000000000000000000601060405180807f30303131310000000000000000000000000000000000000000000000000000008152506005019050908152602001604051809103902060006101000a81548160ff021916908360f81c02179055507f3900000000000000000000000000000000000000000000000000000000000000601060405180807f30313030300000000000000000000000000000000000000000000000000000008152506005019050908152602001604051809103902060006101000a81548160ff021916908360f81c02179055507f6100000000000000000000000000000000000000000000000000000000000000601060405180807f30313030310000000000000000000000000000000000000000000000000000008152506005019050908152602001604051809103902060006101000a81548160ff021916908360f81c02179055507f6200000000000000000000000000000000000000000000000000000000000000601060405180807f30313031300000000000000000000000000000000000000000000000000000008152506005019050908152602001604051809103902060006101000a81548160ff021916908360f81c02179055507f6300000000000000000000000000000000000000000000000000000000000000601060405180807f30313031310000000000000000000000000000000000000000000000000000008152506005019050908152602001604051809103902060006101000a81548160ff021916908360f81c02179055507f6400000000000000000000000000000000000000000000000000000000000000601060405180807f30313130300000000000000000000000000000000000000000000000000000008152506005019050908152602001604051809103902060006101000a81548160ff021916908360f81c02179055507f6500000000000000000000000000000000000000000000000000000000000000601060405180807f30313130310000000000000000000000000000000000000000000000000000008152506005019050908152602001604051809103902060006101000a81548160ff021916908360f81c02179055507f6600000000000000000000000000000000000000000000000000000000000000601060405180807f30313131300000000000000000000000000000000000000000000000000000008152506005019050908152602001604051809103902060006101000a81548160ff021916908360f81c02179055507f6700000000000000000000000000000000000000000000000000000000000000601060405180807f30313131310000000000000000000000000000000000000000000000000000008152506005019050908152602001604051809103902060006101000a81548160ff021916908360f81c02179055507f6800000000000000000000000000000000000000000000000000000000000000601060405180807f31303030300000000000000000000000000000000000000000000000000000008152506005019050908152602001604051809103902060006101000a81548160ff021916908360f81c02179055507f6900000000000000000000000000000000000000000000000000000000000000601060405180807f31303030310000000000000000000000000000000000000000000000000000008152506005019050908152602001604051809103902060006101000a81548160ff021916908360f81c02179055507f6a00000000000000000000000000000000000000000000000000000000000000601060405180807f31303031300000000000000000000000000000000000000000000000000000008152506005019050908152602001604051809103902060006101000a81548160ff021916908360f81c02179055507f6b00000000000000000000000000000000000000000000000000000000000000601060405180807f31303031310000000000000000000000000000000000000000000000000000008152506005019050908152602001604051809103902060006101000a81548160ff021916908360f81c02179055507f6d00000000000000000000000000000000000000000000000000000000000000601060405180807f31303130300000000000000000000000000000000000000000000000000000008152506005019050908152602001604051809103902060006101000a81548160ff021916908360f81c02179055507f6e00000000000000000000000000000000000000000000000000000000000000601060405180807f31303130310000000000000000000000000000000000000000000000000000008152506005019050908152602001604051809103902060006101000a81548160ff021916908360f81c02179055507f6f00000000000000000000000000000000000000000000000000000000000000601060405180807f31303131300000000000000000000000000000000000000000000000000000008152506005019050908152602001604051809103902060006101000a81548160ff021916908360f81c02179055507f7000000000000000000000000000000000000000000000000000000000000000601060405180807f31303131310000000000000000000000000000000000000000000000000000008152506005019050908152602001604051809103902060006101000a81548160ff021916908360f81c02179055507f7100000000000000000000000000000000000000000000000000000000000000601060405180807f31313030300000000000000000000000000000000000000000000000000000008152506005019050908152602001604051809103902060006101000a81548160ff021916908360f81c02179055507f7200000000000000000000000000000000000000000000000000000000000000601060405180807f31313030310000000000000000000000000000000000000000000000000000008152506005019050908152602001604051809103902060006101000a81548160ff021916908360f81c02179055507f7300000000000000000000000000000000000000000000000000000000000000601060405180807f31313031300000000000000000000000000000000000000000000000000000008152506005019050908152602001604051809103902060006101000a81548160ff021916908360f81c02179055507f7400000000000000000000000000000000000000000000000000000000000000601060405180807f31313031310000000000000000000000000000000000000000000000000000008152506005019050908152602001604051809103902060006101000a81548160ff021916908360f81c02179055507f7500000000000000000000000000000000000000000000000000000000000000601060405180807f31313130300000000000000000000000000000000000000000000000000000008152506005019050908152602001604051809103902060006101000a81548160ff021916908360f81c02179055507f7600000000000000000000000000000000000000000000000000000000000000601060405180807f31313130310000000000000000000000000000000000000000000000000000008152506005019050908152602001604051809103902060006101000a81548160ff021916908360f81c02179055507f7700000000000000000000000000000000000000000000000000000000000000601060405180807f31313131300000000000000000000000000000000000000000000000000000008152506005019050908152602001604051809103902060006101000a81548160ff021916908360f81c02179055507f7800000000000000000000000000000000000000000000000000000000000000601060405180807f31313131310000000000000000000000000000000000000000000000000000008152506005019050908152602001604051809103902060006101000a81548160ff021916908360f81c0217905550565b600073ffffffffffffffffffffffffffffffffffffffff163373ffffffffffffffffffffffffffffffffffffffff161415614b2a57fe5b614b686040518060400160405280600b81526020017f73757065725f61646d696e000000000000000000000000000000000000000000815250615084565b614bda576040517f08c379a00000000000000000000000000000000000000000000000000000000081526004018080602001828103825260108152602001807f4f6e6c792073757065722061646d696e0000000000000000000000000000000081525060200191505060405180910390fd5b60008090505b8151811015614c8f5760008090505b828281518110614bfb57fe5b6020026020010151811015614c8157614c26848381518110614c1957fe5b6020026020010151615317565b601b600087601c5481518110614c3857fe5b602002602001015181526020019081526020016000209080519060200190614c61929190615543565b50601c600081548092919060010191905055508080600101915050614bef565b508080600101915050614be0565b506000601c81905550505050565b60126020528160005260406000208181548110614cb657fe5b9060005260206000209060209182820401919006915091509054906101000a900460f81b81565b6015818051602081018201805184825260208301602085012081835280955050505050506000915090505481565b600160009054906101000a900473ffffffffffffffffffffffffffffffffffffffff1681565b6000809054906101000a900473ffffffffffffffffffffffffffffffffffffffff1673ffffffffffffffffffffffffffffffffffffffff163373ffffffffffffffffffffffffffffffffffffffff1614614d8757fe5b600073ffffffffffffffffffffffffffffffffffffffff168173ffffffffffffffffffffffffffffffffffffffff1614614dfc57806000806101000a81548173ffffffffffffffffffffffffffffffffffffffff021916908373ffffffffffffffffffffffffffffffffffffffff1602179055505b50565b6010818051602081018201805184825260208301602085012081835280955050505050506000915054906101000a900460f81b81565b60608060f06040519080825280601f01601f191660200182016040528015614e6c5781602001600182028038833980820191505090505b50905060008090505b60f0811015614f3957600160028581614e8a57fe5b0614614eb6577f3000000000000000000000000000000000000000000000000000000000000000614ed8565b7f31000000000000000000000000000000000000000000000000000000000000005b828260ef0381518110614ee757fe5b60200101907effffffffffffffffffffffffffffffffffffffffffffffffffffffffffffff1916908160001a905350614f2a60028561506b90919063ffffffff16565b93508080600101915050614e75565b5080915050919050565b600073ffffffffffffffffffffffffffffffffffffffff163373ffffffffffffffffffffffffffffffffffffffff161415614f7a57fe5b614fb86040518060400160405280600b81526020017f73757065725f61646d696e000000000000000000000000000000000000000000815250615084565b61502a576040517f08c379a00000000000000000000000000000000000000000000000000000000081526004018080602001828103825260108152602001807f4f6e6c792073757065722061646d696e0000000000000000000000000000000081525060200191505060405180910390fd5b8060148190555050565b6000808314156150475760009050615065565b600082840290508284828161505857fe5b041461506057fe5b809150505b92915050565b60008082848161507757fe5b0490508091505092915050565b6000600160009054906101000a900473ffffffffffffffffffffffffffffffffffffffff1673ffffffffffffffffffffffffffffffffffffffff1663358177736040518060400160405280600681526020017f526f6c65444200000000000000000000000000000000000000000000000000008152506040518263ffffffff1660e01b81526004018080602001828103825283818151815260200191508051906020019080838360005b8381101561514957808201518184015260208101905061512e565b50505050905090810190601f1680156151765780820380516001836020036101000a031916815260200191505b509250505060206040518083038186803b15801561519357600080fd5b505afa1580156151a7573d6000803e3d6000fd5b505050506040513d60208110156151bd57600080fd5b810190808051906020019092919050505073ffffffffffffffffffffffffffffffffffffffff16636c9cd097836151f2615407565b6040518363ffffffff1660e01b815260040180806020018373ffffffffffffffffffffffffffffffffffffffff1673ffffffffffffffffffffffffffffffffffffffff168152602001828103825284818151815260200191508051906020019080838360005b83811015615273578082015181840152602081019050615258565b50505050905090810190601f1680156152a05780820380516001836020036101000a031916815260200191505b50935050505060206040518083038186803b1580156152be57600080fd5b505afa1580156152d2573d6000803e3d6000fd5b505050506040513d60208110156152e857600080fd5b81019080805190602001909291905050509050919050565b60008282111561530c57fe5b818303905092915050565b60608060206040519080825280601f01601f19166020018201604052801561534e5781602001600182028038833980820191505090505b50905060005b60208110156153b55783816020811061536957fe5b1a60f81b82828151811061537957fe5b60200101907effffffffffffffffffffffffffffffffffffffffffffffffffffffffffffff1916908160001a9053508080600101915050615354565b5080915050919050565b600060608390506000815114156153dd57600060f81b9150506153e5565b828401519150505b92915050565b6000808284019050838110156153fd57fe5b8091505092915050565b6000600160009054906101000a900473ffffffffffffffffffffffffffffffffffffffff1673ffffffffffffffffffffffffffffffffffffffff163373ffffffffffffffffffffffffffffffffffffffff1614615466573390506154b9565b6000601436036000602052601481602c37602051915050600073ffffffffffffffffffffffffffffffffffffffff168173ffffffffffffffffffffffffffffffffffffffff1614156154b457fe5b809150505b90565b828054600181600116156101000203166002900490600052602060002090601f016020900481019282601f106154f55780548555615532565b8280016001018555821561553257600052602060002091601f016020900482015b82811115615531578254825591600101919060010190615516565b5b50905061553f91906155c3565b5090565b828054600181600116156101000203166002900490600052602060002090601f016020900481019282601f1061558457805160ff19168380011785556155b2565b828001600101855582156155b2579182015b828111156155b1578251825591602001919060010190615596565b5b5090506155bf91906155c3565b5090565b6155e591905b808211156155e15760008160009055506001016155c9565b5090565b9056fea265627a7a723158202bb1bf125e74f975b80980452cfe8cb2c4d640e5657ef93173834468b1971e5a64736f6c63430005110032",
  "source": "// Only RarityCalculator.sol is deployed. Contracts in /algorithm/RarityCalculationDBs are not deployed.\n // All functions and variables in contracts in the folder RarityCalculationDBs are internal. They are set as public just\n // temporarily for truffle test purpose. (Truffle test cannot carry out internal functions)\n // onlyContract modifier is temporarilly comment out until game manager contract is more developed\n // onlySuperAdmin is temporarilly comment out until further team instruction is given \n\n/**\n * @title RarityCalculator\n *\n * @author @kittieFIGHT @ola\n *\n */\n//modifier class (DSAuth )\n//Event class ( DSNote )\n//\n// This program is free software: you can redistribute it and/or modify\n// it under the terms of the GNU General Public License as published by\n// the Free Software Foundation, either version 3 of the License, or\n// (at your option) any later version.\n\n// This program is distributed in the hope that it will be useful,\n// but WITHOUT ANY WARRANTY; without even the implied warranty of\n// MERCHANTABILITY or FITNESS FOR A PARTICULAR PURPOSE.  See the\n// GNU General Public License for more details.\n\n// You should have received a copy of the GNU General Public License\n// along with this program.  If not, see <http://www.gnu.org/licenses/>.\npragma solidity ^0.5.5;\n\nimport \"../proxy/Proxied.sol\";\nimport \"../../authority/Guard.sol\";\nimport \"../../libs/SafeMath.sol\";\nimport \"./RarityCalculationDBs/Rarity.sol\";\nimport \"./RarityCalculationDBs/DefenseLevel.sol\";\nimport \"./RarityCalculationDBs/FancyKitties.sol\";\n\n/**\n * @title This contract is responsible to calculate the defense level of a kitty\n * within 2 minutes before the game starts\n * @author @ziweidream\n */\n\ncontract RarityCalculator is Proxied, Guard, Rarity, DefenseLevel, FancyKitties {\n    using SafeMath for uint256;\n\n    /**\n     * @author @ziweidream\n     * @notice calculate the defense level of a kitty\n     * @dev a kitty's defense level is an integer between 1 and 6\n     * @param kittieId the kittyID for whom the defense level is calculated\n     * @param gene the kitty's gene\n     * @return the kitty's defense level\n     */\n    function getDefenseLevel(uint256 kittieId, uint256 gene)\n      public\n      // onlyContract(CONTRACT_NAME_GAMEMANAGER)\n      returns (uint256) {\n      getDominantGeneBinary(kittieId, gene);\n      binaryToKai(kittieId);\n      kaiToCattribute(kittieId);\n\n      uint256 rarity = calculateRarity(kittieId);\n\n      uint256 defenseLevel;\n\n      if (kittieId < 10000) {\n          defenseLevel = 6;\n      } else if (isFancy(kittieId)) {\n          defenseLevel = 5;\n      } else if (rarity < defenseLevelLimit.level5Limit) {\n          defenseLevel = 6;\n      } else if (rarity >= defenseLevelLimit.level5Limit && rarity < defenseLevelLimit.level4Limit) {\n          defenseLevel = 5;\n      } else if (rarity >= defenseLevelLimit.level4Limit && rarity < defenseLevelLimit.level3Limit) {\n          defenseLevel = 4;\n      } else if (rarity >= defenseLevelLimit.level3Limit && rarity < defenseLevelLimit.level2Limit) {\n          defenseLevel = 3;\n      } else if (rarity >= defenseLevelLimit.level2Limit && rarity < defenseLevelLimit.level1Limit) {\n          defenseLevel = 2;\n      } else if (rarity >= defenseLevelLimit.level1Limit) {\n          defenseLevel = 1;\n      } else {\n          // if all conditions above are not met for some unprecitable reason,\n          // then default to 1 so that the game can continue\n          defenseLevel = 1;\n      }\n\n      emit OriginalDefenseLevelCalculated(kittieId, defenseLevel);\n\n      assert(defenseLevel > 0);\n      return defenseLevel;\n    }\n\n    /**\n     * @author @ziweidream\n     * @dev determine whether a kittie with a specific kittieId is a valuable fancy kittie\n     */\n    function isFancy(uint256 _kittieId)\n        public // temporarily set as public just for truffle test purpose\n        // internal\n        view\n        returns(bool)\n    {\n        string memory fancyName = FancyKittiesList[_kittieId];\n        bytes memory fancyNameBytes = bytes(fancyName);\n        if (fancyNameBytes.length != 0) {\n            // fancyName is NOT an empty string\n            return true;\n        }\n\n        return false;\n    }\n\n    event OriginalDefenseLevelCalculated(uint256 indexed _kittieId, uint256 _originalDefenseLevel);\n}",
  "sourcePath": "/Users/ziweizhang/Desktop/withdrawPool/alpha/contracts/modules/algorithm/RarityCalculator.sol",
  "compiler": {
    "name": "solc",
    "version": "0.5.17+commit.d19bba13.Emscripten.clang"
  },
  "schemaVersion": "3.0.23",
  "updatedAt": "2020-04-24T11:30:15.443Z",
  "networkType": "ethereum",
  "devdoc": {
    "author": "@ziweidream",
    "methods": {
      "binaryToKai(uint256)": {
        "author": "@ziweidream"
      },
      "calculateRarity(uint256)": {
        "author": "@ziweidream",
        "return": "the rarity of a kittie as an integer"
      },
      "fillKaiValue()": {
        "author": "@ziweidream"
      },
      "getDefenseLevel(uint256,uint256)": {
        "author": "@ziweidream",
        "details": "a kitty's defense level is an integer between 1 and 6",
        "params": {
          "gene": "the kitty's gene",
          "kittieId": "the kittyID for whom the defense level is calculated"
        },
        "return": "the kitty's defense level"
      },
      "getDominantGeneBinary(uint256,uint256)": {
        "author": "@ziweidream"
      },
      "getSlice(uint256,uint256,string)": {
        "author": "@ziweidream"
      },
      "isFancy(uint256)": {
        "author": "@ziweidream",
        "details": "determine whether a kittie with a specific kittieId is a valuable fancy kittie"
      },
      "kaiToCattribute(uint256)": {
        "author": "@ziweidream"
      },
      "setDefenseLevelLimit(uint256,uint256,uint256)": {
        "author": "@ziweidream",
        "details": "maximum and minimum scores of all types of cattributes are obtained from https://api.cryptokitties.co/cattributesexample of maximum and minimum scores of all types of cattributes       type\t  max\t   min pattern\t357328\t1754 eyes\t261737\t1845 mouth\t239894\t961 color3\t231062\t758 color2\t208081\t832 color1\t197753\t1381 body\t178290\t904 coloreyes\t158208\t740 sum \t1832353\t9175",
        "params": {
          "max": "the sum of the maximum score of all types of cattributes",
          "min": "the sum of the minimum score of all types of cattributes",
          "totalKitties": "the total number of cryptokitties on CryptoKitties"
        }
      },
      "toBinaryString(uint256)": {
        "author": "@ziweidream",
        "params": {
          "n": "the integer to be converted"
        },
        "return": "the binary"
      },
      "updateCattributesScores(bytes32[],uint256[])": {
        "author": "@ziweidream @Xale",
        "details": "this db needs to beupdated periodically.https://api.cryptokitties.co/cattributes",
        "params": {
          "_name": "the cattribute's name",
          "_score": "the cattribute's score"
        }
      },
      "updateFancyKittiesList(uint256[],bytes32[],uint256[])": {
        "author": "@ziweidream @Xale",
        "details": "this db needs to beupdated periodically.",
        "params": {
          "_kittieId": "the kittieId of the fancy kittie",
          "_name": "the fancy name of the fancy kittie"
        }
      }
    },
    "title": "This contract is responsible to calculate the defense level of a kitty within 2 minutes before the game starts"
  },
  "userdoc": {
    "methods": {
      "binaryToKai(uint256)": {
        "notice": "converts binary to its corresponding kai notationonly dominant genes are kept since kitties only demonstrate cattributes from dominant genes."
      },
      "calculateRarity(uint256)": {
        "notice": "calculate a kitty's rarity based on its cattributes"
      },
      "fillKaiValue()": {
        "notice": "mapping a gene in binary with its kai notation"
      },
      "getDefenseLevel(uint256,uint256)": {
        "notice": "calculate the defense level of a kitty"
      },
      "getDominantGeneBinary(uint256,uint256)": {
        "notice": "converts the gene in uint of a kitty to binary.only dominant genes are kept since kitties only demonstrate cattributes from dominant genes."
      },
      "getSlice(uint256,uint256,string)": {
        "notice": "gets slice of a string"
      },
      "kaiToCattribute(uint256)": {
        "notice": "converts kai notation to its corresponding cattribute"
      },
      "setDefenseLevelLimit(uint256,uint256,uint256)": {
        "notice": "set the lower and upper limit of each defense level of a kitty"
      },
      "setProxy(address)": {
        "notice": "Set/update address of Proxy contract"
      },
      "toBinaryString(uint256)": {
        "notice": "converts an integer to its binary"
      },
      "updateCattributesScores(bytes32[],uint256[])": {
        "notice": "mapping a cattribute with its score"
      },
      "updateFancyKittiesList(uint256[],bytes32[],uint256[])": {
        "notice": "mapping of a fancy kittie's kittieId to its fancy name"
      }
    }
  }
}