{
  "contractName": "Rarity",
  "abi": [
    {
      "constant": true,
      "inputs": [
        {
          "name": "",
          "type": "uint256"
        },
        {
          "name": "",
          "type": "uint256"
        }
      ],
      "name": "kittiesDominantGeneBinary",
      "outputs": [
        {
          "name": "",
          "type": "string"
        }
      ],
      "payable": false,
      "stateMutability": "view",
      "type": "function"
    },
    {
      "constant": false,
      "inputs": [
        {
          "name": "kittieId",
          "type": "uint256"
        }
      ],
      "name": "kaiToCattribute",
      "outputs": [],
      "payable": false,
      "stateMutability": "nonpayable",
      "type": "function"
    },
    {
      "constant": false,
      "inputs": [
        {
          "name": "kittieId",
          "type": "uint256"
        },
        {
          "name": "gene",
          "type": "uint256"
        }
      ],
      "name": "getDominantGeneBinary",
      "outputs": [],
      "payable": false,
      "stateMutability": "nonpayable",
      "type": "function"
    },
    {
      "constant": false,
      "inputs": [
        {
          "name": "_type",
          "type": "string"
        },
        {
          "name": "_kai",
          "type": "string"
        },
        {
          "name": "_cattribute",
          "type": "string"
        }
      ],
      "name": "updateCattributes",
      "outputs": [],
      "payable": false,
      "stateMutability": "nonpayable",
      "type": "function"
    },
    {
      "constant": true,
      "inputs": [
        {
          "name": "begin",
          "type": "uint256"
        },
        {
          "name": "end",
          "type": "uint256"
        },
        {
          "name": "text",
          "type": "string"
        }
      ],
      "name": "getSlice",
      "outputs": [
        {
          "name": "",
          "type": "string"
        }
      ],
      "payable": false,
      "stateMutability": "pure",
      "type": "function"
    },
    {
      "constant": true,
      "inputs": [],
      "name": "owner",
      "outputs": [
        {
          "name": "",
          "type": "address"
        }
      ],
      "payable": false,
      "stateMutability": "view",
      "type": "function"
    },
    {
      "constant": false,
      "inputs": [
        {
          "name": "_proxy",
          "type": "address"
        }
      ],
      "name": "setProxy",
      "outputs": [],
      "payable": false,
      "stateMutability": "nonpayable",
      "type": "function"
    },
    {
      "constant": true,
      "inputs": [
        {
          "name": "",
          "type": "uint256"
        },
        {
          "name": "",
          "type": "uint256"
        }
      ],
      "name": "kittiesDominantCattributes",
      "outputs": [
        {
          "name": "",
          "type": "string"
        }
      ],
      "payable": false,
      "stateMutability": "view",
      "type": "function"
    },
    {
      "constant": false,
      "inputs": [
        {
          "name": "kittieId",
          "type": "uint256"
        }
      ],
      "name": "binaryToKai",
      "outputs": [],
      "payable": false,
      "stateMutability": "nonpayable",
      "type": "function"
    },
    {
      "constant": true,
      "inputs": [
        {
          "name": "",
          "type": "string"
        },
        {
          "name": "",
          "type": "string"
        }
      ],
      "name": "cattributes",
      "outputs": [
        {
          "name": "",
          "type": "string"
        }
      ],
      "payable": false,
      "stateMutability": "view",
      "type": "function"
    },
    {
      "constant": false,
      "inputs": [],
      "name": "fillKaiValue",
      "outputs": [],
      "payable": false,
      "stateMutability": "nonpayable",
      "type": "function"
    },
    {
      "constant": true,
      "inputs": [
        {
          "name": "",
          "type": "uint256"
        },
        {
          "name": "",
          "type": "uint256"
        }
      ],
      "name": "kittiesDominantGeneKai",
      "outputs": [
        {
          "name": "",
          "type": "string"
        }
      ],
      "payable": false,
      "stateMutability": "view",
      "type": "function"
    },
    {
      "constant": true,
      "inputs": [
        {
          "name": "",
          "type": "string"
        }
      ],
      "name": "CattributesScores",
      "outputs": [
        {
          "name": "",
          "type": "uint256"
        }
      ],
      "payable": false,
      "stateMutability": "view",
      "type": "function"
    },
    {
      "constant": true,
      "inputs": [],
      "name": "proxy",
      "outputs": [
        {
          "name": "",
          "type": "address"
        }
      ],
      "payable": false,
      "stateMutability": "view",
      "type": "function"
    },
    {
      "constant": false,
      "inputs": [
        {
          "name": "_name",
          "type": "string"
        },
        {
          "name": "_score",
          "type": "uint256"
        }
      ],
      "name": "updateCattributesScores",
      "outputs": [],
      "payable": false,
      "stateMutability": "nonpayable",
      "type": "function"
    },
    {
      "constant": false,
      "inputs": [
        {
          "name": "newOwner",
          "type": "address"
        }
      ],
      "name": "transferOwnership",
      "outputs": [],
      "payable": false,
      "stateMutability": "nonpayable",
      "type": "function"
    },
    {
      "constant": true,
      "inputs": [
        {
          "name": "",
          "type": "string"
        }
      ],
      "name": "kaiValue",
      "outputs": [
        {
          "name": "",
          "type": "string"
        }
      ],
      "payable": false,
      "stateMutability": "view",
      "type": "function"
    },
    {
      "constant": true,
      "inputs": [
        {
          "name": "n",
          "type": "uint256"
        }
      ],
      "name": "toBinaryString",
      "outputs": [
        {
          "name": "",
          "type": "string"
        }
      ],
      "payable": false,
      "stateMutability": "pure",
      "type": "function"
    },
    {
      "constant": false,
      "inputs": [
        {
          "name": "_totalKitties",
          "type": "uint256"
        }
      ],
      "name": "updateTotalKitties",
      "outputs": [],
      "payable": false,
      "stateMutability": "nonpayable",
      "type": "function"
    },
    {
      "constant": true,
      "inputs": [
        {
          "name": "kittieId",
          "type": "uint256"
        }
      ],
      "name": "calculateRarity",
      "outputs": [
        {
          "name": "rarity",
          "type": "uint256"
        }
      ],
      "payable": false,
      "stateMutability": "view",
      "type": "function"
    }
  ],
  "bytecode": "0x6080604052336000806101000a81548173ffffffffffffffffffffffffffffffffffffffff021916908373ffffffffffffffffffffffffffffffffffffffff160217905550614844806100536000396000f3fe608060405234801561001057600080fd5b506004361061012c5760003560e01c8063b030fa28116100ad578063f29a1b3711610071578063f29a1b3714610ac7578063f2fde38b14610b8c578063f343050414610bd0578063f4fb432f14610d04578063fb51a0ad14610dab5761012c565b8063b030fa2814610728578063bfcfd60b146108f3578063c9f638fc146108fd578063d4c950c4146109ae578063ec55688914610a7d5761012c565b80637f60b20a116100f45780637f60b20a146104735780638da5cb5b146105bb57806397107d6d14610605578063979cfe0814610649578063a97aaccf146106fa5761012c565b8063022d1c01146101315780630e25272d146101e25780634ca88dff14610224578063789ef42914610252578063790a73c51461028a575b600080fd5b6101676004803603604081101561014757600080fd5b810190808035906020019092919080359060200190929190505050610dd9565b6040518080602001828103825283818151815260200191508051906020019080838360005b838110156101a757808201518184015260208101905061018c565b50505050905090810190601f1680156101d45780820380516001836020036101000a031916815260200191505b509250505060405180910390f35b61020e600480360360208110156101f857600080fd5b8101908080359060200190929190505050610e9f565b6040518082815260200191505060405180910390f35b6102506004803603602081101561023a57600080fd5b81019080803590602001909291905050506113a9565b005b6102886004803603604081101561026857600080fd5b810190808035906020019092919080359060200190929190505050611f8c565b005b610471600480360360608110156102a057600080fd5b81019080803590602001906401000000008111156102bd57600080fd5b8201836020820111156102cf57600080fd5b803590602001918460018302840111640100000000831117156102f157600080fd5b91908080601f016020809104026020016040519081016040528093929190818152602001838380828437600081840152601f19601f8201169050808301925050505050505091929192908035906020019064010000000081111561035457600080fd5b82018360208201111561036657600080fd5b8035906020019184600183028401116401000000008311171561038857600080fd5b91908080601f016020809104026020016040519081016040528093929190818152602001838380828437600081840152601f19601f820116905080830192505050505050509192919290803590602001906401000000008111156103eb57600080fd5b8201836020820111156103fd57600080fd5b8035906020019184600183028401116401000000008311171561041f57600080fd5b91908080601f016020809104026020016040519081016040528093929190818152602001838380828437600081840152601f19601f820116905080830192505050505050509192919290505050612336565b005b6105406004803603606081101561048957600080fd5b810190808035906020019092919080359060200190929190803590602001906401000000008111156104ba57600080fd5b8201836020820111156104cc57600080fd5b803590602001918460018302840111640100000000831117156104ee57600080fd5b91908080601f016020809104026020016040519081016040528093929190818152602001838380828437600081840152601f19601f820116905080830192505050505050509192919290505050612420565b6040518080602001828103825283818151815260200191508051906020019080838360005b83811015610580578082015181840152602081019050610565565b50505050905090810190601f1680156105ad5780820380516001836020036101000a031916815260200191505b509250505060405180910390f35b6105c361252d565b604051808273ffffffffffffffffffffffffffffffffffffffff1673ffffffffffffffffffffffffffffffffffffffff16815260200191505060405180910390f35b6106476004803603602081101561061b57600080fd5b81019080803573ffffffffffffffffffffffffffffffffffffffff169060200190929190505050612552565b005b61067f6004803603604081101561065f57600080fd5b8101908080359060200190929190803590602001909291905050506125ec565b6040518080602001828103825283818151815260200191508051906020019080838360005b838110156106bf5780820151818401526020810190506106a4565b50505050905090810190601f1680156106ec5780820380516001836020036101000a031916815260200191505b509250505060405180910390f35b6107266004803603602081101561071057600080fd5b81019080803590602001909291905050506126b2565b005b6108786004803603604081101561073e57600080fd5b810190808035906020019064010000000081111561075b57600080fd5b82018360208201111561076d57600080fd5b8035906020019184600183028401116401000000008311171561078f57600080fd5b91908080601f016020809104026020016040519081016040528093929190818152602001838380828437600081840152601f19601f820116905080830192505050505050509192919290803590602001906401000000008111156107f257600080fd5b82018360208201111561080457600080fd5b8035906020019184600183028401116401000000008311171561082657600080fd5b91908080601f016020809104026020016040519081016040528093929190818152602001838380828437600081840152601f19601f82011690508083019250505050505050919291929050505061303d565b6040518080602001828103825283818151815260200191508051906020019080838360005b838110156108b857808201518184015260208101905061089d565b50505050905090810190601f1680156108e55780820380516001836020036101000a031916815260200191505b509250505060405180910390f35b6108fb613126565b005b6109336004803603604081101561091357600080fd5b810190808035906020019092919080359060200190929190505050614228565b6040518080602001828103825283818151815260200191508051906020019080838360005b83811015610973578082015181840152602081019050610958565b50505050905090810190601f1680156109a05780820380516001836020036101000a031916815260200191505b509250505060405180910390f35b610a67600480360360208110156109c457600080fd5b81019080803590602001906401000000008111156109e157600080fd5b8201836020820111156109f357600080fd5b80359060200191846001830284011164010000000083111715610a1557600080fd5b91908080601f016020809104026020016040519081016040528093929190818152602001838380828437600081840152601f19601f8201169050808301925050505050505091929192905050506142ee565b6040518082815260200191505060405180910390f35b610a8561431c565b604051808273ffffffffffffffffffffffffffffffffffffffff1673ffffffffffffffffffffffffffffffffffffffff16815260200191505060405180910390f35b610b8a60048036036040811015610add57600080fd5b8101908080359060200190640100000000811115610afa57600080fd5b820183602082011115610b0c57600080fd5b80359060200191846001830284011164010000000083111715610b2e57600080fd5b91908080601f016020809104026020016040519081016040528093929190818152602001838380828437600081840152601f19601f82011690508083019250505050505050919291929080359060200190929190505050614342565b005b610bce60048036036020811015610ba257600080fd5b81019080803573ffffffffffffffffffffffffffffffffffffffff1690602001909291905050506143b4565b005b610c8960048036036020811015610be657600080fd5b8101908080359060200190640100000000811115610c0357600080fd5b820183602082011115610c1557600080fd5b80359060200191846001830284011164010000000083111715610c3757600080fd5b91908080601f016020809104026020016040519081016040528093929190818152602001838380828437600081840152601f19601f820116905080830192505050505050509192919290505050614482565b6040518080602001828103825283818151815260200191508051906020019080838360005b83811015610cc9578082015181840152602081019050610cae565b50505050905090810190601f168015610cf65780820380516001836020036101000a031916815260200191505b509250505060405180910390f35b610d3060048036036020811015610d1a57600080fd5b8101908080359060200190929190505050614548565b6040518080602001828103825283818151815260200191508051906020019080838360005b83811015610d70578082015181840152602081019050610d55565b50505050905090810190601f168015610d9d5780820380516001836020036101000a031916815260200191505b509250505060405180910390f35b610dd760048036036020811015610dc157600080fd5b8101908080359060200190929190505050614656565b005b60046020528160005260406000208181548110610df257fe5b90600052602060002001600091509150508054600181600116156101000203166002900480601f016020809104026020016040519081016040528092919081815260200182805460018160011615610100020316600290048015610e975780601f10610e6c57610100808354040283529160200191610e97565b820191906000526020600020905b815481529060010190602001808311610e7a57829003601f168201915b505050505081565b60006113a26007546113946305f5e100600860066000888152602001908152602001600020600881548110610ed057fe5b906000526020600020016040518082805460018160011615610100020316600290048015610f355780601f10610f13576101008083540402835291820191610f35565b820191906000526020600020905b815481529060010190602001808311610f21575b5050915050908152602001604051809103902054600860066000898152602001908152602001600020600681548110610f6a57fe5b906000526020600020016040518082805460018160011615610100020316600290048015610fcf5780601f10610fad576101008083540402835291820191610fcf565b820191906000526020600020905b815481529060010190602001808311610fbb575b50509150509081526020016040518091039020546008600660008a815260200190815260200160002060058154811061100457fe5b9060005260206000200160405180828054600181600116156101000203166002900480156110695780601f10611047576101008083540402835291820191611069565b820191906000526020600020905b815481529060010190602001808311611055575b50509150509081526020016040518091039020546008600660008b815260200190815260200160002060048154811061109e57fe5b9060005260206000200160405180828054600181600116156101000203166002900480156111035780601f106110e1576101008083540402835291820191611103565b820191906000526020600020905b8154815290600101906020018083116110ef575b50509150509081526020016040518091039020546008600660008c815260200190815260200160002060038154811061113857fe5b90600052602060002001604051808280546001816001161561010002031660029004801561119d5780601f1061117b57610100808354040283529182019161119d565b820191906000526020600020905b815481529060010190602001808311611189575b50509150509081526020016040518091039020546008600660008d81526020019081526020016000206002815481106111d257fe5b9060005260206000200160405180828054600181600116156101000203166002900480156112375780601f10611215576101008083540402835291820191611237565b820191906000526020600020905b815481529060010190602001808311611223575b50509150509081526020016040518091039020546008600660008e815260200190815260200160002060018154811061126c57fe5b9060005260206000200160405180828054600181600116156101000203166002900480156112d15780601f106112af5761010080835404028352918201916112d1565b820191906000526020600020905b8154815290600101906020018083116112bd575b50509150509081526020016040518091039020546008600660008f815260200190815260200160002060008154811061130657fe5b90600052602060002001604051808280546001816001161561010002031660029004801561136b5780601f1061134957610100808354040283529182019161136b565b820191906000526020600020905b815481529060010190602001808311611357575b50509150509081526020016040518091039020540101010101010161466090919063ffffffff16565b61469790919063ffffffff16565b9050919050565b60066000828152602001908152602001600020600260405180807f626f647900000000000000000000000000000000000000000000000000000000815250600401905090815260200160405180910390206005600084815260200190815260200160002060008154811061141957fe5b90600052602060002001604051808280546001816001161561010002031660029004801561147e5780601f1061145c57610100808354040283529182019161147e565b820191906000526020600020905b81548152906001019060200180831161146a575b5050915050908152602001604051809103902090806001815401808255809150509060018203906000526020600020016000909192909190915090805460018160011615610100020316600290046114d79291906146e3565b505060066000828152602001908152602001600020600260405180807f7061747465726e00000000000000000000000000000000000000000000000000815250600701905090815260200160405180910390206005600084815260200190815260200160002060018154811061154957fe5b9060005260206000200160405180828054600181600116156101000203166002900480156115ae5780601f1061158c5761010080835404028352918201916115ae565b820191906000526020600020905b81548152906001019060200180831161159a575b5050915050908152602001604051809103902090806001815401808255809150509060018203906000526020600020016000909192909190915090805460018160011615610100020316600290046116079291906146e3565b505060066000828152602001908152602001600020600260405180807f636f6c6f72657965730000000000000000000000000000000000000000000000815250600901905090815260200160405180910390206005600084815260200190815260200160002060028154811061167957fe5b9060005260206000200160405180828054600181600116156101000203166002900480156116de5780601f106116bc5761010080835404028352918201916116de565b820191906000526020600020905b8154815290600101906020018083116116ca575b5050915050908152602001604051809103902090806001815401808255809150509060018203906000526020600020016000909192909190915090805460018160011615610100020316600290046117379291906146e3565b505060066000828152602001908152602001600020600260405180807f657965730000000000000000000000000000000000000000000000000000000081525060040190509081526020016040518091039020600560008481526020019081526020016000206003815481106117a957fe5b90600052602060002001604051808280546001816001161561010002031660029004801561180e5780601f106117ec57610100808354040283529182019161180e565b820191906000526020600020905b8154815290600101906020018083116117fa575b5050915050908152602001604051809103902090806001815401808255809150509060018203906000526020600020016000909192909190915090805460018160011615610100020316600290046118679291906146e3565b505060066000828152602001908152602001600020600260405180807f636f6c6f7231000000000000000000000000000000000000000000000000000081525060060190509081526020016040518091039020600560008481526020019081526020016000206004815481106118d957fe5b90600052602060002001604051808280546001816001161561010002031660029004801561193e5780601f1061191c57610100808354040283529182019161193e565b820191906000526020600020905b81548152906001019060200180831161192a575b5050915050908152602001604051809103902090806001815401808255809150509060018203906000526020600020016000909192909190915090805460018160011615610100020316600290046119979291906146e3565b505060066000828152602001908152602001600020600260405180807f636f6c6f723200000000000000000000000000000000000000000000000000008152506006019050908152602001604051809103902060056000848152602001908152602001600020600581548110611a0957fe5b906000526020600020016040518082805460018160011615610100020316600290048015611a6e5780601f10611a4c576101008083540402835291820191611a6e565b820191906000526020600020905b815481529060010190602001808311611a5a575b505091505090815260200160405180910390209080600181540180825580915050906001820390600052602060002001600090919290919091509080546001816001161561010002031660029004611ac79291906146e3565b505060066000828152602001908152602001600020600260405180807f636f6c6f723300000000000000000000000000000000000000000000000000008152506006019050908152602001604051809103902060056000848152602001908152602001600020600681548110611b3957fe5b906000526020600020016040518082805460018160011615610100020316600290048015611b9e5780601f10611b7c576101008083540402835291820191611b9e565b820191906000526020600020905b815481529060010190602001808311611b8a575b505091505090815260200160405180910390209080600181540180825580915050906001820390600052602060002001600090919290919091509080546001816001161561010002031660029004611bf79291906146e3565b505060066000828152602001908152602001600020600260405180807f77696c64000000000000000000000000000000000000000000000000000000008152506004019050908152602001604051809103902060056000848152602001908152602001600020600781548110611c6957fe5b906000526020600020016040518082805460018160011615610100020316600290048015611cce5780601f10611cac576101008083540402835291820191611cce565b820191906000526020600020905b815481529060010190602001808311611cba575b505091505090815260200160405180910390209080600181540180825580915050906001820390600052602060002001600090919290919091509080546001816001161561010002031660029004611d279291906146e3565b505060066000828152602001908152602001600020600260405180807f6d6f7574680000000000000000000000000000000000000000000000000000008152506005019050908152602001604051809103902060056000848152602001908152602001600020600881548110611d9957fe5b906000526020600020016040518082805460018160011615610100020316600290048015611dfe5780601f10611ddc576101008083540402835291820191611dfe565b820191906000526020600020905b815481529060010190602001808311611dea575b505091505090815260200160405180910390209080600181540180825580915050906001820390600052602060002001600090919290919091509080546001816001161561010002031660029004611e579291906146e3565b505060066000828152602001908152602001600020600260405180807f656e7669726f6e6d656e74000000000000000000000000000000000000000000815250600b019050908152602001604051809103902060056000848152602001908152602001600020600981548110611ec957fe5b906000526020600020016040518082805460018160011615610100020316600290048015611f2e5780601f10611f0c576101008083540402835291820191611f2e565b820191906000526020600020905b815481529060010190602001808311611f1a575b505091505090815260200160405180910390209080600181540180825580915050906001820390600052602060002001600090919290919091509080546001816001161561010002031660029004611f879291906146e3565b505050565b6060611f9782614548565b905060046000848152602001908152602001600020611fb960ec60f084612420565b9080600181540180825580915050906001820390600052602060002001600090919290919091509080519060200190611ff392919061476a565b50506004600084815260200190815260200160002061201560d860dc84612420565b908060018154018082558091505090600182039060005260206000200160009091929091909150908051906020019061204f92919061476a565b50506004600084815260200190815260200160002061207160c460c884612420565b90806001815401808255809150509060018203906000526020600020016000909192909190915090805190602001906120ab92919061476a565b5050600460008481526020019081526020016000206120cd60b060b484612420565b908060018154018082558091505090600182039060005260206000200160009091929091909150908051906020019061210792919061476a565b505060046000848152602001908152602001600020612129609c60a084612420565b908060018154018082558091505090600182039060005260206000200160009091929091909150908051906020019061216392919061476a565b5050600460008481526020019081526020016000206121856088608c84612420565b90806001815401808255809150509060018203906000526020600020016000909192909190915090805190602001906121bf92919061476a565b5050600460008481526020019081526020016000206121e16074607884612420565b908060018154018082558091505090600182039060005260206000200160009091929091909150908051906020019061221b92919061476a565b50506004600084815260200190815260200160002061223d6060606484612420565b908060018154018082558091505090600182039060005260206000200160009091929091909150908051906020019061227792919061476a565b505060046000848152602001908152602001600020612299604c605084612420565b90806001815401808255809150509060018203906000526020600020016000909192909190915090805190602001906122d392919061476a565b5050600460008481526020019081526020016000206122f56038603c84612420565b908060018154018082558091505090600182039060005260206000200160009091929091909150908051906020019061232f92919061476a565b5050505050565b806002846040518082805190602001908083835b6020831061236d578051825260208201915060208101905060208303925061234a565b6001836020036101000a0380198251168184511680821785525050505050509050019150509081526020016040518091039020836040518082805190602001908083835b602083106123d457805182526020820191506020810190506020830392506123b1565b6001836020036101000a0380198251168184511680821785525050505050509050019150509081526020016040518091039020908051906020019061241a92919061476a565b50505050565b606080612449600161243b87876146b090919063ffffffff16565b6146c790919063ffffffff16565b6040519080825280601f01601f19166020018201604052801561247b5781602001600182028038833980820191505090505b50905060008090505b61249786866146b090919063ffffffff16565b811161252157836124c460016124b689856146c790919063ffffffff16565b6146b090919063ffffffff16565b815181106124ce57fe5b602001015160f81c60f81b8282815181106124e557fe5b60200101907effffffffffffffffffffffffffffffffffffffffffffffffffffffffffffff1916908160001a9053508080600101915050612484565b50809150509392505050565b6000809054906101000a900473ffffffffffffffffffffffffffffffffffffffff1681565b6000809054906101000a900473ffffffffffffffffffffffffffffffffffffffff1673ffffffffffffffffffffffffffffffffffffffff163373ffffffffffffffffffffffffffffffffffffffff16146125a857fe5b80600160006101000a81548173ffffffffffffffffffffffffffffffffffffffff021916908373ffffffffffffffffffffffffffffffffffffffff16021790555050565b6006602052816000526040600020818154811061260557fe5b90600052602060002001600091509150508054600181600116156101000203166002900480601f0160208091040260200160405190810160405280929190818152602001828054600181600116156101000203166002900480156126aa5780601f1061267f576101008083540402835291602001916126aa565b820191906000526020600020905b81548152906001019060200180831161268d57829003601f168201915b505050505081565b600560008281526020019081526020016000206003600460008481526020019081526020016000206000815481106126e657fe5b90600052602060002001604051808280546001816001161561010002031660029004801561274b5780601f1061272957610100808354040283529182019161274b565b820191906000526020600020905b815481529060010190602001808311612737575b5050915050908152602001604051809103902090806001815401808255809150509060018203906000526020600020016000909192909190915090805460018160011615610100020316600290046127a49291906146e3565b5050600560008281526020019081526020016000206003600460008481526020019081526020016000206001815481106127da57fe5b90600052602060002001604051808280546001816001161561010002031660029004801561283f5780601f1061281d57610100808354040283529182019161283f565b820191906000526020600020905b81548152906001019060200180831161282b575b5050915050908152602001604051809103902090806001815401808255809150509060018203906000526020600020016000909192909190915090805460018160011615610100020316600290046128989291906146e3565b5050600560008281526020019081526020016000206003600460008481526020019081526020016000206002815481106128ce57fe5b9060005260206000200160405180828054600181600116156101000203166002900480156129335780601f10612911576101008083540402835291820191612933565b820191906000526020600020905b81548152906001019060200180831161291f575b50509150509081526020016040518091039020908060018154018082558091505090600182039060005260206000200160009091929091909150908054600181600116156101000203166002900461298c9291906146e3565b5050600560008281526020019081526020016000206003600460008481526020019081526020016000206003815481106129c257fe5b906000526020600020016040518082805460018160011615610100020316600290048015612a275780601f10612a05576101008083540402835291820191612a27565b820191906000526020600020905b815481529060010190602001808311612a13575b505091505090815260200160405180910390209080600181540180825580915050906001820390600052602060002001600090919290919091509080546001816001161561010002031660029004612a809291906146e3565b505060056000828152602001908152602001600020600360046000848152602001908152602001600020600481548110612ab657fe5b906000526020600020016040518082805460018160011615610100020316600290048015612b1b5780601f10612af9576101008083540402835291820191612b1b565b820191906000526020600020905b815481529060010190602001808311612b07575b505091505090815260200160405180910390209080600181540180825580915050906001820390600052602060002001600090919290919091509080546001816001161561010002031660029004612b749291906146e3565b505060056000828152602001908152602001600020600360046000848152602001908152602001600020600581548110612baa57fe5b906000526020600020016040518082805460018160011615610100020316600290048015612c0f5780601f10612bed576101008083540402835291820191612c0f565b820191906000526020600020905b815481529060010190602001808311612bfb575b505091505090815260200160405180910390209080600181540180825580915050906001820390600052602060002001600090919290919091509080546001816001161561010002031660029004612c689291906146e3565b505060056000828152602001908152602001600020600360046000848152602001908152602001600020600681548110612c9e57fe5b906000526020600020016040518082805460018160011615610100020316600290048015612d035780601f10612ce1576101008083540402835291820191612d03565b820191906000526020600020905b815481529060010190602001808311612cef575b505091505090815260200160405180910390209080600181540180825580915050906001820390600052602060002001600090919290919091509080546001816001161561010002031660029004612d5c9291906146e3565b505060056000828152602001908152602001600020600360046000848152602001908152602001600020600781548110612d9257fe5b906000526020600020016040518082805460018160011615610100020316600290048015612df75780601f10612dd5576101008083540402835291820191612df7565b820191906000526020600020905b815481529060010190602001808311612de3575b505091505090815260200160405180910390209080600181540180825580915050906001820390600052602060002001600090919290919091509080546001816001161561010002031660029004612e509291906146e3565b505060056000828152602001908152602001600020600360046000848152602001908152602001600020600881548110612e8657fe5b906000526020600020016040518082805460018160011615610100020316600290048015612eeb5780601f10612ec9576101008083540402835291820191612eeb565b820191906000526020600020905b815481529060010190602001808311612ed7575b505091505090815260200160405180910390209080600181540180825580915050906001820390600052602060002001600090919290919091509080546001816001161561010002031660029004612f449291906146e3565b505060056000828152602001908152602001600020600360046000848152602001908152602001600020600981548110612f7a57fe5b906000526020600020016040518082805460018160011615610100020316600290048015612fdf5780601f10612fbd576101008083540402835291820191612fdf565b820191906000526020600020905b815481529060010190602001808311612fcb575b5050915050908152602001604051809103902090806001815401808255809150509060018203906000526020600020016000909192909190915090805460018160011615610100020316600290046130389291906146e3565b505050565b60028280516020810182018051848252602083016020850120818352809550505050505081805160208101820180518482526020830160208501208183528095505050505050600091509150508054600181600116156101000203166002900480601f01602080910402602001604051908101604052809291908181526020018280546001816001161561010002031660029004801561311e5780601f106130f35761010080835404028352916020019161311e565b820191906000526020600020905b81548152906001019060200180831161310157829003601f168201915b505050505081565b6040518060400160405280600181526020017f3100000000000000000000000000000000000000000000000000000000000000815250600360405180807f30303030300000000000000000000000000000000000000000000000000000008152506005019050908152602001604051809103902090805190602001906131ad92919061476a565b506040518060400160405280600181526020017f3200000000000000000000000000000000000000000000000000000000000000815250600360405180807f303030303100000000000000000000000000000000000000000000000000000081525060050190509081526020016040518091039020908051906020019061323592919061476a565b506040518060400160405280600181526020017f3300000000000000000000000000000000000000000000000000000000000000815250600360405180807f30303031300000000000000000000000000000000000000000000000000000008152506005019050908152602001604051809103902090805190602001906132bd92919061476a565b506040518060400160405280600181526020017f3400000000000000000000000000000000000000000000000000000000000000815250600360405180807f303030313100000000000000000000000000000000000000000000000000000081525060050190509081526020016040518091039020908051906020019061334592919061476a565b506040518060400160405280600181526020017f3500000000000000000000000000000000000000000000000000000000000000815250600360405180807f30303130300000000000000000000000000000000000000000000000000000008152506005019050908152602001604051809103902090805190602001906133cd92919061476a565b506040518060400160405280600181526020017f3600000000000000000000000000000000000000000000000000000000000000815250600360405180807f303031303100000000000000000000000000000000000000000000000000000081525060050190509081526020016040518091039020908051906020019061345592919061476a565b506040518060400160405280600181526020017f3700000000000000000000000000000000000000000000000000000000000000815250600360405180807f30303131300000000000000000000000000000000000000000000000000000008152506005019050908152602001604051809103902090805190602001906134dd92919061476a565b506040518060400160405280600181526020017f3800000000000000000000000000000000000000000000000000000000000000815250600360405180807f303031313100000000000000000000000000000000000000000000000000000081525060050190509081526020016040518091039020908051906020019061356592919061476a565b506040518060400160405280600181526020017f3900000000000000000000000000000000000000000000000000000000000000815250600360405180807f30313030300000000000000000000000000000000000000000000000000000008152506005019050908152602001604051809103902090805190602001906135ed92919061476a565b506040518060400160405280600181526020017f6100000000000000000000000000000000000000000000000000000000000000815250600360405180807f303130303100000000000000000000000000000000000000000000000000000081525060050190509081526020016040518091039020908051906020019061367592919061476a565b506040518060400160405280600181526020017f6200000000000000000000000000000000000000000000000000000000000000815250600360405180807f30313031300000000000000000000000000000000000000000000000000000008152506005019050908152602001604051809103902090805190602001906136fd92919061476a565b506040518060400160405280600181526020017f6300000000000000000000000000000000000000000000000000000000000000815250600360405180807f303130313100000000000000000000000000000000000000000000000000000081525060050190509081526020016040518091039020908051906020019061378592919061476a565b506040518060400160405280600181526020017f6400000000000000000000000000000000000000000000000000000000000000815250600360405180807f303131303000000000000000000000000000000000000000000000000000000081525060050190509081526020016040518091039020908051906020019061380d92919061476a565b506040518060400160405280600181526020017f6500000000000000000000000000000000000000000000000000000000000000815250600360405180807f303131303100000000000000000000000000000000000000000000000000000081525060050190509081526020016040518091039020908051906020019061389592919061476a565b506040518060400160405280600181526020017f6600000000000000000000000000000000000000000000000000000000000000815250600360405180807f303131313000000000000000000000000000000000000000000000000000000081525060050190509081526020016040518091039020908051906020019061391d92919061476a565b506040518060400160405280600181526020017f6700000000000000000000000000000000000000000000000000000000000000815250600360405180807f30313131310000000000000000000000000000000000000000000000000000008152506005019050908152602001604051809103902090805190602001906139a592919061476a565b506040518060400160405280600181526020017f6800000000000000000000000000000000000000000000000000000000000000815250600360405180807f3130303030000000000000000000000000000000000000000000000000000000815250600501905090815260200160405180910390209080519060200190613a2d92919061476a565b506040518060400160405280600181526020017f6900000000000000000000000000000000000000000000000000000000000000815250600360405180807f3130303031000000000000000000000000000000000000000000000000000000815250600501905090815260200160405180910390209080519060200190613ab592919061476a565b506040518060400160405280600181526020017f6a00000000000000000000000000000000000000000000000000000000000000815250600360405180807f3130303130000000000000000000000000000000000000000000000000000000815250600501905090815260200160405180910390209080519060200190613b3d92919061476a565b506040518060400160405280600181526020017f6b00000000000000000000000000000000000000000000000000000000000000815250600360405180807f3130303131000000000000000000000000000000000000000000000000000000815250600501905090815260200160405180910390209080519060200190613bc592919061476a565b506040518060400160405280600181526020017f6d00000000000000000000000000000000000000000000000000000000000000815250600360405180807f3130313030000000000000000000000000000000000000000000000000000000815250600501905090815260200160405180910390209080519060200190613c4d92919061476a565b506040518060400160405280600181526020017f6e00000000000000000000000000000000000000000000000000000000000000815250600360405180807f3130313031000000000000000000000000000000000000000000000000000000815250600501905090815260200160405180910390209080519060200190613cd592919061476a565b506040518060400160405280600181526020017f6f00000000000000000000000000000000000000000000000000000000000000815250600360405180807f3130313130000000000000000000000000000000000000000000000000000000815250600501905090815260200160405180910390209080519060200190613d5d92919061476a565b506040518060400160405280600181526020017f7000000000000000000000000000000000000000000000000000000000000000815250600360405180807f3130313131000000000000000000000000000000000000000000000000000000815250600501905090815260200160405180910390209080519060200190613de592919061476a565b506040518060400160405280600181526020017f7100000000000000000000000000000000000000000000000000000000000000815250600360405180807f3131303030000000000000000000000000000000000000000000000000000000815250600501905090815260200160405180910390209080519060200190613e6d92919061476a565b506040518060400160405280600181526020017f7200000000000000000000000000000000000000000000000000000000000000815250600360405180807f3131303031000000000000000000000000000000000000000000000000000000815250600501905090815260200160405180910390209080519060200190613ef592919061476a565b506040518060400160405280600181526020017f7300000000000000000000000000000000000000000000000000000000000000815250600360405180807f3131303130000000000000000000000000000000000000000000000000000000815250600501905090815260200160405180910390209080519060200190613f7d92919061476a565b506040518060400160405280600181526020017f7400000000000000000000000000000000000000000000000000000000000000815250600360405180807f313130313100000000000000000000000000000000000000000000000000000081525060050190509081526020016040518091039020908051906020019061400592919061476a565b506040518060400160405280600181526020017f7500000000000000000000000000000000000000000000000000000000000000815250600360405180807f313131303000000000000000000000000000000000000000000000000000000081525060050190509081526020016040518091039020908051906020019061408d92919061476a565b506040518060400160405280600181526020017f7600000000000000000000000000000000000000000000000000000000000000815250600360405180807f313131303100000000000000000000000000000000000000000000000000000081525060050190509081526020016040518091039020908051906020019061411592919061476a565b506040518060400160405280600181526020017f7700000000000000000000000000000000000000000000000000000000000000815250600360405180807f313131313000000000000000000000000000000000000000000000000000000081525060050190509081526020016040518091039020908051906020019061419d92919061476a565b506040518060400160405280600181526020017f7800000000000000000000000000000000000000000000000000000000000000815250600360405180807f313131313100000000000000000000000000000000000000000000000000000081525060050190509081526020016040518091039020908051906020019061422592919061476a565b50565b6005602052816000526040600020818154811061424157fe5b90600052602060002001600091509150508054600181600116156101000203166002900480601f0160208091040260200160405190810160405280929190818152602001828054600181600116156101000203166002900480156142e65780601f106142bb576101008083540402835291602001916142e6565b820191906000526020600020905b8154815290600101906020018083116142c957829003601f168201915b505050505081565b6008818051602081018201805184825260208301602085012081835280955050505050506000915090505481565b600160009054906101000a900473ffffffffffffffffffffffffffffffffffffffff1681565b806008836040518082805190602001908083835b602083106143795780518252602082019150602081019050602083039250614356565b6001836020036101000a0380198251168184511680821785525050505050509050019150509081526020016040518091039020819055505050565b6000809054906101000a900473ffffffffffffffffffffffffffffffffffffffff1673ffffffffffffffffffffffffffffffffffffffff163373ffffffffffffffffffffffffffffffffffffffff161461440a57fe5b600073ffffffffffffffffffffffffffffffffffffffff168173ffffffffffffffffffffffffffffffffffffffff161461447f57806000806101000a81548173ffffffffffffffffffffffffffffffffffffffff021916908373ffffffffffffffffffffffffffffffffffffffff1602179055505b50565b6003818051602081018201805184825260208301602085012081835280955050505050506000915090508054600181600116156101000203166002900480601f0160208091040260200160405190810160405280929190818152602001828054600181600116156101000203166002900480156145405780601f1061451557610100808354040283529160200191614540565b820191906000526020600020905b81548152906001019060200180831161452357829003601f168201915b505050505081565b60608060f06040519080825280601f01601f19166020018201604052801561457f5781602001600182028038833980820191505090505b50905060008090505b60f081101561464c5760016002858161459d57fe5b06146145c9577f30000000000000000000000000000000000000000000000000000000000000006145eb565b7f31000000000000000000000000000000000000000000000000000000000000005b828260ef03815181106145fa57fe5b60200101907effffffffffffffffffffffffffffffffffffffffffffffffffffffffffffff1916908160001a90535061463d60028561469790919063ffffffff16565b93508080600101915050614588565b5080915050919050565b8060078190555050565b6000808314156146735760009050614691565b600082840290508284828161468457fe5b041461468c57fe5b809150505b92915050565b6000808284816146a357fe5b0490508091505092915050565b6000828211156146bc57fe5b818303905092915050565b6000808284019050838110156146d957fe5b8091505092915050565b828054600181600116156101000203166002900490600052602060002090601f016020900481019282601f1061471c5780548555614759565b8280016001018555821561475957600052602060002091601f016020900482015b8281111561475857825482559160010191906001019061473d565b5b50905061476691906147ea565b5090565b828054600181600116156101000203166002900490600052602060002090601f016020900481019282601f106147ab57805160ff19168380011785556147d9565b828001600101855582156147d9579182015b828111156147d85782518255916020019190600101906147bd565b5b5090506147e691906147ea565b5090565b61480c91905b808211156148085760008160009055506001016147f0565b5090565b9056fea265627a7a7230582045b7a53ce57a2ee0491df7ee302f7aa1c9a7ba7bd169d74d8abd1cbbd8bfcd7b64736f6c634300050a0032",
  "source": "pragma solidity ^0.5.5;\n\nimport \"../../../libs/SafeMath.sol\";\nimport \"./KittiesCattributesDB.sol\";\nimport \"./CattributesScoresDB.sol\";\n\n/**\n * @title This contract is responsible to calculate the rarity level of a kitty \n * @author @ziweidream\n */\n// can only partially implement safe math in this contract due to compilation error of stack too deep\ncontract Rarity is KittiesCattributesDB, CattributesScoresDB {\n    using SafeMath for uint256;\n\n    /**\n     * @author @ziweidream\n     * @notice calculate a kitty's rarity based on its cattributes\n     * @return the rarity of a kittie as an integer\n     */\n\n    function calculateRarity(uint256 kittieId) \n       public // temporarily set as public just for truffle testing purpose. should be internal\n       //internal\n       view \n       returns (uint256 rarity) \n    {\n       rarity = (CattributesScores[kittiesDominantCattributes[kittieId][0]]\n                + CattributesScores[kittiesDominantCattributes[kittieId][1]]\n                + CattributesScores[kittiesDominantCattributes[kittieId][2]]\n                + CattributesScores[kittiesDominantCattributes[kittieId][3]]\n                + CattributesScores[kittiesDominantCattributes[kittieId][4]]\n                + CattributesScores[kittiesDominantCattributes[kittieId][5]]\n                + CattributesScores[kittiesDominantCattributes[kittieId][6]]\n                + CattributesScores[kittiesDominantCattributes[kittieId][8]]).mul(100000000).div(totalKitties);\n    }\n}",
  "sourcePath": "/home/wafflemakr/Desktop/KittieFight/alpha/contracts/modules/algorithm/RarityCalculationDBs/Rarity.sol",
  "compiler": {
    "name": "solc",
    "version": "0.5.10+commit.5a6ea5b1.Emscripten.clang"
  },
  "schemaVersion": "3.0.11",
  "updatedAt": "2019-08-02T23:07:11.185Z",
  "devdoc": {
    "author": "@ziweidream",
    "methods": {
      "binaryToKai(uint256)": {
        "author": "@ziweidream"
      },
      "calculateRarity(uint256)": {
        "author": "@ziweidream",
        "return": "the rarity of a kittie as an integer"
      },
      "fillKaiValue()": {
        "author": "@ziweidream"
      },
      "getDominantGeneBinary(uint256,uint256)": {
        "author": "@ziweidream"
      },
      "getSlice(uint256,uint256,string)": {
        "author": "@ziweidream"
      },
      "kaiToCattribute(uint256)": {
        "author": "@ziweidream"
      },
      "toBinaryString(uint256)": {
        "author": "@ziweidream",
        "params": {
          "n": "the integer to be converted"
        },
        "return": "the binary"
      },
      "updateCattributes(string,string,string)": {
        "author": "@ziweidream",
        "details": "https://github.com/openblockchains/programming-cryptocollectibles/blob/master/02_genereader.md",
        "params": {
          "_cattribute": "the corresponding cattribute of a gene in kai notation, in small letters",
          "_kai": "kai notation of a gene in small letters",
          "_type": "type of cattributes in small letters"
        }
      },
      "updateCattributesScores(string,uint256)": {
        "author": "@ziweidream",
        "details": "this db needs to beupdated periodically.https://api.cryptokitties.co/cattributes",
        "params": {
          "_name": "the cattribute's name",
          "_score": "the cattribute's score"
        }
      }
    },
    "title": "This contract is responsible to calculate the rarity level of a kitty "
  },
  "userdoc": {
    "methods": {
      "binaryToKai(uint256)": {
        "notice": "converts binary to its corresponding kai notationonly dominant genes are kept since kitties only demonstrate cattributes from dominant genes."
      },
      "calculateRarity(uint256)": {
        "notice": "calculate a kitty's rarity based on its cattributes"
      },
      "fillKaiValue()": {
        "notice": "mapping a gene in binary with its kai notation"
      },
      "getDominantGeneBinary(uint256,uint256)": {
        "notice": "converts the gene in uint of a kitty to binary.only dominant genes are kept since kitties only demonstrate cattributes from dominant genes."
      },
      "getSlice(uint256,uint256,string)": {
        "notice": "gets slice of a string"
      },
      "kaiToCattribute(uint256)": {
        "notice": "converts kai notation to its corresponding cattribute"
      },
      "setProxy(address)": {
        "notice": "Set/update address of Proxy contract"
      },
      "toBinaryString(uint256)": {
        "notice": "converts an integer to its binary"
      },
      "updateCattributes(string,string,string)": {
        "notice": "mapping a gene in kai notation to its corresponding cattribute"
      },
      "updateCattributesScores(string,uint256)": {
        "notice": "mapping a cattribute with its score"
      }
    }
  }
}