{
  "contractName": "Rarity",
  "abi": [
    {
      "constant": true,
      "inputs": [
        {
          "internalType": "string",
          "name": "",
          "type": "string"
        }
      ],
      "name": "CattributesScores",
      "outputs": [
        {
          "internalType": "uint256",
          "name": "",
          "type": "uint256"
        }
      ],
      "payable": false,
      "stateMutability": "view",
      "type": "function"
    },
    {
      "constant": false,
      "inputs": [
        {
          "internalType": "uint256",
          "name": "kittieId",
          "type": "uint256"
        }
      ],
      "name": "binaryToKai",
      "outputs": [],
      "payable": false,
      "stateMutability": "nonpayable",
      "type": "function"
    },
    {
      "constant": true,
      "inputs": [
        {
          "internalType": "string",
          "name": "",
          "type": "string"
        },
        {
          "internalType": "bytes1",
          "name": "",
          "type": "bytes1"
        }
      ],
      "name": "cattributes",
      "outputs": [
        {
          "internalType": "string",
          "name": "",
          "type": "string"
        }
      ],
      "payable": false,
      "stateMutability": "view",
      "type": "function"
    },
    {
      "constant": false,
      "inputs": [],
      "name": "fillKaiValue",
      "outputs": [],
      "payable": false,
      "stateMutability": "nonpayable",
      "type": "function"
    },
    {
      "constant": false,
      "inputs": [
        {
          "internalType": "uint256",
          "name": "kittieId",
          "type": "uint256"
        },
        {
          "internalType": "uint256",
          "name": "gene",
          "type": "uint256"
        }
      ],
      "name": "getDominantGeneBinary",
      "outputs": [],
      "payable": false,
      "stateMutability": "nonpayable",
      "type": "function"
    },
    {
      "constant": true,
      "inputs": [
        {
          "internalType": "uint256",
          "name": "begin",
          "type": "uint256"
        },
        {
          "internalType": "uint256",
          "name": "end",
          "type": "uint256"
        },
        {
          "internalType": "string",
          "name": "text",
          "type": "string"
        }
      ],
      "name": "getSlice",
      "outputs": [
        {
          "internalType": "string",
          "name": "",
          "type": "string"
        }
      ],
      "payable": false,
      "stateMutability": "pure",
      "type": "function"
    },
    {
      "constant": false,
      "inputs": [
        {
          "internalType": "uint256",
          "name": "kittieId",
          "type": "uint256"
        }
      ],
      "name": "kaiToCattribute",
      "outputs": [],
      "payable": false,
      "stateMutability": "nonpayable",
      "type": "function"
    },
    {
      "constant": true,
      "inputs": [
        {
          "internalType": "string",
          "name": "",
          "type": "string"
        }
      ],
      "name": "kaiValue",
      "outputs": [
        {
          "internalType": "bytes1",
          "name": "",
          "type": "bytes1"
        }
      ],
      "payable": false,
      "stateMutability": "view",
      "type": "function"
    },
    {
      "constant": true,
      "inputs": [
        {
          "internalType": "uint256",
          "name": "",
          "type": "uint256"
        },
        {
          "internalType": "uint256",
          "name": "",
          "type": "uint256"
        }
      ],
      "name": "kittiesDominantCattributes",
      "outputs": [
        {
          "internalType": "string",
          "name": "",
          "type": "string"
        }
      ],
      "payable": false,
      "stateMutability": "view",
      "type": "function"
    },
    {
      "constant": true,
      "inputs": [
        {
          "internalType": "uint256",
          "name": "",
          "type": "uint256"
        },
        {
          "internalType": "uint256",
          "name": "",
          "type": "uint256"
        }
      ],
      "name": "kittiesDominantGeneBinary",
      "outputs": [
        {
          "internalType": "string",
          "name": "",
          "type": "string"
        }
      ],
      "payable": false,
      "stateMutability": "view",
      "type": "function"
    },
    {
      "constant": true,
      "inputs": [
        {
          "internalType": "uint256",
          "name": "",
          "type": "uint256"
        },
        {
          "internalType": "uint256",
          "name": "",
          "type": "uint256"
        }
      ],
      "name": "kittiesDominantGeneKai",
      "outputs": [
        {
          "internalType": "bytes1",
          "name": "",
          "type": "bytes1"
        }
      ],
      "payable": false,
      "stateMutability": "view",
      "type": "function"
    },
    {
      "constant": true,
      "inputs": [],
      "name": "owner",
      "outputs": [
        {
          "internalType": "address payable",
          "name": "",
          "type": "address"
        }
      ],
      "payable": false,
      "stateMutability": "view",
      "type": "function"
    },
    {
      "constant": true,
      "inputs": [],
      "name": "proxy",
      "outputs": [
        {
          "internalType": "contract ProxyBase",
          "name": "",
          "type": "address"
        }
      ],
      "payable": false,
      "stateMutability": "view",
      "type": "function"
    },
    {
      "constant": false,
      "inputs": [
        {
          "internalType": "contract ProxyBase",
          "name": "_proxy",
          "type": "address"
        }
      ],
      "name": "setProxy",
      "outputs": [],
      "payable": false,
      "stateMutability": "nonpayable",
      "type": "function"
    },
    {
      "constant": true,
      "inputs": [
        {
          "internalType": "uint256",
          "name": "n",
          "type": "uint256"
        }
      ],
      "name": "toBinaryString",
      "outputs": [
        {
          "internalType": "string",
          "name": "",
          "type": "string"
        }
      ],
      "payable": false,
      "stateMutability": "pure",
      "type": "function"
    },
    {
      "constant": false,
      "inputs": [
        {
          "internalType": "address payable",
          "name": "newOwner",
          "type": "address"
        }
      ],
      "name": "transferOwnership",
      "outputs": [],
      "payable": false,
      "stateMutability": "nonpayable",
      "type": "function"
    },
    {
      "constant": false,
      "inputs": [
        {
          "internalType": "bytes32[]",
          "name": "_cattribute",
          "type": "bytes32[]"
        },
        {
          "internalType": "uint256",
          "name": "_noOfTypes",
          "type": "uint256"
        }
      ],
      "name": "updateCattributes",
      "outputs": [],
      "payable": false,
      "stateMutability": "nonpayable",
      "type": "function"
    },
    {
      "constant": false,
      "inputs": [
        {
          "internalType": "bytes32[]",
          "name": "_name",
          "type": "bytes32[]"
        },
        {
          "internalType": "uint256[]",
          "name": "_score",
          "type": "uint256[]"
        }
      ],
      "name": "updateCattributesScores",
      "outputs": [],
      "payable": false,
      "stateMutability": "nonpayable",
      "type": "function"
    },
    {
      "constant": false,
      "inputs": [
        {
          "internalType": "uint256",
          "name": "_totalKitties",
          "type": "uint256"
        }
      ],
      "name": "updateTotalKitties",
      "outputs": [],
      "payable": false,
      "stateMutability": "nonpayable",
      "type": "function"
    },
    {
      "constant": true,
      "inputs": [
        {
          "internalType": "uint256",
          "name": "kittieId",
          "type": "uint256"
        }
      ],
      "name": "calculateRarity",
      "outputs": [
        {
          "internalType": "uint256",
          "name": "rarity",
          "type": "uint256"
        }
      ],
      "payable": false,
      "stateMutability": "view",
      "type": "function"
    }
  ],
  "bytecode": "0x6080604052600060035560006004556040518061014001604052806040518060400160405280600481526020017f626f64790000000000000000000000000000000000000000000000000000000081525081526020016040518060400160405280600781526020017f7061747465726e0000000000000000000000000000000000000000000000000081525081526020016040518060400160405280600981526020017f636f6c6f7265796573000000000000000000000000000000000000000000000081525081526020016040518060400160405280600481526020017f657965730000000000000000000000000000000000000000000000000000000081525081526020016040518060400160405280600681526020017f636f6c6f7231000000000000000000000000000000000000000000000000000081525081526020016040518060400160405280600681526020017f636f6c6f7232000000000000000000000000000000000000000000000000000081525081526020016040518060400160405280600681526020017f636f6c6f7233000000000000000000000000000000000000000000000000000081525081526020016040518060400160405280600481526020017f77696c640000000000000000000000000000000000000000000000000000000081525081526020016040518060400160405280600581526020017f6d6f75746800000000000000000000000000000000000000000000000000000081525081526020016040518060400160405280600b81526020017f656e7669726f6e6d656e74000000000000000000000000000000000000000000815250815250600590600a620002789291906200030d565b506040518060400160405280602081526020017f3132333435363738396162636465666768696a6b6d6e6f707172737475767778815250600f9080519060200190620002c692919062000367565b50336000806101000a81548173ffffffffffffffffffffffffffffffffffffffff021916908373ffffffffffffffffffffffffffffffffffffffff1602179055506200051a565b82600a810192821562000354579160200282015b828111156200035357825182908051906020019062000342929190620003ee565b509160200191906001019062000321565b5b50905062000363919062000475565b5090565b828054600181600116156101000203166002900490600052602060002090601f016020900481019282601f10620003aa57805160ff1916838001178555620003db565b82800160010185558215620003db579182015b82811115620003da578251825591602001919060010190620003bd565b5b509050620003ea9190620004a6565b5090565b828054600181600116156101000203166002900490600052602060002090601f016020900481019282601f106200043157805160ff191683800117855562000462565b8280016001018555821562000462579182015b828111156200046157825182559160200191906001019062000444565b5b509050620004719190620004a6565b5090565b620004a391905b808211156200049f5760008181620004959190620004ce565b506001016200047c565b5090565b90565b620004cb91905b80821115620004c7576000816000905550600101620004ad565b5090565b90565b50805460018160011615610100020316600290046000825580601f10620004f6575062000517565b601f016020900490600052602060002090810190620005169190620004a6565b5b50565b614d06806200052a6000396000f3fe608060405234801561001057600080fd5b506004361061012c5760003560e01c8063979cfe08116100ad578063ec55688911610071578063ec55688914610a16578063f2fde38b14610a60578063f343050414610aa4578063f4fb432f14610bb7578063fb51a0ad14610c5e5761012c565b8063979cfe08146107ce578063a97aaccf1461087f578063bfcfd60b146108ad578063c9f638fc146108b7578063d4c950c4146109475761012c565b8063789ef429116100f4578063789ef429146104745780637f60b20a146104ac5780638b356e9d146105f45780638da5cb5b1461074057806397107d6d1461078a5761012c565b8063022d1c01146101315780630e25272d146101e25780630f240ab4146102245780634ca88dff146103845780635a095f47146103b2575b600080fd5b6101676004803603604081101561014757600080fd5b810190808035906020019092919080359060200190929190505050610c8c565b6040518080602001828103825283818151815260200191508051906020019080838360005b838110156101a757808201518184015260208101905061018c565b50505050905090810190601f1680156101d45780820380516001836020036101000a031916815260200191505b509250505060405180910390f35b61020e600480360360208110156101f857600080fd5b8101908080359060200190929190505050610d52565b6040518082815260200191505060405180910390f35b6103096004803603604081101561023a57600080fd5b810190808035906020019064010000000081111561025757600080fd5b82018360208201111561026957600080fd5b8035906020019184600183028401116401000000008311171561028b57600080fd5b91908080601f016020809104026020016040519081016040528093929190818152602001838380828437600081840152601f19601f82011690508083019250505050505050919291929080357effffffffffffffffffffffffffffffffffffffffffffffffffffffffffffff1916906020019092919050505061125c565b6040518080602001828103825283818151815260200191508051906020019080838360005b8381101561034957808201518184015260208101905061032e565b50505050905090810190601f1680156103765780820380516001836020036101000a031916815260200191505b509250505060405180910390f35b6103b06004803603602081101561039a57600080fd5b810190808035906020019092919050505061132f565b005b610472600480360360408110156103c857600080fd5b81019080803590602001906401000000008111156103e557600080fd5b8201836020820111156103f757600080fd5b8035906020019184602083028401116401000000008311171561041957600080fd5b919080806020026020016040519081016040528093929190818152602001838360200280828437600081840152601f19601f82011690508083019250505050505050919291929080359060200190929190505050611eea565b005b6104aa6004803603604081101561048a57600080fd5b8101908080359060200190929190803590602001909291905050506121e4565b005b610579600480360360608110156104c257600080fd5b810190808035906020019092919080359060200190929190803590602001906401000000008111156104f357600080fd5b82018360208201111561050557600080fd5b8035906020019184600183028401116401000000008311171561052757600080fd5b91908080601f016020809104026020016040519081016040528093929190818152602001838380828437600081840152601f19601f82011690508083019250505050505050919291929050505061258e565b6040518080602001828103825283818151815260200191508051906020019080838360005b838110156105b957808201518184015260208101905061059e565b50505050905090810190601f1680156105e65780820380516001836020036101000a031916815260200191505b509250505060405180910390f35b61073e6004803603604081101561060a57600080fd5b810190808035906020019064010000000081111561062757600080fd5b82018360208201111561063957600080fd5b8035906020019184602083028401116401000000008311171561065b57600080fd5b919080806020026020016040519081016040528093929190818152602001838360200280828437600081840152601f19601f820116905080830192505050505050509192919290803590602001906401000000008111156106bb57600080fd5b8201836020820111156106cd57600080fd5b803590602001918460208302840111640100000000831117156106ef57600080fd5b919080806020026020016040519081016040528093929190818152602001838360200280828437600081840152601f19601f82011690508083019250505050505050919291929050505061269b565b005b61074861283f565b604051808273ffffffffffffffffffffffffffffffffffffffff1673ffffffffffffffffffffffffffffffffffffffff16815260200191505060405180910390f35b6107cc600480360360208110156107a057600080fd5b81019080803573ffffffffffffffffffffffffffffffffffffffff169060200190929190505050612864565b005b610804600480360360408110156107e457600080fd5b8101908080359060200190929190803590602001909291905050506128fe565b6040518080602001828103825283818151815260200191508051906020019080838360005b83811015610844578082015181840152602081019050610829565b50505050905090810190601f1680156108715780820380516001836020036101000a031916815260200191505b509250505060405180910390f35b6108ab6004803603602081101561089557600080fd5b81019080803590602001909291905050506129c4565b005b6108b56133bd565b005b6108ed600480360360408110156108cd57600080fd5b810190808035906020019092919080359060200190929190505050614386565b60405180827effffffffffffffffffffffffffffffffffffffffffffffffffffffffffffff19167effffffffffffffffffffffffffffffffffffffffffffffffffffffffffffff1916815260200191505060405180910390f35b610a006004803603602081101561095d57600080fd5b810190808035906020019064010000000081111561097a57600080fd5b82018360208201111561098c57600080fd5b803590602001918460018302840111640100000000831117156109ae57600080fd5b91908080601f016020809104026020016040519081016040528093929190818152602001838380828437600081840152601f19601f8201169050808301925050505050505091929192905050506143c6565b6040518082815260200191505060405180910390f35b610a1e6143f4565b604051808273ffffffffffffffffffffffffffffffffffffffff1673ffffffffffffffffffffffffffffffffffffffff16815260200191505060405180910390f35b610aa260048036036020811015610a7657600080fd5b81019080803573ffffffffffffffffffffffffffffffffffffffff16906020019092919050505061441a565b005b610b5d60048036036020811015610aba57600080fd5b8101908080359060200190640100000000811115610ad757600080fd5b820183602082011115610ae957600080fd5b80359060200191846001830284011164010000000083111715610b0b57600080fd5b91908080601f016020809104026020016040519081016040528093929190818152602001838380828437600081840152601f19601f8201169050808301925050505050505091929192905050506144e8565b60405180827effffffffffffffffffffffffffffffffffffffffffffffffffffffffffffff19167effffffffffffffffffffffffffffffffffffffffffffffffffffffffffffff1916815260200191505060405180910390f35b610be360048036036020811015610bcd57600080fd5b810190808035906020019092919050505061451e565b6040518080602001828103825283818151815260200191508051906020019080838360005b83811015610c23578082015181840152602081019050610c08565b50505050905090810190601f168015610c505780820380516001836020036101000a031916815260200191505b509250505060405180910390f35b610c8a60048036036020811015610c7457600080fd5b810190808035906020019092919050505061462c565b005b60116020528160005260406000208181548110610ca557fe5b90600052602060002001600091509150508054600181600116156101000203166002900480601f016020809104026020016040519081016040528092919081815260200182805460018160011615610100020316600290048015610d4a5780601f10610d1f57610100808354040283529160200191610d4a565b820191906000526020600020905b815481529060010190602001808311610d2d57829003601f168201915b505050505081565b60006112556014546112476305f5e100601560136000888152602001908152602001600020600881548110610d8357fe5b906000526020600020016040518082805460018160011615610100020316600290048015610de85780601f10610dc6576101008083540402835291820191610de8565b820191906000526020600020905b815481529060010190602001808311610dd4575b5050915050908152602001604051809103902054601560136000898152602001908152602001600020600681548110610e1d57fe5b906000526020600020016040518082805460018160011615610100020316600290048015610e825780601f10610e60576101008083540402835291820191610e82565b820191906000526020600020905b815481529060010190602001808311610e6e575b50509150509081526020016040518091039020546015601360008a8152602001908152602001600020600581548110610eb757fe5b906000526020600020016040518082805460018160011615610100020316600290048015610f1c5780601f10610efa576101008083540402835291820191610f1c565b820191906000526020600020905b815481529060010190602001808311610f08575b50509150509081526020016040518091039020546015601360008b8152602001908152602001600020600481548110610f5157fe5b906000526020600020016040518082805460018160011615610100020316600290048015610fb65780601f10610f94576101008083540402835291820191610fb6565b820191906000526020600020905b815481529060010190602001808311610fa2575b50509150509081526020016040518091039020546015601360008c8152602001908152602001600020600381548110610feb57fe5b9060005260206000200160405180828054600181600116156101000203166002900480156110505780601f1061102e576101008083540402835291820191611050565b820191906000526020600020905b81548152906001019060200180831161103c575b50509150509081526020016040518091039020546015601360008d815260200190815260200160002060028154811061108557fe5b9060005260206000200160405180828054600181600116156101000203166002900480156110ea5780601f106110c85761010080835404028352918201916110ea565b820191906000526020600020905b8154815290600101906020018083116110d6575b50509150509081526020016040518091039020546015601360008e815260200190815260200160002060018154811061111f57fe5b9060005260206000200160405180828054600181600116156101000203166002900480156111845780601f10611162576101008083540402835291820191611184565b820191906000526020600020905b815481529060010190602001808311611170575b50509150509081526020016040518091039020546015601360008f81526020019081526020016000206000815481106111b957fe5b90600052602060002001604051808280546001816001161561010002031660029004801561121e5780601f106111fc57610100808354040283529182019161121e565b820191906000526020600020905b81548152906001019060200180831161120a575b50509150509081526020016040518091039020540101010101010161471d90919063ffffffff16565b61475490919063ffffffff16565b9050919050565b600282805160208101820180518482526020830160208501208183528095505050505050602052806000526040600020600091509150508054600181600116156101000203166002900480601f0160208091040260200160405190810160405280929190818152602001828054600181600116156101000203166002900480156113275780601f106112fc57610100808354040283529160200191611327565b820191906000526020600020905b81548152906001019060200180831161130a57829003601f168201915b505050505081565b60136000828152602001908152602001600020600260405180807f626f647900000000000000000000000000000000000000000000000000000000815250600401905090815260200160405180910390206000601260008581526020019081526020016000206000815481106113a157fe5b90600052602060002090602091828204019190069054906101000a900460f81b7effffffffffffffffffffffffffffffffffffffffffffffffffffffffffffff19167effffffffffffffffffffffffffffffffffffffffffffffffffffffffffffff191681526020019081526020016000209080600181540180825580915050906001820390600052602060002001600090919290919091509080546001816001161561010002031660029004611459929190614ba5565b505060136000828152602001908152602001600020600260405180807f7061747465726e00000000000000000000000000000000000000000000000000815250600701905090815260200160405180910390206000601260008581526020019081526020016000206001815481106114cd57fe5b90600052602060002090602091828204019190069054906101000a900460f81b7effffffffffffffffffffffffffffffffffffffffffffffffffffffffffffff19167effffffffffffffffffffffffffffffffffffffffffffffffffffffffffffff191681526020019081526020016000209080600181540180825580915050906001820390600052602060002001600090919290919091509080546001816001161561010002031660029004611585929190614ba5565b505060136000828152602001908152602001600020600260405180807f636f6c6f72657965730000000000000000000000000000000000000000000000815250600901905090815260200160405180910390206000601260008581526020019081526020016000206002815481106115f957fe5b90600052602060002090602091828204019190069054906101000a900460f81b7effffffffffffffffffffffffffffffffffffffffffffffffffffffffffffff19167effffffffffffffffffffffffffffffffffffffffffffffffffffffffffffff1916815260200190815260200160002090806001815401808255809150509060018203906000526020600020016000909192909190915090805460018160011615610100020316600290046116b1929190614ba5565b505060136000828152602001908152602001600020600260405180807f65796573000000000000000000000000000000000000000000000000000000008152506004019050908152602001604051809103902060006012600085815260200190815260200160002060038154811061172557fe5b90600052602060002090602091828204019190069054906101000a900460f81b7effffffffffffffffffffffffffffffffffffffffffffffffffffffffffffff19167effffffffffffffffffffffffffffffffffffffffffffffffffffffffffffff1916815260200190815260200160002090806001815401808255809150509060018203906000526020600020016000909192909190915090805460018160011615610100020316600290046117dd929190614ba5565b505060136000828152602001908152602001600020600260405180807f636f6c6f723100000000000000000000000000000000000000000000000000008152506006019050908152602001604051809103902060006012600085815260200190815260200160002060048154811061185157fe5b90600052602060002090602091828204019190069054906101000a900460f81b7effffffffffffffffffffffffffffffffffffffffffffffffffffffffffffff19167effffffffffffffffffffffffffffffffffffffffffffffffffffffffffffff191681526020019081526020016000209080600181540180825580915050906001820390600052602060002001600090919290919091509080546001816001161561010002031660029004611909929190614ba5565b505060136000828152602001908152602001600020600260405180807f636f6c6f723200000000000000000000000000000000000000000000000000008152506006019050908152602001604051809103902060006012600085815260200190815260200160002060058154811061197d57fe5b90600052602060002090602091828204019190069054906101000a900460f81b7effffffffffffffffffffffffffffffffffffffffffffffffffffffffffffff19167effffffffffffffffffffffffffffffffffffffffffffffffffffffffffffff191681526020019081526020016000209080600181540180825580915050906001820390600052602060002001600090919290919091509080546001816001161561010002031660029004611a35929190614ba5565b505060136000828152602001908152602001600020600260405180807f636f6c6f7233000000000000000000000000000000000000000000000000000081525060060190509081526020016040518091039020600060126000858152602001908152602001600020600681548110611aa957fe5b90600052602060002090602091828204019190069054906101000a900460f81b7effffffffffffffffffffffffffffffffffffffffffffffffffffffffffffff19167effffffffffffffffffffffffffffffffffffffffffffffffffffffffffffff191681526020019081526020016000209080600181540180825580915050906001820390600052602060002001600090919290919091509080546001816001161561010002031660029004611b61929190614ba5565b505060136000828152602001908152602001600020600260405180807f77696c640000000000000000000000000000000000000000000000000000000081525060040190509081526020016040518091039020600060126000858152602001908152602001600020600781548110611bd557fe5b90600052602060002090602091828204019190069054906101000a900460f81b7effffffffffffffffffffffffffffffffffffffffffffffffffffffffffffff19167effffffffffffffffffffffffffffffffffffffffffffffffffffffffffffff191681526020019081526020016000209080600181540180825580915050906001820390600052602060002001600090919290919091509080546001816001161561010002031660029004611c8d929190614ba5565b505060136000828152602001908152602001600020600260405180807f6d6f75746800000000000000000000000000000000000000000000000000000081525060050190509081526020016040518091039020600060126000858152602001908152602001600020600881548110611d0157fe5b90600052602060002090602091828204019190069054906101000a900460f81b7effffffffffffffffffffffffffffffffffffffffffffffffffffffffffffff19167effffffffffffffffffffffffffffffffffffffffffffffffffffffffffffff191681526020019081526020016000209080600181540180825580915050906001820390600052602060002001600090919290919091509080546001816001161561010002031660029004611db9929190614ba5565b505060136000828152602001908152602001600020600260405180807f656e7669726f6e6d656e74000000000000000000000000000000000000000000815250600b0190509081526020016040518091039020600060126000858152602001908152602001600020600981548110611e2d57fe5b90600052602060002090602091828204019190069054906101000a900460f81b7effffffffffffffffffffffffffffffffffffffffffffffffffffffffffffff19167effffffffffffffffffffffffffffffffffffffffffffffffffffffffffffff191681526020019081526020016000209080600181540180825580915050906001820390600052602060002001600090919290919091509080546001816001161561010002031660029004611ee5929190614ba5565b505050565b600073ffffffffffffffffffffffffffffffffffffffff163373ffffffffffffffffffffffffffffffffffffffff161415611f2157fe5b611f5f6040518060400160405280600b81526020017f73757065725f61646d696e00000000000000000000000000000000000000000081525061476d565b611fd1576040517f08c379a00000000000000000000000000000000000000000000000000000000081526004018080602001828103825260108152602001807f4f6e6c792073757065722061646d696e0000000000000000000000000000000081525060200191505060405180910390fd5b600060035490505b81600354018110156121cc5760008090505b60208110156121be57612012846004548151811061200557fe5b60200260200101516149e9565b6002600584600a811061202157fe5b01604051808280546001816001161561010002031660029004801561207d5780601f1061205b57610100808354040283529182019161207d565b820191906000526020600020905b815481529060010190602001808311612069575b505091505090815260200160405180910390206000612139600f8054600181600116156101000203166002900480601f01602080910402602001604051908101604052809291908181526020018280546001816001161561010002031660029004801561212b5780601f106121005761010080835404028352916020019161212b565b820191906000526020600020905b81548152906001019060200180831161210e57829003601f168201915b505050505085602001614a91565b7effffffffffffffffffffffffffffffffffffffffffffffffffffffffffffff19167effffffffffffffffffffffffffffffffffffffffffffffffffffffffffffff19168152602001908152602001600020908051906020019061219e929190614c2c565b506004600081548092919060010191905055508080600101915050611feb565b508080600101915050611fd9565b50806003540160038190555060006004819055505050565b60606121ef8261451e565b90506011600084815260200190815260200160002061221160ec60f08461258e565b908060018154018082558091505090600182039060005260206000200160009091929091909150908051906020019061224b929190614c2c565b50506011600084815260200190815260200160002061226d60d860dc8461258e565b90806001815401808255809150509060018203906000526020600020016000909192909190915090805190602001906122a7929190614c2c565b5050601160008481526020019081526020016000206122c960c460c88461258e565b9080600181540180825580915050906001820390600052602060002001600090919290919091509080519060200190612303929190614c2c565b50506011600084815260200190815260200160002061232560b060b48461258e565b908060018154018082558091505090600182039060005260206000200160009091929091909150908051906020019061235f929190614c2c565b505060116000848152602001908152602001600020612381609c60a08461258e565b90806001815401808255809150509060018203906000526020600020016000909192909190915090805190602001906123bb929190614c2c565b5050601160008481526020019081526020016000206123dd6088608c8461258e565b9080600181540180825580915050906001820390600052602060002001600090919290919091509080519060200190612417929190614c2c565b505060116000848152602001908152602001600020612439607460788461258e565b9080600181540180825580915050906001820390600052602060002001600090919290919091509080519060200190612473929190614c2c565b505060116000848152602001908152602001600020612495606060648461258e565b90806001815401808255809150509060018203906000526020600020016000909192909190915090805190602001906124cf929190614c2c565b5050601160008481526020019081526020016000206124f1604c60508461258e565b908060018154018082558091505090600182039060005260206000200160009091929091909150908051906020019061252b929190614c2c565b50506011600084815260200190815260200160002061254d6038603c8461258e565b9080600181540180825580915050906001820390600052602060002001600090919290919091509080519060200190612587929190614c2c565b5050505050565b6060806125b760016125a98787614abd90919063ffffffff16565b614ad490919063ffffffff16565b6040519080825280601f01601f1916602001820160405280156125e95781602001600182028038833980820191505090505b50905060008090505b6126058686614abd90919063ffffffff16565b811161268f578361263260016126248985614ad490919063ffffffff16565b614abd90919063ffffffff16565b8151811061263c57fe5b602001015160f81c60f81b82828151811061265357fe5b60200101907effffffffffffffffffffffffffffffffffffffffffffffffffffffffffffff1916908160001a90535080806001019150506125f2565b50809150509392505050565b600073ffffffffffffffffffffffffffffffffffffffff163373ffffffffffffffffffffffffffffffffffffffff1614156126d257fe5b6127106040518060400160405280600b81526020017f73757065725f61646d696e00000000000000000000000000000000000000000081525061476d565b612782576040517f08c379a00000000000000000000000000000000000000000000000000000000081526004018080602001828103825260108152602001807f4f6e6c792073757065722061646d696e0000000000000000000000000000000081525060200191505060405180910390fd5b60008090505b825181101561283a5781818151811061279d57fe5b602002602001015160156127c38584815181106127b657fe5b60200260200101516149e9565b6040518082805190602001908083835b602083106127f657805182526020820191506020810190506020830392506127d3565b6001836020036101000a0380198251168184511680821785525050505050509050019150509081526020016040518091039020819055508080600101915050612788565b505050565b6000809054906101000a900473ffffffffffffffffffffffffffffffffffffffff1681565b6000809054906101000a900473ffffffffffffffffffffffffffffffffffffffff1673ffffffffffffffffffffffffffffffffffffffff163373ffffffffffffffffffffffffffffffffffffffff16146128ba57fe5b80600160006101000a81548173ffffffffffffffffffffffffffffffffffffffff021916908373ffffffffffffffffffffffffffffffffffffffff16021790555050565b6013602052816000526040600020818154811061291757fe5b90600052602060002001600091509150508054600181600116156101000203166002900480601f0160208091040260200160405190810160405280929190818152602001828054600181600116156101000203166002900480156129bc5780601f10612991576101008083540402835291602001916129bc565b820191906000526020600020905b81548152906001019060200180831161299f57829003601f168201915b505050505081565b601260008281526020019081526020016000206010601160008481526020019081526020016000206000815481106129f857fe5b906000526020600020016040518082805460018160011615610100020316600290048015612a5d5780601f10612a3b576101008083540402835291820191612a5d565b820191906000526020600020905b815481529060010190602001808311612a49575b5050915050908152602001604051809103902060009054906101000a900460f81b908060018154018082558091505090600182039060005260206000209060209182820401919006909192909190916101000a81548160ff021916908360f81c02179055505060126000828152602001908152602001600020601060116000848152602001908152602001600020600181548110612af757fe5b906000526020600020016040518082805460018160011615610100020316600290048015612b5c5780601f10612b3a576101008083540402835291820191612b5c565b820191906000526020600020905b815481529060010190602001808311612b48575b5050915050908152602001604051809103902060009054906101000a900460f81b908060018154018082558091505090600182039060005260206000209060209182820401919006909192909190916101000a81548160ff021916908360f81c02179055505060126000828152602001908152602001600020601060116000848152602001908152602001600020600281548110612bf657fe5b906000526020600020016040518082805460018160011615610100020316600290048015612c5b5780601f10612c39576101008083540402835291820191612c5b565b820191906000526020600020905b815481529060010190602001808311612c47575b5050915050908152602001604051809103902060009054906101000a900460f81b908060018154018082558091505090600182039060005260206000209060209182820401919006909192909190916101000a81548160ff021916908360f81c02179055505060126000828152602001908152602001600020601060116000848152602001908152602001600020600381548110612cf557fe5b906000526020600020016040518082805460018160011615610100020316600290048015612d5a5780601f10612d38576101008083540402835291820191612d5a565b820191906000526020600020905b815481529060010190602001808311612d46575b5050915050908152602001604051809103902060009054906101000a900460f81b908060018154018082558091505090600182039060005260206000209060209182820401919006909192909190916101000a81548160ff021916908360f81c02179055505060126000828152602001908152602001600020601060116000848152602001908152602001600020600481548110612df457fe5b906000526020600020016040518082805460018160011615610100020316600290048015612e595780601f10612e37576101008083540402835291820191612e59565b820191906000526020600020905b815481529060010190602001808311612e45575b5050915050908152602001604051809103902060009054906101000a900460f81b908060018154018082558091505090600182039060005260206000209060209182820401919006909192909190916101000a81548160ff021916908360f81c02179055505060126000828152602001908152602001600020601060116000848152602001908152602001600020600581548110612ef357fe5b906000526020600020016040518082805460018160011615610100020316600290048015612f585780601f10612f36576101008083540402835291820191612f58565b820191906000526020600020905b815481529060010190602001808311612f44575b5050915050908152602001604051809103902060009054906101000a900460f81b908060018154018082558091505090600182039060005260206000209060209182820401919006909192909190916101000a81548160ff021916908360f81c02179055505060126000828152602001908152602001600020601060116000848152602001908152602001600020600681548110612ff257fe5b9060005260206000200160405180828054600181600116156101000203166002900480156130575780601f10613035576101008083540402835291820191613057565b820191906000526020600020905b815481529060010190602001808311613043575b5050915050908152602001604051809103902060009054906101000a900460f81b908060018154018082558091505090600182039060005260206000209060209182820401919006909192909190916101000a81548160ff021916908360f81c021790555050601260008281526020019081526020016000206010601160008481526020019081526020016000206007815481106130f157fe5b9060005260206000200160405180828054600181600116156101000203166002900480156131565780601f10613134576101008083540402835291820191613156565b820191906000526020600020905b815481529060010190602001808311613142575b5050915050908152602001604051809103902060009054906101000a900460f81b908060018154018082558091505090600182039060005260206000209060209182820401919006909192909190916101000a81548160ff021916908360f81c021790555050601260008281526020019081526020016000206010601160008481526020019081526020016000206008815481106131f057fe5b9060005260206000200160405180828054600181600116156101000203166002900480156132555780601f10613233576101008083540402835291820191613255565b820191906000526020600020905b815481529060010190602001808311613241575b5050915050908152602001604051809103902060009054906101000a900460f81b908060018154018082558091505090600182039060005260206000209060209182820401919006909192909190916101000a81548160ff021916908360f81c021790555050601260008281526020019081526020016000206010601160008481526020019081526020016000206009815481106132ef57fe5b9060005260206000200160405180828054600181600116156101000203166002900480156133545780601f10613332576101008083540402835291820191613354565b820191906000526020600020905b815481529060010190602001808311613340575b5050915050908152602001604051809103902060009054906101000a900460f81b908060018154018082558091505090600182039060005260206000209060209182820401919006909192909190916101000a81548160ff021916908360f81c02179055505050565b600073ffffffffffffffffffffffffffffffffffffffff163373ffffffffffffffffffffffffffffffffffffffff1614156133f457fe5b6134326040518060400160405280600b81526020017f73757065725f61646d696e00000000000000000000000000000000000000000081525061476d565b6134a4576040517f08c379a00000000000000000000000000000000000000000000000000000000081526004018080602001828103825260108152602001807f4f6e6c792073757065722061646d696e0000000000000000000000000000000081525060200191505060405180910390fd5b7f3100000000000000000000000000000000000000000000000000000000000000601060405180807f30303030300000000000000000000000000000000000000000000000000000008152506005019050908152602001604051809103902060006101000a81548160ff021916908360f81c02179055507f3200000000000000000000000000000000000000000000000000000000000000601060405180807f30303030310000000000000000000000000000000000000000000000000000008152506005019050908152602001604051809103902060006101000a81548160ff021916908360f81c02179055507f3300000000000000000000000000000000000000000000000000000000000000601060405180807f30303031300000000000000000000000000000000000000000000000000000008152506005019050908152602001604051809103902060006101000a81548160ff021916908360f81c02179055507f3400000000000000000000000000000000000000000000000000000000000000601060405180807f30303031310000000000000000000000000000000000000000000000000000008152506005019050908152602001604051809103902060006101000a81548160ff021916908360f81c02179055507f3500000000000000000000000000000000000000000000000000000000000000601060405180807f30303130300000000000000000000000000000000000000000000000000000008152506005019050908152602001604051809103902060006101000a81548160ff021916908360f81c02179055507f3600000000000000000000000000000000000000000000000000000000000000601060405180807f30303130310000000000000000000000000000000000000000000000000000008152506005019050908152602001604051809103902060006101000a81548160ff021916908360f81c02179055507f3700000000000000000000000000000000000000000000000000000000000000601060405180807f30303131300000000000000000000000000000000000000000000000000000008152506005019050908152602001604051809103902060006101000a81548160ff021916908360f81c02179055507f3800000000000000000000000000000000000000000000000000000000000000601060405180807f30303131310000000000000000000000000000000000000000000000000000008152506005019050908152602001604051809103902060006101000a81548160ff021916908360f81c02179055507f3900000000000000000000000000000000000000000000000000000000000000601060405180807f30313030300000000000000000000000000000000000000000000000000000008152506005019050908152602001604051809103902060006101000a81548160ff021916908360f81c02179055507f6100000000000000000000000000000000000000000000000000000000000000601060405180807f30313030310000000000000000000000000000000000000000000000000000008152506005019050908152602001604051809103902060006101000a81548160ff021916908360f81c02179055507f6200000000000000000000000000000000000000000000000000000000000000601060405180807f30313031300000000000000000000000000000000000000000000000000000008152506005019050908152602001604051809103902060006101000a81548160ff021916908360f81c02179055507f6300000000000000000000000000000000000000000000000000000000000000601060405180807f30313031310000000000000000000000000000000000000000000000000000008152506005019050908152602001604051809103902060006101000a81548160ff021916908360f81c02179055507f6400000000000000000000000000000000000000000000000000000000000000601060405180807f30313130300000000000000000000000000000000000000000000000000000008152506005019050908152602001604051809103902060006101000a81548160ff021916908360f81c02179055507f6500000000000000000000000000000000000000000000000000000000000000601060405180807f30313130310000000000000000000000000000000000000000000000000000008152506005019050908152602001604051809103902060006101000a81548160ff021916908360f81c02179055507f6600000000000000000000000000000000000000000000000000000000000000601060405180807f30313131300000000000000000000000000000000000000000000000000000008152506005019050908152602001604051809103902060006101000a81548160ff021916908360f81c02179055507f6700000000000000000000000000000000000000000000000000000000000000601060405180807f30313131310000000000000000000000000000000000000000000000000000008152506005019050908152602001604051809103902060006101000a81548160ff021916908360f81c02179055507f6800000000000000000000000000000000000000000000000000000000000000601060405180807f31303030300000000000000000000000000000000000000000000000000000008152506005019050908152602001604051809103902060006101000a81548160ff021916908360f81c02179055507f6900000000000000000000000000000000000000000000000000000000000000601060405180807f31303030310000000000000000000000000000000000000000000000000000008152506005019050908152602001604051809103902060006101000a81548160ff021916908360f81c02179055507f6a00000000000000000000000000000000000000000000000000000000000000601060405180807f31303031300000000000000000000000000000000000000000000000000000008152506005019050908152602001604051809103902060006101000a81548160ff021916908360f81c02179055507f6b00000000000000000000000000000000000000000000000000000000000000601060405180807f31303031310000000000000000000000000000000000000000000000000000008152506005019050908152602001604051809103902060006101000a81548160ff021916908360f81c02179055507f6d00000000000000000000000000000000000000000000000000000000000000601060405180807f31303130300000000000000000000000000000000000000000000000000000008152506005019050908152602001604051809103902060006101000a81548160ff021916908360f81c02179055507f6e00000000000000000000000000000000000000000000000000000000000000601060405180807f31303130310000000000000000000000000000000000000000000000000000008152506005019050908152602001604051809103902060006101000a81548160ff021916908360f81c02179055507f6f00000000000000000000000000000000000000000000000000000000000000601060405180807f31303131300000000000000000000000000000000000000000000000000000008152506005019050908152602001604051809103902060006101000a81548160ff021916908360f81c02179055507f7000000000000000000000000000000000000000000000000000000000000000601060405180807f31303131310000000000000000000000000000000000000000000000000000008152506005019050908152602001604051809103902060006101000a81548160ff021916908360f81c02179055507f7100000000000000000000000000000000000000000000000000000000000000601060405180807f31313030300000000000000000000000000000000000000000000000000000008152506005019050908152602001604051809103902060006101000a81548160ff021916908360f81c02179055507f7200000000000000000000000000000000000000000000000000000000000000601060405180807f31313030310000000000000000000000000000000000000000000000000000008152506005019050908152602001604051809103902060006101000a81548160ff021916908360f81c02179055507f7300000000000000000000000000000000000000000000000000000000000000601060405180807f31313031300000000000000000000000000000000000000000000000000000008152506005019050908152602001604051809103902060006101000a81548160ff021916908360f81c02179055507f7400000000000000000000000000000000000000000000000000000000000000601060405180807f31313031310000000000000000000000000000000000000000000000000000008152506005019050908152602001604051809103902060006101000a81548160ff021916908360f81c02179055507f7500000000000000000000000000000000000000000000000000000000000000601060405180807f31313130300000000000000000000000000000000000000000000000000000008152506005019050908152602001604051809103902060006101000a81548160ff021916908360f81c02179055507f7600000000000000000000000000000000000000000000000000000000000000601060405180807f31313130310000000000000000000000000000000000000000000000000000008152506005019050908152602001604051809103902060006101000a81548160ff021916908360f81c02179055507f7700000000000000000000000000000000000000000000000000000000000000601060405180807f31313131300000000000000000000000000000000000000000000000000000008152506005019050908152602001604051809103902060006101000a81548160ff021916908360f81c02179055507f7800000000000000000000000000000000000000000000000000000000000000601060405180807f31313131310000000000000000000000000000000000000000000000000000008152506005019050908152602001604051809103902060006101000a81548160ff021916908360f81c0217905550565b6012602052816000526040600020818154811061439f57fe5b9060005260206000209060209182820401919006915091509054906101000a900460f81b81565b6015818051602081018201805184825260208301602085012081835280955050505050506000915090505481565b600160009054906101000a900473ffffffffffffffffffffffffffffffffffffffff1681565b6000809054906101000a900473ffffffffffffffffffffffffffffffffffffffff1673ffffffffffffffffffffffffffffffffffffffff163373ffffffffffffffffffffffffffffffffffffffff161461447057fe5b600073ffffffffffffffffffffffffffffffffffffffff168173ffffffffffffffffffffffffffffffffffffffff16146144e557806000806101000a81548173ffffffffffffffffffffffffffffffffffffffff021916908373ffffffffffffffffffffffffffffffffffffffff1602179055505b50565b6010818051602081018201805184825260208301602085012081835280955050505050506000915054906101000a900460f81b81565b60608060f06040519080825280601f01601f1916602001820160405280156145555781602001600182028038833980820191505090505b50905060008090505b60f08110156146225760016002858161457357fe5b061461459f577f30000000000000000000000000000000000000000000000000000000000000006145c1565b7f31000000000000000000000000000000000000000000000000000000000000005b828260ef03815181106145d057fe5b60200101907effffffffffffffffffffffffffffffffffffffffffffffffffffffffffffff1916908160001a90535061461360028561475490919063ffffffff16565b9350808060010191505061455e565b5080915050919050565b600073ffffffffffffffffffffffffffffffffffffffff163373ffffffffffffffffffffffffffffffffffffffff16141561466357fe5b6146a16040518060400160405280600b81526020017f73757065725f61646d696e00000000000000000000000000000000000000000081525061476d565b614713576040517f08c379a00000000000000000000000000000000000000000000000000000000081526004018080602001828103825260108152602001807f4f6e6c792073757065722061646d696e0000000000000000000000000000000081525060200191505060405180910390fd5b8060148190555050565b600080831415614730576000905061474e565b600082840290508284828161474157fe5b041461474957fe5b809150505b92915050565b60008082848161476057fe5b0490508091505092915050565b6000600160009054906101000a900473ffffffffffffffffffffffffffffffffffffffff1673ffffffffffffffffffffffffffffffffffffffff1663358177736040518060400160405280600681526020017f526f6c65444200000000000000000000000000000000000000000000000000008152506040518263ffffffff1660e01b81526004018080602001828103825283818151815260200191508051906020019080838360005b83811015614832578082015181840152602081019050614817565b50505050905090810190601f16801561485f5780820380516001836020036101000a031916815260200191505b509250505060206040518083038186803b15801561487c57600080fd5b505afa158015614890573d6000803e3d6000fd5b505050506040513d60208110156148a657600080fd5b810190808051906020019092919050505073ffffffffffffffffffffffffffffffffffffffff16636c9cd097836148db614af0565b6040518363ffffffff1660e01b815260040180806020018373ffffffffffffffffffffffffffffffffffffffff1673ffffffffffffffffffffffffffffffffffffffff168152602001828103825284818151815260200191508051906020019080838360005b8381101561495c578082015181840152602081019050614941565b50505050905090810190601f1680156149895780820380516001836020036101000a031916815260200191505b50935050505060206040518083038186803b1580156149a757600080fd5b505afa1580156149bb573d6000803e3d6000fd5b505050506040513d60208110156149d157600080fd5b81019080805190602001909291905050509050919050565b60608060206040519080825280601f01601f191660200182016040528015614a205781602001600182028038833980820191505090505b50905060005b6020811015614a8757838160208110614a3b57fe5b1a60f81b828281518110614a4b57fe5b60200101907effffffffffffffffffffffffffffffffffffffffffffffffffffffffffffff1916908160001a9053508080600101915050614a26565b5080915050919050565b60006060839050600081511415614aaf57600060f81b915050614ab7565b828401519150505b92915050565b600082821115614ac957fe5b818303905092915050565b600080828401905083811015614ae657fe5b8091505092915050565b6000600160009054906101000a900473ffffffffffffffffffffffffffffffffffffffff1673ffffffffffffffffffffffffffffffffffffffff163373ffffffffffffffffffffffffffffffffffffffff1614614b4f57339050614ba2565b6000601436036000602052601481602c37602051915050600073ffffffffffffffffffffffffffffffffffffffff168173ffffffffffffffffffffffffffffffffffffffff161415614b9d57fe5b809150505b90565b828054600181600116156101000203166002900490600052602060002090601f016020900481019282601f10614bde5780548555614c1b565b82800160010185558215614c1b57600052602060002091601f016020900482015b82811115614c1a578254825591600101919060010190614bff565b5b509050614c289190614cac565b5090565b828054600181600116156101000203166002900490600052602060002090601f016020900481019282601f10614c6d57805160ff1916838001178555614c9b565b82800160010185558215614c9b579182015b82811115614c9a578251825591602001919060010190614c7f565b5b509050614ca89190614cac565b5090565b614cce91905b80821115614cca576000816000905550600101614cb2565b5090565b9056fea265627a7a7231582012ad31c441ec21f280b5fda1f32559f3943fc818605b223482b9b9839bc47e8064736f6c63430005110032",
  "source": "pragma solidity ^0.5.5;\r\n\r\nimport \"../../../libs/SafeMath.sol\";\r\nimport \"./KittiesCattributesDB.sol\";\r\nimport \"./CattributesScoresDB.sol\";\r\n\r\n/**\r\n * @title This contract is responsible to calculate the rarity level of a kitty \r\n * @author @ziweidream\r\n */\r\n// can only partially implement safe math in this contract due to compilation error of stack too deep\r\ncontract Rarity is KittiesCattributesDB, CattributesScoresDB {\r\n    using SafeMath for uint256;\r\n\r\n    /**\r\n     * @author @ziweidream\r\n     * @notice calculate a kitty's rarity based on its cattributes\r\n     * @return the rarity of a kittie as an integer\r\n     */\r\n\r\n    function calculateRarity(uint256 kittieId)\r\n       public\r\n       view\r\n       returns (uint256 rarity)\r\n    {\r\n      rarity = (CattributesScores[kittiesDominantCattributes[kittieId][0]]\r\n                + CattributesScores[kittiesDominantCattributes[kittieId][1]]\r\n                + CattributesScores[kittiesDominantCattributes[kittieId][2]]\r\n                + CattributesScores[kittiesDominantCattributes[kittieId][3]]\r\n                + CattributesScores[kittiesDominantCattributes[kittieId][4]]\r\n                + CattributesScores[kittiesDominantCattributes[kittieId][5]]\r\n                + CattributesScores[kittiesDominantCattributes[kittieId][6]]\r\n                + CattributesScores[kittiesDominantCattributes[kittieId][8]]).mul(100000000).div(totalKitties);\r\n    }\r\n}",
  "sourcePath": "C:\\Users\\Alex\\Desktop\\MyProjects\\contracts\\contracts\\modules\\algorithm\\RarityCalculationDBs\\Rarity.sol",
  "compiler": {
    "name": "solc",
    "version": "0.5.17+commit.d19bba13.Emscripten.clang"
  },
  "schemaVersion": "3.0.11",
  "updatedAt": "2020-05-09T18:07:17.509Z",
  "devdoc": {
    "author": "@ziweidream",
    "methods": {
      "binaryToKai(uint256)": {
        "author": "@ziweidream"
      },
      "calculateRarity(uint256)": {
        "author": "@ziweidream",
        "return": "the rarity of a kittie as an integer"
      },
      "fillKaiValue()": {
        "author": "@ziweidream"
      },
      "getDominantGeneBinary(uint256,uint256)": {
        "author": "@ziweidream"
      },
      "getSlice(uint256,uint256,string)": {
        "author": "@ziweidream"
      },
      "kaiToCattribute(uint256)": {
        "author": "@ziweidream"
      },
      "toBinaryString(uint256)": {
        "author": "@ziweidream",
        "params": {
          "n": "the integer to be converted"
        },
        "return": "the binary"
      },
      "updateCattributesScores(bytes32[],uint256[])": {
        "author": "@ziweidream @Xale",
        "details": "this db needs to beupdated periodically.https://api.cryptokitties.co/cattributes",
        "params": {
          "_name": "the cattribute's name",
          "_score": "the cattribute's score"
        }
      }
    },
    "title": "This contract is responsible to calculate the rarity level of a kitty "
  },
  "userdoc": {
    "methods": {
      "binaryToKai(uint256)": {
        "notice": "converts binary to its corresponding kai notationonly dominant genes are kept since kitties only demonstrate cattributes from dominant genes."
      },
      "calculateRarity(uint256)": {
        "notice": "calculate a kitty's rarity based on its cattributes"
      },
      "fillKaiValue()": {
        "notice": "mapping a gene in binary with its kai notation"
      },
      "getDominantGeneBinary(uint256,uint256)": {
        "notice": "converts the gene in uint of a kitty to binary.only dominant genes are kept since kitties only demonstrate cattributes from dominant genes."
      },
      "getSlice(uint256,uint256,string)": {
        "notice": "gets slice of a string"
      },
      "kaiToCattribute(uint256)": {
        "notice": "converts kai notation to its corresponding cattribute"
      },
      "setProxy(address)": {
        "notice": "Set/update address of Proxy contract"
      },
      "toBinaryString(uint256)": {
        "notice": "converts an integer to its binary"
      },
      "updateCattributesScores(bytes32[],uint256[])": {
        "notice": "mapping a cattribute with its score"
      }
    }
  }
}