{
  "contractName": "Register",
  "abi": [
    {
      "constant": true,
      "inputs": [],
      "name": "roleDB",
      "outputs": [
        {
          "name": "",
          "type": "address"
        }
      ],
      "payable": false,
      "stateMutability": "view",
      "type": "function"
    },
    {
      "constant": true,
      "inputs": [],
      "name": "kittieFightToken",
      "outputs": [
        {
          "name": "",
          "type": "address"
        }
      ],
      "payable": false,
      "stateMutability": "view",
      "type": "function"
    },
    {
      "constant": true,
      "inputs": [],
      "name": "owner",
      "outputs": [
        {
          "name": "",
          "type": "address"
        }
      ],
      "payable": false,
      "stateMutability": "view",
      "type": "function"
    },
    {
      "constant": false,
      "inputs": [
        {
          "name": "_proxy",
          "type": "address"
        }
      ],
      "name": "setProxy",
      "outputs": [],
      "payable": false,
      "stateMutability": "nonpayable",
      "type": "function"
    },
    {
      "constant": true,
      "inputs": [],
      "name": "profileDB",
      "outputs": [
        {
          "name": "",
          "type": "address"
        }
      ],
      "payable": false,
      "stateMutability": "view",
      "type": "function"
    },
    {
      "constant": true,
      "inputs": [],
      "name": "superDaoToken",
      "outputs": [
        {
          "name": "",
          "type": "address"
        }
      ],
      "payable": false,
      "stateMutability": "view",
      "type": "function"
    },
    {
      "constant": true,
      "inputs": [],
      "name": "proxy",
      "outputs": [
        {
          "name": "",
          "type": "address"
        }
      ],
      "payable": false,
      "stateMutability": "view",
      "type": "function"
    },
    {
      "constant": true,
      "inputs": [],
      "name": "cryptoKitties",
      "outputs": [
        {
          "name": "",
          "type": "address"
        }
      ],
      "payable": false,
      "stateMutability": "view",
      "type": "function"
    },
    {
      "constant": false,
      "inputs": [
        {
          "name": "newOwner",
          "type": "address"
        }
      ],
      "name": "transferOwnership",
      "outputs": [],
      "payable": false,
      "stateMutability": "nonpayable",
      "type": "function"
    },
    {
      "constant": false,
      "inputs": [],
      "name": "initialize",
      "outputs": [],
      "payable": false,
      "stateMutability": "nonpayable",
      "type": "function"
    },
    {
      "constant": false,
      "inputs": [],
      "name": "register",
      "outputs": [
        {
          "name": "",
          "type": "bool"
        }
      ],
      "payable": false,
      "stateMutability": "nonpayable",
      "type": "function"
    },
    {
      "constant": false,
      "inputs": [
        {
          "name": "civicId",
          "type": "uint256"
        }
      ],
      "name": "verifyAccount",
      "outputs": [
        {
          "name": "",
          "type": "bool"
        }
      ],
      "payable": false,
      "stateMutability": "nonpayable",
      "type": "function"
    },
    {
      "constant": false,
      "inputs": [
        {
          "name": "account",
          "type": "address"
        },
        {
          "name": "to",
          "type": "address"
        },
        {
          "name": "amount",
          "type": "uint256"
        }
      ],
      "name": "sendTokensTo",
      "outputs": [
        {
          "name": "",
          "type": "bool"
        }
      ],
      "payable": false,
      "stateMutability": "nonpayable",
      "type": "function"
    },
    {
      "constant": false,
      "inputs": [
        {
          "name": "account",
          "type": "address"
        },
        {
          "name": "amount",
          "type": "uint256"
        }
      ],
      "name": "exchangeTokensForEth",
      "outputs": [
        {
          "name": "",
          "type": "bool"
        }
      ],
      "payable": false,
      "stateMutability": "nonpayable",
      "type": "function"
    },
    {
      "constant": false,
      "inputs": [
        {
          "name": "account",
          "type": "address"
        },
        {
          "name": "amount",
          "type": "uint256"
        }
      ],
      "name": "stakeSuperDAO",
      "outputs": [
        {
          "name": "",
          "type": "bool"
        }
      ],
      "payable": false,
      "stateMutability": "nonpayable",
      "type": "function"
    },
    {
      "constant": false,
      "inputs": [
        {
          "name": "account",
          "type": "address"
        },
        {
          "name": "amount",
          "type": "uint256"
        }
      ],
      "name": "lockTokens",
      "outputs": [
        {
          "name": "",
          "type": "bool"
        }
      ],
      "payable": false,
      "stateMutability": "nonpayable",
      "type": "function"
    },
    {
      "constant": false,
      "inputs": [
        {
          "name": "account",
          "type": "address"
        },
        {
          "name": "amount",
          "type": "uint256"
        }
      ],
      "name": "releaseTokens",
      "outputs": [
        {
          "name": "",
          "type": "bool"
        }
      ],
      "payable": false,
      "stateMutability": "nonpayable",
      "type": "function"
    },
    {
      "constant": true,
      "inputs": [
        {
          "name": "account",
          "type": "address"
        }
      ],
      "name": "isRegistered",
      "outputs": [
        {
          "name": "",
          "type": "bool"
        }
      ],
      "payable": false,
      "stateMutability": "view",
      "type": "function"
    }
  ],
  "bytecode": "0x6080604052336000806101000a81548173ffffffffffffffffffffffffffffffffffffffff021916908373ffffffffffffffffffffffffffffffffffffffff16021790555061265d806100536000396000f3fe608060405234801561001057600080fd5b50600436106101165760003560e01c8063b1c25586116100a2578063e36339e711610071578063e36339e7146104f1578063ec55688914610557578063ef410f45146105a1578063f2fde38b146105eb578063f40d71f11461062f57610116565b8063b1c255861461039b578063c3c5a54714610401578063cd6f43a61461045d578063d8717bc7146104a757610116565b80638129fc1c116100e95780638129fc1c146102375780638da5cb5b1461024157806397107d6d1461028b5780639894bf63146102cf578063a731374d1461035557610116565b80630541342d1461011b5780631aa3a008146101815780632282802d146101a357806363c0c46e146101ed575b600080fd5b6101676004803603604081101561013157600080fd5b81019080803573ffffffffffffffffffffffffffffffffffffffff16906020019092919080359060200190929190505050610695565b604051808215151515815260200191505060405180910390f35b6101896108a5565b604051808215151515815260200191505060405180910390f35b6101ab6109bc565b604051808273ffffffffffffffffffffffffffffffffffffffff1673ffffffffffffffffffffffffffffffffffffffff16815260200191505060405180910390f35b6101f56109e2565b604051808273ffffffffffffffffffffffffffffffffffffffff1673ffffffffffffffffffffffffffffffffffffffff16815260200191505060405180910390f35b61023f610a08565b005b6102496110cd565b604051808273ffffffffffffffffffffffffffffffffffffffff1673ffffffffffffffffffffffffffffffffffffffff16815260200191505060405180910390f35b6102cd600480360360208110156102a157600080fd5b81019080803573ffffffffffffffffffffffffffffffffffffffff1690602001909291905050506110f2565b005b61033b600480360360608110156102e557600080fd5b81019080803573ffffffffffffffffffffffffffffffffffffffff169060200190929190803573ffffffffffffffffffffffffffffffffffffffff1690602001909291908035906020019092919050505061118c565b604051808215151515815260200191505060405180910390f35b6103816004803603602081101561036b57600080fd5b81019080803590602001909291905050506112c2565b604051808215151515815260200191505060405180910390f35b6103e7600480360360408110156103b157600080fd5b81019080803573ffffffffffffffffffffffffffffffffffffffff169060200190929190803590602001909291905050506114ca565b604051808215151515815260200191505060405180910390f35b6104436004803603602081101561041757600080fd5b81019080803573ffffffffffffffffffffffffffffffffffffffff1690602001909291905050506117be565b604051808215151515815260200191505060405180910390f35b6104656118a1565b604051808273ffffffffffffffffffffffffffffffffffffffff1673ffffffffffffffffffffffffffffffffffffffff16815260200191505060405180910390f35b6104af6118c7565b604051808273ffffffffffffffffffffffffffffffffffffffff1673ffffffffffffffffffffffffffffffffffffffff16815260200191505060405180910390f35b61053d6004803603604081101561050757600080fd5b81019080803573ffffffffffffffffffffffffffffffffffffffff169060200190929190803590602001909291905050506118ed565b604051808215151515815260200191505060405180910390f35b61055f611b50565b604051808273ffffffffffffffffffffffffffffffffffffffff1673ffffffffffffffffffffffffffffffffffffffff16815260200191505060405180910390f35b6105a9611b76565b604051808273ffffffffffffffffffffffffffffffffffffffff1673ffffffffffffffffffffffffffffffffffffffff16815260200191505060405180910390f35b61062d6004803603602081101561060157600080fd5b81019080803573ffffffffffffffffffffffffffffffffffffffff169060200190929190505050611b9c565b005b61067b6004803603604081101561064557600080fd5b81019080803573ffffffffffffffffffffffffffffffffffffffff16906020019092919080359060200190929190505050611c6a565b604051808215151515815260200191505060405180910390f35b600061069f611f37565b600082116106ac57600080fd5b600660009054906101000a900473ffffffffffffffffffffffffffffffffffffffff1673ffffffffffffffffffffffffffffffffffffffff166323b872dd8430856040518463ffffffff1660e01b8152600401808473ffffffffffffffffffffffffffffffffffffffff1673ffffffffffffffffffffffffffffffffffffffff1681526020018373ffffffffffffffffffffffffffffffffffffffff1673ffffffffffffffffffffffffffffffffffffffff1681526020018281526020019350505050602060405180830381600087803b15801561078957600080fd5b505af115801561079d573d6000803e3d6000fd5b505050506040513d60208110156107b357600080fd5b81019080805190602001909291905050506107cd57600080fd5b600260009054906101000a900473ffffffffffffffffffffffffffffffffffffffff1673ffffffffffffffffffffffffffffffffffffffff1663c65afe08848460016040518463ffffffff1660e01b8152600401808473ffffffffffffffffffffffffffffffffffffffff1673ffffffffffffffffffffffffffffffffffffffff168152602001838152602001821515151581526020019350505050600060405180830381600087803b15801561088357600080fd5b505af1158015610897573d6000803e3d6000fd5b505050506001905092915050565b60006108af611f37565b600260009054906101000a900473ffffffffffffffffffffffffffffffffffffffff1673ffffffffffffffffffffffffffffffffffffffff16639ed933186108f56120c1565b6040518263ffffffff1660e01b8152600401808273ffffffffffffffffffffffffffffffffffffffff1673ffffffffffffffffffffffffffffffffffffffff168152602001915050600060405180830381600087803b15801561095757600080fd5b505af115801561096b573d6000803e3d6000fd5b505050506109b561097a6120c1565b6040518060400160405280600681526020017f626574746f720000000000000000000000000000000000000000000000000000815250612176565b6001905090565b600360009054906101000a900473ffffffffffffffffffffffffffffffffffffffff1681565b600560009054906101000a900473ffffffffffffffffffffffffffffffffffffffff1681565b6000809054906101000a900473ffffffffffffffffffffffffffffffffffffffff1673ffffffffffffffffffffffffffffffffffffffff163373ffffffffffffffffffffffffffffffffffffffff1614610a5e57fe5b600160009054906101000a900473ffffffffffffffffffffffffffffffffffffffff1673ffffffffffffffffffffffffffffffffffffffff1663358177736040518060400160405280600981526020017f50726f66696c65444200000000000000000000000000000000000000000000008152506040518263ffffffff1660e01b81526004018080602001828103825283818151815260200191508051906020019080838360005b83811015610b21578082015181840152602081019050610b06565b50505050905090810190601f168015610b4e5780820380516001836020036101000a031916815260200191505b509250505060206040518083038186803b158015610b6b57600080fd5b505afa158015610b7f573d6000803e3d6000fd5b505050506040513d6020811015610b9557600080fd5b8101908080519060200190929190505050600260006101000a81548173ffffffffffffffffffffffffffffffffffffffff021916908373ffffffffffffffffffffffffffffffffffffffff160217905550600160009054906101000a900473ffffffffffffffffffffffffffffffffffffffff1673ffffffffffffffffffffffffffffffffffffffff1663358177736040518060400160405280600681526020017f526f6c65444200000000000000000000000000000000000000000000000000008152506040518263ffffffff1660e01b81526004018080602001828103825283818151815260200191508051906020019080838360005b83811015610ca9578082015181840152602081019050610c8e565b50505050905090810190601f168015610cd65780820380516001836020036101000a031916815260200191505b509250505060206040518083038186803b158015610cf357600080fd5b505afa158015610d07573d6000803e3d6000fd5b505050506040513d6020811015610d1d57600080fd5b8101908080519060200190929190505050600360006101000a81548173ffffffffffffffffffffffffffffffffffffffff021916908373ffffffffffffffffffffffffffffffffffffffff160217905550600160009054906101000a900473ffffffffffffffffffffffffffffffffffffffff1673ffffffffffffffffffffffffffffffffffffffff1663358177736040518163ffffffff1660e01b815260040180806020018281038252600d8152602001807f43727970746f4b6974746965730000000000000000000000000000000000000081525060200191505060206040518083038186803b158015610e1257600080fd5b505afa158015610e26573d6000803e3d6000fd5b505050506040513d6020811015610e3c57600080fd5b8101908080519060200190929190505050600460006101000a81548173ffffffffffffffffffffffffffffffffffffffff021916908373ffffffffffffffffffffffffffffffffffffffff160217905550600160009054906101000a900473ffffffffffffffffffffffffffffffffffffffff1673ffffffffffffffffffffffffffffffffffffffff1663358177736040518163ffffffff1660e01b81526004018080602001828103825260108152602001807f4b69747469654669676874546f6b656e0000000000000000000000000000000081525060200191505060206040518083038186803b158015610f3157600080fd5b505afa158015610f45573d6000803e3d6000fd5b505050506040513d6020811015610f5b57600080fd5b8101908080519060200190929190505050600560006101000a81548173ffffffffffffffffffffffffffffffffffffffff021916908373ffffffffffffffffffffffffffffffffffffffff160217905550600160009054906101000a900473ffffffffffffffffffffffffffffffffffffffff1673ffffffffffffffffffffffffffffffffffffffff1663358177736040518163ffffffff1660e01b815260040180806020018281038252600d8152602001807f537570657244414f546f6b656e0000000000000000000000000000000000000081525060200191505060206040518083038186803b15801561105057600080fd5b505afa158015611064573d6000803e3d6000fd5b505050506040513d602081101561107a57600080fd5b8101908080519060200190929190505050600660006101000a81548173ffffffffffffffffffffffffffffffffffffffff021916908373ffffffffffffffffffffffffffffffffffffffff160217905550565b6000809054906101000a900473ffffffffffffffffffffffffffffffffffffffff1681565b6000809054906101000a900473ffffffffffffffffffffffffffffffffffffffff1673ffffffffffffffffffffffffffffffffffffffff163373ffffffffffffffffffffffffffffffffffffffff161461114857fe5b80600160006101000a81548173ffffffffffffffffffffffffffffffffffffffff021916908373ffffffffffffffffffffffffffffffffffffffff16021790555050565b6000611196611f37565b600560009054906101000a900473ffffffffffffffffffffffffffffffffffffffff1673ffffffffffffffffffffffffffffffffffffffff166323b872dd8585856040518463ffffffff1660e01b8152600401808473ffffffffffffffffffffffffffffffffffffffff1673ffffffffffffffffffffffffffffffffffffffff1681526020018373ffffffffffffffffffffffffffffffffffffffff1673ffffffffffffffffffffffffffffffffffffffff1681526020018281526020019350505050602060405180830381600087803b15801561127357600080fd5b505af1158015611287573d6000803e3d6000fd5b505050506040513d602081101561129d57600080fd5b81019080805190602001909291905050506112b757600080fd5b600190509392505050565b60006112cc611f37565b600073ffffffffffffffffffffffffffffffffffffffff163373ffffffffffffffffffffffffffffffffffffffff16141561130357fe5b6113416040518060400160405280600681526020017f626574746f720000000000000000000000000000000000000000000000000000815250612342565b6113b3576040517f08c379a000000000000000000000000000000000000000000000000000000000815260040180806020018281038252600b8152602001807f4f6e6c7920626574746f7200000000000000000000000000000000000000000081525060200191505060405180910390fd5b600260009054906101000a900473ffffffffffffffffffffffffffffffffffffffff1673ffffffffffffffffffffffffffffffffffffffff1663190824dc6113f96120c1565b846040518363ffffffff1660e01b8152600401808373ffffffffffffffffffffffffffffffffffffffff1673ffffffffffffffffffffffffffffffffffffffff16815260200182815260200192505050600060405180830381600087803b15801561146357600080fd5b505af1158015611477573d6000803e3d6000fd5b505050506114c16114866120c1565b6040518060400160405280600681526020017f706c617965720000000000000000000000000000000000000000000000000000815250612176565b60019050919050565b60006114d4611f37565b600082116114e157600080fd5b6000600260009054906101000a900473ffffffffffffffffffffffffffffffffffffffff1673ffffffffffffffffffffffffffffffffffffffff16635b40b48a856040518263ffffffff1660e01b8152600401808273ffffffffffffffffffffffffffffffffffffffff1673ffffffffffffffffffffffffffffffffffffffff16815260200191505060206040518083038186803b15801561158257600080fd5b505afa158015611596573d6000803e3d6000fd5b505050506040513d60208110156115ac57600080fd5b81019080805190602001909291905050509050600560009054906101000a900473ffffffffffffffffffffffffffffffffffffffff1673ffffffffffffffffffffffffffffffffffffffff166323b872dd8530866040518463ffffffff1660e01b8152600401808473ffffffffffffffffffffffffffffffffffffffff1673ffffffffffffffffffffffffffffffffffffffff1681526020018373ffffffffffffffffffffffffffffffffffffffff1673ffffffffffffffffffffffffffffffffffffffff1681526020018281526020019350505050602060405180830381600087803b15801561169c57600080fd5b505af11580156116b0573d6000803e3d6000fd5b505050506040513d60208110156116c657600080fd5b81019080805190602001909291905050506116e057600080fd5b600260009054906101000a900473ffffffffffffffffffffffffffffffffffffffff1673ffffffffffffffffffffffffffffffffffffffff16631eac29ea8561173286856125be90919063ffffffff16565b6040518363ffffffff1660e01b8152600401808373ffffffffffffffffffffffffffffffffffffffff1673ffffffffffffffffffffffffffffffffffffffff16815260200182815260200192505050600060405180830381600087803b15801561179b57600080fd5b505af11580156117af573d6000803e3d6000fd5b50505050600191505092915050565b6000600260009054906101000a900473ffffffffffffffffffffffffffffffffffffffff1673ffffffffffffffffffffffffffffffffffffffff166352a102ca836040518263ffffffff1660e01b8152600401808273ffffffffffffffffffffffffffffffffffffffff1673ffffffffffffffffffffffffffffffffffffffff16815260200191505060206040518083038186803b15801561185f57600080fd5b505afa158015611873573d6000803e3d6000fd5b505050506040513d602081101561188957600080fd5b81019080805190602001909291905050509050919050565b600260009054906101000a900473ffffffffffffffffffffffffffffffffffffffff1681565b600660009054906101000a900473ffffffffffffffffffffffffffffffffffffffff1681565b60006118f7611f37565b6000600190506000831161190a57600080fd5b600560009054906101000a900473ffffffffffffffffffffffffffffffffffffffff1673ffffffffffffffffffffffffffffffffffffffff166323b872dd8530866040518463ffffffff1660e01b8152600401808473ffffffffffffffffffffffffffffffffffffffff1673ffffffffffffffffffffffffffffffffffffffff1681526020018373ffffffffffffffffffffffffffffffffffffffff1673ffffffffffffffffffffffffffffffffffffffff1681526020018281526020019350505050602060405180830381600087803b1580156119e757600080fd5b505af11580156119fb573d6000803e3d6000fd5b505050506040513d6020811015611a1157600080fd5b8101908080519060200190929190505050611a2b57600080fd5b8373ffffffffffffffffffffffffffffffffffffffff166108fc611a5883866125da90919063ffffffff16565b9081150290604051600060405180830381858888f19350505050158015611a83573d6000803e3d6000fd5b50600260009054906101000a900473ffffffffffffffffffffffffffffffffffffffff1673ffffffffffffffffffffffffffffffffffffffff16631eac29ea85856040518363ffffffff1660e01b8152600401808373ffffffffffffffffffffffffffffffffffffffff1673ffffffffffffffffffffffffffffffffffffffff16815260200182815260200192505050600060405180830381600087803b158015611b2d57600080fd5b505af1158015611b41573d6000803e3d6000fd5b50505050600191505092915050565b600160009054906101000a900473ffffffffffffffffffffffffffffffffffffffff1681565b600460009054906101000a900473ffffffffffffffffffffffffffffffffffffffff1681565b6000809054906101000a900473ffffffffffffffffffffffffffffffffffffffff1673ffffffffffffffffffffffffffffffffffffffff163373ffffffffffffffffffffffffffffffffffffffff1614611bf257fe5b600073ffffffffffffffffffffffffffffffffffffffff168173ffffffffffffffffffffffffffffffffffffffff1614611c6757806000806101000a81548173ffffffffffffffffffffffffffffffffffffffff021916908373ffffffffffffffffffffffffffffffffffffffff1602179055505b50565b6000611c74611f37565b60008211611c8157600080fd5b6000600260009054906101000a900473ffffffffffffffffffffffffffffffffffffffff1673ffffffffffffffffffffffffffffffffffffffff16635b40b48a856040518263ffffffff1660e01b8152600401808273ffffffffffffffffffffffffffffffffffffffff1673ffffffffffffffffffffffffffffffffffffffff16815260200191505060206040518083038186803b158015611d2257600080fd5b505afa158015611d36573d6000803e3d6000fd5b505050506040513d6020811015611d4c57600080fd5b8101908080519060200190929190505050905082811015611d6c57600080fd5b600260009054906101000a900473ffffffffffffffffffffffffffffffffffffffff1673ffffffffffffffffffffffffffffffffffffffff16631eac29ea85611dbe868561261190919063ffffffff16565b6040518363ffffffff1660e01b8152600401808373ffffffffffffffffffffffffffffffffffffffff1673ffffffffffffffffffffffffffffffffffffffff16815260200182815260200192505050600060405180830381600087803b158015611e2757600080fd5b505af1158015611e3b573d6000803e3d6000fd5b50505050600560009054906101000a900473ffffffffffffffffffffffffffffffffffffffff1673ffffffffffffffffffffffffffffffffffffffff1663a9059cbb85856040518363ffffffff1660e01b8152600401808373ffffffffffffffffffffffffffffffffffffffff1673ffffffffffffffffffffffffffffffffffffffff16815260200182815260200192505050602060405180830381600087803b158015611ee857600080fd5b505af1158015611efc573d6000803e3d6000fd5b505050506040513d6020811015611f1257600080fd5b8101908080519060200190929190505050611f2c57600080fd5b600191505092915050565b600073ffffffffffffffffffffffffffffffffffffffff16600160009054906101000a900473ffffffffffffffffffffffffffffffffffffffff1673ffffffffffffffffffffffffffffffffffffffff161415611ffc576040517f08c379a00000000000000000000000000000000000000000000000000000000081526004018080602001828103825260088152602001807f4e6f2050726f787900000000000000000000000000000000000000000000000081525060200191505060405180910390fd5b600160009054906101000a900473ffffffffffffffffffffffffffffffffffffffff1673ffffffffffffffffffffffffffffffffffffffff163373ffffffffffffffffffffffffffffffffffffffff16146120bf576040517f08c379a00000000000000000000000000000000000000000000000000000000081526004018080602001828103825260128152602001807f4f6e6c79207468726f7567682050726f7879000000000000000000000000000081525060200191505060405180910390fd5b565b6000600160009054906101000a900473ffffffffffffffffffffffffffffffffffffffff1673ffffffffffffffffffffffffffffffffffffffff163373ffffffffffffffffffffffffffffffffffffffff161461212057339050612173565b6000601436036000602052601481602c37602051915050600073ffffffffffffffffffffffffffffffffffffffff168173ffffffffffffffffffffffffffffffffffffffff16141561216e57fe5b809150505b90565b600360009054906101000a900473ffffffffffffffffffffffffffffffffffffffff1673ffffffffffffffffffffffffffffffffffffffff1663274b65f06040518060400160405280600881526020017f526567697374657200000000000000000000000000000000000000000000000081525083856040518463ffffffff1660e01b81526004018080602001806020018473ffffffffffffffffffffffffffffffffffffffff1673ffffffffffffffffffffffffffffffffffffffff168152602001838103835286818151815260200191508051906020019080838360005b83811015612271578082015181840152602081019050612256565b50505050905090810190601f16801561229e5780820380516001836020036101000a031916815260200191505b50838103825285818151815260200191508051906020019080838360005b838110156122d75780820151818401526020810190506122bc565b50505050905090810190601f1680156123045780820380516001836020036101000a031916815260200191505b5095505050505050600060405180830381600087803b15801561232657600080fd5b505af115801561233a573d6000803e3d6000fd5b505050505050565b6000600160009054906101000a900473ffffffffffffffffffffffffffffffffffffffff1673ffffffffffffffffffffffffffffffffffffffff1663358177736040518060400160405280600681526020017f526f6c65444200000000000000000000000000000000000000000000000000008152506040518263ffffffff1660e01b81526004018080602001828103825283818151815260200191508051906020019080838360005b838110156124075780820151818401526020810190506123ec565b50505050905090810190601f1680156124345780820380516001836020036101000a031916815260200191505b509250505060206040518083038186803b15801561245157600080fd5b505afa158015612465573d6000803e3d6000fd5b505050506040513d602081101561247b57600080fd5b810190808051906020019092919050505073ffffffffffffffffffffffffffffffffffffffff16636c9cd097836124b06120c1565b6040518363ffffffff1660e01b815260040180806020018373ffffffffffffffffffffffffffffffffffffffff1673ffffffffffffffffffffffffffffffffffffffff168152602001828103825284818151815260200191508051906020019080838360005b83811015612531578082015181840152602081019050612516565b50505050905090810190601f16801561255e5780820380516001836020036101000a031916815260200191505b50935050505060206040518083038186803b15801561257c57600080fd5b505afa158015612590573d6000803e3d6000fd5b505050506040513d60208110156125a657600080fd5b81019080805190602001909291905050509050919050565b6000808284019050838110156125d057fe5b8091505092915050565b6000808314156125ed576000905061260b565b60008284029050828482816125fe57fe5b041461260657fe5b809150505b92915050565b60008282111561261d57fe5b81830390509291505056fea265627a7a72305820eb5f4479b55085ae4c47fac2dd4337510157e847af4df56c346048c51485dbc764736f6c634300050a0032",
  "source": "// This program is free software: you can redistribute it and/or modify\n// it under the terms of the GNU General Public License as published by\n// the Free Software Foundation, either version 3 of the License, or\n// (at your option) any later version.\n\n// This program is distributed in the hope that it will be useful,\n// but WITHOUT ANY WARRANTY; without even the implied warranty of\n// MERCHANTABILITY or FITNESS FOR A PARTICULAR PURPOSE.  See the\n// GNU General Public License for more details.\n\n// You should have received a copy of the GNU General Public License\n// along with this program.  If not, see <http://www.gnu.org/licenses/>.\npragma solidity ^0.5.5;\n\nimport \"../../libs/SafeMath.sol\";\nimport \"../../authority/SystemRoles.sol\";\nimport \"../databases/ProfileDB.sol\";\nimport \"../databases/RoleDB.sol\";\nimport \"../proxy/Proxied.sol\";\nimport \"../../interfaces/ERC721.sol\";\nimport \"../../interfaces/ERC20Standard.sol\";\nimport \"../../authority/Guard.sol\";\n\n\n/**\n * @title Register\n * @dev Responsible for user profile creation/modification\n * and CryptoKitties registration/removal under existing profiles.\n * This contract keeps the registered CryptoKitties, SuperDAO Tokens\n * and KittieFight Tokens. Therefore before user creating a profile\n * or any kind of interaction with the whole system, required approvals\n * for both CryptoKitties and ERC20 tokens should be given to this contarct in advance.\n * @author @psychoplasma\n */\ncontract Register is Proxied, SystemRoles, Guard {\n  using SafeMath for uint256;\n\n  ProfileDB public profileDB;\n  RoleDB public roleDB;\n  ERC721 public cryptoKitties;\n  ERC20Standard public kittieFightToken;\n  ERC20Standard public superDaoToken;\n\n  string constant internal KITTIE_STATUS_IDLE = \"idle\";\n  string constant internal KITTIE_STATUS_PLAYING = \"playing\";\n  string constant internal KITTIE_STATUS_DEAD = \"dead\";\n  string constant internal KITTIE_STATUS_GHOST = \"ghost\";\n\n\n  /**\n   * @dev Sets related database contracts and tokens\n   * ProfileDB, RoleDB, CryptoKitties, KittieFightToken, SuperDAOToken\n   * @dev Can be called only by the owner of this contract\n   */\n  function initialize() external onlyOwner {\n    profileDB = ProfileDB(proxy.getContract(CONTRACT_NAME_PROFILE_DB));\n    roleDB = RoleDB(proxy.getContract(CONTRACT_NAME_ROLE_DB));\n    cryptoKitties = ERC721(proxy.getContract('CryptoKitties'));\n    kittieFightToken = ERC20Standard(proxy.getContract('KittieFightToken'));\n    superDaoToken = ERC20Standard(proxy.getContract('SuperDAOToken'));\n  }\n\n  /**\n   * @dev Creates a new profile with the given address in ProfileDB\n   * and sets its role to `bettor` by default.\n   * @dev Can be called only through Proxy contract\n   */\n  function register()\n    external\n    onlyProxy\n    returns (bool)\n  {\n    profileDB.create(getOriginalSender());\n    _registerRole(getOriginalSender(), BETTOR_ROLE);\n    return true;\n  }\n\n  /**\n   * @dev Validates the account with the provided civic id so that\n   * the account can be eligible to list kitties.\n   * @dev Can be called only through Proxy contract\n   * @param civicId uint256 Civic id to validate the account\n   */\n  function verifyAccount(uint256 civicId)\n    external\n    onlyProxy\n    onlyBettor\n    returns (bool)\n  {\n    // FIXME: If there is a way to check whether the provided civic id is valid or not, do it here!\n    profileDB.setCivicId(getOriginalSender(), civicId);\n    _registerRole(getOriginalSender(), PLAYER_ROLE);\n    return true;\n  }\n\n  /**\n   * @dev Sends tokens to another address\n   * @dev Can be called only through Proxy contract\n   * @param account address\n   * @param to address\n   * @param amount uint256\n   */\n   // TODO: What is the purpose of this??? Looks like an overhead. Can be done directly interacting with the token contract. Why here?\n  function sendTokensTo(address account, address to, uint256 amount)\n    external\n    onlyProxy\n    returns (bool)\n  {\n    // solium-disable-next-line error-reason\n    require(kittieFightToken.transferFrom(account, to, amount));\n    return true;\n  }\n\n  /**\n   * @dev Exchange integration to exchange KTY for ETH\n   * @dev Can be called only through Proxy contract\n   * @param account address\n   * @param amount uint256\n   */\n  function exchangeTokensForEth(address payable account, uint256 amount)\n    external\n    onlyProxy\n    returns (bool)\n  {\n    // TODO: Exchange rate should be fetched from game variables DB or somewhere else???\n    uint256 exhangeRate = 1;\n    require(amount > 0); // solium-disable-line error-reason\n    require(kittieFightToken.transferFrom(account, address(this), amount)); // solium-disable-line error-reason\n    account.transfer(amount.mul(exhangeRate));\n    profileDB.setKittieFightTokens(account, amount);\n    return true;\n  }\n\n  /**\n   * @dev Stakes SuperDAO tokens to this contract and saves the stake\n   * amount and staking status on ProfileDB.\n   * @dev Can be called only through Proxy contract\n   * @param account address Address of the user who is staking\n   * @param amount uint256 Amount of SuperDAO tokens to be staked\n   */\n   // FIXME: There must be also unstake function\n  function stakeSuperDAO(address account, uint256 amount)\n    external\n    onlyProxy\n    returns (bool)\n  {\n    require(amount > 0);\n    // TODO: Change the owner address to the address of token custody contract later\n    require(superDaoToken.transferFrom(account, address(this), amount));\n    profileDB.setSuperDAOTokens(account, amount, true);\n    return true;\n  }\n\n  /**\n   * @dev Locks KittieFight tokens to this contract and saves the locked\n   * amount on ProfileDB under account's profile.\n   * @dev Can be called only through Proxy contract\n   * @param account address Address of the user whose tokens will be locked\n   * @param amount uint256 Amount of KittieFight tokens to be locked\n   */\n  function lockTokens(address account, uint256 amount)\n    external\n    onlyProxy\n    returns (bool)\n  {\n    require(amount > 0);\n    uint256 lockedBalance = profileDB.getKittieFightTokens(account);\n    // TODO: Change the owner address to the address of token custody contract later\n    require(kittieFightToken.transferFrom(account, address(this), amount));\n    profileDB.setKittieFightTokens(account, lockedBalance.add(amount));\n    return true;\n  }\n\n  /**\n   * @dev Releases KittieFight tokens from this contract to `account`.\n   * Does not allow to release an amount more than the locked amount.\n   * Updates the locked amount on ProfileDB accordingly after release.\n   * @dev Can be called only through Proxy contract\n   * @param account address Address of the user whose tokens will be released\n   * @param amount uint256 Amount of KittieFight tokens to be released\n   */\n  function releaseTokens(address account, uint256 amount)\n    external\n    onlyProxy\n    returns (bool)\n  {\n    require(amount > 0);\n    uint256 lockedBalance = profileDB.getKittieFightTokens(account);\n    require(lockedBalance >= amount);\n    profileDB.setKittieFightTokens(account, lockedBalance.sub(amount));\n    require(kittieFightToken.transfer(account, amount));\n    return true;\n  }\n\n  /**\n   * @dev Checks whether there is a profile on ProfileDB with the given address.\n   * @param account address Address to be checked\n   * @return bool true if there is a registered profile with the given address, false otherwise.\n   */\n  function isRegistered(address account) public view returns (bool) {\n    return profileDB.doesProfileExist(account);\n  }\n\n  // /**\n  //  * @dev Checks whether the kittie provided is registered to the system under the given account.\n  //  * @param account address Account to be checked against kittie\n  //  * @param kittieId uint256 Kittie to be checked if it exists\n  //  * @return bool true if the kittie is registered to the system under the given account\n  //  */\n  // function doesKittieBelong(address account, uint256 kittieId) public view returns (bool) {\n  //   return profileDB.doesKittieExist(account, kittieId);\n  // }\n\n  // /**\n  //  * @dev Checks whether there the registered account owns any cryptokitty\n  //  * @param account address Address to be checked\n  //  * @return bool true if the account owns any\n  //  */\n  // function hasKitties(address account) public view returns (bool) {\n  //   return cryptoKitties.balanceOf(account) > 0;\n  //   // return profileDB.getKitties(account).length > 0;\n  // }\n\n  /**\n   * @dev Registers a role for the given address on RoleDB.\n   * @param account address Address to be registered for the provided role\n   * @param role string Role to be assigned to the given address\n   */\n  function _registerRole(address account, string memory role) internal {\n    roleDB.addRole(CONTRACT_NAME_REGISTER, role, account);\n  }\n\n  /**\n   * @dev Removes a role from the given address on RoleDB.\n   * @param account address Address that the provided role will be removed from\n   * @param role string Role to be removed from the given address\n   */\n  function _removeRole(address account, string memory role) internal {\n    roleDB.removeRole(CONTRACT_NAME_REGISTER, role, account);\n  }\n}\n\n",
  "sourcePath": "/home/wafflemakr/Desktop/KittieFight/alpha/contracts/modules/registration/Register.sol",
  "compiler": {
    "name": "solc",
    "version": "0.5.10+commit.5a6ea5b1.Emscripten.clang"
  },
  "schemaVersion": "3.0.11",
  "updatedAt": "2019-08-01T22:46:13.455Z",
  "devdoc": {
    "author": "@psychoplasma",
    "details": "Responsible for user profile creation/modification and CryptoKitties registration/removal under existing profiles. This contract keeps the registered CryptoKitties, SuperDAO Tokens and KittieFight Tokens. Therefore before user creating a profile or any kind of interaction with the whole system, required approvals for both CryptoKitties and ERC20 tokens should be given to this contarct in advance.",
    "methods": {
      "exchangeTokensForEth(address,uint256)": {
        "details": "Exchange integration to exchange KTY for ETHCan be called only through Proxy contract",
        "params": {
          "account": "address",
          "amount": "uint256"
        }
      },
      "initialize()": {
        "details": "Sets related database contracts and tokens ProfileDB, RoleDB, CryptoKitties, KittieFightToken, SuperDAOTokenCan be called only by the owner of this contract"
      },
      "isRegistered(address)": {
        "details": "Checks whether there is a profile on ProfileDB with the given address.",
        "params": {
          "account": "address Address to be checked"
        },
        "return": "bool true if there is a registered profile with the given address, false otherwise."
      },
      "lockTokens(address,uint256)": {
        "details": "Locks KittieFight tokens to this contract and saves the locked amount on ProfileDB under account's profile.Can be called only through Proxy contract",
        "params": {
          "account": "address Address of the user whose tokens will be locked",
          "amount": "uint256 Amount of KittieFight tokens to be locked"
        }
      },
      "register()": {
        "details": "Creates a new profile with the given address in ProfileDB and sets its role to `bettor` by default.Can be called only through Proxy contract"
      },
      "releaseTokens(address,uint256)": {
        "details": "Releases KittieFight tokens from this contract to `account`. Does not allow to release an amount more than the locked amount. Updates the locked amount on ProfileDB accordingly after release.Can be called only through Proxy contract",
        "params": {
          "account": "address Address of the user whose tokens will be released",
          "amount": "uint256 Amount of KittieFight tokens to be released"
        }
      },
      "sendTokensTo(address,address,uint256)": {
        "details": "Sends tokens to another addressCan be called only through Proxy contract",
        "params": {
          "account": "address",
          "amount": "uint256",
          "to": "address"
        }
      },
      "stakeSuperDAO(address,uint256)": {
        "details": "Stakes SuperDAO tokens to this contract and saves the stake amount and staking status on ProfileDB.Can be called only through Proxy contract",
        "params": {
          "account": "address Address of the user who is staking",
          "amount": "uint256 Amount of SuperDAO tokens to be staked"
        }
      },
      "verifyAccount(uint256)": {
        "details": "Validates the account with the provided civic id so that the account can be eligible to list kitties.Can be called only through Proxy contract",
        "params": {
          "civicId": "uint256 Civic id to validate the account"
        }
      }
    },
    "title": "Register"
  },
  "userdoc": {
    "methods": {
      "setProxy(address)": {
        "notice": "Set/update address of Proxy contract"
      }
    }
  }
}