{
  "contractName": "RoleDB",
  "abi": [
    {
      "inputs": [
        {
          "internalType": "contract GenericDB",
          "name": "_genericDB",
          "type": "address"
        }
      ],
      "payable": false,
      "stateMutability": "nonpayable",
      "type": "constructor"
    },
    {
      "anonymous": false,
      "inputs": [
        {
          "indexed": true,
          "internalType": "address",
          "name": "account",
          "type": "address"
        },
        {
          "indexed": false,
          "internalType": "string",
          "name": "role",
          "type": "string"
        }
      ],
      "name": "RoleAdded",
      "type": "event"
    },
    {
      "anonymous": false,
      "inputs": [
        {
          "indexed": true,
          "internalType": "address",
          "name": "account",
          "type": "address"
        },
        {
          "indexed": false,
          "internalType": "string",
          "name": "role",
          "type": "string"
        }
      ],
      "name": "RoleRemoved",
      "type": "event"
    },
    {
      "constant": true,
      "inputs": [],
      "name": "genericDB",
      "outputs": [
        {
          "internalType": "contract GenericDB",
          "name": "",
          "type": "address"
        }
      ],
      "payable": false,
      "stateMutability": "view",
      "type": "function"
    },
    {
      "constant": true,
      "inputs": [],
      "name": "owner",
      "outputs": [
        {
          "internalType": "address payable",
          "name": "",
          "type": "address"
        }
      ],
      "payable": false,
      "stateMutability": "view",
      "type": "function"
    },
    {
      "constant": true,
      "inputs": [],
      "name": "proxy",
      "outputs": [
        {
          "internalType": "contract ProxyBase",
          "name": "",
          "type": "address"
        }
      ],
      "payable": false,
      "stateMutability": "view",
      "type": "function"
    },
    {
      "constant": false,
      "inputs": [
        {
          "internalType": "contract ProxyBase",
          "name": "_proxy",
          "type": "address"
        }
      ],
      "name": "setProxy",
      "outputs": [],
      "payable": false,
      "stateMutability": "nonpayable",
      "type": "function"
    },
    {
      "constant": false,
      "inputs": [
        {
          "internalType": "address payable",
          "name": "newOwner",
          "type": "address"
        }
      ],
      "name": "transferOwnership",
      "outputs": [],
      "payable": false,
      "stateMutability": "nonpayable",
      "type": "function"
    },
    {
      "constant": false,
      "inputs": [
        {
          "internalType": "contract GenericDB",
          "name": "_genericDB",
          "type": "address"
        }
      ],
      "name": "setGenericDB",
      "outputs": [],
      "payable": false,
      "stateMutability": "nonpayable",
      "type": "function"
    },
    {
      "constant": false,
      "inputs": [
        {
          "internalType": "string",
          "name": "contractName",
          "type": "string"
        },
        {
          "internalType": "string",
          "name": "role",
          "type": "string"
        },
        {
          "internalType": "address",
          "name": "account",
          "type": "address"
        }
      ],
      "name": "addRole",
      "outputs": [],
      "payable": false,
      "stateMutability": "nonpayable",
      "type": "function"
    },
    {
      "constant": false,
      "inputs": [
        {
          "internalType": "string",
          "name": "contractName",
          "type": "string"
        },
        {
          "internalType": "string",
          "name": "role",
          "type": "string"
        },
        {
          "internalType": "address",
          "name": "account",
          "type": "address"
        }
      ],
      "name": "removeRole",
      "outputs": [],
      "payable": false,
      "stateMutability": "nonpayable",
      "type": "function"
    },
    {
      "constant": true,
      "inputs": [
        {
          "internalType": "string",
          "name": "role",
          "type": "string"
        },
        {
          "internalType": "address",
          "name": "account",
          "type": "address"
        }
      ],
      "name": "hasRole",
      "outputs": [
        {
          "internalType": "bool",
          "name": "",
          "type": "bool"
        }
      ],
      "payable": false,
      "stateMutability": "view",
      "type": "function"
    }
  ],
  "bytecode": "0x608060405234801561001057600080fd5b506040516114cd3803806114cd8339818101604052602081101561003357600080fd5b8101908080519060200190929190505050336000806101000a81548173ffffffffffffffffffffffffffffffffffffffff021916908373ffffffffffffffffffffffffffffffffffffffff1602179055506100938161009960201b60201c565b50610133565b6000809054906101000a900473ffffffffffffffffffffffffffffffffffffffff1673ffffffffffffffffffffffffffffffffffffffff163373ffffffffffffffffffffffffffffffffffffffff16146100ef57fe5b80600260006101000a81548173ffffffffffffffffffffffffffffffffffffffff021916908373ffffffffffffffffffffffffffffffffffffffff16021790555050565b61138b806101426000396000f3fe608060405234801561001057600080fd5b50600436106100935760003560e01c80636c9cd097116100665780636c9cd097146103025780638da5cb5b146103f557806397107d6d1461043f578063ec55688914610483578063f2fde38b146104cd57610093565b8063274b65f0146100985780633564e78c146101865780634afab815146101d05780635ca5adbe14610214575b600080fd5b610184600480360360608110156100ae57600080fd5b81019080803590602001906401000000008111156100cb57600080fd5b8201836020820111156100dd57600080fd5b803590602001918460018302840111640100000000831117156100ff57600080fd5b90919293919293908035906020019064010000000081111561012057600080fd5b82018360208201111561013257600080fd5b8035906020019184600183028401116401000000008311171561015457600080fd5b9091929391929390803573ffffffffffffffffffffffffffffffffffffffff169060200190929190505050610511565b005b61018e6108e7565b604051808273ffffffffffffffffffffffffffffffffffffffff1673ffffffffffffffffffffffffffffffffffffffff16815260200191505060405180910390f35b610212600480360360208110156101e657600080fd5b81019080803573ffffffffffffffffffffffffffffffffffffffff16906020019092919050505061090d565b005b6103006004803603606081101561022a57600080fd5b810190808035906020019064010000000081111561024757600080fd5b82018360208201111561025957600080fd5b8035906020019184600183028401116401000000008311171561027b57600080fd5b90919293919293908035906020019064010000000081111561029c57600080fd5b8201836020820111156102ae57600080fd5b803590602001918460018302840111640100000000831117156102d057600080fd5b9091929391929390803573ffffffffffffffffffffffffffffffffffffffff1690602001909291905050506109a7565b005b6103db6004803603604081101561031857600080fd5b810190808035906020019064010000000081111561033557600080fd5b82018360208201111561034757600080fd5b8035906020019184600183028401116401000000008311171561036957600080fd5b91908080601f016020809104026020016040519081016040528093929190818152602001838380828437600081840152601f19601f820116905080830192505050505050509192919290803573ffffffffffffffffffffffffffffffffffffffff169060200190929190505050610cd9565b604051808215151515815260200191505060405180910390f35b6103fd610edb565b604051808273ffffffffffffffffffffffffffffffffffffffff1673ffffffffffffffffffffffffffffffffffffffff16815260200191505060405180910390f35b6104816004803603602081101561045557600080fd5b81019080803573ffffffffffffffffffffffffffffffffffffffff169060200190929190505050610f00565b005b61048b610f9a565b604051808273ffffffffffffffffffffffffffffffffffffffff1673ffffffffffffffffffffffffffffffffffffffff16815260200191505060405180910390f35b61050f600480360360208110156104e357600080fd5b81019080803573ffffffffffffffffffffffffffffffffffffffff169060200190929190505050610fc0565b005b84848080601f016020809104026020016040519081016040528093929190818152602001838380828437600081840152601f19601f8201169050808301925050505050505061055f8161108e565b600073ffffffffffffffffffffffffffffffffffffffff168273ffffffffffffffffffffffffffffffffffffffff161415610602576040517f08c379a000000000000000000000000000000000000000000000000000000000815260040180806020018281038252600c8152602001807f307830206164647265737321000000000000000000000000000000000000000081525060200191505060405180910390fd5b61065084848080601f016020809104026020016040519081016040528093929190818152602001838380828437600081840152601f19601f8201169050808301925050505050505083610cd9565b156106c3576040517f08c379a000000000000000000000000000000000000000000000000000000000815260040180806020018281038252600e8152602001807f4578697374656e7420726f6c652100000000000000000000000000000000000081525060200191505060405180910390fd5b600260009054906101000a900473ffffffffffffffffffffffffffffffffffffffff1673ffffffffffffffffffffffffffffffffffffffff1663cb30ffe76040518060400160405280600681526020017f526f6c654442000000000000000000000000000000000000000000000000000081525086868660405160200180848480828437808301925050508273ffffffffffffffffffffffffffffffffffffffff1673ffffffffffffffffffffffffffffffffffffffff1660601b815260140193505050506040516020818303038152906040528051906020012060016040518463ffffffff1660e01b8152600401808060200184815260200183151515158152602001828103825285818151815260200191508051906020019080838360005b838110156107ff5780820151818401526020810190506107e4565b50505050905090810190601f16801561082c5780820380516001836020036101000a031916815260200191505b50945050505050600060405180830381600087803b15801561084d57600080fd5b505af1158015610861573d6000803e3d6000fd5b505050508173ffffffffffffffffffffffffffffffffffffffff167fbfec83d64eaa953f2708271a023ab9ee82057f8f3578d548c1a4ba0b5b700489858560405180806020018281038252848482818152602001925080828437600081840152601f19601f820116905080830192505050935050505060405180910390a2505050505050565b600260009054906101000a900473ffffffffffffffffffffffffffffffffffffffff1681565b6000809054906101000a900473ffffffffffffffffffffffffffffffffffffffff1673ffffffffffffffffffffffffffffffffffffffff163373ffffffffffffffffffffffffffffffffffffffff161461096357fe5b80600260006101000a81548173ffffffffffffffffffffffffffffffffffffffff021916908373ffffffffffffffffffffffffffffffffffffffff16021790555050565b84848080601f016020809104026020016040519081016040528093929190818152602001838380828437600081840152601f19601f820116905080830192505050505050506109f58161108e565b610a4384848080601f016020809104026020016040519081016040528093929190818152602001838380828437600081840152601f19601f8201169050808301925050505050505083610cd9565b610ab5576040517f08c379a00000000000000000000000000000000000000000000000000000000081526004018080602001828103825260128152602001807f4e6f6e2d6578697374656e7420726f6c6521000000000000000000000000000081525060200191505060405180910390fd5b600260009054906101000a900473ffffffffffffffffffffffffffffffffffffffff1673ffffffffffffffffffffffffffffffffffffffff1663cb30ffe76040518060400160405280600681526020017f526f6c654442000000000000000000000000000000000000000000000000000081525086868660405160200180848480828437808301925050508273ffffffffffffffffffffffffffffffffffffffff1673ffffffffffffffffffffffffffffffffffffffff1660601b815260140193505050506040516020818303038152906040528051906020012060006040518463ffffffff1660e01b8152600401808060200184815260200183151515158152602001828103825285818151815260200191508051906020019080838360005b83811015610bf1578082015181840152602081019050610bd6565b50505050905090810190601f168015610c1e5780820380516001836020036101000a031916815260200191505b50945050505050600060405180830381600087803b158015610c3f57600080fd5b505af1158015610c53573d6000803e3d6000fd5b505050508173ffffffffffffffffffffffffffffffffffffffff167fd211483f91fc6eff862467f8de606587a30c8fc9981056f051b897a418df803a858560405180806020018281038252848482818152602001925080828437600081840152601f19601f820116905080830192505050935050505060405180910390a2505050505050565b6000600260009054906101000a900473ffffffffffffffffffffffffffffffffffffffff1673ffffffffffffffffffffffffffffffffffffffff16631c58c8bb6040518060400160405280600681526020017f526f6c654442000000000000000000000000000000000000000000000000000081525085856040516020018083805190602001908083835b60208310610d875780518252602082019150602081019050602083039250610d64565b6001836020036101000a0380198251168184511680821785525050505050509050018273ffffffffffffffffffffffffffffffffffffffff1673ffffffffffffffffffffffffffffffffffffffff1660601b815260140192505050604051602081830303815290604052805190602001206040518363ffffffff1660e01b81526004018080602001838152602001828103825284818151815260200191508051906020019080838360005b83811015610e4d578082015181840152602081019050610e32565b50505050905090810190601f168015610e7a5780820380516001836020036101000a031916815260200191505b50935050505060206040518083038186803b158015610e9857600080fd5b505afa158015610eac573d6000803e3d6000fd5b505050506040513d6020811015610ec257600080fd5b8101908080519060200190929190505050905092915050565b6000809054906101000a900473ffffffffffffffffffffffffffffffffffffffff1681565b6000809054906101000a900473ffffffffffffffffffffffffffffffffffffffff1673ffffffffffffffffffffffffffffffffffffffff163373ffffffffffffffffffffffffffffffffffffffff1614610f5657fe5b80600160006101000a81548173ffffffffffffffffffffffffffffffffffffffff021916908373ffffffffffffffffffffffffffffffffffffffff16021790555050565b600160009054906101000a900473ffffffffffffffffffffffffffffffffffffffff1681565b6000809054906101000a900473ffffffffffffffffffffffffffffffffffffffff1673ffffffffffffffffffffffffffffffffffffffff163373ffffffffffffffffffffffffffffffffffffffff161461101657fe5b600073ffffffffffffffffffffffffffffffffffffffff168173ffffffffffffffffffffffffffffffffffffffff161461108b57806000806101000a81548173ffffffffffffffffffffffffffffffffffffffff021916908373ffffffffffffffffffffffffffffffffffffffff1602179055505b50565b600073ffffffffffffffffffffffffffffffffffffffff16600160009054906101000a900473ffffffffffffffffffffffffffffffffffffffff1673ffffffffffffffffffffffffffffffffffffffff161415611153576040517f08c379a00000000000000000000000000000000000000000000000000000000081526004018080602001828103825260088152602001807f4e6f2050726f787900000000000000000000000000000000000000000000000081525060200191505060405180910390fd5b6000600160009054906101000a900473ffffffffffffffffffffffffffffffffffffffff1673ffffffffffffffffffffffffffffffffffffffff166335817773836040518263ffffffff1660e01b81526004018080602001828103825283818151815260200191508051906020019080838360005b838110156111e35780820151818401526020810190506111c8565b50505050905090810190601f1680156112105780820380516001836020036101000a031916815260200191505b509250505060206040518083038186803b15801561122d57600080fd5b505afa158015611241573d6000803e3d6000fd5b505050506040513d602081101561125757600080fd5b81019080805190602001909291905050509050600073ffffffffffffffffffffffffffffffffffffffff168173ffffffffffffffffffffffffffffffffffffffff1614156112a157fe5b8073ffffffffffffffffffffffffffffffffffffffff163373ffffffffffffffffffffffffffffffffffffffff1614611325576040517f08c379a000000000000000000000000000000000000000000000000000000000815260040180806020018281038252602d81526020018061132a602d913960400191505060405180910390fd5b505056fe416363657373206973206f6e6c7920616c6c6f7765642066726f6d20737065636966696320636f6e7472616374a265627a7a72315820ac0585249e816c996b5f3cc3a68a8cf82c4fbbd4f397e616a3a65705caf56bac64736f6c63430005110032",
  "source": "pragma solidity ^0.5.5;\r\n\r\nimport \"./GenericDB.sol\";\r\nimport \"../proxy/Proxied.sol\";\r\n\r\n\r\ncontract RoleDB is Proxied {\r\n  GenericDB public genericDB;\r\n\r\n  event RoleAdded(address indexed account, string role);\r\n  event RoleRemoved(address indexed account, string role);\r\n\r\n  constructor (GenericDB _genericDB) public {\r\n    setGenericDB(_genericDB);\r\n  }\r\n\r\n  function setGenericDB(GenericDB _genericDB) public onlyOwner {\r\n    genericDB = _genericDB;\r\n  }\r\n\r\n  function addRole(\r\n    string calldata contractName,\r\n    string calldata role,\r\n    address account\r\n  )\r\n    external onlyContract(contractName)\r\n  {\r\n    require(account != address(0), \"0x0 address!\");\r\n    require(!hasRole(role, account), \"Existent role!\");\r\n    genericDB.setBoolStorage(CONTRACT_NAME_ROLE_DB, keccak256(abi.encodePacked(role, account)), true);\r\n    emit RoleAdded(account, role);\r\n  }\r\n\r\n  function removeRole(\r\n    string calldata contractName,\r\n    string calldata role,\r\n    address account\r\n  )\r\n    external onlyContract(contractName)\r\n  {\r\n    require(hasRole(role, account), \"Non-existent role!\");\r\n    genericDB.setBoolStorage(CONTRACT_NAME_ROLE_DB, keccak256(abi.encodePacked(role, account)), false);\r\n    emit RoleRemoved(account, role);\r\n  }\r\n\r\n  function hasRole(\r\n    string memory role,\r\n    address account\r\n  )\r\n    public view returns (bool)\r\n  {\r\n    return genericDB.getBoolStorage(CONTRACT_NAME_ROLE_DB, keccak256(abi.encodePacked(role, account)));\r\n  }\r\n}\r\n",
  "sourcePath": "C:\\Users\\Alex\\Desktop\\MyProjects\\alpha\\contracts\\modules\\databases\\RoleDB.sol",
  "compiler": {
    "name": "solc",
    "version": "0.5.17+commit.d19bba13.Emscripten.clang"
  },
  "schemaVersion": "3.0.11",
  "updatedAt": "2020-04-04T12:19:04.383Z",
  "devdoc": {
    "methods": {}
  },
  "userdoc": {
    "methods": {
      "setProxy(address)": {
        "notice": "Set/update address of Proxy contract"
      }
    }
  }
}