{
  "contractName": "Scheduler",
  "abi": [
    {
      "constant": true,
      "inputs": [],
      "name": "gameCreation",
      "outputs": [
        {
          "name": "",
          "type": "address"
        }
      ],
      "payable": false,
      "stateMutability": "view",
      "type": "function"
    },
    {
      "constant": true,
      "inputs": [],
      "name": "owner",
      "outputs": [
        {
          "name": "",
          "type": "address"
        }
      ],
      "payable": false,
      "stateMutability": "view",
      "type": "function"
    },
    {
      "constant": false,
      "inputs": [
        {
          "name": "_proxy",
          "type": "address"
        }
      ],
      "name": "setProxy",
      "outputs": [],
      "payable": false,
      "stateMutability": "nonpayable",
      "type": "function"
    },
    {
      "constant": true,
      "inputs": [],
      "name": "gameVarAndFee",
      "outputs": [
        {
          "name": "",
          "type": "address"
        }
      ],
      "payable": false,
      "stateMutability": "view",
      "type": "function"
    },
    {
      "constant": true,
      "inputs": [],
      "name": "gameManager",
      "outputs": [
        {
          "name": "",
          "type": "address"
        }
      ],
      "payable": false,
      "stateMutability": "view",
      "type": "function"
    },
    {
      "constant": true,
      "inputs": [],
      "name": "proxy",
      "outputs": [
        {
          "name": "",
          "type": "address"
        }
      ],
      "payable": false,
      "stateMutability": "view",
      "type": "function"
    },
    {
      "constant": true,
      "inputs": [],
      "name": "cryptoKitties",
      "outputs": [
        {
          "name": "",
          "type": "address"
        }
      ],
      "payable": false,
      "stateMutability": "view",
      "type": "function"
    },
    {
      "constant": false,
      "inputs": [
        {
          "name": "newOwner",
          "type": "address"
        }
      ],
      "name": "transferOwnership",
      "outputs": [],
      "payable": false,
      "stateMutability": "nonpayable",
      "type": "function"
    },
    {
      "constant": false,
      "inputs": [],
      "name": "initialize",
      "outputs": [],
      "payable": false,
      "stateMutability": "nonpayable",
      "type": "function"
    },
    {
      "constant": false,
      "inputs": [
        {
          "name": "_kittyId",
          "type": "uint256"
        },
        {
          "name": "_player",
          "type": "address"
        }
      ],
      "name": "addKittyToList",
      "outputs": [],
      "payable": false,
      "stateMutability": "nonpayable",
      "type": "function"
    },
    {
      "constant": false,
      "inputs": [],
      "name": "shuffleKittyList",
      "outputs": [],
      "payable": false,
      "stateMutability": "nonpayable",
      "type": "function"
    },
    {
      "constant": true,
      "inputs": [
        {
          "name": "_kittyId",
          "type": "uint256"
        }
      ],
      "name": "isKittyListedForMatching",
      "outputs": [
        {
          "name": "",
          "type": "bool"
        }
      ],
      "payable": false,
      "stateMutability": "view",
      "type": "function"
    },
    {
      "constant": true,
      "inputs": [],
      "name": "getListedKitties",
      "outputs": [
        {
          "name": "",
          "type": "uint256[]"
        }
      ],
      "payable": false,
      "stateMutability": "view",
      "type": "function"
    },
    {
      "constant": true,
      "inputs": [],
      "name": "getListedPlayers",
      "outputs": [
        {
          "name": "",
          "type": "address[]"
        }
      ],
      "payable": false,
      "stateMutability": "view",
      "type": "function"
    },
    {
      "constant": true,
      "inputs": [
        {
          "name": "nbatch",
          "type": "uint256"
        }
      ],
      "name": "getRequiredMatchingNumber",
      "outputs": [
        {
          "name": "",
          "type": "uint256"
        }
      ],
      "payable": false,
      "stateMutability": "view",
      "type": "function"
    }
  ],
  "bytecode": "0x6080604052336000806101000a81548173ffffffffffffffffffffffffffffffffffffffff021916908373ffffffffffffffffffffffffffffffffffffffff1602179055506124f8806100536000396000f3fe608060405234801561001057600080fd5b50600436106100f55760003560e01c806397107d6d11610097578063ec55688911610066578063ec556889146103cc578063ef410f4514610416578063f2fde38b14610460578063fe83e4ad146104a4576100f5565b806397107d6d146102ae578063a3b3bd7b146102f2578063c484819d1461033c578063c6b0526614610382576100f5565b80638129fc1c116100d35780638129fc1c146101f15780638917d4b1146101fb5780638cbf0a551461025a5780638da5cb5b14610264576100f5565b806305901e89146100fa57806315a194ec146101595780636df970c5146101a3575b600080fd5b6101026104e6565b6040518080602001828103825283818151815260200191508051906020019060200280838360005b8381101561014557808201518184015260208101905061012a565b505050509050019250505060405180910390f35b6101616105cd565b604051808273ffffffffffffffffffffffffffffffffffffffff1673ffffffffffffffffffffffffffffffffffffffff16815260200191505060405180910390f35b6101ef600480360360408110156101b957600080fd5b8101908080359060200190929190803573ffffffffffffffffffffffffffffffffffffffff1690602001909291905050506105f3565b005b6101f9610819565b005b610203610e91565b6040518080602001828103825283818151815260200191508051906020019060200280838360005b8381101561024657808201518184015260208101905061022b565b505050509050019250505060405180910390f35b610262610f2a565b005b61026c61117c565b604051808273ffffffffffffffffffffffffffffffffffffffff1673ffffffffffffffffffffffffffffffffffffffff16815260200191505060405180910390f35b6102f0600480360360208110156102c457600080fd5b81019080803573ffffffffffffffffffffffffffffffffffffffff1690602001909291905050506111a1565b005b6102fa61123b565b604051808273ffffffffffffffffffffffffffffffffffffffff1673ffffffffffffffffffffffffffffffffffffffff16815260200191505060405180910390f35b6103686004803603602081101561035257600080fd5b8101908080359060200190929190505050611261565b604051808215151515815260200191505060405180910390f35b61038a6112be565b604051808273ffffffffffffffffffffffffffffffffffffffff1673ffffffffffffffffffffffffffffffffffffffff16815260200191505060405180910390f35b6103d46112e4565b604051808273ffffffffffffffffffffffffffffffffffffffff1673ffffffffffffffffffffffffffffffffffffffff16815260200191505060405180910390f35b61041e61130a565b604051808273ffffffffffffffffffffffffffffffffffffffff1673ffffffffffffffffffffffffffffffffffffffff16815260200191505060405180910390f35b6104a26004803603602081101561047657600080fd5b81019080803573ffffffffffffffffffffffffffffffffffffffff169060200190929190505050611330565b005b6104d0600480360360208110156104ba57600080fd5b81019080803590602001909291905050506113fe565b6040518082815260200191505060405180910390f35b60608060088054905060405190808252806020026020018201604052801561051d5781602001602082028038833980820191505090505b50905060008090505b6008805490508110156105c5576008818154811061054057fe5b906000526020600020906002020160010160009054906101000a900473ffffffffffffffffffffffffffffffffffffffff1682828151811061057e57fe5b602002602001019073ffffffffffffffffffffffffffffffffffffffff16908173ffffffffffffffffffffffffffffffffffffffff16815250508080600101915050610526565b508091505090565b600360009054906101000a900473ffffffffffffffffffffffffffffffffffffffff1681565b6040518060400160405280600c81526020017f47616d654372656174696f6e00000000000000000000000000000000000000008152506106328161143b565b61063b83611261565b15610691576040517f08c379a00000000000000000000000000000000000000000000000000000000081526004018080602001828103825260498152602001806124276049913960600191505060405180910390fd5b610699612354565b60405180604001604052808581526020018473ffffffffffffffffffffffffffffffffffffffff168152509050600881908060018154018082558091505090600182039060005260206000209060020201600090919290919091506000820151816000015560208201518160010160006101000a81548173ffffffffffffffffffffffffffffffffffffffff021916908373ffffffffffffffffffffffffffffffffffffffff1602179055505050506008805490506108046002600460009054906101000a900473ffffffffffffffffffffffffffffffffffffffff1673ffffffffffffffffffffffffffffffffffffffff16632c8558a86040518163ffffffff1660e01b815260040160206040518083038186803b1580156107bb57600080fd5b505afa1580156107cf573d6000803e3d6000fd5b505050506040513d60208110156107e557600080fd5b81019080805190602001909291905050506116d690919063ffffffff16565b14156108135761081261170d565b5b50505050565b6000809054906101000a900473ffffffffffffffffffffffffffffffffffffffff1673ffffffffffffffffffffffffffffffffffffffff163373ffffffffffffffffffffffffffffffffffffffff161461086f57fe5b600160009054906101000a900473ffffffffffffffffffffffffffffffffffffffff1673ffffffffffffffffffffffffffffffffffffffff1663358177736040518060400160405280600d81526020017f47616d65566172416e64466565000000000000000000000000000000000000008152506040518263ffffffff1660e01b81526004018080602001828103825283818151815260200191508051906020019080838360005b83811015610932578082015181840152602081019050610917565b50505050905090810190601f16801561095f5780820380516001836020036101000a031916815260200191505b509250505060206040518083038186803b15801561097c57600080fd5b505afa158015610990573d6000803e3d6000fd5b505050506040513d60208110156109a657600080fd5b8101908080519060200190929190505050600460006101000a81548173ffffffffffffffffffffffffffffffffffffffff021916908373ffffffffffffffffffffffffffffffffffffffff160217905550600160009054906101000a900473ffffffffffffffffffffffffffffffffffffffff1673ffffffffffffffffffffffffffffffffffffffff1663358177736040518060400160405280600b81526020017f47616d654d616e616765720000000000000000000000000000000000000000008152506040518263ffffffff1660e01b81526004018080602001828103825283818151815260200191508051906020019080838360005b83811015610aba578082015181840152602081019050610a9f565b50505050905090810190601f168015610ae75780820380516001836020036101000a031916815260200191505b509250505060206040518083038186803b158015610b0457600080fd5b505afa158015610b18573d6000803e3d6000fd5b505050506040513d6020811015610b2e57600080fd5b8101908080519060200190929190505050600260006101000a81548173ffffffffffffffffffffffffffffffffffffffff021916908373ffffffffffffffffffffffffffffffffffffffff160217905550600160009054906101000a900473ffffffffffffffffffffffffffffffffffffffff1673ffffffffffffffffffffffffffffffffffffffff1663358177736040518060400160405280600c81526020017f47616d654372656174696f6e00000000000000000000000000000000000000008152506040518263ffffffff1660e01b81526004018080602001828103825283818151815260200191508051906020019080838360005b83811015610c42578082015181840152602081019050610c27565b50505050905090810190601f168015610c6f5780820380516001836020036101000a031916815260200191505b509250505060206040518083038186803b158015610c8c57600080fd5b505afa158015610ca0573d6000803e3d6000fd5b505050506040513d6020811015610cb657600080fd5b8101908080519060200190929190505050600360006101000a81548173ffffffffffffffffffffffffffffffffffffffff021916908373ffffffffffffffffffffffffffffffffffffffff160217905550600160009054906101000a900473ffffffffffffffffffffffffffffffffffffffff1673ffffffffffffffffffffffffffffffffffffffff1663358177736040518060400160405280600d81526020017f43727970746f4b697474696573000000000000000000000000000000000000008152506040518263ffffffff1660e01b81526004018080602001828103825283818151815260200191508051906020019080838360005b83811015610dca578082015181840152602081019050610daf565b50505050905090810190601f168015610df75780820380516001836020036101000a031916815260200191505b509250505060206040518083038186803b158015610e1457600080fd5b505afa158015610e28573d6000803e3d6000fd5b505050506040513d6020811015610e3e57600080fd5b8101908080519060200190929190505050600560006101000a81548173ffffffffffffffffffffffffffffffffffffffff021916908373ffffffffffffffffffffffffffffffffffffffff160217905550565b606080600880549050604051908082528060200260200182016040528015610ec85781602001602082028038833980820191505090505b50905060008090505b600880549050811015610f225760088181548110610eeb57fe5b906000526020600020906002020160000154828281518110610f0957fe5b6020026020010181815250508080600101915050610ed1565b508091505090565b6060600880549050604051908082528060200260200182016040528015610f6b57816020015b610f58612384565b815260200190600190039081610f505790505b5090506008805480602002602001604051908101604052809291908181526020016000905b828210156110225783829060005260206000209060020201604051806040016040529081600082015481526020016001820160009054906101000a900473ffffffffffffffffffffffffffffffffffffffff1673ffffffffffffffffffffffffffffffffffffffff1673ffffffffffffffffffffffffffffffffffffffff168152505081526020019060010190610f90565b5050505090506008600061103691906123b4565b6000611040612354565b60008090505b83518110156110c45761105c60018551036120a7565b925083818151811061106a57fe5b6020026020010151915083838151811061108057fe5b602002602001015184828151811061109457fe5b6020026020010181905250818484815181106110ac57fe5b60200260200101819052508080600101915050611046565b5060008090505b83518110156111765760098482815181106110e257fe5b6020026020010151908060018154018082558091505090600182039060005260206000209060020201600090919290919091506000820151816000015560208201518160010160006101000a81548173ffffffffffffffffffffffffffffffffffffffff021916908373ffffffffffffffffffffffffffffffffffffffff16021790555050505080806001019150506110cb565b50505050565b6000809054906101000a900473ffffffffffffffffffffffffffffffffffffffff1681565b6000809054906101000a900473ffffffffffffffffffffffffffffffffffffffff1673ffffffffffffffffffffffffffffffffffffffff163373ffffffffffffffffffffffffffffffffffffffff16146111f757fe5b80600160006101000a81548173ffffffffffffffffffffffffffffffffffffffff021916908373ffffffffffffffffffffffffffffffffffffffff16021790555050565b600460009054906101000a900473ffffffffffffffffffffffffffffffffffffffff1681565b600080600090505b6008805490508110156112b3576008818154811061128357fe5b9060005260206000209060020201600001548314156112a65760019150506112b9565b8080600101915050611269565b50600090505b919050565b600260009054906101000a900473ffffffffffffffffffffffffffffffffffffffff1681565b600160009054906101000a900473ffffffffffffffffffffffffffffffffffffffff1681565b600560009054906101000a900473ffffffffffffffffffffffffffffffffffffffff1681565b6000809054906101000a900473ffffffffffffffffffffffffffffffffffffffff1673ffffffffffffffffffffffffffffffffffffffff163373ffffffffffffffffffffffffffffffffffffffff161461138657fe5b600073ffffffffffffffffffffffffffffffffffffffff168173ffffffffffffffffffffffffffffffffffffffff16146113fb57806000806101000a81548173ffffffffffffffffffffffffffffffffffffffff021916908373ffffffffffffffffffffffffffffffffffffffff1602179055505b50565b6000606061140a610e91565b905061143381516114256002866116d690919063ffffffff16565b61213b90919063ffffffff16565b915050919050565b600073ffffffffffffffffffffffffffffffffffffffff16600160009054906101000a900473ffffffffffffffffffffffffffffffffffffffff1673ffffffffffffffffffffffffffffffffffffffff161415611500576040517f08c379a00000000000000000000000000000000000000000000000000000000081526004018080602001828103825260088152602001807f4e6f2050726f787900000000000000000000000000000000000000000000000081525060200191505060405180910390fd5b6000600160009054906101000a900473ffffffffffffffffffffffffffffffffffffffff1673ffffffffffffffffffffffffffffffffffffffff166335817773836040518263ffffffff1660e01b81526004018080602001828103825283818151815260200191508051906020019080838360005b83811015611590578082015181840152602081019050611575565b50505050905090810190601f1680156115bd5780820380516001836020036101000a031916815260200191505b509250505060206040518083038186803b1580156115da57600080fd5b505afa1580156115ee573d6000803e3d6000fd5b505050506040513d602081101561160457600080fd5b81019080805190602001909291905050509050600073ffffffffffffffffffffffffffffffffffffffff168173ffffffffffffffffffffffffffffffffffffffff16141561164e57fe5b8073ffffffffffffffffffffffffffffffffffffffff163373ffffffffffffffffffffffffffffffffffffffff16146116d2576040517f08c379a000000000000000000000000000000000000000000000000000000000815260040180806020018281038252602d815260200180612497602d913960400191505060405180910390fd5b5050565b6000808314156116e95760009050611707565b60008284029050828482816116fa57fe5b041461170257fe5b809150505b92915050565b600060026008805490508161171e57fe5b0614611775576040517f08c379a00000000000000000000000000000000000000000000000000000000081526004018080602001828103825260278152602001806124706027913960400191505060405180910390fd5b61177d610f2a565b600060026009805490508161178e57fe5b0490506060816040519080825280602002602001820160405280156117cd57816020015b6117ba612384565b8152602001906001900390816117b25790505b50905060608260405190808252806020026020018201604052801561180c57816020015b6117f9612384565b8152602001906001900390816117f15790505b50905060008090505b82518110156118c8576009818154811061182b57fe5b9060005260206000209060020201604051806040016040529081600082015481526020016001820160009054906101000a900473ffffffffffffffffffffffffffffffffffffffff1673ffffffffffffffffffffffffffffffffffffffff1673ffffffffffffffffffffffffffffffffffffffff16815250508382815181106118b057fe5b60200260200101819052508080600101915050611815565b5060008090505b815181101561198557600983518201815481106118e857fe5b9060005260206000209060020201604051806040016040529081600082015481526020016001820160009054906101000a900473ffffffffffffffffffffffffffffffffffffffff1673ffffffffffffffffffffffffffffffffffffffff1673ffffffffffffffffffffffffffffffffffffffff168152505082828151811061196d57fe5b602002602001018190525080806001019150506118cf565b506000600460009054906101000a900473ffffffffffffffffffffffffffffffffffffffff1673ffffffffffffffffffffffffffffffffffffffff1663a38bcf206040518163ffffffff1660e01b815260040160206040518083038186803b1580156119f057600080fd5b505afa158015611a04573d6000803e3d6000fd5b505050506040513d6020811015611a1a57600080fd5b810190808051906020019092919050505090506000429050806006541115611a425760065490505b60008090505b8581101561208a57611a63838361215290919063ffffffff16565b9150848181518110611a7157fe5b60200260200101516020015173ffffffffffffffffffffffffffffffffffffffff16600560009054906101000a900473ffffffffffffffffffffffffffffffffffffffff1673ffffffffffffffffffffffffffffffffffffffff16636352211e878481518110611add57fe5b6020026020010151600001516040518263ffffffff1660e01b81526004018082815260200191505060206040518083038186803b158015611b1d57600080fd5b505afa158015611b31573d6000803e3d6000fd5b505050506040513d6020811015611b4757600080fd5b810190808051906020019092919050505073ffffffffffffffffffffffffffffffffffffffff16148015611c815750838181518110611b8257fe5b60200260200101516020015173ffffffffffffffffffffffffffffffffffffffff16600560009054906101000a900473ffffffffffffffffffffffffffffffffffffffff1673ffffffffffffffffffffffffffffffffffffffff16636352211e868481518110611bee57fe5b6020026020010151600001516040518263ffffffff1660e01b81526004018082815260200191505060206040518083038186803b158015611c2e57600080fd5b505afa158015611c42573d6000803e3d6000fd5b505050506040513d6020811015611c5857600080fd5b810190808051906020019092919050505073ffffffffffffffffffffffffffffffffffffffff16145b15611dec57600360009054906101000a900473ffffffffffffffffffffffffffffffffffffffff1673ffffffffffffffffffffffffffffffffffffffff166301441541868381518110611cd057fe5b602002602001015160200151868481518110611ce857fe5b602002602001015160200151888581518110611d0057fe5b602002602001015160000151888681518110611d1857fe5b602002602001015160000151876040518663ffffffff1660e01b8152600401808673ffffffffffffffffffffffffffffffffffffffff1673ffffffffffffffffffffffffffffffffffffffff1681526020018573ffffffffffffffffffffffffffffffffffffffff1673ffffffffffffffffffffffffffffffffffffffff16815260200184815260200183815260200182815260200195505050505050600060405180830381600087803b158015611dcf57600080fd5b505af1158015611de3573d6000803e3d6000fd5b5050505061207d565b838181518110611df857fe5b60200260200101516020015173ffffffffffffffffffffffffffffffffffffffff16600560009054906101000a900473ffffffffffffffffffffffffffffffffffffffff1673ffffffffffffffffffffffffffffffffffffffff16636352211e868481518110611e6457fe5b6020026020010151600001516040518263ffffffff1660e01b81526004018082815260200191505060206040518083038186803b158015611ea457600080fd5b505afa158015611eb8573d6000803e3d6000fd5b505050506040513d6020811015611ece57600080fd5b810190808051906020019092919050505073ffffffffffffffffffffffffffffffffffffffff161415611f3457611f33848281518110611f0a57fe5b602002602001015160000151858381518110611f2257fe5b60200260200101516020015161216e565b5b848181518110611f4057fe5b60200260200101516020015173ffffffffffffffffffffffffffffffffffffffff16600560009054906101000a900473ffffffffffffffffffffffffffffffffffffffff1673ffffffffffffffffffffffffffffffffffffffff16636352211e878481518110611fac57fe5b6020026020010151600001516040518263ffffffff1660e01b81526004018082815260200191505060206040518083038186803b158015611fec57600080fd5b505afa158015612000573d6000803e3d6000fd5b505050506040513d602081101561201657600080fd5b810190808051906020019092919050505073ffffffffffffffffffffffffffffffffffffffff16141561207c5761207b85828151811061205257fe5b60200260200101516000015186838151811061206a57fe5b60200260200101516020015161216e565b5b5b8080600101915050611a48565b5080600681905550600960006120a091906123b4565b5050505050565b600080824233600754604051602001808481526020018373ffffffffffffffffffffffffffffffffffffffff1673ffffffffffffffffffffffffffffffffffffffff1660601b815260140182815260200193505050506040516020818303038152906040528051906020012060001c8161211d57fe5b06905060076000815480929190600101919050555080915050919050565b60008282111561214757fe5b818303905092915050565b60008082840190508381101561216457fe5b8091505092915050565b61217782611261565b156121cd576040517f08c379a00000000000000000000000000000000000000000000000000000000081526004018080602001828103825260498152602001806124276049913960600191505060405180910390fd5b6121d5612354565b60405180604001604052808481526020018373ffffffffffffffffffffffffffffffffffffffff168152509050600881908060018154018082558091505090600182039060005260206000209060020201600090919290919091506000820151816000015560208201518160010160006101000a81548173ffffffffffffffffffffffffffffffffffffffff021916908373ffffffffffffffffffffffffffffffffffffffff1602179055505050506008805490506123406002600460009054906101000a900473ffffffffffffffffffffffffffffffffffffffff1673ffffffffffffffffffffffffffffffffffffffff16632c8558a86040518163ffffffff1660e01b815260040160206040518083038186803b1580156122f757600080fd5b505afa15801561230b573d6000803e3d6000fd5b505050506040513d602081101561232157600080fd5b81019080805190602001909291905050506116d690919063ffffffff16565b141561234f5761234e61170d565b5b505050565b604051806040016040528060008152602001600073ffffffffffffffffffffffffffffffffffffffff1681525090565b604051806040016040528060008152602001600073ffffffffffffffffffffffffffffffffffffffff1681525090565b50805460008255600202906000526020600020908101906123d591906123d8565b50565b61242391905b8082111561241f576000808201600090556001820160006101000a81549073ffffffffffffffffffffffffffffffffffffffff0219169055506002016123de565b5090565b9056fe4b6974747920697320616c7265616479206c69737465642e2041206b697474792063616e2074616b65207061727420696e206f6e6c79206f6e652067616d6520617420612074696d654e756d626572206f66204b6974746965732073686f756c64206265206576656e206e756d626572416363657373206973206f6e6c7920616c6c6f7765642066726f6d20737065636966696320636f6e7472616374a265627a7a72305820ea8d7effd614b6dcd7f6cb5ee50f775bd1f5e34215cdf3f51a671796bb3af91064736f6c634300050a0032",
  "source": "/**\n * @title Scheduler\n *\n * @author @kittieFIGHT @ola\n *\n */\n//modifier class (DSAuth )\n//Event class ( DSNote )\n//\n// This program is free software: you can redistribute it and/or modify\n// it under the terms of the GNU General Public License as published by\n// the Free Software Foundation, either version 3 of the License, or\n// (at your option) any later version.\n\n// This program is distributed in the hope that it will be useful,\n// but WITHOUT ANY WARRANTY; without even the implied warranty of\n// MERCHANTABILITY or FITNESS FOR A PARTICULAR PURPOSE.  See the\n// GNU General Public License for more details.\n\n// You should have received a copy of the GNU General Public License\n// along with this program.  If not, see <http://www.gnu.org/licenses/>.\npragma solidity ^0.5.5;\n\nimport '../proxy/Proxied.sol';\nimport \"../../libs/SafeMath.sol\";\nimport \"../../GameVarAndFee.sol\";\nimport \"./GameManager.sol\";\nimport \"./GameCreation.sol\";\nimport \"../../interfaces/ERC721.sol\";\n\n\n/**\n * @title Scheduler\n * @dev Responsible for game Schedule\n * @author @vikrammandal\n */\n\ncontract Scheduler is Proxied {\n    using SafeMath for uint256;\n\n    //Contract Variables\n    GameManager public gameManager;\n    GameCreation public gameCreation;\n    GameVarAndFee public gameVarAndFee;\n    ERC721 public cryptoKitties;\n    uint256 lastGameCreationTime;\n\n    struct Kitty {\n        uint256 kittyId;\n        address player;\n    }\n\n    uint256 randomNonce;\n    Kitty[] kittyList;\n    Kitty[] kittyListShuffled;\n\n    /**\n     * @dev Can be called only by the owner of this contract\n     */\n    function initialize() public onlyOwner {\n        gameVarAndFee = GameVarAndFee(proxy.getContract(CONTRACT_NAME_GAMEVARANDFEE));\n        gameManager = GameManager(proxy.getContract(CONTRACT_NAME_GAMEMANAGER));\n        gameCreation = GameCreation(proxy.getContract(CONTRACT_NAME_GAMECREATION));\n        cryptoKitties = ERC721(proxy.getContract(CONTRACT_NAME_CRYPTOKITTIES));\n    }\n\n    /**\n    * @param _kittyId kitty id\n    * @param _player is the address of the player\n    */\n    function addKittyToList(uint256 _kittyId, address _player) external onlyContract(CONTRACT_NAME_GAMECREATION){\n        // a kitty may play only one game at a time\n        require(!isKittyListedForMatching(_kittyId), \"Kitty is already listed. A kitty can take part in only one game at a time\");\n\n        Kitty memory newKitty = Kitty(_kittyId, _player);\n        kittyList.push(newKitty);\n\n        if ((gameVarAndFee.getRequiredNumberMatches().mul(2)) == kittyList.length) {\n            matchKitties();\n        }\n    }\n\n    /**\n    * @param _kittyId kitty id\n    * @param _player is the address of the player\n    */\n    function addKittyToListAgain(uint256 _kittyId, address _player) private {\n        // a kitty or player may play only one game at a time\n        require(!isKittyListedForMatching(_kittyId), \"Kitty is already listed. A kitty can take part in only one game at a time\");\n\n        Kitty memory newKitty = Kitty(_kittyId, _player);\n        kittyList.push(newKitty);\n\n        if ((gameVarAndFee.getRequiredNumberMatches().mul(2)) == kittyList.length) {\n            matchKitties();\n        }\n    }\n\n\n    /**\n     * @dev Create red and black corner players\n     */\n    function matchKitties() private {\n        require(((kittyList.length % 2) == 0), \"Number of Kitties should be even number\");\n\n        shuffleKittyList();\n        uint256 gameCount = kittyListShuffled.length / 2;\n\n        Kitty[] memory playerRed = new Kitty[](gameCount);\n        Kitty[] memory playerBlack = new Kitty[](gameCount);\n\n        for(uint256 i = 0; i < playerRed.length; i++){\n            playerRed[i] = kittyListShuffled[i];\n        }\n        for(uint256 i = 0; i < playerBlack.length; i++){\n            playerBlack[i] = kittyListShuffled[i + playerRed.length];\n        }\n\n        uint256 gameTimeSeperation = gameVarAndFee.getGameTimes();\n\n        uint256 gameCreationTime = block.timestamp;\n        if (lastGameCreationTime > gameCreationTime){\n            gameCreationTime = lastGameCreationTime;\n        }\n\n        for(uint256 i = 0; i < gameCount; i++){\n            gameCreationTime = gameCreationTime.add(gameTimeSeperation);\n\n            // check kitty owners\n            if ((cryptoKitties.ownerOf(playerRed[i].kittyId) == playerRed[i].player) &&\n               (cryptoKitties.ownerOf(playerBlack[i].kittyId) == playerBlack[i].player)){\n\n                gameCreation.createFight(\n                    playerRed[i].player,\n                    playerBlack[i].player,\n                    playerRed[i].kittyId,\n                    playerBlack[i].kittyId,\n                    gameCreationTime\n                    );\n\n            }else { // owner has changed. add kitty who's owner has not changed back to unmatched list\n                if (cryptoKitties.ownerOf(playerBlack[i].kittyId) == playerBlack[i].player){\n                    addKittyToListAgain(playerBlack[i].kittyId, playerBlack[i].player);\n                }\n                if (cryptoKitties.ownerOf(playerRed[i].kittyId) == playerRed[i].player){\n                    addKittyToListAgain(playerRed[i].kittyId, playerRed[i].player);\n        }   }   }\n        lastGameCreationTime = gameCreationTime;\n        delete kittyListShuffled;\n    }\n\n    /**\n     * Shuffle Kitty List\n     */\n    function shuffleKittyList() public {\n\n        Kitty[] memory kittyListCopy = new Kitty[](kittyList.length);\n        kittyListCopy = kittyList;\n        delete kittyList;\n\n        uint256 pos;\n        Kitty memory temp;\n        for(uint i = 0; i < kittyListCopy.length; i++){\n            pos = randomNumber(kittyListCopy.length - 1);\n            temp = kittyListCopy[i];\n            kittyListCopy[i] = kittyListCopy[pos];\n            kittyListCopy[pos] = temp;\n        }\n\n        for(uint i = 0; i < kittyListCopy.length; i++){\n            kittyListShuffled.push(kittyListCopy[i]);\n        }\n    }\n\n    /**\n     * @dev Random number - very basic implementation\n     */\n    function randomNumber(uint256 max) internal returns (uint256){\n        uint256 random = uint256(keccak256(abi.encodePacked(block.timestamp, msg.sender, randomNonce))) % max;\n        randomNonce++;\n        return random;\n    }\n\n    /**\n    * @dev Checkes if kitty is listed for matching in future games\n    */\n    function isKittyListedForMatching(uint256 _kittyId) public view returns (bool) {\n        for(uint256 i = 0; i < kittyList.length ; i++){\n            if (_kittyId == kittyList[i].kittyId){\n                return true;\n            }\n        }\n        return false;\n    }\n\n    /**\n     * @dev uint256[] Returns only ids of currently un matched kitties\n     */\n    function getListedKitties() public view returns (uint256[] memory){\n        uint256[] memory unMatchedKitties = new uint256[](kittyList.length);\n        for (uint256 i = 0; i < kittyList.length; i++){\n            unMatchedKitties[i] = kittyList[i].kittyId;\n        }\n        return unMatchedKitties;\n    }\n\n    /**\n     * @dev address[] Returns addresses  of currently un mathced players\n     */\n    function getListedPlayers() public view returns (address[] memory){\n        address[] memory unMatchedPlayers = new address[](kittyList.length);\n        for (uint256 i = 0; i < kittyList.length; i++){\n            unMatchedPlayers[i] = kittyList[i].player;\n        }\n        return unMatchedPlayers;\n    }\n\n\n    /**\n     * @dev requiredNumber of listed kitties required before the next nbatches of fights is setup\n     */\n    function getRequiredMatchingNumber(uint256 nbatch) external view returns(uint256){\n        uint256[] memory currentUnMatchedKitties = getListedKitties();\n        //return  (nbatch * 2) - currentUnMatchedKitties.length;\n        return nbatch.mul(2).sub(currentUnMatchedKitties.length);\n    }\n\n\n}",
  "sourcePath": "/home/wafflemakr/Desktop/KittieFight/alpha/contracts/modules/gamemanager/Scheduler.sol",
  "compiler": {
    "name": "solc",
    "version": "0.5.10+commit.5a6ea5b1.Emscripten.clang"
  },
  "schemaVersion": "3.0.11",
  "updatedAt": "2019-08-02T23:07:11.432Z",
  "devdoc": {
    "author": "@vikrammandal",
    "details": "Responsible for game Schedule",
    "methods": {
      "addKittyToList(uint256,address)": {
        "params": {
          "_kittyId": "kitty id",
          "_player": "is the address of the player"
        }
      },
      "getListedKitties()": {
        "details": "uint256[] Returns only ids of currently un matched kitties"
      },
      "getListedPlayers()": {
        "details": "address[] Returns addresses  of currently un mathced players"
      },
      "getRequiredMatchingNumber(uint256)": {
        "details": "requiredNumber of listed kitties required before the next nbatches of fights is setup"
      },
      "initialize()": {
        "details": "Can be called only by the owner of this contract"
      },
      "isKittyListedForMatching(uint256)": {
        "details": "Checkes if kitty is listed for matching in future games"
      }
    },
    "title": "Scheduler"
  },
  "userdoc": {
    "methods": {
      "setProxy(address)": {
        "notice": "Set/update address of Proxy contract"
      },
      "shuffleKittyList()": {
        "notice": "Shuffle Kitty List"
      }
    }
  }
}