{
  "contractName": "Scheduler",
  "abi": [
    {
      "constant": true,
      "inputs": [],
      "name": "cryptoKitties",
      "outputs": [
        {
          "internalType": "contract ERC721",
          "name": "",
          "type": "address"
        }
      ],
      "payable": false,
      "stateMutability": "view",
      "type": "function"
    },
    {
      "constant": true,
      "inputs": [],
      "name": "gameCreation",
      "outputs": [
        {
          "internalType": "contract GameCreation",
          "name": "",
          "type": "address"
        }
      ],
      "payable": false,
      "stateMutability": "view",
      "type": "function"
    },
    {
      "constant": true,
      "inputs": [
        {
          "internalType": "uint256",
          "name": "",
          "type": "uint256"
        }
      ],
      "name": "gameList",
      "outputs": [
        {
          "internalType": "address",
          "name": "playerRed",
          "type": "address"
        },
        {
          "internalType": "address",
          "name": "playerBlack",
          "type": "address"
        },
        {
          "internalType": "uint256",
          "name": "kittyRed",
          "type": "uint256"
        },
        {
          "internalType": "uint256",
          "name": "kittyBlack",
          "type": "uint256"
        },
        {
          "internalType": "uint256",
          "name": "next",
          "type": "uint256"
        }
      ],
      "payable": false,
      "stateMutability": "view",
      "type": "function"
    },
    {
      "constant": true,
      "inputs": [],
      "name": "gameManager",
      "outputs": [
        {
          "internalType": "contract GameManager",
          "name": "",
          "type": "address"
        }
      ],
      "payable": false,
      "stateMutability": "view",
      "type": "function"
    },
    {
      "constant": true,
      "inputs": [],
      "name": "gameVarAndFee",
      "outputs": [
        {
          "internalType": "contract GameVarAndFee",
          "name": "",
          "type": "address"
        }
      ],
      "payable": false,
      "stateMutability": "view",
      "type": "function"
    },
    {
      "constant": true,
      "inputs": [
        {
          "internalType": "uint256",
          "name": "",
          "type": "uint256"
        }
      ],
      "name": "isKittyListed",
      "outputs": [
        {
          "internalType": "bool",
          "name": "",
          "type": "bool"
        }
      ],
      "payable": false,
      "stateMutability": "view",
      "type": "function"
    },
    {
      "constant": true,
      "inputs": [],
      "name": "kittieHell",
      "outputs": [
        {
          "internalType": "contract KittieHell",
          "name": "",
          "type": "address"
        }
      ],
      "payable": false,
      "stateMutability": "view",
      "type": "function"
    },
    {
      "constant": true,
      "inputs": [],
      "name": "owner",
      "outputs": [
        {
          "internalType": "address payable",
          "name": "",
          "type": "address"
        }
      ],
      "payable": false,
      "stateMutability": "view",
      "type": "function"
    },
    {
      "constant": true,
      "inputs": [],
      "name": "proxy",
      "outputs": [
        {
          "internalType": "contract ProxyBase",
          "name": "",
          "type": "address"
        }
      ],
      "payable": false,
      "stateMutability": "view",
      "type": "function"
    },
    {
      "constant": false,
      "inputs": [
        {
          "internalType": "contract ProxyBase",
          "name": "_proxy",
          "type": "address"
        }
      ],
      "name": "setProxy",
      "outputs": [],
      "payable": false,
      "stateMutability": "nonpayable",
      "type": "function"
    },
    {
      "constant": false,
      "inputs": [
        {
          "internalType": "address payable",
          "name": "newOwner",
          "type": "address"
        }
      ],
      "name": "transferOwnership",
      "outputs": [],
      "payable": false,
      "stateMutability": "nonpayable",
      "type": "function"
    },
    {
      "constant": false,
      "inputs": [],
      "name": "initialize",
      "outputs": [],
      "payable": false,
      "stateMutability": "nonpayable",
      "type": "function"
    },
    {
      "constant": false,
      "inputs": [
        {
          "internalType": "uint256",
          "name": "_kittyId",
          "type": "uint256"
        },
        {
          "internalType": "address",
          "name": "_player",
          "type": "address"
        }
      ],
      "name": "addKittyToList",
      "outputs": [],
      "payable": false,
      "stateMutability": "nonpayable",
      "type": "function"
    },
    {
      "constant": false,
      "inputs": [],
      "name": "startGame",
      "outputs": [],
      "payable": false,
      "stateMutability": "nonpayable",
      "type": "function"
    },
    {
      "constant": true,
      "inputs": [],
      "name": "getListedKitties",
      "outputs": [
        {
          "internalType": "uint256[]",
          "name": "",
          "type": "uint256[]"
        }
      ],
      "payable": false,
      "stateMutability": "view",
      "type": "function"
    },
    {
      "constant": true,
      "inputs": [],
      "name": "getListedPlayers",
      "outputs": [
        {
          "internalType": "address[]",
          "name": "",
          "type": "address[]"
        }
      ],
      "payable": false,
      "stateMutability": "view",
      "type": "function"
    },
    {
      "constant": true,
      "inputs": [
        {
          "internalType": "uint256",
          "name": "_kittyId",
          "type": "uint256"
        }
      ],
      "name": "isKittyListedForMatching",
      "outputs": [
        {
          "internalType": "bool",
          "name": "",
          "type": "bool"
        }
      ],
      "payable": false,
      "stateMutability": "view",
      "type": "function"
    }
  ],
  "bytecode": "0x60806040526001601160006101000a81548160ff021916908315150217905550336000806101000a81548173ffffffffffffffffffffffffffffffffffffffff021916908373ffffffffffffffffffffffffffffffffffffffff1602179055506126ad8061006e6000396000f3fe608060405234801561001057600080fd5b506004361061010b5760003560e01c806397107d6d116100a2578063c6cfd08e11610071578063c6cfd08e14610468578063d65ab5f21461051e578063ec55688914610528578063ef410f4514610572578063f2fde38b146105bc5761010b565b806397107d6d1461034a578063a3b3bd7b1461038e578063c484819d146103d8578063c6b052661461041e5761010b565b80636df970c5116100de5780636df970c5146102495780638129fc1c146102975780638917d4b1146102a15780638da5cb5b146103005761010b565b806305901e891461011057806315a194ec1461016f57806356847de9146101b95780636550b582146101ff575b600080fd5b610118610600565b6040518080602001828103825283818151815260200191508051906020019060200280838360005b8381101561015b578082015181840152602081019050610140565b505050509050019250505060405180910390f35b6101776106e9565b604051808273ffffffffffffffffffffffffffffffffffffffff1673ffffffffffffffffffffffffffffffffffffffff16815260200191505060405180910390f35b6101e5600480360360208110156101cf57600080fd5b810190808035906020019092919050505061070f565b604051808215151515815260200191505060405180910390f35b61020761072f565b604051808273ffffffffffffffffffffffffffffffffffffffff1673ffffffffffffffffffffffffffffffffffffffff16815260200191505060405180910390f35b6102956004803603604081101561025f57600080fd5b8101908080359060200190929190803573ffffffffffffffffffffffffffffffffffffffff169060200190929190505050610755565b005b61029f610b31565b005b6102a9611331565b6040518080602001828103825283818151815260200191508051906020019060200280838360005b838110156102ec5780820151818401526020810190506102d1565b505050509050019250505060405180910390f35b6103086113b9565b604051808273ffffffffffffffffffffffffffffffffffffffff1673ffffffffffffffffffffffffffffffffffffffff16815260200191505060405180910390f35b61038c6004803603602081101561036057600080fd5b81019080803573ffffffffffffffffffffffffffffffffffffffff1690602001909291905050506113de565b005b610396611478565b604051808273ffffffffffffffffffffffffffffffffffffffff1673ffffffffffffffffffffffffffffffffffffffff16815260200191505060405180910390f35b610404600480360360208110156103ee57600080fd5b810190808035906020019092919050505061149e565b604051808215151515815260200191505060405180910390f35b6104266114c8565b604051808273ffffffffffffffffffffffffffffffffffffffff1673ffffffffffffffffffffffffffffffffffffffff16815260200191505060405180910390f35b6104946004803603602081101561047e57600080fd5b81019080803590602001909291905050506114ee565b604051808673ffffffffffffffffffffffffffffffffffffffff1673ffffffffffffffffffffffffffffffffffffffff1681526020018573ffffffffffffffffffffffffffffffffffffffff1673ffffffffffffffffffffffffffffffffffffffff1681526020018481526020018381526020018281526020019550505050505060405180910390f35b610526611564565b005b6105306115f3565b604051808273ffffffffffffffffffffffffffffffffffffffff1673ffffffffffffffffffffffffffffffffffffffff16815260200191505060405180910390f35b61057a611619565b604051808273ffffffffffffffffffffffffffffffffffffffff1673ffffffffffffffffffffffffffffffffffffffff16815260200191505060405180910390f35b6105fe600480360360208110156105d257600080fd5b81019080803573ffffffffffffffffffffffffffffffffffffffff16906020019092919050505061163f565b005b606080600e546040519080825280602002602001820160405280156106345781602001602082028038833980820191505090505b50905060008090505b600e548110156106e157600c6000600d600084815260200190815260200160002054815260200190815260200160002060009054906101000a900473ffffffffffffffffffffffffffffffffffffffff1682828151811061069a57fe5b602002602001019073ffffffffffffffffffffffffffffffffffffffff16908173ffffffffffffffffffffffffffffffffffffffff1681525050808060010191505061063d565b508091505090565b600360009054906101000a900473ffffffffffffffffffffffffffffffffffffffff1681565b60106020528060005260406000206000915054906101000a900460ff1681565b600560009054906101000a900473ffffffffffffffffffffffffffffffffffffffff1681565b6040518060400160405280600c81526020017f47616d654372656174696f6e00000000000000000000000000000000000000008152506107948161170d565b826010600082815260200190815260200160002060009054906101000a900460ff161561080c576040517f08c379a00000000000000000000000000000000000000000000000000000000081526004018080602001828103825260278152602001806126256027913960400191505060405180910390fd5b600560009054906101000a900473ffffffffffffffffffffffffffffffffffffffff1673ffffffffffffffffffffffffffffffffffffffff16635fd8cc1085856040518363ffffffff1660e01b8152600401808381526020018273ffffffffffffffffffffffffffffffffffffffff1673ffffffffffffffffffffffffffffffffffffffff16815260200192505050602060405180830381600087803b1580156108b557600080fd5b505af11580156108c9573d6000803e3d6000fd5b505050506040513d60208110156108df57600080fd5b8101908080519060200190929190505050610962576040517f08c379a00000000000000000000000000000000000000000000000000000000081526004018080602001828103825260018152602001807f310000000000000000000000000000000000000000000000000000000000000081525060200191505060405180910390fd5b60016010600086815260200190815260200160002060006101000a81548160ff02191690831515021790555083600d6000600e5481526020019081526020016000208190555082600c600086815260200190815260200160002060006101000a81548173ffffffffffffffffffffffffffffffffffffffff021916908373ffffffffffffffffffffffffffffffffffffffff160217905550610a106001600e546119a890919063ffffffff16565b600e81905550600e54610acf6002600460009054906101000a900473ffffffffffffffffffffffffffffffffffffffff1673ffffffffffffffffffffffffffffffffffffffff16632c8558a86040518163ffffffff1660e01b815260040160206040518083038186803b158015610a8657600080fd5b505afa158015610a9a573d6000803e3d6000fd5b505050506040513d6020811015610ab057600080fd5b81019080805190602001909291905050506119c490919063ffffffff16565b1415610ae257610add6119fb565b610b2b565b601160009054906101000a900460ff168015610b0157506002600e5410155b15610b2a57610b0e611d8e565b6000601160006101000a81548160ff0219169083151502179055505b5b50505050565b6000809054906101000a900473ffffffffffffffffffffffffffffffffffffffff1673ffffffffffffffffffffffffffffffffffffffff163373ffffffffffffffffffffffffffffffffffffffff1614610b8757fe5b600160009054906101000a900473ffffffffffffffffffffffffffffffffffffffff1673ffffffffffffffffffffffffffffffffffffffff1663358177736040518060400160405280600d81526020017f47616d65566172416e64466565000000000000000000000000000000000000008152506040518263ffffffff1660e01b81526004018080602001828103825283818151815260200191508051906020019080838360005b83811015610c4a578082015181840152602081019050610c2f565b50505050905090810190601f168015610c775780820380516001836020036101000a031916815260200191505b509250505060206040518083038186803b158015610c9457600080fd5b505afa158015610ca8573d6000803e3d6000fd5b505050506040513d6020811015610cbe57600080fd5b8101908080519060200190929190505050600460006101000a81548173ffffffffffffffffffffffffffffffffffffffff021916908373ffffffffffffffffffffffffffffffffffffffff160217905550600160009054906101000a900473ffffffffffffffffffffffffffffffffffffffff1673ffffffffffffffffffffffffffffffffffffffff1663358177736040518060400160405280600b81526020017f47616d654d616e616765720000000000000000000000000000000000000000008152506040518263ffffffff1660e01b81526004018080602001828103825283818151815260200191508051906020019080838360005b83811015610dd2578082015181840152602081019050610db7565b50505050905090810190601f168015610dff5780820380516001836020036101000a031916815260200191505b509250505060206040518083038186803b158015610e1c57600080fd5b505afa158015610e30573d6000803e3d6000fd5b505050506040513d6020811015610e4657600080fd5b8101908080519060200190929190505050600260006101000a81548173ffffffffffffffffffffffffffffffffffffffff021916908373ffffffffffffffffffffffffffffffffffffffff160217905550600160009054906101000a900473ffffffffffffffffffffffffffffffffffffffff1673ffffffffffffffffffffffffffffffffffffffff1663358177736040518060400160405280600c81526020017f47616d654372656174696f6e00000000000000000000000000000000000000008152506040518263ffffffff1660e01b81526004018080602001828103825283818151815260200191508051906020019080838360005b83811015610f5a578082015181840152602081019050610f3f565b50505050905090810190601f168015610f875780820380516001836020036101000a031916815260200191505b509250505060206040518083038186803b158015610fa457600080fd5b505afa158015610fb8573d6000803e3d6000fd5b505050506040513d6020811015610fce57600080fd5b8101908080519060200190929190505050600360006101000a81548173ffffffffffffffffffffffffffffffffffffffff021916908373ffffffffffffffffffffffffffffffffffffffff160217905550600160009054906101000a900473ffffffffffffffffffffffffffffffffffffffff1673ffffffffffffffffffffffffffffffffffffffff1663358177736040518060400160405280600d81526020017f43727970746f4b697474696573000000000000000000000000000000000000008152506040518263ffffffff1660e01b81526004018080602001828103825283818151815260200191508051906020019080838360005b838110156110e25780820151818401526020810190506110c7565b50505050905090810190601f16801561110f5780820380516001836020036101000a031916815260200191505b509250505060206040518083038186803b15801561112c57600080fd5b505afa158015611140573d6000803e3d6000fd5b505050506040513d602081101561115657600080fd5b8101908080519060200190929190505050600660006101000a81548173ffffffffffffffffffffffffffffffffffffffff021916908373ffffffffffffffffffffffffffffffffffffffff160217905550600160009054906101000a900473ffffffffffffffffffffffffffffffffffffffff1673ffffffffffffffffffffffffffffffffffffffff1663358177736040518060400160405280600a81526020017f4b697474696548656c6c000000000000000000000000000000000000000000008152506040518263ffffffff1660e01b81526004018080602001828103825283818151815260200191508051906020019080838360005b8381101561126a57808201518184015260208101905061124f565b50505050905090810190601f1680156112975780820380516001836020036101000a031916815260200191505b509250505060206040518083038186803b1580156112b457600080fd5b505afa1580156112c8573d6000803e3d6000fd5b505050506040513d60208110156112de57600080fd5b8101908080519060200190929190505050600560006101000a81548173ffffffffffffffffffffffffffffffffffffffff021916908373ffffffffffffffffffffffffffffffffffffffff160217905550565b606080600e546040519080825280602002602001820160405280156113655781602001602082028038833980820191505090505b50905060008090505b600e548110156113b157600d60008281526020019081526020016000205482828151811061139857fe5b602002602001018181525050808060010191505061136e565b508091505090565b6000809054906101000a900473ffffffffffffffffffffffffffffffffffffffff1681565b6000809054906101000a900473ffffffffffffffffffffffffffffffffffffffff1673ffffffffffffffffffffffffffffffffffffffff163373ffffffffffffffffffffffffffffffffffffffff161461143457fe5b80600160006101000a81548173ffffffffffffffffffffffffffffffffffffffff021916908373ffffffffffffffffffffffffffffffffffffffff16021790555050565b600460009054906101000a900473ffffffffffffffffffffffffffffffffffffffff1681565b60006010600083815260200190815260200160002060009054906101000a900460ff169050919050565b600260009054906101000a900473ffffffffffffffffffffffffffffffffffffffff1681565b60086020528060005260406000206000915090508060000160009054906101000a900473ffffffffffffffffffffffffffffffffffffffff16908060010160009054906101000a900473ffffffffffffffffffffffffffffffffffffffff16908060020154908060030154908060040154905085565b6040518060400160405280600981526020017f47616d6553746f726500000000000000000000000000000000000000000000008152506115a38161170d565b600060095414156115e7576002600e5410156115d9576001601160006101000a81548160ff0219169083151502179055506115e2565b6115e1611d8e565b5b6115f0565b6115ef6120e1565b5b50565b600160009054906101000a900473ffffffffffffffffffffffffffffffffffffffff1681565b600660009054906101000a900473ffffffffffffffffffffffffffffffffffffffff1681565b6000809054906101000a900473ffffffffffffffffffffffffffffffffffffffff1673ffffffffffffffffffffffffffffffffffffffff163373ffffffffffffffffffffffffffffffffffffffff161461169557fe5b600073ffffffffffffffffffffffffffffffffffffffff168173ffffffffffffffffffffffffffffffffffffffff161461170a57806000806101000a81548173ffffffffffffffffffffffffffffffffffffffff021916908373ffffffffffffffffffffffffffffffffffffffff1602179055505b50565b600073ffffffffffffffffffffffffffffffffffffffff16600160009054906101000a900473ffffffffffffffffffffffffffffffffffffffff1673ffffffffffffffffffffffffffffffffffffffff1614156117d2576040517f08c379a00000000000000000000000000000000000000000000000000000000081526004018080602001828103825260088152602001807f4e6f2050726f787900000000000000000000000000000000000000000000000081525060200191505060405180910390fd5b6000600160009054906101000a900473ffffffffffffffffffffffffffffffffffffffff1673ffffffffffffffffffffffffffffffffffffffff166335817773836040518263ffffffff1660e01b81526004018080602001828103825283818151815260200191508051906020019080838360005b83811015611862578082015181840152602081019050611847565b50505050905090810190601f16801561188f5780820380516001836020036101000a031916815260200191505b509250505060206040518083038186803b1580156118ac57600080fd5b505afa1580156118c0573d6000803e3d6000fd5b505050506040513d60208110156118d657600080fd5b81019080805190602001909291905050509050600073ffffffffffffffffffffffffffffffffffffffff168173ffffffffffffffffffffffffffffffffffffffff16141561192057fe5b8073ffffffffffffffffffffffffffffffffffffffff163373ffffffffffffffffffffffffffffffffffffffff16146119a4576040517f08c379a000000000000000000000000000000000000000000000000000000000815260040180806020018281038252602d81526020018061264c602d913960400191505060405180910390fd5b5050565b6000808284019050838110156119ba57fe5b8091505092915050565b6000808314156119d757600090506119f5565b60008284029050828482816119e857fe5b04146119f057fe5b809150505b92915050565b611a0361235b565b611a0b6125c9565b60008090505b611a276002600e546123e790919063ffffffff16565b811015611d4957600c6000600d600084815260200190815260200160002054815260200190815260200160002060009054906101000a900473ffffffffffffffffffffffffffffffffffffffff16826000019073ffffffffffffffffffffffffffffffffffffffff16908173ffffffffffffffffffffffffffffffffffffffff1681525050600c6000600d6000611ac86001866119a890919063ffffffff16565b815260200190815260200160002054815260200190815260200160002060009054906101000a900473ffffffffffffffffffffffffffffffffffffffff16826020019073ffffffffffffffffffffffffffffffffffffffff16908173ffffffffffffffffffffffffffffffffffffffff1681525050600d600082815260200190815260200160002054826040018181525050600d6000611b726001846119a890919063ffffffff16565b815260200190815260200160002054826060018181525050600060106000600d600085815260200190815260200160002054815260200190815260200160002060006101000a81548160ff021916908315150217905550600060106000600d6000611be76001876119a890919063ffffffff16565b815260200190815260200160002054815260200190815260200160002060006101000a81548160ff021916908315150217905550611c316001600b546119a890919063ffffffff16565b600b8190555060006009541415611c5057600b54600981905550611c70565b600b5460086000600a548152602001908152602001600020600401819055505b600b54600a819055508160086000600b54815260200190815260200160002060008201518160000160006101000a81548173ffffffffffffffffffffffffffffffffffffffff021916908373ffffffffffffffffffffffffffffffffffffffff16021790555060208201518160010160006101000a81548173ffffffffffffffffffffffffffffffffffffffff021916908373ffffffffffffffffffffffffffffffffffffffff160217905550604082015181600201556060820151816003015560808201518160040155905050600281019050611a11565b506000600e81905550601160009054906101000a900460ff1615611d8b57611d6f6120e1565b6000601160006101000a81548160ff0219169083151502179055505b50565b611d9661235b565b611d9e6125c9565b600c6000600d6000611dbc6001600e5461240090919063ffffffff16565b815260200190815260200160002054815260200190815260200160002060009054906101000a900473ffffffffffffffffffffffffffffffffffffffff16816000019073ffffffffffffffffffffffffffffffffffffffff16908173ffffffffffffffffffffffffffffffffffffffff1681525050600c6000600d6000611e4f6002600e5461240090919063ffffffff16565b815260200190815260200160002054815260200190815260200160002060009054906101000a900473ffffffffffffffffffffffffffffffffffffffff16816020019073ffffffffffffffffffffffffffffffffffffffff16908173ffffffffffffffffffffffffffffffffffffffff1681525050600d6000611ede6001600e5461240090919063ffffffff16565b815260200190815260200160002054816040018181525050600d6000611f106002600e5461240090919063ffffffff16565b815260200190815260200160002054816060018181525050600060106000600d6000611f486001600e5461240090919063ffffffff16565b815260200190815260200160002054815260200190815260200160002060006101000a81548160ff021916908315150217905550600060106000600d6000611f9c6002600e5461240090919063ffffffff16565b815260200190815260200160002054815260200190815260200160002060006101000a81548160ff021916908315150217905550611fe66001600b546119a890919063ffffffff16565b600b819055506120026002600e5461240090919063ffffffff16565b600e819055508060086000600b54815260200190815260200160002060008201518160000160006101000a81548173ffffffffffffffffffffffffffffffffffffffff021916908373ffffffffffffffffffffffffffffffffffffffff16021790555060208201518160010160006101000a81548173ffffffffffffffffffffffffffffffffffffffff021916908373ffffffffffffffffffffffffffffffffffffffff160217905550604082015181600201556060820151816003015560808201518160040155905050600b546009819055506120de6120e1565b50565b600360009054906101000a900473ffffffffffffffffffffffffffffffffffffffff1673ffffffffffffffffffffffffffffffffffffffff16630144154160086000600954815260200190815260200160002060000160009054906101000a900473ffffffffffffffffffffffffffffffffffffffff1660086000600954815260200190815260200160002060010160009054906101000a900473ffffffffffffffffffffffffffffffffffffffff16600860006009548152602001908152602001600020600201546008600060095481526020019081526020016000206003015461227842600460009054906101000a900473ffffffffffffffffffffffffffffffffffffffff1673ffffffffffffffffffffffffffffffffffffffff1663a38bcf206040518163ffffffff1660e01b815260040160206040518083038186803b15801561222f57600080fd5b505afa158015612243573d6000803e3d6000fd5b505050506040513d602081101561225957600080fd5b81019080805190602001909291905050506119a890919063ffffffff16565b6040518663ffffffff1660e01b8152600401808673ffffffffffffffffffffffffffffffffffffffff1673ffffffffffffffffffffffffffffffffffffffff1681526020018573ffffffffffffffffffffffffffffffffffffffff1673ffffffffffffffffffffffffffffffffffffffff16815260200184815260200183815260200182815260200195505050505050600060405180830381600087803b15801561232257600080fd5b505af1158015612336573d6000803e3d6000fd5b5050505060086000600954815260200190815260200160002060040154600981905550565b60008090505b600e548110156123e4576000600d60008381526020019081526020016000205490506000612390600e54612417565b9050600d600082815260200190815260200160002054600d60008581526020019081526020016000208190555081600d60008381526020019081526020016000208190555050508080600101915050612361565b50565b6000808284816123f357fe5b0490508091505092915050565b60008282111561240c57fe5b818303905092915050565b600080612497834233600f54604051602001808481526020018373ffffffffffffffffffffffffffffffffffffffff1673ffffffffffffffffffffffffffffffffffffffff1660601b815260140182815260200193505050506040516020818303038152906040528051906020012060001c6124be90919063ffffffff16565b90506124af6001600f546119a890919063ffffffff16565b600f8190555080915050919050565b600061250083836040518060400160405280601881526020017f536166654d6174683a206d6f64756c6f206279207a65726f0000000000000000815250612508565b905092915050565b60008083141582906125b5576040517f08c379a00000000000000000000000000000000000000000000000000000000081526004018080602001828103825283818151815260200191508051906020019080838360005b8381101561257a57808201518184015260208101905061255f565b50505050905090810190601f1680156125a75780820380516001836020036101000a031916815260200191505b509250505060405180910390fd5b508284816125bf57fe5b0690509392505050565b6040518060a00160405280600073ffffffffffffffffffffffffffffffffffffffff168152602001600073ffffffffffffffffffffffffffffffffffffffff168152602001600081526020016000815260200160008152509056fe5363686564756c65723a2043616e6e6f74206c6973742073616d65204b6974747920616761696e416363657373206973206f6e6c7920616c6c6f7765642066726f6d20737065636966696320636f6e7472616374a265627a7a723158204c501a6791928f9aab745aaaccf6d1f9e3106d4b56b59f38316144fdc90a6ba264736f6c63430005110032",
  "source": "/* Code by Xaleee ======================================================================================= Kittiefight */\r\n\r\n/**\r\n * @title Scheduler\r\n *\r\n * @author @kittieFIGHT @ola\r\n *\r\n */\r\n//modifier class (DSAuth )\r\n//Event class ( DSNote )\r\n//\r\n// This program is free software: you can redistribute it and/or modify\r\n// it under the terms of the GNU General Public License as published by\r\n// the Free Software Foundation, either version 3 of the License, or\r\n// (at your option) any later version.\r\n\r\n// This program is distributed in the hope that it will be useful,\r\n// but WITHOUT ANY WARRANTY; without even the implied warranty of\r\n// MERCHANTABILITY or FITNESS FOR A PARTICULAR PURPOSE.  See the\r\n// GNU General Public License for more details.\r\n\r\n// You should have received a copy of the GNU General Public License\r\n// along with this program.  If not, see <http://www.gnu.org/licenses/>.\r\npragma solidity ^0.5.5;\r\n\r\nimport '../proxy/Proxied.sol';\r\nimport \"../../libs/SafeMath.sol\";\r\nimport \"../../GameVarAndFee.sol\";\r\nimport \"./GameManager.sol\";\r\nimport \"./GameCreation.sol\";\r\nimport \"../../interfaces/ERC721.sol\";\r\nimport \"../kittieHELL/KittieHell.sol\";\r\n\r\n/**\r\n * @title Scheduler\r\n * @dev Responsible for game Schedule\r\n * @author @Xaleee\r\n */\r\n\r\ncontract Scheduler is Proxied {\r\n    using SafeMath for uint256;\r\n\r\n    //Contract Variables\r\n    GameManager public gameManager;\r\n    GameCreation public gameCreation;\r\n    GameVarAndFee public gameVarAndFee;\r\n    KittieHell public kittieHell;\r\n    ERC721 public cryptoKitties;\r\n    uint256 lastGameCreationTime;\r\n\r\n    struct Game {\r\n        address playerRed;\r\n        address playerBlack;\r\n        uint256 kittyRed;\r\n        uint256 kittyBlack;\r\n        uint256 next;\r\n    }\r\n\r\n    mapping(uint256 => Game) public gameList;\r\n\r\n    uint256 headGame;\r\n    uint256 tailGame;\r\n    uint256 noOfGames;\r\n\r\n    mapping(uint256 => address) kittyOwner;\r\n    mapping(uint256 => uint256) kittyList;\r\n\r\n    uint256 noOfKittiesListed;\r\n\r\n    uint256 randomNonce;\r\n\r\n    mapping(uint256 => bool) public isKittyListed;\r\n\r\n    bool immediateStart = true;\r\n\r\n    /*                                                GENERAL VARIABLES                                               */\r\n    /*                                                       END                                                      */\r\n    /* ============================================================================================================== */\r\n\r\n    /*                                                    MODIFIERS                                                   */\r\n    /*                                                      START                                                     */\r\n    /* ============================================================================================================== */\r\n\r\n    modifier onlyUnlistedKitty(uint256 _kittyId) { \r\n        require(!isKittyListed[_kittyId], \"Scheduler: Cannot list same Kitty again\");\r\n        _;\r\n    }\r\n    \r\n\r\n    /*                                                    MODIFIERS                                                   */\r\n    /*                                                       END                                                      */\r\n    /* ============================================================================================================== */\r\n\r\n    /*                                                   INITIALIZOR                                                  */\r\n    /*                                                      START                                                     */\r\n    /* ============================================================================================================== */\r\n\r\n    /**\r\n    * @dev Initializes all contracts needed for Scheduler.\r\n    */\r\n    function initialize() public onlyOwner {\r\n        gameVarAndFee = GameVarAndFee(proxy.getContract(CONTRACT_NAME_GAMEVARANDFEE));\r\n        gameManager = GameManager(proxy.getContract(CONTRACT_NAME_GAMEMANAGER));\r\n        gameCreation = GameCreation(proxy.getContract(CONTRACT_NAME_GAMECREATION));\r\n        cryptoKitties = ERC721(proxy.getContract(CONTRACT_NAME_CRYPTOKITTIES));\r\n        kittieHell = KittieHell(proxy.getContract(CONTRACT_NAME_KITTIEHELL));\r\n    }\r\n\r\n    /*                                                   INITIALIZOR                                                  */\r\n    /*                                                       END                                                      */\r\n    /* ============================================================================================================== */\r\n\r\n    /*                                                 ACTION FUNCTIONS                                               */\r\n    /*                                                      START                                                     */\r\n    /* ============================================================================================================== */\r\n\r\n    /**\r\n    * @param _kittyId kitty id\r\n    * @param _player is the address of the player\r\n    */\r\n    function addKittyToList(uint256 _kittyId, address _player)\r\n    external\r\n    onlyContract(CONTRACT_NAME_GAMECREATION)\r\n    onlyUnlistedKitty(_kittyId)\r\n    {\r\n        require(kittieHell.acquireKitty(_kittyId, _player), \"1\");\r\n        isKittyListed[_kittyId] = true;\r\n        kittyList[noOfKittiesListed] = _kittyId;\r\n        kittyOwner[_kittyId] = _player;\r\n        \r\n        noOfKittiesListed = noOfKittiesListed.add(1);\r\n\r\n        if((gameVarAndFee.getRequiredNumberMatches().mul(2)) == noOfKittiesListed)\r\n            matchKitties();\r\n        else if(immediateStart && noOfKittiesListed >= 2) {\r\n            createFlashGame();\r\n            immediateStart = false;\r\n        }\r\n    }\r\n\r\n    /**\r\n     * @dev This function is called by GameManager's finalize function, so as a new game to be created immediately.\r\n     *      In case there are no matches created yet, it checks if there are 2 or more available kitties in Kittylist.\r\n     *      If yes, it creates a flash game for two random kitties, otherwise it makes immediateStart true, so as when\r\n     *      two kitties come in kittyList a flashGame to be created.\r\n     */\r\n    function startGame()\r\n    external\r\n    onlyContract(CONTRACT_NAME_GAMESTORE)\r\n    {\r\n        if(headGame == 0) {\r\n            if(noOfKittiesListed < 2)\r\n                immediateStart = true;\r\n            else\r\n                createFlashGame();\r\n        }\r\n        else\r\n            _startGame();\r\n    }\r\n    \r\n    /*                                                 ACTION FUNCTIONS                                               */\r\n    /*                                                       END                                                      */\r\n    /* ============================================================================================================== */\r\n\r\n    /*                                                 GETTER FUNCTIONS                                               */\r\n    /*                                                      START                                                     */\r\n    /* ============================================================================================================== */\r\n\r\n    /**\r\n     * @dev This function is returning the kitties that are listed in kittyList.\r\n     */\r\n    function getListedKitties() public view returns (uint256[] memory){\r\n        uint256[] memory listedKitties = new uint256[](noOfKittiesListed);\r\n        for (uint256 i = 0; i < noOfKittiesListed; i++){\r\n            listedKitties[i] = kittyList[i];\r\n        }\r\n        return listedKitties;\r\n    }\r\n\r\n    /**\r\n     * @dev This function is returning the addresses of players that their Kitties are listed in kittyList.\r\n     */\r\n    function getListedPlayers() public view returns (address[] memory){\r\n        address[] memory listedPlayers = new address[](noOfKittiesListed);\r\n        for (uint256 i = 0; i < noOfKittiesListed; i++){\r\n            listedPlayers[i] = kittyOwner[kittyList[i]];\r\n        }\r\n        return listedPlayers;\r\n    }\r\n\r\n    /**\r\n     * @dev This function is returning true when kitty is in kittyList and false when not.\r\n     */\r\n    function isKittyListedForMatching(uint256 _kittyId)\r\n    external\r\n    view\r\n    returns(bool)\r\n    {\r\n        return isKittyListed[_kittyId];\r\n    }\r\n\r\n    /*                                                 GETTER FUNCTIONS                                               */\r\n    /*                                                       END                                                      */\r\n    /* ============================================================================================================== */\r\n\r\n    /*                                                INTERNAL FUNCTIONS                                              */\r\n    /*                                                      START                                                     */\r\n    /* ============================================================================================================== */\r\n\r\n    /**\r\n     * @dev This function is creating a flash games. Flash games are created when list has not yet reached the\r\n     *      required amount of Kitties, but gameManager asked for a game (case where no game exists).\r\n     */\r\n    function createFlashGame()\r\n    internal\r\n    {\r\n        shuffleKittyList();\r\n\r\n        Game memory game;\r\n        game.playerRed = kittyOwner[kittyList[noOfKittiesListed.sub(1)]];\r\n        game.playerBlack = kittyOwner[kittyList[noOfKittiesListed.sub(2)]];\r\n        game.kittyRed = kittyList[noOfKittiesListed.sub(1)];\r\n        game.kittyBlack = kittyList[noOfKittiesListed.sub(2)];\r\n\r\n        isKittyListed[kittyList[noOfKittiesListed.sub(1)]] = false;\r\n        isKittyListed[kittyList[noOfKittiesListed.sub(2)]] = false;\r\n\r\n        noOfGames = noOfGames.add(1);\r\n        noOfKittiesListed = noOfKittiesListed.sub(2);\r\n\r\n        gameList[noOfGames] = game;\r\n        headGame = noOfGames;\r\n\r\n        _startGame();\r\n    }\r\n\r\n    /**\r\n     * @dev This function is creating a whole list of games when required kitties are listed.\r\n     *      Starts a created game immediatelly if immediateStart is true.\r\n     */\r\n    function matchKitties() internal {\r\n        shuffleKittyList();\r\n\r\n        Game memory game;\r\n\r\n        for(uint256 i = 0; i < noOfKittiesListed.div(2); i += 2) {\r\n            game.playerRed = kittyOwner[kittyList[i]];\r\n            game.playerBlack = kittyOwner[kittyList[i.add(1)]];\r\n            game.kittyRed = kittyList[i];\r\n            game.kittyBlack = kittyList[i.add(1)];\r\n\r\n            isKittyListed[kittyList[i]] = false;\r\n            isKittyListed[kittyList[i.add(1)]] = false;\r\n\r\n            noOfGames = noOfGames.add(1);\r\n\r\n            if(headGame == 0)\r\n                headGame = noOfGames;\r\n            else\r\n                gameList[tailGame].next = noOfGames;\r\n\r\n            tailGame = noOfGames;\r\n            gameList[noOfGames] = game;\r\n        }\r\n\r\n        noOfKittiesListed = 0;\r\n\r\n        if(immediateStart) {\r\n            _startGame();\r\n            immediateStart = false;\r\n        }\r\n    }\r\n\r\n    /**\r\n     * @dev This function is creating a game, which becomes scheduled immediately.\r\n     */\r\n    function _startGame()\r\n    internal\r\n    {\r\n        gameCreation.createFight(\r\n            gameList[headGame].playerRed,\r\n            gameList[headGame].playerBlack,\r\n            gameList[headGame].kittyRed,\r\n            gameList[headGame].kittyBlack,\r\n            gameVarAndFee.getGameTimes().add(now)\r\n        );\r\n\r\n        headGame = gameList[headGame].next;\r\n    }\r\n\r\n\r\n    /**\r\n     * @dev This function is shuffling the list of Kitties, for random matching.\r\n     */\r\n    function shuffleKittyList() internal {\r\n        for(uint256 i = 0; i < noOfKittiesListed; i++) {\r\n            uint256 tempKitty = kittyList[i];\r\n            uint256 index = randomNumber(noOfKittiesListed);\r\n            kittyList[i] = kittyList[index];\r\n            kittyList[index] = tempKitty;\r\n        }\r\n    }\r\n\r\n    /**\r\n     * @dev This function is providing a random number between 0 and max.\r\n     * @param max The number generated is less than max (not euqal).\r\n     */\r\n    function randomNumber(uint256 max) internal returns (uint256){\r\n        uint256 random = uint256(keccak256(abi.encodePacked(block.timestamp, msg.sender, randomNonce))).mod(max);\r\n        randomNonce = randomNonce.add(1);\r\n        return random;\r\n    }\r\n    \r\n    /*                                                INTERNAL FUNCTIONS                                              */\r\n    /*                                                       END                                                      */\r\n    /* ============================================================================================================== */\r\n}\r\n",
  "sourcePath": "C:\\Users\\Alex\\Desktop\\MyProjects\\alpha\\contracts\\modules\\gamemanager\\Scheduler.sol",
  "compiler": {
    "name": "solc",
    "version": "0.5.17+commit.d19bba13.Emscripten.clang"
  },
  "schemaVersion": "3.0.11",
  "updatedAt": "2020-04-19T21:47:22.304Z",
  "devdoc": {
    "author": "@Xaleee",
    "details": "Responsible for game Schedule",
    "methods": {
      "addKittyToList(uint256,address)": {
        "params": {
          "_kittyId": "kitty id",
          "_player": "is the address of the player"
        }
      },
      "getListedKitties()": {
        "details": "This function is returning the kitties that are listed in kittyList."
      },
      "getListedPlayers()": {
        "details": "This function is returning the addresses of players that their Kitties are listed in kittyList."
      },
      "initialize()": {
        "details": "Initializes all contracts needed for Scheduler."
      },
      "isKittyListedForMatching(uint256)": {
        "details": "This function is returning true when kitty is in kittyList and false when not."
      },
      "startGame()": {
        "details": "This function is called by GameManager's finalize function, so as a new game to be created immediately.     In case there are no matches created yet, it checks if there are 2 or more available kitties in Kittylist.     If yes, it creates a flash game for two random kitties, otherwise it makes immediateStart true, so as when     two kitties come in kittyList a flashGame to be created."
      }
    },
    "title": "Scheduler"
  },
  "userdoc": {
    "methods": {
      "setProxy(address)": {
        "notice": "Set/update address of Proxy contract"
      }
    }
  }
}