{
  "contractName": "Scheduler",
  "abi": [
    {
      "constant": true,
      "inputs": [],
      "name": "cryptoKitties",
      "outputs": [
        {
          "internalType": "contract ERC721",
          "name": "",
          "type": "address"
        }
      ],
      "payable": false,
      "stateMutability": "view",
      "type": "function"
    },
    {
      "constant": true,
      "inputs": [],
      "name": "gameCreation",
      "outputs": [
        {
          "internalType": "contract GameCreation",
          "name": "",
          "type": "address"
        }
      ],
      "payable": false,
      "stateMutability": "view",
      "type": "function"
    },
    {
      "constant": true,
      "inputs": [
        {
          "internalType": "uint256",
          "name": "",
          "type": "uint256"
        }
      ],
      "name": "gameList",
      "outputs": [
        {
          "internalType": "address",
          "name": "playerRed",
          "type": "address"
        },
        {
          "internalType": "address",
          "name": "playerBlack",
          "type": "address"
        },
        {
          "internalType": "uint256",
          "name": "kittyRed",
          "type": "uint256"
        },
        {
          "internalType": "uint256",
          "name": "kittyBlack",
          "type": "uint256"
        },
        {
          "internalType": "uint256",
          "name": "next",
          "type": "uint256"
        }
      ],
      "payable": false,
      "stateMutability": "view",
      "type": "function"
    },
    {
      "constant": true,
      "inputs": [],
      "name": "gameManager",
      "outputs": [
        {
          "internalType": "contract GameManager",
          "name": "",
          "type": "address"
        }
      ],
      "payable": false,
      "stateMutability": "view",
      "type": "function"
    },
    {
      "constant": true,
      "inputs": [],
      "name": "gameVarAndFee",
      "outputs": [
        {
          "internalType": "contract GameVarAndFee",
          "name": "",
          "type": "address"
        }
      ],
      "payable": false,
      "stateMutability": "view",
      "type": "function"
    },
    {
      "constant": true,
      "inputs": [
        {
          "internalType": "uint256",
          "name": "",
          "type": "uint256"
        }
      ],
      "name": "isKittyListed",
      "outputs": [
        {
          "internalType": "bool",
          "name": "",
          "type": "bool"
        }
      ],
      "payable": false,
      "stateMutability": "view",
      "type": "function"
    },
    {
      "constant": true,
      "inputs": [],
      "name": "kittieHell",
      "outputs": [
        {
          "internalType": "contract KittieHell",
          "name": "",
          "type": "address"
        }
      ],
      "payable": false,
      "stateMutability": "view",
      "type": "function"
    },
    {
      "constant": true,
      "inputs": [],
      "name": "owner",
      "outputs": [
        {
          "internalType": "address payable",
          "name": "",
          "type": "address"
        }
      ],
      "payable": false,
      "stateMutability": "view",
      "type": "function"
    },
    {
      "constant": true,
      "inputs": [],
      "name": "proxy",
      "outputs": [
        {
          "internalType": "contract ProxyBase",
          "name": "",
          "type": "address"
        }
      ],
      "payable": false,
      "stateMutability": "view",
      "type": "function"
    },
    {
      "constant": false,
      "inputs": [
        {
          "internalType": "contract ProxyBase",
          "name": "_proxy",
          "type": "address"
        }
      ],
      "name": "setProxy",
      "outputs": [],
      "payable": false,
      "stateMutability": "nonpayable",
      "type": "function"
    },
    {
      "constant": false,
      "inputs": [
        {
          "internalType": "address payable",
          "name": "newOwner",
          "type": "address"
        }
      ],
      "name": "transferOwnership",
      "outputs": [],
      "payable": false,
      "stateMutability": "nonpayable",
      "type": "function"
    },
    {
      "constant": false,
      "inputs": [],
      "name": "initialize",
      "outputs": [],
      "payable": false,
      "stateMutability": "nonpayable",
      "type": "function"
    },
    {
      "constant": false,
      "inputs": [
        {
          "internalType": "uint256",
          "name": "_kittyId",
          "type": "uint256"
        },
        {
          "internalType": "address",
          "name": "_player",
          "type": "address"
        }
      ],
      "name": "addKittyToList",
      "outputs": [],
      "payable": false,
      "stateMutability": "nonpayable",
      "type": "function"
    },
    {
      "constant": false,
      "inputs": [],
      "name": "startGame",
      "outputs": [],
      "payable": false,
      "stateMutability": "nonpayable",
      "type": "function"
    },
    {
      "constant": true,
      "inputs": [],
      "name": "getListedKitties",
      "outputs": [
        {
          "internalType": "uint256[]",
          "name": "",
          "type": "uint256[]"
        }
      ],
      "payable": false,
      "stateMutability": "view",
      "type": "function"
    },
    {
      "constant": true,
      "inputs": [],
      "name": "getListedPlayers",
      "outputs": [
        {
          "internalType": "address[]",
          "name": "",
          "type": "address[]"
        }
      ],
      "payable": false,
      "stateMutability": "view",
      "type": "function"
    },
    {
      "constant": true,
      "inputs": [
        {
          "internalType": "uint256",
          "name": "_kittyId",
          "type": "uint256"
        }
      ],
      "name": "isKittyListedForMatching",
      "outputs": [
        {
          "internalType": "bool",
          "name": "",
          "type": "bool"
        }
      ],
      "payable": false,
      "stateMutability": "view",
      "type": "function"
    }
  ],
  "bytecode": "0x60806040526001601160006101000a81548160ff021916908315150217905550336000806101000a81548173ffffffffffffffffffffffffffffffffffffffff021916908373ffffffffffffffffffffffffffffffffffffffff1602179055506126448061006e6000396000f3fe608060405234801561001057600080fd5b506004361061010b5760003560e01c806397107d6d116100a2578063c6cfd08e11610071578063c6cfd08e14610468578063d65ab5f21461051e578063ec55688914610528578063ef410f4514610572578063f2fde38b146105bc5761010b565b806397107d6d1461034a578063a3b3bd7b1461038e578063c484819d146103d8578063c6b052661461041e5761010b565b80636df970c5116100de5780636df970c5146102495780638129fc1c146102975780638917d4b1146102a15780638da5cb5b146103005761010b565b806305901e891461011057806315a194ec1461016f57806356847de9146101b95780636550b582146101ff575b600080fd5b610118610600565b6040518080602001828103825283818151815260200191508051906020019060200280838360005b8381101561015b578082015181840152602081019050610140565b505050509050019250505060405180910390f35b6101776106e9565b604051808273ffffffffffffffffffffffffffffffffffffffff1673ffffffffffffffffffffffffffffffffffffffff16815260200191505060405180910390f35b6101e5600480360360208110156101cf57600080fd5b810190808035906020019092919050505061070f565b604051808215151515815260200191505060405180910390f35b61020761072f565b604051808273ffffffffffffffffffffffffffffffffffffffff1673ffffffffffffffffffffffffffffffffffffffff16815260200191505060405180910390f35b6102956004803603604081101561025f57600080fd5b8101908080359060200190929190803573ffffffffffffffffffffffffffffffffffffffff169060200190929190505050610755565b005b61029f610ac8565b005b6102a96112c8565b6040518080602001828103825283818151815260200191508051906020019060200280838360005b838110156102ec5780820151818401526020810190506102d1565b505050509050019250505060405180910390f35b610308611350565b604051808273ffffffffffffffffffffffffffffffffffffffff1673ffffffffffffffffffffffffffffffffffffffff16815260200191505060405180910390f35b61038c6004803603602081101561036057600080fd5b81019080803573ffffffffffffffffffffffffffffffffffffffff169060200190929190505050611375565b005b61039661140f565b604051808273ffffffffffffffffffffffffffffffffffffffff1673ffffffffffffffffffffffffffffffffffffffff16815260200191505060405180910390f35b610404600480360360208110156103ee57600080fd5b8101908080359060200190929190505050611435565b604051808215151515815260200191505060405180910390f35b61042661145f565b604051808273ffffffffffffffffffffffffffffffffffffffff1673ffffffffffffffffffffffffffffffffffffffff16815260200191505060405180910390f35b6104946004803603602081101561047e57600080fd5b8101908080359060200190929190505050611485565b604051808673ffffffffffffffffffffffffffffffffffffffff1673ffffffffffffffffffffffffffffffffffffffff1681526020018573ffffffffffffffffffffffffffffffffffffffff1673ffffffffffffffffffffffffffffffffffffffff1681526020018481526020018381526020018281526020019550505050505060405180910390f35b6105266114fb565b005b61053061158a565b604051808273ffffffffffffffffffffffffffffffffffffffff1673ffffffffffffffffffffffffffffffffffffffff16815260200191505060405180910390f35b61057a6115b0565b604051808273ffffffffffffffffffffffffffffffffffffffff1673ffffffffffffffffffffffffffffffffffffffff16815260200191505060405180910390f35b6105fe600480360360208110156105d257600080fd5b81019080803573ffffffffffffffffffffffffffffffffffffffff1690602001909291905050506115d6565b005b606080600e546040519080825280602002602001820160405280156106345781602001602082028038833980820191505090505b50905060008090505b600e548110156106e157600c6000600d600084815260200190815260200160002054815260200190815260200160002060009054906101000a900473ffffffffffffffffffffffffffffffffffffffff1682828151811061069a57fe5b602002602001019073ffffffffffffffffffffffffffffffffffffffff16908173ffffffffffffffffffffffffffffffffffffffff1681525050808060010191505061063d565b508091505090565b600360009054906101000a900473ffffffffffffffffffffffffffffffffffffffff1681565b60106020528060005260406000206000915054906101000a900460ff1681565b600560009054906101000a900473ffffffffffffffffffffffffffffffffffffffff1681565b6040518060400160405280600c81526020017f47616d654372656174696f6e0000000000000000000000000000000000000000815250610794816116a4565b826010600082815260200190815260200160002060009054906101000a900460ff161561080c576040517f08c379a00000000000000000000000000000000000000000000000000000000081526004018080602001828103825260278152602001806125bc6027913960400191505060405180910390fd5b600560009054906101000a900473ffffffffffffffffffffffffffffffffffffffff1673ffffffffffffffffffffffffffffffffffffffff16635fd8cc1085856040518363ffffffff1660e01b8152600401808381526020018273ffffffffffffffffffffffffffffffffffffffff1673ffffffffffffffffffffffffffffffffffffffff16815260200192505050602060405180830381600087803b1580156108b557600080fd5b505af11580156108c9573d6000803e3d6000fd5b505050506040513d60208110156108df57600080fd5b81019080805190602001909291905050506108f957600080fd5b60016010600086815260200190815260200160002060006101000a81548160ff02191690831515021790555083600d6000600e5481526020019081526020016000208190555082600c600086815260200190815260200160002060006101000a81548173ffffffffffffffffffffffffffffffffffffffff021916908373ffffffffffffffffffffffffffffffffffffffff1602179055506109a76001600e5461193f90919063ffffffff16565b600e81905550600e54610a666002600460009054906101000a900473ffffffffffffffffffffffffffffffffffffffff1673ffffffffffffffffffffffffffffffffffffffff16632c8558a86040518163ffffffff1660e01b815260040160206040518083038186803b158015610a1d57600080fd5b505afa158015610a31573d6000803e3d6000fd5b505050506040513d6020811015610a4757600080fd5b810190808051906020019092919050505061195b90919063ffffffff16565b1415610a7957610a74611992565b610ac2565b601160009054906101000a900460ff168015610a9857506002600e5410155b15610ac157610aa5611d25565b6000601160006101000a81548160ff0219169083151502179055505b5b50505050565b6000809054906101000a900473ffffffffffffffffffffffffffffffffffffffff1673ffffffffffffffffffffffffffffffffffffffff163373ffffffffffffffffffffffffffffffffffffffff1614610b1e57fe5b600160009054906101000a900473ffffffffffffffffffffffffffffffffffffffff1673ffffffffffffffffffffffffffffffffffffffff1663358177736040518060400160405280600d81526020017f47616d65566172416e64466565000000000000000000000000000000000000008152506040518263ffffffff1660e01b81526004018080602001828103825283818151815260200191508051906020019080838360005b83811015610be1578082015181840152602081019050610bc6565b50505050905090810190601f168015610c0e5780820380516001836020036101000a031916815260200191505b509250505060206040518083038186803b158015610c2b57600080fd5b505afa158015610c3f573d6000803e3d6000fd5b505050506040513d6020811015610c5557600080fd5b8101908080519060200190929190505050600460006101000a81548173ffffffffffffffffffffffffffffffffffffffff021916908373ffffffffffffffffffffffffffffffffffffffff160217905550600160009054906101000a900473ffffffffffffffffffffffffffffffffffffffff1673ffffffffffffffffffffffffffffffffffffffff1663358177736040518060400160405280600b81526020017f47616d654d616e616765720000000000000000000000000000000000000000008152506040518263ffffffff1660e01b81526004018080602001828103825283818151815260200191508051906020019080838360005b83811015610d69578082015181840152602081019050610d4e565b50505050905090810190601f168015610d965780820380516001836020036101000a031916815260200191505b509250505060206040518083038186803b158015610db357600080fd5b505afa158015610dc7573d6000803e3d6000fd5b505050506040513d6020811015610ddd57600080fd5b8101908080519060200190929190505050600260006101000a81548173ffffffffffffffffffffffffffffffffffffffff021916908373ffffffffffffffffffffffffffffffffffffffff160217905550600160009054906101000a900473ffffffffffffffffffffffffffffffffffffffff1673ffffffffffffffffffffffffffffffffffffffff1663358177736040518060400160405280600c81526020017f47616d654372656174696f6e00000000000000000000000000000000000000008152506040518263ffffffff1660e01b81526004018080602001828103825283818151815260200191508051906020019080838360005b83811015610ef1578082015181840152602081019050610ed6565b50505050905090810190601f168015610f1e5780820380516001836020036101000a031916815260200191505b509250505060206040518083038186803b158015610f3b57600080fd5b505afa158015610f4f573d6000803e3d6000fd5b505050506040513d6020811015610f6557600080fd5b8101908080519060200190929190505050600360006101000a81548173ffffffffffffffffffffffffffffffffffffffff021916908373ffffffffffffffffffffffffffffffffffffffff160217905550600160009054906101000a900473ffffffffffffffffffffffffffffffffffffffff1673ffffffffffffffffffffffffffffffffffffffff1663358177736040518060400160405280600d81526020017f43727970746f4b697474696573000000000000000000000000000000000000008152506040518263ffffffff1660e01b81526004018080602001828103825283818151815260200191508051906020019080838360005b8381101561107957808201518184015260208101905061105e565b50505050905090810190601f1680156110a65780820380516001836020036101000a031916815260200191505b509250505060206040518083038186803b1580156110c357600080fd5b505afa1580156110d7573d6000803e3d6000fd5b505050506040513d60208110156110ed57600080fd5b8101908080519060200190929190505050600660006101000a81548173ffffffffffffffffffffffffffffffffffffffff021916908373ffffffffffffffffffffffffffffffffffffffff160217905550600160009054906101000a900473ffffffffffffffffffffffffffffffffffffffff1673ffffffffffffffffffffffffffffffffffffffff1663358177736040518060400160405280600a81526020017f4b697474696548656c6c000000000000000000000000000000000000000000008152506040518263ffffffff1660e01b81526004018080602001828103825283818151815260200191508051906020019080838360005b838110156112015780820151818401526020810190506111e6565b50505050905090810190601f16801561122e5780820380516001836020036101000a031916815260200191505b509250505060206040518083038186803b15801561124b57600080fd5b505afa15801561125f573d6000803e3d6000fd5b505050506040513d602081101561127557600080fd5b8101908080519060200190929190505050600560006101000a81548173ffffffffffffffffffffffffffffffffffffffff021916908373ffffffffffffffffffffffffffffffffffffffff160217905550565b606080600e546040519080825280602002602001820160405280156112fc5781602001602082028038833980820191505090505b50905060008090505b600e5481101561134857600d60008281526020019081526020016000205482828151811061132f57fe5b6020026020010181815250508080600101915050611305565b508091505090565b6000809054906101000a900473ffffffffffffffffffffffffffffffffffffffff1681565b6000809054906101000a900473ffffffffffffffffffffffffffffffffffffffff1673ffffffffffffffffffffffffffffffffffffffff163373ffffffffffffffffffffffffffffffffffffffff16146113cb57fe5b80600160006101000a81548173ffffffffffffffffffffffffffffffffffffffff021916908373ffffffffffffffffffffffffffffffffffffffff16021790555050565b600460009054906101000a900473ffffffffffffffffffffffffffffffffffffffff1681565b60006010600083815260200190815260200160002060009054906101000a900460ff169050919050565b600260009054906101000a900473ffffffffffffffffffffffffffffffffffffffff1681565b60086020528060005260406000206000915090508060000160009054906101000a900473ffffffffffffffffffffffffffffffffffffffff16908060010160009054906101000a900473ffffffffffffffffffffffffffffffffffffffff16908060020154908060030154908060040154905085565b6040518060400160405280600981526020017f47616d6553746f7265000000000000000000000000000000000000000000000081525061153a816116a4565b6000600954141561157e576002600e541015611570576001601160006101000a81548160ff021916908315150217905550611579565b611578611d25565b5b611587565b611586612078565b5b50565b600160009054906101000a900473ffffffffffffffffffffffffffffffffffffffff1681565b600660009054906101000a900473ffffffffffffffffffffffffffffffffffffffff1681565b6000809054906101000a900473ffffffffffffffffffffffffffffffffffffffff1673ffffffffffffffffffffffffffffffffffffffff163373ffffffffffffffffffffffffffffffffffffffff161461162c57fe5b600073ffffffffffffffffffffffffffffffffffffffff168173ffffffffffffffffffffffffffffffffffffffff16146116a157806000806101000a81548173ffffffffffffffffffffffffffffffffffffffff021916908373ffffffffffffffffffffffffffffffffffffffff1602179055505b50565b600073ffffffffffffffffffffffffffffffffffffffff16600160009054906101000a900473ffffffffffffffffffffffffffffffffffffffff1673ffffffffffffffffffffffffffffffffffffffff161415611769576040517f08c379a00000000000000000000000000000000000000000000000000000000081526004018080602001828103825260088152602001807f4e6f2050726f787900000000000000000000000000000000000000000000000081525060200191505060405180910390fd5b6000600160009054906101000a900473ffffffffffffffffffffffffffffffffffffffff1673ffffffffffffffffffffffffffffffffffffffff166335817773836040518263ffffffff1660e01b81526004018080602001828103825283818151815260200191508051906020019080838360005b838110156117f95780820151818401526020810190506117de565b50505050905090810190601f1680156118265780820380516001836020036101000a031916815260200191505b509250505060206040518083038186803b15801561184357600080fd5b505afa158015611857573d6000803e3d6000fd5b505050506040513d602081101561186d57600080fd5b81019080805190602001909291905050509050600073ffffffffffffffffffffffffffffffffffffffff168173ffffffffffffffffffffffffffffffffffffffff1614156118b757fe5b8073ffffffffffffffffffffffffffffffffffffffff163373ffffffffffffffffffffffffffffffffffffffff161461193b576040517f08c379a000000000000000000000000000000000000000000000000000000000815260040180806020018281038252602d8152602001806125e3602d913960400191505060405180910390fd5b5050565b60008082840190508381101561195157fe5b8091505092915050565b60008083141561196e576000905061198c565b600082840290508284828161197f57fe5b041461198757fe5b809150505b92915050565b61199a6122f2565b6119a2612560565b60008090505b6119be6002600e5461237e90919063ffffffff16565b811015611ce057600c6000600d600084815260200190815260200160002054815260200190815260200160002060009054906101000a900473ffffffffffffffffffffffffffffffffffffffff16826000019073ffffffffffffffffffffffffffffffffffffffff16908173ffffffffffffffffffffffffffffffffffffffff1681525050600c6000600d6000611a5f60018661193f90919063ffffffff16565b815260200190815260200160002054815260200190815260200160002060009054906101000a900473ffffffffffffffffffffffffffffffffffffffff16826020019073ffffffffffffffffffffffffffffffffffffffff16908173ffffffffffffffffffffffffffffffffffffffff1681525050600d600082815260200190815260200160002054826040018181525050600d6000611b0960018461193f90919063ffffffff16565b815260200190815260200160002054826060018181525050600060106000600d600085815260200190815260200160002054815260200190815260200160002060006101000a81548160ff021916908315150217905550600060106000600d6000611b7e60018761193f90919063ffffffff16565b815260200190815260200160002054815260200190815260200160002060006101000a81548160ff021916908315150217905550611bc86001600b5461193f90919063ffffffff16565b600b8190555060006009541415611be757600b54600981905550611c07565b600b5460086000600a548152602001908152602001600020600401819055505b600b54600a819055508160086000600b54815260200190815260200160002060008201518160000160006101000a81548173ffffffffffffffffffffffffffffffffffffffff021916908373ffffffffffffffffffffffffffffffffffffffff16021790555060208201518160010160006101000a81548173ffffffffffffffffffffffffffffffffffffffff021916908373ffffffffffffffffffffffffffffffffffffffff1602179055506040820151816002015560608201518160030155608082015181600401559050506002810190506119a8565b506000600e81905550601160009054906101000a900460ff1615611d2257611d06612078565b6000601160006101000a81548160ff0219169083151502179055505b50565b611d2d6122f2565b611d35612560565b600c6000600d6000611d536001600e5461239790919063ffffffff16565b815260200190815260200160002054815260200190815260200160002060009054906101000a900473ffffffffffffffffffffffffffffffffffffffff16816000019073ffffffffffffffffffffffffffffffffffffffff16908173ffffffffffffffffffffffffffffffffffffffff1681525050600c6000600d6000611de66002600e5461239790919063ffffffff16565b815260200190815260200160002054815260200190815260200160002060009054906101000a900473ffffffffffffffffffffffffffffffffffffffff16816020019073ffffffffffffffffffffffffffffffffffffffff16908173ffffffffffffffffffffffffffffffffffffffff1681525050600d6000611e756001600e5461239790919063ffffffff16565b815260200190815260200160002054816040018181525050600d6000611ea76002600e5461239790919063ffffffff16565b815260200190815260200160002054816060018181525050600060106000600d6000611edf6001600e5461239790919063ffffffff16565b815260200190815260200160002054815260200190815260200160002060006101000a81548160ff021916908315150217905550600060106000600d6000611f336002600e5461239790919063ffffffff16565b815260200190815260200160002054815260200190815260200160002060006101000a81548160ff021916908315150217905550611f7d6001600b5461193f90919063ffffffff16565b600b81905550611f996002600e5461239790919063ffffffff16565b600e819055508060086000600b54815260200190815260200160002060008201518160000160006101000a81548173ffffffffffffffffffffffffffffffffffffffff021916908373ffffffffffffffffffffffffffffffffffffffff16021790555060208201518160010160006101000a81548173ffffffffffffffffffffffffffffffffffffffff021916908373ffffffffffffffffffffffffffffffffffffffff160217905550604082015181600201556060820151816003015560808201518160040155905050600b54600981905550612075612078565b50565b600360009054906101000a900473ffffffffffffffffffffffffffffffffffffffff1673ffffffffffffffffffffffffffffffffffffffff16630144154160086000600954815260200190815260200160002060000160009054906101000a900473ffffffffffffffffffffffffffffffffffffffff1660086000600954815260200190815260200160002060010160009054906101000a900473ffffffffffffffffffffffffffffffffffffffff16600860006009548152602001908152602001600020600201546008600060095481526020019081526020016000206003015461220f42600460009054906101000a900473ffffffffffffffffffffffffffffffffffffffff1673ffffffffffffffffffffffffffffffffffffffff1663a38bcf206040518163ffffffff1660e01b815260040160206040518083038186803b1580156121c657600080fd5b505afa1580156121da573d6000803e3d6000fd5b505050506040513d60208110156121f057600080fd5b810190808051906020019092919050505061193f90919063ffffffff16565b6040518663ffffffff1660e01b8152600401808673ffffffffffffffffffffffffffffffffffffffff1673ffffffffffffffffffffffffffffffffffffffff1681526020018573ffffffffffffffffffffffffffffffffffffffff1673ffffffffffffffffffffffffffffffffffffffff16815260200184815260200183815260200182815260200195505050505050600060405180830381600087803b1580156122b957600080fd5b505af11580156122cd573d6000803e3d6000fd5b5050505060086000600954815260200190815260200160002060040154600981905550565b60008090505b600e5481101561237b576000600d60008381526020019081526020016000205490506000612327600e546123ae565b9050600d600082815260200190815260200160002054600d60008581526020019081526020016000208190555081600d600083815260200190815260200160002081905550505080806001019150506122f8565b50565b60008082848161238a57fe5b0490508091505092915050565b6000828211156123a357fe5b818303905092915050565b60008061242e834233600f54604051602001808481526020018373ffffffffffffffffffffffffffffffffffffffff1673ffffffffffffffffffffffffffffffffffffffff1660601b815260140182815260200193505050506040516020818303038152906040528051906020012060001c61245590919063ffffffff16565b90506124466001600f5461193f90919063ffffffff16565b600f8190555080915050919050565b600061249783836040518060400160405280601881526020017f536166654d6174683a206d6f64756c6f206279207a65726f000000000000000081525061249f565b905092915050565b600080831415829061254c576040517f08c379a00000000000000000000000000000000000000000000000000000000081526004018080602001828103825283818151815260200191508051906020019080838360005b838110156125115780820151818401526020810190506124f6565b50505050905090810190601f16801561253e5780820380516001836020036101000a031916815260200191505b509250505060405180910390fd5b5082848161255657fe5b0690509392505050565b6040518060a00160405280600073ffffffffffffffffffffffffffffffffffffffff168152602001600073ffffffffffffffffffffffffffffffffffffffff168152602001600081526020016000815260200160008152509056fe5363686564756c65723a2043616e6e6f74206c6973742073616d65204b6974747920616761696e416363657373206973206f6e6c7920616c6c6f7765642066726f6d20737065636966696320636f6e7472616374a265627a7a723158204c021b602698314c4e05d78ee89f88434ed66476caeb1cd529092392a4fa9aa264736f6c63430005110032",
  "source": "/* Code by Xaleee ======================================================================================= Kittiefight */\n\n/**\n * @title Scheduler\n *\n * @author @kittieFIGHT @ola\n *\n */\n//modifier class (DSAuth )\n//Event class ( DSNote )\n//\n// This program is free software: you can redistribute it and/or modify\n// it under the terms of the GNU General Public License as published by\n// the Free Software Foundation, either version 3 of the License, or\n// (at your option) any later version.\n\n// This program is distributed in the hope that it will be useful,\n// but WITHOUT ANY WARRANTY; without even the implied warranty of\n// MERCHANTABILITY or FITNESS FOR A PARTICULAR PURPOSE.  See the\n// GNU General Public License for more details.\n\n// You should have received a copy of the GNU General Public License\n// along with this program.  If not, see <http://www.gnu.org/licenses/>.\npragma solidity ^0.5.5;\n\nimport '../proxy/Proxied.sol';\nimport \"../../libs/SafeMath.sol\";\nimport \"../../GameVarAndFee.sol\";\nimport \"./GameManager.sol\";\nimport \"./GameCreation.sol\";\nimport \"../../interfaces/ERC721.sol\";\nimport \"../kittieHELL/KittieHell.sol\";\n\n/**\n * @title Scheduler\n * @dev Responsible for game Schedule\n * @author @Xaleee\n */\n\ncontract Scheduler is Proxied {\n    using SafeMath for uint256;\n\n    //Contract Variables\n    GameManager public gameManager;\n    GameCreation public gameCreation;\n    GameVarAndFee public gameVarAndFee;\n    KittieHell public kittieHell;\n    ERC721 public cryptoKitties;\n    uint256 lastGameCreationTime;\n\n    struct Game {\n        address playerRed;\n        address playerBlack;\n        uint256 kittyRed;\n        uint256 kittyBlack;\n        uint256 next;\n    }\n\n    mapping(uint256 => Game) public gameList;\n\n    uint256 headGame;\n    uint256 tailGame;\n    uint256 noOfGames;\n\n    mapping(uint256 => address) kittyOwner;\n    mapping(uint256 => uint256) kittyList;\n\n    uint256 noOfKittiesListed;\n\n    uint256 randomNonce;\n\n    mapping(uint256 => bool) public isKittyListed;\n\n    bool immediateStart = true;\n\n    /*                                                GENERAL VARIABLES                                               */\n    /*                                                       END                                                      */\n    /* ============================================================================================================== */\n\n    /*                                                    MODIFIERS                                                   */\n    /*                                                      START                                                     */\n    /* ============================================================================================================== */\n\n    modifier onlyUnlistedKitty(uint256 _kittyId) { \n        require(!isKittyListed[_kittyId], \"Scheduler: Cannot list same Kitty again\");\n        _;\n    }\n    \n\n    /*                                                    MODIFIERS                                                   */\n    /*                                                       END                                                      */\n    /* ============================================================================================================== */\n\n    /*                                                   INITIALIZOR                                                  */\n    /*                                                      START                                                     */\n    /* ============================================================================================================== */\n\n    /**\n    * @dev Initializes all contracts needed for Scheduler.\n    */\n    function initialize() public onlyOwner {\n        gameVarAndFee = GameVarAndFee(proxy.getContract(CONTRACT_NAME_GAMEVARANDFEE));\n        gameManager = GameManager(proxy.getContract(CONTRACT_NAME_GAMEMANAGER));\n        gameCreation = GameCreation(proxy.getContract(CONTRACT_NAME_GAMECREATION));\n        cryptoKitties = ERC721(proxy.getContract(CONTRACT_NAME_CRYPTOKITTIES));\n        kittieHell = KittieHell(proxy.getContract(CONTRACT_NAME_KITTIEHELL));\n    }\n\n    /*                                                   INITIALIZOR                                                  */\n    /*                                                       END                                                      */\n    /* ============================================================================================================== */\n\n    /*                                                 ACTION FUNCTIONS                                               */\n    /*                                                      START                                                     */\n    /* ============================================================================================================== */\n\n    /**\n    * @param _kittyId kitty id\n    * @param _player is the address of the player\n    */\n    function addKittyToList(uint256 _kittyId, address _player)\n    external\n    onlyContract(CONTRACT_NAME_GAMECREATION)\n    onlyUnlistedKitty(_kittyId)\n    {\n        require(kittieHell.acquireKitty(_kittyId, _player));\n        isKittyListed[_kittyId] = true;\n        kittyList[noOfKittiesListed] = _kittyId;\n        kittyOwner[_kittyId] = _player;\n        \n        noOfKittiesListed = noOfKittiesListed.add(1);\n\n        if((gameVarAndFee.getRequiredNumberMatches().mul(2)) == noOfKittiesListed)\n            matchKitties();\n        else if(immediateStart && noOfKittiesListed >= 2) {\n            createFlashGame();\n            immediateStart = false;\n        }\n    }\n\n    /**\n     * @dev This function is called by GameManager's finalize function, so as a new game to be created immediately.\n     *      In case there are no matches created yet, it checks if there are 2 or more available kitties in Kittylist.\n     *      If yes, it creates a flash game for two random kitties, otherwise it makes immediateStart true, so as when\n     *      two kitties come in kittyList a flashGame to be created.\n     */\n    function startGame()\n    external\n    onlyContract(CONTRACT_NAME_GAMESTORE)\n    {\n        if(headGame == 0) {\n            if(noOfKittiesListed < 2)\n                immediateStart = true;\n            else\n                createFlashGame();\n        }\n        else\n            _startGame();\n    }\n    \n    /*                                                 ACTION FUNCTIONS                                               */\n    /*                                                       END                                                      */\n    /* ============================================================================================================== */\n\n    /*                                                 GETTER FUNCTIONS                                               */\n    /*                                                      START                                                     */\n    /* ============================================================================================================== */\n\n    /**\n     * @dev This function is returning the kitties that are listed in kittyList.\n     */\n    function getListedKitties() public view returns (uint256[] memory){\n        uint256[] memory listedKitties = new uint256[](noOfKittiesListed);\n        for (uint256 i = 0; i < noOfKittiesListed; i++){\n            listedKitties[i] = kittyList[i];\n        }\n        return listedKitties;\n    }\n\n    /**\n     * @dev This function is returning the addresses of players that their Kitties are listed in kittyList.\n     */\n    function getListedPlayers() public view returns (address[] memory){\n        address[] memory listedPlayers = new address[](noOfKittiesListed);\n        for (uint256 i = 0; i < noOfKittiesListed; i++){\n            listedPlayers[i] = kittyOwner[kittyList[i]];\n        }\n        return listedPlayers;\n    }\n\n    /**\n     * @dev This function is returning true when kitty is in kittyList and false when not.\n     */\n    function isKittyListedForMatching(uint256 _kittyId)\n    external\n    view\n    returns(bool)\n    {\n        return isKittyListed[_kittyId];\n    }\n\n    /*                                                 GETTER FUNCTIONS                                               */\n    /*                                                       END                                                      */\n    /* ============================================================================================================== */\n\n    /*                                                INTERNAL FUNCTIONS                                              */\n    /*                                                      START                                                     */\n    /* ============================================================================================================== */\n\n    /**\n     * @dev This function is creating a flash games. Flash games are created when list has not yet reached the\n     *      required amount of Kitties, but gameManager asked for a game (case where no game exists).\n     */\n    function createFlashGame()\n    internal\n    {\n        shuffleKittyList();\n\n        Game memory game;\n        game.playerRed = kittyOwner[kittyList[noOfKittiesListed.sub(1)]];\n        game.playerBlack = kittyOwner[kittyList[noOfKittiesListed.sub(2)]];\n        game.kittyRed = kittyList[noOfKittiesListed.sub(1)];\n        game.kittyBlack = kittyList[noOfKittiesListed.sub(2)];\n\n        isKittyListed[kittyList[noOfKittiesListed.sub(1)]] = false;\n        isKittyListed[kittyList[noOfKittiesListed.sub(2)]] = false;\n\n        noOfGames = noOfGames.add(1);\n        noOfKittiesListed = noOfKittiesListed.sub(2);\n\n        gameList[noOfGames] = game;\n        headGame = noOfGames;\n\n        _startGame();\n    }\n\n    /**\n     * @dev This function is creating a whole list of games when required kitties are listed.\n     *      Starts a created game immediatelly if immediateStart is true.\n     */\n    function matchKitties() internal {\n        shuffleKittyList();\n\n        Game memory game;\n\n        for(uint256 i = 0; i < noOfKittiesListed.div(2); i += 2) {\n            game.playerRed = kittyOwner[kittyList[i]];\n            game.playerBlack = kittyOwner[kittyList[i.add(1)]];\n            game.kittyRed = kittyList[i];\n            game.kittyBlack = kittyList[i.add(1)];\n\n            isKittyListed[kittyList[i]] = false;\n            isKittyListed[kittyList[i.add(1)]] = false;\n\n            noOfGames = noOfGames.add(1);\n\n            if(headGame == 0)\n                headGame = noOfGames;\n            else\n                gameList[tailGame].next = noOfGames;\n\n            tailGame = noOfGames;\n            gameList[noOfGames] = game;\n        }\n\n        noOfKittiesListed = 0;\n\n        if(immediateStart) {\n            _startGame();\n            immediateStart = false;\n        }\n    }\n\n    /**\n     * @dev This function is creating a game, which becomes scheduled immediately.\n     */\n    function _startGame()\n    internal\n    {\n        gameCreation.createFight(\n            gameList[headGame].playerRed,\n            gameList[headGame].playerBlack,\n            gameList[headGame].kittyRed,\n            gameList[headGame].kittyBlack,\n            gameVarAndFee.getGameTimes().add(now)\n        );\n\n        headGame = gameList[headGame].next;\n    }\n\n\n    /**\n     * @dev This function is shuffling the list of Kitties, for random matching.\n     */\n    function shuffleKittyList() internal {\n        for(uint256 i = 0; i < noOfKittiesListed; i++) {\n            uint256 tempKitty = kittyList[i];\n            uint256 index = randomNumber(noOfKittiesListed);\n            kittyList[i] = kittyList[index];\n            kittyList[index] = tempKitty;\n        }\n    }\n\n    /**\n     * @dev This function is providing a random number between 0 and max.\n     * @param max The number generated is less than max (not euqal).\n     */\n    function randomNumber(uint256 max) internal returns (uint256){\n        uint256 random = uint256(keccak256(abi.encodePacked(block.timestamp, msg.sender, randomNonce))).mod(max);\n        randomNonce = randomNonce.add(1);\n        return random;\n    }\n    \n    /*                                                INTERNAL FUNCTIONS                                              */\n    /*                                                       END                                                      */\n    /* ============================================================================================================== */\n}\n",
  "sourcePath": "/Users/ziweizhang/Desktop/EarningsTracker/alpha/contracts/modules/gamemanager/Scheduler.sol",
  "compiler": {
    "name": "solc",
    "version": "0.5.17+commit.d19bba13.Emscripten.clang"
  },
  "schemaVersion": "3.0.23",
  "updatedAt": "2020-04-18T09:45:57.684Z",
  "networkType": "ethereum",
  "devdoc": {
    "author": "@Xaleee",
    "details": "Responsible for game Schedule",
    "methods": {
      "addKittyToList(uint256,address)": {
        "params": {
          "_kittyId": "kitty id",
          "_player": "is the address of the player"
        }
      },
      "getListedKitties()": {
        "details": "This function is returning the kitties that are listed in kittyList."
      },
      "getListedPlayers()": {
        "details": "This function is returning the addresses of players that their Kitties are listed in kittyList."
      },
      "initialize()": {
        "details": "Initializes all contracts needed for Scheduler."
      },
      "isKittyListedForMatching(uint256)": {
        "details": "This function is returning true when kitty is in kittyList and false when not."
      },
      "startGame()": {
        "details": "This function is called by GameManager's finalize function, so as a new game to be created immediately.     In case there are no matches created yet, it checks if there are 2 or more available kitties in Kittylist.     If yes, it creates a flash game for two random kitties, otherwise it makes immediateStart true, so as when     two kitties come in kittyList a flashGame to be created."
      }
    },
    "title": "Scheduler"
  },
  "userdoc": {
    "methods": {
      "setProxy(address)": {
        "notice": "Set/update address of Proxy contract"
      }
    }
  }
}