{
  "contractName": "Scheduler",
  "abi": [
    {
      "constant": true,
      "inputs": [],
      "name": "cryptoKitties",
      "outputs": [
        {
          "internalType": "contract ERC721",
          "name": "",
          "type": "address"
        }
      ],
      "payable": false,
      "stateMutability": "view",
      "type": "function"
    },
    {
      "constant": true,
      "inputs": [],
      "name": "gameCreation",
      "outputs": [
        {
          "internalType": "contract GameCreation",
          "name": "",
          "type": "address"
        }
      ],
      "payable": false,
      "stateMutability": "view",
      "type": "function"
    },
    {
      "constant": true,
      "inputs": [
        {
          "internalType": "uint256",
          "name": "",
          "type": "uint256"
        }
      ],
      "name": "gameList",
      "outputs": [
        {
          "internalType": "address",
          "name": "playerRed",
          "type": "address"
        },
        {
          "internalType": "address",
          "name": "playerBlack",
          "type": "address"
        },
        {
          "internalType": "uint256",
          "name": "kittyRed",
          "type": "uint256"
        },
        {
          "internalType": "uint256",
          "name": "kittyBlack",
          "type": "uint256"
        },
        {
          "internalType": "uint256",
          "name": "next",
          "type": "uint256"
        }
      ],
      "payable": false,
      "stateMutability": "view",
      "type": "function"
    },
    {
      "constant": true,
      "inputs": [],
      "name": "gameStore",
      "outputs": [
        {
          "internalType": "contract GameStore",
          "name": "",
          "type": "address"
        }
      ],
      "payable": false,
      "stateMutability": "view",
      "type": "function"
    },
    {
      "constant": true,
      "inputs": [],
      "name": "gameVarAndFee",
      "outputs": [
        {
          "internalType": "contract GameVarAndFee",
          "name": "",
          "type": "address"
        }
      ],
      "payable": false,
      "stateMutability": "view",
      "type": "function"
    },
    {
      "constant": true,
      "inputs": [
        {
          "internalType": "uint256",
          "name": "",
          "type": "uint256"
        }
      ],
      "name": "isKittyListed",
      "outputs": [
        {
          "internalType": "bool",
          "name": "",
          "type": "bool"
        }
      ],
      "payable": false,
      "stateMutability": "view",
      "type": "function"
    },
    {
      "constant": true,
      "inputs": [],
      "name": "kittieHell",
      "outputs": [
        {
          "internalType": "contract KittieHell",
          "name": "",
          "type": "address"
        }
      ],
      "payable": false,
      "stateMutability": "view",
      "type": "function"
    },
    {
      "constant": true,
      "inputs": [],
      "name": "owner",
      "outputs": [
        {
          "internalType": "address payable",
          "name": "",
          "type": "address"
        }
      ],
      "payable": false,
      "stateMutability": "view",
      "type": "function"
    },
    {
      "constant": true,
      "inputs": [],
      "name": "proxy",
      "outputs": [
        {
          "internalType": "contract ProxyBase",
          "name": "",
          "type": "address"
        }
      ],
      "payable": false,
      "stateMutability": "view",
      "type": "function"
    },
    {
      "constant": false,
      "inputs": [
        {
          "internalType": "contract ProxyBase",
          "name": "_proxy",
          "type": "address"
        }
      ],
      "name": "setProxy",
      "outputs": [],
      "payable": false,
      "stateMutability": "nonpayable",
      "type": "function"
    },
    {
      "constant": false,
      "inputs": [
        {
          "internalType": "address payable",
          "name": "newOwner",
          "type": "address"
        }
      ],
      "name": "transferOwnership",
      "outputs": [],
      "payable": false,
      "stateMutability": "nonpayable",
      "type": "function"
    },
    {
      "constant": false,
      "inputs": [],
      "name": "initialize",
      "outputs": [],
      "payable": false,
      "stateMutability": "nonpayable",
      "type": "function"
    },
    {
      "constant": false,
      "inputs": [
        {
          "internalType": "uint256",
          "name": "_kittyId",
          "type": "uint256"
        },
        {
          "internalType": "address",
          "name": "_player",
          "type": "address"
        }
      ],
      "name": "addKittyToList",
      "outputs": [],
      "payable": false,
      "stateMutability": "nonpayable",
      "type": "function"
    },
    {
      "constant": false,
      "inputs": [],
      "name": "startGame",
      "outputs": [
        {
          "internalType": "bool",
          "name": "",
          "type": "bool"
        }
      ],
      "payable": false,
      "stateMutability": "nonpayable",
      "type": "function"
    },
    {
      "constant": true,
      "inputs": [],
      "name": "getListedKitties",
      "outputs": [
        {
          "internalType": "uint256[]",
          "name": "",
          "type": "uint256[]"
        }
      ],
      "payable": false,
      "stateMutability": "view",
      "type": "function"
    },
    {
      "constant": true,
      "inputs": [],
      "name": "getListedPlayers",
      "outputs": [
        {
          "internalType": "address[]",
          "name": "",
          "type": "address[]"
        }
      ],
      "payable": false,
      "stateMutability": "view",
      "type": "function"
    },
    {
      "constant": true,
      "inputs": [
        {
          "internalType": "uint256",
          "name": "_kittyId",
          "type": "uint256"
        }
      ],
      "name": "isKittyListedForMatching",
      "outputs": [
        {
          "internalType": "bool",
          "name": "",
          "type": "bool"
        }
      ],
      "payable": false,
      "stateMutability": "view",
      "type": "function"
    }
  ],
  "bytecode": "0x60806040526001601060006101000a81548160ff021916908315150217905550336000806101000a81548173ffffffffffffffffffffffffffffffffffffffff021916908373ffffffffffffffffffffffffffffffffffffffff16021790555061270a8061006e6000396000f3fe608060405234801561001057600080fd5b506004361061010b5760003560e01c806397107d6d116100a2578063c6cfd08e11610071578063c6cfd08e14610468578063d65ab5f21461051e578063ec55688914610540578063ef410f451461058a578063f2fde38b146105d45761010b565b806397107d6d1461034a578063a3b3bd7b1461038e578063b1be6469146103d8578063c484819d146104225761010b565b80636df970c5116100de5780636df970c5146102495780638129fc1c146102975780638917d4b1146102a15780638da5cb5b146103005761010b565b806305901e891461011057806315a194ec1461016f57806356847de9146101b95780636550b582146101ff575b600080fd5b610118610618565b6040518080602001828103825283818151815260200191508051906020019060200280838360005b8381101561015b578082015181840152602081019050610140565b505050509050019250505060405180910390f35b610177610701565b604051808273ffffffffffffffffffffffffffffffffffffffff1673ffffffffffffffffffffffffffffffffffffffff16815260200191505060405180910390f35b6101e5600480360360208110156101cf57600080fd5b8101908080359060200190929190505050610727565b604051808215151515815260200191505060405180910390f35b610207610747565b604051808273ffffffffffffffffffffffffffffffffffffffff1673ffffffffffffffffffffffffffffffffffffffff16815260200191505060405180910390f35b6102956004803603604081101561025f57600080fd5b8101908080359060200190929190803573ffffffffffffffffffffffffffffffffffffffff16906020019092919050505061076d565b005b61029f610b9a565b005b6102a961139a565b6040518080602001828103825283818151815260200191508051906020019060200280838360005b838110156102ec5780820151818401526020810190506102d1565b505050509050019250505060405180910390f35b610308611422565b604051808273ffffffffffffffffffffffffffffffffffffffff1673ffffffffffffffffffffffffffffffffffffffff16815260200191505060405180910390f35b61038c6004803603602081101561036057600080fd5b81019080803573ffffffffffffffffffffffffffffffffffffffff169060200190929190505050611447565b005b6103966114e1565b604051808273ffffffffffffffffffffffffffffffffffffffff1673ffffffffffffffffffffffffffffffffffffffff16815260200191505060405180910390f35b6103e0611507565b604051808273ffffffffffffffffffffffffffffffffffffffff1673ffffffffffffffffffffffffffffffffffffffff16815260200191505060405180910390f35b61044e6004803603602081101561043857600080fd5b810190808035906020019092919050505061152d565b604051808215151515815260200191505060405180910390f35b6104946004803603602081101561047e57600080fd5b8101908080359060200190929190505050611557565b604051808673ffffffffffffffffffffffffffffffffffffffff1673ffffffffffffffffffffffffffffffffffffffff1681526020018573ffffffffffffffffffffffffffffffffffffffff1673ffffffffffffffffffffffffffffffffffffffff1681526020018481526020018381526020018281526020019550505050505060405180910390f35b6105266115cd565b604051808215151515815260200191505060405180910390f35b610548611650565b604051808273ffffffffffffffffffffffffffffffffffffffff1673ffffffffffffffffffffffffffffffffffffffff16815260200191505060405180910390f35b610592611676565b604051808273ffffffffffffffffffffffffffffffffffffffff1673ffffffffffffffffffffffffffffffffffffffff16815260200191505060405180910390f35b610616600480360360208110156105ea57600080fd5b81019080803573ffffffffffffffffffffffffffffffffffffffff16906020019092919050505061169c565b005b606080600d5460405190808252806020026020018201604052801561064c5781602001602082028038833980820191505090505b50905060008090505b600d548110156106f957600b6000600c600084815260200190815260200160002054815260200190815260200160002060009054906101000a900473ffffffffffffffffffffffffffffffffffffffff168282815181106106b257fe5b602002602001019073ffffffffffffffffffffffffffffffffffffffff16908173ffffffffffffffffffffffffffffffffffffffff16815250508080600101915050610655565b508091505090565b600260009054906101000a900473ffffffffffffffffffffffffffffffffffffffff1681565b600f6020528060005260406000206000915054906101000a900460ff1681565b600460009054906101000a900473ffffffffffffffffffffffffffffffffffffffff1681565b6040518060400160405280600c81526020017f47616d654372656174696f6e00000000000000000000000000000000000000008152506107ac8161176a565b82600f600082815260200190815260200160002060009054906101000a900460ff1615610824576040517f08c379a00000000000000000000000000000000000000000000000000000000081526004018080602001828103825260278152602001806126826027913960400191505060405180910390fd5b600460009054906101000a900473ffffffffffffffffffffffffffffffffffffffff1673ffffffffffffffffffffffffffffffffffffffff16635fd8cc1085856040518363ffffffff1660e01b8152600401808381526020018273ffffffffffffffffffffffffffffffffffffffff1673ffffffffffffffffffffffffffffffffffffffff16815260200192505050602060405180830381600087803b1580156108cd57600080fd5b505af11580156108e1573d6000803e3d6000fd5b505050506040513d60208110156108f757600080fd5b810190808051906020019092919050505061091157600080fd5b6001600f600086815260200190815260200160002060006101000a81548160ff02191690831515021790555083600c6000600d5481526020019081526020016000208190555082600b600086815260200190815260200160002060006101000a81548173ffffffffffffffffffffffffffffffffffffffff021916908373ffffffffffffffffffffffffffffffffffffffff1602179055506109bf6001600d54611a0590919063ffffffff16565b600d819055506002600d5410610b9457600660009054906101000a900473ffffffffffffffffffffffffffffffffffffffff1673ffffffffffffffffffffffffffffffffffffffff1663b35a194e6040518163ffffffff1660e01b8152600401602060405180830381600087803b158015610a3957600080fd5b505af1158015610a4d573d6000803e3d6000fd5b505050506040513d6020811015610a6357600080fd5b8101908080519060200190929190505050601060006101000a81548160ff021916908315150217905550600d54610b466002600360009054906101000a900473ffffffffffffffffffffffffffffffffffffffff1673ffffffffffffffffffffffffffffffffffffffff16632c8558a86040518163ffffffff1660e01b815260040160206040518083038186803b158015610afd57600080fd5b505afa158015610b11573d6000803e3d6000fd5b505050506040513d6020811015610b2757600080fd5b8101908080519060200190929190505050611a2190919063ffffffff16565b1415610b5957610b54611a58565b610b93565b601060009054906101000a900460ff1615610b9257610b76611deb565b6000601060006101000a81548160ff0219169083151502179055505b5b5b50505050565b6000809054906101000a900473ffffffffffffffffffffffffffffffffffffffff1673ffffffffffffffffffffffffffffffffffffffff163373ffffffffffffffffffffffffffffffffffffffff1614610bf057fe5b600160009054906101000a900473ffffffffffffffffffffffffffffffffffffffff1673ffffffffffffffffffffffffffffffffffffffff1663358177736040518060400160405280600d81526020017f47616d65566172416e64466565000000000000000000000000000000000000008152506040518263ffffffff1660e01b81526004018080602001828103825283818151815260200191508051906020019080838360005b83811015610cb3578082015181840152602081019050610c98565b50505050905090810190601f168015610ce05780820380516001836020036101000a031916815260200191505b509250505060206040518083038186803b158015610cfd57600080fd5b505afa158015610d11573d6000803e3d6000fd5b505050506040513d6020811015610d2757600080fd5b8101908080519060200190929190505050600360006101000a81548173ffffffffffffffffffffffffffffffffffffffff021916908373ffffffffffffffffffffffffffffffffffffffff160217905550600160009054906101000a900473ffffffffffffffffffffffffffffffffffffffff1673ffffffffffffffffffffffffffffffffffffffff1663358177736040518060400160405280600c81526020017f47616d654372656174696f6e00000000000000000000000000000000000000008152506040518263ffffffff1660e01b81526004018080602001828103825283818151815260200191508051906020019080838360005b83811015610e3b578082015181840152602081019050610e20565b50505050905090810190601f168015610e685780820380516001836020036101000a031916815260200191505b509250505060206040518083038186803b158015610e8557600080fd5b505afa158015610e99573d6000803e3d6000fd5b505050506040513d6020811015610eaf57600080fd5b8101908080519060200190929190505050600260006101000a81548173ffffffffffffffffffffffffffffffffffffffff021916908373ffffffffffffffffffffffffffffffffffffffff160217905550600160009054906101000a900473ffffffffffffffffffffffffffffffffffffffff1673ffffffffffffffffffffffffffffffffffffffff1663358177736040518060400160405280600d81526020017f43727970746f4b697474696573000000000000000000000000000000000000008152506040518263ffffffff1660e01b81526004018080602001828103825283818151815260200191508051906020019080838360005b83811015610fc3578082015181840152602081019050610fa8565b50505050905090810190601f168015610ff05780820380516001836020036101000a031916815260200191505b509250505060206040518083038186803b15801561100d57600080fd5b505afa158015611021573d6000803e3d6000fd5b505050506040513d602081101561103757600080fd5b8101908080519060200190929190505050600560006101000a81548173ffffffffffffffffffffffffffffffffffffffff021916908373ffffffffffffffffffffffffffffffffffffffff160217905550600160009054906101000a900473ffffffffffffffffffffffffffffffffffffffff1673ffffffffffffffffffffffffffffffffffffffff1663358177736040518060400160405280600a81526020017f4b697474696548656c6c000000000000000000000000000000000000000000008152506040518263ffffffff1660e01b81526004018080602001828103825283818151815260200191508051906020019080838360005b8381101561114b578082015181840152602081019050611130565b50505050905090810190601f1680156111785780820380516001836020036101000a031916815260200191505b509250505060206040518083038186803b15801561119557600080fd5b505afa1580156111a9573d6000803e3d6000fd5b505050506040513d60208110156111bf57600080fd5b8101908080519060200190929190505050600460006101000a81548173ffffffffffffffffffffffffffffffffffffffff021916908373ffffffffffffffffffffffffffffffffffffffff160217905550600160009054906101000a900473ffffffffffffffffffffffffffffffffffffffff1673ffffffffffffffffffffffffffffffffffffffff1663358177736040518060400160405280600981526020017f47616d6553746f726500000000000000000000000000000000000000000000008152506040518263ffffffff1660e01b81526004018080602001828103825283818151815260200191508051906020019080838360005b838110156112d35780820151818401526020810190506112b8565b50505050905090810190601f1680156113005780820380516001836020036101000a031916815260200191505b509250505060206040518083038186803b15801561131d57600080fd5b505afa158015611331573d6000803e3d6000fd5b505050506040513d602081101561134757600080fd5b8101908080519060200190929190505050600660006101000a81548173ffffffffffffffffffffffffffffffffffffffff021916908373ffffffffffffffffffffffffffffffffffffffff160217905550565b606080600d546040519080825280602002602001820160405280156113ce5781602001602082028038833980820191505090505b50905060008090505b600d5481101561141a57600c60008281526020019081526020016000205482828151811061140157fe5b60200260200101818152505080806001019150506113d7565b508091505090565b6000809054906101000a900473ffffffffffffffffffffffffffffffffffffffff1681565b6000809054906101000a900473ffffffffffffffffffffffffffffffffffffffff1673ffffffffffffffffffffffffffffffffffffffff163373ffffffffffffffffffffffffffffffffffffffff161461149d57fe5b80600160006101000a81548173ffffffffffffffffffffffffffffffffffffffff021916908373ffffffffffffffffffffffffffffffffffffffff16021790555050565b600360009054906101000a900473ffffffffffffffffffffffffffffffffffffffff1681565b600660009054906101000a900473ffffffffffffffffffffffffffffffffffffffff1681565b6000600f600083815260200190815260200160002060009054906101000a900460ff169050919050565b60076020528060005260406000206000915090508060000160009054906101000a900473ffffffffffffffffffffffffffffffffffffffff16908060010160009054906101000a900473ffffffffffffffffffffffffffffffffffffffff16908060020154908060030154908060040154905085565b60006040518060400160405280600981526020017f47616d6553746f7265000000000000000000000000000000000000000000000081525061160e8161176a565b6000600854141561163e576002600d54106116305761162b611deb565b611639565b6000915061164c565b611647565b61164661213e565b5b600191505b5090565b600160009054906101000a900473ffffffffffffffffffffffffffffffffffffffff1681565b600560009054906101000a900473ffffffffffffffffffffffffffffffffffffffff1681565b6000809054906101000a900473ffffffffffffffffffffffffffffffffffffffff1673ffffffffffffffffffffffffffffffffffffffff163373ffffffffffffffffffffffffffffffffffffffff16146116f257fe5b600073ffffffffffffffffffffffffffffffffffffffff168173ffffffffffffffffffffffffffffffffffffffff161461176757806000806101000a81548173ffffffffffffffffffffffffffffffffffffffff021916908373ffffffffffffffffffffffffffffffffffffffff1602179055505b50565b600073ffffffffffffffffffffffffffffffffffffffff16600160009054906101000a900473ffffffffffffffffffffffffffffffffffffffff1673ffffffffffffffffffffffffffffffffffffffff16141561182f576040517f08c379a00000000000000000000000000000000000000000000000000000000081526004018080602001828103825260088152602001807f4e6f2050726f787900000000000000000000000000000000000000000000000081525060200191505060405180910390fd5b6000600160009054906101000a900473ffffffffffffffffffffffffffffffffffffffff1673ffffffffffffffffffffffffffffffffffffffff166335817773836040518263ffffffff1660e01b81526004018080602001828103825283818151815260200191508051906020019080838360005b838110156118bf5780820151818401526020810190506118a4565b50505050905090810190601f1680156118ec5780820380516001836020036101000a031916815260200191505b509250505060206040518083038186803b15801561190957600080fd5b505afa15801561191d573d6000803e3d6000fd5b505050506040513d602081101561193357600080fd5b81019080805190602001909291905050509050600073ffffffffffffffffffffffffffffffffffffffff168173ffffffffffffffffffffffffffffffffffffffff16141561197d57fe5b8073ffffffffffffffffffffffffffffffffffffffff163373ffffffffffffffffffffffffffffffffffffffff1614611a01576040517f08c379a000000000000000000000000000000000000000000000000000000000815260040180806020018281038252602d8152602001806126a9602d913960400191505060405180910390fd5b5050565b600080828401905083811015611a1757fe5b8091505092915050565b600080831415611a345760009050611a52565b6000828402905082848281611a4557fe5b0414611a4d57fe5b809150505b92915050565b611a606123b8565b611a68612626565b60008090505b611a846002600d5461244490919063ffffffff16565b811015611da657600b6000600c600084815260200190815260200160002054815260200190815260200160002060009054906101000a900473ffffffffffffffffffffffffffffffffffffffff16826000019073ffffffffffffffffffffffffffffffffffffffff16908173ffffffffffffffffffffffffffffffffffffffff1681525050600b6000600c6000611b25600186611a0590919063ffffffff16565b815260200190815260200160002054815260200190815260200160002060009054906101000a900473ffffffffffffffffffffffffffffffffffffffff16826020019073ffffffffffffffffffffffffffffffffffffffff16908173ffffffffffffffffffffffffffffffffffffffff1681525050600c600082815260200190815260200160002054826040018181525050600c6000611bcf600184611a0590919063ffffffff16565b8152602001908152602001600020548260600181815250506000600f6000600c600085815260200190815260200160002054815260200190815260200160002060006101000a81548160ff0219169083151502179055506000600f6000600c6000611c44600187611a0590919063ffffffff16565b815260200190815260200160002054815260200190815260200160002060006101000a81548160ff021916908315150217905550611c8e6001600a54611a0590919063ffffffff16565b600a8190555060006008541415611cad57600a54600881905550611ccd565b600a54600760006009548152602001908152602001600020600401819055505b600a546009819055508160076000600a54815260200190815260200160002060008201518160000160006101000a81548173ffffffffffffffffffffffffffffffffffffffff021916908373ffffffffffffffffffffffffffffffffffffffff16021790555060208201518160010160006101000a81548173ffffffffffffffffffffffffffffffffffffffff021916908373ffffffffffffffffffffffffffffffffffffffff160217905550604082015181600201556060820151816003015560808201518160040155905050600281019050611a6e565b506000600d81905550601060009054906101000a900460ff1615611de857611dcc61213e565b6000601060006101000a81548160ff0219169083151502179055505b50565b611df36123b8565b611dfb612626565b600b6000600c6000611e196001600d5461245d90919063ffffffff16565b815260200190815260200160002054815260200190815260200160002060009054906101000a900473ffffffffffffffffffffffffffffffffffffffff16816000019073ffffffffffffffffffffffffffffffffffffffff16908173ffffffffffffffffffffffffffffffffffffffff1681525050600b6000600c6000611eac6002600d5461245d90919063ffffffff16565b815260200190815260200160002054815260200190815260200160002060009054906101000a900473ffffffffffffffffffffffffffffffffffffffff16816020019073ffffffffffffffffffffffffffffffffffffffff16908173ffffffffffffffffffffffffffffffffffffffff1681525050600c6000611f3b6001600d5461245d90919063ffffffff16565b815260200190815260200160002054816040018181525050600c6000611f6d6002600d5461245d90919063ffffffff16565b8152602001908152602001600020548160600181815250506000600f6000600c6000611fa56001600d5461245d90919063ffffffff16565b815260200190815260200160002054815260200190815260200160002060006101000a81548160ff0219169083151502179055506000600f6000600c6000611ff96002600d5461245d90919063ffffffff16565b815260200190815260200160002054815260200190815260200160002060006101000a81548160ff0219169083151502179055506120436001600a54611a0590919063ffffffff16565b600a8190555061205f6002600d5461245d90919063ffffffff16565b600d819055508060076000600a54815260200190815260200160002060008201518160000160006101000a81548173ffffffffffffffffffffffffffffffffffffffff021916908373ffffffffffffffffffffffffffffffffffffffff16021790555060208201518160010160006101000a81548173ffffffffffffffffffffffffffffffffffffffff021916908373ffffffffffffffffffffffffffffffffffffffff160217905550604082015181600201556060820151816003015560808201518160040155905050600a5460088190555061213b61213e565b50565b600260009054906101000a900473ffffffffffffffffffffffffffffffffffffffff1673ffffffffffffffffffffffffffffffffffffffff16630144154160076000600854815260200190815260200160002060000160009054906101000a900473ffffffffffffffffffffffffffffffffffffffff1660076000600854815260200190815260200160002060010160009054906101000a900473ffffffffffffffffffffffffffffffffffffffff1660076000600854815260200190815260200160002060020154600760006008548152602001908152602001600020600301546122d542600360009054906101000a900473ffffffffffffffffffffffffffffffffffffffff1673ffffffffffffffffffffffffffffffffffffffff1663a38bcf206040518163ffffffff1660e01b815260040160206040518083038186803b15801561228c57600080fd5b505afa1580156122a0573d6000803e3d6000fd5b505050506040513d60208110156122b657600080fd5b8101908080519060200190929190505050611a0590919063ffffffff16565b6040518663ffffffff1660e01b8152600401808673ffffffffffffffffffffffffffffffffffffffff1673ffffffffffffffffffffffffffffffffffffffff1681526020018573ffffffffffffffffffffffffffffffffffffffff1673ffffffffffffffffffffffffffffffffffffffff16815260200184815260200183815260200182815260200195505050505050600060405180830381600087803b15801561237f57600080fd5b505af1158015612393573d6000803e3d6000fd5b5050505060076000600854815260200190815260200160002060040154600881905550565b60008090505b600d54811015612441576000600c600083815260200190815260200160002054905060006123ed600d54612474565b9050600c600082815260200190815260200160002054600c60008581526020019081526020016000208190555081600c600083815260200190815260200160002081905550505080806001019150506123be565b50565b60008082848161245057fe5b0490508091505092915050565b60008282111561246957fe5b818303905092915050565b6000806124f4834233600e54604051602001808481526020018373ffffffffffffffffffffffffffffffffffffffff1673ffffffffffffffffffffffffffffffffffffffff1660601b815260140182815260200193505050506040516020818303038152906040528051906020012060001c61251b90919063ffffffff16565b905061250c6001600e54611a0590919063ffffffff16565b600e8190555080915050919050565b600061255d83836040518060400160405280601881526020017f536166654d6174683a206d6f64756c6f206279207a65726f0000000000000000815250612565565b905092915050565b6000808314158290612612576040517f08c379a00000000000000000000000000000000000000000000000000000000081526004018080602001828103825283818151815260200191508051906020019080838360005b838110156125d75780820151818401526020810190506125bc565b50505050905090810190601f1680156126045780820380516001836020036101000a031916815260200191505b509250505060405180910390fd5b5082848161261c57fe5b0690509392505050565b6040518060a00160405280600073ffffffffffffffffffffffffffffffffffffffff168152602001600073ffffffffffffffffffffffffffffffffffffffff168152602001600081526020016000815260200160008152509056fe5363686564756c65723a2043616e6e6f74206c6973742073616d65204b6974747920616761696e416363657373206973206f6e6c7920616c6c6f7765642066726f6d20737065636966696320636f6e7472616374a265627a7a72315820554daa07cf07f4a25516dcb68d32dd1bf281ee87010b3caefcfa9366b55a7a6164736f6c63430005110032",
  "source": "/* Code by Xaleee ======================================================================================= Kittiefight */\r\n\r\n/**\r\n * @title Scheduler\r\n *\r\n * @author @kittieFIGHT @ola\r\n *\r\n */\r\n//modifier class (DSAuth )\r\n//Event class ( DSNote )\r\n//\r\n// This program is free software: you can redistribute it and/or modify\r\n// it under the terms of the GNU General Public License as published by\r\n// the Free Software Foundation, either version 3 of the License, or\r\n// (at your option) any later version.\r\n\r\n// This program is distributed in the hope that it will be useful,\r\n// but WITHOUT ANY WARRANTY; without even the implied warranty of\r\n// MERCHANTABILITY or FITNESS FOR A PARTICULAR PURPOSE.  See the\r\n// GNU General Public License for more details.\r\n\r\n// You should have received a copy of the GNU General Public License\r\n// along with this program.  If not, see <http://www.gnu.org/licenses/>.\r\npragma solidity ^0.5.5;\r\n\r\nimport '../proxy/Proxied.sol';\r\nimport \"../../libs/SafeMath.sol\";\r\nimport \"../../GameVarAndFee.sol\";\r\nimport \"./GameCreation.sol\";\r\nimport \"../../interfaces/ERC721.sol\";\r\nimport \"../kittieHELL/KittieHell.sol\";\r\nimport \"./GameStore.sol\";\r\n\r\n/**\r\n * @title Scheduler\r\n * @dev Responsible for game Schedule\r\n * @author @Xaleee\r\n */\r\n\r\ncontract Scheduler is Proxied {\r\n    using SafeMath for uint256;\r\n\r\n    GameCreation public gameCreation;\r\n    GameVarAndFee public gameVarAndFee;\r\n    KittieHell public kittieHell;\r\n    ERC721 public cryptoKitties;\r\n    GameStore public gameStore;\r\n\r\n    struct Game {\r\n        address playerRed;\r\n        address playerBlack;\r\n        uint256 kittyRed;\r\n        uint256 kittyBlack;\r\n        uint256 next;\r\n    }\r\n\r\n    mapping(uint256 => Game) public gameList;\r\n\r\n    uint256 headGame;\r\n    uint256 tailGame;\r\n    uint256 noOfGames;\r\n\r\n    mapping(uint256 => address) kittyOwner;\r\n    mapping(uint256 => uint256) kittyList;\r\n\r\n    uint256 noOfKittiesListed;\r\n\r\n    uint256 randomNonce;\r\n\r\n    mapping(uint256 => bool) public isKittyListed;\r\n\r\n    bool immediateStart = true;\r\n\r\n    /*                                                GENERAL VARIABLES                                               */\r\n    /*                                                       END                                                      */\r\n    /* ============================================================================================================== */\r\n\r\n    /*                                                    MODIFIERS                                                   */\r\n    /*                                                      START                                                     */\r\n    /* ============================================================================================================== */\r\n\r\n    modifier onlyUnlistedKitty(uint256 _kittyId) { \r\n        require(!isKittyListed[_kittyId], \"Scheduler: Cannot list same Kitty again\");\r\n        _;\r\n    }    \r\n\r\n    /*                                                    MODIFIERS                                                   */\r\n    /*                                                       END                                                      */\r\n    /* ============================================================================================================== */\r\n\r\n    /*                                                   INITIALIZOR                                                  */\r\n    /*                                                      START                                                     */\r\n    /* ============================================================================================================== */\r\n\r\n    /**\r\n    * @dev Initializes all contracts needed for Scheduler.\r\n    */\r\n    function initialize() public onlyOwner {\r\n        gameVarAndFee = GameVarAndFee(proxy.getContract(CONTRACT_NAME_GAMEVARANDFEE));\r\n        gameCreation = GameCreation(proxy.getContract(CONTRACT_NAME_GAMECREATION));\r\n        cryptoKitties = ERC721(proxy.getContract(CONTRACT_NAME_CRYPTOKITTIES));\r\n        kittieHell = KittieHell(proxy.getContract(CONTRACT_NAME_KITTIEHELL));\r\n        gameStore = GameStore(proxy.getContract(CONTRACT_NAME_GAMESTORE));\r\n    }\r\n\r\n    /*                                                   INITIALIZOR                                                  */\r\n    /*                                                       END                                                      */\r\n    /* ============================================================================================================== */\r\n\r\n    /*                                                 ACTION FUNCTIONS                                               */\r\n    /*                                                      START                                                     */\r\n    /* ============================================================================================================== */\r\n\r\n    /**\r\n    * @param _kittyId kitty id\r\n    * @param _player is the address of the player\r\n    */\r\n    function addKittyToList(uint256 _kittyId, address _player)\r\n    external\r\n    onlyContract(CONTRACT_NAME_GAMECREATION)\r\n    onlyUnlistedKitty(_kittyId)\r\n    {\r\n        require(kittieHell.acquireKitty(_kittyId, _player));\r\n        isKittyListed[_kittyId] = true;\r\n        kittyList[noOfKittiesListed] = _kittyId;\r\n        kittyOwner[_kittyId] = _player;\r\n        \r\n        noOfKittiesListed = noOfKittiesListed.add(1);\r\n\r\n        if(noOfKittiesListed >= 2) {\r\n            immediateStart = gameStore.checkGame();\r\n            if((gameVarAndFee.getRequiredNumberMatches().mul(2)) == noOfKittiesListed)\r\n                matchKitties();\r\n            else if(immediateStart) {\r\n                createFlashGame();\r\n                immediateStart = false;\r\n            }\r\n        }\r\n    }\r\n\r\n    /**\r\n     * @dev This function is called by GameManager's finalize function, so as a new game to be created immediately.\r\n     *      In case there are no matches created yet, it checks if there are 2 or more available kitties in Kittylist.\r\n     *      If yes, it creates a flash game for two random kitties, otherwise it makes immediateStart true, so as when\r\n     *      two kitties come in kittyList a flashGame to be created.\r\n     */\r\n    function startGame()\r\n    external\r\n    onlyContract(CONTRACT_NAME_GAMESTORE)\r\n    returns(bool)\r\n    {\r\n        if(headGame == 0) {\r\n            if(noOfKittiesListed >= 2)\r\n                createFlashGame();\r\n            else\r\n                return false;\r\n        }\r\n        else\r\n            _startGame();\r\n\r\n        return true;\r\n    }\r\n    \r\n    /*                                                 ACTION FUNCTIONS                                               */\r\n    /*                                                       END                                                      */\r\n    /* ============================================================================================================== */\r\n\r\n    /*                                                 GETTER FUNCTIONS                                               */\r\n    /*                                                      START                                                     */\r\n    /* ============================================================================================================== */\r\n\r\n    /**\r\n     * @dev This function is returning the kitties that are listed in kittyList.\r\n     */\r\n    function getListedKitties() public view returns (uint256[] memory){\r\n        uint256[] memory listedKitties = new uint256[](noOfKittiesListed);\r\n        for (uint256 i = 0; i < noOfKittiesListed; i++){\r\n            listedKitties[i] = kittyList[i];\r\n        }\r\n        return listedKitties;\r\n    }\r\n\r\n    /**\r\n     * @dev This function is returning the addresses of players that their Kitties are listed in kittyList.\r\n     */\r\n    function getListedPlayers() public view returns (address[] memory){\r\n        address[] memory listedPlayers = new address[](noOfKittiesListed);\r\n        for (uint256 i = 0; i < noOfKittiesListed; i++){\r\n            listedPlayers[i] = kittyOwner[kittyList[i]];\r\n        }\r\n        return listedPlayers;\r\n    }\r\n\r\n    /**\r\n     * @dev This function is returning true when kitty is in kittyList and false when not.\r\n     */\r\n    function isKittyListedForMatching(uint256 _kittyId)\r\n    external\r\n    view\r\n    returns(bool)\r\n    {\r\n        return isKittyListed[_kittyId];\r\n    }\r\n\r\n    /*                                                 GETTER FUNCTIONS                                               */\r\n    /*                                                       END                                                      */\r\n    /* ============================================================================================================== */\r\n\r\n    /*                                                INTERNAL FUNCTIONS                                              */\r\n    /*                                                      START                                                     */\r\n    /* ============================================================================================================== */\r\n\r\n    /**\r\n     * @dev This function is creating a flash games. Flash games are created when list has not yet reached the\r\n     *      required amount of Kitties, but gameManager asked for a game (case where no game exists).\r\n     */\r\n    function createFlashGame()\r\n    internal\r\n    {\r\n        shuffleKittyList();\r\n\r\n        Game memory game;\r\n        game.playerRed = kittyOwner[kittyList[noOfKittiesListed.sub(1)]];\r\n        game.playerBlack = kittyOwner[kittyList[noOfKittiesListed.sub(2)]];\r\n        game.kittyRed = kittyList[noOfKittiesListed.sub(1)];\r\n        game.kittyBlack = kittyList[noOfKittiesListed.sub(2)];\r\n\r\n        isKittyListed[kittyList[noOfKittiesListed.sub(1)]] = false;\r\n        isKittyListed[kittyList[noOfKittiesListed.sub(2)]] = false;\r\n\r\n        noOfGames = noOfGames.add(1);\r\n        noOfKittiesListed = noOfKittiesListed.sub(2);\r\n\r\n        gameList[noOfGames] = game;\r\n        headGame = noOfGames;\r\n\r\n        _startGame();\r\n    }\r\n\r\n    /**\r\n     * @dev This function is creating a whole list of games when required kitties are listed.\r\n     *      Starts a created game immediatelly if immediateStart is true.\r\n     */\r\n    function matchKitties() internal {\r\n        shuffleKittyList();\r\n\r\n        Game memory game;\r\n\r\n        for(uint256 i = 0; i < noOfKittiesListed.div(2); i += 2) {\r\n            game.playerRed = kittyOwner[kittyList[i]];\r\n            game.playerBlack = kittyOwner[kittyList[i.add(1)]];\r\n            game.kittyRed = kittyList[i];\r\n            game.kittyBlack = kittyList[i.add(1)];\r\n\r\n            isKittyListed[kittyList[i]] = false;\r\n            isKittyListed[kittyList[i.add(1)]] = false;\r\n\r\n            noOfGames = noOfGames.add(1);\r\n\r\n            if(headGame == 0)\r\n                headGame = noOfGames;\r\n            else\r\n                gameList[tailGame].next = noOfGames;\r\n\r\n            tailGame = noOfGames;\r\n            gameList[noOfGames] = game;\r\n        }\r\n\r\n        noOfKittiesListed = 0;\r\n\r\n        if(immediateStart) {\r\n            _startGame();\r\n            immediateStart = false;\r\n        }\r\n    }\r\n\r\n    /**\r\n     * @dev This function is creating a game, which becomes scheduled immediately.\r\n     */\r\n    function _startGame()\r\n    internal\r\n    {\r\n        gameCreation.createFight(\r\n            gameList[headGame].playerRed,\r\n            gameList[headGame].playerBlack,\r\n            gameList[headGame].kittyRed,\r\n            gameList[headGame].kittyBlack,\r\n            gameVarAndFee.getGameTimes().add(now)\r\n        );\r\n\r\n        headGame = gameList[headGame].next;\r\n    }\r\n\r\n\r\n    /**\r\n     * @dev This function is shuffling the list of Kitties, for random matching.\r\n     */\r\n    function shuffleKittyList() internal {\r\n        for(uint256 i = 0; i < noOfKittiesListed; i++) {\r\n            uint256 tempKitty = kittyList[i];\r\n            uint256 index = randomNumber(noOfKittiesListed);\r\n            kittyList[i] = kittyList[index];\r\n            kittyList[index] = tempKitty;\r\n        }\r\n    }\r\n\r\n    /**\r\n     * @dev This function is providing a random number between 0 and max.\r\n     * @param max The number generated is less than max (not euqal).\r\n     */\r\n    function randomNumber(uint256 max) internal returns (uint256){\r\n        uint256 random = uint256(keccak256(abi.encodePacked(block.timestamp, msg.sender, randomNonce))).mod(max);\r\n        randomNonce = randomNonce.add(1);\r\n        return random;\r\n    }\r\n    \r\n    /*                                                INTERNAL FUNCTIONS                                              */\r\n    /*                                                       END                                                      */\r\n    /* ============================================================================================================== */\r\n}\r\n",
  "sourcePath": "C:\\Users\\Alex\\Desktop\\MyProjects\\contracts\\contracts\\modules\\gamemanager\\Scheduler.sol",
  "compiler": {
    "name": "solc",
    "version": "0.5.17+commit.d19bba13.Emscripten.clang"
  },
  "schemaVersion": "3.0.11",
  "updatedAt": "2020-06-16T13:44:07.599Z",
  "devdoc": {
    "author": "@Xaleee",
    "details": "Responsible for game Schedule",
    "methods": {
      "addKittyToList(uint256,address)": {
        "params": {
          "_kittyId": "kitty id",
          "_player": "is the address of the player"
        }
      },
      "getListedKitties()": {
        "details": "This function is returning the kitties that are listed in kittyList."
      },
      "getListedPlayers()": {
        "details": "This function is returning the addresses of players that their Kitties are listed in kittyList."
      },
      "initialize()": {
        "details": "Initializes all contracts needed for Scheduler."
      },
      "isKittyListedForMatching(uint256)": {
        "details": "This function is returning true when kitty is in kittyList and false when not."
      },
      "startGame()": {
        "details": "This function is called by GameManager's finalize function, so as a new game to be created immediately.     In case there are no matches created yet, it checks if there are 2 or more available kitties in Kittylist.     If yes, it creates a flash game for two random kitties, otherwise it makes immediateStart true, so as when     two kitties come in kittyList a flashGame to be created."
      }
    },
    "title": "Scheduler"
  },
  "userdoc": {
    "methods": {
      "setProxy(address)": {
        "notice": "Set/update address of Proxy contract"
      }
    }
  }
}