{
  "contractName": "StringUtilsTest",
  "abi": [
    {
      "constant": true,
      "inputs": [
        {
          "internalType": "string",
          "name": "a",
          "type": "string"
        },
        {
          "internalType": "string",
          "name": "b",
          "type": "string"
        },
        {
          "internalType": "string",
          "name": "c",
          "type": "string"
        }
      ],
      "name": "concat",
      "outputs": [
        {
          "internalType": "string",
          "name": "",
          "type": "string"
        }
      ],
      "payable": false,
      "stateMutability": "pure",
      "type": "function"
    },
    {
      "constant": true,
      "inputs": [
        {
          "internalType": "string",
          "name": "a",
          "type": "string"
        },
        {
          "internalType": "string",
          "name": "b",
          "type": "string"
        }
      ],
      "name": "concat",
      "outputs": [
        {
          "internalType": "string",
          "name": "",
          "type": "string"
        }
      ],
      "payable": false,
      "stateMutability": "pure",
      "type": "function"
    },
    {
      "constant": true,
      "inputs": [
        {
          "internalType": "uint256",
          "name": "x",
          "type": "uint256"
        },
        {
          "internalType": "uint256",
          "name": "decimals",
          "type": "uint256"
        },
        {
          "internalType": "uint256",
          "name": "precision",
          "type": "uint256"
        }
      ],
      "name": "fromUint256",
      "outputs": [
        {
          "internalType": "string",
          "name": "",
          "type": "string"
        }
      ],
      "payable": false,
      "stateMutability": "pure",
      "type": "function"
    },
    {
      "constant": true,
      "inputs": [
        {
          "internalType": "uint256",
          "name": "x",
          "type": "uint256"
        }
      ],
      "name": "fromUint256",
      "outputs": [
        {
          "internalType": "string",
          "name": "",
          "type": "string"
        }
      ],
      "payable": false,
      "stateMutability": "pure",
      "type": "function"
    }
  ],
  "bytecode": "0x608060405234801561001057600080fd5b50610ccb806100206000396000f3fe608060405234801561001057600080fd5b506004361061004c5760003560e01c80634874e62d146100515780637d125935146102b357806389c19ddb1461036e578063a2bd364414610539575b600080fd5b6102386004803603606081101561006757600080fd5b810190808035906020019064010000000081111561008457600080fd5b82018360208201111561009657600080fd5b803590602001918460018302840111640100000000831117156100b857600080fd5b91908080601f016020809104026020016040519081016040528093929190818152602001838380828437600081840152601f19601f8201169050808301925050505050505091929192908035906020019064010000000081111561011b57600080fd5b82018360208201111561012d57600080fd5b8035906020019184600183028401116401000000008311171561014f57600080fd5b91908080601f016020809104026020016040519081016040528093929190818152602001838380828437600081840152601f19601f820116905080830192505050505050509192919290803590602001906401000000008111156101b257600080fd5b8201836020820111156101c457600080fd5b803590602001918460018302840111640100000000831117156101e657600080fd5b91908080601f016020809104026020016040519081016040528093929190818152602001838380828437600081840152601f19601f8201169050808301925050505050505091929192905050506105e0565b6040518080602001828103825283818151815260200191508051906020019080838360005b8381101561027857808201518184015260208101905061025d565b50505050905090810190601f1680156102a55780820380516001836020036101000a031916815260200191505b509250505060405180910390f35b6102f3600480360360608110156102c957600080fd5b81019080803590602001909291908035906020019092919080359060200190929190505050610600565b6040518080602001828103825283818151815260200191508051906020019080838360005b83811015610333578082015181840152602081019050610318565b50505050905090810190601f1680156103605780820380516001836020036101000a031916815260200191505b509250505060405180910390f35b6104be6004803603604081101561038457600080fd5b81019080803590602001906401000000008111156103a157600080fd5b8201836020820111156103b357600080fd5b803590602001918460018302840111640100000000831117156103d557600080fd5b91908080601f016020809104026020016040519081016040528093929190818152602001838380828437600081840152601f19601f8201169050808301925050505050505091929192908035906020019064010000000081111561043857600080fd5b82018360208201111561044a57600080fd5b8035906020019184600183028401116401000000008311171561046c57600080fd5b91908080601f016020809104026020016040519081016040528093929190818152602001838380828437600081840152601f19601f820116905080830192505050505050509192919290505050610620565b6040518080602001828103825283818151815260200191508051906020019080838360005b838110156104fe5780820151818401526020810190506104e3565b50505050905090810190601f16801561052b5780820380516001836020036101000a031916815260200191505b509250505060405180910390f35b6105656004803603602081101561054f57600080fd5b810190808035906020019092919050505061063d565b6040518080602001828103825283818151815260200191508051906020019080838360005b838110156105a557808201518184015260208101905061058a565b50505050905090810190601f1680156105d25780820380516001836020036101000a031916815260200191505b509250505060405180910390f35b60606105f783838661064f9092919063ffffffff16565b90509392505050565b606061061783838661076b9092919063ffffffff16565b90509392505050565b60606106358284610a9e90919063ffffffff16565b905092915050565b606061064882610b66565b9050919050565b60608383836040516020018084805190602001908083835b6020831061068a5780518252602082019150602081019050602083039250610667565b6001836020036101000a03801982511681845116808217855250505050505090500183805190602001908083835b602083106106db57805182526020820191506020810190506020830392506106b8565b6001836020036101000a03801982511681845116808217855250505050505090500182805190602001908083835b6020831061072c5780518252602082019150602081019050602083039250610709565b6001836020036101000a038019825116818451168082178552505050505050905001935050505060405160208183030381529060405290509392505050565b6060828211156107e3576040517f08c379a00000000000000000000000000000000000000000000000000000000081526004018080602001828103825260208152602001807f537472696e675574696c733a20696e636f727265637420707265636973696f6e81525060200191505060405180910390fd5b6000841415610829576040518060400160405280600181526020017f30000000000000000000000000000000000000000000000000000000000000008152509050610a97565b600084905060005b60008214610853578080600101915050600a828161084b57fe5b049150610831565b8481116108655760028501905061086c565b6001810190505b6000848603905060008183039050600060018783030390506060826040519080825280601f01601f1916602001820160405280156108b95781602001600182028038833980820191505090505b509050600083905084600a0a8b816108cd57fe5b0496505b600087146109ae5780806001900391505082811415610950577f2e0000000000000000000000000000000000000000000000000000000000000082828151811061091757fe5b60200101907effffffffffffffffffffffffffffffffffffffffffffffffffffffffffffff1916908160001a9053508080600190039150505b600a878161095a57fe5b0660300160f81b82828151811061096d57fe5b60200101907effffffffffffffffffffffffffffffffffffffffffffffffffffffffffffff1916908160001a905350600a87816109a657fe5b0496506108d1565b5b6000811115610a8c5780806001900391505082811415610a2a577f2e000000000000000000000000000000000000000000000000000000000000008282815181106109f657fe5b60200101907effffffffffffffffffffffffffffffffffffffffffffffffffffffffffffff1916908160001a905350610a87565b7f3000000000000000000000000000000000000000000000000000000000000000828281518110610a5757fe5b60200101907effffffffffffffffffffffffffffffffffffffffffffffffffffffffffffff1916908160001a9053505b6109af565b819750505050505050505b9392505050565b606082826040516020018083805190602001908083835b60208310610ad85780518252602082019150602081019050602083039250610ab5565b6001836020036101000a03801982511681845116808217855250505050505090500182805190602001908083835b60208310610b295780518252602082019150602081019050602083039250610b06565b6001836020036101000a03801982511681845116808217855250505050505090500192505050604051602081830303815290604052905092915050565b60606000821415610bae576040518060400160405280600181526020017f30000000000000000000000000000000000000000000000000000000000000008152509050610c91565b600082905060005b60008214610bd8578080600101915050600a8281610bd057fe5b049150610bb6565b6060816040519080825280601f01601f191660200182016040528015610c0d5781602001600182028038833980820191505090505b50905060006001830390508593505b60008414610c8957600a8481610c2e57fe5b0660300160f81b82828060019003935081518110610c4857fe5b60200101907effffffffffffffffffffffffffffffffffffffffffffffffffffffffffffff1916908160001a905350600a8481610c8157fe5b049350610c1c565b819450505050505b91905056fea265627a7a723158200429945660869fcd3dd5ade2bbfcf7ddce7b654442d6341786eda77472fb1d4164736f6c63430005110032",
  "source": "pragma solidity ^0.5.5;\r\n\r\nimport \"../libs/StringUtils.sol\";\r\n\r\ncontract StringUtilsTest {\r\n    using StringUtils for string;\r\n    using StringUtils for uint256;\r\n\r\n    function concat(string memory a, string memory b) public pure returns (string memory) {\r\n        return a.concat(b);\r\n    }\r\n    function concat(string memory a, string memory b, string memory c) public pure returns (string memory) {\r\n        return a.concat(b, c);\r\n    }\r\n    function fromUint256(uint256 x) public pure returns (string memory) {\r\n        return x.fromUint256();\r\n    }\r\n    function fromUint256(uint256 x, uint256 decimals, uint256 precision) public pure returns (string memory) {\r\n        return x.fromUint256(decimals, precision);\r\n    }\r\n}\r\n",
  "sourcePath": "C:/Users/Alex/Desktop/MyProjects/contracts/contracts/mocks/StringUtilsTest.sol",
  "compiler": {
    "name": "solc",
    "version": "0.5.17+commit.d19bba13.Emscripten.clang"
  },
  "schemaVersion": "3.0.11",
  "updatedAt": "2020-05-04T16:32:53.937Z",
  "devdoc": {
    "methods": {}
  },
  "userdoc": {
    "methods": {}
  }
}