{
  "contractName": "StringUtilsTest",
  "abi": [
    {
      "constant": true,
      "inputs": [
        {
          "internalType": "string",
          "name": "a",
          "type": "string"
        },
        {
          "internalType": "string",
          "name": "b",
          "type": "string"
        },
        {
          "internalType": "string",
          "name": "c",
          "type": "string"
        }
      ],
      "name": "concat",
      "outputs": [
        {
          "internalType": "string",
          "name": "",
          "type": "string"
        }
      ],
      "payable": false,
      "stateMutability": "pure",
      "type": "function"
    },
    {
      "constant": true,
      "inputs": [
        {
          "internalType": "string",
          "name": "a",
          "type": "string"
        },
        {
          "internalType": "string",
          "name": "b",
          "type": "string"
        }
      ],
      "name": "concat",
      "outputs": [
        {
          "internalType": "string",
          "name": "",
          "type": "string"
        }
      ],
      "payable": false,
      "stateMutability": "pure",
      "type": "function"
    },
    {
      "constant": true,
      "inputs": [
        {
          "internalType": "uint256",
          "name": "x",
          "type": "uint256"
        },
        {
          "internalType": "uint256",
          "name": "decimals",
          "type": "uint256"
        },
        {
          "internalType": "uint256",
          "name": "precision",
          "type": "uint256"
        }
      ],
      "name": "fromUint256",
      "outputs": [
        {
          "internalType": "string",
          "name": "",
          "type": "string"
        }
      ],
      "payable": false,
      "stateMutability": "pure",
      "type": "function"
    },
    {
      "constant": true,
      "inputs": [
        {
          "internalType": "uint256",
          "name": "x",
          "type": "uint256"
        }
      ],
      "name": "fromUint256",
      "outputs": [
        {
          "internalType": "string",
          "name": "",
          "type": "string"
        }
      ],
      "payable": false,
      "stateMutability": "pure",
      "type": "function"
    }
  ],
  "bytecode": "0x608060405234801561001057600080fd5b506108de806100206000396000f3fe608060405234801561001057600080fd5b506004361061004c5760003560e01c80634874e62d146100515780637d1259351461027457806389c19ddb1461029d578063a2bd3644146103c6575b600080fd5b6101ff6004803603606081101561006757600080fd5b810190602081018135600160201b81111561008157600080fd5b82018360208201111561009357600080fd5b803590602001918460018302840111600160201b831117156100b457600080fd5b91908080601f0160208091040260200160405190810160405280939291908181526020018383808284376000920191909152509295949360208101935035915050600160201b81111561010657600080fd5b82018360208201111561011857600080fd5b803590602001918460018302840111600160201b8311171561013957600080fd5b91908080601f0160208091040260200160405190810160405280939291908181526020018383808284376000920191909152509295949360208101935035915050600160201b81111561018b57600080fd5b82018360208201111561019d57600080fd5b803590602001918460018302840111600160201b831117156101be57600080fd5b91908080601f0160208091040260200160405190810160405280939291908181526020018383808284376000920191909152509295506103e3945050505050565b6040805160208082528351818301528351919283929083019185019080838360005b83811015610239578181015183820152602001610221565b50505050905090810190601f1680156102665780820380516001836020036101000a031916815260200191505b509250505060405180910390f35b6101ff6004803603606081101561028a57600080fd5b5080359060208101359060400135610400565b6101ff600480360360408110156102b357600080fd5b810190602081018135600160201b8111156102cd57600080fd5b8201836020820111156102df57600080fd5b803590602001918460018302840111600160201b8311171561030057600080fd5b91908080601f0160208091040260200160405190810160405280939291908181526020018383808284376000920191909152509295949360208101935035915050600160201b81111561035257600080fd5b82018360208201111561036457600080fd5b803590602001918460018302840111600160201b8311171561038557600080fd5b91908080601f016020809104026020016040519081016040528093929190818152602001838380828437600092019190915250929550610413945050505050565b6101ff600480360360208110156103dc57600080fd5b5035610425565b60606103f684848463ffffffff61043816565b90505b9392505050565b60606103f684848463ffffffff61053e16565b60606103f9838363ffffffff61072a16565b6060610430826107e5565b90505b919050565b60608383836040516020018084805190602001908083835b6020831061046f5780518252601f199092019160209182019101610450565b51815160209384036101000a600019018019909216911617905286519190930192860191508083835b602083106104b75780518252601f199092019160209182019101610498565b51815160209384036101000a600019018019909216911617905285519190930192850191508083835b602083106104ff5780518252601f1990920191602091820191016104e0565b6001836020036101000a038019825116818451168082178552505050505050905001935050505060405160208183030381529060405290509392505050565b606082821115610595576040805162461bcd60e51b815260206004820181905260248201527f537472696e675574696c733a20696e636f727265637420707265636973696f6e604482015290519081900360640190fd5b836105b857506040805180820190915260018152600360fc1b60208201526103f9565b8360005b81156105d057600101600a820491506105bc565b8481116105e15750600284016105e5565b6001015b60408051858703808403808352601f19601f820116830160200190935291906000198783030190606090838015610623576020820181803883390190505b50905082600a85900a8b8161063457fe5b0496505b86156106af57600019018281141561067757601760f91b82828151811061065b57fe5b60200101906001600160f81b031916908160001a905350600019015b600a870660300160f81b82828151811061068d57fe5b60200101906001600160f81b031916908160001a905350600a87049650610638565b801561071c5760001901828114156106ee57601760f91b8282815181106106d257fe5b60200101906001600160f81b031916908160001a905350610717565b600360fc1b8282815181106106ff57fe5b60200101906001600160f81b031916908160001a9053505b6106af565b509998505050505050505050565b606082826040516020018083805190602001908083835b602083106107605780518252601f199092019160209182019101610741565b51815160209384036101000a600019018019909216911617905285519190930192850191508083835b602083106107a85780518252601f199092019160209182019101610789565b6001836020036101000a03801982511681845116808217855250505050505090500192505050604051602081830303815290604052905092915050565b60608161080a57506040805180820190915260018152600360fc1b6020820152610433565b8160005b811561082257600101600a8204915061080e565b6060816040519080825280601f01601f19166020018201604052801561084f576020820181803883390190505b50859350905060001982015b83156108a057600a840660300160f81b8282806001900393508151811061087e57fe5b60200101906001600160f81b031916908160001a905350600a8404935061085b565b5094935050505056fea265627a7a723158207ceda3650be342bebbba45fc74b35b990409ce376a71da286bfbafd1c0743d0f64736f6c63430005110032",
  "source": "pragma solidity ^0.5.5;\n\nimport \"../libs/StringUtils.sol\";\n\ncontract StringUtilsTest {\n    using StringUtils for string;\n    using StringUtils for uint256;\n\n    function concat(string memory a, string memory b) public pure returns (string memory) {\n        return a.concat(b);\n    }\n    function concat(string memory a, string memory b, string memory c) public pure returns (string memory) {\n        return a.concat(b, c);\n    }\n    function fromUint256(uint256 x) public pure returns (string memory) {\n        return x.fromUint256();\n    }\n    function fromUint256(uint256 x, uint256 decimals, uint256 precision) public pure returns (string memory) {\n        return x.fromUint256(decimals, precision);\n    }\n}\n",
  "sourcePath": "/Users/ziweizhang/Desktop/kittifight-balancer/contracts/contracts/mocks/StringUtilsTest.sol",
  "compiler": {
    "name": "solc",
    "version": "0.5.17+commit.d19bba13.Emscripten.clang"
  },
  "schemaVersion": "3.0.23",
  "updatedAt": "2020-05-30T17:52:58.275Z",
  "devdoc": {
    "methods": {}
  },
  "userdoc": {
    "methods": {}
  }
}