{
  "contractName": "TimeFrame",
  "abi": [
    {
      "anonymous": false,
      "inputs": [
        {
          "indexed": true,
          "internalType": "uint256",
          "name": "epoch_0_id",
          "type": "uint256"
        },
        {
          "indexed": false,
          "internalType": "uint256",
          "name": "epoch_0_startTime",
          "type": "uint256"
        }
      ],
      "name": "Epoch0Set",
      "type": "event"
    },
    {
      "anonymous": false,
      "inputs": [
        {
          "indexed": true,
          "internalType": "uint256",
          "name": "epoch_id",
          "type": "uint256"
        },
        {
          "indexed": false,
          "internalType": "uint256",
          "name": "gamingDelay",
          "type": "uint256"
        },
        {
          "indexed": false,
          "internalType": "uint256",
          "name": "newEpochEndingTime",
          "type": "uint256"
        }
      ],
      "name": "GamingDelayAdded",
      "type": "event"
    },
    {
      "anonymous": false,
      "inputs": [
        {
          "indexed": true,
          "internalType": "uint256",
          "name": "newEpochId",
          "type": "uint256"
        },
        {
          "indexed": false,
          "internalType": "uint256",
          "name": "newEpochStartTime",
          "type": "uint256"
        }
      ],
      "name": "NewEpochSet",
      "type": "event"
    },
    {
      "constant": true,
      "inputs": [],
      "name": "REST_DAY",
      "outputs": [
        {
          "internalType": "uint256",
          "name": "",
          "type": "uint256"
        }
      ],
      "payable": false,
      "stateMutability": "view",
      "type": "function"
    },
    {
      "constant": true,
      "inputs": [],
      "name": "SIX_HOURS",
      "outputs": [
        {
          "internalType": "uint256",
          "name": "",
          "type": "uint256"
        }
      ],
      "payable": false,
      "stateMutability": "view",
      "type": "function"
    },
    {
      "constant": true,
      "inputs": [],
      "name": "SIX_WORKING_DAYS",
      "outputs": [
        {
          "internalType": "uint256",
          "name": "",
          "type": "uint256"
        }
      ],
      "payable": false,
      "stateMutability": "view",
      "type": "function"
    },
    {
      "constant": true,
      "inputs": [
        {
          "internalType": "uint256",
          "name": "",
          "type": "uint256"
        }
      ],
      "name": "lifeTimeEpochs",
      "outputs": [
        {
          "internalType": "uint256",
          "name": "sixDayStart",
          "type": "uint256"
        },
        {
          "internalType": "uint256",
          "name": "sixDayEnd",
          "type": "uint256"
        },
        {
          "internalType": "uint256",
          "name": "gamingDelay",
          "type": "uint256"
        },
        {
          "internalType": "uint256",
          "name": "restDAYStart",
          "type": "uint256"
        },
        {
          "internalType": "uint256",
          "name": "restDAYEnd",
          "type": "uint256"
        },
        {
          "internalType": "bool",
          "name": "unlocked",
          "type": "bool"
        }
      ],
      "payable": false,
      "stateMutability": "view",
      "type": "function"
    },
    {
      "constant": true,
      "inputs": [],
      "name": "numberOfEpochs",
      "outputs": [
        {
          "internalType": "uint256",
          "name": "",
          "type": "uint256"
        }
      ],
      "payable": false,
      "stateMutability": "view",
      "type": "function"
    },
    {
      "constant": true,
      "inputs": [],
      "name": "owner",
      "outputs": [
        {
          "internalType": "address payable",
          "name": "",
          "type": "address"
        }
      ],
      "payable": false,
      "stateMutability": "view",
      "type": "function"
    },
    {
      "constant": true,
      "inputs": [],
      "name": "proxy",
      "outputs": [
        {
          "internalType": "contract ProxyBase",
          "name": "",
          "type": "address"
        }
      ],
      "payable": false,
      "stateMutability": "view",
      "type": "function"
    },
    {
      "constant": false,
      "inputs": [
        {
          "internalType": "contract ProxyBase",
          "name": "_proxy",
          "type": "address"
        }
      ],
      "name": "setProxy",
      "outputs": [],
      "payable": false,
      "stateMutability": "nonpayable",
      "type": "function"
    },
    {
      "constant": false,
      "inputs": [
        {
          "internalType": "address payable",
          "name": "newOwner",
          "type": "address"
        }
      ],
      "name": "transferOwnership",
      "outputs": [],
      "payable": false,
      "stateMutability": "nonpayable",
      "type": "function"
    },
    {
      "constant": false,
      "inputs": [
        {
          "internalType": "uint256",
          "name": "sixWorking",
          "type": "uint256"
        },
        {
          "internalType": "uint256",
          "name": "restDay",
          "type": "uint256"
        },
        {
          "internalType": "uint256",
          "name": "sixHours",
          "type": "uint256"
        }
      ],
      "name": "setTimes",
      "outputs": [],
      "payable": false,
      "stateMutability": "nonpayable",
      "type": "function"
    },
    {
      "constant": false,
      "inputs": [],
      "name": "setEpoch_0",
      "outputs": [],
      "payable": false,
      "stateMutability": "nonpayable",
      "type": "function"
    },
    {
      "constant": false,
      "inputs": [],
      "name": "setNewEpoch",
      "outputs": [],
      "payable": false,
      "stateMutability": "nonpayable",
      "type": "function"
    },
    {
      "constant": false,
      "inputs": [
        {
          "internalType": "uint256",
          "name": "epoch_id",
          "type": "uint256"
        },
        {
          "internalType": "uint256",
          "name": "gamingDelay",
          "type": "uint256"
        }
      ],
      "name": "unlockAndAddDelay",
      "outputs": [],
      "payable": false,
      "stateMutability": "nonpayable",
      "type": "function"
    },
    {
      "constant": false,
      "inputs": [],
      "name": "terminateEpochManually",
      "outputs": [],
      "payable": false,
      "stateMutability": "nonpayable",
      "type": "function"
    },
    {
      "constant": false,
      "inputs": [],
      "name": "setNewEpochManually",
      "outputs": [],
      "payable": false,
      "stateMutability": "nonpayable",
      "type": "function"
    },
    {
      "constant": true,
      "inputs": [
        {
          "internalType": "uint256",
          "name": "year",
          "type": "uint256"
        },
        {
          "internalType": "uint256",
          "name": "month",
          "type": "uint256"
        },
        {
          "internalType": "uint256",
          "name": "day",
          "type": "uint256"
        },
        {
          "internalType": "uint256",
          "name": "hour",
          "type": "uint256"
        },
        {
          "internalType": "uint256",
          "name": "minute",
          "type": "uint256"
        },
        {
          "internalType": "uint256",
          "name": "second",
          "type": "uint256"
        }
      ],
      "name": "timestampFromDateTime",
      "outputs": [
        {
          "internalType": "uint256",
          "name": "timestamp",
          "type": "uint256"
        }
      ],
      "payable": false,
      "stateMutability": "pure",
      "type": "function"
    },
    {
      "constant": true,
      "inputs": [
        {
          "internalType": "uint256",
          "name": "timestamp",
          "type": "uint256"
        }
      ],
      "name": "timestampToDateTime",
      "outputs": [
        {
          "internalType": "uint256",
          "name": "year",
          "type": "uint256"
        },
        {
          "internalType": "uint256",
          "name": "month",
          "type": "uint256"
        },
        {
          "internalType": "uint256",
          "name": "day",
          "type": "uint256"
        },
        {
          "internalType": "uint256",
          "name": "hour",
          "type": "uint256"
        },
        {
          "internalType": "uint256",
          "name": "minute",
          "type": "uint256"
        },
        {
          "internalType": "uint256",
          "name": "second",
          "type": "uint256"
        }
      ],
      "payable": false,
      "stateMutability": "pure",
      "type": "function"
    },
    {
      "constant": true,
      "inputs": [],
      "name": "getActiveEpochID",
      "outputs": [
        {
          "internalType": "uint256",
          "name": "",
          "type": "uint256"
        }
      ],
      "payable": false,
      "stateMutability": "view",
      "type": "function"
    },
    {
      "constant": true,
      "inputs": [],
      "name": "getLastEpochID",
      "outputs": [
        {
          "internalType": "uint256",
          "name": "",
          "type": "uint256"
        }
      ],
      "payable": false,
      "stateMutability": "view",
      "type": "function"
    },
    {
      "constant": true,
      "inputs": [
        {
          "internalType": "uint256",
          "name": "epoch_id",
          "type": "uint256"
        }
      ],
      "name": "isEpochActive",
      "outputs": [
        {
          "internalType": "bool",
          "name": "",
          "type": "bool"
        }
      ],
      "payable": false,
      "stateMutability": "view",
      "type": "function"
    },
    {
      "constant": true,
      "inputs": [],
      "name": "canStartNewGame",
      "outputs": [
        {
          "internalType": "bool",
          "name": "",
          "type": "bool"
        }
      ],
      "payable": false,
      "stateMutability": "view",
      "type": "function"
    },
    {
      "constant": true,
      "inputs": [
        {
          "internalType": "uint256",
          "name": "epoch_id",
          "type": "uint256"
        }
      ],
      "name": "hasEpochStarted",
      "outputs": [
        {
          "internalType": "bool",
          "name": "",
          "type": "bool"
        }
      ],
      "payable": false,
      "stateMutability": "view",
      "type": "function"
    },
    {
      "constant": true,
      "inputs": [
        {
          "internalType": "uint256",
          "name": "epoch_id",
          "type": "uint256"
        }
      ],
      "name": "hasEpochEnded",
      "outputs": [
        {
          "internalType": "bool",
          "name": "",
          "type": "bool"
        }
      ],
      "payable": false,
      "stateMutability": "view",
      "type": "function"
    },
    {
      "constant": true,
      "inputs": [
        {
          "internalType": "uint256",
          "name": "epoch_id",
          "type": "uint256"
        }
      ],
      "name": "gamingDelay",
      "outputs": [
        {
          "internalType": "uint256",
          "name": "",
          "type": "uint256"
        }
      ],
      "payable": false,
      "stateMutability": "view",
      "type": "function"
    },
    {
      "constant": true,
      "inputs": [
        {
          "internalType": "uint256",
          "name": "epoch_id",
          "type": "uint256"
        }
      ],
      "name": "_epochStartTime",
      "outputs": [
        {
          "internalType": "uint256",
          "name": "",
          "type": "uint256"
        }
      ],
      "payable": false,
      "stateMutability": "view",
      "type": "function"
    },
    {
      "constant": true,
      "inputs": [
        {
          "internalType": "uint256",
          "name": "epoch_id",
          "type": "uint256"
        }
      ],
      "name": "epochStartTime",
      "outputs": [
        {
          "internalType": "uint256",
          "name": "year",
          "type": "uint256"
        },
        {
          "internalType": "uint256",
          "name": "month",
          "type": "uint256"
        },
        {
          "internalType": "uint256",
          "name": "day",
          "type": "uint256"
        },
        {
          "internalType": "uint256",
          "name": "hour",
          "type": "uint256"
        },
        {
          "internalType": "uint256",
          "name": "minute",
          "type": "uint256"
        },
        {
          "internalType": "uint256",
          "name": "second",
          "type": "uint256"
        }
      ],
      "payable": false,
      "stateMutability": "view",
      "type": "function"
    },
    {
      "constant": true,
      "inputs": [
        {
          "internalType": "uint256",
          "name": "epoch_id",
          "type": "uint256"
        }
      ],
      "name": "_epochEndTime",
      "outputs": [
        {
          "internalType": "uint256",
          "name": "",
          "type": "uint256"
        }
      ],
      "payable": false,
      "stateMutability": "view",
      "type": "function"
    },
    {
      "constant": true,
      "inputs": [
        {
          "internalType": "uint256",
          "name": "epoch_id",
          "type": "uint256"
        }
      ],
      "name": "epochEndTime",
      "outputs": [
        {
          "internalType": "uint256",
          "name": "year",
          "type": "uint256"
        },
        {
          "internalType": "uint256",
          "name": "month",
          "type": "uint256"
        },
        {
          "internalType": "uint256",
          "name": "day",
          "type": "uint256"
        },
        {
          "internalType": "uint256",
          "name": "hour",
          "type": "uint256"
        },
        {
          "internalType": "uint256",
          "name": "minute",
          "type": "uint256"
        },
        {
          "internalType": "uint256",
          "name": "second",
          "type": "uint256"
        }
      ],
      "payable": false,
      "stateMutability": "view",
      "type": "function"
    },
    {
      "constant": true,
      "inputs": [
        {
          "internalType": "uint256",
          "name": "epoch_id",
          "type": "uint256"
        }
      ],
      "name": "elapsedSinceEpochStart",
      "outputs": [
        {
          "internalType": "uint256",
          "name": "",
          "type": "uint256"
        }
      ],
      "payable": false,
      "stateMutability": "view",
      "type": "function"
    },
    {
      "constant": true,
      "inputs": [
        {
          "internalType": "uint256",
          "name": "epoch_id",
          "type": "uint256"
        }
      ],
      "name": "timeUntilEpochEnd",
      "outputs": [
        {
          "internalType": "uint256",
          "name": "",
          "type": "uint256"
        }
      ],
      "payable": false,
      "stateMutability": "view",
      "type": "function"
    },
    {
      "constant": true,
      "inputs": [],
      "name": "workingDayStartTime",
      "outputs": [
        {
          "internalType": "uint256",
          "name": "start",
          "type": "uint256"
        }
      ],
      "payable": false,
      "stateMutability": "view",
      "type": "function"
    },
    {
      "constant": true,
      "inputs": [],
      "name": "workingDayEndTime",
      "outputs": [
        {
          "internalType": "uint256",
          "name": "end",
          "type": "uint256"
        }
      ],
      "payable": false,
      "stateMutability": "view",
      "type": "function"
    },
    {
      "constant": true,
      "inputs": [],
      "name": "checkBurn",
      "outputs": [
        {
          "internalType": "bool",
          "name": "",
          "type": "bool"
        }
      ],
      "payable": false,
      "stateMutability": "view",
      "type": "function"
    },
    {
      "constant": true,
      "inputs": [],
      "name": "restDayStartTime",
      "outputs": [
        {
          "internalType": "uint256",
          "name": "end",
          "type": "uint256"
        }
      ],
      "payable": false,
      "stateMutability": "view",
      "type": "function"
    },
    {
      "constant": true,
      "inputs": [],
      "name": "restDayEndTime",
      "outputs": [
        {
          "internalType": "uint256",
          "name": "end",
          "type": "uint256"
        }
      ],
      "payable": false,
      "stateMutability": "view",
      "type": "function"
    },
    {
      "constant": true,
      "inputs": [
        {
          "internalType": "uint256",
          "name": "epoch_id",
          "type": "uint256"
        }
      ],
      "name": "isWorkingDay",
      "outputs": [
        {
          "internalType": "bool",
          "name": "",
          "type": "bool"
        }
      ],
      "payable": false,
      "stateMutability": "view",
      "type": "function"
    },
    {
      "constant": true,
      "inputs": [
        {
          "internalType": "uint256",
          "name": "epoch_id",
          "type": "uint256"
        }
      ],
      "name": "isRestDay",
      "outputs": [
        {
          "internalType": "bool",
          "name": "",
          "type": "bool"
        }
      ],
      "payable": false,
      "stateMutability": "view",
      "type": "function"
    },
    {
      "constant": true,
      "inputs": [
        {
          "internalType": "uint256",
          "name": "epoch_id",
          "type": "uint256"
        }
      ],
      "name": "epochLength",
      "outputs": [
        {
          "internalType": "uint256",
          "name": "",
          "type": "uint256"
        }
      ],
      "payable": false,
      "stateMutability": "view",
      "type": "function"
    }
  ],
  "bytecode": "0x60806040526207e90060025562015180600355615460600455600080546001600160a01b03191633179055611825806100396000396000f3fe608060405234801561001057600080fd5b50600436106102325760003560e01c80639b42e54711610130578063ddfbc300116100b8578063ed0c79ec1161007c578063ed0c79ec14610574578063f1b0f71f1461057c578063f2fde38b14610599578063f81fab09146105bf578063fc3b5b73146105dc57610232565b8063ddfbc3001461050d578063e2e5ee5e14610515578063ea1c169014610532578063ec5568891461054f578063ec5e859b1461055757610232565b8063aff3a966116100ff578063aff3a966146104bb578063b8d10d92146104c3578063ba43c381146104e0578063bbbe6121146104e8578063cf8c8ee9146104f057610232565b80639b42e54714610480578063a0559ae414610488578063a7ea9a6014610490578063ada3da051461049857610232565b80636a1fc440116101be5780638893360a116101825780638893360a146103e85780638da5cb5b146103f05780638de5efa9146104145780638f704aec1461043157806397107d6d1461045a57610232565b80636a1fc4401461034b57806374716b4c1461037c5780637f1b7a4b1461038657806386879db31461038e57806387d554291461039657610232565b8063337122421161020557806333712242146102c657806347c0c50c146102ce578063504a38dd146102eb578063534cacda146102f35780635e05bd6d1461031057610232565b806309d63662146102375780630b3fbd5f1461028757806317368841146102a15780632ca12ad0146102a9575b600080fd5b6102546004803603602081101561024d57600080fd5b50356105f9565b604080519687526020870195909552858501939093526060850191909152608084015260a0830152519081900360c00190f35b61028f61062d565b60408051918252519081900360200190f35b61028f61065c565b61028f600480360360208110156102bf57600080fd5b5035610662565b61028f610677565b61028f600480360360208110156102e457600080fd5b503561067d565b61028f61068f565b61028f6004803603602081101561030957600080fd5b5035610695565b61028f600480360360c081101561032657600080fd5b5080359060208101359060408101359060608101359060808101359060a00135610713565b6103686004803603602081101561036157600080fd5b503561072e565b604080519115158252519081900360200190f35b610384610760565b005b6103846108dd565b61028f610924565b6103b3600480360360208110156103ac57600080fd5b503561093b565b6040805196875260208701959095528585019390935260608501919091526080840152151560a0830152519081900360c00190f35b610384610973565b6103f8610a99565b604080516001600160a01b039092168252519081900360200190f35b6103686004803603602081101561042a57600080fd5b5035610aa8565b6103846004803603606081101561044757600080fd5b5080359060208101359060400135610ada565b6103846004803603602081101561047057600080fd5b50356001600160a01b0316610b5f565b610384610b95565b61028f610bcb565b610368610bd1565b610384600480360360408110156104ae57600080fd5b5080359060200135610c26565b610368610c99565b61028f600480360360208110156104d957600080fd5b5035610cef565b61028f610d72565b61028f610d95565b61028f6004803603602081101561050657600080fd5b5035610db8565b61028f610dcd565b6103686004803603602081101561052b57600080fd5b5035610ded565b6102546004803603602081101561054857600080fd5b5035610e04565b6103f8610e2a565b6103686004803603602081101561056d57600080fd5b5035610e39565b61028f610e6e565b6103686004803603602081101561059257600080fd5b5035610e91565b610384600480360360208110156105af57600080fd5b50356001600160a01b0316610ea6565b610254600480360360208110156105d557600080fd5b5035610ee9565b61028f600480360360208110156105f257600080fd5b5035610efd565b600080600080600080600061060d8861067d565b905061061881610f8a565b949d939c50919a509850965090945092505050565b60006002600554101561064257506000610659565b60055461065690600163ffffffff610fca16565b90505b90565b60055481565b60009081526006602052604090206004015490565b60025481565b60009081526006602052604090205490565b60035481565b6000818152600660205260408120600401544211156106eb576040805162461bcd60e51b815260206004820152600d60248201526c105b1c9958591e48195b991959609a1b604482015290519081900360640190fd5b60008281526006602052604090206004015461070d904263ffffffff610fca16565b92915050565b6000610723878787878787610fdc565b979650505050505050565b600081815260066020526040812054421080159061070d57505060009081526006602052604090206004015442111590565b6040518060400160405280600c81526020016b15da5d1a191c985dd41bdbdb60a21b81525061078e81611006565b600080526006602052427f54cdd369e4e8a8515e52ca72ec816c2101831ad1f18bf44102ed171459c9b4f88190556002546107cf919063ffffffff61117b16565b6000805260066020527f54cdd369e4e8a8515e52ca72ec816c2101831ad1f18bf44102ed171459c9b4f95560025461080e90429063ffffffff61117b16565b6000805260066020527f54cdd369e4e8a8515e52ca72ec816c2101831ad1f18bf44102ed171459c9b4fb55600354600254610861919061085590429063ffffffff61117b16565b9063ffffffff61117b16565b6000805260066020527f54cdd369e4e8a8515e52ca72ec816c2101831ad1f18bf44102ed171459c9b4fc556005546108a090600163ffffffff61117b16565b6005556040805142815290516000917f80f51810c3e4ccd6faefe6a5b76217465eb96cdd3f7ea2fe0224edbb3315ceea919081900360200190a250565b6040518060400160405280600c81526020016b15da5d1a191c985dd41bdbdb60a21b81525061090b81611006565b600061091561062d565b905061092081611191565b5050565b60055460009061065690600163ffffffff610fca16565b600660205260009081526040902080546001820154600283015460038401546004850154600590950154939492939192909160ff1686565b6040518060400160405280600c81526020016b15da5d1a191c985dd41bdbdb60a21b8152506109a181611006565b6005546109ac61178b565b428082526002546109c3919063ffffffff61117b16565b60208201819052606082018190526003546109e4919063ffffffff61117b16565b608082019081526000838152600660209081526040918290208451815590840151600180830191909155918401516002820155606084015160038201559151600483015560a08301516005928301805460ff19169115159190911790559054610a4c9161117b565b600555600082815260066020908152604091829020548251908152915184927f813b5ae846aa5ec7ebe169b5997b967339dda9c14a7916471c5b167c71f315d492908290030190a2505050565b6000546001600160a01b031681565b600081815260066020526040812054421080159061070d57505060009081526006602052604090206001015442111590565b33610ae157fe5b610b0d6040518060400160405280600b81526020016a39bab832b92fb0b236b4b760a91b81525061121d565b610b51576040805162461bcd60e51b815260206004820152601060248201526f27b7363c9039bab832b91030b236b4b760811b604482015290519081900360640190fd5b600292909255600355600455565b6000546001600160a01b03163314610b7357fe5b600180546001600160a01b0319166001600160a01b0392909216919091179055565b6040518060400160405280600981526020016847616d6553746f726560b81b815250610bc081611006565b610bc86113fe565b50565b60045481565b600080610bdc61062d565b6000818152600660205260409020549091504210801590610c205750600454600082815260066020526040902060010154610c1c9163ffffffff610fca16565b4211155b91505090565b81610c308161072e565b610c3957600080fd5b6040518060400160405280600c81526020016b15da5d1a191c985dd41bdbdb60a21b815250610c6781611006565b6000848152600660205260409020600501805460ff191660011790558215610c9357610c938484611535565b50505050565b600080610ca461062d565b60008181526006602052604090206005015490915060ff168015610cd8575060008181526006602052604090206001015442115b15610ce7576001915050610659565b600091505090565b600081815260066020526040812054421015610d52576040805162461bcd60e51b815260206004820152601960248201527f45706f636820686173206e6f7420737461727465642079657400000000000000604482015290519081900360640190fd5b60008281526006602052604090205461070d90429063ffffffff610fca16565b600080610d7d61062d565b60009081526006602052604090206001015492915050565b600080610da061062d565b60009081526006602052604090206003015492915050565b60009081526006602052604090206002015490565b600080610dd861062d565b60009081526006602052604090205492915050565b600090815260066020526040902060010154421190565b600080600080600080610e1687610f8a565b949c939b5091995097509550909350915050565b6001546001600160a01b031681565b600081815260066020526040812060030154421080159061070d57505060009081526006602052604090206004015442111590565b600080610e7961062d565b60009081526006602052604090206004015492915050565b60009081526006602052604090205442101590565b6000546001600160a01b03163314610eba57fe5b6001600160a01b03811615610bc857600080546001600160a01b0383166001600160a01b031990911617905550565b600080600080600080600061060d88610662565b6000818152600660205260408120600481015490541115610f65576040805162461bcd60e51b815260206004820152601b60248201527f496e76616c696420737461727420616e6420656e642064617465730000000000604482015290519081900360640190fd5b6000828152600660205260409020805460049091015461070d9163ffffffff610fca16565b60008080808080610f9f620151808804611637565b91999098919750610e10620151809092068281049750603c9290068281049650919091069350915050565b600082821115610fd657fe5b50900390565b600081603c8402610e10860262015180610ff78b8b8b6116cd565b02010101979650505050505050565b6001546001600160a01b031661104e576040805162461bcd60e51b81526020600482015260086024820152674e6f2050726f787960c01b604482015290519081900360640190fd5b600154604051633581777360e01b81526020600482018181528451602484015284516000946001600160a01b0316936335817773938793928392604401918501908083838b5b838110156110ac578181015183820152602001611094565b50505050905090810190601f1680156110d95780820380516001836020036101000a031916815260200191505b509250505060206040518083038186803b1580156110f657600080fd5b505afa15801561110a573d6000803e3d6000fd5b505050506040513d602081101561112057600080fd5b505190506001600160a01b03811661113457fe5b336001600160a01b038216146109205760405162461bcd60e51b815260040180806020018281038252602d8152602001806117c4602d913960400191505060405180910390fd5b60008282018381101561118a57fe5b9392505050565b6000818152600660205260409020600401544211156111f7576040805162461bcd60e51b815260206004820152601760248201527f45706f63682068617320616c726561647920656e646564000000000000000000604482015290519081900360640190fd5b61120842600163ffffffff610fca16565b60009182526006602052604090912060040155565b60015460408051808201825260068152652937b632a22160d11b60208083019182529251633581777360e01b8152600481019384528251602482015282516000956001600160a01b0316946335817773949390928392604490910191908083838b5b8381101561129757818101518382015260200161127f565b50505050905090810190601f1680156112c45780820380516001836020036101000a031916815260200191505b509250505060206040518083038186803b1580156112e157600080fd5b505afa1580156112f5573d6000803e3d6000fd5b505050506040513d602081101561130b57600080fd5b50516001600160a01b0316636c9cd09783611324611749565b604080516001600160e01b031960e086901b1681526001600160a01b038316602482015260048101918252835160448201528351829160640190602086019080838360005b83811015611381578181015183820152602001611369565b50505050905090810190601f1680156113ae5780820380516001836020036101000a031916815260200191505b50935050505060206040518083038186803b1580156113cc57600080fd5b505afa1580156113e0573d6000803e3d6000fd5b505050506040513d60208110156113f657600080fd5b505192915050565b60055460009061141590600163ffffffff610fca16565b60055490915061142361178b565b60008381526006602052604090206004015480825260025461144c90829063ffffffff61117b16565b602083015260025461146590829063ffffffff61117b16565b6060830181905260035461147f919063ffffffff61117b16565b608083019081526000848152600660209081526040918290208551815590850151600180830191909155918501516002820155606085015160038201559151600483015560a08401516005928301805460ff191691151591909117905590546114e79161117b565b600555600083815260066020908152604091829020548251908152915185927f813b5ae846aa5ec7ebe169b5997b967339dda9c14a7916471c5b167c71f315d492908290030190a250505050565b6000811161154257600080fd5b600082815260066020526040902060020154611564908263ffffffff61117b16565b600083815260066020526040902060028101919091556001015461158e908263ffffffff61117b16565b60008381526006602052604090206001810191909155600301546115b8908263ffffffff61117b16565b60008381526006602052604090206003810191909155600401546115e2908263ffffffff61117b16565b600083815260066020908152604091829020600401839055815184815290810192909252805184927f1631699097dd0f9a7e1a3434ae3b0234e0cd614d24e9709088cb0c6841458e5a92908290030190a25050565b60008080836226496581018262023ab1600483020590506004600362023ab18302010590910390600062164b09610fa0600185010205905060046105b58202058303601f019250600061098f846050028161168e57fe5b0590506000605061098f83020585039050600b820560301994909401606402929092018301996002600c90940290910392909201975095509350505050565b60006107b28410156116de57600080fd5b838383600062253d8c600460036064611324600c600d19890105890101050205600c80600d19870105600c02600287030361016f028161171a57fe5b0560046105b5600c600d1989010589016112c0010205617d4b8603010103039050809450505050509392505050565b6001546000906001600160a01b03163314611765575033610659565b6000601436036000602052601481602c3750506020516001600160a01b03811661065657fe5b6040518060c001604052806000815260200160008152602001600081526020016000815260200160008152602001600015158152509056fe416363657373206973206f6e6c7920616c6c6f7765642066726f6d20737065636966696320636f6e7472616374a265627a7a723158207b3ec8a63ce5978ad369e0e915a75962583570d581715e78b7f4feb35a0f942764736f6c63430005110032",
  "source": "/**\n* @title TimeFrame\n*\n* @author @ziweidream\n*\n*/\n\npragma solidity ^0.5.5;\n\n/**\n * @title Contract to mark weekly epochs and any possible delays\n * in the epochs in timestamps while using BokkyPooBah's DateTime Library\n * to translate such timestamps and difference between timestamps to\n * human readable outputs in year/month/day hour:minute:second.\n * Used by contracts for time tracking, accurately scheduling game events,\n * and for timeframe distinctions for financial activities regarding NFT/KETH\n * as well as staking superDao/withdrawing yields.\n */\n\n import \"../../libs/SafeMath.sol\";\n import \"../../libs/BokkyPooBahsDateTimeLibrary.sol\";\n import \"../proxy/Proxied.sol\";\n import \"../../authority/Guard.sol\";\n\n contract TimeFrame is Proxied, Guard {\n     using SafeMath for uint;\n     using BokkyPooBahsDateTimeLibrary for uint;\n\n     uint public SIX_WORKING_DAYS = 6 * 24 * 60 * 60;\n     uint public REST_DAY = 24 * 60 * 60;\n     uint public SIX_HOURS = 6 * 60 * 60;\n\n     /// @dev total number of epochs\n     uint public numberOfEpochs;\n\n     struct Epoch {\n         /// @dev Unix time of the start of an epoch\n         uint sixDayStart;\n         /// @dev Unix time of the end of an epoch (should be greater than start)\n         uint sixDayEnd;\n         /// @dev Delay time duration in seconds\n         uint gamingDelay;\n         /// @dev Unix time of the start of a rest day (sixDayEnd or gamingDelay+now)\n         uint restDAYStart;\n         /// @dev Unix time of the end of a rest day (restDAYStart+24hours)\n         uint restDAYEnd;\n         bool unlocked;\n     }\n\n     /// @dev a list of all epochs throughout lifetime of system\n     mapping (uint => Epoch) public lifeTimeEpochs;\n\n     //===================== events ===================\n     event Epoch0Set(uint indexed epoch_0_id, uint epoch_0_startTime);\n     event NewEpochSet(uint indexed newEpochId, uint newEpochStartTime);\n     event GamingDelayAdded(\n         uint indexed epoch_id,\n         uint gamingDelay,\n         uint newEpochEndingTime\n         );\n\n     //===================== modifiers ===================\n     modifier onlyActiveEpoch(uint epoch_id) {\n         require(isEpochActive(epoch_id));\n         _;\n     }\n\n     //===================== setters ===================\n\n     function setTimes(uint256 sixWorking, uint256 restDay, uint256 sixHours)\n     public\n     onlySuperAdmin()\n     {\n        SIX_WORKING_DAYS = sixWorking;\n        REST_DAY = restDay;\n        SIX_HOURS = sixHours;\n     }\n     /**\n      * @dev sets epoch 0\n      */\n     function setEpoch_0()\n     public\n     onlyContract(CONTRACT_NAME_WITHDRAW_POOL)\n     {\n         lifeTimeEpochs[0].sixDayStart = now;\n         lifeTimeEpochs[0].sixDayEnd = now.add(SIX_WORKING_DAYS);\n         lifeTimeEpochs[0].restDAYStart = now.add(SIX_WORKING_DAYS);\n         lifeTimeEpochs[0].restDAYEnd = now.add(SIX_WORKING_DAYS).add(REST_DAY);\n         numberOfEpochs = numberOfEpochs.add(1);\n\n         emit Epoch0Set(0, now);\n     }\n\n     /**\n      * @dev creates a new epoch, the ID of which is total number of epochs - 1\n      * This function should be called by GameManager when the last game\n      * in an epoch ends in order to set new epoch\n      */\n     function setNewEpoch()\n         public\n         onlyContract(CONTRACT_NAME_GAMESTORE)\n     {\n         _setNewEpoch();\n     }\n\n     /**\n      * @dev adds gaming delay to an epoch\n      * This function should be called by GameManager when the last game\n      * in an epoch runs longer than the intended sixDayEnd\n      * @param epoch_id the id of the epoch\n      * @param gamingDelay gaming delay time in seconds\n      */\n     function unlockAndAddDelay(uint epoch_id, uint gamingDelay)\n         public\n         onlyActiveEpoch(epoch_id)\n         onlyContract(CONTRACT_NAME_WITHDRAW_POOL)\n     {\n         lifeTimeEpochs[epoch_id].unlocked = true;\n         if(gamingDelay != 0)\n             _addGamingDelayToEpoch(epoch_id, gamingDelay);\n     }\n\n    function terminateEpochManually()\n        public\n        onlyContract(CONTRACT_NAME_WITHDRAW_POOL)\n    {\n        uint epoch_id = getActiveEpochID();\n        _terminateEpoch(epoch_id);\n    }\n\n    function setNewEpochManually()\n        public\n        onlyContract(CONTRACT_NAME_WITHDRAW_POOL)\n    {\n        uint epoch_id = numberOfEpochs;\n\n        Epoch memory epoch;\n\n        epoch.sixDayStart = now;\n        epoch.sixDayEnd = epoch.sixDayStart.add(SIX_WORKING_DAYS);\n        epoch.restDAYStart = epoch.sixDayEnd;\n        epoch.restDAYEnd = epoch.restDAYStart.add(REST_DAY);\n\n        lifeTimeEpochs[epoch_id] = epoch;\n        numberOfEpochs = numberOfEpochs.add(1);\n        emit NewEpochSet(epoch_id, lifeTimeEpochs[epoch_id].sixDayStart);\n    }\n\n     //===================== public functions ===================\n\n     /**\n      * @dev converts date and time in human-readable format to unix timestamp\n      */\n     function timestampFromDateTime\n     (\n         uint year,\n         uint month,\n         uint day,\n         uint hour,\n         uint minute,\n         uint second\n     ) public pure returns (uint timestamp)\n     {\n        return BokkyPooBahsDateTimeLibrary.timestampFromDateTime(year, month, day, hour, minute, second);\n    }\n\n    /**\n     * @dev converts unix timestamp to date and time in human-readable format\n     */\n     function timestampToDateTime(uint timestamp)\n         public\n         pure\n         returns (uint year, uint month, uint day, uint hour, uint minute, uint second)\n    {\n        (year, month, day, hour, minute, second) = BokkyPooBahsDateTimeLibrary.timestampToDateTime(timestamp);\n    }\n\n\n     //===================== getters ===================\n\n     /**\n      * @dev return the ID of the active epoch\n      * either the last epoch or the epoch before the last epoch can be\n      * the current epoch, since new epoch is created at the time of sixDayEnd\n      * of the previous epoch\n      */\n     function getActiveEpochID() public view returns (uint) {\n         if (numberOfEpochs < 2) {\n             return 0;\n         }\n         // if (now <= lifeTimeEpochs[numberOfEpochs.sub(1)].sixDayStart) {\n         //     return numberOfEpochs.sub(2);\n         // }\n         return numberOfEpochs.sub(1);\n     }\n\n     /**\n      * @dev return the last epoch ID\n      * the last epoch may or may not be the active epoch, since a new epoch is created\n      * 1 hour before its start time\n      */\n     function getLastEpochID() public view returns (uint) {\n         return numberOfEpochs.sub(1);\n     }\n\n     /**\n      * @dev return true if the epoch with epoch_id is the active epoch\n      * @param epoch_id the id of the epoch\n      */\n     function isEpochActive(uint epoch_id) public view returns (bool) {\n         return now >= lifeTimeEpochs[epoch_id].sixDayStart && now <= lifeTimeEpochs[epoch_id].restDAYEnd;\n     }\n\n     /**\n      * @dev return true if game can start in the current epoch\n      */\n     function canStartNewGame() public view returns (bool) {\n         uint256 epoch_id = getActiveEpochID();\n         return now >= lifeTimeEpochs[epoch_id].sixDayStart && now <= lifeTimeEpochs[epoch_id].sixDayEnd.sub(SIX_HOURS);\n     }\n\n     /**\n      * @dev return true if the epoch with epoch_id has started\n      * @param epoch_id the id of the epoch\n      */\n     function hasEpochStarted(uint epoch_id) public view returns(bool) {\n         return now >= lifeTimeEpochs[epoch_id].sixDayStart;\n     }\n\n     /**\n      * @dev return true if the epoch with epoch_id has ended\n      * @param epoch_id the id of the epoch\n      */\n     function hasEpochEnded(uint epoch_id) public view returns (bool) {\n         return now > lifeTimeEpochs[epoch_id].sixDayEnd;\n     }\n\n     /**\n      * @dev return the gaming delay time of an epoch.\n      * if no gaming delay during that epoch, returns 0\n      * @param epoch_id the id of the epoch\n      */\n\n     function gamingDelay(uint epoch_id) public view returns (uint) {\n         return lifeTimeEpochs[epoch_id].gamingDelay;\n     }\n\n     /**\n      * @dev return the start time (in unix time) of the epoch with epoch_id\n      * @param epoch_id the id of the epoch\n      */\n     function _epochStartTime(uint epoch_id) public view returns (uint) {\n         return lifeTimeEpochs[epoch_id].sixDayStart;\n     }\n\n     /**\n      * @dev return the start time (in human-readable format) of the epoch with epoch_id\n      * @param epoch_id the id of the epoch\n      */\n     function epochStartTime(uint epoch_id)\n         public view\n         returns (\n             uint year,\n             uint month,\n             uint day,\n             uint hour,\n             uint minute,\n             uint second\n         )\n     {\n         uint timestamp = _epochStartTime(epoch_id);\n         (year, month, day, hour, minute, second) = BokkyPooBahsDateTimeLibrary.timestampToDateTime(timestamp);\n     }\n\n     /**\n      * @dev return the end time (in unix time) of the epoch with epoch_id\n      * @param epoch_id the id of the epoch\n      */\n     function _epochEndTime(uint epoch_id) public view returns (uint) {\n         return lifeTimeEpochs[epoch_id].restDAYEnd;\n     }\n\n     /**\n      * @dev return the end time (in human-readable format) of the epoch with epoch_id\n      * @param epoch_id the id of the epoch\n      */\n     function epochEndTime(uint epoch_id)\n         public view\n         returns (\n             uint year,\n             uint month,\n             uint day,\n             uint hour,\n             uint minute,\n             uint second\n         )\n     {\n         uint timestamp = _epochEndTime(epoch_id);\n         (year, month, day, hour, minute, second) = BokkyPooBahsDateTimeLibrary.timestampToDateTime(timestamp);\n     }\n\n     /**\n      * @dev return the time elapsed(in seconds) since the start of the epoch with epoch_id\n      * @param epoch_id the id of the epoch\n      */\n     function elapsedSinceEpochStart(uint epoch_id) public view returns (uint) {\n         require (now >= lifeTimeEpochs[epoch_id].sixDayStart, \"Epoch has not started yet\");\n         return now.sub(lifeTimeEpochs[epoch_id].sixDayStart);\n     }\n\n     /**\n      * @dev return the time remaining (in seconds) until the end of the epoch with epoch_id\n      * @param epoch_id the id of the epoch\n      */\n     function timeUntilEpochEnd(uint epoch_id) public view returns (uint) {\n         require(now <= lifeTimeEpochs[epoch_id].restDAYEnd, \"Already ended\");\n         return lifeTimeEpochs[epoch_id].restDAYEnd.sub(now);\n     }\n\n     /**\n      * @dev return the start time (in unix time) of the WorkingDays stage in the current active epoch\n      */\n     function workingDayStartTime()\n         public\n         view\n         returns (uint start)\n     {\n         uint activeEpoch = getActiveEpochID();\n         start = lifeTimeEpochs[activeEpoch].sixDayStart;\n     }\n\n     /**\n      * @dev return the end time (in unix time) of the WorkingDays stage in the current active epoch\n      */\n     function workingDayEndTime()\n         public\n         view\n         returns (uint end)\n     {\n         uint activeEpoch = getActiveEpochID();\n         end = lifeTimeEpochs[activeEpoch].sixDayEnd;\n     }\n\n     function checkBurn()\n     external\n     view\n     returns(bool)\n     {\n        uint activeEpoch = getActiveEpochID();\n        if(lifeTimeEpochs[activeEpoch].unlocked && now > lifeTimeEpochs[activeEpoch].sixDayEnd)\n            return true;\n        return false;\n     }\n\n     /**\n      * @dev return the start time (in unix time) of the RestDay stage in the current active epoch\n      */\n     function restDayStartTime()\n         public\n         view\n         returns (uint end)\n     {\n         uint activeEpoch = getActiveEpochID();\n         end = lifeTimeEpochs[activeEpoch].restDAYStart;\n     }\n\n     /**\n      * @dev return the end time (in unix time) of the RestDay stage in the current active epoch\n      */\n     function restDayEndTime()\n         public\n         view\n         returns (uint end)\n     {\n         uint activeEpoch = getActiveEpochID();\n         end = lifeTimeEpochs[activeEpoch].restDAYEnd;\n     }\n\n     /**\n      * @dev return true if the epoch with epoch_id is on its working days\n      * @param epoch_id the id of the epoch\n      */\n     function isWorkingDay(uint epoch_id) public view returns (bool) {\n         return (block.timestamp >= lifeTimeEpochs[epoch_id].sixDayStart) && (block.timestamp <= lifeTimeEpochs[epoch_id].sixDayEnd);\n     }\n\n     /**\n      * @dev return true if the epoch with epoch_id is on its rest day\n      * @param epoch_id the id of the epoch\n      */\n     function isRestDay(uint epoch_id) public view returns (bool) {\n         return (block.timestamp >= lifeTimeEpochs[epoch_id].restDAYStart) && (block.timestamp <= lifeTimeEpochs[epoch_id].restDAYEnd);\n     }\n\n     /**\n      * @dev return the entire time length (in seconds) of the epoch with epoch_id\n      * @param epoch_id the id of the epoch\n      */\n     function epochLength(uint epoch_id) public view returns (uint) {\n         require(lifeTimeEpochs[epoch_id].sixDayStart <= lifeTimeEpochs[epoch_id].restDAYEnd, \"Invalid start and end dates\");\n         return lifeTimeEpochs[epoch_id].restDAYEnd.sub(lifeTimeEpochs[epoch_id].sixDayStart);\n     }\n\n     //===================== Internal Functions ===================\n\n     /**\n      * @dev creates a new epoch, the ID of which is total number of epochs - 1\n      */\n\n     function _setNewEpoch()\n         internal\n     {\n         uint prevEpochId = numberOfEpochs.sub(1);\n         uint newEpochId = numberOfEpochs;\n         Epoch memory epoch;\n\n         uint prevEpochEnd = lifeTimeEpochs[prevEpochId].restDAYEnd;\n\n         epoch.sixDayStart = prevEpochEnd;\n         epoch.sixDayEnd = prevEpochEnd.add(SIX_WORKING_DAYS);\n         epoch.restDAYStart = prevEpochEnd.add(SIX_WORKING_DAYS);\n         epoch.restDAYEnd = epoch.restDAYStart.add(REST_DAY);\n\n         lifeTimeEpochs[newEpochId] = epoch;\n         numberOfEpochs = numberOfEpochs.add(1);\n         emit NewEpochSet(newEpochId, lifeTimeEpochs[newEpochId].sixDayStart);\n     }\n\n     /**\n      * @dev adds gaming delay to an epoch\n      * @param _epoch_id the id of the epoch\n      * @param _gamingDelay gaming delay time in seconds\n      */\n     function _addGamingDelayToEpoch(uint _epoch_id, uint _gamingDelay)\n         internal\n     {\n         require(_gamingDelay > 0);\n         lifeTimeEpochs[_epoch_id].gamingDelay = lifeTimeEpochs[_epoch_id].gamingDelay.add(_gamingDelay);\n         lifeTimeEpochs[_epoch_id].sixDayEnd = lifeTimeEpochs[_epoch_id].sixDayEnd.add(_gamingDelay);\n         lifeTimeEpochs[_epoch_id].restDAYStart = lifeTimeEpochs[_epoch_id].restDAYStart.add(_gamingDelay);\n         lifeTimeEpochs[_epoch_id].restDAYEnd = lifeTimeEpochs[_epoch_id].restDAYEnd.add(_gamingDelay);\n         emit GamingDelayAdded(_epoch_id, _gamingDelay, lifeTimeEpochs[_epoch_id].restDAYEnd);\n     }\n\n     /**\n      * @dev terminates an epoch\n      * @param epoch_id the id of the epoch\n      */\n     function _terminateEpoch(uint epoch_id) internal {\n         require(now <= lifeTimeEpochs[epoch_id].restDAYEnd, \"Epoch has already ended\");\n         lifeTimeEpochs[epoch_id].restDAYEnd = now.sub(1);\n     }\n }",
  "sourcePath": "/Users/ziweizhang/Desktop/kittifight-balancer/contracts/contracts/modules/datetime/TimeFrame.sol",
  "compiler": {
    "name": "solc",
    "version": "0.5.17+commit.d19bba13.Emscripten.clang"
  },
  "schemaVersion": "3.0.23",
  "updatedAt": "2020-05-30T18:43:01.205Z",
  "networkType": "ethereum",
  "devdoc": {
    "methods": {
      "_epochEndTime(uint256)": {
        "details": "return the end time (in unix time) of the epoch with epoch_id",
        "params": {
          "epoch_id": "the id of the epoch"
        }
      },
      "_epochStartTime(uint256)": {
        "details": "return the start time (in unix time) of the epoch with epoch_id",
        "params": {
          "epoch_id": "the id of the epoch"
        }
      },
      "canStartNewGame()": {
        "details": "return true if game can start in the current epoch"
      },
      "elapsedSinceEpochStart(uint256)": {
        "details": "return the time elapsed(in seconds) since the start of the epoch with epoch_id",
        "params": {
          "epoch_id": "the id of the epoch"
        }
      },
      "epochEndTime(uint256)": {
        "details": "return the end time (in human-readable format) of the epoch with epoch_id",
        "params": {
          "epoch_id": "the id of the epoch"
        }
      },
      "epochLength(uint256)": {
        "details": "return the entire time length (in seconds) of the epoch with epoch_id",
        "params": {
          "epoch_id": "the id of the epoch"
        }
      },
      "epochStartTime(uint256)": {
        "details": "return the start time (in human-readable format) of the epoch with epoch_id",
        "params": {
          "epoch_id": "the id of the epoch"
        }
      },
      "gamingDelay(uint256)": {
        "details": "return the gaming delay time of an epoch. if no gaming delay during that epoch, returns 0",
        "params": {
          "epoch_id": "the id of the epoch"
        }
      },
      "getActiveEpochID()": {
        "details": "return the ID of the active epoch either the last epoch or the epoch before the last epoch can be the current epoch, since new epoch is created at the time of sixDayEnd of the previous epoch"
      },
      "getLastEpochID()": {
        "details": "return the last epoch ID the last epoch may or may not be the active epoch, since a new epoch is created 1 hour before its start time"
      },
      "hasEpochEnded(uint256)": {
        "details": "return true if the epoch with epoch_id has ended",
        "params": {
          "epoch_id": "the id of the epoch"
        }
      },
      "hasEpochStarted(uint256)": {
        "details": "return true if the epoch with epoch_id has started",
        "params": {
          "epoch_id": "the id of the epoch"
        }
      },
      "isEpochActive(uint256)": {
        "details": "return true if the epoch with epoch_id is the active epoch",
        "params": {
          "epoch_id": "the id of the epoch"
        }
      },
      "isRestDay(uint256)": {
        "details": "return true if the epoch with epoch_id is on its rest day",
        "params": {
          "epoch_id": "the id of the epoch"
        }
      },
      "isWorkingDay(uint256)": {
        "details": "return true if the epoch with epoch_id is on its working days",
        "params": {
          "epoch_id": "the id of the epoch"
        }
      },
      "restDayEndTime()": {
        "details": "return the end time (in unix time) of the RestDay stage in the current active epoch"
      },
      "restDayStartTime()": {
        "details": "return the start time (in unix time) of the RestDay stage in the current active epoch"
      },
      "setEpoch_0()": {
        "details": "sets epoch 0"
      },
      "setNewEpoch()": {
        "details": "creates a new epoch, the ID of which is total number of epochs - 1 This function should be called by GameManager when the last game in an epoch ends in order to set new epoch"
      },
      "timeUntilEpochEnd(uint256)": {
        "details": "return the time remaining (in seconds) until the end of the epoch with epoch_id",
        "params": {
          "epoch_id": "the id of the epoch"
        }
      },
      "timestampFromDateTime(uint256,uint256,uint256,uint256,uint256,uint256)": {
        "details": "converts date and time in human-readable format to unix timestamp"
      },
      "timestampToDateTime(uint256)": {
        "details": "converts unix timestamp to date and time in human-readable format"
      },
      "unlockAndAddDelay(uint256,uint256)": {
        "details": "adds gaming delay to an epoch This function should be called by GameManager when the last game in an epoch runs longer than the intended sixDayEnd",
        "params": {
          "epoch_id": "the id of the epoch",
          "gamingDelay": "gaming delay time in seconds"
        }
      },
      "workingDayEndTime()": {
        "details": "return the end time (in unix time) of the WorkingDays stage in the current active epoch"
      },
      "workingDayStartTime()": {
        "details": "return the start time (in unix time) of the WorkingDays stage in the current active epoch"
      }
    }
  },
  "userdoc": {
    "methods": {
      "setProxy(address)": {
        "notice": "Set/update address of Proxy contract"
      }
    }
  }
}