{
  "contractName": "TokenVesting",
  "abi": [
    {
      "inputs": [
        {
          "internalType": "address",
          "name": "_beneficiary",
          "type": "address"
        },
        {
          "internalType": "uint256",
          "name": "_start",
          "type": "uint256"
        },
        {
          "internalType": "uint256",
          "name": "_cliff",
          "type": "uint256"
        },
        {
          "internalType": "uint256",
          "name": "_duration",
          "type": "uint256"
        },
        {
          "internalType": "bool",
          "name": "_revocable",
          "type": "bool"
        }
      ],
      "payable": false,
      "stateMutability": "nonpayable",
      "type": "constructor"
    },
    {
      "anonymous": false,
      "inputs": [
        {
          "indexed": true,
          "internalType": "address",
          "name": "previousOwner",
          "type": "address"
        },
        {
          "indexed": true,
          "internalType": "address",
          "name": "newOwner",
          "type": "address"
        }
      ],
      "name": "OwnershipTransferred",
      "type": "event"
    },
    {
      "anonymous": false,
      "inputs": [
        {
          "indexed": false,
          "internalType": "uint256",
          "name": "amount",
          "type": "uint256"
        }
      ],
      "name": "Released",
      "type": "event"
    },
    {
      "anonymous": false,
      "inputs": [],
      "name": "Revoked",
      "type": "event"
    },
    {
      "constant": true,
      "inputs": [],
      "name": "beneficiary",
      "outputs": [
        {
          "internalType": "address",
          "name": "",
          "type": "address"
        }
      ],
      "payable": false,
      "stateMutability": "view",
      "type": "function"
    },
    {
      "constant": true,
      "inputs": [],
      "name": "cliff",
      "outputs": [
        {
          "internalType": "uint256",
          "name": "",
          "type": "uint256"
        }
      ],
      "payable": false,
      "stateMutability": "view",
      "type": "function"
    },
    {
      "constant": true,
      "inputs": [],
      "name": "duration",
      "outputs": [
        {
          "internalType": "uint256",
          "name": "",
          "type": "uint256"
        }
      ],
      "payable": false,
      "stateMutability": "view",
      "type": "function"
    },
    {
      "constant": true,
      "inputs": [],
      "name": "owner",
      "outputs": [
        {
          "internalType": "address",
          "name": "",
          "type": "address"
        }
      ],
      "payable": false,
      "stateMutability": "view",
      "type": "function"
    },
    {
      "constant": true,
      "inputs": [
        {
          "internalType": "address",
          "name": "",
          "type": "address"
        }
      ],
      "name": "released",
      "outputs": [
        {
          "internalType": "uint256",
          "name": "",
          "type": "uint256"
        }
      ],
      "payable": false,
      "stateMutability": "view",
      "type": "function"
    },
    {
      "constant": true,
      "inputs": [],
      "name": "revocable",
      "outputs": [
        {
          "internalType": "bool",
          "name": "",
          "type": "bool"
        }
      ],
      "payable": false,
      "stateMutability": "view",
      "type": "function"
    },
    {
      "constant": true,
      "inputs": [
        {
          "internalType": "address",
          "name": "",
          "type": "address"
        }
      ],
      "name": "revoked",
      "outputs": [
        {
          "internalType": "bool",
          "name": "",
          "type": "bool"
        }
      ],
      "payable": false,
      "stateMutability": "view",
      "type": "function"
    },
    {
      "constant": true,
      "inputs": [],
      "name": "start",
      "outputs": [
        {
          "internalType": "uint256",
          "name": "",
          "type": "uint256"
        }
      ],
      "payable": false,
      "stateMutability": "view",
      "type": "function"
    },
    {
      "constant": false,
      "inputs": [
        {
          "internalType": "address",
          "name": "newOwner",
          "type": "address"
        }
      ],
      "name": "transferOwnership",
      "outputs": [],
      "payable": false,
      "stateMutability": "nonpayable",
      "type": "function"
    },
    {
      "constant": false,
      "inputs": [
        {
          "internalType": "contract ERC20Basic",
          "name": "token",
          "type": "address"
        }
      ],
      "name": "release",
      "outputs": [],
      "payable": false,
      "stateMutability": "nonpayable",
      "type": "function"
    },
    {
      "constant": false,
      "inputs": [
        {
          "internalType": "contract ERC20Basic",
          "name": "token",
          "type": "address"
        }
      ],
      "name": "revoke",
      "outputs": [],
      "payable": false,
      "stateMutability": "nonpayable",
      "type": "function"
    },
    {
      "constant": true,
      "inputs": [
        {
          "internalType": "contract ERC20Basic",
          "name": "token",
          "type": "address"
        }
      ],
      "name": "releasableAmount",
      "outputs": [
        {
          "internalType": "uint256",
          "name": "",
          "type": "uint256"
        }
      ],
      "payable": false,
      "stateMutability": "view",
      "type": "function"
    },
    {
      "constant": true,
      "inputs": [
        {
          "internalType": "contract ERC20Basic",
          "name": "token",
          "type": "address"
        }
      ],
      "name": "vestedAmount",
      "outputs": [
        {
          "internalType": "uint256",
          "name": "",
          "type": "uint256"
        }
      ],
      "payable": false,
      "stateMutability": "view",
      "type": "function"
    }
  ],
  "bytecode": "0x608060405234801561001057600080fd5b50604051611015380380611015833981810160405260a081101561003357600080fd5b810190808051906020019092919080519060200190929190805190602001909291908051906020019092919080519060200190929190505050336000806101000a81548173ffffffffffffffffffffffffffffffffffffffff021916908373ffffffffffffffffffffffffffffffffffffffff160217905550600073ffffffffffffffffffffffffffffffffffffffff168573ffffffffffffffffffffffffffffffffffffffff16141561014f576040517f08c379a000000000000000000000000000000000000000000000000000000000815260040180806020018281038252601f8152602001807f42656e656669636961727920697320746865207a65726f20616464726573730081525060200191505060405180910390fd5b818311156101c5576040517f08c379a000000000000000000000000000000000000000000000000000000000815260040180806020018281038252601d8152602001807f436c696666206973206c6f6e676572207468616e206475726174696f6e00000081525060200191505060405180910390fd5b84600160006101000a81548173ffffffffffffffffffffffffffffffffffffffff021916908373ffffffffffffffffffffffffffffffffffffffff16021790555080600560006101000a81548160ff0219169083151502179055508160048190555061023e838561025560201b610c271790919060201c565b600281905550836003819055505050505050610271565b60008082840190508381101561026757fe5b8091505092915050565b610d95806102806000396000f3fe608060405234801561001057600080fd5b50600436106100cf5760003560e01c806374a8f1031161008c5780639852595c116100665780639852595c146102fe578063be9a655514610356578063f2fde38b14610374578063fa01dc06146103b8576100cf565b806374a8f1031461024e578063872a7810146102925780638da5cb5b146102b4576100cf565b80630fb5a6b4146100d457806313d033c0146100f25780631726cbc8146101105780631916558714610168578063384711cc146101ac57806338af3eed14610204575b600080fd5b6100dc610414565b6040518082815260200191505060405180910390f35b6100fa61041a565b6040518082815260200191505060405180910390f35b6101526004803603602081101561012657600080fd5b81019080803573ffffffffffffffffffffffffffffffffffffffff169060200190929190505050610420565b6040518082815260200191505060405180910390f35b6101aa6004803603602081101561017e57600080fd5b81019080803573ffffffffffffffffffffffffffffffffffffffff169060200190929190505050610483565b005b6101ee600480360360208110156101c257600080fd5b81019080803573ffffffffffffffffffffffffffffffffffffffff1690602001909291905050506105ba565b6040518082815260200191505060405180910390f35b61020c6107a4565b604051808273ffffffffffffffffffffffffffffffffffffffff1673ffffffffffffffffffffffffffffffffffffffff16815260200191505060405180910390f35b6102906004803603602081101561026457600080fd5b81019080803573ffffffffffffffffffffffffffffffffffffffff1690602001909291905050506107ca565b005b61029a610a49565b604051808215151515815260200191505060405180910390f35b6102bc610a5c565b604051808273ffffffffffffffffffffffffffffffffffffffff1673ffffffffffffffffffffffffffffffffffffffff16815260200191505060405180910390f35b6103406004803603602081101561031457600080fd5b81019080803573ffffffffffffffffffffffffffffffffffffffff169060200190929190505050610a81565b6040518082815260200191505060405180910390f35b61035e610a99565b6040518082815260200191505060405180910390f35b6103b66004803603602081101561038a57600080fd5b81019080803573ffffffffffffffffffffffffffffffffffffffff169060200190929190505050610a9f565b005b6103fa600480360360208110156103ce57600080fd5b81019080803573ffffffffffffffffffffffffffffffffffffffff169060200190929190505050610bf0565b604051808215151515815260200191505060405180910390f35b60045481565b60025481565b600061047c600660008473ffffffffffffffffffffffffffffffffffffffff1673ffffffffffffffffffffffffffffffffffffffff1681526020019081526020016000205461046e846105ba565b610c1090919063ffffffff16565b9050919050565b600061048e82610420565b90506000811161049d57600080fd5b6104ef81600660008573ffffffffffffffffffffffffffffffffffffffff1673ffffffffffffffffffffffffffffffffffffffff16815260200190815260200160002054610c2790919063ffffffff16565b600660008473ffffffffffffffffffffffffffffffffffffffff1673ffffffffffffffffffffffffffffffffffffffff1681526020019081526020016000208190555061057f600160009054906101000a900473ffffffffffffffffffffffffffffffffffffffff16828473ffffffffffffffffffffffffffffffffffffffff16610c439092919063ffffffff16565b7ffb81f9b30d73d830c3544b34d827c08142579ee75710b490bab0b3995468c565816040518082815260200191505060405180910390a15050565b6000808273ffffffffffffffffffffffffffffffffffffffff166370a08231306040518263ffffffff1660e01b8152600401808273ffffffffffffffffffffffffffffffffffffffff1673ffffffffffffffffffffffffffffffffffffffff16815260200191505060206040518083038186803b15801561063a57600080fd5b505afa15801561064e573d6000803e3d6000fd5b505050506040513d602081101561066457600080fd5b8101908080519060200190929190505050905060006106cb600660008673ffffffffffffffffffffffffffffffffffffffff1673ffffffffffffffffffffffffffffffffffffffff1681526020019081526020016000205483610c2790919063ffffffff16565b90506002544210156106e25760009250505061079f565b6106f9600454600354610c2790919063ffffffff16565b421015806107505750600760008573ffffffffffffffffffffffffffffffffffffffff1673ffffffffffffffffffffffffffffffffffffffff16815260200190815260200160002060009054906101000a900460ff165b1561075f57809250505061079f565b61079a60045461078c61077d60035442610c1090919063ffffffff16565b84610d1090919063ffffffff16565b610d4790919063ffffffff16565b925050505b919050565b600160009054906101000a900473ffffffffffffffffffffffffffffffffffffffff1681565b6000809054906101000a900473ffffffffffffffffffffffffffffffffffffffff1673ffffffffffffffffffffffffffffffffffffffff163373ffffffffffffffffffffffffffffffffffffffff161461082357600080fd5b600560009054906101000a900460ff1661083c57600080fd5b600760008273ffffffffffffffffffffffffffffffffffffffff1673ffffffffffffffffffffffffffffffffffffffff16815260200190815260200160002060009054906101000a900460ff161561089357600080fd5b60008173ffffffffffffffffffffffffffffffffffffffff166370a08231306040518263ffffffff1660e01b8152600401808273ffffffffffffffffffffffffffffffffffffffff1673ffffffffffffffffffffffffffffffffffffffff16815260200191505060206040518083038186803b15801561091257600080fd5b505afa158015610926573d6000803e3d6000fd5b505050506040513d602081101561093c57600080fd5b81019080805190602001909291905050509050600061095a83610420565b905060006109718284610c1090919063ffffffff16565b90506001600760008673ffffffffffffffffffffffffffffffffffffffff1673ffffffffffffffffffffffffffffffffffffffff16815260200190815260200160002060006101000a81548160ff021916908315150217905550610a176000809054906101000a900473ffffffffffffffffffffffffffffffffffffffff16828673ffffffffffffffffffffffffffffffffffffffff16610c439092919063ffffffff16565b7f44825a4b2df8acb19ce4e1afba9aa850c8b65cdb7942e2078f27d0b0960efee660405160405180910390a150505050565b600560009054906101000a900460ff1681565b6000809054906101000a900473ffffffffffffffffffffffffffffffffffffffff1681565b60066020528060005260406000206000915090505481565b60035481565b6000809054906101000a900473ffffffffffffffffffffffffffffffffffffffff1673ffffffffffffffffffffffffffffffffffffffff163373ffffffffffffffffffffffffffffffffffffffff1614610af857600080fd5b600073ffffffffffffffffffffffffffffffffffffffff168173ffffffffffffffffffffffffffffffffffffffff161415610b3257600080fd5b8073ffffffffffffffffffffffffffffffffffffffff166000809054906101000a900473ffffffffffffffffffffffffffffffffffffffff1673ffffffffffffffffffffffffffffffffffffffff167f8be0079c531659141344cd1fd0a4f28419497f9722a3daafe3b4186f6b6457e060405160405180910390a3806000806101000a81548173ffffffffffffffffffffffffffffffffffffffff021916908373ffffffffffffffffffffffffffffffffffffffff16021790555050565b60076020528060005260406000206000915054906101000a900460ff1681565b600082821115610c1c57fe5b818303905092915050565b600080828401905083811015610c3957fe5b8091505092915050565b8273ffffffffffffffffffffffffffffffffffffffff1663a9059cbb83836040518363ffffffff1660e01b8152600401808373ffffffffffffffffffffffffffffffffffffffff1673ffffffffffffffffffffffffffffffffffffffff16815260200182815260200192505050602060405180830381600087803b158015610cca57600080fd5b505af1158015610cde573d6000803e3d6000fd5b505050506040513d6020811015610cf457600080fd5b8101908080519060200190929190505050610d0b57fe5b505050565b600080831415610d235760009050610d41565b6000828402905082848281610d3457fe5b0414610d3c57fe5b809150505b92915050565b600080828481610d5357fe5b049050809150509291505056fea265627a7a723158208ec7d91da6592d40aa12d24e5368225a46c26ca6b8371b80e56a71c6f7b147f964736f6c63430005100032",
  "source": "pragma solidity ^0.5.5;\r\n\r\nimport \"../../libs/SafeMath.sol\";\r\nimport \"../../interfaces/ERC20Basic.sol\";\r\nimport \"./SafeERC20.sol\";\r\nimport \"./Ownable.sol\";\r\n\r\n\r\n/**\r\n * @title TokenVesting\r\n * @dev A token holder contract that can release its token balance gradually like a\r\n * typical vesting scheme, with a cliff and vesting period. Optionally revocable by the\r\n * owner.\r\n * Source: OpenZeppelin library\r\n */\r\ncontract TokenVesting is Ownable {\r\n    using SafeMath for uint256;\r\n    using SafeERC20 for ERC20Basic;\r\n\r\n    event Released(uint256 amount);\r\n    event Revoked();\r\n\r\n    // beneficiary of tokens after they are released\r\n    address public beneficiary;\r\n\r\n    uint256 public cliff;\r\n    uint256 public start;\r\n    uint256 public duration;\r\n\r\n    bool public revocable;\r\n\r\n    mapping (address => uint256) public released;\r\n    mapping (address => bool) public revoked;\r\n\r\n    /**\r\n     * @dev Creates a vesting contract that vests its balance of any ERC20 token to the\r\n     * _beneficiary, gradually in a linear fashion until _start + _duration. By then all\r\n     * of the balance will have vested.\r\n     * @param _beneficiary address of the beneficiary to whom vested tokens are transferred\r\n     * @param _cliff duration in seconds of the cliff in which tokens will begin to vest\r\n     * @param _duration duration in seconds of the period in which the tokens will vest\r\n     * @param _revocable whether the vesting is revocable or not\r\n     */\r\n    constructor(address _beneficiary, uint256 _start, uint256 _cliff, uint256 _duration, bool _revocable) public {\r\n        require(_beneficiary != address(0), \"Beneficiary is the zero address\");\r\n        require(_cliff <= _duration, \"Cliff is longer than duration\");\r\n\r\n        beneficiary = _beneficiary;\r\n        revocable = _revocable;\r\n        duration = _duration;\r\n        cliff = _start.add(_cliff);\r\n        start = _start;\r\n    }\r\n\r\n    /**\r\n     * @notice Transfers vested tokens to beneficiary.\r\n     * @param token ERC20 token which is being vested\r\n     */\r\n    function release(ERC20Basic token) public {\r\n        uint256 unreleased = releasableAmount(token);\r\n\r\n        require(unreleased > 0);\r\n\r\n        released[address(token)] = released[address(token)].add(unreleased);\r\n\r\n        token.safeTransfer(beneficiary, unreleased);\r\n\r\n        emit Released(unreleased);\r\n    }\r\n\r\n    /**\r\n     * @notice Allows the owner to revoke the vesting. Tokens already vested\r\n     * remain in the contract, the rest are returned to the owner.\r\n     * @param token ERC20 token which is being vested\r\n     */\r\n    function revoke(ERC20Basic token) public onlyOwner {\r\n        require(revocable);\r\n        require(!revoked[address(token)]);\r\n\r\n        uint256 balance = token.balanceOf(address(this));\r\n\r\n        uint256 unreleased = releasableAmount(token);\r\n        uint256 refund = balance.sub(unreleased);\r\n\r\n        revoked[address(token)] = true;\r\n\r\n        token.safeTransfer(owner, refund);\r\n\r\n        emit Revoked();\r\n    }\r\n\r\n    /**\r\n     * @dev Calculates the amount that has already vested but hasn't been released yet.\r\n     * @param token ERC20 token which is being vested\r\n     */\r\n    function releasableAmount(ERC20Basic token) public view returns (uint256) {\r\n        return vestedAmount(token).sub(released[address(token)]);\r\n    }\r\n\r\n    /**\r\n     * @dev Calculates the amount that has already vested.\r\n     * @param token ERC20 token which is being vested\r\n     */\r\n    function vestedAmount(ERC20Basic token) public view returns (uint256) {\r\n        uint256 currentBalance = token.balanceOf(address(this));\r\n        uint256 totalBalance = currentBalance.add(released[address(token)]);\r\n\r\n        if (now < cliff) {\r\n            return 0;\r\n        } else if (now >= start.add(duration) || revoked[address(token)]) {\r\n            return totalBalance;\r\n        } else {\r\n            return totalBalance.mul(now.sub(start)).div(duration);\r\n        }\r\n    }\r\n}\r\n",
  "sourcePath": "C:\\Users\\Alex\\Desktop\\MyProjects\\alpha\\contracts\\vesting\\zeppelin\\TokenVesting.sol",
  "compiler": {
    "name": "solc",
    "version": "0.5.16+commit.9c3226ce.Emscripten.clang"
  },
  "schemaVersion": "3.0.11",
  "updatedAt": "2020-01-04T13:17:01.643Z",
  "devdoc": {
    "details": "A token holder contract that can release its token balance gradually like a typical vesting scheme, with a cliff and vesting period. Optionally revocable by the owner. Source: OpenZeppelin library",
    "methods": {
      "constructor": {
        "details": "Creates a vesting contract that vests its balance of any ERC20 token to the _beneficiary, gradually in a linear fashion until _start + _duration. By then all of the balance will have vested.",
        "params": {
          "_beneficiary": "address of the beneficiary to whom vested tokens are transferred",
          "_cliff": "duration in seconds of the cliff in which tokens will begin to vest",
          "_duration": "duration in seconds of the period in which the tokens will vest",
          "_revocable": "whether the vesting is revocable or not"
        }
      },
      "releasableAmount(address)": {
        "details": "Calculates the amount that has already vested but hasn't been released yet.",
        "params": {
          "token": "ERC20 token which is being vested"
        }
      },
      "release(address)": {
        "params": {
          "token": "ERC20 token which is being vested"
        }
      },
      "revoke(address)": {
        "params": {
          "token": "ERC20 token which is being vested"
        }
      },
      "transferOwnership(address)": {
        "details": "Allows the current owner to transfer control of the contract to a newOwner.",
        "params": {
          "newOwner": "The address to transfer ownership to."
        }
      },
      "vestedAmount(address)": {
        "details": "Calculates the amount that has already vested.",
        "params": {
          "token": "ERC20 token which is being vested"
        }
      }
    },
    "title": "TokenVesting"
  },
  "userdoc": {
    "methods": {
      "release(address)": {
        "notice": "Transfers vested tokens to beneficiary."
      },
      "revoke(address)": {
        "notice": "Allows the owner to revoke the vesting. Tokens already vested remain in the contract, the rest are returned to the owner."
      }
    }
  }
}