{
  "contractName": "UniswapV2Router01",
  "abi": [
    {
      "payable": true,
      "stateMutability": "payable",
      "type": "fallback"
    },
    {
      "constant": true,
      "inputs": [],
      "name": "WETH",
      "outputs": [
        {
          "internalType": "address",
          "name": "",
          "type": "address"
        }
      ],
      "payable": false,
      "stateMutability": "view",
      "type": "function"
    },
    {
      "constant": true,
      "inputs": [],
      "name": "factory",
      "outputs": [
        {
          "internalType": "address",
          "name": "",
          "type": "address"
        }
      ],
      "payable": false,
      "stateMutability": "view",
      "type": "function"
    },
    {
      "constant": true,
      "inputs": [],
      "name": "ktyWethPair",
      "outputs": [
        {
          "internalType": "address",
          "name": "",
          "type": "address"
        }
      ],
      "payable": false,
      "stateMutability": "view",
      "type": "function"
    },
    {
      "constant": false,
      "inputs": [
        {
          "internalType": "address",
          "name": "_factory",
          "type": "address"
        },
        {
          "internalType": "address",
          "name": "_WETH",
          "type": "address"
        }
      ],
      "name": "initialize",
      "outputs": [],
      "payable": false,
      "stateMutability": "nonpayable",
      "type": "function"
    },
    {
      "constant": false,
      "inputs": [
        {
          "internalType": "address",
          "name": "_ktyWethPair",
          "type": "address"
        }
      ],
      "name": "setKtyWethPairAddr",
      "outputs": [],
      "payable": false,
      "stateMutability": "nonpayable",
      "type": "function"
    },
    {
      "constant": false,
      "inputs": [
        {
          "internalType": "address",
          "name": "tokenA",
          "type": "address"
        },
        {
          "internalType": "address",
          "name": "tokenB",
          "type": "address"
        },
        {
          "internalType": "uint256",
          "name": "amountADesired",
          "type": "uint256"
        },
        {
          "internalType": "uint256",
          "name": "amountBDesired",
          "type": "uint256"
        },
        {
          "internalType": "uint256",
          "name": "amountAMin",
          "type": "uint256"
        },
        {
          "internalType": "uint256",
          "name": "amountBMin",
          "type": "uint256"
        },
        {
          "internalType": "address",
          "name": "to",
          "type": "address"
        },
        {
          "internalType": "uint256",
          "name": "deadline",
          "type": "uint256"
        }
      ],
      "name": "addLiquidity",
      "outputs": [
        {
          "internalType": "uint256",
          "name": "amountA",
          "type": "uint256"
        },
        {
          "internalType": "uint256",
          "name": "amountB",
          "type": "uint256"
        },
        {
          "internalType": "uint256",
          "name": "liquidity",
          "type": "uint256"
        }
      ],
      "payable": false,
      "stateMutability": "nonpayable",
      "type": "function"
    },
    {
      "constant": false,
      "inputs": [
        {
          "internalType": "address",
          "name": "token",
          "type": "address"
        },
        {
          "internalType": "uint256",
          "name": "amountTokenDesired",
          "type": "uint256"
        },
        {
          "internalType": "uint256",
          "name": "amountTokenMin",
          "type": "uint256"
        },
        {
          "internalType": "uint256",
          "name": "amountETHMin",
          "type": "uint256"
        },
        {
          "internalType": "address",
          "name": "to",
          "type": "address"
        },
        {
          "internalType": "uint256",
          "name": "deadline",
          "type": "uint256"
        }
      ],
      "name": "addLiquidityETH",
      "outputs": [
        {
          "internalType": "uint256",
          "name": "amountToken",
          "type": "uint256"
        },
        {
          "internalType": "uint256",
          "name": "amountETH",
          "type": "uint256"
        },
        {
          "internalType": "uint256",
          "name": "liquidity",
          "type": "uint256"
        }
      ],
      "payable": true,
      "stateMutability": "payable",
      "type": "function"
    },
    {
      "constant": false,
      "inputs": [
        {
          "internalType": "address",
          "name": "tokenA",
          "type": "address"
        },
        {
          "internalType": "address",
          "name": "tokenB",
          "type": "address"
        },
        {
          "internalType": "uint256",
          "name": "liquidity",
          "type": "uint256"
        },
        {
          "internalType": "uint256",
          "name": "amountAMin",
          "type": "uint256"
        },
        {
          "internalType": "uint256",
          "name": "amountBMin",
          "type": "uint256"
        },
        {
          "internalType": "address",
          "name": "to",
          "type": "address"
        },
        {
          "internalType": "uint256",
          "name": "deadline",
          "type": "uint256"
        }
      ],
      "name": "removeLiquidity",
      "outputs": [
        {
          "internalType": "uint256",
          "name": "amountA",
          "type": "uint256"
        },
        {
          "internalType": "uint256",
          "name": "amountB",
          "type": "uint256"
        }
      ],
      "payable": false,
      "stateMutability": "nonpayable",
      "type": "function"
    },
    {
      "constant": false,
      "inputs": [
        {
          "internalType": "address",
          "name": "token",
          "type": "address"
        },
        {
          "internalType": "uint256",
          "name": "liquidity",
          "type": "uint256"
        },
        {
          "internalType": "uint256",
          "name": "amountTokenMin",
          "type": "uint256"
        },
        {
          "internalType": "uint256",
          "name": "amountETHMin",
          "type": "uint256"
        },
        {
          "internalType": "address",
          "name": "to",
          "type": "address"
        },
        {
          "internalType": "uint256",
          "name": "deadline",
          "type": "uint256"
        }
      ],
      "name": "removeLiquidityETH",
      "outputs": [
        {
          "internalType": "uint256",
          "name": "amountToken",
          "type": "uint256"
        },
        {
          "internalType": "uint256",
          "name": "amountETH",
          "type": "uint256"
        }
      ],
      "payable": false,
      "stateMutability": "nonpayable",
      "type": "function"
    },
    {
      "constant": false,
      "inputs": [
        {
          "internalType": "address",
          "name": "tokenA",
          "type": "address"
        },
        {
          "internalType": "address",
          "name": "tokenB",
          "type": "address"
        },
        {
          "internalType": "uint256",
          "name": "liquidity",
          "type": "uint256"
        },
        {
          "internalType": "uint256",
          "name": "amountAMin",
          "type": "uint256"
        },
        {
          "internalType": "uint256",
          "name": "amountBMin",
          "type": "uint256"
        },
        {
          "internalType": "address",
          "name": "to",
          "type": "address"
        },
        {
          "internalType": "uint256",
          "name": "deadline",
          "type": "uint256"
        },
        {
          "internalType": "bool",
          "name": "approveMax",
          "type": "bool"
        },
        {
          "internalType": "uint8",
          "name": "v",
          "type": "uint8"
        },
        {
          "internalType": "bytes32",
          "name": "r",
          "type": "bytes32"
        },
        {
          "internalType": "bytes32",
          "name": "s",
          "type": "bytes32"
        }
      ],
      "name": "removeLiquidityWithPermit",
      "outputs": [
        {
          "internalType": "uint256",
          "name": "amountA",
          "type": "uint256"
        },
        {
          "internalType": "uint256",
          "name": "amountB",
          "type": "uint256"
        }
      ],
      "payable": false,
      "stateMutability": "nonpayable",
      "type": "function"
    },
    {
      "constant": false,
      "inputs": [
        {
          "internalType": "address",
          "name": "token",
          "type": "address"
        },
        {
          "internalType": "uint256",
          "name": "liquidity",
          "type": "uint256"
        },
        {
          "internalType": "uint256",
          "name": "amountTokenMin",
          "type": "uint256"
        },
        {
          "internalType": "uint256",
          "name": "amountETHMin",
          "type": "uint256"
        },
        {
          "internalType": "address",
          "name": "to",
          "type": "address"
        },
        {
          "internalType": "uint256",
          "name": "deadline",
          "type": "uint256"
        },
        {
          "internalType": "bool",
          "name": "approveMax",
          "type": "bool"
        },
        {
          "internalType": "uint8",
          "name": "v",
          "type": "uint8"
        },
        {
          "internalType": "bytes32",
          "name": "r",
          "type": "bytes32"
        },
        {
          "internalType": "bytes32",
          "name": "s",
          "type": "bytes32"
        }
      ],
      "name": "removeLiquidityETHWithPermit",
      "outputs": [
        {
          "internalType": "uint256",
          "name": "amountToken",
          "type": "uint256"
        },
        {
          "internalType": "uint256",
          "name": "amountETH",
          "type": "uint256"
        }
      ],
      "payable": false,
      "stateMutability": "nonpayable",
      "type": "function"
    },
    {
      "constant": false,
      "inputs": [
        {
          "internalType": "uint256",
          "name": "amountIn",
          "type": "uint256"
        },
        {
          "internalType": "uint256",
          "name": "amountOutMin",
          "type": "uint256"
        },
        {
          "internalType": "address[]",
          "name": "path",
          "type": "address[]"
        },
        {
          "internalType": "address",
          "name": "to",
          "type": "address"
        },
        {
          "internalType": "uint256",
          "name": "deadline",
          "type": "uint256"
        }
      ],
      "name": "swapExactTokensForTokens",
      "outputs": [
        {
          "internalType": "uint256[]",
          "name": "amounts",
          "type": "uint256[]"
        }
      ],
      "payable": false,
      "stateMutability": "nonpayable",
      "type": "function"
    },
    {
      "constant": false,
      "inputs": [
        {
          "internalType": "uint256",
          "name": "amountOut",
          "type": "uint256"
        },
        {
          "internalType": "uint256",
          "name": "amountInMax",
          "type": "uint256"
        },
        {
          "internalType": "address[]",
          "name": "path",
          "type": "address[]"
        },
        {
          "internalType": "address",
          "name": "to",
          "type": "address"
        },
        {
          "internalType": "uint256",
          "name": "deadline",
          "type": "uint256"
        }
      ],
      "name": "swapTokensForExactTokens",
      "outputs": [
        {
          "internalType": "uint256[]",
          "name": "amounts",
          "type": "uint256[]"
        }
      ],
      "payable": false,
      "stateMutability": "nonpayable",
      "type": "function"
    },
    {
      "constant": false,
      "inputs": [
        {
          "internalType": "uint256",
          "name": "amountOutMin",
          "type": "uint256"
        },
        {
          "internalType": "address[]",
          "name": "path",
          "type": "address[]"
        },
        {
          "internalType": "address",
          "name": "to",
          "type": "address"
        },
        {
          "internalType": "uint256",
          "name": "deadline",
          "type": "uint256"
        }
      ],
      "name": "swapExactETHForTokens",
      "outputs": [
        {
          "internalType": "uint256[]",
          "name": "amounts",
          "type": "uint256[]"
        }
      ],
      "payable": true,
      "stateMutability": "payable",
      "type": "function"
    },
    {
      "constant": false,
      "inputs": [
        {
          "internalType": "uint256",
          "name": "amountOut",
          "type": "uint256"
        },
        {
          "internalType": "uint256",
          "name": "amountInMax",
          "type": "uint256"
        },
        {
          "internalType": "address[]",
          "name": "path",
          "type": "address[]"
        },
        {
          "internalType": "address",
          "name": "to",
          "type": "address"
        },
        {
          "internalType": "uint256",
          "name": "deadline",
          "type": "uint256"
        }
      ],
      "name": "swapTokensForExactETH",
      "outputs": [
        {
          "internalType": "uint256[]",
          "name": "amounts",
          "type": "uint256[]"
        }
      ],
      "payable": false,
      "stateMutability": "nonpayable",
      "type": "function"
    },
    {
      "constant": false,
      "inputs": [
        {
          "internalType": "uint256",
          "name": "amountIn",
          "type": "uint256"
        },
        {
          "internalType": "uint256",
          "name": "amountOutMin",
          "type": "uint256"
        },
        {
          "internalType": "address[]",
          "name": "path",
          "type": "address[]"
        },
        {
          "internalType": "address",
          "name": "to",
          "type": "address"
        },
        {
          "internalType": "uint256",
          "name": "deadline",
          "type": "uint256"
        }
      ],
      "name": "swapExactTokensForETH",
      "outputs": [
        {
          "internalType": "uint256[]",
          "name": "amounts",
          "type": "uint256[]"
        }
      ],
      "payable": false,
      "stateMutability": "nonpayable",
      "type": "function"
    },
    {
      "constant": false,
      "inputs": [
        {
          "internalType": "uint256",
          "name": "amountOut",
          "type": "uint256"
        },
        {
          "internalType": "address[]",
          "name": "path",
          "type": "address[]"
        },
        {
          "internalType": "address",
          "name": "to",
          "type": "address"
        },
        {
          "internalType": "uint256",
          "name": "deadline",
          "type": "uint256"
        }
      ],
      "name": "swapETHForExactTokens",
      "outputs": [
        {
          "internalType": "uint256[]",
          "name": "amounts",
          "type": "uint256[]"
        }
      ],
      "payable": true,
      "stateMutability": "payable",
      "type": "function"
    },
    {
      "constant": true,
      "inputs": [
        {
          "internalType": "uint256",
          "name": "amountA",
          "type": "uint256"
        },
        {
          "internalType": "uint256",
          "name": "reserveA",
          "type": "uint256"
        },
        {
          "internalType": "uint256",
          "name": "reserveB",
          "type": "uint256"
        }
      ],
      "name": "quote",
      "outputs": [
        {
          "internalType": "uint256",
          "name": "amountB",
          "type": "uint256"
        }
      ],
      "payable": false,
      "stateMutability": "pure",
      "type": "function"
    },
    {
      "constant": true,
      "inputs": [
        {
          "internalType": "uint256",
          "name": "amountIn",
          "type": "uint256"
        },
        {
          "internalType": "uint256",
          "name": "reserveIn",
          "type": "uint256"
        },
        {
          "internalType": "uint256",
          "name": "reserveOut",
          "type": "uint256"
        }
      ],
      "name": "getAmountOut",
      "outputs": [
        {
          "internalType": "uint256",
          "name": "amountOut",
          "type": "uint256"
        }
      ],
      "payable": false,
      "stateMutability": "pure",
      "type": "function"
    },
    {
      "constant": true,
      "inputs": [
        {
          "internalType": "uint256",
          "name": "amountOut",
          "type": "uint256"
        },
        {
          "internalType": "uint256",
          "name": "reserveIn",
          "type": "uint256"
        },
        {
          "internalType": "uint256",
          "name": "reserveOut",
          "type": "uint256"
        }
      ],
      "name": "getAmountIn",
      "outputs": [
        {
          "internalType": "uint256",
          "name": "amountIn",
          "type": "uint256"
        }
      ],
      "payable": false,
      "stateMutability": "pure",
      "type": "function"
    },
    {
      "constant": true,
      "inputs": [
        {
          "internalType": "address",
          "name": "_pair",
          "type": "address"
        },
        {
          "internalType": "uint256",
          "name": "amountIn",
          "type": "uint256"
        },
        {
          "internalType": "address[]",
          "name": "path",
          "type": "address[]"
        }
      ],
      "name": "getAmountsOut",
      "outputs": [
        {
          "internalType": "uint256[]",
          "name": "amounts",
          "type": "uint256[]"
        }
      ],
      "payable": false,
      "stateMutability": "view",
      "type": "function"
    },
    {
      "constant": true,
      "inputs": [
        {
          "internalType": "uint256",
          "name": "amountOut",
          "type": "uint256"
        },
        {
          "internalType": "address[]",
          "name": "path",
          "type": "address[]"
        }
      ],
      "name": "getAmountsIn",
      "outputs": [
        {
          "internalType": "uint256[]",
          "name": "amounts",
          "type": "uint256[]"
        }
      ],
      "payable": false,
      "stateMutability": "view",
      "type": "function"
    }
  ],
  "bytecode": "0x608060405234801561001057600080fd5b50614f3d806100206000396000f3fe6080604052600436106101355760003560e01c8063877ae38d116100ab578063bb7b9c761161006f578063bb7b9c7614610d3b578063c45a015514610e7f578063ded9382a14610ed6578063e8e3370014610fb8578063f305d7191461109e578063fb3bdb411461114c57610135565b8063877ae38d14610a3d5780638803dbee14610a94578063ad5c464814610bad578063ad615dec14610c04578063baa2abde14610c6757610135565b80632195995c116100fd5780632195995c1461053357806338ed173914610635578063485cc9551461074e5780634a25d94a146107bf5780637ff36ab5146108d857806385f8c259146109da57610135565b806302751cec1461018e578063054d50d41461024257806310e3f7ac146102a557806318cbafe5146102f65780631f00ca741461040f575b600160009054906101000a900473ffffffffffffffffffffffffffffffffffffffff1673ffffffffffffffffffffffffffffffffffffffff163373ffffffffffffffffffffffffffffffffffffffff161461018c57fe5b005b34801561019a57600080fd5b50610225600480360360c08110156101b157600080fd5b81019080803573ffffffffffffffffffffffffffffffffffffffff169060200190929190803590602001909291908035906020019092919080359060200190929190803573ffffffffffffffffffffffffffffffffffffffff1690602001909291908035906020019092919050505061124e565b604051808381526020018281526020019250505060405180910390f35b34801561024e57600080fd5b5061028f6004803603606081101561026557600080fd5b810190808035906020019092919080359060200190929190803590602001909291905050506113af565b6040518082815260200191505060405180910390f35b3480156102b157600080fd5b506102f4600480360360208110156102c857600080fd5b81019080803573ffffffffffffffffffffffffffffffffffffffff1690602001909291905050506113c5565b005b34801561030257600080fd5b506103b8600480360360a081101561031957600080fd5b8101908080359060200190929190803590602001909291908035906020019064010000000081111561034a57600080fd5b82018360208201111561035c57600080fd5b8035906020019184602083028401116401000000008311171561037e57600080fd5b9091929391929390803573ffffffffffffffffffffffffffffffffffffffff16906020019092919080359060200190929190505050611409565b6040518080602001828103825283818151815260200191508051906020019060200280838360005b838110156103fb5780820151818401526020810190506103e0565b505050509050019250505060405180910390f35b34801561041b57600080fd5b506104dc6004803603604081101561043257600080fd5b81019080803590602001909291908035906020019064010000000081111561045957600080fd5b82018360208201111561046b57600080fd5b8035906020019184602083028401116401000000008311171561048d57600080fd5b919080806020026020016040519081016040528093929190818152602001838360200280828437600081840152601f19601f820116905080830192505050505050509192919290505050611834565b6040518080602001828103825283818151815260200191508051906020019060200280838360005b8381101561051f578082015181840152602081019050610504565b505050509050019250505060405180910390f35b34801561053f57600080fd5b50610618600480360361016081101561055757600080fd5b81019080803573ffffffffffffffffffffffffffffffffffffffff169060200190929190803573ffffffffffffffffffffffffffffffffffffffff169060200190929190803590602001909291908035906020019092919080359060200190929190803573ffffffffffffffffffffffffffffffffffffffff16906020019092919080359060200190929190803515159060200190929190803560ff169060200190929190803590602001909291908035906020019092919050505061186a565b604051808381526020018281526020019250505060405180910390f35b34801561064157600080fd5b506106f7600480360360a081101561065857600080fd5b8101908080359060200190929190803590602001909291908035906020019064010000000081111561068957600080fd5b82018360208201111561069b57600080fd5b803590602001918460208302840111640100000000831117156106bd57600080fd5b9091929391929390803573ffffffffffffffffffffffffffffffffffffffff169060200190929190803590602001909291905050506119f0565b6040518080602001828103825283818151815260200191508051906020019060200280838360005b8381101561073a57808201518184015260208101905061071f565b505050509050019250505060405180910390f35b34801561075a57600080fd5b506107bd6004803603604081101561077157600080fd5b81019080803573ffffffffffffffffffffffffffffffffffffffff169060200190929190803573ffffffffffffffffffffffffffffffffffffffff169060200190929190505050611c65565b005b3480156107cb57600080fd5b50610881600480360360a08110156107e257600080fd5b8101908080359060200190929190803590602001909291908035906020019064010000000081111561081357600080fd5b82018360208201111561082557600080fd5b8035906020019184602083028401116401000000008311171561084757600080fd5b9091929391929390803573ffffffffffffffffffffffffffffffffffffffff16906020019092919080359060200190929190505050611cea565b6040518080602001828103825283818151815260200191508051906020019060200280838360005b838110156108c45780820151818401526020810190506108a9565b505050509050019250505060405180910390f35b610983600480360360808110156108ee57600080fd5b81019080803590602001909291908035906020019064010000000081111561091557600080fd5b82018360208201111561092757600080fd5b8035906020019184602083028401116401000000008311171561094957600080fd5b9091929391929390803573ffffffffffffffffffffffffffffffffffffffff169060200190929190803590602001909291905050506120b7565b6040518080602001828103825283818151815260200191508051906020019060200280838360005b838110156109c65780820151818401526020810190506109ab565b505050509050019250505060405180910390f35b3480156109e657600080fd5b50610a27600480360360608110156109fd57600080fd5b81019080803590602001909291908035906020019092919080359060200190929190505050612509565b6040518082815260200191505060405180910390f35b348015610a4957600080fd5b50610a5261251f565b604051808273ffffffffffffffffffffffffffffffffffffffff1673ffffffffffffffffffffffffffffffffffffffff16815260200191505060405180910390f35b348015610aa057600080fd5b50610b56600480360360a0811015610ab757600080fd5b81019080803590602001909291908035906020019092919080359060200190640100000000811115610ae857600080fd5b820183602082011115610afa57600080fd5b80359060200191846020830284011164010000000083111715610b1c57600080fd5b9091929391929390803573ffffffffffffffffffffffffffffffffffffffff16906020019092919080359060200190929190505050612545565b6040518080602001828103825283818151815260200191508051906020019060200280838360005b83811015610b99578082015181840152602081019050610b7e565b505050509050019250505060405180910390f35b348015610bb957600080fd5b50610bc26127b7565b604051808273ffffffffffffffffffffffffffffffffffffffff1673ffffffffffffffffffffffffffffffffffffffff16815260200191505060405180910390f35b348015610c1057600080fd5b50610c5160048036036060811015610c2757600080fd5b810190808035906020019092919080359060200190929190803590602001909291905050506127dd565b6040518082815260200191505060405180910390f35b348015610c7357600080fd5b50610d1e600480360360e0811015610c8a57600080fd5b81019080803573ffffffffffffffffffffffffffffffffffffffff169060200190929190803573ffffffffffffffffffffffffffffffffffffffff169060200190929190803590602001909291908035906020019092919080359060200190929190803573ffffffffffffffffffffffffffffffffffffffff169060200190929190803590602001909291905050506127f3565b604051808381526020018281526020019250505060405180910390f35b348015610d4757600080fd5b50610e2860048036036060811015610d5e57600080fd5b81019080803573ffffffffffffffffffffffffffffffffffffffff1690602001909291908035906020019092919080359060200190640100000000811115610da557600080fd5b820183602082011115610db757600080fd5b80359060200191846020830284011164010000000083111715610dd957600080fd5b919080806020026020016040519081016040528093929190818152602001838360200280828437600081840152601f19601f820116905080830192505050505050509192919290505050612b6c565b6040518080602001828103825283818151815260200191508051906020019060200280838360005b83811015610e6b578082015181840152602081019050610e50565b505050509050019250505060405180910390f35b348015610e8b57600080fd5b50610e94612b82565b604051808273ffffffffffffffffffffffffffffffffffffffff1673ffffffffffffffffffffffffffffffffffffffff16815260200191505060405180910390f35b348015610ee257600080fd5b50610f9b6004803603610140811015610efa57600080fd5b81019080803573ffffffffffffffffffffffffffffffffffffffff169060200190929190803590602001909291908035906020019092919080359060200190929190803573ffffffffffffffffffffffffffffffffffffffff16906020019092919080359060200190929190803515159060200190929190803560ff1690602001909291908035906020019092919080359060200190929190505050612ba7565b604051808381526020018281526020019250505060405180910390f35b348015610fc457600080fd5b5061107a6004803603610100811015610fdc57600080fd5b81019080803573ffffffffffffffffffffffffffffffffffffffff169060200190929190803573ffffffffffffffffffffffffffffffffffffffff16906020019092919080359060200190929190803590602001909291908035906020019092919080359060200190929190803573ffffffffffffffffffffffffffffffffffffffff16906020019092919080359060200190929190505050612d4d565b60405180848152602001838152602001828152602001935050505060405180910390f35b611128600480360360c08110156110b457600080fd5b81019080803573ffffffffffffffffffffffffffffffffffffffff169060200190929190803590602001909291908035906020019092919080359060200190929190803573ffffffffffffffffffffffffffffffffffffffff16906020019092919080359060200190929190505050612f28565b60405180848152602001838152602001828152602001935050505060405180910390f35b6111f76004803603608081101561116257600080fd5b81019080803590602001909291908035906020019064010000000081111561118957600080fd5b82018360208201111561119b57600080fd5b803590602001918460208302840111640100000000831117156111bd57600080fd5b9091929391929390803573ffffffffffffffffffffffffffffffffffffffff16906020019092919080359060200190929190505050613286565b6040518080602001828103825283818151815260200191508051906020019060200280838360005b8381101561123a57808201518184015260208101905061121f565b505050509050019250505060405180910390f35b60008082428110156112c8576040517f08c379a00000000000000000000000000000000000000000000000000000000081526004018080602001828103825260188152602001807f556e69737761705632526f757465723a2045585049524544000000000000000081525060200191505060405180910390fd5b6112f989600160009054906101000a900473ffffffffffffffffffffffffffffffffffffffff168a8a8a308a6127f3565b809350819450505061130c89868561376c565b600160009054906101000a900473ffffffffffffffffffffffffffffffffffffffff1673ffffffffffffffffffffffffffffffffffffffff16632e1a7d4d836040518263ffffffff1660e01b815260040180828152602001915050600060405180830381600087803b15801561138157600080fd5b505af1158015611395573d6000803e3d6000fd5b505050506113a38583613965565b50965096945050505050565b60006113bc848484613aad565b90509392505050565b80600260006101000a81548173ffffffffffffffffffffffffffffffffffffffff021916908373ffffffffffffffffffffffffffffffffffffffff16021790555050565b60608142811015611482576040517f08c379a00000000000000000000000000000000000000000000000000000000081526004018080602001828103825260188152602001807f556e69737761705632526f757465723a2045585049524544000000000000000081525060200191505060405180910390fd5b600160009054906101000a900473ffffffffffffffffffffffffffffffffffffffff1673ffffffffffffffffffffffffffffffffffffffff168686600189899050038181106114cd57fe5b9050602002013573ffffffffffffffffffffffffffffffffffffffff1673ffffffffffffffffffffffffffffffffffffffff1614611573576040517f08c379a000000000000000000000000000000000000000000000000000000000815260040180806020018281038252601d8152602001807f556e69737761705632526f757465723a20494e56414c49445f5041544800000081525060200191505060405180910390fd5b6115e06000809054906101000a900473ffffffffffffffffffffffffffffffffffffffff1689888880806020026020016040519081016040528093929190818152602001838360200280828437600081840152601f19601f82011690508083019250505050505050613bdd565b915086826001845103815181106115f357fe5b60200260200101511015611652576040517f08c379a000000000000000000000000000000000000000000000000000000000815260040180806020018281038252602b815260200180614e8f602b913960400191505060405180910390fd5b6117188686600081811061166257fe5b9050602002013573ffffffffffffffffffffffffffffffffffffffff16336116fe6000809054906101000a900473ffffffffffffffffffffffffffffffffffffffff168a8a60008181106116b257fe5b9050602002013573ffffffffffffffffffffffffffffffffffffffff168b8b60018181106116dc57fe5b9050602002013573ffffffffffffffffffffffffffffffffffffffff16613d3e565b8560008151811061170b57fe5b6020026020010151613e99565b61176482878780806020026020016040519081016040528093929190818152602001838360200280828437600081840152601f19601f82011690508083019250505050505050306140aa565b600160009054906101000a900473ffffffffffffffffffffffffffffffffffffffff1673ffffffffffffffffffffffffffffffffffffffff16632e1a7d4d836001855103815181106117b257fe5b60200260200101516040518263ffffffff1660e01b815260040180828152602001915050600060405180830381600087803b1580156117f057600080fd5b505af1158015611804573d6000803e3d6000fd5b50505050611829848360018551038151811061181c57fe5b6020026020010151613965565b509695505050505050565b60606118626000809054906101000a900473ffffffffffffffffffffffffffffffffffffffff168484614318565b905092915050565b600080600061189b6000809054906101000a900473ffffffffffffffffffffffffffffffffffffffff168f8f613d3e565b90506000876118aa578c6118cc565b7fffffffffffffffffffffffffffffffffffffffffffffffffffffffffffffffff5b90508173ffffffffffffffffffffffffffffffffffffffff1663d505accf3330848d8c8c8c6040518863ffffffff1660e01b8152600401808873ffffffffffffffffffffffffffffffffffffffff1673ffffffffffffffffffffffffffffffffffffffff1681526020018773ffffffffffffffffffffffffffffffffffffffff1673ffffffffffffffffffffffffffffffffffffffff1681526020018681526020018581526020018460ff1660ff168152602001838152602001828152602001975050505050505050600060405180830381600087803b1580156119af57600080fd5b505af11580156119c3573d6000803e3d6000fd5b505050506119d68f8f8f8f8f8f8f6127f3565b809450819550505050509b509b9950505050505050505050565b60608142811015611a69576040517f08c379a00000000000000000000000000000000000000000000000000000000081526004018080602001828103825260188152602001807f556e69737761705632526f757465723a2045585049524544000000000000000081525060200191505060405180910390fd5b611ad66000809054906101000a900473ffffffffffffffffffffffffffffffffffffffff1689888880806020026020016040519081016040528093929190818152602001838360200280828437600081840152601f19601f82011690508083019250505050505050613bdd565b91508682600184510381518110611ae957fe5b60200260200101511015611b48576040517f08c379a000000000000000000000000000000000000000000000000000000000815260040180806020018281038252602b815260200180614e8f602b913960400191505060405180910390fd5b611c0e86866000818110611b5857fe5b9050602002013573ffffffffffffffffffffffffffffffffffffffff1633611bf46000809054906101000a900473ffffffffffffffffffffffffffffffffffffffff168a8a6000818110611ba857fe5b9050602002013573ffffffffffffffffffffffffffffffffffffffff168b8b6001818110611bd257fe5b9050602002013573ffffffffffffffffffffffffffffffffffffffff16613d3e565b85600081518110611c0157fe5b6020026020010151613e99565b611c5a82878780806020026020016040519081016040528093929190818152602001838360200280828437600081840152601f19601f82011690508083019250505050505050866140aa565b509695505050505050565b816000806101000a81548173ffffffffffffffffffffffffffffffffffffffff021916908373ffffffffffffffffffffffffffffffffffffffff16021790555080600160006101000a81548173ffffffffffffffffffffffffffffffffffffffff021916908373ffffffffffffffffffffffffffffffffffffffff1602179055505050565b60608142811015611d63576040517f08c379a00000000000000000000000000000000000000000000000000000000081526004018080602001828103825260188152602001807f556e69737761705632526f757465723a2045585049524544000000000000000081525060200191505060405180910390fd5b600160009054906101000a900473ffffffffffffffffffffffffffffffffffffffff1673ffffffffffffffffffffffffffffffffffffffff16868660018989905003818110611dae57fe5b9050602002013573ffffffffffffffffffffffffffffffffffffffff1673ffffffffffffffffffffffffffffffffffffffff1614611e54576040517f08c379a000000000000000000000000000000000000000000000000000000000815260040180806020018281038252601d8152602001807f556e69737761705632526f757465723a20494e56414c49445f5041544800000081525060200191505060405180910390fd5b611ec16000809054906101000a900473ffffffffffffffffffffffffffffffffffffffff1689888880806020026020016040519081016040528093929190818152602001838360200280828437600081840152601f19601f82011690508083019250505050505050614318565b91508682600081518110611ed157fe5b60200260200101511115611f30576040517f08c379a0000000000000000000000000000000000000000000000000000000008152600401808060200182810382526027815260200180614e1f6027913960400191505060405180910390fd5b611f9b86866000818110611f4057fe5b9050602002013573ffffffffffffffffffffffffffffffffffffffff1633600260009054906101000a900473ffffffffffffffffffffffffffffffffffffffff1685600081518110611f8e57fe5b6020026020010151613e99565b611fe782878780806020026020016040519081016040528093929190818152602001838360200280828437600081840152601f19601f82011690508083019250505050505050306140aa565b600160009054906101000a900473ffffffffffffffffffffffffffffffffffffffff1673ffffffffffffffffffffffffffffffffffffffff16632e1a7d4d8360018551038151811061203557fe5b60200260200101516040518263ffffffff1660e01b815260040180828152602001915050600060405180830381600087803b15801561207357600080fd5b505af1158015612087573d6000803e3d6000fd5b505050506120ac848360018551038151811061209f57fe5b6020026020010151613965565b509695505050505050565b60608142811015612130576040517f08c379a00000000000000000000000000000000000000000000000000000000081526004018080602001828103825260188152602001807f556e69737761705632526f757465723a2045585049524544000000000000000081525060200191505060405180910390fd5b600160009054906101000a900473ffffffffffffffffffffffffffffffffffffffff1673ffffffffffffffffffffffffffffffffffffffff168686600081811061217657fe5b9050602002013573ffffffffffffffffffffffffffffffffffffffff1673ffffffffffffffffffffffffffffffffffffffff161461221c576040517f08c379a000000000000000000000000000000000000000000000000000000000815260040180806020018281038252601d8152602001807f556e69737761705632526f757465723a20494e56414c49445f5041544800000081525060200191505060405180910390fd5b61228a600260009054906101000a900473ffffffffffffffffffffffffffffffffffffffff1634888880806020026020016040519081016040528093929190818152602001838360200280828437600081840152601f19601f82011690508083019250505050505050613bdd565b9150868260018451038151811061229d57fe5b602002602001015110156122fc576040517f08c379a000000000000000000000000000000000000000000000000000000000815260040180806020018281038252602b815260200180614e8f602b913960400191505060405180910390fd5b600160009054906101000a900473ffffffffffffffffffffffffffffffffffffffff1673ffffffffffffffffffffffffffffffffffffffff1663d0e30db08360008151811061234757fe5b60200260200101516040518263ffffffff1660e01b81526004016000604051808303818588803b15801561237a57600080fd5b505af115801561238e573d6000803e3d6000fd5b5050505050600160009054906101000a900473ffffffffffffffffffffffffffffffffffffffff1673ffffffffffffffffffffffffffffffffffffffff1663a9059cbb600260009054906101000a900473ffffffffffffffffffffffffffffffffffffffff168460008151811061240157fe5b60200260200101516040518363ffffffff1660e01b8152600401808373ffffffffffffffffffffffffffffffffffffffff1673ffffffffffffffffffffffffffffffffffffffff16815260200182815260200192505050602060405180830381600087803b15801561247257600080fd5b505af1158015612486573d6000803e3d6000fd5b505050506040513d602081101561249c57600080fd5b81019080805190602001909291905050506124b357fe5b6124ff82878780806020026020016040519081016040528093929190818152602001838360200280828437600081840152601f19601f82011690508083019250505050505050866140aa565b5095945050505050565b6000612516848484613aad565b90509392505050565b600260009054906101000a900473ffffffffffffffffffffffffffffffffffffffff1681565b606081428110156125be576040517f08c379a00000000000000000000000000000000000000000000000000000000081526004018080602001828103825260188152602001807f556e69737761705632526f757465723a2045585049524544000000000000000081525060200191505060405180910390fd5b61262b6000809054906101000a900473ffffffffffffffffffffffffffffffffffffffff1689888880806020026020016040519081016040528093929190818152602001838360200280828437600081840152601f19601f82011690508083019250505050505050614318565b9150868260008151811061263b57fe5b6020026020010151111561269a576040517f08c379a0000000000000000000000000000000000000000000000000000000008152600401808060200182810382526027815260200180614e1f6027913960400191505060405180910390fd5b612760868660008181106126aa57fe5b9050602002013573ffffffffffffffffffffffffffffffffffffffff16336127466000809054906101000a900473ffffffffffffffffffffffffffffffffffffffff168a8a60008181106126fa57fe5b9050602002013573ffffffffffffffffffffffffffffffffffffffff168b8b600181811061272457fe5b9050602002013573ffffffffffffffffffffffffffffffffffffffff16613d3e565b8560008151811061275357fe5b6020026020010151613e99565b6127ac82878780806020026020016040519081016040528093929190818152602001838360200280828437600081840152601f19601f82011690508083019250505050505050866140aa565b509695505050505050565b600160009054906101000a900473ffffffffffffffffffffffffffffffffffffffff1681565b60006127ea848484614481565b90509392505050565b600080824281101561286d576040517f08c379a00000000000000000000000000000000000000000000000000000000081526004018080602001828103825260188152602001807f556e69737761705632526f757465723a2045585049524544000000000000000081525060200191505060405180910390fd5b6000600260009054906101000a900473ffffffffffffffffffffffffffffffffffffffff1690508073ffffffffffffffffffffffffffffffffffffffff166323b872dd33838c6040518463ffffffff1660e01b8152600401808473ffffffffffffffffffffffffffffffffffffffff1673ffffffffffffffffffffffffffffffffffffffff1681526020018373ffffffffffffffffffffffffffffffffffffffff1673ffffffffffffffffffffffffffffffffffffffff1681526020018281526020019350505050602060405180830381600087803b15801561294f57600080fd5b505af1158015612963573d6000803e3d6000fd5b505050506040513d602081101561297957600080fd5b8101908080519060200190929190505050506000808273ffffffffffffffffffffffffffffffffffffffff166389afcb44896040518263ffffffff1660e01b8152600401808273ffffffffffffffffffffffffffffffffffffffff1673ffffffffffffffffffffffffffffffffffffffff1681526020019150506040805180830381600087803b158015612a0c57600080fd5b505af1158015612a20573d6000803e3d6000fd5b505050506040513d6040811015612a3657600080fd5b810190808051906020019092919080519060200190929190505050915091506000612a618e8e614565565b5090508073ffffffffffffffffffffffffffffffffffffffff168e73ffffffffffffffffffffffffffffffffffffffff1614612a9e578183612aa1565b82825b80975081985050508a871015612b02576040517f08c379a0000000000000000000000000000000000000000000000000000000008152600401808060200182810382526026815260200180614e466026913960400191505060405180910390fd5b89861015612b5b576040517f08c379a0000000000000000000000000000000000000000000000000000000008152600401808060200182810382526026815260200180614dac6026913960400191505060405180910390fd5b505050505097509795505050505050565b6060612b79848484613bdd565b90509392505050565b6000809054906101000a900473ffffffffffffffffffffffffffffffffffffffff1681565b6000806000612bfa6000809054906101000a900473ffffffffffffffffffffffffffffffffffffffff168e600160009054906101000a900473ffffffffffffffffffffffffffffffffffffffff16613d3e565b9050600087612c09578c612c2b565b7fffffffffffffffffffffffffffffffffffffffffffffffffffffffffffffffff5b90508173ffffffffffffffffffffffffffffffffffffffff1663d505accf3330848d8c8c8c6040518863ffffffff1660e01b8152600401808873ffffffffffffffffffffffffffffffffffffffff1673ffffffffffffffffffffffffffffffffffffffff1681526020018773ffffffffffffffffffffffffffffffffffffffff1673ffffffffffffffffffffffffffffffffffffffff1681526020018681526020018581526020018460ff1660ff168152602001838152602001828152602001975050505050505050600060405180830381600087803b158015612d0e57600080fd5b505af1158015612d22573d6000803e3d6000fd5b50505050612d348e8e8e8e8e8e61124e565b809450819550505050509a509a98505050505050505050565b60008060008342811015612dc9576040517f08c379a00000000000000000000000000000000000000000000000000000000081526004018080602001828103825260188152602001807f556e69737761705632526f757465723a2045585049524544000000000000000081525060200191505060405180910390fd5b612dd78c8c8c8c8c8c6146dc565b8094508195505050612e0d8c33600260009054906101000a900473ffffffffffffffffffffffffffffffffffffffff1687613e99565b612e3b8b33600260009054906101000a900473ffffffffffffffffffffffffffffffffffffffff1686613e99565b600260009054906101000a900473ffffffffffffffffffffffffffffffffffffffff1673ffffffffffffffffffffffffffffffffffffffff16636a627842876040518263ffffffff1660e01b8152600401808273ffffffffffffffffffffffffffffffffffffffff1673ffffffffffffffffffffffffffffffffffffffff168152602001915050602060405180830381600087803b158015612edc57600080fd5b505af1158015612ef0573d6000803e3d6000fd5b505050506040513d6020811015612f0657600080fd5b8101908080519060200190929190505050915050985098509895505050505050565b60008060008342811015612fa4576040517f08c379a00000000000000000000000000000000000000000000000000000000081526004018080602001828103825260188152602001807f556e69737761705632526f757465723a2045585049524544000000000000000081525060200191505060405180910390fd5b612fd48a600160009054906101000a900473ffffffffffffffffffffffffffffffffffffffff168b348c8c6146dc565b8094508195505050600061302c6000809054906101000a900473ffffffffffffffffffffffffffffffffffffffff168c600160009054906101000a900473ffffffffffffffffffffffffffffffffffffffff16613d3e565b905061303a8b338388613e99565b600160009054906101000a900473ffffffffffffffffffffffffffffffffffffffff1673ffffffffffffffffffffffffffffffffffffffff1663d0e30db0856040518263ffffffff1660e01b81526004016000604051808303818588803b1580156130a457600080fd5b505af11580156130b8573d6000803e3d6000fd5b5050505050600160009054906101000a900473ffffffffffffffffffffffffffffffffffffffff1673ffffffffffffffffffffffffffffffffffffffff1663a9059cbb82866040518363ffffffff1660e01b8152600401808373ffffffffffffffffffffffffffffffffffffffff1673ffffffffffffffffffffffffffffffffffffffff16815260200182815260200192505050602060405180830381600087803b15801561316657600080fd5b505af115801561317a573d6000803e3d6000fd5b505050506040513d602081101561319057600080fd5b81019080805190602001909291905050506131a757fe5b8073ffffffffffffffffffffffffffffffffffffffff16636a627842886040518263ffffffff1660e01b8152600401808273ffffffffffffffffffffffffffffffffffffffff1673ffffffffffffffffffffffffffffffffffffffff168152602001915050602060405180830381600087803b15801561322657600080fd5b505af115801561323a573d6000803e3d6000fd5b505050506040513d602081101561325057600080fd5b81019080805190602001909291905050509250833411156132785761327733853403613965565b5b505096509650969350505050565b606081428110156132ff576040517f08c379a00000000000000000000000000000000000000000000000000000000081526004018080602001828103825260188152602001807f556e69737761705632526f757465723a2045585049524544000000000000000081525060200191505060405180910390fd5b600160009054906101000a900473ffffffffffffffffffffffffffffffffffffffff1673ffffffffffffffffffffffffffffffffffffffff168686600081811061334557fe5b9050602002013573ffffffffffffffffffffffffffffffffffffffff1673ffffffffffffffffffffffffffffffffffffffff16146133eb576040517f08c379a000000000000000000000000000000000000000000000000000000000815260040180806020018281038252601d8152602001807f556e69737761705632526f757465723a20494e56414c49445f5041544800000081525060200191505060405180910390fd5b6134586000809054906101000a900473ffffffffffffffffffffffffffffffffffffffff1688888880806020026020016040519081016040528093929190818152602001838360200280828437600081840152601f19601f82011690508083019250505050505050614318565b9150348260008151811061346857fe5b602002602001015111156134c7576040517f08c379a0000000000000000000000000000000000000000000000000000000008152600401808060200182810382526027815260200180614e1f6027913960400191505060405180910390fd5b600160009054906101000a900473ffffffffffffffffffffffffffffffffffffffff1673ffffffffffffffffffffffffffffffffffffffff1663d0e30db08360008151811061351257fe5b60200260200101516040518263ffffffff1660e01b81526004016000604051808303818588803b15801561354557600080fd5b505af1158015613559573d6000803e3d6000fd5b5050505050600160009054906101000a900473ffffffffffffffffffffffffffffffffffffffff1673ffffffffffffffffffffffffffffffffffffffff1663a9059cbb61361a6000809054906101000a900473ffffffffffffffffffffffffffffffffffffffff16898960008181106135ce57fe5b9050602002013573ffffffffffffffffffffffffffffffffffffffff168a8a60018181106135f857fe5b9050602002013573ffffffffffffffffffffffffffffffffffffffff16613d3e565b8460008151811061362757fe5b60200260200101516040518363ffffffff1660e01b8152600401808373ffffffffffffffffffffffffffffffffffffffff1673ffffffffffffffffffffffffffffffffffffffff16815260200182815260200192505050602060405180830381600087803b15801561369857600080fd5b505af11580156136ac573d6000803e3d6000fd5b505050506040513d60208110156136c257600080fd5b81019080805190602001909291905050506136d957fe5b61372582878780806020026020016040519081016040528093929190818152602001838360200280828437600081840152601f19601f82011690508083019250505050505050866140aa565b8160008151811061373257fe5b602002602001015134111561376257613761338360008151811061375257fe5b60200260200101513403613965565b5b5095945050505050565b600060608473ffffffffffffffffffffffffffffffffffffffff1663a9059cbb8585604051602401808373ffffffffffffffffffffffffffffffffffffffff1673ffffffffffffffffffffffffffffffffffffffff168152602001828152602001925050506040516020818303038152906040529060e01b6020820180517bffffffffffffffffffffffffffffffffffffffffffffffffffffffff83818316178352505050506040518082805190602001908083835b602083106138455780518252602082019150602081019050602083039250613822565b6001836020036101000a0380198251168184511680821785525050505050509050019150506000604051808303816000865af19150503d80600081146138a7576040519150601f19603f3d011682016040523d82523d6000602084013e6138ac565b606091505b50915091508180156138ec57506000815114806138eb57508080602001905160208110156138d957600080fd5b81019080805190602001909291905050505b5b61395e576040517f08c379a000000000000000000000000000000000000000000000000000000000815260040180806020018281038252601f8152602001807f5472616e7366657248656c7065723a205452414e534645525f4641494c45440081525060200191505060405180910390fd5b5050505050565b60008273ffffffffffffffffffffffffffffffffffffffff168260006040519080825280601f01601f1916602001820160405280156139b35781602001600182028038833980820191505090505b506040518082805190602001908083835b602083106139e757805182526020820191506020810190506020830392506139c4565b6001836020036101000a03801982511681845116808217855250505050505090500191505060006040518083038185875af1925050503d8060008114613a49576040519150601f19603f3d011682016040523d82523d6000602084013e613a4e565b606091505b5050905080613aa8576040517f08c379a0000000000000000000000000000000000000000000000000000000008152600401808060200182810382526023815260200180614e6c6023913960400191505060405180910390fd5b505050565b6000808411613b07576040517f08c379a000000000000000000000000000000000000000000000000000000000815260040180806020018281038252602b815260200180614ede602b913960400191505060405180910390fd5b600083118015613b175750600082115b613b6c576040517f08c379a0000000000000000000000000000000000000000000000000000000008152600401808060200182810382526028815260200180614dd26028913960400191505060405180910390fd5b6000613b836103e586614a9490919063ffffffff16565b90506000613b9a8483614a9490919063ffffffff16565b90506000613bc583613bb76103e889614a9490919063ffffffff16565b614acb90919063ffffffff16565b9050808281613bd057fe5b0493505050509392505050565b6060600282511015613c57576040517f08c379a000000000000000000000000000000000000000000000000000000000815260040180806020018281038252601e8152602001807f556e697377617056324c6962726172793a20494e56414c49445f50415448000081525060200191505060405180910390fd5b8151604051908082528060200260200182016040528015613c875781602001602082028038833980820191505090505b5090508281600081518110613c9857fe5b60200260200101818152505060005b6001835103811015613d3657600080613cea87868581518110613cc657fe5b6020026020010151876001870181518110613cdd57fe5b6020026020010151614ae7565b91509150613d0c848481518110613cfd57fe5b60200260200101518383613aad565b846001850181518110613d1b57fe5b60200260200101818152505050508080600101915050613ca7565b509392505050565b6000806000613d4d8585614565565b91509150858282604051602001808373ffffffffffffffffffffffffffffffffffffffff1673ffffffffffffffffffffffffffffffffffffffff1660601b81526014018273ffffffffffffffffffffffffffffffffffffffff1673ffffffffffffffffffffffffffffffffffffffff1660601b8152601401925050506040516020818303038152906040528051906020012060405160200180807fff000000000000000000000000000000000000000000000000000000000000008152506001018373ffffffffffffffffffffffffffffffffffffffff1673ffffffffffffffffffffffffffffffffffffffff1660601b8152601401828152602001807f96e8ac4277198ff8b6f785478aa9a39f403cb768dd02cbee326c3e7da348845f815250602001925050506040516020818303038152906040528051906020012060001c925050509392505050565b600060608573ffffffffffffffffffffffffffffffffffffffff166323b872dd868686604051602401808473ffffffffffffffffffffffffffffffffffffffff1673ffffffffffffffffffffffffffffffffffffffff1681526020018373ffffffffffffffffffffffffffffffffffffffff1673ffffffffffffffffffffffffffffffffffffffff16815260200182815260200193505050506040516020818303038152906040529060e01b6020820180517bffffffffffffffffffffffffffffffffffffffffffffffffffffffff83818316178352505050506040518082805190602001908083835b60208310613fa65780518252602082019150602081019050602083039250613f83565b6001836020036101000a0380198251168184511680821785525050505050509050019150506000604051808303816000865af19150503d8060008114614008576040519150601f19603f3d011682016040523d82523d6000602084013e61400d565b606091505b509150915081801561404d575060008151148061404c575080806020019051602081101561403a57600080fd5b81019080805190602001909291905050505b5b6140a2576040517f08c379a0000000000000000000000000000000000000000000000000000000008152600401808060200182810382526024815260200180614eba6024913960400191505060405180910390fd5b505050505050565b60005b6001835103811015614312576000808483815181106140c857fe5b60200260200101518560018501815181106140df57fe5b60200260200101519150915060006140f78383614565565b509050600087600186018151811061410b57fe5b602002602001015190506000808373ffffffffffffffffffffffffffffffffffffffff168673ffffffffffffffffffffffffffffffffffffffff161461415357826000614157565b6000835b91509150600060028a5103881061416e5788614192565b600260009054906101000a900473ffffffffffffffffffffffffffffffffffffffff165b9050600260009054906101000a900473ffffffffffffffffffffffffffffffffffffffff1673ffffffffffffffffffffffffffffffffffffffff1663022c0d9f84848460006040519080825280601f01601f1916602001820160405280156142095781602001600182028038833980820191505090505b506040518563ffffffff1660e01b8152600401808581526020018481526020018373ffffffffffffffffffffffffffffffffffffffff1673ffffffffffffffffffffffffffffffffffffffff16815260200180602001828103825283818151815260200191508051906020019080838360005b8381101561429757808201518184015260208101905061427c565b50505050905090810190601f1680156142c45780820380516001836020036101000a031916815260200191505b5095505050505050600060405180830381600087803b1580156142e657600080fd5b505af11580156142fa573d6000803e3d6000fd5b505050505050505050505080806001019150506140ad565b50505050565b6060600282511015614392576040517f08c379a000000000000000000000000000000000000000000000000000000000815260040180806020018281038252601e8152602001807f556e697377617056324c6962726172793a20494e56414c49445f50415448000081525060200191505060405180910390fd5b81516040519080825280602002602001820160405280156143c25781602001602082028038833980820191505090505b50905082816001835103815181106143d657fe5b6020026020010181815250506000600183510390505b60008111156144795760008061442c8786600186038151811061440b57fe5b602002602001015187868151811061441f57fe5b6020026020010151614ae7565b9150915061444e84848151811061443f57fe5b60200260200101518383614c06565b84600185038151811061445d57fe5b60200260200101818152505050508080600190039150506143ec565b509392505050565b60008084116144db576040517f08c379a0000000000000000000000000000000000000000000000000000000008152600401808060200182810382526025815260200180614dfa6025913960400191505060405180910390fd5b6000831180156144eb5750600082115b614540576040517f08c379a0000000000000000000000000000000000000000000000000000000008152600401808060200182810382526028815260200180614dd26028913960400191505060405180910390fd5b826145548386614a9490919063ffffffff16565b8161455b57fe5b0490509392505050565b6000808273ffffffffffffffffffffffffffffffffffffffff168473ffffffffffffffffffffffffffffffffffffffff1614156145ed576040517f08c379a0000000000000000000000000000000000000000000000000000000008152600401808060200182810382526025815260200180614d876025913960400191505060405180910390fd5b8273ffffffffffffffffffffffffffffffffffffffff168473ffffffffffffffffffffffffffffffffffffffff161061462757828461462a565b83835b8092508193505050600073ffffffffffffffffffffffffffffffffffffffff168273ffffffffffffffffffffffffffffffffffffffff1614156146d5576040517f08c379a000000000000000000000000000000000000000000000000000000000815260040180806020018281038252601e8152602001807f556e697377617056324c6962726172793a205a45524f5f41444452455353000081525060200191505060405180910390fd5b9250929050565b600080600073ffffffffffffffffffffffffffffffffffffffff166000809054906101000a900473ffffffffffffffffffffffffffffffffffffffff1673ffffffffffffffffffffffffffffffffffffffff1663e6a439058a8a6040518363ffffffff1660e01b8152600401808373ffffffffffffffffffffffffffffffffffffffff1673ffffffffffffffffffffffffffffffffffffffff1681526020018273ffffffffffffffffffffffffffffffffffffffff1673ffffffffffffffffffffffffffffffffffffffff1681526020019250505060206040518083038186803b1580156147c957600080fd5b505afa1580156147dd573d6000803e3d6000fd5b505050506040513d60208110156147f357600080fd5b810190808051906020019092919050505073ffffffffffffffffffffffffffffffffffffffff161415614931576000809054906101000a900473ffffffffffffffffffffffffffffffffffffffff1673ffffffffffffffffffffffffffffffffffffffff1663c9c6539689896040518363ffffffff1660e01b8152600401808373ffffffffffffffffffffffffffffffffffffffff1673ffffffffffffffffffffffffffffffffffffffff1681526020018273ffffffffffffffffffffffffffffffffffffffff1673ffffffffffffffffffffffffffffffffffffffff16815260200192505050602060405180830381600087803b1580156148f457600080fd5b505af1158015614908573d6000803e3d6000fd5b505050506040513d602081101561491e57600080fd5b8101908080519060200190929190505050505b600080614961600260009054906101000a900473ffffffffffffffffffffffffffffffffffffffff168b8b614ae7565b915091506000821480156149755750600081145b156149895787878094508195505050614a87565b6000614996898484614481565b9050878111614a0757858110156149f8576040517f08c379a0000000000000000000000000000000000000000000000000000000008152600401808060200182810382526026815260200180614dac6026913960400191505060405180910390fd5b88818095508196505050614a85565b6000614a14898486614481565b905089811115614a2057fe5b87811015614a79576040517f08c379a0000000000000000000000000000000000000000000000000000000008152600401808060200182810382526026815260200180614e466026913960400191505060405180910390fd5b80898096508197505050505b505b5050965096945050505050565b600080831415614aa75760009050614ac5565b6000828402905082848281614ab857fe5b0414614ac057fe5b809150505b92915050565b600080828401905083811015614add57fe5b8091505092915050565b6000806000614af68585614565565b5090506000808773ffffffffffffffffffffffffffffffffffffffff16630902f1ac6040518163ffffffff1660e01b815260040160606040518083038186803b158015614b4257600080fd5b505afa158015614b56573d6000803e3d6000fd5b505050506040513d6060811015614b6c57600080fd5b81019080805190602001909291908051906020019092919080519060200190929190505050506dffffffffffffffffffffffffffff1691506dffffffffffffffffffffffffffff1691508273ffffffffffffffffffffffffffffffffffffffff168773ffffffffffffffffffffffffffffffffffffffff1614614bf0578082614bf3565b81815b8095508196505050505050935093915050565b6000808411614c60576040517f08c379a000000000000000000000000000000000000000000000000000000000815260040180806020018281038252602c815260200180614d5b602c913960400191505060405180910390fd5b600083118015614c705750600082115b614cc5576040517f08c379a0000000000000000000000000000000000000000000000000000000008152600401808060200182810382526028815260200180614dd26028913960400191505060405180910390fd5b6000614cee6103e8614ce08787614a9490919063ffffffff16565b614a9490919063ffffffff16565b90506000614d196103e5614d0b8887614d4390919063ffffffff16565b614a9490919063ffffffff16565b9050614d386001828481614d2957fe5b04614acb90919063ffffffff16565b925050509392505050565b600082821115614d4f57fe5b81830390509291505056fe556e697377617056324c6962726172793a20494e53554646494349454e545f4f55545055545f414d4f554e54556e697377617056324c6962726172793a204944454e544943414c5f414444524553534553556e69737761705632526f757465723a20494e53554646494349454e545f425f414d4f554e54556e697377617056324c6962726172793a20494e53554646494349454e545f4c4951554944495459556e697377617056324c6962726172793a20494e53554646494349454e545f414d4f554e54556e69737761705632526f757465723a204558434553534956455f494e5055545f414d4f554e54556e69737761705632526f757465723a20494e53554646494349454e545f415f414d4f554e545472616e7366657248656c7065723a204554485f5452414e534645525f4641494c4544556e69737761705632526f757465723a20494e53554646494349454e545f4f55545055545f414d4f554e545472616e7366657248656c7065723a205452414e534645525f46524f4d5f4641494c4544556e697377617056324c6962726172793a20494e53554646494349454e545f494e5055545f414d4f554e54a265627a7a7231582064e88bafd9fd27f9b19420513cd4ac3aebcd65078d116ee904f0a5cdd20ef54c64736f6c63430005110032",
  "source": "pragma solidity ^0.5.5;\n\nimport '../uniswap-v2-core/interfaces/IUniswapV2Factory.sol';\nimport '../uniswap-lib/TransferHelper.sol';\n\nimport './libraries/UniswapV2Library.sol';\nimport './interfaces/IUniswapV2Router01.sol';\nimport '../uniswap-v2-core/interfaces/IERC20.sol';\nimport './interfaces/IWETH.sol';\n\ncontract UniswapV2Router01 is IUniswapV2Router01 {\n    address public factory;\n    address public WETH;\n\n    // temporary just for truffle local testing purpose\n    address public ktyWethPair;\n\n    modifier ensure(uint deadline) {\n        require(deadline >= block.timestamp, 'UniswapV2Router: EXPIRED');\n        _;\n    }\n\n    function initialize(address _factory, address _WETH) public {\n        factory = _factory;\n        WETH = _WETH;\n    }\n\n    function() external payable {\n        assert(msg.sender == WETH); // only accept ETH via fallback from the WETH contract\n    }\n\n    // temporary function for truffle local testing purpose only\n    function setKtyWethPairAddr(address _ktyWethPair) public {\n        ktyWethPair = _ktyWethPair;\n    }\n\n    // **** ADD LIQUIDITY ****\n    function _addLiquidity(\n        address tokenA,\n        address tokenB,\n        uint amountADesired,\n        uint amountBDesired,\n        uint amountAMin,\n        uint amountBMin\n    ) private returns (uint amountA, uint amountB) {\n        // create the pair if it doesn't exist yet\n        if (IUniswapV2Factory(factory).getPair(tokenA, tokenB) == address(0)) {\n            IUniswapV2Factory(factory).createPair(tokenA, tokenB);\n        }\n        (uint reserveA, uint reserveB) = UniswapV2Library.getReserves(ktyWethPair, tokenA, tokenB);\n        if (reserveA == 0 && reserveB == 0) {\n            (amountA, amountB) = (amountADesired, amountBDesired);\n        } else {\n            uint amountBOptimal = UniswapV2Library.quote(amountADesired, reserveA, reserveB);\n            if (amountBOptimal <= amountBDesired) {\n                require(amountBOptimal >= amountBMin, 'UniswapV2Router: INSUFFICIENT_B_AMOUNT');\n                (amountA, amountB) = (amountADesired, amountBOptimal);\n            } else {\n                uint amountAOptimal = UniswapV2Library.quote(amountBDesired, reserveB, reserveA);\n                assert(amountAOptimal <= amountADesired);\n                require(amountAOptimal >= amountAMin, 'UniswapV2Router: INSUFFICIENT_A_AMOUNT');\n                (amountA, amountB) = (amountAOptimal, amountBDesired);\n            }\n        }\n    }\n    function addLiquidity(\n        address tokenA,\n        address tokenB,\n        uint amountADesired,\n        uint amountBDesired,\n        uint amountAMin,\n        uint amountBMin,\n        address to,\n        uint deadline\n    ) external ensure(deadline) returns (uint amountA, uint amountB, uint liquidity) {\n        (amountA, amountB) = _addLiquidity(tokenA, tokenB, amountADesired, amountBDesired, amountAMin, amountBMin);\n        //address pair = UniswapV2Library.pairFor(factory, tokenA, tokenB);\n        TransferHelper.safeTransferFrom(tokenA, msg.sender, ktyWethPair, amountA);\n        TransferHelper.safeTransferFrom(tokenB, msg.sender, ktyWethPair, amountB);\n        liquidity = IUniswapV2Pair(ktyWethPair).mint(to);\n    }\n    function addLiquidityETH(\n        address token,\n        uint amountTokenDesired,\n        uint amountTokenMin,\n        uint amountETHMin,\n        address to,\n        uint deadline\n    ) external payable ensure(deadline) returns (uint amountToken, uint amountETH, uint liquidity) {\n        (amountToken, amountETH) = _addLiquidity(\n            token,\n            WETH,\n            amountTokenDesired,\n            msg.value,\n            amountTokenMin,\n            amountETHMin\n        );\n        address pair = UniswapV2Library.pairFor(factory, token, WETH);\n        TransferHelper.safeTransferFrom(token, msg.sender, pair, amountToken);\n        IWETH(WETH).deposit.value(amountETH)();\n        assert(IWETH(WETH).transfer(pair, amountETH));\n        liquidity = IUniswapV2Pair(pair).mint(to);\n        if (msg.value > amountETH) TransferHelper.safeTransferETH(msg.sender, msg.value - amountETH); // refund dust eth, if any\n    }\n\n    // **** REMOVE LIQUIDITY ****\n    function removeLiquidity(\n        address tokenA,\n        address tokenB,\n        uint liquidity,\n        uint amountAMin,\n        uint amountBMin,\n        address to,\n        uint deadline\n    ) public ensure(deadline) returns (uint amountA, uint amountB) {\n        //address pair = UniswapV2Library.pairFor(factory, tokenA, tokenB);\n        address pair = ktyWethPair;\n        IUniswapV2Pair(pair).transferFrom(msg.sender, pair, liquidity); // send liquidity to pair\n        (uint amount0, uint amount1) = IUniswapV2Pair(pair).burn(to);\n        (address token0,) = UniswapV2Library.sortTokens(tokenA, tokenB);\n        (amountA, amountB) = tokenA == token0 ? (amount0, amount1) : (amount1, amount0);\n        require(amountA >= amountAMin, 'UniswapV2Router: INSUFFICIENT_A_AMOUNT');\n        require(amountB >= amountBMin, 'UniswapV2Router: INSUFFICIENT_B_AMOUNT');\n    }\n    function removeLiquidityETH(\n        address token,\n        uint liquidity,\n        uint amountTokenMin,\n        uint amountETHMin,\n        address to,\n        uint deadline\n    ) public ensure(deadline) returns (uint amountToken, uint amountETH) {\n        (amountToken, amountETH) = removeLiquidity(\n            token,\n            WETH,\n            liquidity,\n            amountTokenMin,\n            amountETHMin,\n            address(this),\n            deadline\n        );\n        TransferHelper.safeTransfer(token, to, amountToken);\n        IWETH(WETH).withdraw(amountETH);\n        TransferHelper.safeTransferETH(to, amountETH);\n    }\n    function removeLiquidityWithPermit(\n        address tokenA,\n        address tokenB,\n        uint liquidity,\n        uint amountAMin,\n        uint amountBMin,\n        address to,\n        uint deadline,\n        bool approveMax, uint8 v, bytes32 r, bytes32 s\n    ) external returns (uint amountA, uint amountB) {\n        address pair = UniswapV2Library.pairFor(factory, tokenA, tokenB);\n        uint value = approveMax ? uint(-1) : liquidity;\n        IUniswapV2Pair(pair).permit(msg.sender, address(this), value, deadline, v, r, s);\n        (amountA, amountB) = removeLiquidity(tokenA, tokenB, liquidity, amountAMin, amountBMin, to, deadline);\n    }\n    function removeLiquidityETHWithPermit(\n        address token,\n        uint liquidity,\n        uint amountTokenMin,\n        uint amountETHMin,\n        address to,\n        uint deadline,\n        bool approveMax, uint8 v, bytes32 r, bytes32 s\n    ) external returns (uint amountToken, uint amountETH) {\n        address pair = UniswapV2Library.pairFor(factory, token, WETH);\n        uint value = approveMax ? uint(-1) : liquidity;\n        IUniswapV2Pair(pair).permit(msg.sender, address(this), value, deadline, v, r, s);\n        (amountToken, amountETH) = removeLiquidityETH(token, liquidity, amountTokenMin, amountETHMin, to, deadline);\n    }\n\n    // **** SWAP ****\n    // requires the initial amount to have already been sent to the first pair\n    function _swap(uint[] memory amounts, address[] memory path, address _to) private {\n        for (uint i; i < path.length - 1; i++) {\n            (address input, address output) = (path[i], path[i + 1]);\n            (address token0,) = UniswapV2Library.sortTokens(input, output);\n            uint amountOut = amounts[i + 1];\n            (uint amount0Out, uint amount1Out) = input == token0 ? (uint(0), amountOut) : (amountOut, uint(0));\n            //address to = i < path.length - 2 ? UniswapV2Library.pairFor(factory, output, path[i + 2]) : _to;\n            address to = i < path.length - 2 ? ktyWethPair : _to;\n           // IUniswapV2Pair(UniswapV2Library.pairFor(factory, input, output)).swap(amount0Out, amount1Out, to, new bytes(0));\n            IUniswapV2Pair(ktyWethPair).swap(amount0Out, amount1Out, to, new bytes(0));\n        }\n    }\n    function swapExactTokensForTokens(\n        uint amountIn,\n        uint amountOutMin,\n        address[] calldata path,\n        address to,\n        uint deadline\n    ) external ensure(deadline) returns (uint[] memory amounts) {\n        amounts = UniswapV2Library.getAmountsOut(factory, amountIn, path);\n        require(amounts[amounts.length - 1] >= amountOutMin, 'UniswapV2Router: INSUFFICIENT_OUTPUT_AMOUNT');\n        TransferHelper.safeTransferFrom(path[0], msg.sender, UniswapV2Library.pairFor(factory, path[0], path[1]), amounts[0]);\n        _swap(amounts, path, to);\n    }\n    function swapTokensForExactTokens(\n        uint amountOut,\n        uint amountInMax,\n        address[] calldata path,\n        address to,\n        uint deadline\n    ) external ensure(deadline) returns (uint[] memory amounts) {\n        amounts = UniswapV2Library.getAmountsIn(factory, amountOut, path);\n        require(amounts[0] <= amountInMax, 'UniswapV2Router: EXCESSIVE_INPUT_AMOUNT');\n        TransferHelper.safeTransferFrom(path[0], msg.sender, UniswapV2Library.pairFor(factory, path[0], path[1]), amounts[0]);\n        _swap(amounts, path, to);\n    }\n    function swapExactETHForTokens(uint amountOutMin, address[] calldata path, address to, uint deadline)\n        external\n        payable\n        ensure(deadline)\n        returns (uint[] memory amounts)\n    {\n        require(path[0] == WETH, 'UniswapV2Router: INVALID_PATH');\n        amounts = UniswapV2Library.getAmountsOut(ktyWethPair, msg.value, path);\n        require(amounts[amounts.length - 1] >= amountOutMin, 'UniswapV2Router: INSUFFICIENT_OUTPUT_AMOUNT');\n        IWETH(WETH).deposit.value(amounts[0])();\n        //assert(IWETH(WETH).transfer(UniswapV2Library.pairFor(factory, path[0], path[1]), amounts[0]));\n        assert(IWETH(WETH).transfer(ktyWethPair, amounts[0]));\n        _swap(amounts, path, to);\n    }\n    function swapTokensForExactETH(uint amountOut, uint amountInMax, address[] calldata path, address to, uint deadline)\n        external\n        ensure(deadline)\n        returns (uint[] memory amounts)\n    {\n        require(path[path.length - 1] == WETH, 'UniswapV2Router: INVALID_PATH');\n        amounts = UniswapV2Library.getAmountsIn(factory, amountOut, path);\n        require(amounts[0] <= amountInMax, 'UniswapV2Router: EXCESSIVE_INPUT_AMOUNT');\n        //TransferHelper.safeTransferFrom(path[0], msg.sender, UniswapV2Library.pairFor(factory, path[0], path[1]), amounts[0]);\n        TransferHelper.safeTransferFrom(path[0], msg.sender, ktyWethPair, amounts[0]);\n        _swap(amounts, path, address(this));\n        IWETH(WETH).withdraw(amounts[amounts.length - 1]);\n        TransferHelper.safeTransferETH(to, amounts[amounts.length - 1]);\n    }\n    function swapExactTokensForETH(uint amountIn, uint amountOutMin, address[] calldata path, address to, uint deadline)\n        external\n        ensure(deadline)\n        returns (uint[] memory amounts)\n    {\n        require(path[path.length - 1] == WETH, 'UniswapV2Router: INVALID_PATH');\n        amounts = UniswapV2Library.getAmountsOut(factory, amountIn, path);\n        require(amounts[amounts.length - 1] >= amountOutMin, 'UniswapV2Router: INSUFFICIENT_OUTPUT_AMOUNT');\n        TransferHelper.safeTransferFrom(path[0], msg.sender, UniswapV2Library.pairFor(factory, path[0], path[1]), amounts[0]);\n        _swap(amounts, path, address(this));\n        IWETH(WETH).withdraw(amounts[amounts.length - 1]);\n        TransferHelper.safeTransferETH(to, amounts[amounts.length - 1]);\n    }\n    function swapETHForExactTokens(uint amountOut, address[] calldata path, address to, uint deadline)\n        external\n        payable\n        ensure(deadline)\n        returns (uint[] memory amounts)\n    {\n        require(path[0] == WETH, 'UniswapV2Router: INVALID_PATH');\n        amounts = UniswapV2Library.getAmountsIn(factory, amountOut, path);\n        require(amounts[0] <= msg.value, 'UniswapV2Router: EXCESSIVE_INPUT_AMOUNT');\n        IWETH(WETH).deposit.value(amounts[0])();\n        assert(IWETH(WETH).transfer(UniswapV2Library.pairFor(factory, path[0], path[1]), amounts[0]));\n        _swap(amounts, path, to);\n        if (msg.value > amounts[0]) TransferHelper.safeTransferETH(msg.sender, msg.value - amounts[0]); // refund dust eth, if any\n    }\n\n    function quote(uint amountA, uint reserveA, uint reserveB) public pure returns (uint amountB) {\n        return UniswapV2Library.quote(amountA, reserveA, reserveB);\n    }\n\n    function getAmountOut(uint amountIn, uint reserveIn, uint reserveOut) public pure returns (uint amountOut) {\n        return UniswapV2Library.getAmountOut(amountIn, reserveIn, reserveOut);\n    }\n\n    function getAmountIn(uint amountOut, uint reserveIn, uint reserveOut) public pure returns (uint amountIn) {\n        return UniswapV2Library.getAmountOut(amountOut, reserveIn, reserveOut);\n    }\n\n    function getAmountsOut(address _pair, uint amountIn, address[] memory path) public view returns (uint[] memory amounts) {\n        return UniswapV2Library.getAmountsOut(_pair, amountIn, path);\n    }\n\n    function getAmountsIn(uint amountOut, address[] memory path) public view returns (uint[] memory amounts) {\n        return UniswapV2Library.getAmountsIn(factory, amountOut, path);\n    }\n}\n",
  "sourcePath": "/Users/ziweizhang/Desktop/multi-sig/contracts/contracts/uniswapKTY/uniswap-v2-periphery/UniswapV2Router01.sol",
  "compiler": {
    "name": "solc",
    "version": "0.5.17+commit.d19bba13.Emscripten.clang"
  },
  "schemaVersion": "3.0.23",
  "updatedAt": "2020-07-17T21:40:02.752Z",
  "devdoc": {
    "methods": {}
  },
  "userdoc": {
    "methods": {}
  }
}