{
  "contractName": "WithdrawPool",
  "abi": [
    {
      "anonymous": false,
      "inputs": [
        {
          "indexed": true,
          "internalType": "uint256",
          "name": "pool_id",
          "type": "uint256"
        },
        {
          "indexed": false,
          "internalType": "uint256",
          "name": "amountETH",
          "type": "uint256"
        }
      ],
      "name": "AddETHtoPool",
      "type": "event"
    },
    {
      "anonymous": false,
      "inputs": [
        {
          "indexed": true,
          "internalType": "uint256",
          "name": "pool_id",
          "type": "uint256"
        },
        {
          "indexed": false,
          "internalType": "uint256",
          "name": "numberOfStakersEligible",
          "type": "uint256"
        },
        {
          "indexed": false,
          "internalType": "uint256",
          "name": "checkingTime",
          "type": "uint256"
        }
      ],
      "name": "CheckStakersEligibility",
      "type": "event"
    },
    {
      "anonymous": false,
      "inputs": [
        {
          "indexed": true,
          "internalType": "uint256",
          "name": "pool_id",
          "type": "uint256"
        },
        {
          "indexed": true,
          "internalType": "address",
          "name": "account",
          "type": "address"
        },
        {
          "indexed": false,
          "internalType": "uint256",
          "name": "yield",
          "type": "uint256"
        }
      ],
      "name": "ClaimYield",
      "type": "event"
    },
    {
      "anonymous": false,
      "inputs": [
        {
          "indexed": true,
          "internalType": "uint256",
          "name": "_pool_id",
          "type": "uint256"
        },
        {
          "indexed": false,
          "internalType": "uint256",
          "name": "_gamingDelay",
          "type": "uint256"
        },
        {
          "indexed": false,
          "internalType": "uint256",
          "name": "newAvailableTimeForClaiming",
          "type": "uint256"
        }
      ],
      "name": "GamingDelayAddedtoPool",
      "type": "event"
    },
    {
      "anonymous": false,
      "inputs": [
        {
          "indexed": true,
          "internalType": "uint256",
          "name": "newPoolId",
          "type": "uint256"
        },
        {
          "indexed": false,
          "internalType": "uint256",
          "name": "newPoolCreationTime",
          "type": "uint256"
        }
      ],
      "name": "NewPoolCreated",
      "type": "event"
    },
    {
      "anonymous": false,
      "inputs": [
        {
          "indexed": false,
          "internalType": "uint256",
          "name": "pool_id",
          "type": "uint256"
        },
        {
          "indexed": false,
          "internalType": "uint256",
          "name": "createTime",
          "type": "uint256"
        }
      ],
      "name": "Pool0Set",
      "type": "event"
    },
    {
      "anonymous": false,
      "inputs": [
        {
          "indexed": true,
          "internalType": "uint256",
          "name": "pool_id",
          "type": "uint256"
        },
        {
          "indexed": false,
          "internalType": "uint256",
          "name": "dissolveTime",
          "type": "uint256"
        }
      ],
      "name": "PoolDissolved",
      "type": "event"
    },
    {
      "anonymous": false,
      "inputs": [
        {
          "indexed": true,
          "internalType": "uint256",
          "name": "pool_id",
          "type": "uint256"
        },
        {
          "indexed": false,
          "internalType": "uint256",
          "name": "ETHAvailableInPool",
          "type": "uint256"
        },
        {
          "indexed": false,
          "internalType": "uint256",
          "name": "stakersClaimedForPool",
          "type": "uint256"
        },
        {
          "indexed": false,
          "internalType": "uint256",
          "name": "totalEthPaidOut",
          "type": "uint256"
        }
      ],
      "name": "PoolUpdated",
      "type": "event"
    },
    {
      "anonymous": false,
      "inputs": [
        {
          "indexed": true,
          "internalType": "uint256",
          "name": "pool_id",
          "type": "uint256"
        },
        {
          "indexed": false,
          "internalType": "uint256",
          "name": "unclaimedETH",
          "type": "uint256"
        },
        {
          "indexed": false,
          "internalType": "address",
          "name": "receiver",
          "type": "address"
        }
      ],
      "name": "ReturnUnclaimedETHtoEscrow",
      "type": "event"
    },
    {
      "constant": true,
      "inputs": [],
      "name": "earningsTracker",
      "outputs": [
        {
          "internalType": "contract EarningsTracker",
          "name": "",
          "type": "address"
        }
      ],
      "payable": false,
      "stateMutability": "view",
      "type": "function"
    },
    {
      "constant": true,
      "inputs": [],
      "name": "endowmentDB",
      "outputs": [
        {
          "internalType": "contract EndowmentDB",
          "name": "",
          "type": "address"
        }
      ],
      "payable": false,
      "stateMutability": "view",
      "type": "function"
    },
    {
      "constant": true,
      "inputs": [],
      "name": "endowmentFund",
      "outputs": [
        {
          "internalType": "contract EndowmentFund",
          "name": "",
          "type": "address"
        }
      ],
      "payable": false,
      "stateMutability": "view",
      "type": "function"
    },
    {
      "constant": true,
      "inputs": [],
      "name": "owner",
      "outputs": [
        {
          "internalType": "address payable",
          "name": "",
          "type": "address"
        }
      ],
      "payable": false,
      "stateMutability": "view",
      "type": "function"
    },
    {
      "constant": true,
      "inputs": [],
      "name": "proxy",
      "outputs": [
        {
          "internalType": "contract ProxyBase",
          "name": "",
          "type": "address"
        }
      ],
      "payable": false,
      "stateMutability": "view",
      "type": "function"
    },
    {
      "constant": false,
      "inputs": [
        {
          "internalType": "contract ProxyBase",
          "name": "_proxy",
          "type": "address"
        }
      ],
      "name": "setProxy",
      "outputs": [],
      "payable": false,
      "stateMutability": "nonpayable",
      "type": "function"
    },
    {
      "constant": true,
      "inputs": [],
      "name": "staking",
      "outputs": [
        {
          "internalType": "contract IStaking",
          "name": "",
          "type": "address"
        }
      ],
      "payable": false,
      "stateMutability": "view",
      "type": "function"
    },
    {
      "constant": true,
      "inputs": [],
      "name": "superDaoToken",
      "outputs": [
        {
          "internalType": "contract ERC20Standard",
          "name": "",
          "type": "address"
        }
      ],
      "payable": false,
      "stateMutability": "view",
      "type": "function"
    },
    {
      "constant": true,
      "inputs": [],
      "name": "timeFrame",
      "outputs": [
        {
          "internalType": "contract TimeFrame",
          "name": "",
          "type": "address"
        }
      ],
      "payable": false,
      "stateMutability": "view",
      "type": "function"
    },
    {
      "constant": false,
      "inputs": [
        {
          "internalType": "address payable",
          "name": "newOwner",
          "type": "address"
        }
      ],
      "name": "transferOwnership",
      "outputs": [],
      "payable": false,
      "stateMutability": "nonpayable",
      "type": "function"
    },
    {
      "constant": true,
      "inputs": [
        {
          "internalType": "uint256",
          "name": "",
          "type": "uint256"
        }
      ],
      "name": "weeklyPools",
      "outputs": [
        {
          "internalType": "uint256",
          "name": "epochID",
          "type": "uint256"
        },
        {
          "internalType": "uint256",
          "name": "blockNumber",
          "type": "uint256"
        },
        {
          "internalType": "uint256",
          "name": "initialETHAvailable",
          "type": "uint256"
        },
        {
          "internalType": "uint256",
          "name": "ETHAvailable",
          "type": "uint256"
        },
        {
          "internalType": "uint256",
          "name": "dateAvailable",
          "type": "uint256"
        },
        {
          "internalType": "bool",
          "name": "initialETHadded",
          "type": "bool"
        },
        {
          "internalType": "bool",
          "name": "unlocked",
          "type": "bool"
        },
        {
          "internalType": "bool",
          "name": "dissolved",
          "type": "bool"
        },
        {
          "internalType": "uint256",
          "name": "dateDissolved",
          "type": "uint256"
        },
        {
          "internalType": "uint256",
          "name": "stakersClaimed",
          "type": "uint256"
        }
      ],
      "payable": false,
      "stateMutability": "view",
      "type": "function"
    },
    {
      "constant": false,
      "inputs": [
        {
          "internalType": "address",
          "name": "_stakingContract",
          "type": "address"
        },
        {
          "internalType": "address",
          "name": "_superDaoToken",
          "type": "address"
        }
      ],
      "name": "initialize",
      "outputs": [],
      "payable": false,
      "stateMutability": "nonpayable",
      "type": "function"
    },
    {
      "constant": false,
      "inputs": [
        {
          "internalType": "uint256",
          "name": "pool_id",
          "type": "uint256"
        }
      ],
      "name": "claimYield",
      "outputs": [
        {
          "internalType": "bool",
          "name": "",
          "type": "bool"
        }
      ],
      "payable": false,
      "stateMutability": "nonpayable",
      "type": "function"
    },
    {
      "constant": true,
      "inputs": [
        {
          "internalType": "address",
          "name": "staker",
          "type": "address"
        },
        {
          "internalType": "uint256",
          "name": "pool_id",
          "type": "uint256"
        }
      ],
      "name": "checkYield",
      "outputs": [
        {
          "internalType": "uint256",
          "name": "",
          "type": "uint256"
        }
      ],
      "payable": false,
      "stateMutability": "view",
      "type": "function"
    },
    {
      "constant": false,
      "inputs": [],
      "name": "setPool_0",
      "outputs": [],
      "payable": false,
      "stateMutability": "nonpayable",
      "type": "function"
    },
    {
      "constant": false,
      "inputs": [
        {
          "internalType": "uint256",
          "name": "pool_id",
          "type": "uint256"
        },
        {
          "internalType": "uint256",
          "name": "gamingDelay",
          "type": "uint256"
        }
      ],
      "name": "addGamingDelayToPool",
      "outputs": [],
      "payable": false,
      "stateMutability": "nonpayable",
      "type": "function"
    },
    {
      "constant": false,
      "inputs": [
        {
          "internalType": "uint256",
          "name": "pool_id",
          "type": "uint256"
        },
        {
          "internalType": "uint256",
          "name": "total",
          "type": "uint256"
        }
      ],
      "name": "setInterestToEarningsTracker",
      "outputs": [],
      "payable": false,
      "stateMutability": "nonpayable",
      "type": "function"
    },
    {
      "constant": false,
      "inputs": [
        {
          "internalType": "address",
          "name": "_stakingContract",
          "type": "address"
        }
      ],
      "name": "setStakingContract",
      "outputs": [],
      "payable": false,
      "stateMutability": "nonpayable",
      "type": "function"
    },
    {
      "constant": false,
      "inputs": [],
      "name": "terminateEpochAndPoolManually",
      "outputs": [],
      "payable": false,
      "stateMutability": "nonpayable",
      "type": "function"
    },
    {
      "constant": false,
      "inputs": [],
      "name": "setNewEpochAndPoolManually",
      "outputs": [],
      "payable": false,
      "stateMutability": "nonpayable",
      "type": "function"
    },
    {
      "constant": true,
      "inputs": [],
      "name": "getEthPaidOut",
      "outputs": [
        {
          "internalType": "uint256",
          "name": "",
          "type": "uint256"
        }
      ],
      "payable": false,
      "stateMutability": "view",
      "type": "function"
    },
    {
      "constant": true,
      "inputs": [],
      "name": "getTotalNumberOfPools",
      "outputs": [
        {
          "internalType": "uint256",
          "name": "",
          "type": "uint256"
        }
      ],
      "payable": false,
      "stateMutability": "view",
      "type": "function"
    },
    {
      "constant": true,
      "inputs": [],
      "name": "getNumberOfDissolvedPools",
      "outputs": [
        {
          "internalType": "uint256",
          "name": "",
          "type": "uint256"
        }
      ],
      "payable": false,
      "stateMutability": "view",
      "type": "function"
    },
    {
      "constant": true,
      "inputs": [],
      "name": "getNumberOfOpenPools",
      "outputs": [
        {
          "internalType": "uint256",
          "name": "",
          "type": "uint256"
        }
      ],
      "payable": false,
      "stateMutability": "view",
      "type": "function"
    },
    {
      "constant": true,
      "inputs": [],
      "name": "getNumberOfTotalStakers",
      "outputs": [
        {
          "internalType": "uint256",
          "name": "",
          "type": "uint256"
        }
      ],
      "payable": false,
      "stateMutability": "view",
      "type": "function"
    },
    {
      "constant": true,
      "inputs": [],
      "name": "getNumberOfTokensStaked",
      "outputs": [
        {
          "internalType": "uint256",
          "name": "",
          "type": "uint256"
        }
      ],
      "payable": false,
      "stateMutability": "view",
      "type": "function"
    },
    {
      "constant": true,
      "inputs": [
        {
          "internalType": "address",
          "name": "account",
          "type": "address"
        }
      ],
      "name": "getPercentageSuperDao",
      "outputs": [
        {
          "internalType": "uint256",
          "name": "",
          "type": "uint256"
        }
      ],
      "payable": false,
      "stateMutability": "view",
      "type": "function"
    },
    {
      "constant": true,
      "inputs": [],
      "name": "getActivePoolID",
      "outputs": [
        {
          "internalType": "uint256",
          "name": "",
          "type": "uint256"
        }
      ],
      "payable": false,
      "stateMutability": "view",
      "type": "function"
    },
    {
      "constant": true,
      "inputs": [
        {
          "internalType": "uint256",
          "name": "_poolID",
          "type": "uint256"
        }
      ],
      "name": "getInitialETH",
      "outputs": [
        {
          "internalType": "uint256",
          "name": "",
          "type": "uint256"
        }
      ],
      "payable": false,
      "stateMutability": "view",
      "type": "function"
    },
    {
      "constant": true,
      "inputs": [
        {
          "internalType": "uint256",
          "name": "_poolID",
          "type": "uint256"
        }
      ],
      "name": "getAllClaimersForPool",
      "outputs": [
        {
          "internalType": "address[]",
          "name": "",
          "type": "address[]"
        }
      ],
      "payable": false,
      "stateMutability": "view",
      "type": "function"
    },
    {
      "constant": true,
      "inputs": [],
      "name": "timeUntilClaiming",
      "outputs": [
        {
          "internalType": "uint256",
          "name": "",
          "type": "uint256"
        }
      ],
      "payable": false,
      "stateMutability": "view",
      "type": "function"
    },
    {
      "constant": true,
      "inputs": [],
      "name": "timeUntilPoolDissolve",
      "outputs": [
        {
          "internalType": "uint256",
          "name": "",
          "type": "uint256"
        }
      ],
      "payable": false,
      "stateMutability": "view",
      "type": "function"
    },
    {
      "constant": false,
      "inputs": [],
      "name": "dissolveOldCreateNew",
      "outputs": [],
      "payable": false,
      "stateMutability": "nonpayable",
      "type": "function"
    }
  ],
  "bytecode": "0x6080604052336000806101000a81548173ffffffffffffffffffffffffffffffffffffffff021916908373ffffffffffffffffffffffffffffffffffffffff16021790555061436d806100536000396000f3fe608060405234801561001057600080fd5b50600436106101fb5760003560e01c806397107d6d1161011a578063e28b3b03116100ad578063f08d2be91161007c578063f08d2be9146108bc578063f2fde38b146108da578063f31cf1e51461091e578063f561f3791461093c578063fc16a4961461095a576101fb565b8063e28b3b031461074b578063e4bd524d146107ad578063ea00abdd146107ef578063ec55688914610872576101fb565b8063b409575f116100e9578063b409575f14610681578063bed62e8a1461069f578063d13cab52146106f7578063d8717bc714610701576101fb565b806397107d6d146105a35780639dd373b9146105e7578063a7d2c3541461062b578063b225dfc314610663576101fb565b80634cf088d91161019257806372258d871161016157806372258d87146104e7578063891ed018146105055780638b13b64b1461050f5780638da5cb5b14610559576101fb565b80634cf088d91461037c5780635b48f256146103c65780635d06fc011461045357806369af70b31461049d576101fb565b806337f6d124116101ce57806337f6d1241461027e57806340bd2e23146102c8578063449d8a7e1461030e578063485cc95514610318576101fb565b806301b9f103146102005780632840d0391461021e5780632e964e7e1461023c57806333d8cd8e14610274575b600080fd5b610208610978565b6040518082815260200191505060405180910390f35b610226610982565b6040518082815260200191505060405180910390f35b6102726004803603604081101561025257600080fd5b81019080803590602001909291908035906020019092919050505061098c565b005b61027c610c76565b005b6102866110f1565b604051808273ffffffffffffffffffffffffffffffffffffffff1673ffffffffffffffffffffffffffffffffffffffff16815260200191505060405180910390f35b6102f4600480360360208110156102de57600080fd5b8101908080359060200190929190505050611117565b604051808215151515815260200191505060405180910390f35b61031661169c565b005b61037a6004803603604081101561032e57600080fd5b81019080803573ffffffffffffffffffffffffffffffffffffffff169060200190929190803573ffffffffffffffffffffffffffffffffffffffff16906020019092919050505061180f565b005b610384611f0b565b604051808273ffffffffffffffffffffffffffffffffffffffff1673ffffffffffffffffffffffffffffffffffffffff16815260200191505060405180910390f35b6103f2600480360360208110156103dc57600080fd5b8101908080359060200190929190505050611f31565b604051808b81526020018a81526020018981526020018881526020018781526020018615151515815260200185151515158152602001841515151581526020018381526020018281526020019a505050505050505050505060405180910390f35b61045b611fac565b604051808273ffffffffffffffffffffffffffffffffffffffff1673ffffffffffffffffffffffffffffffffffffffff16815260200191505060405180910390f35b6104a5611fd2565b604051808273ffffffffffffffffffffffffffffffffffffffff1673ffffffffffffffffffffffffffffffffffffffff16815260200191505060405180910390f35b6104ef611ff8565b6040518082815260200191505060405180910390f35b61050d6120eb565b005b61051761249c565b604051808273ffffffffffffffffffffffffffffffffffffffff1673ffffffffffffffffffffffffffffffffffffffff16815260200191505060405180910390f35b6105616124c2565b604051808273ffffffffffffffffffffffffffffffffffffffff1673ffffffffffffffffffffffffffffffffffffffff16815260200191505060405180910390f35b6105e5600480360360208110156105b957600080fd5b81019080803573ffffffffffffffffffffffffffffffffffffffff1690602001909291905050506124e7565b005b610629600480360360208110156105fd57600080fd5b81019080803573ffffffffffffffffffffffffffffffffffffffff169060200190929190505050612581565b005b6106616004803603604081101561064157600080fd5b81019080803590602001909291908035906020019092919050505061261b565b005b61066b61267e565b6040518082815260200191505060405180910390f35b610689612688565b6040518082815260200191505060405180910390f35b6106e1600480360360208110156106b557600080fd5b81019080803573ffffffffffffffffffffffffffffffffffffffff169060200190929190505050612732565b6040518082815260200191505060405180910390f35b6106ff6128f0565b005b610709612e66565b604051808273ffffffffffffffffffffffffffffffffffffffff1673ffffffffffffffffffffffffffffffffffffffff16815260200191505060405180910390f35b6107976004803603604081101561076157600080fd5b81019080803573ffffffffffffffffffffffffffffffffffffffff16906020019092919080359060200190929190505050612e8c565b6040518082815260200191505060405180910390f35b6107d9600480360360208110156107c357600080fd5b810190808035906020019092919050505061305d565b6040518082815260200191505060405180910390f35b61081b6004803603602081101561080557600080fd5b810190808035906020019092919050505061307d565b6040518080602001828103825283818151815260200191508051906020019060200280838360005b8381101561085e578082015181840152602081019050610843565b505050509050019250505060405180910390f35b61087a613121565b604051808273ffffffffffffffffffffffffffffffffffffffff1673ffffffffffffffffffffffffffffffffffffffff16815260200191505060405180910390f35b6108c4613147565b6040518082815260200191505060405180910390f35b61091c600480360360208110156108f057600080fd5b81019080803573ffffffffffffffffffffffffffffffffffffffff169060200190929190505050613164565b005b610926613232565b6040518082815260200191505060405180910390f35b61094461323c565b6040518082815260200191505060405180910390f35b610962613246565b6040518082815260200191505060405180910390f35b6000600c54905090565b6000600b54905090565b6040518060400160405280600981526020017f47616d6553746f726500000000000000000000000000000000000000000000008152506109cb8161329c565b6001600e600085815260200190815260200160002060050160016101000a81548160ff0219169083151502179055506000600e600085815260200190815260200160002060040154421115610b4657610a43600e6000868152602001908152602001600020600401544261353790919063ffffffff16565b905042600e600086815260200190815260200160002060040181905550610b2b600460009054906101000a900473ffffffffffffffffffffffffffffffffffffffff1673ffffffffffffffffffffffffffffffffffffffff1663504a38dd6040518163ffffffff1660e01b815260040160206040518083038186803b158015610acb57600080fd5b505afa158015610adf573d6000803e3d6000fd5b505050506040513d6020811015610af557600080fd5b8101908080519060200190929190505050600e60008781526020019081526020016000206004015461354e90919063ffffffff16565b600e6000868152602001908152602001600020600601819055505b600460009054906101000a900473ffffffffffffffffffffffffffffffffffffffff1673ffffffffffffffffffffffffffffffffffffffff1663ada3da0585836040518363ffffffff1660e01b81526004018083815260200182815260200192505050600060405180830381600087803b158015610bc357600080fd5b505af1158015610bd7573d6000803e3d6000fd5b50505050600760009054906101000a900473ffffffffffffffffffffffffffffffffffffffff1673ffffffffffffffffffffffffffffffffffffffff166343201b7185856040518363ffffffff1660e01b81526004018083815260200182815260200192505050600060405180830381600087803b158015610c5857600080fd5b505af1158015610c6c573d6000803e3d6000fd5b5050505050505050565b6040518060400160405280600981526020017f47616d6553746f72650000000000000000000000000000000000000000000000815250610cb58161329c565b6000610ccd6001600a5461353790919063ffffffff16565b90506001600e600083815260200190815260200160002060050160026101000a81548160ff021916908315150217905550610d146001600b5461354e90919063ffffffff16565b600b819055506000610d3060018361354e90919063ffffffff16565b905080600e60008381526020019081526020016000206000018190555043600e600083815260200190815260200160002060010181905550610e1d600460009054906101000a900473ffffffffffffffffffffffffffffffffffffffff1673ffffffffffffffffffffffffffffffffffffffff1663337122426040518163ffffffff1660e01b815260040160206040518083038186803b158015610dd357600080fd5b505afa158015610de7573d6000803e3d6000fd5b505050506040513d6020811015610dfd57600080fd5b81019080805190602001909291905050504261354e90919063ffffffff16565b600e600083815260200190815260200160002060040181905550610f02600460009054906101000a900473ffffffffffffffffffffffffffffffffffffffff1673ffffffffffffffffffffffffffffffffffffffff1663504a38dd6040518163ffffffff1660e01b815260040160206040518083038186803b158015610ea257600080fd5b505afa158015610eb6573d6000803e3d6000fd5b505050506040513d6020811015610ecc57600080fd5b8101908080519060200190929190505050600e60008481526020019081526020016000206004015461354e90919063ffffffff16565b600e600083815260200190815260200160002060060181905550600760009054906101000a900473ffffffffffffffffffffffffffffffffffffffff1673ffffffffffffffffffffffffffffffffffffffff16631fab5af782600560009054906101000a900473ffffffffffffffffffffffffffffffffffffffff1673ffffffffffffffffffffffffffffffffffffffff1663b0e2ac8c856040518263ffffffff1660e01b815260040180828152602001915050602060405180830381600087803b158015610fd057600080fd5b505af1158015610fe4573d6000803e3d6000fd5b505050506040513d6020811015610ffa57600080fd5b81019080805190602001909291905050506040518363ffffffff1660e01b81526004018083815260200182815260200192505050600060405180830381600087803b15801561104857600080fd5b505af115801561105c573d6000803e3d6000fd5b505050506110766001600a5461354e90919063ffffffff16565b600a81905550817f886fe93e7903b81993e720f87f666d97e0152d2b06aaee257169f8aa47173647426040518082815260200191505060405180910390a2807f9b8e7ac98026c000e0574fa64945d9dc5d9a4ba9eca62130cbb1b51661f068b9426040518082815260200191505060405180910390a2505050565b600760009054906101000a900473ffffffffffffffffffffffffffffffffffffffff1681565b600042600e6000848152602001908152602001600020600401541115611188576040517f08c379a000000000000000000000000000000000000000000000000000000000815260040180806020018281038252602b8152602001806142b6602b913960400191505060405180910390fd5b60011515600e600084815260200190815260200160002060050160019054906101000a900460ff16151514611225576040517f08c379a00000000000000000000000000000000000000000000000000000000081526004018080602001828103825260138152602001807f5468697320706f6f6c206973206c6f636b65640000000000000000000000000081525060200191505060405180910390fd5b60001515600e600084815260200190815260200160002060050160029054906101000a900460ff161515146112c2576040517f08c379a000000000000000000000000000000000000000000000000000000000815260040180806020018281038252601e8152602001807f5468697320706f6f6c20697320616c726561647920646973736f6c766564000081525060200191505060405180910390fd5b6000600260009054906101000a900473ffffffffffffffffffffffffffffffffffffffff1673ffffffffffffffffffffffffffffffffffffffff1663233b7451336040518263ffffffff1660e01b8152600401808273ffffffffffffffffffffffffffffffffffffffff1673ffffffffffffffffffffffffffffffffffffffff16815260200191505060206040518083038186803b15801561136357600080fd5b505afa158015611377573d6000803e3d6000fd5b505050506040513d602081101561138d57600080fd5b81019080805190602001909291905050509050600e60008481526020019081526020016000206001015481111561140f576040517f08c379a000000000000000000000000000000000000000000000000000000000815260040180806020018281038252602b81526020018061430e602b913960400191505060405180910390fd5b60001515600f60003373ffffffffffffffffffffffffffffffffffffffff1673ffffffffffffffffffffffffffffffffffffffff168152602001908152602001600020600301600085815260200190815260200160002060009054906101000a900460ff161515146114cc576040517f08c379a000000000000000000000000000000000000000000000000000000000815260040180806020018281038252602781526020018061428f6027913960400191505060405180910390fd5b60001515600e600085815260200190815260200160002060050160009054906101000a900460ff16151514801561151957506000600e600085815260200190815260200160002060020154145b15611529576115278361356a565b505b6115343384836136c4565b60006115403385612e8c565b905061154d33858361398f565b600660009054906101000a900473ffffffffffffffffffffffffffffffffffffffff1673ffffffffffffffffffffffffffffffffffffffff1663e0d8a1943383876040518463ffffffff1660e01b8152600401808473ffffffffffffffffffffffffffffffffffffffff1673ffffffffffffffffffffffffffffffffffffffff1681526020018381526020018281526020019350505050602060405180830381600087803b1580156115fe57600080fd5b505af1158015611612573d6000803e3d6000fd5b505050506040513d602081101561162857600080fd5b810190808051906020019092919050505061164257600080fd5b3373ffffffffffffffffffffffffffffffffffffffff16847ff99904b81b2ea4aa2d94da4e75507a386275e2ae29a77e86b2376982447ebfea836040518082815260200191505060405180910390a3600192505050919050565b600073ffffffffffffffffffffffffffffffffffffffff163373ffffffffffffffffffffffffffffffffffffffff1614156116d357fe5b6117116040518060400160405280600b81526020017f73757065725f61646d696e000000000000000000000000000000000000000000815250613b26565b611783576040517f08c379a00000000000000000000000000000000000000000000000000000000081526004018080602001828103825260108152602001807f4f6e6c792073757065722061646d696e0000000000000000000000000000000081525060200191505060405180910390fd5b600460009054906101000a900473ffffffffffffffffffffffffffffffffffffffff1673ffffffffffffffffffffffffffffffffffffffff16637f1b7a4b6040518163ffffffff1660e01b8152600401600060405180830381600087803b1580156117ed57600080fd5b505af1158015611801573d6000803e3d6000fd5b5050505061180d613da2565b565b6000809054906101000a900473ffffffffffffffffffffffffffffffffffffffff1673ffffffffffffffffffffffffffffffffffffffff163373ffffffffffffffffffffffffffffffffffffffff161461186557fe5b600160009054906101000a900473ffffffffffffffffffffffffffffffffffffffff1673ffffffffffffffffffffffffffffffffffffffff1663358177736040518060400160405280600981526020017f54696d654672616d6500000000000000000000000000000000000000000000008152506040518263ffffffff1660e01b81526004018080602001828103825283818151815260200191508051906020019080838360005b8381101561192857808201518184015260208101905061190d565b50505050905090810190601f1680156119555780820380516001836020036101000a031916815260200191505b509250505060206040518083038186803b15801561197257600080fd5b505afa158015611986573d6000803e3d6000fd5b505050506040513d602081101561199c57600080fd5b8101908080519060200190929190505050600460006101000a81548173ffffffffffffffffffffffffffffffffffffffff021916908373ffffffffffffffffffffffffffffffffffffffff16021790555081600260006101000a81548173ffffffffffffffffffffffffffffffffffffffff021916908373ffffffffffffffffffffffffffffffffffffffff160217905550600160009054906101000a900473ffffffffffffffffffffffffffffffffffffffff1673ffffffffffffffffffffffffffffffffffffffff1663358177736040518060400160405280600d81526020017f456e646f776d656e7446756e64000000000000000000000000000000000000008152506040518263ffffffff1660e01b81526004018080602001828103825283818151815260200191508051906020019080838360005b83811015611af1578082015181840152602081019050611ad6565b50505050905090810190601f168015611b1e5780820380516001836020036101000a031916815260200191505b509250505060206040518083038186803b158015611b3b57600080fd5b505afa158015611b4f573d6000803e3d6000fd5b505050506040513d6020811015611b6557600080fd5b8101908080519060200190929190505050600660006101000a81548173ffffffffffffffffffffffffffffffffffffffff021916908373ffffffffffffffffffffffffffffffffffffffff16021790555080600360006101000a81548173ffffffffffffffffffffffffffffffffffffffff021916908373ffffffffffffffffffffffffffffffffffffffff160217905550600160009054906101000a900473ffffffffffffffffffffffffffffffffffffffff1673ffffffffffffffffffffffffffffffffffffffff1663358177736040518060400160405280600b81526020017f456e646f776d656e7444420000000000000000000000000000000000000000008152506040518263ffffffff1660e01b81526004018080602001828103825283818151815260200191508051906020019080838360005b83811015611cba578082015181840152602081019050611c9f565b50505050905090810190601f168015611ce75780820380516001836020036101000a031916815260200191505b509250505060206040518083038186803b158015611d0457600080fd5b505afa158015611d18573d6000803e3d6000fd5b505050506040513d6020811015611d2e57600080fd5b8101908080519060200190929190505050600560006101000a81548173ffffffffffffffffffffffffffffffffffffffff021916908373ffffffffffffffffffffffffffffffffffffffff160217905550600160009054906101000a900473ffffffffffffffffffffffffffffffffffffffff1673ffffffffffffffffffffffffffffffffffffffff1663358177736040518060400160405280600f81526020017f4561726e696e6773547261636b657200000000000000000000000000000000008152506040518263ffffffff1660e01b81526004018080602001828103825283818151815260200191508051906020019080838360005b83811015611e42578082015181840152602081019050611e27565b50505050905090810190601f168015611e6f5780820380516001836020036101000a031916815260200191505b509250505060206040518083038186803b158015611e8c57600080fd5b505afa158015611ea0573d6000803e3d6000fd5b505050506040513d6020811015611eb657600080fd5b8101908080519060200190929190505050600760006101000a81548173ffffffffffffffffffffffffffffffffffffffff021916908373ffffffffffffffffffffffffffffffffffffffff1602179055505050565b600260009054906101000a900473ffffffffffffffffffffffffffffffffffffffff1681565b600e6020528060005260406000206000915090508060000154908060010154908060020154908060030154908060040154908060050160009054906101000a900460ff16908060050160019054906101000a900460ff16908060050160029054906101000a900460ff1690806006015490806007015490508a565b600560009054906101000a900473ffffffffffffffffffffffffffffffffffffffff1681565b600660009054906101000a900473ffffffffffffffffffffffffffffffffffffffff1681565b600080612003613147565b905060001515600e600083815260200190815260200160002060050160029054906101000a900460ff161515146120a2576040517f08c379a00000000000000000000000000000000000000000000000000000000081526004018080602001828103825260168152602001807f506f6f6c20616c726561647920646973736f6c7665640000000000000000000081525060200191505060405180910390fd5b6000600e6000838152602001908152602001600020600401549050428111156120e1576120d8428261353790919063ffffffff16565b925050506120e8565b6000925050505b90565b600073ffffffffffffffffffffffffffffffffffffffff163373ffffffffffffffffffffffffffffffffffffffff16141561212257fe5b6121606040518060400160405280600b81526020017f73757065725f61646d696e000000000000000000000000000000000000000000815250613b26565b6121d2576040517f08c379a00000000000000000000000000000000000000000000000000000000081526004018080602001828103825260108152602001807f4f6e6c792073757065722061646d696e0000000000000000000000000000000081525060200191505060405180910390fd5b600460009054906101000a900473ffffffffffffffffffffffffffffffffffffffff1673ffffffffffffffffffffffffffffffffffffffff16638893360a6040518163ffffffff1660e01b8152600401600060405180830381600087803b15801561223c57600080fd5b505af1158015612250573d6000803e3d6000fd5b505050506000600a54905080600e60008381526020019081526020016000206000018190555043600e600083815260200190815260200160002060010181905550612346600460009054906101000a900473ffffffffffffffffffffffffffffffffffffffff1673ffffffffffffffffffffffffffffffffffffffff1663337122426040518163ffffffff1660e01b815260040160206040518083038186803b1580156122fc57600080fd5b505afa158015612310573d6000803e3d6000fd5b505050506040513d602081101561232657600080fd5b81019080805190602001909291905050504261354e90919063ffffffff16565b600e60008381526020019081526020016000206004018190555061242b600460009054906101000a900473ffffffffffffffffffffffffffffffffffffffff1673ffffffffffffffffffffffffffffffffffffffff1663504a38dd6040518163ffffffff1660e01b815260040160206040518083038186803b1580156123cb57600080fd5b505afa1580156123df573d6000803e3d6000fd5b505050506040513d60208110156123f557600080fd5b8101908080519060200190929190505050600e60008481526020019081526020016000206004015461354e90919063ffffffff16565b600e60008381526020019081526020016000206006018190555061245b6001600a5461354e90919063ffffffff16565b600a81905550807f9b8e7ac98026c000e0574fa64945d9dc5d9a4ba9eca62130cbb1b51661f068b9426040518082815260200191505060405180910390a250565b600460009054906101000a900473ffffffffffffffffffffffffffffffffffffffff1681565b6000809054906101000a900473ffffffffffffffffffffffffffffffffffffffff1681565b6000809054906101000a900473ffffffffffffffffffffffffffffffffffffffff1673ffffffffffffffffffffffffffffffffffffffff163373ffffffffffffffffffffffffffffffffffffffff161461253d57fe5b80600160006101000a81548173ffffffffffffffffffffffffffffffffffffffff021916908373ffffffffffffffffffffffffffffffffffffffff16021790555050565b6000809054906101000a900473ffffffffffffffffffffffffffffffffffffffff1673ffffffffffffffffffffffffffffffffffffffff163373ffffffffffffffffffffffffffffffffffffffff16146125d757fe5b80600260006101000a81548173ffffffffffffffffffffffffffffffffffffffff021916908373ffffffffffffffffffffffffffffffffffffffff16021790555050565b81612624613147565b811461262f57600080fd5b6040518060400160405280600b81526020017f47616d654d616e6167657200000000000000000000000000000000000000000081525061266e8161329c565b6126788484613f01565b50505050565b6000600954905090565b6000600260009054906101000a900473ffffffffffffffffffffffffffffffffffffffff1673ffffffffffffffffffffffffffffffffffffffff1663817b1cd26040518163ffffffff1660e01b815260040160206040518083038186803b1580156126f257600080fd5b505afa158015612706573d6000803e3d6000fd5b505050506040513d602081101561271c57600080fd5b8101908080519060200190929190505050905090565b600080600360009054906101000a900473ffffffffffffffffffffffffffffffffffffffff1673ffffffffffffffffffffffffffffffffffffffff166318160ddd6040518163ffffffff1660e01b815260040160206040518083038186803b15801561279d57600080fd5b505afa1580156127b1573d6000803e3d6000fd5b505050506040513d60208110156127c757600080fd5b810190808051906020019092919050505090506000600260009054906101000a900473ffffffffffffffffffffffffffffffffffffffff1673ffffffffffffffffffffffffffffffffffffffff16634b341aed856040518263ffffffff1660e01b8152600401808273ffffffffffffffffffffffffffffffffffffffff1673ffffffffffffffffffffffffffffffffffffffff16815260200191505060206040518083038186803b15801561287b57600080fd5b505afa15801561288f573d6000803e3d6000fd5b505050506040513d60208110156128a557600080fd5b8101908080519060200190929190505050905060006128e3836128d5633b9aca008561403a90919063ffffffff16565b61407190919063ffffffff16565b9050809350505050919050565b6000809054906101000a900473ffffffffffffffffffffffffffffffffffffffff1673ffffffffffffffffffffffffffffffffffffffff163373ffffffffffffffffffffffffffffffffffffffff161461294657fe5b6000600a54146129be576040517f08c379a00000000000000000000000000000000000000000000000000000000081526004018080602001828103825260158152602001807f506f6f6c203020616c726561647920657869737473000000000000000000000081525060200191505060405180910390fd5b600460009054906101000a900473ffffffffffffffffffffffffffffffffffffffff1673ffffffffffffffffffffffffffffffffffffffff166374716b4c6040518163ffffffff1660e01b8152600401600060405180830381600087803b158015612a2857600080fd5b505af1158015612a3c573d6000803e3d6000fd5b505050506000429050612a4d61413f565b600081600001818152505043816020018181525050612b17600460009054906101000a900473ffffffffffffffffffffffffffffffffffffffff1673ffffffffffffffffffffffffffffffffffffffff1663337122426040518163ffffffff1660e01b815260040160206040518083038186803b158015612acd57600080fd5b505afa158015612ae1573d6000803e3d6000fd5b505050506040513d6020811015612af757600080fd5b81019080805190602001909291905050508361354e90919063ffffffff16565b816080018181525050612bd9600460009054906101000a900473ffffffffffffffffffffffffffffffffffffffff1673ffffffffffffffffffffffffffffffffffffffff1663504a38dd6040518163ffffffff1660e01b815260040160206040518083038186803b158015612b8b57600080fd5b505afa158015612b9f573d6000803e3d6000fd5b505050506040513d6020811015612bb557600080fd5b8101908080519060200190929190505050826080015161354e90919063ffffffff16565b8161010001818152505080600e6000808152602001908152602001600020600082015181600001556020820151816001015560408201518160020155606082015181600301556080820151816004015560a08201518160050160006101000a81548160ff02191690831515021790555060c08201518160050160016101000a81548160ff02191690831515021790555060e08201518160050160026101000a81548160ff02191690831515021790555061010082015181600601556101208201518160070155610140820151816008019080519060200190612cbc92919061419f565b50905050600760009054906101000a900473ffffffffffffffffffffffffffffffffffffffff1673ffffffffffffffffffffffffffffffffffffffff16631fab5af76000600560009054906101000a900473ffffffffffffffffffffffffffffffffffffffff1673ffffffffffffffffffffffffffffffffffffffff1663b0e2ac8c60006040518263ffffffff1660e01b815260040180828152602001915050602060405180830381600087803b158015612d7657600080fd5b505af1158015612d8a573d6000803e3d6000fd5b505050506040513d6020811015612da057600080fd5b81019080805190602001909291905050506040518363ffffffff1660e01b81526004018083815260200182815260200192505050600060405180830381600087803b158015612dee57600080fd5b505af1158015612e02573d6000803e3d6000fd5b50505050612e1c6001600a5461354e90919063ffffffff16565b600a819055507fa58001537a1da0525302ba248bd1487dd10bfe9b02a43cc27d99af51f085a7f3600042604051808381526020018281526020019250505060405180910390a15050565b600360009054906101000a900473ffffffffffffffffffffffffffffffffffffffff1681565b600080600260009054906101000a900473ffffffffffffffffffffffffffffffffffffffff1673ffffffffffffffffffffffffffffffffffffffff16634b341aed856040518263ffffffff1660e01b8152600401808273ffffffffffffffffffffffffffffffffffffffff1673ffffffffffffffffffffffffffffffffffffffff16815260200191505060206040518083038186803b158015612f2e57600080fd5b505afa158015612f42573d6000803e3d6000fd5b505050506040513d6020811015612f5857600080fd5b810190808051906020019092919050505090506000600260009054906101000a900473ffffffffffffffffffffffffffffffffffffffff1673ffffffffffffffffffffffffffffffffffffffff1663817b1cd26040518163ffffffff1660e01b815260040160206040518083038186803b158015612fd557600080fd5b505afa158015612fe9573d6000803e3d6000fd5b505050506040513d6020811015612fff57600080fd5b810190808051906020019092919050505090506000600e600086815260200190815260200160002060020154905061305282613044838661403a90919063ffffffff16565b61407190919063ffffffff16565b935050505092915050565b6000600e6000838152602001908152602001600020600201549050919050565b6060600e600083815260200190815260200160002060080180548060200260200160405190810160405280929190818152602001828054801561311557602002820191906000526020600020905b8160009054906101000a900473ffffffffffffffffffffffffffffffffffffffff1673ffffffffffffffffffffffffffffffffffffffff16815260200190600101908083116130cb575b50505050509050919050565b600160009054906101000a900473ffffffffffffffffffffffffffffffffffffffff1681565b600061315f6001600a5461353790919063ffffffff16565b905090565b6000809054906101000a900473ffffffffffffffffffffffffffffffffffffffff1673ffffffffffffffffffffffffffffffffffffffff163373ffffffffffffffffffffffffffffffffffffffff16146131ba57fe5b600073ffffffffffffffffffffffffffffffffffffffff168173ffffffffffffffffffffffffffffffffffffffff161461322f57806000806101000a81548173ffffffffffffffffffffffffffffffffffffffff021916908373ffffffffffffffffffffffffffffffffffffffff1602179055505b50565b6000600d54905090565b6000600a54905090565b600080613251613147565b90506000600e60008381526020019081526020016000206006015490504281111561329257613289428261353790919063ffffffff16565b92505050613299565b6000925050505b90565b600073ffffffffffffffffffffffffffffffffffffffff16600160009054906101000a900473ffffffffffffffffffffffffffffffffffffffff1673ffffffffffffffffffffffffffffffffffffffff161415613361576040517f08c379a00000000000000000000000000000000000000000000000000000000081526004018080602001828103825260088152602001807f4e6f2050726f787900000000000000000000000000000000000000000000000081525060200191505060405180910390fd5b6000600160009054906101000a900473ffffffffffffffffffffffffffffffffffffffff1673ffffffffffffffffffffffffffffffffffffffff166335817773836040518263ffffffff1660e01b81526004018080602001828103825283818151815260200191508051906020019080838360005b838110156133f15780820151818401526020810190506133d6565b50505050905090810190601f16801561341e5780820380516001836020036101000a031916815260200191505b509250505060206040518083038186803b15801561343b57600080fd5b505afa15801561344f573d6000803e3d6000fd5b505050506040513d602081101561346557600080fd5b81019080805190602001909291905050509050600073ffffffffffffffffffffffffffffffffffffffff168173ffffffffffffffffffffffffffffffffffffffff1614156134af57fe5b8073ffffffffffffffffffffffffffffffffffffffff163373ffffffffffffffffffffffffffffffffffffffff1614613533576040517f08c379a000000000000000000000000000000000000000000000000000000000815260040180806020018281038252602d8152602001806142e1602d913960400191505060405180910390fd5b5050565b60008282111561354357fe5b818303905092915050565b60008082840190508381101561356057fe5b8091505092915050565b600080600560009054906101000a900473ffffffffffffffffffffffffffffffffffffffff1673ffffffffffffffffffffffffffffffffffffffff166360dace5d846040518263ffffffff1660e01b81526004018082815260200191505060206040518083038186803b1580156135e057600080fd5b505afa1580156135f4573d6000803e3d6000fd5b505050506040513d602081101561360a57600080fd5b810190808051906020019092919050505090506001600e600085815260200190815260200160002060050160006101000a81548160ff02191690831515021790555080600e60008581526020019081526020016000206002018190555080600e600085815260200190815260200160002060030181905550827f4ca85a1571f411b18e5928bc58464e2dd49a1cad990f082ef201114b82b0bd85826040518082815260200191505060405180910390a26001915050919050565b600f60008473ffffffffffffffffffffffffffffffffffffffff1673ffffffffffffffffffffffffffffffffffffffff16815260200190815260200160002060010154600f60008573ffffffffffffffffffffffffffffffffffffffff1673ffffffffffffffffffffffffffffffffffffffff1681526020019081526020016000206000018190555080600f60008573ffffffffffffffffffffffffffffffffffffffff1673ffffffffffffffffffffffffffffffffffffffff168152602001908152602001600020600101819055506001600f60008573ffffffffffffffffffffffffffffffffffffffff1673ffffffffffffffffffffffffffffffffffffffff168152602001908152602001600020600301600084815260200190815260200160002060006101000a81548160ff0219169083151502179055506138566001600f60008673ffffffffffffffffffffffffffffffffffffffff1673ffffffffffffffffffffffffffffffffffffffff1681526020019081526020016000206004015461354e90919063ffffffff16565b600f60008573ffffffffffffffffffffffffffffffffffffffff1673ffffffffffffffffffffffffffffffffffffffff168152602001908152602001600020600401819055506000600f60008573ffffffffffffffffffffffffffffffffffffffff1673ffffffffffffffffffffffffffffffffffffffff16815260200190815260200160002060050154116138ed576000613944565b6139436001600f60008673ffffffffffffffffffffffffffffffffffffffff1673ffffffffffffffffffffffffffffffffffffffff1681526020019081526020016000206005015461353790919063ffffffff16565b5b600f60008573ffffffffffffffffffffffffffffffffffffffff1673ffffffffffffffffffffffffffffffffffffffff16815260200190815260200160002060050181905550505050565b6139b881600e60008581526020019081526020016000206003015461353790919063ffffffff16565b600e6000848152602001908152602001600020600301819055506139fc6001600e60008581526020019081526020016000206007015461354e90919063ffffffff16565b600e600084815260200190815260200160002060070181905550600e60008381526020019081526020016000206008018390806001815401808255809150509060018203906000526020600020016000909192909190916101000a81548173ffffffffffffffffffffffffffffffffffffffff021916908373ffffffffffffffffffffffffffffffffffffffff16021790555050613aa58160095461354e90919063ffffffff16565b600981905550817fb0a2ded49817748754bcca0474b24011f01d4574dd5c40e14197ffa2e6540fef600e600085815260200190815260200160002060030154600e60008681526020019081526020016000206007015460095460405180848152602001838152602001828152602001935050505060405180910390a2505050565b6000600160009054906101000a900473ffffffffffffffffffffffffffffffffffffffff1673ffffffffffffffffffffffffffffffffffffffff1663358177736040518060400160405280600681526020017f526f6c65444200000000000000000000000000000000000000000000000000008152506040518263ffffffff1660e01b81526004018080602001828103825283818151815260200191508051906020019080838360005b83811015613beb578082015181840152602081019050613bd0565b50505050905090810190601f168015613c185780820380516001836020036101000a031916815260200191505b509250505060206040518083038186803b158015613c3557600080fd5b505afa158015613c49573d6000803e3d6000fd5b505050506040513d6020811015613c5f57600080fd5b810190808051906020019092919050505073ffffffffffffffffffffffffffffffffffffffff16636c9cd09783613c9461408a565b6040518363ffffffff1660e01b815260040180806020018373ffffffffffffffffffffffffffffffffffffffff1673ffffffffffffffffffffffffffffffffffffffff168152602001828103825284818151815260200191508051906020019080838360005b83811015613d15578082015181840152602081019050613cfa565b50505050905090810190601f168015613d425780820380516001836020036101000a031916815260200191505b50935050505060206040518083038186803b158015613d6057600080fd5b505afa158015613d74573d6000803e3d6000fd5b505050506040513d6020811015613d8a57600080fd5b81019080805190602001909291905050509050919050565b6000613dac613147565b9050600e600082815260200190815260200160002060060154421115613e3a576040517f08c379a000000000000000000000000000000000000000000000000000000000815260040180806020018281038252601a8152602001807f506f6f6c2068617320616c726561647920646973736f6c76656400000000000081525060200191505060405180910390fd5b613e4e60014261353790919063ffffffff16565b600e6000838152602001908152602001600020600601819055506000600e600083815260200190815260200160002060050160016101000a81548160ff0219169083151502179055506001600e600083815260200190815260200160002060050160026101000a81548160ff021916908315150217905550807f886fe93e7903b81993e720f87f666d97e0152d2b06aaee257169f8aa47173647426040518082815260200191505060405180910390a250565b60008111613f5a576040517f08c379a000000000000000000000000000000000000000000000000000000000815260040180806020018281038252602281526020018061426d6022913960400191505060405180910390fd5b613f8381600e60008581526020019081526020016000206004015461354e90919063ffffffff16565b600e600084815260200190815260200160002060040181905550613fc681600e60008581526020019081526020016000206006015461354e90919063ffffffff16565b600e600084815260200190815260200160002060060181905550817faad844399026cc01559211c9b31985959b8791475f098b83bb8c09c791cabd0982600e600086815260200190815260200160002060040154604051808381526020018281526020019250505060405180910390a25050565b60008083141561404d576000905061406b565b600082840290508284828161405e57fe5b041461406657fe5b809150505b92915050565b60008082848161407d57fe5b0490508091505092915050565b6000600160009054906101000a900473ffffffffffffffffffffffffffffffffffffffff1673ffffffffffffffffffffffffffffffffffffffff163373ffffffffffffffffffffffffffffffffffffffff16146140e95733905061413c565b6000601436036000602052601481602c37602051915050600073ffffffffffffffffffffffffffffffffffffffff168173ffffffffffffffffffffffffffffffffffffffff16141561413757fe5b809150505b90565b60405180610160016040528060008152602001600081526020016000815260200160008152602001600081526020016000151581526020016000151581526020016000151581526020016000815260200160008152602001606081525090565b828054828255906000526020600020908101928215614218579160200282015b828111156142175782518260006101000a81548173ffffffffffffffffffffffffffffffffffffffff021916908373ffffffffffffffffffffffffffffffffffffffff160217905550916020019190600101906141bf565b5b5090506142259190614229565b5090565b61426991905b8082111561426557600081816101000a81549073ffffffffffffffffffffffffffffffffffffffff02191690555060010161422f565b5090565b9056fe47616d696e672064656c6179206d757374206265206c6f6e676572207468616e2030596f75206861766520616c726561647920636c61696d65642066726f6d207468697320706f6f6c5468697320706f6f6c206973206e6f7420617661696c61626c6520666f7220636c61696d696e6720796574416363657373206973206f6e6c7920616c6c6f7765642066726f6d20737065636966696320636f6e7472616374596f7520617265206e6f7420656c696769626c6520746f20636c61696d20666f72207468697320706f6f6ca265627a7a723158209e9c7e165df495a5f93951c2260253735aef1e25f2f09a73103549ea1996aa5e64736f6c63430005110032",
  "source": "/**\r\n* @title WithdrawPool\r\n*\r\n* @author @ziweidream @Xaleee\r\n*\r\n*/\r\npragma solidity ^0.5.5;\r\n\r\nimport \"../modules/proxy/Proxied.sol\";\r\nimport \"../authority/Guard.sol\";\r\nimport \"../modules/datetime/TimeFrame.sol\";\r\nimport \"../libs/SafeMath.sol\";\r\nimport \"../interfaces/IStaking.sol\";\r\nimport \"../interfaces/ERC20Standard.sol\";\r\nimport \"../modules/databases/EndowmentDB.sol\";\r\nimport \"../modules/endowment/EndowmentFund.sol\";\r\nimport \"../modules/endowment/EarningsTracker.sol\";\r\n\r\ncontract WithdrawPool is Proxied, Guard {\r\n\r\n    using SafeMath for uint256;\r\n\r\n    /*                                               GENERAL VARIABLES                                                */\r\n    /*                                                     START                                                      */\r\n    /* ============================================================================================================== */\r\n\r\n    IStaking public staking;\r\n\r\n    ERC20Standard public superDaoToken;\r\n\r\n    TimeFrame public timeFrame;\r\n\r\n    EndowmentDB public endowmentDB;\r\n\r\n    EndowmentFund public endowmentFund;\r\n\r\n    EarningsTracker public earningsTracker;\r\n\r\n\r\n    uint256 staking_period; //Time needed a staker to stake, so as to be able to claim.\r\n\r\n    //uint256 validClaimTime; //Valid time duration during which a staker can claim his/her dividends from a pool, after this valid time the pool will be dissolved, and unclaimed ether returned back to endowment\r\n\r\n    uint256 totalEthPaidOut; //The total amount of Eth this contract paid to stakers.\r\n\r\n    uint256 noOfPools; //The number of all pools created.\r\n\r\n    uint256 noOfDissolvedPools; //The number of all pools that have been dissolved.\r\n\r\n    uint256 noOfOpenPools; //The number of all pools yet to be dissolved.\r\n\r\n    uint256 noOfTotalStakers; //The number of total stakers that withdrew from this contract.\r\n\r\n    /*                                               GENERAL VARIABLES                                                */\r\n    /*                                                      END                                                       */\r\n    /* ============================================================================================================== */\r\n\r\n    /*                                                 POOL VARIABLES                                                 */\r\n    /*                                                     START                                                      */\r\n    /* ============================================================================================================== */\r\n\r\n    struct WithdrawalPool {\r\n        uint256 epochID;            // epochID of the epoch asscoated with this pool\r\n        uint256 blockNumber;        //The block number of the block in which this pool was created\r\n        uint256 initialETHAvailable; // How much Eth this pool initially has, which is the amount of eth distributed\r\n                                     // to this pool when the associated honeypot dissolves\r\n        uint256 ETHAvailable;       //How much Eth this pool contains.\r\n        uint256 dateAvailable;      //When this pool's Eth will be available for withdrawal, in unix time\r\n        bool initialETHadded;    // check whether initial ether is recorded in withdrawPool\r\n        bool unlocked;              //If this is true when rest_day starts stakers will be able to claim.\r\n        bool dissolved;             //If this is true the pool has been dissolved, otherwise has not.\r\n        uint256 dateDissolved;      //The date this pool got dissolved in unix time.\r\n        //uint256 stakersEligible;    //How many stakers are eligible to claim from this pool.\r\n        uint256 stakersClaimed;     //How many stakers claimed from this pool.\r\n        address[] allClaimedStakers; //Addresses of all stakers who have claimed from this pool.\r\n        //address[] eligibleStakers; //Addresses of all stakers that are eligible to claim from this pool.\r\n    }\r\n\r\n    struct Staker{\r\n        //uint256 stakeStartDate;        //Timestamp of the date this staker started to stake.\r\n        uint256 previousStartTime;      //Block Number of the block in which this staker started to stake the previous time.\r\n        uint256 stakeStartTime;         //Block Number of the block in which this staker started to lock superDao.\r\n        mapping(uint256 => bool) staking;                   //\r\n        mapping(uint256 => bool) claimed; // true if this staker has already claimed from this pool\r\n        uint256 totalPoolsClaimed;      //From how many pools this staker claimed funds.\r\n        uint256 currentAvailablePools;  //From how many pools this staker hasn't yet claimed, while he is eligible.\r\n    }\r\n\r\n    mapping(uint256 => WithdrawalPool) public weeklyPools; //Ids for all weekly pools\r\n\r\n    mapping(address => Staker) internal stakers; //Stake information about this address\r\n\r\n    // mapping(uint256 => bool) internal dissolveScheduled; //True if a pool is already scheduled for dissolve\r\n    // uint256 public scheduledJob;                 //Current cronJob ID of the cronJob scheduled for pool dissolving\r\n    // mapping (uint => uint) public scheduledJobs; // Mapping pool_id to cronJob ID which schdules dissolving this pool\r\n\r\n    //address[] internal potentialStakers; // A list of the addresses of SuperDao holders who stake their tokens,\r\n                                         // may not eligible for claiming yields\r\n                                         //if not meeting staking period requirement\r\n\r\n    /*                                                 POOL VARIABLES                                                 */\r\n    /*                                                      END                                                       */\r\n    /* ============================================================================================================== */\r\n\r\n    /*                                                   MODIFIERS                                                    */\r\n    /*                                                     START                                                      */\r\n    /* ============================================================================================================== */\r\n\r\n    //modifier onlyCronJob() {\r\n      //  require(msg.sender == cronJob, \"WithdrawPool: Only CronJob\");\r\n        //_;\r\n    //}\r\n\r\n    //modifier onlyEndowmentFund() {\r\n      //  require(msg.sender == endowmentFund, \"WithdrawPool: Only EndowmentFund\");\r\n        //_;\r\n    //}\r\n\r\n    modifier onlyActivePool(uint pool_id) {\r\n         require(pool_id == getActivePoolID());\r\n         _;\r\n     }\r\n\r\n\r\n    /*                                                    MODIFIERS                                                   */\r\n    /*                                                       END                                                      */\r\n    /* ============================================================================================================== */\r\n\r\n    /*                                                   CONSTRUCTOR                                                  */\r\n    /*                                                      START                                                     */\r\n    /* ============================================================================================================== */\r\n\r\n    function initialize(address _stakingContract, address _superDaoToken)\r\n        external\r\n        onlyOwner\r\n    {\r\n        timeFrame = TimeFrame(proxy.getContract(CONTRACT_NAME_TIMEFRAME));\r\n        staking = IStaking(_stakingContract);\r\n        endowmentFund = EndowmentFund(proxy.getContract(CONTRACT_NAME_ENDOWMENT_FUND));\r\n        superDaoToken = ERC20Standard(_superDaoToken);\r\n        endowmentDB = EndowmentDB(proxy.getContract(CONTRACT_NAME_ENDOWMENT_DB));\r\n        earningsTracker = EarningsTracker(proxy.getContract(CONTRACT_NAME_EARNINGS_TRACKER));\r\n    }\r\n\r\n    /*                                                   CONSTRUCTOR                                                  */\r\n    /*                                                       END                                                      */\r\n    /* ============================================================================================================== */\r\n\r\n    // events\r\n    event Pool0Set(uint256 pool_id, uint256 createTime);\r\n    event AddETHtoPool(uint256 indexed pool_id, uint256 amountETH);\r\n    event CheckStakersEligibility(uint256 indexed pool_id, uint256 numberOfStakersEligible, uint256 checkingTime);\r\n    event PoolUpdated(\r\n        uint256 indexed pool_id,\r\n        uint256 ETHAvailableInPool,\r\n        uint256 stakersClaimedForPool,\r\n        uint256 totalEthPaidOut\r\n    );\r\n    event ClaimYield(uint256 indexed pool_id, address indexed account, uint256 yield);\r\n    //event PoolDissolveScheduled(uint256 indexed scheduledJob, uint256 dissolveTime, uint256 indexed pool_id);\r\n    event ReturnUnclaimedETHtoEscrow(uint256 indexed pool_id, uint256 unclaimedETH, address receiver);\r\n    event PoolDissolved(uint256 indexed pool_id, uint256 dissolveTime);\r\n    event NewPoolCreated(uint256 indexed newPoolId, uint256 newPoolCreationTime);\r\n    event GamingDelayAddedtoPool(\r\n        uint256 indexed _pool_id,\r\n        uint256 _gamingDelay,\r\n        uint256 newAvailableTimeForClaiming\r\n    );\r\n\r\n    /*                                                 STAKER FUNCTIONS                                               */\r\n    /*                                                      START                                                     */\r\n    /* ============================================================================================================== */\r\n\r\n    /**\r\n     * @dev This function is used by stakers to claim their yields.\r\n     * @param pool_id The pool from which they would like to claim.\r\n     */\r\n    function claimYield(uint256 pool_id)\r\n    external returns(bool)\r\n    {\r\n        require(weeklyPools[pool_id].dateAvailable <= now, \"This pool is not available for claiming yet\");\r\n        require(weeklyPools[pool_id].unlocked == true, \"This pool is locked\");\r\n        require(weeklyPools[pool_id].dissolved == false, \"This pool is already dissolved\");\r\n\r\n        // get the last time that the claimer's staked token amount has been changed\r\n        // the tokens need to be staked before the the current epoch started\r\n        uint256 lastModifiedBlockNumber = staking.lastStakedFor(msg.sender);\r\n        require(lastModifiedBlockNumber <= weeklyPools[pool_id].blockNumber, \"You are not eligible to claim for this pool\");\r\n        require(stakers[msg.sender].claimed[pool_id] == false, \"You have already claimed from this pool\");\r\n\r\n        // record initial ether in pool in withdrawPool struct\r\n        // only need to be called once for each pool\r\n        if (weeklyPools[pool_id].initialETHadded == false &&\r\n            weeklyPools[pool_id].initialETHAvailable == 0) {\r\n                addAmountToPool(pool_id);\r\n            }\r\n\r\n        // update staker\r\n        _updateStaker(msg.sender, pool_id, lastModifiedBlockNumber);\r\n        // calculate the amount of ether entitled to the caller\r\n        uint256 yield = checkYield(msg.sender, pool_id);\r\n        // update pool data\r\n        _updatePool(msg.sender, pool_id, yield);\r\n        // pay dividend to the caller\r\n        require(endowmentFund.transferETHfromEscrowWithdrawalPool(msg.sender, yield, pool_id));\r\n\r\n        emit ClaimYield(pool_id, msg.sender, yield);\r\n        return true;\r\n    }\r\n\r\n    /**\r\n     * @dev This function is used, so as to check how much Eth a staker can withdraw from a specific pool.\r\n     * @param pool_id The pool from which they would like to claim.\r\n     * @param staker The address of the staker we would like to check.\r\n     */\r\n    function checkYield(address staker, uint256 pool_id)\r\n        public\r\n        view\r\n    returns(uint256)\r\n    {\r\n        // divided by 1000000000 because getPercentagePool() returns a value amplified by 1000000000\r\n        //return getPercentageSuperDao(staker).mul(weeklyPools[pool_id].initialETHAvailable).div(1000000000);\r\n        uint256 stakedByStaker = staking.totalStakedFor(staker);\r\n        uint256 stakedByAllStakers = staking.totalStaked();\r\n        uint256 initialETHinPool = weeklyPools[pool_id].initialETHAvailable;\r\n        return stakedByStaker.mul(initialETHinPool).div(stakedByAllStakers);\r\n    }\r\n\r\n    /*                                                 STAKER FUNCTIONS                                               */\r\n    /*                                                       END                                                      */\r\n    /* ============================================================================================================== */\r\n\r\n    /*                                                 SETTER FUNCTIONS                                               */\r\n    /*                                                      START                                                     */\r\n    /* ============================================================================================================== */\r\n\r\n    function setPool_0() public onlyOwner {\r\n        require(noOfPools == 0, \"Pool 0 already exists\");\r\n        timeFrame.setEpoch_0();\r\n        uint256 epoch0StartTime = now;\r\n        WithdrawalPool memory withdrawalPool;\r\n        withdrawalPool.epochID = 0; // poolId is the same as its associated epoch\r\n        withdrawalPool.blockNumber = block.number;\r\n        withdrawalPool.dateAvailable = epoch0StartTime.add(timeFrame.SIX_WORKING_DAYS());\r\n        withdrawalPool.dateDissolved = withdrawalPool.dateAvailable.add(timeFrame.REST_DAY());\r\n        \r\n        weeklyPools[0] = withdrawalPool;\r\n        earningsTracker.setInvestment(0, endowmentDB.checkInvestment(0));\r\n\r\n        noOfPools = noOfPools.add(1);\r\n\r\n        emit Pool0Set(0, now);\r\n    }\r\n\r\n    /**\r\n      * @dev adds gaming delay to a pool\r\n      * This function should be called by GameManager when the last game\r\n      * in an epoch runs longer than the intended sixDayEnd\r\n      * @param pool_id the id of the pool\r\n      * @param gamingDelay gaming delay time in seconds\r\n      */\r\n     function addGamingDelayToPool(uint pool_id, uint gamingDelay)\r\n         public\r\n         onlyActivePool(pool_id)\r\n         onlyContract(CONTRACT_NAME_GAMEMANAGER)\r\n     {\r\n         _addGamingDelayToPool(pool_id, gamingDelay);\r\n     }\r\n\r\n     function setInterestToEarningsTracker(uint256 pool_id, uint256 total)\r\n     external\r\n     onlyContract(CONTRACT_NAME_GAMESTORE)\r\n     {\r\n        weeklyPools[pool_id].unlocked = true;\r\n        uint256 delay;\r\n        if(now > weeklyPools[pool_id].dateAvailable) {\r\n            delay = now.sub(weeklyPools[pool_id].dateAvailable);\r\n            weeklyPools[pool_id].dateAvailable = now;\r\n            weeklyPools[pool_id].dateDissolved =\r\n                weeklyPools[pool_id].dateAvailable.add(timeFrame.REST_DAY());\r\n        }\r\n        timeFrame.unlockAndAddDelay(pool_id, delay);\r\n        earningsTracker.setInterest(pool_id, total);\r\n     }\r\n\r\n    /**\r\n     * @dev This function is used by owner to change stakingContract's address.\r\n     * @param _stakingContract The address of the new stakingContract.\r\n     */\r\n    function setStakingContract(address _stakingContract)\r\n        external\r\n        onlyOwner\r\n    {\r\n        staking = IStaking(_stakingContract);\r\n    }\r\n\r\n    function terminateEpochAndPoolManually()\r\n        public\r\n        onlySuperAdmin\r\n    {\r\n        timeFrame.terminateEpochManually();\r\n        _terminatePool();\r\n    }\r\n\r\n    function setNewEpochAndPoolManually()\r\n        public\r\n        onlySuperAdmin\r\n    {\r\n        timeFrame.setNewEpochManually();\r\n        uint256 _newPoolId = noOfPools;\r\n        weeklyPools[_newPoolId].epochID = _newPoolId; // poolId is always the same as its associated epoch\r\n        weeklyPools[_newPoolId].blockNumber = block.number;\r\n        weeklyPools[_newPoolId].dateAvailable = now.add(timeFrame.SIX_WORKING_DAYS());\r\n        weeklyPools[_newPoolId].dateDissolved = weeklyPools[_newPoolId].dateAvailable.add(timeFrame.REST_DAY());\r\n\r\n        noOfPools = noOfPools.add(1);\r\n\r\n        emit NewPoolCreated(_newPoolId, now);\r\n    }\r\n\r\n\r\n    /*                                                 SETTER FUNCTIONS                                               */\r\n    /*                                                       END                                                      */\r\n    /* ============================================================================================================== */\r\n\r\n    /*                                                 GETTER FUNCTIONS                                               */\r\n    /*                                                      START                                                     */\r\n    /* ============================================================================================================== */\r\n\r\n    /**\r\n     * @dev This function is returning the Ether that has been claimed by this contract till now.\r\n     */\r\n    function getEthPaidOut()\r\n    external\r\n    view\r\n    returns(uint256)\r\n    {\r\n        return totalEthPaidOut;\r\n    }\r\n\r\n    /**\r\n     * @dev This function is returning the total number of Pools that were created.\r\n     */\r\n    function getTotalNumberOfPools()\r\n    external\r\n    view\r\n    returns(uint256)\r\n    {\r\n        return noOfPools;\r\n    }\r\n\r\n    /**\r\n     * @dev This function is returning the total number of Pools that have been dissolved.\r\n     */\r\n    function getNumberOfDissolvedPools()\r\n    external\r\n    view\r\n    returns(uint256)\r\n    {\r\n        return noOfDissolvedPools;\r\n    }\r\n\r\n    //TODO: there should always be only 1 open pool at any time, so this function is stale.\r\n    /**\r\n     * @dev This function is returning the total number of Pools that are still open.\r\n     */\r\n    function getNumberOfOpenPools()\r\n    external\r\n    view\r\n    returns(uint256)\r\n    {\r\n        return noOfOpenPools;\r\n    }\r\n\r\n    /**\r\n     * @dev This function is returning the total number of Stakers that claimed from this contract.\r\n     */\r\n    function getNumberOfTotalStakers()\r\n    external\r\n    view\r\n    returns(uint256)\r\n    {\r\n        return noOfTotalStakers;\r\n    }\r\n\r\n    /**\r\n     * @dev This function is returning the total number of Tokens that are staked.\r\n     */\r\n    function getNumberOfTokensStaked()\r\n    external\r\n    view\r\n    returns(uint256)\r\n    {\r\n        return staking.totalStaked();\r\n    }\r\n\r\n    // calculate the percentage of a staker's token staked in the total SuperDao tokens minted\r\n    function getPercentageSuperDao(address account)\r\n        //internal\r\n        public\r\n        view\r\n        returns (uint256)\r\n    {\r\n        uint256 total = superDaoToken.totalSupply(); // TODO: total minted\r\n        uint256 stakedAmount = staking.totalStakedFor(account);\r\n        uint256 percentagePool = stakedAmount.mul(1000000000).div(total); // multiply 1000000000 to ensure it is always an integer\r\n        return percentagePool;\r\n    }\r\n\r\n    // get the pool ID of the currently active pool\r\n    // The ID of the active pool is the same as the ID of the active epoch\r\n    function getActivePoolID()\r\n        public\r\n        view\r\n        returns (uint256)\r\n    {\r\n        //return timeFrame.getActiveEpochID();\r\n        return noOfPools.sub(1);\r\n    }\r\n\r\n    // get the initial ether available in a pool\r\n    function getInitialETH(uint256 _poolID)\r\n        public\r\n        view\r\n        returns (uint256)\r\n    {\r\n        return weeklyPools[_poolID].initialETHAvailable;\r\n    }\r\n\r\n    // get all stakers who have received yields from a pool with _poolID\r\n    function getAllClaimersForPool(uint256 _poolID)\r\n        public\r\n        view\r\n        returns (address[] memory)\r\n    {\r\n        return weeklyPools[_poolID].allClaimedStakers;\r\n    }\r\n\r\n     /**\r\n      * @dev return the time remaining (in seconds) until time availabe for claiming the current pool\r\n      * only current pool can be claimed\r\n      */\r\n     function timeUntilClaiming() public view returns (uint256) {\r\n         uint256 pool_id = getActivePoolID();\r\n         require(weeklyPools[pool_id].dissolved == false, \"Pool already dissolved\");\r\n         uint256 claimTime = weeklyPools[pool_id].dateAvailable;\r\n         if (claimTime > now) {\r\n             return claimTime.sub(now);\r\n         } else {\r\n             return 0;\r\n         }\r\n\r\n     }\r\n\r\n     /**\r\n      * @dev return the time remaining (in seconds) until time for dissolving the current pool\r\n      * If the pool is already dissolved, returns 0.\r\n      */\r\n     function timeUntilPoolDissolve() public view returns (uint256) {\r\n         uint256 pool_id = getActivePoolID();\r\n         uint256 dissolveTime = weeklyPools[pool_id].dateDissolved;\r\n         if (dissolveTime > now) {\r\n             return dissolveTime.sub(now);\r\n         } else {\r\n             return 0;\r\n         }\r\n     }\r\n\r\n    /*                                                 GETTER FUNCTIONS                                               */\r\n    /*                                                       END                                                      */\r\n    /* ============================================================================================================== */\r\n\r\n    /*                                                INTERNAL FUNCTIONS                                              */\r\n    /*                                                      START                                                     */\r\n    /* ============================================================================================================== */\r\n    /**\r\n     * @dev This function adds initial ether allocation to a pool with pool_id\r\n     * @dev This function is called only once when the first claimer claims from this pool\r\n     */\r\n    function addAmountToPool(uint256 pool_id)\r\n        internal\r\n        returns (bool)\r\n    {\r\n        uint256 totalETHtoPool = endowmentDB.getETHinPool(pool_id);\r\n        weeklyPools[pool_id].initialETHadded = true;\r\n        weeklyPools[pool_id].initialETHAvailable = totalETHtoPool;\r\n        weeklyPools[pool_id].ETHAvailable = totalETHtoPool;\r\n        emit AddETHtoPool(pool_id, totalETHtoPool);\r\n        return true;\r\n    }\r\n\r\n    /**\r\n     * @dev This function is used by cronJob to dissolve an old pool at its dissolving time\r\n     * and create a new pool.\r\n     * @dev Any unclaimed ethers left in the old pool is returned to endowmentFund upon the pool's dissolution\r\n     */\r\n    function dissolveOldCreateNew()\r\n    public\r\n    onlyContract(CONTRACT_NAME_GAMESTORE)\r\n    {\r\n        uint256 pool_id = noOfPools.sub(1);\r\n        // dissolve the old pool\r\n        weeklyPools[pool_id].dissolved = true;\r\n\r\n        noOfDissolvedPools = noOfDissolvedPools.add(1);\r\n\r\n        // create new pool\r\n        uint256 newPoolId = pool_id.add(1);\r\n        weeklyPools[newPoolId].epochID = newPoolId; // poolId is always the same as its associated epoch\r\n        weeklyPools[newPoolId].blockNumber = block.number;\r\n        weeklyPools[newPoolId].dateAvailable = now.add(timeFrame.SIX_WORKING_DAYS());\r\n        weeklyPools[newPoolId].dateDissolved = weeklyPools[newPoolId].dateAvailable.add(timeFrame.REST_DAY());\r\n\r\n        earningsTracker.setInvestment(newPoolId, endowmentDB.checkInvestment(newPoolId));\r\n        noOfPools = noOfPools.add(1);\r\n\r\n        emit PoolDissolved(pool_id, now);\r\n\r\n        emit NewPoolCreated(newPoolId, now);\r\n    }\r\n\r\n    /**\r\n     * @dev This function is used to update pool data, when a claim occurs.\r\n     * @param pool_id The pool id.\r\n     */\r\n    function _updatePool(address _staker, uint256 pool_id, uint256 _yield)\r\n    internal\r\n    {\r\n        weeklyPools[pool_id].ETHAvailable = weeklyPools[pool_id].ETHAvailable.sub(_yield);\r\n        weeklyPools[pool_id].stakersClaimed = weeklyPools[pool_id].stakersClaimed.add(1);\r\n        weeklyPools[pool_id].allClaimedStakers.push(_staker);\r\n        totalEthPaidOut = totalEthPaidOut.add(_yield);\r\n\r\n        emit PoolUpdated(\r\n            pool_id,\r\n            weeklyPools[pool_id].ETHAvailable,\r\n            weeklyPools[pool_id].stakersClaimed,\r\n            totalEthPaidOut\r\n        );\r\n    }\r\n\r\n    /**\r\n     * @dev This function is used to update staker's data, when a claim occurs.\r\n     */\r\n    function _updateStaker(address _staker, uint256 pool_id, uint256 _stakeStartTime)\r\n    internal\r\n    {\r\n        stakers[_staker].previousStartTime = stakers[_staker].stakeStartTime;\r\n        stakers[_staker].stakeStartTime = _stakeStartTime;\r\n        //stakers[_staker].staking[pool_id] = true;\r\n        stakers[_staker].claimed[pool_id] = true;\r\n        stakers[_staker].totalPoolsClaimed = stakers[_staker].totalPoolsClaimed.add(1);\r\n        stakers[_staker].currentAvailablePools = stakers[_staker].currentAvailablePools > 0 ?\r\n                                                 stakers[_staker].currentAvailablePools.sub(1) : 0;\r\n    }\r\n\r\n    /**\r\n      * @dev adds gaming delay to a pool\r\n      * @param _pool_id the id of the pool\r\n      * @param _gamingDelay gaming delay time in seconds\r\n      */\r\n     function _addGamingDelayToPool(uint _pool_id, uint _gamingDelay)\r\n         internal\r\n     {\r\n         require(_gamingDelay > 0, \"Gaming delay must be longer than 0\");\r\n         weeklyPools[_pool_id].dateAvailable = weeklyPools[_pool_id].dateAvailable.add(_gamingDelay);\r\n         weeklyPools[_pool_id].dateDissolved = weeklyPools[_pool_id].dateDissolved.add(_gamingDelay);\r\n         emit GamingDelayAddedtoPool(_pool_id, _gamingDelay, weeklyPools[_pool_id].dateAvailable);\r\n     }\r\n\r\n    /**\r\n      * @dev terminates a pool\r\n      */\r\n    function _terminatePool() internal {\r\n        uint256 _pool_id = getActivePoolID();\r\n        require(now <= weeklyPools[_pool_id].dateDissolved, \"Pool has already dissolved\");\r\n        weeklyPools[_pool_id].dateDissolved = now.sub(1);\r\n        weeklyPools[_pool_id].unlocked = false;\r\n        weeklyPools[_pool_id].dissolved = true;\r\n\r\n        emit PoolDissolved(_pool_id, now);\r\n    }\r\n    \r\n    /*                                                INTERNAL FUNCTIONS                                              */\r\n    /*                                                       END                                                      */\r\n    /* ============================================================================================================== */\r\n}\r\n",
  "sourcePath": "C:\\Users\\Alex\\Desktop\\MyProjects\\contracts\\contracts\\withdrawPool\\WithdrawPool.sol",
  "compiler": {
    "name": "solc",
    "version": "0.5.17+commit.d19bba13.Emscripten.clang"
  },
  "schemaVersion": "3.0.11",
  "updatedAt": "2020-05-07T16:31:55.342Z",
  "devdoc": {
    "methods": {
      "addGamingDelayToPool(uint256,uint256)": {
        "details": "adds gaming delay to a pool This function should be called by GameManager when the last game in an epoch runs longer than the intended sixDayEnd",
        "params": {
          "gamingDelay": "gaming delay time in seconds",
          "pool_id": "the id of the pool"
        }
      },
      "checkYield(address,uint256)": {
        "details": "This function is used, so as to check how much Eth a staker can withdraw from a specific pool.",
        "params": {
          "pool_id": "The pool from which they would like to claim.",
          "staker": "The address of the staker we would like to check."
        }
      },
      "claimYield(uint256)": {
        "details": "This function is used by stakers to claim their yields.",
        "params": {
          "pool_id": "The pool from which they would like to claim."
        }
      },
      "dissolveOldCreateNew()": {
        "details": "This function is used by cronJob to dissolve an old pool at its dissolving time and create a new pool.Any unclaimed ethers left in the old pool is returned to endowmentFund upon the pool's dissolution"
      },
      "getEthPaidOut()": {
        "details": "This function is returning the Ether that has been claimed by this contract till now."
      },
      "getNumberOfDissolvedPools()": {
        "details": "This function is returning the total number of Pools that have been dissolved."
      },
      "getNumberOfOpenPools()": {
        "details": "This function is returning the total number of Pools that are still open."
      },
      "getNumberOfTokensStaked()": {
        "details": "This function is returning the total number of Tokens that are staked."
      },
      "getNumberOfTotalStakers()": {
        "details": "This function is returning the total number of Stakers that claimed from this contract."
      },
      "getTotalNumberOfPools()": {
        "details": "This function is returning the total number of Pools that were created."
      },
      "setStakingContract(address)": {
        "details": "This function is used by owner to change stakingContract's address.",
        "params": {
          "_stakingContract": "The address of the new stakingContract."
        }
      },
      "timeUntilClaiming()": {
        "details": "return the time remaining (in seconds) until time availabe for claiming the current pool only current pool can be claimed"
      },
      "timeUntilPoolDissolve()": {
        "details": "return the time remaining (in seconds) until time for dissolving the current pool If the pool is already dissolved, returns 0."
      }
    }
  },
  "userdoc": {
    "methods": {
      "setProxy(address)": {
        "notice": "Set/update address of Proxy contract"
      }
    }
  }
}