{
  "contractName": "WithdrawPool",
  "abi": [
    {
      "anonymous": false,
      "inputs": [
        {
          "indexed": true,
          "internalType": "uint256",
          "name": "pool_id",
          "type": "uint256"
        },
        {
          "indexed": false,
          "internalType": "uint256",
          "name": "amountETH",
          "type": "uint256"
        }
      ],
      "name": "AddETHtoPool",
      "type": "event"
    },
    {
      "anonymous": false,
      "inputs": [
        {
          "indexed": true,
          "internalType": "uint256",
          "name": "pool_id",
          "type": "uint256"
        },
        {
          "indexed": false,
          "internalType": "uint256",
          "name": "numberOfStakersEligible",
          "type": "uint256"
        },
        {
          "indexed": false,
          "internalType": "uint256",
          "name": "checkingTime",
          "type": "uint256"
        }
      ],
      "name": "CheckStakersEligibility",
      "type": "event"
    },
    {
      "anonymous": false,
      "inputs": [
        {
          "indexed": true,
          "internalType": "uint256",
          "name": "pool_id",
          "type": "uint256"
        },
        {
          "indexed": true,
          "internalType": "address",
          "name": "account",
          "type": "address"
        },
        {
          "indexed": false,
          "internalType": "uint256",
          "name": "yield",
          "type": "uint256"
        }
      ],
      "name": "ClaimYield",
      "type": "event"
    },
    {
      "anonymous": false,
      "inputs": [
        {
          "indexed": true,
          "internalType": "uint256",
          "name": "_pool_id",
          "type": "uint256"
        },
        {
          "indexed": false,
          "internalType": "uint256",
          "name": "_gamingDelay",
          "type": "uint256"
        },
        {
          "indexed": false,
          "internalType": "uint256",
          "name": "newAvailableTimeForClaiming",
          "type": "uint256"
        }
      ],
      "name": "GamingDelayAddedtoPool",
      "type": "event"
    },
    {
      "anonymous": false,
      "inputs": [
        {
          "indexed": true,
          "internalType": "uint256",
          "name": "newPoolId",
          "type": "uint256"
        },
        {
          "indexed": false,
          "internalType": "uint256",
          "name": "newPoolCreationTime",
          "type": "uint256"
        }
      ],
      "name": "NewPoolCreated",
      "type": "event"
    },
    {
      "anonymous": false,
      "inputs": [
        {
          "indexed": false,
          "internalType": "uint256",
          "name": "pool_id",
          "type": "uint256"
        },
        {
          "indexed": false,
          "internalType": "uint256",
          "name": "createTime",
          "type": "uint256"
        }
      ],
      "name": "Pool0Set",
      "type": "event"
    },
    {
      "anonymous": false,
      "inputs": [
        {
          "indexed": true,
          "internalType": "uint256",
          "name": "pool_id",
          "type": "uint256"
        },
        {
          "indexed": false,
          "internalType": "uint256",
          "name": "dissolveTime",
          "type": "uint256"
        }
      ],
      "name": "PoolDissolved",
      "type": "event"
    },
    {
      "anonymous": false,
      "inputs": [
        {
          "indexed": true,
          "internalType": "uint256",
          "name": "pool_id",
          "type": "uint256"
        },
        {
          "indexed": false,
          "internalType": "uint256",
          "name": "ETHAvailableInPool",
          "type": "uint256"
        },
        {
          "indexed": false,
          "internalType": "uint256",
          "name": "stakersClaimedForPool",
          "type": "uint256"
        },
        {
          "indexed": false,
          "internalType": "uint256",
          "name": "totalEthPaidOut",
          "type": "uint256"
        }
      ],
      "name": "PoolUpdated",
      "type": "event"
    },
    {
      "anonymous": false,
      "inputs": [
        {
          "indexed": true,
          "internalType": "uint256",
          "name": "pool_id",
          "type": "uint256"
        },
        {
          "indexed": false,
          "internalType": "uint256",
          "name": "unclaimedETH",
          "type": "uint256"
        },
        {
          "indexed": false,
          "internalType": "address",
          "name": "receiver",
          "type": "address"
        }
      ],
      "name": "ReturnUnclaimedETHtoEscrow",
      "type": "event"
    },
    {
      "constant": true,
      "inputs": [],
      "name": "earningsTracker",
      "outputs": [
        {
          "internalType": "contract EarningsTracker",
          "name": "",
          "type": "address"
        }
      ],
      "payable": false,
      "stateMutability": "view",
      "type": "function"
    },
    {
      "constant": true,
      "inputs": [],
      "name": "endowmentDB",
      "outputs": [
        {
          "internalType": "contract EndowmentDB",
          "name": "",
          "type": "address"
        }
      ],
      "payable": false,
      "stateMutability": "view",
      "type": "function"
    },
    {
      "constant": true,
      "inputs": [],
      "name": "endowmentFund",
      "outputs": [
        {
          "internalType": "contract EndowmentFund",
          "name": "",
          "type": "address"
        }
      ],
      "payable": false,
      "stateMutability": "view",
      "type": "function"
    },
    {
      "constant": true,
      "inputs": [],
      "name": "owner",
      "outputs": [
        {
          "internalType": "address payable",
          "name": "",
          "type": "address"
        }
      ],
      "payable": false,
      "stateMutability": "view",
      "type": "function"
    },
    {
      "constant": true,
      "inputs": [],
      "name": "proxy",
      "outputs": [
        {
          "internalType": "contract ProxyBase",
          "name": "",
          "type": "address"
        }
      ],
      "payable": false,
      "stateMutability": "view",
      "type": "function"
    },
    {
      "constant": false,
      "inputs": [
        {
          "internalType": "contract ProxyBase",
          "name": "_proxy",
          "type": "address"
        }
      ],
      "name": "setProxy",
      "outputs": [],
      "payable": false,
      "stateMutability": "nonpayable",
      "type": "function"
    },
    {
      "constant": true,
      "inputs": [],
      "name": "staking",
      "outputs": [
        {
          "internalType": "contract IStaking",
          "name": "",
          "type": "address"
        }
      ],
      "payable": false,
      "stateMutability": "view",
      "type": "function"
    },
    {
      "constant": true,
      "inputs": [],
      "name": "superDaoToken",
      "outputs": [
        {
          "internalType": "contract ERC20Standard",
          "name": "",
          "type": "address"
        }
      ],
      "payable": false,
      "stateMutability": "view",
      "type": "function"
    },
    {
      "constant": true,
      "inputs": [],
      "name": "timeFrame",
      "outputs": [
        {
          "internalType": "contract TimeFrame",
          "name": "",
          "type": "address"
        }
      ],
      "payable": false,
      "stateMutability": "view",
      "type": "function"
    },
    {
      "constant": false,
      "inputs": [
        {
          "internalType": "address payable",
          "name": "newOwner",
          "type": "address"
        }
      ],
      "name": "transferOwnership",
      "outputs": [],
      "payable": false,
      "stateMutability": "nonpayable",
      "type": "function"
    },
    {
      "constant": true,
      "inputs": [
        {
          "internalType": "uint256",
          "name": "",
          "type": "uint256"
        }
      ],
      "name": "weeklyPools",
      "outputs": [
        {
          "internalType": "uint256",
          "name": "epochID",
          "type": "uint256"
        },
        {
          "internalType": "uint256",
          "name": "blockNumber",
          "type": "uint256"
        },
        {
          "internalType": "uint256",
          "name": "initialETHAvailable",
          "type": "uint256"
        },
        {
          "internalType": "uint256",
          "name": "ETHAvailable",
          "type": "uint256"
        },
        {
          "internalType": "uint256",
          "name": "dateAvailable",
          "type": "uint256"
        },
        {
          "internalType": "bool",
          "name": "initialETHadded",
          "type": "bool"
        },
        {
          "internalType": "bool",
          "name": "unlocked",
          "type": "bool"
        },
        {
          "internalType": "bool",
          "name": "dissolved",
          "type": "bool"
        },
        {
          "internalType": "uint256",
          "name": "dateDissolved",
          "type": "uint256"
        },
        {
          "internalType": "uint256",
          "name": "stakersClaimed",
          "type": "uint256"
        }
      ],
      "payable": false,
      "stateMutability": "view",
      "type": "function"
    },
    {
      "constant": false,
      "inputs": [
        {
          "internalType": "address",
          "name": "_stakingContract",
          "type": "address"
        },
        {
          "internalType": "address",
          "name": "_superDaoToken",
          "type": "address"
        }
      ],
      "name": "initialize",
      "outputs": [],
      "payable": false,
      "stateMutability": "nonpayable",
      "type": "function"
    },
    {
      "constant": false,
      "inputs": [
        {
          "internalType": "uint256",
          "name": "pool_id",
          "type": "uint256"
        }
      ],
      "name": "claimYield",
      "outputs": [
        {
          "internalType": "bool",
          "name": "",
          "type": "bool"
        }
      ],
      "payable": false,
      "stateMutability": "nonpayable",
      "type": "function"
    },
    {
      "constant": true,
      "inputs": [
        {
          "internalType": "address",
          "name": "staker",
          "type": "address"
        },
        {
          "internalType": "uint256",
          "name": "pool_id",
          "type": "uint256"
        }
      ],
      "name": "checkYield",
      "outputs": [
        {
          "internalType": "uint256",
          "name": "",
          "type": "uint256"
        }
      ],
      "payable": false,
      "stateMutability": "view",
      "type": "function"
    },
    {
      "constant": false,
      "inputs": [],
      "name": "setPool_0",
      "outputs": [],
      "payable": false,
      "stateMutability": "nonpayable",
      "type": "function"
    },
    {
      "constant": false,
      "inputs": [
        {
          "internalType": "uint256",
          "name": "pool_id",
          "type": "uint256"
        },
        {
          "internalType": "uint256",
          "name": "gamingDelay",
          "type": "uint256"
        }
      ],
      "name": "addGamingDelayToPool",
      "outputs": [],
      "payable": false,
      "stateMutability": "nonpayable",
      "type": "function"
    },
    {
      "constant": false,
      "inputs": [
        {
          "internalType": "uint256",
          "name": "pool_id",
          "type": "uint256"
        },
        {
          "internalType": "uint256",
          "name": "total",
          "type": "uint256"
        }
      ],
      "name": "setInterestToEarningsTracker",
      "outputs": [],
      "payable": false,
      "stateMutability": "nonpayable",
      "type": "function"
    },
    {
      "constant": false,
      "inputs": [
        {
          "internalType": "address",
          "name": "_stakingContract",
          "type": "address"
        }
      ],
      "name": "setStakingContract",
      "outputs": [],
      "payable": false,
      "stateMutability": "nonpayable",
      "type": "function"
    },
    {
      "constant": false,
      "inputs": [],
      "name": "terminateEpochAndPoolManually",
      "outputs": [],
      "payable": false,
      "stateMutability": "nonpayable",
      "type": "function"
    },
    {
      "constant": false,
      "inputs": [],
      "name": "setNewEpochAndPoolManually",
      "outputs": [],
      "payable": false,
      "stateMutability": "nonpayable",
      "type": "function"
    },
    {
      "constant": true,
      "inputs": [],
      "name": "getEthPaidOut",
      "outputs": [
        {
          "internalType": "uint256",
          "name": "",
          "type": "uint256"
        }
      ],
      "payable": false,
      "stateMutability": "view",
      "type": "function"
    },
    {
      "constant": true,
      "inputs": [],
      "name": "getTotalNumberOfPools",
      "outputs": [
        {
          "internalType": "uint256",
          "name": "",
          "type": "uint256"
        }
      ],
      "payable": false,
      "stateMutability": "view",
      "type": "function"
    },
    {
      "constant": true,
      "inputs": [],
      "name": "getNumberOfDissolvedPools",
      "outputs": [
        {
          "internalType": "uint256",
          "name": "",
          "type": "uint256"
        }
      ],
      "payable": false,
      "stateMutability": "view",
      "type": "function"
    },
    {
      "constant": true,
      "inputs": [],
      "name": "getNumberOfOpenPools",
      "outputs": [
        {
          "internalType": "uint256",
          "name": "",
          "type": "uint256"
        }
      ],
      "payable": false,
      "stateMutability": "view",
      "type": "function"
    },
    {
      "constant": true,
      "inputs": [],
      "name": "getNumberOfTotalStakers",
      "outputs": [
        {
          "internalType": "uint256",
          "name": "",
          "type": "uint256"
        }
      ],
      "payable": false,
      "stateMutability": "view",
      "type": "function"
    },
    {
      "constant": true,
      "inputs": [],
      "name": "getNumberOfTokensStaked",
      "outputs": [
        {
          "internalType": "uint256",
          "name": "",
          "type": "uint256"
        }
      ],
      "payable": false,
      "stateMutability": "view",
      "type": "function"
    },
    {
      "constant": true,
      "inputs": [
        {
          "internalType": "address",
          "name": "account",
          "type": "address"
        }
      ],
      "name": "getPercentageSuperDao",
      "outputs": [
        {
          "internalType": "uint256",
          "name": "",
          "type": "uint256"
        }
      ],
      "payable": false,
      "stateMutability": "view",
      "type": "function"
    },
    {
      "constant": true,
      "inputs": [],
      "name": "getActivePoolID",
      "outputs": [
        {
          "internalType": "uint256",
          "name": "",
          "type": "uint256"
        }
      ],
      "payable": false,
      "stateMutability": "view",
      "type": "function"
    },
    {
      "constant": true,
      "inputs": [
        {
          "internalType": "uint256",
          "name": "_poolID",
          "type": "uint256"
        }
      ],
      "name": "getInitialETH",
      "outputs": [
        {
          "internalType": "uint256",
          "name": "",
          "type": "uint256"
        }
      ],
      "payable": false,
      "stateMutability": "view",
      "type": "function"
    },
    {
      "constant": true,
      "inputs": [
        {
          "internalType": "uint256",
          "name": "_poolID",
          "type": "uint256"
        }
      ],
      "name": "getAllClaimersForPool",
      "outputs": [
        {
          "internalType": "address[]",
          "name": "",
          "type": "address[]"
        }
      ],
      "payable": false,
      "stateMutability": "view",
      "type": "function"
    },
    {
      "constant": true,
      "inputs": [],
      "name": "timeUntilClaiming",
      "outputs": [
        {
          "internalType": "uint256",
          "name": "",
          "type": "uint256"
        }
      ],
      "payable": false,
      "stateMutability": "view",
      "type": "function"
    },
    {
      "constant": true,
      "inputs": [],
      "name": "timeUntilPoolDissolve",
      "outputs": [
        {
          "internalType": "uint256",
          "name": "",
          "type": "uint256"
        }
      ],
      "payable": false,
      "stateMutability": "view",
      "type": "function"
    },
    {
      "constant": false,
      "inputs": [],
      "name": "dissolveOldCreateNew",
      "outputs": [],
      "payable": false,
      "stateMutability": "nonpayable",
      "type": "function"
    }
  ],
  "bytecode": "0x6080604052336000806101000a81548173ffffffffffffffffffffffffffffffffffffffff021916908373ffffffffffffffffffffffffffffffffffffffff160217905550614616806100536000396000f3fe608060405234801561001057600080fd5b50600436106101fb5760003560e01c806397107d6d1161011a578063e28b3b03116100ad578063f08d2be91161007c578063f08d2be9146108bc578063f2fde38b146108da578063f31cf1e51461091e578063f561f3791461093c578063fc16a4961461095a576101fb565b8063e28b3b031461074b578063e4bd524d146107ad578063ea00abdd146107ef578063ec55688914610872576101fb565b8063b409575f116100e9578063b409575f14610681578063bed62e8a1461069f578063d13cab52146106f7578063d8717bc714610701576101fb565b806397107d6d146105a35780639dd373b9146105e7578063a7d2c3541461062b578063b225dfc314610663576101fb565b80634cf088d91161019257806372258d871161016157806372258d87146104e7578063891ed018146105055780638b13b64b1461050f5780638da5cb5b14610559576101fb565b80634cf088d91461037c5780635b48f256146103c65780635d06fc011461045357806369af70b31461049d576101fb565b806337f6d124116101ce57806337f6d1241461027e57806340bd2e23146102c8578063449d8a7e1461030e578063485cc95514610318576101fb565b806301b9f103146102005780632840d0391461021e5780632e964e7e1461023c57806333d8cd8e14610274575b600080fd5b610208610978565b6040518082815260200191505060405180910390f35b610226610982565b6040518082815260200191505060405180910390f35b6102726004803603604081101561025257600080fd5b81019080803590602001909291908035906020019092919050505061098c565b005b61027c610c76565b005b6102866110f1565b604051808273ffffffffffffffffffffffffffffffffffffffff1673ffffffffffffffffffffffffffffffffffffffff16815260200191505060405180910390f35b6102f4600480360360208110156102de57600080fd5b8101908080359060200190929190505050611117565b604051808215151515815260200191505060405180910390f35b6103166117ce565b005b61037a6004803603604081101561032e57600080fd5b81019080803573ffffffffffffffffffffffffffffffffffffffff169060200190929190803573ffffffffffffffffffffffffffffffffffffffff169060200190929190505050611941565b005b61038461203d565b604051808273ffffffffffffffffffffffffffffffffffffffff1673ffffffffffffffffffffffffffffffffffffffff16815260200191505060405180910390f35b6103f2600480360360208110156103dc57600080fd5b8101908080359060200190929190505050612063565b604051808b81526020018a81526020018981526020018881526020018781526020018615151515815260200185151515158152602001841515151581526020018381526020018281526020019a505050505050505050505060405180910390f35b61045b6120de565b604051808273ffffffffffffffffffffffffffffffffffffffff1673ffffffffffffffffffffffffffffffffffffffff16815260200191505060405180910390f35b6104a5612104565b604051808273ffffffffffffffffffffffffffffffffffffffff1673ffffffffffffffffffffffffffffffffffffffff16815260200191505060405180910390f35b6104ef61212a565b6040518082815260200191505060405180910390f35b61050d61221d565b005b610517612712565b604051808273ffffffffffffffffffffffffffffffffffffffff1673ffffffffffffffffffffffffffffffffffffffff16815260200191505060405180910390f35b610561612738565b604051808273ffffffffffffffffffffffffffffffffffffffff1673ffffffffffffffffffffffffffffffffffffffff16815260200191505060405180910390f35b6105e5600480360360208110156105b957600080fd5b81019080803573ffffffffffffffffffffffffffffffffffffffff16906020019092919050505061275d565b005b610629600480360360208110156105fd57600080fd5b81019080803573ffffffffffffffffffffffffffffffffffffffff1690602001909291905050506127f7565b005b6106616004803603604081101561064157600080fd5b810190808035906020019092919080359060200190929190505050612891565b005b61066b6128f4565b6040518082815260200191505060405180910390f35b6106896128fe565b6040518082815260200191505060405180910390f35b6106e1600480360360208110156106b557600080fd5b81019080803573ffffffffffffffffffffffffffffffffffffffff1690602001909291905050506129a8565b6040518082815260200191505060405180910390f35b6106ff612b66565b005b6107096130dc565b604051808273ffffffffffffffffffffffffffffffffffffffff1673ffffffffffffffffffffffffffffffffffffffff16815260200191505060405180910390f35b6107976004803603604081101561076157600080fd5b81019080803573ffffffffffffffffffffffffffffffffffffffff16906020019092919080359060200190929190505050613102565b6040518082815260200191505060405180910390f35b6107d9600480360360208110156107c357600080fd5b81019080803590602001909291905050506132d3565b6040518082815260200191505060405180910390f35b61081b6004803603602081101561080557600080fd5b81019080803590602001909291905050506132f3565b6040518080602001828103825283818151815260200191508051906020019060200280838360005b8381101561085e578082015181840152602081019050610843565b505050509050019250505060405180910390f35b61087a613397565b604051808273ffffffffffffffffffffffffffffffffffffffff1673ffffffffffffffffffffffffffffffffffffffff16815260200191505060405180910390f35b6108c46133bd565b6040518082815260200191505060405180910390f35b61091c600480360360208110156108f057600080fd5b81019080803573ffffffffffffffffffffffffffffffffffffffff1690602001909291905050506133da565b005b6109266134a8565b6040518082815260200191505060405180910390f35b6109446134b2565b6040518082815260200191505060405180910390f35b6109626134bc565b6040518082815260200191505060405180910390f35b6000600c54905090565b6000600b54905090565b6040518060400160405280600981526020017f47616d6553746f726500000000000000000000000000000000000000000000008152506109cb81613512565b6001600e600085815260200190815260200160002060050160016101000a81548160ff0219169083151502179055506000600e600085815260200190815260200160002060040154421115610b4657610a43600e600086815260200190815260200160002060040154426137ad90919063ffffffff16565b905042600e600086815260200190815260200160002060040181905550610b2b600460009054906101000a900473ffffffffffffffffffffffffffffffffffffffff1673ffffffffffffffffffffffffffffffffffffffff1663504a38dd6040518163ffffffff1660e01b815260040160206040518083038186803b158015610acb57600080fd5b505afa158015610adf573d6000803e3d6000fd5b505050506040513d6020811015610af557600080fd5b8101908080519060200190929190505050600e6000878152602001908152602001600020600401546137c490919063ffffffff16565b600e6000868152602001908152602001600020600601819055505b600460009054906101000a900473ffffffffffffffffffffffffffffffffffffffff1673ffffffffffffffffffffffffffffffffffffffff1663ada3da0585836040518363ffffffff1660e01b81526004018083815260200182815260200192505050600060405180830381600087803b158015610bc357600080fd5b505af1158015610bd7573d6000803e3d6000fd5b50505050600760009054906101000a900473ffffffffffffffffffffffffffffffffffffffff1673ffffffffffffffffffffffffffffffffffffffff166343201b7185856040518363ffffffff1660e01b81526004018083815260200182815260200192505050600060405180830381600087803b158015610c5857600080fd5b505af1158015610c6c573d6000803e3d6000fd5b5050505050505050565b6040518060400160405280600981526020017f47616d6553746f72650000000000000000000000000000000000000000000000815250610cb581613512565b6000610ccd6001600a546137ad90919063ffffffff16565b90506001600e600083815260200190815260200160002060050160026101000a81548160ff021916908315150217905550610d146001600b546137c490919063ffffffff16565b600b819055506000610d306001836137c490919063ffffffff16565b905080600e60008381526020019081526020016000206000018190555043600e600083815260200190815260200160002060010181905550610e1d600460009054906101000a900473ffffffffffffffffffffffffffffffffffffffff1673ffffffffffffffffffffffffffffffffffffffff1663337122426040518163ffffffff1660e01b815260040160206040518083038186803b158015610dd357600080fd5b505afa158015610de7573d6000803e3d6000fd5b505050506040513d6020811015610dfd57600080fd5b8101908080519060200190929190505050426137c490919063ffffffff16565b600e600083815260200190815260200160002060040181905550610f02600460009054906101000a900473ffffffffffffffffffffffffffffffffffffffff1673ffffffffffffffffffffffffffffffffffffffff1663504a38dd6040518163ffffffff1660e01b815260040160206040518083038186803b158015610ea257600080fd5b505afa158015610eb6573d6000803e3d6000fd5b505050506040513d6020811015610ecc57600080fd5b8101908080519060200190929190505050600e6000848152602001908152602001600020600401546137c490919063ffffffff16565b600e600083815260200190815260200160002060060181905550600760009054906101000a900473ffffffffffffffffffffffffffffffffffffffff1673ffffffffffffffffffffffffffffffffffffffff16631fab5af782600560009054906101000a900473ffffffffffffffffffffffffffffffffffffffff1673ffffffffffffffffffffffffffffffffffffffff1663b0e2ac8c856040518263ffffffff1660e01b815260040180828152602001915050602060405180830381600087803b158015610fd057600080fd5b505af1158015610fe4573d6000803e3d6000fd5b505050506040513d6020811015610ffa57600080fd5b81019080805190602001909291905050506040518363ffffffff1660e01b81526004018083815260200182815260200192505050600060405180830381600087803b15801561104857600080fd5b505af115801561105c573d6000803e3d6000fd5b505050506110766001600a546137c490919063ffffffff16565b600a81905550817f886fe93e7903b81993e720f87f666d97e0152d2b06aaee257169f8aa47173647426040518082815260200191505060405180910390a2807f9b8e7ac98026c000e0574fa64945d9dc5d9a4ba9eca62130cbb1b51661f068b9426040518082815260200191505060405180910390a2505050565b600760009054906101000a900473ffffffffffffffffffffffffffffffffffffffff1681565b600042600e6000848152602001908152602001600020600401541115611188576040517f08c379a000000000000000000000000000000000000000000000000000000000815260040180806020018281038252602b81526020018061455f602b913960400191505060405180910390fd5b60011515600e600084815260200190815260200160002060050160019054906101000a900460ff16151514611225576040517f08c379a00000000000000000000000000000000000000000000000000000000081526004018080602001828103825260138152602001807f5468697320706f6f6c206973206c6f636b65640000000000000000000000000081525060200191505060405180910390fd5b60001515600e600084815260200190815260200160002060050160029054906101000a900460ff161515146112c2576040517f08c379a000000000000000000000000000000000000000000000000000000000815260040180806020018281038252601e8152602001807f5468697320706f6f6c20697320616c726561647920646973736f6c766564000081525060200191505060405180910390fd5b6000600260009054906101000a900473ffffffffffffffffffffffffffffffffffffffff1673ffffffffffffffffffffffffffffffffffffffff16634b341aed336040518263ffffffff1660e01b8152600401808273ffffffffffffffffffffffffffffffffffffffff1673ffffffffffffffffffffffffffffffffffffffff16815260200191505060206040518083038186803b15801561136357600080fd5b505afa158015611377573d6000803e3d6000fd5b505050506040513d602081101561138d57600080fd5b8101908080519060200190929190505050116113f4576040517f08c379a00000000000000000000000000000000000000000000000000000000081526004018080602001828103825260338152602001806145056033913960400191505060405180910390fd5b6000600260009054906101000a900473ffffffffffffffffffffffffffffffffffffffff1673ffffffffffffffffffffffffffffffffffffffff1663233b7451336040518263ffffffff1660e01b8152600401808273ffffffffffffffffffffffffffffffffffffffff1673ffffffffffffffffffffffffffffffffffffffff16815260200191505060206040518083038186803b15801561149557600080fd5b505afa1580156114a9573d6000803e3d6000fd5b505050506040513d60208110156114bf57600080fd5b81019080805190602001909291905050509050600e600084815260200190815260200160002060010154811115611541576040517f08c379a000000000000000000000000000000000000000000000000000000000815260040180806020018281038252602b8152602001806145b7602b913960400191505060405180910390fd5b60001515600f60003373ffffffffffffffffffffffffffffffffffffffff1673ffffffffffffffffffffffffffffffffffffffff168152602001908152602001600020600301600085815260200190815260200160002060009054906101000a900460ff161515146115fe576040517f08c379a00000000000000000000000000000000000000000000000000000000081526004018080602001828103825260278152602001806145386027913960400191505060405180910390fd5b60001515600e600085815260200190815260200160002060050160009054906101000a900460ff16151514801561164b57506000600e600085815260200190815260200160002060020154145b1561165b57611659836137e0565b505b61166633848361393a565b60006116723385613102565b905061167f338583613c05565b600660009054906101000a900473ffffffffffffffffffffffffffffffffffffffff1673ffffffffffffffffffffffffffffffffffffffff1663e0d8a1943383876040518463ffffffff1660e01b8152600401808473ffffffffffffffffffffffffffffffffffffffff1673ffffffffffffffffffffffffffffffffffffffff1681526020018381526020018281526020019350505050602060405180830381600087803b15801561173057600080fd5b505af1158015611744573d6000803e3d6000fd5b505050506040513d602081101561175a57600080fd5b810190808051906020019092919050505061177457600080fd5b3373ffffffffffffffffffffffffffffffffffffffff16847ff99904b81b2ea4aa2d94da4e75507a386275e2ae29a77e86b2376982447ebfea836040518082815260200191505060405180910390a3600192505050919050565b600073ffffffffffffffffffffffffffffffffffffffff163373ffffffffffffffffffffffffffffffffffffffff16141561180557fe5b6118436040518060400160405280600b81526020017f73757065725f61646d696e000000000000000000000000000000000000000000815250613d9c565b6118b5576040517f08c379a00000000000000000000000000000000000000000000000000000000081526004018080602001828103825260108152602001807f4f6e6c792073757065722061646d696e0000000000000000000000000000000081525060200191505060405180910390fd5b600460009054906101000a900473ffffffffffffffffffffffffffffffffffffffff1673ffffffffffffffffffffffffffffffffffffffff16637f1b7a4b6040518163ffffffff1660e01b8152600401600060405180830381600087803b15801561191f57600080fd5b505af1158015611933573d6000803e3d6000fd5b5050505061193f614018565b565b6000809054906101000a900473ffffffffffffffffffffffffffffffffffffffff1673ffffffffffffffffffffffffffffffffffffffff163373ffffffffffffffffffffffffffffffffffffffff161461199757fe5b600160009054906101000a900473ffffffffffffffffffffffffffffffffffffffff1673ffffffffffffffffffffffffffffffffffffffff1663358177736040518060400160405280600981526020017f54696d654672616d6500000000000000000000000000000000000000000000008152506040518263ffffffff1660e01b81526004018080602001828103825283818151815260200191508051906020019080838360005b83811015611a5a578082015181840152602081019050611a3f565b50505050905090810190601f168015611a875780820380516001836020036101000a031916815260200191505b509250505060206040518083038186803b158015611aa457600080fd5b505afa158015611ab8573d6000803e3d6000fd5b505050506040513d6020811015611ace57600080fd5b8101908080519060200190929190505050600460006101000a81548173ffffffffffffffffffffffffffffffffffffffff021916908373ffffffffffffffffffffffffffffffffffffffff16021790555081600260006101000a81548173ffffffffffffffffffffffffffffffffffffffff021916908373ffffffffffffffffffffffffffffffffffffffff160217905550600160009054906101000a900473ffffffffffffffffffffffffffffffffffffffff1673ffffffffffffffffffffffffffffffffffffffff1663358177736040518060400160405280600d81526020017f456e646f776d656e7446756e64000000000000000000000000000000000000008152506040518263ffffffff1660e01b81526004018080602001828103825283818151815260200191508051906020019080838360005b83811015611c23578082015181840152602081019050611c08565b50505050905090810190601f168015611c505780820380516001836020036101000a031916815260200191505b509250505060206040518083038186803b158015611c6d57600080fd5b505afa158015611c81573d6000803e3d6000fd5b505050506040513d6020811015611c9757600080fd5b8101908080519060200190929190505050600660006101000a81548173ffffffffffffffffffffffffffffffffffffffff021916908373ffffffffffffffffffffffffffffffffffffffff16021790555080600360006101000a81548173ffffffffffffffffffffffffffffffffffffffff021916908373ffffffffffffffffffffffffffffffffffffffff160217905550600160009054906101000a900473ffffffffffffffffffffffffffffffffffffffff1673ffffffffffffffffffffffffffffffffffffffff1663358177736040518060400160405280600b81526020017f456e646f776d656e7444420000000000000000000000000000000000000000008152506040518263ffffffff1660e01b81526004018080602001828103825283818151815260200191508051906020019080838360005b83811015611dec578082015181840152602081019050611dd1565b50505050905090810190601f168015611e195780820380516001836020036101000a031916815260200191505b509250505060206040518083038186803b158015611e3657600080fd5b505afa158015611e4a573d6000803e3d6000fd5b505050506040513d6020811015611e6057600080fd5b8101908080519060200190929190505050600560006101000a81548173ffffffffffffffffffffffffffffffffffffffff021916908373ffffffffffffffffffffffffffffffffffffffff160217905550600160009054906101000a900473ffffffffffffffffffffffffffffffffffffffff1673ffffffffffffffffffffffffffffffffffffffff1663358177736040518060400160405280600f81526020017f4561726e696e6773547261636b657200000000000000000000000000000000008152506040518263ffffffff1660e01b81526004018080602001828103825283818151815260200191508051906020019080838360005b83811015611f74578082015181840152602081019050611f59565b50505050905090810190601f168015611fa15780820380516001836020036101000a031916815260200191505b509250505060206040518083038186803b158015611fbe57600080fd5b505afa158015611fd2573d6000803e3d6000fd5b505050506040513d6020811015611fe857600080fd5b8101908080519060200190929190505050600760006101000a81548173ffffffffffffffffffffffffffffffffffffffff021916908373ffffffffffffffffffffffffffffffffffffffff1602179055505050565b600260009054906101000a900473ffffffffffffffffffffffffffffffffffffffff1681565b600e6020528060005260406000206000915090508060000154908060010154908060020154908060030154908060040154908060050160009054906101000a900460ff16908060050160019054906101000a900460ff16908060050160029054906101000a900460ff1690806006015490806007015490508a565b600560009054906101000a900473ffffffffffffffffffffffffffffffffffffffff1681565b600660009054906101000a900473ffffffffffffffffffffffffffffffffffffffff1681565b6000806121356133bd565b905060001515600e600083815260200190815260200160002060050160029054906101000a900460ff161515146121d4576040517f08c379a00000000000000000000000000000000000000000000000000000000081526004018080602001828103825260168152602001807f506f6f6c20616c726561647920646973736f6c7665640000000000000000000081525060200191505060405180910390fd5b6000600e6000838152602001908152602001600020600401549050428111156122135761220a42826137ad90919063ffffffff16565b9250505061221a565b6000925050505b90565b600073ffffffffffffffffffffffffffffffffffffffff163373ffffffffffffffffffffffffffffffffffffffff16141561225457fe5b6122926040518060400160405280600b81526020017f73757065725f61646d696e000000000000000000000000000000000000000000815250613d9c565b612304576040517f08c379a00000000000000000000000000000000000000000000000000000000081526004018080602001828103825260108152602001807f4f6e6c792073757065722061646d696e0000000000000000000000000000000081525060200191505060405180910390fd5b600460009054906101000a900473ffffffffffffffffffffffffffffffffffffffff1673ffffffffffffffffffffffffffffffffffffffff16638893360a6040518163ffffffff1660e01b8152600401600060405180830381600087803b15801561236e57600080fd5b505af1158015612382573d6000803e3d6000fd5b505050506000600a54905080600e60008381526020019081526020016000206000018190555043600e600083815260200190815260200160002060010181905550612478600460009054906101000a900473ffffffffffffffffffffffffffffffffffffffff1673ffffffffffffffffffffffffffffffffffffffff1663337122426040518163ffffffff1660e01b815260040160206040518083038186803b15801561242e57600080fd5b505afa158015612442573d6000803e3d6000fd5b505050506040513d602081101561245857600080fd5b8101908080519060200190929190505050426137c490919063ffffffff16565b600e60008381526020019081526020016000206004018190555061255d600460009054906101000a900473ffffffffffffffffffffffffffffffffffffffff1673ffffffffffffffffffffffffffffffffffffffff1663504a38dd6040518163ffffffff1660e01b815260040160206040518083038186803b1580156124fd57600080fd5b505afa158015612511573d6000803e3d6000fd5b505050506040513d602081101561252757600080fd5b8101908080519060200190929190505050600e6000848152602001908152602001600020600401546137c490919063ffffffff16565b600e600083815260200190815260200160002060060181905550600760009054906101000a900473ffffffffffffffffffffffffffffffffffffffff1673ffffffffffffffffffffffffffffffffffffffff16631fab5af782600560009054906101000a900473ffffffffffffffffffffffffffffffffffffffff1673ffffffffffffffffffffffffffffffffffffffff1663b0e2ac8c856040518263ffffffff1660e01b815260040180828152602001915050602060405180830381600087803b15801561262b57600080fd5b505af115801561263f573d6000803e3d6000fd5b505050506040513d602081101561265557600080fd5b81019080805190602001909291905050506040518363ffffffff1660e01b81526004018083815260200182815260200192505050600060405180830381600087803b1580156126a357600080fd5b505af11580156126b7573d6000803e3d6000fd5b505050506126d16001600a546137c490919063ffffffff16565b600a81905550807f9b8e7ac98026c000e0574fa64945d9dc5d9a4ba9eca62130cbb1b51661f068b9426040518082815260200191505060405180910390a250565b600460009054906101000a900473ffffffffffffffffffffffffffffffffffffffff1681565b6000809054906101000a900473ffffffffffffffffffffffffffffffffffffffff1681565b6000809054906101000a900473ffffffffffffffffffffffffffffffffffffffff1673ffffffffffffffffffffffffffffffffffffffff163373ffffffffffffffffffffffffffffffffffffffff16146127b357fe5b80600160006101000a81548173ffffffffffffffffffffffffffffffffffffffff021916908373ffffffffffffffffffffffffffffffffffffffff16021790555050565b6000809054906101000a900473ffffffffffffffffffffffffffffffffffffffff1673ffffffffffffffffffffffffffffffffffffffff163373ffffffffffffffffffffffffffffffffffffffff161461284d57fe5b80600260006101000a81548173ffffffffffffffffffffffffffffffffffffffff021916908373ffffffffffffffffffffffffffffffffffffffff16021790555050565b8161289a6133bd565b81146128a557600080fd5b6040518060400160405280600b81526020017f47616d654d616e616765720000000000000000000000000000000000000000008152506128e481613512565b6128ee8484614177565b50505050565b6000600954905090565b6000600260009054906101000a900473ffffffffffffffffffffffffffffffffffffffff1673ffffffffffffffffffffffffffffffffffffffff1663817b1cd26040518163ffffffff1660e01b815260040160206040518083038186803b15801561296857600080fd5b505afa15801561297c573d6000803e3d6000fd5b505050506040513d602081101561299257600080fd5b8101908080519060200190929190505050905090565b600080600360009054906101000a900473ffffffffffffffffffffffffffffffffffffffff1673ffffffffffffffffffffffffffffffffffffffff166318160ddd6040518163ffffffff1660e01b815260040160206040518083038186803b158015612a1357600080fd5b505afa158015612a27573d6000803e3d6000fd5b505050506040513d6020811015612a3d57600080fd5b810190808051906020019092919050505090506000600260009054906101000a900473ffffffffffffffffffffffffffffffffffffffff1673ffffffffffffffffffffffffffffffffffffffff16634b341aed856040518263ffffffff1660e01b8152600401808273ffffffffffffffffffffffffffffffffffffffff1673ffffffffffffffffffffffffffffffffffffffff16815260200191505060206040518083038186803b158015612af157600080fd5b505afa158015612b05573d6000803e3d6000fd5b505050506040513d6020811015612b1b57600080fd5b810190808051906020019092919050505090506000612b5983612b4b633b9aca00856142b090919063ffffffff16565b6142e790919063ffffffff16565b9050809350505050919050565b6000809054906101000a900473ffffffffffffffffffffffffffffffffffffffff1673ffffffffffffffffffffffffffffffffffffffff163373ffffffffffffffffffffffffffffffffffffffff1614612bbc57fe5b6000600a5414612c34576040517f08c379a00000000000000000000000000000000000000000000000000000000081526004018080602001828103825260158152602001807f506f6f6c203020616c726561647920657869737473000000000000000000000081525060200191505060405180910390fd5b600460009054906101000a900473ffffffffffffffffffffffffffffffffffffffff1673ffffffffffffffffffffffffffffffffffffffff166374716b4c6040518163ffffffff1660e01b8152600401600060405180830381600087803b158015612c9e57600080fd5b505af1158015612cb2573d6000803e3d6000fd5b505050506000429050612cc36143b5565b600081600001818152505043816020018181525050612d8d600460009054906101000a900473ffffffffffffffffffffffffffffffffffffffff1673ffffffffffffffffffffffffffffffffffffffff1663337122426040518163ffffffff1660e01b815260040160206040518083038186803b158015612d4357600080fd5b505afa158015612d57573d6000803e3d6000fd5b505050506040513d6020811015612d6d57600080fd5b8101908080519060200190929190505050836137c490919063ffffffff16565b816080018181525050612e4f600460009054906101000a900473ffffffffffffffffffffffffffffffffffffffff1673ffffffffffffffffffffffffffffffffffffffff1663504a38dd6040518163ffffffff1660e01b815260040160206040518083038186803b158015612e0157600080fd5b505afa158015612e15573d6000803e3d6000fd5b505050506040513d6020811015612e2b57600080fd5b810190808051906020019092919050505082608001516137c490919063ffffffff16565b8161010001818152505080600e6000808152602001908152602001600020600082015181600001556020820151816001015560408201518160020155606082015181600301556080820151816004015560a08201518160050160006101000a81548160ff02191690831515021790555060c08201518160050160016101000a81548160ff02191690831515021790555060e08201518160050160026101000a81548160ff02191690831515021790555061010082015181600601556101208201518160070155610140820151816008019080519060200190612f32929190614415565b50905050600760009054906101000a900473ffffffffffffffffffffffffffffffffffffffff1673ffffffffffffffffffffffffffffffffffffffff16631fab5af76000600560009054906101000a900473ffffffffffffffffffffffffffffffffffffffff1673ffffffffffffffffffffffffffffffffffffffff1663b0e2ac8c60006040518263ffffffff1660e01b815260040180828152602001915050602060405180830381600087803b158015612fec57600080fd5b505af1158015613000573d6000803e3d6000fd5b505050506040513d602081101561301657600080fd5b81019080805190602001909291905050506040518363ffffffff1660e01b81526004018083815260200182815260200192505050600060405180830381600087803b15801561306457600080fd5b505af1158015613078573d6000803e3d6000fd5b505050506130926001600a546137c490919063ffffffff16565b600a819055507fa58001537a1da0525302ba248bd1487dd10bfe9b02a43cc27d99af51f085a7f3600042604051808381526020018281526020019250505060405180910390a15050565b600360009054906101000a900473ffffffffffffffffffffffffffffffffffffffff1681565b600080600260009054906101000a900473ffffffffffffffffffffffffffffffffffffffff1673ffffffffffffffffffffffffffffffffffffffff16634b341aed856040518263ffffffff1660e01b8152600401808273ffffffffffffffffffffffffffffffffffffffff1673ffffffffffffffffffffffffffffffffffffffff16815260200191505060206040518083038186803b1580156131a457600080fd5b505afa1580156131b8573d6000803e3d6000fd5b505050506040513d60208110156131ce57600080fd5b810190808051906020019092919050505090506000600260009054906101000a900473ffffffffffffffffffffffffffffffffffffffff1673ffffffffffffffffffffffffffffffffffffffff1663817b1cd26040518163ffffffff1660e01b815260040160206040518083038186803b15801561324b57600080fd5b505afa15801561325f573d6000803e3d6000fd5b505050506040513d602081101561327557600080fd5b810190808051906020019092919050505090506000600e60008681526020019081526020016000206002015490506132c8826132ba83866142b090919063ffffffff16565b6142e790919063ffffffff16565b935050505092915050565b6000600e6000838152602001908152602001600020600201549050919050565b6060600e600083815260200190815260200160002060080180548060200260200160405190810160405280929190818152602001828054801561338b57602002820191906000526020600020905b8160009054906101000a900473ffffffffffffffffffffffffffffffffffffffff1673ffffffffffffffffffffffffffffffffffffffff1681526020019060010190808311613341575b50505050509050919050565b600160009054906101000a900473ffffffffffffffffffffffffffffffffffffffff1681565b60006133d56001600a546137ad90919063ffffffff16565b905090565b6000809054906101000a900473ffffffffffffffffffffffffffffffffffffffff1673ffffffffffffffffffffffffffffffffffffffff163373ffffffffffffffffffffffffffffffffffffffff161461343057fe5b600073ffffffffffffffffffffffffffffffffffffffff168173ffffffffffffffffffffffffffffffffffffffff16146134a557806000806101000a81548173ffffffffffffffffffffffffffffffffffffffff021916908373ffffffffffffffffffffffffffffffffffffffff1602179055505b50565b6000600d54905090565b6000600a54905090565b6000806134c76133bd565b90506000600e600083815260200190815260200160002060060154905042811115613508576134ff42826137ad90919063ffffffff16565b9250505061350f565b6000925050505b90565b600073ffffffffffffffffffffffffffffffffffffffff16600160009054906101000a900473ffffffffffffffffffffffffffffffffffffffff1673ffffffffffffffffffffffffffffffffffffffff1614156135d7576040517f08c379a00000000000000000000000000000000000000000000000000000000081526004018080602001828103825260088152602001807f4e6f2050726f787900000000000000000000000000000000000000000000000081525060200191505060405180910390fd5b6000600160009054906101000a900473ffffffffffffffffffffffffffffffffffffffff1673ffffffffffffffffffffffffffffffffffffffff166335817773836040518263ffffffff1660e01b81526004018080602001828103825283818151815260200191508051906020019080838360005b8381101561366757808201518184015260208101905061364c565b50505050905090810190601f1680156136945780820380516001836020036101000a031916815260200191505b509250505060206040518083038186803b1580156136b157600080fd5b505afa1580156136c5573d6000803e3d6000fd5b505050506040513d60208110156136db57600080fd5b81019080805190602001909291905050509050600073ffffffffffffffffffffffffffffffffffffffff168173ffffffffffffffffffffffffffffffffffffffff16141561372557fe5b8073ffffffffffffffffffffffffffffffffffffffff163373ffffffffffffffffffffffffffffffffffffffff16146137a9576040517f08c379a000000000000000000000000000000000000000000000000000000000815260040180806020018281038252602d81526020018061458a602d913960400191505060405180910390fd5b5050565b6000828211156137b957fe5b818303905092915050565b6000808284019050838110156137d657fe5b8091505092915050565b600080600560009054906101000a900473ffffffffffffffffffffffffffffffffffffffff1673ffffffffffffffffffffffffffffffffffffffff166360dace5d846040518263ffffffff1660e01b81526004018082815260200191505060206040518083038186803b15801561385657600080fd5b505afa15801561386a573d6000803e3d6000fd5b505050506040513d602081101561388057600080fd5b810190808051906020019092919050505090506001600e600085815260200190815260200160002060050160006101000a81548160ff02191690831515021790555080600e60008581526020019081526020016000206002018190555080600e600085815260200190815260200160002060030181905550827f4ca85a1571f411b18e5928bc58464e2dd49a1cad990f082ef201114b82b0bd85826040518082815260200191505060405180910390a26001915050919050565b600f60008473ffffffffffffffffffffffffffffffffffffffff1673ffffffffffffffffffffffffffffffffffffffff16815260200190815260200160002060010154600f60008573ffffffffffffffffffffffffffffffffffffffff1673ffffffffffffffffffffffffffffffffffffffff1681526020019081526020016000206000018190555080600f60008573ffffffffffffffffffffffffffffffffffffffff1673ffffffffffffffffffffffffffffffffffffffff168152602001908152602001600020600101819055506001600f60008573ffffffffffffffffffffffffffffffffffffffff1673ffffffffffffffffffffffffffffffffffffffff168152602001908152602001600020600301600084815260200190815260200160002060006101000a81548160ff021916908315150217905550613acc6001600f60008673ffffffffffffffffffffffffffffffffffffffff1673ffffffffffffffffffffffffffffffffffffffff168152602001908152602001600020600401546137c490919063ffffffff16565b600f60008573ffffffffffffffffffffffffffffffffffffffff1673ffffffffffffffffffffffffffffffffffffffff168152602001908152602001600020600401819055506000600f60008573ffffffffffffffffffffffffffffffffffffffff1673ffffffffffffffffffffffffffffffffffffffff1681526020019081526020016000206005015411613b63576000613bba565b613bb96001600f60008673ffffffffffffffffffffffffffffffffffffffff1673ffffffffffffffffffffffffffffffffffffffff168152602001908152602001600020600501546137ad90919063ffffffff16565b5b600f60008573ffffffffffffffffffffffffffffffffffffffff1673ffffffffffffffffffffffffffffffffffffffff16815260200190815260200160002060050181905550505050565b613c2e81600e6000858152602001908152602001600020600301546137ad90919063ffffffff16565b600e600084815260200190815260200160002060030181905550613c726001600e6000858152602001908152602001600020600701546137c490919063ffffffff16565b600e600084815260200190815260200160002060070181905550600e60008381526020019081526020016000206008018390806001815401808255809150509060018203906000526020600020016000909192909190916101000a81548173ffffffffffffffffffffffffffffffffffffffff021916908373ffffffffffffffffffffffffffffffffffffffff16021790555050613d1b816009546137c490919063ffffffff16565b600981905550817fb0a2ded49817748754bcca0474b24011f01d4574dd5c40e14197ffa2e6540fef600e600085815260200190815260200160002060030154600e60008681526020019081526020016000206007015460095460405180848152602001838152602001828152602001935050505060405180910390a2505050565b6000600160009054906101000a900473ffffffffffffffffffffffffffffffffffffffff1673ffffffffffffffffffffffffffffffffffffffff1663358177736040518060400160405280600681526020017f526f6c65444200000000000000000000000000000000000000000000000000008152506040518263ffffffff1660e01b81526004018080602001828103825283818151815260200191508051906020019080838360005b83811015613e61578082015181840152602081019050613e46565b50505050905090810190601f168015613e8e5780820380516001836020036101000a031916815260200191505b509250505060206040518083038186803b158015613eab57600080fd5b505afa158015613ebf573d6000803e3d6000fd5b505050506040513d6020811015613ed557600080fd5b810190808051906020019092919050505073ffffffffffffffffffffffffffffffffffffffff16636c9cd09783613f0a614300565b6040518363ffffffff1660e01b815260040180806020018373ffffffffffffffffffffffffffffffffffffffff1673ffffffffffffffffffffffffffffffffffffffff168152602001828103825284818151815260200191508051906020019080838360005b83811015613f8b578082015181840152602081019050613f70565b50505050905090810190601f168015613fb85780820380516001836020036101000a031916815260200191505b50935050505060206040518083038186803b158015613fd657600080fd5b505afa158015613fea573d6000803e3d6000fd5b505050506040513d602081101561400057600080fd5b81019080805190602001909291905050509050919050565b60006140226133bd565b9050600e6000828152602001908152602001600020600601544211156140b0576040517f08c379a000000000000000000000000000000000000000000000000000000000815260040180806020018281038252601a8152602001807f506f6f6c2068617320616c726561647920646973736f6c76656400000000000081525060200191505060405180910390fd5b6140c46001426137ad90919063ffffffff16565b600e6000838152602001908152602001600020600601819055506000600e600083815260200190815260200160002060050160016101000a81548160ff0219169083151502179055506001600e600083815260200190815260200160002060050160026101000a81548160ff021916908315150217905550807f886fe93e7903b81993e720f87f666d97e0152d2b06aaee257169f8aa47173647426040518082815260200191505060405180910390a250565b600081116141d0576040517f08c379a00000000000000000000000000000000000000000000000000000000081526004018080602001828103825260228152602001806144e36022913960400191505060405180910390fd5b6141f981600e6000858152602001908152602001600020600401546137c490919063ffffffff16565b600e60008481526020019081526020016000206004018190555061423c81600e6000858152602001908152602001600020600601546137c490919063ffffffff16565b600e600084815260200190815260200160002060060181905550817faad844399026cc01559211c9b31985959b8791475f098b83bb8c09c791cabd0982600e600086815260200190815260200160002060040154604051808381526020018281526020019250505060405180910390a25050565b6000808314156142c357600090506142e1565b60008284029050828482816142d457fe5b04146142dc57fe5b809150505b92915050565b6000808284816142f357fe5b0490508091505092915050565b6000600160009054906101000a900473ffffffffffffffffffffffffffffffffffffffff1673ffffffffffffffffffffffffffffffffffffffff163373ffffffffffffffffffffffffffffffffffffffff161461435f573390506143b2565b6000601436036000602052601481602c37602051915050600073ffffffffffffffffffffffffffffffffffffffff168173ffffffffffffffffffffffffffffffffffffffff1614156143ad57fe5b809150505b90565b60405180610160016040528060008152602001600081526020016000815260200160008152602001600081526020016000151581526020016000151581526020016000151581526020016000815260200160008152602001606081525090565b82805482825590600052602060002090810192821561448e579160200282015b8281111561448d5782518260006101000a81548173ffffffffffffffffffffffffffffffffffffffff021916908373ffffffffffffffffffffffffffffffffffffffff16021790555091602001919060010190614435565b5b50905061449b919061449f565b5090565b6144df91905b808211156144db57600081816101000a81549073ffffffffffffffffffffffffffffffffffffffff0219169055506001016144a5565b5090565b9056fe47616d696e672064656c6179206d757374206265206c6f6e676572207468616e2030596f7520646f6e2774206861766520616e7920737570657244616f20746f6b656e73207374616b65642063757272656e746c79596f75206861766520616c726561647920636c61696d65642066726f6d207468697320706f6f6c5468697320706f6f6c206973206e6f7420617661696c61626c6520666f7220636c61696d696e6720796574416363657373206973206f6e6c7920616c6c6f7765642066726f6d20737065636966696320636f6e7472616374596f7520617265206e6f7420656c696769626c6520746f20636c61696d20666f72207468697320706f6f6ca265627a7a72315820033d1fa1d1a995029f48e271deb8a3c2a1e882d22487ecc864ea910fe610a8ea64736f6c63430005110032",
  "source": "/**\r\n* @title WithdrawPool\r\n*\r\n* @author @ziweidream @Xaleee\r\n*\r\n*/\r\npragma solidity ^0.5.5;\r\n\r\nimport \"../modules/proxy/Proxied.sol\";\r\nimport \"../authority/Guard.sol\";\r\nimport \"../modules/datetime/TimeFrame.sol\";\r\nimport \"../libs/SafeMath.sol\";\r\nimport \"../interfaces/IStaking.sol\";\r\nimport \"../interfaces/ERC20Standard.sol\";\r\nimport \"../modules/databases/EndowmentDB.sol\";\r\nimport \"../modules/endowment/EndowmentFund.sol\";\r\nimport \"../modules/endowment/EarningsTracker.sol\";\r\n\r\ncontract WithdrawPool is Proxied, Guard {\r\n\r\n    using SafeMath for uint256;\r\n\r\n    /*                                               GENERAL VARIABLES                                                */\r\n    /*                                                     START                                                      */\r\n    /* ============================================================================================================== */\r\n\r\n    IStaking public staking;\r\n\r\n    ERC20Standard public superDaoToken;\r\n\r\n    TimeFrame public timeFrame;\r\n\r\n    EndowmentDB public endowmentDB;\r\n\r\n    EndowmentFund public endowmentFund;\r\n\r\n    EarningsTracker public earningsTracker;\r\n\r\n\r\n    uint256 staking_period; //Time needed a staker to stake, so as to be able to claim.\r\n\r\n    //uint256 validClaimTime; //Valid time duration during which a staker can claim his/her dividends from a pool, after this valid time the pool will be dissolved, and unclaimed ether returned back to endowment\r\n\r\n    uint256 totalEthPaidOut; //The total amount of Eth this contract paid to stakers.\r\n\r\n    uint256 noOfPools; //The number of all pools created.\r\n\r\n    uint256 noOfDissolvedPools; //The number of all pools that have been dissolved.\r\n\r\n    uint256 noOfOpenPools; //The number of all pools yet to be dissolved.\r\n\r\n    uint256 noOfTotalStakers; //The number of total stakers that withdrew from this contract.\r\n\r\n    /*                                               GENERAL VARIABLES                                                */\r\n    /*                                                      END                                                       */\r\n    /* ============================================================================================================== */\r\n\r\n    /*                                                 POOL VARIABLES                                                 */\r\n    /*                                                     START                                                      */\r\n    /* ============================================================================================================== */\r\n\r\n    struct WithdrawalPool {\r\n        uint256 epochID;            // epochID of the epoch asscoated with this pool\r\n        uint256 blockNumber;        //The block number of the block in which this pool was created\r\n        uint256 initialETHAvailable; // How much Eth this pool initially has, which is the amount of eth distributed\r\n                                     // to this pool when the associated honeypot dissolves\r\n        uint256 ETHAvailable;       //How much Eth this pool contains.\r\n        uint256 dateAvailable;      //When this pool's Eth will be available for withdrawal, in unix time\r\n        bool initialETHadded;    // check whether initial ether is recorded in withdrawPool\r\n        bool unlocked;              //If this is true when rest_day starts stakers will be able to claim.\r\n        bool dissolved;             //If this is true the pool has been dissolved, otherwise has not.\r\n        uint256 dateDissolved;      //The date this pool got dissolved in unix time.\r\n        //uint256 stakersEligible;    //How many stakers are eligible to claim from this pool.\r\n        uint256 stakersClaimed;     //How many stakers claimed from this pool.\r\n        address[] allClaimedStakers; //Addresses of all stakers who have claimed from this pool.\r\n        //address[] eligibleStakers; //Addresses of all stakers that are eligible to claim from this pool.\r\n    }\r\n\r\n    struct Staker{\r\n        //uint256 stakeStartDate;        //Timestamp of the date this staker started to stake.\r\n        uint256 previousStartTime;      //Block Number of the block in which this staker started to stake the previous time.\r\n        uint256 stakeStartTime;         //Block Number of the block in which this staker started to lock superDao.\r\n        mapping(uint256 => bool) staking;                   //\r\n        mapping(uint256 => bool) claimed; // true if this staker has already claimed from this pool\r\n        uint256 totalPoolsClaimed;      //From how many pools this staker claimed funds.\r\n        uint256 currentAvailablePools;  //From how many pools this staker hasn't yet claimed, while he is eligible.\r\n    }\r\n\r\n    mapping(uint256 => WithdrawalPool) public weeklyPools; //Ids for all weekly pools\r\n\r\n    mapping(address => Staker) internal stakers; //Stake information about this address\r\n\r\n    // mapping(uint256 => bool) internal dissolveScheduled; //True if a pool is already scheduled for dissolve\r\n    // uint256 public scheduledJob;                 //Current cronJob ID of the cronJob scheduled for pool dissolving\r\n    // mapping (uint => uint) public scheduledJobs; // Mapping pool_id to cronJob ID which schdules dissolving this pool\r\n\r\n    //address[] internal potentialStakers; // A list of the addresses of SuperDao holders who stake their tokens,\r\n                                         // may not eligible for claiming yields\r\n                                         //if not meeting staking period requirement\r\n\r\n    /*                                                 POOL VARIABLES                                                 */\r\n    /*                                                      END                                                       */\r\n    /* ============================================================================================================== */\r\n\r\n    /*                                                   MODIFIERS                                                    */\r\n    /*                                                     START                                                      */\r\n    /* ============================================================================================================== */\r\n\r\n    //modifier onlyCronJob() {\r\n      //  require(msg.sender == cronJob, \"WithdrawPool: Only CronJob\");\r\n        //_;\r\n    //}\r\n\r\n    //modifier onlyEndowmentFund() {\r\n      //  require(msg.sender == endowmentFund, \"WithdrawPool: Only EndowmentFund\");\r\n        //_;\r\n    //}\r\n\r\n    modifier onlyActivePool(uint pool_id) {\r\n         require(pool_id == getActivePoolID());\r\n         _;\r\n     }\r\n\r\n\r\n    /*                                                    MODIFIERS                                                   */\r\n    /*                                                       END                                                      */\r\n    /* ============================================================================================================== */\r\n\r\n    /*                                                   CONSTRUCTOR                                                  */\r\n    /*                                                      START                                                     */\r\n    /* ============================================================================================================== */\r\n\r\n    function initialize(address _stakingContract, address _superDaoToken)\r\n        external\r\n        onlyOwner\r\n    {\r\n        timeFrame = TimeFrame(proxy.getContract(CONTRACT_NAME_TIMEFRAME));\r\n        staking = IStaking(_stakingContract);\r\n        endowmentFund = EndowmentFund(proxy.getContract(CONTRACT_NAME_ENDOWMENT_FUND));\r\n        superDaoToken = ERC20Standard(_superDaoToken);\r\n        endowmentDB = EndowmentDB(proxy.getContract(CONTRACT_NAME_ENDOWMENT_DB));\r\n        earningsTracker = EarningsTracker(proxy.getContract(CONTRACT_NAME_EARNINGS_TRACKER));\r\n    }\r\n\r\n    /*                                                   CONSTRUCTOR                                                  */\r\n    /*                                                       END                                                      */\r\n    /* ============================================================================================================== */\r\n\r\n    // events\r\n    event Pool0Set(uint256 pool_id, uint256 createTime);\r\n    event AddETHtoPool(uint256 indexed pool_id, uint256 amountETH);\r\n    event CheckStakersEligibility(uint256 indexed pool_id, uint256 numberOfStakersEligible, uint256 checkingTime);\r\n    event PoolUpdated(\r\n        uint256 indexed pool_id,\r\n        uint256 ETHAvailableInPool,\r\n        uint256 stakersClaimedForPool,\r\n        uint256 totalEthPaidOut\r\n    );\r\n    event ClaimYield(uint256 indexed pool_id, address indexed account, uint256 yield);\r\n    //event PoolDissolveScheduled(uint256 indexed scheduledJob, uint256 dissolveTime, uint256 indexed pool_id);\r\n    event ReturnUnclaimedETHtoEscrow(uint256 indexed pool_id, uint256 unclaimedETH, address receiver);\r\n    event PoolDissolved(uint256 indexed pool_id, uint256 dissolveTime);\r\n    event NewPoolCreated(uint256 indexed newPoolId, uint256 newPoolCreationTime);\r\n    event GamingDelayAddedtoPool(\r\n        uint256 indexed _pool_id,\r\n        uint256 _gamingDelay,\r\n        uint256 newAvailableTimeForClaiming\r\n    );\r\n\r\n    /*                                                 STAKER FUNCTIONS                                               */\r\n    /*                                                      START                                                     */\r\n    /* ============================================================================================================== */\r\n\r\n    /**\r\n     * @dev This function is used by stakers to claim their yields.\r\n     * @param pool_id The pool from which they would like to claim.\r\n     */\r\n    function claimYield(uint256 pool_id)\r\n    external returns(bool)\r\n    {\r\n        require(weeklyPools[pool_id].dateAvailable <= now, \"This pool is not available for claiming yet\");\r\n        require(weeklyPools[pool_id].unlocked == true, \"This pool is locked\");\r\n        require(weeklyPools[pool_id].dissolved == false, \"This pool is already dissolved\");\r\n\r\n        // the claimer must have tokens staked in the staking contract at this moment\r\n        require(staking.totalStakedFor(msg.sender) > 0, \"You don't have any superDao tokens staked currently\");\r\n\r\n        // get the last time that the claimer's staked token amount has been changed\r\n        // the tokens need to be staked before the the current epoch started\r\n        uint256 lastModifiedBlockNumber = staking.lastStakedFor(msg.sender);\r\n        require(lastModifiedBlockNumber <= weeklyPools[pool_id].blockNumber, \"You are not eligible to claim for this pool\");\r\n        require(stakers[msg.sender].claimed[pool_id] == false, \"You have already claimed from this pool\");\r\n\r\n        // record initial ether in pool in withdrawPool struct\r\n        // only need to be called once for each pool\r\n        if (weeklyPools[pool_id].initialETHadded == false &&\r\n            weeklyPools[pool_id].initialETHAvailable == 0) {\r\n                addAmountToPool(pool_id);\r\n            }\r\n\r\n        // update staker\r\n        _updateStaker(msg.sender, pool_id, lastModifiedBlockNumber);\r\n        // calculate the amount of ether entitled to the caller\r\n        uint256 yield = checkYield(msg.sender, pool_id);\r\n        // update pool data\r\n        _updatePool(msg.sender, pool_id, yield);\r\n        // pay dividend to the caller\r\n        require(endowmentFund.transferETHfromEscrowWithdrawalPool(msg.sender, yield, pool_id));\r\n\r\n        emit ClaimYield(pool_id, msg.sender, yield);\r\n        return true;\r\n    }\r\n\r\n    /**\r\n     * @dev This function is used, so as to check how much Eth a staker can withdraw from a specific pool.\r\n     * @param pool_id The pool from which they would like to claim.\r\n     * @param staker The address of the staker we would like to check.\r\n     */\r\n    function checkYield(address staker, uint256 pool_id)\r\n        public\r\n        view\r\n    returns(uint256)\r\n    {\r\n        // divided by 1000000000 because getPercentagePool() returns a value amplified by 1000000000\r\n        //return getPercentageSuperDao(staker).mul(weeklyPools[pool_id].initialETHAvailable).div(1000000000);\r\n        uint256 stakedByStaker = staking.totalStakedFor(staker);\r\n        uint256 stakedByAllStakers = staking.totalStaked();\r\n        uint256 initialETHinPool = weeklyPools[pool_id].initialETHAvailable;\r\n        return stakedByStaker.mul(initialETHinPool).div(stakedByAllStakers);\r\n    }\r\n\r\n    /*                                                 STAKER FUNCTIONS                                               */\r\n    /*                                                       END                                                      */\r\n    /* ============================================================================================================== */\r\n\r\n    /*                                                 SETTER FUNCTIONS                                               */\r\n    /*                                                      START                                                     */\r\n    /* ============================================================================================================== */\r\n\r\n    function setPool_0() public onlyOwner {\r\n        require(noOfPools == 0, \"Pool 0 already exists\");\r\n        timeFrame.setEpoch_0();\r\n        uint256 epoch0StartTime = now;\r\n        WithdrawalPool memory withdrawalPool;\r\n        withdrawalPool.epochID = 0; // poolId is the same as its associated epoch\r\n        withdrawalPool.blockNumber = block.number;\r\n        withdrawalPool.dateAvailable = epoch0StartTime.add(timeFrame.SIX_WORKING_DAYS());\r\n        withdrawalPool.dateDissolved = withdrawalPool.dateAvailable.add(timeFrame.REST_DAY());\r\n        \r\n        weeklyPools[0] = withdrawalPool;\r\n        earningsTracker.setInvestment(0, endowmentDB.checkInvestment(0));\r\n\r\n        noOfPools = noOfPools.add(1);\r\n\r\n        emit Pool0Set(0, now);\r\n    }\r\n\r\n    /**\r\n      * @dev adds gaming delay to a pool\r\n      * This function should be called by GameManager when the last game\r\n      * in an epoch runs longer than the intended sixDayEnd\r\n      * @param pool_id the id of the pool\r\n      * @param gamingDelay gaming delay time in seconds\r\n      */\r\n     function addGamingDelayToPool(uint pool_id, uint gamingDelay)\r\n         public\r\n         onlyActivePool(pool_id)\r\n         onlyContract(CONTRACT_NAME_GAMEMANAGER)\r\n     {\r\n         _addGamingDelayToPool(pool_id, gamingDelay);\r\n     }\r\n\r\n     function setInterestToEarningsTracker(uint256 pool_id, uint256 total)\r\n     external\r\n     onlyContract(CONTRACT_NAME_GAMESTORE)\r\n     {\r\n        weeklyPools[pool_id].unlocked = true;\r\n        uint256 delay;\r\n        if(now > weeklyPools[pool_id].dateAvailable) {\r\n            delay = now.sub(weeklyPools[pool_id].dateAvailable);\r\n            weeklyPools[pool_id].dateAvailable = now;\r\n            weeklyPools[pool_id].dateDissolved =\r\n                weeklyPools[pool_id].dateAvailable.add(timeFrame.REST_DAY());\r\n        }\r\n        timeFrame.unlockAndAddDelay(pool_id, delay);\r\n        earningsTracker.setInterest(pool_id, total);\r\n     }\r\n\r\n    /**\r\n     * @dev This function is used by owner to change stakingContract's address.\r\n     * @param _stakingContract The address of the new stakingContract.\r\n     */\r\n    function setStakingContract(address _stakingContract)\r\n        external\r\n        onlyOwner\r\n    {\r\n        staking = IStaking(_stakingContract);\r\n    }\r\n\r\n    function terminateEpochAndPoolManually()\r\n        public\r\n        onlySuperAdmin\r\n    {\r\n        timeFrame.terminateEpochManually();\r\n        _terminatePool();\r\n    }\r\n\r\n    function setNewEpochAndPoolManually()\r\n        public\r\n        onlySuperAdmin\r\n    {\r\n        timeFrame.setNewEpochManually();\r\n        uint256 _newPoolId = noOfPools;\r\n        weeklyPools[_newPoolId].epochID = _newPoolId; // poolId is always the same as its associated epoch\r\n        weeklyPools[_newPoolId].blockNumber = block.number;\r\n        weeklyPools[_newPoolId].dateAvailable = now.add(timeFrame.SIX_WORKING_DAYS());\r\n        weeklyPools[_newPoolId].dateDissolved = weeklyPools[_newPoolId].dateAvailable.add(timeFrame.REST_DAY());\r\n\r\n        earningsTracker.setInvestment(_newPoolId, endowmentDB.checkInvestment(_newPoolId));\r\n\r\n        noOfPools = noOfPools.add(1);\r\n\r\n        emit NewPoolCreated(_newPoolId, now);\r\n    }\r\n\r\n\r\n    /*                                                 SETTER FUNCTIONS                                               */\r\n    /*                                                       END                                                      */\r\n    /* ============================================================================================================== */\r\n\r\n    /*                                                 GETTER FUNCTIONS                                               */\r\n    /*                                                      START                                                     */\r\n    /* ============================================================================================================== */\r\n\r\n    /**\r\n     * @dev This function is returning the Ether that has been claimed by this contract till now.\r\n     */\r\n    function getEthPaidOut()\r\n    external\r\n    view\r\n    returns(uint256)\r\n    {\r\n        return totalEthPaidOut;\r\n    }\r\n\r\n    /**\r\n     * @dev This function is returning the total number of Pools that were created.\r\n     */\r\n    function getTotalNumberOfPools()\r\n    external\r\n    view\r\n    returns(uint256)\r\n    {\r\n        return noOfPools;\r\n    }\r\n\r\n    /**\r\n     * @dev This function is returning the total number of Pools that have been dissolved.\r\n     */\r\n    function getNumberOfDissolvedPools()\r\n    external\r\n    view\r\n    returns(uint256)\r\n    {\r\n        return noOfDissolvedPools;\r\n    }\r\n\r\n    //TODO: there should always be only 1 open pool at any time, so this function is stale.\r\n    /**\r\n     * @dev This function is returning the total number of Pools that are still open.\r\n     */\r\n    function getNumberOfOpenPools()\r\n    external\r\n    view\r\n    returns(uint256)\r\n    {\r\n        return noOfOpenPools;\r\n    }\r\n\r\n    /**\r\n     * @dev This function is returning the total number of Stakers that claimed from this contract.\r\n     */\r\n    function getNumberOfTotalStakers()\r\n    external\r\n    view\r\n    returns(uint256)\r\n    {\r\n        return noOfTotalStakers;\r\n    }\r\n\r\n    /**\r\n     * @dev This function is returning the total number of Tokens that are staked.\r\n     */\r\n    function getNumberOfTokensStaked()\r\n    external\r\n    view\r\n    returns(uint256)\r\n    {\r\n        return staking.totalStaked();\r\n    }\r\n\r\n    // calculate the percentage of a staker's token staked in the total SuperDao tokens minted\r\n    function getPercentageSuperDao(address account)\r\n        //internal\r\n        public\r\n        view\r\n        returns (uint256)\r\n    {\r\n        uint256 total = superDaoToken.totalSupply(); // TODO: total minted\r\n        uint256 stakedAmount = staking.totalStakedFor(account);\r\n        uint256 percentagePool = stakedAmount.mul(1000000000).div(total); // multiply 1000000000 to ensure it is always an integer\r\n        return percentagePool;\r\n    }\r\n\r\n    // get the pool ID of the currently active pool\r\n    // The ID of the active pool is the same as the ID of the active epoch\r\n    function getActivePoolID()\r\n        public\r\n        view\r\n        returns (uint256)\r\n    {\r\n        //return timeFrame.getActiveEpochID();\r\n        return noOfPools.sub(1);\r\n    }\r\n\r\n    // get the initial ether available in a pool\r\n    function getInitialETH(uint256 _poolID)\r\n        public\r\n        view\r\n        returns (uint256)\r\n    {\r\n        return weeklyPools[_poolID].initialETHAvailable;\r\n    }\r\n\r\n    // get all stakers who have received yields from a pool with _poolID\r\n    function getAllClaimersForPool(uint256 _poolID)\r\n        public\r\n        view\r\n        returns (address[] memory)\r\n    {\r\n        return weeklyPools[_poolID].allClaimedStakers;\r\n    }\r\n\r\n     /**\r\n      * @dev return the time remaining (in seconds) until time availabe for claiming the current pool\r\n      * only current pool can be claimed\r\n      */\r\n     function timeUntilClaiming() public view returns (uint256) {\r\n         uint256 pool_id = getActivePoolID();\r\n         require(weeklyPools[pool_id].dissolved == false, \"Pool already dissolved\");\r\n         uint256 claimTime = weeklyPools[pool_id].dateAvailable;\r\n         if (claimTime > now) {\r\n             return claimTime.sub(now);\r\n         } else {\r\n             return 0;\r\n         }\r\n\r\n     }\r\n\r\n     /**\r\n      * @dev return the time remaining (in seconds) until time for dissolving the current pool\r\n      * If the pool is already dissolved, returns 0.\r\n      */\r\n     function timeUntilPoolDissolve() public view returns (uint256) {\r\n         uint256 pool_id = getActivePoolID();\r\n         uint256 dissolveTime = weeklyPools[pool_id].dateDissolved;\r\n         if (dissolveTime > now) {\r\n             return dissolveTime.sub(now);\r\n         } else {\r\n             return 0;\r\n         }\r\n     }\r\n\r\n    /*                                                 GETTER FUNCTIONS                                               */\r\n    /*                                                       END                                                      */\r\n    /* ============================================================================================================== */\r\n\r\n    /*                                                INTERNAL FUNCTIONS                                              */\r\n    /*                                                      START                                                     */\r\n    /* ============================================================================================================== */\r\n    /**\r\n     * @dev This function adds initial ether allocation to a pool with pool_id\r\n     * @dev This function is called only once when the first claimer claims from this pool\r\n     */\r\n    function addAmountToPool(uint256 pool_id)\r\n        internal\r\n        returns (bool)\r\n    {\r\n        uint256 totalETHtoPool = endowmentDB.getETHinPool(pool_id);\r\n        weeklyPools[pool_id].initialETHadded = true;\r\n        weeklyPools[pool_id].initialETHAvailable = totalETHtoPool;\r\n        weeklyPools[pool_id].ETHAvailable = totalETHtoPool;\r\n        emit AddETHtoPool(pool_id, totalETHtoPool);\r\n        return true;\r\n    }\r\n\r\n    /**\r\n     * @dev This function is used by cronJob to dissolve an old pool at its dissolving time\r\n     * and create a new pool.\r\n     * @dev Any unclaimed ethers left in the old pool is returned to endowmentFund upon the pool's dissolution\r\n     */\r\n    function dissolveOldCreateNew()\r\n    public\r\n    onlyContract(CONTRACT_NAME_GAMESTORE)\r\n    {\r\n        uint256 pool_id = noOfPools.sub(1);\r\n        // dissolve the old pool\r\n        weeklyPools[pool_id].dissolved = true;\r\n\r\n        noOfDissolvedPools = noOfDissolvedPools.add(1);\r\n\r\n        // create new pool\r\n        uint256 newPoolId = pool_id.add(1);\r\n        weeklyPools[newPoolId].epochID = newPoolId; // poolId is always the same as its associated epoch\r\n        weeklyPools[newPoolId].blockNumber = block.number;\r\n        weeklyPools[newPoolId].dateAvailable = now.add(timeFrame.SIX_WORKING_DAYS());\r\n        weeklyPools[newPoolId].dateDissolved = weeklyPools[newPoolId].dateAvailable.add(timeFrame.REST_DAY());\r\n\r\n        earningsTracker.setInvestment(newPoolId, endowmentDB.checkInvestment(newPoolId));\r\n        noOfPools = noOfPools.add(1);\r\n\r\n        emit PoolDissolved(pool_id, now);\r\n\r\n        emit NewPoolCreated(newPoolId, now);\r\n    }\r\n\r\n    /**\r\n     * @dev This function is used to update pool data, when a claim occurs.\r\n     * @param pool_id The pool id.\r\n     */\r\n    function _updatePool(address _staker, uint256 pool_id, uint256 _yield)\r\n    internal\r\n    {\r\n        weeklyPools[pool_id].ETHAvailable = weeklyPools[pool_id].ETHAvailable.sub(_yield);\r\n        weeklyPools[pool_id].stakersClaimed = weeklyPools[pool_id].stakersClaimed.add(1);\r\n        weeklyPools[pool_id].allClaimedStakers.push(_staker);\r\n        totalEthPaidOut = totalEthPaidOut.add(_yield);\r\n\r\n        emit PoolUpdated(\r\n            pool_id,\r\n            weeklyPools[pool_id].ETHAvailable,\r\n            weeklyPools[pool_id].stakersClaimed,\r\n            totalEthPaidOut\r\n        );\r\n    }\r\n\r\n    /**\r\n     * @dev This function is used to update staker's data, when a claim occurs.\r\n     */\r\n    function _updateStaker(address _staker, uint256 pool_id, uint256 _stakeStartTime)\r\n    internal\r\n    {\r\n        stakers[_staker].previousStartTime = stakers[_staker].stakeStartTime;\r\n        stakers[_staker].stakeStartTime = _stakeStartTime;\r\n        //stakers[_staker].staking[pool_id] = true;\r\n        stakers[_staker].claimed[pool_id] = true;\r\n        stakers[_staker].totalPoolsClaimed = stakers[_staker].totalPoolsClaimed.add(1);\r\n        stakers[_staker].currentAvailablePools = stakers[_staker].currentAvailablePools > 0 ?\r\n                                                 stakers[_staker].currentAvailablePools.sub(1) : 0;\r\n    }\r\n\r\n    /**\r\n      * @dev adds gaming delay to a pool\r\n      * @param _pool_id the id of the pool\r\n      * @param _gamingDelay gaming delay time in seconds\r\n      */\r\n     function _addGamingDelayToPool(uint _pool_id, uint _gamingDelay)\r\n         internal\r\n     {\r\n         require(_gamingDelay > 0, \"Gaming delay must be longer than 0\");\r\n         weeklyPools[_pool_id].dateAvailable = weeklyPools[_pool_id].dateAvailable.add(_gamingDelay);\r\n         weeklyPools[_pool_id].dateDissolved = weeklyPools[_pool_id].dateDissolved.add(_gamingDelay);\r\n         emit GamingDelayAddedtoPool(_pool_id, _gamingDelay, weeklyPools[_pool_id].dateAvailable);\r\n     }\r\n\r\n    /**\r\n      * @dev terminates a pool\r\n      */\r\n    function _terminatePool() internal {\r\n        uint256 _pool_id = getActivePoolID();\r\n        require(now <= weeklyPools[_pool_id].dateDissolved, \"Pool has already dissolved\");\r\n        weeklyPools[_pool_id].dateDissolved = now.sub(1);\r\n        weeklyPools[_pool_id].unlocked = false;\r\n        weeklyPools[_pool_id].dissolved = true;\r\n\r\n        emit PoolDissolved(_pool_id, now);\r\n    }\r\n    \r\n    /*                                                INTERNAL FUNCTIONS                                              */\r\n    /*                                                       END                                                      */\r\n    /* ============================================================================================================== */\r\n}\r\n",
  "sourcePath": "C:\\Users\\Alex\\Desktop\\MyProjects\\contracts\\contracts\\withdrawPool\\WithdrawPool.sol",
  "compiler": {
    "name": "solc",
    "version": "0.5.17+commit.d19bba13.Emscripten.clang"
  },
  "schemaVersion": "3.0.11",
  "updatedAt": "2020-05-15T23:56:35.731Z",
  "devdoc": {
    "methods": {
      "addGamingDelayToPool(uint256,uint256)": {
        "details": "adds gaming delay to a pool This function should be called by GameManager when the last game in an epoch runs longer than the intended sixDayEnd",
        "params": {
          "gamingDelay": "gaming delay time in seconds",
          "pool_id": "the id of the pool"
        }
      },
      "checkYield(address,uint256)": {
        "details": "This function is used, so as to check how much Eth a staker can withdraw from a specific pool.",
        "params": {
          "pool_id": "The pool from which they would like to claim.",
          "staker": "The address of the staker we would like to check."
        }
      },
      "claimYield(uint256)": {
        "details": "This function is used by stakers to claim their yields.",
        "params": {
          "pool_id": "The pool from which they would like to claim."
        }
      },
      "dissolveOldCreateNew()": {
        "details": "This function is used by cronJob to dissolve an old pool at its dissolving time and create a new pool.Any unclaimed ethers left in the old pool is returned to endowmentFund upon the pool's dissolution"
      },
      "getEthPaidOut()": {
        "details": "This function is returning the Ether that has been claimed by this contract till now."
      },
      "getNumberOfDissolvedPools()": {
        "details": "This function is returning the total number of Pools that have been dissolved."
      },
      "getNumberOfOpenPools()": {
        "details": "This function is returning the total number of Pools that are still open."
      },
      "getNumberOfTokensStaked()": {
        "details": "This function is returning the total number of Tokens that are staked."
      },
      "getNumberOfTotalStakers()": {
        "details": "This function is returning the total number of Stakers that claimed from this contract."
      },
      "getTotalNumberOfPools()": {
        "details": "This function is returning the total number of Pools that were created."
      },
      "setStakingContract(address)": {
        "details": "This function is used by owner to change stakingContract's address.",
        "params": {
          "_stakingContract": "The address of the new stakingContract."
        }
      },
      "timeUntilClaiming()": {
        "details": "return the time remaining (in seconds) until time availabe for claiming the current pool only current pool can be claimed"
      },
      "timeUntilPoolDissolve()": {
        "details": "return the time remaining (in seconds) until time for dissolving the current pool If the pool is already dissolved, returns 0."
      }
    }
  },
  "userdoc": {
    "methods": {
      "setProxy(address)": {
        "notice": "Set/update address of Proxy contract"
      }
    }
  }
}